{
  "_format": "hh-sol-artifact-1",
  "contractName": "NORI",
  "sourceName": "contracts/NORI.sol",
  "abi": [
    {
      "anonymous": false,
      "inputs": [
        {
          "indexed": true,
          "internalType": "address",
          "name": "owner",
          "type": "address"
        },
        {
          "indexed": true,
          "internalType": "address",
          "name": "spender",
          "type": "address"
        },
        {
          "indexed": false,
          "internalType": "uint256",
          "name": "value",
          "type": "uint256"
        }
      ],
      "name": "Approval",
      "type": "event"
    },
    {
      "anonymous": false,
      "inputs": [
        {
          "indexed": false,
          "internalType": "uint8",
          "name": "version",
          "type": "uint8"
        }
      ],
      "name": "Initialized",
      "type": "event"
    },
    {
      "anonymous": false,
      "inputs": [
        {
          "indexed": false,
          "internalType": "address",
          "name": "account",
          "type": "address"
        }
      ],
      "name": "Paused",
      "type": "event"
    },
    {
      "anonymous": false,
      "inputs": [
        {
          "indexed": true,
          "internalType": "bytes32",
          "name": "role",
          "type": "bytes32"
        },
        {
          "indexed": true,
          "internalType": "bytes32",
          "name": "previousAdminRole",
          "type": "bytes32"
        },
        {
          "indexed": true,
          "internalType": "bytes32",
          "name": "newAdminRole",
          "type": "bytes32"
        }
      ],
      "name": "RoleAdminChanged",
      "type": "event"
    },
    {
      "anonymous": false,
      "inputs": [
        {
          "indexed": true,
          "internalType": "bytes32",
          "name": "role",
          "type": "bytes32"
        },
        {
          "indexed": true,
          "internalType": "address",
          "name": "account",
          "type": "address"
        },
        {
          "indexed": true,
          "internalType": "address",
          "name": "sender",
          "type": "address"
        }
      ],
      "name": "RoleGranted",
      "type": "event"
    },
    {
      "anonymous": false,
      "inputs": [
        {
          "indexed": true,
          "internalType": "bytes32",
          "name": "role",
          "type": "bytes32"
        },
        {
          "indexed": true,
          "internalType": "address",
          "name": "account",
          "type": "address"
        },
        {
          "indexed": true,
          "internalType": "address",
          "name": "sender",
          "type": "address"
        }
      ],
      "name": "RoleRevoked",
      "type": "event"
    },
    {
      "anonymous": false,
      "inputs": [
        {
          "indexed": true,
          "internalType": "address",
          "name": "from",
          "type": "address"
        },
        {
          "indexed": true,
          "internalType": "address",
          "name": "to",
          "type": "address"
        },
        {
          "indexed": false,
          "internalType": "uint256",
          "name": "value",
          "type": "uint256"
        }
      ],
      "name": "Transfer",
      "type": "event"
    },
    {
      "anonymous": false,
      "inputs": [
        {
          "indexed": true,
          "internalType": "address[]",
          "name": "recipients",
          "type": "address[]"
        },
        {
          "indexed": true,
          "internalType": "uint256[]",
          "name": "amounts",
          "type": "uint256[]"
        }
      ],
      "name": "TransferredBatch",
      "type": "event"
    },
    {
      "anonymous": false,
      "inputs": [
        {
          "indexed": false,
          "internalType": "address",
          "name": "account",
          "type": "address"
        }
      ],
      "name": "Unpaused",
      "type": "event"
    },
    {
      "inputs": [],
      "name": "DEFAULT_ADMIN_ROLE",
      "outputs": [
        {
          "internalType": "bytes32",
          "name": "",
          "type": "bytes32"
        }
      ],
      "stateMutability": "view",
      "type": "function"
    },
    {
      "inputs": [],
      "name": "DOMAIN_SEPARATOR",
      "outputs": [
        {
          "internalType": "bytes32",
          "name": "",
          "type": "bytes32"
        }
      ],
      "stateMutability": "view",
      "type": "function"
    },
    {
      "inputs": [],
      "name": "PAUSER_ROLE",
      "outputs": [
        {
          "internalType": "bytes32",
          "name": "",
          "type": "bytes32"
        }
      ],
      "stateMutability": "view",
      "type": "function"
    },
    {
      "inputs": [
        {
          "internalType": "address",
          "name": "owner",
          "type": "address"
        },
        {
          "internalType": "address",
          "name": "spender",
          "type": "address"
        }
      ],
      "name": "allowance",
      "outputs": [
        {
          "internalType": "uint256",
          "name": "",
          "type": "uint256"
        }
      ],
      "stateMutability": "view",
      "type": "function"
    },
    {
      "inputs": [
        {
          "internalType": "address",
          "name": "spender",
          "type": "address"
        },
        {
          "internalType": "uint256",
          "name": "value",
          "type": "uint256"
        }
      ],
      "name": "approve",
      "outputs": [
        {
          "internalType": "bool",
          "name": "",
          "type": "bool"
        }
      ],
      "stateMutability": "nonpayable",
      "type": "function"
    },
    {
      "inputs": [
        {
          "internalType": "address",
          "name": "account",
          "type": "address"
        }
      ],
      "name": "balanceOf",
      "outputs": [
        {
          "internalType": "uint256",
          "name": "",
          "type": "uint256"
        }
      ],
      "stateMutability": "view",
      "type": "function"
    },
    {
      "inputs": [
        {
          "internalType": "address[]",
          "name": "accounts",
          "type": "address[]"
        }
      ],
      "name": "balanceOfBatch",
      "outputs": [
        {
          "internalType": "uint256[]",
          "name": "",
          "type": "uint256[]"
        }
      ],
      "stateMutability": "view",
      "type": "function"
    },
    {
      "inputs": [
        {
          "internalType": "address[]",
          "name": "recipients",
          "type": "address[]"
        },
        {
          "internalType": "uint256[]",
          "name": "amounts",
          "type": "uint256[]"
        }
      ],
      "name": "batchTransfer",
      "outputs": [],
      "stateMutability": "nonpayable",
      "type": "function"
    },
    {
      "inputs": [
        {
          "internalType": "uint256",
          "name": "amount",
          "type": "uint256"
        }
      ],
      "name": "burn",
      "outputs": [],
      "stateMutability": "nonpayable",
      "type": "function"
    },
    {
      "inputs": [
        {
          "internalType": "address",
          "name": "account",
          "type": "address"
        },
        {
          "internalType": "uint256",
          "name": "amount",
          "type": "uint256"
        }
      ],
      "name": "burnFrom",
      "outputs": [],
      "stateMutability": "nonpayable",
      "type": "function"
    },
    {
      "inputs": [],
      "name": "decimals",
      "outputs": [
        {
          "internalType": "uint8",
          "name": "",
          "type": "uint8"
        }
      ],
      "stateMutability": "view",
      "type": "function"
    },
    {
      "inputs": [
        {
          "internalType": "address",
          "name": "spender",
          "type": "address"
        },
        {
          "internalType": "uint256",
          "name": "subtractedValue",
          "type": "uint256"
        }
      ],
      "name": "decreaseAllowance",
      "outputs": [
        {
          "internalType": "bool",
          "name": "",
          "type": "bool"
        }
      ],
      "stateMutability": "nonpayable",
      "type": "function"
    },
    {
      "inputs": [
        {
          "internalType": "bytes32",
          "name": "role",
          "type": "bytes32"
        }
      ],
      "name": "getRoleAdmin",
      "outputs": [
        {
          "internalType": "bytes32",
          "name": "",
          "type": "bytes32"
        }
      ],
      "stateMutability": "view",
      "type": "function"
    },
    {
      "inputs": [
        {
          "internalType": "bytes32",
          "name": "role",
          "type": "bytes32"
        },
        {
          "internalType": "uint256",
          "name": "index",
          "type": "uint256"
        }
      ],
      "name": "getRoleMember",
      "outputs": [
        {
          "internalType": "address",
          "name": "",
          "type": "address"
        }
      ],
      "stateMutability": "view",
      "type": "function"
    },
    {
      "inputs": [
        {
          "internalType": "bytes32",
          "name": "role",
          "type": "bytes32"
        }
      ],
      "name": "getRoleMemberCount",
      "outputs": [
        {
          "internalType": "uint256",
          "name": "",
          "type": "uint256"
        }
      ],
      "stateMutability": "view",
      "type": "function"
    },
    {
      "inputs": [
        {
          "internalType": "bytes32",
          "name": "role",
          "type": "bytes32"
        },
        {
          "internalType": "address",
          "name": "account",
          "type": "address"
        }
      ],
      "name": "grantRole",
      "outputs": [],
      "stateMutability": "nonpayable",
      "type": "function"
    },
    {
      "inputs": [
        {
          "internalType": "bytes32",
          "name": "role",
          "type": "bytes32"
        },
        {
          "internalType": "address",
          "name": "account",
          "type": "address"
        }
      ],
      "name": "hasRole",
      "outputs": [
        {
          "internalType": "bool",
          "name": "",
          "type": "bool"
        }
      ],
      "stateMutability": "view",
      "type": "function"
    },
    {
      "inputs": [
        {
          "internalType": "address",
          "name": "spender",
          "type": "address"
        },
        {
          "internalType": "uint256",
          "name": "addedValue",
          "type": "uint256"
        }
      ],
      "name": "increaseAllowance",
      "outputs": [
        {
          "internalType": "bool",
          "name": "",
          "type": "bool"
        }
      ],
      "stateMutability": "nonpayable",
      "type": "function"
    },
    {
      "inputs": [],
      "name": "initialize",
      "outputs": [],
      "stateMutability": "nonpayable",
      "type": "function"
    },
    {
      "inputs": [],
      "name": "name",
      "outputs": [
        {
          "internalType": "string",
          "name": "",
          "type": "string"
        }
      ],
      "stateMutability": "view",
      "type": "function"
    },
    {
      "inputs": [
        {
          "internalType": "address",
          "name": "owner",
          "type": "address"
        }
      ],
      "name": "nonces",
      "outputs": [
        {
          "internalType": "uint256",
          "name": "",
          "type": "uint256"
        }
      ],
      "stateMutability": "view",
      "type": "function"
    },
    {
      "inputs": [],
      "name": "pause",
      "outputs": [],
      "stateMutability": "nonpayable",
      "type": "function"
    },
    {
      "inputs": [],
      "name": "paused",
      "outputs": [
        {
          "internalType": "bool",
          "name": "",
          "type": "bool"
        }
      ],
      "stateMutability": "view",
      "type": "function"
    },
    {
      "inputs": [
        {
          "internalType": "address",
          "name": "owner",
          "type": "address"
        },
        {
          "internalType": "address",
          "name": "spender",
          "type": "address"
        },
        {
          "internalType": "uint256",
          "name": "value",
          "type": "uint256"
        },
        {
          "internalType": "uint256",
          "name": "deadline",
          "type": "uint256"
        },
        {
          "internalType": "uint8",
          "name": "v",
          "type": "uint8"
        },
        {
          "internalType": "bytes32",
          "name": "r",
          "type": "bytes32"
        },
        {
          "internalType": "bytes32",
          "name": "s",
          "type": "bytes32"
        }
      ],
      "name": "permit",
      "outputs": [],
      "stateMutability": "nonpayable",
      "type": "function"
    },
    {
      "inputs": [
        {
          "internalType": "bytes32",
          "name": "role",
          "type": "bytes32"
        },
        {
          "internalType": "address",
          "name": "account",
          "type": "address"
        }
      ],
      "name": "renounceRole",
      "outputs": [],
      "stateMutability": "nonpayable",
      "type": "function"
    },
    {
      "inputs": [
        {
          "internalType": "bytes32",
          "name": "role",
          "type": "bytes32"
        },
        {
          "internalType": "address",
          "name": "account",
          "type": "address"
        }
      ],
      "name": "revokeRole",
      "outputs": [],
      "stateMutability": "nonpayable",
      "type": "function"
    },
    {
      "inputs": [
        {
          "internalType": "bytes4",
          "name": "interfaceId",
          "type": "bytes4"
        }
      ],
      "name": "supportsInterface",
      "outputs": [
        {
          "internalType": "bool",
          "name": "",
          "type": "bool"
        }
      ],
      "stateMutability": "view",
      "type": "function"
    },
    {
      "inputs": [],
      "name": "symbol",
      "outputs": [
        {
          "internalType": "string",
          "name": "",
          "type": "string"
        }
      ],
      "stateMutability": "view",
      "type": "function"
    },
    {
      "inputs": [],
      "name": "totalSupply",
      "outputs": [
        {
          "internalType": "uint256",
          "name": "",
          "type": "uint256"
        }
      ],
      "stateMutability": "view",
      "type": "function"
    },
    {
      "inputs": [
        {
          "internalType": "address",
          "name": "to",
          "type": "address"
        },
        {
          "internalType": "uint256",
          "name": "amount",
          "type": "uint256"
        }
      ],
      "name": "transfer",
      "outputs": [
        {
          "internalType": "bool",
          "name": "",
          "type": "bool"
        }
      ],
      "stateMutability": "nonpayable",
      "type": "function"
    },
    {
      "inputs": [
        {
          "internalType": "address",
          "name": "from",
          "type": "address"
        },
        {
          "internalType": "address",
          "name": "to",
          "type": "address"
        },
        {
          "internalType": "uint256",
          "name": "amount",
          "type": "uint256"
        }
      ],
      "name": "transferFrom",
      "outputs": [
        {
          "internalType": "bool",
          "name": "",
          "type": "bool"
        }
      ],
      "stateMutability": "nonpayable",
      "type": "function"
    },
    {
      "inputs": [],
      "name": "unpause",
      "outputs": [],
      "stateMutability": "nonpayable",
      "type": "function"
    }
  ],
  "bytecode": "0x608060405234801561001057600080fd5b50612675806100206000396000f3fe608060405234801561001057600080fd5b50600436106101f05760003560e01c806379cc67901161010f578063a217fddf116100a2578063d505accf11610071578063d505accf1461041f578063d547741f14610432578063dd62ed3e14610445578063e63ab1e91461045857600080fd5b8063a217fddf146103de578063a457c2d7146103e6578063a9059cbb146103f9578063ca15c8731461040c57600080fd5b806388d695b2116100de57806388d695b2146103855780639010d07c1461039857806391d14854146103c357806395d89b41146103d657600080fd5b806379cc67901461034f5780637ecebe00146103625780638129fc1c146103755780638456cb591461037d57600080fd5b80633644e5151161018757806342966c681161015657806342966c68146102e8578063458c738e146102fb5780635c975abb1461031b57806370a082311461032657600080fd5b80633644e515146102b257806336568abe146102ba57806339509351146102cd5780633f4ba83a146102e057600080fd5b806323b872dd116101c357806323b872dd14610257578063248a9ca31461026a5780632f2ff15d1461028e578063313ce567146102a357600080fd5b806301ffc9a7146101f557806306fdde031461021d578063095ea7b31461023257806318160ddd14610245575b600080fd5b610208610203366004611f36565b61046d565b60405190151581526020015b60405180910390f35b610225610498565b6040516102149190611f8c565b610208610240366004611fd6565b61052a565b6035545b604051908152602001610214565b610208610265366004612000565b610579565b61024961027836600461203c565b6000908152610162602052604090206001015490565b6102a161029c366004612055565b61059d565b005b60405160128152602001610214565b6102496105c8565b6102a16102c8366004612055565b6105d7565b6102086102db366004611fd6565b610655565b6102a1610681565b6102a16102f636600461203c565b6106a4565b61030e61030936600461215e565b6106ae565b604051610214919061219b565b60fe5460ff16610208565b6102496103343660046121df565b6001600160a01b031660009081526033602052604090205490565b6102a161035d366004611fd6565b610770565b6102496103703660046121df565b610785565b6102a16107a3565b6102a161082d565b6102a16103933660046121fa565b61084d565b6103ab6103a63660046122b5565b610986565b6040516001600160a01b039091168152602001610214565b6102086103d1366004612055565b61099f565b6102256109cb565b610249600081565b6102086103f4366004611fd6565b6109da565b610208610407366004611fd6565b610a55565b61024961041a36600461203c565b610a63565b6102a161042d3660046122d7565b610a7b565b6102a1610440366004612055565b610bdf565b61024961045336600461234a565b610c05565b61024960008051602061262083398151915281565b60006001600160e01b03198216635a05180f60e01b1480610492575061049282610c30565b92915050565b6060603680546104a790612374565b80601f01602080910402602001604051908101604052809291908181526020018280546104d390612374565b80156105205780601f106104f557610100808354040283529160200191610520565b820191906000526020600020905b81548152906001019060200180831161050357829003601f168201915b5050505050905090565b600061053860fe5460ff1690565b1561055e5760405162461bcd60e51b8152600401610555906123a8565b60405180910390fd5b6105688383610c65565b6105728383610c88565b9392505050565b600033610587858285610c96565b610592858585610d10565b506001949350505050565b600082815261016260205260409020600101546105b981610ee9565b6105c38383610ef3565b505050565b60006105d2610f07565b905090565b6001600160a01b03811633146106475760405162461bcd60e51b815260206004820152602f60248201527f416363657373436f6e74726f6c3a2063616e206f6e6c792072656e6f756e636560448201526e103937b632b9903337b91039b2b63360891b6064820152608401610555565b6106518282610f82565b5050565b6000336106778185856106688383610c05565b61067291906123e8565b610f96565b5060019392505050565b60008051602061262083398151915261069981610ee9565b6106a16110ba565b50565b6106a1338261114d565b60606000825167ffffffffffffffff8111156106cc576106cc612081565b6040519080825280602002602001820160405280156106f5578160200160208202803683370190505b50905060005b83518110156107695761073c84828151811061071957610719612400565b60200260200101516001600160a01b031660009081526033602052604090205490565b82828151811061074e5761074e612400565b602090810291909101015261076281612416565b90506106fb565b5092915050565b61077b823383610c96565b610651828261114d565b6001600160a01b038116600090815260cb6020526040812054610492565b60006107af60016112a7565b905080156107c7576000805461ff0019166101001790555b6107cf611334565b6107e5336b019d971e4fe8401e740000006113fc565b80156106a1576000805461ff0019169055604051600181527f7f26b83ff96e1f2b6a682f133852f6798a09c465da95921460cefb38474024989060200160405180910390a150565b60008051602061262083398151915261084581610ee9565b6106a16114e7565b80518251146108d25760405162461bcd60e51b815260206004820152604560248201527f45524332305072657365745061757361626c655065726d697373696f6e65643a60448201527f20726563697069656e7420616e6420616d6f756e74206c656e677468206d69736064820152640dac2e8c6d60db1b608482015260a401610555565b60005b825181101561092d5761091a8382815181106108f3576108f3612400565b602002602001015183838151811061090d5761090d612400565b6020026020010151610a55565b508061092581612416565b9150506108d5565b508060405161093c919061242f565b6040518091039020826040516109529190612465565b604051908190038120907fcaeaf682601a4c4cd37a1dbb38f60c41760aa6dbebfca3f837307249e571697690600090a35050565b600082815261019460205260408120610572908361153f565b6000918252610162602090815260408084206001600160a01b0393909316845291905290205460ff1690565b6060603780546104a790612374565b600033816109e88286610c05565b905083811015610a485760405162461bcd60e51b815260206004820152602560248201527f45524332303a2064656372656173656420616c6c6f77616e63652062656c6f77604482015264207a65726f60d81b6064820152608401610555565b6105928286868403610f96565b600033610677818585610d10565b6000818152610194602052604081206104929061154b565b83421115610acb5760405162461bcd60e51b815260206004820152601d60248201527f45524332305065726d69743a206578706972656420646561646c696e650000006044820152606401610555565b60007f6e71edae12b1b97f4d1f60370fef10105fa2faae0126114a169c64845d6126c9888888610afa8c611555565b6040805160208101969096526001600160a01b0394851690860152929091166060840152608083015260a082015260c0810186905260e0016040516020818303038152906040528051906020012090506000610b558261157d565b90506000610b65828787876115cb565b9050896001600160a01b0316816001600160a01b031614610bc85760405162461bcd60e51b815260206004820152601e60248201527f45524332305065726d69743a20696e76616c6964207369676e617475726500006044820152606401610555565b610bd38a8a8a610f96565b50505050505050505050565b60008281526101626020526040902060010154610bfb81610ee9565b6105c38383610f82565b6001600160a01b03918216600090815260346020908152604080832093909416825291909152205490565b60006001600160e01b03198216637965db0b60e01b148061049257506301ffc9a760e01b6001600160e01b0319831614610492565b60fe5460ff16156106515760405162461bcd60e51b8152600401610555906123a8565b600033610677818585610f96565b6000610ca28484610c05565b90506000198114610d0a5781811015610cfd5760405162461bcd60e51b815260206004820152601d60248201527f45524332303a20696e73756666696369656e7420616c6c6f77616e63650000006044820152606401610555565b610d0a8484848403610f96565b50505050565b6001600160a01b038316610d745760405162461bcd60e51b815260206004820152602560248201527f45524332303a207472616e736665722066726f6d20746865207a65726f206164604482015264647265737360d81b6064820152608401610555565b6001600160a01b038216610dd65760405162461bcd60e51b815260206004820152602360248201527f45524332303a207472616e7366657220746f20746865207a65726f206164647260448201526265737360e81b6064820152608401610555565b610de18383836115f3565b6001600160a01b03831660009081526033602052604090205481811015610e595760405162461bcd60e51b815260206004820152602660248201527f45524332303a207472616e7366657220616d6f756e7420657863656564732062604482015265616c616e636560d01b6064820152608401610555565b6001600160a01b03808516600090815260336020526040808220858503905591851681529081208054849290610e909084906123e8565b92505081905550826001600160a01b0316846001600160a01b03167fddf252ad1be2c89b69c2b068fc378daa952ba7f163c4a11628f55a4df523b3ef84604051610edc91815260200190565b60405180910390a3610d0a565b6106a18133611616565b610efd8282610c65565b610651828261167a565b60006105d27f8b73c3c69bb8fe3d512ecc4cf759cc79239f7b179b0ffacaa9a75d522b39400f610f3660975490565b6098546040805160208101859052908101839052606081018290524660808201523060a082015260009060c0016040516020818303038152906040528051906020012090509392505050565b610f8c8282610c65565b610651828261169d565b6001600160a01b038316610ff85760405162461bcd60e51b8152602060048201526024808201527f45524332303a20617070726f76652066726f6d20746865207a65726f206164646044820152637265737360e01b6064820152608401610555565b6001600160a01b0382166110595760405162461bcd60e51b815260206004820152602260248201527f45524332303a20617070726f766520746f20746865207a65726f206164647265604482015261737360f01b6064820152608401610555565b6001600160a01b0383811660008181526034602090815260408083209487168084529482529182902085905590518481527f8c5be1e5ebec7d5bd14f71427d1e84f3dd0314c0f7b2291e5b200ac8c7c3b925910160405180910390a3505050565b60fe5460ff166111035760405162461bcd60e51b815260206004820152601460248201527314185d5cd8589b194e881b9bdd081c185d5cd95960621b6044820152606401610555565b60fe805460ff191690557f5db9ee0a495bf2e6ff9c91a7834c1ba4fdd244a5e8aa4e537bd38aeae4b073aa335b6040516001600160a01b03909116815260200160405180910390a1565b6001600160a01b0382166111ad5760405162461bcd60e51b815260206004820152602160248201527f45524332303a206275726e2066726f6d20746865207a65726f206164647265736044820152607360f81b6064820152608401610555565b6111b9826000836115f3565b6001600160a01b0382166000908152603360205260409020548181101561122d5760405162461bcd60e51b815260206004820152602260248201527f45524332303a206275726e20616d6f756e7420657863656564732062616c616e604482015261636560f01b6064820152608401610555565b6001600160a01b038316600090815260336020526040812083830390556035805484929061125c908490612498565b90915550506040518281526000906001600160a01b038516907fddf252ad1be2c89b69c2b068fc378daa952ba7f163c4a11628f55a4df523b3ef9060200160405180910390a3505050565b60008054610100900460ff16156112ee578160ff1660011480156112ca5750303b155b6112e65760405162461bcd60e51b8152600401610555906124af565b506000919050565b60005460ff8084169116106113155760405162461bcd60e51b8152600401610555906124af565b506000805460ff191660ff92909216919091179055600190565b919050565b600054610100900460ff1661135b5760405162461bcd60e51b8152600401610555906124fd565b6113636116c0565b61136b6116c0565b6113736116c0565b61137b6116c0565b6113836116e7565b61138b61171a565b6113cd604051806040016040528060048152602001634e4f524960e01b815250604051806040016040528060048152602001634e4f524960e01b815250611764565b6113f2604051806040016040528060048152602001634e4f524960e01b8152506117b2565b6113fa6116c0565b565b6001600160a01b0382166114525760405162461bcd60e51b815260206004820152601f60248201527f45524332303a206d696e7420746f20746865207a65726f2061646472657373006044820152606401610555565b61145e600083836115f3565b806035600082825461147091906123e8565b90915550506001600160a01b0382166000908152603360205260408120805483929061149d9084906123e8565b90915550506040518181526001600160a01b038316906000907fddf252ad1be2c89b69c2b068fc378daa952ba7f163c4a11628f55a4df523b3ef9060200160405180910390a35050565b60fe5460ff161561150a5760405162461bcd60e51b8152600401610555906123a8565b60fe805460ff191660011790557f62e78cea01bee320cd4e420270b5ea74000d11b0c9f74754ebdbfc544b05a2586111303390565b600061057283836117d9565b6000610492825490565b6001600160a01b038116600090815260cb602052604090208054600181018255905b50919050565b600061049261158a610f07565b8360405161190160f01b6020820152602281018390526042810182905260009060620160405160208183030381529060405280519060200120905092915050565b60008060006115dc87878787611803565b915091506115e9816118f0565b5095945050505050565b60fe5460ff16156105c35760405162461bcd60e51b8152600401610555906123a8565b611620828261099f565b61065157611638816001600160a01b03166014611aa6565b611643836020611aa6565b604051602001611654929190612548565b60408051601f198184030181529082905262461bcd60e51b825261055591600401611f8c565b6116848282611c42565b6000828152610194602052604090206105c39082611cc9565b6116a78282611cde565b6000828152610194602052604090206105c39082611d46565b600054610100900460ff166113fa5760405162461bcd60e51b8152600401610555906124fd565b600054610100900460ff1661170e5760405162461bcd60e51b8152600401610555906124fd565b60fe805460ff19169055565b600054610100900460ff166117415760405162461bcd60e51b8152600401610555906124fd565b61174c600033610ef3565b6113fa60008051602061262083398151915233610ef3565b600054610100900460ff1661178b5760405162461bcd60e51b8152600401610555906124fd565b815161179e906036906020850190611e9d565b5080516105c3906037906020840190611e9d565b600054610100900460ff166106a15760405162461bcd60e51b8152600401610555906124fd565b60008260000182815481106117f0576117f0612400565b9060005260206000200154905092915050565b6000807f7fffffffffffffffffffffffffffffff5d576e7357a4501ddfe92f46681b20a083111561183a57506000905060036118e7565b8460ff16601b1415801561185257508460ff16601c14155b1561186357506000905060046118e7565b6040805160008082526020820180845289905260ff881692820192909252606081018690526080810185905260019060a0016020604051602081039080840390855afa1580156118b7573d6000803e3d6000fd5b5050604051601f1901519150506001600160a01b0381166118e0576000600192509250506118e7565b9150600090505b94509492505050565b6000816004811115611904576119046125bd565b0361190c5750565b6001816004811115611920576119206125bd565b0361196d5760405162461bcd60e51b815260206004820152601860248201527f45434453413a20696e76616c6964207369676e617475726500000000000000006044820152606401610555565b6002816004811115611981576119816125bd565b036119ce5760405162461bcd60e51b815260206004820152601f60248201527f45434453413a20696e76616c6964207369676e6174757265206c656e677468006044820152606401610555565b60038160048111156119e2576119e26125bd565b03611a3a5760405162461bcd60e51b815260206004820152602260248201527f45434453413a20696e76616c6964207369676e6174757265202773272076616c604482015261756560f01b6064820152608401610555565b6004816004811115611a4e57611a4e6125bd565b036106a15760405162461bcd60e51b815260206004820152602260248201527f45434453413a20696e76616c6964207369676e6174757265202776272076616c604482015261756560f01b6064820152608401610555565b60606000611ab58360026125d3565b611ac09060026123e8565b67ffffffffffffffff811115611ad857611ad8612081565b6040519080825280601f01601f191660200182016040528015611b02576020820181803683370190505b509050600360fc1b81600081518110611b1d57611b1d612400565b60200101906001600160f81b031916908160001a905350600f60fb1b81600181518110611b4c57611b4c612400565b60200101906001600160f81b031916908160001a9053506000611b708460026125d3565b611b7b9060016123e8565b90505b6001811115611bf3576f181899199a1a9b1b9c1cb0b131b232b360811b85600f1660108110611baf57611baf612400565b1a60f81b828281518110611bc557611bc5612400565b60200101906001600160f81b031916908160001a90535060049490941c93611bec816125f2565b9050611b7e565b5083156105725760405162461bcd60e51b815260206004820181905260248201527f537472696e67733a20686578206c656e67746820696e73756666696369656e746044820152606401610555565b611c4c828261099f565b610651576000828152610162602090815260408083206001600160a01b03851684529091529020805460ff19166001179055611c853390565b6001600160a01b0316816001600160a01b0316837f2f8788117e7eff1d82e926ec794901d17c78024a50270940304540a733656f0d60405160405180910390a45050565b6000610572836001600160a01b038416611d5b565b611ce8828261099f565b15610651576000828152610162602090815260408083206001600160a01b0385168085529252808320805460ff1916905551339285917ff6391f5c32d9c69d2a47ea670b442974b53935d1edc7fd64eb21e047a839171b9190a45050565b6000610572836001600160a01b038416611daa565b6000818152600183016020526040812054611da257508154600181810184556000848152602080822090930184905584548482528286019093526040902091909155610492565b506000610492565b60008181526001830160205260408120548015611e93576000611dce600183612498565b8554909150600090611de290600190612498565b9050818114611e47576000866000018281548110611e0257611e02612400565b9060005260206000200154905080876000018481548110611e2557611e25612400565b6000918252602080832090910192909255918252600188019052604090208390555b8554869080611e5857611e58612609565b600190038181906000526020600020016000905590558560010160008681526020019081526020016000206000905560019350505050610492565b6000915050610492565b828054611ea990612374565b90600052602060002090601f016020900481019282611ecb5760008555611f11565b82601f10611ee457805160ff1916838001178555611f11565b82800160010185558215611f11579182015b82811115611f11578251825591602001919060010190611ef6565b50611f1d929150611f21565b5090565b5b80821115611f1d5760008155600101611f22565b600060208284031215611f4857600080fd5b81356001600160e01b03198116811461057257600080fd5b60005b83811015611f7b578181015183820152602001611f63565b83811115610d0a5750506000910152565b6020815260008251806020840152611fab816040850160208701611f60565b601f01601f19169190910160400192915050565b80356001600160a01b038116811461132f57600080fd5b60008060408385031215611fe957600080fd5b611ff283611fbf565b946020939093013593505050565b60008060006060848603121561201557600080fd5b61201e84611fbf565b925061202c60208501611fbf565b9150604084013590509250925092565b60006020828403121561204e57600080fd5b5035919050565b6000806040838503121561206857600080fd5b8235915061207860208401611fbf565b90509250929050565b634e487b7160e01b600052604160045260246000fd5b604051601f8201601f1916810167ffffffffffffffff811182821017156120c0576120c0612081565b604052919050565b600067ffffffffffffffff8211156120e2576120e2612081565b5060051b60200190565b600082601f8301126120fd57600080fd5b8135602061211261210d836120c8565b612097565b82815260059290921b8401810191818101908684111561213157600080fd5b8286015b848110156121535761214681611fbf565b8352918301918301612135565b509695505050505050565b60006020828403121561217057600080fd5b813567ffffffffffffffff81111561218757600080fd5b612193848285016120ec565b949350505050565b6020808252825182820181905260009190848201906040850190845b818110156121d3578351835292840192918401916001016121b7565b50909695505050505050565b6000602082840312156121f157600080fd5b61057282611fbf565b6000806040838503121561220d57600080fd5b823567ffffffffffffffff8082111561222557600080fd5b612231868387016120ec565b935060209150818501358181111561224857600080fd5b85019050601f8101861361225b57600080fd5b803561226961210d826120c8565b81815260059190911b8201830190838101908883111561228857600080fd5b928401925b828410156122a65783358252928401929084019061228d565b80955050505050509250929050565b600080604083850312156122c857600080fd5b50508035926020909101359150565b600080600080600080600060e0888a0312156122f257600080fd5b6122fb88611fbf565b965061230960208901611fbf565b95506040880135945060608801359350608088013560ff8116811461232d57600080fd5b9699959850939692959460a0840135945060c09093013592915050565b6000806040838503121561235d57600080fd5b61236683611fbf565b915061207860208401611fbf565b600181811c9082168061238857607f821691505b60208210810361157757634e487b7160e01b600052602260045260246000fd5b60208082526010908201526f14185d5cd8589b194e881c185d5cd95960821b604082015260600190565b634e487b7160e01b600052601160045260246000fd5b600082198211156123fb576123fb6123d2565b500190565b634e487b7160e01b600052603260045260246000fd5b600060018201612428576124286123d2565b5060010190565b815160009082906020808601845b838110156124595781518552938201939082019060010161243d565b50929695505050505050565b815160009082906020808601845b838110156124595781516001600160a01b031685529382019390820190600101612473565b6000828210156124aa576124aa6123d2565b500390565b6020808252602e908201527f496e697469616c697a61626c653a20636f6e747261637420697320616c72656160408201526d191e481a5b9a5d1a585b1a5e995960921b606082015260800190565b6020808252602b908201527f496e697469616c697a61626c653a20636f6e7472616374206973206e6f74206960408201526a6e697469616c697a696e6760a81b606082015260800190565b7f416363657373436f6e74726f6c3a206163636f756e7420000000000000000000815260008351612580816017850160208801611f60565b7001034b99036b4b9b9b4b733903937b6329607d1b60179184019182015283516125b1816028840160208801611f60565b01602801949350505050565b634e487b7160e01b600052602160045260246000fd5b60008160001904831182151516156125ed576125ed6123d2565b500290565b600081612601576126016123d2565b506000190190565b634e487b7160e01b600052603160045260246000fdfe65d7a28e3265b37a6474929f336521b332c1681b933f6cb9f3376673440d862aa2646970667358221220dc93d18fe3055f93d954c9491561f3bed9b526d4c5724951bbf08cf37bb958e364736f6c634300080d0033",
  "linkReferences": {},
  "deployedLinkReferences": {}
}