{
  "_format": "hh-sol-artifact-1",
  "contractName": "NORI",
  "sourceName": "contracts/NORI.sol",
  "abi": [
    {
      "anonymous": false,
      "inputs": [
        {
          "indexed": true,
          "internalType": "address",
          "name": "owner",
          "type": "address"
        },
        {
          "indexed": true,
          "internalType": "address",
          "name": "spender",
          "type": "address"
        },
        {
          "indexed": false,
          "internalType": "uint256",
          "name": "value",
          "type": "uint256"
        }
      ],
      "name": "Approval",
      "type": "event"
    },
    {
      "anonymous": false,
      "inputs": [
        {
          "indexed": true,
          "internalType": "address",
          "name": "operator",
          "type": "address"
        },
        {
          "indexed": true,
          "internalType": "address",
          "name": "tokenHolder",
          "type": "address"
        }
      ],
      "name": "AuthorizedOperator",
      "type": "event"
    },
    {
      "anonymous": false,
      "inputs": [
        {
          "indexed": true,
          "internalType": "address",
          "name": "operator",
          "type": "address"
        },
        {
          "indexed": true,
          "internalType": "address",
          "name": "from",
          "type": "address"
        },
        {
          "indexed": false,
          "internalType": "uint256",
          "name": "amount",
          "type": "uint256"
        },
        {
          "indexed": false,
          "internalType": "bytes",
          "name": "data",
          "type": "bytes"
        },
        {
          "indexed": false,
          "internalType": "bytes",
          "name": "operatorData",
          "type": "bytes"
        }
      ],
      "name": "Burned",
      "type": "event"
    },
    {
      "anonymous": false,
      "inputs": [
        {
          "indexed": true,
          "internalType": "address",
          "name": "operator",
          "type": "address"
        },
        {
          "indexed": true,
          "internalType": "address",
          "name": "to",
          "type": "address"
        },
        {
          "indexed": false,
          "internalType": "uint256",
          "name": "amount",
          "type": "uint256"
        },
        {
          "indexed": false,
          "internalType": "bytes",
          "name": "data",
          "type": "bytes"
        },
        {
          "indexed": false,
          "internalType": "bytes",
          "name": "operatorData",
          "type": "bytes"
        }
      ],
      "name": "Minted",
      "type": "event"
    },
    {
      "anonymous": false,
      "inputs": [
        {
          "indexed": false,
          "internalType": "address",
          "name": "account",
          "type": "address"
        }
      ],
      "name": "Paused",
      "type": "event"
    },
    {
      "anonymous": false,
      "inputs": [
        {
          "indexed": true,
          "internalType": "address",
          "name": "operator",
          "type": "address"
        },
        {
          "indexed": true,
          "internalType": "address",
          "name": "tokenHolder",
          "type": "address"
        }
      ],
      "name": "RevokedOperator",
      "type": "event"
    },
    {
      "anonymous": false,
      "inputs": [
        {
          "indexed": true,
          "internalType": "bytes32",
          "name": "role",
          "type": "bytes32"
        },
        {
          "indexed": true,
          "internalType": "bytes32",
          "name": "previousAdminRole",
          "type": "bytes32"
        },
        {
          "indexed": true,
          "internalType": "bytes32",
          "name": "newAdminRole",
          "type": "bytes32"
        }
      ],
      "name": "RoleAdminChanged",
      "type": "event"
    },
    {
      "anonymous": false,
      "inputs": [
        {
          "indexed": true,
          "internalType": "bytes32",
          "name": "role",
          "type": "bytes32"
        },
        {
          "indexed": true,
          "internalType": "address",
          "name": "account",
          "type": "address"
        },
        {
          "indexed": true,
          "internalType": "address",
          "name": "sender",
          "type": "address"
        }
      ],
      "name": "RoleGranted",
      "type": "event"
    },
    {
      "anonymous": false,
      "inputs": [
        {
          "indexed": true,
          "internalType": "bytes32",
          "name": "role",
          "type": "bytes32"
        },
        {
          "indexed": true,
          "internalType": "address",
          "name": "account",
          "type": "address"
        },
        {
          "indexed": true,
          "internalType": "address",
          "name": "sender",
          "type": "address"
        }
      ],
      "name": "RoleRevoked",
      "type": "event"
    },
    {
      "anonymous": false,
      "inputs": [
        {
          "indexed": true,
          "internalType": "address",
          "name": "operator",
          "type": "address"
        },
        {
          "indexed": true,
          "internalType": "address",
          "name": "from",
          "type": "address"
        },
        {
          "indexed": true,
          "internalType": "address",
          "name": "to",
          "type": "address"
        },
        {
          "indexed": false,
          "internalType": "uint256",
          "name": "amount",
          "type": "uint256"
        },
        {
          "indexed": false,
          "internalType": "bytes",
          "name": "data",
          "type": "bytes"
        },
        {
          "indexed": false,
          "internalType": "bytes",
          "name": "operatorData",
          "type": "bytes"
        }
      ],
      "name": "Sent",
      "type": "event"
    },
    {
      "anonymous": false,
      "inputs": [
        {
          "indexed": true,
          "internalType": "address",
          "name": "from",
          "type": "address"
        },
        {
          "indexed": true,
          "internalType": "address",
          "name": "to",
          "type": "address"
        },
        {
          "indexed": false,
          "internalType": "uint256",
          "name": "value",
          "type": "uint256"
        }
      ],
      "name": "Transfer",
      "type": "event"
    },
    {
      "anonymous": false,
      "inputs": [
        {
          "indexed": false,
          "internalType": "address",
          "name": "account",
          "type": "address"
        }
      ],
      "name": "Unpaused",
      "type": "event"
    },
    {
      "inputs": [],
      "name": "DEFAULT_ADMIN_ROLE",
      "outputs": [
        {
          "internalType": "bytes32",
          "name": "",
          "type": "bytes32"
        }
      ],
      "stateMutability": "view",
      "type": "function"
    },
    {
      "inputs": [],
      "name": "MINTER_ROLE",
      "outputs": [
        {
          "internalType": "bytes32",
          "name": "",
          "type": "bytes32"
        }
      ],
      "stateMutability": "view",
      "type": "function"
    },
    {
      "inputs": [],
      "name": "PAUSER_ROLE",
      "outputs": [
        {
          "internalType": "bytes32",
          "name": "",
          "type": "bytes32"
        }
      ],
      "stateMutability": "view",
      "type": "function"
    },
    {
      "inputs": [
        {
          "internalType": "address",
          "name": "holder",
          "type": "address"
        },
        {
          "internalType": "address",
          "name": "spender",
          "type": "address"
        }
      ],
      "name": "allowance",
      "outputs": [
        {
          "internalType": "uint256",
          "name": "",
          "type": "uint256"
        }
      ],
      "stateMutability": "view",
      "type": "function"
    },
    {
      "inputs": [
        {
          "internalType": "address",
          "name": "spender",
          "type": "address"
        },
        {
          "internalType": "uint256",
          "name": "value",
          "type": "uint256"
        }
      ],
      "name": "approve",
      "outputs": [
        {
          "internalType": "bool",
          "name": "",
          "type": "bool"
        }
      ],
      "stateMutability": "nonpayable",
      "type": "function"
    },
    {
      "inputs": [
        {
          "internalType": "address",
          "name": "operator",
          "type": "address"
        }
      ],
      "name": "authorizeOperator",
      "outputs": [],
      "stateMutability": "nonpayable",
      "type": "function"
    },
    {
      "inputs": [
        {
          "internalType": "address",
          "name": "tokenHolder",
          "type": "address"
        }
      ],
      "name": "balanceOf",
      "outputs": [
        {
          "internalType": "uint256",
          "name": "",
          "type": "uint256"
        }
      ],
      "stateMutability": "view",
      "type": "function"
    },
    {
      "inputs": [
        {
          "internalType": "uint256",
          "name": "amount",
          "type": "uint256"
        },
        {
          "internalType": "bytes",
          "name": "data",
          "type": "bytes"
        }
      ],
      "name": "burn",
      "outputs": [],
      "stateMutability": "nonpayable",
      "type": "function"
    },
    {
      "inputs": [],
      "name": "decimals",
      "outputs": [
        {
          "internalType": "uint8",
          "name": "",
          "type": "uint8"
        }
      ],
      "stateMutability": "pure",
      "type": "function"
    },
    {
      "inputs": [],
      "name": "defaultOperators",
      "outputs": [
        {
          "internalType": "address[]",
          "name": "",
          "type": "address[]"
        }
      ],
      "stateMutability": "view",
      "type": "function"
    },
    {
      "inputs": [
        {
          "internalType": "bytes32",
          "name": "role",
          "type": "bytes32"
        }
      ],
      "name": "getRoleAdmin",
      "outputs": [
        {
          "internalType": "bytes32",
          "name": "",
          "type": "bytes32"
        }
      ],
      "stateMutability": "view",
      "type": "function"
    },
    {
      "inputs": [
        {
          "internalType": "bytes32",
          "name": "role",
          "type": "bytes32"
        },
        {
          "internalType": "uint256",
          "name": "index",
          "type": "uint256"
        }
      ],
      "name": "getRoleMember",
      "outputs": [
        {
          "internalType": "address",
          "name": "",
          "type": "address"
        }
      ],
      "stateMutability": "view",
      "type": "function"
    },
    {
      "inputs": [
        {
          "internalType": "bytes32",
          "name": "role",
          "type": "bytes32"
        }
      ],
      "name": "getRoleMemberCount",
      "outputs": [
        {
          "internalType": "uint256",
          "name": "",
          "type": "uint256"
        }
      ],
      "stateMutability": "view",
      "type": "function"
    },
    {
      "inputs": [
        {
          "internalType": "bytes32",
          "name": "role",
          "type": "bytes32"
        },
        {
          "internalType": "address",
          "name": "account",
          "type": "address"
        }
      ],
      "name": "grantRole",
      "outputs": [],
      "stateMutability": "nonpayable",
      "type": "function"
    },
    {
      "inputs": [],
      "name": "granularity",
      "outputs": [
        {
          "internalType": "uint256",
          "name": "",
          "type": "uint256"
        }
      ],
      "stateMutability": "view",
      "type": "function"
    },
    {
      "inputs": [
        {
          "internalType": "bytes32",
          "name": "role",
          "type": "bytes32"
        },
        {
          "internalType": "address",
          "name": "account",
          "type": "address"
        }
      ],
      "name": "hasRole",
      "outputs": [
        {
          "internalType": "bool",
          "name": "",
          "type": "bool"
        }
      ],
      "stateMutability": "view",
      "type": "function"
    },
    {
      "inputs": [],
      "name": "initialize",
      "outputs": [],
      "stateMutability": "nonpayable",
      "type": "function"
    },
    {
      "inputs": [
        {
          "internalType": "address",
          "name": "operator",
          "type": "address"
        },
        {
          "internalType": "address",
          "name": "tokenHolder",
          "type": "address"
        }
      ],
      "name": "isOperatorFor",
      "outputs": [
        {
          "internalType": "bool",
          "name": "",
          "type": "bool"
        }
      ],
      "stateMutability": "view",
      "type": "function"
    },
    {
      "inputs": [
        {
          "internalType": "address",
          "name": "account",
          "type": "address"
        },
        {
          "internalType": "uint256",
          "name": "amount",
          "type": "uint256"
        },
        {
          "internalType": "bytes",
          "name": "userData",
          "type": "bytes"
        },
        {
          "internalType": "bytes",
          "name": "operatorData",
          "type": "bytes"
        }
      ],
      "name": "mint",
      "outputs": [],
      "stateMutability": "nonpayable",
      "type": "function"
    },
    {
      "inputs": [],
      "name": "name",
      "outputs": [
        {
          "internalType": "string",
          "name": "",
          "type": "string"
        }
      ],
      "stateMutability": "view",
      "type": "function"
    },
    {
      "inputs": [
        {
          "internalType": "address",
          "name": "account",
          "type": "address"
        },
        {
          "internalType": "uint256",
          "name": "amount",
          "type": "uint256"
        },
        {
          "internalType": "bytes",
          "name": "data",
          "type": "bytes"
        },
        {
          "internalType": "bytes",
          "name": "operatorData",
          "type": "bytes"
        }
      ],
      "name": "operatorBurn",
      "outputs": [],
      "stateMutability": "nonpayable",
      "type": "function"
    },
    {
      "inputs": [
        {
          "internalType": "address",
          "name": "sender",
          "type": "address"
        },
        {
          "internalType": "address",
          "name": "recipient",
          "type": "address"
        },
        {
          "internalType": "uint256",
          "name": "amount",
          "type": "uint256"
        },
        {
          "internalType": "bytes",
          "name": "data",
          "type": "bytes"
        },
        {
          "internalType": "bytes",
          "name": "operatorData",
          "type": "bytes"
        }
      ],
      "name": "operatorSend",
      "outputs": [],
      "stateMutability": "nonpayable",
      "type": "function"
    },
    {
      "inputs": [],
      "name": "pause",
      "outputs": [],
      "stateMutability": "nonpayable",
      "type": "function"
    },
    {
      "inputs": [],
      "name": "paused",
      "outputs": [
        {
          "internalType": "bool",
          "name": "",
          "type": "bool"
        }
      ],
      "stateMutability": "view",
      "type": "function"
    },
    {
      "inputs": [
        {
          "internalType": "bytes32",
          "name": "role",
          "type": "bytes32"
        },
        {
          "internalType": "address",
          "name": "account",
          "type": "address"
        }
      ],
      "name": "renounceRole",
      "outputs": [],
      "stateMutability": "nonpayable",
      "type": "function"
    },
    {
      "inputs": [
        {
          "internalType": "address",
          "name": "operator",
          "type": "address"
        }
      ],
      "name": "revokeOperator",
      "outputs": [],
      "stateMutability": "nonpayable",
      "type": "function"
    },
    {
      "inputs": [
        {
          "internalType": "bytes32",
          "name": "role",
          "type": "bytes32"
        },
        {
          "internalType": "address",
          "name": "account",
          "type": "address"
        }
      ],
      "name": "revokeRole",
      "outputs": [],
      "stateMutability": "nonpayable",
      "type": "function"
    },
    {
      "inputs": [
        {
          "internalType": "address",
          "name": "recipient",
          "type": "address"
        },
        {
          "internalType": "uint256",
          "name": "amount",
          "type": "uint256"
        },
        {
          "internalType": "bytes",
          "name": "data",
          "type": "bytes"
        }
      ],
      "name": "send",
      "outputs": [],
      "stateMutability": "nonpayable",
      "type": "function"
    },
    {
      "inputs": [
        {
          "internalType": "bytes4",
          "name": "interfaceId",
          "type": "bytes4"
        }
      ],
      "name": "supportsInterface",
      "outputs": [
        {
          "internalType": "bool",
          "name": "",
          "type": "bool"
        }
      ],
      "stateMutability": "view",
      "type": "function"
    },
    {
      "inputs": [],
      "name": "symbol",
      "outputs": [
        {
          "internalType": "string",
          "name": "",
          "type": "string"
        }
      ],
      "stateMutability": "view",
      "type": "function"
    },
    {
      "inputs": [],
      "name": "totalSupply",
      "outputs": [
        {
          "internalType": "uint256",
          "name": "",
          "type": "uint256"
        }
      ],
      "stateMutability": "view",
      "type": "function"
    },
    {
      "inputs": [
        {
          "internalType": "address",
          "name": "recipient",
          "type": "address"
        },
        {
          "internalType": "uint256",
          "name": "amount",
          "type": "uint256"
        }
      ],
      "name": "transfer",
      "outputs": [
        {
          "internalType": "bool",
          "name": "",
          "type": "bool"
        }
      ],
      "stateMutability": "nonpayable",
      "type": "function"
    },
    {
      "inputs": [
        {
          "internalType": "address",
          "name": "holder",
          "type": "address"
        },
        {
          "internalType": "address",
          "name": "recipient",
          "type": "address"
        },
        {
          "internalType": "uint256",
          "name": "amount",
          "type": "uint256"
        }
      ],
      "name": "transferFrom",
      "outputs": [
        {
          "internalType": "bool",
          "name": "",
          "type": "bool"
        }
      ],
      "stateMutability": "nonpayable",
      "type": "function"
    },
    {
      "inputs": [],
      "name": "unpause",
      "outputs": [],
      "stateMutability": "nonpayable",
      "type": "function"
    }
  ],
  "bytecode": "0x608060405234801561001057600080fd5b50612b2a806100206000396000f3fe608060405234801561001057600080fd5b50600436106102065760003560e01c80639010d07c1161011a578063d5391393116100ad578063dd62ed3e1161007c578063dd62ed3e1461044f578063e63ab1e914610488578063fad8b32a1461049d578063fc673c4f146104b0578063fe9d9303146104c357600080fd5b8063d5391393146103ef578063d547741f14610416578063d95b637114610429578063dcdc7dd01461043c57600080fd5b80639bd9bbc6116100e95780639bd9bbc6146103ae578063a217fddf146103c1578063a9059cbb146103c9578063ca15c873146103dc57600080fd5b80639010d07c1461035557806391d1485414610380578063959b8c3f1461039357806395d89b41146103a657600080fd5b8063313ce5671161019d5780635c975abb1161016c5780635c975abb146102fe57806362ad1b831461030957806370a082311461031c5780638129fc1c146103455780638456cb591461034d57600080fd5b8063313ce567146102cd57806336568abe146102dc5780633f4ba83a146102ef578063556f0dc7146102f757600080fd5b806318160ddd116101d957806318160ddd1461027057806323b872dd14610282578063248a9ca3146102955780632f2ff15d146102b857600080fd5b806301ffc9a71461020b57806306e485381461023357806306fdde0314610248578063095ea7b31461025d575b600080fd5b61021e61021936600461236b565b6104d6565b60405190151581526020015b60405180910390f35b61023b610501565b60405161022a9190612395565b610250610563565b60405161022a919061243a565b61021e61026b366004612462565b6105ec565b6034545b60405190815260200161022a565b61021e61029036600461248e565b610604565b6102746102a33660046124cf565b60009081526097602052604090206001015490565b6102cb6102c63660046124e8565b61073b565b005b6040516012815260200161022a565b6102cb6102ea3660046124e8565b610766565b6102cb6107e4565b6001610274565b60fb5460ff1661021e565b6102cb6103173660046125bb565b61084e565b61027461032a36600461264e565b6001600160a01b031660009081526033602052604090205490565b6102cb61088a565b6102cb610a32565b61036861036336600461266b565b610a9a565b6040516001600160a01b03909116815260200161022a565b61021e61038e3660046124e8565b610ab9565b6102cb6103a136600461264e565b610ae4565b610250610c02565b6102cb6103bc36600461268d565b610c11565b610274600081565b61021e6103d7366004612462565b610c2f565b6102746103ea3660046124cf565b610ce2565b6102747f9f2df0fed2c77648de5860a4cc508cd0818c85b8b8a1ab4ceeef8d981c8956a681565b6102cb6104243660046124e8565b610cf9565b61021e6104373660046126e6565b610d1f565b6102cb61044a366004612714565b610dc0565b61027461045d3660046126e6565b6001600160a01b039182166000908152603b6020908152604080832093909416825291909152205490565b610274600080516020612ad583398151915281565b6102cb6104ab36600461264e565b610e48565b6102cb6104be366004612714565b610f64565b6102cb6104d1366004612794565b610f96565b60006001600160e01b03198216635a05180f60e01b14806104fb57506104fb82610fb1565b92915050565b6060603780548060200260200160405190810160405280929190818152602001828054801561055957602002820191906000526020600020905b81546001600160a01b0316815260019091019060200180831161053b575b5050505050905090565b606060358054610572906127db565b80601f016020809104026020016040519081016040528092919081815260200182805461059e906127db565b80156105595780601f106105c057610100808354040283529160200191610559565b820191906000526020600020905b8154815290600101906020018083116105ce57509395945050505050565b6000336105fa818585610fe6565b5060019392505050565b60006001600160a01b0383166106355760405162461bcd60e51b815260040161062c90612816565b60405180910390fd5b6001600160a01b03841661069a5760405162461bcd60e51b815260206004820152602660248201527f4552433737373a207472616e736665722066726f6d20746865207a65726f206160448201526564647265737360d01b606482015260840161062c565b60003390506106cb81868686604051806020016040528060008152506040518060200160405280600081525061110d565b6106d6858285611235565b6107028186868660405180602001604052806000815250604051806020016040528060008152506112c1565b6107308186868660405180602001604052806000815250604051806020016040528060008152506000611433565b506001949350505050565b60008281526097602052604090206001015461075781336115f8565b610761838361165c565b505050565b6001600160a01b03811633146107d65760405162461bcd60e51b815260206004820152602f60248201527f416363657373436f6e74726f6c3a2063616e206f6e6c792072656e6f756e636560448201526e103937b632b9903337b91039b2b63360891b606482015260840161062c565b6107e0828261167e565b5050565b6107fc600080516020612ad583398151915233610ab9565b6108445760405162461bcd60e51b81526020600482015260196024820152784e4f52493a206d697373696e67205041555345525f524f4c4560381b604482015260640161062c565b61084c6116a0565b565b6108583386610d1f565b6108745760405162461bcd60e51b815260040161062c9061285a565b61088385858585856001611733565b5050505050565b600054610100900460ff166108a55760005460ff16156108a9565b303b155b61090c5760405162461bcd60e51b815260206004820152602e60248201527f496e697469616c697a61626c653a20636f6e747261637420697320616c72656160448201526d191e481a5b9a5d1a585b1a5e995960921b606482015260840161062c565b600054610100900460ff1615801561092e576000805461ffff19166101011790555b610936611816565b61093e611816565b610946611816565b61094e611816565b6040805180820182526004808252634e4f524960e01b602080840182905284518086018652928352828101919091528351600081529081019093526109929261183d565b61099a611a27565b6109a5600033611a5a565b6109cf7f9f2df0fed2c77648de5860a4cc508cd0818c85b8b8a1ab4ceeef8d981c8956a633611a5a565b6109e7600080516020612ad583398151915233611a5a565b610a1d336b019d971e4fe8401e740000006040518060200160405280600081525060405180602001604052806000815250611a64565b8015610a2f576000805461ff00191690555b50565b610a4a600080516020612ad583398151915233610ab9565b610a925760405162461bcd60e51b81526020600482015260196024820152784e4f52493a206d697373696e67205041555345525f524f4c4560381b604482015260640161062c565b61084c611a72565b600082815260c960205260408120610ab29083611aed565b9392505050565b60009182526097602090815260408084206001600160a01b0393909316845291905290205460ff1690565b336001600160a01b0382161415610b495760405162461bcd60e51b8152602060048201526024808201527f4552433737373a20617574686f72697a696e672073656c66206173206f70657260448201526330ba37b960e11b606482015260840161062c565b6001600160a01b03811660009081526038602052604090205460ff1615610b9a57336000908152603a602090815260408083206001600160a01b03851684529091529020805460ff19169055610bc9565b3360009081526039602090815260408083206001600160a01b03851684529091529020805460ff191660011790555b60405133906001600160a01b038316907ff4caeb2d6ca8932a215a353d0703c326ec2d81fc68170f320eb2ab49e9df61f990600090a350565b606060368054610572906127db565b61076133848484604051806020016040528060008152506001611733565b60006001600160a01b038316610c575760405162461bcd60e51b815260040161062c90612816565b6000339050610c8881828686604051806020016040528060008152506040518060200160405280600081525061110d565b610cb48182868660405180602001604052806000815250604051806020016040528060008152506112c1565b6105fa8182868660405180602001604052806000815250604051806020016040528060008152506000611433565b600081815260c9602052604081206104fb90611af9565b600082815260976020526040902060010154610d1581336115f8565b610761838361167e565b6000816001600160a01b0316836001600160a01b03161480610d8a57506001600160a01b03831660009081526038602052604090205460ff168015610d8a57506001600160a01b038083166000908152603a602090815260408083209387168352929052205460ff16155b80610ab25750506001600160a01b0390811660009081526039602090815260408083209490931682529290925290205460ff1690565b610dea7f9f2df0fed2c77648de5860a4cc508cd0818c85b8b8a1ab4ceeef8d981c8956a633610ab9565b610e365760405162461bcd60e51b815260206004820152601960248201527f4e4f52493a206d697373696e67204d494e5445525f524f4c4500000000000000604482015260640161062c565b610e4284848484611a64565b50505050565b6001600160a01b038116331415610eab5760405162461bcd60e51b815260206004820152602160248201527f4552433737373a207265766f6b696e672073656c66206173206f70657261746f6044820152603960f91b606482015260840161062c565b6001600160a01b03811660009081526038602052604090205460ff1615610eff57336000908152603a602090815260408083206001600160a01b03851684529091529020805460ff19166001179055610f2b565b3360009081526039602090815260408083206001600160a01b03851684529091529020805460ff191690555b60405133906001600160a01b038316907f50546e66e5f44d728365dc3908c63bc5cfeeab470722c1677e3073a6ac294aa190600090a350565b610f6e3385610d1f565b610f8a5760405162461bcd60e51b815260040161062c9061285a565b610e4284848484611b03565b6107e033838360405180602001604052806000815250611b03565b60006001600160e01b03198216637965db0b60e01b14806104fb57506301ffc9a760e01b6001600160e01b03198316146104fb565b6001600160a01b03831661104a5760405162461bcd60e51b815260206004820152602560248201527f4552433737373a20617070726f76652066726f6d20746865207a65726f206164604482015264647265737360d81b606482015260840161062c565b6001600160a01b0382166110ac5760405162461bcd60e51b815260206004820152602360248201527f4552433737373a20617070726f766520746f20746865207a65726f206164647260448201526265737360e81b606482015260840161062c565b6001600160a01b038381166000818152603b602090815260408083209487168084529482529182902085905590518481527f8c5be1e5ebec7d5bd14f71427d1e84f3dd0314c0f7b2291e5b200ac8c7c3b925910160405180910390a3505050565b60405163555ddc6560e11b81526001600160a01b03861660048201527f29ddb589b1fb5fc7cf394961c1adf5f8c6454761adf795e67fe149f658abe8956024820152600090731820a4b7618bde71dce8cdc73aab6c95905fad249063aabbb8ca90604401602060405180830381865afa15801561118e573d6000803e3d6000fd5b505050506040513d601f19601f820116820180604052508101906111b291906128a6565b90506001600160a01b0381161561122c57604051633ad5cbc160e11b81526001600160a01b038216906375ab9782906111f9908a908a908a908a908a908a906004016128c3565b600060405180830381600087803b15801561121357600080fd5b505af1158015611227573d6000803e3d6000fd5b505050505b50505050505050565b6001600160a01b038381166000908152603b60209081526040808320938616835292905220546000198114610e4257818110156112b45760405162461bcd60e51b815260206004820152601e60248201527f4552433737373a20696e73756666696369656e7420616c6c6f77616e63650000604482015260640161062c565b610e428484848403610fe6565b6112cd86868686611cc5565b6001600160a01b038516600090815260336020526040902054838110156113465760405162461bcd60e51b815260206004820152602760248201527f4552433737373a207472616e7366657220616d6f756e7420657863656564732060448201526662616c616e636560c81b606482015260840161062c565b6001600160a01b0380871660009081526033602052604080822087850390559187168152908120805486929061137d908490612933565b92505081905550846001600160a01b0316866001600160a01b0316886001600160a01b03167f06b541ddaa720db2b10a4d0cdac39b8d360425fc073085fac19bc826146779878787876040516113d59392919061294b565b60405180910390a4846001600160a01b0316866001600160a01b03167fddf252ad1be2c89b69c2b068fc378daa952ba7f163c4a11628f55a4df523b3ef8660405161142291815260200190565b60405180910390a350505050505050565b60405163555ddc6560e11b81526001600160a01b03861660048201527fb281fc8c12954d22544db45de3159a39272895b169a852b314f9cc762e44c53b6024820152600090731820a4b7618bde71dce8cdc73aab6c95905fad249063aabbb8ca90604401602060405180830381865afa1580156114b4573d6000803e3d6000fd5b505050506040513d601f19601f820116820180604052508101906114d891906128a6565b90506001600160a01b03811615611554576040516223de2960e01b81526001600160a01b038216906223de299061151d908b908b908b908b908b908b906004016128c3565b600060405180830381600087803b15801561153757600080fd5b505af115801561154b573d6000803e3d6000fd5b505050506115ee565b81156115ee576001600160a01b0386163b156115ee5760405162461bcd60e51b815260206004820152604d60248201527f4552433737373a20746f6b656e20726563697069656e7420636f6e747261637460448201527f20686173206e6f20696d706c656d656e74657220666f7220455243373737546f60648201526c1ad95b9cd49958da5c1a595b9d609a1b608482015260a40161062c565b5050505050505050565b6116028282610ab9565b6107e05761161a816001600160a01b03166014611d18565b611625836020611d18565b604051602001611636929190612980565b60408051601f198184030181529082905262461bcd60e51b825261062c9160040161243a565b6116668282611eb4565b600082815260c9602052604090206107619082611f3a565b6116888282611f4f565b600082815260c9602052604090206107619082611fb6565b60fb5460ff166116e95760405162461bcd60e51b815260206004820152601460248201527314185d5cd8589b194e881b9bdd081c185d5cd95960621b604482015260640161062c565b60fb805460ff191690557f5db9ee0a495bf2e6ff9c91a7834c1ba4fdd244a5e8aa4e537bd38aeae4b073aa335b6040516001600160a01b03909116815260200160405180910390a1565b6001600160a01b0386166117945760405162461bcd60e51b815260206004820152602260248201527f4552433737373a2073656e642066726f6d20746865207a65726f206164647265604482015261737360f01b606482015260840161062c565b6001600160a01b0385166117ea5760405162461bcd60e51b815260206004820181905260248201527f4552433737373a2073656e6420746f20746865207a65726f2061646472657373604482015260640161062c565b336117f981888888888861110d565b6118078188888888886112c1565b61122c81888888888888611433565b600054610100900460ff1661084c5760405162461bcd60e51b815260040161062c906129f5565b600054610100900460ff166118645760405162461bcd60e51b815260040161062c906129f5565b825161187790603590602086019061227d565b50815161188b90603690602085019061227d565b50805161189f906037906020840190612301565b5060005b8151811015611908576001603860008484815181106118c4576118c4612a40565b6020908102919091018101516001600160a01b03168252810191909152604001600020805460ff19169115159190911790558061190081612a56565b9150506118a3565b506040516329965a1d60e01b815230600482018190527fac7fbab5f54a3ca8194167523c6753bfeb96a445279294b6125b68cce217705460248301526044820152731820a4b7618bde71dce8cdc73aab6c95905fad24906329965a1d90606401600060405180830381600087803b15801561198257600080fd5b505af1158015611996573d6000803e3d6000fd5b50506040516329965a1d60e01b815230600482018190527faea199e31a596269b42cdafd93407f14436db6e4cad65417994c2eb37381e05a60248301526044820152731820a4b7618bde71dce8cdc73aab6c95905fad2492506329965a1d9150606401600060405180830381600087803b158015611a1357600080fd5b505af115801561122c573d6000803e3d6000fd5b600054610100900460ff16611a4e5760405162461bcd60e51b815260040161062c906129f5565b60fb805460ff19169055565b6107e0828261165c565b610e42848484846001611fcb565b60fb5460ff1615611ab85760405162461bcd60e51b815260206004820152601060248201526f14185d5cd8589b194e881c185d5cd95960821b604482015260640161062c565b60fb805460ff191660011790557f62e78cea01bee320cd4e420270b5ea74000d11b0c9f74754ebdbfc544b05a2586117163390565b6000610ab28383612111565b60006104fb825490565b6001600160a01b038416611b645760405162461bcd60e51b815260206004820152602260248201527f4552433737373a206275726e2066726f6d20746865207a65726f206164647265604482015261737360f01b606482015260840161062c565b33611b748186600087878761110d565b611b818186600087611cc5565b6001600160a01b03851660009081526033602052604090205484811015611bf65760405162461bcd60e51b815260206004820152602360248201527f4552433737373a206275726e20616d6f756e7420657863656564732062616c616044820152626e636560e81b606482015260840161062c565b6001600160a01b0386166000908152603360205260408120868303905560348054879290611c25908490612a71565b92505081905550856001600160a01b0316826001600160a01b03167fa78a9be3a7b862d26933ad85fb11d80ef66b8f972d7cbba06621d583943a4098878787604051611c739392919061294b565b60405180910390a36040518581526000906001600160a01b038816907fddf252ad1be2c89b69c2b068fc378daa952ba7f163c4a11628f55a4df523b3ef906020015b60405180910390a3505050505050565b60fb5460ff1615610e425760405162461bcd60e51b815260206004820152601860248201527f4e4f52493a20636f6e7472616374206973207061757365640000000000000000604482015260640161062c565b60606000611d27836002612a88565b611d32906002612933565b67ffffffffffffffff811115611d4a57611d4a612518565b6040519080825280601f01601f191660200182016040528015611d74576020820181803683370190505b509050600360fc1b81600081518110611d8f57611d8f612a40565b60200101906001600160f81b031916908160001a905350600f60fb1b81600181518110611dbe57611dbe612a40565b60200101906001600160f81b031916908160001a9053506000611de2846002612a88565b611ded906001612933565b90505b6001811115611e65576f181899199a1a9b1b9c1cb0b131b232b360811b85600f1660108110611e2157611e21612a40565b1a60f81b828281518110611e3757611e37612a40565b60200101906001600160f81b031916908160001a90535060049490941c93611e5e81612aa7565b9050611df0565b508315610ab25760405162461bcd60e51b815260206004820181905260248201527f537472696e67733a20686578206c656e67746820696e73756666696369656e74604482015260640161062c565b611ebe8282610ab9565b6107e05760008281526097602090815260408083206001600160a01b03851684529091529020805460ff19166001179055611ef63390565b6001600160a01b0316816001600160a01b0316837f2f8788117e7eff1d82e926ec794901d17c78024a50270940304540a733656f0d60405160405180910390a45050565b6000610ab2836001600160a01b03841661213b565b611f598282610ab9565b156107e05760008281526097602090815260408083206001600160a01b0385168085529252808320805460ff1916905551339285917ff6391f5c32d9c69d2a47ea670b442974b53935d1edc7fd64eb21e047a839171b9190a45050565b6000610ab2836001600160a01b03841661218a565b6001600160a01b0385166120215760405162461bcd60e51b815260206004820181905260248201527f4552433737373a206d696e7420746f20746865207a65726f2061646472657373604482015260640161062c565b3361202f8160008888611cc5565b84603460008282546120419190612933565b90915550506001600160a01b0386166000908152603360205260408120805487929061206e908490612933565b9091555061208490508160008888888888611433565b856001600160a01b0316816001600160a01b03167f2fe5be0146f74c5bce36c0b80911af6c7d86ff27e89d5cfa61fc681327954e5d8787876040516120cb9392919061294b565b60405180910390a36040518581526001600160a01b038716906000907fddf252ad1be2c89b69c2b068fc378daa952ba7f163c4a11628f55a4df523b3ef90602001611cb5565b600082600001828154811061212857612128612a40565b9060005260206000200154905092915050565b6000818152600183016020526040812054612182575081546001818101845560008481526020808220909301849055845484825282860190935260409020919091556104fb565b5060006104fb565b600081815260018301602052604081205480156122735760006121ae600183612a71565b85549091506000906121c290600190612a71565b90508181146122275760008660000182815481106121e2576121e2612a40565b906000526020600020015490508087600001848154811061220557612205612a40565b6000918252602080832090910192909255918252600188019052604090208390555b855486908061223857612238612abe565b6001900381819060005260206000200160009055905585600101600086815260200190815260200160002060009055600193505050506104fb565b60009150506104fb565b828054612289906127db565b90600052602060002090601f0160209004810192826122ab57600085556122f1565b82601f106122c457805160ff19168380011785556122f1565b828001600101855582156122f1579182015b828111156122f15782518255916020019190600101906122d6565b506122fd929150612356565b5090565b8280548282559060005260206000209081019282156122f1579160200282015b828111156122f157825182546001600160a01b0319166001600160a01b03909116178255602090920191600190910190612321565b5b808211156122fd5760008155600101612357565b60006020828403121561237d57600080fd5b81356001600160e01b031981168114610ab257600080fd5b6020808252825182820181905260009190848201906040850190845b818110156123d65783516001600160a01b0316835292840192918401916001016123b1565b50909695505050505050565b60005b838110156123fd5781810151838201526020016123e5565b83811115610e425750506000910152565b600081518084526124268160208601602086016123e2565b601f01601f19169290920160200192915050565b602081526000610ab2602083018461240e565b6001600160a01b0381168114610a2f57600080fd5b6000806040838503121561247557600080fd5b82356124808161244d565b946020939093013593505050565b6000806000606084860312156124a357600080fd5b83356124ae8161244d565b925060208401356124be8161244d565b929592945050506040919091013590565b6000602082840312156124e157600080fd5b5035919050565b600080604083850312156124fb57600080fd5b82359150602083013561250d8161244d565b809150509250929050565b634e487b7160e01b600052604160045260246000fd5b600082601f83011261253f57600080fd5b813567ffffffffffffffff8082111561255a5761255a612518565b604051601f8301601f19908116603f0116810190828211818310171561258257612582612518565b8160405283815286602085880101111561259b57600080fd5b836020870160208301376000602085830101528094505050505092915050565b600080600080600060a086880312156125d357600080fd5b85356125de8161244d565b945060208601356125ee8161244d565b935060408601359250606086013567ffffffffffffffff8082111561261257600080fd5b61261e89838a0161252e565b9350608088013591508082111561263457600080fd5b506126418882890161252e565b9150509295509295909350565b60006020828403121561266057600080fd5b8135610ab28161244d565b6000806040838503121561267e57600080fd5b50508035926020909101359150565b6000806000606084860312156126a257600080fd5b83356126ad8161244d565b925060208401359150604084013567ffffffffffffffff8111156126d057600080fd5b6126dc8682870161252e565b9150509250925092565b600080604083850312156126f957600080fd5b82356127048161244d565b9150602083013561250d8161244d565b6000806000806080858703121561272a57600080fd5b84356127358161244d565b935060208501359250604085013567ffffffffffffffff8082111561275957600080fd5b6127658883890161252e565b9350606087013591508082111561277b57600080fd5b506127888782880161252e565b91505092959194509250565b600080604083850312156127a757600080fd5b82359150602083013567ffffffffffffffff8111156127c557600080fd5b6127d18582860161252e565b9150509250929050565b600181811c908216806127ef57607f821691505b6020821081141561281057634e487b7160e01b600052602260045260246000fd5b50919050565b60208082526024908201527f4552433737373a207472616e7366657220746f20746865207a65726f206164646040820152637265737360e01b606082015260800190565b6020808252602c908201527f4552433737373a2063616c6c6572206973206e6f7420616e206f70657261746f60408201526b39103337b9103437b63232b960a11b606082015260800190565b6000602082840312156128b857600080fd5b8151610ab28161244d565b6001600160a01b0387811682528681166020830152851660408201526060810184905260c0608082018190526000906128fe9083018561240e565b82810360a0840152612910818561240e565b9998505050505050505050565b634e487b7160e01b600052601160045260246000fd5b600082198211156129465761294661291d565b500190565b838152606060208201526000612964606083018561240e565b8281036040840152612976818561240e565b9695505050505050565b7f416363657373436f6e74726f6c3a206163636f756e74200000000000000000008152600083516129b88160178501602088016123e2565b7001034b99036b4b9b9b4b733903937b6329607d1b60179184019182015283516129e98160288401602088016123e2565b01602801949350505050565b6020808252602b908201527f496e697469616c697a61626c653a20636f6e7472616374206973206e6f74206960408201526a6e697469616c697a696e6760a81b606082015260800190565b634e487b7160e01b600052603260045260246000fd5b6000600019821415612a6a57612a6a61291d565b5060010190565b600082821015612a8357612a8361291d565b500390565b6000816000190483118215151615612aa257612aa261291d565b500290565b600081612ab657612ab661291d565b506000190190565b634e487b7160e01b600052603160045260246000fdfe65d7a28e3265b37a6474929f336521b332c1681b933f6cb9f3376673440d862aa264697066735822122046fcd6face1cd8592503b727f9bddd9c39305ec51a0655084816018420ef848664736f6c634300080a0033",
  "linkReferences": {},
  "deployedLinkReferences": {}
}