{
  "_format": "hh-sol-artifact-1",
  "contractName": "NORI",
  "sourceName": "contracts/NORI.sol",
  "abi": [
    {
      "anonymous": false,
      "inputs": [
        {
          "indexed": true,
          "internalType": "address",
          "name": "owner",
          "type": "address"
        },
        {
          "indexed": true,
          "internalType": "address",
          "name": "spender",
          "type": "address"
        },
        {
          "indexed": false,
          "internalType": "uint256",
          "name": "value",
          "type": "uint256"
        }
      ],
      "name": "Approval",
      "type": "event"
    },
    {
      "anonymous": false,
      "inputs": [
        {
          "indexed": true,
          "internalType": "address",
          "name": "operator",
          "type": "address"
        },
        {
          "indexed": true,
          "internalType": "address",
          "name": "tokenHolder",
          "type": "address"
        }
      ],
      "name": "AuthorizedOperator",
      "type": "event"
    },
    {
      "anonymous": false,
      "inputs": [
        {
          "indexed": true,
          "internalType": "address",
          "name": "operator",
          "type": "address"
        },
        {
          "indexed": true,
          "internalType": "address",
          "name": "from",
          "type": "address"
        },
        {
          "indexed": false,
          "internalType": "uint256",
          "name": "amount",
          "type": "uint256"
        },
        {
          "indexed": false,
          "internalType": "bytes",
          "name": "data",
          "type": "bytes"
        },
        {
          "indexed": false,
          "internalType": "bytes",
          "name": "operatorData",
          "type": "bytes"
        }
      ],
      "name": "Burned",
      "type": "event"
    },
    {
      "anonymous": false,
      "inputs": [
        {
          "indexed": true,
          "internalType": "address",
          "name": "operator",
          "type": "address"
        },
        {
          "indexed": true,
          "internalType": "address",
          "name": "to",
          "type": "address"
        },
        {
          "indexed": false,
          "internalType": "uint256",
          "name": "amount",
          "type": "uint256"
        },
        {
          "indexed": false,
          "internalType": "bytes",
          "name": "data",
          "type": "bytes"
        },
        {
          "indexed": false,
          "internalType": "bytes",
          "name": "operatorData",
          "type": "bytes"
        }
      ],
      "name": "Minted",
      "type": "event"
    },
    {
      "anonymous": false,
      "inputs": [
        {
          "indexed": false,
          "internalType": "address",
          "name": "account",
          "type": "address"
        }
      ],
      "name": "Paused",
      "type": "event"
    },
    {
      "anonymous": false,
      "inputs": [
        {
          "indexed": true,
          "internalType": "address",
          "name": "operator",
          "type": "address"
        },
        {
          "indexed": true,
          "internalType": "address",
          "name": "tokenHolder",
          "type": "address"
        }
      ],
      "name": "RevokedOperator",
      "type": "event"
    },
    {
      "anonymous": false,
      "inputs": [
        {
          "indexed": true,
          "internalType": "bytes32",
          "name": "role",
          "type": "bytes32"
        },
        {
          "indexed": true,
          "internalType": "bytes32",
          "name": "previousAdminRole",
          "type": "bytes32"
        },
        {
          "indexed": true,
          "internalType": "bytes32",
          "name": "newAdminRole",
          "type": "bytes32"
        }
      ],
      "name": "RoleAdminChanged",
      "type": "event"
    },
    {
      "anonymous": false,
      "inputs": [
        {
          "indexed": true,
          "internalType": "bytes32",
          "name": "role",
          "type": "bytes32"
        },
        {
          "indexed": true,
          "internalType": "address",
          "name": "account",
          "type": "address"
        },
        {
          "indexed": true,
          "internalType": "address",
          "name": "sender",
          "type": "address"
        }
      ],
      "name": "RoleGranted",
      "type": "event"
    },
    {
      "anonymous": false,
      "inputs": [
        {
          "indexed": true,
          "internalType": "bytes32",
          "name": "role",
          "type": "bytes32"
        },
        {
          "indexed": true,
          "internalType": "address",
          "name": "account",
          "type": "address"
        },
        {
          "indexed": true,
          "internalType": "address",
          "name": "sender",
          "type": "address"
        }
      ],
      "name": "RoleRevoked",
      "type": "event"
    },
    {
      "anonymous": false,
      "inputs": [
        {
          "indexed": true,
          "internalType": "address",
          "name": "operator",
          "type": "address"
        },
        {
          "indexed": true,
          "internalType": "address",
          "name": "from",
          "type": "address"
        },
        {
          "indexed": true,
          "internalType": "address",
          "name": "to",
          "type": "address"
        },
        {
          "indexed": false,
          "internalType": "uint256",
          "name": "amount",
          "type": "uint256"
        },
        {
          "indexed": false,
          "internalType": "bytes",
          "name": "data",
          "type": "bytes"
        },
        {
          "indexed": false,
          "internalType": "bytes",
          "name": "operatorData",
          "type": "bytes"
        }
      ],
      "name": "Sent",
      "type": "event"
    },
    {
      "anonymous": false,
      "inputs": [
        {
          "indexed": true,
          "internalType": "address",
          "name": "from",
          "type": "address"
        },
        {
          "indexed": true,
          "internalType": "address",
          "name": "to",
          "type": "address"
        },
        {
          "indexed": false,
          "internalType": "uint256",
          "name": "value",
          "type": "uint256"
        }
      ],
      "name": "Transfer",
      "type": "event"
    },
    {
      "anonymous": false,
      "inputs": [
        {
          "indexed": false,
          "internalType": "address",
          "name": "account",
          "type": "address"
        }
      ],
      "name": "Unpaused",
      "type": "event"
    },
    {
      "inputs": [],
      "name": "DEFAULT_ADMIN_ROLE",
      "outputs": [
        {
          "internalType": "bytes32",
          "name": "",
          "type": "bytes32"
        }
      ],
      "stateMutability": "view",
      "type": "function"
    },
    {
      "inputs": [],
      "name": "PAUSER_ROLE",
      "outputs": [
        {
          "internalType": "bytes32",
          "name": "",
          "type": "bytes32"
        }
      ],
      "stateMutability": "view",
      "type": "function"
    },
    {
      "inputs": [
        {
          "internalType": "address",
          "name": "holder",
          "type": "address"
        },
        {
          "internalType": "address",
          "name": "spender",
          "type": "address"
        }
      ],
      "name": "allowance",
      "outputs": [
        {
          "internalType": "uint256",
          "name": "",
          "type": "uint256"
        }
      ],
      "stateMutability": "view",
      "type": "function"
    },
    {
      "inputs": [
        {
          "internalType": "address",
          "name": "spender",
          "type": "address"
        },
        {
          "internalType": "uint256",
          "name": "value",
          "type": "uint256"
        }
      ],
      "name": "approve",
      "outputs": [
        {
          "internalType": "bool",
          "name": "",
          "type": "bool"
        }
      ],
      "stateMutability": "nonpayable",
      "type": "function"
    },
    {
      "inputs": [
        {
          "internalType": "address",
          "name": "operator",
          "type": "address"
        }
      ],
      "name": "authorizeOperator",
      "outputs": [],
      "stateMutability": "nonpayable",
      "type": "function"
    },
    {
      "inputs": [
        {
          "internalType": "address",
          "name": "tokenHolder",
          "type": "address"
        }
      ],
      "name": "balanceOf",
      "outputs": [
        {
          "internalType": "uint256",
          "name": "",
          "type": "uint256"
        }
      ],
      "stateMutability": "view",
      "type": "function"
    },
    {
      "inputs": [
        {
          "internalType": "uint256",
          "name": "amount",
          "type": "uint256"
        },
        {
          "internalType": "bytes",
          "name": "data",
          "type": "bytes"
        }
      ],
      "name": "burn",
      "outputs": [],
      "stateMutability": "nonpayable",
      "type": "function"
    },
    {
      "inputs": [],
      "name": "decimals",
      "outputs": [
        {
          "internalType": "uint8",
          "name": "",
          "type": "uint8"
        }
      ],
      "stateMutability": "pure",
      "type": "function"
    },
    {
      "inputs": [],
      "name": "defaultOperators",
      "outputs": [
        {
          "internalType": "address[]",
          "name": "",
          "type": "address[]"
        }
      ],
      "stateMutability": "view",
      "type": "function"
    },
    {
      "inputs": [
        {
          "internalType": "bytes32",
          "name": "role",
          "type": "bytes32"
        }
      ],
      "name": "getRoleAdmin",
      "outputs": [
        {
          "internalType": "bytes32",
          "name": "",
          "type": "bytes32"
        }
      ],
      "stateMutability": "view",
      "type": "function"
    },
    {
      "inputs": [
        {
          "internalType": "bytes32",
          "name": "role",
          "type": "bytes32"
        },
        {
          "internalType": "uint256",
          "name": "index",
          "type": "uint256"
        }
      ],
      "name": "getRoleMember",
      "outputs": [
        {
          "internalType": "address",
          "name": "",
          "type": "address"
        }
      ],
      "stateMutability": "view",
      "type": "function"
    },
    {
      "inputs": [
        {
          "internalType": "bytes32",
          "name": "role",
          "type": "bytes32"
        }
      ],
      "name": "getRoleMemberCount",
      "outputs": [
        {
          "internalType": "uint256",
          "name": "",
          "type": "uint256"
        }
      ],
      "stateMutability": "view",
      "type": "function"
    },
    {
      "inputs": [
        {
          "internalType": "bytes32",
          "name": "role",
          "type": "bytes32"
        },
        {
          "internalType": "address",
          "name": "account",
          "type": "address"
        }
      ],
      "name": "grantRole",
      "outputs": [],
      "stateMutability": "nonpayable",
      "type": "function"
    },
    {
      "inputs": [],
      "name": "granularity",
      "outputs": [
        {
          "internalType": "uint256",
          "name": "",
          "type": "uint256"
        }
      ],
      "stateMutability": "view",
      "type": "function"
    },
    {
      "inputs": [
        {
          "internalType": "bytes32",
          "name": "role",
          "type": "bytes32"
        },
        {
          "internalType": "address",
          "name": "account",
          "type": "address"
        }
      ],
      "name": "hasRole",
      "outputs": [
        {
          "internalType": "bool",
          "name": "",
          "type": "bool"
        }
      ],
      "stateMutability": "view",
      "type": "function"
    },
    {
      "inputs": [],
      "name": "initialize",
      "outputs": [],
      "stateMutability": "nonpayable",
      "type": "function"
    },
    {
      "inputs": [
        {
          "internalType": "address",
          "name": "operator",
          "type": "address"
        },
        {
          "internalType": "address",
          "name": "tokenHolder",
          "type": "address"
        }
      ],
      "name": "isOperatorFor",
      "outputs": [
        {
          "internalType": "bool",
          "name": "",
          "type": "bool"
        }
      ],
      "stateMutability": "view",
      "type": "function"
    },
    {
      "inputs": [],
      "name": "name",
      "outputs": [
        {
          "internalType": "string",
          "name": "",
          "type": "string"
        }
      ],
      "stateMutability": "view",
      "type": "function"
    },
    {
      "inputs": [
        {
          "internalType": "address",
          "name": "account",
          "type": "address"
        },
        {
          "internalType": "uint256",
          "name": "amount",
          "type": "uint256"
        },
        {
          "internalType": "bytes",
          "name": "data",
          "type": "bytes"
        },
        {
          "internalType": "bytes",
          "name": "operatorData",
          "type": "bytes"
        }
      ],
      "name": "operatorBurn",
      "outputs": [],
      "stateMutability": "nonpayable",
      "type": "function"
    },
    {
      "inputs": [
        {
          "internalType": "address",
          "name": "sender",
          "type": "address"
        },
        {
          "internalType": "address",
          "name": "recipient",
          "type": "address"
        },
        {
          "internalType": "uint256",
          "name": "amount",
          "type": "uint256"
        },
        {
          "internalType": "bytes",
          "name": "data",
          "type": "bytes"
        },
        {
          "internalType": "bytes",
          "name": "operatorData",
          "type": "bytes"
        }
      ],
      "name": "operatorSend",
      "outputs": [],
      "stateMutability": "nonpayable",
      "type": "function"
    },
    {
      "inputs": [],
      "name": "pause",
      "outputs": [],
      "stateMutability": "nonpayable",
      "type": "function"
    },
    {
      "inputs": [],
      "name": "paused",
      "outputs": [
        {
          "internalType": "bool",
          "name": "",
          "type": "bool"
        }
      ],
      "stateMutability": "view",
      "type": "function"
    },
    {
      "inputs": [
        {
          "internalType": "bytes32",
          "name": "role",
          "type": "bytes32"
        },
        {
          "internalType": "address",
          "name": "account",
          "type": "address"
        }
      ],
      "name": "renounceRole",
      "outputs": [],
      "stateMutability": "nonpayable",
      "type": "function"
    },
    {
      "inputs": [
        {
          "internalType": "address",
          "name": "operator",
          "type": "address"
        }
      ],
      "name": "revokeOperator",
      "outputs": [],
      "stateMutability": "nonpayable",
      "type": "function"
    },
    {
      "inputs": [
        {
          "internalType": "bytes32",
          "name": "role",
          "type": "bytes32"
        },
        {
          "internalType": "address",
          "name": "account",
          "type": "address"
        }
      ],
      "name": "revokeRole",
      "outputs": [],
      "stateMutability": "nonpayable",
      "type": "function"
    },
    {
      "inputs": [
        {
          "internalType": "address",
          "name": "recipient",
          "type": "address"
        },
        {
          "internalType": "uint256",
          "name": "amount",
          "type": "uint256"
        },
        {
          "internalType": "bytes",
          "name": "data",
          "type": "bytes"
        }
      ],
      "name": "send",
      "outputs": [],
      "stateMutability": "nonpayable",
      "type": "function"
    },
    {
      "inputs": [
        {
          "internalType": "bytes4",
          "name": "interfaceId",
          "type": "bytes4"
        }
      ],
      "name": "supportsInterface",
      "outputs": [
        {
          "internalType": "bool",
          "name": "",
          "type": "bool"
        }
      ],
      "stateMutability": "view",
      "type": "function"
    },
    {
      "inputs": [],
      "name": "symbol",
      "outputs": [
        {
          "internalType": "string",
          "name": "",
          "type": "string"
        }
      ],
      "stateMutability": "view",
      "type": "function"
    },
    {
      "inputs": [],
      "name": "totalSupply",
      "outputs": [
        {
          "internalType": "uint256",
          "name": "",
          "type": "uint256"
        }
      ],
      "stateMutability": "view",
      "type": "function"
    },
    {
      "inputs": [
        {
          "internalType": "address",
          "name": "recipient",
          "type": "address"
        },
        {
          "internalType": "uint256",
          "name": "amount",
          "type": "uint256"
        }
      ],
      "name": "transfer",
      "outputs": [
        {
          "internalType": "bool",
          "name": "",
          "type": "bool"
        }
      ],
      "stateMutability": "nonpayable",
      "type": "function"
    },
    {
      "inputs": [
        {
          "internalType": "address",
          "name": "holder",
          "type": "address"
        },
        {
          "internalType": "address",
          "name": "recipient",
          "type": "address"
        },
        {
          "internalType": "uint256",
          "name": "amount",
          "type": "uint256"
        }
      ],
      "name": "transferFrom",
      "outputs": [
        {
          "internalType": "bool",
          "name": "",
          "type": "bool"
        }
      ],
      "stateMutability": "nonpayable",
      "type": "function"
    },
    {
      "inputs": [],
      "name": "unpause",
      "outputs": [],
      "stateMutability": "nonpayable",
      "type": "function"
    }
  ],
  "bytecode": "0x608060405234801561001057600080fd5b50612a8c806100206000396000f3fe608060405234801561001057600080fd5b50600436106101f05760003560e01c80638456cb591161010f578063ca15c873116100a2578063e63ab1e911610071578063e63ab1e914610438578063fad8b32a1461044d578063fc673c4f14610460578063fe9d93031461047357600080fd5b8063ca15c873146103c6578063d547741f146103d9578063d95b6371146103ec578063dd62ed3e146103ff57600080fd5b806395d89b41116100de57806395d89b41146103905780639bd9bbc614610398578063a217fddf146103ab578063a9059cbb146103b357600080fd5b80638456cb59146103375780639010d07c1461033f57806391d148541461036a578063959b8c3f1461037d57600080fd5b8063313ce567116101875780635c975abb116101565780635c975abb146102e857806362ad1b83146102f357806370a08231146103065780638129fc1c1461032f57600080fd5b8063313ce567146102b757806336568abe146102c65780633f4ba83a146102d9578063556f0dc7146102e157600080fd5b806318160ddd116101c357806318160ddd1461025a57806323b872dd1461026c578063248a9ca31461027f5780632f2ff15d146102a257600080fd5b806301ffc9a7146101f557806306e485381461021d57806306fdde0314610232578063095ea7b314610247575b600080fd5b6102086102033660046122a3565b610486565b60405190151581526020015b60405180910390f35b6102256104b1565b60405161021491906122cd565b61023a610513565b6040516102149190612372565b61020861025536600461239a565b61059c565b6034545b604051908152602001610214565b61020861027a3660046123c6565b6105eb565b61025e61028d366004612407565b600090815260c9602052604090206001015490565b6102b56102b0366004612420565b610719565b005b60405160128152602001610214565b6102b56102d4366004612420565b610744565b6102b56107c2565b600161025e565b60655460ff16610208565b6102b56103013660046124f3565b6107e6565b61025e610314366004612586565b6001600160a01b031660009081526033602052604090205490565b6102b5610822565b6102b5610918565b61035261034d3660046125a3565b610939565b6040516001600160a01b039091168152602001610214565b610208610378366004612420565b610951565b6102b561038b366004612586565b61097c565b61023a610990565b6102b56103a63660046125c5565b61099f565b61025e600081565b6102086103c136600461239a565b6109bd565b61025e6103d4366004612407565b610a7a565b6102b56103e7366004612420565b610a91565b6102086103fa36600461261e565b610ab7565b61025e61040d36600461261e565b6001600160a01b039182166000908152603b6020908152604080832093909416825291909152205490565b61025e600080516020612a3783398151915281565b6102b561045b366004612586565b610b58565b6102b561046e36600461264c565b610b6c565b6102b56104813660046126cc565b610ba4565b60006001600160e01b03198216635a05180f60e01b14806104ab57506104ab82610bbf565b92915050565b6060603780548060200260200160405190810160405280929190818152602001828054801561050957602002820191906000526020600020905b81546001600160a01b031681526001909101906020018083116104eb575b5050505050905090565b60606035805461052290612713565b80601f016020809104026020016040519081016040528092919081815260200182805461054e90612713565b80156105095780601f1061057057610100808354040283529160200191610509565b820191906000526020600020905b81548152906001019060200180831161057e57509395945050505050565b60006105aa60655460ff1690565b156105d05760405162461bcd60e51b81526004016105c79061274e565b60405180910390fd5b6105da8383610bf4565b6105e48383610c17565b9392505050565b60006001600160a01b0383166106135760405162461bcd60e51b81526004016105c790612778565b6001600160a01b0384166106785760405162461bcd60e51b815260206004820152602660248201527f4552433737373a207472616e736665722066726f6d20746865207a65726f206160448201526564647265737360d01b60648201526084016105c7565b60003390506106a9818686866040518060200160405280600081525060405180602001604052806000815250610c25565b6106b4858285610d4d565b6106e0818686866040518060200160405280600081525060405180602001604052806000815250610dd9565b61070e8186868660405180602001604052806000815250604051806020016040528060008152506000610f4b565b506001949350505050565b600082815260c960205260409020600101546107358133611110565b61073f8383611174565b505050565b6001600160a01b03811633146107b45760405162461bcd60e51b815260206004820152602f60248201527f416363657373436f6e74726f6c3a2063616e206f6e6c792072656e6f756e636560448201526e103937b632b9903337b91039b2b63360891b60648201526084016105c7565b6107be8282611188565b5050565b600080516020612a378339815191526107db8133611110565b6107e361119c565b50565b6107f03386610ab7565b61080c5760405162461bcd60e51b81526004016105c7906127bc565b61081b8585858585600161122f565b5050505050565b600054610100900460ff1661083d5760005460ff1615610841565b303b155b6108a45760405162461bcd60e51b815260206004820152602e60248201527f496e697469616c697a61626c653a20636f6e747261637420697320616c72656160448201526d191e481a5b9a5d1a585b1a5e995960921b60648201526084016105c7565b600054610100900460ff161580156108c6576000805461ffff19166101011790555b6108ce611312565b610904336b019d971e4fe8401e7400000060405180602001604052806000815250604051806020016040528060008152506113b7565b80156107e3576000805461ff001916905550565b600080516020612a378339815191526109318133611110565b6107e36113c5565b600082815260fb602052604081206105e4908361141d565b600091825260c9602090815260408084206001600160a01b0393909316845291905290205460ff1690565b610987816000610bf4565b6107e381611429565b60606036805461052290612713565b61073f3384848460405180602001604052806000815250600161122f565b60006001600160a01b0383166109e55760405162461bcd60e51b81526004016105c790612778565b6000339050610a16818286866040518060200160405280600081525060405180602001604052806000815250610c25565b610a42818286866040518060200160405280600081525060405180602001604052806000815250610dd9565b610a708182868660405180602001604052806000815250604051806020016040528060008152506000610f4b565b5060019392505050565b600081815260fb602052604081206104ab90611547565b600082815260c96020526040902060010154610aad8133611110565b61073f8383611188565b6000816001600160a01b0316836001600160a01b03161480610b2257506001600160a01b03831660009081526038602052604090205460ff168015610b2257506001600160a01b038083166000908152603a602090815260408083209387168352929052205460ff16155b806105e45750506001600160a01b0390811660009081526039602090815260408083209490931682529290925290205460ff1690565b610b63816000610bf4565b6107e381611551565b610b763385610ab7565b610b925760405162461bcd60e51b81526004016105c7906127bc565b610b9e8484848461166d565b50505050565b6107be3383836040518060200160405280600081525061166d565b60006001600160e01b03198216637965db0b60e01b14806104ab57506301ffc9a760e01b6001600160e01b03198316146104ab565b60655460ff16156107be5760405162461bcd60e51b81526004016105c79061274e565b600033610a7081858561182f565b60405163555ddc6560e11b81526001600160a01b03861660048201527f29ddb589b1fb5fc7cf394961c1adf5f8c6454761adf795e67fe149f658abe8956024820152600090731820a4b7618bde71dce8cdc73aab6c95905fad249063aabbb8ca90604401602060405180830381865afa158015610ca6573d6000803e3d6000fd5b505050506040513d601f19601f82011682018060405250810190610cca9190612808565b90506001600160a01b03811615610d4457604051633ad5cbc160e11b81526001600160a01b038216906375ab978290610d11908a908a908a908a908a908a90600401612825565b600060405180830381600087803b158015610d2b57600080fd5b505af1158015610d3f573d6000803e3d6000fd5b505050505b50505050505050565b6001600160a01b038381166000908152603b60209081526040808320938616835292905220546000198114610b9e5781811015610dcc5760405162461bcd60e51b815260206004820152601e60248201527f4552433737373a20696e73756666696369656e7420616c6c6f77616e6365000060448201526064016105c7565b610b9e848484840361182f565b610de586868686611956565b6001600160a01b03851660009081526033602052604090205483811015610e5e5760405162461bcd60e51b815260206004820152602760248201527f4552433737373a207472616e7366657220616d6f756e7420657863656564732060448201526662616c616e636560c81b60648201526084016105c7565b6001600160a01b03808716600090815260336020526040808220878503905591871681529081208054869290610e95908490612895565b92505081905550846001600160a01b0316866001600160a01b0316886001600160a01b03167f06b541ddaa720db2b10a4d0cdac39b8d360425fc073085fac19bc82614677987878787604051610eed939291906128ad565b60405180910390a4846001600160a01b0316866001600160a01b03167fddf252ad1be2c89b69c2b068fc378daa952ba7f163c4a11628f55a4df523b3ef86604051610f3a91815260200190565b60405180910390a350505050505050565b60405163555ddc6560e11b81526001600160a01b03861660048201527fb281fc8c12954d22544db45de3159a39272895b169a852b314f9cc762e44c53b6024820152600090731820a4b7618bde71dce8cdc73aab6c95905fad249063aabbb8ca90604401602060405180830381865afa158015610fcc573d6000803e3d6000fd5b505050506040513d601f19601f82011682018060405250810190610ff09190612808565b90506001600160a01b0381161561106c576040516223de2960e01b81526001600160a01b038216906223de2990611035908b908b908b908b908b908b90600401612825565b600060405180830381600087803b15801561104f57600080fd5b505af1158015611063573d6000803e3d6000fd5b50505050611106565b8115611106576001600160a01b0386163b156111065760405162461bcd60e51b815260206004820152604d60248201527f4552433737373a20746f6b656e20726563697069656e7420636f6e747261637460448201527f20686173206e6f20696d706c656d656e74657220666f7220455243373737546f60648201526c1ad95b9cd49958da5c1a595b9d609a1b608482015260a4016105c7565b5050505050505050565b61111a8282610951565b6107be57611132816001600160a01b0316601461197e565b61113d83602061197e565b60405160200161114e9291906128e2565b60408051601f198184030181529082905262461bcd60e51b82526105c791600401612372565b61117e8282610bf4565b6107be8282611b1a565b6111928282610bf4565b6107be8282611b3c565b60655460ff166111e55760405162461bcd60e51b815260206004820152601460248201527314185d5cd8589b194e881b9bdd081c185d5cd95960621b60448201526064016105c7565b6065805460ff191690557f5db9ee0a495bf2e6ff9c91a7834c1ba4fdd244a5e8aa4e537bd38aeae4b073aa335b6040516001600160a01b03909116815260200160405180910390a1565b6001600160a01b0386166112905760405162461bcd60e51b815260206004820152602260248201527f4552433737373a2073656e642066726f6d20746865207a65726f206164647265604482015261737360f01b60648201526084016105c7565b6001600160a01b0385166112e65760405162461bcd60e51b815260206004820181905260248201527f4552433737373a2073656e6420746f20746865207a65726f206164647265737360448201526064016105c7565b336112f5818888888888610c25565b611303818888888888610dd9565b610d4481888888888888610f4b565b600054610100900460ff166113395760405162461bcd60e51b81526004016105c790612957565b611341611b5e565b611349611b5e565b611351611b5e565b611359611b5e565b611361611b85565b611369611bb8565b6040805180820182526004808252634e4f524960e01b602080840182905284518086018652928352828101919091528351600081529081019093526113ad92611c02565b6113b5611b5e565b565b610b9e848484846001611dec565b60655460ff16156113e85760405162461bcd60e51b81526004016105c79061274e565b6065805460ff191660011790557f62e78cea01bee320cd4e420270b5ea74000d11b0c9f74754ebdbfc544b05a2586112123390565b60006105e48383611f32565b336001600160a01b038216141561148e5760405162461bcd60e51b8152602060048201526024808201527f4552433737373a20617574686f72697a696e672073656c66206173206f70657260448201526330ba37b960e11b60648201526084016105c7565b6001600160a01b03811660009081526038602052604090205460ff16156114df57336000908152603a602090815260408083206001600160a01b03851684529091529020805460ff1916905561150e565b3360009081526039602090815260408083206001600160a01b03851684529091529020805460ff191660011790555b60405133906001600160a01b038316907ff4caeb2d6ca8932a215a353d0703c326ec2d81fc68170f320eb2ab49e9df61f990600090a350565b60006104ab825490565b6001600160a01b0381163314156115b45760405162461bcd60e51b815260206004820152602160248201527f4552433737373a207265766f6b696e672073656c66206173206f70657261746f6044820152603960f91b60648201526084016105c7565b6001600160a01b03811660009081526038602052604090205460ff161561160857336000908152603a602090815260408083206001600160a01b03851684529091529020805460ff19166001179055611634565b3360009081526039602090815260408083206001600160a01b03851684529091529020805460ff191690555b60405133906001600160a01b038316907f50546e66e5f44d728365dc3908c63bc5cfeeab470722c1677e3073a6ac294aa190600090a350565b6001600160a01b0384166116ce5760405162461bcd60e51b815260206004820152602260248201527f4552433737373a206275726e2066726f6d20746865207a65726f206164647265604482015261737360f01b60648201526084016105c7565b336116de81866000878787610c25565b6116eb8186600087611956565b6001600160a01b038516600090815260336020526040902054848110156117605760405162461bcd60e51b815260206004820152602360248201527f4552433737373a206275726e20616d6f756e7420657863656564732062616c616044820152626e636560e81b60648201526084016105c7565b6001600160a01b038616600090815260336020526040812086830390556034805487929061178f9084906129a2565b92505081905550856001600160a01b0316826001600160a01b03167fa78a9be3a7b862d26933ad85fb11d80ef66b8f972d7cbba06621d583943a40988787876040516117dd939291906128ad565b60405180910390a36040518581526000906001600160a01b038816907fddf252ad1be2c89b69c2b068fc378daa952ba7f163c4a11628f55a4df523b3ef906020015b60405180910390a3505050505050565b6001600160a01b0383166118935760405162461bcd60e51b815260206004820152602560248201527f4552433737373a20617070726f76652066726f6d20746865207a65726f206164604482015264647265737360d81b60648201526084016105c7565b6001600160a01b0382166118f55760405162461bcd60e51b815260206004820152602360248201527f4552433737373a20617070726f766520746f20746865207a65726f206164647260448201526265737360e81b60648201526084016105c7565b6001600160a01b038381166000818152603b602090815260408083209487168084529482529182902085905590518481527f8c5be1e5ebec7d5bd14f71427d1e84f3dd0314c0f7b2291e5b200ac8c7c3b925910160405180910390a3505050565b60655460ff16156119795760405162461bcd60e51b81526004016105c79061274e565b610b9e565b6060600061198d8360026129b9565b611998906002612895565b67ffffffffffffffff8111156119b0576119b0612450565b6040519080825280601f01601f1916602001820160405280156119da576020820181803683370190505b509050600360fc1b816000815181106119f5576119f56129d8565b60200101906001600160f81b031916908160001a905350600f60fb1b81600181518110611a2457611a246129d8565b60200101906001600160f81b031916908160001a9053506000611a488460026129b9565b611a53906001612895565b90505b6001811115611acb576f181899199a1a9b1b9c1cb0b131b232b360811b85600f1660108110611a8757611a876129d8565b1a60f81b828281518110611a9d57611a9d6129d8565b60200101906001600160f81b031916908160001a90535060049490941c93611ac4816129ee565b9050611a56565b5083156105e45760405162461bcd60e51b815260206004820181905260248201527f537472696e67733a20686578206c656e67746820696e73756666696369656e7460448201526064016105c7565b611b248282611f5c565b600082815260fb6020526040902061073f9082611fe2565b611b468282611ff7565b600082815260fb6020526040902061073f908261205e565b600054610100900460ff166113b55760405162461bcd60e51b81526004016105c790612957565b600054610100900460ff16611bac5760405162461bcd60e51b81526004016105c790612957565b6065805460ff19169055565b600054610100900460ff16611bdf5760405162461bcd60e51b81526004016105c790612957565b611bea600033611174565b6113b5600080516020612a3783398151915233611174565b600054610100900460ff16611c295760405162461bcd60e51b81526004016105c790612957565b8251611c3c9060359060208601906121b5565b508151611c509060369060208501906121b5565b508051611c64906037906020840190612239565b5060005b8151811015611ccd57600160386000848481518110611c8957611c896129d8565b6020908102919091018101516001600160a01b03168252810191909152604001600020805460ff191691151591909117905580611cc581612a05565b915050611c68565b506040516329965a1d60e01b815230600482018190527fac7fbab5f54a3ca8194167523c6753bfeb96a445279294b6125b68cce217705460248301526044820152731820a4b7618bde71dce8cdc73aab6c95905fad24906329965a1d90606401600060405180830381600087803b158015611d4757600080fd5b505af1158015611d5b573d6000803e3d6000fd5b50506040516329965a1d60e01b815230600482018190527faea199e31a596269b42cdafd93407f14436db6e4cad65417994c2eb37381e05a60248301526044820152731820a4b7618bde71dce8cdc73aab6c95905fad2492506329965a1d9150606401600060405180830381600087803b158015611dd857600080fd5b505af1158015610d44573d6000803e3d6000fd5b6001600160a01b038516611e425760405162461bcd60e51b815260206004820181905260248201527f4552433737373a206d696e7420746f20746865207a65726f206164647265737360448201526064016105c7565b33611e508160008888611956565b8460346000828254611e629190612895565b90915550506001600160a01b03861660009081526033602052604081208054879290611e8f908490612895565b90915550611ea590508160008888888888610f4b565b856001600160a01b0316816001600160a01b03167f2fe5be0146f74c5bce36c0b80911af6c7d86ff27e89d5cfa61fc681327954e5d878787604051611eec939291906128ad565b60405180910390a36040518581526001600160a01b038716906000907fddf252ad1be2c89b69c2b068fc378daa952ba7f163c4a11628f55a4df523b3ef9060200161181f565b6000826000018281548110611f4957611f496129d8565b9060005260206000200154905092915050565b611f668282610951565b6107be57600082815260c9602090815260408083206001600160a01b03851684529091529020805460ff19166001179055611f9e3390565b6001600160a01b0316816001600160a01b0316837f2f8788117e7eff1d82e926ec794901d17c78024a50270940304540a733656f0d60405160405180910390a45050565b60006105e4836001600160a01b038416612073565b6120018282610951565b156107be57600082815260c9602090815260408083206001600160a01b0385168085529252808320805460ff1916905551339285917ff6391f5c32d9c69d2a47ea670b442974b53935d1edc7fd64eb21e047a839171b9190a45050565b60006105e4836001600160a01b0384166120c2565b60008181526001830160205260408120546120ba575081546001818101845560008481526020808220909301849055845484825282860190935260409020919091556104ab565b5060006104ab565b600081815260018301602052604081205480156121ab5760006120e66001836129a2565b85549091506000906120fa906001906129a2565b905081811461215f57600086600001828154811061211a5761211a6129d8565b906000526020600020015490508087600001848154811061213d5761213d6129d8565b6000918252602080832090910192909255918252600188019052604090208390555b855486908061217057612170612a20565b6001900381819060005260206000200160009055905585600101600086815260200190815260200160002060009055600193505050506104ab565b60009150506104ab565b8280546121c190612713565b90600052602060002090601f0160209004810192826121e35760008555612229565b82601f106121fc57805160ff1916838001178555612229565b82800160010185558215612229579182015b8281111561222957825182559160200191906001019061220e565b5061223592915061228e565b5090565b828054828255906000526020600020908101928215612229579160200282015b8281111561222957825182546001600160a01b0319166001600160a01b03909116178255602090920191600190910190612259565b5b80821115612235576000815560010161228f565b6000602082840312156122b557600080fd5b81356001600160e01b0319811681146105e457600080fd5b6020808252825182820181905260009190848201906040850190845b8181101561230e5783516001600160a01b0316835292840192918401916001016122e9565b50909695505050505050565b60005b8381101561233557818101518382015260200161231d565b83811115610b9e5750506000910152565b6000815180845261235e81602086016020860161231a565b601f01601f19169290920160200192915050565b6020815260006105e46020830184612346565b6001600160a01b03811681146107e357600080fd5b600080604083850312156123ad57600080fd5b82356123b881612385565b946020939093013593505050565b6000806000606084860312156123db57600080fd5b83356123e681612385565b925060208401356123f681612385565b929592945050506040919091013590565b60006020828403121561241957600080fd5b5035919050565b6000806040838503121561243357600080fd5b82359150602083013561244581612385565b809150509250929050565b634e487b7160e01b600052604160045260246000fd5b600082601f83011261247757600080fd5b813567ffffffffffffffff8082111561249257612492612450565b604051601f8301601f19908116603f011681019082821181831017156124ba576124ba612450565b816040528381528660208588010111156124d357600080fd5b836020870160208301376000602085830101528094505050505092915050565b600080600080600060a0868803121561250b57600080fd5b853561251681612385565b9450602086013561252681612385565b935060408601359250606086013567ffffffffffffffff8082111561254a57600080fd5b61255689838a01612466565b9350608088013591508082111561256c57600080fd5b5061257988828901612466565b9150509295509295909350565b60006020828403121561259857600080fd5b81356105e481612385565b600080604083850312156125b657600080fd5b50508035926020909101359150565b6000806000606084860312156125da57600080fd5b83356125e581612385565b925060208401359150604084013567ffffffffffffffff81111561260857600080fd5b61261486828701612466565b9150509250925092565b6000806040838503121561263157600080fd5b823561263c81612385565b9150602083013561244581612385565b6000806000806080858703121561266257600080fd5b843561266d81612385565b935060208501359250604085013567ffffffffffffffff8082111561269157600080fd5b61269d88838901612466565b935060608701359150808211156126b357600080fd5b506126c087828801612466565b91505092959194509250565b600080604083850312156126df57600080fd5b82359150602083013567ffffffffffffffff8111156126fd57600080fd5b61270985828601612466565b9150509250929050565b600181811c9082168061272757607f821691505b6020821081141561274857634e487b7160e01b600052602260045260246000fd5b50919050565b60208082526010908201526f14185d5cd8589b194e881c185d5cd95960821b604082015260600190565b60208082526024908201527f4552433737373a207472616e7366657220746f20746865207a65726f206164646040820152637265737360e01b606082015260800190565b6020808252602c908201527f4552433737373a2063616c6c6572206973206e6f7420616e206f70657261746f60408201526b39103337b9103437b63232b960a11b606082015260800190565b60006020828403121561281a57600080fd5b81516105e481612385565b6001600160a01b0387811682528681166020830152851660408201526060810184905260c06080820181905260009061286090830185612346565b82810360a08401526128728185612346565b9998505050505050505050565b634e487b7160e01b600052601160045260246000fd5b600082198211156128a8576128a861287f565b500190565b8381526060602082015260006128c66060830185612346565b82810360408401526128d88185612346565b9695505050505050565b7f416363657373436f6e74726f6c3a206163636f756e742000000000000000000081526000835161291a81601785016020880161231a565b7001034b99036b4b9b9b4b733903937b6329607d1b601791840191820152835161294b81602884016020880161231a565b01602801949350505050565b6020808252602b908201527f496e697469616c697a61626c653a20636f6e7472616374206973206e6f74206960408201526a6e697469616c697a696e6760a81b606082015260800190565b6000828210156129b4576129b461287f565b500390565b60008160001904831182151516156129d3576129d361287f565b500290565b634e487b7160e01b600052603260045260246000fd5b6000816129fd576129fd61287f565b506000190190565b6000600019821415612a1957612a1961287f565b5060010190565b634e487b7160e01b600052603160045260246000fdfe65d7a28e3265b37a6474929f336521b332c1681b933f6cb9f3376673440d862aa264697066735822122082bf7b5194415d6be41274dabc79b973e1dddd760d7de45fac9b03166f95048864736f6c634300080c0033",
  "linkReferences": {},
  "deployedLinkReferences": {}
}