{
  "_format": "hh-sol-artifact-1",
  "contractName": "NORI",
  "sourceName": "contracts/NORI.sol",
  "abi": [
    {
      "anonymous": false,
      "inputs": [
        {
          "indexed": true,
          "internalType": "address",
          "name": "owner",
          "type": "address"
        },
        {
          "indexed": true,
          "internalType": "address",
          "name": "spender",
          "type": "address"
        },
        {
          "indexed": false,
          "internalType": "uint256",
          "name": "value",
          "type": "uint256"
        }
      ],
      "name": "Approval",
      "type": "event"
    },
    {
      "anonymous": false,
      "inputs": [
        {
          "indexed": true,
          "internalType": "address",
          "name": "operator",
          "type": "address"
        },
        {
          "indexed": true,
          "internalType": "address",
          "name": "tokenHolder",
          "type": "address"
        }
      ],
      "name": "AuthorizedOperator",
      "type": "event"
    },
    {
      "anonymous": false,
      "inputs": [
        {
          "indexed": true,
          "internalType": "address",
          "name": "operator",
          "type": "address"
        },
        {
          "indexed": true,
          "internalType": "address",
          "name": "from",
          "type": "address"
        },
        {
          "indexed": false,
          "internalType": "uint256",
          "name": "amount",
          "type": "uint256"
        },
        {
          "indexed": false,
          "internalType": "bytes",
          "name": "data",
          "type": "bytes"
        },
        {
          "indexed": false,
          "internalType": "bytes",
          "name": "operatorData",
          "type": "bytes"
        }
      ],
      "name": "Burned",
      "type": "event"
    },
    {
      "anonymous": false,
      "inputs": [
        {
          "indexed": true,
          "internalType": "address",
          "name": "operator",
          "type": "address"
        },
        {
          "indexed": true,
          "internalType": "address",
          "name": "to",
          "type": "address"
        },
        {
          "indexed": false,
          "internalType": "uint256",
          "name": "amount",
          "type": "uint256"
        },
        {
          "indexed": false,
          "internalType": "bytes",
          "name": "data",
          "type": "bytes"
        },
        {
          "indexed": false,
          "internalType": "bytes",
          "name": "operatorData",
          "type": "bytes"
        }
      ],
      "name": "Minted",
      "type": "event"
    },
    {
      "anonymous": false,
      "inputs": [
        {
          "indexed": false,
          "internalType": "address",
          "name": "account",
          "type": "address"
        }
      ],
      "name": "Paused",
      "type": "event"
    },
    {
      "anonymous": false,
      "inputs": [
        {
          "indexed": true,
          "internalType": "address",
          "name": "operator",
          "type": "address"
        },
        {
          "indexed": true,
          "internalType": "address",
          "name": "tokenHolder",
          "type": "address"
        }
      ],
      "name": "RevokedOperator",
      "type": "event"
    },
    {
      "anonymous": false,
      "inputs": [
        {
          "indexed": true,
          "internalType": "bytes32",
          "name": "role",
          "type": "bytes32"
        },
        {
          "indexed": true,
          "internalType": "bytes32",
          "name": "previousAdminRole",
          "type": "bytes32"
        },
        {
          "indexed": true,
          "internalType": "bytes32",
          "name": "newAdminRole",
          "type": "bytes32"
        }
      ],
      "name": "RoleAdminChanged",
      "type": "event"
    },
    {
      "anonymous": false,
      "inputs": [
        {
          "indexed": true,
          "internalType": "bytes32",
          "name": "role",
          "type": "bytes32"
        },
        {
          "indexed": true,
          "internalType": "address",
          "name": "account",
          "type": "address"
        },
        {
          "indexed": true,
          "internalType": "address",
          "name": "sender",
          "type": "address"
        }
      ],
      "name": "RoleGranted",
      "type": "event"
    },
    {
      "anonymous": false,
      "inputs": [
        {
          "indexed": true,
          "internalType": "bytes32",
          "name": "role",
          "type": "bytes32"
        },
        {
          "indexed": true,
          "internalType": "address",
          "name": "account",
          "type": "address"
        },
        {
          "indexed": true,
          "internalType": "address",
          "name": "sender",
          "type": "address"
        }
      ],
      "name": "RoleRevoked",
      "type": "event"
    },
    {
      "anonymous": false,
      "inputs": [
        {
          "indexed": true,
          "internalType": "address",
          "name": "operator",
          "type": "address"
        },
        {
          "indexed": true,
          "internalType": "address",
          "name": "from",
          "type": "address"
        },
        {
          "indexed": true,
          "internalType": "address",
          "name": "to",
          "type": "address"
        },
        {
          "indexed": false,
          "internalType": "uint256",
          "name": "amount",
          "type": "uint256"
        },
        {
          "indexed": false,
          "internalType": "bytes",
          "name": "data",
          "type": "bytes"
        },
        {
          "indexed": false,
          "internalType": "bytes",
          "name": "operatorData",
          "type": "bytes"
        }
      ],
      "name": "Sent",
      "type": "event"
    },
    {
      "anonymous": false,
      "inputs": [
        {
          "indexed": true,
          "internalType": "address",
          "name": "from",
          "type": "address"
        },
        {
          "indexed": false,
          "internalType": "address[]",
          "name": "recipients",
          "type": "address[]"
        },
        {
          "indexed": false,
          "internalType": "uint256[]",
          "name": "amounts",
          "type": "uint256[]"
        },
        {
          "indexed": false,
          "internalType": "bytes[]",
          "name": "userData",
          "type": "bytes[]"
        },
        {
          "indexed": false,
          "internalType": "bytes[]",
          "name": "operatorData",
          "type": "bytes[]"
        },
        {
          "indexed": false,
          "internalType": "bool[]",
          "name": "requireReceptionAck",
          "type": "bool[]"
        }
      ],
      "name": "SentBatch",
      "type": "event"
    },
    {
      "anonymous": false,
      "inputs": [
        {
          "indexed": true,
          "internalType": "address",
          "name": "from",
          "type": "address"
        },
        {
          "indexed": true,
          "internalType": "address",
          "name": "to",
          "type": "address"
        },
        {
          "indexed": false,
          "internalType": "uint256",
          "name": "value",
          "type": "uint256"
        }
      ],
      "name": "Transfer",
      "type": "event"
    },
    {
      "anonymous": false,
      "inputs": [
        {
          "indexed": false,
          "internalType": "address",
          "name": "account",
          "type": "address"
        }
      ],
      "name": "Unpaused",
      "type": "event"
    },
    {
      "inputs": [],
      "name": "DEFAULT_ADMIN_ROLE",
      "outputs": [
        {
          "internalType": "bytes32",
          "name": "",
          "type": "bytes32"
        }
      ],
      "stateMutability": "view",
      "type": "function"
    },
    {
      "inputs": [],
      "name": "PAUSER_ROLE",
      "outputs": [
        {
          "internalType": "bytes32",
          "name": "",
          "type": "bytes32"
        }
      ],
      "stateMutability": "view",
      "type": "function"
    },
    {
      "inputs": [
        {
          "internalType": "address",
          "name": "holder",
          "type": "address"
        },
        {
          "internalType": "address",
          "name": "spender",
          "type": "address"
        }
      ],
      "name": "allowance",
      "outputs": [
        {
          "internalType": "uint256",
          "name": "",
          "type": "uint256"
        }
      ],
      "stateMutability": "view",
      "type": "function"
    },
    {
      "inputs": [
        {
          "internalType": "address",
          "name": "spender",
          "type": "address"
        },
        {
          "internalType": "uint256",
          "name": "value",
          "type": "uint256"
        }
      ],
      "name": "approve",
      "outputs": [
        {
          "internalType": "bool",
          "name": "",
          "type": "bool"
        }
      ],
      "stateMutability": "nonpayable",
      "type": "function"
    },
    {
      "inputs": [
        {
          "internalType": "address",
          "name": "operator",
          "type": "address"
        }
      ],
      "name": "authorizeOperator",
      "outputs": [],
      "stateMutability": "nonpayable",
      "type": "function"
    },
    {
      "inputs": [
        {
          "internalType": "address",
          "name": "tokenHolder",
          "type": "address"
        }
      ],
      "name": "balanceOf",
      "outputs": [
        {
          "internalType": "uint256",
          "name": "",
          "type": "uint256"
        }
      ],
      "stateMutability": "view",
      "type": "function"
    },
    {
      "inputs": [
        {
          "internalType": "address[]",
          "name": "accounts",
          "type": "address[]"
        }
      ],
      "name": "balanceOfBatch",
      "outputs": [
        {
          "internalType": "uint256[]",
          "name": "",
          "type": "uint256[]"
        }
      ],
      "stateMutability": "view",
      "type": "function"
    },
    {
      "inputs": [
        {
          "internalType": "address[]",
          "name": "recipients",
          "type": "address[]"
        },
        {
          "internalType": "uint256[]",
          "name": "amounts",
          "type": "uint256[]"
        },
        {
          "internalType": "bytes[]",
          "name": "userData",
          "type": "bytes[]"
        },
        {
          "internalType": "bytes[]",
          "name": "operatorData",
          "type": "bytes[]"
        },
        {
          "internalType": "bool[]",
          "name": "requireReceptionAck",
          "type": "bool[]"
        }
      ],
      "name": "batchSend",
      "outputs": [],
      "stateMutability": "nonpayable",
      "type": "function"
    },
    {
      "inputs": [
        {
          "internalType": "uint256",
          "name": "amount",
          "type": "uint256"
        },
        {
          "internalType": "bytes",
          "name": "data",
          "type": "bytes"
        }
      ],
      "name": "burn",
      "outputs": [],
      "stateMutability": "nonpayable",
      "type": "function"
    },
    {
      "inputs": [],
      "name": "decimals",
      "outputs": [
        {
          "internalType": "uint8",
          "name": "",
          "type": "uint8"
        }
      ],
      "stateMutability": "pure",
      "type": "function"
    },
    {
      "inputs": [],
      "name": "defaultOperators",
      "outputs": [
        {
          "internalType": "address[]",
          "name": "",
          "type": "address[]"
        }
      ],
      "stateMutability": "view",
      "type": "function"
    },
    {
      "inputs": [
        {
          "internalType": "bytes32",
          "name": "role",
          "type": "bytes32"
        }
      ],
      "name": "getRoleAdmin",
      "outputs": [
        {
          "internalType": "bytes32",
          "name": "",
          "type": "bytes32"
        }
      ],
      "stateMutability": "view",
      "type": "function"
    },
    {
      "inputs": [
        {
          "internalType": "bytes32",
          "name": "role",
          "type": "bytes32"
        },
        {
          "internalType": "uint256",
          "name": "index",
          "type": "uint256"
        }
      ],
      "name": "getRoleMember",
      "outputs": [
        {
          "internalType": "address",
          "name": "",
          "type": "address"
        }
      ],
      "stateMutability": "view",
      "type": "function"
    },
    {
      "inputs": [
        {
          "internalType": "bytes32",
          "name": "role",
          "type": "bytes32"
        }
      ],
      "name": "getRoleMemberCount",
      "outputs": [
        {
          "internalType": "uint256",
          "name": "",
          "type": "uint256"
        }
      ],
      "stateMutability": "view",
      "type": "function"
    },
    {
      "inputs": [
        {
          "internalType": "bytes32",
          "name": "role",
          "type": "bytes32"
        },
        {
          "internalType": "address",
          "name": "account",
          "type": "address"
        }
      ],
      "name": "grantRole",
      "outputs": [],
      "stateMutability": "nonpayable",
      "type": "function"
    },
    {
      "inputs": [],
      "name": "granularity",
      "outputs": [
        {
          "internalType": "uint256",
          "name": "",
          "type": "uint256"
        }
      ],
      "stateMutability": "view",
      "type": "function"
    },
    {
      "inputs": [
        {
          "internalType": "bytes32",
          "name": "role",
          "type": "bytes32"
        },
        {
          "internalType": "address",
          "name": "account",
          "type": "address"
        }
      ],
      "name": "hasRole",
      "outputs": [
        {
          "internalType": "bool",
          "name": "",
          "type": "bool"
        }
      ],
      "stateMutability": "view",
      "type": "function"
    },
    {
      "inputs": [],
      "name": "initialize",
      "outputs": [],
      "stateMutability": "nonpayable",
      "type": "function"
    },
    {
      "inputs": [
        {
          "internalType": "address",
          "name": "operator",
          "type": "address"
        },
        {
          "internalType": "address",
          "name": "tokenHolder",
          "type": "address"
        }
      ],
      "name": "isOperatorFor",
      "outputs": [
        {
          "internalType": "bool",
          "name": "",
          "type": "bool"
        }
      ],
      "stateMutability": "view",
      "type": "function"
    },
    {
      "inputs": [],
      "name": "name",
      "outputs": [
        {
          "internalType": "string",
          "name": "",
          "type": "string"
        }
      ],
      "stateMutability": "view",
      "type": "function"
    },
    {
      "inputs": [
        {
          "internalType": "address",
          "name": "account",
          "type": "address"
        },
        {
          "internalType": "uint256",
          "name": "amount",
          "type": "uint256"
        },
        {
          "internalType": "bytes",
          "name": "data",
          "type": "bytes"
        },
        {
          "internalType": "bytes",
          "name": "operatorData",
          "type": "bytes"
        }
      ],
      "name": "operatorBurn",
      "outputs": [],
      "stateMutability": "nonpayable",
      "type": "function"
    },
    {
      "inputs": [
        {
          "internalType": "address",
          "name": "sender",
          "type": "address"
        },
        {
          "internalType": "address",
          "name": "recipient",
          "type": "address"
        },
        {
          "internalType": "uint256",
          "name": "amount",
          "type": "uint256"
        },
        {
          "internalType": "bytes",
          "name": "data",
          "type": "bytes"
        },
        {
          "internalType": "bytes",
          "name": "operatorData",
          "type": "bytes"
        }
      ],
      "name": "operatorSend",
      "outputs": [],
      "stateMutability": "nonpayable",
      "type": "function"
    },
    {
      "inputs": [],
      "name": "pause",
      "outputs": [],
      "stateMutability": "nonpayable",
      "type": "function"
    },
    {
      "inputs": [],
      "name": "paused",
      "outputs": [
        {
          "internalType": "bool",
          "name": "",
          "type": "bool"
        }
      ],
      "stateMutability": "view",
      "type": "function"
    },
    {
      "inputs": [
        {
          "internalType": "bytes32",
          "name": "role",
          "type": "bytes32"
        },
        {
          "internalType": "address",
          "name": "account",
          "type": "address"
        }
      ],
      "name": "renounceRole",
      "outputs": [],
      "stateMutability": "nonpayable",
      "type": "function"
    },
    {
      "inputs": [
        {
          "internalType": "address",
          "name": "operator",
          "type": "address"
        }
      ],
      "name": "revokeOperator",
      "outputs": [],
      "stateMutability": "nonpayable",
      "type": "function"
    },
    {
      "inputs": [
        {
          "internalType": "bytes32",
          "name": "role",
          "type": "bytes32"
        },
        {
          "internalType": "address",
          "name": "account",
          "type": "address"
        }
      ],
      "name": "revokeRole",
      "outputs": [],
      "stateMutability": "nonpayable",
      "type": "function"
    },
    {
      "inputs": [
        {
          "internalType": "address",
          "name": "recipient",
          "type": "address"
        },
        {
          "internalType": "uint256",
          "name": "amount",
          "type": "uint256"
        },
        {
          "internalType": "bytes",
          "name": "data",
          "type": "bytes"
        }
      ],
      "name": "send",
      "outputs": [],
      "stateMutability": "nonpayable",
      "type": "function"
    },
    {
      "inputs": [
        {
          "internalType": "bytes4",
          "name": "interfaceId",
          "type": "bytes4"
        }
      ],
      "name": "supportsInterface",
      "outputs": [
        {
          "internalType": "bool",
          "name": "",
          "type": "bool"
        }
      ],
      "stateMutability": "view",
      "type": "function"
    },
    {
      "inputs": [],
      "name": "symbol",
      "outputs": [
        {
          "internalType": "string",
          "name": "",
          "type": "string"
        }
      ],
      "stateMutability": "view",
      "type": "function"
    },
    {
      "inputs": [],
      "name": "totalSupply",
      "outputs": [
        {
          "internalType": "uint256",
          "name": "",
          "type": "uint256"
        }
      ],
      "stateMutability": "view",
      "type": "function"
    },
    {
      "inputs": [
        {
          "internalType": "address",
          "name": "recipient",
          "type": "address"
        },
        {
          "internalType": "uint256",
          "name": "amount",
          "type": "uint256"
        }
      ],
      "name": "transfer",
      "outputs": [
        {
          "internalType": "bool",
          "name": "",
          "type": "bool"
        }
      ],
      "stateMutability": "nonpayable",
      "type": "function"
    },
    {
      "inputs": [
        {
          "internalType": "address",
          "name": "holder",
          "type": "address"
        },
        {
          "internalType": "address",
          "name": "recipient",
          "type": "address"
        },
        {
          "internalType": "uint256",
          "name": "amount",
          "type": "uint256"
        }
      ],
      "name": "transferFrom",
      "outputs": [
        {
          "internalType": "bool",
          "name": "",
          "type": "bool"
        }
      ],
      "stateMutability": "nonpayable",
      "type": "function"
    },
    {
      "inputs": [],
      "name": "unpause",
      "outputs": [],
      "stateMutability": "nonpayable",
      "type": "function"
    }
  ],
  "bytecode": "0x608060405234801561001057600080fd5b506132bb806100206000396000f3fe608060405234801561001057600080fd5b50600436106102065760003560e01c80638129fc1c1161011a578063a9059cbb116100ad578063dd62ed3e1161007c578063dd62ed3e14610448578063e63ab1e914610481578063fad8b32a14610496578063fc673c4f146104a9578063fe9d9303146104bc57600080fd5b8063a9059cbb146103fc578063ca15c8731461040f578063d547741f14610422578063d95b63711461043557600080fd5b8063959b8c3f116100e9578063959b8c3f146103c657806395d89b41146103d95780639bd9bbc6146103e1578063a217fddf146103f457600080fd5b80638129fc1c146103785780638456cb59146103805780639010d07c1461038857806391d14854146103b357600080fd5b8063313ce5671161019d578063556f0dc71161016c578063556f0dc7146103175780635c975abb1461031e57806362ad1b831461032957806366cf8bce1461033c57806370a082311461034f57600080fd5b8063313ce567146102cd57806336568abe146102dc5780633f4ba83a146102ef578063458c738e146102f757600080fd5b806318160ddd116101d957806318160ddd1461027057806323b872dd14610282578063248a9ca3146102955780632f2ff15d146102b857600080fd5b806301ffc9a71461020b57806306e485381461023357806306fdde0314610248578063095ea7b31461025d575b600080fd5b61021e61021936600461268b565b6104cf565b60405190151581526020015b60405180910390f35b61023b6104fa565b60405161022a91906126f9565b61025061055c565b60405161022a9190612764565b61021e61026b36600461278c565b6105e5565b6034545b60405190815260200161022a565b61021e6102903660046127b8565b610634565b6102746102a33660046127f9565b600090815260c9602052604090206001015490565b6102cb6102c6366004612812565b610762565b005b6040516012815260200161022a565b6102cb6102ea366004612812565b61078d565b6102cb61080b565b61030a610305366004612921565b61082f565b60405161022a919061298e565b6001610274565b60655460ff1661021e565b6102cb610337366004612a11565b6108f1565b6102cb61034a366004612be9565b61092d565b61027461035d366004612cae565b6001600160a01b031660009081526033602052604090205490565b6102cb610c0c565b6102cb610d02565b61039b610396366004612ccb565b610d23565b6040516001600160a01b03909116815260200161022a565b61021e6103c1366004612812565b610d3b565b6102cb6103d4366004612cae565b610d66565b610250610d7a565b6102cb6103ef366004612ced565b610d89565b610274600081565b61021e61040a36600461278c565b610da7565b61027461041d3660046127f9565b610e64565b6102cb610430366004612812565b610e7b565b61021e610443366004612d46565b610ea1565b610274610456366004612d46565b6001600160a01b039182166000908152603b6020908152604080832093909416825291909152205490565b61027460008051602061326683398151915281565b6102cb6104a4366004612cae565b610f42565b6102cb6104b7366004612d74565b610f56565b6102cb6104ca366004612df4565b610f8e565b60006001600160e01b03198216635a05180f60e01b14806104f457506104f482610fa9565b92915050565b6060603780548060200260200160405190810160405280929190818152602001828054801561055257602002820191906000526020600020905b81546001600160a01b03168152600190910190602001808311610534575b5050505050905090565b60606035805461056b90612e3b565b80601f016020809104026020016040519081016040528092919081815260200182805461059790612e3b565b80156105525780601f106105b957610100808354040283529160200191610552565b820191906000526020600020905b8154815290600101906020018083116105c757509395945050505050565b60006105f360655460ff1690565b156106195760405162461bcd60e51b815260040161061090612e75565b60405180910390fd5b6106238383610fde565b61062d8383611001565b9392505050565b60006001600160a01b03831661065c5760405162461bcd60e51b815260040161061090612e9f565b6001600160a01b0384166106c15760405162461bcd60e51b815260206004820152602660248201527f4552433737373a207472616e736665722066726f6d20746865207a65726f206160448201526564647265737360d01b6064820152608401610610565b60003390506106f281868686604051806020016040528060008152506040518060200160405280600081525061100f565b6106fd858285611137565b6107298186868660405180602001604052806000815250604051806020016040528060008152506111c3565b6107578186868660405180602001604052806000815250604051806020016040528060008152506000611335565b506001949350505050565b600082815260c9602052604090206001015461077e81336114fa565b610788838361155e565b505050565b6001600160a01b03811633146107fd5760405162461bcd60e51b815260206004820152602f60248201527f416363657373436f6e74726f6c3a2063616e206f6e6c792072656e6f756e636560448201526e103937b632b9903337b91039b2b63360891b6064820152608401610610565b6108078282611572565b5050565b60008051602061326683398151915261082481336114fa565b61082c611586565b50565b60606000825167ffffffffffffffff81111561084d5761084d612842565b604051908082528060200260200182016040528015610876578160200160208202803683370190505b50905060005b83518110156108ea576108bd84828151811061089a5761089a612ee3565b60200260200101516001600160a01b031660009081526033602052604090205490565b8282815181106108cf576108cf612ee3565b60209081029190910101526108e381612f0f565b905061087c565b5092915050565b6108fb3386610ea1565b6109175760405162461bcd60e51b815260040161061090612f28565b61092685858585856001611619565b5050505050565b83518551146109a15760405162461bcd60e51b8152602060048201526046602482015260008051602061324683398151915260448201527f3a20726563697069656e7420616e6420616d6f756e74206c656e677468206d696064820152650e6dac2e8c6d60d31b608482015260a401610610565b8251845114610a155760405162461bcd60e51b8152602060048201526046602482015260008051602061324683398151915260448201527f3a20616d6f756e747320616e64207573657244617461206c656e677468206d696064820152650e6dac2e8c6d60d31b608482015260a401610610565b8151835114610a8e5760405162461bcd60e51b815260206004820152604b602482015260008051602061324683398151915260448201527f3a20757365724461746120616e64206f70657261746f7244617461206c656e6760648201526a0e8d040dad2e6dac2e8c6d60ab1b608482015260a401610610565b8051825114610b125760405162461bcd60e51b8152602060048201526056602482015260008051602061324683398151915260448201527f3a206f70657261746f724461746120616e6420726571756972655265636570746064820152750d2dedc82c6d640d8cadccee8d040dad2e6dac2e8c6d60531b608482015260a401610610565b60005b8551811015610bbb57610ba933878381518110610b3457610b34612ee3565b6020026020010151878481518110610b4e57610b4e612ee3565b6020026020010151878581518110610b6857610b68612ee3565b6020026020010151878681518110610b8257610b82612ee3565b6020026020010151878781518110610b9c57610b9c612ee3565b6020026020010151611619565b80610bb381612f0f565b915050610b15565b50336001600160a01b03167fd5865ae34f92a2d6a803fa13140b8165046f54e61e68560b26950c62a668c6b68686868686604051610bfd959493929190612fc9565b60405180910390a25050505050565b600054610100900460ff16610c275760005460ff1615610c2b565b303b155b610c8e5760405162461bcd60e51b815260206004820152602e60248201527f496e697469616c697a61626c653a20636f6e747261637420697320616c72656160448201526d191e481a5b9a5d1a585b1a5e995960921b6064820152608401610610565b600054610100900460ff16158015610cb0576000805461ffff19166101011790555b610cb86116fc565b610cee336b019d971e4fe8401e7400000060405180602001604052806000815250604051806020016040528060008152506117a1565b801561082c576000805461ff001916905550565b600080516020613266833981519152610d1b81336114fa565b61082c6117af565b600082815260fb6020526040812061062d9083611807565b600091825260c9602090815260408084206001600160a01b0393909316845291905290205460ff1690565b610d71816000610fde565b61082c81611813565b60606036805461056b90612e3b565b61078833848484604051806020016040528060008152506001611619565b60006001600160a01b038316610dcf5760405162461bcd60e51b815260040161061090612e9f565b6000339050610e0081828686604051806020016040528060008152506040518060200160405280600081525061100f565b610e2c8182868660405180602001604052806000815250604051806020016040528060008152506111c3565b610e5a8182868660405180602001604052806000815250604051806020016040528060008152506000611335565b5060019392505050565b600081815260fb602052604081206104f490611930565b600082815260c96020526040902060010154610e9781336114fa565b6107888383611572565b6000816001600160a01b0316836001600160a01b03161480610f0c57506001600160a01b03831660009081526038602052604090205460ff168015610f0c57506001600160a01b038083166000908152603a602090815260408083209387168352929052205460ff16155b8061062d5750506001600160a01b0390811660009081526039602090815260408083209490931682529290925290205460ff1690565b610f4d816000610fde565b61082c8161193a565b610f603385610ea1565b610f7c5760405162461bcd60e51b815260040161061090612f28565b610f8884848484611a55565b50505050565b61080733838360405180602001604052806000815250611a55565b60006001600160e01b03198216637965db0b60e01b14806104f457506301ffc9a760e01b6001600160e01b03198316146104f4565b60655460ff16156108075760405162461bcd60e51b815260040161061090612e75565b600033610e5a818585611c17565b60405163555ddc6560e11b81526001600160a01b03861660048201527f29ddb589b1fb5fc7cf394961c1adf5f8c6454761adf795e67fe149f658abe8956024820152600090731820a4b7618bde71dce8cdc73aab6c95905fad249063aabbb8ca90604401602060405180830381865afa158015611090573d6000803e3d6000fd5b505050506040513d601f19601f820116820180604052508101906110b4919061305e565b90506001600160a01b0381161561112e57604051633ad5cbc160e11b81526001600160a01b038216906375ab9782906110fb908a908a908a908a908a908a9060040161307b565b600060405180830381600087803b15801561111557600080fd5b505af1158015611129573d6000803e3d6000fd5b505050505b50505050505050565b6001600160a01b038381166000908152603b60209081526040808320938616835292905220546000198114610f8857818110156111b65760405162461bcd60e51b815260206004820152601e60248201527f4552433737373a20696e73756666696369656e7420616c6c6f77616e636500006044820152606401610610565b610f888484848403611c17565b6111cf86868686611d3e565b6001600160a01b038516600090815260336020526040902054838110156112485760405162461bcd60e51b815260206004820152602760248201527f4552433737373a207472616e7366657220616d6f756e7420657863656564732060448201526662616c616e636560c81b6064820152608401610610565b6001600160a01b0380871660009081526033602052604080822087850390559187168152908120805486929061127f9084906130d5565b92505081905550846001600160a01b0316866001600160a01b0316886001600160a01b03167f06b541ddaa720db2b10a4d0cdac39b8d360425fc073085fac19bc826146779878787876040516112d7939291906130ed565b60405180910390a4846001600160a01b0316866001600160a01b03167fddf252ad1be2c89b69c2b068fc378daa952ba7f163c4a11628f55a4df523b3ef8660405161132491815260200190565b60405180910390a350505050505050565b60405163555ddc6560e11b81526001600160a01b03861660048201527fb281fc8c12954d22544db45de3159a39272895b169a852b314f9cc762e44c53b6024820152600090731820a4b7618bde71dce8cdc73aab6c95905fad249063aabbb8ca90604401602060405180830381865afa1580156113b6573d6000803e3d6000fd5b505050506040513d601f19601f820116820180604052508101906113da919061305e565b90506001600160a01b03811615611456576040516223de2960e01b81526001600160a01b038216906223de299061141f908b908b908b908b908b908b9060040161307b565b600060405180830381600087803b15801561143957600080fd5b505af115801561144d573d6000803e3d6000fd5b505050506114f0565b81156114f0576001600160a01b0386163b156114f05760405162461bcd60e51b815260206004820152604d60248201527f4552433737373a20746f6b656e20726563697069656e7420636f6e747261637460448201527f20686173206e6f20696d706c656d656e74657220666f7220455243373737546f60648201526c1ad95b9cd49958da5c1a595b9d609a1b608482015260a401610610565b5050505050505050565b6115048282610d3b565b6108075761151c816001600160a01b03166014611d66565b611527836020611d66565b604051602001611538929190613122565b60408051601f198184030181529082905262461bcd60e51b825261061091600401612764565b6115688282610fde565b6108078282611f02565b61157c8282610fde565b6108078282611f24565b60655460ff166115cf5760405162461bcd60e51b815260206004820152601460248201527314185d5cd8589b194e881b9bdd081c185d5cd95960621b6044820152606401610610565b6065805460ff191690557f5db9ee0a495bf2e6ff9c91a7834c1ba4fdd244a5e8aa4e537bd38aeae4b073aa335b6040516001600160a01b03909116815260200160405180910390a1565b6001600160a01b03861661167a5760405162461bcd60e51b815260206004820152602260248201527f4552433737373a2073656e642066726f6d20746865207a65726f206164647265604482015261737360f01b6064820152608401610610565b6001600160a01b0385166116d05760405162461bcd60e51b815260206004820181905260248201527f4552433737373a2073656e6420746f20746865207a65726f20616464726573736044820152606401610610565b336116df81888888888861100f565b6116ed8188888888886111c3565b61112e81888888888888611335565b600054610100900460ff166117235760405162461bcd60e51b815260040161061090613197565b61172b611f46565b611733611f46565b61173b611f46565b611743611f46565b61174b611f6d565b611753611fa0565b6040805180820182526004808252634e4f524960e01b6020808401829052845180860186529283528281019190915283516000815290810190935261179792611fea565b61179f611f46565b565b610f888484848460016121d4565b60655460ff16156117d25760405162461bcd60e51b815260040161061090612e75565b6065805460ff191660011790557f62e78cea01bee320cd4e420270b5ea74000d11b0c9f74754ebdbfc544b05a2586115fc3390565b600061062d838361231a565b6001600160a01b03811633036118775760405162461bcd60e51b8152602060048201526024808201527f4552433737373a20617574686f72697a696e672073656c66206173206f70657260448201526330ba37b960e11b6064820152608401610610565b6001600160a01b03811660009081526038602052604090205460ff16156118c857336000908152603a602090815260408083206001600160a01b03851684529091529020805460ff191690556118f7565b3360009081526039602090815260408083206001600160a01b03851684529091529020805460ff191660011790555b60405133906001600160a01b038316907ff4caeb2d6ca8932a215a353d0703c326ec2d81fc68170f320eb2ab49e9df61f990600090a350565b60006104f4825490565b336001600160a01b0382160361199c5760405162461bcd60e51b815260206004820152602160248201527f4552433737373a207265766f6b696e672073656c66206173206f70657261746f6044820152603960f91b6064820152608401610610565b6001600160a01b03811660009081526038602052604090205460ff16156119f057336000908152603a602090815260408083206001600160a01b03851684529091529020805460ff19166001179055611a1c565b3360009081526039602090815260408083206001600160a01b03851684529091529020805460ff191690555b60405133906001600160a01b038316907f50546e66e5f44d728365dc3908c63bc5cfeeab470722c1677e3073a6ac294aa190600090a350565b6001600160a01b038416611ab65760405162461bcd60e51b815260206004820152602260248201527f4552433737373a206275726e2066726f6d20746865207a65726f206164647265604482015261737360f01b6064820152608401610610565b33611ac68186600087878761100f565b611ad38186600087611d3e565b6001600160a01b03851660009081526033602052604090205484811015611b485760405162461bcd60e51b815260206004820152602360248201527f4552433737373a206275726e20616d6f756e7420657863656564732062616c616044820152626e636560e81b6064820152608401610610565b6001600160a01b0386166000908152603360205260408120868303905560348054879290611b779084906131e2565b92505081905550856001600160a01b0316826001600160a01b03167fa78a9be3a7b862d26933ad85fb11d80ef66b8f972d7cbba06621d583943a4098878787604051611bc5939291906130ed565b60405180910390a36040518581526000906001600160a01b038816907fddf252ad1be2c89b69c2b068fc378daa952ba7f163c4a11628f55a4df523b3ef906020015b60405180910390a3505050505050565b6001600160a01b038316611c7b5760405162461bcd60e51b815260206004820152602560248201527f4552433737373a20617070726f76652066726f6d20746865207a65726f206164604482015264647265737360d81b6064820152608401610610565b6001600160a01b038216611cdd5760405162461bcd60e51b815260206004820152602360248201527f4552433737373a20617070726f766520746f20746865207a65726f206164647260448201526265737360e81b6064820152608401610610565b6001600160a01b038381166000818152603b602090815260408083209487168084529482529182902085905590518481527f8c5be1e5ebec7d5bd14f71427d1e84f3dd0314c0f7b2291e5b200ac8c7c3b925910160405180910390a3505050565b60655460ff1615611d615760405162461bcd60e51b815260040161061090612e75565b610f88565b60606000611d758360026131f9565b611d809060026130d5565b67ffffffffffffffff811115611d9857611d98612842565b6040519080825280601f01601f191660200182016040528015611dc2576020820181803683370190505b509050600360fc1b81600081518110611ddd57611ddd612ee3565b60200101906001600160f81b031916908160001a905350600f60fb1b81600181518110611e0c57611e0c612ee3565b60200101906001600160f81b031916908160001a9053506000611e308460026131f9565b611e3b9060016130d5565b90505b6001811115611eb3576f181899199a1a9b1b9c1cb0b131b232b360811b85600f1660108110611e6f57611e6f612ee3565b1a60f81b828281518110611e8557611e85612ee3565b60200101906001600160f81b031916908160001a90535060049490941c93611eac81613218565b9050611e3e565b50831561062d5760405162461bcd60e51b815260206004820181905260248201527f537472696e67733a20686578206c656e67746820696e73756666696369656e746044820152606401610610565b611f0c8282612344565b600082815260fb6020526040902061078890826123ca565b611f2e82826123df565b600082815260fb602052604090206107889082612446565b600054610100900460ff1661179f5760405162461bcd60e51b815260040161061090613197565b600054610100900460ff16611f945760405162461bcd60e51b815260040161061090613197565b6065805460ff19169055565b600054610100900460ff16611fc75760405162461bcd60e51b815260040161061090613197565b611fd260003361155e565b61179f6000805160206132668339815191523361155e565b600054610100900460ff166120115760405162461bcd60e51b815260040161061090613197565b825161202490603590602086019061259d565b50815161203890603690602085019061259d565b50805161204c906037906020840190612621565b5060005b81518110156120b55760016038600084848151811061207157612071612ee3565b6020908102919091018101516001600160a01b03168252810191909152604001600020805460ff1916911515919091179055806120ad81612f0f565b915050612050565b506040516329965a1d60e01b815230600482018190527fac7fbab5f54a3ca8194167523c6753bfeb96a445279294b6125b68cce217705460248301526044820152731820a4b7618bde71dce8cdc73aab6c95905fad24906329965a1d90606401600060405180830381600087803b15801561212f57600080fd5b505af1158015612143573d6000803e3d6000fd5b50506040516329965a1d60e01b815230600482018190527faea199e31a596269b42cdafd93407f14436db6e4cad65417994c2eb37381e05a60248301526044820152731820a4b7618bde71dce8cdc73aab6c95905fad2492506329965a1d9150606401600060405180830381600087803b1580156121c057600080fd5b505af115801561112e573d6000803e3d6000fd5b6001600160a01b03851661222a5760405162461bcd60e51b815260206004820181905260248201527f4552433737373a206d696e7420746f20746865207a65726f20616464726573736044820152606401610610565b336122388160008888611d3e565b846034600082825461224a91906130d5565b90915550506001600160a01b038616600090815260336020526040812080548792906122779084906130d5565b9091555061228d90508160008888888888611335565b856001600160a01b0316816001600160a01b03167f2fe5be0146f74c5bce36c0b80911af6c7d86ff27e89d5cfa61fc681327954e5d8787876040516122d4939291906130ed565b60405180910390a36040518581526001600160a01b038716906000907fddf252ad1be2c89b69c2b068fc378daa952ba7f163c4a11628f55a4df523b3ef90602001611c07565b600082600001828154811061233157612331612ee3565b9060005260206000200154905092915050565b61234e8282610d3b565b61080757600082815260c9602090815260408083206001600160a01b03851684529091529020805460ff191660011790556123863390565b6001600160a01b0316816001600160a01b0316837f2f8788117e7eff1d82e926ec794901d17c78024a50270940304540a733656f0d60405160405180910390a45050565b600061062d836001600160a01b03841661245b565b6123e98282610d3b565b1561080757600082815260c9602090815260408083206001600160a01b0385168085529252808320805460ff1916905551339285917ff6391f5c32d9c69d2a47ea670b442974b53935d1edc7fd64eb21e047a839171b9190a45050565b600061062d836001600160a01b0384166124aa565b60008181526001830160205260408120546124a2575081546001818101845560008481526020808220909301849055845484825282860190935260409020919091556104f4565b5060006104f4565b600081815260018301602052604081205480156125935760006124ce6001836131e2565b85549091506000906124e2906001906131e2565b905081811461254757600086600001828154811061250257612502612ee3565b906000526020600020015490508087600001848154811061252557612525612ee3565b6000918252602080832090910192909255918252600188019052604090208390555b85548690806125585761255861322f565b6001900381819060005260206000200160009055905585600101600086815260200190815260200160002060009055600193505050506104f4565b60009150506104f4565b8280546125a990612e3b565b90600052602060002090601f0160209004810192826125cb5760008555612611565b82601f106125e457805160ff1916838001178555612611565b82800160010185558215612611579182015b828111156126115782518255916020019190600101906125f6565b5061261d929150612676565b5090565b828054828255906000526020600020908101928215612611579160200282015b8281111561261157825182546001600160a01b0319166001600160a01b03909116178255602090920191600190910190612641565b5b8082111561261d5760008155600101612677565b60006020828403121561269d57600080fd5b81356001600160e01b03198116811461062d57600080fd5b600081518084526020808501945080840160005b838110156126ee5781516001600160a01b0316875295820195908201906001016126c9565b509495945050505050565b60208152600061062d60208301846126b5565b60005b8381101561272757818101518382015260200161270f565b83811115610f885750506000910152565b6000815180845261275081602086016020860161270c565b601f01601f19169290920160200192915050565b60208152600061062d6020830184612738565b6001600160a01b038116811461082c57600080fd5b6000806040838503121561279f57600080fd5b82356127aa81612777565b946020939093013593505050565b6000806000606084860312156127cd57600080fd5b83356127d881612777565b925060208401356127e881612777565b929592945050506040919091013590565b60006020828403121561280b57600080fd5b5035919050565b6000806040838503121561282557600080fd5b82359150602083013561283781612777565b809150509250929050565b634e487b7160e01b600052604160045260246000fd5b604051601f8201601f1916810167ffffffffffffffff8111828210171561288157612881612842565b604052919050565b600067ffffffffffffffff8211156128a3576128a3612842565b5060051b60200190565b600082601f8301126128be57600080fd5b813560206128d36128ce83612889565b612858565b82815260059290921b840181019181810190868411156128f257600080fd5b8286015b8481101561291657803561290981612777565b83529183019183016128f6565b509695505050505050565b60006020828403121561293357600080fd5b813567ffffffffffffffff81111561294a57600080fd5b612956848285016128ad565b949350505050565b600081518084526020808501945080840160005b838110156126ee57815187529582019590820190600101612972565b60208152600061062d602083018461295e565b600082601f8301126129b257600080fd5b813567ffffffffffffffff8111156129cc576129cc612842565b6129df601f8201601f1916602001612858565b8181528460208386010111156129f457600080fd5b816020850160208301376000918101602001919091529392505050565b600080600080600060a08688031215612a2957600080fd5b8535612a3481612777565b94506020860135612a4481612777565b935060408601359250606086013567ffffffffffffffff80821115612a6857600080fd5b612a7489838a016129a1565b93506080880135915080821115612a8a57600080fd5b50612a97888289016129a1565b9150509295509295909350565b600082601f830112612ab557600080fd5b81356020612ac56128ce83612889565b82815260059290921b84018101918181019086841115612ae457600080fd5b8286015b848110156129165780358352918301918301612ae8565b600082601f830112612b1057600080fd5b81356020612b206128ce83612889565b82815260059290921b84018101918181019086841115612b3f57600080fd5b8286015b8481101561291657803567ffffffffffffffff811115612b635760008081fd5b612b718986838b01016129a1565b845250918301918301612b43565b600082601f830112612b9057600080fd5b81356020612ba06128ce83612889565b82815260059290921b84018101918181019086841115612bbf57600080fd5b8286015b848110156129165780358015158114612bdc5760008081fd5b8352918301918301612bc3565b600080600080600060a08688031215612c0157600080fd5b853567ffffffffffffffff80821115612c1957600080fd5b612c2589838a016128ad565b96506020880135915080821115612c3b57600080fd5b612c4789838a01612aa4565b95506040880135915080821115612c5d57600080fd5b612c6989838a01612aff565b94506060880135915080821115612c7f57600080fd5b612c8b89838a01612aff565b93506080880135915080821115612ca157600080fd5b50612a9788828901612b7f565b600060208284031215612cc057600080fd5b813561062d81612777565b60008060408385031215612cde57600080fd5b50508035926020909101359150565b600080600060608486031215612d0257600080fd5b8335612d0d81612777565b925060208401359150604084013567ffffffffffffffff811115612d3057600080fd5b612d3c868287016129a1565b9150509250925092565b60008060408385031215612d5957600080fd5b8235612d6481612777565b9150602083013561283781612777565b60008060008060808587031215612d8a57600080fd5b8435612d9581612777565b935060208501359250604085013567ffffffffffffffff80821115612db957600080fd5b612dc5888389016129a1565b93506060870135915080821115612ddb57600080fd5b50612de8878288016129a1565b91505092959194509250565b60008060408385031215612e0757600080fd5b82359150602083013567ffffffffffffffff811115612e2557600080fd5b612e31858286016129a1565b9150509250929050565b600181811c90821680612e4f57607f821691505b602082108103612e6f57634e487b7160e01b600052602260045260246000fd5b50919050565b60208082526010908201526f14185d5cd8589b194e881c185d5cd95960821b604082015260600190565b60208082526024908201527f4552433737373a207472616e7366657220746f20746865207a65726f206164646040820152637265737360e01b606082015260800190565b634e487b7160e01b600052603260045260246000fd5b634e487b7160e01b600052601160045260246000fd5b600060018201612f2157612f21612ef9565b5060010190565b6020808252602c908201527f4552433737373a2063616c6c6572206973206e6f7420616e206f70657261746f60408201526b39103337b9103437b63232b960a11b606082015260800190565b600081518084526020808501808196508360051b8101915082860160005b85811015612fbc578284038952612faa848351612738565b98850198935090840190600101612f92565b5091979650505050505050565b60a081526000612fdc60a08301886126b5565b602083820381850152612fef828961295e565b915083820360408501526130038288612f74565b915083820360608501526130178287612f74565b8481036080860152855180825282870193509082019060005b8181101561304e578451151583529383019391830191600101613030565b50909a9950505050505050505050565b60006020828403121561307057600080fd5b815161062d81612777565b6001600160a01b0387811682528681166020830152851660408201526060810184905260c0608082018190526000906130b690830185612738565b82810360a08401526130c88185612738565b9998505050505050505050565b600082198211156130e8576130e8612ef9565b500190565b8381526060602082015260006131066060830185612738565b82810360408401526131188185612738565b9695505050505050565b7f416363657373436f6e74726f6c3a206163636f756e742000000000000000000081526000835161315a81601785016020880161270c565b7001034b99036b4b9b9b4b733903937b6329607d1b601791840191820152835161318b81602884016020880161270c565b01602801949350505050565b6020808252602b908201527f496e697469616c697a61626c653a20636f6e7472616374206973206e6f74206960408201526a6e697469616c697a696e6760a81b606082015260800190565b6000828210156131f4576131f4612ef9565b500390565b600081600019048311821515161561321357613213612ef9565b500290565b60008161322757613227612ef9565b506000190190565b634e487b7160e01b600052603160045260246000fdfe4552433737375072657365745061757361626c655065726d697373696f6e656465d7a28e3265b37a6474929f336521b332c1681b933f6cb9f3376673440d862aa2646970667358221220f8f5b198e3472db919f04862f679fd363de43fa69e0347ccac30ce9199a4fda864736f6c634300080d0033",
  "linkReferences": {},
  "deployedLinkReferences": {}
}