{
  "_format": "hh-sol-artifact-1",
  "contractName": "NORI",
  "sourceName": "contracts/NORI.sol",
  "abi": [
    {
      "inputs": [],
      "stateMutability": "nonpayable",
      "type": "constructor"
    },
    {
      "anonymous": false,
      "inputs": [
        {
          "indexed": true,
          "internalType": "address",
          "name": "owner",
          "type": "address"
        },
        {
          "indexed": true,
          "internalType": "address",
          "name": "spender",
          "type": "address"
        },
        {
          "indexed": false,
          "internalType": "uint256",
          "name": "value",
          "type": "uint256"
        }
      ],
      "name": "Approval",
      "type": "event"
    },
    {
      "anonymous": false,
      "inputs": [
        {
          "indexed": false,
          "internalType": "uint8",
          "name": "version",
          "type": "uint8"
        }
      ],
      "name": "Initialized",
      "type": "event"
    },
    {
      "anonymous": false,
      "inputs": [
        {
          "indexed": false,
          "internalType": "address",
          "name": "account",
          "type": "address"
        }
      ],
      "name": "Paused",
      "type": "event"
    },
    {
      "anonymous": false,
      "inputs": [
        {
          "indexed": true,
          "internalType": "bytes32",
          "name": "role",
          "type": "bytes32"
        },
        {
          "indexed": true,
          "internalType": "bytes32",
          "name": "previousAdminRole",
          "type": "bytes32"
        },
        {
          "indexed": true,
          "internalType": "bytes32",
          "name": "newAdminRole",
          "type": "bytes32"
        }
      ],
      "name": "RoleAdminChanged",
      "type": "event"
    },
    {
      "anonymous": false,
      "inputs": [
        {
          "indexed": true,
          "internalType": "bytes32",
          "name": "role",
          "type": "bytes32"
        },
        {
          "indexed": true,
          "internalType": "address",
          "name": "account",
          "type": "address"
        },
        {
          "indexed": true,
          "internalType": "address",
          "name": "sender",
          "type": "address"
        }
      ],
      "name": "RoleGranted",
      "type": "event"
    },
    {
      "anonymous": false,
      "inputs": [
        {
          "indexed": true,
          "internalType": "bytes32",
          "name": "role",
          "type": "bytes32"
        },
        {
          "indexed": true,
          "internalType": "address",
          "name": "account",
          "type": "address"
        },
        {
          "indexed": true,
          "internalType": "address",
          "name": "sender",
          "type": "address"
        }
      ],
      "name": "RoleRevoked",
      "type": "event"
    },
    {
      "anonymous": false,
      "inputs": [
        {
          "indexed": true,
          "internalType": "address",
          "name": "from",
          "type": "address"
        },
        {
          "indexed": true,
          "internalType": "address",
          "name": "to",
          "type": "address"
        },
        {
          "indexed": false,
          "internalType": "uint256",
          "name": "value",
          "type": "uint256"
        }
      ],
      "name": "Transfer",
      "type": "event"
    },
    {
      "anonymous": false,
      "inputs": [
        {
          "indexed": false,
          "internalType": "address",
          "name": "account",
          "type": "address"
        }
      ],
      "name": "Unpaused",
      "type": "event"
    },
    {
      "inputs": [],
      "name": "DEFAULT_ADMIN_ROLE",
      "outputs": [
        {
          "internalType": "bytes32",
          "name": "",
          "type": "bytes32"
        }
      ],
      "stateMutability": "view",
      "type": "function"
    },
    {
      "inputs": [],
      "name": "DOMAIN_SEPARATOR",
      "outputs": [
        {
          "internalType": "bytes32",
          "name": "",
          "type": "bytes32"
        }
      ],
      "stateMutability": "view",
      "type": "function"
    },
    {
      "inputs": [],
      "name": "PAUSER_ROLE",
      "outputs": [
        {
          "internalType": "bytes32",
          "name": "",
          "type": "bytes32"
        }
      ],
      "stateMutability": "view",
      "type": "function"
    },
    {
      "inputs": [
        {
          "internalType": "address",
          "name": "owner",
          "type": "address"
        },
        {
          "internalType": "address",
          "name": "spender",
          "type": "address"
        }
      ],
      "name": "allowance",
      "outputs": [
        {
          "internalType": "uint256",
          "name": "",
          "type": "uint256"
        }
      ],
      "stateMutability": "view",
      "type": "function"
    },
    {
      "inputs": [
        {
          "internalType": "address",
          "name": "spender",
          "type": "address"
        },
        {
          "internalType": "uint256",
          "name": "amount",
          "type": "uint256"
        }
      ],
      "name": "approve",
      "outputs": [
        {
          "internalType": "bool",
          "name": "",
          "type": "bool"
        }
      ],
      "stateMutability": "nonpayable",
      "type": "function"
    },
    {
      "inputs": [
        {
          "internalType": "address",
          "name": "account",
          "type": "address"
        }
      ],
      "name": "balanceOf",
      "outputs": [
        {
          "internalType": "uint256",
          "name": "",
          "type": "uint256"
        }
      ],
      "stateMutability": "view",
      "type": "function"
    },
    {
      "inputs": [
        {
          "internalType": "uint256",
          "name": "amount",
          "type": "uint256"
        }
      ],
      "name": "burn",
      "outputs": [],
      "stateMutability": "nonpayable",
      "type": "function"
    },
    {
      "inputs": [
        {
          "internalType": "address",
          "name": "account",
          "type": "address"
        },
        {
          "internalType": "uint256",
          "name": "amount",
          "type": "uint256"
        }
      ],
      "name": "burnFrom",
      "outputs": [],
      "stateMutability": "nonpayable",
      "type": "function"
    },
    {
      "inputs": [],
      "name": "decimals",
      "outputs": [
        {
          "internalType": "uint8",
          "name": "",
          "type": "uint8"
        }
      ],
      "stateMutability": "view",
      "type": "function"
    },
    {
      "inputs": [
        {
          "internalType": "address",
          "name": "spender",
          "type": "address"
        },
        {
          "internalType": "uint256",
          "name": "subtractedValue",
          "type": "uint256"
        }
      ],
      "name": "decreaseAllowance",
      "outputs": [
        {
          "internalType": "bool",
          "name": "",
          "type": "bool"
        }
      ],
      "stateMutability": "nonpayable",
      "type": "function"
    },
    {
      "inputs": [
        {
          "internalType": "bytes32",
          "name": "role",
          "type": "bytes32"
        }
      ],
      "name": "getRoleAdmin",
      "outputs": [
        {
          "internalType": "bytes32",
          "name": "",
          "type": "bytes32"
        }
      ],
      "stateMutability": "view",
      "type": "function"
    },
    {
      "inputs": [
        {
          "internalType": "bytes32",
          "name": "role",
          "type": "bytes32"
        },
        {
          "internalType": "uint256",
          "name": "index",
          "type": "uint256"
        }
      ],
      "name": "getRoleMember",
      "outputs": [
        {
          "internalType": "address",
          "name": "",
          "type": "address"
        }
      ],
      "stateMutability": "view",
      "type": "function"
    },
    {
      "inputs": [
        {
          "internalType": "bytes32",
          "name": "role",
          "type": "bytes32"
        }
      ],
      "name": "getRoleMemberCount",
      "outputs": [
        {
          "internalType": "uint256",
          "name": "",
          "type": "uint256"
        }
      ],
      "stateMutability": "view",
      "type": "function"
    },
    {
      "inputs": [
        {
          "internalType": "bytes32",
          "name": "role",
          "type": "bytes32"
        },
        {
          "internalType": "address",
          "name": "account",
          "type": "address"
        }
      ],
      "name": "grantRole",
      "outputs": [],
      "stateMutability": "nonpayable",
      "type": "function"
    },
    {
      "inputs": [
        {
          "internalType": "bytes32",
          "name": "role",
          "type": "bytes32"
        },
        {
          "internalType": "address",
          "name": "account",
          "type": "address"
        }
      ],
      "name": "hasRole",
      "outputs": [
        {
          "internalType": "bool",
          "name": "",
          "type": "bool"
        }
      ],
      "stateMutability": "view",
      "type": "function"
    },
    {
      "inputs": [
        {
          "internalType": "address",
          "name": "spender",
          "type": "address"
        },
        {
          "internalType": "uint256",
          "name": "addedValue",
          "type": "uint256"
        }
      ],
      "name": "increaseAllowance",
      "outputs": [
        {
          "internalType": "bool",
          "name": "",
          "type": "bool"
        }
      ],
      "stateMutability": "nonpayable",
      "type": "function"
    },
    {
      "inputs": [],
      "name": "initialize",
      "outputs": [],
      "stateMutability": "nonpayable",
      "type": "function"
    },
    {
      "inputs": [
        {
          "internalType": "bytes[]",
          "name": "data",
          "type": "bytes[]"
        }
      ],
      "name": "multicall",
      "outputs": [
        {
          "internalType": "bytes[]",
          "name": "results",
          "type": "bytes[]"
        }
      ],
      "stateMutability": "nonpayable",
      "type": "function"
    },
    {
      "inputs": [],
      "name": "name",
      "outputs": [
        {
          "internalType": "string",
          "name": "",
          "type": "string"
        }
      ],
      "stateMutability": "view",
      "type": "function"
    },
    {
      "inputs": [
        {
          "internalType": "address",
          "name": "owner",
          "type": "address"
        }
      ],
      "name": "nonces",
      "outputs": [
        {
          "internalType": "uint256",
          "name": "",
          "type": "uint256"
        }
      ],
      "stateMutability": "view",
      "type": "function"
    },
    {
      "inputs": [],
      "name": "pause",
      "outputs": [],
      "stateMutability": "nonpayable",
      "type": "function"
    },
    {
      "inputs": [],
      "name": "paused",
      "outputs": [
        {
          "internalType": "bool",
          "name": "",
          "type": "bool"
        }
      ],
      "stateMutability": "view",
      "type": "function"
    },
    {
      "inputs": [
        {
          "internalType": "address",
          "name": "owner",
          "type": "address"
        },
        {
          "internalType": "address",
          "name": "spender",
          "type": "address"
        },
        {
          "internalType": "uint256",
          "name": "value",
          "type": "uint256"
        },
        {
          "internalType": "uint256",
          "name": "deadline",
          "type": "uint256"
        },
        {
          "internalType": "uint8",
          "name": "v",
          "type": "uint8"
        },
        {
          "internalType": "bytes32",
          "name": "r",
          "type": "bytes32"
        },
        {
          "internalType": "bytes32",
          "name": "s",
          "type": "bytes32"
        }
      ],
      "name": "permit",
      "outputs": [],
      "stateMutability": "nonpayable",
      "type": "function"
    },
    {
      "inputs": [
        {
          "internalType": "bytes32",
          "name": "role",
          "type": "bytes32"
        },
        {
          "internalType": "address",
          "name": "account",
          "type": "address"
        }
      ],
      "name": "renounceRole",
      "outputs": [],
      "stateMutability": "nonpayable",
      "type": "function"
    },
    {
      "inputs": [
        {
          "internalType": "bytes32",
          "name": "role",
          "type": "bytes32"
        },
        {
          "internalType": "address",
          "name": "account",
          "type": "address"
        }
      ],
      "name": "revokeRole",
      "outputs": [],
      "stateMutability": "nonpayable",
      "type": "function"
    },
    {
      "inputs": [
        {
          "internalType": "bytes4",
          "name": "interfaceId",
          "type": "bytes4"
        }
      ],
      "name": "supportsInterface",
      "outputs": [
        {
          "internalType": "bool",
          "name": "",
          "type": "bool"
        }
      ],
      "stateMutability": "view",
      "type": "function"
    },
    {
      "inputs": [],
      "name": "symbol",
      "outputs": [
        {
          "internalType": "string",
          "name": "",
          "type": "string"
        }
      ],
      "stateMutability": "view",
      "type": "function"
    },
    {
      "inputs": [],
      "name": "totalSupply",
      "outputs": [
        {
          "internalType": "uint256",
          "name": "",
          "type": "uint256"
        }
      ],
      "stateMutability": "view",
      "type": "function"
    },
    {
      "inputs": [
        {
          "internalType": "address",
          "name": "to",
          "type": "address"
        },
        {
          "internalType": "uint256",
          "name": "amount",
          "type": "uint256"
        }
      ],
      "name": "transfer",
      "outputs": [
        {
          "internalType": "bool",
          "name": "",
          "type": "bool"
        }
      ],
      "stateMutability": "nonpayable",
      "type": "function"
    },
    {
      "inputs": [
        {
          "internalType": "address",
          "name": "from",
          "type": "address"
        },
        {
          "internalType": "address",
          "name": "to",
          "type": "address"
        },
        {
          "internalType": "uint256",
          "name": "amount",
          "type": "uint256"
        }
      ],
      "name": "transferFrom",
      "outputs": [
        {
          "internalType": "bool",
          "name": "",
          "type": "bool"
        }
      ],
      "stateMutability": "nonpayable",
      "type": "function"
    },
    {
      "inputs": [],
      "name": "unpause",
      "outputs": [],
      "stateMutability": "nonpayable",
      "type": "function"
    }
  ],
  "bytecode": "0x60806040523480156200001157600080fd5b50620000467f9595d479ef18f3a83129aa5f055bf474208a4502bd0e6e3b078495170274597e60001b620000c460201b60201c565b6200007a7ff89c0529538c242de4577c19fe639a6ffbcd224f5919714c0e628a55121381a860001b620000c460201b60201c565b620000ae7f4037e7f0d9f23f397c30aa38d3f93a3687e8bc879ddb92f17b0ac5f36986704a60001b620000c460201b60201c565b620000be620000c760201b60201c565b620002ae565b50565b620000d960ff620000dc60201b60201c565b50565b60008060019054906101000a900460ff1615620001665760018260ff161480156200011a57506200011830620001e260201b620016941760201c565b155b6200015c576040517f08c379a000000000000000000000000000000000000000000000000000000000815260040162000153906200028c565b60405180910390fd5b60009050620001dd565b8160ff1660008054906101000a900460ff1660ff1610620001be576040517f08c379a0000000000000000000000000000000000000000000000000000000008152600401620001b5906200028c565b60405180910390fd5b816000806101000a81548160ff021916908360ff160217905550600190505b919050565b6000808273ffffffffffffffffffffffffffffffffffffffff163b119050919050565b600082825260208201905092915050565b7f496e697469616c697a61626c653a20636f6e747261637420697320616c72656160008201527f647920696e697469616c697a6564000000000000000000000000000000000000602082015250565b600062000274602e8362000205565b9150620002818262000216565b604082019050919050565b60006020820190508181036000830152620002a78162000265565b9050919050565b6155b980620002be6000396000f3fe608060405234801561001057600080fd5b50600436106101e55760003560e01c806379cc67901161010f578063a457c2d7116100a2578063d505accf11610071578063d505accf146105ba578063d547741f146105d6578063dd62ed3e146105f2578063e63ab1e914610622576101e5565b8063a457c2d7146104fa578063a9059cbb1461052a578063ac9650d81461055a578063ca15c8731461058a576101e5565b80639010d07c116100de5780639010d07c1461045e57806391d148541461048e57806395d89b41146104be578063a217fddf146104dc576101e5565b806379cc6790146103fe5780637ecebe001461041a5780638129fc1c1461044a5780638456cb5914610454576101e5565b8063313ce567116101875780633f4ba83a116101565780633f4ba83a1461038a57806342966c68146103945780635c975abb146103b057806370a08231146103ce576101e5565b8063313ce567146103025780633644e5151461032057806336568abe1461033e578063395093511461035a576101e5565b806318160ddd116101c357806318160ddd1461026857806323b872dd14610286578063248a9ca3146102b65780632f2ff15d146102e6576101e5565b806301ffc9a7146101ea57806306fdde031461021a578063095ea7b314610238575b600080fd5b61020460048036038101906101ff9190613802565b610640565b604051610211919061384a565b60405180910390f35b6102226106ba565b60405161022f91906138fe565b60405180910390f35b610252600480360381019061024d91906139b4565b61074c565b60405161025f919061384a565b60405180910390f35b61027061076f565b60405161027d9190613a03565b60405180910390f35b6102a0600480360381019061029b9190613a1e565b610779565b6040516102ad919061384a565b60405180910390f35b6102d060048036038101906102cb9190613aa7565b6107a8565b6040516102dd9190613ae3565b60405180910390f35b61030060048036038101906102fb9190613afe565b6107c9565b005b61030a6107ea565b6040516103179190613b5a565b60405180910390f35b6103286107f3565b6040516103359190613ae3565b60405180910390f35b61035860048036038101906103539190613afe565b610802565b005b610374600480360381019061036f91906139b4565b610885565b604051610381919061384a565b60405180910390f35b6103926108bc565b005b6103ae60048036038101906103a99190613b75565b610975565b005b6103b8610989565b6040516103c5919061384a565b60405180910390f35b6103e860048036038101906103e39190613ba2565b6109a0565b6040516103f59190613a03565b60405180910390f35b610418600480360381019061041391906139b4565b6109e9565b005b610434600480360381019061042f9190613ba2565b610a09565b6040516104419190613a03565b60405180910390f35b610452610a59565b005b61045c6110cd565b005b61047860048036038101906104739190613bcf565b611186565b6040516104859190613c1e565b60405180910390f35b6104a860048036038101906104a39190613afe565b6111b6565b6040516104b5919061384a565b60405180910390f35b6104c6611222565b6040516104d391906138fe565b60405180910390f35b6104e46112b4565b6040516104f19190613ae3565b60405180910390f35b610514600480360381019061050f91906139b4565b6112bb565b604051610521919061384a565b60405180910390f35b610544600480360381019061053f91906139b4565b611332565b604051610551919061384a565b60405180910390f35b610574600480360381019061056f9190613c9e565b611355565b6040516105819190613e02565b60405180910390f35b6105a4600480360381019061059f9190613aa7565b611461565b6040516105b19190613a03565b60405180910390f35b6105d460048036038101906105cf9190613e50565b611486565b005b6105f060048036038101906105eb9190613afe565b6115c8565b005b61060c60048036038101906106079190613ef2565b6115e9565b6040516106199190613a03565b60405180910390f35b61062a611670565b6040516106379190613ae3565b60405180910390f35b60007f5a05180f000000000000000000000000000000000000000000000000000000007bffffffffffffffffffffffffffffffffffffffffffffffffffffffff1916827bffffffffffffffffffffffffffffffffffffffffffffffffffffffff191614806106b357506106b2826116b7565b5b9050919050565b6060603680546106c990613f61565b80601f01602080910402602001604051908101604052809291908181526020018280546106f590613f61565b80156107425780601f1061071757610100808354040283529160200191610742565b820191906000526020600020905b81548152906001019060200180831161072557829003601f168201915b5050505050905090565b600080610757611731565b9050610764818585611739565b600191505092915050565b6000603554905090565b600080610784611731565b9050610791858285611815565b61079c8585856118a1565b60019150509392505050565b60006101626000838152602001908152602001600020600101549050919050565b6107d2826107a8565b6107db81611b23565b6107e58383611b37565b505050565b60006012905090565b60006107fd611c11565b905090565b61080a611731565b73ffffffffffffffffffffffffffffffffffffffff168173ffffffffffffffffffffffffffffffffffffffff1614610877576040517f08c379a000000000000000000000000000000000000000000000000000000000815260040161086e90614004565b60405180910390fd5b6108818282611c51565b5050565b600080610890611731565b90506108b18185856108a285896115e9565b6108ac9190614053565b611739565b600191505092915050565b7f65d7a28e3265b37a6474929f336521b332c1681b933f6cb9f3376673440d862a6108e681611b23565b6109127f3328b0713551cad69330ebb98462c0d86185047402b6d1f59c94f456508eeb5760001b611d2b565b61093e7f64078ba582583ffb6aaa45ac41e18a682d2f7c396043bc15e90cabb21b420a2960001b611d2b565b61096a7f23c130f961a7efafb23358f01edf690a31675dede172a60d2762f63eadb7ea7d60001b611d2b565b610972611d2e565b50565b610986610980611731565b82611dd0565b50565b600060fe60009054906101000a900460ff16905090565b6000603360008373ffffffffffffffffffffffffffffffffffffffff1673ffffffffffffffffffffffffffffffffffffffff168152602001908152602001600020549050919050565b6109fb826109f5611731565b83611815565b610a058282611dd0565b5050565b6000610a5260cb60008473ffffffffffffffffffffffffffffffffffffffff1673ffffffffffffffffffffffffffffffffffffffff168152602001908152602001600020611fa8565b9050919050565b6000610a656001611fb6565b90508015610a89576001600060016101000a81548160ff0219169083151502179055505b610ab57fdd9e3f26d06fa67484db41d9ec2caf9598eb2d2aee924f710490136463f2485c60001b6120a6565b610ae17f78b3a1c093223f54ccfa8556e90a4c3dc50c798dd8a39c34269c90d08ace89d760001b6120a6565b610b0d7f37a5a3094c526a1c66a5dd93a61ebc4f7acc7cdd01bd8812a6bedcc321e67cc260001b6120a6565b610b156120a9565b610b417ff371cc90ea510d48dd4e8bcffb40c6c4949461a3f71ae5f35d9658741e91e04360001b6120a6565b610b6d7f31c26a8ce7af4b2d8e82c83b8237ff88afdc5392247feb3366bd5ef615f8c8dc60001b6120a6565b610b756120fa565b610ba17f2a8896bf79d3f2ac3402eb15a9f5bacc18bd5a086854efe8c8ca16c7d513117360001b6120a6565b610bcd7f088280c5d5dc38f09b584ee8c181f8399edad85ae123ef7e957c8011330f071860001b6120a6565b610bd561214b565b610c017fceb8a22552a3c1870ff46ab97ec779e1414cbe6e67836502a00ea1c9b4e7dcff60001b6120a6565b610c2d7fc814dea216c05ec48aa07f05d2060e327736fcc13c9e5f7a03dbd11562d978d460001b6120a6565b610c3561219c565b610c617fbb70a1b83eb2edae23cc59a02111ef7f0cc4a0b899f1dcbbb6b55621b3bf24a460001b6120a6565b610c8d7f9052867d13e79cfaffe2f91829154d6d3978a49c02f04d68714358fd31cc1fb660001b6120a6565b610c956121ed565b610cc17fa5e6b2316804a1195534a3873d60e1c3c53c01624c31fedc5e032f16bad1d73360001b6120a6565b610ced7f394bf292eacff0a2dd875155ef1ed38c52c3b61ca964d2b398e627addb0b11d160001b6120a6565b610d616040518060400160405280600481526020017f4e4f5249000000000000000000000000000000000000000000000000000000008152506040518060400160405280600181526020017f3100000000000000000000000000000000000000000000000000000000000000815250612259565b610d8d7f6da2bc76b1525e16945e52403b6a4c49f1b3200afc05ad79c1556359440ac12460001b6120a6565b610db97f1bb95dd6611d3c4e80e288af42489a60377628d27abb7dffaf33e8c542695c4660001b6120a6565b610e2d6040518060400160405280600481526020017f4e4f5249000000000000000000000000000000000000000000000000000000008152506040518060400160405280600481526020017f4e4f5249000000000000000000000000000000000000000000000000000000008152506122d4565b610e597f65d86b1b7a6b267d6ccf87a627b5daf51533de768878d244e2e6c55d3ad7b8a060001b6120a6565b610e857fd86c03dbead10c1d523653f511e21ca2bb0f7731f587c2e5f6f419ef5521445f60001b6120a6565b610ec36040518060400160405280600481526020017f4e4f524900000000000000000000000000000000000000000000000000000000815250612347565b610eef7fdbf6b671b144a49d8f1448fc8120840918395ab11dfb86c980c01618b251803860001b6120a6565b610f1b7fb653363e590ad60ff5b98cd759cf31384858cc29483a531307367ee1a519706a60001b6120a6565b610f23612399565b610f4f7f0d4ff4b539951ad7851409e8d0578d59282865133fedf2f2e1ab3ef6f8bbbb0060001b6120a6565b610f7b7fcccf57a1e9e6850c1b3f7f2adebbd63e4201ecb1e9c096105c1bc358b29ccd8660001b6120a6565b610f836123ea565b610faf7fb6c1b266019fa362fa67e6a4110b2e667036b3c26308df8966b10fb89d4e80ae60001b6120a6565b610fdb7f56697182f09c285eeb9056f62d4625b3344c8cd138bce9050c530e7f0125fa9e60001b6120a6565b610fe361255c565b61100f7ff014b43ba1a400f94c363fd1b6a4ee3f843091d1b2d385cb12d2e86d783c273c60001b6120a6565b61103b7f1fd293c0eb2ab71ede5dbf7e429c7cf9234812a7ddb0824a5996a5ae3ddc5fe960001b6120a6565b611071611046611731565b61104e6107ea565b60ff16600a61105d91906141dc565b631dcd650061106c9190614227565b6125ad565b80156110ca5760008060016101000a81548160ff0219169083151502179055507f7f26b83ff96e1f2b6a682f133852f6798a09c465da95921460cefb384740249860016040516110c191906142c6565b60405180910390a15b50565b7f65d7a28e3265b37a6474929f336521b332c1681b933f6cb9f3376673440d862a6110f781611b23565b6111237fad7b53336181bcd3f752dedb959e5857b65a95e1493ad8870389dbadaabc0c3760001b611d2b565b61114f7f81dd80bf3e69f5e4c8464e2c364cd14f0020e7d786056a88ba3fded736bbf44e60001b611d2b565b61117b7fdcfe41c7aa779b3b2b8fab6a00b18fedd18e6e7a1a209b3b8641ae7366ef860d60001b611d2b565b61118361270d565b50565b60006111ae8261019460008681526020019081526020016000206127b090919063ffffffff16565b905092915050565b6000610162600084815260200190815260200160002060000160008373ffffffffffffffffffffffffffffffffffffffff1673ffffffffffffffffffffffffffffffffffffffff16815260200190815260200160002060009054906101000a900460ff16905092915050565b60606037805461123190613f61565b80601f016020809104026020016040519081016040528092919081815260200182805461125d90613f61565b80156112aa5780601f1061127f576101008083540402835291602001916112aa565b820191906000526020600020905b81548152906001019060200180831161128d57829003601f168201915b5050505050905090565b6000801b81565b6000806112c6611731565b905060006112d482866115e9565b905083811015611319576040517f08c379a000000000000000000000000000000000000000000000000000000000815260040161131090614353565b60405180910390fd5b6113268286868403611739565b60019250505092915050565b60008061133d611731565b905061134a8185856118a1565b600191505092915050565b60608282905067ffffffffffffffff81111561137457611373614373565b5b6040519080825280602002602001820160405280156113a757816020015b60608152602001906001900390816113925790505b50905060005b8383905081101561145a57611429308585848181106113cf576113ce6143a2565b5b90506020028101906113e191906143e0565b8080601f016020809104026020016040519081016040528093929190818152602001838380828437600081840152601f19601f820116905080830192505050505050506127ca565b82828151811061143c5761143b6143a2565b5b6020026020010181905250808061145290614443565b9150506113ad565b5092915050565b600061147f61019460008481526020019081526020016000206128ae565b9050919050565b834211156114c9576040517f08c379a00000000000000000000000000000000000000000000000000000000081526004016114c0906144d7565b60405180910390fd5b60007f6e71edae12b1b97f4d1f60370fef10105fa2faae0126114a169c64845d6126c98888886114f88c6128c3565b8960405160200161150e969594939291906144f7565b604051602081830303815290604052805190602001209050600061153182612921565b905060006115418287878761293b565b90508973ffffffffffffffffffffffffffffffffffffffff168173ffffffffffffffffffffffffffffffffffffffff16146115b1576040517f08c379a00000000000000000000000000000000000000000000000000000000081526004016115a8906145a4565b60405180910390fd5b6115bc8a8a8a611739565b50505050505050505050565b6115d1826107a8565b6115da81611b23565b6115e48383611c51565b505050565b6000603460008473ffffffffffffffffffffffffffffffffffffffff1673ffffffffffffffffffffffffffffffffffffffff16815260200190815260200160002060008373ffffffffffffffffffffffffffffffffffffffff1673ffffffffffffffffffffffffffffffffffffffff16815260200190815260200160002054905092915050565b7f65d7a28e3265b37a6474929f336521b332c1681b933f6cb9f3376673440d862a81565b6000808273ffffffffffffffffffffffffffffffffffffffff163b119050919050565b60007f7965db0b000000000000000000000000000000000000000000000000000000007bffffffffffffffffffffffffffffffffffffffffffffffffffffffff1916827bffffffffffffffffffffffffffffffffffffffffffffffffffffffff1916148061172a575061172982612966565b5b9050919050565b600033905090565b611741610989565b15611781576040517f08c379a000000000000000000000000000000000000000000000000000000000815260040161177890614610565b60405180910390fd5b6117ad7f89b6b93ad767bb42654ba2bc90904bd89e6fcc0514b5f34f9baaf015828a019360001b611d2b565b6117d97f40d3ba4aa4389657b80edff3d241636a8bbc336b7850812dff80dbb0595a454f60001b611d2b565b6118057fe71834691e1d50153d406d600635c7973881a044eac231d8a3df66a30984123460001b611d2b565b6118108383836129d0565b505050565b600061182184846115e9565b90507fffffffffffffffffffffffffffffffffffffffffffffffffffffffffffffffff811461189b578181101561188d576040517f08c379a00000000000000000000000000000000000000000000000000000000081526004016118849061467c565b60405180910390fd5b61189a8484848403611739565b5b50505050565b600073ffffffffffffffffffffffffffffffffffffffff168373ffffffffffffffffffffffffffffffffffffffff1603611910576040517f08c379a00000000000000000000000000000000000000000000000000000000081526004016119079061470e565b60405180910390fd5b600073ffffffffffffffffffffffffffffffffffffffff168273ffffffffffffffffffffffffffffffffffffffff160361197f576040517f08c379a0000000000000000000000000000000000000000000000000000000008152600401611976906147a0565b60405180910390fd5b61198a838383612b99565b6000603360008573ffffffffffffffffffffffffffffffffffffffff1673ffffffffffffffffffffffffffffffffffffffff16815260200190815260200160002054905081811015611a11576040517f08c379a0000000000000000000000000000000000000000000000000000000008152600401611a0890614832565b60405180910390fd5b818103603360008673ffffffffffffffffffffffffffffffffffffffff1673ffffffffffffffffffffffffffffffffffffffff1681526020019081526020016000208190555081603360008573ffffffffffffffffffffffffffffffffffffffff1673ffffffffffffffffffffffffffffffffffffffff1681526020019081526020016000206000828254611aa69190614053565b925050819055508273ffffffffffffffffffffffffffffffffffffffff168473ffffffffffffffffffffffffffffffffffffffff167fddf252ad1be2c89b69c2b068fc378daa952ba7f163c4a11628f55a4df523b3ef84604051611b0a9190613a03565b60405180910390a3611b1d848484612c75565b50505050565b611b3481611b2f611731565b612c7a565b50565b611b3f610989565b15611b7f576040517f08c379a0000000000000000000000000000000000000000000000000000000008152600401611b7690614610565b60405180910390fd5b611bab7f776ca70aa6e83426597bf39523bfb167b4e595d06681838c28cfe17340e6579c60001b611d2b565b611bd77fe84f940d8309b36f42a0abcbb55515a9b0681a3aadc207ee0c436265d050143660001b611d2b565b611c037fef991d044cc2da19b62776ef0423576c80b8a58f8a855da2636ee56885c24ec760001b611d2b565b611c0d8282612d17565b5050565b6000611c4c7f8b73c3c69bb8fe3d512ecc4cf759cc79239f7b179b0ffacaa9a75d522b39400f611c3f612d4c565b611c47612d56565b612d60565b905090565b611c59610989565b15611c99576040517f08c379a0000000000000000000000000000000000000000000000000000000008152600401611c9090614610565b60405180910390fd5b611cc57f3e91ebef449dbdc581d2334742c298f68a8035dca7b3db09911f92647a38a0a060001b611d2b565b611cf17fd91feeb482a83425f9478e103fd6a20224dfd819a94a5164ef0868f3eb787c3a60001b611d2b565b611d1d7fc53cd01eac6277d1c85304c955956e88f5aeae3a0ead1953eb8c1bb26469e97f60001b611d2b565b611d278282612d9a565b5050565b50565b611d36610989565b611d75576040517f08c379a0000000000000000000000000000000000000000000000000000000008152600401611d6c9061489e565b60405180910390fd5b600060fe60006101000a81548160ff0219169083151502179055507f5db9ee0a495bf2e6ff9c91a7834c1ba4fdd244a5e8aa4e537bd38aeae4b073aa611db9611731565b604051611dc69190613c1e565b60405180910390a1565b600073ffffffffffffffffffffffffffffffffffffffff168273ffffffffffffffffffffffffffffffffffffffff1603611e3f576040517f08c379a0000000000000000000000000000000000000000000000000000000008152600401611e3690614930565b60405180910390fd5b611e4b82600083612b99565b6000603360008473ffffffffffffffffffffffffffffffffffffffff1673ffffffffffffffffffffffffffffffffffffffff16815260200190815260200160002054905081811015611ed2576040517f08c379a0000000000000000000000000000000000000000000000000000000008152600401611ec9906149c2565b60405180910390fd5b818103603360008573ffffffffffffffffffffffffffffffffffffffff1673ffffffffffffffffffffffffffffffffffffffff168152602001908152602001600020819055508160356000828254611f2a91906149e2565b92505081905550600073ffffffffffffffffffffffffffffffffffffffff168373ffffffffffffffffffffffffffffffffffffffff167fddf252ad1be2c89b69c2b068fc378daa952ba7f163c4a11628f55a4df523b3ef84604051611f8f9190613a03565b60405180910390a3611fa383600084612c75565b505050565b600081600001549050919050565b60008060019054906101000a900460ff161561202d5760018260ff16148015611fe55750611fe330611694565b155b612024576040517f08c379a000000000000000000000000000000000000000000000000000000000815260040161201b90614a88565b60405180910390fd5b600090506120a1565b8160ff1660008054906101000a900460ff1660ff1610612082576040517f08c379a000000000000000000000000000000000000000000000000000000000815260040161207990614a88565b60405180910390fd5b816000806101000a81548160ff021916908360ff160217905550600190505b919050565b50565b600060019054906101000a900460ff166120f8576040517f08c379a00000000000000000000000000000000000000000000000000000000081526004016120ef90614b1a565b60405180910390fd5b565b600060019054906101000a900460ff16612149576040517f08c379a000000000000000000000000000000000000000000000000000000000815260040161214090614b1a565b60405180910390fd5b565b600060019054906101000a900460ff1661219a576040517f08c379a000000000000000000000000000000000000000000000000000000000815260040161219190614b1a565b60405180910390fd5b565b600060019054906101000a900460ff166121eb576040517f08c379a00000000000000000000000000000000000000000000000000000000081526004016121e290614b1a565b60405180910390fd5b565b600060019054906101000a900460ff1661223c576040517f08c379a000000000000000000000000000000000000000000000000000000000815260040161223390614b1a565b60405180910390fd5b600060fe60006101000a81548160ff021916908315150217905550565b600060019054906101000a900460ff166122a8576040517f08c379a000000000000000000000000000000000000000000000000000000000815260040161229f90614b1a565b60405180910390fd5b600082805190602001209050600082805190602001209050816097819055508060988190555050505050565b600060019054906101000a900460ff16612323576040517f08c379a000000000000000000000000000000000000000000000000000000000815260040161231a90614b1a565b60405180910390fd5b81603690816123329190614cdc565b5080603790816123429190614cdc565b505050565b600060019054906101000a900460ff16612396576040517f08c379a000000000000000000000000000000000000000000000000000000000815260040161238d90614b1a565b60405180910390fd5b50565b600060019054906101000a900460ff166123e8576040517f08c379a00000000000000000000000000000000000000000000000000000000081526004016123df90614b1a565b60405180910390fd5b565b600060019054906101000a900460ff16612439576040517f08c379a000000000000000000000000000000000000000000000000000000000815260040161243090614b1a565b60405180910390fd5b6124657fb5658beb4d5a71855921ec86ac14e0caf318f7c137f67d55930e147e972c0bc360001b611d2b565b6124917f8badea74ca518dfe857e4d1f9a021b993264ba2a5f3c25b8b96afdc605e27fc660001b611d2b565b6124bd7f62db23f536695ee3a87242d8e346265ef36145ac9ef1c1f73b7e2314f8334dbb60001b611d2b565b6124d16000801b6124cc611731565b611b37565b6124fd7f14fd75ef222e3bacea4e1e74cd968620c5cd7b67b5d7f8a0333b8cebfa85abf160001b611d2b565b6125297f117366cc647021d70df9e6113a393dd748f5f2c936c3ba065b0bde13758ee4b560001b611d2b565b61255a7f65d7a28e3265b37a6474929f336521b332c1681b933f6cb9f3376673440d862a612555611731565b611b37565b565b600060019054906101000a900460ff166125ab576040517f08c379a00000000000000000000000000000000000000000000000000000000081526004016125a290614b1a565b60405180910390fd5b565b600073ffffffffffffffffffffffffffffffffffffffff168273ffffffffffffffffffffffffffffffffffffffff160361261c576040517f08c379a000000000000000000000000000000000000000000000000000000000815260040161261390614dfa565b60405180910390fd5b61262860008383612b99565b806035600082825461263a9190614053565b9250508190555080603360008473ffffffffffffffffffffffffffffffffffffffff1673ffffffffffffffffffffffffffffffffffffffff16815260200190815260200160002060008282546126909190614053565b925050819055508173ffffffffffffffffffffffffffffffffffffffff16600073ffffffffffffffffffffffffffffffffffffffff167fddf252ad1be2c89b69c2b068fc378daa952ba7f163c4a11628f55a4df523b3ef836040516126f59190613a03565b60405180910390a361270960008383612c75565b5050565b612715610989565b15612755576040517f08c379a000000000000000000000000000000000000000000000000000000000815260040161274c90614610565b60405180910390fd5b600160fe60006101000a81548160ff0219169083151502179055507f62e78cea01bee320cd4e420270b5ea74000d11b0c9f74754ebdbfc544b05a258612799611731565b6040516127a69190613c1e565b60405180910390a1565b60006127bf8360000183612dcf565b60001c905092915050565b60606127d583611694565b612814576040517f08c379a000000000000000000000000000000000000000000000000000000000815260040161280b90614e8c565b60405180910390fd5b6000808473ffffffffffffffffffffffffffffffffffffffff168460405161283c9190614ee8565b600060405180830381855af49150503d8060008114612877576040519150601f19603f3d011682016040523d82523d6000602084013e61287c565b606091505b50915091506128a4828260405180606001604052806027815260200161555d60279139612dfa565b9250505092915050565b60006128bc82600001612e61565b9050919050565b60008060cb60008473ffffffffffffffffffffffffffffffffffffffff1673ffffffffffffffffffffffffffffffffffffffff168152602001908152602001600020905061291081611fa8565b915061291b81612e72565b50919050565b600061293461292e611c11565b83612e88565b9050919050565b600080600061294c87878787612ebb565b9150915061295981612fc7565b8192505050949350505050565b60007f01ffc9a7000000000000000000000000000000000000000000000000000000007bffffffffffffffffffffffffffffffffffffffffffffffffffffffff1916827bffffffffffffffffffffffffffffffffffffffffffffffffffffffff1916149050919050565b600073ffffffffffffffffffffffffffffffffffffffff168373ffffffffffffffffffffffffffffffffffffffff1603612a3f576040517f08c379a0000000000000000000000000000000000000000000000000000000008152600401612a3690614f71565b60405180910390fd5b600073ffffffffffffffffffffffffffffffffffffffff168273ffffffffffffffffffffffffffffffffffffffff1603612aae576040517f08c379a0000000000000000000000000000000000000000000000000000000008152600401612aa590615003565b60405180910390fd5b80603460008573ffffffffffffffffffffffffffffffffffffffff1673ffffffffffffffffffffffffffffffffffffffff16815260200190815260200160002060008473ffffffffffffffffffffffffffffffffffffffff1673ffffffffffffffffffffffffffffffffffffffff168152602001908152602001600020819055508173ffffffffffffffffffffffffffffffffffffffff168373ffffffffffffffffffffffffffffffffffffffff167f8c5be1e5ebec7d5bd14f71427d1e84f3dd0314c0f7b2291e5b200ac8c7c3b92583604051612b8c9190613a03565b60405180910390a3505050565b612ba1610989565b15612be1576040517f08c379a0000000000000000000000000000000000000000000000000000000008152600401612bd890614610565b60405180910390fd5b612c0d7ff55f43bc381618909230eb7fbd6ea0c44b78264d86dc5c904e69988488fb64a560001b611d2b565b612c397f8e101565a50eeb3ad993ebc40c18b7def81731827dae862be2fc8e4ecf2b0c7660001b611d2b565b612c657fe764beb51ef08624e0b851a78f543a64545bf8b6075662c8752c3e08cf674e8860001b611d2b565b612c70838383613193565b505050565b505050565b612c8482826111b6565b612d1357612ca98173ffffffffffffffffffffffffffffffffffffffff166014613198565b612cb78360001c6020613198565b604051602001612cc89291906150f7565b6040516020818303038152906040526040517f08c379a0000000000000000000000000000000000000000000000000000000008152600401612d0a91906138fe565b60405180910390fd5b5050565b612d2182826133d4565b612d478161019460008581526020019081526020016000206134b690919063ffffffff16565b505050565b6000609754905090565b6000609854905090565b60008383834630604051602001612d7b959493929190615131565b6040516020818303038152906040528051906020012090509392505050565b612da482826134e6565b612dca8161019460008581526020019081526020016000206135c990919063ffffffff16565b505050565b6000826000018281548110612de757612de66143a2565b5b9060005260206000200154905092915050565b60608315612e0a57829050612e5a565b600083511115612e1d5782518084602001fd5b816040517f08c379a0000000000000000000000000000000000000000000000000000000008152600401612e5191906138fe565b60405180910390fd5b9392505050565b600081600001805490509050919050565b6001816000016000828254019250508190555050565b60008282604051602001612e9d9291906151f1565b60405160208183030381529060405280519060200120905092915050565b6000807f7fffffffffffffffffffffffffffffff5d576e7357a4501ddfe92f46681b20a08360001c1115612ef6576000600391509150612fbe565b601b8560ff1614158015612f0e5750601c8560ff1614155b15612f20576000600491509150612fbe565b600060018787878760405160008152602001604052604051612f459493929190615228565b6020604051602081039080840390855afa158015612f67573d6000803e3d6000fd5b505050602060405103519050600073ffffffffffffffffffffffffffffffffffffffff168173ffffffffffffffffffffffffffffffffffffffff1603612fb557600060019250925050612fbe565b80600092509250505b94509492505050565b60006004811115612fdb57612fda61526d565b5b816004811115612fee57612fed61526d565b5b031561319057600160048111156130085761300761526d565b5b81600481111561301b5761301a61526d565b5b0361305b576040517f08c379a0000000000000000000000000000000000000000000000000000000008152600401613052906152e8565b60405180910390fd5b6002600481111561306f5761306e61526d565b5b8160048111156130825761308161526d565b5b036130c2576040517f08c379a00000000000000000000000000000000000000000000000000000000081526004016130b990615354565b60405180910390fd5b600360048111156130d6576130d561526d565b5b8160048111156130e9576130e861526d565b5b03613129576040517f08c379a0000000000000000000000000000000000000000000000000000000008152600401613120906153e6565b60405180910390fd5b60048081111561313c5761313b61526d565b5b81600481111561314f5761314e61526d565b5b0361318f576040517f08c379a000000000000000000000000000000000000000000000000000000000815260040161318690615478565b60405180910390fd5b5b50565b505050565b6060600060028360026131ab9190614227565b6131b59190614053565b67ffffffffffffffff8111156131ce576131cd614373565b5b6040519080825280601f01601f1916602001820160405280156132005781602001600182028036833780820191505090505b5090507f300000000000000000000000000000000000000000000000000000000000000081600081518110613238576132376143a2565b5b60200101907effffffffffffffffffffffffffffffffffffffffffffffffffffffffffffff1916908160001a9053507f78000000000000000000000000000000000000000000000000000000000000008160018151811061329c5761329b6143a2565b5b60200101907effffffffffffffffffffffffffffffffffffffffffffffffffffffffffffff1916908160001a905350600060018460026132dc9190614227565b6132e69190614053565b90505b6001811115613386577f3031323334353637383961626364656600000000000000000000000000000000600f861660108110613328576133276143a2565b5b1a60f81b82828151811061333f5761333e6143a2565b5b60200101907effffffffffffffffffffffffffffffffffffffffffffffffffffffffffffff1916908160001a905350600485901c94508061337f90615498565b90506132e9565b50600084146133ca576040517f08c379a00000000000000000000000000000000000000000000000000000000081526004016133c19061550d565b60405180910390fd5b8091505092915050565b6133de82826111b6565b6134b2576001610162600084815260200190815260200160002060000160008373ffffffffffffffffffffffffffffffffffffffff1673ffffffffffffffffffffffffffffffffffffffff16815260200190815260200160002060006101000a81548160ff021916908315150217905550613457611731565b73ffffffffffffffffffffffffffffffffffffffff168173ffffffffffffffffffffffffffffffffffffffff16837f2f8788117e7eff1d82e926ec794901d17c78024a50270940304540a733656f0d60405160405180910390a45b5050565b60006134de836000018373ffffffffffffffffffffffffffffffffffffffff1660001b6135f9565b905092915050565b6134f082826111b6565b156135c5576000610162600084815260200190815260200160002060000160008373ffffffffffffffffffffffffffffffffffffffff1673ffffffffffffffffffffffffffffffffffffffff16815260200190815260200160002060006101000a81548160ff02191690831515021790555061356a611731565b73ffffffffffffffffffffffffffffffffffffffff168173ffffffffffffffffffffffffffffffffffffffff16837ff6391f5c32d9c69d2a47ea670b442974b53935d1edc7fd64eb21e047a839171b60405160405180910390a45b5050565b60006135f1836000018373ffffffffffffffffffffffffffffffffffffffff1660001b613669565b905092915050565b6000613605838361377d565b61365e578260000182908060018154018082558091505060019003906000526020600020016000909190919091505582600001805490508360010160008481526020019081526020016000208190555060019050613663565b600090505b92915050565b6000808360010160008481526020019081526020016000205490506000811461377157600060018261369b91906149e2565b90506000600186600001805490506136b391906149e2565b90508181146137225760008660000182815481106136d4576136d36143a2565b5b90600052602060002001549050808760000184815481106136f8576136f76143a2565b5b90600052602060002001819055508387600101600083815260200190815260200160002081905550505b856000018054806137365761373561552d565b5b600190038181906000526020600020016000905590558560010160008681526020019081526020016000206000905560019350505050613777565b60009150505b92915050565b600080836001016000848152602001908152602001600020541415905092915050565b600080fd5b600080fd5b60007fffffffff0000000000000000000000000000000000000000000000000000000082169050919050565b6137df816137aa565b81146137ea57600080fd5b50565b6000813590506137fc816137d6565b92915050565b600060208284031215613818576138176137a0565b5b6000613826848285016137ed565b91505092915050565b60008115159050919050565b6138448161382f565b82525050565b600060208201905061385f600083018461383b565b92915050565b600081519050919050565b600082825260208201905092915050565b60005b8381101561389f578082015181840152602081019050613884565b838111156138ae576000848401525b50505050565b6000601f19601f8301169050919050565b60006138d082613865565b6138da8185613870565b93506138ea818560208601613881565b6138f3816138b4565b840191505092915050565b6000602082019050818103600083015261391881846138c5565b905092915050565b600073ffffffffffffffffffffffffffffffffffffffff82169050919050565b600061394b82613920565b9050919050565b61395b81613940565b811461396657600080fd5b50565b60008135905061397881613952565b92915050565b6000819050919050565b6139918161397e565b811461399c57600080fd5b50565b6000813590506139ae81613988565b92915050565b600080604083850312156139cb576139ca6137a0565b5b60006139d985828601613969565b92505060206139ea8582860161399f565b9150509250929050565b6139fd8161397e565b82525050565b6000602082019050613a1860008301846139f4565b92915050565b600080600060608486031215613a3757613a366137a0565b5b6000613a4586828701613969565b9350506020613a5686828701613969565b9250506040613a678682870161399f565b9150509250925092565b6000819050919050565b613a8481613a71565b8114613a8f57600080fd5b50565b600081359050613aa181613a7b565b92915050565b600060208284031215613abd57613abc6137a0565b5b6000613acb84828501613a92565b91505092915050565b613add81613a71565b82525050565b6000602082019050613af86000830184613ad4565b92915050565b60008060408385031215613b1557613b146137a0565b5b6000613b2385828601613a92565b9250506020613b3485828601613969565b9150509250929050565b600060ff82169050919050565b613b5481613b3e565b82525050565b6000602082019050613b6f6000830184613b4b565b92915050565b600060208284031215613b8b57613b8a6137a0565b5b6000613b998482850161399f565b91505092915050565b600060208284031215613bb857613bb76137a0565b5b6000613bc684828501613969565b91505092915050565b60008060408385031215613be657613be56137a0565b5b6000613bf485828601613a92565b9250506020613c058582860161399f565b9150509250929050565b613c1881613940565b82525050565b6000602082019050613c336000830184613c0f565b92915050565b600080fd5b600080fd5b600080fd5b60008083601f840112613c5e57613c5d613c39565b5b8235905067ffffffffffffffff811115613c7b57613c7a613c3e565b5b602083019150836020820283011115613c9757613c96613c43565b5b9250929050565b60008060208385031215613cb557613cb46137a0565b5b600083013567ffffffffffffffff811115613cd357613cd26137a5565b5b613cdf85828601613c48565b92509250509250929050565b600081519050919050565b600082825260208201905092915050565b6000819050602082019050919050565b600081519050919050565b600082825260208201905092915050565b6000613d3e82613d17565b613d488185613d22565b9350613d58818560208601613881565b613d61816138b4565b840191505092915050565b6000613d788383613d33565b905092915050565b6000602082019050919050565b6000613d9882613ceb565b613da28185613cf6565b935083602082028501613db485613d07565b8060005b85811015613df05784840389528151613dd18582613d6c565b9450613ddc83613d80565b925060208a01995050600181019050613db8565b50829750879550505050505092915050565b60006020820190508181036000830152613e1c8184613d8d565b905092915050565b613e2d81613b3e565b8114613e3857600080fd5b50565b600081359050613e4a81613e24565b92915050565b600080600080600080600060e0888a031215613e6f57613e6e6137a0565b5b6000613e7d8a828b01613969565b9750506020613e8e8a828b01613969565b9650506040613e9f8a828b0161399f565b9550506060613eb08a828b0161399f565b9450506080613ec18a828b01613e3b565b93505060a0613ed28a828b01613a92565b92505060c0613ee38a828b01613a92565b91505092959891949750929550565b60008060408385031215613f0957613f086137a0565b5b6000613f1785828601613969565b9250506020613f2885828601613969565b9150509250929050565b7f4e487b7100000000000000000000000000000000000000000000000000000000600052602260045260246000fd5b60006002820490506001821680613f7957607f821691505b602082108103613f8c57613f8b613f32565b5b50919050565b7f416363657373436f6e74726f6c3a2063616e206f6e6c792072656e6f756e636560008201527f20726f6c657320666f722073656c660000000000000000000000000000000000602082015250565b6000613fee602f83613870565b9150613ff982613f92565b604082019050919050565b6000602082019050818103600083015261401d81613fe1565b9050919050565b7f4e487b7100000000000000000000000000000000000000000000000000000000600052601160045260246000fd5b600061405e8261397e565b91506140698361397e565b9250827fffffffffffffffffffffffffffffffffffffffffffffffffffffffffffffffff0382111561409e5761409d614024565b5b828201905092915050565b60008160011c9050919050565b6000808291508390505b6001851115614100578086048111156140dc576140db614024565b5b60018516156140eb5780820291505b80810290506140f9856140a9565b94506140c0565b94509492505050565b60008261411957600190506141d5565b8161412757600090506141d5565b816001811461413d576002811461414757614176565b60019150506141d5565b60ff84111561415957614158614024565b5b8360020a9150848211156141705761416f614024565b5b506141d5565b5060208310610133831016604e8410600b84101617156141ab5782820a9050838111156141a6576141a5614024565b5b6141d5565b6141b884848460016140b6565b925090508184048111156141cf576141ce614024565b5b81810290505b9392505050565b60006141e78261397e565b91506141f28361397e565b925061421f7fffffffffffffffffffffffffffffffffffffffffffffffffffffffffffffffff8484614109565b905092915050565b60006142328261397e565b915061423d8361397e565b9250817fffffffffffffffffffffffffffffffffffffffffffffffffffffffffffffffff048311821515161561427657614275614024565b5b828202905092915050565b6000819050919050565b6000819050919050565b60006142b06142ab6142a684614281565b61428b565b613b3e565b9050919050565b6142c081614295565b82525050565b60006020820190506142db60008301846142b7565b92915050565b7f45524332303a2064656372656173656420616c6c6f77616e63652062656c6f7760008201527f207a65726f000000000000000000000000000000000000000000000000000000602082015250565b600061433d602583613870565b9150614348826142e1565b604082019050919050565b6000602082019050818103600083015261436c81614330565b9050919050565b7f4e487b7100000000000000000000000000000000000000000000000000000000600052604160045260246000fd5b7f4e487b7100000000000000000000000000000000000000000000000000000000600052603260045260246000fd5b600080fd5b600080fd5b600080fd5b600080833560016020038436030381126143fd576143fc6143d1565b5b80840192508235915067ffffffffffffffff82111561441f5761441e6143d6565b5b60208301925060018202360383131561443b5761443a6143db565b5b509250929050565b600061444e8261397e565b91507fffffffffffffffffffffffffffffffffffffffffffffffffffffffffffffffff82036144805761447f614024565b5b600182019050919050565b7f45524332305065726d69743a206578706972656420646561646c696e65000000600082015250565b60006144c1601d83613870565b91506144cc8261448b565b602082019050919050565b600060208201905081810360008301526144f0816144b4565b9050919050565b600060c08201905061450c6000830189613ad4565b6145196020830188613c0f565b6145266040830187613c0f565b61453360608301866139f4565b61454060808301856139f4565b61454d60a08301846139f4565b979650505050505050565b7f45524332305065726d69743a20696e76616c6964207369676e61747572650000600082015250565b600061458e601e83613870565b915061459982614558565b602082019050919050565b600060208201905081810360008301526145bd81614581565b9050919050565b7f5061757361626c653a2070617573656400000000000000000000000000000000600082015250565b60006145fa601083613870565b9150614605826145c4565b602082019050919050565b60006020820190508181036000830152614629816145ed565b9050919050565b7f45524332303a20696e73756666696369656e7420616c6c6f77616e6365000000600082015250565b6000614666601d83613870565b915061467182614630565b602082019050919050565b6000602082019050818103600083015261469581614659565b9050919050565b7f45524332303a207472616e736665722066726f6d20746865207a65726f20616460008201527f6472657373000000000000000000000000000000000000000000000000000000602082015250565b60006146f8602583613870565b91506147038261469c565b604082019050919050565b60006020820190508181036000830152614727816146eb565b9050919050565b7f45524332303a207472616e7366657220746f20746865207a65726f206164647260008201527f6573730000000000000000000000000000000000000000000000000000000000602082015250565b600061478a602383613870565b91506147958261472e565b604082019050919050565b600060208201905081810360008301526147b98161477d565b9050919050565b7f45524332303a207472616e7366657220616d6f756e742065786365656473206260008201527f616c616e63650000000000000000000000000000000000000000000000000000602082015250565b600061481c602683613870565b9150614827826147c0565b604082019050919050565b6000602082019050818103600083015261484b8161480f565b9050919050565b7f5061757361626c653a206e6f7420706175736564000000000000000000000000600082015250565b6000614888601483613870565b915061489382614852565b602082019050919050565b600060208201905081810360008301526148b78161487b565b9050919050565b7f45524332303a206275726e2066726f6d20746865207a65726f2061646472657360008201527f7300000000000000000000000000000000000000000000000000000000000000602082015250565b600061491a602183613870565b9150614925826148be565b604082019050919050565b600060208201905081810360008301526149498161490d565b9050919050565b7f45524332303a206275726e20616d6f756e7420657863656564732062616c616e60008201527f6365000000000000000000000000000000000000000000000000000000000000602082015250565b60006149ac602283613870565b91506149b782614950565b604082019050919050565b600060208201905081810360008301526149db8161499f565b9050919050565b60006149ed8261397e565b91506149f88361397e565b925082821015614a0b57614a0a614024565b5b828203905092915050565b7f496e697469616c697a61626c653a20636f6e747261637420697320616c72656160008201527f647920696e697469616c697a6564000000000000000000000000000000000000602082015250565b6000614a72602e83613870565b9150614a7d82614a16565b604082019050919050565b60006020820190508181036000830152614aa181614a65565b9050919050565b7f496e697469616c697a61626c653a20636f6e7472616374206973206e6f74206960008201527f6e697469616c697a696e67000000000000000000000000000000000000000000602082015250565b6000614b04602b83613870565b9150614b0f82614aa8565b604082019050919050565b60006020820190508181036000830152614b3381614af7565b9050919050565b60008190508160005260206000209050919050565b60006020601f8301049050919050565b600082821b905092915050565b600060088302614b9c7fffffffffffffffffffffffffffffffffffffffffffffffffffffffffffffffff82614b5f565b614ba68683614b5f565b95508019841693508086168417925050509392505050565b6000614bd9614bd4614bcf8461397e565b61428b565b61397e565b9050919050565b6000819050919050565b614bf383614bbe565b614c07614bff82614be0565b848454614b6c565b825550505050565b600090565b614c1c614c0f565b614c27818484614bea565b505050565b5b81811015614c4b57614c40600082614c14565b600181019050614c2d565b5050565b601f821115614c9057614c6181614b3a565b614c6a84614b4f565b81016020851015614c79578190505b614c8d614c8585614b4f565b830182614c2c565b50505b505050565b600082821c905092915050565b6000614cb360001984600802614c95565b1980831691505092915050565b6000614ccc8383614ca2565b9150826002028217905092915050565b614ce582613865565b67ffffffffffffffff811115614cfe57614cfd614373565b5b614d088254613f61565b614d13828285614c4f565b600060209050601f831160018114614d465760008415614d34578287015190505b614d3e8582614cc0565b865550614da6565b601f198416614d5486614b3a565b60005b82811015614d7c57848901518255600182019150602085019450602081019050614d57565b86831015614d995784890151614d95601f891682614ca2565b8355505b6001600288020188555050505b505050505050565b7f45524332303a206d696e7420746f20746865207a65726f206164647265737300600082015250565b6000614de4601f83613870565b9150614def82614dae565b602082019050919050565b60006020820190508181036000830152614e1381614dd7565b9050919050565b7f416464726573733a2064656c65676174652063616c6c20746f206e6f6e2d636f60008201527f6e74726163740000000000000000000000000000000000000000000000000000602082015250565b6000614e76602683613870565b9150614e8182614e1a565b604082019050919050565b60006020820190508181036000830152614ea581614e69565b9050919050565b600081905092915050565b6000614ec282613d17565b614ecc8185614eac565b9350614edc818560208601613881565b80840191505092915050565b6000614ef48284614eb7565b915081905092915050565b7f45524332303a20617070726f76652066726f6d20746865207a65726f2061646460008201527f7265737300000000000000000000000000000000000000000000000000000000602082015250565b6000614f5b602483613870565b9150614f6682614eff565b604082019050919050565b60006020820190508181036000830152614f8a81614f4e565b9050919050565b7f45524332303a20617070726f766520746f20746865207a65726f20616464726560008201527f7373000000000000000000000000000000000000000000000000000000000000602082015250565b6000614fed602283613870565b9150614ff882614f91565b604082019050919050565b6000602082019050818103600083015261501c81614fe0565b9050919050565b600081905092915050565b7f416363657373436f6e74726f6c3a206163636f756e7420000000000000000000600082015250565b6000615064601783615023565b915061506f8261502e565b601782019050919050565b600061508582613865565b61508f8185615023565b935061509f818560208601613881565b80840191505092915050565b7f206973206d697373696e6720726f6c6520000000000000000000000000000000600082015250565b60006150e1601183615023565b91506150ec826150ab565b601182019050919050565b600061510282615057565b915061510e828561507a565b9150615119826150d4565b9150615125828461507a565b91508190509392505050565b600060a0820190506151466000830188613ad4565b6151536020830187613ad4565b6151606040830186613ad4565b61516d60608301856139f4565b61517a6080830184613c0f565b9695505050505050565b7f1901000000000000000000000000000000000000000000000000000000000000600082015250565b60006151ba600283615023565b91506151c582615184565b600282019050919050565b6000819050919050565b6151eb6151e682613a71565b6151d0565b82525050565b60006151fc826151ad565b915061520882856151da565b60208201915061521882846151da565b6020820191508190509392505050565b600060808201905061523d6000830187613ad4565b61524a6020830186613b4b565b6152576040830185613ad4565b6152646060830184613ad4565b95945050505050565b7f4e487b7100000000000000000000000000000000000000000000000000000000600052602160045260246000fd5b7f45434453413a20696e76616c6964207369676e61747572650000000000000000600082015250565b60006152d2601883613870565b91506152dd8261529c565b602082019050919050565b60006020820190508181036000830152615301816152c5565b9050919050565b7f45434453413a20696e76616c6964207369676e6174757265206c656e67746800600082015250565b600061533e601f83613870565b915061534982615308565b602082019050919050565b6000602082019050818103600083015261536d81615331565b9050919050565b7f45434453413a20696e76616c6964207369676e6174757265202773272076616c60008201527f7565000000000000000000000000000000000000000000000000000000000000602082015250565b60006153d0602283613870565b91506153db82615374565b604082019050919050565b600060208201905081810360008301526153ff816153c3565b9050919050565b7f45434453413a20696e76616c6964207369676e6174757265202776272076616c60008201527f7565000000000000000000000000000000000000000000000000000000000000602082015250565b6000615462602283613870565b915061546d82615406565b604082019050919050565b6000602082019050818103600083015261549181615455565b9050919050565b60006154a38261397e565b9150600082036154b6576154b5614024565b5b600182039050919050565b7f537472696e67733a20686578206c656e67746820696e73756666696369656e74600082015250565b60006154f7602083613870565b9150615502826154c1565b602082019050919050565b60006020820190508181036000830152615526816154ea565b9050919050565b7f4e487b7100000000000000000000000000000000000000000000000000000000600052603160045260246000fdfe416464726573733a206c6f772d6c6576656c2064656c65676174652063616c6c206661696c6564a2646970667358221220e3382e9b325bf0d267d22cf59fb55970241a3b07c7af48280ee29ebcb8d18bd264736f6c634300080f0033",
  "linkReferences": {},
  "deployedLinkReferences": {}
}