{
  "_format": "hh-sol-artifact-1",
  "contractName": "NORI",
  "sourceName": "contracts/NORI.sol",
  "abi": [
    {
      "anonymous": false,
      "inputs": [
        {
          "indexed": true,
          "internalType": "address",
          "name": "owner",
          "type": "address"
        },
        {
          "indexed": true,
          "internalType": "address",
          "name": "spender",
          "type": "address"
        },
        {
          "indexed": false,
          "internalType": "uint256",
          "name": "value",
          "type": "uint256"
        }
      ],
      "name": "Approval",
      "type": "event"
    },
    {
      "anonymous": false,
      "inputs": [
        {
          "indexed": true,
          "internalType": "address",
          "name": "operator",
          "type": "address"
        },
        {
          "indexed": true,
          "internalType": "address",
          "name": "tokenHolder",
          "type": "address"
        }
      ],
      "name": "AuthorizedOperator",
      "type": "event"
    },
    {
      "anonymous": false,
      "inputs": [
        {
          "indexed": true,
          "internalType": "address",
          "name": "operator",
          "type": "address"
        },
        {
          "indexed": true,
          "internalType": "address",
          "name": "from",
          "type": "address"
        },
        {
          "indexed": false,
          "internalType": "uint256",
          "name": "amount",
          "type": "uint256"
        },
        {
          "indexed": false,
          "internalType": "bytes",
          "name": "data",
          "type": "bytes"
        },
        {
          "indexed": false,
          "internalType": "bytes",
          "name": "operatorData",
          "type": "bytes"
        }
      ],
      "name": "Burned",
      "type": "event"
    },
    {
      "anonymous": false,
      "inputs": [
        {
          "indexed": true,
          "internalType": "address",
          "name": "operator",
          "type": "address"
        },
        {
          "indexed": true,
          "internalType": "address",
          "name": "to",
          "type": "address"
        },
        {
          "indexed": false,
          "internalType": "uint256",
          "name": "amount",
          "type": "uint256"
        },
        {
          "indexed": false,
          "internalType": "bytes",
          "name": "data",
          "type": "bytes"
        },
        {
          "indexed": false,
          "internalType": "bytes",
          "name": "operatorData",
          "type": "bytes"
        }
      ],
      "name": "Minted",
      "type": "event"
    },
    {
      "anonymous": false,
      "inputs": [
        {
          "indexed": false,
          "internalType": "address",
          "name": "account",
          "type": "address"
        }
      ],
      "name": "Paused",
      "type": "event"
    },
    {
      "anonymous": false,
      "inputs": [
        {
          "indexed": true,
          "internalType": "address",
          "name": "operator",
          "type": "address"
        },
        {
          "indexed": true,
          "internalType": "address",
          "name": "tokenHolder",
          "type": "address"
        }
      ],
      "name": "RevokedOperator",
      "type": "event"
    },
    {
      "anonymous": false,
      "inputs": [
        {
          "indexed": true,
          "internalType": "bytes32",
          "name": "role",
          "type": "bytes32"
        },
        {
          "indexed": true,
          "internalType": "bytes32",
          "name": "previousAdminRole",
          "type": "bytes32"
        },
        {
          "indexed": true,
          "internalType": "bytes32",
          "name": "newAdminRole",
          "type": "bytes32"
        }
      ],
      "name": "RoleAdminChanged",
      "type": "event"
    },
    {
      "anonymous": false,
      "inputs": [
        {
          "indexed": true,
          "internalType": "bytes32",
          "name": "role",
          "type": "bytes32"
        },
        {
          "indexed": true,
          "internalType": "address",
          "name": "account",
          "type": "address"
        },
        {
          "indexed": true,
          "internalType": "address",
          "name": "sender",
          "type": "address"
        }
      ],
      "name": "RoleGranted",
      "type": "event"
    },
    {
      "anonymous": false,
      "inputs": [
        {
          "indexed": true,
          "internalType": "bytes32",
          "name": "role",
          "type": "bytes32"
        },
        {
          "indexed": true,
          "internalType": "address",
          "name": "account",
          "type": "address"
        },
        {
          "indexed": true,
          "internalType": "address",
          "name": "sender",
          "type": "address"
        }
      ],
      "name": "RoleRevoked",
      "type": "event"
    },
    {
      "anonymous": false,
      "inputs": [
        {
          "indexed": true,
          "internalType": "address",
          "name": "operator",
          "type": "address"
        },
        {
          "indexed": true,
          "internalType": "address",
          "name": "from",
          "type": "address"
        },
        {
          "indexed": true,
          "internalType": "address",
          "name": "to",
          "type": "address"
        },
        {
          "indexed": false,
          "internalType": "uint256",
          "name": "amount",
          "type": "uint256"
        },
        {
          "indexed": false,
          "internalType": "bytes",
          "name": "data",
          "type": "bytes"
        },
        {
          "indexed": false,
          "internalType": "bytes",
          "name": "operatorData",
          "type": "bytes"
        }
      ],
      "name": "Sent",
      "type": "event"
    },
    {
      "anonymous": false,
      "inputs": [
        {
          "indexed": true,
          "internalType": "address",
          "name": "from",
          "type": "address"
        },
        {
          "indexed": false,
          "internalType": "address[]",
          "name": "recipients",
          "type": "address[]"
        },
        {
          "indexed": false,
          "internalType": "uint256[]",
          "name": "amounts",
          "type": "uint256[]"
        },
        {
          "indexed": false,
          "internalType": "bytes[]",
          "name": "userData",
          "type": "bytes[]"
        },
        {
          "indexed": false,
          "internalType": "bytes[]",
          "name": "operatorData",
          "type": "bytes[]"
        },
        {
          "indexed": false,
          "internalType": "bool[]",
          "name": "requireReceptionAck",
          "type": "bool[]"
        }
      ],
      "name": "SentBatch",
      "type": "event"
    },
    {
      "anonymous": false,
      "inputs": [
        {
          "indexed": true,
          "internalType": "address",
          "name": "from",
          "type": "address"
        },
        {
          "indexed": true,
          "internalType": "address",
          "name": "to",
          "type": "address"
        },
        {
          "indexed": false,
          "internalType": "uint256",
          "name": "value",
          "type": "uint256"
        }
      ],
      "name": "Transfer",
      "type": "event"
    },
    {
      "anonymous": false,
      "inputs": [
        {
          "indexed": false,
          "internalType": "address",
          "name": "account",
          "type": "address"
        }
      ],
      "name": "Unpaused",
      "type": "event"
    },
    {
      "inputs": [],
      "name": "DEFAULT_ADMIN_ROLE",
      "outputs": [
        {
          "internalType": "bytes32",
          "name": "",
          "type": "bytes32"
        }
      ],
      "stateMutability": "view",
      "type": "function"
    },
    {
      "inputs": [],
      "name": "PAUSER_ROLE",
      "outputs": [
        {
          "internalType": "bytes32",
          "name": "",
          "type": "bytes32"
        }
      ],
      "stateMutability": "view",
      "type": "function"
    },
    {
      "inputs": [
        {
          "internalType": "address",
          "name": "holder",
          "type": "address"
        },
        {
          "internalType": "address",
          "name": "spender",
          "type": "address"
        }
      ],
      "name": "allowance",
      "outputs": [
        {
          "internalType": "uint256",
          "name": "",
          "type": "uint256"
        }
      ],
      "stateMutability": "view",
      "type": "function"
    },
    {
      "inputs": [
        {
          "internalType": "address",
          "name": "spender",
          "type": "address"
        },
        {
          "internalType": "uint256",
          "name": "value",
          "type": "uint256"
        }
      ],
      "name": "approve",
      "outputs": [
        {
          "internalType": "bool",
          "name": "",
          "type": "bool"
        }
      ],
      "stateMutability": "nonpayable",
      "type": "function"
    },
    {
      "inputs": [
        {
          "internalType": "address",
          "name": "operator",
          "type": "address"
        }
      ],
      "name": "authorizeOperator",
      "outputs": [],
      "stateMutability": "nonpayable",
      "type": "function"
    },
    {
      "inputs": [
        {
          "internalType": "address",
          "name": "tokenHolder",
          "type": "address"
        }
      ],
      "name": "balanceOf",
      "outputs": [
        {
          "internalType": "uint256",
          "name": "",
          "type": "uint256"
        }
      ],
      "stateMutability": "view",
      "type": "function"
    },
    {
      "inputs": [
        {
          "internalType": "address[]",
          "name": "accounts",
          "type": "address[]"
        }
      ],
      "name": "balanceOfBatch",
      "outputs": [
        {
          "internalType": "uint256[]",
          "name": "",
          "type": "uint256[]"
        }
      ],
      "stateMutability": "view",
      "type": "function"
    },
    {
      "inputs": [
        {
          "internalType": "address[]",
          "name": "recipients",
          "type": "address[]"
        },
        {
          "internalType": "uint256[]",
          "name": "amounts",
          "type": "uint256[]"
        },
        {
          "internalType": "bytes[]",
          "name": "userData",
          "type": "bytes[]"
        },
        {
          "internalType": "bytes[]",
          "name": "operatorData",
          "type": "bytes[]"
        },
        {
          "internalType": "bool[]",
          "name": "requireReceptionAck",
          "type": "bool[]"
        }
      ],
      "name": "batchSend",
      "outputs": [],
      "stateMutability": "nonpayable",
      "type": "function"
    },
    {
      "inputs": [
        {
          "internalType": "uint256",
          "name": "amount",
          "type": "uint256"
        },
        {
          "internalType": "bytes",
          "name": "data",
          "type": "bytes"
        }
      ],
      "name": "burn",
      "outputs": [],
      "stateMutability": "nonpayable",
      "type": "function"
    },
    {
      "inputs": [],
      "name": "decimals",
      "outputs": [
        {
          "internalType": "uint8",
          "name": "",
          "type": "uint8"
        }
      ],
      "stateMutability": "pure",
      "type": "function"
    },
    {
      "inputs": [],
      "name": "defaultOperators",
      "outputs": [
        {
          "internalType": "address[]",
          "name": "",
          "type": "address[]"
        }
      ],
      "stateMutability": "view",
      "type": "function"
    },
    {
      "inputs": [
        {
          "internalType": "bytes32",
          "name": "role",
          "type": "bytes32"
        }
      ],
      "name": "getRoleAdmin",
      "outputs": [
        {
          "internalType": "bytes32",
          "name": "",
          "type": "bytes32"
        }
      ],
      "stateMutability": "view",
      "type": "function"
    },
    {
      "inputs": [
        {
          "internalType": "bytes32",
          "name": "role",
          "type": "bytes32"
        },
        {
          "internalType": "uint256",
          "name": "index",
          "type": "uint256"
        }
      ],
      "name": "getRoleMember",
      "outputs": [
        {
          "internalType": "address",
          "name": "",
          "type": "address"
        }
      ],
      "stateMutability": "view",
      "type": "function"
    },
    {
      "inputs": [
        {
          "internalType": "bytes32",
          "name": "role",
          "type": "bytes32"
        }
      ],
      "name": "getRoleMemberCount",
      "outputs": [
        {
          "internalType": "uint256",
          "name": "",
          "type": "uint256"
        }
      ],
      "stateMutability": "view",
      "type": "function"
    },
    {
      "inputs": [
        {
          "internalType": "bytes32",
          "name": "role",
          "type": "bytes32"
        },
        {
          "internalType": "address",
          "name": "account",
          "type": "address"
        }
      ],
      "name": "grantRole",
      "outputs": [],
      "stateMutability": "nonpayable",
      "type": "function"
    },
    {
      "inputs": [],
      "name": "granularity",
      "outputs": [
        {
          "internalType": "uint256",
          "name": "",
          "type": "uint256"
        }
      ],
      "stateMutability": "view",
      "type": "function"
    },
    {
      "inputs": [
        {
          "internalType": "bytes32",
          "name": "role",
          "type": "bytes32"
        },
        {
          "internalType": "address",
          "name": "account",
          "type": "address"
        }
      ],
      "name": "hasRole",
      "outputs": [
        {
          "internalType": "bool",
          "name": "",
          "type": "bool"
        }
      ],
      "stateMutability": "view",
      "type": "function"
    },
    {
      "inputs": [],
      "name": "initialize",
      "outputs": [],
      "stateMutability": "nonpayable",
      "type": "function"
    },
    {
      "inputs": [
        {
          "internalType": "address",
          "name": "operator",
          "type": "address"
        },
        {
          "internalType": "address",
          "name": "tokenHolder",
          "type": "address"
        }
      ],
      "name": "isOperatorFor",
      "outputs": [
        {
          "internalType": "bool",
          "name": "",
          "type": "bool"
        }
      ],
      "stateMutability": "view",
      "type": "function"
    },
    {
      "inputs": [],
      "name": "name",
      "outputs": [
        {
          "internalType": "string",
          "name": "",
          "type": "string"
        }
      ],
      "stateMutability": "view",
      "type": "function"
    },
    {
      "inputs": [
        {
          "internalType": "address",
          "name": "account",
          "type": "address"
        },
        {
          "internalType": "uint256",
          "name": "amount",
          "type": "uint256"
        },
        {
          "internalType": "bytes",
          "name": "data",
          "type": "bytes"
        },
        {
          "internalType": "bytes",
          "name": "operatorData",
          "type": "bytes"
        }
      ],
      "name": "operatorBurn",
      "outputs": [],
      "stateMutability": "nonpayable",
      "type": "function"
    },
    {
      "inputs": [
        {
          "internalType": "address",
          "name": "sender",
          "type": "address"
        },
        {
          "internalType": "address",
          "name": "recipient",
          "type": "address"
        },
        {
          "internalType": "uint256",
          "name": "amount",
          "type": "uint256"
        },
        {
          "internalType": "bytes",
          "name": "data",
          "type": "bytes"
        },
        {
          "internalType": "bytes",
          "name": "operatorData",
          "type": "bytes"
        }
      ],
      "name": "operatorSend",
      "outputs": [],
      "stateMutability": "nonpayable",
      "type": "function"
    },
    {
      "inputs": [],
      "name": "pause",
      "outputs": [],
      "stateMutability": "nonpayable",
      "type": "function"
    },
    {
      "inputs": [],
      "name": "paused",
      "outputs": [
        {
          "internalType": "bool",
          "name": "",
          "type": "bool"
        }
      ],
      "stateMutability": "view",
      "type": "function"
    },
    {
      "inputs": [
        {
          "internalType": "bytes32",
          "name": "role",
          "type": "bytes32"
        },
        {
          "internalType": "address",
          "name": "account",
          "type": "address"
        }
      ],
      "name": "renounceRole",
      "outputs": [],
      "stateMutability": "nonpayable",
      "type": "function"
    },
    {
      "inputs": [
        {
          "internalType": "address",
          "name": "operator",
          "type": "address"
        }
      ],
      "name": "revokeOperator",
      "outputs": [],
      "stateMutability": "nonpayable",
      "type": "function"
    },
    {
      "inputs": [
        {
          "internalType": "bytes32",
          "name": "role",
          "type": "bytes32"
        },
        {
          "internalType": "address",
          "name": "account",
          "type": "address"
        }
      ],
      "name": "revokeRole",
      "outputs": [],
      "stateMutability": "nonpayable",
      "type": "function"
    },
    {
      "inputs": [
        {
          "internalType": "address",
          "name": "recipient",
          "type": "address"
        },
        {
          "internalType": "uint256",
          "name": "amount",
          "type": "uint256"
        },
        {
          "internalType": "bytes",
          "name": "data",
          "type": "bytes"
        }
      ],
      "name": "send",
      "outputs": [],
      "stateMutability": "nonpayable",
      "type": "function"
    },
    {
      "inputs": [
        {
          "internalType": "bytes4",
          "name": "interfaceId",
          "type": "bytes4"
        }
      ],
      "name": "supportsInterface",
      "outputs": [
        {
          "internalType": "bool",
          "name": "",
          "type": "bool"
        }
      ],
      "stateMutability": "view",
      "type": "function"
    },
    {
      "inputs": [],
      "name": "symbol",
      "outputs": [
        {
          "internalType": "string",
          "name": "",
          "type": "string"
        }
      ],
      "stateMutability": "view",
      "type": "function"
    },
    {
      "inputs": [],
      "name": "totalSupply",
      "outputs": [
        {
          "internalType": "uint256",
          "name": "",
          "type": "uint256"
        }
      ],
      "stateMutability": "view",
      "type": "function"
    },
    {
      "inputs": [
        {
          "internalType": "address",
          "name": "recipient",
          "type": "address"
        },
        {
          "internalType": "uint256",
          "name": "amount",
          "type": "uint256"
        }
      ],
      "name": "transfer",
      "outputs": [
        {
          "internalType": "bool",
          "name": "",
          "type": "bool"
        }
      ],
      "stateMutability": "nonpayable",
      "type": "function"
    },
    {
      "inputs": [
        {
          "internalType": "address",
          "name": "holder",
          "type": "address"
        },
        {
          "internalType": "address",
          "name": "recipient",
          "type": "address"
        },
        {
          "internalType": "uint256",
          "name": "amount",
          "type": "uint256"
        }
      ],
      "name": "transferFrom",
      "outputs": [
        {
          "internalType": "bool",
          "name": "",
          "type": "bool"
        }
      ],
      "stateMutability": "nonpayable",
      "type": "function"
    },
    {
      "inputs": [],
      "name": "unpause",
      "outputs": [],
      "stateMutability": "nonpayable",
      "type": "function"
    }
  ],
  "bytecode": "0x608060405234801561001057600080fd5b5061314b806100206000396000f3fe608060405234801561001057600080fd5b50600436106102065760003560e01c80638129fc1c1161011a578063a9059cbb116100ad578063dd62ed3e1161007c578063dd62ed3e14610448578063e63ab1e914610481578063fad8b32a14610496578063fc673c4f146104a9578063fe9d9303146104bc57600080fd5b8063a9059cbb146103fc578063ca15c8731461040f578063d547741f14610422578063d95b63711461043557600080fd5b8063959b8c3f116100e9578063959b8c3f146103c657806395d89b41146103d95780639bd9bbc6146103e1578063a217fddf146103f457600080fd5b80638129fc1c146103785780638456cb59146103805780639010d07c1461038857806391d14854146103b357600080fd5b8063313ce5671161019d578063556f0dc71161016c578063556f0dc7146103175780635c975abb1461031e57806362ad1b831461032957806366cf8bce1461033c57806370a082311461034f57600080fd5b8063313ce567146102cd57806336568abe146102dc5780633f4ba83a146102ef578063458c738e146102f757600080fd5b806318160ddd116101d957806318160ddd1461027057806323b872dd14610282578063248a9ca3146102955780632f2ff15d146102b857600080fd5b806301ffc9a71461020b57806306e485381461023357806306fdde0314610248578063095ea7b31461025d575b600080fd5b61021e610219366004612538565b6104cf565b60405190151581526020015b60405180910390f35b61023b6104fa565b60405161022a91906125a6565b61025061055c565b60405161022a9190612611565b61021e61026b366004612639565b6105e5565b6034545b60405190815260200161022a565b61021e610290366004612665565b610634565b6102746102a33660046126a6565b600090815260c9602052604090206001015490565b6102cb6102c63660046126bf565b610762565b005b6040516012815260200161022a565b6102cb6102ea3660046126bf565b61078d565b6102cb61080b565b61030a6103053660046127ce565b61082f565b60405161022a919061283b565b6001610274565b60655460ff1661021e565b6102cb6103373660046128be565b6108f1565b6102cb61034a366004612a96565b61092d565b61027461035d366004612b5b565b6001600160a01b031660009081526033602052604090205490565b6102cb610aad565b6102cb610ba3565b61039b610396366004612b78565b610bc4565b6040516001600160a01b03909116815260200161022a565b61021e6103c13660046126bf565b610bdc565b6102cb6103d4366004612b5b565b610c07565b610250610c1b565b6102cb6103ef366004612b9a565b610c2a565b610274600081565b61021e61040a366004612639565b610c48565b61027461041d3660046126a6565b610d05565b6102cb6104303660046126bf565b610d1c565b61021e610443366004612bf3565b610d42565b610274610456366004612bf3565b6001600160a01b039182166000908152603b6020908152604080832093909416825291909152205490565b6102746000805160206130f683398151915281565b6102cb6104a4366004612b5b565b610de3565b6102cb6104b7366004612c21565b610df7565b6102cb6104ca366004612ca1565b610e2f565b60006001600160e01b03198216635a05180f60e01b14806104f457506104f482610e4a565b92915050565b6060603780548060200260200160405190810160405280929190818152602001828054801561055257602002820191906000526020600020905b81546001600160a01b03168152600190910190602001808311610534575b5050505050905090565b60606035805461056b90612ce8565b80601f016020809104026020016040519081016040528092919081815260200182805461059790612ce8565b80156105525780601f106105b957610100808354040283529160200191610552565b820191906000526020600020905b8154815290600101906020018083116105c757509395945050505050565b60006105f360655460ff1690565b156106195760405162461bcd60e51b815260040161061090612d23565b60405180910390fd5b6106238383610e7f565b61062d8383610ea2565b9392505050565b60006001600160a01b03831661065c5760405162461bcd60e51b815260040161061090612d4d565b6001600160a01b0384166106c15760405162461bcd60e51b815260206004820152602660248201527f4552433737373a207472616e736665722066726f6d20746865207a65726f206160448201526564647265737360d01b6064820152608401610610565b60003390506106f2818686866040518060200160405280600081525060405180602001604052806000815250610eb0565b6106fd858285610fd8565b610729818686866040518060200160405280600081525060405180602001604052806000815250611064565b61075781868686604051806020016040528060008152506040518060200160405280600081525060006111d6565b506001949350505050565b600082815260c9602052604090206001015461077e813361139b565b61078883836113ff565b505050565b6001600160a01b03811633146107fd5760405162461bcd60e51b815260206004820152602f60248201527f416363657373436f6e74726f6c3a2063616e206f6e6c792072656e6f756e636560448201526e103937b632b9903337b91039b2b63360891b6064820152608401610610565b6108078282611413565b5050565b6000805160206130f6833981519152610824813361139b565b61082c611427565b50565b60606000825167ffffffffffffffff81111561084d5761084d6126ef565b604051908082528060200260200182016040528015610876578160200160208202803683370190505b50905060005b83518110156108ea576108bd84828151811061089a5761089a612d91565b60200260200101516001600160a01b031660009081526033602052604090205490565b8282815181106108cf576108cf612d91565b60209081029190910101526108e381612dbd565b905061087c565b5092915050565b6108fb3386610d42565b6109175760405162461bcd60e51b815260040161061090612dd8565b610926858585858560016114ba565b5050505050565b83518551146109b35760405162461bcd60e51b815260206004820152604660248201527f4552433737375072657365745061757361626c655065726d697373696f6e656460448201527f3a20726563697069656e7420616e6420616d6f756e74206c656e677468206d696064820152650e6dac2e8c6d60d31b608482015260a401610610565b60005b8551811015610a5c57610a4a338783815181106109d5576109d5612d91565b60200260200101518784815181106109ef576109ef612d91565b6020026020010151878581518110610a0957610a09612d91565b6020026020010151878681518110610a2357610a23612d91565b6020026020010151878781518110610a3d57610a3d612d91565b60200260200101516114ba565b80610a5481612dbd565b9150506109b6565b50336001600160a01b03167fd5865ae34f92a2d6a803fa13140b8165046f54e61e68560b26950c62a668c6b68686868686604051610a9e959493929190612e79565b60405180910390a25050505050565b600054610100900460ff16610ac85760005460ff1615610acc565b303b155b610b2f5760405162461bcd60e51b815260206004820152602e60248201527f496e697469616c697a61626c653a20636f6e747261637420697320616c72656160448201526d191e481a5b9a5d1a585b1a5e995960921b6064820152608401610610565b600054610100900460ff16158015610b51576000805461ffff19166101011790555b610b5961159d565b610b8f336b019d971e4fe8401e740000006040518060200160405280600081525060405180602001604052806000815250611642565b801561082c576000805461ff001916905550565b6000805160206130f6833981519152610bbc813361139b565b61082c611650565b600082815260fb6020526040812061062d90836116a8565b600091825260c9602090815260408084206001600160a01b0393909316845291905290205460ff1690565b610c12816000610e7f565b61082c816116b4565b60606036805461056b90612ce8565b610788338484846040518060200160405280600081525060016114ba565b60006001600160a01b038316610c705760405162461bcd60e51b815260040161061090612d4d565b6000339050610ca1818286866040518060200160405280600081525060405180602001604052806000815250610eb0565b610ccd818286866040518060200160405280600081525060405180602001604052806000815250611064565b610cfb81828686604051806020016040528060008152506040518060200160405280600081525060006111d6565b5060019392505050565b600081815260fb602052604081206104f4906117d2565b600082815260c96020526040902060010154610d38813361139b565b6107888383611413565b6000816001600160a01b0316836001600160a01b03161480610dad57506001600160a01b03831660009081526038602052604090205460ff168015610dad57506001600160a01b038083166000908152603a602090815260408083209387168352929052205460ff16155b8061062d5750506001600160a01b0390811660009081526039602090815260408083209490931682529290925290205460ff1690565b610dee816000610e7f565b61082c816117dc565b610e013385610d42565b610e1d5760405162461bcd60e51b815260040161061090612dd8565b610e29848484846118f8565b50505050565b610807338383604051806020016040528060008152506118f8565b60006001600160e01b03198216637965db0b60e01b14806104f457506301ffc9a760e01b6001600160e01b03198316146104f4565b60655460ff16156108075760405162461bcd60e51b815260040161061090612d23565b600033610cfb818585611aba565b60405163555ddc6560e11b81526001600160a01b03861660048201527f29ddb589b1fb5fc7cf394961c1adf5f8c6454761adf795e67fe149f658abe8956024820152600090731820a4b7618bde71dce8cdc73aab6c95905fad249063aabbb8ca90604401602060405180830381865afa158015610f31573d6000803e3d6000fd5b505050506040513d601f19601f82011682018060405250810190610f559190612f0e565b90506001600160a01b03811615610fcf57604051633ad5cbc160e11b81526001600160a01b038216906375ab978290610f9c908a908a908a908a908a908a90600401612f2b565b600060405180830381600087803b158015610fb657600080fd5b505af1158015610fca573d6000803e3d6000fd5b505050505b50505050505050565b6001600160a01b038381166000908152603b60209081526040808320938616835292905220546000198114610e2957818110156110575760405162461bcd60e51b815260206004820152601e60248201527f4552433737373a20696e73756666696369656e7420616c6c6f77616e636500006044820152606401610610565b610e298484848403611aba565b61107086868686611be1565b6001600160a01b038516600090815260336020526040902054838110156110e95760405162461bcd60e51b815260206004820152602760248201527f4552433737373a207472616e7366657220616d6f756e7420657863656564732060448201526662616c616e636560c81b6064820152608401610610565b6001600160a01b03808716600090815260336020526040808220878503905591871681529081208054869290611120908490612f85565b92505081905550846001600160a01b0316866001600160a01b0316886001600160a01b03167f06b541ddaa720db2b10a4d0cdac39b8d360425fc073085fac19bc8261467798787878760405161117893929190612f9d565b60405180910390a4846001600160a01b0316866001600160a01b03167fddf252ad1be2c89b69c2b068fc378daa952ba7f163c4a11628f55a4df523b3ef866040516111c591815260200190565b60405180910390a350505050505050565b60405163555ddc6560e11b81526001600160a01b03861660048201527fb281fc8c12954d22544db45de3159a39272895b169a852b314f9cc762e44c53b6024820152600090731820a4b7618bde71dce8cdc73aab6c95905fad249063aabbb8ca90604401602060405180830381865afa158015611257573d6000803e3d6000fd5b505050506040513d601f19601f8201168201806040525081019061127b9190612f0e565b90506001600160a01b038116156112f7576040516223de2960e01b81526001600160a01b038216906223de29906112c0908b908b908b908b908b908b90600401612f2b565b600060405180830381600087803b1580156112da57600080fd5b505af11580156112ee573d6000803e3d6000fd5b50505050611391565b8115611391576001600160a01b0386163b156113915760405162461bcd60e51b815260206004820152604d60248201527f4552433737373a20746f6b656e20726563697069656e7420636f6e747261637460448201527f20686173206e6f20696d706c656d656e74657220666f7220455243373737546f60648201526c1ad95b9cd49958da5c1a595b9d609a1b608482015260a401610610565b5050505050505050565b6113a58282610bdc565b610807576113bd816001600160a01b03166014611c09565b6113c8836020611c09565b6040516020016113d9929190612fd2565b60408051601f198184030181529082905262461bcd60e51b825261061091600401612611565b6114098282610e7f565b6108078282611da5565b61141d8282610e7f565b6108078282611dc7565b60655460ff166114705760405162461bcd60e51b815260206004820152601460248201527314185d5cd8589b194e881b9bdd081c185d5cd95960621b6044820152606401610610565b6065805460ff191690557f5db9ee0a495bf2e6ff9c91a7834c1ba4fdd244a5e8aa4e537bd38aeae4b073aa335b6040516001600160a01b03909116815260200160405180910390a1565b6001600160a01b03861661151b5760405162461bcd60e51b815260206004820152602260248201527f4552433737373a2073656e642066726f6d20746865207a65726f206164647265604482015261737360f01b6064820152608401610610565b6001600160a01b0385166115715760405162461bcd60e51b815260206004820181905260248201527f4552433737373a2073656e6420746f20746865207a65726f20616464726573736044820152606401610610565b33611580818888888888610eb0565b61158e818888888888611064565b610fcf818888888888886111d6565b600054610100900460ff166115c45760405162461bcd60e51b815260040161061090613047565b6115cc611de9565b6115d4611de9565b6115dc611de9565b6115e4611de9565b6115ec611e10565b6115f4611e43565b6040805180820182526004808252634e4f524960e01b6020808401829052845180860186529283528281019190915283516000815290810190935261163892611e8d565b611640611de9565b565b610e29848484846001612077565b60655460ff16156116735760405162461bcd60e51b815260040161061090612d23565b6065805460ff191660011790557f62e78cea01bee320cd4e420270b5ea74000d11b0c9f74754ebdbfc544b05a25861149d3390565b600061062d83836121bd565b336001600160a01b03821614156117195760405162461bcd60e51b8152602060048201526024808201527f4552433737373a20617574686f72697a696e672073656c66206173206f70657260448201526330ba37b960e11b6064820152608401610610565b6001600160a01b03811660009081526038602052604090205460ff161561176a57336000908152603a602090815260408083206001600160a01b03851684529091529020805460ff19169055611799565b3360009081526039602090815260408083206001600160a01b03851684529091529020805460ff191660011790555b60405133906001600160a01b038316907ff4caeb2d6ca8932a215a353d0703c326ec2d81fc68170f320eb2ab49e9df61f990600090a350565b60006104f4825490565b6001600160a01b03811633141561183f5760405162461bcd60e51b815260206004820152602160248201527f4552433737373a207265766f6b696e672073656c66206173206f70657261746f6044820152603960f91b6064820152608401610610565b6001600160a01b03811660009081526038602052604090205460ff161561189357336000908152603a602090815260408083206001600160a01b03851684529091529020805460ff191660011790556118bf565b3360009081526039602090815260408083206001600160a01b03851684529091529020805460ff191690555b60405133906001600160a01b038316907f50546e66e5f44d728365dc3908c63bc5cfeeab470722c1677e3073a6ac294aa190600090a350565b6001600160a01b0384166119595760405162461bcd60e51b815260206004820152602260248201527f4552433737373a206275726e2066726f6d20746865207a65726f206164647265604482015261737360f01b6064820152608401610610565b3361196981866000878787610eb0565b6119768186600087611be1565b6001600160a01b038516600090815260336020526040902054848110156119eb5760405162461bcd60e51b815260206004820152602360248201527f4552433737373a206275726e20616d6f756e7420657863656564732062616c616044820152626e636560e81b6064820152608401610610565b6001600160a01b0386166000908152603360205260408120868303905560348054879290611a1a908490613092565b92505081905550856001600160a01b0316826001600160a01b03167fa78a9be3a7b862d26933ad85fb11d80ef66b8f972d7cbba06621d583943a4098878787604051611a6893929190612f9d565b60405180910390a36040518581526000906001600160a01b038816907fddf252ad1be2c89b69c2b068fc378daa952ba7f163c4a11628f55a4df523b3ef906020015b60405180910390a3505050505050565b6001600160a01b038316611b1e5760405162461bcd60e51b815260206004820152602560248201527f4552433737373a20617070726f76652066726f6d20746865207a65726f206164604482015264647265737360d81b6064820152608401610610565b6001600160a01b038216611b805760405162461bcd60e51b815260206004820152602360248201527f4552433737373a20617070726f766520746f20746865207a65726f206164647260448201526265737360e81b6064820152608401610610565b6001600160a01b038381166000818152603b602090815260408083209487168084529482529182902085905590518481527f8c5be1e5ebec7d5bd14f71427d1e84f3dd0314c0f7b2291e5b200ac8c7c3b925910160405180910390a3505050565b60655460ff1615611c045760405162461bcd60e51b815260040161061090612d23565b610e29565b60606000611c188360026130a9565b611c23906002612f85565b67ffffffffffffffff811115611c3b57611c3b6126ef565b6040519080825280601f01601f191660200182016040528015611c65576020820181803683370190505b509050600360fc1b81600081518110611c8057611c80612d91565b60200101906001600160f81b031916908160001a905350600f60fb1b81600181518110611caf57611caf612d91565b60200101906001600160f81b031916908160001a9053506000611cd38460026130a9565b611cde906001612f85565b90505b6001811115611d56576f181899199a1a9b1b9c1cb0b131b232b360811b85600f1660108110611d1257611d12612d91565b1a60f81b828281518110611d2857611d28612d91565b60200101906001600160f81b031916908160001a90535060049490941c93611d4f816130c8565b9050611ce1565b50831561062d5760405162461bcd60e51b815260206004820181905260248201527f537472696e67733a20686578206c656e67746820696e73756666696369656e746044820152606401610610565b611daf82826121e7565b600082815260fb60205260409020610788908261226d565b611dd18282612282565b600082815260fb6020526040902061078890826122e9565b600054610100900460ff166116405760405162461bcd60e51b815260040161061090613047565b600054610100900460ff16611e375760405162461bcd60e51b815260040161061090613047565b6065805460ff19169055565b600054610100900460ff16611e6a5760405162461bcd60e51b815260040161061090613047565b611e756000336122fe565b6116406000805160206130f6833981519152336122fe565b600054610100900460ff16611eb45760405162461bcd60e51b815260040161061090613047565b8251611ec790603590602086019061244a565b508151611edb90603690602085019061244a565b508051611eef9060379060208401906124ce565b5060005b8151811015611f5857600160386000848481518110611f1457611f14612d91565b6020908102919091018101516001600160a01b03168252810191909152604001600020805460ff191691151591909117905580611f5081612dbd565b915050611ef3565b506040516329965a1d60e01b815230600482018190527fac7fbab5f54a3ca8194167523c6753bfeb96a445279294b6125b68cce217705460248301526044820152731820a4b7618bde71dce8cdc73aab6c95905fad24906329965a1d90606401600060405180830381600087803b158015611fd257600080fd5b505af1158015611fe6573d6000803e3d6000fd5b50506040516329965a1d60e01b815230600482018190527faea199e31a596269b42cdafd93407f14436db6e4cad65417994c2eb37381e05a60248301526044820152731820a4b7618bde71dce8cdc73aab6c95905fad2492506329965a1d9150606401600060405180830381600087803b15801561206357600080fd5b505af1158015610fcf573d6000803e3d6000fd5b6001600160a01b0385166120cd5760405162461bcd60e51b815260206004820181905260248201527f4552433737373a206d696e7420746f20746865207a65726f20616464726573736044820152606401610610565b336120db8160008888611be1565b84603460008282546120ed9190612f85565b90915550506001600160a01b0386166000908152603360205260408120805487929061211a908490612f85565b90915550612130905081600088888888886111d6565b856001600160a01b0316816001600160a01b03167f2fe5be0146f74c5bce36c0b80911af6c7d86ff27e89d5cfa61fc681327954e5d87878760405161217793929190612f9d565b60405180910390a36040518581526001600160a01b038716906000907fddf252ad1be2c89b69c2b068fc378daa952ba7f163c4a11628f55a4df523b3ef90602001611aaa565b60008260000182815481106121d4576121d4612d91565b9060005260206000200154905092915050565b6121f18282610bdc565b61080757600082815260c9602090815260408083206001600160a01b03851684529091529020805460ff191660011790556122293390565b6001600160a01b0316816001600160a01b0316837f2f8788117e7eff1d82e926ec794901d17c78024a50270940304540a733656f0d60405160405180910390a45050565b600061062d836001600160a01b038416612308565b61228c8282610bdc565b1561080757600082815260c9602090815260408083206001600160a01b0385168085529252808320805460ff1916905551339285917ff6391f5c32d9c69d2a47ea670b442974b53935d1edc7fd64eb21e047a839171b9190a45050565b600061062d836001600160a01b038416612357565b61080782826113ff565b600081815260018301602052604081205461234f575081546001818101845560008481526020808220909301849055845484825282860190935260409020919091556104f4565b5060006104f4565b6000818152600183016020526040812054801561244057600061237b600183613092565b855490915060009061238f90600190613092565b90508181146123f45760008660000182815481106123af576123af612d91565b90600052602060002001549050808760000184815481106123d2576123d2612d91565b6000918252602080832090910192909255918252600188019052604090208390555b8554869080612405576124056130df565b6001900381819060005260206000200160009055905585600101600086815260200190815260200160002060009055600193505050506104f4565b60009150506104f4565b82805461245690612ce8565b90600052602060002090601f01602090048101928261247857600085556124be565b82601f1061249157805160ff19168380011785556124be565b828001600101855582156124be579182015b828111156124be5782518255916020019190600101906124a3565b506124ca929150612523565b5090565b8280548282559060005260206000209081019282156124be579160200282015b828111156124be57825182546001600160a01b0319166001600160a01b039091161782556020909201916001909101906124ee565b5b808211156124ca5760008155600101612524565b60006020828403121561254a57600080fd5b81356001600160e01b03198116811461062d57600080fd5b600081518084526020808501945080840160005b8381101561259b5781516001600160a01b031687529582019590820190600101612576565b509495945050505050565b60208152600061062d6020830184612562565b60005b838110156125d45781810151838201526020016125bc565b83811115610e295750506000910152565b600081518084526125fd8160208601602086016125b9565b601f01601f19169290920160200192915050565b60208152600061062d60208301846125e5565b6001600160a01b038116811461082c57600080fd5b6000806040838503121561264c57600080fd5b823561265781612624565b946020939093013593505050565b60008060006060848603121561267a57600080fd5b833561268581612624565b9250602084013561269581612624565b929592945050506040919091013590565b6000602082840312156126b857600080fd5b5035919050565b600080604083850312156126d257600080fd5b8235915060208301356126e481612624565b809150509250929050565b634e487b7160e01b600052604160045260246000fd5b604051601f8201601f1916810167ffffffffffffffff8111828210171561272e5761272e6126ef565b604052919050565b600067ffffffffffffffff821115612750576127506126ef565b5060051b60200190565b600082601f83011261276b57600080fd5b8135602061278061277b83612736565b612705565b82815260059290921b8401810191818101908684111561279f57600080fd5b8286015b848110156127c35780356127b681612624565b83529183019183016127a3565b509695505050505050565b6000602082840312156127e057600080fd5b813567ffffffffffffffff8111156127f757600080fd5b6128038482850161275a565b949350505050565b600081518084526020808501945080840160005b8381101561259b5781518752958201959082019060010161281f565b60208152600061062d602083018461280b565b600082601f83011261285f57600080fd5b813567ffffffffffffffff811115612879576128796126ef565b61288c601f8201601f1916602001612705565b8181528460208386010111156128a157600080fd5b816020850160208301376000918101602001919091529392505050565b600080600080600060a086880312156128d657600080fd5b85356128e181612624565b945060208601356128f181612624565b935060408601359250606086013567ffffffffffffffff8082111561291557600080fd5b61292189838a0161284e565b9350608088013591508082111561293757600080fd5b506129448882890161284e565b9150509295509295909350565b600082601f83011261296257600080fd5b8135602061297261277b83612736565b82815260059290921b8401810191818101908684111561299157600080fd5b8286015b848110156127c35780358352918301918301612995565b600082601f8301126129bd57600080fd5b813560206129cd61277b83612736565b82815260059290921b840181019181810190868411156129ec57600080fd5b8286015b848110156127c357803567ffffffffffffffff811115612a105760008081fd5b612a1e8986838b010161284e565b8452509183019183016129f0565b600082601f830112612a3d57600080fd5b81356020612a4d61277b83612736565b82815260059290921b84018101918181019086841115612a6c57600080fd5b8286015b848110156127c35780358015158114612a895760008081fd5b8352918301918301612a70565b600080600080600060a08688031215612aae57600080fd5b853567ffffffffffffffff80821115612ac657600080fd5b612ad289838a0161275a565b96506020880135915080821115612ae857600080fd5b612af489838a01612951565b95506040880135915080821115612b0a57600080fd5b612b1689838a016129ac565b94506060880135915080821115612b2c57600080fd5b612b3889838a016129ac565b93506080880135915080821115612b4e57600080fd5b5061294488828901612a2c565b600060208284031215612b6d57600080fd5b813561062d81612624565b60008060408385031215612b8b57600080fd5b50508035926020909101359150565b600080600060608486031215612baf57600080fd5b8335612bba81612624565b925060208401359150604084013567ffffffffffffffff811115612bdd57600080fd5b612be98682870161284e565b9150509250925092565b60008060408385031215612c0657600080fd5b8235612c1181612624565b915060208301356126e481612624565b60008060008060808587031215612c3757600080fd5b8435612c4281612624565b935060208501359250604085013567ffffffffffffffff80821115612c6657600080fd5b612c728883890161284e565b93506060870135915080821115612c8857600080fd5b50612c958782880161284e565b91505092959194509250565b60008060408385031215612cb457600080fd5b82359150602083013567ffffffffffffffff811115612cd257600080fd5b612cde8582860161284e565b9150509250929050565b600181811c90821680612cfc57607f821691505b60208210811415612d1d57634e487b7160e01b600052602260045260246000fd5b50919050565b60208082526010908201526f14185d5cd8589b194e881c185d5cd95960821b604082015260600190565b60208082526024908201527f4552433737373a207472616e7366657220746f20746865207a65726f206164646040820152637265737360e01b606082015260800190565b634e487b7160e01b600052603260045260246000fd5b634e487b7160e01b600052601160045260246000fd5b6000600019821415612dd157612dd1612da7565b5060010190565b6020808252602c908201527f4552433737373a2063616c6c6572206973206e6f7420616e206f70657261746f60408201526b39103337b9103437b63232b960a11b606082015260800190565b600081518084526020808501808196508360051b8101915082860160005b85811015612e6c578284038952612e5a8483516125e5565b98850198935090840190600101612e42565b5091979650505050505050565b60a081526000612e8c60a0830188612562565b602083820381850152612e9f828961280b565b91508382036040850152612eb38288612e24565b91508382036060850152612ec78287612e24565b8481036080860152855180825282870193509082019060005b81811015612efe578451151583529383019391830191600101612ee0565b50909a9950505050505050505050565b600060208284031215612f2057600080fd5b815161062d81612624565b6001600160a01b0387811682528681166020830152851660408201526060810184905260c060808201819052600090612f66908301856125e5565b82810360a0840152612f7881856125e5565b9998505050505050505050565b60008219821115612f9857612f98612da7565b500190565b838152606060208201526000612fb660608301856125e5565b8281036040840152612fc881856125e5565b9695505050505050565b7f416363657373436f6e74726f6c3a206163636f756e742000000000000000000081526000835161300a8160178501602088016125b9565b7001034b99036b4b9b9b4b733903937b6329607d1b601791840191820152835161303b8160288401602088016125b9565b01602801949350505050565b6020808252602b908201527f496e697469616c697a61626c653a20636f6e7472616374206973206e6f74206960408201526a6e697469616c697a696e6760a81b606082015260800190565b6000828210156130a4576130a4612da7565b500390565b60008160001904831182151516156130c3576130c3612da7565b500290565b6000816130d7576130d7612da7565b506000190190565b634e487b7160e01b600052603160045260246000fdfe65d7a28e3265b37a6474929f336521b332c1681b933f6cb9f3376673440d862aa26469706673582212208717545d3371cb0d05166a8ebea126741f31a280ce0b323879be0a0efecd03e864736f6c634300080a0033",
  "linkReferences": {},
  "deployedLinkReferences": {}
}