{
  "_format": "hh-sol-artifact-1",
  "contractName": "ERC1155PresetPausableNonTransferrable",
  "sourceName": "contracts/ERC1155PresetPausableNonTransferrable.sol",
  "abi": [
    {
      "inputs": [],
      "stateMutability": "nonpayable",
      "type": "constructor"
    },
    {
      "inputs": [],
      "name": "ForbiddenTransferAfterMinting",
      "type": "error"
    },
    {
      "anonymous": false,
      "inputs": [
        {
          "indexed": true,
          "internalType": "address",
          "name": "account",
          "type": "address"
        },
        {
          "indexed": true,
          "internalType": "address",
          "name": "operator",
          "type": "address"
        },
        {
          "indexed": false,
          "internalType": "bool",
          "name": "approved",
          "type": "bool"
        }
      ],
      "name": "ApprovalForAll",
      "type": "event"
    },
    {
      "anonymous": false,
      "inputs": [
        {
          "indexed": false,
          "internalType": "uint8",
          "name": "version",
          "type": "uint8"
        }
      ],
      "name": "Initialized",
      "type": "event"
    },
    {
      "anonymous": false,
      "inputs": [
        {
          "indexed": false,
          "internalType": "address",
          "name": "account",
          "type": "address"
        }
      ],
      "name": "Paused",
      "type": "event"
    },
    {
      "anonymous": false,
      "inputs": [
        {
          "indexed": true,
          "internalType": "bytes32",
          "name": "role",
          "type": "bytes32"
        },
        {
          "indexed": true,
          "internalType": "bytes32",
          "name": "previousAdminRole",
          "type": "bytes32"
        },
        {
          "indexed": true,
          "internalType": "bytes32",
          "name": "newAdminRole",
          "type": "bytes32"
        }
      ],
      "name": "RoleAdminChanged",
      "type": "event"
    },
    {
      "anonymous": false,
      "inputs": [
        {
          "indexed": true,
          "internalType": "bytes32",
          "name": "role",
          "type": "bytes32"
        },
        {
          "indexed": true,
          "internalType": "address",
          "name": "account",
          "type": "address"
        },
        {
          "indexed": true,
          "internalType": "address",
          "name": "sender",
          "type": "address"
        }
      ],
      "name": "RoleGranted",
      "type": "event"
    },
    {
      "anonymous": false,
      "inputs": [
        {
          "indexed": true,
          "internalType": "bytes32",
          "name": "role",
          "type": "bytes32"
        },
        {
          "indexed": true,
          "internalType": "address",
          "name": "account",
          "type": "address"
        },
        {
          "indexed": true,
          "internalType": "address",
          "name": "sender",
          "type": "address"
        }
      ],
      "name": "RoleRevoked",
      "type": "event"
    },
    {
      "anonymous": false,
      "inputs": [
        {
          "indexed": true,
          "internalType": "address",
          "name": "operator",
          "type": "address"
        },
        {
          "indexed": true,
          "internalType": "address",
          "name": "from",
          "type": "address"
        },
        {
          "indexed": true,
          "internalType": "address",
          "name": "to",
          "type": "address"
        },
        {
          "indexed": false,
          "internalType": "uint256[]",
          "name": "ids",
          "type": "uint256[]"
        },
        {
          "indexed": false,
          "internalType": "uint256[]",
          "name": "values",
          "type": "uint256[]"
        }
      ],
      "name": "TransferBatch",
      "type": "event"
    },
    {
      "anonymous": false,
      "inputs": [
        {
          "indexed": true,
          "internalType": "address",
          "name": "operator",
          "type": "address"
        },
        {
          "indexed": true,
          "internalType": "address",
          "name": "from",
          "type": "address"
        },
        {
          "indexed": true,
          "internalType": "address",
          "name": "to",
          "type": "address"
        },
        {
          "indexed": false,
          "internalType": "uint256",
          "name": "id",
          "type": "uint256"
        },
        {
          "indexed": false,
          "internalType": "uint256",
          "name": "value",
          "type": "uint256"
        }
      ],
      "name": "TransferSingle",
      "type": "event"
    },
    {
      "anonymous": false,
      "inputs": [
        {
          "indexed": false,
          "internalType": "string",
          "name": "value",
          "type": "string"
        },
        {
          "indexed": true,
          "internalType": "uint256",
          "name": "id",
          "type": "uint256"
        }
      ],
      "name": "URI",
      "type": "event"
    },
    {
      "anonymous": false,
      "inputs": [
        {
          "indexed": false,
          "internalType": "address",
          "name": "account",
          "type": "address"
        }
      ],
      "name": "Unpaused",
      "type": "event"
    },
    {
      "inputs": [],
      "name": "CERTIFICATE_OPERATOR_ROLE",
      "outputs": [
        {
          "internalType": "bytes32",
          "name": "",
          "type": "bytes32"
        }
      ],
      "stateMutability": "view",
      "type": "function"
    },
    {
      "inputs": [],
      "name": "DEFAULT_ADMIN_ROLE",
      "outputs": [
        {
          "internalType": "bytes32",
          "name": "",
          "type": "bytes32"
        }
      ],
      "stateMutability": "view",
      "type": "function"
    },
    {
      "inputs": [],
      "name": "MINTER_ROLE",
      "outputs": [
        {
          "internalType": "bytes32",
          "name": "",
          "type": "bytes32"
        }
      ],
      "stateMutability": "view",
      "type": "function"
    },
    {
      "inputs": [],
      "name": "PAUSER_ROLE",
      "outputs": [
        {
          "internalType": "bytes32",
          "name": "",
          "type": "bytes32"
        }
      ],
      "stateMutability": "view",
      "type": "function"
    },
    {
      "inputs": [
        {
          "internalType": "address",
          "name": "account",
          "type": "address"
        },
        {
          "internalType": "uint256",
          "name": "id",
          "type": "uint256"
        }
      ],
      "name": "balanceOf",
      "outputs": [
        {
          "internalType": "uint256",
          "name": "",
          "type": "uint256"
        }
      ],
      "stateMutability": "view",
      "type": "function"
    },
    {
      "inputs": [
        {
          "internalType": "address[]",
          "name": "accounts",
          "type": "address[]"
        },
        {
          "internalType": "uint256[]",
          "name": "ids",
          "type": "uint256[]"
        }
      ],
      "name": "balanceOfBatch",
      "outputs": [
        {
          "internalType": "uint256[]",
          "name": "",
          "type": "uint256[]"
        }
      ],
      "stateMutability": "view",
      "type": "function"
    },
    {
      "inputs": [
        {
          "internalType": "address",
          "name": "account",
          "type": "address"
        },
        {
          "internalType": "uint256",
          "name": "id",
          "type": "uint256"
        },
        {
          "internalType": "uint256",
          "name": "value",
          "type": "uint256"
        }
      ],
      "name": "burn",
      "outputs": [],
      "stateMutability": "nonpayable",
      "type": "function"
    },
    {
      "inputs": [
        {
          "internalType": "address",
          "name": "account",
          "type": "address"
        },
        {
          "internalType": "uint256[]",
          "name": "ids",
          "type": "uint256[]"
        },
        {
          "internalType": "uint256[]",
          "name": "values",
          "type": "uint256[]"
        }
      ],
      "name": "burnBatch",
      "outputs": [],
      "stateMutability": "nonpayable",
      "type": "function"
    },
    {
      "inputs": [
        {
          "internalType": "uint256",
          "name": "id",
          "type": "uint256"
        }
      ],
      "name": "exists",
      "outputs": [
        {
          "internalType": "bool",
          "name": "",
          "type": "bool"
        }
      ],
      "stateMutability": "view",
      "type": "function"
    },
    {
      "inputs": [
        {
          "internalType": "bytes32",
          "name": "role",
          "type": "bytes32"
        }
      ],
      "name": "getRoleAdmin",
      "outputs": [
        {
          "internalType": "bytes32",
          "name": "",
          "type": "bytes32"
        }
      ],
      "stateMutability": "view",
      "type": "function"
    },
    {
      "inputs": [
        {
          "internalType": "bytes32",
          "name": "role",
          "type": "bytes32"
        },
        {
          "internalType": "uint256",
          "name": "index",
          "type": "uint256"
        }
      ],
      "name": "getRoleMember",
      "outputs": [
        {
          "internalType": "address",
          "name": "",
          "type": "address"
        }
      ],
      "stateMutability": "view",
      "type": "function"
    },
    {
      "inputs": [
        {
          "internalType": "bytes32",
          "name": "role",
          "type": "bytes32"
        }
      ],
      "name": "getRoleMemberCount",
      "outputs": [
        {
          "internalType": "uint256",
          "name": "",
          "type": "uint256"
        }
      ],
      "stateMutability": "view",
      "type": "function"
    },
    {
      "inputs": [
        {
          "internalType": "bytes32",
          "name": "role",
          "type": "bytes32"
        },
        {
          "internalType": "address",
          "name": "account",
          "type": "address"
        }
      ],
      "name": "grantRole",
      "outputs": [],
      "stateMutability": "nonpayable",
      "type": "function"
    },
    {
      "inputs": [
        {
          "internalType": "bytes32",
          "name": "role",
          "type": "bytes32"
        },
        {
          "internalType": "address",
          "name": "account",
          "type": "address"
        }
      ],
      "name": "hasRole",
      "outputs": [
        {
          "internalType": "bool",
          "name": "",
          "type": "bool"
        }
      ],
      "stateMutability": "view",
      "type": "function"
    },
    {
      "inputs": [
        {
          "internalType": "string",
          "name": "uri",
          "type": "string"
        }
      ],
      "name": "initialize",
      "outputs": [],
      "stateMutability": "nonpayable",
      "type": "function"
    },
    {
      "inputs": [
        {
          "internalType": "address",
          "name": "account",
          "type": "address"
        },
        {
          "internalType": "address",
          "name": "operator",
          "type": "address"
        }
      ],
      "name": "isApprovedForAll",
      "outputs": [
        {
          "internalType": "bool",
          "name": "",
          "type": "bool"
        }
      ],
      "stateMutability": "view",
      "type": "function"
    },
    {
      "inputs": [
        {
          "internalType": "address",
          "name": "to",
          "type": "address"
        },
        {
          "internalType": "uint256",
          "name": "id",
          "type": "uint256"
        },
        {
          "internalType": "uint256",
          "name": "amount",
          "type": "uint256"
        },
        {
          "internalType": "bytes",
          "name": "data",
          "type": "bytes"
        }
      ],
      "name": "mint",
      "outputs": [],
      "stateMutability": "nonpayable",
      "type": "function"
    },
    {
      "inputs": [
        {
          "internalType": "address",
          "name": "to",
          "type": "address"
        },
        {
          "internalType": "uint256[]",
          "name": "ids",
          "type": "uint256[]"
        },
        {
          "internalType": "uint256[]",
          "name": "amounts",
          "type": "uint256[]"
        },
        {
          "internalType": "bytes",
          "name": "data",
          "type": "bytes"
        }
      ],
      "name": "mintBatch",
      "outputs": [],
      "stateMutability": "nonpayable",
      "type": "function"
    },
    {
      "inputs": [],
      "name": "pause",
      "outputs": [],
      "stateMutability": "nonpayable",
      "type": "function"
    },
    {
      "inputs": [],
      "name": "paused",
      "outputs": [
        {
          "internalType": "bool",
          "name": "",
          "type": "bool"
        }
      ],
      "stateMutability": "view",
      "type": "function"
    },
    {
      "inputs": [
        {
          "internalType": "bytes32",
          "name": "role",
          "type": "bytes32"
        },
        {
          "internalType": "address",
          "name": "account",
          "type": "address"
        }
      ],
      "name": "renounceRole",
      "outputs": [],
      "stateMutability": "nonpayable",
      "type": "function"
    },
    {
      "inputs": [
        {
          "internalType": "bytes32",
          "name": "role",
          "type": "bytes32"
        },
        {
          "internalType": "address",
          "name": "account",
          "type": "address"
        }
      ],
      "name": "revokeRole",
      "outputs": [],
      "stateMutability": "nonpayable",
      "type": "function"
    },
    {
      "inputs": [
        {
          "internalType": "address",
          "name": "from",
          "type": "address"
        },
        {
          "internalType": "address",
          "name": "to",
          "type": "address"
        },
        {
          "internalType": "uint256[]",
          "name": "ids",
          "type": "uint256[]"
        },
        {
          "internalType": "uint256[]",
          "name": "amounts",
          "type": "uint256[]"
        },
        {
          "internalType": "bytes",
          "name": "data",
          "type": "bytes"
        }
      ],
      "name": "safeBatchTransferFrom",
      "outputs": [],
      "stateMutability": "nonpayable",
      "type": "function"
    },
    {
      "inputs": [
        {
          "internalType": "address",
          "name": "from",
          "type": "address"
        },
        {
          "internalType": "address",
          "name": "to",
          "type": "address"
        },
        {
          "internalType": "uint256",
          "name": "id",
          "type": "uint256"
        },
        {
          "internalType": "uint256",
          "name": "amount",
          "type": "uint256"
        },
        {
          "internalType": "bytes",
          "name": "data",
          "type": "bytes"
        }
      ],
      "name": "safeTransferFrom",
      "outputs": [],
      "stateMutability": "nonpayable",
      "type": "function"
    },
    {
      "inputs": [
        {
          "internalType": "address",
          "name": "operator",
          "type": "address"
        },
        {
          "internalType": "bool",
          "name": "approved",
          "type": "bool"
        }
      ],
      "name": "setApprovalForAll",
      "outputs": [],
      "stateMutability": "nonpayable",
      "type": "function"
    },
    {
      "inputs": [
        {
          "internalType": "bytes4",
          "name": "interfaceId",
          "type": "bytes4"
        }
      ],
      "name": "supportsInterface",
      "outputs": [
        {
          "internalType": "bool",
          "name": "",
          "type": "bool"
        }
      ],
      "stateMutability": "view",
      "type": "function"
    },
    {
      "inputs": [
        {
          "internalType": "uint256",
          "name": "id",
          "type": "uint256"
        }
      ],
      "name": "totalSupply",
      "outputs": [
        {
          "internalType": "uint256",
          "name": "",
          "type": "uint256"
        }
      ],
      "stateMutability": "view",
      "type": "function"
    },
    {
      "inputs": [],
      "name": "unpause",
      "outputs": [],
      "stateMutability": "nonpayable",
      "type": "function"
    },
    {
      "inputs": [
        {
          "internalType": "uint256",
          "name": "",
          "type": "uint256"
        }
      ],
      "name": "uri",
      "outputs": [
        {
          "internalType": "string",
          "name": "",
          "type": "string"
        }
      ],
      "stateMutability": "view",
      "type": "function"
    }
  ],
  "bytecode": "0x60806040523480156200001157600080fd5b506200001c62000022565b62000152565b6200002e60ff62000031565b50565b60008054610100900460ff1615620000ca578160ff1660011480156200006a575062000068306200014360201b62000fe61760201c565b155b620000c25760405162461bcd60e51b815260206004820152602e60248201526000805160206200456383398151915260448201526d191e481a5b9a5d1a585b1a5e995960921b60648201526084015b60405180910390fd5b506000919050565b60005460ff808416911610620001295760405162461bcd60e51b815260206004820152602e60248201526000805160206200456383398151915260448201526d191e481a5b9a5d1a585b1a5e995960921b6064820152608401620000b9565b506000805460ff191660ff92909216919091179055600190565b6001600160a01b03163b151590565b61440180620001626000396000f3fe608060405234801561001057600080fd5b50600436106101ce5760003560e01c8063731133e911610104578063ca15c873116100a2578063e985e9c511610071578063e985e9c514610485578063f242432a146104ce578063f5298aca146104e1578063f62d1888146104f457600080fd5b8063ca15c87314610411578063d539139314610424578063d547741f1461044b578063e63ab1e91461045e57600080fd5b806391d14854116100de57806391d1485414610390578063a217fddf146103d6578063a22cb465146103de578063bd85b039146103f157600080fd5b8063731133e91461033d5780638456cb59146103505780639010d07c1461035857600080fd5b80632f2ff15d116101715780634e1273f41161014b5780634e1273f4146102dc5780634f558e79146102fc5780635c975abb1461031e5780636b20c4541461032a57600080fd5b80632f2ff15d146102ae57806336568abe146102c15780633f4ba83a146102d457600080fd5b80631f7fdffa116101ad5780631f7fdffa1461023c578063248a9ca31461025157806326c6da4f146102745780632eb2c2d61461029b57600080fd5b8062fdd58e146101d357806301ffc9a7146101f95780630e89341c1461021c575b600080fd5b6101e66101e13660046136e3565b610507565b6040519081526020015b60405180910390f35b61020c61020736600461373b565b6105e9565b60405190151581526020016101f0565b61022f61022a366004613758565b6105f4565b6040516101f091906137e7565b61024f61024a3660046139a5565b610688565b005b6101e661025f366004613758565b60009081526065602052604090206001015490565b6101e67fb6eeb50d1ea0d876d560efb18b8017323347ce323ef4b05d5a0322c9c7869f8f81565b61024f6102a9366004613a3e565b610750565b61024f6102bc366004613ae8565b610819565b61024f6102cf366004613ae8565b610843565b61024f6108f6565b6102ef6102ea366004613b14565b6109b6565b6040516101f09190613c1a565b61020c61030a366004613758565b600090815260fb6020526040902054151590565b61015f5460ff1661020c565b61024f610338366004613c2d565b610b0e565b61024f61034b366004613ca1565b610bce565b61024f610c90565b61036b610366366004613cf6565b610d4e565b60405173ffffffffffffffffffffffffffffffffffffffff90911681526020016101f0565b61020c61039e366004613ae8565b600091825260656020908152604080842073ffffffffffffffffffffffffffffffffffffffff93909316845291905290205460ff1690565b6101e6600081565b61024f6103ec366004613d18565b610d6d565b6101e66103ff366004613758565b600090815260fb602052604090205490565b6101e661041f366004613758565b610d78565b6101e67f9f2df0fed2c77648de5860a4cc508cd0818c85b8b8a1ab4ceeef8d981c8956a681565b61024f610459366004613ae8565b610d8f565b6101e67f65d7a28e3265b37a6474929f336521b332c1681b933f6cb9f3376673440d862a81565b61020c610493366004613d54565b73ffffffffffffffffffffffffffffffffffffffff918216600090815260ca6020908152604080832093909416825291909152205460ff1690565b61024f6104dc366004613d7e565b610db4565b61024f6104ef366004613de3565b610e76565b61024f610502366004613e16565b610f36565b600073ffffffffffffffffffffffffffffffffffffffff83166105b1576040517f08c379a000000000000000000000000000000000000000000000000000000000815260206004820152602b60248201527f455243313135353a2062616c616e636520717565727920666f7220746865207a60448201527f65726f206164647265737300000000000000000000000000000000000000000060648201526084015b60405180910390fd5b50600081815260c96020908152604080832073ffffffffffffffffffffffffffffffffffffffff861684529091529020545b92915050565b60006105e382611002565b606060cb805461060390613e67565b80601f016020809104026020016040519081016040528092919081815260200182805461062f90613e67565b801561067c5780601f106106515761010080835404028352916020019161067c565b820191906000526020600020905b81548152906001019060200180831161065f57829003601f168201915b50505050509050919050565b6106b27f9f2df0fed2c77648de5860a4cc508cd0818c85b8b8a1ab4ceeef8d981c8956a63361039e565b61073e576040517f08c379a000000000000000000000000000000000000000000000000000000000815260206004820152603860248201527f455243313135355072657365744d696e7465725061757365723a206d7573742060448201527f68617665206d696e74657220726f6c6520746f206d696e74000000000000000060648201526084016105a8565b61074a8484848461100d565b50505050565b73ffffffffffffffffffffffffffffffffffffffff851633148061077957506107798533610493565b610805576040517f08c379a000000000000000000000000000000000000000000000000000000000815260206004820152603260248201527f455243313135353a207472616e736665722063616c6c6572206973206e6f742060448201527f6f776e6572206e6f7220617070726f766564000000000000000000000000000060648201526084016105a8565b6108128585858585611296565b5050505050565b600082815260656020526040902060010154610834816115e1565b61083e83836115ee565b505050565b73ffffffffffffffffffffffffffffffffffffffff811633146108e8576040517f08c379a000000000000000000000000000000000000000000000000000000000815260206004820152602f60248201527f416363657373436f6e74726f6c3a2063616e206f6e6c792072656e6f756e636560448201527f20726f6c657320666f722073656c66000000000000000000000000000000000060648201526084016105a8565b6108f28282611610565b5050565b6109207f65d7a28e3265b37a6474929f336521b332c1681b933f6cb9f3376673440d862a3361039e565b6109ac576040517f08c379a000000000000000000000000000000000000000000000000000000000815260206004820152603b60248201527f455243313135355072657365744d696e7465725061757365723a206d7573742060448201527f686176652070617573657220726f6c6520746f20756e7061757365000000000060648201526084016105a8565b6109b4611632565b565b60608151835114610a49576040517f08c379a000000000000000000000000000000000000000000000000000000000815260206004820152602960248201527f455243313135353a206163636f756e747320616e6420696473206c656e67746860448201527f206d69736d61746368000000000000000000000000000000000000000000000060648201526084016105a8565b6000835167ffffffffffffffff811115610a6557610a656137fa565b604051908082528060200260200182016040528015610a8e578160200160208202803683370190505b50905060005b8451811015610b0657610ad9858281518110610ab257610ab2613eba565b6020026020010151858381518110610acc57610acc613eba565b6020026020010151610507565b828281518110610aeb57610aeb613eba565b6020908102919091010152610aff81613f18565b9050610a94565b509392505050565b73ffffffffffffffffffffffffffffffffffffffff8316331480610b375750610b378333610493565b610bc3576040517f08c379a000000000000000000000000000000000000000000000000000000000815260206004820152602960248201527f455243313135353a2063616c6c6572206973206e6f74206f776e6572206e6f7260448201527f20617070726f766564000000000000000000000000000000000000000000000060648201526084016105a8565b61083e838383611715565b610bf87f9f2df0fed2c77648de5860a4cc508cd0818c85b8b8a1ab4ceeef8d981c8956a63361039e565b610c84576040517f08c379a000000000000000000000000000000000000000000000000000000000815260206004820152603860248201527f455243313135355072657365744d696e7465725061757365723a206d7573742060448201527f68617665206d696e74657220726f6c6520746f206d696e74000000000000000060648201526084016105a8565b61074a84848484611a51565b610cba7f65d7a28e3265b37a6474929f336521b332c1681b933f6cb9f3376673440d862a3361039e565b610d46576040517f08c379a000000000000000000000000000000000000000000000000000000000815260206004820152603960248201527f455243313135355072657365744d696e7465725061757365723a206d7573742060448201527f686176652070617573657220726f6c6520746f2070617573650000000000000060648201526084016105a8565b6109b4611bd3565b6000828152609760205260408120610d669083611c95565b9392505050565b6108f2338383611ca1565b60008181526097602052604081206105e390611df4565b600082815260656020526040902060010154610daa816115e1565b61083e8383611610565b73ffffffffffffffffffffffffffffffffffffffff8516331480610ddd5750610ddd8533610493565b610e69576040517f08c379a000000000000000000000000000000000000000000000000000000000815260206004820152602960248201527f455243313135353a2063616c6c6572206973206e6f74206f776e6572206e6f7260448201527f20617070726f766564000000000000000000000000000000000000000000000060648201526084016105a8565b6108128585858585611dfe565b73ffffffffffffffffffffffffffffffffffffffff8316331480610e9f5750610e9f8333610493565b610f2b576040517f08c379a000000000000000000000000000000000000000000000000000000000815260206004820152602960248201527f455243313135353a2063616c6c6572206973206e6f74206f776e6572206e6f7260448201527f20617070726f766564000000000000000000000000000000000000000000000060648201526084016105a8565b61083e83838361204e565b6000610f426001612270565b90508015610f7757600080547fffffffffffffffffffffffffffffffffffffffffffffffffffffffffffff00ff166101001790555b610f80826123fb565b80156108f257600080547fffffffffffffffffffffffffffffffffffffffffffffffffffffffffffff00ff169055604051600181527f7f26b83ff96e1f2b6a682f133852f6798a09c465da95921460cefb38474024989060200160405180910390a15050565b73ffffffffffffffffffffffffffffffffffffffff163b151590565b60006105e3826124ac565b73ffffffffffffffffffffffffffffffffffffffff84166110b0576040517f08c379a000000000000000000000000000000000000000000000000000000000815260206004820152602160248201527f455243313135353a206d696e7420746f20746865207a65726f2061646472657360448201527f730000000000000000000000000000000000000000000000000000000000000060648201526084016105a8565b8151835114611141576040517f08c379a000000000000000000000000000000000000000000000000000000000815260206004820152602860248201527f455243313135353a2069647320616e6420616d6f756e7473206c656e6774682060448201527f6d69736d6174636800000000000000000000000000000000000000000000000060648201526084016105a8565b336111518160008787878761254e565b60005b84518110156112075783818151811061116f5761116f613eba565b602002602001015160c9600087848151811061118d5761118d613eba565b6020026020010151815260200190815260200160002060008873ffffffffffffffffffffffffffffffffffffffff1673ffffffffffffffffffffffffffffffffffffffff16815260200190815260200160002060008282546111ef9190613f50565b909155508190506111ff81613f18565b915050611154565b508473ffffffffffffffffffffffffffffffffffffffff16600073ffffffffffffffffffffffffffffffffffffffff168273ffffffffffffffffffffffffffffffffffffffff167f4a39dc06d4c0dbc64b70af90fd698a233a518aa5d07e595d983b8c0526c8f7fb878760405161127f929190613f68565b60405180910390a4610812816000878787876125fc565b8151835114611327576040517f08c379a000000000000000000000000000000000000000000000000000000000815260206004820152602860248201527f455243313135353a2069647320616e6420616d6f756e7473206c656e6774682060448201527f6d69736d6174636800000000000000000000000000000000000000000000000060648201526084016105a8565b73ffffffffffffffffffffffffffffffffffffffff84166113ca576040517f08c379a000000000000000000000000000000000000000000000000000000000815260206004820152602560248201527f455243313135353a207472616e7366657220746f20746865207a65726f20616460448201527f647265737300000000000000000000000000000000000000000000000000000060648201526084016105a8565b336113d981878787878761254e565b60005b845181101561154c5760008582815181106113f9576113f9613eba565b60200260200101519050600085838151811061141757611417613eba565b602090810291909101810151600084815260c98352604080822073ffffffffffffffffffffffffffffffffffffffff8e1683529093529190912054909150818110156114e5576040517f08c379a000000000000000000000000000000000000000000000000000000000815260206004820152602a60248201527f455243313135353a20696e73756666696369656e742062616c616e636520666f60448201527f72207472616e736665720000000000000000000000000000000000000000000060648201526084016105a8565b600083815260c96020908152604080832073ffffffffffffffffffffffffffffffffffffffff8e8116855292528083208585039055908b16825281208054849290611531908490613f50565b925050819055505050508061154590613f18565b90506113dc565b508473ffffffffffffffffffffffffffffffffffffffff168673ffffffffffffffffffffffffffffffffffffffff168273ffffffffffffffffffffffffffffffffffffffff167f4a39dc06d4c0dbc64b70af90fd698a233a518aa5d07e595d983b8c0526c8f7fb87876040516115c3929190613f68565b60405180910390a46115d98187878787876125fc565b505050505050565b6115eb8133612886565b50565b6115f88282612958565b600082815260976020526040902061083e9082612a4c565b61161a8282612a6e565b600082815260976020526040902061083e9082612b29565b61015f5460ff1661169f576040517f08c379a000000000000000000000000000000000000000000000000000000000815260206004820152601460248201527f5061757361626c653a206e6f742070617573656400000000000000000000000060448201526064016105a8565b61015f80547fffffffffffffffffffffffffffffffffffffffffffffffffffffffffffffff001690557f5db9ee0a495bf2e6ff9c91a7834c1ba4fdd244a5e8aa4e537bd38aeae4b073aa335b60405173ffffffffffffffffffffffffffffffffffffffff909116815260200160405180910390a1565b73ffffffffffffffffffffffffffffffffffffffff83166117b8576040517f08c379a000000000000000000000000000000000000000000000000000000000815260206004820152602360248201527f455243313135353a206275726e2066726f6d20746865207a65726f206164647260448201527f657373000000000000000000000000000000000000000000000000000000000060648201526084016105a8565b8051825114611849576040517f08c379a000000000000000000000000000000000000000000000000000000000815260206004820152602860248201527f455243313135353a2069647320616e6420616d6f756e7473206c656e6774682060448201527f6d69736d6174636800000000000000000000000000000000000000000000000060648201526084016105a8565b600033905061186c8185600086866040518060200160405280600081525061254e565b60005b83518110156119bd57600084828151811061188c5761188c613eba565b6020026020010151905060008483815181106118aa576118aa613eba565b602090810291909101810151600084815260c98352604080822073ffffffffffffffffffffffffffffffffffffffff8c168352909352919091205490915081811015611977576040517f08c379a0000000000000000000000000000000000000000000000000000000008152602060048201526024808201527f455243313135353a206275726e20616d6f756e7420657863656564732062616c60448201527f616e63650000000000000000000000000000000000000000000000000000000060648201526084016105a8565b600092835260c96020908152604080852073ffffffffffffffffffffffffffffffffffffffff8b16865290915290922091039055806119b581613f18565b91505061186f565b50600073ffffffffffffffffffffffffffffffffffffffff168473ffffffffffffffffffffffffffffffffffffffff168273ffffffffffffffffffffffffffffffffffffffff167f4a39dc06d4c0dbc64b70af90fd698a233a518aa5d07e595d983b8c0526c8f7fb8686604051611a35929190613f68565b60405180910390a460408051602081019091526000905261074a565b73ffffffffffffffffffffffffffffffffffffffff8416611af4576040517f08c379a000000000000000000000000000000000000000000000000000000000815260206004820152602160248201527f455243313135353a206d696e7420746f20746865207a65726f2061646472657360448201527f730000000000000000000000000000000000000000000000000000000000000060648201526084016105a8565b336000611b0085612b4b565b90506000611b0d85612b4b565b9050611b1e8360008985858961254e565b600086815260c96020908152604080832073ffffffffffffffffffffffffffffffffffffffff8b16845290915281208054879290611b5d908490613f50565b9091555050604080518781526020810187905273ffffffffffffffffffffffffffffffffffffffff808a1692600092918716917fc3d58168c5ae7397731d063d5bbf3d657854427343f4c083240f7aacaa2d0f62910160405180910390a4611bca83600089898989612b96565b50505050505050565b61015f5460ff1615611c41576040517f08c379a000000000000000000000000000000000000000000000000000000000815260206004820152601060248201527f5061757361626c653a207061757365640000000000000000000000000000000060448201526064016105a8565b61015f80547fffffffffffffffffffffffffffffffffffffffffffffffffffffffffffffff001660011790557f62e78cea01bee320cd4e420270b5ea74000d11b0c9f74754ebdbfc544b05a2586116eb3390565b6000610d668383612d43565b8173ffffffffffffffffffffffffffffffffffffffff168373ffffffffffffffffffffffffffffffffffffffff1603611d5c576040517f08c379a000000000000000000000000000000000000000000000000000000000815260206004820152602960248201527f455243313135353a2073657474696e6720617070726f76616c2073746174757360448201527f20666f722073656c66000000000000000000000000000000000000000000000060648201526084016105a8565b73ffffffffffffffffffffffffffffffffffffffff838116600081815260ca602090815260408083209487168084529482529182902080547fffffffffffffffffffffffffffffffffffffffffffffffffffffffffffffff001686151590811790915591519182527f17307eab39ab6107e8899845ad3d59bd9653f200f220920489ca2b5937696c31910160405180910390a3505050565b60006105e3825490565b73ffffffffffffffffffffffffffffffffffffffff8416611ea1576040517f08c379a000000000000000000000000000000000000000000000000000000000815260206004820152602560248201527f455243313135353a207472616e7366657220746f20746865207a65726f20616460448201527f647265737300000000000000000000000000000000000000000000000000000060648201526084016105a8565b336000611ead85612b4b565b90506000611eba85612b4b565b9050611eca83898985858961254e565b600086815260c96020908152604080832073ffffffffffffffffffffffffffffffffffffffff8c16845290915290205485811015611f8a576040517f08c379a000000000000000000000000000000000000000000000000000000000815260206004820152602a60248201527f455243313135353a20696e73756666696369656e742062616c616e636520666f60448201527f72207472616e736665720000000000000000000000000000000000000000000060648201526084016105a8565b600087815260c96020908152604080832073ffffffffffffffffffffffffffffffffffffffff8d8116855292528083208985039055908a16825281208054889290611fd6908490613f50565b9091555050604080518881526020810188905273ffffffffffffffffffffffffffffffffffffffff808b16928c821692918816917fc3d58168c5ae7397731d063d5bbf3d657854427343f4c083240f7aacaa2d0f62910160405180910390a4612043848a8a8a8a8a612b96565b505050505050505050565b73ffffffffffffffffffffffffffffffffffffffff83166120f1576040517f08c379a000000000000000000000000000000000000000000000000000000000815260206004820152602360248201527f455243313135353a206275726e2066726f6d20746865207a65726f206164647260448201527f657373000000000000000000000000000000000000000000000000000000000060648201526084016105a8565b3360006120fd84612b4b565b9050600061210a84612b4b565b905061212a8387600085856040518060200160405280600081525061254e565b600085815260c96020908152604080832073ffffffffffffffffffffffffffffffffffffffff8a168452909152902054848110156121e9576040517f08c379a0000000000000000000000000000000000000000000000000000000008152602060048201526024808201527f455243313135353a206275726e20616d6f756e7420657863656564732062616c60448201527f616e63650000000000000000000000000000000000000000000000000000000060648201526084016105a8565b600086815260c96020908152604080832073ffffffffffffffffffffffffffffffffffffffff8b81168086529184528285208a8703905582518b81529384018a90529092908816917fc3d58168c5ae7397731d063d5bbf3d657854427343f4c083240f7aacaa2d0f62910160405180910390a4604080516020810190915260009052611bca565b60008054610100900460ff1615612327578160ff1660011480156122935750303b155b61231f576040517f08c379a000000000000000000000000000000000000000000000000000000000815260206004820152602e60248201527f496e697469616c697a61626c653a20636f6e747261637420697320616c72656160448201527f647920696e697469616c697a656400000000000000000000000000000000000060648201526084016105a8565b506000919050565b60005460ff8084169116106123be576040517f08c379a000000000000000000000000000000000000000000000000000000000815260206004820152602e60248201527f496e697469616c697a61626c653a20636f6e747261637420697320616c72656160448201527f647920696e697469616c697a656400000000000000000000000000000000000060648201526084016105a8565b50600080547fffffffffffffffffffffffffffffffffffffffffffffffffffffffffffffff001660ff92909216919091179055600190565b919050565b600054610100900460ff16612492576040517f08c379a000000000000000000000000000000000000000000000000000000000815260206004820152602b60248201527f496e697469616c697a61626c653a20636f6e7472616374206973206e6f74206960448201527f6e697469616c697a696e6700000000000000000000000000000000000000000060648201526084016105a8565b61249b81612d6d565b6124a3612e0d565b6115eb81612ecf565b60007fffffffff0000000000000000000000000000000000000000000000000000000082167fd9b67a2600000000000000000000000000000000000000000000000000000000148061253f57507fffffffff0000000000000000000000000000000000000000000000000000000082167f0e89341c00000000000000000000000000000000000000000000000000000000145b806105e357506105e382612fc5565b73ffffffffffffffffffffffffffffffffffffffff86811660009081527fa8488299d87e5601451cb7c5c2bc43590b838425bc5443a432aac49cb663957b602052604090205486821615801592871615159160ff16159083906125ae5750815b80156125b75750805b156125ee576040517f175e5a9000000000000000000000000000000000000000000000000000000000815260040160405180910390fd5b61204389898989898961301b565b73ffffffffffffffffffffffffffffffffffffffff84163b156115d9576040517fbc197c8100000000000000000000000000000000000000000000000000000000815273ffffffffffffffffffffffffffffffffffffffff85169063bc197c81906126739089908990889088908890600401613f96565b6020604051808303816000875af19250505080156126cc575060408051601f3d9081017fffffffffffffffffffffffffffffffffffffffffffffffffffffffffffffffe01682019092526126c991810190614001565b60015b6127b5576126d861401e565b806308c379a00361272b57506126ec61403a565b806126f7575061272d565b806040517f08c379a00000000000000000000000000000000000000000000000000000000081526004016105a891906137e7565b505b6040517f08c379a000000000000000000000000000000000000000000000000000000000815260206004820152603460248201527f455243313135353a207472616e7366657220746f206e6f6e204552433131353560448201527f526563656976657220696d706c656d656e74657200000000000000000000000060648201526084016105a8565b7fffffffff0000000000000000000000000000000000000000000000000000000081167fbc197c810000000000000000000000000000000000000000000000000000000014611bca576040517f08c379a000000000000000000000000000000000000000000000000000000000815260206004820152602860248201527f455243313135353a204552433131353552656365697665722072656a6563746560448201527f6420746f6b656e7300000000000000000000000000000000000000000000000060648201526084016105a8565b600082815260656020908152604080832073ffffffffffffffffffffffffffffffffffffffff8516845290915290205460ff166108f2576128de8173ffffffffffffffffffffffffffffffffffffffff166014613029565b6128e9836020613029565b6040516020016128fa9291906140e2565b604080517fffffffffffffffffffffffffffffffffffffffffffffffffffffffffffffffe0818403018152908290527f08c379a00000000000000000000000000000000000000000000000000000000082526105a8916004016137e7565b600082815260656020908152604080832073ffffffffffffffffffffffffffffffffffffffff8516845290915290205460ff166108f257600082815260656020908152604080832073ffffffffffffffffffffffffffffffffffffffff85168452909152902080547fffffffffffffffffffffffffffffffffffffffffffffffffffffffffffffff001660011790556129ee3390565b73ffffffffffffffffffffffffffffffffffffffff168173ffffffffffffffffffffffffffffffffffffffff16837f2f8788117e7eff1d82e926ec794901d17c78024a50270940304540a733656f0d60405160405180910390a45050565b6000610d668373ffffffffffffffffffffffffffffffffffffffff841661326c565b600082815260656020908152604080832073ffffffffffffffffffffffffffffffffffffffff8516845290915290205460ff16156108f257600082815260656020908152604080832073ffffffffffffffffffffffffffffffffffffffff8516808552925280832080547fffffffffffffffffffffffffffffffffffffffffffffffffffffffffffffff0016905551339285917ff6391f5c32d9c69d2a47ea670b442974b53935d1edc7fd64eb21e047a839171b9190a45050565b6000610d668373ffffffffffffffffffffffffffffffffffffffff84166132bb565b60408051600180825281830190925260609160009190602080830190803683370190505090508281600081518110612b8557612b85613eba565b602090810291909101015292915050565b73ffffffffffffffffffffffffffffffffffffffff84163b156115d9576040517ff23a6e6100000000000000000000000000000000000000000000000000000000815273ffffffffffffffffffffffffffffffffffffffff85169063f23a6e6190612c0d9089908990889088908890600401614163565b6020604051808303816000875af1925050508015612c66575060408051601f3d9081017fffffffffffffffffffffffffffffffffffffffffffffffffffffffffffffffe0168201909252612c6391810190614001565b60015b612c72576126d861401e565b7fffffffff0000000000000000000000000000000000000000000000000000000081167ff23a6e610000000000000000000000000000000000000000000000000000000014611bca576040517f08c379a000000000000000000000000000000000000000000000000000000000815260206004820152602860248201527f455243313135353a204552433131353552656365697665722072656a6563746560448201527f6420746f6b656e7300000000000000000000000000000000000000000000000060648201526084016105a8565b6000826000018281548110612d5a57612d5a613eba565b9060005260206000200154905092915050565b600054610100900460ff16612e04576040517f08c379a000000000000000000000000000000000000000000000000000000000815260206004820152602b60248201527f496e697469616c697a61626c653a20636f6e7472616374206973206e6f74206960448201527f6e697469616c697a696e6700000000000000000000000000000000000000000060648201526084016105a8565b6115eb816133ae565b600054610100900460ff16612ea4576040517f08c379a000000000000000000000000000000000000000000000000000000000815260206004820152602b60248201527f496e697469616c697a61626c653a20636f6e7472616374206973206e6f74206960448201527f6e697469616c697a696e6700000000000000000000000000000000000000000060648201526084016105a8565b61015f80547fffffffffffffffffffffffffffffffffffffffffffffffffffffffffffffff00169055565b600054610100900460ff16612f66576040517f08c379a000000000000000000000000000000000000000000000000000000000815260206004820152602b60248201527f496e697469616c697a61626c653a20636f6e7472616374206973206e6f74206960448201527f6e697469616c697a696e6700000000000000000000000000000000000000000060648201526084016105a8565b612f716000336133ba565b612f9b7f9f2df0fed2c77648de5860a4cc508cd0818c85b8b8a1ab4ceeef8d981c8956a6336133ba565b6115eb7f65d7a28e3265b37a6474929f336521b332c1681b933f6cb9f3376673440d862a336133ba565b60007fffffffff0000000000000000000000000000000000000000000000000000000082167f5a05180f0000000000000000000000000000000000000000000000000000000014806105e357506105e3826133c4565b6115d986868686868661345b565b606060006130388360026141b3565b613043906002613f50565b67ffffffffffffffff81111561305b5761305b6137fa565b6040519080825280601f01601f191660200182016040528015613085576020820181803683370190505b5090507f3000000000000000000000000000000000000000000000000000000000000000816000815181106130bc576130bc613eba565b60200101907effffffffffffffffffffffffffffffffffffffffffffffffffffffffffffff1916908160001a9053507f78000000000000000000000000000000000000000000000000000000000000008160018151811061311f5761311f613eba565b60200101907effffffffffffffffffffffffffffffffffffffffffffffffffffffffffffff1916908160001a905350600061315b8460026141b3565b613166906001613f50565b90505b6001811115613203577f303132333435363738396162636465660000000000000000000000000000000085600f16601081106131a7576131a7613eba565b1a60f81b8282815181106131bd576131bd613eba565b60200101907effffffffffffffffffffffffffffffffffffffffffffffffffffffffffffff1916908160001a90535060049490941c936131fc816141f0565b9050613169565b508315610d66576040517f08c379a000000000000000000000000000000000000000000000000000000000815260206004820181905260248201527f537472696e67733a20686578206c656e67746820696e73756666696369656e7460448201526064016105a8565b60008181526001830160205260408120546132b3575081546001818101845560008481526020808220909301849055845484825282860190935260409020919091556105e3565b5060006105e3565b600081815260018301602052604081205480156133a45760006132df600183614225565b85549091506000906132f390600190614225565b905081811461335857600086600001828154811061331357613313613eba565b906000526020600020015490508087600001848154811061333657613336613eba565b6000918252602080832090910192909255918252600188019052604090208390555b85548690806133695761336961423c565b6001900381819060005260206000200160009055905585600101600086815260200190815260200160002060009055600193505050506105e3565b60009150506105e3565b60cb6108f282826142b1565b6108f282826115ee565b60007fffffffff0000000000000000000000000000000000000000000000000000000082167f7965db0b0000000000000000000000000000000000000000000000000000000014806105e357507f01ffc9a7000000000000000000000000000000000000000000000000000000007fffffffff000000000000000000000000000000000000000000000000000000008316146105e3565b6134698686868686866134fd565b61015f5460ff16156115d9576040517f08c379a000000000000000000000000000000000000000000000000000000000815260206004820152602c60248201527f455243313135355061757361626c653a20746f6b656e207472616e736665722060448201527f7768696c6520706175736564000000000000000000000000000000000000000060648201526084016105a8565b73ffffffffffffffffffffffffffffffffffffffff85166135915760005b835181101561358f5782818151811061353657613536613eba565b602002602001015160fb600086848151811061355457613554613eba565b6020026020010151815260200190815260200160002060008282546135799190613f50565b90915550613588905081613f18565b905061351b565b505b73ffffffffffffffffffffffffffffffffffffffff84166115d95760005b8351811015611bca5760008482815181106135cc576135cc613eba565b6020026020010151905060008483815181106135ea576135ea613eba565b60200260200101519050600060fb60008481526020019081526020016000205490508181101561369c576040517f08c379a000000000000000000000000000000000000000000000000000000000815260206004820152602860248201527f455243313135353a206275726e20616d6f756e74206578636565647320746f7460448201527f616c537570706c7900000000000000000000000000000000000000000000000060648201526084016105a8565b600092835260fb6020526040909220910390556136b881613f18565b90506135af565b803573ffffffffffffffffffffffffffffffffffffffff811681146123f657600080fd5b600080604083850312156136f657600080fd5b6136ff836136bf565b946020939093013593505050565b7fffffffff00000000000000000000000000000000000000000000000000000000811681146115eb57600080fd5b60006020828403121561374d57600080fd5b8135610d668161370d565b60006020828403121561376a57600080fd5b5035919050565b60005b8381101561378c578181015183820152602001613774565b8381111561074a5750506000910152565b600081518084526137b5816020860160208601613771565b601f017fffffffffffffffffffffffffffffffffffffffffffffffffffffffffffffffe0169290920160200192915050565b602081526000610d66602083018461379d565b7f4e487b7100000000000000000000000000000000000000000000000000000000600052604160045260246000fd5b7fffffffffffffffffffffffffffffffffffffffffffffffffffffffffffffffe0601f830116810181811067ffffffffffffffff8211171561386d5761386d6137fa565b6040525050565b600067ffffffffffffffff82111561388e5761388e6137fa565b5060051b60200190565b600082601f8301126138a957600080fd5b813560206138b682613874565b6040516138c38282613829565b83815260059390931b85018201928281019150868411156138e357600080fd5b8286015b848110156138fe57803583529183019183016138e7565b509695505050505050565b600067ffffffffffffffff831115613923576139236137fa565b60405161395860207fffffffffffffffffffffffffffffffffffffffffffffffffffffffffffffffe0601f8701160182613829565b80915083815284848401111561396d57600080fd5b83836020830137600060208583010152509392505050565b600082601f83011261399657600080fd5b610d6683833560208501613909565b600080600080608085870312156139bb57600080fd5b6139c4856136bf565b9350602085013567ffffffffffffffff808211156139e157600080fd5b6139ed88838901613898565b94506040870135915080821115613a0357600080fd5b613a0f88838901613898565b93506060870135915080821115613a2557600080fd5b50613a3287828801613985565b91505092959194509250565b600080600080600060a08688031215613a5657600080fd5b613a5f866136bf565b9450613a6d602087016136bf565b9350604086013567ffffffffffffffff80821115613a8a57600080fd5b613a9689838a01613898565b94506060880135915080821115613aac57600080fd5b613ab889838a01613898565b93506080880135915080821115613ace57600080fd5b50613adb88828901613985565b9150509295509295909350565b60008060408385031215613afb57600080fd5b82359150613b0b602084016136bf565b90509250929050565b60008060408385031215613b2757600080fd5b823567ffffffffffffffff80821115613b3f57600080fd5b818501915085601f830112613b5357600080fd5b81356020613b6082613874565b604051613b6d8282613829565b83815260059390931b8501820192828101915089841115613b8d57600080fd5b948201945b83861015613bb257613ba3866136bf565b82529482019490820190613b92565b96505086013592505080821115613bc857600080fd5b50613bd585828601613898565b9150509250929050565b600081518084526020808501945080840160005b83811015613c0f57815187529582019590820190600101613bf3565b509495945050505050565b602081526000610d666020830184613bdf565b600080600060608486031215613c4257600080fd5b613c4b846136bf565b9250602084013567ffffffffffffffff80821115613c6857600080fd5b613c7487838801613898565b93506040860135915080821115613c8a57600080fd5b50613c9786828701613898565b9150509250925092565b60008060008060808587031215613cb757600080fd5b613cc0856136bf565b93506020850135925060408501359150606085013567ffffffffffffffff811115613cea57600080fd5b613a3287828801613985565b60008060408385031215613d0957600080fd5b50508035926020909101359150565b60008060408385031215613d2b57600080fd5b613d34836136bf565b915060208301358015158114613d4957600080fd5b809150509250929050565b60008060408385031215613d6757600080fd5b613d70836136bf565b9150613b0b602084016136bf565b600080600080600060a08688031215613d9657600080fd5b613d9f866136bf565b9450613dad602087016136bf565b93506040860135925060608601359150608086013567ffffffffffffffff811115613dd757600080fd5b613adb88828901613985565b600080600060608486031215613df857600080fd5b613e01846136bf565b95602085013595506040909401359392505050565b600060208284031215613e2857600080fd5b813567ffffffffffffffff811115613e3f57600080fd5b8201601f81018413613e5057600080fd5b613e5f84823560208401613909565b949350505050565b600181811c90821680613e7b57607f821691505b602082108103613eb4577f4e487b7100000000000000000000000000000000000000000000000000000000600052602260045260246000fd5b50919050565b7f4e487b7100000000000000000000000000000000000000000000000000000000600052603260045260246000fd5b7f4e487b7100000000000000000000000000000000000000000000000000000000600052601160045260246000fd5b60007fffffffffffffffffffffffffffffffffffffffffffffffffffffffffffffffff8203613f4957613f49613ee9565b5060010190565b60008219821115613f6357613f63613ee9565b500190565b604081526000613f7b6040830185613bdf565b8281036020840152613f8d8185613bdf565b95945050505050565b600073ffffffffffffffffffffffffffffffffffffffff808816835280871660208401525060a06040830152613fcf60a0830186613bdf565b8281036060840152613fe18186613bdf565b90508281036080840152613ff5818561379d565b98975050505050505050565b60006020828403121561401357600080fd5b8151610d668161370d565b600060033d11156140375760046000803e5060005160e01c5b90565b600060443d10156140485790565b6040517ffffffffffffffffffffffffffffffffffffffffffffffffffffffffffffffffc803d016004833e81513d67ffffffffffffffff816024840111818411171561409657505050505090565b82850191508151818111156140ae5750505050505090565b843d87010160208285010111156140c85750505050505090565b6140d760208286010187613829565b509095945050505050565b7f416363657373436f6e74726f6c3a206163636f756e742000000000000000000081526000835161411a816017850160208801613771565b7f206973206d697373696e6720726f6c65200000000000000000000000000000006017918401918201528351614157816028840160208801613771565b01602801949350505050565b600073ffffffffffffffffffffffffffffffffffffffff808816835280871660208401525084604083015283606083015260a060808301526141a860a083018461379d565b979650505050505050565b6000817fffffffffffffffffffffffffffffffffffffffffffffffffffffffffffffffff04831182151516156141eb576141eb613ee9565b500290565b6000816141ff576141ff613ee9565b507fffffffffffffffffffffffffffffffffffffffffffffffffffffffffffffffff0190565b60008282101561423757614237613ee9565b500390565b7f4e487b7100000000000000000000000000000000000000000000000000000000600052603160045260246000fd5b601f82111561083e57600081815260208120601f850160051c810160208610156142925750805b601f850160051c820191505b818110156115d95782815560010161429e565b815167ffffffffffffffff8111156142cb576142cb6137fa565b6142df816142d98454613e67565b8461426b565b602080601f83116001811461433257600084156142fc5750858301515b7fffffffffffffffffffffffffffffffffffffffffffffffffffffffffffffffff600386901b1c1916600185901b1785556115d9565b6000858152602081207fffffffffffffffffffffffffffffffffffffffffffffffffffffffffffffffe08616915b8281101561437f57888601518255948401946001909101908401614360565b50858210156143bb57878501517fffffffffffffffffffffffffffffffffffffffffffffffffffffffffffffffff600388901b60f8161c191681555b5050505050600190811b0190555056fea2646970667358221220586c70ca475364750bccadb629c55456a63b7f222cf4a2d54c964b0039d9105064736f6c634300080f0033496e697469616c697a61626c653a20636f6e747261637420697320616c726561",
  "linkReferences": {},
  "deployedLinkReferences": {}
}