{"address":"0xe35401Eb5078388D49f47d631a0ce0733a31A425","bytecode":"0x608060405234801561001057600080fd5b50613545806100206000396000f3fe608060405234801561001057600080fd5b50600436106102325760003560e01c80638456cb5911610130578063c4d66de8116100b8578063dd62ed3e1161007c578063dd62ed3e146104d4578063e63ab1e91461050d578063fad8b32a14610522578063fc673c4f14610535578063fe9d93031461054857600080fd5b8063c4d66de814610475578063ca15c87314610488578063cf2c52cb1461049b578063d547741f146104ae578063d95b6371146104c157600080fd5b806395d89b41116100ff57806395d89b41146104185780639bd9bbc614610420578063a217fddf14610433578063a3b0b5a31461043b578063a9059cbb1461046257600080fd5b80638456cb59146103bf5780639010d07c146103c757806391d14854146103f2578063959b8c3f1461040557600080fd5b8063313ce567116101be5780635c975abb116101825780635c975abb1461035d57806362ad1b831461036857806366cf8bce1461037b57806370a082311461038e5780638129fc1c146103b757600080fd5b8063313ce5671461030c57806336568abe1461031b5780633f4ba83a1461032e578063458c738e14610336578063556f0dc71461035657600080fd5b806318160ddd1161020557806318160ddd1461029c57806323b872dd146102ae578063248a9ca3146102c15780632e1a7d4d146102e45780632f2ff15d146102f957600080fd5b806301ffc9a71461023757806306e485381461025f57806306fdde0314610274578063095ea7b314610289575b600080fd5b61024a61024536600461284d565b61055b565b60405190151581526020015b60405180910390f35b610267610586565b60405161025691906128bb565b61027c6105e8565b6040516102569190612926565b61024a61029736600461294e565b610671565b6034545b604051908152602001610256565b61024a6102bc36600461297a565b6106c0565b6102a06102cf3660046129bb565b600090815260c9602052604090206001015490565b6102f76102f23660046129bb565b6107ee565b005b6102f76103073660046129d4565b61081b565b60405160128152602001610256565b6102f76103293660046129d4565b610846565b6102f76108c4565b610349610344366004612ae1565b6108e5565b6040516102569190612b4d565b60016102a0565b60655460ff1661024a565b6102f7610376366004612bcf565b6109a6565b6102f7610389366004612da5565b6109e2565b6102a061039c366004612e69565b6001600160a01b031660009081526033602052604090205490565b6102f7610cc1565b6102f7610d66565b6103da6103d5366004612e86565b610d87565b6040516001600160a01b039091168152602001610256565b61024a6104003660046129d4565b610d9f565b6102f7610413366004612e69565b610dca565b61027c610dde565b6102f761042e366004612ea8565b610ded565b6102a0600081565b6102a07f8f4f2da22e8ac8f11e15f9fc141cddbb5deea8800186560abb6e68c5496619a981565b61024a61047036600461294e565b610e0b565b6102f7610483366004612e69565b610ec8565b6102a06104963660046129bb565b610f43565b6102f76104a9366004612f00565b610f5a565b6102f76104bc3660046129d4565b610fe4565b61024a6104cf366004612f84565b61100a565b6102a06104e2366004612f84565b6001600160a01b039182166000908152603b6020908152604080832093909416825291909152205490565b6102a06000805160206134f083398151915281565b6102f7610530366004612e69565b6110ab565b6102f7610543366004612fb2565b6110bf565b6102f7610556366004613031565b6110f7565b60006001600160e01b03198216635a05180f60e01b1480610580575061058082611112565b92915050565b606060378054806020026020016040519081016040528092919081815260200182805480156105de57602002820191906000526020600020905b81546001600160a01b031681526001909101906020018083116105c0575b5050505050905090565b6060603580546105f790613077565b80601f016020809104026020016040519081016040528092919081815260200182805461062390613077565b80156105de5780601f10610645576101008083540402835291602001916105de565b820191906000526020600020905b81548152906001019060200180831161065357509395945050505050565b600061067f60655460ff1690565b156106a55760405162461bcd60e51b815260040161069c906130b1565b60405180910390fd5b6106af8383611147565b6106b9838361116a565b9392505050565b60006001600160a01b0383166106e85760405162461bcd60e51b815260040161069c906130db565b6001600160a01b03841661074d5760405162461bcd60e51b815260206004820152602660248201527f4552433737373a207472616e736665722066726f6d20746865207a65726f206160448201526564647265737360d01b606482015260840161069c565b600033905061077e818686866040518060200160405280600081525060405180602001604052806000815250611178565b6107898582856112a0565b6107b581868686604051806020016040528060008152506040518060200160405280600081525061132c565b6107e3818686866040518060200160405280600081525060405180602001604052806000815250600061149e565b506001949350505050565b61081833826040518060200160405280600081525060405180602001604052806000815250611663565b50565b600082815260c960205260409020600101546108378133611825565b6108418383611889565b505050565b6001600160a01b03811633146108b65760405162461bcd60e51b815260206004820152602f60248201527f416363657373436f6e74726f6c3a2063616e206f6e6c792072656e6f756e636560448201526e103937b632b9903337b91039b2b63360891b606482015260840161069c565b6108c0828261189d565b5050565b6000805160206134f08339815191526108dd8133611825565b6108186118b1565b6060600082516001600160401b0381111561090257610902612a04565b60405190808252806020026020018201604052801561092b578160200160208202803683370190505b50905060005b835181101561099f5761097284828151811061094f5761094f61311f565b60200260200101516001600160a01b031660009081526033602052604090205490565b8282815181106109845761098461311f565b60209081029190910101526109988161314b565b9050610931565b5092915050565b6109b0338661100a565b6109cc5760405162461bcd60e51b815260040161069c90613164565b6109db85858585856001611944565b5050505050565b8351855114610a565760405162461bcd60e51b815260206004820152604660248201526000805160206134d083398151915260448201527f3a20726563697069656e7420616e6420616d6f756e74206c656e677468206d696064820152650e6dac2e8c6d60d31b608482015260a40161069c565b8251845114610aca5760405162461bcd60e51b815260206004820152604660248201526000805160206134d083398151915260448201527f3a20616d6f756e747320616e64207573657244617461206c656e677468206d696064820152650e6dac2e8c6d60d31b608482015260a40161069c565b8151835114610b435760405162461bcd60e51b815260206004820152604b60248201526000805160206134d083398151915260448201527f3a20757365724461746120616e64206f70657261746f7244617461206c656e6760648201526a0e8d040dad2e6dac2e8c6d60ab1b608482015260a40161069c565b8051825114610bc75760405162461bcd60e51b815260206004820152605660248201526000805160206134d083398151915260448201527f3a206f70657261746f724461746120616e6420726571756972655265636570746064820152750d2dedc82c6d640d8cadccee8d040dad2e6dac2e8c6d60531b608482015260a40161069c565b60005b8551811015610c7057610c5e33878381518110610be957610be961311f565b6020026020010151878481518110610c0357610c0361311f565b6020026020010151878581518110610c1d57610c1d61311f565b6020026020010151878681518110610c3757610c3761311f565b6020026020010151878781518110610c5157610c5161311f565b6020026020010151611944565b80610c688161314b565b915050610bca565b50336001600160a01b03167fd5865ae34f92a2d6a803fa13140b8165046f54e61e68560b26950c62a668c6b68686868686604051610cb2959493929190613205565b60405180910390a25050505050565b600054610100900460ff16610cdc5760005460ff1615610ce0565b303b155b610cfc5760405162461bcd60e51b815260040161069c9061329a565b600054610100900460ff16158015610d1e576000805461ffff19166101011790555b60405162461bcd60e51b815260206004820152601e60248201527f42726964676564506f6c79676f6e4e4f52493a20646973616c6c6f7765640000604482015260640161069c565b6000805160206134f0833981519152610d7f8133611825565b610818611a27565b600082815260fb602052604081206106b99083611a7f565b600091825260c9602090815260408084206001600160a01b0393909316845291905290205460ff1690565b610dd5816000611147565b61081881611a8b565b6060603680546105f790613077565b61084133848484604051806020016040528060008152506001611944565b60006001600160a01b038316610e335760405162461bcd60e51b815260040161069c906130db565b6000339050610e64818286866040518060200160405280600081525060405180602001604052806000815250611178565b610e9081828686604051806020016040528060008152506040518060200160405280600081525061132c565b610ebe818286866040518060200160405280600081525060405180602001604052806000815250600061149e565b5060019392505050565b600054610100900460ff16610ee35760005460ff1615610ee7565b303b155b610f035760405162461bcd60e51b815260040161069c9061329a565b600054610100900460ff16158015610f25576000805461ffff19166101011790555b610f2e82611ba8565b80156108c0576000805461ff00191690555050565b600081815260fb6020526040812061058090611c54565b7f8f4f2da22e8ac8f11e15f9fc141cddbb5deea8800186560abb6e68c5496619a9610f858133611825565b6000610f93838501856129bb565b90506109db858286868080601f016020809104026020016040519081016040528093929190818152602001838380828437600092018290525060408051602081019091529081529250611c5e915050565b600082815260c960205260409020600101546110008133611825565b610841838361189d565b6000816001600160a01b0316836001600160a01b0316148061107557506001600160a01b03831660009081526038602052604090205460ff16801561107557506001600160a01b038083166000908152603a602090815260408083209387168352929052205460ff16155b806106b95750506001600160a01b0390811660009081526039602090815260408083209490931682529290925290205460ff1690565b6110b6816000611147565b61081881611c6c565b6110c9338561100a565b6110e55760405162461bcd60e51b815260040161069c90613164565b6110f184848484611663565b50505050565b6108c033838360405180602001604052806000815250611663565b60006001600160e01b03198216637965db0b60e01b148061058057506301ffc9a760e01b6001600160e01b0319831614610580565b60655460ff16156108c05760405162461bcd60e51b815260040161069c906130b1565b600033610ebe818585611d87565b60405163555ddc6560e11b81526001600160a01b03861660048201527f29ddb589b1fb5fc7cf394961c1adf5f8c6454761adf795e67fe149f658abe8956024820152600090731820a4b7618bde71dce8cdc73aab6c95905fad249063aabbb8ca90604401602060405180830381865afa1580156111f9573d6000803e3d6000fd5b505050506040513d601f19601f8201168201806040525081019061121d91906132e8565b90506001600160a01b0381161561129757604051633ad5cbc160e11b81526001600160a01b038216906375ab978290611264908a908a908a908a908a908a90600401613305565b600060405180830381600087803b15801561127e57600080fd5b505af1158015611292573d6000803e3d6000fd5b505050505b50505050505050565b6001600160a01b038381166000908152603b602090815260408083209386168352929052205460001981146110f1578181101561131f5760405162461bcd60e51b815260206004820152601e60248201527f4552433737373a20696e73756666696369656e7420616c6c6f77616e63650000604482015260640161069c565b6110f18484848403611d87565b61133886868686611eae565b6001600160a01b038516600090815260336020526040902054838110156113b15760405162461bcd60e51b815260206004820152602760248201527f4552433737373a207472616e7366657220616d6f756e7420657863656564732060448201526662616c616e636560c81b606482015260840161069c565b6001600160a01b038087166000908152603360205260408082208785039055918716815290812080548692906113e890849061335f565b92505081905550846001600160a01b0316866001600160a01b0316886001600160a01b03167f06b541ddaa720db2b10a4d0cdac39b8d360425fc073085fac19bc8261467798787878760405161144093929190613377565b60405180910390a4846001600160a01b0316866001600160a01b03167fddf252ad1be2c89b69c2b068fc378daa952ba7f163c4a11628f55a4df523b3ef8660405161148d91815260200190565b60405180910390a350505050505050565b60405163555ddc6560e11b81526001600160a01b03861660048201527fb281fc8c12954d22544db45de3159a39272895b169a852b314f9cc762e44c53b6024820152600090731820a4b7618bde71dce8cdc73aab6c95905fad249063aabbb8ca90604401602060405180830381865afa15801561151f573d6000803e3d6000fd5b505050506040513d601f19601f8201168201806040525081019061154391906132e8565b90506001600160a01b038116156115bf576040516223de2960e01b81526001600160a01b038216906223de2990611588908b908b908b908b908b908b90600401613305565b600060405180830381600087803b1580156115a257600080fd5b505af11580156115b6573d6000803e3d6000fd5b50505050611659565b8115611659576001600160a01b0386163b156116595760405162461bcd60e51b815260206004820152604d60248201527f4552433737373a20746f6b656e20726563697069656e7420636f6e747261637460448201527f20686173206e6f20696d706c656d656e74657220666f7220455243373737546f60648201526c1ad95b9cd49958da5c1a595b9d609a1b608482015260a40161069c565b5050505050505050565b6001600160a01b0384166116c45760405162461bcd60e51b815260206004820152602260248201527f4552433737373a206275726e2066726f6d20746865207a65726f206164647265604482015261737360f01b606482015260840161069c565b336116d481866000878787611178565b6116e18186600087611eae565b6001600160a01b038516600090815260336020526040902054848110156117565760405162461bcd60e51b815260206004820152602360248201527f4552433737373a206275726e20616d6f756e7420657863656564732062616c616044820152626e636560e81b606482015260840161069c565b6001600160a01b03861660009081526033602052604081208683039055603480548792906117859084906133ac565b92505081905550856001600160a01b0316826001600160a01b03167fa78a9be3a7b862d26933ad85fb11d80ef66b8f972d7cbba06621d583943a40988787876040516117d393929190613377565b60405180910390a36040518581526000906001600160a01b038816907fddf252ad1be2c89b69c2b068fc378daa952ba7f163c4a11628f55a4df523b3ef906020015b60405180910390a3505050505050565b61182f8282610d9f565b6108c057611847816001600160a01b03166014611ed6565b611852836020611ed6565b6040516020016118639291906133c3565b60408051601f198184030181529082905262461bcd60e51b825261069c91600401612926565b6118938282611147565b6108c08282612071565b6118a78282611147565b6108c08282612093565b60655460ff166118fa5760405162461bcd60e51b815260206004820152601460248201527314185d5cd8589b194e881b9bdd081c185d5cd95960621b604482015260640161069c565b6065805460ff191690557f5db9ee0a495bf2e6ff9c91a7834c1ba4fdd244a5e8aa4e537bd38aeae4b073aa335b6040516001600160a01b03909116815260200160405180910390a1565b6001600160a01b0386166119a55760405162461bcd60e51b815260206004820152602260248201527f4552433737373a2073656e642066726f6d20746865207a65726f206164647265604482015261737360f01b606482015260840161069c565b6001600160a01b0385166119fb5760405162461bcd60e51b815260206004820181905260248201527f4552433737373a2073656e6420746f20746865207a65726f2061646472657373604482015260640161069c565b33611a0a818888888888611178565b611a1881888888888861132c565b6112978188888888888861149e565b60655460ff1615611a4a5760405162461bcd60e51b815260040161069c906130b1565b6065805460ff191660011790557f62e78cea01bee320cd4e420270b5ea74000d11b0c9f74754ebdbfc544b05a2586119273390565b60006106b983836120b5565b6001600160a01b0381163303611aef5760405162461bcd60e51b8152602060048201526024808201527f4552433737373a20617574686f72697a696e672073656c66206173206f70657260448201526330ba37b960e11b606482015260840161069c565b6001600160a01b03811660009081526038602052604090205460ff1615611b4057336000908152603a602090815260408083206001600160a01b03851684529091529020805460ff19169055611b6f565b3360009081526039602090815260408083206001600160a01b03851684529091529020805460ff191660011790555b60405133906001600160a01b038316907ff4caeb2d6ca8932a215a353d0703c326ec2d81fc68170f320eb2ab49e9df61f990600090a350565b600054610100900460ff16611bcf5760405162461bcd60e51b815260040161069c90613438565b611bd76120df565b611bdf6120df565b611be76120df565b611bef6120df565b611bf7612108565b611bff61213b565b6040805180820182526004808252634e4f524960e01b60208084018290528451808601865292835282810191909152835160008152908101909352611c4392612185565b611c4b6120df565b6108188161236f565b6000610580825490565b6110f18484848460016123c0565b336001600160a01b03821603611cce5760405162461bcd60e51b815260206004820152602160248201527f4552433737373a207265766f6b696e672073656c66206173206f70657261746f6044820152603960f91b606482015260840161069c565b6001600160a01b03811660009081526038602052604090205460ff1615611d2257336000908152603a602090815260408083206001600160a01b03851684529091529020805460ff19166001179055611d4e565b3360009081526039602090815260408083206001600160a01b03851684529091529020805460ff191690555b60405133906001600160a01b038316907f50546e66e5f44d728365dc3908c63bc5cfeeab470722c1677e3073a6ac294aa190600090a350565b6001600160a01b038316611deb5760405162461bcd60e51b815260206004820152602560248201527f4552433737373a20617070726f76652066726f6d20746865207a65726f206164604482015264647265737360d81b606482015260840161069c565b6001600160a01b038216611e4d5760405162461bcd60e51b815260206004820152602360248201527f4552433737373a20617070726f766520746f20746865207a65726f206164647260448201526265737360e81b606482015260840161069c565b6001600160a01b038381166000818152603b602090815260408083209487168084529482529182902085905590518481527f8c5be1e5ebec7d5bd14f71427d1e84f3dd0314c0f7b2291e5b200ac8c7c3b925910160405180910390a3505050565b60655460ff1615611ed15760405162461bcd60e51b815260040161069c906130b1565b6110f1565b60606000611ee5836002613483565b611ef090600261335f565b6001600160401b03811115611f0757611f07612a04565b6040519080825280601f01601f191660200182016040528015611f31576020820181803683370190505b509050600360fc1b81600081518110611f4c57611f4c61311f565b60200101906001600160f81b031916908160001a905350600f60fb1b81600181518110611f7b57611f7b61311f565b60200101906001600160f81b031916908160001a9053506000611f9f846002613483565b611faa90600161335f565b90505b6001811115612022576f181899199a1a9b1b9c1cb0b131b232b360811b85600f1660108110611fde57611fde61311f565b1a60f81b828281518110611ff457611ff461311f565b60200101906001600160f81b031916908160001a90535060049490941c9361201b816134a2565b9050611fad565b5083156106b95760405162461bcd60e51b815260206004820181905260248201527f537472696e67733a20686578206c656e67746820696e73756666696369656e74604482015260640161069c565b61207b8282612506565b600082815260fb60205260409020610841908261258c565b61209d82826125a1565b600082815260fb602052604090206108419082612608565b60008260000182815481106120cc576120cc61311f565b9060005260206000200154905092915050565b600054610100900460ff166121065760405162461bcd60e51b815260040161069c90613438565b565b600054610100900460ff1661212f5760405162461bcd60e51b815260040161069c90613438565b6065805460ff19169055565b600054610100900460ff166121625760405162461bcd60e51b815260040161069c90613438565b61216d600033611889565b6121066000805160206134f083398151915233611889565b600054610100900460ff166121ac5760405162461bcd60e51b815260040161069c90613438565b82516121bf90603590602086019061275f565b5081516121d390603690602085019061275f565b5080516121e79060379060208401906127e3565b5060005b81518110156122505760016038600084848151811061220c5761220c61311f565b6020908102919091018101516001600160a01b03168252810191909152604001600020805460ff1916911515919091179055806122488161314b565b9150506121eb565b506040516329965a1d60e01b815230600482018190527fac7fbab5f54a3ca8194167523c6753bfeb96a445279294b6125b68cce217705460248301526044820152731820a4b7618bde71dce8cdc73aab6c95905fad24906329965a1d90606401600060405180830381600087803b1580156122ca57600080fd5b505af11580156122de573d6000803e3d6000fd5b50506040516329965a1d60e01b815230600482018190527faea199e31a596269b42cdafd93407f14436db6e4cad65417994c2eb37381e05a60248301526044820152731820a4b7618bde71dce8cdc73aab6c95905fad2492506329965a1d9150606401600060405180830381600087803b15801561235b57600080fd5b505af1158015611297573d6000803e3d6000fd5b600054610100900460ff166123965760405162461bcd60e51b815260040161069c90613438565b6108187f8f4f2da22e8ac8f11e15f9fc141cddbb5deea8800186560abb6e68c5496619a982611889565b6001600160a01b0385166124165760405162461bcd60e51b815260206004820181905260248201527f4552433737373a206d696e7420746f20746865207a65726f2061646472657373604482015260640161069c565b336124248160008888611eae565b8460346000828254612436919061335f565b90915550506001600160a01b0386166000908152603360205260408120805487929061246390849061335f565b909155506124799050816000888888888861149e565b856001600160a01b0316816001600160a01b03167f2fe5be0146f74c5bce36c0b80911af6c7d86ff27e89d5cfa61fc681327954e5d8787876040516124c093929190613377565b60405180910390a36040518581526001600160a01b038716906000907fddf252ad1be2c89b69c2b068fc378daa952ba7f163c4a11628f55a4df523b3ef90602001611815565b6125108282610d9f565b6108c057600082815260c9602090815260408083206001600160a01b03851684529091529020805460ff191660011790556125483390565b6001600160a01b0316816001600160a01b0316837f2f8788117e7eff1d82e926ec794901d17c78024a50270940304540a733656f0d60405160405180910390a45050565b60006106b9836001600160a01b03841661261d565b6125ab8282610d9f565b156108c057600082815260c9602090815260408083206001600160a01b0385168085529252808320805460ff1916905551339285917ff6391f5c32d9c69d2a47ea670b442974b53935d1edc7fd64eb21e047a839171b9190a45050565b60006106b9836001600160a01b03841661266c565b600081815260018301602052604081205461266457508154600181810184556000848152602080822090930184905584548482528286019093526040902091909155610580565b506000610580565b600081815260018301602052604081205480156127555760006126906001836133ac565b85549091506000906126a4906001906133ac565b90508181146127095760008660000182815481106126c4576126c461311f565b90600052602060002001549050808760000184815481106126e7576126e761311f565b6000918252602080832090910192909255918252600188019052604090208390555b855486908061271a5761271a6134b9565b600190038181906000526020600020016000905590558560010160008681526020019081526020016000206000905560019350505050610580565b6000915050610580565b82805461276b90613077565b90600052602060002090601f01602090048101928261278d57600085556127d3565b82601f106127a657805160ff19168380011785556127d3565b828001600101855582156127d3579182015b828111156127d35782518255916020019190600101906127b8565b506127df929150612838565b5090565b8280548282559060005260206000209081019282156127d3579160200282015b828111156127d357825182546001600160a01b0319166001600160a01b03909116178255602090920191600190910190612803565b5b808211156127df5760008155600101612839565b60006020828403121561285f57600080fd5b81356001600160e01b0319811681146106b957600080fd5b600081518084526020808501945080840160005b838110156128b05781516001600160a01b03168752958201959082019060010161288b565b509495945050505050565b6020815260006106b96020830184612877565b60005b838110156128e95781810151838201526020016128d1565b838111156110f15750506000910152565b600081518084526129128160208601602086016128ce565b601f01601f19169290920160200192915050565b6020815260006106b960208301846128fa565b6001600160a01b038116811461081857600080fd5b6000806040838503121561296157600080fd5b823561296c81612939565b946020939093013593505050565b60008060006060848603121561298f57600080fd5b833561299a81612939565b925060208401356129aa81612939565b929592945050506040919091013590565b6000602082840312156129cd57600080fd5b5035919050565b600080604083850312156129e757600080fd5b8235915060208301356129f981612939565b809150509250929050565b634e487b7160e01b600052604160045260246000fd5b604051601f8201601f191681016001600160401b0381118282101715612a4257612a42612a04565b604052919050565b60006001600160401b03821115612a6357612a63612a04565b5060051b60200190565b600082601f830112612a7e57600080fd5b81356020612a93612a8e83612a4a565b612a1a565b82815260059290921b84018101918181019086841115612ab257600080fd5b8286015b84811015612ad6578035612ac981612939565b8352918301918301612ab6565b509695505050505050565b600060208284031215612af357600080fd5b81356001600160401b03811115612b0957600080fd5b612b1584828501612a6d565b949350505050565b600081518084526020808501945080840160005b838110156128b057815187529582019590820190600101612b31565b6020815260006106b96020830184612b1d565b600082601f830112612b7157600080fd5b81356001600160401b03811115612b8a57612b8a612a04565b612b9d601f8201601f1916602001612a1a565b818152846020838601011115612bb257600080fd5b816020850160208301376000918101602001919091529392505050565b600080600080600060a08688031215612be757600080fd5b8535612bf281612939565b94506020860135612c0281612939565b93506040860135925060608601356001600160401b0380821115612c2557600080fd5b612c3189838a01612b60565b93506080880135915080821115612c4757600080fd5b50612c5488828901612b60565b9150509295509295909350565b600082601f830112612c7257600080fd5b81356020612c82612a8e83612a4a565b82815260059290921b84018101918181019086841115612ca157600080fd5b8286015b84811015612ad65780358352918301918301612ca5565b600082601f830112612ccd57600080fd5b81356020612cdd612a8e83612a4a565b82815260059290921b84018101918181019086841115612cfc57600080fd5b8286015b84811015612ad65780356001600160401b03811115612d1f5760008081fd5b612d2d8986838b0101612b60565b845250918301918301612d00565b600082601f830112612d4c57600080fd5b81356020612d5c612a8e83612a4a565b82815260059290921b84018101918181019086841115612d7b57600080fd5b8286015b84811015612ad65780358015158114612d985760008081fd5b8352918301918301612d7f565b600080600080600060a08688031215612dbd57600080fd5b85356001600160401b0380821115612dd457600080fd5b612de089838a01612a6d565b96506020880135915080821115612df657600080fd5b612e0289838a01612c61565b95506040880135915080821115612e1857600080fd5b612e2489838a01612cbc565b94506060880135915080821115612e3a57600080fd5b612e4689838a01612cbc565b93506080880135915080821115612e5c57600080fd5b50612c5488828901612d3b565b600060208284031215612e7b57600080fd5b81356106b981612939565b60008060408385031215612e9957600080fd5b50508035926020909101359150565b600080600060608486031215612ebd57600080fd5b8335612ec881612939565b92506020840135915060408401356001600160401b03811115612eea57600080fd5b612ef686828701612b60565b9150509250925092565b600080600060408486031215612f1557600080fd5b8335612f2081612939565b925060208401356001600160401b0380821115612f3c57600080fd5b818601915086601f830112612f5057600080fd5b813581811115612f5f57600080fd5b876020828501011115612f7157600080fd5b6020830194508093505050509250925092565b60008060408385031215612f9757600080fd5b8235612fa281612939565b915060208301356129f981612939565b60008060008060808587031215612fc857600080fd5b8435612fd381612939565b93506020850135925060408501356001600160401b0380821115612ff657600080fd5b61300288838901612b60565b9350606087013591508082111561301857600080fd5b5061302587828801612b60565b91505092959194509250565b6000806040838503121561304457600080fd5b8235915060208301356001600160401b0381111561306157600080fd5b61306d85828601612b60565b9150509250929050565b600181811c9082168061308b57607f821691505b6020821081036130ab57634e487b7160e01b600052602260045260246000fd5b50919050565b60208082526010908201526f14185d5cd8589b194e881c185d5cd95960821b604082015260600190565b60208082526024908201527f4552433737373a207472616e7366657220746f20746865207a65726f206164646040820152637265737360e01b606082015260800190565b634e487b7160e01b600052603260045260246000fd5b634e487b7160e01b600052601160045260246000fd5b60006001820161315d5761315d613135565b5060010190565b6020808252602c908201527f4552433737373a2063616c6c6572206973206e6f7420616e206f70657261746f60408201526b39103337b9103437b63232b960a11b606082015260800190565b600081518084526020808501808196508360051b8101915082860160005b858110156131f85782840389526131e68483516128fa565b988501989350908401906001016131ce565b5091979650505050505050565b60a08152600061321860a0830188612877565b60208382038185015261322b8289612b1d565b9150838203604085015261323f82886131b0565b9150838203606085015261325382876131b0565b8481036080860152855180825282870193509082019060005b8181101561328a57845115158352938301939183019160010161326c565b50909a9950505050505050505050565b6020808252602e908201527f496e697469616c697a61626c653a20636f6e747261637420697320616c72656160408201526d191e481a5b9a5d1a585b1a5e995960921b606082015260800190565b6000602082840312156132fa57600080fd5b81516106b981612939565b6001600160a01b0387811682528681166020830152851660408201526060810184905260c060808201819052600090613340908301856128fa565b82810360a084015261335281856128fa565b9998505050505050505050565b6000821982111561337257613372613135565b500190565b83815260606020820152600061339060608301856128fa565b82810360408401526133a281856128fa565b9695505050505050565b6000828210156133be576133be613135565b500390565b7f416363657373436f6e74726f6c3a206163636f756e74200000000000000000008152600083516133fb8160178501602088016128ce565b7001034b99036b4b9b9b4b733903937b6329607d1b601791840191820152835161342c8160288401602088016128ce565b01602801949350505050565b6020808252602b908201527f496e697469616c697a61626c653a20636f6e7472616374206973206e6f74206960408201526a6e697469616c697a696e6760a81b606082015260800190565b600081600019048311821515161561349d5761349d613135565b500290565b6000816134b1576134b1613135565b506000190190565b634e487b7160e01b600052603160045260246000fdfe4552433737375072657365745061757361626c655065726d697373696f6e656465d7a28e3265b37a6474929f336521b332c1681b933f6cb9f3376673440d862aa264697066735822122090c3909b35c0812b03ed0d2a728492cdb6440cf66c530732a147f86a576b556064736f6c634300080d0033","abi":[{"anonymous":false,"inputs":[{"indexed":true,"internalType":"address","name":"owner","type":"address"},{"indexed":true,"internalType":"address","name":"spender","type":"address"},{"indexed":false,"internalType":"uint256","name":"value","type":"uint256"}],"name":"Approval","type":"event"},{"anonymous":false,"inputs":[{"indexed":true,"internalType":"address","name":"operator","type":"address"},{"indexed":true,"internalType":"address","name":"tokenHolder","type":"address"}],"name":"AuthorizedOperator","type":"event"},{"anonymous":false,"inputs":[{"indexed":true,"internalType":"address","name":"operator","type":"address"},{"indexed":true,"internalType":"address","name":"from","type":"address"},{"indexed":false,"internalType":"uint256","name":"amount","type":"uint256"},{"indexed":false,"internalType":"bytes","name":"data","type":"bytes"},{"indexed":false,"internalType":"bytes","name":"operatorData","type":"bytes"}],"name":"Burned","type":"event"},{"anonymous":false,"inputs":[{"indexed":true,"internalType":"address","name":"operator","type":"address"},{"indexed":true,"internalType":"address","name":"to","type":"address"},{"indexed":false,"internalType":"uint256","name":"amount","type":"uint256"},{"indexed":false,"internalType":"bytes","name":"data","type":"bytes"},{"indexed":false,"internalType":"bytes","name":"operatorData","type":"bytes"}],"name":"Minted","type":"event"},{"anonymous":false,"inputs":[{"indexed":false,"internalType":"address","name":"account","type":"address"}],"name":"Paused","type":"event"},{"anonymous":false,"inputs":[{"indexed":true,"internalType":"address","name":"operator","type":"address"},{"indexed":true,"internalType":"address","name":"tokenHolder","type":"address"}],"name":"RevokedOperator","type":"event"},{"anonymous":false,"inputs":[{"indexed":true,"internalType":"bytes32","name":"role","type":"bytes32"},{"indexed":true,"internalType":"bytes32","name":"previousAdminRole","type":"bytes32"},{"indexed":true,"internalType":"bytes32","name":"newAdminRole","type":"bytes32"}],"name":"RoleAdminChanged","type":"event"},{"anonymous":false,"inputs":[{"indexed":true,"internalType":"bytes32","name":"role","type":"bytes32"},{"indexed":true,"internalType":"address","name":"account","type":"address"},{"indexed":true,"internalType":"address","name":"sender","type":"address"}],"name":"RoleGranted","type":"event"},{"anonymous":false,"inputs":[{"indexed":true,"internalType":"bytes32","name":"role","type":"bytes32"},{"indexed":true,"internalType":"address","name":"account","type":"address"},{"indexed":true,"internalType":"address","name":"sender","type":"address"}],"name":"RoleRevoked","type":"event"},{"anonymous":false,"inputs":[{"indexed":true,"internalType":"address","name":"operator","type":"address"},{"indexed":true,"internalType":"address","name":"from","type":"address"},{"indexed":true,"internalType":"address","name":"to","type":"address"},{"indexed":false,"internalType":"uint256","name":"amount","type":"uint256"},{"indexed":false,"internalType":"bytes","name":"data","type":"bytes"},{"indexed":false,"internalType":"bytes","name":"operatorData","type":"bytes"}],"name":"Sent","type":"event"},{"anonymous":false,"inputs":[{"indexed":true,"internalType":"address","name":"from","type":"address"},{"indexed":false,"internalType":"address[]","name":"recipients","type":"address[]"},{"indexed":false,"internalType":"uint256[]","name":"amounts","type":"uint256[]"},{"indexed":false,"internalType":"bytes[]","name":"userData","type":"bytes[]"},{"indexed":false,"internalType":"bytes[]","name":"operatorData","type":"bytes[]"},{"indexed":false,"internalType":"bool[]","name":"requireReceptionAck","type":"bool[]"}],"name":"SentBatch","type":"event"},{"anonymous":false,"inputs":[{"indexed":true,"internalType":"address","name":"from","type":"address"},{"indexed":true,"internalType":"address","name":"to","type":"address"},{"indexed":false,"internalType":"uint256","name":"value","type":"uint256"}],"name":"Transfer","type":"event"},{"anonymous":false,"inputs":[{"indexed":false,"internalType":"address","name":"account","type":"address"}],"name":"Unpaused","type":"event"},{"inputs":[],"name":"DEFAULT_ADMIN_ROLE","outputs":[{"internalType":"bytes32","name":"","type":"bytes32"}],"stateMutability":"view","type":"function"},{"inputs":[],"name":"DEPOSITOR_ROLE","outputs":[{"internalType":"bytes32","name":"","type":"bytes32"}],"stateMutability":"view","type":"function"},{"inputs":[],"name":"PAUSER_ROLE","outputs":[{"internalType":"bytes32","name":"","type":"bytes32"}],"stateMutability":"view","type":"function"},{"inputs":[{"internalType":"address","name":"holder","type":"address"},{"internalType":"address","name":"spender","type":"address"}],"name":"allowance","outputs":[{"internalType":"uint256","name":"","type":"uint256"}],"stateMutability":"view","type":"function"},{"inputs":[{"internalType":"address","name":"spender","type":"address"},{"internalType":"uint256","name":"value","type":"uint256"}],"name":"approve","outputs":[{"internalType":"bool","name":"","type":"bool"}],"stateMutability":"nonpayable","type":"function"},{"inputs":[{"internalType":"address","name":"operator","type":"address"}],"name":"authorizeOperator","outputs":[],"stateMutability":"nonpayable","type":"function"},{"inputs":[{"internalType":"address","name":"tokenHolder","type":"address"}],"name":"balanceOf","outputs":[{"internalType":"uint256","name":"","type":"uint256"}],"stateMutability":"view","type":"function"},{"inputs":[{"internalType":"address[]","name":"accounts","type":"address[]"}],"name":"balanceOfBatch","outputs":[{"internalType":"uint256[]","name":"","type":"uint256[]"}],"stateMutability":"view","type":"function"},{"inputs":[{"internalType":"address[]","name":"recipients","type":"address[]"},{"internalType":"uint256[]","name":"amounts","type":"uint256[]"},{"internalType":"bytes[]","name":"userData","type":"bytes[]"},{"internalType":"bytes[]","name":"operatorData","type":"bytes[]"},{"internalType":"bool[]","name":"requireReceptionAck","type":"bool[]"}],"name":"batchSend","outputs":[],"stateMutability":"nonpayable","type":"function"},{"inputs":[{"internalType":"uint256","name":"amount","type":"uint256"},{"internalType":"bytes","name":"data","type":"bytes"}],"name":"burn","outputs":[],"stateMutability":"nonpayable","type":"function"},{"inputs":[],"name":"decimals","outputs":[{"internalType":"uint8","name":"","type":"uint8"}],"stateMutability":"pure","type":"function"},{"inputs":[],"name":"defaultOperators","outputs":[{"internalType":"address[]","name":"","type":"address[]"}],"stateMutability":"view","type":"function"},{"inputs":[{"internalType":"address","name":"user","type":"address"},{"internalType":"bytes","name":"depositData","type":"bytes"}],"name":"deposit","outputs":[],"stateMutability":"nonpayable","type":"function"},{"inputs":[{"internalType":"bytes32","name":"role","type":"bytes32"}],"name":"getRoleAdmin","outputs":[{"internalType":"bytes32","name":"","type":"bytes32"}],"stateMutability":"view","type":"function"},{"inputs":[{"internalType":"bytes32","name":"role","type":"bytes32"},{"internalType":"uint256","name":"index","type":"uint256"}],"name":"getRoleMember","outputs":[{"internalType":"address","name":"","type":"address"}],"stateMutability":"view","type":"function"},{"inputs":[{"internalType":"bytes32","name":"role","type":"bytes32"}],"name":"getRoleMemberCount","outputs":[{"internalType":"uint256","name":"","type":"uint256"}],"stateMutability":"view","type":"function"},{"inputs":[{"internalType":"bytes32","name":"role","type":"bytes32"},{"internalType":"address","name":"account","type":"address"}],"name":"grantRole","outputs":[],"stateMutability":"nonpayable","type":"function"},{"inputs":[],"name":"granularity","outputs":[{"internalType":"uint256","name":"","type":"uint256"}],"stateMutability":"view","type":"function"},{"inputs":[{"internalType":"bytes32","name":"role","type":"bytes32"},{"internalType":"address","name":"account","type":"address"}],"name":"hasRole","outputs":[{"internalType":"bool","name":"","type":"bool"}],"stateMutability":"view","type":"function"},{"inputs":[],"name":"initialize","outputs":[],"stateMutability":"nonpayable","type":"function"},{"inputs":[{"internalType":"address","name":"childChainManagerProxy","type":"address"}],"name":"initialize","outputs":[],"stateMutability":"nonpayable","type":"function"},{"inputs":[{"internalType":"address","name":"operator","type":"address"},{"internalType":"address","name":"tokenHolder","type":"address"}],"name":"isOperatorFor","outputs":[{"internalType":"bool","name":"","type":"bool"}],"stateMutability":"view","type":"function"},{"inputs":[],"name":"name","outputs":[{"internalType":"string","name":"","type":"string"}],"stateMutability":"view","type":"function"},{"inputs":[{"internalType":"address","name":"account","type":"address"},{"internalType":"uint256","name":"amount","type":"uint256"},{"internalType":"bytes","name":"data","type":"bytes"},{"internalType":"bytes","name":"operatorData","type":"bytes"}],"name":"operatorBurn","outputs":[],"stateMutability":"nonpayable","type":"function"},{"inputs":[{"internalType":"address","name":"sender","type":"address"},{"internalType":"address","name":"recipient","type":"address"},{"internalType":"uint256","name":"amount","type":"uint256"},{"internalType":"bytes","name":"data","type":"bytes"},{"internalType":"bytes","name":"operatorData","type":"bytes"}],"name":"operatorSend","outputs":[],"stateMutability":"nonpayable","type":"function"},{"inputs":[],"name":"pause","outputs":[],"stateMutability":"nonpayable","type":"function"},{"inputs":[],"name":"paused","outputs":[{"internalType":"bool","name":"","type":"bool"}],"stateMutability":"view","type":"function"},{"inputs":[{"internalType":"bytes32","name":"role","type":"bytes32"},{"internalType":"address","name":"account","type":"address"}],"name":"renounceRole","outputs":[],"stateMutability":"nonpayable","type":"function"},{"inputs":[{"internalType":"address","name":"operator","type":"address"}],"name":"revokeOperator","outputs":[],"stateMutability":"nonpayable","type":"function"},{"inputs":[{"internalType":"bytes32","name":"role","type":"bytes32"},{"internalType":"address","name":"account","type":"address"}],"name":"revokeRole","outputs":[],"stateMutability":"nonpayable","type":"function"},{"inputs":[{"internalType":"address","name":"recipient","type":"address"},{"internalType":"uint256","name":"amount","type":"uint256"},{"internalType":"bytes","name":"data","type":"bytes"}],"name":"send","outputs":[],"stateMutability":"nonpayable","type":"function"},{"inputs":[{"internalType":"bytes4","name":"interfaceId","type":"bytes4"}],"name":"supportsInterface","outputs":[{"internalType":"bool","name":"","type":"bool"}],"stateMutability":"view","type":"function"},{"inputs":[],"name":"symbol","outputs":[{"internalType":"string","name":"","type":"string"}],"stateMutability":"view","type":"function"},{"inputs":[],"name":"totalSupply","outputs":[{"internalType":"uint256","name":"","type":"uint256"}],"stateMutability":"view","type":"function"},{"inputs":[{"internalType":"address","name":"recipient","type":"address"},{"internalType":"uint256","name":"amount","type":"uint256"}],"name":"transfer","outputs":[{"internalType":"bool","name":"","type":"bool"}],"stateMutability":"nonpayable","type":"function"},{"inputs":[{"internalType":"address","name":"holder","type":"address"},{"internalType":"address","name":"recipient","type":"address"},{"internalType":"uint256","name":"amount","type":"uint256"}],"name":"transferFrom","outputs":[{"internalType":"bool","name":"","type":"bool"}],"stateMutability":"nonpayable","type":"function"},{"inputs":[],"name":"unpause","outputs":[],"stateMutability":"nonpayable","type":"function"},{"inputs":[{"internalType":"uint256","name":"amount","type":"uint256"}],"name":"withdraw","outputs":[],"stateMutability":"nonpayable","type":"function"}]}