{
  "_format": "hh-sol-artifact-1",
  "contractName": "ScheduleTestHarness",
  "sourceName": "contracts/ScheduleTestHarness.sol",
  "abi": [
    {
      "anonymous": false,
      "inputs": [
        {
          "indexed": false,
          "internalType": "uint256",
          "name": "id",
          "type": "uint256"
        },
        {
          "indexed": false,
          "internalType": "uint256",
          "name": "time",
          "type": "uint256"
        },
        {
          "indexed": false,
          "internalType": "uint256",
          "name": "amount",
          "type": "uint256"
        }
      ],
      "name": "CliffAdded",
      "type": "event"
    },
    {
      "anonymous": false,
      "inputs": [
        {
          "indexed": false,
          "internalType": "uint256",
          "name": "id",
          "type": "uint256"
        },
        {
          "indexed": false,
          "internalType": "uint256",
          "name": "startTime",
          "type": "uint256"
        },
        {
          "indexed": false,
          "internalType": "uint256",
          "name": "endTime",
          "type": "uint256"
        },
        {
          "indexed": false,
          "internalType": "uint256",
          "name": "totalAmount",
          "type": "uint256"
        }
      ],
      "name": "ScheduleCreated",
      "type": "event"
    },
    {
      "anonymous": false,
      "inputs": [
        {
          "indexed": false,
          "internalType": "uint256",
          "name": "id",
          "type": "uint256"
        },
        {
          "indexed": false,
          "internalType": "uint256",
          "name": "balance",
          "type": "uint256"
        }
      ],
      "name": "ScheduleTruncated",
      "type": "event"
    },
    {
      "inputs": [
        {
          "internalType": "uint256",
          "name": "scheduleId",
          "type": "uint256"
        },
        {
          "internalType": "uint256",
          "name": "time",
          "type": "uint256"
        },
        {
          "internalType": "uint256",
          "name": "amount",
          "type": "uint256"
        }
      ],
      "name": "addCliff",
      "outputs": [],
      "stateMutability": "nonpayable",
      "type": "function"
    },
    {
      "inputs": [
        {
          "internalType": "uint256",
          "name": "scheduleId",
          "type": "uint256"
        },
        {
          "internalType": "uint256",
          "name": "atTime",
          "type": "uint256"
        }
      ],
      "name": "availableAmount",
      "outputs": [
        {
          "internalType": "uint256",
          "name": "",
          "type": "uint256"
        }
      ],
      "stateMutability": "view",
      "type": "function"
    },
    {
      "inputs": [
        {
          "internalType": "uint256",
          "name": "startTime",
          "type": "uint256"
        },
        {
          "internalType": "uint256",
          "name": "endTime",
          "type": "uint256"
        },
        {
          "internalType": "uint256",
          "name": "totalAmount",
          "type": "uint256"
        }
      ],
      "name": "create",
      "outputs": [],
      "stateMutability": "nonpayable",
      "type": "function"
    },
    {
      "inputs": [
        {
          "internalType": "uint256",
          "name": "scheduleId",
          "type": "uint256"
        },
        {
          "internalType": "uint256",
          "name": "atTime",
          "type": "uint256"
        }
      ],
      "name": "truncateScheduleAmount",
      "outputs": [],
      "stateMutability": "nonpayable",
      "type": "function"
    }
  ],
  "bytecode": "0x608060405234801561001057600080fd5b506106ff806100206000396000f3fe608060405234801561001057600080fd5b506004361061004c5760003560e01c80633f353fcf146100515780635174b562146100665780635899ea1314610079578063c97fe94b1461009e575b600080fd5b61006461005f3660046105dc565b6100b1565b005b6100646100743660046105fe565b610112565b61008c6100873660046105dc565b610186565b60405190815260200160405180910390f35b6100646100ac3660046105fe565b6101a7565b60006100bd8383610186565b6000848152602081815260409182902060020183905581518681529081018390529192507f6114e26f4333414f417da57f7a415474fd2df0730648f4748b8eb9a2d14495aa91015b60405180910390a1505050565b600083815260208190526040902061012b908383610238565b6000838152602081905260409020600401547fe3b8293c4ee6cdc59f5c1690803c6c1440038f43705dc0b37d382be2ae3d2cdb9061016b90600190610640565b60408051918252602082018590528101839052606001610105565b600082815260208190526040812061019e9083610471565b90505b92915050565b60018054600081815260208190526040812092918291906101c9908390610657565b909155505083815560018082018490556002820183905580547fbd7880573155705535dce3194981f4b25e22063a5619ea279e73b43b348316709161020d91610640565b604080519182526020820187905281018590526060810184905260800160405180910390a150505050565b600483015460008190036102b45783548310156102af5760405162461bcd60e51b815260206004820152602a60248201527f5363686564756c655574696c733a20436c696666206265666f72652073636865604482015269191d5b19481cdd185c9d60b21b60648201526084015b60405180910390fd5b610336565b6003840160006102c5600184610640565b8152602001908152602001600020600001548310156103365760405162461bcd60e51b815260206004820152602760248201527f5363686564756c655574696c733a20436c69666673206e6f74206368726f6e6f6044820152661b1bd9da58d85b60ca1b60648201526084016102a6565b83600101548311156103a25760405162461bcd60e51b815260206004820152602f60248201527f5363686564756c655574696c733a20436c696666732063616e6e6f7420656e6460448201526e206166746572207363686564756c6560881b60648201526084016102a6565b83600201548285600501546103b79190610657565b11156104175760405162461bcd60e51b815260206004820152602960248201527f5363686564756c655574696c733a20436c69666620616d6f756e747320657863604482015268195959081d1bdd185b60ba1b60648201526084016102a6565b6000818152600385016020526040812084815560018082018590556004870180549293919290919061044a908490610657565b92505081905550828560050160008282546104659190610657565b90915550505050505050565b600061047d8383610491565b6104878484610550565b61019e9190610657565b60008083600501548460020154106104ba57836005015484600201546104b79190610640565b90505b836001015483106104cc5790506101a1565b835460048501541561050457846003016000600187600401546104ef9190610640565b81526020019081526020016000206000015490505b60008186600101546105169190610640565b9050818510610543578061052a8387610640565b610534908561066f565b61053e919061068e565b610546565b60005b9695505050505050565b60048201546000908190815b818110156105ae576000818152600387016020526040902054851061059c5760008181526003870160205260409020600101546105999084610657565b92505b806105a6816106b0565b91505061055c565b506105bd8560020154836105c6565b95945050505050565b60008183106105d5578161019e565b5090919050565b600080604083850312156105ef57600080fd5b50508035926020909101359150565b60008060006060848603121561061357600080fd5b505081359360208301359350604090920135919050565b634e487b7160e01b600052601160045260246000fd5b6000828210156106525761065261062a565b500390565b6000821982111561066a5761066a61062a565b500190565b60008160001904831182151516156106895761068961062a565b500290565b6000826106ab57634e487b7160e01b600052601260045260246000fd5b500490565b6000600182016106c2576106c261062a565b506001019056fea264697066735822122059b6cc2b0096ea764fde0d3acf9f8edae88bc18abb35cd7285de51f7f5968ed664736f6c634300080d0033",
  "linkReferences": {},
  "deployedLinkReferences": {}
}