{
  "_format": "hh-sol-artifact-1",
  "contractName": "RemovalTestHarness",
  "sourceName": "contracts/test/RemovalUtilsTestHarness.sol",
  "abi": [
    {
      "inputs": [
        {
          "internalType": "bytes",
          "name": "removalData",
          "type": "bytes"
        }
      ],
      "name": "createRemovalId",
      "outputs": [
        {
          "internalType": "uint256",
          "name": "",
          "type": "uint256"
        }
      ],
      "stateMutability": "pure",
      "type": "function"
    },
    {
      "inputs": [
        {
          "components": [
            {
              "internalType": "uint8",
              "name": "idVersion",
              "type": "uint8"
            },
            {
              "internalType": "uint8",
              "name": "methodology",
              "type": "uint8"
            },
            {
              "internalType": "uint8",
              "name": "methodologyVersion",
              "type": "uint8"
            },
            {
              "internalType": "uint16",
              "name": "vintage",
              "type": "uint16"
            },
            {
              "internalType": "bytes2",
              "name": "country",
              "type": "bytes2"
            },
            {
              "internalType": "bytes2",
              "name": "subdivision",
              "type": "bytes2"
            },
            {
              "internalType": "address",
              "name": "supplierAddress",
              "type": "address"
            },
            {
              "internalType": "uint32",
              "name": "subIdentifier",
              "type": "uint32"
            }
          ],
          "internalType": "struct UnpackedRemovalIdV0",
          "name": "removalData",
          "type": "tuple"
        }
      ],
      "name": "createRemovalIdFromStruct",
      "outputs": [
        {
          "internalType": "uint256",
          "name": "",
          "type": "uint256"
        }
      ],
      "stateMutability": "pure",
      "type": "function"
    },
    {
      "inputs": [
        {
          "internalType": "uint256",
          "name": "removalId",
          "type": "uint256"
        }
      ],
      "name": "unpackRemovalIdV0",
      "outputs": [
        {
          "components": [
            {
              "internalType": "uint8",
              "name": "idVersion",
              "type": "uint8"
            },
            {
              "internalType": "uint8",
              "name": "methodology",
              "type": "uint8"
            },
            {
              "internalType": "uint8",
              "name": "methodologyVersion",
              "type": "uint8"
            },
            {
              "internalType": "uint16",
              "name": "vintage",
              "type": "uint16"
            },
            {
              "internalType": "bytes2",
              "name": "country",
              "type": "bytes2"
            },
            {
              "internalType": "bytes2",
              "name": "subdivision",
              "type": "bytes2"
            },
            {
              "internalType": "address",
              "name": "supplierAddress",
              "type": "address"
            },
            {
              "internalType": "uint32",
              "name": "subIdentifier",
              "type": "uint32"
            }
          ],
          "internalType": "struct UnpackedRemovalIdV0",
          "name": "",
          "type": "tuple"
        }
      ],
      "stateMutability": "pure",
      "type": "function"
    }
  ],
  "bytecode": "0x608060405234801561001057600080fd5b50610e52806100206000396000f3fe608060405234801561001057600080fd5b50600436106100415760003560e01c806348ec4c3b14610046578063b639b4f31461006c578063d85a53e91461007f575b600080fd5b61005961005436600461096d565b61009f565b6040519081526020015b60405180910390f35b61005961007a366004610a6f565b6100b4565b61009261008d366004610b5b565b6100bf565b6040516100639190610b74565b60006100ab8383610109565b90505b92915050565b60006100ae826104f7565b6040805161010081018252600080825260208201819052918101829052606081018290526080810182905260a0810182905260c0810182905260e08101919091526100ae82610764565b60008061011883850185610c52565b60ff16905080156101af576040517f08c379a0000000000000000000000000000000000000000000000000000000008152602060048201526024808201527f556e737570706f727465642072656d6f76616c20746f6b656e2069642076657260448201527f73696f6e0000000000000000000000000000000000000000000000000000000060648201526084015b60405180910390fd5b6101008314610240576040517f08c379a000000000000000000000000000000000000000000000000000000000815260206004820152602a60248201527f72656d6f76616c4461746120636f6e7461696e732077726f6e67206e756d626560448201527f72206f662062797465730000000000000000000000000000000000000000000060648201526084016101a6565b600061024e84860186610a6f565b9050600f816020015160ff1611156102c2576040517f08c379a000000000000000000000000000000000000000000000000000000000815260206004820152601560248201527f4d6574686f6c6f646f677920746f6f206c61726765000000000000000000000060448201526064016101a6565b600f816040015160ff161115610334576040517f08c379a000000000000000000000000000000000000000000000000000000000815260206004820152601d60248201527f4d6574686f6c6f646f67792076657273696f6e20746f6f206c6172676500000060448201526064016101a6565b608081015160a082015160f882811c9260ff60f091821c8116939283901c9290911c16604184108015906103695750605a8411155b8015610376575060418310155b80156103835750605a8311155b8015610390575060418210155b801561039d5750605a8211155b80156103aa575060418110155b80156103b75750605a8111155b61041d576040517f08c379a000000000000000000000000000000000000000000000000000000000815260206004820152600d60248201527f496e76616c69642041534349490000000000000000000000000000000000000060448201526064016101a6565b600085604001516004876020015160ff16901b1760ff169050600860006104449190610c9c565b60e087015163ffffffff16901b61045d60086004610c9c565b60c088015173ffffffffffffffffffffffffffffffffffffffff16901b61048660086018610c9c565b60a089015160f01c901b61049c6008601a610c9c565b60808a015160f01c901b6104b26008601c610c9c565b60608b015161ffff16901b6104c96008601e610c9c565b86901b6104d86008601f610c9c565b8c6000015160ff16901b17171717171797505050505050505092915050565b805160009060ff161561058b576040517f08c379a0000000000000000000000000000000000000000000000000000000008152602060048201526024808201527f556e737570706f727465642072656d6f76616c20746f6b656e2069642076657260448201527f73696f6e0000000000000000000000000000000000000000000000000000000060648201526084016101a6565b600f826020015160ff1611156105fd576040517f08c379a000000000000000000000000000000000000000000000000000000000815260206004820152601560248201527f4d6574686f6c6f646f677920746f6f206c61726765000000000000000000000060448201526064016101a6565b600f826040015160ff16111561066f576040517f08c379a000000000000000000000000000000000000000000000000000000000815260206004820152601d60248201527f4d6574686f6c6f646f67792076657273696f6e20746f6f206c6172676500000060448201526064016101a6565b608082015160a08301516040840151602085015160f884811c9460ff60f091821c8116959283901c9492821c811693921660049290921b16176106b460086000610c9c565b60e088015163ffffffff16901b6106cd60086004610c9c565b60c089015173ffffffffffffffffffffffffffffffffffffffff16901b6106f660086018610c9c565b60a08a015160f01c901b61070c6008601a610c9c565b60808b015160f01c901b6107226008601c610c9c565b60608c015161ffff16901b6107396008601e610c9c565b86901b6107486008601f610c9c565b8d6000015160ff16901b17171717171795505050505050919050565b6040805161010081018252600080825260208201819052918101829052606081018290526080810182905260a0810182905260c0810182905260e08101919091526040518061010001604052806107ba84610891565b60ff1681526020016107cb846108a0565b60ff1681526020016107dc846108b9565b60ff1681526020016107ed846108d1565b61ffff1681526020016107ff846108e0565b7fffff00000000000000000000000000000000000000000000000000000000000016815260200161082f846108f8565b7fffff00000000000000000000000000000000000000000000000000000000000016815260200161085f84610907565b73ffffffffffffffffffffffffffffffffffffffff16815260200161088384610916565b63ffffffff16905292915050565b60006100ae826001601f610921565b600060046108b1836001601e610921565b901c92915050565b60006108c8826001601e610921565b600f1692915050565b60006100ae826002601c610921565b60006108ef826002601a610921565b60f01b92915050565b60006108ef8260026018610921565b60006100ae8260146004610921565b60006100ae82600460005b60008061092f600884610c9c565b600161093c600887610c9c565b610947906002610df9565b6109519190610e05565b901b9050848116610963600885610c9c565b1c95945050505050565b6000806020838503121561098057600080fd5b823567ffffffffffffffff8082111561099857600080fd5b818501915085601f8301126109ac57600080fd5b8135818111156109bb57600080fd5b8660208285010111156109cd57600080fd5b60209290920196919550909350505050565b803560ff811681146109f057600080fd5b919050565b803561ffff811681146109f057600080fd5b80357fffff000000000000000000000000000000000000000000000000000000000000811681146109f057600080fd5b803573ffffffffffffffffffffffffffffffffffffffff811681146109f057600080fd5b803563ffffffff811681146109f057600080fd5b6000610100808385031215610a8357600080fd5b6040519081019067ffffffffffffffff82118183101715610acd577f4e487b7100000000000000000000000000000000000000000000000000000000600052604160045260246000fd5b81604052610ada846109df565b8152610ae8602085016109df565b6020820152610af9604085016109df565b6040820152610b0a606085016109f5565b6060820152610b1b60808501610a07565b6080820152610b2c60a08501610a07565b60a0820152610b3d60c08501610a37565b60c0820152610b4e60e08501610a5b565b60e0820152949350505050565b600060208284031215610b6d57600080fd5b5035919050565b60006101008201905060ff835116825260ff602084015116602083015260ff604084015116604083015261ffff60608401511660608301527fffff000000000000000000000000000000000000000000000000000000000000608084015116608083015260a0830151610c0b60a08401827fffff000000000000000000000000000000000000000000000000000000000000169052565b5060c0830151610c3360c084018273ffffffffffffffffffffffffffffffffffffffff169052565b5060e0830151610c4b60e084018263ffffffff169052565b5092915050565b600060208284031215610c6457600080fd5b6100ab826109df565b7f4e487b7100000000000000000000000000000000000000000000000000000000600052601160045260246000fd5b6000817fffffffffffffffffffffffffffffffffffffffffffffffffffffffffffffffff0483118215151615610cd457610cd4610c6d565b500290565b600181815b80851115610d3257817fffffffffffffffffffffffffffffffffffffffffffffffffffffffffffffffff04821115610d1857610d18610c6d565b80851615610d2557918102915b93841c9390800290610cde565b509250929050565b600082610d49575060016100ae565b81610d56575060006100ae565b8160018114610d6c5760028114610d7657610d92565b60019150506100ae565b60ff841115610d8757610d87610c6d565b50506001821b6100ae565b5060208310610133831016604e8410600b8410161715610db5575081810a6100ae565b610dbf8383610cd9565b807fffffffffffffffffffffffffffffffffffffffffffffffffffffffffffffffff04821115610df157610df1610c6d565b029392505050565b60006100ab8383610d3a565b600082821015610e1757610e17610c6d565b50039056fea264697066735822122082205aa7bc7f402315d8cb1a2ba1b1c0906a26132621284bb6482e6a8a18b41b64736f6c634300080f0033",
  "linkReferences": {},
  "deployedLinkReferences": {}
}