{
  "_format": "hh-sol-artifact-1",
  "contractName": "RemovalTestHarness",
  "sourceName": "contracts/test/RemovalUtilsTestHarness.sol",
  "abi": [
    {
      "inputs": [
        {
          "internalType": "bytes",
          "name": "removalData",
          "type": "bytes"
        }
      ],
      "name": "createRemovalId",
      "outputs": [
        {
          "internalType": "RemovalId",
          "name": "",
          "type": "uint256"
        }
      ],
      "stateMutability": "pure",
      "type": "function"
    },
    {
      "inputs": [
        {
          "components": [
            {
              "internalType": "uint8",
              "name": "idVersion",
              "type": "uint8"
            },
            {
              "internalType": "uint8",
              "name": "methodology",
              "type": "uint8"
            },
            {
              "internalType": "uint8",
              "name": "methodologyVersion",
              "type": "uint8"
            },
            {
              "internalType": "uint16",
              "name": "vintage",
              "type": "uint16"
            },
            {
              "internalType": "bytes2",
              "name": "country",
              "type": "bytes2"
            },
            {
              "internalType": "bytes2",
              "name": "subdivision",
              "type": "bytes2"
            },
            {
              "internalType": "address",
              "name": "supplierAddress",
              "type": "address"
            },
            {
              "internalType": "uint32",
              "name": "subIdentifier",
              "type": "uint32"
            }
          ],
          "internalType": "struct UnpackedRemovalIdV0",
          "name": "removalData",
          "type": "tuple"
        }
      ],
      "name": "createRemovalIdFromStruct",
      "outputs": [
        {
          "internalType": "RemovalId",
          "name": "",
          "type": "uint256"
        }
      ],
      "stateMutability": "nonpayable",
      "type": "function"
    },
    {
      "inputs": [
        {
          "internalType": "RemovalId",
          "name": "removalId",
          "type": "uint256"
        }
      ],
      "name": "unpackRemovalIdV0",
      "outputs": [
        {
          "components": [
            {
              "internalType": "uint8",
              "name": "idVersion",
              "type": "uint8"
            },
            {
              "internalType": "uint8",
              "name": "methodology",
              "type": "uint8"
            },
            {
              "internalType": "uint8",
              "name": "methodologyVersion",
              "type": "uint8"
            },
            {
              "internalType": "uint16",
              "name": "vintage",
              "type": "uint16"
            },
            {
              "internalType": "bytes2",
              "name": "country",
              "type": "bytes2"
            },
            {
              "internalType": "bytes2",
              "name": "subdivision",
              "type": "bytes2"
            },
            {
              "internalType": "address",
              "name": "supplierAddress",
              "type": "address"
            },
            {
              "internalType": "uint32",
              "name": "subIdentifier",
              "type": "uint32"
            }
          ],
          "internalType": "struct UnpackedRemovalIdV0",
          "name": "",
          "type": "tuple"
        }
      ],
      "stateMutability": "pure",
      "type": "function"
    }
  ],
  "bytecode": "0x608060405234801561001057600080fd5b50610eed806100206000396000f3fe608060405234801561001057600080fd5b50600436106100415760003560e01c806348ec4c3b14610046578063b639b4f31461006c578063d85a53e91461007f575b600080fd5b610059610054366004610a08565b61009f565b6040519081526020015b60405180910390f35b61005961007a366004610b0a565b6100b4565b61009261008d366004610bf6565b6100bf565b6040516100639190610c0f565b60006100ab8383610109565b90505b92915050565b60006100ae826104f7565b6040805161010081018252600080825260208201819052918101829052606081018290526080810182905260a0810182905260c0810182905260e08101919091526100ae826107ff565b60008061011883850185610ced565b60ff16905080156101af576040517f08c379a0000000000000000000000000000000000000000000000000000000008152602060048201526024808201527f556e737570706f727465642072656d6f76616c20746f6b656e2069642076657260448201527f73696f6e0000000000000000000000000000000000000000000000000000000060648201526084015b60405180910390fd5b6101008314610240576040517f08c379a000000000000000000000000000000000000000000000000000000000815260206004820152602a60248201527f72656d6f76616c4461746120636f6e7461696e732077726f6e67206e756d626560448201527f72206f662062797465730000000000000000000000000000000000000000000060648201526084016101a6565b600061024e84860186610b0a565b9050600f816020015160ff1611156102c2576040517f08c379a000000000000000000000000000000000000000000000000000000000815260206004820152601560248201527f4d6574686f6c6f646f677920746f6f206c61726765000000000000000000000060448201526064016101a6565b600f816040015160ff161115610334576040517f08c379a000000000000000000000000000000000000000000000000000000000815260206004820152601d60248201527f4d6574686f6c6f646f67792076657273696f6e20746f6f206c6172676500000060448201526064016101a6565b608081015160a082015160f882811c9260ff60f091821c8116939283901c9290911c1660418410801590610369575060098411155b8015610376575060418310155b8015610383575060098311155b8015610390575060418210155b801561039d575060098211155b80156103aa575060418110155b80156103b7575060098111155b61041d576040517f08c379a000000000000000000000000000000000000000000000000000000000815260206004820152600d60248201527f496e76616c69642041534349490000000000000000000000000000000000000060448201526064016101a6565b600085604001516004876020015160ff16901b1760ff169050600860006104449190610d37565b60e087015163ffffffff16901b61045d60086004610d37565b60c088015173ffffffffffffffffffffffffffffffffffffffff16901b61048660086018610d37565b60a089015160f01c901b61049c6008601a610d37565b60808a015160f01c901b6104b26008601c610d37565b60608b015161ffff16901b6104c96008601e610d37565b86901b6104d86008601f610d37565b8c6000015160ff16901b17171717171797505050505050505092915050565b805160009060ff161561058b576040517f08c379a0000000000000000000000000000000000000000000000000000000008152602060048201526024808201527f556e737570706f727465642072656d6f76616c20746f6b656e2069642076657260448201527f73696f6e0000000000000000000000000000000000000000000000000000000060648201526084016101a6565b600f826020015160ff1611156105fd576040517f08c379a000000000000000000000000000000000000000000000000000000000815260206004820152601560248201527f4d6574686f6c6f646f677920746f6f206c61726765000000000000000000000060448201526064016101a6565b600f826040015160ff16111561066f576040517f08c379a000000000000000000000000000000000000000000000000000000000815260206004820152601d60248201527f4d6574686f6c6f646f67792076657273696f6e20746f6f206c6172676500000060448201526064016101a6565b6106978260800151605b600082901a81811060409182101660019390931a9182109111161690565b80156106c657506106c68260a00151605b600082901a81811060409182101660019390931a9182109111161690565b61072c576040517f08c379a000000000000000000000000000000000000000000000000000000000815260206004820152601b60248201527f496e76616c696420556e6361706974616c697a6564204153434949000000000060448201526064016101a6565b600082604001516004846020015160ff16901b1760ff169050600860006107539190610d37565b60e084015163ffffffff16901b61076c60086004610d37565b60c085015173ffffffffffffffffffffffffffffffffffffffff16901b61079560086018610d37565b60a086015160f01c901b6107ab6008601a610d37565b608087015160f01c901b6107c16008601c610d37565b606088015161ffff16901b6107d86008601e610d37565b86901b6107e76008601f610d37565b896000015160ff16901b171717171717915050919050565b6040805161010081018252600080825260208201819052918101829052606081018290526080810182905260a0810182905260c0810182905260e08101919091526040518061010001604052806108558461092c565b60ff1681526020016108668461093b565b60ff16815260200161087784610954565b60ff1681526020016108888461096c565b61ffff16815260200161089a8461097b565b7fffff0000000000000000000000000000000000000000000000000000000000001681526020016108ca84610993565b7fffff0000000000000000000000000000000000000000000000000000000000001681526020016108fa846109a2565b73ffffffffffffffffffffffffffffffffffffffff16815260200161091e846109b1565b63ffffffff16905292915050565b60006100ae826001601f6109bc565b6000600461094c836001601e6109bc565b901c92915050565b6000610963826001601e6109bc565b600f1692915050565b60006100ae826002601c6109bc565b600061098a826002601a6109bc565b60f01b92915050565b600061098a82600260186109bc565b60006100ae82601460046109bc565b60006100ae82600460005b6000806109ca600884610d37565b60016109d7600887610d37565b6109e2906002610e94565b6109ec9190610ea0565b901b90508481166109fe600885610d37565b1c95945050505050565b60008060208385031215610a1b57600080fd5b823567ffffffffffffffff80821115610a3357600080fd5b818501915085601f830112610a4757600080fd5b813581811115610a5657600080fd5b866020828501011115610a6857600080fd5b60209290920196919550909350505050565b803560ff81168114610a8b57600080fd5b919050565b803561ffff81168114610a8b57600080fd5b80357fffff00000000000000000000000000000000000000000000000000000000000081168114610a8b57600080fd5b803573ffffffffffffffffffffffffffffffffffffffff81168114610a8b57600080fd5b803563ffffffff81168114610a8b57600080fd5b6000610100808385031215610b1e57600080fd5b6040519081019067ffffffffffffffff82118183101715610b68577f4e487b7100000000000000000000000000000000000000000000000000000000600052604160045260246000fd5b81604052610b7584610a7a565b8152610b8360208501610a7a565b6020820152610b9460408501610a7a565b6040820152610ba560608501610a90565b6060820152610bb660808501610aa2565b6080820152610bc760a08501610aa2565b60a0820152610bd860c08501610ad2565b60c0820152610be960e08501610af6565b60e0820152949350505050565b600060208284031215610c0857600080fd5b5035919050565b60006101008201905060ff835116825260ff602084015116602083015260ff604084015116604083015261ffff60608401511660608301527fffff000000000000000000000000000000000000000000000000000000000000608084015116608083015260a0830151610ca660a08401827fffff000000000000000000000000000000000000000000000000000000000000169052565b5060c0830151610cce60c084018273ffffffffffffffffffffffffffffffffffffffff169052565b5060e0830151610ce660e084018263ffffffff169052565b5092915050565b600060208284031215610cff57600080fd5b6100ab82610a7a565b7f4e487b7100000000000000000000000000000000000000000000000000000000600052601160045260246000fd5b6000817fffffffffffffffffffffffffffffffffffffffffffffffffffffffffffffffff0483118215151615610d6f57610d6f610d08565b500290565b600181815b80851115610dcd57817fffffffffffffffffffffffffffffffffffffffffffffffffffffffffffffffff04821115610db357610db3610d08565b80851615610dc057918102915b93841c9390800290610d79565b509250929050565b600082610de4575060016100ae565b81610df1575060006100ae565b8160018114610e075760028114610e1157610e2d565b60019150506100ae565b60ff841115610e2257610e22610d08565b50506001821b6100ae565b5060208310610133831016604e8410600b8410161715610e50575081810a6100ae565b610e5a8383610d74565b807fffffffffffffffffffffffffffffffffffffffffffffffffffffffffffffffff04821115610e8c57610e8c610d08565b029392505050565b60006100ab8383610dd5565b600082821015610eb257610eb2610d08565b50039056fea2646970667358221220dcfa6db1ec771852de291fac1d8409c33e0550ae8cab31c550b1538e6687792c64736f6c634300080f0033",
  "linkReferences": {},
  "deployedLinkReferences": {}
}