{
  "_format": "hh-sol-artifact-1",
  "contractName": "EscrowedNORI",
  "sourceName": "contracts/EscrowedNORI.sol",
  "abi": [
    {
      "anonymous": false,
      "inputs": [
        {
          "indexed": true,
          "internalType": "address",
          "name": "owner",
          "type": "address"
        },
        {
          "indexed": true,
          "internalType": "address",
          "name": "spender",
          "type": "address"
        },
        {
          "indexed": false,
          "internalType": "uint256",
          "name": "value",
          "type": "uint256"
        }
      ],
      "name": "Approval",
      "type": "event"
    },
    {
      "anonymous": false,
      "inputs": [
        {
          "indexed": true,
          "internalType": "address",
          "name": "operator",
          "type": "address"
        },
        {
          "indexed": true,
          "internalType": "address",
          "name": "tokenHolder",
          "type": "address"
        }
      ],
      "name": "AuthorizedOperator",
      "type": "event"
    },
    {
      "anonymous": false,
      "inputs": [
        {
          "indexed": true,
          "internalType": "address",
          "name": "operator",
          "type": "address"
        },
        {
          "indexed": true,
          "internalType": "address",
          "name": "from",
          "type": "address"
        },
        {
          "indexed": false,
          "internalType": "uint256",
          "name": "amount",
          "type": "uint256"
        },
        {
          "indexed": false,
          "internalType": "bytes",
          "name": "data",
          "type": "bytes"
        },
        {
          "indexed": false,
          "internalType": "bytes",
          "name": "operatorData",
          "type": "bytes"
        }
      ],
      "name": "Burned",
      "type": "event"
    },
    {
      "anonymous": false,
      "inputs": [
        {
          "indexed": true,
          "internalType": "address",
          "name": "recipient",
          "type": "address"
        },
        {
          "indexed": true,
          "internalType": "uint256",
          "name": "startTime",
          "type": "uint256"
        }
      ],
      "name": "EscrowScheduleCreated",
      "type": "event"
    },
    {
      "anonymous": false,
      "inputs": [
        {
          "indexed": true,
          "internalType": "address",
          "name": "operator",
          "type": "address"
        },
        {
          "indexed": true,
          "internalType": "address",
          "name": "to",
          "type": "address"
        },
        {
          "indexed": false,
          "internalType": "uint256",
          "name": "amount",
          "type": "uint256"
        },
        {
          "indexed": false,
          "internalType": "bytes",
          "name": "data",
          "type": "bytes"
        },
        {
          "indexed": false,
          "internalType": "bytes",
          "name": "operatorData",
          "type": "bytes"
        }
      ],
      "name": "Minted",
      "type": "event"
    },
    {
      "anonymous": false,
      "inputs": [
        {
          "indexed": false,
          "internalType": "address",
          "name": "account",
          "type": "address"
        }
      ],
      "name": "Paused",
      "type": "event"
    },
    {
      "anonymous": false,
      "inputs": [
        {
          "indexed": true,
          "internalType": "address",
          "name": "operator",
          "type": "address"
        },
        {
          "indexed": true,
          "internalType": "address",
          "name": "tokenHolder",
          "type": "address"
        }
      ],
      "name": "RevokedOperator",
      "type": "event"
    },
    {
      "anonymous": false,
      "inputs": [
        {
          "indexed": true,
          "internalType": "bytes32",
          "name": "role",
          "type": "bytes32"
        },
        {
          "indexed": true,
          "internalType": "bytes32",
          "name": "previousAdminRole",
          "type": "bytes32"
        },
        {
          "indexed": true,
          "internalType": "bytes32",
          "name": "newAdminRole",
          "type": "bytes32"
        }
      ],
      "name": "RoleAdminChanged",
      "type": "event"
    },
    {
      "anonymous": false,
      "inputs": [
        {
          "indexed": true,
          "internalType": "bytes32",
          "name": "role",
          "type": "bytes32"
        },
        {
          "indexed": true,
          "internalType": "address",
          "name": "account",
          "type": "address"
        },
        {
          "indexed": true,
          "internalType": "address",
          "name": "sender",
          "type": "address"
        }
      ],
      "name": "RoleGranted",
      "type": "event"
    },
    {
      "anonymous": false,
      "inputs": [
        {
          "indexed": true,
          "internalType": "bytes32",
          "name": "role",
          "type": "bytes32"
        },
        {
          "indexed": true,
          "internalType": "address",
          "name": "account",
          "type": "address"
        },
        {
          "indexed": true,
          "internalType": "address",
          "name": "sender",
          "type": "address"
        }
      ],
      "name": "RoleRevoked",
      "type": "event"
    },
    {
      "anonymous": false,
      "inputs": [
        {
          "indexed": true,
          "internalType": "address",
          "name": "operator",
          "type": "address"
        },
        {
          "indexed": true,
          "internalType": "address",
          "name": "from",
          "type": "address"
        },
        {
          "indexed": true,
          "internalType": "address",
          "name": "to",
          "type": "address"
        },
        {
          "indexed": false,
          "internalType": "uint256",
          "name": "amount",
          "type": "uint256"
        },
        {
          "indexed": false,
          "internalType": "bytes",
          "name": "data",
          "type": "bytes"
        },
        {
          "indexed": false,
          "internalType": "bytes",
          "name": "operatorData",
          "type": "bytes"
        }
      ],
      "name": "Sent",
      "type": "event"
    },
    {
      "anonymous": false,
      "inputs": [
        {
          "indexed": true,
          "internalType": "address",
          "name": "from",
          "type": "address"
        },
        {
          "indexed": false,
          "internalType": "address[]",
          "name": "recipients",
          "type": "address[]"
        },
        {
          "indexed": false,
          "internalType": "uint256[]",
          "name": "amounts",
          "type": "uint256[]"
        },
        {
          "indexed": false,
          "internalType": "bytes[]",
          "name": "userData",
          "type": "bytes[]"
        },
        {
          "indexed": false,
          "internalType": "bytes[]",
          "name": "operatorData",
          "type": "bytes[]"
        },
        {
          "indexed": false,
          "internalType": "bool[]",
          "name": "requireReceptionAck",
          "type": "bool[]"
        }
      ],
      "name": "SentBatch",
      "type": "event"
    },
    {
      "anonymous": false,
      "inputs": [
        {
          "indexed": true,
          "internalType": "address",
          "name": "from",
          "type": "address"
        },
        {
          "indexed": true,
          "internalType": "address",
          "name": "to",
          "type": "address"
        },
        {
          "indexed": false,
          "internalType": "uint256",
          "name": "quantity",
          "type": "uint256"
        }
      ],
      "name": "TokensClaimed",
      "type": "event"
    },
    {
      "anonymous": false,
      "inputs": [
        {
          "indexed": true,
          "internalType": "address",
          "name": "from",
          "type": "address"
        },
        {
          "indexed": true,
          "internalType": "address",
          "name": "to",
          "type": "address"
        },
        {
          "indexed": false,
          "internalType": "uint256",
          "name": "value",
          "type": "uint256"
        }
      ],
      "name": "Transfer",
      "type": "event"
    },
    {
      "anonymous": false,
      "inputs": [
        {
          "indexed": false,
          "internalType": "address",
          "name": "account",
          "type": "address"
        }
      ],
      "name": "Unpaused",
      "type": "event"
    },
    {
      "anonymous": false,
      "inputs": [
        {
          "indexed": true,
          "internalType": "uint256",
          "name": "atTime",
          "type": "uint256"
        },
        {
          "indexed": true,
          "internalType": "uint256",
          "name": "removalId",
          "type": "uint256"
        },
        {
          "indexed": true,
          "internalType": "uint256",
          "name": "escrowScheduleId",
          "type": "uint256"
        },
        {
          "indexed": false,
          "internalType": "uint256",
          "name": "quantity",
          "type": "uint256"
        }
      ],
      "name": "UnreleasedTokensRevoked",
      "type": "event"
    },
    {
      "inputs": [],
      "name": "DEFAULT_ADMIN_ROLE",
      "outputs": [
        {
          "internalType": "bytes32",
          "name": "",
          "type": "bytes32"
        }
      ],
      "stateMutability": "view",
      "type": "function"
    },
    {
      "inputs": [],
      "name": "ERC777_TOKENS_RECIPIENT_HASH",
      "outputs": [
        {
          "internalType": "bytes32",
          "name": "",
          "type": "bytes32"
        }
      ],
      "stateMutability": "view",
      "type": "function"
    },
    {
      "inputs": [],
      "name": "ESCROW_CREATOR_ROLE",
      "outputs": [
        {
          "internalType": "bytes32",
          "name": "",
          "type": "bytes32"
        }
      ],
      "stateMutability": "view",
      "type": "function"
    },
    {
      "inputs": [],
      "name": "PAUSER_ROLE",
      "outputs": [
        {
          "internalType": "bytes32",
          "name": "",
          "type": "bytes32"
        }
      ],
      "stateMutability": "view",
      "type": "function"
    },
    {
      "inputs": [
        {
          "internalType": "address",
          "name": "holder",
          "type": "address"
        },
        {
          "internalType": "address",
          "name": "spender",
          "type": "address"
        }
      ],
      "name": "allowance",
      "outputs": [
        {
          "internalType": "uint256",
          "name": "",
          "type": "uint256"
        }
      ],
      "stateMutability": "view",
      "type": "function"
    },
    {
      "inputs": [
        {
          "internalType": "address",
          "name": "spender",
          "type": "address"
        },
        {
          "internalType": "uint256",
          "name": "value",
          "type": "uint256"
        }
      ],
      "name": "approve",
      "outputs": [
        {
          "internalType": "bool",
          "name": "",
          "type": "bool"
        }
      ],
      "stateMutability": "nonpayable",
      "type": "function"
    },
    {
      "inputs": [
        {
          "internalType": "address",
          "name": "operator",
          "type": "address"
        }
      ],
      "name": "authorizeOperator",
      "outputs": [],
      "stateMutability": "nonpayable",
      "type": "function"
    },
    {
      "inputs": [
        {
          "internalType": "address",
          "name": "tokenHolder",
          "type": "address"
        }
      ],
      "name": "balanceOf",
      "outputs": [
        {
          "internalType": "uint256",
          "name": "",
          "type": "uint256"
        }
      ],
      "stateMutability": "view",
      "type": "function"
    },
    {
      "inputs": [
        {
          "internalType": "address[]",
          "name": "accounts",
          "type": "address[]"
        }
      ],
      "name": "balanceOfBatch",
      "outputs": [
        {
          "internalType": "uint256[]",
          "name": "",
          "type": "uint256[]"
        }
      ],
      "stateMutability": "view",
      "type": "function"
    },
    {
      "inputs": [
        {
          "internalType": "address[]",
          "name": "accounts",
          "type": "address[]"
        }
      ],
      "name": "batchGetEscrowSchedules",
      "outputs": [
        {
          "components": [
            {
              "internalType": "uint256",
              "name": "currentAmount",
              "type": "uint256"
            },
            {
              "internalType": "address",
              "name": "recipient",
              "type": "address"
            },
            {
              "internalType": "uint256",
              "name": "startTime",
              "type": "uint256"
            },
            {
              "internalType": "uint256",
              "name": "escrowEndTime",
              "type": "uint256"
            },
            {
              "internalType": "uint256",
              "name": "claimedAmount",
              "type": "uint256"
            },
            {
              "internalType": "uint256",
              "name": "totalQuantityRevoked",
              "type": "uint256"
            },
            {
              "internalType": "bool",
              "name": "exists",
              "type": "bool"
            }
          ],
          "internalType": "struct EscrowedNORI.EscrowScheduleDetail[]",
          "name": "",
          "type": "tuple[]"
        }
      ],
      "stateMutability": "view",
      "type": "function"
    },
    {
      "inputs": [
        {
          "internalType": "address[]",
          "name": "toAccounts",
          "type": "address[]"
        },
        {
          "internalType": "uint256[]",
          "name": "removalIds",
          "type": "uint256[]"
        },
        {
          "internalType": "uint256[]",
          "name": "amounts",
          "type": "uint256[]"
        }
      ],
      "name": "batchRevokeUnreleasedTokenAmounts",
      "outputs": [],
      "stateMutability": "nonpayable",
      "type": "function"
    },
    {
      "inputs": [
        {
          "internalType": "address[]",
          "name": "recipients",
          "type": "address[]"
        },
        {
          "internalType": "uint256[]",
          "name": "amounts",
          "type": "uint256[]"
        },
        {
          "internalType": "bytes[]",
          "name": "userData",
          "type": "bytes[]"
        },
        {
          "internalType": "bytes[]",
          "name": "operatorData",
          "type": "bytes[]"
        },
        {
          "internalType": "bool[]",
          "name": "requireReceptionAck",
          "type": "bool[]"
        }
      ],
      "name": "batchSend",
      "outputs": [],
      "stateMutability": "nonpayable",
      "type": "function"
    },
    {
      "inputs": [
        {
          "internalType": "uint256",
          "name": "",
          "type": "uint256"
        },
        {
          "internalType": "bytes",
          "name": "",
          "type": "bytes"
        }
      ],
      "name": "burn",
      "outputs": [],
      "stateMutability": "pure",
      "type": "function"
    },
    {
      "inputs": [
        {
          "internalType": "address",
          "name": "account",
          "type": "address"
        }
      ],
      "name": "claimableBalanceOf",
      "outputs": [
        {
          "internalType": "uint256",
          "name": "",
          "type": "uint256"
        }
      ],
      "stateMutability": "view",
      "type": "function"
    },
    {
      "inputs": [
        {
          "internalType": "address",
          "name": "recipient",
          "type": "address"
        },
        {
          "internalType": "uint256",
          "name": "startTime",
          "type": "uint256"
        }
      ],
      "name": "createEscrowSchedule",
      "outputs": [],
      "stateMutability": "nonpayable",
      "type": "function"
    },
    {
      "inputs": [],
      "name": "decimals",
      "outputs": [
        {
          "internalType": "uint8",
          "name": "",
          "type": "uint8"
        }
      ],
      "stateMutability": "pure",
      "type": "function"
    },
    {
      "inputs": [],
      "name": "defaultOperators",
      "outputs": [
        {
          "internalType": "address[]",
          "name": "",
          "type": "address[]"
        }
      ],
      "stateMutability": "view",
      "type": "function"
    },
    {
      "inputs": [
        {
          "internalType": "address",
          "name": "account",
          "type": "address"
        },
        {
          "internalType": "uint256",
          "name": "escrowScheduleId",
          "type": "uint256"
        }
      ],
      "name": "getEscrowSchedule",
      "outputs": [
        {
          "components": [
            {
              "internalType": "uint256",
              "name": "currentAmount",
              "type": "uint256"
            },
            {
              "internalType": "address",
              "name": "recipient",
              "type": "address"
            },
            {
              "internalType": "uint256",
              "name": "startTime",
              "type": "uint256"
            },
            {
              "internalType": "uint256",
              "name": "escrowEndTime",
              "type": "uint256"
            },
            {
              "internalType": "uint256",
              "name": "claimedAmount",
              "type": "uint256"
            },
            {
              "internalType": "uint256",
              "name": "totalQuantityRevoked",
              "type": "uint256"
            },
            {
              "internalType": "bool",
              "name": "exists",
              "type": "bool"
            }
          ],
          "internalType": "struct EscrowedNORI.EscrowScheduleDetail",
          "name": "",
          "type": "tuple"
        }
      ],
      "stateMutability": "view",
      "type": "function"
    },
    {
      "inputs": [
        {
          "internalType": "bytes32",
          "name": "role",
          "type": "bytes32"
        }
      ],
      "name": "getRoleAdmin",
      "outputs": [
        {
          "internalType": "bytes32",
          "name": "",
          "type": "bytes32"
        }
      ],
      "stateMutability": "view",
      "type": "function"
    },
    {
      "inputs": [
        {
          "internalType": "bytes32",
          "name": "role",
          "type": "bytes32"
        },
        {
          "internalType": "uint256",
          "name": "index",
          "type": "uint256"
        }
      ],
      "name": "getRoleMember",
      "outputs": [
        {
          "internalType": "address",
          "name": "",
          "type": "address"
        }
      ],
      "stateMutability": "view",
      "type": "function"
    },
    {
      "inputs": [
        {
          "internalType": "bytes32",
          "name": "role",
          "type": "bytes32"
        }
      ],
      "name": "getRoleMemberCount",
      "outputs": [
        {
          "internalType": "uint256",
          "name": "",
          "type": "uint256"
        }
      ],
      "stateMutability": "view",
      "type": "function"
    },
    {
      "inputs": [
        {
          "internalType": "bytes32",
          "name": "role",
          "type": "bytes32"
        },
        {
          "internalType": "address",
          "name": "account",
          "type": "address"
        }
      ],
      "name": "grantRole",
      "outputs": [],
      "stateMutability": "nonpayable",
      "type": "function"
    },
    {
      "inputs": [],
      "name": "granularity",
      "outputs": [
        {
          "internalType": "uint256",
          "name": "",
          "type": "uint256"
        }
      ],
      "stateMutability": "view",
      "type": "function"
    },
    {
      "inputs": [
        {
          "internalType": "bytes32",
          "name": "role",
          "type": "bytes32"
        },
        {
          "internalType": "address",
          "name": "account",
          "type": "address"
        }
      ],
      "name": "hasRole",
      "outputs": [
        {
          "internalType": "bool",
          "name": "",
          "type": "bool"
        }
      ],
      "stateMutability": "view",
      "type": "function"
    },
    {
      "inputs": [
        {
          "internalType": "contract BridgedPolygonNORI",
          "name": "bridgedPolygonNoriAddress",
          "type": "address"
        },
        {
          "internalType": "contract Removal",
          "name": "removalAddress",
          "type": "address"
        }
      ],
      "name": "initialize",
      "outputs": [],
      "stateMutability": "nonpayable",
      "type": "function"
    },
    {
      "inputs": [
        {
          "internalType": "address",
          "name": "operator",
          "type": "address"
        },
        {
          "internalType": "address",
          "name": "tokenHolder",
          "type": "address"
        }
      ],
      "name": "isOperatorFor",
      "outputs": [
        {
          "internalType": "bool",
          "name": "",
          "type": "bool"
        }
      ],
      "stateMutability": "view",
      "type": "function"
    },
    {
      "inputs": [],
      "name": "name",
      "outputs": [
        {
          "internalType": "string",
          "name": "",
          "type": "string"
        }
      ],
      "stateMutability": "view",
      "type": "function"
    },
    {
      "inputs": [
        {
          "internalType": "address",
          "name": "",
          "type": "address"
        },
        {
          "internalType": "uint256",
          "name": "",
          "type": "uint256"
        },
        {
          "internalType": "bytes",
          "name": "",
          "type": "bytes"
        },
        {
          "internalType": "bytes",
          "name": "",
          "type": "bytes"
        }
      ],
      "name": "operatorBurn",
      "outputs": [],
      "stateMutability": "pure",
      "type": "function"
    },
    {
      "inputs": [
        {
          "internalType": "address",
          "name": "",
          "type": "address"
        },
        {
          "internalType": "address",
          "name": "",
          "type": "address"
        },
        {
          "internalType": "uint256",
          "name": "",
          "type": "uint256"
        },
        {
          "internalType": "bytes",
          "name": "",
          "type": "bytes"
        },
        {
          "internalType": "bytes",
          "name": "",
          "type": "bytes"
        }
      ],
      "name": "operatorSend",
      "outputs": [],
      "stateMutability": "pure",
      "type": "function"
    },
    {
      "inputs": [],
      "name": "pause",
      "outputs": [],
      "stateMutability": "nonpayable",
      "type": "function"
    },
    {
      "inputs": [],
      "name": "paused",
      "outputs": [
        {
          "internalType": "bool",
          "name": "",
          "type": "bool"
        }
      ],
      "stateMutability": "view",
      "type": "function"
    },
    {
      "inputs": [
        {
          "internalType": "bytes32",
          "name": "role",
          "type": "bytes32"
        },
        {
          "internalType": "address",
          "name": "account",
          "type": "address"
        }
      ],
      "name": "renounceRole",
      "outputs": [],
      "stateMutability": "nonpayable",
      "type": "function"
    },
    {
      "inputs": [
        {
          "internalType": "address",
          "name": "account",
          "type": "address"
        },
        {
          "internalType": "uint256",
          "name": "escrowScheduleId",
          "type": "uint256"
        }
      ],
      "name": "revocableQuantity",
      "outputs": [
        {
          "internalType": "uint256",
          "name": "",
          "type": "uint256"
        }
      ],
      "stateMutability": "view",
      "type": "function"
    },
    {
      "inputs": [
        {
          "internalType": "address",
          "name": "operator",
          "type": "address"
        }
      ],
      "name": "revokeOperator",
      "outputs": [],
      "stateMutability": "nonpayable",
      "type": "function"
    },
    {
      "inputs": [
        {
          "internalType": "bytes32",
          "name": "role",
          "type": "bytes32"
        },
        {
          "internalType": "address",
          "name": "account",
          "type": "address"
        }
      ],
      "name": "revokeRole",
      "outputs": [],
      "stateMutability": "nonpayable",
      "type": "function"
    },
    {
      "inputs": [
        {
          "internalType": "address",
          "name": "",
          "type": "address"
        },
        {
          "internalType": "uint256",
          "name": "",
          "type": "uint256"
        },
        {
          "internalType": "bytes",
          "name": "",
          "type": "bytes"
        }
      ],
      "name": "send",
      "outputs": [],
      "stateMutability": "pure",
      "type": "function"
    },
    {
      "inputs": [
        {
          "internalType": "bytes4",
          "name": "interfaceId",
          "type": "bytes4"
        }
      ],
      "name": "supportsInterface",
      "outputs": [
        {
          "internalType": "bool",
          "name": "",
          "type": "bool"
        }
      ],
      "stateMutability": "view",
      "type": "function"
    },
    {
      "inputs": [],
      "name": "symbol",
      "outputs": [
        {
          "internalType": "string",
          "name": "",
          "type": "string"
        }
      ],
      "stateMutability": "view",
      "type": "function"
    },
    {
      "inputs": [
        {
          "internalType": "address",
          "name": "sender",
          "type": "address"
        },
        {
          "internalType": "address",
          "name": "",
          "type": "address"
        },
        {
          "internalType": "address",
          "name": "",
          "type": "address"
        },
        {
          "internalType": "uint256",
          "name": "amount",
          "type": "uint256"
        },
        {
          "internalType": "bytes",
          "name": "userData",
          "type": "bytes"
        },
        {
          "internalType": "bytes",
          "name": "operatorData",
          "type": "bytes"
        }
      ],
      "name": "tokensReceived",
      "outputs": [],
      "stateMutability": "nonpayable",
      "type": "function"
    },
    {
      "inputs": [],
      "name": "totalSupply",
      "outputs": [
        {
          "internalType": "uint256",
          "name": "",
          "type": "uint256"
        }
      ],
      "stateMutability": "view",
      "type": "function"
    },
    {
      "inputs": [
        {
          "internalType": "address",
          "name": "",
          "type": "address"
        },
        {
          "internalType": "uint256",
          "name": "",
          "type": "uint256"
        }
      ],
      "name": "transfer",
      "outputs": [
        {
          "internalType": "bool",
          "name": "",
          "type": "bool"
        }
      ],
      "stateMutability": "pure",
      "type": "function"
    },
    {
      "inputs": [
        {
          "internalType": "address",
          "name": "",
          "type": "address"
        },
        {
          "internalType": "address",
          "name": "",
          "type": "address"
        },
        {
          "internalType": "uint256",
          "name": "",
          "type": "uint256"
        }
      ],
      "name": "transferFrom",
      "outputs": [
        {
          "internalType": "bool",
          "name": "",
          "type": "bool"
        }
      ],
      "stateMutability": "pure",
      "type": "function"
    },
    {
      "inputs": [],
      "name": "unpause",
      "outputs": [],
      "stateMutability": "nonpayable",
      "type": "function"
    },
    {
      "inputs": [
        {
          "internalType": "address",
          "name": "recipient",
          "type": "address"
        },
        {
          "internalType": "uint256",
          "name": "amount",
          "type": "uint256"
        }
      ],
      "name": "withdrawTo",
      "outputs": [
        {
          "internalType": "bool",
          "name": "",
          "type": "bool"
        }
      ],
      "stateMutability": "nonpayable",
      "type": "function"
    }
  ],
  "bytecode": "0x608060405234801561001057600080fd5b50614a5a806100206000396000f3fe608060405234801561001057600080fd5b50600436106102735760003560e01c806370a0823111610151578063ca15c873116100c3578063e01d739311610087578063e01d7393146105c1578063e63ab1e9146105d4578063fad8b32a146105e9578063fc673c4f146105fc578063fe9d93031461060f578063fea914991461061d57600080fd5b8063ca15c8731461053a578063d547741f1461054d578063d95b637114610560578063daa55af014610573578063dd62ed3e1461058857600080fd5b8063959b8c3f11610115578063959b8c3f146104de57806395d89b41146104f15780639bd9bbc6146104f95780639c3ee2441461050c578063a217fddf1461051f578063a9059cbb1461052757600080fd5b806370a082311461045c5780638456cb59146104855780638f6c3ed41461048d5780639010d07c146104a057806391d14854146104cb57600080fd5b8063313ce567116101ea578063521189a9116101ae578063521189a9146103dd578063556f0dc7146104045780635c975abb1461040b5780635d5012941461041657806362ad1b831461043657806366cf8bce1461044957600080fd5b8063313ce5671461038057806336568abe1461038f5780633f4ba83a146103a2578063458c738e146103aa578063485cc955146103ca57600080fd5b806318160ddd1161023c57806318160ddd146102f2578063205c28781461030457806320f20ba21461031757806323b872dd14610337578063248a9ca31461034a5780632f2ff15d1461036d57600080fd5b806223de291461027857806301ffc9a71461028d57806306e48538146102b557806306fdde03146102ca578063095ea7b3146102df575b600080fd5b61028b610286366004613b2d565b610630565b005b6102a061029b366004613bdd565b6107b6565b60405190151581526020015b60405180910390f35b6102bd6107e1565b6040516102ac9190613c4b565b6102d2610843565b6040516102ac9190613cb6565b6102a06102ed366004613cc9565b6108cc565b6034545b6040519081526020016102ac565b6102a0610312366004613cc9565b610912565b61032a610325366004613cc9565b610bb1565b6040516102ac9190613d41565b6102a0610345366004613d4f565b610c30565b6102f6610358366004613d90565b600090815260c9602052604090206001015490565b61028b61037b366004613da9565b610c7b565b604051601281526020016102ac565b61028b61039d366004613da9565b610ca6565b61028b610d24565b6103bd6103b8366004613eb6565b610d48565b6040516102ac9190613f1a565b61028b6103d8366004613f2d565b610e09565b6102f67fb281fc8c12954d22544db45de3159a39272895b169a852b314f9cc762e44c53b81565b60016102f6565b60655460ff166102a0565b610429610424366004613f9f565b611078565b6040516102ac9190613fe0565b61028b61044436600461409d565b61121c565b61028b610457366004614273565b611264565b6102f661046a366004614337565b6001600160a01b031660009081526033602052604090205490565b61028b611543565b61028b61049b366004613cc9565b611564565b6104b36104ae366004614354565b6115aa565b6040516001600160a01b0390911681526020016102ac565b6102a06104d9366004613da9565b6115c2565b61028b6104ec366004614337565b6115ed565b6102d2611601565b61028b610507366004614376565b611610565b6102f661051a366004614337565b61164f565b6102f6600081565b6102a0610535366004613cc9565b61165b565b6102f6610548366004613d90565b6116a6565b61028b61055b366004613da9565b6116bd565b6102a061056e366004613f2d565b6116e3565b6102f6600080516020614a0583398151915281565b6102f6610596366004613f2d565b6001600160a01b039182166000908152603b6020908152604080832093909416825291909152205490565b61028b6105cf3660046143ce565b611784565b6102f66000805160206149e583398151915281565b61028b6105f7366004614337565b611919565b61028b61060a366004614467565b61192d565b61028b61060a3660046144e6565b6102f661062b366004613cc9565b611975565b610161546001600160a01b0316336001600160a01b0316146106995760405162461bcd60e51b815260206004820152601d60248201527f654e4f52493a206e6f742042726964676564506f6c79676f6e4e4f524900000060448201526064015b60405180910390fd5b6106b1600080516020614a05833981519152896115c2565b6107175760405162461bcd60e51b815260206004820152603160248201527f654e4f52493a2073656e646572206973206d697373696e6720726f6c6520455360448201527043524f575f43524541544f525f524f4c4560781b6064820152608401610690565b600061072584860186613d90565b90506000610732826119bb565b6001600160a01b03160361079c5760405162461bcd60e51b815260206004820152602b60248201527f654e4f52493a20746f6b656e2073656e64206d697373696e672072657175697260448201526a656420757365724461746160a81b6064820152608401610690565b6107aa8187878787876119ca565b50505050505050505050565b60006001600160e01b03198216635a05180f60e01b14806107db57506107db82611aea565b92915050565b6060603780548060200260200160405190810160405280929190818152602001828054801561083957602002820191906000526020600020905b81546001600160a01b0316815260019091019060200180831161081b575b5050505050905090565b6060603580546108529061452c565b80601f016020809104026020016040519081016040528092919081815260200182805461087e9061452c565b80156108395780601f106108a057610100808354040283529160200191610839565b820191906000526020600020905b8154815290600101906020018083116108ae57509395945050505050565b60006108da60655460ff1690565b156108f75760405162461bcd60e51b815260040161069090614566565b6109018383611b1f565b61090b8383611b67565b9392505050565b600061093e33836040518060200160405280600081525060405180602001604052806000815250611b7f565b61016154604051634decdde360e11b81526001600160a01b03858116600483015260248201859052606060448301526000606483015290911690639bd9bbc690608401600060405180830381600087803b15801561099b57600080fd5b505af11580156109af573d6000803e3d6000fd5b505033600090815261015f60209081526040808320805482518185028101850190935280835288965093945090929091830182828015610a0e57602002820191906000526020600020905b8154815260200190600101908083116109fa575b5050505050905060005b8151811015610af1576000610a4733848481518110610a3957610a39614590565b602002602001015142611d41565b33600090815261016060205260408120855192935090918290869086908110610a7257610a72614590565b602002602001015181526020019081526020016000209050848210610ab65784816003016000828254610aa591906145bc565b9091555060009550610af192505050565b81816003016000828254610aca91906145bc565b90915550610ada905082866145d4565b945050508080610ae9906145eb565b915050610a18565b508115610b665760405162461bcd60e51b815260206004820152603960248201527f654e4f52493a206572726f7220646973747269627574696e6720636c61696d6560448201527f6420616d6f756e74206163726f7373207363686564756c6573000000000000006064820152608401610690565b6040518481526001600160a01b0386169033907fa86305abc2db271df4609aa86a8d044bc11fb36939841bfdad6c1ab2b26e94719060200160405180910390a3506001949350505050565b610bb961399a565b506001600160a01b039190911660008181526101606020908152604080832094835293815290839020835160e08101855260028201548152918201929092528154928101929092526001810154606083015260038101546080830152600581015460a08301526004015460ff16151560c082015290565b60405162461bcd60e51b815260206004820152601c60248201527f654e4f52493a207472616e7366657246726f6d2064697361626c6564000000006044820152600090606401610690565b600082815260c96020526040902060010154610c978133611ddf565b610ca18383611e43565b505050565b6001600160a01b0381163314610d165760405162461bcd60e51b815260206004820152602f60248201527f416363657373436f6e74726f6c3a2063616e206f6e6c792072656e6f756e636560448201526e103937b632b9903337b91039b2b63360891b6064820152608401610690565b610d208282611e57565b5050565b6000805160206149e5833981519152610d3d8133611ddf565b610d45611e6b565b50565b6060600082516001600160401b03811115610d6557610d65613dd9565b604051908082528060200260200182016040528015610d8e578160200160208202803683370190505b50905060005b8351811015610e0257610dd5848281518110610db257610db2614590565b60200260200101516001600160a01b031660009081526033602052604090205490565b828281518110610de757610de7614590565b6020908102919091010152610dfb816145eb565b9050610d94565b5092915050565b600054610100900460ff16610e245760005460ff1615610e28565b303b155b610e8b5760405162461bcd60e51b815260206004820152602e60248201527f496e697469616c697a61626c653a20636f6e747261637420697320616c72656160448201526d191e481a5b9a5d1a585b1a5e995960921b6064820152608401610690565b600054610100900460ff16158015610ead576000805461ffff19166101011790555b604080516001808252818301909252600091602080830190803683370190505090503381600081518110610ee357610ee3614590565b60200260200101906001600160a01b031690816001600160a01b031681525050610f0b611efe565b610f13611efe565b610f1b611efe565b610f23611efe565b610f2b611f27565b610f33611f5a565b610f806040518060400160405280600d81526020016c457363726f776564204e4f524960981b81525060405180604001604052806005815260200164654e4f524960d81b81525083611fa4565b61016180546001600160a01b038681166001600160a01b0319928316179092556101628054928616929091169190911790556040516329965a1d60e01b815230600482018190527fb281fc8c12954d22544db45de3159a39272895b169a852b314f9cc762e44c53b60248301526044820152731820a4b7618bde71dce8cdc73aab6c95905fad24906329965a1d90606401600060405180830381600087803b15801561102b57600080fd5b505af115801561103f573d6000803e3d6000fd5b50505050611061600080516020614a0583398151915261105c3390565b611e43565b508015610ca1576000805461ff0019169055505050565b60606000826001600160401b0381111561109457611094613dd9565b6040519080825280602002602001820160405280156110cd57816020015b6110ba61399a565b8152602001906001900390816110b25790505b50905060005b8381101561121457600061015f60008787858181106110f4576110f4614590565b90506020020160208101906111099190614337565b6001600160a01b03166001600160a01b0316815260200190815260200160002080548060200260200160405190810160405280929190818152602001828054801561117357602002820191906000526020600020905b81548152602001906001019080831161115f575b5050505050905060005b81518110156111ff576111cf87878581811061119b5761119b614590565b90506020020160208101906111b09190614337565b8383815181106111c2576111c2614590565b6020026020010151610bb1565b8484815181106111e1576111e1614590565b602002602001018190525080806111f7906145eb565b91505061117d565b5050808061120c906145eb565b9150506110d3565b509392505050565b60405162461bcd60e51b815260206004820152601c60248201527f654e4f52493a206f70657261746f7253656e642064697361626c6564000000006044820152606401610690565b83518551146112d85760405162461bcd60e51b815260206004820152604660248201526000805160206149c583398151915260448201527f3a20726563697069656e7420616e6420616d6f756e74206c656e677468206d696064820152650e6dac2e8c6d60d31b608482015260a401610690565b825184511461134c5760405162461bcd60e51b815260206004820152604660248201526000805160206149c583398151915260448201527f3a20616d6f756e747320616e64207573657244617461206c656e677468206d696064820152650e6dac2e8c6d60d31b608482015260a401610690565b81518351146113c55760405162461bcd60e51b815260206004820152604b60248201526000805160206149c583398151915260448201527f3a20757365724461746120616e64206f70657261746f7244617461206c656e6760648201526a0e8d040dad2e6dac2e8c6d60ab1b608482015260a401610690565b80518251146114495760405162461bcd60e51b815260206004820152605660248201526000805160206149c583398151915260448201527f3a206f70657261746f724461746120616e6420726571756972655265636570746064820152750d2dedc82c6d640d8cadccee8d040dad2e6dac2e8c6d60531b608482015260a401610690565b60005b85518110156114f2576114e03387838151811061146b5761146b614590565b602002602001015187848151811061148557611485614590565b602002602001015187858151811061149f5761149f614590565b60200260200101518786815181106114b9576114b9614590565b60200260200101518787815181106114d3576114d3614590565b6020026020010151612197565b806114ea816145eb565b91505061144c565b50336001600160a01b03167fd5865ae34f92a2d6a803fa13140b8165046f54e61e68560b26950c62a668c6b68686868686604051611534959493929190614656565b60405180910390a25050505050565b6000805160206149e583398151915261155c8133611ddf565b610d4561227a565b60655460ff16156115875760405162461bcd60e51b815260040161069090614566565b600080516020614a058339815191526115a08133611ddf565b610ca183836122d2565b600082815260fb6020526040812061090b90836124e5565b600091825260c9602090815260408084206001600160a01b0393909316845291905290205460ff1690565b6115f8816000611b1f565b610d45816124f1565b6060603680546108529061452c565b60405162461bcd60e51b8152602060048201526014602482015273195393d4924e881cd95b9908191a5cd8589b195960621b6044820152606401610690565b60006107db824261260e565b60405162461bcd60e51b815260206004820152601860248201527f654e4f52493a207472616e736665722064697361626c656400000000000000006044820152600090606401610690565b600081815260fb602052604081206107db9061274e565b600082815260c960205260409020600101546116d98133611ddf565b610ca18383611e57565b6000816001600160a01b0316836001600160a01b0316148061174e57506001600160a01b03831660009081526038602052604090205460ff16801561174e57506001600160a01b038083166000908152603a602090815260408083209387168352929052205460ff16155b8061090b5750506001600160a01b0390811660009081526039602090815260408083209490931682529290925290205460ff1690565b60655460ff16156117a75760405162461bcd60e51b815260040161069090614566565b600080516020614a058339815191526117c08133611ddf565b85841461182a5760405162461bcd60e51b815260206004820152603260248201527f654e4f52493a2066726f6d4163636f756e747320616e642072656d6f76616c496044820152710c8e640d8cadccee8d040dad2e6dac2e8c6d60731b6064820152608401610690565b8582146118915760405162461bcd60e51b815260206004820152602f60248201527f654e4f52493a2066726f6d4163636f756e747320616e6420616d6f756e74732060448201526e0d8cadccee8d040dad2e6dac2e8c6d608b1b6064820152608401610690565b60005b8681101561190f576118fd8888838181106118b1576118b1614590565b90506020020160208101906118c69190614337565b8787848181106118d8576118d8614590565b905060200201358686858181106118f1576118f1614590565b90506020020135612758565b80611907816145eb565b915050611894565b5050505050505050565b611924816000611b1f565b610d45816129f6565b60405162461bcd60e51b815260206004820152601c60248201527f654e4f52493a206275726e696e67206e6f7420737570706f72746564000000006044820152606401610690565b6001600160a01b03821660009081526101606020908152604080832084845290915281206119a4848442612b11565b81600201546119b391906145d4565b949350505050565b60006107db8260146004612b55565b6000806119d6886119bb565b905060006119e389612ba1565b6001600160a01b03831660009081526101606020908152604080832061ffff949094168084529390915290206004015490915060ff16611a2757611a2782826122d2565b611a9c828989898080601f01602080910402602001604051908101604052809392919081815260200183838082843760009201919091525050604080516020601f8d018190048102820181019092528b815292508b91508a9081908401838280828437600092019190915250612bb092505050565b6001600160a01b038216600090815261016060209081526040808320848452909152812060028101805491928b92611ad59084906145bc565b9091555060019b9a5050505050505050505050565b60006001600160e01b03198216637965db0b60e01b14806107db57506301ffc9a760e01b6001600160e01b03198316146107db565b60405162461bcd60e51b815260206004820181905260248201527f654e4f52493a206f70657261746f7220616374696f6e732064697361626c65646044820152606401610690565b600033611b75818585612bc4565b5060019392505050565b6001600160a01b038416611be05760405162461bcd60e51b815260206004820152602260248201527f4552433737373a206275726e2066726f6d20746865207a65726f206164647265604482015261737360f01b6064820152608401610690565b33611bf081866000878787612ceb565b611bfd8186600087612e12565b6001600160a01b03851660009081526033602052604090205484811015611c725760405162461bcd60e51b815260206004820152602360248201527f4552433737373a206275726e20616d6f756e7420657863656564732062616c616044820152626e636560e81b6064820152608401610690565b6001600160a01b0386166000908152603360205260408120868303905560348054879290611ca19084906145d4565b92505081905550856001600160a01b0316826001600160a01b03167fa78a9be3a7b862d26933ad85fb11d80ef66b8f972d7cbba06621d583943a4098878787604051611cef939291906146eb565b60405180910390a36040518581526000906001600160a01b038816907fddf252ad1be2c89b69c2b068fc378daa952ba7f163c4a11628f55a4df523b3ef906020015b60405180910390a3505050505050565b6001600160a01b0383166000908152610160602090815260408083208584529091528120600481015460ff16611db95760405162461bcd60e51b815260206004820181905260248201527f654e4f52493a206e6f20657363726f77207363686564756c65206578697374736044820152606401610690565b60008160030154611dcb878787612b11565b611dd591906145d4565b9695505050505050565b611de982826115c2565b610d2057611e01816001600160a01b03166014612f52565b611e0c836020612f52565b604051602001611e1d929190614716565b60408051601f198184030181529082905262461bcd60e51b825261069091600401613cb6565b611e4d82826130ed565b610d208282613192565b611e6182826130ed565b610d2082826131b4565b60655460ff16611eb45760405162461bcd60e51b815260206004820152601460248201527314185d5cd8589b194e881b9bdd081c185d5cd95960621b6044820152606401610690565b6065805460ff191690557f5db9ee0a495bf2e6ff9c91a7834c1ba4fdd244a5e8aa4e537bd38aeae4b073aa335b6040516001600160a01b03909116815260200160405180910390a1565b600054610100900460ff16611f255760405162461bcd60e51b81526004016106909061478b565b565b600054610100900460ff16611f4e5760405162461bcd60e51b81526004016106909061478b565b6065805460ff19169055565b600054610100900460ff16611f815760405162461bcd60e51b81526004016106909061478b565b611f8c600033611e43565b611f256000805160206149e583398151915233611e43565b600054610100900460ff16611fcb5760405162461bcd60e51b81526004016106909061478b565b8251611fde9060359060208601906139e2565b508151611ff29060369060208501906139e2565b508051612006906037906020840190613a66565b5060005b815181101561206f5760016038600084848151811061202b5761202b614590565b6020908102919091018101516001600160a01b03168252810191909152604001600020805460ff191691151591909117905580612067816145eb565b91505061200a565b506040516329965a1d60e01b815230600482018190527fac7fbab5f54a3ca8194167523c6753bfeb96a445279294b6125b68cce217705460248301526044820152731820a4b7618bde71dce8cdc73aab6c95905fad24906329965a1d90606401600060405180830381600087803b1580156120e957600080fd5b505af11580156120fd573d6000803e3d6000fd5b50506040516329965a1d60e01b815230600482018190527faea199e31a596269b42cdafd93407f14436db6e4cad65417994c2eb37381e05a60248301526044820152731820a4b7618bde71dce8cdc73aab6c95905fad2492506329965a1d9150606401600060405180830381600087803b15801561217a57600080fd5b505af115801561218e573d6000803e3d6000fd5b50505050505050565b6001600160a01b0386166121f85760405162461bcd60e51b815260206004820152602260248201527f4552433737373a2073656e642066726f6d20746865207a65726f206164647265604482015261737360f01b6064820152608401610690565b6001600160a01b03851661224e5760405162461bcd60e51b815260206004820181905260248201527f4552433737373a2073656e6420746f20746865207a65726f20616464726573736044820152606401610690565b3361225d818888888888612ceb565b61226b8188888888886131d6565b61218e81888888888888613348565b60655460ff161561229d5760405162461bcd60e51b815260040161069090614566565b6065805460ff191660011790557f62e78cea01bee320cd4e420270b5ea74000d11b0c9f74754ebdbfc544b05a258611ee13390565b6001600160a01b0382166123385760405162461bcd60e51b815260206004820152602760248201527f654e4f52493a20526563697069656e742063616e6e6f74206265207a65726f206044820152666164647265737360c81b6064820152608401610690565b612350600080516020614a05833981519152836115c2565b156123ad5760405162461bcd60e51b815260206004820152602760248201527f654e4f52493a20526563697069656e742063616e6e6f7420626520657363726f6044820152663b9030b236b4b760c91b6064820152608401610690565b6001600160a01b03821660009081526101606020908152604080832084845290915290206004015460ff16156124335760405162461bcd60e51b815260206004820152602560248201527f654e4f52493a20457363726f77207363686564756c6520616c72656164792065604482015264786973747360d81b6064820152608401610690565b6001600160a01b038216600081815261016060209081526040808320858452825280832093835261015f82528220805460018181018355918452918320909101849055600283019190915560048201805460ff1916909117905581815561249e6301e13380836145bc565b600182015560006006820181905560405183916001600160a01b038616917fd641cfd4b889fc948e0f80af82a826ca771d2bd20a589526e89d73bc07d6b8b39190a3505050565b600061090b8383613503565b6001600160a01b03811633036125555760405162461bcd60e51b8152602060048201526024808201527f4552433737373a20617574686f72697a696e672073656c66206173206f70657260448201526330ba37b960e11b6064820152608401610690565b6001600160a01b03811660009081526038602052604090205460ff16156125a657336000908152603a602090815260408083206001600160a01b03851684529091529020805460ff191690556125d5565b3360009081526039602090815260408083206001600160a01b03851684529091529020805460ff191660011790555b60405133906001600160a01b038316907ff4caeb2d6ca8932a215a353d0703c326ec2d81fc68170f320eb2ab49e9df61f990600090a350565b6040516370a0823160e01b81526001600160a01b0383166004820152600090819030906370a0823190602401602060405180830381865afa158015612657573d6000803e3d6000fd5b505050506040513d601f19601f8201168201806040525081019061267b91906147d6565b6001600160a01b038516600090815261015f6020908152604080832080548251818502810185019093528083529495509293849391928301828280156126e057602002820191906000526020600020905b8154815260200190600101908083116126cc575b505050505090506000815111156127445760005b815181101561273f576127218783838151811061271357612713614590565b602002602001015188611d41565b61272b90846145bc565b925080612737816145eb565b9150506126f4565b508192505b5090949350505050565b60006107db825490565b6000612763836119bb565b9050600061277084612ba1565b6001600160a01b03831660009081526101606020908152604080832061ffff9490941680845293909152902060048101549192509060ff166127f45760405162461bcd60e51b815260206004820181905260248201527f654e4f52493a206e6f20657363726f77207363686564756c65206578697374736044820152606401610690565b600061280d612803834261352d565b8360060154613599565b9050816002015481106128625760405162461bcd60e51b815260206004820152601e60248201527f654e4f52493a20746f6b656e7320616c72656164792072656c656173656400006044820152606401610690565b600085156128ca576128748585611975565b8611156128c35760405162461bcd60e51b815260206004820181905260248201527f654e4f52493a20746f6f2066657720756e72656c656173656420746f6b656e736044820152606401610690565b50846128d7565b6128d48585611975565b90505b8083600201546128e791906145d4565b60028401556006830182905560058301805482919060009061290a9084906145bc565b9250508190555061293b85826040518060200160405280600081525060405180602001604052806000815250611b7f565b61016154604051634decdde360e11b81526001600160a01b038a8116600483015260248201849052606060448301526000606483015290911690639bd9bbc690608401600060405180830381600087803b15801561299857600080fd5b505af11580156129ac573d6000803e3d6000fd5b505050508387427f1c88d66daca38f6d7ea17e24dd97402f816c3970f697a9144270c923082bccb0846040516129e491815260200190565b60405180910390a45050505050505050565b336001600160a01b03821603612a585760405162461bcd60e51b815260206004820152602160248201527f4552433737373a207265766f6b696e672073656c66206173206f70657261746f6044820152603960f91b6064820152608401610690565b6001600160a01b03811660009081526038602052604090205460ff1615612aac57336000908152603a602090815260408083206001600160a01b03851684529091529020805460ff19166001179055612ad8565b3360009081526039602090815260408083206001600160a01b03851684529091529020805460ff191690555b60405133906001600160a01b038316907f50546e66e5f44d728365dc3908c63bc5cfeeab470722c1677e3073a6ac294aa190600090a350565b6001600160a01b0383166000908152610160602090815260408083208584529091528120612b4c612b42828561352d565b8260060154613599565b95945050505050565b600080612b636008846147ef565b6001612b706008876147ef565b612b7b9060026148f2565b612b8591906145d4565b901b9050848116612b976008856147ef565b1c95945050505050565b60006107db826002601c612b55565b612bbe8484848460016135b0565b50505050565b6001600160a01b038316612c285760405162461bcd60e51b815260206004820152602560248201527f4552433737373a20617070726f76652066726f6d20746865207a65726f206164604482015264647265737360d81b6064820152608401610690565b6001600160a01b038216612c8a5760405162461bcd60e51b815260206004820152602360248201527f4552433737373a20617070726f766520746f20746865207a65726f206164647260448201526265737360e81b6064820152608401610690565b6001600160a01b038381166000818152603b602090815260408083209487168084529482529182902085905590518481527f8c5be1e5ebec7d5bd14f71427d1e84f3dd0314c0f7b2291e5b200ac8c7c3b925910160405180910390a3505050565b60405163555ddc6560e11b81526001600160a01b03861660048201527f29ddb589b1fb5fc7cf394961c1adf5f8c6454761adf795e67fe149f658abe8956024820152600090731820a4b7618bde71dce8cdc73aab6c95905fad249063aabbb8ca90604401602060405180830381865afa158015612d6c573d6000803e3d6000fd5b505050506040513d601f19601f82011682018060405250810190612d9091906148fe565b90506001600160a01b0381161561218e57604051633ad5cbc160e11b81526001600160a01b038216906375ab978290612dd7908a908a908a908a908a908a9060040161491b565b600060405180830381600087803b158015612df157600080fd5b505af1158015612e05573d6000803e3d6000fd5b5050505050505050505050565b6001600160a01b0383811615908316156000612e3c600080516020614a05833981519152886115c2565b90506001600160a01b0387811690871614156000612e598861164f565b8611159050838015612e685750815b8015612e715750825b15612ee95785612e96896001600160a01b031660009081526033602052604090205490565b1015612ee45760405162461bcd60e51b815260206004820152601b60248201527f654e4f52493a20696e73756666696369656e742062616c616e636500000000006044820152606401610690565b612f3b565b84612f3b5780612f3b5760405162461bcd60e51b815260206004820152601b60248201527f654e4f52493a20696e73756666696369656e742062616c616e636500000000006044820152606401610690565b612f47898989896136f6565b505050505050505050565b60606000612f618360026147ef565b612f6c9060026145bc565b6001600160401b03811115612f8357612f83613dd9565b6040519080825280601f01601f191660200182016040528015612fad576020820181803683370190505b509050600360fc1b81600081518110612fc857612fc8614590565b60200101906001600160f81b031916908160001a905350600f60fb1b81600181518110612ff757612ff7614590565b60200101906001600160f81b031916908160001a905350600061301b8460026147ef565b6130269060016145bc565b90505b600181111561309e576f181899199a1a9b1b9c1cb0b131b232b360811b85600f166010811061305a5761305a614590565b1a60f81b82828151811061307057613070614590565b60200101906001600160f81b031916908160001a90535060049490941c9361309781614975565b9050613029565b50831561090b5760405162461bcd60e51b815260206004820181905260248201527f537472696e67733a20686578206c656e67746820696e73756666696369656e746044820152606401610690565b6130f7828261371e565b600080516020614a058339815191528203610d20576001600160a01b038116600090815261015f602052604090205415610d205760405162461bcd60e51b815260206004820152603660248201527f654e4f52493a2043616e6e6f742061737369676e20726f6c6520746f20616e2060448201527532b9b1b937bb9039b1b432b23ab632903437b63232b960511b6064820152608401610690565b61319c8282613741565b600082815260fb60205260409020610ca190826137c7565b6131be82826137dc565b600082815260fb60205260409020610ca19082613843565b6131e286868686612e12565b6001600160a01b0385166000908152603360205260409020548381101561325b5760405162461bcd60e51b815260206004820152602760248201527f4552433737373a207472616e7366657220616d6f756e7420657863656564732060448201526662616c616e636560c81b6064820152608401610690565b6001600160a01b038087166000908152603360205260408082208785039055918716815290812080548692906132929084906145bc565b92505081905550846001600160a01b0316866001600160a01b0316886001600160a01b03167f06b541ddaa720db2b10a4d0cdac39b8d360425fc073085fac19bc826146779878787876040516132ea939291906146eb565b60405180910390a4846001600160a01b0316866001600160a01b03167fddf252ad1be2c89b69c2b068fc378daa952ba7f163c4a11628f55a4df523b3ef8660405161333791815260200190565b60405180910390a350505050505050565b60405163555ddc6560e11b81526001600160a01b03861660048201527fb281fc8c12954d22544db45de3159a39272895b169a852b314f9cc762e44c53b6024820152600090731820a4b7618bde71dce8cdc73aab6c95905fad249063aabbb8ca90604401602060405180830381865afa1580156133c9573d6000803e3d6000fd5b505050506040513d601f19601f820116820180604052508101906133ed91906148fe565b90506001600160a01b03811615613469576040516223de2960e01b81526001600160a01b038216906223de2990613432908b908b908b908b908b908b9060040161491b565b600060405180830381600087803b15801561344c57600080fd5b505af1158015613460573d6000803e3d6000fd5b5050505061190f565b811561190f576001600160a01b0386163b1561190f5760405162461bcd60e51b815260206004820152604d60248201527f4552433737373a20746f6b656e20726563697069656e7420636f6e747261637460448201527f20686173206e6f20696d706c656d656e74657220666f7220455243373737546f60648201526c1ad95b9cd49958da5c1a595b9d609a1b608482015260a401610690565b600082600001828154811061351a5761351a614590565b9060005260206000200154905092915050565b600082600101548210613545575060028201546107db565b82546001840154600091613558916145d4565b8454909150831061358f578354819061357190856145d4565b856002015461358091906147ef565b61358a919061498c565b6119b3565b5060009392505050565b6000818310156135a9578161090b565b5090919050565b6001600160a01b0385166136065760405162461bcd60e51b815260206004820181905260248201527f4552433737373a206d696e7420746f20746865207a65726f20616464726573736044820152606401610690565b336136148160008888612e12565b846034600082825461362691906145bc565b90915550506001600160a01b038616600090815260336020526040812080548792906136539084906145bc565b9091555061366990508160008888888888613348565b856001600160a01b0316816001600160a01b03167f2fe5be0146f74c5bce36c0b80911af6c7d86ff27e89d5cfa61fc681327954e5d8787876040516136b0939291906146eb565b60405180910390a36040518581526001600160a01b038716906000907fddf252ad1be2c89b69c2b068fc378daa952ba7f163c4a11628f55a4df523b3ef90602001611d31565b60655460ff16156137195760405162461bcd60e51b815260040161069090614566565b612bbe565b60655460ff1615610d205760405162461bcd60e51b815260040161069090614566565b61374b82826115c2565b610d2057600082815260c9602090815260408083206001600160a01b03851684529091529020805460ff191660011790556137833390565b6001600160a01b0316816001600160a01b0316837f2f8788117e7eff1d82e926ec794901d17c78024a50270940304540a733656f0d60405160405180910390a45050565b600061090b836001600160a01b038416613858565b6137e682826115c2565b15610d2057600082815260c9602090815260408083206001600160a01b0385168085529252808320805460ff1916905551339285917ff6391f5c32d9c69d2a47ea670b442974b53935d1edc7fd64eb21e047a839171b9190a45050565b600061090b836001600160a01b0384166138a7565b600081815260018301602052604081205461389f575081546001818101845560008481526020808220909301849055845484825282860190935260409020919091556107db565b5060006107db565b600081815260018301602052604081205480156139905760006138cb6001836145d4565b85549091506000906138df906001906145d4565b90508181146139445760008660000182815481106138ff576138ff614590565b906000526020600020015490508087600001848154811061392257613922614590565b6000918252602080832090910192909255918252600188019052604090208390555b8554869080613955576139556149ae565b6001900381819060005260206000200160009055905585600101600086815260200190815260200160002060009055600193505050506107db565b60009150506107db565b6040518060e001604052806000815260200160006001600160a01b03168152602001600081526020016000815260200160008152602001600081526020016000151581525090565b8280546139ee9061452c565b90600052602060002090601f016020900481019282613a105760008555613a56565b82601f10613a2957805160ff1916838001178555613a56565b82800160010185558215613a56579182015b82811115613a56578251825591602001919060010190613a3b565b50613a62929150613abb565b5090565b828054828255906000526020600020908101928215613a56579160200282015b82811115613a5657825182546001600160a01b0319166001600160a01b03909116178255602090920191600190910190613a86565b5b80821115613a625760008155600101613abc565b6001600160a01b0381168114610d4557600080fd5b60008083601f840112613af757600080fd5b5081356001600160401b03811115613b0e57600080fd5b602083019150836020828501011115613b2657600080fd5b9250929050565b60008060008060008060008060c0898b031215613b4957600080fd5b8835613b5481613ad0565b97506020890135613b6481613ad0565b96506040890135613b7481613ad0565b95506060890135945060808901356001600160401b0380821115613b9757600080fd5b613ba38c838d01613ae5565b909650945060a08b0135915080821115613bbc57600080fd5b50613bc98b828c01613ae5565b999c989b5096995094979396929594505050565b600060208284031215613bef57600080fd5b81356001600160e01b03198116811461090b57600080fd5b600081518084526020808501945080840160005b83811015613c405781516001600160a01b031687529582019590820190600101613c1b565b509495945050505050565b60208152600061090b6020830184613c07565b60005b83811015613c79578181015183820152602001613c61565b83811115612bbe5750506000910152565b60008151808452613ca2816020860160208601613c5e565b601f01601f19169290920160200192915050565b60208152600061090b6020830184613c8a565b60008060408385031215613cdc57600080fd5b8235613ce781613ad0565b946020939093013593505050565b805182526020808201516001600160a01b03169083015260408082015190830152606080820151908301526080808201519083015260a0808201519083015260c0908101511515910152565b60e081016107db8284613cf5565b600080600060608486031215613d6457600080fd5b8335613d6f81613ad0565b92506020840135613d7f81613ad0565b929592945050506040919091013590565b600060208284031215613da257600080fd5b5035919050565b60008060408385031215613dbc57600080fd5b823591506020830135613dce81613ad0565b809150509250929050565b634e487b7160e01b600052604160045260246000fd5b604051601f8201601f191681016001600160401b0381118282101715613e1757613e17613dd9565b604052919050565b60006001600160401b03821115613e3857613e38613dd9565b5060051b60200190565b600082601f830112613e5357600080fd5b81356020613e68613e6383613e1f565b613def565b82815260059290921b84018101918181019086841115613e8757600080fd5b8286015b84811015613eab578035613e9e81613ad0565b8352918301918301613e8b565b509695505050505050565b600060208284031215613ec857600080fd5b81356001600160401b03811115613ede57600080fd5b6119b384828501613e42565b600081518084526020808501945080840160005b83811015613c4057815187529582019590820190600101613efe565b60208152600061090b6020830184613eea565b60008060408385031215613f4057600080fd5b8235613f4b81613ad0565b91506020830135613dce81613ad0565b60008083601f840112613f6d57600080fd5b5081356001600160401b03811115613f8457600080fd5b6020830191508360208260051b8501011115613b2657600080fd5b60008060208385031215613fb257600080fd5b82356001600160401b03811115613fc857600080fd5b613fd485828601613f5b565b90969095509350505050565b6020808252825182820181905260009190848201906040850190845b818110156140225761400f838551613cf5565b9284019260e09290920191600101613ffc565b50909695505050505050565b600082601f83011261403f57600080fd5b81356001600160401b0381111561405857614058613dd9565b61406b601f8201601f1916602001613def565b81815284602083860101111561408057600080fd5b816020850160208301376000918101602001919091529392505050565b600080600080600060a086880312156140b557600080fd5b85356140c081613ad0565b945060208601356140d081613ad0565b93506040860135925060608601356001600160401b03808211156140f357600080fd5b6140ff89838a0161402e565b9350608088013591508082111561411557600080fd5b506141228882890161402e565b9150509295509295909350565b600082601f83011261414057600080fd5b81356020614150613e6383613e1f565b82815260059290921b8401810191818101908684111561416f57600080fd5b8286015b84811015613eab5780358352918301918301614173565b600082601f83011261419b57600080fd5b813560206141ab613e6383613e1f565b82815260059290921b840181019181810190868411156141ca57600080fd5b8286015b84811015613eab5780356001600160401b038111156141ed5760008081fd5b6141fb8986838b010161402e565b8452509183019183016141ce565b600082601f83011261421a57600080fd5b8135602061422a613e6383613e1f565b82815260059290921b8401810191818101908684111561424957600080fd5b8286015b84811015613eab57803580151581146142665760008081fd5b835291830191830161424d565b600080600080600060a0868803121561428b57600080fd5b85356001600160401b03808211156142a257600080fd5b6142ae89838a01613e42565b965060208801359150808211156142c457600080fd5b6142d089838a0161412f565b955060408801359150808211156142e657600080fd5b6142f289838a0161418a565b9450606088013591508082111561430857600080fd5b61431489838a0161418a565b9350608088013591508082111561432a57600080fd5b5061412288828901614209565b60006020828403121561434957600080fd5b813561090b81613ad0565b6000806040838503121561436757600080fd5b50508035926020909101359150565b60008060006060848603121561438b57600080fd5b833561439681613ad0565b92506020840135915060408401356001600160401b038111156143b857600080fd5b6143c48682870161402e565b9150509250925092565b600080600080600080606087890312156143e757600080fd5b86356001600160401b03808211156143fe57600080fd5b61440a8a838b01613f5b565b9098509650602089013591508082111561442357600080fd5b61442f8a838b01613f5b565b9096509450604089013591508082111561444857600080fd5b5061445589828a01613f5b565b979a9699509497509295939492505050565b6000806000806080858703121561447d57600080fd5b843561448881613ad0565b93506020850135925060408501356001600160401b03808211156144ab57600080fd5b6144b78883890161402e565b935060608701359150808211156144cd57600080fd5b506144da8782880161402e565b91505092959194509250565b600080604083850312156144f957600080fd5b8235915060208301356001600160401b0381111561451657600080fd5b6145228582860161402e565b9150509250929050565b600181811c9082168061454057607f821691505b60208210810361456057634e487b7160e01b600052602260045260246000fd5b50919050565b60208082526010908201526f14185d5cd8589b194e881c185d5cd95960821b604082015260600190565b634e487b7160e01b600052603260045260246000fd5b634e487b7160e01b600052601160045260246000fd5b600082198211156145cf576145cf6145a6565b500190565b6000828210156145e6576145e66145a6565b500390565b6000600182016145fd576145fd6145a6565b5060010190565b6000815180845260208085019450848260051b860182860160005b85811015614649578383038952614637838351613c8a565b9885019892509084019060010161461f565b5090979650505050505050565b60a08152600061466960a0830188613c07565b60208382038185015261467c8289613eea565b915083820360408501526146908288614604565b915083820360608501526146a48287614604565b8481036080860152855180825282870193509082019060005b818110156146db5784511515835293830193918301916001016146bd565b50909a9950505050505050505050565b8381526060602082015260006147046060830185613c8a565b8281036040840152611dd58185613c8a565b7f416363657373436f6e74726f6c3a206163636f756e742000000000000000000081526000835161474e816017850160208801613c5e565b7001034b99036b4b9b9b4b733903937b6329607d1b601791840191820152835161477f816028840160208801613c5e565b01602801949350505050565b6020808252602b908201527f496e697469616c697a61626c653a20636f6e7472616374206973206e6f74206960408201526a6e697469616c697a696e6760a81b606082015260800190565b6000602082840312156147e857600080fd5b5051919050565b6000816000190483118215151615614809576148096145a6565b500290565b600181815b8085111561484957816000190482111561482f5761482f6145a6565b8085161561483c57918102915b93841c9390800290614813565b509250929050565b600082614860575060016107db565b8161486d575060006107db565b8160018114614883576002811461488d576148a9565b60019150506107db565b60ff84111561489e5761489e6145a6565b50506001821b6107db565b5060208310610133831016604e8410600b84101617156148cc575081810a6107db565b6148d6838361480e565b80600019048211156148ea576148ea6145a6565b029392505050565b600061090b8383614851565b60006020828403121561491057600080fd5b815161090b81613ad0565b6001600160a01b0387811682528681166020830152851660408201526060810184905260c06080820181905260009061495690830185613c8a565b82810360a08401526149688185613c8a565b9998505050505050505050565b600081614984576149846145a6565b506000190190565b6000826149a957634e487b7160e01b600052601260045260246000fd5b500490565b634e487b7160e01b600052603160045260246000fdfe4552433737375072657365745061757361626c655065726d697373696f6e656465d7a28e3265b37a6474929f336521b332c1681b933f6cb9f3376673440d862a02001401bd80c60ccf68a3f1bc912957d6b932fa109a68b27dee5bdb776acfc6a2646970667358221220c51313cc9a01a852334d605599000a3eaa4f3731a0e463596fb39208472e170064736f6c634300080d0033",
  "linkReferences": {},
  "deployedLinkReferences": {}
}