{
  "_format": "hh-sol-artifact-1",
  "contractName": "EscrowedNORI",
  "sourceName": "contracts/EscrowedNORI.sol",
  "abi": [
    {
      "inputs": [],
      "name": "BurningNotSupported",
      "type": "error"
    },
    {
      "inputs": [
        {
          "internalType": "uint256",
          "name": "scheduleTokenId",
          "type": "uint256"
        },
        {
          "internalType": "uint256",
          "name": "removalIdTriggeredCreation",
          "type": "uint256"
        }
      ],
      "name": "EscrowScheduleExists",
      "type": "error"
    },
    {
      "inputs": [
        {
          "internalType": "address",
          "name": "account",
          "type": "address"
        },
        {
          "internalType": "uint256",
          "name": "scheduleId",
          "type": "uint256"
        }
      ],
      "name": "InsufficientBalance",
      "type": "error"
    },
    {
      "inputs": [
        {
          "internalType": "address",
          "name": "account",
          "type": "address"
        },
        {
          "internalType": "string",
          "name": "role",
          "type": "string"
        }
      ],
      "name": "MissingRequiredRole",
      "type": "error"
    },
    {
      "inputs": [
        {
          "internalType": "uint256",
          "name": "scheduleId",
          "type": "uint256"
        }
      ],
      "name": "NonexistentEscrowSchedule",
      "type": "error"
    },
    {
      "inputs": [],
      "name": "RecipientCannotBeZeroAddress",
      "type": "error"
    },
    {
      "inputs": [
        {
          "internalType": "address",
          "name": "recipient",
          "type": "address"
        },
        {
          "internalType": "string",
          "name": "role",
          "type": "string"
        }
      ],
      "name": "RecipientCannotHaveRole",
      "type": "error"
    },
    {
      "inputs": [
        {
          "internalType": "address",
          "name": "account",
          "type": "address"
        },
        {
          "internalType": "string",
          "name": "role",
          "type": "string"
        }
      ],
      "name": "RoleUnassignableToEscrowScheduleHolder",
      "type": "error"
    },
    {
      "inputs": [],
      "name": "TokenSenderNotBPNORI",
      "type": "error"
    },
    {
      "anonymous": false,
      "inputs": [
        {
          "indexed": true,
          "internalType": "address",
          "name": "account",
          "type": "address"
        },
        {
          "indexed": true,
          "internalType": "address",
          "name": "operator",
          "type": "address"
        },
        {
          "indexed": false,
          "internalType": "bool",
          "name": "approved",
          "type": "bool"
        }
      ],
      "name": "ApprovalForAll",
      "type": "event"
    },
    {
      "anonymous": false,
      "inputs": [
        {
          "indexed": true,
          "internalType": "uint256",
          "name": "scheduleId",
          "type": "uint256"
        },
        {
          "indexed": true,
          "internalType": "uint256",
          "name": "removalIdTriggeredCreation",
          "type": "uint256"
        }
      ],
      "name": "EscrowScheduleCreated",
      "type": "event"
    },
    {
      "anonymous": false,
      "inputs": [
        {
          "indexed": false,
          "internalType": "address",
          "name": "account",
          "type": "address"
        }
      ],
      "name": "Paused",
      "type": "event"
    },
    {
      "anonymous": false,
      "inputs": [
        {
          "indexed": true,
          "internalType": "bytes32",
          "name": "role",
          "type": "bytes32"
        },
        {
          "indexed": true,
          "internalType": "bytes32",
          "name": "previousAdminRole",
          "type": "bytes32"
        },
        {
          "indexed": true,
          "internalType": "bytes32",
          "name": "newAdminRole",
          "type": "bytes32"
        }
      ],
      "name": "RoleAdminChanged",
      "type": "event"
    },
    {
      "anonymous": false,
      "inputs": [
        {
          "indexed": true,
          "internalType": "bytes32",
          "name": "role",
          "type": "bytes32"
        },
        {
          "indexed": true,
          "internalType": "address",
          "name": "account",
          "type": "address"
        },
        {
          "indexed": true,
          "internalType": "address",
          "name": "sender",
          "type": "address"
        }
      ],
      "name": "RoleGranted",
      "type": "event"
    },
    {
      "anonymous": false,
      "inputs": [
        {
          "indexed": true,
          "internalType": "bytes32",
          "name": "role",
          "type": "bytes32"
        },
        {
          "indexed": true,
          "internalType": "address",
          "name": "account",
          "type": "address"
        },
        {
          "indexed": true,
          "internalType": "address",
          "name": "sender",
          "type": "address"
        }
      ],
      "name": "RoleRevoked",
      "type": "event"
    },
    {
      "anonymous": false,
      "inputs": [
        {
          "indexed": true,
          "internalType": "address",
          "name": "from",
          "type": "address"
        },
        {
          "indexed": true,
          "internalType": "address",
          "name": "to",
          "type": "address"
        },
        {
          "indexed": true,
          "internalType": "uint256",
          "name": "scheduleId",
          "type": "uint256"
        },
        {
          "indexed": false,
          "internalType": "uint256",
          "name": "quantity",
          "type": "uint256"
        }
      ],
      "name": "TokensClaimed",
      "type": "event"
    },
    {
      "anonymous": false,
      "inputs": [
        {
          "indexed": true,
          "internalType": "address",
          "name": "operator",
          "type": "address"
        },
        {
          "indexed": true,
          "internalType": "address",
          "name": "from",
          "type": "address"
        },
        {
          "indexed": true,
          "internalType": "address",
          "name": "to",
          "type": "address"
        },
        {
          "indexed": false,
          "internalType": "uint256[]",
          "name": "ids",
          "type": "uint256[]"
        },
        {
          "indexed": false,
          "internalType": "uint256[]",
          "name": "values",
          "type": "uint256[]"
        }
      ],
      "name": "TransferBatch",
      "type": "event"
    },
    {
      "anonymous": false,
      "inputs": [
        {
          "indexed": true,
          "internalType": "address",
          "name": "operator",
          "type": "address"
        },
        {
          "indexed": true,
          "internalType": "address",
          "name": "from",
          "type": "address"
        },
        {
          "indexed": true,
          "internalType": "address",
          "name": "to",
          "type": "address"
        },
        {
          "indexed": false,
          "internalType": "uint256",
          "name": "id",
          "type": "uint256"
        },
        {
          "indexed": false,
          "internalType": "uint256",
          "name": "value",
          "type": "uint256"
        }
      ],
      "name": "TransferSingle",
      "type": "event"
    },
    {
      "anonymous": false,
      "inputs": [
        {
          "indexed": false,
          "internalType": "string",
          "name": "value",
          "type": "string"
        },
        {
          "indexed": true,
          "internalType": "uint256",
          "name": "id",
          "type": "uint256"
        }
      ],
      "name": "URI",
      "type": "event"
    },
    {
      "anonymous": false,
      "inputs": [
        {
          "indexed": false,
          "internalType": "address",
          "name": "account",
          "type": "address"
        }
      ],
      "name": "Unpaused",
      "type": "event"
    },
    {
      "anonymous": false,
      "inputs": [
        {
          "indexed": true,
          "internalType": "uint256",
          "name": "atTime",
          "type": "uint256"
        },
        {
          "indexed": true,
          "internalType": "uint256",
          "name": "removalId",
          "type": "uint256"
        },
        {
          "indexed": true,
          "internalType": "uint256",
          "name": "scheduleId",
          "type": "uint256"
        },
        {
          "indexed": false,
          "internalType": "uint256",
          "name": "quantity",
          "type": "uint256"
        }
      ],
      "name": "UnreleasedTokensRevoked",
      "type": "event"
    },
    {
      "inputs": [],
      "name": "DEFAULT_ADMIN_ROLE",
      "outputs": [
        {
          "internalType": "bytes32",
          "name": "",
          "type": "bytes32"
        }
      ],
      "stateMutability": "view",
      "type": "function"
    },
    {
      "inputs": [],
      "name": "ERC777_TOKENS_RECIPIENT_HASH",
      "outputs": [
        {
          "internalType": "bytes32",
          "name": "",
          "type": "bytes32"
        }
      ],
      "stateMutability": "view",
      "type": "function"
    },
    {
      "inputs": [],
      "name": "ESCROW_CREATOR_ROLE",
      "outputs": [
        {
          "internalType": "bytes32",
          "name": "",
          "type": "bytes32"
        }
      ],
      "stateMutability": "view",
      "type": "function"
    },
    {
      "inputs": [],
      "name": "MINTER_ROLE",
      "outputs": [
        {
          "internalType": "bytes32",
          "name": "",
          "type": "bytes32"
        }
      ],
      "stateMutability": "view",
      "type": "function"
    },
    {
      "inputs": [],
      "name": "PAUSER_ROLE",
      "outputs": [
        {
          "internalType": "bytes32",
          "name": "",
          "type": "bytes32"
        }
      ],
      "stateMutability": "view",
      "type": "function"
    },
    {
      "inputs": [
        {
          "internalType": "address",
          "name": "account",
          "type": "address"
        },
        {
          "internalType": "uint256",
          "name": "id",
          "type": "uint256"
        }
      ],
      "name": "balanceOf",
      "outputs": [
        {
          "internalType": "uint256",
          "name": "",
          "type": "uint256"
        }
      ],
      "stateMutability": "view",
      "type": "function"
    },
    {
      "inputs": [
        {
          "internalType": "address[]",
          "name": "accounts",
          "type": "address[]"
        },
        {
          "internalType": "uint256[]",
          "name": "ids",
          "type": "uint256[]"
        }
      ],
      "name": "balanceOfBatch",
      "outputs": [
        {
          "internalType": "uint256[]",
          "name": "",
          "type": "uint256[]"
        }
      ],
      "stateMutability": "view",
      "type": "function"
    },
    {
      "inputs": [
        {
          "internalType": "uint256[]",
          "name": "removalIds",
          "type": "uint256[]"
        }
      ],
      "name": "batchCreateEscrowSchedule",
      "outputs": [],
      "stateMutability": "nonpayable",
      "type": "function"
    },
    {
      "inputs": [
        {
          "internalType": "address",
          "name": "",
          "type": "address"
        },
        {
          "internalType": "uint256",
          "name": "",
          "type": "uint256"
        },
        {
          "internalType": "uint256",
          "name": "",
          "type": "uint256"
        }
      ],
      "name": "burn",
      "outputs": [],
      "stateMutability": "pure",
      "type": "function"
    },
    {
      "inputs": [
        {
          "internalType": "address",
          "name": "",
          "type": "address"
        },
        {
          "internalType": "uint256[]",
          "name": "",
          "type": "uint256[]"
        },
        {
          "internalType": "uint256[]",
          "name": "",
          "type": "uint256[]"
        }
      ],
      "name": "burnBatch",
      "outputs": [],
      "stateMutability": "pure",
      "type": "function"
    },
    {
      "inputs": [
        {
          "internalType": "address",
          "name": "account",
          "type": "address"
        }
      ],
      "name": "claimableBalanceForAccount",
      "outputs": [
        {
          "internalType": "uint256",
          "name": "",
          "type": "uint256"
        }
      ],
      "stateMutability": "view",
      "type": "function"
    },
    {
      "inputs": [
        {
          "internalType": "uint256",
          "name": "scheduleId",
          "type": "uint256"
        },
        {
          "internalType": "address",
          "name": "account",
          "type": "address"
        }
      ],
      "name": "claimableBalanceForScheduleForAccount",
      "outputs": [
        {
          "internalType": "uint256",
          "name": "",
          "type": "uint256"
        }
      ],
      "stateMutability": "view",
      "type": "function"
    },
    {
      "inputs": [
        {
          "internalType": "uint256",
          "name": "removalId",
          "type": "uint256"
        }
      ],
      "name": "createEscrowSchedule",
      "outputs": [],
      "stateMutability": "nonpayable",
      "type": "function"
    },
    {
      "inputs": [
        {
          "internalType": "uint256",
          "name": "id",
          "type": "uint256"
        }
      ],
      "name": "exists",
      "outputs": [
        {
          "internalType": "bool",
          "name": "",
          "type": "bool"
        }
      ],
      "stateMutability": "view",
      "type": "function"
    },
    {
      "inputs": [
        {
          "internalType": "uint256",
          "name": "scheduleId",
          "type": "uint256"
        }
      ],
      "name": "getEscrowSchedule",
      "outputs": [
        {
          "components": [
            {
              "internalType": "uint256",
              "name": "scheduleTokenId",
              "type": "uint256"
            },
            {
              "internalType": "uint256",
              "name": "totalSupply",
              "type": "uint256"
            },
            {
              "internalType": "address[]",
              "name": "tokenHolders",
              "type": "address[]"
            },
            {
              "internalType": "uint256[]",
              "name": "holderBalances",
              "type": "uint256[]"
            },
            {
              "internalType": "uint256",
              "name": "startTime",
              "type": "uint256"
            },
            {
              "internalType": "uint256",
              "name": "endTime",
              "type": "uint256"
            },
            {
              "internalType": "uint256",
              "name": "claimedAmount",
              "type": "uint256"
            },
            {
              "internalType": "uint256",
              "name": "totalQuantityRevoked",
              "type": "uint256"
            },
            {
              "internalType": "bool",
              "name": "exists",
              "type": "bool"
            }
          ],
          "internalType": "struct EscrowedNORI.EscrowScheduleDetail",
          "name": "",
          "type": "tuple"
        }
      ],
      "stateMutability": "view",
      "type": "function"
    },
    {
      "inputs": [
        {
          "internalType": "address",
          "name": "account",
          "type": "address"
        }
      ],
      "name": "getEscrowSchedulesForAccount",
      "outputs": [
        {
          "components": [
            {
              "internalType": "uint256",
              "name": "scheduleTokenId",
              "type": "uint256"
            },
            {
              "internalType": "uint256",
              "name": "totalSupply",
              "type": "uint256"
            },
            {
              "internalType": "address[]",
              "name": "tokenHolders",
              "type": "address[]"
            },
            {
              "internalType": "uint256[]",
              "name": "holderBalances",
              "type": "uint256[]"
            },
            {
              "internalType": "uint256",
              "name": "startTime",
              "type": "uint256"
            },
            {
              "internalType": "uint256",
              "name": "endTime",
              "type": "uint256"
            },
            {
              "internalType": "uint256",
              "name": "claimedAmount",
              "type": "uint256"
            },
            {
              "internalType": "uint256",
              "name": "totalQuantityRevoked",
              "type": "uint256"
            },
            {
              "internalType": "bool",
              "name": "exists",
              "type": "bool"
            }
          ],
          "internalType": "struct EscrowedNORI.EscrowScheduleDetail[]",
          "name": "",
          "type": "tuple[]"
        }
      ],
      "stateMutability": "view",
      "type": "function"
    },
    {
      "inputs": [
        {
          "internalType": "bytes32",
          "name": "role",
          "type": "bytes32"
        }
      ],
      "name": "getRoleAdmin",
      "outputs": [
        {
          "internalType": "bytes32",
          "name": "",
          "type": "bytes32"
        }
      ],
      "stateMutability": "view",
      "type": "function"
    },
    {
      "inputs": [
        {
          "internalType": "bytes32",
          "name": "role",
          "type": "bytes32"
        },
        {
          "internalType": "uint256",
          "name": "index",
          "type": "uint256"
        }
      ],
      "name": "getRoleMember",
      "outputs": [
        {
          "internalType": "address",
          "name": "",
          "type": "address"
        }
      ],
      "stateMutability": "view",
      "type": "function"
    },
    {
      "inputs": [
        {
          "internalType": "bytes32",
          "name": "role",
          "type": "bytes32"
        }
      ],
      "name": "getRoleMemberCount",
      "outputs": [
        {
          "internalType": "uint256",
          "name": "",
          "type": "uint256"
        }
      ],
      "stateMutability": "view",
      "type": "function"
    },
    {
      "inputs": [
        {
          "internalType": "bytes32",
          "name": "role",
          "type": "bytes32"
        },
        {
          "internalType": "address",
          "name": "account",
          "type": "address"
        }
      ],
      "name": "grantRole",
      "outputs": [],
      "stateMutability": "nonpayable",
      "type": "function"
    },
    {
      "inputs": [
        {
          "internalType": "bytes32",
          "name": "role",
          "type": "bytes32"
        },
        {
          "internalType": "address",
          "name": "account",
          "type": "address"
        }
      ],
      "name": "hasRole",
      "outputs": [
        {
          "internalType": "bool",
          "name": "",
          "type": "bool"
        }
      ],
      "stateMutability": "view",
      "type": "function"
    },
    {
      "inputs": [
        {
          "internalType": "contract BridgedPolygonNORI",
          "name": "bridgedPolygonNoriAddress",
          "type": "address"
        },
        {
          "internalType": "contract Removal",
          "name": "removalAddress",
          "type": "address"
        }
      ],
      "name": "initialize",
      "outputs": [],
      "stateMutability": "nonpayable",
      "type": "function"
    },
    {
      "inputs": [
        {
          "internalType": "string",
          "name": "uri",
          "type": "string"
        }
      ],
      "name": "initialize",
      "outputs": [],
      "stateMutability": "nonpayable",
      "type": "function"
    },
    {
      "inputs": [
        {
          "internalType": "address",
          "name": "account",
          "type": "address"
        },
        {
          "internalType": "address",
          "name": "operator",
          "type": "address"
        }
      ],
      "name": "isApprovedForAll",
      "outputs": [
        {
          "internalType": "bool",
          "name": "",
          "type": "bool"
        }
      ],
      "stateMutability": "view",
      "type": "function"
    },
    {
      "inputs": [
        {
          "internalType": "address",
          "name": "to",
          "type": "address"
        },
        {
          "internalType": "uint256",
          "name": "id",
          "type": "uint256"
        },
        {
          "internalType": "uint256",
          "name": "amount",
          "type": "uint256"
        },
        {
          "internalType": "bytes",
          "name": "data",
          "type": "bytes"
        }
      ],
      "name": "mint",
      "outputs": [],
      "stateMutability": "nonpayable",
      "type": "function"
    },
    {
      "inputs": [
        {
          "internalType": "address",
          "name": "to",
          "type": "address"
        },
        {
          "internalType": "uint256[]",
          "name": "ids",
          "type": "uint256[]"
        },
        {
          "internalType": "uint256[]",
          "name": "amounts",
          "type": "uint256[]"
        },
        {
          "internalType": "bytes",
          "name": "data",
          "type": "bytes"
        }
      ],
      "name": "mintBatch",
      "outputs": [],
      "stateMutability": "nonpayable",
      "type": "function"
    },
    {
      "inputs": [],
      "name": "pause",
      "outputs": [],
      "stateMutability": "nonpayable",
      "type": "function"
    },
    {
      "inputs": [],
      "name": "paused",
      "outputs": [
        {
          "internalType": "bool",
          "name": "",
          "type": "bool"
        }
      ],
      "stateMutability": "view",
      "type": "function"
    },
    {
      "inputs": [
        {
          "internalType": "uint256",
          "name": "removalId",
          "type": "uint256"
        }
      ],
      "name": "removalIdToScheduleId",
      "outputs": [
        {
          "internalType": "uint256",
          "name": "",
          "type": "uint256"
        }
      ],
      "stateMutability": "view",
      "type": "function"
    },
    {
      "inputs": [
        {
          "internalType": "bytes32",
          "name": "role",
          "type": "bytes32"
        },
        {
          "internalType": "address",
          "name": "account",
          "type": "address"
        }
      ],
      "name": "renounceRole",
      "outputs": [],
      "stateMutability": "nonpayable",
      "type": "function"
    },
    {
      "inputs": [
        {
          "internalType": "bytes32",
          "name": "role",
          "type": "bytes32"
        },
        {
          "internalType": "address",
          "name": "account",
          "type": "address"
        }
      ],
      "name": "revokeRole",
      "outputs": [],
      "stateMutability": "nonpayable",
      "type": "function"
    },
    {
      "inputs": [
        {
          "internalType": "address",
          "name": "from",
          "type": "address"
        },
        {
          "internalType": "address",
          "name": "to",
          "type": "address"
        },
        {
          "internalType": "uint256[]",
          "name": "ids",
          "type": "uint256[]"
        },
        {
          "internalType": "uint256[]",
          "name": "amounts",
          "type": "uint256[]"
        },
        {
          "internalType": "bytes",
          "name": "data",
          "type": "bytes"
        }
      ],
      "name": "safeBatchTransferFrom",
      "outputs": [],
      "stateMutability": "nonpayable",
      "type": "function"
    },
    {
      "inputs": [
        {
          "internalType": "address",
          "name": "from",
          "type": "address"
        },
        {
          "internalType": "address",
          "name": "to",
          "type": "address"
        },
        {
          "internalType": "uint256",
          "name": "id",
          "type": "uint256"
        },
        {
          "internalType": "uint256",
          "name": "amount",
          "type": "uint256"
        },
        {
          "internalType": "bytes",
          "name": "data",
          "type": "bytes"
        }
      ],
      "name": "safeTransferFrom",
      "outputs": [],
      "stateMutability": "nonpayable",
      "type": "function"
    },
    {
      "inputs": [
        {
          "internalType": "address",
          "name": "operator",
          "type": "address"
        },
        {
          "internalType": "bool",
          "name": "approved",
          "type": "bool"
        }
      ],
      "name": "setApprovalForAll",
      "outputs": [],
      "stateMutability": "nonpayable",
      "type": "function"
    },
    {
      "inputs": [
        {
          "internalType": "bytes4",
          "name": "interfaceId",
          "type": "bytes4"
        }
      ],
      "name": "supportsInterface",
      "outputs": [
        {
          "internalType": "bool",
          "name": "",
          "type": "bool"
        }
      ],
      "stateMutability": "view",
      "type": "function"
    },
    {
      "inputs": [
        {
          "internalType": "address",
          "name": "sender",
          "type": "address"
        },
        {
          "internalType": "address",
          "name": "",
          "type": "address"
        },
        {
          "internalType": "address",
          "name": "",
          "type": "address"
        },
        {
          "internalType": "uint256",
          "name": "amount",
          "type": "uint256"
        },
        {
          "internalType": "bytes",
          "name": "userData",
          "type": "bytes"
        },
        {
          "internalType": "bytes",
          "name": "operatorData",
          "type": "bytes"
        }
      ],
      "name": "tokensReceived",
      "outputs": [],
      "stateMutability": "nonpayable",
      "type": "function"
    },
    {
      "inputs": [
        {
          "internalType": "uint256",
          "name": "id",
          "type": "uint256"
        }
      ],
      "name": "totalSupply",
      "outputs": [
        {
          "internalType": "uint256",
          "name": "",
          "type": "uint256"
        }
      ],
      "stateMutability": "view",
      "type": "function"
    },
    {
      "inputs": [],
      "name": "unpause",
      "outputs": [],
      "stateMutability": "nonpayable",
      "type": "function"
    },
    {
      "inputs": [
        {
          "internalType": "uint256",
          "name": "",
          "type": "uint256"
        }
      ],
      "name": "uri",
      "outputs": [
        {
          "internalType": "string",
          "name": "",
          "type": "string"
        }
      ],
      "stateMutability": "view",
      "type": "function"
    },
    {
      "inputs": [
        {
          "internalType": "address",
          "name": "recipient",
          "type": "address"
        },
        {
          "internalType": "uint256",
          "name": "scheduleId",
          "type": "uint256"
        },
        {
          "internalType": "uint256",
          "name": "amount",
          "type": "uint256"
        }
      ],
      "name": "withdrawFromEscrowSchedule",
      "outputs": [
        {
          "internalType": "bool",
          "name": "",
          "type": "bool"
        }
      ],
      "stateMutability": "nonpayable",
      "type": "function"
    }
  ],
  "bytecode": "0x608060405234801561001057600080fd5b50614221806100206000396000f3fe608060405234801561001057600080fd5b50600436106102465760003560e01c80638d7b0daa1161013b578063d547741f116100b8578063e985e9c51161007c578063e985e9c514610575578063f242432a146105b1578063f5298aca146105c4578063f62d1888146105d2578063f77b94fe146105e557600080fd5b8063d547741f14610505578063d70c0f9414610518578063d943dac714610538578063daa55af01461054b578063e63ab1e91461056057600080fd5b8063a22cb465116100ff578063a22cb46514610496578063bd85b039146104a9578063be24051f146104ca578063ca15c873146104dd578063d5391393146104f057600080fd5b80638d7b0daa1461042a5780638f9e8e491461043d5780639010d07c1461045057806391d148541461047b578063a217fddf1461048e57600080fd5b80633f4ba83a116101c95780635c975abb1161018d5780635c975abb146103dd5780635d37165a146103e95780636b20c454146103fc578063731133e91461040f5780638456cb591461042257600080fd5b80633f4ba83a14610358578063485cc955146103605780634e1273f4146103735780634f558e7914610393578063521189a9146103b657600080fd5b80631f7fdffa116102105780631f7fdffa146102e9578063248a9ca3146102fc5780632eb2c2d61461031f5780632f2ff15d1461033257806336568abe1461034557600080fd5b806223de291461024b578062fdd58e1461026057806301ffc9a714610286578063061775c9146102a95780630e89341c146102c9575b600080fd5b61025e6102593660046130de565b6105f8565b005b61027361026e36600461318e565b610697565b6040519081526020015b60405180910390f35b6102996102943660046131d0565b61072e565b604051901515815260200161027d565b6102bc6102b73660046131ed565b610739565b60405161027d919061330b565b6102dc6102d736600461336d565b610809565b60405161027d91906133de565b61025e6102f7366004613544565b61089d565b61027361030a36600461336d565b60009081526065602052604090206001015490565b61025e61032d3660046135de565b6108e3565b61025e61034036600461368b565b61097a565b61025e61035336600461368b565b6109a5565b61025e610a23565b61025e61036e3660046136bb565b610ab7565b6103866103813660046136e9565b610cff565b60405161027d91906137b5565b6102996103a136600461336d565b60009081526101c36020526040902054151590565b6102737fb281fc8c12954d22544db45de3159a39272895b169a852b314f9cc762e44c53b81565b61012d5460ff16610299565b6102736103f736600461368b565b610e20565b61025e61040a36600461380c565b610e65565b61025e61041d36600461388e565b610e7e565b61025e610ebe565b6102736104383660046131ed565b610f50565b61025e61044b3660046138e4565b610fb7565b61046361045e366004613925565b611073565b6040516001600160a01b03909116815260200161027d565b61029961048936600461368b565b611092565b610273600081565b61025e6104a4366004613947565b6110bd565b6102736104b736600461336d565b60009081526101c3602052604090205490565b61025e6104d836600461336d565b6110c8565b6102736104eb36600461336d565b61110e565b6102736000805160206141ac83398151915281565b61025e61051336600461368b565b611125565b61052b61052636600461336d565b61114b565b60405161027d919061397a565b61027361054636600461336d565b611306565b6102736000805160206141cc83398151915281565b61027360008051602061418c83398151915281565b6102996105833660046136bb565b6001600160a01b03918216600090815260ca6020908152604080832093909416825291909152205460ff1690565b61025e6105bf36600461398d565b6113e9565b61025e61040a3660046139f5565b61025e6105e0366004613a2a565b611470565b6102996105f33660046139f5565b6114eb565b6101f7546001600160a01b0316336001600160a01b03161461062d57604051634628d20b60e01b815260040160405180910390fd5b6106456000805160206141cc83398151915289611092565b61066d5787604051637e76b2af60e11b81526004016106649190613a72565b60405180910390fd5b600061067b8486018661336d565b905061068b8187878787876115e5565b50505050505050505050565b60006001600160a01b0383166107035760405162461bcd60e51b815260206004820152602b60248201527f455243313135353a2062616c616e636520717565727920666f7220746865207a60448201526a65726f206164647265737360a81b6064820152608401610664565b50600081815260c9602090815260408083206001600160a01b03861684529091529020545b92915050565b6000610728826116ab565b6001600160a01b03811660009081526101f56020526040812060609161075e826116b6565b6001600160401b03811115610775576107756133f1565b6040519080825280602002602001820160405280156107ae57816020015b61079b612f9a565b8152602001906001900390816107935790505b50905060005b6107bd836116b6565b811015610801576107d161052684836116c0565b8282815181106107e3576107e3613ab1565b602002602001018190525080806107f990613add565b9150506107b4565b509392505050565b606060cb805461081890613af6565b80601f016020809104026020016040519081016040528092919081815260200182805461084490613af6565b80156108915780601f1061086657610100808354040283529160200191610891565b820191906000526020600020905b81548152906001019060200180831161087457829003601f168201915b50505050509050919050565b6108b56000805160206141ac83398151915233611092565b6108d15760405162461bcd60e51b815260040161066490613b30565b6108dd848484846116cc565b50505050565b6001600160a01b0385163314806108ff57506108ff8533610583565b6109665760405162461bcd60e51b815260206004820152603260248201527f455243313135353a207472616e736665722063616c6c6572206973206e6f74206044820152711bdddb995c881b9bdc88185c1c1c9bdd995960721b6064820152608401610664565b6109738585858585611827565b5050505050565b60008281526065602052604090206001015461099681336119d4565b6109a08383611a38565b505050565b6001600160a01b0381163314610a155760405162461bcd60e51b815260206004820152602f60248201527f416363657373436f6e74726f6c3a2063616e206f6e6c792072656e6f756e636560448201526e103937b632b9903337b91039b2b63360891b6064820152608401610664565b610a1f8282611a9a565b5050565b610a3b60008051602061418c83398151915233611092565b610aad5760405162461bcd60e51b815260206004820152603b60248201527f455243313135355072657365744d696e7465725061757365723a206d7573742060448201527f686176652070617573657220726f6c6520746f20756e706175736500000000006064820152608401610664565b610ab5611abc565b565b600054610100900460ff16610ad25760005460ff1615610ad6565b303b155b610af25760405162461bcd60e51b815260040161066490613b8d565b600054610100900460ff16158015610b14576000805461ffff19166101011790555b610b356040518060600160405280602d815260200161415f602d9139611470565b604080516001808252818301909252600091602080830190803683370190505090503381600081518110610b6b57610b6b613ab1565b60200260200101906001600160a01b031690816001600160a01b031681525050610b93611b51565b610b9b611b51565b610ba3611b51565b610bab611b51565b610bb3611b78565b610bbb611b51565b6101f780546001600160a01b038681166001600160a01b0319928316179092556101f88054928616929091168217905560405163058740e560e31b8152306004820152632c3a072890602401600060405180830381600087803b158015610c2157600080fd5b505af1158015610c35573d6000803e3d6000fd5b50506040516329965a1d60e01b815230600482018190527fb281fc8c12954d22544db45de3159a39272895b169a852b314f9cc762e44c53b60248301526044820152731820a4b7618bde71dce8cdc73aab6c95905fad2492506329965a1d9150606401600060405180830381600087803b158015610cb257600080fd5b505af1158015610cc6573d6000803e3d6000fd5b50505050610ce86000805160206141cc833981519152610ce33390565b611a38565b5080156109a0576000805461ff0019169055505050565b60608151835114610d645760405162461bcd60e51b815260206004820152602960248201527f455243313135353a206163636f756e747320616e6420696473206c656e677468604482015268040dad2e6dac2e8c6d60bb1b6064820152608401610664565b600083516001600160401b03811115610d7f57610d7f6133f1565b604051908082528060200260200182016040528015610da8578160200160208202803683370190505b50905060005b845181101561080157610df3858281518110610dcc57610dcc613ab1565b6020026020010151858381518110610de657610de6613ab1565b6020026020010151610697565b828281518110610e0557610e05613ab1565b6020908102919091010152610e1981613add565b9050610dae565b600080610e2c84611bac565b60008581526101c36020526040902054909150610e498486610697565b610e539083613bdb565b610e5d9190613bfa565b949350505050565b60405163fd647c0960e01b815260040160405180910390fd5b610e966000805160206141ac83398151915233611092565b610eb25760405162461bcd60e51b815260040161066490613b30565b6108dd84848484611bfb565b610ed660008051602061418c83398151915233611092565b610f485760405162461bcd60e51b815260206004820152603960248201527f455243313135355072657365744d696e7465725061757365723a206d7573742060448201527f686176652070617573657220726f6c6520746f207061757365000000000000006064820152608401610664565b610ab5611cd3565b6001600160a01b03811660009081526101f5602052604081208190815b610f76826116b6565b811015610fae57610f90610f8a83836116c0565b86610e20565b610f9a9084613c1c565b925080610fa681613add565b915050610f6d565b50909392505050565b61012d5460ff1615610fdb5760405162461bcd60e51b815260040161066490613c34565b6000805160206141cc833981519152610ff481336119d4565b60005b828110156108dd57600061102285858481811061101657611016613ab1565b90506020020135611306565b60008181526101f6602052604090206004015490915060ff166110605761106085858481811061105457611054613ab1565b90506020020135611d2d565b508061106b81613add565b915050610ff7565b600082815260976020526040812061108b90836116c0565b9392505050565b60009182526065602090815260408084206001600160a01b0393909316845291905290205460ff1690565b610a1f338383611ef1565b61012d5460ff16156110ec5760405162461bcd60e51b815260040161066490613c34565b6000805160206141cc83398151915261110581336119d4565b610a1f82611d2d565b6000818152609760205260408120610728906116b6565b60008281526065602052604090206001015461114181336119d4565b6109a08383611a9a565b611153612f9a565b60008281526101f6602052604081209061116f600783016116b6565b90506000816001600160401b0381111561118b5761118b6133f1565b6040519080825280602002602001820160405280156111b4578160200160208202803683370190505b5090506000826001600160401b038111156111d1576111d16133f1565b6040519080825280602002602001820160405280156111fa578160200160208202803683370190505b50905060005b61120c856007016116b6565b8110156112825761122060078601826116c0565b83828151811061123257611232613ab1565b60200260200101906001600160a01b031690816001600160a01b0316815250508682828151811061126557611265613ab1565b60209081029190910101528061127a81613add565b915050611200565b506040518061012001604052808781526020016112ac8860009081526101c3602052604090205490565b81526020018381526020016112c18484610cff565b81528554602082015260018601546040820152600386015460608201526005860154608082015260049095015460ff16151560a0909501949094525091949350505050565b60008061131283611fd1565b9050600061131f84611fe0565b6101f8546040516374d03ff760e01b81526004810187905260ff9290921692506000916001600160a01b03909116906374d03ff790602401602060405180830381865afa158015611374573d6000803e3d6000fd5b505050506040513d601f19601f820116820180604052508101906113989190613c5e565b6040516bffffffffffffffffffffffff19606086901b166020820152603481018490526054810182905290915060740160408051601f19818403018152919052805160209091012095945050505050565b6001600160a01b03851633148061140557506114058533610583565b6114635760405162461bcd60e51b815260206004820152602960248201527f455243313135353a2063616c6c6572206973206e6f74206f776e6572206e6f7260448201526808185c1c1c9bdd995960ba1b6064820152608401610664565b6109738585858585611ff9565b600054610100900460ff1661148b5760005460ff161561148f565b303b155b6114ab5760405162461bcd60e51b815260040161066490613b8d565b600054610100900460ff161580156114cd576000805461ffff19166101011790555b6114d68261211a565b8015610a1f576000805461ff00191690555050565b60006114f833848461215e565b6101f754604051634decdde360e11b81526001600160a01b03868116600483015260248201859052606060448301526000606483015290911690639bd9bbc690608401600060405180830381600087803b15801561155557600080fd5b505af1158015611569573d6000803e3d6000fd5b50505060008481526101f66020526040812060038101805491935085929091611593908490613c1c565b909155505060405183815284906001600160a01b0387169033907fff097c7d8b1957a4ff09ef1361b5fb54dcede3941ba836d0beb9d10bec725de69060200160405180910390a4506001949350505050565b6000806115f188611fd1565b905060006115fe89611306565b60008181526101f6602052604090206004015490915060ff166116245761162489611d2d565b61163f82828a60405180602001604052806000815250611bfb565b60008181526101f66020526040812060028101805491928b92611663908490613c1c565b90915550611676905060078201846122db565b506001600160a01b03831660009081526101f56020526040902061169a90836122f0565b5060019a9950505050505050505050565b6000610728826122fc565b6000610728825490565b600061108b838361233c565b6001600160a01b0384166116f25760405162461bcd60e51b815260040161066490613c77565b81518351146117135760405162461bcd60e51b815260040161066490613cb8565b3361172381600087878787612366565b60005b84518110156117bf5783818151811061174157611741613ab1565b602002602001015160c9600087848151811061175f5761175f613ab1565b602002602001015181526020019081526020016000206000886001600160a01b03166001600160a01b0316815260200190815260200160002060008282546117a79190613c1c565b909155508190506117b781613add565b915050611726565b50846001600160a01b031660006001600160a01b0316826001600160a01b03167f4a39dc06d4c0dbc64b70af90fd698a233a518aa5d07e595d983b8c0526c8f7fb8787604051611810929190613d00565b60405180910390a4610973816000878787876125b1565b81518351146118485760405162461bcd60e51b815260040161066490613cb8565b6001600160a01b03841661186e5760405162461bcd60e51b815260040161066490613d2e565b3361187d818787878787612366565b60005b845181101561196657600085828151811061189d5761189d613ab1565b6020026020010151905060008583815181106118bb576118bb613ab1565b602090810291909101810151600084815260c9835260408082206001600160a01b038e16835290935291909120549091508181101561190c5760405162461bcd60e51b815260040161066490613d73565b600083815260c9602090815260408083206001600160a01b038e8116855292528083208585039055908b1682528120805484929061194b908490613c1c565b925050819055505050508061195f90613add565b9050611880565b50846001600160a01b0316866001600160a01b0316826001600160a01b03167f4a39dc06d4c0dbc64b70af90fd698a233a518aa5d07e595d983b8c0526c8f7fb87876040516119b6929190613d00565b60405180910390a46119cc8187878787876125b1565b505050505050565b6119de8282611092565b610a1f576119f6816001600160a01b0316601461270c565b611a0183602061270c565b604051602001611a12929190613dbd565b60408051601f198184030181529082905262461bcd60e51b8252610664916004016133de565b6000805160206141cc8339815191528203611a90576001600160a01b03811660009081526101f560205260408120611a6f906116b6565b1115611a90578060405163df03622360e01b81526004016106649190613a72565b610a1f82826128a7565b611aa482826128c9565b60008281526097602052604090206109a09082612930565b61012d5460ff16611b065760405162461bcd60e51b815260206004820152601460248201527314185d5cd8589b194e881b9bdd081c185d5cd95960621b6044820152606401610664565b61012d805460ff191690557f5db9ee0a495bf2e6ff9c91a7834c1ba4fdd244a5e8aa4e537bd38aeae4b073aa335b6040516001600160a01b03909116815260200160405180910390a1565b600054610100900460ff16610ab55760405162461bcd60e51b815260040161066490613e32565b600054610100900460ff16611b9f5760405162461bcd60e51b815260040161066490613e32565b61012d805460ff19169055565b60008181526101f660205260408120600481015460ff16611be357604051633470367960e11b815260048101849052602401610664565b8060030154611bf184612945565b61108b9190613e7d565b6001600160a01b038416611c215760405162461bcd60e51b815260040161066490613c77565b33611c4181600087611c328861296a565b611c3b8861296a565b87612366565b600084815260c9602090815260408083206001600160a01b038916845290915281208054859290611c73908490613c1c565b909155505060408051858152602081018590526001600160a01b0380881692600092918516917fc3d58168c5ae7397731d063d5bbf3d657854427343f4c083240f7aacaa2d0f62910160405180910390a4610973816000878787876129b5565b61012d5460ff1615611cf75760405162461bcd60e51b815260040161066490613c34565b61012d805460ff191660011790557f62e78cea01bee320cd4e420270b5ea74000d11b0c9f74754ebdbfc544b05a258611b343390565b6000611d3882611fd1565b6101f8546040516374d03ff760e01b8152600481018590529192506000916001600160a01b03909116906374d03ff790602401602060405180830381865afa158015611d88573d6000803e3d6000fd5b505050506040513d601f19601f82011682018060405250810190611dac9190613c5e565b90506000611db984611306565b90506001600160a01b038316611de257604051636c38382960e11b815260040160405180910390fd5b611dfa6000805160206141cc83398151915284611092565b15611e1a5782604051632486d30560e11b81526004016106649190613a72565b60008181526101f6602052604090206004015460ff1615611e5857604051633893f8e360e21b81526004810182905260248101859052604401610664565b60008181526101f6602090815260408083206001600160a01b03871684526101f5909252909120611e8990836122f0565b506000600282015560048101805460ff19166001179055828155611eb16312cf357084613c1c565b6001820155600060068201819055604051869184917fbe98789b2b45a3ed741b744a7e162d17774fa3f96a952c76f85253d05ff4d19a9190a35050505050565b816001600160a01b0316836001600160a01b031603611f645760405162461bcd60e51b815260206004820152602960248201527f455243313135353a2073657474696e6720617070726f76616c20737461747573604482015268103337b91039b2b63360b91b6064820152608401610664565b6001600160a01b03838116600081815260ca6020908152604080832094871680845294825291829020805460ff191686151590811790915591519182527f17307eab39ab6107e8899845ad3d59bd9653f200f220920489ca2b5937696c31910160405180910390a3505050565b60006107288260146004612a70565b60006004611ff1836001601e612a70565b901c92915050565b6001600160a01b03841661201f5760405162461bcd60e51b815260040161066490613d2e565b3361202f818787611c328861296a565b600084815260c9602090815260408083206001600160a01b038a168452909152902054838110156120725760405162461bcd60e51b815260040161066490613d73565b600085815260c9602090815260408083206001600160a01b038b81168552925280832087850390559088168252812080548692906120b1908490613c1c565b909155505060408051868152602081018690526001600160a01b03808916928a821692918616917fc3d58168c5ae7397731d063d5bbf3d657854427343f4c083240f7aacaa2d0f62910160405180910390a46121118288888888886129b5565b50505050505050565b600054610100900460ff166121415760405162461bcd60e51b815260040161066490613e32565b61214a81612abc565b612152611b78565b61215b81612aec565b50565b6001600160a01b0383166121c05760405162461bcd60e51b815260206004820152602360248201527f455243313135353a206275726e2066726f6d20746865207a65726f206164647260448201526265737360e81b6064820152608401610664565b336121ef818560006121d18761296a565b6121da8761296a565b60405180602001604052806000815250612366565b600083815260c9602090815260408083206001600160a01b03881684529091529020548281101561226e5760405162461bcd60e51b8152602060048201526024808201527f455243313135353a206275726e20616d6f756e7420657863656564732062616c604482015263616e636560e01b6064820152608401610664565b600084815260c9602090815260408083206001600160a01b03898116808652918452828520888703905582518981529384018890529092908616917fc3d58168c5ae7397731d063d5bbf3d657854427343f4c083240f7aacaa2d0f62910160405180910390a45050505050565b600061108b836001600160a01b038416612b4e565b600061108b8383612b4e565b60006001600160e01b03198216636cdb3d1360e11b148061232d57506001600160e01b031982166303a24d0760e21b145b80610728575061072882612b9d565b600082600001828154811061235357612353613ab1565b9060005260206000200154905092915050565b6001600160a01b03888116159088161560006123906000805160206141cc8339815191528d611092565b90506001600160a01b038c8116908c1614158280156123ac5750805b80156123b55750815b156124645760005b8981101561245e578888828181106123d7576123d7613ab1565b905060200201356124008e8d8d858181106123f4576123f4613ab1565b90506020020135610697565b101561244c578c8b8b8381811061241957612419613ab1565b604051633db7aa8160e21b81526001600160a01b0390941660048501526020029190910135602483015250604401610664565b8061245681613add565b9150506123bd565b506124dc565b836124dc5760005b898110156124da576124968b8b8381811061248957612489613ab1565b905060200201358e610e20565b8989838181106124a8576124a8613ab1565b9050602002013511156124c8578c8b8b8381811061241957612419613ab1565b806124d281613add565b91505061246c565b505b6125a28d8d8d8d8d80806020026020016040519081016040528093929190818152602001838360200280828437600081840152601f19601f820116905080830192505050505050508c8c80806020026020016040519081016040528093929190818152602001838360200280828437600081840152601f19601f820116905080830192505050505050508b8b8080601f016020809104026020016040519081016040528093929190818152602001838380828437600092019190915250612bc292505050565b50505050505050505050505050565b6001600160a01b0384163b156119cc5760405163bc197c8160e01b81526001600160a01b0385169063bc197c81906125f59089908990889088908890600401613e94565b6020604051808303816000875af1925050508015612630575060408051601f3d908101601f1916820190925261262d91810190613ef2565b60015b6126dc5761263c613f0f565b806308c379a0036126755750612650613f2b565b8061265b5750612677565b8060405162461bcd60e51b815260040161066491906133de565b505b60405162461bcd60e51b815260206004820152603460248201527f455243313135353a207472616e7366657220746f206e6f6e20455243313135356044820152732932b1b2b4bb32b91034b6b83632b6b2b73a32b960611b6064820152608401610664565b6001600160e01b0319811663bc197c8160e01b146121115760405162461bcd60e51b815260040161066490613fb4565b6060600061271b836002613bdb565b612726906002613c1c565b6001600160401b0381111561273d5761273d6133f1565b6040519080825280601f01601f191660200182016040528015612767576020820181803683370190505b509050600360fc1b8160008151811061278257612782613ab1565b60200101906001600160f81b031916908160001a905350600f60fb1b816001815181106127b1576127b1613ab1565b60200101906001600160f81b031916908160001a90535060006127d5846002613bdb565b6127e0906001613c1c565b90505b6001811115612858576f181899199a1a9b1b9c1cb0b131b232b360811b85600f166010811061281457612814613ab1565b1a60f81b82828151811061282a5761282a613ab1565b60200101906001600160f81b031916908160001a90535060049490941c9361285181613ffc565b90506127e3565b50831561108b5760405162461bcd60e51b815260206004820181905260248201527f537472696e67733a20686578206c656e67746820696e73756666696369656e746044820152606401610664565b6128b18282612cde565b60008281526097602052604090206109a090826122db565b6128d38282611092565b15610a1f5760008281526065602090815260408083206001600160a01b0385168085529252808320805460ff1916905551339285917ff6391f5c32d9c69d2a47ea670b442974b53935d1edc7fd64eb21e047a839171b9190a45050565b600061108b836001600160a01b038416612d64565b60008181526101f66020526040812061108b61296082612e57565b8260060154612ebf565b604080516001808252818301909252606091600091906020808301908036833701905050905082816000815181106129a4576129a4613ab1565b602090810291909101015292915050565b6001600160a01b0384163b156119cc5760405163f23a6e6160e01b81526001600160a01b0385169063f23a6e61906129f99089908990889088908890600401614013565b6020604051808303816000875af1925050508015612a34575060408051601f3d908101601f19168201909252612a3191810190613ef2565b60015b612a405761263c613f0f565b6001600160e01b0319811663f23a6e6160e01b146121115760405162461bcd60e51b815260040161066490613fb4565b600080612a7e600884613bdb565b6001612a8b600887613bdb565b612a9690600261413c565b612aa09190613e7d565b901b9050848116612ab2600885613bdb565b1c95945050505050565b600054610100900460ff16612ae35760405162461bcd60e51b815260040161066490613e32565b61215b81612ed6565b600054610100900460ff16612b135760405162461bcd60e51b815260040161066490613e32565b612b1e600033612ee9565b612b366000805160206141ac83398151915233612ee9565b61215b60008051602061418c83398151915233612ee9565b6000818152600183016020526040812054612b9557508154600181810184556000848152602080822090930184905584548482528286019093526040902091909155610728565b506000610728565b60006001600160e01b03198216635a05180f60e01b1480610728575061072882612ef3565b612bd0868686868686612f28565b6001600160a01b038516612c585760005b8351811015612c5657828181518110612bfc57612bfc613ab1565b60200260200101516101c36000868481518110612c1b57612c1b613ab1565b602002602001015181526020019081526020016000206000828254612c409190613c1c565b90915550612c4f905081613add565b9050612be1565b505b6001600160a01b0384166119cc5760005b835181101561211157828181518110612c8457612c84613ab1565b60200260200101516101c36000868481518110612ca357612ca3613ab1565b602002602001015181526020019081526020016000206000828254612cc89190613e7d565b90915550612cd7905081613add565b9050612c69565b612ce88282611092565b610a1f5760008281526065602090815260408083206001600160a01b03851684529091529020805460ff19166001179055612d203390565b6001600160a01b0316816001600160a01b0316837f2f8788117e7eff1d82e926ec794901d17c78024a50270940304540a733656f0d60405160405180910390a45050565b60008181526001830160205260408120548015612e4d576000612d88600183613e7d565b8554909150600090612d9c90600190613e7d565b9050818114612e01576000866000018281548110612dbc57612dbc613ab1565b9060005260206000200154905080876000018481548110612ddf57612ddf613ab1565b6000918252602080832090910192909255918252600188019052604090208390555b8554869080612e1257612e12614148565b600190038181906000526020600020016000905590558560010160008681526020019081526020016000206000905560019350505050610728565b6000915050610728565b600081600101544210612e6c57506002015490565b81546001830154600091612e7f91613e7d565b83549091504210612eb65782548190612e989042613e7d565b8460020154612ea79190613bdb565b612eb19190613bfa565b61108b565b60009392505050565b600081831015612ecf578161108b565b5090919050565b8051610a1f9060cb906020840190612fe8565b610a1f8282611a38565b60006001600160e01b03198216637965db0b60e01b148061072857506301ffc9a760e01b6001600160e01b0319831614610728565b6119cc86868686868661012d5460ff16156119cc5760405162461bcd60e51b815260206004820152602c60248201527f455243313135355061757361626c653a20746f6b656e207472616e736665722060448201526b1dda1a5b19481c185d5cd95960a21b6064820152608401610664565b60405180610120016040528060008152602001600081526020016060815260200160608152602001600081526020016000815260200160008152602001600081526020016000151581525090565b828054612ff490613af6565b90600052602060002090601f016020900481019282613016576000855561305c565b82601f1061302f57805160ff191683800117855561305c565b8280016001018555821561305c579182015b8281111561305c578251825591602001919060010190613041565b5061306892915061306c565b5090565b5b80821115613068576000815560010161306d565b6001600160a01b038116811461215b57600080fd5b60008083601f8401126130a857600080fd5b5081356001600160401b038111156130bf57600080fd5b6020830191508360208285010111156130d757600080fd5b9250929050565b60008060008060008060008060c0898b0312156130fa57600080fd5b883561310581613081565b9750602089013561311581613081565b9650604089013561312581613081565b95506060890135945060808901356001600160401b038082111561314857600080fd5b6131548c838d01613096565b909650945060a08b013591508082111561316d57600080fd5b5061317a8b828c01613096565b999c989b5096995094979396929594505050565b600080604083850312156131a157600080fd5b82356131ac81613081565b946020939093013593505050565b6001600160e01b03198116811461215b57600080fd5b6000602082840312156131e257600080fd5b813561108b816131ba565b6000602082840312156131ff57600080fd5b813561108b81613081565b600081518084526020808501945080840160005b838110156132435781516001600160a01b03168752958201959082019060010161321e565b509495945050505050565b600081518084526020808501945080840160005b8381101561324357815187529582019590820190600101613262565b6000610120825184526020830151602085015260408301518160408601526132a88286018261320a565b915050606083015184820360608601526132c2828261324e565b9150506080830151608085015260a083015160a085015260c083015160c085015260e083015160e0850152610100808401516133018287018215159052565b5090949350505050565b6000602080830181845280855180835260408601915060408160051b870101925083870160005b8281101561336057603f1988860301845261334e85835161327e565b94509285019290850190600101613332565b5092979650505050505050565b60006020828403121561337f57600080fd5b5035919050565b60005b838110156133a1578181015183820152602001613389565b838111156108dd5750506000910152565b600081518084526133ca816020860160208601613386565b601f01601f19169290920160200192915050565b60208152600061108b60208301846133b2565b634e487b7160e01b600052604160045260246000fd5b601f8201601f191681016001600160401b038111828210171561342c5761342c6133f1565b6040525050565b60006001600160401b0382111561344c5761344c6133f1565b5060051b60200190565b600082601f83011261346757600080fd5b8135602061347482613433565b6040516134818282613407565b83815260059390931b85018201928281019150868411156134a157600080fd5b8286015b848110156134bc57803583529183019183016134a5565b509695505050505050565b60006001600160401b038311156134e0576134e06133f1565b6040516134f7601f8501601f191660200182613407565b80915083815284848401111561350c57600080fd5b83836020830137600060208583010152509392505050565b600082601f83011261353557600080fd5b61108b838335602085016134c7565b6000806000806080858703121561355a57600080fd5b843561356581613081565b935060208501356001600160401b038082111561358157600080fd5b61358d88838901613456565b945060408701359150808211156135a357600080fd5b6135af88838901613456565b935060608701359150808211156135c557600080fd5b506135d287828801613524565b91505092959194509250565b600080600080600060a086880312156135f657600080fd5b853561360181613081565b9450602086013561361181613081565b935060408601356001600160401b038082111561362d57600080fd5b61363989838a01613456565b9450606088013591508082111561364f57600080fd5b61365b89838a01613456565b9350608088013591508082111561367157600080fd5b5061367e88828901613524565b9150509295509295909350565b6000806040838503121561369e57600080fd5b8235915060208301356136b081613081565b809150509250929050565b600080604083850312156136ce57600080fd5b82356136d981613081565b915060208301356136b081613081565b600080604083850312156136fc57600080fd5b82356001600160401b038082111561371357600080fd5b818501915085601f83011261372757600080fd5b8135602061373482613433565b6040516137418282613407565b83815260059390931b850182019282810191508984111561376157600080fd5b948201945b8386101561378857853561377981613081565b82529482019490820190613766565b9650508601359250508082111561379e57600080fd5b506137ab85828601613456565b9150509250929050565b60208152600061108b602083018461324e565b60008083601f8401126137da57600080fd5b5081356001600160401b038111156137f157600080fd5b6020830191508360208260051b85010111156130d757600080fd5b60008060008060006060868803121561382457600080fd5b853561382f81613081565b945060208601356001600160401b038082111561384b57600080fd5b61385789838a016137c8565b9096509450604088013591508082111561387057600080fd5b5061387d888289016137c8565b969995985093965092949392505050565b600080600080608085870312156138a457600080fd5b84356138af81613081565b9350602085013592506040850135915060608501356001600160401b038111156138d857600080fd5b6135d287828801613524565b600080602083850312156138f757600080fd5b82356001600160401b0381111561390d57600080fd5b613919858286016137c8565b90969095509350505050565b6000806040838503121561393857600080fd5b50508035926020909101359150565b6000806040838503121561395a57600080fd5b823561396581613081565b9150602083013580151581146136b057600080fd5b60208152600061108b602083018461327e565b600080600080600060a086880312156139a557600080fd5b85356139b081613081565b945060208601356139c081613081565b9350604086013592506060860135915060808601356001600160401b038111156139e957600080fd5b61367e88828901613524565b600080600060608486031215613a0a57600080fd5b8335613a1581613081565b95602085013595506040909401359392505050565b600060208284031215613a3c57600080fd5b81356001600160401b03811115613a5257600080fd5b8201601f81018413613a6357600080fd5b610e5d848235602084016134c7565b6001600160a01b0391909116815260406020820181905260139082015272455343524f575f43524541544f525f524f4c4560681b606082015260800190565b634e487b7160e01b600052603260045260246000fd5b634e487b7160e01b600052601160045260246000fd5b600060018201613aef57613aef613ac7565b5060010190565b600181811c90821680613b0a57607f821691505b602082108103613b2a57634e487b7160e01b600052602260045260246000fd5b50919050565b60208082526038908201527f455243313135355072657365744d696e7465725061757365723a206d7573742060408201527f68617665206d696e74657220726f6c6520746f206d696e740000000000000000606082015260800190565b6020808252602e908201527f496e697469616c697a61626c653a20636f6e747261637420697320616c72656160408201526d191e481a5b9a5d1a585b1a5e995960921b606082015260800190565b6000816000190483118215151615613bf557613bf5613ac7565b500290565b600082613c1757634e487b7160e01b600052601260045260246000fd5b500490565b60008219821115613c2f57613c2f613ac7565b500190565b60208082526010908201526f14185d5cd8589b194e881c185d5cd95960821b604082015260600190565b600060208284031215613c7057600080fd5b5051919050565b60208082526021908201527f455243313135353a206d696e7420746f20746865207a65726f206164647265736040820152607360f81b606082015260800190565b60208082526028908201527f455243313135353a2069647320616e6420616d6f756e7473206c656e677468206040820152670dad2e6dac2e8c6d60c31b606082015260800190565b604081526000613d13604083018561324e565b8281036020840152613d25818561324e565b95945050505050565b60208082526025908201527f455243313135353a207472616e7366657220746f20746865207a65726f206164604082015264647265737360d81b606082015260800190565b6020808252602a908201527f455243313135353a20696e73756666696369656e742062616c616e636520666f60408201526939103a3930b739b332b960b11b606082015260800190565b7f416363657373436f6e74726f6c3a206163636f756e7420000000000000000000815260008351613df5816017850160208801613386565b7001034b99036b4b9b9b4b733903937b6329607d1b6017918401918201528351613e26816028840160208801613386565b01602801949350505050565b6020808252602b908201527f496e697469616c697a61626c653a20636f6e7472616374206973206e6f74206960408201526a6e697469616c697a696e6760a81b606082015260800190565b600082821015613e8f57613e8f613ac7565b500390565b6001600160a01b0386811682528516602082015260a060408201819052600090613ec09083018661324e565b8281036060840152613ed2818661324e565b90508281036080840152613ee681856133b2565b98975050505050505050565b600060208284031215613f0457600080fd5b815161108b816131ba565b600060033d1115613f285760046000803e5060005160e01c5b90565b600060443d1015613f395790565b6040516003193d81016004833e81513d6001600160401b038160248401118184111715613f6857505050505090565b8285019150815181811115613f805750505050505090565b843d8701016020828501011115613f9a5750505050505090565b613fa960208286010187613407565b509095945050505050565b60208082526028908201527f455243313135353a204552433131353552656365697665722072656a656374656040820152676420746f6b656e7360c01b606082015260800190565b60008161400b5761400b613ac7565b506000190190565b6001600160a01b03868116825285166020820152604081018490526060810183905260a06080820181905260009061404d908301846133b2565b979650505050505050565b600181815b8085111561409357816000190482111561407957614079613ac7565b8085161561408657918102915b93841c939080029061405d565b509250929050565b6000826140aa57506001610728565b816140b757506000610728565b81600181146140cd57600281146140d7576140f3565b6001915050610728565b60ff8411156140e8576140e8613ac7565b50506001821b610728565b5060208310610133831016604e8410600b8410161715614116575081810a610728565b6141208383614058565b806000190482111561413457614134613ac7565b029392505050565b600061108b838361409b565b634e487b7160e01b600052603160045260246000fdfe68747470733a2f2f6e6f72692e636f6d2f6170692f657363726f777363686564756c652f7b69647d2e6a736f6e65d7a28e3265b37a6474929f336521b332c1681b933f6cb9f3376673440d862a9f2df0fed2c77648de5860a4cc508cd0818c85b8b8a1ab4ceeef8d981c8956a602001401bd80c60ccf68a3f1bc912957d6b932fa109a68b27dee5bdb776acfc6a2646970667358221220fdcc05925d4d6ded0fdd510417055c8b320d0a170e90b9c24c189ec5f7ee8d1764736f6c634300080d0033",
  "linkReferences": {},
  "deployedLinkReferences": {}
}