{
  "_format": "hh-sol-artifact-1",
  "contractName": "EscrowedNORI",
  "sourceName": "contracts/EscrowedNORI.sol",
  "abi": [
    {
      "inputs": [],
      "name": "BurningNotSupported",
      "type": "error"
    },
    {
      "inputs": [
        {
          "internalType": "uint256",
          "name": "scheduleTokenId",
          "type": "uint256"
        },
        {
          "internalType": "uint256",
          "name": "removalIdTriggeredCreation",
          "type": "uint256"
        }
      ],
      "name": "EscrowScheduleExists",
      "type": "error"
    },
    {
      "inputs": [
        {
          "internalType": "address",
          "name": "account",
          "type": "address"
        },
        {
          "internalType": "uint256",
          "name": "scheduleId",
          "type": "uint256"
        }
      ],
      "name": "InsufficientBalance",
      "type": "error"
    },
    {
      "inputs": [
        {
          "internalType": "address",
          "name": "account",
          "type": "address"
        },
        {
          "internalType": "string",
          "name": "role",
          "type": "string"
        }
      ],
      "name": "MissingRequiredRole",
      "type": "error"
    },
    {
      "inputs": [
        {
          "internalType": "uint256",
          "name": "scheduleId",
          "type": "uint256"
        }
      ],
      "name": "NonexistentEscrowSchedule",
      "type": "error"
    },
    {
      "inputs": [],
      "name": "RecipientCannotBeZeroAddress",
      "type": "error"
    },
    {
      "inputs": [
        {
          "internalType": "address",
          "name": "recipient",
          "type": "address"
        },
        {
          "internalType": "string",
          "name": "role",
          "type": "string"
        }
      ],
      "name": "RecipientCannotHaveRole",
      "type": "error"
    },
    {
      "inputs": [
        {
          "internalType": "address",
          "name": "account",
          "type": "address"
        },
        {
          "internalType": "string",
          "name": "role",
          "type": "string"
        }
      ],
      "name": "RoleUnassignableToEscrowScheduleHolder",
      "type": "error"
    },
    {
      "inputs": [],
      "name": "TokenSenderNotBPNORI",
      "type": "error"
    },
    {
      "anonymous": false,
      "inputs": [
        {
          "indexed": true,
          "internalType": "address",
          "name": "account",
          "type": "address"
        },
        {
          "indexed": true,
          "internalType": "address",
          "name": "operator",
          "type": "address"
        },
        {
          "indexed": false,
          "internalType": "bool",
          "name": "approved",
          "type": "bool"
        }
      ],
      "name": "ApprovalForAll",
      "type": "event"
    },
    {
      "anonymous": false,
      "inputs": [
        {
          "indexed": true,
          "internalType": "uint256",
          "name": "scheduleId",
          "type": "uint256"
        },
        {
          "indexed": true,
          "internalType": "uint256",
          "name": "removalIdTriggeredCreation",
          "type": "uint256"
        }
      ],
      "name": "EscrowScheduleCreated",
      "type": "event"
    },
    {
      "anonymous": false,
      "inputs": [
        {
          "indexed": false,
          "internalType": "address",
          "name": "account",
          "type": "address"
        }
      ],
      "name": "Paused",
      "type": "event"
    },
    {
      "anonymous": false,
      "inputs": [
        {
          "indexed": true,
          "internalType": "bytes32",
          "name": "role",
          "type": "bytes32"
        },
        {
          "indexed": true,
          "internalType": "bytes32",
          "name": "previousAdminRole",
          "type": "bytes32"
        },
        {
          "indexed": true,
          "internalType": "bytes32",
          "name": "newAdminRole",
          "type": "bytes32"
        }
      ],
      "name": "RoleAdminChanged",
      "type": "event"
    },
    {
      "anonymous": false,
      "inputs": [
        {
          "indexed": true,
          "internalType": "bytes32",
          "name": "role",
          "type": "bytes32"
        },
        {
          "indexed": true,
          "internalType": "address",
          "name": "account",
          "type": "address"
        },
        {
          "indexed": true,
          "internalType": "address",
          "name": "sender",
          "type": "address"
        }
      ],
      "name": "RoleGranted",
      "type": "event"
    },
    {
      "anonymous": false,
      "inputs": [
        {
          "indexed": true,
          "internalType": "bytes32",
          "name": "role",
          "type": "bytes32"
        },
        {
          "indexed": true,
          "internalType": "address",
          "name": "account",
          "type": "address"
        },
        {
          "indexed": true,
          "internalType": "address",
          "name": "sender",
          "type": "address"
        }
      ],
      "name": "RoleRevoked",
      "type": "event"
    },
    {
      "anonymous": false,
      "inputs": [
        {
          "indexed": true,
          "internalType": "address",
          "name": "from",
          "type": "address"
        },
        {
          "indexed": true,
          "internalType": "address",
          "name": "to",
          "type": "address"
        },
        {
          "indexed": true,
          "internalType": "uint256",
          "name": "scheduleId",
          "type": "uint256"
        },
        {
          "indexed": false,
          "internalType": "uint256",
          "name": "quantity",
          "type": "uint256"
        }
      ],
      "name": "TokensClaimed",
      "type": "event"
    },
    {
      "anonymous": false,
      "inputs": [
        {
          "indexed": true,
          "internalType": "address",
          "name": "operator",
          "type": "address"
        },
        {
          "indexed": true,
          "internalType": "address",
          "name": "from",
          "type": "address"
        },
        {
          "indexed": true,
          "internalType": "address",
          "name": "to",
          "type": "address"
        },
        {
          "indexed": false,
          "internalType": "uint256[]",
          "name": "ids",
          "type": "uint256[]"
        },
        {
          "indexed": false,
          "internalType": "uint256[]",
          "name": "values",
          "type": "uint256[]"
        }
      ],
      "name": "TransferBatch",
      "type": "event"
    },
    {
      "anonymous": false,
      "inputs": [
        {
          "indexed": true,
          "internalType": "address",
          "name": "operator",
          "type": "address"
        },
        {
          "indexed": true,
          "internalType": "address",
          "name": "from",
          "type": "address"
        },
        {
          "indexed": true,
          "internalType": "address",
          "name": "to",
          "type": "address"
        },
        {
          "indexed": false,
          "internalType": "uint256",
          "name": "id",
          "type": "uint256"
        },
        {
          "indexed": false,
          "internalType": "uint256",
          "name": "value",
          "type": "uint256"
        }
      ],
      "name": "TransferSingle",
      "type": "event"
    },
    {
      "anonymous": false,
      "inputs": [
        {
          "indexed": false,
          "internalType": "string",
          "name": "value",
          "type": "string"
        },
        {
          "indexed": true,
          "internalType": "uint256",
          "name": "id",
          "type": "uint256"
        }
      ],
      "name": "URI",
      "type": "event"
    },
    {
      "anonymous": false,
      "inputs": [
        {
          "indexed": false,
          "internalType": "address",
          "name": "account",
          "type": "address"
        }
      ],
      "name": "Unpaused",
      "type": "event"
    },
    {
      "anonymous": false,
      "inputs": [
        {
          "indexed": true,
          "internalType": "uint256",
          "name": "atTime",
          "type": "uint256"
        },
        {
          "indexed": true,
          "internalType": "uint256",
          "name": "removalId",
          "type": "uint256"
        },
        {
          "indexed": true,
          "internalType": "uint256",
          "name": "scheduleId",
          "type": "uint256"
        },
        {
          "indexed": false,
          "internalType": "uint256",
          "name": "quantity",
          "type": "uint256"
        }
      ],
      "name": "UnreleasedTokensRevoked",
      "type": "event"
    },
    {
      "inputs": [],
      "name": "DEFAULT_ADMIN_ROLE",
      "outputs": [
        {
          "internalType": "bytes32",
          "name": "",
          "type": "bytes32"
        }
      ],
      "stateMutability": "view",
      "type": "function"
    },
    {
      "inputs": [],
      "name": "ERC777_TOKENS_RECIPIENT_HASH",
      "outputs": [
        {
          "internalType": "bytes32",
          "name": "",
          "type": "bytes32"
        }
      ],
      "stateMutability": "view",
      "type": "function"
    },
    {
      "inputs": [],
      "name": "ESCROW_CREATOR_ROLE",
      "outputs": [
        {
          "internalType": "bytes32",
          "name": "",
          "type": "bytes32"
        }
      ],
      "stateMutability": "view",
      "type": "function"
    },
    {
      "inputs": [],
      "name": "MINTER_ROLE",
      "outputs": [
        {
          "internalType": "bytes32",
          "name": "",
          "type": "bytes32"
        }
      ],
      "stateMutability": "view",
      "type": "function"
    },
    {
      "inputs": [],
      "name": "PAUSER_ROLE",
      "outputs": [
        {
          "internalType": "bytes32",
          "name": "",
          "type": "bytes32"
        }
      ],
      "stateMutability": "view",
      "type": "function"
    },
    {
      "inputs": [
        {
          "internalType": "address",
          "name": "account",
          "type": "address"
        },
        {
          "internalType": "uint256",
          "name": "id",
          "type": "uint256"
        }
      ],
      "name": "balanceOf",
      "outputs": [
        {
          "internalType": "uint256",
          "name": "",
          "type": "uint256"
        }
      ],
      "stateMutability": "view",
      "type": "function"
    },
    {
      "inputs": [
        {
          "internalType": "address[]",
          "name": "accounts",
          "type": "address[]"
        },
        {
          "internalType": "uint256[]",
          "name": "ids",
          "type": "uint256[]"
        }
      ],
      "name": "balanceOfBatch",
      "outputs": [
        {
          "internalType": "uint256[]",
          "name": "",
          "type": "uint256[]"
        }
      ],
      "stateMutability": "view",
      "type": "function"
    },
    {
      "inputs": [
        {
          "internalType": "uint256[]",
          "name": "removalIds",
          "type": "uint256[]"
        }
      ],
      "name": "batchCreateEscrowSchedule",
      "outputs": [],
      "stateMutability": "nonpayable",
      "type": "function"
    },
    {
      "inputs": [
        {
          "internalType": "address",
          "name": "",
          "type": "address"
        },
        {
          "internalType": "uint256",
          "name": "",
          "type": "uint256"
        },
        {
          "internalType": "uint256",
          "name": "",
          "type": "uint256"
        }
      ],
      "name": "burn",
      "outputs": [],
      "stateMutability": "pure",
      "type": "function"
    },
    {
      "inputs": [
        {
          "internalType": "address",
          "name": "",
          "type": "address"
        },
        {
          "internalType": "uint256[]",
          "name": "",
          "type": "uint256[]"
        },
        {
          "internalType": "uint256[]",
          "name": "",
          "type": "uint256[]"
        }
      ],
      "name": "burnBatch",
      "outputs": [],
      "stateMutability": "pure",
      "type": "function"
    },
    {
      "inputs": [
        {
          "internalType": "address",
          "name": "account",
          "type": "address"
        }
      ],
      "name": "claimableBalanceForAccount",
      "outputs": [
        {
          "internalType": "uint256",
          "name": "",
          "type": "uint256"
        }
      ],
      "stateMutability": "view",
      "type": "function"
    },
    {
      "inputs": [
        {
          "internalType": "uint256",
          "name": "scheduleId",
          "type": "uint256"
        }
      ],
      "name": "claimableBalanceForSchedule",
      "outputs": [
        {
          "internalType": "uint256",
          "name": "",
          "type": "uint256"
        }
      ],
      "stateMutability": "view",
      "type": "function"
    },
    {
      "inputs": [
        {
          "internalType": "uint256",
          "name": "scheduleId",
          "type": "uint256"
        },
        {
          "internalType": "address",
          "name": "account",
          "type": "address"
        }
      ],
      "name": "claimableBalanceForScheduleForAccount",
      "outputs": [
        {
          "internalType": "uint256",
          "name": "",
          "type": "uint256"
        }
      ],
      "stateMutability": "view",
      "type": "function"
    },
    {
      "inputs": [
        {
          "internalType": "uint256",
          "name": "removalId",
          "type": "uint256"
        }
      ],
      "name": "createEscrowSchedule",
      "outputs": [],
      "stateMutability": "nonpayable",
      "type": "function"
    },
    {
      "inputs": [
        {
          "internalType": "uint256",
          "name": "id",
          "type": "uint256"
        }
      ],
      "name": "exists",
      "outputs": [
        {
          "internalType": "bool",
          "name": "",
          "type": "bool"
        }
      ],
      "stateMutability": "view",
      "type": "function"
    },
    {
      "inputs": [
        {
          "internalType": "uint256",
          "name": "scheduleId",
          "type": "uint256"
        }
      ],
      "name": "getEscrowSchedule",
      "outputs": [
        {
          "components": [
            {
              "internalType": "uint256",
              "name": "scheduleTokenId",
              "type": "uint256"
            },
            {
              "internalType": "uint256",
              "name": "totalSupply",
              "type": "uint256"
            },
            {
              "internalType": "address[]",
              "name": "tokenHolders",
              "type": "address[]"
            },
            {
              "internalType": "uint256[]",
              "name": "holderBalances",
              "type": "uint256[]"
            },
            {
              "internalType": "uint256",
              "name": "startTime",
              "type": "uint256"
            },
            {
              "internalType": "uint256",
              "name": "endTime",
              "type": "uint256"
            },
            {
              "internalType": "uint256",
              "name": "claimedAmount",
              "type": "uint256"
            },
            {
              "internalType": "uint256",
              "name": "totalQuantityRevoked",
              "type": "uint256"
            },
            {
              "internalType": "bool",
              "name": "exists",
              "type": "bool"
            }
          ],
          "internalType": "struct EscrowedNORI.EscrowScheduleDetail",
          "name": "",
          "type": "tuple"
        }
      ],
      "stateMutability": "view",
      "type": "function"
    },
    {
      "inputs": [
        {
          "internalType": "address",
          "name": "account",
          "type": "address"
        }
      ],
      "name": "getEscrowSchedulesForAccount",
      "outputs": [
        {
          "components": [
            {
              "internalType": "uint256",
              "name": "scheduleTokenId",
              "type": "uint256"
            },
            {
              "internalType": "uint256",
              "name": "totalSupply",
              "type": "uint256"
            },
            {
              "internalType": "address[]",
              "name": "tokenHolders",
              "type": "address[]"
            },
            {
              "internalType": "uint256[]",
              "name": "holderBalances",
              "type": "uint256[]"
            },
            {
              "internalType": "uint256",
              "name": "startTime",
              "type": "uint256"
            },
            {
              "internalType": "uint256",
              "name": "endTime",
              "type": "uint256"
            },
            {
              "internalType": "uint256",
              "name": "claimedAmount",
              "type": "uint256"
            },
            {
              "internalType": "uint256",
              "name": "totalQuantityRevoked",
              "type": "uint256"
            },
            {
              "internalType": "bool",
              "name": "exists",
              "type": "bool"
            }
          ],
          "internalType": "struct EscrowedNORI.EscrowScheduleDetail[]",
          "name": "",
          "type": "tuple[]"
        }
      ],
      "stateMutability": "view",
      "type": "function"
    },
    {
      "inputs": [
        {
          "internalType": "bytes32",
          "name": "role",
          "type": "bytes32"
        }
      ],
      "name": "getRoleAdmin",
      "outputs": [
        {
          "internalType": "bytes32",
          "name": "",
          "type": "bytes32"
        }
      ],
      "stateMutability": "view",
      "type": "function"
    },
    {
      "inputs": [
        {
          "internalType": "bytes32",
          "name": "role",
          "type": "bytes32"
        },
        {
          "internalType": "uint256",
          "name": "index",
          "type": "uint256"
        }
      ],
      "name": "getRoleMember",
      "outputs": [
        {
          "internalType": "address",
          "name": "",
          "type": "address"
        }
      ],
      "stateMutability": "view",
      "type": "function"
    },
    {
      "inputs": [
        {
          "internalType": "bytes32",
          "name": "role",
          "type": "bytes32"
        }
      ],
      "name": "getRoleMemberCount",
      "outputs": [
        {
          "internalType": "uint256",
          "name": "",
          "type": "uint256"
        }
      ],
      "stateMutability": "view",
      "type": "function"
    },
    {
      "inputs": [
        {
          "internalType": "bytes32",
          "name": "role",
          "type": "bytes32"
        },
        {
          "internalType": "address",
          "name": "account",
          "type": "address"
        }
      ],
      "name": "grantRole",
      "outputs": [],
      "stateMutability": "nonpayable",
      "type": "function"
    },
    {
      "inputs": [
        {
          "internalType": "bytes32",
          "name": "role",
          "type": "bytes32"
        },
        {
          "internalType": "address",
          "name": "account",
          "type": "address"
        }
      ],
      "name": "hasRole",
      "outputs": [
        {
          "internalType": "bool",
          "name": "",
          "type": "bool"
        }
      ],
      "stateMutability": "view",
      "type": "function"
    },
    {
      "inputs": [
        {
          "internalType": "contract BridgedPolygonNORI",
          "name": "bridgedPolygonNoriAddress",
          "type": "address"
        },
        {
          "internalType": "contract Removal",
          "name": "removalAddress",
          "type": "address"
        }
      ],
      "name": "initialize",
      "outputs": [],
      "stateMutability": "nonpayable",
      "type": "function"
    },
    {
      "inputs": [
        {
          "internalType": "string",
          "name": "uri",
          "type": "string"
        }
      ],
      "name": "initialize",
      "outputs": [],
      "stateMutability": "nonpayable",
      "type": "function"
    },
    {
      "inputs": [
        {
          "internalType": "address",
          "name": "account",
          "type": "address"
        },
        {
          "internalType": "address",
          "name": "operator",
          "type": "address"
        }
      ],
      "name": "isApprovedForAll",
      "outputs": [
        {
          "internalType": "bool",
          "name": "",
          "type": "bool"
        }
      ],
      "stateMutability": "view",
      "type": "function"
    },
    {
      "inputs": [
        {
          "internalType": "address",
          "name": "to",
          "type": "address"
        },
        {
          "internalType": "uint256",
          "name": "id",
          "type": "uint256"
        },
        {
          "internalType": "uint256",
          "name": "amount",
          "type": "uint256"
        },
        {
          "internalType": "bytes",
          "name": "data",
          "type": "bytes"
        }
      ],
      "name": "mint",
      "outputs": [],
      "stateMutability": "nonpayable",
      "type": "function"
    },
    {
      "inputs": [
        {
          "internalType": "address",
          "name": "to",
          "type": "address"
        },
        {
          "internalType": "uint256[]",
          "name": "ids",
          "type": "uint256[]"
        },
        {
          "internalType": "uint256[]",
          "name": "amounts",
          "type": "uint256[]"
        },
        {
          "internalType": "bytes",
          "name": "data",
          "type": "bytes"
        }
      ],
      "name": "mintBatch",
      "outputs": [],
      "stateMutability": "nonpayable",
      "type": "function"
    },
    {
      "inputs": [],
      "name": "pause",
      "outputs": [],
      "stateMutability": "nonpayable",
      "type": "function"
    },
    {
      "inputs": [],
      "name": "paused",
      "outputs": [
        {
          "internalType": "bool",
          "name": "",
          "type": "bool"
        }
      ],
      "stateMutability": "view",
      "type": "function"
    },
    {
      "inputs": [
        {
          "internalType": "uint256",
          "name": "removalId",
          "type": "uint256"
        }
      ],
      "name": "removalIdToScheduleId",
      "outputs": [
        {
          "internalType": "uint256",
          "name": "",
          "type": "uint256"
        }
      ],
      "stateMutability": "view",
      "type": "function"
    },
    {
      "inputs": [
        {
          "internalType": "bytes32",
          "name": "role",
          "type": "bytes32"
        },
        {
          "internalType": "address",
          "name": "account",
          "type": "address"
        }
      ],
      "name": "renounceRole",
      "outputs": [],
      "stateMutability": "nonpayable",
      "type": "function"
    },
    {
      "inputs": [
        {
          "internalType": "bytes32",
          "name": "role",
          "type": "bytes32"
        },
        {
          "internalType": "address",
          "name": "account",
          "type": "address"
        }
      ],
      "name": "revokeRole",
      "outputs": [],
      "stateMutability": "nonpayable",
      "type": "function"
    },
    {
      "inputs": [
        {
          "internalType": "address",
          "name": "from",
          "type": "address"
        },
        {
          "internalType": "address",
          "name": "to",
          "type": "address"
        },
        {
          "internalType": "uint256[]",
          "name": "ids",
          "type": "uint256[]"
        },
        {
          "internalType": "uint256[]",
          "name": "amounts",
          "type": "uint256[]"
        },
        {
          "internalType": "bytes",
          "name": "data",
          "type": "bytes"
        }
      ],
      "name": "safeBatchTransferFrom",
      "outputs": [],
      "stateMutability": "nonpayable",
      "type": "function"
    },
    {
      "inputs": [
        {
          "internalType": "address",
          "name": "from",
          "type": "address"
        },
        {
          "internalType": "address",
          "name": "to",
          "type": "address"
        },
        {
          "internalType": "uint256",
          "name": "id",
          "type": "uint256"
        },
        {
          "internalType": "uint256",
          "name": "amount",
          "type": "uint256"
        },
        {
          "internalType": "bytes",
          "name": "data",
          "type": "bytes"
        }
      ],
      "name": "safeTransferFrom",
      "outputs": [],
      "stateMutability": "nonpayable",
      "type": "function"
    },
    {
      "inputs": [
        {
          "internalType": "address",
          "name": "operator",
          "type": "address"
        },
        {
          "internalType": "bool",
          "name": "approved",
          "type": "bool"
        }
      ],
      "name": "setApprovalForAll",
      "outputs": [],
      "stateMutability": "nonpayable",
      "type": "function"
    },
    {
      "inputs": [
        {
          "internalType": "bytes4",
          "name": "interfaceId",
          "type": "bytes4"
        }
      ],
      "name": "supportsInterface",
      "outputs": [
        {
          "internalType": "bool",
          "name": "",
          "type": "bool"
        }
      ],
      "stateMutability": "view",
      "type": "function"
    },
    {
      "inputs": [
        {
          "internalType": "address",
          "name": "sender",
          "type": "address"
        },
        {
          "internalType": "address",
          "name": "",
          "type": "address"
        },
        {
          "internalType": "address",
          "name": "",
          "type": "address"
        },
        {
          "internalType": "uint256",
          "name": "amount",
          "type": "uint256"
        },
        {
          "internalType": "bytes",
          "name": "userData",
          "type": "bytes"
        },
        {
          "internalType": "bytes",
          "name": "operatorData",
          "type": "bytes"
        }
      ],
      "name": "tokensReceived",
      "outputs": [],
      "stateMutability": "nonpayable",
      "type": "function"
    },
    {
      "inputs": [
        {
          "internalType": "uint256",
          "name": "id",
          "type": "uint256"
        }
      ],
      "name": "totalSupply",
      "outputs": [
        {
          "internalType": "uint256",
          "name": "",
          "type": "uint256"
        }
      ],
      "stateMutability": "view",
      "type": "function"
    },
    {
      "inputs": [],
      "name": "unpause",
      "outputs": [],
      "stateMutability": "nonpayable",
      "type": "function"
    },
    {
      "inputs": [
        {
          "internalType": "uint256",
          "name": "",
          "type": "uint256"
        }
      ],
      "name": "uri",
      "outputs": [
        {
          "internalType": "string",
          "name": "",
          "type": "string"
        }
      ],
      "stateMutability": "view",
      "type": "function"
    },
    {
      "inputs": [
        {
          "internalType": "address",
          "name": "recipient",
          "type": "address"
        },
        {
          "internalType": "uint256",
          "name": "scheduleId",
          "type": "uint256"
        },
        {
          "internalType": "uint256",
          "name": "amount",
          "type": "uint256"
        }
      ],
      "name": "withdrawFromEscrowSchedule",
      "outputs": [
        {
          "internalType": "bool",
          "name": "",
          "type": "bool"
        }
      ],
      "stateMutability": "nonpayable",
      "type": "function"
    }
  ],
  "bytecode": "0x608060405234801561001057600080fd5b5061429b806100206000396000f3fe608060405234801561001057600080fd5b50600436106102515760003560e01c80638456cb5911610146578063d5391393116100c3578063e63ab1e911610087578063e63ab1e91461057e578063e985e9c514610593578063f242432a146105cf578063f5298aca146105e2578063f62d1888146105f0578063f77b94fe1461060357600080fd5b8063d53913931461050e578063d547741f14610523578063d70c0f9414610536578063d943dac714610556578063daa55af01461056957600080fd5b8063a217fddf1161010a578063a217fddf146104ac578063a22cb465146104b4578063bd85b039146104c7578063be24051f146104e8578063ca15c873146104fb57600080fd5b80638456cb59146104405780638d7b0daa146104485780638f9e8e491461045b5780639010d07c1461046e57806391d148541461049957600080fd5b80633f4ba83a116101d45780635c975abb116101985780635c975abb146103e85780635d37165a146103f45780636235a4e9146104075780636b20c4541461041a578063731133e91461042d57600080fd5b80633f4ba83a14610363578063485cc9551461036b5780634e1273f41461037e5780634f558e791461039e578063521189a9146103c157600080fd5b80631f7fdffa1161021b5780631f7fdffa146102f4578063248a9ca3146103075780632eb2c2d61461032a5780632f2ff15d1461033d57806336568abe1461035057600080fd5b806223de2914610256578062fdd58e1461026b57806301ffc9a714610291578063061775c9146102b45780630e89341c146102d4575b600080fd5b61026961026436600461311e565b610616565b005b61027e6102793660046131ce565b61071c565b6040519081526020015b60405180910390f35b6102a461029f366004613210565b6107b3565b6040519015158152602001610288565b6102c76102c236600461322d565b6107be565b604051610288919061334b565b6102e76102e23660046133ad565b61088e565b604051610288919061341e565b610269610302366004613584565b610922565b61027e6103153660046133ad565b60009081526065602052604090206001015490565b61026961033836600461361e565b610968565b61026961034b3660046136cb565b6109ff565b61026961035e3660046136cb565b610a2a565b610269610aa8565b6102696103793660046136fb565b610b3c565b61039161038c366004613729565b610d84565b60405161028891906137f5565b6102a46103ac3660046133ad565b60009081526101c36020526040902054151590565b61027e7fb281fc8c12954d22544db45de3159a39272895b169a852b314f9cc762e44c53b81565b61012d5460ff166102a4565b61027e6104023660046136cb565b610ea5565b61027e6104153660046133ad565b610eea565b61026961042836600461384c565b610f40565b61026961043b3660046138ce565b610f59565b610269610f99565b61027e61045636600461322d565b61102b565b610269610469366004613924565b611092565b61048161047c366004613965565b61114e565b6040516001600160a01b039091168152602001610288565b6102a46104a73660046136cb565b611166565b61027e600081565b6102696104c2366004613987565b611191565b61027e6104d53660046133ad565b60009081526101c3602052604090205490565b6102696104f63660046133ad565b61119c565b61027e6105093660046133ad565b6111e2565b61027e60008051602061422683398151915281565b6102696105313660046136cb565b6111f9565b6105496105443660046133ad565b61121f565b60405161028891906139ba565b61027e6105643660046133ad565b6113da565b61027e60008051602061424683398151915281565b61027e60008051602061420683398151915281565b6102a46105a13660046136fb565b6001600160a01b03918216600090815260ca6020908152604080832093909416825291909152205460ff1690565b6102696105dd3660046139cd565b6114bd565b610269610428366004613a35565b6102696105fe366004613a6a565b611544565b6102a4610611366004613a35565b6115bf565b6101f7546001600160a01b0316336001600160a01b03161461064b57604051634628d20b60e01b815260040160405180910390fd5b61066360008051602061424683398151915289611166565b61068b5787604051637e76b2af60e11b81526004016106829190613ab2565b60405180910390fd5b6000610699848601866133ad565b9050610710818787878080601f01602080910402602001604051908101604052809392919081815260200183838082843760009201919091525050604080516020601f8b0181900481028201810190925289815292508991508890819084018382808284376000920191909152506116b992505050565b50505050505050505050565b60006001600160a01b0383166107885760405162461bcd60e51b815260206004820152602b60248201527f455243313135353a2062616c616e636520717565727920666f7220746865207a60448201526a65726f206164647265737360a81b6064820152608401610682565b50600081815260c9602090815260408083206001600160a01b03861684529091529020545b92915050565b60006107ad8261177d565b6001600160a01b03811660009081526101f5602052604081206060916107e382611788565b6001600160401b038111156107fa576107fa613431565b60405190808252806020026020018201604052801561083357816020015b610820612fda565b8152602001906001900390816108185790505b50905060005b61084283611788565b811015610886576108566105448483611792565b82828151811061086857610868613af1565b6020026020010181905250808061087e90613b1d565b915050610839565b509392505050565b606060cb805461089d90613b36565b80601f01602080910402602001604051908101604052809291908181526020018280546108c990613b36565b80156109165780601f106108eb57610100808354040283529160200191610916565b820191906000526020600020905b8154815290600101906020018083116108f957829003601f168201915b50505050509050919050565b61093a60008051602061422683398151915233611166565b6109565760405162461bcd60e51b815260040161068290613b70565b6109628484848461179e565b50505050565b6001600160a01b038516331480610984575061098485336105a1565b6109eb5760405162461bcd60e51b815260206004820152603260248201527f455243313135353a207472616e736665722063616c6c6572206973206e6f74206044820152711bdddb995c881b9bdc88185c1c1c9bdd995960721b6064820152608401610682565b6109f885858585856118f9565b5050505050565b600082815260656020526040902060010154610a1b8133611aa6565b610a258383611b0a565b505050565b6001600160a01b0381163314610a9a5760405162461bcd60e51b815260206004820152602f60248201527f416363657373436f6e74726f6c3a2063616e206f6e6c792072656e6f756e636560448201526e103937b632b9903337b91039b2b63360891b6064820152608401610682565b610aa48282611b6c565b5050565b610ac060008051602061420683398151915233611166565b610b325760405162461bcd60e51b815260206004820152603b60248201527f455243313135355072657365744d696e7465725061757365723a206d7573742060448201527f686176652070617573657220726f6c6520746f20756e706175736500000000006064820152608401610682565b610b3a611b8e565b565b600054610100900460ff16610b575760005460ff1615610b5b565b303b155b610b775760405162461bcd60e51b815260040161068290613bcd565b600054610100900460ff16158015610b99576000805461ffff19166101011790555b610bba6040518060600160405280602d81526020016141d9602d9139611544565b604080516001808252818301909252600091602080830190803683370190505090503381600081518110610bf057610bf0613af1565b60200260200101906001600160a01b031690816001600160a01b031681525050610c18611c23565b610c20611c23565b610c28611c23565b610c30611c23565b610c38611c4a565b610c40611c23565b6101f780546001600160a01b038681166001600160a01b0319928316179092556101f88054928616929091168217905560405163058740e560e31b8152306004820152632c3a072890602401600060405180830381600087803b158015610ca657600080fd5b505af1158015610cba573d6000803e3d6000fd5b50506040516329965a1d60e01b815230600482018190527fb281fc8c12954d22544db45de3159a39272895b169a852b314f9cc762e44c53b60248301526044820152731820a4b7618bde71dce8cdc73aab6c95905fad2492506329965a1d9150606401600060405180830381600087803b158015610d3757600080fd5b505af1158015610d4b573d6000803e3d6000fd5b50505050610d6d600080516020614246833981519152610d683390565b611b0a565b508015610a25576000805461ff0019169055505050565b60608151835114610de95760405162461bcd60e51b815260206004820152602960248201527f455243313135353a206163636f756e747320616e6420696473206c656e677468604482015268040dad2e6dac2e8c6d60bb1b6064820152608401610682565b600083516001600160401b03811115610e0457610e04613431565b604051908082528060200260200182016040528015610e2d578160200160208202803683370190505b50905060005b845181101561088657610e78858281518110610e5157610e51613af1565b6020026020010151858381518110610e6b57610e6b613af1565b602002602001015161071c565b828281518110610e8a57610e8a613af1565b6020908102919091010152610e9e81613b1d565b9050610e33565b600080610eb184610eea565b60008581526101c36020526040902054909150610ece848661071c565b610ed89083613c1b565b610ee29190613c3a565b949350505050565b60008181526101f660205260408120600481015460ff16610f2157604051633470367960e11b815260048101849052602401610682565b8060030154610f2f84611c7e565b610f399190613c5c565b9392505050565b60405163fd647c0960e01b815260040160405180910390fd5b610f7160008051602061422683398151915233611166565b610f8d5760405162461bcd60e51b815260040161068290613b70565b61096284848484611ca3565b610fb160008051602061420683398151915233611166565b6110235760405162461bcd60e51b815260206004820152603960248201527f455243313135355072657365744d696e7465725061757365723a206d7573742060448201527f686176652070617573657220726f6c6520746f207061757365000000000000006064820152608401610682565b610b3a611da0565b6001600160a01b03811660009081526101f5602052604081208190815b61105182611788565b8110156110895761106b6110658383611792565b86610ea5565b6110759084613c73565b92508061108181613b1d565b915050611048565b50909392505050565b61012d5460ff16156110b65760405162461bcd60e51b815260040161068290613c8b565b6000805160206142468339815191526110cf8133611aa6565b60005b828110156109625760006110fd8585848181106110f1576110f1613af1565b905060200201356113da565b60008181526101f6602052604090206004015490915060ff1661113b5761113b85858481811061112f5761112f613af1565b90506020020135611dfa565b508061114681613b1d565b9150506110d2565b6000828152609760205260408120610f399083611792565b60009182526065602090815260408084206001600160a01b0393909316845291905290205460ff1690565b610aa4338383611fbe565b61012d5460ff16156111c05760405162461bcd60e51b815260040161068290613c8b565b6000805160206142468339815191526111d98133611aa6565b610aa482611dfa565b60008181526097602052604081206107ad90611788565b6000828152606560205260409020600101546112158133611aa6565b610a258383611b6c565b611227612fda565b60008281526101f6602052604081209061124360078301611788565b90506000816001600160401b0381111561125f5761125f613431565b604051908082528060200260200182016040528015611288578160200160208202803683370190505b5090506000826001600160401b038111156112a5576112a5613431565b6040519080825280602002602001820160405280156112ce578160200160208202803683370190505b50905060005b6112e085600701611788565b811015611356576112f46007860182611792565b83828151811061130657611306613af1565b60200260200101906001600160a01b031690816001600160a01b0316815250508682828151811061133957611339613af1565b60209081029190910101528061134e81613b1d565b9150506112d4565b506040518061012001604052808781526020016113808860009081526101c3602052604090205490565b81526020018381526020016113958484610d84565b81528554602082015260018601546040820152600386015460608201526005860154608082015260049095015460ff16151560a0909501949094525091949350505050565b6000806113e68361209e565b905060006113f3846120ad565b6101f8546040516374d03ff760e01b81526004810187905260ff9290921692506000916001600160a01b03909116906374d03ff790602401602060405180830381865afa158015611448573d6000803e3d6000fd5b505050506040513d601f19601f8201168201806040525081019061146c9190613cb5565b6040516bffffffffffffffffffffffff19606086901b166020820152603481018490526054810182905290915060740160408051601f19818403018152919052805160209091012095945050505050565b6001600160a01b0385163314806114d957506114d985336105a1565b6115375760405162461bcd60e51b815260206004820152602960248201527f455243313135353a2063616c6c6572206973206e6f74206f776e6572206e6f7260448201526808185c1c1c9bdd995960ba1b6064820152608401610682565b6109f885858585856120c6565b600054610100900460ff1661155f5760005460ff1615611563565b303b155b61157f5760405162461bcd60e51b815260040161068290613bcd565b600054610100900460ff161580156115a1576000805461ffff19166101011790555b6115aa826121e7565b8015610aa4576000805461ff00191690555050565b60006115cc33848461222b565b6101f754604051634decdde360e11b81526001600160a01b03868116600483015260248201859052606060448301526000606483015290911690639bd9bbc690608401600060405180830381600087803b15801561162957600080fd5b505af115801561163d573d6000803e3d6000fd5b50505060008481526101f66020526040812060038101805491935085929091611667908490613c73565b909155505060405183815284906001600160a01b0387169033907fff097c7d8b1957a4ff09ef1361b5fb54dcede3941ba836d0beb9d10bec725de69060200160405180910390a4506001949350505050565b6000806116c58661209e565b905060006116d2876113da565b60008181526101f6602052604090206004015490915060ff166116f8576116f887611dfa565b61171382828860405180602001604052806000815250611ca3565b60008181526101f66020526040812060028101805491928992611737908490613c73565b9091555061174a905060078201846123a8565b506001600160a01b03831660009081526101f56020526040902061176e90836123bd565b50600198975050505050505050565b60006107ad826123c9565b60006107ad825490565b6000610f398383612409565b6001600160a01b0384166117c45760405162461bcd60e51b815260040161068290613cce565b81518351146117e55760405162461bcd60e51b815260040161068290613d0f565b336117f581600087878787612433565b60005b84518110156118915783818151811061181357611813613af1565b602002602001015160c9600087848151811061183157611831613af1565b602002602001015181526020019081526020016000206000886001600160a01b03166001600160a01b0316815260200190815260200160002060008282546118799190613c73565b9091555081905061188981613b1d565b9150506117f8565b50846001600160a01b031660006001600160a01b0316826001600160a01b03167f4a39dc06d4c0dbc64b70af90fd698a233a518aa5d07e595d983b8c0526c8f7fb87876040516118e2929190613d57565b60405180910390a46109f8816000878787876125b2565b815183511461191a5760405162461bcd60e51b815260040161068290613d0f565b6001600160a01b0384166119405760405162461bcd60e51b815260040161068290613d85565b3361194f818787878787612433565b60005b8451811015611a3857600085828151811061196f5761196f613af1565b60200260200101519050600085838151811061198d5761198d613af1565b602090810291909101810151600084815260c9835260408082206001600160a01b038e1683529093529190912054909150818110156119de5760405162461bcd60e51b815260040161068290613dca565b600083815260c9602090815260408083206001600160a01b038e8116855292528083208585039055908b16825281208054849290611a1d908490613c73565b9250508190555050505080611a3190613b1d565b9050611952565b50846001600160a01b0316866001600160a01b0316826001600160a01b03167f4a39dc06d4c0dbc64b70af90fd698a233a518aa5d07e595d983b8c0526c8f7fb8787604051611a88929190613d57565b60405180910390a4611a9e8187878787876125b2565b505050505050565b611ab08282611166565b610aa457611ac8816001600160a01b0316601461270d565b611ad383602061270d565b604051602001611ae4929190613e14565b60408051601f198184030181529082905262461bcd60e51b82526106829160040161341e565b6000805160206142468339815191528203611b62576001600160a01b03811660009081526101f560205260408120611b4190611788565b1115611b62578060405163df03622360e01b81526004016106829190613ab2565b610aa482826128a8565b611b7682826128ca565b6000828152609760205260409020610a259082612931565b61012d5460ff16611bd85760405162461bcd60e51b815260206004820152601460248201527314185d5cd8589b194e881b9bdd081c185d5cd95960621b6044820152606401610682565b61012d805460ff191690557f5db9ee0a495bf2e6ff9c91a7834c1ba4fdd244a5e8aa4e537bd38aeae4b073aa335b6040516001600160a01b03909116815260200160405180910390a1565b600054610100900460ff16610b3a5760405162461bcd60e51b815260040161068290613e89565b600054610100900460ff16611c715760405162461bcd60e51b815260040161068290613e89565b61012d805460ff19169055565b60008181526101f660205260408120610f39611c9982612946565b82600601546129ae565b6001600160a01b038416611cc95760405162461bcd60e51b815260040161068290613cce565b6000339050611cef6040518060600160405280603a815260200161419f603a91396129c5565b611d0e81600087611cff88612a08565b611d0888612a08565b87612433565b600084815260c9602090815260408083206001600160a01b038916845290915281208054859290611d40908490613c73565b909155505060408051858152602081018590526001600160a01b0380881692600092918516917fc3d58168c5ae7397731d063d5bbf3d657854427343f4c083240f7aacaa2d0f62910160405180910390a46109f881600087878787612a53565b61012d5460ff1615611dc45760405162461bcd60e51b815260040161068290613c8b565b61012d805460ff191660011790557f62e78cea01bee320cd4e420270b5ea74000d11b0c9f74754ebdbfc544b05a258611c063390565b6000611e058261209e565b6101f8546040516374d03ff760e01b8152600481018590529192506000916001600160a01b03909116906374d03ff790602401602060405180830381865afa158015611e55573d6000803e3d6000fd5b505050506040513d601f19601f82011682018060405250810190611e799190613cb5565b90506000611e86846113da565b90506001600160a01b038316611eaf57604051636c38382960e11b815260040160405180910390fd5b611ec760008051602061424683398151915284611166565b15611ee75782604051632486d30560e11b81526004016106829190613ab2565b60008181526101f6602052604090206004015460ff1615611f2557604051633893f8e360e21b81526004810182905260248101859052604401610682565b60008181526101f6602090815260408083206001600160a01b03871684526101f5909252909120611f5690836123bd565b506000600282015560048101805460ff19166001179055828155611f7e6312cf357084613c73565b6001820155600060068201819055604051869184917fbe98789b2b45a3ed741b744a7e162d17774fa3f96a952c76f85253d05ff4d19a9190a35050505050565b816001600160a01b0316836001600160a01b0316036120315760405162461bcd60e51b815260206004820152602960248201527f455243313135353a2073657474696e6720617070726f76616c20737461747573604482015268103337b91039b2b63360b91b6064820152608401610682565b6001600160a01b03838116600081815260ca6020908152604080832094871680845294825291829020805460ff191686151590811790915591519182527f17307eab39ab6107e8899845ad3d59bd9653f200f220920489ca2b5937696c31910160405180910390a3505050565b60006107ad8260146004612b0e565b600060046120be836001601e612b0e565b901c92915050565b6001600160a01b0384166120ec5760405162461bcd60e51b815260040161068290613d85565b336120fc818787611cff88612a08565b600084815260c9602090815260408083206001600160a01b038a1684529091529020548381101561213f5760405162461bcd60e51b815260040161068290613dca565b600085815260c9602090815260408083206001600160a01b038b811685529252808320878503905590881682528120805486929061217e908490613c73565b909155505060408051868152602081018690526001600160a01b03808916928a821692918616917fc3d58168c5ae7397731d063d5bbf3d657854427343f4c083240f7aacaa2d0f62910160405180910390a46121de828888888888612a53565b50505050505050565b600054610100900460ff1661220e5760405162461bcd60e51b815260040161068290613e89565b61221781612b5a565b61221f611c4a565b61222881612b8a565b50565b6001600160a01b03831661228d5760405162461bcd60e51b815260206004820152602360248201527f455243313135353a206275726e2066726f6d20746865207a65726f206164647260448201526265737360e81b6064820152608401610682565b336122bc8185600061229e87612a08565b6122a787612a08565b60405180602001604052806000815250612433565b600083815260c9602090815260408083206001600160a01b03881684529091529020548281101561233b5760405162461bcd60e51b8152602060048201526024808201527f455243313135353a206275726e20616d6f756e7420657863656564732062616c604482015263616e636560e01b6064820152608401610682565b600084815260c9602090815260408083206001600160a01b03898116808652918452828520888703905582518981529384018890529092908616917fc3d58168c5ae7397731d063d5bbf3d657854427343f4c083240f7aacaa2d0f62910160405180910390a45050505050565b6000610f39836001600160a01b038416612bec565b6000610f398383612bec565b60006001600160e01b03198216636cdb3d1360e11b14806123fa57506001600160e01b031982166303a24d0760e21b145b806107ad57506107ad82612c3b565b600082600001828154811061242057612420613af1565b9060005260206000200154905092915050565b6001600160a01b038581161590851615600061245d6000805160206142468339815191528a611166565b90506001600160a01b0389811690891614158280156124795750805b80156124825750815b156125295760005b8751811015612523578681815181106124a5576124a5613af1565b60200260200101516124c38b8a8481518110610e6b57610e6b613af1565b101561251157898882815181106124dc576124dc613af1565b6020908102919091010151604051633db7aa8160e21b81526001600160a01b0390921660048301526024820152604401610682565b8061251b81613b1d565b91505061248a565b506125a4565b836125a45760005b87518110156125a25761255d88828151811061254f5761254f613af1565b60200260200101518b610ea5565b87828151811061256f5761256f613af1565b6020026020010151111561259057898882815181106124dc576124dc613af1565b8061259a81613b1d565b915050612531565b505b6107108a8a8a8a8a8a612c60565b6001600160a01b0384163b15611a9e5760405163bc197c8160e01b81526001600160a01b0385169063bc197c81906125f69089908990889088908890600401613ed4565b6020604051808303816000875af1925050508015612631575060408051601f3d908101601f1916820190925261262e91810190613f32565b60015b6126dd5761263d613f4f565b806308c379a0036126765750612651613f6b565b8061265c5750612678565b8060405162461bcd60e51b8152600401610682919061341e565b505b60405162461bcd60e51b815260206004820152603460248201527f455243313135353a207472616e7366657220746f206e6f6e20455243313135356044820152732932b1b2b4bb32b91034b6b83632b6b2b73a32b960611b6064820152608401610682565b6001600160e01b0319811663bc197c8160e01b146121de5760405162461bcd60e51b815260040161068290613ff4565b6060600061271c836002613c1b565b612727906002613c73565b6001600160401b0381111561273e5761273e613431565b6040519080825280601f01601f191660200182016040528015612768576020820181803683370190505b509050600360fc1b8160008151811061278357612783613af1565b60200101906001600160f81b031916908160001a905350600f60fb1b816001815181106127b2576127b2613af1565b60200101906001600160f81b031916908160001a90535060006127d6846002613c1b565b6127e1906001613c73565b90505b6001811115612859576f181899199a1a9b1b9c1cb0b131b232b360811b85600f166010811061281557612815613af1565b1a60f81b82828151811061282b5761282b613af1565b60200101906001600160f81b031916908160001a90535060049490941c936128528161403c565b90506127e4565b508315610f395760405162461bcd60e51b815260206004820181905260248201527f537472696e67733a20686578206c656e67746820696e73756666696369656e746044820152606401610682565b6128b28282612d7c565b6000828152609760205260409020610a2590826123a8565b6128d48282611166565b15610aa45760008281526065602090815260408083206001600160a01b0385168085529252808320805460ff1916905551339285917ff6391f5c32d9c69d2a47ea670b442974b53935d1edc7fd64eb21e047a839171b9190a45050565b6000610f39836001600160a01b038416612e02565b60008160010154421061295b57506002015490565b8154600183015460009161296e91613c5c565b835490915042106129a557825481906129879042613c5c565b84600201546129969190613c1b565b6129a09190613c3a565b610f39565b60009392505050565b6000818310156129be5781610f39565b5090919050565b612228816040516024016129d9919061341e565b60408051601f198184030181529190526020810180516001600160e01b031663104c13eb60e21b179052612ef5565b60408051600180825281830190925260609160009190602080830190803683370190505090508281600081518110612a4257612a42613af1565b602090810291909101015292915050565b6001600160a01b0384163b15611a9e5760405163f23a6e6160e01b81526001600160a01b0385169063f23a6e6190612a979089908990889088908890600401614053565b6020604051808303816000875af1925050508015612ad2575060408051601f3d908101601f19168201909252612acf91810190613f32565b60015b612ade5761263d613f4f565b6001600160e01b0319811663f23a6e6160e01b146121de5760405162461bcd60e51b815260040161068290613ff4565b600080612b1c600884613c1b565b6001612b29600887613c1b565b612b3490600261417c565b612b3e9190613c5c565b901b9050848116612b50600885613c1b565b1c95945050505050565b600054610100900460ff16612b815760405162461bcd60e51b815260040161068290613e89565b61222881612f16565b600054610100900460ff16612bb15760405162461bcd60e51b815260040161068290613e89565b612bbc600033612f29565b612bd460008051602061422683398151915233612f29565b61222860008051602061420683398151915233612f29565b6000818152600183016020526040812054612c33575081546001818101845560008481526020808220909301849055845484825282860190935260409020919091556107ad565b5060006107ad565b60006001600160e01b03198216635a05180f60e01b14806107ad57506107ad82612f33565b612c6e868686868686612f68565b6001600160a01b038516612cf65760005b8351811015612cf457828181518110612c9a57612c9a613af1565b60200260200101516101c36000868481518110612cb957612cb9613af1565b602002602001015181526020019081526020016000206000828254612cde9190613c73565b90915550612ced905081613b1d565b9050612c7f565b505b6001600160a01b038416611a9e5760005b83518110156121de57828181518110612d2257612d22613af1565b60200260200101516101c36000868481518110612d4157612d41613af1565b602002602001015181526020019081526020016000206000828254612d669190613c5c565b90915550612d75905081613b1d565b9050612d07565b612d868282611166565b610aa45760008281526065602090815260408083206001600160a01b03851684529091529020805460ff19166001179055612dbe3390565b6001600160a01b0316816001600160a01b0316837f2f8788117e7eff1d82e926ec794901d17c78024a50270940304540a733656f0d60405160405180910390a45050565b60008181526001830160205260408120548015612eeb576000612e26600183613c5c565b8554909150600090612e3a90600190613c5c565b9050818114612e9f576000866000018281548110612e5a57612e5a613af1565b9060005260206000200154905080876000018481548110612e7d57612e7d613af1565b6000918252602080832090910192909255918252600188019052604090208390555b8554869080612eb057612eb0614188565b6001900381819060005260206000200160009055905585600101600086815260200190815260200160002060009055600193505050506107ad565b60009150506107ad565b80516a636f6e736f6c652e6c6f67602083016000808483855afa5050505050565b8051610aa49060cb906020840190613028565b610aa48282611b0a565b60006001600160e01b03198216637965db0b60e01b14806107ad57506301ffc9a760e01b6001600160e01b03198316146107ad565b611a9e86868686868661012d5460ff1615611a9e5760405162461bcd60e51b815260206004820152602c60248201527f455243313135355061757361626c653a20746f6b656e207472616e736665722060448201526b1dda1a5b19481c185d5cd95960a21b6064820152608401610682565b60405180610120016040528060008152602001600081526020016060815260200160608152602001600081526020016000815260200160008152602001600081526020016000151581525090565b82805461303490613b36565b90600052602060002090601f016020900481019282613056576000855561309c565b82601f1061306f57805160ff191683800117855561309c565b8280016001018555821561309c579182015b8281111561309c578251825591602001919060010190613081565b506130a89291506130ac565b5090565b5b808211156130a857600081556001016130ad565b6001600160a01b038116811461222857600080fd5b60008083601f8401126130e857600080fd5b5081356001600160401b038111156130ff57600080fd5b60208301915083602082850101111561311757600080fd5b9250929050565b60008060008060008060008060c0898b03121561313a57600080fd5b8835613145816130c1565b97506020890135613155816130c1565b96506040890135613165816130c1565b95506060890135945060808901356001600160401b038082111561318857600080fd5b6131948c838d016130d6565b909650945060a08b01359150808211156131ad57600080fd5b506131ba8b828c016130d6565b999c989b5096995094979396929594505050565b600080604083850312156131e157600080fd5b82356131ec816130c1565b946020939093013593505050565b6001600160e01b03198116811461222857600080fd5b60006020828403121561322257600080fd5b8135610f39816131fa565b60006020828403121561323f57600080fd5b8135610f39816130c1565b600081518084526020808501945080840160005b838110156132835781516001600160a01b03168752958201959082019060010161325e565b509495945050505050565b600081518084526020808501945080840160005b83811015613283578151875295820195908201906001016132a2565b6000610120825184526020830151602085015260408301518160408601526132e88286018261324a565b91505060608301518482036060860152613302828261328e565b9150506080830151608085015260a083015160a085015260c083015160c085015260e083015160e0850152610100808401516133418287018215159052565b5090949350505050565b6000602080830181845280855180835260408601915060408160051b870101925083870160005b828110156133a057603f1988860301845261338e8583516132be565b94509285019290850190600101613372565b5092979650505050505050565b6000602082840312156133bf57600080fd5b5035919050565b60005b838110156133e15781810151838201526020016133c9565b838111156109625750506000910152565b6000815180845261340a8160208601602086016133c6565b601f01601f19169290920160200192915050565b602081526000610f3960208301846133f2565b634e487b7160e01b600052604160045260246000fd5b601f8201601f191681016001600160401b038111828210171561346c5761346c613431565b6040525050565b60006001600160401b0382111561348c5761348c613431565b5060051b60200190565b600082601f8301126134a757600080fd5b813560206134b482613473565b6040516134c18282613447565b83815260059390931b85018201928281019150868411156134e157600080fd5b8286015b848110156134fc57803583529183019183016134e5565b509695505050505050565b60006001600160401b0383111561352057613520613431565b604051613537601f8501601f191660200182613447565b80915083815284848401111561354c57600080fd5b83836020830137600060208583010152509392505050565b600082601f83011261357557600080fd5b610f3983833560208501613507565b6000806000806080858703121561359a57600080fd5b84356135a5816130c1565b935060208501356001600160401b03808211156135c157600080fd5b6135cd88838901613496565b945060408701359150808211156135e357600080fd5b6135ef88838901613496565b9350606087013591508082111561360557600080fd5b5061361287828801613564565b91505092959194509250565b600080600080600060a0868803121561363657600080fd5b8535613641816130c1565b94506020860135613651816130c1565b935060408601356001600160401b038082111561366d57600080fd5b61367989838a01613496565b9450606088013591508082111561368f57600080fd5b61369b89838a01613496565b935060808801359150808211156136b157600080fd5b506136be88828901613564565b9150509295509295909350565b600080604083850312156136de57600080fd5b8235915060208301356136f0816130c1565b809150509250929050565b6000806040838503121561370e57600080fd5b8235613719816130c1565b915060208301356136f0816130c1565b6000806040838503121561373c57600080fd5b82356001600160401b038082111561375357600080fd5b818501915085601f83011261376757600080fd5b8135602061377482613473565b6040516137818282613447565b83815260059390931b85018201928281019150898411156137a157600080fd5b948201945b838610156137c85785356137b9816130c1565b825294820194908201906137a6565b965050860135925050808211156137de57600080fd5b506137eb85828601613496565b9150509250929050565b602081526000610f39602083018461328e565b60008083601f84011261381a57600080fd5b5081356001600160401b0381111561383157600080fd5b6020830191508360208260051b850101111561311757600080fd5b60008060008060006060868803121561386457600080fd5b853561386f816130c1565b945060208601356001600160401b038082111561388b57600080fd5b61389789838a01613808565b909650945060408801359150808211156138b057600080fd5b506138bd88828901613808565b969995985093965092949392505050565b600080600080608085870312156138e457600080fd5b84356138ef816130c1565b9350602085013592506040850135915060608501356001600160401b0381111561391857600080fd5b61361287828801613564565b6000806020838503121561393757600080fd5b82356001600160401b0381111561394d57600080fd5b61395985828601613808565b90969095509350505050565b6000806040838503121561397857600080fd5b50508035926020909101359150565b6000806040838503121561399a57600080fd5b82356139a5816130c1565b9150602083013580151581146136f057600080fd5b602081526000610f3960208301846132be565b600080600080600060a086880312156139e557600080fd5b85356139f0816130c1565b94506020860135613a00816130c1565b9350604086013592506060860135915060808601356001600160401b03811115613a2957600080fd5b6136be88828901613564565b600080600060608486031215613a4a57600080fd5b8335613a55816130c1565b95602085013595506040909401359392505050565b600060208284031215613a7c57600080fd5b81356001600160401b03811115613a9257600080fd5b8201601f81018413613aa357600080fd5b610ee284823560208401613507565b6001600160a01b0391909116815260406020820181905260139082015272455343524f575f43524541544f525f524f4c4560681b606082015260800190565b634e487b7160e01b600052603260045260246000fd5b634e487b7160e01b600052601160045260246000fd5b600060018201613b2f57613b2f613b07565b5060010190565b600181811c90821680613b4a57607f821691505b602082108103613b6a57634e487b7160e01b600052602260045260246000fd5b50919050565b60208082526038908201527f455243313135355072657365744d696e7465725061757365723a206d7573742060408201527f68617665206d696e74657220726f6c6520746f206d696e740000000000000000606082015260800190565b6020808252602e908201527f496e697469616c697a61626c653a20636f6e747261637420697320616c72656160408201526d191e481a5b9a5d1a585b1a5e995960921b606082015260800190565b6000816000190483118215151615613c3557613c35613b07565b500290565b600082613c5757634e487b7160e01b600052601260045260246000fd5b500490565b600082821015613c6e57613c6e613b07565b500390565b60008219821115613c8657613c86613b07565b500190565b60208082526010908201526f14185d5cd8589b194e881c185d5cd95960821b604082015260600190565b600060208284031215613cc757600080fd5b5051919050565b60208082526021908201527f455243313135353a206d696e7420746f20746865207a65726f206164647265736040820152607360f81b606082015260800190565b60208082526028908201527f455243313135353a2069647320616e6420616d6f756e7473206c656e677468206040820152670dad2e6dac2e8c6d60c31b606082015260800190565b604081526000613d6a604083018561328e565b8281036020840152613d7c818561328e565b95945050505050565b60208082526025908201527f455243313135353a207472616e7366657220746f20746865207a65726f206164604082015264647265737360d81b606082015260800190565b6020808252602a908201527f455243313135353a20696e73756666696369656e742062616c616e636520666f60408201526939103a3930b739b332b960b11b606082015260800190565b7f416363657373436f6e74726f6c3a206163636f756e7420000000000000000000815260008351613e4c8160178501602088016133c6565b7001034b99036b4b9b9b4b733903937b6329607d1b6017918401918201528351613e7d8160288401602088016133c6565b01602801949350505050565b6020808252602b908201527f496e697469616c697a61626c653a20636f6e7472616374206973206e6f74206960408201526a6e697469616c697a696e6760a81b606082015260800190565b6001600160a01b0386811682528516602082015260a060408201819052600090613f009083018661328e565b8281036060840152613f12818661328e565b90508281036080840152613f2681856133f2565b98975050505050505050565b600060208284031215613f4457600080fd5b8151610f39816131fa565b600060033d1115613f685760046000803e5060005160e01c5b90565b600060443d1015613f795790565b6040516003193d81016004833e81513d6001600160401b038160248401118184111715613fa857505050505090565b8285019150815181811115613fc05750505050505090565b843d8701016020828501011115613fda5750505050505090565b613fe960208286010187613447565b509095945050505050565b60208082526028908201527f455243313135353a204552433131353552656365697665722072656a656374656040820152676420746f6b656e7360c01b606082015260800190565b60008161404b5761404b613b07565b506000190190565b6001600160a01b03868116825285166020820152604081018490526060810183905260a06080820181905260009061408d908301846133f2565b979650505050505050565b600181815b808511156140d35781600019048211156140b9576140b9613b07565b808516156140c657918102915b93841c939080029061409d565b509250929050565b6000826140ea575060016107ad565b816140f7575060006107ad565b816001811461410d576002811461411757614133565b60019150506107ad565b60ff84111561412857614128613b07565b50506001821b6107ad565b5060208310610133831016604e8410600b8410161715614156575081810a6107ad565b6141608383614098565b806000190482111561417457614174613b07565b029392505050565b6000610f3983836140db565b634e487b7160e01b600052603160045260246000fdfe696e7369646520455243313135357570677261646561626c65205f6d696e74206265666f7265206265666f7265546f6b656e5472616e7366657268747470733a2f2f6e6f72692e636f6d2f6170692f657363726f777363686564756c652f7b69647d2e6a736f6e65d7a28e3265b37a6474929f336521b332c1681b933f6cb9f3376673440d862a9f2df0fed2c77648de5860a4cc508cd0818c85b8b8a1ab4ceeef8d981c8956a602001401bd80c60ccf68a3f1bc912957d6b932fa109a68b27dee5bdb776acfc6a26469706673582212205b41708954ea6cd06ac7c3cdc4bb4d6de23b9a563c4b7bbcd9c9fe960c283dc064736f6c634300080d0033",
  "linkReferences": {},
  "deployedLinkReferences": {}
}