{
  "_format": "hh-sol-artifact-1",
  "contractName": "EscrowedNORI",
  "sourceName": "contracts/EscrowedNORI.sol",
  "abi": [
    {
      "inputs": [
        {
          "internalType": "address",
          "name": "account",
          "type": "address"
        },
        {
          "internalType": "uint256",
          "name": "escrowScheduleId",
          "type": "uint256"
        }
      ],
      "name": "AllTokensAlreadyReleased",
      "type": "error"
    },
    {
      "inputs": [
        {
          "internalType": "string",
          "name": "array1Name",
          "type": "string"
        },
        {
          "internalType": "string",
          "name": "array2Name",
          "type": "string"
        }
      ],
      "name": "ArrayLengthMismatch",
      "type": "error"
    },
    {
      "inputs": [],
      "name": "BurningNotSupported",
      "type": "error"
    },
    {
      "inputs": [
        {
          "internalType": "address",
          "name": "account",
          "type": "address"
        },
        {
          "internalType": "uint256",
          "name": "escrowScheduleId",
          "type": "uint256"
        }
      ],
      "name": "EscrowScheduleExists",
      "type": "error"
    },
    {
      "inputs": [
        {
          "internalType": "address",
          "name": "account",
          "type": "address"
        }
      ],
      "name": "InsufficientBalance",
      "type": "error"
    },
    {
      "inputs": [
        {
          "internalType": "address",
          "name": "account",
          "type": "address"
        },
        {
          "internalType": "uint256",
          "name": "escrowScheduleId",
          "type": "uint256"
        }
      ],
      "name": "InsufficientUnreleasedTokens",
      "type": "error"
    },
    {
      "inputs": [
        {
          "internalType": "string",
          "name": "message",
          "type": "string"
        }
      ],
      "name": "LogicError",
      "type": "error"
    },
    {
      "inputs": [
        {
          "internalType": "address",
          "name": "account",
          "type": "address"
        },
        {
          "internalType": "string",
          "name": "role",
          "type": "string"
        }
      ],
      "name": "MissingRequiredRole",
      "type": "error"
    },
    {
      "inputs": [
        {
          "internalType": "address",
          "name": "account",
          "type": "address"
        },
        {
          "internalType": "uint256",
          "name": "escrowScheduleId",
          "type": "uint256"
        }
      ],
      "name": "NonexistentEscrowSchedule",
      "type": "error"
    },
    {
      "inputs": [],
      "name": "OperatorActionsDisabled",
      "type": "error"
    },
    {
      "inputs": [],
      "name": "OperatorSendDisabled",
      "type": "error"
    },
    {
      "inputs": [],
      "name": "RecipientCannotBeZeroAddress",
      "type": "error"
    },
    {
      "inputs": [
        {
          "internalType": "address",
          "name": "recipient",
          "type": "address"
        },
        {
          "internalType": "string",
          "name": "role",
          "type": "string"
        }
      ],
      "name": "RecipientCannotHaveRole",
      "type": "error"
    },
    {
      "inputs": [
        {
          "internalType": "address",
          "name": "account",
          "type": "address"
        },
        {
          "internalType": "string",
          "name": "role",
          "type": "string"
        }
      ],
      "name": "RoleUnassignableToEscrowScheduleHolder",
      "type": "error"
    },
    {
      "inputs": [],
      "name": "SendDisabled",
      "type": "error"
    },
    {
      "inputs": [],
      "name": "TokenSenderNotBPNORI",
      "type": "error"
    },
    {
      "inputs": [],
      "name": "TransferDisabled",
      "type": "error"
    },
    {
      "inputs": [],
      "name": "TransferFromDisabled",
      "type": "error"
    },
    {
      "anonymous": false,
      "inputs": [
        {
          "indexed": true,
          "internalType": "address",
          "name": "owner",
          "type": "address"
        },
        {
          "indexed": true,
          "internalType": "address",
          "name": "spender",
          "type": "address"
        },
        {
          "indexed": false,
          "internalType": "uint256",
          "name": "value",
          "type": "uint256"
        }
      ],
      "name": "Approval",
      "type": "event"
    },
    {
      "anonymous": false,
      "inputs": [
        {
          "indexed": true,
          "internalType": "address",
          "name": "operator",
          "type": "address"
        },
        {
          "indexed": true,
          "internalType": "address",
          "name": "tokenHolder",
          "type": "address"
        }
      ],
      "name": "AuthorizedOperator",
      "type": "event"
    },
    {
      "anonymous": false,
      "inputs": [
        {
          "indexed": true,
          "internalType": "address",
          "name": "operator",
          "type": "address"
        },
        {
          "indexed": true,
          "internalType": "address",
          "name": "from",
          "type": "address"
        },
        {
          "indexed": false,
          "internalType": "uint256",
          "name": "amount",
          "type": "uint256"
        },
        {
          "indexed": false,
          "internalType": "bytes",
          "name": "data",
          "type": "bytes"
        },
        {
          "indexed": false,
          "internalType": "bytes",
          "name": "operatorData",
          "type": "bytes"
        }
      ],
      "name": "Burned",
      "type": "event"
    },
    {
      "anonymous": false,
      "inputs": [
        {
          "indexed": true,
          "internalType": "address",
          "name": "recipient",
          "type": "address"
        },
        {
          "indexed": true,
          "internalType": "uint256",
          "name": "startTime",
          "type": "uint256"
        }
      ],
      "name": "EscrowScheduleCreated",
      "type": "event"
    },
    {
      "anonymous": false,
      "inputs": [
        {
          "indexed": true,
          "internalType": "address",
          "name": "operator",
          "type": "address"
        },
        {
          "indexed": true,
          "internalType": "address",
          "name": "to",
          "type": "address"
        },
        {
          "indexed": false,
          "internalType": "uint256",
          "name": "amount",
          "type": "uint256"
        },
        {
          "indexed": false,
          "internalType": "bytes",
          "name": "data",
          "type": "bytes"
        },
        {
          "indexed": false,
          "internalType": "bytes",
          "name": "operatorData",
          "type": "bytes"
        }
      ],
      "name": "Minted",
      "type": "event"
    },
    {
      "anonymous": false,
      "inputs": [
        {
          "indexed": false,
          "internalType": "address",
          "name": "account",
          "type": "address"
        }
      ],
      "name": "Paused",
      "type": "event"
    },
    {
      "anonymous": false,
      "inputs": [
        {
          "indexed": true,
          "internalType": "address",
          "name": "operator",
          "type": "address"
        },
        {
          "indexed": true,
          "internalType": "address",
          "name": "tokenHolder",
          "type": "address"
        }
      ],
      "name": "RevokedOperator",
      "type": "event"
    },
    {
      "anonymous": false,
      "inputs": [
        {
          "indexed": true,
          "internalType": "bytes32",
          "name": "role",
          "type": "bytes32"
        },
        {
          "indexed": true,
          "internalType": "bytes32",
          "name": "previousAdminRole",
          "type": "bytes32"
        },
        {
          "indexed": true,
          "internalType": "bytes32",
          "name": "newAdminRole",
          "type": "bytes32"
        }
      ],
      "name": "RoleAdminChanged",
      "type": "event"
    },
    {
      "anonymous": false,
      "inputs": [
        {
          "indexed": true,
          "internalType": "bytes32",
          "name": "role",
          "type": "bytes32"
        },
        {
          "indexed": true,
          "internalType": "address",
          "name": "account",
          "type": "address"
        },
        {
          "indexed": true,
          "internalType": "address",
          "name": "sender",
          "type": "address"
        }
      ],
      "name": "RoleGranted",
      "type": "event"
    },
    {
      "anonymous": false,
      "inputs": [
        {
          "indexed": true,
          "internalType": "bytes32",
          "name": "role",
          "type": "bytes32"
        },
        {
          "indexed": true,
          "internalType": "address",
          "name": "account",
          "type": "address"
        },
        {
          "indexed": true,
          "internalType": "address",
          "name": "sender",
          "type": "address"
        }
      ],
      "name": "RoleRevoked",
      "type": "event"
    },
    {
      "anonymous": false,
      "inputs": [
        {
          "indexed": true,
          "internalType": "address",
          "name": "operator",
          "type": "address"
        },
        {
          "indexed": true,
          "internalType": "address",
          "name": "from",
          "type": "address"
        },
        {
          "indexed": true,
          "internalType": "address",
          "name": "to",
          "type": "address"
        },
        {
          "indexed": false,
          "internalType": "uint256",
          "name": "amount",
          "type": "uint256"
        },
        {
          "indexed": false,
          "internalType": "bytes",
          "name": "data",
          "type": "bytes"
        },
        {
          "indexed": false,
          "internalType": "bytes",
          "name": "operatorData",
          "type": "bytes"
        }
      ],
      "name": "Sent",
      "type": "event"
    },
    {
      "anonymous": false,
      "inputs": [
        {
          "indexed": true,
          "internalType": "address",
          "name": "from",
          "type": "address"
        },
        {
          "indexed": false,
          "internalType": "address[]",
          "name": "recipients",
          "type": "address[]"
        },
        {
          "indexed": false,
          "internalType": "uint256[]",
          "name": "amounts",
          "type": "uint256[]"
        },
        {
          "indexed": false,
          "internalType": "bytes[]",
          "name": "userData",
          "type": "bytes[]"
        },
        {
          "indexed": false,
          "internalType": "bytes[]",
          "name": "operatorData",
          "type": "bytes[]"
        },
        {
          "indexed": false,
          "internalType": "bool[]",
          "name": "requireReceptionAck",
          "type": "bool[]"
        }
      ],
      "name": "SentBatch",
      "type": "event"
    },
    {
      "anonymous": false,
      "inputs": [
        {
          "indexed": true,
          "internalType": "address",
          "name": "from",
          "type": "address"
        },
        {
          "indexed": true,
          "internalType": "address",
          "name": "to",
          "type": "address"
        },
        {
          "indexed": true,
          "internalType": "uint256",
          "name": "quantity",
          "type": "uint256"
        }
      ],
      "name": "TokensClaimed",
      "type": "event"
    },
    {
      "anonymous": false,
      "inputs": [
        {
          "indexed": true,
          "internalType": "address",
          "name": "from",
          "type": "address"
        },
        {
          "indexed": true,
          "internalType": "address",
          "name": "to",
          "type": "address"
        },
        {
          "indexed": false,
          "internalType": "uint256",
          "name": "value",
          "type": "uint256"
        }
      ],
      "name": "Transfer",
      "type": "event"
    },
    {
      "anonymous": false,
      "inputs": [
        {
          "indexed": false,
          "internalType": "address",
          "name": "account",
          "type": "address"
        }
      ],
      "name": "Unpaused",
      "type": "event"
    },
    {
      "anonymous": false,
      "inputs": [
        {
          "indexed": true,
          "internalType": "uint256",
          "name": "atTime",
          "type": "uint256"
        },
        {
          "indexed": true,
          "internalType": "uint256",
          "name": "removalId",
          "type": "uint256"
        },
        {
          "indexed": true,
          "internalType": "uint256",
          "name": "escrowScheduleId",
          "type": "uint256"
        },
        {
          "indexed": false,
          "internalType": "uint256",
          "name": "quantity",
          "type": "uint256"
        }
      ],
      "name": "UnreleasedTokensRevoked",
      "type": "event"
    },
    {
      "inputs": [],
      "name": "DEFAULT_ADMIN_ROLE",
      "outputs": [
        {
          "internalType": "bytes32",
          "name": "",
          "type": "bytes32"
        }
      ],
      "stateMutability": "view",
      "type": "function"
    },
    {
      "inputs": [],
      "name": "ERC777_TOKENS_RECIPIENT_HASH",
      "outputs": [
        {
          "internalType": "bytes32",
          "name": "",
          "type": "bytes32"
        }
      ],
      "stateMutability": "view",
      "type": "function"
    },
    {
      "inputs": [],
      "name": "ESCROW_CREATOR_ROLE",
      "outputs": [
        {
          "internalType": "bytes32",
          "name": "",
          "type": "bytes32"
        }
      ],
      "stateMutability": "view",
      "type": "function"
    },
    {
      "inputs": [],
      "name": "PAUSER_ROLE",
      "outputs": [
        {
          "internalType": "bytes32",
          "name": "",
          "type": "bytes32"
        }
      ],
      "stateMutability": "view",
      "type": "function"
    },
    {
      "inputs": [
        {
          "internalType": "address",
          "name": "holder",
          "type": "address"
        },
        {
          "internalType": "address",
          "name": "spender",
          "type": "address"
        }
      ],
      "name": "allowance",
      "outputs": [
        {
          "internalType": "uint256",
          "name": "",
          "type": "uint256"
        }
      ],
      "stateMutability": "view",
      "type": "function"
    },
    {
      "inputs": [
        {
          "internalType": "address",
          "name": "spender",
          "type": "address"
        },
        {
          "internalType": "uint256",
          "name": "value",
          "type": "uint256"
        }
      ],
      "name": "approve",
      "outputs": [
        {
          "internalType": "bool",
          "name": "",
          "type": "bool"
        }
      ],
      "stateMutability": "nonpayable",
      "type": "function"
    },
    {
      "inputs": [
        {
          "internalType": "address",
          "name": "operator",
          "type": "address"
        }
      ],
      "name": "authorizeOperator",
      "outputs": [],
      "stateMutability": "nonpayable",
      "type": "function"
    },
    {
      "inputs": [
        {
          "internalType": "address",
          "name": "tokenHolder",
          "type": "address"
        }
      ],
      "name": "balanceOf",
      "outputs": [
        {
          "internalType": "uint256",
          "name": "",
          "type": "uint256"
        }
      ],
      "stateMutability": "view",
      "type": "function"
    },
    {
      "inputs": [
        {
          "internalType": "address[]",
          "name": "accounts",
          "type": "address[]"
        }
      ],
      "name": "balanceOfBatch",
      "outputs": [
        {
          "internalType": "uint256[]",
          "name": "",
          "type": "uint256[]"
        }
      ],
      "stateMutability": "view",
      "type": "function"
    },
    {
      "inputs": [
        {
          "internalType": "address[]",
          "name": "recipients",
          "type": "address[]"
        },
        {
          "internalType": "uint256[]",
          "name": "startTimes",
          "type": "uint256[]"
        }
      ],
      "name": "batchCreateEscrowSchedule",
      "outputs": [],
      "stateMutability": "nonpayable",
      "type": "function"
    },
    {
      "inputs": [
        {
          "internalType": "address[]",
          "name": "accounts",
          "type": "address[]"
        }
      ],
      "name": "batchGetEscrowSchedules",
      "outputs": [
        {
          "components": [
            {
              "internalType": "uint256",
              "name": "currentAmount",
              "type": "uint256"
            },
            {
              "internalType": "address",
              "name": "recipient",
              "type": "address"
            },
            {
              "internalType": "uint256",
              "name": "startTime",
              "type": "uint256"
            },
            {
              "internalType": "uint256",
              "name": "endTime",
              "type": "uint256"
            },
            {
              "internalType": "uint256",
              "name": "claimedAmount",
              "type": "uint256"
            },
            {
              "internalType": "uint256",
              "name": "totalQuantityRevoked",
              "type": "uint256"
            },
            {
              "internalType": "bool",
              "name": "exists",
              "type": "bool"
            }
          ],
          "internalType": "struct EscrowedNORI.EscrowScheduleDetail[]",
          "name": "",
          "type": "tuple[]"
        }
      ],
      "stateMutability": "view",
      "type": "function"
    },
    {
      "inputs": [
        {
          "internalType": "address[]",
          "name": "toAccounts",
          "type": "address[]"
        },
        {
          "internalType": "uint256[]",
          "name": "removalIds",
          "type": "uint256[]"
        },
        {
          "internalType": "uint256[]",
          "name": "amounts",
          "type": "uint256[]"
        }
      ],
      "name": "batchRevokeUnreleasedTokenAmounts",
      "outputs": [],
      "stateMutability": "nonpayable",
      "type": "function"
    },
    {
      "inputs": [
        {
          "internalType": "address[]",
          "name": "recipients",
          "type": "address[]"
        },
        {
          "internalType": "uint256[]",
          "name": "amounts",
          "type": "uint256[]"
        },
        {
          "internalType": "bytes[]",
          "name": "userData",
          "type": "bytes[]"
        },
        {
          "internalType": "bytes[]",
          "name": "operatorData",
          "type": "bytes[]"
        },
        {
          "internalType": "bool[]",
          "name": "requireReceptionAck",
          "type": "bool[]"
        }
      ],
      "name": "batchSend",
      "outputs": [],
      "stateMutability": "nonpayable",
      "type": "function"
    },
    {
      "inputs": [
        {
          "internalType": "uint256",
          "name": "",
          "type": "uint256"
        },
        {
          "internalType": "bytes",
          "name": "",
          "type": "bytes"
        }
      ],
      "name": "burn",
      "outputs": [],
      "stateMutability": "pure",
      "type": "function"
    },
    {
      "inputs": [
        {
          "internalType": "address",
          "name": "account",
          "type": "address"
        }
      ],
      "name": "claimableBalanceOf",
      "outputs": [
        {
          "internalType": "uint256",
          "name": "",
          "type": "uint256"
        }
      ],
      "stateMutability": "view",
      "type": "function"
    },
    {
      "inputs": [
        {
          "internalType": "address",
          "name": "recipient",
          "type": "address"
        },
        {
          "internalType": "uint256",
          "name": "startTime",
          "type": "uint256"
        }
      ],
      "name": "createEscrowSchedule",
      "outputs": [],
      "stateMutability": "nonpayable",
      "type": "function"
    },
    {
      "inputs": [],
      "name": "decimals",
      "outputs": [
        {
          "internalType": "uint8",
          "name": "",
          "type": "uint8"
        }
      ],
      "stateMutability": "pure",
      "type": "function"
    },
    {
      "inputs": [],
      "name": "defaultOperators",
      "outputs": [
        {
          "internalType": "address[]",
          "name": "",
          "type": "address[]"
        }
      ],
      "stateMutability": "view",
      "type": "function"
    },
    {
      "inputs": [
        {
          "internalType": "address",
          "name": "account",
          "type": "address"
        },
        {
          "internalType": "uint256",
          "name": "escrowScheduleId",
          "type": "uint256"
        }
      ],
      "name": "getEscrowSchedule",
      "outputs": [
        {
          "components": [
            {
              "internalType": "uint256",
              "name": "currentAmount",
              "type": "uint256"
            },
            {
              "internalType": "address",
              "name": "recipient",
              "type": "address"
            },
            {
              "internalType": "uint256",
              "name": "startTime",
              "type": "uint256"
            },
            {
              "internalType": "uint256",
              "name": "endTime",
              "type": "uint256"
            },
            {
              "internalType": "uint256",
              "name": "claimedAmount",
              "type": "uint256"
            },
            {
              "internalType": "uint256",
              "name": "totalQuantityRevoked",
              "type": "uint256"
            },
            {
              "internalType": "bool",
              "name": "exists",
              "type": "bool"
            }
          ],
          "internalType": "struct EscrowedNORI.EscrowScheduleDetail",
          "name": "",
          "type": "tuple"
        }
      ],
      "stateMutability": "view",
      "type": "function"
    },
    {
      "inputs": [
        {
          "internalType": "bytes32",
          "name": "role",
          "type": "bytes32"
        }
      ],
      "name": "getRoleAdmin",
      "outputs": [
        {
          "internalType": "bytes32",
          "name": "",
          "type": "bytes32"
        }
      ],
      "stateMutability": "view",
      "type": "function"
    },
    {
      "inputs": [
        {
          "internalType": "bytes32",
          "name": "role",
          "type": "bytes32"
        },
        {
          "internalType": "uint256",
          "name": "index",
          "type": "uint256"
        }
      ],
      "name": "getRoleMember",
      "outputs": [
        {
          "internalType": "address",
          "name": "",
          "type": "address"
        }
      ],
      "stateMutability": "view",
      "type": "function"
    },
    {
      "inputs": [
        {
          "internalType": "bytes32",
          "name": "role",
          "type": "bytes32"
        }
      ],
      "name": "getRoleMemberCount",
      "outputs": [
        {
          "internalType": "uint256",
          "name": "",
          "type": "uint256"
        }
      ],
      "stateMutability": "view",
      "type": "function"
    },
    {
      "inputs": [
        {
          "internalType": "bytes32",
          "name": "role",
          "type": "bytes32"
        },
        {
          "internalType": "address",
          "name": "account",
          "type": "address"
        }
      ],
      "name": "grantRole",
      "outputs": [],
      "stateMutability": "nonpayable",
      "type": "function"
    },
    {
      "inputs": [],
      "name": "granularity",
      "outputs": [
        {
          "internalType": "uint256",
          "name": "",
          "type": "uint256"
        }
      ],
      "stateMutability": "view",
      "type": "function"
    },
    {
      "inputs": [
        {
          "internalType": "bytes32",
          "name": "role",
          "type": "bytes32"
        },
        {
          "internalType": "address",
          "name": "account",
          "type": "address"
        }
      ],
      "name": "hasRole",
      "outputs": [
        {
          "internalType": "bool",
          "name": "",
          "type": "bool"
        }
      ],
      "stateMutability": "view",
      "type": "function"
    },
    {
      "inputs": [
        {
          "internalType": "contract BridgedPolygonNORI",
          "name": "bridgedPolygonNoriAddress",
          "type": "address"
        },
        {
          "internalType": "contract Removal",
          "name": "removalAddress",
          "type": "address"
        }
      ],
      "name": "initialize",
      "outputs": [],
      "stateMutability": "nonpayable",
      "type": "function"
    },
    {
      "inputs": [
        {
          "internalType": "address",
          "name": "operator",
          "type": "address"
        },
        {
          "internalType": "address",
          "name": "tokenHolder",
          "type": "address"
        }
      ],
      "name": "isOperatorFor",
      "outputs": [
        {
          "internalType": "bool",
          "name": "",
          "type": "bool"
        }
      ],
      "stateMutability": "view",
      "type": "function"
    },
    {
      "inputs": [],
      "name": "name",
      "outputs": [
        {
          "internalType": "string",
          "name": "",
          "type": "string"
        }
      ],
      "stateMutability": "view",
      "type": "function"
    },
    {
      "inputs": [
        {
          "internalType": "address",
          "name": "",
          "type": "address"
        },
        {
          "internalType": "uint256",
          "name": "",
          "type": "uint256"
        },
        {
          "internalType": "bytes",
          "name": "",
          "type": "bytes"
        },
        {
          "internalType": "bytes",
          "name": "",
          "type": "bytes"
        }
      ],
      "name": "operatorBurn",
      "outputs": [],
      "stateMutability": "pure",
      "type": "function"
    },
    {
      "inputs": [
        {
          "internalType": "address",
          "name": "",
          "type": "address"
        },
        {
          "internalType": "address",
          "name": "",
          "type": "address"
        },
        {
          "internalType": "uint256",
          "name": "",
          "type": "uint256"
        },
        {
          "internalType": "bytes",
          "name": "",
          "type": "bytes"
        },
        {
          "internalType": "bytes",
          "name": "",
          "type": "bytes"
        }
      ],
      "name": "operatorSend",
      "outputs": [],
      "stateMutability": "pure",
      "type": "function"
    },
    {
      "inputs": [],
      "name": "pause",
      "outputs": [],
      "stateMutability": "nonpayable",
      "type": "function"
    },
    {
      "inputs": [],
      "name": "paused",
      "outputs": [
        {
          "internalType": "bool",
          "name": "",
          "type": "bool"
        }
      ],
      "stateMutability": "view",
      "type": "function"
    },
    {
      "inputs": [
        {
          "internalType": "bytes32",
          "name": "role",
          "type": "bytes32"
        },
        {
          "internalType": "address",
          "name": "account",
          "type": "address"
        }
      ],
      "name": "renounceRole",
      "outputs": [],
      "stateMutability": "nonpayable",
      "type": "function"
    },
    {
      "inputs": [
        {
          "internalType": "address",
          "name": "account",
          "type": "address"
        },
        {
          "internalType": "uint256",
          "name": "escrowScheduleId",
          "type": "uint256"
        }
      ],
      "name": "revocableQuantity",
      "outputs": [
        {
          "internalType": "uint256",
          "name": "",
          "type": "uint256"
        }
      ],
      "stateMutability": "view",
      "type": "function"
    },
    {
      "inputs": [
        {
          "internalType": "address",
          "name": "operator",
          "type": "address"
        }
      ],
      "name": "revokeOperator",
      "outputs": [],
      "stateMutability": "nonpayable",
      "type": "function"
    },
    {
      "inputs": [
        {
          "internalType": "bytes32",
          "name": "role",
          "type": "bytes32"
        },
        {
          "internalType": "address",
          "name": "account",
          "type": "address"
        }
      ],
      "name": "revokeRole",
      "outputs": [],
      "stateMutability": "nonpayable",
      "type": "function"
    },
    {
      "inputs": [
        {
          "internalType": "address",
          "name": "",
          "type": "address"
        },
        {
          "internalType": "uint256",
          "name": "",
          "type": "uint256"
        },
        {
          "internalType": "bytes",
          "name": "",
          "type": "bytes"
        }
      ],
      "name": "send",
      "outputs": [],
      "stateMutability": "pure",
      "type": "function"
    },
    {
      "inputs": [
        {
          "internalType": "bytes4",
          "name": "interfaceId",
          "type": "bytes4"
        }
      ],
      "name": "supportsInterface",
      "outputs": [
        {
          "internalType": "bool",
          "name": "",
          "type": "bool"
        }
      ],
      "stateMutability": "view",
      "type": "function"
    },
    {
      "inputs": [],
      "name": "symbol",
      "outputs": [
        {
          "internalType": "string",
          "name": "",
          "type": "string"
        }
      ],
      "stateMutability": "view",
      "type": "function"
    },
    {
      "inputs": [
        {
          "internalType": "address",
          "name": "sender",
          "type": "address"
        },
        {
          "internalType": "address",
          "name": "",
          "type": "address"
        },
        {
          "internalType": "address",
          "name": "",
          "type": "address"
        },
        {
          "internalType": "uint256",
          "name": "amount",
          "type": "uint256"
        },
        {
          "internalType": "bytes",
          "name": "userData",
          "type": "bytes"
        },
        {
          "internalType": "bytes",
          "name": "operatorData",
          "type": "bytes"
        }
      ],
      "name": "tokensReceived",
      "outputs": [],
      "stateMutability": "nonpayable",
      "type": "function"
    },
    {
      "inputs": [],
      "name": "totalSupply",
      "outputs": [
        {
          "internalType": "uint256",
          "name": "",
          "type": "uint256"
        }
      ],
      "stateMutability": "view",
      "type": "function"
    },
    {
      "inputs": [
        {
          "internalType": "address",
          "name": "",
          "type": "address"
        },
        {
          "internalType": "uint256",
          "name": "",
          "type": "uint256"
        }
      ],
      "name": "transfer",
      "outputs": [
        {
          "internalType": "bool",
          "name": "",
          "type": "bool"
        }
      ],
      "stateMutability": "pure",
      "type": "function"
    },
    {
      "inputs": [
        {
          "internalType": "address",
          "name": "",
          "type": "address"
        },
        {
          "internalType": "address",
          "name": "",
          "type": "address"
        },
        {
          "internalType": "uint256",
          "name": "",
          "type": "uint256"
        }
      ],
      "name": "transferFrom",
      "outputs": [
        {
          "internalType": "bool",
          "name": "",
          "type": "bool"
        }
      ],
      "stateMutability": "pure",
      "type": "function"
    },
    {
      "inputs": [],
      "name": "unpause",
      "outputs": [],
      "stateMutability": "nonpayable",
      "type": "function"
    },
    {
      "inputs": [
        {
          "internalType": "address",
          "name": "recipient",
          "type": "address"
        },
        {
          "internalType": "uint256",
          "name": "amount",
          "type": "uint256"
        }
      ],
      "name": "withdrawTo",
      "outputs": [
        {
          "internalType": "bool",
          "name": "",
          "type": "bool"
        }
      ],
      "stateMutability": "nonpayable",
      "type": "function"
    }
  ],
  "bytecode": "0x608060405234801561001057600080fd5b5061499d806100206000396000f3fe608060405234801561001057600080fd5b506004361061027e5760003560e01c806366cf8bce1161015c578063a9059cbb116100ce578063e01d739311610087578063e01d7393146105df578063e63ab1e9146105f2578063fad8b32a14610607578063fc673c4f1461061a578063fe9d93031461062d578063fea914991461063b57600080fd5b8063a9059cbb14610545578063ca15c87314610558578063d547741f1461056b578063d95b63711461057e578063daa55af014610591578063dd62ed3e146105a657600080fd5b806391d148541161012057806391d14854146104e9578063959b8c3f146104fc57806395d89b411461050f5780639bd9bbc6146105175780639c3ee2441461052a578063a217fddf1461053d57600080fd5b806366cf8bce1461046757806370a082311461047a5780638456cb59146104a35780638f6c3ed4146104ab5780639010d07c146104be57600080fd5b80632f2ff15d116101f5578063485cc955116101b9578063485cc955146103e8578063521189a9146103fb578063556f0dc7146104225780635c975abb146104295780635d5012941461043457806362ad1b831461045457600080fd5b80632f2ff15d1461038b578063313ce5671461039e57806336568abe146103ad5780633f4ba83a146103c0578063458c738e146103c857600080fd5b806318160ddd1161024757806318160ddd146102fd578063205c28781461030f57806320f20ba21461032257806322cbfb611461034257806323b872dd14610355578063248a9ca31461036857600080fd5b806223de291461028357806301ffc9a71461029857806306e48538146102c057806306fdde03146102d5578063095ea7b3146102ea575b600080fd5b61029661029136600461390f565b61064e565b005b6102ab6102a63660046139bf565b6106ed565b60405190151581526020015b60405180910390f35b6102c8610718565b6040516102b79190613a2d565b6102dd61077a565b6040516102b79190613a98565b6102ab6102f8366004613aab565b610803565b6034545b6040519081526020016102b7565b6102ab61031d366004613aab565b610849565b610335610330366004613aab565b610ad6565b6040516102b79190613b23565b610296610350366004613b75565b610b55565b6102ab610363366004613be0565b610c82565b610301610376366004613c21565b600090815260c9602052604090206001015490565b610296610399366004613c3a565b610c9d565b604051601281526020016102b7565b6102966103bb366004613c3a565b610cc8565b610296610d46565b6103db6103d6366004613d47565b610d6a565b6040516102b79190613dab565b6102966103f6366004613dbe565b610e2b565b6103017fb281fc8c12954d22544db45de3159a39272895b169a852b314f9cc762e44c53b81565b6001610301565b60655460ff166102ab565b610447610442366004613dec565b6110e6565b6040516102b79190613e2d565b610296610462366004613eea565b61128a565b6102966104753660046140c0565b6112a3565b610301610488366004614184565b6001600160a01b031660009081526033602052604090205490565b610296611582565b6102966104b9366004613aab565b6115a3565b6104d16104cc3660046141a1565b6115e9565b6040516001600160a01b0390911681526020016102b7565b6102ab6104f7366004613c3a565b611601565b61029661050a366004614184565b61162c565b6102dd611640565b6102966105253660046141c3565b61164f565b610301610538366004614184565b611668565b610301600081565b6102ab610553366004613aab565b611674565b610301610566366004613c21565b61168f565b610296610579366004613c3a565b6116a6565b6102ab61058c366004613dbe565b6116cc565b61030160008051602061494883398151915281565b6103016105b4366004613dbe565b6001600160a01b039182166000908152603b6020908152604080832093909416825291909152205490565b6102966105ed36600461421b565b61176d565b61030160008051602061492883398151915281565b610296610615366004614184565b611871565b6102966106283660046142b4565b611885565b610296610628366004614333565b610301610649366004613aab565b61189e565b610161546001600160a01b0316336001600160a01b03161461068357604051634628d20b60e01b815260040160405180910390fd5b61069b60008051602061494883398151915289611601565b6106c35787604051637e76b2af60e11b81526004016106ba9190614379565b60405180910390fd5b60006106d184860186613c21565b90506106e18187878787876118e4565b50505050505050505050565b60006001600160e01b03198216635a05180f60e01b1480610712575061071282611a63565b92915050565b6060603780548060200260200160405190810160405280929190818152602001828054801561077057602002820191906000526020600020905b81546001600160a01b03168152600190910190602001808311610752575b5050505050905090565b606060358054610789906143b8565b80601f01602080910402602001604051908101604052809291908181526020018280546107b5906143b8565b80156107705780601f106107d757610100808354040283529160200191610770565b820191906000526020600020905b8154815290600101906020018083116107e557509395945050505050565b600061081160655460ff1690565b1561082e5760405162461bcd60e51b81526004016106ba906143f2565b6108388383611a98565b6108428383611ab1565b9392505050565b600061087533836040518060200160405280600081525060405180602001604052806000815250611ac9565b61016154604051634decdde360e11b81526001600160a01b03858116600483015260248201859052606060448301526000606483015290911690639bd9bbc690608401600060405180830381600087803b1580156108d257600080fd5b505af11580156108e6573d6000803e3d6000fd5b505033600090815261015f6020908152604080832080548251818502810185019093528083528896509394509092909183018282801561094557602002820191906000526020600020905b815481526020019060010190808311610931575b5050505050905060005b8151811015610a2857600061097e338484815181106109705761097061441c565b602002602001015142611c8b565b336000908152610160602052604081208551929350909182908690869081106109a9576109a961441c565b6020026020010151815260200190815260200160002090508482106109ed57848160030160008282546109dc9190614448565b9091555060009550610a2892505050565b81816003016000828254610a019190614448565b90915550610a1190508286614460565b945050508080610a2090614477565b91505061094f565b508115610a93576040516317478fc360e31b815260206004820152603260248201527f6572726f7220646973747269627574696e6720636c61696d656420616d6f756e60448201527174206163726f7373207363686564756c657360701b60648201526084016106ba565b60405184906001600160a01b0387169033907fa86305abc2db271df4609aa86a8d044bc11fb36939841bfdad6c1ab2b26e947190600090a4506001949350505050565b610ade61377c565b506001600160a01b039190911660008181526101606020908152604080832094835293815290839020835160e08101855260028201548152918201929092528154928101929092526001810154606083015260038101546080830152600581015460a08301526004015460ff16151560c082015290565b60655460ff1615610b785760405162461bcd60e51b81526004016106ba906143f2565b600080516020614948833981519152610b918133611d09565b60005b84811015610c7a576101606000878784818110610bb357610bb361441c565b9050602002016020810190610bc89190614184565b6001600160a01b03166001600160a01b031681526020019081526020016000206000858584818110610bfc57610bfc61441c565b602090810292909201358352508101919091526040016000206004015460ff16610c6857610c68868683818110610c3557610c3561441c565b9050602002016020810190610c4a9190614184565b858584818110610c5c57610c5c61441c565b90506020020135611d6d565b80610c7281614477565b915050610b94565b505050505050565b6000604051632a505d8560e21b815260040160405180910390fd5b600082815260c96020526040902060010154610cb98133611d09565b610cc38383611ed9565b505050565b6001600160a01b0381163314610d385760405162461bcd60e51b815260206004820152602f60248201527f416363657373436f6e74726f6c3a2063616e206f6e6c792072656e6f756e636560448201526e103937b632b9903337b91039b2b63360891b60648201526084016106ba565b610d428282611eed565b5050565b600080516020614928833981519152610d5f8133611d09565b610d67611f01565b50565b6060600082516001600160401b03811115610d8757610d87613c6a565b604051908082528060200260200182016040528015610db0578160200160208202803683370190505b50905060005b8351811015610e2457610df7848281518110610dd457610dd461441c565b60200260200101516001600160a01b031660009081526033602052604090205490565b828281518110610e0957610e0961441c565b6020908102919091010152610e1d81614477565b9050610db6565b5092915050565b600054610100900460ff16610e465760005460ff1615610e4a565b303b155b610ead5760405162461bcd60e51b815260206004820152602e60248201527f496e697469616c697a61626c653a20636f6e747261637420697320616c72656160448201526d191e481a5b9a5d1a585b1a5e995960921b60648201526084016106ba565b600054610100900460ff16158015610ecf576000805461ffff19166101011790555b604080516001808252818301909252600091602080830190803683370190505090503381600081518110610f0557610f0561441c565b60200260200101906001600160a01b031690816001600160a01b031681525050610f2d611f94565b610f35611f94565b610f3d611f94565b610f45611f94565b610f4d611fbd565b610f55611ff0565b610fa26040518060400160405280600d81526020016c457363726f776564204e4f524960981b81525060405180604001604052806005815260200164654e4f524960d81b8152508361203a565b61016180546001600160a01b038681166001600160a01b0319928316179092556101628054928616929091168217905560405163058740e560e31b8152306004820152632c3a072890602401600060405180830381600087803b15801561100857600080fd5b505af115801561101c573d6000803e3d6000fd5b50506040516329965a1d60e01b815230600482018190527fb281fc8c12954d22544db45de3159a39272895b169a852b314f9cc762e44c53b60248301526044820152731820a4b7618bde71dce8cdc73aab6c95905fad2492506329965a1d9150606401600060405180830381600087803b15801561109957600080fd5b505af11580156110ad573d6000803e3d6000fd5b505050506110cf6000805160206149488339815191526110ca3390565b611ed9565b508015610cc3576000805461ff0019169055505050565b60606000826001600160401b0381111561110257611102613c6a565b60405190808252806020026020018201604052801561113b57816020015b61112861377c565b8152602001906001900390816111205790505b50905060005b8381101561128257600061015f60008787858181106111625761116261441c565b90506020020160208101906111779190614184565b6001600160a01b03166001600160a01b031681526020019081526020016000208054806020026020016040519081016040528092919081815260200182805480156111e157602002820191906000526020600020905b8154815260200190600101908083116111cd575b5050505050905060005b815181101561126d5761123d8787858181106112095761120961441c565b905060200201602081019061121e9190614184565b8383815181106112305761123061441c565b6020026020010151610ad6565b84848151811061124f5761124f61441c565b6020026020010181905250808061126590614477565b9150506111eb565b5050808061127a90614477565b915050611141565b509392505050565b604051631f75e23160e01b815260040160405180910390fd5b83518551146113175760405162461bcd60e51b8152602060048201526046602482015260008051602061490883398151915260448201527f3a20726563697069656e7420616e6420616d6f756e74206c656e677468206d696064820152650e6dac2e8c6d60d31b608482015260a4016106ba565b825184511461138b5760405162461bcd60e51b8152602060048201526046602482015260008051602061490883398151915260448201527f3a20616d6f756e747320616e64207573657244617461206c656e677468206d696064820152650e6dac2e8c6d60d31b608482015260a4016106ba565b81518351146114045760405162461bcd60e51b815260206004820152604b602482015260008051602061490883398151915260448201527f3a20757365724461746120616e64206f70657261746f7244617461206c656e6760648201526a0e8d040dad2e6dac2e8c6d60ab1b608482015260a4016106ba565b80518251146114885760405162461bcd60e51b8152602060048201526056602482015260008051602061490883398151915260448201527f3a206f70657261746f724461746120616e6420726571756972655265636570746064820152750d2dedc82c6d640d8cadccee8d040dad2e6dac2e8c6d60531b608482015260a4016106ba565b60005b85518110156115315761151f338783815181106114aa576114aa61441c565b60200260200101518784815181106114c4576114c461441c565b60200260200101518785815181106114de576114de61441c565b60200260200101518786815181106114f8576114f861441c565b60200260200101518787815181106115125761151261441c565b602002602001015161222d565b8061152981614477565b91505061148b565b50336001600160a01b03167fd5865ae34f92a2d6a803fa13140b8165046f54e61e68560b26950c62a668c6b686868686866040516115739594939291906144e8565b60405180910390a25050505050565b60008051602061492883398151915261159b8133611d09565b610d67612310565b60655460ff16156115c65760405162461bcd60e51b81526004016106ba906143f2565b6000805160206149488339815191526115df8133611d09565b610cc38383611d6d565b600082815260fb602052604081206108429083612368565b600091825260c9602090815260408084206001600160a01b0393909316845291905290205460ff1690565b611637816000611a98565b610d6781612374565b606060368054610789906143b8565b6040516353de343d60e01b815260040160405180910390fd5b60006107128242612491565b600060405163a24e573d60e01b815260040160405180910390fd5b600081815260fb60205260408120610712906125d1565b600082815260c960205260409020600101546116c28133611d09565b610cc38383611eed565b6000816001600160a01b0316836001600160a01b0316148061173757506001600160a01b03831660009081526038602052604090205460ff16801561173757506001600160a01b038083166000908152603a602090815260408083209387168352929052205460ff16155b806108425750506001600160a01b0390811660009081526039602090815260408083209490931682529290925290205460ff1690565b60655460ff16156117905760405162461bcd60e51b81526004016106ba906143f2565b6000805160206149488339815191526117a98133611d09565b8584146117c95760405163616c411360e01b81526004016106ba9061457d565b8582146117e95760405163616c411360e01b81526004016106ba906145d2565b60005b86811015611867576118558888838181106118095761180961441c565b905060200201602081019061181e9190614184565b8787848181106118305761183061441c565b905060200201358686858181106118495761184961441c565b905060200201356125db565b8061185f81614477565b9150506117ec565b5050505050505050565b61187c816000611a98565b610d6781612875565b60405163fd647c0960e01b815260040160405180910390fd5b6001600160a01b03821660009081526101606020908152604080832084845290915281206118cd848442612990565b81600201546118dc9190614460565b949350505050565b6000806118f0886129cb565b61016254604051637932417b60e01b8152600481018b90529192506000916001600160a01b0390911690637932417b90602401602060405180830381865afa158015611940573d6000803e3d6000fd5b505050506040513d601f19601f820116820180604052508101906119649190614624565b6001600160a01b03831660009081526101606020908152604080832084845290915290206004015490915060ff166119a0576119a08282611d6d565b611a15828989898080601f01602080910402602001604051908101604052809392919081815260200183838082843760009201919091525050604080516020601f8d018190048102820181019092528b815292508b91508a90819084018382808284376000920191909152506129da92505050565b6001600160a01b038216600090815261016060209081526040808320848452909152812060028101805491928b92611a4e908490614448565b9091555060019b9a5050505050505050505050565b60006001600160e01b03198216637965db0b60e01b148061071257506301ffc9a760e01b6001600160e01b0319831614610712565b6040516323d8059360e01b815260040160405180910390fd5b600033611abf8185856129ee565b5060019392505050565b6001600160a01b038416611b2a5760405162461bcd60e51b815260206004820152602260248201527f4552433737373a206275726e2066726f6d20746865207a65726f206164647265604482015261737360f01b60648201526084016106ba565b33611b3a81866000878787612b15565b611b478186600087612c3c565b6001600160a01b03851660009081526033602052604090205484811015611bbc5760405162461bcd60e51b815260206004820152602360248201527f4552433737373a206275726e20616d6f756e7420657863656564732062616c616044820152626e636560e81b60648201526084016106ba565b6001600160a01b0386166000908152603360205260408120868303905560348054879290611beb908490614460565b92505081905550856001600160a01b0316826001600160a01b03167fa78a9be3a7b862d26933ad85fb11d80ef66b8f972d7cbba06621d583943a4098878787604051611c399392919061463d565b60405180910390a36040518581526000906001600160a01b038816907fddf252ad1be2c89b69c2b068fc378daa952ba7f163c4a11628f55a4df523b3ef906020015b60405180910390a3505050505050565b6001600160a01b0383166000908152610160602090815260408083208584529091528120600481015460ff16611ce6576040516307fd0dbd60e41b81526001600160a01b0386166004820152602481018590526044016106ba565b8060030154611cf6868686612990565b611d009190614460565b95945050505050565b611d138282611601565b610d4257611d2b816001600160a01b03166014612d34565b611d36836020612d34565b604051602001611d47929190614672565b60408051601f198184030181529082905262461bcd60e51b82526106ba91600401613a98565b6001600160a01b038216611d9457604051636c38382960e11b815260040160405180910390fd5b611dac60008051602061494883398151915283611601565b15611dcc5781604051632486d30560e11b81526004016106ba9190614379565b6001600160a01b03821660009081526101606020908152604080832084845290915290206004015460ff1615611e275760405163351b58fb60e11b81526001600160a01b0383166004820152602481018290526044016106ba565b6001600160a01b038216600081815261016060209081526040808320858452825280832093835261015f82528220805460018181018355918452918320909101849055600283019190915560048201805460ff19169091179055818155611e926301e1855883614448565b600182015560006006820181905560405183916001600160a01b038616917fd641cfd4b889fc948e0f80af82a826ca771d2bd20a589526e89d73bc07d6b8b39190a3505050565b611ee38282612ecf565b610d428282612f28565b611ef78282612ecf565b610d428282612f4a565b60655460ff16611f4a5760405162461bcd60e51b815260206004820152601460248201527314185d5cd8589b194e881b9bdd081c185d5cd95960621b60448201526064016106ba565b6065805460ff191690557f5db9ee0a495bf2e6ff9c91a7834c1ba4fdd244a5e8aa4e537bd38aeae4b073aa335b6040516001600160a01b03909116815260200160405180910390a1565b600054610100900460ff16611fbb5760405162461bcd60e51b81526004016106ba906146e7565b565b600054610100900460ff16611fe45760405162461bcd60e51b81526004016106ba906146e7565b6065805460ff19169055565b600054610100900460ff166120175760405162461bcd60e51b81526004016106ba906146e7565b612022600033611ed9565b611fbb60008051602061492883398151915233611ed9565b600054610100900460ff166120615760405162461bcd60e51b81526004016106ba906146e7565b82516120749060359060208601906137c4565b5081516120889060369060208501906137c4565b50805161209c906037906020840190613848565b5060005b8151811015612105576001603860008484815181106120c1576120c161441c565b6020908102919091018101516001600160a01b03168252810191909152604001600020805460ff1916911515919091179055806120fd81614477565b9150506120a0565b506040516329965a1d60e01b815230600482018190527fac7fbab5f54a3ca8194167523c6753bfeb96a445279294b6125b68cce217705460248301526044820152731820a4b7618bde71dce8cdc73aab6c95905fad24906329965a1d90606401600060405180830381600087803b15801561217f57600080fd5b505af1158015612193573d6000803e3d6000fd5b50506040516329965a1d60e01b815230600482018190527faea199e31a596269b42cdafd93407f14436db6e4cad65417994c2eb37381e05a60248301526044820152731820a4b7618bde71dce8cdc73aab6c95905fad2492506329965a1d9150606401600060405180830381600087803b15801561221057600080fd5b505af1158015612224573d6000803e3d6000fd5b50505050505050565b6001600160a01b03861661228e5760405162461bcd60e51b815260206004820152602260248201527f4552433737373a2073656e642066726f6d20746865207a65726f206164647265604482015261737360f01b60648201526084016106ba565b6001600160a01b0385166122e45760405162461bcd60e51b815260206004820181905260248201527f4552433737373a2073656e6420746f20746865207a65726f206164647265737360448201526064016106ba565b336122f3818888888888612b15565b612301818888888888612f6c565b612224818888888888886130de565b60655460ff16156123335760405162461bcd60e51b81526004016106ba906143f2565b6065805460ff191660011790557f62e78cea01bee320cd4e420270b5ea74000d11b0c9f74754ebdbfc544b05a258611f773390565b60006108428383613299565b6001600160a01b03811633036123d85760405162461bcd60e51b8152602060048201526024808201527f4552433737373a20617574686f72697a696e672073656c66206173206f70657260448201526330ba37b960e11b60648201526084016106ba565b6001600160a01b03811660009081526038602052604090205460ff161561242957336000908152603a602090815260408083206001600160a01b03851684529091529020805460ff19169055612458565b3360009081526039602090815260408083206001600160a01b03851684529091529020805460ff191660011790555b60405133906001600160a01b038316907ff4caeb2d6ca8932a215a353d0703c326ec2d81fc68170f320eb2ab49e9df61f990600090a350565b6040516370a0823160e01b81526001600160a01b0383166004820152600090819030906370a0823190602401602060405180830381865afa1580156124da573d6000803e3d6000fd5b505050506040513d601f19601f820116820180604052508101906124fe9190614624565b6001600160a01b038516600090815261015f60209081526040808320805482518185028101850190935280835294955092938493919283018282801561256357602002820191906000526020600020905b81548152602001906001019080831161254f575b505050505090506000815111156125c75760005b81518110156125c2576125a4878383815181106125965761259661441c565b602002602001015188611c8b565b6125ae9084614448565b9250806125ba81614477565b915050612577565b508192505b5090949350505050565b6000610712825490565b60006125e6836129cb565b61016254604051637932417b60e01b8152600481018690529192506000916001600160a01b0390911690637932417b90602401602060405180830381865afa158015612636573d6000803e3d6000fd5b505050506040513d601f19601f8201168201806040525081019061265a9190614624565b6001600160a01b038316600090815261016060209081526040808320848452909152902060048101549192509060ff166126b9576040516307fd0dbd60e41b81526001600160a01b0384166004820152602481018390526044016106ba565b60006126c6848442612990565b9050816002015481106126fe576040516329b9470560e01b81526001600160a01b0385166004820152602481018490526044016106ba565b6000851561274957612710858561189e565b8611156127425760405163a6be504b60e01b81526001600160a01b0386166004820152602481018590526044016106ba565b5084612756565b612753858561189e565b90505b8083600201546127669190614460565b600284015560068301829055600583018054829190600090612789908490614448565b925050819055506127ba85826040518060200160405280600081525060405180602001604052806000815250611ac9565b61016154604051634decdde360e11b81526001600160a01b038a8116600483015260248201849052606060448301526000606483015290911690639bd9bbc690608401600060405180830381600087803b15801561281757600080fd5b505af115801561282b573d6000803e3d6000fd5b505050508387427f1c88d66daca38f6d7ea17e24dd97402f816c3970f697a9144270c923082bccb08460405161286391815260200190565b60405180910390a45050505050505050565b336001600160a01b038216036128d75760405162461bcd60e51b815260206004820152602160248201527f4552433737373a207265766f6b696e672073656c66206173206f70657261746f6044820152603960f91b60648201526084016106ba565b6001600160a01b03811660009081526038602052604090205460ff161561292b57336000908152603a602090815260408083206001600160a01b03851684529091529020805460ff19166001179055612957565b3360009081526039602090815260408083206001600160a01b03851684529091529020805460ff191690555b60405133906001600160a01b038316907f50546e66e5f44d728365dc3908c63bc5cfeeab470722c1677e3073a6ac294aa190600090a350565b6001600160a01b0383166000908152610160602090815260408083208584529091528120611d006129c182856132c3565b826006015461332f565b60006107128260146004613346565b6129e8848484846001613392565b50505050565b6001600160a01b038316612a525760405162461bcd60e51b815260206004820152602560248201527f4552433737373a20617070726f76652066726f6d20746865207a65726f206164604482015264647265737360d81b60648201526084016106ba565b6001600160a01b038216612ab45760405162461bcd60e51b815260206004820152602360248201527f4552433737373a20617070726f766520746f20746865207a65726f206164647260448201526265737360e81b60648201526084016106ba565b6001600160a01b038381166000818152603b602090815260408083209487168084529482529182902085905590518481527f8c5be1e5ebec7d5bd14f71427d1e84f3dd0314c0f7b2291e5b200ac8c7c3b925910160405180910390a3505050565b60405163555ddc6560e11b81526001600160a01b03861660048201527f29ddb589b1fb5fc7cf394961c1adf5f8c6454761adf795e67fe149f658abe8956024820152600090731820a4b7618bde71dce8cdc73aab6c95905fad249063aabbb8ca90604401602060405180830381865afa158015612b96573d6000803e3d6000fd5b505050506040513d601f19601f82011682018060405250810190612bba9190614732565b90506001600160a01b0381161561222457604051633ad5cbc160e11b81526001600160a01b038216906375ab978290612c01908a908a908a908a908a908a9060040161474f565b600060405180830381600087803b158015612c1b57600080fd5b505af1158015612c2f573d6000803e3d6000fd5b5050505050505050505050565b6001600160a01b0383811615908316156000612c6660008051602061494883398151915288611601565b90506001600160a01b0387811690871614156000612c8388611668565b8611159050838015612c925750815b8015612c9b5750825b15612cef5785612cc0896001600160a01b031660009081526033602052604090205490565b1015612cea5760405163112fed8b60e31b81526001600160a01b03891660048201526024016106ba565b612d1d565b84612d1d5780612d1d5760405163112fed8b60e31b81526001600160a01b03891660048201526024016106ba565b612d29898989896134d8565b505050505050505050565b60606000612d438360026147a9565b612d4e906002614448565b6001600160401b03811115612d6557612d65613c6a565b6040519080825280601f01601f191660200182016040528015612d8f576020820181803683370190505b509050600360fc1b81600081518110612daa57612daa61441c565b60200101906001600160f81b031916908160001a905350600f60fb1b81600181518110612dd957612dd961441c565b60200101906001600160f81b031916908160001a9053506000612dfd8460026147a9565b612e08906001614448565b90505b6001811115612e80576f181899199a1a9b1b9c1cb0b131b232b360811b85600f1660108110612e3c57612e3c61441c565b1a60f81b828281518110612e5257612e5261441c565b60200101906001600160f81b031916908160001a90535060049490941c93612e79816147c8565b9050612e0b565b5083156108425760405162461bcd60e51b815260206004820181905260248201527f537472696e67733a20686578206c656e67746820696e73756666696369656e7460448201526064016106ba565b612ed98282613500565b6000805160206149488339815191528203610d42576001600160a01b038116600090815261015f602052604090205415610d42578060405163df03622360e01b81526004016106ba9190614379565b612f328282613523565b600082815260fb60205260409020610cc390826135a9565b612f5482826135be565b600082815260fb60205260409020610cc39082613625565b612f7886868686612c3c565b6001600160a01b03851660009081526033602052604090205483811015612ff15760405162461bcd60e51b815260206004820152602760248201527f4552433737373a207472616e7366657220616d6f756e7420657863656564732060448201526662616c616e636560c81b60648201526084016106ba565b6001600160a01b03808716600090815260336020526040808220878503905591871681529081208054869290613028908490614448565b92505081905550846001600160a01b0316866001600160a01b0316886001600160a01b03167f06b541ddaa720db2b10a4d0cdac39b8d360425fc073085fac19bc826146779878787876040516130809392919061463d565b60405180910390a4846001600160a01b0316866001600160a01b03167fddf252ad1be2c89b69c2b068fc378daa952ba7f163c4a11628f55a4df523b3ef866040516130cd91815260200190565b60405180910390a350505050505050565b60405163555ddc6560e11b81526001600160a01b03861660048201527fb281fc8c12954d22544db45de3159a39272895b169a852b314f9cc762e44c53b6024820152600090731820a4b7618bde71dce8cdc73aab6c95905fad249063aabbb8ca90604401602060405180830381865afa15801561315f573d6000803e3d6000fd5b505050506040513d601f19601f820116820180604052508101906131839190614732565b90506001600160a01b038116156131ff576040516223de2960e01b81526001600160a01b038216906223de29906131c8908b908b908b908b908b908b9060040161474f565b600060405180830381600087803b1580156131e257600080fd5b505af11580156131f6573d6000803e3d6000fd5b50505050611867565b8115611867576001600160a01b0386163b156118675760405162461bcd60e51b815260206004820152604d60248201527f4552433737373a20746f6b656e20726563697069656e7420636f6e747261637460448201527f20686173206e6f20696d706c656d656e74657220666f7220455243373737546f60648201526c1ad95b9cd49958da5c1a595b9d609a1b608482015260a4016106ba565b60008260000182815481106132b0576132b061441c565b9060005260206000200154905092915050565b6000826001015482106132db57506002820154610712565b825460018401546000916132ee91614460565b8454909150831061332557835481906133079085614460565b856002015461331691906147a9565b61332091906147df565b6118dc565b5060009392505050565b60008183101561333f5781610842565b5090919050565b6000806133546008846147a9565b60016133616008876147a9565b61336c9060026148e5565b6133769190614460565b901b90508481166133886008856147a9565b1c95945050505050565b6001600160a01b0385166133e85760405162461bcd60e51b815260206004820181905260248201527f4552433737373a206d696e7420746f20746865207a65726f206164647265737360448201526064016106ba565b336133f68160008888612c3c565b84603460008282546134089190614448565b90915550506001600160a01b03861660009081526033602052604081208054879290613435908490614448565b9091555061344b905081600088888888886130de565b856001600160a01b0316816001600160a01b03167f2fe5be0146f74c5bce36c0b80911af6c7d86ff27e89d5cfa61fc681327954e5d8787876040516134929392919061463d565b60405180910390a36040518581526001600160a01b038716906000907fddf252ad1be2c89b69c2b068fc378daa952ba7f163c4a11628f55a4df523b3ef90602001611c7b565b60655460ff16156134fb5760405162461bcd60e51b81526004016106ba906143f2565b6129e8565b60655460ff1615610d425760405162461bcd60e51b81526004016106ba906143f2565b61352d8282611601565b610d4257600082815260c9602090815260408083206001600160a01b03851684529091529020805460ff191660011790556135653390565b6001600160a01b0316816001600160a01b0316837f2f8788117e7eff1d82e926ec794901d17c78024a50270940304540a733656f0d60405160405180910390a45050565b6000610842836001600160a01b03841661363a565b6135c88282611601565b15610d4257600082815260c9602090815260408083206001600160a01b0385168085529252808320805460ff1916905551339285917ff6391f5c32d9c69d2a47ea670b442974b53935d1edc7fd64eb21e047a839171b9190a45050565b6000610842836001600160a01b038416613689565b600081815260018301602052604081205461368157508154600181810184556000848152602080822090930184905584548482528286019093526040902091909155610712565b506000610712565b600081815260018301602052604081205480156137725760006136ad600183614460565b85549091506000906136c190600190614460565b90508181146137265760008660000182815481106136e1576136e161441c565b90600052602060002001549050808760000184815481106137045761370461441c565b6000918252602080832090910192909255918252600188019052604090208390555b8554869080613737576137376148f1565b600190038181906000526020600020016000905590558560010160008681526020019081526020016000206000905560019350505050610712565b6000915050610712565b6040518060e001604052806000815260200160006001600160a01b03168152602001600081526020016000815260200160008152602001600081526020016000151581525090565b8280546137d0906143b8565b90600052602060002090601f0160209004810192826137f25760008555613838565b82601f1061380b57805160ff1916838001178555613838565b82800160010185558215613838579182015b8281111561383857825182559160200191906001019061381d565b5061384492915061389d565b5090565b828054828255906000526020600020908101928215613838579160200282015b8281111561383857825182546001600160a01b0319166001600160a01b03909116178255602090920191600190910190613868565b5b80821115613844576000815560010161389e565b6001600160a01b0381168114610d6757600080fd5b60008083601f8401126138d957600080fd5b5081356001600160401b038111156138f057600080fd5b60208301915083602082850101111561390857600080fd5b9250929050565b60008060008060008060008060c0898b03121561392b57600080fd5b8835613936816138b2565b97506020890135613946816138b2565b96506040890135613956816138b2565b95506060890135945060808901356001600160401b038082111561397957600080fd5b6139858c838d016138c7565b909650945060a08b013591508082111561399e57600080fd5b506139ab8b828c016138c7565b999c989b5096995094979396929594505050565b6000602082840312156139d157600080fd5b81356001600160e01b03198116811461084257600080fd5b600081518084526020808501945080840160005b83811015613a225781516001600160a01b0316875295820195908201906001016139fd565b509495945050505050565b60208152600061084260208301846139e9565b60005b83811015613a5b578181015183820152602001613a43565b838111156129e85750506000910152565b60008151808452613a84816020860160208601613a40565b601f01601f19169290920160200192915050565b6020815260006108426020830184613a6c565b60008060408385031215613abe57600080fd5b8235613ac9816138b2565b946020939093013593505050565b805182526020808201516001600160a01b03169083015260408082015190830152606080820151908301526080808201519083015260a0808201519083015260c0908101511515910152565b60e081016107128284613ad7565b60008083601f840112613b4357600080fd5b5081356001600160401b03811115613b5a57600080fd5b6020830191508360208260051b850101111561390857600080fd5b60008060008060408587031215613b8b57600080fd5b84356001600160401b0380821115613ba257600080fd5b613bae88838901613b31565b90965094506020870135915080821115613bc757600080fd5b50613bd487828801613b31565b95989497509550505050565b600080600060608486031215613bf557600080fd5b8335613c00816138b2565b92506020840135613c10816138b2565b929592945050506040919091013590565b600060208284031215613c3357600080fd5b5035919050565b60008060408385031215613c4d57600080fd5b823591506020830135613c5f816138b2565b809150509250929050565b634e487b7160e01b600052604160045260246000fd5b604051601f8201601f191681016001600160401b0381118282101715613ca857613ca8613c6a565b604052919050565b60006001600160401b03821115613cc957613cc9613c6a565b5060051b60200190565b600082601f830112613ce457600080fd5b81356020613cf9613cf483613cb0565b613c80565b82815260059290921b84018101918181019086841115613d1857600080fd5b8286015b84811015613d3c578035613d2f816138b2565b8352918301918301613d1c565b509695505050505050565b600060208284031215613d5957600080fd5b81356001600160401b03811115613d6f57600080fd5b6118dc84828501613cd3565b600081518084526020808501945080840160005b83811015613a2257815187529582019590820190600101613d8f565b6020815260006108426020830184613d7b565b60008060408385031215613dd157600080fd5b8235613ddc816138b2565b91506020830135613c5f816138b2565b60008060208385031215613dff57600080fd5b82356001600160401b03811115613e1557600080fd5b613e2185828601613b31565b90969095509350505050565b6020808252825182820181905260009190848201906040850190845b81811015613e6f57613e5c838551613ad7565b9284019260e09290920191600101613e49565b50909695505050505050565b600082601f830112613e8c57600080fd5b81356001600160401b03811115613ea557613ea5613c6a565b613eb8601f8201601f1916602001613c80565b818152846020838601011115613ecd57600080fd5b816020850160208301376000918101602001919091529392505050565b600080600080600060a08688031215613f0257600080fd5b8535613f0d816138b2565b94506020860135613f1d816138b2565b93506040860135925060608601356001600160401b0380821115613f4057600080fd5b613f4c89838a01613e7b565b93506080880135915080821115613f6257600080fd5b50613f6f88828901613e7b565b9150509295509295909350565b600082601f830112613f8d57600080fd5b81356020613f9d613cf483613cb0565b82815260059290921b84018101918181019086841115613fbc57600080fd5b8286015b84811015613d3c5780358352918301918301613fc0565b600082601f830112613fe857600080fd5b81356020613ff8613cf483613cb0565b82815260059290921b8401810191818101908684111561401757600080fd5b8286015b84811015613d3c5780356001600160401b0381111561403a5760008081fd5b6140488986838b0101613e7b565b84525091830191830161401b565b600082601f83011261406757600080fd5b81356020614077613cf483613cb0565b82815260059290921b8401810191818101908684111561409657600080fd5b8286015b84811015613d3c57803580151581146140b35760008081fd5b835291830191830161409a565b600080600080600060a086880312156140d857600080fd5b85356001600160401b03808211156140ef57600080fd5b6140fb89838a01613cd3565b9650602088013591508082111561411157600080fd5b61411d89838a01613f7c565b9550604088013591508082111561413357600080fd5b61413f89838a01613fd7565b9450606088013591508082111561415557600080fd5b61416189838a01613fd7565b9350608088013591508082111561417757600080fd5b50613f6f88828901614056565b60006020828403121561419657600080fd5b8135610842816138b2565b600080604083850312156141b457600080fd5b50508035926020909101359150565b6000806000606084860312156141d857600080fd5b83356141e3816138b2565b92506020840135915060408401356001600160401b0381111561420557600080fd5b61421186828701613e7b565b9150509250925092565b6000806000806000806060878903121561423457600080fd5b86356001600160401b038082111561424b57600080fd5b6142578a838b01613b31565b9098509650602089013591508082111561427057600080fd5b61427c8a838b01613b31565b9096509450604089013591508082111561429557600080fd5b506142a289828a01613b31565b979a9699509497509295939492505050565b600080600080608085870312156142ca57600080fd5b84356142d5816138b2565b93506020850135925060408501356001600160401b03808211156142f857600080fd5b61430488838901613e7b565b9350606087013591508082111561431a57600080fd5b5061432787828801613e7b565b91505092959194509250565b6000806040838503121561434657600080fd5b8235915060208301356001600160401b0381111561436357600080fd5b61436f85828601613e7b565b9150509250929050565b6001600160a01b0391909116815260406020820181905260139082015272455343524f575f43524541544f525f524f4c4560681b606082015260800190565b600181811c908216806143cc57607f821691505b6020821081036143ec57634e487b7160e01b600052602260045260246000fd5b50919050565b60208082526010908201526f14185d5cd8589b194e881c185d5cd95960821b604082015260600190565b634e487b7160e01b600052603260045260246000fd5b634e487b7160e01b600052601160045260246000fd5b6000821982111561445b5761445b614432565b500190565b60008282101561447257614472614432565b500390565b60006001820161448957614489614432565b5060010190565b600082825180855260208086019550808260051b84010181860160005b848110156144db57601f198684030189526144c9838351613a6c565b988401989250908301906001016144ad565b5090979650505050505050565b60a0815260006144fb60a08301886139e9565b60208382038185015261450e8289613d7b565b915083820360408501526145228288614490565b915083820360608501526145368287614490565b8481036080860152855180825282870193509082019060005b8181101561456d57845115158352938301939183019160010161454f565b50909a9950505050505050505050565b6040815260006145a960408301600c81526b66726f6d4163636f756e747360a01b602082015260400190565b828103602093840152600a81526972656d6f76616c49647360b01b928101929092525060400190565b6040815260006145fe60408301600c81526b66726f6d4163636f756e747360a01b602082015260400190565b8281036020938401526007815266616d6f756e747360c81b928101929092525060400190565b60006020828403121561463657600080fd5b5051919050565b8381526060602082015260006146566060830185613a6c565b82810360408401526146688185613a6c565b9695505050505050565b7f416363657373436f6e74726f6c3a206163636f756e74200000000000000000008152600083516146aa816017850160208801613a40565b7001034b99036b4b9b9b4b733903937b6329607d1b60179184019182015283516146db816028840160208801613a40565b01602801949350505050565b6020808252602b908201527f496e697469616c697a61626c653a20636f6e7472616374206973206e6f74206960408201526a6e697469616c697a696e6760a81b606082015260800190565b60006020828403121561474457600080fd5b8151610842816138b2565b6001600160a01b0387811682528681166020830152851660408201526060810184905260c06080820181905260009061478a90830185613a6c565b82810360a084015261479c8185613a6c565b9998505050505050505050565b60008160001904831182151516156147c3576147c3614432565b500290565b6000816147d7576147d7614432565b506000190190565b6000826147fc57634e487b7160e01b600052601260045260246000fd5b500490565b600181815b8085111561483c57816000190482111561482257614822614432565b8085161561482f57918102915b93841c9390800290614806565b509250929050565b60008261485357506001610712565b8161486057506000610712565b816001811461487657600281146148805761489c565b6001915050610712565b60ff84111561489157614891614432565b50506001821b610712565b5060208310610133831016604e8410600b84101617156148bf575081810a610712565b6148c98383614801565b80600019048211156148dd576148dd614432565b029392505050565b60006108428383614844565b634e487b7160e01b600052603160045260246000fdfe4552433737375072657365745061757361626c655065726d697373696f6e656465d7a28e3265b37a6474929f336521b332c1681b933f6cb9f3376673440d862a02001401bd80c60ccf68a3f1bc912957d6b932fa109a68b27dee5bdb776acfc6a2646970667358221220d212e0c6de6ad15c52c1873471a9a372cf6a586e986b0c872ffa2c88f1caaa3564736f6c634300080d0033",
  "linkReferences": {},
  "deployedLinkReferences": {}
}