{
  "_format": "hh-sol-artifact-1",
  "contractName": "EscrowedNORI",
  "sourceName": "contracts/EscrowedNORI.sol",
  "abi": [
    {
      "inputs": [
        {
          "internalType": "uint256",
          "name": "scheduleId",
          "type": "uint256"
        }
      ],
      "name": "AllTokensAlreadyReleased",
      "type": "error"
    },
    {
      "inputs": [
        {
          "internalType": "string",
          "name": "array1Name",
          "type": "string"
        },
        {
          "internalType": "string",
          "name": "array2Name",
          "type": "string"
        }
      ],
      "name": "ArrayLengthMismatch",
      "type": "error"
    },
    {
      "inputs": [],
      "name": "BurningNotSupported",
      "type": "error"
    },
    {
      "inputs": [
        {
          "internalType": "uint256",
          "name": "removalId",
          "type": "uint256"
        }
      ],
      "name": "EscrowDurationNotSet",
      "type": "error"
    },
    {
      "inputs": [
        {
          "internalType": "uint256",
          "name": "scheduleTokenId",
          "type": "uint256"
        },
        {
          "internalType": "uint256",
          "name": "removalIdTriggeredCreation",
          "type": "uint256"
        }
      ],
      "name": "EscrowScheduleExists",
      "type": "error"
    },
    {
      "inputs": [
        {
          "internalType": "address",
          "name": "account",
          "type": "address"
        },
        {
          "internalType": "uint256",
          "name": "scheduleId",
          "type": "uint256"
        }
      ],
      "name": "InsufficientBalance",
      "type": "error"
    },
    {
      "inputs": [
        {
          "internalType": "uint256",
          "name": "scheduleId",
          "type": "uint256"
        }
      ],
      "name": "InsufficientUnreleasedTokens",
      "type": "error"
    },
    {
      "inputs": [
        {
          "internalType": "uint256",
          "name": "scheduleId",
          "type": "uint256"
        }
      ],
      "name": "NonexistentEscrowSchedule",
      "type": "error"
    },
    {
      "inputs": [],
      "name": "OperatorActionsNotSupported",
      "type": "error"
    },
    {
      "inputs": [],
      "name": "RecipientCannotBeZeroAddress",
      "type": "error"
    },
    {
      "inputs": [
        {
          "internalType": "address",
          "name": "recipient",
          "type": "address"
        },
        {
          "internalType": "string",
          "name": "role",
          "type": "string"
        }
      ],
      "name": "RecipientCannotHaveRole",
      "type": "error"
    },
    {
      "inputs": [
        {
          "internalType": "address",
          "name": "account",
          "type": "address"
        },
        {
          "internalType": "string",
          "name": "role",
          "type": "string"
        }
      ],
      "name": "RoleCannotTransfer",
      "type": "error"
    },
    {
      "inputs": [
        {
          "internalType": "address",
          "name": "account",
          "type": "address"
        },
        {
          "internalType": "string",
          "name": "role",
          "type": "string"
        }
      ],
      "name": "RoleUnassignableToEscrowScheduleHolder",
      "type": "error"
    },
    {
      "inputs": [],
      "name": "TokenSenderNotBPNORI",
      "type": "error"
    },
    {
      "anonymous": false,
      "inputs": [
        {
          "indexed": true,
          "internalType": "address",
          "name": "account",
          "type": "address"
        },
        {
          "indexed": true,
          "internalType": "address",
          "name": "operator",
          "type": "address"
        },
        {
          "indexed": false,
          "internalType": "bool",
          "name": "approved",
          "type": "bool"
        }
      ],
      "name": "ApprovalForAll",
      "type": "event"
    },
    {
      "anonymous": false,
      "inputs": [
        {
          "indexed": true,
          "internalType": "uint256",
          "name": "scheduleId",
          "type": "uint256"
        },
        {
          "indexed": true,
          "internalType": "uint256",
          "name": "removalIdTriggeredCreation",
          "type": "uint256"
        }
      ],
      "name": "EscrowScheduleCreated",
      "type": "event"
    },
    {
      "anonymous": false,
      "inputs": [
        {
          "indexed": false,
          "internalType": "address",
          "name": "account",
          "type": "address"
        }
      ],
      "name": "Paused",
      "type": "event"
    },
    {
      "anonymous": false,
      "inputs": [
        {
          "indexed": true,
          "internalType": "bytes32",
          "name": "role",
          "type": "bytes32"
        },
        {
          "indexed": true,
          "internalType": "bytes32",
          "name": "previousAdminRole",
          "type": "bytes32"
        },
        {
          "indexed": true,
          "internalType": "bytes32",
          "name": "newAdminRole",
          "type": "bytes32"
        }
      ],
      "name": "RoleAdminChanged",
      "type": "event"
    },
    {
      "anonymous": false,
      "inputs": [
        {
          "indexed": true,
          "internalType": "bytes32",
          "name": "role",
          "type": "bytes32"
        },
        {
          "indexed": true,
          "internalType": "address",
          "name": "account",
          "type": "address"
        },
        {
          "indexed": true,
          "internalType": "address",
          "name": "sender",
          "type": "address"
        }
      ],
      "name": "RoleGranted",
      "type": "event"
    },
    {
      "anonymous": false,
      "inputs": [
        {
          "indexed": true,
          "internalType": "bytes32",
          "name": "role",
          "type": "bytes32"
        },
        {
          "indexed": true,
          "internalType": "address",
          "name": "account",
          "type": "address"
        },
        {
          "indexed": true,
          "internalType": "address",
          "name": "sender",
          "type": "address"
        }
      ],
      "name": "RoleRevoked",
      "type": "event"
    },
    {
      "anonymous": false,
      "inputs": [
        {
          "indexed": true,
          "internalType": "address",
          "name": "from",
          "type": "address"
        },
        {
          "indexed": true,
          "internalType": "address",
          "name": "to",
          "type": "address"
        },
        {
          "indexed": true,
          "internalType": "uint256",
          "name": "scheduleId",
          "type": "uint256"
        },
        {
          "indexed": false,
          "internalType": "uint256",
          "name": "quantity",
          "type": "uint256"
        }
      ],
      "name": "TokensClaimed",
      "type": "event"
    },
    {
      "anonymous": false,
      "inputs": [
        {
          "indexed": true,
          "internalType": "address",
          "name": "operator",
          "type": "address"
        },
        {
          "indexed": true,
          "internalType": "address",
          "name": "from",
          "type": "address"
        },
        {
          "indexed": true,
          "internalType": "address",
          "name": "to",
          "type": "address"
        },
        {
          "indexed": false,
          "internalType": "uint256[]",
          "name": "ids",
          "type": "uint256[]"
        },
        {
          "indexed": false,
          "internalType": "uint256[]",
          "name": "values",
          "type": "uint256[]"
        }
      ],
      "name": "TransferBatch",
      "type": "event"
    },
    {
      "anonymous": false,
      "inputs": [
        {
          "indexed": true,
          "internalType": "address",
          "name": "operator",
          "type": "address"
        },
        {
          "indexed": true,
          "internalType": "address",
          "name": "from",
          "type": "address"
        },
        {
          "indexed": true,
          "internalType": "address",
          "name": "to",
          "type": "address"
        },
        {
          "indexed": false,
          "internalType": "uint256",
          "name": "id",
          "type": "uint256"
        },
        {
          "indexed": false,
          "internalType": "uint256",
          "name": "value",
          "type": "uint256"
        }
      ],
      "name": "TransferSingle",
      "type": "event"
    },
    {
      "anonymous": false,
      "inputs": [
        {
          "indexed": false,
          "internalType": "string",
          "name": "value",
          "type": "string"
        },
        {
          "indexed": true,
          "internalType": "uint256",
          "name": "id",
          "type": "uint256"
        }
      ],
      "name": "URI",
      "type": "event"
    },
    {
      "anonymous": false,
      "inputs": [
        {
          "indexed": false,
          "internalType": "address",
          "name": "account",
          "type": "address"
        }
      ],
      "name": "Unpaused",
      "type": "event"
    },
    {
      "anonymous": false,
      "inputs": [
        {
          "indexed": true,
          "internalType": "uint256",
          "name": "atTime",
          "type": "uint256"
        },
        {
          "indexed": true,
          "internalType": "uint256",
          "name": "removalId",
          "type": "uint256"
        },
        {
          "indexed": true,
          "internalType": "uint256",
          "name": "scheduleId",
          "type": "uint256"
        },
        {
          "indexed": false,
          "internalType": "uint256",
          "name": "quantity",
          "type": "uint256"
        }
      ],
      "name": "UnreleasedTokensRevoked",
      "type": "event"
    },
    {
      "inputs": [],
      "name": "DEFAULT_ADMIN_ROLE",
      "outputs": [
        {
          "internalType": "bytes32",
          "name": "",
          "type": "bytes32"
        }
      ],
      "stateMutability": "view",
      "type": "function"
    },
    {
      "inputs": [],
      "name": "ERC777_TOKENS_RECIPIENT_HASH",
      "outputs": [
        {
          "internalType": "bytes32",
          "name": "",
          "type": "bytes32"
        }
      ],
      "stateMutability": "view",
      "type": "function"
    },
    {
      "inputs": [],
      "name": "ESCROW_CREATOR_ROLE",
      "outputs": [
        {
          "internalType": "bytes32",
          "name": "",
          "type": "bytes32"
        }
      ],
      "stateMutability": "view",
      "type": "function"
    },
    {
      "inputs": [],
      "name": "MINTER_ROLE",
      "outputs": [
        {
          "internalType": "bytes32",
          "name": "",
          "type": "bytes32"
        }
      ],
      "stateMutability": "view",
      "type": "function"
    },
    {
      "inputs": [],
      "name": "PAUSER_ROLE",
      "outputs": [
        {
          "internalType": "bytes32",
          "name": "",
          "type": "bytes32"
        }
      ],
      "stateMutability": "view",
      "type": "function"
    },
    {
      "inputs": [
        {
          "internalType": "address",
          "name": "account",
          "type": "address"
        },
        {
          "internalType": "uint256",
          "name": "id",
          "type": "uint256"
        }
      ],
      "name": "balanceOf",
      "outputs": [
        {
          "internalType": "uint256",
          "name": "",
          "type": "uint256"
        }
      ],
      "stateMutability": "view",
      "type": "function"
    },
    {
      "inputs": [
        {
          "internalType": "address[]",
          "name": "accounts",
          "type": "address[]"
        },
        {
          "internalType": "uint256[]",
          "name": "ids",
          "type": "uint256[]"
        }
      ],
      "name": "balanceOfBatch",
      "outputs": [
        {
          "internalType": "uint256[]",
          "name": "",
          "type": "uint256[]"
        }
      ],
      "stateMutability": "view",
      "type": "function"
    },
    {
      "inputs": [
        {
          "internalType": "uint256[]",
          "name": "removalIds",
          "type": "uint256[]"
        }
      ],
      "name": "batchCreateEscrowSchedule",
      "outputs": [],
      "stateMutability": "nonpayable",
      "type": "function"
    },
    {
      "inputs": [
        {
          "internalType": "address",
          "name": "account",
          "type": "address"
        }
      ],
      "name": "batchGetEscrowScheduleDetailsForAccount",
      "outputs": [
        {
          "components": [
            {
              "internalType": "address",
              "name": "tokenHolder",
              "type": "address"
            },
            {
              "internalType": "uint256",
              "name": "scheduleTokenId",
              "type": "uint256"
            },
            {
              "internalType": "uint256",
              "name": "startTime",
              "type": "uint256"
            },
            {
              "internalType": "uint256",
              "name": "endTime",
              "type": "uint256"
            },
            {
              "internalType": "uint256",
              "name": "balance",
              "type": "uint256"
            },
            {
              "internalType": "uint256",
              "name": "claimableAmount",
              "type": "uint256"
            },
            {
              "internalType": "uint256",
              "name": "claimedAmount",
              "type": "uint256"
            },
            {
              "internalType": "uint256",
              "name": "quantityRevoked",
              "type": "uint256"
            },
            {
              "internalType": "bool",
              "name": "exists",
              "type": "bool"
            }
          ],
          "internalType": "struct EscrowedNORI.EscrowScheduleDetailForAddress[]",
          "name": "",
          "type": "tuple[]"
        }
      ],
      "stateMutability": "view",
      "type": "function"
    },
    {
      "inputs": [
        {
          "internalType": "uint256[]",
          "name": "scheduleIds",
          "type": "uint256[]"
        }
      ],
      "name": "batchGetEscrowScheduleSummaries",
      "outputs": [
        {
          "components": [
            {
              "internalType": "uint256",
              "name": "scheduleTokenId",
              "type": "uint256"
            },
            {
              "internalType": "uint256",
              "name": "startTime",
              "type": "uint256"
            },
            {
              "internalType": "uint256",
              "name": "endTime",
              "type": "uint256"
            },
            {
              "internalType": "uint256",
              "name": "totalSupply",
              "type": "uint256"
            },
            {
              "internalType": "uint256",
              "name": "totalClaimableAmount",
              "type": "uint256"
            },
            {
              "internalType": "uint256",
              "name": "totalClaimedAmount",
              "type": "uint256"
            },
            {
              "internalType": "uint256",
              "name": "totalQuantityRevoked",
              "type": "uint256"
            },
            {
              "internalType": "address[]",
              "name": "tokenHolders",
              "type": "address[]"
            },
            {
              "internalType": "bool",
              "name": "exists",
              "type": "bool"
            }
          ],
          "internalType": "struct EscrowedNORI.EscrowScheduleSummary[]",
          "name": "",
          "type": "tuple[]"
        }
      ],
      "stateMutability": "view",
      "type": "function"
    },
    {
      "inputs": [
        {
          "internalType": "address[]",
          "name": "toAccounts",
          "type": "address[]"
        },
        {
          "internalType": "uint256[]",
          "name": "removalIds",
          "type": "uint256[]"
        },
        {
          "internalType": "uint256[]",
          "name": "amounts",
          "type": "uint256[]"
        }
      ],
      "name": "batchRevokeUnreleasedTokenAmounts",
      "outputs": [],
      "stateMutability": "nonpayable",
      "type": "function"
    },
    {
      "inputs": [
        {
          "internalType": "address",
          "name": "",
          "type": "address"
        },
        {
          "internalType": "uint256",
          "name": "",
          "type": "uint256"
        },
        {
          "internalType": "uint256",
          "name": "",
          "type": "uint256"
        }
      ],
      "name": "burn",
      "outputs": [],
      "stateMutability": "pure",
      "type": "function"
    },
    {
      "inputs": [
        {
          "internalType": "address",
          "name": "",
          "type": "address"
        },
        {
          "internalType": "uint256[]",
          "name": "",
          "type": "uint256[]"
        },
        {
          "internalType": "uint256[]",
          "name": "",
          "type": "uint256[]"
        }
      ],
      "name": "burnBatch",
      "outputs": [],
      "stateMutability": "pure",
      "type": "function"
    },
    {
      "inputs": [
        {
          "internalType": "uint256",
          "name": "scheduleId",
          "type": "uint256"
        }
      ],
      "name": "claimableBalanceForSchedule",
      "outputs": [
        {
          "internalType": "uint256",
          "name": "",
          "type": "uint256"
        }
      ],
      "stateMutability": "view",
      "type": "function"
    },
    {
      "inputs": [
        {
          "internalType": "uint256",
          "name": "scheduleId",
          "type": "uint256"
        },
        {
          "internalType": "address",
          "name": "account",
          "type": "address"
        }
      ],
      "name": "claimableBalanceForScheduleForAccount",
      "outputs": [
        {
          "internalType": "uint256",
          "name": "",
          "type": "uint256"
        }
      ],
      "stateMutability": "view",
      "type": "function"
    },
    {
      "inputs": [
        {
          "internalType": "uint256",
          "name": "removalId",
          "type": "uint256"
        }
      ],
      "name": "createEscrowSchedule",
      "outputs": [],
      "stateMutability": "nonpayable",
      "type": "function"
    },
    {
      "inputs": [
        {
          "internalType": "uint256",
          "name": "id",
          "type": "uint256"
        }
      ],
      "name": "exists",
      "outputs": [
        {
          "internalType": "bool",
          "name": "",
          "type": "bool"
        }
      ],
      "stateMutability": "view",
      "type": "function"
    },
    {
      "inputs": [],
      "name": "getAllScheduleIds",
      "outputs": [
        {
          "internalType": "uint256[]",
          "name": "",
          "type": "uint256[]"
        }
      ],
      "stateMutability": "view",
      "type": "function"
    },
    {
      "inputs": [
        {
          "internalType": "uint256",
          "name": "methodology",
          "type": "uint256"
        },
        {
          "internalType": "uint256",
          "name": "methodologyVersion",
          "type": "uint256"
        }
      ],
      "name": "getEscrowDurationForMethodologyAndVersion",
      "outputs": [
        {
          "internalType": "uint256",
          "name": "",
          "type": "uint256"
        }
      ],
      "stateMutability": "view",
      "type": "function"
    },
    {
      "inputs": [
        {
          "internalType": "address",
          "name": "account",
          "type": "address"
        },
        {
          "internalType": "uint256",
          "name": "scheduleId",
          "type": "uint256"
        }
      ],
      "name": "getEscrowScheduleDetailForAccount",
      "outputs": [
        {
          "components": [
            {
              "internalType": "address",
              "name": "tokenHolder",
              "type": "address"
            },
            {
              "internalType": "uint256",
              "name": "scheduleTokenId",
              "type": "uint256"
            },
            {
              "internalType": "uint256",
              "name": "startTime",
              "type": "uint256"
            },
            {
              "internalType": "uint256",
              "name": "endTime",
              "type": "uint256"
            },
            {
              "internalType": "uint256",
              "name": "balance",
              "type": "uint256"
            },
            {
              "internalType": "uint256",
              "name": "claimableAmount",
              "type": "uint256"
            },
            {
              "internalType": "uint256",
              "name": "claimedAmount",
              "type": "uint256"
            },
            {
              "internalType": "uint256",
              "name": "quantityRevoked",
              "type": "uint256"
            },
            {
              "internalType": "bool",
              "name": "exists",
              "type": "bool"
            }
          ],
          "internalType": "struct EscrowedNORI.EscrowScheduleDetailForAddress",
          "name": "",
          "type": "tuple"
        }
      ],
      "stateMutability": "view",
      "type": "function"
    },
    {
      "inputs": [
        {
          "internalType": "uint256",
          "name": "scheduleId",
          "type": "uint256"
        }
      ],
      "name": "getEscrowScheduleSummary",
      "outputs": [
        {
          "components": [
            {
              "internalType": "uint256",
              "name": "scheduleTokenId",
              "type": "uint256"
            },
            {
              "internalType": "uint256",
              "name": "startTime",
              "type": "uint256"
            },
            {
              "internalType": "uint256",
              "name": "endTime",
              "type": "uint256"
            },
            {
              "internalType": "uint256",
              "name": "totalSupply",
              "type": "uint256"
            },
            {
              "internalType": "uint256",
              "name": "totalClaimableAmount",
              "type": "uint256"
            },
            {
              "internalType": "uint256",
              "name": "totalClaimedAmount",
              "type": "uint256"
            },
            {
              "internalType": "uint256",
              "name": "totalQuantityRevoked",
              "type": "uint256"
            },
            {
              "internalType": "address[]",
              "name": "tokenHolders",
              "type": "address[]"
            },
            {
              "internalType": "bool",
              "name": "exists",
              "type": "bool"
            }
          ],
          "internalType": "struct EscrowedNORI.EscrowScheduleSummary",
          "name": "",
          "type": "tuple"
        }
      ],
      "stateMutability": "view",
      "type": "function"
    },
    {
      "inputs": [
        {
          "internalType": "bytes32",
          "name": "role",
          "type": "bytes32"
        }
      ],
      "name": "getRoleAdmin",
      "outputs": [
        {
          "internalType": "bytes32",
          "name": "",
          "type": "bytes32"
        }
      ],
      "stateMutability": "view",
      "type": "function"
    },
    {
      "inputs": [
        {
          "internalType": "bytes32",
          "name": "role",
          "type": "bytes32"
        },
        {
          "internalType": "uint256",
          "name": "index",
          "type": "uint256"
        }
      ],
      "name": "getRoleMember",
      "outputs": [
        {
          "internalType": "address",
          "name": "",
          "type": "address"
        }
      ],
      "stateMutability": "view",
      "type": "function"
    },
    {
      "inputs": [
        {
          "internalType": "bytes32",
          "name": "role",
          "type": "bytes32"
        }
      ],
      "name": "getRoleMemberCount",
      "outputs": [
        {
          "internalType": "uint256",
          "name": "",
          "type": "uint256"
        }
      ],
      "stateMutability": "view",
      "type": "function"
    },
    {
      "inputs": [
        {
          "internalType": "address",
          "name": "account",
          "type": "address"
        }
      ],
      "name": "getScheduleIdsForAccount",
      "outputs": [
        {
          "internalType": "uint256[]",
          "name": "",
          "type": "uint256[]"
        }
      ],
      "stateMutability": "view",
      "type": "function"
    },
    {
      "inputs": [
        {
          "internalType": "bytes32",
          "name": "role",
          "type": "bytes32"
        },
        {
          "internalType": "address",
          "name": "account",
          "type": "address"
        }
      ],
      "name": "grantRole",
      "outputs": [],
      "stateMutability": "nonpayable",
      "type": "function"
    },
    {
      "inputs": [
        {
          "internalType": "bytes32",
          "name": "role",
          "type": "bytes32"
        },
        {
          "internalType": "address",
          "name": "account",
          "type": "address"
        }
      ],
      "name": "hasRole",
      "outputs": [
        {
          "internalType": "bool",
          "name": "",
          "type": "bool"
        }
      ],
      "stateMutability": "view",
      "type": "function"
    },
    {
      "inputs": [
        {
          "internalType": "contract BridgedPolygonNORI",
          "name": "bridgedPolygonNoriAddress",
          "type": "address"
        },
        {
          "internalType": "contract Removal",
          "name": "removalAddress",
          "type": "address"
        }
      ],
      "name": "initialize",
      "outputs": [],
      "stateMutability": "nonpayable",
      "type": "function"
    },
    {
      "inputs": [
        {
          "internalType": "string",
          "name": "uri",
          "type": "string"
        }
      ],
      "name": "initialize",
      "outputs": [],
      "stateMutability": "nonpayable",
      "type": "function"
    },
    {
      "inputs": [
        {
          "internalType": "address",
          "name": "",
          "type": "address"
        },
        {
          "internalType": "address",
          "name": "",
          "type": "address"
        }
      ],
      "name": "isApprovedForAll",
      "outputs": [
        {
          "internalType": "bool",
          "name": "",
          "type": "bool"
        }
      ],
      "stateMutability": "pure",
      "type": "function"
    },
    {
      "inputs": [
        {
          "internalType": "address",
          "name": "to",
          "type": "address"
        },
        {
          "internalType": "uint256",
          "name": "id",
          "type": "uint256"
        },
        {
          "internalType": "uint256",
          "name": "amount",
          "type": "uint256"
        },
        {
          "internalType": "bytes",
          "name": "data",
          "type": "bytes"
        }
      ],
      "name": "mint",
      "outputs": [],
      "stateMutability": "nonpayable",
      "type": "function"
    },
    {
      "inputs": [
        {
          "internalType": "address",
          "name": "to",
          "type": "address"
        },
        {
          "internalType": "uint256[]",
          "name": "ids",
          "type": "uint256[]"
        },
        {
          "internalType": "uint256[]",
          "name": "amounts",
          "type": "uint256[]"
        },
        {
          "internalType": "bytes",
          "name": "data",
          "type": "bytes"
        }
      ],
      "name": "mintBatch",
      "outputs": [],
      "stateMutability": "nonpayable",
      "type": "function"
    },
    {
      "inputs": [],
      "name": "pause",
      "outputs": [],
      "stateMutability": "nonpayable",
      "type": "function"
    },
    {
      "inputs": [],
      "name": "paused",
      "outputs": [
        {
          "internalType": "bool",
          "name": "",
          "type": "bool"
        }
      ],
      "stateMutability": "view",
      "type": "function"
    },
    {
      "inputs": [
        {
          "internalType": "uint256",
          "name": "removalId",
          "type": "uint256"
        }
      ],
      "name": "removalIdToScheduleId",
      "outputs": [
        {
          "internalType": "uint256",
          "name": "",
          "type": "uint256"
        }
      ],
      "stateMutability": "view",
      "type": "function"
    },
    {
      "inputs": [
        {
          "internalType": "bytes32",
          "name": "role",
          "type": "bytes32"
        },
        {
          "internalType": "address",
          "name": "account",
          "type": "address"
        }
      ],
      "name": "renounceRole",
      "outputs": [],
      "stateMutability": "nonpayable",
      "type": "function"
    },
    {
      "inputs": [
        {
          "internalType": "uint256",
          "name": "scheduleId",
          "type": "uint256"
        }
      ],
      "name": "revocableQuantityForSchedule",
      "outputs": [
        {
          "internalType": "uint256",
          "name": "",
          "type": "uint256"
        }
      ],
      "stateMutability": "view",
      "type": "function"
    },
    {
      "inputs": [
        {
          "internalType": "bytes32",
          "name": "role",
          "type": "bytes32"
        },
        {
          "internalType": "address",
          "name": "account",
          "type": "address"
        }
      ],
      "name": "revokeRole",
      "outputs": [],
      "stateMutability": "nonpayable",
      "type": "function"
    },
    {
      "inputs": [
        {
          "internalType": "address",
          "name": "from",
          "type": "address"
        },
        {
          "internalType": "address",
          "name": "to",
          "type": "address"
        },
        {
          "internalType": "uint256[]",
          "name": "ids",
          "type": "uint256[]"
        },
        {
          "internalType": "uint256[]",
          "name": "amounts",
          "type": "uint256[]"
        },
        {
          "internalType": "bytes",
          "name": "data",
          "type": "bytes"
        }
      ],
      "name": "safeBatchTransferFrom",
      "outputs": [],
      "stateMutability": "nonpayable",
      "type": "function"
    },
    {
      "inputs": [
        {
          "internalType": "address",
          "name": "from",
          "type": "address"
        },
        {
          "internalType": "address",
          "name": "to",
          "type": "address"
        },
        {
          "internalType": "uint256",
          "name": "id",
          "type": "uint256"
        },
        {
          "internalType": "uint256",
          "name": "amount",
          "type": "uint256"
        },
        {
          "internalType": "bytes",
          "name": "data",
          "type": "bytes"
        }
      ],
      "name": "safeTransferFrom",
      "outputs": [],
      "stateMutability": "nonpayable",
      "type": "function"
    },
    {
      "inputs": [
        {
          "internalType": "address",
          "name": "",
          "type": "address"
        },
        {
          "internalType": "bool",
          "name": "",
          "type": "bool"
        }
      ],
      "name": "setApprovalForAll",
      "outputs": [],
      "stateMutability": "pure",
      "type": "function"
    },
    {
      "inputs": [
        {
          "internalType": "uint256",
          "name": "methodology",
          "type": "uint256"
        },
        {
          "internalType": "uint256",
          "name": "methodologyVersion",
          "type": "uint256"
        },
        {
          "internalType": "uint256",
          "name": "durationInSeconds",
          "type": "uint256"
        }
      ],
      "name": "setEscrowDurationForMethodologyAndVersion",
      "outputs": [
        {
          "internalType": "uint256",
          "name": "",
          "type": "uint256"
        }
      ],
      "stateMutability": "nonpayable",
      "type": "function"
    },
    {
      "inputs": [
        {
          "internalType": "bytes4",
          "name": "interfaceId",
          "type": "bytes4"
        }
      ],
      "name": "supportsInterface",
      "outputs": [
        {
          "internalType": "bool",
          "name": "",
          "type": "bool"
        }
      ],
      "stateMutability": "view",
      "type": "function"
    },
    {
      "inputs": [
        {
          "internalType": "address",
          "name": "sender",
          "type": "address"
        },
        {
          "internalType": "address",
          "name": "",
          "type": "address"
        },
        {
          "internalType": "address",
          "name": "",
          "type": "address"
        },
        {
          "internalType": "uint256",
          "name": "amount",
          "type": "uint256"
        },
        {
          "internalType": "bytes",
          "name": "userData",
          "type": "bytes"
        },
        {
          "internalType": "bytes",
          "name": "operatorData",
          "type": "bytes"
        }
      ],
      "name": "tokensReceived",
      "outputs": [],
      "stateMutability": "nonpayable",
      "type": "function"
    },
    {
      "inputs": [
        {
          "internalType": "uint256",
          "name": "id",
          "type": "uint256"
        }
      ],
      "name": "totalSupply",
      "outputs": [
        {
          "internalType": "uint256",
          "name": "",
          "type": "uint256"
        }
      ],
      "stateMutability": "view",
      "type": "function"
    },
    {
      "inputs": [],
      "name": "unpause",
      "outputs": [],
      "stateMutability": "nonpayable",
      "type": "function"
    },
    {
      "inputs": [
        {
          "internalType": "uint256",
          "name": "",
          "type": "uint256"
        }
      ],
      "name": "uri",
      "outputs": [
        {
          "internalType": "string",
          "name": "",
          "type": "string"
        }
      ],
      "stateMutability": "view",
      "type": "function"
    },
    {
      "inputs": [
        {
          "internalType": "address",
          "name": "recipient",
          "type": "address"
        },
        {
          "internalType": "uint256",
          "name": "scheduleId",
          "type": "uint256"
        },
        {
          "internalType": "uint256",
          "name": "amount",
          "type": "uint256"
        }
      ],
      "name": "withdrawFromEscrowSchedule",
      "outputs": [
        {
          "internalType": "bool",
          "name": "",
          "type": "bool"
        }
      ],
      "stateMutability": "nonpayable",
      "type": "function"
    }
  ],
  "bytecode": "0x608060405234801561001057600080fd5b50614f89806100206000396000f3fe608060405234801561001057600080fd5b506004361061029e5760003560e01c80637e2d943411610167578063d5391393116100ce578063e63ab1e911610087578063e63ab1e914610678578063e985e9c51461068d578063f242432a146106a0578063f5298aca146106b3578063f62d1888146106c1578063f77b94fe146106d457600080fd5b8063d539139314610602578063d547741f14610617578063d943dac71461062a578063daa55af01461063d578063dfd2cdee14610652578063e01d73931461066557600080fd5b8063a22cb46511610120578063a22cb46514610575578063b6f66b7a14610588578063bd85b0391461059b578063be24051f146105bc578063ca15c873146105cf578063caa423b0146105e257600080fd5b80637e2d9434146104e85780638456cb59146105145780638f9e8e491461051c5780639010d07c1461052f57806391d148541461055a578063a217fddf1461056d57600080fd5b8063485cc9551161020b5780635d37165a116101c45780635d37165a146104815780636235a4e91461049457806363343346146104a75780636b20c454146104af578063713279b1146104c2578063731133e9146104d557600080fd5b8063485cc955146103d85780634aac766d146103eb5780634e1273f41461040b5780634f558e791461042b578063521189a91461044e5780635c975abb1461047557600080fd5b8063248a9ca31161025d578063248a9ca3146103545780632eb2c2d6146103775780632f2ff15d1461038a57806336568abe1461039d5780633f4ba83a146103b0578063476d3e74146103b857600080fd5b806223de29146102a3578062fdd58e146102b857806301ffc9a7146102de5780630e89341c14610301578063157abb39146103215780631f7fdffa14610341575b600080fd5b6102b66102b1366004613bfe565b6106e7565b005b6102cb6102c6366004613cae565b6107ad565b6040519081526020015b60405180910390f35b6102f16102ec366004613cf0565b610849565b60405190151581526020016102d5565b61031461030f366004613d0d565b610854565b6040516102d59190613d7e565b61033461032f366004613d0d565b6108e8565b6040516102d59190613e40565b6102b661034f366004613fa6565b610aa6565b6102cb610362366004613d0d565b60009081526065602052604090206001015490565b6102b6610385366004614040565b610aec565b6102b66103983660046140ed565b610cf6565b6102b66103ab3660046140ed565b610d21565b6102b6610d9f565b6103cb6103c6366004614161565b610e33565b6040516102d591906141a2565b6102b66103e6366004614204565b610eef565b6103fe6103f9366004613cae565b611149565b6040516102d59190614293565b61041e6104193660046142a2565b611200565b6040516102d591906143a9565b6102f1610439366004613d0d565b60009081526101c36020526040902054151590565b6102cb7fb281fc8c12954d22544db45de3159a39272895b169a852b314f9cc762e44c53b81565b61012d5460ff166102f1565b6102cb61048f3660046140ed565b611314565b6102cb6104a2366004613d0d565b611359565b61041e6113af565b6102b66104bd3660046143bc565b61144e565b6102cb6104d0366004613d0d565b611467565b6102b66104e336600461443e565b61148e565b6102cb6104f6366004614494565b60009182526101f56020908152604080842092845291905290205490565b6102b66114ce565b6102b661052a366004614161565b611560565b61054261053d366004614494565b61161c565b6040516001600160a01b0390911681526020016102d5565b6102f16105683660046140ed565b611634565b6102cb600081565b6102b66105833660046144b6565b61165f565b6102cb6105963660046144e9565b611678565b6102cb6105a9366004613d0d565b60009081526101c3602052604090205490565b6102b66105ca366004613d0d565b6116d4565b6102cb6105dd366004613d0d565b61171a565b6105f56105f0366004614515565b611731565b6040516102d59190614532565b6102cb600080516020614f1483398151915281565b6102b66106253660046140ed565b6117fa565b6102cb610638366004613d0d565b611820565b6102cb600080516020614f3483398151915281565b61041e610660366004614515565b61192e565b6102b6610673366004614581565b6119db565b6102cb600080516020614ef483398151915281565b6102f161069b366004614204565b611ae0565b6102b66106ae36600461461a565b611afb565b6102b66104bd366004614682565b6102b66106cf3660046146b7565b611bd4565b6102f16106e2366004614682565b611c4f565b6101fa546001600160a01b0316336001600160a01b03161461071c57604051634628d20b60e01b815260040160405180910390fd5b600061072a84860186613d0d565b90506107a1818787878080601f01602080910402602001604051908101604052809392919081815260200183838082843760009201919091525050604080516020601f8b018190048102820181019092528981529250899150889081908401838280828437600092019190915250611d6f92505050565b50505050505050505050565b60006001600160a01b03831661081e5760405162461bcd60e51b815260206004820152602b60248201527f455243313135353a2062616c616e636520717565727920666f7220746865207a60448201526a65726f206164647265737360a81b60648201526084015b60405180910390fd5b50600081815260c9602090815260408083206001600160a01b03861684529091529020545b92915050565b600061084382611e33565b606060cb8054610863906146ff565b80601f016020809104026020016040519081016040528092919081815260200182805461088f906146ff565b80156108dc5780601f106108b1576101008083540402835291602001916108dc565b820191906000526020600020905b8154815290600101906020018083116108bf57829003601f168201915b50505050509050919050565b6108f0613a63565b60008281526101f7602052604081209061090c60078301611e3e565b90506000816001600160401b0381111561092857610928613e53565b604051908082528060200260200182016040528015610951578160200160208202803683370190505b5090506000826001600160401b0381111561096e5761096e613e53565b604051908082528060200260200182016040528015610997578160200160208202803683370190505b50905060005b6109a985600701611e3e565b811015610a1f576109bd6007860182611e48565b8382815181106109cf576109cf614733565b60200260200101906001600160a01b031690816001600160a01b03168152505086828281518110610a0257610a02614733565b602090810291909101015280610a178161475f565b91505061099d565b506040518061012001604052808781526020018560000154815260200185600101548152602001610a5d8860009081526101c3602052604090205490565b8152602001610a6b88611359565b81526003860154602082015260058601546040820152606081019390935260049094015460ff16151560809092019190915250909392505050565b610abe600080516020614f1483398151915233611634565b610ada5760405162461bcd60e51b815260040161081590614778565b610ae684848484611e54565b50505050565b610af7600033611634565b15610b4b57335b60408051631b896a0360e31b81526001600160a01b0390921660048301526024820152601260448201527144454641554c545f41444d494e5f524f4c4560701b6064820152608401610815565b610b63600080516020614f3483398151915233611634565b15610b8457335b604051631b896a0360e31b815260040161081591906147d5565b610b918585858585611fb6565b60005b8351811015610cee5760006101f76000868481518110610bb657610bb6614733565b602002602001015181526020019081526020016000209050838281518110610be057610be0614733565b6020026020010151600014610c5057610c40858381518110610c0457610c04614733565b60200260200101516101f66000896001600160a01b03166001600160a01b0316815260200190815260200160002061204690919063ffffffff16565b50610c4e6007820187612052565b505b610c7387868481518110610c6657610c66614733565b60200260200101516107ad565b600003610cdb57610ccb858381518110610c8f57610c8f614733565b60200260200101516101f660008a6001600160a01b03166001600160a01b0316815260200190815260200160002061206790919063ffffffff16565b50610cd96007820188612073565b505b5080610ce68161475f565b915050610b94565b505050505050565b600082815260656020526040902060010154610d128133612088565b610d1c83836120ec565b505050565b6001600160a01b0381163314610d915760405162461bcd60e51b815260206004820152602f60248201527f416363657373436f6e74726f6c3a2063616e206f6e6c792072656e6f756e636560448201526e103937b632b9903337b91039b2b63360891b6064820152608401610815565b610d9b828261214e565b5050565b610db7600080516020614ef483398151915233611634565b610e295760405162461bcd60e51b815260206004820152603b60248201527f455243313135355072657365744d696e7465725061757365723a206d7573742060448201527f686176652070617573657220726f6c6520746f20756e706175736500000000006064820152608401610815565b610e31612170565b565b60606000826001600160401b03811115610e4f57610e4f613e53565b604051908082528060200260200182016040528015610e8857816020015b610e75613a63565b815260200190600190039081610e6d5790505b50905060005b83811015610ee757610eb7858583818110610eab57610eab614733565b905060200201356108e8565b828281518110610ec957610ec9614733565b60200260200101819052508080610edf9061475f565b915050610e8e565b509392505050565b600054610100900460ff16610f0a5760005460ff1615610f0e565b303b155b610f2a5760405162461bcd60e51b815260040161081590614814565b600054610100900460ff16158015610f4c576000805461ffff19166101011790555b610f6d6040518060600160405280602d8152602001614ec7602d9139611bd4565b604080516001808252818301909252600091602080830190803683370190505090503381600081518110610fa357610fa3614733565b60200260200101906001600160a01b031690816001600160a01b031681525050610fcb612205565b610fd3612205565b610fdb612205565b610fe3612205565b610feb61222c565b610ff3612205565b6101fa80546001600160a01b038681166001600160a01b0319928316179092556101fb8054928616929091168217905560405163058740e560e31b8152306004820152632c3a072890602401600060405180830381600087803b15801561105957600080fd5b505af115801561106d573d6000803e3d6000fd5b50506040516329965a1d60e01b815230600482018190527fb281fc8c12954d22544db45de3159a39272895b169a852b314f9cc762e44c53b60248301526044820152731820a4b7618bde71dce8cdc73aab6c95905fad2492506329965a1d9150606401600060405180830381600087803b1580156110ea57600080fd5b505af11580156110fe573d6000803e3d6000fd5b50505050611120600080516020614f3483398151915261111b3390565b6120ec565b611131600160006312cf3570611678565b50508015610d1c576000805461ff0019169055505050565b611151613ab1565b60008281526101f760209081526040918290208251610120810184526001600160a01b038716815291820185905280549282019290925260018201546060820152608081016111a086866107ad565b81526020016111af8587611314565b81526001600160a01b038616600081815260098501602090815260408083205482860152928252600a86019052819020549082015260049092015460ff161515606090920191909152905092915050565b606081518351146112655760405162461bcd60e51b815260206004820152602960248201527f455243313135353a206163636f756e747320616e6420696473206c656e677468604482015268040dad2e6dac2e8c6d60bb1b6064820152608401610815565b600083516001600160401b0381111561128057611280613e53565b6040519080825280602002602001820160405280156112a9578160200160208202803683370190505b50905060005b8451811015610ee7576112e78582815181106112cd576112cd614733565b6020026020010151858381518110610c6657610c66614733565b8282815181106112f9576112f9614733565b602090810291909101015261130d8161475f565b90506112af565b60008061132084611359565b60008581526101c3602052604090205490915061133d84866107ad565b6113479083614862565b6113519190614881565b949350505050565b60008181526101f760205260408120600481015460ff1661139057604051633470367960e11b815260048101849052602401610815565b806003015461139e84612260565b6113a891906148a3565b9392505050565b606060006113be6101f8611e3e565b6001600160401b038111156113d5576113d5613e53565b6040519080825280602002602001820160405280156113fe578160200160208202803683370190505b50905060005b8151811015611448576114196101f882611e48565b82828151811061142b5761142b614733565b6020908102919091010152806114408161475f565b915050611404565b50919050565b60405163fd647c0960e01b815260040160405180910390fd5b60008181526101f76020526040812061147f83612260565b81600201546113a891906148a3565b6114a6600080516020614f1483398151915233611634565b6114c25760405162461bcd60e51b815260040161081590614778565b610ae684848484612285565b6114e6600080516020614ef483398151915233611634565b6115585760405162461bcd60e51b815260206004820152603960248201527f455243313135355072657365744d696e7465725061757365723a206d7573742060448201527f686176652070617573657220726f6c6520746f207061757365000000000000006064820152608401610815565b610e31612382565b61012d5460ff16156115845760405162461bcd60e51b8152600401610815906148ba565b600080516020614f3483398151915261159d8133612088565b60005b82811015610ae65760006115cb8585848181106115bf576115bf614733565b90506020020135611820565b60008181526101f7602052604090206004015490915060ff16611609576116098585848181106115fd576115fd614733565b905060200201356123dc565b50806116148161475f565b9150506115a0565b60008281526097602052604081206113a89083611e48565b60009182526065602090815260408084206001600160a01b0393909316845291905290205460ff1690565b604051636461329360e01b815260040160405180910390fd5b600061168761012d5460ff1690565b156116a45760405162461bcd60e51b8152600401610815906148ba565b60006116b08133612088565b5060009384526101f560209081526040808620948652939052919092209190915590565b61012d5460ff16156116f85760405162461bcd60e51b8152600401610815906148ba565b600080516020614f348339815191526117118133612088565b610d9b826123dc565b600081815260976020526040812061084390611e3e565b6001600160a01b03811660009081526101f66020526040812060609161175682611e3e565b6001600160401b0381111561176d5761176d613e53565b6040519080825280602002602001820160405280156117a657816020015b611793613ab1565b81526020019060019003908161178b5790505b50905060005b6117b583611e3e565b811015610ee7576117ca856103f98584611e48565b8282815181106117dc576117dc614733565b602002602001018190525080806117f29061475f565b9150506117ac565b6000828152606560205260409020600101546118168133612088565b610d1c838361214e565b60008061182c836125eb565b9050600061186961183c856125fa565b60ff1661184886612613565b60ff1660009182526101f56020908152604080842092845291905290205490565b6101fb546040516374d03ff760e01b8152600481018790529192506000916001600160a01b03909116906374d03ff790602401602060405180830381865afa1580156118b9573d6000803e3d6000fd5b505050506040513d601f19601f820116820180604052508101906118dd91906148e4565b6040516bffffffffffffffffffffffff19606086901b166020820152603481018490526054810182905290915060740160408051601f19818403018152919052805160209091012095945050505050565b6001600160a01b03811660009081526101f66020526040812060609161195382611e3e565b6001600160401b0381111561196a5761196a613e53565b604051908082528060200260200182016040528015611993578160200160208202803683370190505b50905060005b8151811015610ee7576119ac8382611e48565b8282815181106119be576119be614733565b6020908102919091010152806119d38161475f565b915050611999565b61012d5460ff16156119ff5760405162461bcd60e51b8152600401610815906148ba565b600080516020614f34833981519152611a188133612088565b858414611a385760405163616c411360e01b8152600401610815906148fd565b858214611a585760405163616c411360e01b815260040161081590614952565b60005b86811015611ad657611ac4888883818110611a7857611a78614733565b9050602002016020810190611a8d9190614515565b878784818110611a9f57611a9f614733565b90506020020135868685818110611ab857611ab8614733565b9050602002013561262b565b80611ace8161475f565b915050611a5b565b5050505050505050565b6000604051636461329360e01b815260040160405180910390fd5b611b06600033611634565b15611b115733610afe565b611b29600080516020614f3483398151915233611634565b15611b345733610b6a565b611b418585858585612955565b60008381526101f7602052604090208215611b89576001600160a01b03851660009081526101f660205260409020611b799085612046565b50611b876007820186612052565b505b611b9386856107ad565b600003610cee576001600160a01b03861660009081526101f660205260409020611bbd9085612067565b50611bcb6007820187612073565b50505050505050565b600054610100900460ff16611bef5760005460ff1615611bf3565b303b155b611c0f5760405162461bcd60e51b815260040161081590614814565b600054610100900460ff16158015611c31576000805461ffff19166101011790555b611c3a826129dc565b8015610d9b576000805461ff00191690555050565b6000611c5c338484612a20565b6101fa54604051634decdde360e11b81526001600160a01b03868116600483015260248201859052606060448301526000606483015290911690639bd9bbc690608401600060405180830381600087803b158015611cb957600080fd5b505af1158015611ccd573d6000803e3d6000fd5b50505060008481526101f76020526040812060038101805491935085929091611cf79084906149a4565b909155505033600090815260098201602052604081208054859290611d1d9084906149a4565b909155505060405183815284906001600160a01b0387169033907fff097c7d8b1957a4ff09ef1361b5fb54dcede3941ba836d0beb9d10bec725de69060200160405180910390a4506001949350505050565b600080611d7b866125eb565b90506000611d8887611820565b60008181526101f7602052604090206004015490915060ff16611dae57611dae876123dc565b611dc982828860405180602001604052806000815250612285565b60008181526101f76020526040812060028101805491928992611ded9084906149a4565b90915550611e0090506007820184612052565b506001600160a01b03831660009081526101f660205260409020611e249083612046565b50600198975050505050505050565b600061084382612b9d565b6000610843825490565b60006113a88383612bdd565b6001600160a01b038416611e7a5760405162461bcd60e51b8152600401610815906149bc565b8151835114611e9b5760405162461bcd60e51b8152600401610815906149fd565b33611eab81600087878787612c07565b60005b8451811015611f4757838181518110611ec957611ec9614733565b602002602001015160c96000878481518110611ee757611ee7614733565b602002602001015181526020019081526020016000206000886001600160a01b03166001600160a01b031681526020019081526020016000206000828254611f2f91906149a4565b90915550819050611f3f8161475f565b915050611eae565b50846001600160a01b031660006001600160a01b0316826001600160a01b03167f4a39dc06d4c0dbc64b70af90fd698a233a518aa5d07e595d983b8c0526c8f7fb8787604051611f98929190614a45565b60405180910390a4611faf81600087878787612d87565b5050505050565b6001600160a01b038516331480611fd25750611fd28533611ae0565b6120395760405162461bcd60e51b815260206004820152603260248201527f455243313135353a207472616e736665722063616c6c6572206973206e6f74206044820152711bdddb995c881b9bdc88185c1c1c9bdd995960721b6064820152608401610815565b611faf8585858585612ee2565b60006113a88383613087565b60006113a8836001600160a01b038416613087565b60006113a883836130d6565b60006113a8836001600160a01b0384166130d6565b6120928282611634565b610d9b576120aa816001600160a01b031660146131c9565b6120b58360206131c9565b6040516020016120c6929190614a73565b60408051601f198184030181529082905262461bcd60e51b825261081591600401613d7e565b600080516020614f348339815191528203612144576001600160a01b03811660009081526101f66020526040812061212390611e3e565b1115612144578060405163df03622360e01b815260040161081591906147d5565b610d9b8282613364565b6121588282613386565b6000828152609760205260409020610d1c9082612073565b61012d5460ff166121ba5760405162461bcd60e51b815260206004820152601460248201527314185d5cd8589b194e881b9bdd081c185d5cd95960621b6044820152606401610815565b61012d805460ff191690557f5db9ee0a495bf2e6ff9c91a7834c1ba4fdd244a5e8aa4e537bd38aeae4b073aa335b6040516001600160a01b03909116815260200160405180910390a1565b600054610100900460ff16610e315760405162461bcd60e51b815260040161081590614ae8565b600054610100900460ff166122535760405162461bcd60e51b815260040161081590614ae8565b61012d805460ff19169055565b60008181526101f7602052604081206113a861227b826133ed565b8260060154613455565b6001600160a01b0384166122ab5760405162461bcd60e51b8152600401610815906149bc565b60003390506122d16040518060600160405280603a8152602001614e8d603a913961346c565b6122f0816000876122e1886134af565b6122ea886134af565b87612c07565b600084815260c9602090815260408083206001600160a01b0389168452909152812080548592906123229084906149a4565b909155505060408051858152602081018590526001600160a01b0380881692600092918516917fc3d58168c5ae7397731d063d5bbf3d657854427343f4c083240f7aacaa2d0f62910160405180910390a4611faf816000878787876134fa565b61012d5460ff16156123a65760405162461bcd60e51b8152600401610815906148ba565b61012d805460ff191660011790557f62e78cea01bee320cd4e420270b5ea74000d11b0c9f74754ebdbfc544b05a2586121e83390565b60006123e7826125eb565b6101fb546040516374d03ff760e01b8152600481018590529192506000916001600160a01b03909116906374d03ff790602401602060405180830381865afa158015612437573d6000803e3d6000fd5b505050506040513d601f19601f8201168201806040525081019061245b91906148e4565b9050600061246884611820565b90506001600160a01b03831661249157604051636c38382960e11b815260040160405180910390fd5b6124a9600080516020614f3483398151915284611634565b156124c95782604051632486d30560e11b815260040161081591906147d5565b60008181526101f7602052604090206004015460ff161561250757604051633893f8e360e21b81526004810182905260248101859052604401610815565b60008181526101f7602052604090206125226101f883612046565b50600061253d612531876125fa565b60ff1661184888612613565b90508060000361256357604051634830eedf60e11b815260048101879052602401610815565b6001600160a01b03851660009081526101f6602052604090206125869084612046565b506000600283015560048201805460ff191660011790558382556125aa81856149a4565b6001830155600060068301819055604051879185917fbe98789b2b45a3ed741b744a7e162d17774fa3f96a952c76f85253d05ff4d19a9190a3505050505050565b600061084382601460046135b5565b6000600461260b836001601e6135b5565b901c92915050565b6000612622826001601e6135b5565b600f1692915050565b6000612636836125eb565b9050600061264384611820565b60008181526101f76020526040902060048101549192509060ff1661267e57604051633470367960e11b815260048101839052602401610815565b600061268983612260565b9050816002015481106126b257604051631a05723960e21b815260048101849052602401610815565b600085156126ed576126c384611467565b8611156126e657604051630c21a50760e31b815260048101859052602401610815565b50846126f9565b6126f684611467565b90505b60078301600061270882611e3e565b6001600160401b0381111561271f5761271f613e53565b604051908082528060200260200182016040528015612748578160200160208202803683370190505b50905060005b61275783611e3e565b8110156127a0576127718761276c8584611e48565b613601565b82828151811061278357612783614733565b6020908102919091010152806127988161475f565b91505061274e565b5060005b6127ad83611e3e565b81101561285b576127e16127c18483611e48565b888484815181106127d4576127d4614733565b6020026020010151612a20565b8181815181106127f3576127f3614733565b602002602001015186600a0160006128148487611e4890919063ffffffff16565b6001600160a01b03166001600160a01b03168152602001908152602001600020600082825461284391906149a4565b909155508190506128538161475f565b9150506127a4565b508285600201600082825461287091906148a3565b9091555050600685018490556005850180548491906000906128939084906149a4565b90915550506101fa54604051634decdde360e11b81526001600160a01b038c8116600483015260248201869052606060448301526000606483015290911690639bd9bbc690608401600060405180830381600087803b1580156128f557600080fd5b505af1158015612909573d6000803e3d6000fd5b505050508589427f1c88d66daca38f6d7ea17e24dd97402f816c3970f697a9144270c923082bccb08660405161294191815260200190565b60405180910390a450505050505050505050565b6001600160a01b03851633148061297157506129718533611ae0565b6129cf5760405162461bcd60e51b815260206004820152602960248201527f455243313135353a2063616c6c6572206973206e6f74206f776e6572206e6f7260448201526808185c1c1c9bdd995960ba1b6064820152608401610815565b611faf858585858561360d565b600054610100900460ff16612a035760405162461bcd60e51b815260040161081590614ae8565b612a0c81613725565b612a1461222c565b612a1d81613755565b50565b6001600160a01b038316612a825760405162461bcd60e51b815260206004820152602360248201527f455243313135353a206275726e2066726f6d20746865207a65726f206164647260448201526265737360e81b6064820152608401610815565b33612ab181856000612a93876134af565b612a9c876134af565b60405180602001604052806000815250612c07565b600083815260c9602090815260408083206001600160a01b038816845290915290205482811015612b305760405162461bcd60e51b8152602060048201526024808201527f455243313135353a206275726e20616d6f756e7420657863656564732062616c604482015263616e636560e01b6064820152608401610815565b600084815260c9602090815260408083206001600160a01b03898116808652918452828520888703905582518981529384018890529092908616917fc3d58168c5ae7397731d063d5bbf3d657854427343f4c083240f7aacaa2d0f62910160405180910390a45050505050565b60006001600160e01b03198216636cdb3d1360e11b1480612bce57506001600160e01b031982166303a24d0760e21b145b806108435750610843826137b7565b6000826000018281548110612bf457612bf4614733565b9060005260206000200154905092915050565b6001600160a01b0385811615908516156000612c31600080516020614f348339815191528a611634565b90506001600160a01b038981169089161415828015612c4d5750805b8015612c565750815b15612cfd5760005b8751811015612cf757868181518110612c7957612c79614733565b6020026020010151612c978b8a8481518110610c6657610c66614733565b1015612ce55789888281518110612cb057612cb0614733565b6020908102919091010151604051633db7aa8160e21b81526001600160a01b0390921660048301526024820152604401610815565b80612cef8161475f565b915050612c5e565b50612d79565b8215612d795760005b8751811015612d7757612d32888281518110612d2457612d24614733565b60200260200101518b611314565b878281518110612d4457612d44614733565b60200260200101511115612d655789888281518110612cb057612cb0614733565b80612d6f8161475f565b915050612d06565b505b6107a18a8a8a8a8a8a6137dc565b6001600160a01b0384163b15610cee5760405163bc197c8160e01b81526001600160a01b0385169063bc197c8190612dcb9089908990889088908890600401614b33565b6020604051808303816000875af1925050508015612e06575060408051601f3d908101601f19168201909252612e0391810190614b91565b60015b612eb257612e12614bae565b806308c379a003612e4b5750612e26614bca565b80612e315750612e4d565b8060405162461bcd60e51b81526004016108159190613d7e565b505b60405162461bcd60e51b815260206004820152603460248201527f455243313135353a207472616e7366657220746f206e6f6e20455243313135356044820152732932b1b2b4bb32b91034b6b83632b6b2b73a32b960611b6064820152608401610815565b6001600160e01b0319811663bc197c8160e01b14611bcb5760405162461bcd60e51b815260040161081590614c53565b8151835114612f035760405162461bcd60e51b8152600401610815906149fd565b6001600160a01b038416612f295760405162461bcd60e51b815260040161081590614c9b565b33612f38818787878787612c07565b60005b8451811015613021576000858281518110612f5857612f58614733565b602002602001015190506000858381518110612f7657612f76614733565b602090810291909101810151600084815260c9835260408082206001600160a01b038e168352909352919091205490915081811015612fc75760405162461bcd60e51b815260040161081590614ce0565b600083815260c9602090815260408083206001600160a01b038e8116855292528083208585039055908b168252812080548492906130069084906149a4565b925050819055505050508061301a9061475f565b9050612f3b565b50846001600160a01b0316866001600160a01b0316826001600160a01b03167f4a39dc06d4c0dbc64b70af90fd698a233a518aa5d07e595d983b8c0526c8f7fb8787604051613071929190614a45565b60405180910390a4610cee818787878787612d87565b60008181526001830160205260408120546130ce57508154600181810184556000848152602080822090930184905584548482528286019093526040902091909155610843565b506000610843565b600081815260018301602052604081205480156131bf5760006130fa6001836148a3565b855490915060009061310e906001906148a3565b905081811461317357600086600001828154811061312e5761312e614733565b906000526020600020015490508087600001848154811061315157613151614733565b6000918252602080832090910192909255918252600188019052604090208390555b855486908061318457613184614d2a565b600190038181906000526020600020016000905590558560010160008681526020019081526020016000206000905560019350505050610843565b6000915050610843565b606060006131d8836002614862565b6131e39060026149a4565b6001600160401b038111156131fa576131fa613e53565b6040519080825280601f01601f191660200182016040528015613224576020820181803683370190505b509050600360fc1b8160008151811061323f5761323f614733565b60200101906001600160f81b031916908160001a905350600f60fb1b8160018151811061326e5761326e614733565b60200101906001600160f81b031916908160001a9053506000613292846002614862565b61329d9060016149a4565b90505b6001811115613315576f181899199a1a9b1b9c1cb0b131b232b360811b85600f16601081106132d1576132d1614733565b1a60f81b8282815181106132e7576132e7614733565b60200101906001600160f81b031916908160001a90535060049490941c9361330e81614d40565b90506132a0565b5083156113a85760405162461bcd60e51b815260206004820181905260248201527f537472696e67733a20686578206c656e67746820696e73756666696369656e746044820152606401610815565b61336e82826138f8565b6000828152609760205260409020610d1c9082612052565b6133908282611634565b15610d9b5760008281526065602090815260408083206001600160a01b0385168085529252808320805460ff1916905551339285917ff6391f5c32d9c69d2a47ea670b442974b53935d1edc7fd64eb21e047a839171b9190a45050565b60008160010154421061340257506002015490565b81546001830154600091613415916148a3565b8354909150421061344c578254819061342e90426148a3565b846002015461343d9190614862565b6134479190614881565b6113a8565b60009392505050565b60008183101561346557816113a8565b5090919050565b612a1d816040516024016134809190613d7e565b60408051601f198184030181529190526020810180516001600160e01b031663104c13eb60e21b17905261397e565b604080516001808252818301909252606091600091906020808301908036833701905050905082816000815181106134e9576134e9614733565b602090810291909101015292915050565b6001600160a01b0384163b15610cee5760405163f23a6e6160e01b81526001600160a01b0385169063f23a6e619061353e9089908990889088908890600401614d57565b6020604051808303816000875af1925050508015613579575060408051601f3d908101601f1916820190925261357691810190614b91565b60015b61358557612e12614bae565b6001600160e01b0319811663f23a6e6160e01b14611bcb5760405162461bcd60e51b815260040161081590614c53565b6000806135c3600884614862565b60016135d0600887614862565b6135db906002614e80565b6135e591906148a3565b901b90508481166135f7600885614862565b1c95945050505050565b60008061132084611467565b6001600160a01b0384166136335760405162461bcd60e51b815260040161081590614c9b565b336136438187876122e1886134af565b600084815260c9602090815260408083206001600160a01b038a168452909152902054838110156136865760405162461bcd60e51b815260040161081590614ce0565b600085815260c9602090815260408083206001600160a01b038b81168552925280832087850390559088168252812080548692906136c59084906149a4565b909155505060408051868152602081018690526001600160a01b03808916928a821692918616917fc3d58168c5ae7397731d063d5bbf3d657854427343f4c083240f7aacaa2d0f62910160405180910390a4611bcb8288888888886134fa565b600054610100900460ff1661374c5760405162461bcd60e51b815260040161081590614ae8565b612a1d8161399f565b600054610100900460ff1661377c5760405162461bcd60e51b815260040161081590614ae8565b6137876000336139b2565b61379f600080516020614f14833981519152336139b2565b612a1d600080516020614ef4833981519152336139b2565b60006001600160e01b03198216635a05180f60e01b14806108435750610843826139bc565b6137ea8686868686866139f1565b6001600160a01b0385166138725760005b83518110156138705782818151811061381657613816614733565b60200260200101516101c3600086848151811061383557613835614733565b60200260200101518152602001908152602001600020600082825461385a91906149a4565b9091555061386990508161475f565b90506137fb565b505b6001600160a01b038416610cee5760005b8351811015611bcb5782818151811061389e5761389e614733565b60200260200101516101c360008684815181106138bd576138bd614733565b6020026020010151815260200190815260200160002060008282546138e291906148a3565b909155506138f190508161475f565b9050613883565b6139028282611634565b610d9b5760008281526065602090815260408083206001600160a01b03851684529091529020805460ff1916600117905561393a3390565b6001600160a01b0316816001600160a01b0316837f2f8788117e7eff1d82e926ec794901d17c78024a50270940304540a733656f0d60405160405180910390a45050565b80516a636f6e736f6c652e6c6f67602083016000808483855afa5050505050565b8051610d9b9060cb906020840190613b08565b610d9b82826120ec565b60006001600160e01b03198216637965db0b60e01b148061084357506301ffc9a760e01b6001600160e01b0319831614610843565b610cee86868686868661012d5460ff1615610cee5760405162461bcd60e51b815260206004820152602c60248201527f455243313135355061757361626c653a20746f6b656e207472616e736665722060448201526b1dda1a5b19481c185d5cd95960a21b6064820152608401610815565b60405180610120016040528060008152602001600081526020016000815260200160008152602001600081526020016000815260200160008152602001606081526020016000151581525090565b60405180610120016040528060006001600160a01b03168152602001600081526020016000815260200160008152602001600081526020016000815260200160008152602001600081526020016000151581525090565b828054613b14906146ff565b90600052602060002090601f016020900481019282613b365760008555613b7c565b82601f10613b4f57805160ff1916838001178555613b7c565b82800160010185558215613b7c579182015b82811115613b7c578251825591602001919060010190613b61565b50613b88929150613b8c565b5090565b5b80821115613b885760008155600101613b8d565b6001600160a01b0381168114612a1d57600080fd5b60008083601f840112613bc857600080fd5b5081356001600160401b03811115613bdf57600080fd5b602083019150836020828501011115613bf757600080fd5b9250929050565b60008060008060008060008060c0898b031215613c1a57600080fd5b8835613c2581613ba1565b97506020890135613c3581613ba1565b96506040890135613c4581613ba1565b95506060890135945060808901356001600160401b0380821115613c6857600080fd5b613c748c838d01613bb6565b909650945060a08b0135915080821115613c8d57600080fd5b50613c9a8b828c01613bb6565b999c989b5096995094979396929594505050565b60008060408385031215613cc157600080fd5b8235613ccc81613ba1565b946020939093013593505050565b6001600160e01b031981168114612a1d57600080fd5b600060208284031215613d0257600080fd5b81356113a881613cda565b600060208284031215613d1f57600080fd5b5035919050565b60005b83811015613d41578181015183820152602001613d29565b83811115610ae65750506000910152565b60008151808452613d6a816020860160208601613d26565b601f01601f19169290920160200192915050565b6020815260006113a86020830184613d52565b6000610120808401835185526020808501518187015260408501516040870152606085015160608701526080850151608087015260a085015160a087015260c085015160c087015260e08501518360e08801528293508051808452610140880194508282019350600091505b80821015613e265783516001600160a01b03168552938201939282019260019190910190613dfd565b505050506101009283015115159390920192909252919050565b6020815260006113a86020830184613d91565b634e487b7160e01b600052604160045260246000fd5b601f8201601f191681016001600160401b0381118282101715613e8e57613e8e613e53565b6040525050565b60006001600160401b03821115613eae57613eae613e53565b5060051b60200190565b600082601f830112613ec957600080fd5b81356020613ed682613e95565b604051613ee38282613e69565b83815260059390931b8501820192828101915086841115613f0357600080fd5b8286015b84811015613f1e5780358352918301918301613f07565b509695505050505050565b60006001600160401b03831115613f4257613f42613e53565b604051613f59601f8501601f191660200182613e69565b809150838152848484011115613f6e57600080fd5b83836020830137600060208583010152509392505050565b600082601f830112613f9757600080fd5b6113a883833560208501613f29565b60008060008060808587031215613fbc57600080fd5b8435613fc781613ba1565b935060208501356001600160401b0380821115613fe357600080fd5b613fef88838901613eb8565b9450604087013591508082111561400557600080fd5b61401188838901613eb8565b9350606087013591508082111561402757600080fd5b5061403487828801613f86565b91505092959194509250565b600080600080600060a0868803121561405857600080fd5b853561406381613ba1565b9450602086013561407381613ba1565b935060408601356001600160401b038082111561408f57600080fd5b61409b89838a01613eb8565b945060608801359150808211156140b157600080fd5b6140bd89838a01613eb8565b935060808801359150808211156140d357600080fd5b506140e088828901613f86565b9150509295509295909350565b6000806040838503121561410057600080fd5b82359150602083013561411281613ba1565b809150509250929050565b60008083601f84011261412f57600080fd5b5081356001600160401b0381111561414657600080fd5b6020830191508360208260051b8501011115613bf757600080fd5b6000806020838503121561417457600080fd5b82356001600160401b0381111561418a57600080fd5b6141968582860161411d565b90969095509350505050565b6000602080830181845280855180835260408601915060408160051b870101925083870160005b828110156141f757603f198886030184526141e5858351613d91565b945092850192908501906001016141c9565b5092979650505050505050565b6000806040838503121561421757600080fd5b823561422281613ba1565b9150602083013561411281613ba1565b80516001600160a01b031682526020808201519083015260408082015190830152606080820151908301526080808201519083015260a0818101519083015260c0808201519083015260e08082015190830152610100908101511515910152565b61012081016108438284614232565b600080604083850312156142b557600080fd5b82356001600160401b03808211156142cc57600080fd5b818501915085601f8301126142e057600080fd5b813560206142ed82613e95565b6040516142fa8282613e69565b83815260059390931b850182019282810191508984111561431a57600080fd5b948201945b8386101561434157853561433281613ba1565b8252948201949082019061431f565b9650508601359250508082111561435757600080fd5b5061436485828601613eb8565b9150509250929050565b600081518084526020808501945080840160005b8381101561439e57815187529582019590820190600101614382565b509495945050505050565b6020815260006113a8602083018461436e565b6000806000806000606086880312156143d457600080fd5b85356143df81613ba1565b945060208601356001600160401b03808211156143fb57600080fd5b61440789838a0161411d565b9096509450604088013591508082111561442057600080fd5b5061442d8882890161411d565b969995985093965092949392505050565b6000806000806080858703121561445457600080fd5b843561445f81613ba1565b9350602085013592506040850135915060608501356001600160401b0381111561448857600080fd5b61403487828801613f86565b600080604083850312156144a757600080fd5b50508035926020909101359150565b600080604083850312156144c957600080fd5b82356144d481613ba1565b91506020830135801515811461411257600080fd5b6000806000606084860312156144fe57600080fd5b505081359360208301359350604090920135919050565b60006020828403121561452757600080fd5b81356113a881613ba1565b6020808252825182820181905260009190848201906040850190845b8181101561457557614561838551614232565b92840192610120929092019160010161454e565b50909695505050505050565b6000806000806000806060878903121561459a57600080fd5b86356001600160401b03808211156145b157600080fd5b6145bd8a838b0161411d565b909850965060208901359150808211156145d657600080fd5b6145e28a838b0161411d565b909650945060408901359150808211156145fb57600080fd5b5061460889828a0161411d565b979a9699509497509295939492505050565b600080600080600060a0868803121561463257600080fd5b853561463d81613ba1565b9450602086013561464d81613ba1565b9350604086013592506060860135915060808601356001600160401b0381111561467657600080fd5b6140e088828901613f86565b60008060006060848603121561469757600080fd5b83356146a281613ba1565b95602085013595506040909401359392505050565b6000602082840312156146c957600080fd5b81356001600160401b038111156146df57600080fd5b8201601f810184136146f057600080fd5b61135184823560208401613f29565b600181811c9082168061471357607f821691505b60208210810361144857634e487b7160e01b600052602260045260246000fd5b634e487b7160e01b600052603260045260246000fd5b634e487b7160e01b600052601160045260246000fd5b60006001820161477157614771614749565b5060010190565b60208082526038908201527f455243313135355072657365744d696e7465725061757365723a206d7573742060408201527f68617665206d696e74657220726f6c6520746f206d696e740000000000000000606082015260800190565b6001600160a01b0391909116815260406020820181905260139082015272455343524f575f43524541544f525f524f4c4560681b606082015260800190565b6020808252602e908201527f496e697469616c697a61626c653a20636f6e747261637420697320616c72656160408201526d191e481a5b9a5d1a585b1a5e995960921b606082015260800190565b600081600019048311821515161561487c5761487c614749565b500290565b60008261489e57634e487b7160e01b600052601260045260246000fd5b500490565b6000828210156148b5576148b5614749565b500390565b60208082526010908201526f14185d5cd8589b194e881c185d5cd95960821b604082015260600190565b6000602082840312156148f657600080fd5b5051919050565b60408152600061492960408301600c81526b66726f6d4163636f756e747360a01b602082015260400190565b828103602093840152600a81526972656d6f76616c49647360b01b928101929092525060400190565b60408152600061497e60408301600c81526b66726f6d4163636f756e747360a01b602082015260400190565b8281036020938401526007815266616d6f756e747360c81b928101929092525060400190565b600082198211156149b7576149b7614749565b500190565b60208082526021908201527f455243313135353a206d696e7420746f20746865207a65726f206164647265736040820152607360f81b606082015260800190565b60208082526028908201527f455243313135353a2069647320616e6420616d6f756e7473206c656e677468206040820152670dad2e6dac2e8c6d60c31b606082015260800190565b604081526000614a58604083018561436e565b8281036020840152614a6a818561436e565b95945050505050565b7f416363657373436f6e74726f6c3a206163636f756e7420000000000000000000815260008351614aab816017850160208801613d26565b7001034b99036b4b9b9b4b733903937b6329607d1b6017918401918201528351614adc816028840160208801613d26565b01602801949350505050565b6020808252602b908201527f496e697469616c697a61626c653a20636f6e7472616374206973206e6f74206960408201526a6e697469616c697a696e6760a81b606082015260800190565b6001600160a01b0386811682528516602082015260a060408201819052600090614b5f9083018661436e565b8281036060840152614b71818661436e565b90508281036080840152614b858185613d52565b98975050505050505050565b600060208284031215614ba357600080fd5b81516113a881613cda565b600060033d1115614bc75760046000803e5060005160e01c5b90565b600060443d1015614bd85790565b6040516003193d81016004833e81513d6001600160401b038160248401118184111715614c0757505050505090565b8285019150815181811115614c1f5750505050505090565b843d8701016020828501011115614c395750505050505090565b614c4860208286010187613e69565b509095945050505050565b60208082526028908201527f455243313135353a204552433131353552656365697665722072656a656374656040820152676420746f6b656e7360c01b606082015260800190565b60208082526025908201527f455243313135353a207472616e7366657220746f20746865207a65726f206164604082015264647265737360d81b606082015260800190565b6020808252602a908201527f455243313135353a20696e73756666696369656e742062616c616e636520666f60408201526939103a3930b739b332b960b11b606082015260800190565b634e487b7160e01b600052603160045260246000fd5b600081614d4f57614d4f614749565b506000190190565b6001600160a01b03868116825285166020820152604081018490526060810183905260a060808201819052600090614d9190830184613d52565b979650505050505050565b600181815b80851115614dd7578160001904821115614dbd57614dbd614749565b80851615614dca57918102915b93841c9390800290614da1565b509250929050565b600082614dee57506001610843565b81614dfb57506000610843565b8160018114614e115760028114614e1b57614e37565b6001915050610843565b60ff841115614e2c57614e2c614749565b50506001821b610843565b5060208310610133831016604e8410600b8410161715614e5a575081810a610843565b614e648383614d9c565b8060001904821115614e7857614e78614749565b029392505050565b60006113a88383614ddf56fe696e7369646520455243313135357570677261646561626c65205f6d696e74206265666f7265206265666f7265546f6b656e5472616e7366657268747470733a2f2f6e6f72692e636f6d2f6170692f657363726f777363686564756c652f7b69647d2e6a736f6e65d7a28e3265b37a6474929f336521b332c1681b933f6cb9f3376673440d862a9f2df0fed2c77648de5860a4cc508cd0818c85b8b8a1ab4ceeef8d981c8956a602001401bd80c60ccf68a3f1bc912957d6b932fa109a68b27dee5bdb776acfc6a264697066735822122020a64f297da9dde3f68d2eec3f98ccae49f308a63bee82ec9837edda52bb145464736f6c634300080d0033",
  "linkReferences": {},
  "deployedLinkReferences": {}
}