{
  "_format": "hh-sol-artifact-1",
  "contractName": "EscrowedNORI",
  "sourceName": "contracts/EscrowedNORI.sol",
  "abi": [
    {
      "inputs": [
        {
          "internalType": "uint256",
          "name": "scheduleId",
          "type": "uint256"
        }
      ],
      "name": "AllTokensAlreadyReleased",
      "type": "error"
    },
    {
      "inputs": [
        {
          "internalType": "string",
          "name": "array1Name",
          "type": "string"
        },
        {
          "internalType": "string",
          "name": "array2Name",
          "type": "string"
        }
      ],
      "name": "ArrayLengthMismatch",
      "type": "error"
    },
    {
      "inputs": [],
      "name": "BurningNotSupported",
      "type": "error"
    },
    {
      "inputs": [
        {
          "internalType": "uint256",
          "name": "removalId",
          "type": "uint256"
        }
      ],
      "name": "EscrowDurationNotSet",
      "type": "error"
    },
    {
      "inputs": [
        {
          "internalType": "uint256",
          "name": "scheduleTokenId",
          "type": "uint256"
        },
        {
          "internalType": "uint256",
          "name": "removalIdTriggeredCreation",
          "type": "uint256"
        }
      ],
      "name": "EscrowScheduleExists",
      "type": "error"
    },
    {
      "inputs": [
        {
          "internalType": "address",
          "name": "account",
          "type": "address"
        },
        {
          "internalType": "uint256",
          "name": "scheduleId",
          "type": "uint256"
        }
      ],
      "name": "InsufficientClaimableBalance",
      "type": "error"
    },
    {
      "inputs": [
        {
          "internalType": "uint256",
          "name": "scheduleId",
          "type": "uint256"
        }
      ],
      "name": "InsufficientUnreleasedTokens",
      "type": "error"
    },
    {
      "inputs": [
        {
          "internalType": "uint256",
          "name": "scheduleId",
          "type": "uint256"
        }
      ],
      "name": "NonexistentEscrowSchedule",
      "type": "error"
    },
    {
      "inputs": [],
      "name": "OperatorActionsNotSupported",
      "type": "error"
    },
    {
      "inputs": [],
      "name": "RecipientCannotBeZeroAddress",
      "type": "error"
    },
    {
      "inputs": [
        {
          "internalType": "address",
          "name": "recipient",
          "type": "address"
        },
        {
          "internalType": "string",
          "name": "role",
          "type": "string"
        }
      ],
      "name": "RecipientCannotHaveRole",
      "type": "error"
    },
    {
      "inputs": [
        {
          "internalType": "address",
          "name": "account",
          "type": "address"
        },
        {
          "internalType": "string",
          "name": "role",
          "type": "string"
        }
      ],
      "name": "RoleCannotTransfer",
      "type": "error"
    },
    {
      "inputs": [
        {
          "internalType": "address",
          "name": "account",
          "type": "address"
        },
        {
          "internalType": "string",
          "name": "role",
          "type": "string"
        }
      ],
      "name": "RoleUnassignableToEscrowScheduleHolder",
      "type": "error"
    },
    {
      "inputs": [],
      "name": "TokenSenderNotBPNORI",
      "type": "error"
    },
    {
      "anonymous": false,
      "inputs": [
        {
          "indexed": true,
          "internalType": "address",
          "name": "account",
          "type": "address"
        },
        {
          "indexed": true,
          "internalType": "address",
          "name": "operator",
          "type": "address"
        },
        {
          "indexed": false,
          "internalType": "bool",
          "name": "approved",
          "type": "bool"
        }
      ],
      "name": "ApprovalForAll",
      "type": "event"
    },
    {
      "anonymous": false,
      "inputs": [
        {
          "indexed": true,
          "internalType": "uint256",
          "name": "scheduleId",
          "type": "uint256"
        },
        {
          "indexed": true,
          "internalType": "uint256",
          "name": "removalIdTriggeredCreation",
          "type": "uint256"
        }
      ],
      "name": "EscrowScheduleCreated",
      "type": "event"
    },
    {
      "anonymous": false,
      "inputs": [
        {
          "indexed": false,
          "internalType": "address",
          "name": "account",
          "type": "address"
        }
      ],
      "name": "Paused",
      "type": "event"
    },
    {
      "anonymous": false,
      "inputs": [
        {
          "indexed": true,
          "internalType": "bytes32",
          "name": "role",
          "type": "bytes32"
        },
        {
          "indexed": true,
          "internalType": "bytes32",
          "name": "previousAdminRole",
          "type": "bytes32"
        },
        {
          "indexed": true,
          "internalType": "bytes32",
          "name": "newAdminRole",
          "type": "bytes32"
        }
      ],
      "name": "RoleAdminChanged",
      "type": "event"
    },
    {
      "anonymous": false,
      "inputs": [
        {
          "indexed": true,
          "internalType": "bytes32",
          "name": "role",
          "type": "bytes32"
        },
        {
          "indexed": true,
          "internalType": "address",
          "name": "account",
          "type": "address"
        },
        {
          "indexed": true,
          "internalType": "address",
          "name": "sender",
          "type": "address"
        }
      ],
      "name": "RoleGranted",
      "type": "event"
    },
    {
      "anonymous": false,
      "inputs": [
        {
          "indexed": true,
          "internalType": "bytes32",
          "name": "role",
          "type": "bytes32"
        },
        {
          "indexed": true,
          "internalType": "address",
          "name": "account",
          "type": "address"
        },
        {
          "indexed": true,
          "internalType": "address",
          "name": "sender",
          "type": "address"
        }
      ],
      "name": "RoleRevoked",
      "type": "event"
    },
    {
      "anonymous": false,
      "inputs": [
        {
          "indexed": true,
          "internalType": "address",
          "name": "from",
          "type": "address"
        },
        {
          "indexed": true,
          "internalType": "address",
          "name": "to",
          "type": "address"
        },
        {
          "indexed": true,
          "internalType": "uint256",
          "name": "scheduleId",
          "type": "uint256"
        },
        {
          "indexed": false,
          "internalType": "uint256",
          "name": "quantity",
          "type": "uint256"
        }
      ],
      "name": "TokensClaimed",
      "type": "event"
    },
    {
      "anonymous": false,
      "inputs": [
        {
          "indexed": true,
          "internalType": "address",
          "name": "operator",
          "type": "address"
        },
        {
          "indexed": true,
          "internalType": "address",
          "name": "from",
          "type": "address"
        },
        {
          "indexed": true,
          "internalType": "address",
          "name": "to",
          "type": "address"
        },
        {
          "indexed": false,
          "internalType": "uint256[]",
          "name": "ids",
          "type": "uint256[]"
        },
        {
          "indexed": false,
          "internalType": "uint256[]",
          "name": "values",
          "type": "uint256[]"
        }
      ],
      "name": "TransferBatch",
      "type": "event"
    },
    {
      "anonymous": false,
      "inputs": [
        {
          "indexed": true,
          "internalType": "address",
          "name": "operator",
          "type": "address"
        },
        {
          "indexed": true,
          "internalType": "address",
          "name": "from",
          "type": "address"
        },
        {
          "indexed": true,
          "internalType": "address",
          "name": "to",
          "type": "address"
        },
        {
          "indexed": false,
          "internalType": "uint256",
          "name": "id",
          "type": "uint256"
        },
        {
          "indexed": false,
          "internalType": "uint256",
          "name": "value",
          "type": "uint256"
        }
      ],
      "name": "TransferSingle",
      "type": "event"
    },
    {
      "anonymous": false,
      "inputs": [
        {
          "indexed": false,
          "internalType": "string",
          "name": "value",
          "type": "string"
        },
        {
          "indexed": true,
          "internalType": "uint256",
          "name": "id",
          "type": "uint256"
        }
      ],
      "name": "URI",
      "type": "event"
    },
    {
      "anonymous": false,
      "inputs": [
        {
          "indexed": false,
          "internalType": "address",
          "name": "account",
          "type": "address"
        }
      ],
      "name": "Unpaused",
      "type": "event"
    },
    {
      "anonymous": false,
      "inputs": [
        {
          "indexed": true,
          "internalType": "uint256",
          "name": "atTime",
          "type": "uint256"
        },
        {
          "indexed": true,
          "internalType": "uint256",
          "name": "removalId",
          "type": "uint256"
        },
        {
          "indexed": true,
          "internalType": "uint256",
          "name": "scheduleId",
          "type": "uint256"
        },
        {
          "indexed": false,
          "internalType": "uint256",
          "name": "quantity",
          "type": "uint256"
        }
      ],
      "name": "UnreleasedTokensRevoked",
      "type": "event"
    },
    {
      "inputs": [],
      "name": "DEFAULT_ADMIN_ROLE",
      "outputs": [
        {
          "internalType": "bytes32",
          "name": "",
          "type": "bytes32"
        }
      ],
      "stateMutability": "view",
      "type": "function"
    },
    {
      "inputs": [],
      "name": "ERC777_TOKENS_RECIPIENT_HASH",
      "outputs": [
        {
          "internalType": "bytes32",
          "name": "",
          "type": "bytes32"
        }
      ],
      "stateMutability": "view",
      "type": "function"
    },
    {
      "inputs": [],
      "name": "ESCROW_CREATOR_ROLE",
      "outputs": [
        {
          "internalType": "bytes32",
          "name": "",
          "type": "bytes32"
        }
      ],
      "stateMutability": "view",
      "type": "function"
    },
    {
      "inputs": [],
      "name": "MINTER_ROLE",
      "outputs": [
        {
          "internalType": "bytes32",
          "name": "",
          "type": "bytes32"
        }
      ],
      "stateMutability": "view",
      "type": "function"
    },
    {
      "inputs": [],
      "name": "PAUSER_ROLE",
      "outputs": [
        {
          "internalType": "bytes32",
          "name": "",
          "type": "bytes32"
        }
      ],
      "stateMutability": "view",
      "type": "function"
    },
    {
      "inputs": [],
      "name": "TOKEN_REVOKER_ROLE",
      "outputs": [
        {
          "internalType": "bytes32",
          "name": "",
          "type": "bytes32"
        }
      ],
      "stateMutability": "view",
      "type": "function"
    },
    {
      "inputs": [
        {
          "internalType": "address",
          "name": "account",
          "type": "address"
        },
        {
          "internalType": "uint256",
          "name": "id",
          "type": "uint256"
        }
      ],
      "name": "balanceOf",
      "outputs": [
        {
          "internalType": "uint256",
          "name": "",
          "type": "uint256"
        }
      ],
      "stateMutability": "view",
      "type": "function"
    },
    {
      "inputs": [
        {
          "internalType": "address[]",
          "name": "accounts",
          "type": "address[]"
        },
        {
          "internalType": "uint256[]",
          "name": "ids",
          "type": "uint256[]"
        }
      ],
      "name": "balanceOfBatch",
      "outputs": [
        {
          "internalType": "uint256[]",
          "name": "",
          "type": "uint256[]"
        }
      ],
      "stateMutability": "view",
      "type": "function"
    },
    {
      "inputs": [
        {
          "internalType": "uint256[]",
          "name": "removalIds",
          "type": "uint256[]"
        }
      ],
      "name": "batchCreateEscrowSchedule",
      "outputs": [],
      "stateMutability": "nonpayable",
      "type": "function"
    },
    {
      "inputs": [
        {
          "internalType": "address",
          "name": "account",
          "type": "address"
        }
      ],
      "name": "batchGetEscrowScheduleDetailsForAccount",
      "outputs": [
        {
          "components": [
            {
              "internalType": "address",
              "name": "tokenHolder",
              "type": "address"
            },
            {
              "internalType": "uint256",
              "name": "scheduleTokenId",
              "type": "uint256"
            },
            {
              "internalType": "uint256",
              "name": "startTime",
              "type": "uint256"
            },
            {
              "internalType": "uint256",
              "name": "endTime",
              "type": "uint256"
            },
            {
              "internalType": "uint256",
              "name": "balance",
              "type": "uint256"
            },
            {
              "internalType": "uint256",
              "name": "claimableAmount",
              "type": "uint256"
            },
            {
              "internalType": "uint256",
              "name": "claimedAmount",
              "type": "uint256"
            },
            {
              "internalType": "uint256",
              "name": "quantityRevoked",
              "type": "uint256"
            },
            {
              "internalType": "bool",
              "name": "exists",
              "type": "bool"
            }
          ],
          "internalType": "struct EscrowedNORI.EscrowScheduleDetailForAddress[]",
          "name": "",
          "type": "tuple[]"
        }
      ],
      "stateMutability": "view",
      "type": "function"
    },
    {
      "inputs": [
        {
          "internalType": "uint256[]",
          "name": "scheduleIds",
          "type": "uint256[]"
        }
      ],
      "name": "batchGetEscrowScheduleSummaries",
      "outputs": [
        {
          "components": [
            {
              "internalType": "uint256",
              "name": "scheduleTokenId",
              "type": "uint256"
            },
            {
              "internalType": "uint256",
              "name": "startTime",
              "type": "uint256"
            },
            {
              "internalType": "uint256",
              "name": "endTime",
              "type": "uint256"
            },
            {
              "internalType": "uint256",
              "name": "totalSupply",
              "type": "uint256"
            },
            {
              "internalType": "uint256",
              "name": "totalClaimableAmount",
              "type": "uint256"
            },
            {
              "internalType": "uint256",
              "name": "totalClaimedAmount",
              "type": "uint256"
            },
            {
              "internalType": "uint256",
              "name": "totalQuantityRevoked",
              "type": "uint256"
            },
            {
              "internalType": "address[]",
              "name": "tokenHolders",
              "type": "address[]"
            },
            {
              "internalType": "bool",
              "name": "exists",
              "type": "bool"
            }
          ],
          "internalType": "struct EscrowedNORI.EscrowScheduleSummary[]",
          "name": "",
          "type": "tuple[]"
        }
      ],
      "stateMutability": "view",
      "type": "function"
    },
    {
      "inputs": [
        {
          "internalType": "address[]",
          "name": "toAccounts",
          "type": "address[]"
        },
        {
          "internalType": "uint256[]",
          "name": "removalIds",
          "type": "uint256[]"
        },
        {
          "internalType": "uint256[]",
          "name": "amounts",
          "type": "uint256[]"
        }
      ],
      "name": "batchRevokeUnreleasedTokenAmounts",
      "outputs": [],
      "stateMutability": "nonpayable",
      "type": "function"
    },
    {
      "inputs": [
        {
          "internalType": "address",
          "name": "",
          "type": "address"
        },
        {
          "internalType": "uint256",
          "name": "",
          "type": "uint256"
        },
        {
          "internalType": "uint256",
          "name": "",
          "type": "uint256"
        }
      ],
      "name": "burn",
      "outputs": [],
      "stateMutability": "pure",
      "type": "function"
    },
    {
      "inputs": [
        {
          "internalType": "address",
          "name": "",
          "type": "address"
        },
        {
          "internalType": "uint256[]",
          "name": "",
          "type": "uint256[]"
        },
        {
          "internalType": "uint256[]",
          "name": "",
          "type": "uint256[]"
        }
      ],
      "name": "burnBatch",
      "outputs": [],
      "stateMutability": "pure",
      "type": "function"
    },
    {
      "inputs": [
        {
          "internalType": "uint256",
          "name": "scheduleId",
          "type": "uint256"
        }
      ],
      "name": "claimableBalanceForSchedule",
      "outputs": [
        {
          "internalType": "uint256",
          "name": "",
          "type": "uint256"
        }
      ],
      "stateMutability": "view",
      "type": "function"
    },
    {
      "inputs": [
        {
          "internalType": "uint256",
          "name": "scheduleId",
          "type": "uint256"
        },
        {
          "internalType": "address",
          "name": "account",
          "type": "address"
        }
      ],
      "name": "claimableBalanceForScheduleForAccount",
      "outputs": [
        {
          "internalType": "uint256",
          "name": "",
          "type": "uint256"
        }
      ],
      "stateMutability": "view",
      "type": "function"
    },
    {
      "inputs": [
        {
          "internalType": "uint256",
          "name": "removalId",
          "type": "uint256"
        }
      ],
      "name": "createEscrowSchedule",
      "outputs": [],
      "stateMutability": "nonpayable",
      "type": "function"
    },
    {
      "inputs": [
        {
          "internalType": "uint256",
          "name": "id",
          "type": "uint256"
        }
      ],
      "name": "exists",
      "outputs": [
        {
          "internalType": "bool",
          "name": "",
          "type": "bool"
        }
      ],
      "stateMutability": "view",
      "type": "function"
    },
    {
      "inputs": [],
      "name": "getAllScheduleIds",
      "outputs": [
        {
          "internalType": "uint256[]",
          "name": "",
          "type": "uint256[]"
        }
      ],
      "stateMutability": "view",
      "type": "function"
    },
    {
      "inputs": [
        {
          "internalType": "uint256",
          "name": "methodology",
          "type": "uint256"
        },
        {
          "internalType": "uint256",
          "name": "methodologyVersion",
          "type": "uint256"
        }
      ],
      "name": "getEscrowDurationForMethodologyAndVersion",
      "outputs": [
        {
          "internalType": "uint256",
          "name": "",
          "type": "uint256"
        }
      ],
      "stateMutability": "view",
      "type": "function"
    },
    {
      "inputs": [
        {
          "internalType": "address",
          "name": "account",
          "type": "address"
        },
        {
          "internalType": "uint256",
          "name": "scheduleId",
          "type": "uint256"
        }
      ],
      "name": "getEscrowScheduleDetailForAccount",
      "outputs": [
        {
          "components": [
            {
              "internalType": "address",
              "name": "tokenHolder",
              "type": "address"
            },
            {
              "internalType": "uint256",
              "name": "scheduleTokenId",
              "type": "uint256"
            },
            {
              "internalType": "uint256",
              "name": "startTime",
              "type": "uint256"
            },
            {
              "internalType": "uint256",
              "name": "endTime",
              "type": "uint256"
            },
            {
              "internalType": "uint256",
              "name": "balance",
              "type": "uint256"
            },
            {
              "internalType": "uint256",
              "name": "claimableAmount",
              "type": "uint256"
            },
            {
              "internalType": "uint256",
              "name": "claimedAmount",
              "type": "uint256"
            },
            {
              "internalType": "uint256",
              "name": "quantityRevoked",
              "type": "uint256"
            },
            {
              "internalType": "bool",
              "name": "exists",
              "type": "bool"
            }
          ],
          "internalType": "struct EscrowedNORI.EscrowScheduleDetailForAddress",
          "name": "",
          "type": "tuple"
        }
      ],
      "stateMutability": "view",
      "type": "function"
    },
    {
      "inputs": [
        {
          "internalType": "uint256",
          "name": "scheduleId",
          "type": "uint256"
        }
      ],
      "name": "getEscrowScheduleSummary",
      "outputs": [
        {
          "components": [
            {
              "internalType": "uint256",
              "name": "scheduleTokenId",
              "type": "uint256"
            },
            {
              "internalType": "uint256",
              "name": "startTime",
              "type": "uint256"
            },
            {
              "internalType": "uint256",
              "name": "endTime",
              "type": "uint256"
            },
            {
              "internalType": "uint256",
              "name": "totalSupply",
              "type": "uint256"
            },
            {
              "internalType": "uint256",
              "name": "totalClaimableAmount",
              "type": "uint256"
            },
            {
              "internalType": "uint256",
              "name": "totalClaimedAmount",
              "type": "uint256"
            },
            {
              "internalType": "uint256",
              "name": "totalQuantityRevoked",
              "type": "uint256"
            },
            {
              "internalType": "address[]",
              "name": "tokenHolders",
              "type": "address[]"
            },
            {
              "internalType": "bool",
              "name": "exists",
              "type": "bool"
            }
          ],
          "internalType": "struct EscrowedNORI.EscrowScheduleSummary",
          "name": "",
          "type": "tuple"
        }
      ],
      "stateMutability": "view",
      "type": "function"
    },
    {
      "inputs": [
        {
          "internalType": "bytes32",
          "name": "role",
          "type": "bytes32"
        }
      ],
      "name": "getRoleAdmin",
      "outputs": [
        {
          "internalType": "bytes32",
          "name": "",
          "type": "bytes32"
        }
      ],
      "stateMutability": "view",
      "type": "function"
    },
    {
      "inputs": [
        {
          "internalType": "bytes32",
          "name": "role",
          "type": "bytes32"
        },
        {
          "internalType": "uint256",
          "name": "index",
          "type": "uint256"
        }
      ],
      "name": "getRoleMember",
      "outputs": [
        {
          "internalType": "address",
          "name": "",
          "type": "address"
        }
      ],
      "stateMutability": "view",
      "type": "function"
    },
    {
      "inputs": [
        {
          "internalType": "bytes32",
          "name": "role",
          "type": "bytes32"
        }
      ],
      "name": "getRoleMemberCount",
      "outputs": [
        {
          "internalType": "uint256",
          "name": "",
          "type": "uint256"
        }
      ],
      "stateMutability": "view",
      "type": "function"
    },
    {
      "inputs": [
        {
          "internalType": "address",
          "name": "account",
          "type": "address"
        }
      ],
      "name": "getScheduleIdsForAccount",
      "outputs": [
        {
          "internalType": "uint256[]",
          "name": "",
          "type": "uint256[]"
        }
      ],
      "stateMutability": "view",
      "type": "function"
    },
    {
      "inputs": [
        {
          "internalType": "bytes32",
          "name": "role",
          "type": "bytes32"
        },
        {
          "internalType": "address",
          "name": "account",
          "type": "address"
        }
      ],
      "name": "grantRole",
      "outputs": [],
      "stateMutability": "nonpayable",
      "type": "function"
    },
    {
      "inputs": [
        {
          "internalType": "bytes32",
          "name": "role",
          "type": "bytes32"
        },
        {
          "internalType": "address",
          "name": "account",
          "type": "address"
        }
      ],
      "name": "hasRole",
      "outputs": [
        {
          "internalType": "bool",
          "name": "",
          "type": "bool"
        }
      ],
      "stateMutability": "view",
      "type": "function"
    },
    {
      "inputs": [
        {
          "internalType": "contract BridgedPolygonNORI",
          "name": "bridgedPolygonNoriAddress",
          "type": "address"
        },
        {
          "internalType": "contract Removal",
          "name": "removalAddress",
          "type": "address"
        }
      ],
      "name": "initialize",
      "outputs": [],
      "stateMutability": "nonpayable",
      "type": "function"
    },
    {
      "inputs": [
        {
          "internalType": "string",
          "name": "uri",
          "type": "string"
        }
      ],
      "name": "initialize",
      "outputs": [],
      "stateMutability": "nonpayable",
      "type": "function"
    },
    {
      "inputs": [
        {
          "internalType": "address",
          "name": "",
          "type": "address"
        },
        {
          "internalType": "address",
          "name": "",
          "type": "address"
        }
      ],
      "name": "isApprovedForAll",
      "outputs": [
        {
          "internalType": "bool",
          "name": "",
          "type": "bool"
        }
      ],
      "stateMutability": "pure",
      "type": "function"
    },
    {
      "inputs": [
        {
          "internalType": "address",
          "name": "to",
          "type": "address"
        },
        {
          "internalType": "uint256",
          "name": "id",
          "type": "uint256"
        },
        {
          "internalType": "uint256",
          "name": "amount",
          "type": "uint256"
        },
        {
          "internalType": "bytes",
          "name": "data",
          "type": "bytes"
        }
      ],
      "name": "mint",
      "outputs": [],
      "stateMutability": "nonpayable",
      "type": "function"
    },
    {
      "inputs": [
        {
          "internalType": "address",
          "name": "to",
          "type": "address"
        },
        {
          "internalType": "uint256[]",
          "name": "ids",
          "type": "uint256[]"
        },
        {
          "internalType": "uint256[]",
          "name": "amounts",
          "type": "uint256[]"
        },
        {
          "internalType": "bytes",
          "name": "data",
          "type": "bytes"
        }
      ],
      "name": "mintBatch",
      "outputs": [],
      "stateMutability": "nonpayable",
      "type": "function"
    },
    {
      "inputs": [],
      "name": "pause",
      "outputs": [],
      "stateMutability": "nonpayable",
      "type": "function"
    },
    {
      "inputs": [],
      "name": "paused",
      "outputs": [
        {
          "internalType": "bool",
          "name": "",
          "type": "bool"
        }
      ],
      "stateMutability": "view",
      "type": "function"
    },
    {
      "inputs": [
        {
          "internalType": "uint256",
          "name": "removalId",
          "type": "uint256"
        }
      ],
      "name": "removalIdToScheduleId",
      "outputs": [
        {
          "internalType": "uint256",
          "name": "",
          "type": "uint256"
        }
      ],
      "stateMutability": "view",
      "type": "function"
    },
    {
      "inputs": [
        {
          "internalType": "bytes32",
          "name": "role",
          "type": "bytes32"
        },
        {
          "internalType": "address",
          "name": "account",
          "type": "address"
        }
      ],
      "name": "renounceRole",
      "outputs": [],
      "stateMutability": "nonpayable",
      "type": "function"
    },
    {
      "inputs": [
        {
          "internalType": "uint256",
          "name": "scheduleId",
          "type": "uint256"
        }
      ],
      "name": "revocableQuantityForSchedule",
      "outputs": [
        {
          "internalType": "uint256",
          "name": "",
          "type": "uint256"
        }
      ],
      "stateMutability": "view",
      "type": "function"
    },
    {
      "inputs": [
        {
          "internalType": "bytes32",
          "name": "role",
          "type": "bytes32"
        },
        {
          "internalType": "address",
          "name": "account",
          "type": "address"
        }
      ],
      "name": "revokeRole",
      "outputs": [],
      "stateMutability": "nonpayable",
      "type": "function"
    },
    {
      "inputs": [
        {
          "internalType": "address",
          "name": "from",
          "type": "address"
        },
        {
          "internalType": "address",
          "name": "to",
          "type": "address"
        },
        {
          "internalType": "uint256[]",
          "name": "ids",
          "type": "uint256[]"
        },
        {
          "internalType": "uint256[]",
          "name": "amounts",
          "type": "uint256[]"
        },
        {
          "internalType": "bytes",
          "name": "data",
          "type": "bytes"
        }
      ],
      "name": "safeBatchTransferFrom",
      "outputs": [],
      "stateMutability": "nonpayable",
      "type": "function"
    },
    {
      "inputs": [
        {
          "internalType": "address",
          "name": "from",
          "type": "address"
        },
        {
          "internalType": "address",
          "name": "to",
          "type": "address"
        },
        {
          "internalType": "uint256",
          "name": "id",
          "type": "uint256"
        },
        {
          "internalType": "uint256",
          "name": "amount",
          "type": "uint256"
        },
        {
          "internalType": "bytes",
          "name": "data",
          "type": "bytes"
        }
      ],
      "name": "safeTransferFrom",
      "outputs": [],
      "stateMutability": "nonpayable",
      "type": "function"
    },
    {
      "inputs": [
        {
          "internalType": "address",
          "name": "",
          "type": "address"
        },
        {
          "internalType": "bool",
          "name": "",
          "type": "bool"
        }
      ],
      "name": "setApprovalForAll",
      "outputs": [],
      "stateMutability": "pure",
      "type": "function"
    },
    {
      "inputs": [
        {
          "internalType": "uint256",
          "name": "methodology",
          "type": "uint256"
        },
        {
          "internalType": "uint256",
          "name": "methodologyVersion",
          "type": "uint256"
        },
        {
          "internalType": "uint256",
          "name": "durationInSeconds",
          "type": "uint256"
        }
      ],
      "name": "setEscrowDurationForMethodologyAndVersion",
      "outputs": [
        {
          "internalType": "uint256",
          "name": "",
          "type": "uint256"
        }
      ],
      "stateMutability": "nonpayable",
      "type": "function"
    },
    {
      "inputs": [
        {
          "internalType": "bytes4",
          "name": "interfaceId",
          "type": "bytes4"
        }
      ],
      "name": "supportsInterface",
      "outputs": [
        {
          "internalType": "bool",
          "name": "",
          "type": "bool"
        }
      ],
      "stateMutability": "view",
      "type": "function"
    },
    {
      "inputs": [
        {
          "internalType": "address",
          "name": "sender",
          "type": "address"
        },
        {
          "internalType": "address",
          "name": "",
          "type": "address"
        },
        {
          "internalType": "address",
          "name": "",
          "type": "address"
        },
        {
          "internalType": "uint256",
          "name": "amount",
          "type": "uint256"
        },
        {
          "internalType": "bytes",
          "name": "userData",
          "type": "bytes"
        },
        {
          "internalType": "bytes",
          "name": "operatorData",
          "type": "bytes"
        }
      ],
      "name": "tokensReceived",
      "outputs": [],
      "stateMutability": "nonpayable",
      "type": "function"
    },
    {
      "inputs": [
        {
          "internalType": "uint256",
          "name": "id",
          "type": "uint256"
        }
      ],
      "name": "totalSupply",
      "outputs": [
        {
          "internalType": "uint256",
          "name": "",
          "type": "uint256"
        }
      ],
      "stateMutability": "view",
      "type": "function"
    },
    {
      "inputs": [],
      "name": "unpause",
      "outputs": [],
      "stateMutability": "nonpayable",
      "type": "function"
    },
    {
      "inputs": [
        {
          "internalType": "uint256",
          "name": "",
          "type": "uint256"
        }
      ],
      "name": "uri",
      "outputs": [
        {
          "internalType": "string",
          "name": "",
          "type": "string"
        }
      ],
      "stateMutability": "view",
      "type": "function"
    },
    {
      "inputs": [
        {
          "internalType": "address",
          "name": "recipient",
          "type": "address"
        },
        {
          "internalType": "uint256",
          "name": "scheduleId",
          "type": "uint256"
        },
        {
          "internalType": "uint256",
          "name": "amount",
          "type": "uint256"
        }
      ],
      "name": "withdrawFromEscrowSchedule",
      "outputs": [
        {
          "internalType": "bool",
          "name": "",
          "type": "bool"
        }
      ],
      "stateMutability": "nonpayable",
      "type": "function"
    }
  ],
  "bytecode": "0x608060405234801561001057600080fd5b50615086806100206000396000f3fe608060405234801561001057600080fd5b50600436106102b95760003560e01c80637e2d943411610182578063caa423b0116100e9578063e01d7393116100a2578063f242432a1161007c578063f242432a146106e2578063f5298aca146106f5578063f62d188814610703578063f77b94fe1461071657600080fd5b8063e01d7393146106a7578063e63ab1e9146106ba578063e985e9c5146106cf57600080fd5b8063caa423b014610624578063d539139314610644578063d547741f14610659578063d943dac71461066c578063daa55af01461067f578063dfd2cdee1461069457600080fd5b8063a22cb4651161013b578063a22cb46514610590578063b6f66b7a146105a3578063b8b4dbe0146105b6578063bd85b039146105dd578063be24051f146105fe578063ca15c8731461061157600080fd5b80637e2d9434146105035780638456cb591461052f5780638f9e8e49146105375780639010d07c1461054a57806391d1485414610575578063a217fddf1461058857600080fd5b8063485cc955116102265780635d37165a116101df5780635d37165a1461049c5780636235a4e9146104af57806363343346146104c25780636b20c454146104ca578063713279b1146104dd578063731133e9146104f057600080fd5b8063485cc955146103f35780634aac766d146104065780634e1273f4146104265780634f558e7914610446578063521189a9146104695780635c975abb1461049057600080fd5b8063248a9ca311610278578063248a9ca31461036f5780632eb2c2d6146103925780632f2ff15d146103a557806336568abe146103b85780633f4ba83a146103cb578063476d3e74146103d357600080fd5b806223de29146102be578062fdd58e146102d357806301ffc9a7146102f95780630e89341c1461031c578063157abb391461033c5780631f7fdffa1461035c575b600080fd5b6102d16102cc366004613cfb565b610729565b005b6102e66102e1366004613dab565b6107ef565b6040519081526020015b60405180910390f35b61030c610307366004613ded565b61088b565b60405190151581526020016102f0565b61032f61032a366004613e0a565b610896565b6040516102f09190613e7b565b61034f61034a366004613e0a565b61092a565b6040516102f09190613f3d565b6102d161036a3660046140a3565b610ae8565b6102e661037d366004613e0a565b60009081526065602052604090206001015490565b6102d16103a036600461413d565b610b2e565b6102d16103b33660046141ea565b610ca0565b6102d16103c63660046141ea565b610ccb565b6102d1610d49565b6103e66103e136600461425e565b610ddd565b6040516102f0919061429f565b6102d1610401366004614301565b610e99565b610419610414366004613dab565b61111d565b6040516102f09190614390565b61043961043436600461439f565b6111d4565b6040516102f091906144a6565b61030c610454366004613e0a565b60009081526101c36020526040902054151590565b6102e67fb281fc8c12954d22544db45de3159a39272895b169a852b314f9cc762e44c53b81565b61012d5460ff1661030c565b6102e66104aa3660046141ea565b6112e8565b6102e66104bd366004613e0a565b6113a6565b6104396113fc565b6102d16104d83660046144b9565b61149b565b6102e66104eb366004613e0a565b6114b4565b6102d16104fe36600461453b565b6114e1565b6102e6610511366004614591565b60009182526101f56020908152604080842092845291905290205490565b6102d1611521565b6102d161054536600461425e565b6115b3565b61055d610558366004614591565b61166f565b6040516001600160a01b0390911681526020016102f0565b61030c6105833660046141ea565b611687565b6102e6600081565b6102d161059e3660046145b3565b6116b2565b6102e66105b13660046145e6565b6116cb565b6102e67f813b9efdf6afe6b57682eb1fb850711edc34da21ae7f7376cb7a391b1be3239f81565b6102e66105eb366004613e0a565b60009081526101c3602052604090205490565b6102d161060c366004613e0a565b611727565b6102e661061f366004613e0a565b61176d565b610637610632366004614612565b611784565b6040516102f0919061462f565b6102e660008051602061501183398151915281565b6102d16106673660046141ea565b61184d565b6102e661067a366004613e0a565b611873565b6102e660008051602061503183398151915281565b6104396106a2366004614612565b611981565b6102d16106b536600461467e565b611a2e565b6102e6600080516020614ff183398151915281565b61030c6106dd366004614301565b611b45565b6102d16106f0366004614717565b611b60565b6102d16104d836600461477f565b6102d16107113660046147b4565b611c00565b61030c61072436600461477f565b611c7b565b6101fa546001600160a01b0316336001600160a01b03161461075e57604051634628d20b60e01b815260040160405180910390fd5b600061076c84860186613e0a565b90506107e3818787878080601f01602080910402602001604051908101604052809392919081815260200183838082843760009201919091525050604080516020601f8b018190048102820181019092528981529250899150889081908401838280828437600092019190915250611d9b92505050565b50505050505050505050565b60006001600160a01b0383166108605760405162461bcd60e51b815260206004820152602b60248201527f455243313135353a2062616c616e636520717565727920666f7220746865207a60448201526a65726f206164647265737360a81b60648201526084015b60405180910390fd5b50600081815260c9602090815260408083206001600160a01b03861684529091529020545b92915050565b600061088582611e44565b606060cb80546108a5906147fc565b80601f01602080910402602001604051908101604052809291908181526020018280546108d1906147fc565b801561091e5780601f106108f35761010080835404028352916020019161091e565b820191906000526020600020905b81548152906001019060200180831161090157829003601f168201915b50505050509050919050565b610932613b60565b60008281526101f7602052604081209061094e60068301611e4f565b90506000816001600160401b0381111561096a5761096a613f50565b604051908082528060200260200182016040528015610993578160200160208202803683370190505b5090506000826001600160401b038111156109b0576109b0613f50565b6040519080825280602002602001820160405280156109d9578160200160208202803683370190505b50905060005b6109eb85600601611e4f565b811015610a61576109ff6006860182611e59565b838281518110610a1157610a11614830565b60200260200101906001600160a01b031690816001600160a01b03168152505086828281518110610a4457610a44614830565b602090810291909101015280610a598161485c565b9150506109df565b506040518061012001604052808781526020018560000154815260200185600101548152602001610a9f8860009081526101c3602052604090205490565b8152602001610aad886113a6565b81526002860154602082015260048601546040820152606081019390935260039094015460ff16151560809092019190915250909392505050565b610b0060008051602061501183398151915233611687565b610b1c5760405162461bcd60e51b815260040161085790614875565b610b2884848484611e65565b50505050565b610b3b8585858585611fc7565b60005b8351811015610c985760006101f76000868481518110610b6057610b60614830565b602002602001015181526020019081526020016000209050838281518110610b8a57610b8a614830565b6020026020010151600014610bfa57610bea858381518110610bae57610bae614830565b60200260200101516101f66000896001600160a01b03166001600160a01b0316815260200190815260200160002061205790919063ffffffff16565b50610bf86006820187612063565b505b610c1d87868481518110610c1057610c10614830565b60200260200101516107ef565b600003610c8557610c75858381518110610c3957610c39614830565b60200260200101516101f660008a6001600160a01b03166001600160a01b0316815260200190815260200160002061207890919063ffffffff16565b50610c836006820188612084565b505b5080610c908161485c565b915050610b3e565b505050505050565b600082815260656020526040902060010154610cbc8133612099565b610cc683836120fd565b505050565b6001600160a01b0381163314610d3b5760405162461bcd60e51b815260206004820152602f60248201527f416363657373436f6e74726f6c3a2063616e206f6e6c792072656e6f756e636560448201526e103937b632b9903337b91039b2b63360891b6064820152608401610857565b610d45828261215f565b5050565b610d61600080516020614ff183398151915233611687565b610dd35760405162461bcd60e51b815260206004820152603b60248201527f455243313135355072657365744d696e7465725061757365723a206d7573742060448201527f686176652070617573657220726f6c6520746f20756e706175736500000000006064820152608401610857565b610ddb612181565b565b60606000826001600160401b03811115610df957610df9613f50565b604051908082528060200260200182016040528015610e3257816020015b610e1f613b60565b815260200190600190039081610e175790505b50905060005b83811015610e9157610e61858583818110610e5557610e55614830565b9050602002013561092a565b828281518110610e7357610e73614830565b60200260200101819052508080610e899061485c565b915050610e38565b509392505050565b600054610100900460ff16610eb45760005460ff1615610eb8565b303b155b610ed45760405162461bcd60e51b8152600401610857906148d2565b600054610100900460ff16158015610ef6576000805461ffff19166101011790555b610f176040518060600160405280602d8152602001614fc4602d9139611c00565b604080516001808252818301909252600091602080830190803683370190505090503381600081518110610f4d57610f4d614830565b60200260200101906001600160a01b031690816001600160a01b031681525050610f75612216565b610f7d612216565b610f85612216565b610f8d612216565b610f9561223d565b610f9d612216565b6101fa80546001600160a01b038681166001600160a01b0319928316179092556101fb8054928616929091168217905560405163058740e560e31b8152306004820152632c3a072890602401600060405180830381600087803b15801561100357600080fd5b505af1158015611017573d6000803e3d6000fd5b50506040516329965a1d60e01b815230600482018190527fb281fc8c12954d22544db45de3159a39272895b169a852b314f9cc762e44c53b60248301526044820152731820a4b7618bde71dce8cdc73aab6c95905fad2492506329965a1d9150606401600060405180830381600087803b15801561109457600080fd5b505af11580156110a8573d6000803e3d6000fd5b505050506110ca6000805160206150318339815191526110c53390565b612271565b6110f47f813b9efdf6afe6b57682eb1fb850711edc34da21ae7f7376cb7a391b1be3239f33612271565b611105600160006312cf35706116cb565b50508015610cc6576000805461ff0019169055505050565b611125613bae565b60008281526101f760209081526040918290208251610120810184526001600160a01b0387168152918201859052805492820192909252600182015460608201526080810161117486866107ef565b815260200161118385876112e8565b81526001600160a01b038616600081815260088501602090815260408083205482860152928252600986019052819020549082015260039092015460ff161515606090920191909152905092915050565b606081518351146112395760405162461bcd60e51b815260206004820152602960248201527f455243313135353a206163636f756e747320616e6420696473206c656e677468604482015268040dad2e6dac2e8c6d60bb1b6064820152608401610857565b600083516001600160401b0381111561125457611254613f50565b60405190808252806020026020018201604052801561127d578160200160208202803683370190505b50905060005b8451811015610e91576112bb8582815181106112a1576112a1614830565b6020026020010151858381518110610c1057610c10614830565b8282815181106112cd576112cd614830565b60209081029190910101526112e18161485c565b9050611283565b60008281526101f7602090815260408083206101c39092528220546002820154839161131391614920565b90508060000361132857600092505050610885565b600061133485876107ef565b6001600160a01b038616600090815260088501602052604081205491925061135b886113a6565b9050600082858760020154846113719190614920565b61137b8787614920565b6113859190614938565b61138f9190614957565b6113999190614979565b9998505050505050505050565b60008181526101f760205260408120600381015460ff166113dd57604051633470367960e11b815260048101849052602401610857565b80600201546113eb8461227b565b6113f59190614979565b9392505050565b6060600061140b6101f8611e4f565b6001600160401b0381111561142257611422613f50565b60405190808252806020026020018201604052801561144b578160200160208202803683370190505b50905060005b8151811015611495576114666101f882611e59565b82828151811061147857611478614830565b60209081029190910101528061148d8161485c565b915050611451565b50919050565b60405163fd647c0960e01b815260040160405180910390fd5b60008181526101f7602052604081206114cc8361227b565b60008481526101c360205260409020546113eb565b6114f960008051602061501183398151915233611687565b6115155760405162461bcd60e51b815260040161085790614875565b610b28848484846122a0565b611539600080516020614ff183398151915233611687565b6115ab5760405162461bcd60e51b815260206004820152603960248201527f455243313135355072657365744d696e7465725061757365723a206d7573742060448201527f686176652070617573657220726f6c6520746f207061757365000000000000006064820152608401610857565b610ddb61239d565b61012d5460ff16156115d75760405162461bcd60e51b815260040161085790614990565b6000805160206150318339815191526115f08133612099565b60005b82811015610b2857600061161e85858481811061161257611612614830565b90506020020135611873565b60008181526101f7602052604090206003015490915060ff1661165c5761165c85858481811061165057611650614830565b905060200201356123f7565b50806116678161485c565b9150506115f3565b60008281526097602052604081206113f59083611e59565b60009182526065602090815260408084206001600160a01b0393909316845291905290205460ff1690565b604051636461329360e01b815260040160405180910390fd5b60006116da61012d5460ff1690565b156116f75760405162461bcd60e51b815260040161085790614990565b60006117038133612099565b5060009384526101f560209081526040808620948652939052919092209190915590565b61012d5460ff161561174b5760405162461bcd60e51b815260040161085790614990565b6000805160206150318339815191526117648133612099565b610d45826123f7565b600081815260976020526040812061088590611e4f565b6001600160a01b03811660009081526101f6602052604081206060916117a982611e4f565b6001600160401b038111156117c0576117c0613f50565b6040519080825280602002602001820160405280156117f957816020015b6117e6613bae565b8152602001906001900390816117de5790505b50905060005b61180883611e4f565b811015610e915761181d856104148584611e59565b82828151811061182f5761182f614830565b602002602001018190525080806118459061485c565b9150506117ff565b6000828152606560205260409020600101546118698133612099565b610cc6838361215f565b60008061187f836125ff565b905060006118bc61188f8561260e565b60ff1661189b86612627565b60ff1660009182526101f56020908152604080842092845291905290205490565b6101fb546040516374d03ff760e01b8152600481018790529192506000916001600160a01b03909116906374d03ff790602401602060405180830381865afa15801561190c573d6000803e3d6000fd5b505050506040513d601f19601f8201168201806040525081019061193091906149ba565b6040516bffffffffffffffffffffffff19606086901b166020820152603481018490526054810182905290915060740160408051601f19818403018152919052805160209091012095945050505050565b6001600160a01b03811660009081526101f6602052604081206060916119a682611e4f565b6001600160401b038111156119bd576119bd613f50565b6040519080825280602002602001820160405280156119e6578160200160208202803683370190505b50905060005b8151811015610e91576119ff8382611e59565b828281518110611a1157611a11614830565b602090810291909101015280611a268161485c565b9150506119ec565b61012d5460ff1615611a525760405162461bcd60e51b815260040161085790614990565b7f813b9efdf6afe6b57682eb1fb850711edc34da21ae7f7376cb7a391b1be3239f611a7d8133612099565b858414611a9d5760405163616c411360e01b8152600401610857906149d3565b858214611abd5760405163616c411360e01b815260040161085790614a28565b60005b86811015611b3b57611b29888883818110611add57611add614830565b9050602002016020810190611af29190614612565b878784818110611b0457611b04614830565b90506020020135868685818110611b1d57611b1d614830565b9050602002013561263f565b80611b338161485c565b915050611ac0565b5050505050505050565b6000604051636461329360e01b815260040160405180910390fd5b611b6d8585858585612953565b60008381526101f7602052604090208215611bb5576001600160a01b03851660009081526101f660205260409020611ba59085612057565b50611bb36006820186612063565b505b611bbf86856107ef565b600003610c98576001600160a01b03861660009081526101f660205260409020611be99085612078565b50611bf76006820187612084565b50505050505050565b600054610100900460ff16611c1b5760005460ff1615611c1f565b303b155b611c3b5760405162461bcd60e51b8152600401610857906148d2565b600054610100900460ff16158015611c5d576000805461ffff19166101011790555b611c66826129da565b8015610d45576000805461ff00191690555050565b6000611c88338484612a1e565b6101fa54604051634decdde360e11b81526001600160a01b03868116600483015260248201859052606060448301526000606483015290911690639bd9bbc690608401600060405180830381600087803b158015611ce557600080fd5b505af1158015611cf9573d6000803e3d6000fd5b50505060008481526101f76020526040812060028101805491935085929091611d23908490614920565b909155505033600090815260088201602052604081208054859290611d49908490614920565b909155505060405183815284906001600160a01b0387169033907fff097c7d8b1957a4ff09ef1361b5fb54dcede3941ba836d0beb9d10bec725de69060200160405180910390a4506001949350505050565b600080611da7866125ff565b90506000611db487611873565b60008181526101f7602052604090206003015490915060ff16611dda57611dda876123f7565b611df5828288604051806020016040528060008152506122a0565b60008181526101f760205260409020611e116006820184612063565b506001600160a01b03831660009081526101f660205260409020611e359083612057565b50600198975050505050505050565b600061088582612b9b565b6000610885825490565b60006113f58383612bdb565b6001600160a01b038416611e8b5760405162461bcd60e51b815260040161085790614a7a565b8151835114611eac5760405162461bcd60e51b815260040161085790614abb565b33611ebc81600087878787612c05565b60005b8451811015611f5857838181518110611eda57611eda614830565b602002602001015160c96000878481518110611ef857611ef8614830565b602002602001015181526020019081526020016000206000886001600160a01b03166001600160a01b031681526020019081526020016000206000828254611f409190614920565b90915550819050611f508161485c565b915050611ebf565b50846001600160a01b031660006001600160a01b0316826001600160a01b03167f4a39dc06d4c0dbc64b70af90fd698a233a518aa5d07e595d983b8c0526c8f7fb8787604051611fa9929190614b03565b60405180910390a4611fc081600087878787612e26565b5050505050565b6001600160a01b038516331480611fe35750611fe38533611b45565b61204a5760405162461bcd60e51b815260206004820152603260248201527f455243313135353a207472616e736665722063616c6c6572206973206e6f74206044820152711bdddb995c881b9bdc88185c1c1c9bdd995960721b6064820152608401610857565b611fc08585858585612f81565b60006113f58383613126565b60006113f5836001600160a01b038416613126565b60006113f58383613175565b60006113f5836001600160a01b038416613175565b6120a38282611687565b610d45576120bb816001600160a01b03166014613268565b6120c6836020613268565b6040516020016120d7929190614b31565b60408051601f198184030181529082905262461bcd60e51b825261085791600401613e7b565b6000805160206150318339815191528203612155576001600160a01b03811660009081526101f66020526040812061213490611e4f565b1115612155578060405163df03622360e01b81526004016108579190614ba6565b610d458282613403565b6121698282613425565b6000828152609760205260409020610cc69082612084565b61012d5460ff166121cb5760405162461bcd60e51b815260206004820152601460248201527314185d5cd8589b194e881b9bdd081c185d5cd95960621b6044820152606401610857565b61012d805460ff191690557f5db9ee0a495bf2e6ff9c91a7834c1ba4fdd244a5e8aa4e537bd38aeae4b073aa335b6040516001600160a01b03909116815260200160405180910390a1565b600054610100900460ff16610ddb5760405162461bcd60e51b815260040161085790614be5565b600054610100900460ff166122645760405162461bcd60e51b815260040161085790614be5565b61012d805460ff19169055565b610d4582826120fd565b60008181526101f7602052604081206113f56122968461348c565b826005015461351b565b6001600160a01b0384166122c65760405162461bcd60e51b815260040161085790614a7a565b60003390506122ec6040518060600160405280603a8152602001614f8a603a9139613532565b61230b816000876122fc88613575565b61230588613575565b87612c05565b600084815260c9602090815260408083206001600160a01b03891684529091528120805485929061233d908490614920565b909155505060408051858152602081018590526001600160a01b0380881692600092918516917fc3d58168c5ae7397731d063d5bbf3d657854427343f4c083240f7aacaa2d0f62910160405180910390a4611fc0816000878787876135c0565b61012d5460ff16156123c15760405162461bcd60e51b815260040161085790614990565b61012d805460ff191660011790557f62e78cea01bee320cd4e420270b5ea74000d11b0c9f74754ebdbfc544b05a2586121f93390565b6000612402826125ff565b6101fb546040516374d03ff760e01b8152600481018590529192506000916001600160a01b03909116906374d03ff790602401602060405180830381865afa158015612452573d6000803e3d6000fd5b505050506040513d601f19601f8201168201806040525081019061247691906149ba565b9050600061248384611873565b90506001600160a01b0383166124ac57604051636c38382960e11b815260040160405180910390fd5b6124c460008051602061503183398151915284611687565b156124e45782604051632486d30560e11b81526004016108579190614ba6565b60008181526101f7602052604090206003015460ff161561252257604051633893f8e360e21b81526004810182905260248101859052604401610857565b60008181526101f76020526040902061253d6101f883612057565b50600061255861254c8761260e565b60ff1661189b88612627565b90508060000361257e57604051634830eedf60e11b815260048101879052602401610857565b6001600160a01b03851660009081526101f6602052604090206125a19084612057565b5060038201805460ff191660011790558382556125be8185614920565b6001830155600060058301819055604051879185917fbe98789b2b45a3ed741b744a7e162d17774fa3f96a952c76f85253d05ff4d19a9190a3505050505050565b6000610885826014600461367b565b6000600461261f836001601e61367b565b901c92915050565b6000612636826001601e61367b565b600f1692915050565b600061264a836125ff565b9050600061265784611873565b60008181526101f76020526040902060038101549192509060ff1661269257604051633470367960e11b815260048101839052602401610857565b600061269d8361227b565b60008481526101c3602052604090205490915081106126d257604051631a05723960e21b815260048101849052602401610857565b6000851561270d576126e3846114b4565b86111561270657604051630c21a50760e31b815260048101859052602401610857565b5084612719565b612716846114b4565b90505b60068301600061272882611e4f565b6001600160401b0381111561273f5761273f613f50565b604051908082528060200260200182016040528015612768578160200160208202803683370190505b50905060005b61277783611e4f565b8110156127c157612792848861278d8685611e59565b6136c7565b8282815181106127a4576127a4614830565b6020908102919091010152806127b98161485c565b91505061276e565b5060005b6127ce83611e4f565b81101561287c576128026127e28483611e59565b888484815181106127f5576127f5614830565b6020026020010151612a1e565b81818151811061281457612814614830565b60200260200101518660090160006128358487611e5990919063ffffffff16565b6001600160a01b03166001600160a01b0316815260200190815260200160002060008282546128649190614920565b909155508190506128748161485c565b9150506127c5565b50828560040160008282546128919190614920565b90915550506101fa54604051634decdde360e11b81526001600160a01b038c8116600483015260248201869052606060448301526000606483015290911690639bd9bbc690608401600060405180830381600087803b1580156128f357600080fd5b505af1158015612907573d6000803e3d6000fd5b505050508589427f1c88d66daca38f6d7ea17e24dd97402f816c3970f697a9144270c923082bccb08660405161293f91815260200190565b60405180910390a450505050505050505050565b6001600160a01b03851633148061296f575061296f8533611b45565b6129cd5760405162461bcd60e51b815260206004820152602960248201527f455243313135353a2063616c6c6572206973206e6f74206f776e6572206e6f7260448201526808185c1c1c9bdd995960ba1b6064820152608401610857565b611fc08585858585613714565b600054610100900460ff16612a015760405162461bcd60e51b815260040161085790614be5565b612a0a8161382c565b612a1261223d565b612a1b8161385c565b50565b6001600160a01b038316612a805760405162461bcd60e51b815260206004820152602360248201527f455243313135353a206275726e2066726f6d20746865207a65726f206164647260448201526265737360e81b6064820152608401610857565b33612aaf81856000612a9187613575565b612a9a87613575565b60405180602001604052806000815250612c05565b600083815260c9602090815260408083206001600160a01b038816845290915290205482811015612b2e5760405162461bcd60e51b8152602060048201526024808201527f455243313135353a206275726e20616d6f756e7420657863656564732062616c604482015263616e636560e01b6064820152608401610857565b600084815260c9602090815260408083206001600160a01b03898116808652918452828520888703905582518981529384018890529092908616917fc3d58168c5ae7397731d063d5bbf3d657854427343f4c083240f7aacaa2d0f62910160405180910390a45050505050565b60006001600160e01b03198216636cdb3d1360e11b1480612bcc57506001600160e01b031982166303a24d0760e21b145b806108855750610885826138be565b6000826000018281548110612bf257612bf2614830565b9060005260206000200154905092915050565b6001600160a01b0385811615908516156000818015612c355750886001600160a01b0316886001600160a01b0316145b9050600083158015612c45575082155b90508215612cc65760005b8751811015612cc45760006101f760008a8481518110612c7257612c72614830565b602002602001015181526020019081526020016000209050612cac898381518110612c9f57612c9f614830565b602002602001015161227b565b60059091015580612cbc8161485c565b915050612c50565b505b8115612d7b5760005b8751811015612d7557612cfb888281518110612ced57612ced614830565b60200260200101518b6112e8565b878281518110612d0d57612d0d614830565b60200260200101511115612d635789888281518110612d2e57612d2e614830565b602090810291909101015160405163e1b8b25f60e01b81526001600160a01b0390921660048301526024820152604401610857565b80612d6d8161485c565b915050612ccf565b50612e18565b8015612e1857612d8c60008b611687565b15612de05760408051631b896a0360e31b81526001600160a01b038c1660048201526024810191909152601260448201527144454641554c545f41444d494e5f524f4c4560701b6064820152608401610857565b612df86000805160206150318339815191528b611687565b15612e185789604051631b896a0360e31b81526004016108579190614ba6565b6107e38a8a8a8a8a8a6138e3565b6001600160a01b0384163b15610c985760405163bc197c8160e01b81526001600160a01b0385169063bc197c8190612e6a9089908990889088908890600401614c30565b6020604051808303816000875af1925050508015612ea5575060408051601f3d908101601f19168201909252612ea291810190614c8e565b60015b612f5157612eb1614cab565b806308c379a003612eea5750612ec5614cc7565b80612ed05750612eec565b8060405162461bcd60e51b81526004016108579190613e7b565b505b60405162461bcd60e51b815260206004820152603460248201527f455243313135353a207472616e7366657220746f206e6f6e20455243313135356044820152732932b1b2b4bb32b91034b6b83632b6b2b73a32b960611b6064820152608401610857565b6001600160e01b0319811663bc197c8160e01b14611bf75760405162461bcd60e51b815260040161085790614d50565b8151835114612fa25760405162461bcd60e51b815260040161085790614abb565b6001600160a01b038416612fc85760405162461bcd60e51b815260040161085790614d98565b33612fd7818787878787612c05565b60005b84518110156130c0576000858281518110612ff757612ff7614830565b60200260200101519050600085838151811061301557613015614830565b602090810291909101810151600084815260c9835260408082206001600160a01b038e1683529093529190912054909150818110156130665760405162461bcd60e51b815260040161085790614ddd565b600083815260c9602090815260408083206001600160a01b038e8116855292528083208585039055908b168252812080548492906130a5908490614920565b92505081905550505050806130b99061485c565b9050612fda565b50846001600160a01b0316866001600160a01b0316826001600160a01b03167f4a39dc06d4c0dbc64b70af90fd698a233a518aa5d07e595d983b8c0526c8f7fb8787604051613110929190614b03565b60405180910390a4610c98818787878787612e26565b600081815260018301602052604081205461316d57508154600181810184556000848152602080822090930184905584548482528286019093526040902091909155610885565b506000610885565b6000818152600183016020526040812054801561325e576000613199600183614979565b85549091506000906131ad90600190614979565b90508181146132125760008660000182815481106131cd576131cd614830565b90600052602060002001549050808760000184815481106131f0576131f0614830565b6000918252602080832090910192909255918252600188019052604090208390555b855486908061322357613223614e27565b600190038181906000526020600020016000905590558560010160008681526020019081526020016000206000905560019350505050610885565b6000915050610885565b60606000613277836002614938565b613282906002614920565b6001600160401b0381111561329957613299613f50565b6040519080825280601f01601f1916602001820160405280156132c3576020820181803683370190505b509050600360fc1b816000815181106132de576132de614830565b60200101906001600160f81b031916908160001a905350600f60fb1b8160018151811061330d5761330d614830565b60200101906001600160f81b031916908160001a9053506000613331846002614938565b61333c906001614920565b90505b60018111156133b4576f181899199a1a9b1b9c1cb0b131b232b360811b85600f166010811061337057613370614830565b1a60f81b82828151811061338657613386614830565b60200101906001600160f81b031916908160001a90535060049490941c936133ad81614e3d565b905061333f565b5083156113f55760405162461bcd60e51b815260206004820181905260248201527f537472696e67733a20686578206c656e67746820696e73756666696369656e746044820152606401610857565b61340d82826139ff565b6000828152609760205260409020610cc69082612063565b61342f8282611687565b15610d455760008281526065602090815260408083206001600160a01b0385168085529252808320805460ff1916905551339285917ff6391f5c32d9c69d2a47ea670b442974b53935d1edc7fd64eb21e047a839171b9190a45050565b60008181526101f760205260408120600181015442106134bb5760008381526101c360205260409020546113f5565b805460018201546000916134ce91614979565b8254909150421061351057815481906134e79042614979565b60008681526101c360205260409020546135019190614938565b61350b9190614957565b613513565b60005b949350505050565b60008183101561352b57816113f5565b5090919050565b612a1b816040516024016135469190613e7b565b60408051601f198184030181529190526020810180516001600160e01b031663104c13eb60e21b179052613a85565b604080516001808252818301909252606091600091906020808301908036833701905050905082816000815181106135af576135af614830565b602090810291909101015292915050565b6001600160a01b0384163b15610c985760405163f23a6e6160e01b81526001600160a01b0385169063f23a6e61906136049089908990889088908890600401614e54565b6020604051808303816000875af192505050801561363f575060408051601f3d908101601f1916820190925261363c91810190614c8e565b60015b61364b57612eb1614cab565b6001600160e01b0319811663f23a6e6160e01b14611bf75760405162461bcd60e51b815260040161085790614d50565b600080613689600884614938565b6001613696600887614938565b6136a1906002614f7d565b6136ab9190614979565b901b90508481166136bd600885614938565b1c95945050505050565b60008281526101c360205260408120546000036136e6575060006113f5565b60008381526101c3602052604090205461370083856107ef565b61370a9086614938565b6135139190614957565b6001600160a01b03841661373a5760405162461bcd60e51b815260040161085790614d98565b3361374a8187876122fc88613575565b600084815260c9602090815260408083206001600160a01b038a1684529091529020548381101561378d5760405162461bcd60e51b815260040161085790614ddd565b600085815260c9602090815260408083206001600160a01b038b81168552925280832087850390559088168252812080548692906137cc908490614920565b909155505060408051868152602081018690526001600160a01b03808916928a821692918616917fc3d58168c5ae7397731d063d5bbf3d657854427343f4c083240f7aacaa2d0f62910160405180910390a4611bf78288888888886135c0565b600054610100900460ff166138535760405162461bcd60e51b815260040161085790614be5565b612a1b81613aa6565b600054610100900460ff166138835760405162461bcd60e51b815260040161085790614be5565b61388e600033612271565b6138a660008051602061501183398151915233612271565b612a1b600080516020614ff183398151915233612271565b60006001600160e01b03198216635a05180f60e01b1480610885575061088582613ab9565b6138f1868686868686613aee565b6001600160a01b0385166139795760005b83518110156139775782818151811061391d5761391d614830565b60200260200101516101c3600086848151811061393c5761393c614830565b6020026020010151815260200190815260200160002060008282546139619190614920565b9091555061397090508161485c565b9050613902565b505b6001600160a01b038416610c985760005b8351811015611bf7578281815181106139a5576139a5614830565b60200260200101516101c360008684815181106139c4576139c4614830565b6020026020010151815260200190815260200160002060008282546139e99190614979565b909155506139f890508161485c565b905061398a565b613a098282611687565b610d455760008281526065602090815260408083206001600160a01b03851684529091529020805460ff19166001179055613a413390565b6001600160a01b0316816001600160a01b0316837f2f8788117e7eff1d82e926ec794901d17c78024a50270940304540a733656f0d60405160405180910390a45050565b80516a636f6e736f6c652e6c6f67602083016000808483855afa5050505050565b8051610d459060cb906020840190613c05565b60006001600160e01b03198216637965db0b60e01b148061088557506301ffc9a760e01b6001600160e01b0319831614610885565b610c9886868686868661012d5460ff1615610c985760405162461bcd60e51b815260206004820152602c60248201527f455243313135355061757361626c653a20746f6b656e207472616e736665722060448201526b1dda1a5b19481c185d5cd95960a21b6064820152608401610857565b60405180610120016040528060008152602001600081526020016000815260200160008152602001600081526020016000815260200160008152602001606081526020016000151581525090565b60405180610120016040528060006001600160a01b03168152602001600081526020016000815260200160008152602001600081526020016000815260200160008152602001600081526020016000151581525090565b828054613c11906147fc565b90600052602060002090601f016020900481019282613c335760008555613c79565b82601f10613c4c57805160ff1916838001178555613c79565b82800160010185558215613c79579182015b82811115613c79578251825591602001919060010190613c5e565b50613c85929150613c89565b5090565b5b80821115613c855760008155600101613c8a565b6001600160a01b0381168114612a1b57600080fd5b60008083601f840112613cc557600080fd5b5081356001600160401b03811115613cdc57600080fd5b602083019150836020828501011115613cf457600080fd5b9250929050565b60008060008060008060008060c0898b031215613d1757600080fd5b8835613d2281613c9e565b97506020890135613d3281613c9e565b96506040890135613d4281613c9e565b95506060890135945060808901356001600160401b0380821115613d6557600080fd5b613d718c838d01613cb3565b909650945060a08b0135915080821115613d8a57600080fd5b50613d978b828c01613cb3565b999c989b5096995094979396929594505050565b60008060408385031215613dbe57600080fd5b8235613dc981613c9e565b946020939093013593505050565b6001600160e01b031981168114612a1b57600080fd5b600060208284031215613dff57600080fd5b81356113f581613dd7565b600060208284031215613e1c57600080fd5b5035919050565b60005b83811015613e3e578181015183820152602001613e26565b83811115610b285750506000910152565b60008151808452613e67816020860160208601613e23565b601f01601f19169290920160200192915050565b6020815260006113f56020830184613e4f565b6000610120808401835185526020808501518187015260408501516040870152606085015160608701526080850151608087015260a085015160a087015260c085015160c087015260e08501518360e08801528293508051808452610140880194508282019350600091505b80821015613f235783516001600160a01b03168552938201939282019260019190910190613efa565b505050506101009283015115159390920192909252919050565b6020815260006113f56020830184613e8e565b634e487b7160e01b600052604160045260246000fd5b601f8201601f191681016001600160401b0381118282101715613f8b57613f8b613f50565b6040525050565b60006001600160401b03821115613fab57613fab613f50565b5060051b60200190565b600082601f830112613fc657600080fd5b81356020613fd382613f92565b604051613fe08282613f66565b83815260059390931b850182019282810191508684111561400057600080fd5b8286015b8481101561401b5780358352918301918301614004565b509695505050505050565b60006001600160401b0383111561403f5761403f613f50565b604051614056601f8501601f191660200182613f66565b80915083815284848401111561406b57600080fd5b83836020830137600060208583010152509392505050565b600082601f83011261409457600080fd5b6113f583833560208501614026565b600080600080608085870312156140b957600080fd5b84356140c481613c9e565b935060208501356001600160401b03808211156140e057600080fd5b6140ec88838901613fb5565b9450604087013591508082111561410257600080fd5b61410e88838901613fb5565b9350606087013591508082111561412457600080fd5b5061413187828801614083565b91505092959194509250565b600080600080600060a0868803121561415557600080fd5b853561416081613c9e565b9450602086013561417081613c9e565b935060408601356001600160401b038082111561418c57600080fd5b61419889838a01613fb5565b945060608801359150808211156141ae57600080fd5b6141ba89838a01613fb5565b935060808801359150808211156141d057600080fd5b506141dd88828901614083565b9150509295509295909350565b600080604083850312156141fd57600080fd5b82359150602083013561420f81613c9e565b809150509250929050565b60008083601f84011261422c57600080fd5b5081356001600160401b0381111561424357600080fd5b6020830191508360208260051b8501011115613cf457600080fd5b6000806020838503121561427157600080fd5b82356001600160401b0381111561428757600080fd5b6142938582860161421a565b90969095509350505050565b6000602080830181845280855180835260408601915060408160051b870101925083870160005b828110156142f457603f198886030184526142e2858351613e8e565b945092850192908501906001016142c6565b5092979650505050505050565b6000806040838503121561431457600080fd5b823561431f81613c9e565b9150602083013561420f81613c9e565b80516001600160a01b031682526020808201519083015260408082015190830152606080820151908301526080808201519083015260a0818101519083015260c0808201519083015260e08082015190830152610100908101511515910152565b6101208101610885828461432f565b600080604083850312156143b257600080fd5b82356001600160401b03808211156143c957600080fd5b818501915085601f8301126143dd57600080fd5b813560206143ea82613f92565b6040516143f78282613f66565b83815260059390931b850182019282810191508984111561441757600080fd5b948201945b8386101561443e57853561442f81613c9e565b8252948201949082019061441c565b9650508601359250508082111561445457600080fd5b5061446185828601613fb5565b9150509250929050565b600081518084526020808501945080840160005b8381101561449b5781518752958201959082019060010161447f565b509495945050505050565b6020815260006113f5602083018461446b565b6000806000806000606086880312156144d157600080fd5b85356144dc81613c9e565b945060208601356001600160401b03808211156144f857600080fd5b61450489838a0161421a565b9096509450604088013591508082111561451d57600080fd5b5061452a8882890161421a565b969995985093965092949392505050565b6000806000806080858703121561455157600080fd5b843561455c81613c9e565b9350602085013592506040850135915060608501356001600160401b0381111561458557600080fd5b61413187828801614083565b600080604083850312156145a457600080fd5b50508035926020909101359150565b600080604083850312156145c657600080fd5b82356145d181613c9e565b91506020830135801515811461420f57600080fd5b6000806000606084860312156145fb57600080fd5b505081359360208301359350604090920135919050565b60006020828403121561462457600080fd5b81356113f581613c9e565b6020808252825182820181905260009190848201906040850190845b818110156146725761465e83855161432f565b92840192610120929092019160010161464b565b50909695505050505050565b6000806000806000806060878903121561469757600080fd5b86356001600160401b03808211156146ae57600080fd5b6146ba8a838b0161421a565b909850965060208901359150808211156146d357600080fd5b6146df8a838b0161421a565b909650945060408901359150808211156146f857600080fd5b5061470589828a0161421a565b979a9699509497509295939492505050565b600080600080600060a0868803121561472f57600080fd5b853561473a81613c9e565b9450602086013561474a81613c9e565b9350604086013592506060860135915060808601356001600160401b0381111561477357600080fd5b6141dd88828901614083565b60008060006060848603121561479457600080fd5b833561479f81613c9e565b95602085013595506040909401359392505050565b6000602082840312156147c657600080fd5b81356001600160401b038111156147dc57600080fd5b8201601f810184136147ed57600080fd5b61351384823560208401614026565b600181811c9082168061481057607f821691505b60208210810361149557634e487b7160e01b600052602260045260246000fd5b634e487b7160e01b600052603260045260246000fd5b634e487b7160e01b600052601160045260246000fd5b60006001820161486e5761486e614846565b5060010190565b60208082526038908201527f455243313135355072657365744d696e7465725061757365723a206d7573742060408201527f68617665206d696e74657220726f6c6520746f206d696e740000000000000000606082015260800190565b6020808252602e908201527f496e697469616c697a61626c653a20636f6e747261637420697320616c72656160408201526d191e481a5b9a5d1a585b1a5e995960921b606082015260800190565b6000821982111561493357614933614846565b500190565b600081600019048311821515161561495257614952614846565b500290565b60008261497457634e487b7160e01b600052601260045260246000fd5b500490565b60008282101561498b5761498b614846565b500390565b60208082526010908201526f14185d5cd8589b194e881c185d5cd95960821b604082015260600190565b6000602082840312156149cc57600080fd5b5051919050565b6040815260006149ff60408301600c81526b66726f6d4163636f756e747360a01b602082015260400190565b828103602093840152600a81526972656d6f76616c49647360b01b928101929092525060400190565b604081526000614a5460408301600c81526b66726f6d4163636f756e747360a01b602082015260400190565b8281036020938401526007815266616d6f756e747360c81b928101929092525060400190565b60208082526021908201527f455243313135353a206d696e7420746f20746865207a65726f206164647265736040820152607360f81b606082015260800190565b60208082526028908201527f455243313135353a2069647320616e6420616d6f756e7473206c656e677468206040820152670dad2e6dac2e8c6d60c31b606082015260800190565b604081526000614b16604083018561446b565b8281036020840152614b28818561446b565b95945050505050565b7f416363657373436f6e74726f6c3a206163636f756e7420000000000000000000815260008351614b69816017850160208801613e23565b7001034b99036b4b9b9b4b733903937b6329607d1b6017918401918201528351614b9a816028840160208801613e23565b01602801949350505050565b6001600160a01b0391909116815260406020820181905260139082015272455343524f575f43524541544f525f524f4c4560681b606082015260800190565b6020808252602b908201527f496e697469616c697a61626c653a20636f6e7472616374206973206e6f74206960408201526a6e697469616c697a696e6760a81b606082015260800190565b6001600160a01b0386811682528516602082015260a060408201819052600090614c5c9083018661446b565b8281036060840152614c6e818661446b565b90508281036080840152614c828185613e4f565b98975050505050505050565b600060208284031215614ca057600080fd5b81516113f581613dd7565b600060033d1115614cc45760046000803e5060005160e01c5b90565b600060443d1015614cd55790565b6040516003193d81016004833e81513d6001600160401b038160248401118184111715614d0457505050505090565b8285019150815181811115614d1c5750505050505090565b843d8701016020828501011115614d365750505050505090565b614d4560208286010187613f66565b509095945050505050565b60208082526028908201527f455243313135353a204552433131353552656365697665722072656a656374656040820152676420746f6b656e7360c01b606082015260800190565b60208082526025908201527f455243313135353a207472616e7366657220746f20746865207a65726f206164604082015264647265737360d81b606082015260800190565b6020808252602a908201527f455243313135353a20696e73756666696369656e742062616c616e636520666f60408201526939103a3930b739b332b960b11b606082015260800190565b634e487b7160e01b600052603160045260246000fd5b600081614e4c57614e4c614846565b506000190190565b6001600160a01b03868116825285166020820152604081018490526060810183905260a060808201819052600090614e8e90830184613e4f565b979650505050505050565b600181815b80851115614ed4578160001904821115614eba57614eba614846565b80851615614ec757918102915b93841c9390800290614e9e565b509250929050565b600082614eeb57506001610885565b81614ef857506000610885565b8160018114614f0e5760028114614f1857614f34565b6001915050610885565b60ff841115614f2957614f29614846565b50506001821b610885565b5060208310610133831016604e8410600b8410161715614f57575081810a610885565b614f618383614e99565b8060001904821115614f7557614f75614846565b029392505050565b60006113f58383614edc56fe696e7369646520455243313135357570677261646561626c65205f6d696e74206265666f7265206265666f7265546f6b656e5472616e7366657268747470733a2f2f6e6f72692e636f6d2f6170692f657363726f777363686564756c652f7b69647d2e6a736f6e65d7a28e3265b37a6474929f336521b332c1681b933f6cb9f3376673440d862a9f2df0fed2c77648de5860a4cc508cd0818c85b8b8a1ab4ceeef8d981c8956a602001401bd80c60ccf68a3f1bc912957d6b932fa109a68b27dee5bdb776acfc6a2646970667358221220dd6d6eb6c58c38ea6fa3ebcb8098850d894478f4ffc5e0f27c4f26f8816428e064736f6c634300080d0033",
  "linkReferences": {},
  "deployedLinkReferences": {}
}