{
  "_format": "hh-sol-artifact-1",
  "contractName": "EscrowedNORI",
  "sourceName": "contracts/EscrowedNORI.sol",
  "abi": [
    {
      "inputs": [
        {
          "internalType": "uint256",
          "name": "scheduleId",
          "type": "uint256"
        }
      ],
      "name": "AllTokensAlreadyReleased",
      "type": "error"
    },
    {
      "inputs": [
        {
          "internalType": "string",
          "name": "array1Name",
          "type": "string"
        },
        {
          "internalType": "string",
          "name": "array2Name",
          "type": "string"
        }
      ],
      "name": "ArrayLengthMismatch",
      "type": "error"
    },
    {
      "inputs": [],
      "name": "BurningNotSupported",
      "type": "error"
    },
    {
      "inputs": [
        {
          "internalType": "uint256",
          "name": "scheduleTokenId",
          "type": "uint256"
        },
        {
          "internalType": "uint256",
          "name": "removalIdTriggeredCreation",
          "type": "uint256"
        }
      ],
      "name": "EscrowScheduleExists",
      "type": "error"
    },
    {
      "inputs": [
        {
          "internalType": "address",
          "name": "account",
          "type": "address"
        },
        {
          "internalType": "uint256",
          "name": "scheduleId",
          "type": "uint256"
        }
      ],
      "name": "InsufficientBalance",
      "type": "error"
    },
    {
      "inputs": [
        {
          "internalType": "uint256",
          "name": "scheduleId",
          "type": "uint256"
        }
      ],
      "name": "InsufficientUnreleasedTokens",
      "type": "error"
    },
    {
      "inputs": [
        {
          "internalType": "address",
          "name": "account",
          "type": "address"
        },
        {
          "internalType": "string",
          "name": "role",
          "type": "string"
        }
      ],
      "name": "MissingRequiredRole",
      "type": "error"
    },
    {
      "inputs": [
        {
          "internalType": "uint256",
          "name": "scheduleId",
          "type": "uint256"
        }
      ],
      "name": "NonexistentEscrowSchedule",
      "type": "error"
    },
    {
      "inputs": [],
      "name": "RecipientCannotBeZeroAddress",
      "type": "error"
    },
    {
      "inputs": [
        {
          "internalType": "address",
          "name": "recipient",
          "type": "address"
        },
        {
          "internalType": "string",
          "name": "role",
          "type": "string"
        }
      ],
      "name": "RecipientCannotHaveRole",
      "type": "error"
    },
    {
      "inputs": [
        {
          "internalType": "address",
          "name": "account",
          "type": "address"
        },
        {
          "internalType": "string",
          "name": "role",
          "type": "string"
        }
      ],
      "name": "RoleUnassignableToEscrowScheduleHolder",
      "type": "error"
    },
    {
      "inputs": [],
      "name": "TokenSenderNotBPNORI",
      "type": "error"
    },
    {
      "anonymous": false,
      "inputs": [
        {
          "indexed": true,
          "internalType": "address",
          "name": "account",
          "type": "address"
        },
        {
          "indexed": true,
          "internalType": "address",
          "name": "operator",
          "type": "address"
        },
        {
          "indexed": false,
          "internalType": "bool",
          "name": "approved",
          "type": "bool"
        }
      ],
      "name": "ApprovalForAll",
      "type": "event"
    },
    {
      "anonymous": false,
      "inputs": [
        {
          "indexed": true,
          "internalType": "uint256",
          "name": "scheduleId",
          "type": "uint256"
        },
        {
          "indexed": true,
          "internalType": "uint256",
          "name": "removalIdTriggeredCreation",
          "type": "uint256"
        }
      ],
      "name": "EscrowScheduleCreated",
      "type": "event"
    },
    {
      "anonymous": false,
      "inputs": [
        {
          "indexed": false,
          "internalType": "address",
          "name": "account",
          "type": "address"
        }
      ],
      "name": "Paused",
      "type": "event"
    },
    {
      "anonymous": false,
      "inputs": [
        {
          "indexed": true,
          "internalType": "bytes32",
          "name": "role",
          "type": "bytes32"
        },
        {
          "indexed": true,
          "internalType": "bytes32",
          "name": "previousAdminRole",
          "type": "bytes32"
        },
        {
          "indexed": true,
          "internalType": "bytes32",
          "name": "newAdminRole",
          "type": "bytes32"
        }
      ],
      "name": "RoleAdminChanged",
      "type": "event"
    },
    {
      "anonymous": false,
      "inputs": [
        {
          "indexed": true,
          "internalType": "bytes32",
          "name": "role",
          "type": "bytes32"
        },
        {
          "indexed": true,
          "internalType": "address",
          "name": "account",
          "type": "address"
        },
        {
          "indexed": true,
          "internalType": "address",
          "name": "sender",
          "type": "address"
        }
      ],
      "name": "RoleGranted",
      "type": "event"
    },
    {
      "anonymous": false,
      "inputs": [
        {
          "indexed": true,
          "internalType": "bytes32",
          "name": "role",
          "type": "bytes32"
        },
        {
          "indexed": true,
          "internalType": "address",
          "name": "account",
          "type": "address"
        },
        {
          "indexed": true,
          "internalType": "address",
          "name": "sender",
          "type": "address"
        }
      ],
      "name": "RoleRevoked",
      "type": "event"
    },
    {
      "anonymous": false,
      "inputs": [
        {
          "indexed": true,
          "internalType": "address",
          "name": "from",
          "type": "address"
        },
        {
          "indexed": true,
          "internalType": "address",
          "name": "to",
          "type": "address"
        },
        {
          "indexed": true,
          "internalType": "uint256",
          "name": "scheduleId",
          "type": "uint256"
        },
        {
          "indexed": false,
          "internalType": "uint256",
          "name": "quantity",
          "type": "uint256"
        }
      ],
      "name": "TokensClaimed",
      "type": "event"
    },
    {
      "anonymous": false,
      "inputs": [
        {
          "indexed": true,
          "internalType": "address",
          "name": "operator",
          "type": "address"
        },
        {
          "indexed": true,
          "internalType": "address",
          "name": "from",
          "type": "address"
        },
        {
          "indexed": true,
          "internalType": "address",
          "name": "to",
          "type": "address"
        },
        {
          "indexed": false,
          "internalType": "uint256[]",
          "name": "ids",
          "type": "uint256[]"
        },
        {
          "indexed": false,
          "internalType": "uint256[]",
          "name": "values",
          "type": "uint256[]"
        }
      ],
      "name": "TransferBatch",
      "type": "event"
    },
    {
      "anonymous": false,
      "inputs": [
        {
          "indexed": true,
          "internalType": "address",
          "name": "operator",
          "type": "address"
        },
        {
          "indexed": true,
          "internalType": "address",
          "name": "from",
          "type": "address"
        },
        {
          "indexed": true,
          "internalType": "address",
          "name": "to",
          "type": "address"
        },
        {
          "indexed": false,
          "internalType": "uint256",
          "name": "id",
          "type": "uint256"
        },
        {
          "indexed": false,
          "internalType": "uint256",
          "name": "value",
          "type": "uint256"
        }
      ],
      "name": "TransferSingle",
      "type": "event"
    },
    {
      "anonymous": false,
      "inputs": [
        {
          "indexed": false,
          "internalType": "string",
          "name": "value",
          "type": "string"
        },
        {
          "indexed": true,
          "internalType": "uint256",
          "name": "id",
          "type": "uint256"
        }
      ],
      "name": "URI",
      "type": "event"
    },
    {
      "anonymous": false,
      "inputs": [
        {
          "indexed": false,
          "internalType": "address",
          "name": "account",
          "type": "address"
        }
      ],
      "name": "Unpaused",
      "type": "event"
    },
    {
      "anonymous": false,
      "inputs": [
        {
          "indexed": true,
          "internalType": "uint256",
          "name": "atTime",
          "type": "uint256"
        },
        {
          "indexed": true,
          "internalType": "uint256",
          "name": "removalId",
          "type": "uint256"
        },
        {
          "indexed": true,
          "internalType": "uint256",
          "name": "scheduleId",
          "type": "uint256"
        },
        {
          "indexed": false,
          "internalType": "uint256",
          "name": "quantity",
          "type": "uint256"
        }
      ],
      "name": "UnreleasedTokensRevoked",
      "type": "event"
    },
    {
      "inputs": [],
      "name": "DEFAULT_ADMIN_ROLE",
      "outputs": [
        {
          "internalType": "bytes32",
          "name": "",
          "type": "bytes32"
        }
      ],
      "stateMutability": "view",
      "type": "function"
    },
    {
      "inputs": [],
      "name": "ERC777_TOKENS_RECIPIENT_HASH",
      "outputs": [
        {
          "internalType": "bytes32",
          "name": "",
          "type": "bytes32"
        }
      ],
      "stateMutability": "view",
      "type": "function"
    },
    {
      "inputs": [],
      "name": "ESCROW_CREATOR_ROLE",
      "outputs": [
        {
          "internalType": "bytes32",
          "name": "",
          "type": "bytes32"
        }
      ],
      "stateMutability": "view",
      "type": "function"
    },
    {
      "inputs": [],
      "name": "MINTER_ROLE",
      "outputs": [
        {
          "internalType": "bytes32",
          "name": "",
          "type": "bytes32"
        }
      ],
      "stateMutability": "view",
      "type": "function"
    },
    {
      "inputs": [],
      "name": "PAUSER_ROLE",
      "outputs": [
        {
          "internalType": "bytes32",
          "name": "",
          "type": "bytes32"
        }
      ],
      "stateMutability": "view",
      "type": "function"
    },
    {
      "inputs": [
        {
          "internalType": "address",
          "name": "account",
          "type": "address"
        },
        {
          "internalType": "uint256",
          "name": "id",
          "type": "uint256"
        }
      ],
      "name": "balanceOf",
      "outputs": [
        {
          "internalType": "uint256",
          "name": "",
          "type": "uint256"
        }
      ],
      "stateMutability": "view",
      "type": "function"
    },
    {
      "inputs": [
        {
          "internalType": "address[]",
          "name": "accounts",
          "type": "address[]"
        },
        {
          "internalType": "uint256[]",
          "name": "ids",
          "type": "uint256[]"
        }
      ],
      "name": "balanceOfBatch",
      "outputs": [
        {
          "internalType": "uint256[]",
          "name": "",
          "type": "uint256[]"
        }
      ],
      "stateMutability": "view",
      "type": "function"
    },
    {
      "inputs": [
        {
          "internalType": "uint256[]",
          "name": "removalIds",
          "type": "uint256[]"
        }
      ],
      "name": "batchCreateEscrowSchedule",
      "outputs": [],
      "stateMutability": "nonpayable",
      "type": "function"
    },
    {
      "inputs": [
        {
          "internalType": "address[]",
          "name": "toAccounts",
          "type": "address[]"
        },
        {
          "internalType": "uint256[]",
          "name": "removalIds",
          "type": "uint256[]"
        },
        {
          "internalType": "uint256[]",
          "name": "amounts",
          "type": "uint256[]"
        }
      ],
      "name": "batchRevokeUnreleasedTokenAmounts",
      "outputs": [],
      "stateMutability": "nonpayable",
      "type": "function"
    },
    {
      "inputs": [
        {
          "internalType": "address",
          "name": "",
          "type": "address"
        },
        {
          "internalType": "uint256",
          "name": "",
          "type": "uint256"
        },
        {
          "internalType": "uint256",
          "name": "",
          "type": "uint256"
        }
      ],
      "name": "burn",
      "outputs": [],
      "stateMutability": "pure",
      "type": "function"
    },
    {
      "inputs": [
        {
          "internalType": "address",
          "name": "",
          "type": "address"
        },
        {
          "internalType": "uint256[]",
          "name": "",
          "type": "uint256[]"
        },
        {
          "internalType": "uint256[]",
          "name": "",
          "type": "uint256[]"
        }
      ],
      "name": "burnBatch",
      "outputs": [],
      "stateMutability": "pure",
      "type": "function"
    },
    {
      "inputs": [
        {
          "internalType": "address",
          "name": "account",
          "type": "address"
        }
      ],
      "name": "claimableBalanceForAccount",
      "outputs": [
        {
          "internalType": "uint256",
          "name": "",
          "type": "uint256"
        }
      ],
      "stateMutability": "view",
      "type": "function"
    },
    {
      "inputs": [
        {
          "internalType": "uint256",
          "name": "scheduleId",
          "type": "uint256"
        }
      ],
      "name": "claimableBalanceForSchedule",
      "outputs": [
        {
          "internalType": "uint256",
          "name": "",
          "type": "uint256"
        }
      ],
      "stateMutability": "view",
      "type": "function"
    },
    {
      "inputs": [
        {
          "internalType": "uint256",
          "name": "scheduleId",
          "type": "uint256"
        },
        {
          "internalType": "address",
          "name": "account",
          "type": "address"
        }
      ],
      "name": "claimableBalanceForScheduleForAccount",
      "outputs": [
        {
          "internalType": "uint256",
          "name": "",
          "type": "uint256"
        }
      ],
      "stateMutability": "view",
      "type": "function"
    },
    {
      "inputs": [
        {
          "internalType": "uint256",
          "name": "removalId",
          "type": "uint256"
        }
      ],
      "name": "createEscrowSchedule",
      "outputs": [],
      "stateMutability": "nonpayable",
      "type": "function"
    },
    {
      "inputs": [
        {
          "internalType": "uint256",
          "name": "id",
          "type": "uint256"
        }
      ],
      "name": "exists",
      "outputs": [
        {
          "internalType": "bool",
          "name": "",
          "type": "bool"
        }
      ],
      "stateMutability": "view",
      "type": "function"
    },
    {
      "inputs": [
        {
          "internalType": "uint256",
          "name": "scheduleId",
          "type": "uint256"
        }
      ],
      "name": "getEscrowSchedule",
      "outputs": [
        {
          "components": [
            {
              "internalType": "uint256",
              "name": "scheduleTokenId",
              "type": "uint256"
            },
            {
              "internalType": "uint256",
              "name": "totalSupply",
              "type": "uint256"
            },
            {
              "internalType": "address[]",
              "name": "tokenHolders",
              "type": "address[]"
            },
            {
              "internalType": "uint256[]",
              "name": "holderBalances",
              "type": "uint256[]"
            },
            {
              "internalType": "uint256",
              "name": "startTime",
              "type": "uint256"
            },
            {
              "internalType": "uint256",
              "name": "endTime",
              "type": "uint256"
            },
            {
              "internalType": "uint256",
              "name": "claimedAmount",
              "type": "uint256"
            },
            {
              "internalType": "uint256",
              "name": "totalQuantityRevoked",
              "type": "uint256"
            },
            {
              "internalType": "bool",
              "name": "exists",
              "type": "bool"
            }
          ],
          "internalType": "struct EscrowedNORI.EscrowScheduleDetail",
          "name": "",
          "type": "tuple"
        }
      ],
      "stateMutability": "view",
      "type": "function"
    },
    {
      "inputs": [
        {
          "internalType": "address",
          "name": "account",
          "type": "address"
        }
      ],
      "name": "getEscrowSchedulesForAccount",
      "outputs": [
        {
          "components": [
            {
              "internalType": "uint256",
              "name": "scheduleTokenId",
              "type": "uint256"
            },
            {
              "internalType": "uint256",
              "name": "totalSupply",
              "type": "uint256"
            },
            {
              "internalType": "address[]",
              "name": "tokenHolders",
              "type": "address[]"
            },
            {
              "internalType": "uint256[]",
              "name": "holderBalances",
              "type": "uint256[]"
            },
            {
              "internalType": "uint256",
              "name": "startTime",
              "type": "uint256"
            },
            {
              "internalType": "uint256",
              "name": "endTime",
              "type": "uint256"
            },
            {
              "internalType": "uint256",
              "name": "claimedAmount",
              "type": "uint256"
            },
            {
              "internalType": "uint256",
              "name": "totalQuantityRevoked",
              "type": "uint256"
            },
            {
              "internalType": "bool",
              "name": "exists",
              "type": "bool"
            }
          ],
          "internalType": "struct EscrowedNORI.EscrowScheduleDetail[]",
          "name": "",
          "type": "tuple[]"
        }
      ],
      "stateMutability": "view",
      "type": "function"
    },
    {
      "inputs": [
        {
          "internalType": "bytes32",
          "name": "role",
          "type": "bytes32"
        }
      ],
      "name": "getRoleAdmin",
      "outputs": [
        {
          "internalType": "bytes32",
          "name": "",
          "type": "bytes32"
        }
      ],
      "stateMutability": "view",
      "type": "function"
    },
    {
      "inputs": [
        {
          "internalType": "bytes32",
          "name": "role",
          "type": "bytes32"
        },
        {
          "internalType": "uint256",
          "name": "index",
          "type": "uint256"
        }
      ],
      "name": "getRoleMember",
      "outputs": [
        {
          "internalType": "address",
          "name": "",
          "type": "address"
        }
      ],
      "stateMutability": "view",
      "type": "function"
    },
    {
      "inputs": [
        {
          "internalType": "bytes32",
          "name": "role",
          "type": "bytes32"
        }
      ],
      "name": "getRoleMemberCount",
      "outputs": [
        {
          "internalType": "uint256",
          "name": "",
          "type": "uint256"
        }
      ],
      "stateMutability": "view",
      "type": "function"
    },
    {
      "inputs": [
        {
          "internalType": "bytes32",
          "name": "role",
          "type": "bytes32"
        },
        {
          "internalType": "address",
          "name": "account",
          "type": "address"
        }
      ],
      "name": "grantRole",
      "outputs": [],
      "stateMutability": "nonpayable",
      "type": "function"
    },
    {
      "inputs": [
        {
          "internalType": "bytes32",
          "name": "role",
          "type": "bytes32"
        },
        {
          "internalType": "address",
          "name": "account",
          "type": "address"
        }
      ],
      "name": "hasRole",
      "outputs": [
        {
          "internalType": "bool",
          "name": "",
          "type": "bool"
        }
      ],
      "stateMutability": "view",
      "type": "function"
    },
    {
      "inputs": [
        {
          "internalType": "contract BridgedPolygonNORI",
          "name": "bridgedPolygonNoriAddress",
          "type": "address"
        },
        {
          "internalType": "contract Removal",
          "name": "removalAddress",
          "type": "address"
        }
      ],
      "name": "initialize",
      "outputs": [],
      "stateMutability": "nonpayable",
      "type": "function"
    },
    {
      "inputs": [
        {
          "internalType": "string",
          "name": "uri",
          "type": "string"
        }
      ],
      "name": "initialize",
      "outputs": [],
      "stateMutability": "nonpayable",
      "type": "function"
    },
    {
      "inputs": [
        {
          "internalType": "address",
          "name": "account",
          "type": "address"
        },
        {
          "internalType": "address",
          "name": "operator",
          "type": "address"
        }
      ],
      "name": "isApprovedForAll",
      "outputs": [
        {
          "internalType": "bool",
          "name": "",
          "type": "bool"
        }
      ],
      "stateMutability": "view",
      "type": "function"
    },
    {
      "inputs": [
        {
          "internalType": "address",
          "name": "to",
          "type": "address"
        },
        {
          "internalType": "uint256",
          "name": "id",
          "type": "uint256"
        },
        {
          "internalType": "uint256",
          "name": "amount",
          "type": "uint256"
        },
        {
          "internalType": "bytes",
          "name": "data",
          "type": "bytes"
        }
      ],
      "name": "mint",
      "outputs": [],
      "stateMutability": "nonpayable",
      "type": "function"
    },
    {
      "inputs": [
        {
          "internalType": "address",
          "name": "to",
          "type": "address"
        },
        {
          "internalType": "uint256[]",
          "name": "ids",
          "type": "uint256[]"
        },
        {
          "internalType": "uint256[]",
          "name": "amounts",
          "type": "uint256[]"
        },
        {
          "internalType": "bytes",
          "name": "data",
          "type": "bytes"
        }
      ],
      "name": "mintBatch",
      "outputs": [],
      "stateMutability": "nonpayable",
      "type": "function"
    },
    {
      "inputs": [],
      "name": "pause",
      "outputs": [],
      "stateMutability": "nonpayable",
      "type": "function"
    },
    {
      "inputs": [],
      "name": "paused",
      "outputs": [
        {
          "internalType": "bool",
          "name": "",
          "type": "bool"
        }
      ],
      "stateMutability": "view",
      "type": "function"
    },
    {
      "inputs": [
        {
          "internalType": "uint256",
          "name": "removalId",
          "type": "uint256"
        }
      ],
      "name": "removalIdToScheduleId",
      "outputs": [
        {
          "internalType": "uint256",
          "name": "",
          "type": "uint256"
        }
      ],
      "stateMutability": "view",
      "type": "function"
    },
    {
      "inputs": [
        {
          "internalType": "bytes32",
          "name": "role",
          "type": "bytes32"
        },
        {
          "internalType": "address",
          "name": "account",
          "type": "address"
        }
      ],
      "name": "renounceRole",
      "outputs": [],
      "stateMutability": "nonpayable",
      "type": "function"
    },
    {
      "inputs": [
        {
          "internalType": "uint256",
          "name": "scheduleId",
          "type": "uint256"
        }
      ],
      "name": "revocableQuantityForSchedule",
      "outputs": [
        {
          "internalType": "uint256",
          "name": "",
          "type": "uint256"
        }
      ],
      "stateMutability": "view",
      "type": "function"
    },
    {
      "inputs": [
        {
          "internalType": "uint256",
          "name": "scheduleId",
          "type": "uint256"
        },
        {
          "internalType": "address",
          "name": "account",
          "type": "address"
        }
      ],
      "name": "revocableQuantityForScheduleForAccount",
      "outputs": [
        {
          "internalType": "uint256",
          "name": "",
          "type": "uint256"
        }
      ],
      "stateMutability": "view",
      "type": "function"
    },
    {
      "inputs": [
        {
          "internalType": "bytes32",
          "name": "role",
          "type": "bytes32"
        },
        {
          "internalType": "address",
          "name": "account",
          "type": "address"
        }
      ],
      "name": "revokeRole",
      "outputs": [],
      "stateMutability": "nonpayable",
      "type": "function"
    },
    {
      "inputs": [
        {
          "internalType": "address",
          "name": "from",
          "type": "address"
        },
        {
          "internalType": "address",
          "name": "to",
          "type": "address"
        },
        {
          "internalType": "uint256[]",
          "name": "ids",
          "type": "uint256[]"
        },
        {
          "internalType": "uint256[]",
          "name": "amounts",
          "type": "uint256[]"
        },
        {
          "internalType": "bytes",
          "name": "data",
          "type": "bytes"
        }
      ],
      "name": "safeBatchTransferFrom",
      "outputs": [],
      "stateMutability": "nonpayable",
      "type": "function"
    },
    {
      "inputs": [
        {
          "internalType": "address",
          "name": "from",
          "type": "address"
        },
        {
          "internalType": "address",
          "name": "to",
          "type": "address"
        },
        {
          "internalType": "uint256",
          "name": "id",
          "type": "uint256"
        },
        {
          "internalType": "uint256",
          "name": "amount",
          "type": "uint256"
        },
        {
          "internalType": "bytes",
          "name": "data",
          "type": "bytes"
        }
      ],
      "name": "safeTransferFrom",
      "outputs": [],
      "stateMutability": "nonpayable",
      "type": "function"
    },
    {
      "inputs": [
        {
          "internalType": "address",
          "name": "operator",
          "type": "address"
        },
        {
          "internalType": "bool",
          "name": "approved",
          "type": "bool"
        }
      ],
      "name": "setApprovalForAll",
      "outputs": [],
      "stateMutability": "nonpayable",
      "type": "function"
    },
    {
      "inputs": [
        {
          "internalType": "bytes4",
          "name": "interfaceId",
          "type": "bytes4"
        }
      ],
      "name": "supportsInterface",
      "outputs": [
        {
          "internalType": "bool",
          "name": "",
          "type": "bool"
        }
      ],
      "stateMutability": "view",
      "type": "function"
    },
    {
      "inputs": [
        {
          "internalType": "address",
          "name": "sender",
          "type": "address"
        },
        {
          "internalType": "address",
          "name": "",
          "type": "address"
        },
        {
          "internalType": "address",
          "name": "",
          "type": "address"
        },
        {
          "internalType": "uint256",
          "name": "amount",
          "type": "uint256"
        },
        {
          "internalType": "bytes",
          "name": "userData",
          "type": "bytes"
        },
        {
          "internalType": "bytes",
          "name": "operatorData",
          "type": "bytes"
        }
      ],
      "name": "tokensReceived",
      "outputs": [],
      "stateMutability": "nonpayable",
      "type": "function"
    },
    {
      "inputs": [
        {
          "internalType": "uint256",
          "name": "id",
          "type": "uint256"
        }
      ],
      "name": "totalSupply",
      "outputs": [
        {
          "internalType": "uint256",
          "name": "",
          "type": "uint256"
        }
      ],
      "stateMutability": "view",
      "type": "function"
    },
    {
      "inputs": [],
      "name": "unpause",
      "outputs": [],
      "stateMutability": "nonpayable",
      "type": "function"
    },
    {
      "inputs": [
        {
          "internalType": "uint256",
          "name": "",
          "type": "uint256"
        }
      ],
      "name": "uri",
      "outputs": [
        {
          "internalType": "string",
          "name": "",
          "type": "string"
        }
      ],
      "stateMutability": "view",
      "type": "function"
    },
    {
      "inputs": [
        {
          "internalType": "address",
          "name": "recipient",
          "type": "address"
        },
        {
          "internalType": "uint256",
          "name": "scheduleId",
          "type": "uint256"
        },
        {
          "internalType": "uint256",
          "name": "amount",
          "type": "uint256"
        }
      ],
      "name": "withdrawFromEscrowSchedule",
      "outputs": [
        {
          "internalType": "bool",
          "name": "",
          "type": "bool"
        }
      ],
      "stateMutability": "nonpayable",
      "type": "function"
    }
  ],
  "bytecode": "0x608060405234801561001057600080fd5b50614981806100206000396000f3fe608060405234801561001057600080fd5b50600436106102725760003560e01c80638456cb5911610151578063d547741f116100c3578063e63ab1e911610087578063e63ab1e9146105d8578063e985e9c5146105ed578063f242432a14610629578063f5298aca1461063c578063f62d18881461064a578063f77b94fe1461065d57600080fd5b8063d547741f1461056a578063d70c0f941461057d578063d943dac71461059d578063daa55af0146105b0578063e01d7393146105c557600080fd5b8063a217fddf11610115578063a217fddf146104f3578063a22cb465146104fb578063bd85b0391461050e578063be24051f1461052f578063ca15c87314610542578063d53913931461055557600080fd5b80638456cb59146104875780638d7b0daa1461048f5780638f9e8e49146104a25780639010d07c146104b557806391d14854146104e057600080fd5b8063485cc955116101ea5780635d37165a116101ae5780635d37165a146104155780636235a4e9146104285780636b20c4541461043b578063713279b11461044e578063731133e9146104615780637a42132a1461047457600080fd5b8063485cc9551461038c5780634e1273f41461039f5780634f558e79146103bf578063521189a9146103e25780635c975abb1461040957600080fd5b80631f7fdffa1161023c5780631f7fdffa14610315578063248a9ca3146103285780632eb2c2d61461034b5780632f2ff15d1461035e57806336568abe146103715780633f4ba83a1461038457600080fd5b806223de2914610277578062fdd58e1461028c57806301ffc9a7146102b2578063061775c9146102d55780630e89341c146102f5575b600080fd5b61028a6102853660046136c4565b610670565b005b61029f61029a366004613774565b610776565b6040519081526020015b60405180910390f35b6102c56102c03660046137b6565b61080d565b60405190151581526020016102a9565b6102e86102e33660046137d3565b610818565b6040516102a991906138f1565b610308610303366004613953565b6108e8565b6040516102a991906139c4565b61028a610323366004613b2a565b61097c565b61029f610336366004613953565b60009081526065602052604090206001015490565b61028a610359366004613bc4565b6109c2565b61028a61036c366004613c71565b610b34565b61028a61037f366004613c71565b610b5f565b61028a610bdd565b61028a61039a366004613ca1565b610c71565b6103b26103ad366004613ccf565b610eb9565b6040516102a99190613d9b565b6102c56103cd366004613953565b60009081526101c36020526040902054151590565b61029f7fb281fc8c12954d22544db45de3159a39272895b169a852b314f9cc762e44c53b81565b61012d5460ff166102c5565b61029f610423366004613c71565b610fcd565b61029f610436366004613953565b611012565b61028a610449366004613df2565b611068565b61029f61045c366004613953565b611081565b61028a61046f366004613e74565b6110a8565b61029f610482366004613c71565b6110e8565b61028a6110f4565b61029f61049d3660046137d3565b611186565b61028a6104b0366004613eca565b6111ed565b6104c86104c3366004613f0b565b6112a9565b6040516001600160a01b0390911681526020016102a9565b6102c56104ee366004613c71565b6112c1565b61029f600081565b61028a610509366004613f2d565b6112ec565b61029f61051c366004613953565b60009081526101c3602052604090205490565b61028a61053d366004613953565b6112f7565b61029f610550366004613953565b61133d565b61029f60008051602061490c83398151915281565b61028a610578366004613c71565b611354565b61059061058b366004613953565b61137a565b6040516102a99190613f60565b61029f6105ab366004613953565b611535565b61029f60008051602061492c83398151915281565b61028a6105d3366004613f73565b611618565b61029f6000805160206148ec83398151915281565b6102c56105fb366004613ca1565b6001600160a01b03918216600090815260ca6020908152604080832093909416825291909152205460ff1690565b61028a61063736600461400c565b61171d565b61028a610449366004614074565b61028a6106583660046140a9565b6117bd565b6102c561066b366004614074565b611838565b6101f7546001600160a01b0316336001600160a01b0316146106a557604051634628d20b60e01b815260040160405180910390fd5b6106bd60008051602061492c833981519152896112c1565b6106e55787604051637e76b2af60e11b81526004016106dc91906140f1565b60405180910390fd5b60006106f384860186613953565b905061076a818787878080601f01602080910402602001604051908101604052809392919081815260200183838082843760009201919091525050604080516020601f8b01819004810282018101909252898152925089915088908190840183828082843760009201919091525061193292505050565b50505050505050505050565b60006001600160a01b0383166107e25760405162461bcd60e51b815260206004820152602b60248201527f455243313135353a2062616c616e636520717565727920666f7220746865207a60448201526a65726f206164647265737360a81b60648201526084016106dc565b50600081815260c9602090815260408083206001600160a01b03861684529091529020545b92915050565b6000610807826119f6565b6001600160a01b03811660009081526101f56020526040812060609161083d82611a01565b6001600160401b03811115610854576108546139d7565b60405190808252806020026020018201604052801561088d57816020015b61087a613580565b8152602001906001900390816108725790505b50905060005b61089c83611a01565b8110156108e0576108b061058b8483611a0b565b8282815181106108c2576108c2614130565b602002602001018190525080806108d89061415c565b915050610893565b509392505050565b606060cb80546108f790614175565b80601f016020809104026020016040519081016040528092919081815260200182805461092390614175565b80156109705780601f1061094557610100808354040283529160200191610970565b820191906000526020600020905b81548152906001019060200180831161095357829003601f168201915b50505050509050919050565b61099460008051602061490c833981519152336112c1565b6109b05760405162461bcd60e51b81526004016106dc906141af565b6109bc84848484611a17565b50505050565b6109cf8585858585611b79565b60005b8351811015610b2c5760006101f660008684815181106109f4576109f4614130565b602002602001015181526020019081526020016000209050838281518110610a1e57610a1e614130565b6020026020010151600014610a8e57610a7e858381518110610a4257610a42614130565b60200260200101516101f56000896001600160a01b03166001600160a01b03168152602001908152602001600020611c0990919063ffffffff16565b50610a8c6007820187611c15565b505b610ab187868481518110610aa457610aa4614130565b6020026020010151610776565b600003610b1957610b09858381518110610acd57610acd614130565b60200260200101516101f560008a6001600160a01b03166001600160a01b03168152602001908152602001600020611c2a90919063ffffffff16565b50610b176007820188611c36565b505b5080610b248161415c565b9150506109d2565b505050505050565b600082815260656020526040902060010154610b508133611c4b565b610b5a8383611caf565b505050565b6001600160a01b0381163314610bcf5760405162461bcd60e51b815260206004820152602f60248201527f416363657373436f6e74726f6c3a2063616e206f6e6c792072656e6f756e636560448201526e103937b632b9903337b91039b2b63360891b60648201526084016106dc565b610bd98282611d11565b5050565b610bf56000805160206148ec833981519152336112c1565b610c675760405162461bcd60e51b815260206004820152603b60248201527f455243313135355072657365744d696e7465725061757365723a206d7573742060448201527f686176652070617573657220726f6c6520746f20756e7061757365000000000060648201526084016106dc565b610c6f611d33565b565b600054610100900460ff16610c8c5760005460ff1615610c90565b303b155b610cac5760405162461bcd60e51b81526004016106dc9061420c565b600054610100900460ff16158015610cce576000805461ffff19166101011790555b610cef6040518060600160405280602d81526020016148bf602d91396117bd565b604080516001808252818301909252600091602080830190803683370190505090503381600081518110610d2557610d25614130565b60200260200101906001600160a01b031690816001600160a01b031681525050610d4d611dc8565b610d55611dc8565b610d5d611dc8565b610d65611dc8565b610d6d611def565b610d75611dc8565b6101f780546001600160a01b038681166001600160a01b0319928316179092556101f88054928616929091168217905560405163058740e560e31b8152306004820152632c3a072890602401600060405180830381600087803b158015610ddb57600080fd5b505af1158015610def573d6000803e3d6000fd5b50506040516329965a1d60e01b815230600482018190527fb281fc8c12954d22544db45de3159a39272895b169a852b314f9cc762e44c53b60248301526044820152731820a4b7618bde71dce8cdc73aab6c95905fad2492506329965a1d9150606401600060405180830381600087803b158015610e6c57600080fd5b505af1158015610e80573d6000803e3d6000fd5b50505050610ea260008051602061492c833981519152610e9d3390565b611caf565b508015610b5a576000805461ff0019169055505050565b60608151835114610f1e5760405162461bcd60e51b815260206004820152602960248201527f455243313135353a206163636f756e747320616e6420696473206c656e677468604482015268040dad2e6dac2e8c6d60bb1b60648201526084016106dc565b600083516001600160401b03811115610f3957610f396139d7565b604051908082528060200260200182016040528015610f62578160200160208202803683370190505b50905060005b84518110156108e057610fa0858281518110610f8657610f86614130565b6020026020010151858381518110610aa457610aa4614130565b828281518110610fb257610fb2614130565b6020908102919091010152610fc68161415c565b9050610f68565b600080610fd984611012565b60008581526101c36020526040902054909150610ff68486610776565b611000908361425a565b61100a9190614279565b949350505050565b60008181526101f660205260408120600481015460ff1661104957604051633470367960e11b8152600481018490526024016106dc565b806003015461105784611e23565b611061919061429b565b9392505050565b60405163fd647c0960e01b815260040160405180910390fd5b60008181526101f66020526040812061109983611e23565b8160020154611061919061429b565b6110c060008051602061490c833981519152336112c1565b6110dc5760405162461bcd60e51b81526004016106dc906141af565b6109bc84848484611e48565b600080610fd984611081565b61110c6000805160206148ec833981519152336112c1565b61117e5760405162461bcd60e51b815260206004820152603960248201527f455243313135355072657365744d696e7465725061757365723a206d7573742060448201527f686176652070617573657220726f6c6520746f2070617573650000000000000060648201526084016106dc565b610c6f611f45565b6001600160a01b03811660009081526101f5602052604081208190815b6111ac82611a01565b8110156111e4576111c66111c08383611a0b565b86610fcd565b6111d090846142b2565b9250806111dc8161415c565b9150506111a3565b50909392505050565b61012d5460ff16156112115760405162461bcd60e51b81526004016106dc906142ca565b60008051602061492c83398151915261122a8133611c4b565b60005b828110156109bc57600061125885858481811061124c5761124c614130565b90506020020135611535565b60008181526101f6602052604090206004015490915060ff166112965761129685858481811061128a5761128a614130565b90506020020135611f9f565b50806112a18161415c565b91505061122d565b60008281526097602052604081206110619083611a0b565b60009182526065602090815260408084206001600160a01b0393909316845291905290205460ff1690565b610bd9338383612163565b61012d5460ff161561131b5760405162461bcd60e51b81526004016106dc906142ca565b60008051602061492c8339815191526113348133611c4b565b610bd982611f9f565b600081815260976020526040812061080790611a01565b6000828152606560205260409020600101546113708133611c4b565b610b5a8383611d11565b611382613580565b60008281526101f6602052604081209061139e60078301611a01565b90506000816001600160401b038111156113ba576113ba6139d7565b6040519080825280602002602001820160405280156113e3578160200160208202803683370190505b5090506000826001600160401b03811115611400576114006139d7565b604051908082528060200260200182016040528015611429578160200160208202803683370190505b50905060005b61143b85600701611a01565b8110156114b15761144f6007860182611a0b565b83828151811061146157611461614130565b60200260200101906001600160a01b031690816001600160a01b0316815250508682828151811061149457611494614130565b6020908102919091010152806114a98161415c565b91505061142f565b506040518061012001604052808781526020016114db8860009081526101c3602052604090205490565b81526020018381526020016114f08484610eb9565b81528554602082015260018601546040820152600386015460608201526005860154608082015260049095015460ff16151560a0909501949094525091949350505050565b60008061154183612243565b9050600061154e84612252565b6101f8546040516374d03ff760e01b81526004810187905260ff9290921692506000916001600160a01b03909116906374d03ff790602401602060405180830381865afa1580156115a3573d6000803e3d6000fd5b505050506040513d601f19601f820116820180604052508101906115c791906142f4565b6040516bffffffffffffffffffffffff19606086901b166020820152603481018490526054810182905290915060740160408051601f19818403018152919052805160209091012095945050505050565b61012d5460ff161561163c5760405162461bcd60e51b81526004016106dc906142ca565b60008051602061492c8339815191526116558133611c4b565b8584146116755760405163616c411360e01b81526004016106dc9061430d565b8582146116955760405163616c411360e01b81526004016106dc90614362565b60005b86811015611713576117018888838181106116b5576116b5614130565b90506020020160208101906116ca91906137d3565b8787848181106116dc576116dc614130565b905060200201358686858181106116f5576116f5614130565b9050602002013561226b565b8061170b8161415c565b915050611698565b5050505050505050565b61172a858585858561247e565b60008381526101f6602052604090208215611772576001600160a01b03851660009081526101f5602052604090206117629085611c09565b506117706007820186611c15565b505b61177c8685610776565b600003610b2c576001600160a01b03861660009081526101f5602052604090206117a69085611c2a565b506117b46007820187611c36565b50505050505050565b600054610100900460ff166117d85760005460ff16156117dc565b303b155b6117f85760405162461bcd60e51b81526004016106dc9061420c565b600054610100900460ff1615801561181a576000805461ffff19166101011790555b61182382612505565b8015610bd9576000805461ff00191690555050565b6000611845338484612549565b6101f754604051634decdde360e11b81526001600160a01b03868116600483015260248201859052606060448301526000606483015290911690639bd9bbc690608401600060405180830381600087803b1580156118a257600080fd5b505af11580156118b6573d6000803e3d6000fd5b50505060008481526101f660205260408120600381018054919350859290916118e09084906142b2565b909155505060405183815284906001600160a01b0387169033907fff097c7d8b1957a4ff09ef1361b5fb54dcede3941ba836d0beb9d10bec725de69060200160405180910390a4506001949350505050565b60008061193e86612243565b9050600061194b87611535565b60008181526101f6602052604090206004015490915060ff166119715761197187611f9f565b61198c82828860405180602001604052806000815250611e48565b60008181526101f660205260408120600281018054919289926119b09084906142b2565b909155506119c390506007820184611c15565b506001600160a01b03831660009081526101f5602052604090206119e79083611c09565b50600198975050505050505050565b6000610807826126c6565b6000610807825490565b60006110618383612706565b6001600160a01b038416611a3d5760405162461bcd60e51b81526004016106dc906143b4565b8151835114611a5e5760405162461bcd60e51b81526004016106dc906143f5565b33611a6e81600087878787612730565b60005b8451811015611b0a57838181518110611a8c57611a8c614130565b602002602001015160c96000878481518110611aaa57611aaa614130565b602002602001015181526020019081526020016000206000886001600160a01b03166001600160a01b031681526020019081526020016000206000828254611af291906142b2565b90915550819050611b028161415c565b915050611a71565b50846001600160a01b031660006001600160a01b0316826001600160a01b03167f4a39dc06d4c0dbc64b70af90fd698a233a518aa5d07e595d983b8c0526c8f7fb8787604051611b5b92919061443d565b60405180910390a4611b72816000878787876128b0565b5050505050565b6001600160a01b038516331480611b955750611b9585336105fb565b611bfc5760405162461bcd60e51b815260206004820152603260248201527f455243313135353a207472616e736665722063616c6c6572206973206e6f74206044820152711bdddb995c881b9bdc88185c1c1c9bdd995960721b60648201526084016106dc565b611b728585858585612a0b565b60006110618383612bb0565b6000611061836001600160a01b038416612bb0565b60006110618383612bff565b6000611061836001600160a01b038416612bff565b611c5582826112c1565b610bd957611c6d816001600160a01b03166014612cf2565b611c78836020612cf2565b604051602001611c8992919061446b565b60408051601f198184030181529082905262461bcd60e51b82526106dc916004016139c4565b60008051602061492c8339815191528203611d07576001600160a01b03811660009081526101f560205260408120611ce690611a01565b1115611d07578060405163df03622360e01b81526004016106dc91906140f1565b610bd98282612e8d565b611d1b8282612eaf565b6000828152609760205260409020610b5a9082611c36565b61012d5460ff16611d7d5760405162461bcd60e51b815260206004820152601460248201527314185d5cd8589b194e881b9bdd081c185d5cd95960621b60448201526064016106dc565b61012d805460ff191690557f5db9ee0a495bf2e6ff9c91a7834c1ba4fdd244a5e8aa4e537bd38aeae4b073aa335b6040516001600160a01b03909116815260200160405180910390a1565b600054610100900460ff16610c6f5760405162461bcd60e51b81526004016106dc906144e0565b600054610100900460ff16611e165760405162461bcd60e51b81526004016106dc906144e0565b61012d805460ff19169055565b60008181526101f660205260408120611061611e3e82612f16565b8260060154612f7e565b6001600160a01b038416611e6e5760405162461bcd60e51b81526004016106dc906143b4565b6000339050611e946040518060600160405280603a8152602001614885603a9139612f95565b611eb381600087611ea488612fd8565b611ead88612fd8565b87612730565b600084815260c9602090815260408083206001600160a01b038916845290915281208054859290611ee59084906142b2565b909155505060408051858152602081018590526001600160a01b0380881692600092918516917fc3d58168c5ae7397731d063d5bbf3d657854427343f4c083240f7aacaa2d0f62910160405180910390a4611b7281600087878787613023565b61012d5460ff1615611f695760405162461bcd60e51b81526004016106dc906142ca565b61012d805460ff191660011790557f62e78cea01bee320cd4e420270b5ea74000d11b0c9f74754ebdbfc544b05a258611dab3390565b6000611faa82612243565b6101f8546040516374d03ff760e01b8152600481018590529192506000916001600160a01b03909116906374d03ff790602401602060405180830381865afa158015611ffa573d6000803e3d6000fd5b505050506040513d601f19601f8201168201806040525081019061201e91906142f4565b9050600061202b84611535565b90506001600160a01b03831661205457604051636c38382960e11b815260040160405180910390fd5b61206c60008051602061492c833981519152846112c1565b1561208c5782604051632486d30560e11b81526004016106dc91906140f1565b60008181526101f6602052604090206004015460ff16156120ca57604051633893f8e360e21b815260048101829052602481018590526044016106dc565b60008181526101f6602090815260408083206001600160a01b03871684526101f59092529091206120fb9083611c09565b506000600282015560048101805460ff191660011790558281556121236312cf3570846142b2565b6001820155600060068201819055604051869184917fbe98789b2b45a3ed741b744a7e162d17774fa3f96a952c76f85253d05ff4d19a9190a35050505050565b816001600160a01b0316836001600160a01b0316036121d65760405162461bcd60e51b815260206004820152602960248201527f455243313135353a2073657474696e6720617070726f76616c20737461747573604482015268103337b91039b2b63360b91b60648201526084016106dc565b6001600160a01b03838116600081815260ca6020908152604080832094871680845294825291829020805460ff191686151590811790915591519182527f17307eab39ab6107e8899845ad3d59bd9653f200f220920489ca2b5937696c31910160405180910390a3505050565b600061080782601460046130de565b60006004612263836001601e6130de565b901c92915050565b600061227683612243565b9050600061228384611535565b60008181526101f66020526040902060048101549192509060ff166122be57604051633470367960e11b8152600481018390526024016106dc565b60006122c983611e23565b9050816002015481106122f257604051631a05723960e21b8152600481018490526024016106dc565b6000851561232d5761230384611081565b86111561232657604051630c21a50760e31b8152600481018590526024016106dc565b5084612339565b61233684611081565b90505b808360020154612349919061429b565b60028401556006830182905560058301805482919060009061236c9084906142b2565b90915550506007830160005b61238182611a01565b8110156123c1576000612398876104828585611a0b565b90506123ae6123a78484611a0b565b8883612549565b50806123b98161415c565b915050612378565b506101f754604051634decdde360e11b81526001600160a01b038b8116600483015260248201859052606060448301526000606483015290911690639bd9bbc690608401600060405180830381600087803b15801561241f57600080fd5b505af1158015612433573d6000803e3d6000fd5b505050508488427f1c88d66daca38f6d7ea17e24dd97402f816c3970f697a9144270c923082bccb08560405161246b91815260200190565b60405180910390a4505050505050505050565b6001600160a01b03851633148061249a575061249a85336105fb565b6124f85760405162461bcd60e51b815260206004820152602960248201527f455243313135353a2063616c6c6572206973206e6f74206f776e6572206e6f7260448201526808185c1c1c9bdd995960ba1b60648201526084016106dc565b611b72858585858561312a565b600054610100900460ff1661252c5760405162461bcd60e51b81526004016106dc906144e0565b61253581613242565b61253d611def565b61254681613272565b50565b6001600160a01b0383166125ab5760405162461bcd60e51b815260206004820152602360248201527f455243313135353a206275726e2066726f6d20746865207a65726f206164647260448201526265737360e81b60648201526084016106dc565b336125da818560006125bc87612fd8565b6125c587612fd8565b60405180602001604052806000815250612730565b600083815260c9602090815260408083206001600160a01b0388168452909152902054828110156126595760405162461bcd60e51b8152602060048201526024808201527f455243313135353a206275726e20616d6f756e7420657863656564732062616c604482015263616e636560e01b60648201526084016106dc565b600084815260c9602090815260408083206001600160a01b03898116808652918452828520888703905582518981529384018890529092908616917fc3d58168c5ae7397731d063d5bbf3d657854427343f4c083240f7aacaa2d0f62910160405180910390a45050505050565b60006001600160e01b03198216636cdb3d1360e11b14806126f757506001600160e01b031982166303a24d0760e21b145b806108075750610807826132d4565b600082600001828154811061271d5761271d614130565b9060005260206000200154905092915050565b6001600160a01b038581161590851615600061275a60008051602061492c8339815191528a6112c1565b90506001600160a01b0389811690891614158280156127765750805b801561277f5750815b156128265760005b8751811015612820578681815181106127a2576127a2614130565b60200260200101516127c08b8a8481518110610aa457610aa4614130565b101561280e57898882815181106127d9576127d9614130565b6020908102919091010151604051633db7aa8160e21b81526001600160a01b03909216600483015260248201526044016106dc565b806128188161415c565b915050612787565b506128a2565b82156128a25760005b87518110156128a05761285b88828151811061284d5761284d614130565b60200260200101518b610fcd565b87828151811061286d5761286d614130565b6020026020010151111561288e57898882815181106127d9576127d9614130565b806128988161415c565b91505061282f565b505b61076a8a8a8a8a8a8a6132f9565b6001600160a01b0384163b15610b2c5760405163bc197c8160e01b81526001600160a01b0385169063bc197c81906128f4908990899088908890889060040161452b565b6020604051808303816000875af192505050801561292f575060408051601f3d908101601f1916820190925261292c91810190614589565b60015b6129db5761293b6145a6565b806308c379a003612974575061294f6145c2565b8061295a5750612976565b8060405162461bcd60e51b81526004016106dc91906139c4565b505b60405162461bcd60e51b815260206004820152603460248201527f455243313135353a207472616e7366657220746f206e6f6e20455243313135356044820152732932b1b2b4bb32b91034b6b83632b6b2b73a32b960611b60648201526084016106dc565b6001600160e01b0319811663bc197c8160e01b146117b45760405162461bcd60e51b81526004016106dc9061464b565b8151835114612a2c5760405162461bcd60e51b81526004016106dc906143f5565b6001600160a01b038416612a525760405162461bcd60e51b81526004016106dc90614693565b33612a61818787878787612730565b60005b8451811015612b4a576000858281518110612a8157612a81614130565b602002602001015190506000858381518110612a9f57612a9f614130565b602090810291909101810151600084815260c9835260408082206001600160a01b038e168352909352919091205490915081811015612af05760405162461bcd60e51b81526004016106dc906146d8565b600083815260c9602090815260408083206001600160a01b038e8116855292528083208585039055908b16825281208054849290612b2f9084906142b2565b9250508190555050505080612b439061415c565b9050612a64565b50846001600160a01b0316866001600160a01b0316826001600160a01b03167f4a39dc06d4c0dbc64b70af90fd698a233a518aa5d07e595d983b8c0526c8f7fb8787604051612b9a92919061443d565b60405180910390a4610b2c8187878787876128b0565b6000818152600183016020526040812054612bf757508154600181810184556000848152602080822090930184905584548482528286019093526040902091909155610807565b506000610807565b60008181526001830160205260408120548015612ce8576000612c2360018361429b565b8554909150600090612c379060019061429b565b9050818114612c9c576000866000018281548110612c5757612c57614130565b9060005260206000200154905080876000018481548110612c7a57612c7a614130565b6000918252602080832090910192909255918252600188019052604090208390555b8554869080612cad57612cad614722565b600190038181906000526020600020016000905590558560010160008681526020019081526020016000206000905560019350505050610807565b6000915050610807565b60606000612d0183600261425a565b612d0c9060026142b2565b6001600160401b03811115612d2357612d236139d7565b6040519080825280601f01601f191660200182016040528015612d4d576020820181803683370190505b509050600360fc1b81600081518110612d6857612d68614130565b60200101906001600160f81b031916908160001a905350600f60fb1b81600181518110612d9757612d97614130565b60200101906001600160f81b031916908160001a9053506000612dbb84600261425a565b612dc69060016142b2565b90505b6001811115612e3e576f181899199a1a9b1b9c1cb0b131b232b360811b85600f1660108110612dfa57612dfa614130565b1a60f81b828281518110612e1057612e10614130565b60200101906001600160f81b031916908160001a90535060049490941c93612e3781614738565b9050612dc9565b5083156110615760405162461bcd60e51b815260206004820181905260248201527f537472696e67733a20686578206c656e67746820696e73756666696369656e7460448201526064016106dc565b612e978282613415565b6000828152609760205260409020610b5a9082611c15565b612eb982826112c1565b15610bd95760008281526065602090815260408083206001600160a01b0385168085529252808320805460ff1916905551339285917ff6391f5c32d9c69d2a47ea670b442974b53935d1edc7fd64eb21e047a839171b9190a45050565b600081600101544210612f2b57506002015490565b81546001830154600091612f3e9161429b565b83549091504210612f755782548190612f57904261429b565b8460020154612f66919061425a565b612f709190614279565b611061565b60009392505050565b600081831015612f8e5781611061565b5090919050565b61254681604051602401612fa991906139c4565b60408051601f198184030181529190526020810180516001600160e01b031663104c13eb60e21b17905261349b565b6040805160018082528183019092526060916000919060208083019080368337019050509050828160008151811061301257613012614130565b602090810291909101015292915050565b6001600160a01b0384163b15610b2c5760405163f23a6e6160e01b81526001600160a01b0385169063f23a6e6190613067908990899088908890889060040161474f565b6020604051808303816000875af19250505080156130a2575060408051601f3d908101601f1916820190925261309f91810190614589565b60015b6130ae5761293b6145a6565b6001600160e01b0319811663f23a6e6160e01b146117b45760405162461bcd60e51b81526004016106dc9061464b565b6000806130ec60088461425a565b60016130f960088761425a565b613104906002614878565b61310e919061429b565b901b905084811661312060088561425a565b1c95945050505050565b6001600160a01b0384166131505760405162461bcd60e51b81526004016106dc90614693565b33613160818787611ea488612fd8565b600084815260c9602090815260408083206001600160a01b038a168452909152902054838110156131a35760405162461bcd60e51b81526004016106dc906146d8565b600085815260c9602090815260408083206001600160a01b038b81168552925280832087850390559088168252812080548692906131e29084906142b2565b909155505060408051868152602081018690526001600160a01b03808916928a821692918616917fc3d58168c5ae7397731d063d5bbf3d657854427343f4c083240f7aacaa2d0f62910160405180910390a46117b4828888888888613023565b600054610100900460ff166132695760405162461bcd60e51b81526004016106dc906144e0565b612546816134bc565b600054610100900460ff166132995760405162461bcd60e51b81526004016106dc906144e0565b6132a46000336134cf565b6132bc60008051602061490c833981519152336134cf565b6125466000805160206148ec833981519152336134cf565b60006001600160e01b03198216635a05180f60e01b14806108075750610807826134d9565b61330786868686868661350e565b6001600160a01b03851661338f5760005b835181101561338d5782818151811061333357613333614130565b60200260200101516101c3600086848151811061335257613352614130565b60200260200101518152602001908152602001600020600082825461337791906142b2565b9091555061338690508161415c565b9050613318565b505b6001600160a01b038416610b2c5760005b83518110156117b4578281815181106133bb576133bb614130565b60200260200101516101c360008684815181106133da576133da614130565b6020026020010151815260200190815260200160002060008282546133ff919061429b565b9091555061340e90508161415c565b90506133a0565b61341f82826112c1565b610bd95760008281526065602090815260408083206001600160a01b03851684529091529020805460ff191660011790556134573390565b6001600160a01b0316816001600160a01b0316837f2f8788117e7eff1d82e926ec794901d17c78024a50270940304540a733656f0d60405160405180910390a45050565b80516a636f6e736f6c652e6c6f67602083016000808483855afa5050505050565b8051610bd99060cb9060208401906135ce565b610bd98282611caf565b60006001600160e01b03198216637965db0b60e01b148061080757506301ffc9a760e01b6001600160e01b0319831614610807565b610b2c86868686868661012d5460ff1615610b2c5760405162461bcd60e51b815260206004820152602c60248201527f455243313135355061757361626c653a20746f6b656e207472616e736665722060448201526b1dda1a5b19481c185d5cd95960a21b60648201526084016106dc565b60405180610120016040528060008152602001600081526020016060815260200160608152602001600081526020016000815260200160008152602001600081526020016000151581525090565b8280546135da90614175565b90600052602060002090601f0160209004810192826135fc5760008555613642565b82601f1061361557805160ff1916838001178555613642565b82800160010185558215613642579182015b82811115613642578251825591602001919060010190613627565b5061364e929150613652565b5090565b5b8082111561364e5760008155600101613653565b6001600160a01b038116811461254657600080fd5b60008083601f84011261368e57600080fd5b5081356001600160401b038111156136a557600080fd5b6020830191508360208285010111156136bd57600080fd5b9250929050565b60008060008060008060008060c0898b0312156136e057600080fd5b88356136eb81613667565b975060208901356136fb81613667565b9650604089013561370b81613667565b95506060890135945060808901356001600160401b038082111561372e57600080fd5b61373a8c838d0161367c565b909650945060a08b013591508082111561375357600080fd5b506137608b828c0161367c565b999c989b5096995094979396929594505050565b6000806040838503121561378757600080fd5b823561379281613667565b946020939093013593505050565b6001600160e01b03198116811461254657600080fd5b6000602082840312156137c857600080fd5b8135611061816137a0565b6000602082840312156137e557600080fd5b813561106181613667565b600081518084526020808501945080840160005b838110156138295781516001600160a01b031687529582019590820190600101613804565b509495945050505050565b600081518084526020808501945080840160005b8381101561382957815187529582019590820190600101613848565b60006101208251845260208301516020850152604083015181604086015261388e828601826137f0565b915050606083015184820360608601526138a88282613834565b9150506080830151608085015260a083015160a085015260c083015160c085015260e083015160e0850152610100808401516138e78287018215159052565b5090949350505050565b6000602080830181845280855180835260408601915060408160051b870101925083870160005b8281101561394657603f19888603018452613934858351613864565b94509285019290850190600101613918565b5092979650505050505050565b60006020828403121561396557600080fd5b5035919050565b60005b8381101561398757818101518382015260200161396f565b838111156109bc5750506000910152565b600081518084526139b081602086016020860161396c565b601f01601f19169290920160200192915050565b6020815260006110616020830184613998565b634e487b7160e01b600052604160045260246000fd5b601f8201601f191681016001600160401b0381118282101715613a1257613a126139d7565b6040525050565b60006001600160401b03821115613a3257613a326139d7565b5060051b60200190565b600082601f830112613a4d57600080fd5b81356020613a5a82613a19565b604051613a6782826139ed565b83815260059390931b8501820192828101915086841115613a8757600080fd5b8286015b84811015613aa25780358352918301918301613a8b565b509695505050505050565b60006001600160401b03831115613ac657613ac66139d7565b604051613add601f8501601f1916602001826139ed565b809150838152848484011115613af257600080fd5b83836020830137600060208583010152509392505050565b600082601f830112613b1b57600080fd5b61106183833560208501613aad565b60008060008060808587031215613b4057600080fd5b8435613b4b81613667565b935060208501356001600160401b0380821115613b6757600080fd5b613b7388838901613a3c565b94506040870135915080821115613b8957600080fd5b613b9588838901613a3c565b93506060870135915080821115613bab57600080fd5b50613bb887828801613b0a565b91505092959194509250565b600080600080600060a08688031215613bdc57600080fd5b8535613be781613667565b94506020860135613bf781613667565b935060408601356001600160401b0380821115613c1357600080fd5b613c1f89838a01613a3c565b94506060880135915080821115613c3557600080fd5b613c4189838a01613a3c565b93506080880135915080821115613c5757600080fd5b50613c6488828901613b0a565b9150509295509295909350565b60008060408385031215613c8457600080fd5b823591506020830135613c9681613667565b809150509250929050565b60008060408385031215613cb457600080fd5b8235613cbf81613667565b91506020830135613c9681613667565b60008060408385031215613ce257600080fd5b82356001600160401b0380821115613cf957600080fd5b818501915085601f830112613d0d57600080fd5b81356020613d1a82613a19565b604051613d2782826139ed565b83815260059390931b8501820192828101915089841115613d4757600080fd5b948201945b83861015613d6e578535613d5f81613667565b82529482019490820190613d4c565b96505086013592505080821115613d8457600080fd5b50613d9185828601613a3c565b9150509250929050565b6020815260006110616020830184613834565b60008083601f840112613dc057600080fd5b5081356001600160401b03811115613dd757600080fd5b6020830191508360208260051b85010111156136bd57600080fd5b600080600080600060608688031215613e0a57600080fd5b8535613e1581613667565b945060208601356001600160401b0380821115613e3157600080fd5b613e3d89838a01613dae565b90965094506040880135915080821115613e5657600080fd5b50613e6388828901613dae565b969995985093965092949392505050565b60008060008060808587031215613e8a57600080fd5b8435613e9581613667565b9350602085013592506040850135915060608501356001600160401b03811115613ebe57600080fd5b613bb887828801613b0a565b60008060208385031215613edd57600080fd5b82356001600160401b03811115613ef357600080fd5b613eff85828601613dae565b90969095509350505050565b60008060408385031215613f1e57600080fd5b50508035926020909101359150565b60008060408385031215613f4057600080fd5b8235613f4b81613667565b915060208301358015158114613c9657600080fd5b6020815260006110616020830184613864565b60008060008060008060608789031215613f8c57600080fd5b86356001600160401b0380821115613fa357600080fd5b613faf8a838b01613dae565b90985096506020890135915080821115613fc857600080fd5b613fd48a838b01613dae565b90965094506040890135915080821115613fed57600080fd5b50613ffa89828a01613dae565b979a9699509497509295939492505050565b600080600080600060a0868803121561402457600080fd5b853561402f81613667565b9450602086013561403f81613667565b9350604086013592506060860135915060808601356001600160401b0381111561406857600080fd5b613c6488828901613b0a565b60008060006060848603121561408957600080fd5b833561409481613667565b95602085013595506040909401359392505050565b6000602082840312156140bb57600080fd5b81356001600160401b038111156140d157600080fd5b8201601f810184136140e257600080fd5b61100a84823560208401613aad565b6001600160a01b0391909116815260406020820181905260139082015272455343524f575f43524541544f525f524f4c4560681b606082015260800190565b634e487b7160e01b600052603260045260246000fd5b634e487b7160e01b600052601160045260246000fd5b60006001820161416e5761416e614146565b5060010190565b600181811c9082168061418957607f821691505b6020821081036141a957634e487b7160e01b600052602260045260246000fd5b50919050565b60208082526038908201527f455243313135355072657365744d696e7465725061757365723a206d7573742060408201527f68617665206d696e74657220726f6c6520746f206d696e740000000000000000606082015260800190565b6020808252602e908201527f496e697469616c697a61626c653a20636f6e747261637420697320616c72656160408201526d191e481a5b9a5d1a585b1a5e995960921b606082015260800190565b600081600019048311821515161561427457614274614146565b500290565b60008261429657634e487b7160e01b600052601260045260246000fd5b500490565b6000828210156142ad576142ad614146565b500390565b600082198211156142c5576142c5614146565b500190565b60208082526010908201526f14185d5cd8589b194e881c185d5cd95960821b604082015260600190565b60006020828403121561430657600080fd5b5051919050565b60408152600061433960408301600c81526b66726f6d4163636f756e747360a01b602082015260400190565b828103602093840152600a81526972656d6f76616c49647360b01b928101929092525060400190565b60408152600061438e60408301600c81526b66726f6d4163636f756e747360a01b602082015260400190565b8281036020938401526007815266616d6f756e747360c81b928101929092525060400190565b60208082526021908201527f455243313135353a206d696e7420746f20746865207a65726f206164647265736040820152607360f81b606082015260800190565b60208082526028908201527f455243313135353a2069647320616e6420616d6f756e7473206c656e677468206040820152670dad2e6dac2e8c6d60c31b606082015260800190565b6040815260006144506040830185613834565b82810360208401526144628185613834565b95945050505050565b7f416363657373436f6e74726f6c3a206163636f756e74200000000000000000008152600083516144a381601785016020880161396c565b7001034b99036b4b9b9b4b733903937b6329607d1b60179184019182015283516144d481602884016020880161396c565b01602801949350505050565b6020808252602b908201527f496e697469616c697a61626c653a20636f6e7472616374206973206e6f74206960408201526a6e697469616c697a696e6760a81b606082015260800190565b6001600160a01b0386811682528516602082015260a06040820181905260009061455790830186613834565b82810360608401526145698186613834565b9050828103608084015261457d8185613998565b98975050505050505050565b60006020828403121561459b57600080fd5b8151611061816137a0565b600060033d11156145bf5760046000803e5060005160e01c5b90565b600060443d10156145d05790565b6040516003193d81016004833e81513d6001600160401b0381602484011181841117156145ff57505050505090565b82850191508151818111156146175750505050505090565b843d87010160208285010111156146315750505050505090565b614640602082860101876139ed565b509095945050505050565b60208082526028908201527f455243313135353a204552433131353552656365697665722072656a656374656040820152676420746f6b656e7360c01b606082015260800190565b60208082526025908201527f455243313135353a207472616e7366657220746f20746865207a65726f206164604082015264647265737360d81b606082015260800190565b6020808252602a908201527f455243313135353a20696e73756666696369656e742062616c616e636520666f60408201526939103a3930b739b332b960b11b606082015260800190565b634e487b7160e01b600052603160045260246000fd5b60008161474757614747614146565b506000190190565b6001600160a01b03868116825285166020820152604081018490526060810183905260a06080820181905260009061478990830184613998565b979650505050505050565b600181815b808511156147cf5781600019048211156147b5576147b5614146565b808516156147c257918102915b93841c9390800290614799565b509250929050565b6000826147e657506001610807565b816147f357506000610807565b816001811461480957600281146148135761482f565b6001915050610807565b60ff84111561482457614824614146565b50506001821b610807565b5060208310610133831016604e8410600b8410161715614852575081810a610807565b61485c8383614794565b806000190482111561487057614870614146565b029392505050565b600061106183836147d756fe696e7369646520455243313135357570677261646561626c65205f6d696e74206265666f7265206265666f7265546f6b656e5472616e7366657268747470733a2f2f6e6f72692e636f6d2f6170692f657363726f777363686564756c652f7b69647d2e6a736f6e65d7a28e3265b37a6474929f336521b332c1681b933f6cb9f3376673440d862a9f2df0fed2c77648de5860a4cc508cd0818c85b8b8a1ab4ceeef8d981c8956a602001401bd80c60ccf68a3f1bc912957d6b932fa109a68b27dee5bdb776acfc6a264697066735822122059650ce46060bf9ae5050d5d8a593e8ea11b3aa179427ec2d4ff6f0f86fc46cb64736f6c634300080d0033",
  "linkReferences": {},
  "deployedLinkReferences": {}
}