{
  "_format": "hh-sol-artifact-1",
  "contractName": "MockCertificate",
  "sourceName": "contracts/test/MockCertificate.sol",
  "abi": [
    {
      "inputs": [],
      "name": "ApprovalCallerNotOwnerNorApproved",
      "type": "error"
    },
    {
      "inputs": [],
      "name": "ApprovalQueryForNonexistentToken",
      "type": "error"
    },
    {
      "inputs": [],
      "name": "ApproveToCaller",
      "type": "error"
    },
    {
      "inputs": [],
      "name": "BalanceQueryForZeroAddress",
      "type": "error"
    },
    {
      "inputs": [],
      "name": "InvalidQueryRange",
      "type": "error"
    },
    {
      "inputs": [],
      "name": "MintERC2309QuantityExceedsLimit",
      "type": "error"
    },
    {
      "inputs": [],
      "name": "MintToZeroAddress",
      "type": "error"
    },
    {
      "inputs": [],
      "name": "MintZeroQuantity",
      "type": "error"
    },
    {
      "inputs": [],
      "name": "OwnerQueryForNonexistentToken",
      "type": "error"
    },
    {
      "inputs": [],
      "name": "OwnershipNotInitializedForExtraData",
      "type": "error"
    },
    {
      "inputs": [],
      "name": "TransferCallerNotOwnerNorApproved",
      "type": "error"
    },
    {
      "inputs": [],
      "name": "TransferFromIncorrectOwner",
      "type": "error"
    },
    {
      "inputs": [],
      "name": "TransferToNonERC721ReceiverImplementer",
      "type": "error"
    },
    {
      "inputs": [],
      "name": "TransferToZeroAddress",
      "type": "error"
    },
    {
      "inputs": [],
      "name": "URIQueryForNonexistentToken",
      "type": "error"
    },
    {
      "anonymous": false,
      "inputs": [
        {
          "indexed": true,
          "internalType": "address",
          "name": "owner",
          "type": "address"
        },
        {
          "indexed": true,
          "internalType": "address",
          "name": "approved",
          "type": "address"
        },
        {
          "indexed": true,
          "internalType": "uint256",
          "name": "tokenId",
          "type": "uint256"
        }
      ],
      "name": "Approval",
      "type": "event"
    },
    {
      "anonymous": false,
      "inputs": [
        {
          "indexed": true,
          "internalType": "address",
          "name": "owner",
          "type": "address"
        },
        {
          "indexed": true,
          "internalType": "address",
          "name": "operator",
          "type": "address"
        },
        {
          "indexed": false,
          "internalType": "bool",
          "name": "approved",
          "type": "bool"
        }
      ],
      "name": "ApprovalForAll",
      "type": "event"
    },
    {
      "anonymous": false,
      "inputs": [
        {
          "indexed": true,
          "internalType": "uint256",
          "name": "fromTokenId",
          "type": "uint256"
        },
        {
          "indexed": false,
          "internalType": "uint256",
          "name": "toTokenId",
          "type": "uint256"
        },
        {
          "indexed": true,
          "internalType": "address",
          "name": "from",
          "type": "address"
        },
        {
          "indexed": true,
          "internalType": "address",
          "name": "to",
          "type": "address"
        }
      ],
      "name": "ConsecutiveTransfer",
      "type": "event"
    },
    {
      "anonymous": false,
      "inputs": [
        {
          "indexed": false,
          "internalType": "uint8",
          "name": "version",
          "type": "uint8"
        }
      ],
      "name": "Initialized",
      "type": "event"
    },
    {
      "anonymous": false,
      "inputs": [
        {
          "indexed": true,
          "internalType": "address",
          "name": "previousOwner",
          "type": "address"
        },
        {
          "indexed": true,
          "internalType": "address",
          "name": "newOwner",
          "type": "address"
        }
      ],
      "name": "OwnershipTransferred",
      "type": "event"
    },
    {
      "anonymous": false,
      "inputs": [
        {
          "indexed": false,
          "internalType": "address",
          "name": "account",
          "type": "address"
        }
      ],
      "name": "Paused",
      "type": "event"
    },
    {
      "anonymous": false,
      "inputs": [
        {
          "indexed": true,
          "internalType": "address",
          "name": "from",
          "type": "address"
        },
        {
          "indexed": true,
          "internalType": "uint256",
          "name": "toTokenId",
          "type": "uint256"
        },
        {
          "indexed": true,
          "internalType": "address",
          "name": "childContract",
          "type": "address"
        },
        {
          "indexed": false,
          "internalType": "uint256",
          "name": "childTokenId",
          "type": "uint256"
        },
        {
          "indexed": false,
          "internalType": "uint256",
          "name": "amount",
          "type": "uint256"
        }
      ],
      "name": "ReceivedChild",
      "type": "event"
    },
    {
      "anonymous": false,
      "inputs": [
        {
          "indexed": true,
          "internalType": "bytes32",
          "name": "role",
          "type": "bytes32"
        },
        {
          "indexed": true,
          "internalType": "bytes32",
          "name": "previousAdminRole",
          "type": "bytes32"
        },
        {
          "indexed": true,
          "internalType": "bytes32",
          "name": "newAdminRole",
          "type": "bytes32"
        }
      ],
      "name": "RoleAdminChanged",
      "type": "event"
    },
    {
      "anonymous": false,
      "inputs": [
        {
          "indexed": true,
          "internalType": "bytes32",
          "name": "role",
          "type": "bytes32"
        },
        {
          "indexed": true,
          "internalType": "address",
          "name": "account",
          "type": "address"
        },
        {
          "indexed": true,
          "internalType": "address",
          "name": "sender",
          "type": "address"
        }
      ],
      "name": "RoleGranted",
      "type": "event"
    },
    {
      "anonymous": false,
      "inputs": [
        {
          "indexed": true,
          "internalType": "bytes32",
          "name": "role",
          "type": "bytes32"
        },
        {
          "indexed": true,
          "internalType": "address",
          "name": "account",
          "type": "address"
        },
        {
          "indexed": true,
          "internalType": "address",
          "name": "sender",
          "type": "address"
        }
      ],
      "name": "RoleRevoked",
      "type": "event"
    },
    {
      "anonymous": false,
      "inputs": [
        {
          "indexed": true,
          "internalType": "address",
          "name": "from",
          "type": "address"
        },
        {
          "indexed": true,
          "internalType": "address",
          "name": "to",
          "type": "address"
        },
        {
          "indexed": true,
          "internalType": "uint256",
          "name": "tokenId",
          "type": "uint256"
        }
      ],
      "name": "Transfer",
      "type": "event"
    },
    {
      "anonymous": false,
      "inputs": [
        {
          "indexed": true,
          "internalType": "uint256",
          "name": "fromTokenId",
          "type": "uint256"
        },
        {
          "indexed": true,
          "internalType": "address",
          "name": "to",
          "type": "address"
        },
        {
          "indexed": true,
          "internalType": "address",
          "name": "childContract",
          "type": "address"
        },
        {
          "indexed": false,
          "internalType": "uint256[]",
          "name": "childTokenIds",
          "type": "uint256[]"
        },
        {
          "indexed": false,
          "internalType": "uint256[]",
          "name": "amounts",
          "type": "uint256[]"
        }
      ],
      "name": "TransferBatchChild",
      "type": "event"
    },
    {
      "anonymous": false,
      "inputs": [
        {
          "indexed": true,
          "internalType": "uint256",
          "name": "fromTokenId",
          "type": "uint256"
        },
        {
          "indexed": true,
          "internalType": "address",
          "name": "to",
          "type": "address"
        },
        {
          "indexed": true,
          "internalType": "address",
          "name": "childContract",
          "type": "address"
        },
        {
          "indexed": false,
          "internalType": "uint256",
          "name": "childTokenId",
          "type": "uint256"
        },
        {
          "indexed": false,
          "internalType": "uint256",
          "name": "amount",
          "type": "uint256"
        }
      ],
      "name": "TransferSingleChild",
      "type": "event"
    },
    {
      "anonymous": false,
      "inputs": [
        {
          "indexed": false,
          "internalType": "address",
          "name": "account",
          "type": "address"
        }
      ],
      "name": "Unpaused",
      "type": "event"
    },
    {
      "inputs": [],
      "name": "DEFAULT_ADMIN_ROLE",
      "outputs": [
        {
          "internalType": "bytes32",
          "name": "",
          "type": "bytes32"
        }
      ],
      "stateMutability": "view",
      "type": "function"
    },
    {
      "inputs": [],
      "name": "MINTER_ROLE",
      "outputs": [
        {
          "internalType": "bytes32",
          "name": "",
          "type": "bytes32"
        }
      ],
      "stateMutability": "view",
      "type": "function"
    },
    {
      "inputs": [],
      "name": "PAUSER_ROLE",
      "outputs": [
        {
          "internalType": "bytes32",
          "name": "",
          "type": "bytes32"
        }
      ],
      "stateMutability": "view",
      "type": "function"
    },
    {
      "inputs": [
        {
          "internalType": "address",
          "name": "to",
          "type": "address"
        },
        {
          "internalType": "uint256",
          "name": "tokenId",
          "type": "uint256"
        }
      ],
      "name": "approve",
      "outputs": [],
      "stateMutability": "nonpayable",
      "type": "function"
    },
    {
      "inputs": [
        {
          "internalType": "address",
          "name": "owner",
          "type": "address"
        }
      ],
      "name": "balanceOf",
      "outputs": [
        {
          "internalType": "uint256",
          "name": "",
          "type": "uint256"
        }
      ],
      "stateMutability": "view",
      "type": "function"
    },
    {
      "inputs": [
        {
          "internalType": "uint256",
          "name": "tokenId",
          "type": "uint256"
        }
      ],
      "name": "burn",
      "outputs": [],
      "stateMutability": "nonpayable",
      "type": "function"
    },
    {
      "inputs": [
        {
          "internalType": "uint256",
          "name": "tokenId",
          "type": "uint256"
        },
        {
          "internalType": "address",
          "name": "childContract",
          "type": "address"
        },
        {
          "internalType": "uint256",
          "name": "childTokenId",
          "type": "uint256"
        }
      ],
      "name": "childBalance",
      "outputs": [
        {
          "internalType": "uint256",
          "name": "",
          "type": "uint256"
        }
      ],
      "stateMutability": "view",
      "type": "function"
    },
    {
      "inputs": [
        {
          "internalType": "uint256",
          "name": "tokenId",
          "type": "uint256"
        }
      ],
      "name": "childContractsFor",
      "outputs": [
        {
          "internalType": "address[]",
          "name": "",
          "type": "address[]"
        }
      ],
      "stateMutability": "view",
      "type": "function"
    },
    {
      "inputs": [
        {
          "internalType": "uint256",
          "name": "tokenId",
          "type": "uint256"
        },
        {
          "internalType": "address",
          "name": "childContract",
          "type": "address"
        }
      ],
      "name": "childIdsForOn",
      "outputs": [
        {
          "internalType": "uint256[]",
          "name": "",
          "type": "uint256[]"
        }
      ],
      "stateMutability": "view",
      "type": "function"
    },
    {
      "inputs": [
        {
          "internalType": "uint256",
          "name": "tokenId",
          "type": "uint256"
        }
      ],
      "name": "explicitOwnershipOf",
      "outputs": [
        {
          "components": [
            {
              "internalType": "address",
              "name": "addr",
              "type": "address"
            },
            {
              "internalType": "uint64",
              "name": "startTimestamp",
              "type": "uint64"
            },
            {
              "internalType": "bool",
              "name": "burned",
              "type": "bool"
            },
            {
              "internalType": "uint24",
              "name": "extraData",
              "type": "uint24"
            }
          ],
          "internalType": "struct IERC721AUpgradeable.TokenOwnership",
          "name": "",
          "type": "tuple"
        }
      ],
      "stateMutability": "view",
      "type": "function"
    },
    {
      "inputs": [
        {
          "internalType": "uint256[]",
          "name": "tokenIds",
          "type": "uint256[]"
        }
      ],
      "name": "explicitOwnershipsOf",
      "outputs": [
        {
          "components": [
            {
              "internalType": "address",
              "name": "addr",
              "type": "address"
            },
            {
              "internalType": "uint64",
              "name": "startTimestamp",
              "type": "uint64"
            },
            {
              "internalType": "bool",
              "name": "burned",
              "type": "bool"
            },
            {
              "internalType": "uint24",
              "name": "extraData",
              "type": "uint24"
            }
          ],
          "internalType": "struct IERC721AUpgradeable.TokenOwnership[]",
          "name": "",
          "type": "tuple[]"
        }
      ],
      "stateMutability": "view",
      "type": "function"
    },
    {
      "inputs": [
        {
          "internalType": "uint256",
          "name": "tokenId",
          "type": "uint256"
        }
      ],
      "name": "getApproved",
      "outputs": [
        {
          "internalType": "address",
          "name": "",
          "type": "address"
        }
      ],
      "stateMutability": "view",
      "type": "function"
    },
    {
      "inputs": [
        {
          "internalType": "bytes32",
          "name": "role",
          "type": "bytes32"
        }
      ],
      "name": "getRoleAdmin",
      "outputs": [
        {
          "internalType": "bytes32",
          "name": "",
          "type": "bytes32"
        }
      ],
      "stateMutability": "view",
      "type": "function"
    },
    {
      "inputs": [
        {
          "internalType": "bytes32",
          "name": "role",
          "type": "bytes32"
        },
        {
          "internalType": "uint256",
          "name": "index",
          "type": "uint256"
        }
      ],
      "name": "getRoleMember",
      "outputs": [
        {
          "internalType": "address",
          "name": "",
          "type": "address"
        }
      ],
      "stateMutability": "view",
      "type": "function"
    },
    {
      "inputs": [
        {
          "internalType": "bytes32",
          "name": "role",
          "type": "bytes32"
        }
      ],
      "name": "getRoleMemberCount",
      "outputs": [
        {
          "internalType": "uint256",
          "name": "",
          "type": "uint256"
        }
      ],
      "stateMutability": "view",
      "type": "function"
    },
    {
      "inputs": [
        {
          "internalType": "bytes32",
          "name": "role",
          "type": "bytes32"
        },
        {
          "internalType": "address",
          "name": "account",
          "type": "address"
        }
      ],
      "name": "grantRole",
      "outputs": [],
      "stateMutability": "nonpayable",
      "type": "function"
    },
    {
      "inputs": [
        {
          "internalType": "bytes32",
          "name": "role",
          "type": "bytes32"
        },
        {
          "internalType": "address",
          "name": "account",
          "type": "address"
        }
      ],
      "name": "hasRole",
      "outputs": [
        {
          "internalType": "bool",
          "name": "",
          "type": "bool"
        }
      ],
      "stateMutability": "view",
      "type": "function"
    },
    {
      "inputs": [],
      "name": "initialize",
      "outputs": [],
      "stateMutability": "nonpayable",
      "type": "function"
    },
    {
      "inputs": [
        {
          "internalType": "address",
          "name": "owner",
          "type": "address"
        },
        {
          "internalType": "address",
          "name": "operator",
          "type": "address"
        }
      ],
      "name": "isApprovedForAll",
      "outputs": [
        {
          "internalType": "bool",
          "name": "",
          "type": "bool"
        }
      ],
      "stateMutability": "view",
      "type": "function"
    },
    {
      "inputs": [
        {
          "internalType": "address",
          "name": "to",
          "type": "address"
        },
        {
          "internalType": "uint256",
          "name": "tokenId",
          "type": "uint256"
        }
      ],
      "name": "mint",
      "outputs": [],
      "stateMutability": "nonpayable",
      "type": "function"
    },
    {
      "inputs": [],
      "name": "name",
      "outputs": [
        {
          "internalType": "string",
          "name": "",
          "type": "string"
        }
      ],
      "stateMutability": "view",
      "type": "function"
    },
    {
      "inputs": [
        {
          "internalType": "address",
          "name": "operator",
          "type": "address"
        },
        {
          "internalType": "address",
          "name": "from",
          "type": "address"
        },
        {
          "internalType": "uint256[]",
          "name": "ids",
          "type": "uint256[]"
        },
        {
          "internalType": "uint256[]",
          "name": "values",
          "type": "uint256[]"
        },
        {
          "internalType": "bytes",
          "name": "data",
          "type": "bytes"
        }
      ],
      "name": "onERC1155BatchReceived",
      "outputs": [
        {
          "internalType": "bytes4",
          "name": "",
          "type": "bytes4"
        }
      ],
      "stateMutability": "nonpayable",
      "type": "function"
    },
    {
      "inputs": [
        {
          "internalType": "address",
          "name": "operator",
          "type": "address"
        },
        {
          "internalType": "address",
          "name": "from",
          "type": "address"
        },
        {
          "internalType": "uint256",
          "name": "id",
          "type": "uint256"
        },
        {
          "internalType": "uint256",
          "name": "amount",
          "type": "uint256"
        },
        {
          "internalType": "bytes",
          "name": "data",
          "type": "bytes"
        }
      ],
      "name": "onERC1155Received",
      "outputs": [
        {
          "internalType": "bytes4",
          "name": "",
          "type": "bytes4"
        }
      ],
      "stateMutability": "nonpayable",
      "type": "function"
    },
    {
      "inputs": [],
      "name": "owner",
      "outputs": [
        {
          "internalType": "address",
          "name": "",
          "type": "address"
        }
      ],
      "stateMutability": "view",
      "type": "function"
    },
    {
      "inputs": [
        {
          "internalType": "uint256",
          "name": "tokenId",
          "type": "uint256"
        }
      ],
      "name": "ownerOf",
      "outputs": [
        {
          "internalType": "address",
          "name": "",
          "type": "address"
        }
      ],
      "stateMutability": "view",
      "type": "function"
    },
    {
      "inputs": [],
      "name": "pause",
      "outputs": [],
      "stateMutability": "nonpayable",
      "type": "function"
    },
    {
      "inputs": [],
      "name": "paused",
      "outputs": [
        {
          "internalType": "bool",
          "name": "",
          "type": "bool"
        }
      ],
      "stateMutability": "view",
      "type": "function"
    },
    {
      "inputs": [],
      "name": "renounceOwnership",
      "outputs": [],
      "stateMutability": "nonpayable",
      "type": "function"
    },
    {
      "inputs": [
        {
          "internalType": "bytes32",
          "name": "role",
          "type": "bytes32"
        },
        {
          "internalType": "address",
          "name": "account",
          "type": "address"
        }
      ],
      "name": "renounceRole",
      "outputs": [],
      "stateMutability": "nonpayable",
      "type": "function"
    },
    {
      "inputs": [
        {
          "internalType": "bytes32",
          "name": "role",
          "type": "bytes32"
        },
        {
          "internalType": "address",
          "name": "account",
          "type": "address"
        }
      ],
      "name": "revokeRole",
      "outputs": [],
      "stateMutability": "nonpayable",
      "type": "function"
    },
    {
      "inputs": [
        {
          "internalType": "uint256",
          "name": "fromTokenId",
          "type": "uint256"
        },
        {
          "internalType": "address",
          "name": "to",
          "type": "address"
        },
        {
          "internalType": "address",
          "name": "childContract",
          "type": "address"
        },
        {
          "internalType": "uint256[]",
          "name": "childTokenIds",
          "type": "uint256[]"
        },
        {
          "internalType": "uint256[]",
          "name": "amounts",
          "type": "uint256[]"
        },
        {
          "internalType": "bytes",
          "name": "data",
          "type": "bytes"
        }
      ],
      "name": "safeBatchTransferChildFrom",
      "outputs": [],
      "stateMutability": "nonpayable",
      "type": "function"
    },
    {
      "inputs": [
        {
          "internalType": "uint256",
          "name": "fromTokenId",
          "type": "uint256"
        },
        {
          "internalType": "address",
          "name": "to",
          "type": "address"
        },
        {
          "internalType": "address",
          "name": "childContract",
          "type": "address"
        },
        {
          "internalType": "uint256",
          "name": "childTokenId",
          "type": "uint256"
        },
        {
          "internalType": "uint256",
          "name": "amount",
          "type": "uint256"
        },
        {
          "internalType": "bytes",
          "name": "data",
          "type": "bytes"
        }
      ],
      "name": "safeTransferChildFrom",
      "outputs": [],
      "stateMutability": "nonpayable",
      "type": "function"
    },
    {
      "inputs": [
        {
          "internalType": "address",
          "name": "from",
          "type": "address"
        },
        {
          "internalType": "address",
          "name": "to",
          "type": "address"
        },
        {
          "internalType": "uint256",
          "name": "tokenId",
          "type": "uint256"
        }
      ],
      "name": "safeTransferFrom",
      "outputs": [],
      "stateMutability": "nonpayable",
      "type": "function"
    },
    {
      "inputs": [
        {
          "internalType": "address",
          "name": "from",
          "type": "address"
        },
        {
          "internalType": "address",
          "name": "to",
          "type": "address"
        },
        {
          "internalType": "uint256",
          "name": "tokenId",
          "type": "uint256"
        },
        {
          "internalType": "bytes",
          "name": "_data",
          "type": "bytes"
        }
      ],
      "name": "safeTransferFrom",
      "outputs": [],
      "stateMutability": "nonpayable",
      "type": "function"
    },
    {
      "inputs": [
        {
          "internalType": "address",
          "name": "operator",
          "type": "address"
        },
        {
          "internalType": "bool",
          "name": "approved",
          "type": "bool"
        }
      ],
      "name": "setApprovalForAll",
      "outputs": [],
      "stateMutability": "nonpayable",
      "type": "function"
    },
    {
      "inputs": [
        {
          "internalType": "bytes4",
          "name": "interfaceId",
          "type": "bytes4"
        }
      ],
      "name": "supportsInterface",
      "outputs": [
        {
          "internalType": "bool",
          "name": "",
          "type": "bool"
        }
      ],
      "stateMutability": "view",
      "type": "function"
    },
    {
      "inputs": [],
      "name": "symbol",
      "outputs": [
        {
          "internalType": "string",
          "name": "",
          "type": "string"
        }
      ],
      "stateMutability": "view",
      "type": "function"
    },
    {
      "inputs": [
        {
          "internalType": "uint256",
          "name": "tokenId",
          "type": "uint256"
        }
      ],
      "name": "tokenURI",
      "outputs": [
        {
          "internalType": "string",
          "name": "",
          "type": "string"
        }
      ],
      "stateMutability": "view",
      "type": "function"
    },
    {
      "inputs": [
        {
          "internalType": "address",
          "name": "owner",
          "type": "address"
        }
      ],
      "name": "tokensOfOwner",
      "outputs": [
        {
          "internalType": "uint256[]",
          "name": "",
          "type": "uint256[]"
        }
      ],
      "stateMutability": "view",
      "type": "function"
    },
    {
      "inputs": [
        {
          "internalType": "address",
          "name": "owner",
          "type": "address"
        },
        {
          "internalType": "uint256",
          "name": "start",
          "type": "uint256"
        },
        {
          "internalType": "uint256",
          "name": "stop",
          "type": "uint256"
        }
      ],
      "name": "tokensOfOwnerIn",
      "outputs": [
        {
          "internalType": "uint256[]",
          "name": "",
          "type": "uint256[]"
        }
      ],
      "stateMutability": "view",
      "type": "function"
    },
    {
      "inputs": [],
      "name": "totalSupply",
      "outputs": [
        {
          "internalType": "uint256",
          "name": "",
          "type": "uint256"
        }
      ],
      "stateMutability": "view",
      "type": "function"
    },
    {
      "inputs": [
        {
          "internalType": "address",
          "name": "from",
          "type": "address"
        },
        {
          "internalType": "address",
          "name": "to",
          "type": "address"
        },
        {
          "internalType": "uint256",
          "name": "tokenId",
          "type": "uint256"
        }
      ],
      "name": "transferFrom",
      "outputs": [],
      "stateMutability": "nonpayable",
      "type": "function"
    },
    {
      "inputs": [
        {
          "internalType": "address",
          "name": "newOwner",
          "type": "address"
        }
      ],
      "name": "transferOwnership",
      "outputs": [],
      "stateMutability": "nonpayable",
      "type": "function"
    },
    {
      "inputs": [],
      "name": "unpause",
      "outputs": [],
      "stateMutability": "nonpayable",
      "type": "function"
    }
  ],
  "bytecode": "0x60806040523480156200001157600080fd5b506200001c62000022565b620000e4565b600054610100900460ff16156200008f5760405162461bcd60e51b815260206004820152602760248201527f496e697469616c697a61626c653a20636f6e747261637420697320696e697469604482015266616c697a696e6760c81b606482015260840160405180910390fd5b60005460ff9081161015620000e2576000805460ff191660ff9081179091556040519081527f7f26b83ff96e1f2b6a682f133852f6798a09c465da95921460cefb38474024989060200160405180910390a15b565b613a4080620000f46000396000f3fe608060405234801561001057600080fd5b50600436106102045760003560e01c806301ffc9a71461020957806306fdde0314610231578063081812fc14610246578063095ea7b31461026657806318160ddd1461027b57806323b872dd14610291578063248a9ca3146102a45780632676608c146102b75780632f2ff15d146102d757806332085b65146102ea57806336568abe146102fd5780633f4ba83a1461031057806340c10f191461031857806342842e0e1461032b57806342966c681461033e57806342cf6e74146103515780635bbb2177146103645780635c975abb1461038457806360d4d23a1461038f5780636352211e146103a257806370a08231146103b5578063715018a6146103c85780638129fc1c146103d05780638456cb59146103d85780638462151c146103e057806389e7e2f2146103f35780638da5cb5b146104135780639010d07c1461041b57806391d148541461042e57806395d89b411461044157806399a2557a14610449578063a217fddf1461045c578063a22cb46514610464578063b88d4fde14610477578063bc197c811461048a578063c23dc68f146104b6578063c87b56dd146104d6578063ca15c873146104e9578063d5391393146104fc578063d547741f14610511578063e63ab1e914610524578063e985e9c514610539578063f23a6e611461054c578063f2fde38b1461055f575b600080fd5b61021c610217366004612ca9565b610572565b60405190151581526020015b60405180910390f35b6102396105c4565b6040516102289190612d1e565b610259610254366004612d31565b61065f565b6040516102289190612d4a565b610279610274366004612d7a565b6106ac565b005b61028361075a565b604051908152602001610228565b61027961029f366004612da4565b610779565b6102836102b2366004612d31565b61096d565b6102ca6102c5366004612de0565b610982565b6040516102289190612e47565b6102796102e5366004612de0565b610a8f565b6102796102f8366004612f8e565b610ab0565b61027961030b366004612de0565b610cb9565b610279610d37565b610279610326366004612d7a565b610d41565b610279610339366004612da4565b610dbd565b61027961034c366004612d31565b610dd8565b61027961035f36600461303f565b610de6565b6103776103723660046130ab565b610f2f565b604051610228919061311b565b60c95460ff1661021c565b61028361039d36600461315d565b610fdb565b6102596103b0366004612d31565b61100f565b6102836103c3366004613182565b61101a565b610279611082565b610279611094565b61027961133a565b6102ca6103ee366004613182565b611342565b610406610401366004612d31565b611428565b604051610228919061319d565b610259611505565b6102596104293660046131de565b611515565b61021c61043c366004612de0565b61152e565b610239611559565b6102ca610457366004613200565b611571565b610283600081565b610279610472366004613233565b6116e7565b61027961048536600461326f565b61178d565b61049d6104983660046132d6565b6117d7565b6040516001600160e01b03199091168152602001610228565b6104c96104c4366004612d31565b611967565b604051610228919061337f565b6102396104e4366004612d31565b6119af565b6102836104f7366004612d31565b611a58565b6102836000805160206139ab83398151915281565b61027961051f366004612de0565b611a70565b61028360008051602061398b83398151915281565b61021c61054736600461338d565b611a8c565b61049d61055a3660046133b7565b611ac9565b61027961056d366004613182565b611b67565b60006301ffc9a760e01b6001600160e01b0319831614806105a357506380ac58cd60e01b6001600160e01b03198316145b806105be5750635b5e139f60e01b6001600160e01b03198316145b92915050565b60606105ce611bdd565b60020180546105dc9061341b565b80601f01602080910402602001604051908101604052809291908181526020018280546106089061341b565b80156106555780601f1061062a57610100808354040283529160200191610655565b820191906000526020600020905b81548152906001019060200180831161063857829003601f168201915b5050505050905090565b600061066a82611c01565b610687576040516333d1c03960e21b815260040160405180910390fd5b61068f611bdd565b60009283526006016020525060409020546001600160a01b031690565b60006106b78261100f565b9050336001600160a01b038216146106f0576106d38133611a8c565b6106f0576040516367d9dca160e11b815260040160405180910390fd5b826106f9611bdd565b6000848152600691909101602052604080822080546001600160a01b0319166001600160a01b0394851617905551849286811692908516917f8c5be1e5ebec7d5bd14f71427d1e84f3dd0314c0f7b2291e5b200ac8c7c3b9259190a4505050565b600080610765611bdd565b60010154610771611bdd565b540303919050565b600061078482611c3d565b9050836001600160a01b0316816001600160a01b0316146107b75760405162a1148160e81b815260040160405180910390fd5b6000806107c384611cc9565b915091506107e881876107d33390565b6001600160a01b039081169116811491141790565b610813576107f68633611a8c565b61081357604051632ce44b5f60e11b815260040160405180910390fd5b6001600160a01b03851661083a57604051633a954ecd60e21b815260040160405180910390fd5b6108478686866001611cf1565b801561085257600082555b61085a611bdd565b6001600160a01b0387166000908152600591909101602052604090208054600019019055610886611bdd565b6001600160a01b038616600090815260059190910160205260409020805460010190556108b785600160e11b611cfe565b6108bf611bdd565b60008681526004919091016020526040812091909155600160e11b8416900361093557600184016108ee611bdd565b6000828152600491909101602052604081205490036109335761090f611bdd565b548114610933578361091f611bdd565b600083815260049190910160205260409020555b505b83856001600160a01b0316876001600160a01b03166000805160206139cb83398151915260405160405180910390a45b505050505050565b600090815260fb602052604090206001015490565b6000828152610194602090815260408083206001600160a01b03851684529091528120606091906109b290611d13565b6001600160401b038111156109c9576109c9612e5a565b6040519080825280602002602001820160405280156109f2578160200160208202803683370190505b50905060005b6000858152610194602090815260408083206001600160a01b03881684529091529020610a2490611d13565b811015610a87576000858152610194602090815260408083206001600160a01b03881684529091529020610a589082611d1d565b828281518110610a6a57610a6a613455565b602090810291909101015280610a7f81613481565b9150506109f8565b509392505050565b610a988261096d565b610aa181611d29565b610aab8383611d33565b505050565b8151835114610b165760405162461bcd60e51b815260206004820152602760248201527f4552433939383a2069647320616e6420616d6f756e7473206c656e677468206d6044820152660d2e6dac2e8c6d60cb1b60648201526084015b60405180910390fd5b6001600160a01b038516610b3c5760405162461bcd60e51b8152600401610b0d9061349a565b3380610b478861100f565b6001600160a01b03161480610b695750610b69610b638861100f565b82611a8c565b610b855760405162461bcd60e51b8152600401610b0d906134de565b610b9481888888888888611d56565b60005b8451811015610bfb576000858281518110610bb457610bb4613455565b602002602001015190506000858381518110610bd257610bd2613455565b60200260200101519050610be88a898484611d67565b505080610bf490613481565b9050610b97565b50604051631759616b60e11b81526001600160a01b03861690632eb2c2d690610c309030908a90899089908990600401613526565b600060405180830381600087803b158015610c4a57600080fd5b505af1158015610c5e573d6000803e3d6000fd5b50505050846001600160a01b0316866001600160a01b0316887f5572be9c1bc39e4e277a34f64ccd0e84456dac3f33b0b1c458c12c402c6326a98787604051610ca8929190613584565b60405180910390a450505050505050565b6001600160a01b0381163314610d295760405162461bcd60e51b815260206004820152602f60248201527f416363657373436f6e74726f6c3a2063616e206f6e6c792072656e6f756e636560448201526e103937b632b9903337b91039b2b63360891b6064820152608401610b0d565b610d338282611f26565b5050565b610d3f611f49565b565b610d596000805160206139ab8339815191523361152e565b610db35760405162461bcd60e51b815260206004820152602560248201527f4552433732313a206d7573742068617665206d696e74657220726f6c6520746f604482015264081b5a5b9d60da1b6064820152608401610b0d565b610d338282611f95565b610aab8383836040518060200160405280600081525061178d565b610de381600161209f565b50565b6001600160a01b038516610e0c5760405162461bcd60e51b8152600401610b0d9061349a565b3380610e178861100f565b6001600160a01b03161480610e335750610e33610b638861100f565b610e4f5760405162461bcd60e51b8152600401610b0d906134de565b610e6e81888888610e5f89612214565b610e6889612214565b88611d56565b610e7a87868686611d67565b604051637921219560e11b81526001600160a01b0386169063f242432a90610eae9030908a908990899089906004016135b2565b600060405180830381600087803b158015610ec857600080fd5b505af1158015610edc573d6000803e3d6000fd5b50505050846001600160a01b0316866001600160a01b0316887f9d6259404dec52b3d5d220f5b8e5d05cc05ec908e1bc320aa46793e3091e51948787604051610ca8929190918252602082015260400190565b80516060906000816001600160401b03811115610f4e57610f4e612e5a565b604051908082528060200260200182016040528015610f8757816020015b610f74612c6c565b815260200190600190039081610f6c5790505b50905060005b828114610a8757610fb6858281518110610fa957610fa9613455565b6020026020010151611967565b828281518110610fc857610fc8613455565b6020908102919091010152600101610f8d565b6000838152610191602090815260408083206001600160a01b038616845282528083208484529091529020545b9392505050565b60006105be82611c3d565b60006001600160a01b038216611043576040516323d3ad8160e21b815260040160405180910390fd5b6001600160401b03611053611bdd565b6005016000846001600160a01b03166001600160a01b0316815260200190815260200160002054169050919050565b61108a61225f565b610d3f60006122be565b61109c612311565b54610100900460ff166110bb576110b1612311565b5460ff16156110bf565b303b155b6111195760405162461bcd60e51b8152602060048201526037602482015260008051602061396b833981519152604482015276081a5cc8185b1c9958591e481a5b9a5d1a585b1a5e9959604a1b6064820152608401610b0d565b6000611123612311565b54610100900460ff16159050801561116f57600161113f612311565b80549115156101000261ff0019909216919091179055600161115f612311565b805460ff19169115159190911790555b600054610100900460ff161580801561118f5750600054600160ff909116105b806111a95750303b1580156111a9575060005460ff166001145b61120c5760405162461bcd60e51b815260206004820152602e60248201527f496e697469616c697a61626c653a20636f6e747261637420697320616c72656160448201526d191e481a5b9a5d1a585b1a5e995960921b6064820152608401610b0d565b6000805460ff19166001179055801561122f576000805461ff0019166101001790555b6112776040518060400160405280600b81526020016a436572746966696361746560a81b8152506040518060400160405280600381526020016213949560ea1b815250612335565b61127f6123a1565b6112876123a1565b61128f6123ce565b61129a600033611d33565b6112b26000805160206139ab83398151915233611d33565b6112ca60008051602061398b83398151915233611d33565b8015611310576000805461ff0019169055604051600181527f7f26b83ff96e1f2b6a682f133852f6798a09c465da95921460cefb38474024989060200160405180910390a15b508015610de3576000611321612311565b80549115156101000261ff001990921691909117905550565b610d3f6123fd565b606060008060006113528561101a565b90506000816001600160401b0381111561136e5761136e612e5a565b604051908082528060200260200182016040528015611397578160200160208202803683370190505b5090506113a2612c6c565b60005b83861461141c576113b58161243a565b915081604001516114145781516001600160a01b0316156113d557815194505b876001600160a01b0316856001600160a01b031603611414578083878060010198508151811061140757611407613455565b6020026020010181815250505b6001016113a5565b50909695505050505050565b6000818152610193602052604081206060919061144490611d13565b6001600160401b0381111561145b5761145b612e5a565b604051908082528060200260200182016040528015611484578160200160208202803683370190505b50905060005b6000848152610193602052604090206114a290611d13565b8110156114fe576000848152610193602052604090206114c29082611d1d565b8282815181106114d4576114d4613455565b6001600160a01b0390921660209283029190910190910152806114f681613481565b91505061148a565b5092915050565b61015f546001600160a01b031690565b600082815261012d602052604081206110089083611d1d565b600091825260fb602090815260408084206001600160a01b0393909316845291905290205460ff1690565b6060611563611bdd565b60030180546105dc9061341b565b606081831061159357604051631960ccad60e11b815260040160405180910390fd5b60008061159e612465565b9050808411156115ac578093505b60006115b78761101a565b9050848610156115d657858503818110156115d0578091505b506115da565b5060005b6000816001600160401b038111156115f4576115f4612e5a565b60405190808252806020026020018201604052801561161d578160200160208202803683370190505b5090508160000361163357935061100892505050565b600061163e88611967565b90506000816040015161164f575080515b885b8881141580156116615750848714155b156116d65761166f8161243a565b925082604001516116ce5782516001600160a01b03161561168f57825191505b8a6001600160a01b0316826001600160a01b0316036116ce57808488806001019950815181106116c1576116c1613455565b6020026020010181815250505b600101611651565b505050928352509095945050505050565b336001600160a01b038316036117105760405163b06307db60e01b815260040160405180910390fd5b80611719611bdd565b336000818152600792909201602090815260408084206001600160a01b03881680865290835293819020805460ff19169515159590951790945592518415158152919290917f17307eab39ab6107e8899845ad3d59bd9653f200f220920489ca2b5937696c31910160405180910390a35050565b611798848484610779565b6001600160a01b0383163b156117d1576117b484848484612475565b6117d1576040516368d2bf6b60e11b815260040160405180910390fd5b50505050565b600081516020146117fa5760405162461bcd60e51b8152600401610b0d906135ec565b825184511461185b5760405162461bcd60e51b815260206004820152602760248201527f455243313135353a2069647320616e642076616c756573206c656e677468206d6044820152660d2e6dac2e8c6d60cb1b6064820152608401610b0d565b61186b8660003088888888611d56565b600080611879602036613665565b90508035915060005b8651811015611952576118c983338984815181106118a2576118a2613455565b60200260200101518985815181106118bc576118bc613455565b6020026020010151612561565b336001600160a01b031683896001600160a01b03166000805160206139eb8339815191528a85815181106118ff576118ff613455565b60200260200101518a868151811061191957611919613455565b6020026020010151604051611938929190918252602082015260400190565b60405180910390a48061194a81613481565b915050611882565b5063bc197c8160e01b98975050505050505050565b61196f612c6c565b611977612c6c565b61197f612465565b831061198b5792915050565b6119948361243a565b90508060400151156119a65792915050565b61100883612640565b60606119ba82611c01565b6119d757604051630a14c4b560e41b815260040160405180910390fd5b6000611a0760408051808201909152601181527068747470733a2f2f6e6f72692e636f6d2f60781b602082015290565b90508051600003611a275760405180602001604052806000815250611008565b80611a3184612659565b604051602001611a4292919061367c565b6040516020818303038152906040529392505050565b600081815261012d602052604081206105be90611d13565b611a798261096d565b611a8281611d29565b610aab8383611f26565b6000611a96611bdd565b6001600160a01b039384166000908152600791909101602090815260408083209490951682529290925250205460ff1690565b60008151602014611aec5760405162461bcd60e51b8152600401610b0d906135ec565b611afd8660003088610e5f89612214565b600080611b0b602036613665565b905080359150611b1d82338888612561565b6040805187815260208101879052339184916001600160a01b038b16916000805160206139eb833981519152910160405180910390a45063f23a6e6160e01b979650505050505050565b611b6f61225f565b6001600160a01b038116611bd45760405162461bcd60e51b815260206004820152602660248201527f4f776e61626c653a206e6577206f776e657220697320746865207a65726f206160448201526564647265737360d01b6064820152608401610b0d565b610de3816122be565b7f2569078dfb4b0305704d3008e7403993ae9601b85f7ae5e742de3de8f8011c4090565b6000611c0b611bdd565b54821080156105be5750600160e01b611c22611bdd565b60008481526004919091016020526040902054161592915050565b600081611c48611bdd565b54811015611cb0576000611c5a611bdd565b600083815260049190910160205260408120549150600160e01b82169003611cae575b8060000361100857611c8d611bdd565b60001990920160008181526004939093016020526040909220549050611c7d565b505b604051636f96cda160e11b815260040160405180910390fd5b6000806000611cd6611bdd565b60009485526006016020525050604090912080549092909150565b611cf96126a8565b6117d1565b4260a01b176001600160a01b03919091161790565b60006105be825490565b600061100883836126ee565b610de38133612718565b611d3d828261277c565b600082815261012d60205260409020610aab9082612802565b611d5e6126a8565b50505050505050565b80151580611da057506000848152610191602090815260408083206001600160a01b038716845282528083208584529091529020548111155b611e045760405162461bcd60e51b815260206004820152602f60248201527f4552433939383a20696e73756666696369656e74206368696c642062616c616e60448201526e31b2903337b9103a3930b739b332b960891b6064820152608401610b0d565b6000848152610191602090815260408083206001600160a01b0387168452825280832085845290915281208054839290611e3f908490613665565b90915550506000848152610191602090815260408083206001600160a01b0387168452825280832085845290915281205490036117d1576001600160a01b0383166000908152610192602090815260408083208584529091529020611ea49085612817565b506000848152610194602090815260408083206001600160a01b03871684529091529020611ed29083612817565b506000848152610194602090815260408083206001600160a01b03871684529091529020611eff90611d13565b6000036117d157600084815261019360205260409020611f1f9084612823565b5050505050565b611f308282612838565b600082815261012d60205260409020610aab9082612823565b611f5161289f565b60c9805460ff191690557f5db9ee0a495bf2e6ff9c91a7834c1ba4fdd244a5e8aa4e537bd38aeae4b073aa335b604051611f8b9190612d4a565b60405180910390a1565b6000611f9f611bdd565b5490506001600160a01b038316611fc857604051622e076360e81b815260040160405180910390fd5b81600003611fe95760405163b562e8dd60e01b815260040160405180910390fd5b611ff66000848385611cf1565b6001600160401b018202612008611bdd565b6001600160a01b038516600090815260059190910160205260409020805491909101905561203c836001841460e11b611cfe565b612044611bdd565b60008381526004919091016020526040902055808281015b6040516001830192906001600160a01b038716906000906000805160206139cb833981519152908290a480821061205c5780612096611bdd565b5550610aab9050565b60006120aa83611c3d565b9050806000806120b986611cc9565b9150915084156120f9576120ce8184336107d3565b6120f9576120dc8333611a8c565b6120f957604051632ce44b5f60e11b815260040160405180910390fd5b612107836000886001611cf1565b801561211257600082555b6001600160801b03612122611bdd565b6001600160a01b038516600090815260059190910160205260409020805491909101905561215483600360e01b611cfe565b61215c611bdd565b60008881526004919091016020526040812091909155600160e11b851690036121d2576001860161218b611bdd565b6000828152600491909101602052604081205490036121d0576121ac611bdd565b5481146121d057846121bc611bdd565b600083815260049190910160205260409020555b505b60405186906000906001600160a01b038616906000805160206139cb833981519152908390a4612200611bdd565b600190810180549091019055505050505050565b6040805160018082528183019092526060916000919060208083019080368337019050509050828160008151811061224e5761224e613455565b602090810291909101015292915050565b33612268611505565b6001600160a01b031614610d3f5760405162461bcd60e51b815260206004820181905260248201527f4f776e61626c653a2063616c6c6572206973206e6f7420746865206f776e65726044820152606401610b0d565b61015f80546001600160a01b038381166001600160a01b0319831681179093556040519116919082907f8be0079c531659141344cd1fd0a4f28419497f9722a3daafe3b4186f6b6457e090600090a35050565b7fee151c8401928dc223602bb187aff91b9a56c7cae5476ef1b3287b085a16c85f90565b61233d612311565b54610100900460ff166123625760405162461bcd60e51b8152600401610b0d906136ab565b8161236b611bdd565b600201906123799082613733565b5080612383611bdd565b600301906123919082613733565b50600061239c611bdd565b555050565b6123a9612311565b54610100900460ff16610d3f5760405162461bcd60e51b8152600401610b0d906136ab565b600054610100900460ff166123f55760405162461bcd60e51b8152600401610b0d906137f2565b610d3f6128e8565b6124056126a8565b60c9805460ff191660011790557f62e78cea01bee320cd4e420270b5ea74000d11b0c9f74754ebdbfc544b05a258611f7e3390565b612442612c6c565b6105be61244d611bdd565b60008481526004919091016020526040902054612918565b600061246f611bdd565b54919050565b604051630a85bd0160e11b81526000906001600160a01b0385169063150b7a02906124aa90339089908890889060040161383d565b6020604051808303816000875af19250505080156124e5575060408051601f3d908101601f191682019092526124e29181019061387a565b60015b612543573d808015612513576040519150601f19603f3d011682016040523d82523d6000602084013e612518565b606091505b50805160000361253b576040516368d2bf6b60e11b815260040160405180910390fd5b805181602001fd5b6001600160e01b031916630a85bd0160e11b1490505b949350505050565b60008481526101936020526040902061257a908461295b565b612599576000848152610193602052604090206125979084612802565b505b6000848152610191602090815260408083206001600160a01b0387168452825280832085845290915281205490036125fa576000848152610194602090815260408083206001600160a01b038716845290915290206125f89083612970565b505b6000848152610191602090815260408083206001600160a01b0387168452825280832085845290915281208054839290612635908490613897565b909155505050505050565b612648612c6c565b6105be61265483611c3d565b612918565b604080516080810191829052607f0190826030600a8206018353600a90045b801561269657600183039250600a81066030018353600a9004612678565b50819003601f19909101908152919050565b60c95460ff1615610d3f5760405162461bcd60e51b815260206004820152601060248201526f14185d5cd8589b194e881c185d5cd95960821b6044820152606401610b0d565b600082600001828154811061270557612705613455565b9060005260206000200154905092915050565b612722828261152e565b610d335761273a816001600160a01b0316601461297c565b61274583602061297c565b6040516020016127569291906138af565b60408051601f198184030181529082905262461bcd60e51b8252610b0d91600401612d1e565b612786828261152e565b610d3357600082815260fb602090815260408083206001600160a01b03851684529091529020805460ff191660011790556127be3390565b6001600160a01b0316816001600160a01b0316837f2f8788117e7eff1d82e926ec794901d17c78024a50270940304540a733656f0d60405160405180910390a45050565b6000611008836001600160a01b038416612b17565b60006110088383612b61565b6000611008836001600160a01b038416612b61565b612842828261152e565b15610d3357600082815260fb602090815260408083206001600160a01b0385168085529252808320805460ff1916905551339285917ff6391f5c32d9c69d2a47ea670b442974b53935d1edc7fd64eb21e047a839171b9190a45050565b60c95460ff16610d3f5760405162461bcd60e51b815260206004820152601460248201527314185d5cd8589b194e881b9bdd081c185d5cd95960621b6044820152606401610b0d565b600054610100900460ff1661290f5760405162461bcd60e51b8152600401610b0d906137f2565b610d3f336122be565b612920612c6c565b6001600160a01b03821681526001600160401b0360a083901c166020820152600160e01b82161515604082015260e89190911c606082015290565b6000611008836001600160a01b038416612c54565b60006110088383612b17565b6060600061298b83600261391e565b612996906002613897565b6001600160401b038111156129ad576129ad612e5a565b6040519080825280601f01601f1916602001820160405280156129d7576020820181803683370190505b509050600360fc1b816000815181106129f2576129f2613455565b60200101906001600160f81b031916908160001a905350600f60fb1b81600181518110612a2157612a21613455565b60200101906001600160f81b031916908160001a9053506000612a4584600261391e565b612a50906001613897565b90505b6001811115612ac8576f181899199a1a9b1b9c1cb0b131b232b360811b85600f1660108110612a8457612a84613455565b1a60f81b828281518110612a9a57612a9a613455565b60200101906001600160f81b031916908160001a90535060049490941c93612ac18161393d565b9050612a53565b5083156110085760405162461bcd60e51b815260206004820181905260248201527f537472696e67733a20686578206c656e67746820696e73756666696369656e746044820152606401610b0d565b6000612b238383612c54565b612b59575081546001818101845560008481526020808220909301849055845484825282860190935260409020919091556105be565b5060006105be565b60008181526001830160205260408120548015612c4a576000612b85600183613665565b8554909150600090612b9990600190613665565b9050818114612bfe576000866000018281548110612bb957612bb9613455565b9060005260206000200154905080876000018481548110612bdc57612bdc613455565b6000918252602080832090910192909255918252600188019052604090208390555b8554869080612c0f57612c0f613954565b6001900381819060005260206000200160009055905585600101600086815260200190815260200160002060009055600193505050506105be565b60009150506105be565b60009081526001919091016020526040902054151590565b60408051608081018252600080825260208201819052918101829052606081019190915290565b6001600160e01b031981168114610de357600080fd5b600060208284031215612cbb57600080fd5b813561100881612c93565b60005b83811015612ce1578181015183820152602001612cc9565b838111156117d15750506000910152565b60008151808452612d0a816020860160208601612cc6565b601f01601f19169290920160200192915050565b6020815260006110086020830184612cf2565b600060208284031215612d4357600080fd5b5035919050565b6001600160a01b0391909116815260200190565b80356001600160a01b0381168114612d7557600080fd5b919050565b60008060408385031215612d8d57600080fd5b612d9683612d5e565b946020939093013593505050565b600080600060608486031215612db957600080fd5b612dc284612d5e565b9250612dd060208501612d5e565b9150604084013590509250925092565b60008060408385031215612df357600080fd5b82359150612e0360208401612d5e565b90509250929050565b600081518084526020808501945080840160005b83811015612e3c57815187529582019590820190600101612e20565b509495945050505050565b6020815260006110086020830184612e0c565b634e487b7160e01b600052604160045260246000fd5b604051601f8201601f191681016001600160401b0381118282101715612e9857612e98612e5a565b604052919050565b600082601f830112612eb157600080fd5b813560206001600160401b03821115612ecc57612ecc612e5a565b8160051b612edb828201612e70565b9283528481018201928281019087851115612ef557600080fd5b83870192505b84831015612f1457823582529183019190830190612efb565b979650505050505050565b600082601f830112612f3057600080fd5b81356001600160401b03811115612f4957612f49612e5a565b612f5c601f8201601f1916602001612e70565b818152846020838601011115612f7157600080fd5b816020850160208301376000918101602001919091529392505050565b60008060008060008060c08789031215612fa757600080fd5b86359550612fb760208801612d5e565b9450612fc560408801612d5e565b935060608701356001600160401b0380821115612fe157600080fd5b612fed8a838b01612ea0565b9450608089013591508082111561300357600080fd5b61300f8a838b01612ea0565b935060a089013591508082111561302557600080fd5b5061303289828a01612f1f565b9150509295509295509295565b60008060008060008060c0878903121561305857600080fd5b8635955061306860208801612d5e565b945061307660408801612d5e565b9350606087013592506080870135915060a08701356001600160401b0381111561309f57600080fd5b61303289828a01612f1f565b6000602082840312156130bd57600080fd5b81356001600160401b038111156130d357600080fd5b61255984828501612ea0565b80516001600160a01b031682526020808201516001600160401b03169083015260408082015115159083015260609081015162ffffff16910152565b6020808252825182820181905260009190848201906040850190845b8181101561141c5761314a8385516130df565b9284019260809290920191600101613137565b60008060006060848603121561317257600080fd5b83359250612dd060208501612d5e565b60006020828403121561319457600080fd5b61100882612d5e565b6020808252825182820181905260009190848201906040850190845b8181101561141c5783516001600160a01b0316835292840192918401916001016131b9565b600080604083850312156131f157600080fd5b50508035926020909101359150565b60008060006060848603121561321557600080fd5b61321e84612d5e565b95602085013595506040909401359392505050565b6000806040838503121561324657600080fd5b61324f83612d5e565b91506020830135801515811461326457600080fd5b809150509250929050565b6000806000806080858703121561328557600080fd5b61328e85612d5e565b935061329c60208601612d5e565b92506040850135915060608501356001600160401b038111156132be57600080fd5b6132ca87828801612f1f565b91505092959194509250565b600080600080600060a086880312156132ee57600080fd5b6132f786612d5e565b945061330560208701612d5e565b935060408601356001600160401b038082111561332157600080fd5b61332d89838a01612ea0565b9450606088013591508082111561334357600080fd5b61334f89838a01612ea0565b9350608088013591508082111561336557600080fd5b5061337288828901612f1f565b9150509295509295909350565b608081016105be82846130df565b600080604083850312156133a057600080fd5b6133a983612d5e565b9150612e0360208401612d5e565b600080600080600060a086880312156133cf57600080fd5b6133d886612d5e565b94506133e660208701612d5e565b9350604086013592506060860135915060808601356001600160401b0381111561340f57600080fd5b61337288828901612f1f565b600181811c9082168061342f57607f821691505b60208210810361344f57634e487b7160e01b600052602260045260246000fd5b50919050565b634e487b7160e01b600052603260045260246000fd5b634e487b7160e01b600052601160045260246000fd5b6000600182016134935761349361346b565b5060010190565b60208082526024908201527f4552433939383a207472616e7366657220746f20746865207a65726f206164646040820152637265737360e01b606082015260800190565b60208082526028908201527f4552433939383a2063616c6c6572206973206e6f74206f776e6572206e6f7220604082015267185c1c1c9bdd995960c21b606082015260800190565b6001600160a01b0386811682528516602082015260a06040820181905260009061355290830186612e0c565b82810360608401526135648186612e0c565b905082810360808401526135788185612cf2565b98975050505050505050565b6040815260006135976040830185612e0c565b82810360208401526135a98185612e0c565b95945050505050565b6001600160a01b03868116825285166020820152604081018490526060810183905260a060808201819052600090612f1490830184612cf2565b60208082526053908201527f4552433939383a2064617461206d75737420636f6e7461696e2074686520756e60408201527f697175652075696e7432353620746f6b656e496420746f207472616e7366657260608201527220746865206368696c6420746f6b656e20746f60681b608082015260a00190565b6000828210156136775761367761346b565b500390565b6000835161368e818460208801612cc6565b8351908301906136a2818360208801612cc6565b01949350505050565b602080825260349082015260008051602061396b833981519152604082015273206973206e6f7420696e697469616c697a696e6760601b606082015260800190565b601f821115610aab57600081815260208120601f850160051c810160208610156137145750805b601f850160051c820191505b8181101561096557828155600101613720565b81516001600160401b0381111561374c5761374c612e5a565b6137608161375a845461341b565b846136ed565b602080601f831160018114613795576000841561377d5750858301515b600019600386901b1c1916600185901b178555610965565b600085815260208120601f198616915b828110156137c4578886015182559484019460019091019084016137a5565b50858210156137e25787850151600019600388901b60f8161c191681555b5050505050600190811b01905550565b6020808252602b908201527f496e697469616c697a61626c653a20636f6e7472616374206973206e6f74206960408201526a6e697469616c697a696e6760a81b606082015260800190565b6001600160a01b038581168252841660208201526040810183905260806060820181905260009061387090830184612cf2565b9695505050505050565b60006020828403121561388c57600080fd5b815161100881612c93565b600082198211156138aa576138aa61346b565b500190565b76020b1b1b2b9b9a1b7b73a3937b61d1030b1b1b7bab73a1604d1b8152600083516138e1816017850160208801612cc6565b7001034b99036b4b9b9b4b733903937b6329607d1b6017918401918201528351613912816028840160208801612cc6565b01602801949350505050565b60008160001904831182151516156139385761393861346b565b500290565b60008161394c5761394c61346b565b506000190190565b634e487b7160e01b600052603160045260246000fdfe455243373231415f5f496e697469616c697a61626c653a20636f6e747261637465d7a28e3265b37a6474929f336521b332c1681b933f6cb9f3376673440d862a9f2df0fed2c77648de5860a4cc508cd0818c85b8b8a1ab4ceeef8d981c8956a6ddf252ad1be2c89b69c2b068fc378daa952ba7f163c4a11628f55a4df523b3efa18753b0660a8be2cdae03468c860b47c2926433ab16917f323544652803032da26469706673582212209145f5995ca5d3ffb2f1732bd786e4f3ca65d6c43ed3f541ead3477be6dfc73564736f6c634300080f0033",
  "linkReferences": {},
  "deployedLinkReferences": {}
}