{
  "address": "0xB0257949dfbF2e77F235afEF277504f26405BF02",
  "abi": [
    {
      "inputs": [],
      "stateMutability": "nonpayable",
      "type": "constructor"
    },
    {
      "inputs": [],
      "name": "ApprovalCallerNotOwnerNorApproved",
      "type": "error"
    },
    {
      "inputs": [],
      "name": "ApprovalQueryForNonexistentToken",
      "type": "error"
    },
    {
      "inputs": [],
      "name": "ApproveToCaller",
      "type": "error"
    },
    {
      "inputs": [
        {
          "internalType": "string",
          "name": "array1Name",
          "type": "string"
        },
        {
          "internalType": "string",
          "name": "array2Name",
          "type": "string"
        }
      ],
      "name": "ArrayLengthMismatch",
      "type": "error"
    },
    {
      "inputs": [],
      "name": "BalanceQueryForZeroAddress",
      "type": "error"
    },
    {
      "inputs": [],
      "name": "ForbiddenTransferAfterMinting",
      "type": "error"
    },
    {
      "inputs": [],
      "name": "FunctionDisabled",
      "type": "error"
    },
    {
      "inputs": [],
      "name": "InvalidQueryRange",
      "type": "error"
    },
    {
      "inputs": [],
      "name": "MintERC2309QuantityExceedsLimit",
      "type": "error"
    },
    {
      "inputs": [],
      "name": "MintToZeroAddress",
      "type": "error"
    },
    {
      "inputs": [],
      "name": "MintZeroQuantity",
      "type": "error"
    },
    {
      "inputs": [],
      "name": "OwnerQueryForNonexistentToken",
      "type": "error"
    },
    {
      "inputs": [],
      "name": "OwnershipNotInitializedForExtraData",
      "type": "error"
    },
    {
      "inputs": [],
      "name": "SenderNotRemovalContract",
      "type": "error"
    },
    {
      "inputs": [],
      "name": "TransferCallerNotOwnerNorApproved",
      "type": "error"
    },
    {
      "inputs": [],
      "name": "TransferFromIncorrectOwner",
      "type": "error"
    },
    {
      "inputs": [],
      "name": "TransferToNonERC721ReceiverImplementer",
      "type": "error"
    },
    {
      "inputs": [],
      "name": "TransferToZeroAddress",
      "type": "error"
    },
    {
      "inputs": [],
      "name": "URIQueryForNonexistentToken",
      "type": "error"
    },
    {
      "anonymous": false,
      "inputs": [
        {
          "indexed": true,
          "internalType": "address",
          "name": "owner",
          "type": "address"
        },
        {
          "indexed": true,
          "internalType": "address",
          "name": "approved",
          "type": "address"
        },
        {
          "indexed": true,
          "internalType": "uint256",
          "name": "tokenId",
          "type": "uint256"
        }
      ],
      "name": "Approval",
      "type": "event"
    },
    {
      "anonymous": false,
      "inputs": [
        {
          "indexed": true,
          "internalType": "address",
          "name": "owner",
          "type": "address"
        },
        {
          "indexed": true,
          "internalType": "address",
          "name": "operator",
          "type": "address"
        },
        {
          "indexed": false,
          "internalType": "bool",
          "name": "approved",
          "type": "bool"
        }
      ],
      "name": "ApprovalForAll",
      "type": "event"
    },
    {
      "anonymous": false,
      "inputs": [
        {
          "indexed": true,
          "internalType": "uint256",
          "name": "fromTokenId",
          "type": "uint256"
        },
        {
          "indexed": false,
          "internalType": "uint256",
          "name": "toTokenId",
          "type": "uint256"
        },
        {
          "indexed": true,
          "internalType": "address",
          "name": "from",
          "type": "address"
        },
        {
          "indexed": true,
          "internalType": "address",
          "name": "to",
          "type": "address"
        }
      ],
      "name": "ConsecutiveTransfer",
      "type": "event"
    },
    {
      "anonymous": false,
      "inputs": [
        {
          "indexed": false,
          "internalType": "address",
          "name": "from",
          "type": "address"
        },
        {
          "indexed": true,
          "internalType": "address",
          "name": "recipient",
          "type": "address"
        },
        {
          "indexed": true,
          "internalType": "uint256",
          "name": "certificateId",
          "type": "uint256"
        },
        {
          "indexed": false,
          "internalType": "uint256",
          "name": "certificateAmount",
          "type": "uint256"
        },
        {
          "indexed": false,
          "internalType": "uint256[]",
          "name": "removalIds",
          "type": "uint256[]"
        },
        {
          "indexed": false,
          "internalType": "uint256[]",
          "name": "removalAmounts",
          "type": "uint256[]"
        },
        {
          "indexed": true,
          "internalType": "address",
          "name": "purchasingTokenAddress",
          "type": "address"
        },
        {
          "indexed": false,
          "internalType": "uint256",
          "name": "priceMultiple",
          "type": "uint256"
        },
        {
          "indexed": false,
          "internalType": "uint256",
          "name": "noriFeePercentage",
          "type": "uint256"
        }
      ],
      "name": "CreateCertificate",
      "type": "event"
    },
    {
      "anonymous": false,
      "inputs": [
        {
          "indexed": false,
          "internalType": "uint8",
          "name": "version",
          "type": "uint8"
        }
      ],
      "name": "Initialized",
      "type": "event"
    },
    {
      "anonymous": false,
      "inputs": [
        {
          "indexed": false,
          "internalType": "address",
          "name": "account",
          "type": "address"
        }
      ],
      "name": "Paused",
      "type": "event"
    },
    {
      "anonymous": false,
      "inputs": [
        {
          "indexed": false,
          "internalType": "contract IRemoval",
          "name": "removal",
          "type": "address"
        }
      ],
      "name": "RegisterContractAddresses",
      "type": "event"
    },
    {
      "anonymous": false,
      "inputs": [
        {
          "indexed": true,
          "internalType": "bytes32",
          "name": "role",
          "type": "bytes32"
        },
        {
          "indexed": true,
          "internalType": "bytes32",
          "name": "previousAdminRole",
          "type": "bytes32"
        },
        {
          "indexed": true,
          "internalType": "bytes32",
          "name": "newAdminRole",
          "type": "bytes32"
        }
      ],
      "name": "RoleAdminChanged",
      "type": "event"
    },
    {
      "anonymous": false,
      "inputs": [
        {
          "indexed": true,
          "internalType": "bytes32",
          "name": "role",
          "type": "bytes32"
        },
        {
          "indexed": true,
          "internalType": "address",
          "name": "account",
          "type": "address"
        },
        {
          "indexed": true,
          "internalType": "address",
          "name": "sender",
          "type": "address"
        }
      ],
      "name": "RoleGranted",
      "type": "event"
    },
    {
      "anonymous": false,
      "inputs": [
        {
          "indexed": true,
          "internalType": "bytes32",
          "name": "role",
          "type": "bytes32"
        },
        {
          "indexed": true,
          "internalType": "address",
          "name": "account",
          "type": "address"
        },
        {
          "indexed": true,
          "internalType": "address",
          "name": "sender",
          "type": "address"
        }
      ],
      "name": "RoleRevoked",
      "type": "event"
    },
    {
      "anonymous": false,
      "inputs": [
        {
          "indexed": true,
          "internalType": "address",
          "name": "from",
          "type": "address"
        },
        {
          "indexed": true,
          "internalType": "address",
          "name": "to",
          "type": "address"
        },
        {
          "indexed": true,
          "internalType": "uint256",
          "name": "tokenId",
          "type": "uint256"
        }
      ],
      "name": "Transfer",
      "type": "event"
    },
    {
      "anonymous": false,
      "inputs": [
        {
          "indexed": false,
          "internalType": "address",
          "name": "account",
          "type": "address"
        }
      ],
      "name": "Unpaused",
      "type": "event"
    },
    {
      "inputs": [],
      "name": "CERTIFICATE_OPERATOR_ROLE",
      "outputs": [
        {
          "internalType": "bytes32",
          "name": "",
          "type": "bytes32"
        }
      ],
      "stateMutability": "view",
      "type": "function"
    },
    {
      "inputs": [],
      "name": "DEFAULT_ADMIN_ROLE",
      "outputs": [
        {
          "internalType": "bytes32",
          "name": "",
          "type": "bytes32"
        }
      ],
      "stateMutability": "view",
      "type": "function"
    },
    {
      "inputs": [],
      "name": "PAUSER_ROLE",
      "outputs": [
        {
          "internalType": "bytes32",
          "name": "",
          "type": "bytes32"
        }
      ],
      "stateMutability": "view",
      "type": "function"
    },
    {
      "inputs": [
        {
          "internalType": "address",
          "name": "",
          "type": "address"
        },
        {
          "internalType": "uint256",
          "name": "",
          "type": "uint256"
        }
      ],
      "name": "approve",
      "outputs": [],
      "stateMutability": "pure",
      "type": "function"
    },
    {
      "inputs": [
        {
          "internalType": "address",
          "name": "owner",
          "type": "address"
        }
      ],
      "name": "balanceOf",
      "outputs": [
        {
          "internalType": "uint256",
          "name": "",
          "type": "uint256"
        }
      ],
      "stateMutability": "view",
      "type": "function"
    },
    {
      "inputs": [
        {
          "internalType": "uint256",
          "name": "tokenId",
          "type": "uint256"
        }
      ],
      "name": "burn",
      "outputs": [],
      "stateMutability": "nonpayable",
      "type": "function"
    },
    {
      "inputs": [
        {
          "internalType": "uint256",
          "name": "tokenId",
          "type": "uint256"
        }
      ],
      "name": "explicitOwnershipOf",
      "outputs": [
        {
          "components": [
            {
              "internalType": "address",
              "name": "addr",
              "type": "address"
            },
            {
              "internalType": "uint64",
              "name": "startTimestamp",
              "type": "uint64"
            },
            {
              "internalType": "bool",
              "name": "burned",
              "type": "bool"
            },
            {
              "internalType": "uint24",
              "name": "extraData",
              "type": "uint24"
            }
          ],
          "internalType": "struct IERC721AUpgradeable.TokenOwnership",
          "name": "",
          "type": "tuple"
        }
      ],
      "stateMutability": "view",
      "type": "function"
    },
    {
      "inputs": [
        {
          "internalType": "uint256[]",
          "name": "tokenIds",
          "type": "uint256[]"
        }
      ],
      "name": "explicitOwnershipsOf",
      "outputs": [
        {
          "components": [
            {
              "internalType": "address",
              "name": "addr",
              "type": "address"
            },
            {
              "internalType": "uint64",
              "name": "startTimestamp",
              "type": "uint64"
            },
            {
              "internalType": "bool",
              "name": "burned",
              "type": "bool"
            },
            {
              "internalType": "uint24",
              "name": "extraData",
              "type": "uint24"
            }
          ],
          "internalType": "struct IERC721AUpgradeable.TokenOwnership[]",
          "name": "",
          "type": "tuple[]"
        }
      ],
      "stateMutability": "view",
      "type": "function"
    },
    {
      "inputs": [
        {
          "internalType": "uint256",
          "name": "tokenId",
          "type": "uint256"
        }
      ],
      "name": "getApproved",
      "outputs": [
        {
          "internalType": "address",
          "name": "",
          "type": "address"
        }
      ],
      "stateMutability": "view",
      "type": "function"
    },
    {
      "inputs": [],
      "name": "getNrtDeficit",
      "outputs": [
        {
          "internalType": "uint256",
          "name": "",
          "type": "uint256"
        }
      ],
      "stateMutability": "view",
      "type": "function"
    },
    {
      "inputs": [
        {
          "internalType": "uint256",
          "name": "certificateId",
          "type": "uint256"
        }
      ],
      "name": "getPurchaseAmount",
      "outputs": [
        {
          "internalType": "uint256",
          "name": "",
          "type": "uint256"
        }
      ],
      "stateMutability": "view",
      "type": "function"
    },
    {
      "inputs": [],
      "name": "getRemovalAddress",
      "outputs": [
        {
          "internalType": "address",
          "name": "",
          "type": "address"
        }
      ],
      "stateMutability": "view",
      "type": "function"
    },
    {
      "inputs": [
        {
          "internalType": "bytes32",
          "name": "role",
          "type": "bytes32"
        }
      ],
      "name": "getRoleAdmin",
      "outputs": [
        {
          "internalType": "bytes32",
          "name": "",
          "type": "bytes32"
        }
      ],
      "stateMutability": "view",
      "type": "function"
    },
    {
      "inputs": [
        {
          "internalType": "bytes32",
          "name": "role",
          "type": "bytes32"
        },
        {
          "internalType": "uint256",
          "name": "index",
          "type": "uint256"
        }
      ],
      "name": "getRoleMember",
      "outputs": [
        {
          "internalType": "address",
          "name": "",
          "type": "address"
        }
      ],
      "stateMutability": "view",
      "type": "function"
    },
    {
      "inputs": [
        {
          "internalType": "bytes32",
          "name": "role",
          "type": "bytes32"
        }
      ],
      "name": "getRoleMemberCount",
      "outputs": [
        {
          "internalType": "uint256",
          "name": "",
          "type": "uint256"
        }
      ],
      "stateMutability": "view",
      "type": "function"
    },
    {
      "inputs": [
        {
          "internalType": "bytes32",
          "name": "role",
          "type": "bytes32"
        },
        {
          "internalType": "address",
          "name": "account",
          "type": "address"
        }
      ],
      "name": "grantRole",
      "outputs": [],
      "stateMutability": "nonpayable",
      "type": "function"
    },
    {
      "inputs": [
        {
          "internalType": "bytes32",
          "name": "role",
          "type": "bytes32"
        },
        {
          "internalType": "address",
          "name": "account",
          "type": "address"
        }
      ],
      "name": "hasRole",
      "outputs": [
        {
          "internalType": "bool",
          "name": "",
          "type": "bool"
        }
      ],
      "stateMutability": "view",
      "type": "function"
    },
    {
      "inputs": [
        {
          "internalType": "uint256",
          "name": "amount",
          "type": "uint256"
        }
      ],
      "name": "incrementNrtDeficit",
      "outputs": [],
      "stateMutability": "nonpayable",
      "type": "function"
    },
    {
      "inputs": [
        {
          "internalType": "string",
          "name": "baseURI",
          "type": "string"
        }
      ],
      "name": "initialize",
      "outputs": [],
      "stateMutability": "nonpayable",
      "type": "function"
    },
    {
      "inputs": [
        {
          "internalType": "address",
          "name": "owner",
          "type": "address"
        },
        {
          "internalType": "address",
          "name": "operator",
          "type": "address"
        }
      ],
      "name": "isApprovedForAll",
      "outputs": [
        {
          "internalType": "bool",
          "name": "",
          "type": "bool"
        }
      ],
      "stateMutability": "view",
      "type": "function"
    },
    {
      "inputs": [
        {
          "internalType": "bytes[]",
          "name": "data",
          "type": "bytes[]"
        }
      ],
      "name": "multicall",
      "outputs": [
        {
          "internalType": "bytes[]",
          "name": "results",
          "type": "bytes[]"
        }
      ],
      "stateMutability": "nonpayable",
      "type": "function"
    },
    {
      "inputs": [],
      "name": "name",
      "outputs": [
        {
          "internalType": "string",
          "name": "",
          "type": "string"
        }
      ],
      "stateMutability": "view",
      "type": "function"
    },
    {
      "inputs": [
        {
          "internalType": "address",
          "name": "",
          "type": "address"
        },
        {
          "internalType": "address",
          "name": "",
          "type": "address"
        },
        {
          "internalType": "uint256[]",
          "name": "removalIds",
          "type": "uint256[]"
        },
        {
          "internalType": "uint256[]",
          "name": "removalAmounts",
          "type": "uint256[]"
        },
        {
          "internalType": "bytes",
          "name": "data",
          "type": "bytes"
        }
      ],
      "name": "onERC1155BatchReceived",
      "outputs": [
        {
          "internalType": "bytes4",
          "name": "",
          "type": "bytes4"
        }
      ],
      "stateMutability": "nonpayable",
      "type": "function"
    },
    {
      "inputs": [
        {
          "internalType": "uint256",
          "name": "tokenId",
          "type": "uint256"
        }
      ],
      "name": "ownerOf",
      "outputs": [
        {
          "internalType": "address",
          "name": "",
          "type": "address"
        }
      ],
      "stateMutability": "view",
      "type": "function"
    },
    {
      "inputs": [],
      "name": "pause",
      "outputs": [],
      "stateMutability": "nonpayable",
      "type": "function"
    },
    {
      "inputs": [],
      "name": "paused",
      "outputs": [
        {
          "internalType": "bool",
          "name": "",
          "type": "bool"
        }
      ],
      "stateMutability": "view",
      "type": "function"
    },
    {
      "inputs": [
        {
          "internalType": "contract IRemoval",
          "name": "removal",
          "type": "address"
        }
      ],
      "name": "registerContractAddresses",
      "outputs": [],
      "stateMutability": "nonpayable",
      "type": "function"
    },
    {
      "inputs": [
        {
          "internalType": "bytes32",
          "name": "role",
          "type": "bytes32"
        },
        {
          "internalType": "address",
          "name": "account",
          "type": "address"
        }
      ],
      "name": "renounceRole",
      "outputs": [],
      "stateMutability": "nonpayable",
      "type": "function"
    },
    {
      "inputs": [
        {
          "internalType": "bytes32",
          "name": "role",
          "type": "bytes32"
        },
        {
          "internalType": "address",
          "name": "account",
          "type": "address"
        }
      ],
      "name": "revokeRole",
      "outputs": [],
      "stateMutability": "nonpayable",
      "type": "function"
    },
    {
      "inputs": [
        {
          "internalType": "address",
          "name": "from",
          "type": "address"
        },
        {
          "internalType": "address",
          "name": "to",
          "type": "address"
        },
        {
          "internalType": "uint256",
          "name": "tokenId",
          "type": "uint256"
        }
      ],
      "name": "safeTransferFrom",
      "outputs": [],
      "stateMutability": "nonpayable",
      "type": "function"
    },
    {
      "inputs": [
        {
          "internalType": "address",
          "name": "from",
          "type": "address"
        },
        {
          "internalType": "address",
          "name": "to",
          "type": "address"
        },
        {
          "internalType": "uint256",
          "name": "tokenId",
          "type": "uint256"
        },
        {
          "internalType": "bytes",
          "name": "_data",
          "type": "bytes"
        }
      ],
      "name": "safeTransferFrom",
      "outputs": [],
      "stateMutability": "nonpayable",
      "type": "function"
    },
    {
      "inputs": [
        {
          "internalType": "address",
          "name": "",
          "type": "address"
        },
        {
          "internalType": "bool",
          "name": "",
          "type": "bool"
        }
      ],
      "name": "setApprovalForAll",
      "outputs": [],
      "stateMutability": "pure",
      "type": "function"
    },
    {
      "inputs": [
        {
          "internalType": "bytes4",
          "name": "interfaceId",
          "type": "bytes4"
        }
      ],
      "name": "supportsInterface",
      "outputs": [
        {
          "internalType": "bool",
          "name": "",
          "type": "bool"
        }
      ],
      "stateMutability": "view",
      "type": "function"
    },
    {
      "inputs": [],
      "name": "symbol",
      "outputs": [
        {
          "internalType": "string",
          "name": "",
          "type": "string"
        }
      ],
      "stateMutability": "view",
      "type": "function"
    },
    {
      "inputs": [
        {
          "internalType": "uint256",
          "name": "tokenId",
          "type": "uint256"
        }
      ],
      "name": "tokenURI",
      "outputs": [
        {
          "internalType": "string",
          "name": "",
          "type": "string"
        }
      ],
      "stateMutability": "view",
      "type": "function"
    },
    {
      "inputs": [
        {
          "internalType": "address",
          "name": "owner",
          "type": "address"
        }
      ],
      "name": "tokensOfOwner",
      "outputs": [
        {
          "internalType": "uint256[]",
          "name": "",
          "type": "uint256[]"
        }
      ],
      "stateMutability": "view",
      "type": "function"
    },
    {
      "inputs": [
        {
          "internalType": "address",
          "name": "owner",
          "type": "address"
        },
        {
          "internalType": "uint256",
          "name": "start",
          "type": "uint256"
        },
        {
          "internalType": "uint256",
          "name": "stop",
          "type": "uint256"
        }
      ],
      "name": "tokensOfOwnerIn",
      "outputs": [
        {
          "internalType": "uint256[]",
          "name": "",
          "type": "uint256[]"
        }
      ],
      "stateMutability": "view",
      "type": "function"
    },
    {
      "inputs": [],
      "name": "totalMinted",
      "outputs": [
        {
          "internalType": "uint256",
          "name": "",
          "type": "uint256"
        }
      ],
      "stateMutability": "view",
      "type": "function"
    },
    {
      "inputs": [],
      "name": "totalSupply",
      "outputs": [
        {
          "internalType": "uint256",
          "name": "",
          "type": "uint256"
        }
      ],
      "stateMutability": "view",
      "type": "function"
    },
    {
      "inputs": [
        {
          "internalType": "address",
          "name": "from",
          "type": "address"
        },
        {
          "internalType": "address",
          "name": "to",
          "type": "address"
        },
        {
          "internalType": "uint256",
          "name": "tokenId",
          "type": "uint256"
        }
      ],
      "name": "transferFrom",
      "outputs": [],
      "stateMutability": "nonpayable",
      "type": "function"
    },
    {
      "inputs": [],
      "name": "unpause",
      "outputs": [],
      "stateMutability": "nonpayable",
      "type": "function"
    }
  ],
  "numDeployments": 8,
  "bytecode": "0x60808060405234620000c6576000549060ff8260081c1662000074575060ff8082161062000038575b6040516143979081620000cc8239f35b60ff90811916176000557f7f26b83ff96e1f2b6a682f133852f6798a09c465da95921460cefb3847402498602060405160ff8152a13862000028565b62461bcd60e51b815260206004820152602760248201527f496e697469616c697a61626c653a20636f6e747261637420697320696e697469604482015266616c697a696e6760c81b6064820152608490fd5b600080fdfe60806040526004361015610013575b600080fd5b60003560e01c806301ffc9a71461034757806306fdde031461033e578063081812fc14610335578063095ea7b31461032c57806318160ddd1461032357806323b872dd1461031a578063248a9ca31461031157806326c6da4f146103085780632f2ff15d146102ff57806336568abe146102f65780633f4ba83a146102ed57806342842e0e146102e457806342966c68146102db5780634b66f665146102d25780635bbb2177146102c95780635c975abb146102c05780636352211e146102b757806370a08231146102ae57806379fcc08a146102a55780638456cb591461029c5780638462151c146102935780639010d07c1461028a57806391d148541461028157806395d89b411461027857806399a2557a1461026f578063a217fddf14610266578063a22cb4651461025d578063a2309ff814610254578063ac9650d81461024b578063b88d4fde14610242578063bc197c8114610239578063c23dc68f14610230578063c87b56dd14610227578063ca15c8731461021e578063d2f3ea4314610215578063d547741f1461020c578063dd39c75014610203578063e63ab1e9146101fa578063e985e9c5146101f1578063f62d1888146101e85763fc641373146101e057600080fd5b61000e611d7a565b5061000e611bda565b5061000e611b6d565b5061000e611b31565b5061000e611b11565b5061000e611a24565b5061000e6119f6565b5061000e6119c9565b5061000e611869565b5061000e611803565b5061000e61172e565b5061000e6116c5565b5061000e611552565b5061000e611494565b5061000e611442565b5061000e611418565b5061000e6113db565b5061000e611312565b5061000e6112ba565b5061000e611273565b5061000e6111b4565b5061000e61111e565b5061000e6110a7565b5061000e611077565b5061000e611047565b5061000e611023565b5061000e610f6e565b5061000e610e65565b5061000e610b45565b5061000e610afd565b5061000e610a60565b5061000e610915565b5061000e61080e565b5061000e6107d2565b5061000e6107a2565b5061000e610788565b5061000e6106fa565b5061000e6106b3565b5061000e610615565b5061000e61050b565b5061000e61037a565b7fffffffff0000000000000000000000000000000000000000000000000000000081160361000e57565b503461000e57602060031936011261000e5760207fffffffff000000000000000000000000000000000000000000000000000000006004356103bb81610350565b167f5a05180f000000000000000000000000000000000000000000000000000000008114908115610454575b811561042a575b8115610400575b506040519015158152f35b7f5b5e139f00000000000000000000000000000000000000000000000000000000915014386103f5565b7f80ac58cd00000000000000000000000000000000000000000000000000000000811491506103ee565b90507f7965db0b0000000000000000000000000000000000000000000000000000000081148015610486575b906103e7565b507f01ffc9a7000000000000000000000000000000000000000000000000000000008114610480565b60005b8381106104c25750506000910152565b81810151838201526020016104b2565b90601f19601f6020936104f0815180928187528780880191016104af565b0116010190565b9060206105089281815201906104d2565b90565b503461000e576000806003193601126106125760405190807f2569078dfb4b0305704d3008e7403993ae9601b85f7ae5e742de3de8f8011c429081549061055182612b2c565b808652926001928084169081156105e5575060011461058b575b6105878661057b81880382611640565b604051918291826104f7565b0390f35b815292507f933ecf8acb7824b680a8d16f3ff3db8864228d986aa4c2ebab1eeb2703b4beb35b8284106105cd57505050810160200161057b826105873861056b565b805460208587018101919091529093019281016105b1565b8796506105879794506020935061057b95925060ff1991501682840152151560051b82010192933861056b565b80fd5b503461000e57602060031936011261000e5760043561063381613879565b15610678576000527f2569078dfb4b0305704d3008e7403993ae9601b85f7ae5e742de3de8f8011c4660205260206001600160a01b0360406000205416604051908152f35b60046040517fcf4700e4000000000000000000000000000000000000000000000000000000008152fd5b6001600160a01b0381160361000e57565b503461000e57604060031936011261000e576106d06004356106a2565b60046040517fbf241488000000000000000000000000000000000000000000000000000000008152fd5b503461000e57600060031936011261000e5760207f2569078dfb4b0305704d3008e7403993ae9601b85f7ae5e742de3de8f8011c40547f2569078dfb4b0305704d3008e7403993ae9601b85f7ae5e742de3de8f8011c41549003604051908152f35b600319606091011261000e57600435610774816106a2565b90602435610781816106a2565b9060443590565b503461000e576107a061079a3661075c565b916138f9565b005b503461000e57602060031936011261000e5760043560005260c96020526020600160406000200154604051908152f35b503461000e57600060031936011261000e5760206040517fb6eeb50d1ea0d876d560efb18b8017323347ce323ef4b05d5a0322c9c7869f8f8152f35b503461000e57604060031936011261000e5760043561089e602435610832816106a2565b61089960009380855260c96020526108506001604087200154611f34565b610858612596565b80855260c960205260ff6108828460408820906001600160a01b0316600052602052604060002090565b5416156108a25760005260fb602052604060002090565b612804565b5080f35b80855260c96020526108ca8360408720906001600160a01b0316600052602052604060002090565b600160ff19825416179055336001600160a01b038416827f2f8788117e7eff1d82e926ec794901d17c78024a50270940304540a733656f0d8880a460005260fb602052604060002090565b503461000e57604060031936011261000e57602435600435610936826106a2565b6001600160a01b038216913383036109f65761089e91610954612596565b60009381855260c960205260ff6109818460408820906001600160a01b0316600052602052604060002090565b5416610999575b50835260fb602052604083206128bc565b81855260c96020526109c18360408720906001600160a01b0316600052602052604060002090565b60ff1981541690553390827ff6391f5c32d9c69d2a47ea670b442974b53935d1edc7fd64eb21e047a839171b8780a438610988565b608460405162461bcd60e51b815260206004820152602f60248201527f416363657373436f6e74726f6c3a2063616e206f6e6c792072656e6f756e636560448201527f20726f6c657320666f722073656c6600000000000000000000000000000000006064820152fd5b503461000e57600060031936011261000e57610a7a611edf565b60655460ff811615610ab95760ff19166065557f5db9ee0a495bf2e6ff9c91a7834c1ba4fdd244a5e8aa4e537bd38aeae4b073aa6020604051338152a1005b606460405162461bcd60e51b815260206004820152601460248201527f5061757361626c653a206e6f74207061757365640000000000000000000000006044820152fd5b503461000e576107a0610b0f3661075c565b90604051926020840184811067ffffffffffffffff821117610b38575b60405260008452613d0f565b610b40611600565b610b2c565b503461000e57602060031936011261000e57600435610b6381613788565b6001600160a01b038116610ba3836000527f2569078dfb4b0305704d3008e7403993ae9601b85f7ae5e742de3de8f8011c46602052604060002090815490565b9290610bc26001600160a01b03841633908114908614171590565b1590565b610dd1575b600093610bd384613c0b565b610dc8575b50610c15826001600160a01b03166000527f2569078dfb4b0305704d3008e7403993ae9601b85f7ae5e742de3de8f8011c45602052604060002090565b6fffffffffffffffffffffffffffffffff81540190557c03000000000000000000000000000000000000000000000000000000004260a01b831717610c83856000527f2569078dfb4b0305704d3008e7403993ae9601b85f7ae5e742de3de8f8011c44602052604060002090565b557c0200000000000000000000000000000000000000000000000000000000811615610d21575b507fddf252ad1be2c89b69c2b068fc378daa952ba7f163c4a11628f55a4df523b3ef8280a46107a0610cfd7f2569078dfb4b0305704d3008e7403993ae9601b85f7ae5e742de3de8f8011c415460010190565b7f2569078dfb4b0305704d3008e7403993ae9601b85f7ae5e742de3de8f8011c4155565b60018401610d58816000527f2569078dfb4b0305704d3008e7403993ae9601b85f7ae5e742de3de8f8011c44602052604060002090565b5415610d65575b50610caa565b7f2569078dfb4b0305704d3008e7403993ae9601b85f7ae5e742de3de8f8011c40548114610d5f57610dc0906000527f2569078dfb4b0305704d3008e7403993ae9601b85f7ae5e742de3de8f8011c44602052604060002090565b553880610d5f565b83905538610bd8565b610e36610bbe610e2f33610e17876001600160a01b03166000527f2569078dfb4b0305704d3008e7403993ae9601b85f7ae5e742de3de8f8011c47602052604060002090565b906001600160a01b0316600052602052604060002090565b5460ff1690565b15610bc75760046040517f59c896be000000000000000000000000000000000000000000000000000000008152fd5b503461000e57600060031936011261000e5760206001600160a01b0361012f5416604051908152f35b9181601f8401121561000e5782359167ffffffffffffffff831161000e576020808501948460051b01011161000e57565b602060031982011261000e576004359067ffffffffffffffff821161000e57610eea91600401610e8e565b9091565b6020908160408183019282815285518094520193019160005b828110610f15575050505090565b9091929382608082610f62600194895162ffffff606080926001600160a01b03815116855267ffffffffffffffff6020820151166020860152604081015115156040860152015116910152565b01950193929101610f07565b503461000e57610f7d36610ebf565b610f8681612029565b91610f946040519384611640565b818352601f19610fa383612029565b0160005b81811061100c57505060005b828103610fc857604051806105878682610eee565b80836001921015610fff575b610fe38160051b8401356140c4565b610fed8287612104565b52610ff88186612104565b5001610fb3565b61100761207f565b610fd4565b602090611017614080565b82828801015201610fa7565b503461000e57600060031936011261000e57602060ff606554166040519015158152f35b503461000e57602060031936011261000e5760206001600160a01b0361106e600435613788565b16604051908152f35b503461000e57602060031936011261000e57602061109f60043561109a816106a2565b613705565b604051908152f35b503461000e57602060031936011261000e576110c1612596565b6001600160a01b0361012f541633036110f45761012e80549060043582018092116110e95755005b6110f1612050565b55005b60046040517f9a5ed74b000000000000000000000000000000000000000000000000000000008152fd5b503461000e57600060031936011261000e57611138611edf565b611140612596565b600160ff1960655416176065557f62e78cea01bee320cd4e420270b5ea74000d11b0c9f74754ebdbfc544b05a2586020604051338152a1005b6020908160408183019282815285518094520193019160005b8281106111a0575050505090565b835185529381019392810192600101611192565b503461000e57602060031936011261000e576004356111d2816106a2565b6000806111de83613705565b916111e8836141c5565b936111f1614080565b506001600160a01b0390811691835b85850361121557604051806105878982611179565b61121e81614131565b604081015161126a57516001600160a01b0316838116611261575b50600190848484161461124d575b01611200565b8061125b838801978a612104565b52611247565b91506001611239565b50600190611247565b503461000e57604060031936011261000e5760043560005260fb60205260206001600160a01b036112aa6024356040600020612570565b9190546040519260031b1c168152f35b503461000e57604060031936011261000e57602060ff6113066024356112df816106a2565b60043560005260c984526040600020906001600160a01b0316600052602052604060002090565b54166040519015158152f35b503461000e576000806003193601126106125760405190807f2569078dfb4b0305704d3008e7403993ae9601b85f7ae5e742de3de8f8011c439081549061135882612b2c565b808652926001928084169081156105e55750600114611381576105878661057b81880382611640565b815292507f617167b76dcc8247761fd21f427ad8ec3be6b3be203aed34e3aac08b4d31817c5b8284106113c357505050810160200161057b826105873861056b565b805460208587018101919091529093019281016113a7565b503461000e57606060031936011261000e5761058761140c6004356113ff816106a2565b60443590602435906141f6565b60405191829182611179565b503461000e57600060031936011261000e57602060405160008152f35b3590811515820361000e57565b503461000e57604060031936011261000e5761145f6004356106a2565b6024358015150361000e5760046040517fbf241488000000000000000000000000000000000000000000000000000000008152fd5b503461000e57600060031936011261000e5760207f2569078dfb4b0305704d3008e7403993ae9601b85f7ae5e742de3de8f8011c4054604051908152f35b602080820190808352835180925260408301928160408460051b8301019501936000915b8483106115065750505050505090565b9091929394958480611542837fffffffffffffffffffffffffffffffffffffffffffffffffffffffffffffffc086600196030187528a516104d2565b98019301930191949392906114f6565b503461000e5761156136610ebf565b9061156b82612029565b916115796040519384611640565b808352601f1961158882612029565b0160005b8181106115ef57505060005b8181106115ad576040518061058786826114d2565b806115cf6115c96115c26115ea948688612096565b369161168e565b30612188565b6115d98287612104565b526115e48186612104565b50612067565b611598565b80606060208093880101520161158c565b50634e487b7160e01b600052604160045260246000fd5b6040810190811067ffffffffffffffff82111761163357604052565b61163b611600565b604052565b90601f601f19910116810190811067ffffffffffffffff82111761163357604052565b601f19601f60209267ffffffffffffffff8111611681575b01160190565b611689611600565b61167b565b92919261169a82611663565b916116a86040519384611640565b82948184528183011161000e578281602093846000960137010152565b503461000e57608060031936011261000e576004356116e3816106a2565b6024356116ef816106a2565b6064359167ffffffffffffffff831161000e573660238401121561000e576117246107a093369060248160040135910161168e565b9160443591613d0f565b503461000e5760a060031936011261000e5761174b6004356106a2565b6117566024356106a2565b67ffffffffffffffff60443581811161000e57611777903690600401610e8e565b9160643581811161000e57611790903690600401610e8e565b608435939183851161000e573660238601121561000e57846004013593841161000e57366024858701011161000e576105879560246117d096019361319b565b6040517fffffffff0000000000000000000000000000000000000000000000000000000090911681529081906020820190565b503461000e57602060031936011261000e5760806118226004356140c4565b611867604051809262ffffff606080926001600160a01b03815116855267ffffffffffffffff6020820151166020860152604081015115156040860152015116910152565bf35b503461000e5760208060031936011261000e5760043561188881613879565b1561199f57604051908282600061013080546118a381612b2c565b8085529160019180831690811561197b575060011461191e575b5050506118cc92500383611640565b81511561190b57610587926118fd6118e661057b9361400e565b6118f7604051958694850190612012565b90612012565b03601f198101835282611640565b505050610587611919612126565b61057b565b60009081527f2f605e086faac1d93117bbfbc18835d434e9405fadc1ca66faf4b864746daf3495935091905b8183106119635750879450508201016118cc38806118bd565b8554888401850152948501948794509183019161194a565b9150506118cc95935060ff1991501682840152151560051b820101859238806118bd565b60046040517fa14c4b50000000000000000000000000000000000000000000000000000000008152fd5b503461000e57602060031936011261000e5760043560005260fb6020526020604060002054604051908152f35b503461000e57602060031936011261000e5760043560005261012d6020526020604060002054604051908152f35b503461000e57604060031936011261000e5760043561089e602435611a48816106a2565b60009280845260c9602052611a636001604086200154611f34565b611a6b612596565b80845260c960205260ff611a958360408720906001600160a01b0316600052602052604060002090565b5416611aac575b835260fb602052604083206128bc565b80845260c9602052611ad48260408620906001600160a01b0316600052602052604060002090565b60ff198154169055336001600160a01b038316827ff6391f5c32d9c69d2a47ea670b442974b53935d1edc7fd64eb21e047a839171b8780a4611a9c565b503461000e57600060031936011261000e57602061012e54604051908152f35b503461000e57600060031936011261000e5760206040517f65d7a28e3265b37a6474929f336521b332c1681b933f6cb9f3376673440d862a8152f35b503461000e57604060031936011261000e57602060ff611306600435611b92816106a2565b610e1760243591611ba2836106a2565b6001600160a01b03166000527f2569078dfb4b0305704d3008e7403993ae9601b85f7ae5e742de3de8f8011c47602052604060002090565b503461000e57602060031936011261000e5760043567ffffffffffffffff811161000e573660238201121561000e57611c1d90369060248160040135910161168e565b7fee151c8401928dc223602bb187aff91b9a56c7cae5476ef1b3287b085a16c85f5460ff8160081c169081600014611d715750303b155b15611d0757611c6990159182611c9e576129f4565b611c6f57005b6107a07fee151c8401928dc223602bb187aff91b9a56c7cae5476ef1b3287b085a16c85f61ff00198154169055565b611cd17fee151c8401928dc223602bb187aff91b9a56c7cae5476ef1b3287b085a16c85f61010061ff0019825416179055565b611d027fee151c8401928dc223602bb187aff91b9a56c7cae5476ef1b3287b085a16c85f600160ff19825416179055565b6129f4565b608460405162461bcd60e51b815260206004820152603760248201527f455243373231415f5f496e697469616c697a61626c653a20636f6e747261637460448201527f20697320616c726561647920696e697469616c697a65640000000000000000006064820152fd5b60ff1615611c54565b503461000e57602060031936011261000e57600435611d98816106a2565b611da0612596565b3360009081527f81fe90a866a48a634a12852c1be675b683a22307409932a7443b8029347be756602052604090205460ff1615611e385760206001600160a01b037fb1baf34c07e5c91807f2e3dd3326873be3e2406ef6703ddb0946280f1b895f8b921661012f817fffffffffffffffffffffffff0000000000000000000000000000000000000000825416179055604051908152a1005b611edb6048611ec3611e49336123ad565b6118fd611e54612457565b6040519485937f416363657373436f6e74726f6c3a206163636f756e74200000000000000000006020860152611e948151809260206037890191016104af565b84017f206973206d697373696e6720726f6c652000000000000000000000000000000060378201520190612012565b60405191829162461bcd60e51b8352600483016104f7565b0390fd5b3360009081527f69740cd0ab091be8193e004660c49ef128fdf47ef95c5cc8c747e37ac0379df8602052604090205460ff1615611f1857565b611edb6048611ec3611f29336123ad565b6118fd611e546124d4565b8060005260c960205260ff611f60336040600020906001600160a01b0316600052602052604060002090565b541615611f6a5750565b611f73336123ad565b90611f7c6122d4565b906030611f888361230e565b536078611f9483612324565b5360415b60018111611fb757611edb6048611ec3866118fd87611e548815612362565b90807f3031323334353637383961626364656600000000000000000000000000000000600f61200093166010811015612005575b1a611ff68486612335565b5360041c91612354565b611f98565b61200d61207f565b611feb565b90612025602092828151948592016104af565b0190565b60209067ffffffffffffffff8111612043575b60051b0190565b61204b611600565b61203c565b50634e487b7160e01b600052601160045260246000fd5b6001906000198114612077570190565b612025612050565b50634e487b7160e01b600052603260045260246000fd5b91908110156120f7575b60051b810135907fffffffffffffffffffffffffffffffffffffffffffffffffffffffffffffffe18136030182121561000e57019081359167ffffffffffffffff831161000e57602001823603811361000e579190565b6120ff61207f565b6120a0565b6020918151811015612119575b60051b010190565b61212161207f565b612111565b604051906020820182811067ffffffffffffffff82111761214b575b60405260008252565b612153611600565b612142565b3d15612183573d9061216982611663565b916121776040519384611640565b82523d6000602084013e565b606090565b90813b1561222a576000816105089360208394519201905af46121a9612158565b604051916060830183811067ffffffffffffffff82111761221d575b604052602783527f416464726573733a206c6f772d6c6576656c2064656c65676174652063616c6c60208401527f206661696c6564000000000000000000000000000000000000000000000000006040840152612294565b612225611600565b6121c5565b608460405162461bcd60e51b815260206004820152602660248201527f416464726573733a2064656c65676174652063616c6c20746f206e6f6e2d636f60448201527f6e747261637400000000000000000000000000000000000000000000000000006064820152fd5b909190156122a0575090565b8151156122b05750805190602001fd5b611edb9060405191829162461bcd60e51b83526020600484015260248301906104d2565b604051906080820182811067ffffffffffffffff821117612301575b604052604282526060366020840137565b612309611600565b6122f0565b60209080511561231c570190565b61202561207f565b60219080516001101561231c570190565b90602091805182101561234757010190565b61234f61207f565b010190565b600019908015612077570190565b1561236957565b606460405162461bcd60e51b815260206004820152602060248201527f537472696e67733a20686578206c656e67746820696e73756666696369656e746044820152fd5b604051906060820182811067ffffffffffffffff82111761244a575b604052602a8252604036602084013760306123e38361230e565b5360786123ef83612324565b536029905b6001821161240757610508915015612362565b807f3031323334353637383961626364656600000000000000000000000000000000600f61244493166010811015612005571a611ff68486612335565b906123f4565b612452611600565b6123c9565b60006124616122d4565b90603061246d8361230e565b53607861247983612324565b536041905b6001821161249157610508915015612362565b807f3031323334353637383961626364656600000000000000000000000000000000600f6124ce93166010811015612005571a611ff68486612335565b9061247e565b7f65d7a28e3265b37a6474929f336521b332c1681b933f6cb9f3376673440d862a6124fd6122d4565b9060306125098361230e565b53607861251583612324565b536041905b6001821161252d57610508915015612362565b807f3031323334353637383961626364656600000000000000000000000000000000600f61256a93166010811015612005571a611ff68486612335565b9061251a565b8054821015612589575b60005260206000200190600090565b61259161207f565b61257a565b60ff606554166125a257565b606460405162461bcd60e51b815260206004820152601060248201527f5061757361626c653a20706175736564000000000000000000000000000000006044820152fd5b612649906125f2612596565b6001600160a01b0381811660009081527f81fe90a866a48a634a12852c1be675b683a22307409932a7443b8029347be75660205260408082205490919060ff161561264c575b80805260fb60205220911690612837565b50565b80805260c960205261267384838320906001600160a01b0316600052602052604060002090565b600160ff1982541617905533838516827f2f8788117e7eff1d82e926ec794901d17c78024a50270940304540a733656f0d8180a4612638565b612649906126b8612596565b6001600160a01b0381811660009081527f69740cd0ab091be8193e004660c49ef128fdf47ef95c5cc8c747e37ac0379df860205260408082209091907f65d7a28e3265b37a6474929f336521b332c1681b933f6cb9f3376673440d862a9060ff905b541615612732575b815260fb60205220911690612837565b80825260c960205261275985848420906001600160a01b0316600052602052604060002090565b600160ff1982541617905533848616827f2f8788117e7eff1d82e926ec794901d17c78024a50270940304540a733656f0d8580a4612722565b6126499061279e612596565b6001600160a01b0381811660009081527fa65068d46483e09e8cfdb7d90215cca5eb137b30699be6445b5905c4a0f9730360205260408082209091907fb6eeb50d1ea0d876d560efb18b8017323347ce323ef4b05d5a0322c9c7869f8f9060ff9061271a565b6001600160a01b03610508921690612837565b916128339183549060031b600019811b9283911b169119161790565b9055565b60018101908260005281602052604060002054156000146128b457826128926128798354680100000000000000008110156128a7575b60018101855584612570565b819391549060031b600019811b9283911b169119161790565b90555491600052602052604060002055600190565b6128af611600565b61286d565b505050600090565b6001600160a01b03610508921690612926565b919082039182116128dc57565b6128e4612050565b565b805490811561291057600019809201916129008383612570565b909182549160031b1b1916905555565b634e487b7160e01b600052603160045260246000fd5b60018101918060005282602052604060002054928315156000146129eb57612979612988936000956000198082018281116129de575b83549182019182116129d1575b80820361298e575b5050506128e6565b90600052602052604060002090565b55600190565b6129b86129b2916129a26129c89487612570565b90549060031b1c92839187612570565b90612817565b8590600052602052604060002090565b55388080612971565b6129d9612050565b612969565b6129e6612050565b61295c565b50505050600090565b6000549060ff8260081c161580928193612b1e575b8115612afe575b5015612a9457612a369082612a2d600160ff196000541617600055565b612a7b57612ea1565b612a3c57565b612a4c61ff001960005416600055565b604051600181527f7f26b83ff96e1f2b6a682f133852f6798a09c465da95921460cefb384740249890602090a1565b612a8f61010061ff00196000541617600055565b612ea1565b608460405162461bcd60e51b815260206004820152602e60248201527f496e697469616c697a61626c653a20636f6e747261637420697320616c72656160448201527f647920696e697469616c697a65640000000000000000000000000000000000006064820152fd5b303b15915081612b10575b5038612a10565b6001915060ff161438612b09565b600160ff8216109150612a09565b90600182811c92168015612b5c575b6020831014612b4657565b634e487b7160e01b600052602260045260246000fd5b91607f1691612b3b565b601f8111612b72575050565b60009061013082527f2f605e086faac1d93117bbfbc18835d434e9405fadc1ca66faf4b864746daf34906020601f850160051c83019410612bce575b601f0160051c01915b828110612bc357505050565b818155600101612bb7565b9092508290612bae565b601f8111612be4575050565b6000907f2569078dfb4b0305704d3008e7403993ae9601b85f7ae5e742de3de8f8011c4282527f933ecf8acb7824b680a8d16f3ff3db8864228d986aa4c2ebab1eeb2703b4beb3906020601f850160051c83019410612c5e575b601f0160051c01915b828110612c5357505050565b818155600101612c47565b9092508290612c3e565b601f8111612c74575050565b6000907f2569078dfb4b0305704d3008e7403993ae9601b85f7ae5e742de3de8f8011c4382527f617167b76dcc8247761fd21f427ad8ec3be6b3be203aed34e3aac08b4d31817c906020601f850160051c83019410612cee575b601f0160051c01915b828110612ce357505050565b818155600101612cd7565b9092508290612cce565b90815167ffffffffffffffff8111612e22575b7f2569078dfb4b0305704d3008e7403993ae9601b85f7ae5e742de3de8f8011c4390612d4081612d3b8454612b2c565b612c68565b602080601f8311600114612d7b575081929394600092612d70575b50506000198260011b9260031b1c1916179055565b015190503880612d5b565b90601f19831695612dcd7f2569078dfb4b0305704d3008e7403993ae9601b85f7ae5e742de3de8f8011c436000527f617167b76dcc8247761fd21f427ad8ec3be6b3be203aed34e3aac08b4d31817c90565b926000905b888210612e0a57505083600195969710612df1575b505050811b019055565b015160001960f88460031b161c19169055388080612de7565b80600185968294968601518155019501930190612dd2565b612e2a611600565b612d0b565b60405190612e3c82611617565b600b82527f43657274696669636174650000000000000000000000000000000000000000006020830152565b60405190612e7582611617565b600482527f4e434352000000000000000000000000000000000000000000000000000000006020830152565b90815167ffffffffffffffff8111613005575b61013090612ecb81612ec68454612b2c565b612b66565b602080601f8311600114612f79575081929394600092612f6e575b50506000198260011b9260031b1c19161790555b612f02613083565b612f0a613083565b612f23612f15612e2f565b612f1d612e68565b90613565565b612f2b614050565b612f33614050565b612f3b613094565b612f43613083565b612f4b613083565b612f53613083565b612f5c336125e6565b612f65336126ac565b6128e433612792565b015190503880612ee6565b90601f19831695612fad6101306000527f2f605e086faac1d93117bbfbc18835d434e9405fadc1ca66faf4b864746daf3490565b926000905b888210612fed57505083600195969710612fd4575b505050811b019055612efa565b015160001960f88460031b161c19169055388080612fc7565b80600185968294968601518155019501930190612fb2565b61300d611600565b612eb4565b1561301957565b608460405162461bcd60e51b815260206004820152602b60248201527f496e697469616c697a61626c653a20636f6e7472616374206973206e6f74206960448201527f6e697469616c697a696e670000000000000000000000000000000000000000006064820152fd5b6128e460ff60005460081c16613012565b6130a560ff60005460081c16613012565b60ff1960655416606555565b9081602091031261000e5761050890611435565b908160c091031261000e5760a06040519160c0830183811067ffffffffffffffff821117613140575b6040526130fa81611435565b8352602081013561310a816106a2565b6020840152604081013560408401526060810135613127816106a2565b606084015260808101356080840152013560a082015290565b613148611600565b6130ee565b929161315882612029565b916131666040519384611640565b829481845260208094019160051b810192831161000e57905b82821061318c5750505050565b8135815290830190830161317f565b9194939092936001600160a01b0361012f5416330361326d578101906131c182826130b1565b1561321757505050506131e46131df6131f3936131ed93369161314d565b6132b1565b61012e546128cf565b61012e55565b7fbc197c810000000000000000000000000000000000000000000000000000000090565b61326895939491613227916130c5565b9261323c60208501516001600160a01b031690565b9460408501519361325760608701516001600160a01b031690565b9460a0608088015197015197613372565b6131f3565b606460405162461bcd60e51b815260206004820152601f60248201527f43657274696669636174653a2053656e646572206e6f742052656d6f76616c006044820152fd5b80516000929160209160051b8101820190849083015b8281106132d45750505050565b858151019586106132e65783016132c7565b5080fd5b90918281527f07ffffffffffffffffffffffffffffffffffffffffffffffffffffffffffffff831161000e5760209260051b809284830137010190565b94926133689460a097936001600160a01b0361335a949c9b9a9c168852602088015260c0604088015260c08701916132ea565b9184830360608601526132ea565b9460808201520152565b9790959296939193866133896131df36898761314d565b036134b05785880361341e577fc75c026f88960a2ba4c2eb0bad4326d77c1116b7e40c22b88077c38535a7982d95613419937f2569078dfb4b0305704d3008e7403993ae9601b85f7ae5e742de3de8f8011c405499896133f48c60005261012d602052604060002090565b556133fe8c613ea1565b6040519788976001600160a01b038091169d169a3389613327565b0390a4565b60c46040517f616c411300000000000000000000000000000000000000000000000000000000815260406004820152600a60448201527f72656d6f76616c49647300000000000000000000000000000000000000000000606482015260806024820152600e60848201527f72656d6f76616c416d6f756e747300000000000000000000000000000000000060a4820152fd5b606460405162461bcd60e51b815260206004820152601b60248201527f496e636f727265637420737570706c7920616c6c6f636174696f6e00000000006044820152fd5b156134fb57565b608460405162461bcd60e51b815260206004820152603460248201527f455243373231415f5f496e697469616c697a61626c653a20636f6e747261637460448201527f206973206e6f7420696e697469616c697a696e670000000000000000000000006064820152fd5b919061359760ff7fee151c8401928dc223602bb187aff91b9a56c7cae5476ef1b3287b085a16c85f5460081c166134f4565b825167ffffffffffffffff81116136f8575b7f2569078dfb4b0305704d3008e7403993ae9601b85f7ae5e742de3de8f8011c42906135de816135d98454612b2c565b612bd8565b602080601f831160011461364857508190613614959660009261363d575b50506000198260011b9260031b1c1916179055612cf8565b6128e460007f2569078dfb4b0305704d3008e7403993ae9601b85f7ae5e742de3de8f8011c4055565b0151905038806135fc565b90601f1983169661369a7f2569078dfb4b0305704d3008e7403993ae9601b85f7ae5e742de3de8f8011c426000527f933ecf8acb7824b680a8d16f3ff3db8864228d986aa4c2ebab1eeb2703b4beb390565b926000905b8982106136e0575050908392916001946136149899106136c7575b505050811b019055612cf8565b015160001960f88460031b161c191690553880806136ba565b8060018596829496860151815501950193019061369f565b613700611600565b6135a9565b6001600160a01b0381161561375e5761375967ffffffffffffffff916001600160a01b03166000527f2569078dfb4b0305704d3008e7403993ae9601b85f7ae5e742de3de8f8011c45602052604060002090565b541690565b60046040517f8f4eb604000000000000000000000000000000000000000000000000000000008152fd5b807f2569078dfb4b0305704d3008e7403993ae9601b85f7ae5e742de3de8f8011c405481106137dc575b60046040517fdf2d9b42000000000000000000000000000000000000000000000000000000008152fd5b6000527f2569078dfb4b0305704d3008e7403993ae9601b85f7ae5e742de3de8f8011c44602052604060002054907c010000000000000000000000000000000000000000000000000000000082166137b2575b8115613839575090565b600019915001613872816000527f2569078dfb4b0305704d3008e7403993ae9601b85f7ae5e742de3de8f8011c44602052604060002090565b549061382f565b7f2569078dfb4b0305704d3008e7403993ae9601b85f7ae5e742de3de8f8011c4054811090816138a7575090565b90506000527f2569078dfb4b0305704d3008e7403993ae9601b85f7ae5e742de3de8f8011c446020527c0100000000000000000000000000000000000000000000000000000000604060002054161590565b9061390383613788565b6001600160a01b03808416928382841603613be15760008681527f2569078dfb4b0305704d3008e7403993ae9601b85f7ae5e742de3de8f8011c4660205260409020805490926139626001600160a01b03881633908114908414171590565b613b6c575b8216958615613b4257613a00936139c0926139828584613ca2565b613b38575b506001600160a01b03166000527f2569078dfb4b0305704d3008e7403993ae9601b85f7ae5e742de3de8f8011c45602052604060002090565b80546000190190556001600160a01b03166000527f2569078dfb4b0305704d3008e7403993ae9601b85f7ae5e742de3de8f8011c45602052604060002090565b805460010190557c0200000000000000000000000000000000000000000000000000000000804260a01b851717613a60866000527f2569078dfb4b0305704d3008e7403993ae9601b85f7ae5e742de3de8f8011c44602052604060002090565b55811615613a91575b507fddf252ad1be2c89b69c2b068fc378daa952ba7f163c4a11628f55a4df523b3ef600080a4565b60018401613ac8816000527f2569078dfb4b0305704d3008e7403993ae9601b85f7ae5e742de3de8f8011c44602052604060002090565b5415613ad5575b50613a69565b7f2569078dfb4b0305704d3008e7403993ae9601b85f7ae5e742de3de8f8011c40548114613acf57613b30906000527f2569078dfb4b0305704d3008e7403993ae9601b85f7ae5e742de3de8f8011c44602052604060002090565b553880613acf565b6000905538613987565b60046040517fea553b34000000000000000000000000000000000000000000000000000000008152fd5b613bb2610bbe610e2f33610e178b6001600160a01b03166000527f2569078dfb4b0305704d3008e7403993ae9601b85f7ae5e742de3de8f8011c47602052604060002090565b156139675760046040517f59c896be000000000000000000000000000000000000000000000000000000008152fd5b60046040517fa1148100000000000000000000000000000000000000000000000000000000008152fd5b6001600160a01b0390613c1c612596565b3360009081527fa65068d46483e09e8cfdb7d90215cca5eb137b30699be6445b5905c4a0f973036020526040902054911615159060ff161581613c99575b81613c91575b50613c6757565b60046040517f175e5a90000000000000000000000000000000000000000000000000000000008152fd5b905038613c60565b60009150613c5a565b90613cab612596565b3360009081527fa65068d46483e09e8cfdb7d90215cca5eb137b30699be6445b5905c4a0f97303602052604090206001600160a01b039283161515929060ff905416159183613d03575b505081613c915750613c6757565b16151591503880613cf5565b929190613d1d8282866138f9565b803b613d2a575b50505050565b613d3393613daf565b15613d415738808080613d24565b60046040517fd1a57ed6000000000000000000000000000000000000000000000000000000008152fd5b9081602091031261000e575161050881610350565b909261050894936080936001600160a01b038092168452166020830152604082015281606082015201906104d2565b92602091613df99360006001600160a01b036040518097819682957f150b7a02000000000000000000000000000000000000000000000000000000009b8c85523360048601613d80565b0393165af160009181613e71575b50613e4b57613e14612158565b80519081613e465760046040517fd1a57ed6000000000000000000000000000000000000000000000000000000008152fd5b602001fd5b7fffffffff00000000000000000000000000000000000000000000000000000000161490565b613e9391925060203d8111613e9a575b613e8b8183611640565b810190613d6b565b9038613e07565b503d613e81565b7f2569078dfb4b0305704d3008e7403993ae9601b85f7ae5e742de3de8f8011c4054613ecb612596565b6001600160a01b0380831660009081527f2569078dfb4b0305704d3008e7403993ae9601b85f7ae5e742de3de8f8011c456020526040812090939068010000000000000001815401905516907c02000000000000000000000000000000000000000000000000000000004260a01b831717613f6f826000527f2569078dfb4b0305704d3008e7403993ae9601b85f7ae5e742de3de8f8011c44602052604060002090565b55600190818101937fddf252ad1be2c89b69c2b068fc378daa952ba7f163c4a11628f55a4df523b3ef918482848180a4845b858103613fff575050505015613fd5577f2569078dfb4b0305704d3008e7403993ae9601b85f7ae5e742de3de8f8011c4055565b60046040517f2e076300000000000000000000000000000000000000000000000000000000008152fd5b8084918684868180a401613fa1565b90604051600019608082019384604052935b0192600a9081810660300185530492831561403e5760001990614020565b9250608083601f199203019201918252565b6128e460ff7fee151c8401928dc223602bb187aff91b9a56c7cae5476ef1b3287b085a16c85f5460081c166134f4565b604051906080820182811067ffffffffffffffff8211176140b7575b60405260006060838281528260208201528260408201520152565b6140bf611600565b61409c565b6140cc614080565b506140d5614080565b7f2569078dfb4b0305704d3008e7403993ae9601b85f7ae5e742de3de8f8011c405482101561412c575061410881614131565b604081015161412c575061412761050891614121614080565b50613788565b61416b565b905090565b614139614080565b506000527f2569078dfb4b0305704d3008e7403993ae9601b85f7ae5e742de3de8f8011c446020526105086040600020545b90614174614080565b916001600160a01b038116835267ffffffffffffffff8160a01c1660208401527c010000000000000000000000000000000000000000000000000000000081161515604084015260e81c6060830152565b906141cf82612029565b6141dc6040519182611640565b828152601f196141ec8294612029565b0190602036910137565b9082811015614337576000917f2569078dfb4b0305704d3008e7403993ae9601b85f7ae5e742de3de8f8011c405480851161432f575b5061423681613705565b8483101561432857828503818110614320575b505b614254816141c5565b95811561431857614264846140c4565b918594604093614279610bbe86830151151590565b614306575b505b87811415806142fc575b156142ef5761429881614131565b808501516142e657516001600160a01b03908116806142dd575b5090816001928716908816146142c9575b01614280565b806142d7838a01998c612104565b526142c3565b965060016142b2565b506001906142c3565b5050959450505050815290565b508187141561428a565b516001600160a01b031695503861427e565b945050505050565b905038614249565b508261424b565b93503861422c565b60046040517f32c1995a000000000000000000000000000000000000000000000000000000008152fdfea264697066735822122068496f5ee155882210cc7bfb97ea15557ec9fb9df6b9e091b4ce017021bad03d64736f6c63430008110033"
}