{
  "address": "0x6d14906698f636AB6fd9209518b0e9DA2d9eeEEF",
  "abi": [
    {
      "inputs": [],
      "stateMutability": "nonpayable",
      "type": "constructor"
    },
    {
      "inputs": [
        {
          "internalType": "uint256",
          "name": "tokenId",
          "type": "uint256"
        }
      ],
      "name": "CertificateNotYetMinted",
      "type": "error"
    },
    {
      "inputs": [],
      "name": "ERC20TransferFailed",
      "type": "error"
    },
    {
      "inputs": [],
      "name": "InsufficientSupply",
      "type": "error"
    },
    {
      "inputs": [
        {
          "internalType": "uint256",
          "name": "amount",
          "type": "uint256"
        }
      ],
      "name": "InvalidCertificateAmount",
      "type": "error"
    },
    {
      "inputs": [],
      "name": "InvalidNoriFeePercentage",
      "type": "error"
    },
    {
      "inputs": [],
      "name": "InvalidPriceMultiple",
      "type": "error"
    },
    {
      "inputs": [
        {
          "internalType": "uint256",
          "name": "decimals",
          "type": "uint256"
        }
      ],
      "name": "InvalidPurchasingTokenDecimals",
      "type": "error"
    },
    {
      "inputs": [],
      "name": "LowSupplyAllowlistRequired",
      "type": "error"
    },
    {
      "inputs": [],
      "name": "NoriFeeWalletZeroAddress",
      "type": "error"
    },
    {
      "inputs": [
        {
          "internalType": "uint256",
          "name": "removalId",
          "type": "uint256"
        },
        {
          "internalType": "uint256",
          "name": "year",
          "type": "uint256"
        }
      ],
      "name": "RemovalNotFoundInYear",
      "type": "error"
    },
    {
      "inputs": [],
      "name": "ReplacementAmountExceedsNrtDeficit",
      "type": "error"
    },
    {
      "inputs": [],
      "name": "ReplacementAmountMismatch",
      "type": "error"
    },
    {
      "inputs": [],
      "name": "SenderNotRemovalContract",
      "type": "error"
    },
    {
      "inputs": [],
      "name": "UnauthorizedWithdrawal",
      "type": "error"
    },
    {
      "anonymous": false,
      "inputs": [
        {
          "indexed": true,
          "internalType": "uint256",
          "name": "id",
          "type": "uint256"
        },
        {
          "indexed": true,
          "internalType": "address",
          "name": "supplierAddress",
          "type": "address"
        }
      ],
      "name": "AddRemoval",
      "type": "event"
    },
    {
      "anonymous": false,
      "inputs": [
        {
          "indexed": true,
          "internalType": "address",
          "name": "added",
          "type": "address"
        },
        {
          "indexed": true,
          "internalType": "address",
          "name": "next",
          "type": "address"
        },
        {
          "indexed": true,
          "internalType": "address",
          "name": "previous",
          "type": "address"
        }
      ],
      "name": "AddSupplier",
      "type": "event"
    },
    {
      "anonymous": false,
      "inputs": [
        {
          "indexed": false,
          "internalType": "uint8",
          "name": "version",
          "type": "uint8"
        }
      ],
      "name": "Initialized",
      "type": "event"
    },
    {
      "anonymous": false,
      "inputs": [
        {
          "indexed": false,
          "internalType": "address",
          "name": "account",
          "type": "address"
        }
      ],
      "name": "Paused",
      "type": "event"
    },
    {
      "anonymous": false,
      "inputs": [
        {
          "indexed": false,
          "internalType": "contract Removal",
          "name": "removal",
          "type": "address"
        },
        {
          "indexed": false,
          "internalType": "contract Certificate",
          "name": "certificate",
          "type": "address"
        },
        {
          "indexed": false,
          "internalType": "contract IERC20WithPermit",
          "name": "purchasingToken",
          "type": "address"
        },
        {
          "indexed": false,
          "internalType": "contract RestrictedNORI",
          "name": "restrictedNORI",
          "type": "address"
        }
      ],
      "name": "RegisterContractAddresses",
      "type": "event"
    },
    {
      "anonymous": false,
      "inputs": [
        {
          "indexed": true,
          "internalType": "address",
          "name": "removed",
          "type": "address"
        },
        {
          "indexed": true,
          "internalType": "address",
          "name": "next",
          "type": "address"
        },
        {
          "indexed": true,
          "internalType": "address",
          "name": "previous",
          "type": "address"
        }
      ],
      "name": "RemoveSupplier",
      "type": "event"
    },
    {
      "anonymous": false,
      "inputs": [
        {
          "indexed": true,
          "internalType": "uint256",
          "name": "amount",
          "type": "uint256"
        },
        {
          "indexed": true,
          "internalType": "uint256",
          "name": "removalId",
          "type": "uint256"
        }
      ],
      "name": "RestrictedNORIMintFailure",
      "type": "event"
    },
    {
      "anonymous": false,
      "inputs": [
        {
          "indexed": true,
          "internalType": "bytes32",
          "name": "role",
          "type": "bytes32"
        },
        {
          "indexed": true,
          "internalType": "bytes32",
          "name": "previousAdminRole",
          "type": "bytes32"
        },
        {
          "indexed": true,
          "internalType": "bytes32",
          "name": "newAdminRole",
          "type": "bytes32"
        }
      ],
      "name": "RoleAdminChanged",
      "type": "event"
    },
    {
      "anonymous": false,
      "inputs": [
        {
          "indexed": true,
          "internalType": "bytes32",
          "name": "role",
          "type": "bytes32"
        },
        {
          "indexed": true,
          "internalType": "address",
          "name": "account",
          "type": "address"
        },
        {
          "indexed": true,
          "internalType": "address",
          "name": "sender",
          "type": "address"
        }
      ],
      "name": "RoleGranted",
      "type": "event"
    },
    {
      "anonymous": false,
      "inputs": [
        {
          "indexed": true,
          "internalType": "bytes32",
          "name": "role",
          "type": "bytes32"
        },
        {
          "indexed": true,
          "internalType": "address",
          "name": "account",
          "type": "address"
        },
        {
          "indexed": true,
          "internalType": "address",
          "name": "sender",
          "type": "address"
        }
      ],
      "name": "RoleRevoked",
      "type": "event"
    },
    {
      "anonymous": false,
      "inputs": [
        {
          "indexed": false,
          "internalType": "uint256",
          "name": "priceMultiple",
          "type": "uint256"
        }
      ],
      "name": "SetPriceMultiple",
      "type": "event"
    },
    {
      "anonymous": false,
      "inputs": [
        {
          "indexed": false,
          "internalType": "uint256",
          "name": "threshold",
          "type": "uint256"
        }
      ],
      "name": "SetPriorityRestrictedThreshold",
      "type": "event"
    },
    {
      "anonymous": false,
      "inputs": [
        {
          "indexed": false,
          "internalType": "contract IERC20WithPermit",
          "name": "purchasingToken",
          "type": "address"
        }
      ],
      "name": "SetPurchasingToken",
      "type": "event"
    },
    {
      "anonymous": false,
      "inputs": [
        {
          "indexed": true,
          "internalType": "uint256",
          "name": "amount",
          "type": "uint256"
        },
        {
          "indexed": true,
          "internalType": "uint256",
          "name": "removalId",
          "type": "uint256"
        },
        {
          "indexed": false,
          "internalType": "uint256",
          "name": "currentHoldbackPercentage",
          "type": "uint256"
        },
        {
          "indexed": false,
          "internalType": "address",
          "name": "rNoriUnderlyingToken",
          "type": "address"
        },
        {
          "indexed": false,
          "internalType": "address",
          "name": "purchasingTokenAddress",
          "type": "address"
        }
      ],
      "name": "SkipRestrictedNORIERC20Transfer",
      "type": "event"
    },
    {
      "anonymous": false,
      "inputs": [
        {
          "indexed": false,
          "internalType": "address",
          "name": "account",
          "type": "address"
        }
      ],
      "name": "Unpaused",
      "type": "event"
    },
    {
      "anonymous": false,
      "inputs": [
        {
          "indexed": true,
          "internalType": "uint256",
          "name": "certificateId",
          "type": "uint256"
        },
        {
          "indexed": false,
          "internalType": "uint256[]",
          "name": "removalIds",
          "type": "uint256[]"
        },
        {
          "indexed": false,
          "internalType": "uint256[]",
          "name": "amounts",
          "type": "uint256[]"
        },
        {
          "indexed": false,
          "internalType": "uint256[]",
          "name": "removalIdsBeingReplaced",
          "type": "uint256[]"
        },
        {
          "indexed": false,
          "internalType": "uint256[]",
          "name": "amountsBeingReplaced",
          "type": "uint256[]"
        },
        {
          "indexed": true,
          "internalType": "address",
          "name": "purchasingTokenAddress",
          "type": "address"
        },
        {
          "indexed": false,
          "internalType": "uint256",
          "name": "priceMultiple",
          "type": "uint256"
        }
      ],
      "name": "UpdateCertificate",
      "type": "event"
    },
    {
      "anonymous": false,
      "inputs": [
        {
          "indexed": false,
          "internalType": "uint256",
          "name": "updatedFeePercentage",
          "type": "uint256"
        }
      ],
      "name": "UpdateNoriFeePercentage",
      "type": "event"
    },
    {
      "anonymous": false,
      "inputs": [
        {
          "indexed": false,
          "internalType": "address",
          "name": "updatedWalletAddress",
          "type": "address"
        }
      ],
      "name": "UpdateNoriFeeWalletAddress",
      "type": "event"
    },
    {
      "inputs": [],
      "name": "DEFAULT_ADMIN_ROLE",
      "outputs": [
        {
          "internalType": "bytes32",
          "name": "",
          "type": "bytes32"
        }
      ],
      "stateMutability": "view",
      "type": "function"
    },
    {
      "inputs": [],
      "name": "MARKET_ADMIN_ROLE",
      "outputs": [
        {
          "internalType": "bytes32",
          "name": "",
          "type": "bytes32"
        }
      ],
      "stateMutability": "view",
      "type": "function"
    },
    {
      "inputs": [],
      "name": "PAUSER_ROLE",
      "outputs": [
        {
          "internalType": "bytes32",
          "name": "",
          "type": "bytes32"
        }
      ],
      "stateMutability": "view",
      "type": "function"
    },
    {
      "inputs": [],
      "name": "PRIORITY_ALLOWLIST_ROLE",
      "outputs": [
        {
          "internalType": "bytes32",
          "name": "",
          "type": "bytes32"
        }
      ],
      "stateMutability": "view",
      "type": "function"
    },
    {
      "inputs": [],
      "name": "SWAP_ALLOWLIST_ROLE",
      "outputs": [
        {
          "internalType": "bytes32",
          "name": "",
          "type": "bytes32"
        }
      ],
      "stateMutability": "view",
      "type": "function"
    },
    {
      "inputs": [
        {
          "internalType": "uint256",
          "name": "purchaseTotal",
          "type": "uint256"
        }
      ],
      "name": "calculateCertificateAmountFromPurchaseTotal",
      "outputs": [
        {
          "internalType": "uint256",
          "name": "",
          "type": "uint256"
        }
      ],
      "stateMutability": "view",
      "type": "function"
    },
    {
      "inputs": [
        {
          "internalType": "uint256",
          "name": "purchaseTotal",
          "type": "uint256"
        }
      ],
      "name": "calculateCertificateAmountFromPurchaseTotalWithoutFee",
      "outputs": [
        {
          "internalType": "uint256",
          "name": "",
          "type": "uint256"
        }
      ],
      "stateMutability": "view",
      "type": "function"
    },
    {
      "inputs": [
        {
          "internalType": "uint256",
          "name": "amount",
          "type": "uint256"
        }
      ],
      "name": "calculateCheckoutTotal",
      "outputs": [
        {
          "internalType": "uint256",
          "name": "",
          "type": "uint256"
        }
      ],
      "stateMutability": "view",
      "type": "function"
    },
    {
      "inputs": [
        {
          "internalType": "uint256",
          "name": "amount",
          "type": "uint256"
        },
        {
          "internalType": "uint256",
          "name": "priceMultiple",
          "type": "uint256"
        }
      ],
      "name": "calculateCheckoutTotalWithoutFee",
      "outputs": [
        {
          "internalType": "uint256",
          "name": "",
          "type": "uint256"
        }
      ],
      "stateMutability": "view",
      "type": "function"
    },
    {
      "inputs": [
        {
          "internalType": "uint256",
          "name": "amount",
          "type": "uint256"
        }
      ],
      "name": "calculateNoriFee",
      "outputs": [
        {
          "internalType": "uint256",
          "name": "",
          "type": "uint256"
        }
      ],
      "stateMutability": "view",
      "type": "function"
    },
    {
      "inputs": [
        {
          "internalType": "uint256",
          "name": "purchasingTokenAmount",
          "type": "uint256"
        }
      ],
      "name": "convertPurchasingTokenDecimalsToRemovalDecimals",
      "outputs": [
        {
          "internalType": "uint256",
          "name": "",
          "type": "uint256"
        }
      ],
      "stateMutability": "view",
      "type": "function"
    },
    {
      "inputs": [
        {
          "internalType": "uint256",
          "name": "removalAmount",
          "type": "uint256"
        }
      ],
      "name": "convertRemovalDecimalsToPurchasingTokenDecimals",
      "outputs": [
        {
          "internalType": "uint256",
          "name": "",
          "type": "uint256"
        }
      ],
      "stateMutability": "view",
      "type": "function"
    },
    {
      "inputs": [],
      "name": "getActiveSuppliers",
      "outputs": [
        {
          "internalType": "address[]",
          "name": "suppliers",
          "type": "address[]"
        }
      ],
      "stateMutability": "view",
      "type": "function"
    },
    {
      "inputs": [],
      "name": "getCertificateAddress",
      "outputs": [
        {
          "internalType": "address",
          "name": "",
          "type": "address"
        }
      ],
      "stateMutability": "view",
      "type": "function"
    },
    {
      "inputs": [],
      "name": "getNoriFeePercentage",
      "outputs": [
        {
          "internalType": "uint256",
          "name": "",
          "type": "uint256"
        }
      ],
      "stateMutability": "view",
      "type": "function"
    },
    {
      "inputs": [],
      "name": "getNoriFeeWallet",
      "outputs": [
        {
          "internalType": "address",
          "name": "",
          "type": "address"
        }
      ],
      "stateMutability": "view",
      "type": "function"
    },
    {
      "inputs": [],
      "name": "getPriceMultiple",
      "outputs": [
        {
          "internalType": "uint256",
          "name": "",
          "type": "uint256"
        }
      ],
      "stateMutability": "view",
      "type": "function"
    },
    {
      "inputs": [],
      "name": "getPriorityRestrictedThreshold",
      "outputs": [
        {
          "internalType": "uint256",
          "name": "",
          "type": "uint256"
        }
      ],
      "stateMutability": "view",
      "type": "function"
    },
    {
      "inputs": [],
      "name": "getPurchasingTokenAddress",
      "outputs": [
        {
          "internalType": "address",
          "name": "",
          "type": "address"
        }
      ],
      "stateMutability": "view",
      "type": "function"
    },
    {
      "inputs": [],
      "name": "getRemovalAddress",
      "outputs": [
        {
          "internalType": "address",
          "name": "",
          "type": "address"
        }
      ],
      "stateMutability": "view",
      "type": "function"
    },
    {
      "inputs": [
        {
          "internalType": "address",
          "name": "supplier",
          "type": "address"
        }
      ],
      "name": "getRemovalIdsForSupplier",
      "outputs": [
        {
          "internalType": "uint256[]",
          "name": "removalIds",
          "type": "uint256[]"
        }
      ],
      "stateMutability": "view",
      "type": "function"
    },
    {
      "inputs": [],
      "name": "getRestrictedNoriAddress",
      "outputs": [
        {
          "internalType": "address",
          "name": "",
          "type": "address"
        }
      ],
      "stateMutability": "view",
      "type": "function"
    },
    {
      "inputs": [
        {
          "internalType": "bytes32",
          "name": "role",
          "type": "bytes32"
        }
      ],
      "name": "getRoleAdmin",
      "outputs": [
        {
          "internalType": "bytes32",
          "name": "",
          "type": "bytes32"
        }
      ],
      "stateMutability": "view",
      "type": "function"
    },
    {
      "inputs": [
        {
          "internalType": "bytes32",
          "name": "role",
          "type": "bytes32"
        },
        {
          "internalType": "uint256",
          "name": "index",
          "type": "uint256"
        }
      ],
      "name": "getRoleMember",
      "outputs": [
        {
          "internalType": "address",
          "name": "",
          "type": "address"
        }
      ],
      "stateMutability": "view",
      "type": "function"
    },
    {
      "inputs": [
        {
          "internalType": "bytes32",
          "name": "role",
          "type": "bytes32"
        }
      ],
      "name": "getRoleMemberCount",
      "outputs": [
        {
          "internalType": "uint256",
          "name": "",
          "type": "uint256"
        }
      ],
      "stateMutability": "view",
      "type": "function"
    },
    {
      "inputs": [
        {
          "internalType": "bytes32",
          "name": "role",
          "type": "bytes32"
        },
        {
          "internalType": "address",
          "name": "account",
          "type": "address"
        }
      ],
      "name": "grantRole",
      "outputs": [],
      "stateMutability": "nonpayable",
      "type": "function"
    },
    {
      "inputs": [
        {
          "internalType": "bytes32",
          "name": "role",
          "type": "bytes32"
        },
        {
          "internalType": "address",
          "name": "account",
          "type": "address"
        }
      ],
      "name": "hasRole",
      "outputs": [
        {
          "internalType": "bool",
          "name": "",
          "type": "bool"
        }
      ],
      "stateMutability": "view",
      "type": "function"
    },
    {
      "inputs": [
        {
          "internalType": "contract Removal",
          "name": "removal",
          "type": "address"
        },
        {
          "internalType": "contract IERC20WithPermit",
          "name": "purchasingToken",
          "type": "address"
        },
        {
          "internalType": "contract Certificate",
          "name": "certificate",
          "type": "address"
        },
        {
          "internalType": "contract RestrictedNORI",
          "name": "restrictedNori",
          "type": "address"
        },
        {
          "internalType": "address",
          "name": "noriFeeWalletAddress",
          "type": "address"
        },
        {
          "internalType": "uint256",
          "name": "noriFeePercentage_",
          "type": "uint256"
        },
        {
          "internalType": "uint256",
          "name": "priceMultiple_",
          "type": "uint256"
        }
      ],
      "name": "initialize",
      "outputs": [],
      "stateMutability": "nonpayable",
      "type": "function"
    },
    {
      "inputs": [
        {
          "internalType": "bytes[]",
          "name": "data",
          "type": "bytes[]"
        }
      ],
      "name": "multicall",
      "outputs": [
        {
          "internalType": "bytes[]",
          "name": "results",
          "type": "bytes[]"
        }
      ],
      "stateMutability": "nonpayable",
      "type": "function"
    },
    {
      "inputs": [
        {
          "internalType": "address",
          "name": "",
          "type": "address"
        },
        {
          "internalType": "address",
          "name": "",
          "type": "address"
        },
        {
          "internalType": "uint256[]",
          "name": "ids",
          "type": "uint256[]"
        },
        {
          "internalType": "uint256[]",
          "name": "",
          "type": "uint256[]"
        },
        {
          "internalType": "bytes",
          "name": "",
          "type": "bytes"
        }
      ],
      "name": "onERC1155BatchReceived",
      "outputs": [
        {
          "internalType": "bytes4",
          "name": "",
          "type": "bytes4"
        }
      ],
      "stateMutability": "nonpayable",
      "type": "function"
    },
    {
      "inputs": [
        {
          "internalType": "address",
          "name": "",
          "type": "address"
        },
        {
          "internalType": "address",
          "name": "",
          "type": "address"
        },
        {
          "internalType": "uint256",
          "name": "id",
          "type": "uint256"
        },
        {
          "internalType": "uint256",
          "name": "",
          "type": "uint256"
        },
        {
          "internalType": "bytes",
          "name": "",
          "type": "bytes"
        }
      ],
      "name": "onERC1155Received",
      "outputs": [
        {
          "internalType": "bytes4",
          "name": "",
          "type": "bytes4"
        }
      ],
      "stateMutability": "nonpayable",
      "type": "function"
    },
    {
      "inputs": [],
      "name": "pause",
      "outputs": [],
      "stateMutability": "nonpayable",
      "type": "function"
    },
    {
      "inputs": [],
      "name": "paused",
      "outputs": [
        {
          "internalType": "bool",
          "name": "",
          "type": "bool"
        }
      ],
      "stateMutability": "view",
      "type": "function"
    },
    {
      "inputs": [
        {
          "internalType": "contract Removal",
          "name": "removal",
          "type": "address"
        },
        {
          "internalType": "contract Certificate",
          "name": "certificate",
          "type": "address"
        },
        {
          "internalType": "contract IERC20WithPermit",
          "name": "purchasingToken",
          "type": "address"
        },
        {
          "internalType": "contract RestrictedNORI",
          "name": "restrictedNORI",
          "type": "address"
        }
      ],
      "name": "registerContractAddresses",
      "outputs": [],
      "stateMutability": "nonpayable",
      "type": "function"
    },
    {
      "inputs": [
        {
          "internalType": "uint256",
          "name": "removalId",
          "type": "uint256"
        }
      ],
      "name": "release",
      "outputs": [],
      "stateMutability": "nonpayable",
      "type": "function"
    },
    {
      "inputs": [
        {
          "internalType": "bytes32",
          "name": "role",
          "type": "bytes32"
        },
        {
          "internalType": "address",
          "name": "account",
          "type": "address"
        }
      ],
      "name": "renounceRole",
      "outputs": [],
      "stateMutability": "nonpayable",
      "type": "function"
    },
    {
      "inputs": [
        {
          "internalType": "address",
          "name": "treasury",
          "type": "address"
        },
        {
          "internalType": "uint256",
          "name": "certificateId",
          "type": "uint256"
        },
        {
          "internalType": "uint256",
          "name": "totalAmountToReplace",
          "type": "uint256"
        },
        {
          "internalType": "uint256[]",
          "name": "removalIdsBeingReplaced",
          "type": "uint256[]"
        },
        {
          "internalType": "uint256[]",
          "name": "amountsBeingReplaced",
          "type": "uint256[]"
        }
      ],
      "name": "replace",
      "outputs": [],
      "stateMutability": "nonpayable",
      "type": "function"
    },
    {
      "inputs": [
        {
          "internalType": "bytes32",
          "name": "role",
          "type": "bytes32"
        },
        {
          "internalType": "address",
          "name": "account",
          "type": "address"
        }
      ],
      "name": "revokeRole",
      "outputs": [],
      "stateMutability": "nonpayable",
      "type": "function"
    },
    {
      "inputs": [
        {
          "internalType": "uint256",
          "name": "noriFeePercentage_",
          "type": "uint256"
        }
      ],
      "name": "setNoriFeePercentage",
      "outputs": [],
      "stateMutability": "nonpayable",
      "type": "function"
    },
    {
      "inputs": [
        {
          "internalType": "address",
          "name": "noriFeeWalletAddress",
          "type": "address"
        }
      ],
      "name": "setNoriFeeWallet",
      "outputs": [],
      "stateMutability": "nonpayable",
      "type": "function"
    },
    {
      "inputs": [
        {
          "internalType": "uint256",
          "name": "threshold",
          "type": "uint256"
        }
      ],
      "name": "setPriorityRestrictedThreshold",
      "outputs": [],
      "stateMutability": "nonpayable",
      "type": "function"
    },
    {
      "inputs": [
        {
          "internalType": "contract IERC20WithPermit",
          "name": "purchasingToken",
          "type": "address"
        },
        {
          "internalType": "uint256",
          "name": "priceMultiple",
          "type": "uint256"
        }
      ],
      "name": "setPurchasingTokenAndPriceMultiple",
      "outputs": [],
      "stateMutability": "nonpayable",
      "type": "function"
    },
    {
      "inputs": [
        {
          "internalType": "bytes4",
          "name": "interfaceId",
          "type": "bytes4"
        }
      ],
      "name": "supportsInterface",
      "outputs": [
        {
          "internalType": "bool",
          "name": "",
          "type": "bool"
        }
      ],
      "stateMutability": "view",
      "type": "function"
    },
    {
      "inputs": [
        {
          "internalType": "address",
          "name": "recipient",
          "type": "address"
        },
        {
          "internalType": "uint256",
          "name": "amount",
          "type": "uint256"
        },
        {
          "internalType": "uint256",
          "name": "deadline",
          "type": "uint256"
        },
        {
          "internalType": "uint8",
          "name": "v",
          "type": "uint8"
        },
        {
          "internalType": "bytes32",
          "name": "r",
          "type": "bytes32"
        },
        {
          "internalType": "bytes32",
          "name": "s",
          "type": "bytes32"
        }
      ],
      "name": "swap",
      "outputs": [],
      "stateMutability": "nonpayable",
      "type": "function"
    },
    {
      "inputs": [
        {
          "internalType": "address",
          "name": "recipient",
          "type": "address"
        },
        {
          "internalType": "uint256",
          "name": "amount",
          "type": "uint256"
        }
      ],
      "name": "swap",
      "outputs": [],
      "stateMutability": "nonpayable",
      "type": "function"
    },
    {
      "inputs": [
        {
          "internalType": "address",
          "name": "recipient",
          "type": "address"
        },
        {
          "internalType": "address",
          "name": "purchaser",
          "type": "address"
        },
        {
          "internalType": "uint256",
          "name": "amount",
          "type": "uint256"
        },
        {
          "internalType": "uint256",
          "name": "customFee",
          "type": "uint256"
        },
        {
          "internalType": "uint256",
          "name": "customPriceMultiple",
          "type": "uint256"
        },
        {
          "internalType": "address",
          "name": "supplier",
          "type": "address"
        },
        {
          "internalType": "uint256[]",
          "name": "vintages",
          "type": "uint256[]"
        }
      ],
      "name": "swapWithoutFeeSpecialOrder",
      "outputs": [],
      "stateMutability": "nonpayable",
      "type": "function"
    },
    {
      "inputs": [],
      "name": "unpause",
      "outputs": [],
      "stateMutability": "nonpayable",
      "type": "function"
    },
    {
      "inputs": [
        {
          "internalType": "uint256",
          "name": "removalId",
          "type": "uint256"
        }
      ],
      "name": "withdraw",
      "outputs": [],
      "stateMutability": "nonpayable",
      "type": "function"
    }
  ],
  "numDeployments": 7,
  "bytecode": "0x60808060405234620000c6576000549060ff8260081c1662000074575060ff8082161062000038575b604051615e369081620000cc8239f35b60ff90811916176000557f7f26b83ff96e1f2b6a682f133852f6798a09c465da95921460cefb3847402498602060405160ff8152a13862000028565b62461bcd60e51b815260206004820152602760248201527f496e697469616c697a61626c653a20636f6e747261637420697320696e697469604482015266616c697a696e6760c81b6064820152608490fd5b600080fdfe60806040526004361015610013575b600080fd5b60003560e01c806301ffc9a7146103d357806302e0affa146103ca5780631ce08c0b146103c1578063248a9ca3146103b857806325fbff7a146103af5780632c9fcbd7146103a65780632e1a7d4d1461039d5780632f2ff15d14610394578063327860491461038b57806336568abe1461038257806337bdc99b146103795780633f4ba83a146103705780634b66f66514610367578063596abe941461035e5780635c975abb14610355578063652b05251461034c5780636cf250e21461034357806375ccff411461033a5780637f49f738146103315780638456cb591461032857806384e043221461031f57806385d3d64b146103165780638c6b8d981461030d5780638d73f9ef146103045780639010d07c146102fb57806391d14854146102f25780639b7d4af5146102e95780639d1fbcf5146102e0578063a12d6874146102d7578063a217fddf146102ce578063a5758566146102c5578063a8f881c0146102bc578063ac9650d8146102b3578063b33f9527146102aa578063b9054257146102a1578063bc197c8114610298578063c0c7028c1461028f578063ca15c87314610286578063ce0ec4741461027d578063d004f0f714610274578063d547741f1461026b578063d6f0d39f14610262578063d797462f14610259578063dfa4bb0f14610250578063e63ab1e914610247578063e7f78c721461023e578063f23a6e61146102355763f9c285281461022d57600080fd5b61000e612352565b5061000e6122cc565b5061000e6122a3565b5061000e612267565b5061000e6121ce565b5061000e612178565b5061000e61213c565b5061000e61204f565b5061000e611fc9565b5061000e611eda565b5061000e611ea2565b5061000e611e00565b5061000e611d41565b5061000e611cf3565b5061000e611bc6565b5061000e611af6565b5061000e611a2c565b5061000e61192a565b5061000e61190d565b5061000e6117db565b5061000e6117bc565b5061000e611780565b5061000e611728565b5061000e6116e1565b5061000e6116a5565b5061000e61136b565b5061000e6111d1565b5061000e611190565b5061000e611135565b5061000e61110c565b5061000e611082565b5061000e611062565b5061000e610ea6565b5061000e610e51565b5061000e610cd6565b5061000e610c69565b5061000e610bcb565b5061000e610afb565b5061000e6109af565b5061000e61093e565b5061000e610837565b5061000e6106dd565b5061000e6106b4565b5061000e6105af565b5061000e610526565b5061000e6104ff565b5061000e610444565b503461000e57602036600319011261000e5760043563ffffffff60e01b811680910361000e57602090635a05180f60e01b8114908115610419575b506040519015158152f35b637965db0b60e01b811491508115610433575b503861040e565b6301ffc9a760e01b1490503861042c565b503461000e57602036600319011261000e576104b36104a3604051639d1fbcf560e01b81526004356004820152602081602481305afa9081156104f2575b6000916104c4575b506101315490816064029160648304036104b757613653565b6040519081529081906020820190565b0390f35b6104bf61273a565b613653565b6104e5915060203d81116104eb575b6104dd818361126a565b81019061349d565b3861048a565b503d6104d3565b6104fa6134ac565b610482565b503461000e57602036600319011261000e57602061051e6004356137dc565b604051908152f35b503461000e57602036600319011261000e5760043560005260976020526020600160406000200154604051908152f35b6001600160a01b0381160361000e57565b90815180825260208080930193019160005b828110610587575050505090565b835185529381019392810192600101610579565b9060206105ac928181520190610567565b90565b503461000e5760208060031936011261000e57600435906105cf82610556565b6001600160a01b03600092168252610137815260408083209260028401549080948190600196878201549081975b8683111561068457506106109150613910565b955b84811115610627578551806104b3898261059b565b8661063c828490600052602052604060002090565b8054908a875b83811061065c57505050505061065790612751565b610612565b8293949761067861066e838596612d91565b918481019a612832565b5201908a939291610642565b9061069c6106a2918488528584528988205490612a0b565b92612751565b91906105fd565b600091031261000e57565b503461000e57600036600319011261000e5760206001600160a01b0361012f5416604051908152f35b503461000e57602036600319011261000e576004356106fa612da5565b6001600160a01b038160201c1661071081614cbd565b156108255761071f8183614b75565b61074161073561012d546001600160a01b031690565b6001600160a01b031690565b604051627eeac760e11b81523060048201526024810184905290602082604481845afa918215610818575b6000926107f8575b50803b1561000e57604051637921219560e11b81523060048201526001600160a01b039390931660248401526044830193909352606482015260a06084820152600060a482018190529091829060c490829084905af180156107eb575b6107d8575b005b806107e56107d692611211565b806106a9565b6107f36134ac565b6107d1565b61081191925060203d81116104eb576104dd818361126a565b9038610774565b6108206134ac565b61076c565b6040516360b39bc560e01b8152600490fd5b503461000e57604036600319011261000e576004356108c760243561085b81610556565b6108c260009380855260976020526108796001604087200154612659565b610881612da5565b808552609760205260ff6108ab8460408820906001600160a01b0316600052602052604060002090565b5416156108cb5760005260c9602052604060002090565b613086565b5080f35b80855260976020526108f38360408720906001600160a01b0316600052602052604060002090565b805460ff19166001179055336001600160a01b038416827f2f8788117e7eff1d82e926ec794901d17c78024a50270940304540a733656f0d8880a460005260c9602052604060002090565b503461000e57602036600319011261000e5760043561095b6123f0565b610963612da5565b6064811161099d576020817fb9768ed0b3c8d7421842f14094358b08617bad6081b469cd89de35a8d46678589261013355604051908152a1005b60405163edb7340760e01b8152600490fd5b503461000e57604036600319011261000e576024356004356109d082610556565b6001600160a01b03821691338303610a90576108c7916109ee612da5565b600093818552609760205260ff610a1b8460408820906001600160a01b0316600052602052604060002090565b5416610a33575b50835260c96020526040832061313e565b8185526097602052610a5b8360408720906001600160a01b0316600052602052604060002090565b805460ff191690553390827ff6391f5c32d9c69d2a47ea670b442974b53935d1edc7fd64eb21e047a839171b8780a438610a22565b60405162461bcd60e51b815260206004820152602f60248201527f416363657373436f6e74726f6c3a2063616e206f6e6c792072656e6f756e636560448201527f20726f6c657320666f722073656c6600000000000000000000000000000000006064820152608490fd5b503461000e57602036600319011261000e57600435610b18612da5565b610b2e61073561012d546001600160a01b031690565b906001600160a01b03918281163303610bb957604051627eeac760e11b81523060048201526024810183905290602090829060449082905afa908115610bac575b600091610b8e575b5015610b7f57005b6107d6918160201c1690614b75565b610ba6915060203d81116104eb576104dd818361126a565b38610b77565b610bb46134ac565b610b6f565b604051639a5ed74b60e01b8152600490fd5b503461000e57600036600319011261000e57610be56124da565b60335460ff811615610c245760ff19166033557f5db9ee0a495bf2e6ff9c91a7834c1ba4fdd244a5e8aa4e537bd38aeae4b073aa6020604051338152a1005b60405162461bcd60e51b815260206004820152601460248201527f5061757361626c653a206e6f74207061757365640000000000000000000000006044820152606490fd5b503461000e57600036600319011261000e5760206001600160a01b0361012d5416604051908152f35b6020908160408183019282815285518094520193019160005b828110610cb9575050505090565b83516001600160a01b031685529381019392810192600101610cab565b503461000e57600036600319011261000e576000610cfd610135546001600160a01b031690565b906001600160a01b03600181610d3982610d2b876001600160a01b0316600052610136602052604060002090565b01546001600160a01b031690565b16610de5575b5050610d4a81613910565b91610d71610d6c826001600160a01b0316600052610136602052604060002090565b613942565b6000915b838310610d8a57604051806104b38782610c92565b610dba91610dac602092610d9e8689612832565b906001600160a01b03169052565b01516001600160a01b031690565b610dde61069c610d6c836001600160a01b0316600052610136602052604060002090565b9190610d75565b80925091610e0b81610d2b866001600160a01b0316600052610136602052604060002090565b828516905b8184821603610e20575050610d3f565b61069c83610d2b610e4993979596976001600160a01b0316600052610136602052604060002090565b939291610e10565b503461000e57600036600319011261000e57602060ff603354166040519015158152f35b9181601f8401121561000e5782359167ffffffffffffffff831161000e576020808501948460051b01011161000e57565b503461000e5760e036600319011261000e57600435610ec481610556565b60243590610ed182610556565b60a43590604435610ee183610556565b60c4359367ffffffffffffffff851161000e57610fed610ff793610f0c6107d6973690600401610e75565b96610f15612da5565b610f1d6123f0565b610131978854986084359055610f3287614bdf565b610f3a6148f6565b50610f436148f6565b508061103b575090506001600160a01b0381166110285750610fa360046020610f7861073561012d546001600160a01b031690565b604051630964eec760e41b815292839182905afa90811561101b575b600091610ffd575b5085614e1d565b610fdd610faf85614e36565b935b610fb961128c565b95600087526064356020880152604087015260608601906001600160a01b03169052565b6001600160a01b03166080840152565b60a0820152614785565b61013155565b611015915060203d81116104eb576104dd818361126a565b38610f9c565b6110236134ac565b610f94565b611035610fdd9186615130565b93610fb1565b610fdd926001600160a01b03831661105857611035925087615393565b6110359288615698565b503461000e57600036600319011261000e57602061013354604051908152f35b503461000e57604036600319011261000e5760206110ae6004356110a581614bdf565b602435906136dd565b60405190631ce08c0b60e01b825260048201528181602481305afa9081156110ff575b6000916110e2575b50604051908152f35b6110f99150823d81116104eb576104dd818361126a565b386110d9565b6111076134ac565b6110d1565b503461000e57600036600319011261000e5760206001600160a01b036101325416604051908152f35b503461000e57600036600319011261000e5761114f6124da565b611157612da5565b600160ff1960335416176033557f62e78cea01bee320cd4e420270b5ea74000d11b0c9f74754ebdbfc544b05a2586020604051338152a1005b503461000e57604036600319011261000e576111c66004356111b181610556565b6111b9612da5565b6111c16123f0565b61398b565b6107d6602435613a8a565b503461000e57600036600319011261000e5760206001600160a01b036101305416604051908152f35b50634e487b7160e01b600052604160045260246000fd5b67ffffffffffffffff811161122557604052565b61122d6111fa565b604052565b60c0810190811067ffffffffffffffff82111761122557604052565b6020810190811067ffffffffffffffff82111761122557604052565b90601f8019910116810190811067ffffffffffffffff82111761122557604052565b6040519061129982611232565b565b604051906080820182811067ffffffffffffffff82111761122557604052565b604051906040820182811067ffffffffffffffff82111761122557604052565b60209067ffffffffffffffff81116112f5575b60051b0190565b6112fd6111fa565b6112ee565b929161130d826112db565b9161131b604051938461126a565b829481845260208094019160051b810192831161000e57905b8282106113415750505050565b81358152908301908301611334565b9080601f8301121561000e578160206105ac93359101611302565b503461000e5760a036600319011261000e57600480359061138b82610556565b6024359067ffffffffffffffff9060443560643583811161000e576113b39036908401611350565b9260843590811161000e576113cb9036908401611350565b926113d4612da5565b6113dc6123f0565b61012e906113f461073583546001600160a01b031690565b9460409182519663d2f3ea4360e01b885260209788818061141c8d8c83019190602083019252565b0381855afa908115611698575b60009161167b575b501561165c57878791855192838092630dd39c7560e41b82525afa90811561164f575b600091611632575b5085116116225761012d6114a9878961147f61073585546001600160a01b031690565b8751630964eec760e41b815292839182905afa908115611615575b6000916115f8575b5087614e1d565b6114b286614e36565b9988848c80519283910151906114c79161355a565b8d83829f8a0151906114d89161355a565b9a8b93846114e592614da1565b60600151926114f394613b03565b546001600160a01b03166001600160a01b031693546001600160a01b03166001600160a01b031683518098810161152d6001602083019252565b03601f198101895261153f908961126a565b843b1561000e5760008a6115d3968893836001600160a01b039b61159a7f40a27cbb002b48214250b00c6c1b15ff8276b363217ca42c7b1720bcf269a76c9e8b5198899788968795631759616b60e11b8752309087016134b9565b03925af180156115eb575b6115d8575b506115c161073561012f546001600160a01b031690565b94610131549351968796169986613508565b0390a3005b806107e56115e592611211565b386115aa565b6115f36134ac565b6115a5565b61160f91508a3d8c116104eb576104dd818361126a565b386114a2565b61161d6134ac565b61149a565b825163b106efdf60e01b81528690fd5b6116499150883d8a116104eb576104dd818361126a565b3861145c565b6116576134ac565b611454565b8351630165035b60e71b81528088018a815281906020010390fd5b0390fd5b6116929150893d8b116104eb576104dd818361126a565b38611431565b6116a06134ac565b611429565b503461000e57600036600319011261000e5760206040517f42608067b0bf67dbb5cd52cbd32a7797b31a5a621ecdc484ee82e05952de64638152f35b503461000e57604036600319011261000e5760043560005260c960205260206001600160a01b036117186024356040600020612d6b565b9190546040519260031b1c168152f35b503461000e57604036600319011261000e57602060ff61177460243561174d81610556565b600435600052609784526040600020906001600160a01b0316600052602052604060002090565b54166040519015158152f35b503461000e57600036600319011261000e5760206040517fa41464e222c873935a35e8d3fd7cd44e0e6847c2388d0873d52cbaebdcb51b8b8152f35b503461000e57602036600319011261000e57602061051e600435613877565b503461000e57608036600319011261000e577f99ad00cf49121d7da2a94fdef5f9ef6c736c933295dcb1cfdfc509905fd89f3160043561181a81610556565b60243561182681610556565b6119086118cf6118c16118c16044359561183f87610556565b6118b460643561184e81610556565b61185661252f565b61185e612da5565b6001600160a01b036001600160a01b0319908061012d9516828654161785558061012e9a16828b5416178a5561012f9a16908a54161789556001600160a01b0361013091166001600160a01b0319825416179055565b546001600160a01b031690565b93546001600160a01b031690565b61013054604080516001600160a01b03958616815295851660208701529184169185019190915291909116606083015281906080820190565b0390a1005b503461000e57600036600319011261000e57602060405160008152f35b503461000e5760208060031936011261000e576104a36104b39160043561195081614bdf565b611981828061196261013154856136dd565b60405180948192631ce08c0b60e01b8352600483019190602083019252565b0381305afa918215611a1f575b6000926119fe575b5060405163dfa4bb0f60e01b815260048101939093529091908180602481015b0381305afa9283156119f1575b6000936119d2575b5050612a0b565b6119e9929350803d106104eb576104dd818361126a565b9038806119cb565b6119f96134ac565b6119c3565b6119b69250611a1990823d84116104eb576104dd818361126a565b91611996565b611a276134ac565b61198e565b503461000e57600036600319011261000e57602061013154604051908152f35b60005b838110611a5f5750506000910152565b8181015183820152602001611a4f565b90602091611a8881518092818552858086019101611a4c565b601f01601f1916010190565b602080820190808352835180925260408301928160408460051b8301019501936000915b848310611ac85750505050505090565b9091929394958480611ae6600193603f198682030187528a51611a6f565b9801930193019194939290611ab8565b503461000e5760208060031936011261000e5760043567ffffffffffffffff811161000e57611b29903690600401610e75565b611b32816112db565b92611b40604051948561126a565b818452601f19611b4f836112db565b0160005b818110611bb75750505060005b818110611b7557604051806104b38682611a94565b80611b97611b91611b8a611bb2948688612780565b36916127fb565b306128d2565b611ba18287612832565b52611bac8186612832565b50612751565b611b60565b60608682018401528201611b53565b503461000e5760e036600319011261000e57600435611be481610556565b611c63602435611bf381610556565b60443592611c0084610556565b606435611c0c81610556565b60843590611c1982610556565b60005495611c3e60ff8860081c161580988199611ce5575b8115611cc5575b50613279565b86611c51600160ff196000541617600055565b611cac575b60c4359460a435946132eb565b611c6957005b611c7961ff001960005416600055565b604051600181527f7f26b83ff96e1f2b6a682f133852f6798a09c465da95921460cefb3847402498908060208101611908565b611cc061010061ff00196000541617600055565b611c56565b303b15915081611cd7575b5038611c38565b6001915060ff161438611cd0565b600160ff8216109150611c31565b503461000e57600036600319011261000e57602061013454604051908152f35b9181601f8401121561000e5782359167ffffffffffffffff831161000e576020838186019501011161000e57565b503461000e5760a036600319011261000e57611d5e600435610556565b611d69602435610556565b67ffffffffffffffff60443581811161000e57611d8a903690600401610e75565b60649291923582811161000e57611da5903690600401610e75565b505060843591821161000e576104b392611dc6611dcd933690600401611d13565b505061357e565b6040517fffffffff0000000000000000000000000000000000000000000000000000000090911681529081906020820190565b503461000e57602036600319011261000e576104b36104a3604051639d1fbcf560e01b81526004356004820152602081602481305afa908115611e95575b600091611e77575b50611e646101335460640180606411611e6a575b61013154906129d4565b90613653565b611e7261273a565b611e5a565b611e8f915060203d81116104eb576104dd818361126a565b38611e46565b611e9d6134ac565b611e3e565b503461000e57602036600319011261000e5760043560005260c96020526020604060002054604051908152f35b60ff81160361000e57565b503461000e5760c036600319011261000e576107d6600435611efb81610556565b60243590610fed60643591611f0f83611ecf565b611f17612da5565b611f1f612604565b611f2884614bdf565b611f77611f348561493a565b6040516352bac2b360e11b815260048101879052909490602081602481305afa908115611fbc575b600091611f9e575b5060a43591608435916044359033614a13565b6101335493611f8461128c565b600181529460208601526040850152336060850152610fdd565b611fb6915060203d81116104eb576104dd818361126a565b38611f64565b611fc46134ac565b611f5c565b503461000e57604036600319011261000e576107d6600435611fea81610556565b60243590611ff6612da5565b611ffe612604565b61200782614bdf565b6001600160a01b036120188361493a565b9161013354936040519461202b86611232565b600186526020860152604085015233606085015216608083015260a0820152614785565b503461000e57604036600319011261000e576004356108c760243561207381610556565b600092808452609760205261208e6001604086200154612659565b612096612da5565b808452609760205260ff6120c08360408720906001600160a01b0316600052602052604060002090565b54166120d7575b835260c96020526040832061313e565b80845260976020526120ff8260408620906001600160a01b0316600052602052604060002090565b805460ff19169055336001600160a01b038316827ff6391f5c32d9c69d2a47ea670b442974b53935d1edc7fd64eb21e047a839171b8780a46120c7565b503461000e57600036600319011261000e5760206040517f3fb0aaa9e8051cfc6c234a5d843bed33910f70c647055f27247c10144c7552e18152f35b503461000e57602036600319011261000e577fa01a3b548ccd65893a6acee4ea0da2602fbd2aef7e3040483b026d9544d8074c60206004356121b8612da5565b6121c06123f0565b8061013455604051908152a1005b503461000e57602036600319011261000e576104b36121ff6121f76101315461013354906129d4565b600435613743565b60405190631ce08c0b60e01b82526004820152602081602481305afa90811561225a575b60009161223c575b506040519081529081906020820190565b612254915060203d81116104eb576104dd818361126a565b3861222b565b6122626134ac565b612223565b503461000e57600036600319011261000e5760206040517f65d7a28e3265b37a6474929f336521b332c1681b933f6cb9f3376673440d862a8152f35b503461000e57600036600319011261000e5760206001600160a01b0361012e5416604051908152f35b503461000e5760a036600319011261000e576122e9600435610556565b6122f4602435610556565b60843567ffffffffffffffff811161000e57612314903690600401611d13565b505061231e612da5565b6123356001600160a01b0361012d541633146135d3565b612340604435614a7e565b60405163f23a6e6160e01b8152602090f35b503461000e57602036600319011261000e576001600160a01b0360043561237881610556565b6123806123f0565b612388612da5565b1680156123cf5760207fe846164b6756d387276a93f2200cfd28f5792fffe3530e65d95d7535cd43dab491610132816001600160a01b0319825416179055604051908152a1005b604051632de6d64560e21b8152600490fd5b90600052602052604060002090565b3360009081527fb34b648d285118a9ee5f8cc4675698367f99ed092c20555b8b9380d41d2fafb5602052604090205460ff161561242957565b61167760486124c261243a33612afe565b6124b4612445612b9b565b6040519485937f416363657373436f6e74726f6c3a206163636f756e74200000000000000000006020860152612485815180926020603789019101611a4c565b84017f206973206d697373696e6720726f6c652000000000000000000000000000000060378201520190612712565b03601f19810183528261126a565b60405162461bcd60e51b815291829160048301612729565b3360009081527f793844da0378ca0230b21a4013ef02cf55735b90b39c85241478ff94b5eceb28602052604090205460ff161561251357565b61167760486124c261252433612afe565b6124b4612445612c2a565b3360009081527f683723e34a772b6e4f2c919bba7fa32ed8ea11a8325f54da7db716e9d9dd98c7602052604090205460ff161561256857565b61257133612afe565b600061257b612a18565b90603061258783612a52565b53607861259383612a68565b5360415b600181116125b65761167760486124c2866124b4876124458815612ab3565b90806f181899199a1a9b1b9c1cb0b131b232b360811b600f6125f2931660108110156125f7575b1a6125e88486612a79565b5360041c91612a98565b612597565b6125ff612769565b6125dd565b3360009081527f023d1dfe360df7b21961cef7fff4938a9828ddbe51fae255e431bd158b76ae3b602052604090205460ff161561263d57565b61167760486124c261264e33612afe565b6124b4612445612cb9565b80600052609760205260ff612685336040600020906001600160a01b0316600052602052604060002090565b54161561268f5750565b61269833612afe565b906126a1612a18565b9060306126ad83612a52565b5360786126b983612a68565b5360415b600181116126dc5761167760486124c2866124b4876124458815612ab3565b90806f181899199a1a9b1b9c1cb0b131b232b360811b600f61270d931660108110156125f7571a6125e88486612a79565b6126bd565b9061272560209282815194859201611a4c565b0190565b9060206105ac928181520190611a6f565b50634e487b7160e01b600052601160045260246000fd5b6001906000198114612761570190565b61272561273a565b50634e487b7160e01b600052603260045260246000fd5b91908110156127c3575b60051b81013590601e198136030182121561000e57019081359167ffffffffffffffff831161000e57602001823603811361000e579190565b6127cb612769565b61278a565b60209067ffffffffffffffff81116127ee575b601f01601f19160190565b6127f66111fa565b6127e3565b929192612807826127d0565b91612815604051938461126a565b82948184528183011161000e578281602093846000960137010152565b6020918151811015612847575b60051b010190565b61284f612769565b61283f565b604051906060820182811067ffffffffffffffff8211176128c5575b604052602782527f206661696c6564000000000000000000000000000000000000000000000000006040837f416464726573733a206c6f772d6c6576656c2064656c65676174652063616c6c60208201520152565b6128cd6111fa565b612870565b90813b15612929576000816105ac9360208394519201905af43d15612922573d6128fb816127d0565b90612909604051928361126a565b81523d6000602083013e5b61291c612854565b91612994565b6060612914565b60405162461bcd60e51b815260206004820152602660248201527f416464726573733a2064656c65676174652063616c6c20746f206e6f6e2d636f60448201527f6e747261637400000000000000000000000000000000000000000000000000006064820152608490fd5b909190156129a0575090565b8151156129b05750805190602001fd5b60405162461bcd60e51b815260206004820152908190611677906024830190611a6f565b818102929181159184041417156129e757565b61129961273a565b90600282018092116129e757565b90600182018092116129e757565b919082018092116129e757565b604051906080820182811067ffffffffffffffff821117612a45575b604052604282526060366020840137565b612a4d6111fa565b612a34565b602090805115612a60570190565b612725612769565b602190805160011015612a60570190565b906020918051821015612a8b57010190565b612a93612769565b010190565b8015612aa6575b6000190190565b612aae61273a565b612a9f565b15612aba57565b606460405162461bcd60e51b815260206004820152602060248201527f537472696e67733a20686578206c656e67746820696e73756666696369656e746044820152fd5b604051906060820182811067ffffffffffffffff821117612b8e575b604052602a825260403660208401376030612b3483612a52565b536078612b4083612a68565b536029905b60018211612b58576105ac915015612ab3565b806f181899199a1a9b1b9c1cb0b131b232b360811b600f612b88931660108110156125f7571a6125e88486612a79565b90612b45565b612b966111fa565b612b1a565b7f3fb0aaa9e8051cfc6c234a5d843bed33910f70c647055f27247c10144c7552e1612bc4612a18565b906030612bd083612a52565b536078612bdc83612a68565b536041905b60018211612bf4576105ac915015612ab3565b806f181899199a1a9b1b9c1cb0b131b232b360811b600f612c24931660108110156125f7571a6125e88486612a79565b90612be1565b7f65d7a28e3265b37a6474929f336521b332c1681b933f6cb9f3376673440d862a612c53612a18565b906030612c5f83612a52565b536078612c6b83612a68565b536041905b60018211612c83576105ac915015612ab3565b806f181899199a1a9b1b9c1cb0b131b232b360811b600f612cb3931660108110156125f7571a6125e88486612a79565b90612c70565b7f42608067b0bf67dbb5cd52cbd32a7797b31a5a621ecdc484ee82e05952de6463612ce2612a18565b906030612cee83612a52565b536078612cfa83612a68565b536041905b60018211612d12576105ac915015612ab3565b806f181899199a1a9b1b9c1cb0b131b232b360811b600f612d42931660108110156125f7571a6125e88486612a79565b90612cff565b805415612d5e575b600052602060002090600090565b612d66612769565b612d50565b8054821015612d84575b60005260206000200190600090565b612d8c612769565b612d75565b90612d9b91612d6b565b90549060031b1c90565b60ff60335416612db157565b60405162461bcd60e51b815260206004820152601060248201527f5061757361626c653a20706175736564000000000000000000000000000000006044820152606490fd5b612e5990612e02612da5565b6001600160a01b0381811660009081527f683723e34a772b6e4f2c919bba7fa32ed8ea11a8325f54da7db716e9d9dd98c760205260408082205490919060ff1615612e5c575b80805260c9602052209116906130b9565b50565b8080526097602052612e8384838320906001600160a01b0316600052602052604060002090565b805460ff1916600117905533848416827f2f8788117e7eff1d82e926ec794901d17c78024a50270940304540a733656f0d8180a4612e48565b612e5990612ec8612da5565b6001600160a01b0381811660009081527f0e0ee6959fd583d0bdb8c46ba6cdbcd38e0eb4ccd036d927cdf9c104046b2eef60205260408082209091907fa41464e222c873935a35e8d3fd7cd44e0e6847c2388d0873d52cbaebdcb51b8b9060ff905b541615612f42575b815260c9602052209116906130b9565b8082526097602052612f6985848420906001600160a01b0316600052602052604060002090565b805460ff1916600117905533858516827f2f8788117e7eff1d82e926ec794901d17c78024a50270940304540a733656f0d8580a4612f32565b612e5990612fae612da5565b6001600160a01b0381811660009081527f023d1dfe360df7b21961cef7fff4938a9828ddbe51fae255e431bd158b76ae3b60205260408082209091907f42608067b0bf67dbb5cd52cbd32a7797b31a5a621ecdc484ee82e05952de64639060ff90612f2a565b612e5990613020612da5565b6001600160a01b0381811660009081527fb34b648d285118a9ee5f8cc4675698367f99ed092c20555b8b9380d41d2fafb560205260408082209091907f3fb0aaa9e8051cfc6c234a5d843bed33910f70c647055f27247c10144c7552e19060ff90612f2a565b6001600160a01b036105ac9216906130b9565b916130b59183549060031b600019811b9283911b169119161790565b9055565b600181019082600052816020526040600020541560001461313657826131146130fb835468010000000000000000811015613129575b60018101855584612d6b565b819391549060031b600019811b9283911b169119161790565b90555491600052602052604060002055600190565b6131316111fa565b6130ef565b505050600090565b6001600160a01b036105ac9216906131bb565b60120390601282116129e757565b6000198101919082116129e757565b919082039182116129e757565b80549081156131a557600019918201916131958383612d6b565b909182549160031b1b1916905555565b634e487b7160e01b600052603160045260246000fd5b6001810191806000528260205260406000205492831515600014613270576123e161320d936000958619808201828111613263575b8354918201918211613256575b808203613213575b50505061317b565b55600190565b61323d6132379161322761324d9487612d6b565b90549060031b1c92839187612d6b565b90613099565b8590600052602052604060002090565b55388080613205565b61325e61273a565b6131fd565b61326b61273a565b6131f0565b50505050600090565b1561328057565b60405162461bcd60e51b815260206004820152602e60248201527f496e697469616c697a61626c653a20636f6e747261637420697320616c72656160448201527f647920696e697469616c697a65640000000000000000000000000000000000006064820152608490fd5b959491939092936001600160a01b0392838316156123cf576133ac6133f19661338e6133b2946133f69b6133d09861332161348c565b61332961348c565b61333a60ff60005460081c1661341a565b60ff196033541660335561334c61348c565b61335461348c565b61335c61348c565b61012d91166001600160a01b03198254161790556001600160a01b0361012e91166001600160a01b0319825416179055565b6001600160a01b0361013091166001600160a01b0319825416179055565b61013355565b6001600160a01b0361013291166001600160a01b0319825416179055565b6133db600061013455565b6111c16101356001600160a01b03198154169055565b613a8a565b6133ff33612df6565b61340833612ebc565b61341133612fa2565b61129933613014565b1561342157565b60405162461bcd60e51b815260206004820152602b60248201527f496e697469616c697a61626c653a20636f6e7472616374206973206e6f74206960448201527f6e697469616c697a696e670000000000000000000000000000000000000000006064820152608490fd5b61129960ff60005460081c1661341a565b9081602091031261000e575190565b506040513d6000823e3d90fd5b93906105ac95936134ec916134fa946001600160a01b03809216885216602087015260a0604087015260a0860190610567565b908482036060860152610567565b916080818403910152611a6f565b959493906080936135396135559461352b6135479460a08c5260a08c0190610567565b908a820360208c0152610567565b9088820360408a0152610567565b908682036060880152610567565b930152565b908151811161356857815290565b634e487b7160e01b600052600160045260246000fd5b613586612da5565b61359d6001600160a01b0361012d541633146135d3565b60005b8281106135b6575063bc197c8160e01b92915050565b806135c96135ce9260051b840135614a7e565b612751565b6135a0565b156135da57565b60405162461bcd60e51b815260206004820152601a60248201527f4d61726b65743a2053656e646572206e6f742052656d6f76616c0000000000006044820152606490fd5b50634e487b7160e01b600052601260045260246000fd5b8115613640570490565b61364861361f565b0490565b1561000e57565b6127109160001983830992808302928380861095039480860395146136d05790829161368086841161364c565b096001821901821680920460028082600302188083028203028083028203028083028203028083028203028083028203028092029003029360018380600003040190848311900302920304170290565b5050906105ac9250613636565b6000198282098282029182808310920391808303921461373957816064111561000e577f5c28f5c28f5c28f5c28f5c28f5c28f5c28f5c28f5c28f5c28f5c28f5c28f5c29936064910990828211900360fe1b910360021c170290565b5050606491500490565b90600019818309818302918280831092039180830392146137a057612710908282111561000e577fbc01a36e2eb1c432ca57a786c226809d495182a9930be0ded288ce703afb7e91940990828211900360fc1b910360041c170290565b505061271091500490565b9081602091031261000e57516105ac81611ecf565b604d81116137cf575b600a0a90565b6137d761273a565b6137c9565b60ff600460206001600160a01b0361012f54166040519283809263313ce56760e01b82525afa90811561386a575b60009161383c575b5016601281146138385761382861382d91613151565b6137c0565b908115613640570490565b5090565b61385d915060203d8111613863575b613855818361126a565b8101906137ab565b38613812565b503d61384b565b6138726134ac565b61380a565b60ff600460206001600160a01b0361012f54166040519283809263313ce56760e01b82525afa9081156138eb575b6000916138cd575b50166012811461383857906138c76138286105ac93613151565b906129d4565b6138e5915060203d811161386357613855818361126a565b386138ad565b6138f36134ac565b6138a5565b6040516139048161124e565b60008152906000368137565b9061391a826112db565b613927604051918261126a565b8281528092613938601f19916112db565b0190602036910137565b906040516040810181811067ffffffffffffffff82111761397e575b6040526020819360016001600160a01b0391828154168552015416910152565b6139866111fa565b61395e565b60405163313ce56760e01b81526020816004816001600160a01b0386165afa908115613a7d575b600091613a5f575b5060ff811660128111908115613a54575b50613a375750613a3281613a187f94e2ca3c006ff5152db658db7f198e3606e0c8584958dbb13538cdd9b30ccb72936001600160a01b0361012f91166001600160a01b0319825416179055565b6040516001600160a01b0390911681529081906020820190565b0390a1565b6040516304a68c5760e11b815260ff919091166004820152602490fd5b6006915010386139cb565b613a77915060203d811161386357613855818361126a565b386139ba565b613a856134ac565b6139b2565b60648110613ac4576020817f36a09eaea278b547d70faf65508009f5a7d32dfd33d27131e792f7e78bb421589261013155604051908152a1565b60405163b7b3e22f60e01b8152600490fd5b9081602091031261000e57516105ac81610556565b9081602091031261000e5751801515810361000e5790565b919293909360005b858110613b1a57505050505050565b613b3061073561012d546001600160a01b031690565b613b65613b3d8388612832565b51916040928351809263b776d33360e01b825281806020968795600483019190602083019252565b03915afa90811561413a575b60009161411d575b5081613b858587612832565b51613b946101315480926136dd565b8551631ce08c0b60e01b80825260048201929092529093908381602481305afa908115614110575b6000916140f3575b50809260ff8316898b82613cbf575b505050505050613c4b9250613bf461073561012f546001600160a01b031690565b613c0e613c01888b612832565b516001600160a01b031690565b60008b8851968795869485936323b872dd60e01b8552600485016040919493929460608201956001600160a01b0380921683521660208201520152565b03925af1918215613cb2575b600092613c85575b505015613c755750613c7090612751565b613b0b565b51633c9fd93960e21b8152600490fd5b613ca49250803d10613cab575b613c9c818361126a565b810190613aeb565b3880613c5f565b503d613c92565b613cba6134ac565b613c57565b613cfe965092613ce26107359993613cdb613ce8948b97612832565b51926129d4565b90613743565b8951918252600482015293849081906024820190565b0381305afa9283156140e6575b6000936140c3575b5082613d1e9161316e565b9086610130918d8a613d3a61073586546001600160a01b031690565b8451632207afe960e11b8082529391908a81600481855afa9081156140b6575b600091614099575b506001600160a01b03613d8361073561012f9e8f546001600160a01b031690565b911614613e95575092613c4b99897ff13b9ad9c5cff251c7890be98dd7159a5dde3f28cba336aeaaf551d9da06e7e0946004613ddc610735613dcd8e9d9c9b98613e429f9b612832565b519a546001600160a01b031690565b95518096819382525afa928315613e88575b600093613e4d575b50613e0e610735613e3a92546001600160a01b031690565b8d519384938491604091949360ff60608501961684526001600160a01b03809216602085015216910152565b0390a3612a0b565b38808080898b613bd3565b613e3a919350610735613e78613e0e928d803d10613e81575b613e70818361126a565b810190613ad6565b94925050613df6565b503d613e66565b613e906134ac565b613dee565b95979699985091509150613ea99250612832565b51813b1561000e578751630d9778e560e11b815260048101849052602481019190915286916000908290604490829084905af19081614086575b506140705750613ef3878c612832565b51817fc63600d29a0ef31fe04e22e26a10c75787f6f15d8a95f6b340b232481bf6d696600080a3613f2e61073583546001600160a01b031690565b91613f3c613c01898c612832565b92803b1561000e57875163c309f8e160e01b81526001600160a01b03909416600485015260248401839052613ff1948794613fb49261073592613fa69284926000908290818381604481015b03925af18015614063575b614050575b50546001600160a01b031690565b92546001600160a01b031690565b60008c8951968795869485936323b872dd60e01b8552600485016040919493929460608201956001600160a01b0380921683521660208201520152565b03925af1908115614043575b600091614026575b50156140155781613c4b91613e42565b8251633c9fd93960e21b8152600490fd5b61403d9150833d8511613cab57613c9c818361126a565b38614005565b61404b6134ac565b613ffd565b806107e561405d92611211565b38613f98565b61406b6134ac565b613f93565b91613fb4610735613fa6610735613ff1976118b4565b806107e561409392611211565b38613ee3565b6140b091508b3d8d11613e8157613e70818361126a565b38613d62565b6140be6134ac565b613d5a565b613d1e9193506140df90853d87116104eb576104dd818361126a565b9290613d13565b6140ee6134ac565b613d0b565b61410a9150843d86116104eb576104dd818361126a565b38613bc4565b6141186134ac565b613bbc565b6141349150823d841161386357613855818361126a565b38613b79565b6141426134ac565b613b71565b9193929060005b85811061415e5750505050505050565b61417461073561012d546001600160a01b031690565b61417e8285612832565b51906040908782519163b776d33360e01b83528884846020818197958183976141b060049d8e83019190602083019252565b03915afa908115614778575b60009161475b575b50614201886141d38b88612832565b51866141e36101315480936136dd565b865180958192631ce08c0b60e01b9687845283019190602083019252565b0381305afa92831561474e575b60009361472f575b5082978c60ff86169182614422575b50505050505050506142f8575b614296918c61425a613c018961425461073561012f546001600160a01b031690565b93612832565b60008a8851968795869485936323b872dd60e01b85528d85016040919493929460608201956001600160a01b0380921683521660208201520152565b03925af19182156142eb575b6000926142ce575b5050156142c15750506142bc90612751565b61414e565b51633c9fd93960e21b8152fd5b6142e49250803d10613cab57613c9c818361126a565b38806142aa565b6142f36134ac565b6142a2565b61434f908a61431361073561012f546001600160a01b031690565b826143318a61432b610132546001600160a01b031690565b94612832565b5188518096819263dfa4bb0f60e01b83528c83019190602083019252565b0381305afa938415614415575b6000946143f6575b5086516323b872dd60e01b81526001600160a01b03808c16828b0190815293166020840152604083019490945283918290600090829060600103925af19081156143e9575b6000916143cc575b50156143bd5781614232565b505051633c9fd93960e21b8152fd5b6143e39150833d8511613cab57613c9c818361126a565b386143b1565b6143f16134ac565b6143a9565b61440e919450833d85116104eb576104dd818361126a565b9238614364565b61441d6134ac565b61435c565b614455979a5061443e92613cdb8b9a9b969593613ce293612832565b908851958692839283528d83019190602083019252565b0381305afa928315614722575b6000936146ff575b50826144759161316e565b90610130908c61448f61073584546001600160a01b031690565b8b8d8a5193632207afe960e11b938486528a868581845afa9586156146f2575b6000966146d3575b5061012f956001600160a01b036144db6107356107358a546001600160a01b031690565b91161461452f575098809a9b93899693613ddc610735613dcd7ff13b9ad9c5cff251c7890be98dd7159a5dde3f28cba336aeaaf551d9da06e7e099966145209f612832565b915b84388080808f8c81614225565b979b509398509350505061454592949650612832565b51813b1561000e578751630d9778e560e11b8152808a01868152602081019290925287929091600091839182908490829060400103925af190816146c0575b506146ad5750614594888b612832565b51837fc63600d29a0ef31fe04e22e26a10c75787f6f15d8a95f6b340b232481bf6d696600080a38d6145d7613c018a61425461073586546001600160a01b031690565b92813b1561000e57613fa661073561073592613f88600089614629978f9a8f8f9c8591519687958694859363c309f8e160e01b85528401602090939291936001600160a01b0360408201951681520152565b86516323b872dd60e01b81526001600160a01b03808c16828b019081529216602083015260408201949094528391908290600090829060600103925af19081156146a0575b600091614683575b50156143bd578188614522565b61469a9150833d8511613cab57613c9c818361126a565b38614676565b6146a86134ac565b61466e565b91610735613fa6610735614629936118b4565b806107e56146cd92611211565b38614584565b6146eb9196508b3d8d11613e8157613e70818361126a565b94386144b7565b6146fa6134ac565b6144af565b61447591935061471b90853d87116104eb576104dd818361126a565b929061446a565b61472a6134ac565b614462565b614747919350873d89116104eb576104dd818361126a565b9138614216565b6147566134ac565b61420e565b6147729150843d861161386357613855818361126a565b386141c4565b6147806134ac565b6141bc565b60a0810161479b8151602081015190519061355a565b906147e36147b18251604081015190519061355a565b9182846147be8751151590565b926147d360608901516001600160a01b031690565b9051906060825192015194614147565b6148716147fa60808501516001600160a01b031690565b61486360408601519561481961073561012f546001600160a01b031690565b906020610131549101519160405198899560208701919594939060a09360c0840197600085526001600160a01b038093166020860152604085015216606083015260808201520152565b03601f19810185528461126a565b61488761073561012d546001600160a01b031690565b61489d61073561012e546001600160a01b031690565b92813b1561000e57600080946148ca60405197889687958694631759616b60e11b865230600487016134b9565b03925af180156148e9575b6148dc5750565b806107e561129992611211565b6148f16134ac565b6148d5565b604051906080820182811067ffffffffffffffff82111761492d575b60405260608083600081528160208201528160408201520152565b6149356111fa565b614912565b6149426148f6565b5061498b81600460206001600160a01b0361012d541660405192838092630964eec760e41b82525afa908115614a06575b6000916149e8575b506149868183614e1d565b614ca4565b905061013454116149a0575b6105ac90614e36565b3360009081527f0e0ee6959fd583d0bdb8c46ba6cdbcd38e0eb4ccd036d927cdf9c104046b2eef602052604090205460ff1661499757604051639ece8f2f60e01b8152600490fd5b614a00915060203d81116104eb576104dd818361126a565b3861497b565b614a0e6134ac565b614973565b9094926001600160a01b03938461012f541690813b1561000e5760009660ff889460e4976040519b8c9a8b9963d505accf60e01b8b521660048a01523060248a01526044890152606488015216608486015260a485015260c48401525af180156148e9576148dc5750565b6001600160a01b0390818160201c169182600052610137602052614ad982614ad4604060002061ffff8360e01c1690816002820180548015600014614b3957508160018401555590600052602052604060002090565b6130b9565b50614afd6001610d2b856001600160a01b0316600052610136602052604060002090565b1615614b2b575b7f3f2e35daa045b6aa1cc1d76e5337f2bce6985b354b49e998d4ce29d683190d15600080a3565b614b348261591c565b614b04565b90600184019182548410600014614b5c5750505590600052602052604060002090565b9091508211614b6d575b50506123e1565b558138614b66565b6001600160a01b03821680600052614b9861013792836020526040600020615c43565b60005260205260026040600020015415614baf5750565b61129990615aee565b60ff166012039060ff82116129e757565b8115614bd3570690565b614bdb61361f565b0690565b614c3160ff614c2b60046020614c0161073561012f546001600160a01b031690565b60405163313ce56760e01b815292839182905afa908115614c97575b600091614c79575b50614bb8565b166129ef565b8115908115614c5d575b50614c435750565b60405163277f4c2760e01b81526004810191909152602490fd5b614c719150614c6b906137c0565b82614bc9565b151538614c3b565b614c91915060203d811161386357613855818361126a565b38614c25565b614c9f6134ac565b614c1d565b9190828111614cb4576001920390565b50600091508190565b6001600160a01b0381163314908115614d68575b8115614cdb575090565b614d2c9150602090614cf961073561012d546001600160a01b031690565b60405163e985e9c560e01b81526001600160a01b0390921660048301523360248301529092839190829081906044820190565b03915afa908115614d5b575b600091614d43575090565b6105ac915060203d8111613cab57613c9c818361126a565b614d636134ac565b614d38565b3360009081527fb34b648d285118a9ee5f8cc4675698367f99ed092c20555b8b9380d41d2fafb5602052604090205460ff169150614cd1565b90614dae614db491614de4565b92614de4565b821491821592614dd9575b5050614dc757565b6040516324fc16d360e11b8152600490fd5b141590503880614dbf565b80516000929160209160051b8101820190849083015b828110614e075750505050565b85815101958610614e19578301614dfa565b5080fd5b11614e2457565b604051630cea840760e21b8152600490fd5b614e3e6148f6565b5061012d90614e5761073583546001600160a01b031690565b6040805163789e8cdf60e01b81523060048083019190915294909260209291908390859060249082905afa938415615111575b6000946150f2575b50614e9c84613910565b614ea585613910565b93614eaf86613910565b97614eb861129b565b976000895282890193845285890196875260608901998a526000905b888210614eea575b505050505050505050905090565b90614f7387610735888b96958f8f908b8b61013595614f1087546001600160a01b031690565b988c614f4b614f3b614f368d6001600160a01b0316600052610137602052604060002090565b615da0565b9a8b94546001600160a01b031690565b9151627eeac760e11b8152309181019182526020820193909352919a8b928391829160400190565b03915afa9788156150e5575b8c6000996150a6575b505091614fb287610d9e614fd0969489614fa8614fca9851875190612832565b5251845190612832565b614fbc888361511e565b928391829c51905190612832565b5261316e565b93849714615002575b505050614fe68b51612751565b8b5215614ffd57614ff690612751565b9091614ed4565b614edc565b6118b48361500f93614b75565b906001600160a01b03809181841692839116149283615074575b505050615039575b388080614fd9565b61506f61013580546001600160a01b03196001600160a01b03808316600052610136602052600160406000200154169116179055565b615031565b61509b91929350610d2b6001916001600160a01b0316600052610136602052604060002090565b161415388080615029565b614fca94929950610d9e614fd0969489614fa86150d4614fb296868f97903d106104eb576104dd818361126a565b9d969850505094965050508c614f88565b6150ed6134ac565b614f7f565b61510a919450833d85116104eb576104dd818361126a565b9238614e92565b6151196134ac565b614e8a565b908082101561512b575090565b905090565b906151396148f6565b50615158816001600160a01b0316600052610137602052604060002090565b906000906001830154600284019081545b808211156153305750508215614e245761518283613910565b9061518c84613910565b946151956138f8565b9461519e61129b565b96600088526020908189019586526040998a8a0191825260608a019889526000905b8482106151eb575b50505050505050508293506151e16151e6929351613910565b615360565b905290565b908b8893928c6151fa89615da0565b9161521161073561012d546001600160a01b031690565b9351627eeac760e11b8152306004808301919091526024820185905290948990869060449082905afa948515615323575b600095615304575b50615255858361511e565b9284615265859a51835190612832565b52836152748951835190612832565b525161527f8b61315f565b14806152fb575b6152eb5750906152959161316e565b918295146152c5575b506152a98c51612751565b8c52156152c0576152b990612751565b90916151c0565b6151c8565b6152cf9088615c43565b8754156152dd575b3861529e565b6152e68a615aee565b6152d7565b90508f51630cea840760e21b8152fd5b50848211615286565b61531c919550893d8b116104eb576104dd818361126a565b933861524a565b61532b6134ac565b615242565b909361535461535a9161534d878990600052602052604060002090565b5490612a0b565b94612751565b90615169565b51919061536c83613910565b9260019182809201915b8281106153835750505050565b8082859260051b88015201615376565b919061539d6148f6565b506153b461073561012d546001600160a01b031690565b9160409182519063789e8cdf60e01b82526020808360049781806153ea308c83019190916001600160a01b036020820193169052565b03915afa92831561568b575b60009361566c575b5061540b83929793613910565b9061541583613910565b9161541f84613910565b9861542861129b565b998a96600088528488019384528988019586526060880191825297615456610135546001600160a01b031690565b9260005b8c898210615484575b505050505050505050505061547757505090565b51630cea840760e21b8152fd5b909192939495969798999a8c6154c26154b1896001600160a01b0316600052610137602052604060002090565b6154bc368989611302565b90615db8565b92831561564057836155109493928c926154e861073561012d546001600160a01b031690565b9151627eeac760e11b8152309181019182526020820193909352919586928391829160400190565b03915afa928315615633575b600093615614575b50818d8a51905161553491612832565b52878d8851905161554491612832565b6001600160a01b03909116905261555b838261511e565b80809e8d51905161556b91612832565b526155759161316e565b91829c146155b1575b508d61558a8151612751565b9052156155a95761559a90612751565b908c989796959493929161545a565b8c988c615463565b6155de876155d86001610d2b836001600160a01b0316600052610136602052604060002090565b92614b75565b6156076155ff886001600160a01b0316600052610137602052604060002090565b600201541590565b1561557e5795503861557e565b61562c9193508a3d8c116104eb576104dd818361126a565b9138615524565b61563b6134ac565b61551c565b50509a5050936153546001610d2b61559a936001600160a01b0316600052610136602052604060002090565b816156849294503d85116104eb576104dd818361126a565b91386153fe565b6156936134ac565b6153f6565b91906156a26148f6565b506156c1816001600160a01b0316600052610137602052604060002090565b6000946001820154600283019081545b808211156158ad5750508615614e24576156f087929394959697613910565b906156fa83613910565b946157036138f8565b9761570c61129b565b9960008b5260208b01948552604097888c015260608b01998a529560005b86811061575c575b5050505050505061574c57506151e6906151e18451613910565b51630cea840760e21b8152600490fd5b6157786157729c9a989c9b99979b368486611302565b85615db8565b801561589f579b8798999a9b9c61579b61073561012d546001600160a01b031690565b8951627eeac760e11b81523060048201526024810183905292908e90602090859060449082905afa938415615892575b600094615867575b5061580591614fca91846157ea8d51835190612832565b526157f5868361511e565b928391829e810151905190612832565b91829914615841575b506158198c51612751565b8c52156158355761582990612751565b9a95969798999a61572a565b869798999a9b50615732565b61584b9086615c43565b855415615859575b3861580e565b6158628a615aee565b615853565b614fca919450916158896158059360203d6020116104eb576104dd818361126a565b949150916157d3565b61589a6134ac565b6157cb565b5086989a509a96989a615732565b90976158ca6158d09161534d8b8890600052602052604060002090565b98612751565b906156d1565b815181546001600160a01b0319166001600160a01b03918216178255611299926001919060200151169101906001600160a01b03166001600160a01b0319825416179055565b6101359061593182546001600160a01b031690565b6001600160a01b03928184166159c157505061013580546001600160a01b0319166001600160a01b03831617905561599761596a6112bb565b6001600160a01b038316808252602080830182905260009182526101369052604090206158d6565b6158d6565b1680807f3a35d42f4bce14f93a24ab2ec3c4dc4cd013e5f16abcd79d5c93afa2cebc0c72600080a4565b9280615ac18395615a346159ed6118b485976001600160a01b0316600052610136602052604060002090565b97615a166159f96112bb565b6001600160a01b038b168152916001600160a01b03166020830152565b615992886001600160a01b0316600052610136602052604060002090565b615a74866001615a588a6001600160a01b0316600052610136602052604060002090565b01906001600160a01b03166001600160a01b0319825416179055565b6118b486615aa6615a8c84546001600160a01b031690565b6001600160a01b0316600052610136602052604060002090565b906001600160a01b03166001600160a01b0319825416179055565b9416931691167f3a35d42f4bce14f93a24ab2ec3c4dc4cd013e5f16abcd79d5c93afa2cebc0c72600080a4565b6001600160a01b039081615b16826001600160a01b0316600052610136602052604060002090565b541691615b90816001615b3d856001600160a01b0316600052610136602052604060002090565b0154169282811692838503615bb757506101356001600160a01b031981541690555b615992615b6a6112bb565b9160008352600060208401526001600160a01b0316600052610136602052604060002090565b7fd853f0403f99e88d186f52744de8bd40a17410e4d2206e25ac3750410aa19737600080a4565b615bdb856001615a58896001600160a01b0316600052610136602052604060002090565b615bfd86615aa6876001600160a01b0316600052610136602052604060002090565b61013554168303615b5f57615c3e61013580546001600160a01b03196001600160a01b03808316600052610136602052600160406000200154169116179055565b615b5f565b61ffff8260e01c1691615c70615c6c82615c67868690600052602052604060002090565b6131bb565b1590565b615d7d5750615c8b8282906000526020526040600020541590565b615c93575050565b60018082019182546002820194855491828114600014615cc357505050505090615cc06000926000199055565b55565b939592938103615d2c57505083615cda84546129fd565b905b615ce8575b5050505050565b81548111615d2757615d04818490600052602052604060002090565b54615d1857615d1290612751565b84615cdc565b93505050553880808080615ce1565b615ce1565b9193918114615d3c575050505050565b615d46859161315f565b905b15615ce15781548110615d2757615d69818490600052602052604060002090565b54615d1857615d7790612a98565b84615d48565b604051635a927b7f60e11b81526004810191909152602481019290925250604490fd5b6001810154600052602052612d9b6040600020612d48565b60005b825181101561313657615dce8184612832565b516000528160205260408060002054615df05750615deb90612751565b615dbb565b915050612d9b9150600020612d4856fea26469706673582212200e20b0622ea180383c84a0518e4ae319504afe9f69091c79e71d25323f85776d64736f6c63430008110033"
}