{
  "address": "0x6d14906698f636AB6fd9209518b0e9DA2d9eeEEF",
  "abi": [
    {
      "inputs": [],
      "stateMutability": "nonpayable",
      "type": "constructor"
    },
    {
      "inputs": [
        {
          "internalType": "uint256",
          "name": "tokenId",
          "type": "uint256"
        }
      ],
      "name": "CertificateNotYetMinted",
      "type": "error"
    },
    {
      "inputs": [],
      "name": "ERC20TransferFailed",
      "type": "error"
    },
    {
      "inputs": [],
      "name": "InsufficientSupply",
      "type": "error"
    },
    {
      "inputs": [
        {
          "internalType": "uint256",
          "name": "amount",
          "type": "uint256"
        }
      ],
      "name": "InvalidCertificateAmount",
      "type": "error"
    },
    {
      "inputs": [],
      "name": "InvalidNoriFeePercentage",
      "type": "error"
    },
    {
      "inputs": [
        {
          "internalType": "uint256",
          "name": "decimals",
          "type": "uint256"
        }
      ],
      "name": "InvalidPurchasingTokenDecimals",
      "type": "error"
    },
    {
      "inputs": [],
      "name": "LowSupplyAllowlistRequired",
      "type": "error"
    },
    {
      "inputs": [],
      "name": "NoriFeeWalletZeroAddress",
      "type": "error"
    },
    {
      "inputs": [
        {
          "internalType": "uint256",
          "name": "removalId",
          "type": "uint256"
        },
        {
          "internalType": "uint256",
          "name": "year",
          "type": "uint256"
        }
      ],
      "name": "RemovalNotFoundInYear",
      "type": "error"
    },
    {
      "inputs": [],
      "name": "ReplacementAmountExceedsNrtDeficit",
      "type": "error"
    },
    {
      "inputs": [],
      "name": "ReplacementAmountMismatch",
      "type": "error"
    },
    {
      "inputs": [],
      "name": "SenderNotRemovalContract",
      "type": "error"
    },
    {
      "inputs": [],
      "name": "UnauthorizedWithdrawal",
      "type": "error"
    },
    {
      "anonymous": false,
      "inputs": [
        {
          "indexed": true,
          "internalType": "uint256",
          "name": "id",
          "type": "uint256"
        },
        {
          "indexed": true,
          "internalType": "address",
          "name": "supplierAddress",
          "type": "address"
        }
      ],
      "name": "AddRemoval",
      "type": "event"
    },
    {
      "anonymous": false,
      "inputs": [
        {
          "indexed": true,
          "internalType": "address",
          "name": "added",
          "type": "address"
        },
        {
          "indexed": true,
          "internalType": "address",
          "name": "next",
          "type": "address"
        },
        {
          "indexed": true,
          "internalType": "address",
          "name": "previous",
          "type": "address"
        }
      ],
      "name": "AddSupplier",
      "type": "event"
    },
    {
      "anonymous": false,
      "inputs": [
        {
          "indexed": false,
          "internalType": "uint8",
          "name": "version",
          "type": "uint8"
        }
      ],
      "name": "Initialized",
      "type": "event"
    },
    {
      "anonymous": false,
      "inputs": [
        {
          "indexed": false,
          "internalType": "address",
          "name": "account",
          "type": "address"
        }
      ],
      "name": "Paused",
      "type": "event"
    },
    {
      "anonymous": false,
      "inputs": [
        {
          "indexed": false,
          "internalType": "contract Removal",
          "name": "removal",
          "type": "address"
        },
        {
          "indexed": false,
          "internalType": "contract Certificate",
          "name": "certificate",
          "type": "address"
        },
        {
          "indexed": false,
          "internalType": "contract IERC20WithPermit",
          "name": "purchasingToken",
          "type": "address"
        },
        {
          "indexed": false,
          "internalType": "contract RestrictedNORI",
          "name": "restrictedNORI",
          "type": "address"
        }
      ],
      "name": "RegisterContractAddresses",
      "type": "event"
    },
    {
      "anonymous": false,
      "inputs": [
        {
          "indexed": true,
          "internalType": "address",
          "name": "removed",
          "type": "address"
        },
        {
          "indexed": true,
          "internalType": "address",
          "name": "next",
          "type": "address"
        },
        {
          "indexed": true,
          "internalType": "address",
          "name": "previous",
          "type": "address"
        }
      ],
      "name": "RemoveSupplier",
      "type": "event"
    },
    {
      "anonymous": false,
      "inputs": [
        {
          "indexed": true,
          "internalType": "uint256",
          "name": "amount",
          "type": "uint256"
        },
        {
          "indexed": true,
          "internalType": "uint256",
          "name": "removalId",
          "type": "uint256"
        }
      ],
      "name": "RestrictedNORIMintFailure",
      "type": "event"
    },
    {
      "anonymous": false,
      "inputs": [
        {
          "indexed": true,
          "internalType": "bytes32",
          "name": "role",
          "type": "bytes32"
        },
        {
          "indexed": true,
          "internalType": "bytes32",
          "name": "previousAdminRole",
          "type": "bytes32"
        },
        {
          "indexed": true,
          "internalType": "bytes32",
          "name": "newAdminRole",
          "type": "bytes32"
        }
      ],
      "name": "RoleAdminChanged",
      "type": "event"
    },
    {
      "anonymous": false,
      "inputs": [
        {
          "indexed": true,
          "internalType": "bytes32",
          "name": "role",
          "type": "bytes32"
        },
        {
          "indexed": true,
          "internalType": "address",
          "name": "account",
          "type": "address"
        },
        {
          "indexed": true,
          "internalType": "address",
          "name": "sender",
          "type": "address"
        }
      ],
      "name": "RoleGranted",
      "type": "event"
    },
    {
      "anonymous": false,
      "inputs": [
        {
          "indexed": true,
          "internalType": "bytes32",
          "name": "role",
          "type": "bytes32"
        },
        {
          "indexed": true,
          "internalType": "address",
          "name": "account",
          "type": "address"
        },
        {
          "indexed": true,
          "internalType": "address",
          "name": "sender",
          "type": "address"
        }
      ],
      "name": "RoleRevoked",
      "type": "event"
    },
    {
      "anonymous": false,
      "inputs": [
        {
          "indexed": false,
          "internalType": "uint256",
          "name": "priceMultiple",
          "type": "uint256"
        }
      ],
      "name": "SetPriceMultiple",
      "type": "event"
    },
    {
      "anonymous": false,
      "inputs": [
        {
          "indexed": false,
          "internalType": "uint256",
          "name": "threshold",
          "type": "uint256"
        }
      ],
      "name": "SetPriorityRestrictedThreshold",
      "type": "event"
    },
    {
      "anonymous": false,
      "inputs": [
        {
          "indexed": false,
          "internalType": "contract IERC20WithPermit",
          "name": "purchasingToken",
          "type": "address"
        }
      ],
      "name": "SetPurchasingToken",
      "type": "event"
    },
    {
      "anonymous": false,
      "inputs": [
        {
          "indexed": true,
          "internalType": "uint256",
          "name": "amount",
          "type": "uint256"
        },
        {
          "indexed": true,
          "internalType": "uint256",
          "name": "removalId",
          "type": "uint256"
        },
        {
          "indexed": false,
          "internalType": "uint256",
          "name": "currentHoldbackPercentage",
          "type": "uint256"
        },
        {
          "indexed": false,
          "internalType": "address",
          "name": "rNoriUnderlyingToken",
          "type": "address"
        },
        {
          "indexed": false,
          "internalType": "address",
          "name": "purchasingTokenAddress",
          "type": "address"
        }
      ],
      "name": "SkipRestrictedNORIERC20Transfer",
      "type": "event"
    },
    {
      "anonymous": false,
      "inputs": [
        {
          "indexed": false,
          "internalType": "address",
          "name": "account",
          "type": "address"
        }
      ],
      "name": "Unpaused",
      "type": "event"
    },
    {
      "anonymous": false,
      "inputs": [
        {
          "indexed": true,
          "internalType": "uint256",
          "name": "certificateId",
          "type": "uint256"
        },
        {
          "indexed": false,
          "internalType": "uint256[]",
          "name": "removalIds",
          "type": "uint256[]"
        },
        {
          "indexed": false,
          "internalType": "uint256[]",
          "name": "amounts",
          "type": "uint256[]"
        },
        {
          "indexed": false,
          "internalType": "uint256[]",
          "name": "removalIdsBeingReplaced",
          "type": "uint256[]"
        },
        {
          "indexed": false,
          "internalType": "uint256[]",
          "name": "amountsBeingReplaced",
          "type": "uint256[]"
        },
        {
          "indexed": true,
          "internalType": "address",
          "name": "purchasingTokenAddress",
          "type": "address"
        },
        {
          "indexed": false,
          "internalType": "uint256",
          "name": "priceMultiple",
          "type": "uint256"
        }
      ],
      "name": "UpdateCertificate",
      "type": "event"
    },
    {
      "anonymous": false,
      "inputs": [
        {
          "indexed": false,
          "internalType": "uint256",
          "name": "updatedFeePercentage",
          "type": "uint256"
        }
      ],
      "name": "UpdateNoriFeePercentage",
      "type": "event"
    },
    {
      "anonymous": false,
      "inputs": [
        {
          "indexed": false,
          "internalType": "address",
          "name": "updatedWalletAddress",
          "type": "address"
        }
      ],
      "name": "UpdateNoriFeeWalletAddress",
      "type": "event"
    },
    {
      "inputs": [],
      "name": "ALLOWLIST_ROLE",
      "outputs": [
        {
          "internalType": "bytes32",
          "name": "",
          "type": "bytes32"
        }
      ],
      "stateMutability": "view",
      "type": "function"
    },
    {
      "inputs": [],
      "name": "DEFAULT_ADMIN_ROLE",
      "outputs": [
        {
          "internalType": "bytes32",
          "name": "",
          "type": "bytes32"
        }
      ],
      "stateMutability": "view",
      "type": "function"
    },
    {
      "inputs": [],
      "name": "MARKET_ADMIN_ROLE",
      "outputs": [
        {
          "internalType": "bytes32",
          "name": "",
          "type": "bytes32"
        }
      ],
      "stateMutability": "view",
      "type": "function"
    },
    {
      "inputs": [],
      "name": "PAUSER_ROLE",
      "outputs": [
        {
          "internalType": "bytes32",
          "name": "",
          "type": "bytes32"
        }
      ],
      "stateMutability": "view",
      "type": "function"
    },
    {
      "inputs": [
        {
          "internalType": "uint256",
          "name": "purchaseTotal",
          "type": "uint256"
        }
      ],
      "name": "calculateCertificateAmountFromPurchaseTotal",
      "outputs": [
        {
          "internalType": "uint256",
          "name": "",
          "type": "uint256"
        }
      ],
      "stateMutability": "view",
      "type": "function"
    },
    {
      "inputs": [
        {
          "internalType": "uint256",
          "name": "purchaseTotal",
          "type": "uint256"
        }
      ],
      "name": "calculateCertificateAmountFromPurchaseTotalWithoutFee",
      "outputs": [
        {
          "internalType": "uint256",
          "name": "",
          "type": "uint256"
        }
      ],
      "stateMutability": "view",
      "type": "function"
    },
    {
      "inputs": [
        {
          "internalType": "uint256",
          "name": "amount",
          "type": "uint256"
        }
      ],
      "name": "calculateCheckoutTotal",
      "outputs": [
        {
          "internalType": "uint256",
          "name": "",
          "type": "uint256"
        }
      ],
      "stateMutability": "view",
      "type": "function"
    },
    {
      "inputs": [
        {
          "internalType": "uint256",
          "name": "amount",
          "type": "uint256"
        }
      ],
      "name": "calculateCheckoutTotalWithoutFee",
      "outputs": [
        {
          "internalType": "uint256",
          "name": "",
          "type": "uint256"
        }
      ],
      "stateMutability": "view",
      "type": "function"
    },
    {
      "inputs": [
        {
          "internalType": "uint256",
          "name": "amount",
          "type": "uint256"
        }
      ],
      "name": "calculateNoriFee",
      "outputs": [
        {
          "internalType": "uint256",
          "name": "",
          "type": "uint256"
        }
      ],
      "stateMutability": "view",
      "type": "function"
    },
    {
      "inputs": [
        {
          "internalType": "uint256",
          "name": "purchasingTokenAmount",
          "type": "uint256"
        }
      ],
      "name": "convertPurchasingTokenAmountToRemovalAmount",
      "outputs": [
        {
          "internalType": "uint256",
          "name": "",
          "type": "uint256"
        }
      ],
      "stateMutability": "view",
      "type": "function"
    },
    {
      "inputs": [
        {
          "internalType": "uint256",
          "name": "removalAmount",
          "type": "uint256"
        }
      ],
      "name": "convertRemovalAmountToPurchasingTokenAmount",
      "outputs": [
        {
          "internalType": "uint256",
          "name": "",
          "type": "uint256"
        }
      ],
      "stateMutability": "view",
      "type": "function"
    },
    {
      "inputs": [],
      "name": "getActiveSuppliers",
      "outputs": [
        {
          "internalType": "address[]",
          "name": "suppliers",
          "type": "address[]"
        }
      ],
      "stateMutability": "view",
      "type": "function"
    },
    {
      "inputs": [],
      "name": "getCertificateAddress",
      "outputs": [
        {
          "internalType": "address",
          "name": "",
          "type": "address"
        }
      ],
      "stateMutability": "view",
      "type": "function"
    },
    {
      "inputs": [],
      "name": "getNoriFeePercentage",
      "outputs": [
        {
          "internalType": "uint256",
          "name": "",
          "type": "uint256"
        }
      ],
      "stateMutability": "view",
      "type": "function"
    },
    {
      "inputs": [],
      "name": "getNoriFeeWallet",
      "outputs": [
        {
          "internalType": "address",
          "name": "",
          "type": "address"
        }
      ],
      "stateMutability": "view",
      "type": "function"
    },
    {
      "inputs": [],
      "name": "getPriceMultiple",
      "outputs": [
        {
          "internalType": "uint256",
          "name": "",
          "type": "uint256"
        }
      ],
      "stateMutability": "view",
      "type": "function"
    },
    {
      "inputs": [],
      "name": "getPriorityRestrictedThreshold",
      "outputs": [
        {
          "internalType": "uint256",
          "name": "",
          "type": "uint256"
        }
      ],
      "stateMutability": "view",
      "type": "function"
    },
    {
      "inputs": [],
      "name": "getPurchasingTokenAddress",
      "outputs": [
        {
          "internalType": "address",
          "name": "",
          "type": "address"
        }
      ],
      "stateMutability": "view",
      "type": "function"
    },
    {
      "inputs": [],
      "name": "getRemovalAddress",
      "outputs": [
        {
          "internalType": "address",
          "name": "",
          "type": "address"
        }
      ],
      "stateMutability": "view",
      "type": "function"
    },
    {
      "inputs": [
        {
          "internalType": "address",
          "name": "supplier",
          "type": "address"
        }
      ],
      "name": "getRemovalIdsForSupplier",
      "outputs": [
        {
          "internalType": "uint256[]",
          "name": "removalIds",
          "type": "uint256[]"
        }
      ],
      "stateMutability": "view",
      "type": "function"
    },
    {
      "inputs": [],
      "name": "getRestrictedNoriAddress",
      "outputs": [
        {
          "internalType": "address",
          "name": "",
          "type": "address"
        }
      ],
      "stateMutability": "view",
      "type": "function"
    },
    {
      "inputs": [
        {
          "internalType": "bytes32",
          "name": "role",
          "type": "bytes32"
        }
      ],
      "name": "getRoleAdmin",
      "outputs": [
        {
          "internalType": "bytes32",
          "name": "",
          "type": "bytes32"
        }
      ],
      "stateMutability": "view",
      "type": "function"
    },
    {
      "inputs": [
        {
          "internalType": "bytes32",
          "name": "role",
          "type": "bytes32"
        },
        {
          "internalType": "uint256",
          "name": "index",
          "type": "uint256"
        }
      ],
      "name": "getRoleMember",
      "outputs": [
        {
          "internalType": "address",
          "name": "",
          "type": "address"
        }
      ],
      "stateMutability": "view",
      "type": "function"
    },
    {
      "inputs": [
        {
          "internalType": "bytes32",
          "name": "role",
          "type": "bytes32"
        }
      ],
      "name": "getRoleMemberCount",
      "outputs": [
        {
          "internalType": "uint256",
          "name": "",
          "type": "uint256"
        }
      ],
      "stateMutability": "view",
      "type": "function"
    },
    {
      "inputs": [
        {
          "internalType": "bytes32",
          "name": "role",
          "type": "bytes32"
        },
        {
          "internalType": "address",
          "name": "account",
          "type": "address"
        }
      ],
      "name": "grantRole",
      "outputs": [],
      "stateMutability": "nonpayable",
      "type": "function"
    },
    {
      "inputs": [
        {
          "internalType": "bytes32",
          "name": "role",
          "type": "bytes32"
        },
        {
          "internalType": "address",
          "name": "account",
          "type": "address"
        }
      ],
      "name": "hasRole",
      "outputs": [
        {
          "internalType": "bool",
          "name": "",
          "type": "bool"
        }
      ],
      "stateMutability": "view",
      "type": "function"
    },
    {
      "inputs": [
        {
          "internalType": "contract Removal",
          "name": "removal",
          "type": "address"
        },
        {
          "internalType": "contract IERC20WithPermit",
          "name": "purchasingToken",
          "type": "address"
        },
        {
          "internalType": "contract Certificate",
          "name": "certificate",
          "type": "address"
        },
        {
          "internalType": "contract RestrictedNORI",
          "name": "restrictedNori",
          "type": "address"
        },
        {
          "internalType": "address",
          "name": "noriFeeWalletAddress",
          "type": "address"
        },
        {
          "internalType": "uint256",
          "name": "noriFeePercentage_",
          "type": "uint256"
        },
        {
          "internalType": "uint256",
          "name": "priceMultiple_",
          "type": "uint256"
        }
      ],
      "name": "initialize",
      "outputs": [],
      "stateMutability": "nonpayable",
      "type": "function"
    },
    {
      "inputs": [
        {
          "internalType": "bytes[]",
          "name": "data",
          "type": "bytes[]"
        }
      ],
      "name": "multicall",
      "outputs": [
        {
          "internalType": "bytes[]",
          "name": "results",
          "type": "bytes[]"
        }
      ],
      "stateMutability": "nonpayable",
      "type": "function"
    },
    {
      "inputs": [
        {
          "internalType": "address",
          "name": "",
          "type": "address"
        },
        {
          "internalType": "address",
          "name": "",
          "type": "address"
        },
        {
          "internalType": "uint256[]",
          "name": "ids",
          "type": "uint256[]"
        },
        {
          "internalType": "uint256[]",
          "name": "",
          "type": "uint256[]"
        },
        {
          "internalType": "bytes",
          "name": "",
          "type": "bytes"
        }
      ],
      "name": "onERC1155BatchReceived",
      "outputs": [
        {
          "internalType": "bytes4",
          "name": "",
          "type": "bytes4"
        }
      ],
      "stateMutability": "nonpayable",
      "type": "function"
    },
    {
      "inputs": [
        {
          "internalType": "address",
          "name": "",
          "type": "address"
        },
        {
          "internalType": "address",
          "name": "",
          "type": "address"
        },
        {
          "internalType": "uint256",
          "name": "id",
          "type": "uint256"
        },
        {
          "internalType": "uint256",
          "name": "",
          "type": "uint256"
        },
        {
          "internalType": "bytes",
          "name": "",
          "type": "bytes"
        }
      ],
      "name": "onERC1155Received",
      "outputs": [
        {
          "internalType": "bytes4",
          "name": "",
          "type": "bytes4"
        }
      ],
      "stateMutability": "nonpayable",
      "type": "function"
    },
    {
      "inputs": [],
      "name": "pause",
      "outputs": [],
      "stateMutability": "nonpayable",
      "type": "function"
    },
    {
      "inputs": [],
      "name": "paused",
      "outputs": [
        {
          "internalType": "bool",
          "name": "",
          "type": "bool"
        }
      ],
      "stateMutability": "view",
      "type": "function"
    },
    {
      "inputs": [
        {
          "internalType": "contract Removal",
          "name": "removal",
          "type": "address"
        },
        {
          "internalType": "contract Certificate",
          "name": "certificate",
          "type": "address"
        },
        {
          "internalType": "contract IERC20WithPermit",
          "name": "purchasingToken",
          "type": "address"
        },
        {
          "internalType": "contract RestrictedNORI",
          "name": "restrictedNORI",
          "type": "address"
        }
      ],
      "name": "registerContractAddresses",
      "outputs": [],
      "stateMutability": "nonpayable",
      "type": "function"
    },
    {
      "inputs": [
        {
          "internalType": "uint256",
          "name": "removalId",
          "type": "uint256"
        }
      ],
      "name": "release",
      "outputs": [],
      "stateMutability": "nonpayable",
      "type": "function"
    },
    {
      "inputs": [
        {
          "internalType": "bytes32",
          "name": "role",
          "type": "bytes32"
        },
        {
          "internalType": "address",
          "name": "account",
          "type": "address"
        }
      ],
      "name": "renounceRole",
      "outputs": [],
      "stateMutability": "nonpayable",
      "type": "function"
    },
    {
      "inputs": [
        {
          "internalType": "address",
          "name": "treasury",
          "type": "address"
        },
        {
          "internalType": "uint256",
          "name": "certificateId",
          "type": "uint256"
        },
        {
          "internalType": "uint256",
          "name": "totalAmountToReplace",
          "type": "uint256"
        },
        {
          "internalType": "uint256[]",
          "name": "removalIdsBeingReplaced",
          "type": "uint256[]"
        },
        {
          "internalType": "uint256[]",
          "name": "amountsBeingReplaced",
          "type": "uint256[]"
        }
      ],
      "name": "replace",
      "outputs": [],
      "stateMutability": "nonpayable",
      "type": "function"
    },
    {
      "inputs": [
        {
          "internalType": "bytes32",
          "name": "role",
          "type": "bytes32"
        },
        {
          "internalType": "address",
          "name": "account",
          "type": "address"
        }
      ],
      "name": "revokeRole",
      "outputs": [],
      "stateMutability": "nonpayable",
      "type": "function"
    },
    {
      "inputs": [
        {
          "internalType": "uint256",
          "name": "noriFeePercentage_",
          "type": "uint256"
        }
      ],
      "name": "setNoriFeePercentage",
      "outputs": [],
      "stateMutability": "nonpayable",
      "type": "function"
    },
    {
      "inputs": [
        {
          "internalType": "address",
          "name": "noriFeeWalletAddress",
          "type": "address"
        }
      ],
      "name": "setNoriFeeWallet",
      "outputs": [],
      "stateMutability": "nonpayable",
      "type": "function"
    },
    {
      "inputs": [
        {
          "internalType": "uint256",
          "name": "threshold",
          "type": "uint256"
        }
      ],
      "name": "setPriorityRestrictedThreshold",
      "outputs": [],
      "stateMutability": "nonpayable",
      "type": "function"
    },
    {
      "inputs": [
        {
          "internalType": "contract IERC20WithPermit",
          "name": "purchasingToken",
          "type": "address"
        },
        {
          "internalType": "uint256",
          "name": "priceMultiple",
          "type": "uint256"
        }
      ],
      "name": "setPurchasingTokenAndPriceMultiple",
      "outputs": [],
      "stateMutability": "nonpayable",
      "type": "function"
    },
    {
      "inputs": [
        {
          "internalType": "bytes4",
          "name": "interfaceId",
          "type": "bytes4"
        }
      ],
      "name": "supportsInterface",
      "outputs": [
        {
          "internalType": "bool",
          "name": "",
          "type": "bool"
        }
      ],
      "stateMutability": "view",
      "type": "function"
    },
    {
      "inputs": [
        {
          "internalType": "address",
          "name": "recipient",
          "type": "address"
        },
        {
          "internalType": "address",
          "name": "permitOwner",
          "type": "address"
        },
        {
          "internalType": "uint256",
          "name": "amount",
          "type": "uint256"
        },
        {
          "internalType": "uint256",
          "name": "deadline",
          "type": "uint256"
        },
        {
          "internalType": "uint8",
          "name": "v",
          "type": "uint8"
        },
        {
          "internalType": "bytes32",
          "name": "r",
          "type": "bytes32"
        },
        {
          "internalType": "bytes32",
          "name": "s",
          "type": "bytes32"
        }
      ],
      "name": "swap",
      "outputs": [],
      "stateMutability": "nonpayable",
      "type": "function"
    },
    {
      "inputs": [
        {
          "internalType": "address",
          "name": "recipient",
          "type": "address"
        },
        {
          "internalType": "uint256",
          "name": "amount",
          "type": "uint256"
        }
      ],
      "name": "swap",
      "outputs": [],
      "stateMutability": "nonpayable",
      "type": "function"
    },
    {
      "inputs": [
        {
          "internalType": "address",
          "name": "recipient",
          "type": "address"
        },
        {
          "internalType": "uint256",
          "name": "amount",
          "type": "uint256"
        },
        {
          "internalType": "address",
          "name": "supplier",
          "type": "address"
        }
      ],
      "name": "swapFromSupplier",
      "outputs": [],
      "stateMutability": "nonpayable",
      "type": "function"
    },
    {
      "inputs": [
        {
          "internalType": "address",
          "name": "recipient",
          "type": "address"
        },
        {
          "internalType": "address",
          "name": "permitOwner",
          "type": "address"
        },
        {
          "internalType": "uint256",
          "name": "amount",
          "type": "uint256"
        },
        {
          "internalType": "address",
          "name": "supplier",
          "type": "address"
        },
        {
          "internalType": "uint256",
          "name": "deadline",
          "type": "uint256"
        },
        {
          "internalType": "uint8",
          "name": "v",
          "type": "uint8"
        },
        {
          "internalType": "bytes32",
          "name": "r",
          "type": "bytes32"
        },
        {
          "internalType": "bytes32",
          "name": "s",
          "type": "bytes32"
        }
      ],
      "name": "swapFromSupplier",
      "outputs": [],
      "stateMutability": "nonpayable",
      "type": "function"
    },
    {
      "inputs": [
        {
          "internalType": "address",
          "name": "recipient",
          "type": "address"
        },
        {
          "internalType": "address",
          "name": "purchaser",
          "type": "address"
        },
        {
          "internalType": "uint256",
          "name": "amount",
          "type": "uint256"
        },
        {
          "internalType": "address",
          "name": "supplier",
          "type": "address"
        }
      ],
      "name": "swapFromSupplierWithoutFee",
      "outputs": [],
      "stateMutability": "nonpayable",
      "type": "function"
    },
    {
      "inputs": [
        {
          "internalType": "address",
          "name": "recipient",
          "type": "address"
        },
        {
          "internalType": "address",
          "name": "purchaser",
          "type": "address"
        },
        {
          "internalType": "uint256",
          "name": "amount",
          "type": "uint256"
        }
      ],
      "name": "swapWithoutFee",
      "outputs": [],
      "stateMutability": "nonpayable",
      "type": "function"
    },
    {
      "inputs": [],
      "name": "unpause",
      "outputs": [],
      "stateMutability": "nonpayable",
      "type": "function"
    },
    {
      "inputs": [
        {
          "internalType": "uint256",
          "name": "removalId",
          "type": "uint256"
        }
      ],
      "name": "withdraw",
      "outputs": [],
      "stateMutability": "nonpayable",
      "type": "function"
    }
  ],
  "numDeployments": 3,
  "bytecode": "0x60808060405234620000c6576000549060ff8260081c1662000074575060ff8082161062000038575b604051615fc29081620000cc8239f35b60ff90811916176000557f7f26b83ff96e1f2b6a682f133852f6798a09c465da95921460cefb3847402498602060405160ff8152a13862000028565b62461bcd60e51b815260206004820152602760248201527f496e697469616c697a61626c653a20636f6e747261637420697320696e697469604482015266616c697a696e6760c81b6064820152608490fd5b600080fdfe60806040526004361015610013575b600080fd5b60003560e01c806301ffc9a7146103fb57806302e0affa146103f2578063248a9ca3146103e957806325fbff7a146103e05780632c9fcbd7146103d75780632e1a7d4d146103ce5780632f2ff15d146103c55780633030b532146103bc57806332786049146103b357806336568abe146103aa57806337bdc99b146103a15780633f4ba83a14610398578063453aabc31461038f57806346e738f31461038657806347883bce1461037d5780634b66f66514610374578063596abe941461036b5780635c975abb146103625780636cf250e21461035957806374d3627b146103505780637f49f738146103475780638456cb591461033e57806384e0432214610335578063856e115a1461032c57806385d3d64b146103235780638c6b8d981461031a5780639010d07c1461031157806391d14854146103085780639a8b6829146102ff578063a12d6874146102f6578063a217fddf146102ed578063a5758566146102e4578063a8f881c0146102db578063ac9650d8146102d2578063b33f9527146102c9578063b9054257146102c0578063bc197c81146102b7578063bc347092146102ae578063c0c7028c146102a5578063ca15c8731461029c578063d004f0f714610293578063d41436ce1461028a578063d547741f14610281578063d6f0d39f14610278578063d797462f1461026f578063dfa4bb0f14610266578063e63ab1e91461025d578063e7f78c7214610254578063f23a6e611461024b5763f9c285281461024357600080fd5b61000e612621565b5061000e612583565b5061000e61255a565b5061000e61251e565b5061000e6124ed565b5061000e612497565b5061000e61245b565b5061000e61236e565b5061000e61231a565b5061000e6122d2565b5061000e6122a5565b5061000e6121ea565b5061000e6121cb565b5061000e61210c565b5061000e6120be565b5061000e611f57565b5061000e611e87565b5061000e611d6e565b5061000e611c3a565b5061000e611c1d565b5061000e611ade565b5061000e611ab7565b5061000e611a5f565b5061000e611a18565b5061000e611643565b5061000e6114ee565b5061000e6113e5565b5061000e6113a4565b5061000e611349565b5061000e611320565b5061000e611275565b5061000e611255565b5061000e611231565b5061000e6110b6565b5061000e611049565b5061000e610fb4565b5061000e610f05565b5061000e610dbf565b5061000e610d17565b5061000e610c16565b5061000e610acb565b5061000e610a42565b5061000e610a06565b5061000e6108ff565b5061000e61075b565b5061000e610732565b5061000e61062d565b5061000e6105a4565b5061000e6104d0565b503461000e57602060031936011261000e576004357fffffffff00000000000000000000000000000000000000000000000000000000811680910361000e57807f5a05180f0000000000000000000000000000000000000000000000000000000060209214908115610473575b506040519015158152f35b7f7965db0b000000000000000000000000000000000000000000000000000000008114915081156104a6575b5038610468565b7f01ffc9a7000000000000000000000000000000000000000000000000000000009150143861049f565b503461000e57602060031936011261000e576105586105486040517f9a8b68290000000000000000000000000000000000000000000000000000000081526004356004820152602081602481305afa908115610597575b600091610569575b5061013154908160640291606483040361055c576138b2565b6040519081529081906020820190565b0390f35b6105646129f3565b6138b2565b61058a915060203d8111610590575b610582818361156c565b810190613683565b3861052f565b503d610578565b61059f613692565b610527565b503461000e57602060031936011261000e5760043560005260976020526020600160406000200154604051908152f35b6001600160a01b0381160361000e57565b90815180825260208080930193019160005b828110610605575050505090565b8351855293810193928101926001016105f7565b90602061062a9281815201906105e5565b90565b503461000e5760208060031936011261000e576004359061064d826105d4565b6001600160a01b03600092168252610137815260408083209260028401549080948190600196878201549081975b86831115610702575061068e9150613740565b955b848111156106a5578551806105588982610619565b866106ba828490600052602052604060002090565b8054908a875b8381106106da5750505050506106d590612a0a565b610690565b829394976106f66106ec838596612fc1565b918481019a612b09565b5201908a9392916106c0565b9061071a610720918488528584528988205490612cd3565b92612a0a565b919061067b565b600091031261000e57565b503461000e57600060031936011261000e5760206001600160a01b0361012f5416604051908152f35b503461000e57602060031936011261000e57600435610778612fd5565b6001600160a01b038160201c1661078e8161554c565b156108d55761079d818361533e565b6107bf6107b361012d546001600160a01b031690565b6001600160a01b031690565b6040517efdd58e0000000000000000000000000000000000000000000000000000000081523060048201526024810184905290602082604481845afa9182156108c8575b6000926108a8575b50803b1561000e576040517ff242432a0000000000000000000000000000000000000000000000000000000081523060048201526001600160a01b039390931660248401526044830193909352606482015260a06084820152600060a482018190529091829060c490829084905af1801561089b575b610888575b005b806108956108869261152e565b80610727565b6108a3613692565b610881565b6108c191925060203d811161059057610582818361156c565b903861080b565b6108d0613692565b610803565b60046040517f60b39bc5000000000000000000000000000000000000000000000000000000008152fd5b503461000e57604060031936011261000e5760043561098f602435610923816105d4565b61098a60009380855260976020526109416001604087200154612905565b610949612fd5565b808552609760205260ff6109738460408820906001600160a01b0316600052602052604060002090565b5416156109935760005260c9602052604060002090565b613243565b5080f35b80855260976020526109bb8360408720906001600160a01b0316600052602052604060002090565b600160ff19825416179055336001600160a01b038416827f2f8788117e7eff1d82e926ec794901d17c78024a50270940304540a733656f0d8880a460005260c9602052604060002090565b503461000e57600060031936011261000e5760206040517f26a560d834a19637eccba4611bbc09fb32970bb627da0a70f14f83fdc9822cbc8152f35b503461000e57602060031936011261000e57600435610a5f6126e4565b610a67612fd5565b60648111610aa1576020817fb9768ed0b3c8d7421842f14094358b08617bad6081b469cd89de35a8d46678589261013355604051908152a1005b60046040517fedb73407000000000000000000000000000000000000000000000000000000008152fd5b503461000e57604060031936011261000e57602435600435610aec826105d4565b6001600160a01b03821691338303610bac5761098f91610b0a612fd5565b600093818552609760205260ff610b378460408820906001600160a01b0316600052602052604060002090565b5416610b4f575b50835260c9602052604083206132fb565b8185526097602052610b778360408720906001600160a01b0316600052602052604060002090565b60ff1981541690553390827ff6391f5c32d9c69d2a47ea670b442974b53935d1edc7fd64eb21e047a839171b8780a438610b3e565b608460405162461bcd60e51b815260206004820152602f60248201527f416363657373436f6e74726f6c3a2063616e206f6e6c792072656e6f756e636560448201527f20726f6c657320666f722073656c6600000000000000000000000000000000006064820152fd5b503461000e57602060031936011261000e57600435610c33612fd5565b610c496107b361012d546001600160a01b031690565b906001600160a01b03918281163303610ced576040517efdd58e0000000000000000000000000000000000000000000000000000000081523060048201526024810183905290602090829060449082905afa908115610ce0575b600091610cc2575b5015610cb357005b610886918160201c169061533e565b610cda915060203d811161059057610582818361156c565b38610cab565b610ce8613692565b610ca3565b60046040517f9a5ed74b000000000000000000000000000000000000000000000000000000008152fd5b503461000e57600060031936011261000e57610d316127ce565b60335460ff811615610d705760ff19166033557f5db9ee0a495bf2e6ff9c91a7834c1ba4fdd244a5e8aa4e537bd38aeae4b073aa6020604051338152a1005b606460405162461bcd60e51b815260206004820152601460248201527f5061757361626c653a206e6f74207061757365640000000000000000000000006044820152fd5b60ff81160361000e57565b503461000e5760e060031936011261000e57610886600435610de0816105d4565b610eb160243591610df0836105d4565b610e8f60443593610ec160843593610e0785610db4565b610e0f612fd5565b610e18876153c8565b610e228733614def565b98929591969097610e6760208c604051809381927fa5758566000000000000000000000000000000000000000000000000000000008352600483019190602083019252565b0381305afa908115610ef8575b600091610eda575b5060c4359160a4359160643590866151c3565b610e9761158f565b600181529860208a01526001600160a01b03166040890152565b6001600160a01b03166060870152565b608085015260a084015260c083015260e0820152614c6c565b610ef2915060203d811161059057610582818361156c565b38610e7c565b610f00613692565b610e74565b503461000e57602060031936011261000e57610558610f33600435610f29816153c8565b610131549061393c565b604051907fbc3470920000000000000000000000000000000000000000000000000000000082526004820152602081602481305afa908115610fa7575b600091610f89575b506040519081529081906020820190565b610fa1915060203d811161059057610582818361156c565b38610f78565b610faf613692565b610f70565b503461000e57606060031936011261000e57610886600435610fd5816105d4565b6001600160a01b0360243591611008604435610ff0816105d4565b610ff8612fd5565b611001856153c8565b8433614e8f565b9490936040939293519661101b8861154f565b600188526020880152336040880152166060860152608085015260a084015260c083015260e0820152614c6c565b503461000e57600060031936011261000e5760206001600160a01b0361012d5416604051908152f35b6020908160408183019282815285518094520193019160005b828110611099575050505090565b83516001600160a01b03168552938101939281019260010161108b565b503461000e57600060031936011261000e5760006110dd610135546001600160a01b031690565b906001600160a01b036001816111198261110b876001600160a01b0316600052610136602052604060002090565b01546001600160a01b031690565b166111c5575b505061112a81613740565b9161115161114c826001600160a01b0316600052610136602052604060002090565b613bca565b6000915b83831061116a57604051806105588782611072565b61119a9161118c60209261117e8689612b09565b906001600160a01b03169052565b01516001600160a01b031690565b6111be61071a61114c836001600160a01b0316600052610136602052604060002090565b9190611155565b809250916111eb8161110b866001600160a01b0316600052610136602052604060002090565b828516905b818482160361120057505061111f565b61071a8361110b61122993979596976001600160a01b0316600052610136602052604060002090565b9392916111f0565b503461000e57600060031936011261000e57602060ff603354166040519015158152f35b503461000e57600060031936011261000e57602061013354604051908152f35b503461000e57608060031936011261000e57610886600435611296816105d4565b6024356112a2816105d4565b604435916112d56064356112b5816105d4565b6112bd612fd5565b6112c56126e4565b6112ce856153c8565b8484614e8f565b949093604093929351966112e88861154f565b6000885260208801526001600160a01b038092166040880152166060860152608085015260a084015260c083015260e0820152614c6c565b503461000e57600060031936011261000e5760206001600160a01b036101325416604051908152f35b503461000e57600060031936011261000e576113636127ce565b61136b612fd5565b600160ff1960335416176033557f62e78cea01bee320cd4e420270b5ea74000d11b0c9f74754ebdbfc544b05a2586020604051338152a1005b503461000e57604060031936011261000e576113da6004356113c5816105d4565b6113cd612fd5565b6113d56126e4565b613c13565b610886602435613d51565b503461000e5761010060031936011261000e57610886600435611407816105d4565b610eb160243591611417836105d4565b610e8f60443593610ec16064359361142e856105d4565b61145660a4359561143e87610db4565b611446612fd5565b61144f896153c8565b8885614e8f565b9892959196909761149b60208c604051809381927fa5758566000000000000000000000000000000000000000000000000000000008352600483019190602083019252565b0381305afa9081156114e1575b6000916114c3575b5060e4359160c4359160843590866151c3565b6114db915060203d811161059057610582818361156c565b386114b0565b6114e9613692565b6114a8565b503461000e57600060031936011261000e5760206001600160a01b036101305416604051908152f35b50634e487b7160e01b600052604160045260246000fd5b67ffffffffffffffff811161154257604052565b61154a611517565b604052565b610100810190811067ffffffffffffffff82111761154257604052565b90601f601f19910116810190811067ffffffffffffffff82111761154257604052565b6040519061159c8261154f565b565b604051906040820182811067ffffffffffffffff82111761154257604052565b60209067ffffffffffffffff81116115d8575b60051b0190565b6115e0611517565b6115d1565b81601f8201121561000e578035916115fc836115be565b9261160a604051948561156c565b808452602092838086019260051b82010192831161000e578301905b828210611634575050505090565b81358152908301908301611626565b503461000e5760a060031936011261000e576116606004356105d4565b67ffffffffffffffff60643581811161000e576116819036906004016115e5565b9060843590811161000e5761169a9036906004016115e5565b6116a2612fd5565b6116aa6126e4565b6116c06107b361012e546001600160a01b031690565b6040517fd2f3ea43000000000000000000000000000000000000000000000000000000008152602081806116fe602435600483019190602083019252565b0381855afa908115611a0b575b6000916119ec575b50156119b6576020600491604051928380927fdd39c7500000000000000000000000000000000000000000000000000000000082525afa9081156119a9575b60009161198a575b5060443511611960576117ef916117f79161181c6107b361012d6117d46004602061178f6107b385546001600160a01b031690565b604051928380927f964eec700000000000000000000000000000000000000000000000000000000082525afa908115611953575b600091611934575b506044356156dd565b61180f6117e260443561570e565b929a8b80939b929b613771565b9a8b9a613771565b998a916118078984604435615649565b600435613db0565b546001600160a01b031690565b906118336107b361012e546001600160a01b031690565b6040519361185b8561184d60208201906001602083019252565b03601f19810187528661156c565b833b1561000e577f40a27cbb002b48214250b00c6c1b15ff8276b363217ca42c7b1720bcf269a76c946000886001600160a01b0396898361190f976118d0604051978896879586947f2eb2c2d6000000000000000000000000000000000000000000000000000000008652306004870161369f565b03925af18015611927575b611914575b506118f76107b361012f546001600160a01b031690565b926101315491604051958695169860243598866136ee565b0390a3005b806108956119219261152e565b386118e0565b61192f613692565b6118db565b61194d915060203d60201161059057610582818361156c565b386117cb565b61195b613692565b6117c3565b60046040517fb106efdf000000000000000000000000000000000000000000000000000000008152fd5b6119a3915060203d60201161059057610582818361156c565b3861175a565b6119b1613692565b611752565b6040517fb281ad8000000000000000000000000000000000000000000000000000000000815260248035600483015290fd5b0390fd5b611a05915060203d60201161059057610582818361156c565b38611713565b611a13613692565b61170b565b503461000e57604060031936011261000e5760043560005260c960205260206001600160a01b03611a4f6024356040600020612f9b565b9190546040519260031b1c168152f35b503461000e57604060031936011261000e57602060ff611aab602435611a84816105d4565b600435600052609784526040600020906001600160a01b0316600052602052604060002090565b54166040519015158152f35b503461000e57602060031936011261000e576020611ad6600435613b2d565b604051908152f35b503461000e57608060031936011261000e577f99ad00cf49121d7da2a94fdef5f9ef6c736c933295dcb1cfdfc509905fd89f31600435611b1d816105d4565b602435611b29816105d4565b611c18611bdf611bd1611bd160443595611b42876105d4565b61180f606435611b51816105d4565b611b59612823565b611b61612fd5565b6001600160a01b0373ffffffffffffffffffffffffffffffffffffffff19908061012d9516828654161785558061012e9a16828b5416178a5561012f9a16908a54161789556001600160a01b03610130911673ffffffffffffffffffffffffffffffffffffffff19825416179055565b93546001600160a01b031690565b61013054604080516001600160a01b03958616815295851660208701529184169185019190915291909116606083015281906080820190565b0390a1005b503461000e57600060031936011261000e57602060405160008152f35b503461000e5760208060031936011261000e5761054861055891600435611c60816153c8565b611caa8280611c72610131548561393c565b604051809481927fbc347092000000000000000000000000000000000000000000000000000000008352600483019190602083019252565b0381305afa918215611d61575b600092611d40575b506040517fdfa4bb0f00000000000000000000000000000000000000000000000000000000815260048101939093529091908180602481015b0381305afa928315611d33575b600093611d14575b5050612cd3565b611d2b929350803d1061059057610582818361156c565b903880611d0d565b611d3b613692565b611d05565b611cf89250611d5b90823d841161059057610582818361156c565b91611cbf565b611d69613692565b611cb7565b503461000e57600060031936011261000e57602061013154604051908152f35b9181601f8401121561000e5782359167ffffffffffffffff831161000e576020808501948460051b01011161000e57565b60005b838110611dd25750506000910152565b8181015183820152602001611dc2565b90601f19601f602093611e0081518092818752878088019101611dbf565b0116010190565b602080820190808352835180925260408301928160408460051b8301019501936000915b848310611e3b5750505050505090565b9091929394958480611e77837fffffffffffffffffffffffffffffffffffffffffffffffffffffffffffffffc086600196030187528a51611de2565b9801930193019194939290611e2b565b503461000e5760208060031936011261000e5760043567ffffffffffffffff811161000e57611eba903690600401611d8e565b611ec3816115be565b92611ed1604051948561156c565b818452601f19611ee0836115be565b0160005b818110611f485750505060005b818110611f0657604051806105588682611e07565b80611f28611f22611f1b611f43948688612a39565b3691612ad2565b30612ba9565b611f328287612b09565b52611f3d8186612b09565b50612a0a565b611ef1565b60608682018401528201611ee4565b503461000e5760e060031936011261000e57600435611f75816105d4565b611ff4602435611f84816105d4565b60443592611f91846105d4565b606435611f9d816105d4565b60843590611faa826105d4565b60005495611fcf60ff8860081c1615809881996120b0575b8115612090575b50613429565b86611fe2600160ff196000541617600055565b61205a575b60c4359460a4359461349a565b611ffa57005b6120277fffffffffffffffffffffffffffffffffffffffffffffffffffffffffffff00ff60005416600055565b604051600181527f7f26b83ff96e1f2b6a682f133852f6798a09c465da95921460cefb3847402498908060208101611c18565b61208b6101007fffffffffffffffffffffffffffffffffffffffffffffffffffffffffffff00ff6000541617600055565b611fe7565b303b159150816120a2575b5038611fc9565b6001915060ff16143861209b565b600160ff8216109150611fc2565b503461000e57600060031936011261000e57602061013454604051908152f35b9181601f8401121561000e5782359167ffffffffffffffff831161000e576020838186019501011161000e57565b503461000e5760a060031936011261000e576121296004356105d4565b6121346024356105d4565b67ffffffffffffffff60443581811161000e57612155903690600401611d8e565b60649291923582811161000e57612170903690600401611d8e565b505060843591821161000e57610558926121916121989336906004016120de565b50506137c6565b6040517fffffffff0000000000000000000000000000000000000000000000000000000090911681529081906020820190565b503461000e57602060031936011261000e576020611ad6600435613a73565b503461000e57602060031936011261000e576105586105486040517f9a8b68290000000000000000000000000000000000000000000000000000000081526004356004820152602081602481305afa908115612298575b60009161227a575b50612267610133546064018060641161226d575b6101315490612caa565b906138b2565b6122756129f3565b61225d565b612292915060203d811161059057610582818361156c565b38612249565b6122a0613692565b612241565b503461000e57602060031936011261000e5760043560005260c96020526020604060002054604051908152f35b503461000e57604060031936011261000e576108866004356122f3816105d4565b6001600160a01b0360243591612307612fd5565b612310836153c8565b6110088333614def565b503461000e57606060031936011261000e5761088660043561233b816105d4565b602435612347816105d4565b60443591612353612fd5565b61235b6126e4565b612364836153c8565b6112d58383614def565b503461000e57604060031936011261000e5760043561098f602435612392816105d4565b60009280845260976020526123ad6001604086200154612905565b6123b5612fd5565b808452609760205260ff6123df8360408720906001600160a01b0316600052602052604060002090565b54166123f6575b835260c9602052604083206132fb565b808452609760205261241e8260408620906001600160a01b0316600052602052604060002090565b60ff198154169055336001600160a01b038316827ff6391f5c32d9c69d2a47ea670b442974b53935d1edc7fd64eb21e047a839171b8780a46123e6565b503461000e57600060031936011261000e5760206040517f3fb0aaa9e8051cfc6c234a5d843bed33910f70c647055f27247c10144c7552e18152f35b503461000e57602060031936011261000e577fa01a3b548ccd65893a6acee4ea0da2602fbd2aef7e3040483b026d9544d8074c60206004356124d7612fd5565b6124df6126e4565b8061013455604051908152a1005b503461000e57602060031936011261000e57610558610f33612516610131546101335490612caa565b6004356139a2565b503461000e57600060031936011261000e5760206040517f65d7a28e3265b37a6474929f336521b332c1681b933f6cb9f3376673440d862a8152f35b503461000e57600060031936011261000e5760206001600160a01b0361012e5416604051908152f35b503461000e5760a060031936011261000e576125a06004356105d4565b6125ab6024356105d4565b60843567ffffffffffffffff811161000e576125cb9036906004016120de565b50506125d5612fd5565b6125ec6001600160a01b0361012d54163314613833565b6125f7604435615247565b60206040517ff23a6e61000000000000000000000000000000000000000000000000000000008152f35b503461000e57602060031936011261000e576001600160a01b03600435612647816105d4565b61264f6126e4565b612657612fd5565b1680156126ab5760207fe846164b6756d387276a93f2200cfd28f5792fffe3530e65d95d7535cd43dab4916101328173ffffffffffffffffffffffffffffffffffffffff19825416179055604051908152a1005b60046040517fb79b5914000000000000000000000000000000000000000000000000000000008152fd5b90600052602052604060002090565b3360009081527fb34b648d285118a9ee5f8cc4675698367f99ed092c20555b8b9380d41d2fafb5602052604090205460ff161561271d57565b6119e860486127b661272e33612db9565b6127a8612739612e63565b6040519485937f416363657373436f6e74726f6c3a206163636f756e74200000000000000000006020860152612779815180926020603789019101611dbf565b84017f206973206d697373696e6720726f6c6520000000000000000000000000000000603782015201906129cb565b03601f19810183528261156c565b60405191829162461bcd60e51b8352600483016129e2565b3360009081527f793844da0378ca0230b21a4013ef02cf55735b90b39c85241478ff94b5eceb28602052604090205460ff161561280757565b6119e860486127b661281833612db9565b6127a8612739612eff565b3360009081527f683723e34a772b6e4f2c919bba7fa32ed8ea11a8325f54da7db716e9d9dd98c7602052604090205460ff161561285c57565b61286533612db9565b600061286f612ce0565b90603061287b83612d1a565b53607861288783612d30565b5360415b600181116128aa576119e860486127b6866127a8876127398815612d6e565b90807f3031323334353637383961626364656600000000000000000000000000000000600f6128f3931660108110156128f8575b1a6128e98486612d41565b5360041c91612d60565b61288b565b612900612a22565b6128de565b80600052609760205260ff612931336040600020906001600160a01b0316600052602052604060002090565b54161561293b5750565b61294433612db9565b9061294d612ce0565b90603061295983612d1a565b53607861296583612d30565b5360415b60018111612988576119e860486127b6866127a8876127398815612d6e565b90807f3031323334353637383961626364656600000000000000000000000000000000600f6129c6931660108110156128f8571a6128e98486612d41565b612969565b906129de60209282815194859201611dbf565b0190565b90602061062a928181520190611de2565b50634e487b7160e01b600052601160045260246000fd5b6001906000198114612a1a570190565b6129de6129f3565b50634e487b7160e01b600052603260045260246000fd5b9190811015612a9a575b60051b810135907fffffffffffffffffffffffffffffffffffffffffffffffffffffffffffffffe18136030182121561000e57019081359167ffffffffffffffff831161000e57602001823603811361000e579190565b612aa2612a22565b612a43565b601f19601f60209267ffffffffffffffff8111612ac5575b01160190565b612acd611517565b612abf565b929192612ade82612aa7565b91612aec604051938461156c565b82948184528183011161000e578281602093846000960137010152565b6020918151811015612b1e575b60051b010190565b612b26612a22565b612b16565b604051906060820182811067ffffffffffffffff821117612b9c575b604052602782527f206661696c6564000000000000000000000000000000000000000000000000006040837f416464726573733a206c6f772d6c6576656c2064656c65676174652063616c6c60208201520152565b612ba4611517565b612b47565b90813b15612c005760008161062a9360208394519201905af43d15612bf9573d612bd281612aa7565b90612be0604051928361156c565b81523d6000602083013e5b612bf3612b2b565b91612c6a565b6060612beb565b608460405162461bcd60e51b815260206004820152602660248201527f416464726573733a2064656c65676174652063616c6c20746f206e6f6e2d636f60448201527f6e747261637400000000000000000000000000000000000000000000000000006064820152fd5b90919015612c76575090565b815115612c865750805190602001fd5b6119e89060405191829162461bcd60e51b8352602060048401526024830190611de2565b81810292918115918404141715612cbd57565b61159c6129f3565b9060018201809211612cbd57565b91908201809211612cbd57565b604051906080820182811067ffffffffffffffff821117612d0d575b604052604282526060366020840137565b612d15611517565b612cfc565b602090805115612d28570190565b6129de612a22565b602190805160011015612d28570190565b906020918051821015612d5357010190565b612d5b612a22565b010190565b600019908015612a1a570190565b15612d7557565b606460405162461bcd60e51b815260206004820152602060248201527f537472696e67733a20686578206c656e67746820696e73756666696369656e746044820152fd5b604051906060820182811067ffffffffffffffff821117612e56575b604052602a825260403660208401376030612def83612d1a565b536078612dfb83612d30565b536029905b60018211612e135761062a915015612d6e565b807f3031323334353637383961626364656600000000000000000000000000000000600f612e50931660108110156128f8571a6128e98486612d41565b90612e00565b612e5e611517565b612dd5565b7f3fb0aaa9e8051cfc6c234a5d843bed33910f70c647055f27247c10144c7552e1612e8c612ce0565b906030612e9883612d1a565b536078612ea483612d30565b536041905b60018211612ebc5761062a915015612d6e565b807f3031323334353637383961626364656600000000000000000000000000000000600f612ef9931660108110156128f8571a6128e98486612d41565b90612ea9565b7f65d7a28e3265b37a6474929f336521b332c1681b933f6cb9f3376673440d862a612f28612ce0565b906030612f3483612d1a565b536078612f4083612d30565b536041905b60018211612f585761062a915015612d6e565b807f3031323334353637383961626364656600000000000000000000000000000000600f612f95931660108110156128f8571a6128e98486612d41565b90612f45565b8054821015612fb4575b60005260206000200190600090565b612fbc612a22565b612fa5565b90612fcb91612f9b565b90549060031b1c90565b60ff60335416612fe157565b606460405162461bcd60e51b815260206004820152601060248201527f5061757361626c653a20706175736564000000000000000000000000000000006044820152fd5b61308890613031612fd5565b6001600160a01b0381811660009081527f683723e34a772b6e4f2c919bba7fa32ed8ea11a8325f54da7db716e9d9dd98c760205260408082205490919060ff161561308b575b80805260c960205220911690613276565b50565b80805260976020526130b284838320906001600160a01b0316600052602052604060002090565b600160ff1982541617905533838516827f2f8788117e7eff1d82e926ec794901d17c78024a50270940304540a733656f0d8180a4613077565b613088906130f7612fd5565b6001600160a01b0381811660009081527f1993b25aada9b83773e0286f0950968fd5c4a170648b02185e5fc22cc12f52dd60205260408082209091907f26a560d834a19637eccba4611bbc09fb32970bb627da0a70f14f83fdc9822cbc9060ff905b541615613171575b815260c960205220911690613276565b808252609760205261319885848420906001600160a01b0316600052602052604060002090565b600160ff1982541617905533848616827f2f8788117e7eff1d82e926ec794901d17c78024a50270940304540a733656f0d8580a4613161565b613088906131dd612fd5565b6001600160a01b0381811660009081527fb34b648d285118a9ee5f8cc4675698367f99ed092c20555b8b9380d41d2fafb560205260408082209091907f3fb0aaa9e8051cfc6c234a5d843bed33910f70c647055f27247c10144c7552e19060ff90613159565b6001600160a01b0361062a921690613276565b916132729183549060031b600019811b9283911b169119161790565b9055565b60018101908260005281602052604060002054156000146132f357826132d16132b88354680100000000000000008110156132e6575b60018101855584612f9b565b819391549060031b600019811b9283911b169119161790565b90555491600052602052604060002055600190565b6132ee611517565b6132ac565b505050600090565b6001600160a01b0361062a92169061336a565b906000198201918211612cbd57565b91908203918211612cbd57565b805490811561335457600019809201916133448383612f9b565b909182549160031b1b1916905555565b634e487b7160e01b600052603160045260246000fd5b6001810191806000528260205260406000205492831515600014613420576126d56133bd93600095600019808201828111613413575b8354918201918211613406575b8082036133c3575b50505061332a565b55600190565b6133ed6133e7916133d76133fd9487612f9b565b90549060031b1c92839187612f9b565b90613256565b8590600052602052604060002090565b553880806133b5565b61340e6129f3565b6133ad565b61341b6129f3565b6133a0565b50505050600090565b1561343057565b608460405162461bcd60e51b815260206004820152602e60248201527f496e697469616c697a61626c653a20636f6e747261637420697320616c72656160448201527f647920696e697469616c697a65640000000000000000000000000000000000006064820152fd5b959491939092936001600160a01b0392838316156126ab576135826135e196613557613588946135e69b6135b3986134d0613672565b6134d8613672565b6134e960ff60005460081c16613601565b60ff19603354166033556134fb613672565b613503613672565b61350b613672565b61012d911673ffffffffffffffffffffffffffffffffffffffff198254161790556001600160a01b0361012e911673ffffffffffffffffffffffffffffffffffffffff19825416179055565b6001600160a01b03610130911673ffffffffffffffffffffffffffffffffffffffff19825416179055565b61013355565b6001600160a01b03610132911673ffffffffffffffffffffffffffffffffffffffff19825416179055565b6135be600061013455565b6113d561013573ffffffffffffffffffffffffffffffffffffffff198154169055565b613d51565b6135ef33613025565b6135f8336130eb565b61159c336131d1565b1561360857565b608460405162461bcd60e51b815260206004820152602b60248201527f496e697469616c697a61626c653a20636f6e7472616374206973206e6f74206960448201527f6e697469616c697a696e670000000000000000000000000000000000000000006064820152fd5b61159c60ff60005460081c16613601565b9081602091031261000e575190565b506040513d6000823e3d90fd5b939061062a95936136d2916136e0946001600160a01b03809216885216602087015260a0604087015260a08601906105e5565b9084820360608601526105e5565b916080818403910152611de2565b9594939060809361371f61373b9461371161372d9460a08c5260a08c01906105e5565b908a820360208c01526105e5565b9088820360408a01526105e5565b9086820360608801526105e5565b930152565b9061374a826115be565b613757604051918261156c565b828152601f1961376782946115be565b0190602036910137565b919091805183116137b05761378583613740565b9260019182809201915b82811061379c5750505050565b80849160051b80840151908801520161378f565b634e487b7160e01b600052600160045260246000fd5b6137ce612fd5565b6137e56001600160a01b0361012d54163314613833565b60005b828110613816575050507fbc197c810000000000000000000000000000000000000000000000000000000090565b8061382961382e9260051b840135615247565b612a0a565b6137e8565b1561383a57565b606460405162461bcd60e51b815260206004820152601a60248201527f4d61726b65743a2053656e646572206e6f742052656d6f76616c0000000000006044820152fd5b50634e487b7160e01b600052601260045260246000fd5b811561389f570490565b6138a761387e565b0490565b1561000e57565b61271091600019838309928083029283808610950394808603951461392f579082916138df8684116138ab565b096001821901821680920460028082600302188083028203028083028203028083028203028083028203028083028203028092029003029360018380600003040190848311900302920304170290565b50509061062a9250613895565b6000198282098282029182808310920391808303921461399857816064111561000e577f5c28f5c28f5c28f5c28f5c28f5c28f5c28f5c28f5c28f5c28f5c28f5c28f5c29936064910990828211900360fe1b910360021c170290565b5050606491500490565b90600019818309818302918280831092039180830392146139ff57612710908282111561000e577fbc01a36e2eb1c432ca57a786c226809d495182a9930be0ded288ce703afb7e91940990828211900360fc1b910360041c170290565b505061271091500490565b9081602091031261000e575161062a81610db4565b60000b60120390607f82137fffffffffffffffffffffffffffffffffffffffffffffffffffffffffffffff80831217612cbd57565b60ff16604d8111613a66575b600a0a90565b613a6e6129f3565b613a60565b60ff600460206001600160a01b0361012f5416604051928380927f313ce5670000000000000000000000000000000000000000000000000000000082525afa908115613b20575b600091613af2575b501660128114613aee57613adb613ae39160000b613a1f565b60ff16613a54565b90811561389f570490565b5090565b613b13915060203d8111613b19575b613b0b818361156c565b810190613a0a565b38613ac2565b503d613b01565b613b28613692565b613aba565b60ff600460206001600160a01b0361012f5416604051928380927f313ce5670000000000000000000000000000000000000000000000000000000082525afa908115613bbd575b600091613b9f575b501660128114613aee5790613b99613adb61062a9360000b613a1f565b90612caa565b613bb7915060203d8111613b1957613b0b818361156c565b38613b7c565b613bc5613692565b613b74565b906040516040810181811067ffffffffffffffff821117613c06575b6040526020819360016001600160a01b0391828154168552015416910152565b613c0e611517565b613be6565b6040517f313ce5670000000000000000000000000000000000000000000000000000000081526020816004816001600160a01b0386165afa908115613d44575b600091613d26575b5060ff811660128111908115613d1b575b50613ce55750613ce081613cc67f94e2ca3c006ff5152db658db7f198e3606e0c8584958dbb13538cdd9b30ccb72936001600160a01b0361012f911673ffffffffffffffffffffffffffffffffffffffff19825416179055565b6040516001600160a01b0390911681529081906020820190565b0390a1565b6040517f094d18ae00000000000000000000000000000000000000000000000000000000815260ff919091166004820152602490fd5b600691501038613c6c565b613d3e915060203d8111613b1957613b0b818361156c565b38613c5b565b613d4c613692565b613c53565b60207f36a09eaea278b547d70faf65508009f5a7d32dfd33d27131e792f7e78bb42158918061013155604051908152a1565b9081602091031261000e575161062a816105d4565b9081602091031261000e5751801515810361000e5790565b9181613dc281613dc893979497613771565b94613771565b60005b858110613dda57505050505050565b613df06107b361012d546001600160a01b031690565b613e3e613dfd8388612b09565b5191604092835180927fb776d33300000000000000000000000000000000000000000000000000000000825281806020968795600483019190602083019252565b03915afa9081156144f4575b6000916144d7575b5081613e5e8587612b09565b51613e6d61013154809261393c565b928551838180613ea97fbc3470920000000000000000000000000000000000000000000000000000000098898352600483019190602083019252565b0381305afa9081156144ca575b6000916144ad575b50809260ff8316898b82613feb575b505050505050613f5e9250613eee6107b361012f546001600160a01b031690565b613f08613efb888b612b09565b516001600160a01b031690565b60008b8851968795869485937f23b872dd000000000000000000000000000000000000000000000000000000008552600485016040919493929460608201956001600160a01b0380921683521660208201520152565b03925af1918215613fde575b600092613fb1575b505015613f885750613f8390612a0a565b613dcb565b600490517ff27f64e4000000000000000000000000000000000000000000000000000000008152fd5b613fd09250803d10613fd7575b613fc8818361156c565b810190613d98565b3880613f72565b503d613fbe565b613fe6613692565b613f6a565b61402a96509261400e6107b39993614007614014948b97612b09565b5192612caa565b906139a2565b8951918252600482015293849081906024820190565b0381305afa9283156144a0575b60009361447d575b508261404a9161331d565b9086610130918d8a6140666107b386546001600160a01b031690565b918451927f440f5fd200000000000000000000000000000000000000000000000000000000938481528a81600481855afa908115614470575b600091614453575b506001600160a01b036140c86107b361012f9e8f546001600160a01b031690565b9116146141da575092613f5e99897ff13b9ad9c5cff251c7890be98dd7159a5dde3f28cba336aeaaf551d9da06e7e09460046141216107b36141128e9d9c9b986141879f9b612b09565b519a546001600160a01b031690565b95518096819382525afa9283156141cd575b600093614192575b506141536107b361417f92546001600160a01b031690565b8d519384938491604091949360ff60608501961684526001600160a01b03809216602085015216910152565b0390a3612cd3565b38808080898b613ecd565b61417f9193506107b36141bd614153928d803d106141c6575b6141b5818361156c565b810190613d83565b9492505061413b565b503d6141ab565b6141d5613692565b614133565b9796999850915091506141ed9250612b09565b5192803b1561000e5787517f1b2ef1ca0000000000000000000000000000000000000000000000000000000081526004810184905260248101949094528c9387916000908290604490829084905af19081614440575b5061442957506142538884612b09565b51827fc63600d29a0ef31fe04e22e26a10c75787f6f15d8a95f6b340b232481bf6d696600080a36142ab61429b896142956107b385546001600160a01b031690565b95612b09565b5160201c6001600160a01b031690565b92803b1561000e5787517fc309f8e10000000000000000000000000000000000000000000000000000000081526001600160a01b0390941660048501526024840183905261439294879461433c926107b39261432e9284926000908290818381604481015b03925af1801561441c575b614409575b50546001600160a01b031690565b92546001600160a01b031690565b60008c8951968795869485937f23b872dd000000000000000000000000000000000000000000000000000000008552600485016040919493929460608201956001600160a01b0380921683521660208201520152565b03925af19081156143fc575b6000916143df575b50156143b65781613f5e91614187565b600483517ff27f64e4000000000000000000000000000000000000000000000000000000008152fd5b6143f69150833d8511613fd757613fc8818361156c565b386143a6565b614404613692565b61439e565b806108956144169261152e565b38614320565b614424613692565b61431b565b925061433c6107b361432e6107b36143929761180f565b8061089561444d9261152e565b38614243565b61446a91508b3d8d116141c6576141b5818361156c565b386140a7565b614478613692565b61409f565b61404a91935061449990853d871161059057610582818361156c565b929061403f565b6144a8613692565b614037565b6144c49150843d861161059057610582818361156c565b38613ebe565b6144d2613692565b613eb6565b6144ee9150823d8411613b1957613b0b818361156c565b38613e52565b6144fc613692565b613e4a565b91939092846145138161451993613771565b92613771565b9260005b85811061452d5750505050505050565b6145436107b361012d546001600160a01b031690565b61454d8285612b09565b5190604090878251917fb776d33300000000000000000000000000000000000000000000000000000000835288848460208181979581839761459860049d8e83019190602083019252565b03915afa908115614c5f575b600091614c42575b50614602886145bb8b88612b09565b51866145cb61013154809361393c565b8651809581927fbc347092000000000000000000000000000000000000000000000000000000009687845283019190602083019252565b0381305afa928315614c35575b600093614c16575b5082978c60ff861691826148a0575b505050505050505061472b575b6146b0918c61465b613efb896146556107b361012f546001600160a01b031690565b93612b09565b60008a8851968795869485937f23b872dd0000000000000000000000000000000000000000000000000000000085528d85016040919493929460608201956001600160a01b0380921683521660208201520152565b03925af191821561471e575b600092614701575b5050156146db5750506146d690612a0a565b61451d565b517ff27f64e4000000000000000000000000000000000000000000000000000000008152fd5b6147179250803d10613fd757613fc8818361156c565b38806146c4565b614726613692565b6146bc565b61479b908a6147466107b361012f546001600160a01b031690565b826147648a61475e610132546001600160a01b031690565b94612b09565b518851809681927fdfa4bb0f0000000000000000000000000000000000000000000000000000000083528c83019190602083019252565b0381305afa938415614893575b600094614874575b5086517f23b872dd0000000000000000000000000000000000000000000000000000000081526001600160a01b03808c16828b0190815293166020840152604083019490945283918290600090829060600103925af1908115614867575b60009161484a575b50156148225781614633565b5050517ff27f64e4000000000000000000000000000000000000000000000000000000008152fd5b6148619150833d8511613fd757613fc8818361156c565b38614816565b61486f613692565b61480e565b61488c919450833d851161059057610582818361156c565b92386147b0565b61489b613692565b6147a8565b6148d3979a506148bc926140078b9a9b96959361400e93612b09565b908851958692839283528d83019190602083019252565b0381305afa928315614c09575b600093614be6575b50826148f39161331d565b90610130908c61490d6107b384546001600160a01b031690565b8b8d8a51937f440f5fd200000000000000000000000000000000000000000000000000000000938486528a868581845afa958615614bd9575b600096614bba575b5061012f956001600160a01b036149726107b36107b38a546001600160a01b031690565b9116146149c6575098809a9b938996936141216107b36141127ff13b9ad9c5cff251c7890be98dd7159a5dde3f28cba336aeaaf551d9da06e7e099966149b79f612b09565b915b84388080808f8c81614626565b979b50939850935050506149dc92949650612b09565b51813b1561000e5787517f1b2ef1ca000000000000000000000000000000000000000000000000000000008152808a01868152602081019290925287929091600091839182908490829060400103925af19081614ba7575b50614b945750614a44888b612b09565b51837fc63600d29a0ef31fe04e22e26a10c75787f6f15d8a95f6b340b232481bf6d696600080a3614a7f6107b382546001600160a01b031690565b614a8c61429b8a8d612b09565b92813b1561000e5761432e6107b36107b392614310600089614af7978f9a8f8f9c859151968795869485937fc309f8e10000000000000000000000000000000000000000000000000000000085528401602090939291936001600160a01b0360408201951681520152565b86517f23b872dd0000000000000000000000000000000000000000000000000000000081526001600160a01b03808c16828b019081529216602083015260408201949094528391908290600090829060600103925af1908115614b87575b600091614b6a575b50156148225781886149b9565b614b819150833d8511613fd757613fc8818361156c565b38614b5d565b614b8f613692565b614b55565b916107b361432e6107b3614af79361180f565b80610895614bb49261152e565b38614a34565b614bd29196508b3d8d116141c6576141b5818361156c565b943861494e565b614be1613692565b614946565b6148f3919350614c0290853d871161059057610582818361156c565b92906148e8565b614c11613692565b6148e0565b614c2e919350873d891161059057610582818361156c565b9138614617565b614c3d613692565b61460f565b614c599150843d8611613b1957613b0b818361156c565b386145ac565b614c67613692565b6145a4565b60a0810151614c816080830191825190613771565b90614cc5614c9560c0850151835190613771565b918284614ca28751151590565b92614cb760408901516001600160a01b031690565b90519060e089015194614501565b614d516020614cde60608601516001600160a01b031690565b94015193614d43614cfb6107b361012f546001600160a01b031690565b61013154610133549160405198899560208701919594939060a09360c0840197600085526001600160a01b038093166020860152604085015216606083015260808201520152565b03601f19810185528461156c565b614d676107b361012d546001600160a01b031690565b614d7d6107b361012e546001600160a01b031690565b92813b1561000e5760008094614dc3604051978896879586947f2eb2c2d6000000000000000000000000000000000000000000000000000000008652306004870161369f565b03925af18015614de2575b614dd55750565b8061089561159c9261152e565b614dea613692565b614dce565b90614e55600482614e5a9460206001600160a01b0361012d5416604051948580927f964eec700000000000000000000000000000000000000000000000000000000082525afa928315614e82575b600093614e62575b50614e5083836156dd565b6154af565b61570e565b929391929091565b614e7b91935060203d811161059057610582818361156c565b9138614e45565b614e8a613692565b614e3d565b819392919261012d926001600160a01b0384541692614ef6604094855198899384927f964eec70000000000000000000000000000000000000000000000000000000008452602095869160049d8e915afa928315615183575b600093615164575b506154af565b600094614f17836001600160a01b0316600052610137602052604060002090565b8697600282019081546001840154905b80821115615134575050891561510c5798949596979893614f4786613740565b9a614f5187613740565b9a996000965b8d898910614f83575b50505050505050505050614f7c90614f7784613740565b615190565b9193929190565b98809d9c989b9a99614f9488615f5b565b91614fa96107b38b546001600160a01b031690565b85517efdd58e000000000000000000000000000000000000000000000000000000008152308882019081526020810186905290929189918491908290819060400103915afa9182156150ff575b6000926150e0575b50818510156150525750508961501391612b09565b5261501e888d612b09565b5261502a600097612a0a565b9987156150465761503a90612a0a565b969b9798999a9b614f57565b88999a9b9c508d614f60565b61506091939b94925061330e565b8314806150d7575b6150ae578f828f928594615092868f9661509f9761508c61502a9b61509899612b09565b52612b09565b5261331d565b9988615de5565b8554612a0a576138298a615c76565b505050517f33aa101c000000000000000000000000000000000000000000000000000000008152fd5b50818111615068565b6150f8919250883d8a1161059057610582818361156c565b9038614ffe565b615107613692565b614ff6565b8a88517f33aa101c000000000000000000000000000000000000000000000000000000008152fd5b909a61515861515e916151518e8890600052602052604060002090565b5490612cd3565b9b612a0a565b90614f27565b61517c919350853d871161059057610582818361156c565b9138614ef0565b61518b613692565b614ee8565b51919061519c83613740565b9260019182809201915b8281106151b35750505050565b8082859260051b880152016151a6565b9094926001600160a01b03938461012f541690813b1561000e5760009660ff889460e4976040519b8c9a8b997fd505accf000000000000000000000000000000000000000000000000000000008b521660048a01523060248a01526044890152606488015216608486015260a485015260c48401525af18015614de257614dd55750565b6001600160a01b0390818160201c1691826000526101376020526152a28261529d604060002061ffff8360e01c169081600282018054801560001461530257508160018401555590600052602052604060002090565b613276565b506152c6600161110b856001600160a01b0316600052610136602052604060002090565b16156152f4575b7f3f2e35daa045b6aa1cc1d76e5337f2bce6985b354b49e998d4ce29d683190d15600080a3565b6152fd82615a7d565b6152cd565b906001840191825484106000146153255750505590600052602052604060002090565b9091508211615336575b50506126d5565b55813861532f565b6001600160a01b0382168060005261536161013792836020526040600020615de5565b600052602052600260406000200154156153785750565b61159c90615c76565b60ff7ffffffffffffffffffffffffffffffffffffffffffffffffffffffffffffffffe9116019060ff8211612cbd57565b81156153bc570690565b6153c461387e565b0690565b8015801561540b575b6153d85750565b6040517f277f4c270000000000000000000000000000000000000000000000000000000081526004810191909152602490fd5b5061547d6154776154716004602061542f6107b361012f546001600160a01b031690565b604051928380927f313ce5670000000000000000000000000000000000000000000000000000000082525afa9081156154a2575b600091615484575b50615381565b60ff1690565b826153b2565b15156153d1565b61549c915060203d8111613b1957613b0b818361156c565b3861546b565b6154aa613692565b615463565b91906154ba91615533565b905061013454116154c85750565b6001600160a01b031660009081527f1993b25aada9b83773e0286f0950968fd5c4a170648b02185e5fc22cc12f52dd602052604090205460ff161561550957565b60046040517f9ece8f2f000000000000000000000000000000000000000000000000000000008152fd5b9190828111615543576001920390565b50600091508190565b6001600160a01b0381163314908115615610575b811561556a575090565b6155d491506020906155886107b361012d546001600160a01b031690565b6040517fe985e9c50000000000000000000000000000000000000000000000000000000081526001600160a01b0390921660048301523360248301529092839190829081906044820190565b03915afa908115615603575b6000916155eb575090565b61062a915060203d8111613fd757613fc8818361156c565b61560b613692565b6155e0565b3360009081527fb34b648d285118a9ee5f8cc4675698367f99ed092c20555b8b9380d41d2fafb5602052604090205460ff169150615560565b9061565661565c916156a4565b926156a4565b821491821592615699575b505061566f57565b60046040517f49f82da6000000000000000000000000000000000000000000000000000000008152fd5b141590503880615667565b80516000929160209160051b8101820190849083015b8281106156c75750505050565b858151019586106156d95783016156ba565b5080fd5b116156e457565b60046040517f33aa101c000000000000000000000000000000000000000000000000000000008152fd5b61012d906157266107b383546001600160a01b031690565b60409384517f789e8cdf00000000000000000000000000000000000000000000000000000000815260209081816004958180615774308a83019190916001600160a01b036020820193169052565b03915afa908115615a10575b6000916159f3575b5095949091929361579887613740565b966157a281613740565b966157ac82613740565b966000956000945b8b8587106157cb575b505050505050505093929190565b908b6107b38c9b9a969798999d9c938e61587161013596886157f489546001600160a01b031690565b938d8c61583061582061581b896001600160a01b0316600052610137602052604060002090565b615f5b565b998a94546001600160a01b031690565b91517efdd58e000000000000000000000000000000000000000000000000000000008152309181019182526020820193909352919485928391829160400190565b03915afa9182156159e6575b6000926159c7575b50818710156158f657505050876158c195936158b7959361508c836158a995612b09565b52546001600160a01b031690565b61117e858b612b09565b6158cc600093612a0a565b9583156158ea576158dc90612a0a565b9493929995969798996157b4565b869798999a508b6157bd565b818b976159258561117e899f61592a96839c986158cc9f9b8361180f9c9b6159309f61508c8361508c95612b09565b61331d565b9961533e565b906001600160a01b03809181841692839116149283615995575b50505015612a0a57613829610135805473ffffffffffffffffffffffffffffffffffffffff196001600160a01b03808316600052610136602052600160406000200154169116179055565b6159bc9192935061110b6001916001600160a01b0316600052610136602052604060002090565b16141538808061594a565b6159df919250893d8b1161059057610582818361156c565b9038615885565b6159ee613692565b61587d565b615a0a9150823d841161059057610582818361156c565b38615788565b615a18613692565b615780565b8151815473ffffffffffffffffffffffffffffffffffffffff19166001600160a01b0391821617825561159c926001919060200151169101906001600160a01b031673ffffffffffffffffffffffffffffffffffffffff19825416179055565b61013590615a9282546001600160a01b031690565b6001600160a01b0392818416615b2f575050610135805473ffffffffffffffffffffffffffffffffffffffff19166001600160a01b038316179055615b05615ad861159e565b6001600160a01b03831680825260208083018290526000918252610136905260409020615a1d565b615a1d565b1680807f3a35d42f4bce14f93a24ab2ec3c4dc4cd013e5f16abcd79d5c93afa2cebc0c72600080a4565b9280615c498395615ba2615b5b61180f85976001600160a01b0316600052610136602052604060002090565b97615b84615b6761159e565b6001600160a01b038b168152916001600160a01b03166020830152565b615b00886001600160a01b0316600052610136602052604060002090565b615bef866001615bc68a6001600160a01b0316600052610136602052604060002090565b01906001600160a01b031673ffffffffffffffffffffffffffffffffffffffff19825416179055565b61180f86615c21615c0784546001600160a01b031690565b6001600160a01b0316600052610136602052604060002090565b906001600160a01b031673ffffffffffffffffffffffffffffffffffffffff19825416179055565b9416931691167f3a35d42f4bce14f93a24ab2ec3c4dc4cd013e5f16abcd79d5c93afa2cebc0c72600080a4565b6001600160a01b039081615c9e826001600160a01b0316600052610136602052604060002090565b541691615d25816001615cc5856001600160a01b0316600052610136602052604060002090565b0154169282811692838503615d4c575061013573ffffffffffffffffffffffffffffffffffffffff1981541690555b615b00615cff61159e565b9160008352600060208401526001600160a01b0316600052610136602052604060002090565b7fd853f0403f99e88d186f52744de8bd40a17410e4d2206e25ac3750410aa19737600080a4565b615d70856001615bc6896001600160a01b0316600052610136602052604060002090565b615d9286615c21876001600160a01b0316600052610136602052604060002090565b61013554168303615cf457615de0610135805473ffffffffffffffffffffffffffffffffffffffff196001600160a01b03808316600052610136602052600160406000200154169116179055565b615cf4565b61ffff8260e01c1691615e12615e0e82615e09868690600052602052604060002090565b61336a565b1590565b615f1f5750615e2d8282906000526020526040600020541590565b615e35575050565b60018082019182546002820194855491828114600014615e6557505050505090615e626000926000199055565b55565b939592938103615ece57505083615e7c8454612cc5565b905b615e8a575b5050505050565b81548111615ec957615ea6818490600052602052604060002090565b54615eba57615eb490612a0a565b84615e7e565b93505050553880808080615e83565b615e83565b9193918114615ede575050505050565b615ee8859161330e565b905b15615e835781548110615ec957615f0b818490600052602052604060002090565b54615eba57615f1990612d60565b84615eea565b6040517fb524f6fe0000000000000000000000000000000000000000000000000000000081526004810191909152602481019290925250604490fd5b60018101546000526020526040600020805415615f7f575b60005260206000205490565b615f87612a22565b615f7356fea26469706673582212209b7db9e13d75b98700d9cbf33f887a227a692aceeb0d4b33c919e97865f4d0d464736f6c63430008110033"
}