{
  "address": "0xB1a88A8c08670c1e4A76fF0bA567af92D901dE9d",
  "abi": [
    {
      "inputs": [],
      "stateMutability": "nonpayable",
      "type": "constructor"
    },
    {
      "inputs": [],
      "name": "IncorrectSupplyAllocation",
      "type": "error"
    },
    {
      "inputs": [],
      "name": "InsufficientSupply",
      "type": "error"
    },
    {
      "inputs": [],
      "name": "InvalidNoriFeePercentage",
      "type": "error"
    },
    {
      "inputs": [],
      "name": "LowSupplyAllowlistRequired",
      "type": "error"
    },
    {
      "inputs": [],
      "name": "NoriFeeWalletZeroAddress",
      "type": "error"
    },
    {
      "inputs": [
        {
          "internalType": "uint256",
          "name": "removalId",
          "type": "uint256"
        },
        {
          "internalType": "uint256",
          "name": "year",
          "type": "uint256"
        }
      ],
      "name": "RemovalNotFoundInYear",
      "type": "error"
    },
    {
      "inputs": [],
      "name": "SenderNotRemovalContract",
      "type": "error"
    },
    {
      "inputs": [],
      "name": "UnauthorizedWithdrawal",
      "type": "error"
    },
    {
      "anonymous": false,
      "inputs": [
        {
          "indexed": false,
          "internalType": "contract Removal",
          "name": "removal",
          "type": "address"
        },
        {
          "indexed": false,
          "internalType": "contract Certificate",
          "name": "certificate",
          "type": "address"
        },
        {
          "indexed": false,
          "internalType": "contract BridgedPolygonNORI",
          "name": "bridgedPolygonNORI",
          "type": "address"
        },
        {
          "indexed": false,
          "internalType": "contract RestrictedNORI",
          "name": "restrictedNORI",
          "type": "address"
        }
      ],
      "name": "ContractAddressesRegistered",
      "type": "event"
    },
    {
      "anonymous": false,
      "inputs": [
        {
          "indexed": false,
          "internalType": "uint8",
          "name": "version",
          "type": "uint8"
        }
      ],
      "name": "Initialized",
      "type": "event"
    },
    {
      "anonymous": false,
      "inputs": [
        {
          "indexed": false,
          "internalType": "uint256",
          "name": "updatedFeePercentage",
          "type": "uint256"
        }
      ],
      "name": "NoriFeePercentageUpdated",
      "type": "event"
    },
    {
      "anonymous": false,
      "inputs": [
        {
          "indexed": false,
          "internalType": "address",
          "name": "updatedWalletAddress",
          "type": "address"
        }
      ],
      "name": "NoriFeeWalletAddressUpdated",
      "type": "event"
    },
    {
      "anonymous": false,
      "inputs": [
        {
          "indexed": false,
          "internalType": "address",
          "name": "account",
          "type": "address"
        }
      ],
      "name": "Paused",
      "type": "event"
    },
    {
      "anonymous": false,
      "inputs": [
        {
          "indexed": false,
          "internalType": "uint256",
          "name": "threshold",
          "type": "uint256"
        }
      ],
      "name": "PriorityRestrictedThresholdSet",
      "type": "event"
    },
    {
      "anonymous": false,
      "inputs": [
        {
          "indexed": true,
          "internalType": "uint256",
          "name": "id",
          "type": "uint256"
        },
        {
          "indexed": true,
          "internalType": "address",
          "name": "supplierAddress",
          "type": "address"
        }
      ],
      "name": "RemovalAdded",
      "type": "event"
    },
    {
      "anonymous": false,
      "inputs": [
        {
          "indexed": true,
          "internalType": "bytes32",
          "name": "role",
          "type": "bytes32"
        },
        {
          "indexed": true,
          "internalType": "bytes32",
          "name": "previousAdminRole",
          "type": "bytes32"
        },
        {
          "indexed": true,
          "internalType": "bytes32",
          "name": "newAdminRole",
          "type": "bytes32"
        }
      ],
      "name": "RoleAdminChanged",
      "type": "event"
    },
    {
      "anonymous": false,
      "inputs": [
        {
          "indexed": true,
          "internalType": "bytes32",
          "name": "role",
          "type": "bytes32"
        },
        {
          "indexed": true,
          "internalType": "address",
          "name": "account",
          "type": "address"
        },
        {
          "indexed": true,
          "internalType": "address",
          "name": "sender",
          "type": "address"
        }
      ],
      "name": "RoleGranted",
      "type": "event"
    },
    {
      "anonymous": false,
      "inputs": [
        {
          "indexed": true,
          "internalType": "bytes32",
          "name": "role",
          "type": "bytes32"
        },
        {
          "indexed": true,
          "internalType": "address",
          "name": "account",
          "type": "address"
        },
        {
          "indexed": true,
          "internalType": "address",
          "name": "sender",
          "type": "address"
        }
      ],
      "name": "RoleRevoked",
      "type": "event"
    },
    {
      "anonymous": false,
      "inputs": [
        {
          "indexed": true,
          "internalType": "address",
          "name": "added",
          "type": "address"
        },
        {
          "indexed": true,
          "internalType": "address",
          "name": "next",
          "type": "address"
        },
        {
          "indexed": true,
          "internalType": "address",
          "name": "previous",
          "type": "address"
        }
      ],
      "name": "SupplierAdded",
      "type": "event"
    },
    {
      "anonymous": false,
      "inputs": [
        {
          "indexed": true,
          "internalType": "address",
          "name": "removed",
          "type": "address"
        },
        {
          "indexed": true,
          "internalType": "address",
          "name": "next",
          "type": "address"
        },
        {
          "indexed": true,
          "internalType": "address",
          "name": "previous",
          "type": "address"
        }
      ],
      "name": "SupplierRemoved",
      "type": "event"
    },
    {
      "anonymous": false,
      "inputs": [
        {
          "indexed": false,
          "internalType": "address",
          "name": "account",
          "type": "address"
        }
      ],
      "name": "Unpaused",
      "type": "event"
    },
    {
      "inputs": [],
      "name": "ALLOWLIST_ROLE",
      "outputs": [
        {
          "internalType": "bytes32",
          "name": "",
          "type": "bytes32"
        }
      ],
      "stateMutability": "view",
      "type": "function"
    },
    {
      "inputs": [],
      "name": "DEFAULT_ADMIN_ROLE",
      "outputs": [
        {
          "internalType": "bytes32",
          "name": "",
          "type": "bytes32"
        }
      ],
      "stateMutability": "view",
      "type": "function"
    },
    {
      "inputs": [],
      "name": "MARKET_ADMIN_ROLE",
      "outputs": [
        {
          "internalType": "bytes32",
          "name": "",
          "type": "bytes32"
        }
      ],
      "stateMutability": "view",
      "type": "function"
    },
    {
      "inputs": [],
      "name": "PAUSER_ROLE",
      "outputs": [
        {
          "internalType": "bytes32",
          "name": "",
          "type": "bytes32"
        }
      ],
      "stateMutability": "view",
      "type": "function"
    },
    {
      "inputs": [],
      "name": "bridgedPolygonNoriAddress",
      "outputs": [
        {
          "internalType": "address",
          "name": "",
          "type": "address"
        }
      ],
      "stateMutability": "view",
      "type": "function"
    },
    {
      "inputs": [
        {
          "internalType": "uint256",
          "name": "purchaseTotal",
          "type": "uint256"
        }
      ],
      "name": "calculateCertificateAmountFromPurchaseTotal",
      "outputs": [
        {
          "internalType": "uint256",
          "name": "",
          "type": "uint256"
        }
      ],
      "stateMutability": "view",
      "type": "function"
    },
    {
      "inputs": [
        {
          "internalType": "uint256",
          "name": "amount",
          "type": "uint256"
        }
      ],
      "name": "calculateCheckoutTotal",
      "outputs": [
        {
          "internalType": "uint256",
          "name": "",
          "type": "uint256"
        }
      ],
      "stateMutability": "view",
      "type": "function"
    },
    {
      "inputs": [
        {
          "internalType": "uint256",
          "name": "amount",
          "type": "uint256"
        }
      ],
      "name": "calculateNoriFee",
      "outputs": [
        {
          "internalType": "uint256",
          "name": "",
          "type": "uint256"
        }
      ],
      "stateMutability": "view",
      "type": "function"
    },
    {
      "inputs": [],
      "name": "certificateAddress",
      "outputs": [
        {
          "internalType": "address",
          "name": "",
          "type": "address"
        }
      ],
      "stateMutability": "view",
      "type": "function"
    },
    {
      "inputs": [],
      "name": "getActiveSuppliers",
      "outputs": [
        {
          "internalType": "address[]",
          "name": "suppliers",
          "type": "address[]"
        }
      ],
      "stateMutability": "view",
      "type": "function"
    },
    {
      "inputs": [
        {
          "internalType": "address",
          "name": "supplier",
          "type": "address"
        }
      ],
      "name": "getRemovalIdsForSupplier",
      "outputs": [
        {
          "internalType": "uint256[]",
          "name": "removalIds",
          "type": "uint256[]"
        }
      ],
      "stateMutability": "view",
      "type": "function"
    },
    {
      "inputs": [
        {
          "internalType": "bytes32",
          "name": "role",
          "type": "bytes32"
        }
      ],
      "name": "getRoleAdmin",
      "outputs": [
        {
          "internalType": "bytes32",
          "name": "",
          "type": "bytes32"
        }
      ],
      "stateMutability": "view",
      "type": "function"
    },
    {
      "inputs": [
        {
          "internalType": "bytes32",
          "name": "role",
          "type": "bytes32"
        },
        {
          "internalType": "uint256",
          "name": "index",
          "type": "uint256"
        }
      ],
      "name": "getRoleMember",
      "outputs": [
        {
          "internalType": "address",
          "name": "",
          "type": "address"
        }
      ],
      "stateMutability": "view",
      "type": "function"
    },
    {
      "inputs": [
        {
          "internalType": "bytes32",
          "name": "role",
          "type": "bytes32"
        }
      ],
      "name": "getRoleMemberCount",
      "outputs": [
        {
          "internalType": "uint256",
          "name": "",
          "type": "uint256"
        }
      ],
      "stateMutability": "view",
      "type": "function"
    },
    {
      "inputs": [
        {
          "internalType": "bytes32",
          "name": "role",
          "type": "bytes32"
        },
        {
          "internalType": "address",
          "name": "account",
          "type": "address"
        }
      ],
      "name": "grantRole",
      "outputs": [],
      "stateMutability": "nonpayable",
      "type": "function"
    },
    {
      "inputs": [
        {
          "internalType": "bytes32",
          "name": "role",
          "type": "bytes32"
        },
        {
          "internalType": "address",
          "name": "account",
          "type": "address"
        }
      ],
      "name": "hasRole",
      "outputs": [
        {
          "internalType": "bool",
          "name": "",
          "type": "bool"
        }
      ],
      "stateMutability": "view",
      "type": "function"
    },
    {
      "inputs": [
        {
          "internalType": "contract Removal",
          "name": "removal",
          "type": "address"
        },
        {
          "internalType": "contract BridgedPolygonNORI",
          "name": "bridgedPolygonNori",
          "type": "address"
        },
        {
          "internalType": "contract Certificate",
          "name": "certificate",
          "type": "address"
        },
        {
          "internalType": "contract RestrictedNORI",
          "name": "restrictedNori",
          "type": "address"
        },
        {
          "internalType": "address",
          "name": "noriFeeWalletAddress",
          "type": "address"
        },
        {
          "internalType": "uint256",
          "name": "noriFeePercentage_",
          "type": "uint256"
        }
      ],
      "name": "initialize",
      "outputs": [],
      "stateMutability": "nonpayable",
      "type": "function"
    },
    {
      "inputs": [
        {
          "internalType": "bytes[]",
          "name": "data",
          "type": "bytes[]"
        }
      ],
      "name": "multicall",
      "outputs": [
        {
          "internalType": "bytes[]",
          "name": "results",
          "type": "bytes[]"
        }
      ],
      "stateMutability": "nonpayable",
      "type": "function"
    },
    {
      "inputs": [],
      "name": "noriFeePercentage",
      "outputs": [
        {
          "internalType": "uint256",
          "name": "",
          "type": "uint256"
        }
      ],
      "stateMutability": "view",
      "type": "function"
    },
    {
      "inputs": [],
      "name": "noriFeeWallet",
      "outputs": [
        {
          "internalType": "address",
          "name": "",
          "type": "address"
        }
      ],
      "stateMutability": "view",
      "type": "function"
    },
    {
      "inputs": [
        {
          "internalType": "address",
          "name": "",
          "type": "address"
        },
        {
          "internalType": "address",
          "name": "",
          "type": "address"
        },
        {
          "internalType": "uint256[]",
          "name": "ids",
          "type": "uint256[]"
        },
        {
          "internalType": "uint256[]",
          "name": "",
          "type": "uint256[]"
        },
        {
          "internalType": "bytes",
          "name": "",
          "type": "bytes"
        }
      ],
      "name": "onERC1155BatchReceived",
      "outputs": [
        {
          "internalType": "bytes4",
          "name": "",
          "type": "bytes4"
        }
      ],
      "stateMutability": "nonpayable",
      "type": "function"
    },
    {
      "inputs": [
        {
          "internalType": "address",
          "name": "",
          "type": "address"
        },
        {
          "internalType": "address",
          "name": "",
          "type": "address"
        },
        {
          "internalType": "uint256",
          "name": "id",
          "type": "uint256"
        },
        {
          "internalType": "uint256",
          "name": "",
          "type": "uint256"
        },
        {
          "internalType": "bytes",
          "name": "",
          "type": "bytes"
        }
      ],
      "name": "onERC1155Received",
      "outputs": [
        {
          "internalType": "bytes4",
          "name": "",
          "type": "bytes4"
        }
      ],
      "stateMutability": "nonpayable",
      "type": "function"
    },
    {
      "inputs": [],
      "name": "pause",
      "outputs": [],
      "stateMutability": "nonpayable",
      "type": "function"
    },
    {
      "inputs": [],
      "name": "paused",
      "outputs": [
        {
          "internalType": "bool",
          "name": "",
          "type": "bool"
        }
      ],
      "stateMutability": "view",
      "type": "function"
    },
    {
      "inputs": [],
      "name": "priorityRestrictedThreshold",
      "outputs": [
        {
          "internalType": "uint256",
          "name": "",
          "type": "uint256"
        }
      ],
      "stateMutability": "view",
      "type": "function"
    },
    {
      "inputs": [
        {
          "internalType": "contract Removal",
          "name": "removal",
          "type": "address"
        },
        {
          "internalType": "contract Certificate",
          "name": "certificate",
          "type": "address"
        },
        {
          "internalType": "contract BridgedPolygonNORI",
          "name": "bridgedPolygonNORI",
          "type": "address"
        },
        {
          "internalType": "contract RestrictedNORI",
          "name": "restrictedNORI",
          "type": "address"
        }
      ],
      "name": "registerContractAddresses",
      "outputs": [],
      "stateMutability": "nonpayable",
      "type": "function"
    },
    {
      "inputs": [
        {
          "internalType": "uint256",
          "name": "removalId",
          "type": "uint256"
        },
        {
          "internalType": "uint256",
          "name": "amount",
          "type": "uint256"
        }
      ],
      "name": "release",
      "outputs": [],
      "stateMutability": "nonpayable",
      "type": "function"
    },
    {
      "inputs": [],
      "name": "removalAddress",
      "outputs": [
        {
          "internalType": "address",
          "name": "",
          "type": "address"
        }
      ],
      "stateMutability": "view",
      "type": "function"
    },
    {
      "inputs": [
        {
          "internalType": "bytes32",
          "name": "role",
          "type": "bytes32"
        },
        {
          "internalType": "address",
          "name": "account",
          "type": "address"
        }
      ],
      "name": "renounceRole",
      "outputs": [],
      "stateMutability": "nonpayable",
      "type": "function"
    },
    {
      "inputs": [],
      "name": "restrictedNoriAddress",
      "outputs": [
        {
          "internalType": "address",
          "name": "",
          "type": "address"
        }
      ],
      "stateMutability": "view",
      "type": "function"
    },
    {
      "inputs": [
        {
          "internalType": "bytes32",
          "name": "role",
          "type": "bytes32"
        },
        {
          "internalType": "address",
          "name": "account",
          "type": "address"
        }
      ],
      "name": "revokeRole",
      "outputs": [],
      "stateMutability": "nonpayable",
      "type": "function"
    },
    {
      "inputs": [
        {
          "internalType": "uint256",
          "name": "noriFeePercentage_",
          "type": "uint256"
        }
      ],
      "name": "setNoriFeePercentage",
      "outputs": [],
      "stateMutability": "nonpayable",
      "type": "function"
    },
    {
      "inputs": [
        {
          "internalType": "address",
          "name": "noriFeeWalletAddress",
          "type": "address"
        }
      ],
      "name": "setNoriFeeWallet",
      "outputs": [],
      "stateMutability": "nonpayable",
      "type": "function"
    },
    {
      "inputs": [
        {
          "internalType": "uint256",
          "name": "threshold",
          "type": "uint256"
        }
      ],
      "name": "setPriorityRestrictedThreshold",
      "outputs": [],
      "stateMutability": "nonpayable",
      "type": "function"
    },
    {
      "inputs": [
        {
          "internalType": "bytes4",
          "name": "interfaceId",
          "type": "bytes4"
        }
      ],
      "name": "supportsInterface",
      "outputs": [
        {
          "internalType": "bool",
          "name": "",
          "type": "bool"
        }
      ],
      "stateMutability": "view",
      "type": "function"
    },
    {
      "inputs": [
        {
          "internalType": "address",
          "name": "recipient",
          "type": "address"
        },
        {
          "internalType": "uint256",
          "name": "amount",
          "type": "uint256"
        },
        {
          "internalType": "uint256",
          "name": "deadline",
          "type": "uint256"
        },
        {
          "internalType": "uint8",
          "name": "v",
          "type": "uint8"
        },
        {
          "internalType": "bytes32",
          "name": "r",
          "type": "bytes32"
        },
        {
          "internalType": "bytes32",
          "name": "s",
          "type": "bytes32"
        }
      ],
      "name": "swap",
      "outputs": [],
      "stateMutability": "nonpayable",
      "type": "function"
    },
    {
      "inputs": [
        {
          "internalType": "address",
          "name": "recipient",
          "type": "address"
        },
        {
          "internalType": "uint256",
          "name": "amount",
          "type": "uint256"
        },
        {
          "internalType": "address",
          "name": "supplier",
          "type": "address"
        },
        {
          "internalType": "uint256",
          "name": "deadline",
          "type": "uint256"
        },
        {
          "internalType": "uint8",
          "name": "v",
          "type": "uint8"
        },
        {
          "internalType": "bytes32",
          "name": "r",
          "type": "bytes32"
        },
        {
          "internalType": "bytes32",
          "name": "s",
          "type": "bytes32"
        }
      ],
      "name": "swapFromSupplier",
      "outputs": [],
      "stateMutability": "nonpayable",
      "type": "function"
    },
    {
      "inputs": [],
      "name": "unpause",
      "outputs": [],
      "stateMutability": "nonpayable",
      "type": "function"
    },
    {
      "inputs": [
        {
          "internalType": "uint256",
          "name": "removalId",
          "type": "uint256"
        }
      ],
      "name": "withdraw",
      "outputs": [],
      "stateMutability": "nonpayable",
      "type": "function"
    }
  ],
  "numDeployments": 1,
  "bytecode": "0x60808060405234620000c6576000549060ff8260081c1662000074575060ff8082161062000038575b6040516149609081620000cc8239f35b60ff90811916176000557f7f26b83ff96e1f2b6a682f133852f6798a09c465da95921460cefb3847402498602060405160ff8152a13862000028565b62461bcd60e51b815260206004820152602760248201527f496e697469616c697a61626c653a20636f6e747261637420697320696e697469604482015266616c697a696e6760c81b6064820152608490fd5b600080fdfe60806040526004361015610013575b600080fd5b60003560e01c806301ffc9a71461031f5780630ac2a3211461031657806312de2b051461030d578063248a9ca31461030457806325fbff7a146102fb5780632707193b146102f25780632928d4cd146102e95780632e1a7d4d146102e05780632f2ff15d146102d75780633030b532146102ce57806332786049146102c557806336568abe146102bc578063366a4120146102b35780633f4ba83a146102aa57806354c30270146102a1578063596abe94146102985780635c975abb1461028f5780637f7081fa146102865780638456cb591461027d5780639010d07c1461027457806391d148541461026b57806395b6ef0c14610262578063a12d687414610259578063a217fddf14610250578063a575856614610247578063ac9650d81461023e578063ba40fcab14610235578063bc197c811461022c578063c0c7028c14610223578063ca15c8731461021a578063ce0ec47414610211578063d547741f14610208578063d6f0d39f146101ff578063d797462f146101f6578063dfa4bb0f146101ed578063e0751b1d146101e4578063e63ab1e9146101db578063f23a6e61146101d25763f9c28528146101ca57600080fd5b61000e611eb0565b5061000e611e12565b5061000e611dd6565b5061000e611bd7565b5061000e611ba9565b5061000e611b53565b5061000e611b17565b5061000e611a0c565b5061000e6117f3565b5061000e6117bb565b5061000e611726565b5061000e611667565b5061000e611610565b5061000e611522565b5061000e61135b565b5061000e61133e565b5061000e6111e1565b5061000e61105f565b5061000e611007565b5061000e610fc0565b5061000e610f47565b5061000e610f1e565b5061000e610efa565b5061000e610d7f565b5061000e610d1b565b5061000e610c46565b5061000e610b42565b5061000e6109bf565b5061000e610936565b5061000e6108fa565b5061000e6107d5565b5061000e610621565b5061000e6105f8565b5061000e6105cf565b5061000e6104d1565b5061000e610448565b5061000e610428565b5061000e6103ff565b503461000e57602060031936011261000e576004357fffffffff00000000000000000000000000000000000000000000000000000000811680910361000e57807f5a05180f0000000000000000000000000000000000000000000000000000000060209214908115610397575b506040519015158152f35b7f7965db0b000000000000000000000000000000000000000000000000000000008114915081156103ca575b503861038c565b7f01ffc9a700000000000000000000000000000000000000000000000000000000915014386103c3565b600091031261000e57565b503461000e57600060031936011261000e5760206001600160a01b0361012d5416604051908152f35b503461000e57600060031936011261000e57602061013354604051908152f35b503461000e57602060031936011261000e5760043560005260976020526020600160406000200154604051908152f35b6001600160a01b0381160361000e57565b90815180825260208080930193019160005b8281106104a9575050505090565b83518552938101939281019260010161049b565b9060206104ce928181520190610489565b90565b503461000e5760208060031936011261000e57600435906104f182610478565b6001600160a01b03600092168252610136815260408083209260028401549080948190600196878201549081975b868311156105aa5750610532915061338b565b955b8481111561054d5785518061054989826104bd565b0390f35b86610562828490600052602052604060002090565b8054908a875b83811061058257505050505061057d906123d2565b610534565b8293949761059e610594838596612a4c565b918481019a612526565b5201908a939291610568565b906105c26105c8918488528584528988205490612726565b926123d2565b919061051f565b503461000e57600060031936011261000e5760206001600160a01b0361012e5416604051908152f35b503461000e57600060031936011261000e5760206001600160a01b0361012f5416604051908152f35b503461000e57602060031936011261000e5760043561063e612a60565b6001600160a01b038160201c1661065481613c50565b156107ab576106638183613b7b565b61068561067961012d546001600160a01b031690565b6001600160a01b031690565b6040517efdd58e0000000000000000000000000000000000000000000000000000000081523060048201526024810184905290602082604481845afa91821561079e575b60009261076e575b50803b1561000e576040517ff242432a0000000000000000000000000000000000000000000000000000000081523060048201526001600160a01b039390931660248401526044830193909352606482015260a06084820152600060a482018190529091829060c490829084905af18015610761575b61074e575b005b8061075b61074c926122e8565b806103f4565b6107696132ac565b610747565b61079091925060203d8111610797575b6107888183612309565b81019061329d565b90386106d1565b503d61077e565b6107a66132ac565b6106c9565b60046040517f60b39bc5000000000000000000000000000000000000000000000000000000008152fd5b503461000e57604060031936011261000e576004356108656024356107f981610478565b610860600093808552609760205261081760016040872001546121db565b61081f612a60565b808552609760205260ff6108498460408820906001600160a01b0316600052602052604060002090565b5416156108695760005260c9602052604060002090565b612d24565b5080f35b80855260976020526108918360408720906001600160a01b0316600052602052604060002090565b60017fffffffffffffffffffffffffffffffffffffffffffffffffffffffffffffff00825416179055336001600160a01b038416827f2f8788117e7eff1d82e926ec794901d17c78024a50270940304540a733656f0d8880a460005260c9602052604060002090565b503461000e57600060031936011261000e5760206040517f26a560d834a19637eccba4611bbc09fb32970bb627da0a70f14f83fdc9822cbc8152f35b503461000e57602060031936011261000e57600435610953611f7e565b61095b612a60565b60648111610995576020817fd59bb01c34021659e0e3b75a738380fb053aa487902b1df9a0a0d0e30e4c7bb79261013255604051908152a1005b60046040517fedb73407000000000000000000000000000000000000000000000000000000008152fd5b503461000e57604060031936011261000e576024356004356109e082610478565b6001600160a01b03821691338303610abe57610865916109fe612a60565b600093818552609760205260ff610a2b8460408820906001600160a01b0316600052602052604060002090565b5416610a43575b50835260c960205260408320612e18565b8185526097602052610a6b8360408720906001600160a01b0316600052602052604060002090565b7fffffffffffffffffffffffffffffffffffffffffffffffffffffffffffffff0081541690553390827ff6391f5c32d9c69d2a47ea670b442974b53935d1edc7fd64eb21e047a839171b8780a438610a32565b60846040517f08c379a000000000000000000000000000000000000000000000000000000000815260206004820152602f60248201527f416363657373436f6e74726f6c3a2063616e206f6e6c792072656e6f756e636560448201527f20726f6c657320666f722073656c6600000000000000000000000000000000006064820152fd5b503461000e57604060031936011261000e57600435610b5f612a60565b610b7561067961012d546001600160a01b031690565b906001600160a01b03918281163303610c1c576040517efdd58e0000000000000000000000000000000000000000000000000000000081523060048201526024810183905290602090829060449082905afa908115610c0f575b600091610bf1575b5060243514610be257005b61074c918160201c1690613b7b565b610c09915060203d8111610797576107888183612309565b38610bd7565b610c176132ac565b610bcf565b60046040517f9a5ed74b000000000000000000000000000000000000000000000000000000008152fd5b503461000e57600060031936011261000e57610c606120a4565b60335460ff811615610cbd577fffffffffffffffffffffffffffffffffffffffffffffffffffffffffffffff00166033557f5db9ee0a495bf2e6ff9c91a7834c1ba4fdd244a5e8aa4e537bd38aeae4b073aa6020604051338152a1005b60646040517f08c379a000000000000000000000000000000000000000000000000000000000815260206004820152601460248201527f5061757361626c653a206e6f74207061757365640000000000000000000000006044820152fd5b503461000e57600060031936011261000e57602061013254604051908152f35b6020908160408183019282815285518094520193019160005b828110610d62575050505090565b83516001600160a01b031685529381019392810192600101610d54565b503461000e57600060031936011261000e576000610da6610134546001600160a01b031690565b906001600160a01b03600181610de282610dd4876001600160a01b0316600052610135602052604060002090565b01546001600160a01b031690565b16610e8e575b5050610df38161338b565b91610e1a610e15826001600160a01b0316600052610135602052604060002090565b61340d565b6000915b838310610e3357604051806105498782610d3b565b610e6391610e55602092610e478689612526565b906001600160a01b03169052565b01516001600160a01b031690565b610e876105c2610e15836001600160a01b0316600052610135602052604060002090565b9190610e1e565b80925091610eb481610dd4866001600160a01b0316600052610135602052604060002090565b828516905b8184821603610ec9575050610de8565b6105c283610dd4610ef293979596976001600160a01b0316600052610135602052604060002090565b939291610eb9565b503461000e57600060031936011261000e57602060ff603354166040519015158152f35b503461000e57600060031936011261000e5760206001600160a01b036101305416604051908152f35b503461000e57600060031936011261000e57610f616120a4565b610f69612a60565b60017fffffffffffffffffffffffffffffffffffffffffffffffffffffffffffffff0060335416176033557f62e78cea01bee320cd4e420270b5ea74000d11b0c9f74754ebdbfc544b05a2586020604051338152a1005b503461000e57604060031936011261000e5760043560005260c960205260206001600160a01b03610ff76024356040600020612a26565b9190546040519260031b1c168152f35b503461000e57604060031936011261000e57602060ff61105360243561102c81610478565b600435600052609784526040600020906001600160a01b0316600052602052604060002090565b54166040519015158152f35b503461000e5760c060031936011261000e5760043561107d81610478565b6111166024359161108d83610478565b60443561109981610478565b6064356110a581610478565b608435916110b283610478565b600054956110d760ff8860081c1615809881996111d3575b81156111b3575b50612fb9565b8661110860017fffffffffffffffffffffffffffffffffffffffffffffffffffffffffffffff006000541617600055565b61117d575b60a43594613044565b61111c57005b6111497fffffffffffffffffffffffffffffffffffffffffffffffffffffffffffff00ff60005416600055565b604051600181527f7f26b83ff96e1f2b6a682f133852f6798a09c465da95921460cefb38474024989080602081015b0390a1005b6111ae6101007fffffffffffffffffffffffffffffffffffffffffffffffffffffffffffff00ff6000541617600055565b61110d565b303b159150816111c5575b50386110d1565b6001915060ff1614386111be565b600160ff82161091506110ca565b503461000e57608060031936011261000e577fc78deb3162d413ca188c49b26907bb9e129618887c22ebe689d74b54c5d7277460043561122081610478565b60243561122c81610478565b6111786113056112f76112f76044359561124587610478565b6112ea60643561125481610478565b61125c6120f9565b611264612a60565b6001600160a01b037fffffffffffffffffffffffff0000000000000000000000000000000000000000908061012d9516828654161785558061012e9a16828b5416178a5561012f9a16908a54161789556001600160a01b0361013091167fffffffffffffffffffffffff0000000000000000000000000000000000000000825416179055565b546001600160a01b031690565b93546001600160a01b031690565b61013054604080516001600160a01b03958616815295851660208701529184169185019190915291909116606083015281906080820190565b503461000e57600060031936011261000e57602060405160008152f35b503461000e57602060031936011261000e576105496004356040517fdfa4bb0f000000000000000000000000000000000000000000000000000000008152816004820152602081602481305afa9081156113fe575b6000916113e0575b5081018091116113d3575b6040519081529081906020820190565b6113db6123a2565b6113c3565b6113f8915060203d8111610797576107888183612309565b386113b8565b6114066132ac565b6113b0565b9181601f8401121561000e5782359167ffffffffffffffff831161000e576020808501948460051b01011161000e57565b60005b83811061144f5750506000910152565b818101518382015260200161143f565b907fffffffffffffffffffffffffffffffffffffffffffffffffffffffffffffffe0601f60209361149b8151809281875287808801910161143c565b0116010190565b602080820190808352835180925260408301928160408460051b8301019501936000915b8483106114d65750505050505090565b9091929394958480611512837fffffffffffffffffffffffffffffffffffffffffffffffffffffffffffffffc086600196030187528a5161145f565b98019301930191949392906114c6565b503461000e5760208060031936011261000e5760043567ffffffffffffffff811161000e5761155590369060040161140b565b61155e8161237b565b9261156c6040519485612309565b8184527fffffffffffffffffffffffffffffffffffffffffffffffffffffffffffffffe06115998361237b565b0160005b8181106116015750505060005b8181106115bf576040518061054986826114a2565b806115e16115db6115d46115fc948688612438565b36916124ef565b306125c6565b6115eb8287612526565b526115f68186612526565b506123d2565b6115aa565b6060868201840152820161159d565b503461000e57600060031936011261000e5760206001600160a01b036101315416604051908152f35b9181601f8401121561000e5782359167ffffffffffffffff831161000e576020838186019501011161000e57565b503461000e5760a060031936011261000e57611684600435610478565b61168f602435610478565b67ffffffffffffffff60443581811161000e576116b090369060040161140b565b60649291923582811161000e576116cb90369060040161140b565b505060843591821161000e57610549926116ec6116f3933690600401611639565b50506132b9565b6040517fffffffff0000000000000000000000000000000000000000000000000000000090911681529081906020820190565b503461000e57602060031936011261000e576004356064810290808204606414901517156117ae575b6101325460640190816064116117a1575b81156117725760209160405191048152f35b7f4e487b7100000000000000000000000000000000000000000000000000000000600052601260045260246000fd5b6117a96123a2565b611760565b6117b66123a2565b61174f565b503461000e57602060031936011261000e5760043560005260c96020526020604060002054604051908152f35b60ff81160361000e57565b503461000e5760c060031936011261000e5760043561181181610478565b60643590602435611821836117e8565b611829612a60565b6040517fc0c7028c0000000000000000000000000000000000000000000000000000000081526004810182905260208082602481305afa9182156119ff575b6000926119dc575b508060046118dc9261188e61067961012d546001600160a01b031690565b604051928380927f964eec700000000000000000000000000000000000000000000000000000000082525afa9182156119cf575b6000926119b2575b50506118d68184613d4d565b82613bbe565b6118e581613d7e565b959193909461190061067961012f546001600160a01b031690565b90813b1561000e576040517fd505accf0000000000000000000000000000000000000000000000000000000081523360048201523060248201526044808201929092529035606482015260ff9098166084808a01919091523560a4808a01919091523560c489015261074c9790600090829081838160e481015b03925af180156119a5575b611992575b5033906134d2565b8061075b61199f926122e8565b3861198a565b6119ad6132ac565b611985565b6119c89250803d10610797576107888183612309565b38806118ca565b6119d76132ac565b6118c2565b8192506119f8906118dc923d8511610797576107888183612309565b9190611870565b611a076132ac565b611868565b503461000e57604060031936011261000e57600435610865602435611a3081610478565b6000928084526097602052611a4b60016040862001546121db565b611a53612a60565b808452609760205260ff611a7d8360408720906001600160a01b0316600052602052604060002090565b5416611a94575b835260c960205260408320612e18565b8084526097602052611abc8260408620906001600160a01b0316600052602052604060002090565b7fffffffffffffffffffffffffffffffffffffffffffffffffffffffffffffff008154169055336001600160a01b038316827ff6391f5c32d9c69d2a47ea670b442974b53935d1edc7fd64eb21e047a839171b8780a4611a84565b503461000e57600060031936011261000e5760206040517f3fb0aaa9e8051cfc6c234a5d843bed33910f70c647055f27247c10144c7552e18152f35b503461000e57602060031936011261000e577f7ab6aa6547859e9ca74d567d44fefa0d63272ac019f4ebf9333032a62ea06fa56020600435611b93612a60565b611b9b611f7e565b8061013355604051908152a1005b503461000e57602060031936011261000e5760206064611bce610132546004356126fb565b04604051908152f35b503461000e5760e060031936011261000e57600435611bf581610478565b60243560443591611c0583610478565b60843592611c12846117e8565b611c1a612a60565b6040517fc0c7028c000000000000000000000000000000000000000000000000000000008152600481018490529160208084602481305afa938415611dc9575b600094611da0575b5090611cc8826004611ce594611c8461067961012d546001600160a01b031690565b604051928380927f964eec700000000000000000000000000000000000000000000000000000000082525afa918215611d93575b600092611d76575b505085613bbe565b611cd283856140ee565b9591939094611ce08561338b565b6133da565b95611cfc61067961012f546001600160a01b031690565b90813b1561000e576040517fd505accf0000000000000000000000000000000000000000000000000000000081523360048201523060248201526044810191909152606480359082015260ff909816608489015260a480359089015260c480359089015261074c9790600090829081838160e4810161197a565b611d8c9250803d10610797576107888183612309565b3880611cc0565b611d9b6132ac565b611cb8565b819450611dc0611cc891611ce594933d8811610797576107888183612309565b94919250611c62565b611dd16132ac565b611c5a565b503461000e57600060031936011261000e5760206040517f65d7a28e3265b37a6474929f336521b332c1681b933f6cb9f3376673440d862a8152f35b503461000e5760a060031936011261000e57611e2f600435610478565b611e3a602435610478565b60843567ffffffffffffffff811161000e57611e5a903690600401611639565b5050611e64612a60565b611e7b6001600160a01b0361012d54163314613326565b611e86604435613a84565b60206040517ff23a6e61000000000000000000000000000000000000000000000000000000008152f35b503461000e57602060031936011261000e576001600160a01b03600435611ed681610478565b611ede611f7e565b611ee6612a60565b168015611f455760207f7402811ec5c6ac0812f87b424c701061494fd424fdb0695cd14623cc65a8f2a591610131817fffffffffffffffffffffffff0000000000000000000000000000000000000000825416179055604051908152a1005b60046040517fb79b5914000000000000000000000000000000000000000000000000000000008152fd5b90600052602052604060002090565b3360009081527fb34b648d285118a9ee5f8cc4675698367f99ed092c20555b8b9380d41d2fafb5602052604090205460ff1615611fb757565b6120a0604861206e611fc833612844565b612042611fd36128ee565b6040519485937f416363657373436f6e74726f6c3a206163636f756e7420000000000000000000602086015261201381518092602060378901910161143c565b84017f206973206d697373696e6720726f6c6520000000000000000000000000000000603782015201906122a1565b037fffffffffffffffffffffffffffffffffffffffffffffffffffffffffffffffe08101835282612309565b6040519182917f08c379a00000000000000000000000000000000000000000000000000000000083526004830161234a565b0390fd5b3360009081527f793844da0378ca0230b21a4013ef02cf55735b90b39c85241478ff94b5eceb28602052604090205460ff16156120dd57565b6120a0604861206e6120ee33612844565b612042611fd361298a565b3360009081527f683723e34a772b6e4f2c919bba7fa32ed8ea11a8325f54da7db716e9d9dd98c7602052604090205460ff161561213257565b61213b33612844565b6000612145612733565b9060306121518361276d565b53607861215d83612783565b5360415b60018111612180576120a0604861206e8661204287611fd388156127df565b90807f3031323334353637383961626364656600000000000000000000000000000000600f6121c9931660108110156121ce575b1a6121bf8486612794565b5360041c916127b3565b612161565b6121d6612408565b6121b4565b80600052609760205260ff612207336040600020906001600160a01b0316600052602052604060002090565b5416156122115750565b61221a33612844565b90612223612733565b90603061222f8361276d565b53607861223b83612783565b5360415b6001811161225e576120a0604861206e8661204287611fd388156127df565b90807f3031323334353637383961626364656600000000000000000000000000000000600f61229c931660108110156121ce571a6121bf8486612794565b61223f565b906122b46020928281519485920161143c565b0190565b507f4e487b7100000000000000000000000000000000000000000000000000000000600052604160045260246000fd5b67ffffffffffffffff81116122fc57604052565b6123046122b8565b604052565b90601f7fffffffffffffffffffffffffffffffffffffffffffffffffffffffffffffffe0910116810190811067ffffffffffffffff8211176122fc57604052565b9060206104ce92818152019061145f565b604051906040820182811067ffffffffffffffff8211176122fc57604052565b60209067ffffffffffffffff8111612395575b60051b0190565b61239d6122b8565b61238e565b507f4e487b7100000000000000000000000000000000000000000000000000000000600052601160045260246000fd5b6001907fffffffffffffffffffffffffffffffffffffffffffffffffffffffffffffffff8114612400570190565b6122b46123a2565b507f4e487b7100000000000000000000000000000000000000000000000000000000600052603260045260246000fd5b9190811015612499575b60051b810135907fffffffffffffffffffffffffffffffffffffffffffffffffffffffffffffffe18136030182121561000e57019081359167ffffffffffffffff831161000e57602001823603811361000e579190565b6124a1612408565b612442565b7fffffffffffffffffffffffffffffffffffffffffffffffffffffffffffffffe0601f60209267ffffffffffffffff81116124e2575b01160190565b6124ea6122b8565b6124dc565b9291926124fb826124a6565b916125096040519384612309565b82948184528183011161000e578281602093846000960137010152565b602091815181101561253b575b60051b010190565b612543612408565b612533565b604051906060820182811067ffffffffffffffff8211176125b9575b604052602782527f206661696c6564000000000000000000000000000000000000000000000000006040837f416464726573733a206c6f772d6c6576656c2064656c65676174652063616c6c60208201520152565b6125c16122b8565b612564565b90813b1561261d576000816104ce9360208394519201905af43d15612616573d6125ef816124a6565b906125fd6040519283612309565b81523d6000602083013e5b612610612548565b916126a1565b6060612608565b60846040517f08c379a000000000000000000000000000000000000000000000000000000000815260206004820152602660248201527f416464726573733a2064656c65676174652063616c6c20746f206e6f6e2d636f60448201527f6e747261637400000000000000000000000000000000000000000000000000006064820152fd5b909190156126ad575090565b8151156126bd5750805190602001fd5b6120a0906040519182917f08c379a000000000000000000000000000000000000000000000000000000000835260206004840152602483019061145f565b8181029291811591840414171561270e57565b6127166123a2565b565b906001820180921161270e57565b9190820180921161270e57565b604051906080820182811067ffffffffffffffff821117612760575b604052604282526060366020840137565b6127686122b8565b61274f565b60209080511561277b570190565b6122b4612408565b60219080516001101561277b570190565b9060209180518210156127a657010190565b6127ae612408565b010190565b7fffffffffffffffffffffffffffffffffffffffffffffffffffffffffffffffff908015612400570190565b156127e657565b60646040517f08c379a000000000000000000000000000000000000000000000000000000000815260206004820152602060248201527f537472696e67733a20686578206c656e67746820696e73756666696369656e746044820152fd5b604051906060820182811067ffffffffffffffff8211176128e1575b604052602a82526040366020840137603061287a8361276d565b53607861288683612783565b536029905b6001821161289e576104ce9150156127df565b807f3031323334353637383961626364656600000000000000000000000000000000600f6128db931660108110156121ce571a6121bf8486612794565b9061288b565b6128e96122b8565b612860565b7f3fb0aaa9e8051cfc6c234a5d843bed33910f70c647055f27247c10144c7552e1612917612733565b9060306129238361276d565b53607861292f83612783565b536041905b60018211612947576104ce9150156127df565b807f3031323334353637383961626364656600000000000000000000000000000000600f612984931660108110156121ce571a6121bf8486612794565b90612934565b7f65d7a28e3265b37a6474929f336521b332c1681b933f6cb9f3376673440d862a6129b3612733565b9060306129bf8361276d565b5360786129cb83612783565b536041905b600182116129e3576104ce9150156127df565b807f3031323334353637383961626364656600000000000000000000000000000000600f612a20931660108110156121ce571a6121bf8486612794565b906129d0565b8054821015612a3f575b60005260206000200190600090565b612a47612408565b612a30565b90612a5691612a26565b90549060031b1c90565b60ff60335416612a6c57565b60646040517f08c379a000000000000000000000000000000000000000000000000000000000815260206004820152601060248201527f5061757361626c653a20706175736564000000000000000000000000000000006044820152fd5b612b2d90612ad6612a60565b6001600160a01b0381811660009081527f683723e34a772b6e4f2c919bba7fa32ed8ea11a8325f54da7db716e9d9dd98c760205260408082205490919060ff1615612b30575b80805260c960205220911690612d75565b50565b8080526097602052612b5784838320906001600160a01b0316600052602052604060002090565b60017fffffffffffffffffffffffffffffffffffffffffffffffffffffffffffffff0082541617905533838516827f2f8788117e7eff1d82e926ec794901d17c78024a50270940304540a733656f0d8180a4612b1c565b612b2d90612bba612a60565b6001600160a01b0381811660009081527f1993b25aada9b83773e0286f0950968fd5c4a170648b02185e5fc22cc12f52dd60205260408082209091907f26a560d834a19637eccba4611bbc09fb32970bb627da0a70f14f83fdc9822cbc9060ff905b541615612c34575b815260c960205220911690612d75565b8082526097602052612c5b85848420906001600160a01b0316600052602052604060002090565b60017fffffffffffffffffffffffffffffffffffffffffffffffffffffffffffffff0082541617905533848616827f2f8788117e7eff1d82e926ec794901d17c78024a50270940304540a733656f0d8580a4612c24565b612b2d90612cbe612a60565b6001600160a01b0381811660009081527fb34b648d285118a9ee5f8cc4675698367f99ed092c20555b8b9380d41d2fafb560205260408082209091907f3fb0aaa9e8051cfc6c234a5d843bed33910f70c647055f27247c10144c7552e19060ff90612c1c565b6001600160a01b036104ce921690612d75565b91612d719183549060031b7fffffffffffffffffffffffffffffffffffffffffffffffffffffffffffffffff811b9283911b169119161790565b9055565b6001810190826000528160205260406000205415600014612e105782612dee612db7835468010000000000000000811015612e03575b60018101855584612a26565b819391549060031b7fffffffffffffffffffffffffffffffffffffffffffffffffffffffffffffffff811b9283911b169119161790565b90555491600052602052604060002055600190565b612e0b6122b8565b612dab565b505050600090565b6001600160a01b036104ce921690612edc565b907fffffffffffffffffffffffffffffffffffffffffffffffffffffffffffffffff820191821161270e57565b9190820391821161270e57565b8054908115612ead577fffffffffffffffffffffffffffffffffffffffffffffffffffffffffffffffff80920191612e9d8383612a26565b909182549160031b1b1916905555565b7f4e487b7100000000000000000000000000000000000000000000000000000000600052603160045260246000fd5b6001810191806000528260205260406000205492831515600014612fb057611f6f612f4d936000957fffffffffffffffffffffffffffffffffffffffffffffffffffffffffffffffff808201828111612fa3575b8354918201918211612f96575b808203612f53575b505050612e65565b55600190565b612f7d612f7791612f67612f8d9487612a26565b90549060031b1c92839187612a26565b90612d37565b8590600052602052604060002090565b55388080612f45565b612f9e6123a2565b612f3d565b612fab6123a2565b612f30565b50505050600090565b15612fc057565b60846040517f08c379a000000000000000000000000000000000000000000000000000000000815260206004820152602e60248201527f496e697469616c697a61626c653a20636f6e747261637420697320616c72656160448201527f647920696e697469616c697a65640000000000000000000000000000000000006064820152fd5b90929491946001600160a01b0380861615611f45576131ad96613177956131719461313b9361307161328c565b61307961328c565b61308a60ff60005460081c16613201565b7fffffffffffffffffffffffffffffffffffffffffffffffffffffffffffffff00603354166033556130ba61328c565b6130c261328c565b6130ca61328c565b7fffffffffffffffffffffffff0000000000000000000000000000000000000000918161012d91168382541617905561012f9216908254161790556001600160a01b0361012e91167fffffffffffffffffffffffff0000000000000000000000000000000000000000825416179055565b6001600160a01b0361013091167fffffffffffffffffffffffff0000000000000000000000000000000000000000825416179055565b61013255565b6001600160a01b0361013191167fffffffffffffffffffffffff0000000000000000000000000000000000000000825416179055565b6131b8600061013355565b6131e66101347fffffffffffffffffffffffff00000000000000000000000000000000000000008154169055565b6131ef33612aca565b6131f833612bae565b61271633612cb2565b1561320857565b60846040517f08c379a000000000000000000000000000000000000000000000000000000000815260206004820152602b60248201527f496e697469616c697a61626c653a20636f6e7472616374206973206e6f74206960448201527f6e697469616c697a696e670000000000000000000000000000000000000000006064820152fd5b61271660ff60005460081c16613201565b9081602091031261000e575190565b506040513d6000823e3d90fd5b6132c1612a60565b6132d86001600160a01b0361012d54163314613326565b60005b828110613309575050507fbc197c810000000000000000000000000000000000000000000000000000000090565b8061331c6133219260051b840135613a84565b6123d2565b6132db565b1561332d57565b60646040517f08c379a000000000000000000000000000000000000000000000000000000000815260206004820152601a60248201527f4d61726b65743a2053656e646572206e6f742052656d6f76616c0000000000006044820152fd5b906133958261237b565b6133a26040519182612309565b8281527fffffffffffffffffffffffffffffffffffffffffffffffffffffffffffffffe06133d0829461237b565b0190602036910137565b5191906133e68361338b565b9260019182809201915b8281106133fd5750505050565b8082859260051b880152016133f0565b906040516040810181811067ffffffffffffffff821117613449575b6040526020819360016001600160a01b0391828154168552015416910152565b6134516122b8565b613429565b9081602091031261000e57516104ce816117e8565b9081602091031261000e5751801515810361000e5790565b93906104ce95936134b6916134c4946001600160a01b03809216885216602087015260a0604087015260a0860190610489565b908482036060860152610489565b91608081840391015261145f565b959093836134e6816134ec93969596613a47565b96613a47565b9360005b8381106135c3575050604080516001600160a01b03949094166020850152838101969096525050928352613525606084612309565b61353b61067961012d546001600160a01b031690565b61355161067961012e546001600160a01b031690565b92813b1561000e5760008094613597604051978896879586947f2eb2c2d60000000000000000000000000000000000000000000000000000000086523060048701613483565b03925af180156135b6575b6135a95750565b8061075b612716926122e8565b6135be6132ac565b6135a2565b806135ce8188612526565b516135e561067961012d546001600160a01b031690565b9084866135f2858d612526565b516040938d60ff865180987fb776d3330000000000000000000000000000000000000000000000000000000082526020998a91818061363a60049a8b83019190602083019252565b03915afa908115613a3a575b600091613a0d575b50168061386f575b505090859392918d8561012f9286826136d38d828d61369c6136826106798c546001600160a01b031690565b93613696610131546001600160a01b031690565b9a612526565b519051809481927fdfa4bb0f0000000000000000000000000000000000000000000000000000000083528d83019190602083019252565b0381305afa918215613862575b600092613843575b508c5180809581947f23b872dd000000000000000000000000000000000000000000000000000000009a8b84528d840192613740936040919493929460608201956001600160a01b0380921683521660208201520152565b03915a90600091f180159d61377e6137d89f6000986137c197613791966137849661067994613836575b613818575b5050546001600160a01b031690565b98612526565b516001600160a01b031690565b985198899788968795865285016040919493929460608201956001600160a01b0380921683521660208201520152565b03925af1801561380b575b6137dd575b50506123d2565b6134f0565b816137fc92903d10613804575b6137f48183612309565b81019061346b565b5038806137d1565b503d6137ea565b6138136132ac565b6137cc565b8161382e92903d10613804576137f48183612309565b508d3861376f565b61383e6132ac565b61376a565b61385b919250833d8511610797576107888183612309565b90386136e8565b61386a6132ac565b6136e0565b6138959398506138879195508261388e9395506126fb565b6064900490565b8092612e58565b94610130906138b8886138b261067985546001600160a01b031690565b95612526565b5196843b1561000e576139a787858d9561391860008f999d8f9e9b869c838f8c9051968795869485937f1b2ef1ca000000000000000000000000000000000000000000000000000000008552840160209093929193604081019481520152565b03925af18015613a00575b6139ed575b5061395361067961394561067961012f546001600160a01b031690565b92546001600160a01b031690565b60008b518096819582947f23b872dd0000000000000000000000000000000000000000000000000000000084528d8c85016040919493929460608201956001600160a01b0380921683521660208201520152565b03925af180156139e0575b6139c3575b8f919293949550613656565b6139d990863d8811613804576137f48183612309565b50386139b7565b6139e86132ac565b6139b2565b8061075b6139fa926122e8565b38613928565b613a086132ac565b613923565b613a2d9150893d8b11613a33575b613a258183612309565b810190613456565b3861364e565b503d613a1b565b613a426132ac565b613646565b919082518111613a55578252565b7f4e487b7100000000000000000000000000000000000000000000000000000000600052600160045260246000fd5b6001600160a01b0390818160201c169182600052610136602052613adf82613ada604060002061ffff8360e01c1690816002820180548015600014613b3f57508160018401555590600052602052604060002090565b612d75565b50613b036001610dd4856001600160a01b0316600052610135602052604060002090565b1615613b31575b7f66b629ea1d6139d2235af17d85b735aa8c672844f70628e4873054785daa06bd600080a3565b613b3a826143c6565b613b0a565b90600184019182548410600014613b625750505590600052602052604060002090565b9091508211613b73575b5050611f6f565b558138613b6c565b6001600160a01b03821680600052613b9e61013692836020526040600020614765565b60005260205260026040600020015415613bb55750565b612716906145e0565b613bc791613c37565b90506101335411613bd457565b3360009081527f1993b25aada9b83773e0286f0950968fd5c4a170648b02185e5fc22cc12f52dd602052604090205460ff1615613c0d57565b60046040517f9ece8f2f000000000000000000000000000000000000000000000000000000008152fd5b9190828111613c47576001920390565b50600091508190565b6001600160a01b0381163314908115613d14575b8115613c6e575090565b613cd89150602090613c8c61067961012d546001600160a01b031690565b6040517fe985e9c50000000000000000000000000000000000000000000000000000000081526001600160a01b0390921660048301523360248301529092839190829081906044820190565b03915afa908115613d07575b600091613cef575090565b6104ce915060203d8111613804576137f48183612309565b613d0f6132ac565b613ce4565b3360009081527fb34b648d285118a9ee5f8cc4675698367f99ed092c20555b8b9380d41d2fafb5602052604090205460ff169150613c64565b11613d5457565b60046040517f33aa101c000000000000000000000000000000000000000000000000000000008152fd5b908161012d90613d9861067983546001600160a01b031690565b926040928351947f789e8cdf00000000000000000000000000000000000000000000000000000000865260209485876004938180613de8308883019190916001600160a01b036020820193169052565b03915afa9687156140b1575b600097614092575b50909192939596613e0c8861338b565b97613e168161338b565b97613e208261338b565b978a60009788935b858510613e72575b505050505050613e3f876140be565b03613e4c57505093929190565b517f782d9fd8000000000000000000000000000000000000000000000000000000008152fd5b9a8c9b8897969d8a99839d9c96979b613f19610134958a613e9a88546001600160a01b031690565b93613ec1613ebc866001600160a01b0316600052610136602052604060002090565b6148f9565b958691613ed86106798d546001600160a01b031690565b91517efdd58e000000000000000000000000000000000000000000000000000000008152309181019182526020820193909352919485928391829160400190565b03915afa918215614085575b600092614066575b5081861015613fa85750505091613f5787613f6f9593613f6595613f51838b612526565b52612526565b52546001600160a01b031690565b610e47858d612526565b613f7a6000936123d2565b978315613f9a57613f8a906123d2565b93929b9495969798999a9b613e28565b85969798999a9b9c50613e30565b818a96613fd885610e478a899f968f98613f51613f7a9f9c99613fe39e613fdd9b613f516112ea9f9e8490612526565b612e58565b98613b7b565b6140066001610dd4836001600160a01b0316600052610135602052604060002090565b6001600160a01b039081169116146123d25761331c61013480547fffffffffffffffffffffffff00000000000000000000000000000000000000006001600160a01b03808316600052610135602052600160406000200154169116179055565b61407e9192508b3d8d11610797576107888183612309565b9038613f2d565b61408d6132ac565b613f25565b6140aa919750863d8811610797576107888183612309565b9538613dfc565b6140b96132ac565b613df4565b90600091805190602081818093019360051b01015b8083106140df57505050565b825190940193918101916140d3565b909161410e836001600160a01b0316600052610136602052604060002090565b90600093600283019384546001850154905b808211156143205750508515613d5457909192938161413e8761338b565b966141488161338b565b9660009586935b83851061419a575b505050505050614166846140be565b0361417057929190565b60046040517f782d9fd8000000000000000000000000000000000000000000000000000000008152fd5b6141aa839a99989597969a6148f9565b6141c061067961012d546001600160a01b031690565b604080517efdd58e0000000000000000000000000000000000000000000000000000000081523060048083019190915260248201859052602093909291908490829060449082905afa938415614313575b6000946142f4575b50508285101561426e57505050614230868d612526565b5261423b858a612526565b526142476000946123d2565b95841561426357614257906123d2565b9398949596979861414f565b859697989950614157565b61427c889995939499612e2b565b8514806142eb575b6142c55750506142af826142b6928f946142a98f97614247988d613f5183809b612526565b52612e58565b9685614765565b8a546123d25761331c836145e0565b517f33aa101c000000000000000000000000000000000000000000000000000000008152fd5b50838311614284565b61430b929450803d10610797576107888183612309565b913880614219565b61431b6132ac565b614211565b909661434461434a9161433d8a8990600052602052604060002090565b5490612726565b976123d2565b90614120565b815181547fffffffffffffffffffffffff0000000000000000000000000000000000000000166001600160a01b03918216178255612716926001919060200151169101906001600160a01b03167fffffffffffffffffffffffff0000000000000000000000000000000000000000825416179055565b610134906143db82546001600160a01b031690565b6001600160a01b039281841661448357505061013480547fffffffffffffffffffffffff0000000000000000000000000000000000000000166001600160a01b03831617905561445961442c61235b565b6001600160a01b03831680825260208083018290526000918252610135905260409020614350565b614350565b1680807f4514cfa2dddfc0c95fbbe6daf05b1b5363a1dcce031beaaf21a4aef88854d43b600080a4565b92806145b383956144f66144af6112ea85976001600160a01b0316600052610135602052604060002090565b976144d86144bb61235b565b6001600160a01b038b168152916001600160a01b03166020830152565b614454886001600160a01b0316600052610135602052604060002090565b61454e86600161451a8a6001600160a01b0316600052610135602052604060002090565b01906001600160a01b03167fffffffffffffffffffffffff0000000000000000000000000000000000000000825416179055565b6112ea8661458061456684546001600160a01b031690565b6001600160a01b0316600052610135602052604060002090565b906001600160a01b03167fffffffffffffffffffffffff0000000000000000000000000000000000000000825416179055565b9416931691167f4514cfa2dddfc0c95fbbe6daf05b1b5363a1dcce031beaaf21a4aef88854d43b600080a4565b6001600160a01b039081614608826001600160a01b0316600052610135602052604060002090565b54169161469a81600161462f856001600160a01b0316600052610135602052604060002090565b01541692828116928385036146c157506101347fffffffffffffffffffffffff000000000000000000000000000000000000000081541690555b61445461467461235b565b9160008352600060208401526001600160a01b0316600052610135602052604060002090565b7f09bf71858fe1201df1c9aa532d62109ec42599145cc7afd14a18b0ef00ce44b4600080a4565b6146e585600161451a896001600160a01b0316600052610135602052604060002090565b61470786614580876001600160a01b0316600052610135602052604060002090565b610134541683036146695761476061013480547fffffffffffffffffffffffff00000000000000000000000000000000000000006001600160a01b03808316600052610135602052600160406000200154169116179055565b614669565b61ffff8260e01c169161479261478e82614789868690600052602052604060002090565b612edc565b1590565b6148bd57506147ad8282906000526020526040600020541590565b6147b5575050565b60018082019182546002820194855491828114600014614803575050505050906148006000927fffffffffffffffffffffffffffffffffffffffffffffffffffffffffffffffff9055565b55565b93959293810361486c5750508361481a8454612718565b905b614828575b5050505050565b8154811161486757614844818490600052602052604060002090565b5461485857614852906123d2565b8461481c565b93505050553880808080614821565b614821565b919391811461487c575050505050565b6148868591612e2b565b905b156148215781548110614867576148a9818490600052602052604060002090565b54614858576148b7906127b3565b84614888565b6040517fb524f6fe0000000000000000000000000000000000000000000000000000000081526004810191909152602481019290925250604490fd5b6001810154600052602052604060002080541561491d575b60005260206000205490565b614925612408565b61491156fea26469706673582212203afbfdb8758f14ffeba0bc7b9b9b53a18c871847e30b110ca202e0fde51e02be64736f6c63430008110033"
}