{
  "address": "0x766d47301897A5Fe4A1ddCB4d06Aad80785A9AeE",
  "abi": [
    {
      "inputs": [],
      "stateMutability": "nonpayable",
      "type": "constructor"
    },
    {
      "inputs": [],
      "name": "ForbiddenTransfer",
      "type": "error"
    },
    {
      "inputs": [],
      "name": "InvalidData",
      "type": "error"
    },
    {
      "inputs": [
        {
          "internalType": "uint8",
          "name": "holdbackPercentage",
          "type": "uint8"
        }
      ],
      "name": "InvalidHoldbackPercentage",
      "type": "error"
    },
    {
      "inputs": [
        {
          "internalType": "uint256",
          "name": "tokenId",
          "type": "uint256"
        }
      ],
      "name": "InvalidTokenTransfer",
      "type": "error"
    },
    {
      "inputs": [
        {
          "internalType": "uint8",
          "name": "methodology",
          "type": "uint8"
        }
      ],
      "name": "MethodologyTooLarge",
      "type": "error"
    },
    {
      "inputs": [
        {
          "internalType": "uint8",
          "name": "methodologyVersion",
          "type": "uint8"
        }
      ],
      "name": "MethodologyVersionTooLarge",
      "type": "error"
    },
    {
      "inputs": [
        {
          "internalType": "uint256",
          "name": "tokenId",
          "type": "uint256"
        }
      ],
      "name": "RemovalAlreadySoldOrConsigned",
      "type": "error"
    },
    {
      "inputs": [
        {
          "internalType": "uint256",
          "name": "tokenId",
          "type": "uint256"
        }
      ],
      "name": "RemovalNotYetMinted",
      "type": "error"
    },
    {
      "inputs": [
        {
          "internalType": "bytes2",
          "name": "country",
          "type": "bytes2"
        },
        {
          "internalType": "bytes2",
          "name": "subdivision",
          "type": "bytes2"
        }
      ],
      "name": "UncapitalizedString",
      "type": "error"
    },
    {
      "inputs": [
        {
          "internalType": "uint8",
          "name": "idVersion",
          "type": "uint8"
        }
      ],
      "name": "UnsupportedIdVersion",
      "type": "error"
    },
    {
      "anonymous": false,
      "inputs": [
        {
          "indexed": true,
          "internalType": "address",
          "name": "account",
          "type": "address"
        },
        {
          "indexed": true,
          "internalType": "address",
          "name": "operator",
          "type": "address"
        },
        {
          "indexed": false,
          "internalType": "bool",
          "name": "approved",
          "type": "bool"
        }
      ],
      "name": "ApprovalForAll",
      "type": "event"
    },
    {
      "anonymous": false,
      "inputs": [
        {
          "indexed": false,
          "internalType": "uint8",
          "name": "version",
          "type": "uint8"
        }
      ],
      "name": "Initialized",
      "type": "event"
    },
    {
      "anonymous": false,
      "inputs": [
        {
          "indexed": true,
          "internalType": "address",
          "name": "certificateRecipient",
          "type": "address"
        },
        {
          "indexed": true,
          "internalType": "uint256",
          "name": "certificateAmount",
          "type": "uint256"
        },
        {
          "indexed": true,
          "internalType": "uint256",
          "name": "certificateId",
          "type": "uint256"
        },
        {
          "indexed": false,
          "internalType": "uint256[]",
          "name": "removalIds",
          "type": "uint256[]"
        },
        {
          "indexed": false,
          "internalType": "uint256[]",
          "name": "removalAmounts",
          "type": "uint256[]"
        }
      ],
      "name": "Migrate",
      "type": "event"
    },
    {
      "anonymous": false,
      "inputs": [
        {
          "indexed": false,
          "internalType": "address",
          "name": "account",
          "type": "address"
        }
      ],
      "name": "Paused",
      "type": "event"
    },
    {
      "anonymous": false,
      "inputs": [
        {
          "indexed": false,
          "internalType": "contract IMarket",
          "name": "market",
          "type": "address"
        },
        {
          "indexed": false,
          "internalType": "contract ICertificate",
          "name": "certificate",
          "type": "address"
        }
      ],
      "name": "RegisterContractAddresses",
      "type": "event"
    },
    {
      "anonymous": false,
      "inputs": [
        {
          "indexed": true,
          "internalType": "uint256",
          "name": "id",
          "type": "uint256"
        },
        {
          "indexed": true,
          "internalType": "address",
          "name": "fromAddress",
          "type": "address"
        },
        {
          "indexed": false,
          "internalType": "uint256",
          "name": "amount",
          "type": "uint256"
        }
      ],
      "name": "ReleaseRemoval",
      "type": "event"
    },
    {
      "anonymous": false,
      "inputs": [
        {
          "indexed": true,
          "internalType": "bytes32",
          "name": "role",
          "type": "bytes32"
        },
        {
          "indexed": true,
          "internalType": "bytes32",
          "name": "previousAdminRole",
          "type": "bytes32"
        },
        {
          "indexed": true,
          "internalType": "bytes32",
          "name": "newAdminRole",
          "type": "bytes32"
        }
      ],
      "name": "RoleAdminChanged",
      "type": "event"
    },
    {
      "anonymous": false,
      "inputs": [
        {
          "indexed": true,
          "internalType": "bytes32",
          "name": "role",
          "type": "bytes32"
        },
        {
          "indexed": true,
          "internalType": "address",
          "name": "account",
          "type": "address"
        },
        {
          "indexed": true,
          "internalType": "address",
          "name": "sender",
          "type": "address"
        }
      ],
      "name": "RoleGranted",
      "type": "event"
    },
    {
      "anonymous": false,
      "inputs": [
        {
          "indexed": true,
          "internalType": "bytes32",
          "name": "role",
          "type": "bytes32"
        },
        {
          "indexed": true,
          "internalType": "address",
          "name": "account",
          "type": "address"
        },
        {
          "indexed": true,
          "internalType": "address",
          "name": "sender",
          "type": "address"
        }
      ],
      "name": "RoleRevoked",
      "type": "event"
    },
    {
      "anonymous": false,
      "inputs": [
        {
          "indexed": false,
          "internalType": "uint256",
          "name": "projectId",
          "type": "uint256"
        },
        {
          "indexed": false,
          "internalType": "uint8",
          "name": "holdbackPercentage",
          "type": "uint8"
        }
      ],
      "name": "SetHoldbackPercentage",
      "type": "event"
    },
    {
      "anonymous": false,
      "inputs": [
        {
          "indexed": true,
          "internalType": "address",
          "name": "operator",
          "type": "address"
        },
        {
          "indexed": true,
          "internalType": "address",
          "name": "from",
          "type": "address"
        },
        {
          "indexed": true,
          "internalType": "address",
          "name": "to",
          "type": "address"
        },
        {
          "indexed": false,
          "internalType": "uint256[]",
          "name": "ids",
          "type": "uint256[]"
        },
        {
          "indexed": false,
          "internalType": "uint256[]",
          "name": "values",
          "type": "uint256[]"
        }
      ],
      "name": "TransferBatch",
      "type": "event"
    },
    {
      "anonymous": false,
      "inputs": [
        {
          "indexed": true,
          "internalType": "address",
          "name": "operator",
          "type": "address"
        },
        {
          "indexed": true,
          "internalType": "address",
          "name": "from",
          "type": "address"
        },
        {
          "indexed": true,
          "internalType": "address",
          "name": "to",
          "type": "address"
        },
        {
          "indexed": false,
          "internalType": "uint256",
          "name": "id",
          "type": "uint256"
        },
        {
          "indexed": false,
          "internalType": "uint256",
          "name": "value",
          "type": "uint256"
        }
      ],
      "name": "TransferSingle",
      "type": "event"
    },
    {
      "anonymous": false,
      "inputs": [
        {
          "indexed": false,
          "internalType": "string",
          "name": "value",
          "type": "string"
        },
        {
          "indexed": true,
          "internalType": "uint256",
          "name": "id",
          "type": "uint256"
        }
      ],
      "name": "URI",
      "type": "event"
    },
    {
      "anonymous": false,
      "inputs": [
        {
          "indexed": false,
          "internalType": "address",
          "name": "account",
          "type": "address"
        }
      ],
      "name": "Unpaused",
      "type": "event"
    },
    {
      "inputs": [],
      "name": "CONSIGNOR_ROLE",
      "outputs": [
        {
          "internalType": "bytes32",
          "name": "",
          "type": "bytes32"
        }
      ],
      "stateMutability": "view",
      "type": "function"
    },
    {
      "inputs": [],
      "name": "DEFAULT_ADMIN_ROLE",
      "outputs": [
        {
          "internalType": "bytes32",
          "name": "",
          "type": "bytes32"
        }
      ],
      "stateMutability": "view",
      "type": "function"
    },
    {
      "inputs": [],
      "name": "PAUSER_ROLE",
      "outputs": [
        {
          "internalType": "bytes32",
          "name": "",
          "type": "bytes32"
        }
      ],
      "stateMutability": "view",
      "type": "function"
    },
    {
      "inputs": [],
      "name": "RELEASER_ROLE",
      "outputs": [
        {
          "internalType": "bytes32",
          "name": "",
          "type": "bytes32"
        }
      ],
      "stateMutability": "view",
      "type": "function"
    },
    {
      "inputs": [
        {
          "internalType": "address",
          "name": "to",
          "type": "address"
        },
        {
          "internalType": "uint256[]",
          "name": "amounts",
          "type": "uint256[]"
        },
        {
          "internalType": "uint256[]",
          "name": "ids",
          "type": "uint256[]"
        }
      ],
      "name": "addBalance",
      "outputs": [],
      "stateMutability": "nonpayable",
      "type": "function"
    },
    {
      "inputs": [
        {
          "internalType": "address",
          "name": "account",
          "type": "address"
        },
        {
          "internalType": "uint256",
          "name": "id",
          "type": "uint256"
        }
      ],
      "name": "balanceOf",
      "outputs": [
        {
          "internalType": "uint256",
          "name": "",
          "type": "uint256"
        }
      ],
      "stateMutability": "view",
      "type": "function"
    },
    {
      "inputs": [
        {
          "internalType": "address[]",
          "name": "accounts",
          "type": "address[]"
        },
        {
          "internalType": "uint256[]",
          "name": "ids",
          "type": "uint256[]"
        }
      ],
      "name": "balanceOfBatch",
      "outputs": [
        {
          "internalType": "uint256[]",
          "name": "",
          "type": "uint256[]"
        }
      ],
      "stateMutability": "view",
      "type": "function"
    },
    {
      "inputs": [
        {
          "internalType": "address",
          "name": "from",
          "type": "address"
        },
        {
          "internalType": "uint256",
          "name": "id",
          "type": "uint256"
        },
        {
          "internalType": "uint256",
          "name": "amount",
          "type": "uint256"
        }
      ],
      "name": "consign",
      "outputs": [],
      "stateMutability": "nonpayable",
      "type": "function"
    },
    {
      "inputs": [
        {
          "internalType": "uint256",
          "name": "id",
          "type": "uint256"
        }
      ],
      "name": "decodeRemovalIdV0",
      "outputs": [
        {
          "components": [
            {
              "internalType": "uint8",
              "name": "idVersion",
              "type": "uint8"
            },
            {
              "internalType": "uint8",
              "name": "methodology",
              "type": "uint8"
            },
            {
              "internalType": "uint8",
              "name": "methodologyVersion",
              "type": "uint8"
            },
            {
              "internalType": "uint16",
              "name": "vintage",
              "type": "uint16"
            },
            {
              "internalType": "bytes2",
              "name": "country",
              "type": "bytes2"
            },
            {
              "internalType": "bytes2",
              "name": "subdivision",
              "type": "bytes2"
            },
            {
              "internalType": "address",
              "name": "supplierAddress",
              "type": "address"
            },
            {
              "internalType": "uint32",
              "name": "subIdentifier",
              "type": "uint32"
            }
          ],
          "internalType": "struct DecodedRemovalIdV0",
          "name": "",
          "type": "tuple"
        }
      ],
      "stateMutability": "pure",
      "type": "function"
    },
    {
      "inputs": [
        {
          "internalType": "uint256",
          "name": "id",
          "type": "uint256"
        }
      ],
      "name": "exists",
      "outputs": [
        {
          "internalType": "bool",
          "name": "",
          "type": "bool"
        }
      ],
      "stateMutability": "view",
      "type": "function"
    },
    {
      "inputs": [],
      "name": "getCertificateAddress",
      "outputs": [
        {
          "internalType": "address",
          "name": "",
          "type": "address"
        }
      ],
      "stateMutability": "view",
      "type": "function"
    },
    {
      "inputs": [
        {
          "internalType": "uint256",
          "name": "id",
          "type": "uint256"
        }
      ],
      "name": "getHoldbackPercentage",
      "outputs": [
        {
          "internalType": "uint8",
          "name": "",
          "type": "uint8"
        }
      ],
      "stateMutability": "view",
      "type": "function"
    },
    {
      "inputs": [],
      "name": "getMarketAddress",
      "outputs": [
        {
          "internalType": "address",
          "name": "",
          "type": "address"
        }
      ],
      "stateMutability": "view",
      "type": "function"
    },
    {
      "inputs": [],
      "name": "getMarketBalance",
      "outputs": [
        {
          "internalType": "uint256",
          "name": "",
          "type": "uint256"
        }
      ],
      "stateMutability": "view",
      "type": "function"
    },
    {
      "inputs": [
        {
          "internalType": "address",
          "name": "owner",
          "type": "address"
        }
      ],
      "name": "getOwnedTokenIds",
      "outputs": [
        {
          "internalType": "uint256[]",
          "name": "",
          "type": "uint256[]"
        }
      ],
      "stateMutability": "view",
      "type": "function"
    },
    {
      "inputs": [
        {
          "internalType": "uint256",
          "name": "id",
          "type": "uint256"
        }
      ],
      "name": "getProjectId",
      "outputs": [
        {
          "internalType": "uint256",
          "name": "",
          "type": "uint256"
        }
      ],
      "stateMutability": "view",
      "type": "function"
    },
    {
      "inputs": [
        {
          "internalType": "bytes32",
          "name": "role",
          "type": "bytes32"
        }
      ],
      "name": "getRoleAdmin",
      "outputs": [
        {
          "internalType": "bytes32",
          "name": "",
          "type": "bytes32"
        }
      ],
      "stateMutability": "view",
      "type": "function"
    },
    {
      "inputs": [
        {
          "internalType": "bytes32",
          "name": "role",
          "type": "bytes32"
        },
        {
          "internalType": "uint256",
          "name": "index",
          "type": "uint256"
        }
      ],
      "name": "getRoleMember",
      "outputs": [
        {
          "internalType": "address",
          "name": "",
          "type": "address"
        }
      ],
      "stateMutability": "view",
      "type": "function"
    },
    {
      "inputs": [
        {
          "internalType": "bytes32",
          "name": "role",
          "type": "bytes32"
        }
      ],
      "name": "getRoleMemberCount",
      "outputs": [
        {
          "internalType": "uint256",
          "name": "",
          "type": "uint256"
        }
      ],
      "stateMutability": "view",
      "type": "function"
    },
    {
      "inputs": [
        {
          "internalType": "bytes32",
          "name": "role",
          "type": "bytes32"
        },
        {
          "internalType": "address",
          "name": "account",
          "type": "address"
        }
      ],
      "name": "grantRole",
      "outputs": [],
      "stateMutability": "nonpayable",
      "type": "function"
    },
    {
      "inputs": [
        {
          "internalType": "bytes32",
          "name": "role",
          "type": "bytes32"
        },
        {
          "internalType": "address",
          "name": "account",
          "type": "address"
        }
      ],
      "name": "hasRole",
      "outputs": [
        {
          "internalType": "bool",
          "name": "",
          "type": "bool"
        }
      ],
      "stateMutability": "view",
      "type": "function"
    },
    {
      "inputs": [
        {
          "internalType": "string",
          "name": "baseURI",
          "type": "string"
        }
      ],
      "name": "initialize",
      "outputs": [],
      "stateMutability": "nonpayable",
      "type": "function"
    },
    {
      "inputs": [
        {
          "internalType": "address",
          "name": "account",
          "type": "address"
        },
        {
          "internalType": "address",
          "name": "operator",
          "type": "address"
        }
      ],
      "name": "isApprovedForAll",
      "outputs": [
        {
          "internalType": "bool",
          "name": "",
          "type": "bool"
        }
      ],
      "stateMutability": "view",
      "type": "function"
    },
    {
      "inputs": [
        {
          "internalType": "uint256[]",
          "name": "ids",
          "type": "uint256[]"
        },
        {
          "internalType": "uint256[]",
          "name": "amounts",
          "type": "uint256[]"
        },
        {
          "internalType": "address",
          "name": "certificateRecipient",
          "type": "address"
        },
        {
          "internalType": "uint256",
          "name": "certificateAmount",
          "type": "uint256"
        }
      ],
      "name": "migrate",
      "outputs": [],
      "stateMutability": "nonpayable",
      "type": "function"
    },
    {
      "inputs": [
        {
          "internalType": "address",
          "name": "to",
          "type": "address"
        },
        {
          "internalType": "uint256[]",
          "name": "amounts",
          "type": "uint256[]"
        },
        {
          "components": [
            {
              "internalType": "uint8",
              "name": "idVersion",
              "type": "uint8"
            },
            {
              "internalType": "uint8",
              "name": "methodology",
              "type": "uint8"
            },
            {
              "internalType": "uint8",
              "name": "methodologyVersion",
              "type": "uint8"
            },
            {
              "internalType": "uint16",
              "name": "vintage",
              "type": "uint16"
            },
            {
              "internalType": "bytes2",
              "name": "country",
              "type": "bytes2"
            },
            {
              "internalType": "bytes2",
              "name": "subdivision",
              "type": "bytes2"
            },
            {
              "internalType": "address",
              "name": "supplierAddress",
              "type": "address"
            },
            {
              "internalType": "uint32",
              "name": "subIdentifier",
              "type": "uint32"
            }
          ],
          "internalType": "struct DecodedRemovalIdV0[]",
          "name": "removals",
          "type": "tuple[]"
        },
        {
          "internalType": "uint256",
          "name": "projectId",
          "type": "uint256"
        },
        {
          "internalType": "uint256",
          "name": "scheduleStartTime",
          "type": "uint256"
        },
        {
          "internalType": "uint8",
          "name": "holdbackPercentage",
          "type": "uint8"
        }
      ],
      "name": "mintBatch",
      "outputs": [],
      "stateMutability": "nonpayable",
      "type": "function"
    },
    {
      "inputs": [
        {
          "internalType": "bytes[]",
          "name": "data",
          "type": "bytes[]"
        }
      ],
      "name": "multicall",
      "outputs": [
        {
          "internalType": "bytes[]",
          "name": "results",
          "type": "bytes[]"
        }
      ],
      "stateMutability": "nonpayable",
      "type": "function"
    },
    {
      "inputs": [
        {
          "internalType": "address",
          "name": "account",
          "type": "address"
        }
      ],
      "name": "numberOfTokensOwnedByAddress",
      "outputs": [
        {
          "internalType": "uint256",
          "name": "",
          "type": "uint256"
        }
      ],
      "stateMutability": "view",
      "type": "function"
    },
    {
      "inputs": [],
      "name": "pause",
      "outputs": [],
      "stateMutability": "nonpayable",
      "type": "function"
    },
    {
      "inputs": [],
      "name": "paused",
      "outputs": [
        {
          "internalType": "bool",
          "name": "",
          "type": "bool"
        }
      ],
      "stateMutability": "view",
      "type": "function"
    },
    {
      "inputs": [
        {
          "internalType": "contract IMarket",
          "name": "market",
          "type": "address"
        },
        {
          "internalType": "contract ICertificate",
          "name": "certificate",
          "type": "address"
        }
      ],
      "name": "registerContractAddresses",
      "outputs": [],
      "stateMutability": "nonpayable",
      "type": "function"
    },
    {
      "inputs": [
        {
          "internalType": "uint256",
          "name": "id",
          "type": "uint256"
        },
        {
          "internalType": "uint256",
          "name": "amount",
          "type": "uint256"
        }
      ],
      "name": "release",
      "outputs": [],
      "stateMutability": "nonpayable",
      "type": "function"
    },
    {
      "inputs": [
        {
          "internalType": "bytes32",
          "name": "role",
          "type": "bytes32"
        },
        {
          "internalType": "address",
          "name": "account",
          "type": "address"
        }
      ],
      "name": "renounceRole",
      "outputs": [],
      "stateMutability": "nonpayable",
      "type": "function"
    },
    {
      "inputs": [
        {
          "internalType": "bytes32",
          "name": "role",
          "type": "bytes32"
        },
        {
          "internalType": "address",
          "name": "account",
          "type": "address"
        }
      ],
      "name": "revokeRole",
      "outputs": [],
      "stateMutability": "nonpayable",
      "type": "function"
    },
    {
      "inputs": [
        {
          "internalType": "address",
          "name": "from",
          "type": "address"
        },
        {
          "internalType": "address",
          "name": "to",
          "type": "address"
        },
        {
          "internalType": "uint256[]",
          "name": "ids",
          "type": "uint256[]"
        },
        {
          "internalType": "uint256[]",
          "name": "amounts",
          "type": "uint256[]"
        },
        {
          "internalType": "bytes",
          "name": "data",
          "type": "bytes"
        }
      ],
      "name": "safeBatchTransferFrom",
      "outputs": [],
      "stateMutability": "nonpayable",
      "type": "function"
    },
    {
      "inputs": [
        {
          "internalType": "address",
          "name": "from",
          "type": "address"
        },
        {
          "internalType": "address",
          "name": "to",
          "type": "address"
        },
        {
          "internalType": "uint256",
          "name": "id",
          "type": "uint256"
        },
        {
          "internalType": "uint256",
          "name": "amount",
          "type": "uint256"
        },
        {
          "internalType": "bytes",
          "name": "data",
          "type": "bytes"
        }
      ],
      "name": "safeTransferFrom",
      "outputs": [],
      "stateMutability": "nonpayable",
      "type": "function"
    },
    {
      "inputs": [
        {
          "internalType": "address",
          "name": "operator",
          "type": "address"
        },
        {
          "internalType": "bool",
          "name": "approved",
          "type": "bool"
        }
      ],
      "name": "setApprovalForAll",
      "outputs": [],
      "stateMutability": "nonpayable",
      "type": "function"
    },
    {
      "inputs": [
        {
          "internalType": "uint256",
          "name": "projectId",
          "type": "uint256"
        },
        {
          "internalType": "uint8",
          "name": "holdbackPercentage",
          "type": "uint8"
        }
      ],
      "name": "setHoldbackPercentage",
      "outputs": [],
      "stateMutability": "nonpayable",
      "type": "function"
    },
    {
      "inputs": [
        {
          "internalType": "bytes4",
          "name": "interfaceId",
          "type": "bytes4"
        }
      ],
      "name": "supportsInterface",
      "outputs": [
        {
          "internalType": "bool",
          "name": "",
          "type": "bool"
        }
      ],
      "stateMutability": "view",
      "type": "function"
    },
    {
      "inputs": [
        {
          "internalType": "uint256",
          "name": "id",
          "type": "uint256"
        }
      ],
      "name": "totalSupply",
      "outputs": [
        {
          "internalType": "uint256",
          "name": "",
          "type": "uint256"
        }
      ],
      "stateMutability": "view",
      "type": "function"
    },
    {
      "inputs": [],
      "name": "unpause",
      "outputs": [],
      "stateMutability": "nonpayable",
      "type": "function"
    },
    {
      "inputs": [
        {
          "internalType": "uint256",
          "name": "",
          "type": "uint256"
        }
      ],
      "name": "uri",
      "outputs": [
        {
          "internalType": "string",
          "name": "",
          "type": "string"
        }
      ],
      "stateMutability": "view",
      "type": "function"
    }
  ],
  "numDeployments": 6,
  "bytecode": "0x60808060405234620000c6576000549060ff8260081c1662000074575060ff8082161062000038575b6040516156739081620000cc8239f35b60ff90811916176000557f7f26b83ff96e1f2b6a682f133852f6798a09c465da95921460cefb3847402498602060405160ff8152a13862000028565b62461bcd60e51b815260206004820152602760248201527f496e697469616c697a61626c653a20636f6e747261637420697320696e697469604482015266616c697a696e6760c81b6064820152608490fd5b600080fdfe6080604052600436101561001257600080fd5b6000803560e01c8062fdd58e14612dda57806301ffc9a714612ca157806304bcaa6814612a925780630e89341c14612992578063248a9ca3146129655780632eb2c2d61461288d5780632f2ff15d1461279c57806334697f45146126a857806336568abe14612560578063366a412014611efe5780633d932dfb14611ed35780633f4ba83a14611e1857806342c6281d14611d025780634e1273f414611b675780634f558e7914611b3b5780634fac7e4114611aa25780635c975abb14611a7f5780636b425fc8146119c6578063789e8cdf146119805780638456cb59146119075780639010d07c146118b457806391d148541461185a57806393ae796d1461179f578063964eec7014611780578063a217fddf14611764578063a22cb46514611639578063ac28af24146115fe578063ac9650d814611348578063b3eeaf361461130d578063b776d333146112d4578063bd85b039146112aa578063c48c01051461126f578063ca15c87314611244578063ca96535714610b1d578063d547741f14610a28578063e63ab1e9146109ed578063e7334fe5146109b8578063e7f78c7214610983578063e985e9c514610921578063f242432a146108445763f62d1888146101df57600080fd5b346108415760208060031936011261083d5767ffffffffffffffff90600435828111610839573660238201121561083957610224903690602481600401359101613070565b91835460ff808260081c16159283809461082d575b8015610817575b156107ad576001957fffffffffffffffffffffffffffffffffffffffffffffffffffffffffffffff00938588868316178a5561077f575b506102eb83895460081c1661028b81613cc5565b61029481613cc5565b6102e66024604051856102b18c8398519281849286019101612ea2565b81017f7b69647d000000000000000000000000000000000000000000000000000000008c820152036004810186520184612f71565b613cc5565b80519182116107525781906103016099546136fd565b601f81116106e2575b508690601f831160011461064657899261063b575b505060001982881b9260031b1c1916176099555b61036981875460081c1661034681613cc5565b836033541660335561035781613cc5565b61036081613cc5565b6102e681613cc5565b610371613a88565b85805260fb91828552604087203360005285528160406000205416156105f2575b86805261012d928386526103a93360408a20613ad8565b506103b2613a88565b7f65d7a28e3265b37a6474929f336521b332c1681b933f6cb9f3376673440d862a808952818752604089203360005287528360406000205416156105a9575b88528386526104033360408a20613ad8565b5061040c613a88565b7fa269776b75ac4c5fa422bb11bec3ed3cee626848d07687372583174b209261fb80895281875260408920336000528752836040600020541615610560575b885283865261045d3360408a20613ad8565b50610466613a88565b7f88f3509f0e42391f2d94ebfb2a37cbd0782b1b8f73715330017f4663290b811792838952818752604089203360005287526040600020541615610516575b5050855282526104b83360408620613ad8565b506104c1578280f35b7f7f26b83ff96e1f2b6a682f133852f6798a09c465da95921460cefb3847402498917fffffffffffffffffffffffffffffffffffffffffffffffffffffffffffff00ff8454168455604051908152a138808280f35b828852855260408720336000528552856040600020918254161790553333827f2f8788117e7eff1d82e926ec794901d17c78024a50270940304540a733656f0d8980a438806104a5565b80895281875260408920336000528752604060002088848254161790553333827f2f8788117e7eff1d82e926ec794901d17c78024a50270940304540a733656f0d8c80a461044b565b80895281875260408920336000528752604060002088848254161790553333827f2f8788117e7eff1d82e926ec794901d17c78024a50270940304540a733656f0d8c80a46103f1565b86805282855260408720336000528552604060002086828254161790553333887f2f8788117e7eff1d82e926ec794901d17c78024a50270940304540a733656f0d8180a4610392565b01519050388061031f565b907fffffffffffffffffffffffffffffffffffffffffffffffffffffffffffffffe08994169160998b527f72a152ddfb8e864297c917af52ea6c1c68aead0fee1a62673fcc7e0c94979d00928b5b8a8282106106cc57505084116106b3575b505050811b01609955610333565b015160001960f88460031b161c191690553880806106a5565b8385015186558c97909501949384019301610694565b909150609989527f72a152ddfb8e864297c917af52ea6c1c68aead0fee1a62673fcc7e0c94979d00601f840160051c810191888510610748575b84939291601f8b920160051c01915b82811061073957505061030a565b600081558594508a910161072b565b909150819061071c565b6024887f4e487b710000000000000000000000000000000000000000000000000000000081526041600452fd5b7fffffffffffffffffffffffffffffffffffffffffffffffffffffffffffff00001661010117885538610277565b6084856040519062461bcd60e51b82526004820152602e60248201527f496e697469616c697a61626c653a20636f6e747261637420697320616c72656160448201527f647920696e697469616c697a65640000000000000000000000000000000000006064820152fd5b50303b1580156102405750600182841614610240565b50600182841610610239565b8380fd5b5080fd5b80fd5b50346108415760a06003193601126108415761085e612e0a565b610866612e2d565b60843567ffffffffffffffff8111610839576108869036906004016130a7565b9073ffffffffffffffffffffffffffffffffffffffff9283610191541633036108f7576108d093811633811480156108d3575b6108c3915061508a565b6064359160443591614575565b80f35b508552609860205260408520336000526020526108c360ff604060002054166108b9565b60046040517fece85278000000000000000000000000000000000000000000000000000000008152fd5b50346108415760406003193601126108415761093b612e0a565b6040610945612e2d565b9273ffffffffffffffffffffffffffffffffffffffff80931681526098602052209116600052602052602060ff604060002054166040519015158152f35b5034610841578060031936011261084157602073ffffffffffffffffffffffffffffffffffffffff6101925416604051908152f35b5034610841578060031936011261084157602073ffffffffffffffffffffffffffffffffffffffff6101915416604051908152f35b503461084157806003193601126108415760206040517f65d7a28e3265b37a6474929f336521b332c1681b933f6cb9f3376673440d862a8152f35b503461084157604060031936011261084157610ab160043561012d610a4b612e2d565b9180855260209060fb8252610a6660016040882001546135df565b610a6e613a88565b80865260fb825273ffffffffffffffffffffffffffffffffffffffff6040872094169384600052825260ff60406000205416610ab5575b85525260408320613b8a565b5080f35b80865260fb82526040862084600052825260406000207fffffffffffffffffffffffffffffffffffffffffffffffffffffffffffffff0081541690553384827ff6391f5c32d9c69d2a47ea670b442974b53935d1edc7fd64eb21e047a839171b8980a4610aa5565b50346108415760c060031936011261084157610b37612e0a565b60243567ffffffffffffffff8111610dca57610b57903690600401612e71565b67ffffffffffffffff60449392933511610839573660236044350112156108395767ffffffffffffffff6044356004013511610839573660246044356004013560081b6044350101116108395760ff60a4351660a4350361123f57610bba613104565b610bc9604435600401356137f4565b90845b604435600401358110610e0d5750610c0d93610bf791610bf060a4356064356150fb565b3691612fca565b9060405192610c0584612f39565b858452613e06565b73ffffffffffffffffffffffffffffffffffffffff8061019154169060405180927f85d3d64b00000000000000000000000000000000000000000000000000000000825281600460209586935afa908115610dd5578491610de0575b5016906040517fa4b186f800000000000000000000000000000000000000000000000000000000815260643560048201528181602481865afa918215610dd5578492610d9a575b505015610cbb575080f35b6044356004013515610d6d578190610cd66044803501613d62565b90610ce5606460443501613d62565b91813b15610d6857608460ff918580948460405197889687957f55135b670000000000000000000000000000000000000000000000000000000087526064356004880152873560248801521660448601521660648401525af18015610d5d57610d4d57505080f35b610d5690612f08565b6108415780f35b6040513d84823e3d90fd5b505050fd5b6024827f4e487b710000000000000000000000000000000000000000000000000000000081526032600452fd5b90809250813d8311610dce575b610db18183612f71565b81010312610dca57518015158103610dca573880610cb0565b8280fd5b503d610da7565b6040513d86823e3d90fd5b610e009150833d8511610e06575b610df88183612f71565b810190613d36565b38610c69565b503d610dee565b6101007fffffffffffffffffffffffffffffffffffffffffffffffffffffffffffffffdc8260081b604435013603011261123b576040518061010081011067ffffffffffffffff6101008301111761120c576101008101604052610e7a60248360081b60443501016130f6565b808252610e8f60448460081b813501016130f6565b6020830152610ea760648460081b60443501016130f6565b604083015260848360081b60443501013561ffff81168103611208576060830152610edb60a48460081b60443501016151a0565b6080830152610ef360c48460081b60443501016151a0565b60a0830152610f0b60e48460081b6044350101612e50565b60c0830152604435600884901b01610104013563ffffffff811690036112045760ff906101048460081b60443501013560e084015216806111d3575060ff604082015116600f81116111a2575060ff602082015116600f811161117157507fffff0000000000000000000000000000000000000000000000000000000000008060808301511690610fb5828060001a9060011a605b6040821191101690605b604082119110161690565b80611142575b1561110757505063ffffffff60e060f080602085015160041b1660ff604086015116177fff00000000000000000000000000000000000000000000000000000000000000855160f81b167dffff000000000000000000000000000000000000000000000000000000006060870151851b16917bffff0000000000000000000000000000000000000000000000000000608088015160201c16931b17171779ffff00000000000000000000000000000000000000000000000060a085015160301c161777ffffffffffffffffffffffffffffffffffffffff0000000060c085015160201b161792015116179081875261019460205260408720546110dd5781600192885261019460205260643560408920556110d68286613881565b5201610bcc565b60046040517f5cb045db000000000000000000000000000000000000000000000000000000008152fd5b60a0604493015116604051917f81036ebb00000000000000000000000000000000000000000000000000000000835260048301526024820152fd5b5061116c8160a0850151168060001a9060011a605b6040821191101690605b604082119110161690565b610fbb565b602490604051907f46ac6e0f0000000000000000000000000000000000000000000000000000000082526004820152fd5b602490604051907f4962a53a0000000000000000000000000000000000000000000000000000000082526004820152fd5b602490604051907ff981da6c0000000000000000000000000000000000000000000000000000000082526004820152fd5b8780fd5b8880fd5b7f4e487b7100000000000000000000000000000000000000000000000000000000600052604160045260246000fd5b8580fd5b600080fd5b5034610841576020600319360112610841576040602091600435815261012d83522054604051908152f35b503461084157806003193601126108415760206040517fa269776b75ac4c5fa422bb11bec3ed3cee626848d07687372583174b209261fb8152f35b5034610841576020600319360112610841576040602091600435815260c983522054604051908152f35b50346108415760206003193601126108415760ff6040602092600435815261019484528181205481526101938452205416604051908152f35b50346108415760406003193601126108415760243560ff8116810361123f576108d090611338613a88565b6113406134a8565b6004356150fb565b50346108415760208060031936011261083d5767ffffffffffffffff600435818111610839579061137e84923690600401612e71565b909161138982612fb2565b926113976040519485612f71565b8284527fffffffffffffffffffffffffffffffffffffffffffffffffffffffffffffffe06113c484612fb2565b01855b8181106115ef575050845b838110611457575050505060405191838301848452825180915260408401948060408360051b870101940192955b82871061140d5785850386f35b909192938280611447837fffffffffffffffffffffffffffffffffffffffffffffffffffffffffffffffc08a600196030186528851612ec5565b9601920196019592919092611400565b8060059796971b8201357fffffffffffffffffffffffffffffffffffffffffffffffffffffffffffffffe1833603018112156112045782018035908482116112085787018136038113611208576114af913691613070565b303b15611585578781888293519101305af4903d1561157e573d6114d281613036565b906114e06040519283612f71565b81523d898983013e5b60405160608101918183108784111761120c576115769461155b93604052602783527f416464726573733a206c6f772d6c6576656c2064656c65676174652063616c6c8b8401527f206661696c65640000000000000000000000000000000000000000000000000060408401526138c4565b6115658288613881565b526115708187613881565b50613843565b9594956113d2565b60606114e9565b6084876040519062461bcd60e51b82526004820152602660248201527f416464726573733a2064656c65676174652063616c6c20746f206e6f6e2d636f60448201527f6e747261637400000000000000000000000000000000000000000000000000006064820152fd5b606086820189015287016113c7565b503461084157806003193601126108415760206040517f88f3509f0e42391f2d94ebfb2a37cbd0782b1b8f73715330017f4663290b81178152f35b503461084157604060031936011261084157611653612e0a565b60243590811515809203610dca5773ffffffffffffffffffffffffffffffffffffffff9061167f613a88565b16908133146116fa573383526098602052604083208260005260205260406000207fffffffffffffffffffffffffffffffffffffffffffffffffffffffffffffff0081541660ff83161790556040519081527f17307eab39ab6107e8899845ad3d59bd9653f200f220920489ca2b5937696c3160203392a380f35b608460405162461bcd60e51b815260206004820152602960248201527f455243313135353a2073657474696e6720617070726f76616c2073746174757360448201527f20666f722073656c6600000000000000000000000000000000000000000000006064820152fd5b5034610841578060031936011261084157602090604051908152f35b5034610841578060031936011261084157602061019654604051908152f35b50346108415760406003193601126108415760043573ffffffffffffffffffffffffffffffffffffffff808216809203610dca57602435908116809103610dca577fa948457069516ab10917665b0b5d6b8043d77b39f57ca760ef0d3d41042775479160409161180d613a88565b6118156134a8565b7fffffffffffffffffffffffff00000000000000000000000000000000000000006101918382825416179055816101929182541617905582519182526020820152a180f35b50346108415760406003193601126108415773ffffffffffffffffffffffffffffffffffffffff604061188b612e2d565b92600435815260fb602052209116600052602052602060ff604060002054166040519015158152f35b50346108415760406003193601126108415773ffffffffffffffffffffffffffffffffffffffff6118f7602092600435815261012d845260406024359120613a70565b9190546040519260031b1c168152f35b5034610841578060031936011261084157611920613350565b611928613a88565b60017fffffffffffffffffffffffffffffffffffffffffffffffffffffffffffffff0060335416176033557f62e78cea01bee320cd4e420270b5ea74000d11b0c9f74754ebdbfc544b05a2586020604051338152a180f35b503461084157602060031936011261084157604060209173ffffffffffffffffffffffffffffffffffffffff6119b4612e0a565b16815261019583522054604051908152f35b5034610841576060600319360112610841576119e0612e0a565b602435906119ec613104565b73ffffffffffffffffffffffffffffffffffffffff806101925416818316908114908115611a70575b50611a3f57906108d0929161019154169160405192611a3384612f39565b85845260443592614575565b602483604051907f4a7a53580000000000000000000000000000000000000000000000000000000082526004820152fd5b90508161019154161438611a15565b5034610841578060031936011261084157602060ff603354166040519015158152f35b50346108415760208060031936011261083d5773ffffffffffffffffffffffffffffffffffffffff611ad2612e0a565b16825261019581526040822091604051809384918482549182815201918452848420935b85828210611b2557505050611b0d92500383612f71565b611b216040519282849384528301906130c2565b0390f35b8554845260019586019588955093019201611af6565b5034610841576020600319360112610841576040602091600435815260c9835220541515604051908152f35b50346108415760406003193601126108415767ffffffffffffffff600435818111610dca5736602382011215610dca57806004013591611ba683612fb2565b91611bb46040519384612f71565b83835260209360248585019160051b83010191368311611cfe576024869101915b838310611ce6575050505060243590811161083957611bf8903690600401613018565b908051825103611c7c57611c0c81516137f4565b935b8151811015611c655780611c5073ffffffffffffffffffffffffffffffffffffffff611c3d611c609486613881565b5116611c498387613881565b5190613750565b611c5a8288613881565b52613843565b611c0e565b505050611b216040519282849384528301906130c2565b6084836040519062461bcd60e51b82526004820152602960248201527f455243313135353a206163636f756e747320616e6420696473206c656e67746860448201527f206d69736d6174636800000000000000000000000000000000000000000000006064820152fd5b8190611cf184612e50565b8152019101908590611bd5565b8680fd5b503461084157602060031936011261084157600435611d1f61504c565b50611d2861504c565b508060f81c90604051611d3a81612f1c565b82815260208101908260f41c600f168252604081018360f01c600f1681526060820161ffff90818660e01c16815260808401917fffff000000000000000000000000000000000000000000000000000000000000928391828960201b16825260a0870193838a60301b16855260c088019673ffffffffffffffffffffffffffffffffffffffff98898c60201c16895260e0019963ffffffff809c168b526040519c8d525160ff1660208d01525160ff1660408c0152511660608a015251166080880152511660a0860152511660c0840152511660e082015261010090f35b5034610841578060031936011261084157611e31613350565b60335460ff811615611e8f577fffffffffffffffffffffffffffffffffffffffffffffffffffffffffffffff00166033557f5db9ee0a495bf2e6ff9c91a7834c1ba4fdd244a5e8aa4e537bd38aeae4b073aa6020604051338152a180f35b606460405162461bcd60e51b815260206004820152601460248201527f5061757361626c653a206e6f74207061757365640000000000000000000000006044820152fd5b5034610841576020600319360112610841576040602091600435815261019483522054604051908152f35b5034610841576040600319360112610841576004356024908135907f88f3509f0e42391f2d94ebfb2a37cbd0782b1b8f73715330017f4663290b81179283855260209360fb855260408620338752855260ff604087205416156123125750849173ffffffffffffffffffffffffffffffffffffffff948582821c16611f838382613750565b806122bf575b5050848410611f96578680f35b6040517fe7334fe500000000000000000000000000000000000000000000000000000000908181528281600481305afa90811561216857611fe09185918b9161214b575b50613750565b80612173575b5050848410611ff3578680f35b6040517fe7f78c7200000000000000000000000000000000000000000000000000000000908181528281600481305afa9081156121685761203c9185918b9161214b5750613750565b61204557508680f35b8761205a86612054818a613b7d565b98613b7d565b946040519283528383600481305afa928315610d5d57829361212c575b506120838686856151cd565b88610192541690813b15610dca5782918291604051809481937f79fcc08a0000000000000000000000000000000000000000000000000000000083528b60048401525af18015610d5d57612114575b505090612109967fa76ba9683000f0598aec5ed73132d1bdb673107c3e609fcbff0dfb9296467c43926040519586521693a3613904565b503880808080808680f35b61212090939293612f08565b611204579087386120d2565b612144919350843d8611610e0657610df88183612f71565b9138612077565b6121629150853d8711610e0657610df88183612f71565b38611fda565b6040513d8b823e3d90fd5b612181868897939497613b7d565b90808210156122b75750905b6040518381528681600481305afa801561228f578584916121b5938d9161229a575b506151cd565b88886101915416803b1561083d57819087604051809481937f37bdc99b0000000000000000000000000000000000000000000000000000000083528a60048401525af1801561228f5761227c575b506040519283528583600481305afa801561216857612257938a9161225f575b50847fa76ba9683000f0598aec5ed73132d1bdb673107c3e609fcbff0dfb9296467c43888b604051948786521693a3613904565b923880611fe6565b6122769150873d8911610e0657610df88183612f71565b38612223565b61228890999199612f08565b9738612203565b6040513d8c823e3d90fd5b6122b191508a3d8c11610e0657610df88183612f71565b386121af565b90509061218d565b919450908086101561230c575084905b6122da8284836151cd565b827fa76ba9683000f0598aec5ed73132d1bdb673107c3e609fcbff0dfb9296467c4386604051858152a3923880611f89565b906122cf565b84908661231e33613922565b916040519061232c82612f55565b6042825284820192606036853782511561253457603084538251906001918210156125085790607860218501536041915b81831161245d5750505061241b576048612417936123ec936123fb936040519586937f416363657373436f6e74726f6c3a206163636f756e74200000000000000000008a8601526123b7815180928c603789019101612ea2565b8401917f206973206d697373696e6720726f6c6520000000000000000000000000000000603784015251809386840190612ea2565b01036028810184520182612f71565b60405193849362461bcd60e51b85526004850152830190612ec5565b0390fd5b606485856040519162461bcd60e51b83528160048401528201527f537472696e67733a20686578206c656e67746820696e73756666696369656e746044820152fd5b909192600f811660108110156124dc577f3031323334353637383961626364656600000000000000000000000000000000901a61249a8587613911565b5360041c9280156124b05760001901919061235d565b88827f4e487b710000000000000000000000000000000000000000000000000000000081526011600452fd5b89837f4e487b710000000000000000000000000000000000000000000000000000000081526032600452fd5b807f4e487b71000000000000000000000000000000000000000000000000000000008992526032600452fd5b807f4e487b71000000000000000000000000000000000000000000000000000000008892526032600452fd5b50346108415760406003193601126108415760043573ffffffffffffffffffffffffffffffffffffffff612592612e2d565b1633810361263e57610ab1916125a6613a88565b80845260fb6020526040842082855260205260ff6040852054166125d6575b835261012d60205260408320613b8a565b80845260fb60205260408420828552602052604084207fffffffffffffffffffffffffffffffffffffffffffffffffffffffffffffff0081541690553382827ff6391f5c32d9c69d2a47ea670b442974b53935d1edc7fd64eb21e047a839171b8780a46125c5565b608460405162461bcd60e51b815260206004820152602f60248201527f416363657373436f6e74726f6c3a2063616e206f6e6c792072656e6f756e636560448201527f20726f6c657320666f722073656c6600000000000000000000000000000000006064820152fd5b5034610841576060600319360112610841576126c2612e0a565b67ffffffffffffffff919060248035848111610839576126e6903690600401612e71565b91909460443590811161279857612701903690600401612e71565b909161270b613104565b855b8281106127325750509461272a610bf7926108d096973691612fca565b923691612fca565b61273d818486614483565b35875261019460205260408720541561275e5761275990613843565b61270d565b612769919284614483565b35604051907fac0522ad0000000000000000000000000000000000000000000000000000000082526004820152fd5b8480fd5b503461084157604060031936011261084157610ab160043561012d6127bf612e2d565b9180855260209060fb82526127da60016040882001546135df565b6127e2613a88565b80865260fb825273ffffffffffffffffffffffffffffffffffffffff60408720941693848752825260ff60408720541615612824575b85525260408320613ad8565b80865260fb82526040862084875282526040862060017fffffffffffffffffffffffffffffffffffffffffffffffffffffffffffffff008254161790553384827f2f8788117e7eff1d82e926ec794901d17c78024a50270940304540a733656f0d8980a4612818565b50346108415760a0600319360112610841576128a7612e0a565b6128af612e2d565b67ffffffffffffffff604435818111612798576128d0903690600401613018565b60643582811161123b576128e8903690600401613018565b9160843590811161123b576129019036906004016130a7565b9273ffffffffffffffffffffffffffffffffffffffff9485610191541633036108f7576108d09581163381148015612943575b61293e915061508a565b614b4b565b50875260986020526040872033885260205261293e60ff604089205416612934565b50346108415760206003193601126108415760016040602092600435815260fb8452200154604051908152f35b50346108415760208060031936011261083d576040519182816099546129b7816136fd565b93848452600191868382169182600014612a515750506001146129f7575b50506129e392500383612f71565b611b21604051928284938452830190612ec5565b90859250609982527f72a152ddfb8e864297c917af52ea6c1c68aead0fee1a62673fcc7e0c94979d005b858310612a395750506129e3935082010138806129d5565b80548389018501528794508693909201918101612a21565b915093506129e39592507fffffffffffffffffffffffffffffffffffffffffffffffffffffffffffffff0091501682840152151560051b82010138806129d5565b50346108415760806003193601126108415767ffffffffffffffff9060043582811161083d57612ac6903690600401612e71565b909260243581811161083957612ae0903690600401612e71565b90946044359373ffffffffffffffffffffffffffffffffffffffff93848616809603611cfe5760643594612b12613104565b610192541694604051967fa2309ff800000000000000000000000000000000000000000000000000000000885260209788816004818b5afa90811561228f578287878c8f8f9089968e9298612c37575b5091612bb0917fdac31445436d97d820b8ffd065c1e725892600c2407efafdfeea08b5ea4b1ed8959493612ba3604051968796604088526040880191614b0e565b9285840390860152614b0e565b0390a48860405198890152604088015260608701528660808701528660a08701528660c087015260c0865260e086019086821090821117612c0a57612c03926108d097989261272a926040523691612fca565b9133614b4b565b6024877f4e487b710000000000000000000000000000000000000000000000000000000081526041600452fd5b97505050935050505081813d8311612c9a575b612c548183612f71565b81010312612c965782827fdac31445436d97d820b8ffd065c1e725892600c2407efafdfeea08b5ea4b1ed888888f958e8d612bb0925198919394955091612b62565b8980fd5b503d612c4a565b5034610841576020600319360112610841576004357fffffffff00000000000000000000000000000000000000000000000000000000811680910361083d57807f5a05180f0000000000000000000000000000000000000000000000000000000060209214908115612d19575b506040519015158152f35b7f7965db0b00000000000000000000000000000000000000000000000000000000811491508115612d4c575b5082612d0e565b7fd9b67a2600000000000000000000000000000000000000000000000000000000811491508115612db0575b8115612d86575b5082612d45565b7f01ffc9a70000000000000000000000000000000000000000000000000000000091501482612d7f565b7f0e89341c0000000000000000000000000000000000000000000000000000000081149150612d78565b5034610841576040600319360112610841576020612e02612df9612e0a565b60243590613750565b604051908152f35b6004359073ffffffffffffffffffffffffffffffffffffffff8216820361123f57565b6024359073ffffffffffffffffffffffffffffffffffffffff8216820361123f57565b359073ffffffffffffffffffffffffffffffffffffffff8216820361123f57565b9181601f8401121561123f5782359167ffffffffffffffff831161123f576020808501948460051b01011161123f57565b60005b838110612eb55750506000910152565b8181015183820152602001612ea5565b907fffffffffffffffffffffffffffffffffffffffffffffffffffffffffffffffe0601f602093612f0181518092818752878088019101612ea2565b0116010190565b67ffffffffffffffff811161120c57604052565b610100810190811067ffffffffffffffff82111761120c57604052565b6020810190811067ffffffffffffffff82111761120c57604052565b6080810190811067ffffffffffffffff82111761120c57604052565b90601f7fffffffffffffffffffffffffffffffffffffffffffffffffffffffffffffffe0910116810190811067ffffffffffffffff82111761120c57604052565b67ffffffffffffffff811161120c5760051b60200190565b9291612fd582612fb2565b91612fe36040519384612f71565b829481845260208094019160051b810192831161123f57905b8282106130095750505050565b81358152908301908301612ffc565b9080601f8301121561123f5781602061303393359101612fca565b90565b67ffffffffffffffff811161120c57601f017fffffffffffffffffffffffffffffffffffffffffffffffffffffffffffffffe01660200190565b92919261307c82613036565b9161308a6040519384612f71565b82948184528183011161123f578281602093846000960137010152565b9080601f8301121561123f5781602061303393359101613070565b90815180825260208080930193019160005b8281106130e2575050505090565b8351855293810193928101926001016130d4565b359060ff8216820361123f57565b3360009081527fba06a78ec98734fb5637b51b6458f4ba0a229fe2bbc86ce5d18073647cb408f3602090815260408083205490927fa269776b75ac4c5fa422bb11bec3ed3cee626848d07687372583174b209261fb9160ff16156131685750505050565b61317133613922565b9184519061317e82612f55565b6042825284820192606036853782511561332357603084538251906001918210156133235790607860218501536041915b818311613276575050506132345760486124179386936132189361320998519889937f416363657373436f6e74726f6c3a206163636f756e74200000000000000000008a8601526123b7815180928c603789019101612ea2565b01036028810187520185612f71565b5192839262461bcd60e51b845260048401526024830190612ec5565b60648486519062461bcd60e51b825280600483015260248201527f537472696e67733a20686578206c656e67746820696e73756666696369656e746044820152fd5b909192600f811660108110156132f6577f3031323334353637383961626364656600000000000000000000000000000000901a6132b38587613911565b5360041c9280156132c9576000190191906131af565b6024827f4e487b710000000000000000000000000000000000000000000000000000000081526011600452fd5b6024837f4e487b710000000000000000000000000000000000000000000000000000000081526032600452fd5b807f4e487b7100000000000000000000000000000000000000000000000000000000602492526032600452fd5b3360009081527fc81858b0fc5e8d7d2c7a341b4e13a62a27b51e1da1072bf5f7fee8fdef673e94602090815260408083205490927f65d7a28e3265b37a6474929f336521b332c1681b933f6cb9f3376673440d862a9160ff16156133b45750505050565b6133bd33613922565b918451906133ca82612f55565b6042825284820192606036853782511561332357603084538251906001918210156133235790607860218501536041915b818311613455575050506132345760486124179386936132189361320998519889937f416363657373436f6e74726f6c3a206163636f756e74200000000000000000008a8601526123b7815180928c603789019101612ea2565b909192600f811660108110156132f6577f3031323334353637383961626364656600000000000000000000000000000000901a6134928587613911565b5360041c9280156132c9576000190191906133fb565b3360009081527fc88390e7e62175be0932452175b6a7222b6b094ab0ef984a5153c620345d8975602090815260408083205490929060ff16156134ea57505050565b6134f333613922565b908084519061350182612f55565b6042825284820192606036853782511561332357603084538251906001918210156133235790607860218501536041915b81831161358c575050506132345760486124179386936132189361320998519889937f416363657373436f6e74726f6c3a206163636f756e74200000000000000000008a8601526123b7815180928c603789019101612ea2565b909192600f811660108110156132f6577f3031323334353637383961626364656600000000000000000000000000000000901a6135c98587613911565b5360041c9280156132c957600019019190613532565b60009080825260209060fb8252604092838120338252835260ff8482205416156136095750505050565b61361233613922565b9184519061361f82612f55565b6042825284820192606036853782511561332357603084538251906001918210156133235790607860218501536041915b8183116136aa575050506132345760486124179386936132189361320998519889937f416363657373436f6e74726f6c3a206163636f756e74200000000000000000008a8601526123b7815180928c603789019101612ea2565b909192600f811660108110156132f6577f3031323334353637383961626364656600000000000000000000000000000000901a6136e78587613911565b5360041c9280156132c957600019019190613650565b90600182811c92168015613746575b602083101461371757565b7f4e487b7100000000000000000000000000000000000000000000000000000000600052602260045260246000fd5b91607f169161370c565b73ffffffffffffffffffffffffffffffffffffffff1690811561378a57600052609760205260406000209060005260205260406000205490565b608460405162461bcd60e51b815260206004820152602a60248201527f455243313135353a2061646472657373207a65726f206973206e6f742061207660448201527f616c6964206f776e6572000000000000000000000000000000000000000000006064820152fd5b906137fe82612fb2565b61380b6040519182612f71565b8281527fffffffffffffffffffffffffffffffffffffffffffffffffffffffffffffffe06138398294612fb2565b0190602036910137565b60001981146138525760010190565b7f4e487b7100000000000000000000000000000000000000000000000000000000600052601160045260246000fd5b80518210156138955760209160051b010190565b7f4e487b7100000000000000000000000000000000000000000000000000000000600052603260045260246000fd5b909190156138d0575090565b8151156138e05750805190602001fd5b6124179060405191829162461bcd60e51b8352602060048401526024830190612ec5565b9190820180921161385257565b908151811015613895570160200190565b604051906060820182811067ffffffffffffffff82111761120c57604052602a82526020820160403682378251156138955760309053815160019081101561389557607860218401536029905b8082116139c357505061397f5790565b606460405162461bcd60e51b815260206004820152602060248201527f537472696e67733a20686578206c656e67746820696e73756666696369656e746044820152fd5b9091600f81166010811015613a42577f3031323334353637383961626364656600000000000000000000000000000000901a6139ff8486613911565b5360041c918015613a1457600019019061396f565b602460007f4e487b710000000000000000000000000000000000000000000000000000000081526011600452fd5b602460007f4e487b710000000000000000000000000000000000000000000000000000000081526032600452fd5b80548210156138955760005260206000200190600090565b60ff60335416613a9457565b606460405162461bcd60e51b815260206004820152601060248201527f5061757361626c653a20706175736564000000000000000000000000000000006044820152fd5b91906001830160009082825280602052604082205415600014613b775784549468010000000000000000861015613b4a5783613b3a613b21886001604098999a01855584613a70565b819391549060031b600019811b9283911b169119161790565b9055549382526020522055600190565b6024837f4e487b710000000000000000000000000000000000000000000000000000000081526041600452fd5b50925050565b9190820391821161385257565b90600182019060009281845282602052604084205490811515600014613cbe5760001991828101818111613c9157825490848201918211613c6457808203613c2f575b50505080548015613c0257820191613be58383613a70565b909182549160031b1b191690555582526020526040812055600190565b6024867f4e487b710000000000000000000000000000000000000000000000000000000081526031600452fd5b613c4f613c3f613b219386613a70565b90549060031b1c92839286613a70565b90558652846020526040862055388080613bcd565b6024887f4e487b710000000000000000000000000000000000000000000000000000000081526011600452fd5b6024877f4e487b710000000000000000000000000000000000000000000000000000000081526011600452fd5b5050505090565b15613ccc57565b608460405162461bcd60e51b815260206004820152602b60248201527f496e697469616c697a61626c653a20636f6e7472616374206973206e6f74206960448201527f6e697469616c697a696e670000000000000000000000000000000000000000006064820152fd5b9081602091031261123f575173ffffffffffffffffffffffffffffffffffffffff8116810361123f5790565b3560ff8116810361123f5790565b15613d7757565b608460405162461bcd60e51b815260206004820152602860248201527f455243313135353a2069647320616e6420616d6f756e7473206c656e6774682060448201527f6d69736d617463680000000000000000000000000000000000000000000000006064820152fd5b9091613df8613033936040845260408401906130c2565b9160208184039101526130c2565b90919373ffffffffffffffffffffffffffffffffffffffff908183169182159081159161435457613e3a8651895114613d70565b613e42613a88565b80610191541690806101925416908286148092811561434a575b8115614341575b81156142a4575b508851931560005b8a8d8783106141d657505050505050505060005b8551811015613ecd5780613e9d613ec8928a613881565b51613ea88289613881565b5160005260c9602052613ec16040600020918254613904565b9055613843565b613e86565b509091929460005b8551811015613f215780613eec613f1c928a613881565b51613ef78289613881565b51600052613ec160206097815260409081600020908a60005252600020918254613904565b613ed5565b509195909460409584600088517f4a39dc06d4c0dbc64b70af90fd698a233a518aa5d07e595d983b8c0526c8f7fb339180613f5d898d83613de1565b0390a484600052610195602052866000206000805286519160005b8381106141a957505050503b613f90575b5050505050565b61400b9260209260008751809681958294613ffc613fe97fbc197c81000000000000000000000000000000000000000000000000000000009c8d875233600488015287602488015260a0604488015260a48701906130c2565b60031993848783030160648801526130c2565b91848303016084850152612ec5565b03925af160009181614179575b506140e357505060016140296143f6565b6308c379a0146140ad575b61404457505b3880808080613f89565b5162461bcd60e51b815260206004820152603460248201527f455243313135353a207472616e7366657220746f206e6f6e204552433131353560448201527f526563656976657220696d706c656d656e7465720000000000000000000000006064820152608490fd5b6140b5614414565b806140c05750614034565b61241790835191829162461bcd60e51b8352602060048401526024830190612ec5565b7fffffffff000000000000000000000000000000000000000000000000000000001603614110575061403a565b5162461bcd60e51b815260206004820152602860248201527f455243313135353a204552433131353552656365697665722072656a6563746560448201527f6420746f6b656e730000000000000000000000000000000000000000000000006064820152608490fd5b61419b91925060203d81116141a2575b6141938183612f71565b8101906143be565b9038614018565b503d614189565b80826141b76001938c613881565b51906141c5575b5001613f78565b6141cf9085613ad8565b50386141be565b82846141e3828a95613881565b5193614240575b61421f575b5050848415918261420f575b50506108f75761420a90613843565b613e72565b60201c168a1415905084386141fb565b61422891613881565b51614237610196918254613b7d565b90558d826141ef565b5061424a91613881565b5115614273578d828461425d8284613881565b5161426c610196918254613904565b90556141ea565b602490604051907fd2a758110000000000000000000000000000000000000000000000000000000082526004820152fd5b3360009081527fba06a78ec98734fb5637b51b6458f4ba0a229fe2bbc86ce5d18073647cb408f3602052604081205460ff1692507fa269776b75ac4c5fa422bb11bec3ed3cee626848d07687372583174b209261fb9183614309575b50505038613e6a565b8914925090821561431f575b5050388080614300565b60ff925090604091815260fb6020528181208982526020522054163880614315565b60009150613e63565b8781149150613e5c565b608460405162461bcd60e51b815260206004820152602160248201527f455243313135353a206d696e7420746f20746865207a65726f2061646472657360448201527f73000000000000000000000000000000000000000000000000000000000000006064820152fd5b9081602091031261123f57517fffffffff000000000000000000000000000000000000000000000000000000008116810361123f5790565b60009060033d1161440357565b905060046000803e60005160e01c90565b600060443d106130335760405160031991823d016004833e815167ffffffffffffffff918282113d6024840111176144725781840194855193841161447a573d85010160208487010111614472575061303392910160200190612f71565b949350505050565b50949350505050565b91908110156138955760051b0190565b1561449a57565b608460405162461bcd60e51b815260206004820152602560248201527f455243313135353a207472616e7366657220746f20746865207a65726f20616460448201527f64726573730000000000000000000000000000000000000000000000000000006064820152fd5b1561450b57565b608460405162461bcd60e51b815260206004820152602a60248201527f455243313135353a20696e73756666696369656e742062616c616e636520666f60448201527f72207472616e73666572000000000000000000000000000000000000000000006064820152fd5b9290939173ffffffffffffffffffffffffffffffffffffffff928386168015968715976145a189614493565b6145aa85614ad8565b6145b387614ad8565b976145bc613a88565b80610191541681610192541681871480918115614ace575b8115614ac6575b8115614a29575b508b928d858751956000925b8988851061497e5750965050505050505016978815928361493b575b614856575b50908560005260209860978a5260409a8b6000208a6000528b52888c600020548181101561463c90614504565b8960005260978d528d6000208c6000528d52038c600020558760005260978b528b600020866000528b528b6000208981549061467791613904565b9055858a8d8d8c8251918d835282015233917fc3d58168c5ae7397731d063d5bbf3d657854427343f4c083240f7aacaa2d0f6291a4856000526101958b528b600020928a6000528c6000209085519560009115915b8781106148055750505050505050503b6146ea575b50505050505050565b61474693600087948951968795869485937ff23a6e61000000000000000000000000000000000000000000000000000000009b8c865233600487015260248601526044850152606484015260a0608484015260a4830190612ec5565b03925af1600091816147e6575b506147b75750506001906147656143f6565b6308c379a014614783575b5061404457505b388080808080806146e1565b61478b614414565b90816147975750614770565b612417845192839262461bcd60e51b845260048401526024830190612ec5565b7fffffffff00000000000000000000000000000000000000000000000000000000160390506141105750614777565b6147fe919250843d86116141a2576141938183612f71565b9038614753565b80838661481460019486613881565b5191614838575b614827575b50016146cc565b6148319089613ad8565b5038614820565b614842828a613750565b61481b576148508288613b8a565b5061481b565b9a9794919996939098959260005b8a51811015614928578c6148838261487c818f613881565b5192613881565b518160005260c9916020928084526040938460002054928484106148bf57906148ba96959493929160005252039060002055613843565b614864565b60848287519062461bcd60e51b82526004820152602860248201527f455243313135353a206275726e20616d6f756e74206578636565647320746f7460448201527f616c537570706c790000000000000000000000000000000000000000000000006064820152fd5b50929598909396999194979a503861460f565b9a979491999693909b98959260005b8b5181101561496c57808c8f8261487c61496795613ea893613881565b61494a565b509295989b909396999194979a61460a565b8793859261498d848994613881565b51956149f0575b16146149cf575b505086841591826149bf575b50506108f7576149b690613843565b858f8f906145ee565b60201c168b1415905086386149a7565b6149d891613881565b516149e7610196918254613b7d565b90558e8261499b565b5050506149fc91613881565b5115614273578f8f9084898592614a138486613881565b51614a22610196918254613904565b9055614994565b3360009081527fba06a78ec98734fb5637b51b6458f4ba0a229fe2bbc86ce5d18073647cb408f3602052604081205460ff1692507fa269776b75ac4c5fa422bb11bec3ed3cee626848d07687372583174b209261fb9183614a8e575b505050386145e2565b8a149250908215614aa4575b5050388080614a85565b60ff925090604091815260fb6020528181208a82526020522054163880614a9a565b8691506145db565b88811491506145d4565b604051906040820182811067ffffffffffffffff82111761120c5760405260018252602082016020368237825115613895575290565b90918281527f07ffffffffffffffffffffffffffffffffffffffffffffffffffffffffffffff831161123f5760209260051b809284830137010190565b9394919091614b5d8251855114613d70565b73ffffffffffffffffffffffffffffffffffffffff9485841696871594851597614b8689614493565b614b8e613a88565b806101915416816101925416818c1480918115615042575b811561503a575b8115614f93575b508851926000858f8e8b8e5b898610614ee55750975050505050505050169586159081614ea9575b614e34575b60005b8651811015614c6f578089613ec18a8e614c0c85614c05614c6a988f613881565b5195613881565b51938060005260976020918183528660409586600020816000528552866000205490614c3a83831015614504565b83600052848652876000209060005285520385600020556000528152826000209160005252600020918254613904565b614be4565b5090919596939892976040988489887f4a39dc06d4c0dbc64b70af90fd698a233a518aa5d07e595d983b8c0526c8f7fb8d5180614cae8c339583613de1565b0390a4846000526101956020528960002091896000528a6000208851948960009115915b878110614de25750505050505050503b614cef575b505050505050565b613fe96000602094614d48613ffc958a51988997889687957fbc197c81000000000000000000000000000000000000000000000000000000009d8e8852336004890152602488015260a0604488015260a48701906130c2565b03925af160009181614dc2575b50614d955750506001614d666143f6565b6308c379a014614d82575b61404457505b388080808080614ce7565b614d8a614414565b806140c05750614d71565b7fffffffff0000000000000000000000000000000000000000000000000000000016036141105750614d77565b614ddb91925060203d81116141a2576141938183612f71565b9038614d55565b8285614df083600195613881565b5191614e16575b614e05575b50018a90614cd2565b614e0f9088613ad8565b5038614dfc565b614e208289613750565b614df757614e2e8287613b8a565b50614df7565b97949698959392919060005b8851811015614e9a57614e53818a613881565b51614e5e828d613881565b518160005260c9916020928084526040938460002054928484106148bf5790614e9596959493929160005252039060002055613843565b614e40565b50909192939598969497614be1565b98959996949392919060005b8b51811015614ed657808c613ea88261487c614ed1958f613881565b614eb5565b50909192939496999598614bdc565b88948692614ef4848a94613881565b5196614f59575b1614614f38575b50508785159283614f28575b5050506108f757614f1e90613843565b858f8e8b8e614bc0565b60201c16141590508f8738614f0e565b614f4191613881565b51614f50610196918254613b7d565b90558e83614f02565b50505090614f679250613881565b5115614273578f8e83858a8e614f7d8486613881565b51614f8c610196918254613904565b9055614efb565b3360009081527fba06a78ec98734fb5637b51b6458f4ba0a229fe2bbc86ce5d18073647cb408f3602052604081205460ff1692507fa269776b75ac4c5fa422bb11bec3ed3cee626848d07687372583174b209261fb918f919084614ffc575b5050505038614bb4565b90918093945014918215615018575b50509050388d8180614ff2565b6040925060ff93825260fb60205282822090825260205220541680388e61500b565b8a9150614bad565b8d81149150614ba6565b6040519061505982612f1c565b8160e06000918281528260208201528260408201528260608201528260808201528260a08201528260c08201520152565b1561509157565b608460405162461bcd60e51b815260206004820152602f60248201527f455243313135353a2063616c6c6572206973206e6f7420746f6b656e206f776e60448201527f6572206e6f7220617070726f76656400000000000000000000000000000000006064820152fd5b9060ff166064811161516f57816040917fa08477ae79c0fbe93cf684988c5b96bfec3bf0e18cba76ebdaa7074eaf8be7479360005261019360205282600020817fffffffffffffffffffffffffffffffffffffffffffffffffffffffffffffff0082541617905582519182526020820152a1565b602490604051907fe9cf3fea0000000000000000000000000000000000000000000000000000000082526004820152fd5b35907fffff0000000000000000000000000000000000000000000000000000000000008216820361123f57565b909173ffffffffffffffffffffffffffffffffffffffff918281169485156155d3576151f885614ad8565b9161520284614ad8565b9660409485519661521288612f39565b600080985261521f613a88565b80610191541690806101925416908215809281156155ca575b81156155c1575b8115615546575b5088519386148b8a8f5b87831061544f575050505050505050865b8551811015615319576152748187613881565b5161527f828c613881565b5190808a5260c960208181528a8c2054928484106152b0578c5252888a2091900390556152ab90613843565b615261565b6084828d519062461bcd60e51b82526004820152602860248201527f455243313135353a206275726e20616d6f756e74206578636565647320746f7460448201527f616c537570706c790000000000000000000000000000000000000000000000006064820152fd5b50919493959690929750808752602091609783528488208489528352848820548181106153e75782828a9387936101959796865260978752898620858752875203888520558751918252848201527fc3d58168c5ae7397731d063d5bbf3d657854427343f4c083240f7aacaa2d0f62873392a486845161539881612f39565b525284528320918051935b8481106153b1575050505050565b806153be60019284613881565b516153c98186613750565b156153d6575b50016153a3565b6153e09086613b8a565b50386153cf565b60848487519062461bcd60e51b825260048201526024808201527f455243313135353a206275726e20616d6f756e7420657863656564732062616c60448201527f616e6365000000000000000000000000000000000000000000000000000000006064820152fd5b828461545c828a95613881565b51936154e3575b6154c2575b505084841591826154b3575b505061548a5761548390613843565b8a8f615250565b60048c517fece85278000000000000000000000000000000000000000000000000000000008152fd5b60201c16151590508438615474565b6154cb91613881565b516154da610196918254613b7d565b90558f82615468565b506154ed91613881565b5115615516578f82846155008284613881565b5161550f610196918254613904565b9055615463565b6024908d51907fd2a758110000000000000000000000000000000000000000000000000000000082526004820152fd5b90507fa269776b75ac4c5fa422bb11bec3ed3cee626848d07687372583174b209261fb808c5260fb6020528a8c20338d5260205260ff8b8d2054169182615590575b505038615246565b15915081156155a2575b503880615588565b90508a5260fb602052888a208a805260205260ff898b2054163861559a565b6001915061523f565b80159150615238565b608460405162461bcd60e51b815260206004820152602360248201527f455243313135353a206275726e2066726f6d20746865207a65726f206164647260448201527f65737300000000000000000000000000000000000000000000000000000000006064820152fdfea2646970667358221220208752f45a786b9b3be39e4b4cb6e8e6cd8279e9d89f19eb5a54da395584e73e64736f6c63430008110033"
}