{
  "_format": "hh-sol-artifact-1",
  "contractName": "MockERC20Permit",
  "sourceName": "contracts/test/MockERC20Permit.sol",
  "abi": [
    {
      "anonymous": false,
      "inputs": [
        {
          "indexed": true,
          "internalType": "address",
          "name": "owner",
          "type": "address"
        },
        {
          "indexed": true,
          "internalType": "address",
          "name": "spender",
          "type": "address"
        },
        {
          "indexed": false,
          "internalType": "uint256",
          "name": "value",
          "type": "uint256"
        }
      ],
      "name": "Approval",
      "type": "event"
    },
    {
      "anonymous": false,
      "inputs": [
        {
          "indexed": false,
          "internalType": "uint8",
          "name": "version",
          "type": "uint8"
        }
      ],
      "name": "Initialized",
      "type": "event"
    },
    {
      "anonymous": false,
      "inputs": [
        {
          "indexed": true,
          "internalType": "address",
          "name": "from",
          "type": "address"
        },
        {
          "indexed": true,
          "internalType": "address",
          "name": "to",
          "type": "address"
        },
        {
          "indexed": false,
          "internalType": "uint256",
          "name": "value",
          "type": "uint256"
        }
      ],
      "name": "Transfer",
      "type": "event"
    },
    {
      "inputs": [],
      "name": "DOMAIN_SEPARATOR",
      "outputs": [
        {
          "internalType": "bytes32",
          "name": "",
          "type": "bytes32"
        }
      ],
      "stateMutability": "view",
      "type": "function"
    },
    {
      "inputs": [
        {
          "internalType": "address",
          "name": "owner",
          "type": "address"
        },
        {
          "internalType": "address",
          "name": "spender",
          "type": "address"
        }
      ],
      "name": "allowance",
      "outputs": [
        {
          "internalType": "uint256",
          "name": "",
          "type": "uint256"
        }
      ],
      "stateMutability": "view",
      "type": "function"
    },
    {
      "inputs": [
        {
          "internalType": "address",
          "name": "spender",
          "type": "address"
        },
        {
          "internalType": "uint256",
          "name": "amount",
          "type": "uint256"
        }
      ],
      "name": "approve",
      "outputs": [
        {
          "internalType": "bool",
          "name": "",
          "type": "bool"
        }
      ],
      "stateMutability": "nonpayable",
      "type": "function"
    },
    {
      "inputs": [
        {
          "internalType": "address",
          "name": "account",
          "type": "address"
        }
      ],
      "name": "balanceOf",
      "outputs": [
        {
          "internalType": "uint256",
          "name": "",
          "type": "uint256"
        }
      ],
      "stateMutability": "view",
      "type": "function"
    },
    {
      "inputs": [],
      "name": "decimals",
      "outputs": [
        {
          "internalType": "uint8",
          "name": "",
          "type": "uint8"
        }
      ],
      "stateMutability": "view",
      "type": "function"
    },
    {
      "inputs": [
        {
          "internalType": "address",
          "name": "spender",
          "type": "address"
        },
        {
          "internalType": "uint256",
          "name": "subtractedValue",
          "type": "uint256"
        }
      ],
      "name": "decreaseAllowance",
      "outputs": [
        {
          "internalType": "bool",
          "name": "",
          "type": "bool"
        }
      ],
      "stateMutability": "nonpayable",
      "type": "function"
    },
    {
      "inputs": [
        {
          "internalType": "address",
          "name": "spender",
          "type": "address"
        },
        {
          "internalType": "uint256",
          "name": "addedValue",
          "type": "uint256"
        }
      ],
      "name": "increaseAllowance",
      "outputs": [
        {
          "internalType": "bool",
          "name": "",
          "type": "bool"
        }
      ],
      "stateMutability": "nonpayable",
      "type": "function"
    },
    {
      "inputs": [],
      "name": "initialize",
      "outputs": [],
      "stateMutability": "nonpayable",
      "type": "function"
    },
    {
      "inputs": [],
      "name": "name",
      "outputs": [
        {
          "internalType": "string",
          "name": "",
          "type": "string"
        }
      ],
      "stateMutability": "view",
      "type": "function"
    },
    {
      "inputs": [
        {
          "internalType": "address",
          "name": "owner",
          "type": "address"
        }
      ],
      "name": "nonces",
      "outputs": [
        {
          "internalType": "uint256",
          "name": "",
          "type": "uint256"
        }
      ],
      "stateMutability": "view",
      "type": "function"
    },
    {
      "inputs": [
        {
          "internalType": "address",
          "name": "owner",
          "type": "address"
        },
        {
          "internalType": "address",
          "name": "spender",
          "type": "address"
        },
        {
          "internalType": "uint256",
          "name": "value",
          "type": "uint256"
        },
        {
          "internalType": "uint256",
          "name": "deadline",
          "type": "uint256"
        },
        {
          "internalType": "uint8",
          "name": "v",
          "type": "uint8"
        },
        {
          "internalType": "bytes32",
          "name": "r",
          "type": "bytes32"
        },
        {
          "internalType": "bytes32",
          "name": "s",
          "type": "bytes32"
        }
      ],
      "name": "permit",
      "outputs": [],
      "stateMutability": "nonpayable",
      "type": "function"
    },
    {
      "inputs": [],
      "name": "symbol",
      "outputs": [
        {
          "internalType": "string",
          "name": "",
          "type": "string"
        }
      ],
      "stateMutability": "view",
      "type": "function"
    },
    {
      "inputs": [],
      "name": "totalSupply",
      "outputs": [
        {
          "internalType": "uint256",
          "name": "",
          "type": "uint256"
        }
      ],
      "stateMutability": "view",
      "type": "function"
    },
    {
      "inputs": [
        {
          "internalType": "address",
          "name": "to",
          "type": "address"
        },
        {
          "internalType": "uint256",
          "name": "amount",
          "type": "uint256"
        }
      ],
      "name": "transfer",
      "outputs": [
        {
          "internalType": "bool",
          "name": "",
          "type": "bool"
        }
      ],
      "stateMutability": "nonpayable",
      "type": "function"
    },
    {
      "inputs": [
        {
          "internalType": "address",
          "name": "from",
          "type": "address"
        },
        {
          "internalType": "address",
          "name": "to",
          "type": "address"
        },
        {
          "internalType": "uint256",
          "name": "amount",
          "type": "uint256"
        }
      ],
      "name": "transferFrom",
      "outputs": [
        {
          "internalType": "bool",
          "name": "",
          "type": "bool"
        }
      ],
      "stateMutability": "nonpayable",
      "type": "function"
    }
  ],
  "bytecode": "0x6080806040523461001657611b1c908161001c8239f35b600080fdfe608060408181526004918236101561001657600080fd5b600092833560e01c91826306fdde03146110a457508163095ea7b31461105c57816318160ddd1461101f57816323b872dd14610ef1578163313ce56714610eb75781633644e51514610e755781633950935114610dfb57816370a0823114610d995781637ecebe0014610d375781638129fc1c1461064a57816395d89b411461052d578163a457c2d714610427578163a9059cbb146103d8578163d505accf14610140575063dd62ed3e146100ca57600080fd5b3461013c57807ffffffffffffffffffffffffffffffffffffffffffffffffffffffffffffffffc36011261013c57806020926101046111e0565b61010c611208565b73ffffffffffffffffffffffffffffffffffffffff91821683526034865283832091168252845220549051908152f35b5080fd5b83833461013c5760e07ffffffffffffffffffffffffffffffffffffffffffffffffffffffffffffffffc36011261013c576101796111e0565b92610182611208565b6044359160843560643560ff821682036103d4578042116103775773ffffffffffffffffffffffffffffffffffffffff9081891692838952609960205287892080549060018201905588519260208401917f6e71edae12b1b97f4d1f60370fef10105fa2faae0126114a169c64845d6126c98352868b860152858916606086015289608086015260a085015260c084015260c0835260e083019267ffffffffffffffff938181108582111761034b578a525190209061023f6119ef565b9289519260208401947f19010000000000000000000000000000000000000000000000000000000000008652602285015260428401526042835260808301908382109082111761031f57916102ad93916102a5938b5260c4359260a4359251902061192d565b919091611708565b16036102c257506102bf929394611593565b51f35b60649060208551917f08c379a0000000000000000000000000000000000000000000000000000000008352820152601e60248201527f45524332305065726d69743a20696e76616c6964207369676e617475726500006044820152fd5b60248b6041897f4e487b7100000000000000000000000000000000000000000000000000000000835252fd5b60248c60418a7f4e487b7100000000000000000000000000000000000000000000000000000000835252fd5b60648360208851917f08c379a0000000000000000000000000000000000000000000000000000000008352820152601d60248201527f45524332305065726d69743a206578706972656420646561646c696e650000006044820152fd5b8680fd5b50503461013c57807ffffffffffffffffffffffffffffffffffffffffffffffffffffffffffffffffc36011261013c576020906104206104166111e0565b602435903361137b565b5160018152f35b9050823461052a57827ffffffffffffffffffffffffffffffffffffffffffffffffffffffffffffffffc36011261052a576104606111e0565b918360243592338152603460205281812073ffffffffffffffffffffffffffffffffffffffff861682526020522054908282106104a7576020856104208585038733611593565b60849060208651917f08c379a0000000000000000000000000000000000000000000000000000000008352820152602560248201527f45524332303a2064656372656173656420616c6c6f77616e63652062656c6f7760448201527f207a65726f0000000000000000000000000000000000000000000000000000006064820152fd5b80fd5b50503461013c57817ffffffffffffffffffffffffffffffffffffffffffffffffffffffffffffffffc36011261013c578051908260375461056d8161122b565b8085529160019180831690811561060457506001146105a7575b505050610599826105a39403836112c9565b519182918261116a565b0390f35b9450603785527f42a7b7dd785cd69714a189dffb3fd7d7174edc9ece837694ce50f7078f7c31ae5b8286106105ec575050506105998260206105a39582010194610587565b805460208787018101919091529095019481016105cf565b6105a39750869350602092506105999491507fffffffffffffffffffffffffffffffffffffffffffffffffffffffffffffff001682840152151560051b82010194610587565b905034610d3357827ffffffffffffffffffffffffffffffffffffffffffffffffffffffffffffffffc360112610d335782549060ff8260081c1615808091610d26575b8015610d0f575b15610c8c5760019281847fffffffffffffffffffffffffffffffffffffffffffffffffffffffffffffff008316178755610c5e575b508351916106d68361127e565b600f8352602092838101907f4d6f636b45524332305065726d697400000000000000000000000000000000009182815260ff895460081c169161071883611a5b565b8851916107248361127e565b888352878301917f3100000000000000000000000000000000000000000000000000000000000000835261075785611a5b565b51902091519020906065556066558651916107718361127e565b600f8352858301526107b68751916107888361127e565b600683527f4d4552433230000000000000000000000000000000000000000000000000000087840152611a5b565b81519067ffffffffffffffff91828111610c3257806107d660365461122b565b94601f95868111610bc5575b508890868311600114610b0b578c92610b00575b50507fffffffffffffffffffffffffffffffffffffffffffffffffffffffffffffffff828a1b9260031b1c1916176036555b8051918211610ad457819061083e60375461122b565b848111610a67575b5086908483116001146109ad578a926109a2575b50507fffffffffffffffffffffffffffffffffffffffffffffffffffffffffffffffff82881b9260031b1c1916176037555b331561094757505061089f60355461130a565b603555338552603382528385206108b6815461130a565b9055835169d3c21bcecceda10000008152857fddf252ad1be2c89b69c2b068fc378daa952ba7f163c4a11628f55a4df523b3ef843393a36108f657505051f35b7f7f26b83ff96e1f2b6a682f133852f6798a09c465da95921460cefb3847402498917fffffffffffffffffffffffffffffffffffffffffffffffffffffffffffff00ff85541685558351908152a151f35b60649250838651927f08c379a000000000000000000000000000000000000000000000000000000000845283015260248201527f45524332303a206d696e7420746f20746865207a65726f2061646472657373006044820152fd5b01519050388061085a565b907fffffffffffffffffffffffffffffffffffffffffffffffffffffffffffffffe08994169160378c527f42a7b7dd785cd69714a189dffb3fd7d7174edc9ece837694ce50f7078f7c31ae928c5b8a828210610a515750508411610a1a575b505050811b0160375561088c565b01517fffffffffffffffffffffffffffffffffffffffffffffffffffffffffffffffff60f88460031b161c19169055388080610a0c565b8385015186558c979095019493840193016109fb565b90915060378a527f42a7b7dd785cd69714a189dffb3fd7d7174edc9ece837694ce50f7078f7c31ae8480850160051c820192898610610acb575b918a91869594930160051c01915b828110610abd575050610846565b8c81558594508a9101610aaf565b92508192610aa1565b6024896041867f4e487b7100000000000000000000000000000000000000000000000000000000835252fd5b0151905038806107f6565b908c917fffffffffffffffffffffffffffffffffffffffffffffffffffffffffffffffe08c9516603684527f4a11f94e20a93c79f6ec743a1954ec4fc2c08429ae2122118bf234b2185c81b8935b8c828210610baf5750508411610b78575b505050811b01603655610828565b01517fffffffffffffffffffffffffffffffffffffffffffffffffffffffffffffffff60f88460031b161c19169055388080610b6a565b8385015186558e97909501949384019301610b59565b90915060368c527f4a11f94e20a93c79f6ec743a1954ec4fc2c08429ae2122118bf234b2185c81b88680850160051c8201928b8610610c29575b918c91869594930160051c01915b828110610c1b5750506107e2565b8e81558594508c9101610c0d565b92508192610bff565b60248a6041877f4e487b7100000000000000000000000000000000000000000000000000000000835252fd5b7fffffffffffffffffffffffffffffffffffffffffffffffffffffffffffff000016610101178555386106c9565b60848260208651917f08c379a0000000000000000000000000000000000000000000000000000000008352820152602e60248201527f496e697469616c697a61626c653a20636f6e747261637420697320616c72656160448201527f647920696e697469616c697a65640000000000000000000000000000000000006064820152fd5b50303b1580156106945750600160ff841614610694565b50600160ff84161061068d565b8280fd5b50503461013c5760207ffffffffffffffffffffffffffffffffffffffffffffffffffffffffffffffffc36011261013c578060209273ffffffffffffffffffffffffffffffffffffffff610d896111e0565b1681526099845220549051908152f35b50503461013c5760207ffffffffffffffffffffffffffffffffffffffffffffffffffffffffffffffffc36011261013c578060209273ffffffffffffffffffffffffffffffffffffffff610deb6111e0565b1681526033845220549051908152f35b50503461013c57807ffffffffffffffffffffffffffffffffffffffffffffffffffffffffffffffffc36011261013c57610420602092610e6e610e3c6111e0565b913381526034865284812073ffffffffffffffffffffffffffffffffffffffff8416825286528460243591205461136f565b9033611593565b50503461013c57817ffffffffffffffffffffffffffffffffffffffffffffffffffffffffffffffffc36011261013c57602090610eb06119ef565b9051908152f35b50503461013c57817ffffffffffffffffffffffffffffffffffffffffffffffffffffffffffffffffc36011261013c576020905160128152f35b8391503461013c5760607ffffffffffffffffffffffffffffffffffffffffffffffffffffffffffffffffc36011261013c57610f2b6111e0565b610f33611208565b91846044359473ffffffffffffffffffffffffffffffffffffffff8416815260346020528181203382526020522054907fffffffffffffffffffffffffffffffffffffffffffffffffffffffffffffffff8203610f99575b60208661042087878761137b565b848210610fc25750918391610fb76020969561042095033383611593565b919394819350610f8b565b60649060208751917f08c379a0000000000000000000000000000000000000000000000000000000008352820152601d60248201527f45524332303a20696e73756666696369656e7420616c6c6f77616e63650000006044820152fd5b50503461013c57817ffffffffffffffffffffffffffffffffffffffffffffffffffffffffffffffffc36011261013c576020906035549051908152f35b50503461013c57807ffffffffffffffffffffffffffffffffffffffffffffffffffffffffffffffffc36011261013c5760209061042061109a6111e0565b6024359033611593565b84908434610d3357827ffffffffffffffffffffffffffffffffffffffffffffffffffffffffffffffffc360112610d3357826036546110e28161122b565b80855291600191808316908115610604575060011461110d57505050610599826105a39403836112c9565b9450603685527f4a11f94e20a93c79f6ec743a1954ec4fc2c08429ae2122118bf234b2185c81b85b828610611152575050506105998260206105a39582010194610587565b80546020878701810191909152909501948101611135565b919091602080825283519081818401526000945b8286106111ca575050601f817fffffffffffffffffffffffffffffffffffffffffffffffffffffffffffffffe09260409596116111bd575b0116010190565b60008582860101526111b6565b858101820151848701604001529481019461117e565b6004359073ffffffffffffffffffffffffffffffffffffffff8216820361120357565b600080fd5b6024359073ffffffffffffffffffffffffffffffffffffffff8216820361120357565b90600182811c92168015611274575b602083101461124557565b7f4e487b7100000000000000000000000000000000000000000000000000000000600052602260045260246000fd5b91607f169161123a565b6040810190811067ffffffffffffffff82111761129a57604052565b7f4e487b7100000000000000000000000000000000000000000000000000000000600052604160045260246000fd5b90601f7fffffffffffffffffffffffffffffffffffffffffffffffffffffffffffffffe0910116810190811067ffffffffffffffff82111761129a57604052565b7fffffffffffffffffffffffffffffffffffffffffffff2c3de43133125effffff81116113405769d3c21bcecceda10000000190565b7f4e487b7100000000000000000000000000000000000000000000000000000000600052601160045260246000fd5b81198111611340570190565b73ffffffffffffffffffffffffffffffffffffffff80911691821561150f571691821561148b576000828152603360205260408120549180831061140757604082827fddf252ad1be2c89b69c2b068fc378daa952ba7f163c4a11628f55a4df523b3ef958760209652603386520382822055868152206113fc82825461136f565b9055604051908152a3565b60846040517f08c379a000000000000000000000000000000000000000000000000000000000815260206004820152602660248201527f45524332303a207472616e7366657220616d6f756e742065786365656473206260448201527f616c616e636500000000000000000000000000000000000000000000000000006064820152fd5b60846040517f08c379a000000000000000000000000000000000000000000000000000000000815260206004820152602360248201527f45524332303a207472616e7366657220746f20746865207a65726f206164647260448201527f65737300000000000000000000000000000000000000000000000000000000006064820152fd5b60846040517f08c379a000000000000000000000000000000000000000000000000000000000815260206004820152602560248201527f45524332303a207472616e736665722066726f6d20746865207a65726f20616460448201527f64726573730000000000000000000000000000000000000000000000000000006064820152fd5b73ffffffffffffffffffffffffffffffffffffffff80911691821561168557169182156116015760207f8c5be1e5ebec7d5bd14f71427d1e84f3dd0314c0f7b2291e5b200ac8c7c3b925918360005260348252604060002085600052825280604060002055604051908152a3565b60846040517f08c379a000000000000000000000000000000000000000000000000000000000815260206004820152602260248201527f45524332303a20617070726f766520746f20746865207a65726f20616464726560448201527f73730000000000000000000000000000000000000000000000000000000000006064820152fd5b60846040517f08c379a0000000000000000000000000000000000000000000000000000000008152602060048201526024808201527f45524332303a20617070726f76652066726f6d20746865207a65726f2061646460448201527f72657373000000000000000000000000000000000000000000000000000000006064820152fd5b60058110156118fe57806117195750565b6001810361177f5760646040517f08c379a000000000000000000000000000000000000000000000000000000000815260206004820152601860248201527f45434453413a20696e76616c6964207369676e617475726500000000000000006044820152fd5b600281036117e55760646040517f08c379a000000000000000000000000000000000000000000000000000000000815260206004820152601f60248201527f45434453413a20696e76616c6964207369676e6174757265206c656e677468006044820152fd5b600381036118715760846040517f08c379a000000000000000000000000000000000000000000000000000000000815260206004820152602260248201527f45434453413a20696e76616c6964207369676e6174757265202773272076616c60448201527f75650000000000000000000000000000000000000000000000000000000000006064820152fd5b60041461187a57565b60846040517f08c379a000000000000000000000000000000000000000000000000000000000815260206004820152602260248201527f45434453413a20696e76616c6964207369676e6174757265202776272076616c60448201527f75650000000000000000000000000000000000000000000000000000000000006064820152fd5b7f4e487b7100000000000000000000000000000000000000000000000000000000600052602160045260246000fd5b9291907f7fffffffffffffffffffffffffffffff5d576e7357a4501ddfe92f46681b20a083116119e35760ff16601b811415806119d8575b6119cc579160809493916020936040519384528484015260408301526060820152600093849182805260015afa156119bf57815173ffffffffffffffffffffffffffffffffffffffff8116156119b9579190565b50600190565b50604051903d90823e3d90fd5b50505050600090600490565b50601c811415611965565b50505050600090600390565b6065546066546040519060208201927f8b73c3c69bb8fe3d512ecc4cf759cc79239f7b179b0ffacaa9a75d522b39400f8452604083015260608201524660808201523060a082015260a0815260c0810181811067ffffffffffffffff82111761129a5760405251902090565b15611a6257565b60846040517f08c379a000000000000000000000000000000000000000000000000000000000815260206004820152602b60248201527f496e697469616c697a61626c653a20636f6e7472616374206973206e6f74206960448201527f6e697469616c697a696e670000000000000000000000000000000000000000006064820152fdfea264697066735822122043557be19d54cb54cf1c5f56b2bd03b7bff4e7994bc2489b024c2af3322edff764736f6c634300080f0033",
  "linkReferences": {},
  "deployedLinkReferences": {}
}