{
  "_format": "hh-sol-artifact-1",
  "contractName": "MockCertificate",
  "sourceName": "contracts/mocks/MockCertificate.sol",
  "abi": [
    {
      "inputs": [],
      "name": "ForbiddenFunctionCall",
      "type": "error"
    },
    {
      "inputs": [],
      "name": "ForbiddenTransferAfterMinting",
      "type": "error"
    },
    {
      "anonymous": false,
      "inputs": [
        {
          "indexed": true,
          "internalType": "address",
          "name": "account",
          "type": "address"
        },
        {
          "indexed": true,
          "internalType": "address",
          "name": "operator",
          "type": "address"
        },
        {
          "indexed": false,
          "internalType": "bool",
          "name": "approved",
          "type": "bool"
        }
      ],
      "name": "ApprovalForAll",
      "type": "event"
    },
    {
      "anonymous": false,
      "inputs": [
        {
          "indexed": true,
          "internalType": "address",
          "name": "recipient",
          "type": "address"
        },
        {
          "indexed": true,
          "internalType": "uint256",
          "name": "certificateId",
          "type": "uint256"
        },
        {
          "indexed": false,
          "internalType": "uint256[]",
          "name": "removalIds",
          "type": "uint256[]"
        },
        {
          "indexed": false,
          "internalType": "uint256[]",
          "name": "amounts",
          "type": "uint256[]"
        }
      ],
      "name": "CertificateCreated",
      "type": "event"
    },
    {
      "anonymous": false,
      "inputs": [
        {
          "indexed": false,
          "internalType": "address",
          "name": "account",
          "type": "address"
        }
      ],
      "name": "Paused",
      "type": "event"
    },
    {
      "anonymous": false,
      "inputs": [
        {
          "indexed": true,
          "internalType": "bytes32",
          "name": "role",
          "type": "bytes32"
        },
        {
          "indexed": true,
          "internalType": "bytes32",
          "name": "previousAdminRole",
          "type": "bytes32"
        },
        {
          "indexed": true,
          "internalType": "bytes32",
          "name": "newAdminRole",
          "type": "bytes32"
        }
      ],
      "name": "RoleAdminChanged",
      "type": "event"
    },
    {
      "anonymous": false,
      "inputs": [
        {
          "indexed": true,
          "internalType": "bytes32",
          "name": "role",
          "type": "bytes32"
        },
        {
          "indexed": true,
          "internalType": "address",
          "name": "account",
          "type": "address"
        },
        {
          "indexed": true,
          "internalType": "address",
          "name": "sender",
          "type": "address"
        }
      ],
      "name": "RoleGranted",
      "type": "event"
    },
    {
      "anonymous": false,
      "inputs": [
        {
          "indexed": true,
          "internalType": "bytes32",
          "name": "role",
          "type": "bytes32"
        },
        {
          "indexed": true,
          "internalType": "address",
          "name": "account",
          "type": "address"
        },
        {
          "indexed": true,
          "internalType": "address",
          "name": "sender",
          "type": "address"
        }
      ],
      "name": "RoleRevoked",
      "type": "event"
    },
    {
      "anonymous": false,
      "inputs": [
        {
          "indexed": true,
          "internalType": "address",
          "name": "operator",
          "type": "address"
        },
        {
          "indexed": true,
          "internalType": "address",
          "name": "from",
          "type": "address"
        },
        {
          "indexed": true,
          "internalType": "address",
          "name": "to",
          "type": "address"
        },
        {
          "indexed": false,
          "internalType": "uint256[]",
          "name": "ids",
          "type": "uint256[]"
        },
        {
          "indexed": false,
          "internalType": "uint256[]",
          "name": "values",
          "type": "uint256[]"
        }
      ],
      "name": "TransferBatch",
      "type": "event"
    },
    {
      "anonymous": false,
      "inputs": [
        {
          "indexed": true,
          "internalType": "address",
          "name": "operator",
          "type": "address"
        },
        {
          "indexed": true,
          "internalType": "address",
          "name": "from",
          "type": "address"
        },
        {
          "indexed": true,
          "internalType": "address",
          "name": "to",
          "type": "address"
        },
        {
          "indexed": false,
          "internalType": "uint256",
          "name": "id",
          "type": "uint256"
        },
        {
          "indexed": false,
          "internalType": "uint256",
          "name": "value",
          "type": "uint256"
        }
      ],
      "name": "TransferSingle",
      "type": "event"
    },
    {
      "anonymous": false,
      "inputs": [
        {
          "indexed": false,
          "internalType": "string",
          "name": "value",
          "type": "string"
        },
        {
          "indexed": true,
          "internalType": "uint256",
          "name": "id",
          "type": "uint256"
        }
      ],
      "name": "URI",
      "type": "event"
    },
    {
      "anonymous": false,
      "inputs": [
        {
          "indexed": false,
          "internalType": "address",
          "name": "account",
          "type": "address"
        }
      ],
      "name": "Unpaused",
      "type": "event"
    },
    {
      "inputs": [],
      "name": "CERTIFICATE_OPERATOR_ROLE",
      "outputs": [
        {
          "internalType": "bytes32",
          "name": "",
          "type": "bytes32"
        }
      ],
      "stateMutability": "view",
      "type": "function"
    },
    {
      "inputs": [],
      "name": "DEFAULT_ADMIN_ROLE",
      "outputs": [
        {
          "internalType": "bytes32",
          "name": "",
          "type": "bytes32"
        }
      ],
      "stateMutability": "view",
      "type": "function"
    },
    {
      "inputs": [],
      "name": "MINTER_ROLE",
      "outputs": [
        {
          "internalType": "bytes32",
          "name": "",
          "type": "bytes32"
        }
      ],
      "stateMutability": "view",
      "type": "function"
    },
    {
      "inputs": [],
      "name": "PAUSER_ROLE",
      "outputs": [
        {
          "internalType": "bytes32",
          "name": "",
          "type": "bytes32"
        }
      ],
      "stateMutability": "view",
      "type": "function"
    },
    {
      "inputs": [
        {
          "internalType": "address",
          "name": "account",
          "type": "address"
        },
        {
          "internalType": "uint256",
          "name": "id",
          "type": "uint256"
        }
      ],
      "name": "balanceOf",
      "outputs": [
        {
          "internalType": "uint256",
          "name": "",
          "type": "uint256"
        }
      ],
      "stateMutability": "view",
      "type": "function"
    },
    {
      "inputs": [
        {
          "internalType": "address[]",
          "name": "accounts",
          "type": "address[]"
        },
        {
          "internalType": "uint256[]",
          "name": "ids",
          "type": "uint256[]"
        }
      ],
      "name": "balanceOfBatch",
      "outputs": [
        {
          "internalType": "uint256[]",
          "name": "",
          "type": "uint256[]"
        }
      ],
      "stateMutability": "view",
      "type": "function"
    },
    {
      "inputs": [
        {
          "internalType": "address",
          "name": "account",
          "type": "address"
        },
        {
          "internalType": "uint256",
          "name": "id",
          "type": "uint256"
        },
        {
          "internalType": "uint256",
          "name": "value",
          "type": "uint256"
        }
      ],
      "name": "burn",
      "outputs": [],
      "stateMutability": "nonpayable",
      "type": "function"
    },
    {
      "inputs": [
        {
          "internalType": "address",
          "name": "account",
          "type": "address"
        },
        {
          "internalType": "uint256[]",
          "name": "ids",
          "type": "uint256[]"
        },
        {
          "internalType": "uint256[]",
          "name": "values",
          "type": "uint256[]"
        }
      ],
      "name": "burnBatch",
      "outputs": [],
      "stateMutability": "nonpayable",
      "type": "function"
    },
    {
      "inputs": [
        {
          "internalType": "uint256",
          "name": "id",
          "type": "uint256"
        }
      ],
      "name": "exists",
      "outputs": [
        {
          "internalType": "bool",
          "name": "",
          "type": "bool"
        }
      ],
      "stateMutability": "view",
      "type": "function"
    },
    {
      "inputs": [
        {
          "internalType": "bytes32",
          "name": "role",
          "type": "bytes32"
        }
      ],
      "name": "getRoleAdmin",
      "outputs": [
        {
          "internalType": "bytes32",
          "name": "",
          "type": "bytes32"
        }
      ],
      "stateMutability": "view",
      "type": "function"
    },
    {
      "inputs": [
        {
          "internalType": "bytes32",
          "name": "role",
          "type": "bytes32"
        },
        {
          "internalType": "uint256",
          "name": "index",
          "type": "uint256"
        }
      ],
      "name": "getRoleMember",
      "outputs": [
        {
          "internalType": "address",
          "name": "",
          "type": "address"
        }
      ],
      "stateMutability": "view",
      "type": "function"
    },
    {
      "inputs": [
        {
          "internalType": "bytes32",
          "name": "role",
          "type": "bytes32"
        }
      ],
      "name": "getRoleMemberCount",
      "outputs": [
        {
          "internalType": "uint256",
          "name": "",
          "type": "uint256"
        }
      ],
      "stateMutability": "view",
      "type": "function"
    },
    {
      "inputs": [
        {
          "internalType": "bytes32",
          "name": "role",
          "type": "bytes32"
        },
        {
          "internalType": "address",
          "name": "account",
          "type": "address"
        }
      ],
      "name": "grantRole",
      "outputs": [],
      "stateMutability": "nonpayable",
      "type": "function"
    },
    {
      "inputs": [
        {
          "internalType": "bytes32",
          "name": "role",
          "type": "bytes32"
        },
        {
          "internalType": "address",
          "name": "account",
          "type": "address"
        }
      ],
      "name": "hasRole",
      "outputs": [
        {
          "internalType": "bool",
          "name": "",
          "type": "bool"
        }
      ],
      "stateMutability": "view",
      "type": "function"
    },
    {
      "inputs": [],
      "name": "initialize",
      "outputs": [],
      "stateMutability": "nonpayable",
      "type": "function"
    },
    {
      "inputs": [
        {
          "internalType": "string",
          "name": "uri",
          "type": "string"
        }
      ],
      "name": "initialize",
      "outputs": [],
      "stateMutability": "nonpayable",
      "type": "function"
    },
    {
      "inputs": [
        {
          "internalType": "address",
          "name": "account",
          "type": "address"
        },
        {
          "internalType": "address",
          "name": "operator",
          "type": "address"
        }
      ],
      "name": "isApprovedForAll",
      "outputs": [
        {
          "internalType": "bool",
          "name": "",
          "type": "bool"
        }
      ],
      "stateMutability": "view",
      "type": "function"
    },
    {
      "inputs": [
        {
          "internalType": "address",
          "name": "",
          "type": "address"
        },
        {
          "internalType": "uint256",
          "name": "",
          "type": "uint256"
        },
        {
          "internalType": "uint256",
          "name": "",
          "type": "uint256"
        },
        {
          "internalType": "bytes",
          "name": "",
          "type": "bytes"
        }
      ],
      "name": "mint",
      "outputs": [],
      "stateMutability": "pure",
      "type": "function"
    },
    {
      "inputs": [
        {
          "internalType": "address",
          "name": "to",
          "type": "address"
        },
        {
          "internalType": "uint256[]",
          "name": "removalIds",
          "type": "uint256[]"
        },
        {
          "internalType": "uint256[]",
          "name": "removalAmounts",
          "type": "uint256[]"
        },
        {
          "internalType": "bytes",
          "name": "data",
          "type": "bytes"
        }
      ],
      "name": "mintBatch",
      "outputs": [],
      "stateMutability": "nonpayable",
      "type": "function"
    },
    {
      "inputs": [],
      "name": "pause",
      "outputs": [],
      "stateMutability": "nonpayable",
      "type": "function"
    },
    {
      "inputs": [],
      "name": "paused",
      "outputs": [
        {
          "internalType": "bool",
          "name": "",
          "type": "bool"
        }
      ],
      "stateMutability": "view",
      "type": "function"
    },
    {
      "inputs": [
        {
          "internalType": "bytes32",
          "name": "role",
          "type": "bytes32"
        },
        {
          "internalType": "address",
          "name": "account",
          "type": "address"
        }
      ],
      "name": "renounceRole",
      "outputs": [],
      "stateMutability": "nonpayable",
      "type": "function"
    },
    {
      "inputs": [
        {
          "internalType": "bytes32",
          "name": "role",
          "type": "bytes32"
        },
        {
          "internalType": "address",
          "name": "account",
          "type": "address"
        }
      ],
      "name": "revokeRole",
      "outputs": [],
      "stateMutability": "nonpayable",
      "type": "function"
    },
    {
      "inputs": [
        {
          "internalType": "address",
          "name": "from",
          "type": "address"
        },
        {
          "internalType": "address",
          "name": "to",
          "type": "address"
        },
        {
          "internalType": "uint256[]",
          "name": "ids",
          "type": "uint256[]"
        },
        {
          "internalType": "uint256[]",
          "name": "amounts",
          "type": "uint256[]"
        },
        {
          "internalType": "bytes",
          "name": "data",
          "type": "bytes"
        }
      ],
      "name": "safeBatchTransferFrom",
      "outputs": [],
      "stateMutability": "nonpayable",
      "type": "function"
    },
    {
      "inputs": [
        {
          "internalType": "address",
          "name": "from",
          "type": "address"
        },
        {
          "internalType": "address",
          "name": "to",
          "type": "address"
        },
        {
          "internalType": "uint256",
          "name": "id",
          "type": "uint256"
        },
        {
          "internalType": "uint256",
          "name": "amount",
          "type": "uint256"
        },
        {
          "internalType": "bytes",
          "name": "data",
          "type": "bytes"
        }
      ],
      "name": "safeTransferFrom",
      "outputs": [],
      "stateMutability": "nonpayable",
      "type": "function"
    },
    {
      "inputs": [
        {
          "internalType": "address",
          "name": "operator",
          "type": "address"
        },
        {
          "internalType": "bool",
          "name": "approved",
          "type": "bool"
        }
      ],
      "name": "setApprovalForAll",
      "outputs": [],
      "stateMutability": "nonpayable",
      "type": "function"
    },
    {
      "inputs": [
        {
          "internalType": "uint256",
          "name": "certificateId",
          "type": "uint256"
        }
      ],
      "name": "sources",
      "outputs": [
        {
          "components": [
            {
              "internalType": "uint256",
              "name": "removalId",
              "type": "uint256"
            },
            {
              "internalType": "uint256",
              "name": "amount",
              "type": "uint256"
            }
          ],
          "internalType": "struct Certificate.Source[]",
          "name": "",
          "type": "tuple[]"
        }
      ],
      "stateMutability": "view",
      "type": "function"
    },
    {
      "inputs": [
        {
          "internalType": "bytes4",
          "name": "interfaceId",
          "type": "bytes4"
        }
      ],
      "name": "supportsInterface",
      "outputs": [
        {
          "internalType": "bool",
          "name": "",
          "type": "bool"
        }
      ],
      "stateMutability": "view",
      "type": "function"
    },
    {
      "inputs": [
        {
          "internalType": "uint256",
          "name": "id",
          "type": "uint256"
        }
      ],
      "name": "totalSupply",
      "outputs": [
        {
          "internalType": "uint256",
          "name": "",
          "type": "uint256"
        }
      ],
      "stateMutability": "view",
      "type": "function"
    },
    {
      "inputs": [],
      "name": "unpause",
      "outputs": [],
      "stateMutability": "nonpayable",
      "type": "function"
    },
    {
      "inputs": [
        {
          "internalType": "uint256",
          "name": "",
          "type": "uint256"
        }
      ],
      "name": "uri",
      "outputs": [
        {
          "internalType": "string",
          "name": "",
          "type": "string"
        }
      ],
      "stateMutability": "view",
      "type": "function"
    }
  ],
  "bytecode": "0x608060405234801561001057600080fd5b50613246806100206000396000f3fe608060405234801561001057600080fd5b50600436106101e45760003560e01c80638129fc1c1161010f578063ca15c873116100a2578063e985e9c511610071578063e985e9c514610471578063f242432a146104ad578063f5298aca146104c0578063f62d1888146104d357600080fd5b8063ca15c8731461040f578063d539139314610422578063d547741f14610449578063e63ab1e91461045c57600080fd5b8063a217fddf116100de578063a217fddf146103b4578063a22cb465146103bc578063a3663d37146103cf578063bd85b039146103ef57600080fd5b80638129fc1c146103665780638456cb591461036e5780639010d07c1461037657806391d14854146103a157600080fd5b80632f2ff15d116101875780634f558e79116101565780634f558e79146103125780635c975abb146103345780636b20c45414610340578063731133e91461035357600080fd5b80632f2ff15d146102c457806336568abe146102d75780633f4ba83a146102ea5780634e1273f4146102f257600080fd5b80631f7fdffa116101c35780631f7fdffa14610252578063248a9ca31461026757806326c6da4f1461028a5780632eb2c2d6146102b157600080fd5b8062fdd58e146101e957806301ffc9a71461020f5780630e89341c14610232575b600080fd5b6101fc6101f73660046124ab565b6104e6565b6040519081526020015b60405180910390f35b61022261021d3660046124eb565b610582565b6040519015158152602001610206565b610245610240366004612508565b61058d565b6040516102069190612579565b6102656102603660046126df565b610621565b005b6101fc610275366004612508565b60009081526065602052604090206001015490565b6101fc7fb6eeb50d1ea0d876d560efb18b8017323347ce323ef4b05d5a0322c9c7869f8f81565b6102656102bf366004612777565b6107b2565b6102656102d2366004612820565b610849565b6102656102e5366004612820565b610874565b6102656108f2565b61030561030036600461284c565b610986565b6040516102069190612951565b610222610320366004612508565b600090815260fb6020526040902054151590565b61015f5460ff16610222565b61026561034e366004612964565b610aaf565b6102656103613660046129d7565b610af2565b610265610b0b565b610265610c05565b610389610384366004612a2b565b610c97565b6040516001600160a01b039091168152602001610206565b6102226103af366004612820565b610cb6565b6101fc600081565b6102656103ca366004612a4d565b610ce1565b6103e26103dd366004612508565b610cec565b6040516102069190612a89565b6101fc6103fd366004612508565b600090815260fb602052604090205490565b6101fc61041d366004612508565b610d73565b6101fc7f9f2df0fed2c77648de5860a4cc508cd0818c85b8b8a1ab4ceeef8d981c8956a681565b610265610457366004612820565b610d8a565b6101fc6000805160206131f183398151915281565b61022261047f366004612ad8565b6001600160a01b03918216600090815260ca6020908152604080832093909416825291909152205460ff1690565b6102656104bb366004612b02565b610db0565b6102656104ce366004612b66565b610df5565b6102656104e1366004612b99565b610e38565b60006001600160a01b0383166105575760405162461bcd60e51b815260206004820152602b60248201527f455243313135353a2062616c616e636520717565727920666f7220746865207a60448201526a65726f206164647265737360a81b60648201526084015b60405180910390fd5b50600081815260c9602090815260408083206001600160a01b03861684529091529020545b92915050565b600061057c82610eb3565b606060cb805461059c90612be9565b80601f01602080910402602001604051908101604052809291908181526020018280546105c890612be9565b80156106155780601f106105ea57610100808354040283529160200191610615565b820191906000526020600020905b8154815290600101906020018083116105f857829003601f168201915b50505050509050919050565b6000818060200190518101906106379190612c23565b6101f65490915060005b85518110156107475784818151811061065c5761065c612c3c565b60200260200101516000036106b35760405162461bcd60e51b815260206004820152601d60248201527f43657274696669636174653a2052656d6f76616c20616d6f756e742030000000604482015260640161054e565b6101f5600083815260200190815260200160002060405180604001604052808884815181106106e4576106e4612c3c565b6020026020010151815260200187848151811061070357610703612c3c565b60209081029190910181015190915282546001818101855560009485529382902083516002909202019081559101519101558061073f81612c68565b915050610641565b50610753816001612c81565b6101f68190555080866001600160a01b03167fb1b9468300ca5a516913a0f871fd85fbf8a14af751437fd41a807ba45e75d7c98787604051610796929190612c99565b60405180910390a36107aa86828486610ebe565b505050505050565b6001600160a01b0385163314806107ce57506107ce853361047f565b6108355760405162461bcd60e51b815260206004820152603260248201527f455243313135353a207472616e736665722063616c6c6572206973206e6f74206044820152711bdddb995c881b9bdc88185c1c1c9bdd995960721b606482015260840161054e565b6108428585858585610f6c565b5050505050565b6000828152606560205260409020600101546108658133611111565b61086f8383611175565b505050565b6001600160a01b03811633146108e45760405162461bcd60e51b815260206004820152602f60248201527f416363657373436f6e74726f6c3a2063616e206f6e6c792072656e6f756e636560448201526e103937b632b9903337b91039b2b63360891b606482015260840161054e565b6108ee8282611197565b5050565b61090a6000805160206131f183398151915233610cb6565b61097c5760405162461bcd60e51b815260206004820152603b60248201527f455243313135355072657365744d696e7465725061757365723a206d7573742060448201527f686176652070617573657220726f6c6520746f20756e70617573650000000000606482015260840161054e565b6109846111b9565b565b606081518351146109eb5760405162461bcd60e51b815260206004820152602960248201527f455243313135353a206163636f756e747320616e6420696473206c656e677468604482015268040dad2e6dac2e8c6d60bb1b606482015260840161054e565b600083516001600160401b03811115610a0657610a0661258c565b604051908082528060200260200182016040528015610a2f578160200160208202803683370190505b50905060005b8451811015610aa757610a7a858281518110610a5357610a53612c3c565b6020026020010151858381518110610a6d57610a6d612c3c565b60200260200101516104e6565b828281518110610a8c57610a8c612c3c565b6020908102919091010152610aa081612c68565b9050610a35565b509392505050565b6001600160a01b038316331480610acb5750610acb833361047f565b610ae75760405162461bcd60e51b815260040161054e90612cc7565b61086f83838361124e565b604051630583896960e51b815260040160405180910390fd5b600054610100900460ff16610b265760005460ff1615610b2a565b303b155b610b465760405162461bcd60e51b815260040161054e90612d10565b600054610100900460ff16158015610b68576000805461ffff19166101011790555b610b706113df565b610b786113df565b610b806113df565b610b886113df565b610b90611406565b610b986113df565b610bb96040518060600160405280602a81526020016131c7602a913961143a565b610bc1611406565b610be26040518060600160405280602a81526020016131c7602a913961146a565b610bea6114de565b60006101f6558015610c02576000805461ff00191690555b50565b610c1d6000805160206131f183398151915233610cb6565b610c8f5760405162461bcd60e51b815260206004820152603960248201527f455243313135355072657365744d696e7465725061757365723a206d7573742060448201527f686176652070617573657220726f6c6520746f20706175736500000000000000606482015260840161054e565b61098461152f565b6000828152609760205260408120610caf90836115ac565b9392505050565b60009182526065602090815260408084206001600160a01b0393909316845291905290205460ff1690565b6108ee3383836115b8565b60606101f56000838152602001908152602001600020805480602002602001604051908101604052809291908181526020016000905b82821015610d6857838290600052602060002090600202016040518060400160405290816000820154815260200160018201548152505081526020019060010190610d22565b505050509050919050565b600081815260976020526040812061057c90611698565b600082815260656020526040902060010154610da68133611111565b61086f8383611197565b6001600160a01b038516331480610dcc5750610dcc853361047f565b610de85760405162461bcd60e51b815260040161054e90612cc7565b61084285858585856116a2565b6001600160a01b038316331480610e115750610e11833361047f565b610e2d5760405162461bcd60e51b815260040161054e90612cc7565b61086f8383836117d2565b600054610100900460ff16610e535760005460ff1615610e57565b303b155b610e735760405162461bcd60e51b815260040161054e90612d10565b600054610100900460ff16158015610e95576000805461ffff19166101011790555b610e9e826118d7565b80156108ee576000805461ff00191690555050565b600061057c82611918565b610ee87f9f2df0fed2c77648de5860a4cc508cd0818c85b8b8a1ab4ceeef8d981c8956a633610cb6565b610f5a5760405162461bcd60e51b815260206004820152603860248201527f455243313135355072657365744d696e7465725061757365723a206d7573742060448201527f68617665206d696e74657220726f6c6520746f206d696e740000000000000000606482015260840161054e565b610f6684848484611958565b50505050565b8151835114610f8d5760405162461bcd60e51b815260040161054e90612d5e565b6001600160a01b038416610fb35760405162461bcd60e51b815260040161054e90612da6565b33610fc2818787878787611a80565b60005b84518110156110ab576000858281518110610fe257610fe2612c3c565b60200260200101519050600085838151811061100057611000612c3c565b602090810291909101810151600084815260c9835260408082206001600160a01b038e1683529093529190912054909150818110156110515760405162461bcd60e51b815260040161054e90612deb565b600083815260c9602090815260408083206001600160a01b038e8116855292528083208585039055908b16825281208054849290611090908490612c81565b92505081905550505050806110a490612c68565b9050610fc5565b50846001600160a01b0316866001600160a01b0316826001600160a01b03167f4a39dc06d4c0dbc64b70af90fd698a233a518aa5d07e595d983b8c0526c8f7fb87876040516110fb929190612c99565b60405180910390a46107aa818787878787611b0b565b61111b8282610cb6565b6108ee57611133816001600160a01b03166014611c66565b61113e836020611c66565b60405160200161114f929190612e35565b60408051601f198184030181529082905262461bcd60e51b825261054e91600401612579565b61117f8282611e01565b600082815260976020526040902061086f9082611e87565b6111a18282611e9c565b600082815260976020526040902061086f9082611f03565b61015f5460ff166112035760405162461bcd60e51b815260206004820152601460248201527314185d5cd8589b194e881b9bdd081c185d5cd95960621b604482015260640161054e565b61015f805460ff191690557f5db9ee0a495bf2e6ff9c91a7834c1ba4fdd244a5e8aa4e537bd38aeae4b073aa335b6040516001600160a01b03909116815260200160405180910390a1565b6001600160a01b0383166112745760405162461bcd60e51b815260040161054e90612eaa565b80518251146112955760405162461bcd60e51b815260040161054e90612d5e565b60003390506112b881856000868660405180602001604052806000815250611a80565b60005b83518110156113805760008482815181106112d8576112d8612c3c565b6020026020010151905060008483815181106112f6576112f6612c3c565b602090810291909101810151600084815260c9835260408082206001600160a01b038c1683529093529190912054909150818110156113475760405162461bcd60e51b815260040161054e90612eed565b600092835260c9602090815260408085206001600160a01b038b168652909152909220910390558061137881612c68565b9150506112bb565b5060006001600160a01b0316846001600160a01b0316826001600160a01b03167f4a39dc06d4c0dbc64b70af90fd698a233a518aa5d07e595d983b8c0526c8f7fb86866040516113d1929190612c99565b60405180910390a450505050565b600054610100900460ff166109845760405162461bcd60e51b815260040161054e90612f31565b600054610100900460ff1661142d5760405162461bcd60e51b815260040161054e90612f31565b61015f805460ff19169055565b600054610100900460ff166114615760405162461bcd60e51b815260040161054e90612f31565b610c0281611f18565b600054610100900460ff166114915760405162461bcd60e51b815260040161054e90612f31565b61149c600033611f2b565b6114c67f9f2df0fed2c77648de5860a4cc508cd0818c85b8b8a1ab4ceeef8d981c8956a633611f2b565b610c026000805160206131f183398151915233611f2b565b600054610100900460ff166115055760405162461bcd60e51b815260040161054e90612f31565b6109847fb6eeb50d1ea0d876d560efb18b8017323347ce323ef4b05d5a0322c9c7869f8f33611175565b61015f5460ff16156115765760405162461bcd60e51b815260206004820152601060248201526f14185d5cd8589b194e881c185d5cd95960821b604482015260640161054e565b61015f805460ff191660011790557f62e78cea01bee320cd4e420270b5ea74000d11b0c9f74754ebdbfc544b05a2586112313390565b6000610caf8383611f35565b816001600160a01b0316836001600160a01b03160361162b5760405162461bcd60e51b815260206004820152602960248201527f455243313135353a2073657474696e6720617070726f76616c20737461747573604482015268103337b91039b2b63360b91b606482015260840161054e565b6001600160a01b03838116600081815260ca6020908152604080832094871680845294825291829020805460ff191686151590811790915591519182527f17307eab39ab6107e8899845ad3d59bd9653f200f220920489ca2b5937696c31910160405180910390a3505050565b600061057c825490565b6001600160a01b0384166116c85760405162461bcd60e51b815260040161054e90612da6565b336116e78187876116d888611f5f565b6116e188611f5f565b87611a80565b600084815260c9602090815260408083206001600160a01b038a1684529091529020548381101561172a5760405162461bcd60e51b815260040161054e90612deb565b600085815260c9602090815260408083206001600160a01b038b8116855292528083208785039055908816825281208054869290611769908490612c81565b909155505060408051868152602081018690526001600160a01b03808916928a821692918616917fc3d58168c5ae7397731d063d5bbf3d657854427343f4c083240f7aacaa2d0f62910160405180910390a46117c9828888888888611faa565b50505050505050565b6001600160a01b0383166117f85760405162461bcd60e51b815260040161054e90612eaa565b336118278185600061180987611f5f565b61181287611f5f565b60405180602001604052806000815250611a80565b600083815260c9602090815260408083206001600160a01b03881684529091529020548281101561186a5760405162461bcd60e51b815260040161054e90612eed565b600084815260c9602090815260408083206001600160a01b03898116808652918452828520888703905582518981529384018890529092908616917fc3d58168c5ae7397731d063d5bbf3d657854427343f4c083240f7aacaa2d0f62910160405180910390a45050505050565b600054610100900460ff166118fe5760405162461bcd60e51b815260040161054e90612f31565b6119078161143a565b61190f611406565b610c028161146a565b60006001600160e01b03198216636cdb3d1360e11b148061194957506001600160e01b031982166303a24d0760e21b145b8061057c575061057c82612065565b6001600160a01b0384166119b85760405162461bcd60e51b815260206004820152602160248201527f455243313135353a206d696e7420746f20746865207a65726f206164647265736044820152607360f81b606482015260840161054e565b60003390506119de6040518060600160405280603a815260200161318d603a913961208a565b6119ee816000876116d888611f5f565b600084815260c9602090815260408083206001600160a01b038916845290915281208054859290611a20908490612c81565b909155505060408051858152602081018590526001600160a01b0380881692600092918516917fc3d58168c5ae7397731d063d5bbf3d657854427343f4c083240f7aacaa2d0f62910160405180910390a461084281600087878787611faa565b6001600160a01b03858116151590851615156000611abe7fb6eeb50d1ea0d876d560efb18b8017323347ce323ef4b05d5a0322c9c7869f8f8a610cb6565b159050828015611acb5750815b8015611ad45750805b15611af257604051630175e5a960e41b815260040160405180910390fd5b611b008989898989896120cd565b505050505050505050565b6001600160a01b0384163b156107aa5760405163bc197c8160e01b81526001600160a01b0385169063bc197c8190611b4f9089908990889088908890600401612f7c565b6020604051808303816000875af1925050508015611b8a575060408051601f3d908101601f19168201909252611b8791810190612fda565b60015b611c3657611b96612ff7565b806308c379a003611bcf5750611baa613013565b80611bb55750611bd1565b8060405162461bcd60e51b815260040161054e9190612579565b505b60405162461bcd60e51b815260206004820152603460248201527f455243313135353a207472616e7366657220746f206e6f6e20455243313135356044820152732932b1b2b4bb32b91034b6b83632b6b2b73a32b960611b606482015260840161054e565b6001600160e01b0319811663bc197c8160e01b146117c95760405162461bcd60e51b815260040161054e9061309c565b60606000611c758360026130e4565b611c80906002612c81565b6001600160401b03811115611c9757611c9761258c565b6040519080825280601f01601f191660200182016040528015611cc1576020820181803683370190505b509050600360fc1b81600081518110611cdc57611cdc612c3c565b60200101906001600160f81b031916908160001a905350600f60fb1b81600181518110611d0b57611d0b612c3c565b60200101906001600160f81b031916908160001a9053506000611d2f8460026130e4565b611d3a906001612c81565b90505b6001811115611db2576f181899199a1a9b1b9c1cb0b131b232b360811b85600f1660108110611d6e57611d6e612c3c565b1a60f81b828281518110611d8457611d84612c3c565b60200101906001600160f81b031916908160001a90535060049490941c93611dab81613103565b9050611d3d565b508315610caf5760405162461bcd60e51b815260206004820181905260248201527f537472696e67733a20686578206c656e67746820696e73756666696369656e74604482015260640161054e565b611e0b8282610cb6565b6108ee5760008281526065602090815260408083206001600160a01b03851684529091529020805460ff19166001179055611e433390565b6001600160a01b0316816001600160a01b0316837f2f8788117e7eff1d82e926ec794901d17c78024a50270940304540a733656f0d60405160405180910390a45050565b6000610caf836001600160a01b0384166120db565b611ea68282610cb6565b156108ee5760008281526065602090815260408083206001600160a01b0385168085529252808320805460ff1916905551339285917ff6391f5c32d9c69d2a47ea670b442974b53935d1edc7fd64eb21e047a839171b9190a45050565b6000610caf836001600160a01b03841661212a565b80516108ee9060cb9060208401906123f6565b6108ee8282611175565b6000826000018281548110611f4c57611f4c612c3c565b9060005260206000200154905092915050565b60408051600180825281830190925260609160009190602080830190803683370190505090508281600081518110611f9957611f99612c3c565b602090810291909101015292915050565b6001600160a01b0384163b156107aa5760405163f23a6e6160e01b81526001600160a01b0385169063f23a6e6190611fee908990899088908890889060040161311a565b6020604051808303816000875af1925050508015612029575060408051601f3d908101601f1916820190925261202691810190612fda565b60015b61203557611b96612ff7565b6001600160e01b0319811663f23a6e6160e01b146117c95760405162461bcd60e51b815260040161054e9061309c565b60006001600160e01b03198216635a05180f60e01b148061057c575061057c8261221d565b610c028160405160240161209e9190612579565b60408051601f198184030181529190526020810180516001600160e01b031663104c13eb60e21b179052612252565b6107aa868686868686612273565b60008181526001830160205260408120546121225750815460018181018455600084815260208082209093018490558454848252828601909352604090209190915561057c565b50600061057c565b6000818152600183016020526040812054801561221357600061214e60018361315f565b85549091506000906121629060019061315f565b90508181146121c757600086600001828154811061218257612182612c3c565b90600052602060002001549050808760000184815481106121a5576121a5612c3c565b6000918252602080832090910192909255918252600188019052604090208390555b85548690806121d8576121d8613176565b60019003818190600052602060002001600090559055856001016000868152602001908152602001600020600090556001935050505061057c565b600091505061057c565b60006001600160e01b03198216637965db0b60e01b148061057c57506301ffc9a760e01b6001600160e01b031983161461057c565b80516a636f6e736f6c652e6c6f67602083016000808483855afa5050505050565b6122818686868686866122ea565b61015f5460ff16156107aa5760405162461bcd60e51b815260206004820152602c60248201527f455243313135355061757361626c653a20746f6b656e207472616e736665722060448201526b1dda1a5b19481c185d5cd95960a21b606482015260840161054e565b6001600160a01b0385166123715760005b835181101561236f5782818151811061231657612316612c3c565b602002602001015160fb600086848151811061233457612334612c3c565b6020026020010151815260200190815260200160002060008282546123599190612c81565b90915550612368905081612c68565b90506122fb565b505b6001600160a01b0384166107aa5760005b83518110156117c95782818151811061239d5761239d612c3c565b602002602001015160fb60008684815181106123bb576123bb612c3c565b6020026020010151815260200190815260200160002060008282546123e0919061315f565b909155506123ef905081612c68565b9050612382565b82805461240290612be9565b90600052602060002090601f016020900481019282612424576000855561246a565b82601f1061243d57805160ff191683800117855561246a565b8280016001018555821561246a579182015b8281111561246a57825182559160200191906001019061244f565b5061247692915061247a565b5090565b5b80821115612476576000815560010161247b565b80356001600160a01b03811681146124a657600080fd5b919050565b600080604083850312156124be57600080fd5b6124c78361248f565b946020939093013593505050565b6001600160e01b031981168114610c0257600080fd5b6000602082840312156124fd57600080fd5b8135610caf816124d5565b60006020828403121561251a57600080fd5b5035919050565b60005b8381101561253c578181015183820152602001612524565b83811115610f665750506000910152565b60008151808452612565816020860160208601612521565b601f01601f19169290920160200192915050565b602081526000610caf602083018461254d565b634e487b7160e01b600052604160045260246000fd5b601f8201601f191681016001600160401b03811182821017156125c7576125c761258c565b6040525050565b60006001600160401b038211156125e7576125e761258c565b5060051b60200190565b600082601f83011261260257600080fd5b8135602061260f826125ce565b60405161261c82826125a2565b83815260059390931b850182019282810191508684111561263c57600080fd5b8286015b848110156126575780358352918301918301612640565b509695505050505050565b60006001600160401b0383111561267b5761267b61258c565b604051612692601f8501601f1916602001826125a2565b8091508381528484840111156126a757600080fd5b83836020830137600060208583010152509392505050565b600082601f8301126126d057600080fd5b610caf83833560208501612662565b600080600080608085870312156126f557600080fd5b6126fe8561248f565b935060208501356001600160401b038082111561271a57600080fd5b612726888389016125f1565b9450604087013591508082111561273c57600080fd5b612748888389016125f1565b9350606087013591508082111561275e57600080fd5b5061276b878288016126bf565b91505092959194509250565b600080600080600060a0868803121561278f57600080fd5b6127988661248f565b94506127a66020870161248f565b935060408601356001600160401b03808211156127c257600080fd5b6127ce89838a016125f1565b945060608801359150808211156127e457600080fd5b6127f089838a016125f1565b9350608088013591508082111561280657600080fd5b50612813888289016126bf565b9150509295509295909350565b6000806040838503121561283357600080fd5b823591506128436020840161248f565b90509250929050565b6000806040838503121561285f57600080fd5b82356001600160401b038082111561287657600080fd5b818501915085601f83011261288a57600080fd5b81356020612897826125ce565b6040516128a482826125a2565b83815260059390931b85018201928281019150898411156128c457600080fd5b948201945b838610156128e9576128da8661248f565b825294820194908201906128c9565b965050860135925050808211156128ff57600080fd5b5061290c858286016125f1565b9150509250929050565b600081518084526020808501945080840160005b838110156129465781518752958201959082019060010161292a565b509495945050505050565b602081526000610caf6020830184612916565b60008060006060848603121561297957600080fd5b6129828461248f565b925060208401356001600160401b038082111561299e57600080fd5b6129aa878388016125f1565b935060408601359150808211156129c057600080fd5b506129cd868287016125f1565b9150509250925092565b600080600080608085870312156129ed57600080fd5b6129f68561248f565b9350602085013592506040850135915060608501356001600160401b03811115612a1f57600080fd5b61276b878288016126bf565b60008060408385031215612a3e57600080fd5b50508035926020909101359150565b60008060408385031215612a6057600080fd5b612a698361248f565b915060208301358015158114612a7e57600080fd5b809150509250929050565b602080825282518282018190526000919060409081850190868401855b82811015612acb57815180518552860151868501529284019290850190600101612aa6565b5091979650505050505050565b60008060408385031215612aeb57600080fd5b612af48361248f565b91506128436020840161248f565b600080600080600060a08688031215612b1a57600080fd5b612b238661248f565b9450612b316020870161248f565b9350604086013592506060860135915060808601356001600160401b03811115612b5a57600080fd5b612813888289016126bf565b600080600060608486031215612b7b57600080fd5b612b848461248f565b95602085013595506040909401359392505050565b600060208284031215612bab57600080fd5b81356001600160401b03811115612bc157600080fd5b8201601f81018413612bd257600080fd5b612be184823560208401612662565b949350505050565b600181811c90821680612bfd57607f821691505b602082108103612c1d57634e487b7160e01b600052602260045260246000fd5b50919050565b600060208284031215612c3557600080fd5b5051919050565b634e487b7160e01b600052603260045260246000fd5b634e487b7160e01b600052601160045260246000fd5b600060018201612c7a57612c7a612c52565b5060010190565b60008219821115612c9457612c94612c52565b500190565b604081526000612cac6040830185612916565b8281036020840152612cbe8185612916565b95945050505050565b60208082526029908201527f455243313135353a2063616c6c6572206973206e6f74206f776e6572206e6f7260408201526808185c1c1c9bdd995960ba1b606082015260800190565b6020808252602e908201527f496e697469616c697a61626c653a20636f6e747261637420697320616c72656160408201526d191e481a5b9a5d1a585b1a5e995960921b606082015260800190565b60208082526028908201527f455243313135353a2069647320616e6420616d6f756e7473206c656e677468206040820152670dad2e6dac2e8c6d60c31b606082015260800190565b60208082526025908201527f455243313135353a207472616e7366657220746f20746865207a65726f206164604082015264647265737360d81b606082015260800190565b6020808252602a908201527f455243313135353a20696e73756666696369656e742062616c616e636520666f60408201526939103a3930b739b332b960b11b606082015260800190565b7f416363657373436f6e74726f6c3a206163636f756e7420000000000000000000815260008351612e6d816017850160208801612521565b7001034b99036b4b9b9b4b733903937b6329607d1b6017918401918201528351612e9e816028840160208801612521565b01602801949350505050565b60208082526023908201527f455243313135353a206275726e2066726f6d20746865207a65726f206164647260408201526265737360e81b606082015260800190565b60208082526024908201527f455243313135353a206275726e20616d6f756e7420657863656564732062616c604082015263616e636560e01b606082015260800190565b6020808252602b908201527f496e697469616c697a61626c653a20636f6e7472616374206973206e6f74206960408201526a6e697469616c697a696e6760a81b606082015260800190565b6001600160a01b0386811682528516602082015260a060408201819052600090612fa890830186612916565b8281036060840152612fba8186612916565b90508281036080840152612fce818561254d565b98975050505050505050565b600060208284031215612fec57600080fd5b8151610caf816124d5565b600060033d11156130105760046000803e5060005160e01c5b90565b600060443d10156130215790565b6040516003193d81016004833e81513d6001600160401b03816024840111818411171561305057505050505090565b82850191508151818111156130685750505050505090565b843d87010160208285010111156130825750505050505090565b613091602082860101876125a2565b509095945050505050565b60208082526028908201527f455243313135353a204552433131353552656365697665722072656a656374656040820152676420746f6b656e7360c01b606082015260800190565b60008160001904831182151516156130fe576130fe612c52565b500290565b60008161311257613112612c52565b506000190190565b6001600160a01b03868116825285166020820152604081018490526060810183905260a0608082018190526000906131549083018461254d565b979650505050505050565b60008282101561317157613171612c52565b500390565b634e487b7160e01b600052603160045260246000fdfe696e7369646520455243313135357570677261646561626c65205f6d696e74206265666f7265206265666f7265546f6b656e5472616e7366657268747470733a2f2f6e6f72692e636f6d2f6170692f63657274696669636174652f7b69647d2e6a736f6e65d7a28e3265b37a6474929f336521b332c1681b933f6cb9f3376673440d862aa2646970667358221220a067fdcb6cee6a80df4c201125410701195c53d153b68d5ac76bd97a189c02ca64736f6c634300080d0033",
  "linkReferences": {},
  "deployedLinkReferences": {}
}