{
  "_format": "hh-sol-artifact-1",
  "contractName": "BridgedPolygonNORI",
  "sourceName": "contracts/BridgedPolygonNORI.sol",
  "abi": [
    {
      "anonymous": false,
      "inputs": [
        {
          "indexed": true,
          "internalType": "address",
          "name": "owner",
          "type": "address"
        },
        {
          "indexed": true,
          "internalType": "address",
          "name": "spender",
          "type": "address"
        },
        {
          "indexed": false,
          "internalType": "uint256",
          "name": "value",
          "type": "uint256"
        }
      ],
      "name": "Approval",
      "type": "event"
    },
    {
      "anonymous": false,
      "inputs": [
        {
          "indexed": true,
          "internalType": "address",
          "name": "operator",
          "type": "address"
        },
        {
          "indexed": true,
          "internalType": "address",
          "name": "tokenHolder",
          "type": "address"
        }
      ],
      "name": "AuthorizedOperator",
      "type": "event"
    },
    {
      "anonymous": false,
      "inputs": [
        {
          "indexed": true,
          "internalType": "address",
          "name": "operator",
          "type": "address"
        },
        {
          "indexed": true,
          "internalType": "address",
          "name": "from",
          "type": "address"
        },
        {
          "indexed": false,
          "internalType": "uint256",
          "name": "amount",
          "type": "uint256"
        },
        {
          "indexed": false,
          "internalType": "bytes",
          "name": "data",
          "type": "bytes"
        },
        {
          "indexed": false,
          "internalType": "bytes",
          "name": "operatorData",
          "type": "bytes"
        }
      ],
      "name": "Burned",
      "type": "event"
    },
    {
      "anonymous": false,
      "inputs": [
        {
          "indexed": true,
          "internalType": "address",
          "name": "operator",
          "type": "address"
        },
        {
          "indexed": true,
          "internalType": "address",
          "name": "to",
          "type": "address"
        },
        {
          "indexed": false,
          "internalType": "uint256",
          "name": "amount",
          "type": "uint256"
        },
        {
          "indexed": false,
          "internalType": "bytes",
          "name": "data",
          "type": "bytes"
        },
        {
          "indexed": false,
          "internalType": "bytes",
          "name": "operatorData",
          "type": "bytes"
        }
      ],
      "name": "Minted",
      "type": "event"
    },
    {
      "anonymous": false,
      "inputs": [
        {
          "indexed": false,
          "internalType": "address",
          "name": "account",
          "type": "address"
        }
      ],
      "name": "Paused",
      "type": "event"
    },
    {
      "anonymous": false,
      "inputs": [
        {
          "indexed": true,
          "internalType": "address",
          "name": "operator",
          "type": "address"
        },
        {
          "indexed": true,
          "internalType": "address",
          "name": "tokenHolder",
          "type": "address"
        }
      ],
      "name": "RevokedOperator",
      "type": "event"
    },
    {
      "anonymous": false,
      "inputs": [
        {
          "indexed": true,
          "internalType": "bytes32",
          "name": "role",
          "type": "bytes32"
        },
        {
          "indexed": true,
          "internalType": "bytes32",
          "name": "previousAdminRole",
          "type": "bytes32"
        },
        {
          "indexed": true,
          "internalType": "bytes32",
          "name": "newAdminRole",
          "type": "bytes32"
        }
      ],
      "name": "RoleAdminChanged",
      "type": "event"
    },
    {
      "anonymous": false,
      "inputs": [
        {
          "indexed": true,
          "internalType": "bytes32",
          "name": "role",
          "type": "bytes32"
        },
        {
          "indexed": true,
          "internalType": "address",
          "name": "account",
          "type": "address"
        },
        {
          "indexed": true,
          "internalType": "address",
          "name": "sender",
          "type": "address"
        }
      ],
      "name": "RoleGranted",
      "type": "event"
    },
    {
      "anonymous": false,
      "inputs": [
        {
          "indexed": true,
          "internalType": "bytes32",
          "name": "role",
          "type": "bytes32"
        },
        {
          "indexed": true,
          "internalType": "address",
          "name": "account",
          "type": "address"
        },
        {
          "indexed": true,
          "internalType": "address",
          "name": "sender",
          "type": "address"
        }
      ],
      "name": "RoleRevoked",
      "type": "event"
    },
    {
      "anonymous": false,
      "inputs": [
        {
          "indexed": true,
          "internalType": "address",
          "name": "operator",
          "type": "address"
        },
        {
          "indexed": true,
          "internalType": "address",
          "name": "from",
          "type": "address"
        },
        {
          "indexed": true,
          "internalType": "address",
          "name": "to",
          "type": "address"
        },
        {
          "indexed": false,
          "internalType": "uint256",
          "name": "amount",
          "type": "uint256"
        },
        {
          "indexed": false,
          "internalType": "bytes",
          "name": "data",
          "type": "bytes"
        },
        {
          "indexed": false,
          "internalType": "bytes",
          "name": "operatorData",
          "type": "bytes"
        }
      ],
      "name": "Sent",
      "type": "event"
    },
    {
      "anonymous": false,
      "inputs": [
        {
          "indexed": true,
          "internalType": "address",
          "name": "from",
          "type": "address"
        },
        {
          "indexed": true,
          "internalType": "address",
          "name": "to",
          "type": "address"
        },
        {
          "indexed": false,
          "internalType": "uint256",
          "name": "value",
          "type": "uint256"
        }
      ],
      "name": "Transfer",
      "type": "event"
    },
    {
      "anonymous": false,
      "inputs": [
        {
          "indexed": false,
          "internalType": "address",
          "name": "account",
          "type": "address"
        }
      ],
      "name": "Unpaused",
      "type": "event"
    },
    {
      "inputs": [],
      "name": "DEFAULT_ADMIN_ROLE",
      "outputs": [
        {
          "internalType": "bytes32",
          "name": "",
          "type": "bytes32"
        }
      ],
      "stateMutability": "view",
      "type": "function"
    },
    {
      "inputs": [],
      "name": "DEPOSITOR_ROLE",
      "outputs": [
        {
          "internalType": "bytes32",
          "name": "",
          "type": "bytes32"
        }
      ],
      "stateMutability": "view",
      "type": "function"
    },
    {
      "inputs": [],
      "name": "PAUSER_ROLE",
      "outputs": [
        {
          "internalType": "bytes32",
          "name": "",
          "type": "bytes32"
        }
      ],
      "stateMutability": "view",
      "type": "function"
    },
    {
      "inputs": [
        {
          "internalType": "address",
          "name": "holder",
          "type": "address"
        },
        {
          "internalType": "address",
          "name": "spender",
          "type": "address"
        }
      ],
      "name": "allowance",
      "outputs": [
        {
          "internalType": "uint256",
          "name": "",
          "type": "uint256"
        }
      ],
      "stateMutability": "view",
      "type": "function"
    },
    {
      "inputs": [
        {
          "internalType": "address",
          "name": "spender",
          "type": "address"
        },
        {
          "internalType": "uint256",
          "name": "value",
          "type": "uint256"
        }
      ],
      "name": "approve",
      "outputs": [
        {
          "internalType": "bool",
          "name": "",
          "type": "bool"
        }
      ],
      "stateMutability": "nonpayable",
      "type": "function"
    },
    {
      "inputs": [
        {
          "internalType": "address",
          "name": "operator",
          "type": "address"
        }
      ],
      "name": "authorizeOperator",
      "outputs": [],
      "stateMutability": "nonpayable",
      "type": "function"
    },
    {
      "inputs": [
        {
          "internalType": "address",
          "name": "tokenHolder",
          "type": "address"
        }
      ],
      "name": "balanceOf",
      "outputs": [
        {
          "internalType": "uint256",
          "name": "",
          "type": "uint256"
        }
      ],
      "stateMutability": "view",
      "type": "function"
    },
    {
      "inputs": [
        {
          "internalType": "uint256",
          "name": "amount",
          "type": "uint256"
        },
        {
          "internalType": "bytes",
          "name": "data",
          "type": "bytes"
        }
      ],
      "name": "burn",
      "outputs": [],
      "stateMutability": "nonpayable",
      "type": "function"
    },
    {
      "inputs": [],
      "name": "decimals",
      "outputs": [
        {
          "internalType": "uint8",
          "name": "",
          "type": "uint8"
        }
      ],
      "stateMutability": "pure",
      "type": "function"
    },
    {
      "inputs": [],
      "name": "defaultOperators",
      "outputs": [
        {
          "internalType": "address[]",
          "name": "",
          "type": "address[]"
        }
      ],
      "stateMutability": "view",
      "type": "function"
    },
    {
      "inputs": [
        {
          "internalType": "address",
          "name": "user",
          "type": "address"
        },
        {
          "internalType": "bytes",
          "name": "depositData",
          "type": "bytes"
        }
      ],
      "name": "deposit",
      "outputs": [],
      "stateMutability": "nonpayable",
      "type": "function"
    },
    {
      "inputs": [
        {
          "internalType": "bytes32",
          "name": "role",
          "type": "bytes32"
        }
      ],
      "name": "getRoleAdmin",
      "outputs": [
        {
          "internalType": "bytes32",
          "name": "",
          "type": "bytes32"
        }
      ],
      "stateMutability": "view",
      "type": "function"
    },
    {
      "inputs": [
        {
          "internalType": "bytes32",
          "name": "role",
          "type": "bytes32"
        },
        {
          "internalType": "uint256",
          "name": "index",
          "type": "uint256"
        }
      ],
      "name": "getRoleMember",
      "outputs": [
        {
          "internalType": "address",
          "name": "",
          "type": "address"
        }
      ],
      "stateMutability": "view",
      "type": "function"
    },
    {
      "inputs": [
        {
          "internalType": "bytes32",
          "name": "role",
          "type": "bytes32"
        }
      ],
      "name": "getRoleMemberCount",
      "outputs": [
        {
          "internalType": "uint256",
          "name": "",
          "type": "uint256"
        }
      ],
      "stateMutability": "view",
      "type": "function"
    },
    {
      "inputs": [
        {
          "internalType": "bytes32",
          "name": "role",
          "type": "bytes32"
        },
        {
          "internalType": "address",
          "name": "account",
          "type": "address"
        }
      ],
      "name": "grantRole",
      "outputs": [],
      "stateMutability": "nonpayable",
      "type": "function"
    },
    {
      "inputs": [],
      "name": "granularity",
      "outputs": [
        {
          "internalType": "uint256",
          "name": "",
          "type": "uint256"
        }
      ],
      "stateMutability": "view",
      "type": "function"
    },
    {
      "inputs": [
        {
          "internalType": "bytes32",
          "name": "role",
          "type": "bytes32"
        },
        {
          "internalType": "address",
          "name": "account",
          "type": "address"
        }
      ],
      "name": "hasRole",
      "outputs": [
        {
          "internalType": "bool",
          "name": "",
          "type": "bool"
        }
      ],
      "stateMutability": "view",
      "type": "function"
    },
    {
      "inputs": [],
      "name": "initialize",
      "outputs": [],
      "stateMutability": "nonpayable",
      "type": "function"
    },
    {
      "inputs": [
        {
          "internalType": "address",
          "name": "childChainManagerProxy",
          "type": "address"
        }
      ],
      "name": "initialize",
      "outputs": [],
      "stateMutability": "nonpayable",
      "type": "function"
    },
    {
      "inputs": [
        {
          "internalType": "address",
          "name": "operator",
          "type": "address"
        },
        {
          "internalType": "address",
          "name": "tokenHolder",
          "type": "address"
        }
      ],
      "name": "isOperatorFor",
      "outputs": [
        {
          "internalType": "bool",
          "name": "",
          "type": "bool"
        }
      ],
      "stateMutability": "view",
      "type": "function"
    },
    {
      "inputs": [],
      "name": "name",
      "outputs": [
        {
          "internalType": "string",
          "name": "",
          "type": "string"
        }
      ],
      "stateMutability": "view",
      "type": "function"
    },
    {
      "inputs": [
        {
          "internalType": "address",
          "name": "account",
          "type": "address"
        },
        {
          "internalType": "uint256",
          "name": "amount",
          "type": "uint256"
        },
        {
          "internalType": "bytes",
          "name": "data",
          "type": "bytes"
        },
        {
          "internalType": "bytes",
          "name": "operatorData",
          "type": "bytes"
        }
      ],
      "name": "operatorBurn",
      "outputs": [],
      "stateMutability": "nonpayable",
      "type": "function"
    },
    {
      "inputs": [
        {
          "internalType": "address",
          "name": "sender",
          "type": "address"
        },
        {
          "internalType": "address",
          "name": "recipient",
          "type": "address"
        },
        {
          "internalType": "uint256",
          "name": "amount",
          "type": "uint256"
        },
        {
          "internalType": "bytes",
          "name": "data",
          "type": "bytes"
        },
        {
          "internalType": "bytes",
          "name": "operatorData",
          "type": "bytes"
        }
      ],
      "name": "operatorSend",
      "outputs": [],
      "stateMutability": "nonpayable",
      "type": "function"
    },
    {
      "inputs": [],
      "name": "pause",
      "outputs": [],
      "stateMutability": "nonpayable",
      "type": "function"
    },
    {
      "inputs": [],
      "name": "paused",
      "outputs": [
        {
          "internalType": "bool",
          "name": "",
          "type": "bool"
        }
      ],
      "stateMutability": "view",
      "type": "function"
    },
    {
      "inputs": [
        {
          "internalType": "bytes32",
          "name": "role",
          "type": "bytes32"
        },
        {
          "internalType": "address",
          "name": "account",
          "type": "address"
        }
      ],
      "name": "renounceRole",
      "outputs": [],
      "stateMutability": "nonpayable",
      "type": "function"
    },
    {
      "inputs": [
        {
          "internalType": "address",
          "name": "operator",
          "type": "address"
        }
      ],
      "name": "revokeOperator",
      "outputs": [],
      "stateMutability": "nonpayable",
      "type": "function"
    },
    {
      "inputs": [
        {
          "internalType": "bytes32",
          "name": "role",
          "type": "bytes32"
        },
        {
          "internalType": "address",
          "name": "account",
          "type": "address"
        }
      ],
      "name": "revokeRole",
      "outputs": [],
      "stateMutability": "nonpayable",
      "type": "function"
    },
    {
      "inputs": [
        {
          "internalType": "address",
          "name": "recipient",
          "type": "address"
        },
        {
          "internalType": "uint256",
          "name": "amount",
          "type": "uint256"
        },
        {
          "internalType": "bytes",
          "name": "data",
          "type": "bytes"
        }
      ],
      "name": "send",
      "outputs": [],
      "stateMutability": "nonpayable",
      "type": "function"
    },
    {
      "inputs": [
        {
          "internalType": "bytes4",
          "name": "interfaceId",
          "type": "bytes4"
        }
      ],
      "name": "supportsInterface",
      "outputs": [
        {
          "internalType": "bool",
          "name": "",
          "type": "bool"
        }
      ],
      "stateMutability": "view",
      "type": "function"
    },
    {
      "inputs": [],
      "name": "symbol",
      "outputs": [
        {
          "internalType": "string",
          "name": "",
          "type": "string"
        }
      ],
      "stateMutability": "view",
      "type": "function"
    },
    {
      "inputs": [],
      "name": "totalSupply",
      "outputs": [
        {
          "internalType": "uint256",
          "name": "",
          "type": "uint256"
        }
      ],
      "stateMutability": "view",
      "type": "function"
    },
    {
      "inputs": [
        {
          "internalType": "address",
          "name": "recipient",
          "type": "address"
        },
        {
          "internalType": "uint256",
          "name": "amount",
          "type": "uint256"
        }
      ],
      "name": "transfer",
      "outputs": [
        {
          "internalType": "bool",
          "name": "",
          "type": "bool"
        }
      ],
      "stateMutability": "nonpayable",
      "type": "function"
    },
    {
      "inputs": [
        {
          "internalType": "address",
          "name": "holder",
          "type": "address"
        },
        {
          "internalType": "address",
          "name": "recipient",
          "type": "address"
        },
        {
          "internalType": "uint256",
          "name": "amount",
          "type": "uint256"
        }
      ],
      "name": "transferFrom",
      "outputs": [
        {
          "internalType": "bool",
          "name": "",
          "type": "bool"
        }
      ],
      "stateMutability": "nonpayable",
      "type": "function"
    },
    {
      "inputs": [],
      "name": "unpause",
      "outputs": [],
      "stateMutability": "nonpayable",
      "type": "function"
    },
    {
      "inputs": [
        {
          "internalType": "uint256",
          "name": "amount",
          "type": "uint256"
        }
      ],
      "name": "withdraw",
      "outputs": [],
      "stateMutability": "nonpayable",
      "type": "function"
    }
  ],
  "bytecode": "0x608060405234801561001057600080fd5b50612de3806100206000396000f3fe608060405234801561001057600080fd5b506004361061021c5760003560e01c80639010d07c11610125578063ca15c873116100ad578063dd62ed3e1161007c578063dd62ed3e1461048b578063e63ab1e9146104c4578063fad8b32a146104d9578063fc673c4f146104ec578063fe9d9303146104ff57600080fd5b8063ca15c8731461043f578063cf2c52cb14610452578063d547741f14610465578063d95b63711461047857600080fd5b80639bd9bbc6116100f45780639bd9bbc6146103d7578063a217fddf146103ea578063a3b0b5a3146103f2578063a9059cbb14610419578063c4d66de81461042c57600080fd5b80639010d07c1461037e57806391d14854146103a9578063959b8c3f146103bc57806395d89b41146103cf57600080fd5b8063313ce567116101a85780635c975abb116101775780635c975abb1461032757806362ad1b831461033257806370a08231146103455780638129fc1c1461036e5780638456cb591461037657600080fd5b8063313ce567146102f657806336568abe146103055780633f4ba83a14610318578063556f0dc71461032057600080fd5b806318160ddd116101ef57806318160ddd1461028657806323b872dd14610298578063248a9ca3146102ab5780632e1a7d4d146102ce5780632f2ff15d146102e357600080fd5b806301ffc9a71461022157806306e485381461024957806306fdde031461025e578063095ea7b314610273575b600080fd5b61023461022f366004612527565b610512565b60405190151581526020015b60405180910390f35b61025161053d565b6040516102409190612551565b61026661059f565b60405161024091906125f6565b61023461028136600461261e565b610628565b6034545b604051908152602001610240565b6102346102a636600461264a565b610677565b61028a6102b936600461268b565b600090815260c9602052604090206001015490565b6102e16102dc36600461268b565b6107a5565b005b6102e16102f13660046126a4565b6107d2565b60405160128152602001610240565b6102e16103133660046126a4565b6107fd565b6102e161087b565b600161028a565b60655460ff16610234565b6102e1610340366004612777565b61089c565b61028a61035336600461280a565b6001600160a01b031660009081526033602052604090205490565b6102e16108d8565b6102e1610987565b61039161038c366004612827565b6109a8565b6040516001600160a01b039091168152602001610240565b6102346103b73660046126a4565b6109c0565b6102e16103ca36600461280a565b6109eb565b6102666109ff565b6102e16103e5366004612849565b610a0e565b61028a600081565b61028a7f8f4f2da22e8ac8f11e15f9fc141cddbb5deea8800186560abb6e68c5496619a981565b61023461042736600461261e565b610a2c565b6102e161043a36600461280a565b610ae9565b61028a61044d36600461268b565b610b64565b6102e16104603660046128a2565b610b7b565b6102e16104733660046126a4565b610c05565b610234610486366004612927565b610c2b565b61028a610499366004612927565b6001600160a01b039182166000908152603b6020908152604080832093909416825291909152205490565b61028a600080516020612d8e83398151915281565b6102e16104e736600461280a565b610ccc565b6102e16104fa366004612955565b610ce0565b6102e161050d3660046129d5565b610d18565b60006001600160e01b03198216635a05180f60e01b1480610537575061053782610d33565b92915050565b6060603780548060200260200160405190810160405280929190818152602001828054801561059557602002820191906000526020600020905b81546001600160a01b03168152600190910190602001808311610577575b5050505050905090565b6060603580546105ae90612a1c565b80601f01602080910402602001604051908101604052809291908181526020018280546105da90612a1c565b80156105955780601f106105fc57610100808354040283529160200191610595565b820191906000526020600020905b81548152906001019060200180831161060a57509395945050505050565b600061063660655460ff1690565b1561065c5760405162461bcd60e51b815260040161065390612a57565b60405180910390fd5b6106668383610d68565b6106708383610d8b565b9392505050565b60006001600160a01b03831661069f5760405162461bcd60e51b815260040161065390612a81565b6001600160a01b0384166107045760405162461bcd60e51b815260206004820152602660248201527f4552433737373a207472616e736665722066726f6d20746865207a65726f206160448201526564647265737360d01b6064820152608401610653565b6000339050610735818686866040518060200160405280600081525060405180602001604052806000815250610d99565b610740858285610ec1565b61076c818686866040518060200160405280600081525060405180602001604052806000815250610f4d565b61079a81868686604051806020016040528060008152506040518060200160405280600081525060006110bf565b506001949350505050565b6107cf33826040518060200160405280600081525060405180602001604052806000815250611284565b50565b600082815260c960205260409020600101546107ee8133611446565b6107f883836114aa565b505050565b6001600160a01b038116331461086d5760405162461bcd60e51b815260206004820152602f60248201527f416363657373436f6e74726f6c3a2063616e206f6e6c792072656e6f756e636560448201526e103937b632b9903337b91039b2b63360891b6064820152608401610653565b61087782826114be565b5050565b600080516020612d8e8339815191526108948133611446565b6107cf6114d2565b6108a63386610c2b565b6108c25760405162461bcd60e51b815260040161065390612ac5565b6108d185858585856001611565565b5050505050565b600054610100900460ff166108f35760005460ff16156108f7565b303b155b6109135760405162461bcd60e51b815260040161065390612b11565b600054610100900460ff16158015610935576000805461ffff19166101011790555b61093d611648565b610973336b019d971e4fe8401e74000000604051806020016040528060008152506040518060200160405280600081525061170c565b80156107cf576000805461ff001916905550565b600080516020612d8e8339815191526109a08133611446565b6107cf61171a565b600082815260fb602052604081206106709083611772565b600091825260c9602090815260408084206001600160a01b0393909316845291905290205460ff1690565b6109f6816000610d68565b6107cf8161177e565b6060603680546105ae90612a1c565b6107f833848484604051806020016040528060008152506001611565565b60006001600160a01b038316610a545760405162461bcd60e51b815260040161065390612a81565b6000339050610a85818286866040518060200160405280600081525060405180602001604052806000815250610d99565b610ab1818286866040518060200160405280600081525060405180602001604052806000815250610f4d565b610adf81828686604051806020016040528060008152506040518060200160405280600081525060006110bf565b5060019392505050565b600054610100900460ff16610b045760005460ff1615610b08565b303b155b610b245760405162461bcd60e51b815260040161065390612b11565b600054610100900460ff16158015610b46576000805461ffff19166101011790555b610b4f8261189c565b8015610877576000805461ff00191690555050565b600081815260fb602052604081206105379061193c565b7f8f4f2da22e8ac8f11e15f9fc141cddbb5deea8800186560abb6e68c5496619a9610ba68133611446565b6000610bb48385018561268b565b90506108d1858286868080601f01602080910402602001604051908101604052809392919081815260200183838082843760009201829052506040805160208101909152908152925061170c915050565b600082815260c96020526040902060010154610c218133611446565b6107f883836114be565b6000816001600160a01b0316836001600160a01b03161480610c9657506001600160a01b03831660009081526038602052604090205460ff168015610c9657506001600160a01b038083166000908152603a602090815260408083209387168352929052205460ff16155b806106705750506001600160a01b0390811660009081526039602090815260408083209490931682529290925290205460ff1690565b610cd7816000610d68565b6107cf81611946565b610cea3385610c2b565b610d065760405162461bcd60e51b815260040161065390612ac5565b610d1284848484611284565b50505050565b61087733838360405180602001604052806000815250611284565b60006001600160e01b03198216637965db0b60e01b148061053757506301ffc9a760e01b6001600160e01b0319831614610537565b60655460ff16156108775760405162461bcd60e51b815260040161065390612a57565b600033610adf818585611a62565b60405163555ddc6560e11b81526001600160a01b03861660048201527f29ddb589b1fb5fc7cf394961c1adf5f8c6454761adf795e67fe149f658abe8956024820152600090731820a4b7618bde71dce8cdc73aab6c95905fad249063aabbb8ca90604401602060405180830381865afa158015610e1a573d6000803e3d6000fd5b505050506040513d601f19601f82011682018060405250810190610e3e9190612b5f565b90506001600160a01b03811615610eb857604051633ad5cbc160e11b81526001600160a01b038216906375ab978290610e85908a908a908a908a908a908a90600401612b7c565b600060405180830381600087803b158015610e9f57600080fd5b505af1158015610eb3573d6000803e3d6000fd5b505050505b50505050505050565b6001600160a01b038381166000908152603b60209081526040808320938616835292905220546000198114610d125781811015610f405760405162461bcd60e51b815260206004820152601e60248201527f4552433737373a20696e73756666696369656e7420616c6c6f77616e636500006044820152606401610653565b610d128484848403611a62565b610f5986868686611b89565b6001600160a01b03851660009081526033602052604090205483811015610fd25760405162461bcd60e51b815260206004820152602760248201527f4552433737373a207472616e7366657220616d6f756e7420657863656564732060448201526662616c616e636560c81b6064820152608401610653565b6001600160a01b03808716600090815260336020526040808220878503905591871681529081208054869290611009908490612bec565b92505081905550846001600160a01b0316866001600160a01b0316886001600160a01b03167f06b541ddaa720db2b10a4d0cdac39b8d360425fc073085fac19bc8261467798787878760405161106193929190612c04565b60405180910390a4846001600160a01b0316866001600160a01b03167fddf252ad1be2c89b69c2b068fc378daa952ba7f163c4a11628f55a4df523b3ef866040516110ae91815260200190565b60405180910390a350505050505050565b60405163555ddc6560e11b81526001600160a01b03861660048201527fb281fc8c12954d22544db45de3159a39272895b169a852b314f9cc762e44c53b6024820152600090731820a4b7618bde71dce8cdc73aab6c95905fad249063aabbb8ca90604401602060405180830381865afa158015611140573d6000803e3d6000fd5b505050506040513d601f19601f820116820180604052508101906111649190612b5f565b90506001600160a01b038116156111e0576040516223de2960e01b81526001600160a01b038216906223de29906111a9908b908b908b908b908b908b90600401612b7c565b600060405180830381600087803b1580156111c357600080fd5b505af11580156111d7573d6000803e3d6000fd5b5050505061127a565b811561127a576001600160a01b0386163b1561127a5760405162461bcd60e51b815260206004820152604d60248201527f4552433737373a20746f6b656e20726563697069656e7420636f6e747261637460448201527f20686173206e6f20696d706c656d656e74657220666f7220455243373737546f60648201526c1ad95b9cd49958da5c1a595b9d609a1b608482015260a401610653565b5050505050505050565b6001600160a01b0384166112e55760405162461bcd60e51b815260206004820152602260248201527f4552433737373a206275726e2066726f6d20746865207a65726f206164647265604482015261737360f01b6064820152608401610653565b336112f581866000878787610d99565b6113028186600087611b89565b6001600160a01b038516600090815260336020526040902054848110156113775760405162461bcd60e51b815260206004820152602360248201527f4552433737373a206275726e20616d6f756e7420657863656564732062616c616044820152626e636560e81b6064820152608401610653565b6001600160a01b03861660009081526033602052604081208683039055603480548792906113a6908490612c39565b92505081905550856001600160a01b0316826001600160a01b03167fa78a9be3a7b862d26933ad85fb11d80ef66b8f972d7cbba06621d583943a40988787876040516113f493929190612c04565b60405180910390a36040518581526000906001600160a01b038816907fddf252ad1be2c89b69c2b068fc378daa952ba7f163c4a11628f55a4df523b3ef906020015b60405180910390a3505050505050565b61145082826109c0565b61087757611468816001600160a01b03166014611bb1565b611473836020611bb1565b604051602001611484929190612c50565b60408051601f198184030181529082905262461bcd60e51b8252610653916004016125f6565b6114b48282610d68565b6108778282611d4d565b6114c88282610d68565b6108778282611d6f565b60655460ff1661151b5760405162461bcd60e51b815260206004820152601460248201527314185d5cd8589b194e881b9bdd081c185d5cd95960621b6044820152606401610653565b6065805460ff191690557f5db9ee0a495bf2e6ff9c91a7834c1ba4fdd244a5e8aa4e537bd38aeae4b073aa335b6040516001600160a01b03909116815260200160405180910390a1565b6001600160a01b0386166115c65760405162461bcd60e51b815260206004820152602260248201527f4552433737373a2073656e642066726f6d20746865207a65726f206164647265604482015261737360f01b6064820152608401610653565b6001600160a01b03851661161c5760405162461bcd60e51b815260206004820181905260248201527f4552433737373a2073656e6420746f20746865207a65726f20616464726573736044820152606401610653565b3361162b818888888888610d99565b611639818888888888610f4d565b610eb8818888888888886110bf565b600054610100900460ff1661166f5760405162461bcd60e51b815260040161065390612cc5565b611677611d91565b61167f611d91565b611687611d91565b61168f611d91565b611697611db8565b61169f611deb565b6040805180820182526004808252634e4f524960e01b60208084018290528451808601909552918452908301526117029160005b6040519080825280602002602001820160405280156116fc578160200160208202803683370190505b50611e35565b61170a611d91565b565b610d1284848484600161201f565b60655460ff161561173d5760405162461bcd60e51b815260040161065390612a57565b6065805460ff191660011790557f62e78cea01bee320cd4e420270b5ea74000d11b0c9f74754ebdbfc544b05a2586115483390565b60006106708383612165565b336001600160a01b03821614156117e35760405162461bcd60e51b8152602060048201526024808201527f4552433737373a20617574686f72697a696e672073656c66206173206f70657260448201526330ba37b960e11b6064820152608401610653565b6001600160a01b03811660009081526038602052604090205460ff161561183457336000908152603a602090815260408083206001600160a01b03851684529091529020805460ff19169055611863565b3360009081526039602090815260408083206001600160a01b03851684529091529020805460ff191660011790555b60405133906001600160a01b038316907ff4caeb2d6ca8932a215a353d0703c326ec2d81fc68170f320eb2ab49e9df61f990600090a350565b600054610100900460ff166118c35760405162461bcd60e51b815260040161065390612cc5565b6118cb611d91565b6118d3611d91565b6118db611d91565b6118e3611d91565b6118eb611db8565b6118f3611deb565b6040805180820182526004808252634e4f524960e01b602080840182905284518086019095529184529083015261192b9160006116d3565b611933611d91565b6107cf8161218f565b6000610537825490565b6001600160a01b0381163314156119a95760405162461bcd60e51b815260206004820152602160248201527f4552433737373a207265766f6b696e672073656c66206173206f70657261746f6044820152603960f91b6064820152608401610653565b6001600160a01b03811660009081526038602052604090205460ff16156119fd57336000908152603a602090815260408083206001600160a01b03851684529091529020805460ff19166001179055611a29565b3360009081526039602090815260408083206001600160a01b03851684529091529020805460ff191690555b60405133906001600160a01b038316907f50546e66e5f44d728365dc3908c63bc5cfeeab470722c1677e3073a6ac294aa190600090a350565b6001600160a01b038316611ac65760405162461bcd60e51b815260206004820152602560248201527f4552433737373a20617070726f76652066726f6d20746865207a65726f206164604482015264647265737360d81b6064820152608401610653565b6001600160a01b038216611b285760405162461bcd60e51b815260206004820152602360248201527f4552433737373a20617070726f766520746f20746865207a65726f206164647260448201526265737360e81b6064820152608401610653565b6001600160a01b038381166000818152603b602090815260408083209487168084529482529182902085905590518481527f8c5be1e5ebec7d5bd14f71427d1e84f3dd0314c0f7b2291e5b200ac8c7c3b925910160405180910390a3505050565b60655460ff1615611bac5760405162461bcd60e51b815260040161065390612a57565b610d12565b60606000611bc0836002612d10565b611bcb906002612bec565b67ffffffffffffffff811115611be357611be36126d4565b6040519080825280601f01601f191660200182016040528015611c0d576020820181803683370190505b509050600360fc1b81600081518110611c2857611c28612d2f565b60200101906001600160f81b031916908160001a905350600f60fb1b81600181518110611c5757611c57612d2f565b60200101906001600160f81b031916908160001a9053506000611c7b846002612d10565b611c86906001612bec565b90505b6001811115611cfe576f181899199a1a9b1b9c1cb0b131b232b360811b85600f1660108110611cba57611cba612d2f565b1a60f81b828281518110611cd057611cd0612d2f565b60200101906001600160f81b031916908160001a90535060049490941c93611cf781612d45565b9050611c89565b5083156106705760405162461bcd60e51b815260206004820181905260248201527f537472696e67733a20686578206c656e67746820696e73756666696369656e746044820152606401610653565b611d5782826121e0565b600082815260fb602052604090206107f89082612266565b611d79828261227b565b600082815260fb602052604090206107f890826122e2565b600054610100900460ff1661170a5760405162461bcd60e51b815260040161065390612cc5565b600054610100900460ff16611ddf5760405162461bcd60e51b815260040161065390612cc5565b6065805460ff19169055565b600054610100900460ff16611e125760405162461bcd60e51b815260040161065390612cc5565b611e1d6000336114aa565b61170a600080516020612d8e833981519152336114aa565b600054610100900460ff16611e5c5760405162461bcd60e51b815260040161065390612cc5565b8251611e6f906035906020860190612439565b508151611e83906036906020850190612439565b508051611e979060379060208401906124bd565b5060005b8151811015611f0057600160386000848481518110611ebc57611ebc612d2f565b6020908102919091018101516001600160a01b03168252810191909152604001600020805460ff191691151591909117905580611ef881612d5c565b915050611e9b565b506040516329965a1d60e01b815230600482018190527fac7fbab5f54a3ca8194167523c6753bfeb96a445279294b6125b68cce217705460248301526044820152731820a4b7618bde71dce8cdc73aab6c95905fad24906329965a1d90606401600060405180830381600087803b158015611f7a57600080fd5b505af1158015611f8e573d6000803e3d6000fd5b50506040516329965a1d60e01b815230600482018190527faea199e31a596269b42cdafd93407f14436db6e4cad65417994c2eb37381e05a60248301526044820152731820a4b7618bde71dce8cdc73aab6c95905fad2492506329965a1d9150606401600060405180830381600087803b15801561200b57600080fd5b505af1158015610eb8573d6000803e3d6000fd5b6001600160a01b0385166120755760405162461bcd60e51b815260206004820181905260248201527f4552433737373a206d696e7420746f20746865207a65726f20616464726573736044820152606401610653565b336120838160008888611b89565b84603460008282546120959190612bec565b90915550506001600160a01b038616600090815260336020526040812080548792906120c2908490612bec565b909155506120d8905081600088888888886110bf565b856001600160a01b0316816001600160a01b03167f2fe5be0146f74c5bce36c0b80911af6c7d86ff27e89d5cfa61fc681327954e5d87878760405161211f93929190612c04565b60405180910390a36040518581526001600160a01b038716906000907fddf252ad1be2c89b69c2b068fc378daa952ba7f163c4a11628f55a4df523b3ef90602001611436565b600082600001828154811061217c5761217c612d2f565b9060005260206000200154905092915050565b600054610100900460ff166121b65760405162461bcd60e51b815260040161065390612cc5565b6107cf7f8f4f2da22e8ac8f11e15f9fc141cddbb5deea8800186560abb6e68c5496619a9826114aa565b6121ea82826109c0565b61087757600082815260c9602090815260408083206001600160a01b03851684529091529020805460ff191660011790556122223390565b6001600160a01b0316816001600160a01b0316837f2f8788117e7eff1d82e926ec794901d17c78024a50270940304540a733656f0d60405160405180910390a45050565b6000610670836001600160a01b0384166122f7565b61228582826109c0565b1561087757600082815260c9602090815260408083206001600160a01b0385168085529252808320805460ff1916905551339285917ff6391f5c32d9c69d2a47ea670b442974b53935d1edc7fd64eb21e047a839171b9190a45050565b6000610670836001600160a01b038416612346565b600081815260018301602052604081205461233e57508154600181810184556000848152602080822090930184905584548482528286019093526040902091909155610537565b506000610537565b6000818152600183016020526040812054801561242f57600061236a600183612c39565b855490915060009061237e90600190612c39565b90508181146123e357600086600001828154811061239e5761239e612d2f565b90600052602060002001549050808760000184815481106123c1576123c1612d2f565b6000918252602080832090910192909255918252600188019052604090208390555b85548690806123f4576123f4612d77565b600190038181906000526020600020016000905590558560010160008681526020019081526020016000206000905560019350505050610537565b6000915050610537565b82805461244590612a1c565b90600052602060002090601f01602090048101928261246757600085556124ad565b82601f1061248057805160ff19168380011785556124ad565b828001600101855582156124ad579182015b828111156124ad578251825591602001919060010190612492565b506124b9929150612512565b5090565b8280548282559060005260206000209081019282156124ad579160200282015b828111156124ad57825182546001600160a01b0319166001600160a01b039091161782556020909201916001909101906124dd565b5b808211156124b95760008155600101612513565b60006020828403121561253957600080fd5b81356001600160e01b03198116811461067057600080fd5b6020808252825182820181905260009190848201906040850190845b818110156125925783516001600160a01b03168352928401929184019160010161256d565b50909695505050505050565b60005b838110156125b95781810151838201526020016125a1565b83811115610d125750506000910152565b600081518084526125e281602086016020860161259e565b601f01601f19169290920160200192915050565b60208152600061067060208301846125ca565b6001600160a01b03811681146107cf57600080fd5b6000806040838503121561263157600080fd5b823561263c81612609565b946020939093013593505050565b60008060006060848603121561265f57600080fd5b833561266a81612609565b9250602084013561267a81612609565b929592945050506040919091013590565b60006020828403121561269d57600080fd5b5035919050565b600080604083850312156126b757600080fd5b8235915060208301356126c981612609565b809150509250929050565b634e487b7160e01b600052604160045260246000fd5b600082601f8301126126fb57600080fd5b813567ffffffffffffffff80821115612716576127166126d4565b604051601f8301601f19908116603f0116810190828211818310171561273e5761273e6126d4565b8160405283815286602085880101111561275757600080fd5b836020870160208301376000602085830101528094505050505092915050565b600080600080600060a0868803121561278f57600080fd5b853561279a81612609565b945060208601356127aa81612609565b935060408601359250606086013567ffffffffffffffff808211156127ce57600080fd5b6127da89838a016126ea565b935060808801359150808211156127f057600080fd5b506127fd888289016126ea565b9150509295509295909350565b60006020828403121561281c57600080fd5b813561067081612609565b6000806040838503121561283a57600080fd5b50508035926020909101359150565b60008060006060848603121561285e57600080fd5b833561286981612609565b925060208401359150604084013567ffffffffffffffff81111561288c57600080fd5b612898868287016126ea565b9150509250925092565b6000806000604084860312156128b757600080fd5b83356128c281612609565b9250602084013567ffffffffffffffff808211156128df57600080fd5b818601915086601f8301126128f357600080fd5b81358181111561290257600080fd5b87602082850101111561291457600080fd5b6020830194508093505050509250925092565b6000806040838503121561293a57600080fd5b823561294581612609565b915060208301356126c981612609565b6000806000806080858703121561296b57600080fd5b843561297681612609565b935060208501359250604085013567ffffffffffffffff8082111561299a57600080fd5b6129a6888389016126ea565b935060608701359150808211156129bc57600080fd5b506129c9878288016126ea565b91505092959194509250565b600080604083850312156129e857600080fd5b82359150602083013567ffffffffffffffff811115612a0657600080fd5b612a12858286016126ea565b9150509250929050565b600181811c90821680612a3057607f821691505b60208210811415612a5157634e487b7160e01b600052602260045260246000fd5b50919050565b60208082526010908201526f14185d5cd8589b194e881c185d5cd95960821b604082015260600190565b60208082526024908201527f4552433737373a207472616e7366657220746f20746865207a65726f206164646040820152637265737360e01b606082015260800190565b6020808252602c908201527f4552433737373a2063616c6c6572206973206e6f7420616e206f70657261746f60408201526b39103337b9103437b63232b960a11b606082015260800190565b6020808252602e908201527f496e697469616c697a61626c653a20636f6e747261637420697320616c72656160408201526d191e481a5b9a5d1a585b1a5e995960921b606082015260800190565b600060208284031215612b7157600080fd5b815161067081612609565b6001600160a01b0387811682528681166020830152851660408201526060810184905260c060808201819052600090612bb7908301856125ca565b82810360a0840152612bc981856125ca565b9998505050505050505050565b634e487b7160e01b600052601160045260246000fd5b60008219821115612bff57612bff612bd6565b500190565b838152606060208201526000612c1d60608301856125ca565b8281036040840152612c2f81856125ca565b9695505050505050565b600082821015612c4b57612c4b612bd6565b500390565b7f416363657373436f6e74726f6c3a206163636f756e7420000000000000000000815260008351612c8881601785016020880161259e565b7001034b99036b4b9b9b4b733903937b6329607d1b6017918401918201528351612cb981602884016020880161259e565b01602801949350505050565b6020808252602b908201527f496e697469616c697a61626c653a20636f6e7472616374206973206e6f74206960408201526a6e697469616c697a696e6760a81b606082015260800190565b6000816000190483118215151615612d2a57612d2a612bd6565b500290565b634e487b7160e01b600052603260045260246000fd5b600081612d5457612d54612bd6565b506000190190565b6000600019821415612d7057612d70612bd6565b5060010190565b634e487b7160e01b600052603160045260246000fdfe65d7a28e3265b37a6474929f336521b332c1681b933f6cb9f3376673440d862aa264697066735822122084da3924129c8705e952d1d5045c928d8da2162624256fcfe17f4ff75b636ad664736f6c634300080a0033",
  "linkReferences": {},
  "deployedLinkReferences": {}
}