{
  "_format": "hh-sol-artifact-1",
  "contractName": "BridgedPolygonNORI",
  "sourceName": "contracts/BridgedPolygonNORI.sol",
  "abi": [
    {
      "anonymous": false,
      "inputs": [
        {
          "indexed": true,
          "internalType": "address",
          "name": "owner",
          "type": "address"
        },
        {
          "indexed": true,
          "internalType": "address",
          "name": "spender",
          "type": "address"
        },
        {
          "indexed": false,
          "internalType": "uint256",
          "name": "value",
          "type": "uint256"
        }
      ],
      "name": "Approval",
      "type": "event"
    },
    {
      "anonymous": false,
      "inputs": [
        {
          "indexed": true,
          "internalType": "address",
          "name": "operator",
          "type": "address"
        },
        {
          "indexed": true,
          "internalType": "address",
          "name": "tokenHolder",
          "type": "address"
        }
      ],
      "name": "AuthorizedOperator",
      "type": "event"
    },
    {
      "anonymous": false,
      "inputs": [
        {
          "indexed": true,
          "internalType": "address",
          "name": "operator",
          "type": "address"
        },
        {
          "indexed": true,
          "internalType": "address",
          "name": "from",
          "type": "address"
        },
        {
          "indexed": false,
          "internalType": "uint256",
          "name": "amount",
          "type": "uint256"
        },
        {
          "indexed": false,
          "internalType": "bytes",
          "name": "data",
          "type": "bytes"
        },
        {
          "indexed": false,
          "internalType": "bytes",
          "name": "operatorData",
          "type": "bytes"
        }
      ],
      "name": "Burned",
      "type": "event"
    },
    {
      "anonymous": false,
      "inputs": [
        {
          "indexed": true,
          "internalType": "address",
          "name": "operator",
          "type": "address"
        },
        {
          "indexed": true,
          "internalType": "address",
          "name": "to",
          "type": "address"
        },
        {
          "indexed": false,
          "internalType": "uint256",
          "name": "amount",
          "type": "uint256"
        },
        {
          "indexed": false,
          "internalType": "bytes",
          "name": "data",
          "type": "bytes"
        },
        {
          "indexed": false,
          "internalType": "bytes",
          "name": "operatorData",
          "type": "bytes"
        }
      ],
      "name": "Minted",
      "type": "event"
    },
    {
      "anonymous": false,
      "inputs": [
        {
          "indexed": false,
          "internalType": "address",
          "name": "account",
          "type": "address"
        }
      ],
      "name": "Paused",
      "type": "event"
    },
    {
      "anonymous": false,
      "inputs": [
        {
          "indexed": true,
          "internalType": "address",
          "name": "operator",
          "type": "address"
        },
        {
          "indexed": true,
          "internalType": "address",
          "name": "tokenHolder",
          "type": "address"
        }
      ],
      "name": "RevokedOperator",
      "type": "event"
    },
    {
      "anonymous": false,
      "inputs": [
        {
          "indexed": true,
          "internalType": "bytes32",
          "name": "role",
          "type": "bytes32"
        },
        {
          "indexed": true,
          "internalType": "bytes32",
          "name": "previousAdminRole",
          "type": "bytes32"
        },
        {
          "indexed": true,
          "internalType": "bytes32",
          "name": "newAdminRole",
          "type": "bytes32"
        }
      ],
      "name": "RoleAdminChanged",
      "type": "event"
    },
    {
      "anonymous": false,
      "inputs": [
        {
          "indexed": true,
          "internalType": "bytes32",
          "name": "role",
          "type": "bytes32"
        },
        {
          "indexed": true,
          "internalType": "address",
          "name": "account",
          "type": "address"
        },
        {
          "indexed": true,
          "internalType": "address",
          "name": "sender",
          "type": "address"
        }
      ],
      "name": "RoleGranted",
      "type": "event"
    },
    {
      "anonymous": false,
      "inputs": [
        {
          "indexed": true,
          "internalType": "bytes32",
          "name": "role",
          "type": "bytes32"
        },
        {
          "indexed": true,
          "internalType": "address",
          "name": "account",
          "type": "address"
        },
        {
          "indexed": true,
          "internalType": "address",
          "name": "sender",
          "type": "address"
        }
      ],
      "name": "RoleRevoked",
      "type": "event"
    },
    {
      "anonymous": false,
      "inputs": [
        {
          "indexed": true,
          "internalType": "address",
          "name": "operator",
          "type": "address"
        },
        {
          "indexed": true,
          "internalType": "address",
          "name": "from",
          "type": "address"
        },
        {
          "indexed": true,
          "internalType": "address",
          "name": "to",
          "type": "address"
        },
        {
          "indexed": false,
          "internalType": "uint256",
          "name": "amount",
          "type": "uint256"
        },
        {
          "indexed": false,
          "internalType": "bytes",
          "name": "data",
          "type": "bytes"
        },
        {
          "indexed": false,
          "internalType": "bytes",
          "name": "operatorData",
          "type": "bytes"
        }
      ],
      "name": "Sent",
      "type": "event"
    },
    {
      "anonymous": false,
      "inputs": [
        {
          "indexed": true,
          "internalType": "address",
          "name": "from",
          "type": "address"
        },
        {
          "indexed": true,
          "internalType": "address",
          "name": "to",
          "type": "address"
        },
        {
          "indexed": false,
          "internalType": "uint256",
          "name": "value",
          "type": "uint256"
        }
      ],
      "name": "Transfer",
      "type": "event"
    },
    {
      "anonymous": false,
      "inputs": [
        {
          "indexed": false,
          "internalType": "address",
          "name": "account",
          "type": "address"
        }
      ],
      "name": "Unpaused",
      "type": "event"
    },
    {
      "inputs": [],
      "name": "DEFAULT_ADMIN_ROLE",
      "outputs": [
        {
          "internalType": "bytes32",
          "name": "",
          "type": "bytes32"
        }
      ],
      "stateMutability": "view",
      "type": "function"
    },
    {
      "inputs": [],
      "name": "DEPOSITOR_ROLE",
      "outputs": [
        {
          "internalType": "bytes32",
          "name": "",
          "type": "bytes32"
        }
      ],
      "stateMutability": "view",
      "type": "function"
    },
    {
      "inputs": [],
      "name": "PAUSER_ROLE",
      "outputs": [
        {
          "internalType": "bytes32",
          "name": "",
          "type": "bytes32"
        }
      ],
      "stateMutability": "view",
      "type": "function"
    },
    {
      "inputs": [
        {
          "internalType": "address",
          "name": "holder",
          "type": "address"
        },
        {
          "internalType": "address",
          "name": "spender",
          "type": "address"
        }
      ],
      "name": "allowance",
      "outputs": [
        {
          "internalType": "uint256",
          "name": "",
          "type": "uint256"
        }
      ],
      "stateMutability": "view",
      "type": "function"
    },
    {
      "inputs": [
        {
          "internalType": "address",
          "name": "spender",
          "type": "address"
        },
        {
          "internalType": "uint256",
          "name": "value",
          "type": "uint256"
        }
      ],
      "name": "approve",
      "outputs": [
        {
          "internalType": "bool",
          "name": "",
          "type": "bool"
        }
      ],
      "stateMutability": "nonpayable",
      "type": "function"
    },
    {
      "inputs": [
        {
          "internalType": "address",
          "name": "operator",
          "type": "address"
        }
      ],
      "name": "authorizeOperator",
      "outputs": [],
      "stateMutability": "nonpayable",
      "type": "function"
    },
    {
      "inputs": [
        {
          "internalType": "address",
          "name": "tokenHolder",
          "type": "address"
        }
      ],
      "name": "balanceOf",
      "outputs": [
        {
          "internalType": "uint256",
          "name": "",
          "type": "uint256"
        }
      ],
      "stateMutability": "view",
      "type": "function"
    },
    {
      "inputs": [
        {
          "internalType": "uint256",
          "name": "amount",
          "type": "uint256"
        },
        {
          "internalType": "bytes",
          "name": "data",
          "type": "bytes"
        }
      ],
      "name": "burn",
      "outputs": [],
      "stateMutability": "nonpayable",
      "type": "function"
    },
    {
      "inputs": [],
      "name": "decimals",
      "outputs": [
        {
          "internalType": "uint8",
          "name": "",
          "type": "uint8"
        }
      ],
      "stateMutability": "pure",
      "type": "function"
    },
    {
      "inputs": [],
      "name": "defaultOperators",
      "outputs": [
        {
          "internalType": "address[]",
          "name": "",
          "type": "address[]"
        }
      ],
      "stateMutability": "view",
      "type": "function"
    },
    {
      "inputs": [
        {
          "internalType": "address",
          "name": "user",
          "type": "address"
        },
        {
          "internalType": "bytes",
          "name": "depositData",
          "type": "bytes"
        }
      ],
      "name": "deposit",
      "outputs": [],
      "stateMutability": "nonpayable",
      "type": "function"
    },
    {
      "inputs": [
        {
          "internalType": "bytes32",
          "name": "role",
          "type": "bytes32"
        }
      ],
      "name": "getRoleAdmin",
      "outputs": [
        {
          "internalType": "bytes32",
          "name": "",
          "type": "bytes32"
        }
      ],
      "stateMutability": "view",
      "type": "function"
    },
    {
      "inputs": [
        {
          "internalType": "bytes32",
          "name": "role",
          "type": "bytes32"
        },
        {
          "internalType": "uint256",
          "name": "index",
          "type": "uint256"
        }
      ],
      "name": "getRoleMember",
      "outputs": [
        {
          "internalType": "address",
          "name": "",
          "type": "address"
        }
      ],
      "stateMutability": "view",
      "type": "function"
    },
    {
      "inputs": [
        {
          "internalType": "bytes32",
          "name": "role",
          "type": "bytes32"
        }
      ],
      "name": "getRoleMemberCount",
      "outputs": [
        {
          "internalType": "uint256",
          "name": "",
          "type": "uint256"
        }
      ],
      "stateMutability": "view",
      "type": "function"
    },
    {
      "inputs": [
        {
          "internalType": "bytes32",
          "name": "role",
          "type": "bytes32"
        },
        {
          "internalType": "address",
          "name": "account",
          "type": "address"
        }
      ],
      "name": "grantRole",
      "outputs": [],
      "stateMutability": "nonpayable",
      "type": "function"
    },
    {
      "inputs": [],
      "name": "granularity",
      "outputs": [
        {
          "internalType": "uint256",
          "name": "",
          "type": "uint256"
        }
      ],
      "stateMutability": "view",
      "type": "function"
    },
    {
      "inputs": [
        {
          "internalType": "bytes32",
          "name": "role",
          "type": "bytes32"
        },
        {
          "internalType": "address",
          "name": "account",
          "type": "address"
        }
      ],
      "name": "hasRole",
      "outputs": [
        {
          "internalType": "bool",
          "name": "",
          "type": "bool"
        }
      ],
      "stateMutability": "view",
      "type": "function"
    },
    {
      "inputs": [],
      "name": "initialize",
      "outputs": [],
      "stateMutability": "nonpayable",
      "type": "function"
    },
    {
      "inputs": [
        {
          "internalType": "address",
          "name": "childChainManagerProxy",
          "type": "address"
        }
      ],
      "name": "initialize",
      "outputs": [],
      "stateMutability": "nonpayable",
      "type": "function"
    },
    {
      "inputs": [
        {
          "internalType": "address",
          "name": "operator",
          "type": "address"
        },
        {
          "internalType": "address",
          "name": "tokenHolder",
          "type": "address"
        }
      ],
      "name": "isOperatorFor",
      "outputs": [
        {
          "internalType": "bool",
          "name": "",
          "type": "bool"
        }
      ],
      "stateMutability": "view",
      "type": "function"
    },
    {
      "inputs": [],
      "name": "name",
      "outputs": [
        {
          "internalType": "string",
          "name": "",
          "type": "string"
        }
      ],
      "stateMutability": "view",
      "type": "function"
    },
    {
      "inputs": [
        {
          "internalType": "address",
          "name": "account",
          "type": "address"
        },
        {
          "internalType": "uint256",
          "name": "amount",
          "type": "uint256"
        },
        {
          "internalType": "bytes",
          "name": "data",
          "type": "bytes"
        },
        {
          "internalType": "bytes",
          "name": "operatorData",
          "type": "bytes"
        }
      ],
      "name": "operatorBurn",
      "outputs": [],
      "stateMutability": "nonpayable",
      "type": "function"
    },
    {
      "inputs": [
        {
          "internalType": "address",
          "name": "sender",
          "type": "address"
        },
        {
          "internalType": "address",
          "name": "recipient",
          "type": "address"
        },
        {
          "internalType": "uint256",
          "name": "amount",
          "type": "uint256"
        },
        {
          "internalType": "bytes",
          "name": "data",
          "type": "bytes"
        },
        {
          "internalType": "bytes",
          "name": "operatorData",
          "type": "bytes"
        }
      ],
      "name": "operatorSend",
      "outputs": [],
      "stateMutability": "nonpayable",
      "type": "function"
    },
    {
      "inputs": [],
      "name": "pause",
      "outputs": [],
      "stateMutability": "nonpayable",
      "type": "function"
    },
    {
      "inputs": [],
      "name": "paused",
      "outputs": [
        {
          "internalType": "bool",
          "name": "",
          "type": "bool"
        }
      ],
      "stateMutability": "view",
      "type": "function"
    },
    {
      "inputs": [
        {
          "internalType": "bytes32",
          "name": "role",
          "type": "bytes32"
        },
        {
          "internalType": "address",
          "name": "account",
          "type": "address"
        }
      ],
      "name": "renounceRole",
      "outputs": [],
      "stateMutability": "nonpayable",
      "type": "function"
    },
    {
      "inputs": [
        {
          "internalType": "address",
          "name": "operator",
          "type": "address"
        }
      ],
      "name": "revokeOperator",
      "outputs": [],
      "stateMutability": "nonpayable",
      "type": "function"
    },
    {
      "inputs": [
        {
          "internalType": "bytes32",
          "name": "role",
          "type": "bytes32"
        },
        {
          "internalType": "address",
          "name": "account",
          "type": "address"
        }
      ],
      "name": "revokeRole",
      "outputs": [],
      "stateMutability": "nonpayable",
      "type": "function"
    },
    {
      "inputs": [
        {
          "internalType": "address",
          "name": "recipient",
          "type": "address"
        },
        {
          "internalType": "uint256",
          "name": "amount",
          "type": "uint256"
        },
        {
          "internalType": "bytes",
          "name": "data",
          "type": "bytes"
        }
      ],
      "name": "send",
      "outputs": [],
      "stateMutability": "nonpayable",
      "type": "function"
    },
    {
      "inputs": [
        {
          "internalType": "bytes4",
          "name": "interfaceId",
          "type": "bytes4"
        }
      ],
      "name": "supportsInterface",
      "outputs": [
        {
          "internalType": "bool",
          "name": "",
          "type": "bool"
        }
      ],
      "stateMutability": "view",
      "type": "function"
    },
    {
      "inputs": [],
      "name": "symbol",
      "outputs": [
        {
          "internalType": "string",
          "name": "",
          "type": "string"
        }
      ],
      "stateMutability": "view",
      "type": "function"
    },
    {
      "inputs": [],
      "name": "totalSupply",
      "outputs": [
        {
          "internalType": "uint256",
          "name": "",
          "type": "uint256"
        }
      ],
      "stateMutability": "view",
      "type": "function"
    },
    {
      "inputs": [
        {
          "internalType": "address",
          "name": "recipient",
          "type": "address"
        },
        {
          "internalType": "uint256",
          "name": "amount",
          "type": "uint256"
        }
      ],
      "name": "transfer",
      "outputs": [
        {
          "internalType": "bool",
          "name": "",
          "type": "bool"
        }
      ],
      "stateMutability": "nonpayable",
      "type": "function"
    },
    {
      "inputs": [
        {
          "internalType": "address",
          "name": "holder",
          "type": "address"
        },
        {
          "internalType": "address",
          "name": "recipient",
          "type": "address"
        },
        {
          "internalType": "uint256",
          "name": "amount",
          "type": "uint256"
        }
      ],
      "name": "transferFrom",
      "outputs": [
        {
          "internalType": "bool",
          "name": "",
          "type": "bool"
        }
      ],
      "stateMutability": "nonpayable",
      "type": "function"
    },
    {
      "inputs": [],
      "name": "unpause",
      "outputs": [],
      "stateMutability": "nonpayable",
      "type": "function"
    },
    {
      "inputs": [
        {
          "internalType": "uint256",
          "name": "amount",
          "type": "uint256"
        }
      ],
      "name": "withdraw",
      "outputs": [],
      "stateMutability": "nonpayable",
      "type": "function"
    }
  ],
  "bytecode": "0x608060405234801561001057600080fd5b506166af80620000216000396000f3fe608060405234801561001057600080fd5b506004361061021c5760003560e01c80639010d07c11610125578063ca15c873116100ad578063dd62ed3e1161007c578063dd62ed3e14610629578063e63ab1e914610659578063fad8b32a14610677578063fc673c4f14610693578063fe9d9303146106af5761021c565b8063ca15c87314610591578063cf2c52cb146105c1578063d547741f146105dd578063d95b6371146105f95761021c565b80639bd9bbc6116100f45780639bd9bbc6146104ed578063a217fddf14610509578063a3b0b5a314610527578063a9059cbb14610545578063c4d66de8146105755761021c565b80639010d07c1461045357806391d1485414610483578063959b8c3f146104b357806395d89b41146104cf5761021c565b8063313ce567116101a85780635c975abb116101775780635c975abb146103d557806362ad1b83146103f357806370a082311461040f5780638129fc1c1461043f5780638456cb59146104495761021c565b8063313ce5671461037357806336568abe146103915780633f4ba83a146103ad578063556f0dc7146103b75761021c565b806318160ddd116101ef57806318160ddd146102bd57806323b872dd146102db578063248a9ca31461030b5780632e1a7d4d1461033b5780632f2ff15d146103575761021c565b806301ffc9a71461022157806306e485381461025157806306fdde031461026f578063095ea7b31461028d575b600080fd5b61023b60048036038101906102369190614cd6565b6106cb565b6040516102489190614d1e565b60405180910390f35b610259610745565b6040516102669190614e29565b60405180910390f35b6102776107d3565b6040516102849190614ee4565b60405180910390f35b6102a760048036038101906102a29190614f68565b610865565b6040516102b49190614d1e565b60405180910390f35b6102c56109a7565b6040516102d29190614fb7565b60405180910390f35b6102f560048036038101906102f09190614fd2565b6109b1565b6040516103029190614d1e565b60405180910390f35b6103256004803603810190610320919061505b565b610b3b565b6040516103329190615097565b60405180910390f35b610355600480360381019061035091906150b2565b610b5b565b005b610371600480360381019061036c91906150df565b610c13565b005b61037b610c3c565b604051610388919061513b565b60405180910390f35b6103ab60048036038101906103a691906150df565b610c45565b005b6103b5610cc8565b005b6103bf610d89565b6040516103cc9190614fb7565b60405180910390f35b6103dd610d92565b6040516103ea9190614d1e565b60405180910390f35b61040d6004803603810190610408919061528b565b610da9565b005b6104296004803603810190610424919061533e565b610e0f565b6040516104369190614fb7565b60405180910390f35b610447610e58565b005b61045161105d565b005b61046d6004803603810190610468919061536b565b61111e565b60405161047a91906153ba565b60405180910390f35b61049d600480360381019061049891906150df565b61114d565b6040516104aa9190614d1e565b60405180910390f35b6104cd60048036038101906104c8919061533e565b6111b8565b005b6104d76112ab565b6040516104e49190614ee4565b60405180910390f35b610507600480360381019061050291906153d5565b61133d565b005b610511611367565b60405161051e9190615097565b60405180910390f35b61052f61136e565b60405161053c9190615097565b60405180910390f35b61055f600480360381019061055a9190614f68565b611392565b60405161056c9190614d1e565b60405180910390f35b61058f600480360381019061058a919061533e565b6114a0565b005b6105ab60048036038101906105a6919061505b565b611612565b6040516105b89190614fb7565b60405180910390f35b6105db60048036038101906105d691906154a4565b611636565b005b6105f760048036038101906105f291906150df565b6117bd565b005b610613600480360381019061060e9190615504565b6117e6565b6040516106209190614d1e565b60405180910390f35b610643600480360381019061063e9190615504565b611997565b6040516106509190614fb7565b60405180910390f35b610661611a1e565b60405161066e9190615097565b60405180910390f35b610691600480360381019061068c919061533e565b611a42565b005b6106ad60048036038101906106a89190615544565b611b35565b005b6106c960048036038101906106c491906155e3565b611b97565b005b60007f5a05180f000000000000000000000000000000000000000000000000000000007bffffffffffffffffffffffffffffffffffffffffffffffffffffffff1916827bffffffffffffffffffffffffffffffffffffffffffffffffffffffff1916148061073e575061073d82611bbd565b5b9050919050565b606060378054806020026020016040519081016040528092919081815260200182805480156107c957602002820191906000526020600020905b8160009054906101000a900473ffffffffffffffffffffffffffffffffffffffff1673ffffffffffffffffffffffffffffffffffffffff168152602001906001019080831161077f575b5050505050905090565b6060603580546107e29061566e565b80601f016020809104026020016040519081016040528092919081815260200182805461080e9061566e565b801561085b5780601f106108305761010080835404028352916020019161085b565b820191906000526020600020905b81548152906001019060200180831161083e57829003601f168201915b5050505050905090565b600061086f610d92565b156108af576040517f08c379a00000000000000000000000000000000000000000000000000000000081526004016108a6906156ec565b60405180910390fd5b6108db7fe4e1847b3f71ae62e5709bf6f5b72c41a777f4eab74c8bbc1a46893b612a749060001b611c37565b6109077fa64a22c8dbb4422a04c4bf363c1155c229c90b1a745741c8bd10196ee185220960001b611c37565b6109337fafe8452582ecb561a393e026d0a47c90cf623d9edc2f536e90c52677f012af4b60001b611c37565b61093d8383611c3a565b6109697f1f6364662e6a047b63d3c1e6729c0bf5132cd8c91259ab9d19c84a048ab657f060001b611c37565b6109957f349767e36324f93c59979e0cf1f9adbf4a5f4d260d9c9589e592bd48dc4bddd960001b611c37565b61099f8383611cb2565b905092915050565b6000603454905090565b60008073ffffffffffffffffffffffffffffffffffffffff168373ffffffffffffffffffffffffffffffffffffffff161415610a22576040517f08c379a0000000000000000000000000000000000000000000000000000000008152600401610a199061577e565b60405180910390fd5b600073ffffffffffffffffffffffffffffffffffffffff168473ffffffffffffffffffffffffffffffffffffffff161415610a92576040517f08c379a0000000000000000000000000000000000000000000000000000000008152600401610a8990615810565b60405180910390fd5b6000610a9c611cd5565b9050610aca818686866040518060200160405280600081525060405180602001604052806000815250611cdd565b610ad5858285611e44565b610b01818686866040518060200160405280600081525060405180602001604052806000815250611ed0565b610b2f81868686604051806020016040528060008152506040518060200160405280600081525060006120ed565b60019150509392505050565b600060c96000838152602001908152602001600020600101549050919050565b610b877f74af10d5807c94adccc297067ae2ae334054c23698a3d27c79f2f0257755fe4660001b6122bf565b610bb37fc29f15c6ae96ca1161571985e38a5e62693aed6e9fcb307e65f8f4b3f6b33b4660001b6122bf565b610bdf7f5781877f2e303770811758828dbd648b9493b266784a2fef4aa4c6acab591a4460001b6122bf565b610c10610bea611cd5565b8260405180602001604052806000815250604051806020016040528060008152506122c2565b50565b610c1c82610b3b565b610c2d81610c28611cd5565b612517565b610c3783836125b4565b505050565b60006012905090565b610c4d611cd5565b73ffffffffffffffffffffffffffffffffffffffff168173ffffffffffffffffffffffffffffffffffffffff1614610cba576040517f08c379a0000000000000000000000000000000000000000000000000000000008152600401610cb1906158a2565b60405180910390fd5b610cc482826126a8565b5050565b7f65d7a28e3265b37a6474929f336521b332c1681b933f6cb9f3376673440d862a610cfa81610cf5611cd5565b612517565b610d267f1302cc76ae850f6911fbc0fcc65eabc6ee43e63159f9b75d0f6585d8eb42fc5960001b611c37565b610d527f33b26dbb875b8547b7ac39ec891879eca554fb0582a2240d982d34880cf04f3260001b611c37565b610d7e7f02de99abbd42ebabfca27d4aed6ab445f9b47c5e322361960938a203d7971d8260001b611c37565b610d8661279c565b50565b60006001905090565b6000606560009054906101000a900460ff16905090565b610dba610db4611cd5565b866117e6565b610df9576040517f08c379a0000000000000000000000000000000000000000000000000000000008152600401610df090615934565b60405180910390fd5b610e088585858585600161283e565b5050505050565b6000603360008373ffffffffffffffffffffffffffffffffffffffff1673ffffffffffffffffffffffffffffffffffffffff168152602001908152602001600020549050919050565b600060019054906101000a900460ff16610e805760008054906101000a900460ff1615610e89565b610e8861295e565b5b610ec8576040517f08c379a0000000000000000000000000000000000000000000000000000000008152600401610ebf906159c6565b60405180910390fd5b60008060019054906101000a900460ff161590508015610f18576001600060016101000a81548160ff02191690831515021790555060016000806101000a81548160ff0219169083151502179055505b610f447f4140e27f219845c4e14eeab8647f171d17a88e433734091ff93c04a3650c21a260001b61296f565b610f707f146cc64753e6f1560c3ee5214b1add0f47e6d27972d04f129a6b8941d112c21e60001b61296f565b610f9c7ff78560446d446d586684b71d4200a99f74b21b3c21dee291472ae9cbb0bd16c760001b61296f565b610fa4612972565b610fd07f7bfe944b546b06802423eb50e8615ecd80fd091aa3b38cc08c5ea7dfa8d22d0260001b61296f565b610ffc7f782674671bf94b3300c9c5906a0107edb83047cd23a0999ec6965b391a414d9a60001b61296f565b611039611007611cd5565b6b019d971e4fe8401e740000006040518060200160405280600081525060405180602001604052806000815250612da5565b801561105a5760008060016101000a81548160ff0219169083151502179055505b50565b7f65d7a28e3265b37a6474929f336521b332c1681b933f6cb9f3376673440d862a61108f8161108a611cd5565b612517565b6110bb7fc6a92d12233e31253bb08ff2f186b4455c35a1f62e4dabe39692cc4434dfa6c860001b611c37565b6110e77f7aa84f5a9f16290a52f26dae554d03bca73181657d00cbda6f88111004eac22360001b611c37565b6111137fd668c0282cf689e0feda834d2e38047d7e8be1ee71ad506e61dfba44e81d0bd160001b611c37565b61111b612db9565b50565b60006111458260fb6000868152602001908152602001600020612e5c90919063ffffffff16565b905092915050565b600060c9600084815260200190815260200160002060000160008373ffffffffffffffffffffffffffffffffffffffff1673ffffffffffffffffffffffffffffffffffffffff16815260200190815260200160002060009054906101000a900460ff16905092915050565b6111e47f1425a473fa46d83138fef9ac29523bad94137be651b3c2125b30413092b725aa60001b611c37565b6112107f7bece9549870c53ad083bf714af25b3c93d5b62034f50ddd818a044d9a13998b60001b611c37565b61123c7f0fd89ecc8d8c1118d2a75072c73f24962a2e43ac83db6ac41c448bedb10ca93260001b611c37565b611247816000611c3a565b6112737ff534847a851fe8f31075ef161260cc49d9ca5b596456cece0bde97ec425aa9d360001b611c37565b61129f7f044c5b38d5754d15ea9bcb729a0ad8eb598bd2684d049c8e4f5eebb4bfa520e160001b611c37565b6112a881612e76565b50565b6060603680546112ba9061566e565b80601f01602080910402602001604051908101604052809291908181526020018280546112e69061566e565b80156113335780601f1061130857610100808354040283529160200191611333565b820191906000526020600020905b81548152906001019060200180831161131657829003601f168201915b5050505050905090565b611362611348611cd5565b84848460405180602001604052806000815250600161283e565b505050565b6000801b81565b7f8f4f2da22e8ac8f11e15f9fc141cddbb5deea8800186560abb6e68c5496619a981565b60008073ffffffffffffffffffffffffffffffffffffffff168373ffffffffffffffffffffffffffffffffffffffff161415611403576040517f08c379a00000000000000000000000000000000000000000000000000000000081526004016113fa9061577e565b60405180910390fd5b600061140d611cd5565b905061143b818286866040518060200160405280600081525060405180602001604052806000815250611cdd565b611467818286866040518060200160405280600081525060405180602001604052806000815250611ed0565b61149581828686604051806020016040528060008152506040518060200160405280600081525060006120ed565b600191505092915050565b600060019054906101000a900460ff166114c85760008054906101000a900460ff16156114d1565b6114d061295e565b5b611510576040517f08c379a0000000000000000000000000000000000000000000000000000000008152600401611507906159c6565b60405180910390fd5b60008060019054906101000a900460ff161590508015611560576001600060016101000a81548160ff02191690831515021790555060016000806101000a81548160ff0219169083151502179055505b61158c7fc2c54c7aa4eadfb1fdf4bede6324b4488cacc14027e697319b9e324559451bfb60001b6122bf565b6115b87f30ffe419c63ec937e401446a0f39faef049fc740d2147a6dad3648ea9a5ea56960001b6122bf565b6115e47f94c8b488a99556363e3a050ad8411977d90644184e749316de9a17b1e4b08e8060001b6122bf565b6115ed826130d7565b801561160e5760008060016101000a81548160ff0219169083151502179055505b5050565b600061162f60fb600084815260200190815260200160002061356c565b9050919050565b7f8f4f2da22e8ac8f11e15f9fc141cddbb5deea8800186560abb6e68c5496619a961166881611663611cd5565b612517565b6116947feb9066340358002fdd78311c9d24abab921225e078ad844a2bcc2b2504d790be60001b6122bf565b6116c07fe49927059dc31f2cb8a1b9173b27847e8eea7ee2d13bbee978941b38ce32d51160001b6122bf565b6116ec7f68d9a6e1af8339c771e457058e1c3cf2aaf40ca72bdedfe098ddedc32f77925160001b6122bf565b600083838101906116fd91906150b2565b905061172b7f5c552f3b4e16ba365f2128edfa6909ee3d3e37a8eea69b9bc59708874e73dff860001b6122bf565b6117577f035bdbf429edce97388dd29d1f3531e63e929f8123826991cd86b0c7768ffaab60001b6122bf565b6117b6858286868080601f016020809104026020016040519081016040528093929190818152602001838380828437600081840152601f19601f8201169050808301925050505050505060405180602001604052806000815250612da5565b5050505050565b6117c682610b3b565b6117d7816117d2611cd5565b612517565b6117e183836126a8565b505050565b60008173ffffffffffffffffffffffffffffffffffffffff168373ffffffffffffffffffffffffffffffffffffffff1614806118fe5750603860008473ffffffffffffffffffffffffffffffffffffffff1673ffffffffffffffffffffffffffffffffffffffff16815260200190815260200160002060009054906101000a900460ff1680156118fd5750603a60008373ffffffffffffffffffffffffffffffffffffffff1673ffffffffffffffffffffffffffffffffffffffff16815260200190815260200160002060008473ffffffffffffffffffffffffffffffffffffffff1673ffffffffffffffffffffffffffffffffffffffff16815260200190815260200160002060009054906101000a900460ff16155b5b8061198f5750603960008373ffffffffffffffffffffffffffffffffffffffff1673ffffffffffffffffffffffffffffffffffffffff16815260200190815260200160002060008473ffffffffffffffffffffffffffffffffffffffff1673ffffffffffffffffffffffffffffffffffffffff16815260200190815260200160002060009054906101000a900460ff165b905092915050565b6000603b60008473ffffffffffffffffffffffffffffffffffffffff1673ffffffffffffffffffffffffffffffffffffffff16815260200190815260200160002060008373ffffffffffffffffffffffffffffffffffffffff1673ffffffffffffffffffffffffffffffffffffffff16815260200190815260200160002054905092915050565b7f65d7a28e3265b37a6474929f336521b332c1681b933f6cb9f3376673440d862a81565b611a6e7f54030bc1658e9104163857d5e7c8e9b8f9e637abd7395fd362bb9432b7ef9f8660001b611c37565b611a9a7f4c24de46aebe838e3af0e680b07120e07f8a7949c18ace0d217361d3a3c6fbd460001b611c37565b611ac67f0650bc4fa16f8370e735b251328d63d4093cf517933fed80975f53d95618384760001b611c37565b611ad1816000611c3a565b611afd7fb3424e636b2784510823aefbc8f618b57d9eb3ef96a007a51f5aa2ec1033a50960001b611c37565b611b297f9ad2795b4154b6d57c691b9f2273981c4526ab60e8bbcfa1901f9c4d85db6dde60001b611c37565b611b3281613581565b50565b611b46611b40611cd5565b856117e6565b611b85576040517f08c379a0000000000000000000000000000000000000000000000000000000008152600401611b7c90615934565b60405180910390fd5b611b91848484846122c2565b50505050565b611bb9611ba2611cd5565b8383604051806020016040528060008152506122c2565b5050565b60007f7965db0b000000000000000000000000000000000000000000000000000000007bffffffffffffffffffffffffffffffffffffffffffffffffffffffff1916827bffffffffffffffffffffffffffffffffffffffffffffffffffffffff19161480611c305750611c2f826137e2565b5b9050919050565b50565b611c42610d92565b15611c82576040517f08c379a0000000000000000000000000000000000000000000000000000000008152600401611c79906156ec565b60405180910390fd5b611cae7ff31be9d270d4638789cb3900e4cfa56258636b5b2dc5df8a906b412bd946f17c60001b611c37565b5050565b600080611cbd611cd5565b9050611cca81858561384c565b600191505092915050565b600033905090565b6000731820a4b7618bde71dce8cdc73aab6c95905fad2473ffffffffffffffffffffffffffffffffffffffff1663aabbb8ca877f29ddb589b1fb5fc7cf394961c1adf5f8c6454761adf795e67fe149f658abe8956040518363ffffffff1660e01b8152600401611d4e9291906159e6565b602060405180830381865afa158015611d6b573d6000803e3d6000fd5b505050506040513d601f19601f82011682018060405250810190611d8f9190615a24565b9050600073ffffffffffffffffffffffffffffffffffffffff168173ffffffffffffffffffffffffffffffffffffffff1614611e3b578073ffffffffffffffffffffffffffffffffffffffff166375ab97828888888888886040518763ffffffff1660e01b8152600401611e0896959493929190615aa6565b600060405180830381600087803b158015611e2257600080fd5b505af1158015611e36573d6000803e3d6000fd5b505050505b50505050505050565b6000611e508484611997565b90507fffffffffffffffffffffffffffffffffffffffffffffffffffffffffffffffff8114611eca5781811015611ebc576040517f08c379a0000000000000000000000000000000000000000000000000000000008152600401611eb390615b61565b60405180910390fd5b611ec9848484840361384c565b5b50505050565b611edc86868686613a17565b6000603360008773ffffffffffffffffffffffffffffffffffffffff1673ffffffffffffffffffffffffffffffffffffffff16815260200190815260200160002054905083811015611f63576040517f08c379a0000000000000000000000000000000000000000000000000000000008152600401611f5a90615bf3565b60405180910390fd5b838103603360008873ffffffffffffffffffffffffffffffffffffffff1673ffffffffffffffffffffffffffffffffffffffff1681526020019081526020016000208190555083603360008773ffffffffffffffffffffffffffffffffffffffff1673ffffffffffffffffffffffffffffffffffffffff1681526020019081526020016000206000828254611ff89190615c42565b925050819055508473ffffffffffffffffffffffffffffffffffffffff168673ffffffffffffffffffffffffffffffffffffffff168873ffffffffffffffffffffffffffffffffffffffff167f06b541ddaa720db2b10a4d0cdac39b8d360425fc073085fac19bc8261467798787878760405161207793929190615c98565b60405180910390a48473ffffffffffffffffffffffffffffffffffffffff168673ffffffffffffffffffffffffffffffffffffffff167fddf252ad1be2c89b69c2b068fc378daa952ba7f163c4a11628f55a4df523b3ef866040516120dc9190614fb7565b60405180910390a350505050505050565b6000731820a4b7618bde71dce8cdc73aab6c95905fad2473ffffffffffffffffffffffffffffffffffffffff1663aabbb8ca877fb281fc8c12954d22544db45de3159a39272895b169a852b314f9cc762e44c53b6040518363ffffffff1660e01b815260040161215e9291906159e6565b602060405180830381865afa15801561217b573d6000803e3d6000fd5b505050506040513d601f19601f8201168201806040525081019061219f9190615a24565b9050600073ffffffffffffffffffffffffffffffffffffffff168173ffffffffffffffffffffffffffffffffffffffff161461224e578073ffffffffffffffffffffffffffffffffffffffff166223de298989898989896040518763ffffffff1660e01b815260040161221796959493929190615aa6565b600060405180830381600087803b15801561223157600080fd5b505af1158015612245573d6000803e3d6000fd5b505050506122b5565b81156122b4576122738673ffffffffffffffffffffffffffffffffffffffff16613af5565b156122b3576040517f08c379a00000000000000000000000000000000000000000000000000000000081526004016122aa90615d75565b60405180910390fd5b5b5b5050505050505050565b50565b600073ffffffffffffffffffffffffffffffffffffffff168473ffffffffffffffffffffffffffffffffffffffff161415612332576040517f08c379a000000000000000000000000000000000000000000000000000000000815260040161232990615e07565b60405180910390fd5b600061233c611cd5565b905061234d81866000878787611cdd565b61235a8186600087613a17565b6000603360008773ffffffffffffffffffffffffffffffffffffffff1673ffffffffffffffffffffffffffffffffffffffff168152602001908152602001600020549050848110156123e1576040517f08c379a00000000000000000000000000000000000000000000000000000000081526004016123d890615e99565b60405180910390fd5b848103603360008873ffffffffffffffffffffffffffffffffffffffff1673ffffffffffffffffffffffffffffffffffffffff1681526020019081526020016000208190555084603460008282546124399190615eb9565b925050819055508573ffffffffffffffffffffffffffffffffffffffff168273ffffffffffffffffffffffffffffffffffffffff167fa78a9be3a7b862d26933ad85fb11d80ef66b8f972d7cbba06621d583943a40988787876040516124a193929190615c98565b60405180910390a3600073ffffffffffffffffffffffffffffffffffffffff168673ffffffffffffffffffffffffffffffffffffffff167fddf252ad1be2c89b69c2b068fc378daa952ba7f163c4a11628f55a4df523b3ef876040516125079190614fb7565b60405180910390a3505050505050565b612521828261114d565b6125b0576125468173ffffffffffffffffffffffffffffffffffffffff166014613b18565b6125548360001c6020613b18565b604051602001612565929190615fc1565b6040516020818303038152906040526040517f08c379a00000000000000000000000000000000000000000000000000000000081526004016125a79190614ee4565b60405180910390fd5b5050565b6125e07f91fbab574898044790f6f497353d698215ebc08deb4f7e13eb3f762df047badf60001b611c37565b61260c7f525fc3a0bb0d6ed0310a4cc150560ece9f10ec7f0772cff1e94edaa84516e3b560001b611c37565b6126387fcf698b2c17c049d0b7f3267095a8cad34b45830eb07ec98735edc26fef3771f660001b611c37565b6126428282613d54565b61266e7f400264cb67d46a3cb84ecb02d36d827ccf080f65de6a1d8f7b6fec70049ed25660001b611c37565b61269a7f553082676a5b23090182fbaafed69daa27f4185f1aecbc43553a3319ec80c67b60001b611c37565b6126a48282613dcc565b5050565b6126d47f3cff077c673bea248eef39a40302471c87af51f3cdda7ed530796bb56510657760001b611c37565b6127007f16690ef1a851b4b368560b20ab5a0aa82fe58630b57c80204ca8f7a166cbdc8a60001b611c37565b61272c7f821b15579146ab2e592845d22726dd4df3109d91d9d95ca21dceddc0e514a4c360001b611c37565b6127368282613d54565b6127627f4e936d7bc07a2cf8613d76a33e25bfa041e5cbe47d542b71e9951ea264ac0c7060001b611c37565b61278e7f179ff9ad587051826326d184afdfe8a83e95193173d7a0a92feee00f0b06c4cc60001b611c37565b6127988282613e00565b5050565b6127a4610d92565b6127e3576040517f08c379a00000000000000000000000000000000000000000000000000000000081526004016127da90616047565b60405180910390fd5b6000606560006101000a81548160ff0219169083151502179055507f5db9ee0a495bf2e6ff9c91a7834c1ba4fdd244a5e8aa4e537bd38aeae4b073aa612827611cd5565b60405161283491906153ba565b60405180910390a1565b600073ffffffffffffffffffffffffffffffffffffffff168673ffffffffffffffffffffffffffffffffffffffff1614156128ae576040517f08c379a00000000000000000000000000000000000000000000000000000000081526004016128a5906160d9565b60405180910390fd5b600073ffffffffffffffffffffffffffffffffffffffff168573ffffffffffffffffffffffffffffffffffffffff16141561291e576040517f08c379a000000000000000000000000000000000000000000000000000000000815260040161291590616145565b60405180910390fd5b6000612928611cd5565b9050612938818888888888611cdd565b612946818888888888611ed0565b612955818888888888886120ed565b50505050505050565b600061296930613af5565b15905090565b50565b600060019054906101000a900460ff166129c1576040517f08c379a00000000000000000000000000000000000000000000000000000000081526004016129b8906161d7565b60405180910390fd5b6129ed7f74635db2014118331d25853218fe906b7bb2b43f89d09f312d373904208d4f7e60001b61296f565b612a197fa46c8f000190d0620f2ec5d79d8ea5bfb52a30a4172db588e7133ef5fae807a460001b61296f565b612a457f9595d479ef18f3a83129aa5f055bf474208a4502bd0e6e3b078495170274597e60001b61296f565b612a4d613e34565b612a797ff89c0529538c242de4577c19fe639a6ffbcd224f5919714c0e628a55121381a860001b61296f565b612aa57f4037e7f0d9f23f397c30aa38d3f93a3687e8bc879ddb92f17b0ac5f36986704a60001b61296f565b612aad613e85565b612ad97fdd9e3f26d06fa67484db41d9ec2caf9598eb2d2aee924f710490136463f2485c60001b61296f565b612b057f78b3a1c093223f54ccfa8556e90a4c3dc50c798dd8a39c34269c90d08ace89d760001b61296f565b612b0d613ed6565b612b397f37a5a3094c526a1c66a5dd93a61ebc4f7acc7cdd01bd8812a6bedcc321e67cc260001b61296f565b612b657ff371cc90ea510d48dd4e8bcffb40c6c4949461a3f71ae5f35d9658741e91e04360001b61296f565b612b6d613f27565b612b997f31c26a8ce7af4b2d8e82c83b8237ff88afdc5392247feb3366bd5ef615f8c8dc60001b61296f565b612bc57f2a8896bf79d3f2ac3402eb15a9f5bacc18bd5a086854efe8c8ca16c7d513117360001b61296f565b612bcd613f78565b612bf97f088280c5d5dc38f09b584ee8c181f8399edad85ae123ef7e957c8011330f071860001b61296f565b612c257fceb8a22552a3c1870ff46ab97ec779e1414cbe6e67836502a00ea1c9b4e7dcff60001b61296f565b612c2d613fe4565b612c597fc814dea216c05ec48aa07f05d2060e327736fcc13c9e5f7a03dbd11562d978d460001b61296f565b612c857fbb70a1b83eb2edae23cc59a02111ef7f0cc4a0b899f1dcbbb6b55621b3bf24a460001b61296f565b612d436040518060400160405280600481526020017f4e4f5249000000000000000000000000000000000000000000000000000000008152506040518060400160405280600481526020017f4e4f524900000000000000000000000000000000000000000000000000000000815250600067ffffffffffffffff811115612d0f57612d0e615160565b5b604051908082528060200260200182016040528015612d3d5781602001602082028036833780820191505090505b50614156565b612d6f7f9052867d13e79cfaffe2f91829154d6d3978a49c02f04d68714358fd31cc1fb660001b61296f565b612d9b7fa5e6b2316804a1195534a3873d60e1c3c53c01624c31fedc5e032f16bad1d73360001b61296f565b612da36143c7565b565b612db3848484846001614444565b50505050565b612dc1610d92565b15612e01576040517f08c379a0000000000000000000000000000000000000000000000000000000008152600401612df8906156ec565b60405180910390fd5b6001606560006101000a81548160ff0219169083151502179055507f62e78cea01bee320cd4e420270b5ea74000d11b0c9f74754ebdbfc544b05a258612e45611cd5565b604051612e5291906153ba565b60405180910390a1565b6000612e6b8360000183614623565b60001c905092915050565b8073ffffffffffffffffffffffffffffffffffffffff16612e95611cd5565b73ffffffffffffffffffffffffffffffffffffffff161415612eec576040517f08c379a0000000000000000000000000000000000000000000000000000000008152600401612ee390616269565b60405180910390fd5b603860008273ffffffffffffffffffffffffffffffffffffffff1673ffffffffffffffffffffffffffffffffffffffff16815260200190815260200160002060009054906101000a900460ff1615612fd657603a6000612f4a611cd5565b73ffffffffffffffffffffffffffffffffffffffff1673ffffffffffffffffffffffffffffffffffffffff16815260200190815260200160002060008273ffffffffffffffffffffffffffffffffffffffff1673ffffffffffffffffffffffffffffffffffffffff16815260200190815260200160002060006101000a81549060ff0219169055613073565b600160396000612fe4611cd5565b73ffffffffffffffffffffffffffffffffffffffff1673ffffffffffffffffffffffffffffffffffffffff16815260200190815260200160002060008373ffffffffffffffffffffffffffffffffffffffff1673ffffffffffffffffffffffffffffffffffffffff16815260200190815260200160002060006101000a81548160ff0219169083151502179055505b61307b611cd5565b73ffffffffffffffffffffffffffffffffffffffff168173ffffffffffffffffffffffffffffffffffffffff167ff4caeb2d6ca8932a215a353d0703c326ec2d81fc68170f320eb2ab49e9df61f960405160405180910390a350565b600060019054906101000a900460ff16613126576040517f08c379a000000000000000000000000000000000000000000000000000000000815260040161311d906161d7565b60405180910390fd5b6131527ff47e1f5646d558aae8ae9e0a47b692ba0f5f4fd026c656ed5c6eef8252beacbc60001b6122bf565b61317e7f793deb262d2571159450c7770d81f13fac8b6e18ebdb309114975adf73a5567d60001b6122bf565b6131aa7fc43d5545e4da84147669fae94da9d6532c3ee4128566a3ee6cabd039e674df2260001b6122bf565b6131b2613e34565b6131de7f159d3904ff335d3af0eb8f59b626026d70895b262ebe5cdfd77ce0ee8f412f0260001b6122bf565b61320a7f06fcb176cb5d6a7e9508ab0a043d2ad0ba78f1ce567e8d9f708e929358ca87b360001b6122bf565b613212613e85565b61323e7ff190538f231a92a320dd6c1c433f51d637701b5e86a643f692c60089f085f75560001b6122bf565b61326a7f326260273eeb05e5e7bc836f26ed2da7b82565dd86f3c4bdc62772285b0bfc7b60001b6122bf565b613272613ed6565b61329e7f9482bed9d0e872c656cd95b173ff00edcb017e259fa280293cd75972e2dc825a60001b6122bf565b6132ca7f418fb1fd65ee54c1a3c7fa7334fc0a4db77f2b4caf926e0c27bff96f5a64847d60001b6122bf565b6132d2613f27565b6132fe7f99c7f668bfa3a11d47aaa7d59ba98d9bbabfe30bf121f0442f4d79095416b78860001b6122bf565b61332a7fd21100f66d585cb829f88c7ecc2e5a6192bea1db500aba098942e9511171ac0d60001b6122bf565b613332613f78565b61335e7f752df920e4d3b043df9142b0a3ffa71ffe5cbd59ce94867c2d1755c87d740ec860001b6122bf565b61338a7f9931f73aa8b5aadc8115648545ee980fa972bbf607e917583573b17e147d382460001b6122bf565b613392613fe4565b6133be7fbc81b08977e00d9275f1c286a52100e9018ea55c056a1a2c744325172b4c219460001b6122bf565b6133ea7fe8e493ce5dccc65003ddfb3aa741994e7c9917e88431af00302f883c28c8f25060001b6122bf565b6134a86040518060400160405280600481526020017f4e4f5249000000000000000000000000000000000000000000000000000000008152506040518060400160405280600481526020017f4e4f524900000000000000000000000000000000000000000000000000000000815250600067ffffffffffffffff81111561347457613473615160565b5b6040519080825280602002602001820160405280156134a25781602001602082028036833780820191505090505b50614156565b6134d47f04c9ec36cc5f5e03be872239e40072f43a8528e0b796f3ac2560007adb76ec2a60001b6122bf565b6135007f31c6fd5038df2462dea8969531f85001a733ba49e722ceeb136faaf06835456c60001b6122bf565b6135086143c7565b6135347fff94ddf3614d9e38f92472360d99e43a8edfc9a9a4d4aee163269e8b14486b9460001b6122bf565b6135607fdeac179168357a3fa807dc70d195c97832fb2cefaa3feb2c9d826a5c45621b3360001b6122bf565b6135698161464e565b50565b600061357a8260000161474e565b9050919050565b613589611cd5565b73ffffffffffffffffffffffffffffffffffffffff168173ffffffffffffffffffffffffffffffffffffffff1614156135f7576040517f08c379a00000000000000000000000000000000000000000000000000000000081526004016135ee906162fb565b60405180910390fd5b603860008273ffffffffffffffffffffffffffffffffffffffff1673ffffffffffffffffffffffffffffffffffffffff16815260200190815260200160002060009054906101000a900460ff16156136ea576001603a6000613657611cd5565b73ffffffffffffffffffffffffffffffffffffffff1673ffffffffffffffffffffffffffffffffffffffff16815260200190815260200160002060008373ffffffffffffffffffffffffffffffffffffffff1673ffffffffffffffffffffffffffffffffffffffff16815260200190815260200160002060006101000a81548160ff02191690831515021790555061377e565b603960006136f6611cd5565b73ffffffffffffffffffffffffffffffffffffffff1673ffffffffffffffffffffffffffffffffffffffff16815260200190815260200160002060008273ffffffffffffffffffffffffffffffffffffffff1673ffffffffffffffffffffffffffffffffffffffff16815260200190815260200160002060006101000a81549060ff02191690555b613786611cd5565b73ffffffffffffffffffffffffffffffffffffffff168173ffffffffffffffffffffffffffffffffffffffff167f50546e66e5f44d728365dc3908c63bc5cfeeab470722c1677e3073a6ac294aa160405160405180910390a350565b60007f01ffc9a7000000000000000000000000000000000000000000000000000000007bffffffffffffffffffffffffffffffffffffffffffffffffffffffff1916827bffffffffffffffffffffffffffffffffffffffffffffffffffffffff1916149050919050565b600073ffffffffffffffffffffffffffffffffffffffff168373ffffffffffffffffffffffffffffffffffffffff1614156138bc576040517f08c379a00000000000000000000000000000000000000000000000000000000081526004016138b39061638d565b60405180910390fd5b600073ffffffffffffffffffffffffffffffffffffffff168273ffffffffffffffffffffffffffffffffffffffff16141561392c576040517f08c379a00000000000000000000000000000000000000000000000000000000081526004016139239061641f565b60405180910390fd5b80603b60008573ffffffffffffffffffffffffffffffffffffffff1673ffffffffffffffffffffffffffffffffffffffff16815260200190815260200160002060008473ffffffffffffffffffffffffffffffffffffffff1673ffffffffffffffffffffffffffffffffffffffff168152602001908152602001600020819055508173ffffffffffffffffffffffffffffffffffffffff168373ffffffffffffffffffffffffffffffffffffffff167f8c5be1e5ebec7d5bd14f71427d1e84f3dd0314c0f7b2291e5b200ac8c7c3b92583604051613a0a9190614fb7565b60405180910390a3505050565b613a1f610d92565b15613a5f576040517f08c379a0000000000000000000000000000000000000000000000000000000008152600401613a56906156ec565b60405180910390fd5b613a8b7f9de5b970d73f7475d75eca488b38f4b0bc7e82ca98a9bc584f1abd70aa470c8e60001b611c37565b613ab77fbba92a912cb62d0b36a0348aed21db99ffac9ccd41c4dfc9313e394e989fac4060001b611c37565b613ae37fab57dee5a58b5577b8f2dbc7290878a1e8bc34bbcb97613547a1c1709b38f37060001b611c37565b613aef8484848461475f565b50505050565b6000808273ffffffffffffffffffffffffffffffffffffffff163b119050919050565b606060006002836002613b2b919061643f565b613b359190615c42565b67ffffffffffffffff811115613b4e57613b4d615160565b5b6040519080825280601f01601f191660200182016040528015613b805781602001600182028036833780820191505090505b5090507f300000000000000000000000000000000000000000000000000000000000000081600081518110613bb857613bb7616499565b5b60200101907effffffffffffffffffffffffffffffffffffffffffffffffffffffffffffff1916908160001a9053507f780000000000000000000000000000000000000000000000000000000000000081600181518110613c1c57613c1b616499565b5b60200101907effffffffffffffffffffffffffffffffffffffffffffffffffffffffffffff1916908160001a90535060006001846002613c5c919061643f565b613c669190615c42565b90505b6001811115613d06577f3031323334353637383961626364656600000000000000000000000000000000600f861660108110613ca857613ca7616499565b5b1a60f81b828281518110613cbf57613cbe616499565b5b60200101907effffffffffffffffffffffffffffffffffffffffffffffffffffffffffffff1916908160001a905350600485901c945080613cff906164c8565b9050613c69565b5060008414613d4a576040517f08c379a0000000000000000000000000000000000000000000000000000000008152600401613d419061653e565b60405180910390fd5b8091505092915050565b613d5c610d92565b15613d9c576040517f08c379a0000000000000000000000000000000000000000000000000000000008152600401613d93906156ec565b60405180910390fd5b613dc87f651c2e25ba640992ef0a4a00b879b23b94c623352b35d8de68c9430f2f0f325a60001b611c37565b5050565b613dd68282614765565b613dfb8160fb600085815260200190815260200160002061484690919063ffffffff16565b505050565b613e0a8282614876565b613e2f8160fb600085815260200190815260200160002061495890919063ffffffff16565b505050565b600060019054906101000a900460ff16613e83576040517f08c379a0000000000000000000000000000000000000000000000000000000008152600401613e7a906161d7565b60405180910390fd5b565b600060019054906101000a900460ff16613ed4576040517f08c379a0000000000000000000000000000000000000000000000000000000008152600401613ecb906161d7565b60405180910390fd5b565b600060019054906101000a900460ff16613f25576040517f08c379a0000000000000000000000000000000000000000000000000000000008152600401613f1c906161d7565b60405180910390fd5b565b600060019054906101000a900460ff16613f76576040517f08c379a0000000000000000000000000000000000000000000000000000000008152600401613f6d906161d7565b60405180910390fd5b565b600060019054906101000a900460ff16613fc7576040517f08c379a0000000000000000000000000000000000000000000000000000000008152600401613fbe906161d7565b60405180910390fd5b6000606560006101000a81548160ff021916908315150217905550565b600060019054906101000a900460ff16614033576040517f08c379a000000000000000000000000000000000000000000000000000000000815260040161402a906161d7565b60405180910390fd5b61405f7fa9eca8bdd301aa07f878c9cd7409a96d224da0ef47b45292206bed4c71e40b7b60001b611c37565b61408b7f550def745726a17f81ab44f33f931ffbe87acaf7e18d7086b8c0a2ce35c72a3c60001b611c37565b6140b77f7811711ea2c46f8b2e8ea6860908a0340151c57226be02d6d556e8f195cda9ce60001b611c37565b6140cb6000801b6140c6611cd5565b614988565b6140f77f7b24de0e6d157145d1e8f5eb0f4e9a4471a48db24fb2b9d9862cd68c483c827a60001b611c37565b6141237f65d7310651eec7b5e5030b40e55d94d252528eb4180f1e881bfc8293e6709ead60001b611c37565b6141547f65d7a28e3265b37a6474929f336521b332c1681b933f6cb9f3376673440d862a61414f611cd5565b614988565b565b600060019054906101000a900460ff166141a5576040517f08c379a000000000000000000000000000000000000000000000000000000000815260040161419c906161d7565b60405180910390fd5b82603590805190602001906141bb929190614b3d565b5081603690805190602001906141d2929190614b3d565b5080603790805190602001906141e9929190614bc3565b5060005b815181101561427b5760016038600084848151811061420f5761420e616499565b5b602002602001015173ffffffffffffffffffffffffffffffffffffffff1673ffffffffffffffffffffffffffffffffffffffff16815260200190815260200160002060006101000a81548160ff02191690831515021790555080806142739061655e565b9150506141ed565b50731820a4b7618bde71dce8cdc73aab6c95905fad2473ffffffffffffffffffffffffffffffffffffffff166329965a1d307fac7fbab5f54a3ca8194167523c6753bfeb96a445279294b6125b68cce2177054306040518463ffffffff1660e01b81526004016142ed939291906165a7565b600060405180830381600087803b15801561430757600080fd5b505af115801561431b573d6000803e3d6000fd5b50505050731820a4b7618bde71dce8cdc73aab6c95905fad2473ffffffffffffffffffffffffffffffffffffffff166329965a1d307faea199e31a596269b42cdafd93407f14436db6e4cad65417994c2eb37381e05a306040518463ffffffff1660e01b8152600401614390939291906165a7565b600060405180830381600087803b1580156143aa57600080fd5b505af11580156143be573d6000803e3d6000fd5b50505050505050565b600060019054906101000a900460ff16614416576040517f08c379a000000000000000000000000000000000000000000000000000000000815260040161440d906161d7565b60405180910390fd5b6144427f394bf292eacff0a2dd875155ef1ed38c52c3b61ca964d2b398e627addb0b11d160001b61296f565b565b600073ffffffffffffffffffffffffffffffffffffffff168573ffffffffffffffffffffffffffffffffffffffff1614156144b4576040517f08c379a00000000000000000000000000000000000000000000000000000000081526004016144ab9061662a565b60405180910390fd5b60006144be611cd5565b90506144cd8160008888613a17565b84603460008282546144df9190615c42565b9250508190555084603360008873ffffffffffffffffffffffffffffffffffffffff1673ffffffffffffffffffffffffffffffffffffffff16815260200190815260200160002060008282546145359190615c42565b9250508190555061454c81600088888888886120ed565b8573ffffffffffffffffffffffffffffffffffffffff168173ffffffffffffffffffffffffffffffffffffffff167f2fe5be0146f74c5bce36c0b80911af6c7d86ff27e89d5cfa61fc681327954e5d8787876040516145ad93929190615c98565b60405180910390a38573ffffffffffffffffffffffffffffffffffffffff16600073ffffffffffffffffffffffffffffffffffffffff167fddf252ad1be2c89b69c2b068fc378daa952ba7f163c4a11628f55a4df523b3ef876040516146139190614fb7565b60405180910390a3505050505050565b600082600001828154811061463b5761463a616499565b5b9060005260206000200154905092915050565b600060019054906101000a900460ff1661469d576040517f08c379a0000000000000000000000000000000000000000000000000000000008152600401614694906161d7565b60405180910390fd5b6146c97f5d612e1b77e90ec46721047c719c91b61d890783d011cc6cdcb7aa6da812dda960001b6122bf565b6146f57f9dc2456296376fe08ebe5c33b3a674a827ecbbce29ceef1e841fe1578c39a01360001b6122bf565b6147217f67e3ce91e79712f39380efbc156ff8c14d41a8e3d847e2f9b32412326eefcdb360001b6122bf565b61474b7f8f4f2da22e8ac8f11e15f9fc141cddbb5deea8800186560abb6e68c5496619a982614988565b50565b600081600001805490509050919050565b50505050565b61476f828261114d565b61484257600160c9600084815260200190815260200160002060000160008373ffffffffffffffffffffffffffffffffffffffff1673ffffffffffffffffffffffffffffffffffffffff16815260200190815260200160002060006101000a81548160ff0219169083151502179055506147e7611cd5565b73ffffffffffffffffffffffffffffffffffffffff168173ffffffffffffffffffffffffffffffffffffffff16837f2f8788117e7eff1d82e926ec794901d17c78024a50270940304540a733656f0d60405160405180910390a45b5050565b600061486e836000018373ffffffffffffffffffffffffffffffffffffffff1660001b614996565b905092915050565b614880828261114d565b1561495457600060c9600084815260200190815260200160002060000160008373ffffffffffffffffffffffffffffffffffffffff1673ffffffffffffffffffffffffffffffffffffffff16815260200190815260200160002060006101000a81548160ff0219169083151502179055506148f9611cd5565b73ffffffffffffffffffffffffffffffffffffffff168173ffffffffffffffffffffffffffffffffffffffff16837ff6391f5c32d9c69d2a47ea670b442974b53935d1edc7fd64eb21e047a839171b60405160405180910390a45b5050565b6000614980836000018373ffffffffffffffffffffffffffffffffffffffff1660001b614a06565b905092915050565b61499282826125b4565b5050565b60006149a28383614b1a565b6149fb578260000182908060018154018082558091505060019003906000526020600020016000909190919091505582600001805490508360010160008481526020019081526020016000208190555060019050614a00565b600090505b92915050565b60008083600101600084815260200190815260200160002054905060008114614b0e576000600182614a389190615eb9565b9050600060018660000180549050614a509190615eb9565b9050818114614abf576000866000018281548110614a7157614a70616499565b5b9060005260206000200154905080876000018481548110614a9557614a94616499565b5b90600052602060002001819055508387600101600083815260200190815260200160002081905550505b85600001805480614ad357614ad261664a565b5b600190038181906000526020600020016000905590558560010160008681526020019081526020016000206000905560019350505050614b14565b60009150505b92915050565b600080836001016000848152602001908152602001600020541415905092915050565b828054614b499061566e565b90600052602060002090601f016020900481019282614b6b5760008555614bb2565b82601f10614b8457805160ff1916838001178555614bb2565b82800160010185558215614bb2579182015b82811115614bb1578251825591602001919060010190614b96565b5b509050614bbf9190614c4d565b5090565b828054828255906000526020600020908101928215614c3c579160200282015b82811115614c3b5782518260006101000a81548173ffffffffffffffffffffffffffffffffffffffff021916908373ffffffffffffffffffffffffffffffffffffffff16021790555091602001919060010190614be3565b5b509050614c499190614c4d565b5090565b5b80821115614c66576000816000905550600101614c4e565b5090565b6000604051905090565b600080fd5b600080fd5b60007fffffffff0000000000000000000000000000000000000000000000000000000082169050919050565b614cb381614c7e565b8114614cbe57600080fd5b50565b600081359050614cd081614caa565b92915050565b600060208284031215614cec57614ceb614c74565b5b6000614cfa84828501614cc1565b91505092915050565b60008115159050919050565b614d1881614d03565b82525050565b6000602082019050614d336000830184614d0f565b92915050565b600081519050919050565b600082825260208201905092915050565b6000819050602082019050919050565b600073ffffffffffffffffffffffffffffffffffffffff82169050919050565b6000614d9082614d65565b9050919050565b614da081614d85565b82525050565b6000614db28383614d97565b60208301905092915050565b6000602082019050919050565b6000614dd682614d39565b614de08185614d44565b9350614deb83614d55565b8060005b83811015614e1c578151614e038882614da6565b9750614e0e83614dbe565b925050600181019050614def565b5085935050505092915050565b60006020820190508181036000830152614e438184614dcb565b905092915050565b600081519050919050565b600082825260208201905092915050565b60005b83811015614e85578082015181840152602081019050614e6a565b83811115614e94576000848401525b50505050565b6000601f19601f8301169050919050565b6000614eb682614e4b565b614ec08185614e56565b9350614ed0818560208601614e67565b614ed981614e9a565b840191505092915050565b60006020820190508181036000830152614efe8184614eab565b905092915050565b614f0f81614d85565b8114614f1a57600080fd5b50565b600081359050614f2c81614f06565b92915050565b6000819050919050565b614f4581614f32565b8114614f5057600080fd5b50565b600081359050614f6281614f3c565b92915050565b60008060408385031215614f7f57614f7e614c74565b5b6000614f8d85828601614f1d565b9250506020614f9e85828601614f53565b9150509250929050565b614fb181614f32565b82525050565b6000602082019050614fcc6000830184614fa8565b92915050565b600080600060608486031215614feb57614fea614c74565b5b6000614ff986828701614f1d565b935050602061500a86828701614f1d565b925050604061501b86828701614f53565b9150509250925092565b6000819050919050565b61503881615025565b811461504357600080fd5b50565b6000813590506150558161502f565b92915050565b60006020828403121561507157615070614c74565b5b600061507f84828501615046565b91505092915050565b61509181615025565b82525050565b60006020820190506150ac6000830184615088565b92915050565b6000602082840312156150c8576150c7614c74565b5b60006150d684828501614f53565b91505092915050565b600080604083850312156150f6576150f5614c74565b5b600061510485828601615046565b925050602061511585828601614f1d565b9150509250929050565b600060ff82169050919050565b6151358161511f565b82525050565b6000602082019050615150600083018461512c565b92915050565b600080fd5b600080fd5b7f4e487b7100000000000000000000000000000000000000000000000000000000600052604160045260246000fd5b61519882614e9a565b810181811067ffffffffffffffff821117156151b7576151b6615160565b5b80604052505050565b60006151ca614c6a565b90506151d6828261518f565b919050565b600067ffffffffffffffff8211156151f6576151f5615160565b5b6151ff82614e9a565b9050602081019050919050565b82818337600083830152505050565b600061522e615229846151db565b6151c0565b90508281526020810184848401111561524a5761524961515b565b5b61525584828561520c565b509392505050565b600082601f83011261527257615271615156565b5b813561528284826020860161521b565b91505092915050565b600080600080600060a086880312156152a7576152a6614c74565b5b60006152b588828901614f1d565b95505060206152c688828901614f1d565b94505060406152d788828901614f53565b935050606086013567ffffffffffffffff8111156152f8576152f7614c79565b5b6153048882890161525d565b925050608086013567ffffffffffffffff81111561532557615324614c79565b5b6153318882890161525d565b9150509295509295909350565b60006020828403121561535457615353614c74565b5b600061536284828501614f1d565b91505092915050565b6000806040838503121561538257615381614c74565b5b600061539085828601615046565b92505060206153a185828601614f53565b9150509250929050565b6153b481614d85565b82525050565b60006020820190506153cf60008301846153ab565b92915050565b6000806000606084860312156153ee576153ed614c74565b5b60006153fc86828701614f1d565b935050602061540d86828701614f53565b925050604084013567ffffffffffffffff81111561542e5761542d614c79565b5b61543a8682870161525d565b9150509250925092565b600080fd5b600080fd5b60008083601f84011261546457615463615156565b5b8235905067ffffffffffffffff81111561548157615480615444565b5b60208301915083600182028301111561549d5761549c615449565b5b9250929050565b6000806000604084860312156154bd576154bc614c74565b5b60006154cb86828701614f1d565b935050602084013567ffffffffffffffff8111156154ec576154eb614c79565b5b6154f88682870161544e565b92509250509250925092565b6000806040838503121561551b5761551a614c74565b5b600061552985828601614f1d565b925050602061553a85828601614f1d565b9150509250929050565b6000806000806080858703121561555e5761555d614c74565b5b600061556c87828801614f1d565b945050602061557d87828801614f53565b935050604085013567ffffffffffffffff81111561559e5761559d614c79565b5b6155aa8782880161525d565b925050606085013567ffffffffffffffff8111156155cb576155ca614c79565b5b6155d78782880161525d565b91505092959194509250565b600080604083850312156155fa576155f9614c74565b5b600061560885828601614f53565b925050602083013567ffffffffffffffff81111561562957615628614c79565b5b6156358582860161525d565b9150509250929050565b7f4e487b7100000000000000000000000000000000000000000000000000000000600052602260045260246000fd5b6000600282049050600182168061568657607f821691505b6020821081141561569a5761569961563f565b5b50919050565b7f5061757361626c653a2070617573656400000000000000000000000000000000600082015250565b60006156d6601083614e56565b91506156e1826156a0565b602082019050919050565b60006020820190508181036000830152615705816156c9565b9050919050565b7f4552433737373a207472616e7366657220746f20746865207a65726f2061646460008201527f7265737300000000000000000000000000000000000000000000000000000000602082015250565b6000615768602483614e56565b91506157738261570c565b604082019050919050565b600060208201905081810360008301526157978161575b565b9050919050565b7f4552433737373a207472616e736665722066726f6d20746865207a65726f206160008201527f6464726573730000000000000000000000000000000000000000000000000000602082015250565b60006157fa602683614e56565b91506158058261579e565b604082019050919050565b60006020820190508181036000830152615829816157ed565b9050919050565b7f416363657373436f6e74726f6c3a2063616e206f6e6c792072656e6f756e636560008201527f20726f6c657320666f722073656c660000000000000000000000000000000000602082015250565b600061588c602f83614e56565b915061589782615830565b604082019050919050565b600060208201905081810360008301526158bb8161587f565b9050919050565b7f4552433737373a2063616c6c6572206973206e6f7420616e206f70657261746f60008201527f7220666f7220686f6c6465720000000000000000000000000000000000000000602082015250565b600061591e602c83614e56565b9150615929826158c2565b604082019050919050565b6000602082019050818103600083015261594d81615911565b9050919050565b7f496e697469616c697a61626c653a20636f6e747261637420697320616c72656160008201527f647920696e697469616c697a6564000000000000000000000000000000000000602082015250565b60006159b0602e83614e56565b91506159bb82615954565b604082019050919050565b600060208201905081810360008301526159df816159a3565b9050919050565b60006040820190506159fb60008301856153ab565b615a086020830184615088565b9392505050565b600081519050615a1e81614f06565b92915050565b600060208284031215615a3a57615a39614c74565b5b6000615a4884828501615a0f565b91505092915050565b600081519050919050565b600082825260208201905092915050565b6000615a7882615a51565b615a828185615a5c565b9350615a92818560208601614e67565b615a9b81614e9a565b840191505092915050565b600060c082019050615abb60008301896153ab565b615ac860208301886153ab565b615ad560408301876153ab565b615ae26060830186614fa8565b8181036080830152615af48185615a6d565b905081810360a0830152615b088184615a6d565b9050979650505050505050565b7f4552433737373a20696e73756666696369656e7420616c6c6f77616e63650000600082015250565b6000615b4b601e83614e56565b9150615b5682615b15565b602082019050919050565b60006020820190508181036000830152615b7a81615b3e565b9050919050565b7f4552433737373a207472616e7366657220616d6f756e7420657863656564732060008201527f62616c616e636500000000000000000000000000000000000000000000000000602082015250565b6000615bdd602783614e56565b9150615be882615b81565b604082019050919050565b60006020820190508181036000830152615c0c81615bd0565b9050919050565b7f4e487b7100000000000000000000000000000000000000000000000000000000600052601160045260246000fd5b6000615c4d82614f32565b9150615c5883614f32565b9250827fffffffffffffffffffffffffffffffffffffffffffffffffffffffffffffffff03821115615c8d57615c8c615c13565b5b828201905092915050565b6000606082019050615cad6000830186614fa8565b8181036020830152615cbf8185615a6d565b90508181036040830152615cd38184615a6d565b9050949350505050565b7f4552433737373a20746f6b656e20726563697069656e7420636f6e747261637460008201527f20686173206e6f20696d706c656d656e74657220666f7220455243373737546f60208201527f6b656e73526563697069656e7400000000000000000000000000000000000000604082015250565b6000615d5f604d83614e56565b9150615d6a82615cdd565b606082019050919050565b60006020820190508181036000830152615d8e81615d52565b9050919050565b7f4552433737373a206275726e2066726f6d20746865207a65726f20616464726560008201527f7373000000000000000000000000000000000000000000000000000000000000602082015250565b6000615df1602283614e56565b9150615dfc82615d95565b604082019050919050565b60006020820190508181036000830152615e2081615de4565b9050919050565b7f4552433737373a206275726e20616d6f756e7420657863656564732062616c6160008201527f6e63650000000000000000000000000000000000000000000000000000000000602082015250565b6000615e83602383614e56565b9150615e8e82615e27565b604082019050919050565b60006020820190508181036000830152615eb281615e76565b9050919050565b6000615ec482614f32565b9150615ecf83614f32565b925082821015615ee257615ee1615c13565b5b828203905092915050565b600081905092915050565b7f416363657373436f6e74726f6c3a206163636f756e7420000000000000000000600082015250565b6000615f2e601783615eed565b9150615f3982615ef8565b601782019050919050565b6000615f4f82614e4b565b615f598185615eed565b9350615f69818560208601614e67565b80840191505092915050565b7f206973206d697373696e6720726f6c6520000000000000000000000000000000600082015250565b6000615fab601183615eed565b9150615fb682615f75565b601182019050919050565b6000615fcc82615f21565b9150615fd88285615f44565b9150615fe382615f9e565b9150615fef8284615f44565b91508190509392505050565b7f5061757361626c653a206e6f7420706175736564000000000000000000000000600082015250565b6000616031601483614e56565b915061603c82615ffb565b602082019050919050565b6000602082019050818103600083015261606081616024565b9050919050565b7f4552433737373a2073656e642066726f6d20746865207a65726f20616464726560008201527f7373000000000000000000000000000000000000000000000000000000000000602082015250565b60006160c3602283614e56565b91506160ce82616067565b604082019050919050565b600060208201905081810360008301526160f2816160b6565b9050919050565b7f4552433737373a2073656e6420746f20746865207a65726f2061646472657373600082015250565b600061612f602083614e56565b915061613a826160f9565b602082019050919050565b6000602082019050818103600083015261615e81616122565b9050919050565b7f496e697469616c697a61626c653a20636f6e7472616374206973206e6f74206960008201527f6e697469616c697a696e67000000000000000000000000000000000000000000602082015250565b60006161c1602b83614e56565b91506161cc82616165565b604082019050919050565b600060208201905081810360008301526161f0816161b4565b9050919050565b7f4552433737373a20617574686f72697a696e672073656c66206173206f70657260008201527f61746f7200000000000000000000000000000000000000000000000000000000602082015250565b6000616253602483614e56565b915061625e826161f7565b604082019050919050565b6000602082019050818103600083015261628281616246565b9050919050565b7f4552433737373a207265766f6b696e672073656c66206173206f70657261746f60008201527f7200000000000000000000000000000000000000000000000000000000000000602082015250565b60006162e5602183614e56565b91506162f082616289565b604082019050919050565b60006020820190508181036000830152616314816162d8565b9050919050565b7f4552433737373a20617070726f76652066726f6d20746865207a65726f20616460008201527f6472657373000000000000000000000000000000000000000000000000000000602082015250565b6000616377602583614e56565b91506163828261631b565b604082019050919050565b600060208201905081810360008301526163a68161636a565b9050919050565b7f4552433737373a20617070726f766520746f20746865207a65726f206164647260008201527f6573730000000000000000000000000000000000000000000000000000000000602082015250565b6000616409602383614e56565b9150616414826163ad565b604082019050919050565b60006020820190508181036000830152616438816163fc565b9050919050565b600061644a82614f32565b915061645583614f32565b9250817fffffffffffffffffffffffffffffffffffffffffffffffffffffffffffffffff048311821515161561648e5761648d615c13565b5b828202905092915050565b7f4e487b7100000000000000000000000000000000000000000000000000000000600052603260045260246000fd5b60006164d382614f32565b915060008214156164e7576164e6615c13565b5b600182039050919050565b7f537472696e67733a20686578206c656e67746820696e73756666696369656e74600082015250565b6000616528602083614e56565b9150616533826164f2565b602082019050919050565b600060208201905081810360008301526165578161651b565b9050919050565b600061656982614f32565b91507fffffffffffffffffffffffffffffffffffffffffffffffffffffffffffffffff82141561659c5761659b615c13565b5b600182019050919050565b60006060820190506165bc60008301866153ab565b6165c96020830185615088565b6165d660408301846153ab565b949350505050565b7f4552433737373a206d696e7420746f20746865207a65726f2061646472657373600082015250565b6000616614602083614e56565b915061661f826165de565b602082019050919050565b6000602082019050818103600083015261664381616607565b9050919050565b7f4e487b7100000000000000000000000000000000000000000000000000000000600052603160045260246000fdfea264697066735822122051a61f861cb51eaa7222da5a3e23a00b4c9bf9e5193b00f06f9924cf5ab9ff5164736f6c634300080a0033",
  "linkReferences": {},
  "deployedLinkReferences": {}
}