{
  "_format": "hh-sol-artifact-1",
  "contractName": "BridgedPolygonNORI",
  "sourceName": "contracts/BridgedPolygonNORI.sol",
  "abi": [
    {
      "inputs": [],
      "stateMutability": "nonpayable",
      "type": "constructor"
    },
    {
      "anonymous": false,
      "inputs": [
        {
          "indexed": true,
          "internalType": "address",
          "name": "owner",
          "type": "address"
        },
        {
          "indexed": true,
          "internalType": "address",
          "name": "spender",
          "type": "address"
        },
        {
          "indexed": false,
          "internalType": "uint256",
          "name": "value",
          "type": "uint256"
        }
      ],
      "name": "Approval",
      "type": "event"
    },
    {
      "anonymous": false,
      "inputs": [
        {
          "indexed": false,
          "internalType": "uint8",
          "name": "version",
          "type": "uint8"
        }
      ],
      "name": "Initialized",
      "type": "event"
    },
    {
      "anonymous": false,
      "inputs": [
        {
          "indexed": false,
          "internalType": "address",
          "name": "account",
          "type": "address"
        }
      ],
      "name": "Paused",
      "type": "event"
    },
    {
      "anonymous": false,
      "inputs": [
        {
          "indexed": true,
          "internalType": "bytes32",
          "name": "role",
          "type": "bytes32"
        },
        {
          "indexed": true,
          "internalType": "bytes32",
          "name": "previousAdminRole",
          "type": "bytes32"
        },
        {
          "indexed": true,
          "internalType": "bytes32",
          "name": "newAdminRole",
          "type": "bytes32"
        }
      ],
      "name": "RoleAdminChanged",
      "type": "event"
    },
    {
      "anonymous": false,
      "inputs": [
        {
          "indexed": true,
          "internalType": "bytes32",
          "name": "role",
          "type": "bytes32"
        },
        {
          "indexed": true,
          "internalType": "address",
          "name": "account",
          "type": "address"
        },
        {
          "indexed": true,
          "internalType": "address",
          "name": "sender",
          "type": "address"
        }
      ],
      "name": "RoleGranted",
      "type": "event"
    },
    {
      "anonymous": false,
      "inputs": [
        {
          "indexed": true,
          "internalType": "bytes32",
          "name": "role",
          "type": "bytes32"
        },
        {
          "indexed": true,
          "internalType": "address",
          "name": "account",
          "type": "address"
        },
        {
          "indexed": true,
          "internalType": "address",
          "name": "sender",
          "type": "address"
        }
      ],
      "name": "RoleRevoked",
      "type": "event"
    },
    {
      "anonymous": false,
      "inputs": [
        {
          "indexed": true,
          "internalType": "address",
          "name": "from",
          "type": "address"
        },
        {
          "indexed": true,
          "internalType": "address",
          "name": "to",
          "type": "address"
        },
        {
          "indexed": false,
          "internalType": "uint256",
          "name": "value",
          "type": "uint256"
        }
      ],
      "name": "Transfer",
      "type": "event"
    },
    {
      "anonymous": false,
      "inputs": [
        {
          "indexed": false,
          "internalType": "address",
          "name": "account",
          "type": "address"
        }
      ],
      "name": "Unpaused",
      "type": "event"
    },
    {
      "inputs": [],
      "name": "DEFAULT_ADMIN_ROLE",
      "outputs": [
        {
          "internalType": "bytes32",
          "name": "",
          "type": "bytes32"
        }
      ],
      "stateMutability": "view",
      "type": "function"
    },
    {
      "inputs": [],
      "name": "DEPOSITOR_ROLE",
      "outputs": [
        {
          "internalType": "bytes32",
          "name": "",
          "type": "bytes32"
        }
      ],
      "stateMutability": "view",
      "type": "function"
    },
    {
      "inputs": [],
      "name": "DOMAIN_SEPARATOR",
      "outputs": [
        {
          "internalType": "bytes32",
          "name": "",
          "type": "bytes32"
        }
      ],
      "stateMutability": "view",
      "type": "function"
    },
    {
      "inputs": [],
      "name": "PAUSER_ROLE",
      "outputs": [
        {
          "internalType": "bytes32",
          "name": "",
          "type": "bytes32"
        }
      ],
      "stateMutability": "view",
      "type": "function"
    },
    {
      "inputs": [
        {
          "internalType": "address",
          "name": "owner",
          "type": "address"
        },
        {
          "internalType": "address",
          "name": "spender",
          "type": "address"
        }
      ],
      "name": "allowance",
      "outputs": [
        {
          "internalType": "uint256",
          "name": "",
          "type": "uint256"
        }
      ],
      "stateMutability": "view",
      "type": "function"
    },
    {
      "inputs": [
        {
          "internalType": "address",
          "name": "spender",
          "type": "address"
        },
        {
          "internalType": "uint256",
          "name": "amount",
          "type": "uint256"
        }
      ],
      "name": "approve",
      "outputs": [
        {
          "internalType": "bool",
          "name": "",
          "type": "bool"
        }
      ],
      "stateMutability": "nonpayable",
      "type": "function"
    },
    {
      "inputs": [
        {
          "internalType": "address",
          "name": "account",
          "type": "address"
        }
      ],
      "name": "balanceOf",
      "outputs": [
        {
          "internalType": "uint256",
          "name": "",
          "type": "uint256"
        }
      ],
      "stateMutability": "view",
      "type": "function"
    },
    {
      "inputs": [
        {
          "internalType": "uint256",
          "name": "amount",
          "type": "uint256"
        }
      ],
      "name": "burn",
      "outputs": [],
      "stateMutability": "nonpayable",
      "type": "function"
    },
    {
      "inputs": [
        {
          "internalType": "address",
          "name": "account",
          "type": "address"
        },
        {
          "internalType": "uint256",
          "name": "amount",
          "type": "uint256"
        }
      ],
      "name": "burnFrom",
      "outputs": [],
      "stateMutability": "nonpayable",
      "type": "function"
    },
    {
      "inputs": [],
      "name": "decimals",
      "outputs": [
        {
          "internalType": "uint8",
          "name": "",
          "type": "uint8"
        }
      ],
      "stateMutability": "view",
      "type": "function"
    },
    {
      "inputs": [
        {
          "internalType": "address",
          "name": "spender",
          "type": "address"
        },
        {
          "internalType": "uint256",
          "name": "subtractedValue",
          "type": "uint256"
        }
      ],
      "name": "decreaseAllowance",
      "outputs": [
        {
          "internalType": "bool",
          "name": "",
          "type": "bool"
        }
      ],
      "stateMutability": "nonpayable",
      "type": "function"
    },
    {
      "inputs": [
        {
          "internalType": "address",
          "name": "user",
          "type": "address"
        },
        {
          "internalType": "bytes",
          "name": "depositData",
          "type": "bytes"
        }
      ],
      "name": "deposit",
      "outputs": [],
      "stateMutability": "nonpayable",
      "type": "function"
    },
    {
      "inputs": [
        {
          "internalType": "bytes32",
          "name": "role",
          "type": "bytes32"
        }
      ],
      "name": "getRoleAdmin",
      "outputs": [
        {
          "internalType": "bytes32",
          "name": "",
          "type": "bytes32"
        }
      ],
      "stateMutability": "view",
      "type": "function"
    },
    {
      "inputs": [
        {
          "internalType": "bytes32",
          "name": "role",
          "type": "bytes32"
        },
        {
          "internalType": "uint256",
          "name": "index",
          "type": "uint256"
        }
      ],
      "name": "getRoleMember",
      "outputs": [
        {
          "internalType": "address",
          "name": "",
          "type": "address"
        }
      ],
      "stateMutability": "view",
      "type": "function"
    },
    {
      "inputs": [
        {
          "internalType": "bytes32",
          "name": "role",
          "type": "bytes32"
        }
      ],
      "name": "getRoleMemberCount",
      "outputs": [
        {
          "internalType": "uint256",
          "name": "",
          "type": "uint256"
        }
      ],
      "stateMutability": "view",
      "type": "function"
    },
    {
      "inputs": [
        {
          "internalType": "bytes32",
          "name": "role",
          "type": "bytes32"
        },
        {
          "internalType": "address",
          "name": "account",
          "type": "address"
        }
      ],
      "name": "grantRole",
      "outputs": [],
      "stateMutability": "nonpayable",
      "type": "function"
    },
    {
      "inputs": [
        {
          "internalType": "bytes32",
          "name": "role",
          "type": "bytes32"
        },
        {
          "internalType": "address",
          "name": "account",
          "type": "address"
        }
      ],
      "name": "hasRole",
      "outputs": [
        {
          "internalType": "bool",
          "name": "",
          "type": "bool"
        }
      ],
      "stateMutability": "view",
      "type": "function"
    },
    {
      "inputs": [
        {
          "internalType": "address",
          "name": "spender",
          "type": "address"
        },
        {
          "internalType": "uint256",
          "name": "addedValue",
          "type": "uint256"
        }
      ],
      "name": "increaseAllowance",
      "outputs": [
        {
          "internalType": "bool",
          "name": "",
          "type": "bool"
        }
      ],
      "stateMutability": "nonpayable",
      "type": "function"
    },
    {
      "inputs": [
        {
          "internalType": "address",
          "name": "childChainManagerProxy",
          "type": "address"
        }
      ],
      "name": "initialize",
      "outputs": [],
      "stateMutability": "nonpayable",
      "type": "function"
    },
    {
      "inputs": [
        {
          "internalType": "bytes[]",
          "name": "data",
          "type": "bytes[]"
        }
      ],
      "name": "multicall",
      "outputs": [
        {
          "internalType": "bytes[]",
          "name": "results",
          "type": "bytes[]"
        }
      ],
      "stateMutability": "nonpayable",
      "type": "function"
    },
    {
      "inputs": [],
      "name": "name",
      "outputs": [
        {
          "internalType": "string",
          "name": "",
          "type": "string"
        }
      ],
      "stateMutability": "view",
      "type": "function"
    },
    {
      "inputs": [
        {
          "internalType": "address",
          "name": "owner",
          "type": "address"
        }
      ],
      "name": "nonces",
      "outputs": [
        {
          "internalType": "uint256",
          "name": "",
          "type": "uint256"
        }
      ],
      "stateMutability": "view",
      "type": "function"
    },
    {
      "inputs": [],
      "name": "pause",
      "outputs": [],
      "stateMutability": "nonpayable",
      "type": "function"
    },
    {
      "inputs": [],
      "name": "paused",
      "outputs": [
        {
          "internalType": "bool",
          "name": "",
          "type": "bool"
        }
      ],
      "stateMutability": "view",
      "type": "function"
    },
    {
      "inputs": [
        {
          "internalType": "address",
          "name": "owner",
          "type": "address"
        },
        {
          "internalType": "address",
          "name": "spender",
          "type": "address"
        },
        {
          "internalType": "uint256",
          "name": "value",
          "type": "uint256"
        },
        {
          "internalType": "uint256",
          "name": "deadline",
          "type": "uint256"
        },
        {
          "internalType": "uint8",
          "name": "v",
          "type": "uint8"
        },
        {
          "internalType": "bytes32",
          "name": "r",
          "type": "bytes32"
        },
        {
          "internalType": "bytes32",
          "name": "s",
          "type": "bytes32"
        }
      ],
      "name": "permit",
      "outputs": [],
      "stateMutability": "nonpayable",
      "type": "function"
    },
    {
      "inputs": [
        {
          "internalType": "bytes32",
          "name": "role",
          "type": "bytes32"
        },
        {
          "internalType": "address",
          "name": "account",
          "type": "address"
        }
      ],
      "name": "renounceRole",
      "outputs": [],
      "stateMutability": "nonpayable",
      "type": "function"
    },
    {
      "inputs": [
        {
          "internalType": "bytes32",
          "name": "role",
          "type": "bytes32"
        },
        {
          "internalType": "address",
          "name": "account",
          "type": "address"
        }
      ],
      "name": "revokeRole",
      "outputs": [],
      "stateMutability": "nonpayable",
      "type": "function"
    },
    {
      "inputs": [
        {
          "internalType": "bytes4",
          "name": "interfaceId",
          "type": "bytes4"
        }
      ],
      "name": "supportsInterface",
      "outputs": [
        {
          "internalType": "bool",
          "name": "",
          "type": "bool"
        }
      ],
      "stateMutability": "view",
      "type": "function"
    },
    {
      "inputs": [],
      "name": "symbol",
      "outputs": [
        {
          "internalType": "string",
          "name": "",
          "type": "string"
        }
      ],
      "stateMutability": "view",
      "type": "function"
    },
    {
      "inputs": [],
      "name": "totalSupply",
      "outputs": [
        {
          "internalType": "uint256",
          "name": "",
          "type": "uint256"
        }
      ],
      "stateMutability": "view",
      "type": "function"
    },
    {
      "inputs": [
        {
          "internalType": "address",
          "name": "to",
          "type": "address"
        },
        {
          "internalType": "uint256",
          "name": "amount",
          "type": "uint256"
        }
      ],
      "name": "transfer",
      "outputs": [
        {
          "internalType": "bool",
          "name": "",
          "type": "bool"
        }
      ],
      "stateMutability": "nonpayable",
      "type": "function"
    },
    {
      "inputs": [
        {
          "internalType": "address",
          "name": "from",
          "type": "address"
        },
        {
          "internalType": "address",
          "name": "to",
          "type": "address"
        },
        {
          "internalType": "uint256",
          "name": "amount",
          "type": "uint256"
        }
      ],
      "name": "transferFrom",
      "outputs": [
        {
          "internalType": "bool",
          "name": "",
          "type": "bool"
        }
      ],
      "stateMutability": "nonpayable",
      "type": "function"
    },
    {
      "inputs": [],
      "name": "unpause",
      "outputs": [],
      "stateMutability": "nonpayable",
      "type": "function"
    },
    {
      "inputs": [
        {
          "internalType": "uint256",
          "name": "amount",
          "type": "uint256"
        }
      ],
      "name": "withdraw",
      "outputs": [],
      "stateMutability": "nonpayable",
      "type": "function"
    }
  ],
  "bytecode": "0x60808060405234620000c6576000549060ff8260081c1662000074575060ff8082161062000038575b604051613d8e9081620000cc8239f35b60ff90811916176000557f7f26b83ff96e1f2b6a682f133852f6798a09c465da95921460cefb3847402498602060405160ff8152a13862000028565b62461bcd60e51b815260206004820152602760248201527f496e697469616c697a61626c653a20636f6e747261637420697320696e697469604482015266616c697a696e6760c81b6064820152608490fd5b600080fdfe6080604090808252600436101561001557600080fd5b60003560e01c90816301ffc9a71461273e5750806306fdde0314612676578063095ea7b3146124bf57806318160ddd1461248257806323b872dd14612428578063248a9ca3146123db5780632e1a7d4d14611f515780632f2ff15d146122cd578063313ce567146122935780633644e5151461225157806336568abe146120d057806339509351146120535780633f4ba83a14611f5b57806342966c6814611f515780635c975abb14611f0e57806370a0823114611eaa57806379cc679014611e565780637ecebe0014611df25780638456cb5914611d575780639010d07c14611ce757806391d1485414611c7157806395d89b4114611b4c578063a217fddf14611b12578063a3b0b5a314611ab9578063a457c2d71461185e578063a9059cbb14611810578063ac9650d814611459578063c4d66de814610bb6578063ca15c87314610b6c578063cf2c52cb1461072f578063d505accf14610377578063d547741f14610269578063dd62ed3e146101f05763e63ab1e914610198575b600080fd5b346101935760007ffffffffffffffffffffffffffffffffffffffffffffffffffffffffffffffffc36011261019357602090517f65d7a28e3265b37a6474929f336521b332c1681b933f6cb9f3376673440d862a8152f35b503461019357807ffffffffffffffffffffffffffffffffffffffffffffffffffffffffffffffffc3601126101935760209061022a6128a5565b6102326128c8565b9073ffffffffffffffffffffffffffffffffffffffff80911660005260348452826000209116600052825280600020549051908152f35b503461019357807ffffffffffffffffffffffffffffffffffffffffffffffffffffffffffffffffc3601126101935760009061030f6004356101c66102ac6128c8565b91808652610194906020918083526102c96001888a200154612bc7565b6102d1613ad0565b81885280835273ffffffffffffffffffffffffffffffffffffffff878920951694858952835260ff8789205416610313575b50865252828420613bfe565b5051f35b818852825285872084885282528587207fffffffffffffffffffffffffffffffffffffffffffffffffffffffffffffff0081541690553384827ff6391f5c32d9c69d2a47ea670b442974b53935d1edc7fd64eb21e047a839171b8a8a51a438610303565b50346101935760e07ffffffffffffffffffffffffffffffffffffffffffffffffffffffffffffffffc360112610193576103af6128a5565b906103b86128c8565b6084359260443560643560ff86168603610193578042116106d25773ffffffffffffffffffffffffffffffffffffffff809316928360005260209660cb88528660002095865496600188019055875193838a8601927f6e71edae12b1b97f4d1f60370fef10105fa2faae0126114a169c64845d6126c98452888b880152169788606087015286608087015260a086015260c085015260c0845260e084019367ffffffffffffffff94818110868211176106a357895251902092610479613988565b8851948a8601917f1901000000000000000000000000000000000000000000000000000000000000835260228701526042860152604285526080850191858310908311176106a35786946104e5936104dd938b5260c4359260a435925190206138c6565b9190916136a1565b1603610646576104f3613ad0565b81156105c4578215610541576000947f8c5be1e5ebec7d5bd14f71427d1e84f3dd0314c0f7b2291e5b200ac8c7c3b9259183875260348252858720858852825280868820558551908152a351f35b6084858551907f08c379a00000000000000000000000000000000000000000000000000000000082526004820152602260248201527f45524332303a20617070726f766520746f20746865207a65726f20616464726560448201527f73730000000000000000000000000000000000000000000000000000000000006064820152fd5b6084858551907f08c379a000000000000000000000000000000000000000000000000000000000825260048201526024808201527f45524332303a20617070726f76652066726f6d20746865207a65726f2061646460448201527f72657373000000000000000000000000000000000000000000000000000000006064820152fd5b6064858551907f08c379a00000000000000000000000000000000000000000000000000000000082526004820152601e60248201527f45524332305065726d69743a20696e76616c6964207369676e617475726500006044820152fd5b7f4e487b7100000000000000000000000000000000000000000000000000000000600052604160045260246000fd5b606485517f08c379a000000000000000000000000000000000000000000000000000000000815260206004820152601d60248201527f45524332305065726d69743a206578706972656420646561646c696e650000006044820152fd5b503461019357807ffffffffffffffffffffffffffffffffffffffffffffffffffffffffffffffffc360112610193576107666128a5565b60249182359167ffffffffffffffff8084116101935736602385011215610193578360040135908111610193578301923685850111610193577f8f4f2da22e8ac8f11e15f9fc141cddbb5deea8800186560abb6e68c5496619a9938460005260209461019486528460002033600052865260ff856000205416156108cd57509381819694950312610193578273ffffffffffffffffffffffffffffffffffffffff910135911691821561087157507fddf252ad1be2c89b69c2b068fc378daa952ba7f163c4a11628f55a4df523b3ef6000948592610842613ad0565b61084e81603554612dd0565b60355584845260338252858420610866828254612dd0565b90558551908152a351f35b84601f6064928651927f08c379a000000000000000000000000000000000000000000000000000000000845260048401528201527f45524332303a206d696e7420746f20746865207a65726f2061646472657373006044820152fd5b925050506108da3361351b565b9082516108e681612d20565b60428152848101916060368437815115610b3e57603083538151600190811015610b1057607860218401536041905b808211610a455750506109ea5760486109a39385936109b2936109e697519687937f416363657373436f6e74726f6c3a206163636f756e74200000000000000000008b86015261096e815180928d60378901910161282d565b8401917f206973206d697373696e6720726f6c652000000000000000000000000000000060378401525180938684019061282d565b01036028810185520183612d3c565b519384937f08c379a00000000000000000000000000000000000000000000000000000000085526004850152830190612862565b0390fd5b606486868651917f08c379a00000000000000000000000000000000000000000000000000000000083528160048401528201527f537472696e67733a20686578206c656e67746820696e73756666696369656e746044820152fd5b9091600f81166010811015610ae2577f3031323334353637383961626364656600000000000000000000000000000000901a610a81848661350a565b5360041c918015610ab4577fffffffffffffffffffffffffffffffffffffffffffffffffffffffffffffffff0190610915565b887f4e487b710000000000000000000000000000000000000000000000000000000060005260116004526000fd5b897f4e487b710000000000000000000000000000000000000000000000000000000060005260326004526000fd5b877f4e487b710000000000000000000000000000000000000000000000000000000060005260326004526000fd5b867f4e487b710000000000000000000000000000000000000000000000000000000060005260326004526000fd5b50346101935760207ffffffffffffffffffffffffffffffffffffffffffffffffffffffffffffffffc360112610193576020906004356000526101c6825280600020549051908152f35b50346101935760207ffffffffffffffffffffffffffffffffffffffffffffffffffffffffffffffffc36011261019357610bee6128a5565b9060005460ff8160081c16159081809261144c575b8015611435575b156113b2578160017fffffffffffffffffffffffffffffffffffffffffffffffffffffffffffffff00831617600055611383575b5060ff60005460081c1692610c5284613a45565b610c5b84613a45565b610c6484613a45565b610c6d84613a45565b610c7684613a45565b6101307fffffffffffffffffffffffffffffffffffffffffffffffffffffffffffffff008154169055610ca7613a0c565b835190610cb382612d04565b6001825260208201907f31000000000000000000000000000000000000000000000000000000000000008252610ce887613a45565b602081519101209151902090609755609855610d02613a0c565b610d13610d0d613a0c565b95613a45565b80519067ffffffffffffffff82116106a3578190610d32603654612d7d565b601f81116112d6575b50602090601f83116001146112155760009261120a575b50507fffffffffffffffffffffffffffffffffffffffffffffffffffffffffffffffff8260011b9260031b1c1916176036555b835167ffffffffffffffff81116106a357610da1603754612d7d565b601f81116111a5575b506020601f82116001146110de579080610f3d939260009788926110d3575b50507fffffffffffffffffffffffffffffffffffffffffffffffffffffffffffffffff8260011b9260031b1c1916176037555b610e04613a0c565b50610e2760ff865460081c16610e1981613a45565b610e2281613a45565b613a45565b610e2f613ad0565b8480526101948060205284862033875260205260ff85872054161561106a575b8580526101c69081602052610e6633878920613b3b565b50610e6f613ad0565b7f65d7a28e3265b37a6474929f336521b332c1681b933f6cb9f3376673440d862a8088528160205286882033895260205260ff878920541615611001575b875281602052610ebf33878920613b3b565b50610ed060ff885460081c16613a45565b610ed8613ad0565b7f8f4f2da22e8ac8f11e15f9fc141cddbb5deea8800186560abb6e68c5496619a9908188528060205273ffffffffffffffffffffffffffffffffffffffff87892094169384895260205260ff878920541615610f98575b508652602052838520613b3b565b50610f455751f35b7fffffffffffffffffffffffffffffffffffffffffffffffffffffffffffff00ff82541682557f7f26b83ff96e1f2b6a682f133852f6798a09c465da95921460cefb38474024986020825160018152a151f35b81885260205285872083885260205285872060017fffffffffffffffffffffffffffffffffffffffffffffffffffffffffffffff008254161790553383827f2f8788117e7eff1d82e926ec794901d17c78024a50270940304540a733656f0d8a8a51a438610f2f565b8088528160205286882033895260205286882060017fffffffffffffffffffffffffffffffffffffffffffffffffffffffffffffff008254161790553333827f2f8788117e7eff1d82e926ec794901d17c78024a50270940304540a733656f0d8b8b51a4610ead565b8580528060205284862033875260205284862060017fffffffffffffffffffffffffffffffffffffffffffffffffffffffffffffff008254161790553333877f2f8788117e7eff1d82e926ec794901d17c78024a50270940304540a733656f0d818951a4610e4f565b015190503880610dc9565b7fffffffffffffffffffffffffffffffffffffffffffffffffffffffffffffffe082169560376000527f42a7b7dd785cd69714a189dffb3fd7d7174edc9ece837694ce50f7078f7c31ae9660005b81811061118d5750966001928492610f3d969560009a10611156575b505050811b01603755610dfc565b01517fffffffffffffffffffffffffffffffffffffffffffffffffffffffffffffffff60f88460031b161c19169055388080611148565b8383015189556001909801976020938401930161112c565b60376000527f42a7b7dd785cd69714a189dffb3fd7d7174edc9ece837694ce50f7078f7c31ae601f830160051c81019160208410611200575b601f0160051c01905b8181106111f45750610daa565b600081556001016111e7565b90915081906111de565b015190503880610d52565b917fffffffffffffffffffffffffffffffffffffffffffffffffffffffffffffffe0169160366000527f4a11f94e20a93c79f6ec743a1954ec4fc2c08429ae2122118bf234b2185c81b89260005b8181106112be5750908460019594939210611287575b505050811b01603655610d85565b01517fffffffffffffffffffffffffffffffffffffffffffffffffffffffffffffffff60f88460031b161c19169055388080611279565b92936020600181928786015181550195019301611263565b9091506036600052601f830160051c7f4a11f94e20a93c79f6ec743a1954ec4fc2c08429ae2122118bf234b2185c81b801906020841061135b575b90601f8493920160051c7f4a11f94e20a93c79f6ec743a1954ec4fc2c08429ae2122118bf234b2185c81b801905b81811061134c5750610d3b565b6000815584935060010161133f565b7f4a11f94e20a93c79f6ec743a1954ec4fc2c08429ae2122118bf234b2185c81b89150611311565b7fffffffffffffffffffffffffffffffffffffffffffffffffffffffffffff0000166101011760005538610c3e565b608483517f08c379a000000000000000000000000000000000000000000000000000000000815260206004820152602e60248201527f496e697469616c697a61626c653a20636f6e747261637420697320616c72656160448201527f647920696e697469616c697a65640000000000000000000000000000000000006064820152fd5b50303b158015610c0a5750600160ff821614610c0a565b50600160ff821610610c03565b5034610193576020807ffffffffffffffffffffffffffffffffffffffffffffffffffffffffffffffffc3601126101935760043567ffffffffffffffff9283821161019357366023830112156101935781600401359184831161019357602490600595368386891b84010111610193576114d785929596949661341b565b946114e487519687612d3c565b8286527fffffffffffffffffffffffffffffffffffffffffffffffffffffffffffffffe06115118461341b565b0160005b8181106118015750506000907fffffffffffffffffffffffffffffffffffffffffffffffffffffffffffffffbd81360301915b8481106115cc575050505050508251928180850191818652845180935282818701971b8601019301916000955b8287106115825785850386f35b9091929382806115bc837fffffffffffffffffffffffffffffffffffffffffffffffffffffffffffffffc08a600196030186528851612862565b9601920196019592919092611575565b85818b9a989a1b8301013583811215610193578201868101358581116101935760448083019180360383136101935761160481613433565b926116118c519485612d3c565b8184528d8401948383369201011161019357816000928f92873784010152303b15611780575060009182915190305af43d15611779573d61165181613433565b9061165e8a519283612d3c565b81523d60008c83013e5b885191606083018381108882111761174b578a52602783527f416464726573733a206c6f772d6c6576656c2064656c65676174652063616c6c8c8401527f206661696c6564000000000000000000000000000000000000000000000000008a8401526116d59291906134b0565b6116df828a61346d565b526116ea818961346d565b507fffffffffffffffffffffffffffffffffffffffffffffffffffffffffffffffff811461171d57600101979597611548565b857f4e487b710000000000000000000000000000000000000000000000000000000060005260116004526000fd5b897f4e487b710000000000000000000000000000000000000000000000000000000060005260416004526000fd5b6060611668565b8b7f416464726573733a2064656c65676174652063616c6c20746f206e6f6e2d636f60849260268c8e51947f08c379a000000000000000000000000000000000000000000000000000000000865260048601528401528201527f6e747261637400000000000000000000000000000000000000000000000000006064820152fd5b60608882018801528601611515565b503461019357807ffffffffffffffffffffffffffffffffffffffffffffffffffffffffffffffffc3601126101935760209061185761184d6128a5565b6024359033612e0b565b5160018152f35b503461019357807ffffffffffffffffffffffffffffffffffffffffffffffffffffffffffffffffc360112610193576118956128a5565b9060243591336000526020926034845273ffffffffffffffffffffffffffffffffffffffff836000209216918260005284528260002054818110611a3657036118dc613ad0565b33156119b45781156119315733600052603484528260002082600052845280836000205582519081527f8c5be1e5ebec7d5bd14f71427d1e84f3dd0314c0f7b2291e5b200ac8c7c3b925843392a35160018152f35b6084848451907f08c379a00000000000000000000000000000000000000000000000000000000082526004820152602260248201527f45524332303a20617070726f766520746f20746865207a65726f20616464726560448201527f73730000000000000000000000000000000000000000000000000000000000006064820152fd5b6084848451907f08c379a000000000000000000000000000000000000000000000000000000000825260048201526024808201527f45524332303a20617070726f76652066726f6d20746865207a65726f2061646460448201527f72657373000000000000000000000000000000000000000000000000000000006064820152fd5b6084858551907f08c379a00000000000000000000000000000000000000000000000000000000082526004820152602560248201527f45524332303a2064656372656173656420616c6c6f77616e63652062656c6f7760448201527f207a65726f0000000000000000000000000000000000000000000000000000006064820152fd5b50346101935760007ffffffffffffffffffffffffffffffffffffffffffffffffffffffffffffffffc36011261019357602090517f8f4f2da22e8ac8f11e15f9fc141cddbb5deea8800186560abb6e68c5496619a98152f35b50346101935760007ffffffffffffffffffffffffffffffffffffffffffffffffffffffffffffffffc360112610193576020905160008152f35b50346101935760007ffffffffffffffffffffffffffffffffffffffffffffffffffffffffffffffffc360112610193578051600091603754611b8d81612d7d565b80845290600190818116908115611c2b5750600114611bce575b5050611bb882611bca940383612d3c565b51918291602083526020830190612862565b0390f35b6037600090815294507f42a7b7dd785cd69714a189dffb3fd7d7174edc9ece837694ce50f7078f7c31ae5b828610611c135750505091810160200191611bb882611ba7565b80546020878701810191909152909501948101611bf9565b611bca965085925060209150927fffffffffffffffffffffffffffffffffffffffffffffffffffffffffffffff00611bb8941682840152151560051b8201019450611ba7565b503461019357807ffffffffffffffffffffffffffffffffffffffffffffffffffffffffffffffffc36011261019357602090611cab6128c8565b600435600052610194835273ffffffffffffffffffffffffffffffffffffffff826000209116600052825260ff81600020541690519015158152f35b503461019357807ffffffffffffffffffffffffffffffffffffffffffffffffffffffffffffffffc360112610193576020906004356000526101c6825273ffffffffffffffffffffffffffffffffffffffff611d48602435836000206139f4565b92905490519260031b1c168152f35b50346101935760007ffffffffffffffffffffffffffffffffffffffffffffffffffffffffffffffffc36011261019357600090611d92612929565b611d9a613ad0565b61013060017fffffffffffffffffffffffffffffffffffffffffffffffffffffffffffffff008254161790557f62e78cea01bee320cd4e420270b5ea74000d11b0c9f74754ebdbfc544b05a25860208251338152a151f35b50346101935760207ffffffffffffffffffffffffffffffffffffffffffffffffffffffffffffffffc3601126101935760209073ffffffffffffffffffffffffffffffffffffffff611e426128a5565b1660005260cb825280600020549051908152f35b503461019357807ffffffffffffffffffffffffffffffffffffffffffffffffffffffffffffffffc36011261019357600090611ea7611e936128a5565b60243590611ea282338361302b565b61325e565b51f35b50346101935760207ffffffffffffffffffffffffffffffffffffffffffffffffffffffffffffffffc3601126101935760209073ffffffffffffffffffffffffffffffffffffffff611efa6128a5565b166000526033825280600020549051908152f35b50346101935760007ffffffffffffffffffffffffffffffffffffffffffffffffffffffffffffffffc3601126101935760209060ff610130541690519015158152f35b50506101936128eb565b50346101935760007ffffffffffffffffffffffffffffffffffffffffffffffffffffffffffffffffc36011261019357611f93612929565b6101309081549160ff831615611ff6577fffffffffffffffffffffffffffffffffffffffffffffffffffffffffffffff006000931690557f5db9ee0a495bf2e6ff9c91a7834c1ba4fdd244a5e8aa4e537bd38aeae4b073aa60208251338152a151f35b606482517f08c379a000000000000000000000000000000000000000000000000000000000815260206004820152601460248201527f5061757361626c653a206e6f74207061757365640000000000000000000000006044820152fd5b503461019357807ffffffffffffffffffffffffffffffffffffffffffffffffffffffffffffffffc3601126101935761208a6128a5565b90336000526020916034835273ffffffffffffffffffffffffffffffffffffffff826000209116908160005283526120c86024358360002054612dd0565b6118dc613ad0565b503461019357807ffffffffffffffffffffffffffffffffffffffffffffffffffffffffffffffffc360112610193576004359073ffffffffffffffffffffffffffffffffffffffff6121206128c8565b16913383036121ce5760009261030f91612138613ad0565b8085526101948060205284862083875260205260ff8587205416612168575b5084526101c6602052828420613bfe565b8186526020528385208286526020528385207fffffffffffffffffffffffffffffffffffffffffffffffffffffffffffffff0081541690553382827ff6391f5c32d9c69d2a47ea670b442974b53935d1edc7fd64eb21e047a839171b888851a438612157565b608482517f08c379a000000000000000000000000000000000000000000000000000000000815260206004820152602f60248201527f416363657373436f6e74726f6c3a2063616e206f6e6c792072656e6f756e636560448201527f20726f6c657320666f722073656c6600000000000000000000000000000000006064820152fd5b50346101935760007ffffffffffffffffffffffffffffffffffffffffffffffffffffffffffffffffc3601126101935760209061228c613988565b9051908152f35b50346101935760007ffffffffffffffffffffffffffffffffffffffffffffffffffffffffffffffffc360112610193576020905160128152f35b503461019357807ffffffffffffffffffffffffffffffffffffffffffffffffffffffffffffffffc3601126101935760009061030f6004356101c66123106128c8565b918086526101949060209180835261232d6001888a200154612bc7565b612335613ad0565b81885280835273ffffffffffffffffffffffffffffffffffffffff878920951694858952835260ff878920541615612374575b50865252828420613b3b565b8188528252858720848852825285872060017fffffffffffffffffffffffffffffffffffffffffffffffffffffffffffffff008254161790553384827f2f8788117e7eff1d82e926ec794901d17c78024a50270940304540a733656f0d8a8a51a438612368565b50346101935760207ffffffffffffffffffffffffffffffffffffffffffffffffffffffffffffffffc36011261019357602090600435600052610194825260018160002001549051908152f35b50346101935760607ffffffffffffffffffffffffffffffffffffffffffffffffffffffffffffffffc360112610193576020906118576124666128a5565b61246e6128c8565b6044359161247d83338361302b565b612e0b565b50346101935760007ffffffffffffffffffffffffffffffffffffffffffffffffffffffffffffffffc360112610193576020906035549051908152f35b503461019357807ffffffffffffffffffffffffffffffffffffffffffffffffffffffffffffffffc360112610193576124f66128a5565b9060243591612503613ad0565b33156125f45773ffffffffffffffffffffffffffffffffffffffff1680156125715760209233600052603484528260002082600052845280836000205582519081527f8c5be1e5ebec7d5bd14f71427d1e84f3dd0314c0f7b2291e5b200ac8c7c3b925843392a35160018152f35b608482517f08c379a000000000000000000000000000000000000000000000000000000000815260206004820152602260248201527f45524332303a20617070726f766520746f20746865207a65726f20616464726560448201527f73730000000000000000000000000000000000000000000000000000000000006064820152fd5b608482517f08c379a0000000000000000000000000000000000000000000000000000000008152602060048201526024808201527f45524332303a20617070726f76652066726f6d20746865207a65726f2061646460448201527f72657373000000000000000000000000000000000000000000000000000000006064820152fd5b50346101935760007ffffffffffffffffffffffffffffffffffffffffffffffffffffffffffffffffc3601126101935780516000916036546126b781612d7d565b80845290600190818116908115611c2b57506001146126e1575050611bb882611bca940383612d3c565b6036600090815294507f4a11f94e20a93c79f6ec743a1954ec4fc2c08429ae2122118bf234b2185c81b85b8286106127265750505091810160200191611bb882611ba7565b8054602087870181019190915290950194810161270c565b346101935760207ffffffffffffffffffffffffffffffffffffffffffffffffffffffffffffffffc36011261019357600435907fffffffff00000000000000000000000000000000000000000000000000000000821680920361019357817f5a05180f00000000000000000000000000000000000000000000000000000000602093149081156127d0575b5015158152f35b7f7965db0b00000000000000000000000000000000000000000000000000000000811491508115612803575b50836127c9565b7f01ffc9a700000000000000000000000000000000000000000000000000000000915014836127fc565b918091926000905b82821061284d575011612846575050565b6000910152565b91508060209183015181860152018291612835565b907fffffffffffffffffffffffffffffffffffffffffffffffffffffffffffffffe0601f60209361289e8151809281875287808801910161282d565b0116010190565b6004359073ffffffffffffffffffffffffffffffffffffffff8216820361019357565b6024359073ffffffffffffffffffffffffffffffffffffffff8216820361019357565b50346101935760207ffffffffffffffffffffffffffffffffffffffffffffffffffffffffffffffffc360112610193576129276004353361325e565b005b3360009081527f412e7e500d019dabc6dc47c877d526993730edaac2dbc56d1f358eb6078745a0602090815260408083205490927f65d7a28e3265b37a6474929f336521b332c1681b933f6cb9f3376673440d862a9160ff161561298d5750505050565b6129963361351b565b918451906129a382612d20565b60428252848201926060368537825115612b9a5760308453825190600191821015612b9a5790607860218501536041915b818311612acf57505050612a735760486109e6938693612a3d93612a2e98519889937f416363657373436f6e74726f6c3a206163636f756e74200000000000000000008a86015261096e815180928c60378901910161282d565b01036028810187520185612d3c565b519283927f08c379a000000000000000000000000000000000000000000000000000000000845260048401526024830190612862565b6064848651907f08c379a000000000000000000000000000000000000000000000000000000000825280600483015260248201527f537472696e67733a20686578206c656e67746820696e73756666696369656e746044820152fd5b909192600f81166010811015612b6d577f3031323334353637383961626364656600000000000000000000000000000000901a612b0c858761350a565b5360041c928015612b40577fffffffffffffffffffffffffffffffffffffffffffffffffffffffffffffffff0191906129d4565b6024827f4e487b710000000000000000000000000000000000000000000000000000000081526011600452fd5b6024837f4e487b710000000000000000000000000000000000000000000000000000000081526032600452fd5b807f4e487b7100000000000000000000000000000000000000000000000000000000602492526032600452fd5b6000908082526020906101948252604092838120338252835260ff848220541615612bf25750505050565b612bfb3361351b565b91845190612c0882612d20565b60428252848201926060368537825115612b9a5760308453825190600191821015612b9a5790607860218501536041915b818311612c9357505050612a735760486109e6938693612a3d93612a2e98519889937f416363657373436f6e74726f6c3a206163636f756e74200000000000000000008a86015261096e815180928c60378901910161282d565b909192600f81166010811015612b6d577f3031323334353637383961626364656600000000000000000000000000000000901a612cd0858761350a565b5360041c928015612b40577fffffffffffffffffffffffffffffffffffffffffffffffffffffffffffffffff019190612c39565b6040810190811067ffffffffffffffff8211176106a357604052565b6080810190811067ffffffffffffffff8211176106a357604052565b90601f7fffffffffffffffffffffffffffffffffffffffffffffffffffffffffffffffe0910116810190811067ffffffffffffffff8211176106a357604052565b90600182811c92168015612dc6575b6020831014612d9757565b7f4e487b7100000000000000000000000000000000000000000000000000000000600052602260045260246000fd5b91607f1691612d8c565b81198111612ddc570190565b7f4e487b7100000000000000000000000000000000000000000000000000000000600052601160045260246000fd5b73ffffffffffffffffffffffffffffffffffffffff809116918215612fa75716918215612f2357612e3a613ad0565b60008281526033602052604081205491808310612e9f57604082827fddf252ad1be2c89b69c2b068fc378daa952ba7f163c4a11628f55a4df523b3ef95876020965260338652038282205586815220612e94828254612dd0565b9055604051908152a3565b60846040517f08c379a000000000000000000000000000000000000000000000000000000000815260206004820152602660248201527f45524332303a207472616e7366657220616d6f756e742065786365656473206260448201527f616c616e636500000000000000000000000000000000000000000000000000006064820152fd5b60846040517f08c379a000000000000000000000000000000000000000000000000000000000815260206004820152602360248201527f45524332303a207472616e7366657220746f20746865207a65726f206164647260448201527f65737300000000000000000000000000000000000000000000000000000000006064820152fd5b60846040517f08c379a000000000000000000000000000000000000000000000000000000000815260206004820152602560248201527f45524332303a207472616e736665722066726f6d20746865207a65726f20616460448201527f64726573730000000000000000000000000000000000000000000000000000006064820152fd5b909173ffffffffffffffffffffffffffffffffffffffff80921691600090838252602092603484526040918284209616958684528452818320547fffffffffffffffffffffffffffffffffffffffffffffffffffffffffffffffff8103613096575b50505050505050565b8181106132015703916130a7613ad0565b841561317f5785156130fc5790828183877f8c5be1e5ebec7d5bd14f71427d1e84f3dd0314c0f7b2291e5b200ac8c7c3b92597969552603486528181208982528652205551908152a33880808080808061308d565b6084848351907f08c379a00000000000000000000000000000000000000000000000000000000082526004820152602260248201527f45524332303a20617070726f766520746f20746865207a65726f20616464726560448201527f73730000000000000000000000000000000000000000000000000000000000006064820152fd5b6084848351907f08c379a000000000000000000000000000000000000000000000000000000000825260048201526024808201527f45524332303a20617070726f76652066726f6d20746865207a65726f2061646460448201527f72657373000000000000000000000000000000000000000000000000000000006064820152fd5b6064858451907f08c379a00000000000000000000000000000000000000000000000000000000082526004820152601d60248201527f45524332303a20696e73756666696369656e7420616c6c6f77616e63650000006044820152fd5b73ffffffffffffffffffffffffffffffffffffffff16801561339757613282613ad0565b6000918183526033602052604083205481811061331357819083855260336020520360408420556035548181106132e657817fddf252ad1be2c89b69c2b068fc378daa952ba7f163c4a11628f55a4df523b3ef9260209203603555604051908152a3565b6024847f4e487b710000000000000000000000000000000000000000000000000000000081526011600452fd5b60846040517f08c379a000000000000000000000000000000000000000000000000000000000815260206004820152602260248201527f45524332303a206275726e20616d6f756e7420657863656564732062616c616e60448201527f63650000000000000000000000000000000000000000000000000000000000006064820152fd5b60846040517f08c379a000000000000000000000000000000000000000000000000000000000815260206004820152602160248201527f45524332303a206275726e2066726f6d20746865207a65726f2061646472657360448201527f73000000000000000000000000000000000000000000000000000000000000006064820152fd5b67ffffffffffffffff81116106a35760051b60200190565b67ffffffffffffffff81116106a357601f017fffffffffffffffffffffffffffffffffffffffffffffffffffffffffffffffe01660200190565b80518210156134815760209160051b010190565b7f4e487b7100000000000000000000000000000000000000000000000000000000600052603260045260246000fd5b909190156134bc575090565b8151156134cc5750805190602001fd5b6109e6906040519182917f08c379a0000000000000000000000000000000000000000000000000000000008352602060048401526024830190612862565b908151811015613481570160200190565b604051906060820182811067ffffffffffffffff8211176106a357604052602a82526020820160403682378251156134815760309053815160019081101561348157607860218401536029905b8082116135d65750506135785790565b60646040517f08c379a000000000000000000000000000000000000000000000000000000000815260206004820152602060248201527f537472696e67733a20686578206c656e67746820696e73756666696369656e746044820152fd5b9091600f81166010811015613673577f3031323334353637383961626364656600000000000000000000000000000000901a613612848661350a565b5360041c918015613645577fffffffffffffffffffffffffffffffffffffffffffffffffffffffffffffffff0190613568565b602460007f4e487b710000000000000000000000000000000000000000000000000000000081526011600452fd5b602460007f4e487b710000000000000000000000000000000000000000000000000000000081526032600452fd5b600581101561389757806136b25750565b600181036137185760646040517f08c379a000000000000000000000000000000000000000000000000000000000815260206004820152601860248201527f45434453413a20696e76616c6964207369676e617475726500000000000000006044820152fd5b6002810361377e5760646040517f08c379a000000000000000000000000000000000000000000000000000000000815260206004820152601f60248201527f45434453413a20696e76616c6964207369676e6174757265206c656e677468006044820152fd5b6003810361380a5760846040517f08c379a000000000000000000000000000000000000000000000000000000000815260206004820152602260248201527f45434453413a20696e76616c6964207369676e6174757265202773272076616c60448201527f75650000000000000000000000000000000000000000000000000000000000006064820152fd5b60041461381357565b60846040517f08c379a000000000000000000000000000000000000000000000000000000000815260206004820152602260248201527f45434453413a20696e76616c6964207369676e6174757265202776272076616c60448201527f75650000000000000000000000000000000000000000000000000000000000006064820152fd5b7f4e487b7100000000000000000000000000000000000000000000000000000000600052602160045260246000fd5b9291907f7fffffffffffffffffffffffffffffff5d576e7357a4501ddfe92f46681b20a0831161397c5760ff16601b81141580613971575b613965579160809493916020936040519384528484015260408301526060820152600093849182805260015afa1561395857815173ffffffffffffffffffffffffffffffffffffffff811615613952579190565b50600190565b50604051903d90823e3d90fd5b50505050600090600490565b50601c8114156138fe565b50505050600090600390565b6097546098546040519060208201927f8b73c3c69bb8fe3d512ecc4cf759cc79239f7b179b0ffacaa9a75d522b39400f8452604083015260608201524660808201523060a082015260a0815260c0810181811067ffffffffffffffff8211176106a35760405251902090565b80548210156134815760005260206000200190600090565b60405190613a1982612d04565b600482527f4e4f5249000000000000000000000000000000000000000000000000000000006020830152565b15613a4c57565b60846040517f08c379a000000000000000000000000000000000000000000000000000000000815260206004820152602b60248201527f496e697469616c697a61626c653a20636f6e7472616374206973206e6f74206960448201527f6e697469616c697a696e670000000000000000000000000000000000000000006064820152fd5b60ff6101305416613add57565b60646040517f08c379a000000000000000000000000000000000000000000000000000000000815260206004820152601060248201527f5061757361626c653a20706175736564000000000000000000000000000000006044820152fd5b91906001830160009082825280602052604082205415600014613bf85784549468010000000000000000861015613bcb5783613bbb613b84886001604098999a018555846139f4565b819391549060031b7fffffffffffffffffffffffffffffffffffffffffffffffffffffffffffffffff811b9283911b169119161790565b9055549382526020522055600190565b6024837f4e487b710000000000000000000000000000000000000000000000000000000081526041600452fd5b50925050565b90600182019060009281845282602052604084205490811515600014613d515760018210613d24577fffffffffffffffffffffffffffffffffffffffffffffffffffffffffffffffff91828101825460018110613cf757840190808203613cc2575b50505080548015613c9557820191613c7883836139f4565b909182549160031b1b191690555582526020526040812055600190565b6024867f4e487b710000000000000000000000000000000000000000000000000000000081526031600452fd5b613ce2613cd2613b8493866139f4565b90549060031b1c928392866139f4565b90558652846020526040862055388080613c60565b6024887f4e487b710000000000000000000000000000000000000000000000000000000081526011600452fd5b6024857f4e487b710000000000000000000000000000000000000000000000000000000081526011600452fd5b505050509056fea2646970667358221220ef60896f09593e6b5d55ae486691ae6bee504371b98ae9e64fe6a67b3c6df4db64736f6c634300080f0033",
  "linkReferences": {},
  "deployedLinkReferences": {}
}