{
  "_format": "hh-sol-artifact-1",
  "contractName": "BridgedPolygonNORI",
  "sourceName": "contracts/BridgedPolygonNORI.sol",
  "abi": [
    {
      "inputs": [],
      "stateMutability": "nonpayable",
      "type": "constructor"
    },
    {
      "anonymous": false,
      "inputs": [
        {
          "indexed": true,
          "internalType": "address",
          "name": "owner",
          "type": "address"
        },
        {
          "indexed": true,
          "internalType": "address",
          "name": "spender",
          "type": "address"
        },
        {
          "indexed": false,
          "internalType": "uint256",
          "name": "value",
          "type": "uint256"
        }
      ],
      "name": "Approval",
      "type": "event"
    },
    {
      "anonymous": false,
      "inputs": [
        {
          "indexed": false,
          "internalType": "uint8",
          "name": "version",
          "type": "uint8"
        }
      ],
      "name": "Initialized",
      "type": "event"
    },
    {
      "anonymous": false,
      "inputs": [
        {
          "indexed": false,
          "internalType": "address",
          "name": "account",
          "type": "address"
        }
      ],
      "name": "Paused",
      "type": "event"
    },
    {
      "anonymous": false,
      "inputs": [
        {
          "indexed": true,
          "internalType": "bytes32",
          "name": "role",
          "type": "bytes32"
        },
        {
          "indexed": true,
          "internalType": "bytes32",
          "name": "previousAdminRole",
          "type": "bytes32"
        },
        {
          "indexed": true,
          "internalType": "bytes32",
          "name": "newAdminRole",
          "type": "bytes32"
        }
      ],
      "name": "RoleAdminChanged",
      "type": "event"
    },
    {
      "anonymous": false,
      "inputs": [
        {
          "indexed": true,
          "internalType": "bytes32",
          "name": "role",
          "type": "bytes32"
        },
        {
          "indexed": true,
          "internalType": "address",
          "name": "account",
          "type": "address"
        },
        {
          "indexed": true,
          "internalType": "address",
          "name": "sender",
          "type": "address"
        }
      ],
      "name": "RoleGranted",
      "type": "event"
    },
    {
      "anonymous": false,
      "inputs": [
        {
          "indexed": true,
          "internalType": "bytes32",
          "name": "role",
          "type": "bytes32"
        },
        {
          "indexed": true,
          "internalType": "address",
          "name": "account",
          "type": "address"
        },
        {
          "indexed": true,
          "internalType": "address",
          "name": "sender",
          "type": "address"
        }
      ],
      "name": "RoleRevoked",
      "type": "event"
    },
    {
      "anonymous": false,
      "inputs": [
        {
          "indexed": true,
          "internalType": "address",
          "name": "from",
          "type": "address"
        },
        {
          "indexed": true,
          "internalType": "address",
          "name": "to",
          "type": "address"
        },
        {
          "indexed": false,
          "internalType": "uint256",
          "name": "value",
          "type": "uint256"
        }
      ],
      "name": "Transfer",
      "type": "event"
    },
    {
      "anonymous": false,
      "inputs": [
        {
          "indexed": false,
          "internalType": "address",
          "name": "account",
          "type": "address"
        }
      ],
      "name": "Unpaused",
      "type": "event"
    },
    {
      "inputs": [],
      "name": "DEFAULT_ADMIN_ROLE",
      "outputs": [
        {
          "internalType": "bytes32",
          "name": "",
          "type": "bytes32"
        }
      ],
      "stateMutability": "view",
      "type": "function"
    },
    {
      "inputs": [],
      "name": "DEPOSITOR_ROLE",
      "outputs": [
        {
          "internalType": "bytes32",
          "name": "",
          "type": "bytes32"
        }
      ],
      "stateMutability": "view",
      "type": "function"
    },
    {
      "inputs": [],
      "name": "DOMAIN_SEPARATOR",
      "outputs": [
        {
          "internalType": "bytes32",
          "name": "",
          "type": "bytes32"
        }
      ],
      "stateMutability": "view",
      "type": "function"
    },
    {
      "inputs": [],
      "name": "PAUSER_ROLE",
      "outputs": [
        {
          "internalType": "bytes32",
          "name": "",
          "type": "bytes32"
        }
      ],
      "stateMutability": "view",
      "type": "function"
    },
    {
      "inputs": [
        {
          "internalType": "address",
          "name": "owner",
          "type": "address"
        },
        {
          "internalType": "address",
          "name": "spender",
          "type": "address"
        }
      ],
      "name": "allowance",
      "outputs": [
        {
          "internalType": "uint256",
          "name": "",
          "type": "uint256"
        }
      ],
      "stateMutability": "view",
      "type": "function"
    },
    {
      "inputs": [
        {
          "internalType": "address",
          "name": "spender",
          "type": "address"
        },
        {
          "internalType": "uint256",
          "name": "amount",
          "type": "uint256"
        }
      ],
      "name": "approve",
      "outputs": [
        {
          "internalType": "bool",
          "name": "",
          "type": "bool"
        }
      ],
      "stateMutability": "nonpayable",
      "type": "function"
    },
    {
      "inputs": [
        {
          "internalType": "address",
          "name": "account",
          "type": "address"
        }
      ],
      "name": "balanceOf",
      "outputs": [
        {
          "internalType": "uint256",
          "name": "",
          "type": "uint256"
        }
      ],
      "stateMutability": "view",
      "type": "function"
    },
    {
      "inputs": [
        {
          "internalType": "uint256",
          "name": "amount",
          "type": "uint256"
        }
      ],
      "name": "burn",
      "outputs": [],
      "stateMutability": "nonpayable",
      "type": "function"
    },
    {
      "inputs": [
        {
          "internalType": "address",
          "name": "account",
          "type": "address"
        },
        {
          "internalType": "uint256",
          "name": "amount",
          "type": "uint256"
        }
      ],
      "name": "burnFrom",
      "outputs": [],
      "stateMutability": "nonpayable",
      "type": "function"
    },
    {
      "inputs": [],
      "name": "decimals",
      "outputs": [
        {
          "internalType": "uint8",
          "name": "",
          "type": "uint8"
        }
      ],
      "stateMutability": "view",
      "type": "function"
    },
    {
      "inputs": [
        {
          "internalType": "address",
          "name": "spender",
          "type": "address"
        },
        {
          "internalType": "uint256",
          "name": "subtractedValue",
          "type": "uint256"
        }
      ],
      "name": "decreaseAllowance",
      "outputs": [
        {
          "internalType": "bool",
          "name": "",
          "type": "bool"
        }
      ],
      "stateMutability": "nonpayable",
      "type": "function"
    },
    {
      "inputs": [
        {
          "internalType": "address",
          "name": "user",
          "type": "address"
        },
        {
          "internalType": "bytes",
          "name": "depositData",
          "type": "bytes"
        }
      ],
      "name": "deposit",
      "outputs": [],
      "stateMutability": "nonpayable",
      "type": "function"
    },
    {
      "inputs": [
        {
          "internalType": "bytes32",
          "name": "role",
          "type": "bytes32"
        }
      ],
      "name": "getRoleAdmin",
      "outputs": [
        {
          "internalType": "bytes32",
          "name": "",
          "type": "bytes32"
        }
      ],
      "stateMutability": "view",
      "type": "function"
    },
    {
      "inputs": [
        {
          "internalType": "bytes32",
          "name": "role",
          "type": "bytes32"
        },
        {
          "internalType": "uint256",
          "name": "index",
          "type": "uint256"
        }
      ],
      "name": "getRoleMember",
      "outputs": [
        {
          "internalType": "address",
          "name": "",
          "type": "address"
        }
      ],
      "stateMutability": "view",
      "type": "function"
    },
    {
      "inputs": [
        {
          "internalType": "bytes32",
          "name": "role",
          "type": "bytes32"
        }
      ],
      "name": "getRoleMemberCount",
      "outputs": [
        {
          "internalType": "uint256",
          "name": "",
          "type": "uint256"
        }
      ],
      "stateMutability": "view",
      "type": "function"
    },
    {
      "inputs": [
        {
          "internalType": "bytes32",
          "name": "role",
          "type": "bytes32"
        },
        {
          "internalType": "address",
          "name": "account",
          "type": "address"
        }
      ],
      "name": "grantRole",
      "outputs": [],
      "stateMutability": "nonpayable",
      "type": "function"
    },
    {
      "inputs": [
        {
          "internalType": "bytes32",
          "name": "role",
          "type": "bytes32"
        },
        {
          "internalType": "address",
          "name": "account",
          "type": "address"
        }
      ],
      "name": "hasRole",
      "outputs": [
        {
          "internalType": "bool",
          "name": "",
          "type": "bool"
        }
      ],
      "stateMutability": "view",
      "type": "function"
    },
    {
      "inputs": [
        {
          "internalType": "address",
          "name": "spender",
          "type": "address"
        },
        {
          "internalType": "uint256",
          "name": "addedValue",
          "type": "uint256"
        }
      ],
      "name": "increaseAllowance",
      "outputs": [
        {
          "internalType": "bool",
          "name": "",
          "type": "bool"
        }
      ],
      "stateMutability": "nonpayable",
      "type": "function"
    },
    {
      "inputs": [
        {
          "internalType": "address",
          "name": "childChainManagerProxy",
          "type": "address"
        }
      ],
      "name": "initialize",
      "outputs": [],
      "stateMutability": "nonpayable",
      "type": "function"
    },
    {
      "inputs": [
        {
          "internalType": "bytes[]",
          "name": "data",
          "type": "bytes[]"
        }
      ],
      "name": "multicall",
      "outputs": [
        {
          "internalType": "bytes[]",
          "name": "results",
          "type": "bytes[]"
        }
      ],
      "stateMutability": "nonpayable",
      "type": "function"
    },
    {
      "inputs": [],
      "name": "name",
      "outputs": [
        {
          "internalType": "string",
          "name": "",
          "type": "string"
        }
      ],
      "stateMutability": "view",
      "type": "function"
    },
    {
      "inputs": [
        {
          "internalType": "address",
          "name": "owner",
          "type": "address"
        }
      ],
      "name": "nonces",
      "outputs": [
        {
          "internalType": "uint256",
          "name": "",
          "type": "uint256"
        }
      ],
      "stateMutability": "view",
      "type": "function"
    },
    {
      "inputs": [],
      "name": "pause",
      "outputs": [],
      "stateMutability": "nonpayable",
      "type": "function"
    },
    {
      "inputs": [],
      "name": "paused",
      "outputs": [
        {
          "internalType": "bool",
          "name": "",
          "type": "bool"
        }
      ],
      "stateMutability": "view",
      "type": "function"
    },
    {
      "inputs": [
        {
          "internalType": "address",
          "name": "owner",
          "type": "address"
        },
        {
          "internalType": "address",
          "name": "spender",
          "type": "address"
        },
        {
          "internalType": "uint256",
          "name": "value",
          "type": "uint256"
        },
        {
          "internalType": "uint256",
          "name": "deadline",
          "type": "uint256"
        },
        {
          "internalType": "uint8",
          "name": "v",
          "type": "uint8"
        },
        {
          "internalType": "bytes32",
          "name": "r",
          "type": "bytes32"
        },
        {
          "internalType": "bytes32",
          "name": "s",
          "type": "bytes32"
        }
      ],
      "name": "permit",
      "outputs": [],
      "stateMutability": "nonpayable",
      "type": "function"
    },
    {
      "inputs": [
        {
          "internalType": "bytes32",
          "name": "role",
          "type": "bytes32"
        },
        {
          "internalType": "address",
          "name": "account",
          "type": "address"
        }
      ],
      "name": "renounceRole",
      "outputs": [],
      "stateMutability": "nonpayable",
      "type": "function"
    },
    {
      "inputs": [
        {
          "internalType": "bytes32",
          "name": "role",
          "type": "bytes32"
        },
        {
          "internalType": "address",
          "name": "account",
          "type": "address"
        }
      ],
      "name": "revokeRole",
      "outputs": [],
      "stateMutability": "nonpayable",
      "type": "function"
    },
    {
      "inputs": [
        {
          "internalType": "bytes4",
          "name": "interfaceId",
          "type": "bytes4"
        }
      ],
      "name": "supportsInterface",
      "outputs": [
        {
          "internalType": "bool",
          "name": "",
          "type": "bool"
        }
      ],
      "stateMutability": "view",
      "type": "function"
    },
    {
      "inputs": [],
      "name": "symbol",
      "outputs": [
        {
          "internalType": "string",
          "name": "",
          "type": "string"
        }
      ],
      "stateMutability": "view",
      "type": "function"
    },
    {
      "inputs": [],
      "name": "totalSupply",
      "outputs": [
        {
          "internalType": "uint256",
          "name": "",
          "type": "uint256"
        }
      ],
      "stateMutability": "view",
      "type": "function"
    },
    {
      "inputs": [
        {
          "internalType": "address",
          "name": "to",
          "type": "address"
        },
        {
          "internalType": "uint256",
          "name": "amount",
          "type": "uint256"
        }
      ],
      "name": "transfer",
      "outputs": [
        {
          "internalType": "bool",
          "name": "",
          "type": "bool"
        }
      ],
      "stateMutability": "nonpayable",
      "type": "function"
    },
    {
      "inputs": [
        {
          "internalType": "address",
          "name": "from",
          "type": "address"
        },
        {
          "internalType": "address",
          "name": "to",
          "type": "address"
        },
        {
          "internalType": "uint256",
          "name": "amount",
          "type": "uint256"
        }
      ],
      "name": "transferFrom",
      "outputs": [
        {
          "internalType": "bool",
          "name": "",
          "type": "bool"
        }
      ],
      "stateMutability": "nonpayable",
      "type": "function"
    },
    {
      "inputs": [],
      "name": "unpause",
      "outputs": [],
      "stateMutability": "nonpayable",
      "type": "function"
    },
    {
      "inputs": [
        {
          "internalType": "uint256",
          "name": "amount",
          "type": "uint256"
        }
      ],
      "name": "withdraw",
      "outputs": [],
      "stateMutability": "nonpayable",
      "type": "function"
    }
  ],
  "bytecode": "0x60806040523480156200001157600080fd5b506200001c62000022565b620000e4565b600054610100900460ff16156200008f5760405162461bcd60e51b815260206004820152602760248201527f496e697469616c697a61626c653a20636f6e747261637420697320696e697469604482015266616c697a696e6760c81b606482015260840160405180910390fd5b60005460ff9081161015620000e2576000805460ff191660ff9081179091556040519081527f7f26b83ff96e1f2b6a682f133852f6798a09c465da95921460cefb38474024989060200160405180910390a15b565b6134ec80620000f46000396000f3fe608060405234801561001057600080fd5b50600436106102265760003560e01c80637ecebe001161012a578063a9059cbb116100bd578063cf2c52cb1161008c578063d547741f11610071578063d547741f146104e8578063dd62ed3e146104fb578063e63ab1e91461054157600080fd5b8063cf2c52cb146104c2578063d505accf146104d557600080fd5b8063a9059cbb14610469578063ac9650d81461047c578063c4d66de81461049c578063ca15c873146104af57600080fd5b806395d89b41116100f957806395d89b411461041f578063a217fddf14610427578063a3b0b5a31461042f578063a457c2d71461045657600080fd5b80637ecebe00146103855780638456cb59146103985780639010d07c146103a057806391d14854146103d857600080fd5b8063313ce567116101bd5780633f4ba83a1161018c5780635c975abb116101715780635c975abb1461033157806370a082311461033c57806379cc67901461037257600080fd5b80633f4ba83a1461032957806342966c68146102c457600080fd5b8063313ce567146102ec5780633644e515146102fb57806336568abe14610303578063395093511461031657600080fd5b806323b872dd116101f957806323b872dd1461028d578063248a9ca3146102a05780632e1a7d4d146102c45780632f2ff15d146102d957600080fd5b806301ffc9a71461022b57806306fdde0314610253578063095ea7b31461026857806318160ddd1461027b575b600080fd5b61023e610239366004612c1c565b610568565b60405190151581526020015b60405180910390f35b61025b6105c4565b60405161024a9190612cd4565b61023e610276366004612d10565b610656565b6035545b60405190815260200161024a565b61023e61029b366004612d3a565b61066e565b61027f6102ae366004612d76565b6000908152610162602052604090206001015490565b6102d76102d2366004612d76565b610694565b005b6102d76102e7366004612d8f565b6106a1565b6040516012815260200161024a565b61027f6106cc565b6102d7610311366004612d8f565b6106db565b61023e610324366004612d10565b610793565b6102d76107df565b60fe5460ff1661023e565b61027f61034a366004612dbb565b73ffffffffffffffffffffffffffffffffffffffff1660009081526033602052604090205490565b6102d7610380366004612d10565b610811565b61027f610393366004612dbb565b610826565b6102d7610851565b6103b36103ae366004612dd6565b610883565b60405173ffffffffffffffffffffffffffffffffffffffff909116815260200161024a565b61023e6103e6366004612d8f565b60009182526101626020908152604080842073ffffffffffffffffffffffffffffffffffffffff93909316845291905290205460ff1690565b61025b61089c565b61027f600081565b61027f7f8f4f2da22e8ac8f11e15f9fc141cddbb5deea8800186560abb6e68c5496619a981565b61023e610464366004612d10565b6108ab565b61023e610477366004612d10565b610987565b61048f61048a366004612df8565b610995565b60405161024a9190612e6d565b6102d76104aa366004612dbb565b610a8a565b61027f6104bd366004612d76565b610da4565b6102d76104d0366004612eed565b610dbc565b6102d76104e3366004612f70565b610e07565b6102d76104f6366004612d8f565b610fc6565b61027f610509366004612fe3565b73ffffffffffffffffffffffffffffffffffffffff918216600090815260346020908152604080832093909416825291909152205490565b61027f7f65d7a28e3265b37a6474929f336521b332c1681b933f6cb9f3376673440d862a81565b60007fffffffff0000000000000000000000000000000000000000000000000000000082167f5a05180f0000000000000000000000000000000000000000000000000000000014806105be57506105be82610fec565b92915050565b6060603680546105d39061300d565b80601f01602080910402602001604051908101604052809291908181526020018280546105ff9061300d565b801561064c5780601f106106215761010080835404028352916020019161064c565b820191906000526020600020905b81548152906001019060200180831161062f57829003601f168201915b5050505050905090565b600033610664818585611083565b5060019392505050565b60003361067c858285611096565b61068785858561116d565b60019150505b9392505050565b61069e338261142b565b50565b600082815261016260205260409020600101546106bd81611624565b6106c7838361162e565b505050565b60006106d6611640565b905090565b73ffffffffffffffffffffffffffffffffffffffff81163314610785576040517f08c379a000000000000000000000000000000000000000000000000000000000815260206004820152602f60248201527f416363657373436f6e74726f6c3a2063616e206f6e6c792072656e6f756e636560448201527f20726f6c657320666f722073656c66000000000000000000000000000000000060648201526084015b60405180910390fd5b61078f82826116bb565b5050565b33600081815260346020908152604080832073ffffffffffffffffffffffffffffffffffffffff8716845290915281205490919061066490829086906107da908790613089565b611083565b7f65d7a28e3265b37a6474929f336521b332c1681b933f6cb9f3376673440d862a61080981611624565b61069e6116cd565b61081c823383611096565b61078f828261142b565b73ffffffffffffffffffffffffffffffffffffffff8116600090815260cb60205260408120546105be565b7f65d7a28e3265b37a6474929f336521b332c1681b933f6cb9f3376673440d862a61087b81611624565b61069e61174a565b60008281526101946020526040812061068d90836117a5565b6060603780546105d39061300d565b33600081815260346020908152604080832073ffffffffffffffffffffffffffffffffffffffff871684529091528120549091908381101561096f576040517f08c379a000000000000000000000000000000000000000000000000000000000815260206004820152602560248201527f45524332303a2064656372656173656420616c6c6f77616e63652062656c6f7760448201527f207a65726f000000000000000000000000000000000000000000000000000000606482015260840161077c565b61097c8286868403611083565b506001949350505050565b60003361066481858561116d565b60608167ffffffffffffffff8111156109b0576109b06130a1565b6040519080825280602002602001820160405280156109e357816020015b60608152602001906001900390816109ce5790505b50905060005b82811015610a8357610a5330858584818110610a0757610a076130d0565b9050602002810190610a1991906130ff565b8080601f0160208091040260200160405190810160405280939291908181526020018383808284376000920191909152506117b192505050565b828281518110610a6557610a656130d0565b60200260200101819052508080610a7b9061316b565b9150506109e9565b5092915050565b600054610100900460ff1615808015610aaa5750600054600160ff909116105b80610ac45750303b158015610ac4575060005460ff166001145b610b50576040517f08c379a000000000000000000000000000000000000000000000000000000000815260206004820152602e60248201527f496e697469616c697a61626c653a20636f6e747261637420697320616c72656160448201527f647920696e697469616c697a6564000000000000000000000000000000000000606482015260840161077c565b600080547fffffffffffffffffffffffffffffffffffffffffffffffffffffffffffffff001660011790558015610bae57600080547fffffffffffffffffffffffffffffffffffffffffffffffffffffffffffff00ff166101001790555b610bb66118f0565b610bbe6118f0565b610bc66118f0565b610bce6118f0565b610bd6611989565b610c4a6040518060400160405280600481526020017f4e4f5249000000000000000000000000000000000000000000000000000000008152506040518060400160405280600181526020017f3100000000000000000000000000000000000000000000000000000000000000815250611a4a565b610cbe6040518060400160405280600481526020017f4e4f5249000000000000000000000000000000000000000000000000000000008152506040518060400160405280600481526020017f4e4f524900000000000000000000000000000000000000000000000000000000815250611afb565b610cfc6040518060400160405280600481526020017f4e4f524900000000000000000000000000000000000000000000000000000000815250611bab565b610d046118f0565b610d0c611c42565b610d146118f0565b610d3e7f8f4f2da22e8ac8f11e15f9fc141cddbb5deea8800186560abb6e68c5496619a98361162e565b801561078f57600080547fffffffffffffffffffffffffffffffffffffffffffffffffffffffffffff00ff169055604051600181527f7f26b83ff96e1f2b6a682f133852f6798a09c465da95921460cefb38474024989060200160405180910390a15050565b6000818152610194602052604081206105be90611d0e565b7f8f4f2da22e8ac8f11e15f9fc141cddbb5deea8800186560abb6e68c5496619a9610de681611624565b6000610df483850185612d76565b9050610e008582611d18565b5050505050565b83421115610e71576040517f08c379a000000000000000000000000000000000000000000000000000000000815260206004820152601d60248201527f45524332305065726d69743a206578706972656420646561646c696e65000000604482015260640161077c565b60007f6e71edae12b1b97f4d1f60370fef10105fa2faae0126114a169c64845d6126c9888888610ea08c611e44565b60408051602081019690965273ffffffffffffffffffffffffffffffffffffffff94851690860152929091166060840152608083015260a082015260c0810186905260e0016040516020818303038152906040528051906020012090506000610f0882611e79565b90506000610f1882878787611ee2565b90508973ffffffffffffffffffffffffffffffffffffffff168173ffffffffffffffffffffffffffffffffffffffff1614610faf576040517f08c379a000000000000000000000000000000000000000000000000000000000815260206004820152601e60248201527f45524332305065726d69743a20696e76616c6964207369676e61747572650000604482015260640161077c565b610fba8a8a8a611083565b50505050505050505050565b60008281526101626020526040902060010154610fe281611624565b6106c783836116bb565b60007fffffffff0000000000000000000000000000000000000000000000000000000082167f7965db0b0000000000000000000000000000000000000000000000000000000014806105be57507f01ffc9a7000000000000000000000000000000000000000000000000000000007fffffffff000000000000000000000000000000000000000000000000000000008316146105be565b61108b611f0a565b6106c7838383611f77565b73ffffffffffffffffffffffffffffffffffffffff8381166000908152603460209081526040808320938616835292905220547fffffffffffffffffffffffffffffffffffffffffffffffffffffffffffffffff8114611167578181101561115a576040517f08c379a000000000000000000000000000000000000000000000000000000000815260206004820152601d60248201527f45524332303a20696e73756666696369656e7420616c6c6f77616e6365000000604482015260640161077c565b6111678484848403611083565b50505050565b73ffffffffffffffffffffffffffffffffffffffff8316611210576040517f08c379a000000000000000000000000000000000000000000000000000000000815260206004820152602560248201527f45524332303a207472616e736665722066726f6d20746865207a65726f20616460448201527f6472657373000000000000000000000000000000000000000000000000000000606482015260840161077c565b73ffffffffffffffffffffffffffffffffffffffff82166112b3576040517f08c379a000000000000000000000000000000000000000000000000000000000815260206004820152602360248201527f45524332303a207472616e7366657220746f20746865207a65726f206164647260448201527f6573730000000000000000000000000000000000000000000000000000000000606482015260840161077c565b6112be83838361212a565b73ffffffffffffffffffffffffffffffffffffffff831660009081526033602052604090205481811015611374576040517f08c379a000000000000000000000000000000000000000000000000000000000815260206004820152602660248201527f45524332303a207472616e7366657220616d6f756e742065786365656473206260448201527f616c616e63650000000000000000000000000000000000000000000000000000606482015260840161077c565b73ffffffffffffffffffffffffffffffffffffffff8085166000908152603360205260408082208585039055918516815290812080548492906113b8908490613089565b925050819055508273ffffffffffffffffffffffffffffffffffffffff168473ffffffffffffffffffffffffffffffffffffffff167fddf252ad1be2c89b69c2b068fc378daa952ba7f163c4a11628f55a4df523b3ef8460405161141e91815260200190565b60405180910390a3611167565b73ffffffffffffffffffffffffffffffffffffffff82166114ce576040517f08c379a000000000000000000000000000000000000000000000000000000000815260206004820152602160248201527f45524332303a206275726e2066726f6d20746865207a65726f2061646472657360448201527f7300000000000000000000000000000000000000000000000000000000000000606482015260840161077c565b6114da8260008361212a565b73ffffffffffffffffffffffffffffffffffffffff821660009081526033602052604090205481811015611590576040517f08c379a000000000000000000000000000000000000000000000000000000000815260206004820152602260248201527f45524332303a206275726e20616d6f756e7420657863656564732062616c616e60448201527f6365000000000000000000000000000000000000000000000000000000000000606482015260840161077c565b73ffffffffffffffffffffffffffffffffffffffff831660009081526033602052604081208383039055603580548492906115cc9084906131a3565b909155505060405182815260009073ffffffffffffffffffffffffffffffffffffffff8516907fddf252ad1be2c89b69c2b068fc378daa952ba7f163c4a11628f55a4df523b3ef9060200160405180910390a3505050565b61069e8133612132565b611636611f0a565b61078f8282612205565b60006106d67f8b73c3c69bb8fe3d512ecc4cf759cc79239f7b179b0ffacaa9a75d522b39400f61166f60975490565b6098546040805160208101859052908101839052606081018290524660808201523060a082015260009060c0016040516020818303038152906040528051906020012090509392505050565b6116c3611f0a565b61078f8282612228565b6116d561224b565b60fe80547fffffffffffffffffffffffffffffffffffffffffffffffffffffffffffffff001690557f5db9ee0a495bf2e6ff9c91a7834c1ba4fdd244a5e8aa4e537bd38aeae4b073aa335b60405173ffffffffffffffffffffffffffffffffffffffff909116815260200160405180910390a1565b611752611f0a565b60fe80547fffffffffffffffffffffffffffffffffffffffffffffffffffffffffffffff001660011790557f62e78cea01bee320cd4e420270b5ea74000d11b0c9f74754ebdbfc544b05a2586117203390565b600061068d83836122b7565b606073ffffffffffffffffffffffffffffffffffffffff83163b611857576040517f08c379a000000000000000000000000000000000000000000000000000000000815260206004820152602660248201527f416464726573733a2064656c65676174652063616c6c20746f206e6f6e2d636f60448201527f6e74726163740000000000000000000000000000000000000000000000000000606482015260840161077c565b6000808473ffffffffffffffffffffffffffffffffffffffff168460405161187f91906131ba565b600060405180830381855af49150503d80600081146118ba576040519150601f19603f3d011682016040523d82523d6000602084013e6118bf565b606091505b50915091506118e78282604051806060016040528060278152602001613490602791396122e1565b95945050505050565b600054610100900460ff16611987576040517f08c379a000000000000000000000000000000000000000000000000000000000815260206004820152602b60248201527f496e697469616c697a61626c653a20636f6e7472616374206973206e6f74206960448201527f6e697469616c697a696e67000000000000000000000000000000000000000000606482015260840161077c565b565b600054610100900460ff16611a20576040517f08c379a000000000000000000000000000000000000000000000000000000000815260206004820152602b60248201527f496e697469616c697a61626c653a20636f6e7472616374206973206e6f74206960448201527f6e697469616c697a696e67000000000000000000000000000000000000000000606482015260840161077c565b60fe80547fffffffffffffffffffffffffffffffffffffffffffffffffffffffffffffff00169055565b600054610100900460ff16611ae1576040517f08c379a000000000000000000000000000000000000000000000000000000000815260206004820152602b60248201527f496e697469616c697a61626c653a20636f6e7472616374206973206e6f74206960448201527f6e697469616c697a696e67000000000000000000000000000000000000000000606482015260840161077c565b815160209283012081519190920120609791909155609855565b600054610100900460ff16611b92576040517f08c379a000000000000000000000000000000000000000000000000000000000815260206004820152602b60248201527f496e697469616c697a61626c653a20636f6e7472616374206973206e6f74206960448201527f6e697469616c697a696e67000000000000000000000000000000000000000000606482015260840161077c565b6036611b9e8382613224565b5060376106c78282613224565b600054610100900460ff1661069e576040517f08c379a000000000000000000000000000000000000000000000000000000000815260206004820152602b60248201527f496e697469616c697a61626c653a20636f6e7472616374206973206e6f74206960448201527f6e697469616c697a696e67000000000000000000000000000000000000000000606482015260840161077c565b600054610100900460ff16611cd9576040517f08c379a000000000000000000000000000000000000000000000000000000000815260206004820152602b60248201527f496e697469616c697a61626c653a20636f6e7472616374206973206e6f74206960448201527f6e697469616c697a696e67000000000000000000000000000000000000000000606482015260840161077c565b611ce460003361162e565b6119877f65d7a28e3265b37a6474929f336521b332c1681b933f6cb9f3376673440d862a3361162e565b60006105be825490565b73ffffffffffffffffffffffffffffffffffffffff8216611d95576040517f08c379a000000000000000000000000000000000000000000000000000000000815260206004820152601f60248201527f45524332303a206d696e7420746f20746865207a65726f206164647265737300604482015260640161077c565b611da16000838361212a565b8060356000828254611db39190613089565b909155505073ffffffffffffffffffffffffffffffffffffffff821660009081526033602052604081208054839290611ded908490613089565b909155505060405181815273ffffffffffffffffffffffffffffffffffffffff8316906000907fddf252ad1be2c89b69c2b068fc378daa952ba7f163c4a11628f55a4df523b3ef9060200160405180910390a35050565b73ffffffffffffffffffffffffffffffffffffffff8116600090815260cb602052604090208054600181018255905b50919050565b60006105be611e86611640565b836040517f19010000000000000000000000000000000000000000000000000000000000006020820152602281018390526042810182905260009060620160405160208183030381529060405280519060200120905092915050565b6000806000611ef387878787612334565b91509150611f008161244c565b5095945050505050565b60fe5460ff1615611987576040517f08c379a000000000000000000000000000000000000000000000000000000000815260206004820152601060248201527f5061757361626c653a2070617573656400000000000000000000000000000000604482015260640161077c565b73ffffffffffffffffffffffffffffffffffffffff8316612019576040517f08c379a0000000000000000000000000000000000000000000000000000000008152602060048201526024808201527f45524332303a20617070726f76652066726f6d20746865207a65726f2061646460448201527f7265737300000000000000000000000000000000000000000000000000000000606482015260840161077c565b73ffffffffffffffffffffffffffffffffffffffff82166120bc576040517f08c379a000000000000000000000000000000000000000000000000000000000815260206004820152602260248201527f45524332303a20617070726f766520746f20746865207a65726f20616464726560448201527f7373000000000000000000000000000000000000000000000000000000000000606482015260840161077c565b73ffffffffffffffffffffffffffffffffffffffff83811660008181526034602090815260408083209487168084529482529182902085905590518481527f8c5be1e5ebec7d5bd14f71427d1e84f3dd0314c0f7b2291e5b200ac8c7c3b925910160405180910390a3505050565b6106c7611f0a565b60008281526101626020908152604080832073ffffffffffffffffffffffffffffffffffffffff8516845290915290205460ff1661078f5761218b8173ffffffffffffffffffffffffffffffffffffffff1660146126a0565b6121968360206126a0565b6040516020016121a792919061333e565b604080517fffffffffffffffffffffffffffffffffffffffffffffffffffffffffffffffe0818403018152908290527f08c379a000000000000000000000000000000000000000000000000000000000825261077c91600401612cd4565b61220f82826128e3565b6000828152610194602052604090206106c790826129d9565b61223282826129fb565b6000828152610194602052604090206106c79082612ab8565b60fe5460ff16611987576040517f08c379a000000000000000000000000000000000000000000000000000000000815260206004820152601460248201527f5061757361626c653a206e6f7420706175736564000000000000000000000000604482015260640161077c565b60008260000182815481106122ce576122ce6130d0565b9060005260206000200154905092915050565b606083156122f057508161068d565b8251156123005782518084602001fd5b816040517f08c379a000000000000000000000000000000000000000000000000000000000815260040161077c9190612cd4565b6000807f7fffffffffffffffffffffffffffffff5d576e7357a4501ddfe92f46681b20a083111561236b5750600090506003612443565b8460ff16601b1415801561238357508460ff16601c14155b156123945750600090506004612443565b6040805160008082526020820180845289905260ff881692820192909252606081018690526080810185905260019060a0016020604051602081039080840390855afa1580156123e8573d6000803e3d6000fd5b50506040517fffffffffffffffffffffffffffffffffffffffffffffffffffffffffffffffe0015191505073ffffffffffffffffffffffffffffffffffffffff811661243c57600060019250925050612443565b9150600090505b94509492505050565b6000816004811115612460576124606133bf565b036124685750565b600181600481111561247c5761247c6133bf565b036124e3576040517f08c379a000000000000000000000000000000000000000000000000000000000815260206004820152601860248201527f45434453413a20696e76616c6964207369676e61747572650000000000000000604482015260640161077c565b60028160048111156124f7576124f76133bf565b0361255e576040517f08c379a000000000000000000000000000000000000000000000000000000000815260206004820152601f60248201527f45434453413a20696e76616c6964207369676e6174757265206c656e67746800604482015260640161077c565b6003816004811115612572576125726133bf565b036125ff576040517f08c379a000000000000000000000000000000000000000000000000000000000815260206004820152602260248201527f45434453413a20696e76616c6964207369676e6174757265202773272076616c60448201527f7565000000000000000000000000000000000000000000000000000000000000606482015260840161077c565b6004816004811115612613576126136133bf565b0361069e576040517f08c379a000000000000000000000000000000000000000000000000000000000815260206004820152602260248201527f45434453413a20696e76616c6964207369676e6174757265202776272076616c60448201527f7565000000000000000000000000000000000000000000000000000000000000606482015260840161077c565b606060006126af8360026133ee565b6126ba906002613089565b67ffffffffffffffff8111156126d2576126d26130a1565b6040519080825280601f01601f1916602001820160405280156126fc576020820181803683370190505b5090507f300000000000000000000000000000000000000000000000000000000000000081600081518110612733576127336130d0565b60200101907effffffffffffffffffffffffffffffffffffffffffffffffffffffffffffff1916908160001a9053507f780000000000000000000000000000000000000000000000000000000000000081600181518110612796576127966130d0565b60200101907effffffffffffffffffffffffffffffffffffffffffffffffffffffffffffff1916908160001a90535060006127d28460026133ee565b6127dd906001613089565b90505b600181111561287a577f303132333435363738396162636465660000000000000000000000000000000085600f166010811061281e5761281e6130d0565b1a60f81b828281518110612834576128346130d0565b60200101907effffffffffffffffffffffffffffffffffffffffffffffffffffffffffffff1916908160001a90535060049490941c936128738161342b565b90506127e0565b50831561068d576040517f08c379a000000000000000000000000000000000000000000000000000000000815260206004820181905260248201527f537472696e67733a20686578206c656e67746820696e73756666696369656e74604482015260640161077c565b60008281526101626020908152604080832073ffffffffffffffffffffffffffffffffffffffff8516845290915290205460ff1661078f5760008281526101626020908152604080832073ffffffffffffffffffffffffffffffffffffffff85168452909152902080547fffffffffffffffffffffffffffffffffffffffffffffffffffffffffffffff0016600117905561297b3390565b73ffffffffffffffffffffffffffffffffffffffff168173ffffffffffffffffffffffffffffffffffffffff16837f2f8788117e7eff1d82e926ec794901d17c78024a50270940304540a733656f0d60405160405180910390a45050565b600061068d8373ffffffffffffffffffffffffffffffffffffffff8416612ada565b60008281526101626020908152604080832073ffffffffffffffffffffffffffffffffffffffff8516845290915290205460ff161561078f5760008281526101626020908152604080832073ffffffffffffffffffffffffffffffffffffffff8516808552925280832080547fffffffffffffffffffffffffffffffffffffffffffffffffffffffffffffff0016905551339285917ff6391f5c32d9c69d2a47ea670b442974b53935d1edc7fd64eb21e047a839171b9190a45050565b600061068d8373ffffffffffffffffffffffffffffffffffffffff8416612b29565b6000818152600183016020526040812054612b21575081546001818101845560008481526020808220909301849055845484825282860190935260409020919091556105be565b5060006105be565b60008181526001830160205260408120548015612c12576000612b4d6001836131a3565b8554909150600090612b61906001906131a3565b9050818114612bc6576000866000018281548110612b8157612b816130d0565b9060005260206000200154905080876000018481548110612ba457612ba46130d0565b6000918252602080832090910192909255918252600188019052604090208390555b8554869080612bd757612bd7613460565b6001900381819060005260206000200160009055905585600101600086815260200190815260200160002060009055600193505050506105be565b60009150506105be565b600060208284031215612c2e57600080fd5b81357fffffffff000000000000000000000000000000000000000000000000000000008116811461068d57600080fd5b60005b83811015612c79578181015183820152602001612c61565b838111156111675750506000910152565b60008151808452612ca2816020860160208601612c5e565b601f017fffffffffffffffffffffffffffffffffffffffffffffffffffffffffffffffe0169290920160200192915050565b60208152600061068d6020830184612c8a565b803573ffffffffffffffffffffffffffffffffffffffff81168114612d0b57600080fd5b919050565b60008060408385031215612d2357600080fd5b612d2c83612ce7565b946020939093013593505050565b600080600060608486031215612d4f57600080fd5b612d5884612ce7565b9250612d6660208501612ce7565b9150604084013590509250925092565b600060208284031215612d8857600080fd5b5035919050565b60008060408385031215612da257600080fd5b82359150612db260208401612ce7565b90509250929050565b600060208284031215612dcd57600080fd5b61068d82612ce7565b60008060408385031215612de957600080fd5b50508035926020909101359150565b60008060208385031215612e0b57600080fd5b823567ffffffffffffffff80821115612e2357600080fd5b818501915085601f830112612e3757600080fd5b813581811115612e4657600080fd5b8660208260051b8501011115612e5b57600080fd5b60209290920196919550909350505050565b6000602080830181845280855180835260408601915060408160051b870101925083870160005b82811015612ee0577fffffffffffffffffffffffffffffffffffffffffffffffffffffffffffffffc0888603018452612ece858351612c8a565b94509285019290850190600101612e94565b5092979650505050505050565b600080600060408486031215612f0257600080fd5b612f0b84612ce7565b9250602084013567ffffffffffffffff80821115612f2857600080fd5b818601915086601f830112612f3c57600080fd5b813581811115612f4b57600080fd5b876020828501011115612f5d57600080fd5b6020830194508093505050509250925092565b600080600080600080600060e0888a031215612f8b57600080fd5b612f9488612ce7565b9650612fa260208901612ce7565b95506040880135945060608801359350608088013560ff81168114612fc657600080fd5b9699959850939692959460a0840135945060c09093013592915050565b60008060408385031215612ff657600080fd5b612fff83612ce7565b9150612db260208401612ce7565b600181811c9082168061302157607f821691505b602082108103611e73577f4e487b7100000000000000000000000000000000000000000000000000000000600052602260045260246000fd5b7f4e487b7100000000000000000000000000000000000000000000000000000000600052601160045260246000fd5b6000821982111561309c5761309c61305a565b500190565b7f4e487b7100000000000000000000000000000000000000000000000000000000600052604160045260246000fd5b7f4e487b7100000000000000000000000000000000000000000000000000000000600052603260045260246000fd5b60008083357fffffffffffffffffffffffffffffffffffffffffffffffffffffffffffffffe184360301811261313457600080fd5b83018035915067ffffffffffffffff82111561314f57600080fd5b60200191503681900382131561316457600080fd5b9250929050565b60007fffffffffffffffffffffffffffffffffffffffffffffffffffffffffffffffff820361319c5761319c61305a565b5060010190565b6000828210156131b5576131b561305a565b500390565b600082516131cc818460208701612c5e565b9190910192915050565b601f8211156106c757600081815260208120601f850160051c810160208610156131fd5750805b601f850160051c820191505b8181101561321c57828155600101613209565b505050505050565b815167ffffffffffffffff81111561323e5761323e6130a1565b6132528161324c845461300d565b846131d6565b602080601f8311600181146132a5576000841561326f5750858301515b7fffffffffffffffffffffffffffffffffffffffffffffffffffffffffffffffff600386901b1c1916600185901b17855561321c565b6000858152602081207fffffffffffffffffffffffffffffffffffffffffffffffffffffffffffffffe08616915b828110156132f2578886015182559484019460019091019084016132d3565b508582101561332e57878501517fffffffffffffffffffffffffffffffffffffffffffffffffffffffffffffffff600388901b60f8161c191681555b5050505050600190811b01905550565b7f416363657373436f6e74726f6c3a206163636f756e7420000000000000000000815260008351613376816017850160208801612c5e565b7f206973206d697373696e6720726f6c652000000000000000000000000000000060179184019182015283516133b3816028840160208801612c5e565b01602801949350505050565b7f4e487b7100000000000000000000000000000000000000000000000000000000600052602160045260246000fd5b6000817fffffffffffffffffffffffffffffffffffffffffffffffffffffffffffffffff04831182151516156134265761342661305a565b500290565b60008161343a5761343a61305a565b507fffffffffffffffffffffffffffffffffffffffffffffffffffffffffffffffff0190565b7f4e487b7100000000000000000000000000000000000000000000000000000000600052603160045260246000fdfe416464726573733a206c6f772d6c6576656c2064656c65676174652063616c6c206661696c6564a2646970667358221220f4f936343e15d44157ecd990e24852ba0dbf0b862937dad815cd757516ebd31464736f6c634300080f0033",
  "linkReferences": {},
  "deployedLinkReferences": {}
}