{
  "_format": "hh-sol-artifact-1",
  "contractName": "BridgedPolygonNORI",
  "sourceName": "contracts/BridgedPolygonNORI.sol",
  "abi": [
    {
      "inputs": [],
      "name": "InvalidInitializerCall",
      "type": "error"
    },
    {
      "anonymous": false,
      "inputs": [
        {
          "indexed": true,
          "internalType": "address",
          "name": "owner",
          "type": "address"
        },
        {
          "indexed": true,
          "internalType": "address",
          "name": "spender",
          "type": "address"
        },
        {
          "indexed": false,
          "internalType": "uint256",
          "name": "value",
          "type": "uint256"
        }
      ],
      "name": "Approval",
      "type": "event"
    },
    {
      "anonymous": false,
      "inputs": [
        {
          "indexed": false,
          "internalType": "uint8",
          "name": "version",
          "type": "uint8"
        }
      ],
      "name": "Initialized",
      "type": "event"
    },
    {
      "anonymous": false,
      "inputs": [
        {
          "indexed": false,
          "internalType": "address",
          "name": "account",
          "type": "address"
        }
      ],
      "name": "Paused",
      "type": "event"
    },
    {
      "anonymous": false,
      "inputs": [
        {
          "indexed": true,
          "internalType": "bytes32",
          "name": "role",
          "type": "bytes32"
        },
        {
          "indexed": true,
          "internalType": "bytes32",
          "name": "previousAdminRole",
          "type": "bytes32"
        },
        {
          "indexed": true,
          "internalType": "bytes32",
          "name": "newAdminRole",
          "type": "bytes32"
        }
      ],
      "name": "RoleAdminChanged",
      "type": "event"
    },
    {
      "anonymous": false,
      "inputs": [
        {
          "indexed": true,
          "internalType": "bytes32",
          "name": "role",
          "type": "bytes32"
        },
        {
          "indexed": true,
          "internalType": "address",
          "name": "account",
          "type": "address"
        },
        {
          "indexed": true,
          "internalType": "address",
          "name": "sender",
          "type": "address"
        }
      ],
      "name": "RoleGranted",
      "type": "event"
    },
    {
      "anonymous": false,
      "inputs": [
        {
          "indexed": true,
          "internalType": "bytes32",
          "name": "role",
          "type": "bytes32"
        },
        {
          "indexed": true,
          "internalType": "address",
          "name": "account",
          "type": "address"
        },
        {
          "indexed": true,
          "internalType": "address",
          "name": "sender",
          "type": "address"
        }
      ],
      "name": "RoleRevoked",
      "type": "event"
    },
    {
      "anonymous": false,
      "inputs": [
        {
          "indexed": true,
          "internalType": "address",
          "name": "from",
          "type": "address"
        },
        {
          "indexed": true,
          "internalType": "address",
          "name": "to",
          "type": "address"
        },
        {
          "indexed": false,
          "internalType": "uint256",
          "name": "value",
          "type": "uint256"
        }
      ],
      "name": "Transfer",
      "type": "event"
    },
    {
      "anonymous": false,
      "inputs": [
        {
          "indexed": false,
          "internalType": "address",
          "name": "account",
          "type": "address"
        }
      ],
      "name": "Unpaused",
      "type": "event"
    },
    {
      "inputs": [],
      "name": "DEFAULT_ADMIN_ROLE",
      "outputs": [
        {
          "internalType": "bytes32",
          "name": "",
          "type": "bytes32"
        }
      ],
      "stateMutability": "view",
      "type": "function"
    },
    {
      "inputs": [],
      "name": "DEPOSITOR_ROLE",
      "outputs": [
        {
          "internalType": "bytes32",
          "name": "",
          "type": "bytes32"
        }
      ],
      "stateMutability": "view",
      "type": "function"
    },
    {
      "inputs": [],
      "name": "DOMAIN_SEPARATOR",
      "outputs": [
        {
          "internalType": "bytes32",
          "name": "",
          "type": "bytes32"
        }
      ],
      "stateMutability": "view",
      "type": "function"
    },
    {
      "inputs": [],
      "name": "PAUSER_ROLE",
      "outputs": [
        {
          "internalType": "bytes32",
          "name": "",
          "type": "bytes32"
        }
      ],
      "stateMutability": "view",
      "type": "function"
    },
    {
      "inputs": [
        {
          "internalType": "address",
          "name": "owner",
          "type": "address"
        },
        {
          "internalType": "address",
          "name": "spender",
          "type": "address"
        }
      ],
      "name": "allowance",
      "outputs": [
        {
          "internalType": "uint256",
          "name": "",
          "type": "uint256"
        }
      ],
      "stateMutability": "view",
      "type": "function"
    },
    {
      "inputs": [
        {
          "internalType": "address",
          "name": "spender",
          "type": "address"
        },
        {
          "internalType": "uint256",
          "name": "amount",
          "type": "uint256"
        }
      ],
      "name": "approve",
      "outputs": [
        {
          "internalType": "bool",
          "name": "",
          "type": "bool"
        }
      ],
      "stateMutability": "nonpayable",
      "type": "function"
    },
    {
      "inputs": [
        {
          "internalType": "address",
          "name": "account",
          "type": "address"
        }
      ],
      "name": "balanceOf",
      "outputs": [
        {
          "internalType": "uint256",
          "name": "",
          "type": "uint256"
        }
      ],
      "stateMutability": "view",
      "type": "function"
    },
    {
      "inputs": [
        {
          "internalType": "uint256",
          "name": "amount",
          "type": "uint256"
        }
      ],
      "name": "burn",
      "outputs": [],
      "stateMutability": "nonpayable",
      "type": "function"
    },
    {
      "inputs": [
        {
          "internalType": "address",
          "name": "account",
          "type": "address"
        },
        {
          "internalType": "uint256",
          "name": "amount",
          "type": "uint256"
        }
      ],
      "name": "burnFrom",
      "outputs": [],
      "stateMutability": "nonpayable",
      "type": "function"
    },
    {
      "inputs": [],
      "name": "decimals",
      "outputs": [
        {
          "internalType": "uint8",
          "name": "",
          "type": "uint8"
        }
      ],
      "stateMutability": "view",
      "type": "function"
    },
    {
      "inputs": [
        {
          "internalType": "address",
          "name": "spender",
          "type": "address"
        },
        {
          "internalType": "uint256",
          "name": "subtractedValue",
          "type": "uint256"
        }
      ],
      "name": "decreaseAllowance",
      "outputs": [
        {
          "internalType": "bool",
          "name": "",
          "type": "bool"
        }
      ],
      "stateMutability": "nonpayable",
      "type": "function"
    },
    {
      "inputs": [
        {
          "internalType": "address",
          "name": "user",
          "type": "address"
        },
        {
          "internalType": "bytes",
          "name": "depositData",
          "type": "bytes"
        }
      ],
      "name": "deposit",
      "outputs": [],
      "stateMutability": "nonpayable",
      "type": "function"
    },
    {
      "inputs": [
        {
          "internalType": "bytes32",
          "name": "role",
          "type": "bytes32"
        }
      ],
      "name": "getRoleAdmin",
      "outputs": [
        {
          "internalType": "bytes32",
          "name": "",
          "type": "bytes32"
        }
      ],
      "stateMutability": "view",
      "type": "function"
    },
    {
      "inputs": [
        {
          "internalType": "bytes32",
          "name": "role",
          "type": "bytes32"
        },
        {
          "internalType": "uint256",
          "name": "index",
          "type": "uint256"
        }
      ],
      "name": "getRoleMember",
      "outputs": [
        {
          "internalType": "address",
          "name": "",
          "type": "address"
        }
      ],
      "stateMutability": "view",
      "type": "function"
    },
    {
      "inputs": [
        {
          "internalType": "bytes32",
          "name": "role",
          "type": "bytes32"
        }
      ],
      "name": "getRoleMemberCount",
      "outputs": [
        {
          "internalType": "uint256",
          "name": "",
          "type": "uint256"
        }
      ],
      "stateMutability": "view",
      "type": "function"
    },
    {
      "inputs": [
        {
          "internalType": "bytes32",
          "name": "role",
          "type": "bytes32"
        },
        {
          "internalType": "address",
          "name": "account",
          "type": "address"
        }
      ],
      "name": "grantRole",
      "outputs": [],
      "stateMutability": "nonpayable",
      "type": "function"
    },
    {
      "inputs": [
        {
          "internalType": "bytes32",
          "name": "role",
          "type": "bytes32"
        },
        {
          "internalType": "address",
          "name": "account",
          "type": "address"
        }
      ],
      "name": "hasRole",
      "outputs": [
        {
          "internalType": "bool",
          "name": "",
          "type": "bool"
        }
      ],
      "stateMutability": "view",
      "type": "function"
    },
    {
      "inputs": [
        {
          "internalType": "address",
          "name": "spender",
          "type": "address"
        },
        {
          "internalType": "uint256",
          "name": "addedValue",
          "type": "uint256"
        }
      ],
      "name": "increaseAllowance",
      "outputs": [
        {
          "internalType": "bool",
          "name": "",
          "type": "bool"
        }
      ],
      "stateMutability": "nonpayable",
      "type": "function"
    },
    {
      "inputs": [],
      "name": "initialize",
      "outputs": [],
      "stateMutability": "pure",
      "type": "function"
    },
    {
      "inputs": [
        {
          "internalType": "address",
          "name": "childChainManagerProxy",
          "type": "address"
        }
      ],
      "name": "initialize",
      "outputs": [],
      "stateMutability": "nonpayable",
      "type": "function"
    },
    {
      "inputs": [
        {
          "internalType": "bytes[]",
          "name": "data",
          "type": "bytes[]"
        }
      ],
      "name": "multicall",
      "outputs": [
        {
          "internalType": "bytes[]",
          "name": "results",
          "type": "bytes[]"
        }
      ],
      "stateMutability": "nonpayable",
      "type": "function"
    },
    {
      "inputs": [],
      "name": "name",
      "outputs": [
        {
          "internalType": "string",
          "name": "",
          "type": "string"
        }
      ],
      "stateMutability": "view",
      "type": "function"
    },
    {
      "inputs": [
        {
          "internalType": "address",
          "name": "owner",
          "type": "address"
        }
      ],
      "name": "nonces",
      "outputs": [
        {
          "internalType": "uint256",
          "name": "",
          "type": "uint256"
        }
      ],
      "stateMutability": "view",
      "type": "function"
    },
    {
      "inputs": [],
      "name": "pause",
      "outputs": [],
      "stateMutability": "nonpayable",
      "type": "function"
    },
    {
      "inputs": [],
      "name": "paused",
      "outputs": [
        {
          "internalType": "bool",
          "name": "",
          "type": "bool"
        }
      ],
      "stateMutability": "view",
      "type": "function"
    },
    {
      "inputs": [
        {
          "internalType": "address",
          "name": "owner",
          "type": "address"
        },
        {
          "internalType": "address",
          "name": "spender",
          "type": "address"
        },
        {
          "internalType": "uint256",
          "name": "value",
          "type": "uint256"
        },
        {
          "internalType": "uint256",
          "name": "deadline",
          "type": "uint256"
        },
        {
          "internalType": "uint8",
          "name": "v",
          "type": "uint8"
        },
        {
          "internalType": "bytes32",
          "name": "r",
          "type": "bytes32"
        },
        {
          "internalType": "bytes32",
          "name": "s",
          "type": "bytes32"
        }
      ],
      "name": "permit",
      "outputs": [],
      "stateMutability": "nonpayable",
      "type": "function"
    },
    {
      "inputs": [
        {
          "internalType": "bytes32",
          "name": "role",
          "type": "bytes32"
        },
        {
          "internalType": "address",
          "name": "account",
          "type": "address"
        }
      ],
      "name": "renounceRole",
      "outputs": [],
      "stateMutability": "nonpayable",
      "type": "function"
    },
    {
      "inputs": [
        {
          "internalType": "bytes32",
          "name": "role",
          "type": "bytes32"
        },
        {
          "internalType": "address",
          "name": "account",
          "type": "address"
        }
      ],
      "name": "revokeRole",
      "outputs": [],
      "stateMutability": "nonpayable",
      "type": "function"
    },
    {
      "inputs": [
        {
          "internalType": "bytes4",
          "name": "interfaceId",
          "type": "bytes4"
        }
      ],
      "name": "supportsInterface",
      "outputs": [
        {
          "internalType": "bool",
          "name": "",
          "type": "bool"
        }
      ],
      "stateMutability": "view",
      "type": "function"
    },
    {
      "inputs": [],
      "name": "symbol",
      "outputs": [
        {
          "internalType": "string",
          "name": "",
          "type": "string"
        }
      ],
      "stateMutability": "view",
      "type": "function"
    },
    {
      "inputs": [],
      "name": "totalSupply",
      "outputs": [
        {
          "internalType": "uint256",
          "name": "",
          "type": "uint256"
        }
      ],
      "stateMutability": "view",
      "type": "function"
    },
    {
      "inputs": [
        {
          "internalType": "address",
          "name": "to",
          "type": "address"
        },
        {
          "internalType": "uint256",
          "name": "amount",
          "type": "uint256"
        }
      ],
      "name": "transfer",
      "outputs": [
        {
          "internalType": "bool",
          "name": "",
          "type": "bool"
        }
      ],
      "stateMutability": "nonpayable",
      "type": "function"
    },
    {
      "inputs": [
        {
          "internalType": "address",
          "name": "from",
          "type": "address"
        },
        {
          "internalType": "address",
          "name": "to",
          "type": "address"
        },
        {
          "internalType": "uint256",
          "name": "amount",
          "type": "uint256"
        }
      ],
      "name": "transferFrom",
      "outputs": [
        {
          "internalType": "bool",
          "name": "",
          "type": "bool"
        }
      ],
      "stateMutability": "nonpayable",
      "type": "function"
    },
    {
      "inputs": [],
      "name": "unpause",
      "outputs": [],
      "stateMutability": "nonpayable",
      "type": "function"
    },
    {
      "inputs": [
        {
          "internalType": "uint256",
          "name": "amount",
          "type": "uint256"
        }
      ],
      "name": "withdraw",
      "outputs": [],
      "stateMutability": "nonpayable",
      "type": "function"
    }
  ],
  "bytecode": "0x60806040523480156200001157600080fd5b506200001c62000022565b62000152565b6200002e60ff62000031565b50565b60008054610100900460ff1615620000ca578160ff1660011480156200006a575062000068306200014360201b62000f6e1760201c565b155b620000c25760405162461bcd60e51b815260206004820152602e6024820152600080516020620038f683398151915260448201526d191e481a5b9a5d1a585b1a5e995960921b60648201526084015b60405180910390fd5b506000919050565b60005460ff808416911610620001295760405162461bcd60e51b815260206004820152602e6024820152600080516020620038f683398151915260448201526d191e481a5b9a5d1a585b1a5e995960921b6064820152608401620000b9565b506000805460ff191660ff92909216919091179055600190565b6001600160a01b03163b151590565b61379480620001626000396000f3fe608060405234801561001057600080fd5b50600436106102415760003560e01c80637ecebe0011610145578063a9059cbb116100bd578063cf2c52cb1161008c578063d547741f11610071578063d547741f1461050b578063dd62ed3e1461051e578063e63ab1e91461056457600080fd5b8063cf2c52cb146104e5578063d505accf146104f857600080fd5b8063a9059cbb1461048c578063ac9650d81461049f578063c4d66de8146104bf578063ca15c873146104d257600080fd5b806391d1485411610114578063a217fddf116100f9578063a217fddf1461044a578063a3b0b5a314610452578063a457c2d71461047957600080fd5b806391d14854146103fb57806395d89b411461044257600080fd5b80637ecebe00146103a05780638129fc1c146103b35780638456cb59146103bb5780639010d07c146103c357600080fd5b8063313ce567116101d85780633f4ba83a116101a75780635c975abb1161018c5780635c975abb1461034c57806370a082311461035757806379cc67901461038d57600080fd5b80633f4ba83a1461034457806342966c68146102df57600080fd5b8063313ce567146103075780633644e5151461031657806336568abe1461031e578063395093511461033157600080fd5b806323b872dd1161021457806323b872dd146102a8578063248a9ca3146102bb5780632e1a7d4d146102df5780632f2ff15d146102f457600080fd5b806301ffc9a71461024657806306fdde031461026e578063095ea7b31461028357806318160ddd14610296575b600080fd5b610259610254366004612ec9565b61058b565b60405190151581526020015b60405180910390f35b6102766105e7565b6040516102659190612f81565b610259610291366004612fb8565b610679565b6035545b604051908152602001610265565b6102596102b6366004612fe2565b610691565b61029a6102c936600461301e565b6000908152610162602052604090206001015490565b6102f26102ed36600461301e565b6106b7565b005b6102f2610302366004613037565b6106c4565b60405160128152602001610265565b61029a6106ef565b6102f261032c366004613037565b6106fe565b61025961033f366004612fb8565b6107b6565b6102f2610802565b60fe5460ff16610259565b61029a610365366004613063565b73ffffffffffffffffffffffffffffffffffffffff1660009081526033602052604090205490565b6102f261039b366004612fb8565b610834565b61029a6103ae366004613063565b610849565b6102f2610874565b6102f26108a6565b6103d66103d136600461307e565b6108d8565b60405173ffffffffffffffffffffffffffffffffffffffff9091168152602001610265565b610259610409366004613037565b60009182526101626020908152604080842073ffffffffffffffffffffffffffffffffffffffff93909316845291905290205460ff1690565b6102766108f1565b61029a600081565b61029a7f8f4f2da22e8ac8f11e15f9fc141cddbb5deea8800186560abb6e68c5496619a981565b610259610487366004612fb8565b610900565b61025961049a366004612fb8565b6109dc565b6104b26104ad3660046130a0565b6109ea565b6040516102659190613115565b6102f26104cd366004613063565b610adf565b61029a6104e036600461301e565b610d26565b6102f26104f3366004613195565b610d3e565b6102f2610506366004613218565b610d89565b6102f2610519366004613037565b610f48565b61029a61052c36600461328b565b73ffffffffffffffffffffffffffffffffffffffff918216600090815260346020908152604080832093909416825291909152205490565b61029a7f65d7a28e3265b37a6474929f336521b332c1681b933f6cb9f3376673440d862a81565b60007fffffffff0000000000000000000000000000000000000000000000000000000082167f5a05180f0000000000000000000000000000000000000000000000000000000014806105e157506105e182610f8a565b92915050565b6060603680546105f6906132b5565b80601f0160208091040260200160405190810160405280929190818152602001828054610622906132b5565b801561066f5780601f106106445761010080835404028352916020019161066f565b820191906000526020600020905b81548152906001019060200180831161065257829003601f168201915b5050505050905090565b600033610687818585611021565b5060019392505050565b60003361069f858285611099565b6106aa858585611170565b60019150505b9392505050565b6106c1338261142e565b50565b600082815261016260205260409020600101546106e081611627565b6106ea8383611631565b505050565b60006106f96116a8565b905090565b73ffffffffffffffffffffffffffffffffffffffff811633146107a8576040517f08c379a000000000000000000000000000000000000000000000000000000000815260206004820152602f60248201527f416363657373436f6e74726f6c3a2063616e206f6e6c792072656e6f756e636560448201527f20726f6c657320666f722073656c66000000000000000000000000000000000060648201526084015b60405180910390fd5b6107b28282611723565b5050565b33600081815260346020908152604080832073ffffffffffffffffffffffffffffffffffffffff8716845290915281205490919061068790829086906107fd908790613331565b611021565b7f65d7a28e3265b37a6474929f336521b332c1681b933f6cb9f3376673440d862a61082c81611627565b6106c161179a565b61083f823383611099565b6107b2828261142e565b73ffffffffffffffffffffffffffffffffffffffff8116600090815260cb60205260408120546105e1565b6040517fc095a43700000000000000000000000000000000000000000000000000000000815260040160405180910390fd5b7f65d7a28e3265b37a6474929f336521b332c1681b933f6cb9f3376673440d862a6108d081611627565b6106c161187b565b6000828152610194602052604081206106b0908361193b565b6060603780546105f6906132b5565b33600081815260346020908152604080832073ffffffffffffffffffffffffffffffffffffffff87168452909152812054909190838110156109c4576040517f08c379a000000000000000000000000000000000000000000000000000000000815260206004820152602560248201527f45524332303a2064656372656173656420616c6c6f77616e63652062656c6f7760448201527f207a65726f000000000000000000000000000000000000000000000000000000606482015260840161079f565b6109d18286868403611021565b506001949350505050565b600033610687818585611170565b60608167ffffffffffffffff811115610a0557610a05613349565b604051908082528060200260200182016040528015610a3857816020015b6060815260200190600190039081610a235790505b50905060005b82811015610ad857610aa830858584818110610a5c57610a5c613378565b9050602002810190610a6e91906133a7565b8080601f01602080910402602001604051908101604052809392919081815260200183838082843760009201919091525061194792505050565b828281518110610aba57610aba613378565b60200260200101819052508080610ad090613413565b915050610a3e565b5092915050565b6000610aeb6001611a86565b90508015610b2057600080547fffffffffffffffffffffffffffffffffffffffffffffffffffffffffffff00ff166101001790555b610b28611c11565b610b30611c11565b610b38611c11565b610b40611c11565b610b48611caa565b610b50611d6b565b610b58611c11565b610bcc6040518060400160405280600481526020017f4e4f5249000000000000000000000000000000000000000000000000000000008152506040518060400160405280600481526020017f4e4f524900000000000000000000000000000000000000000000000000000000815250611e37565b610c406040518060400160405280600481526020017f4e4f5249000000000000000000000000000000000000000000000000000000008152506040518060400160405280600181526020017f3100000000000000000000000000000000000000000000000000000000000000815250611ee7565b610c7e6040518060400160405280600481526020017f4e4f524900000000000000000000000000000000000000000000000000000000815250611f98565b610c86611c11565b610c8e611c11565b610c96611d6b565b610cc07f8f4f2da22e8ac8f11e15f9fc141cddbb5deea8800186560abb6e68c5496619a983611631565b80156107b257600080547fffffffffffffffffffffffffffffffffffffffffffffffffffffffffffff00ff169055604051600181527f7f26b83ff96e1f2b6a682f133852f6798a09c465da95921460cefb38474024989060200160405180910390a15050565b6000818152610194602052604081206105e19061202f565b7f8f4f2da22e8ac8f11e15f9fc141cddbb5deea8800186560abb6e68c5496619a9610d6881611627565b6000610d768385018561301e565b9050610d828582612039565b5050505050565b83421115610df3576040517f08c379a000000000000000000000000000000000000000000000000000000000815260206004820152601d60248201527f45524332305065726d69743a206578706972656420646561646c696e65000000604482015260640161079f565b60007f6e71edae12b1b97f4d1f60370fef10105fa2faae0126114a169c64845d6126c9888888610e228c612165565b60408051602081019690965273ffffffffffffffffffffffffffffffffffffffff94851690860152929091166060840152608083015260a082015260c0810186905260e0016040516020818303038152906040528051906020012090506000610e8a8261219a565b90506000610e9a82878787612203565b90508973ffffffffffffffffffffffffffffffffffffffff168173ffffffffffffffffffffffffffffffffffffffff1614610f31576040517f08c379a000000000000000000000000000000000000000000000000000000000815260206004820152601e60248201527f45524332305065726d69743a20696e76616c6964207369676e61747572650000604482015260640161079f565b610f3c8a8a8a611021565b50505050505050505050565b60008281526101626020526040902060010154610f6481611627565b6106ea8383611723565b73ffffffffffffffffffffffffffffffffffffffff163b151590565b60007fffffffff0000000000000000000000000000000000000000000000000000000082167f7965db0b0000000000000000000000000000000000000000000000000000000014806105e157507f01ffc9a7000000000000000000000000000000000000000000000000000000007fffffffff000000000000000000000000000000000000000000000000000000008316146105e1565b60fe5460ff161561108e576040517f08c379a000000000000000000000000000000000000000000000000000000000815260206004820152601060248201527f5061757361626c653a2070617573656400000000000000000000000000000000604482015260640161079f565b6106ea83838361222b565b73ffffffffffffffffffffffffffffffffffffffff8381166000908152603460209081526040808320938616835292905220547fffffffffffffffffffffffffffffffffffffffffffffffffffffffffffffffff811461116a578181101561115d576040517f08c379a000000000000000000000000000000000000000000000000000000000815260206004820152601d60248201527f45524332303a20696e73756666696369656e7420616c6c6f77616e6365000000604482015260640161079f565b61116a8484848403611021565b50505050565b73ffffffffffffffffffffffffffffffffffffffff8316611213576040517f08c379a000000000000000000000000000000000000000000000000000000000815260206004820152602560248201527f45524332303a207472616e736665722066726f6d20746865207a65726f20616460448201527f6472657373000000000000000000000000000000000000000000000000000000606482015260840161079f565b73ffffffffffffffffffffffffffffffffffffffff82166112b6576040517f08c379a000000000000000000000000000000000000000000000000000000000815260206004820152602360248201527f45524332303a207472616e7366657220746f20746865207a65726f206164647260448201527f6573730000000000000000000000000000000000000000000000000000000000606482015260840161079f565b6112c18383836123de565b73ffffffffffffffffffffffffffffffffffffffff831660009081526033602052604090205481811015611377576040517f08c379a000000000000000000000000000000000000000000000000000000000815260206004820152602660248201527f45524332303a207472616e7366657220616d6f756e742065786365656473206260448201527f616c616e63650000000000000000000000000000000000000000000000000000606482015260840161079f565b73ffffffffffffffffffffffffffffffffffffffff8085166000908152603360205260408082208585039055918516815290812080548492906113bb908490613331565b925050819055508273ffffffffffffffffffffffffffffffffffffffff168473ffffffffffffffffffffffffffffffffffffffff167fddf252ad1be2c89b69c2b068fc378daa952ba7f163c4a11628f55a4df523b3ef8460405161142191815260200190565b60405180910390a361116a565b73ffffffffffffffffffffffffffffffffffffffff82166114d1576040517f08c379a000000000000000000000000000000000000000000000000000000000815260206004820152602160248201527f45524332303a206275726e2066726f6d20746865207a65726f2061646472657360448201527f7300000000000000000000000000000000000000000000000000000000000000606482015260840161079f565b6114dd826000836123de565b73ffffffffffffffffffffffffffffffffffffffff821660009081526033602052604090205481811015611593576040517f08c379a000000000000000000000000000000000000000000000000000000000815260206004820152602260248201527f45524332303a206275726e20616d6f756e7420657863656564732062616c616e60448201527f6365000000000000000000000000000000000000000000000000000000000000606482015260840161079f565b73ffffffffffffffffffffffffffffffffffffffff831660009081526033602052604081208383039055603580548492906115cf90849061344b565b909155505060405182815260009073ffffffffffffffffffffffffffffffffffffffff8516907fddf252ad1be2c89b69c2b068fc378daa952ba7f163c4a11628f55a4df523b3ef9060200160405180910390a3505050565b6106c1813361244b565b60fe5460ff161561169e576040517f08c379a000000000000000000000000000000000000000000000000000000000815260206004820152601060248201527f5061757361626c653a2070617573656400000000000000000000000000000000604482015260640161079f565b6107b2828261251e565b60006106f97f8b73c3c69bb8fe3d512ecc4cf759cc79239f7b179b0ffacaa9a75d522b39400f6116d760975490565b6098546040805160208101859052908101839052606081018290524660808201523060a082015260009060c0016040516020818303038152906040528051906020012090509392505050565b60fe5460ff1615611790576040517f08c379a000000000000000000000000000000000000000000000000000000000815260206004820152601060248201527f5061757361626c653a2070617573656400000000000000000000000000000000604482015260640161079f565b6107b28282612541565b60fe5460ff16611806576040517f08c379a000000000000000000000000000000000000000000000000000000000815260206004820152601460248201527f5061757361626c653a206e6f7420706175736564000000000000000000000000604482015260640161079f565b60fe80547fffffffffffffffffffffffffffffffffffffffffffffffffffffffffffffff001690557f5db9ee0a495bf2e6ff9c91a7834c1ba4fdd244a5e8aa4e537bd38aeae4b073aa335b60405173ffffffffffffffffffffffffffffffffffffffff909116815260200160405180910390a1565b60fe5460ff16156118e8576040517f08c379a000000000000000000000000000000000000000000000000000000000815260206004820152601060248201527f5061757361626c653a2070617573656400000000000000000000000000000000604482015260640161079f565b60fe80547fffffffffffffffffffffffffffffffffffffffffffffffffffffffffffffff001660011790557f62e78cea01bee320cd4e420270b5ea74000d11b0c9f74754ebdbfc544b05a2586118513390565b60006106b08383612564565b606073ffffffffffffffffffffffffffffffffffffffff83163b6119ed576040517f08c379a000000000000000000000000000000000000000000000000000000000815260206004820152602660248201527f416464726573733a2064656c65676174652063616c6c20746f206e6f6e2d636f60448201527f6e74726163740000000000000000000000000000000000000000000000000000606482015260840161079f565b6000808473ffffffffffffffffffffffffffffffffffffffff1684604051611a159190613462565b600060405180830381855af49150503d8060008114611a50576040519150601f19603f3d011682016040523d82523d6000602084013e611a55565b606091505b5091509150611a7d82826040518060600160405280602781526020016137386027913961258e565b95945050505050565b60008054610100900460ff1615611b3d578160ff166001148015611aa95750303b155b611b35576040517f08c379a000000000000000000000000000000000000000000000000000000000815260206004820152602e60248201527f496e697469616c697a61626c653a20636f6e747261637420697320616c72656160448201527f647920696e697469616c697a6564000000000000000000000000000000000000606482015260840161079f565b506000919050565b60005460ff808416911610611bd4576040517f08c379a000000000000000000000000000000000000000000000000000000000815260206004820152602e60248201527f496e697469616c697a61626c653a20636f6e747261637420697320616c72656160448201527f647920696e697469616c697a6564000000000000000000000000000000000000606482015260840161079f565b50600080547fffffffffffffffffffffffffffffffffffffffffffffffffffffffffffffff001660ff92909216919091179055600190565b919050565b600054610100900460ff16611ca8576040517f08c379a000000000000000000000000000000000000000000000000000000000815260206004820152602b60248201527f496e697469616c697a61626c653a20636f6e7472616374206973206e6f74206960448201527f6e697469616c697a696e67000000000000000000000000000000000000000000606482015260840161079f565b565b600054610100900460ff16611d41576040517f08c379a000000000000000000000000000000000000000000000000000000000815260206004820152602b60248201527f496e697469616c697a61626c653a20636f6e7472616374206973206e6f74206960448201527f6e697469616c697a696e67000000000000000000000000000000000000000000606482015260840161079f565b60fe80547fffffffffffffffffffffffffffffffffffffffffffffffffffffffffffffff00169055565b600054610100900460ff16611e02576040517f08c379a000000000000000000000000000000000000000000000000000000000815260206004820152602b60248201527f496e697469616c697a61626c653a20636f6e7472616374206973206e6f74206960448201527f6e697469616c697a696e67000000000000000000000000000000000000000000606482015260840161079f565b611e0d600033611631565b611ca87f65d7a28e3265b37a6474929f336521b332c1681b933f6cb9f3376673440d862a33611631565b600054610100900460ff16611ece576040517f08c379a000000000000000000000000000000000000000000000000000000000815260206004820152602b60248201527f496e697469616c697a61626c653a20636f6e7472616374206973206e6f74206960448201527f6e697469616c697a696e67000000000000000000000000000000000000000000606482015260840161079f565b6036611eda83826134cc565b5060376106ea82826134cc565b600054610100900460ff16611f7e576040517f08c379a000000000000000000000000000000000000000000000000000000000815260206004820152602b60248201527f496e697469616c697a61626c653a20636f6e7472616374206973206e6f74206960448201527f6e697469616c697a696e67000000000000000000000000000000000000000000606482015260840161079f565b815160209283012081519190920120609791909155609855565b600054610100900460ff166106c1576040517f08c379a000000000000000000000000000000000000000000000000000000000815260206004820152602b60248201527f496e697469616c697a61626c653a20636f6e7472616374206973206e6f74206960448201527f6e697469616c697a696e67000000000000000000000000000000000000000000606482015260840161079f565b60006105e1825490565b73ffffffffffffffffffffffffffffffffffffffff82166120b6576040517f08c379a000000000000000000000000000000000000000000000000000000000815260206004820152601f60248201527f45524332303a206d696e7420746f20746865207a65726f206164647265737300604482015260640161079f565b6120c2600083836123de565b80603560008282546120d49190613331565b909155505073ffffffffffffffffffffffffffffffffffffffff82166000908152603360205260408120805483929061210e908490613331565b909155505060405181815273ffffffffffffffffffffffffffffffffffffffff8316906000907fddf252ad1be2c89b69c2b068fc378daa952ba7f163c4a11628f55a4df523b3ef9060200160405180910390a35050565b73ffffffffffffffffffffffffffffffffffffffff8116600090815260cb602052604090208054600181018255905b50919050565b60006105e16121a76116a8565b836040517f19010000000000000000000000000000000000000000000000000000000000006020820152602281018390526042810182905260009060620160405160208183030381529060405280519060200120905092915050565b6000806000612214878787876125e1565b91509150612221816126f9565b5095945050505050565b73ffffffffffffffffffffffffffffffffffffffff83166122cd576040517f08c379a0000000000000000000000000000000000000000000000000000000008152602060048201526024808201527f45524332303a20617070726f76652066726f6d20746865207a65726f2061646460448201527f7265737300000000000000000000000000000000000000000000000000000000606482015260840161079f565b73ffffffffffffffffffffffffffffffffffffffff8216612370576040517f08c379a000000000000000000000000000000000000000000000000000000000815260206004820152602260248201527f45524332303a20617070726f766520746f20746865207a65726f20616464726560448201527f7373000000000000000000000000000000000000000000000000000000000000606482015260840161079f565b73ffffffffffffffffffffffffffffffffffffffff83811660008181526034602090815260408083209487168084529482529182902085905590518481527f8c5be1e5ebec7d5bd14f71427d1e84f3dd0314c0f7b2291e5b200ac8c7c3b925910160405180910390a3505050565b60fe5460ff16156106ea576040517f08c379a000000000000000000000000000000000000000000000000000000000815260206004820152601060248201527f5061757361626c653a2070617573656400000000000000000000000000000000604482015260640161079f565b60008281526101626020908152604080832073ffffffffffffffffffffffffffffffffffffffff8516845290915290205460ff166107b2576124a48173ffffffffffffffffffffffffffffffffffffffff16601461294d565b6124af83602061294d565b6040516020016124c09291906135e6565b604080517fffffffffffffffffffffffffffffffffffffffffffffffffffffffffffffffe0818403018152908290527f08c379a000000000000000000000000000000000000000000000000000000000825261079f91600401612f81565b6125288282612b90565b6000828152610194602052604090206106ea9082612c86565b61254b8282612ca8565b6000828152610194602052604090206106ea9082612d65565b600082600001828154811061257b5761257b613378565b9060005260206000200154905092915050565b6060831561259d5750816106b0565b8251156125ad5782518084602001fd5b816040517f08c379a000000000000000000000000000000000000000000000000000000000815260040161079f9190612f81565b6000807f7fffffffffffffffffffffffffffffff5d576e7357a4501ddfe92f46681b20a083111561261857506000905060036126f0565b8460ff16601b1415801561263057508460ff16601c14155b1561264157506000905060046126f0565b6040805160008082526020820180845289905260ff881692820192909252606081018690526080810185905260019060a0016020604051602081039080840390855afa158015612695573d6000803e3d6000fd5b50506040517fffffffffffffffffffffffffffffffffffffffffffffffffffffffffffffffe0015191505073ffffffffffffffffffffffffffffffffffffffff81166126e9576000600192509250506126f0565b9150600090505b94509492505050565b600081600481111561270d5761270d613667565b036127155750565b600181600481111561272957612729613667565b03612790576040517f08c379a000000000000000000000000000000000000000000000000000000000815260206004820152601860248201527f45434453413a20696e76616c6964207369676e61747572650000000000000000604482015260640161079f565b60028160048111156127a4576127a4613667565b0361280b576040517f08c379a000000000000000000000000000000000000000000000000000000000815260206004820152601f60248201527f45434453413a20696e76616c6964207369676e6174757265206c656e67746800604482015260640161079f565b600381600481111561281f5761281f613667565b036128ac576040517f08c379a000000000000000000000000000000000000000000000000000000000815260206004820152602260248201527f45434453413a20696e76616c6964207369676e6174757265202773272076616c60448201527f7565000000000000000000000000000000000000000000000000000000000000606482015260840161079f565b60048160048111156128c0576128c0613667565b036106c1576040517f08c379a000000000000000000000000000000000000000000000000000000000815260206004820152602260248201527f45434453413a20696e76616c6964207369676e6174757265202776272076616c60448201527f7565000000000000000000000000000000000000000000000000000000000000606482015260840161079f565b6060600061295c836002613696565b612967906002613331565b67ffffffffffffffff81111561297f5761297f613349565b6040519080825280601f01601f1916602001820160405280156129a9576020820181803683370190505b5090507f3000000000000000000000000000000000000000000000000000000000000000816000815181106129e0576129e0613378565b60200101907effffffffffffffffffffffffffffffffffffffffffffffffffffffffffffff1916908160001a9053507f780000000000000000000000000000000000000000000000000000000000000081600181518110612a4357612a43613378565b60200101907effffffffffffffffffffffffffffffffffffffffffffffffffffffffffffff1916908160001a9053506000612a7f846002613696565b612a8a906001613331565b90505b6001811115612b27577f303132333435363738396162636465660000000000000000000000000000000085600f1660108110612acb57612acb613378565b1a60f81b828281518110612ae157612ae1613378565b60200101907effffffffffffffffffffffffffffffffffffffffffffffffffffffffffffff1916908160001a90535060049490941c93612b20816136d3565b9050612a8d565b5083156106b0576040517f08c379a000000000000000000000000000000000000000000000000000000000815260206004820181905260248201527f537472696e67733a20686578206c656e67746820696e73756666696369656e74604482015260640161079f565b60008281526101626020908152604080832073ffffffffffffffffffffffffffffffffffffffff8516845290915290205460ff166107b25760008281526101626020908152604080832073ffffffffffffffffffffffffffffffffffffffff85168452909152902080547fffffffffffffffffffffffffffffffffffffffffffffffffffffffffffffff00166001179055612c283390565b73ffffffffffffffffffffffffffffffffffffffff168173ffffffffffffffffffffffffffffffffffffffff16837f2f8788117e7eff1d82e926ec794901d17c78024a50270940304540a733656f0d60405160405180910390a45050565b60006106b08373ffffffffffffffffffffffffffffffffffffffff8416612d87565b60008281526101626020908152604080832073ffffffffffffffffffffffffffffffffffffffff8516845290915290205460ff16156107b25760008281526101626020908152604080832073ffffffffffffffffffffffffffffffffffffffff8516808552925280832080547fffffffffffffffffffffffffffffffffffffffffffffffffffffffffffffff0016905551339285917ff6391f5c32d9c69d2a47ea670b442974b53935d1edc7fd64eb21e047a839171b9190a45050565b60006106b08373ffffffffffffffffffffffffffffffffffffffff8416612dd6565b6000818152600183016020526040812054612dce575081546001818101845560008481526020808220909301849055845484825282860190935260409020919091556105e1565b5060006105e1565b60008181526001830160205260408120548015612ebf576000612dfa60018361344b565b8554909150600090612e0e9060019061344b565b9050818114612e73576000866000018281548110612e2e57612e2e613378565b9060005260206000200154905080876000018481548110612e5157612e51613378565b6000918252602080832090910192909255918252600188019052604090208390555b8554869080612e8457612e84613708565b6001900381819060005260206000200160009055905585600101600086815260200190815260200160002060009055600193505050506105e1565b60009150506105e1565b600060208284031215612edb57600080fd5b81357fffffffff00000000000000000000000000000000000000000000000000000000811681146106b057600080fd5b60005b83811015612f26578181015183820152602001612f0e565b8381111561116a5750506000910152565b60008151808452612f4f816020860160208601612f0b565b601f017fffffffffffffffffffffffffffffffffffffffffffffffffffffffffffffffe0169290920160200192915050565b6020815260006106b06020830184612f37565b803573ffffffffffffffffffffffffffffffffffffffff81168114611c0c57600080fd5b60008060408385031215612fcb57600080fd5b612fd483612f94565b946020939093013593505050565b600080600060608486031215612ff757600080fd5b61300084612f94565b925061300e60208501612f94565b9150604084013590509250925092565b60006020828403121561303057600080fd5b5035919050565b6000806040838503121561304a57600080fd5b8235915061305a60208401612f94565b90509250929050565b60006020828403121561307557600080fd5b6106b082612f94565b6000806040838503121561309157600080fd5b50508035926020909101359150565b600080602083850312156130b357600080fd5b823567ffffffffffffffff808211156130cb57600080fd5b818501915085601f8301126130df57600080fd5b8135818111156130ee57600080fd5b8660208260051b850101111561310357600080fd5b60209290920196919550909350505050565b6000602080830181845280855180835260408601915060408160051b870101925083870160005b82811015613188577fffffffffffffffffffffffffffffffffffffffffffffffffffffffffffffffc0888603018452613176858351612f37565b9450928501929085019060010161313c565b5092979650505050505050565b6000806000604084860312156131aa57600080fd5b6131b384612f94565b9250602084013567ffffffffffffffff808211156131d057600080fd5b818601915086601f8301126131e457600080fd5b8135818111156131f357600080fd5b87602082850101111561320557600080fd5b6020830194508093505050509250925092565b600080600080600080600060e0888a03121561323357600080fd5b61323c88612f94565b965061324a60208901612f94565b95506040880135945060608801359350608088013560ff8116811461326e57600080fd5b9699959850939692959460a0840135945060c09093013592915050565b6000806040838503121561329e57600080fd5b6132a783612f94565b915061305a60208401612f94565b600181811c908216806132c957607f821691505b602082108103612194577f4e487b7100000000000000000000000000000000000000000000000000000000600052602260045260246000fd5b7f4e487b7100000000000000000000000000000000000000000000000000000000600052601160045260246000fd5b6000821982111561334457613344613302565b500190565b7f4e487b7100000000000000000000000000000000000000000000000000000000600052604160045260246000fd5b7f4e487b7100000000000000000000000000000000000000000000000000000000600052603260045260246000fd5b60008083357fffffffffffffffffffffffffffffffffffffffffffffffffffffffffffffffe18436030181126133dc57600080fd5b83018035915067ffffffffffffffff8211156133f757600080fd5b60200191503681900382131561340c57600080fd5b9250929050565b60007fffffffffffffffffffffffffffffffffffffffffffffffffffffffffffffffff820361344457613444613302565b5060010190565b60008282101561345d5761345d613302565b500390565b60008251613474818460208701612f0b565b9190910192915050565b601f8211156106ea57600081815260208120601f850160051c810160208610156134a55750805b601f850160051c820191505b818110156134c4578281556001016134b1565b505050505050565b815167ffffffffffffffff8111156134e6576134e6613349565b6134fa816134f484546132b5565b8461347e565b602080601f83116001811461354d57600084156135175750858301515b7fffffffffffffffffffffffffffffffffffffffffffffffffffffffffffffffff600386901b1c1916600185901b1785556134c4565b6000858152602081207fffffffffffffffffffffffffffffffffffffffffffffffffffffffffffffffe08616915b8281101561359a5788860151825594840194600190910190840161357b565b50858210156135d657878501517fffffffffffffffffffffffffffffffffffffffffffffffffffffffffffffffff600388901b60f8161c191681555b5050505050600190811b01905550565b7f416363657373436f6e74726f6c3a206163636f756e742000000000000000000081526000835161361e816017850160208801612f0b565b7f206973206d697373696e6720726f6c6520000000000000000000000000000000601791840191820152835161365b816028840160208801612f0b565b01602801949350505050565b7f4e487b7100000000000000000000000000000000000000000000000000000000600052602160045260246000fd5b6000817fffffffffffffffffffffffffffffffffffffffffffffffffffffffffffffffff04831182151516156136ce576136ce613302565b500290565b6000816136e2576136e2613302565b507fffffffffffffffffffffffffffffffffffffffffffffffffffffffffffffffff0190565b7f4e487b7100000000000000000000000000000000000000000000000000000000600052603160045260246000fdfe416464726573733a206c6f772d6c6576656c2064656c65676174652063616c6c206661696c6564a2646970667358221220f736ed181e923776c7426751259766e4e1fabf472df6bd67f79e2b08c83f87e064736f6c634300080f0033496e697469616c697a61626c653a20636f6e747261637420697320616c726561",
  "linkReferences": {},
  "deployedLinkReferences": {}
}