{
  "_format": "hh-sol-artifact-1",
  "contractName": "BridgedPolygonNORI",
  "sourceName": "contracts/BridgedPolygonNORI.sol",
  "abi": [
    {
      "anonymous": false,
      "inputs": [
        {
          "indexed": true,
          "internalType": "address",
          "name": "owner",
          "type": "address"
        },
        {
          "indexed": true,
          "internalType": "address",
          "name": "spender",
          "type": "address"
        },
        {
          "indexed": false,
          "internalType": "uint256",
          "name": "value",
          "type": "uint256"
        }
      ],
      "name": "Approval",
      "type": "event"
    },
    {
      "anonymous": false,
      "inputs": [
        {
          "indexed": true,
          "internalType": "address",
          "name": "operator",
          "type": "address"
        },
        {
          "indexed": true,
          "internalType": "address",
          "name": "tokenHolder",
          "type": "address"
        }
      ],
      "name": "AuthorizedOperator",
      "type": "event"
    },
    {
      "anonymous": false,
      "inputs": [
        {
          "indexed": true,
          "internalType": "address",
          "name": "operator",
          "type": "address"
        },
        {
          "indexed": true,
          "internalType": "address",
          "name": "from",
          "type": "address"
        },
        {
          "indexed": false,
          "internalType": "uint256",
          "name": "amount",
          "type": "uint256"
        },
        {
          "indexed": false,
          "internalType": "bytes",
          "name": "data",
          "type": "bytes"
        },
        {
          "indexed": false,
          "internalType": "bytes",
          "name": "operatorData",
          "type": "bytes"
        }
      ],
      "name": "Burned",
      "type": "event"
    },
    {
      "anonymous": false,
      "inputs": [
        {
          "indexed": true,
          "internalType": "address",
          "name": "operator",
          "type": "address"
        },
        {
          "indexed": true,
          "internalType": "address",
          "name": "to",
          "type": "address"
        },
        {
          "indexed": false,
          "internalType": "uint256",
          "name": "amount",
          "type": "uint256"
        },
        {
          "indexed": false,
          "internalType": "bytes",
          "name": "data",
          "type": "bytes"
        },
        {
          "indexed": false,
          "internalType": "bytes",
          "name": "operatorData",
          "type": "bytes"
        }
      ],
      "name": "Minted",
      "type": "event"
    },
    {
      "anonymous": false,
      "inputs": [
        {
          "indexed": false,
          "internalType": "address",
          "name": "account",
          "type": "address"
        }
      ],
      "name": "Paused",
      "type": "event"
    },
    {
      "anonymous": false,
      "inputs": [
        {
          "indexed": true,
          "internalType": "address",
          "name": "operator",
          "type": "address"
        },
        {
          "indexed": true,
          "internalType": "address",
          "name": "tokenHolder",
          "type": "address"
        }
      ],
      "name": "RevokedOperator",
      "type": "event"
    },
    {
      "anonymous": false,
      "inputs": [
        {
          "indexed": true,
          "internalType": "bytes32",
          "name": "role",
          "type": "bytes32"
        },
        {
          "indexed": true,
          "internalType": "bytes32",
          "name": "previousAdminRole",
          "type": "bytes32"
        },
        {
          "indexed": true,
          "internalType": "bytes32",
          "name": "newAdminRole",
          "type": "bytes32"
        }
      ],
      "name": "RoleAdminChanged",
      "type": "event"
    },
    {
      "anonymous": false,
      "inputs": [
        {
          "indexed": true,
          "internalType": "bytes32",
          "name": "role",
          "type": "bytes32"
        },
        {
          "indexed": true,
          "internalType": "address",
          "name": "account",
          "type": "address"
        },
        {
          "indexed": true,
          "internalType": "address",
          "name": "sender",
          "type": "address"
        }
      ],
      "name": "RoleGranted",
      "type": "event"
    },
    {
      "anonymous": false,
      "inputs": [
        {
          "indexed": true,
          "internalType": "bytes32",
          "name": "role",
          "type": "bytes32"
        },
        {
          "indexed": true,
          "internalType": "address",
          "name": "account",
          "type": "address"
        },
        {
          "indexed": true,
          "internalType": "address",
          "name": "sender",
          "type": "address"
        }
      ],
      "name": "RoleRevoked",
      "type": "event"
    },
    {
      "anonymous": false,
      "inputs": [
        {
          "indexed": true,
          "internalType": "address",
          "name": "operator",
          "type": "address"
        },
        {
          "indexed": true,
          "internalType": "address",
          "name": "from",
          "type": "address"
        },
        {
          "indexed": true,
          "internalType": "address",
          "name": "to",
          "type": "address"
        },
        {
          "indexed": false,
          "internalType": "uint256",
          "name": "amount",
          "type": "uint256"
        },
        {
          "indexed": false,
          "internalType": "bytes",
          "name": "data",
          "type": "bytes"
        },
        {
          "indexed": false,
          "internalType": "bytes",
          "name": "operatorData",
          "type": "bytes"
        }
      ],
      "name": "Sent",
      "type": "event"
    },
    {
      "anonymous": false,
      "inputs": [
        {
          "indexed": true,
          "internalType": "address",
          "name": "from",
          "type": "address"
        },
        {
          "indexed": false,
          "internalType": "address[]",
          "name": "recipients",
          "type": "address[]"
        },
        {
          "indexed": false,
          "internalType": "uint256[]",
          "name": "amounts",
          "type": "uint256[]"
        },
        {
          "indexed": false,
          "internalType": "bytes[]",
          "name": "userData",
          "type": "bytes[]"
        },
        {
          "indexed": false,
          "internalType": "bytes[]",
          "name": "operatorData",
          "type": "bytes[]"
        },
        {
          "indexed": false,
          "internalType": "bool[]",
          "name": "requireReceptionAck",
          "type": "bool[]"
        }
      ],
      "name": "SentBatch",
      "type": "event"
    },
    {
      "anonymous": false,
      "inputs": [
        {
          "indexed": true,
          "internalType": "address",
          "name": "from",
          "type": "address"
        },
        {
          "indexed": true,
          "internalType": "address",
          "name": "to",
          "type": "address"
        },
        {
          "indexed": false,
          "internalType": "uint256",
          "name": "value",
          "type": "uint256"
        }
      ],
      "name": "Transfer",
      "type": "event"
    },
    {
      "anonymous": false,
      "inputs": [
        {
          "indexed": false,
          "internalType": "address",
          "name": "account",
          "type": "address"
        }
      ],
      "name": "Unpaused",
      "type": "event"
    },
    {
      "inputs": [],
      "name": "DEFAULT_ADMIN_ROLE",
      "outputs": [
        {
          "internalType": "bytes32",
          "name": "",
          "type": "bytes32"
        }
      ],
      "stateMutability": "view",
      "type": "function"
    },
    {
      "inputs": [],
      "name": "DEPOSITOR_ROLE",
      "outputs": [
        {
          "internalType": "bytes32",
          "name": "",
          "type": "bytes32"
        }
      ],
      "stateMutability": "view",
      "type": "function"
    },
    {
      "inputs": [],
      "name": "PAUSER_ROLE",
      "outputs": [
        {
          "internalType": "bytes32",
          "name": "",
          "type": "bytes32"
        }
      ],
      "stateMutability": "view",
      "type": "function"
    },
    {
      "inputs": [
        {
          "internalType": "address",
          "name": "holder",
          "type": "address"
        },
        {
          "internalType": "address",
          "name": "spender",
          "type": "address"
        }
      ],
      "name": "allowance",
      "outputs": [
        {
          "internalType": "uint256",
          "name": "",
          "type": "uint256"
        }
      ],
      "stateMutability": "view",
      "type": "function"
    },
    {
      "inputs": [
        {
          "internalType": "address",
          "name": "spender",
          "type": "address"
        },
        {
          "internalType": "uint256",
          "name": "value",
          "type": "uint256"
        }
      ],
      "name": "approve",
      "outputs": [
        {
          "internalType": "bool",
          "name": "",
          "type": "bool"
        }
      ],
      "stateMutability": "nonpayable",
      "type": "function"
    },
    {
      "inputs": [
        {
          "internalType": "address",
          "name": "operator",
          "type": "address"
        }
      ],
      "name": "authorizeOperator",
      "outputs": [],
      "stateMutability": "nonpayable",
      "type": "function"
    },
    {
      "inputs": [
        {
          "internalType": "address",
          "name": "tokenHolder",
          "type": "address"
        }
      ],
      "name": "balanceOf",
      "outputs": [
        {
          "internalType": "uint256",
          "name": "",
          "type": "uint256"
        }
      ],
      "stateMutability": "view",
      "type": "function"
    },
    {
      "inputs": [
        {
          "internalType": "address[]",
          "name": "accounts",
          "type": "address[]"
        }
      ],
      "name": "balanceOfBatch",
      "outputs": [
        {
          "internalType": "uint256[]",
          "name": "",
          "type": "uint256[]"
        }
      ],
      "stateMutability": "view",
      "type": "function"
    },
    {
      "inputs": [
        {
          "internalType": "address[]",
          "name": "recipients",
          "type": "address[]"
        },
        {
          "internalType": "uint256[]",
          "name": "amounts",
          "type": "uint256[]"
        },
        {
          "internalType": "bytes[]",
          "name": "userData",
          "type": "bytes[]"
        },
        {
          "internalType": "bytes[]",
          "name": "operatorData",
          "type": "bytes[]"
        },
        {
          "internalType": "bool[]",
          "name": "requireReceptionAck",
          "type": "bool[]"
        }
      ],
      "name": "batchSend",
      "outputs": [],
      "stateMutability": "nonpayable",
      "type": "function"
    },
    {
      "inputs": [
        {
          "internalType": "uint256",
          "name": "amount",
          "type": "uint256"
        },
        {
          "internalType": "bytes",
          "name": "data",
          "type": "bytes"
        }
      ],
      "name": "burn",
      "outputs": [],
      "stateMutability": "nonpayable",
      "type": "function"
    },
    {
      "inputs": [],
      "name": "decimals",
      "outputs": [
        {
          "internalType": "uint8",
          "name": "",
          "type": "uint8"
        }
      ],
      "stateMutability": "pure",
      "type": "function"
    },
    {
      "inputs": [],
      "name": "defaultOperators",
      "outputs": [
        {
          "internalType": "address[]",
          "name": "",
          "type": "address[]"
        }
      ],
      "stateMutability": "view",
      "type": "function"
    },
    {
      "inputs": [
        {
          "internalType": "address",
          "name": "user",
          "type": "address"
        },
        {
          "internalType": "bytes",
          "name": "depositData",
          "type": "bytes"
        }
      ],
      "name": "deposit",
      "outputs": [],
      "stateMutability": "nonpayable",
      "type": "function"
    },
    {
      "inputs": [
        {
          "internalType": "bytes32",
          "name": "role",
          "type": "bytes32"
        }
      ],
      "name": "getRoleAdmin",
      "outputs": [
        {
          "internalType": "bytes32",
          "name": "",
          "type": "bytes32"
        }
      ],
      "stateMutability": "view",
      "type": "function"
    },
    {
      "inputs": [
        {
          "internalType": "bytes32",
          "name": "role",
          "type": "bytes32"
        },
        {
          "internalType": "uint256",
          "name": "index",
          "type": "uint256"
        }
      ],
      "name": "getRoleMember",
      "outputs": [
        {
          "internalType": "address",
          "name": "",
          "type": "address"
        }
      ],
      "stateMutability": "view",
      "type": "function"
    },
    {
      "inputs": [
        {
          "internalType": "bytes32",
          "name": "role",
          "type": "bytes32"
        }
      ],
      "name": "getRoleMemberCount",
      "outputs": [
        {
          "internalType": "uint256",
          "name": "",
          "type": "uint256"
        }
      ],
      "stateMutability": "view",
      "type": "function"
    },
    {
      "inputs": [
        {
          "internalType": "bytes32",
          "name": "role",
          "type": "bytes32"
        },
        {
          "internalType": "address",
          "name": "account",
          "type": "address"
        }
      ],
      "name": "grantRole",
      "outputs": [],
      "stateMutability": "nonpayable",
      "type": "function"
    },
    {
      "inputs": [],
      "name": "granularity",
      "outputs": [
        {
          "internalType": "uint256",
          "name": "",
          "type": "uint256"
        }
      ],
      "stateMutability": "view",
      "type": "function"
    },
    {
      "inputs": [
        {
          "internalType": "bytes32",
          "name": "role",
          "type": "bytes32"
        },
        {
          "internalType": "address",
          "name": "account",
          "type": "address"
        }
      ],
      "name": "hasRole",
      "outputs": [
        {
          "internalType": "bool",
          "name": "",
          "type": "bool"
        }
      ],
      "stateMutability": "view",
      "type": "function"
    },
    {
      "inputs": [],
      "name": "initialize",
      "outputs": [],
      "stateMutability": "nonpayable",
      "type": "function"
    },
    {
      "inputs": [
        {
          "internalType": "address",
          "name": "childChainManagerProxy",
          "type": "address"
        }
      ],
      "name": "initialize",
      "outputs": [],
      "stateMutability": "nonpayable",
      "type": "function"
    },
    {
      "inputs": [
        {
          "internalType": "address",
          "name": "operator",
          "type": "address"
        },
        {
          "internalType": "address",
          "name": "tokenHolder",
          "type": "address"
        }
      ],
      "name": "isOperatorFor",
      "outputs": [
        {
          "internalType": "bool",
          "name": "",
          "type": "bool"
        }
      ],
      "stateMutability": "view",
      "type": "function"
    },
    {
      "inputs": [],
      "name": "name",
      "outputs": [
        {
          "internalType": "string",
          "name": "",
          "type": "string"
        }
      ],
      "stateMutability": "view",
      "type": "function"
    },
    {
      "inputs": [
        {
          "internalType": "address",
          "name": "account",
          "type": "address"
        },
        {
          "internalType": "uint256",
          "name": "amount",
          "type": "uint256"
        },
        {
          "internalType": "bytes",
          "name": "data",
          "type": "bytes"
        },
        {
          "internalType": "bytes",
          "name": "operatorData",
          "type": "bytes"
        }
      ],
      "name": "operatorBurn",
      "outputs": [],
      "stateMutability": "nonpayable",
      "type": "function"
    },
    {
      "inputs": [
        {
          "internalType": "address",
          "name": "sender",
          "type": "address"
        },
        {
          "internalType": "address",
          "name": "recipient",
          "type": "address"
        },
        {
          "internalType": "uint256",
          "name": "amount",
          "type": "uint256"
        },
        {
          "internalType": "bytes",
          "name": "data",
          "type": "bytes"
        },
        {
          "internalType": "bytes",
          "name": "operatorData",
          "type": "bytes"
        }
      ],
      "name": "operatorSend",
      "outputs": [],
      "stateMutability": "nonpayable",
      "type": "function"
    },
    {
      "inputs": [],
      "name": "pause",
      "outputs": [],
      "stateMutability": "nonpayable",
      "type": "function"
    },
    {
      "inputs": [],
      "name": "paused",
      "outputs": [
        {
          "internalType": "bool",
          "name": "",
          "type": "bool"
        }
      ],
      "stateMutability": "view",
      "type": "function"
    },
    {
      "inputs": [
        {
          "internalType": "bytes32",
          "name": "role",
          "type": "bytes32"
        },
        {
          "internalType": "address",
          "name": "account",
          "type": "address"
        }
      ],
      "name": "renounceRole",
      "outputs": [],
      "stateMutability": "nonpayable",
      "type": "function"
    },
    {
      "inputs": [
        {
          "internalType": "address",
          "name": "operator",
          "type": "address"
        }
      ],
      "name": "revokeOperator",
      "outputs": [],
      "stateMutability": "nonpayable",
      "type": "function"
    },
    {
      "inputs": [
        {
          "internalType": "bytes32",
          "name": "role",
          "type": "bytes32"
        },
        {
          "internalType": "address",
          "name": "account",
          "type": "address"
        }
      ],
      "name": "revokeRole",
      "outputs": [],
      "stateMutability": "nonpayable",
      "type": "function"
    },
    {
      "inputs": [
        {
          "internalType": "address",
          "name": "recipient",
          "type": "address"
        },
        {
          "internalType": "uint256",
          "name": "amount",
          "type": "uint256"
        },
        {
          "internalType": "bytes",
          "name": "data",
          "type": "bytes"
        }
      ],
      "name": "send",
      "outputs": [],
      "stateMutability": "nonpayable",
      "type": "function"
    },
    {
      "inputs": [
        {
          "internalType": "bytes4",
          "name": "interfaceId",
          "type": "bytes4"
        }
      ],
      "name": "supportsInterface",
      "outputs": [
        {
          "internalType": "bool",
          "name": "",
          "type": "bool"
        }
      ],
      "stateMutability": "view",
      "type": "function"
    },
    {
      "inputs": [],
      "name": "symbol",
      "outputs": [
        {
          "internalType": "string",
          "name": "",
          "type": "string"
        }
      ],
      "stateMutability": "view",
      "type": "function"
    },
    {
      "inputs": [],
      "name": "totalSupply",
      "outputs": [
        {
          "internalType": "uint256",
          "name": "",
          "type": "uint256"
        }
      ],
      "stateMutability": "view",
      "type": "function"
    },
    {
      "inputs": [
        {
          "internalType": "address",
          "name": "recipient",
          "type": "address"
        },
        {
          "internalType": "uint256",
          "name": "amount",
          "type": "uint256"
        }
      ],
      "name": "transfer",
      "outputs": [
        {
          "internalType": "bool",
          "name": "",
          "type": "bool"
        }
      ],
      "stateMutability": "nonpayable",
      "type": "function"
    },
    {
      "inputs": [
        {
          "internalType": "address",
          "name": "holder",
          "type": "address"
        },
        {
          "internalType": "address",
          "name": "recipient",
          "type": "address"
        },
        {
          "internalType": "uint256",
          "name": "amount",
          "type": "uint256"
        }
      ],
      "name": "transferFrom",
      "outputs": [
        {
          "internalType": "bool",
          "name": "",
          "type": "bool"
        }
      ],
      "stateMutability": "nonpayable",
      "type": "function"
    },
    {
      "inputs": [],
      "name": "unpause",
      "outputs": [],
      "stateMutability": "nonpayable",
      "type": "function"
    },
    {
      "inputs": [
        {
          "internalType": "uint256",
          "name": "amount",
          "type": "uint256"
        }
      ],
      "name": "withdraw",
      "outputs": [],
      "stateMutability": "nonpayable",
      "type": "function"
    }
  ],
  "bytecode": "0x608060405234801561001057600080fd5b50613495806100206000396000f3fe608060405234801561001057600080fd5b50600436106102325760003560e01c80638456cb5911610130578063c4d66de8116100b8578063dd62ed3e1161007c578063dd62ed3e146104d4578063e63ab1e91461050d578063fad8b32a14610522578063fc673c4f14610535578063fe9d93031461054857600080fd5b8063c4d66de814610475578063ca15c87314610488578063cf2c52cb1461049b578063d547741f146104ae578063d95b6371146104c157600080fd5b806395d89b41116100ff57806395d89b41146104185780639bd9bbc614610420578063a217fddf14610433578063a3b0b5a31461043b578063a9059cbb1461046257600080fd5b80638456cb59146103bf5780639010d07c146103c757806391d14854146103f2578063959b8c3f1461040557600080fd5b8063313ce567116101be5780635c975abb116101825780635c975abb1461035d57806362ad1b831461036857806366cf8bce1461037b57806370a082311461038e5780638129fc1c146103b757600080fd5b8063313ce5671461030c57806336568abe1461031b5780633f4ba83a1461032e578063458c738e14610336578063556f0dc71461035657600080fd5b806318160ddd1161020557806318160ddd1461029c57806323b872dd146102ae578063248a9ca3146102c15780632e1a7d4d146102e45780632f2ff15d146102f957600080fd5b806301ffc9a71461023757806306e485381461025f57806306fdde0314610274578063095ea7b314610289575b600080fd5b61024a6102453660046127ba565b61055b565b60405190151581526020015b60405180910390f35b610267610586565b6040516102569190612828565b61027c6105e8565b6040516102569190612893565b61024a6102973660046128bb565b610671565b6034545b604051908152602001610256565b61024a6102bc3660046128e7565b6106c0565b6102a06102cf366004612928565b600090815260c9602052604090206001015490565b6102f76102f2366004612928565b6107ee565b005b6102f7610307366004612941565b61081b565b60405160128152602001610256565b6102f7610329366004612941565b610846565b6102f76108c4565b610349610344366004612a4e565b6108e5565b6040516102569190612aba565b60016102a0565b60655460ff1661024a565b6102f7610376366004612b3c565b6109a6565b6102f7610389366004612d12565b6109e2565b6102a061039c366004612dd6565b6001600160a01b031660009081526033602052604090205490565b6102f7610b62565b6102f7610c11565b6103da6103d5366004612df3565b610c32565b6040516001600160a01b039091168152602001610256565b61024a610400366004612941565b610c4a565b6102f7610413366004612dd6565b610c75565b61027c610c89565b6102f761042e366004612e15565b610c98565b6102a0600081565b6102a07f8f4f2da22e8ac8f11e15f9fc141cddbb5deea8800186560abb6e68c5496619a981565b61024a6104703660046128bb565b610cb6565b6102f7610483366004612dd6565b610d73565b6102a0610496366004612928565b610dee565b6102f76104a9366004612e6d565b610e05565b6102f76104bc366004612941565b610e8f565b61024a6104cf366004612ef1565b610eb5565b6102a06104e2366004612ef1565b6001600160a01b039182166000908152603b6020908152604080832093909416825291909152205490565b6102a060008051602061344083398151915281565b6102f7610530366004612dd6565b610f56565b6102f7610543366004612f1f565b610f6a565b6102f7610556366004612f9e565b610fa2565b60006001600160e01b03198216635a05180f60e01b1480610580575061058082610fbd565b92915050565b606060378054806020026020016040519081016040528092919081815260200182805480156105de57602002820191906000526020600020905b81546001600160a01b031681526001909101906020018083116105c0575b5050505050905090565b6060603580546105f790612fe4565b80601f016020809104026020016040519081016040528092919081815260200182805461062390612fe4565b80156105de5780601f10610645576101008083540402835291602001916105de565b820191906000526020600020905b81548152906001019060200180831161065357509395945050505050565b600061067f60655460ff1690565b156106a55760405162461bcd60e51b815260040161069c9061301f565b60405180910390fd5b6106af8383610ff2565b6106b98383611015565b9392505050565b60006001600160a01b0383166106e85760405162461bcd60e51b815260040161069c90613049565b6001600160a01b03841661074d5760405162461bcd60e51b815260206004820152602660248201527f4552433737373a207472616e736665722066726f6d20746865207a65726f206160448201526564647265737360d01b606482015260840161069c565b600033905061077e818686866040518060200160405280600081525060405180602001604052806000815250611023565b61078985828561114b565b6107b58186868660405180602001604052806000815250604051806020016040528060008152506111d7565b6107e38186868660405180602001604052806000815250604051806020016040528060008152506000611349565b506001949350505050565b6108183382604051806020016040528060008152506040518060200160405280600081525061150e565b50565b600082815260c9602052604090206001015461083781336116d0565b6108418383611734565b505050565b6001600160a01b03811633146108b65760405162461bcd60e51b815260206004820152602f60248201527f416363657373436f6e74726f6c3a2063616e206f6e6c792072656e6f756e636560448201526e103937b632b9903337b91039b2b63360891b606482015260840161069c565b6108c08282611748565b5050565b6000805160206134408339815191526108dd81336116d0565b61081861175c565b6060600082516001600160401b0381111561090257610902612971565b60405190808252806020026020018201604052801561092b578160200160208202803683370190505b50905060005b835181101561099f5761097284828151811061094f5761094f61308d565b60200260200101516001600160a01b031660009081526033602052604090205490565b8282815181106109845761098461308d565b6020908102919091010152610998816130b9565b9050610931565b5092915050565b6109b03386610eb5565b6109cc5760405162461bcd60e51b815260040161069c906130d4565b6109db858585858560016117ef565b5050505050565b8351855114610a685760405162461bcd60e51b815260206004820152604660248201527f4552433737375072657365745061757361626c655065726d697373696f6e656460448201527f3a20726563697069656e7420616e6420616d6f756e74206c656e677468206d696064820152650e6dac2e8c6d60d31b608482015260a40161069c565b60005b8551811015610b1157610aff33878381518110610a8a57610a8a61308d565b6020026020010151878481518110610aa457610aa461308d565b6020026020010151878581518110610abe57610abe61308d565b6020026020010151878681518110610ad857610ad861308d565b6020026020010151878781518110610af257610af261308d565b60200260200101516117ef565b80610b09816130b9565b915050610a6b565b50336001600160a01b03167fd5865ae34f92a2d6a803fa13140b8165046f54e61e68560b26950c62a668c6b68686868686604051610b53959493929190613175565b60405180910390a25050505050565b600054610100900460ff16610b7d5760005460ff1615610b81565b303b155b610b9d5760405162461bcd60e51b815260040161069c9061320a565b600054610100900460ff16158015610bbf576000805461ffff19166101011790555b610bc76118d2565b610bfd336b019d971e4fe8401e740000006040518060200160405280600081525060405180602001604052806000815250611996565b8015610818576000805461ff001916905550565b600080516020613440833981519152610c2a81336116d0565b6108186119a4565b600082815260fb602052604081206106b990836119fc565b600091825260c9602090815260408084206001600160a01b0393909316845291905290205460ff1690565b610c80816000610ff2565b61081881611a08565b6060603680546105f790612fe4565b610841338484846040518060200160405280600081525060016117ef565b60006001600160a01b038316610cde5760405162461bcd60e51b815260040161069c90613049565b6000339050610d0f818286866040518060200160405280600081525060405180602001604052806000815250611023565b610d3b8182868660405180602001604052806000815250604051806020016040528060008152506111d7565b610d698182868660405180602001604052806000815250604051806020016040528060008152506000611349565b5060019392505050565b600054610100900460ff16610d8e5760005460ff1615610d92565b303b155b610dae5760405162461bcd60e51b815260040161069c9061320a565b600054610100900460ff16158015610dd0576000805461ffff19166101011790555b610dd982611b26565b80156108c0576000805461ff00191690555050565b600081815260fb6020526040812061058090611bc6565b7f8f4f2da22e8ac8f11e15f9fc141cddbb5deea8800186560abb6e68c5496619a9610e3081336116d0565b6000610e3e83850185612928565b90506109db858286868080601f016020809104026020016040519081016040528093929190818152602001838380828437600092018290525060408051602081019091529081529250611996915050565b600082815260c96020526040902060010154610eab81336116d0565b6108418383611748565b6000816001600160a01b0316836001600160a01b03161480610f2057506001600160a01b03831660009081526038602052604090205460ff168015610f2057506001600160a01b038083166000908152603a602090815260408083209387168352929052205460ff16155b806106b95750506001600160a01b0390811660009081526039602090815260408083209490931682529290925290205460ff1690565b610f61816000610ff2565b61081881611bd0565b610f743385610eb5565b610f905760405162461bcd60e51b815260040161069c906130d4565b610f9c8484848461150e565b50505050565b6108c03383836040518060200160405280600081525061150e565b60006001600160e01b03198216637965db0b60e01b148061058057506301ffc9a760e01b6001600160e01b0319831614610580565b60655460ff16156108c05760405162461bcd60e51b815260040161069c9061301f565b600033610d69818585611cec565b60405163555ddc6560e11b81526001600160a01b03861660048201527f29ddb589b1fb5fc7cf394961c1adf5f8c6454761adf795e67fe149f658abe8956024820152600090731820a4b7618bde71dce8cdc73aab6c95905fad249063aabbb8ca90604401602060405180830381865afa1580156110a4573d6000803e3d6000fd5b505050506040513d601f19601f820116820180604052508101906110c89190613258565b90506001600160a01b0381161561114257604051633ad5cbc160e11b81526001600160a01b038216906375ab97829061110f908a908a908a908a908a908a90600401613275565b600060405180830381600087803b15801561112957600080fd5b505af115801561113d573d6000803e3d6000fd5b505050505b50505050505050565b6001600160a01b038381166000908152603b60209081526040808320938616835292905220546000198114610f9c57818110156111ca5760405162461bcd60e51b815260206004820152601e60248201527f4552433737373a20696e73756666696369656e7420616c6c6f77616e63650000604482015260640161069c565b610f9c8484848403611cec565b6111e386868686611e13565b6001600160a01b0385166000908152603360205260409020548381101561125c5760405162461bcd60e51b815260206004820152602760248201527f4552433737373a207472616e7366657220616d6f756e7420657863656564732060448201526662616c616e636560c81b606482015260840161069c565b6001600160a01b038087166000908152603360205260408082208785039055918716815290812080548692906112939084906132cf565b92505081905550846001600160a01b0316866001600160a01b0316886001600160a01b03167f06b541ddaa720db2b10a4d0cdac39b8d360425fc073085fac19bc826146779878787876040516112eb939291906132e7565b60405180910390a4846001600160a01b0316866001600160a01b03167fddf252ad1be2c89b69c2b068fc378daa952ba7f163c4a11628f55a4df523b3ef8660405161133891815260200190565b60405180910390a350505050505050565b60405163555ddc6560e11b81526001600160a01b03861660048201527fb281fc8c12954d22544db45de3159a39272895b169a852b314f9cc762e44c53b6024820152600090731820a4b7618bde71dce8cdc73aab6c95905fad249063aabbb8ca90604401602060405180830381865afa1580156113ca573d6000803e3d6000fd5b505050506040513d601f19601f820116820180604052508101906113ee9190613258565b90506001600160a01b0381161561146a576040516223de2960e01b81526001600160a01b038216906223de2990611433908b908b908b908b908b908b90600401613275565b600060405180830381600087803b15801561144d57600080fd5b505af1158015611461573d6000803e3d6000fd5b50505050611504565b8115611504576001600160a01b0386163b156115045760405162461bcd60e51b815260206004820152604d60248201527f4552433737373a20746f6b656e20726563697069656e7420636f6e747261637460448201527f20686173206e6f20696d706c656d656e74657220666f7220455243373737546f60648201526c1ad95b9cd49958da5c1a595b9d609a1b608482015260a40161069c565b5050505050505050565b6001600160a01b03841661156f5760405162461bcd60e51b815260206004820152602260248201527f4552433737373a206275726e2066726f6d20746865207a65726f206164647265604482015261737360f01b606482015260840161069c565b3361157f81866000878787611023565b61158c8186600087611e13565b6001600160a01b038516600090815260336020526040902054848110156116015760405162461bcd60e51b815260206004820152602360248201527f4552433737373a206275726e20616d6f756e7420657863656564732062616c616044820152626e636560e81b606482015260840161069c565b6001600160a01b038616600090815260336020526040812086830390556034805487929061163090849061331c565b92505081905550856001600160a01b0316826001600160a01b03167fa78a9be3a7b862d26933ad85fb11d80ef66b8f972d7cbba06621d583943a409887878760405161167e939291906132e7565b60405180910390a36040518581526000906001600160a01b038816907fddf252ad1be2c89b69c2b068fc378daa952ba7f163c4a11628f55a4df523b3ef906020015b60405180910390a3505050505050565b6116da8282610c4a565b6108c0576116f2816001600160a01b03166014611e3b565b6116fd836020611e3b565b60405160200161170e929190613333565b60408051601f198184030181529082905262461bcd60e51b825261069c91600401612893565b61173e8282610ff2565b6108c08282611fd6565b6117528282610ff2565b6108c08282611ff8565b60655460ff166117a55760405162461bcd60e51b815260206004820152601460248201527314185d5cd8589b194e881b9bdd081c185d5cd95960621b604482015260640161069c565b6065805460ff191690557f5db9ee0a495bf2e6ff9c91a7834c1ba4fdd244a5e8aa4e537bd38aeae4b073aa335b6040516001600160a01b03909116815260200160405180910390a1565b6001600160a01b0386166118505760405162461bcd60e51b815260206004820152602260248201527f4552433737373a2073656e642066726f6d20746865207a65726f206164647265604482015261737360f01b606482015260840161069c565b6001600160a01b0385166118a65760405162461bcd60e51b815260206004820181905260248201527f4552433737373a2073656e6420746f20746865207a65726f2061646472657373604482015260640161069c565b336118b5818888888888611023565b6118c38188888888886111d7565b61114281888888888888611349565b600054610100900460ff166118f95760405162461bcd60e51b815260040161069c906133a8565b61190161201a565b61190961201a565b61191161201a565b61191961201a565b611921612041565b611929612074565b6040805180820182526004808252634e4f524960e01b602080840182905284518086019095529184529083015261198c9160005b604051908082528060200260200182016040528015611986578160200160208202803683370190505b506120be565b61199461201a565b565b610f9c8484848460016122a8565b60655460ff16156119c75760405162461bcd60e51b815260040161069c9061301f565b6065805460ff191660011790557f62e78cea01bee320cd4e420270b5ea74000d11b0c9f74754ebdbfc544b05a2586117d23390565b60006106b983836123ee565b336001600160a01b0382161415611a6d5760405162461bcd60e51b8152602060048201526024808201527f4552433737373a20617574686f72697a696e672073656c66206173206f70657260448201526330ba37b960e11b606482015260840161069c565b6001600160a01b03811660009081526038602052604090205460ff1615611abe57336000908152603a602090815260408083206001600160a01b03851684529091529020805460ff19169055611aed565b3360009081526039602090815260408083206001600160a01b03851684529091529020805460ff191660011790555b60405133906001600160a01b038316907ff4caeb2d6ca8932a215a353d0703c326ec2d81fc68170f320eb2ab49e9df61f990600090a350565b600054610100900460ff16611b4d5760405162461bcd60e51b815260040161069c906133a8565b611b5561201a565b611b5d61201a565b611b6561201a565b611b6d61201a565b611b75612041565b611b7d612074565b6040805180820182526004808252634e4f524960e01b6020808401829052845180860190955291845290830152611bb591600061195d565b611bbd61201a565b61081881612418565b6000610580825490565b6001600160a01b038116331415611c335760405162461bcd60e51b815260206004820152602160248201527f4552433737373a207265766f6b696e672073656c66206173206f70657261746f6044820152603960f91b606482015260840161069c565b6001600160a01b03811660009081526038602052604090205460ff1615611c8757336000908152603a602090815260408083206001600160a01b03851684529091529020805460ff19166001179055611cb3565b3360009081526039602090815260408083206001600160a01b03851684529091529020805460ff191690555b60405133906001600160a01b038316907f50546e66e5f44d728365dc3908c63bc5cfeeab470722c1677e3073a6ac294aa190600090a350565b6001600160a01b038316611d505760405162461bcd60e51b815260206004820152602560248201527f4552433737373a20617070726f76652066726f6d20746865207a65726f206164604482015264647265737360d81b606482015260840161069c565b6001600160a01b038216611db25760405162461bcd60e51b815260206004820152602360248201527f4552433737373a20617070726f766520746f20746865207a65726f206164647260448201526265737360e81b606482015260840161069c565b6001600160a01b038381166000818152603b602090815260408083209487168084529482529182902085905590518481527f8c5be1e5ebec7d5bd14f71427d1e84f3dd0314c0f7b2291e5b200ac8c7c3b925910160405180910390a3505050565b60655460ff1615611e365760405162461bcd60e51b815260040161069c9061301f565b610f9c565b60606000611e4a8360026133f3565b611e559060026132cf565b6001600160401b03811115611e6c57611e6c612971565b6040519080825280601f01601f191660200182016040528015611e96576020820181803683370190505b509050600360fc1b81600081518110611eb157611eb161308d565b60200101906001600160f81b031916908160001a905350600f60fb1b81600181518110611ee057611ee061308d565b60200101906001600160f81b031916908160001a9053506000611f048460026133f3565b611f0f9060016132cf565b90505b6001811115611f87576f181899199a1a9b1b9c1cb0b131b232b360811b85600f1660108110611f4357611f4361308d565b1a60f81b828281518110611f5957611f5961308d565b60200101906001600160f81b031916908160001a90535060049490941c93611f8081613412565b9050611f12565b5083156106b95760405162461bcd60e51b815260206004820181905260248201527f537472696e67733a20686578206c656e67746820696e73756666696369656e74604482015260640161069c565b611fe08282612469565b600082815260fb6020526040902061084190826124ef565b6120028282612504565b600082815260fb60205260409020610841908261256b565b600054610100900460ff166119945760405162461bcd60e51b815260040161069c906133a8565b600054610100900460ff166120685760405162461bcd60e51b815260040161069c906133a8565b6065805460ff19169055565b600054610100900460ff1661209b5760405162461bcd60e51b815260040161069c906133a8565b6120a6600033612580565b61199460008051602061344083398151915233612580565b600054610100900460ff166120e55760405162461bcd60e51b815260040161069c906133a8565b82516120f89060359060208601906126cc565b50815161210c9060369060208501906126cc565b508051612120906037906020840190612750565b5060005b8151811015612189576001603860008484815181106121455761214561308d565b6020908102919091018101516001600160a01b03168252810191909152604001600020805460ff191691151591909117905580612181816130b9565b915050612124565b506040516329965a1d60e01b815230600482018190527fac7fbab5f54a3ca8194167523c6753bfeb96a445279294b6125b68cce217705460248301526044820152731820a4b7618bde71dce8cdc73aab6c95905fad24906329965a1d90606401600060405180830381600087803b15801561220357600080fd5b505af1158015612217573d6000803e3d6000fd5b50506040516329965a1d60e01b815230600482018190527faea199e31a596269b42cdafd93407f14436db6e4cad65417994c2eb37381e05a60248301526044820152731820a4b7618bde71dce8cdc73aab6c95905fad2492506329965a1d9150606401600060405180830381600087803b15801561229457600080fd5b505af1158015611142573d6000803e3d6000fd5b6001600160a01b0385166122fe5760405162461bcd60e51b815260206004820181905260248201527f4552433737373a206d696e7420746f20746865207a65726f2061646472657373604482015260640161069c565b3361230c8160008888611e13565b846034600082825461231e91906132cf565b90915550506001600160a01b0386166000908152603360205260408120805487929061234b9084906132cf565b9091555061236190508160008888888888611349565b856001600160a01b0316816001600160a01b03167f2fe5be0146f74c5bce36c0b80911af6c7d86ff27e89d5cfa61fc681327954e5d8787876040516123a8939291906132e7565b60405180910390a36040518581526001600160a01b038716906000907fddf252ad1be2c89b69c2b068fc378daa952ba7f163c4a11628f55a4df523b3ef906020016116c0565b60008260000182815481106124055761240561308d565b9060005260206000200154905092915050565b600054610100900460ff1661243f5760405162461bcd60e51b815260040161069c906133a8565b6108187f8f4f2da22e8ac8f11e15f9fc141cddbb5deea8800186560abb6e68c5496619a982612580565b6124738282610c4a565b6108c057600082815260c9602090815260408083206001600160a01b03851684529091529020805460ff191660011790556124ab3390565b6001600160a01b0316816001600160a01b0316837f2f8788117e7eff1d82e926ec794901d17c78024a50270940304540a733656f0d60405160405180910390a45050565b60006106b9836001600160a01b03841661258a565b61250e8282610c4a565b156108c057600082815260c9602090815260408083206001600160a01b0385168085529252808320805460ff1916905551339285917ff6391f5c32d9c69d2a47ea670b442974b53935d1edc7fd64eb21e047a839171b9190a45050565b60006106b9836001600160a01b0384166125d9565b6108c08282611734565b60008181526001830160205260408120546125d157508154600181810184556000848152602080822090930184905584548482528286019093526040902091909155610580565b506000610580565b600081815260018301602052604081205480156126c25760006125fd60018361331c565b85549091506000906126119060019061331c565b90508181146126765760008660000182815481106126315761263161308d565b90600052602060002001549050808760000184815481106126545761265461308d565b6000918252602080832090910192909255918252600188019052604090208390555b855486908061268757612687613429565b600190038181906000526020600020016000905590558560010160008681526020019081526020016000206000905560019350505050610580565b6000915050610580565b8280546126d890612fe4565b90600052602060002090601f0160209004810192826126fa5760008555612740565b82601f1061271357805160ff1916838001178555612740565b82800160010185558215612740579182015b82811115612740578251825591602001919060010190612725565b5061274c9291506127a5565b5090565b828054828255906000526020600020908101928215612740579160200282015b8281111561274057825182546001600160a01b0319166001600160a01b03909116178255602090920191600190910190612770565b5b8082111561274c57600081556001016127a6565b6000602082840312156127cc57600080fd5b81356001600160e01b0319811681146106b957600080fd5b600081518084526020808501945080840160005b8381101561281d5781516001600160a01b0316875295820195908201906001016127f8565b509495945050505050565b6020815260006106b960208301846127e4565b60005b8381101561285657818101518382015260200161283e565b83811115610f9c5750506000910152565b6000815180845261287f81602086016020860161283b565b601f01601f19169290920160200192915050565b6020815260006106b96020830184612867565b6001600160a01b038116811461081857600080fd5b600080604083850312156128ce57600080fd5b82356128d9816128a6565b946020939093013593505050565b6000806000606084860312156128fc57600080fd5b8335612907816128a6565b92506020840135612917816128a6565b929592945050506040919091013590565b60006020828403121561293a57600080fd5b5035919050565b6000806040838503121561295457600080fd5b823591506020830135612966816128a6565b809150509250929050565b634e487b7160e01b600052604160045260246000fd5b604051601f8201601f191681016001600160401b03811182821017156129af576129af612971565b604052919050565b60006001600160401b038211156129d0576129d0612971565b5060051b60200190565b600082601f8301126129eb57600080fd5b81356020612a006129fb836129b7565b612987565b82815260059290921b84018101918181019086841115612a1f57600080fd5b8286015b84811015612a43578035612a36816128a6565b8352918301918301612a23565b509695505050505050565b600060208284031215612a6057600080fd5b81356001600160401b03811115612a7657600080fd5b612a82848285016129da565b949350505050565b600081518084526020808501945080840160005b8381101561281d57815187529582019590820190600101612a9e565b6020815260006106b96020830184612a8a565b600082601f830112612ade57600080fd5b81356001600160401b03811115612af757612af7612971565b612b0a601f8201601f1916602001612987565b818152846020838601011115612b1f57600080fd5b816020850160208301376000918101602001919091529392505050565b600080600080600060a08688031215612b5457600080fd5b8535612b5f816128a6565b94506020860135612b6f816128a6565b93506040860135925060608601356001600160401b0380821115612b9257600080fd5b612b9e89838a01612acd565b93506080880135915080821115612bb457600080fd5b50612bc188828901612acd565b9150509295509295909350565b600082601f830112612bdf57600080fd5b81356020612bef6129fb836129b7565b82815260059290921b84018101918181019086841115612c0e57600080fd5b8286015b84811015612a435780358352918301918301612c12565b600082601f830112612c3a57600080fd5b81356020612c4a6129fb836129b7565b82815260059290921b84018101918181019086841115612c6957600080fd5b8286015b84811015612a435780356001600160401b03811115612c8c5760008081fd5b612c9a8986838b0101612acd565b845250918301918301612c6d565b600082601f830112612cb957600080fd5b81356020612cc96129fb836129b7565b82815260059290921b84018101918181019086841115612ce857600080fd5b8286015b84811015612a435780358015158114612d055760008081fd5b8352918301918301612cec565b600080600080600060a08688031215612d2a57600080fd5b85356001600160401b0380821115612d4157600080fd5b612d4d89838a016129da565b96506020880135915080821115612d6357600080fd5b612d6f89838a01612bce565b95506040880135915080821115612d8557600080fd5b612d9189838a01612c29565b94506060880135915080821115612da757600080fd5b612db389838a01612c29565b93506080880135915080821115612dc957600080fd5b50612bc188828901612ca8565b600060208284031215612de857600080fd5b81356106b9816128a6565b60008060408385031215612e0657600080fd5b50508035926020909101359150565b600080600060608486031215612e2a57600080fd5b8335612e35816128a6565b92506020840135915060408401356001600160401b03811115612e5757600080fd5b612e6386828701612acd565b9150509250925092565b600080600060408486031215612e8257600080fd5b8335612e8d816128a6565b925060208401356001600160401b0380821115612ea957600080fd5b818601915086601f830112612ebd57600080fd5b813581811115612ecc57600080fd5b876020828501011115612ede57600080fd5b6020830194508093505050509250925092565b60008060408385031215612f0457600080fd5b8235612f0f816128a6565b91506020830135612966816128a6565b60008060008060808587031215612f3557600080fd5b8435612f40816128a6565b93506020850135925060408501356001600160401b0380821115612f6357600080fd5b612f6f88838901612acd565b93506060870135915080821115612f8557600080fd5b50612f9287828801612acd565b91505092959194509250565b60008060408385031215612fb157600080fd5b8235915060208301356001600160401b03811115612fce57600080fd5b612fda85828601612acd565b9150509250929050565b600181811c90821680612ff857607f821691505b6020821081141561301957634e487b7160e01b600052602260045260246000fd5b50919050565b60208082526010908201526f14185d5cd8589b194e881c185d5cd95960821b604082015260600190565b60208082526024908201527f4552433737373a207472616e7366657220746f20746865207a65726f206164646040820152637265737360e01b606082015260800190565b634e487b7160e01b600052603260045260246000fd5b634e487b7160e01b600052601160045260246000fd5b60006000198214156130cd576130cd6130a3565b5060010190565b6020808252602c908201527f4552433737373a2063616c6c6572206973206e6f7420616e206f70657261746f60408201526b39103337b9103437b63232b960a11b606082015260800190565b600081518084526020808501808196508360051b8101915082860160005b85811015613168578284038952613156848351612867565b9885019893509084019060010161313e565b5091979650505050505050565b60a08152600061318860a08301886127e4565b60208382038185015261319b8289612a8a565b915083820360408501526131af8288613120565b915083820360608501526131c38287613120565b8481036080860152855180825282870193509082019060005b818110156131fa5784511515835293830193918301916001016131dc565b50909a9950505050505050505050565b6020808252602e908201527f496e697469616c697a61626c653a20636f6e747261637420697320616c72656160408201526d191e481a5b9a5d1a585b1a5e995960921b606082015260800190565b60006020828403121561326a57600080fd5b81516106b9816128a6565b6001600160a01b0387811682528681166020830152851660408201526060810184905260c0608082018190526000906132b090830185612867565b82810360a08401526132c28185612867565b9998505050505050505050565b600082198211156132e2576132e26130a3565b500190565b8381526060602082015260006133006060830185612867565b82810360408401526133128185612867565b9695505050505050565b60008282101561332e5761332e6130a3565b500390565b7f416363657373436f6e74726f6c3a206163636f756e742000000000000000000081526000835161336b81601785016020880161283b565b7001034b99036b4b9b9b4b733903937b6329607d1b601791840191820152835161339c81602884016020880161283b565b01602801949350505050565b6020808252602b908201527f496e697469616c697a61626c653a20636f6e7472616374206973206e6f74206960408201526a6e697469616c697a696e6760a81b606082015260800190565b600081600019048311821515161561340d5761340d6130a3565b500290565b600081613421576134216130a3565b506000190190565b634e487b7160e01b600052603160045260246000fdfe65d7a28e3265b37a6474929f336521b332c1681b933f6cb9f3376673440d862aa2646970667358221220815b7b6c0d0e96862274507c2ae7cc54eb838477fe102f435017fda70fe5b15864736f6c634300080a0033",
  "linkReferences": {},
  "deployedLinkReferences": {}
}