{
  "_format": "hh-sol-artifact-1",
  "contractName": "LockedNORIV2Helper",
  "sourceName": "contracts/test/LockedNORIV2Helper.sol",
  "abi": [
    {
      "anonymous": false,
      "inputs": [
        {
          "indexed": false,
          "internalType": "string",
          "name": "",
          "type": "string"
        },
        {
          "components": [
            {
              "internalType": "uint256",
              "name": "grantAmount",
              "type": "uint256"
            },
            {
              "internalType": "address",
              "name": "recipient",
              "type": "address"
            },
            {
              "internalType": "uint256",
              "name": "startTime",
              "type": "uint256"
            },
            {
              "internalType": "uint256",
              "name": "vestEndTime",
              "type": "uint256"
            },
            {
              "internalType": "uint256",
              "name": "unlockEndTime",
              "type": "uint256"
            },
            {
              "internalType": "uint256",
              "name": "cliff1Time",
              "type": "uint256"
            },
            {
              "internalType": "uint256",
              "name": "cliff2Time",
              "type": "uint256"
            },
            {
              "internalType": "uint256",
              "name": "vestCliff1Amount",
              "type": "uint256"
            },
            {
              "internalType": "uint256",
              "name": "vestCliff2Amount",
              "type": "uint256"
            },
            {
              "internalType": "uint256",
              "name": "unlockCliff1Amount",
              "type": "uint256"
            },
            {
              "internalType": "uint256",
              "name": "unlockCliff2Amount",
              "type": "uint256"
            },
            {
              "internalType": "uint256",
              "name": "claimedAmount",
              "type": "uint256"
            },
            {
              "internalType": "uint256",
              "name": "originalAmount",
              "type": "uint256"
            },
            {
              "internalType": "uint256",
              "name": "lastRevocationTime",
              "type": "uint256"
            },
            {
              "internalType": "uint256",
              "name": "lastQuantityRevoked",
              "type": "uint256"
            },
            {
              "internalType": "bool",
              "name": "exists",
              "type": "bool"
            }
          ],
          "indexed": false,
          "internalType": "struct LockedNORIV2.TokenGrantDetail",
          "name": "grant",
          "type": "tuple"
        }
      ],
      "name": "logNamedTokenGrant",
      "type": "event"
    },
    {
      "inputs": [
        {
          "internalType": "address",
          "name": "lnori",
          "type": "address"
        },
        {
          "components": [
            {
              "internalType": "uint256",
              "name": "grantAmount",
              "type": "uint256"
            },
            {
              "internalType": "address",
              "name": "recipient",
              "type": "address"
            },
            {
              "internalType": "uint256",
              "name": "startTime",
              "type": "uint256"
            },
            {
              "internalType": "uint256",
              "name": "vestEndTime",
              "type": "uint256"
            },
            {
              "internalType": "uint256",
              "name": "unlockEndTime",
              "type": "uint256"
            },
            {
              "internalType": "uint256",
              "name": "cliff1Time",
              "type": "uint256"
            },
            {
              "internalType": "uint256",
              "name": "cliff2Time",
              "type": "uint256"
            },
            {
              "internalType": "uint256",
              "name": "vestCliff1Amount",
              "type": "uint256"
            },
            {
              "internalType": "uint256",
              "name": "vestCliff2Amount",
              "type": "uint256"
            },
            {
              "internalType": "uint256",
              "name": "unlockCliff1Amount",
              "type": "uint256"
            },
            {
              "internalType": "uint256",
              "name": "unlockCliff2Amount",
              "type": "uint256"
            },
            {
              "internalType": "uint256",
              "name": "claimedAmount",
              "type": "uint256"
            },
            {
              "internalType": "uint256",
              "name": "originalAmount",
              "type": "uint256"
            },
            {
              "internalType": "uint256",
              "name": "lastRevocationTime",
              "type": "uint256"
            },
            {
              "internalType": "uint256",
              "name": "lastQuantityRevoked",
              "type": "uint256"
            },
            {
              "internalType": "bool",
              "name": "exists",
              "type": "bool"
            }
          ],
          "internalType": "struct LockedNORIV2.TokenGrantDetail",
          "name": "expectedGrantDetails",
          "type": "tuple"
        }
      ],
      "name": "assertSimplePastGrant",
      "outputs": [],
      "stateMutability": "nonpayable",
      "type": "function"
    },
    {
      "inputs": [
        {
          "internalType": "address",
          "name": "lnori",
          "type": "address"
        },
        {
          "internalType": "uint256",
          "name": "amount",
          "type": "uint256"
        },
        {
          "internalType": "address",
          "name": "recipient",
          "type": "address"
        },
        {
          "internalType": "uint256",
          "name": "startTime",
          "type": "uint256"
        },
        {
          "internalType": "uint256",
          "name": "vestEndTime",
          "type": "uint256"
        },
        {
          "internalType": "uint256",
          "name": "unlockEndTime",
          "type": "uint256"
        },
        {
          "internalType": "uint256",
          "name": "cliff1Time",
          "type": "uint256"
        },
        {
          "internalType": "uint256",
          "name": "vestCliff1Amount",
          "type": "uint256"
        },
        {
          "internalType": "uint256",
          "name": "unlockCliff1Amount",
          "type": "uint256"
        }
      ],
      "name": "createFixtureGrant",
      "outputs": [],
      "stateMutability": "nonpayable",
      "type": "function"
    },
    {
      "inputs": [
        {
          "internalType": "address",
          "name": "lnori",
          "type": "address"
        },
        {
          "internalType": "uint256",
          "name": "amount",
          "type": "uint256"
        },
        {
          "internalType": "address",
          "name": "recipient",
          "type": "address"
        }
      ],
      "name": "createSimplePastGrant",
      "outputs": [],
      "stateMutability": "nonpayable",
      "type": "function"
    },
    {
      "inputs": [
        {
          "internalType": "address",
          "name": "lnori",
          "type": "address"
        },
        {
          "internalType": "address",
          "name": "recipient",
          "type": "address"
        }
      ],
      "name": "get",
      "outputs": [
        {
          "components": [
            {
              "internalType": "uint256",
              "name": "grantAmount",
              "type": "uint256"
            },
            {
              "internalType": "address",
              "name": "recipient",
              "type": "address"
            },
            {
              "internalType": "uint256",
              "name": "startTime",
              "type": "uint256"
            },
            {
              "internalType": "uint256",
              "name": "vestEndTime",
              "type": "uint256"
            },
            {
              "internalType": "uint256",
              "name": "unlockEndTime",
              "type": "uint256"
            },
            {
              "internalType": "uint256",
              "name": "cliff1Time",
              "type": "uint256"
            },
            {
              "internalType": "uint256",
              "name": "cliff2Time",
              "type": "uint256"
            },
            {
              "internalType": "uint256",
              "name": "vestCliff1Amount",
              "type": "uint256"
            },
            {
              "internalType": "uint256",
              "name": "vestCliff2Amount",
              "type": "uint256"
            },
            {
              "internalType": "uint256",
              "name": "unlockCliff1Amount",
              "type": "uint256"
            },
            {
              "internalType": "uint256",
              "name": "unlockCliff2Amount",
              "type": "uint256"
            },
            {
              "internalType": "uint256",
              "name": "claimedAmount",
              "type": "uint256"
            },
            {
              "internalType": "uint256",
              "name": "originalAmount",
              "type": "uint256"
            },
            {
              "internalType": "uint256",
              "name": "lastRevocationTime",
              "type": "uint256"
            },
            {
              "internalType": "uint256",
              "name": "lastQuantityRevoked",
              "type": "uint256"
            },
            {
              "internalType": "bool",
              "name": "exists",
              "type": "bool"
            }
          ],
          "internalType": "struct LockedNORIV2.TokenGrantDetail",
          "name": "",
          "type": "tuple"
        }
      ],
      "stateMutability": "view",
      "type": "function"
    }
  ],
  "bytecode": "0x6080806040523461001657610a19908161001c8239f35b600080fdfe608080604052600436101561001357600080fd5b60003560e01c90816302882a25146106ae575080631150ef60146103865780634f5a399d146102885763d81e84231461004b57600080fd5b346102835760407ffffffffffffffffffffffffffffffffffffffffffffffffffffffffffffffffc36011261028357610082610818565b60243573ffffffffffffffffffffffffffffffffffffffff811681036102835760405173ffffffffffffffffffffffffffffffffffffffff926100c48261085e565b6000825260006020830152600060408301526000606083015260006080830152600060a0830152600060c0830152600060e08301526000610100830152600061012083015260006101408301526000610160830152600061018083015260006101a083015260006101c083015260006101e08093015283604051937fbf31dbf400000000000000000000000000000000000000000000000000000000855216600484015282602481610200968794165afa91821561027757600092610248575b5080604051928051845273ffffffffffffffffffffffffffffffffffffffff602082015116602085015260408101516040850152606081015160608501526080810151608085015260a081015160a085015260c081015160c085015260e081015160e08501526101008101516101008501526101208101516101208501526101408101516101408501526101608101516101608501526101808101516101808501526101a08101516101a08501526101c08101516101c08501520151151590820152f35b610269919250833d8511610270575b61026181836108be565b8101906108ff565b9038610184565b503d610257565b6040513d6000823e3d90fd5b600080fd5b34610283576101207ffffffffffffffffffffffffffffffffffffffffffffffffffffffffffffffffc360112610283576102c0610818565b6102c861083b565b60c4359173ffffffffffffffffffffffffffffffffffffffff809116803b1561028357600092836101649260405196879586947f271c6e1a00000000000000000000000000000000000000000000000000000000865260243560048701521660248501526064356044850152608435606485015260a43560848501528060a485015260c484015260e43560e4840152610104828185015235610124840152816101448401525af180156102775761037b57005b610384906108aa565b005b34610283576102207ffffffffffffffffffffffffffffffffffffffffffffffffffffffffffffffffc360112610283576103be610818565b610200807fffffffffffffffffffffffffffffffffffffffffffffffffffffffffffffffdc360112610283576044359173ffffffffffffffffffffffffffffffffffffffff928381168091036102835783916024849260405194859384927fbf31dbf40000000000000000000000000000000000000000000000000000000084526004840152165afa91821561027757600092610691575b50506040516104648161085e565b602435815261047161083b565b908160208201526064356040820152608435606082015260a435608082015260c43560a082015260e43560c08201526101043560e0820152610124356101008201526101443561012082015261016435610140820152610184356101608201526101a4356101808201526101c4356101a08201526101e4356101c082015261020435908115158203610283576101e001526024358251149283159361067d575b5050811561066c575b811561065b575b811561064a575b8115610639575b8115610628575b8115610616575b8115610603575b81156105f0575b81156105dd575b5061055957005b60846040517f08c379a000000000000000000000000000000000000000000000000000000000815260206004820152602e60248201527f4572726f723a2061203d3d2062206e6f7420736174697366696564205b546f6b60448201527f656e4772616e7444657461696c5d0000000000000000000000000000000000006064820152fd5b6101400151610164351415905081610552565b610120810151610144351415915061054b565b6101008101516101243514159150610544565b60e0810151610104351415915061053d565b60c081015160e43514159150610536565b60a081015160c4351415915061052f565b608081015160a43514159150610528565b606081015160843514159150610521565b60408101516064351415915061051a565b602083015181169116141591508280610511565b6106a79250803d106102705761026181836108be565b8280610456565b346102835760607ffffffffffffffffffffffffffffffffffffffffffffffffffffffffffffffffc360112610283576106e5610818565b6106ed61083b565b906301e1338042106107e9577ffffffffffffffffffffffffffffffffffffffffffffffffffffffffffffffffe42116107e9576001420173ffffffffffffffffffffffffffffffffffffffff80921691823b15610283576000859361016493859383977f271c6e1a00000000000000000000000000000000000000000000000000000000865260243560048701521660248501527ffffffffffffffffffffffffffffffffffffffffffffffffffffffffffe1ecc80420160448501528060648501528060848501528060a485015260c48401528160e48401528161010484015281610124840152816101448401525af180156102775761037b57005b7f4e487b7100000000000000000000000000000000000000000000000000000000600052601160045260246000fd5b6004359073ffffffffffffffffffffffffffffffffffffffff8216820361028357565b6044359073ffffffffffffffffffffffffffffffffffffffff8216820361028357565b610200810190811067ffffffffffffffff82111761087b57604052565b7f4e487b7100000000000000000000000000000000000000000000000000000000600052604160045260246000fd5b67ffffffffffffffff811161087b57604052565b90601f7fffffffffffffffffffffffffffffffffffffffffffffffffffffffffffffffe0910116810190811067ffffffffffffffff82111761087b57604052565b908161020091031261028357604051906109188261085e565b80518252602081015173ffffffffffffffffffffffffffffffffffffffff8116810361028357602083015260408101516040830152606081015160608301526080810151608083015260a081015160a083015260c081015160c083015260e081015160e0830152610100808201519083015261012080820151908301526101408082015190830152610160808201519083015261018080820151908301526101a080820151908301526101c080820151908301526101e080910151908115158203610283578201529056fea2646970667358221220ddf3444fed60fe3661e5d4ce7ff9684a5d6dde7558233ae1bc2ba2234151377864736f6c634300080f0033",
  "linkReferences": {},
  "deployedLinkReferences": {}
}