{
  "_format": "hh-sol-artifact-1",
  "contractName": "LockedNORIV2Helper",
  "sourceName": "contracts/test/LockedNORIV2Helper.sol",
  "abi": [
    {
      "anonymous": false,
      "inputs": [
        {
          "indexed": false,
          "internalType": "string",
          "name": "",
          "type": "string"
        },
        {
          "components": [
            {
              "internalType": "uint256",
              "name": "grantAmount",
              "type": "uint256"
            },
            {
              "internalType": "address",
              "name": "recipient",
              "type": "address"
            },
            {
              "internalType": "uint256",
              "name": "startTime",
              "type": "uint256"
            },
            {
              "internalType": "uint256",
              "name": "vestEndTime",
              "type": "uint256"
            },
            {
              "internalType": "uint256",
              "name": "unlockEndTime",
              "type": "uint256"
            },
            {
              "internalType": "uint256",
              "name": "cliff1Time",
              "type": "uint256"
            },
            {
              "internalType": "uint256",
              "name": "cliff2Time",
              "type": "uint256"
            },
            {
              "internalType": "uint256",
              "name": "vestCliff1Amount",
              "type": "uint256"
            },
            {
              "internalType": "uint256",
              "name": "vestCliff2Amount",
              "type": "uint256"
            },
            {
              "internalType": "uint256",
              "name": "unlockCliff1Amount",
              "type": "uint256"
            },
            {
              "internalType": "uint256",
              "name": "unlockCliff2Amount",
              "type": "uint256"
            },
            {
              "internalType": "uint256",
              "name": "claimedAmount",
              "type": "uint256"
            },
            {
              "internalType": "uint256",
              "name": "originalAmount",
              "type": "uint256"
            },
            {
              "internalType": "uint256",
              "name": "lastRevocationTime",
              "type": "uint256"
            },
            {
              "internalType": "uint256",
              "name": "lastQuantityRevoked",
              "type": "uint256"
            },
            {
              "internalType": "bool",
              "name": "exists",
              "type": "bool"
            }
          ],
          "indexed": false,
          "internalType": "struct LockedNORIV2.TokenGrantDetail",
          "name": "grant",
          "type": "tuple"
        }
      ],
      "name": "logNamedTokenGrant",
      "type": "event"
    },
    {
      "inputs": [
        {
          "internalType": "address",
          "name": "lnori",
          "type": "address"
        },
        {
          "components": [
            {
              "internalType": "uint256",
              "name": "grantAmount",
              "type": "uint256"
            },
            {
              "internalType": "address",
              "name": "recipient",
              "type": "address"
            },
            {
              "internalType": "uint256",
              "name": "startTime",
              "type": "uint256"
            },
            {
              "internalType": "uint256",
              "name": "vestEndTime",
              "type": "uint256"
            },
            {
              "internalType": "uint256",
              "name": "unlockEndTime",
              "type": "uint256"
            },
            {
              "internalType": "uint256",
              "name": "cliff1Time",
              "type": "uint256"
            },
            {
              "internalType": "uint256",
              "name": "cliff2Time",
              "type": "uint256"
            },
            {
              "internalType": "uint256",
              "name": "vestCliff1Amount",
              "type": "uint256"
            },
            {
              "internalType": "uint256",
              "name": "vestCliff2Amount",
              "type": "uint256"
            },
            {
              "internalType": "uint256",
              "name": "unlockCliff1Amount",
              "type": "uint256"
            },
            {
              "internalType": "uint256",
              "name": "unlockCliff2Amount",
              "type": "uint256"
            },
            {
              "internalType": "uint256",
              "name": "claimedAmount",
              "type": "uint256"
            },
            {
              "internalType": "uint256",
              "name": "originalAmount",
              "type": "uint256"
            },
            {
              "internalType": "uint256",
              "name": "lastRevocationTime",
              "type": "uint256"
            },
            {
              "internalType": "uint256",
              "name": "lastQuantityRevoked",
              "type": "uint256"
            },
            {
              "internalType": "bool",
              "name": "exists",
              "type": "bool"
            }
          ],
          "internalType": "struct LockedNORIV2.TokenGrantDetail",
          "name": "expectedGrantDetails",
          "type": "tuple"
        }
      ],
      "name": "assertSimplePastGrant",
      "outputs": [],
      "stateMutability": "view",
      "type": "function"
    },
    {
      "inputs": [
        {
          "internalType": "address",
          "name": "lnori",
          "type": "address"
        },
        {
          "internalType": "uint256",
          "name": "amount",
          "type": "uint256"
        },
        {
          "internalType": "address",
          "name": "recipient",
          "type": "address"
        },
        {
          "internalType": "uint256",
          "name": "startTime",
          "type": "uint256"
        },
        {
          "internalType": "uint256",
          "name": "vestEndTime",
          "type": "uint256"
        },
        {
          "internalType": "uint256",
          "name": "unlockEndTime",
          "type": "uint256"
        },
        {
          "internalType": "uint256",
          "name": "cliff1Time",
          "type": "uint256"
        },
        {
          "internalType": "uint256",
          "name": "vestCliff1Amount",
          "type": "uint256"
        },
        {
          "internalType": "uint256",
          "name": "unlockCliff1Amount",
          "type": "uint256"
        }
      ],
      "name": "createFixtureGrant",
      "outputs": [],
      "stateMutability": "nonpayable",
      "type": "function"
    },
    {
      "inputs": [
        {
          "internalType": "address",
          "name": "lnori",
          "type": "address"
        },
        {
          "internalType": "uint256",
          "name": "amount",
          "type": "uint256"
        },
        {
          "internalType": "address",
          "name": "recipient",
          "type": "address"
        },
        {
          "internalType": "uint256",
          "name": "fromTime",
          "type": "uint256"
        }
      ],
      "name": "createSimpleGrant",
      "outputs": [],
      "stateMutability": "nonpayable",
      "type": "function"
    },
    {
      "inputs": [
        {
          "internalType": "address",
          "name": "lnori",
          "type": "address"
        },
        {
          "internalType": "uint256",
          "name": "amount",
          "type": "uint256"
        },
        {
          "internalType": "address",
          "name": "recipient",
          "type": "address"
        }
      ],
      "name": "createSimpleGrantFromNow",
      "outputs": [],
      "stateMutability": "nonpayable",
      "type": "function"
    },
    {
      "inputs": [
        {
          "internalType": "address",
          "name": "recipient",
          "type": "address"
        },
        {
          "internalType": "uint256",
          "name": "startTime",
          "type": "uint256"
        },
        {
          "internalType": "uint256",
          "name": "vestEndTime",
          "type": "uint256"
        },
        {
          "internalType": "uint256",
          "name": "unlockEndTime",
          "type": "uint256"
        },
        {
          "internalType": "uint256",
          "name": "cliff1Time",
          "type": "uint256"
        },
        {
          "internalType": "uint256",
          "name": "cliff2Time",
          "type": "uint256"
        },
        {
          "internalType": "uint256",
          "name": "vestCliff1Amount",
          "type": "uint256"
        },
        {
          "internalType": "uint256",
          "name": "vestCliff2Amount",
          "type": "uint256"
        },
        {
          "internalType": "uint256",
          "name": "unlockCliff1Amount",
          "type": "uint256"
        },
        {
          "internalType": "uint256",
          "name": "unlockCliff2Amount",
          "type": "uint256"
        }
      ],
      "name": "encodeGrantCreationParams",
      "outputs": [
        {
          "internalType": "bytes",
          "name": "",
          "type": "bytes"
        }
      ],
      "stateMutability": "pure",
      "type": "function"
    },
    {
      "inputs": [
        {
          "internalType": "address",
          "name": "lnori",
          "type": "address"
        },
        {
          "internalType": "address",
          "name": "recipient",
          "type": "address"
        }
      ],
      "name": "get",
      "outputs": [
        {
          "components": [
            {
              "internalType": "uint256",
              "name": "grantAmount",
              "type": "uint256"
            },
            {
              "internalType": "address",
              "name": "recipient",
              "type": "address"
            },
            {
              "internalType": "uint256",
              "name": "startTime",
              "type": "uint256"
            },
            {
              "internalType": "uint256",
              "name": "vestEndTime",
              "type": "uint256"
            },
            {
              "internalType": "uint256",
              "name": "unlockEndTime",
              "type": "uint256"
            },
            {
              "internalType": "uint256",
              "name": "cliff1Time",
              "type": "uint256"
            },
            {
              "internalType": "uint256",
              "name": "cliff2Time",
              "type": "uint256"
            },
            {
              "internalType": "uint256",
              "name": "vestCliff1Amount",
              "type": "uint256"
            },
            {
              "internalType": "uint256",
              "name": "vestCliff2Amount",
              "type": "uint256"
            },
            {
              "internalType": "uint256",
              "name": "unlockCliff1Amount",
              "type": "uint256"
            },
            {
              "internalType": "uint256",
              "name": "unlockCliff2Amount",
              "type": "uint256"
            },
            {
              "internalType": "uint256",
              "name": "claimedAmount",
              "type": "uint256"
            },
            {
              "internalType": "uint256",
              "name": "originalAmount",
              "type": "uint256"
            },
            {
              "internalType": "uint256",
              "name": "lastRevocationTime",
              "type": "uint256"
            },
            {
              "internalType": "uint256",
              "name": "lastQuantityRevoked",
              "type": "uint256"
            },
            {
              "internalType": "bool",
              "name": "exists",
              "type": "bool"
            }
          ],
          "internalType": "struct LockedNORIV2.TokenGrantDetail",
          "name": "",
          "type": "tuple"
        }
      ],
      "stateMutability": "view",
      "type": "function"
    },
    {
      "inputs": [
        {
          "internalType": "address",
          "name": "recipient",
          "type": "address"
        },
        {
          "internalType": "uint256",
          "name": "fromTime",
          "type": "uint256"
        }
      ],
      "name": "getSimpleGrantCreationParamsEncoded",
      "outputs": [
        {
          "internalType": "bytes",
          "name": "",
          "type": "bytes"
        }
      ],
      "stateMutability": "view",
      "type": "function"
    }
  ],
  "bytecode": "0x6080806040523461001657610cda908161001c8239f35b600080fdfe608080604052600436101561001357600080fd5b60003560e01c9081631150ef6014610635575080631ad249a6146105825780633ff775561461049f5780634f5a399d146103a35780638cc870eb146102fa578063a92fbe80146102a95763d81e84231461006c57600080fd5b346102a45760407ffffffffffffffffffffffffffffffffffffffffffffffffffffffffffffffffc3601126102a4576100a3610958565b60243573ffffffffffffffffffffffffffffffffffffffff811681036102a45760405173ffffffffffffffffffffffffffffffffffffffff926100e582610a14565b6000825260006020830152600060408301526000606083015260006080830152600060a0830152600060c0830152600060e08301526000610100830152600061012083015260006101408301526000610160830152600061018083015260006101a083015260006101c083015260006101e08093015283604051937fbf31dbf400000000000000000000000000000000000000000000000000000000855216600484015282602481610200968794165afa91821561029857600092610269575b5080604051928051845273ffffffffffffffffffffffffffffffffffffffff602082015116602085015260408101516040850152606081015160608501526080810151608085015260a081015160a085015260c081015160c085015260e081015160e08501526101008101516101008501526101208101516101208501526101408101516101408501526101608101516101608501526101808101516101808501526101a08101516101a08501526101c08101516101c08501520151151590820152f35b61028a919250833d8511610291575b6102828183610a91565b810190610bc0565b90386101a5565b503d610278565b6040513d6000823e3d90fd5b600080fd5b346102a45760807ffffffffffffffffffffffffffffffffffffffffffffffffffffffffffffffffc3601126102a4576102f86102e3610958565b6102eb61097b565b6064359160243590610ad2565b005b346102a45760607ffffffffffffffffffffffffffffffffffffffffffffffffffffffffffffffffc3601126102a457610331610958565b61033961097b565b907ffffffffffffffffffffffffffffffffffffffffffffffffffffffffffffff1ef4211610374576102f891610e1042019160243590610ad2565b7f4e487b7100000000000000000000000000000000000000000000000000000000600052601160045260246000fd5b346102a4576101207ffffffffffffffffffffffffffffffffffffffffffffffffffffffffffffffffc3601126102a4576103db610958565b6103e361097b565b60c4359173ffffffffffffffffffffffffffffffffffffffff809116803b156102a457600092836101649260405196879586947f271c6e1a00000000000000000000000000000000000000000000000000000000865260243560048701521660248501526064356044850152608435606485015260a43560848501528060a485015260c484015260e43560e4840152610104828185015235610124840152816101448401525af180156102985761049657005b6102f890610a60565b346102a45760407ffffffffffffffffffffffffffffffffffffffffffffffffffffffffffffffffc3601126102a4576104d6610958565b602435907ffffffffffffffffffffffffffffffffffffffffffffffffffffffffffe1ecc7f821161037457816301e1338061057e930173ffffffffffffffffffffffffffffffffffffffff6040519316602084015281604084015280606084015260808301528060a083015260c0820152600060e082015260006101008201526000610120820152610140600081830152815261057281610a74565b6040519182918261099e565b0390f35b346102a457610140807ffffffffffffffffffffffffffffffffffffffffffffffffffffffffffffffffc3601126102a45761057e906105bf610958565b9073ffffffffffffffffffffffffffffffffffffffff6040519216602083015260243560408301526044356060830152606435608083015260843560a083015260a43560c083015260c43560e083015260e435610100830152610104356101208301526101243581830152815261057281610a74565b346102a4576102207ffffffffffffffffffffffffffffffffffffffffffffffffffffffffffffffffc3601126102a45761066d610958565b9061020090817fffffffffffffffffffffffffffffffffffffffffffffffffffffffffffffffdc3601126102a45760443573ffffffffffffffffffffffffffffffffffffffff938482168092036102a45760248386819387957fbf31dbf40000000000000000000000000000000000000000000000000000000084526004840152165afa9182156102985760009261093b575b505060405161070e81610a14565b602435815261071b61097b565b908160208201526064356040820152608435606082015260a435608082015260c43560a082015260e43560c08201526101043560e0820152610124356101008201526101443561012082015261016435610140820152610184356101608201526101a4356101808201526101c4356101a08201526101e4356101c0820152610204359081151582036102a4576101e0015260243582511492831593610927575b50508115610916575b8115610905575b81156108f4575b81156108e3575b81156108d2575b81156108c0575b81156108ad575b811561089a575b8115610887575b5061080357005b60846040517f08c379a000000000000000000000000000000000000000000000000000000000815260206004820152602e60248201527f4572726f723a2061203d3d2062206e6f7420736174697366696564205b546f6b60448201527f656e4772616e7444657461696c5d0000000000000000000000000000000000006064820152fd5b61014001516101643514159050816107fc565b61012081015161014435141591506107f5565b61010081015161012435141591506107ee565b60e081015161010435141591506107e7565b60c081015160e435141591506107e0565b60a081015160c435141591506107d9565b608081015160a435141591506107d2565b6060810151608435141591506107cb565b6040810151606435141591506107c4565b6020830151811691161415915082806107bb565b6109519250803d10610291576102828183610a91565b8280610700565b6004359073ffffffffffffffffffffffffffffffffffffffff821682036102a457565b6044359073ffffffffffffffffffffffffffffffffffffffff821682036102a457565b919091602080825283519081818401526000945b8286106109fe575050601f817fffffffffffffffffffffffffffffffffffffffffffffffffffffffffffffffe09260409596116109f1575b0116010190565b60008582860101526109ea565b85810182015184870160400152948101946109b2565b610200810190811067ffffffffffffffff821117610a3157604052565b7f4e487b7100000000000000000000000000000000000000000000000000000000600052604160045260246000fd5b67ffffffffffffffff8111610a3157604052565b610160810190811067ffffffffffffffff821117610a3157604052565b90601f7fffffffffffffffffffffffffffffffffffffffffffffffffffffffffffffffe0910116810190811067ffffffffffffffff821117610a3157604052565b9091927ffffffffffffffffffffffffffffffffffffffffffffffffffffffffffe1ecc7f8111610374576301e13380810173ffffffffffffffffffffffffffffffffffffffff80931692833b156102a4576040519586957f271c6e1a000000000000000000000000000000000000000000000000000000008752600487015216602485015281604485015280606485015260848401528060a484015260c4830152816101646000938480948160e48401528161010484015281610124840152816101448401525af1908115610bb45750610ba95750565b610bb290610a60565b565b604051903d90823e3d90fd5b90816102009103126102a45760405190610bd982610a14565b80518252602081015173ffffffffffffffffffffffffffffffffffffffff811681036102a457602083015260408101516040830152606081015160608301526080810151608083015260a081015160a083015260c081015160c083015260e081015160e0830152610100808201519083015261012080820151908301526101408082015190830152610160808201519083015261018080820151908301526101a080820151908301526101c080820151908301526101e0809101519081151582036102a4578201529056fea264697066735822122057038857a24d2d7fd7c4a9acf1cbdad4a032319827874c39905e4eac58bc550764736f6c634300080f0033",
  "linkReferences": {},
  "deployedLinkReferences": {}
}