{
  "_format": "hh-sol-artifact-1",
  "contractName": "LockedNORIV2Helper",
  "sourceName": "contracts/test/LockedNORIV2Helper.sol",
  "abi": [
    {
      "anonymous": false,
      "inputs": [
        {
          "indexed": false,
          "internalType": "string",
          "name": "",
          "type": "string"
        },
        {
          "components": [
            {
              "internalType": "uint256",
              "name": "grantAmount",
              "type": "uint256"
            },
            {
              "internalType": "address",
              "name": "recipient",
              "type": "address"
            },
            {
              "internalType": "uint256",
              "name": "startTime",
              "type": "uint256"
            },
            {
              "internalType": "uint256",
              "name": "vestEndTime",
              "type": "uint256"
            },
            {
              "internalType": "uint256",
              "name": "unlockEndTime",
              "type": "uint256"
            },
            {
              "internalType": "uint256",
              "name": "cliff1Time",
              "type": "uint256"
            },
            {
              "internalType": "uint256",
              "name": "cliff2Time",
              "type": "uint256"
            },
            {
              "internalType": "uint256",
              "name": "vestCliff1Amount",
              "type": "uint256"
            },
            {
              "internalType": "uint256",
              "name": "vestCliff2Amount",
              "type": "uint256"
            },
            {
              "internalType": "uint256",
              "name": "unlockCliff1Amount",
              "type": "uint256"
            },
            {
              "internalType": "uint256",
              "name": "unlockCliff2Amount",
              "type": "uint256"
            },
            {
              "internalType": "uint256",
              "name": "claimedAmount",
              "type": "uint256"
            },
            {
              "internalType": "uint256",
              "name": "originalAmount",
              "type": "uint256"
            },
            {
              "internalType": "uint256",
              "name": "lastRevocationTime",
              "type": "uint256"
            },
            {
              "internalType": "uint256",
              "name": "lastQuantityRevoked",
              "type": "uint256"
            },
            {
              "internalType": "bool",
              "name": "exists",
              "type": "bool"
            }
          ],
          "indexed": false,
          "internalType": "struct LockedNORIV2.TokenGrantDetail",
          "name": "grant",
          "type": "tuple"
        }
      ],
      "name": "logNamedTokenGrant",
      "type": "event"
    },
    {
      "inputs": [
        {
          "internalType": "address",
          "name": "lnori",
          "type": "address"
        },
        {
          "components": [
            {
              "internalType": "uint256",
              "name": "grantAmount",
              "type": "uint256"
            },
            {
              "internalType": "address",
              "name": "recipient",
              "type": "address"
            },
            {
              "internalType": "uint256",
              "name": "startTime",
              "type": "uint256"
            },
            {
              "internalType": "uint256",
              "name": "vestEndTime",
              "type": "uint256"
            },
            {
              "internalType": "uint256",
              "name": "unlockEndTime",
              "type": "uint256"
            },
            {
              "internalType": "uint256",
              "name": "cliff1Time",
              "type": "uint256"
            },
            {
              "internalType": "uint256",
              "name": "cliff2Time",
              "type": "uint256"
            },
            {
              "internalType": "uint256",
              "name": "vestCliff1Amount",
              "type": "uint256"
            },
            {
              "internalType": "uint256",
              "name": "vestCliff2Amount",
              "type": "uint256"
            },
            {
              "internalType": "uint256",
              "name": "unlockCliff1Amount",
              "type": "uint256"
            },
            {
              "internalType": "uint256",
              "name": "unlockCliff2Amount",
              "type": "uint256"
            },
            {
              "internalType": "uint256",
              "name": "claimedAmount",
              "type": "uint256"
            },
            {
              "internalType": "uint256",
              "name": "originalAmount",
              "type": "uint256"
            },
            {
              "internalType": "uint256",
              "name": "lastRevocationTime",
              "type": "uint256"
            },
            {
              "internalType": "uint256",
              "name": "lastQuantityRevoked",
              "type": "uint256"
            },
            {
              "internalType": "bool",
              "name": "exists",
              "type": "bool"
            }
          ],
          "internalType": "struct LockedNORIV2.TokenGrantDetail",
          "name": "expectedGrantDetails",
          "type": "tuple"
        }
      ],
      "name": "assertSimplePastGrant",
      "outputs": [],
      "stateMutability": "view",
      "type": "function"
    },
    {
      "inputs": [
        {
          "internalType": "address",
          "name": "lnori",
          "type": "address"
        },
        {
          "internalType": "uint256",
          "name": "amount",
          "type": "uint256"
        },
        {
          "internalType": "address",
          "name": "recipient",
          "type": "address"
        },
        {
          "internalType": "uint256",
          "name": "startTime",
          "type": "uint256"
        },
        {
          "internalType": "uint256",
          "name": "vestEndTime",
          "type": "uint256"
        },
        {
          "internalType": "uint256",
          "name": "unlockEndTime",
          "type": "uint256"
        },
        {
          "internalType": "uint256",
          "name": "cliff1Time",
          "type": "uint256"
        },
        {
          "internalType": "uint256",
          "name": "vestCliff1Amount",
          "type": "uint256"
        },
        {
          "internalType": "uint256",
          "name": "unlockCliff1Amount",
          "type": "uint256"
        }
      ],
      "name": "createFixtureGrant",
      "outputs": [],
      "stateMutability": "nonpayable",
      "type": "function"
    },
    {
      "inputs": [
        {
          "internalType": "address",
          "name": "lnori",
          "type": "address"
        },
        {
          "internalType": "uint256",
          "name": "amount",
          "type": "uint256"
        },
        {
          "internalType": "address",
          "name": "recipient",
          "type": "address"
        },
        {
          "internalType": "uint256",
          "name": "fromTime",
          "type": "uint256"
        }
      ],
      "name": "createSimpleGrant",
      "outputs": [],
      "stateMutability": "nonpayable",
      "type": "function"
    },
    {
      "inputs": [
        {
          "internalType": "address",
          "name": "lnori",
          "type": "address"
        },
        {
          "internalType": "uint256",
          "name": "amount",
          "type": "uint256"
        },
        {
          "internalType": "address",
          "name": "recipient",
          "type": "address"
        }
      ],
      "name": "createSimpleGrantFromNow",
      "outputs": [],
      "stateMutability": "nonpayable",
      "type": "function"
    },
    {
      "inputs": [
        {
          "internalType": "address",
          "name": "recipient",
          "type": "address"
        },
        {
          "internalType": "uint256",
          "name": "startTime",
          "type": "uint256"
        },
        {
          "internalType": "uint256",
          "name": "vestEndTime",
          "type": "uint256"
        },
        {
          "internalType": "uint256",
          "name": "unlockEndTime",
          "type": "uint256"
        },
        {
          "internalType": "uint256",
          "name": "cliff1Time",
          "type": "uint256"
        },
        {
          "internalType": "uint256",
          "name": "cliff2Time",
          "type": "uint256"
        },
        {
          "internalType": "uint256",
          "name": "vestCliff1Amount",
          "type": "uint256"
        },
        {
          "internalType": "uint256",
          "name": "vestCliff2Amount",
          "type": "uint256"
        },
        {
          "internalType": "uint256",
          "name": "unlockCliff1Amount",
          "type": "uint256"
        },
        {
          "internalType": "uint256",
          "name": "unlockCliff2Amount",
          "type": "uint256"
        }
      ],
      "name": "encodeGrantCreationParams",
      "outputs": [
        {
          "internalType": "bytes",
          "name": "",
          "type": "bytes"
        }
      ],
      "stateMutability": "pure",
      "type": "function"
    },
    {
      "inputs": [
        {
          "internalType": "address",
          "name": "lnori",
          "type": "address"
        },
        {
          "internalType": "address",
          "name": "recipient",
          "type": "address"
        }
      ],
      "name": "get",
      "outputs": [
        {
          "components": [
            {
              "internalType": "uint256",
              "name": "grantAmount",
              "type": "uint256"
            },
            {
              "internalType": "address",
              "name": "recipient",
              "type": "address"
            },
            {
              "internalType": "uint256",
              "name": "startTime",
              "type": "uint256"
            },
            {
              "internalType": "uint256",
              "name": "vestEndTime",
              "type": "uint256"
            },
            {
              "internalType": "uint256",
              "name": "unlockEndTime",
              "type": "uint256"
            },
            {
              "internalType": "uint256",
              "name": "cliff1Time",
              "type": "uint256"
            },
            {
              "internalType": "uint256",
              "name": "cliff2Time",
              "type": "uint256"
            },
            {
              "internalType": "uint256",
              "name": "vestCliff1Amount",
              "type": "uint256"
            },
            {
              "internalType": "uint256",
              "name": "vestCliff2Amount",
              "type": "uint256"
            },
            {
              "internalType": "uint256",
              "name": "unlockCliff1Amount",
              "type": "uint256"
            },
            {
              "internalType": "uint256",
              "name": "unlockCliff2Amount",
              "type": "uint256"
            },
            {
              "internalType": "uint256",
              "name": "claimedAmount",
              "type": "uint256"
            },
            {
              "internalType": "uint256",
              "name": "originalAmount",
              "type": "uint256"
            },
            {
              "internalType": "uint256",
              "name": "lastRevocationTime",
              "type": "uint256"
            },
            {
              "internalType": "uint256",
              "name": "lastQuantityRevoked",
              "type": "uint256"
            },
            {
              "internalType": "bool",
              "name": "exists",
              "type": "bool"
            }
          ],
          "internalType": "struct LockedNORIV2.TokenGrantDetail",
          "name": "",
          "type": "tuple"
        }
      ],
      "stateMutability": "view",
      "type": "function"
    },
    {
      "inputs": [
        {
          "internalType": "address",
          "name": "recipient",
          "type": "address"
        },
        {
          "internalType": "uint256",
          "name": "fromTime",
          "type": "uint256"
        }
      ],
      "name": "getSimpleGrantCreationParamsEncoded",
      "outputs": [
        {
          "internalType": "bytes",
          "name": "",
          "type": "bytes"
        }
      ],
      "stateMutability": "pure",
      "type": "function"
    }
  ],
  "bytecode": "0x608060405234801561001057600080fd5b50610d4a806100206000396000f3fe608060405234801561001057600080fd5b506004361061007d5760003560e01c80634f5a399d1161005b5780634f5a399d146101475780638cc870eb1461015a578063a92fbe801461016d578063d81e84231461018057600080fd5b80631150ef60146100825780631ad249a6146100975780633ff7755614610134575b600080fd5b610095610090366004610724565b6101a0565b005b61011e6100a5366004610785565b6040805173ffffffffffffffffffffffffffffffffffffffff9b909b1660208c01528a81019990995260608a0197909752608089019590955260a088019390935260c087019190915260e08601526101008501526101208401526101408084019190915281518084039091018152610160909201905290565b60405161012b91906107f6565b60405180910390f35b61011e610142366004610869565b61027b565b610095610155366004610895565b610321565b61009561016836600461090d565b6103f7565b61009561017b36600461094f565b610409565b61019361018e366004610997565b61043b565b60405161012b91906109d0565b600073ffffffffffffffffffffffffffffffffffffffff831663bf31dbf46101ce6040850160208601610a9f565b6040517fffffffff0000000000000000000000000000000000000000000000000000000060e084901b16815273ffffffffffffffffffffffffffffffffffffffff909116600482015260240161020060405180830381865afa158015610238573d6000803e3d6000fd5b505050506040513d601f19601f8201168201806040525081019061025c9190610b31565b90506102768161027136859003850185610c0e565b610564565b505050565b606061031a8383610290816301e13380610cd5565b61029e866301e13380610cd5565b6040805173ffffffffffffffffffffffffffffffffffffffff959095166020860152848101939093526060840191909152608083015260a0820185905260c08201859052600060e08301819052610100830181905261012083018190526101408084019190915281518084039091018152610160909201905290565b9392505050565b6040517f271c6e1a0000000000000000000000000000000000000000000000000000000081526004810189905273ffffffffffffffffffffffffffffffffffffffff888116602483015260448201889052606482018790526084820186905260a4820185905260c4820185905260e482018490526000610104830181905261012483018490526101448301528a169063271c6e1a9061016401600060405180830381600087803b1580156103d457600080fd5b505af11580156103e8573d6000803e3d6000fd5b50505050505050505050505050565b61027683838361017b42610e10610cd5565b6104358484848461041e816301e13380610cd5565b61042c876301e13380610cd5565b87600080610321565b50505050565b6104d360405180610200016040528060008152602001600073ffffffffffffffffffffffffffffffffffffffff168152602001600081526020016000815260200160008152602001600081526020016000815260200160008152602001600081526020016000815260200160008152602001600081526020016000815260200160008152602001600081526020016000151581525090565b6040517fbf31dbf400000000000000000000000000000000000000000000000000000000815273ffffffffffffffffffffffffffffffffffffffff838116600483015284169063bf31dbf49060240161020060405180830381865afa158015610540573d6000803e3d6000fd5b505050506040513d601f19601f8201168201806040525081019061031a9190610b31565b805182511415806105a95750806020015173ffffffffffffffffffffffffffffffffffffffff16826020015173ffffffffffffffffffffffffffffffffffffffff1614155b806105bc57508060400151826040015114155b806105cf57508060600151826060015114155b806105e257508060800151826080015114155b806105f557508060a001518260a0015114155b8061060857508060c001518260c0015114155b8061061b57508060e001518260e0015114155b80610630575080610100015182610100015114155b80610645575080610120015182610120015114155b8061065a575080610140015182610140015114155b156106eb576040517f08c379a000000000000000000000000000000000000000000000000000000000815260206004820152602e60248201527f4572726f723a2061203d3d2062206e6f7420736174697366696564205b546f6b60448201527f656e4772616e7444657461696c5d000000000000000000000000000000000000606482015260840160405180910390fd5b5050565b73ffffffffffffffffffffffffffffffffffffffff8116811461071157600080fd5b50565b803561071f816106ef565b919050565b60008082840361022081121561073957600080fd5b8335610744816106ef565b92506102007fffffffffffffffffffffffffffffffffffffffffffffffffffffffffffffffe08201121561077757600080fd5b506020830190509250929050565b6000806000806000806000806000806101408b8d0312156107a557600080fd5b8a356107b0816106ef565b9c60208c01359c5060408c01359b60608101359b5060808101359a5060a0810135995060c0810135985060e0810135975061010081013596506101200135945092505050565b600060208083528351808285015260005b8181101561082357858101830151858201604001528201610807565b81811115610835576000604083870101525b50601f017fffffffffffffffffffffffffffffffffffffffffffffffffffffffffffffffe016929092016040019392505050565b6000806040838503121561087c57600080fd5b8235610887816106ef565b946020939093013593505050565b60008060008060008060008060006101208a8c0312156108b457600080fd5b89356108bf816106ef565b985060208a0135975060408a01356108d6816106ef565b989b979a5097986060810135985060808101359760a0820135975060c0820135965060e08201359550610100909101359350915050565b60008060006060848603121561092257600080fd5b833561092d816106ef565b9250602084013591506040840135610944816106ef565b809150509250925092565b6000806000806080858703121561096557600080fd5b8435610970816106ef565b9350602085013592506040850135610987816106ef565b9396929550929360600135925050565b600080604083850312156109aa57600080fd5b82356109b5816106ef565b915060208301356109c5816106ef565b809150509250929050565b81518152602080830151610200830191610a019084018273ffffffffffffffffffffffffffffffffffffffff169052565b5060408381015190830152606080840151908301526080808401519083015260a0808401519083015260c0808401519083015260e08084015190830152610100808401519083015261012080840151908301526101408084015190830152610160808401519083015261018080840151908301526101a080840151908301526101c080840151908301526101e0928301511515929091019190915290565b600060208284031215610ab157600080fd5b813561031a816106ef565b604051610200810167ffffffffffffffff81118282101715610b07577f4e487b7100000000000000000000000000000000000000000000000000000000600052604160045260246000fd5b60405290565b805161071f816106ef565b801515811461071157600080fd5b805161071f81610b18565b60006102008284031215610b4457600080fd5b610b4c610abc565b82518152610b5c60208401610b0d565b602082015260408381015190820152606080840151908201526080808401519082015260a0808401519082015260c0808401519082015260e08084015190820152610100808401519082015261012080840151908201526101408084015190820152610160808401519082015261018080840151908201526101a080840151908201526101c080840151908201526101e0610bf8818501610b26565b908201529392505050565b803561071f81610b18565b60006102008284031215610c2157600080fd5b610c29610abc565b82358152610c3960208401610714565b602082015260408381013590820152606080840135908201526080808401359082015260a0808401359082015260c0808401359082015260e08084013590820152610100808401359082015261012080840135908201526101408084013590820152610160808401359082015261018080840135908201526101a080840135908201526101c080840135908201526101e0610bf8818501610c03565b60008219821115610d0f577f4e487b7100000000000000000000000000000000000000000000000000000000600052601160045260246000fd5b50019056fea26469706673582212201ab9bd748730d6ecb0015608f2e709b734df502179fdd52045e9d4a6b620789664736f6c634300080f0033",
  "linkReferences": {},
  "deployedLinkReferences": {}
}