{
  "_format": "hh-sol-artifact-1",
  "contractName": "FIFOMarket",
  "sourceName": "contracts/FIFOMarket.sol",
  "abi": [
    {
      "anonymous": false,
      "inputs": [
        {
          "indexed": false,
          "internalType": "uint256",
          "name": "threshold",
          "type": "uint256"
        }
      ],
      "name": "PriorityRestrictedThresholdSet",
      "type": "event"
    },
    {
      "anonymous": false,
      "inputs": [
        {
          "indexed": true,
          "internalType": "bytes32",
          "name": "role",
          "type": "bytes32"
        },
        {
          "indexed": true,
          "internalType": "bytes32",
          "name": "previousAdminRole",
          "type": "bytes32"
        },
        {
          "indexed": true,
          "internalType": "bytes32",
          "name": "newAdminRole",
          "type": "bytes32"
        }
      ],
      "name": "RoleAdminChanged",
      "type": "event"
    },
    {
      "anonymous": false,
      "inputs": [
        {
          "indexed": true,
          "internalType": "bytes32",
          "name": "role",
          "type": "bytes32"
        },
        {
          "indexed": true,
          "internalType": "address",
          "name": "account",
          "type": "address"
        },
        {
          "indexed": true,
          "internalType": "address",
          "name": "sender",
          "type": "address"
        }
      ],
      "name": "RoleGranted",
      "type": "event"
    },
    {
      "anonymous": false,
      "inputs": [
        {
          "indexed": true,
          "internalType": "bytes32",
          "name": "role",
          "type": "bytes32"
        },
        {
          "indexed": true,
          "internalType": "address",
          "name": "account",
          "type": "address"
        },
        {
          "indexed": true,
          "internalType": "address",
          "name": "sender",
          "type": "address"
        }
      ],
      "name": "RoleRevoked",
      "type": "event"
    },
    {
      "inputs": [],
      "name": "ALLOWLIST_ROLE",
      "outputs": [
        {
          "internalType": "bytes32",
          "name": "",
          "type": "bytes32"
        }
      ],
      "stateMutability": "view",
      "type": "function"
    },
    {
      "inputs": [],
      "name": "DEFAULT_ADMIN_ROLE",
      "outputs": [
        {
          "internalType": "bytes32",
          "name": "",
          "type": "bytes32"
        }
      ],
      "stateMutability": "view",
      "type": "function"
    },
    {
      "inputs": [],
      "name": "activeSupplierCount",
      "outputs": [
        {
          "internalType": "uint256",
          "name": "",
          "type": "uint256"
        }
      ],
      "stateMutability": "view",
      "type": "function"
    },
    {
      "inputs": [
        {
          "internalType": "bytes32",
          "name": "role",
          "type": "bytes32"
        }
      ],
      "name": "getRoleAdmin",
      "outputs": [
        {
          "internalType": "bytes32",
          "name": "",
          "type": "bytes32"
        }
      ],
      "stateMutability": "view",
      "type": "function"
    },
    {
      "inputs": [
        {
          "internalType": "bytes32",
          "name": "role",
          "type": "bytes32"
        },
        {
          "internalType": "uint256",
          "name": "index",
          "type": "uint256"
        }
      ],
      "name": "getRoleMember",
      "outputs": [
        {
          "internalType": "address",
          "name": "",
          "type": "address"
        }
      ],
      "stateMutability": "view",
      "type": "function"
    },
    {
      "inputs": [
        {
          "internalType": "bytes32",
          "name": "role",
          "type": "bytes32"
        }
      ],
      "name": "getRoleMemberCount",
      "outputs": [
        {
          "internalType": "uint256",
          "name": "",
          "type": "uint256"
        }
      ],
      "stateMutability": "view",
      "type": "function"
    },
    {
      "inputs": [
        {
          "internalType": "bytes32",
          "name": "role",
          "type": "bytes32"
        },
        {
          "internalType": "address",
          "name": "account",
          "type": "address"
        }
      ],
      "name": "grantRole",
      "outputs": [],
      "stateMutability": "nonpayable",
      "type": "function"
    },
    {
      "inputs": [
        {
          "internalType": "bytes32",
          "name": "role",
          "type": "bytes32"
        },
        {
          "internalType": "address",
          "name": "account",
          "type": "address"
        }
      ],
      "name": "hasRole",
      "outputs": [
        {
          "internalType": "bool",
          "name": "",
          "type": "bool"
        }
      ],
      "stateMutability": "view",
      "type": "function"
    },
    {
      "inputs": [
        {
          "internalType": "address",
          "name": "removalAddress",
          "type": "address"
        },
        {
          "internalType": "address",
          "name": "bridgedPolygonNoriAddress",
          "type": "address"
        },
        {
          "internalType": "address",
          "name": "certificateAddress",
          "type": "address"
        },
        {
          "internalType": "address",
          "name": "restrictedNoriAddress",
          "type": "address"
        },
        {
          "internalType": "address",
          "name": "noriFeeWalletAddress",
          "type": "address"
        },
        {
          "internalType": "uint256",
          "name": "noriFee",
          "type": "uint256"
        }
      ],
      "name": "initialize",
      "outputs": [],
      "stateMutability": "nonpayable",
      "type": "function"
    },
    {
      "inputs": [],
      "name": "numberOfActiveNrtsInMarketComputed",
      "outputs": [
        {
          "internalType": "uint256",
          "name": "",
          "type": "uint256"
        }
      ],
      "stateMutability": "view",
      "type": "function"
    },
    {
      "inputs": [
        {
          "internalType": "address",
          "name": "",
          "type": "address"
        },
        {
          "internalType": "address",
          "name": "",
          "type": "address"
        },
        {
          "internalType": "uint256[]",
          "name": "ids",
          "type": "uint256[]"
        },
        {
          "internalType": "uint256[]",
          "name": "",
          "type": "uint256[]"
        },
        {
          "internalType": "bytes",
          "name": "",
          "type": "bytes"
        }
      ],
      "name": "onERC1155BatchReceived",
      "outputs": [
        {
          "internalType": "bytes4",
          "name": "",
          "type": "bytes4"
        }
      ],
      "stateMutability": "nonpayable",
      "type": "function"
    },
    {
      "inputs": [
        {
          "internalType": "address",
          "name": "",
          "type": "address"
        },
        {
          "internalType": "address",
          "name": "",
          "type": "address"
        },
        {
          "internalType": "uint256",
          "name": "",
          "type": "uint256"
        },
        {
          "internalType": "uint256",
          "name": "",
          "type": "uint256"
        },
        {
          "internalType": "bytes",
          "name": "",
          "type": "bytes"
        }
      ],
      "name": "onERC1155Received",
      "outputs": [
        {
          "internalType": "bytes4",
          "name": "",
          "type": "bytes4"
        }
      ],
      "stateMutability": "nonpayable",
      "type": "function"
    },
    {
      "inputs": [],
      "name": "priorityRestrictedThreshold",
      "outputs": [
        {
          "internalType": "uint256",
          "name": "",
          "type": "uint256"
        }
      ],
      "stateMutability": "view",
      "type": "function"
    },
    {
      "inputs": [],
      "name": "registerAddresses",
      "outputs": [],
      "stateMutability": "nonpayable",
      "type": "function"
    },
    {
      "inputs": [
        {
          "internalType": "bytes32",
          "name": "role",
          "type": "bytes32"
        },
        {
          "internalType": "address",
          "name": "account",
          "type": "address"
        }
      ],
      "name": "renounceRole",
      "outputs": [],
      "stateMutability": "nonpayable",
      "type": "function"
    },
    {
      "inputs": [
        {
          "internalType": "uint256",
          "name": "removalId",
          "type": "uint256"
        }
      ],
      "name": "reserveRemoval",
      "outputs": [
        {
          "internalType": "bool",
          "name": "",
          "type": "bool"
        }
      ],
      "stateMutability": "nonpayable",
      "type": "function"
    },
    {
      "inputs": [
        {
          "internalType": "bytes32",
          "name": "role",
          "type": "bytes32"
        },
        {
          "internalType": "address",
          "name": "account",
          "type": "address"
        }
      ],
      "name": "revokeRole",
      "outputs": [],
      "stateMutability": "nonpayable",
      "type": "function"
    },
    {
      "inputs": [
        {
          "internalType": "uint256",
          "name": "threshold",
          "type": "uint256"
        }
      ],
      "name": "setPriorityRestrictedThreshold",
      "outputs": [],
      "stateMutability": "nonpayable",
      "type": "function"
    },
    {
      "inputs": [
        {
          "internalType": "bytes4",
          "name": "interfaceId",
          "type": "bytes4"
        }
      ],
      "name": "supportsInterface",
      "outputs": [
        {
          "internalType": "bool",
          "name": "",
          "type": "bool"
        }
      ],
      "stateMutability": "view",
      "type": "function"
    },
    {
      "inputs": [
        {
          "internalType": "address",
          "name": "",
          "type": "address"
        },
        {
          "internalType": "address",
          "name": "from",
          "type": "address"
        },
        {
          "internalType": "address",
          "name": "",
          "type": "address"
        },
        {
          "internalType": "uint256",
          "name": "amount",
          "type": "uint256"
        },
        {
          "internalType": "bytes",
          "name": "userData",
          "type": "bytes"
        },
        {
          "internalType": "bytes",
          "name": "",
          "type": "bytes"
        }
      ],
      "name": "tokensReceived",
      "outputs": [],
      "stateMutability": "nonpayable",
      "type": "function"
    },
    {
      "inputs": [],
      "name": "totalActiveSupply",
      "outputs": [
        {
          "internalType": "uint256",
          "name": "",
          "type": "uint256"
        }
      ],
      "stateMutability": "view",
      "type": "function"
    },
    {
      "inputs": [],
      "name": "totalNumberActiveRemovals",
      "outputs": [
        {
          "internalType": "uint256",
          "name": "",
          "type": "uint256"
        }
      ],
      "stateMutability": "view",
      "type": "function"
    },
    {
      "inputs": [],
      "name": "totalReservedSupply",
      "outputs": [
        {
          "internalType": "uint256",
          "name": "",
          "type": "uint256"
        }
      ],
      "stateMutability": "view",
      "type": "function"
    },
    {
      "inputs": [],
      "name": "totalUnrestrictedSupply",
      "outputs": [
        {
          "internalType": "uint256",
          "name": "",
          "type": "uint256"
        }
      ],
      "stateMutability": "view",
      "type": "function"
    },
    {
      "inputs": [
        {
          "internalType": "uint256",
          "name": "removalId",
          "type": "uint256"
        }
      ],
      "name": "unreserveRemoval",
      "outputs": [
        {
          "internalType": "bool",
          "name": "",
          "type": "bool"
        }
      ],
      "stateMutability": "nonpayable",
      "type": "function"
    }
  ],
  "bytecode": "0x608060405234801561001057600080fd5b50612fd2806100206000396000f3fe608060405234801561001057600080fd5b50600436106101725760003560e01c806372069264116100de578063a217fddf11610097578063d3a957e411610071578063d3a957e414610332578063d547741f1461033a578063d797462f1461034d578063f23a6e611461036057600080fd5b8063a217fddf146102eb578063bc197c81146102f3578063ca15c8731461031f57600080fd5b806372069264146102755780637530b4501461027f5780639010d07c1461028757806391d14854146102b257806395b6ef0c146102c557806397a11ee9146102d857600080fd5b80633030b532116101305780633030b5321461020c578063361b7b9d1461023357806336568abe1461023d5780633eb12cee1461025057806359e1a71c14610258578063674d13c81461026b57600080fd5b806223de291461017757806301ffc9a71461018c57806312de2b05146101b4578063179f0445146101cc578063248a9ca3146101d65780632f2ff15d146101f9575b600080fd5b61018a6101853660046126ff565b61037f565b005b61019f61019a3660046127af565b610e75565b60405190151581526020015b60405180910390f35b6101be6101375481565b6040519081526020016101ab565b6101be6101385481565b6101be6101e43660046127d9565b60009081526065602052604090206001015490565b61018a6102073660046127f2565b610e95565b6101be7f26a560d834a19637eccba4611bbc09fb32970bb627da0a70f14f83fdc9822cbc81565b6101be61013b5481565b61018a61024b3660046127f2565b610ec0565b6101be610f3e565b61019f6102663660046127d9565b610fd0565b6101be61013a5481565b6101be6101395481565b6101be6111a8565b61029a610295366004612822565b6111d5565b6040516001600160a01b0390911681526020016101ab565b61019f6102c03660046127f2565b6111f4565b61018a6102d3366004612844565b61121f565b61019f6102e63660046127d9565b61148d565b6101be600081565b610306610301366004612a00565b611667565b6040516001600160e01b031990911681526020016101ab565b6101be61032d3660046127d9565b61185b565b61018a611872565b61018a6103483660046127f2565b611959565b61018a61035b3660046127d9565b61197f565b61030661036e366004612aad565b63f23a6e6160e01b95945050505050565b610139546000036103ce5760405162461bcd60e51b81526020600482015260146024820152734d61726b65743a204f7574206f662073746f636b60601b60448201526064015b60405180910390fd5b61013754610139541161045f576104057f26a560d834a19637eccba4611bbc09fb32970bb627da0a70f14f83fdc9822cbc886111f4565b61045f5760405162461bcd60e51b815260206004820152602560248201527f4c6f7720737570706c7920616e64206275796572206e6f74206f6e20616c6c6f6044820152641ddb1a5cdd60da1b60648201526084016103c5565b60006101365460646104719190612b2b565b61047c876064612b43565b6104869190612b62565b905080600061049786880188612b84565b90506001600160a01b0381166104fb5760405162461bcd60e51b8152602060048201526024808201527f4d61726b65743a2043616e6e6f74206d696e7420746f207468652030206164646044820152637265737360e01b60648201526084016103c5565b610133546001600160a01b0316331461057c5760405162461bcd60e51b815260206004820152603960248201527f4d61726b65743a205468697320636f6e74726163742063616e206f6e6c79207260448201527f6563656976652042726964676564506f6c79676f6e4e4f52490000000000000060648201526084016103c5565b6000610138546001600160401b03811115610599576105996128bd565b6040519080825280602002602001820160405280156105c2578160200160208202803683370190505b5090506000610138546001600160401b038111156105e2576105e26128bd565b60405190808252806020026020018201604052801561060b578160200160208202803683370190505b5090506000610138546001600160401b0381111561062b5761062b6128bd565b604051908082528060200260200182016040528015610654578160200160208202803683370190505b5090506000805b610138548110156109b05761013c546001600160a01b0316600090815261013e6020526040812061068b906119c8565b61013154604051627eeac760e11b8152306004820152602481018390529192506000916001600160a01b039091169062fdd58e90604401602060405180830381865afa1580156106df573d6000803e3d6000fd5b505050506040513d601f19601f820116820180604052508101906107039190612ba1565b905080891015610797578187858151811061072057610720612bba565b6020026020010181815250508886858151811061073f5761073f612bba565b602090810291909101015261013c5485516001600160a01b039091169086908690811061076e5761076e612bba565b60200260200101906001600160a01b031690816001600160a01b0316815250506000985061097f565b6001610138546107a79190612bd0565b831480156107b457508089115b156108015760405162461bcd60e51b815260206004820152601960248201527f4d61726b65743a204e6f7420656e6f75676820737570706c790000000000000060448201526064016103c5565b8187858151811061081457610814612bba565b6020026020010181815250508086858151811061083357610833612bba565b602090810291909101015261013c5485516001600160a01b039091169086908690811061086257610862612bba565b6001600160a01b0390921660209283029190910190910152610884818a612bd0565b61013c546001600160a01b0316600090815261013e602052604090209099506108ad90836119e5565b61090e5760405162461bcd60e51b815260206004820152602c60248201527f4d61726b65743a204661696c656420746f2072656d6f76652072656d6f76616c60448201526b2066726f6d20737570706c7960a01b60648201526084016103c5565b61013c546001600160a01b0316600090815261013e602052604090206002015461094d5761013c54610948906001600160a01b0316611b7e565b61097f565b61013c546001600160a01b03908116600081815261013d60205260409020600101549091161461097f5761097f611ca0565b8361098981612be7565b9450508860000361099b5750506109b0565b505080806109a890612be7565b91505061065b565b506000816001600160401b038111156109cb576109cb6128bd565b6040519080825280602002602001820160405280156109f4578160200160208202803683370190505b5090506000826001600160401b03811115610a1157610a116128bd565b604051908082528060200260200182016040528015610a3a578160200160208202803683370190505b50905060005b83811015610ac957868181518110610a5a57610a5a612bba565b6020026020010151838281518110610a7457610a74612bba565b602002602001018181525050858181518110610a9257610a92612bba565b6020026020010151828281518110610aac57610aac612bba565b602090810291909101015280610ac181612be7565b915050610a40565b50600089604051602001610adf91815260200190565b60408051601f198184030181529082905261013254630fbfeffd60e11b83529092506001600160a01b031690631f7fdffa90610b25908b90879087908790600401612c97565b600060405180830381600087803b158015610b3f57600080fd5b505af1158015610b53573d6000803e3d6000fd5b50506101315460405163018e1c8360e01b8152600093506001600160a01b03909116915063018e1c8390610b8d9030908890600401612cec565b600060405180830381865afa158015610baa573d6000803e3d6000fd5b505050506040513d6000823e601f3d908101601f19168201604052610bd29190810190612d10565b905060005b8451811015610df857818181518110610bf257610bf2612bba565b6020026020010151848281518110610c0c57610c0c612bba565b602002602001015103610c335760016101386000828254610c2d9190612bd0565b90915550505b838181518110610c4557610c45612bba565b60200260200101516101396000828254610c5f9190612bd0565b925050819055506000610136546064868481518110610c8057610c80612bba565b6020026020010151610c929190612b62565b610c9c9190612b43565b90506000858381518110610cb257610cb2612bba565b6020908102919091010151610133546101355460405163a9059cbb60e01b81526001600160a01b03918216600482015260248101869052929350169063a9059cbb906044016020604051808303816000875af1158015610d16573d6000803e3d6000fd5b505050506040513d601f19601f82011682018060405250810190610d3a9190612d95565b506101335489516001600160a01b039091169063a9059cbb908b9086908110610d6557610d65612bba565b6020026020010151836040518363ffffffff1660e01b8152600401610d9f9291906001600160a01b03929092168252602082015260400190565b6020604051808303816000875af1158015610dbe573d6000803e3d6000fd5b505050506040513d601f19601f82011682018060405250810190610de29190612d95565b5050508080610df090612be7565b915050610bd7565b5061013154604051631ac8311560e21b81526001600160a01b0390911690636b20c45490610e2e90309088908890600401612db7565b600060405180830381600087803b158015610e4857600080fd5b505af1158015610e5c573d6000803e3d6000fd5b5050505050505050505050505050505050505050505050565b6000610e8082611cd5565b80610e8f5750610e8f82611cfa565b92915050565b600082815260656020526040902060010154610eb18133611d1f565b610ebb8383611d83565b505050565b6001600160a01b0381163314610f305760405162461bcd60e51b815260206004820152602f60248201527f416363657373436f6e74726f6c3a2063616e206f6e6c792072656e6f756e636560448201526e103937b632b9903337b91039b2b63360891b60648201526084016103c5565b610f3a8282611da5565b5050565b61013c5460009081906001600160a01b0316815b61013b54811015610fc857610131546001600160a01b03838116600090815261013e60205260409020610f8792909116611dc7565b610f919084612b2b565b6001600160a01b03928316600090815261013d60205260409020600101549093509091169080610fc081612be7565b915050610f52565b509092915050565b600080610fdc83611f71565b6001600160a01b038116600090815261013e6020526040902090915061100290846119e5565b61105a5760405162461bcd60e51b8152602060048201526024808201527f4d61726b65743a2072656d6f76616c206e6f7420696e2061637469766520737560448201526370706c7960e01b60648201526084016103c5565b61013154604051627eeac760e11b8152306004820152602481018590526000916001600160a01b03169062fdd58e90604401602060405180830381865afa1580156110a9573d6000803e3d6000fd5b505050506040513d601f19601f820116820180604052508101906110cd9190612ba1565b90508061013960008282546110e29190612bd0565b925050819055508061013a60008282546110fc9190612b2b565b92505081905550600161013860008282546111179190612bd0565b90915550506001600160a01b038216600090815261013e60205260409020600201546111465761114682611b7e565b61115261013f85611f80565b61119e5760405162461bcd60e51b815260206004820181905260248201527f4d61726b65743a2052656d6f76616c20616c726561647920726573657276656460448201526064016103c5565b5060019392505050565b6000610137546101395410156111be5750600090565b61013754610139546111d09190612bd0565b905090565b60008281526097602052604081206111ed9083611f8c565b9392505050565b60009182526065602090815260408084206001600160a01b0393909316845291905290205460ff1690565b600054610100900460ff1661123a5760005460ff161561123e565b303b155b6112a15760405162461bcd60e51b815260206004820152602e60248201527f496e697469616c697a61626c653a20636f6e747261637420697320616c72656160448201526d191e481a5b9a5d1a585b1a5e995960921b60648201526084016103c5565b600054610100900460ff161580156112c3576000805461ffff19166101011790555b6112cb611f98565b6112d3611f98565b6112db611f98565b6112e3611f98565b6112eb611f98565b61012e80546001600160a01b03199081166001600160a01b038a811691821790935561012f80548316888516908117909155610130805484168b8616908117909155610131805485169093179092556101338054841690921790915561013280548316898516179055610134805483169091179055610135805482169286169290921790915561013683905561012d8054731820a4b7618bde71dce8cdc73aab6c95905fad249216821790556040516329965a1d60e01b815230600482018190527fb281fc8c12954d22544db45de3159a39272895b169a852b314f9cc762e44c53b602483015260448201526329965a1d90606401600060405180830381600087803b1580156113fa57600080fd5b505af115801561140e573d6000803e3d6000fd5b5050600061013781905561013981905561013a81905561013881905561013c80546001600160a01b03191690556114489250905033611d83565b6114727f26a560d834a19637eccba4611bbc09fb32970bb627da0a70f14f83fdc9822cbc33611d83565b8015611484576000805461ff00191690555b50505050505050565b60008061149983611f71565b90506114a761013f84612005565b6115025760405162461bcd60e51b815260206004820152602660248201527f4d61726b65743a2072656d6f76616c206e6f7420696e20726573657276656420604482015265737570706c7960d01b60648201526084016103c5565b600161013860008282546115169190612b2b565b909155505061013154604051627eeac760e11b8152306004820152602481018590526000916001600160a01b03169062fdd58e90604401602060405180830381865afa15801561156a573d6000803e3d6000fd5b505050506040513d601f19601f8201168201806040525081019061158e9190612ba1565b90508061013960008282546115a39190612b2b565b925050819055508061013a60008282546115bd9190612bd0565b90915550506001600160a01b038216600090815261013e60205260409020600201546115ec576115ec82612011565b6001600160a01b038216600090815261013e6020526040902061160f908561213a565b61119e5760405162461bcd60e51b815260206004820152602360248201527f4d61726b65743a20556e61626c6520746f20756e726573657276652072656d6f6044820152621d985b60ea1b60648201526084016103c5565b6101315460405163018e1c8360e01b815260009182916001600160a01b039091169063018e1c839061169f9030908990600401612cec565b600060405180830381865afa1580156116bc573d6000803e3d6000fd5b505050506040513d6000823e601f3d908101601f191682016040526116e49190810190612d10565b905060005b855181101561184757600086828151811061170657611706612bba565b60200260200101519050600061171b82611f71565b9050600084848151811061173157611731612bba565b602002602001015190506117738361013e6000856001600160a01b03166001600160a01b0316815260200190815260200160002061213a90919063ffffffff16565b6117d05760405162461bcd60e51b815260206004820152602860248201527f4d61726b65743a20556e61626c6520746f206164642072656d6f76616c2062796044820152672076696e7461676560c01b60648201526084016103c5565b6001600160a01b03828116600090815261013d6020526040902060010154166117fc576117fc82612011565b80610139600082825461180f9190612b2b565b925050819055506001610138600082825461182a9190612b2b565b92505081905550505050808061183f90612be7565b9150506116e9565b5063bc197c8160e01b979650505050505050565b6000818152609760205260408120610e8f906121bc565b600061187e8133611d1f565b610134546101305461012e5460405163e5b6d2a960e01b81523060048201526001600160a01b039283166024820152908216604482015291169063e5b6d2a990606401600060405180830381600087803b1580156118db57600080fd5b505af11580156118ef573d6000803e3d6000fd5b50506101315461012f5460405163605edc4360e11b81526001600160a01b0391821660048201529116925063c0bdb8869150602401600060405180830381600087803b15801561193e57600080fd5b505af1158015611952573d6000803e3d6000fd5b5050505050565b6000828152606560205260409020600101546119758133611d1f565b610ebb8383611da5565b600061198b8133611d1f565b6101378290556040518281527f7ab6aa6547859e9ca74d567d44fefa0d63272ac019f4ebf9333032a62ea06fa59060200160405180910390a15050565b60018101546000908152602082905260408120610e8f9082611f8c565b6000806119f1836121c6565b61ffff166000818152602086905260409020909150611a109084612005565b611a6d5760405162461bcd60e51b815260206004820152602860248201527f4d61726b65743a206661696c656420746f2072656d6f766520636f7272656374604482015267081c995b5bdd985b60c21b60648201526084016103c5565b611a7784826121d5565b1561119e578360020154846001015403611a9f5760001960018501556000600285015561119e565b83600101548103611b0c57600084600101546001611abd9190612b2b565b90505b84600201548111611b06576000818152602086905260408120611ae2906121bc565b1115611af45760018501819055611b06565b80611afe81612be7565b915050611ac0565b5061119e565b8360020154810361119e57600060018560020154611b2a9190612bd0565b90505b84600101548110611b73576000818152602086905260408120611b4f906121bc565b1115611b615760028501819055611b73565b80611b6b81612df7565b915050611b2d565b505060019392505050565b6001600160a01b03808216600081815261013d60205260409020600101549091169003611bbb5761013c80546001600160a01b0319169055611c2d565b6001600160a01b03818116600081815261013d60205260408082206001808201805483548816865284862090920180549288166001600160a01b031993841617905591549154861684529190922080549285169290911691909117905561013c549091169003611c2d57611c2d611ca0565b604080518082018252600080825260208083018281526001600160a01b03868116845261013d909252938220925183546001600160a01b031990811691831691909117845593516001938401805490951691161790925561013b805491929091611c98908490612bd0565b909155505050565b61013c80546001600160a01b03808216600090815261013d6020526040902060010154166001600160a01b0319909116179055565b60006001600160e01b03198216635a05180f60e01b1480610e8f5750610e8f826121e9565b60006001600160e01b03198216630271189760e51b1480610e8f5750610e8f82611cd5565b611d2982826111f4565b610f3a57611d41816001600160a01b0316601461221e565b611d4c83602061221e565b604051602001611d5d929190612e0e565b60408051601f198184030181529082905262461bcd60e51b82526103c591600401612e83565b611d8d82826123b9565b6000828152609760205260409020610ebb908261243f565b611daf8282612454565b6000828152609760205260409020610ebb90826124bb565b60018201546000908190819081905b86600201548111611f67576000818152602088905260409020611df8906121bc565b93506000846001600160401b03811115611e1457611e146128bd565b604051908082528060200260200182016040528015611e3d578160200160208202803683370190505b509050600093505b84841015611e94576000828152602089905260409020611e659085611f8c565b818581518110611e7757611e77612bba565b602090810291909101015283611e8c81612be7565b945050611e45565b60405163018e1c8360e01b81526000906001600160a01b0389169063018e1c8390611ec59030908690600401612cec565b600060405180830381865afa158015611ee2573d6000803e3d6000fd5b505050506040513d6000823e601f3d908101601f19168201604052611f0a9190810190612d10565b9050600094505b85851015611f5257808581518110611f2b57611f2b612bba565b602002602001015184611f3e9190612b2b565b935084611f4a81612be7565b955050611f11565b50508080611f5f90612be7565b915050611dd6565b5095945050505050565b6000610e8f82601460046124d0565b60006111ed838361251c565b60006111ed838361256b565b600054610100900460ff166120035760405162461bcd60e51b815260206004820152602b60248201527f496e697469616c697a61626c653a20636f6e7472616374206973206e6f74206960448201526a6e697469616c697a696e6760a81b60648201526084016103c5565b565b60006111ed8383612595565b61013c546001600160a01b031661208c5761013c80546001600160a01b03199081166001600160a01b038481169182179093556040805180820182528281526020808201848152600094855261013d909152919092209151825484169085161782555160019190910180549092169216919091179055612126565b60408051808201825261013c80546001600160a01b03908116600081815261013d60208181528783205485168752808701938452888516808452919052868220955186549085166001600160a01b0319918216178755925160019687018054918616918516919091179055845484168252868220548416825286822090950180548316861790559254909116825292902080549092161790555b600161013b6000828254611c989190612b2b565b600080612146836121c6565b61ffff16905061215884600201541590565b1561217057600184018190556002840181905561219c565b8360010154811015612188576001840181905561219c565b836002015481111561219c57600284018190555b60008181526020859052604090206121b49084611f80565b949350505050565b6000610e8f825490565b6000610e8f826002601c6124d0565b60006121e18383612688565b159392505050565b60006001600160e01b03198216637965db0b60e01b1480610e8f57506301ffc9a760e01b6001600160e01b0319831614610e8f565b6060600061222d836002612b43565b612238906002612b2b565b6001600160401b0381111561224f5761224f6128bd565b6040519080825280601f01601f191660200182016040528015612279576020820181803683370190505b509050600360fc1b8160008151811061229457612294612bba565b60200101906001600160f81b031916908160001a905350600f60fb1b816001815181106122c3576122c3612bba565b60200101906001600160f81b031916908160001a90535060006122e7846002612b43565b6122f2906001612b2b565b90505b600181111561236a576f181899199a1a9b1b9c1cb0b131b232b360811b85600f166010811061232657612326612bba565b1a60f81b82828151811061233c5761233c612bba565b60200101906001600160f81b031916908160001a90535060049490941c9361236381612df7565b90506122f5565b5083156111ed5760405162461bcd60e51b815260206004820181905260248201527f537472696e67733a20686578206c656e67746820696e73756666696369656e7460448201526064016103c5565b6123c382826111f4565b610f3a5760008281526065602090815260408083206001600160a01b03851684529091529020805460ff191660011790556123fb3390565b6001600160a01b0316816001600160a01b0316837f2f8788117e7eff1d82e926ec794901d17c78024a50270940304540a733656f0d60405160405180910390a45050565b60006111ed836001600160a01b03841661251c565b61245e82826111f4565b15610f3a5760008281526065602090815260408083206001600160a01b0385168085529252808320805460ff1916905551339285917ff6391f5c32d9c69d2a47ea670b442974b53935d1edc7fd64eb21e047a839171b9190a45050565b60006111ed836001600160a01b038416612595565b6000806124de600884612b43565b60016124eb600887612b43565b6124f6906002612f7a565b6125009190612bd0565b901b9050848116612512600885612b43565b1c95945050505050565b600081815260018301602052604081205461256357508154600181810184556000848152602080822090930184905584548482528286019093526040902091909155610e8f565b506000610e8f565b600082600001828154811061258257612582612bba565b9060005260206000200154905092915050565b6000818152600183016020526040812054801561267e5760006125b9600183612bd0565b85549091506000906125cd90600190612bd0565b90508181146126325760008660000182815481106125ed576125ed612bba565b906000526020600020015490508087600001848154811061261057612610612bba565b6000918252602080832090910192909255918252600188019052604090208390555b855486908061264357612643612f86565b600190038181906000526020600020016000905590558560010160008681526020019081526020016000206000905560019350505050610e8f565b6000915050610e8f565b60008181526020839052604081206111ed906121bc565b6001600160a01b03811681146126b457600080fd5b50565b60008083601f8401126126c957600080fd5b5081356001600160401b038111156126e057600080fd5b6020830191508360208285010111156126f857600080fd5b9250929050565b60008060008060008060008060c0898b03121561271b57600080fd5b88356127268161269f565b975060208901356127368161269f565b965060408901356127468161269f565b95506060890135945060808901356001600160401b038082111561276957600080fd5b6127758c838d016126b7565b909650945060a08b013591508082111561278e57600080fd5b5061279b8b828c016126b7565b999c989b5096995094979396929594505050565b6000602082840312156127c157600080fd5b81356001600160e01b0319811681146111ed57600080fd5b6000602082840312156127eb57600080fd5b5035919050565b6000806040838503121561280557600080fd5b8235915060208301356128178161269f565b809150509250929050565b6000806040838503121561283557600080fd5b50508035926020909101359150565b60008060008060008060c0878903121561285d57600080fd5b86356128688161269f565b955060208701356128788161269f565b945060408701356128888161269f565b935060608701356128988161269f565b925060808701356128a88161269f565b8092505060a087013590509295509295509295565b634e487b7160e01b600052604160045260246000fd5b604051601f8201601f191681016001600160401b03811182821017156128fb576128fb6128bd565b604052919050565b60006001600160401b0382111561291c5761291c6128bd565b5060051b60200190565b600082601f83011261293757600080fd5b8135602061294c61294783612903565b6128d3565b82815260059290921b8401810191818101908684111561296b57600080fd5b8286015b84811015612986578035835291830191830161296f565b509695505050505050565b600082601f8301126129a257600080fd5b81356001600160401b038111156129bb576129bb6128bd565b6129ce601f8201601f19166020016128d3565b8181528460208386010111156129e357600080fd5b816020850160208301376000918101602001919091529392505050565b600080600080600060a08688031215612a1857600080fd5b8535612a238161269f565b94506020860135612a338161269f565b935060408601356001600160401b0380821115612a4f57600080fd5b612a5b89838a01612926565b94506060880135915080821115612a7157600080fd5b612a7d89838a01612926565b93506080880135915080821115612a9357600080fd5b50612aa088828901612991565b9150509295509295909350565b600080600080600060a08688031215612ac557600080fd5b8535612ad08161269f565b94506020860135612ae08161269f565b9350604086013592506060860135915060808601356001600160401b03811115612b0957600080fd5b612aa088828901612991565b634e487b7160e01b600052601160045260246000fd5b60008219821115612b3e57612b3e612b15565b500190565b6000816000190483118215151615612b5d57612b5d612b15565b500290565b600082612b7f57634e487b7160e01b600052601260045260246000fd5b500490565b600060208284031215612b9657600080fd5b81356111ed8161269f565b600060208284031215612bb357600080fd5b5051919050565b634e487b7160e01b600052603260045260246000fd5b600082821015612be257612be2612b15565b500390565b600060018201612bf957612bf9612b15565b5060010190565b600081518084526020808501945080840160005b83811015612c3057815187529582019590820190600101612c14565b509495945050505050565b60005b83811015612c56578181015183820152602001612c3e565b83811115612c65576000848401525b50505050565b60008151808452612c83816020860160208601612c3b565b601f01601f19169290920160200192915050565b6001600160a01b0385168152608060208201819052600090612cbb90830186612c00565b8281036040840152612ccd8186612c00565b90508281036060840152612ce18185612c6b565b979650505050505050565b6001600160a01b03831681526040602082018190526000906121b490830184612c00565b60006020808385031215612d2357600080fd5b82516001600160401b03811115612d3957600080fd5b8301601f81018513612d4a57600080fd5b8051612d5861294782612903565b81815260059190911b82018301908381019087831115612d7757600080fd5b928401925b82841015612ce157835182529284019290840190612d7c565b600060208284031215612da757600080fd5b815180151581146111ed57600080fd5b6001600160a01b0384168152606060208201819052600090612ddb90830185612c00565b8281036040840152612ded8185612c00565b9695505050505050565b600081612e0657612e06612b15565b506000190190565b7f416363657373436f6e74726f6c3a206163636f756e7420000000000000000000815260008351612e46816017850160208801612c3b565b7001034b99036b4b9b9b4b733903937b6329607d1b6017918401918201528351612e77816028840160208801612c3b565b01602801949350505050565b6020815260006111ed6020830184612c6b565b600181815b80851115612ed1578160001904821115612eb757612eb7612b15565b80851615612ec457918102915b93841c9390800290612e9b565b509250929050565b600082612ee857506001610e8f565b81612ef557506000610e8f565b8160018114612f0b5760028114612f1557612f31565b6001915050610e8f565b60ff841115612f2657612f26612b15565b50506001821b610e8f565b5060208310610133831016604e8410600b8410161715612f54575081810a610e8f565b612f5e8383612e96565b8060001904821115612f7257612f72612b15565b029392505050565b60006111ed8383612ed9565b634e487b7160e01b600052603160045260246000fdfea264697066735822122048c7c0ab1354993cf62a9a1a579838b3bbd11958667c3c1cab3adcfd034ff77464736f6c634300080d0033",
  "linkReferences": {},
  "deployedLinkReferences": {}
}