{
  "_format": "hh-sol-artifact-1",
  "contractName": "FIFOMarket",
  "sourceName": "contracts/FIFOMarket.sol",
  "abi": [
    {
      "anonymous": false,
      "inputs": [
        {
          "indexed": false,
          "internalType": "uint256",
          "name": "threshold",
          "type": "uint256"
        }
      ],
      "name": "PriorityRestrictedThresholdSet",
      "type": "event"
    },
    {
      "anonymous": false,
      "inputs": [
        {
          "indexed": true,
          "internalType": "bytes32",
          "name": "role",
          "type": "bytes32"
        },
        {
          "indexed": true,
          "internalType": "bytes32",
          "name": "previousAdminRole",
          "type": "bytes32"
        },
        {
          "indexed": true,
          "internalType": "bytes32",
          "name": "newAdminRole",
          "type": "bytes32"
        }
      ],
      "name": "RoleAdminChanged",
      "type": "event"
    },
    {
      "anonymous": false,
      "inputs": [
        {
          "indexed": true,
          "internalType": "bytes32",
          "name": "role",
          "type": "bytes32"
        },
        {
          "indexed": true,
          "internalType": "address",
          "name": "account",
          "type": "address"
        },
        {
          "indexed": true,
          "internalType": "address",
          "name": "sender",
          "type": "address"
        }
      ],
      "name": "RoleGranted",
      "type": "event"
    },
    {
      "anonymous": false,
      "inputs": [
        {
          "indexed": true,
          "internalType": "bytes32",
          "name": "role",
          "type": "bytes32"
        },
        {
          "indexed": true,
          "internalType": "address",
          "name": "account",
          "type": "address"
        },
        {
          "indexed": true,
          "internalType": "address",
          "name": "sender",
          "type": "address"
        }
      ],
      "name": "RoleRevoked",
      "type": "event"
    },
    {
      "inputs": [],
      "name": "ALLOWLIST_ROLE",
      "outputs": [
        {
          "internalType": "bytes32",
          "name": "",
          "type": "bytes32"
        }
      ],
      "stateMutability": "view",
      "type": "function"
    },
    {
      "inputs": [],
      "name": "DEFAULT_ADMIN_ROLE",
      "outputs": [
        {
          "internalType": "bytes32",
          "name": "",
          "type": "bytes32"
        }
      ],
      "stateMutability": "view",
      "type": "function"
    },
    {
      "inputs": [],
      "name": "activeSupplierCount",
      "outputs": [
        {
          "internalType": "uint256",
          "name": "",
          "type": "uint256"
        }
      ],
      "stateMutability": "view",
      "type": "function"
    },
    {
      "inputs": [
        {
          "internalType": "uint256",
          "name": "count",
          "type": "uint256"
        }
      ],
      "name": "activeSupply",
      "outputs": [
        {
          "components": [
            {
              "internalType": "address",
              "name": "currentSupplier",
              "type": "address"
            },
            {
              "components": [
                {
                  "internalType": "address",
                  "name": "supplierAddress",
                  "type": "address"
                },
                {
                  "internalType": "uint256",
                  "name": "index",
                  "type": "uint256"
                },
                {
                  "internalType": "uint256[]",
                  "name": "removalIds",
                  "type": "uint256[]"
                }
              ],
              "internalType": "struct FIFOMarket.ActiveSupplier[]",
              "name": "suppliers",
              "type": "tuple[]"
            },
            {
              "components": [
                {
                  "internalType": "address",
                  "name": "previousSupplierAddress",
                  "type": "address"
                },
                {
                  "internalType": "address",
                  "name": "nextSupplierAddress",
                  "type": "address"
                }
              ],
              "internalType": "struct FIFOMarket.RoundRobinOrder",
              "name": "node",
              "type": "tuple"
            }
          ],
          "internalType": "struct FIFOMarket.ActiveSupply",
          "name": "",
          "type": "tuple"
        }
      ],
      "stateMutability": "view",
      "type": "function"
    },
    {
      "inputs": [
        {
          "internalType": "bytes32",
          "name": "role",
          "type": "bytes32"
        }
      ],
      "name": "getRoleAdmin",
      "outputs": [
        {
          "internalType": "bytes32",
          "name": "",
          "type": "bytes32"
        }
      ],
      "stateMutability": "view",
      "type": "function"
    },
    {
      "inputs": [
        {
          "internalType": "bytes32",
          "name": "role",
          "type": "bytes32"
        },
        {
          "internalType": "uint256",
          "name": "index",
          "type": "uint256"
        }
      ],
      "name": "getRoleMember",
      "outputs": [
        {
          "internalType": "address",
          "name": "",
          "type": "address"
        }
      ],
      "stateMutability": "view",
      "type": "function"
    },
    {
      "inputs": [
        {
          "internalType": "bytes32",
          "name": "role",
          "type": "bytes32"
        }
      ],
      "name": "getRoleMemberCount",
      "outputs": [
        {
          "internalType": "uint256",
          "name": "",
          "type": "uint256"
        }
      ],
      "stateMutability": "view",
      "type": "function"
    },
    {
      "inputs": [
        {
          "internalType": "bytes32",
          "name": "role",
          "type": "bytes32"
        },
        {
          "internalType": "address",
          "name": "account",
          "type": "address"
        }
      ],
      "name": "grantRole",
      "outputs": [],
      "stateMutability": "nonpayable",
      "type": "function"
    },
    {
      "inputs": [
        {
          "internalType": "bytes32",
          "name": "role",
          "type": "bytes32"
        },
        {
          "internalType": "address",
          "name": "account",
          "type": "address"
        }
      ],
      "name": "hasRole",
      "outputs": [
        {
          "internalType": "bool",
          "name": "",
          "type": "bool"
        }
      ],
      "stateMutability": "view",
      "type": "function"
    },
    {
      "inputs": [
        {
          "internalType": "address",
          "name": "removalAddress",
          "type": "address"
        },
        {
          "internalType": "address",
          "name": "bridgedPolygonNoriAddress",
          "type": "address"
        },
        {
          "internalType": "address",
          "name": "certificateAddress",
          "type": "address"
        },
        {
          "internalType": "address",
          "name": "noriFeeWalletAddress",
          "type": "address"
        },
        {
          "internalType": "uint256",
          "name": "noriFee",
          "type": "uint256"
        }
      ],
      "name": "initialize",
      "outputs": [],
      "stateMutability": "nonpayable",
      "type": "function"
    },
    {
      "inputs": [],
      "name": "numberOfActiveNrtsInMarketComputed",
      "outputs": [
        {
          "internalType": "uint256",
          "name": "",
          "type": "uint256"
        }
      ],
      "stateMutability": "view",
      "type": "function"
    },
    {
      "inputs": [
        {
          "internalType": "address",
          "name": "",
          "type": "address"
        },
        {
          "internalType": "address",
          "name": "",
          "type": "address"
        },
        {
          "internalType": "uint256[]",
          "name": "ids",
          "type": "uint256[]"
        },
        {
          "internalType": "uint256[]",
          "name": "",
          "type": "uint256[]"
        },
        {
          "internalType": "bytes",
          "name": "",
          "type": "bytes"
        }
      ],
      "name": "onERC1155BatchReceived",
      "outputs": [
        {
          "internalType": "bytes4",
          "name": "",
          "type": "bytes4"
        }
      ],
      "stateMutability": "nonpayable",
      "type": "function"
    },
    {
      "inputs": [
        {
          "internalType": "address",
          "name": "",
          "type": "address"
        },
        {
          "internalType": "address",
          "name": "",
          "type": "address"
        },
        {
          "internalType": "uint256",
          "name": "",
          "type": "uint256"
        },
        {
          "internalType": "uint256",
          "name": "",
          "type": "uint256"
        },
        {
          "internalType": "bytes",
          "name": "",
          "type": "bytes"
        }
      ],
      "name": "onERC1155Received",
      "outputs": [
        {
          "internalType": "bytes4",
          "name": "",
          "type": "bytes4"
        }
      ],
      "stateMutability": "nonpayable",
      "type": "function"
    },
    {
      "inputs": [],
      "name": "priorityRestrictedThreshold",
      "outputs": [
        {
          "internalType": "uint256",
          "name": "",
          "type": "uint256"
        }
      ],
      "stateMutability": "view",
      "type": "function"
    },
    {
      "inputs": [
        {
          "internalType": "bytes32",
          "name": "role",
          "type": "bytes32"
        },
        {
          "internalType": "address",
          "name": "account",
          "type": "address"
        }
      ],
      "name": "renounceRole",
      "outputs": [],
      "stateMutability": "nonpayable",
      "type": "function"
    },
    {
      "inputs": [
        {
          "internalType": "uint256",
          "name": "removalId",
          "type": "uint256"
        }
      ],
      "name": "reserveRemoval",
      "outputs": [
        {
          "internalType": "bool",
          "name": "",
          "type": "bool"
        }
      ],
      "stateMutability": "nonpayable",
      "type": "function"
    },
    {
      "inputs": [
        {
          "internalType": "bytes32",
          "name": "role",
          "type": "bytes32"
        },
        {
          "internalType": "address",
          "name": "account",
          "type": "address"
        }
      ],
      "name": "revokeRole",
      "outputs": [],
      "stateMutability": "nonpayable",
      "type": "function"
    },
    {
      "inputs": [
        {
          "internalType": "uint256",
          "name": "threshold",
          "type": "uint256"
        }
      ],
      "name": "setPriorityRestrictedThreshold",
      "outputs": [],
      "stateMutability": "nonpayable",
      "type": "function"
    },
    {
      "inputs": [
        {
          "internalType": "bytes4",
          "name": "interfaceId",
          "type": "bytes4"
        }
      ],
      "name": "supportsInterface",
      "outputs": [
        {
          "internalType": "bool",
          "name": "",
          "type": "bool"
        }
      ],
      "stateMutability": "view",
      "type": "function"
    },
    {
      "inputs": [
        {
          "internalType": "address",
          "name": "",
          "type": "address"
        },
        {
          "internalType": "address",
          "name": "from",
          "type": "address"
        },
        {
          "internalType": "address",
          "name": "",
          "type": "address"
        },
        {
          "internalType": "uint256",
          "name": "amount",
          "type": "uint256"
        },
        {
          "internalType": "bytes",
          "name": "userData",
          "type": "bytes"
        },
        {
          "internalType": "bytes",
          "name": "",
          "type": "bytes"
        }
      ],
      "name": "tokensReceived",
      "outputs": [],
      "stateMutability": "nonpayable",
      "type": "function"
    },
    {
      "inputs": [],
      "name": "totalActiveSupply",
      "outputs": [
        {
          "internalType": "uint256",
          "name": "",
          "type": "uint256"
        }
      ],
      "stateMutability": "view",
      "type": "function"
    },
    {
      "inputs": [],
      "name": "totalNumberActiveRemovals",
      "outputs": [
        {
          "internalType": "uint256",
          "name": "",
          "type": "uint256"
        }
      ],
      "stateMutability": "view",
      "type": "function"
    },
    {
      "inputs": [],
      "name": "totalReservedSupply",
      "outputs": [
        {
          "internalType": "uint256",
          "name": "",
          "type": "uint256"
        }
      ],
      "stateMutability": "view",
      "type": "function"
    },
    {
      "inputs": [],
      "name": "totalUnrestrictedSupply",
      "outputs": [
        {
          "internalType": "uint256",
          "name": "",
          "type": "uint256"
        }
      ],
      "stateMutability": "view",
      "type": "function"
    },
    {
      "inputs": [
        {
          "internalType": "uint256",
          "name": "removalId",
          "type": "uint256"
        }
      ],
      "name": "unreserveRemoval",
      "outputs": [
        {
          "internalType": "bool",
          "name": "",
          "type": "bool"
        }
      ],
      "stateMutability": "nonpayable",
      "type": "function"
    }
  ],
  "bytecode": "0x608060405234801561001057600080fd5b50612dc7806100206000396000f3fe608060405234801561001057600080fd5b50600436106101725760003560e01c8063674d13c8116100de578063a217fddf11610097578063d547741f11610071578063d547741f1461033e578063d797462f14610351578063f23a6e6114610364578063f7013ef61461038357600080fd5b8063a217fddf146102f7578063bc197c81146102ff578063ca15c8731461032b57600080fd5b8063674d13c81461028a57806372069264146102945780637530b4501461029e5780639010d07c146102a657806391d14854146102d157806397a11ee9146102e457600080fd5b80633030b532116101305780633030b5321461020c578063361b7b9d1461023357806336568abe1461023c5780633eb12cee1461024f57806359e1a71c146102575780635c209a141461026a57600080fd5b806223de291461017757806301ffc9a71461018c57806312de2b05146101b4578063179f0445146101cc578063248a9ca3146101d65780632f2ff15d146101f9575b600080fd5b61018a610185366004612491565b610396565b005b61019f61019a366004612541565b610e99565b60405190151581526020015b60405180910390f35b6101be6101335481565b6040519081526020016101ab565b6101be6101345481565b6101be6101e436600461256b565b60009081526065602052604090206001015490565b61018a610207366004612584565b610eb9565b6101be7f26a560d834a19637eccba4611bbc09fb32970bb627da0a70f14f83fdc9822cbc81565b610137546101be565b61018a61024a366004612584565b610ee4565b6101be610f62565b61019f61026536600461256b565b611098565b61027d61027836600461256b565b611264565b6040516101ab91906125b4565b6101be6101365481565b6101be6101355481565b6101be611476565b6102b96102b43660046126a7565b6114a3565b6040516001600160a01b0390911681526020016101ab565b61019f6102df366004612584565b6114c2565b61019f6102f236600461256b565b6114ed565b6101be600081565b61031261030d3660046127fd565b611681565b6040516001600160e01b031990911681526020016101ab565b6101be61033936600461256b565b611852565b61018a61034c366004612584565b611869565b61018a61035f36600461256b565b61188f565b6103126103723660046128aa565b63f23a6e6160e01b95945050505050565b61018a610391366004612912565b6118d8565b610135546000036103e55760405162461bcd60e51b81526020600482015260146024820152734d61726b65743a204f7574206f662073746f636b60601b60448201526064015b60405180910390fd5b6101335461013554116104765761041c7f26a560d834a19637eccba4611bbc09fb32970bb627da0a70f14f83fdc9822cbc886114c2565b6104765760405162461bcd60e51b815260206004820152602560248201527f4c6f7720737570706c7920616e64206275796572206e6f74206f6e20616c6c6f6044820152641ddb1a5cdd60da1b60648201526084016103dc565b6000610132546064610488919061298c565b6104938760646129a4565b61049d91906129c3565b90508060006104ae868801886129e5565b90506001600160a01b0381166105125760405162461bcd60e51b8152602060048201526024808201527f4d61726b65743a2043616e6e6f74206d696e7420746f207468652030206164646044820152637265737360e01b60648201526084016103dc565b610130546001600160a01b031633146105935760405162461bcd60e51b815260206004820152603960248201527f4d61726b65743a205468697320636f6e74726163742063616e206f6e6c79207260448201527f6563656976652042726964676564506f6c79676f6e4e4f52490000000000000060648201526084016103dc565b6000610134546001600160401b038111156105b0576105b06126c9565b6040519080825280602002602001820160405280156105d9578160200160208202803683370190505b5090506000610134546001600160401b038111156105f9576105f96126c9565b604051908082528060200260200182016040528015610622578160200160208202803683370190505b5090506000610134546001600160401b03811115610642576106426126c9565b60405190808252806020026020018201604052801561066b578160200160208202803683370190505b5090506000805b610134548110156109c757610138546001600160a01b0316600090815261013c602052604081206106a39082611b0d565b61012e54604051627eeac760e11b8152306004820152602481018390529192506000916001600160a01b039091169062fdd58e90604401602060405180830381865afa1580156106f7573d6000803e3d6000fd5b505050506040513d601f19601f8201168201806040525081019061071b9190612a02565b9050808910156107af578187858151811061073857610738612a1b565b6020026020010181815250508886858151811061075757610757612a1b565b60209081029190910101526101385485516001600160a01b039091169086908690811061078657610786612a1b565b60200260200101906001600160a01b031690816001600160a01b03168152505060009850610996565b6001610134546107bf9190612a31565b831480156107cc57508089115b156108195760405162461bcd60e51b815260206004820152601960248201527f4d61726b65743a204e6f7420656e6f75676820737570706c790000000000000060448201526064016103dc565b8187858151811061082c5761082c612a1b565b6020026020010181815250508086858151811061084b5761084b612a1b565b60209081029190910101526101385485516001600160a01b039091169086908690811061087a5761087a612a1b565b6001600160a01b039092166020928302919091019091015261089c818a612a31565b610138546001600160a01b0316600090815261013c602052604090209099506108c59083611b19565b61091d5760405162461bcd60e51b8152602060048201526024808201527f4d61726b65743a2052656d6f76616c206e6f7420696e2061637469766520737560448201526370706c7960e01b60648201526084016103dc565b610138546001600160a01b0316600090815261013c6020526040902061094290611b25565b600003610964576101385461095f906001600160a01b0316611b2f565b610996565b610138546001600160a01b03908116600081815261013960205260409020600101549091161461099657610996611c51565b836109a081612a48565b945050886000036109b25750506109c7565b505080806109bf90612a48565b915050610672565b506000816001600160401b038111156109e2576109e26126c9565b604051908082528060200260200182016040528015610a0b578160200160208202803683370190505b5090506000826001600160401b03811115610a2857610a286126c9565b604051908082528060200260200182016040528015610a51578160200160208202803683370190505b50905060005b83811015610ae057868181518110610a7157610a71612a1b565b6020026020010151838281518110610a8b57610a8b612a1b565b602002602001018181525050858181518110610aa957610aa9612a1b565b6020026020010151828281518110610ac357610ac3612a1b565b602090810291909101015280610ad881612a48565b915050610a57565b50600089604051602001610af691815260200190565b60408051601f198184030181529082905261012f54630fbfeffd60e11b83529092506001600160a01b031690631f7fdffa90610b3c908b90879087908790600401612af8565b600060405180830381600087803b158015610b5657600080fd5b505af1158015610b6a573d6000803e3d6000fd5b5050505060005b8351811015610e1d5761012e5484516001600160a01b039091169062fdd58e903090879085908110610ba557610ba5612a1b565b60200260200101516040518363ffffffff1660e01b8152600401610bde9291906001600160a01b03929092168252602082015260400190565b602060405180830381865afa158015610bfb573d6000803e3d6000fd5b505050506040513d601f19601f82011682018060405250810190610c1f9190612a02565b838281518110610c3157610c31612a1b565b602002602001015103610c585760016101346000828254610c529190612a31565b90915550505b828181518110610c6a57610c6a612a1b565b60200260200101516101356000828254610c849190612a31565b925050819055506000610132546064858481518110610ca557610ca5612a1b565b6020026020010151610cb791906129c3565b610cc191906129a4565b90506000848381518110610cd757610cd7612a1b565b6020908102919091010151610130546101315460405163a9059cbb60e01b81526001600160a01b03918216600482015260248101869052929350169063a9059cbb906044016020604051808303816000875af1158015610d3b573d6000803e3d6000fd5b505050506040513d601f19601f82011682018060405250810190610d5f9190612b42565b506101305488516001600160a01b039091169063a9059cbb908a9086908110610d8a57610d8a612a1b565b6020026020010151836040518363ffffffff1660e01b8152600401610dc49291906001600160a01b03929092168252602082015260400190565b6020604051808303816000875af1158015610de3573d6000803e3d6000fd5b505050506040513d601f19601f82011682018060405250810190610e079190612b42565b5050508080610e1590612a48565b915050610b71565b5061012e54604051631ac8311560e21b81526001600160a01b0390911690636b20c45490610e5390309087908790600401612b64565b600060405180830381600087803b158015610e6d57600080fd5b505af1158015610e81573d6000803e3d6000fd5b50505050505050505050505050505050505050505050565b6000610ea482611c86565b80610eb35750610eb382611cab565b92915050565b600082815260656020526040902060010154610ed58133611cd0565b610edf8383611d34565b505050565b6001600160a01b0381163314610f545760405162461bcd60e51b815260206004820152602f60248201527f416363657373436f6e74726f6c3a2063616e206f6e6c792072656e6f756e636560448201526e103937b632b9903337b91039b2b63360891b60648201526084016103dc565b610f5e8282611d56565b5050565b6101385460009081906001600160a01b0316815b61013754811015611090576001600160a01b038216600090815261013c60205260408120905b610fa582611b25565b81101561105a5761012e546000906001600160a01b031662fdd58e30610fcb8686611b0d565b6040516001600160e01b031960e085901b1681526001600160a01b0390921660048301526024820152604401602060405180830381865afa158015611014573d6000803e3d6000fd5b505050506040513d601f19601f820116820180604052508101906110389190612a02565b9050611044818761298c565b955050808061105290612a48565b915050610f9c565b50506001600160a01b0391821660009081526101396020526040902060010154909116908061108881612a48565b915050610f76565b509092915050565b6000806110a483611d78565b6001600160a01b038116600090815261013c602052604090209091506110ca8185611b19565b15156001146111275760405162461bcd60e51b8152602060048201526024808201527f4d61726b65743a2072656d6f76616c206e6f7420696e2061637469766520737560448201526370706c7960e01b60648201526084016103dc565b6001610134600082825461113b9190612a31565b909155505061012e54604051627eeac760e11b8152306004820152602481018690526000916001600160a01b03169062fdd58e90604401602060405180830381865afa15801561118f573d6000803e3d6000fd5b505050506040513d601f19601f820116820180604052508101906111b39190612a02565b90508061013560008282546111c89190612a31565b925050819055508061013660008282546111e2919061298c565b909155506111f1905082611b25565b6000036112015761120183611b2f565b61120d61013a86611d87565b6112595760405162461bcd60e51b815260206004820181905260248201527f4d61726b65743a2052656d6f76616c20616c726561647920726573657276656460448201526064016103dc565b506001949350505050565b611296604080516060808201835260008083526020808401929092528351808501855281815291820152909182015290565b610137548211156113035760405162461bcd60e51b815260206004820152603160248201527f4d61726b65743a20636f756e74206578636565647320746f74616c20616374696044820152701d99481cdd5c1c1b1a595c8818dbdd5b9d607a1b60648201526084016103dc565b6000826001600160401b0381111561131d5761131d6126c9565b60405190808252806020026020018201604052801561136a57816020015b6040805160608082018352600080835260208301529181019190915281526020019060019003908161133b5790505b50610138549091506001600160a01b031660005b8481101561141857604080516060810182526001600160a01b0384168082526020808301859052600091825261013c905282902090918201906113c090611d93565b8152508382815181106113d5576113d5612a1b565b6020908102919091018101919091526001600160a01b0392831660009081526101399091526040902060010154909116908061141081612a48565b91505061137e565b505060408051606081018252610138546001600160a01b039081168083526020808401959095526000908152610139855283902083518085018552815483168152600190910154909116938101939093529081019190915292915050565b60006101335461013554101561148c5750600090565b610133546101355461149e9190612a31565b905090565b60008281526097602052604081206114bb9083611b0d565b9392505050565b60009182526065602090815260408084206001600160a01b0393909316845291905290205460ff1690565b6000806114f983611d78565b6001600160a01b038116600090815261013c6020526040902090915061152161013a85611b19565b15156001146115815760405162461bcd60e51b815260206004820152602660248201527f4d61726b65743a2072656d6f76616c206e6f7420696e20726573657276656420604482015265737570706c7960d01b60648201526084016103dc565b60016101346000828254611595919061298c565b909155505061012e54604051627eeac760e11b8152306004820152602481018690526000916001600160a01b03169062fdd58e90604401602060405180830381865afa1580156115e9573d6000803e3d6000fd5b505050506040513d601f19601f8201168201806040525081019061160d9190612a02565b9050806101356000828254611622919061298c565b9250508190555080610136600082825461163c9190612a31565b9091555061164b905082611b25565b60000361165b5761165b83611da0565b6116658286611d87565b6112595760405162461bcd60e51b81526004016103dc90612ba4565b6000805b845181101561183f5761012e5485516000916001600160a01b03169062fdd58e9030908990869081106116ba576116ba612a1b565b60200260200101516040518363ffffffff1660e01b81526004016116f39291906001600160a01b03929092168252602082015260400190565b602060405180830381865afa158015611710573d6000803e3d6000fd5b505050506040513d601f19601f820116820180604052508101906117349190612a02565b9050806101356000828254611749919061298c565b9250508190555060016101346000828254611764919061298c565b92505081905550600061178f87848151811061178257611782612a1b565b6020026020010151611d78565b90506117e28784815181106117a6576117a6612a1b565b602002602001015161013c6000846001600160a01b03166001600160a01b03168152602001908152602001600020611d8790919063ffffffff16565b6117fe5760405162461bcd60e51b81526004016103dc90612ba4565b6001600160a01b03818116600090815261013960205260409020600101541661182a5761182a81611da0565b5050808061183790612a48565b915050611685565b5063bc197c8160e01b9695505050505050565b6000818152609760205260408120610eb390611b25565b6000828152606560205260409020600101546118858133611cd0565b610edf8383611d56565b600061189b8133611cd0565b6101338290556040518281527f7ab6aa6547859e9ca74d567d44fefa0d63272ac019f4ebf9333032a62ea06fa59060200160405180910390a15050565b600054610100900460ff166118f35760005460ff16156118f7565b303b155b61195a5760405162461bcd60e51b815260206004820152602e60248201527f496e697469616c697a61626c653a20636f6e747261637420697320616c72656160448201526d191e481a5b9a5d1a585b1a5e995960921b60648201526084016103dc565b600054610100900460ff1615801561197c576000805461ffff19166101011790555b611984611ec9565b61198c611ec9565b611994611ec9565b61199c611ec9565b6119a4611ec9565b61012e80546001600160a01b03199081166001600160a01b03898116919091179092556101308054821688841617905561012f80548216878416179055610131805482169286169290921790915561013283905561012d8054731820a4b7618bde71dce8cdc73aab6c95905fad249216821790556040516329965a1d60e01b815230600482018190527fb281fc8c12954d22544db45de3159a39272895b169a852b314f9cc762e44c53b602483015260448201526329965a1d90606401600060405180830381600087803b158015611a7b57600080fd5b505af1158015611a8f573d6000803e3d6000fd5b5050600061013381905561013581905561013681905561013481905561013880546001600160a01b0319169055611ac99250905033611d34565b611af37f26a560d834a19637eccba4611bbc09fb32970bb627da0a70f14f83fdc9822cbc33611d34565b8015611b05576000805461ff00191690555b505050505050565b60006114bb8383611f36565b60006114bb8383611f60565b6000610eb3825490565b6001600160a01b03808216600081815261013960205260409020600101549091169003611b6c5761013880546001600160a01b0319169055611bde565b6001600160a01b03818116600081815261013960205260408082206001808201805483548816865284862090920180549288166001600160a01b0319938416179055915491548616845291909220805492851692909116919091179055610138549091169003611bde57611bde611c51565b604080518082018252600080825260208083018281526001600160a01b038681168452610139909252938220925183546001600160a01b0319908116918316919091178455935160019384018054909516911617909255610137805491929091611c49908490612a31565b909155505050565b61013880546001600160a01b0380821660009081526101396020526040902060010154166001600160a01b0319909116179055565b60006001600160e01b03198216635a05180f60e01b1480610eb35750610eb382612053565b60006001600160e01b03198216630271189760e51b1480610eb35750610eb382611c86565b611cda82826114c2565b610f5e57611cf2816001600160a01b03166014612088565b611cfd836020612088565b604051602001611d0e929190612bec565b60408051601f198184030181529082905262461bcd60e51b82526103dc91600401612c61565b611d3e8282612223565b6000828152609760205260409020610edf90826122a9565b611d6082826122be565b6000828152609760205260409020610edf9082612325565b6000610eb3826014600461233a565b60006114bb8383612386565b606060006114bb836123d5565b610138546001600160a01b0316611e1b5761013880546001600160a01b03199081166001600160a01b0384811691821790935560408051808201825282815260208082018481526000948552610139909152919092209151825484169085161782555160019190910180549092169216919091179055611eb5565b60408051808201825261013880546001600160a01b03908116600081815261013960208181528783205485168752808701938452888516808452919052868220955186549085166001600160a01b0319918216178755925160019687018054918616918516919091179055845484168252868220548416825286822090950180548316861790559254909116825292902080549092161790555b60016101376000828254611c49919061298c565b600054610100900460ff16611f345760405162461bcd60e51b815260206004820152602b60248201527f496e697469616c697a61626c653a20636f6e7472616374206973206e6f74206960448201526a6e697469616c697a696e6760a81b60648201526084016103dc565b565b6000826000018281548110611f4d57611f4d612a1b565b9060005260206000200154905092915050565b60008181526001830160205260408120548015612049576000611f84600183612a31565b8554909150600090611f9890600190612a31565b9050818114611ffd576000866000018281548110611fb857611fb8612a1b565b9060005260206000200154905080876000018481548110611fdb57611fdb612a1b565b6000918252602080832090910192909255918252600188019052604090208390555b855486908061200e5761200e612c74565b600190038181906000526020600020016000905590558560010160008681526020019081526020016000206000905560019350505050610eb3565b6000915050610eb3565b60006001600160e01b03198216637965db0b60e01b1480610eb357506301ffc9a760e01b6001600160e01b0319831614610eb3565b606060006120978360026129a4565b6120a290600261298c565b6001600160401b038111156120b9576120b96126c9565b6040519080825280601f01601f1916602001820160405280156120e3576020820181803683370190505b509050600360fc1b816000815181106120fe576120fe612a1b565b60200101906001600160f81b031916908160001a905350600f60fb1b8160018151811061212d5761212d612a1b565b60200101906001600160f81b031916908160001a90535060006121518460026129a4565b61215c90600161298c565b90505b60018111156121d4576f181899199a1a9b1b9c1cb0b131b232b360811b85600f166010811061219057612190612a1b565b1a60f81b8282815181106121a6576121a6612a1b565b60200101906001600160f81b031916908160001a90535060049490941c936121cd81612c8a565b905061215f565b5083156114bb5760405162461bcd60e51b815260206004820181905260248201527f537472696e67733a20686578206c656e67746820696e73756666696369656e7460448201526064016103dc565b61222d82826114c2565b610f5e5760008281526065602090815260408083206001600160a01b03851684529091529020805460ff191660011790556122653390565b6001600160a01b0316816001600160a01b0316837f2f8788117e7eff1d82e926ec794901d17c78024a50270940304540a733656f0d60405160405180910390a45050565b60006114bb836001600160a01b038416612386565b6122c882826114c2565b15610f5e5760008281526065602090815260408083206001600160a01b0385168085529252808320805460ff1916905551339285917ff6391f5c32d9c69d2a47ea670b442974b53935d1edc7fd64eb21e047a839171b9190a45050565b60006114bb836001600160a01b038416611f60565b6000806123486008846129a4565b60016123556008876129a4565b612360906002612d85565b61236a9190612a31565b901b905084811661237c6008856129a4565b1c95945050505050565b60008181526001830160205260408120546123cd57508154600181810184556000848152602080822090930184905584548482528286019093526040902091909155610eb3565b506000610eb3565b60608160000180548060200260200160405190810160405280929190818152602001828054801561242557602002820191906000526020600020905b815481526020019060010190808311612411575b50505050509050919050565b6001600160a01b038116811461244657600080fd5b50565b60008083601f84011261245b57600080fd5b5081356001600160401b0381111561247257600080fd5b60208301915083602082850101111561248a57600080fd5b9250929050565b60008060008060008060008060c0898b0312156124ad57600080fd5b88356124b881612431565b975060208901356124c881612431565b965060408901356124d881612431565b95506060890135945060808901356001600160401b03808211156124fb57600080fd5b6125078c838d01612449565b909650945060a08b013591508082111561252057600080fd5b5061252d8b828c01612449565b999c989b5096995094979396929594505050565b60006020828403121561255357600080fd5b81356001600160e01b0319811681146114bb57600080fd5b60006020828403121561257d57600080fd5b5035919050565b6000806040838503121561259757600080fd5b8235915060208301356125a981612431565b809150509250929050565b6000602080835260a0830160018060a01b0380865116838601528286015160806040818189015284835180875260c08a01915060c08160051b8b0101965087850194506000805b82811015612670578b890360bf190184528651805189168a528a8101518b8b01528501516060868b018190528151908b01819052908b0190878b019084905b8082101561265a5783518352928d0192918d01916001919091019061263a565b50909a50505095890195928901926001016125fb565b5050505088015180516001600160a01b0390811660608a01526020820151166080890152945061269f92505050565b949350505050565b600080604083850312156126ba57600080fd5b50508035926020909101359150565b634e487b7160e01b600052604160045260246000fd5b604051601f8201601f191681016001600160401b0381118282101715612707576127076126c9565b604052919050565b600082601f83011261272057600080fd5b813560206001600160401b0382111561273b5761273b6126c9565b8160051b61274a8282016126df565b928352848101820192828101908785111561276457600080fd5b83870192505b848310156127835782358252918301919083019061276a565b979650505050505050565b600082601f83011261279f57600080fd5b81356001600160401b038111156127b8576127b86126c9565b6127cb601f8201601f19166020016126df565b8181528460208386010111156127e057600080fd5b816020850160208301376000918101602001919091529392505050565b600080600080600060a0868803121561281557600080fd5b853561282081612431565b9450602086013561283081612431565b935060408601356001600160401b038082111561284c57600080fd5b61285889838a0161270f565b9450606088013591508082111561286e57600080fd5b61287a89838a0161270f565b9350608088013591508082111561289057600080fd5b5061289d8882890161278e565b9150509295509295909350565b600080600080600060a086880312156128c257600080fd5b85356128cd81612431565b945060208601356128dd81612431565b9350604086013592506060860135915060808601356001600160401b0381111561290657600080fd5b61289d8882890161278e565b600080600080600060a0868803121561292a57600080fd5b853561293581612431565b9450602086013561294581612431565b9350604086013561295581612431565b9250606086013561296581612431565b949793965091946080013592915050565b634e487b7160e01b600052601160045260246000fd5b6000821982111561299f5761299f612976565b500190565b60008160001904831182151516156129be576129be612976565b500290565b6000826129e057634e487b7160e01b600052601260045260246000fd5b500490565b6000602082840312156129f757600080fd5b81356114bb81612431565b600060208284031215612a1457600080fd5b5051919050565b634e487b7160e01b600052603260045260246000fd5b600082821015612a4357612a43612976565b500390565b600060018201612a5a57612a5a612976565b5060010190565b600081518084526020808501945080840160005b83811015612a9157815187529582019590820190600101612a75565b509495945050505050565b60005b83811015612ab7578181015183820152602001612a9f565b83811115612ac6576000848401525b50505050565b60008151808452612ae4816020860160208601612a9c565b601f01601f19169290920160200192915050565b6001600160a01b0385168152608060208201819052600090612b1c90830186612a61565b8281036040840152612b2e8186612a61565b905082810360608401526127838185612acc565b600060208284031215612b5457600080fd5b815180151581146114bb57600080fd5b6001600160a01b0384168152606060208201819052600090612b8890830185612a61565b8281036040840152612b9a8185612a61565b9695505050505050565b60208082526028908201527f4d61726b65743a2052656d6f76616c20616c726561647920696e2061637469766040820152676520737570706c7960c01b606082015260800190565b7f416363657373436f6e74726f6c3a206163636f756e7420000000000000000000815260008351612c24816017850160208801612a9c565b7001034b99036b4b9b9b4b733903937b6329607d1b6017918401918201528351612c55816028840160208801612a9c565b01602801949350505050565b6020815260006114bb6020830184612acc565b634e487b7160e01b600052603160045260246000fd5b600081612c9957612c99612976565b506000190190565b600181815b80851115612cdc578160001904821115612cc257612cc2612976565b80851615612ccf57918102915b93841c9390800290612ca6565b509250929050565b600082612cf357506001610eb3565b81612d0057506000610eb3565b8160018114612d165760028114612d2057612d3c565b6001915050610eb3565b60ff841115612d3157612d31612976565b50506001821b610eb3565b5060208310610133831016604e8410600b8410161715612d5f575081810a610eb3565b612d698383612ca1565b8060001904821115612d7d57612d7d612976565b029392505050565b60006114bb8383612ce456fea2646970667358221220cb69c5d0ecbed3723a65932d80cdebebe243ed4dc7cb147221cc5bc0188be99764736f6c634300080d0033",
  "linkReferences": {},
  "deployedLinkReferences": {}
}