{
  "_format": "hh-sol-artifact-1",
  "contractName": "FIFOMarket",
  "sourceName": "contracts/FIFOMarket.sol",
  "abi": [
    {
      "anonymous": false,
      "inputs": [
        {
          "indexed": false,
          "internalType": "uint256",
          "name": "threshold",
          "type": "uint256"
        }
      ],
      "name": "PriorityRestrictedThresholdSet",
      "type": "event"
    },
    {
      "anonymous": false,
      "inputs": [
        {
          "indexed": true,
          "internalType": "bytes32",
          "name": "role",
          "type": "bytes32"
        },
        {
          "indexed": true,
          "internalType": "bytes32",
          "name": "previousAdminRole",
          "type": "bytes32"
        },
        {
          "indexed": true,
          "internalType": "bytes32",
          "name": "newAdminRole",
          "type": "bytes32"
        }
      ],
      "name": "RoleAdminChanged",
      "type": "event"
    },
    {
      "anonymous": false,
      "inputs": [
        {
          "indexed": true,
          "internalType": "bytes32",
          "name": "role",
          "type": "bytes32"
        },
        {
          "indexed": true,
          "internalType": "address",
          "name": "account",
          "type": "address"
        },
        {
          "indexed": true,
          "internalType": "address",
          "name": "sender",
          "type": "address"
        }
      ],
      "name": "RoleGranted",
      "type": "event"
    },
    {
      "anonymous": false,
      "inputs": [
        {
          "indexed": true,
          "internalType": "bytes32",
          "name": "role",
          "type": "bytes32"
        },
        {
          "indexed": true,
          "internalType": "address",
          "name": "account",
          "type": "address"
        },
        {
          "indexed": true,
          "internalType": "address",
          "name": "sender",
          "type": "address"
        }
      ],
      "name": "RoleRevoked",
      "type": "event"
    },
    {
      "inputs": [],
      "name": "ALLOWLIST_ROLE",
      "outputs": [
        {
          "internalType": "bytes32",
          "name": "",
          "type": "bytes32"
        }
      ],
      "stateMutability": "view",
      "type": "function"
    },
    {
      "inputs": [],
      "name": "DEFAULT_ADMIN_ROLE",
      "outputs": [
        {
          "internalType": "bytes32",
          "name": "",
          "type": "bytes32"
        }
      ],
      "stateMutability": "view",
      "type": "function"
    },
    {
      "inputs": [],
      "name": "activeSupplierCount",
      "outputs": [
        {
          "internalType": "uint256",
          "name": "",
          "type": "uint256"
        }
      ],
      "stateMutability": "view",
      "type": "function"
    },
    {
      "inputs": [],
      "name": "activeSupply",
      "outputs": [
        {
          "components": [
            {
              "internalType": "address",
              "name": "currentSupplier",
              "type": "address"
            },
            {
              "components": [
                {
                  "internalType": "address",
                  "name": "previousSupplierAddress",
                  "type": "address"
                },
                {
                  "internalType": "address",
                  "name": "nextSupplierAddress",
                  "type": "address"
                }
              ],
              "internalType": "struct FIFOMarket.RoundRobinOrder",
              "name": "queue",
              "type": "tuple"
            },
            {
              "internalType": "uint256[]",
              "name": "removalIds",
              "type": "uint256[]"
            }
          ],
          "internalType": "struct FIFOMarket.ActiveSupply",
          "name": "",
          "type": "tuple"
        }
      ],
      "stateMutability": "view",
      "type": "function"
    },
    {
      "inputs": [
        {
          "internalType": "bytes32",
          "name": "role",
          "type": "bytes32"
        }
      ],
      "name": "getRoleAdmin",
      "outputs": [
        {
          "internalType": "bytes32",
          "name": "",
          "type": "bytes32"
        }
      ],
      "stateMutability": "view",
      "type": "function"
    },
    {
      "inputs": [
        {
          "internalType": "bytes32",
          "name": "role",
          "type": "bytes32"
        },
        {
          "internalType": "uint256",
          "name": "index",
          "type": "uint256"
        }
      ],
      "name": "getRoleMember",
      "outputs": [
        {
          "internalType": "address",
          "name": "",
          "type": "address"
        }
      ],
      "stateMutability": "view",
      "type": "function"
    },
    {
      "inputs": [
        {
          "internalType": "bytes32",
          "name": "role",
          "type": "bytes32"
        }
      ],
      "name": "getRoleMemberCount",
      "outputs": [
        {
          "internalType": "uint256",
          "name": "",
          "type": "uint256"
        }
      ],
      "stateMutability": "view",
      "type": "function"
    },
    {
      "inputs": [
        {
          "internalType": "bytes32",
          "name": "role",
          "type": "bytes32"
        },
        {
          "internalType": "address",
          "name": "account",
          "type": "address"
        }
      ],
      "name": "grantRole",
      "outputs": [],
      "stateMutability": "nonpayable",
      "type": "function"
    },
    {
      "inputs": [
        {
          "internalType": "bytes32",
          "name": "role",
          "type": "bytes32"
        },
        {
          "internalType": "address",
          "name": "account",
          "type": "address"
        }
      ],
      "name": "hasRole",
      "outputs": [
        {
          "internalType": "bool",
          "name": "",
          "type": "bool"
        }
      ],
      "stateMutability": "view",
      "type": "function"
    },
    {
      "inputs": [
        {
          "internalType": "address",
          "name": "removalAddress",
          "type": "address"
        },
        {
          "internalType": "address",
          "name": "bridgedPolygonNoriAddress",
          "type": "address"
        },
        {
          "internalType": "address",
          "name": "certificateAddress",
          "type": "address"
        },
        {
          "internalType": "address",
          "name": "noriFeeWalletAddress",
          "type": "address"
        },
        {
          "internalType": "uint256",
          "name": "noriFee",
          "type": "uint256"
        }
      ],
      "name": "initialize",
      "outputs": [],
      "stateMutability": "nonpayable",
      "type": "function"
    },
    {
      "inputs": [],
      "name": "numberOfActiveNrtsInMarketComputed",
      "outputs": [
        {
          "internalType": "uint256",
          "name": "",
          "type": "uint256"
        }
      ],
      "stateMutability": "view",
      "type": "function"
    },
    {
      "inputs": [
        {
          "internalType": "address",
          "name": "",
          "type": "address"
        },
        {
          "internalType": "address",
          "name": "",
          "type": "address"
        },
        {
          "internalType": "uint256[]",
          "name": "ids",
          "type": "uint256[]"
        },
        {
          "internalType": "uint256[]",
          "name": "",
          "type": "uint256[]"
        },
        {
          "internalType": "bytes",
          "name": "",
          "type": "bytes"
        }
      ],
      "name": "onERC1155BatchReceived",
      "outputs": [
        {
          "internalType": "bytes4",
          "name": "",
          "type": "bytes4"
        }
      ],
      "stateMutability": "nonpayable",
      "type": "function"
    },
    {
      "inputs": [
        {
          "internalType": "address",
          "name": "",
          "type": "address"
        },
        {
          "internalType": "address",
          "name": "",
          "type": "address"
        },
        {
          "internalType": "uint256",
          "name": "",
          "type": "uint256"
        },
        {
          "internalType": "uint256",
          "name": "",
          "type": "uint256"
        },
        {
          "internalType": "bytes",
          "name": "",
          "type": "bytes"
        }
      ],
      "name": "onERC1155Received",
      "outputs": [
        {
          "internalType": "bytes4",
          "name": "",
          "type": "bytes4"
        }
      ],
      "stateMutability": "nonpayable",
      "type": "function"
    },
    {
      "inputs": [],
      "name": "priorityRestrictedThreshold",
      "outputs": [
        {
          "internalType": "uint256",
          "name": "",
          "type": "uint256"
        }
      ],
      "stateMutability": "view",
      "type": "function"
    },
    {
      "inputs": [
        {
          "internalType": "bytes32",
          "name": "role",
          "type": "bytes32"
        },
        {
          "internalType": "address",
          "name": "account",
          "type": "address"
        }
      ],
      "name": "renounceRole",
      "outputs": [],
      "stateMutability": "nonpayable",
      "type": "function"
    },
    {
      "inputs": [
        {
          "internalType": "uint256",
          "name": "removalId",
          "type": "uint256"
        }
      ],
      "name": "reserveRemoval",
      "outputs": [
        {
          "internalType": "bool",
          "name": "",
          "type": "bool"
        }
      ],
      "stateMutability": "nonpayable",
      "type": "function"
    },
    {
      "inputs": [
        {
          "internalType": "bytes32",
          "name": "role",
          "type": "bytes32"
        },
        {
          "internalType": "address",
          "name": "account",
          "type": "address"
        }
      ],
      "name": "revokeRole",
      "outputs": [],
      "stateMutability": "nonpayable",
      "type": "function"
    },
    {
      "inputs": [
        {
          "internalType": "uint256",
          "name": "threshold",
          "type": "uint256"
        }
      ],
      "name": "setPriorityRestrictedThreshold",
      "outputs": [],
      "stateMutability": "nonpayable",
      "type": "function"
    },
    {
      "inputs": [
        {
          "internalType": "bytes4",
          "name": "interfaceId",
          "type": "bytes4"
        }
      ],
      "name": "supportsInterface",
      "outputs": [
        {
          "internalType": "bool",
          "name": "",
          "type": "bool"
        }
      ],
      "stateMutability": "view",
      "type": "function"
    },
    {
      "inputs": [
        {
          "internalType": "address",
          "name": "",
          "type": "address"
        },
        {
          "internalType": "address",
          "name": "from",
          "type": "address"
        },
        {
          "internalType": "address",
          "name": "",
          "type": "address"
        },
        {
          "internalType": "uint256",
          "name": "amount",
          "type": "uint256"
        },
        {
          "internalType": "bytes",
          "name": "userData",
          "type": "bytes"
        },
        {
          "internalType": "bytes",
          "name": "",
          "type": "bytes"
        }
      ],
      "name": "tokensReceived",
      "outputs": [],
      "stateMutability": "nonpayable",
      "type": "function"
    },
    {
      "inputs": [],
      "name": "totalActiveSupply",
      "outputs": [
        {
          "internalType": "uint256",
          "name": "",
          "type": "uint256"
        }
      ],
      "stateMutability": "view",
      "type": "function"
    },
    {
      "inputs": [],
      "name": "totalNumberActiveRemovals",
      "outputs": [
        {
          "internalType": "uint256",
          "name": "",
          "type": "uint256"
        }
      ],
      "stateMutability": "view",
      "type": "function"
    },
    {
      "inputs": [],
      "name": "totalReservedSupply",
      "outputs": [
        {
          "internalType": "uint256",
          "name": "",
          "type": "uint256"
        }
      ],
      "stateMutability": "view",
      "type": "function"
    },
    {
      "inputs": [
        {
          "internalType": "uint256",
          "name": "removalId",
          "type": "uint256"
        }
      ],
      "name": "unreserveRemoval",
      "outputs": [
        {
          "internalType": "bool",
          "name": "",
          "type": "bool"
        }
      ],
      "stateMutability": "nonpayable",
      "type": "function"
    }
  ],
  "bytecode": "0x608060405234801561001057600080fd5b50612bb5806100206000396000f3fe608060405234801561001057600080fd5b50600436106101575760003560e01c806372069264116100c3578063bc197c811161007c578063bc197c81146102d2578063ca15c873146102fe578063d547741f14610311578063d797462f14610324578063f23a6e6114610337578063f7013ef61461035657600080fd5b8063720692641461025a5780639010d07c1461026457806391d148541461028f57806397a11ee9146102a2578063a217fddf146102b5578063babd7012146102bd57600080fd5b80633030b532116101155780633030b532146101f1578063361b7b9d1461021857806336568abe146102225780633eb12cee1461023557806359e1a71c1461023d578063674d13c81461025057600080fd5b806223de291461015c57806301ffc9a71461017157806312de2b0514610199578063179f0445146101b1578063248a9ca3146101bb5780632f2ff15d146101de575b600080fd5b61016f61016a3660046122f3565b610369565b005b61018461017f3660046123a3565b610e6c565b60405190151581526020015b60405180910390f35b6101a36101335481565b604051908152602001610190565b6101a36101345481565b6101a36101c93660046123cd565b60009081526065602052604090206001015490565b61016f6101ec3660046123e6565b610e8c565b6101a37f26a560d834a19637eccba4611bbc09fb32970bb627da0a70f14f83fdc9822cbc81565b6101a36101375481565b61016f6102303660046123e6565b610eb7565b6101a3610f35565b61018461024b3660046123cd565b61106b565b6101a36101365481565b6101a36101355481565b610277610272366004612416565b611237565b6040516001600160a01b039091168152602001610190565b61018461029d3660046123e6565b611256565b6101846102b03660046123cd565b611281565b6101a3600081565b6102c5611415565b6040516101909190612438565b6102e56102e03660046125eb565b61148c565b6040516001600160e01b03199091168152602001610190565b6101a361030c3660046123cd565b61165d565b61016f61031f3660046123e6565b611674565b61016f6103323660046123cd565b61169a565b6102e5610345366004612698565b63f23a6e6160e01b95945050505050565b61016f610364366004612700565b6116e3565b610135546000036103b85760405162461bcd60e51b81526020600482015260146024820152734d61726b65743a204f7574206f662073746f636b60601b60448201526064015b60405180910390fd5b610133546101355411610449576103ef7f26a560d834a19637eccba4611bbc09fb32970bb627da0a70f14f83fdc9822cbc88611256565b6104495760405162461bcd60e51b815260206004820152602560248201527f4c6f7720737570706c7920616e64206275796572206e6f74206f6e20616c6c6f6044820152641ddb1a5cdd60da1b60648201526084016103af565b600061013254606461045b919061277a565b610466876064612792565b61047091906127b1565b9050806000610481868801886127d3565b90506001600160a01b0381166104e55760405162461bcd60e51b8152602060048201526024808201527f4d61726b65743a2043616e6e6f74206d696e7420746f207468652030206164646044820152637265737360e01b60648201526084016103af565b610130546001600160a01b031633146105665760405162461bcd60e51b815260206004820152603960248201527f4d61726b65743a205468697320636f6e74726163742063616e206f6e6c79207260448201527f6563656976652042726964676564506f6c79676f6e4e4f52490000000000000060648201526084016103af565b6000610134546001600160401b03811115610583576105836124b7565b6040519080825280602002602001820160405280156105ac578160200160208202803683370190505b5090506000610134546001600160401b038111156105cc576105cc6124b7565b6040519080825280602002602001820160405280156105f5578160200160208202803683370190505b5090506000610134546001600160401b03811115610615576106156124b7565b60405190808252806020026020018201604052801561063e578160200160208202803683370190505b5090506000805b6101345481101561099a57610138546001600160a01b0316600090815261013c602052604081206106769082611918565b61012e54604051627eeac760e11b8152306004820152602481018390529192506000916001600160a01b039091169062fdd58e90604401602060405180830381865afa1580156106ca573d6000803e3d6000fd5b505050506040513d601f19601f820116820180604052508101906106ee91906127f0565b905080891015610782578187858151811061070b5761070b612809565b6020026020010181815250508886858151811061072a5761072a612809565b60209081029190910101526101385485516001600160a01b039091169086908690811061075957610759612809565b60200260200101906001600160a01b031690816001600160a01b03168152505060009850610969565b600161013454610792919061281f565b8314801561079f57508089115b156107ec5760405162461bcd60e51b815260206004820152601960248201527f4d61726b65743a204e6f7420656e6f75676820737570706c790000000000000060448201526064016103af565b818785815181106107ff576107ff612809565b6020026020010181815250508086858151811061081e5761081e612809565b60209081029190910101526101385485516001600160a01b039091169086908690811061084d5761084d612809565b6001600160a01b039092166020928302919091019091015261086f818a61281f565b610138546001600160a01b0316600090815261013c602052604090209099506108989083611924565b6108f05760405162461bcd60e51b8152602060048201526024808201527f4d61726b65743a2052656d6f76616c206e6f7420696e2061637469766520737560448201526370706c7960e01b60648201526084016103af565b610138546001600160a01b0316600090815261013c6020526040902061091590611930565b6000036109375761013854610932906001600160a01b031661193a565b610969565b610138546001600160a01b03908116600081815261013960205260409020600101549091161461096957610969611a5c565b8361097381612836565b9450508860000361098557505061099a565b5050808061099290612836565b915050610645565b506000816001600160401b038111156109b5576109b56124b7565b6040519080825280602002602001820160405280156109de578160200160208202803683370190505b5090506000826001600160401b038111156109fb576109fb6124b7565b604051908082528060200260200182016040528015610a24578160200160208202803683370190505b50905060005b83811015610ab357868181518110610a4457610a44612809565b6020026020010151838281518110610a5e57610a5e612809565b602002602001018181525050858181518110610a7c57610a7c612809565b6020026020010151828281518110610a9657610a96612809565b602090810291909101015280610aab81612836565b915050610a2a565b50600089604051602001610ac991815260200190565b60408051601f198184030181529082905261012f54630fbfeffd60e11b83529092506001600160a01b031690631f7fdffa90610b0f908b908790879087906004016128e6565b600060405180830381600087803b158015610b2957600080fd5b505af1158015610b3d573d6000803e3d6000fd5b5050505060005b8351811015610df05761012e5484516001600160a01b039091169062fdd58e903090879085908110610b7857610b78612809565b60200260200101516040518363ffffffff1660e01b8152600401610bb19291906001600160a01b03929092168252602082015260400190565b602060405180830381865afa158015610bce573d6000803e3d6000fd5b505050506040513d601f19601f82011682018060405250810190610bf291906127f0565b838281518110610c0457610c04612809565b602002602001015103610c2b5760016101346000828254610c25919061281f565b90915550505b828181518110610c3d57610c3d612809565b60200260200101516101356000828254610c57919061281f565b925050819055506000610132546064858481518110610c7857610c78612809565b6020026020010151610c8a91906127b1565b610c949190612792565b90506000848381518110610caa57610caa612809565b6020908102919091010151610130546101315460405163a9059cbb60e01b81526001600160a01b03918216600482015260248101869052929350169063a9059cbb906044016020604051808303816000875af1158015610d0e573d6000803e3d6000fd5b505050506040513d601f19601f82011682018060405250810190610d329190612930565b506101305488516001600160a01b039091169063a9059cbb908a9086908110610d5d57610d5d612809565b6020026020010151836040518363ffffffff1660e01b8152600401610d979291906001600160a01b03929092168252602082015260400190565b6020604051808303816000875af1158015610db6573d6000803e3d6000fd5b505050506040513d601f19601f82011682018060405250810190610dda9190612930565b5050508080610de890612836565b915050610b44565b5061012e54604051631ac8311560e21b81526001600160a01b0390911690636b20c45490610e2690309087908790600401612952565b600060405180830381600087803b158015610e4057600080fd5b505af1158015610e54573d6000803e3d6000fd5b50505050505050505050505050505050505050505050565b6000610e7782611a91565b80610e865750610e8682611ab6565b92915050565b600082815260656020526040902060010154610ea88133611adb565b610eb28383611b3f565b505050565b6001600160a01b0381163314610f275760405162461bcd60e51b815260206004820152602f60248201527f416363657373436f6e74726f6c3a2063616e206f6e6c792072656e6f756e636560448201526e103937b632b9903337b91039b2b63360891b60648201526084016103af565b610f318282611b61565b5050565b6101385460009081906001600160a01b0316815b61013754811015611063576001600160a01b038216600090815261013c60205260408120905b610f7882611930565b81101561102d5761012e546000906001600160a01b031662fdd58e30610f9e8686611918565b6040516001600160e01b031960e085901b1681526001600160a01b0390921660048301526024820152604401602060405180830381865afa158015610fe7573d6000803e3d6000fd5b505050506040513d601f19601f8201168201806040525081019061100b91906127f0565b9050611017818761277a565b955050808061102590612836565b915050610f6f565b50506001600160a01b0391821660009081526101396020526040902060010154909116908061105b81612836565b915050610f49565b509092915050565b60008061107783611b83565b6001600160a01b038116600090815261013c6020526040902090915061109d8185611924565b15156001146110fa5760405162461bcd60e51b8152602060048201526024808201527f4d61726b65743a2072656d6f76616c206e6f7420696e2061637469766520737560448201526370706c7960e01b60648201526084016103af565b6001610134600082825461110e919061281f565b909155505061012e54604051627eeac760e11b8152306004820152602481018690526000916001600160a01b03169062fdd58e90604401602060405180830381865afa158015611162573d6000803e3d6000fd5b505050506040513d601f19601f8201168201806040525081019061118691906127f0565b905080610135600082825461119b919061281f565b925050819055508061013660008282546111b5919061277a565b909155506111c4905082611930565b6000036111d4576111d48361193a565b6111e061013a86611b92565b61122c5760405162461bcd60e51b815260206004820181905260248201527f4d61726b65743a2052656d6f76616c20616c726561647920726573657276656460448201526064016103af565b506001949350505050565b600082815260976020526040812061124f9083611918565b9392505050565b60009182526065602090815260408084206001600160a01b0393909316845291905290205460ff1690565b60008061128d83611b83565b6001600160a01b038116600090815261013c602052604090209091506112b561013a85611924565b15156001146113155760405162461bcd60e51b815260206004820152602660248201527f4d61726b65743a2072656d6f76616c206e6f7420696e20726573657276656420604482015265737570706c7960d01b60648201526084016103af565b60016101346000828254611329919061277a565b909155505061012e54604051627eeac760e11b8152306004820152602481018690526000916001600160a01b03169062fdd58e90604401602060405180830381865afa15801561137d573d6000803e3d6000fd5b505050506040513d601f19601f820116820180604052508101906113a191906127f0565b90508061013560008282546113b6919061277a565b925050819055508061013660008282546113d0919061281f565b909155506113df905082611930565b6000036113ef576113ef83611b9e565b6113f98286611b92565b61122c5760405162461bcd60e51b81526004016103af90612992565b61141d61223c565b60408051606081018252610138546001600160a01b039081168083526000818152610139602090815285822086518088018852815486168152600190910154909416848201528085019390935290815261013c909152828120909282019061148490611cc7565b905292915050565b6000805b845181101561164a5761012e5485516000916001600160a01b03169062fdd58e9030908990869081106114c5576114c5612809565b60200260200101516040518363ffffffff1660e01b81526004016114fe9291906001600160a01b03929092168252602082015260400190565b602060405180830381865afa15801561151b573d6000803e3d6000fd5b505050506040513d601f19601f8201168201806040525081019061153f91906127f0565b9050806101356000828254611554919061277a565b925050819055506001610134600082825461156f919061277a565b92505081905550600061159a87848151811061158d5761158d612809565b6020026020010151611b83565b90506115ed8784815181106115b1576115b1612809565b602002602001015161013c6000846001600160a01b03166001600160a01b03168152602001908152602001600020611b9290919063ffffffff16565b6116095760405162461bcd60e51b81526004016103af90612992565b6001600160a01b0381811660009081526101396020526040902060010154166116355761163581611b9e565b5050808061164290612836565b915050611490565b5063bc197c8160e01b9695505050505050565b6000818152609760205260408120610e8690611930565b6000828152606560205260409020600101546116908133611adb565b610eb28383611b61565b60006116a68133611adb565b6101338290556040518281527f7ab6aa6547859e9ca74d567d44fefa0d63272ac019f4ebf9333032a62ea06fa59060200160405180910390a15050565b600054610100900460ff166116fe5760005460ff1615611702565b303b155b6117655760405162461bcd60e51b815260206004820152602e60248201527f496e697469616c697a61626c653a20636f6e747261637420697320616c72656160448201526d191e481a5b9a5d1a585b1a5e995960921b60648201526084016103af565b600054610100900460ff16158015611787576000805461ffff19166101011790555b61178f611cd4565b611797611cd4565b61179f611cd4565b6117a7611cd4565b6117af611cd4565b61012e80546001600160a01b03199081166001600160a01b03898116919091179092556101308054821688841617905561012f80548216878416179055610131805482169286169290921790915561013283905561012d8054731820a4b7618bde71dce8cdc73aab6c95905fad249216821790556040516329965a1d60e01b815230600482018190527fb281fc8c12954d22544db45de3159a39272895b169a852b314f9cc762e44c53b602483015260448201526329965a1d90606401600060405180830381600087803b15801561188657600080fd5b505af115801561189a573d6000803e3d6000fd5b5050600061013381905561013581905561013681905561013481905561013880546001600160a01b03191690556118d49250905033611b3f565b6118fe7f26a560d834a19637eccba4611bbc09fb32970bb627da0a70f14f83fdc9822cbc33611b3f565b8015611910576000805461ff00191690555b505050505050565b600061124f8383611d41565b600061124f8383611d6b565b6000610e86825490565b6001600160a01b038082166000818152610139602052604090206001015490911690036119775761013880546001600160a01b03191690556119e9565b6001600160a01b03818116600081815261013960205260408082206001808201805483548816865284862090920180549288166001600160a01b03199384161790559154915486168452919092208054928516929091169190911790556101385490911690036119e9576119e9611a5c565b604080518082018252600080825260208083018281526001600160a01b038681168452610139909252938220925183546001600160a01b0319908116918316919091178455935160019384018054909516911617909255610137805491929091611a5490849061281f565b909155505050565b61013880546001600160a01b0380821660009081526101396020526040902060010154166001600160a01b0319909116179055565b60006001600160e01b03198216635a05180f60e01b1480610e865750610e8682611e5e565b60006001600160e01b03198216630271189760e51b1480610e865750610e8682611a91565b611ae58282611256565b610f3157611afd816001600160a01b03166014611e93565b611b08836020611e93565b604051602001611b199291906129da565b60408051601f198184030181529082905262461bcd60e51b82526103af91600401612a4f565b611b49828261202e565b6000828152609760205260409020610eb290826120b4565b611b6b82826120c9565b6000828152609760205260409020610eb29082612130565b6000610e868260146004612145565b600061124f8383612191565b610138546001600160a01b0316611c195761013880546001600160a01b03199081166001600160a01b0384811691821790935560408051808201825282815260208082018481526000948552610139909152919092209151825484169085161782555160019190910180549092169216919091179055611cb3565b60408051808201825261013880546001600160a01b03908116600081815261013960208181528783205485168752808701938452888516808452919052868220955186549085166001600160a01b0319918216178755925160019687018054918616918516919091179055845484168252868220548416825286822090950180548316861790559254909116825292902080549092161790555b60016101376000828254611a54919061277a565b6060600061124f836121e0565b600054610100900460ff16611d3f5760405162461bcd60e51b815260206004820152602b60248201527f496e697469616c697a61626c653a20636f6e7472616374206973206e6f74206960448201526a6e697469616c697a696e6760a81b60648201526084016103af565b565b6000826000018281548110611d5857611d58612809565b9060005260206000200154905092915050565b60008181526001830160205260408120548015611e54576000611d8f60018361281f565b8554909150600090611da39060019061281f565b9050818114611e08576000866000018281548110611dc357611dc3612809565b9060005260206000200154905080876000018481548110611de657611de6612809565b6000918252602080832090910192909255918252600188019052604090208390555b8554869080611e1957611e19612a62565b600190038181906000526020600020016000905590558560010160008681526020019081526020016000206000905560019350505050610e86565b6000915050610e86565b60006001600160e01b03198216637965db0b60e01b1480610e8657506301ffc9a760e01b6001600160e01b0319831614610e86565b60606000611ea2836002612792565b611ead90600261277a565b6001600160401b03811115611ec457611ec46124b7565b6040519080825280601f01601f191660200182016040528015611eee576020820181803683370190505b509050600360fc1b81600081518110611f0957611f09612809565b60200101906001600160f81b031916908160001a905350600f60fb1b81600181518110611f3857611f38612809565b60200101906001600160f81b031916908160001a9053506000611f5c846002612792565b611f6790600161277a565b90505b6001811115611fdf576f181899199a1a9b1b9c1cb0b131b232b360811b85600f1660108110611f9b57611f9b612809565b1a60f81b828281518110611fb157611fb1612809565b60200101906001600160f81b031916908160001a90535060049490941c93611fd881612a78565b9050611f6a565b50831561124f5760405162461bcd60e51b815260206004820181905260248201527f537472696e67733a20686578206c656e67746820696e73756666696369656e7460448201526064016103af565b6120388282611256565b610f315760008281526065602090815260408083206001600160a01b03851684529091529020805460ff191660011790556120703390565b6001600160a01b0316816001600160a01b0316837f2f8788117e7eff1d82e926ec794901d17c78024a50270940304540a733656f0d60405160405180910390a45050565b600061124f836001600160a01b038416612191565b6120d38282611256565b15610f315760008281526065602090815260408083206001600160a01b0385168085529252808320805460ff1916905551339285917ff6391f5c32d9c69d2a47ea670b442974b53935d1edc7fd64eb21e047a839171b9190a45050565b600061124f836001600160a01b038416611d6b565b600080612153600884612792565b6001612160600887612792565b61216b906002612b73565b612175919061281f565b901b9050848116612187600885612792565b1c95945050505050565b60008181526001830160205260408120546121d857508154600181810184556000848152602080822090930184905584548482528286019093526040902091909155610e86565b506000610e86565b60608160000180548060200260200160405190810160405280929190818152602001828054801561223057602002820191906000526020600020905b81548152602001906001019080831161221c575b50505050509050919050565b604051806060016040528060006001600160a01b03168152602001612286604051806040016040528060006001600160a01b0316815260200160006001600160a01b031681525090565b8152602001606081525090565b6001600160a01b03811681146122a857600080fd5b50565b60008083601f8401126122bd57600080fd5b5081356001600160401b038111156122d457600080fd5b6020830191508360208285010111156122ec57600080fd5b9250929050565b60008060008060008060008060c0898b03121561230f57600080fd5b883561231a81612293565b9750602089013561232a81612293565b9650604089013561233a81612293565b95506060890135945060808901356001600160401b038082111561235d57600080fd5b6123698c838d016122ab565b909650945060a08b013591508082111561238257600080fd5b5061238f8b828c016122ab565b999c989b5096995094979396929594505050565b6000602082840312156123b557600080fd5b81356001600160e01b03198116811461124f57600080fd5b6000602082840312156123df57600080fd5b5035919050565b600080604083850312156123f957600080fd5b82359150602083013561240b81612293565b809150509250929050565b6000806040838503121561242957600080fd5b50508035926020909101359150565b602080825282516001600160a01b03908116838301528382015180518216604080860191909152908301519091166060840152830151608080840152805160a0840181905260009291820190839060c08601905b808310156124ac578351825292840192600192909201919084019061248c565b509695505050505050565b634e487b7160e01b600052604160045260246000fd5b604051601f8201601f191681016001600160401b03811182821017156124f5576124f56124b7565b604052919050565b600082601f83011261250e57600080fd5b813560206001600160401b03821115612529576125296124b7565b8160051b6125388282016124cd565b928352848101820192828101908785111561255257600080fd5b83870192505b8483101561257157823582529183019190830190612558565b979650505050505050565b600082601f83011261258d57600080fd5b81356001600160401b038111156125a6576125a66124b7565b6125b9601f8201601f19166020016124cd565b8181528460208386010111156125ce57600080fd5b816020850160208301376000918101602001919091529392505050565b600080600080600060a0868803121561260357600080fd5b853561260e81612293565b9450602086013561261e81612293565b935060408601356001600160401b038082111561263a57600080fd5b61264689838a016124fd565b9450606088013591508082111561265c57600080fd5b61266889838a016124fd565b9350608088013591508082111561267e57600080fd5b5061268b8882890161257c565b9150509295509295909350565b600080600080600060a086880312156126b057600080fd5b85356126bb81612293565b945060208601356126cb81612293565b9350604086013592506060860135915060808601356001600160401b038111156126f457600080fd5b61268b8882890161257c565b600080600080600060a0868803121561271857600080fd5b853561272381612293565b9450602086013561273381612293565b9350604086013561274381612293565b9250606086013561275381612293565b949793965091946080013592915050565b634e487b7160e01b600052601160045260246000fd5b6000821982111561278d5761278d612764565b500190565b60008160001904831182151516156127ac576127ac612764565b500290565b6000826127ce57634e487b7160e01b600052601260045260246000fd5b500490565b6000602082840312156127e557600080fd5b813561124f81612293565b60006020828403121561280257600080fd5b5051919050565b634e487b7160e01b600052603260045260246000fd5b60008282101561283157612831612764565b500390565b60006001820161284857612848612764565b5060010190565b600081518084526020808501945080840160005b8381101561287f57815187529582019590820190600101612863565b509495945050505050565b60005b838110156128a557818101518382015260200161288d565b838111156128b4576000848401525b50505050565b600081518084526128d281602086016020860161288a565b601f01601f19169290920160200192915050565b6001600160a01b038516815260806020820181905260009061290a9083018661284f565b828103604084015261291c818661284f565b9050828103606084015261257181856128ba565b60006020828403121561294257600080fd5b8151801515811461124f57600080fd5b6001600160a01b03841681526060602082018190526000906129769083018561284f565b8281036040840152612988818561284f565b9695505050505050565b60208082526028908201527f4d61726b65743a2052656d6f76616c20616c726561647920696e2061637469766040820152676520737570706c7960c01b606082015260800190565b7f416363657373436f6e74726f6c3a206163636f756e7420000000000000000000815260008351612a1281601785016020880161288a565b7001034b99036b4b9b9b4b733903937b6329607d1b6017918401918201528351612a4381602884016020880161288a565b01602801949350505050565b60208152600061124f60208301846128ba565b634e487b7160e01b600052603160045260246000fd5b600081612a8757612a87612764565b506000190190565b600181815b80851115612aca578160001904821115612ab057612ab0612764565b80851615612abd57918102915b93841c9390800290612a94565b509250929050565b600082612ae157506001610e86565b81612aee57506000610e86565b8160018114612b045760028114612b0e57612b2a565b6001915050610e86565b60ff841115612b1f57612b1f612764565b50506001821b610e86565b5060208310610133831016604e8410600b8410161715612b4d575081810a610e86565b612b578383612a8f565b8060001904821115612b6b57612b6b612764565b029392505050565b600061124f8383612ad256fea264697066735822122082efdc498cca56dc2cacb69439879fa50da6419f99cf673523c7cca59cd3162764736f6c634300080d0033",
  "linkReferences": {},
  "deployedLinkReferences": {}
}