{
  "_format": "hh-sol-artifact-1",
  "contractName": "FIFOMarket",
  "sourceName": "contracts/FIFOMarket.sol",
  "abi": [
    {
      "anonymous": false,
      "inputs": [
        {
          "indexed": true,
          "internalType": "bytes32",
          "name": "role",
          "type": "bytes32"
        },
        {
          "indexed": true,
          "internalType": "bytes32",
          "name": "previousAdminRole",
          "type": "bytes32"
        },
        {
          "indexed": true,
          "internalType": "bytes32",
          "name": "newAdminRole",
          "type": "bytes32"
        }
      ],
      "name": "RoleAdminChanged",
      "type": "event"
    },
    {
      "anonymous": false,
      "inputs": [
        {
          "indexed": true,
          "internalType": "bytes32",
          "name": "role",
          "type": "bytes32"
        },
        {
          "indexed": true,
          "internalType": "address",
          "name": "account",
          "type": "address"
        },
        {
          "indexed": true,
          "internalType": "address",
          "name": "sender",
          "type": "address"
        }
      ],
      "name": "RoleGranted",
      "type": "event"
    },
    {
      "anonymous": false,
      "inputs": [
        {
          "indexed": true,
          "internalType": "bytes32",
          "name": "role",
          "type": "bytes32"
        },
        {
          "indexed": true,
          "internalType": "address",
          "name": "account",
          "type": "address"
        },
        {
          "indexed": true,
          "internalType": "address",
          "name": "sender",
          "type": "address"
        }
      ],
      "name": "RoleRevoked",
      "type": "event"
    },
    {
      "inputs": [],
      "name": "DEFAULT_ADMIN_ROLE",
      "outputs": [
        {
          "internalType": "bytes32",
          "name": "",
          "type": "bytes32"
        }
      ],
      "stateMutability": "view",
      "type": "function"
    },
    {
      "inputs": [
        {
          "internalType": "bytes32",
          "name": "role",
          "type": "bytes32"
        }
      ],
      "name": "getRoleAdmin",
      "outputs": [
        {
          "internalType": "bytes32",
          "name": "",
          "type": "bytes32"
        }
      ],
      "stateMutability": "view",
      "type": "function"
    },
    {
      "inputs": [
        {
          "internalType": "bytes32",
          "name": "role",
          "type": "bytes32"
        },
        {
          "internalType": "uint256",
          "name": "index",
          "type": "uint256"
        }
      ],
      "name": "getRoleMember",
      "outputs": [
        {
          "internalType": "address",
          "name": "",
          "type": "address"
        }
      ],
      "stateMutability": "view",
      "type": "function"
    },
    {
      "inputs": [
        {
          "internalType": "bytes32",
          "name": "role",
          "type": "bytes32"
        }
      ],
      "name": "getRoleMemberCount",
      "outputs": [
        {
          "internalType": "uint256",
          "name": "",
          "type": "uint256"
        }
      ],
      "stateMutability": "view",
      "type": "function"
    },
    {
      "inputs": [
        {
          "internalType": "bytes32",
          "name": "role",
          "type": "bytes32"
        },
        {
          "internalType": "address",
          "name": "account",
          "type": "address"
        }
      ],
      "name": "grantRole",
      "outputs": [],
      "stateMutability": "nonpayable",
      "type": "function"
    },
    {
      "inputs": [
        {
          "internalType": "bytes32",
          "name": "role",
          "type": "bytes32"
        },
        {
          "internalType": "address",
          "name": "account",
          "type": "address"
        }
      ],
      "name": "hasRole",
      "outputs": [
        {
          "internalType": "bool",
          "name": "",
          "type": "bool"
        }
      ],
      "stateMutability": "view",
      "type": "function"
    },
    {
      "inputs": [
        {
          "internalType": "address",
          "name": "removalAddress",
          "type": "address"
        },
        {
          "internalType": "address",
          "name": "noriAddress",
          "type": "address"
        },
        {
          "internalType": "address",
          "name": "certificateAddress",
          "type": "address"
        },
        {
          "internalType": "address",
          "name": "noriFeeWalletAddress",
          "type": "address"
        },
        {
          "internalType": "uint256",
          "name": "noriFee",
          "type": "uint256"
        }
      ],
      "name": "initialize",
      "outputs": [],
      "stateMutability": "nonpayable",
      "type": "function"
    },
    {
      "inputs": [],
      "name": "numberOfNrtsInQueue",
      "outputs": [
        {
          "internalType": "uint256",
          "name": "",
          "type": "uint256"
        }
      ],
      "stateMutability": "view",
      "type": "function"
    },
    {
      "inputs": [
        {
          "internalType": "address",
          "name": "",
          "type": "address"
        },
        {
          "internalType": "address",
          "name": "",
          "type": "address"
        },
        {
          "internalType": "uint256[]",
          "name": "ids",
          "type": "uint256[]"
        },
        {
          "internalType": "uint256[]",
          "name": "",
          "type": "uint256[]"
        },
        {
          "internalType": "bytes",
          "name": "",
          "type": "bytes"
        }
      ],
      "name": "onERC1155BatchReceived",
      "outputs": [
        {
          "internalType": "bytes4",
          "name": "",
          "type": "bytes4"
        }
      ],
      "stateMutability": "nonpayable",
      "type": "function"
    },
    {
      "inputs": [
        {
          "internalType": "address",
          "name": "",
          "type": "address"
        },
        {
          "internalType": "address",
          "name": "",
          "type": "address"
        },
        {
          "internalType": "uint256",
          "name": "",
          "type": "uint256"
        },
        {
          "internalType": "uint256",
          "name": "",
          "type": "uint256"
        },
        {
          "internalType": "bytes",
          "name": "",
          "type": "bytes"
        }
      ],
      "name": "onERC1155Received",
      "outputs": [
        {
          "internalType": "bytes4",
          "name": "",
          "type": "bytes4"
        }
      ],
      "stateMutability": "nonpayable",
      "type": "function"
    },
    {
      "inputs": [
        {
          "internalType": "bytes32",
          "name": "role",
          "type": "bytes32"
        },
        {
          "internalType": "address",
          "name": "account",
          "type": "address"
        }
      ],
      "name": "renounceRole",
      "outputs": [],
      "stateMutability": "nonpayable",
      "type": "function"
    },
    {
      "inputs": [
        {
          "internalType": "bytes32",
          "name": "role",
          "type": "bytes32"
        },
        {
          "internalType": "address",
          "name": "account",
          "type": "address"
        }
      ],
      "name": "revokeRole",
      "outputs": [],
      "stateMutability": "nonpayable",
      "type": "function"
    },
    {
      "inputs": [
        {
          "internalType": "bytes4",
          "name": "interfaceId",
          "type": "bytes4"
        }
      ],
      "name": "supportsInterface",
      "outputs": [
        {
          "internalType": "bool",
          "name": "",
          "type": "bool"
        }
      ],
      "stateMutability": "view",
      "type": "function"
    },
    {
      "inputs": [
        {
          "internalType": "address",
          "name": "",
          "type": "address"
        },
        {
          "internalType": "address",
          "name": "",
          "type": "address"
        },
        {
          "internalType": "address",
          "name": "",
          "type": "address"
        },
        {
          "internalType": "uint256",
          "name": "amount",
          "type": "uint256"
        },
        {
          "internalType": "bytes",
          "name": "userData",
          "type": "bytes"
        },
        {
          "internalType": "bytes",
          "name": "",
          "type": "bytes"
        }
      ],
      "name": "tokensReceived",
      "outputs": [],
      "stateMutability": "nonpayable",
      "type": "function"
    }
  ],
  "bytecode": "0x608060405234801561001057600080fd5b50611d16806100206000396000f3fe608060405234801561001057600080fd5b50600436106100e95760003560e01c8063a217fddf1161008c578063d547741f11610066578063d547741f14610207578063f23a6e611461021a578063f7013ef614610239578063fa8827611461024c57600080fd5b8063a217fddf146101c0578063bc197c81146101c8578063ca15c873146101f457600080fd5b80632f2ff15d116100c85780632f2ff15d1461015c57806336568abe1461016f5780639010d07c1461018257806391d14854146101ad57600080fd5b806223de29146100ee57806301ffc9a714610103578063248a9ca31461012b575b600080fd5b6101016100fc36600461159d565b610254565b005b61011661011136600461164e565b610af2565b60405190151581526020015b60405180910390f35b61014e610139366004611678565b60009081526065602052604090206001015490565b604051908152602001610122565b61010161016a366004611691565b610b12565b61010161017d366004611691565b610b3d565b6101956101903660046116c1565b610bbb565b6040516001600160a01b039091168152602001610122565b6101166101bb366004611691565b610bda565b61014e600081565b6101db6101d636600461181a565b610c05565b6040516001600160e01b03199091168152602001610122565b61014e610202366004611678565b610c7f565b610101610215366004611691565b610c96565b6101db6102283660046118c8565b63f23a6e6160e01b95945050505050565b610101610247366004611931565b610cbc565b61014e610e9d565b600061013554606461026691906119ab565b6102718760646119c3565b61027b91906119e2565b905080600061028c86880188611a04565b9050610133546101325414156102e95760405162461bcd60e51b815260206004820152601d60248201527f4649464f4d61726b65743a204e6f7420656e6f75676820737570706c7900000060448201526064015b60405180910390fd5b6001600160a01b0381166103505760405162461bcd60e51b815260206004820152602860248201527f4649464f4d61726b65743a2043616e6e6f74206d696e7420746f207468652030604482015267206164647265737360c01b60648201526084016102e0565b610130546001600160a01b031633146103c35760405162461bcd60e51b815260206004820152602f60248201527f4649464f4d61726b65743a205468697320636f6e74726163742063616e206f6e60448201526e6c792072656365697665204e4f524960881b60648201526084016102e0565b60006103cd610f5a565b67ffffffffffffffff8111156103e5576103e56116e3565b60405190808252806020026020018201604052801561040e578160200160208202803683370190505b509050600061041b610f5a565b67ffffffffffffffff811115610433576104336116e3565b60405190808252806020026020018201604052801561045c578160200160208202803683370190505b5090506000610469610f5a565b67ffffffffffffffff811115610481576104816116e3565b6040519080825280602002602001820160405280156104aa578160200160208202803683370190505b50610132549091505b6101335481101561076b5761012e5460008281526101316020526040808220549051627eeac760e11b8152306004820152602481019190915290916001600160a01b03169062fdd58e90604401602060405180830381865afa15801561051d573d6000803e3d6000fd5b505050506040513d601f19601f820116820180604052508101906105419190611a21565b61012e546000848152610131602052604080822054905163737fa58960e01b81526004810191909152929350916001600160a01b039091169063737fa589906024016040805180830381865afa15801561059f573d6000803e3d6000fd5b505050506040513d601f19601f820116820180604052508101906105c39190611a3a565b51905081881015610659576000838152610131602052604090205486518790859081106105f2576105f2611aa0565b6020026020010181815250508785848151811061061157610611611aa0565b6020026020010181815250508084848151811061063057610630611aa0565b60200260200101906001600160a01b031690816001600160a01b0316815250506000975061074a565b6001610133546106699190611ab6565b8314801561067657508188115b156106c35760405162461bcd60e51b815260206004820152601d60248201527f4649464f4d61726b65743a204e6f7420656e6f75676820737570706c7900000060448201526064016102e0565b6000838152610131602052604090205486518790859081106106e7576106e7611aa0565b6020026020010181815250508185848151811061070657610706611aa0565b6020026020010181815250508084848151811061072557610725611aa0565b6001600160a01b03909216602092830291909101909101526107478289611ab6565b97505b8761075657505061076b565b5050808061076390611acd565b9150506104b3565b5060008660405160200161078191815260200190565b60408051601f198184030181529082905261012f54630fbfeffd60e11b83529092506001600160a01b031690631f7fdffa906107c7908890889088908790600401611b7f565b600060405180830381600087803b1580156107e157600080fd5b505af11580156107f5573d6000803e3d6000fd5b5050505060005b8451811015610a795783818151811061081757610817611aa0565b60200260200101516000141561082c57610a79565b61012e546000828152610131602052604090819020549051627eeac760e11b815230600482015260248101919091526001600160a01b039091169062fdd58e90604401602060405180830381865afa15801561088c573d6000803e3d6000fd5b505050506040513d601f19601f820116820180604052508101906108b09190611a21565b8482815181106108c2576108c2611aa0565b602002602001015114156108e75761013280549060006108e183611acd565b91905055505b600061013554606486848151811061090157610901611aa0565b602002602001015161091391906119e2565b61091d91906119c3565b9050600085838151811061093357610933611aa0565b6020908102919091010151610130546101345460405163a9059cbb60e01b81526001600160a01b03918216600482015260248101869052929350169063a9059cbb906044016020604051808303816000875af1158015610997573d6000803e3d6000fd5b505050506040513d601f19601f820116820180604052508101906109bb9190611bc9565b506101305485516001600160a01b039091169063a9059cbb908790869081106109e6576109e6611aa0565b6020026020010151836040518363ffffffff1660e01b8152600401610a209291906001600160a01b03929092168252602082015260400190565b6020604051808303816000875af1158015610a3f573d6000803e3d6000fd5b505050506040513d601f19601f82011682018060405250810190610a639190611bc9565b5050508080610a7190611acd565b9150506107fc565b5061012e54604051631ac8311560e21b81526001600160a01b0390911690636b20c45490610aaf90309088908890600401611beb565b600060405180830381600087803b158015610ac957600080fd5b505af1158015610add573d6000803e3d6000fd5b50505050505050505050505050505050505050565b6000610afd82610f73565b80610b0c5750610b0c82610f98565b92915050565b600082815260656020526040902060010154610b2e8133610fbd565b610b388383611021565b505050565b6001600160a01b0381163314610bad5760405162461bcd60e51b815260206004820152602f60248201527f416363657373436f6e74726f6c3a2063616e206f6e6c792072656e6f756e636560448201526e103937b632b9903337b91039b2b63360891b60648201526084016102e0565b610bb78282611043565b5050565b6000828152609760205260408120610bd39083611065565b9392505050565b60009182526065602090815260408084206001600160a01b0393909316845291905290205460ff1690565b6000805b8451811015610c6c57848181518110610c2457610c24611aa0565b602090810291909101810151610133805460009081526101319093526040832091909155805491610c5483611acd565b91905055508080610c6490611acd565b915050610c09565b5063bc197c8160e01b9695505050505050565b6000818152609760205260408120610b0c90611071565b600082815260656020526040902060010154610cb28133610fbd565b610b388383611043565b600054610100900460ff16610cd75760005460ff1615610cdb565b303b155b610d3e5760405162461bcd60e51b815260206004820152602e60248201527f496e697469616c697a61626c653a20636f6e747261637420697320616c72656160448201526d191e481a5b9a5d1a585b1a5e995960921b60648201526084016102e0565b600054610100900460ff16158015610d60576000805461ffff19166101011790555b610d6861107b565b610d7061107b565b610d7861107b565b610d8061107b565b610d8861107b565b61012e80546001600160a01b03199081166001600160a01b03898116919091179092556101308054821688841617905561012f80548216878416179055610134805482169286169290921790915561013583905561012d8054731820a4b7618bde71dce8cdc73aab6c95905fad249216821790556040516329965a1d60e01b815230600482018190527fb281fc8c12954d22544db45de3159a39272895b169a852b314f9cc762e44c53b602483015260448201526329965a1d90606401600060405180830381600087803b158015610e5f57600080fd5b505af1158015610e73573d6000803e3d6000fd5b505060006101328190556101335550508015610e95576000805461ff00191690555b505050505050565b6101325460009081905b61013354811015610f545761012e546000828152610131602052604090819020549051627eeac760e11b815230600482015260248101919091526001600160a01b039091169062fdd58e90604401602060405180830381865afa158015610f12573d6000803e3d6000fd5b505050506040513d601f19601f82011682018060405250810190610f369190611a21565b610f4090836119ab565b915080610f4c81611acd565b915050610ea7565b50919050565b60006101325461013354610f6e9190611ab6565b905090565b60006001600160e01b03198216635a05180f60e01b1480610b0c5750610b0c826110e8565b60006001600160e01b03198216630271189760e51b1480610b0c5750610b0c82610f73565b610fc78282610bda565b610bb757610fdf816001600160a01b0316601461111d565b610fea83602061111d565b604051602001610ffb929190611c2b565b60408051601f198184030181529082905262461bcd60e51b82526102e091600401611ca0565b61102b82826112b9565b6000828152609760205260409020610b38908261133f565b61104d8282611354565b6000828152609760205260409020610b3890826113bb565b6000610bd383836113d0565b6000610b0c825490565b600054610100900460ff166110e65760405162461bcd60e51b815260206004820152602b60248201527f496e697469616c697a61626c653a20636f6e7472616374206973206e6f74206960448201526a6e697469616c697a696e6760a81b60648201526084016102e0565b565b60006001600160e01b03198216637965db0b60e01b1480610b0c57506301ffc9a760e01b6001600160e01b0319831614610b0c565b6060600061112c8360026119c3565b6111379060026119ab565b67ffffffffffffffff81111561114f5761114f6116e3565b6040519080825280601f01601f191660200182016040528015611179576020820181803683370190505b509050600360fc1b8160008151811061119457611194611aa0565b60200101906001600160f81b031916908160001a905350600f60fb1b816001815181106111c3576111c3611aa0565b60200101906001600160f81b031916908160001a90535060006111e78460026119c3565b6111f29060016119ab565b90505b600181111561126a576f181899199a1a9b1b9c1cb0b131b232b360811b85600f166010811061122657611226611aa0565b1a60f81b82828151811061123c5761123c611aa0565b60200101906001600160f81b031916908160001a90535060049490941c9361126381611cb3565b90506111f5565b508315610bd35760405162461bcd60e51b815260206004820181905260248201527f537472696e67733a20686578206c656e67746820696e73756666696369656e7460448201526064016102e0565b6112c38282610bda565b610bb75760008281526065602090815260408083206001600160a01b03851684529091529020805460ff191660011790556112fb3390565b6001600160a01b0316816001600160a01b0316837f2f8788117e7eff1d82e926ec794901d17c78024a50270940304540a733656f0d60405160405180910390a45050565b6000610bd3836001600160a01b0384166113fa565b61135e8282610bda565b15610bb75760008281526065602090815260408083206001600160a01b0385168085529252808320805460ff1916905551339285917ff6391f5c32d9c69d2a47ea670b442974b53935d1edc7fd64eb21e047a839171b9190a45050565b6000610bd3836001600160a01b038416611449565b60008260000182815481106113e7576113e7611aa0565b9060005260206000200154905092915050565b600081815260018301602052604081205461144157508154600181810184556000848152602080822090930184905584548482528286019093526040902091909155610b0c565b506000610b0c565b6000818152600183016020526040812054801561153257600061146d600183611ab6565b855490915060009061148190600190611ab6565b90508181146114e65760008660000182815481106114a1576114a1611aa0565b90600052602060002001549050808760000184815481106114c4576114c4611aa0565b6000918252602080832090910192909255918252600188019052604090208390555b85548690806114f7576114f7611cca565b600190038181906000526020600020016000905590558560010160008681526020019081526020016000206000905560019350505050610b0c565b6000915050610b0c565b6001600160a01b038116811461155157600080fd5b50565b60008083601f84011261156657600080fd5b50813567ffffffffffffffff81111561157e57600080fd5b60208301915083602082850101111561159657600080fd5b9250929050565b60008060008060008060008060c0898b0312156115b957600080fd5b88356115c48161153c565b975060208901356115d48161153c565b965060408901356115e48161153c565b955060608901359450608089013567ffffffffffffffff8082111561160857600080fd5b6116148c838d01611554565b909650945060a08b013591508082111561162d57600080fd5b5061163a8b828c01611554565b999c989b5096995094979396929594505050565b60006020828403121561166057600080fd5b81356001600160e01b031981168114610bd357600080fd5b60006020828403121561168a57600080fd5b5035919050565b600080604083850312156116a457600080fd5b8235915060208301356116b68161153c565b809150509250929050565b600080604083850312156116d457600080fd5b50508035926020909101359150565b634e487b7160e01b600052604160045260246000fd5b604051601f8201601f1916810167ffffffffffffffff81118282101715611722576117226116e3565b604052919050565b600082601f83011261173b57600080fd5b8135602067ffffffffffffffff821115611757576117576116e3565b8160051b6117668282016116f9565b928352848101820192828101908785111561178057600080fd5b83870192505b8483101561179f57823582529183019190830190611786565b979650505050505050565b600082601f8301126117bb57600080fd5b813567ffffffffffffffff8111156117d5576117d56116e3565b6117e8601f8201601f19166020016116f9565b8181528460208386010111156117fd57600080fd5b816020850160208301376000918101602001919091529392505050565b600080600080600060a0868803121561183257600080fd5b853561183d8161153c565b9450602086013561184d8161153c565b9350604086013567ffffffffffffffff8082111561186a57600080fd5b61187689838a0161172a565b9450606088013591508082111561188c57600080fd5b61189889838a0161172a565b935060808801359150808211156118ae57600080fd5b506118bb888289016117aa565b9150509295509295909350565b600080600080600060a086880312156118e057600080fd5b85356118eb8161153c565b945060208601356118fb8161153c565b93506040860135925060608601359150608086013567ffffffffffffffff81111561192557600080fd5b6118bb888289016117aa565b600080600080600060a0868803121561194957600080fd5b85356119548161153c565b945060208601356119648161153c565b935060408601356119748161153c565b925060608601356119848161153c565b949793965091946080013592915050565b634e487b7160e01b600052601160045260246000fd5b600082198211156119be576119be611995565b500190565b60008160001904831182151516156119dd576119dd611995565b500290565b6000826119ff57634e487b7160e01b600052601260045260246000fd5b500490565b600060208284031215611a1657600080fd5b8135610bd38161153c565b600060208284031215611a3357600080fd5b5051919050565b600060408284031215611a4c57600080fd5b6040516040810181811067ffffffffffffffff82111715611a6f57611a6f6116e3565b6040528251611a7d8161153c565b8152602083015161ffff81168114611a9457600080fd5b60208201529392505050565b634e487b7160e01b600052603260045260246000fd5b600082821015611ac857611ac8611995565b500390565b6000600019821415611ae157611ae1611995565b5060010190565b600081518084526020808501945080840160005b83811015611b1857815187529582019590820190600101611afc565b509495945050505050565b60005b83811015611b3e578181015183820152602001611b26565b83811115611b4d576000848401525b50505050565b60008151808452611b6b816020860160208601611b23565b601f01601f19169290920160200192915050565b6001600160a01b0385168152608060208201819052600090611ba390830186611ae8565b8281036040840152611bb58186611ae8565b9050828103606084015261179f8185611b53565b600060208284031215611bdb57600080fd5b81518015158114610bd357600080fd5b6001600160a01b0384168152606060208201819052600090611c0f90830185611ae8565b8281036040840152611c218185611ae8565b9695505050505050565b7f416363657373436f6e74726f6c3a206163636f756e7420000000000000000000815260008351611c63816017850160208801611b23565b7001034b99036b4b9b9b4b733903937b6329607d1b6017918401918201528351611c94816028840160208801611b23565b01602801949350505050565b602081526000610bd36020830184611b53565b600081611cc257611cc2611995565b506000190190565b634e487b7160e01b600052603160045260246000fdfea264697066735822122011f39638245e5fa835ebe1a44063a663525ca521ee2dc9423c8ffe67925b457664736f6c634300080a0033",
  "linkReferences": {},
  "deployedLinkReferences": {}
}