{
  "_format": "hh-sol-artifact-1",
  "contractName": "FIFOMarket",
  "sourceName": "contracts/FIFOMarket.sol",
  "abi": [
    {
      "anonymous": false,
      "inputs": [
        {
          "indexed": false,
          "internalType": "uint256",
          "name": "threshold",
          "type": "uint256"
        }
      ],
      "name": "PriorityRestrictedThresholdSet",
      "type": "event"
    },
    {
      "anonymous": false,
      "inputs": [
        {
          "indexed": true,
          "internalType": "bytes32",
          "name": "role",
          "type": "bytes32"
        },
        {
          "indexed": true,
          "internalType": "bytes32",
          "name": "previousAdminRole",
          "type": "bytes32"
        },
        {
          "indexed": true,
          "internalType": "bytes32",
          "name": "newAdminRole",
          "type": "bytes32"
        }
      ],
      "name": "RoleAdminChanged",
      "type": "event"
    },
    {
      "anonymous": false,
      "inputs": [
        {
          "indexed": true,
          "internalType": "bytes32",
          "name": "role",
          "type": "bytes32"
        },
        {
          "indexed": true,
          "internalType": "address",
          "name": "account",
          "type": "address"
        },
        {
          "indexed": true,
          "internalType": "address",
          "name": "sender",
          "type": "address"
        }
      ],
      "name": "RoleGranted",
      "type": "event"
    },
    {
      "anonymous": false,
      "inputs": [
        {
          "indexed": true,
          "internalType": "bytes32",
          "name": "role",
          "type": "bytes32"
        },
        {
          "indexed": true,
          "internalType": "address",
          "name": "account",
          "type": "address"
        },
        {
          "indexed": true,
          "internalType": "address",
          "name": "sender",
          "type": "address"
        }
      ],
      "name": "RoleRevoked",
      "type": "event"
    },
    {
      "inputs": [],
      "name": "ALLOWLIST_ROLE",
      "outputs": [
        {
          "internalType": "bytes32",
          "name": "",
          "type": "bytes32"
        }
      ],
      "stateMutability": "view",
      "type": "function"
    },
    {
      "inputs": [],
      "name": "DEFAULT_ADMIN_ROLE",
      "outputs": [
        {
          "internalType": "bytes32",
          "name": "",
          "type": "bytes32"
        }
      ],
      "stateMutability": "view",
      "type": "function"
    },
    {
      "inputs": [],
      "name": "activeSupplierCount",
      "outputs": [
        {
          "internalType": "uint256",
          "name": "",
          "type": "uint256"
        }
      ],
      "stateMutability": "view",
      "type": "function"
    },
    {
      "inputs": [
        {
          "internalType": "bytes32",
          "name": "role",
          "type": "bytes32"
        }
      ],
      "name": "getRoleAdmin",
      "outputs": [
        {
          "internalType": "bytes32",
          "name": "",
          "type": "bytes32"
        }
      ],
      "stateMutability": "view",
      "type": "function"
    },
    {
      "inputs": [
        {
          "internalType": "bytes32",
          "name": "role",
          "type": "bytes32"
        },
        {
          "internalType": "uint256",
          "name": "index",
          "type": "uint256"
        }
      ],
      "name": "getRoleMember",
      "outputs": [
        {
          "internalType": "address",
          "name": "",
          "type": "address"
        }
      ],
      "stateMutability": "view",
      "type": "function"
    },
    {
      "inputs": [
        {
          "internalType": "bytes32",
          "name": "role",
          "type": "bytes32"
        }
      ],
      "name": "getRoleMemberCount",
      "outputs": [
        {
          "internalType": "uint256",
          "name": "",
          "type": "uint256"
        }
      ],
      "stateMutability": "view",
      "type": "function"
    },
    {
      "inputs": [
        {
          "internalType": "bytes32",
          "name": "role",
          "type": "bytes32"
        },
        {
          "internalType": "address",
          "name": "account",
          "type": "address"
        }
      ],
      "name": "grantRole",
      "outputs": [],
      "stateMutability": "nonpayable",
      "type": "function"
    },
    {
      "inputs": [
        {
          "internalType": "bytes32",
          "name": "role",
          "type": "bytes32"
        },
        {
          "internalType": "address",
          "name": "account",
          "type": "address"
        }
      ],
      "name": "hasRole",
      "outputs": [
        {
          "internalType": "bool",
          "name": "",
          "type": "bool"
        }
      ],
      "stateMutability": "view",
      "type": "function"
    },
    {
      "inputs": [
        {
          "internalType": "address",
          "name": "removalAddress",
          "type": "address"
        },
        {
          "internalType": "address",
          "name": "bridgedPolygonNoriAddress",
          "type": "address"
        },
        {
          "internalType": "address",
          "name": "certificateAddress",
          "type": "address"
        },
        {
          "internalType": "address",
          "name": "restrictedNoriAddress",
          "type": "address"
        },
        {
          "internalType": "address",
          "name": "noriFeeWalletAddress",
          "type": "address"
        },
        {
          "internalType": "uint256",
          "name": "noriFee",
          "type": "uint256"
        }
      ],
      "name": "initialize",
      "outputs": [],
      "stateMutability": "nonpayable",
      "type": "function"
    },
    {
      "inputs": [],
      "name": "numberOfActiveNrtsInMarketComputed",
      "outputs": [
        {
          "internalType": "uint256",
          "name": "",
          "type": "uint256"
        }
      ],
      "stateMutability": "view",
      "type": "function"
    },
    {
      "inputs": [
        {
          "internalType": "address",
          "name": "",
          "type": "address"
        },
        {
          "internalType": "address",
          "name": "",
          "type": "address"
        },
        {
          "internalType": "uint256[]",
          "name": "ids",
          "type": "uint256[]"
        },
        {
          "internalType": "uint256[]",
          "name": "",
          "type": "uint256[]"
        },
        {
          "internalType": "bytes",
          "name": "data",
          "type": "bytes"
        }
      ],
      "name": "onERC1155BatchReceived",
      "outputs": [
        {
          "internalType": "bytes4",
          "name": "",
          "type": "bytes4"
        }
      ],
      "stateMutability": "nonpayable",
      "type": "function"
    },
    {
      "inputs": [
        {
          "internalType": "address",
          "name": "",
          "type": "address"
        },
        {
          "internalType": "address",
          "name": "",
          "type": "address"
        },
        {
          "internalType": "uint256",
          "name": "",
          "type": "uint256"
        },
        {
          "internalType": "uint256",
          "name": "",
          "type": "uint256"
        },
        {
          "internalType": "bytes",
          "name": "",
          "type": "bytes"
        }
      ],
      "name": "onERC1155Received",
      "outputs": [
        {
          "internalType": "bytes4",
          "name": "",
          "type": "bytes4"
        }
      ],
      "stateMutability": "nonpayable",
      "type": "function"
    },
    {
      "inputs": [],
      "name": "priorityRestrictedThreshold",
      "outputs": [
        {
          "internalType": "uint256",
          "name": "",
          "type": "uint256"
        }
      ],
      "stateMutability": "view",
      "type": "function"
    },
    {
      "inputs": [
        {
          "internalType": "bytes32",
          "name": "role",
          "type": "bytes32"
        },
        {
          "internalType": "address",
          "name": "account",
          "type": "address"
        }
      ],
      "name": "renounceRole",
      "outputs": [],
      "stateMutability": "nonpayable",
      "type": "function"
    },
    {
      "inputs": [
        {
          "internalType": "uint256",
          "name": "removalId",
          "type": "uint256"
        }
      ],
      "name": "reserveRemoval",
      "outputs": [
        {
          "internalType": "bool",
          "name": "",
          "type": "bool"
        }
      ],
      "stateMutability": "nonpayable",
      "type": "function"
    },
    {
      "inputs": [
        {
          "internalType": "bytes32",
          "name": "role",
          "type": "bytes32"
        },
        {
          "internalType": "address",
          "name": "account",
          "type": "address"
        }
      ],
      "name": "revokeRole",
      "outputs": [],
      "stateMutability": "nonpayable",
      "type": "function"
    },
    {
      "inputs": [
        {
          "internalType": "uint256",
          "name": "threshold",
          "type": "uint256"
        }
      ],
      "name": "setPriorityRestrictedThreshold",
      "outputs": [],
      "stateMutability": "nonpayable",
      "type": "function"
    },
    {
      "inputs": [
        {
          "internalType": "bytes4",
          "name": "interfaceId",
          "type": "bytes4"
        }
      ],
      "name": "supportsInterface",
      "outputs": [
        {
          "internalType": "bool",
          "name": "",
          "type": "bool"
        }
      ],
      "stateMutability": "view",
      "type": "function"
    },
    {
      "inputs": [
        {
          "internalType": "address",
          "name": "",
          "type": "address"
        },
        {
          "internalType": "address",
          "name": "from",
          "type": "address"
        },
        {
          "internalType": "address",
          "name": "",
          "type": "address"
        },
        {
          "internalType": "uint256",
          "name": "amount",
          "type": "uint256"
        },
        {
          "internalType": "bytes",
          "name": "userData",
          "type": "bytes"
        },
        {
          "internalType": "bytes",
          "name": "",
          "type": "bytes"
        }
      ],
      "name": "tokensReceived",
      "outputs": [],
      "stateMutability": "nonpayable",
      "type": "function"
    },
    {
      "inputs": [],
      "name": "totalActiveSupply",
      "outputs": [
        {
          "internalType": "uint256",
          "name": "",
          "type": "uint256"
        }
      ],
      "stateMutability": "view",
      "type": "function"
    },
    {
      "inputs": [],
      "name": "totalNumberActiveRemovals",
      "outputs": [
        {
          "internalType": "uint256",
          "name": "",
          "type": "uint256"
        }
      ],
      "stateMutability": "view",
      "type": "function"
    },
    {
      "inputs": [],
      "name": "totalReservedSupply",
      "outputs": [
        {
          "internalType": "uint256",
          "name": "",
          "type": "uint256"
        }
      ],
      "stateMutability": "view",
      "type": "function"
    },
    {
      "inputs": [],
      "name": "totalUnrestrictedSupply",
      "outputs": [
        {
          "internalType": "uint256",
          "name": "",
          "type": "uint256"
        }
      ],
      "stateMutability": "view",
      "type": "function"
    },
    {
      "inputs": [
        {
          "internalType": "uint256",
          "name": "removalId",
          "type": "uint256"
        }
      ],
      "name": "unreserveRemoval",
      "outputs": [
        {
          "internalType": "bool",
          "name": "",
          "type": "bool"
        }
      ],
      "stateMutability": "nonpayable",
      "type": "function"
    }
  ],
  "bytecode": "0x608060405234801561001057600080fd5b50612f31806100206000396000f3fe608060405234801561001057600080fd5b50600436106101575760003560e01c806372069264116100c3578063a217fddf1161007c578063a217fddf146102d0578063bc197c81146102d8578063ca15c87314610304578063d547741f14610317578063d797462f1461032a578063f23a6e611461033d57600080fd5b8063720692641461025a5780637530b450146102645780639010d07c1461026c57806391d148541461029757806395b6ef0c146102aa57806397a11ee9146102bd57600080fd5b80633030b532116101155780633030b532146101f1578063361b7b9d1461021857806336568abe146102225780633eb12cee1461023557806359e1a71c1461023d578063674d13c81461025057600080fd5b806223de291461015c57806301ffc9a71461017157806312de2b0514610199578063179f0445146101b1578063248a9ca3146101bb5780632f2ff15d146101de575b600080fd5b61016f61016a36600461265e565b61035c565b005b61018461017f36600461270e565b610e52565b60405190151581526020015b60405180910390f35b6101a36101345481565b604051908152602001610190565b6101a36101355481565b6101a36101c9366004612738565b60009081526065602052604090206001015490565b61016f6101ec366004612751565b610e72565b6101a37f26a560d834a19637eccba4611bbc09fb32970bb627da0a70f14f83fdc9822cbc81565b6101a36101385481565b61016f610230366004612751565b610e9d565b6101a3610f1b565b61018461024b366004612738565b610fad565b6101a36101375481565b6101a36101365481565b6101a3611185565b61027f61027a366004612781565b6111b2565b6040516001600160a01b039091168152602001610190565b6101846102a5366004612751565b6111d1565b61016f6102b83660046127a3565b6111fc565b6101846102cb366004612738565b61143f565b6101a3600081565b6102eb6102e636600461295f565b611619565b6040516001600160e01b03199091168152602001610190565b6101a3610312366004612738565b6118a1565b61016f610325366004612751565b6118b8565b61016f610338366004612738565b6118de565b6102eb61034b366004612a0c565b63f23a6e6160e01b95945050505050565b610136546000036103ab5760405162461bcd60e51b81526020600482015260146024820152734d61726b65743a204f7574206f662073746f636b60601b60448201526064015b60405180910390fd5b61013454610136541161043c576103e27f26a560d834a19637eccba4611bbc09fb32970bb627da0a70f14f83fdc9822cbc886111d1565b61043c5760405162461bcd60e51b815260206004820152602560248201527f4c6f7720737570706c7920616e64206275796572206e6f74206f6e20616c6c6f6044820152641ddb1a5cdd60da1b60648201526084016103a2565b600061013354606461044e9190612a8a565b610459876064612aa2565b6104639190612ac1565b905080600061047486880188612ae3565b90506001600160a01b0381166104d85760405162461bcd60e51b8152602060048201526024808201527f4d61726b65743a2043616e6e6f74206d696e7420746f207468652030206164646044820152637265737360e01b60648201526084016103a2565b610130546001600160a01b031633146105595760405162461bcd60e51b815260206004820152603960248201527f4d61726b65743a205468697320636f6e74726163742063616e206f6e6c79207260448201527f6563656976652042726964676564506f6c79676f6e4e4f52490000000000000060648201526084016103a2565b6000610135546001600160401b038111156105765761057661281c565b60405190808252806020026020018201604052801561059f578160200160208202803683370190505b5090506000610135546001600160401b038111156105bf576105bf61281c565b6040519080825280602002602001820160405280156105e8578160200160208202803683370190505b5090506000610135546001600160401b038111156106085761060861281c565b604051908082528060200260200182016040528015610631578160200160208202803683370190505b5090506000805b6101355481101561098d57610139546001600160a01b0316600090815261013b6020526040812061066890611927565b61012e54604051627eeac760e11b8152306004820152602481018390529192506000916001600160a01b039091169062fdd58e90604401602060405180830381865afa1580156106bc573d6000803e3d6000fd5b505050506040513d601f19601f820116820180604052508101906106e09190612b00565b90508089101561077457818785815181106106fd576106fd612b19565b6020026020010181815250508886858151811061071c5761071c612b19565b60209081029190910101526101395485516001600160a01b039091169086908690811061074b5761074b612b19565b60200260200101906001600160a01b031690816001600160a01b0316815250506000985061095c565b6001610135546107849190612b2f565b8314801561079157508089115b156107de5760405162461bcd60e51b815260206004820152601960248201527f4d61726b65743a204e6f7420656e6f75676820737570706c790000000000000060448201526064016103a2565b818785815181106107f1576107f1612b19565b6020026020010181815250508086858151811061081057610810612b19565b60209081029190910101526101395485516001600160a01b039091169086908690811061083f5761083f612b19565b6001600160a01b0390921660209283029190910190910152610861818a612b2f565b610139546001600160a01b0316600090815261013b6020526040902090995061088a9083611944565b6108eb5760405162461bcd60e51b815260206004820152602c60248201527f4d61726b65743a204661696c656420746f2072656d6f76652072656d6f76616c60448201526b2066726f6d20737570706c7960a01b60648201526084016103a2565b610139546001600160a01b0316600090815261013b602052604090206002015461092a5761013954610925906001600160a01b0316611add565b61095c565b610139546001600160a01b03908116600081815261013a60205260409020600101549091161461095c5761095c611bff565b8361096681612b46565b9450508860000361097857505061098d565b5050808061098590612b46565b915050610638565b506000816001600160401b038111156109a8576109a861281c565b6040519080825280602002602001820160405280156109d1578160200160208202803683370190505b5090506000826001600160401b038111156109ee576109ee61281c565b604051908082528060200260200182016040528015610a17578160200160208202803683370190505b50905060005b83811015610aa657868181518110610a3757610a37612b19565b6020026020010151838281518110610a5157610a51612b19565b602002602001018181525050858181518110610a6f57610a6f612b19565b6020026020010151828281518110610a8957610a89612b19565b602090810291909101015280610a9e81612b46565b915050610a1d565b50600089604051602001610abc91815260200190565b60408051601f198184030181529082905261012f54630fbfeffd60e11b83529092506001600160a01b031690631f7fdffa90610b02908b90879087908790600401612bf6565b600060405180830381600087803b158015610b1c57600080fd5b505af1158015610b30573d6000803e3d6000fd5b505061012e5460405163018e1c8360e01b8152600093506001600160a01b03909116915063018e1c8390610b6a9030908890600401612c4b565b600060405180830381865afa158015610b87573d6000803e3d6000fd5b505050506040513d6000823e601f3d908101601f19168201604052610baf9190810190612c6f565b905060005b8451811015610dd557818181518110610bcf57610bcf612b19565b6020026020010151848281518110610be957610be9612b19565b602002602001015103610c105760016101356000828254610c0a9190612b2f565b90915550505b838181518110610c2257610c22612b19565b60200260200101516101366000828254610c3c9190612b2f565b925050819055506000610133546064868481518110610c5d57610c5d612b19565b6020026020010151610c6f9190612ac1565b610c799190612aa2565b90506000858381518110610c8f57610c8f612b19565b6020908102919091010151610130546101325460405163a9059cbb60e01b81526001600160a01b03918216600482015260248101869052929350169063a9059cbb906044016020604051808303816000875af1158015610cf3573d6000803e3d6000fd5b505050506040513d601f19601f82011682018060405250810190610d179190612cf4565b506101305489516001600160a01b039091169063a9059cbb908b9086908110610d4257610d42612b19565b6020026020010151836040518363ffffffff1660e01b8152600401610d7c9291906001600160a01b03929092168252602082015260400190565b6020604051808303816000875af1158015610d9b573d6000803e3d6000fd5b505050506040513d601f19601f82011682018060405250810190610dbf9190612cf4565b5050508080610dcd90612b46565b915050610bb4565b5061012e54604051631ac8311560e21b81526001600160a01b0390911690636b20c45490610e0b90309088908890600401612d16565b600060405180830381600087803b158015610e2557600080fd5b505af1158015610e39573d6000803e3d6000fd5b5050505050505050505050505050505050505050505050565b6000610e5d82611c34565b80610e6c5750610e6c82611c59565b92915050565b600082815260656020526040902060010154610e8e8133611c7e565b610e988383611ce2565b505050565b6001600160a01b0381163314610f0d5760405162461bcd60e51b815260206004820152602f60248201527f416363657373436f6e74726f6c3a2063616e206f6e6c792072656e6f756e636560448201526e103937b632b9903337b91039b2b63360891b60648201526084016103a2565b610f178282611d04565b5050565b6101395460009081906001600160a01b0316815b61013854811015610fa55761012e546001600160a01b03838116600090815261013b60205260409020610f6492909116611d26565b610f6e9084612a8a565b6001600160a01b03928316600090815261013a60205260409020600101549093509091169080610f9d81612b46565b915050610f2f565b509092915050565b600080610fb983611ed0565b6001600160a01b038116600090815261013b60205260409020909150610fdf9084611944565b6110375760405162461bcd60e51b8152602060048201526024808201527f4d61726b65743a2072656d6f76616c206e6f7420696e2061637469766520737560448201526370706c7960e01b60648201526084016103a2565b61012e54604051627eeac760e11b8152306004820152602481018590526000916001600160a01b03169062fdd58e90604401602060405180830381865afa158015611086573d6000803e3d6000fd5b505050506040513d601f19601f820116820180604052508101906110aa9190612b00565b90508061013660008282546110bf9190612b2f565b925050819055508061013760008282546110d99190612a8a565b92505081905550600161013560008282546110f49190612b2f565b90915550506001600160a01b038216600090815261013b60205260409020600201546111235761112382611add565b61112f61013c85611edf565b61117b5760405162461bcd60e51b815260206004820181905260248201527f4d61726b65743a2052656d6f76616c20616c726561647920726573657276656460448201526064016103a2565b5060019392505050565b60006101345461013654101561119b5750600090565b61013454610136546111ad9190612b2f565b905090565b60008281526097602052604081206111ca9083611eeb565b9392505050565b60009182526065602090815260408084206001600160a01b0393909316845291905290205460ff1690565b600054610100900460ff166112175760005460ff161561121b565b303b155b61127e5760405162461bcd60e51b815260206004820152602e60248201527f496e697469616c697a61626c653a20636f6e747261637420697320616c72656160448201526d191e481a5b9a5d1a585b1a5e995960921b60648201526084016103a2565b600054610100900460ff161580156112a0576000805461ffff19166101011790555b6112a8611ef7565b6112b0611ef7565b6112b8611ef7565b6112c0611ef7565b6112c8611ef7565b61012e80546001600160a01b03199081166001600160a01b038a8116919091179092556101308054821689841617905561012f8054821688841617905561013180548216878416179055610132805482169286169290921790915561013383905561012d8054731820a4b7618bde71dce8cdc73aab6c95905fad249216821790556040516329965a1d60e01b815230600482018190527fb281fc8c12954d22544db45de3159a39272895b169a852b314f9cc762e44c53b602483015260448201526329965a1d90606401600060405180830381600087803b1580156113ac57600080fd5b505af11580156113c0573d6000803e3d6000fd5b5050600061013481905561013681905561013781905561013581905561013980546001600160a01b03191690556113fa9250905033611ce2565b6114247f26a560d834a19637eccba4611bbc09fb32970bb627da0a70f14f83fdc9822cbc33611ce2565b8015611436576000805461ff00191690555b50505050505050565b60008061144b83611ed0565b905061145961013c84611f64565b6114b45760405162461bcd60e51b815260206004820152602660248201527f4d61726b65743a2072656d6f76616c206e6f7420696e20726573657276656420604482015265737570706c7960d01b60648201526084016103a2565b600161013560008282546114c89190612a8a565b909155505061012e54604051627eeac760e11b8152306004820152602481018590526000916001600160a01b03169062fdd58e90604401602060405180830381865afa15801561151c573d6000803e3d6000fd5b505050506040513d601f19601f820116820180604052508101906115409190612b00565b90508061013660008282546115559190612a8a565b9250508190555080610137600082825461156f9190612b2f565b90915550506001600160a01b038216600090815261013b602052604090206002015461159e5761159e82611f70565b6001600160a01b038216600090815261013b602052604090206115c19085612099565b61117b5760405162461bcd60e51b815260206004820152602360248201527f4d61726b65743a20556e61626c6520746f20756e726573657276652072656d6f6044820152621d985b60ea1b60648201526084016103a2565b61012e5460405163018e1c8360e01b815260009182916001600160a01b039091169063018e1c83906116519030908990600401612c4b565b600060405180830381865afa15801561166e573d6000803e3d6000fd5b505050506040513d6000823e601f3d908101601f191682016040526116969190810190612c6f565b905060008060005b87518110156117e05760008882815181106116bb576116bb612b19565b6020026020010151905060006116d082611ed0565b905060008684815181106116e6576116e6612b19565b602002602001015190506117288361013b6000856001600160a01b03166001600160a01b0316815260200190815260200160002061209990919063ffffffff16565b6117855760405162461bcd60e51b815260206004820152602860248201527f4d61726b65743a20556e61626c6520746f206164642072656d6f76616c2062796044820152672076696e7461676560c01b60648201526084016103a2565b6001600160a01b03828116600090815261013a6020526040902060010154166117b1576117b182611f70565b6117bb8187612a8a565b95506117c8600186612a8a565b945050505080806117d890612b46565b91505061169e565b508161013660008282546117f49190612a8a565b9250508190555080610135600082825461180e9190612a8a565b9250508190555060008580602001905181019061182b9190612b00565b61013154604051637b7abd1760e11b8152600481018390529192506001600160a01b03169063f6f57a2e90602401600060405180830381600087803b15801561187357600080fd5b505af1158015611887573d6000803e3d6000fd5b5063bc197c8160e01b9d9c50505050505050505050505050565b6000818152609760205260408120610e6c9061211b565b6000828152606560205260409020600101546118d48133611c7e565b610e988383611d04565b60006118ea8133611c7e565b6101348290556040518281527f7ab6aa6547859e9ca74d567d44fefa0d63272ac019f4ebf9333032a62ea06fa59060200160405180910390a15050565b60018101546000908152602082905260408120610e6c9082611eeb565b60008061195083612125565b61ffff16600081815260208690526040902090915061196f9084611f64565b6119cc5760405162461bcd60e51b815260206004820152602860248201527f4d61726b65743a206661696c656420746f2072656d6f766520636f7272656374604482015267081c995b5bdd985b60c21b60648201526084016103a2565b6119d68482612134565b1561117b5783600201548460010154036119fe5760001960018501556000600285015561117b565b83600101548103611a6b57600084600101546001611a1c9190612a8a565b90505b84600201548111611a65576000818152602086905260408120611a419061211b565b1115611a535760018501819055611a65565b80611a5d81612b46565b915050611a1f565b5061117b565b8360020154810361117b57600060018560020154611a899190612b2f565b90505b84600101548110611ad2576000818152602086905260408120611aae9061211b565b1115611ac05760028501819055611ad2565b80611aca81612d56565b915050611a8c565b505060019392505050565b6001600160a01b03808216600081815261013a60205260409020600101549091169003611b1a5761013980546001600160a01b0319169055611b8c565b6001600160a01b03818116600081815261013a60205260408082206001808201805483548816865284862090920180549288166001600160a01b0319938416179055915491548616845291909220805492851692909116919091179055610139549091169003611b8c57611b8c611bff565b604080518082018252600080825260208083018281526001600160a01b03868116845261013a909252938220925183546001600160a01b0319908116918316919091178455935160019384018054909516911617909255610138805491929091611bf7908490612b2f565b909155505050565b61013980546001600160a01b03808216600090815261013a6020526040902060010154166001600160a01b0319909116179055565b60006001600160e01b03198216635a05180f60e01b1480610e6c5750610e6c82612148565b60006001600160e01b03198216630271189760e51b1480610e6c5750610e6c82611c34565b611c8882826111d1565b610f1757611ca0816001600160a01b0316601461217d565b611cab83602061217d565b604051602001611cbc929190612d6d565b60408051601f198184030181529082905262461bcd60e51b82526103a291600401612de2565b611cec8282612318565b6000828152609760205260409020610e98908261239e565b611d0e82826123b3565b6000828152609760205260409020610e98908261241a565b60018201546000908190819081905b86600201548111611ec6576000818152602088905260409020611d579061211b565b93506000846001600160401b03811115611d7357611d7361281c565b604051908082528060200260200182016040528015611d9c578160200160208202803683370190505b509050600093505b84841015611df3576000828152602089905260409020611dc49085611eeb565b818581518110611dd657611dd6612b19565b602090810291909101015283611deb81612b46565b945050611da4565b60405163018e1c8360e01b81526000906001600160a01b0389169063018e1c8390611e249030908690600401612c4b565b600060405180830381865afa158015611e41573d6000803e3d6000fd5b505050506040513d6000823e601f3d908101601f19168201604052611e699190810190612c6f565b9050600094505b85851015611eb157808581518110611e8a57611e8a612b19565b602002602001015184611e9d9190612a8a565b935084611ea981612b46565b955050611e70565b50508080611ebe90612b46565b915050611d35565b5095945050505050565b6000610e6c826014600461242f565b60006111ca838361247b565b60006111ca83836124ca565b600054610100900460ff16611f625760405162461bcd60e51b815260206004820152602b60248201527f496e697469616c697a61626c653a20636f6e7472616374206973206e6f74206960448201526a6e697469616c697a696e6760a81b60648201526084016103a2565b565b60006111ca83836124f4565b610139546001600160a01b0316611feb5761013980546001600160a01b03199081166001600160a01b038481169182179093556040805180820182528281526020808201848152600094855261013a909152919092209151825484169085161782555160019190910180549092169216919091179055612085565b60408051808201825261013980546001600160a01b03908116600081815261013a60208181528783205485168752808701938452888516808452919052868220955186549085166001600160a01b0319918216178755925160019687018054918616918516919091179055845484168252868220548416825286822090950180548316861790559254909116825292902080549092161790555b60016101386000828254611bf79190612a8a565b6000806120a583612125565b61ffff1690506120b784600201541590565b156120cf5760018401819055600284018190556120fb565b83600101548110156120e757600184018190556120fb565b83600201548111156120fb57600284018190555b60008181526020859052604090206121139084611edf565b949350505050565b6000610e6c825490565b6000610e6c826002601c61242f565b600061214083836125e7565b159392505050565b60006001600160e01b03198216637965db0b60e01b1480610e6c57506301ffc9a760e01b6001600160e01b0319831614610e6c565b6060600061218c836002612aa2565b612197906002612a8a565b6001600160401b038111156121ae576121ae61281c565b6040519080825280601f01601f1916602001820160405280156121d8576020820181803683370190505b509050600360fc1b816000815181106121f3576121f3612b19565b60200101906001600160f81b031916908160001a905350600f60fb1b8160018151811061222257612222612b19565b60200101906001600160f81b031916908160001a9053506000612246846002612aa2565b612251906001612a8a565b90505b60018111156122c9576f181899199a1a9b1b9c1cb0b131b232b360811b85600f166010811061228557612285612b19565b1a60f81b82828151811061229b5761229b612b19565b60200101906001600160f81b031916908160001a90535060049490941c936122c281612d56565b9050612254565b5083156111ca5760405162461bcd60e51b815260206004820181905260248201527f537472696e67733a20686578206c656e67746820696e73756666696369656e7460448201526064016103a2565b61232282826111d1565b610f175760008281526065602090815260408083206001600160a01b03851684529091529020805460ff1916600117905561235a3390565b6001600160a01b0316816001600160a01b0316837f2f8788117e7eff1d82e926ec794901d17c78024a50270940304540a733656f0d60405160405180910390a45050565b60006111ca836001600160a01b03841661247b565b6123bd82826111d1565b15610f175760008281526065602090815260408083206001600160a01b0385168085529252808320805460ff1916905551339285917ff6391f5c32d9c69d2a47ea670b442974b53935d1edc7fd64eb21e047a839171b9190a45050565b60006111ca836001600160a01b0384166124f4565b60008061243d600884612aa2565b600161244a600887612aa2565b612455906002612ed9565b61245f9190612b2f565b901b9050848116612471600885612aa2565b1c95945050505050565b60008181526001830160205260408120546124c257508154600181810184556000848152602080822090930184905584548482528286019093526040902091909155610e6c565b506000610e6c565b60008260000182815481106124e1576124e1612b19565b9060005260206000200154905092915050565b600081815260018301602052604081205480156125dd576000612518600183612b2f565b855490915060009061252c90600190612b2f565b905081811461259157600086600001828154811061254c5761254c612b19565b906000526020600020015490508087600001848154811061256f5761256f612b19565b6000918252602080832090910192909255918252600188019052604090208390555b85548690806125a2576125a2612ee5565b600190038181906000526020600020016000905590558560010160008681526020019081526020016000206000905560019350505050610e6c565b6000915050610e6c565b60008181526020839052604081206111ca9061211b565b6001600160a01b038116811461261357600080fd5b50565b60008083601f84011261262857600080fd5b5081356001600160401b0381111561263f57600080fd5b60208301915083602082850101111561265757600080fd5b9250929050565b60008060008060008060008060c0898b03121561267a57600080fd5b8835612685816125fe565b97506020890135612695816125fe565b965060408901356126a5816125fe565b95506060890135945060808901356001600160401b03808211156126c857600080fd5b6126d48c838d01612616565b909650945060a08b01359150808211156126ed57600080fd5b506126fa8b828c01612616565b999c989b5096995094979396929594505050565b60006020828403121561272057600080fd5b81356001600160e01b0319811681146111ca57600080fd5b60006020828403121561274a57600080fd5b5035919050565b6000806040838503121561276457600080fd5b823591506020830135612776816125fe565b809150509250929050565b6000806040838503121561279457600080fd5b50508035926020909101359150565b60008060008060008060c087890312156127bc57600080fd5b86356127c7816125fe565b955060208701356127d7816125fe565b945060408701356127e7816125fe565b935060608701356127f7816125fe565b92506080870135612807816125fe565b8092505060a087013590509295509295509295565b634e487b7160e01b600052604160045260246000fd5b604051601f8201601f191681016001600160401b038111828210171561285a5761285a61281c565b604052919050565b60006001600160401b0382111561287b5761287b61281c565b5060051b60200190565b600082601f83011261289657600080fd5b813560206128ab6128a683612862565b612832565b82815260059290921b840181019181810190868411156128ca57600080fd5b8286015b848110156128e557803583529183019183016128ce565b509695505050505050565b600082601f83011261290157600080fd5b81356001600160401b0381111561291a5761291a61281c565b61292d601f8201601f1916602001612832565b81815284602083860101111561294257600080fd5b816020850160208301376000918101602001919091529392505050565b600080600080600060a0868803121561297757600080fd5b8535612982816125fe565b94506020860135612992816125fe565b935060408601356001600160401b03808211156129ae57600080fd5b6129ba89838a01612885565b945060608801359150808211156129d057600080fd5b6129dc89838a01612885565b935060808801359150808211156129f257600080fd5b506129ff888289016128f0565b9150509295509295909350565b600080600080600060a08688031215612a2457600080fd5b8535612a2f816125fe565b94506020860135612a3f816125fe565b9350604086013592506060860135915060808601356001600160401b03811115612a6857600080fd5b6129ff888289016128f0565b634e487b7160e01b600052601160045260246000fd5b60008219821115612a9d57612a9d612a74565b500190565b6000816000190483118215151615612abc57612abc612a74565b500290565b600082612ade57634e487b7160e01b600052601260045260246000fd5b500490565b600060208284031215612af557600080fd5b81356111ca816125fe565b600060208284031215612b1257600080fd5b5051919050565b634e487b7160e01b600052603260045260246000fd5b600082821015612b4157612b41612a74565b500390565b600060018201612b5857612b58612a74565b5060010190565b600081518084526020808501945080840160005b83811015612b8f57815187529582019590820190600101612b73565b509495945050505050565b60005b83811015612bb5578181015183820152602001612b9d565b83811115612bc4576000848401525b50505050565b60008151808452612be2816020860160208601612b9a565b601f01601f19169290920160200192915050565b6001600160a01b0385168152608060208201819052600090612c1a90830186612b5f565b8281036040840152612c2c8186612b5f565b90508281036060840152612c408185612bca565b979650505050505050565b6001600160a01b038316815260406020820181905260009061211390830184612b5f565b60006020808385031215612c8257600080fd5b82516001600160401b03811115612c9857600080fd5b8301601f81018513612ca957600080fd5b8051612cb76128a682612862565b81815260059190911b82018301908381019087831115612cd657600080fd5b928401925b82841015612c4057835182529284019290840190612cdb565b600060208284031215612d0657600080fd5b815180151581146111ca57600080fd5b6001600160a01b0384168152606060208201819052600090612d3a90830185612b5f565b8281036040840152612d4c8185612b5f565b9695505050505050565b600081612d6557612d65612a74565b506000190190565b7f416363657373436f6e74726f6c3a206163636f756e7420000000000000000000815260008351612da5816017850160208801612b9a565b7001034b99036b4b9b9b4b733903937b6329607d1b6017918401918201528351612dd6816028840160208801612b9a565b01602801949350505050565b6020815260006111ca6020830184612bca565b600181815b80851115612e30578160001904821115612e1657612e16612a74565b80851615612e2357918102915b93841c9390800290612dfa565b509250929050565b600082612e4757506001610e6c565b81612e5457506000610e6c565b8160018114612e6a5760028114612e7457612e90565b6001915050610e6c565b60ff841115612e8557612e85612a74565b50506001821b610e6c565b5060208310610133831016604e8410600b8410161715612eb3575081810a610e6c565b612ebd8383612df5565b8060001904821115612ed157612ed1612a74565b029392505050565b60006111ca8383612e38565b634e487b7160e01b600052603160045260246000fdfea26469706673582212205e728330d1963c2cac9febb1efd9c4ea040418e97c9006baea359c369bcebe3564736f6c634300080d0033",
  "linkReferences": {},
  "deployedLinkReferences": {}
}