{
  "_format": "hh-sol-artifact-1",
  "contractName": "FIFOMarket",
  "sourceName": "contracts/FIFOMarket.sol",
  "abi": [
    {
      "anonymous": false,
      "inputs": [
        {
          "indexed": false,
          "internalType": "uint256",
          "name": "threshold",
          "type": "uint256"
        }
      ],
      "name": "PriorityRestrictedThresholdSet",
      "type": "event"
    },
    {
      "anonymous": false,
      "inputs": [
        {
          "indexed": true,
          "internalType": "bytes32",
          "name": "role",
          "type": "bytes32"
        },
        {
          "indexed": true,
          "internalType": "bytes32",
          "name": "previousAdminRole",
          "type": "bytes32"
        },
        {
          "indexed": true,
          "internalType": "bytes32",
          "name": "newAdminRole",
          "type": "bytes32"
        }
      ],
      "name": "RoleAdminChanged",
      "type": "event"
    },
    {
      "anonymous": false,
      "inputs": [
        {
          "indexed": true,
          "internalType": "bytes32",
          "name": "role",
          "type": "bytes32"
        },
        {
          "indexed": true,
          "internalType": "address",
          "name": "account",
          "type": "address"
        },
        {
          "indexed": true,
          "internalType": "address",
          "name": "sender",
          "type": "address"
        }
      ],
      "name": "RoleGranted",
      "type": "event"
    },
    {
      "anonymous": false,
      "inputs": [
        {
          "indexed": true,
          "internalType": "bytes32",
          "name": "role",
          "type": "bytes32"
        },
        {
          "indexed": true,
          "internalType": "address",
          "name": "account",
          "type": "address"
        },
        {
          "indexed": true,
          "internalType": "address",
          "name": "sender",
          "type": "address"
        }
      ],
      "name": "RoleRevoked",
      "type": "event"
    },
    {
      "inputs": [],
      "name": "ALLOWLIST_ROLE",
      "outputs": [
        {
          "internalType": "bytes32",
          "name": "",
          "type": "bytes32"
        }
      ],
      "stateMutability": "view",
      "type": "function"
    },
    {
      "inputs": [],
      "name": "DEFAULT_ADMIN_ROLE",
      "outputs": [
        {
          "internalType": "bytes32",
          "name": "",
          "type": "bytes32"
        }
      ],
      "stateMutability": "view",
      "type": "function"
    },
    {
      "inputs": [
        {
          "internalType": "bytes32",
          "name": "role",
          "type": "bytes32"
        }
      ],
      "name": "getRoleAdmin",
      "outputs": [
        {
          "internalType": "bytes32",
          "name": "",
          "type": "bytes32"
        }
      ],
      "stateMutability": "view",
      "type": "function"
    },
    {
      "inputs": [
        {
          "internalType": "bytes32",
          "name": "role",
          "type": "bytes32"
        },
        {
          "internalType": "uint256",
          "name": "index",
          "type": "uint256"
        }
      ],
      "name": "getRoleMember",
      "outputs": [
        {
          "internalType": "address",
          "name": "",
          "type": "address"
        }
      ],
      "stateMutability": "view",
      "type": "function"
    },
    {
      "inputs": [
        {
          "internalType": "bytes32",
          "name": "role",
          "type": "bytes32"
        }
      ],
      "name": "getRoleMemberCount",
      "outputs": [
        {
          "internalType": "uint256",
          "name": "",
          "type": "uint256"
        }
      ],
      "stateMutability": "view",
      "type": "function"
    },
    {
      "inputs": [
        {
          "internalType": "bytes32",
          "name": "role",
          "type": "bytes32"
        },
        {
          "internalType": "address",
          "name": "account",
          "type": "address"
        }
      ],
      "name": "grantRole",
      "outputs": [],
      "stateMutability": "nonpayable",
      "type": "function"
    },
    {
      "inputs": [
        {
          "internalType": "bytes32",
          "name": "role",
          "type": "bytes32"
        },
        {
          "internalType": "address",
          "name": "account",
          "type": "address"
        }
      ],
      "name": "hasRole",
      "outputs": [
        {
          "internalType": "bool",
          "name": "",
          "type": "bool"
        }
      ],
      "stateMutability": "view",
      "type": "function"
    },
    {
      "inputs": [
        {
          "internalType": "address",
          "name": "removalAddress",
          "type": "address"
        },
        {
          "internalType": "address",
          "name": "bridgedPolygonNoriAddress",
          "type": "address"
        },
        {
          "internalType": "address",
          "name": "certificateAddress",
          "type": "address"
        },
        {
          "internalType": "address",
          "name": "noriFeeWalletAddress",
          "type": "address"
        },
        {
          "internalType": "uint256",
          "name": "noriFee",
          "type": "uint256"
        }
      ],
      "name": "initialize",
      "outputs": [],
      "stateMutability": "nonpayable",
      "type": "function"
    },
    {
      "inputs": [
        {
          "internalType": "bool",
          "name": "includePriorityRestrictedSupply",
          "type": "bool"
        }
      ],
      "name": "nextRemovalForSale",
      "outputs": [
        {
          "internalType": "uint256",
          "name": "",
          "type": "uint256"
        }
      ],
      "stateMutability": "view",
      "type": "function"
    },
    {
      "inputs": [],
      "name": "numberOfNrtsInQueueComputed",
      "outputs": [
        {
          "internalType": "uint256",
          "name": "",
          "type": "uint256"
        }
      ],
      "stateMutability": "view",
      "type": "function"
    },
    {
      "inputs": [
        {
          "internalType": "address",
          "name": "",
          "type": "address"
        },
        {
          "internalType": "address",
          "name": "",
          "type": "address"
        },
        {
          "internalType": "uint256[]",
          "name": "ids",
          "type": "uint256[]"
        },
        {
          "internalType": "uint256[]",
          "name": "",
          "type": "uint256[]"
        },
        {
          "internalType": "bytes",
          "name": "",
          "type": "bytes"
        }
      ],
      "name": "onERC1155BatchReceived",
      "outputs": [
        {
          "internalType": "bytes4",
          "name": "",
          "type": "bytes4"
        }
      ],
      "stateMutability": "nonpayable",
      "type": "function"
    },
    {
      "inputs": [
        {
          "internalType": "address",
          "name": "",
          "type": "address"
        },
        {
          "internalType": "address",
          "name": "",
          "type": "address"
        },
        {
          "internalType": "uint256",
          "name": "",
          "type": "uint256"
        },
        {
          "internalType": "uint256",
          "name": "",
          "type": "uint256"
        },
        {
          "internalType": "bytes",
          "name": "",
          "type": "bytes"
        }
      ],
      "name": "onERC1155Received",
      "outputs": [
        {
          "internalType": "bytes4",
          "name": "",
          "type": "bytes4"
        }
      ],
      "stateMutability": "nonpayable",
      "type": "function"
    },
    {
      "inputs": [],
      "name": "priorityRestrictedThreshold",
      "outputs": [
        {
          "internalType": "uint256",
          "name": "",
          "type": "uint256"
        }
      ],
      "stateMutability": "view",
      "type": "function"
    },
    {
      "inputs": [
        {
          "internalType": "bytes32",
          "name": "role",
          "type": "bytes32"
        },
        {
          "internalType": "address",
          "name": "account",
          "type": "address"
        }
      ],
      "name": "renounceRole",
      "outputs": [],
      "stateMutability": "nonpayable",
      "type": "function"
    },
    {
      "inputs": [
        {
          "internalType": "bytes32",
          "name": "role",
          "type": "bytes32"
        },
        {
          "internalType": "address",
          "name": "account",
          "type": "address"
        }
      ],
      "name": "revokeRole",
      "outputs": [],
      "stateMutability": "nonpayable",
      "type": "function"
    },
    {
      "inputs": [
        {
          "internalType": "uint256",
          "name": "threshold",
          "type": "uint256"
        }
      ],
      "name": "setPriorityRestrictedThreshold",
      "outputs": [],
      "stateMutability": "nonpayable",
      "type": "function"
    },
    {
      "inputs": [
        {
          "internalType": "uint256",
          "name": "removalId",
          "type": "uint256"
        },
        {
          "internalType": "bool",
          "name": "isReserved",
          "type": "bool"
        }
      ],
      "name": "setRemovalAsReserved",
      "outputs": [],
      "stateMutability": "nonpayable",
      "type": "function"
    },
    {
      "inputs": [
        {
          "internalType": "bytes4",
          "name": "interfaceId",
          "type": "bytes4"
        }
      ],
      "name": "supportsInterface",
      "outputs": [
        {
          "internalType": "bool",
          "name": "",
          "type": "bool"
        }
      ],
      "stateMutability": "view",
      "type": "function"
    },
    {
      "inputs": [
        {
          "internalType": "address",
          "name": "",
          "type": "address"
        },
        {
          "internalType": "address",
          "name": "from",
          "type": "address"
        },
        {
          "internalType": "address",
          "name": "",
          "type": "address"
        },
        {
          "internalType": "uint256",
          "name": "amount",
          "type": "uint256"
        },
        {
          "internalType": "bytes",
          "name": "userData",
          "type": "bytes"
        },
        {
          "internalType": "bytes",
          "name": "",
          "type": "bytes"
        }
      ],
      "name": "tokensReceived",
      "outputs": [],
      "stateMutability": "nonpayable",
      "type": "function"
    },
    {
      "inputs": [],
      "name": "totalSupply",
      "outputs": [
        {
          "internalType": "uint256",
          "name": "",
          "type": "uint256"
        }
      ],
      "stateMutability": "view",
      "type": "function"
    },
    {
      "inputs": [],
      "name": "totalUnrestrictedSupply",
      "outputs": [
        {
          "internalType": "uint256",
          "name": "",
          "type": "uint256"
        }
      ],
      "stateMutability": "view",
      "type": "function"
    }
  ],
  "bytecode": "0x608060405234801561001057600080fd5b5061235c806100206000396000f3fe608060405234801561001057600080fd5b50600436106101365760003560e01c80637530b450116100b8578063bc197c811161007c578063bc197c8114610286578063ca15c873146102b2578063d547741f146102c5578063d797462f146102d8578063f23a6e61146102eb578063f7013ef61461030a57600080fd5b80637530b450146102305780639010d07c1461023857806391d1485414610263578063a0f4031714610276578063a217fddf1461027e57600080fd5b806318160ddd116100ff57806318160ddd146101b6578063248a9ca3146101c05780632f2ff15d146101e35780633030b532146101f657806336568abe1461021d57600080fd5b806223de291461013b57806301ffc9a7146101505780630b1bba2a1461017857806312de2b051461018b57806315d0a4cd146101a3575b600080fd5b61014e610149366004611b16565b61031d565b005b61016361015e366004611bc6565b610e37565b60405190151581526020015b60405180910390f35b61014e610186366004611bfe565b610e57565b6101956101375481565b60405190815260200161016f565b6101956101b1366004611c2e565b610e85565b6101956101385481565b6101956101ce366004611c4b565b60009081526065602052604090206001015490565b61014e6101f1366004611c64565b610ebb565b6101957f26a560d834a19637eccba4611bbc09fb32970bb627da0a70f14f83fdc9822cbc81565b61014e61022b366004611c64565b610ee6565b610195610f64565b61024b610246366004611c89565b610f91565b6040516001600160a01b03909116815260200161016f565b610163610271366004611c64565b610fb0565b610195610fdb565b610195600081565b610299610294366004611ddf565b611098565b6040516001600160e01b0319909116815260200161016f565b6101956102c0366004611c4b565b6111d5565b61014e6102d3366004611c64565b6111ec565b61014e6102e6366004611c4b565b611212565b6102996102f9366004611e8c565b63f23a6e6160e01b95945050505050565b61014e610318366004611ef4565b61125b565b6101385460000361036c5760405162461bcd60e51b81526020600482015260146024820152734d61726b65743a204f7574206f662073746f636b60601b60448201526064015b60405180910390fd5b6101375461013854116103fd576103a37f26a560d834a19637eccba4611bbc09fb32970bb627da0a70f14f83fdc9822cbc88610fb0565b6103fd5760405162461bcd60e51b815260206004820152602560248201527f4c6f7720737570706c7920616e64206275796572206e6f74206f6e20616c6c6f6044820152641ddb1a5cdd60da1b6064820152608401610363565b600061013654606461040f9190611f6e565b61041a876064611f86565b6104249190611fa5565b905080600061043586880188611fc7565b90506101345461013354036104885760405162461bcd60e51b81526020600482015260196024820152784d61726b65743a204e6f7420656e6f75676820737570706c7960381b6044820152606401610363565b6001600160a01b0381166104ea5760405162461bcd60e51b8152602060048201526024808201527f4d61726b65743a2043616e6e6f74206d696e7420746f207468652030206164646044820152637265737360e01b6064820152608401610363565b610130546001600160a01b0316331461056b5760405162461bcd60e51b815260206004820152603960248201527f4d61726b65743a205468697320636f6e74726163742063616e206f6e6c79207260448201527f6563656976652042726964676564506f6c79676f6e4e4f5249000000000000006064820152608401610363565b600061057561147f565b6001600160401b0381111561058c5761058c611cab565b6040519080825280602002602001820160405280156105b5578160200160208202803683370190505b50905060006105c261147f565b6001600160401b038111156105d9576105d9611cab565b604051908082528060200260200182016040528015610602578160200160208202803683370190505b509050600061060f61147f565b6001600160401b0381111561062657610626611cab565b60405190808252806020026020018201604052801561064f578160200160208202803683370190505b50905060008060006101335490505b610134548110156109005761012e5460008281526101316020526040808220549051627eeac760e11b8152306004820152602481019190915290916001600160a01b03169062fdd58e90604401602060405180830381865afa1580156106c8573d6000803e3d6000fd5b505050506040513d601f19601f820116820180604052508101906106ec9190611fe4565b60008381526101316020908152604080832054835261013290915290205490915060ff1615801561071d5750600081115b156108df576000828152610131602052604081205461073b90611493565b9050818a10156107d05760008381526101316020526040902054885189908590811061076957610769611ffd565b6020026020010181815250508987848151811061078857610788611ffd565b602002602001018181525050808684815181106107a7576107a7611ffd565b60200260200101906001600160a01b031690816001600160a01b031681525050600099506108bd565b6001610134546107e09190612013565b831480156107ed5750818a115b156108365760405162461bcd60e51b81526020600482015260196024820152784d61726b65743a204e6f7420656e6f75676820737570706c7960381b6044820152606401610363565b60008381526101316020526040902054885189908590811061085a5761085a611ffd565b6020026020010181815250508187848151811061087957610879611ffd565b6020026020010181815250508086848151811061089857610898611ffd565b6001600160a01b03909216602092830291909101909101526108ba828b612013565b99505b846108c78161202a565b955050896000036108d9575050610900565b506108ed565b826108e98161202a565b9350505b50806108f88161202a565b91505061065e565b506000826001600160401b0381111561091b5761091b611cab565b604051908082528060200260200182016040528015610944578160200160208202803683370190505b5090506000836001600160401b0381111561096157610961611cab565b60405190808252806020026020018201604052801561098a578160200160208202803683370190505b50610133549091506000905b8486610133546109a69190611f6e565b6109b09190611f6e565b811015610a925760008181526101316020908152604080832054835261013290915290205460ff161580156109fe575060008882815181106109f4576109f4611ffd565b6020026020010151115b15610a8057888181518110610a1557610a15611ffd565b6020026020010151848381518110610a2f57610a2f611ffd565b602002602001018181525050878181518110610a4d57610a4d611ffd565b6020026020010151838381518110610a6757610a67611ffd565b602090810291909101015281610a7c8161202a565b9250505b80610a8a8161202a565b915050610996565b5060008b604051602001610aa891815260200190565b60408051601f198184030181529082905261012f54630fbfeffd60e11b83529092506001600160a01b031690631f7fdffa90610aee908d908890889087906004016120da565b600060405180830381600087803b158015610b0857600080fd5b505af1158015610b1c573d6000803e3d6000fd5b5050610133546000925090505b868861013354610b399190611f6e565b610b439190611f6e565b811015610db85760008181526101316020908152604080832054835261013290915290205460ff16610d975781158015610ba157506001878961013354610b8a9190611f6e565b610b949190611f6e565b610b9e9190612013565b81105b15610bbd576101338054906000610bb78361202a565b91905055505b60008a8281518110610bd157610bd1611ffd565b60200260200101511115610d9257848181518110610bf157610bf1611ffd565b60200260200101516101386000828254610c0b9190612013565b925050819055506000610136546064878481518110610c2c57610c2c611ffd565b6020026020010151610c3e9190611fa5565b610c489190611f86565b90506000868381518110610c5e57610c5e611ffd565b6020908102919091010151610130546101355460405163a9059cbb60e01b81526001600160a01b03918216600482015260248101869052929350169063a9059cbb906044016020604051808303816000875af1158015610cc2573d6000803e3d6000fd5b505050506040513d601f19601f82011682018060405250810190610ce69190612124565b50610130548b516001600160a01b039091169063a9059cbb908d9086908110610d1157610d11611ffd565b6020026020010151836040518363ffffffff1660e01b8152600401610d4b9291906001600160a01b03929092168252602082015260400190565b6020604051808303816000875af1158015610d6a573d6000803e3d6000fd5b505050506040513d601f19601f82011682018060405250810190610d8e9190612124565b5050505b610da6565b811515600003610da657600191505b80610db08161202a565b915050610b29565b5061012e54604051631ac8311560e21b81526001600160a01b0390911690636b20c45490610dee90309089908990600401612141565b600060405180830381600087803b158015610e0857600080fd5b505af1158015610e1c573d6000803e3d6000fd5b50505050505050505050505050505050505050505050505050565b6000610e42826114a2565b80610e515750610e51826114c7565b92915050565b6000610e6381336114ec565b5060009182526101326020526040909120805460ff1916911515919091179055565b610133546000908152610131602052604081205482158015610ead5750610137546101385411155b15610e515750600092915050565b600082815260656020526040902060010154610ed781336114ec565b610ee18383611550565b505050565b6001600160a01b0381163314610f565760405162461bcd60e51b815260206004820152602f60248201527f416363657373436f6e74726f6c3a2063616e206f6e6c792072656e6f756e636560448201526e103937b632b9903337b91039b2b63360891b6064820152608401610363565b610f608282611572565b5050565b600061013754610138541015610f7a5750600090565b6101375461013854610f8c9190612013565b905090565b6000828152609760205260408120610fa99083611594565b9392505050565b60009182526065602090815260408084206001600160a01b0393909316845291905290205460ff1690565b6101335460009081905b610134548110156110925761012e546000828152610131602052604090819020549051627eeac760e11b815230600482015260248101919091526001600160a01b039091169062fdd58e90604401602060405180830381865afa158015611050573d6000803e3d6000fd5b505050506040513d601f19601f820116820180604052508101906110749190611fe4565b61107e9083611f6e565b91508061108a8161202a565b915050610fe5565b50919050565b6000805b84518110156111c25761012e5485516000916001600160a01b03169062fdd58e9030908990869081106110d1576110d1611ffd565b60200260200101516040518363ffffffff1660e01b815260040161110a9291906001600160a01b03929092168252602082015260400190565b602060405180830381865afa158015611127573d6000803e3d6000fd5b505050506040513d601f19601f8201168201806040525081019061114b9190611fe4565b90508061013860008282546111609190611f6e565b9250508190555085828151811061117957611179611ffd565b6020908102919091018101516101348054600090815261013190935260408320919091558054916111a98361202a565b91905055505080806111ba9061202a565b91505061109c565b5063bc197c8160e01b9695505050505050565b6000818152609760205260408120610e51906115a0565b60008281526065602052604090206001015461120881336114ec565b610ee18383611572565b600061121e81336114ec565b6101378290556040518281527f7ab6aa6547859e9ca74d567d44fefa0d63272ac019f4ebf9333032a62ea06fa59060200160405180910390a15050565b600054610100900460ff166112765760005460ff161561127a565b303b155b6112dd5760405162461bcd60e51b815260206004820152602e60248201527f496e697469616c697a61626c653a20636f6e747261637420697320616c72656160448201526d191e481a5b9a5d1a585b1a5e995960921b6064820152608401610363565b600054610100900460ff161580156112ff576000805461ffff19166101011790555b6113076115aa565b61130f6115aa565b6113176115aa565b61131f6115aa565b6113276115aa565b61012e80546001600160a01b03199081166001600160a01b03898116919091179092556101308054821688841617905561012f80548216878416179055610135805482169286169290921790915561013683905561012d8054731820a4b7618bde71dce8cdc73aab6c95905fad249216821790556040516329965a1d60e01b815230600482018190527fb281fc8c12954d22544db45de3159a39272895b169a852b314f9cc762e44c53b602483015260448201526329965a1d90606401600060405180830381600087803b1580156113fe57600080fd5b505af1158015611412573d6000803e3d6000fd5b5050600061013381905561013481905561013781905561013881905561143b9250905033611550565b6114657f26a560d834a19637eccba4611bbc09fb32970bb627da0a70f14f83fdc9822cbc33611550565b8015611477576000805461ff00191690555b505050505050565b60006101335461013454610f8c9190612013565b6000610e518260146004611617565b60006001600160e01b03198216635a05180f60e01b1480610e515750610e5182611663565b60006001600160e01b03198216630271189760e51b1480610e515750610e51826114a2565b6114f68282610fb0565b610f605761150e816001600160a01b03166014611698565b611519836020611698565b60405160200161152a929190612181565b60408051601f198184030181529082905262461bcd60e51b8252610363916004016121f6565b61155a8282611833565b6000828152609760205260409020610ee190826118b9565b61157c82826118ce565b6000828152609760205260409020610ee19082611935565b6000610fa9838361194a565b6000610e51825490565b600054610100900460ff166116155760405162461bcd60e51b815260206004820152602b60248201527f496e697469616c697a61626c653a20636f6e7472616374206973206e6f74206960448201526a6e697469616c697a696e6760a81b6064820152608401610363565b565b600080611625600884611f86565b6001611632600887611f86565b61163d9060026122ed565b6116479190612013565b901b9050848116611659600885611f86565b1c95945050505050565b60006001600160e01b03198216637965db0b60e01b1480610e5157506301ffc9a760e01b6001600160e01b0319831614610e51565b606060006116a7836002611f86565b6116b2906002611f6e565b6001600160401b038111156116c9576116c9611cab565b6040519080825280601f01601f1916602001820160405280156116f3576020820181803683370190505b509050600360fc1b8160008151811061170e5761170e611ffd565b60200101906001600160f81b031916908160001a905350600f60fb1b8160018151811061173d5761173d611ffd565b60200101906001600160f81b031916908160001a9053506000611761846002611f86565b61176c906001611f6e565b90505b60018111156117e4576f181899199a1a9b1b9c1cb0b131b232b360811b85600f16601081106117a0576117a0611ffd565b1a60f81b8282815181106117b6576117b6611ffd565b60200101906001600160f81b031916908160001a90535060049490941c936117dd816122f9565b905061176f565b508315610fa95760405162461bcd60e51b815260206004820181905260248201527f537472696e67733a20686578206c656e67746820696e73756666696369656e746044820152606401610363565b61183d8282610fb0565b610f605760008281526065602090815260408083206001600160a01b03851684529091529020805460ff191660011790556118753390565b6001600160a01b0316816001600160a01b0316837f2f8788117e7eff1d82e926ec794901d17c78024a50270940304540a733656f0d60405160405180910390a45050565b6000610fa9836001600160a01b038416611974565b6118d88282610fb0565b15610f605760008281526065602090815260408083206001600160a01b0385168085529252808320805460ff1916905551339285917ff6391f5c32d9c69d2a47ea670b442974b53935d1edc7fd64eb21e047a839171b9190a45050565b6000610fa9836001600160a01b0384166119c3565b600082600001828154811061196157611961611ffd565b9060005260206000200154905092915050565b60008181526001830160205260408120546119bb57508154600181810184556000848152602080822090930184905584548482528286019093526040902091909155610e51565b506000610e51565b60008181526001830160205260408120548015611aac5760006119e7600183612013565b85549091506000906119fb90600190612013565b9050818114611a60576000866000018281548110611a1b57611a1b611ffd565b9060005260206000200154905080876000018481548110611a3e57611a3e611ffd565b6000918252602080832090910192909255918252600188019052604090208390555b8554869080611a7157611a71612310565b600190038181906000526020600020016000905590558560010160008681526020019081526020016000206000905560019350505050610e51565b6000915050610e51565b6001600160a01b0381168114611acb57600080fd5b50565b60008083601f840112611ae057600080fd5b5081356001600160401b03811115611af757600080fd5b602083019150836020828501011115611b0f57600080fd5b9250929050565b60008060008060008060008060c0898b031215611b3257600080fd5b8835611b3d81611ab6565b97506020890135611b4d81611ab6565b96506040890135611b5d81611ab6565b95506060890135945060808901356001600160401b0380821115611b8057600080fd5b611b8c8c838d01611ace565b909650945060a08b0135915080821115611ba557600080fd5b50611bb28b828c01611ace565b999c989b5096995094979396929594505050565b600060208284031215611bd857600080fd5b81356001600160e01b031981168114610fa957600080fd5b8015158114611acb57600080fd5b60008060408385031215611c1157600080fd5b823591506020830135611c2381611bf0565b809150509250929050565b600060208284031215611c4057600080fd5b8135610fa981611bf0565b600060208284031215611c5d57600080fd5b5035919050565b60008060408385031215611c7757600080fd5b823591506020830135611c2381611ab6565b60008060408385031215611c9c57600080fd5b50508035926020909101359150565b634e487b7160e01b600052604160045260246000fd5b604051601f8201601f191681016001600160401b0381118282101715611ce957611ce9611cab565b604052919050565b600082601f830112611d0257600080fd5b813560206001600160401b03821115611d1d57611d1d611cab565b8160051b611d2c828201611cc1565b9283528481018201928281019087851115611d4657600080fd5b83870192505b84831015611d6557823582529183019190830190611d4c565b979650505050505050565b600082601f830112611d8157600080fd5b81356001600160401b03811115611d9a57611d9a611cab565b611dad601f8201601f1916602001611cc1565b818152846020838601011115611dc257600080fd5b816020850160208301376000918101602001919091529392505050565b600080600080600060a08688031215611df757600080fd5b8535611e0281611ab6565b94506020860135611e1281611ab6565b935060408601356001600160401b0380821115611e2e57600080fd5b611e3a89838a01611cf1565b94506060880135915080821115611e5057600080fd5b611e5c89838a01611cf1565b93506080880135915080821115611e7257600080fd5b50611e7f88828901611d70565b9150509295509295909350565b600080600080600060a08688031215611ea457600080fd5b8535611eaf81611ab6565b94506020860135611ebf81611ab6565b9350604086013592506060860135915060808601356001600160401b03811115611ee857600080fd5b611e7f88828901611d70565b600080600080600060a08688031215611f0c57600080fd5b8535611f1781611ab6565b94506020860135611f2781611ab6565b93506040860135611f3781611ab6565b92506060860135611f4781611ab6565b949793965091946080013592915050565b634e487b7160e01b600052601160045260246000fd5b60008219821115611f8157611f81611f58565b500190565b6000816000190483118215151615611fa057611fa0611f58565b500290565b600082611fc257634e487b7160e01b600052601260045260246000fd5b500490565b600060208284031215611fd957600080fd5b8135610fa981611ab6565b600060208284031215611ff657600080fd5b5051919050565b634e487b7160e01b600052603260045260246000fd5b60008282101561202557612025611f58565b500390565b60006001820161203c5761203c611f58565b5060010190565b600081518084526020808501945080840160005b8381101561207357815187529582019590820190600101612057565b509495945050505050565b60005b83811015612099578181015183820152602001612081565b838111156120a8576000848401525b50505050565b600081518084526120c681602086016020860161207e565b601f01601f19169290920160200192915050565b6001600160a01b03851681526080602082018190526000906120fe90830186612043565b82810360408401526121108186612043565b90508281036060840152611d6581856120ae565b60006020828403121561213657600080fd5b8151610fa981611bf0565b6001600160a01b038416815260606020820181905260009061216590830185612043565b82810360408401526121778185612043565b9695505050505050565b7f416363657373436f6e74726f6c3a206163636f756e74200000000000000000008152600083516121b981601785016020880161207e565b7001034b99036b4b9b9b4b733903937b6329607d1b60179184019182015283516121ea81602884016020880161207e565b01602801949350505050565b602081526000610fa960208301846120ae565b600181815b8085111561224457816000190482111561222a5761222a611f58565b8085161561223757918102915b93841c939080029061220e565b509250929050565b60008261225b57506001610e51565b8161226857506000610e51565b816001811461227e5760028114612288576122a4565b6001915050610e51565b60ff84111561229957612299611f58565b50506001821b610e51565b5060208310610133831016604e8410600b84101617156122c7575081810a610e51565b6122d18383612209565b80600019048211156122e5576122e5611f58565b029392505050565b6000610fa9838361224c565b60008161230857612308611f58565b506000190190565b634e487b7160e01b600052603160045260246000fdfea26469706673582212200e7c71403221c71516712a2f517c84c4c0bf498aea1cd6a460c87f712001282064736f6c634300080d0033",
  "linkReferences": {},
  "deployedLinkReferences": {}
}