{
  "_format": "hh-sol-artifact-1",
  "contractName": "FIFOMarket",
  "sourceName": "contracts/FIFOMarket.sol",
  "abi": [
    {
      "anonymous": false,
      "inputs": [
        {
          "indexed": true,
          "internalType": "bytes32",
          "name": "role",
          "type": "bytes32"
        },
        {
          "indexed": true,
          "internalType": "bytes32",
          "name": "previousAdminRole",
          "type": "bytes32"
        },
        {
          "indexed": true,
          "internalType": "bytes32",
          "name": "newAdminRole",
          "type": "bytes32"
        }
      ],
      "name": "RoleAdminChanged",
      "type": "event"
    },
    {
      "anonymous": false,
      "inputs": [
        {
          "indexed": true,
          "internalType": "bytes32",
          "name": "role",
          "type": "bytes32"
        },
        {
          "indexed": true,
          "internalType": "address",
          "name": "account",
          "type": "address"
        },
        {
          "indexed": true,
          "internalType": "address",
          "name": "sender",
          "type": "address"
        }
      ],
      "name": "RoleGranted",
      "type": "event"
    },
    {
      "anonymous": false,
      "inputs": [
        {
          "indexed": true,
          "internalType": "bytes32",
          "name": "role",
          "type": "bytes32"
        },
        {
          "indexed": true,
          "internalType": "address",
          "name": "account",
          "type": "address"
        },
        {
          "indexed": true,
          "internalType": "address",
          "name": "sender",
          "type": "address"
        }
      ],
      "name": "RoleRevoked",
      "type": "event"
    },
    {
      "inputs": [],
      "name": "DEFAULT_ADMIN_ROLE",
      "outputs": [
        {
          "internalType": "bytes32",
          "name": "",
          "type": "bytes32"
        }
      ],
      "stateMutability": "view",
      "type": "function"
    },
    {
      "inputs": [
        {
          "internalType": "bytes32",
          "name": "role",
          "type": "bytes32"
        }
      ],
      "name": "getRoleAdmin",
      "outputs": [
        {
          "internalType": "bytes32",
          "name": "",
          "type": "bytes32"
        }
      ],
      "stateMutability": "view",
      "type": "function"
    },
    {
      "inputs": [
        {
          "internalType": "bytes32",
          "name": "role",
          "type": "bytes32"
        },
        {
          "internalType": "uint256",
          "name": "index",
          "type": "uint256"
        }
      ],
      "name": "getRoleMember",
      "outputs": [
        {
          "internalType": "address",
          "name": "",
          "type": "address"
        }
      ],
      "stateMutability": "view",
      "type": "function"
    },
    {
      "inputs": [
        {
          "internalType": "bytes32",
          "name": "role",
          "type": "bytes32"
        }
      ],
      "name": "getRoleMemberCount",
      "outputs": [
        {
          "internalType": "uint256",
          "name": "",
          "type": "uint256"
        }
      ],
      "stateMutability": "view",
      "type": "function"
    },
    {
      "inputs": [
        {
          "internalType": "bytes32",
          "name": "role",
          "type": "bytes32"
        },
        {
          "internalType": "address",
          "name": "account",
          "type": "address"
        }
      ],
      "name": "grantRole",
      "outputs": [],
      "stateMutability": "nonpayable",
      "type": "function"
    },
    {
      "inputs": [
        {
          "internalType": "bytes32",
          "name": "role",
          "type": "bytes32"
        },
        {
          "internalType": "address",
          "name": "account",
          "type": "address"
        }
      ],
      "name": "hasRole",
      "outputs": [
        {
          "internalType": "bool",
          "name": "",
          "type": "bool"
        }
      ],
      "stateMutability": "view",
      "type": "function"
    },
    {
      "inputs": [
        {
          "internalType": "address",
          "name": "removalAddress",
          "type": "address"
        },
        {
          "internalType": "address",
          "name": "noriAddress",
          "type": "address"
        },
        {
          "internalType": "address",
          "name": "certificateAddress",
          "type": "address"
        },
        {
          "internalType": "address",
          "name": "noriFeeWalletAddress",
          "type": "address"
        },
        {
          "internalType": "uint256",
          "name": "noriFee",
          "type": "uint256"
        }
      ],
      "name": "initialize",
      "outputs": [],
      "stateMutability": "nonpayable",
      "type": "function"
    },
    {
      "inputs": [],
      "name": "numberOfNrtsInQueue",
      "outputs": [
        {
          "internalType": "uint256",
          "name": "",
          "type": "uint256"
        }
      ],
      "stateMutability": "view",
      "type": "function"
    },
    {
      "inputs": [
        {
          "internalType": "address",
          "name": "",
          "type": "address"
        },
        {
          "internalType": "address",
          "name": "",
          "type": "address"
        },
        {
          "internalType": "uint256[]",
          "name": "ids",
          "type": "uint256[]"
        },
        {
          "internalType": "uint256[]",
          "name": "",
          "type": "uint256[]"
        },
        {
          "internalType": "bytes",
          "name": "",
          "type": "bytes"
        }
      ],
      "name": "onERC1155BatchReceived",
      "outputs": [
        {
          "internalType": "bytes4",
          "name": "",
          "type": "bytes4"
        }
      ],
      "stateMutability": "nonpayable",
      "type": "function"
    },
    {
      "inputs": [
        {
          "internalType": "address",
          "name": "",
          "type": "address"
        },
        {
          "internalType": "address",
          "name": "",
          "type": "address"
        },
        {
          "internalType": "uint256",
          "name": "",
          "type": "uint256"
        },
        {
          "internalType": "uint256",
          "name": "",
          "type": "uint256"
        },
        {
          "internalType": "bytes",
          "name": "",
          "type": "bytes"
        }
      ],
      "name": "onERC1155Received",
      "outputs": [
        {
          "internalType": "bytes4",
          "name": "",
          "type": "bytes4"
        }
      ],
      "stateMutability": "nonpayable",
      "type": "function"
    },
    {
      "inputs": [
        {
          "internalType": "bytes32",
          "name": "role",
          "type": "bytes32"
        },
        {
          "internalType": "address",
          "name": "account",
          "type": "address"
        }
      ],
      "name": "renounceRole",
      "outputs": [],
      "stateMutability": "nonpayable",
      "type": "function"
    },
    {
      "inputs": [
        {
          "internalType": "bytes32",
          "name": "role",
          "type": "bytes32"
        },
        {
          "internalType": "address",
          "name": "account",
          "type": "address"
        }
      ],
      "name": "revokeRole",
      "outputs": [],
      "stateMutability": "nonpayable",
      "type": "function"
    },
    {
      "inputs": [
        {
          "internalType": "bytes4",
          "name": "interfaceId",
          "type": "bytes4"
        }
      ],
      "name": "supportsInterface",
      "outputs": [
        {
          "internalType": "bool",
          "name": "",
          "type": "bool"
        }
      ],
      "stateMutability": "view",
      "type": "function"
    },
    {
      "inputs": [
        {
          "internalType": "address",
          "name": "",
          "type": "address"
        },
        {
          "internalType": "address",
          "name": "",
          "type": "address"
        },
        {
          "internalType": "address",
          "name": "",
          "type": "address"
        },
        {
          "internalType": "uint256",
          "name": "amount",
          "type": "uint256"
        },
        {
          "internalType": "bytes",
          "name": "userData",
          "type": "bytes"
        },
        {
          "internalType": "bytes",
          "name": "",
          "type": "bytes"
        }
      ],
      "name": "tokensReceived",
      "outputs": [],
      "stateMutability": "nonpayable",
      "type": "function"
    }
  ],
  "bytecode": "0x608060405234801561001057600080fd5b50611d33806100206000396000f3fe608060405234801561001057600080fd5b50600436106100e95760003560e01c8063a217fddf1161008c578063d547741f11610066578063d547741f14610207578063f23a6e611461021a578063f7013ef614610239578063fa8827611461024c57600080fd5b8063a217fddf146101c0578063bc197c81146101c8578063ca15c873146101f457600080fd5b80632f2ff15d116100c85780632f2ff15d1461015c57806336568abe1461016f5780639010d07c1461018257806391d14854146101ad57600080fd5b806223de29146100ee57806301ffc9a714610103578063248a9ca31461012b575b600080fd5b6101016100fc3660046115ba565b610254565b005b61011661011136600461166b565b610b0f565b60405190151581526020015b60405180910390f35b61014e610139366004611695565b60009081526065602052604090206001015490565b604051908152602001610122565b61010161016a3660046116ae565b610b2f565b61010161017d3660046116ae565b610b5a565b6101956101903660046116de565b610bd8565b6040516001600160a01b039091168152602001610122565b6101166101bb3660046116ae565b610bf7565b61014e600081565b6101db6101d6366004611837565b610c22565b6040516001600160e01b03199091168152602001610122565b61014e610202366004611695565b610c9c565b6101016102153660046116ae565b610cb3565b6101db6102283660046118e5565b63f23a6e6160e01b95945050505050565b61010161024736600461194e565b610cd9565b61014e610eba565b600061013554606461026691906119c8565b6102718760646119e0565b61027b91906119ff565b905080600061028c86880188611a21565b905061029c565b60405180910390fd5b6001600160a01b0381166103035760405162461bcd60e51b815260206004820152602860248201527f4649464f4d61726b65743a2043616e6e6f74206d696e7420746f207468652030604482015267206164647265737360c01b6064820152608401610293565b610130546001600160a01b031633146103765760405162461bcd60e51b815260206004820152602f60248201527f4649464f4d61726b65743a205468697320636f6e74726163742063616e206f6e60448201526e6c792072656365697665204e4f524960881b6064820152608401610293565b6000610380610f77565b67ffffffffffffffff81111561039857610398611700565b6040519080825280602002602001820160405280156103c1578160200160208202803683370190505b50905060006103ce610f77565b67ffffffffffffffff8111156103e6576103e6611700565b60405190808252806020026020018201604052801561040f578160200160208202803683370190505b509050600061041c610f77565b67ffffffffffffffff81111561043457610434611700565b60405190808252806020026020018201604052801561045d578160200160208202803683370190505b50610132549091505b6101335481101561071e5761012e5460008281526101316020526040808220549051627eeac760e11b8152306004820152602481019190915290916001600160a01b03169062fdd58e90604401602060405180830381865afa1580156104d0573d6000803e3d6000fd5b505050506040513d601f19601f820116820180604052508101906104f49190611a3e565b61012e546000848152610131602052604080822054905163737fa58960e01b81526004810191909152929350916001600160a01b039091169063737fa589906024016040805180830381865afa158015610552573d6000803e3d6000fd5b505050506040513d601f19601f820116820180604052508101906105769190611a57565b5190508188101561060c576000838152610131602052604090205486518790859081106105a5576105a5611abd565b602002602001018181525050878584815181106105c4576105c4611abd565b602002602001018181525050808484815181106105e3576105e3611abd565b60200260200101906001600160a01b031690816001600160a01b031681525050600097506106fd565b60016101335461061c9190611ad3565b8314801561062957508188115b156106765760405162461bcd60e51b815260206004820152601d60248201527f4649464f4d61726b65743a204e6f7420656e6f75676820737570706c790000006044820152606401610293565b60008381526101316020526040902054865187908590811061069a5761069a611abd565b602002602001018181525050818584815181106106b9576106b9611abd565b602002602001018181525050808484815181106106d8576106d8611abd565b6001600160a01b03909216602092830291909101909101526106fa8289611ad3565b97505b8761070957505061071e565b5050808061071690611aea565b915050610466565b5060008260008151811061073457610734611abd565b6020026020010151116107895760405162461bcd60e51b815260206004820152601d60248201527f4649464f4d61726b65743a204e6f7420656e6f75676820737570706c790000006044820152606401610293565b60008660405160200161079e91815260200190565b60408051601f198184030181529082905261012f54630fbfeffd60e11b83529092506001600160a01b031690631f7fdffa906107e4908890889088908790600401611b9c565b600060405180830381600087803b1580156107fe57600080fd5b505af1158015610812573d6000803e3d6000fd5b5050505060005b8451811015610a965783818151811061083457610834611abd565b60200260200101516000141561084957610a96565b61012e546000828152610131602052604090819020549051627eeac760e11b815230600482015260248101919091526001600160a01b039091169062fdd58e90604401602060405180830381865afa1580156108a9573d6000803e3d6000fd5b505050506040513d601f19601f820116820180604052508101906108cd9190611a3e565b8482815181106108df576108df611abd565b602002602001015114156109045761013280549060006108fe83611aea565b91905055505b600061013554606486848151811061091e5761091e611abd565b602002602001015161093091906119ff565b61093a91906119e0565b9050600085838151811061095057610950611abd565b6020908102919091010151610130546101345460405163a9059cbb60e01b81526001600160a01b03918216600482015260248101869052929350169063a9059cbb906044016020604051808303816000875af11580156109b4573d6000803e3d6000fd5b505050506040513d601f19601f820116820180604052508101906109d89190611be6565b506101305485516001600160a01b039091169063a9059cbb90879086908110610a0357610a03611abd565b6020026020010151836040518363ffffffff1660e01b8152600401610a3d9291906001600160a01b03929092168252602082015260400190565b6020604051808303816000875af1158015610a5c573d6000803e3d6000fd5b505050506040513d601f19601f82011682018060405250810190610a809190611be6565b5050508080610a8e90611aea565b915050610819565b5061012e54604051631ac8311560e21b81526001600160a01b0390911690636b20c45490610acc90309088908890600401611c08565b600060405180830381600087803b158015610ae657600080fd5b505af1158015610afa573d6000803e3d6000fd5b50505050505050505050505050505050505050565b6000610b1a82610f90565b80610b295750610b2982610fb5565b92915050565b600082815260656020526040902060010154610b4b8133610fda565b610b55838361103e565b505050565b6001600160a01b0381163314610bca5760405162461bcd60e51b815260206004820152602f60248201527f416363657373436f6e74726f6c3a2063616e206f6e6c792072656e6f756e636560448201526e103937b632b9903337b91039b2b63360891b6064820152608401610293565b610bd48282611060565b5050565b6000828152609760205260408120610bf09083611082565b9392505050565b60009182526065602090815260408084206001600160a01b0393909316845291905290205460ff1690565b6000805b8451811015610c8957848181518110610c4157610c41611abd565b602090810291909101810151610133805460009081526101319093526040832091909155805491610c7183611aea565b91905055508080610c8190611aea565b915050610c26565b5063bc197c8160e01b9695505050505050565b6000818152609760205260408120610b299061108e565b600082815260656020526040902060010154610ccf8133610fda565b610b558383611060565b600054610100900460ff16610cf45760005460ff1615610cf8565b303b155b610d5b5760405162461bcd60e51b815260206004820152602e60248201527f496e697469616c697a61626c653a20636f6e747261637420697320616c72656160448201526d191e481a5b9a5d1a585b1a5e995960921b6064820152608401610293565b600054610100900460ff16158015610d7d576000805461ffff19166101011790555b610d85611098565b610d8d611098565b610d95611098565b610d9d611098565b610da5611098565b61012e80546001600160a01b03199081166001600160a01b03898116919091179092556101308054821688841617905561012f80548216878416179055610134805482169286169290921790915561013583905561012d8054731820a4b7618bde71dce8cdc73aab6c95905fad249216821790556040516329965a1d60e01b815230600482018190527fb281fc8c12954d22544db45de3159a39272895b169a852b314f9cc762e44c53b602483015260448201526329965a1d90606401600060405180830381600087803b158015610e7c57600080fd5b505af1158015610e90573d6000803e3d6000fd5b505060006101328190556101335550508015610eb2576000805461ff00191690555b505050505050565b6101325460009081905b61013354811015610f715761012e546000828152610131602052604090819020549051627eeac760e11b815230600482015260248101919091526001600160a01b039091169062fdd58e90604401602060405180830381865afa158015610f2f573d6000803e3d6000fd5b505050506040513d601f19601f82011682018060405250810190610f539190611a3e565b610f5d90836119c8565b915080610f6981611aea565b915050610ec4565b50919050565b60006101325461013354610f8b9190611ad3565b905090565b60006001600160e01b03198216635a05180f60e01b1480610b295750610b2982611105565b60006001600160e01b03198216630271189760e51b1480610b295750610b2982610f90565b610fe48282610bf7565b610bd457610ffc816001600160a01b0316601461113a565b61100783602061113a565b604051602001611018929190611c48565b60408051601f198184030181529082905262461bcd60e51b825261029391600401611cbd565b61104882826112d6565b6000828152609760205260409020610b55908261135c565b61106a8282611371565b6000828152609760205260409020610b5590826113d8565b6000610bf083836113ed565b6000610b29825490565b600054610100900460ff166111035760405162461bcd60e51b815260206004820152602b60248201527f496e697469616c697a61626c653a20636f6e7472616374206973206e6f74206960448201526a6e697469616c697a696e6760a81b6064820152608401610293565b565b60006001600160e01b03198216637965db0b60e01b1480610b2957506301ffc9a760e01b6001600160e01b0319831614610b29565b606060006111498360026119e0565b6111549060026119c8565b67ffffffffffffffff81111561116c5761116c611700565b6040519080825280601f01601f191660200182016040528015611196576020820181803683370190505b509050600360fc1b816000815181106111b1576111b1611abd565b60200101906001600160f81b031916908160001a905350600f60fb1b816001815181106111e0576111e0611abd565b60200101906001600160f81b031916908160001a90535060006112048460026119e0565b61120f9060016119c8565b90505b6001811115611287576f181899199a1a9b1b9c1cb0b131b232b360811b85600f166010811061124357611243611abd565b1a60f81b82828151811061125957611259611abd565b60200101906001600160f81b031916908160001a90535060049490941c9361128081611cd0565b9050611212565b508315610bf05760405162461bcd60e51b815260206004820181905260248201527f537472696e67733a20686578206c656e67746820696e73756666696369656e746044820152606401610293565b6112e08282610bf7565b610bd45760008281526065602090815260408083206001600160a01b03851684529091529020805460ff191660011790556113183390565b6001600160a01b0316816001600160a01b0316837f2f8788117e7eff1d82e926ec794901d17c78024a50270940304540a733656f0d60405160405180910390a45050565b6000610bf0836001600160a01b038416611417565b61137b8282610bf7565b15610bd45760008281526065602090815260408083206001600160a01b0385168085529252808320805460ff1916905551339285917ff6391f5c32d9c69d2a47ea670b442974b53935d1edc7fd64eb21e047a839171b9190a45050565b6000610bf0836001600160a01b038416611466565b600082600001828154811061140457611404611abd565b9060005260206000200154905092915050565b600081815260018301602052604081205461145e57508154600181810184556000848152602080822090930184905584548482528286019093526040902091909155610b29565b506000610b29565b6000818152600183016020526040812054801561154f57600061148a600183611ad3565b855490915060009061149e90600190611ad3565b90508181146115035760008660000182815481106114be576114be611abd565b90600052602060002001549050808760000184815481106114e1576114e1611abd565b6000918252602080832090910192909255918252600188019052604090208390555b855486908061151457611514611ce7565b600190038181906000526020600020016000905590558560010160008681526020019081526020016000206000905560019350505050610b29565b6000915050610b29565b6001600160a01b038116811461156e57600080fd5b50565b60008083601f84011261158357600080fd5b50813567ffffffffffffffff81111561159b57600080fd5b6020830191508360208285010111156115b357600080fd5b9250929050565b60008060008060008060008060c0898b0312156115d657600080fd5b88356115e181611559565b975060208901356115f181611559565b9650604089013561160181611559565b955060608901359450608089013567ffffffffffffffff8082111561162557600080fd5b6116318c838d01611571565b909650945060a08b013591508082111561164a57600080fd5b506116578b828c01611571565b999c989b5096995094979396929594505050565b60006020828403121561167d57600080fd5b81356001600160e01b031981168114610bf057600080fd5b6000602082840312156116a757600080fd5b5035919050565b600080604083850312156116c157600080fd5b8235915060208301356116d381611559565b809150509250929050565b600080604083850312156116f157600080fd5b50508035926020909101359150565b634e487b7160e01b600052604160045260246000fd5b604051601f8201601f1916810167ffffffffffffffff8111828210171561173f5761173f611700565b604052919050565b600082601f83011261175857600080fd5b8135602067ffffffffffffffff82111561177457611774611700565b8160051b611783828201611716565b928352848101820192828101908785111561179d57600080fd5b83870192505b848310156117bc578235825291830191908301906117a3565b979650505050505050565b600082601f8301126117d857600080fd5b813567ffffffffffffffff8111156117f2576117f2611700565b611805601f8201601f1916602001611716565b81815284602083860101111561181a57600080fd5b816020850160208301376000918101602001919091529392505050565b600080600080600060a0868803121561184f57600080fd5b853561185a81611559565b9450602086013561186a81611559565b9350604086013567ffffffffffffffff8082111561188757600080fd5b61189389838a01611747565b945060608801359150808211156118a957600080fd5b6118b589838a01611747565b935060808801359150808211156118cb57600080fd5b506118d8888289016117c7565b9150509295509295909350565b600080600080600060a086880312156118fd57600080fd5b853561190881611559565b9450602086013561191881611559565b93506040860135925060608601359150608086013567ffffffffffffffff81111561194257600080fd5b6118d8888289016117c7565b600080600080600060a0868803121561196657600080fd5b853561197181611559565b9450602086013561198181611559565b9350604086013561199181611559565b925060608601356119a181611559565b949793965091946080013592915050565b634e487b7160e01b600052601160045260246000fd5b600082198211156119db576119db6119b2565b500190565b60008160001904831182151516156119fa576119fa6119b2565b500290565b600082611a1c57634e487b7160e01b600052601260045260246000fd5b500490565b600060208284031215611a3357600080fd5b8135610bf081611559565b600060208284031215611a5057600080fd5b5051919050565b600060408284031215611a6957600080fd5b6040516040810181811067ffffffffffffffff82111715611a8c57611a8c611700565b6040528251611a9a81611559565b8152602083015161ffff81168114611ab157600080fd5b60208201529392505050565b634e487b7160e01b600052603260045260246000fd5b600082821015611ae557611ae56119b2565b500390565b6000600019821415611afe57611afe6119b2565b5060010190565b600081518084526020808501945080840160005b83811015611b3557815187529582019590820190600101611b19565b509495945050505050565b60005b83811015611b5b578181015183820152602001611b43565b83811115611b6a576000848401525b50505050565b60008151808452611b88816020860160208601611b40565b601f01601f19169290920160200192915050565b6001600160a01b0385168152608060208201819052600090611bc090830186611b05565b8281036040840152611bd28186611b05565b905082810360608401526117bc8185611b70565b600060208284031215611bf857600080fd5b81518015158114610bf057600080fd5b6001600160a01b0384168152606060208201819052600090611c2c90830185611b05565b8281036040840152611c3e8185611b05565b9695505050505050565b7f416363657373436f6e74726f6c3a206163636f756e7420000000000000000000815260008351611c80816017850160208801611b40565b7001034b99036b4b9b9b4b733903937b6329607d1b6017918401918201528351611cb1816028840160208801611b40565b01602801949350505050565b602081526000610bf06020830184611b70565b600081611cdf57611cdf6119b2565b506000190190565b634e487b7160e01b600052603160045260246000fdfea2646970667358221220e544b60aaeae6a72a513cebb60fee02863a8f979fa0333150d104c84bc43b89464736f6c634300080a0033",
  "linkReferences": {},
  "deployedLinkReferences": {}
}