{
  "_format": "hh-sol-artifact-1",
  "contractName": "FIFOMarket",
  "sourceName": "contracts/FIFOMarket.sol",
  "abi": [
    {
      "anonymous": false,
      "inputs": [
        {
          "indexed": false,
          "internalType": "uint256",
          "name": "threshold",
          "type": "uint256"
        }
      ],
      "name": "PriorityRestrictedThresholdSet",
      "type": "event"
    },
    {
      "anonymous": false,
      "inputs": [
        {
          "indexed": true,
          "internalType": "bytes32",
          "name": "role",
          "type": "bytes32"
        },
        {
          "indexed": true,
          "internalType": "bytes32",
          "name": "previousAdminRole",
          "type": "bytes32"
        },
        {
          "indexed": true,
          "internalType": "bytes32",
          "name": "newAdminRole",
          "type": "bytes32"
        }
      ],
      "name": "RoleAdminChanged",
      "type": "event"
    },
    {
      "anonymous": false,
      "inputs": [
        {
          "indexed": true,
          "internalType": "bytes32",
          "name": "role",
          "type": "bytes32"
        },
        {
          "indexed": true,
          "internalType": "address",
          "name": "account",
          "type": "address"
        },
        {
          "indexed": true,
          "internalType": "address",
          "name": "sender",
          "type": "address"
        }
      ],
      "name": "RoleGranted",
      "type": "event"
    },
    {
      "anonymous": false,
      "inputs": [
        {
          "indexed": true,
          "internalType": "bytes32",
          "name": "role",
          "type": "bytes32"
        },
        {
          "indexed": true,
          "internalType": "address",
          "name": "account",
          "type": "address"
        },
        {
          "indexed": true,
          "internalType": "address",
          "name": "sender",
          "type": "address"
        }
      ],
      "name": "RoleRevoked",
      "type": "event"
    },
    {
      "inputs": [],
      "name": "ALLOWLIST_ROLE",
      "outputs": [
        {
          "internalType": "bytes32",
          "name": "",
          "type": "bytes32"
        }
      ],
      "stateMutability": "view",
      "type": "function"
    },
    {
      "inputs": [],
      "name": "DEFAULT_ADMIN_ROLE",
      "outputs": [
        {
          "internalType": "bytes32",
          "name": "",
          "type": "bytes32"
        }
      ],
      "stateMutability": "view",
      "type": "function"
    },
    {
      "inputs": [],
      "name": "activeSupplierCount",
      "outputs": [
        {
          "internalType": "uint256",
          "name": "",
          "type": "uint256"
        }
      ],
      "stateMutability": "view",
      "type": "function"
    },
    {
      "inputs": [
        {
          "internalType": "bytes32",
          "name": "role",
          "type": "bytes32"
        }
      ],
      "name": "getRoleAdmin",
      "outputs": [
        {
          "internalType": "bytes32",
          "name": "",
          "type": "bytes32"
        }
      ],
      "stateMutability": "view",
      "type": "function"
    },
    {
      "inputs": [
        {
          "internalType": "bytes32",
          "name": "role",
          "type": "bytes32"
        },
        {
          "internalType": "uint256",
          "name": "index",
          "type": "uint256"
        }
      ],
      "name": "getRoleMember",
      "outputs": [
        {
          "internalType": "address",
          "name": "",
          "type": "address"
        }
      ],
      "stateMutability": "view",
      "type": "function"
    },
    {
      "inputs": [
        {
          "internalType": "bytes32",
          "name": "role",
          "type": "bytes32"
        }
      ],
      "name": "getRoleMemberCount",
      "outputs": [
        {
          "internalType": "uint256",
          "name": "",
          "type": "uint256"
        }
      ],
      "stateMutability": "view",
      "type": "function"
    },
    {
      "inputs": [
        {
          "internalType": "bytes32",
          "name": "role",
          "type": "bytes32"
        },
        {
          "internalType": "address",
          "name": "account",
          "type": "address"
        }
      ],
      "name": "grantRole",
      "outputs": [],
      "stateMutability": "nonpayable",
      "type": "function"
    },
    {
      "inputs": [
        {
          "internalType": "bytes32",
          "name": "role",
          "type": "bytes32"
        },
        {
          "internalType": "address",
          "name": "account",
          "type": "address"
        }
      ],
      "name": "hasRole",
      "outputs": [
        {
          "internalType": "bool",
          "name": "",
          "type": "bool"
        }
      ],
      "stateMutability": "view",
      "type": "function"
    },
    {
      "inputs": [
        {
          "internalType": "address",
          "name": "removalAddress",
          "type": "address"
        },
        {
          "internalType": "address",
          "name": "bridgedPolygonNoriAddress",
          "type": "address"
        },
        {
          "internalType": "address",
          "name": "certificateAddress",
          "type": "address"
        },
        {
          "internalType": "address",
          "name": "noriFeeWalletAddress",
          "type": "address"
        },
        {
          "internalType": "uint256",
          "name": "noriFee",
          "type": "uint256"
        }
      ],
      "name": "initialize",
      "outputs": [],
      "stateMutability": "nonpayable",
      "type": "function"
    },
    {
      "inputs": [],
      "name": "numberOfActiveNrtsInMarketComputed",
      "outputs": [
        {
          "internalType": "uint256",
          "name": "",
          "type": "uint256"
        }
      ],
      "stateMutability": "view",
      "type": "function"
    },
    {
      "inputs": [
        {
          "internalType": "address",
          "name": "",
          "type": "address"
        },
        {
          "internalType": "address",
          "name": "",
          "type": "address"
        },
        {
          "internalType": "uint256[]",
          "name": "ids",
          "type": "uint256[]"
        },
        {
          "internalType": "uint256[]",
          "name": "",
          "type": "uint256[]"
        },
        {
          "internalType": "bytes",
          "name": "",
          "type": "bytes"
        }
      ],
      "name": "onERC1155BatchReceived",
      "outputs": [
        {
          "internalType": "bytes4",
          "name": "",
          "type": "bytes4"
        }
      ],
      "stateMutability": "nonpayable",
      "type": "function"
    },
    {
      "inputs": [
        {
          "internalType": "address",
          "name": "",
          "type": "address"
        },
        {
          "internalType": "address",
          "name": "",
          "type": "address"
        },
        {
          "internalType": "uint256",
          "name": "",
          "type": "uint256"
        },
        {
          "internalType": "uint256",
          "name": "",
          "type": "uint256"
        },
        {
          "internalType": "bytes",
          "name": "",
          "type": "bytes"
        }
      ],
      "name": "onERC1155Received",
      "outputs": [
        {
          "internalType": "bytes4",
          "name": "",
          "type": "bytes4"
        }
      ],
      "stateMutability": "nonpayable",
      "type": "function"
    },
    {
      "inputs": [],
      "name": "priorityRestrictedThreshold",
      "outputs": [
        {
          "internalType": "uint256",
          "name": "",
          "type": "uint256"
        }
      ],
      "stateMutability": "view",
      "type": "function"
    },
    {
      "inputs": [
        {
          "internalType": "bytes32",
          "name": "role",
          "type": "bytes32"
        },
        {
          "internalType": "address",
          "name": "account",
          "type": "address"
        }
      ],
      "name": "renounceRole",
      "outputs": [],
      "stateMutability": "nonpayable",
      "type": "function"
    },
    {
      "inputs": [
        {
          "internalType": "uint256",
          "name": "removalId",
          "type": "uint256"
        }
      ],
      "name": "reserveRemoval",
      "outputs": [
        {
          "internalType": "bool",
          "name": "",
          "type": "bool"
        }
      ],
      "stateMutability": "nonpayable",
      "type": "function"
    },
    {
      "inputs": [
        {
          "internalType": "bytes32",
          "name": "role",
          "type": "bytes32"
        },
        {
          "internalType": "address",
          "name": "account",
          "type": "address"
        }
      ],
      "name": "revokeRole",
      "outputs": [],
      "stateMutability": "nonpayable",
      "type": "function"
    },
    {
      "inputs": [
        {
          "internalType": "uint256",
          "name": "threshold",
          "type": "uint256"
        }
      ],
      "name": "setPriorityRestrictedThreshold",
      "outputs": [],
      "stateMutability": "nonpayable",
      "type": "function"
    },
    {
      "inputs": [
        {
          "internalType": "bytes4",
          "name": "interfaceId",
          "type": "bytes4"
        }
      ],
      "name": "supportsInterface",
      "outputs": [
        {
          "internalType": "bool",
          "name": "",
          "type": "bool"
        }
      ],
      "stateMutability": "view",
      "type": "function"
    },
    {
      "inputs": [
        {
          "internalType": "address",
          "name": "",
          "type": "address"
        },
        {
          "internalType": "address",
          "name": "from",
          "type": "address"
        },
        {
          "internalType": "address",
          "name": "",
          "type": "address"
        },
        {
          "internalType": "uint256",
          "name": "amount",
          "type": "uint256"
        },
        {
          "internalType": "bytes",
          "name": "userData",
          "type": "bytes"
        },
        {
          "internalType": "bytes",
          "name": "",
          "type": "bytes"
        }
      ],
      "name": "tokensReceived",
      "outputs": [],
      "stateMutability": "nonpayable",
      "type": "function"
    },
    {
      "inputs": [],
      "name": "totalActiveSupply",
      "outputs": [
        {
          "internalType": "uint256",
          "name": "",
          "type": "uint256"
        }
      ],
      "stateMutability": "view",
      "type": "function"
    },
    {
      "inputs": [],
      "name": "totalNumberActiveRemovals",
      "outputs": [
        {
          "internalType": "uint256",
          "name": "",
          "type": "uint256"
        }
      ],
      "stateMutability": "view",
      "type": "function"
    },
    {
      "inputs": [],
      "name": "totalReservedSupply",
      "outputs": [
        {
          "internalType": "uint256",
          "name": "",
          "type": "uint256"
        }
      ],
      "stateMutability": "view",
      "type": "function"
    },
    {
      "inputs": [],
      "name": "totalSupply",
      "outputs": [
        {
          "internalType": "uint256",
          "name": "",
          "type": "uint256"
        }
      ],
      "stateMutability": "view",
      "type": "function"
    },
    {
      "inputs": [],
      "name": "totalUnrestrictedSupply",
      "outputs": [
        {
          "internalType": "uint256",
          "name": "",
          "type": "uint256"
        }
      ],
      "stateMutability": "view",
      "type": "function"
    },
    {
      "inputs": [
        {
          "internalType": "uint256",
          "name": "removalId",
          "type": "uint256"
        }
      ],
      "name": "unreserveRemoval",
      "outputs": [
        {
          "internalType": "bool",
          "name": "",
          "type": "bool"
        }
      ],
      "stateMutability": "nonpayable",
      "type": "function"
    }
  ],
  "bytecode": "0x608060405234801561001057600080fd5b5061223c806100206000396000f3fe608060405234801561001057600080fd5b506004361061012b5760003560e01c80639010d07c116100ad578063ca15c87311610071578063ca15c87314610294578063d547741f146102a7578063d797462f146102ba578063f23a6e61146102cd578063f7013ef6146102ec57600080fd5b80639010d07c1461021a57806391d1485414610245578063a0f4031714610258578063a217fddf14610260578063bc197c811461026857600080fd5b8063248a9ca3116100f4578063248a9ca3146101a25780632f2ff15d146101c55780633030b532146101d857806336568abe146101ff5780637530b4501461021257600080fd5b806223de291461013057806301ffc9a71461014557806312de2b051461016d57806315d0a4cd1461018557806318160ddd14610198575b600080fd5b61014361013e366004611a1b565b6102ff565b005b610158610153366004611acb565b610d6a565b60405190151581526020015b60405180910390f35b6101776101365481565b604051908152602001610164565b610177610193366004611b03565b610d8a565b6101776101375481565b6101776101b0366004611b20565b60009081526065602052604090206001015490565b6101436101d3366004611b39565b610dc0565b6101777f26a560d834a19637eccba4611bbc09fb32970bb627da0a70f14f83fdc9822cbc81565b61014361020d366004611b39565b610deb565b610177610e69565b61022d610228366004611b69565b610e96565b6040516001600160a01b039091168152602001610164565b610158610253366004611b39565b610eb5565b610177610ee0565b610177600081565b61027b610276366004611cbf565b610f9d565b6040516001600160e01b03199091168152602001610164565b6101776102a2366004611b20565b6110da565b6101436102b5366004611b39565b6110f1565b6101436102c8366004611b20565b611117565b61027b6102db366004611d6c565b63f23a6e6160e01b95945050505050565b6101436102fa366004611dd4565b611160565b6101375460000361034e5760405162461bcd60e51b81526020600482015260146024820152734d61726b65743a204f7574206f662073746f636b60601b60448201526064015b60405180910390fd5b6101365461013754116103df576103857f26a560d834a19637eccba4611bbc09fb32970bb627da0a70f14f83fdc9822cbc88610eb5565b6103df5760405162461bcd60e51b815260206004820152602560248201527f4c6f7720737570706c7920616e64206275796572206e6f74206f6e20616c6c6f6044820152641ddb1a5cdd60da1b6064820152608401610345565b60006101355460646103f19190611e4e565b6103fc876064611e66565b6104069190611e85565b905080600061041786880188611ea7565b905061013354610132540361046a5760405162461bcd60e51b81526020600482015260196024820152784d61726b65743a204e6f7420656e6f75676820737570706c7960381b6044820152606401610345565b6001600160a01b0381166104cc5760405162461bcd60e51b8152602060048201526024808201527f4d61726b65743a2043616e6e6f74206d696e7420746f207468652030206164646044820152637265737360e01b6064820152608401610345565b610130546001600160a01b0316331461054d5760405162461bcd60e51b815260206004820152603960248201527f4d61726b65743a205468697320636f6e74726163742063616e206f6e6c79207260448201527f6563656976652042726964676564506f6c79676f6e4e4f5249000000000000006064820152608401610345565b6000610557611384565b6001600160401b0381111561056e5761056e611b8b565b604051908082528060200260200182016040528015610597578160200160208202803683370190505b50905060006105a4611384565b6001600160401b038111156105bb576105bb611b8b565b6040519080825280602002602001820160405280156105e4578160200160208202803683370190505b50905060006105f1611384565b6001600160401b0381111561060857610608611b8b565b604051908082528060200260200182016040528015610631578160200160208202803683370190505b50610132549091506000905b6101335481101561089b5761012e5460008281526101316020526040808220549051627eeac760e11b8152306004820152602481019190915290916001600160a01b03169062fdd58e90604401602060405180830381865afa1580156106a7573d6000803e3d6000fd5b505050506040513d601f19601f820116820180604052508101906106cb9190611ec4565b60008381526101316020526040812054919250906106e890611398565b90508189101561077d5760008381526101316020526040902054875188908690811061071657610716611edd565b6020026020010181815250508886858151811061073557610735611edd565b6020026020010181815250508085858151811061075457610754611edd565b60200260200101906001600160a01b031690816001600160a01b0316815250506000985061086a565b60016101335461078d9190611ef3565b8314801561079a57508189115b156107e35760405162461bcd60e51b81526020600482015260196024820152784d61726b65743a204e6f7420656e6f75676820737570706c7960381b6044820152606401610345565b60008381526101316020526040902054875188908690811061080757610807611edd565b6020026020010181815250508186858151811061082657610826611edd565b6020026020010181815250508085858151811061084557610845611edd565b6001600160a01b0390921660209283029190910190910152610867828a611ef3565b98505b8361087481611f0a565b9450508860000361088657505061089b565b5050808061089390611f0a565b91505061063d565b506000816001600160401b038111156108b6576108b6611b8b565b6040519080825280602002602001820160405280156108df578160200160208202803683370190505b5090506000826001600160401b038111156108fc576108fc611b8b565b604051908082528060200260200182016040528015610925578160200160208202803683370190505b50905060005b838110156109b45786818151811061094557610945611edd565b602002602001015183828151811061095f5761095f611edd565b60200260200101818152505085818151811061097d5761097d611edd565b602002602001015182828151811061099757610997611edd565b6020908102919091010152806109ac81611f0a565b91505061092b565b506000896040516020016109ca91815260200190565b60408051601f198184030181529082905261012f54630fbfeffd60e11b83529092506001600160a01b031690631f7fdffa90610a10908b90879087908790600401611fba565b600060405180830381600087803b158015610a2a57600080fd5b505af1158015610a3e573d6000803e3d6000fd5b5050505060005b8351811015610cee5761012e5484516001600160a01b039091169062fdd58e903090879085908110610a7957610a79611edd565b60200260200101516040518363ffffffff1660e01b8152600401610ab29291906001600160a01b03929092168252602082015260400190565b602060405180830381865afa158015610acf573d6000803e3d6000fd5b505050506040513d601f19601f82011682018060405250810190610af39190611ec4565b838281518110610b0557610b05611edd565b602002602001015103610b29576101328054906000610b2383611f0a565b91905055505b828181518110610b3b57610b3b611edd565b60200260200101516101376000828254610b559190611ef3565b925050819055506000610135546064858481518110610b7657610b76611edd565b6020026020010151610b889190611e85565b610b929190611e66565b90506000848381518110610ba857610ba8611edd565b6020908102919091010151610130546101345460405163a9059cbb60e01b81526001600160a01b03918216600482015260248101869052929350169063a9059cbb906044016020604051808303816000875af1158015610c0c573d6000803e3d6000fd5b505050506040513d601f19601f82011682018060405250810190610c309190612004565b506101305488516001600160a01b039091169063a9059cbb908a9086908110610c5b57610c5b611edd565b6020026020010151836040518363ffffffff1660e01b8152600401610c959291906001600160a01b03929092168252602082015260400190565b6020604051808303816000875af1158015610cb4573d6000803e3d6000fd5b505050506040513d601f19601f82011682018060405250810190610cd89190612004565b5050508080610ce690611f0a565b915050610a45565b5061012e54604051631ac8311560e21b81526001600160a01b0390911690636b20c45490610d2490309087908790600401612021565b600060405180830381600087803b158015610d3e57600080fd5b505af1158015610d52573d6000803e3d6000fd5b50505050505050505050505050505050505050505050565b6000610d75826113a7565b80610d845750610d84826113cc565b92915050565b610132546000908152610131602052604081205482158015610db25750610136546101375411155b15610d845750600092915050565b600082815260656020526040902060010154610ddc81336113f1565b610de68383611455565b505050565b6001600160a01b0381163314610e5b5760405162461bcd60e51b815260206004820152602f60248201527f416363657373436f6e74726f6c3a2063616e206f6e6c792072656e6f756e636560448201526e103937b632b9903337b91039b2b63360891b6064820152608401610345565b610e658282611477565b5050565b600061013654610137541015610e7f5750600090565b6101365461013754610e919190611ef3565b905090565b6000828152609760205260408120610eae9083611499565b9392505050565b60009182526065602090815260408084206001600160a01b0393909316845291905290205460ff1690565b6101325460009081905b61013354811015610f975761012e546000828152610131602052604090819020549051627eeac760e11b815230600482015260248101919091526001600160a01b039091169062fdd58e90604401602060405180830381865afa158015610f55573d6000803e3d6000fd5b505050506040513d601f19601f82011682018060405250810190610f799190611ec4565b610f839083611e4e565b915080610f8f81611f0a565b915050610eea565b50919050565b6000805b84518110156110c75761012e5485516000916001600160a01b03169062fdd58e903090899086908110610fd657610fd6611edd565b60200260200101516040518363ffffffff1660e01b815260040161100f9291906001600160a01b03929092168252602082015260400190565b602060405180830381865afa15801561102c573d6000803e3d6000fd5b505050506040513d601f19601f820116820180604052508101906110509190611ec4565b90508061013760008282546110659190611e4e565b9250508190555085828151811061107e5761107e611edd565b6020908102919091018101516101338054600090815261013190935260408320919091558054916110ae83611f0a565b91905055505080806110bf90611f0a565b915050610fa1565b5063bc197c8160e01b9695505050505050565b6000818152609760205260408120610d84906114a5565b60008281526065602052604090206001015461110d81336113f1565b610de68383611477565b600061112381336113f1565b6101368290556040518281527f7ab6aa6547859e9ca74d567d44fefa0d63272ac019f4ebf9333032a62ea06fa59060200160405180910390a15050565b600054610100900460ff1661117b5760005460ff161561117f565b303b155b6111e25760405162461bcd60e51b815260206004820152602e60248201527f496e697469616c697a61626c653a20636f6e747261637420697320616c72656160448201526d191e481a5b9a5d1a585b1a5e995960921b6064820152608401610345565b600054610100900460ff16158015611204576000805461ffff19166101011790555b61120c6114af565b6112146114af565b61121c6114af565b6112246114af565b61122c6114af565b61012e80546001600160a01b03199081166001600160a01b03898116919091179092556101308054821688841617905561012f80548216878416179055610134805482169286169290921790915561013583905561012d8054731820a4b7618bde71dce8cdc73aab6c95905fad249216821790556040516329965a1d60e01b815230600482018190527fb281fc8c12954d22544db45de3159a39272895b169a852b314f9cc762e44c53b602483015260448201526329965a1d90606401600060405180830381600087803b15801561130357600080fd5b505af1158015611317573d6000803e3d6000fd5b505060006101328190556101338190556101368190556101378190556113409250905033611455565b61136a7f26a560d834a19637eccba4611bbc09fb32970bb627da0a70f14f83fdc9822cbc33611455565b801561137c576000805461ff00191690555b505050505050565b60006101325461013354610e919190611ef3565b6000610d84826014600461151c565b60006001600160e01b03198216635a05180f60e01b1480610d845750610d8482611568565b60006001600160e01b03198216630271189760e51b1480610d845750610d84826113a7565b6113fb8282610eb5565b610e6557611413816001600160a01b0316601461159d565b61141e83602061159d565b60405160200161142f929190612061565b60408051601f198184030181529082905262461bcd60e51b8252610345916004016120d6565b61145f8282611738565b6000828152609760205260409020610de690826117be565b61148182826117d3565b6000828152609760205260409020610de6908261183a565b6000610eae838361184f565b6000610d84825490565b600054610100900460ff1661151a5760405162461bcd60e51b815260206004820152602b60248201527f496e697469616c697a61626c653a20636f6e7472616374206973206e6f74206960448201526a6e697469616c697a696e6760a81b6064820152608401610345565b565b60008061152a600884611e66565b6001611537600887611e66565b6115429060026121cd565b61154c9190611ef3565b901b905084811661155e600885611e66565b1c95945050505050565b60006001600160e01b03198216637965db0b60e01b1480610d8457506301ffc9a760e01b6001600160e01b0319831614610d84565b606060006115ac836002611e66565b6115b7906002611e4e565b6001600160401b038111156115ce576115ce611b8b565b6040519080825280601f01601f1916602001820160405280156115f8576020820181803683370190505b509050600360fc1b8160008151811061161357611613611edd565b60200101906001600160f81b031916908160001a905350600f60fb1b8160018151811061164257611642611edd565b60200101906001600160f81b031916908160001a9053506000611666846002611e66565b611671906001611e4e565b90505b60018111156116e9576f181899199a1a9b1b9c1cb0b131b232b360811b85600f16601081106116a5576116a5611edd565b1a60f81b8282815181106116bb576116bb611edd565b60200101906001600160f81b031916908160001a90535060049490941c936116e2816121d9565b9050611674565b508315610eae5760405162461bcd60e51b815260206004820181905260248201527f537472696e67733a20686578206c656e67746820696e73756666696369656e746044820152606401610345565b6117428282610eb5565b610e655760008281526065602090815260408083206001600160a01b03851684529091529020805460ff1916600117905561177a3390565b6001600160a01b0316816001600160a01b0316837f2f8788117e7eff1d82e926ec794901d17c78024a50270940304540a733656f0d60405160405180910390a45050565b6000610eae836001600160a01b038416611879565b6117dd8282610eb5565b15610e655760008281526065602090815260408083206001600160a01b0385168085529252808320805460ff1916905551339285917ff6391f5c32d9c69d2a47ea670b442974b53935d1edc7fd64eb21e047a839171b9190a45050565b6000610eae836001600160a01b0384166118c8565b600082600001828154811061186657611866611edd565b9060005260206000200154905092915050565b60008181526001830160205260408120546118c057508154600181810184556000848152602080822090930184905584548482528286019093526040902091909155610d84565b506000610d84565b600081815260018301602052604081205480156119b15760006118ec600183611ef3565b855490915060009061190090600190611ef3565b905081811461196557600086600001828154811061192057611920611edd565b906000526020600020015490508087600001848154811061194357611943611edd565b6000918252602080832090910192909255918252600188019052604090208390555b8554869080611976576119766121f0565b600190038181906000526020600020016000905590558560010160008681526020019081526020016000206000905560019350505050610d84565b6000915050610d84565b6001600160a01b03811681146119d057600080fd5b50565b60008083601f8401126119e557600080fd5b5081356001600160401b038111156119fc57600080fd5b602083019150836020828501011115611a1457600080fd5b9250929050565b60008060008060008060008060c0898b031215611a3757600080fd5b8835611a42816119bb565b97506020890135611a52816119bb565b96506040890135611a62816119bb565b95506060890135945060808901356001600160401b0380821115611a8557600080fd5b611a918c838d016119d3565b909650945060a08b0135915080821115611aaa57600080fd5b50611ab78b828c016119d3565b999c989b5096995094979396929594505050565b600060208284031215611add57600080fd5b81356001600160e01b031981168114610eae57600080fd5b80151581146119d057600080fd5b600060208284031215611b1557600080fd5b8135610eae81611af5565b600060208284031215611b3257600080fd5b5035919050565b60008060408385031215611b4c57600080fd5b823591506020830135611b5e816119bb565b809150509250929050565b60008060408385031215611b7c57600080fd5b50508035926020909101359150565b634e487b7160e01b600052604160045260246000fd5b604051601f8201601f191681016001600160401b0381118282101715611bc957611bc9611b8b565b604052919050565b600082601f830112611be257600080fd5b813560206001600160401b03821115611bfd57611bfd611b8b565b8160051b611c0c828201611ba1565b9283528481018201928281019087851115611c2657600080fd5b83870192505b84831015611c4557823582529183019190830190611c2c565b979650505050505050565b600082601f830112611c6157600080fd5b81356001600160401b03811115611c7a57611c7a611b8b565b611c8d601f8201601f1916602001611ba1565b818152846020838601011115611ca257600080fd5b816020850160208301376000918101602001919091529392505050565b600080600080600060a08688031215611cd757600080fd5b8535611ce2816119bb565b94506020860135611cf2816119bb565b935060408601356001600160401b0380821115611d0e57600080fd5b611d1a89838a01611bd1565b94506060880135915080821115611d3057600080fd5b611d3c89838a01611bd1565b93506080880135915080821115611d5257600080fd5b50611d5f88828901611c50565b9150509295509295909350565b600080600080600060a08688031215611d8457600080fd5b8535611d8f816119bb565b94506020860135611d9f816119bb565b9350604086013592506060860135915060808601356001600160401b03811115611dc857600080fd5b611d5f88828901611c50565b600080600080600060a08688031215611dec57600080fd5b8535611df7816119bb565b94506020860135611e07816119bb565b93506040860135611e17816119bb565b92506060860135611e27816119bb565b949793965091946080013592915050565b634e487b7160e01b600052601160045260246000fd5b60008219821115611e6157611e61611e38565b500190565b6000816000190483118215151615611e8057611e80611e38565b500290565b600082611ea257634e487b7160e01b600052601260045260246000fd5b500490565b600060208284031215611eb957600080fd5b8135610eae816119bb565b600060208284031215611ed657600080fd5b5051919050565b634e487b7160e01b600052603260045260246000fd5b600082821015611f0557611f05611e38565b500390565b600060018201611f1c57611f1c611e38565b5060010190565b600081518084526020808501945080840160005b83811015611f5357815187529582019590820190600101611f37565b509495945050505050565b60005b83811015611f79578181015183820152602001611f61565b83811115611f88576000848401525b50505050565b60008151808452611fa6816020860160208601611f5e565b601f01601f19169290920160200192915050565b6001600160a01b0385168152608060208201819052600090611fde90830186611f23565b8281036040840152611ff08186611f23565b90508281036060840152611c458185611f8e565b60006020828403121561201657600080fd5b8151610eae81611af5565b6001600160a01b038416815260606020820181905260009061204590830185611f23565b82810360408401526120578185611f23565b9695505050505050565b7f416363657373436f6e74726f6c3a206163636f756e7420000000000000000000815260008351612099816017850160208801611f5e565b7001034b99036b4b9b9b4b733903937b6329607d1b60179184019182015283516120ca816028840160208801611f5e565b01602801949350505050565b602081526000610eae6020830184611f8e565b600181815b8085111561212457816000190482111561210a5761210a611e38565b8085161561211757918102915b93841c93908002906120ee565b509250929050565b60008261213b57506001610d84565b8161214857506000610d84565b816001811461215e576002811461216857612184565b6001915050610d84565b60ff84111561217957612179611e38565b50506001821b610d84565b5060208310610133831016604e8410600b84101617156121a7575081810a610d84565b6121b183836120e9565b80600019048211156121c5576121c5611e38565b029392505050565b6000610eae838361212c565b6000816121e8576121e8611e38565b506000190190565b634e487b7160e01b600052603160045260246000fdfea2646970667358221220f1b62ec7a9f34b3ffa366cb4250b7bf8440755a6641d4e4e1fdf4036195c7fff64736f6c634300080d0033",
  "linkReferences": {},
  "deployedLinkReferences": {}
}