{
  "_format": "hh-sol-artifact-1",
  "contractName": "FIFOMarket",
  "sourceName": "contracts/FIFOMarket.sol",
  "abi": [
    {
      "anonymous": false,
      "inputs": [
        {
          "indexed": false,
          "internalType": "uint256",
          "name": "threshold",
          "type": "uint256"
        }
      ],
      "name": "PriorityRestrictedThresholdSet",
      "type": "event"
    },
    {
      "anonymous": false,
      "inputs": [
        {
          "indexed": true,
          "internalType": "bytes32",
          "name": "role",
          "type": "bytes32"
        },
        {
          "indexed": true,
          "internalType": "bytes32",
          "name": "previousAdminRole",
          "type": "bytes32"
        },
        {
          "indexed": true,
          "internalType": "bytes32",
          "name": "newAdminRole",
          "type": "bytes32"
        }
      ],
      "name": "RoleAdminChanged",
      "type": "event"
    },
    {
      "anonymous": false,
      "inputs": [
        {
          "indexed": true,
          "internalType": "bytes32",
          "name": "role",
          "type": "bytes32"
        },
        {
          "indexed": true,
          "internalType": "address",
          "name": "account",
          "type": "address"
        },
        {
          "indexed": true,
          "internalType": "address",
          "name": "sender",
          "type": "address"
        }
      ],
      "name": "RoleGranted",
      "type": "event"
    },
    {
      "anonymous": false,
      "inputs": [
        {
          "indexed": true,
          "internalType": "bytes32",
          "name": "role",
          "type": "bytes32"
        },
        {
          "indexed": true,
          "internalType": "address",
          "name": "account",
          "type": "address"
        },
        {
          "indexed": true,
          "internalType": "address",
          "name": "sender",
          "type": "address"
        }
      ],
      "name": "RoleRevoked",
      "type": "event"
    },
    {
      "inputs": [],
      "name": "ALLOWLIST_ROLE",
      "outputs": [
        {
          "internalType": "bytes32",
          "name": "",
          "type": "bytes32"
        }
      ],
      "stateMutability": "view",
      "type": "function"
    },
    {
      "inputs": [],
      "name": "DEFAULT_ADMIN_ROLE",
      "outputs": [
        {
          "internalType": "bytes32",
          "name": "",
          "type": "bytes32"
        }
      ],
      "stateMutability": "view",
      "type": "function"
    },
    {
      "inputs": [],
      "name": "activeSupplierCount",
      "outputs": [
        {
          "internalType": "uint256",
          "name": "",
          "type": "uint256"
        }
      ],
      "stateMutability": "view",
      "type": "function"
    },
    {
      "inputs": [
        {
          "internalType": "uint256",
          "name": "count",
          "type": "uint256"
        }
      ],
      "name": "activeSupply",
      "outputs": [
        {
          "components": [
            {
              "internalType": "address",
              "name": "currentSupplier",
              "type": "address"
            },
            {
              "components": [
                {
                  "internalType": "address",
                  "name": "supplierAddress",
                  "type": "address"
                },
                {
                  "internalType": "uint256",
                  "name": "index",
                  "type": "uint256"
                },
                {
                  "internalType": "uint256[]",
                  "name": "removalIds",
                  "type": "uint256[]"
                }
              ],
              "internalType": "struct FIFOMarket.ActiveSupplier[]",
              "name": "suppliers",
              "type": "tuple[]"
            },
            {
              "components": [
                {
                  "internalType": "address",
                  "name": "previousSupplierAddress",
                  "type": "address"
                },
                {
                  "internalType": "address",
                  "name": "nextSupplierAddress",
                  "type": "address"
                }
              ],
              "internalType": "struct FIFOMarket.RoundRobinOrder",
              "name": "queue",
              "type": "tuple"
            }
          ],
          "internalType": "struct FIFOMarket.ActiveSupply",
          "name": "",
          "type": "tuple"
        }
      ],
      "stateMutability": "view",
      "type": "function"
    },
    {
      "inputs": [
        {
          "internalType": "bytes32",
          "name": "role",
          "type": "bytes32"
        }
      ],
      "name": "getRoleAdmin",
      "outputs": [
        {
          "internalType": "bytes32",
          "name": "",
          "type": "bytes32"
        }
      ],
      "stateMutability": "view",
      "type": "function"
    },
    {
      "inputs": [
        {
          "internalType": "bytes32",
          "name": "role",
          "type": "bytes32"
        },
        {
          "internalType": "uint256",
          "name": "index",
          "type": "uint256"
        }
      ],
      "name": "getRoleMember",
      "outputs": [
        {
          "internalType": "address",
          "name": "",
          "type": "address"
        }
      ],
      "stateMutability": "view",
      "type": "function"
    },
    {
      "inputs": [
        {
          "internalType": "bytes32",
          "name": "role",
          "type": "bytes32"
        }
      ],
      "name": "getRoleMemberCount",
      "outputs": [
        {
          "internalType": "uint256",
          "name": "",
          "type": "uint256"
        }
      ],
      "stateMutability": "view",
      "type": "function"
    },
    {
      "inputs": [
        {
          "internalType": "bytes32",
          "name": "role",
          "type": "bytes32"
        },
        {
          "internalType": "address",
          "name": "account",
          "type": "address"
        }
      ],
      "name": "grantRole",
      "outputs": [],
      "stateMutability": "nonpayable",
      "type": "function"
    },
    {
      "inputs": [
        {
          "internalType": "bytes32",
          "name": "role",
          "type": "bytes32"
        },
        {
          "internalType": "address",
          "name": "account",
          "type": "address"
        }
      ],
      "name": "hasRole",
      "outputs": [
        {
          "internalType": "bool",
          "name": "",
          "type": "bool"
        }
      ],
      "stateMutability": "view",
      "type": "function"
    },
    {
      "inputs": [
        {
          "internalType": "address",
          "name": "removalAddress",
          "type": "address"
        },
        {
          "internalType": "address",
          "name": "bridgedPolygonNoriAddress",
          "type": "address"
        },
        {
          "internalType": "address",
          "name": "certificateAddress",
          "type": "address"
        },
        {
          "internalType": "address",
          "name": "noriFeeWalletAddress",
          "type": "address"
        },
        {
          "internalType": "uint256",
          "name": "noriFee",
          "type": "uint256"
        }
      ],
      "name": "initialize",
      "outputs": [],
      "stateMutability": "nonpayable",
      "type": "function"
    },
    {
      "inputs": [],
      "name": "numberOfActiveNrtsInMarketComputed",
      "outputs": [
        {
          "internalType": "uint256",
          "name": "",
          "type": "uint256"
        }
      ],
      "stateMutability": "view",
      "type": "function"
    },
    {
      "inputs": [
        {
          "internalType": "address",
          "name": "",
          "type": "address"
        },
        {
          "internalType": "address",
          "name": "",
          "type": "address"
        },
        {
          "internalType": "uint256[]",
          "name": "ids",
          "type": "uint256[]"
        },
        {
          "internalType": "uint256[]",
          "name": "",
          "type": "uint256[]"
        },
        {
          "internalType": "bytes",
          "name": "",
          "type": "bytes"
        }
      ],
      "name": "onERC1155BatchReceived",
      "outputs": [
        {
          "internalType": "bytes4",
          "name": "",
          "type": "bytes4"
        }
      ],
      "stateMutability": "nonpayable",
      "type": "function"
    },
    {
      "inputs": [
        {
          "internalType": "address",
          "name": "",
          "type": "address"
        },
        {
          "internalType": "address",
          "name": "",
          "type": "address"
        },
        {
          "internalType": "uint256",
          "name": "",
          "type": "uint256"
        },
        {
          "internalType": "uint256",
          "name": "",
          "type": "uint256"
        },
        {
          "internalType": "bytes",
          "name": "",
          "type": "bytes"
        }
      ],
      "name": "onERC1155Received",
      "outputs": [
        {
          "internalType": "bytes4",
          "name": "",
          "type": "bytes4"
        }
      ],
      "stateMutability": "nonpayable",
      "type": "function"
    },
    {
      "inputs": [],
      "name": "priorityRestrictedThreshold",
      "outputs": [
        {
          "internalType": "uint256",
          "name": "",
          "type": "uint256"
        }
      ],
      "stateMutability": "view",
      "type": "function"
    },
    {
      "inputs": [
        {
          "internalType": "bytes32",
          "name": "role",
          "type": "bytes32"
        },
        {
          "internalType": "address",
          "name": "account",
          "type": "address"
        }
      ],
      "name": "renounceRole",
      "outputs": [],
      "stateMutability": "nonpayable",
      "type": "function"
    },
    {
      "inputs": [
        {
          "internalType": "uint256",
          "name": "removalId",
          "type": "uint256"
        }
      ],
      "name": "reserveRemoval",
      "outputs": [
        {
          "internalType": "bool",
          "name": "",
          "type": "bool"
        }
      ],
      "stateMutability": "nonpayable",
      "type": "function"
    },
    {
      "inputs": [
        {
          "internalType": "bytes32",
          "name": "role",
          "type": "bytes32"
        },
        {
          "internalType": "address",
          "name": "account",
          "type": "address"
        }
      ],
      "name": "revokeRole",
      "outputs": [],
      "stateMutability": "nonpayable",
      "type": "function"
    },
    {
      "inputs": [
        {
          "internalType": "uint256",
          "name": "threshold",
          "type": "uint256"
        }
      ],
      "name": "setPriorityRestrictedThreshold",
      "outputs": [],
      "stateMutability": "nonpayable",
      "type": "function"
    },
    {
      "inputs": [
        {
          "internalType": "bytes4",
          "name": "interfaceId",
          "type": "bytes4"
        }
      ],
      "name": "supportsInterface",
      "outputs": [
        {
          "internalType": "bool",
          "name": "",
          "type": "bool"
        }
      ],
      "stateMutability": "view",
      "type": "function"
    },
    {
      "inputs": [
        {
          "internalType": "address",
          "name": "",
          "type": "address"
        },
        {
          "internalType": "address",
          "name": "from",
          "type": "address"
        },
        {
          "internalType": "address",
          "name": "",
          "type": "address"
        },
        {
          "internalType": "uint256",
          "name": "amount",
          "type": "uint256"
        },
        {
          "internalType": "bytes",
          "name": "userData",
          "type": "bytes"
        },
        {
          "internalType": "bytes",
          "name": "",
          "type": "bytes"
        }
      ],
      "name": "tokensReceived",
      "outputs": [],
      "stateMutability": "nonpayable",
      "type": "function"
    },
    {
      "inputs": [],
      "name": "totalActiveSupply",
      "outputs": [
        {
          "internalType": "uint256",
          "name": "",
          "type": "uint256"
        }
      ],
      "stateMutability": "view",
      "type": "function"
    },
    {
      "inputs": [],
      "name": "totalNumberActiveRemovals",
      "outputs": [
        {
          "internalType": "uint256",
          "name": "",
          "type": "uint256"
        }
      ],
      "stateMutability": "view",
      "type": "function"
    },
    {
      "inputs": [],
      "name": "totalReservedSupply",
      "outputs": [
        {
          "internalType": "uint256",
          "name": "",
          "type": "uint256"
        }
      ],
      "stateMutability": "view",
      "type": "function"
    },
    {
      "inputs": [],
      "name": "totalUnrestrictedSupply",
      "outputs": [
        {
          "internalType": "uint256",
          "name": "",
          "type": "uint256"
        }
      ],
      "stateMutability": "view",
      "type": "function"
    },
    {
      "inputs": [
        {
          "internalType": "uint256",
          "name": "removalId",
          "type": "uint256"
        }
      ],
      "name": "unreserveRemoval",
      "outputs": [
        {
          "internalType": "bool",
          "name": "",
          "type": "bool"
        }
      ],
      "stateMutability": "nonpayable",
      "type": "function"
    }
  ],
  "bytecode": "0x608060405234801561001057600080fd5b50612dd9806100206000396000f3fe608060405234801561001057600080fd5b50600436106101725760003560e01c8063674d13c8116100de578063a217fddf11610097578063d547741f11610071578063d547741f1461033f578063d797462f14610352578063f23a6e6114610365578063f7013ef61461038457600080fd5b8063a217fddf146102f8578063bc197c8114610300578063ca15c8731461032c57600080fd5b8063674d13c81461028b57806372069264146102955780637530b4501461029f5780639010d07c146102a757806391d14854146102d257806397a11ee9146102e557600080fd5b80633030b532116101305780633030b5321461020c578063361b7b9d1461023357806336568abe1461023d5780633eb12cee1461025057806359e1a71c146102585780635c209a141461026b57600080fd5b806223de291461017757806301ffc9a71461018c57806312de2b05146101b4578063179f0445146101cc578063248a9ca3146101d65780632f2ff15d146101f9575b600080fd5b61018a6101853660046124a3565b610397565b005b61019f61019a366004612553565b610e9a565b60405190151581526020015b60405180910390f35b6101be6101335481565b6040519081526020016101ab565b6101be6101345481565b6101be6101e436600461257d565b60009081526065602052604090206001015490565b61018a610207366004612596565b610eba565b6101be7f26a560d834a19637eccba4611bbc09fb32970bb627da0a70f14f83fdc9822cbc81565b6101be6101375481565b61018a61024b366004612596565b610ee5565b6101be610f63565b61019f61026636600461257d565b611099565b61027e61027936600461257d565b611265565b6040516101ab91906125c6565b6101be6101365481565b6101be6101355481565b6101be611488565b6102ba6102b53660046126b9565b6114b5565b6040516001600160a01b0390911681526020016101ab565b61019f6102e0366004612596565b6114d4565b61019f6102f336600461257d565b6114ff565b6101be600081565b61031361030e36600461280f565b611693565b6040516001600160e01b031990911681526020016101ab565b6101be61033a36600461257d565b611864565b61018a61034d366004612596565b61187b565b61018a61036036600461257d565b6118a1565b6103136103733660046128bc565b63f23a6e6160e01b95945050505050565b61018a610392366004612924565b6118ea565b610135546000036103e65760405162461bcd60e51b81526020600482015260146024820152734d61726b65743a204f7574206f662073746f636b60601b60448201526064015b60405180910390fd5b6101335461013554116104775761041d7f26a560d834a19637eccba4611bbc09fb32970bb627da0a70f14f83fdc9822cbc886114d4565b6104775760405162461bcd60e51b815260206004820152602560248201527f4c6f7720737570706c7920616e64206275796572206e6f74206f6e20616c6c6f6044820152641ddb1a5cdd60da1b60648201526084016103dd565b6000610132546064610489919061299e565b6104948760646129b6565b61049e91906129d5565b90508060006104af868801886129f7565b90506001600160a01b0381166105135760405162461bcd60e51b8152602060048201526024808201527f4d61726b65743a2043616e6e6f74206d696e7420746f207468652030206164646044820152637265737360e01b60648201526084016103dd565b610130546001600160a01b031633146105945760405162461bcd60e51b815260206004820152603960248201527f4d61726b65743a205468697320636f6e74726163742063616e206f6e6c79207260448201527f6563656976652042726964676564506f6c79676f6e4e4f52490000000000000060648201526084016103dd565b6000610134546001600160401b038111156105b1576105b16126db565b6040519080825280602002602001820160405280156105da578160200160208202803683370190505b5090506000610134546001600160401b038111156105fa576105fa6126db565b604051908082528060200260200182016040528015610623578160200160208202803683370190505b5090506000610134546001600160401b03811115610643576106436126db565b60405190808252806020026020018201604052801561066c578160200160208202803683370190505b5090506000805b610134548110156109c857610138546001600160a01b0316600090815261013c602052604081206106a49082611b1f565b61012e54604051627eeac760e11b8152306004820152602481018390529192506000916001600160a01b039091169062fdd58e90604401602060405180830381865afa1580156106f8573d6000803e3d6000fd5b505050506040513d601f19601f8201168201806040525081019061071c9190612a14565b9050808910156107b0578187858151811061073957610739612a2d565b6020026020010181815250508886858151811061075857610758612a2d565b60209081029190910101526101385485516001600160a01b039091169086908690811061078757610787612a2d565b60200260200101906001600160a01b031690816001600160a01b03168152505060009850610997565b6001610134546107c09190612a43565b831480156107cd57508089115b1561081a5760405162461bcd60e51b815260206004820152601960248201527f4d61726b65743a204e6f7420656e6f75676820737570706c790000000000000060448201526064016103dd565b8187858151811061082d5761082d612a2d565b6020026020010181815250508086858151811061084c5761084c612a2d565b60209081029190910101526101385485516001600160a01b039091169086908690811061087b5761087b612a2d565b6001600160a01b039092166020928302919091019091015261089d818a612a43565b610138546001600160a01b0316600090815261013c602052604090209099506108c69083611b2b565b61091e5760405162461bcd60e51b8152602060048201526024808201527f4d61726b65743a2052656d6f76616c206e6f7420696e2061637469766520737560448201526370706c7960e01b60648201526084016103dd565b610138546001600160a01b0316600090815261013c6020526040902061094390611b37565b6000036109655761013854610960906001600160a01b0316611b41565b610997565b610138546001600160a01b03908116600081815261013960205260409020600101549091161461099757610997611c63565b836109a181612a5a565b945050886000036109b35750506109c8565b505080806109c090612a5a565b915050610673565b506000816001600160401b038111156109e3576109e36126db565b604051908082528060200260200182016040528015610a0c578160200160208202803683370190505b5090506000826001600160401b03811115610a2957610a296126db565b604051908082528060200260200182016040528015610a52578160200160208202803683370190505b50905060005b83811015610ae157868181518110610a7257610a72612a2d565b6020026020010151838281518110610a8c57610a8c612a2d565b602002602001018181525050858181518110610aaa57610aaa612a2d565b6020026020010151828281518110610ac457610ac4612a2d565b602090810291909101015280610ad981612a5a565b915050610a58565b50600089604051602001610af791815260200190565b60408051601f198184030181529082905261012f54630fbfeffd60e11b83529092506001600160a01b031690631f7fdffa90610b3d908b90879087908790600401612b0a565b600060405180830381600087803b158015610b5757600080fd5b505af1158015610b6b573d6000803e3d6000fd5b5050505060005b8351811015610e1e5761012e5484516001600160a01b039091169062fdd58e903090879085908110610ba657610ba6612a2d565b60200260200101516040518363ffffffff1660e01b8152600401610bdf9291906001600160a01b03929092168252602082015260400190565b602060405180830381865afa158015610bfc573d6000803e3d6000fd5b505050506040513d601f19601f82011682018060405250810190610c209190612a14565b838281518110610c3257610c32612a2d565b602002602001015103610c595760016101346000828254610c539190612a43565b90915550505b828181518110610c6b57610c6b612a2d565b60200260200101516101356000828254610c859190612a43565b925050819055506000610132546064858481518110610ca657610ca6612a2d565b6020026020010151610cb891906129d5565b610cc291906129b6565b90506000848381518110610cd857610cd8612a2d565b6020908102919091010151610130546101315460405163a9059cbb60e01b81526001600160a01b03918216600482015260248101869052929350169063a9059cbb906044016020604051808303816000875af1158015610d3c573d6000803e3d6000fd5b505050506040513d601f19601f82011682018060405250810190610d609190612b54565b506101305488516001600160a01b039091169063a9059cbb908a9086908110610d8b57610d8b612a2d565b6020026020010151836040518363ffffffff1660e01b8152600401610dc59291906001600160a01b03929092168252602082015260400190565b6020604051808303816000875af1158015610de4573d6000803e3d6000fd5b505050506040513d601f19601f82011682018060405250810190610e089190612b54565b5050508080610e1690612a5a565b915050610b72565b5061012e54604051631ac8311560e21b81526001600160a01b0390911690636b20c45490610e5490309087908790600401612b76565b600060405180830381600087803b158015610e6e57600080fd5b505af1158015610e82573d6000803e3d6000fd5b50505050505050505050505050505050505050505050565b6000610ea582611c98565b80610eb45750610eb482611cbd565b92915050565b600082815260656020526040902060010154610ed68133611ce2565b610ee08383611d46565b505050565b6001600160a01b0381163314610f555760405162461bcd60e51b815260206004820152602f60248201527f416363657373436f6e74726f6c3a2063616e206f6e6c792072656e6f756e636560448201526e103937b632b9903337b91039b2b63360891b60648201526084016103dd565b610f5f8282611d68565b5050565b6101385460009081906001600160a01b0316815b61013754811015611091576001600160a01b038216600090815261013c60205260408120905b610fa682611b37565b81101561105b5761012e546000906001600160a01b031662fdd58e30610fcc8686611b1f565b6040516001600160e01b031960e085901b1681526001600160a01b0390921660048301526024820152604401602060405180830381865afa158015611015573d6000803e3d6000fd5b505050506040513d601f19601f820116820180604052508101906110399190612a14565b9050611045818761299e565b955050808061105390612a5a565b915050610f9d565b50506001600160a01b0391821660009081526101396020526040902060010154909116908061108981612a5a565b915050610f77565b509092915050565b6000806110a583611d8a565b6001600160a01b038116600090815261013c602052604090209091506110cb8185611b2b565b15156001146111285760405162461bcd60e51b8152602060048201526024808201527f4d61726b65743a2072656d6f76616c206e6f7420696e2061637469766520737560448201526370706c7960e01b60648201526084016103dd565b6001610134600082825461113c9190612a43565b909155505061012e54604051627eeac760e11b8152306004820152602481018690526000916001600160a01b03169062fdd58e90604401602060405180830381865afa158015611190573d6000803e3d6000fd5b505050506040513d601f19601f820116820180604052508101906111b49190612a14565b90508061013560008282546111c99190612a43565b925050819055508061013660008282546111e3919061299e565b909155506111f2905082611b37565b6000036112025761120283611b41565b61120e61013a86611d99565b61125a5760405162461bcd60e51b815260206004820181905260248201527f4d61726b65743a2052656d6f76616c20616c726561647920726573657276656460448201526064016103dd565b506001949350505050565b611297604080516060808201835260008083526020808401929092528351808501855281815291820152909182015290565b610137548211156113045760405162461bcd60e51b815260206004820152603160248201527f4d61726b65743a20636f756e74206578636565647320746f74616c20616374696044820152701d99481cdd5c1c1b1a595c8818dbdd5b9d607a1b60648201526084016103dd565b6000826001600160401b0381111561131e5761131e6126db565b60405190808252806020026020018201604052801561136b57816020015b6040805160608082018352600080835260208301529181019190915281526020019060019003908161133c5790505b50610138549091506001600160a01b031660005b8481101561142a576001600160a01b038083166000818152610139602090815260408083208151808301835281548716815260019091015490951685830152805160608101825284815280830187905293835261013c909152808220919291908201906113eb90611da5565b81525090508085848151811061140357611403612a2d565b6020026020010181905250816020015193505050808061142290612a5a565b91505061137f565b505060408051606081018252610138546001600160a01b039081168083526020808401959095526000908152610139855283902083518085018552815483168152600190910154909116938101939093529081019190915292915050565b60006101335461013554101561149e5750600090565b61013354610135546114b09190612a43565b905090565b60008281526097602052604081206114cd9083611b1f565b9392505050565b60009182526065602090815260408084206001600160a01b0393909316845291905290205460ff1690565b60008061150b83611d8a565b6001600160a01b038116600090815261013c6020526040902090915061153361013a85611b2b565b15156001146115935760405162461bcd60e51b815260206004820152602660248201527f4d61726b65743a2072656d6f76616c206e6f7420696e20726573657276656420604482015265737570706c7960d01b60648201526084016103dd565b600161013460008282546115a7919061299e565b909155505061012e54604051627eeac760e11b8152306004820152602481018690526000916001600160a01b03169062fdd58e90604401602060405180830381865afa1580156115fb573d6000803e3d6000fd5b505050506040513d601f19601f8201168201806040525081019061161f9190612a14565b9050806101356000828254611634919061299e565b9250508190555080610136600082825461164e9190612a43565b9091555061165d905082611b37565b60000361166d5761166d83611db2565b6116778286611d99565b61125a5760405162461bcd60e51b81526004016103dd90612bb6565b6000805b84518110156118515761012e5485516000916001600160a01b03169062fdd58e9030908990869081106116cc576116cc612a2d565b60200260200101516040518363ffffffff1660e01b81526004016117059291906001600160a01b03929092168252602082015260400190565b602060405180830381865afa158015611722573d6000803e3d6000fd5b505050506040513d601f19601f820116820180604052508101906117469190612a14565b905080610135600082825461175b919061299e565b9250508190555060016101346000828254611776919061299e565b9250508190555060006117a187848151811061179457611794612a2d565b6020026020010151611d8a565b90506117f48784815181106117b8576117b8612a2d565b602002602001015161013c6000846001600160a01b03166001600160a01b03168152602001908152602001600020611d9990919063ffffffff16565b6118105760405162461bcd60e51b81526004016103dd90612bb6565b6001600160a01b03818116600090815261013960205260409020600101541661183c5761183c81611db2565b5050808061184990612a5a565b915050611697565b5063bc197c8160e01b9695505050505050565b6000818152609760205260408120610eb490611b37565b6000828152606560205260409020600101546118978133611ce2565b610ee08383611d68565b60006118ad8133611ce2565b6101338290556040518281527f7ab6aa6547859e9ca74d567d44fefa0d63272ac019f4ebf9333032a62ea06fa59060200160405180910390a15050565b600054610100900460ff166119055760005460ff1615611909565b303b155b61196c5760405162461bcd60e51b815260206004820152602e60248201527f496e697469616c697a61626c653a20636f6e747261637420697320616c72656160448201526d191e481a5b9a5d1a585b1a5e995960921b60648201526084016103dd565b600054610100900460ff1615801561198e576000805461ffff19166101011790555b611996611edb565b61199e611edb565b6119a6611edb565b6119ae611edb565b6119b6611edb565b61012e80546001600160a01b03199081166001600160a01b03898116919091179092556101308054821688841617905561012f80548216878416179055610131805482169286169290921790915561013283905561012d8054731820a4b7618bde71dce8cdc73aab6c95905fad249216821790556040516329965a1d60e01b815230600482018190527fb281fc8c12954d22544db45de3159a39272895b169a852b314f9cc762e44c53b602483015260448201526329965a1d90606401600060405180830381600087803b158015611a8d57600080fd5b505af1158015611aa1573d6000803e3d6000fd5b5050600061013381905561013581905561013681905561013481905561013880546001600160a01b0319169055611adb9250905033611d46565b611b057f26a560d834a19637eccba4611bbc09fb32970bb627da0a70f14f83fdc9822cbc33611d46565b8015611b17576000805461ff00191690555b505050505050565b60006114cd8383611f48565b60006114cd8383611f72565b6000610eb4825490565b6001600160a01b03808216600081815261013960205260409020600101549091169003611b7e5761013880546001600160a01b0319169055611bf0565b6001600160a01b03818116600081815261013960205260408082206001808201805483548816865284862090920180549288166001600160a01b0319938416179055915491548616845291909220805492851692909116919091179055610138549091169003611bf057611bf0611c63565b604080518082018252600080825260208083018281526001600160a01b038681168452610139909252938220925183546001600160a01b0319908116918316919091178455935160019384018054909516911617909255610137805491929091611c5b908490612a43565b909155505050565b61013880546001600160a01b0380821660009081526101396020526040902060010154166001600160a01b0319909116179055565b60006001600160e01b03198216635a05180f60e01b1480610eb45750610eb482612065565b60006001600160e01b03198216630271189760e51b1480610eb45750610eb482611c98565b611cec82826114d4565b610f5f57611d04816001600160a01b0316601461209a565b611d0f83602061209a565b604051602001611d20929190612bfe565b60408051601f198184030181529082905262461bcd60e51b82526103dd91600401612c73565b611d508282612235565b6000828152609760205260409020610ee090826122bb565b611d7282826122d0565b6000828152609760205260409020610ee09082612337565b6000610eb4826014600461234c565b60006114cd8383612398565b606060006114cd836123e7565b610138546001600160a01b0316611e2d5761013880546001600160a01b03199081166001600160a01b0384811691821790935560408051808201825282815260208082018481526000948552610139909152919092209151825484169085161782555160019190910180549092169216919091179055611ec7565b60408051808201825261013880546001600160a01b03908116600081815261013960208181528783205485168752808701938452888516808452919052868220955186549085166001600160a01b0319918216178755925160019687018054918616918516919091179055845484168252868220548416825286822090950180548316861790559254909116825292902080549092161790555b60016101376000828254611c5b919061299e565b600054610100900460ff16611f465760405162461bcd60e51b815260206004820152602b60248201527f496e697469616c697a61626c653a20636f6e7472616374206973206e6f74206960448201526a6e697469616c697a696e6760a81b60648201526084016103dd565b565b6000826000018281548110611f5f57611f5f612a2d565b9060005260206000200154905092915050565b6000818152600183016020526040812054801561205b576000611f96600183612a43565b8554909150600090611faa90600190612a43565b905081811461200f576000866000018281548110611fca57611fca612a2d565b9060005260206000200154905080876000018481548110611fed57611fed612a2d565b6000918252602080832090910192909255918252600188019052604090208390555b855486908061202057612020612c86565b600190038181906000526020600020016000905590558560010160008681526020019081526020016000206000905560019350505050610eb4565b6000915050610eb4565b60006001600160e01b03198216637965db0b60e01b1480610eb457506301ffc9a760e01b6001600160e01b0319831614610eb4565b606060006120a98360026129b6565b6120b490600261299e565b6001600160401b038111156120cb576120cb6126db565b6040519080825280601f01601f1916602001820160405280156120f5576020820181803683370190505b509050600360fc1b8160008151811061211057612110612a2d565b60200101906001600160f81b031916908160001a905350600f60fb1b8160018151811061213f5761213f612a2d565b60200101906001600160f81b031916908160001a90535060006121638460026129b6565b61216e90600161299e565b90505b60018111156121e6576f181899199a1a9b1b9c1cb0b131b232b360811b85600f16601081106121a2576121a2612a2d565b1a60f81b8282815181106121b8576121b8612a2d565b60200101906001600160f81b031916908160001a90535060049490941c936121df81612c9c565b9050612171565b5083156114cd5760405162461bcd60e51b815260206004820181905260248201527f537472696e67733a20686578206c656e67746820696e73756666696369656e7460448201526064016103dd565b61223f82826114d4565b610f5f5760008281526065602090815260408083206001600160a01b03851684529091529020805460ff191660011790556122773390565b6001600160a01b0316816001600160a01b0316837f2f8788117e7eff1d82e926ec794901d17c78024a50270940304540a733656f0d60405160405180910390a45050565b60006114cd836001600160a01b038416612398565b6122da82826114d4565b15610f5f5760008281526065602090815260408083206001600160a01b0385168085529252808320805460ff1916905551339285917ff6391f5c32d9c69d2a47ea670b442974b53935d1edc7fd64eb21e047a839171b9190a45050565b60006114cd836001600160a01b038416611f72565b60008061235a6008846129b6565b60016123676008876129b6565b612372906002612d97565b61237c9190612a43565b901b905084811661238e6008856129b6565b1c95945050505050565b60008181526001830160205260408120546123df57508154600181810184556000848152602080822090930184905584548482528286019093526040902091909155610eb4565b506000610eb4565b60608160000180548060200260200160405190810160405280929190818152602001828054801561243757602002820191906000526020600020905b815481526020019060010190808311612423575b50505050509050919050565b6001600160a01b038116811461245857600080fd5b50565b60008083601f84011261246d57600080fd5b5081356001600160401b0381111561248457600080fd5b60208301915083602082850101111561249c57600080fd5b9250929050565b60008060008060008060008060c0898b0312156124bf57600080fd5b88356124ca81612443565b975060208901356124da81612443565b965060408901356124ea81612443565b95506060890135945060808901356001600160401b038082111561250d57600080fd5b6125198c838d0161245b565b909650945060a08b013591508082111561253257600080fd5b5061253f8b828c0161245b565b999c989b5096995094979396929594505050565b60006020828403121561256557600080fd5b81356001600160e01b0319811681146114cd57600080fd5b60006020828403121561258f57600080fd5b5035919050565b600080604083850312156125a957600080fd5b8235915060208301356125bb81612443565b809150509250929050565b6000602080835260a0830160018060a01b0380865116838601528286015160806040818189015284835180875260c08a01915060c08160051b8b0101965087850194506000805b82811015612682578b890360bf190184528651805189168a528a8101518b8b01528501516060868b018190528151908b01819052908b0190878b019084905b8082101561266c5783518352928d0192918d01916001919091019061264c565b50909a505050958901959289019260010161260d565b5050505088015180516001600160a01b0390811660608a0152602082015116608089015294506126b192505050565b949350505050565b600080604083850312156126cc57600080fd5b50508035926020909101359150565b634e487b7160e01b600052604160045260246000fd5b604051601f8201601f191681016001600160401b0381118282101715612719576127196126db565b604052919050565b600082601f83011261273257600080fd5b813560206001600160401b0382111561274d5761274d6126db565b8160051b61275c8282016126f1565b928352848101820192828101908785111561277657600080fd5b83870192505b848310156127955782358252918301919083019061277c565b979650505050505050565b600082601f8301126127b157600080fd5b81356001600160401b038111156127ca576127ca6126db565b6127dd601f8201601f19166020016126f1565b8181528460208386010111156127f257600080fd5b816020850160208301376000918101602001919091529392505050565b600080600080600060a0868803121561282757600080fd5b853561283281612443565b9450602086013561284281612443565b935060408601356001600160401b038082111561285e57600080fd5b61286a89838a01612721565b9450606088013591508082111561288057600080fd5b61288c89838a01612721565b935060808801359150808211156128a257600080fd5b506128af888289016127a0565b9150509295509295909350565b600080600080600060a086880312156128d457600080fd5b85356128df81612443565b945060208601356128ef81612443565b9350604086013592506060860135915060808601356001600160401b0381111561291857600080fd5b6128af888289016127a0565b600080600080600060a0868803121561293c57600080fd5b853561294781612443565b9450602086013561295781612443565b9350604086013561296781612443565b9250606086013561297781612443565b949793965091946080013592915050565b634e487b7160e01b600052601160045260246000fd5b600082198211156129b1576129b1612988565b500190565b60008160001904831182151516156129d0576129d0612988565b500290565b6000826129f257634e487b7160e01b600052601260045260246000fd5b500490565b600060208284031215612a0957600080fd5b81356114cd81612443565b600060208284031215612a2657600080fd5b5051919050565b634e487b7160e01b600052603260045260246000fd5b600082821015612a5557612a55612988565b500390565b600060018201612a6c57612a6c612988565b5060010190565b600081518084526020808501945080840160005b83811015612aa357815187529582019590820190600101612a87565b509495945050505050565b60005b83811015612ac9578181015183820152602001612ab1565b83811115612ad8576000848401525b50505050565b60008151808452612af6816020860160208601612aae565b601f01601f19169290920160200192915050565b6001600160a01b0385168152608060208201819052600090612b2e90830186612a73565b8281036040840152612b408186612a73565b905082810360608401526127958185612ade565b600060208284031215612b6657600080fd5b815180151581146114cd57600080fd5b6001600160a01b0384168152606060208201819052600090612b9a90830185612a73565b8281036040840152612bac8185612a73565b9695505050505050565b60208082526028908201527f4d61726b65743a2052656d6f76616c20616c726561647920696e2061637469766040820152676520737570706c7960c01b606082015260800190565b7f416363657373436f6e74726f6c3a206163636f756e7420000000000000000000815260008351612c36816017850160208801612aae565b7001034b99036b4b9b9b4b733903937b6329607d1b6017918401918201528351612c67816028840160208801612aae565b01602801949350505050565b6020815260006114cd6020830184612ade565b634e487b7160e01b600052603160045260246000fd5b600081612cab57612cab612988565b506000190190565b600181815b80851115612cee578160001904821115612cd457612cd4612988565b80851615612ce157918102915b93841c9390800290612cb8565b509250929050565b600082612d0557506001610eb4565b81612d1257506000610eb4565b8160018114612d285760028114612d3257612d4e565b6001915050610eb4565b60ff841115612d4357612d43612988565b50506001821b610eb4565b5060208310610133831016604e8410600b8410161715612d71575081810a610eb4565b612d7b8383612cb3565b8060001904821115612d8f57612d8f612988565b029392505050565b60006114cd8383612cf656fea2646970667358221220671d009d06335a685514d1d4a2039000d73156ce76ed9b3f547b8b640e43e42764736f6c634300080d0033",
  "linkReferences": {},
  "deployedLinkReferences": {}
}