{
  "_format": "hh-sol-artifact-1",
  "contractName": "FIFOMarket",
  "sourceName": "contracts/FIFOMarket.sol",
  "abi": [
    {
      "inputs": [],
      "stateMutability": "nonpayable",
      "type": "constructor"
    },
    {
      "anonymous": false,
      "inputs": [
        {
          "indexed": false,
          "internalType": "uint8",
          "name": "version",
          "type": "uint8"
        }
      ],
      "name": "Initialized",
      "type": "event"
    },
    {
      "anonymous": false,
      "inputs": [
        {
          "indexed": false,
          "internalType": "uint256",
          "name": "threshold",
          "type": "uint256"
        }
      ],
      "name": "PriorityRestrictedThresholdSet",
      "type": "event"
    },
    {
      "anonymous": false,
      "inputs": [
        {
          "indexed": true,
          "internalType": "bytes32",
          "name": "role",
          "type": "bytes32"
        },
        {
          "indexed": true,
          "internalType": "bytes32",
          "name": "previousAdminRole",
          "type": "bytes32"
        },
        {
          "indexed": true,
          "internalType": "bytes32",
          "name": "newAdminRole",
          "type": "bytes32"
        }
      ],
      "name": "RoleAdminChanged",
      "type": "event"
    },
    {
      "anonymous": false,
      "inputs": [
        {
          "indexed": true,
          "internalType": "bytes32",
          "name": "role",
          "type": "bytes32"
        },
        {
          "indexed": true,
          "internalType": "address",
          "name": "account",
          "type": "address"
        },
        {
          "indexed": true,
          "internalType": "address",
          "name": "sender",
          "type": "address"
        }
      ],
      "name": "RoleGranted",
      "type": "event"
    },
    {
      "anonymous": false,
      "inputs": [
        {
          "indexed": true,
          "internalType": "bytes32",
          "name": "role",
          "type": "bytes32"
        },
        {
          "indexed": true,
          "internalType": "address",
          "name": "account",
          "type": "address"
        },
        {
          "indexed": true,
          "internalType": "address",
          "name": "sender",
          "type": "address"
        }
      ],
      "name": "RoleRevoked",
      "type": "event"
    },
    {
      "inputs": [],
      "name": "ALLOWLIST_ROLE",
      "outputs": [
        {
          "internalType": "bytes32",
          "name": "",
          "type": "bytes32"
        }
      ],
      "stateMutability": "view",
      "type": "function"
    },
    {
      "inputs": [],
      "name": "DEFAULT_ADMIN_ROLE",
      "outputs": [
        {
          "internalType": "bytes32",
          "name": "",
          "type": "bytes32"
        }
      ],
      "stateMutability": "view",
      "type": "function"
    },
    {
      "inputs": [],
      "name": "activeSupplierCount",
      "outputs": [
        {
          "internalType": "uint256",
          "name": "",
          "type": "uint256"
        }
      ],
      "stateMutability": "view",
      "type": "function"
    },
    {
      "inputs": [
        {
          "internalType": "bytes32",
          "name": "role",
          "type": "bytes32"
        }
      ],
      "name": "getRoleAdmin",
      "outputs": [
        {
          "internalType": "bytes32",
          "name": "",
          "type": "bytes32"
        }
      ],
      "stateMutability": "view",
      "type": "function"
    },
    {
      "inputs": [
        {
          "internalType": "bytes32",
          "name": "role",
          "type": "bytes32"
        },
        {
          "internalType": "uint256",
          "name": "index",
          "type": "uint256"
        }
      ],
      "name": "getRoleMember",
      "outputs": [
        {
          "internalType": "address",
          "name": "",
          "type": "address"
        }
      ],
      "stateMutability": "view",
      "type": "function"
    },
    {
      "inputs": [
        {
          "internalType": "bytes32",
          "name": "role",
          "type": "bytes32"
        }
      ],
      "name": "getRoleMemberCount",
      "outputs": [
        {
          "internalType": "uint256",
          "name": "",
          "type": "uint256"
        }
      ],
      "stateMutability": "view",
      "type": "function"
    },
    {
      "inputs": [
        {
          "internalType": "bytes32",
          "name": "role",
          "type": "bytes32"
        },
        {
          "internalType": "address",
          "name": "account",
          "type": "address"
        }
      ],
      "name": "grantRole",
      "outputs": [],
      "stateMutability": "nonpayable",
      "type": "function"
    },
    {
      "inputs": [
        {
          "internalType": "bytes32",
          "name": "role",
          "type": "bytes32"
        },
        {
          "internalType": "address",
          "name": "account",
          "type": "address"
        }
      ],
      "name": "hasRole",
      "outputs": [
        {
          "internalType": "bool",
          "name": "",
          "type": "bool"
        }
      ],
      "stateMutability": "view",
      "type": "function"
    },
    {
      "inputs": [
        {
          "internalType": "address",
          "name": "removalAddress",
          "type": "address"
        },
        {
          "internalType": "address",
          "name": "bridgedPolygonNoriAddress",
          "type": "address"
        },
        {
          "internalType": "address",
          "name": "certificateAddress",
          "type": "address"
        },
        {
          "internalType": "address",
          "name": "restrictedNoriAddress",
          "type": "address"
        },
        {
          "internalType": "address",
          "name": "noriFeeWalletAddress",
          "type": "address"
        },
        {
          "internalType": "uint256",
          "name": "noriFee",
          "type": "uint256"
        }
      ],
      "name": "initialize",
      "outputs": [],
      "stateMutability": "nonpayable",
      "type": "function"
    },
    {
      "inputs": [],
      "name": "numberOfActiveNrtsInMarketComputed",
      "outputs": [
        {
          "internalType": "uint256",
          "name": "",
          "type": "uint256"
        }
      ],
      "stateMutability": "view",
      "type": "function"
    },
    {
      "inputs": [
        {
          "internalType": "address",
          "name": "",
          "type": "address"
        },
        {
          "internalType": "address",
          "name": "",
          "type": "address"
        },
        {
          "internalType": "uint256[]",
          "name": "ids",
          "type": "uint256[]"
        },
        {
          "internalType": "uint256[]",
          "name": "",
          "type": "uint256[]"
        },
        {
          "internalType": "bytes",
          "name": "data",
          "type": "bytes"
        }
      ],
      "name": "onERC1155BatchReceived",
      "outputs": [
        {
          "internalType": "bytes4",
          "name": "",
          "type": "bytes4"
        }
      ],
      "stateMutability": "nonpayable",
      "type": "function"
    },
    {
      "inputs": [
        {
          "internalType": "address",
          "name": "",
          "type": "address"
        },
        {
          "internalType": "address",
          "name": "",
          "type": "address"
        },
        {
          "internalType": "uint256",
          "name": "",
          "type": "uint256"
        },
        {
          "internalType": "uint256",
          "name": "",
          "type": "uint256"
        },
        {
          "internalType": "bytes",
          "name": "",
          "type": "bytes"
        }
      ],
      "name": "onERC1155Received",
      "outputs": [
        {
          "internalType": "bytes4",
          "name": "",
          "type": "bytes4"
        }
      ],
      "stateMutability": "nonpayable",
      "type": "function"
    },
    {
      "inputs": [],
      "name": "priorityRestrictedThreshold",
      "outputs": [
        {
          "internalType": "uint256",
          "name": "",
          "type": "uint256"
        }
      ],
      "stateMutability": "view",
      "type": "function"
    },
    {
      "inputs": [
        {
          "internalType": "bytes32",
          "name": "role",
          "type": "bytes32"
        },
        {
          "internalType": "address",
          "name": "account",
          "type": "address"
        }
      ],
      "name": "renounceRole",
      "outputs": [],
      "stateMutability": "nonpayable",
      "type": "function"
    },
    {
      "inputs": [
        {
          "internalType": "uint256",
          "name": "removalId",
          "type": "uint256"
        }
      ],
      "name": "reserveRemoval",
      "outputs": [
        {
          "internalType": "bool",
          "name": "",
          "type": "bool"
        }
      ],
      "stateMutability": "nonpayable",
      "type": "function"
    },
    {
      "inputs": [
        {
          "internalType": "bytes32",
          "name": "role",
          "type": "bytes32"
        },
        {
          "internalType": "address",
          "name": "account",
          "type": "address"
        }
      ],
      "name": "revokeRole",
      "outputs": [],
      "stateMutability": "nonpayable",
      "type": "function"
    },
    {
      "inputs": [
        {
          "internalType": "uint256",
          "name": "threshold",
          "type": "uint256"
        }
      ],
      "name": "setPriorityRestrictedThreshold",
      "outputs": [],
      "stateMutability": "nonpayable",
      "type": "function"
    },
    {
      "inputs": [
        {
          "internalType": "bytes4",
          "name": "interfaceId",
          "type": "bytes4"
        }
      ],
      "name": "supportsInterface",
      "outputs": [
        {
          "internalType": "bool",
          "name": "",
          "type": "bool"
        }
      ],
      "stateMutability": "view",
      "type": "function"
    },
    {
      "inputs": [
        {
          "internalType": "address",
          "name": "recipient",
          "type": "address"
        },
        {
          "internalType": "uint256",
          "name": "amount",
          "type": "uint256"
        },
        {
          "internalType": "uint256",
          "name": "deadline",
          "type": "uint256"
        },
        {
          "internalType": "uint8",
          "name": "v",
          "type": "uint8"
        },
        {
          "internalType": "bytes32",
          "name": "r",
          "type": "bytes32"
        },
        {
          "internalType": "bytes32",
          "name": "s",
          "type": "bytes32"
        }
      ],
      "name": "swap",
      "outputs": [],
      "stateMutability": "nonpayable",
      "type": "function"
    },
    {
      "inputs": [],
      "name": "totalActiveSupply",
      "outputs": [
        {
          "internalType": "uint256",
          "name": "",
          "type": "uint256"
        }
      ],
      "stateMutability": "view",
      "type": "function"
    },
    {
      "inputs": [],
      "name": "totalNumberActiveRemovals",
      "outputs": [
        {
          "internalType": "uint256",
          "name": "",
          "type": "uint256"
        }
      ],
      "stateMutability": "view",
      "type": "function"
    },
    {
      "inputs": [],
      "name": "totalReservedSupply",
      "outputs": [
        {
          "internalType": "uint256",
          "name": "",
          "type": "uint256"
        }
      ],
      "stateMutability": "view",
      "type": "function"
    },
    {
      "inputs": [],
      "name": "totalUnrestrictedSupply",
      "outputs": [
        {
          "internalType": "uint256",
          "name": "",
          "type": "uint256"
        }
      ],
      "stateMutability": "view",
      "type": "function"
    },
    {
      "inputs": [
        {
          "internalType": "uint256",
          "name": "removalId",
          "type": "uint256"
        }
      ],
      "name": "unreserveRemoval",
      "outputs": [
        {
          "internalType": "bool",
          "name": "",
          "type": "bool"
        }
      ],
      "stateMutability": "nonpayable",
      "type": "function"
    }
  ],
  "bytecode": "0x6080604052346200002557620000146200002a565b506040516139949081620000ee8239f35b600080fd5b60005460ff8160081c16600014620000875760405162461bcd60e51b815260206004820152602e602482015260008051602062003a8283398151915260448201526d191e481a5b9a5d1a585b1a5e995960921b6064820152608490fd5b60ff8082161015620000a25760ff191660ff17600055600190565b60405162461bcd60e51b815260206004820152602e602482015260008051602062003a8283398151915260448201526d191e481a5b9a5d1a585b1a5e995960921b6064820152608490fdfe608080604052600436101561001357600080fd5b600090813560e01c90816301ffc9a7146125735750806312de2b0514612536578063179f0445146124f9578063248a9ca3146124ae5780632f2ff15d146123a65780633030b5321461234d578063361b7b9d1461231057806336568abe1461222b5780633eb12cee1461205a57806359e1a71c14611df7578063674d13c814611dba5780637206926414611d7d5780637530b45014611d3c5780639010d07c14611ccc57806391d1485414611c5957806395b6ef0c1461192757806397a11ee91461166f578063a217fddf14611635578063bc197c81146112db578063ca15c87314611293578063ce0ec474146104fd578063d547741f1461049c578063d797462f146101bc5763f23a6e611461012957600080fd5b346101b95760a07ffffffffffffffffffffffffffffffffffffffffffffffffffffffffffffffffc3601126101b9576101606126c5565b5061016961269d565b5060843567ffffffffffffffff81116101b55761018a9036906004016127eb565b5060206040517ff23a6e61000000000000000000000000000000000000000000000000000000008152f35b5080fd5b80fd5b50346101b9576020807ffffffffffffffffffffffffffffffffffffffffffffffffffffffffffffffffc3601126101b5576004356000805260658252604060002033600052825260ff60406000205416156102455790817f7ab6aa6547859e9ca74d567d44fefa0d63272ac019f4ebf9333032a62ea06fa59261013355604051908152a1604051f35b5061024f33612bc0565b90600060405161025e81612718565b6042815282810191606036843781511561046f5760308353815160019081101561044257607860218401536041905b8082116103c35750506103665761031893610327926048926040519687937f416363657373436f6e74726f6c3a206163636f756e7420000000000000000000888601526102e3815180928a603789019101612a4a565b8401917f206973206d697373696e6720726f6c6520000000000000000000000000000000603784015251809386840190612a4a565b01036028810185520183612734565b6103626040519283927f08c379a000000000000000000000000000000000000000000000000000000000845260048401526024830190612a7f565b0390fd5b606483604051907f08c379a000000000000000000000000000000000000000000000000000000000825280600483015260248201527f537472696e67733a20686578206c656e67746820696e73756666696369656e746044820152fd5b9091600f8116906010821015610413577f303132333435363738396162636465660000000000000000000000000000000061040d921a6104038587612b84565b5360041c92612b95565b9061028d565b7f4e487b7100000000000000000000000000000000000000000000000000000000600052603260045260246000fd5b6024827f4e487b710000000000000000000000000000000000000000000000000000000081526032600452fd5b807f4e487b7100000000000000000000000000000000000000000000000000000000602492526032600452fd5b50346101b95760407ffffffffffffffffffffffffffffffffffffffffffffffffffffffffffffffffc3601126101b9576104f86004356104da61269d565b9080845260656020526104f36001604086200154612860565b612ac2565b604051f35b50346101b95760c07ffffffffffffffffffffffffffffffffffffffffffffffffffffffffffffffffc3601126101b9576105356126c5565b60643560ff8116810361128f576101355480156112315761013354101561116f575b6024357fffffffffffffffffffffffffffffffffffffffffffffffffffffffffffffffff04606411602435151516611142576101325480196064116111155760640180156110e8576064602435020491829161013454906105b78261331c565b926105c18361331c565b7fffffffffffffffffffffffffffffffffffffffffffffffffffffffffffffffe06106046105ee86612775565b956105fc6040519788612734565b808752612775565b0136602086013787965b61013454808910156110db5773ffffffffffffffffffffffffffffffffffffffff6101385416808b5261013a60205260408b2060018101548c5260205260408b208054156110ae578b526020808c205461012d546040517efdd58e0000000000000000000000000000000000000000000000000000000081523060048201526024810183905291949192908390604490829073ffffffffffffffffffffffffffffffffffffffff165afa9182156110a3578d9261106b575b5081851015610df1575050506106dc8988613308565b526106e78883613308565b5273ffffffffffffffffffffffffffffffffffffffff610138541661070c8886613308565b5261071888975b6131de565b871561072d57610727906131de565b9661060e565b90919293949596505b61073f8161331c565b916107498261331c565b96895b838110610db7575050505073ffffffffffffffffffffffffffffffffffffffff61012d5416928760405180957f018e1c8300000000000000000000000000000000000000000000000000000000825281806107ab8730600484016132db565b03915afa938415610d88578894610d93575b508773ffffffffffffffffffffffffffffffffffffffff61012f541691823b156101b55760e460ff918360405195869485937fd505accf0000000000000000000000000000000000000000000000000000000085523360048601523060248601526024356044860152604435606486015216608484015260843560a484015260a43560c48401525af18015610d8857610d75575b50865b8151811015610b1d576108678187613308565b516108728286613308565b5114610ab9575b6108906108868288613308565b5161013554612e51565b6101355560646108a08288613308565b51049061013254827fffffffffffffffffffffffffffffffffffffffffffffffffffffffffffffffff04811183151516610a8a576020610954936108e4848b613308565b5161012f54610131546040517f23b872dd00000000000000000000000000000000000000000000000000000000815233600482015273ffffffffffffffffffffffffffffffffffffffff9182166024820152939095026044840152919590938692169082908e9082906064820190565b03925af1908115610a7f57610a0993602092610a62575b5073ffffffffffffffffffffffffffffffffffffffff61012f541673ffffffffffffffffffffffffffffffffffffffff6109a5858b613308565b51168c6040518097819582947f23b872dd000000000000000000000000000000000000000000000000000000008452336004850160409194939294606082019573ffffffffffffffffffffffffffffffffffffffff80921683521660208201520152565b03925af1918215610a5757610a2392610a28575b506131de565b610854565b610a499060203d602011610a50575b610a418183612734565b81019061336b565b5038610a1d565b503d610a37565b6040513d8b823e3d90fd5b610a7890833d8511610a5057610a418183612734565b503861096b565b6040513d8c823e3d90fd5b7f4e487b7100000000000000000000000000000000000000000000000000000000600052601160045260246000fd5b6101345460018110610af0577fffffffffffffffffffffffffffffffffffffffffffffffffffffffffffffffff0161013455610879565b6024897f4e487b710000000000000000000000000000000000000000000000000000000081526011600452fd5b50925093905073ffffffffffffffffffffffffffffffffffffffff61012e54169360405191602083015260208252604082019180831067ffffffffffffffff841117610d4657869583604052803b15610d425783877fffffffffffffffffffffffffffffffffffffffffffffffffffffffffffffffc0829473ffffffffffffffffffffffffffffffffffffffff83977f1f7fdffa00000000000000000000000000000000000000000000000000000000865216604482015260806064820152610c31610bec60c483018b6132a7565b610c217fffffffffffffffffffffffffffffffffffffffffffffffffffffffffffffffbc91828582030160848601528d6132a7565b908382030160a484015282612a7f565b0301925af1908115610d37578491610d1f575b505073ffffffffffffffffffffffffffffffffffffffff61012d541691823b15610d1a57610ce692610cb6858094604051968795869485937f6b20c4540000000000000000000000000000000000000000000000000000000085523060048601526060602486015260648501906132a7565b907ffffffffffffffffffffffffffffffffffffffffffffffffffffffffffffffffc8483030160448501526132a7565b03925af18015610d0f57610cfb575b50604051f35b610d04906126e8565b6101b9578038610cf5565b6040513d84823e3d90fd5b505050fd5b610d28906126e8565b610d33578238610c44565b5050fd5b6040513d86823e3d90fd5b8680fd5b7f4e487b7100000000000000000000000000000000000000000000000000000000600052604160045260246000fd5b610d81909791976126e8565b9538610851565b6040513d8a823e3d90fd5b610db09194503d808a833e610da88183612734565b81019061322d565b92386107bd565b80610dc5610dec9284613308565b51610dd08288613308565b52610ddb8185613308565b51610de6828c613308565b526131de565b61074c565b6001819c959294939c1061103e577fffffffffffffffffffffffffffffffffffffffffffffffffffffffffffffffff01841480611035575b610fd757610e7092610e5e9183610e40878d613308565b5281610e4c8789613308565b528c610e58878c613308565b52612e51565b998b5261013a60205260408b2061374a565b15610f53576107189073ffffffffffffffffffffffffffffffffffffffff6101385416808b5261013a602052600260408c20015415600014610ecf575061071373ffffffffffffffffffffffffffffffffffffffff61013854166134fc565b61013960205260408b206001015473ffffffffffffffffffffffffffffffffffffffff16146107135761071361013880547fffffffffffffffffffffffff000000000000000000000000000000000000000073ffffffffffffffffffffffffffffffffffffffff808316600052610139602052600160406000200154169116179055565b60846040517f08c379a000000000000000000000000000000000000000000000000000000000815260206004820152602c60248201527f4d61726b65743a204661696c656420746f2072656d6f76652072656d6f76616c60448201527f2066726f6d20737570706c7900000000000000000000000000000000000000006064820152fd5b60646040517f08c379a000000000000000000000000000000000000000000000000000000000815260206004820152601960248201527f4d61726b65743a204e6f7420656e6f75676820737570706c79000000000000006044820152fd5b50828111610e29565b60248d7f4e487b710000000000000000000000000000000000000000000000000000000081526011600452fd5b9091506020813d60201161109b575b8161108760209383612734565b81010312611097575190386106c6565b8c80fd5b3d915061107a565b6040513d8f823e3d90fd5b60248c7f4e487b710000000000000000000000000000000000000000000000000000000081526032600452fd5b5050909192939495610736565b6024847f4e487b710000000000000000000000000000000000000000000000000000000081526012600452fd5b6024847f4e487b710000000000000000000000000000000000000000000000000000000081526011600452fd5b6024837f4e487b710000000000000000000000000000000000000000000000000000000081526011600452fd5b7f26a560d834a19637eccba4611bbc09fb32970bb627da0a70f14f83fdc9822cbc835260656020526040832033845260205260ff6040842054166105575760846040517f08c379a000000000000000000000000000000000000000000000000000000000815260206004820152602560248201527f4c6f7720737570706c7920616e64206275796572206e6f74206f6e20616c6c6f60448201527f776c6973740000000000000000000000000000000000000000000000000000006064820152fd5b60646040517f08c379a000000000000000000000000000000000000000000000000000000000815260206004820152601460248201527f4d61726b65743a204f7574206f662073746f636b0000000000000000000000006044820152fd5b8280fd5b50346101b95760207ffffffffffffffffffffffffffffffffffffffffffffffffffffffffffffffffc3601126101b95760406020916004358152609783522054604051908152f35b50346101b95760a07ffffffffffffffffffffffffffffffffffffffffffffffffffffffffffffffffc3601126101b9576113136126c5565b5061131c61269d565b5067ffffffffffffffff604480358281116116315761133f90369060040161278d565b6064803584811161162d5761135890369060040161278d565b50608493843590811161162d576113739036906004016127eb565b9373ffffffffffffffffffffffffffffffffffffffff938461012d5416908760405180937f018e1c8300000000000000000000000000000000000000000000000000000000825281806113ca8a30600484016132db565b03915afa918215610d88578892611611575b50879485939084805b825189101561154657888a6114216113fd8387613308565b51604061141160209483861c16958c613308565b519685815261013a8552206136e2565b156114c55791818c8f61013961144d9660409896835252600196879120015416156114b6575b50612b78565b957ffffffffffffffffffffffffffffffffffffffffffffffffffffffffffffffffe8111611489578b916114829101986131de565b97956113e5565b60248c7f4e487b710000000000000000000000000000000000000000000000000000000081526011600452fd5b6114bf90613383565b38611447565b85907f2076696e746167650000000000000000000000000000000000000000000000008b7f4d61726b65743a20556e61626c6520746f206164642072656d6f76616c2062798a604051947f08c379a0000000000000000000000000000000000000000000000000000000008652600486015260286024860152840152820152fd5b898b888493611559610135918254612b78565b9055611569610134918254612b78565b9055602081805181010312610d335760200151906101305416803b15610d33576024839260405195869384927ff6f57a2e00000000000000000000000000000000000000000000000000000000845260048401525af190811561160557506115f6575b60206040517fbc197c81000000000000000000000000000000000000000000000000000000008152f35b6115ff906126e8565b806115cc565b604051903d90823e3d90fd5b6116269192503d808a833e610da88183612734565b90386113dc565b8580fd5b8380fd5b50346101b957807ffffffffffffffffffffffffffffffffffffffffffffffffffffffffffffffffc3601126101b957602090604051908152f35b50346101b9576020807ffffffffffffffffffffffffffffffffffffffffffffffffffffffffffffffffc3601126101b55760043573ffffffffffffffffffffffffffffffffffffffff8082841c16906116c783612e5c565b156118a35761013480547ffffffffffffffffffffffffffffffffffffffffffffffffffffffffffffffffe811161187657600101905561012d546040517efdd58e0000000000000000000000000000000000000000000000000000000081523060048201526024810185905291859183916044918391165afa90811561186b578591611839575b50936040916117999495610135611766828254612b78565b9055611776610136918254612e51565b905580825261013a90818752600284842001541561182b575b82528552206136e2565b156117a75760405160018152f35b608490604051907f08c379a00000000000000000000000000000000000000000000000000000000082526004820152602360248201527f4d61726b65743a20556e61626c6520746f20756e726573657276652072656d6f60448201527f76616c00000000000000000000000000000000000000000000000000000000006064820152fd5b61183481613383565b61178f565b90508381813d8311611864575b6118508183612734565b810103126118605751604061174e565b8480fd5b503d611846565b6040513d87823e3d90fd5b6024877f4e487b710000000000000000000000000000000000000000000000000000000081526011600452fd5b608484604051907f08c379a00000000000000000000000000000000000000000000000000000000082526004820152602660248201527f4d61726b65743a2072656d6f76616c206e6f7420696e2072657365727665642060448201527f737570706c7900000000000000000000000000000000000000000000000000006064820152fd5b50346101b95760c07ffffffffffffffffffffffffffffffffffffffffffffffffffffffffffffffffc3601126101b95761195f6126c5565b61196761269d565b906044359173ffffffffffffffffffffffffffffffffffffffff92838116809103611860576064359084821680920361162d5760843592858416809403610d42576119b0613180565b9586611c2a575b6119eb60ff895460081c166119cb8161306a565b6119d48161306a565b6119dd8161306a565b6119e68161306a565b61306a565b7fffffffffffffffffffffffff0000000000000000000000000000000000000000958161012d91168782541617905561012f91168582541617905561012e90848254161790556101309083825416179055610131908282541617905560a4356101325582610133558261013555826101365582610134556101389081541690558180526020906065825260408320338452825260ff60408420541615611bbf575b82805260978252611aa03360408520612e02565b507f26a560d834a19637eccba4611bbc09fb32970bb627da0a70f14f83fdc9822cbc8084526065835260408420338552835260ff60408520541615611b54575b835260978252611af33360408520612e02565b50611afe5750604051f35b7f7f26b83ff96e1f2b6a682f133852f6798a09c465da95921460cefb3847402498907fffffffffffffffffffffffffffffffffffffffffffffffffffffffffffff00ff835416835560405160018152a138610cf5565b808452606583526040842033855283526040842060017fffffffffffffffffffffffffffffffffffffffffffffffffffffffffffffff008254161790553333827f2f8788117e7eff1d82e926ec794901d17c78024a50270940304540a733656f0d87604051a4611ae0565b828052606582526040832033845282526040832060017fffffffffffffffffffffffffffffffffffffffffffffffffffffffffffffff008254161790553333847f2f8788117e7eff1d82e926ec794901d17c78024a50270940304540a733656f0d81604051a4611a8c565b6101007fffffffffffffffffffffffffffffffffffffffffffffffffffffffffffff00ff8954161788556119b7565b50346101b95760407ffffffffffffffffffffffffffffffffffffffffffffffffffffffffffffffffc3601126101b95760ff6040602092611c9861269d565b60043582526065855273ffffffffffffffffffffffffffffffffffffffff8383209116825284522054166040519015158152f35b50346101b95760407ffffffffffffffffffffffffffffffffffffffffffffffffffffffffffffffffc3601126101b95773ffffffffffffffffffffffffffffffffffffffff611d2c60209260043581526097845260406024359120612d26565b9190546040519260031b1c168152f35b50346101b957807ffffffffffffffffffffffffffffffffffffffffffffffffffffffffffffffffc3601126101b9576020611d7561320b565b604051908152f35b50346101b957807ffffffffffffffffffffffffffffffffffffffffffffffffffffffffffffffffc3601126101b957602061013554604051908152f35b50346101b957807ffffffffffffffffffffffffffffffffffffffffffffffffffffffffffffffffc3601126101b957602061013654604051908152f35b50346101b9576020807ffffffffffffffffffffffffffffffffffffffffffffffffffffffffffffffffc3601126101b55760043573ffffffffffffffffffffffffffffffffffffffff8082841c169081855261013a90818552611e5d846040882061374a565b15611fd75761012d546040517efdd58e0000000000000000000000000000000000000000000000000000000081523060048201526024810186905291869183916044918391165afa908115611fcc578691611f9f575b50610135611ec2828254612e51565b9055611ed2610136918254612b78565b905561013480546001811061187657956002926040927fffffffffffffffffffffffffffffffffffffffffffffffffffffffffffffffff611f259899019055848252875220015415611f90575b50612d3e565b15611f335760405160018152f35b606490604051907f08c379a000000000000000000000000000000000000000000000000000000000825280600483015260248201527f4d61726b65743a2052656d6f76616c20616c72656164792072657365727665646044820152fd5b611f99906134fc565b38611f1f565b90508481813d8311611fc5575b611fb68183612734565b8101031261162d575138611eb3565b503d611fac565b6040513d88823e3d90fd5b608485604051907f08c379a000000000000000000000000000000000000000000000000000000000825260048201526024808201527f4d61726b65743a2072656d6f76616c206e6f7420696e2061637469766520737560448201527f70706c79000000000000000000000000000000000000000000000000000000006064820152fd5b50346101b957807ffffffffffffffffffffffffffffffffffffffffffffffffffffffffffffffffc3601126101b9578073ffffffffffffffffffffffffffffffffffffffff80610138541691809261013754938361012d5416915b8582106120c757602087604051908152f35b84169586845260209061013a8252604085209085916001810154906002810154915b8281111561211f57505050610139929161210291612b78565b9785525261211984600160408620015416916131de565b906120b5565b8089528186526040892054896121348261331c565b815b858a8583106121fb575050509061217c9291604051809481927f018e1c8300000000000000000000000000000000000000000000000000000000835230600484016132db565b03818d5afa9182156121f0578b926121d4575b50908a915b8083106121ac575050506121a7906131de565b6120e9565b9091966121c76121cd916121c08a86613308565b5190612b78565b976131de565b9190612194565b6121e99192503d808d833e610da88183612734565b903861218f565b6040513d8d823e3d90fd5b6040856122129385938a6122239899525220612d26565b90549060031b1c610de68285613308565b908b91612136565b50346101b95760407ffffffffffffffffffffffffffffffffffffffffffffffffffffffffffffffffc3601126101b95761226361269d565b3373ffffffffffffffffffffffffffffffffffffffff82160361228c576104f890600435612ac2565b60846040517f08c379a000000000000000000000000000000000000000000000000000000000815260206004820152602f60248201527f416363657373436f6e74726f6c3a2063616e206f6e6c792072656e6f756e636560448201527f20726f6c657320666f722073656c6600000000000000000000000000000000006064820152fd5b50346101b957807ffffffffffffffffffffffffffffffffffffffffffffffffffffffffffffffffc3601126101b957602061013754604051908152f35b50346101b957807ffffffffffffffffffffffffffffffffffffffffffffffffffffffffffffffffc3601126101b95760206040517f26a560d834a19637eccba4611bbc09fb32970bb627da0a70f14f83fdc9822cbc8152f35b50346101b95760407ffffffffffffffffffffffffffffffffffffffffffffffffffffffffffffffffc3601126101b957610cf560043560976123e661269d565b91808552602090606582526124016001604088200154612860565b8086526065825273ffffffffffffffffffffffffffffffffffffffff60408720941693848752825260ff60408720541615612443575b85525260408320612e02565b808652606582526040862084875282526040862060017fffffffffffffffffffffffffffffffffffffffffffffffffffffffffffffff008254161790553384827f2f8788117e7eff1d82e926ec794901d17c78024a50270940304540a733656f0d89604051a4612437565b50346101b95760207ffffffffffffffffffffffffffffffffffffffffffffffffffffffffffffffffc3601126101b95760016040602092600435815260658452200154604051908152f35b50346101b957807ffffffffffffffffffffffffffffffffffffffffffffffffffffffffffffffffc3601126101b957602061013454604051908152f35b50346101b957807ffffffffffffffffffffffffffffffffffffffffffffffffffffffffffffffffc3601126101b957602061013354604051908152f35b9050346101b55760207ffffffffffffffffffffffffffffffffffffffffffffffffffffffffffffffffc3601126101b5576004357fffffffff00000000000000000000000000000000000000000000000000000000811680910361128f57602092507f5a05180f000000000000000000000000000000000000000000000000000000008114801561264b575b80918115612610575b505015158152f35b7f4e2312e0000000000000000000000000000000000000000000000000000000001491508115612643575b503880612608565b90503861263b565b507f7965db0b000000000000000000000000000000000000000000000000000000008114806125ff57507f01ffc9a70000000000000000000000000000000000000000000000000000000081146125ff565b6024359073ffffffffffffffffffffffffffffffffffffffff821682036126c057565b600080fd5b6004359073ffffffffffffffffffffffffffffffffffffffff821682036126c057565b67ffffffffffffffff8111610d4657604052565b6040810190811067ffffffffffffffff821117610d4657604052565b6080810190811067ffffffffffffffff821117610d4657604052565b90601f7fffffffffffffffffffffffffffffffffffffffffffffffffffffffffffffffe0910116810190811067ffffffffffffffff821117610d4657604052565b67ffffffffffffffff8111610d465760051b60200190565b81601f820112156126c0578035916127a483612775565b926127b26040519485612734565b808452602092838086019260051b8201019283116126c0578301905b8282106127dc575050505090565b813581529083019083016127ce565b81601f820112156126c05780359067ffffffffffffffff8211610d46576040519261283e60207fffffffffffffffffffffffffffffffffffffffffffffffffffffffffffffffe0601f8601160185612734565b828452602083830101116126c057816000926020809301838601378301015290565b60009080825260209060658252604092838120338252835260ff84822054161561288a5750505050565b61289333612bc0565b918451906128a082612718565b6042825284820192606036853782511561046f576030845382516001908110156104425790607860218501536041915b8083116129cb5750505061296f5760486103629386936129399361292a98519889937f416363657373436f6e74726f6c3a206163636f756e74200000000000000000008a8601526102e3815180928c603789019101612a4a565b01036028810187520185612734565b519283927f08c379a000000000000000000000000000000000000000000000000000000000845260048401526024830190612a7f565b6064848651907f08c379a000000000000000000000000000000000000000000000000000000000825280600483015260248201527f537472696e67733a20686578206c656e67746820696e73756666696369656e746044820152fd5b909192600f81166010811015612a1d57907f3031323334353637383961626364656600000000000000000000000000000000612a16921a612a0c8688612b84565b5360041c93612b95565b91906128d0565b6024847f4e487b710000000000000000000000000000000000000000000000000000000081526032600452fd5b918091926000905b828210612a6a575011612a63575050565b6000910152565b91508060209183015181860152018291612a52565b907fffffffffffffffffffffffffffffffffffffffffffffffffffffffffffffffe0601f602093612abb81518092818752878088019101612a4a565b0116010190565b90612b0e916000818152606560205260409173ffffffffffffffffffffffffffffffffffffffff83832094169384835260205260ff8383205416612b11575b8152609760205220612f87565b50565b80825260656020528282208483526020528282207fffffffffffffffffffffffffffffffffffffffffffffffffffffffffffffff0081541690553384827ff6391f5c32d9c69d2a47ea670b442974b53935d1edc7fd64eb21e047a839171b858751a4612b01565b81198111610a8a570190565b908151811015610413570160200190565b8015610a8a577fffffffffffffffffffffffffffffffffffffffffffffffffffffffffffffffff0190565b604051906060820182811067ffffffffffffffff821117610d4657604052602a82526020820160403682378251156104135760309053815160019081101561041357607860218401536029905b808211612c7b575050612c1d5790565b60646040517f08c379a000000000000000000000000000000000000000000000000000000000815260206004820152602060248201527f537472696e67733a20686578206c656e67746820696e73756666696369656e746044820152fd5b9091600f8116906010821015612cc1577f3031323334353637383961626364656600000000000000000000000000000000612cbb921a6104038587612b84565b90612c0d565b602460007f4e487b710000000000000000000000000000000000000000000000000000000081526032600452fd5b61013b8054821015610413576000527fe1abe72d20e3d8bbb0a91fbb1c3cdd65253a0a0af97f17849f67ad7b3d1a6a620190600090565b80548210156104135760005260206000200190600090565b9060009180835261013c9283602052604081205415600014612dfd5761013b9384549468010000000000000000861015612dd05783612dc0612d89886001604098999a018555612cef565b819391549060031b7fffffffffffffffffffffffffffffffffffffffffffffffffffffffffffffffff811b9283911b169119161790565b9055549382526020522055600190565b6024837f4e487b710000000000000000000000000000000000000000000000000000000081526041600452fd5b925050565b91906001830160009082825280602052604082205415600014612e4b5784549468010000000000000000861015612dd05783612dc0612d89886001604098999a01855584612d26565b50925050565b818110610a8a570390565b60009080825261013c90816020526040832054801515600014612f815760018110611115577fffffffffffffffffffffffffffffffffffffffffffffffffffffffffffffffff908181019061013b91825460018110612f5457840190808203612f21575b50505080548015612ef457820191612ed783612cef565b909182549160031b1b191690555582526020526040812055600190565b6024867f4e487b710000000000000000000000000000000000000000000000000000000081526031600452fd5b612f3f612f30612d8993612cef565b90549060031b1c928392612cef565b90558652846020526040862055388080612ec0565b6024887f4e487b710000000000000000000000000000000000000000000000000000000081526011600452fd5b50505090565b906001820190600092818452826020526040842054908115156000146130635760018210613036577fffffffffffffffffffffffffffffffffffffffffffffffffffffffffffffffff91828101825460018110612f5457840190808203613001575b50505080548015612ef457820191612ed78383612d26565b613021613011612d899386612d26565b90549060031b1c92839286612d26565b90558652846020526040862055388080612fe9565b6024857f4e487b710000000000000000000000000000000000000000000000000000000081526011600452fd5b5050505090565b1561307157565b60846040517f08c379a000000000000000000000000000000000000000000000000000000000815260206004820152602b60248201527f496e697469616c697a61626c653a20636f6e7472616374206973206e6f74206960448201527f6e697469616c697a696e670000000000000000000000000000000000000000006064820152fd5b156130fc57565b60846040517f08c379a000000000000000000000000000000000000000000000000000000000815260206004820152602e60248201527f496e697469616c697a61626c653a20636f6e747261637420697320616c72656160448201527f647920696e697469616c697a65640000000000000000000000000000000000006064820152fd5b60005460ff8160081c166000146131a2575061319d303b156130f5565b600090565b7fffffffffffffffffffffffffffffffffffffffffffffffffffffffffffffff00816131d4600160ff819516106130f5565b1617600055600190565b7fffffffffffffffffffffffffffffffffffffffffffffffffffffffffffffffff8114610a8a5760010190565b61013554610133548082106132265761322391612e51565b90565b5050600090565b60209081818403126126c05780519067ffffffffffffffff82116126c057019180601f840112156126c057825161326381612775565b936132716040519586612734565b818552838086019260051b8201019283116126c0578301905b828210613298575050505090565b8151815290830190830161328a565b90815180825260208080930193019160005b8281106132c7575050505090565b8351855293810193928101926001016132b9565b60409073ffffffffffffffffffffffffffffffffffffffff613223949316815281602082015201906132a7565b80518210156104135760209160051b010190565b9061332682612775565b6133336040519182612734565b8281527fffffffffffffffffffffffffffffffffffffffffffffffffffffffffffffffe06133618294612775565b0190602036910137565b908160209103126126c0575180151581036126c05790565b610138805473ffffffffffffffffffffffffffffffffffffffff929083168061345857508216917fffffffffffffffffffffffff0000000000000000000000000000000000000000918383825416179055604051604081019080821067ffffffffffffffff831117610d465760019160405284815260208101948086526000526101396020528260406000209151168482541617815501925116908254161790555b61013780547ffffffffffffffffffffffffffffffffffffffffffffffffffffffffffffffffe8111610a8a576001019055565b90926000908282526101399384602052604093828086862054169786519861347f8a6126fc565b895260208901928352169586855260205282600181878720995116987fffffffffffffffffffffffff0000000000000000000000000000000000000000998a825416178155019151168782541617905581815416835281848420541683526001848420018587825416179055541681522091825416179055613425565b73ffffffffffffffffffffffffffffffffffffffff8091169060009180835261013980602052600192838160408183828a20015416861460001461361b576101387fffffffffffffffffffffffff000000000000000000000000000000000000000081541690555b805194613570866126fc565b888652602086019689885289526020528720935116927fffffffffffffffffffffffff0000000000000000000000000000000000000000938482541617815501925116908254161790556101379182549182106135ee57507fffffffffffffffffffffffffffffffffffffffffffffffffffffffffffffffff019055565b807f4e487b7100000000000000000000000000000000000000000000000000000000602492526011600452fd5b8183828a2001541682828a205416895283828a20017fffffffffffffffffffffffff0000000000000000000000000000000000000000918282541617905586895282828a2054168385848c200154168a52828a20918254161790558161013854168603613564576136dd61013880547fffffffffffffffffffffffff000000000000000000000000000000000000000073ffffffffffffffffffffffffffffffffffffffff808316600052610139602052600160406000200154169116179055565b613564565b906132239161ffff8260e01c168060028301805480156000146137185750816001850155555b6000526020526040600020612e02565b9060018501918254841060001461373157505055613708565b9091508211613742575b5050613708565b55803861373b565b9061ffff8160e01c169060009282845260209181835261376e604091828720612f87565b156138db57838552818352808520541561378d575b5050505050600190565b60019182810193845460028301968754918281146000146137de57505050505050507fffffffffffffffffffffffffffffffffffffffffffffffffffffffffffffffff9055555b3880808080613783565b819996999893949597981460001461387057505085547ffffffffffffffffffffffffffffffffffffffffffffffffffffffffffffffffe8111613036578701875b613831575b50505050505050506137d4565b8154811161386b578085528383528585205461385657613850906131de565b8761381f565b96505050505050553880808080808080613824565b613824565b91969181146138865750505050505050506137d4565b878110613036577fffffffffffffffffffffffffffffffffffffffffffffffffffffffffffffffff01875b15613824578154811061386b5780855283835285852054613856576138d590612b95565b876138b1565b8260849151907f08c379a00000000000000000000000000000000000000000000000000000000082526004820152602860248201527f4d61726b65743a206661696c656420746f2072656d6f766520636f727265637460448201527f2072656d6f76616c0000000000000000000000000000000000000000000000006064820152fdfea2646970667358221220f283dbc08936496e39d150a9b54e5e22672eb359f3e5966138c81655752a387164736f6c634300080f0033496e697469616c697a61626c653a20636f6e747261637420697320616c726561",
  "linkReferences": {},
  "deployedLinkReferences": {}
}