{
  "_format": "hh-sol-artifact-1",
  "contractName": "FIFOMarket",
  "sourceName": "contracts/FIFOMarket.sol",
  "abi": [
    {
      "anonymous": false,
      "inputs": [
        {
          "indexed": true,
          "internalType": "bytes32",
          "name": "role",
          "type": "bytes32"
        },
        {
          "indexed": true,
          "internalType": "bytes32",
          "name": "previousAdminRole",
          "type": "bytes32"
        },
        {
          "indexed": true,
          "internalType": "bytes32",
          "name": "newAdminRole",
          "type": "bytes32"
        }
      ],
      "name": "RoleAdminChanged",
      "type": "event"
    },
    {
      "anonymous": false,
      "inputs": [
        {
          "indexed": true,
          "internalType": "bytes32",
          "name": "role",
          "type": "bytes32"
        },
        {
          "indexed": true,
          "internalType": "address",
          "name": "account",
          "type": "address"
        },
        {
          "indexed": true,
          "internalType": "address",
          "name": "sender",
          "type": "address"
        }
      ],
      "name": "RoleGranted",
      "type": "event"
    },
    {
      "anonymous": false,
      "inputs": [
        {
          "indexed": true,
          "internalType": "bytes32",
          "name": "role",
          "type": "bytes32"
        },
        {
          "indexed": true,
          "internalType": "address",
          "name": "account",
          "type": "address"
        },
        {
          "indexed": true,
          "internalType": "address",
          "name": "sender",
          "type": "address"
        }
      ],
      "name": "RoleRevoked",
      "type": "event"
    },
    {
      "inputs": [],
      "name": "DEFAULT_ADMIN_ROLE",
      "outputs": [
        {
          "internalType": "bytes32",
          "name": "",
          "type": "bytes32"
        }
      ],
      "stateMutability": "view",
      "type": "function"
    },
    {
      "inputs": [
        {
          "internalType": "bytes32",
          "name": "role",
          "type": "bytes32"
        }
      ],
      "name": "getRoleAdmin",
      "outputs": [
        {
          "internalType": "bytes32",
          "name": "",
          "type": "bytes32"
        }
      ],
      "stateMutability": "view",
      "type": "function"
    },
    {
      "inputs": [
        {
          "internalType": "bytes32",
          "name": "role",
          "type": "bytes32"
        },
        {
          "internalType": "uint256",
          "name": "index",
          "type": "uint256"
        }
      ],
      "name": "getRoleMember",
      "outputs": [
        {
          "internalType": "address",
          "name": "",
          "type": "address"
        }
      ],
      "stateMutability": "view",
      "type": "function"
    },
    {
      "inputs": [
        {
          "internalType": "bytes32",
          "name": "role",
          "type": "bytes32"
        }
      ],
      "name": "getRoleMemberCount",
      "outputs": [
        {
          "internalType": "uint256",
          "name": "",
          "type": "uint256"
        }
      ],
      "stateMutability": "view",
      "type": "function"
    },
    {
      "inputs": [
        {
          "internalType": "bytes32",
          "name": "role",
          "type": "bytes32"
        },
        {
          "internalType": "address",
          "name": "account",
          "type": "address"
        }
      ],
      "name": "grantRole",
      "outputs": [],
      "stateMutability": "nonpayable",
      "type": "function"
    },
    {
      "inputs": [
        {
          "internalType": "bytes32",
          "name": "role",
          "type": "bytes32"
        },
        {
          "internalType": "address",
          "name": "account",
          "type": "address"
        }
      ],
      "name": "hasRole",
      "outputs": [
        {
          "internalType": "bool",
          "name": "",
          "type": "bool"
        }
      ],
      "stateMutability": "view",
      "type": "function"
    },
    {
      "inputs": [
        {
          "internalType": "address",
          "name": "removalAddress",
          "type": "address"
        },
        {
          "internalType": "address",
          "name": "noriAddress",
          "type": "address"
        },
        {
          "internalType": "address",
          "name": "certificateAddress",
          "type": "address"
        },
        {
          "internalType": "address",
          "name": "noriFeeWalletAddress",
          "type": "address"
        },
        {
          "internalType": "uint256",
          "name": "noriFee",
          "type": "uint256"
        }
      ],
      "name": "initialize",
      "outputs": [],
      "stateMutability": "nonpayable",
      "type": "function"
    },
    {
      "inputs": [],
      "name": "numberOfTonnesInQueue",
      "outputs": [
        {
          "internalType": "uint256",
          "name": "",
          "type": "uint256"
        }
      ],
      "stateMutability": "view",
      "type": "function"
    },
    {
      "inputs": [
        {
          "internalType": "address",
          "name": "operator",
          "type": "address"
        },
        {
          "internalType": "address",
          "name": "from",
          "type": "address"
        },
        {
          "internalType": "uint256[]",
          "name": "ids",
          "type": "uint256[]"
        },
        {
          "internalType": "uint256[]",
          "name": "values",
          "type": "uint256[]"
        },
        {
          "internalType": "bytes",
          "name": "data",
          "type": "bytes"
        }
      ],
      "name": "onERC1155BatchReceived",
      "outputs": [
        {
          "internalType": "bytes4",
          "name": "",
          "type": "bytes4"
        }
      ],
      "stateMutability": "nonpayable",
      "type": "function"
    },
    {
      "inputs": [
        {
          "internalType": "address",
          "name": "",
          "type": "address"
        },
        {
          "internalType": "address",
          "name": "",
          "type": "address"
        },
        {
          "internalType": "uint256",
          "name": "",
          "type": "uint256"
        },
        {
          "internalType": "uint256",
          "name": "",
          "type": "uint256"
        },
        {
          "internalType": "bytes",
          "name": "",
          "type": "bytes"
        }
      ],
      "name": "onERC1155Received",
      "outputs": [
        {
          "internalType": "bytes4",
          "name": "",
          "type": "bytes4"
        }
      ],
      "stateMutability": "nonpayable",
      "type": "function"
    },
    {
      "inputs": [
        {
          "internalType": "bytes32",
          "name": "role",
          "type": "bytes32"
        },
        {
          "internalType": "address",
          "name": "account",
          "type": "address"
        }
      ],
      "name": "renounceRole",
      "outputs": [],
      "stateMutability": "nonpayable",
      "type": "function"
    },
    {
      "inputs": [
        {
          "internalType": "bytes32",
          "name": "role",
          "type": "bytes32"
        },
        {
          "internalType": "address",
          "name": "account",
          "type": "address"
        }
      ],
      "name": "revokeRole",
      "outputs": [],
      "stateMutability": "nonpayable",
      "type": "function"
    },
    {
      "inputs": [
        {
          "internalType": "bytes4",
          "name": "interfaceId",
          "type": "bytes4"
        }
      ],
      "name": "supportsInterface",
      "outputs": [
        {
          "internalType": "bool",
          "name": "",
          "type": "bool"
        }
      ],
      "stateMutability": "view",
      "type": "function"
    },
    {
      "inputs": [
        {
          "internalType": "address",
          "name": "operator",
          "type": "address"
        },
        {
          "internalType": "address",
          "name": "from",
          "type": "address"
        },
        {
          "internalType": "address",
          "name": "to",
          "type": "address"
        },
        {
          "internalType": "uint256",
          "name": "amount",
          "type": "uint256"
        },
        {
          "internalType": "bytes",
          "name": "userData",
          "type": "bytes"
        },
        {
          "internalType": "bytes",
          "name": "operatorData",
          "type": "bytes"
        }
      ],
      "name": "tokensReceived",
      "outputs": [],
      "stateMutability": "nonpayable",
      "type": "function"
    }
  ],
  "bytecode": "0x608060405234801561001057600080fd5b50611ceb806100206000396000f3fe608060405234801561001057600080fd5b50600436106100e95760003560e01c806391d148541161008c578063ca15c87311610066578063ca15c873146101fc578063d547741f1461020f578063f23a6e6114610222578063f7013ef61461024157600080fd5b806391d14854146101b5578063a217fddf146101c8578063bc197c81146101d057600080fd5b80632f2ff15d116100c85780632f2ff15d1461015c57806336568abe1461016f5780633fb305aa146101825780639010d07c1461018a57600080fd5b806223de29146100ee57806301ffc9a714610103578063248a9ca31461012b575b600080fd5b6101016100fc366004611524565b610254565b005b6101166101113660046115d5565b610ae7565b60405190151581526020015b60405180910390f35b61014e6101393660046115ff565b60009081526065602052604090206001015490565b604051908152602001610122565b61010161016a366004611618565b610b07565b61010161017d366004611618565b610b32565b61014e610bb0565b61019d610198366004611648565b610c76565b6040516001600160a01b039091168152602001610122565b6101166101c3366004611618565b610c95565b61014e600081565b6101e36101de3660046117a1565b610cc0565b6040516001600160e01b03199091168152602001610122565b61014e61020a3660046115ff565b610d21565b61010161021d366004611618565b610d38565b6101e361023036600461184f565b63f23a6e6160e01b95945050505050565b61010161024f3660046118b8565b610d5e565b60006102628486018661191c565b9050610272565b60405180910390fd5b6001600160a01b0381166102d95760405162461bcd60e51b815260206004820152602860248201527f4649464f4d61726b65743a2043616e6e6f74206d696e7420746f207468652030604482015267206164647265737360c01b6064820152608401610269565b610130546001600160a01b0316331461034c5760405162461bcd60e51b815260206004820152602f60248201527f4649464f4d61726b65743a205468697320636f6e74726163742063616e206f6e60448201526e6c792072656365697665204e4f524960881b6064820152608401610269565b85600061035a610131610ee6565b67ffffffffffffffff8111156103725761037261166a565b60405190808252806020026020018201604052801561039b578160200160208202803683370190505b50905060006103ab610131610ee6565b67ffffffffffffffff8111156103c3576103c361166a565b6040519080825280602002602001820160405280156103ec578160200160208202803683370190505b50905060006103fc610131610ee6565b67ffffffffffffffff8111156104145761041461166a565b60405190808252806020026020018201604052801561043d578160200160208202803683370190505b50905060005b61044e610131610ee6565b81101561075b5761012e546000906001600160a01b031662fdd58e3061047661013186610ef0565b6040516001600160e01b031960e085901b1681526001600160a01b0390921660048301526024820152604401602060405180830381865afa1580156104bf573d6000803e3d6000fd5b505050506040513d601f19601f820116820180604052508101906104e39190611939565b61012e549091506000906001600160a01b031663737fa58961050761013186610ef0565b6040518263ffffffff1660e01b815260040161052591815260200190565b6040805180830381865afa158015610541573d6000803e3d6000fd5b505050506040513d601f19601f820116820180604052508101906105659190611952565b519050818710156105f55761057c61013184610ef0565b86848151811061058e5761058e6119b8565b602002602001018181525050868584815181106105ad576105ad6119b8565b602002602001018181525050808484815181106105cc576105cc6119b8565b60200260200101906001600160a01b031690816001600160a01b0316815250506000965061073a565b8187106106f2576001610609610131610ee6565b61061391906119e4565b8314801561062057508187115b1561066d5760405162461bcd60e51b815260206004820152601d60248201527f4649464f4d61726b65743a204e6f7420656e6f75676820737570706c790000006044820152606401610269565b61067961013184610ef0565b86848151811061068b5761068b6119b8565b602002602001018181525050818584815181106106aa576106aa6119b8565b602002602001018181525050808484815181106106c9576106c96119b8565b6001600160a01b03909216602092830291909101909101526106eb82886119e4565b965061073a565b60405162461bcd60e51b815260206004820152601d60248201527f4649464f4d61726b65743a204e6f7420656e6f75676820737570706c790000006044820152606401610269565b8661074657505061075b565b50508080610753906119fb565b915050610443565b5060008a60405160200161077191815260200190565b60408051601f198184030181529082905261012f54630fbfeffd60e11b83529092506001600160a01b031690631f7fdffa906107b7908990889088908790600401611aad565b600060405180830381600087803b1580156107d157600080fd5b505af11580156107e5573d6000803e3d6000fd5b5050505060005b8451811015610a6f57838181518110610807576108076119b8565b60200260200101516000141561081c57610a6f565b61012e546001600160a01b031662fdd58e3061083a61013185610ef0565b6040516001600160e01b031960e085901b1681526001600160a01b0390921660048301526024820152604401602060405180830381865afa158015610883573d6000803e3d6000fd5b505050506040513d601f19601f820116820180604052508101906108a79190611939565b8482815181106108b9576108b96119b8565b602002602001015114156108d5576108d361013182610efc565b505b60006101345460648684815181106108ef576108ef6119b8565b60200260200101516109019190611af7565b61090b9190611b19565b9050600081868481518110610922576109226119b8565b602002602001015161093491906119e4565b610130546101335460405163a9059cbb60e01b81526001600160a01b03918216600482015260248101869052929350169063a9059cbb906044016020604051808303816000875af115801561098d573d6000803e3d6000fd5b505050506040513d601f19601f820116820180604052508101906109b19190611b38565b506101305485516001600160a01b039091169063a9059cbb908790869081106109dc576109dc6119b8565b6020026020010151836040518363ffffffff1660e01b8152600401610a169291906001600160a01b03929092168252602082015260400190565b6020604051808303816000875af1158015610a35573d6000803e3d6000fd5b505050506040513d601f19601f82011682018060405250810190610a599190611b38565b5050508080610a67906119fb565b9150506107ec565b5061012e54604051631ac8311560e21b81526001600160a01b0390911690636b20c45490610aa590309088908890600401611b5a565b600060405180830381600087803b158015610abf57600080fd5b505af1158015610ad3573d6000803e3d6000fd5b505050505050505050505050505050505050565b6000610af282610f08565b80610b015750610b0182610f2d565b92915050565b600082815260656020526040902060010154610b238133610f52565b610b2d8383610fb6565b505050565b6001600160a01b0381163314610ba25760405162461bcd60e51b815260206004820152602f60248201527f416363657373436f6e74726f6c3a2063616e206f6e6c792072656e6f756e636560448201526e103937b632b9903337b91039b2b63360891b6064820152608401610269565b610bac8282610fd8565b5050565b600080805b610bc0610131610ee6565b811015610c705761012e546001600160a01b031662fdd58e30610be561013185610ef0565b6040516001600160e01b031960e085901b1681526001600160a01b0390921660048301526024820152604401602060405180830381865afa158015610c2e573d6000803e3d6000fd5b505050506040513d601f19601f82011682018060405250810190610c529190611939565b610c5c9083611b9a565b915080610c68816119fb565b915050610bb5565b50919050565b6000828152609760205260408120610c8e9083610ef0565b9392505050565b60009182526065602090815260408084206001600160a01b0393909316845291905290205460ff1690565b6000805b8451811015610d0e57610cfb858281518110610ce257610ce26119b8565b6020026020010151610131610ffa90919063ffffffff16565b5080610d06816119fb565b915050610cc4565b5063bc197c8160e01b9695505050505050565b6000818152609760205260408120610b0190610ee6565b600082815260656020526040902060010154610d548133610f52565b610b2d8383610fd8565b600054610100900460ff1680610d77575060005460ff16155b610d935760405162461bcd60e51b815260040161026990611bb2565b600054610100900460ff16158015610db5576000805461ffff19166101011790555b610dbd611006565b610dc5611006565b610dcd611006565b610dd5611006565b610ddd611006565b61012e80546001600160a01b03199081166001600160a01b03898116919091179092556101308054821688841617905561012f80548216878416179055610133805482169286169290921790915561013483905561012d8054731820a4b7618bde71dce8cdc73aab6c95905fad249216821790556040516329965a1d60e01b815230600482018190527fb281fc8c12954d22544db45de3159a39272895b169a852b314f9cc762e44c53b602483015260448201526329965a1d90606401600060405180830381600087803b158015610eb457600080fd5b505af1158015610ec8573d6000803e3d6000fd5b505050508015610ede576000805461ff00191690555b505050505050565b6000610b01825490565b6000610c8e8383611072565b6000610c8e838361109c565b60006001600160e01b03198216635a05180f60e01b1480610b015750610b018261118f565b60006001600160e01b03198216630271189760e51b1480610b015750610b0182610f08565b610f5c8282610c95565b610bac57610f74816001600160a01b031660146111c4565b610f7f8360206111c4565b604051602001610f90929190611c00565b60408051601f198184030181529082905262461bcd60e51b825261026991600401611c75565b610fc08282611360565b6000828152609760205260409020610b2d90826113e6565b610fe282826113fb565b6000828152609760205260409020610b2d9082611462565b6000610c8e8383611477565b600054610100900460ff168061101f575060005460ff16155b61103b5760405162461bcd60e51b815260040161026990611bb2565b600054610100900460ff1615801561105d576000805461ffff19166101011790555b801561106f576000805461ff00191690555b50565b6000826000018281548110611089576110896119b8565b9060005260206000200154905092915050565b600081815260018301602052604081205480156111855760006110c06001836119e4565b85549091506000906110d4906001906119e4565b90508181146111395760008660000182815481106110f4576110f46119b8565b9060005260206000200154905080876000018481548110611117576111176119b8565b6000918252602080832090910192909255918252600188019052604090208390555b855486908061114a5761114a611c88565b600190038181906000526020600020016000905590558560010160008681526020019081526020016000206000905560019350505050610b01565b6000915050610b01565b60006001600160e01b03198216637965db0b60e01b1480610b0157506301ffc9a760e01b6001600160e01b0319831614610b01565b606060006111d3836002611b19565b6111de906002611b9a565b67ffffffffffffffff8111156111f6576111f661166a565b6040519080825280601f01601f191660200182016040528015611220576020820181803683370190505b509050600360fc1b8160008151811061123b5761123b6119b8565b60200101906001600160f81b031916908160001a905350600f60fb1b8160018151811061126a5761126a6119b8565b60200101906001600160f81b031916908160001a905350600061128e846002611b19565b611299906001611b9a565b90505b6001811115611311576f181899199a1a9b1b9c1cb0b131b232b360811b85600f16601081106112cd576112cd6119b8565b1a60f81b8282815181106112e3576112e36119b8565b60200101906001600160f81b031916908160001a90535060049490941c9361130a81611c9e565b905061129c565b508315610c8e5760405162461bcd60e51b815260206004820181905260248201527f537472696e67733a20686578206c656e67746820696e73756666696369656e746044820152606401610269565b61136a8282610c95565b610bac5760008281526065602090815260408083206001600160a01b03851684529091529020805460ff191660011790556113a23390565b6001600160a01b0316816001600160a01b0316837f2f8788117e7eff1d82e926ec794901d17c78024a50270940304540a733656f0d60405160405180910390a45050565b6000610c8e836001600160a01b038416611477565b6114058282610c95565b15610bac5760008281526065602090815260408083206001600160a01b0385168085529252808320805460ff1916905551339285917ff6391f5c32d9c69d2a47ea670b442974b53935d1edc7fd64eb21e047a839171b9190a45050565b6000610c8e836001600160a01b03841661109c565b60008181526001830160205260408120546114be57508154600181810184556000848152602080822090930184905584548482528286019093526040902091909155610b01565b506000610b01565b6001600160a01b038116811461106f57600080fd5b60008083601f8401126114ed57600080fd5b50813567ffffffffffffffff81111561150557600080fd5b60208301915083602082850101111561151d57600080fd5b9250929050565b60008060008060008060008060c0898b03121561154057600080fd5b883561154b816114c6565b9750602089013561155b816114c6565b9650604089013561156b816114c6565b955060608901359450608089013567ffffffffffffffff8082111561158f57600080fd5b61159b8c838d016114db565b909650945060a08b01359150808211156115b457600080fd5b506115c18b828c016114db565b999c989b5096995094979396929594505050565b6000602082840312156115e757600080fd5b81356001600160e01b031981168114610c8e57600080fd5b60006020828403121561161157600080fd5b5035919050565b6000806040838503121561162b57600080fd5b82359150602083013561163d816114c6565b809150509250929050565b6000806040838503121561165b57600080fd5b50508035926020909101359150565b634e487b7160e01b600052604160045260246000fd5b604051601f8201601f1916810167ffffffffffffffff811182821017156116a9576116a961166a565b604052919050565b600082601f8301126116c257600080fd5b8135602067ffffffffffffffff8211156116de576116de61166a565b8160051b6116ed828201611680565b928352848101820192828101908785111561170757600080fd5b83870192505b848310156117265782358252918301919083019061170d565b979650505050505050565b600082601f83011261174257600080fd5b813567ffffffffffffffff81111561175c5761175c61166a565b61176f601f8201601f1916602001611680565b81815284602083860101111561178457600080fd5b816020850160208301376000918101602001919091529392505050565b600080600080600060a086880312156117b957600080fd5b85356117c4816114c6565b945060208601356117d4816114c6565b9350604086013567ffffffffffffffff808211156117f157600080fd5b6117fd89838a016116b1565b9450606088013591508082111561181357600080fd5b61181f89838a016116b1565b9350608088013591508082111561183557600080fd5b5061184288828901611731565b9150509295509295909350565b600080600080600060a0868803121561186757600080fd5b8535611872816114c6565b94506020860135611882816114c6565b93506040860135925060608601359150608086013567ffffffffffffffff8111156118ac57600080fd5b61184288828901611731565b600080600080600060a086880312156118d057600080fd5b85356118db816114c6565b945060208601356118eb816114c6565b935060408601356118fb816114c6565b9250606086013561190b816114c6565b949793965091946080013592915050565b60006020828403121561192e57600080fd5b8135610c8e816114c6565b60006020828403121561194b57600080fd5b5051919050565b60006040828403121561196457600080fd5b6040516040810181811067ffffffffffffffff821117156119875761198761166a565b6040528251611995816114c6565b8152602083015161ffff811681146119ac57600080fd5b60208201529392505050565b634e487b7160e01b600052603260045260246000fd5b634e487b7160e01b600052601160045260246000fd5b6000828210156119f6576119f66119ce565b500390565b6000600019821415611a0f57611a0f6119ce565b5060010190565b600081518084526020808501945080840160005b83811015611a4657815187529582019590820190600101611a2a565b509495945050505050565b60005b83811015611a6c578181015183820152602001611a54565b83811115611a7b576000848401525b50505050565b60008151808452611a99816020860160208601611a51565b601f01601f19169290920160200192915050565b6001600160a01b0385168152608060208201819052600090611ad190830186611a16565b8281036040840152611ae38186611a16565b905082810360608401526117268185611a81565b600082611b1457634e487b7160e01b600052601260045260246000fd5b500490565b6000816000190483118215151615611b3357611b336119ce565b500290565b600060208284031215611b4a57600080fd5b81518015158114610c8e57600080fd5b6001600160a01b0384168152606060208201819052600090611b7e90830185611a16565b8281036040840152611b908185611a16565b9695505050505050565b60008219821115611bad57611bad6119ce565b500190565b6020808252602e908201527f496e697469616c697a61626c653a20636f6e747261637420697320616c72656160408201526d191e481a5b9a5d1a585b1a5e995960921b606082015260800190565b7f416363657373436f6e74726f6c3a206163636f756e7420000000000000000000815260008351611c38816017850160208801611a51565b7001034b99036b4b9b9b4b733903937b6329607d1b6017918401918201528351611c69816028840160208801611a51565b01602801949350505050565b602081526000610c8e6020830184611a81565b634e487b7160e01b600052603160045260246000fd5b600081611cad57611cad6119ce565b50600019019056fea26469706673582212202ef9cc3f0e45fb165c3970dd5ac7128e3754bc1ad057f96ffbbfb8daf8535f3864736f6c634300080a0033",
  "linkReferences": {},
  "deployedLinkReferences": {}
}