{
  "_format": "hh-sol-artifact-1",
  "contractName": "FIFOMarket",
  "sourceName": "contracts/FIFOMarket.sol",
  "abi": [
    {
      "anonymous": false,
      "inputs": [
        {
          "indexed": false,
          "internalType": "uint256",
          "name": "threshold",
          "type": "uint256"
        }
      ],
      "name": "PriorityRestrictedThresholdSet",
      "type": "event"
    },
    {
      "anonymous": false,
      "inputs": [
        {
          "indexed": true,
          "internalType": "bytes32",
          "name": "role",
          "type": "bytes32"
        },
        {
          "indexed": true,
          "internalType": "bytes32",
          "name": "previousAdminRole",
          "type": "bytes32"
        },
        {
          "indexed": true,
          "internalType": "bytes32",
          "name": "newAdminRole",
          "type": "bytes32"
        }
      ],
      "name": "RoleAdminChanged",
      "type": "event"
    },
    {
      "anonymous": false,
      "inputs": [
        {
          "indexed": true,
          "internalType": "bytes32",
          "name": "role",
          "type": "bytes32"
        },
        {
          "indexed": true,
          "internalType": "address",
          "name": "account",
          "type": "address"
        },
        {
          "indexed": true,
          "internalType": "address",
          "name": "sender",
          "type": "address"
        }
      ],
      "name": "RoleGranted",
      "type": "event"
    },
    {
      "anonymous": false,
      "inputs": [
        {
          "indexed": true,
          "internalType": "bytes32",
          "name": "role",
          "type": "bytes32"
        },
        {
          "indexed": true,
          "internalType": "address",
          "name": "account",
          "type": "address"
        },
        {
          "indexed": true,
          "internalType": "address",
          "name": "sender",
          "type": "address"
        }
      ],
      "name": "RoleRevoked",
      "type": "event"
    },
    {
      "inputs": [],
      "name": "ALLOWLIST_ROLE",
      "outputs": [
        {
          "internalType": "bytes32",
          "name": "",
          "type": "bytes32"
        }
      ],
      "stateMutability": "view",
      "type": "function"
    },
    {
      "inputs": [],
      "name": "DEFAULT_ADMIN_ROLE",
      "outputs": [
        {
          "internalType": "bytes32",
          "name": "",
          "type": "bytes32"
        }
      ],
      "stateMutability": "view",
      "type": "function"
    },
    {
      "inputs": [
        {
          "internalType": "bytes32",
          "name": "role",
          "type": "bytes32"
        }
      ],
      "name": "getRoleAdmin",
      "outputs": [
        {
          "internalType": "bytes32",
          "name": "",
          "type": "bytes32"
        }
      ],
      "stateMutability": "view",
      "type": "function"
    },
    {
      "inputs": [
        {
          "internalType": "bytes32",
          "name": "role",
          "type": "bytes32"
        },
        {
          "internalType": "uint256",
          "name": "index",
          "type": "uint256"
        }
      ],
      "name": "getRoleMember",
      "outputs": [
        {
          "internalType": "address",
          "name": "",
          "type": "address"
        }
      ],
      "stateMutability": "view",
      "type": "function"
    },
    {
      "inputs": [
        {
          "internalType": "bytes32",
          "name": "role",
          "type": "bytes32"
        }
      ],
      "name": "getRoleMemberCount",
      "outputs": [
        {
          "internalType": "uint256",
          "name": "",
          "type": "uint256"
        }
      ],
      "stateMutability": "view",
      "type": "function"
    },
    {
      "inputs": [
        {
          "internalType": "bytes32",
          "name": "role",
          "type": "bytes32"
        },
        {
          "internalType": "address",
          "name": "account",
          "type": "address"
        }
      ],
      "name": "grantRole",
      "outputs": [],
      "stateMutability": "nonpayable",
      "type": "function"
    },
    {
      "inputs": [
        {
          "internalType": "bytes32",
          "name": "role",
          "type": "bytes32"
        },
        {
          "internalType": "address",
          "name": "account",
          "type": "address"
        }
      ],
      "name": "hasRole",
      "outputs": [
        {
          "internalType": "bool",
          "name": "",
          "type": "bool"
        }
      ],
      "stateMutability": "view",
      "type": "function"
    },
    {
      "inputs": [
        {
          "internalType": "address",
          "name": "removalAddress",
          "type": "address"
        },
        {
          "internalType": "address",
          "name": "bridgedPolygonNoriAddress",
          "type": "address"
        },
        {
          "internalType": "address",
          "name": "certificateAddress",
          "type": "address"
        },
        {
          "internalType": "address",
          "name": "noriFeeWalletAddress",
          "type": "address"
        },
        {
          "internalType": "uint256",
          "name": "noriFee",
          "type": "uint256"
        }
      ],
      "name": "initialize",
      "outputs": [],
      "stateMutability": "nonpayable",
      "type": "function"
    },
    {
      "inputs": [],
      "name": "numberOfActiveNrtsInMarketComputed",
      "outputs": [
        {
          "internalType": "uint256",
          "name": "",
          "type": "uint256"
        }
      ],
      "stateMutability": "view",
      "type": "function"
    },
    {
      "inputs": [
        {
          "internalType": "address",
          "name": "",
          "type": "address"
        },
        {
          "internalType": "address",
          "name": "",
          "type": "address"
        },
        {
          "internalType": "uint256[]",
          "name": "ids",
          "type": "uint256[]"
        },
        {
          "internalType": "uint256[]",
          "name": "",
          "type": "uint256[]"
        },
        {
          "internalType": "bytes",
          "name": "",
          "type": "bytes"
        }
      ],
      "name": "onERC1155BatchReceived",
      "outputs": [
        {
          "internalType": "bytes4",
          "name": "",
          "type": "bytes4"
        }
      ],
      "stateMutability": "nonpayable",
      "type": "function"
    },
    {
      "inputs": [
        {
          "internalType": "address",
          "name": "",
          "type": "address"
        },
        {
          "internalType": "address",
          "name": "",
          "type": "address"
        },
        {
          "internalType": "uint256",
          "name": "",
          "type": "uint256"
        },
        {
          "internalType": "uint256",
          "name": "",
          "type": "uint256"
        },
        {
          "internalType": "bytes",
          "name": "",
          "type": "bytes"
        }
      ],
      "name": "onERC1155Received",
      "outputs": [
        {
          "internalType": "bytes4",
          "name": "",
          "type": "bytes4"
        }
      ],
      "stateMutability": "nonpayable",
      "type": "function"
    },
    {
      "inputs": [],
      "name": "priorityRestrictedThreshold",
      "outputs": [
        {
          "internalType": "uint256",
          "name": "",
          "type": "uint256"
        }
      ],
      "stateMutability": "view",
      "type": "function"
    },
    {
      "inputs": [
        {
          "internalType": "bytes32",
          "name": "role",
          "type": "bytes32"
        },
        {
          "internalType": "address",
          "name": "account",
          "type": "address"
        }
      ],
      "name": "renounceRole",
      "outputs": [],
      "stateMutability": "nonpayable",
      "type": "function"
    },
    {
      "inputs": [
        {
          "internalType": "uint256",
          "name": "removalId",
          "type": "uint256"
        }
      ],
      "name": "reserveRemoval",
      "outputs": [
        {
          "internalType": "bool",
          "name": "",
          "type": "bool"
        }
      ],
      "stateMutability": "nonpayable",
      "type": "function"
    },
    {
      "inputs": [
        {
          "internalType": "bytes32",
          "name": "role",
          "type": "bytes32"
        },
        {
          "internalType": "address",
          "name": "account",
          "type": "address"
        }
      ],
      "name": "revokeRole",
      "outputs": [],
      "stateMutability": "nonpayable",
      "type": "function"
    },
    {
      "inputs": [
        {
          "internalType": "uint256",
          "name": "threshold",
          "type": "uint256"
        }
      ],
      "name": "setPriorityRestrictedThreshold",
      "outputs": [],
      "stateMutability": "nonpayable",
      "type": "function"
    },
    {
      "inputs": [
        {
          "internalType": "bytes4",
          "name": "interfaceId",
          "type": "bytes4"
        }
      ],
      "name": "supportsInterface",
      "outputs": [
        {
          "internalType": "bool",
          "name": "",
          "type": "bool"
        }
      ],
      "stateMutability": "view",
      "type": "function"
    },
    {
      "inputs": [
        {
          "internalType": "address",
          "name": "",
          "type": "address"
        },
        {
          "internalType": "address",
          "name": "from",
          "type": "address"
        },
        {
          "internalType": "address",
          "name": "",
          "type": "address"
        },
        {
          "internalType": "uint256",
          "name": "amount",
          "type": "uint256"
        },
        {
          "internalType": "bytes",
          "name": "userData",
          "type": "bytes"
        },
        {
          "internalType": "bytes",
          "name": "",
          "type": "bytes"
        }
      ],
      "name": "tokensReceived",
      "outputs": [],
      "stateMutability": "nonpayable",
      "type": "function"
    },
    {
      "inputs": [],
      "name": "totalActiveSupply",
      "outputs": [
        {
          "internalType": "uint256",
          "name": "",
          "type": "uint256"
        }
      ],
      "stateMutability": "view",
      "type": "function"
    },
    {
      "inputs": [],
      "name": "totalNumberActiveRemovals",
      "outputs": [
        {
          "internalType": "uint256",
          "name": "",
          "type": "uint256"
        }
      ],
      "stateMutability": "view",
      "type": "function"
    },
    {
      "inputs": [],
      "name": "totalReservedSupply",
      "outputs": [
        {
          "internalType": "uint256",
          "name": "",
          "type": "uint256"
        }
      ],
      "stateMutability": "view",
      "type": "function"
    },
    {
      "inputs": [],
      "name": "totalSupply",
      "outputs": [
        {
          "internalType": "uint256",
          "name": "",
          "type": "uint256"
        }
      ],
      "stateMutability": "view",
      "type": "function"
    },
    {
      "inputs": [],
      "name": "totalUnrestrictedSupply",
      "outputs": [
        {
          "internalType": "uint256",
          "name": "",
          "type": "uint256"
        }
      ],
      "stateMutability": "view",
      "type": "function"
    },
    {
      "inputs": [
        {
          "internalType": "uint256",
          "name": "removalId",
          "type": "uint256"
        }
      ],
      "name": "unreserveRemoval",
      "outputs": [
        {
          "internalType": "bool",
          "name": "",
          "type": "bool"
        }
      ],
      "stateMutability": "nonpayable",
      "type": "function"
    }
  ],
  "bytecode": "0x608060405234801561001057600080fd5b506127ed806100206000396000f3fe608060405234801561001057600080fd5b50600436106101575760003560e01c806372069264116100c3578063bc197c811161007c578063bc197c81146102c5578063ca15c873146102f1578063d547741f14610304578063d797462f14610317578063f23a6e611461032a578063f7013ef61461034957600080fd5b8063720692641461025a5780637530b450146102645780639010d07c1461026c57806391d148541461029757806397a11ee9146102aa578063a217fddf146102bd57600080fd5b80632f2ff15d116101155780632f2ff15d146101e85780633030b532146101fb57806336568abe146102225780633eb12cee1461023557806359e1a71c1461023d578063674d13c81461025057600080fd5b806223de291461015c57806301ffc9a71461017157806312de2b0514610199578063179f0445146101b157806318160ddd146101bb578063248a9ca3146101c5575b600080fd5b61016f61016a366004611fd6565b61035c565b005b61018461017f366004612086565b610dd4565b60405190151581526020015b60405180910390f35b6101a36101335481565b604051908152602001610190565b6101a36101355481565b6101a36101345481565b6101a36101d33660046120b0565b60009081526065602052604090206001015490565b61016f6101f63660046120c9565b610df4565b6101a37f26a560d834a19637eccba4611bbc09fb32970bb627da0a70f14f83fdc9822cbc81565b61016f6102303660046120c9565b610e1f565b6101a3610e9d565b61018461024b3660046120b0565b610fc6565b6101a36101375481565b6101a36101365481565b6101a3611131565b61027f61027a3660046120f9565b61115e565b6040516001600160a01b039091168152602001610190565b6101846102a53660046120c9565b61117d565b6101846102b83660046120b0565b6111a8565b6101a3600081565b6102d86102d336600461224f565b61130f565b6040516001600160e01b03199091168152602001610190565b6101a36102ff3660046120b0565b611522565b61016f6103123660046120c9565b611539565b61016f6103253660046120b0565b61155f565b6102d86103383660046122fc565b63f23a6e6160e01b95945050505050565b61016f610357366004612364565b6115a8565b610136546000036103ab5760405162461bcd60e51b81526020600482015260146024820152734d61726b65743a204f7574206f662073746f636b60601b60448201526064015b60405180910390fd5b61013354610136541161043c576103e27f26a560d834a19637eccba4611bbc09fb32970bb627da0a70f14f83fdc9822cbc8861117d565b61043c5760405162461bcd60e51b815260206004820152602560248201527f4c6f7720737570706c7920616e64206275796572206e6f74206f6e20616c6c6f6044820152641ddb1a5cdd60da1b60648201526084016103a2565b600061013254606461044e91906123de565b6104598760646123f6565b610463919061242b565b90508060006104748688018861243f565b90506001600160a01b0381166104d85760405162461bcd60e51b8152602060048201526024808201527f4d61726b65743a2043616e6e6f74206d696e7420746f207468652030206164646044820152637265737360e01b60648201526084016103a2565b610130546001600160a01b031633146105595760405162461bcd60e51b815260206004820152603960248201527f4d61726b65743a205468697320636f6e74726163742063616e206f6e6c79207260448201527f6563656976652042726964676564506f6c79676f6e4e4f52490000000000000060648201526084016103a2565b6000610135546001600160401b038111156105765761057661211b565b60405190808252806020026020018201604052801561059f578160200160208202803683370190505b5090506000610135546001600160401b038111156105bf576105bf61211b565b6040519080825280602002602001820160405280156105e8578160200160208202803683370190505b5090506000610135546001600160401b038111156106085761060861211b565b604051908082528060200260200182016040528015610631578160200160208202803683370190505b5090506000805b61013554811015610902576000610139610138548154811061065c5761065c61245c565b60009182526020808320909101546001600160a01b031680835261013d9091526040822090925061068d90826117d8565b61012e54604051627eeac760e11b8152306004820152602481018390529192506000916001600160a01b039091169062fdd58e90604401602060405180830381865afa1580156106e1573d6000803e3d6000fd5b505050506040513d601f19601f820116820180604052508101906107059190612472565b9050808a101561078957818886815181106107225761072261245c565b602002602001018181525050898786815181106107415761074161245c565b602002602001018181525050828686815181106107605761076061245c565b60200260200101906001600160a01b031690816001600160a01b031681525050600099506108cf565b600161013554610799919061248b565b841480156107a65750808a115b156107f35760405162461bcd60e51b815260206004820152601960248201527f4d61726b65743a204e6f7420656e6f75676820737570706c790000000000000060448201526064016103a2565b818886815181106108065761080661245c565b602002602001018181525050808786815181106108255761082561245c565b602002602001018181525050828686815181106108445761084461245c565b6001600160a01b0390921660209283029190910190910152610866818b61248b565b6001600160a01b038416600090815261013d60205260409020909a5061088c90836117e4565b506001600160a01b038316600090815261013d602052604090206108af906117f0565b6000036108c7576108c2610138546117fa565b6108cf565b6108cf611922565b846108d9816124a2565b955050896000036108ec57505050610902565b50505080806108fa906124a2565b915050610638565b506000816001600160401b0381111561091d5761091d61211b565b604051908082528060200260200182016040528015610946578160200160208202803683370190505b5090506000826001600160401b038111156109635761096361211b565b60405190808252806020026020018201604052801561098c578160200160208202803683370190505b50905060005b83811015610a1b578681815181106109ac576109ac61245c565b60200260200101518382815181106109c6576109c661245c565b6020026020010181815250508581815181106109e4576109e461245c565b60200260200101518282815181106109fe576109fe61245c565b602090810291909101015280610a13816124a2565b915050610992565b50600089604051602001610a3191815260200190565b60408051601f198184030181529082905261012f54630fbfeffd60e11b83529092506001600160a01b031690631f7fdffa90610a77908b90879087908790600401612552565b600060405180830381600087803b158015610a9157600080fd5b505af1158015610aa5573d6000803e3d6000fd5b5050505060005b8351811015610d585761012e5484516001600160a01b039091169062fdd58e903090879085908110610ae057610ae061245c565b60200260200101516040518363ffffffff1660e01b8152600401610b199291906001600160a01b03929092168252602082015260400190565b602060405180830381865afa158015610b36573d6000803e3d6000fd5b505050506040513d601f19601f82011682018060405250810190610b5a9190612472565b838281518110610b6c57610b6c61245c565b602002602001015103610b935760016101356000828254610b8d919061248b565b90915550505b828181518110610ba557610ba561245c565b60200260200101516101366000828254610bbf919061248b565b925050819055506000610132546064858481518110610be057610be061245c565b6020026020010151610bf2919061242b565b610bfc91906123f6565b90506000848381518110610c1257610c1261245c565b6020908102919091010151610130546101315460405163a9059cbb60e01b81526001600160a01b03918216600482015260248101869052929350169063a9059cbb906044016020604051808303816000875af1158015610c76573d6000803e3d6000fd5b505050506040513d601f19601f82011682018060405250810190610c9a919061259c565b506101305488516001600160a01b039091169063a9059cbb908a9086908110610cc557610cc561245c565b6020026020010151836040518363ffffffff1660e01b8152600401610cff9291906001600160a01b03929092168252602082015260400190565b6020604051808303816000875af1158015610d1e573d6000803e3d6000fd5b505050506040513d601f19601f82011682018060405250810190610d42919061259c565b5050508080610d50906124a2565b915050610aac565b5061012e54604051631ac8311560e21b81526001600160a01b0390911690636b20c45490610d8e903090879087906004016125be565b600060405180830381600087803b158015610da857600080fd5b505af1158015610dbc573d6000803e3d6000fd5b50505050505050505050505050505050505050505050565b6000610ddf82611945565b80610dee5750610dee8261196a565b92915050565b600082815260656020526040902060010154610e10813361198f565b610e1a83836119f3565b505050565b6001600160a01b0381163314610e8f5760405162461bcd60e51b815260206004820152602f60248201527f416363657373436f6e74726f6c3a2063616e206f6e6c792072656e6f756e636560448201526e103937b632b9903337b91039b2b63360891b60648201526084016103a2565b610e998282611a15565b5050565b600080805b61013954811015610fc05760006101398281548110610ec357610ec361245c565b60009182526020808320909101546001600160a01b031680835261013d90915260408220909250905b610ef5826117f0565b811015610faa5761012e546000906001600160a01b031662fdd58e30610f1b86866117d8565b6040516001600160e01b031960e085901b1681526001600160a01b0390921660048301526024820152604401602060405180830381865afa158015610f64573d6000803e3d6000fd5b505050506040513d601f19601f82011682018060405250810190610f889190612472565b9050610f9481876123de565b9550508080610fa2906124a2565b915050610eec565b5050508080610fb8906124a2565b915050610ea2565b50919050565b600080610fd283611a37565b6001600160a01b038116600090815261013d60205260409020909150610ff88185611a46565b6110505760405162461bcd60e51b8152602060048201526024808201527f4d61726b65743a2072656d6f76616c206e6f7420696e2061637469766520737560448201526370706c7960e01b60648201526084016103a2565b61105a81856117e4565b506001610135600082825461106f919061248b565b909155505061012e54604051627eeac760e11b8152306004820152602481018690526000916001600160a01b03169062fdd58e90604401602060405180830381865afa1580156110c3573d6000803e3d6000fd5b505050506040513d601f19601f820116820180604052508101906110e79190612472565b90508061013660008282546110fc919061248b565b9250508190555080610137600082825461111691906123de565b90915550611128905061013b86611a5e565b95945050505050565b6000610133546101365410156111475750600090565b6101335461013654611159919061248b565b905090565b600082815260976020526040812061117690836117d8565b9392505050565b60009182526065602090815260408084206001600160a01b0393909316845291905290205460ff1690565b6000806111b483611a37565b6001600160a01b038116600090815261013d602052604090209091506111dc61013b85611a46565b6112375760405162461bcd60e51b815260206004820152602660248201527f4d61726b65743a2072656d6f76616c206e6f7420696e20726573657276656420604482015265737570706c7960d01b60648201526084016103a2565b61124361013b856117e4565b506001610135600082825461125891906123de565b909155505061012e54604051627eeac760e11b8152306004820152602481018690526000916001600160a01b03169062fdd58e90604401602060405180830381865afa1580156112ac573d6000803e3d6000fd5b505050506040513d601f19601f820116820180604052508101906112d09190612472565b90508061013660008282546112e591906123de565b925050819055508061013760008282546112ff919061248b565b9091555061112890508286611a5e565b6000805b845181101561150f5761012e5485516000916001600160a01b03169062fdd58e9030908990869081106113485761134861245c565b60200260200101516040518363ffffffff1660e01b81526004016113819291906001600160a01b03929092168252602082015260400190565b602060405180830381865afa15801561139e573d6000803e3d6000fd5b505050506040513d601f19601f820116820180604052508101906113c29190612472565b90508061013660008282546113d791906123de565b92505081905550600161013560008282546113f291906123de565b92505081905550600061141d8784815181106114105761141061245c565b6020026020010151611a37565b90506114708784815181106114345761143461245c565b602002602001015161013d6000846001600160a01b03166001600160a01b03168152602001908152602001600020611a5e90919063ffffffff16565b506001600160a01b038116600090815261013a602052604090205460ff166114fa576001600160a01b038116600081815261013a60205260408120805460ff19166001908117909155610139805491820181559091527f22d66071756d4d57920b8322c1a903a27bd75b44065e925d5f9f1c08908d28f60180546001600160a01b03191690911790555b50508080611507906124a2565b915050611313565b5063bc197c8160e01b9695505050505050565b6000818152609760205260408120610dee906117f0565b600082815260656020526040902060010154611555813361198f565b610e1a8383611a15565b600061156b813361198f565b6101338290556040518281527f7ab6aa6547859e9ca74d567d44fefa0d63272ac019f4ebf9333032a62ea06fa59060200160405180910390a15050565b600054610100900460ff166115c35760005460ff16156115c7565b303b155b61162a5760405162461bcd60e51b815260206004820152602e60248201527f496e697469616c697a61626c653a20636f6e747261637420697320616c72656160448201526d191e481a5b9a5d1a585b1a5e995960921b60648201526084016103a2565b600054610100900460ff1615801561164c576000805461ffff19166101011790555b611654611a6a565b61165c611a6a565b611664611a6a565b61166c611a6a565b611674611a6a565b61012e80546001600160a01b03199081166001600160a01b03898116919091179092556101308054821688841617905561012f80548216878416179055610131805482169286169290921790915561013283905561012d8054731820a4b7618bde71dce8cdc73aab6c95905fad249216821790556040516329965a1d60e01b815230600482018190527fb281fc8c12954d22544db45de3159a39272895b169a852b314f9cc762e44c53b602483015260448201526329965a1d90606401600060405180830381600087803b15801561174b57600080fd5b505af115801561175f573d6000803e3d6000fd5b5050600061013381905561013481905561013681905561013781905561013581905561013881905561179492509050336119f3565b6117be7f26a560d834a19637eccba4611bbc09fb32970bb627da0a70f14f83fdc9822cbc336119f3565b80156117d0576000805461ff00191690555b505050505050565b60006111768383611ad7565b60006111768383611b01565b6000610dee825490565b600061013982815481106118105761181061245c565b6000918252602090912001546001600160a01b03169050815b610139546118399060019061248b565b8110156118c65761013961184e8260016123de565b8154811061185e5761185e61245c565b60009182526020909120015461013980546001600160a01b03909216918390811061188b5761188b61245c565b600091825260209091200180546001600160a01b0319166001600160a01b0392909216919091179055806118be816124a2565b915050611829565b506101398054806118d9576118d96125fe565b60008281526020808220830160001990810180546001600160a01b03191690559092019092556001600160a01b0392909216815261013a90915260409020805460ff1916905550565b61013954610138546119359060016123de565b61193f9190612614565b61013855565b60006001600160e01b03198216635a05180f60e01b1480610dee5750610dee82611bf4565b60006001600160e01b03198216630271189760e51b1480610dee5750610dee82611945565b611999828261117d565b610e99576119b1816001600160a01b03166014611c29565b6119bc836020611c29565b6040516020016119cd929190612628565b60408051601f198184030181529082905262461bcd60e51b82526103a29160040161269d565b6119fd8282611dc4565b6000828152609760205260409020610e1a9082611e4a565b611a1f8282611e5f565b6000828152609760205260409020610e1a9082611ec6565b6000610dee8260146004611edb565b60008181526001830160205260408120541515611176565b60006111768383611f27565b600054610100900460ff16611ad55760405162461bcd60e51b815260206004820152602b60248201527f496e697469616c697a61626c653a20636f6e7472616374206973206e6f74206960448201526a6e697469616c697a696e6760a81b60648201526084016103a2565b565b6000826000018281548110611aee57611aee61245c565b9060005260206000200154905092915050565b60008181526001830160205260408120548015611bea576000611b2560018361248b565b8554909150600090611b399060019061248b565b9050818114611b9e576000866000018281548110611b5957611b5961245c565b9060005260206000200154905080876000018481548110611b7c57611b7c61245c565b6000918252602080832090910192909255918252600188019052604090208390555b8554869080611baf57611baf6125fe565b600190038181906000526020600020016000905590558560010160008681526020019081526020016000206000905560019350505050610dee565b6000915050610dee565b60006001600160e01b03198216637965db0b60e01b1480610dee57506301ffc9a760e01b6001600160e01b0319831614610dee565b60606000611c388360026123f6565b611c439060026123de565b6001600160401b03811115611c5a57611c5a61211b565b6040519080825280601f01601f191660200182016040528015611c84576020820181803683370190505b509050600360fc1b81600081518110611c9f57611c9f61245c565b60200101906001600160f81b031916908160001a905350600f60fb1b81600181518110611cce57611cce61245c565b60200101906001600160f81b031916908160001a9053506000611cf28460026123f6565b611cfd9060016123de565b90505b6001811115611d75576f181899199a1a9b1b9c1cb0b131b232b360811b85600f1660108110611d3157611d3161245c565b1a60f81b828281518110611d4757611d4761245c565b60200101906001600160f81b031916908160001a90535060049490941c93611d6e816126b0565b9050611d00565b5083156111765760405162461bcd60e51b815260206004820181905260248201527f537472696e67733a20686578206c656e67746820696e73756666696369656e7460448201526064016103a2565b611dce828261117d565b610e995760008281526065602090815260408083206001600160a01b03851684529091529020805460ff19166001179055611e063390565b6001600160a01b0316816001600160a01b0316837f2f8788117e7eff1d82e926ec794901d17c78024a50270940304540a733656f0d60405160405180910390a45050565b6000611176836001600160a01b038416611f27565b611e69828261117d565b15610e995760008281526065602090815260408083206001600160a01b0385168085529252808320805460ff1916905551339285917ff6391f5c32d9c69d2a47ea670b442974b53935d1edc7fd64eb21e047a839171b9190a45050565b6000611176836001600160a01b038416611b01565b600080611ee96008846123f6565b6001611ef66008876123f6565b611f019060026127ab565b611f0b919061248b565b901b9050848116611f1d6008856123f6565b1c95945050505050565b6000818152600183016020526040812054611f6e57508154600181810184556000848152602080822090930184905584548482528286019093526040902091909155610dee565b506000610dee565b6001600160a01b0381168114611f8b57600080fd5b50565b60008083601f840112611fa057600080fd5b5081356001600160401b03811115611fb757600080fd5b602083019150836020828501011115611fcf57600080fd5b9250929050565b60008060008060008060008060c0898b031215611ff257600080fd5b8835611ffd81611f76565b9750602089013561200d81611f76565b9650604089013561201d81611f76565b95506060890135945060808901356001600160401b038082111561204057600080fd5b61204c8c838d01611f8e565b909650945060a08b013591508082111561206557600080fd5b506120728b828c01611f8e565b999c989b5096995094979396929594505050565b60006020828403121561209857600080fd5b81356001600160e01b03198116811461117657600080fd5b6000602082840312156120c257600080fd5b5035919050565b600080604083850312156120dc57600080fd5b8235915060208301356120ee81611f76565b809150509250929050565b6000806040838503121561210c57600080fd5b50508035926020909101359150565b634e487b7160e01b600052604160045260246000fd5b604051601f8201601f191681016001600160401b03811182821017156121595761215961211b565b604052919050565b600082601f83011261217257600080fd5b813560206001600160401b0382111561218d5761218d61211b565b8160051b61219c828201612131565b92835284810182019282810190878511156121b657600080fd5b83870192505b848310156121d5578235825291830191908301906121bc565b979650505050505050565b600082601f8301126121f157600080fd5b81356001600160401b0381111561220a5761220a61211b565b61221d601f8201601f1916602001612131565b81815284602083860101111561223257600080fd5b816020850160208301376000918101602001919091529392505050565b600080600080600060a0868803121561226757600080fd5b853561227281611f76565b9450602086013561228281611f76565b935060408601356001600160401b038082111561229e57600080fd5b6122aa89838a01612161565b945060608801359150808211156122c057600080fd5b6122cc89838a01612161565b935060808801359150808211156122e257600080fd5b506122ef888289016121e0565b9150509295509295909350565b600080600080600060a0868803121561231457600080fd5b853561231f81611f76565b9450602086013561232f81611f76565b9350604086013592506060860135915060808601356001600160401b0381111561235857600080fd5b6122ef888289016121e0565b600080600080600060a0868803121561237c57600080fd5b853561238781611f76565b9450602086013561239781611f76565b935060408601356123a781611f76565b925060608601356123b781611f76565b949793965091946080013592915050565b634e487b7160e01b600052601160045260246000fd5b600082198211156123f1576123f16123c8565b500190565b6000816000190483118215151615612410576124106123c8565b500290565b634e487b7160e01b600052601260045260246000fd5b60008261243a5761243a612415565b500490565b60006020828403121561245157600080fd5b813561117681611f76565b634e487b7160e01b600052603260045260246000fd5b60006020828403121561248457600080fd5b5051919050565b60008282101561249d5761249d6123c8565b500390565b6000600182016124b4576124b46123c8565b5060010190565b600081518084526020808501945080840160005b838110156124eb578151875295820195908201906001016124cf565b509495945050505050565b60005b838110156125115781810151838201526020016124f9565b83811115612520576000848401525b50505050565b6000815180845261253e8160208601602086016124f6565b601f01601f19169290920160200192915050565b6001600160a01b0385168152608060208201819052600090612576908301866124bb565b828103604084015261258881866124bb565b905082810360608401526121d58185612526565b6000602082840312156125ae57600080fd5b8151801515811461117657600080fd5b6001600160a01b03841681526060602082018190526000906125e2908301856124bb565b82810360408401526125f481856124bb565b9695505050505050565b634e487b7160e01b600052603160045260246000fd5b60008261262357612623612415565b500690565b7f416363657373436f6e74726f6c3a206163636f756e74200000000000000000008152600083516126608160178501602088016124f6565b7001034b99036b4b9b9b4b733903937b6329607d1b60179184019182015283516126918160288401602088016124f6565b01602801949350505050565b6020815260006111766020830184612526565b6000816126bf576126bf6123c8565b506000190190565b600181815b808511156127025781600019048211156126e8576126e86123c8565b808516156126f557918102915b93841c93908002906126cc565b509250929050565b60008261271957506001610dee565b8161272657506000610dee565b816001811461273c576002811461274657612762565b6001915050610dee565b60ff841115612757576127576123c8565b50506001821b610dee565b5060208310610133831016604e8410600b8410161715612785575081810a610dee565b61278f83836126c7565b80600019048211156127a3576127a36123c8565b029392505050565b6000611176838361270a56fea2646970667358221220bdbab7670456934f346d077baa1f20cb49d1795359f0b95e413ea733577b17a664736f6c634300080d0033",
  "linkReferences": {},
  "deployedLinkReferences": {}
}