{
  "_format": "hh-sol-artifact-1",
  "contractName": "FIFOMarket",
  "sourceName": "contracts/FIFOMarket.sol",
  "abi": [
    {
      "inputs": [],
      "stateMutability": "nonpayable",
      "type": "constructor"
    },
    {
      "anonymous": false,
      "inputs": [
        {
          "indexed": false,
          "internalType": "uint8",
          "name": "version",
          "type": "uint8"
        }
      ],
      "name": "Initialized",
      "type": "event"
    },
    {
      "anonymous": false,
      "inputs": [
        {
          "indexed": false,
          "internalType": "uint256",
          "name": "threshold",
          "type": "uint256"
        }
      ],
      "name": "PriorityRestrictedThresholdSet",
      "type": "event"
    },
    {
      "anonymous": false,
      "inputs": [
        {
          "indexed": true,
          "internalType": "bytes32",
          "name": "role",
          "type": "bytes32"
        },
        {
          "indexed": true,
          "internalType": "bytes32",
          "name": "previousAdminRole",
          "type": "bytes32"
        },
        {
          "indexed": true,
          "internalType": "bytes32",
          "name": "newAdminRole",
          "type": "bytes32"
        }
      ],
      "name": "RoleAdminChanged",
      "type": "event"
    },
    {
      "anonymous": false,
      "inputs": [
        {
          "indexed": true,
          "internalType": "bytes32",
          "name": "role",
          "type": "bytes32"
        },
        {
          "indexed": true,
          "internalType": "address",
          "name": "account",
          "type": "address"
        },
        {
          "indexed": true,
          "internalType": "address",
          "name": "sender",
          "type": "address"
        }
      ],
      "name": "RoleGranted",
      "type": "event"
    },
    {
      "anonymous": false,
      "inputs": [
        {
          "indexed": true,
          "internalType": "bytes32",
          "name": "role",
          "type": "bytes32"
        },
        {
          "indexed": true,
          "internalType": "address",
          "name": "account",
          "type": "address"
        },
        {
          "indexed": true,
          "internalType": "address",
          "name": "sender",
          "type": "address"
        }
      ],
      "name": "RoleRevoked",
      "type": "event"
    },
    {
      "inputs": [],
      "name": "ALLOWLIST_ROLE",
      "outputs": [
        {
          "internalType": "bytes32",
          "name": "",
          "type": "bytes32"
        }
      ],
      "stateMutability": "view",
      "type": "function"
    },
    {
      "inputs": [],
      "name": "DEFAULT_ADMIN_ROLE",
      "outputs": [
        {
          "internalType": "bytes32",
          "name": "",
          "type": "bytes32"
        }
      ],
      "stateMutability": "view",
      "type": "function"
    },
    {
      "inputs": [],
      "name": "activeSupplierCount",
      "outputs": [
        {
          "internalType": "uint256",
          "name": "",
          "type": "uint256"
        }
      ],
      "stateMutability": "view",
      "type": "function"
    },
    {
      "inputs": [
        {
          "internalType": "bytes32",
          "name": "role",
          "type": "bytes32"
        }
      ],
      "name": "getRoleAdmin",
      "outputs": [
        {
          "internalType": "bytes32",
          "name": "",
          "type": "bytes32"
        }
      ],
      "stateMutability": "view",
      "type": "function"
    },
    {
      "inputs": [
        {
          "internalType": "bytes32",
          "name": "role",
          "type": "bytes32"
        },
        {
          "internalType": "uint256",
          "name": "index",
          "type": "uint256"
        }
      ],
      "name": "getRoleMember",
      "outputs": [
        {
          "internalType": "address",
          "name": "",
          "type": "address"
        }
      ],
      "stateMutability": "view",
      "type": "function"
    },
    {
      "inputs": [
        {
          "internalType": "bytes32",
          "name": "role",
          "type": "bytes32"
        }
      ],
      "name": "getRoleMemberCount",
      "outputs": [
        {
          "internalType": "uint256",
          "name": "",
          "type": "uint256"
        }
      ],
      "stateMutability": "view",
      "type": "function"
    },
    {
      "inputs": [
        {
          "internalType": "bytes32",
          "name": "role",
          "type": "bytes32"
        },
        {
          "internalType": "address",
          "name": "account",
          "type": "address"
        }
      ],
      "name": "grantRole",
      "outputs": [],
      "stateMutability": "nonpayable",
      "type": "function"
    },
    {
      "inputs": [
        {
          "internalType": "bytes32",
          "name": "role",
          "type": "bytes32"
        },
        {
          "internalType": "address",
          "name": "account",
          "type": "address"
        }
      ],
      "name": "hasRole",
      "outputs": [
        {
          "internalType": "bool",
          "name": "",
          "type": "bool"
        }
      ],
      "stateMutability": "view",
      "type": "function"
    },
    {
      "inputs": [
        {
          "internalType": "address",
          "name": "removalAddress",
          "type": "address"
        },
        {
          "internalType": "address",
          "name": "bridgedPolygonNoriAddress",
          "type": "address"
        },
        {
          "internalType": "address",
          "name": "certificateAddress",
          "type": "address"
        },
        {
          "internalType": "address",
          "name": "restrictedNoriAddress",
          "type": "address"
        },
        {
          "internalType": "address",
          "name": "noriFeeWalletAddress",
          "type": "address"
        },
        {
          "internalType": "uint256",
          "name": "noriFee",
          "type": "uint256"
        }
      ],
      "name": "initialize",
      "outputs": [],
      "stateMutability": "nonpayable",
      "type": "function"
    },
    {
      "inputs": [],
      "name": "numberOfActiveNrtsInMarketComputed",
      "outputs": [
        {
          "internalType": "uint256",
          "name": "",
          "type": "uint256"
        }
      ],
      "stateMutability": "view",
      "type": "function"
    },
    {
      "inputs": [
        {
          "internalType": "address",
          "name": "",
          "type": "address"
        },
        {
          "internalType": "address",
          "name": "",
          "type": "address"
        },
        {
          "internalType": "uint256[]",
          "name": "ids",
          "type": "uint256[]"
        },
        {
          "internalType": "uint256[]",
          "name": "",
          "type": "uint256[]"
        },
        {
          "internalType": "bytes",
          "name": "data",
          "type": "bytes"
        }
      ],
      "name": "onERC1155BatchReceived",
      "outputs": [
        {
          "internalType": "bytes4",
          "name": "",
          "type": "bytes4"
        }
      ],
      "stateMutability": "nonpayable",
      "type": "function"
    },
    {
      "inputs": [
        {
          "internalType": "address",
          "name": "",
          "type": "address"
        },
        {
          "internalType": "address",
          "name": "",
          "type": "address"
        },
        {
          "internalType": "uint256",
          "name": "",
          "type": "uint256"
        },
        {
          "internalType": "uint256",
          "name": "",
          "type": "uint256"
        },
        {
          "internalType": "bytes",
          "name": "",
          "type": "bytes"
        }
      ],
      "name": "onERC1155Received",
      "outputs": [
        {
          "internalType": "bytes4",
          "name": "",
          "type": "bytes4"
        }
      ],
      "stateMutability": "nonpayable",
      "type": "function"
    },
    {
      "inputs": [],
      "name": "priorityRestrictedThreshold",
      "outputs": [
        {
          "internalType": "uint256",
          "name": "",
          "type": "uint256"
        }
      ],
      "stateMutability": "view",
      "type": "function"
    },
    {
      "inputs": [
        {
          "internalType": "bytes32",
          "name": "role",
          "type": "bytes32"
        },
        {
          "internalType": "address",
          "name": "account",
          "type": "address"
        }
      ],
      "name": "renounceRole",
      "outputs": [],
      "stateMutability": "nonpayable",
      "type": "function"
    },
    {
      "inputs": [
        {
          "internalType": "uint256",
          "name": "removalId",
          "type": "uint256"
        }
      ],
      "name": "reserveRemoval",
      "outputs": [
        {
          "internalType": "bool",
          "name": "",
          "type": "bool"
        }
      ],
      "stateMutability": "nonpayable",
      "type": "function"
    },
    {
      "inputs": [
        {
          "internalType": "bytes32",
          "name": "role",
          "type": "bytes32"
        },
        {
          "internalType": "address",
          "name": "account",
          "type": "address"
        }
      ],
      "name": "revokeRole",
      "outputs": [],
      "stateMutability": "nonpayable",
      "type": "function"
    },
    {
      "inputs": [
        {
          "internalType": "uint256",
          "name": "threshold",
          "type": "uint256"
        }
      ],
      "name": "setPriorityRestrictedThreshold",
      "outputs": [],
      "stateMutability": "nonpayable",
      "type": "function"
    },
    {
      "inputs": [
        {
          "internalType": "bytes4",
          "name": "interfaceId",
          "type": "bytes4"
        }
      ],
      "name": "supportsInterface",
      "outputs": [
        {
          "internalType": "bool",
          "name": "",
          "type": "bool"
        }
      ],
      "stateMutability": "view",
      "type": "function"
    },
    {
      "inputs": [
        {
          "internalType": "address",
          "name": "recipient",
          "type": "address"
        },
        {
          "internalType": "uint256",
          "name": "amount",
          "type": "uint256"
        },
        {
          "internalType": "uint256",
          "name": "deadline",
          "type": "uint256"
        },
        {
          "internalType": "uint8",
          "name": "v",
          "type": "uint8"
        },
        {
          "internalType": "bytes32",
          "name": "r",
          "type": "bytes32"
        },
        {
          "internalType": "bytes32",
          "name": "s",
          "type": "bytes32"
        }
      ],
      "name": "swap",
      "outputs": [],
      "stateMutability": "nonpayable",
      "type": "function"
    },
    {
      "inputs": [
        {
          "internalType": "address",
          "name": "recipient",
          "type": "address"
        },
        {
          "internalType": "uint256",
          "name": "amount",
          "type": "uint256"
        },
        {
          "internalType": "address",
          "name": "supplierToBuyFrom",
          "type": "address"
        },
        {
          "internalType": "uint256",
          "name": "deadline",
          "type": "uint256"
        },
        {
          "internalType": "uint8",
          "name": "v",
          "type": "uint8"
        },
        {
          "internalType": "bytes32",
          "name": "r",
          "type": "bytes32"
        },
        {
          "internalType": "bytes32",
          "name": "s",
          "type": "bytes32"
        }
      ],
      "name": "swapFromSpecificSupplier",
      "outputs": [],
      "stateMutability": "nonpayable",
      "type": "function"
    },
    {
      "inputs": [],
      "name": "totalActiveSupply",
      "outputs": [
        {
          "internalType": "uint256",
          "name": "",
          "type": "uint256"
        }
      ],
      "stateMutability": "view",
      "type": "function"
    },
    {
      "inputs": [],
      "name": "totalNumberActiveRemovals",
      "outputs": [
        {
          "internalType": "uint256",
          "name": "",
          "type": "uint256"
        }
      ],
      "stateMutability": "view",
      "type": "function"
    },
    {
      "inputs": [],
      "name": "totalReservedSupply",
      "outputs": [
        {
          "internalType": "uint256",
          "name": "",
          "type": "uint256"
        }
      ],
      "stateMutability": "view",
      "type": "function"
    },
    {
      "inputs": [],
      "name": "totalUnrestrictedSupply",
      "outputs": [
        {
          "internalType": "uint256",
          "name": "",
          "type": "uint256"
        }
      ],
      "stateMutability": "view",
      "type": "function"
    },
    {
      "inputs": [
        {
          "internalType": "uint256",
          "name": "removalId",
          "type": "uint256"
        }
      ],
      "name": "unreserveRemoval",
      "outputs": [
        {
          "internalType": "bool",
          "name": "",
          "type": "bool"
        }
      ],
      "stateMutability": "nonpayable",
      "type": "function"
    }
  ],
  "bytecode": "0x60806040523480156200001157600080fd5b50620000226200002860201b60201c565b6200020f565b6200003a60ff6200003d60201b60201c565b50565b60008060019054906101000a900460ff1615620000c75760018260ff161480156200007b575062000079306200014360201b6200160b1760201c565b155b620000bd576040517f08c379a0000000000000000000000000000000000000000000000000000000008152600401620000b490620001ed565b60405180910390fd5b600090506200013e565b8160ff1660008054906101000a900460ff1660ff16106200011f576040517f08c379a00000000000000000000000000000000000000000000000000000000081526004016200011690620001ed565b60405180910390fd5b816000806101000a81548160ff021916908360ff160217905550600190505b919050565b6000808273ffffffffffffffffffffffffffffffffffffffff163b119050919050565b600082825260208201905092915050565b7f496e697469616c697a61626c653a20636f6e747261637420697320616c72656160008201527f647920696e697469616c697a6564000000000000000000000000000000000000602082015250565b6000620001d5602e8362000166565b9150620001e28262000177565b604082019050919050565b600060208201905081810360008301526200020881620001c6565b9050919050565b6160f2806200021f6000396000f3fe608060405234801561001057600080fd5b50600436106101735760003560e01c80637530b450116100de578063bc197c8111610097578063d547741f11610071578063d547741f14610476578063d797462f14610492578063da9d20e7146104ae578063f23a6e61146104ca57610173565b8063bc197c81146103fa578063ca15c8731461042a578063ce0ec4741461045a57610173565b80637530b450146103125780639010d07c1461033057806391d148541461036057806395b6ef0c1461039057806397a11ee9146103ac578063a217fddf146103dc57610173565b8063361b7b9d11610130578063361b7b9d1461024e57806336568abe1461026c5780633eb12cee1461028857806359e1a71c146102a6578063674d13c8146102d657806372069264146102f457610173565b806301ffc9a71461017857806312de2b05146101a8578063179f0445146101c6578063248a9ca3146101e45780632f2ff15d146102145780633030b53214610230575b600080fd5b610192600480360381019061018d91906146e2565b6104fa565b60405161019f919061472a565b60405180910390f35b6101b061051c565b6040516101bd919061475e565b60405180910390f35b6101ce610523565b6040516101db919061475e565b60405180910390f35b6101fe60048036038101906101f991906147af565b61052a565b60405161020b91906147eb565b60405180910390f35b61022e60048036038101906102299190614864565b61054a565b005b61023861056b565b60405161024591906147eb565b60405180910390f35b61025661058f565b604051610263919061475e565b60405180910390f35b61028660048036038101906102819190614864565b610596565b005b610290610619565b60405161029d919061475e565b60405180910390f35b6102c060048036038101906102bb91906148d0565b61075a565b6040516102cd919061472a565b60405180910390f35b6102de6109a0565b6040516102eb919061475e565b60405180910390f35b6102fc6109a7565b604051610309919061475e565b60405180910390f35b61031a6109ae565b604051610327919061475e565b60405180910390f35b61034a600480360381019061034591906148fd565b6109df565b604051610357919061494c565b60405180910390f35b61037a60048036038101906103759190614864565b610a0e565b604051610387919061472a565b60405180910390f35b6103aa60048036038101906103a59190614967565b610a79565b005b6103c660048036038101906103c191906148d0565b610d31565b6040516103d3919061472a565b60405180910390f35b6103e4610f77565b6040516103f191906147eb565b60405180910390f35b610414600480360381019061040f9190614c02565b610f7e565b6040516104219190614ce0565b60405180910390f35b610444600480360381019061043f91906147af565b6112d8565b604051610451919061475e565b60405180910390f35b610474600480360381019061046f9190614d34565b6112fc565b005b610490600480360381019061048b9190614864565b6113e4565b005b6104ac60048036038101906104a791906148d0565b611405565b005b6104c860048036038101906104c39190614dc1565b611455565b005b6104e460048036038101906104df9190614e63565b6115f6565b6040516104f19190614ce0565b60405180910390f35b60006105058261162e565b806105155750610514826116a8565b5b9050919050565b6101335481565b6101345481565b600060656000838152602001908152602001600020600101549050919050565b6105538261052a565b61055c81611722565b6105668383611736565b505050565b7f26a560d834a19637eccba4611bbc09fb32970bb627da0a70f14f83fdc9822cbc81565b6101375481565b61059e61176a565b73ffffffffffffffffffffffffffffffffffffffff168173ffffffffffffffffffffffffffffffffffffffff161461060b576040517f08c379a000000000000000000000000000000000000000000000000000000000815260040161060290614f7d565b60405180910390fd5b6106158282611772565b5050565b60008060009050600061013860009054906101000a900473ffffffffffffffffffffffffffffffffffffffff16905060005b61013754811015610751576106cb61012d60009054906101000a900473ffffffffffffffffffffffffffffffffffffffff1661013a60008573ffffffffffffffffffffffffffffffffffffffff1673ffffffffffffffffffffffffffffffffffffffff1681526020019081526020016000206117a690919063ffffffff16565b836106d69190614fcc565b925061013960008373ffffffffffffffffffffffffffffffffffffffff1673ffffffffffffffffffffffffffffffffffffffff16815260200190815260200160002060010160009054906101000a900473ffffffffffffffffffffffffffffffffffffffff169150808061074990615022565b91505061064b565b50819250505090565b60008061076683611986565b90506107ba8361013a60008473ffffffffffffffffffffffffffffffffffffffff1673ffffffffffffffffffffffffffffffffffffffff16815260200190815260200160002061199c90919063ffffffff16565b6107f9576040517f08c379a00000000000000000000000000000000000000000000000000000000081526004016107f0906150dc565b60405180910390fd5b600061012d60009054906101000a900473ffffffffffffffffffffffffffffffffffffffff1673ffffffffffffffffffffffffffffffffffffffff1662fdd58e30866040518363ffffffff1660e01b81526004016108589291906150fc565b602060405180830381865afa158015610875573d6000803e3d6000fd5b505050506040513d601f19601f82011682018060405250810190610899919061513a565b90508061013560008282546108ae9190615167565b925050819055508061013660008282546108c89190614fcc565b92505081905550600161013460008282546108e39190615167565b9250508190555061093261013a60008473ffffffffffffffffffffffffffffffffffffffff1673ffffffffffffffffffffffffffffffffffffffff168152602001908152602001600020611b64565b156109415761094082611b74565b5b6109568461013b61207490919063ffffffff16565b610995576040517f08c379a000000000000000000000000000000000000000000000000000000000815260040161098c906151e7565b60405180910390fd5b600192505050919050565b6101365481565b6101355481565b6000610133546101355410156109c757600090506109dc565b61013354610135546109d99190615167565b90505b90565b6000610a06826097600086815260200190815260200160002061208e90919063ffffffff16565b905092915050565b60006065600084815260200190815260200160002060000160008373ffffffffffffffffffffffffffffffffffffffff1673ffffffffffffffffffffffffffffffffffffffff16815260200190815260200160002060009054906101000a900460ff16905092915050565b6000610a8560016120a8565b90508015610aa9576001600060016101000a81548160ff0219169083151502179055505b610ab1612198565b610ab96121e9565b610ac161223a565b610ac961228b565b610ad16122dc565b8661012d60006101000a81548173ffffffffffffffffffffffffffffffffffffffff021916908373ffffffffffffffffffffffffffffffffffffffff1602179055508561012f60006101000a81548173ffffffffffffffffffffffffffffffffffffffff021916908373ffffffffffffffffffffffffffffffffffffffff1602179055508461012e60006101000a81548173ffffffffffffffffffffffffffffffffffffffff021916908373ffffffffffffffffffffffffffffffffffffffff1602179055508361013060006101000a81548173ffffffffffffffffffffffffffffffffffffffff021916908373ffffffffffffffffffffffffffffffffffffffff1602179055508261013160006101000a81548173ffffffffffffffffffffffffffffffffffffffff021916908373ffffffffffffffffffffffffffffffffffffffff1602179055508161013281905550600061013381905550600061013581905550600061013681905550600061013481905550600061013860006101000a81548173ffffffffffffffffffffffffffffffffffffffff021916908373ffffffffffffffffffffffffffffffffffffffff160217905550610c9e6000801b610c9961176a565b611736565b610ccf7f26a560d834a19637eccba4611bbc09fb32970bb627da0a70f14f83fdc9822cbc610cca61176a565b611736565b8015610d285760008060016101000a81548160ff0219169083151502179055507f7f26b83ff96e1f2b6a682f133852f6798a09c465da95921460cefb38474024986001604051610d1f919061524c565b60405180910390a15b50505050505050565b600080610d3d83611986565b9050610d548361013b61232d90919063ffffffff16565b610d93576040517f08c379a0000000000000000000000000000000000000000000000000000000008152600401610d8a906152d9565b60405180910390fd5b60016101346000828254610da79190614fcc565b92505081905550600061012d60009054906101000a900473ffffffffffffffffffffffffffffffffffffffff1673ffffffffffffffffffffffffffffffffffffffff1662fdd58e30866040518363ffffffff1660e01b8152600401610e0d9291906150fc565b602060405180830381865afa158015610e2a573d6000803e3d6000fd5b505050506040513d601f19601f82011682018060405250810190610e4e919061513a565b9050806101356000828254610e639190614fcc565b92505081905550806101366000828254610e7d9190615167565b92505081905550610ecc61013a60008473ffffffffffffffffffffffffffffffffffffffff1673ffffffffffffffffffffffffffffffffffffffff168152602001908152602001600020611b64565b15610edb57610eda82612347565b5b610f2d8461013a60008573ffffffffffffffffffffffffffffffffffffffff1673ffffffffffffffffffffffffffffffffffffffff16815260200190815260200160002061287e90919063ffffffff16565b610f6c576040517f08c379a0000000000000000000000000000000000000000000000000000000008152600401610f639061536b565b60405180910390fd5b600192505050919050565b6000801b81565b60008061012d60009054906101000a900473ffffffffffffffffffffffffffffffffffffffff1673ffffffffffffffffffffffffffffffffffffffff1663018e1c8330876040518363ffffffff1660e01b8152600401610fdf929190615449565b600060405180830381865afa158015610ffc573d6000803e3d6000fd5b505050506040513d6000823e3d601f19601f820116820180604052508101906110259190615510565b905060008060005b87518110156111e657600088828151811061104b5761104a615559565b5b60200260200101519050600061106082611986565b9050600086848151811061107757611076615559565b5b602002602001015190506110d38361013a60008573ffffffffffffffffffffffffffffffffffffffff1673ffffffffffffffffffffffffffffffffffffffff16815260200190815260200160002061287e90919063ffffffff16565b611112576040517f08c379a0000000000000000000000000000000000000000000000000000000008152600401611109906155fa565b60405180910390fd5b600073ffffffffffffffffffffffffffffffffffffffff1661013960008473ffffffffffffffffffffffffffffffffffffffff1673ffffffffffffffffffffffffffffffffffffffff16815260200190815260200160002060010160009054906101000a900473ffffffffffffffffffffffffffffffffffffffff1673ffffffffffffffffffffffffffffffffffffffff16036111b3576111b282612347565b5b80866111bf9190614fcc565b95506001856111ce9190614fcc565b945050505080806111de90615022565b91505061102d565b508161013560008282546111fa9190614fcc565b925050819055508061013460008282546112149190614fcc565b92505081905550600085806020019051810190611231919061513a565b905061013060009054906101000a900473ffffffffffffffffffffffffffffffffffffffff1673ffffffffffffffffffffffffffffffffffffffff1663f6f57a2e826040518263ffffffff1660e01b815260040161128f919061475e565b600060405180830381600087803b1580156112a957600080fd5b505af11580156112bd573d6000803e3d6000fd5b5050505063bc197c8160e01b94505050505095945050505050565b60006112f560976000848152602001908152602001600020612917565b9050919050565b61130461292c565b600061130f866129f2565b905060008060008061132085612a22565b935093509350935061012f60009054906101000a900473ffffffffffffffffffffffffffffffffffffffff1673ffffffffffffffffffffffffffffffffffffffff1663d505accf61136f61176a565b308d8d8d8d8d6040518863ffffffff1660e01b81526004016113979796959493929190615629565b600060405180830381600087803b1580156113b157600080fd5b505af11580156113c5573d6000803e3d6000fd5b505050506113d7858c868686866130a3565b5050505050505050505050565b6113ed8261052a565b6113f681611722565b6114008383611772565b505050565b6000801b61141281611722565b81610133819055507f7ab6aa6547859e9ca74d567d44fefa0d63272ac019f4ebf9333032a62ea06fa582604051611449919061475e565b60405180910390a15050565b61145d61292c565b6000611468876129f2565b90506000806000611479848a6138e7565b92509250925060008367ffffffffffffffff81111561149b5761149a614a0a565b5b6040519080825280602002602001820160405280156114c95781602001602082028036833780820191505090505b50905060005b84811015611538578a8282815181106114eb576114ea615559565b5b602002602001019073ffffffffffffffffffffffffffffffffffffffff16908173ffffffffffffffffffffffffffffffffffffffff1681525050808061153090615022565b9150506114cf565b5061012f60009054906101000a900473ffffffffffffffffffffffffffffffffffffffff1673ffffffffffffffffffffffffffffffffffffffff1663d505accf61158061176a565b308e8d8d8d8d6040518863ffffffff1660e01b81526004016115a89796959493929190615629565b600060405180830381600087803b1580156115c257600080fd5b505af11580156115d6573d6000803e3d6000fd5b505050506115e8858d868686866130a3565b505050505050505050505050565b600063f23a6e6160e01b905095945050505050565b6000808273ffffffffffffffffffffffffffffffffffffffff163b119050919050565b60007f5a05180f000000000000000000000000000000000000000000000000000000007bffffffffffffffffffffffffffffffffffffffffffffffffffffffff1916827bffffffffffffffffffffffffffffffffffffffffffffffffffffffff191614806116a157506116a082613cce565b5b9050919050565b60007f4e2312e0000000000000000000000000000000000000000000000000000000007bffffffffffffffffffffffffffffffffffffffffffffffffffffffff1916827bffffffffffffffffffffffffffffffffffffffffffffffffffffffff1916148061171b575061171a8261162e565b5b9050919050565b6117338161172e61176a565b613d48565b50565b6117408282613de5565b6117658160976000858152602001908152602001600020613ec690919063ffffffff16565b505050565b600033905090565b61177c8282613ef6565b6117a18160976000858152602001908152602001600020613fd890919063ffffffff16565b505050565b600080600090506000806000866001015490505b86600201548111611979576117e2876000016000838152602001908152602001600020614008565b935060008467ffffffffffffffff811115611800576117ff614a0a565b5b60405190808252806020026020018201604052801561182e5781602001602082028036833780820191505090505b509050600093505b84841015611897576118658489600001600085815260200190815260200160002061401d90919063ffffffff16565b81858151811061187857611877615559565b5b602002602001018181525050838061188f90615022565b945050611836565b60008773ffffffffffffffffffffffffffffffffffffffff1663018e1c8330846040518363ffffffff1660e01b81526004016118d4929190615449565b600060405180830381865afa1580156118f1573d6000803e3d6000fd5b505050506040513d6000823e3d601f19601f8201168201806040525081019061191a9190615510565b9050600094505b858510156119645780858151811061193c5761193b615559565b5b60200260200101518461194f9190614fcc565b9350848061195c90615022565b955050611921565b5050808061197190615022565b9150506117ba565b5080935050505092915050565b60006119958260146004614037565b9050919050565b6000806119a88361409b565b61ffff1690506119d58385600001600084815260200190815260200160002061232d90919063ffffffff16565b611a14576040517f08c379a0000000000000000000000000000000000000000000000000000000008152600401611a0b9061570a565b60405180910390fd5b611a1e84826140b1565b15611b59578360020154846001015403611a6a577fffffffffffffffffffffffffffffffffffffffffffffffffffffffffffffffff846001018190555060008460020181905550611b58565b83600101548103611ae257600060018560010154611a889190614fcc565b90505b84600201548111611adc576000611ab5866000016000848152602001908152602001600020614008565b1115611ac957808560010181905550611adc565b8080611ad490615022565b915050611a8b565b50611b57565b83600201548103611b5657600060018560020154611b009190615167565b90505b84600101548110611b54576000611b2d866000016000848152602001908152602001600020614008565b1115611b4157808560020181905550611b54565b8080611b4c9061572a565b915050611b03565b505b5b5b5b600191505092915050565b6000808260020154149050919050565b61013960008273ffffffffffffffffffffffffffffffffffffffff1673ffffffffffffffffffffffffffffffffffffffff16815260200190815260200160002060010160009054906101000a900473ffffffffffffffffffffffffffffffffffffffff1673ffffffffffffffffffffffffffffffffffffffff168173ffffffffffffffffffffffffffffffffffffffff1603611c5257600061013860006101000a81548173ffffffffffffffffffffffffffffffffffffffff021916908373ffffffffffffffffffffffffffffffffffffffff160217905550611f42565b61013960008273ffffffffffffffffffffffffffffffffffffffff1673ffffffffffffffffffffffffffffffffffffffff16815260200190815260200160002060010160009054906101000a900473ffffffffffffffffffffffffffffffffffffffff16610139600061013960008573ffffffffffffffffffffffffffffffffffffffff1673ffffffffffffffffffffffffffffffffffffffff16815260200190815260200160002060000160009054906101000a900473ffffffffffffffffffffffffffffffffffffffff1673ffffffffffffffffffffffffffffffffffffffff1673ffffffffffffffffffffffffffffffffffffffff16815260200190815260200160002060010160006101000a81548173ffffffffffffffffffffffffffffffffffffffff021916908373ffffffffffffffffffffffffffffffffffffffff16021790555061013960008273ffffffffffffffffffffffffffffffffffffffff1673ffffffffffffffffffffffffffffffffffffffff16815260200190815260200160002060000160009054906101000a900473ffffffffffffffffffffffffffffffffffffffff16610139600061013960008573ffffffffffffffffffffffffffffffffffffffff1673ffffffffffffffffffffffffffffffffffffffff16815260200190815260200160002060010160009054906101000a900473ffffffffffffffffffffffffffffffffffffffff1673ffffffffffffffffffffffffffffffffffffffff1673ffffffffffffffffffffffffffffffffffffffff16815260200190815260200160002060000160006101000a81548173ffffffffffffffffffffffffffffffffffffffff021916908373ffffffffffffffffffffffffffffffffffffffff16021790555061013860009054906101000a900473ffffffffffffffffffffffffffffffffffffffff1673ffffffffffffffffffffffffffffffffffffffff168173ffffffffffffffffffffffffffffffffffffffff1603611f4157611f406140c7565b5b5b6040518060400160405280600073ffffffffffffffffffffffffffffffffffffffff168152602001600073ffffffffffffffffffffffffffffffffffffffff1681525061013960008373ffffffffffffffffffffffffffffffffffffffff1673ffffffffffffffffffffffffffffffffffffffff16815260200190815260200160002060008201518160000160006101000a81548173ffffffffffffffffffffffffffffffffffffffff021916908373ffffffffffffffffffffffffffffffffffffffff16021790555060208201518160010160006101000a81548173ffffffffffffffffffffffffffffffffffffffff021916908373ffffffffffffffffffffffffffffffffffffffff1602179055509050506001610137600082825461206a9190615167565b9250508190555050565b6000612086836000018360001b614191565b905092915050565b600061209d8360000183614201565b60001c905092915050565b60008060019054906101000a900460ff161561211f5760018260ff161480156120d757506120d53061160b565b155b612116576040517f08c379a000000000000000000000000000000000000000000000000000000000815260040161210d906157c5565b60405180910390fd5b60009050612193565b8160ff1660008054906101000a900460ff1660ff1610612174576040517f08c379a000000000000000000000000000000000000000000000000000000000815260040161216b906157c5565b60405180910390fd5b816000806101000a81548160ff021916908360ff160217905550600190505b919050565b600060019054906101000a900460ff166121e7576040517f08c379a00000000000000000000000000000000000000000000000000000000081526004016121de90615857565b60405180910390fd5b565b600060019054906101000a900460ff16612238576040517f08c379a000000000000000000000000000000000000000000000000000000000815260040161222f90615857565b60405180910390fd5b565b600060019054906101000a900460ff16612289576040517f08c379a000000000000000000000000000000000000000000000000000000000815260040161228090615857565b60405180910390fd5b565b600060019054906101000a900460ff166122da576040517f08c379a00000000000000000000000000000000000000000000000000000000081526004016122d190615857565b60405180910390fd5b565b600060019054906101000a900460ff1661232b576040517f08c379a000000000000000000000000000000000000000000000000000000000815260040161232290615857565b60405180910390fd5b565b600061233f836000018360001b61422c565b905092915050565b600073ffffffffffffffffffffffffffffffffffffffff1661013860009054906101000a900473ffffffffffffffffffffffffffffffffffffffff1673ffffffffffffffffffffffffffffffffffffffff16036124f7578061013860006101000a81548173ffffffffffffffffffffffffffffffffffffffff021916908373ffffffffffffffffffffffffffffffffffffffff16021790555060405180604001604052808273ffffffffffffffffffffffffffffffffffffffff1681526020018273ffffffffffffffffffffffffffffffffffffffff1681525061013960008373ffffffffffffffffffffffffffffffffffffffff1673ffffffffffffffffffffffffffffffffffffffff16815260200190815260200160002060008201518160000160006101000a81548173ffffffffffffffffffffffffffffffffffffffff021916908373ffffffffffffffffffffffffffffffffffffffff16021790555060208201518160010160006101000a81548173ffffffffffffffffffffffffffffffffffffffff021916908373ffffffffffffffffffffffffffffffffffffffff160217905550905050612860565b6040518060400160405280610139600061013860009054906101000a900473ffffffffffffffffffffffffffffffffffffffff1673ffffffffffffffffffffffffffffffffffffffff1673ffffffffffffffffffffffffffffffffffffffff16815260200190815260200160002060000160009054906101000a900473ffffffffffffffffffffffffffffffffffffffff1673ffffffffffffffffffffffffffffffffffffffff16815260200161013860009054906101000a900473ffffffffffffffffffffffffffffffffffffffff1673ffffffffffffffffffffffffffffffffffffffff1681525061013960008373ffffffffffffffffffffffffffffffffffffffff1673ffffffffffffffffffffffffffffffffffffffff16815260200190815260200160002060008201518160000160006101000a81548173ffffffffffffffffffffffffffffffffffffffff021916908373ffffffffffffffffffffffffffffffffffffffff16021790555060208201518160010160006101000a81548173ffffffffffffffffffffffffffffffffffffffff021916908373ffffffffffffffffffffffffffffffffffffffff160217905550905050806101396000610139600061013860009054906101000a900473ffffffffffffffffffffffffffffffffffffffff1673ffffffffffffffffffffffffffffffffffffffff1673ffffffffffffffffffffffffffffffffffffffff16815260200190815260200160002060000160009054906101000a900473ffffffffffffffffffffffffffffffffffffffff1673ffffffffffffffffffffffffffffffffffffffff1673ffffffffffffffffffffffffffffffffffffffff16815260200190815260200160002060010160006101000a81548173ffffffffffffffffffffffffffffffffffffffff021916908373ffffffffffffffffffffffffffffffffffffffff16021790555080610139600061013860009054906101000a900473ffffffffffffffffffffffffffffffffffffffff1673ffffffffffffffffffffffffffffffffffffffff1673ffffffffffffffffffffffffffffffffffffffff16815260200190815260200160002060000160006101000a81548173ffffffffffffffffffffffffffffffffffffffff021916908373ffffffffffffffffffffffffffffffffffffffff1602179055505b600161013760008282546128749190614fcc565b9250508190555050565b60008061288a8361409b565b61ffff16905061289984611b64565b156128b5578084600101819055508084600201819055506128e7565b83600101548110156128cf578084600101819055506128e6565b83600201548111156128e5578084600201819055505b5b5b61290e8385600001600084815260200190815260200160002061207490919063ffffffff16565b91505092915050565b600061292582600001614340565b9050919050565b60006101355403612972576040517f08c379a0000000000000000000000000000000000000000000000000000000008152600401612969906158c3565b60405180910390fd5b6101335461013554116129f0576129b07f26a560d834a19637eccba4611bbc09fb32970bb627da0a70f14f83fdc9822cbc6129ab61176a565b610a0e565b6129ef576040517f08c379a00000000000000000000000000000000000000000000000000000000081526004016129e690615955565b60405180910390fd5b5b565b6000610132546064612a049190614fcc565b606483612a119190615975565b612a1b91906159fe565b9050919050565b60006060806060600085905060006101345467ffffffffffffffff811115612a4d57612a4c614a0a565b5b604051908082528060200260200182016040528015612a7b5781602001602082028036833780820191505090505b50905060006101345467ffffffffffffffff811115612a9d57612a9c614a0a565b5b604051908082528060200260200182016040528015612acb5781602001602082028036833780820191505090505b50905060006101345467ffffffffffffffff811115612aed57612aec614a0a565b5b604051908082528060200260200182016040528015612b1b5781602001602082028036833780820191505090505b5090506000805b6101345481101561308a576000612b9a61013a600061013860009054906101000a900473ffffffffffffffffffffffffffffffffffffffff1673ffffffffffffffffffffffffffffffffffffffff1673ffffffffffffffffffffffffffffffffffffffff168152602001908152602001600020614351565b9050600061012d60009054906101000a900473ffffffffffffffffffffffffffffffffffffffff1673ffffffffffffffffffffffffffffffffffffffff1662fdd58e30846040518363ffffffff1660e01b8152600401612bfb9291906150fc565b602060405180830381865afa158015612c18573d6000803e3d6000fd5b505050506040513d601f19601f82011682018060405250810190612c3c919061513a565b905080881015612d005781878581518110612c5a57612c59615559565b5b60200260200101818152505087868581518110612c7a57612c79615559565b5b60200260200101818152505061013860009054906101000a900473ffffffffffffffffffffffffffffffffffffffff16858581518110612cbd57612cbc615559565b5b602002602001019073ffffffffffffffffffffffffffffffffffffffff16908173ffffffffffffffffffffffffffffffffffffffff168152505060009750613058565b600161013454612d109190615167565b83148015612d1d57508088115b15612d5d576040517f08c379a0000000000000000000000000000000000000000000000000000000008152600401612d5490615a7b565b60405180910390fd5b81878581518110612d7157612d70615559565b5b60200260200101818152505080868581518110612d9157612d90615559565b5b60200260200101818152505061013860009054906101000a900473ffffffffffffffffffffffffffffffffffffffff16858581518110612dd457612dd3615559565b5b602002602001019073ffffffffffffffffffffffffffffffffffffffff16908173ffffffffffffffffffffffffffffffffffffffff16815250508088612e1a9190615167565b9750612e918261013a600061013860009054906101000a900473ffffffffffffffffffffffffffffffffffffffff1673ffffffffffffffffffffffffffffffffffffffff1673ffffffffffffffffffffffffffffffffffffffff16815260200190815260200160002061199c90919063ffffffff16565b612ed0576040517f08c379a0000000000000000000000000000000000000000000000000000000008152600401612ec790615b0d565b60405180910390fd5b612f3b61013a600061013860009054906101000a900473ffffffffffffffffffffffffffffffffffffffff1673ffffffffffffffffffffffffffffffffffffffff1673ffffffffffffffffffffffffffffffffffffffff168152602001908152602001600020611b64565b15612f7157612f6c61013860009054906101000a900473ffffffffffffffffffffffffffffffffffffffff16611b74565b613057565b61013860009054906101000a900473ffffffffffffffffffffffffffffffffffffffff1673ffffffffffffffffffffffffffffffffffffffff16610139600061013860009054906101000a900473ffffffffffffffffffffffffffffffffffffffff1673ffffffffffffffffffffffffffffffffffffffff1673ffffffffffffffffffffffffffffffffffffffff16815260200190815260200160002060010160009054906101000a900473ffffffffffffffffffffffffffffffffffffffff1673ffffffffffffffffffffffffffffffffffffffff1614613056576130556140c7565b5b5b5b838061306390615022565b9450506000880361307557505061308a565b5050808061308290615022565b915050612b22565b5080848484985098509850985050505050509193509193565b60008467ffffffffffffffff8111156130bf576130be614a0a565b5b6040519080825280602002602001820160405280156130ed5781602001602082028036833780820191505090505b50905060008567ffffffffffffffff81111561310c5761310b614a0a565b5b60405190808252806020026020018201604052801561313a5781602001602082028036833780820191505090505b50905060005b868110156131cf5785818151811061315b5761315a615559565b5b602002602001015183828151811061317657613175615559565b5b60200260200101818152505084818151811061319557613194615559565b5b60200260200101518282815181106131b0576131af615559565b5b60200260200101818152505080806131c790615022565b915050613140565b50600061012d60009054906101000a900473ffffffffffffffffffffffffffffffffffffffff1673ffffffffffffffffffffffffffffffffffffffff1663018e1c8330856040518363ffffffff1660e01b8152600401613230929190615449565b600060405180830381865afa15801561324d573d6000803e3d6000fd5b505050506040513d6000823e3d601f19601f820116820180604052508101906132769190615510565b9050600061012d60009054906101000a900473ffffffffffffffffffffffffffffffffffffffff1673ffffffffffffffffffffffffffffffffffffffff1663b6477cc0856040518263ffffffff1660e01b81526004016132d69190615b2d565b600060405180830381865afa1580156132f3573d6000803e3d6000fd5b505050506040513d6000823e3d601f19601f8201168201806040525081019061331c9190615510565b905060005b84518110156137955782818151811061333d5761333c615559565b5b602002602001015184828151811061335857613357615559565b5b60200260200101510361338157600161013460008282546133799190615167565b925050819055505b83818151811061339457613393615559565b5b602002602001015161013560008282546133ae9190615167565b9250508190555060006064610132548684815181106133d0576133cf615559565b5b60200260200101516133e29190615975565b6133ec91906159fe565b905060008086848151811061340457613403615559565b5b60200260200101519050600085858151811061342357613422615559565b5b602002602001015111156135ec57606485858151811061344657613445615559565b5b6020026020010151826134599190615975565b61346391906159fe565b915081816134719190615167565b905061013060009054906101000a900473ffffffffffffffffffffffffffffffffffffffff1673ffffffffffffffffffffffffffffffffffffffff16631b2ef1ca838a87815181106134c6576134c5615559565b5b60200260200101516040518363ffffffff1660e01b81526004016134eb929190615b4f565b600060405180830381600087803b15801561350557600080fd5b505af1158015613519573d6000803e3d6000fd5b5050505061012f60009054906101000a900473ffffffffffffffffffffffffffffffffffffffff1673ffffffffffffffffffffffffffffffffffffffff166323b872dd61356461176a565b61013060009054906101000a900473ffffffffffffffffffffffffffffffffffffffff16856040518463ffffffff1660e01b81526004016135a793929190615b78565b6020604051808303816000875af11580156135c6573d6000803e3d6000fd5b505050506040513d601f19601f820116820180604052508101906135ea9190615bdb565b505b61012f60009054906101000a900473ffffffffffffffffffffffffffffffffffffffff1673ffffffffffffffffffffffffffffffffffffffff166323b872dd61363361176a565b61013160009054906101000a900473ffffffffffffffffffffffffffffffffffffffff16866040518463ffffffff1660e01b815260040161367693929190615b78565b6020604051808303816000875af1158015613695573d6000803e3d6000fd5b505050506040513d601f19601f820116820180604052508101906136b99190615bdb565b5061012f60009054906101000a900473ffffffffffffffffffffffffffffffffffffffff1673ffffffffffffffffffffffffffffffffffffffff166323b872dd61370161176a565b8b878151811061371457613713615559565b5b6020026020010151846040518463ffffffff1660e01b815260040161373b93929190615b78565b6020604051808303816000875af115801561375a573d6000803e3d6000fd5b505050506040513d601f19601f8201168201806040525081019061377e9190615bdb565b50505050808061378d90615022565b915050613321565b5061012e60009054906101000a900473ffffffffffffffffffffffffffffffffffffffff1673ffffffffffffffffffffffffffffffffffffffff16631f7fdffa8a86868e6040516020016137e9919061475e565b6040516020818303038152906040526040518563ffffffff1660e01b81526004016138179493929190615c90565b600060405180830381600087803b15801561383157600080fd5b505af1158015613845573d6000803e3d6000fd5b5050505061012d60009054906101000a900473ffffffffffffffffffffffffffffffffffffffff1673ffffffffffffffffffffffffffffffffffffffff16636b20c4543086866040518463ffffffff1660e01b81526004016138a993929190615cea565b600060405180830381600087803b1580156138c357600080fd5b505af11580156138d7573d6000803e3d6000fd5b5050505050505050505050505050565b6000606080600061013a60008673ffffffffffffffffffffffffffffffffffffffff1673ffffffffffffffffffffffffffffffffffffffff1681526020019081526020016000209050600080826001015490505b8260020154811161398357613963836000016000838152602001908152602001600020614008565b8261396e9190614fcc565b9150808061397b90615022565b91505061393b565b50600081116139c7576040517f08c379a00000000000000000000000000000000000000000000000000000000081526004016139be90615a7b565b60405180910390fd5b600087905060008267ffffffffffffffff8111156139e8576139e7614a0a565b5b604051908082528060200260200182016040528015613a165781602001602082028036833780820191505090505b50905060008367ffffffffffffffff811115613a3557613a34614a0a565b5b604051908082528060200260200182016040528015613a635781602001602082028036833780820191505090505b5090506000805b85811015613cb7576000613a7d88614351565b9050600061012d60009054906101000a900473ffffffffffffffffffffffffffffffffffffffff1673ffffffffffffffffffffffffffffffffffffffff1662fdd58e30846040518363ffffffff1660e01b8152600401613ade9291906150fc565b602060405180830381865afa158015613afb573d6000803e3d6000fd5b505050506040513d601f19601f82011682018060405250810190613b1f919061513a565b905080871015613b725781868581518110613b3d57613b3c615559565b5b60200260200101818152505086858581518110613b5d57613b5c615559565b5b60200260200101818152505060009650613c85565b600188613b7f9190615167565b84148015613b8c57508087115b15613bcc576040517f08c379a0000000000000000000000000000000000000000000000000000000008152600401613bc390615a7b565b60405180910390fd5b81868581518110613be057613bdf615559565b5b60200260200101818152505080858581518110613c0057613bff615559565b5b6020026020010181815250508087613c189190615167565b9650613c2d828a61199c90919063ffffffff16565b613c6c576040517f08c379a0000000000000000000000000000000000000000000000000000000008152600401613c6390615b0d565b60405180910390fd5b613c7589611b64565b15613c8457613c838d611b74565b5b5b8380613c9090615022565b94505060008703613ca2575050613cb7565b50508080613caf90615022565b915050613a6a565b508083839850985098505050505050509250925092565b60007f7965db0b000000000000000000000000000000000000000000000000000000007bffffffffffffffffffffffffffffffffffffffffffffffffffffffff1916827bffffffffffffffffffffffffffffffffffffffffffffffffffffffff19161480613d415750613d4082614386565b5b9050919050565b613d528282610a0e565b613de157613d778173ffffffffffffffffffffffffffffffffffffffff1660146143f0565b613d858360001c60206143f0565b604051602001613d96929190615e0e565b6040516020818303038152906040526040517f08c379a0000000000000000000000000000000000000000000000000000000008152600401613dd89190615e81565b60405180910390fd5b5050565b613def8282610a0e565b613ec25760016065600084815260200190815260200160002060000160008373ffffffffffffffffffffffffffffffffffffffff1673ffffffffffffffffffffffffffffffffffffffff16815260200190815260200160002060006101000a81548160ff021916908315150217905550613e6761176a565b73ffffffffffffffffffffffffffffffffffffffff168173ffffffffffffffffffffffffffffffffffffffff16837f2f8788117e7eff1d82e926ec794901d17c78024a50270940304540a733656f0d60405160405180910390a45b5050565b6000613eee836000018373ffffffffffffffffffffffffffffffffffffffff1660001b614191565b905092915050565b613f008282610a0e565b15613fd45760006065600084815260200190815260200160002060000160008373ffffffffffffffffffffffffffffffffffffffff1673ffffffffffffffffffffffffffffffffffffffff16815260200190815260200160002060006101000a81548160ff021916908315150217905550613f7961176a565b73ffffffffffffffffffffffffffffffffffffffff168173ffffffffffffffffffffffffffffffffffffffff16837ff6391f5c32d9c69d2a47ea670b442974b53935d1edc7fd64eb21e047a839171b60405160405180910390a45b5050565b6000614000836000018373ffffffffffffffffffffffffffffffffffffffff1660001b61422c565b905092915050565b600061401682600001614340565b9050919050565b600061402c8360000183614201565b60001c905092915050565b6000806008836140479190615975565b60016008866140569190615975565b60026140629190615fd6565b61406c9190615167565b60001b901b90506000818660001b16905060088461408a9190615975565b81901c60001c925050509392505050565b60006140aa826002601c614037565b9050919050565b6000806140be848461462c565b14905092915050565b610139600061013860009054906101000a900473ffffffffffffffffffffffffffffffffffffffff1673ffffffffffffffffffffffffffffffffffffffff1673ffffffffffffffffffffffffffffffffffffffff16815260200190815260200160002060010160009054906101000a900473ffffffffffffffffffffffffffffffffffffffff1661013860006101000a81548173ffffffffffffffffffffffffffffffffffffffff021916908373ffffffffffffffffffffffffffffffffffffffff160217905550565b600061419d8383614653565b6141f65782600001829080600181540180825580915050600190039060005260206000200160009091909190915055826000018054905083600101600084815260200190815260200160002081905550600190506141fb565b600090505b92915050565b600082600001828154811061421957614218615559565b5b9060005260206000200154905092915050565b6000808360010160008481526020019081526020016000205490506000811461433457600060018261425e9190615167565b90506000600186600001805490506142769190615167565b90508181146142e557600086600001828154811061429757614296615559565b5b90600052602060002001549050808760000184815481106142bb576142ba615559565b5b90600052602060002001819055508387600101600083815260200190815260200160002081905550505b856000018054806142f9576142f8616021565b5b60019003818190600052602060002001600090559055856001016000868152602001908152602001600020600090556001935050505061433a565b60009150505b92915050565b600081600001805490509050919050565b600061437f60008360000160008560010154815260200190815260200160002061401d90919063ffffffff16565b9050919050565b60007f01ffc9a7000000000000000000000000000000000000000000000000000000007bffffffffffffffffffffffffffffffffffffffffffffffffffffffff1916827bffffffffffffffffffffffffffffffffffffffffffffffffffffffff1916149050919050565b6060600060028360026144039190615975565b61440d9190614fcc565b67ffffffffffffffff81111561442657614425614a0a565b5b6040519080825280601f01601f1916602001820160405280156144585781602001600182028036833780820191505090505b5090507f3000000000000000000000000000000000000000000000000000000000000000816000815181106144905761448f615559565b5b60200101907effffffffffffffffffffffffffffffffffffffffffffffffffffffffffffff1916908160001a9053507f7800000000000000000000000000000000000000000000000000000000000000816001815181106144f4576144f3615559565b5b60200101907effffffffffffffffffffffffffffffffffffffffffffffffffffffffffffff1916908160001a905350600060018460026145349190615975565b61453e9190614fcc565b90505b60018111156145de577f3031323334353637383961626364656600000000000000000000000000000000600f8616601081106145805761457f615559565b5b1a60f81b82828151811061459757614596615559565b5b60200101907effffffffffffffffffffffffffffffffffffffffffffffffffffffffffffff1916908160001a905350600485901c9450806145d79061572a565b9050614541565b5060008414614622576040517f08c379a00000000000000000000000000000000000000000000000000000000081526004016146199061609c565b60405180910390fd5b8091505092915050565b600061464b836000016000848152602001908152602001600020614008565b905092915050565b600080836001016000848152602001908152602001600020541415905092915050565b6000604051905090565b600080fd5b600080fd5b60007fffffffff0000000000000000000000000000000000000000000000000000000082169050919050565b6146bf8161468a565b81146146ca57600080fd5b50565b6000813590506146dc816146b6565b92915050565b6000602082840312156146f8576146f7614680565b5b6000614706848285016146cd565b91505092915050565b60008115159050919050565b6147248161470f565b82525050565b600060208201905061473f600083018461471b565b92915050565b6000819050919050565b61475881614745565b82525050565b6000602082019050614773600083018461474f565b92915050565b6000819050919050565b61478c81614779565b811461479757600080fd5b50565b6000813590506147a981614783565b92915050565b6000602082840312156147c5576147c4614680565b5b60006147d38482850161479a565b91505092915050565b6147e581614779565b82525050565b600060208201905061480060008301846147dc565b92915050565b600073ffffffffffffffffffffffffffffffffffffffff82169050919050565b600061483182614806565b9050919050565b61484181614826565b811461484c57600080fd5b50565b60008135905061485e81614838565b92915050565b6000806040838503121561487b5761487a614680565b5b60006148898582860161479a565b925050602061489a8582860161484f565b9150509250929050565b6148ad81614745565b81146148b857600080fd5b50565b6000813590506148ca816148a4565b92915050565b6000602082840312156148e6576148e5614680565b5b60006148f4848285016148bb565b91505092915050565b6000806040838503121561491457614913614680565b5b60006149228582860161479a565b9250506020614933858286016148bb565b9150509250929050565b61494681614826565b82525050565b6000602082019050614961600083018461493d565b92915050565b60008060008060008060c0878903121561498457614983614680565b5b600061499289828a0161484f565b96505060206149a389828a0161484f565b95505060406149b489828a0161484f565b94505060606149c589828a0161484f565b93505060806149d689828a0161484f565b92505060a06149e789828a016148bb565b9150509295509295509295565b600080fd5b6000601f19601f8301169050919050565b7f4e487b7100000000000000000000000000000000000000000000000000000000600052604160045260246000fd5b614a42826149f9565b810181811067ffffffffffffffff82111715614a6157614a60614a0a565b5b80604052505050565b6000614a74614676565b9050614a808282614a39565b919050565b600067ffffffffffffffff821115614aa057614a9f614a0a565b5b602082029050602081019050919050565b600080fd5b6000614ac9614ac484614a85565b614a6a565b90508083825260208201905060208402830185811115614aec57614aeb614ab1565b5b835b81811015614b155780614b0188826148bb565b845260208401935050602081019050614aee565b5050509392505050565b600082601f830112614b3457614b336149f4565b5b8135614b44848260208601614ab6565b91505092915050565b600080fd5b600067ffffffffffffffff821115614b6d57614b6c614a0a565b5b614b76826149f9565b9050602081019050919050565b82818337600083830152505050565b6000614ba5614ba084614b52565b614a6a565b905082815260208101848484011115614bc157614bc0614b4d565b5b614bcc848285614b83565b509392505050565b600082601f830112614be957614be86149f4565b5b8135614bf9848260208601614b92565b91505092915050565b600080600080600060a08688031215614c1e57614c1d614680565b5b6000614c2c8882890161484f565b9550506020614c3d8882890161484f565b945050604086013567ffffffffffffffff811115614c5e57614c5d614685565b5b614c6a88828901614b1f565b935050606086013567ffffffffffffffff811115614c8b57614c8a614685565b5b614c9788828901614b1f565b925050608086013567ffffffffffffffff811115614cb857614cb7614685565b5b614cc488828901614bd4565b9150509295509295909350565b614cda8161468a565b82525050565b6000602082019050614cf56000830184614cd1565b92915050565b600060ff82169050919050565b614d1181614cfb565b8114614d1c57600080fd5b50565b600081359050614d2e81614d08565b92915050565b60008060008060008060c08789031215614d5157614d50614680565b5b6000614d5f89828a0161484f565b9650506020614d7089828a016148bb565b9550506040614d8189828a016148bb565b9450506060614d9289828a01614d1f565b9350506080614da389828a0161479a565b92505060a0614db489828a0161479a565b9150509295509295509295565b600080600080600080600060e0888a031215614de057614ddf614680565b5b6000614dee8a828b0161484f565b9750506020614dff8a828b016148bb565b9650506040614e108a828b0161484f565b9550506060614e218a828b016148bb565b9450506080614e328a828b01614d1f565b93505060a0614e438a828b0161479a565b92505060c0614e548a828b0161479a565b91505092959891949750929550565b600080600080600060a08688031215614e7f57614e7e614680565b5b6000614e8d8882890161484f565b9550506020614e9e8882890161484f565b9450506040614eaf888289016148bb565b9350506060614ec0888289016148bb565b925050608086013567ffffffffffffffff811115614ee157614ee0614685565b5b614eed88828901614bd4565b9150509295509295909350565b600082825260208201905092915050565b7f416363657373436f6e74726f6c3a2063616e206f6e6c792072656e6f756e636560008201527f20726f6c657320666f722073656c660000000000000000000000000000000000602082015250565b6000614f67602f83614efa565b9150614f7282614f0b565b604082019050919050565b60006020820190508181036000830152614f9681614f5a565b9050919050565b7f4e487b7100000000000000000000000000000000000000000000000000000000600052601160045260246000fd5b6000614fd782614745565b9150614fe283614745565b9250827fffffffffffffffffffffffffffffffffffffffffffffffffffffffffffffffff0382111561501757615016614f9d565b5b828201905092915050565b600061502d82614745565b91507fffffffffffffffffffffffffffffffffffffffffffffffffffffffffffffffff820361505f5761505e614f9d565b5b600182019050919050565b7f4d61726b65743a2072656d6f76616c206e6f7420696e2061637469766520737560008201527f70706c7900000000000000000000000000000000000000000000000000000000602082015250565b60006150c6602483614efa565b91506150d18261506a565b604082019050919050565b600060208201905081810360008301526150f5816150b9565b9050919050565b6000604082019050615111600083018561493d565b61511e602083018461474f565b9392505050565b600081519050615134816148a4565b92915050565b6000602082840312156151505761514f614680565b5b600061515e84828501615125565b91505092915050565b600061517282614745565b915061517d83614745565b9250828210156151905761518f614f9d565b5b828203905092915050565b7f4d61726b65743a2052656d6f76616c20616c7265616479207265736572766564600082015250565b60006151d1602083614efa565b91506151dc8261519b565b602082019050919050565b60006020820190508181036000830152615200816151c4565b9050919050565b6000819050919050565b6000819050919050565b600061523661523161522c84615207565b615211565b614cfb565b9050919050565b6152468161521b565b82525050565b6000602082019050615261600083018461523d565b92915050565b7f4d61726b65743a2072656d6f76616c206e6f7420696e2072657365727665642060008201527f737570706c790000000000000000000000000000000000000000000000000000602082015250565b60006152c3602683614efa565b91506152ce82615267565b604082019050919050565b600060208201905081810360008301526152f2816152b6565b9050919050565b7f4d61726b65743a20556e61626c6520746f20756e726573657276652072656d6f60008201527f76616c0000000000000000000000000000000000000000000000000000000000602082015250565b6000615355602383614efa565b9150615360826152f9565b604082019050919050565b6000602082019050818103600083015261538481615348565b9050919050565b600081519050919050565b600082825260208201905092915050565b6000819050602082019050919050565b6153c081614745565b82525050565b60006153d283836153b7565b60208301905092915050565b6000602082019050919050565b60006153f68261538b565b6154008185615396565b935061540b836153a7565b8060005b8381101561543c57815161542388826153c6565b975061542e836153de565b92505060018101905061540f565b5085935050505092915050565b600060408201905061545e600083018561493d565b818103602083015261547081846153eb565b90509392505050565b600061548c61548784614a85565b614a6a565b905080838252602082019050602084028301858111156154af576154ae614ab1565b5b835b818110156154d857806154c48882615125565b8452602084019350506020810190506154b1565b5050509392505050565b600082601f8301126154f7576154f66149f4565b5b8151615507848260208601615479565b91505092915050565b60006020828403121561552657615525614680565b5b600082015167ffffffffffffffff81111561554457615543614685565b5b615550848285016154e2565b91505092915050565b7f4e487b7100000000000000000000000000000000000000000000000000000000600052603260045260246000fd5b7f4d61726b65743a20556e61626c6520746f206164642072656d6f76616c20627960008201527f2076696e74616765000000000000000000000000000000000000000000000000602082015250565b60006155e4602883614efa565b91506155ef82615588565b604082019050919050565b60006020820190508181036000830152615613816155d7565b9050919050565b61562381614cfb565b82525050565b600060e08201905061563e600083018a61493d565b61564b602083018961493d565b615658604083018861474f565b615665606083018761474f565b615672608083018661561a565b61567f60a08301856147dc565b61568c60c08301846147dc565b98975050505050505050565b7f4d61726b65743a206661696c656420746f2072656d6f766520636f727265637460008201527f2072656d6f76616c000000000000000000000000000000000000000000000000602082015250565b60006156f4602883614efa565b91506156ff82615698565b604082019050919050565b60006020820190508181036000830152615723816156e7565b9050919050565b600061573582614745565b91506000820361574857615747614f9d565b5b600182039050919050565b7f496e697469616c697a61626c653a20636f6e747261637420697320616c72656160008201527f647920696e697469616c697a6564000000000000000000000000000000000000602082015250565b60006157af602e83614efa565b91506157ba82615753565b604082019050919050565b600060208201905081810360008301526157de816157a2565b9050919050565b7f496e697469616c697a61626c653a20636f6e7472616374206973206e6f74206960008201527f6e697469616c697a696e67000000000000000000000000000000000000000000602082015250565b6000615841602b83614efa565b915061584c826157e5565b604082019050919050565b6000602082019050818103600083015261587081615834565b9050919050565b7f4d61726b65743a204f7574206f662073746f636b000000000000000000000000600082015250565b60006158ad601483614efa565b91506158b882615877565b602082019050919050565b600060208201905081810360008301526158dc816158a0565b9050919050565b7f4c6f7720737570706c7920616e64206275796572206e6f74206f6e20616c6c6f60008201527f776c697374000000000000000000000000000000000000000000000000000000602082015250565b600061593f602583614efa565b915061594a826158e3565b604082019050919050565b6000602082019050818103600083015261596e81615932565b9050919050565b600061598082614745565b915061598b83614745565b9250817fffffffffffffffffffffffffffffffffffffffffffffffffffffffffffffffff04831182151516156159c4576159c3614f9d565b5b828202905092915050565b7f4e487b7100000000000000000000000000000000000000000000000000000000600052601260045260246000fd5b6000615a0982614745565b9150615a1483614745565b925082615a2457615a236159cf565b5b828204905092915050565b7f4d61726b65743a204e6f7420656e6f75676820737570706c7900000000000000600082015250565b6000615a65601983614efa565b9150615a7082615a2f565b602082019050919050565b60006020820190508181036000830152615a9481615a58565b9050919050565b7f4d61726b65743a204661696c656420746f2072656d6f76652072656d6f76616c60008201527f2066726f6d20737570706c790000000000000000000000000000000000000000602082015250565b6000615af7602c83614efa565b9150615b0282615a9b565b604082019050919050565b60006020820190508181036000830152615b2681615aea565b9050919050565b60006020820190508181036000830152615b4781846153eb565b905092915050565b6000604082019050615b64600083018561474f565b615b71602083018461474f565b9392505050565b6000606082019050615b8d600083018661493d565b615b9a602083018561493d565b615ba7604083018461474f565b949350505050565b615bb88161470f565b8114615bc357600080fd5b50565b600081519050615bd581615baf565b92915050565b600060208284031215615bf157615bf0614680565b5b6000615bff84828501615bc6565b91505092915050565b600081519050919050565b600082825260208201905092915050565b60005b83811015615c42578082015181840152602081019050615c27565b83811115615c51576000848401525b50505050565b6000615c6282615c08565b615c6c8185615c13565b9350615c7c818560208601615c24565b615c85816149f9565b840191505092915050565b6000608082019050615ca5600083018761493d565b8181036020830152615cb781866153eb565b90508181036040830152615ccb81856153eb565b90508181036060830152615cdf8184615c57565b905095945050505050565b6000606082019050615cff600083018661493d565b8181036020830152615d1181856153eb565b90508181036040830152615d2581846153eb565b9050949350505050565b600081905092915050565b7f416363657373436f6e74726f6c3a206163636f756e7420000000000000000000600082015250565b6000615d70601783615d2f565b9150615d7b82615d3a565b601782019050919050565b600081519050919050565b6000615d9c82615d86565b615da68185615d2f565b9350615db6818560208601615c24565b80840191505092915050565b7f206973206d697373696e6720726f6c6520000000000000000000000000000000600082015250565b6000615df8601183615d2f565b9150615e0382615dc2565b601182019050919050565b6000615e1982615d63565b9150615e258285615d91565b9150615e3082615deb565b9150615e3c8284615d91565b91508190509392505050565b6000615e5382615d86565b615e5d8185614efa565b9350615e6d818560208601615c24565b615e76816149f9565b840191505092915050565b60006020820190508181036000830152615e9b8184615e48565b905092915050565b60008160011c9050919050565b6000808291508390505b6001851115615efa57808604811115615ed657615ed5614f9d565b5b6001851615615ee55780820291505b8081029050615ef385615ea3565b9450615eba565b94509492505050565b600082615f135760019050615fcf565b81615f215760009050615fcf565b8160018114615f375760028114615f4157615f70565b6001915050615fcf565b60ff841115615f5357615f52614f9d565b5b8360020a915084821115615f6a57615f69614f9d565b5b50615fcf565b5060208310610133831016604e8410600b8410161715615fa55782820a905083811115615fa057615f9f614f9d565b5b615fcf565b615fb28484846001615eb0565b92509050818404811115615fc957615fc8614f9d565b5b81810290505b9392505050565b6000615fe182614745565b9150615fec83614745565b92506160197fffffffffffffffffffffffffffffffffffffffffffffffffffffffffffffffff8484615f03565b905092915050565b7f4e487b7100000000000000000000000000000000000000000000000000000000600052603160045260246000fd5b7f537472696e67733a20686578206c656e67746820696e73756666696369656e74600082015250565b6000616086602083614efa565b915061609182616050565b602082019050919050565b600060208201905081810360008301526160b581616079565b905091905056fea26469706673582212206c039a572516b6129a3223ce3d56be139a535ff8415fa4bd39e343836829aaa964736f6c634300080f0033",
  "linkReferences": {},
  "deployedLinkReferences": {}
}