{
  "_format": "hh-sol-artifact-1",
  "contractName": "FIFOMarket",
  "sourceName": "contracts/FIFOMarket.sol",
  "abi": [
    {
      "anonymous": false,
      "inputs": [
        {
          "indexed": false,
          "internalType": "uint256",
          "name": "threshold",
          "type": "uint256"
        }
      ],
      "name": "PriorityRestrictedThresholdSet",
      "type": "event"
    },
    {
      "anonymous": false,
      "inputs": [
        {
          "indexed": true,
          "internalType": "bytes32",
          "name": "role",
          "type": "bytes32"
        },
        {
          "indexed": true,
          "internalType": "bytes32",
          "name": "previousAdminRole",
          "type": "bytes32"
        },
        {
          "indexed": true,
          "internalType": "bytes32",
          "name": "newAdminRole",
          "type": "bytes32"
        }
      ],
      "name": "RoleAdminChanged",
      "type": "event"
    },
    {
      "anonymous": false,
      "inputs": [
        {
          "indexed": true,
          "internalType": "bytes32",
          "name": "role",
          "type": "bytes32"
        },
        {
          "indexed": true,
          "internalType": "address",
          "name": "account",
          "type": "address"
        },
        {
          "indexed": true,
          "internalType": "address",
          "name": "sender",
          "type": "address"
        }
      ],
      "name": "RoleGranted",
      "type": "event"
    },
    {
      "anonymous": false,
      "inputs": [
        {
          "indexed": true,
          "internalType": "bytes32",
          "name": "role",
          "type": "bytes32"
        },
        {
          "indexed": true,
          "internalType": "address",
          "name": "account",
          "type": "address"
        },
        {
          "indexed": true,
          "internalType": "address",
          "name": "sender",
          "type": "address"
        }
      ],
      "name": "RoleRevoked",
      "type": "event"
    },
    {
      "inputs": [],
      "name": "ALLOWLIST_ROLE",
      "outputs": [
        {
          "internalType": "bytes32",
          "name": "",
          "type": "bytes32"
        }
      ],
      "stateMutability": "view",
      "type": "function"
    },
    {
      "inputs": [],
      "name": "DEFAULT_ADMIN_ROLE",
      "outputs": [
        {
          "internalType": "bytes32",
          "name": "",
          "type": "bytes32"
        }
      ],
      "stateMutability": "view",
      "type": "function"
    },
    {
      "inputs": [
        {
          "internalType": "bytes32",
          "name": "role",
          "type": "bytes32"
        }
      ],
      "name": "getRoleAdmin",
      "outputs": [
        {
          "internalType": "bytes32",
          "name": "",
          "type": "bytes32"
        }
      ],
      "stateMutability": "view",
      "type": "function"
    },
    {
      "inputs": [
        {
          "internalType": "bytes32",
          "name": "role",
          "type": "bytes32"
        },
        {
          "internalType": "uint256",
          "name": "index",
          "type": "uint256"
        }
      ],
      "name": "getRoleMember",
      "outputs": [
        {
          "internalType": "address",
          "name": "",
          "type": "address"
        }
      ],
      "stateMutability": "view",
      "type": "function"
    },
    {
      "inputs": [
        {
          "internalType": "bytes32",
          "name": "role",
          "type": "bytes32"
        }
      ],
      "name": "getRoleMemberCount",
      "outputs": [
        {
          "internalType": "uint256",
          "name": "",
          "type": "uint256"
        }
      ],
      "stateMutability": "view",
      "type": "function"
    },
    {
      "inputs": [
        {
          "internalType": "bytes32",
          "name": "role",
          "type": "bytes32"
        },
        {
          "internalType": "address",
          "name": "account",
          "type": "address"
        }
      ],
      "name": "grantRole",
      "outputs": [],
      "stateMutability": "nonpayable",
      "type": "function"
    },
    {
      "inputs": [
        {
          "internalType": "bytes32",
          "name": "role",
          "type": "bytes32"
        },
        {
          "internalType": "address",
          "name": "account",
          "type": "address"
        }
      ],
      "name": "hasRole",
      "outputs": [
        {
          "internalType": "bool",
          "name": "",
          "type": "bool"
        }
      ],
      "stateMutability": "view",
      "type": "function"
    },
    {
      "inputs": [
        {
          "internalType": "address",
          "name": "removalAddress",
          "type": "address"
        },
        {
          "internalType": "address",
          "name": "bridgedPolygonNoriAddress",
          "type": "address"
        },
        {
          "internalType": "address",
          "name": "certificateAddress",
          "type": "address"
        },
        {
          "internalType": "address",
          "name": "noriFeeWalletAddress",
          "type": "address"
        },
        {
          "internalType": "uint256",
          "name": "noriFee",
          "type": "uint256"
        }
      ],
      "name": "initialize",
      "outputs": [],
      "stateMutability": "nonpayable",
      "type": "function"
    },
    {
      "inputs": [
        {
          "internalType": "bool",
          "name": "includePriorityRestrictedSupply",
          "type": "bool"
        }
      ],
      "name": "nextRemovalForSale",
      "outputs": [
        {
          "internalType": "uint256",
          "name": "",
          "type": "uint256"
        }
      ],
      "stateMutability": "view",
      "type": "function"
    },
    {
      "inputs": [],
      "name": "numberOfNrtsInQueueComputed",
      "outputs": [
        {
          "internalType": "uint256",
          "name": "",
          "type": "uint256"
        }
      ],
      "stateMutability": "view",
      "type": "function"
    },
    {
      "inputs": [
        {
          "internalType": "address",
          "name": "",
          "type": "address"
        },
        {
          "internalType": "address",
          "name": "",
          "type": "address"
        },
        {
          "internalType": "uint256[]",
          "name": "ids",
          "type": "uint256[]"
        },
        {
          "internalType": "uint256[]",
          "name": "",
          "type": "uint256[]"
        },
        {
          "internalType": "bytes",
          "name": "",
          "type": "bytes"
        }
      ],
      "name": "onERC1155BatchReceived",
      "outputs": [
        {
          "internalType": "bytes4",
          "name": "",
          "type": "bytes4"
        }
      ],
      "stateMutability": "nonpayable",
      "type": "function"
    },
    {
      "inputs": [
        {
          "internalType": "address",
          "name": "",
          "type": "address"
        },
        {
          "internalType": "address",
          "name": "",
          "type": "address"
        },
        {
          "internalType": "uint256",
          "name": "",
          "type": "uint256"
        },
        {
          "internalType": "uint256",
          "name": "",
          "type": "uint256"
        },
        {
          "internalType": "bytes",
          "name": "",
          "type": "bytes"
        }
      ],
      "name": "onERC1155Received",
      "outputs": [
        {
          "internalType": "bytes4",
          "name": "",
          "type": "bytes4"
        }
      ],
      "stateMutability": "nonpayable",
      "type": "function"
    },
    {
      "inputs": [],
      "name": "priorityRestrictedThreshold",
      "outputs": [
        {
          "internalType": "uint256",
          "name": "",
          "type": "uint256"
        }
      ],
      "stateMutability": "view",
      "type": "function"
    },
    {
      "inputs": [
        {
          "internalType": "bytes32",
          "name": "role",
          "type": "bytes32"
        },
        {
          "internalType": "address",
          "name": "account",
          "type": "address"
        }
      ],
      "name": "renounceRole",
      "outputs": [],
      "stateMutability": "nonpayable",
      "type": "function"
    },
    {
      "inputs": [
        {
          "internalType": "bytes32",
          "name": "role",
          "type": "bytes32"
        },
        {
          "internalType": "address",
          "name": "account",
          "type": "address"
        }
      ],
      "name": "revokeRole",
      "outputs": [],
      "stateMutability": "nonpayable",
      "type": "function"
    },
    {
      "inputs": [
        {
          "internalType": "uint256",
          "name": "threshold",
          "type": "uint256"
        }
      ],
      "name": "setPriorityRestrictedThreshold",
      "outputs": [],
      "stateMutability": "nonpayable",
      "type": "function"
    },
    {
      "inputs": [
        {
          "internalType": "bytes4",
          "name": "interfaceId",
          "type": "bytes4"
        }
      ],
      "name": "supportsInterface",
      "outputs": [
        {
          "internalType": "bool",
          "name": "",
          "type": "bool"
        }
      ],
      "stateMutability": "view",
      "type": "function"
    },
    {
      "inputs": [
        {
          "internalType": "address",
          "name": "",
          "type": "address"
        },
        {
          "internalType": "address",
          "name": "from",
          "type": "address"
        },
        {
          "internalType": "address",
          "name": "",
          "type": "address"
        },
        {
          "internalType": "uint256",
          "name": "amount",
          "type": "uint256"
        },
        {
          "internalType": "bytes",
          "name": "userData",
          "type": "bytes"
        },
        {
          "internalType": "bytes",
          "name": "",
          "type": "bytes"
        }
      ],
      "name": "tokensReceived",
      "outputs": [],
      "stateMutability": "nonpayable",
      "type": "function"
    },
    {
      "inputs": [],
      "name": "totalSupply",
      "outputs": [
        {
          "internalType": "uint256",
          "name": "",
          "type": "uint256"
        }
      ],
      "stateMutability": "view",
      "type": "function"
    },
    {
      "inputs": [],
      "name": "totalUnrestrictedSupply",
      "outputs": [
        {
          "internalType": "uint256",
          "name": "",
          "type": "uint256"
        }
      ],
      "stateMutability": "view",
      "type": "function"
    }
  ],
  "bytecode": "0x608060405234801561001057600080fd5b50612837806100206000396000f3fe608060405234801561001057600080fd5b506004361061012b5760003560e01c80639010d07c116100ad578063ca15c87311610071578063ca15c87314610294578063d547741f146102a7578063d797462f146102ba578063f23a6e61146102cd578063f7013ef6146102ec57600080fd5b80639010d07c1461021a57806391d1485414610245578063a0f4031714610258578063a217fddf14610260578063bc197c811461026857600080fd5b8063248a9ca3116100f4578063248a9ca3146101a25780632f2ff15d146101c55780633030b532146101d857806336568abe146101ff5780637530b4501461021257600080fd5b806223de291461013057806301ffc9a71461014557806312de2b051461016d57806315d0a4cd1461018557806318160ddd14610198575b600080fd5b61014361013e366004611f16565b6102ff565b005b610158610153366004611fc6565b61125f565b60405190151581526020015b60405180910390f35b6101776101365481565b604051908152602001610164565b610177610193366004611ff0565b61127f565b6101776101375481565b6101776101b0366004612012565b60009081526065602052604090206001015490565b6101436101d336600461202b565b6112b5565b6101777f26a560d834a19637eccba4611bbc09fb32970bb627da0a70f14f83fdc9822cbc81565b61014361020d36600461202b565b6112e0565b61017761135e565b61022d61022836600461205b565b61138b565b6040516001600160a01b039091168152602001610164565b61015861025336600461202b565b6113aa565b6101776113d5565b610177600081565b61027b6102763660046121b1565b611492565b6040516001600160e01b03199091168152602001610164565b6101776102a2366004612012565b6115cf565b6101436102b536600461202b565b6115e6565b6101436102c8366004612012565b61160c565b61027b6102db36600461225e565b63f23a6e6160e01b95945050505050565b6101436102fa3660046122c6565b611655565b6101375460000361034e5760405162461bcd60e51b81526020600482015260146024820152734d61726b65743a204f7574206f662073746f636b60601b60448201526064015b60405180910390fd5b6101365461013754116103df576103857f26a560d834a19637eccba4611bbc09fb32970bb627da0a70f14f83fdc9822cbc886113aa565b6103df5760405162461bcd60e51b815260206004820152602560248201527f4c6f7720737570706c7920616e64206275796572206e6f74206f6e20616c6c6f6044820152641ddb1a5cdd60da1b6064820152608401610345565b6101335461013254036104305760405162461bcd60e51b81526020600482015260196024820152784d61726b65743a204e6f7420656e6f75676820737570706c7960381b6044820152606401610345565b600061043e8486018661232a565b90506001600160a01b0381166104a25760405162461bcd60e51b8152602060048201526024808201527f4d61726b65743a2043616e6e6f74206d696e7420746f207468652030206164646044820152637265737360e01b6064820152608401610345565b610130546001600160a01b031633146105235760405162461bcd60e51b815260206004820152603960248201527f4d61726b65743a205468697320636f6e74726163742063616e206f6e6c79207260448201527f6563656976652042726964676564506f6c79676f6e4e4f5249000000000000006064820152608401610345565b6000610135546064610535919061235d565b610540886064612375565b61054a9190612394565b905080600061055761187f565b6001600160401b0381111561056e5761056e61207d565b604051908082528060200260200182016040528015610597578160200160208202803683370190505b50905060006105a461187f565b6001600160401b038111156105bb576105bb61207d565b6040519080825280602002602001820160405280156105e4578160200160208202803683370190505b50905060006105f161187f565b6001600160401b038111156106085761060861207d565b604051908082528060200260200182016040528015610631578160200160208202803683370190505b5060408051608081018252610134546001600160a01b0390811680835260006020808501828152858701838152600160608801818152610139548652610138855289862096865295909352968320865181546001600160a01b0319169616959095178555519084015593516002830181905590516003909201805460ff1916921515929092179091556101325493945091929091905b61013354811015610aa55761012e5460008281526101316020526040808220549051627eeac760e11b8152306004820152602481019190915290916001600160a01b03169062fdd58e90604401602060405180830381865afa158015610731573d6000803e3d6000fd5b505050506040513d601f19601f8201168201806040525081019061075591906123b6565b600083815261013160205260408120549192509061077290611893565b9050818a1015610807576000838152610131602052604090205489518a90889081106107a0576107a06123cf565b602002602001018181525050898887815181106107bf576107bf6123cf565b602002602001018181525050808787815181106107de576107de6123cf565b60200260200101906001600160a01b031690816001600160a01b031681525050600099506108f4565b60016101335461081791906123e5565b831480156108245750818a115b1561086d5760405162461bcd60e51b81526020600482015260196024820152784d61726b65743a204e6f7420656e6f75676820737570706c7960381b6044820152606401610345565b6000838152610131602052604090205489518a9088908110610891576108916123cf565b602002602001018181525050818887815181106108b0576108b06123cf565b602002602001018181525050808787815181106108cf576108cf6123cf565b6001600160a01b03909216602092830291909101909101526108f1828b6123e5565b99505b6108ff60018761235d565b610139546000908152610138602090815260408083206001600160a01b038087168552908352928190208151608081018352815490941684526001810154928401929092526002820154908301526003015460ff16151560608201819052919750906109735761097060018661235d565b94505b6040518060800160405280836001600160a01b031681526020018a868151811061099f5761099f6123cf565b602002602001015183602001516109b6919061235d565b815260208082018890526001604092830181905261013954600090815261013883528381206001600160a01b03888116835290845290849020855181546001600160a01b0319169216919091178155918401519082015590820151600282015560608201516003909101805460ff1916911515919091179055610135548a51919250906064908b9087908110610a4e57610a4e6123cf565b6020026020010151610a609190612394565b610a6a9190612375565b86602001818151610a7b919061235d565b90525060008b9003610a8f57505050610aa5565b5050508080610a9d906123fc565b9150506106c7565b5061013954600090815261013860209081526040808320610134546001600160a01b039081168552908352818420865181546001600160a01b0319169216919091178155918501516001830155840151600282015560608401516003909101805460ff1916911515919091179055836001600160401b03811115610b2b57610b2b61207d565b604051908082528060200260200182016040528015610b54578160200160208202803683370190505b5090506000846001600160401b03811115610b7157610b7161207d565b604051908082528060200260200182016040528015610b9a578160200160208202803683370190505b50905060005b85811015610c2957888181518110610bba57610bba6123cf565b6020026020010151838281518110610bd457610bd46123cf565b602002602001018181525050878181518110610bf257610bf26123cf565b6020026020010151828281518110610c0c57610c0c6123cf565b602090810291909101015280610c21816123fc565b915050610ba0565b5060008a604051602001610c3f91815260200190565b60408051601f198184030181529082905261012f54630fbfeffd60e11b83529092506001600160a01b031690631f7fdffa90610c85908f908790879087906004016124ac565b600060405180830381600087803b158015610c9f57600080fd5b505af1158015610cb3573d6000803e3d6000fd5b505050506000846001610cc6919061235d565b6001600160401b03811115610cdd57610cdd61207d565b604051908082528060200260200182016040528015610d06578160200160208202803683370190505b5090506000610d1686600161235d565b6001600160401b03811115610d2d57610d2d61207d565b604051908082528060200260200182016040528015610d56578160200160208202803683370190505b5090506000610d6687600161235d565b6001600160401b03811115610d7d57610d7d61207d565b604051908082528060200260200182016040528015610db057816020015b6060815260200190600190039081610d9b5790505b5090506000610dc088600161235d565b6001600160401b03811115610dd757610dd761207d565b604051908082528060200260200182016040528015610e00578160200160208202803683370190505b5090508860200151838a6040015181518110610e1e57610e1e6123cf565b6020026020010181815250508860000151848a6040015181518110610e4557610e456123cf565b60200260200101906001600160a01b031690816001600160a01b03168152505060405180604001604052806002815260200161060f60f31b815250828a6040015181518110610e9657610e966123cf565b60200260200101819052506000818a6040015181518110610eb957610eb96123cf565b9115156020928302919091019091015260005b8751811015610ff45761012e5488516001600160a01b039091169062fdd58e9030908b9085908110610f0057610f006123cf565b60200260200101516040518363ffffffff1660e01b8152600401610f399291906001600160a01b03929092168252602082015260400190565b602060405180830381865afa158015610f56573d6000803e3d6000fd5b505050506040513d601f19601f82011682018060405250810190610f7a91906123b6565b878281518110610f8c57610f8c6123cf565b602002602001015103610fb0576101328054906000610faa836123fc565b91905055505b868181518110610fc257610fc26123cf565b60200260200101516101376000828254610fdc91906123e5565b90915550819050610fec816123fc565b915050610ecc565b5060005b8881101561115957610139546000908152610138602052604081208d5182908f9085908110611029576110296123cf565b6020908102919091018101516001600160a01b039081168352828201939093526040918201600020825160808101845281549094168452600181015491840182905260028101549284018390526003015460ff1615156060840152875192935091879190811061109b5761109b6123cf565b6020026020010181815250508060000151868260400151815181106110c2576110c26123cf565b60200260200101906001600160a01b031690816001600160a01b03168152505060405180604001604052806002815260200161060f60f31b81525084826040015181518110611113576111136123cf565b6020026020010181905250600083826040015181518110611136576111366123cf565b911515602092830291909101909101525080611151816123fc565b915050610ff8565b5061013054604051633367c5e760e11b81526001600160a01b03909116906366cf8bce90611193908790879087908190889060040161257d565b600060405180830381600087803b1580156111ad57600080fd5b505af11580156111c1573d6000803e3d6000fd5b505061012e54604051631ac8311560e21b81526001600160a01b039091169250636b20c45491506111fa9030908b908b9060040161261c565b600060405180830381600087803b15801561121457600080fd5b505af1158015611228573d6000803e3d6000fd5b5050505060016101396000828254611240919061235d565b9091555050505050505050505050505050505050505050505050505050565b600061126a826118a2565b806112795750611279826118c7565b92915050565b6101325460009081526101316020526040812054821580156112a75750610136546101375411155b156112795750600092915050565b6000828152606560205260409020600101546112d181336118ec565b6112db8383611950565b505050565b6001600160a01b03811633146113505760405162461bcd60e51b815260206004820152602f60248201527f416363657373436f6e74726f6c3a2063616e206f6e6c792072656e6f756e636560448201526e103937b632b9903337b91039b2b63360891b6064820152608401610345565b61135a8282611972565b5050565b6000610136546101375410156113745750600090565b610136546101375461138691906123e5565b905090565b60008281526097602052604081206113a39083611994565b9392505050565b60009182526065602090815260408084206001600160a01b0393909316845291905290205460ff1690565b6101325460009081905b6101335481101561148c5761012e546000828152610131602052604090819020549051627eeac760e11b815230600482015260248101919091526001600160a01b039091169062fdd58e90604401602060405180830381865afa15801561144a573d6000803e3d6000fd5b505050506040513d601f19601f8201168201806040525081019061146e91906123b6565b611478908361235d565b915080611484816123fc565b9150506113df565b50919050565b6000805b84518110156115bc5761012e5485516000916001600160a01b03169062fdd58e9030908990869081106114cb576114cb6123cf565b60200260200101516040518363ffffffff1660e01b81526004016115049291906001600160a01b03929092168252602082015260400190565b602060405180830381865afa158015611521573d6000803e3d6000fd5b505050506040513d601f19601f8201168201806040525081019061154591906123b6565b905080610137600082825461155a919061235d565b92505081905550858281518110611573576115736123cf565b6020908102919091018101516101338054600090815261013190935260408320919091558054916115a3836123fc565b91905055505080806115b4906123fc565b915050611496565b5063bc197c8160e01b9695505050505050565b6000818152609760205260408120611279906119a0565b60008281526065602052604090206001015461160281336118ec565b6112db8383611972565b600061161881336118ec565b6101368290556040518281527f7ab6aa6547859e9ca74d567d44fefa0d63272ac019f4ebf9333032a62ea06fa59060200160405180910390a15050565b600054610100900460ff166116705760005460ff1615611674565b303b155b6116d75760405162461bcd60e51b815260206004820152602e60248201527f496e697469616c697a61626c653a20636f6e747261637420697320616c72656160448201526d191e481a5b9a5d1a585b1a5e995960921b6064820152608401610345565b600054610100900460ff161580156116f9576000805461ffff19166101011790555b6117016119aa565b6117096119aa565b6117116119aa565b6117196119aa565b6117216119aa565b61012e80546001600160a01b03199081166001600160a01b03898116919091179092556101308054821688841617905561012f80548216878416179055610134805482169286169290921790915561013583905561012d8054731820a4b7618bde71dce8cdc73aab6c95905fad249216821790556040516329965a1d60e01b815230600482018190527fb281fc8c12954d22544db45de3159a39272895b169a852b314f9cc762e44c53b602483015260448201526329965a1d90606401600060405180830381600087803b1580156117f857600080fd5b505af115801561180c573d6000803e3d6000fd5b505060006101328190556101338190556101368190556101378190556118359250905033611950565b61185f7f26a560d834a19637eccba4611bbc09fb32970bb627da0a70f14f83fdc9822cbc33611950565b6000610139558015611877576000805461ff00191690555b505050505050565b6000610132546101335461138691906123e5565b60006112798260146004611a17565b60006001600160e01b03198216635a05180f60e01b1480611279575061127982611a63565b60006001600160e01b03198216630271189760e51b14806112795750611279826118a2565b6118f682826113aa565b61135a5761190e816001600160a01b03166014611a98565b611919836020611a98565b60405160200161192a92919061265c565b60408051601f198184030181529082905262461bcd60e51b8252610345916004016126d1565b61195a8282611c33565b60008281526097602052604090206112db9082611cb9565b61197c8282611cce565b60008281526097602052604090206112db9082611d35565b60006113a38383611d4a565b6000611279825490565b600054610100900460ff16611a155760405162461bcd60e51b815260206004820152602b60248201527f496e697469616c697a61626c653a20636f6e7472616374206973206e6f74206960448201526a6e697469616c697a696e6760a81b6064820152608401610345565b565b600080611a25600884612375565b6001611a32600887612375565b611a3d9060026127c8565b611a4791906123e5565b901b9050848116611a59600885612375565b1c95945050505050565b60006001600160e01b03198216637965db0b60e01b148061127957506301ffc9a760e01b6001600160e01b0319831614611279565b60606000611aa7836002612375565b611ab290600261235d565b6001600160401b03811115611ac957611ac961207d565b6040519080825280601f01601f191660200182016040528015611af3576020820181803683370190505b509050600360fc1b81600081518110611b0e57611b0e6123cf565b60200101906001600160f81b031916908160001a905350600f60fb1b81600181518110611b3d57611b3d6123cf565b60200101906001600160f81b031916908160001a9053506000611b61846002612375565b611b6c90600161235d565b90505b6001811115611be4576f181899199a1a9b1b9c1cb0b131b232b360811b85600f1660108110611ba057611ba06123cf565b1a60f81b828281518110611bb657611bb66123cf565b60200101906001600160f81b031916908160001a90535060049490941c93611bdd816127d4565b9050611b6f565b5083156113a35760405162461bcd60e51b815260206004820181905260248201527f537472696e67733a20686578206c656e67746820696e73756666696369656e746044820152606401610345565b611c3d82826113aa565b61135a5760008281526065602090815260408083206001600160a01b03851684529091529020805460ff19166001179055611c753390565b6001600160a01b0316816001600160a01b0316837f2f8788117e7eff1d82e926ec794901d17c78024a50270940304540a733656f0d60405160405180910390a45050565b60006113a3836001600160a01b038416611d74565b611cd882826113aa565b1561135a5760008281526065602090815260408083206001600160a01b0385168085529252808320805460ff1916905551339285917ff6391f5c32d9c69d2a47ea670b442974b53935d1edc7fd64eb21e047a839171b9190a45050565b60006113a3836001600160a01b038416611dc3565b6000826000018281548110611d6157611d616123cf565b9060005260206000200154905092915050565b6000818152600183016020526040812054611dbb57508154600181810184556000848152602080822090930184905584548482528286019093526040902091909155611279565b506000611279565b60008181526001830160205260408120548015611eac576000611de76001836123e5565b8554909150600090611dfb906001906123e5565b9050818114611e60576000866000018281548110611e1b57611e1b6123cf565b9060005260206000200154905080876000018481548110611e3e57611e3e6123cf565b6000918252602080832090910192909255918252600188019052604090208390555b8554869080611e7157611e716127eb565b600190038181906000526020600020016000905590558560010160008681526020019081526020016000206000905560019350505050611279565b6000915050611279565b6001600160a01b0381168114611ecb57600080fd5b50565b60008083601f840112611ee057600080fd5b5081356001600160401b03811115611ef757600080fd5b602083019150836020828501011115611f0f57600080fd5b9250929050565b60008060008060008060008060c0898b031215611f3257600080fd5b8835611f3d81611eb6565b97506020890135611f4d81611eb6565b96506040890135611f5d81611eb6565b95506060890135945060808901356001600160401b0380821115611f8057600080fd5b611f8c8c838d01611ece565b909650945060a08b0135915080821115611fa557600080fd5b50611fb28b828c01611ece565b999c989b5096995094979396929594505050565b600060208284031215611fd857600080fd5b81356001600160e01b0319811681146113a357600080fd5b60006020828403121561200257600080fd5b813580151581146113a357600080fd5b60006020828403121561202457600080fd5b5035919050565b6000806040838503121561203e57600080fd5b82359150602083013561205081611eb6565b809150509250929050565b6000806040838503121561206e57600080fd5b50508035926020909101359150565b634e487b7160e01b600052604160045260246000fd5b604051601f8201601f191681016001600160401b03811182821017156120bb576120bb61207d565b604052919050565b600082601f8301126120d457600080fd5b813560206001600160401b038211156120ef576120ef61207d565b8160051b6120fe828201612093565b928352848101820192828101908785111561211857600080fd5b83870192505b848310156121375782358252918301919083019061211e565b979650505050505050565b600082601f83011261215357600080fd5b81356001600160401b0381111561216c5761216c61207d565b61217f601f8201601f1916602001612093565b81815284602083860101111561219457600080fd5b816020850160208301376000918101602001919091529392505050565b600080600080600060a086880312156121c957600080fd5b85356121d481611eb6565b945060208601356121e481611eb6565b935060408601356001600160401b038082111561220057600080fd5b61220c89838a016120c3565b9450606088013591508082111561222257600080fd5b61222e89838a016120c3565b9350608088013591508082111561224457600080fd5b5061225188828901612142565b9150509295509295909350565b600080600080600060a0868803121561227657600080fd5b853561228181611eb6565b9450602086013561229181611eb6565b9350604086013592506060860135915060808601356001600160401b038111156122ba57600080fd5b61225188828901612142565b600080600080600060a086880312156122de57600080fd5b85356122e981611eb6565b945060208601356122f981611eb6565b9350604086013561230981611eb6565b9250606086013561231981611eb6565b949793965091946080013592915050565b60006020828403121561233c57600080fd5b81356113a381611eb6565b634e487b7160e01b600052601160045260246000fd5b6000821982111561237057612370612347565b500190565b600081600019048311821515161561238f5761238f612347565b500290565b6000826123b157634e487b7160e01b600052601260045260246000fd5b500490565b6000602082840312156123c857600080fd5b5051919050565b634e487b7160e01b600052603260045260246000fd5b6000828210156123f7576123f7612347565b500390565b60006001820161240e5761240e612347565b5060010190565b600081518084526020808501945080840160005b8381101561244557815187529582019590820190600101612429565b509495945050505050565b60005b8381101561246b578181015183820152602001612453565b8381111561247a576000848401525b50505050565b60008151808452612498816020860160208601612450565b601f01601f19169290920160200192915050565b6001600160a01b03851681526080602082018190526000906124d090830186612415565b82810360408401526124e28186612415565b905082810360608401526121378185612480565b600081518084526020808501808196508360051b8101915082860160005b8581101561253e57828403895261252c848351612480565b98850198935090840190600101612514565b5091979650505050505050565b600081518084526020808501945080840160005b8381101561244557815115158752958201959082019060010161255f565b60a0808252865190820181905260009060209060c0840190828a01845b828110156125bf5781516001600160a01b03168452928401929084019060010161259a565b505050838103828501526125d38189612415565b91505082810360408401526125e881876124f6565b905082810360608401526125fc81866124f6565b90508281036080840152612610818561254b565b98975050505050505050565b6001600160a01b038416815260606020820181905260009061264090830185612415565b82810360408401526126528185612415565b9695505050505050565b7f416363657373436f6e74726f6c3a206163636f756e7420000000000000000000815260008351612694816017850160208801612450565b7001034b99036b4b9b9b4b733903937b6329607d1b60179184019182015283516126c5816028840160208801612450565b01602801949350505050565b6020815260006113a36020830184612480565b600181815b8085111561271f57816000190482111561270557612705612347565b8085161561271257918102915b93841c93908002906126e9565b509250929050565b60008261273657506001611279565b8161274357506000611279565b816001811461275957600281146127635761277f565b6001915050611279565b60ff84111561277457612774612347565b50506001821b611279565b5060208310610133831016604e8410600b84101617156127a2575081810a611279565b6127ac83836126e4565b80600019048211156127c0576127c0612347565b029392505050565b60006113a38383612727565b6000816127e3576127e3612347565b506000190190565b634e487b7160e01b600052603160045260246000fdfea2646970667358221220fca9f73cf4a7b9ba8c194505c2542345542b10c0fdf474dd9a4d38035c33ac5f64736f6c634300080d0033",
  "linkReferences": {},
  "deployedLinkReferences": {}
}