{
  "_format": "hh-sol-artifact-1",
  "contractName": "FIFOMarket",
  "sourceName": "contracts/FIFOMarket.sol",
  "abi": [
    {
      "anonymous": false,
      "inputs": [
        {
          "indexed": true,
          "internalType": "bytes32",
          "name": "role",
          "type": "bytes32"
        },
        {
          "indexed": true,
          "internalType": "bytes32",
          "name": "previousAdminRole",
          "type": "bytes32"
        },
        {
          "indexed": true,
          "internalType": "bytes32",
          "name": "newAdminRole",
          "type": "bytes32"
        }
      ],
      "name": "RoleAdminChanged",
      "type": "event"
    },
    {
      "anonymous": false,
      "inputs": [
        {
          "indexed": true,
          "internalType": "bytes32",
          "name": "role",
          "type": "bytes32"
        },
        {
          "indexed": true,
          "internalType": "address",
          "name": "account",
          "type": "address"
        },
        {
          "indexed": true,
          "internalType": "address",
          "name": "sender",
          "type": "address"
        }
      ],
      "name": "RoleGranted",
      "type": "event"
    },
    {
      "anonymous": false,
      "inputs": [
        {
          "indexed": true,
          "internalType": "bytes32",
          "name": "role",
          "type": "bytes32"
        },
        {
          "indexed": true,
          "internalType": "address",
          "name": "account",
          "type": "address"
        },
        {
          "indexed": true,
          "internalType": "address",
          "name": "sender",
          "type": "address"
        }
      ],
      "name": "RoleRevoked",
      "type": "event"
    },
    {
      "inputs": [],
      "name": "DEFAULT_ADMIN_ROLE",
      "outputs": [
        {
          "internalType": "bytes32",
          "name": "",
          "type": "bytes32"
        }
      ],
      "stateMutability": "view",
      "type": "function"
    },
    {
      "inputs": [
        {
          "internalType": "bytes32",
          "name": "role",
          "type": "bytes32"
        }
      ],
      "name": "getRoleAdmin",
      "outputs": [
        {
          "internalType": "bytes32",
          "name": "",
          "type": "bytes32"
        }
      ],
      "stateMutability": "view",
      "type": "function"
    },
    {
      "inputs": [
        {
          "internalType": "bytes32",
          "name": "role",
          "type": "bytes32"
        },
        {
          "internalType": "uint256",
          "name": "index",
          "type": "uint256"
        }
      ],
      "name": "getRoleMember",
      "outputs": [
        {
          "internalType": "address",
          "name": "",
          "type": "address"
        }
      ],
      "stateMutability": "view",
      "type": "function"
    },
    {
      "inputs": [
        {
          "internalType": "bytes32",
          "name": "role",
          "type": "bytes32"
        }
      ],
      "name": "getRoleMemberCount",
      "outputs": [
        {
          "internalType": "uint256",
          "name": "",
          "type": "uint256"
        }
      ],
      "stateMutability": "view",
      "type": "function"
    },
    {
      "inputs": [
        {
          "internalType": "bytes32",
          "name": "role",
          "type": "bytes32"
        },
        {
          "internalType": "address",
          "name": "account",
          "type": "address"
        }
      ],
      "name": "grantRole",
      "outputs": [],
      "stateMutability": "nonpayable",
      "type": "function"
    },
    {
      "inputs": [
        {
          "internalType": "bytes32",
          "name": "role",
          "type": "bytes32"
        },
        {
          "internalType": "address",
          "name": "account",
          "type": "address"
        }
      ],
      "name": "hasRole",
      "outputs": [
        {
          "internalType": "bool",
          "name": "",
          "type": "bool"
        }
      ],
      "stateMutability": "view",
      "type": "function"
    },
    {
      "inputs": [
        {
          "internalType": "address",
          "name": "removalAddress",
          "type": "address"
        },
        {
          "internalType": "address",
          "name": "bridgedPolygonNoriAddress",
          "type": "address"
        },
        {
          "internalType": "address",
          "name": "certificateAddress",
          "type": "address"
        },
        {
          "internalType": "address",
          "name": "noriFeeWalletAddress",
          "type": "address"
        },
        {
          "internalType": "uint256",
          "name": "noriFee",
          "type": "uint256"
        }
      ],
      "name": "initialize",
      "outputs": [],
      "stateMutability": "nonpayable",
      "type": "function"
    },
    {
      "inputs": [],
      "name": "nextRemovalForSale",
      "outputs": [
        {
          "internalType": "uint256",
          "name": "",
          "type": "uint256"
        }
      ],
      "stateMutability": "view",
      "type": "function"
    },
    {
      "inputs": [],
      "name": "numberOfNrtsInQueue",
      "outputs": [
        {
          "internalType": "uint256",
          "name": "",
          "type": "uint256"
        }
      ],
      "stateMutability": "view",
      "type": "function"
    },
    {
      "inputs": [
        {
          "internalType": "address",
          "name": "",
          "type": "address"
        },
        {
          "internalType": "address",
          "name": "",
          "type": "address"
        },
        {
          "internalType": "uint256[]",
          "name": "ids",
          "type": "uint256[]"
        },
        {
          "internalType": "uint256[]",
          "name": "",
          "type": "uint256[]"
        },
        {
          "internalType": "bytes",
          "name": "",
          "type": "bytes"
        }
      ],
      "name": "onERC1155BatchReceived",
      "outputs": [
        {
          "internalType": "bytes4",
          "name": "",
          "type": "bytes4"
        }
      ],
      "stateMutability": "nonpayable",
      "type": "function"
    },
    {
      "inputs": [
        {
          "internalType": "address",
          "name": "",
          "type": "address"
        },
        {
          "internalType": "address",
          "name": "",
          "type": "address"
        },
        {
          "internalType": "uint256",
          "name": "",
          "type": "uint256"
        },
        {
          "internalType": "uint256",
          "name": "",
          "type": "uint256"
        },
        {
          "internalType": "bytes",
          "name": "",
          "type": "bytes"
        }
      ],
      "name": "onERC1155Received",
      "outputs": [
        {
          "internalType": "bytes4",
          "name": "",
          "type": "bytes4"
        }
      ],
      "stateMutability": "nonpayable",
      "type": "function"
    },
    {
      "inputs": [
        {
          "internalType": "bytes32",
          "name": "role",
          "type": "bytes32"
        },
        {
          "internalType": "address",
          "name": "account",
          "type": "address"
        }
      ],
      "name": "renounceRole",
      "outputs": [],
      "stateMutability": "nonpayable",
      "type": "function"
    },
    {
      "inputs": [
        {
          "internalType": "bytes32",
          "name": "role",
          "type": "bytes32"
        },
        {
          "internalType": "address",
          "name": "account",
          "type": "address"
        }
      ],
      "name": "revokeRole",
      "outputs": [],
      "stateMutability": "nonpayable",
      "type": "function"
    },
    {
      "inputs": [
        {
          "internalType": "bytes4",
          "name": "interfaceId",
          "type": "bytes4"
        }
      ],
      "name": "supportsInterface",
      "outputs": [
        {
          "internalType": "bool",
          "name": "",
          "type": "bool"
        }
      ],
      "stateMutability": "view",
      "type": "function"
    },
    {
      "inputs": [
        {
          "internalType": "address",
          "name": "",
          "type": "address"
        },
        {
          "internalType": "address",
          "name": "",
          "type": "address"
        },
        {
          "internalType": "address",
          "name": "",
          "type": "address"
        },
        {
          "internalType": "uint256",
          "name": "amount",
          "type": "uint256"
        },
        {
          "internalType": "bytes",
          "name": "userData",
          "type": "bytes"
        },
        {
          "internalType": "bytes",
          "name": "",
          "type": "bytes"
        }
      ],
      "name": "tokensReceived",
      "outputs": [],
      "stateMutability": "nonpayable",
      "type": "function"
    }
  ],
  "bytecode": "0x608060405234801561001057600080fd5b50611f58806100206000396000f3fe608060405234801561001057600080fd5b50600436106100f45760003560e01c8063a217fddf11610097578063f23a6e6111610066578063f23a6e6114610225578063f7013ef614610244578063fa88276114610257578063fc67f94f1461025f57600080fd5b8063a217fddf146101cb578063bc197c81146101d3578063ca15c873146101ff578063d547741f1461021257600080fd5b80632f2ff15d116100d35780632f2ff15d1461016757806336568abe1461017a5780639010d07c1461018d57806391d14854146101b857600080fd5b806223de29146100f957806301ffc9a71461010e578063248a9ca314610136575b600080fd5b61010c61010736600461175d565b610267565b005b61012161011c36600461180d565b610c2a565b60405190151581526020015b60405180910390f35b610159610144366004611837565b60009081526065602052604090206001015490565b60405190815260200161012d565b61010c610175366004611850565b610c4a565b61010c610188366004611850565b610c75565b6101a061019b366004611880565b610cf3565b6040516001600160a01b03909116815260200161012d565b6101216101c6366004611850565b610d12565b610159600081565b6101e66101e13660046119d6565b610d3d565b6040516001600160e01b0319909116815260200161012d565b61015961020d366004611837565b610db7565b61010c610220366004611850565b610dce565b6101e6610233366004611a83565b63f23a6e6160e01b95945050505050565b61010c610252366004611aeb565b610df4565b610159610fd5565b610159611092565b60006101355460646102799190611b65565b610284876064611b7d565b61028e9190611b9c565b905080600061029f86880188611bbe565b90506101335461013254036102fb5760405162461bcd60e51b815260206004820152601d60248201527f4649464f4d61726b65743a204e6f7420656e6f75676820737570706c7900000060448201526064015b60405180910390fd5b6001600160a01b0381166103625760405162461bcd60e51b815260206004820152602860248201527f4649464f4d61726b65743a2043616e6e6f74206d696e7420746f207468652030604482015267206164647265737360c01b60648201526084016102f2565b610130546001600160a01b031633146103e35760405162461bcd60e51b815260206004820152603d60248201527f4649464f4d61726b65743a205468697320636f6e74726163742063616e206f6e60448201527f6c7920726563656976652042726964676564506f6c79676f6e4e4f524900000060648201526084016102f2565b60006103ed6110c1565b6001600160401b03811115610404576104046118a2565b60405190808252806020026020018201604052801561042d578160200160208202803683370190505b509050600061043a6110c1565b6001600160401b03811115610451576104516118a2565b60405190808252806020026020018201604052801561047a578160200160208202803683370190505b50905060006104876110c1565b6001600160401b0381111561049e5761049e6118a2565b6040519080825280602002602001820160405280156104c7578160200160208202803683370190505b50610132549091506000905b610133548110156107355761012e5460008281526101316020526040808220549051627eeac760e11b8152306004820152602481019190915290916001600160a01b03169062fdd58e90604401602060405180830381865afa15801561053d573d6000803e3d6000fd5b505050506040513d601f19601f820116820180604052508101906105619190611bdb565b600083815261013160205260408120549192509061057e906110da565b905081891015610613576000838152610131602052604090205487518890859081106105ac576105ac611bf4565b602002602001018181525050888684815181106105cb576105cb611bf4565b602002602001018181525050808584815181106105ea576105ea611bf4565b60200260200101906001600160a01b031690816001600160a01b03168152505060009850610704565b6001610133546106239190611c0a565b8314801561063057508189115b1561067d5760405162461bcd60e51b815260206004820152601d60248201527f4649464f4d61726b65743a204e6f7420656e6f75676820737570706c7900000060448201526064016102f2565b6000838152610131602052604090205487518890859081106106a1576106a1611bf4565b602002602001018181525050818684815181106106c0576106c0611bf4565b602002602001018181525050808584815181106106df576106df611bf4565b6001600160a01b0390921660209283029190910190910152610701828a611c0a565b98505b8361070e81611c21565b94505088600003610720575050610735565b5050808061072d90611c21565b9150506104d3565b506000816001600160401b03811115610750576107506118a2565b604051908082528060200260200182016040528015610779578160200160208202803683370190505b5090506000826001600160401b03811115610796576107966118a2565b6040519080825280602002602001820160405280156107bf578160200160208202803683370190505b50610132549091505b83610132546107d79190611b65565b81101561085f578681815181106107f0576107f0611bf4565b602002602001015183828151811061080a5761080a611bf4565b60200260200101818152505085818151811061082857610828611bf4565b602002602001015182828151811061084257610842611bf4565b60209081029190910101528061085781611c21565b9150506107c8565b5060008960405160200161087591815260200190565b60408051601f198184030181529082905261012f54630fbfeffd60e11b83529092506001600160a01b031690631f7fdffa906108bb908b90879087908790600401611cd1565b600060405180830381600087803b1580156108d557600080fd5b505af11580156108e9573d6000803e3d6000fd5b5050505060005b8351811015610bae5786818151811061090b5761090b611bf4565b60200260200101516000036109625760405162461bcd60e51b815260206004820152601c60248201527f4649464f4d61726b65743a2052656d6f76616c20616d6f756e7420300000000060448201526064016102f2565b61012e546000828152610131602052604090819020549051627eeac760e11b815230600482015260248101919091526001600160a01b039091169062fdd58e90604401602060405180830381865afa1580156109c2573d6000803e3d6000fd5b505050506040513d601f19601f820116820180604052508101906109e69190611bdb565b8382815181106109f8576109f8611bf4565b602002602001015103610a1c576101328054906000610a1683611c21565b91905055505b6000610135546064858481518110610a3657610a36611bf4565b6020026020010151610a489190611b9c565b610a529190611b7d565b90506000848381518110610a6857610a68611bf4565b6020908102919091010151610130546101345460405163a9059cbb60e01b81526001600160a01b03918216600482015260248101869052929350169063a9059cbb906044016020604051808303816000875af1158015610acc573d6000803e3d6000fd5b505050506040513d601f19601f82011682018060405250810190610af09190611d1b565b506101305488516001600160a01b039091169063a9059cbb908a9086908110610b1b57610b1b611bf4565b6020026020010151836040518363ffffffff1660e01b8152600401610b559291906001600160a01b03929092168252602082015260400190565b6020604051808303816000875af1158015610b74573d6000803e3d6000fd5b505050506040513d601f19601f82011682018060405250810190610b989190611d1b565b5050508080610ba690611c21565b9150506108f0565b5061012e54604051631ac8311560e21b81526001600160a01b0390911690636b20c45490610be490309087908790600401611d3d565b600060405180830381600087803b158015610bfe57600080fd5b505af1158015610c12573d6000803e3d6000fd5b50505050505050505050505050505050505050505050565b6000610c35826110e9565b80610c445750610c448261110e565b92915050565b600082815260656020526040902060010154610c668133611133565b610c708383611197565b505050565b6001600160a01b0381163314610ce55760405162461bcd60e51b815260206004820152602f60248201527f416363657373436f6e74726f6c3a2063616e206f6e6c792072656e6f756e636560448201526e103937b632b9903337b91039b2b63360891b60648201526084016102f2565b610cef82826111b9565b5050565b6000828152609760205260408120610d0b90836111db565b9392505050565b60009182526065602090815260408084206001600160a01b0393909316845291905290205460ff1690565b6000805b8451811015610da457848181518110610d5c57610d5c611bf4565b602090810291909101810151610133805460009081526101319093526040832091909155805491610d8c83611c21565b91905055508080610d9c90611c21565b915050610d41565b5063bc197c8160e01b9695505050505050565b6000818152609760205260408120610c44906111e7565b600082815260656020526040902060010154610dea8133611133565b610c7083836111b9565b600054610100900460ff16610e0f5760005460ff1615610e13565b303b155b610e765760405162461bcd60e51b815260206004820152602e60248201527f496e697469616c697a61626c653a20636f6e747261637420697320616c72656160448201526d191e481a5b9a5d1a585b1a5e995960921b60648201526084016102f2565b600054610100900460ff16158015610e98576000805461ffff19166101011790555b610ea06111f1565b610ea86111f1565b610eb06111f1565b610eb86111f1565b610ec06111f1565b61012e80546001600160a01b03199081166001600160a01b03898116919091179092556101308054821688841617905561012f80548216878416179055610134805482169286169290921790915561013583905561012d8054731820a4b7618bde71dce8cdc73aab6c95905fad249216821790556040516329965a1d60e01b815230600482018190527fb281fc8c12954d22544db45de3159a39272895b169a852b314f9cc762e44c53b602483015260448201526329965a1d90606401600060405180830381600087803b158015610f9757600080fd5b505af1158015610fab573d6000803e3d6000fd5b505060006101328190556101335550508015610fcd576000805461ff00191690555b505050505050565b6101325460009081905b6101335481101561108c5761012e546000828152610131602052604090819020549051627eeac760e11b815230600482015260248101919091526001600160a01b039091169062fdd58e90604401602060405180830381865afa15801561104a573d6000803e3d6000fd5b505050506040513d601f19601f8201168201806040525081019061106e9190611bdb565b6110789083611b65565b91508061108481611c21565b915050610fdf565b50919050565b600061109c6110c1565b6000036110a95750600090565b50610132546000908152610131602052604090205490565b600061013254610133546110d59190611c0a565b905090565b6000610c44826014600461125e565b60006001600160e01b03198216635a05180f60e01b1480610c445750610c44826112aa565b60006001600160e01b03198216630271189760e51b1480610c445750610c44826110e9565b61113d8282610d12565b610cef57611155816001600160a01b031660146112df565b6111608360206112df565b604051602001611171929190611d7d565b60408051601f198184030181529082905262461bcd60e51b82526102f291600401611df2565b6111a1828261147a565b6000828152609760205260409020610c709082611500565b6111c38282611515565b6000828152609760205260409020610c70908261157c565b6000610d0b8383611591565b6000610c44825490565b600054610100900460ff1661125c5760405162461bcd60e51b815260206004820152602b60248201527f496e697469616c697a61626c653a20636f6e7472616374206973206e6f74206960448201526a6e697469616c697a696e6760a81b60648201526084016102f2565b565b60008061126c600884611b7d565b6001611279600887611b7d565b611284906002611ee9565b61128e9190611c0a565b901b90508481166112a0600885611b7d565b1c95945050505050565b60006001600160e01b03198216637965db0b60e01b1480610c4457506301ffc9a760e01b6001600160e01b0319831614610c44565b606060006112ee836002611b7d565b6112f9906002611b65565b6001600160401b03811115611310576113106118a2565b6040519080825280601f01601f19166020018201604052801561133a576020820181803683370190505b509050600360fc1b8160008151811061135557611355611bf4565b60200101906001600160f81b031916908160001a905350600f60fb1b8160018151811061138457611384611bf4565b60200101906001600160f81b031916908160001a90535060006113a8846002611b7d565b6113b3906001611b65565b90505b600181111561142b576f181899199a1a9b1b9c1cb0b131b232b360811b85600f16601081106113e7576113e7611bf4565b1a60f81b8282815181106113fd576113fd611bf4565b60200101906001600160f81b031916908160001a90535060049490941c9361142481611ef5565b90506113b6565b508315610d0b5760405162461bcd60e51b815260206004820181905260248201527f537472696e67733a20686578206c656e67746820696e73756666696369656e7460448201526064016102f2565b6114848282610d12565b610cef5760008281526065602090815260408083206001600160a01b03851684529091529020805460ff191660011790556114bc3390565b6001600160a01b0316816001600160a01b0316837f2f8788117e7eff1d82e926ec794901d17c78024a50270940304540a733656f0d60405160405180910390a45050565b6000610d0b836001600160a01b0384166115bb565b61151f8282610d12565b15610cef5760008281526065602090815260408083206001600160a01b0385168085529252808320805460ff1916905551339285917ff6391f5c32d9c69d2a47ea670b442974b53935d1edc7fd64eb21e047a839171b9190a45050565b6000610d0b836001600160a01b03841661160a565b60008260000182815481106115a8576115a8611bf4565b9060005260206000200154905092915050565b600081815260018301602052604081205461160257508154600181810184556000848152602080822090930184905584548482528286019093526040902091909155610c44565b506000610c44565b600081815260018301602052604081205480156116f357600061162e600183611c0a565b855490915060009061164290600190611c0a565b90508181146116a757600086600001828154811061166257611662611bf4565b906000526020600020015490508087600001848154811061168557611685611bf4565b6000918252602080832090910192909255918252600188019052604090208390555b85548690806116b8576116b8611f0c565b600190038181906000526020600020016000905590558560010160008681526020019081526020016000206000905560019350505050610c44565b6000915050610c44565b6001600160a01b038116811461171257600080fd5b50565b60008083601f84011261172757600080fd5b5081356001600160401b0381111561173e57600080fd5b60208301915083602082850101111561175657600080fd5b9250929050565b60008060008060008060008060c0898b03121561177957600080fd5b8835611784816116fd565b97506020890135611794816116fd565b965060408901356117a4816116fd565b95506060890135945060808901356001600160401b03808211156117c757600080fd5b6117d38c838d01611715565b909650945060a08b01359150808211156117ec57600080fd5b506117f98b828c01611715565b999c989b5096995094979396929594505050565b60006020828403121561181f57600080fd5b81356001600160e01b031981168114610d0b57600080fd5b60006020828403121561184957600080fd5b5035919050565b6000806040838503121561186357600080fd5b823591506020830135611875816116fd565b809150509250929050565b6000806040838503121561189357600080fd5b50508035926020909101359150565b634e487b7160e01b600052604160045260246000fd5b604051601f8201601f191681016001600160401b03811182821017156118e0576118e06118a2565b604052919050565b600082601f8301126118f957600080fd5b813560206001600160401b03821115611914576119146118a2565b8160051b6119238282016118b8565b928352848101820192828101908785111561193d57600080fd5b83870192505b8483101561195c57823582529183019190830190611943565b979650505050505050565b600082601f83011261197857600080fd5b81356001600160401b03811115611991576119916118a2565b6119a4601f8201601f19166020016118b8565b8181528460208386010111156119b957600080fd5b816020850160208301376000918101602001919091529392505050565b600080600080600060a086880312156119ee57600080fd5b85356119f9816116fd565b94506020860135611a09816116fd565b935060408601356001600160401b0380821115611a2557600080fd5b611a3189838a016118e8565b94506060880135915080821115611a4757600080fd5b611a5389838a016118e8565b93506080880135915080821115611a6957600080fd5b50611a7688828901611967565b9150509295509295909350565b600080600080600060a08688031215611a9b57600080fd5b8535611aa6816116fd565b94506020860135611ab6816116fd565b9350604086013592506060860135915060808601356001600160401b03811115611adf57600080fd5b611a7688828901611967565b600080600080600060a08688031215611b0357600080fd5b8535611b0e816116fd565b94506020860135611b1e816116fd565b93506040860135611b2e816116fd565b92506060860135611b3e816116fd565b949793965091946080013592915050565b634e487b7160e01b600052601160045260246000fd5b60008219821115611b7857611b78611b4f565b500190565b6000816000190483118215151615611b9757611b97611b4f565b500290565b600082611bb957634e487b7160e01b600052601260045260246000fd5b500490565b600060208284031215611bd057600080fd5b8135610d0b816116fd565b600060208284031215611bed57600080fd5b5051919050565b634e487b7160e01b600052603260045260246000fd5b600082821015611c1c57611c1c611b4f565b500390565b600060018201611c3357611c33611b4f565b5060010190565b600081518084526020808501945080840160005b83811015611c6a57815187529582019590820190600101611c4e565b509495945050505050565b60005b83811015611c90578181015183820152602001611c78565b83811115611c9f576000848401525b50505050565b60008151808452611cbd816020860160208601611c75565b601f01601f19169290920160200192915050565b6001600160a01b0385168152608060208201819052600090611cf590830186611c3a565b8281036040840152611d078186611c3a565b9050828103606084015261195c8185611ca5565b600060208284031215611d2d57600080fd5b81518015158114610d0b57600080fd5b6001600160a01b0384168152606060208201819052600090611d6190830185611c3a565b8281036040840152611d738185611c3a565b9695505050505050565b7f416363657373436f6e74726f6c3a206163636f756e7420000000000000000000815260008351611db5816017850160208801611c75565b7001034b99036b4b9b9b4b733903937b6329607d1b6017918401918201528351611de6816028840160208801611c75565b01602801949350505050565b602081526000610d0b6020830184611ca5565b600181815b80851115611e40578160001904821115611e2657611e26611b4f565b80851615611e3357918102915b93841c9390800290611e0a565b509250929050565b600082611e5757506001610c44565b81611e6457506000610c44565b8160018114611e7a5760028114611e8457611ea0565b6001915050610c44565b60ff841115611e9557611e95611b4f565b50506001821b610c44565b5060208310610133831016604e8410600b8410161715611ec3575081810a610c44565b611ecd8383611e05565b8060001904821115611ee157611ee1611b4f565b029392505050565b6000610d0b8383611e48565b600081611f0457611f04611b4f565b506000190190565b634e487b7160e01b600052603160045260246000fdfea2646970667358221220472134807667aed6c1e6c132817a7aa59ddf253514ddf2bf0c80f20e51d0ec7164736f6c634300080d0033",
  "linkReferences": {},
  "deployedLinkReferences": {}
}