{
  "_format": "hh-sol-artifact-1",
  "contractName": "FIFOMarket",
  "sourceName": "contracts/FIFOMarket.sol",
  "abi": [
    {
      "anonymous": false,
      "inputs": [
        {
          "indexed": false,
          "internalType": "uint256",
          "name": "threshold",
          "type": "uint256"
        }
      ],
      "name": "PriorityRestrictedThresholdSet",
      "type": "event"
    },
    {
      "anonymous": false,
      "inputs": [
        {
          "indexed": true,
          "internalType": "bytes32",
          "name": "role",
          "type": "bytes32"
        },
        {
          "indexed": true,
          "internalType": "bytes32",
          "name": "previousAdminRole",
          "type": "bytes32"
        },
        {
          "indexed": true,
          "internalType": "bytes32",
          "name": "newAdminRole",
          "type": "bytes32"
        }
      ],
      "name": "RoleAdminChanged",
      "type": "event"
    },
    {
      "anonymous": false,
      "inputs": [
        {
          "indexed": true,
          "internalType": "bytes32",
          "name": "role",
          "type": "bytes32"
        },
        {
          "indexed": true,
          "internalType": "address",
          "name": "account",
          "type": "address"
        },
        {
          "indexed": true,
          "internalType": "address",
          "name": "sender",
          "type": "address"
        }
      ],
      "name": "RoleGranted",
      "type": "event"
    },
    {
      "anonymous": false,
      "inputs": [
        {
          "indexed": true,
          "internalType": "bytes32",
          "name": "role",
          "type": "bytes32"
        },
        {
          "indexed": true,
          "internalType": "address",
          "name": "account",
          "type": "address"
        },
        {
          "indexed": true,
          "internalType": "address",
          "name": "sender",
          "type": "address"
        }
      ],
      "name": "RoleRevoked",
      "type": "event"
    },
    {
      "inputs": [],
      "name": "ALLOWLIST_ROLE",
      "outputs": [
        {
          "internalType": "bytes32",
          "name": "",
          "type": "bytes32"
        }
      ],
      "stateMutability": "view",
      "type": "function"
    },
    {
      "inputs": [],
      "name": "DEFAULT_ADMIN_ROLE",
      "outputs": [
        {
          "internalType": "bytes32",
          "name": "",
          "type": "bytes32"
        }
      ],
      "stateMutability": "view",
      "type": "function"
    },
    {
      "inputs": [
        {
          "internalType": "bytes32",
          "name": "role",
          "type": "bytes32"
        }
      ],
      "name": "getRoleAdmin",
      "outputs": [
        {
          "internalType": "bytes32",
          "name": "",
          "type": "bytes32"
        }
      ],
      "stateMutability": "view",
      "type": "function"
    },
    {
      "inputs": [
        {
          "internalType": "bytes32",
          "name": "role",
          "type": "bytes32"
        },
        {
          "internalType": "uint256",
          "name": "index",
          "type": "uint256"
        }
      ],
      "name": "getRoleMember",
      "outputs": [
        {
          "internalType": "address",
          "name": "",
          "type": "address"
        }
      ],
      "stateMutability": "view",
      "type": "function"
    },
    {
      "inputs": [
        {
          "internalType": "bytes32",
          "name": "role",
          "type": "bytes32"
        }
      ],
      "name": "getRoleMemberCount",
      "outputs": [
        {
          "internalType": "uint256",
          "name": "",
          "type": "uint256"
        }
      ],
      "stateMutability": "view",
      "type": "function"
    },
    {
      "inputs": [
        {
          "internalType": "bytes32",
          "name": "role",
          "type": "bytes32"
        },
        {
          "internalType": "address",
          "name": "account",
          "type": "address"
        }
      ],
      "name": "grantRole",
      "outputs": [],
      "stateMutability": "nonpayable",
      "type": "function"
    },
    {
      "inputs": [
        {
          "internalType": "bytes32",
          "name": "role",
          "type": "bytes32"
        },
        {
          "internalType": "address",
          "name": "account",
          "type": "address"
        }
      ],
      "name": "hasRole",
      "outputs": [
        {
          "internalType": "bool",
          "name": "",
          "type": "bool"
        }
      ],
      "stateMutability": "view",
      "type": "function"
    },
    {
      "inputs": [
        {
          "internalType": "address",
          "name": "removalAddress",
          "type": "address"
        },
        {
          "internalType": "address",
          "name": "bridgedPolygonNoriAddress",
          "type": "address"
        },
        {
          "internalType": "address",
          "name": "certificateAddress",
          "type": "address"
        },
        {
          "internalType": "address",
          "name": "noriFeeWalletAddress",
          "type": "address"
        },
        {
          "internalType": "uint256",
          "name": "noriFee",
          "type": "uint256"
        }
      ],
      "name": "initialize",
      "outputs": [],
      "stateMutability": "nonpayable",
      "type": "function"
    },
    {
      "inputs": [
        {
          "internalType": "bool",
          "name": "includePriorityRestrictedSupply",
          "type": "bool"
        }
      ],
      "name": "nextRemovalForSale",
      "outputs": [
        {
          "internalType": "uint256",
          "name": "",
          "type": "uint256"
        }
      ],
      "stateMutability": "view",
      "type": "function"
    },
    {
      "inputs": [],
      "name": "numberOfNrtsInQueueComputed",
      "outputs": [
        {
          "internalType": "uint256",
          "name": "",
          "type": "uint256"
        }
      ],
      "stateMutability": "view",
      "type": "function"
    },
    {
      "inputs": [
        {
          "internalType": "address",
          "name": "",
          "type": "address"
        },
        {
          "internalType": "address",
          "name": "",
          "type": "address"
        },
        {
          "internalType": "uint256[]",
          "name": "ids",
          "type": "uint256[]"
        },
        {
          "internalType": "uint256[]",
          "name": "",
          "type": "uint256[]"
        },
        {
          "internalType": "bytes",
          "name": "",
          "type": "bytes"
        }
      ],
      "name": "onERC1155BatchReceived",
      "outputs": [
        {
          "internalType": "bytes4",
          "name": "",
          "type": "bytes4"
        }
      ],
      "stateMutability": "nonpayable",
      "type": "function"
    },
    {
      "inputs": [
        {
          "internalType": "address",
          "name": "",
          "type": "address"
        },
        {
          "internalType": "address",
          "name": "",
          "type": "address"
        },
        {
          "internalType": "uint256",
          "name": "",
          "type": "uint256"
        },
        {
          "internalType": "uint256",
          "name": "",
          "type": "uint256"
        },
        {
          "internalType": "bytes",
          "name": "",
          "type": "bytes"
        }
      ],
      "name": "onERC1155Received",
      "outputs": [
        {
          "internalType": "bytes4",
          "name": "",
          "type": "bytes4"
        }
      ],
      "stateMutability": "nonpayable",
      "type": "function"
    },
    {
      "inputs": [],
      "name": "priorityRestrictedThreshold",
      "outputs": [
        {
          "internalType": "uint256",
          "name": "",
          "type": "uint256"
        }
      ],
      "stateMutability": "view",
      "type": "function"
    },
    {
      "inputs": [
        {
          "internalType": "bytes32",
          "name": "role",
          "type": "bytes32"
        },
        {
          "internalType": "address",
          "name": "account",
          "type": "address"
        }
      ],
      "name": "renounceRole",
      "outputs": [],
      "stateMutability": "nonpayable",
      "type": "function"
    },
    {
      "inputs": [
        {
          "internalType": "bytes32",
          "name": "role",
          "type": "bytes32"
        },
        {
          "internalType": "address",
          "name": "account",
          "type": "address"
        }
      ],
      "name": "revokeRole",
      "outputs": [],
      "stateMutability": "nonpayable",
      "type": "function"
    },
    {
      "inputs": [
        {
          "internalType": "uint256",
          "name": "threshold",
          "type": "uint256"
        }
      ],
      "name": "setPriorityRestrictedThreshold",
      "outputs": [],
      "stateMutability": "nonpayable",
      "type": "function"
    },
    {
      "inputs": [
        {
          "internalType": "bytes4",
          "name": "interfaceId",
          "type": "bytes4"
        }
      ],
      "name": "supportsInterface",
      "outputs": [
        {
          "internalType": "bool",
          "name": "",
          "type": "bool"
        }
      ],
      "stateMutability": "view",
      "type": "function"
    },
    {
      "inputs": [
        {
          "internalType": "address",
          "name": "",
          "type": "address"
        },
        {
          "internalType": "address",
          "name": "from",
          "type": "address"
        },
        {
          "internalType": "address",
          "name": "",
          "type": "address"
        },
        {
          "internalType": "uint256",
          "name": "amount",
          "type": "uint256"
        },
        {
          "internalType": "bytes",
          "name": "userData",
          "type": "bytes"
        },
        {
          "internalType": "bytes",
          "name": "",
          "type": "bytes"
        }
      ],
      "name": "tokensReceived",
      "outputs": [],
      "stateMutability": "nonpayable",
      "type": "function"
    },
    {
      "inputs": [],
      "name": "totalSupply",
      "outputs": [
        {
          "internalType": "uint256",
          "name": "",
          "type": "uint256"
        }
      ],
      "stateMutability": "view",
      "type": "function"
    },
    {
      "inputs": [],
      "name": "totalUnrestrictedSupply",
      "outputs": [
        {
          "internalType": "uint256",
          "name": "",
          "type": "uint256"
        }
      ],
      "stateMutability": "view",
      "type": "function"
    }
  ],
  "bytecode": "0x608060405234801561001057600080fd5b5061211a806100206000396000f3fe608060405234801561001057600080fd5b506004361061012b5760003560e01c80639010d07c116100ad578063ca15c87311610071578063ca15c87314610294578063d547741f146102a7578063d797462f146102ba578063f23a6e61146102cd578063f7013ef6146102ec57600080fd5b80639010d07c1461021a57806391d1485414610245578063a0f4031714610258578063a217fddf14610260578063bc197c811461026857600080fd5b8063248a9ca3116100f4578063248a9ca3146101a25780632f2ff15d146101c55780633030b532146101d857806336568abe146101ff5780637530b4501461021257600080fd5b806223de291461013057806301ffc9a71461014557806312de2b051461016d57806315d0a4cd1461018557806318160ddd14610198575b600080fd5b61014361013e3660046118f3565b6102ff565b005b6101586101533660046119a4565b610c40565b60405190151581526020015b60405180910390f35b6101776101365481565b604051908152602001610164565b6101776101933660046119dc565b610c60565b6101776101375481565b6101776101b03660046119f9565b60009081526065602052604090206001015490565b6101436101d3366004611a12565b610c96565b6101777f26a560d834a19637eccba4611bbc09fb32970bb627da0a70f14f83fdc9822cbc81565b61014361020d366004611a12565b610cc1565b610177610d3f565b61022d610228366004611a42565b610d6c565b6040516001600160a01b039091168152602001610164565b610158610253366004611a12565b610d8b565b610177610db6565b610177600081565b61027b610276366004611b9b565b610e73565b6040516001600160e01b03199091168152602001610164565b6101776102a23660046119f9565b610fb0565b6101436102b5366004611a12565b610fc7565b6101436102c83660046119f9565b610fed565b61027b6102db366004611c49565b63f23a6e6160e01b95945050505050565b6101436102fa366004611cb2565b611036565b6101375460000361034e5760405162461bcd60e51b81526020600482015260146024820152734d61726b65743a204f7574206f662073746f636b60601b60448201526064015b60405180910390fd5b6101365461013754116103df576103857f26a560d834a19637eccba4611bbc09fb32970bb627da0a70f14f83fdc9822cbc88610d8b565b6103df5760405162461bcd60e51b815260206004820152602560248201527f4c6f7720737570706c7920616e64206275796572206e6f74206f6e20616c6c6f6044820152641ddb1a5cdd60da1b6064820152608401610345565b60006101355460646103f19190611d2c565b6103fc876064611d44565b6104069190611d63565b905080600061041786880188611d85565b905061013354610132540361046a5760405162461bcd60e51b81526020600482015260196024820152784d61726b65743a204e6f7420656e6f75676820737570706c7960381b6044820152606401610345565b6001600160a01b0381166104cc5760405162461bcd60e51b8152602060048201526024808201527f4d61726b65743a2043616e6e6f74206d696e7420746f207468652030206164646044820152637265737360e01b6064820152608401610345565b610130546001600160a01b0316331461054d5760405162461bcd60e51b815260206004820152603960248201527f4d61726b65743a205468697320636f6e74726163742063616e206f6e6c79207260448201527f6563656976652042726964676564506f6c79676f6e4e4f5249000000000000006064820152608401610345565b600061055761125a565b67ffffffffffffffff81111561056f5761056f611a64565b604051908082528060200260200182016040528015610598578160200160208202803683370190505b50905060006105a561125a565b67ffffffffffffffff8111156105bd576105bd611a64565b6040519080825280602002602001820160405280156105e6578160200160208202803683370190505b50905060006105f361125a565b67ffffffffffffffff81111561060b5761060b611a64565b604051908082528060200260200182016040528015610634578160200160208202803683370190505b50610132549091505b6101335481101561088e5761012e5460008281526101316020526040808220549051627eeac760e11b8152306004820152602481019190915290916001600160a01b03169062fdd58e90604401602060405180830381865afa1580156106a7573d6000803e3d6000fd5b505050506040513d601f19601f820116820180604052508101906106cb9190611da2565b60008381526101316020526040812054919250906106e89061126e565b90508188101561077d5760008381526101316020526040902054865187908590811061071657610716611dbb565b6020026020010181815250508785848151811061073557610735611dbb565b6020026020010181815250508084848151811061075457610754611dbb565b60200260200101906001600160a01b031690816001600160a01b0316815250506000975061086a565b60016101335461078d9190611dd1565b8314801561079a57508188115b156107e35760405162461bcd60e51b81526020600482015260196024820152784d61726b65743a204e6f7420656e6f75676820737570706c7960381b6044820152606401610345565b60008381526101316020526040902054865187908590811061080757610807611dbb565b6020026020010181815250508185848151811061082657610826611dbb565b6020026020010181815250508084848151811061084557610845611dbb565b6001600160a01b03909216602092830291909101909101526108678289611dd1565b97505b8760000361087957505061088e565b5050808061088690611de8565b91505061063d565b506000866040516020016108a491815260200190565b60408051601f198184030181529082905261012f54630fbfeffd60e11b83529092506001600160a01b031690631f7fdffa906108ea908890889088908790600401611e98565b600060405180830381600087803b15801561090457600080fd5b505af1158015610918573d6000803e3d6000fd5b5050505060005b8451811015610bc75783818151811061093a5761093a611dbb565b602002602001015160000315610bc75783818151811061095c5761095c611dbb565b602002602001015161013760008282546109769190611dd1565b909155505061012e546000828152610131602052604090819020549051627eeac760e11b815230600482015260248101919091526001600160a01b039091169062fdd58e90604401602060405180830381865afa1580156109db573d6000803e3d6000fd5b505050506040513d601f19601f820116820180604052508101906109ff9190611da2565b848281518110610a1157610a11611dbb565b602002602001015103610a35576101328054906000610a2f83611de8565b91905055505b6000610135546064868481518110610a4f57610a4f611dbb565b6020026020010151610a619190611d63565b610a6b9190611d44565b90506000858381518110610a8157610a81611dbb565b6020908102919091010151610130546101345460405163a9059cbb60e01b81526001600160a01b03918216600482015260248101869052929350169063a9059cbb906044016020604051808303816000875af1158015610ae5573d6000803e3d6000fd5b505050506040513d601f19601f82011682018060405250810190610b099190611ee2565b506101305485516001600160a01b039091169063a9059cbb90879086908110610b3457610b34611dbb565b6020026020010151836040518363ffffffff1660e01b8152600401610b6e9291906001600160a01b03929092168252602082015260400190565b6020604051808303816000875af1158015610b8d573d6000803e3d6000fd5b505050506040513d601f19601f82011682018060405250810190610bb19190611ee2565b5050508080610bbf90611de8565b91505061091f565b5061012e54604051631ac8311560e21b81526001600160a01b0390911690636b20c45490610bfd90309088908890600401611eff565b600060405180830381600087803b158015610c1757600080fd5b505af1158015610c2b573d6000803e3d6000fd5b50505050505050505050505050505050505050565b6000610c4b8261127d565b80610c5a5750610c5a826112a2565b92915050565b610132546000908152610131602052604081205482158015610c885750610136546101375411155b15610c5a5750600092915050565b600082815260656020526040902060010154610cb281336112c7565b610cbc838361132b565b505050565b6001600160a01b0381163314610d315760405162461bcd60e51b815260206004820152602f60248201527f416363657373436f6e74726f6c3a2063616e206f6e6c792072656e6f756e636560448201526e103937b632b9903337b91039b2b63360891b6064820152608401610345565b610d3b828261134d565b5050565b600061013654610137541015610d555750600090565b6101365461013754610d679190611dd1565b905090565b6000828152609760205260408120610d84908361136f565b9392505050565b60009182526065602090815260408084206001600160a01b0393909316845291905290205460ff1690565b6101325460009081905b61013354811015610e6d5761012e546000828152610131602052604090819020549051627eeac760e11b815230600482015260248101919091526001600160a01b039091169062fdd58e90604401602060405180830381865afa158015610e2b573d6000803e3d6000fd5b505050506040513d601f19601f82011682018060405250810190610e4f9190611da2565b610e599083611d2c565b915080610e6581611de8565b915050610dc0565b50919050565b6000805b8451811015610f9d5761012e5485516000916001600160a01b03169062fdd58e903090899086908110610eac57610eac611dbb565b60200260200101516040518363ffffffff1660e01b8152600401610ee59291906001600160a01b03929092168252602082015260400190565b602060405180830381865afa158015610f02573d6000803e3d6000fd5b505050506040513d601f19601f82011682018060405250810190610f269190611da2565b9050806101376000828254610f3b9190611d2c565b92505081905550858281518110610f5457610f54611dbb565b602090810291909101810151610133805460009081526101319093526040832091909155805491610f8483611de8565b9190505550508080610f9590611de8565b915050610e77565b5063bc197c8160e01b9695505050505050565b6000818152609760205260408120610c5a9061137b565b600082815260656020526040902060010154610fe381336112c7565b610cbc838361134d565b6000610ff981336112c7565b6101368290556040518281527f7ab6aa6547859e9ca74d567d44fefa0d63272ac019f4ebf9333032a62ea06fa59060200160405180910390a15050565b600054610100900460ff166110515760005460ff1615611055565b303b155b6110b85760405162461bcd60e51b815260206004820152602e60248201527f496e697469616c697a61626c653a20636f6e747261637420697320616c72656160448201526d191e481a5b9a5d1a585b1a5e995960921b6064820152608401610345565b600054610100900460ff161580156110da576000805461ffff19166101011790555b6110e2611385565b6110ea611385565b6110f2611385565b6110fa611385565b611102611385565b61012e80546001600160a01b03199081166001600160a01b03898116919091179092556101308054821688841617905561012f80548216878416179055610134805482169286169290921790915561013583905561012d8054731820a4b7618bde71dce8cdc73aab6c95905fad249216821790556040516329965a1d60e01b815230600482018190527fb281fc8c12954d22544db45de3159a39272895b169a852b314f9cc762e44c53b602483015260448201526329965a1d90606401600060405180830381600087803b1580156111d957600080fd5b505af11580156111ed573d6000803e3d6000fd5b50506000610132819055610133819055610136819055610137819055611216925090503361132b565b6112407f26a560d834a19637eccba4611bbc09fb32970bb627da0a70f14f83fdc9822cbc3361132b565b8015611252576000805461ff00191690555b505050505050565b60006101325461013354610d679190611dd1565b6000610c5a82601460046113f2565b60006001600160e01b03198216635a05180f60e01b1480610c5a5750610c5a8261143e565b60006001600160e01b03198216630271189760e51b1480610c5a5750610c5a8261127d565b6112d18282610d8b565b610d3b576112e9816001600160a01b03166014611473565b6112f4836020611473565b604051602001611305929190611f3f565b60408051601f198184030181529082905262461bcd60e51b825261034591600401611fb4565b611335828261160f565b6000828152609760205260409020610cbc9082611695565b61135782826116aa565b6000828152609760205260409020610cbc9082611711565b6000610d848383611726565b6000610c5a825490565b600054610100900460ff166113f05760405162461bcd60e51b815260206004820152602b60248201527f496e697469616c697a61626c653a20636f6e7472616374206973206e6f74206960448201526a6e697469616c697a696e6760a81b6064820152608401610345565b565b600080611400600884611d44565b600161140d600887611d44565b6114189060026120ab565b6114229190611dd1565b901b9050848116611434600885611d44565b1c95945050505050565b60006001600160e01b03198216637965db0b60e01b1480610c5a57506301ffc9a760e01b6001600160e01b0319831614610c5a565b60606000611482836002611d44565b61148d906002611d2c565b67ffffffffffffffff8111156114a5576114a5611a64565b6040519080825280601f01601f1916602001820160405280156114cf576020820181803683370190505b509050600360fc1b816000815181106114ea576114ea611dbb565b60200101906001600160f81b031916908160001a905350600f60fb1b8160018151811061151957611519611dbb565b60200101906001600160f81b031916908160001a905350600061153d846002611d44565b611548906001611d2c565b90505b60018111156115c0576f181899199a1a9b1b9c1cb0b131b232b360811b85600f166010811061157c5761157c611dbb565b1a60f81b82828151811061159257611592611dbb565b60200101906001600160f81b031916908160001a90535060049490941c936115b9816120b7565b905061154b565b508315610d845760405162461bcd60e51b815260206004820181905260248201527f537472696e67733a20686578206c656e67746820696e73756666696369656e746044820152606401610345565b6116198282610d8b565b610d3b5760008281526065602090815260408083206001600160a01b03851684529091529020805460ff191660011790556116513390565b6001600160a01b0316816001600160a01b0316837f2f8788117e7eff1d82e926ec794901d17c78024a50270940304540a733656f0d60405160405180910390a45050565b6000610d84836001600160a01b038416611750565b6116b48282610d8b565b15610d3b5760008281526065602090815260408083206001600160a01b0385168085529252808320805460ff1916905551339285917ff6391f5c32d9c69d2a47ea670b442974b53935d1edc7fd64eb21e047a839171b9190a45050565b6000610d84836001600160a01b03841661179f565b600082600001828154811061173d5761173d611dbb565b9060005260206000200154905092915050565b600081815260018301602052604081205461179757508154600181810184556000848152602080822090930184905584548482528286019093526040902091909155610c5a565b506000610c5a565b600081815260018301602052604081205480156118885760006117c3600183611dd1565b85549091506000906117d790600190611dd1565b905081811461183c5760008660000182815481106117f7576117f7611dbb565b906000526020600020015490508087600001848154811061181a5761181a611dbb565b6000918252602080832090910192909255918252600188019052604090208390555b855486908061184d5761184d6120ce565b600190038181906000526020600020016000905590558560010160008681526020019081526020016000206000905560019350505050610c5a565b6000915050610c5a565b6001600160a01b03811681146118a757600080fd5b50565b60008083601f8401126118bc57600080fd5b50813567ffffffffffffffff8111156118d457600080fd5b6020830191508360208285010111156118ec57600080fd5b9250929050565b60008060008060008060008060c0898b03121561190f57600080fd5b883561191a81611892565b9750602089013561192a81611892565b9650604089013561193a81611892565b955060608901359450608089013567ffffffffffffffff8082111561195e57600080fd5b61196a8c838d016118aa565b909650945060a08b013591508082111561198357600080fd5b506119908b828c016118aa565b999c989b5096995094979396929594505050565b6000602082840312156119b657600080fd5b81356001600160e01b031981168114610d8457600080fd5b80151581146118a757600080fd5b6000602082840312156119ee57600080fd5b8135610d84816119ce565b600060208284031215611a0b57600080fd5b5035919050565b60008060408385031215611a2557600080fd5b823591506020830135611a3781611892565b809150509250929050565b60008060408385031215611a5557600080fd5b50508035926020909101359150565b634e487b7160e01b600052604160045260246000fd5b604051601f8201601f1916810167ffffffffffffffff81118282101715611aa357611aa3611a64565b604052919050565b600082601f830112611abc57600080fd5b8135602067ffffffffffffffff821115611ad857611ad8611a64565b8160051b611ae7828201611a7a565b9283528481018201928281019087851115611b0157600080fd5b83870192505b84831015611b2057823582529183019190830190611b07565b979650505050505050565b600082601f830112611b3c57600080fd5b813567ffffffffffffffff811115611b5657611b56611a64565b611b69601f8201601f1916602001611a7a565b818152846020838601011115611b7e57600080fd5b816020850160208301376000918101602001919091529392505050565b600080600080600060a08688031215611bb357600080fd5b8535611bbe81611892565b94506020860135611bce81611892565b9350604086013567ffffffffffffffff80821115611beb57600080fd5b611bf789838a01611aab565b94506060880135915080821115611c0d57600080fd5b611c1989838a01611aab565b93506080880135915080821115611c2f57600080fd5b50611c3c88828901611b2b565b9150509295509295909350565b600080600080600060a08688031215611c6157600080fd5b8535611c6c81611892565b94506020860135611c7c81611892565b93506040860135925060608601359150608086013567ffffffffffffffff811115611ca657600080fd5b611c3c88828901611b2b565b600080600080600060a08688031215611cca57600080fd5b8535611cd581611892565b94506020860135611ce581611892565b93506040860135611cf581611892565b92506060860135611d0581611892565b949793965091946080013592915050565b634e487b7160e01b600052601160045260246000fd5b60008219821115611d3f57611d3f611d16565b500190565b6000816000190483118215151615611d5e57611d5e611d16565b500290565b600082611d8057634e487b7160e01b600052601260045260246000fd5b500490565b600060208284031215611d9757600080fd5b8135610d8481611892565b600060208284031215611db457600080fd5b5051919050565b634e487b7160e01b600052603260045260246000fd5b600082821015611de357611de3611d16565b500390565b600060018201611dfa57611dfa611d16565b5060010190565b600081518084526020808501945080840160005b83811015611e3157815187529582019590820190600101611e15565b509495945050505050565b60005b83811015611e57578181015183820152602001611e3f565b83811115611e66576000848401525b50505050565b60008151808452611e84816020860160208601611e3c565b601f01601f19169290920160200192915050565b6001600160a01b0385168152608060208201819052600090611ebc90830186611e01565b8281036040840152611ece8186611e01565b90508281036060840152611b208185611e6c565b600060208284031215611ef457600080fd5b8151610d84816119ce565b6001600160a01b0384168152606060208201819052600090611f2390830185611e01565b8281036040840152611f358185611e01565b9695505050505050565b7f416363657373436f6e74726f6c3a206163636f756e7420000000000000000000815260008351611f77816017850160208801611e3c565b7001034b99036b4b9b9b4b733903937b6329607d1b6017918401918201528351611fa8816028840160208801611e3c565b01602801949350505050565b602081526000610d846020830184611e6c565b600181815b80851115612002578160001904821115611fe857611fe8611d16565b80851615611ff557918102915b93841c9390800290611fcc565b509250929050565b60008261201957506001610c5a565b8161202657506000610c5a565b816001811461203c576002811461204657612062565b6001915050610c5a565b60ff84111561205757612057611d16565b50506001821b610c5a565b5060208310610133831016604e8410600b8410161715612085575081810a610c5a565b61208f8383611fc7565b80600019048211156120a3576120a3611d16565b029392505050565b6000610d84838361200a565b6000816120c6576120c6611d16565b506000190190565b634e487b7160e01b600052603160045260246000fdfea2646970667358221220d4c903116780d14434ed0528c310d55cfe26b4d943d363a7d6a72e3aa8c0213164736f6c634300080d0033",
  "linkReferences": {},
  "deployedLinkReferences": {}
}