{
  "_format": "hh-sol-artifact-1",
  "contractName": "FIFOMarket",
  "sourceName": "contracts/FIFOMarket.sol",
  "abi": [
    {
      "inputs": [],
      "stateMutability": "nonpayable",
      "type": "constructor"
    },
    {
      "inputs": [],
      "name": "InsufficientSupply",
      "type": "error"
    },
    {
      "inputs": [],
      "name": "LowSupplyAllowlistRequired",
      "type": "error"
    },
    {
      "inputs": [],
      "name": "OutOfStock",
      "type": "error"
    },
    {
      "inputs": [
        {
          "internalType": "uint256",
          "name": "removalId",
          "type": "uint256"
        },
        {
          "internalType": "uint256",
          "name": "queueVintage",
          "type": "uint256"
        }
      ],
      "name": "RemovalAlreadyInQueue",
      "type": "error"
    },
    {
      "inputs": [
        {
          "internalType": "uint256",
          "name": "removalId",
          "type": "uint256"
        }
      ],
      "name": "RemovalAlreadyReserved",
      "type": "error"
    },
    {
      "inputs": [
        {
          "internalType": "uint256",
          "name": "removalId",
          "type": "uint256"
        },
        {
          "internalType": "uint256",
          "name": "queueVintage",
          "type": "uint256"
        }
      ],
      "name": "RemovalNotInQueue",
      "type": "error"
    },
    {
      "inputs": [
        {
          "internalType": "uint256",
          "name": "removalId",
          "type": "uint256"
        }
      ],
      "name": "RemovalNotInReservedSupply",
      "type": "error"
    },
    {
      "anonymous": false,
      "inputs": [
        {
          "indexed": false,
          "internalType": "uint8",
          "name": "version",
          "type": "uint8"
        }
      ],
      "name": "Initialized",
      "type": "event"
    },
    {
      "anonymous": false,
      "inputs": [
        {
          "indexed": false,
          "internalType": "uint256",
          "name": "threshold",
          "type": "uint256"
        }
      ],
      "name": "PriorityRestrictedThresholdSet",
      "type": "event"
    },
    {
      "anonymous": false,
      "inputs": [
        {
          "indexed": true,
          "internalType": "bytes32",
          "name": "role",
          "type": "bytes32"
        },
        {
          "indexed": true,
          "internalType": "bytes32",
          "name": "previousAdminRole",
          "type": "bytes32"
        },
        {
          "indexed": true,
          "internalType": "bytes32",
          "name": "newAdminRole",
          "type": "bytes32"
        }
      ],
      "name": "RoleAdminChanged",
      "type": "event"
    },
    {
      "anonymous": false,
      "inputs": [
        {
          "indexed": true,
          "internalType": "bytes32",
          "name": "role",
          "type": "bytes32"
        },
        {
          "indexed": true,
          "internalType": "address",
          "name": "account",
          "type": "address"
        },
        {
          "indexed": true,
          "internalType": "address",
          "name": "sender",
          "type": "address"
        }
      ],
      "name": "RoleGranted",
      "type": "event"
    },
    {
      "anonymous": false,
      "inputs": [
        {
          "indexed": true,
          "internalType": "bytes32",
          "name": "role",
          "type": "bytes32"
        },
        {
          "indexed": true,
          "internalType": "address",
          "name": "account",
          "type": "address"
        },
        {
          "indexed": true,
          "internalType": "address",
          "name": "sender",
          "type": "address"
        }
      ],
      "name": "RoleRevoked",
      "type": "event"
    },
    {
      "inputs": [],
      "name": "ALLOWLIST_ROLE",
      "outputs": [
        {
          "internalType": "bytes32",
          "name": "",
          "type": "bytes32"
        }
      ],
      "stateMutability": "view",
      "type": "function"
    },
    {
      "inputs": [],
      "name": "DEFAULT_ADMIN_ROLE",
      "outputs": [
        {
          "internalType": "bytes32",
          "name": "",
          "type": "bytes32"
        }
      ],
      "stateMutability": "view",
      "type": "function"
    },
    {
      "inputs": [],
      "name": "activeSupplierCount",
      "outputs": [
        {
          "internalType": "uint256",
          "name": "",
          "type": "uint256"
        }
      ],
      "stateMutability": "view",
      "type": "function"
    },
    {
      "inputs": [
        {
          "internalType": "bytes32",
          "name": "role",
          "type": "bytes32"
        }
      ],
      "name": "getRoleAdmin",
      "outputs": [
        {
          "internalType": "bytes32",
          "name": "",
          "type": "bytes32"
        }
      ],
      "stateMutability": "view",
      "type": "function"
    },
    {
      "inputs": [
        {
          "internalType": "bytes32",
          "name": "role",
          "type": "bytes32"
        },
        {
          "internalType": "uint256",
          "name": "index",
          "type": "uint256"
        }
      ],
      "name": "getRoleMember",
      "outputs": [
        {
          "internalType": "address",
          "name": "",
          "type": "address"
        }
      ],
      "stateMutability": "view",
      "type": "function"
    },
    {
      "inputs": [
        {
          "internalType": "bytes32",
          "name": "role",
          "type": "bytes32"
        }
      ],
      "name": "getRoleMemberCount",
      "outputs": [
        {
          "internalType": "uint256",
          "name": "",
          "type": "uint256"
        }
      ],
      "stateMutability": "view",
      "type": "function"
    },
    {
      "inputs": [
        {
          "internalType": "bytes32",
          "name": "role",
          "type": "bytes32"
        },
        {
          "internalType": "address",
          "name": "account",
          "type": "address"
        }
      ],
      "name": "grantRole",
      "outputs": [],
      "stateMutability": "nonpayable",
      "type": "function"
    },
    {
      "inputs": [
        {
          "internalType": "bytes32",
          "name": "role",
          "type": "bytes32"
        },
        {
          "internalType": "address",
          "name": "account",
          "type": "address"
        }
      ],
      "name": "hasRole",
      "outputs": [
        {
          "internalType": "bool",
          "name": "",
          "type": "bool"
        }
      ],
      "stateMutability": "view",
      "type": "function"
    },
    {
      "inputs": [
        {
          "internalType": "address",
          "name": "removalAddress",
          "type": "address"
        },
        {
          "internalType": "address",
          "name": "bridgedPolygonNoriAddress",
          "type": "address"
        },
        {
          "internalType": "address",
          "name": "certificateAddress",
          "type": "address"
        },
        {
          "internalType": "address",
          "name": "restrictedNoriAddress",
          "type": "address"
        },
        {
          "internalType": "address",
          "name": "noriFeeWalletAddress",
          "type": "address"
        },
        {
          "internalType": "uint256",
          "name": "noriFee",
          "type": "uint256"
        }
      ],
      "name": "initialize",
      "outputs": [],
      "stateMutability": "nonpayable",
      "type": "function"
    },
    {
      "inputs": [],
      "name": "numberOfActiveNrtsInMarketComputed",
      "outputs": [
        {
          "internalType": "uint256",
          "name": "",
          "type": "uint256"
        }
      ],
      "stateMutability": "view",
      "type": "function"
    },
    {
      "inputs": [
        {
          "internalType": "address",
          "name": "",
          "type": "address"
        },
        {
          "internalType": "address",
          "name": "",
          "type": "address"
        },
        {
          "internalType": "uint256[]",
          "name": "ids",
          "type": "uint256[]"
        },
        {
          "internalType": "uint256[]",
          "name": "",
          "type": "uint256[]"
        },
        {
          "internalType": "bytes",
          "name": "data",
          "type": "bytes"
        }
      ],
      "name": "onERC1155BatchReceived",
      "outputs": [
        {
          "internalType": "bytes4",
          "name": "",
          "type": "bytes4"
        }
      ],
      "stateMutability": "nonpayable",
      "type": "function"
    },
    {
      "inputs": [
        {
          "internalType": "address",
          "name": "",
          "type": "address"
        },
        {
          "internalType": "address",
          "name": "",
          "type": "address"
        },
        {
          "internalType": "uint256",
          "name": "",
          "type": "uint256"
        },
        {
          "internalType": "uint256",
          "name": "",
          "type": "uint256"
        },
        {
          "internalType": "bytes",
          "name": "",
          "type": "bytes"
        }
      ],
      "name": "onERC1155Received",
      "outputs": [
        {
          "internalType": "bytes4",
          "name": "",
          "type": "bytes4"
        }
      ],
      "stateMutability": "nonpayable",
      "type": "function"
    },
    {
      "inputs": [],
      "name": "priorityRestrictedThreshold",
      "outputs": [
        {
          "internalType": "uint256",
          "name": "",
          "type": "uint256"
        }
      ],
      "stateMutability": "view",
      "type": "function"
    },
    {
      "inputs": [
        {
          "internalType": "bytes32",
          "name": "role",
          "type": "bytes32"
        },
        {
          "internalType": "address",
          "name": "account",
          "type": "address"
        }
      ],
      "name": "renounceRole",
      "outputs": [],
      "stateMutability": "nonpayable",
      "type": "function"
    },
    {
      "inputs": [
        {
          "internalType": "uint256",
          "name": "removalId",
          "type": "uint256"
        }
      ],
      "name": "reserveRemoval",
      "outputs": [
        {
          "internalType": "bool",
          "name": "",
          "type": "bool"
        }
      ],
      "stateMutability": "nonpayable",
      "type": "function"
    },
    {
      "inputs": [
        {
          "internalType": "bytes32",
          "name": "role",
          "type": "bytes32"
        },
        {
          "internalType": "address",
          "name": "account",
          "type": "address"
        }
      ],
      "name": "revokeRole",
      "outputs": [],
      "stateMutability": "nonpayable",
      "type": "function"
    },
    {
      "inputs": [
        {
          "internalType": "uint256",
          "name": "threshold",
          "type": "uint256"
        }
      ],
      "name": "setPriorityRestrictedThreshold",
      "outputs": [],
      "stateMutability": "nonpayable",
      "type": "function"
    },
    {
      "inputs": [
        {
          "internalType": "bytes4",
          "name": "interfaceId",
          "type": "bytes4"
        }
      ],
      "name": "supportsInterface",
      "outputs": [
        {
          "internalType": "bool",
          "name": "",
          "type": "bool"
        }
      ],
      "stateMutability": "view",
      "type": "function"
    },
    {
      "inputs": [
        {
          "internalType": "address",
          "name": "recipient",
          "type": "address"
        },
        {
          "internalType": "uint256",
          "name": "amount",
          "type": "uint256"
        },
        {
          "internalType": "uint256",
          "name": "deadline",
          "type": "uint256"
        },
        {
          "internalType": "uint8",
          "name": "v",
          "type": "uint8"
        },
        {
          "internalType": "bytes32",
          "name": "r",
          "type": "bytes32"
        },
        {
          "internalType": "bytes32",
          "name": "s",
          "type": "bytes32"
        }
      ],
      "name": "swap",
      "outputs": [],
      "stateMutability": "nonpayable",
      "type": "function"
    },
    {
      "inputs": [
        {
          "internalType": "address",
          "name": "recipient",
          "type": "address"
        },
        {
          "internalType": "uint256",
          "name": "amount",
          "type": "uint256"
        },
        {
          "internalType": "address",
          "name": "supplierToBuyFrom",
          "type": "address"
        },
        {
          "internalType": "uint256",
          "name": "deadline",
          "type": "uint256"
        },
        {
          "internalType": "uint8",
          "name": "v",
          "type": "uint8"
        },
        {
          "internalType": "bytes32",
          "name": "r",
          "type": "bytes32"
        },
        {
          "internalType": "bytes32",
          "name": "s",
          "type": "bytes32"
        }
      ],
      "name": "swapFromSpecificSupplier",
      "outputs": [],
      "stateMutability": "nonpayable",
      "type": "function"
    },
    {
      "inputs": [],
      "name": "totalActiveSupply",
      "outputs": [
        {
          "internalType": "uint256",
          "name": "",
          "type": "uint256"
        }
      ],
      "stateMutability": "view",
      "type": "function"
    },
    {
      "inputs": [],
      "name": "totalNumberActiveRemovals",
      "outputs": [
        {
          "internalType": "uint256",
          "name": "",
          "type": "uint256"
        }
      ],
      "stateMutability": "view",
      "type": "function"
    },
    {
      "inputs": [],
      "name": "totalReservedSupply",
      "outputs": [
        {
          "internalType": "uint256",
          "name": "",
          "type": "uint256"
        }
      ],
      "stateMutability": "view",
      "type": "function"
    },
    {
      "inputs": [],
      "name": "totalUnrestrictedSupply",
      "outputs": [
        {
          "internalType": "uint256",
          "name": "",
          "type": "uint256"
        }
      ],
      "stateMutability": "view",
      "type": "function"
    },
    {
      "inputs": [
        {
          "internalType": "uint256",
          "name": "removalId",
          "type": "uint256"
        }
      ],
      "name": "unreserveRemoval",
      "outputs": [
        {
          "internalType": "bool",
          "name": "",
          "type": "bool"
        }
      ],
      "stateMutability": "nonpayable",
      "type": "function"
    }
  ],
  "bytecode": "0x60808060405234620000c6576000549060ff8260081c1662000074575060ff8082161062000038575b604051613b369081620000cc8239f35b60ff90811916176000557f7f26b83ff96e1f2b6a682f133852f6798a09c465da95921460cefb3847402498602060405160ff8152a13862000028565b62461bcd60e51b815260206004820152602760248201527f496e697469616c697a61626c653a20636f6e747261637420697320696e697469604482015266616c697a696e6760c81b6064820152608490fd5b600080fdfe608080604052600436101561001357600080fd5b600090813560e01c90816301ffc9a714611eee5750806312de2b0514611eb1578063179f044514611e74578063248a9ca314611e295780632f2ff15d14611d215780633030b53214611cc8578063361b7b9d14611c8b57806336568abe14611ba65780633eb12cee146119d557806359e1a71c146117f8578063674d13c8146117bb578063720692641461177e5780637530b4501461173d5780639010d07c146116cd57806391d148541461165a57806395b6ef0c1461127f57806397a11ee9146110ad578063a217fddf14611073578063bc197c8114610d8f578063ca15c87314610d47578063ce0ec474146108f8578063d547741f1461089c578063d797462f146105bc578063da9d20e7146101c75763f23a6e611461013457600080fd5b346101c45760a07ffffffffffffffffffffffffffffffffffffffffffffffffffffffffffffffffc3601126101c45761016b61203b565b50610174612018565b5060843567ffffffffffffffff81116101c0576101959036906004016121b3565b5060206040517ff23a6e61000000000000000000000000000000000000000000000000000000008152f35b5080fd5b80fd5b50346101c45760e07ffffffffffffffffffffffffffffffffffffffffffffffffffffffffffffffffc3601126101c4576101ff61203b565b61020761205e565b60ff608435166084350361057d5761021d612caa565b610228602435612d4d565b9073ffffffffffffffffffffffffffffffffffffffff8116845261013a602052604084208493600182015460028301545b8082111561059557505084156104f35791929390849261027883612c5b565b9261028281612c5b565b94889389915b8383106103a8575b5050505061029d82612c5b565b94875b8381106103785750508673ffffffffffffffffffffffffffffffffffffffff61012f5416803b156101c0576040517fd505accf0000000000000000000000000000000000000000000000000000000081523360048201523060248083019190915235604482015260648035908201526084803560ff169082015260a480359082015260c4803590820152908290829081838160e4810103925af1801561036d57610355575b505061035095612de0565b604051f35b61035e90612081565b610369578638610345565b8680fd5b6040513d84823e3d90fd5b6103a39073ffffffffffffffffffffffffffffffffffffffff831661039d828a612c47565b52612b1d565b6102a0565b6103ba829a999897969395949a613add565b61012d546040517efdd58e00000000000000000000000000000000000000000000000000000000815230600482015260248101839052906020908290604490829073ffffffffffffffffffffffffffffffffffffffff165afa90811561058a578d91610553575b508083101561047757506104358488612c47565b526104408388612c47565b5261044c8a925b612b1d565b93821561046a5761045c90612b1d565b919892939495969798610288565b8394959697989950610290565b60018c95929510610526577fffffffffffffffffffffffffffffffffffffffffffffffffffffffffffffffff8c0182148061051d575b6104f3576104da8161044c946104e1936104d4868e8b8f836104ce91612c47565b52612c47565b52612879565b9484613918565b6002830154612b1d5761044789613684565b60046040517f33aa101c000000000000000000000000000000000000000000000000000000008152fd5b508083116104ad565b60248d7f4e487b710000000000000000000000000000000000000000000000000000000081526011600452fd5b90506020813d602011610582575b8161056e602093836120fc565b8101031261057d575138610421565b600080fd5b3d9150610561565b6040513d8f823e3d90fd5b90956105b06105b691888a528560205260408a2054906125a0565b96612b1d565b90610259565b50346101c4576020807ffffffffffffffffffffffffffffffffffffffffffffffffffffffffffffffffc3601126101c0576004356000805260658252604060002033600052825260ff60406000205416156106455790817f7ab6aa6547859e9ca74d567d44fefa0d63272ac019f4ebf9333032a62ea06fa59261013355604051908152a1604051f35b5061064f336125e8565b90600060405161065e816120e0565b6042815282810191606036843781511561086f5760308353815160019081101561084257607860218401536041905b8082116107c35750506107665761071893610727926048926040519687937f416363657373436f6e74726f6c3a206163636f756e7420000000000000000000888601526106e3815180928a603789019101612412565b8401917f206973206d697373696e6720726f6c6520000000000000000000000000000000603784015251809386840190612412565b010360288101855201836120fc565b6107626040519283927f08c379a000000000000000000000000000000000000000000000000000000000845260048401526024830190612447565b0390fd5b606483604051907f08c379a000000000000000000000000000000000000000000000000000000000825280600483015260248201527f537472696e67733a20686578206c656e67746820696e73756666696369656e746044820152fd5b9091600f8116906010821015610813577f303132333435363738396162636465660000000000000000000000000000000061080d921a61080385876125ac565b5360041c926125bd565b9061068d565b7f4e487b7100000000000000000000000000000000000000000000000000000000600052603260045260246000fd5b6024827f4e487b710000000000000000000000000000000000000000000000000000000081526032600452fd5b807f4e487b7100000000000000000000000000000000000000000000000000000000602492526032600452fd5b50346101c45760407ffffffffffffffffffffffffffffffffffffffffffffffffffffffffffffffffc3601126101c4576103506004356108da612018565b9080845260656020526108f36001604086200154612228565b61248a565b50346101c45760c07ffffffffffffffffffffffffffffffffffffffffffffffffffffffffffffffffc3601126101c45761093061203b565b9060ff60643516606435036101c457610947612caa565b610952602435612d4d565b9081926101349283549061096582612c5b565b9061097861097284612c5b565b93612c5b565b938586925b885480851015610d385773ffffffffffffffffffffffffffffffffffffffff6101385416808a5261013a6020526109b660408b20613add565b61012d546040517efdd58e000000000000000000000000000000000000000000000000000000008152306004820152602481018390529193906020908390604490829073ffffffffffffffffffffffffffffffffffffffff165afa918215610d2d578c92610cf5575b5081851015610b7857505050610a358387612c47565b52610a408287612c47565b5273ffffffffffffffffffffffffffffffffffffffff6101385416610a658288612c47565b52610a708791612b1d565b928115610a8757610a8090612b1d565b929061097d565b5050909192939495505b73ffffffffffffffffffffffffffffffffffffffff61012f5416803b15610369578660405180927fd505accf000000000000000000000000000000000000000000000000000000008252818381610b4060a4356084356064356044356024353033600489019360ff929897969360c0969260e087019a73ffffffffffffffffffffffffffffffffffffffff80921688521660208701526040860152606085015216608083015260a08201520152565b03925af18015610b6d57610b5a575b506103509596612de0565b95610b6761035097612081565b95610b4f565b6040513d89823e3d90fd5b600181969492939610610cc8577fffffffffffffffffffffffffffffffffffffffffffffffffffffffffffffffff01871480610cbf575b6104f357610bd782610a7095876104d4878f8f988f83610be99b8b6104ce836104ce95612c47565b948b5261013a60205260408b20613918565b6101385473ffffffffffffffffffffffffffffffffffffffff16808a5261013a60205260408a2060020154610c3b575061044773ffffffffffffffffffffffffffffffffffffffff6101385416613684565b61013960205260408a206001015473ffffffffffffffffffffffffffffffffffffffff16146104475761044761013880547fffffffffffffffffffffffff000000000000000000000000000000000000000073ffffffffffffffffffffffffffffffffffffffff808316600052610139602052600160406000200154169116179055565b50818411610baf565b60248c7f4e487b710000000000000000000000000000000000000000000000000000000081526011600452fd5b9091506020813d602011610d25575b81610d11602093836120fc565b81010312610d2157519038610a1f565b8b80fd5b3d9150610d04565b6040513d8e823e3d90fd5b50509293949596509050610a91565b50346101c45760207ffffffffffffffffffffffffffffffffffffffffffffffffffffffffffffffffc3601126101c45760406020916004358152609783522054604051908152f35b50346101c45760a07ffffffffffffffffffffffffffffffffffffffffffffffffffffffffffffffffc3601126101c457610dc761203b565b50610dd0612018565b5067ffffffffffffffff60443581811161106b57610df2903690600401612155565b9060643581811161106f57610e0b903690600401612155565b5060843590811161106b57610e249036906004016121b3565b9073ffffffffffffffffffffffffffffffffffffffff908161012d54168460405180927f018e1c830000000000000000000000000000000000000000000000000000000082528180610e7a873060048401612c1a565b03915afa90811561106057859161103e575b508491829081805b8251861015610f6f57604091610ef791876101398a89610eb4848a612c47565b5195610edd610ecb60209489861c16968794612c47565b519783835261013a85528a832061386a565b505252898c60019687912001541615610f60575b506125a0565b927ffffffffffffffffffffffffffffffffffffffffffffffffffffffffffffffffe8111610f33578891610f2c910195612b1d565b9492610e94565b6024897f4e487b710000000000000000000000000000000000000000000000000000000081526011600452fd5b610f699061350b565b38610ef1565b8688858493610f826101359182546125a0565b9055610f926101349182546125a0565b905560208180518101031261103a5760200151906101305416803b1561103a576024839260405195869384927ff6f57a2e00000000000000000000000000000000000000000000000000000000845260048401525af190811561102e575061101f575b60206040517fbc197c81000000000000000000000000000000000000000000000000000000008152f35b61102890612081565b80610ff5565b604051903d90823e3d90fd5b5050fd5b61105a91503d8087833e61105281836120fc565b810190612b6c565b38610e8c565b6040513d87823e3d90fd5b8280fd5b8380fd5b50346101c457807ffffffffffffffffffffffffffffffffffffffffffffffffffffffffffffffffc3601126101c457602090604051908152f35b50346101c4576020807ffffffffffffffffffffffffffffffffffffffffffffffffffffffffffffffffc3601126101c05760043573ffffffffffffffffffffffffffffffffffffffff8082841c169061110583612884565b1561124e5761013480547ffffffffffffffffffffffffffffffffffffffffffffffffffffffffffffffffe811161122157600101905561012d546040517efdd58e0000000000000000000000000000000000000000000000000000000081523060048201526024810185905291859183916044918391165afa9081156110605785916111ef575b50936040916111d794956101356111a48282546125a0565b90556111b4610136918254612879565b905580825261013a9081875260028484200154156111e1575b825285522061386a565b5060405160018152f35b6111ea8161350b565b6111cd565b90508381813d831161121a575b61120681836120fc565b810103126112165751604061118c565b8480fd5b503d6111fc565b6024877f4e487b710000000000000000000000000000000000000000000000000000000081526011600452fd5b602483604051907fbd5baa920000000000000000000000000000000000000000000000000000000082526004820152fd5b50346101c45760c07ffffffffffffffffffffffffffffffffffffffffffffffffffffffffffffffffc3601126101c4576112b761203b565b6112bf612018565b6112c761205e565b916064359073ffffffffffffffffffffffffffffffffffffffff9182811680910361165657608435908382168092036103695786549560ff94858860081c16159687809861164a575b8015611634575b156115b0577fffffffffffffffffffffffffffffffffffffffffffffffffffffffffffffff00988860018b8316178c55611582575b50611380878b5460081c1661136081612a92565b61136981612a92565b61137281612a92565b61137b81612a92565b612a92565b7fffffffffffffffffffffffff0000000000000000000000000000000000000000958261012d9116878254161790558161012f91168682541617905561012e9116848254161790556101309083825416179055610131908282541617905560a435610132558461013355846101355584610136558461013455610138908154169055838052602092606584526040852033865284528160408620541615611537575b84805260978452611436336040872061282a565b507f26a560d834a19637eccba4611bbc09fb32970bb627da0a70f14f83fdc9822cbc9182865260658552604086203387528552604086205416156114eb575b50835260978252611489336040852061282a565b50611495575b50604051f35b7f7f26b83ff96e1f2b6a682f133852f6798a09c465da95921460cefb3847402498907fffffffffffffffffffffffffffffffffffffffffffffffffffffffffffff00ff835416835560405160018152a13861148f565b81855260658452604085203386528452600160408620918254161790553333827f2f8788117e7eff1d82e926ec794901d17c78024a50270940304540a733656f0d87604051a438611475565b84805260658452604085203386528452604085206001828254161790553333867f2f8788117e7eff1d82e926ec794901d17c78024a50270940304540a733656f0d81604051a4611422565b7fffffffffffffffffffffffffffffffffffffffffffffffffffffffffffff000016610101178a553861134c565b60846040517f08c379a000000000000000000000000000000000000000000000000000000000815260206004820152602e60248201527f496e697469616c697a61626c653a20636f6e747261637420697320616c72656160448201527f647920696e697469616c697a65640000000000000000000000000000000000006064820152fd5b50303b15801561131757506001878a1614611317565b506001878a1610611310565b8580fd5b50346101c45760407ffffffffffffffffffffffffffffffffffffffffffffffffffffffffffffffffc3601126101c45760ff6040602092611699612018565b60043582526065855273ffffffffffffffffffffffffffffffffffffffff8383209116825284522054166040519015158152f35b50346101c45760407ffffffffffffffffffffffffffffffffffffffffffffffffffffffffffffffffc3601126101c45773ffffffffffffffffffffffffffffffffffffffff61172d6020926004358152609784526040602435912061274e565b9190546040519260031b1c168152f35b50346101c457807ffffffffffffffffffffffffffffffffffffffffffffffffffffffffffffffffc3601126101c4576020611776612b4a565b604051908152f35b50346101c457807ffffffffffffffffffffffffffffffffffffffffffffffffffffffffffffffffc3601126101c457602061013554604051908152f35b50346101c457807ffffffffffffffffffffffffffffffffffffffffffffffffffffffffffffffffc3601126101c457602061013654604051908152f35b50346101c457602090817ffffffffffffffffffffffffffffffffffffffffffffffffffffffffffffffffc3601126101c4576004359073ffffffffffffffffffffffffffffffffffffffff908183851c169182825261013a908186526118618560408520613918565b61012d546040517efdd58e0000000000000000000000000000000000000000000000000000000081523060048201526024810187905291879183916044918391165afa9081156119ca57839161199d575b506101356118c1828254612879565b90556118d16101369182546125a0565b9055610134805460018110611970577fffffffffffffffffffffffffffffffffffffffffffffffffffffffffffffffff0190558282528452604090206002015415611961575b5061192181612766565b15611930575060405160018152f35b602490604051907f91ae05250000000000000000000000000000000000000000000000000000000082526004820152fd5b61196a90613684565b38611917565b6024847f4e487b710000000000000000000000000000000000000000000000000000000081526011600452fd5b90508581813d83116119c3575b6119b481836120fc565b8101031261106b5751386118b2565b503d6119aa565b6040513d85823e3d90fd5b50346101c457807ffffffffffffffffffffffffffffffffffffffffffffffffffffffffffffffffc3601126101c4578073ffffffffffffffffffffffffffffffffffffffff80610138541691809261013754938361012d5416915b858210611a4257602087604051908152f35b84169586845260209061013a8252604085209085916001810154906002810154915b82811115611a9a575050506101399291611a7d916125a0565b97855252611a948460016040862001541691612b1d565b90611a30565b808952818652604089205489611aaf82612c5b565b815b858a858310611b765750505090611af79291604051809481927f018e1c830000000000000000000000000000000000000000000000000000000083523060048401612c1a565b03818d5afa918215611b6b578b92611b4f575b50908a915b808310611b2757505050611b2290612b1d565b611a64565b909196611b42611b4891611b3b8a86612c47565b51906125a0565b97612b1d565b9190611b0f565b611b649192503d808d833e61105281836120fc565b9038611b0a565b6040513d8d823e3d90fd5b604085611b8d9385938a611b9e989952522061274e565b90549060031b1c61039d8285612c47565b908b91611ab1565b50346101c45760407ffffffffffffffffffffffffffffffffffffffffffffffffffffffffffffffffc3601126101c457611bde612018565b3373ffffffffffffffffffffffffffffffffffffffff821603611c07576103509060043561248a565b60846040517f08c379a000000000000000000000000000000000000000000000000000000000815260206004820152602f60248201527f416363657373436f6e74726f6c3a2063616e206f6e6c792072656e6f756e636560448201527f20726f6c657320666f722073656c6600000000000000000000000000000000006064820152fd5b50346101c457807ffffffffffffffffffffffffffffffffffffffffffffffffffffffffffffffffc3601126101c457602061013754604051908152f35b50346101c457807ffffffffffffffffffffffffffffffffffffffffffffffffffffffffffffffffc3601126101c45760206040517f26a560d834a19637eccba4611bbc09fb32970bb627da0a70f14f83fdc9822cbc8152f35b50346101c45760407ffffffffffffffffffffffffffffffffffffffffffffffffffffffffffffffffc3601126101c45761148f6004356097611d61612018565b9180855260209060658252611d7c6001604088200154612228565b8086526065825273ffffffffffffffffffffffffffffffffffffffff60408720941693848752825260ff60408720541615611dbe575b8552526040832061282a565b808652606582526040862084875282526040862060017fffffffffffffffffffffffffffffffffffffffffffffffffffffffffffffff008254161790553384827f2f8788117e7eff1d82e926ec794901d17c78024a50270940304540a733656f0d89604051a4611db2565b50346101c45760207ffffffffffffffffffffffffffffffffffffffffffffffffffffffffffffffffc3601126101c45760016040602092600435815260658452200154604051908152f35b50346101c457807ffffffffffffffffffffffffffffffffffffffffffffffffffffffffffffffffc3601126101c457602061013454604051908152f35b50346101c457807ffffffffffffffffffffffffffffffffffffffffffffffffffffffffffffffffc3601126101c457602061013354604051908152f35b9050346101c05760207ffffffffffffffffffffffffffffffffffffffffffffffffffffffffffffffffc3601126101c0576004357fffffffff00000000000000000000000000000000000000000000000000000000811680910361106b57602092507f5a05180f0000000000000000000000000000000000000000000000000000000081148015611fc6575b80918115611f8b575b505015158152f35b7f4e2312e0000000000000000000000000000000000000000000000000000000001491508115611fbe575b503880611f83565b905038611fb6565b507f7965db0b00000000000000000000000000000000000000000000000000000000811480611f7a57507f01ffc9a7000000000000000000000000000000000000000000000000000000008114611f7a565b6024359073ffffffffffffffffffffffffffffffffffffffff8216820361057d57565b6004359073ffffffffffffffffffffffffffffffffffffffff8216820361057d57565b6044359073ffffffffffffffffffffffffffffffffffffffff8216820361057d57565b67ffffffffffffffff811161209557604052565b7f4e487b7100000000000000000000000000000000000000000000000000000000600052604160045260246000fd5b6040810190811067ffffffffffffffff82111761209557604052565b6080810190811067ffffffffffffffff82111761209557604052565b90601f7fffffffffffffffffffffffffffffffffffffffffffffffffffffffffffffffe0910116810190811067ffffffffffffffff82111761209557604052565b67ffffffffffffffff81116120955760051b60200190565b81601f8201121561057d5780359161216c8361213d565b9261217a60405194856120fc565b808452602092838086019260051b82010192831161057d578301905b8282106121a4575050505090565b81358152908301908301612196565b81601f8201121561057d5780359067ffffffffffffffff8211612095576040519261220660207fffffffffffffffffffffffffffffffffffffffffffffffffffffffffffffffe0601f86011601856120fc565b8284526020838301011161057d57816000926020809301838601378301015290565b60009080825260209060658252604092838120338252835260ff8482205416156122525750505050565b61225b336125e8565b91845190612268826120e0565b6042825284820192606036853782511561086f576030845382516001908110156108425790607860218501536041915b80831161239357505050612337576048610762938693612301936122f298519889937f416363657373436f6e74726f6c3a206163636f756e74200000000000000000008a8601526106e3815180928c603789019101612412565b010360288101875201856120fc565b519283927f08c379a000000000000000000000000000000000000000000000000000000000845260048401526024830190612447565b6064848651907f08c379a000000000000000000000000000000000000000000000000000000000825280600483015260248201527f537472696e67733a20686578206c656e67746820696e73756666696369656e746044820152fd5b909192600f811660108110156123e557907f30313233343536373839616263646566000000000000000000000000000000006123de921a6123d486886125ac565b5360041c936125bd565b9190612298565b6024847f4e487b710000000000000000000000000000000000000000000000000000000081526032600452fd5b918091926000905b82821061243257501161242b575050565b6000910152565b9150806020918301518186015201829161241a565b907fffffffffffffffffffffffffffffffffffffffffffffffffffffffffffffffe0601f60209361248381518092818752878088019101612412565b0116010190565b906124d6916000818152606560205260409173ffffffffffffffffffffffffffffffffffffffff83832094169384835260205260ff83832054166124d9575b81526097602052206129af565b50565b80825260656020528282208483526020528282207fffffffffffffffffffffffffffffffffffffffffffffffffffffffffffffff0081541690553384827ff6391f5c32d9c69d2a47ea670b442974b53935d1edc7fd64eb21e047a839171b858751a46124c9565b807fffffffffffffffffffffffffffffffffffffffffffffffffffffffffffffffff04821181151516612571570290565b7f4e487b7100000000000000000000000000000000000000000000000000000000600052601160045260246000fd5b81198111612571570190565b908151811015610813570160200190565b8015612571577fffffffffffffffffffffffffffffffffffffffffffffffffffffffffffffffff0190565b604051906060820182811067ffffffffffffffff82111761209557604052602a82526020820160403682378251156108135760309053815160019081101561081357607860218401536029905b8082116126a35750506126455790565b60646040517f08c379a000000000000000000000000000000000000000000000000000000000815260206004820152602060248201527f537472696e67733a20686578206c656e67746820696e73756666696369656e746044820152fd5b9091600f81169060108210156126e9577f30313233343536373839616263646566000000000000000000000000000000006126e3921a61080385876125ac565b90612635565b602460007f4e487b710000000000000000000000000000000000000000000000000000000081526032600452fd5b61013b8054821015610813576000527fe1abe72d20e3d8bbb0a91fbb1c3cdd65253a0a0af97f17849f67ad7b3d1a6a620190600090565b80548210156108135760005260206000200190600090565b9060009180835261013c92836020526040812054156000146128255761013b93845494680100000000000000008610156127f857836127e86127b1886001604098999a018555612717565b819391549060031b7fffffffffffffffffffffffffffffffffffffffffffffffffffffffffffffffff811b9283911b169119161790565b9055549382526020522055600190565b6024837f4e487b710000000000000000000000000000000000000000000000000000000081526041600452fd5b925050565b9190600183016000908282528060205260408220541560001461287357845494680100000000000000008610156127f857836127e86127b1886001604098999a0185558461274e565b50925050565b818110612571570390565b60009080825261013c908160205260408320548015156000146129a95760018110611970577fffffffffffffffffffffffffffffffffffffffffffffffffffffffffffffffff908181019061013b9182546001811061297c57840190808203612949575b5050508054801561291c578201916128ff83612717565b909182549160031b1b191690555582526020526040812055600190565b6024867f4e487b710000000000000000000000000000000000000000000000000000000081526031600452fd5b6129676129586127b193612717565b90549060031b1c928392612717565b905586528460205260408620553880806128e8565b6024887f4e487b710000000000000000000000000000000000000000000000000000000081526011600452fd5b50505090565b90600182019060009281845282602052604084205490811515600014612a8b5760018210612a5e577fffffffffffffffffffffffffffffffffffffffffffffffffffffffffffffffff9182810182546001811061297c57840190808203612a29575b5050508054801561291c578201916128ff838361274e565b612a49612a396127b1938661274e565b90549060031b1c9283928661274e565b90558652846020526040862055388080612a11565b6024857f4e487b710000000000000000000000000000000000000000000000000000000081526011600452fd5b5050505090565b15612a9957565b60846040517f08c379a000000000000000000000000000000000000000000000000000000000815260206004820152602b60248201527f496e697469616c697a61626c653a20636f6e7472616374206973206e6f74206960448201527f6e697469616c697a696e670000000000000000000000000000000000000000006064820152fd5b7fffffffffffffffffffffffffffffffffffffffffffffffffffffffffffffffff81146125715760010190565b6101355461013354808210612b6557612b6291612879565b90565b5050600090565b602090818184031261057d5780519067ffffffffffffffff821161057d57019180601f8401121561057d578251612ba28161213d565b93612bb060405195866120fc565b818552838086019260051b82010192831161057d578301905b828210612bd7575050505090565b81518152908301908301612bc9565b90815180825260208080930193019160005b828110612c06575050505090565b835185529381019392810192600101612bf8565b60409073ffffffffffffffffffffffffffffffffffffffff612b6294931681528160208201520190612be6565b80518210156108135760209160051b010190565b90612c658261213d565b612c7260405191826120fc565b8281527fffffffffffffffffffffffffffffffffffffffffffffffffffffffffffffffe0612ca0829461213d565b0190602036910137565b610135548015612d2357610133541015612cc057565b3360009081527f4968081708883cb3c10665eed84caa9aa14f81fea408671f2a3977c38ac78048602052604090205460ff1615612cf957565b60046040517f9ece8f2f000000000000000000000000000000000000000000000000000000008152fd5b60046040517fade1cb41000000000000000000000000000000000000000000000000000000008152fd5b807fffffffffffffffffffffffffffffffffffffffffffffffffffffffffffffffff04606411811515166125715761013254801960641161257157606401908115612d99576064020490565b7f4e487b7100000000000000000000000000000000000000000000000000000000600052601260045260246000fd5b9081602091031261057d5751801515810361057d5790565b95949295939193612df085612c5b565b94612dfa81612c5b565b93600098895b8381106134d7575050505073ffffffffffffffffffffffffffffffffffffffff61012e541660405191602083015260208252604082019282841067ffffffffffffffff8511176134aa579088929184604052813b1561106f57837fffffffffffffffffffffffffffffffffffffffffffffffffffffffffffffffc0869473ffffffffffffffffffffffffffffffffffffffff86947f1f7fdffa00000000000000000000000000000000000000000000000000000000865216604482015260806064820152612f19612ed460c483018d612be6565b612f097fffffffffffffffffffffffffffffffffffffffffffffffffffffffffffffffbc91828582030160848601528c612be6565b908382030160a484015282612447565b0301925af1801561349f5761348c575b5073ffffffffffffffffffffffffffffffffffffffff61012d5416926040517f018e1c83000000000000000000000000000000000000000000000000000000008152868180612f7c853060048401612c1a565b0381885afa908115610b6d578791613472575b508660405180967fb6477cc0000000000000000000000000000000000000000000000000000000008252602060048301528180612fcf6024820188612be6565b03915afa948515610b6d578795613456575b50865b825181101561338957612ff78185612c47565b516130028284612c47565b5114613352575b6130138185612c47565b51613022610135918254612879565b9055606461303e6130338387612c47565b516101325490612540565b049061304a8186612c47565b51916130568289612c47565b516131fc575b61012f54610131546040517f23b872dd00000000000000000000000000000000000000000000000000000000815233600482015273ffffffffffffffffffffffffffffffffffffffff91821660248201526044810193909352919391602091859116818d81606481015b03925af19081156131f15761317b936020926131d4575b5073ffffffffffffffffffffffffffffffffffffffff61012f541673ffffffffffffffffffffffffffffffffffffffff613117858b612c47565b51168c6040518097819582947f23b872dd000000000000000000000000000000000000000000000000000000008452336004850160409194939294606082019573ffffffffffffffffffffffffffffffffffffffff80921683521660208201520152565b03925af19182156131c9576131959261319a575b50612b1d565b612fe4565b6131bb9060203d6020116131c2575b6131b381836120fc565b810190612dc8565b503861318f565b503d6131a9565b6040513d8b823e3d90fd5b6131ea90833d85116131c2576131b381836120fc565b50386130dd565b6040513d8c823e3d90fd5b61321d606461321561320e858c612c47565b5186612540565b048094612879565b908a73ffffffffffffffffffffffffffffffffffffffff61013054166132438589612c47565b51813b1561106b5782916044839260405194859384927f1b2ef1ca0000000000000000000000000000000000000000000000000000000084528c600485015260248401525af1801561036d5761333a575b505061012f54610130546040517f23b872dd00000000000000000000000000000000000000000000000000000000815233600482015273ffffffffffffffffffffffffffffffffffffffff91821660248201526044810196909652602091869116818e816064810103925af1908115611b6b576130c69460209261331d575b509193505061305c565b61333390833d85116131c2576131b381836120fc565b5038613313565b61334390612081565b61334e578a38613294565b8a80fd5b6101345460018110610f33577fffffffffffffffffffffffffffffffffffffffffffffffffffffffffffffffff0161013455613009565b50509150915092919273ffffffffffffffffffffffffffffffffffffffff61012d541690813b1561106f579183916134038361343395604051968795869485937f6b20c454000000000000000000000000000000000000000000000000000000008552306004860152606060248601526064850190612be6565b907ffffffffffffffffffffffffffffffffffffffffffffffffffffffffffffffffc848303016044850152612be6565b03925af1801561036d57613445575050565b61344f8291612081565b6101c45750565b61346b9195503d8089833e61105281836120fc565b9338612fe1565b61348691503d8089833e61105281836120fc565b38612f8f565b61349890959195612081565b9338612f29565b6040513d88823e3d90fd5b6024897f4e487b710000000000000000000000000000000000000000000000000000000081526041600452fd5b806134e56135069284612c47565b516134f0828c612c47565b526134fb8185612c47565b5161039d828a612c47565b612e00565b610138805473ffffffffffffffffffffffffffffffffffffffff92908316806135e057508216917fffffffffffffffffffffffff0000000000000000000000000000000000000000918383825416179055604051604081019080821067ffffffffffffffff8311176120955760019160405284815260208101948086526000526101396020528260406000209151168482541617815501925116908254161790555b61013780547ffffffffffffffffffffffffffffffffffffffffffffffffffffffffffffffffe8111612571576001019055565b9092600090828252610139938460205260409382808686205416978651986136078a6120c4565b895260208901928352169586855260205282600181878720995116987fffffffffffffffffffffffff0000000000000000000000000000000000000000998a8254161781550191511687825416179055818154168352818484205416835260018484200185878254161790555416815220918254161790556135ad565b73ffffffffffffffffffffffffffffffffffffffff8091169060009180835261013980602052600192838160408183828a2001541686146000146137a3576101387fffffffffffffffffffffffff000000000000000000000000000000000000000081541690555b8051946136f8866120c4565b888652602086019689885289526020528720935116927fffffffffffffffffffffffff00000000000000000000000000000000000000009384825416178155019251169082541617905561013791825491821061377657507fffffffffffffffffffffffffffffffffffffffffffffffffffffffffffffffff019055565b807f4e487b7100000000000000000000000000000000000000000000000000000000602492526011600452fd5b8183828a2001541682828a205416895283828a20017fffffffffffffffffffffffff0000000000000000000000000000000000000000918282541617905586895282828a2054168385848c200154168a52828a209182541617905581610138541686036136ec5761386561013880547fffffffffffffffffffffffff000000000000000000000000000000000000000073ffffffffffffffffffffffffffffffffffffffff808316600052610139602052600160406000200154169116179055565b6136ec565b919060009261ffff8260e01c16908160028201805480156000146138e65750816001840155555b816000526020526138a682604060002061282a565b156138af575050565b60449250604051917fbd48f90e00000000000000000000000000000000000000000000000000000000835260048301526024820152fd5b906001840191825484106000146138ff57505055613891565b9091508211613910575b5050613891565b558138613909565b9061ffff8160e01c169060009282845260209181835260409061393d818388206129af565b15613aa85750838552818352808520541561395a575b5050505050565b60019182810193845460028301968754918281146000146139ab57505050505050507fffffffffffffffffffffffffffffffffffffffffffffffffffffffffffffffff9055555b3880808080613953565b8199969998939495979814600014613a3d57505085547ffffffffffffffffffffffffffffffffffffffffffffffffffffffffffffffffe8111612a5e578701875b6139fe575b50505050505050506139a1565b81548111613a385780855283835285852054613a2357613a1d90612b1d565b876139ec565b965050505050505538808080808080806139f1565b6139f1565b9196918114613a535750505050505050506139a1565b878110612a5e577fffffffffffffffffffffffffffffffffffffffffffffffffffffffffffffffff01875b156139f15781548110613a385780855283835285852054613a2357613aa2906125bd565b87613a7e565b8460449251917f78717f9900000000000000000000000000000000000000000000000000000000835260048301526024820152fd5b60018101549060009182526020526040812080541561084257815260209020549056fea26469706673582212203956ae5351fa9e7972bea33288408d03635554408aca23f1a76d3c0744aaf9d464736f6c634300080f0033",
  "linkReferences": {},
  "deployedLinkReferences": {}
}