{
  "_format": "hh-sol-artifact-1",
  "contractName": "FIFOMarket",
  "sourceName": "contracts/FIFOMarket.sol",
  "abi": [
    {
      "anonymous": false,
      "inputs": [
        {
          "indexed": false,
          "internalType": "uint256",
          "name": "threshold",
          "type": "uint256"
        }
      ],
      "name": "PriorityRestrictedThresholdSet",
      "type": "event"
    },
    {
      "anonymous": false,
      "inputs": [
        {
          "indexed": true,
          "internalType": "bytes32",
          "name": "role",
          "type": "bytes32"
        },
        {
          "indexed": true,
          "internalType": "bytes32",
          "name": "previousAdminRole",
          "type": "bytes32"
        },
        {
          "indexed": true,
          "internalType": "bytes32",
          "name": "newAdminRole",
          "type": "bytes32"
        }
      ],
      "name": "RoleAdminChanged",
      "type": "event"
    },
    {
      "anonymous": false,
      "inputs": [
        {
          "indexed": true,
          "internalType": "bytes32",
          "name": "role",
          "type": "bytes32"
        },
        {
          "indexed": true,
          "internalType": "address",
          "name": "account",
          "type": "address"
        },
        {
          "indexed": true,
          "internalType": "address",
          "name": "sender",
          "type": "address"
        }
      ],
      "name": "RoleGranted",
      "type": "event"
    },
    {
      "anonymous": false,
      "inputs": [
        {
          "indexed": true,
          "internalType": "bytes32",
          "name": "role",
          "type": "bytes32"
        },
        {
          "indexed": true,
          "internalType": "address",
          "name": "account",
          "type": "address"
        },
        {
          "indexed": true,
          "internalType": "address",
          "name": "sender",
          "type": "address"
        }
      ],
      "name": "RoleRevoked",
      "type": "event"
    },
    {
      "inputs": [],
      "name": "ALLOWLIST_ROLE",
      "outputs": [
        {
          "internalType": "bytes32",
          "name": "",
          "type": "bytes32"
        }
      ],
      "stateMutability": "view",
      "type": "function"
    },
    {
      "inputs": [],
      "name": "DEFAULT_ADMIN_ROLE",
      "outputs": [
        {
          "internalType": "bytes32",
          "name": "",
          "type": "bytes32"
        }
      ],
      "stateMutability": "view",
      "type": "function"
    },
    {
      "inputs": [
        {
          "internalType": "bytes32",
          "name": "role",
          "type": "bytes32"
        }
      ],
      "name": "getRoleAdmin",
      "outputs": [
        {
          "internalType": "bytes32",
          "name": "",
          "type": "bytes32"
        }
      ],
      "stateMutability": "view",
      "type": "function"
    },
    {
      "inputs": [
        {
          "internalType": "bytes32",
          "name": "role",
          "type": "bytes32"
        },
        {
          "internalType": "uint256",
          "name": "index",
          "type": "uint256"
        }
      ],
      "name": "getRoleMember",
      "outputs": [
        {
          "internalType": "address",
          "name": "",
          "type": "address"
        }
      ],
      "stateMutability": "view",
      "type": "function"
    },
    {
      "inputs": [
        {
          "internalType": "bytes32",
          "name": "role",
          "type": "bytes32"
        }
      ],
      "name": "getRoleMemberCount",
      "outputs": [
        {
          "internalType": "uint256",
          "name": "",
          "type": "uint256"
        }
      ],
      "stateMutability": "view",
      "type": "function"
    },
    {
      "inputs": [
        {
          "internalType": "bytes32",
          "name": "role",
          "type": "bytes32"
        },
        {
          "internalType": "address",
          "name": "account",
          "type": "address"
        }
      ],
      "name": "grantRole",
      "outputs": [],
      "stateMutability": "nonpayable",
      "type": "function"
    },
    {
      "inputs": [
        {
          "internalType": "bytes32",
          "name": "role",
          "type": "bytes32"
        },
        {
          "internalType": "address",
          "name": "account",
          "type": "address"
        }
      ],
      "name": "hasRole",
      "outputs": [
        {
          "internalType": "bool",
          "name": "",
          "type": "bool"
        }
      ],
      "stateMutability": "view",
      "type": "function"
    },
    {
      "inputs": [
        {
          "internalType": "address",
          "name": "removalAddress",
          "type": "address"
        },
        {
          "internalType": "address",
          "name": "bridgedPolygonNoriAddress",
          "type": "address"
        },
        {
          "internalType": "address",
          "name": "certificateAddress",
          "type": "address"
        },
        {
          "internalType": "address",
          "name": "noriFeeWalletAddress",
          "type": "address"
        },
        {
          "internalType": "uint256",
          "name": "noriFee",
          "type": "uint256"
        }
      ],
      "name": "initialize",
      "outputs": [],
      "stateMutability": "nonpayable",
      "type": "function"
    },
    {
      "inputs": [
        {
          "internalType": "bool",
          "name": "includePriorityRestrictedSupply",
          "type": "bool"
        }
      ],
      "name": "nextRemovalForSale",
      "outputs": [
        {
          "internalType": "uint256",
          "name": "",
          "type": "uint256"
        }
      ],
      "stateMutability": "view",
      "type": "function"
    },
    {
      "inputs": [],
      "name": "numberOfNrtsInQueueComputed",
      "outputs": [
        {
          "internalType": "uint256",
          "name": "",
          "type": "uint256"
        }
      ],
      "stateMutability": "view",
      "type": "function"
    },
    {
      "inputs": [
        {
          "internalType": "address",
          "name": "",
          "type": "address"
        },
        {
          "internalType": "address",
          "name": "",
          "type": "address"
        },
        {
          "internalType": "uint256[]",
          "name": "ids",
          "type": "uint256[]"
        },
        {
          "internalType": "uint256[]",
          "name": "",
          "type": "uint256[]"
        },
        {
          "internalType": "bytes",
          "name": "",
          "type": "bytes"
        }
      ],
      "name": "onERC1155BatchReceived",
      "outputs": [
        {
          "internalType": "bytes4",
          "name": "",
          "type": "bytes4"
        }
      ],
      "stateMutability": "nonpayable",
      "type": "function"
    },
    {
      "inputs": [
        {
          "internalType": "address",
          "name": "",
          "type": "address"
        },
        {
          "internalType": "address",
          "name": "",
          "type": "address"
        },
        {
          "internalType": "uint256",
          "name": "",
          "type": "uint256"
        },
        {
          "internalType": "uint256",
          "name": "",
          "type": "uint256"
        },
        {
          "internalType": "bytes",
          "name": "",
          "type": "bytes"
        }
      ],
      "name": "onERC1155Received",
      "outputs": [
        {
          "internalType": "bytes4",
          "name": "",
          "type": "bytes4"
        }
      ],
      "stateMutability": "nonpayable",
      "type": "function"
    },
    {
      "inputs": [],
      "name": "priorityRestrictedThreshold",
      "outputs": [
        {
          "internalType": "uint256",
          "name": "",
          "type": "uint256"
        }
      ],
      "stateMutability": "view",
      "type": "function"
    },
    {
      "inputs": [
        {
          "internalType": "bytes32",
          "name": "role",
          "type": "bytes32"
        },
        {
          "internalType": "address",
          "name": "account",
          "type": "address"
        }
      ],
      "name": "renounceRole",
      "outputs": [],
      "stateMutability": "nonpayable",
      "type": "function"
    },
    {
      "inputs": [
        {
          "internalType": "bytes32",
          "name": "role",
          "type": "bytes32"
        },
        {
          "internalType": "address",
          "name": "account",
          "type": "address"
        }
      ],
      "name": "revokeRole",
      "outputs": [],
      "stateMutability": "nonpayable",
      "type": "function"
    },
    {
      "inputs": [
        {
          "internalType": "uint256",
          "name": "threshold",
          "type": "uint256"
        }
      ],
      "name": "setPriorityRestrictedThreshold",
      "outputs": [],
      "stateMutability": "nonpayable",
      "type": "function"
    },
    {
      "inputs": [
        {
          "internalType": "uint256",
          "name": "removalId",
          "type": "uint256"
        },
        {
          "internalType": "bool",
          "name": "isReserved",
          "type": "bool"
        }
      ],
      "name": "setRemovalAsReserved",
      "outputs": [],
      "stateMutability": "nonpayable",
      "type": "function"
    },
    {
      "inputs": [
        {
          "internalType": "bytes4",
          "name": "interfaceId",
          "type": "bytes4"
        }
      ],
      "name": "supportsInterface",
      "outputs": [
        {
          "internalType": "bool",
          "name": "",
          "type": "bool"
        }
      ],
      "stateMutability": "view",
      "type": "function"
    },
    {
      "inputs": [
        {
          "internalType": "address",
          "name": "",
          "type": "address"
        },
        {
          "internalType": "address",
          "name": "from",
          "type": "address"
        },
        {
          "internalType": "address",
          "name": "",
          "type": "address"
        },
        {
          "internalType": "uint256",
          "name": "amount",
          "type": "uint256"
        },
        {
          "internalType": "bytes",
          "name": "userData",
          "type": "bytes"
        },
        {
          "internalType": "bytes",
          "name": "",
          "type": "bytes"
        }
      ],
      "name": "tokensReceived",
      "outputs": [],
      "stateMutability": "nonpayable",
      "type": "function"
    },
    {
      "inputs": [],
      "name": "totalSupply",
      "outputs": [
        {
          "internalType": "uint256",
          "name": "",
          "type": "uint256"
        }
      ],
      "stateMutability": "view",
      "type": "function"
    },
    {
      "inputs": [],
      "name": "totalUnrestrictedSupply",
      "outputs": [
        {
          "internalType": "uint256",
          "name": "",
          "type": "uint256"
        }
      ],
      "stateMutability": "view",
      "type": "function"
    }
  ],
  "bytecode": "0x608060405234801561001057600080fd5b506123aa806100206000396000f3fe608060405234801561001057600080fd5b50600436106101365760003560e01c80637530b450116100b8578063bc197c811161007c578063bc197c8114610286578063ca15c873146102b2578063d547741f146102c5578063d797462f146102d8578063f23a6e61146102eb578063f7013ef61461030a57600080fd5b80637530b450146102305780639010d07c1461023857806391d1485414610263578063a0f4031714610276578063a217fddf1461027e57600080fd5b806318160ddd116100ff57806318160ddd146101b6578063248a9ca3146101c05780632f2ff15d146101e35780633030b532146101f657806336568abe1461021d57600080fd5b806223de291461013b57806301ffc9a7146101505780630b1bba2a1461017857806312de2b051461018b57806315d0a4cd146101a3575b600080fd5b61014e610149366004611b64565b61031d565b005b61016361015e366004611c14565b610e85565b60405190151581526020015b60405180910390f35b61014e610186366004611c4c565b610ea5565b6101956101375481565b60405190815260200161016f565b6101956101b1366004611c7c565b610ed3565b6101956101385481565b6101956101ce366004611c99565b60009081526065602052604090206001015490565b61014e6101f1366004611cb2565b610f09565b6101957f26a560d834a19637eccba4611bbc09fb32970bb627da0a70f14f83fdc9822cbc81565b61014e61022b366004611cb2565b610f34565b610195610fb2565b61024b610246366004611cd7565b610fdf565b6040516001600160a01b03909116815260200161016f565b610163610271366004611cb2565b610ffe565b610195611029565b610195600081565b610299610294366004611e2d565b6110e6565b6040516001600160e01b0319909116815260200161016f565b6101956102c0366004611c99565b611223565b61014e6102d3366004611cb2565b61123a565b61014e6102e6366004611c99565b611260565b6102996102f9366004611eda565b63f23a6e6160e01b95945050505050565b61014e610318366004611f42565b6112a9565b6101385460000361036c5760405162461bcd60e51b81526020600482015260146024820152734d61726b65743a204f7574206f662073746f636b60601b60448201526064015b60405180910390fd5b6101375461013854116103fd576103a37f26a560d834a19637eccba4611bbc09fb32970bb627da0a70f14f83fdc9822cbc88610ffe565b6103fd5760405162461bcd60e51b815260206004820152602560248201527f4c6f7720737570706c7920616e64206275796572206e6f74206f6e20616c6c6f6044820152641ddb1a5cdd60da1b6064820152608401610363565b600061013654606461040f9190611fbc565b61041a876064611fd4565b6104249190611ff3565b905080600061043586880188612015565b90506101345461013354036104885760405162461bcd60e51b81526020600482015260196024820152784d61726b65743a204e6f7420656e6f75676820737570706c7960381b6044820152606401610363565b6001600160a01b0381166104ea5760405162461bcd60e51b8152602060048201526024808201527f4d61726b65743a2043616e6e6f74206d696e7420746f207468652030206164646044820152637265737360e01b6064820152608401610363565b610130546001600160a01b0316331461056b5760405162461bcd60e51b815260206004820152603960248201527f4d61726b65743a205468697320636f6e74726163742063616e206f6e6c79207260448201527f6563656976652042726964676564506f6c79676f6e4e4f5249000000000000006064820152608401610363565b60006105756114cd565b6001600160401b0381111561058c5761058c611cf9565b6040519080825280602002602001820160405280156105b5578160200160208202803683370190505b50905060006105c26114cd565b6001600160401b038111156105d9576105d9611cf9565b604051908082528060200260200182016040528015610602578160200160208202803683370190505b509050600061060f6114cd565b6001600160401b0381111561062657610626611cf9565b60405190808252806020026020018201604052801561064f578160200160208202803683370190505b50905060008060006101335490505b6101345481101561097e5761012e5460008281526101316020526040808220549051627eeac760e11b8152306004820152602481019190915290916001600160a01b03169062fdd58e90604401602060405180830381865afa1580156106c8573d6000803e3d6000fd5b505050506040513d601f19601f820116820180604052508101906106ec9190612032565b6000838152610131602052604081205491925090610709906114e1565b60008481526101316020908152604080832054835261013290915290205490915060ff1615801561073a5750600082115b156108e057818a10156107d25760008381526101316020526040902054885189908590811061076b5761076b61204b565b6020026020010181815250508987848151811061078a5761078a61204b565b602002602001018181525050808684815181106107a9576107a961204b565b60200260200101906001600160a01b031690816001600160a01b031681525050600099506108bf565b6001610134546107e29190612061565b831480156107ef5750818a115b156108385760405162461bcd60e51b81526020600482015260196024820152784d61726b65743a204e6f7420656e6f75676820737570706c7960381b6044820152606401610363565b60008381526101316020526040902054885189908590811061085c5761085c61204b565b6020026020010181815250508187848151811061087b5761087b61204b565b6020026020010181815250508086848151811061089a5761089a61204b565b6001600160a01b03909216602092830291909101909101526108bc828b612061565b99505b846108c981612078565b955050896000036108db57505061097e565b610969565b6000838152610131602052604090205488518990859081106109045761090461204b565b60200260200101818152505060008784815181106109245761092461204b565b602002602001018181525050808684815181106109435761094361204b565b6001600160a01b03909216602092830291909101909101528361096581612078565b9450505b5050808061097690612078565b91505061065e565b506000826001600160401b0381111561099957610999611cf9565b6040519080825280602002602001820160405280156109c2578160200160208202803683370190505b5090506000836001600160401b038111156109df576109df611cf9565b604051908082528060200260200182016040528015610a08578160200160208202803683370190505b509050600080848661013354610a1e9190611fbc565b610a289190611fbc565b610133549091505b81811015610b135760008181526101316020908152604080832054835261013290915290205460ff16158015610a7f57506000898281518110610a7557610a7561204b565b6020026020010151115b15610b0157898181518110610a9657610a9661204b565b6020026020010151858481518110610ab057610ab061204b565b602002602001018181525050888181518110610ace57610ace61204b565b6020026020010151848481518110610ae857610ae861204b565b602090810291909101015282610afd81612078565b9350505b80610b0b81612078565b915050610a30565b5060008c604051602001610b2991815260200190565b60408051601f198184030181529082905261012f54630fbfeffd60e11b83529092506001600160a01b031690631f7fdffa90610b6f908e90899089908790600401612128565b600060405180830381600087803b158015610b8957600080fd5b505af1158015610b9d573d6000803e3d6000fd5b5050610133546000925090505b83811015610e055760008181526101316020908152604080832054835261013290915290205460ff16610de45781158015610bee5750610beb600185612061565b81105b15610c0a576101338054906000610c0483612078565b91905055505b60008b8281518110610c1e57610c1e61204b565b60200260200101511115610ddf578a8181518110610c3e57610c3e61204b565b60200260200101516101386000828254610c589190612061565b9250508190555060006101365460648d8481518110610c7957610c7961204b565b6020026020010151610c8b9190611ff3565b610c959190611fd4565b905060008c8381518110610cab57610cab61204b565b6020908102919091010151610130546101355460405163a9059cbb60e01b81526001600160a01b03918216600482015260248101869052929350169063a9059cbb906044016020604051808303816000875af1158015610d0f573d6000803e3d6000fd5b505050506040513d601f19601f82011682018060405250810190610d339190612172565b50610130548c516001600160a01b039091169063a9059cbb908e9086908110610d5e57610d5e61204b565b6020026020010151836040518363ffffffff1660e01b8152600401610d989291906001600160a01b03929092168252602082015260400190565b6020604051808303816000875af1158015610db7573d6000803e3d6000fd5b505050506040513d601f19601f82011682018060405250810190610ddb9190612172565b5050505b610df3565b811515600003610df357600191505b80610dfd81612078565b915050610baa565b5061012e54604051631ac8311560e21b81526001600160a01b0390911690636b20c45490610e3b9030908a908a9060040161218f565b600060405180830381600087803b158015610e5557600080fd5b505af1158015610e69573d6000803e3d6000fd5b5050505050505050505050505050505050505050505050505050565b6000610e90826114f0565b80610e9f5750610e9f82611515565b92915050565b6000610eb1813361153a565b5060009182526101326020526040909120805460ff1916911515919091179055565b610133546000908152610131602052604081205482158015610efb5750610137546101385411155b15610e9f5750600092915050565b600082815260656020526040902060010154610f25813361153a565b610f2f838361159e565b505050565b6001600160a01b0381163314610fa45760405162461bcd60e51b815260206004820152602f60248201527f416363657373436f6e74726f6c3a2063616e206f6e6c792072656e6f756e636560448201526e103937b632b9903337b91039b2b63360891b6064820152608401610363565b610fae82826115c0565b5050565b600061013754610138541015610fc85750600090565b6101375461013854610fda9190612061565b905090565b6000828152609760205260408120610ff790836115e2565b9392505050565b60009182526065602090815260408084206001600160a01b0393909316845291905290205460ff1690565b6101335460009081905b610134548110156110e05761012e546000828152610131602052604090819020549051627eeac760e11b815230600482015260248101919091526001600160a01b039091169062fdd58e90604401602060405180830381865afa15801561109e573d6000803e3d6000fd5b505050506040513d601f19601f820116820180604052508101906110c29190612032565b6110cc9083611fbc565b9150806110d881612078565b915050611033565b50919050565b6000805b84518110156112105761012e5485516000916001600160a01b03169062fdd58e90309089908690811061111f5761111f61204b565b60200260200101516040518363ffffffff1660e01b81526004016111589291906001600160a01b03929092168252602082015260400190565b602060405180830381865afa158015611175573d6000803e3d6000fd5b505050506040513d601f19601f820116820180604052508101906111999190612032565b90508061013860008282546111ae9190611fbc565b925050819055508582815181106111c7576111c761204b565b6020908102919091018101516101348054600090815261013190935260408320919091558054916111f783612078565b919050555050808061120890612078565b9150506110ea565b5063bc197c8160e01b9695505050505050565b6000818152609760205260408120610e9f906115ee565b600082815260656020526040902060010154611256813361153a565b610f2f83836115c0565b600061126c813361153a565b6101378290556040518281527f7ab6aa6547859e9ca74d567d44fefa0d63272ac019f4ebf9333032a62ea06fa59060200160405180910390a15050565b600054610100900460ff166112c45760005460ff16156112c8565b303b155b61132b5760405162461bcd60e51b815260206004820152602e60248201527f496e697469616c697a61626c653a20636f6e747261637420697320616c72656160448201526d191e481a5b9a5d1a585b1a5e995960921b6064820152608401610363565b600054610100900460ff1615801561134d576000805461ffff19166101011790555b6113556115f8565b61135d6115f8565b6113656115f8565b61136d6115f8565b6113756115f8565b61012e80546001600160a01b03199081166001600160a01b03898116919091179092556101308054821688841617905561012f80548216878416179055610135805482169286169290921790915561013683905561012d8054731820a4b7618bde71dce8cdc73aab6c95905fad249216821790556040516329965a1d60e01b815230600482018190527fb281fc8c12954d22544db45de3159a39272895b169a852b314f9cc762e44c53b602483015260448201526329965a1d90606401600060405180830381600087803b15801561144c57600080fd5b505af1158015611460573d6000803e3d6000fd5b50506000610133819055610134819055610137819055610138819055611489925090503361159e565b6114b37f26a560d834a19637eccba4611bbc09fb32970bb627da0a70f14f83fdc9822cbc3361159e565b80156114c5576000805461ff00191690555b505050505050565b60006101335461013454610fda9190612061565b6000610e9f8260146004611665565b60006001600160e01b03198216635a05180f60e01b1480610e9f5750610e9f826116b1565b60006001600160e01b03198216630271189760e51b1480610e9f5750610e9f826114f0565b6115448282610ffe565b610fae5761155c816001600160a01b031660146116e6565b6115678360206116e6565b6040516020016115789291906121cf565b60408051601f198184030181529082905262461bcd60e51b825261036391600401612244565b6115a88282611881565b6000828152609760205260409020610f2f9082611907565b6115ca828261191c565b6000828152609760205260409020610f2f9082611983565b6000610ff78383611998565b6000610e9f825490565b600054610100900460ff166116635760405162461bcd60e51b815260206004820152602b60248201527f496e697469616c697a61626c653a20636f6e7472616374206973206e6f74206960448201526a6e697469616c697a696e6760a81b6064820152608401610363565b565b600080611673600884611fd4565b6001611680600887611fd4565b61168b90600261233b565b6116959190612061565b901b90508481166116a7600885611fd4565b1c95945050505050565b60006001600160e01b03198216637965db0b60e01b1480610e9f57506301ffc9a760e01b6001600160e01b0319831614610e9f565b606060006116f5836002611fd4565b611700906002611fbc565b6001600160401b0381111561171757611717611cf9565b6040519080825280601f01601f191660200182016040528015611741576020820181803683370190505b509050600360fc1b8160008151811061175c5761175c61204b565b60200101906001600160f81b031916908160001a905350600f60fb1b8160018151811061178b5761178b61204b565b60200101906001600160f81b031916908160001a90535060006117af846002611fd4565b6117ba906001611fbc565b90505b6001811115611832576f181899199a1a9b1b9c1cb0b131b232b360811b85600f16601081106117ee576117ee61204b565b1a60f81b8282815181106118045761180461204b565b60200101906001600160f81b031916908160001a90535060049490941c9361182b81612347565b90506117bd565b508315610ff75760405162461bcd60e51b815260206004820181905260248201527f537472696e67733a20686578206c656e67746820696e73756666696369656e746044820152606401610363565b61188b8282610ffe565b610fae5760008281526065602090815260408083206001600160a01b03851684529091529020805460ff191660011790556118c33390565b6001600160a01b0316816001600160a01b0316837f2f8788117e7eff1d82e926ec794901d17c78024a50270940304540a733656f0d60405160405180910390a45050565b6000610ff7836001600160a01b0384166119c2565b6119268282610ffe565b15610fae5760008281526065602090815260408083206001600160a01b0385168085529252808320805460ff1916905551339285917ff6391f5c32d9c69d2a47ea670b442974b53935d1edc7fd64eb21e047a839171b9190a45050565b6000610ff7836001600160a01b038416611a11565b60008260000182815481106119af576119af61204b565b9060005260206000200154905092915050565b6000818152600183016020526040812054611a0957508154600181810184556000848152602080822090930184905584548482528286019093526040902091909155610e9f565b506000610e9f565b60008181526001830160205260408120548015611afa576000611a35600183612061565b8554909150600090611a4990600190612061565b9050818114611aae576000866000018281548110611a6957611a6961204b565b9060005260206000200154905080876000018481548110611a8c57611a8c61204b565b6000918252602080832090910192909255918252600188019052604090208390555b8554869080611abf57611abf61235e565b600190038181906000526020600020016000905590558560010160008681526020019081526020016000206000905560019350505050610e9f565b6000915050610e9f565b6001600160a01b0381168114611b1957600080fd5b50565b60008083601f840112611b2e57600080fd5b5081356001600160401b03811115611b4557600080fd5b602083019150836020828501011115611b5d57600080fd5b9250929050565b60008060008060008060008060c0898b031215611b8057600080fd5b8835611b8b81611b04565b97506020890135611b9b81611b04565b96506040890135611bab81611b04565b95506060890135945060808901356001600160401b0380821115611bce57600080fd5b611bda8c838d01611b1c565b909650945060a08b0135915080821115611bf357600080fd5b50611c008b828c01611b1c565b999c989b5096995094979396929594505050565b600060208284031215611c2657600080fd5b81356001600160e01b031981168114610ff757600080fd5b8015158114611b1957600080fd5b60008060408385031215611c5f57600080fd5b823591506020830135611c7181611c3e565b809150509250929050565b600060208284031215611c8e57600080fd5b8135610ff781611c3e565b600060208284031215611cab57600080fd5b5035919050565b60008060408385031215611cc557600080fd5b823591506020830135611c7181611b04565b60008060408385031215611cea57600080fd5b50508035926020909101359150565b634e487b7160e01b600052604160045260246000fd5b604051601f8201601f191681016001600160401b0381118282101715611d3757611d37611cf9565b604052919050565b600082601f830112611d5057600080fd5b813560206001600160401b03821115611d6b57611d6b611cf9565b8160051b611d7a828201611d0f565b9283528481018201928281019087851115611d9457600080fd5b83870192505b84831015611db357823582529183019190830190611d9a565b979650505050505050565b600082601f830112611dcf57600080fd5b81356001600160401b03811115611de857611de8611cf9565b611dfb601f8201601f1916602001611d0f565b818152846020838601011115611e1057600080fd5b816020850160208301376000918101602001919091529392505050565b600080600080600060a08688031215611e4557600080fd5b8535611e5081611b04565b94506020860135611e6081611b04565b935060408601356001600160401b0380821115611e7c57600080fd5b611e8889838a01611d3f565b94506060880135915080821115611e9e57600080fd5b611eaa89838a01611d3f565b93506080880135915080821115611ec057600080fd5b50611ecd88828901611dbe565b9150509295509295909350565b600080600080600060a08688031215611ef257600080fd5b8535611efd81611b04565b94506020860135611f0d81611b04565b9350604086013592506060860135915060808601356001600160401b03811115611f3657600080fd5b611ecd88828901611dbe565b600080600080600060a08688031215611f5a57600080fd5b8535611f6581611b04565b94506020860135611f7581611b04565b93506040860135611f8581611b04565b92506060860135611f9581611b04565b949793965091946080013592915050565b634e487b7160e01b600052601160045260246000fd5b60008219821115611fcf57611fcf611fa6565b500190565b6000816000190483118215151615611fee57611fee611fa6565b500290565b60008261201057634e487b7160e01b600052601260045260246000fd5b500490565b60006020828403121561202757600080fd5b8135610ff781611b04565b60006020828403121561204457600080fd5b5051919050565b634e487b7160e01b600052603260045260246000fd5b60008282101561207357612073611fa6565b500390565b60006001820161208a5761208a611fa6565b5060010190565b600081518084526020808501945080840160005b838110156120c1578151875295820195908201906001016120a5565b509495945050505050565b60005b838110156120e75781810151838201526020016120cf565b838111156120f6576000848401525b50505050565b600081518084526121148160208601602086016120cc565b601f01601f19169290920160200192915050565b6001600160a01b038516815260806020820181905260009061214c90830186612091565b828103604084015261215e8186612091565b90508281036060840152611db381856120fc565b60006020828403121561218457600080fd5b8151610ff781611c3e565b6001600160a01b03841681526060602082018190526000906121b390830185612091565b82810360408401526121c58185612091565b9695505050505050565b7f416363657373436f6e74726f6c3a206163636f756e74200000000000000000008152600083516122078160178501602088016120cc565b7001034b99036b4b9b9b4b733903937b6329607d1b60179184019182015283516122388160288401602088016120cc565b01602801949350505050565b602081526000610ff760208301846120fc565b600181815b8085111561229257816000190482111561227857612278611fa6565b8085161561228557918102915b93841c939080029061225c565b509250929050565b6000826122a957506001610e9f565b816122b657506000610e9f565b81600181146122cc57600281146122d6576122f2565b6001915050610e9f565b60ff8411156122e7576122e7611fa6565b50506001821b610e9f565b5060208310610133831016604e8410600b8410161715612315575081810a610e9f565b61231f8383612257565b806000190482111561233357612333611fa6565b029392505050565b6000610ff7838361229a565b60008161235657612356611fa6565b506000190190565b634e487b7160e01b600052603160045260246000fdfea264697066735822122058211aa55425d0f43c8eee2f72a7b2e75f1cfce765cccdd91ed519ef79ea7d1264736f6c634300080d0033",
  "linkReferences": {},
  "deployedLinkReferences": {}
}