{
  "_format": "hh-sol-artifact-1",
  "contractName": "FIFOMarket",
  "sourceName": "contracts/FIFOMarket.sol",
  "abi": [
    {
      "inputs": [],
      "stateMutability": "nonpayable",
      "type": "constructor"
    },
    {
      "anonymous": false,
      "inputs": [
        {
          "indexed": false,
          "internalType": "uint8",
          "name": "version",
          "type": "uint8"
        }
      ],
      "name": "Initialized",
      "type": "event"
    },
    {
      "anonymous": false,
      "inputs": [
        {
          "indexed": false,
          "internalType": "uint256",
          "name": "threshold",
          "type": "uint256"
        }
      ],
      "name": "PriorityRestrictedThresholdSet",
      "type": "event"
    },
    {
      "anonymous": false,
      "inputs": [
        {
          "indexed": true,
          "internalType": "bytes32",
          "name": "role",
          "type": "bytes32"
        },
        {
          "indexed": true,
          "internalType": "bytes32",
          "name": "previousAdminRole",
          "type": "bytes32"
        },
        {
          "indexed": true,
          "internalType": "bytes32",
          "name": "newAdminRole",
          "type": "bytes32"
        }
      ],
      "name": "RoleAdminChanged",
      "type": "event"
    },
    {
      "anonymous": false,
      "inputs": [
        {
          "indexed": true,
          "internalType": "bytes32",
          "name": "role",
          "type": "bytes32"
        },
        {
          "indexed": true,
          "internalType": "address",
          "name": "account",
          "type": "address"
        },
        {
          "indexed": true,
          "internalType": "address",
          "name": "sender",
          "type": "address"
        }
      ],
      "name": "RoleGranted",
      "type": "event"
    },
    {
      "anonymous": false,
      "inputs": [
        {
          "indexed": true,
          "internalType": "bytes32",
          "name": "role",
          "type": "bytes32"
        },
        {
          "indexed": true,
          "internalType": "address",
          "name": "account",
          "type": "address"
        },
        {
          "indexed": true,
          "internalType": "address",
          "name": "sender",
          "type": "address"
        }
      ],
      "name": "RoleRevoked",
      "type": "event"
    },
    {
      "inputs": [],
      "name": "ALLOWLIST_ROLE",
      "outputs": [
        {
          "internalType": "bytes32",
          "name": "",
          "type": "bytes32"
        }
      ],
      "stateMutability": "view",
      "type": "function"
    },
    {
      "inputs": [],
      "name": "DEFAULT_ADMIN_ROLE",
      "outputs": [
        {
          "internalType": "bytes32",
          "name": "",
          "type": "bytes32"
        }
      ],
      "stateMutability": "view",
      "type": "function"
    },
    {
      "inputs": [],
      "name": "activeSupplierCount",
      "outputs": [
        {
          "internalType": "uint256",
          "name": "",
          "type": "uint256"
        }
      ],
      "stateMutability": "view",
      "type": "function"
    },
    {
      "inputs": [
        {
          "internalType": "bytes32",
          "name": "role",
          "type": "bytes32"
        }
      ],
      "name": "getRoleAdmin",
      "outputs": [
        {
          "internalType": "bytes32",
          "name": "",
          "type": "bytes32"
        }
      ],
      "stateMutability": "view",
      "type": "function"
    },
    {
      "inputs": [
        {
          "internalType": "bytes32",
          "name": "role",
          "type": "bytes32"
        },
        {
          "internalType": "uint256",
          "name": "index",
          "type": "uint256"
        }
      ],
      "name": "getRoleMember",
      "outputs": [
        {
          "internalType": "address",
          "name": "",
          "type": "address"
        }
      ],
      "stateMutability": "view",
      "type": "function"
    },
    {
      "inputs": [
        {
          "internalType": "bytes32",
          "name": "role",
          "type": "bytes32"
        }
      ],
      "name": "getRoleMemberCount",
      "outputs": [
        {
          "internalType": "uint256",
          "name": "",
          "type": "uint256"
        }
      ],
      "stateMutability": "view",
      "type": "function"
    },
    {
      "inputs": [
        {
          "internalType": "bytes32",
          "name": "role",
          "type": "bytes32"
        },
        {
          "internalType": "address",
          "name": "account",
          "type": "address"
        }
      ],
      "name": "grantRole",
      "outputs": [],
      "stateMutability": "nonpayable",
      "type": "function"
    },
    {
      "inputs": [
        {
          "internalType": "bytes32",
          "name": "role",
          "type": "bytes32"
        },
        {
          "internalType": "address",
          "name": "account",
          "type": "address"
        }
      ],
      "name": "hasRole",
      "outputs": [
        {
          "internalType": "bool",
          "name": "",
          "type": "bool"
        }
      ],
      "stateMutability": "view",
      "type": "function"
    },
    {
      "inputs": [
        {
          "internalType": "address",
          "name": "removalAddress",
          "type": "address"
        },
        {
          "internalType": "address",
          "name": "bridgedPolygonNoriAddress",
          "type": "address"
        },
        {
          "internalType": "address",
          "name": "certificateAddress",
          "type": "address"
        },
        {
          "internalType": "address",
          "name": "restrictedNoriAddress",
          "type": "address"
        },
        {
          "internalType": "address",
          "name": "noriFeeWalletAddress",
          "type": "address"
        },
        {
          "internalType": "uint256",
          "name": "noriFee",
          "type": "uint256"
        }
      ],
      "name": "initialize",
      "outputs": [],
      "stateMutability": "nonpayable",
      "type": "function"
    },
    {
      "inputs": [],
      "name": "numberOfActiveNrtsInMarketComputed",
      "outputs": [
        {
          "internalType": "uint256",
          "name": "",
          "type": "uint256"
        }
      ],
      "stateMutability": "view",
      "type": "function"
    },
    {
      "inputs": [
        {
          "internalType": "address",
          "name": "",
          "type": "address"
        },
        {
          "internalType": "address",
          "name": "",
          "type": "address"
        },
        {
          "internalType": "uint256[]",
          "name": "ids",
          "type": "uint256[]"
        },
        {
          "internalType": "uint256[]",
          "name": "",
          "type": "uint256[]"
        },
        {
          "internalType": "bytes",
          "name": "data",
          "type": "bytes"
        }
      ],
      "name": "onERC1155BatchReceived",
      "outputs": [
        {
          "internalType": "bytes4",
          "name": "",
          "type": "bytes4"
        }
      ],
      "stateMutability": "nonpayable",
      "type": "function"
    },
    {
      "inputs": [
        {
          "internalType": "address",
          "name": "",
          "type": "address"
        },
        {
          "internalType": "address",
          "name": "",
          "type": "address"
        },
        {
          "internalType": "uint256",
          "name": "",
          "type": "uint256"
        },
        {
          "internalType": "uint256",
          "name": "",
          "type": "uint256"
        },
        {
          "internalType": "bytes",
          "name": "",
          "type": "bytes"
        }
      ],
      "name": "onERC1155Received",
      "outputs": [
        {
          "internalType": "bytes4",
          "name": "",
          "type": "bytes4"
        }
      ],
      "stateMutability": "nonpayable",
      "type": "function"
    },
    {
      "inputs": [],
      "name": "priorityRestrictedThreshold",
      "outputs": [
        {
          "internalType": "uint256",
          "name": "",
          "type": "uint256"
        }
      ],
      "stateMutability": "view",
      "type": "function"
    },
    {
      "inputs": [
        {
          "internalType": "uint256",
          "name": "removalId",
          "type": "uint256"
        },
        {
          "internalType": "uint256",
          "name": "amount",
          "type": "uint256"
        }
      ],
      "name": "release",
      "outputs": [
        {
          "internalType": "bool",
          "name": "",
          "type": "bool"
        }
      ],
      "stateMutability": "nonpayable",
      "type": "function"
    },
    {
      "inputs": [
        {
          "internalType": "bytes32",
          "name": "role",
          "type": "bytes32"
        },
        {
          "internalType": "address",
          "name": "account",
          "type": "address"
        }
      ],
      "name": "renounceRole",
      "outputs": [],
      "stateMutability": "nonpayable",
      "type": "function"
    },
    {
      "inputs": [
        {
          "internalType": "uint256",
          "name": "removalId",
          "type": "uint256"
        }
      ],
      "name": "reserveRemoval",
      "outputs": [
        {
          "internalType": "bool",
          "name": "",
          "type": "bool"
        }
      ],
      "stateMutability": "nonpayable",
      "type": "function"
    },
    {
      "inputs": [
        {
          "internalType": "bytes32",
          "name": "role",
          "type": "bytes32"
        },
        {
          "internalType": "address",
          "name": "account",
          "type": "address"
        }
      ],
      "name": "revokeRole",
      "outputs": [],
      "stateMutability": "nonpayable",
      "type": "function"
    },
    {
      "inputs": [
        {
          "internalType": "uint256",
          "name": "threshold",
          "type": "uint256"
        }
      ],
      "name": "setPriorityRestrictedThreshold",
      "outputs": [],
      "stateMutability": "nonpayable",
      "type": "function"
    },
    {
      "inputs": [
        {
          "internalType": "bytes4",
          "name": "interfaceId",
          "type": "bytes4"
        }
      ],
      "name": "supportsInterface",
      "outputs": [
        {
          "internalType": "bool",
          "name": "",
          "type": "bool"
        }
      ],
      "stateMutability": "view",
      "type": "function"
    },
    {
      "inputs": [
        {
          "internalType": "address",
          "name": "recipient",
          "type": "address"
        },
        {
          "internalType": "uint256",
          "name": "amount",
          "type": "uint256"
        },
        {
          "internalType": "uint256",
          "name": "deadline",
          "type": "uint256"
        },
        {
          "internalType": "uint8",
          "name": "v",
          "type": "uint8"
        },
        {
          "internalType": "bytes32",
          "name": "r",
          "type": "bytes32"
        },
        {
          "internalType": "bytes32",
          "name": "s",
          "type": "bytes32"
        }
      ],
      "name": "swap",
      "outputs": [],
      "stateMutability": "nonpayable",
      "type": "function"
    },
    {
      "inputs": [
        {
          "internalType": "address",
          "name": "recipient",
          "type": "address"
        },
        {
          "internalType": "uint256",
          "name": "amount",
          "type": "uint256"
        },
        {
          "internalType": "address",
          "name": "supplierToBuyFrom",
          "type": "address"
        },
        {
          "internalType": "uint256",
          "name": "deadline",
          "type": "uint256"
        },
        {
          "internalType": "uint8",
          "name": "v",
          "type": "uint8"
        },
        {
          "internalType": "bytes32",
          "name": "r",
          "type": "bytes32"
        },
        {
          "internalType": "bytes32",
          "name": "s",
          "type": "bytes32"
        }
      ],
      "name": "swapFromSpecificSupplier",
      "outputs": [],
      "stateMutability": "nonpayable",
      "type": "function"
    },
    {
      "inputs": [],
      "name": "totalActiveSupply",
      "outputs": [
        {
          "internalType": "uint256",
          "name": "",
          "type": "uint256"
        }
      ],
      "stateMutability": "view",
      "type": "function"
    },
    {
      "inputs": [],
      "name": "totalNumberActiveRemovals",
      "outputs": [
        {
          "internalType": "uint256",
          "name": "",
          "type": "uint256"
        }
      ],
      "stateMutability": "view",
      "type": "function"
    },
    {
      "inputs": [],
      "name": "totalReservedSupply",
      "outputs": [
        {
          "internalType": "uint256",
          "name": "",
          "type": "uint256"
        }
      ],
      "stateMutability": "view",
      "type": "function"
    },
    {
      "inputs": [],
      "name": "totalUnrestrictedSupply",
      "outputs": [
        {
          "internalType": "uint256",
          "name": "",
          "type": "uint256"
        }
      ],
      "stateMutability": "view",
      "type": "function"
    },
    {
      "inputs": [
        {
          "internalType": "uint256",
          "name": "removalId",
          "type": "uint256"
        }
      ],
      "name": "unreserveRemoval",
      "outputs": [
        {
          "internalType": "bool",
          "name": "",
          "type": "bool"
        }
      ],
      "stateMutability": "nonpayable",
      "type": "function"
    }
  ],
  "bytecode": "0x60808060405234620000c6576000549060ff8260081c1662000074575060ff8082161062000038575b6040516140809081620000cc8239f35b60ff90811916176000557f7f26b83ff96e1f2b6a682f133852f6798a09c465da95921460cefb3847402498602060405160ff8152a13862000028565b62461bcd60e51b815260206004820152602760248201527f496e697469616c697a61626c653a20636f6e747261637420697320696e697469604482015266616c697a696e6760c81b6064820152608490fd5b600080fdfe608080604052600436101561001357600080fd5b600090813560e01c90816301ffc9a7146122525750806312de2b0514612215578063179f0445146121d8578063248a9ca31461218d5780632f2ff15d146120855780633030b5321461202c578063361b7b9d14611fef57806336568abe14611f0a578063366a412014611cf85780633eb12cee14611b1f57806359e1a71c146118cc578063674d13c81461188f57806372069264146118565780637530b450146117f55780639010d07c1461178557806391d148541461171257806395b6ef0c1461134057806397a11ee914611098578063a217fddf1461105e578063bc197c8114610ddd578063ca15c87314610d95578063ce0ec47414610941578063d547741f146108e5578063d797462f14610609578063da9d20e7146101d25763f23a6e611461013f57600080fd5b346101cf5760a07ffffffffffffffffffffffffffffffffffffffffffffffffffffffffffffffffc3601126101cf5761017661239f565b5061017f61237c565b5060843567ffffffffffffffff81116101cb576101a0903690600401612517565b5060206040517ff23a6e61000000000000000000000000000000000000000000000000000000008152f35b5080fd5b80fd5b50346101cf5760e07ffffffffffffffffffffffffffffffffffffffffffffffffffffffffffffffffc3601126101cf5761020a61239f565b6102126123c2565b60ff60843516608435036105ca57610228612fed565b610233602435613122565b9073ffffffffffffffffffffffffffffffffffffffff81168452610139602052604084208493600182015460028301545b808211156105e257505084156105075791929390849261028383612eef565b9261028d81612eef565b94889389915b8383106103b3575b505050506102a882612eef565b94875b8381106103835750508673ffffffffffffffffffffffffffffffffffffffff61012f5416803b156101cb576040517fd505accf0000000000000000000000000000000000000000000000000000000081523360048201523060248083019190915235604482015260648035908201526084803560ff169082015260a480359082015260c4803590820152908290829081838160e4810103925af1801561037857610360575b505061035b9561331b565b604051f35b610369906123e5565b610374578638610350565b8680fd5b6040513d84823e3d90fd5b6103ae9073ffffffffffffffffffffffffffffffffffffffff83166103a8828a612edb565b52612eae565b6102ab565b6103c5829a999897969395949a614027565b61012d546040517efdd58e00000000000000000000000000000000000000000000000000000000815230600482015260248101839052906020908290604490829073ffffffffffffffffffffffffffffffffffffffff165afa9081156105d7578d916105a0575b508083101561048257506104408488612edb565b5261044b8388612edb565b526104578a925b612eae565b9382156104755761046790612eae565b919892939495969798610293565b839495969798995061029b565b9160018c95929510610573577fffffffffffffffffffffffffffffffffffffffffffffffffffffffffffffffff8c0182148061056a575b610507576104f06104e9846104f593610457966104e3878f8f6104dd838f92612edb565b52612edb565b52612bdd565b9585613e13565b61319d565b6002830154612eae5761045289613bc5565b6040517f08c379a000000000000000000000000000000000000000000000000000000000815260206004820152601960248201527f4d61726b65743a204e6f7420656e6f75676820737570706c79000000000000006044820152606490fd5b0390fd5b508281116104b9565b60248d7f4e487b710000000000000000000000000000000000000000000000000000000081526011600452fd5b90506020813d6020116105cf575b816105bb60209383612460565b810103126105ca57513861042c565b600080fd5b3d91506105ae565b6040513d8f823e3d90fd5b90956105fd61060391888a528560205260408a205490612904565b96612eae565b90610264565b50346101cf576020807ffffffffffffffffffffffffffffffffffffffffffffffffffffffffffffffffc3601126101cb576004356000805260658252604060002033600052825260ff60406000205416156106925790817f7ab6aa6547859e9ca74d567d44fefa0d63272ac019f4ebf9333032a62ea06fa59261013355604051908152a1604051f35b5061069c3361294c565b9060006040516106ab81612444565b604281528281019160603684378151156108b85760308353815160019081101561088b57607860218401536041905b80821161080c5750506107af5761076593610774926048926040519687937f416363657373436f6e74726f6c3a206163636f756e742000000000000000000088860152610730815180928a603789019101612776565b8401917f206973206d697373696e6720726f6c6520000000000000000000000000000000603784015251809386840190612776565b01036028810185520183612460565b6105666040519283927f08c379a0000000000000000000000000000000000000000000000000000000008452600484015260248301906127ab565b606483604051907f08c379a000000000000000000000000000000000000000000000000000000000825280600483015260248201527f537472696e67733a20686578206c656e67746820696e73756666696369656e746044820152fd5b9091600f811690601082101561085c577f3031323334353637383961626364656600000000000000000000000000000000610856921a61084c8587612910565b5360041c92612921565b906106da565b7f4e487b7100000000000000000000000000000000000000000000000000000000600052603260045260246000fd5b6024827f4e487b710000000000000000000000000000000000000000000000000000000081526032600452fd5b807f4e487b7100000000000000000000000000000000000000000000000000000000602492526032600452fd5b50346101cf5760407ffffffffffffffffffffffffffffffffffffffffffffffffffffffffffffffffc3601126101cf5761035b60043561092361237c565b90808452606560205261093c600160408620015461258c565b6127ee565b50346101cf5760c07ffffffffffffffffffffffffffffffffffffffffffffffffffffffffffffffffc3601126101cf5761097961239f565b9060ff60643516606435036101cf57610990612fed565b61099b602435613122565b908192610134928354906109ae82612eef565b906109c16109bb84612eef565b93612eef565b938586925b885480851015610d865773ffffffffffffffffffffffffffffffffffffffff6101375416808a526101396020526109ff60408b20614027565b61012d546040517efdd58e000000000000000000000000000000000000000000000000000000008152306004820152602481018390529193906020908390604490829073ffffffffffffffffffffffffffffffffffffffff165afa918215610d7b578c92610d43575b5081851015610bc157505050610a7e8387612edb565b52610a898287612edb565b5273ffffffffffffffffffffffffffffffffffffffff6101375416610aae8288612edb565b52610ab98791612eae565b928115610ad057610ac990612eae565b92906109c6565b5050909192939495505b73ffffffffffffffffffffffffffffffffffffffff61012f5416803b15610374578660405180927fd505accf000000000000000000000000000000000000000000000000000000008252818381610b8960a4356084356064356044356024353033600489019360ff929897969360c0969260e087019a73ffffffffffffffffffffffffffffffffffffffff80921688521660208701526040860152606085015216608083015260a08201520152565b03925af18015610bb657610ba3575b5061035b959661331b565b95610bb061035b976123e5565b95610b98565b6040513d89823e3d90fd5b600181969495939610610d16577fffffffffffffffffffffffffffffffffffffffffffffffffffffffffffffffff01871480610d0d575b6105075783610c2582610c3794886104e38f8f908f986104dd8c8094610ab99f6104dd836104f09f612edb565b958c5261013960205260408c20613e13565b6101375473ffffffffffffffffffffffffffffffffffffffff16808a5261013960205260408a2060020154610c89575061045273ffffffffffffffffffffffffffffffffffffffff6101375416613bc5565b61013860205260408a206001015473ffffffffffffffffffffffffffffffffffffffff16146104525761045261013780547fffffffffffffffffffffffff000000000000000000000000000000000000000073ffffffffffffffffffffffffffffffffffffffff808316600052610138602052600160406000200154169116179055565b50808211610bf8565b60248c7f4e487b710000000000000000000000000000000000000000000000000000000081526011600452fd5b9091506020813d602011610d73575b81610d5f60209383612460565b81010312610d6f57519038610a68565b8b80fd5b3d9150610d52565b6040513d8e823e3d90fd5b50509293949596509050610ada565b50346101cf5760207ffffffffffffffffffffffffffffffffffffffffffffffffffffffffffffffffc3601126101cf5760406020916004358152609783522054604051908152f35b50346101cf5760a07ffffffffffffffffffffffffffffffffffffffffffffffffffffffffffffffffc3601126101cf57610e1561239f565b50610e1e61237c565b50604467ffffffffffffffff813581811161105a57610e419036906004016124b9565b91606490813583811161105657610e5c9036906004016124b9565b50608492833590811161105657610e77903690600401612517565b93855b868251821015610f815750610e8f8183612edb565b5173ffffffffffffffffffffffffffffffffffffffff6020610ec18284831c1693848c52610139835260408c20613dab565b15610f005791899391610138610eea948387525260016040862001541615610ef1575b50612eae565b9050610e7a565b610efa90613a4c565b38610ee4565b87907f2076696e74616765000000000000000000000000000000000000000000000000887f4d61726b65743a20556e61626c6520746f206164642072656d6f76616c20627989604051947f08c379a0000000000000000000000000000000000000000000000000000000008652600486015260286024860152840152820152fd5b80878451610f93610134918254612904565b9055602081805181010312611053576020015173ffffffffffffffffffffffffffffffffffffffff6101305416803b1561104f576024839260405195869384927ff6f57a2e00000000000000000000000000000000000000000000000000000000845260048401525af19081156110435750611034575b60206040517fbc197c81000000000000000000000000000000000000000000000000000000008152f35b61103d906123e5565b8061100a565b604051903d90823e3d90fd5b5050fd5b50fd5b8580fd5b8380fd5b50346101cf57807ffffffffffffffffffffffffffffffffffffffffffffffffffffffffffffffffc3601126101cf57602090604051908152f35b50346101cf576020807ffffffffffffffffffffffffffffffffffffffffffffffffffffffffffffffffc3601126101cb5760043573ffffffffffffffffffffffffffffffffffffffff8082841c16906110f083612be8565b156112bc5761013480547ffffffffffffffffffffffffffffffffffffffffffffffffffffffffffffffffe811161128f57600101905561012d546040517efdd58e0000000000000000000000000000000000000000000000000000000081523060048201526024810185905291859183916044918391165afa908115611284578591611252575b50936040916111b2949561118f610135918254612bdd565b9055808252610139908187526002848420015415611244575b8252855220613dab565b156111c05760405160018152f35b608490604051907f08c379a00000000000000000000000000000000000000000000000000000000082526004820152602360248201527f4d61726b65743a20556e61626c6520746f20756e726573657276652072656d6f60448201527f76616c00000000000000000000000000000000000000000000000000000000006064820152fd5b61124d81613a4c565b6111a8565b90508381813d831161127d575b6112698183612460565b8101031261127957516040611177565b8480fd5b503d61125f565b6040513d87823e3d90fd5b6024877f4e487b710000000000000000000000000000000000000000000000000000000081526011600452fd5b608484604051907f08c379a00000000000000000000000000000000000000000000000000000000082526004820152602660248201527f4d61726b65743a2072656d6f76616c206e6f7420696e2072657365727665642060448201527f737570706c7900000000000000000000000000000000000000000000000000006064820152fd5b50346101cf5760c07ffffffffffffffffffffffffffffffffffffffffffffffffffffffffffffffffc3601126101cf5761137861239f565b61138061237c565b6113886123c2565b916064359073ffffffffffffffffffffffffffffffffffffffff9182811680910361105657608435908382168092036103745786549560ff94858860081c161596878098611706575b80156116f0575b1561166c577fffffffffffffffffffffffffffffffffffffffffffffffffffffffffffffff00988860018b8316178c5561163e575b50611441878b5460081c1661142181612e23565b61142a81612e23565b61143381612e23565b61143c81612e23565b612e23565b7fffffffffffffffffffffffff0000000000000000000000000000000000000000958261012d9116878254161790558161012f91168682541617905561012e9116848254161790556101309083825416179055610131908282541617905560a435610132558461013355846101355584610134556101379081541690558380526020926065845260408520338652845281604086205416156115f3575b848052609784526114f23360408720612b8e565b507f26a560d834a19637eccba4611bbc09fb32970bb627da0a70f14f83fdc9822cbc9182865260658552604086203387528552604086205416156115a7575b508352609782526115453360408520612b8e565b50611551575b50604051f35b7f7f26b83ff96e1f2b6a682f133852f6798a09c465da95921460cefb3847402498907fffffffffffffffffffffffffffffffffffffffffffffffffffffffffffff00ff835416835560405160018152a13861154b565b81855260658452604085203386528452600160408620918254161790553333827f2f8788117e7eff1d82e926ec794901d17c78024a50270940304540a733656f0d87604051a438611531565b84805260658452604085203386528452604085206001828254161790553333867f2f8788117e7eff1d82e926ec794901d17c78024a50270940304540a733656f0d81604051a46114de565b7fffffffffffffffffffffffffffffffffffffffffffffffffffffffffffff000016610101178a553861140d565b60846040517f08c379a000000000000000000000000000000000000000000000000000000000815260206004820152602e60248201527f496e697469616c697a61626c653a20636f6e747261637420697320616c72656160448201527f647920696e697469616c697a65640000000000000000000000000000000000006064820152fd5b50303b1580156113d857506001878a16146113d8565b506001878a16106113d1565b50346101cf5760407ffffffffffffffffffffffffffffffffffffffffffffffffffffffffffffffffc3601126101cf5760ff604060209261175161237c565b60043582526065855273ffffffffffffffffffffffffffffffffffffffff8383209116825284522054166040519015158152f35b50346101cf5760407ffffffffffffffffffffffffffffffffffffffffffffffffffffffffffffffffc3601126101cf5773ffffffffffffffffffffffffffffffffffffffff6117e560209260043581526097845260406024359120612ab2565b9190546040519260031b1c168152f35b50346101cf57807ffffffffffffffffffffffffffffffffffffffffffffffffffffffffffffffffc3601126101cf5760209061182f612f3e565b6101335490818110156118475750505b604051908152f35b6118519250612bdd565b61183f565b50346101cf57807ffffffffffffffffffffffffffffffffffffffffffffffffffffffffffffffffc3601126101cf57602061183f612f3e565b50346101cf57807ffffffffffffffffffffffffffffffffffffffffffffffffffffffffffffffffc3601126101cf57602061013554604051908152f35b50346101cf576020807ffffffffffffffffffffffffffffffffffffffffffffffffffffffffffffffffc3601126101cb5760043573ffffffffffffffffffffffffffffffffffffffff8082841c1690818552610139908185526119328460408820613e13565b15611a9c5761012d546040517efdd58e0000000000000000000000000000000000000000000000000000000081523060048201526024810186905291869183916044918391165afa908115611a91578691611a64575b50611997610135918254612904565b905561013480546001811061128f57956002926040927fffffffffffffffffffffffffffffffffffffffffffffffffffffffffffffffff6119ea9899019055848252875220015415611a55575b50612aca565b156119f85760405160018152f35b606490604051907f08c379a000000000000000000000000000000000000000000000000000000000825280600483015260248201527f4d61726b65743a2052656d6f76616c20616c72656164792072657365727665646044820152fd5b611a5e90613bc5565b386119e4565b90508481813d8311611a8a575b611a7b8183612460565b81010312611056575138611988565b503d611a71565b6040513d88823e3d90fd5b608485604051907f08c379a000000000000000000000000000000000000000000000000000000000825260048201526024808201527f4d61726b65743a2072656d6f76616c206e6f7420696e2061637469766520737560448201527f70706c79000000000000000000000000000000000000000000000000000000006064820152fd5b50346101cf57807ffffffffffffffffffffffffffffffffffffffffffffffffffffffffffffffffc3601126101cf578073ffffffffffffffffffffffffffffffffffffffff80610137541691809261013654938361012d5416915b858210611b8c57602087604051908152f35b8416958684526020906101398252604085209085916001810154906002810154915b82811115611be4575050506101389291611bc791612904565b97855252611bde8460016040862001541691612eae565b90611b7a565b808952818652604089205489611bf982612eef565b815b858a858310611cc85750505090611c419291604051809481927f018e1c8300000000000000000000000000000000000000000000000000000000835230600484016132d6565b03818d5afa918215611cbd578b92611c99575b50908a915b808310611c7157505050611c6c90612eae565b611bae565b909196611c8c611c9291611c858a86612edb565b5190612904565b97612eae565b9190611c59565b611cb69192503d808d833e611cae8183612460565b81019061325c565b9038611c54565b6040513d8d823e3d90fd5b604085611cdf9385938a611cf09899525220612ab2565b90549060031b1c6103a88285612edb565b908b91611bfb565b50346101cf5760407ffffffffffffffffffffffffffffffffffffffffffffffffffffffffffffffffc3601126101cf5761012d546040517efdd58e00000000000000000000000000000000000000000000000000000000815230600480830191909152356024820181905260209373ffffffffffffffffffffffffffffffffffffffff82861c811694919391869183916044918391165afa908115611eff578391611ece575b5060243514611dd8575b506040818360029352610139855220015415611dc9575b5060405160018152f35b611dd290613bc5565b38611dbf565b8282526101398452611ded8160408420613e13565b908115611ebe575b5015611e6057610134805460018110611e33577fffffffffffffffffffffffffffffffffffffffffffffffffffffffffffffffff0190556040611da8565b6024837f4e487b710000000000000000000000000000000000000000000000000000000081526011600452fd5b606483604051907f08c379a00000000000000000000000000000000000000000000000000000000082526004820152601d60248201527f4d61726b65743a2072656d6f76616c206e6f7420696e20737570706c790000006044820152fd5b611ec89150612be8565b38611df5565b90508481813d8311611ef8575b611ee58183612460565b81010312611ef4575138611d9e565b8280fd5b503d611edb565b6040513d85823e3d90fd5b50346101cf5760407ffffffffffffffffffffffffffffffffffffffffffffffffffffffffffffffffc3601126101cf57611f4261237c565b3373ffffffffffffffffffffffffffffffffffffffff821603611f6b5761035b906004356127ee565b60846040517f08c379a000000000000000000000000000000000000000000000000000000000815260206004820152602f60248201527f416363657373436f6e74726f6c3a2063616e206f6e6c792072656e6f756e636560448201527f20726f6c657320666f722073656c6600000000000000000000000000000000006064820152fd5b50346101cf57807ffffffffffffffffffffffffffffffffffffffffffffffffffffffffffffffffc3601126101cf57602061013654604051908152f35b50346101cf57807ffffffffffffffffffffffffffffffffffffffffffffffffffffffffffffffffc3601126101cf5760206040517f26a560d834a19637eccba4611bbc09fb32970bb627da0a70f14f83fdc9822cbc8152f35b50346101cf5760407ffffffffffffffffffffffffffffffffffffffffffffffffffffffffffffffffc3601126101cf5761154b60043560976120c561237c565b91808552602090606582526120e0600160408820015461258c565b8086526065825273ffffffffffffffffffffffffffffffffffffffff60408720941693848752825260ff60408720541615612122575b85525260408320612b8e565b808652606582526040862084875282526040862060017fffffffffffffffffffffffffffffffffffffffffffffffffffffffffffffff008254161790553384827f2f8788117e7eff1d82e926ec794901d17c78024a50270940304540a733656f0d89604051a4612116565b50346101cf5760207ffffffffffffffffffffffffffffffffffffffffffffffffffffffffffffffffc3601126101cf5760016040602092600435815260658452200154604051908152f35b50346101cf57807ffffffffffffffffffffffffffffffffffffffffffffffffffffffffffffffffc3601126101cf57602061013454604051908152f35b50346101cf57807ffffffffffffffffffffffffffffffffffffffffffffffffffffffffffffffffc3601126101cf57602061013354604051908152f35b9050346101cb5760207ffffffffffffffffffffffffffffffffffffffffffffffffffffffffffffffffc3601126101cb576004357fffffffff000000000000000000000000000000000000000000000000000000008116809103611ef457602092507f5a05180f000000000000000000000000000000000000000000000000000000008114801561232a575b809181156122ef575b505015158152f35b7f4e2312e0000000000000000000000000000000000000000000000000000000001491508115612322575b5038806122e7565b90503861231a565b507f7965db0b000000000000000000000000000000000000000000000000000000008114806122de57507f01ffc9a70000000000000000000000000000000000000000000000000000000081146122de565b6024359073ffffffffffffffffffffffffffffffffffffffff821682036105ca57565b6004359073ffffffffffffffffffffffffffffffffffffffff821682036105ca57565b6044359073ffffffffffffffffffffffffffffffffffffffff821682036105ca57565b67ffffffffffffffff81116123f957604052565b7f4e487b7100000000000000000000000000000000000000000000000000000000600052604160045260246000fd5b6040810190811067ffffffffffffffff8211176123f957604052565b6080810190811067ffffffffffffffff8211176123f957604052565b90601f7fffffffffffffffffffffffffffffffffffffffffffffffffffffffffffffffe0910116810190811067ffffffffffffffff8211176123f957604052565b67ffffffffffffffff81116123f95760051b60200190565b81601f820112156105ca578035916124d0836124a1565b926124de6040519485612460565b808452602092838086019260051b8201019283116105ca578301905b828210612508575050505090565b813581529083019083016124fa565b81601f820112156105ca5780359067ffffffffffffffff82116123f9576040519261256a60207fffffffffffffffffffffffffffffffffffffffffffffffffffffffffffffffe0601f8601160185612460565b828452602083830101116105ca57816000926020809301838601378301015290565b60009080825260209060658252604092838120338252835260ff8482205416156125b65750505050565b6125bf3361294c565b918451906125cc82612444565b604282528482019260603685378251156108b85760308453825160019081101561088b5790607860218501536041915b8083116126f75750505061269b5760486105669386936126659361265698519889937f416363657373436f6e74726f6c3a206163636f756e74200000000000000000008a860152610730815180928c603789019101612776565b01036028810187520185612460565b519283927f08c379a0000000000000000000000000000000000000000000000000000000008452600484015260248301906127ab565b6064848651907f08c379a000000000000000000000000000000000000000000000000000000000825280600483015260248201527f537472696e67733a20686578206c656e67746820696e73756666696369656e746044820152fd5b909192600f8116601081101561274957907f3031323334353637383961626364656600000000000000000000000000000000612742921a6127388688612910565b5360041c93612921565b91906125fc565b6024847f4e487b710000000000000000000000000000000000000000000000000000000081526032600452fd5b918091926000905b82821061279657501161278f575050565b6000910152565b9150806020918301518186015201829161277e565b907fffffffffffffffffffffffffffffffffffffffffffffffffffffffffffffffe0601f6020936127e781518092818752878088019101612776565b0116010190565b9061283a916000818152606560205260409173ffffffffffffffffffffffffffffffffffffffff83832094169384835260205260ff838320541661283d575b8152609760205220612d40565b50565b80825260656020528282208483526020528282207fffffffffffffffffffffffffffffffffffffffffffffffffffffffffffffff0081541690553384827ff6391f5c32d9c69d2a47ea670b442974b53935d1edc7fd64eb21e047a839171b858751a461282d565b807fffffffffffffffffffffffffffffffffffffffffffffffffffffffffffffffff048211811515166128d5570290565b7f4e487b7100000000000000000000000000000000000000000000000000000000600052601160045260246000fd5b811981116128d5570190565b90815181101561085c570160200190565b80156128d5577fffffffffffffffffffffffffffffffffffffffffffffffffffffffffffffffff0190565b604051906060820182811067ffffffffffffffff8211176123f957604052602a825260208201604036823782511561085c5760309053815160019081101561085c57607860218401536029905b808211612a075750506129a95790565b60646040517f08c379a000000000000000000000000000000000000000000000000000000000815260206004820152602060248201527f537472696e67733a20686578206c656e67746820696e73756666696369656e746044820152fd5b9091600f8116906010821015612a4d577f3031323334353637383961626364656600000000000000000000000000000000612a47921a61084c8587612910565b90612999565b602460007f4e487b710000000000000000000000000000000000000000000000000000000081526032600452fd5b61013a805482101561085c576000527f1cc3277f886bc7650038e458160d07e0113c6dbe808de6ada3226131dc5802510190600090565b805482101561085c5760005260206000200190600090565b9060009180835261013b9283602052604081205415600014612b895761013a9384549468010000000000000000861015612b5c5783612b4c612b15886001604098999a018555612a7b565b819391549060031b7fffffffffffffffffffffffffffffffffffffffffffffffffffffffffffffffff811b9283911b169119161790565b9055549382526020522055600190565b6024837f4e487b710000000000000000000000000000000000000000000000000000000081526041600452fd5b925050565b91906001830160009082825280602052604082205415600014612bd75784549468010000000000000000861015612b5c5783612b4c612b15886001604098999a01855584612ab2565b50925050565b8181106128d5570390565b60009080825261013b90816020526040832054801515600014612d3a5760018110612d0d577fffffffffffffffffffffffffffffffffffffffffffffffffffffffffffffffff908181019061013a91825460018110612ce057840190808203612cad575b50505080548015612c8057820191612c6383612a7b565b909182549160031b1b191690555582526020526040812055600190565b6024867f4e487b710000000000000000000000000000000000000000000000000000000081526031600452fd5b612ccb612cbc612b1593612a7b565b90549060031b1c928392612a7b565b90558652846020526040862055388080612c4c565b6024887f4e487b710000000000000000000000000000000000000000000000000000000081526011600452fd5b6024847f4e487b710000000000000000000000000000000000000000000000000000000081526011600452fd5b50505090565b90600182019060009281845282602052604084205490811515600014612e1c5760018210612def577fffffffffffffffffffffffffffffffffffffffffffffffffffffffffffffffff91828101825460018110612ce057840190808203612dba575b50505080548015612c8057820191612c638383612ab2565b612dda612dca612b159386612ab2565b90549060031b1c92839286612ab2565b90558652846020526040862055388080612da2565b6024857f4e487b710000000000000000000000000000000000000000000000000000000081526011600452fd5b5050505090565b15612e2a57565b60846040517f08c379a000000000000000000000000000000000000000000000000000000000815260206004820152602b60248201527f496e697469616c697a61626c653a20636f6e7472616374206973206e6f74206960448201527f6e697469616c697a696e670000000000000000000000000000000000000000006064820152fd5b7fffffffffffffffffffffffffffffffffffffffffffffffffffffffffffffffff81146128d55760010190565b805182101561085c5760209160051b010190565b90612ef9826124a1565b612f066040519182612460565b8281527fffffffffffffffffffffffffffffffffffffffffffffffffffffffffffffffe0612f3482946124a1565b0190602036910137565b6024602073ffffffffffffffffffffffffffffffffffffffff61012d5416604051928380927f854560a40000000000000000000000000000000000000000000000000000000082523060048301525afa8015612fe157600090612fae575b612fab91506101355490612bdd565b90565b6020823d8211612fd9575b81612fc660209383612460565b810103126101cf5750612fab9051612f9c565b3d9150612fb9565b6040513d6000823e3d90fd5b612ff5612f3e565b80156130c45761013354101561300757565b3360009081527f4968081708883cb3c10665eed84caa9aa14f81fea408671f2a3977c38ac78048602052604090205460ff161561304057565b60846040517f08c379a000000000000000000000000000000000000000000000000000000000815260206004820152602560248201527f4c6f7720737570706c7920616e64206275796572206e6f74206f6e20616c6c6f60448201527f776c6973740000000000000000000000000000000000000000000000000000006064820152fd5b60646040517f08c379a000000000000000000000000000000000000000000000000000000000815260206004820152601460248201527f4d61726b65743a204f7574206f662073746f636b0000000000000000000000006044820152fd5b807fffffffffffffffffffffffffffffffffffffffffffffffffffffffffffffffff04606411811515166128d5576101325480196064116128d55760640190811561316e576064020490565b7f4e487b7100000000000000000000000000000000000000000000000000000000600052601260045260246000fd5b156131a457565b60846040517f08c379a000000000000000000000000000000000000000000000000000000000815260206004820152602c60248201527f4d61726b65743a204661696c656420746f2072656d6f76652072656d6f76616c60448201527f2066726f6d20737570706c7900000000000000000000000000000000000000006064820152fd5b90815180825260208080930193019160005b828110613248575050505090565b83518552938101939281019260010161323a565b60209081818403126105ca5780519067ffffffffffffffff82116105ca57019180601f840112156105ca578251613292816124a1565b936132a06040519586612460565b818552838086019260051b8201019283116105ca578301905b8282106132c7575050505090565b815181529083019083016132b9565b60409073ffffffffffffffffffffffffffffffffffffffff612fab94931681528160208201520190613228565b908160209103126105ca575180151581036105ca5790565b9594929593919361332b85612eef565b9461333581612eef565b93600098895b838110613a18575050505073ffffffffffffffffffffffffffffffffffffffff61012e541660405191602083015260208252604082019282841067ffffffffffffffff8511176139eb579088929184604052813b1561105a57837fffffffffffffffffffffffffffffffffffffffffffffffffffffffffffffffc0869473ffffffffffffffffffffffffffffffffffffffff86947f1f7fdffa0000000000000000000000000000000000000000000000000000000086521660448201526080606482015261345461340f60c483018d613228565b6134447fffffffffffffffffffffffffffffffffffffffffffffffffffffffffffffffbc91828582030160848601528c613228565b908382030160a4840152826127ab565b0301925af18015611a91576139d8575b5073ffffffffffffffffffffffffffffffffffffffff61012d5416926040517f018e1c830000000000000000000000000000000000000000000000000000000081528681806134b78530600484016132d6565b0381885afa908115610bb65787916139be575b508660405180967fb6477cc000000000000000000000000000000000000000000000000000000000825260206004830152818061350a6024820188613228565b03915afa948515610bb65787956139a2575b50865b82518110156138d5576135328185612edb565b5161353d8284612edb565b5114613871575b606461355e6135538387612edb565b5161013254906128a4565b049061356a8186612edb565b51916135768289612edb565b5161371b575b61012f54610131546040517f23b872dd00000000000000000000000000000000000000000000000000000000815233600482015273ffffffffffffffffffffffffffffffffffffffff91821660248201526044810193909352919391602091859116818d81606481015b03925af19081156137105761369b936020926136f3575b5073ffffffffffffffffffffffffffffffffffffffff61012f541673ffffffffffffffffffffffffffffffffffffffff613637858b612edb565b51168c6040518097819582947f23b872dd000000000000000000000000000000000000000000000000000000008452336004850160409194939294606082019573ffffffffffffffffffffffffffffffffffffffff80921683521660208201520152565b03925af19182156136e8576136b4926136b95750612eae565b61351f565b6136da9060203d6020116136e1575b6136d28183612460565b810190613303565b5038610ee4565b503d6136c8565b6040513d8b823e3d90fd5b61370990833d85116136e1576136d28183612460565b50386135fd565b6040513d8c823e3d90fd5b61373c606461373461372d858c612edb565b51866128a4565b048094612bdd565b908a73ffffffffffffffffffffffffffffffffffffffff61013054166137628589612edb565b51813b15611ef45782916044839260405194859384927f1b2ef1ca0000000000000000000000000000000000000000000000000000000084528c600485015260248401525af1801561037857613859575b505061012f54610130546040517f23b872dd00000000000000000000000000000000000000000000000000000000815233600482015273ffffffffffffffffffffffffffffffffffffffff91821660248201526044810196909652602091869116818e816064810103925af1908115611cbd576135e69460209261383c575b509193505061357c565b61385290833d85116136e1576136d28183612460565b5038613832565b613862906123e5565b61386d578a386137b3565b8a80fd5b61013454600181106138a8577fffffffffffffffffffffffffffffffffffffffffffffffffffffffffffffffff0161013455613544565b6024897f4e487b710000000000000000000000000000000000000000000000000000000081526011600452fd5b50509150915092919273ffffffffffffffffffffffffffffffffffffffff61012d541690813b1561105a5791839161394f8361397f95604051968795869485937f6b20c454000000000000000000000000000000000000000000000000000000008552306004860152606060248601526064850190613228565b907ffffffffffffffffffffffffffffffffffffffffffffffffffffffffffffffffc848303016044850152613228565b03925af1801561037857613991575050565b61399b82916123e5565b6101cf5750565b6139b79195503d8089833e611cae8183612460565b933861351c565b6139d291503d8089833e611cae8183612460565b386134ca565b6139e4909591956123e5565b9338613464565b6024897f4e487b710000000000000000000000000000000000000000000000000000000081526041600452fd5b80613a26613a479284612edb565b51613a31828c612edb565b52613a3c8185612edb565b516103a8828a612edb565b61333b565b610137805473ffffffffffffffffffffffffffffffffffffffff9290831680613b2157508216917fffffffffffffffffffffffff0000000000000000000000000000000000000000918383825416179055604051604081019080821067ffffffffffffffff8311176123f95760019160405284815260208101948086526000526101386020528260406000209151168482541617815501925116908254161790555b61013680547ffffffffffffffffffffffffffffffffffffffffffffffffffffffffffffffffe81116128d5576001019055565b909260009082825261013893846020526040938280868620541697865198613b488a612428565b895260208901928352169586855260205282600181878720995116987fffffffffffffffffffffffff0000000000000000000000000000000000000000998a825416178155019151168782541617905581815416835281848420541683526001848420018587825416179055541681522091825416179055613aee565b73ffffffffffffffffffffffffffffffffffffffff8091169060009180835261013880602052600192838160408183828a200154168614600014613ce4576101377fffffffffffffffffffffffff000000000000000000000000000000000000000081541690555b805194613c3986612428565b888652602086019689885289526020528720935116927fffffffffffffffffffffffff000000000000000000000000000000000000000093848254161781550192511690825416179055610136918254918210613cb757507fffffffffffffffffffffffffffffffffffffffffffffffffffffffffffffffff019055565b807f4e487b7100000000000000000000000000000000000000000000000000000000602492526011600452fd5b8183828a2001541682828a205416895283828a20017fffffffffffffffffffffffff0000000000000000000000000000000000000000918282541617905586895282828a2054168385848c200154168a52828a20918254161790558161013754168603613c2d57613da661013780547fffffffffffffffffffffffff000000000000000000000000000000000000000073ffffffffffffffffffffffffffffffffffffffff808316600052610138602052600160406000200154169116179055565b613c2d565b90612fab9161ffff8260e01c16806002830180548015600014613de15750816001850155555b6000526020526040600020612b8e565b90600185019182548410600014613dfa57505055613dd1565b9091508211613e0b575b5050613dd1565b558038613e04565b9061ffff8160e01c1690600092828452602091818352613e37604091828720612d40565b15613fa4578385528183528085205415613e56575b5050505050600190565b6001918281019384546002830196875491828114600014613ea757505050505050507fffffffffffffffffffffffffffffffffffffffffffffffffffffffffffffffff9055555b3880808080613e4c565b8199969998939495979814600014613f3957505085547ffffffffffffffffffffffffffffffffffffffffffffffffffffffffffffffffe8111612def578701875b613efa575b5050505050505050613e9d565b81548111613f345780855283835285852054613f1f57613f1990612eae565b87613ee8565b96505050505050553880808080808080613eed565b613eed565b9196918114613f4f575050505050505050613e9d565b878110612def577fffffffffffffffffffffffffffffffffffffffffffffffffffffffffffffffff01875b15613eed5781548110613f345780855283835285852054613f1f57613f9e90612921565b87613f7a565b8260849151907f08c379a00000000000000000000000000000000000000000000000000000000082526004820152602860248201527f4d61726b65743a206661696c656420746f2072656d6f766520636f727265637460448201527f2072656d6f76616c0000000000000000000000000000000000000000000000006064820152fd5b60018101549060009182526020526040812080541561088b57815260209020549056fea264697066735822122010426625fe09a3b0e9222d81420941feee0978a266d46331d907666de9e97d7964736f6c634300080f0033",
  "linkReferences": {},
  "deployedLinkReferences": {}
}