{
  "_format": "hh-sol-artifact-1",
  "contractName": "FIFOMarket",
  "sourceName": "contracts/FIFOMarket.sol",
  "abi": [
    {
      "inputs": [],
      "stateMutability": "nonpayable",
      "type": "constructor"
    },
    {
      "anonymous": false,
      "inputs": [
        {
          "indexed": false,
          "internalType": "uint8",
          "name": "version",
          "type": "uint8"
        }
      ],
      "name": "Initialized",
      "type": "event"
    },
    {
      "anonymous": false,
      "inputs": [
        {
          "indexed": false,
          "internalType": "uint256",
          "name": "threshold",
          "type": "uint256"
        }
      ],
      "name": "PriorityRestrictedThresholdSet",
      "type": "event"
    },
    {
      "anonymous": false,
      "inputs": [
        {
          "indexed": true,
          "internalType": "bytes32",
          "name": "role",
          "type": "bytes32"
        },
        {
          "indexed": true,
          "internalType": "bytes32",
          "name": "previousAdminRole",
          "type": "bytes32"
        },
        {
          "indexed": true,
          "internalType": "bytes32",
          "name": "newAdminRole",
          "type": "bytes32"
        }
      ],
      "name": "RoleAdminChanged",
      "type": "event"
    },
    {
      "anonymous": false,
      "inputs": [
        {
          "indexed": true,
          "internalType": "bytes32",
          "name": "role",
          "type": "bytes32"
        },
        {
          "indexed": true,
          "internalType": "address",
          "name": "account",
          "type": "address"
        },
        {
          "indexed": true,
          "internalType": "address",
          "name": "sender",
          "type": "address"
        }
      ],
      "name": "RoleGranted",
      "type": "event"
    },
    {
      "anonymous": false,
      "inputs": [
        {
          "indexed": true,
          "internalType": "bytes32",
          "name": "role",
          "type": "bytes32"
        },
        {
          "indexed": true,
          "internalType": "address",
          "name": "account",
          "type": "address"
        },
        {
          "indexed": true,
          "internalType": "address",
          "name": "sender",
          "type": "address"
        }
      ],
      "name": "RoleRevoked",
      "type": "event"
    },
    {
      "inputs": [],
      "name": "ALLOWLIST_ROLE",
      "outputs": [
        {
          "internalType": "bytes32",
          "name": "",
          "type": "bytes32"
        }
      ],
      "stateMutability": "view",
      "type": "function"
    },
    {
      "inputs": [],
      "name": "DEFAULT_ADMIN_ROLE",
      "outputs": [
        {
          "internalType": "bytes32",
          "name": "",
          "type": "bytes32"
        }
      ],
      "stateMutability": "view",
      "type": "function"
    },
    {
      "inputs": [],
      "name": "activeSupplierCount",
      "outputs": [
        {
          "internalType": "uint256",
          "name": "",
          "type": "uint256"
        }
      ],
      "stateMutability": "view",
      "type": "function"
    },
    {
      "inputs": [
        {
          "internalType": "bytes32",
          "name": "role",
          "type": "bytes32"
        }
      ],
      "name": "getRoleAdmin",
      "outputs": [
        {
          "internalType": "bytes32",
          "name": "",
          "type": "bytes32"
        }
      ],
      "stateMutability": "view",
      "type": "function"
    },
    {
      "inputs": [
        {
          "internalType": "bytes32",
          "name": "role",
          "type": "bytes32"
        },
        {
          "internalType": "uint256",
          "name": "index",
          "type": "uint256"
        }
      ],
      "name": "getRoleMember",
      "outputs": [
        {
          "internalType": "address",
          "name": "",
          "type": "address"
        }
      ],
      "stateMutability": "view",
      "type": "function"
    },
    {
      "inputs": [
        {
          "internalType": "bytes32",
          "name": "role",
          "type": "bytes32"
        }
      ],
      "name": "getRoleMemberCount",
      "outputs": [
        {
          "internalType": "uint256",
          "name": "",
          "type": "uint256"
        }
      ],
      "stateMutability": "view",
      "type": "function"
    },
    {
      "inputs": [
        {
          "internalType": "bytes32",
          "name": "role",
          "type": "bytes32"
        },
        {
          "internalType": "address",
          "name": "account",
          "type": "address"
        }
      ],
      "name": "grantRole",
      "outputs": [],
      "stateMutability": "nonpayable",
      "type": "function"
    },
    {
      "inputs": [
        {
          "internalType": "bytes32",
          "name": "role",
          "type": "bytes32"
        },
        {
          "internalType": "address",
          "name": "account",
          "type": "address"
        }
      ],
      "name": "hasRole",
      "outputs": [
        {
          "internalType": "bool",
          "name": "",
          "type": "bool"
        }
      ],
      "stateMutability": "view",
      "type": "function"
    },
    {
      "inputs": [
        {
          "internalType": "address",
          "name": "removalAddress",
          "type": "address"
        },
        {
          "internalType": "address",
          "name": "bridgedPolygonNoriAddress",
          "type": "address"
        },
        {
          "internalType": "address",
          "name": "certificateAddress",
          "type": "address"
        },
        {
          "internalType": "address",
          "name": "restrictedNoriAddress",
          "type": "address"
        },
        {
          "internalType": "address",
          "name": "noriFeeWalletAddress",
          "type": "address"
        },
        {
          "internalType": "uint256",
          "name": "noriFee",
          "type": "uint256"
        }
      ],
      "name": "initialize",
      "outputs": [],
      "stateMutability": "nonpayable",
      "type": "function"
    },
    {
      "inputs": [],
      "name": "numberOfActiveNrtsInMarketComputed",
      "outputs": [
        {
          "internalType": "uint256",
          "name": "",
          "type": "uint256"
        }
      ],
      "stateMutability": "view",
      "type": "function"
    },
    {
      "inputs": [
        {
          "internalType": "address",
          "name": "",
          "type": "address"
        },
        {
          "internalType": "address",
          "name": "",
          "type": "address"
        },
        {
          "internalType": "uint256[]",
          "name": "ids",
          "type": "uint256[]"
        },
        {
          "internalType": "uint256[]",
          "name": "",
          "type": "uint256[]"
        },
        {
          "internalType": "bytes",
          "name": "data",
          "type": "bytes"
        }
      ],
      "name": "onERC1155BatchReceived",
      "outputs": [
        {
          "internalType": "bytes4",
          "name": "",
          "type": "bytes4"
        }
      ],
      "stateMutability": "nonpayable",
      "type": "function"
    },
    {
      "inputs": [
        {
          "internalType": "address",
          "name": "",
          "type": "address"
        },
        {
          "internalType": "address",
          "name": "",
          "type": "address"
        },
        {
          "internalType": "uint256",
          "name": "",
          "type": "uint256"
        },
        {
          "internalType": "uint256",
          "name": "",
          "type": "uint256"
        },
        {
          "internalType": "bytes",
          "name": "",
          "type": "bytes"
        }
      ],
      "name": "onERC1155Received",
      "outputs": [
        {
          "internalType": "bytes4",
          "name": "",
          "type": "bytes4"
        }
      ],
      "stateMutability": "nonpayable",
      "type": "function"
    },
    {
      "inputs": [],
      "name": "priorityRestrictedThreshold",
      "outputs": [
        {
          "internalType": "uint256",
          "name": "",
          "type": "uint256"
        }
      ],
      "stateMutability": "view",
      "type": "function"
    },
    {
      "inputs": [
        {
          "internalType": "bytes32",
          "name": "role",
          "type": "bytes32"
        },
        {
          "internalType": "address",
          "name": "account",
          "type": "address"
        }
      ],
      "name": "renounceRole",
      "outputs": [],
      "stateMutability": "nonpayable",
      "type": "function"
    },
    {
      "inputs": [
        {
          "internalType": "uint256",
          "name": "removalId",
          "type": "uint256"
        }
      ],
      "name": "reserveRemoval",
      "outputs": [
        {
          "internalType": "bool",
          "name": "",
          "type": "bool"
        }
      ],
      "stateMutability": "nonpayable",
      "type": "function"
    },
    {
      "inputs": [
        {
          "internalType": "bytes32",
          "name": "role",
          "type": "bytes32"
        },
        {
          "internalType": "address",
          "name": "account",
          "type": "address"
        }
      ],
      "name": "revokeRole",
      "outputs": [],
      "stateMutability": "nonpayable",
      "type": "function"
    },
    {
      "inputs": [
        {
          "internalType": "uint256",
          "name": "threshold",
          "type": "uint256"
        }
      ],
      "name": "setPriorityRestrictedThreshold",
      "outputs": [],
      "stateMutability": "nonpayable",
      "type": "function"
    },
    {
      "inputs": [
        {
          "internalType": "bytes4",
          "name": "interfaceId",
          "type": "bytes4"
        }
      ],
      "name": "supportsInterface",
      "outputs": [
        {
          "internalType": "bool",
          "name": "",
          "type": "bool"
        }
      ],
      "stateMutability": "view",
      "type": "function"
    },
    {
      "inputs": [
        {
          "internalType": "address",
          "name": "recipient",
          "type": "address"
        },
        {
          "internalType": "uint256",
          "name": "amount",
          "type": "uint256"
        },
        {
          "internalType": "uint256",
          "name": "deadline",
          "type": "uint256"
        },
        {
          "internalType": "uint8",
          "name": "v",
          "type": "uint8"
        },
        {
          "internalType": "bytes32",
          "name": "r",
          "type": "bytes32"
        },
        {
          "internalType": "bytes32",
          "name": "s",
          "type": "bytes32"
        }
      ],
      "name": "swap",
      "outputs": [],
      "stateMutability": "nonpayable",
      "type": "function"
    },
    {
      "inputs": [],
      "name": "totalActiveSupply",
      "outputs": [
        {
          "internalType": "uint256",
          "name": "",
          "type": "uint256"
        }
      ],
      "stateMutability": "view",
      "type": "function"
    },
    {
      "inputs": [],
      "name": "totalNumberActiveRemovals",
      "outputs": [
        {
          "internalType": "uint256",
          "name": "",
          "type": "uint256"
        }
      ],
      "stateMutability": "view",
      "type": "function"
    },
    {
      "inputs": [],
      "name": "totalReservedSupply",
      "outputs": [
        {
          "internalType": "uint256",
          "name": "",
          "type": "uint256"
        }
      ],
      "stateMutability": "view",
      "type": "function"
    },
    {
      "inputs": [],
      "name": "totalUnrestrictedSupply",
      "outputs": [
        {
          "internalType": "uint256",
          "name": "",
          "type": "uint256"
        }
      ],
      "stateMutability": "view",
      "type": "function"
    },
    {
      "inputs": [
        {
          "internalType": "uint256",
          "name": "removalId",
          "type": "uint256"
        }
      ],
      "name": "unreserveRemoval",
      "outputs": [
        {
          "internalType": "bool",
          "name": "",
          "type": "bool"
        }
      ],
      "stateMutability": "nonpayable",
      "type": "function"
    }
  ],
  "bytecode": "0x60808060405234620000c6576000549060ff8260081c1662000074575060ff8082161062000038575b604051613b039081620000cc8239f35b60ff90811916176000557f7f26b83ff96e1f2b6a682f133852f6798a09c465da95921460cefb3847402498602060405160ff8152a13862000028565b62461bcd60e51b815260206004820152602760248201527f496e697469616c697a61626c653a20636f6e747261637420697320696e697469604482015266616c697a696e6760c81b6064820152608490fd5b600080fdfe608080604052600436101561001357600080fd5b600090813560e01c90816301ffc9a7146127985750806312de2b051461275b578063179f04451461271e578063248a9ca3146126d35780632f2ff15d146125cb5780633030b53214612572578063361b7b9d1461253557806336568abe146124505780633eb12cee1461227f57806359e1a71c14612027578063674d13c814611fea5780637206926414611fad5780637530b45014611f6c5780639010d07c14611efc57806391d1485414611e8957806395b6ef0c14611aac57806397a11ee9146117f4578063a217fddf146117ba578063bc197c811461146c578063ca15c87314611424578063ce0ec474146104fd578063d547741f1461049c578063d797462f146101bc5763f23a6e611461012957600080fd5b346101b95760a07ffffffffffffffffffffffffffffffffffffffffffffffffffffffffffffffffc3601126101b9576101606128ea565b506101696128c2565b5060843567ffffffffffffffff81116101b55761018a903690600401612a10565b5060206040517ff23a6e61000000000000000000000000000000000000000000000000000000008152f35b5080fd5b80fd5b50346101b9576020807ffffffffffffffffffffffffffffffffffffffffffffffffffffffffffffffffc3601126101b5576004356000805260658252604060002033600052825260ff60406000205416156102455790817f7ab6aa6547859e9ca74d567d44fefa0d63272ac019f4ebf9333032a62ea06fa59261013355604051908152a1604051f35b5061024f33612e45565b90600060405161025e8161293d565b6042815282810191606036843781511561046f5760308353815160019081101561044257607860218401536041905b8082116103c35750506103665761031893610327926048926040519687937f416363657373436f6e74726f6c3a206163636f756e7420000000000000000000888601526102e3815180928a603789019101612c6f565b8401917f206973206d697373696e6720726f6c6520000000000000000000000000000000603784015251809386840190612c6f565b01036028810185520183612959565b6103626040519283927f08c379a000000000000000000000000000000000000000000000000000000000845260048401526024830190612ca4565b0390fd5b606483604051907f08c379a000000000000000000000000000000000000000000000000000000000825280600483015260248201527f537472696e67733a20686578206c656e67746820696e73756666696369656e746044820152fd5b9091600f8116906010821015610413577f303132333435363738396162636465660000000000000000000000000000000061040d921a6104038587612e09565b5360041c92612e1a565b9061028d565b7f4e487b7100000000000000000000000000000000000000000000000000000000600052603260045260246000fd5b6024827f4e487b710000000000000000000000000000000000000000000000000000000081526032600452fd5b807f4e487b7100000000000000000000000000000000000000000000000000000000602492526032600452fd5b50346101b95760407ffffffffffffffffffffffffffffffffffffffffffffffffffffffffffffffffc3601126101b9576104f86004356104da6128c2565b9080845260656020526104f36001604086200154612a85565b612ce7565b604051f35b50346101b95760c07ffffffffffffffffffffffffffffffffffffffffffffffffffffffffffffffffc3601126101b9576105356128ea565b60643560ff81168103610d64576101355480156113c657610133541015611304575b6024357fffffffffffffffffffffffffffffffffffffffffffffffffffffffffffffffff046064116024351515166112d7576101325480196064116112aa57606401801561127d576064602493929335020490819061013454906105ba8261348b565b926105c48361348b565b947fffffffffffffffffffffffffffffffffffffffffffffffffffffffffffffffe06106086105f28661299a565b956106006040519788612959565b80875261299a565b01366020860137879688915b610134548084101561126d5773ffffffffffffffffffffffffffffffffffffffff6101385416808c5261013a60205260408c2060018101548d5260205260408c20805415611240578c526020808d205461012d546040517efdd58e0000000000000000000000000000000000000000000000000000000081523060048201526024810183905291948f939092918290604490829073ffffffffffffffffffffffffffffffffffffffff165afa92831561123457926111fc575b5081851015610f7f575050506106e38a89613477565b526106ee8989613477565b5273ffffffffffffffffffffffffffffffffffffffff61013854166107138987613477565b5261071f89985b61334d565b9188156107365761072f9061334d565b9197610614565b5090919293949596505b8773ffffffffffffffffffffffffffffffffffffffff61012f541691823b156101b55760e460ff918360405195869485937fd505accf0000000000000000000000000000000000000000000000000000000085523360048601523060248601526024356044860152604435606486015216608484015260843560a484015260a43560c48401525af18015610bc757610f6c575b506107dd8161348b565b956107e78261348b565b95885b838110610f32575050505073ffffffffffffffffffffffffffffffffffffffff61012e5416916040519160208301526020825281604081011067ffffffffffffffff604084011117610f0357869260408301604052803b15610eff5773ffffffffffffffffffffffffffffffffffffffff84927f1f7fdffa0000000000000000000000000000000000000000000000000000000060408601521660448401526080606484015261089d60c4840188613416565b906108d37fffffffffffffffffffffffffffffffffffffffffffffffffffffffffffffffbc928386820301608487015288613416565b918483030160a48501527fffffffffffffffffffffffffffffffffffffffffffffffffffffffffffffffc08461090d604082019482612ca4565b0301908360408601915af18015610d5957610ee8575b505073ffffffffffffffffffffffffffffffffffffffff61012d541691604051937f018e1c8300000000000000000000000000000000000000000000000000000000855285858061097884306004840161344a565b0381875afa948515610ec1578695610ecc575b508560405180957fb6477cc00000000000000000000000000000000000000000000000000000000082526020600483015281806109cb6024820187613416565b03915afa938415610ec1578694610e9d575b50855b868251821015610dcc57506109f58184613477565b51610a008288613477565b5114610d68575b610a1e610a148285613477565b51610135546130d6565b610135556064610a3c610a318386613477565b516101325490612d9d565b0490610a488185613477565b5191610a548288613477565b51610bfa575b61012f54610131546040517f23b872dd00000000000000000000000000000000000000000000000000000000815233600482015273ffffffffffffffffffffffffffffffffffffffff91821660248201526044810193909352919391602091859116818c81606481015b03925af1908115610bef57610b7993602092610bd2575b5073ffffffffffffffffffffffffffffffffffffffff61012f541673ffffffffffffffffffffffffffffffffffffffff610b15858a613477565b51168b6040518097819582947f23b872dd000000000000000000000000000000000000000000000000000000008452336004850160409194939294606082019573ffffffffffffffffffffffffffffffffffffffff80921683521660208201520152565b03925af1918215610bc757610b9392610b98575b5061334d565b6109e0565b610bb99060203d602011610bc0575b610bb18183612959565b8101906134da565b5038610b8d565b503d610ba7565b6040513d8a823e3d90fd5b610be890833d8511610bc057610bb18183612959565b5038610adb565b6040513d8b823e3d90fd5b610c1b6064610c13610c0c858b613477565b5186612d9d565b0480946130d6565b908973ffffffffffffffffffffffffffffffffffffffff6101305416610c418588613477565b51813b15610d645782916044839260405194859384927f1b2ef1ca0000000000000000000000000000000000000000000000000000000084528c600485015260248401525af18015610d5957610d41575b505061012f54610130546040517f23b872dd00000000000000000000000000000000000000000000000000000000815233600482015273ffffffffffffffffffffffffffffffffffffffff91821660248201526044810196909652602091869160649183918f91165af1908115610d3657610ac494602092610d19575b5091935050610a5a565b610d2f90833d8511610bc057610bb18183612959565b5038610d0f565b6040513d8c823e3d90fd5b610d4a9061290d565b610d55578938610c92565b8980fd5b6040513d84823e3d90fd5b8280fd5b6101345460018110610d9f577fffffffffffffffffffffffffffffffffffffffffffffffffffffffffffffffff0161013455610a07565b6024887f4e487b710000000000000000000000000000000000000000000000000000000081526011600452fd5b80848473ffffffffffffffffffffffffffffffffffffffff61012d541691823b15610e9857610e6f92610e3f858094604051968795869485937f6b20c454000000000000000000000000000000000000000000000000000000008552306004860152606060248601526064850190613416565b907ffffffffffffffffffffffffffffffffffffffffffffffffffffffffffffffffc848303016044850152613416565b03925af18015610d5957610e84575b50604051f35b610e8d9061290d565b6101b9578082610e7e565b505050fd5b610eba9194503d8088833e610eb28183612959565b81019061339c565b92386109dd565b6040513d88823e3d90fd5b610ee19195503d8088833e610eb28183612959565b933861098b565b6040610ef4910161290d565b610eff578338610923565b8380fd5b7f4e487b7100000000000000000000000000000000000000000000000000000000600052604160045260246000fd5b80610f40610f679284613477565b51610f4b828c613477565b52610f568185613477565b51610f61828b613477565b5261334d565b6107ea565b610f789097919761290d565b95386107d3565b6001819d959294939d106111cf577fffffffffffffffffffffffffffffffffffffffffffffffffffffffffffffffff018614806111c6575b6111685782610fed91610fff94610fdb878f8f610fd5838a92613477565b52613477565b528d610fe7878d613477565b526130d6565b9a8c5261013a60205260408c206138b9565b156110e45761071f9073ffffffffffffffffffffffffffffffffffffffff6101385416808c5261013a6020528b60026040822001541560001461106057505061071a73ffffffffffffffffffffffffffffffffffffffff610138541661366b565b610139602052604090206001015473ffffffffffffffffffffffffffffffffffffffff161461071a5761071a61013880547fffffffffffffffffffffffff000000000000000000000000000000000000000073ffffffffffffffffffffffffffffffffffffffff808316600052610139602052600160406000200154169116179055565b60846040517f08c379a000000000000000000000000000000000000000000000000000000000815260206004820152602c60248201527f4d61726b65743a204661696c656420746f2072656d6f76652072656d6f76616c60448201527f2066726f6d20737570706c7900000000000000000000000000000000000000006064820152fd5b60646040517f08c379a000000000000000000000000000000000000000000000000000000000815260206004820152601960248201527f4d61726b65743a204e6f7420656e6f75676820737570706c79000000000000006044820152fd5b50828111610fb7565b60248e7f4e487b710000000000000000000000000000000000000000000000000000000081526011600452fd5b9091506020813d60201161122c575b8161121860209383612959565b81010312611228575190386106cd565b8d80fd5b3d915061120b565b604051903d90823e3d90fd5b60248d7f4e487b710000000000000000000000000000000000000000000000000000000081526032600452fd5b5050905095909192939495610740565b6024847f4e487b710000000000000000000000000000000000000000000000000000000081526012600452fd5b6024847f4e487b710000000000000000000000000000000000000000000000000000000081526011600452fd5b6024837f4e487b710000000000000000000000000000000000000000000000000000000081526011600452fd5b7f26a560d834a19637eccba4611bbc09fb32970bb627da0a70f14f83fdc9822cbc835260656020526040832033845260205260ff6040842054166105575760846040517f08c379a000000000000000000000000000000000000000000000000000000000815260206004820152602560248201527f4c6f7720737570706c7920616e64206275796572206e6f74206f6e20616c6c6f60448201527f776c6973740000000000000000000000000000000000000000000000000000006064820152fd5b60646040517f08c379a000000000000000000000000000000000000000000000000000000000815260206004820152601460248201527f4d61726b65743a204f7574206f662073746f636b0000000000000000000000006044820152fd5b50346101b95760207ffffffffffffffffffffffffffffffffffffffffffffffffffffffffffffffffc3601126101b95760406020916004358152609783522054604051908152f35b50346101b95760a07ffffffffffffffffffffffffffffffffffffffffffffffffffffffffffffffffc3601126101b9576114a46128ea565b506114ad6128c2565b5067ffffffffffffffff60448035828111610eff576114d09036906004016129b2565b606480358481116117b6576114e99036906004016129b2565b5060849384359081116117b657611504903690600401612a10565b9373ffffffffffffffffffffffffffffffffffffffff938461012d5416908760405180937f018e1c83000000000000000000000000000000000000000000000000000000008252818061155b8a306004840161344a565b03915afa918215610bc757889261179a575b50879485939084805b82518910156116d757888a6115b261158e8387613477565b5160406115a260209483861c16958c613477565b519685815261013a855220613851565b156116565791818c8f6101396115de966040989683525260019687912001541615611647575b50612dfd565b957ffffffffffffffffffffffffffffffffffffffffffffffffffffffffffffffffe811161161a578b9161161391019861334d565b9795611576565b60248c7f4e487b710000000000000000000000000000000000000000000000000000000081526011600452fd5b611650906134f2565b386115d8565b85907f2076696e746167650000000000000000000000000000000000000000000000008b7f4d61726b65743a20556e61626c6520746f206164642072656d6f76616c2062798a604051947f08c379a0000000000000000000000000000000000000000000000000000000008652600486015260286024860152840152820152fd5b898b8884936116ea610135918254612dfd565b90556116fa610134918254612dfd565b90556020818051810103126117965760200151906101305416803b15611796576024839260405195869384927ff6f57a2e00000000000000000000000000000000000000000000000000000000845260048401525af19081156112345750611787575b60206040517fbc197c81000000000000000000000000000000000000000000000000000000008152f35b6117909061290d565b8061175d565b5050fd5b6117af9192503d808a833e610eb28183612959565b903861156d565b8580fd5b50346101b957807ffffffffffffffffffffffffffffffffffffffffffffffffffffffffffffffffc3601126101b957602090604051908152f35b50346101b9576020807ffffffffffffffffffffffffffffffffffffffffffffffffffffffffffffffffc3601126101b55760043573ffffffffffffffffffffffffffffffffffffffff8082841c169061184c836130e1565b15611a285761013480547ffffffffffffffffffffffffffffffffffffffffffffffffffffffffffffffffe81116119fb57600101905561012d546040517efdd58e0000000000000000000000000000000000000000000000000000000081523060048201526024810185905291859183916044918391165afa9081156119f05785916119be575b509360409161191e94956101356118eb828254612dfd565b90556118fb6101369182546130d6565b905580825261013a9081875260028484200154156119b0575b8252855220613851565b1561192c5760405160018152f35b608490604051907f08c379a00000000000000000000000000000000000000000000000000000000082526004820152602360248201527f4d61726b65743a20556e61626c6520746f20756e726573657276652072656d6f60448201527f76616c00000000000000000000000000000000000000000000000000000000006064820152fd5b6119b9816134f2565b611914565b90508381813d83116119e9575b6119d58183612959565b810103126119e5575160406118d3565b8480fd5b503d6119cb565b6040513d87823e3d90fd5b6024877f4e487b710000000000000000000000000000000000000000000000000000000081526011600452fd5b608484604051907f08c379a00000000000000000000000000000000000000000000000000000000082526004820152602660248201527f4d61726b65743a2072656d6f76616c206e6f7420696e2072657365727665642060448201527f737570706c7900000000000000000000000000000000000000000000000000006064820152fd5b50346101b95760c07ffffffffffffffffffffffffffffffffffffffffffffffffffffffffffffffffc3601126101b957611ae46128ea565b611aec6128c2565b906044359173ffffffffffffffffffffffffffffffffffffffff918284168094036119e5576064358381168091036117b65760843590848216809203611e855786549560ff94858860081c161596878098611e79575b8015611e63575b15611ddf577fffffffffffffffffffffffffffffffffffffffffffffffffffffffffffffff00988860018b8316178c55611db1575b50611bb2878b5460081c16611b92816132c2565b611b9b816132c2565b611ba4816132c2565b611bad816132c2565b6132c2565b7fffffffffffffffffffffffff0000000000000000000000000000000000000000958161012d91168782541617905561012f91168582541617905561012e90848254161790556101309083825416179055610131908282541617905560a435610132558461013355846101355584610136558461013455610138908154169055838052602092606584526040852033865284528160408620541615611d66575b84805260978452611c663360408720613087565b507f26a560d834a19637eccba4611bbc09fb32970bb627da0a70f14f83fdc9822cbc918286526065855260408620338752855260408620541615611d1a575b50835260978252611cb93360408520613087565b50611cc45750604051f35b7f7f26b83ff96e1f2b6a682f133852f6798a09c465da95921460cefb3847402498907fffffffffffffffffffffffffffffffffffffffffffffffffffffffffffff00ff835416835560405160018152a138610e7e565b81855260658452604085203386528452600160408620918254161790553333827f2f8788117e7eff1d82e926ec794901d17c78024a50270940304540a733656f0d87604051a438611ca5565b84805260658452604085203386528452604085206001828254161790553333867f2f8788117e7eff1d82e926ec794901d17c78024a50270940304540a733656f0d81604051a4611c52565b7fffffffffffffffffffffffffffffffffffffffffffffffffffffffffffff000016610101178a5538611b7e565b60846040517f08c379a000000000000000000000000000000000000000000000000000000000815260206004820152602e60248201527f496e697469616c697a61626c653a20636f6e747261637420697320616c72656160448201527f647920696e697469616c697a65640000000000000000000000000000000000006064820152fd5b50303b158015611b4957506001878a1614611b49565b506001878a1610611b42565b8680fd5b50346101b95760407ffffffffffffffffffffffffffffffffffffffffffffffffffffffffffffffffc3601126101b95760ff6040602092611ec86128c2565b60043582526065855273ffffffffffffffffffffffffffffffffffffffff8383209116825284522054166040519015158152f35b50346101b95760407ffffffffffffffffffffffffffffffffffffffffffffffffffffffffffffffffc3601126101b95773ffffffffffffffffffffffffffffffffffffffff611f5c60209260043581526097845260406024359120612fab565b9190546040519260031b1c168152f35b50346101b957807ffffffffffffffffffffffffffffffffffffffffffffffffffffffffffffffffc3601126101b9576020611fa561337a565b604051908152f35b50346101b957807ffffffffffffffffffffffffffffffffffffffffffffffffffffffffffffffffc3601126101b957602061013554604051908152f35b50346101b957807ffffffffffffffffffffffffffffffffffffffffffffffffffffffffffffffffc3601126101b957602061013654604051908152f35b50346101b9576020807ffffffffffffffffffffffffffffffffffffffffffffffffffffffffffffffffc3601126101b55760043573ffffffffffffffffffffffffffffffffffffffff8082841c169081855261013a9081855261208d84604088206138b9565b156121fc5761012d546040517efdd58e0000000000000000000000000000000000000000000000000000000081523060048201526024810186905291869183916044918391165afa908115610ec15786916121cf575b506101356120f28282546130d6565b9055612102610136918254612dfd565b90556101348054600181106119fb57956002926040927fffffffffffffffffffffffffffffffffffffffffffffffffffffffffffffffff61215598990190558482528752200154156121c0575b50612fc3565b156121635760405160018152f35b606490604051907f08c379a000000000000000000000000000000000000000000000000000000000825280600483015260248201527f4d61726b65743a2052656d6f76616c20616c72656164792072657365727665646044820152fd5b6121c99061366b565b3861214f565b90508481813d83116121f5575b6121e68183612959565b810103126117b65751386120e3565b503d6121dc565b608485604051907f08c379a000000000000000000000000000000000000000000000000000000000825260048201526024808201527f4d61726b65743a2072656d6f76616c206e6f7420696e2061637469766520737560448201527f70706c79000000000000000000000000000000000000000000000000000000006064820152fd5b50346101b957807ffffffffffffffffffffffffffffffffffffffffffffffffffffffffffffffffc3601126101b9578073ffffffffffffffffffffffffffffffffffffffff80610138541691809261013754938361012d5416915b8582106122ec57602087604051908152f35b84169586845260209061013a8252604085209085916001810154906002810154915b8281111561234457505050610139929161232791612dfd565b9785525261233e846001604086200154169161334d565b906122da565b8089528186526040892054896123598261348b565b815b858a85831061242057505050906123a19291604051809481927f018e1c83000000000000000000000000000000000000000000000000000000008352306004840161344a565b03818d5afa918215612415578b926123f9575b50908a915b8083106123d1575050506123cc9061334d565b61230e565b9091966123ec6123f2916123e58a86613477565b5190612dfd565b9761334d565b91906123b9565b61240e9192503d808d833e610eb28183612959565b90386123b4565b6040513d8d823e3d90fd5b6040856124379385938a6124489899525220612fab565b90549060031b1c610f618285613477565b908b9161235b565b50346101b95760407ffffffffffffffffffffffffffffffffffffffffffffffffffffffffffffffffc3601126101b9576124886128c2565b3373ffffffffffffffffffffffffffffffffffffffff8216036124b1576104f890600435612ce7565b60846040517f08c379a000000000000000000000000000000000000000000000000000000000815260206004820152602f60248201527f416363657373436f6e74726f6c3a2063616e206f6e6c792072656e6f756e636560448201527f20726f6c657320666f722073656c6600000000000000000000000000000000006064820152fd5b50346101b957807ffffffffffffffffffffffffffffffffffffffffffffffffffffffffffffffffc3601126101b957602061013754604051908152f35b50346101b957807ffffffffffffffffffffffffffffffffffffffffffffffffffffffffffffffffc3601126101b95760206040517f26a560d834a19637eccba4611bbc09fb32970bb627da0a70f14f83fdc9822cbc8152f35b50346101b95760407ffffffffffffffffffffffffffffffffffffffffffffffffffffffffffffffffc3601126101b957610e7e600435609761260b6128c2565b91808552602090606582526126266001604088200154612a85565b8086526065825273ffffffffffffffffffffffffffffffffffffffff60408720941693848752825260ff60408720541615612668575b85525260408320613087565b808652606582526040862084875282526040862060017fffffffffffffffffffffffffffffffffffffffffffffffffffffffffffffff008254161790553384827f2f8788117e7eff1d82e926ec794901d17c78024a50270940304540a733656f0d89604051a461265c565b50346101b95760207ffffffffffffffffffffffffffffffffffffffffffffffffffffffffffffffffc3601126101b95760016040602092600435815260658452200154604051908152f35b50346101b957807ffffffffffffffffffffffffffffffffffffffffffffffffffffffffffffffffc3601126101b957602061013454604051908152f35b50346101b957807ffffffffffffffffffffffffffffffffffffffffffffffffffffffffffffffffc3601126101b957602061013354604051908152f35b9050346101b55760207ffffffffffffffffffffffffffffffffffffffffffffffffffffffffffffffffc3601126101b5576004357fffffffff000000000000000000000000000000000000000000000000000000008116809103610d6457602092507f5a05180f0000000000000000000000000000000000000000000000000000000081148015612870575b80918115612835575b505015158152f35b7f4e2312e0000000000000000000000000000000000000000000000000000000001491508115612868575b50388061282d565b905038612860565b507f7965db0b0000000000000000000000000000000000000000000000000000000081148061282457507f01ffc9a7000000000000000000000000000000000000000000000000000000008114612824565b6024359073ffffffffffffffffffffffffffffffffffffffff821682036128e557565b600080fd5b6004359073ffffffffffffffffffffffffffffffffffffffff821682036128e557565b67ffffffffffffffff8111610f0357604052565b6040810190811067ffffffffffffffff821117610f0357604052565b6080810190811067ffffffffffffffff821117610f0357604052565b90601f7fffffffffffffffffffffffffffffffffffffffffffffffffffffffffffffffe0910116810190811067ffffffffffffffff821117610f0357604052565b67ffffffffffffffff8111610f035760051b60200190565b81601f820112156128e5578035916129c98361299a565b926129d76040519485612959565b808452602092838086019260051b8201019283116128e5578301905b828210612a01575050505090565b813581529083019083016129f3565b81601f820112156128e55780359067ffffffffffffffff8211610f035760405192612a6360207fffffffffffffffffffffffffffffffffffffffffffffffffffffffffffffffe0601f8601160185612959565b828452602083830101116128e557816000926020809301838601378301015290565b60009080825260209060658252604092838120338252835260ff848220541615612aaf5750505050565b612ab833612e45565b91845190612ac58261293d565b6042825284820192606036853782511561046f576030845382516001908110156104425790607860218501536041915b808311612bf057505050612b94576048610362938693612b5e93612b4f98519889937f416363657373436f6e74726f6c3a206163636f756e74200000000000000000008a8601526102e3815180928c603789019101612c6f565b01036028810187520185612959565b519283927f08c379a000000000000000000000000000000000000000000000000000000000845260048401526024830190612ca4565b6064848651907f08c379a000000000000000000000000000000000000000000000000000000000825280600483015260248201527f537472696e67733a20686578206c656e67746820696e73756666696369656e746044820152fd5b909192600f81166010811015612c4257907f3031323334353637383961626364656600000000000000000000000000000000612c3b921a612c318688612e09565b5360041c93612e1a565b9190612af5565b6024847f4e487b710000000000000000000000000000000000000000000000000000000081526032600452fd5b918091926000905b828210612c8f575011612c88575050565b6000910152565b91508060209183015181860152018291612c77565b907fffffffffffffffffffffffffffffffffffffffffffffffffffffffffffffffe0601f602093612ce081518092818752878088019101612c6f565b0116010190565b90612d33916000818152606560205260409173ffffffffffffffffffffffffffffffffffffffff83832094169384835260205260ff8383205416612d36575b81526097602052206131df565b50565b80825260656020528282208483526020528282207fffffffffffffffffffffffffffffffffffffffffffffffffffffffffffffff0081541690553384827ff6391f5c32d9c69d2a47ea670b442974b53935d1edc7fd64eb21e047a839171b858751a4612d26565b807fffffffffffffffffffffffffffffffffffffffffffffffffffffffffffffffff04821181151516612dce570290565b7f4e487b7100000000000000000000000000000000000000000000000000000000600052601160045260246000fd5b81198111612dce570190565b908151811015610413570160200190565b8015612dce577fffffffffffffffffffffffffffffffffffffffffffffffffffffffffffffffff0190565b604051906060820182811067ffffffffffffffff821117610f0357604052602a82526020820160403682378251156104135760309053815160019081101561041357607860218401536029905b808211612f00575050612ea25790565b60646040517f08c379a000000000000000000000000000000000000000000000000000000000815260206004820152602060248201527f537472696e67733a20686578206c656e67746820696e73756666696369656e746044820152fd5b9091600f8116906010821015612f46577f3031323334353637383961626364656600000000000000000000000000000000612f40921a6104038587612e09565b90612e92565b602460007f4e487b710000000000000000000000000000000000000000000000000000000081526032600452fd5b61013b8054821015610413576000527fe1abe72d20e3d8bbb0a91fbb1c3cdd65253a0a0af97f17849f67ad7b3d1a6a620190600090565b80548210156104135760005260206000200190600090565b9060009180835261013c92836020526040812054156000146130825761013b9384549468010000000000000000861015613055578361304561300e886001604098999a018555612f74565b819391549060031b7fffffffffffffffffffffffffffffffffffffffffffffffffffffffffffffffff811b9283911b169119161790565b9055549382526020522055600190565b6024837f4e487b710000000000000000000000000000000000000000000000000000000081526041600452fd5b925050565b919060018301600090828252806020526040822054156000146130d05784549468010000000000000000861015613055578361304561300e886001604098999a01855584612fab565b50925050565b818110612dce570390565b60009080825261013c908160205260408320548015156000146131d957600181106112aa577fffffffffffffffffffffffffffffffffffffffffffffffffffffffffffffffff908181019061013b91825460018110610d9f578401908082036131a6575b505050805480156131795782019161315c83612f74565b909182549160031b1b191690555582526020526040812055600190565b6024867f4e487b710000000000000000000000000000000000000000000000000000000081526031600452fd5b6131c46131b561300e93612f74565b90549060031b1c928392612f74565b90558652846020526040862055388080613145565b50505090565b906001820190600092818452826020526040842054908115156000146132bb576001821061328e577fffffffffffffffffffffffffffffffffffffffffffffffffffffffffffffffff91828101825460018110610d9f57840190808203613259575b505050805480156131795782019161315c8383612fab565b61327961326961300e9386612fab565b90549060031b1c92839286612fab565b90558652846020526040862055388080613241565b6024857f4e487b710000000000000000000000000000000000000000000000000000000081526011600452fd5b5050505090565b156132c957565b60846040517f08c379a000000000000000000000000000000000000000000000000000000000815260206004820152602b60248201527f496e697469616c697a61626c653a20636f6e7472616374206973206e6f74206960448201527f6e697469616c697a696e670000000000000000000000000000000000000000006064820152fd5b7fffffffffffffffffffffffffffffffffffffffffffffffffffffffffffffffff8114612dce5760010190565b610135546101335480821061339557613392916130d6565b90565b5050600090565b60209081818403126128e55780519067ffffffffffffffff82116128e557019180601f840112156128e55782516133d28161299a565b936133e06040519586612959565b818552838086019260051b8201019283116128e5578301905b828210613407575050505090565b815181529083019083016133f9565b90815180825260208080930193019160005b828110613436575050505090565b835185529381019392810192600101613428565b60409073ffffffffffffffffffffffffffffffffffffffff61339294931681528160208201520190613416565b80518210156104135760209160051b010190565b906134958261299a565b6134a26040519182612959565b8281527fffffffffffffffffffffffffffffffffffffffffffffffffffffffffffffffe06134d0829461299a565b0190602036910137565b908160209103126128e5575180151581036128e55790565b610138805473ffffffffffffffffffffffffffffffffffffffff92908316806135c757508216917fffffffffffffffffffffffff0000000000000000000000000000000000000000918383825416179055604051604081019080821067ffffffffffffffff831117610f035760019160405284815260208101948086526000526101396020528260406000209151168482541617815501925116908254161790555b61013780547ffffffffffffffffffffffffffffffffffffffffffffffffffffffffffffffffe8111612dce576001019055565b9092600090828252610139938460205260409382808686205416978651986135ee8a612921565b895260208901928352169586855260205282600181878720995116987fffffffffffffffffffffffff0000000000000000000000000000000000000000998a825416178155019151168782541617905581815416835281848420541683526001848420018587825416179055541681522091825416179055613594565b73ffffffffffffffffffffffffffffffffffffffff8091169060009180835261013980602052600192838160408183828a20015416861460001461378a576101387fffffffffffffffffffffffff000000000000000000000000000000000000000081541690555b8051946136df86612921565b888652602086019689885289526020528720935116927fffffffffffffffffffffffff00000000000000000000000000000000000000009384825416178155019251169082541617905561013791825491821061375d57507fffffffffffffffffffffffffffffffffffffffffffffffffffffffffffffffff019055565b807f4e487b7100000000000000000000000000000000000000000000000000000000602492526011600452fd5b8183828a2001541682828a205416895283828a20017fffffffffffffffffffffffff0000000000000000000000000000000000000000918282541617905586895282828a2054168385848c200154168a52828a209182541617905581610138541686036136d35761384c61013880547fffffffffffffffffffffffff000000000000000000000000000000000000000073ffffffffffffffffffffffffffffffffffffffff808316600052610139602052600160406000200154169116179055565b6136d3565b906133929161ffff8260e01c168060028301805480156000146138875750816001850155555b6000526020526040600020613087565b906001850191825484106000146138a057505055613877565b90915082116138b1575b5050613877565b5580386138aa565b9061ffff8160e01c16906000928284526020918183526138dd6040918287206131df565b15613a4a5783855281835280852054156138fc575b5050505050600190565b600191828101938454600283019687549182811460001461394d57505050505050507fffffffffffffffffffffffffffffffffffffffffffffffffffffffffffffffff9055555b38808080806138f2565b81999699989394959798146000146139df57505085547ffffffffffffffffffffffffffffffffffffffffffffffffffffffffffffffffe811161328e578701875b6139a0575b5050505050505050613943565b815481116139da57808552838352858520546139c5576139bf9061334d565b8761398e565b96505050505050553880808080808080613993565b613993565b91969181146139f5575050505050505050613943565b87811061328e577fffffffffffffffffffffffffffffffffffffffffffffffffffffffffffffffff01875b1561399357815481106139da57808552838352858520546139c557613a4490612e1a565b87613a20565b8260849151907f08c379a00000000000000000000000000000000000000000000000000000000082526004820152602860248201527f4d61726b65743a206661696c656420746f2072656d6f766520636f727265637460448201527f2072656d6f76616c0000000000000000000000000000000000000000000000006064820152fdfea2646970667358221220ecf2a1d7027f6c6ac9d16827686802c4eed6a84c8f86ce1fca0e10e0b88ef01164736f6c634300080f0033",
  "linkReferences": {},
  "deployedLinkReferences": {}
}