{
  "_format": "hh-sol-artifact-1",
  "contractName": "FIFOMarket",
  "sourceName": "contracts/FIFOMarket.sol",
  "abi": [
    {
      "anonymous": false,
      "inputs": [
        {
          "indexed": false,
          "internalType": "uint256",
          "name": "threshold",
          "type": "uint256"
        }
      ],
      "name": "PriorityRestrictedThresholdSet",
      "type": "event"
    },
    {
      "anonymous": false,
      "inputs": [
        {
          "indexed": true,
          "internalType": "bytes32",
          "name": "role",
          "type": "bytes32"
        },
        {
          "indexed": true,
          "internalType": "bytes32",
          "name": "previousAdminRole",
          "type": "bytes32"
        },
        {
          "indexed": true,
          "internalType": "bytes32",
          "name": "newAdminRole",
          "type": "bytes32"
        }
      ],
      "name": "RoleAdminChanged",
      "type": "event"
    },
    {
      "anonymous": false,
      "inputs": [
        {
          "indexed": true,
          "internalType": "bytes32",
          "name": "role",
          "type": "bytes32"
        },
        {
          "indexed": true,
          "internalType": "address",
          "name": "account",
          "type": "address"
        },
        {
          "indexed": true,
          "internalType": "address",
          "name": "sender",
          "type": "address"
        }
      ],
      "name": "RoleGranted",
      "type": "event"
    },
    {
      "anonymous": false,
      "inputs": [
        {
          "indexed": true,
          "internalType": "bytes32",
          "name": "role",
          "type": "bytes32"
        },
        {
          "indexed": true,
          "internalType": "address",
          "name": "account",
          "type": "address"
        },
        {
          "indexed": true,
          "internalType": "address",
          "name": "sender",
          "type": "address"
        }
      ],
      "name": "RoleRevoked",
      "type": "event"
    },
    {
      "inputs": [],
      "name": "ALLOWLIST_ROLE",
      "outputs": [
        {
          "internalType": "bytes32",
          "name": "",
          "type": "bytes32"
        }
      ],
      "stateMutability": "view",
      "type": "function"
    },
    {
      "inputs": [],
      "name": "DEFAULT_ADMIN_ROLE",
      "outputs": [
        {
          "internalType": "bytes32",
          "name": "",
          "type": "bytes32"
        }
      ],
      "stateMutability": "view",
      "type": "function"
    },
    {
      "inputs": [],
      "name": "activeSupplierCount",
      "outputs": [
        {
          "internalType": "uint256",
          "name": "",
          "type": "uint256"
        }
      ],
      "stateMutability": "view",
      "type": "function"
    },
    {
      "inputs": [
        {
          "internalType": "bytes32",
          "name": "role",
          "type": "bytes32"
        }
      ],
      "name": "getRoleAdmin",
      "outputs": [
        {
          "internalType": "bytes32",
          "name": "",
          "type": "bytes32"
        }
      ],
      "stateMutability": "view",
      "type": "function"
    },
    {
      "inputs": [
        {
          "internalType": "bytes32",
          "name": "role",
          "type": "bytes32"
        },
        {
          "internalType": "uint256",
          "name": "index",
          "type": "uint256"
        }
      ],
      "name": "getRoleMember",
      "outputs": [
        {
          "internalType": "address",
          "name": "",
          "type": "address"
        }
      ],
      "stateMutability": "view",
      "type": "function"
    },
    {
      "inputs": [
        {
          "internalType": "bytes32",
          "name": "role",
          "type": "bytes32"
        }
      ],
      "name": "getRoleMemberCount",
      "outputs": [
        {
          "internalType": "uint256",
          "name": "",
          "type": "uint256"
        }
      ],
      "stateMutability": "view",
      "type": "function"
    },
    {
      "inputs": [
        {
          "internalType": "bytes32",
          "name": "role",
          "type": "bytes32"
        },
        {
          "internalType": "address",
          "name": "account",
          "type": "address"
        }
      ],
      "name": "grantRole",
      "outputs": [],
      "stateMutability": "nonpayable",
      "type": "function"
    },
    {
      "inputs": [
        {
          "internalType": "bytes32",
          "name": "role",
          "type": "bytes32"
        },
        {
          "internalType": "address",
          "name": "account",
          "type": "address"
        }
      ],
      "name": "hasRole",
      "outputs": [
        {
          "internalType": "bool",
          "name": "",
          "type": "bool"
        }
      ],
      "stateMutability": "view",
      "type": "function"
    },
    {
      "inputs": [
        {
          "internalType": "address",
          "name": "removalAddress",
          "type": "address"
        },
        {
          "internalType": "address",
          "name": "bridgedPolygonNoriAddress",
          "type": "address"
        },
        {
          "internalType": "address",
          "name": "certificateAddress",
          "type": "address"
        },
        {
          "internalType": "address",
          "name": "noriFeeWalletAddress",
          "type": "address"
        },
        {
          "internalType": "uint256",
          "name": "noriFee",
          "type": "uint256"
        }
      ],
      "name": "initialize",
      "outputs": [],
      "stateMutability": "nonpayable",
      "type": "function"
    },
    {
      "inputs": [],
      "name": "numberOfActiveNrtsInMarketComputed",
      "outputs": [
        {
          "internalType": "uint256",
          "name": "",
          "type": "uint256"
        }
      ],
      "stateMutability": "view",
      "type": "function"
    },
    {
      "inputs": [
        {
          "internalType": "address",
          "name": "",
          "type": "address"
        },
        {
          "internalType": "address",
          "name": "",
          "type": "address"
        },
        {
          "internalType": "uint256[]",
          "name": "ids",
          "type": "uint256[]"
        },
        {
          "internalType": "uint256[]",
          "name": "",
          "type": "uint256[]"
        },
        {
          "internalType": "bytes",
          "name": "",
          "type": "bytes"
        }
      ],
      "name": "onERC1155BatchReceived",
      "outputs": [
        {
          "internalType": "bytes4",
          "name": "",
          "type": "bytes4"
        }
      ],
      "stateMutability": "nonpayable",
      "type": "function"
    },
    {
      "inputs": [
        {
          "internalType": "address",
          "name": "",
          "type": "address"
        },
        {
          "internalType": "address",
          "name": "",
          "type": "address"
        },
        {
          "internalType": "uint256",
          "name": "",
          "type": "uint256"
        },
        {
          "internalType": "uint256",
          "name": "",
          "type": "uint256"
        },
        {
          "internalType": "bytes",
          "name": "",
          "type": "bytes"
        }
      ],
      "name": "onERC1155Received",
      "outputs": [
        {
          "internalType": "bytes4",
          "name": "",
          "type": "bytes4"
        }
      ],
      "stateMutability": "nonpayable",
      "type": "function"
    },
    {
      "inputs": [],
      "name": "priorityRestrictedThreshold",
      "outputs": [
        {
          "internalType": "uint256",
          "name": "",
          "type": "uint256"
        }
      ],
      "stateMutability": "view",
      "type": "function"
    },
    {
      "inputs": [
        {
          "internalType": "bytes32",
          "name": "role",
          "type": "bytes32"
        },
        {
          "internalType": "address",
          "name": "account",
          "type": "address"
        }
      ],
      "name": "renounceRole",
      "outputs": [],
      "stateMutability": "nonpayable",
      "type": "function"
    },
    {
      "inputs": [
        {
          "internalType": "uint256",
          "name": "removalId",
          "type": "uint256"
        }
      ],
      "name": "reserveRemoval",
      "outputs": [
        {
          "internalType": "bool",
          "name": "",
          "type": "bool"
        }
      ],
      "stateMutability": "nonpayable",
      "type": "function"
    },
    {
      "inputs": [
        {
          "internalType": "bytes32",
          "name": "role",
          "type": "bytes32"
        },
        {
          "internalType": "address",
          "name": "account",
          "type": "address"
        }
      ],
      "name": "revokeRole",
      "outputs": [],
      "stateMutability": "nonpayable",
      "type": "function"
    },
    {
      "inputs": [
        {
          "internalType": "uint256",
          "name": "threshold",
          "type": "uint256"
        }
      ],
      "name": "setPriorityRestrictedThreshold",
      "outputs": [],
      "stateMutability": "nonpayable",
      "type": "function"
    },
    {
      "inputs": [
        {
          "internalType": "bytes4",
          "name": "interfaceId",
          "type": "bytes4"
        }
      ],
      "name": "supportsInterface",
      "outputs": [
        {
          "internalType": "bool",
          "name": "",
          "type": "bool"
        }
      ],
      "stateMutability": "view",
      "type": "function"
    },
    {
      "inputs": [
        {
          "internalType": "address",
          "name": "",
          "type": "address"
        },
        {
          "internalType": "address",
          "name": "from",
          "type": "address"
        },
        {
          "internalType": "address",
          "name": "",
          "type": "address"
        },
        {
          "internalType": "uint256",
          "name": "amount",
          "type": "uint256"
        },
        {
          "internalType": "bytes",
          "name": "userData",
          "type": "bytes"
        },
        {
          "internalType": "bytes",
          "name": "",
          "type": "bytes"
        }
      ],
      "name": "tokensReceived",
      "outputs": [],
      "stateMutability": "nonpayable",
      "type": "function"
    },
    {
      "inputs": [],
      "name": "totalActiveSupply",
      "outputs": [
        {
          "internalType": "uint256",
          "name": "",
          "type": "uint256"
        }
      ],
      "stateMutability": "view",
      "type": "function"
    },
    {
      "inputs": [],
      "name": "totalNumberActiveRemovals",
      "outputs": [
        {
          "internalType": "uint256",
          "name": "",
          "type": "uint256"
        }
      ],
      "stateMutability": "view",
      "type": "function"
    },
    {
      "inputs": [],
      "name": "totalReservedSupply",
      "outputs": [
        {
          "internalType": "uint256",
          "name": "",
          "type": "uint256"
        }
      ],
      "stateMutability": "view",
      "type": "function"
    },
    {
      "inputs": [],
      "name": "totalSupply",
      "outputs": [
        {
          "internalType": "uint256",
          "name": "",
          "type": "uint256"
        }
      ],
      "stateMutability": "view",
      "type": "function"
    },
    {
      "inputs": [],
      "name": "totalUnrestrictedSupply",
      "outputs": [
        {
          "internalType": "uint256",
          "name": "",
          "type": "uint256"
        }
      ],
      "stateMutability": "view",
      "type": "function"
    },
    {
      "inputs": [
        {
          "internalType": "uint256",
          "name": "removalId",
          "type": "uint256"
        }
      ],
      "name": "unreserveRemoval",
      "outputs": [
        {
          "internalType": "bool",
          "name": "",
          "type": "bool"
        }
      ],
      "stateMutability": "nonpayable",
      "type": "function"
    }
  ],
  "bytecode": "0x608060405234801561001057600080fd5b50612977806100206000396000f3fe608060405234801561001057600080fd5b50600436106101725760003560e01c8063674d13c8116100de578063a217fddf11610097578063d547741f11610071578063d547741f14610329578063d797462f1461033c578063f23a6e611461034f578063f7013ef61461036e57600080fd5b8063a217fddf146102e2578063bc197c81146102ea578063ca15c8731461031657600080fd5b8063674d13c814610275578063720692641461027f5780637530b450146102895780639010d07c1461029157806391d14854146102bc57806397a11ee9146102cf57600080fd5b80632f2ff15d116101305780632f2ff15d146102035780633030b53214610216578063361b7b9d1461023d57806336568abe146102475780633eb12cee1461025a57806359e1a71c1461026257600080fd5b806223de291461017757806301ffc9a71461018c57806312de2b05146101b4578063179f0445146101cc57806318160ddd146101d6578063248a9ca3146101e0575b600080fd5b61018a61018536600461217c565b610381565b005b61019f61019a36600461222c565b610e59565b60405190151581526020015b60405180910390f35b6101be6101335481565b6040519081526020016101ab565b6101be6101355481565b6101be6101345481565b6101be6101ee366004612256565b60009081526065602052604090206001015490565b61018a61021136600461226f565b610e79565b6101be7f26a560d834a19637eccba4611bbc09fb32970bb627da0a70f14f83fdc9822cbc81565b6101be6101385481565b61018a61025536600461226f565b610ea4565b6101be610f22565b61019f610270366004612256565b611058565b6101be6101375481565b6101be6101365481565b6101be6111c3565b6102a461029f36600461229f565b6111f0565b6040516001600160a01b0390911681526020016101ab565b61019f6102ca36600461226f565b61120f565b61019f6102dd366004612256565b61123a565b6101be600081565b6102fd6102f83660046123f5565b6113a1565b6040516001600160e01b031990911681526020016101ab565b6101be610324366004612256565b611652565b61018a61033736600461226f565b611669565b61018a61034a366004612256565b61168f565b6102fd61035d3660046124a2565b63f23a6e6160e01b95945050505050565b61018a61037c36600461250a565b6116d8565b610136546000036103d05760405162461bcd60e51b81526020600482015260146024820152734d61726b65743a204f7574206f662073746f636b60601b60448201526064015b60405180910390fd5b610133546101365411610461576104077f26a560d834a19637eccba4611bbc09fb32970bb627da0a70f14f83fdc9822cbc8861120f565b6104615760405162461bcd60e51b815260206004820152602560248201527f4c6f7720737570706c7920616e64206275796572206e6f74206f6e20616c6c6f6044820152641ddb1a5cdd60da1b60648201526084016103c7565b60006101325460646104739190612584565b61047e87606461259c565b61048891906125bb565b9050806000610499868801886125dd565b90506001600160a01b0381166104fd5760405162461bcd60e51b8152602060048201526024808201527f4d61726b65743a2043616e6e6f74206d696e7420746f207468652030206164646044820152637265737360e01b60648201526084016103c7565b610130546001600160a01b0316331461057e5760405162461bcd60e51b815260206004820152603960248201527f4d61726b65743a205468697320636f6e74726163742063616e206f6e6c79207260448201527f6563656976652042726964676564506f6c79676f6e4e4f52490000000000000060648201526084016103c7565b6000610135546001600160401b0381111561059b5761059b6122c1565b6040519080825280602002602001820160405280156105c4578160200160208202803683370190505b5090506000610135546001600160401b038111156105e4576105e46122c1565b60405190808252806020026020018201604052801561060d578160200160208202803683370190505b5090506000610135546001600160401b0381111561062d5761062d6122c1565b604051908082528060200260200182016040528015610656578160200160208202803683370190505b5090506000805b610135548110156109875761013a546001600160a01b0316600090815261013f6020526040812061068e9082611929565b61012e54604051627eeac760e11b8152306004820152602481018390529192506000916001600160a01b039091169062fdd58e90604401602060405180830381865afa1580156106e2573d6000803e3d6000fd5b505050506040513d601f19601f8201168201806040525081019061070691906125fa565b90508089101561079a578187858151811061072357610723612613565b6020026020010181815250508886858151811061074257610742612613565b602090810291909101015261013a5485516001600160a01b039091169086908690811061077157610771612613565b60200260200101906001600160a01b031690816001600160a01b03168152505060009850610956565b6001610135546107aa9190612629565b831480156107b757508089115b156108045760405162461bcd60e51b815260206004820152601960248201527f4d61726b65743a204e6f7420656e6f75676820737570706c790000000000000060448201526064016103c7565b8187858151811061081757610817612613565b6020026020010181815250508086858151811061083657610836612613565b602090810291909101015261013a5485516001600160a01b039091169086908690811061086557610865612613565b6001600160a01b0390921660209283029190910190910152610887818a612629565b61013a546001600160a01b0316600090815261013f602052604090209099506108b09083611935565b5061013a546001600160a01b0316600090815261013f602052604090206108d690611941565b6000036108f85761013a546108f3906001600160a01b031661194b565b610956565b61013a546001600160a01b03908116600081815261013c6020526040902060010154909116146109565761013a80546001600160a01b03808216600090815261013c6020526040902060010154166001600160a01b03199091161790555b8361096081612640565b94505088600003610972575050610987565b5050808061097f90612640565b91505061065d565b506000816001600160401b038111156109a2576109a26122c1565b6040519080825280602002602001820160405280156109cb578160200160208202803683370190505b5090506000826001600160401b038111156109e8576109e86122c1565b604051908082528060200260200182016040528015610a11578160200160208202803683370190505b50905060005b83811015610aa057868181518110610a3157610a31612613565b6020026020010151838281518110610a4b57610a4b612613565b602002602001018181525050858181518110610a6957610a69612613565b6020026020010151828281518110610a8357610a83612613565b602090810291909101015280610a9881612640565b915050610a17565b50600089604051602001610ab691815260200190565b60408051601f198184030181529082905261012f54630fbfeffd60e11b83529092506001600160a01b031690631f7fdffa90610afc908b908790879087906004016126f0565b600060405180830381600087803b158015610b1657600080fd5b505af1158015610b2a573d6000803e3d6000fd5b5050505060005b8351811015610ddd5761012e5484516001600160a01b039091169062fdd58e903090879085908110610b6557610b65612613565b60200260200101516040518363ffffffff1660e01b8152600401610b9e9291906001600160a01b03929092168252602082015260400190565b602060405180830381865afa158015610bbb573d6000803e3d6000fd5b505050506040513d601f19601f82011682018060405250810190610bdf91906125fa565b838281518110610bf157610bf1612613565b602002602001015103610c185760016101356000828254610c129190612629565b90915550505b828181518110610c2a57610c2a612613565b60200260200101516101366000828254610c449190612629565b925050819055506000610132546064858481518110610c6557610c65612613565b6020026020010151610c7791906125bb565b610c81919061259c565b90506000848381518110610c9757610c97612613565b6020908102919091010151610130546101315460405163a9059cbb60e01b81526001600160a01b03918216600482015260248101869052929350169063a9059cbb906044016020604051808303816000875af1158015610cfb573d6000803e3d6000fd5b505050506040513d601f19601f82011682018060405250810190610d1f919061273a565b506101305488516001600160a01b039091169063a9059cbb908a9086908110610d4a57610d4a612613565b6020026020010151836040518363ffffffff1660e01b8152600401610d849291906001600160a01b03929092168252602082015260400190565b6020604051808303816000875af1158015610da3573d6000803e3d6000fd5b505050506040513d601f19601f82011682018060405250810190610dc7919061273a565b5050508080610dd590612640565b915050610b31565b5061012e54604051631ac8311560e21b81526001600160a01b0390911690636b20c45490610e139030908790879060040161275c565b600060405180830381600087803b158015610e2d57600080fd5b505af1158015610e41573d6000803e3d6000fd5b50505050505050505050505050505050505050505050565b6000610e6482611aeb565b80610e735750610e7382611b10565b92915050565b600082815260656020526040902060010154610e958133611b35565b610e9f8383611b99565b505050565b6001600160a01b0381163314610f145760405162461bcd60e51b815260206004820152602f60248201527f416363657373436f6e74726f6c3a2063616e206f6e6c792072656e6f756e636560448201526e103937b632b9903337b91039b2b63360891b60648201526084016103c7565b610f1e8282611bbb565b5050565b6101395460009081906001600160a01b0316815b61013854811015611050576001600160a01b038216600090815261013f60205260408120905b610f6582611941565b81101561101a5761012e546000906001600160a01b031662fdd58e30610f8b8686611929565b6040516001600160e01b031960e085901b1681526001600160a01b0390921660048301526024820152604401602060405180830381865afa158015610fd4573d6000803e3d6000fd5b505050506040513d601f19601f82011682018060405250810190610ff891906125fa565b90506110048187612584565b955050808061101290612640565b915050610f5c565b50506001600160a01b03918216600090815261013c6020526040902060010154909116908061104881612640565b915050610f36565b509092915050565b60008061106483611bdd565b6001600160a01b038116600090815261013f6020526040902090915061108a8185611bec565b6110e25760405162461bcd60e51b8152602060048201526024808201527f4d61726b65743a2072656d6f76616c206e6f7420696e2061637469766520737560448201526370706c7960e01b60648201526084016103c7565b6110ec8185611935565b50600161013560008282546111019190612629565b909155505061012e54604051627eeac760e11b8152306004820152602481018690526000916001600160a01b03169062fdd58e90604401602060405180830381865afa158015611155573d6000803e3d6000fd5b505050506040513d601f19601f8201168201806040525081019061117991906125fa565b905080610136600082825461118e9190612629565b925050819055508061013760008282546111a89190612584565b909155506111ba905061013d86611c04565b95945050505050565b6000610133546101365410156111d95750600090565b61013354610136546111eb9190612629565b905090565b60008281526097602052604081206112089083611929565b9392505050565b60009182526065602090815260408084206001600160a01b0393909316845291905290205460ff1690565b60008061124683611bdd565b6001600160a01b038116600090815261013f6020526040902090915061126e61013d85611bec565b6112c95760405162461bcd60e51b815260206004820152602660248201527f4d61726b65743a2072656d6f76616c206e6f7420696e20726573657276656420604482015265737570706c7960d01b60648201526084016103c7565b6112d561013d85611935565b50600161013560008282546112ea9190612584565b909155505061012e54604051627eeac760e11b8152306004820152602481018690526000916001600160a01b03169062fdd58e90604401602060405180830381865afa15801561133e573d6000803e3d6000fd5b505050506040513d601f19601f8201168201806040525081019061136291906125fa565b90508061013660008282546113779190612584565b925050819055508061013760008282546113919190612629565b909155506111ba90508286611c04565b6000805b845181101561163f5761012e5485516000916001600160a01b03169062fdd58e9030908990869081106113da576113da612613565b60200260200101516040518363ffffffff1660e01b81526004016114139291906001600160a01b03929092168252602082015260400190565b602060405180830381865afa158015611430573d6000803e3d6000fd5b505050506040513d601f19601f8201168201806040525081019061145491906125fa565b90508061013660008282546114699190612584565b92505081905550600161013560008282546114849190612584565b9250508190555060006114af8784815181106114a2576114a2612613565b6020026020010151611bdd565b90506115028784815181106114c6576114c6612613565b602002602001015161013f6000846001600160a01b03166001600160a01b03168152602001908152602001600020611c0490919063ffffffff16565b506001600160a01b03818116600090815261013c60205260409020600101541661162a57610139546001600160a01b03166115705761013980546001600160a01b0383166001600160a01b0319918216811790925561013a805482168317905561013b805490911690911790555b61013a80546001600160a01b03908116600090815261013c6020818152604080842080546001600160a01b0319908116898816908117909255965486168552818520600190810180548916831790558251808401845261013b8054891682526101395489168287019081528489529690955292862092518354891690881617835593519184018054881692909616919091179094558054909416909217909255610138805491929091611624908490612584565b90915550505b5050808061163790612640565b9150506113a5565b5063bc197c8160e01b9695505050505050565b6000818152609760205260408120610e7390611941565b6000828152606560205260409020600101546116858133611b35565b610e9f8383611bbb565b600061169b8133611b35565b6101338290556040518281527f7ab6aa6547859e9ca74d567d44fefa0d63272ac019f4ebf9333032a62ea06fa59060200160405180910390a15050565b600054610100900460ff166116f35760005460ff16156116f7565b303b155b61175a5760405162461bcd60e51b815260206004820152602e60248201527f496e697469616c697a61626c653a20636f6e747261637420697320616c72656160448201526d191e481a5b9a5d1a585b1a5e995960921b60648201526084016103c7565b600054610100900460ff1615801561177c576000805461ffff19166101011790555b611784611c10565b61178c611c10565b611794611c10565b61179c611c10565b6117a4611c10565b61012e80546001600160a01b03199081166001600160a01b03898116919091179092556101308054821688841617905561012f80548216878416179055610131805482169286169290921790915561013283905561012d8054731820a4b7618bde71dce8cdc73aab6c95905fad249216821790556040516329965a1d60e01b815230600482018190527fb281fc8c12954d22544db45de3159a39272895b169a852b314f9cc762e44c53b602483015260448201526329965a1d90606401600060405180830381600087803b15801561187b57600080fd5b505af115801561188f573d6000803e3d6000fd5b5050600061013381905561013481905561013681905561013781905561013581905561013980546001600160a01b031990811690915561013a80548216905561013b805490911690556118e59250905033611b99565b61190f7f26a560d834a19637eccba4611bbc09fb32970bb627da0a70f14f83fdc9822cbc33611b99565b8015611921576000805461ff00191690555b505050505050565b60006112088383611c7d565b60006112088383611ca7565b6000610e73825490565b6001600160a01b03808216600081815261013c60209081526040918290208251808401909352805485168352600101549093169281018390529190036119b75761013980546001600160a01b031990811690915561013a80548216905561013b80549091169055611ab7565b6020808201805183516001600160a01b03908116600090815261013c909452604080852060010180549383166001600160a01b0319948516179055855193518216855290932080549284169290911691909117905561013954811690831603611a4057602081015161013980546001600160a01b0319166001600160a01b039092169190911790555b61013b546001600160a01b0390811690831603611a7a57805161013b80546001600160a01b0319166001600160a01b039092169190911790555b61013a546001600160a01b0390811690831603611ab757602081015161013a80546001600160a01b0319166001600160a01b039092169190911790555b5060408051808201909152600080825260208201819052610138805460019290611ae2908490612629565b90915550505050565b60006001600160e01b03198216635a05180f60e01b1480610e735750610e7382611d9a565b60006001600160e01b03198216630271189760e51b1480610e735750610e7382611aeb565b611b3f828261120f565b610f1e57611b57816001600160a01b03166014611dcf565b611b62836020611dcf565b604051602001611b7392919061279c565b60408051601f198184030181529082905262461bcd60e51b82526103c791600401612811565b611ba38282611f6a565b6000828152609760205260409020610e9f9082611ff0565b611bc58282612005565b6000828152609760205260409020610e9f908261206c565b6000610e738260146004612081565b60008181526001830160205260408120541515611208565b600061120883836120cd565b600054610100900460ff16611c7b5760405162461bcd60e51b815260206004820152602b60248201527f496e697469616c697a61626c653a20636f6e7472616374206973206e6f74206960448201526a6e697469616c697a696e6760a81b60648201526084016103c7565b565b6000826000018281548110611c9457611c94612613565b9060005260206000200154905092915050565b60008181526001830160205260408120548015611d90576000611ccb600183612629565b8554909150600090611cdf90600190612629565b9050818114611d44576000866000018281548110611cff57611cff612613565b9060005260206000200154905080876000018481548110611d2257611d22612613565b6000918252602080832090910192909255918252600188019052604090208390555b8554869080611d5557611d55612824565b600190038181906000526020600020016000905590558560010160008681526020019081526020016000206000905560019350505050610e73565b6000915050610e73565b60006001600160e01b03198216637965db0b60e01b1480610e7357506301ffc9a760e01b6001600160e01b0319831614610e73565b60606000611dde83600261259c565b611de9906002612584565b6001600160401b03811115611e0057611e006122c1565b6040519080825280601f01601f191660200182016040528015611e2a576020820181803683370190505b509050600360fc1b81600081518110611e4557611e45612613565b60200101906001600160f81b031916908160001a905350600f60fb1b81600181518110611e7457611e74612613565b60200101906001600160f81b031916908160001a9053506000611e9884600261259c565b611ea3906001612584565b90505b6001811115611f1b576f181899199a1a9b1b9c1cb0b131b232b360811b85600f1660108110611ed757611ed7612613565b1a60f81b828281518110611eed57611eed612613565b60200101906001600160f81b031916908160001a90535060049490941c93611f148161283a565b9050611ea6565b5083156112085760405162461bcd60e51b815260206004820181905260248201527f537472696e67733a20686578206c656e67746820696e73756666696369656e7460448201526064016103c7565b611f74828261120f565b610f1e5760008281526065602090815260408083206001600160a01b03851684529091529020805460ff19166001179055611fac3390565b6001600160a01b0316816001600160a01b0316837f2f8788117e7eff1d82e926ec794901d17c78024a50270940304540a733656f0d60405160405180910390a45050565b6000611208836001600160a01b0384166120cd565b61200f828261120f565b15610f1e5760008281526065602090815260408083206001600160a01b0385168085529252808320805460ff1916905551339285917ff6391f5c32d9c69d2a47ea670b442974b53935d1edc7fd64eb21e047a839171b9190a45050565b6000611208836001600160a01b038416611ca7565b60008061208f60088461259c565b600161209c60088761259c565b6120a7906002612935565b6120b19190612629565b901b90508481166120c360088561259c565b1c95945050505050565b600081815260018301602052604081205461211457508154600181810184556000848152602080822090930184905584548482528286019093526040902091909155610e73565b506000610e73565b6001600160a01b038116811461213157600080fd5b50565b60008083601f84011261214657600080fd5b5081356001600160401b0381111561215d57600080fd5b60208301915083602082850101111561217557600080fd5b9250929050565b60008060008060008060008060c0898b03121561219857600080fd5b88356121a38161211c565b975060208901356121b38161211c565b965060408901356121c38161211c565b95506060890135945060808901356001600160401b03808211156121e657600080fd5b6121f28c838d01612134565b909650945060a08b013591508082111561220b57600080fd5b506122188b828c01612134565b999c989b5096995094979396929594505050565b60006020828403121561223e57600080fd5b81356001600160e01b03198116811461120857600080fd5b60006020828403121561226857600080fd5b5035919050565b6000806040838503121561228257600080fd5b8235915060208301356122948161211c565b809150509250929050565b600080604083850312156122b257600080fd5b50508035926020909101359150565b634e487b7160e01b600052604160045260246000fd5b604051601f8201601f191681016001600160401b03811182821017156122ff576122ff6122c1565b604052919050565b600082601f83011261231857600080fd5b813560206001600160401b03821115612333576123336122c1565b8160051b6123428282016122d7565b928352848101820192828101908785111561235c57600080fd5b83870192505b8483101561237b57823582529183019190830190612362565b979650505050505050565b600082601f83011261239757600080fd5b81356001600160401b038111156123b0576123b06122c1565b6123c3601f8201601f19166020016122d7565b8181528460208386010111156123d857600080fd5b816020850160208301376000918101602001919091529392505050565b600080600080600060a0868803121561240d57600080fd5b85356124188161211c565b945060208601356124288161211c565b935060408601356001600160401b038082111561244457600080fd5b61245089838a01612307565b9450606088013591508082111561246657600080fd5b61247289838a01612307565b9350608088013591508082111561248857600080fd5b5061249588828901612386565b9150509295509295909350565b600080600080600060a086880312156124ba57600080fd5b85356124c58161211c565b945060208601356124d58161211c565b9350604086013592506060860135915060808601356001600160401b038111156124fe57600080fd5b61249588828901612386565b600080600080600060a0868803121561252257600080fd5b853561252d8161211c565b9450602086013561253d8161211c565b9350604086013561254d8161211c565b9250606086013561255d8161211c565b949793965091946080013592915050565b634e487b7160e01b600052601160045260246000fd5b600082198211156125975761259761256e565b500190565b60008160001904831182151516156125b6576125b661256e565b500290565b6000826125d857634e487b7160e01b600052601260045260246000fd5b500490565b6000602082840312156125ef57600080fd5b81356112088161211c565b60006020828403121561260c57600080fd5b5051919050565b634e487b7160e01b600052603260045260246000fd5b60008282101561263b5761263b61256e565b500390565b6000600182016126525761265261256e565b5060010190565b600081518084526020808501945080840160005b838110156126895781518752958201959082019060010161266d565b509495945050505050565b60005b838110156126af578181015183820152602001612697565b838111156126be576000848401525b50505050565b600081518084526126dc816020860160208601612694565b601f01601f19169290920160200192915050565b6001600160a01b038516815260806020820181905260009061271490830186612659565b82810360408401526127268186612659565b9050828103606084015261237b81856126c4565b60006020828403121561274c57600080fd5b8151801515811461120857600080fd5b6001600160a01b038416815260606020820181905260009061278090830185612659565b82810360408401526127928185612659565b9695505050505050565b7f416363657373436f6e74726f6c3a206163636f756e74200000000000000000008152600083516127d4816017850160208801612694565b7001034b99036b4b9b9b4b733903937b6329607d1b6017918401918201528351612805816028840160208801612694565b01602801949350505050565b60208152600061120860208301846126c4565b634e487b7160e01b600052603160045260246000fd5b6000816128495761284961256e565b506000190190565b600181815b8085111561288c5781600019048211156128725761287261256e565b8085161561287f57918102915b93841c9390800290612856565b509250929050565b6000826128a357506001610e73565b816128b057506000610e73565b81600181146128c657600281146128d0576128ec565b6001915050610e73565b60ff8411156128e1576128e161256e565b50506001821b610e73565b5060208310610133831016604e8410600b841016171561290f575081810a610e73565b6129198383612851565b806000190482111561292d5761292d61256e565b029392505050565b6000611208838361289456fea2646970667358221220db669f52c82e240c8c0458973cfd5207879d0547787ddf481221ba2e41af444564736f6c634300080d0033",
  "linkReferences": {},
  "deployedLinkReferences": {}
}