{
  "_format": "hh-sol-artifact-1",
  "contractName": "FIFOMarket",
  "sourceName": "contracts/FIFOMarket.sol",
  "abi": [
    {
      "anonymous": false,
      "inputs": [
        {
          "indexed": false,
          "internalType": "uint256",
          "name": "threshold",
          "type": "uint256"
        }
      ],
      "name": "PriorityRestrictedThresholdSet",
      "type": "event"
    },
    {
      "anonymous": false,
      "inputs": [
        {
          "indexed": true,
          "internalType": "bytes32",
          "name": "role",
          "type": "bytes32"
        },
        {
          "indexed": true,
          "internalType": "bytes32",
          "name": "previousAdminRole",
          "type": "bytes32"
        },
        {
          "indexed": true,
          "internalType": "bytes32",
          "name": "newAdminRole",
          "type": "bytes32"
        }
      ],
      "name": "RoleAdminChanged",
      "type": "event"
    },
    {
      "anonymous": false,
      "inputs": [
        {
          "indexed": true,
          "internalType": "bytes32",
          "name": "role",
          "type": "bytes32"
        },
        {
          "indexed": true,
          "internalType": "address",
          "name": "account",
          "type": "address"
        },
        {
          "indexed": true,
          "internalType": "address",
          "name": "sender",
          "type": "address"
        }
      ],
      "name": "RoleGranted",
      "type": "event"
    },
    {
      "anonymous": false,
      "inputs": [
        {
          "indexed": true,
          "internalType": "bytes32",
          "name": "role",
          "type": "bytes32"
        },
        {
          "indexed": true,
          "internalType": "address",
          "name": "account",
          "type": "address"
        },
        {
          "indexed": true,
          "internalType": "address",
          "name": "sender",
          "type": "address"
        }
      ],
      "name": "RoleRevoked",
      "type": "event"
    },
    {
      "inputs": [],
      "name": "ALLOWLIST_ROLE",
      "outputs": [
        {
          "internalType": "bytes32",
          "name": "",
          "type": "bytes32"
        }
      ],
      "stateMutability": "view",
      "type": "function"
    },
    {
      "inputs": [],
      "name": "DEFAULT_ADMIN_ROLE",
      "outputs": [
        {
          "internalType": "bytes32",
          "name": "",
          "type": "bytes32"
        }
      ],
      "stateMutability": "view",
      "type": "function"
    },
    {
      "inputs": [],
      "name": "activeSupplierCount",
      "outputs": [
        {
          "internalType": "uint256",
          "name": "",
          "type": "uint256"
        }
      ],
      "stateMutability": "view",
      "type": "function"
    },
    {
      "inputs": [
        {
          "internalType": "bytes32",
          "name": "role",
          "type": "bytes32"
        }
      ],
      "name": "getRoleAdmin",
      "outputs": [
        {
          "internalType": "bytes32",
          "name": "",
          "type": "bytes32"
        }
      ],
      "stateMutability": "view",
      "type": "function"
    },
    {
      "inputs": [
        {
          "internalType": "bytes32",
          "name": "role",
          "type": "bytes32"
        },
        {
          "internalType": "uint256",
          "name": "index",
          "type": "uint256"
        }
      ],
      "name": "getRoleMember",
      "outputs": [
        {
          "internalType": "address",
          "name": "",
          "type": "address"
        }
      ],
      "stateMutability": "view",
      "type": "function"
    },
    {
      "inputs": [
        {
          "internalType": "bytes32",
          "name": "role",
          "type": "bytes32"
        }
      ],
      "name": "getRoleMemberCount",
      "outputs": [
        {
          "internalType": "uint256",
          "name": "",
          "type": "uint256"
        }
      ],
      "stateMutability": "view",
      "type": "function"
    },
    {
      "inputs": [
        {
          "internalType": "bytes32",
          "name": "role",
          "type": "bytes32"
        },
        {
          "internalType": "address",
          "name": "account",
          "type": "address"
        }
      ],
      "name": "grantRole",
      "outputs": [],
      "stateMutability": "nonpayable",
      "type": "function"
    },
    {
      "inputs": [
        {
          "internalType": "bytes32",
          "name": "role",
          "type": "bytes32"
        },
        {
          "internalType": "address",
          "name": "account",
          "type": "address"
        }
      ],
      "name": "hasRole",
      "outputs": [
        {
          "internalType": "bool",
          "name": "",
          "type": "bool"
        }
      ],
      "stateMutability": "view",
      "type": "function"
    },
    {
      "inputs": [
        {
          "internalType": "address",
          "name": "removalAddress",
          "type": "address"
        },
        {
          "internalType": "address",
          "name": "bridgedPolygonNoriAddress",
          "type": "address"
        },
        {
          "internalType": "address",
          "name": "certificateAddress",
          "type": "address"
        },
        {
          "internalType": "address",
          "name": "noriFeeWalletAddress",
          "type": "address"
        },
        {
          "internalType": "uint256",
          "name": "noriFee",
          "type": "uint256"
        }
      ],
      "name": "initialize",
      "outputs": [],
      "stateMutability": "nonpayable",
      "type": "function"
    },
    {
      "inputs": [],
      "name": "numberOfActiveNrtsInMarketComputed",
      "outputs": [
        {
          "internalType": "uint256",
          "name": "",
          "type": "uint256"
        }
      ],
      "stateMutability": "view",
      "type": "function"
    },
    {
      "inputs": [
        {
          "internalType": "address",
          "name": "",
          "type": "address"
        },
        {
          "internalType": "address",
          "name": "",
          "type": "address"
        },
        {
          "internalType": "uint256[]",
          "name": "ids",
          "type": "uint256[]"
        },
        {
          "internalType": "uint256[]",
          "name": "",
          "type": "uint256[]"
        },
        {
          "internalType": "bytes",
          "name": "",
          "type": "bytes"
        }
      ],
      "name": "onERC1155BatchReceived",
      "outputs": [
        {
          "internalType": "bytes4",
          "name": "",
          "type": "bytes4"
        }
      ],
      "stateMutability": "nonpayable",
      "type": "function"
    },
    {
      "inputs": [
        {
          "internalType": "address",
          "name": "",
          "type": "address"
        },
        {
          "internalType": "address",
          "name": "",
          "type": "address"
        },
        {
          "internalType": "uint256",
          "name": "",
          "type": "uint256"
        },
        {
          "internalType": "uint256",
          "name": "",
          "type": "uint256"
        },
        {
          "internalType": "bytes",
          "name": "",
          "type": "bytes"
        }
      ],
      "name": "onERC1155Received",
      "outputs": [
        {
          "internalType": "bytes4",
          "name": "",
          "type": "bytes4"
        }
      ],
      "stateMutability": "nonpayable",
      "type": "function"
    },
    {
      "inputs": [],
      "name": "priorityRestrictedThreshold",
      "outputs": [
        {
          "internalType": "uint256",
          "name": "",
          "type": "uint256"
        }
      ],
      "stateMutability": "view",
      "type": "function"
    },
    {
      "inputs": [
        {
          "internalType": "bytes32",
          "name": "role",
          "type": "bytes32"
        },
        {
          "internalType": "address",
          "name": "account",
          "type": "address"
        }
      ],
      "name": "renounceRole",
      "outputs": [],
      "stateMutability": "nonpayable",
      "type": "function"
    },
    {
      "inputs": [
        {
          "internalType": "uint256",
          "name": "removalId",
          "type": "uint256"
        }
      ],
      "name": "reserveRemoval",
      "outputs": [
        {
          "internalType": "bool",
          "name": "",
          "type": "bool"
        }
      ],
      "stateMutability": "nonpayable",
      "type": "function"
    },
    {
      "inputs": [
        {
          "internalType": "bytes32",
          "name": "role",
          "type": "bytes32"
        },
        {
          "internalType": "address",
          "name": "account",
          "type": "address"
        }
      ],
      "name": "revokeRole",
      "outputs": [],
      "stateMutability": "nonpayable",
      "type": "function"
    },
    {
      "inputs": [
        {
          "internalType": "uint256",
          "name": "threshold",
          "type": "uint256"
        }
      ],
      "name": "setPriorityRestrictedThreshold",
      "outputs": [],
      "stateMutability": "nonpayable",
      "type": "function"
    },
    {
      "inputs": [
        {
          "internalType": "bytes4",
          "name": "interfaceId",
          "type": "bytes4"
        }
      ],
      "name": "supportsInterface",
      "outputs": [
        {
          "internalType": "bool",
          "name": "",
          "type": "bool"
        }
      ],
      "stateMutability": "view",
      "type": "function"
    },
    {
      "inputs": [
        {
          "internalType": "address",
          "name": "",
          "type": "address"
        },
        {
          "internalType": "address",
          "name": "from",
          "type": "address"
        },
        {
          "internalType": "address",
          "name": "",
          "type": "address"
        },
        {
          "internalType": "uint256",
          "name": "amount",
          "type": "uint256"
        },
        {
          "internalType": "bytes",
          "name": "userData",
          "type": "bytes"
        },
        {
          "internalType": "bytes",
          "name": "",
          "type": "bytes"
        }
      ],
      "name": "tokensReceived",
      "outputs": [],
      "stateMutability": "nonpayable",
      "type": "function"
    },
    {
      "inputs": [],
      "name": "totalActiveSupply",
      "outputs": [
        {
          "internalType": "uint256",
          "name": "",
          "type": "uint256"
        }
      ],
      "stateMutability": "view",
      "type": "function"
    },
    {
      "inputs": [],
      "name": "totalNumberActiveRemovals",
      "outputs": [
        {
          "internalType": "uint256",
          "name": "",
          "type": "uint256"
        }
      ],
      "stateMutability": "view",
      "type": "function"
    },
    {
      "inputs": [],
      "name": "totalReservedSupply",
      "outputs": [
        {
          "internalType": "uint256",
          "name": "",
          "type": "uint256"
        }
      ],
      "stateMutability": "view",
      "type": "function"
    },
    {
      "inputs": [],
      "name": "totalUnrestrictedSupply",
      "outputs": [
        {
          "internalType": "uint256",
          "name": "",
          "type": "uint256"
        }
      ],
      "stateMutability": "view",
      "type": "function"
    },
    {
      "inputs": [
        {
          "internalType": "uint256",
          "name": "removalId",
          "type": "uint256"
        }
      ],
      "name": "unreserveRemoval",
      "outputs": [
        {
          "internalType": "bool",
          "name": "",
          "type": "bool"
        }
      ],
      "stateMutability": "nonpayable",
      "type": "function"
    }
  ],
  "bytecode": "0x608060405234801561001057600080fd5b50612f00806100206000396000f3fe608060405234801561001057600080fd5b50600436106101575760003560e01c806372069264116100c3578063bc197c811161007c578063bc197c81146102c5578063ca15c873146102f1578063d547741f14610304578063d797462f14610317578063f23a6e611461032a578063f7013ef61461034957600080fd5b8063720692641461025a5780637530b450146102645780639010d07c1461026c57806391d148541461029757806397a11ee9146102aa578063a217fddf146102bd57600080fd5b80633030b532116101155780633030b532146101f1578063361b7b9d1461021857806336568abe146102225780633eb12cee1461023557806359e1a71c1461023d578063674d13c81461025057600080fd5b806223de291461015c57806301ffc9a71461017157806312de2b0514610199578063179f0445146101b1578063248a9ca3146101bb5780632f2ff15d146101de575b600080fd5b61016f61016a3660046126e6565b61035c565b005b61018461017f366004612796565b610ec0565b60405190151581526020015b60405180910390f35b6101a36101335481565b604051908152602001610190565b6101a36101345481565b6101a36101c93660046127c0565b60009081526065602052604090206001015490565b61016f6101ec3660046127d9565b610ee0565b6101a37f26a560d834a19637eccba4611bbc09fb32970bb627da0a70f14f83fdc9822cbc81565b6101a36101375481565b61016f6102303660046127d9565b610f0b565b6101a3610f89565b61018461024b3660046127c0565b6110ee565b6101a36101365481565b6101a36101355481565b6101a36112c7565b61027f61027a366004612809565b6112f4565b6040516001600160a01b039091168152602001610190565b6101846102a53660046127d9565b611313565b6101846102b83660046127c0565b61133e565b6101a3600081565b6102d86102d336600461295f565b61151f565b6040516001600160e01b03199091168152602001610190565b6101a36102ff3660046127c0565b6116dd565b61016f6103123660046127d9565b6116f4565b61016f6103253660046127c0565b61171a565b6102d8610338366004612a0c565b63f23a6e6160e01b95945050505050565b61016f610357366004612a74565b611763565b610135546000036103ab5760405162461bcd60e51b81526020600482015260146024820152734d61726b65743a204f7574206f662073746f636b60601b60448201526064015b60405180910390fd5b61013354610135541161043c576103e27f26a560d834a19637eccba4611bbc09fb32970bb627da0a70f14f83fdc9822cbc88611313565b61043c5760405162461bcd60e51b815260206004820152602560248201527f4c6f7720737570706c7920616e64206275796572206e6f74206f6e20616c6c6f6044820152641ddb1a5cdd60da1b60648201526084016103a2565b600061013254606461044e9190612aee565b610459876064612b06565b6104639190612b25565b905080600061047486880188612b47565b90506001600160a01b0381166104d85760405162461bcd60e51b8152602060048201526024808201527f4d61726b65743a2043616e6e6f74206d696e7420746f207468652030206164646044820152637265737360e01b60648201526084016103a2565b610130546001600160a01b031633146105595760405162461bcd60e51b815260206004820152603960248201527f4d61726b65743a205468697320636f6e74726163742063616e206f6e6c79207260448201527f6563656976652042726964676564506f6c79676f6e4e4f52490000000000000060648201526084016103a2565b6000610134546001600160401b038111156105765761057661282b565b60405190808252806020026020018201604052801561059f578160200160208202803683370190505b5090506000610134546001600160401b038111156105bf576105bf61282b565b6040519080825280602002602001820160405280156105e8578160200160208202803683370190505b5090506000610134546001600160401b038111156106085761060861282b565b604051908082528060200260200182016040528015610631578160200160208202803683370190505b509050600061064261013454611998565b60005b610134548110156109ee5761067481604051806040016040528060018152602001601f60fa1b815250896119e0565b610138546001600160a01b0316600090815261013a6020526040812061069a9082611a27565b61012e54604051627eeac760e11b815230600482015260248101839052919450600093506001600160a01b0316915062fdd58e90604401602060405180830381865afa1580156106ee573d6000803e3d6000fd5b505050506040513d601f19601f820116820180604052508101906107129190612b64565b905061074461072083611a7a565b61ffff16604051806040016040528060018152602001602d60f81b815250836119e0565b808910156107d6578187858151811061075f5761075f612b7d565b6020026020010181815250508886858151811061077e5761077e612b7d565b60209081029190910101526101385485516001600160a01b03909116908690869081106107ad576107ad612b7d565b60200260200101906001600160a01b031690816001600160a01b031681525050600098506109bd565b6001610134546107e69190612b93565b831480156107f357508089115b156108405760405162461bcd60e51b815260206004820152601960248201527f4d61726b65743a204e6f7420656e6f75676820737570706c790000000000000060448201526064016103a2565b8187858151811061085357610853612b7d565b6020026020010181815250508086858151811061087257610872612b7d565b60209081029190910101526101385485516001600160a01b03909116908690869081106108a1576108a1612b7d565b6001600160a01b03909216602092830291909101909101526108c3818a612b93565b610138546001600160a01b0316600090815261013a6020526040902090995082906108ed90611a89565b1461094c5760405162461bcd60e51b815260206004820152602960248201527f4d61726b65743a204661696c656420746f20706f702072656d6f76616c2066726044820152686f6d20737570706c7960b81b60648201526084016103a2565b610138546001600160a01b0316600090815261013a602052604090205460000361098b5761013854610986906001600160a01b0316611a96565b6109bd565b610138546001600160a01b0390811660008181526101396020526040902060010154909116146109bd576109bd611bb8565b836109c781612baa565b945050886000036109d95750506109ee565b505080806109e690612baa565b915050610645565b506000816001600160401b03811115610a0957610a0961282b565b604051908082528060200260200182016040528015610a32578160200160208202803683370190505b5090506000826001600160401b03811115610a4f57610a4f61282b565b604051908082528060200260200182016040528015610a78578160200160208202803683370190505b50905060005b83811015610b0757868181518110610a9857610a98612b7d565b6020026020010151838281518110610ab257610ab2612b7d565b602002602001018181525050858181518110610ad057610ad0612b7d565b6020026020010151828281518110610aea57610aea612b7d565b602090810291909101015280610aff81612baa565b915050610a7e565b50600089604051602001610b1d91815260200190565b60408051601f198184030181529082905261012f54630fbfeffd60e11b83529092506001600160a01b031690631f7fdffa90610b63908b90879087908790600401612c5a565b600060405180830381600087803b158015610b7d57600080fd5b505af1158015610b91573d6000803e3d6000fd5b5050505060005b8351811015610e445761012e5484516001600160a01b039091169062fdd58e903090879085908110610bcc57610bcc612b7d565b60200260200101516040518363ffffffff1660e01b8152600401610c059291906001600160a01b03929092168252602082015260400190565b602060405180830381865afa158015610c22573d6000803e3d6000fd5b505050506040513d601f19601f82011682018060405250810190610c469190612b64565b838281518110610c5857610c58612b7d565b602002602001015103610c7f5760016101346000828254610c799190612b93565b90915550505b828181518110610c9157610c91612b7d565b60200260200101516101356000828254610cab9190612b93565b925050819055506000610132546064858481518110610ccc57610ccc612b7d565b6020026020010151610cde9190612b25565b610ce89190612b06565b90506000848381518110610cfe57610cfe612b7d565b6020908102919091010151610130546101315460405163a9059cbb60e01b81526001600160a01b03918216600482015260248101869052929350169063a9059cbb906044016020604051808303816000875af1158015610d62573d6000803e3d6000fd5b505050506040513d601f19601f82011682018060405250810190610d869190612ca4565b506101305488516001600160a01b039091169063a9059cbb908a9086908110610db157610db1612b7d565b6020026020010151836040518363ffffffff1660e01b8152600401610deb9291906001600160a01b03929092168252602082015260400190565b6020604051808303816000875af1158015610e0a573d6000803e3d6000fd5b505050506040513d601f19601f82011682018060405250810190610e2e9190612ca4565b5050508080610e3c90612baa565b915050610b98565b5061012e54604051631ac8311560e21b81526001600160a01b0390911690636b20c45490610e7a90309087908790600401612cc6565b600060405180830381600087803b158015610e9457600080fd5b505af1158015610ea8573d6000803e3d6000fd5b50505050505050505050505050505050505050505050565b6000610ecb82611bed565b80610eda5750610eda82611c12565b92915050565b600082815260656020526040902060010154610efc8133611c37565b610f068383611c9b565b505050565b6001600160a01b0381163314610f7b5760405162461bcd60e51b815260206004820152602f60248201527f416363657373436f6e74726f6c3a2063616e206f6e6c792072656e6f756e636560448201526e103937b632b9903337b91039b2b63360891b60648201526084016103a2565b610f858282611cbd565b5050565b6101385460009081906001600160a01b0316815b610137548110156110e6576001600160a01b038216600090815261013a60205260408120610fcb9082611a27565b9250505060005b6001600160a01b038416600090815261013a60205260409020548110156110b05761012e54604051627eeac760e11b8152306004820152602481018490526000916001600160a01b03169062fdd58e90604401602060405180830381865afa158015611042573d6000803e3d6000fd5b505050506040513d601f19601f820116820180604052508101906110669190612b64565b6001600160a01b038616600090815261013a6020526040902090915061108c9084611cdf565b935061109a90508187612aee565b95505080806110a890612baa565b915050610fd2565b50506001600160a01b039182166000908152610139602052604090206001015490911690806110de81612baa565b915050610f9d565b509092915050565b6000806110fa83611cfa565b6001600160a01b038116600090815261013a6020526040902090915083906111229082611d09565b1461117b5760405162461bcd60e51b8152602060048201526024808201527f4d61726b65743a2072656d6f76616c206e6f7420696e2061637469766520737560448201526370706c7960e01b60648201526084016103a2565b6001610134600082825461118f9190612b93565b909155505061012e54604051627eeac760e11b8152306004820152602481018590526000916001600160a01b03169062fdd58e90604401602060405180830381865afa1580156111e3573d6000803e3d6000fd5b505050506040513d601f19601f820116820180604052508101906112079190612b64565b905080610135600082825461121c9190612b93565b925050819055508061013660008282546112369190612aee565b90915550506001600160a01b038216600090815261013a60205260409020546000036112655761126582611a96565b61127161013b85611da3565b6112bd5760405162461bcd60e51b815260206004820181905260248201527f4d61726b65743a2052656d6f76616c20616c726561647920726573657276656460448201526064016103a2565b5060019392505050565b6000610133546101355410156112dd5750600090565b61013354610135546112ef9190612b93565b905090565b600082815260976020526040812061130c9083611db1565b9392505050565b60009182526065602090815260408084206001600160a01b0393909316845291905290205460ff1690565b60008061134a83611cfa565b90508261135961013b82611d09565b146113b55760405162461bcd60e51b815260206004820152602660248201527f4d61726b65743a2072656d6f76616c206e6f7420696e20726573657276656420604482015265737570706c7960d01b60648201526084016103a2565b600161013460008282546113c99190612aee565b909155505061012e54604051627eeac760e11b8152306004820152602481018590526000916001600160a01b03169062fdd58e90604401602060405180830381865afa15801561141d573d6000803e3d6000fd5b505050506040513d601f19601f820116820180604052508101906114419190612b64565b90508061013560008282546114569190612aee565b925050819055508061013660008282546114709190612b93565b90915550506001600160a01b038216600090815261013a602052604090205460000361149f5761149f82611dbd565b6001600160a01b038216600090815261013a602052604090206114c29085611ee6565b15156001146112bd5760405162461bcd60e51b815260206004820152602360248201527f4d61726b65743a20556e61626c6520746f20756e726573657276652072656d6f6044820152621d985b60ea1b60648201526084016103a2565b6000805b84518110156116ca57600085828151811061154057611540612b7d565b602090810291909101015161012e54604051627eeac760e11b8152306004820152602481018390529192506000916001600160a01b039091169062fdd58e90604401602060405180830381865afa15801561159f573d6000803e3d6000fd5b505050506040513d601f19601f820116820180604052508101906115c39190612b64565b905060006115d083611cfa565b6001600160a01b038116600090815261013a602052604090209091506115f69084611ee6565b6116535760405162461bcd60e51b815260206004820152602860248201527f4d61726b65743a20556e61626c6520746f206164642072656d6f76616c2062796044820152672076696e7461676560c01b60648201526084016103a2565b6001600160a01b03818116600090815261013960205260409020600101541661167f5761167f81611dbd565b8161013560008282546116929190612aee565b92505081905550600161013460008282546116ad9190612aee565b9250508190555050505080806116c290612baa565b915050611523565b5063bc197c8160e01b9695505050505050565b6000818152609760205260408120610eda90611f95565b6000828152606560205260409020600101546117108133611c37565b610f068383611cbd565b60006117268133611c37565b6101338290556040518281527f7ab6aa6547859e9ca74d567d44fefa0d63272ac019f4ebf9333032a62ea06fa59060200160405180910390a15050565b600054610100900460ff1661177e5760005460ff1615611782565b303b155b6117e55760405162461bcd60e51b815260206004820152602e60248201527f496e697469616c697a61626c653a20636f6e747261637420697320616c72656160448201526d191e481a5b9a5d1a585b1a5e995960921b60648201526084016103a2565b600054610100900460ff16158015611807576000805461ffff19166101011790555b61180f611f9f565b611817611f9f565b61181f611f9f565b611827611f9f565b61182f611f9f565b61012e80546001600160a01b03199081166001600160a01b03898116919091179092556101308054821688841617905561012f80548216878416179055610131805482169286169290921790915561013283905561012d8054731820a4b7618bde71dce8cdc73aab6c95905fad249216821790556040516329965a1d60e01b815230600482018190527fb281fc8c12954d22544db45de3159a39272895b169a852b314f9cc762e44c53b602483015260448201526329965a1d90606401600060405180830381600087803b15801561190657600080fd5b505af115801561191a573d6000803e3d6000fd5b5050600061013381905561013581905561013681905561013481905561013880546001600160a01b03191690556119549250905033611c9b565b61197e7f26a560d834a19637eccba4611bbc09fb32970bb627da0a70f14f83fdc9822cbc33611c9b565b8015611990576000805461ff00191690555b505050505050565b6119dd816040516024016119ae91815260200190565b60408051601f198184030181529190526020810180516001600160e01b031663f5b1bba960e01b17905261200c565b50565b610f068383836040516024016119f893929190612cfc565b60408051601f198184030181529190526020810180516001600160e01b0316635b6de83f60e01b17905261200c565b6000806000611a36858561202d565b611a4857506000915081905080611a73565b5050506000818152600183810160209081526040808420848052909152808320548284529220549091905b9250925092565b6000610eda826002601c6120b1565b6000610eda8260016120fd565b6001600160a01b03808216600081815261013960205260409020600101549091169003611ad35761013880546001600160a01b0319169055611b45565b6001600160a01b03818116600081815261013960205260408082206001808201805483548816865284862090920180549288166001600160a01b0319938416179055915491548616845291909220805492851692909116919091179055610138549091169003611b4557611b45611bb8565b604080518082018252600080825260208083018281526001600160a01b038681168452610139909252938220925183546001600160a01b0319908116918316919091178455935160019384018054909516911617909255610137805491929091611bb0908490612b93565b909155505050565b61013880546001600160a01b0380821660009081526101396020526040902060010154166001600160a01b0319909116179055565b60006001600160e01b03198216635a05180f60e01b1480610eda5750610eda82612122565b60006001600160e01b03198216630271189760e51b1480610eda5750610eda82611bed565b611c418282611313565b610f8557611c59816001600160a01b03166014612157565b611c64836020612157565b604051602001611c75929190612d25565b60408051601f198184030181529082905262461bcd60e51b82526103a291600401612d9a565b611ca582826122f2565b6000828152609760205260409020610f069082612378565b611cc7828261238d565b6000828152609760205260409020610f0690826123f4565b600080611cee84846001612409565b915091505b9250929050565b6000610eda82601460046120b1565b6000811580611d1f5750611d1d838361202d565b155b15611d2c57506000610eda565b600082815260018481016020908152604080842084805290915280832054828452922054611d5e928692909190612450565b60008281526001848101602090815260408084208480529091528083208390558183528220829055845490918591611d97908490612b93565b90915550919392505050565b600061130c83836000612485565b600061130c8383612494565b610138546001600160a01b0316611e385761013880546001600160a01b03199081166001600160a01b0384811691821790935560408051808201825282815260208082018481526000948552610139909152919092209151825484169085161782555160019190910180549092169216919091179055611ed2565b60408051808201825261013880546001600160a01b03908116600081815261013960208181528783205485168752808701938452888516808452919052868220955186549085166001600160a01b0319918216178755925160019687018054918616918516919091179055845484168252868220548416825286822090950180548316861790559254909116825292902080549092161790555b60016101376000828254611bb09190612aee565b600080611ef38482611a27565b925050506000611f0282611a7a565b61ffff1690506000611f1385611a7a565b61ffff169050611f2281611998565b60005b8654811015611f805781831015611f5857611f408785611cdf565b9450611f4d905084611a7a565b61ffff169250611f6e565b611f638785886124be565b945050505050610eda565b80611f7881612baa565b915050611f25565b50611f8b8686611da3565b9695505050505050565b6000610eda825490565b600054610100900460ff1661200a5760405162461bcd60e51b815260206004820152602b60248201527f496e697469616c697a61626c653a20636f6e7472616374206973206e6f74206960448201526a6e697469616c697a696e6760a81b60648201526084016103a2565b565b80516a636f6e736f6c652e6c6f67602083016000808483855afa5050505050565b6000818152600183016020908152604080832083805290915281205415801561207057506000828152600180850160209081526040808420928452919052902054155b156120a95760008080526001808501602090815260408084209284529190529020548290036120a157506001610eda565b506000610eda565b506001610eda565b6000806120bf600884612b06565b60016120cc600887612b06565b6120d7906002612e91565b6120e19190612b93565b901b90508481166120f3600885612b06565b1c95945050505050565b60008061210c84600085612409565b915061211a90508482611d09565b949350505050565b60006001600160e01b03198216637965db0b60e01b1480610eda57506301ffc9a760e01b6001600160e01b0319831614610eda565b60606000612166836002612b06565b612171906002612aee565b6001600160401b038111156121885761218861282b565b6040519080825280601f01601f1916602001820160405280156121b2576020820181803683370190505b509050600360fc1b816000815181106121cd576121cd612b7d565b60200101906001600160f81b031916908160001a905350600f60fb1b816001815181106121fc576121fc612b7d565b60200101906001600160f81b031916908160001a9053506000612220846002612b06565b61222b906001612aee565b90505b60018111156122a3576f181899199a1a9b1b9c1cb0b131b232b360811b85600f166010811061225f5761225f612b7d565b1a60f81b82828151811061227557612275612b7d565b60200101906001600160f81b031916908160001a90535060049490941c9361229c81612e9d565b905061222e565b50831561130c5760405162461bcd60e51b815260206004820181905260248201527f537472696e67733a20686578206c656e67746820696e73756666696369656e7460448201526064016103a2565b6122fc8282611313565b610f855760008281526065602090815260408083206001600160a01b03851684529091529020805460ff191660011790556123343390565b6001600160a01b0316816001600160a01b0316837f2f8788117e7eff1d82e926ec794901d17c78024a50270940304540a733656f0d60405160405180910390a45050565b600061130c836001600160a01b0384166124cd565b6123978282611313565b15610f855760008281526065602090815260408083206001600160a01b0385168085529252808320805460ff1916905551339285917ff6391f5c32d9c69d2a47ea670b442974b53935d1edc7fd64eb21e047a839171b9190a45050565b600061130c836001600160a01b038416612514565b600080612416858561202d565b61242557506000905080612448565b505060008281526001848101602090815260408084208515158552909152909120545b935093915050565b600082815260019094016020818152604080872093158088529382528087208690559486529081528385209115855252912055565b600061211a8460008585612607565b60008260000182815481106124ab576124ab612b7d565b9060005260206000200154905092915050565b600061211a8484846000612607565b60008181526001830160205260408120546120a157508154600181810184556000848152602080822090930184905584548482528286019093526040902091909155610eda565b600081815260018301602052604081205480156125fd576000612538600183612b93565b855490915060009061254c90600190612b93565b90508181146125b157600086600001828154811061256c5761256c612b7d565b906000526020600020015490508087600001848154811061258f5761258f612b7d565b6000918252602080832090910192909255918252600188019052604090208390555b85548690806125c2576125c2612eb4565b600190038181906000526020600020016000905590558560010160008681526020019081526020016000206000905560019350505050610eda565b6000915050610eda565b6000612613858461202d565b1580156126255750612625858561202d565b156126855760008481526001860160209081526040808320851515845290915290205461265486868686612450565b61266086858386612450565b60018660000160008282546126759190612aee565b909155506001925061211a915050565b506000949350505050565b6001600160a01b03811681146119dd57600080fd5b60008083601f8401126126b757600080fd5b5081356001600160401b038111156126ce57600080fd5b602083019150836020828501011115611cf357600080fd5b60008060008060008060008060c0898b03121561270257600080fd5b883561270d81612690565b9750602089013561271d81612690565b9650604089013561272d81612690565b95506060890135945060808901356001600160401b038082111561275057600080fd5b61275c8c838d016126a5565b909650945060a08b013591508082111561277557600080fd5b506127828b828c016126a5565b999c989b5096995094979396929594505050565b6000602082840312156127a857600080fd5b81356001600160e01b03198116811461130c57600080fd5b6000602082840312156127d257600080fd5b5035919050565b600080604083850312156127ec57600080fd5b8235915060208301356127fe81612690565b809150509250929050565b6000806040838503121561281c57600080fd5b50508035926020909101359150565b634e487b7160e01b600052604160045260246000fd5b604051601f8201601f191681016001600160401b03811182821017156128695761286961282b565b604052919050565b600082601f83011261288257600080fd5b813560206001600160401b0382111561289d5761289d61282b565b8160051b6128ac828201612841565b92835284810182019282810190878511156128c657600080fd5b83870192505b848310156128e5578235825291830191908301906128cc565b979650505050505050565b600082601f83011261290157600080fd5b81356001600160401b0381111561291a5761291a61282b565b61292d601f8201601f1916602001612841565b81815284602083860101111561294257600080fd5b816020850160208301376000918101602001919091529392505050565b600080600080600060a0868803121561297757600080fd5b853561298281612690565b9450602086013561299281612690565b935060408601356001600160401b03808211156129ae57600080fd5b6129ba89838a01612871565b945060608801359150808211156129d057600080fd5b6129dc89838a01612871565b935060808801359150808211156129f257600080fd5b506129ff888289016128f0565b9150509295509295909350565b600080600080600060a08688031215612a2457600080fd5b8535612a2f81612690565b94506020860135612a3f81612690565b9350604086013592506060860135915060808601356001600160401b03811115612a6857600080fd5b6129ff888289016128f0565b600080600080600060a08688031215612a8c57600080fd5b8535612a9781612690565b94506020860135612aa781612690565b93506040860135612ab781612690565b92506060860135612ac781612690565b949793965091946080013592915050565b634e487b7160e01b600052601160045260246000fd5b60008219821115612b0157612b01612ad8565b500190565b6000816000190483118215151615612b2057612b20612ad8565b500290565b600082612b4257634e487b7160e01b600052601260045260246000fd5b500490565b600060208284031215612b5957600080fd5b813561130c81612690565b600060208284031215612b7657600080fd5b5051919050565b634e487b7160e01b600052603260045260246000fd5b600082821015612ba557612ba5612ad8565b500390565b600060018201612bbc57612bbc612ad8565b5060010190565b600081518084526020808501945080840160005b83811015612bf357815187529582019590820190600101612bd7565b509495945050505050565b60005b83811015612c19578181015183820152602001612c01565b83811115612c28576000848401525b50505050565b60008151808452612c46816020860160208601612bfe565b601f01601f19169290920160200192915050565b6001600160a01b0385168152608060208201819052600090612c7e90830186612bc3565b8281036040840152612c908186612bc3565b905082810360608401526128e58185612c2e565b600060208284031215612cb657600080fd5b8151801515811461130c57600080fd5b6001600160a01b0384168152606060208201819052600090612cea90830185612bc3565b8281036040840152611f8b8185612bc3565b838152606060208201526000612d156060830185612c2e565b9050826040830152949350505050565b7f416363657373436f6e74726f6c3a206163636f756e7420000000000000000000815260008351612d5d816017850160208801612bfe565b7001034b99036b4b9b9b4b733903937b6329607d1b6017918401918201528351612d8e816028840160208801612bfe565b01602801949350505050565b60208152600061130c6020830184612c2e565b600181815b80851115612de8578160001904821115612dce57612dce612ad8565b80851615612ddb57918102915b93841c9390800290612db2565b509250929050565b600082612dff57506001610eda565b81612e0c57506000610eda565b8160018114612e225760028114612e2c57612e48565b6001915050610eda565b60ff841115612e3d57612e3d612ad8565b50506001821b610eda565b5060208310610133831016604e8410600b8410161715612e6b575081810a610eda565b612e758383612dad565b8060001904821115612e8957612e89612ad8565b029392505050565b600061130c8383612df0565b600081612eac57612eac612ad8565b506000190190565b634e487b7160e01b600052603160045260246000fdfea264697066735822122031da91cb22bd7ee5855e6844d6dbdaed304b20c63237900c75bdc6bdfb67dfe764736f6c634300080d0033",
  "linkReferences": {},
  "deployedLinkReferences": {}
}