{
  "_format": "hh-sol-artifact-1",
  "contractName": "FIFOMarket",
  "sourceName": "contracts/FIFOMarket.sol",
  "abi": [
    {
      "anonymous": false,
      "inputs": [
        {
          "indexed": false,
          "internalType": "uint256",
          "name": "threshold",
          "type": "uint256"
        }
      ],
      "name": "PriorityRestrictedThresholdSet",
      "type": "event"
    },
    {
      "anonymous": false,
      "inputs": [
        {
          "indexed": true,
          "internalType": "bytes32",
          "name": "role",
          "type": "bytes32"
        },
        {
          "indexed": true,
          "internalType": "bytes32",
          "name": "previousAdminRole",
          "type": "bytes32"
        },
        {
          "indexed": true,
          "internalType": "bytes32",
          "name": "newAdminRole",
          "type": "bytes32"
        }
      ],
      "name": "RoleAdminChanged",
      "type": "event"
    },
    {
      "anonymous": false,
      "inputs": [
        {
          "indexed": true,
          "internalType": "bytes32",
          "name": "role",
          "type": "bytes32"
        },
        {
          "indexed": true,
          "internalType": "address",
          "name": "account",
          "type": "address"
        },
        {
          "indexed": true,
          "internalType": "address",
          "name": "sender",
          "type": "address"
        }
      ],
      "name": "RoleGranted",
      "type": "event"
    },
    {
      "anonymous": false,
      "inputs": [
        {
          "indexed": true,
          "internalType": "bytes32",
          "name": "role",
          "type": "bytes32"
        },
        {
          "indexed": true,
          "internalType": "address",
          "name": "account",
          "type": "address"
        },
        {
          "indexed": true,
          "internalType": "address",
          "name": "sender",
          "type": "address"
        }
      ],
      "name": "RoleRevoked",
      "type": "event"
    },
    {
      "inputs": [],
      "name": "ALLOWLIST_ROLE",
      "outputs": [
        {
          "internalType": "bytes32",
          "name": "",
          "type": "bytes32"
        }
      ],
      "stateMutability": "view",
      "type": "function"
    },
    {
      "inputs": [],
      "name": "DEFAULT_ADMIN_ROLE",
      "outputs": [
        {
          "internalType": "bytes32",
          "name": "",
          "type": "bytes32"
        }
      ],
      "stateMutability": "view",
      "type": "function"
    },
    {
      "inputs": [
        {
          "internalType": "bytes32",
          "name": "role",
          "type": "bytes32"
        }
      ],
      "name": "getRoleAdmin",
      "outputs": [
        {
          "internalType": "bytes32",
          "name": "",
          "type": "bytes32"
        }
      ],
      "stateMutability": "view",
      "type": "function"
    },
    {
      "inputs": [
        {
          "internalType": "bytes32",
          "name": "role",
          "type": "bytes32"
        },
        {
          "internalType": "uint256",
          "name": "index",
          "type": "uint256"
        }
      ],
      "name": "getRoleMember",
      "outputs": [
        {
          "internalType": "address",
          "name": "",
          "type": "address"
        }
      ],
      "stateMutability": "view",
      "type": "function"
    },
    {
      "inputs": [
        {
          "internalType": "bytes32",
          "name": "role",
          "type": "bytes32"
        }
      ],
      "name": "getRoleMemberCount",
      "outputs": [
        {
          "internalType": "uint256",
          "name": "",
          "type": "uint256"
        }
      ],
      "stateMutability": "view",
      "type": "function"
    },
    {
      "inputs": [
        {
          "internalType": "bytes32",
          "name": "role",
          "type": "bytes32"
        },
        {
          "internalType": "address",
          "name": "account",
          "type": "address"
        }
      ],
      "name": "grantRole",
      "outputs": [],
      "stateMutability": "nonpayable",
      "type": "function"
    },
    {
      "inputs": [
        {
          "internalType": "bytes32",
          "name": "role",
          "type": "bytes32"
        },
        {
          "internalType": "address",
          "name": "account",
          "type": "address"
        }
      ],
      "name": "hasRole",
      "outputs": [
        {
          "internalType": "bool",
          "name": "",
          "type": "bool"
        }
      ],
      "stateMutability": "view",
      "type": "function"
    },
    {
      "inputs": [
        {
          "internalType": "address",
          "name": "removalAddress",
          "type": "address"
        },
        {
          "internalType": "address",
          "name": "bridgedPolygonNoriAddress",
          "type": "address"
        },
        {
          "internalType": "address",
          "name": "certificateAddress",
          "type": "address"
        },
        {
          "internalType": "address",
          "name": "noriFeeWalletAddress",
          "type": "address"
        },
        {
          "internalType": "uint256",
          "name": "noriFee",
          "type": "uint256"
        }
      ],
      "name": "initialize",
      "outputs": [],
      "stateMutability": "nonpayable",
      "type": "function"
    },
    {
      "inputs": [
        {
          "internalType": "bool",
          "name": "includePriorityRestrictedSupply",
          "type": "bool"
        }
      ],
      "name": "nextRemovalForSale",
      "outputs": [
        {
          "internalType": "uint256",
          "name": "",
          "type": "uint256"
        }
      ],
      "stateMutability": "view",
      "type": "function"
    },
    {
      "inputs": [],
      "name": "numberOfNrtsInQueueComputed",
      "outputs": [
        {
          "internalType": "uint256",
          "name": "",
          "type": "uint256"
        }
      ],
      "stateMutability": "view",
      "type": "function"
    },
    {
      "inputs": [
        {
          "internalType": "address",
          "name": "",
          "type": "address"
        },
        {
          "internalType": "address",
          "name": "",
          "type": "address"
        },
        {
          "internalType": "uint256[]",
          "name": "ids",
          "type": "uint256[]"
        },
        {
          "internalType": "uint256[]",
          "name": "",
          "type": "uint256[]"
        },
        {
          "internalType": "bytes",
          "name": "",
          "type": "bytes"
        }
      ],
      "name": "onERC1155BatchReceived",
      "outputs": [
        {
          "internalType": "bytes4",
          "name": "",
          "type": "bytes4"
        }
      ],
      "stateMutability": "nonpayable",
      "type": "function"
    },
    {
      "inputs": [
        {
          "internalType": "address",
          "name": "",
          "type": "address"
        },
        {
          "internalType": "address",
          "name": "",
          "type": "address"
        },
        {
          "internalType": "uint256",
          "name": "",
          "type": "uint256"
        },
        {
          "internalType": "uint256",
          "name": "",
          "type": "uint256"
        },
        {
          "internalType": "bytes",
          "name": "",
          "type": "bytes"
        }
      ],
      "name": "onERC1155Received",
      "outputs": [
        {
          "internalType": "bytes4",
          "name": "",
          "type": "bytes4"
        }
      ],
      "stateMutability": "nonpayable",
      "type": "function"
    },
    {
      "inputs": [],
      "name": "priorityRestrictedThreshold",
      "outputs": [
        {
          "internalType": "uint256",
          "name": "",
          "type": "uint256"
        }
      ],
      "stateMutability": "view",
      "type": "function"
    },
    {
      "inputs": [
        {
          "internalType": "bytes32",
          "name": "role",
          "type": "bytes32"
        },
        {
          "internalType": "address",
          "name": "account",
          "type": "address"
        }
      ],
      "name": "renounceRole",
      "outputs": [],
      "stateMutability": "nonpayable",
      "type": "function"
    },
    {
      "inputs": [
        {
          "internalType": "bytes32",
          "name": "role",
          "type": "bytes32"
        },
        {
          "internalType": "address",
          "name": "account",
          "type": "address"
        }
      ],
      "name": "revokeRole",
      "outputs": [],
      "stateMutability": "nonpayable",
      "type": "function"
    },
    {
      "inputs": [
        {
          "internalType": "uint256",
          "name": "threshold",
          "type": "uint256"
        }
      ],
      "name": "setPriorityRestrictedThreshold",
      "outputs": [],
      "stateMutability": "nonpayable",
      "type": "function"
    },
    {
      "inputs": [
        {
          "internalType": "bytes4",
          "name": "interfaceId",
          "type": "bytes4"
        }
      ],
      "name": "supportsInterface",
      "outputs": [
        {
          "internalType": "bool",
          "name": "",
          "type": "bool"
        }
      ],
      "stateMutability": "view",
      "type": "function"
    },
    {
      "inputs": [
        {
          "internalType": "address",
          "name": "",
          "type": "address"
        },
        {
          "internalType": "address",
          "name": "from",
          "type": "address"
        },
        {
          "internalType": "address",
          "name": "",
          "type": "address"
        },
        {
          "internalType": "uint256",
          "name": "amount",
          "type": "uint256"
        },
        {
          "internalType": "bytes",
          "name": "userData",
          "type": "bytes"
        },
        {
          "internalType": "bytes",
          "name": "",
          "type": "bytes"
        }
      ],
      "name": "tokensReceived",
      "outputs": [],
      "stateMutability": "nonpayable",
      "type": "function"
    },
    {
      "inputs": [],
      "name": "totalSupply",
      "outputs": [
        {
          "internalType": "uint256",
          "name": "",
          "type": "uint256"
        }
      ],
      "stateMutability": "view",
      "type": "function"
    }
  ],
  "bytecode": "0x608060405234801561001057600080fd5b506120d8806100206000396000f3fe608060405234801561001057600080fd5b50600436106101205760003560e01c80639010d07c116100ad578063ca15c87311610071578063ca15c87314610281578063d547741f14610294578063d797462f146102a7578063f23a6e61146102ba578063f7013ef6146102d957600080fd5b80639010d07c1461020757806391d1485414610232578063a0f4031714610245578063a217fddf1461024d578063bc197c811461025557600080fd5b806318160ddd116100f457806318160ddd1461018d578063248a9ca3146101975780632f2ff15d146101ba5780633030b532146101cd57806336568abe146101f457600080fd5b806223de291461012557806301ffc9a71461013a57806312de2b051461016257806315d0a4cd1461017a575b600080fd5b6101386101333660046118b1565b6102ec565b005b61014d610148366004611962565b610c2d565b60405190151581526020015b60405180910390f35b61016c6101365481565b604051908152602001610159565b61016c61018836600461199a565b610c4d565b61016c6101375481565b61016c6101a53660046119b7565b60009081526065602052604090206001015490565b6101386101c83660046119d0565b610c7c565b61016c7f26a560d834a19637eccba4611bbc09fb32970bb627da0a70f14f83fdc9822cbc81565b6101386102023660046119d0565b610ca7565b61021a610215366004611a00565b610d25565b6040516001600160a01b039091168152602001610159565b61014d6102403660046119d0565b610d44565b61016c610d6f565b61016c600081565b610268610263366004611b59565b610e2c565b6040516001600160e01b03199091168152602001610159565b61016c61028f3660046119b7565b610f69565b6101386102a23660046119d0565b610f80565b6101386102b53660046119b7565b610fa6565b6102686102c8366004611c07565b63f23a6e6160e01b95945050505050565b6101386102e7366004611c70565b610fef565b6101375460000361033b5760405162461bcd60e51b81526020600482015260146024820152734d61726b65743a204f7574206f662073746f636b60601b60448201526064015b60405180910390fd5b6101365461013754116103cc576103727f26a560d834a19637eccba4611bbc09fb32970bb627da0a70f14f83fdc9822cbc88610d44565b6103cc5760405162461bcd60e51b815260206004820152602560248201527f4c6f7720737570706c7920616e64206275796572206e6f74206f6e20616c6c6f6044820152641ddb1a5cdd60da1b6064820152608401610332565b60006101355460646103de9190611cea565b6103e9876064611d02565b6103f39190611d21565b905080600061040486880188611d43565b90506101335461013254036104575760405162461bcd60e51b81526020600482015260196024820152784d61726b65743a204e6f7420656e6f75676820737570706c7960381b6044820152606401610332565b6001600160a01b0381166104b95760405162461bcd60e51b8152602060048201526024808201527f4d61726b65743a2043616e6e6f74206d696e7420746f207468652030206164646044820152637265737360e01b6064820152608401610332565b610130546001600160a01b0316331461053a5760405162461bcd60e51b815260206004820152603960248201527f4d61726b65743a205468697320636f6e74726163742063616e206f6e6c79207260448201527f6563656976652042726964676564506f6c79676f6e4e4f5249000000000000006064820152608401610332565b6000610544611213565b67ffffffffffffffff81111561055c5761055c611a22565b604051908082528060200260200182016040528015610585578160200160208202803683370190505b5090506000610592611213565b67ffffffffffffffff8111156105aa576105aa611a22565b6040519080825280602002602001820160405280156105d3578160200160208202803683370190505b50905060006105e0611213565b67ffffffffffffffff8111156105f8576105f8611a22565b604051908082528060200260200182016040528015610621578160200160208202803683370190505b50610132549091505b6101335481101561087b5761012e5460008281526101316020526040808220549051627eeac760e11b8152306004820152602481019190915290916001600160a01b03169062fdd58e90604401602060405180830381865afa158015610694573d6000803e3d6000fd5b505050506040513d601f19601f820116820180604052508101906106b89190611d60565b60008381526101316020526040812054919250906106d59061122c565b90508188101561076a5760008381526101316020526040902054865187908590811061070357610703611d79565b6020026020010181815250508785848151811061072257610722611d79565b6020026020010181815250508084848151811061074157610741611d79565b60200260200101906001600160a01b031690816001600160a01b03168152505060009750610857565b60016101335461077a9190611d8f565b8314801561078757508188115b156107d05760405162461bcd60e51b81526020600482015260196024820152784d61726b65743a204e6f7420656e6f75676820737570706c7960381b6044820152606401610332565b6000838152610131602052604090205486518790859081106107f4576107f4611d79565b6020026020010181815250508185848151811061081357610813611d79565b6020026020010181815250508084848151811061083257610832611d79565b6001600160a01b03909216602092830291909101909101526108548289611d8f565b97505b8760000361086657505061087b565b5050808061087390611da6565b91505061062a565b5060008660405160200161089191815260200190565b60408051601f198184030181529082905261012f54630fbfeffd60e11b83529092506001600160a01b031690631f7fdffa906108d7908890889088908790600401611e56565b600060405180830381600087803b1580156108f157600080fd5b505af1158015610905573d6000803e3d6000fd5b5050505060005b8451811015610bb45783818151811061092757610927611d79565b602002602001015160000315610bb45783818151811061094957610949611d79565b602002602001015161013760008282546109639190611d8f565b909155505061012e546000828152610131602052604090819020549051627eeac760e11b815230600482015260248101919091526001600160a01b039091169062fdd58e90604401602060405180830381865afa1580156109c8573d6000803e3d6000fd5b505050506040513d601f19601f820116820180604052508101906109ec9190611d60565b8482815181106109fe576109fe611d79565b602002602001015103610a22576101328054906000610a1c83611da6565b91905055505b6000610135546064868481518110610a3c57610a3c611d79565b6020026020010151610a4e9190611d21565b610a589190611d02565b90506000858381518110610a6e57610a6e611d79565b6020908102919091010151610130546101345460405163a9059cbb60e01b81526001600160a01b03918216600482015260248101869052929350169063a9059cbb906044016020604051808303816000875af1158015610ad2573d6000803e3d6000fd5b505050506040513d601f19601f82011682018060405250810190610af69190611ea0565b506101305485516001600160a01b039091169063a9059cbb90879086908110610b2157610b21611d79565b6020026020010151836040518363ffffffff1660e01b8152600401610b5b9291906001600160a01b03929092168252602082015260400190565b6020604051808303816000875af1158015610b7a573d6000803e3d6000fd5b505050506040513d601f19601f82011682018060405250810190610b9e9190611ea0565b5050508080610bac90611da6565b91505061090c565b5061012e54604051631ac8311560e21b81526001600160a01b0390911690636b20c45490610bea90309088908890600401611ebd565b600060405180830381600087803b158015610c0457600080fd5b505af1158015610c18573d6000803e3d6000fd5b50505050505050505050505050505050505050565b6000610c388261123b565b80610c475750610c4782611260565b92915050565b610132546000908152610131602052604081205482610c4757610136546101375411610c475750600092915050565b600082815260656020526040902060010154610c988133611285565b610ca283836112e9565b505050565b6001600160a01b0381163314610d175760405162461bcd60e51b815260206004820152602f60248201527f416363657373436f6e74726f6c3a2063616e206f6e6c792072656e6f756e636560448201526e103937b632b9903337b91039b2b63360891b6064820152608401610332565b610d21828261130b565b5050565b6000828152609760205260408120610d3d908361132d565b9392505050565b60009182526065602090815260408084206001600160a01b0393909316845291905290205460ff1690565b6101325460009081905b61013354811015610e265761012e546000828152610131602052604090819020549051627eeac760e11b815230600482015260248101919091526001600160a01b039091169062fdd58e90604401602060405180830381865afa158015610de4573d6000803e3d6000fd5b505050506040513d601f19601f82011682018060405250810190610e089190611d60565b610e129083611cea565b915080610e1e81611da6565b915050610d79565b50919050565b6000805b8451811015610f565761012e5485516000916001600160a01b03169062fdd58e903090899086908110610e6557610e65611d79565b60200260200101516040518363ffffffff1660e01b8152600401610e9e9291906001600160a01b03929092168252602082015260400190565b602060405180830381865afa158015610ebb573d6000803e3d6000fd5b505050506040513d601f19601f82011682018060405250810190610edf9190611d60565b9050806101376000828254610ef49190611cea565b92505081905550858281518110610f0d57610f0d611d79565b602090810291909101810151610133805460009081526101319093526040832091909155805491610f3d83611da6565b9190505550508080610f4e90611da6565b915050610e30565b5063bc197c8160e01b9695505050505050565b6000818152609760205260408120610c4790611339565b600082815260656020526040902060010154610f9c8133611285565b610ca2838361130b565b6000610fb28133611285565b6101368290556040518281527f7ab6aa6547859e9ca74d567d44fefa0d63272ac019f4ebf9333032a62ea06fa59060200160405180910390a15050565b600054610100900460ff1661100a5760005460ff161561100e565b303b155b6110715760405162461bcd60e51b815260206004820152602e60248201527f496e697469616c697a61626c653a20636f6e747261637420697320616c72656160448201526d191e481a5b9a5d1a585b1a5e995960921b6064820152608401610332565b600054610100900460ff16158015611093576000805461ffff19166101011790555b61109b611343565b6110a3611343565b6110ab611343565b6110b3611343565b6110bb611343565b61012e80546001600160a01b03199081166001600160a01b03898116919091179092556101308054821688841617905561012f80548216878416179055610134805482169286169290921790915561013583905561012d8054731820a4b7618bde71dce8cdc73aab6c95905fad249216821790556040516329965a1d60e01b815230600482018190527fb281fc8c12954d22544db45de3159a39272895b169a852b314f9cc762e44c53b602483015260448201526329965a1d90606401600060405180830381600087803b15801561119257600080fd5b505af11580156111a6573d6000803e3d6000fd5b505060006101328190556101338190556101368190556101378190556111cf92509050336112e9565b6111f97f26a560d834a19637eccba4611bbc09fb32970bb627da0a70f14f83fdc9822cbc336112e9565b801561120b576000805461ff00191690555b505050505050565b600061013254610133546112279190611d8f565b905090565b6000610c4782601460046113b0565b60006001600160e01b03198216635a05180f60e01b1480610c475750610c47826113fc565b60006001600160e01b03198216630271189760e51b1480610c475750610c478261123b565b61128f8282610d44565b610d21576112a7816001600160a01b03166014611431565b6112b2836020611431565b6040516020016112c3929190611efd565b60408051601f198184030181529082905262461bcd60e51b825261033291600401611f72565b6112f382826115cd565b6000828152609760205260409020610ca29082611653565b6113158282611668565b6000828152609760205260409020610ca290826116cf565b6000610d3d83836116e4565b6000610c47825490565b600054610100900460ff166113ae5760405162461bcd60e51b815260206004820152602b60248201527f496e697469616c697a61626c653a20636f6e7472616374206973206e6f74206960448201526a6e697469616c697a696e6760a81b6064820152608401610332565b565b6000806113be600884611d02565b60016113cb600887611d02565b6113d6906002612069565b6113e09190611d8f565b901b90508481166113f2600885611d02565b1c95945050505050565b60006001600160e01b03198216637965db0b60e01b1480610c4757506301ffc9a760e01b6001600160e01b0319831614610c47565b60606000611440836002611d02565b61144b906002611cea565b67ffffffffffffffff81111561146357611463611a22565b6040519080825280601f01601f19166020018201604052801561148d576020820181803683370190505b509050600360fc1b816000815181106114a8576114a8611d79565b60200101906001600160f81b031916908160001a905350600f60fb1b816001815181106114d7576114d7611d79565b60200101906001600160f81b031916908160001a90535060006114fb846002611d02565b611506906001611cea565b90505b600181111561157e576f181899199a1a9b1b9c1cb0b131b232b360811b85600f166010811061153a5761153a611d79565b1a60f81b82828151811061155057611550611d79565b60200101906001600160f81b031916908160001a90535060049490941c9361157781612075565b9050611509565b508315610d3d5760405162461bcd60e51b815260206004820181905260248201527f537472696e67733a20686578206c656e67746820696e73756666696369656e746044820152606401610332565b6115d78282610d44565b610d215760008281526065602090815260408083206001600160a01b03851684529091529020805460ff1916600117905561160f3390565b6001600160a01b0316816001600160a01b0316837f2f8788117e7eff1d82e926ec794901d17c78024a50270940304540a733656f0d60405160405180910390a45050565b6000610d3d836001600160a01b03841661170e565b6116728282610d44565b15610d215760008281526065602090815260408083206001600160a01b0385168085529252808320805460ff1916905551339285917ff6391f5c32d9c69d2a47ea670b442974b53935d1edc7fd64eb21e047a839171b9190a45050565b6000610d3d836001600160a01b03841661175d565b60008260000182815481106116fb576116fb611d79565b9060005260206000200154905092915050565b600081815260018301602052604081205461175557508154600181810184556000848152602080822090930184905584548482528286019093526040902091909155610c47565b506000610c47565b60008181526001830160205260408120548015611846576000611781600183611d8f565b855490915060009061179590600190611d8f565b90508181146117fa5760008660000182815481106117b5576117b5611d79565b90600052602060002001549050808760000184815481106117d8576117d8611d79565b6000918252602080832090910192909255918252600188019052604090208390555b855486908061180b5761180b61208c565b600190038181906000526020600020016000905590558560010160008681526020019081526020016000206000905560019350505050610c47565b6000915050610c47565b6001600160a01b038116811461186557600080fd5b50565b60008083601f84011261187a57600080fd5b50813567ffffffffffffffff81111561189257600080fd5b6020830191508360208285010111156118aa57600080fd5b9250929050565b60008060008060008060008060c0898b0312156118cd57600080fd5b88356118d881611850565b975060208901356118e881611850565b965060408901356118f881611850565b955060608901359450608089013567ffffffffffffffff8082111561191c57600080fd5b6119288c838d01611868565b909650945060a08b013591508082111561194157600080fd5b5061194e8b828c01611868565b999c989b5096995094979396929594505050565b60006020828403121561197457600080fd5b81356001600160e01b031981168114610d3d57600080fd5b801515811461186557600080fd5b6000602082840312156119ac57600080fd5b8135610d3d8161198c565b6000602082840312156119c957600080fd5b5035919050565b600080604083850312156119e357600080fd5b8235915060208301356119f581611850565b809150509250929050565b60008060408385031215611a1357600080fd5b50508035926020909101359150565b634e487b7160e01b600052604160045260246000fd5b604051601f8201601f1916810167ffffffffffffffff81118282101715611a6157611a61611a22565b604052919050565b600082601f830112611a7a57600080fd5b8135602067ffffffffffffffff821115611a9657611a96611a22565b8160051b611aa5828201611a38565b9283528481018201928281019087851115611abf57600080fd5b83870192505b84831015611ade57823582529183019190830190611ac5565b979650505050505050565b600082601f830112611afa57600080fd5b813567ffffffffffffffff811115611b1457611b14611a22565b611b27601f8201601f1916602001611a38565b818152846020838601011115611b3c57600080fd5b816020850160208301376000918101602001919091529392505050565b600080600080600060a08688031215611b7157600080fd5b8535611b7c81611850565b94506020860135611b8c81611850565b9350604086013567ffffffffffffffff80821115611ba957600080fd5b611bb589838a01611a69565b94506060880135915080821115611bcb57600080fd5b611bd789838a01611a69565b93506080880135915080821115611bed57600080fd5b50611bfa88828901611ae9565b9150509295509295909350565b600080600080600060a08688031215611c1f57600080fd5b8535611c2a81611850565b94506020860135611c3a81611850565b93506040860135925060608601359150608086013567ffffffffffffffff811115611c6457600080fd5b611bfa88828901611ae9565b600080600080600060a08688031215611c8857600080fd5b8535611c9381611850565b94506020860135611ca381611850565b93506040860135611cb381611850565b92506060860135611cc381611850565b949793965091946080013592915050565b634e487b7160e01b600052601160045260246000fd5b60008219821115611cfd57611cfd611cd4565b500190565b6000816000190483118215151615611d1c57611d1c611cd4565b500290565b600082611d3e57634e487b7160e01b600052601260045260246000fd5b500490565b600060208284031215611d5557600080fd5b8135610d3d81611850565b600060208284031215611d7257600080fd5b5051919050565b634e487b7160e01b600052603260045260246000fd5b600082821015611da157611da1611cd4565b500390565b600060018201611db857611db8611cd4565b5060010190565b600081518084526020808501945080840160005b83811015611def57815187529582019590820190600101611dd3565b509495945050505050565b60005b83811015611e15578181015183820152602001611dfd565b83811115611e24576000848401525b50505050565b60008151808452611e42816020860160208601611dfa565b601f01601f19169290920160200192915050565b6001600160a01b0385168152608060208201819052600090611e7a90830186611dbf565b8281036040840152611e8c8186611dbf565b90508281036060840152611ade8185611e2a565b600060208284031215611eb257600080fd5b8151610d3d8161198c565b6001600160a01b0384168152606060208201819052600090611ee190830185611dbf565b8281036040840152611ef38185611dbf565b9695505050505050565b7f416363657373436f6e74726f6c3a206163636f756e7420000000000000000000815260008351611f35816017850160208801611dfa565b7001034b99036b4b9b9b4b733903937b6329607d1b6017918401918201528351611f66816028840160208801611dfa565b01602801949350505050565b602081526000610d3d6020830184611e2a565b600181815b80851115611fc0578160001904821115611fa657611fa6611cd4565b80851615611fb357918102915b93841c9390800290611f8a565b509250929050565b600082611fd757506001610c47565b81611fe457506000610c47565b8160018114611ffa576002811461200457612020565b6001915050610c47565b60ff84111561201557612015611cd4565b50506001821b610c47565b5060208310610133831016604e8410600b8410161715612043575081810a610c47565b61204d8383611f85565b806000190482111561206157612061611cd4565b029392505050565b6000610d3d8383611fc8565b60008161208457612084611cd4565b506000190190565b634e487b7160e01b600052603160045260246000fdfea2646970667358221220bddd8247a7ac38b9c99da6f72732bd5935993cdb93af5591b23b74d0dfea130464736f6c634300080d0033",
  "linkReferences": {},
  "deployedLinkReferences": {}
}