{
  "_format": "hh-sol-artifact-1",
  "contractName": "FIFOMarket",
  "sourceName": "contracts/FIFOMarket.sol",
  "abi": [
    {
      "anonymous": false,
      "inputs": [
        {
          "indexed": false,
          "internalType": "uint256",
          "name": "threshold",
          "type": "uint256"
        }
      ],
      "name": "PriorityRestrictedThresholdSet",
      "type": "event"
    },
    {
      "anonymous": false,
      "inputs": [
        {
          "indexed": true,
          "internalType": "bytes32",
          "name": "role",
          "type": "bytes32"
        },
        {
          "indexed": true,
          "internalType": "bytes32",
          "name": "previousAdminRole",
          "type": "bytes32"
        },
        {
          "indexed": true,
          "internalType": "bytes32",
          "name": "newAdminRole",
          "type": "bytes32"
        }
      ],
      "name": "RoleAdminChanged",
      "type": "event"
    },
    {
      "anonymous": false,
      "inputs": [
        {
          "indexed": true,
          "internalType": "bytes32",
          "name": "role",
          "type": "bytes32"
        },
        {
          "indexed": true,
          "internalType": "address",
          "name": "account",
          "type": "address"
        },
        {
          "indexed": true,
          "internalType": "address",
          "name": "sender",
          "type": "address"
        }
      ],
      "name": "RoleGranted",
      "type": "event"
    },
    {
      "anonymous": false,
      "inputs": [
        {
          "indexed": true,
          "internalType": "bytes32",
          "name": "role",
          "type": "bytes32"
        },
        {
          "indexed": true,
          "internalType": "address",
          "name": "account",
          "type": "address"
        },
        {
          "indexed": true,
          "internalType": "address",
          "name": "sender",
          "type": "address"
        }
      ],
      "name": "RoleRevoked",
      "type": "event"
    },
    {
      "inputs": [],
      "name": "ALLOWLIST_ROLE",
      "outputs": [
        {
          "internalType": "bytes32",
          "name": "",
          "type": "bytes32"
        }
      ],
      "stateMutability": "view",
      "type": "function"
    },
    {
      "inputs": [],
      "name": "DEFAULT_ADMIN_ROLE",
      "outputs": [
        {
          "internalType": "bytes32",
          "name": "",
          "type": "bytes32"
        }
      ],
      "stateMutability": "view",
      "type": "function"
    },
    {
      "inputs": [],
      "name": "activeSupplierCount",
      "outputs": [
        {
          "internalType": "uint256",
          "name": "",
          "type": "uint256"
        }
      ],
      "stateMutability": "view",
      "type": "function"
    },
    {
      "inputs": [
        {
          "internalType": "bytes32",
          "name": "role",
          "type": "bytes32"
        }
      ],
      "name": "getRoleAdmin",
      "outputs": [
        {
          "internalType": "bytes32",
          "name": "",
          "type": "bytes32"
        }
      ],
      "stateMutability": "view",
      "type": "function"
    },
    {
      "inputs": [
        {
          "internalType": "bytes32",
          "name": "role",
          "type": "bytes32"
        },
        {
          "internalType": "uint256",
          "name": "index",
          "type": "uint256"
        }
      ],
      "name": "getRoleMember",
      "outputs": [
        {
          "internalType": "address",
          "name": "",
          "type": "address"
        }
      ],
      "stateMutability": "view",
      "type": "function"
    },
    {
      "inputs": [
        {
          "internalType": "bytes32",
          "name": "role",
          "type": "bytes32"
        }
      ],
      "name": "getRoleMemberCount",
      "outputs": [
        {
          "internalType": "uint256",
          "name": "",
          "type": "uint256"
        }
      ],
      "stateMutability": "view",
      "type": "function"
    },
    {
      "inputs": [
        {
          "internalType": "bytes32",
          "name": "role",
          "type": "bytes32"
        },
        {
          "internalType": "address",
          "name": "account",
          "type": "address"
        }
      ],
      "name": "grantRole",
      "outputs": [],
      "stateMutability": "nonpayable",
      "type": "function"
    },
    {
      "inputs": [
        {
          "internalType": "bytes32",
          "name": "role",
          "type": "bytes32"
        },
        {
          "internalType": "address",
          "name": "account",
          "type": "address"
        }
      ],
      "name": "hasRole",
      "outputs": [
        {
          "internalType": "bool",
          "name": "",
          "type": "bool"
        }
      ],
      "stateMutability": "view",
      "type": "function"
    },
    {
      "inputs": [
        {
          "internalType": "address",
          "name": "removalAddress",
          "type": "address"
        },
        {
          "internalType": "address",
          "name": "bridgedPolygonNoriAddress",
          "type": "address"
        },
        {
          "internalType": "address",
          "name": "certificateAddress",
          "type": "address"
        },
        {
          "internalType": "address",
          "name": "restrictedNoriAddress",
          "type": "address"
        },
        {
          "internalType": "address",
          "name": "noriFeeWalletAddress",
          "type": "address"
        },
        {
          "internalType": "uint256",
          "name": "noriFee",
          "type": "uint256"
        }
      ],
      "name": "initialize",
      "outputs": [],
      "stateMutability": "nonpayable",
      "type": "function"
    },
    {
      "inputs": [],
      "name": "numberOfActiveNrtsInMarketComputed",
      "outputs": [
        {
          "internalType": "uint256",
          "name": "",
          "type": "uint256"
        }
      ],
      "stateMutability": "view",
      "type": "function"
    },
    {
      "inputs": [
        {
          "internalType": "address",
          "name": "",
          "type": "address"
        },
        {
          "internalType": "address",
          "name": "",
          "type": "address"
        },
        {
          "internalType": "uint256[]",
          "name": "ids",
          "type": "uint256[]"
        },
        {
          "internalType": "uint256[]",
          "name": "",
          "type": "uint256[]"
        },
        {
          "internalType": "bytes",
          "name": "data",
          "type": "bytes"
        }
      ],
      "name": "onERC1155BatchReceived",
      "outputs": [
        {
          "internalType": "bytes4",
          "name": "",
          "type": "bytes4"
        }
      ],
      "stateMutability": "nonpayable",
      "type": "function"
    },
    {
      "inputs": [
        {
          "internalType": "address",
          "name": "",
          "type": "address"
        },
        {
          "internalType": "address",
          "name": "",
          "type": "address"
        },
        {
          "internalType": "uint256",
          "name": "",
          "type": "uint256"
        },
        {
          "internalType": "uint256",
          "name": "",
          "type": "uint256"
        },
        {
          "internalType": "bytes",
          "name": "",
          "type": "bytes"
        }
      ],
      "name": "onERC1155Received",
      "outputs": [
        {
          "internalType": "bytes4",
          "name": "",
          "type": "bytes4"
        }
      ],
      "stateMutability": "nonpayable",
      "type": "function"
    },
    {
      "inputs": [],
      "name": "priorityRestrictedThreshold",
      "outputs": [
        {
          "internalType": "uint256",
          "name": "",
          "type": "uint256"
        }
      ],
      "stateMutability": "view",
      "type": "function"
    },
    {
      "inputs": [
        {
          "internalType": "bytes32",
          "name": "role",
          "type": "bytes32"
        },
        {
          "internalType": "address",
          "name": "account",
          "type": "address"
        }
      ],
      "name": "renounceRole",
      "outputs": [],
      "stateMutability": "nonpayable",
      "type": "function"
    },
    {
      "inputs": [
        {
          "internalType": "uint256",
          "name": "removalId",
          "type": "uint256"
        }
      ],
      "name": "reserveRemoval",
      "outputs": [
        {
          "internalType": "bool",
          "name": "",
          "type": "bool"
        }
      ],
      "stateMutability": "nonpayable",
      "type": "function"
    },
    {
      "inputs": [
        {
          "internalType": "bytes32",
          "name": "role",
          "type": "bytes32"
        },
        {
          "internalType": "address",
          "name": "account",
          "type": "address"
        }
      ],
      "name": "revokeRole",
      "outputs": [],
      "stateMutability": "nonpayable",
      "type": "function"
    },
    {
      "inputs": [
        {
          "internalType": "uint256",
          "name": "threshold",
          "type": "uint256"
        }
      ],
      "name": "setPriorityRestrictedThreshold",
      "outputs": [],
      "stateMutability": "nonpayable",
      "type": "function"
    },
    {
      "inputs": [
        {
          "internalType": "bytes4",
          "name": "interfaceId",
          "type": "bytes4"
        }
      ],
      "name": "supportsInterface",
      "outputs": [
        {
          "internalType": "bool",
          "name": "",
          "type": "bool"
        }
      ],
      "stateMutability": "view",
      "type": "function"
    },
    {
      "inputs": [
        {
          "internalType": "address",
          "name": "",
          "type": "address"
        },
        {
          "internalType": "address",
          "name": "from",
          "type": "address"
        },
        {
          "internalType": "address",
          "name": "",
          "type": "address"
        },
        {
          "internalType": "uint256",
          "name": "amount",
          "type": "uint256"
        },
        {
          "internalType": "bytes",
          "name": "userData",
          "type": "bytes"
        },
        {
          "internalType": "bytes",
          "name": "",
          "type": "bytes"
        }
      ],
      "name": "tokensReceived",
      "outputs": [],
      "stateMutability": "nonpayable",
      "type": "function"
    },
    {
      "inputs": [],
      "name": "totalActiveSupply",
      "outputs": [
        {
          "internalType": "uint256",
          "name": "",
          "type": "uint256"
        }
      ],
      "stateMutability": "view",
      "type": "function"
    },
    {
      "inputs": [],
      "name": "totalNumberActiveRemovals",
      "outputs": [
        {
          "internalType": "uint256",
          "name": "",
          "type": "uint256"
        }
      ],
      "stateMutability": "view",
      "type": "function"
    },
    {
      "inputs": [],
      "name": "totalReservedSupply",
      "outputs": [
        {
          "internalType": "uint256",
          "name": "",
          "type": "uint256"
        }
      ],
      "stateMutability": "view",
      "type": "function"
    },
    {
      "inputs": [],
      "name": "totalUnrestrictedSupply",
      "outputs": [
        {
          "internalType": "uint256",
          "name": "",
          "type": "uint256"
        }
      ],
      "stateMutability": "view",
      "type": "function"
    },
    {
      "inputs": [
        {
          "internalType": "uint256",
          "name": "removalId",
          "type": "uint256"
        }
      ],
      "name": "unreserveRemoval",
      "outputs": [
        {
          "internalType": "bool",
          "name": "",
          "type": "bool"
        }
      ],
      "stateMutability": "nonpayable",
      "type": "function"
    }
  ],
  "bytecode": "0x608060405234801561001057600080fd5b506130fd806100206000396000f3fe608060405234801561001057600080fd5b50600436106101575760003560e01c806372069264116100c3578063a217fddf1161007c578063a217fddf146102d0578063bc197c81146102d8578063ca15c87314610304578063d547741f14610317578063d797462f1461032a578063f23a6e611461033d57600080fd5b8063720692641461025a5780637530b450146102645780639010d07c1461026c57806391d148541461029757806395b6ef0c146102aa57806397a11ee9146102bd57600080fd5b80633030b532116101155780633030b532146101f1578063361b7b9d1461021857806336568abe146102225780633eb12cee1461023557806359e1a71c1461023d578063674d13c81461025057600080fd5b806223de291461015c57806301ffc9a71461017157806312de2b0514610199578063179f0445146101b1578063248a9ca3146101bb5780632f2ff15d146101de575b600080fd5b61016f61016a3660046127e7565b61035c565b005b61018461017f366004612897565b610fdb565b60405190151581526020015b60405180910390f35b6101a36101345481565b604051908152602001610190565b6101a36101355481565b6101a36101c93660046128c1565b60009081526065602052604090206001015490565b61016f6101ec3660046128da565b610ffb565b6101a37f26a560d834a19637eccba4611bbc09fb32970bb627da0a70f14f83fdc9822cbc81565b6101a36101385481565b61016f6102303660046128da565b611026565b6101a36110a4565b61018461024b3660046128c1565b611136565b6101a36101375481565b6101a36101365481565b6101a361130e565b61027f61027a36600461290a565b61133b565b6040516001600160a01b039091168152602001610190565b6101846102a53660046128da565b61135a565b61016f6102b836600461292c565b611385565b6101846102cb3660046128c1565b6115c8565b6101a3600081565b6102eb6102e6366004612ae8565b6117a2565b6040516001600160e01b03199091168152602001610190565b6101a36103123660046128c1565b611a2a565b61016f6103253660046128da565b611a41565b61016f6103383660046128c1565b611a67565b6102eb61034b366004612b95565b63f23a6e6160e01b95945050505050565b610136546000036103ab5760405162461bcd60e51b81526020600482015260146024820152734d61726b65743a204f7574206f662073746f636b60601b60448201526064015b60405180910390fd5b61013454610136541161043c576103e27f26a560d834a19637eccba4611bbc09fb32970bb627da0a70f14f83fdc9822cbc8861135a565b61043c5760405162461bcd60e51b815260206004820152602560248201527f4c6f7720737570706c7920616e64206275796572206e6f74206f6e20616c6c6f6044820152641ddb1a5cdd60da1b60648201526084016103a2565b600061013354606461044e9190612c13565b610459876064612c2b565b6104639190612c4a565b905080600061047486880188612c6c565b90506001600160a01b0381166104d85760405162461bcd60e51b8152602060048201526024808201527f4d61726b65743a2043616e6e6f74206d696e7420746f207468652030206164646044820152637265737360e01b60648201526084016103a2565b610130546001600160a01b031633146105595760405162461bcd60e51b815260206004820152603960248201527f4d61726b65743a205468697320636f6e74726163742063616e206f6e6c79207260448201527f6563656976652042726964676564506f6c79676f6e4e4f52490000000000000060648201526084016103a2565b6000610135546001600160401b03811115610576576105766129a5565b60405190808252806020026020018201604052801561059f578160200160208202803683370190505b5090506000610135546001600160401b038111156105bf576105bf6129a5565b6040519080825280602002602001820160405280156105e8578160200160208202803683370190505b5090506000610135546001600160401b03811115610608576106086129a5565b604051908082528060200260200182016040528015610631578160200160208202803683370190505b5090506000805b6101355481101561098d57610139546001600160a01b0316600090815261013b6020526040812061066890611ab0565b61012e54604051627eeac760e11b8152306004820152602481018390529192506000916001600160a01b039091169062fdd58e90604401602060405180830381865afa1580156106bc573d6000803e3d6000fd5b505050506040513d601f19601f820116820180604052508101906106e09190612c89565b90508089101561077457818785815181106106fd576106fd612ca2565b6020026020010181815250508886858151811061071c5761071c612ca2565b60209081029190910101526101395485516001600160a01b039091169086908690811061074b5761074b612ca2565b60200260200101906001600160a01b031690816001600160a01b0316815250506000985061095c565b6001610135546107849190612cb8565b8314801561079157508089115b156107de5760405162461bcd60e51b815260206004820152601960248201527f4d61726b65743a204e6f7420656e6f75676820737570706c790000000000000060448201526064016103a2565b818785815181106107f1576107f1612ca2565b6020026020010181815250508086858151811061081057610810612ca2565b60209081029190910101526101395485516001600160a01b039091169086908690811061083f5761083f612ca2565b6001600160a01b0390921660209283029190910190910152610861818a612cb8565b610139546001600160a01b0316600090815261013b6020526040902090995061088a9083611acd565b6108eb5760405162461bcd60e51b815260206004820152602c60248201527f4d61726b65743a204661696c656420746f2072656d6f76652072656d6f76616c60448201526b2066726f6d20737570706c7960a01b60648201526084016103a2565b610139546001600160a01b0316600090815261013b602052604090206002015461092a5761013954610925906001600160a01b0316611c66565b61095c565b610139546001600160a01b03908116600081815261013a60205260409020600101549091161461095c5761095c611d88565b8361096681612ccf565b9450508860000361097857505061098d565b5050808061098590612ccf565b915050610638565b506000816001600160401b038111156109a8576109a86129a5565b6040519080825280602002602001820160405280156109d1578160200160208202803683370190505b5090506000826001600160401b038111156109ee576109ee6129a5565b604051908082528060200260200182016040528015610a17578160200160208202803683370190505b50905060005b83811015610aa657868181518110610a3757610a37612ca2565b6020026020010151838281518110610a5157610a51612ca2565b602002602001018181525050858181518110610a6f57610a6f612ca2565b6020026020010151828281518110610a8957610a89612ca2565b602090810291909101015280610a9e81612ccf565b915050610a1d565b50600089604051602001610abc91815260200190565b60408051601f198184030181529082905261012f54630fbfeffd60e11b83529092506001600160a01b031690631f7fdffa90610b02908b90879087908790600401612d7f565b600060405180830381600087803b158015610b1c57600080fd5b505af1158015610b30573d6000803e3d6000fd5b505061012e5460405163018e1c8360e01b8152600093506001600160a01b03909116915063018e1c8390610b6a9030908890600401612dd4565b600060405180830381865afa158015610b87573d6000803e3d6000fd5b505050506040513d6000823e601f3d908101601f19168201604052610baf9190810190612df8565b61012e546040516302d91df360e61b81529192506000916001600160a01b039091169063b6477cc090610be6908890600401612e7d565b600060405180830381865afa158015610c03573d6000803e3d6000fd5b505050506040513d6000823e601f3d908101601f19168201604052610c2b9190810190612df8565b905060005b8551811015610f5d57828181518110610c4b57610c4b612ca2565b6020026020010151858281518110610c6557610c65612ca2565b602002602001015103610c8c5760016101356000828254610c869190612cb8565b90915550505b848181518110610c9e57610c9e612ca2565b60200260200101516101366000828254610cb89190612cb8565b925050819055506000606461013354878481518110610cd957610cd9612ca2565b6020026020010151610ceb9190612c2b565b610cf59190612c4a565b9050600080878481518110610d0c57610d0c612ca2565b602002602001015190506000858581518110610d2a57610d2a612ca2565b60200260200101511115610e23576064858581518110610d4c57610d4c612ca2565b602002602001015182610d5f9190612c2b565b610d699190612c4a565b9150610d758282612cb8565b90506000898581518110610d8b57610d8b612ca2565b6020026020010151604051602001610da591815260200190565b60408051601f19818403018152908290526101305461013154634decdde360e11b84529193506001600160a01b0390811692639bd9bbc692610def92169087908690600401612e90565b600060405180830381600087803b158015610e0957600080fd5b505af1158015610e1d573d6000803e3d6000fd5b50505050505b610130546101325460405163a9059cbb60e01b81526001600160a01b0391821660048201526024810186905291169063a9059cbb906044016020604051808303816000875af1158015610e7a573d6000803e3d6000fd5b505050506040513d601f19601f82011682018060405250810190610e9e9190612ec0565b50610130548b516001600160a01b039091169063a9059cbb908d9087908110610ec957610ec9612ca2565b6020026020010151836040518363ffffffff1660e01b8152600401610f039291906001600160a01b03929092168252602082015260400190565b6020604051808303816000875af1158015610f22573d6000803e3d6000fd5b505050506040513d601f19601f82011682018060405250810190610f469190612ec0565b505050508080610f5590612ccf565b915050610c30565b5061012e54604051631ac8311560e21b81526001600160a01b0390911690636b20c45490610f9390309089908990600401612ee2565b600060405180830381600087803b158015610fad57600080fd5b505af1158015610fc1573d6000803e3d6000fd5b505050505050505050505050505050505050505050505050565b6000610fe682611dbd565b80610ff55750610ff582611de2565b92915050565b6000828152606560205260409020600101546110178133611e07565b6110218383611e6b565b505050565b6001600160a01b03811633146110965760405162461bcd60e51b815260206004820152602f60248201527f416363657373436f6e74726f6c3a2063616e206f6e6c792072656e6f756e636560448201526e103937b632b9903337b91039b2b63360891b60648201526084016103a2565b6110a08282611e8d565b5050565b6101395460009081906001600160a01b0316815b6101385481101561112e5761012e546001600160a01b03838116600090815261013b602052604090206110ed92909116611eaf565b6110f79084612c13565b6001600160a01b03928316600090815261013a6020526040902060010154909350909116908061112681612ccf565b9150506110b8565b509092915050565b60008061114283612059565b6001600160a01b038116600090815261013b602052604090209091506111689084611acd565b6111c05760405162461bcd60e51b8152602060048201526024808201527f4d61726b65743a2072656d6f76616c206e6f7420696e2061637469766520737560448201526370706c7960e01b60648201526084016103a2565b61012e54604051627eeac760e11b8152306004820152602481018590526000916001600160a01b03169062fdd58e90604401602060405180830381865afa15801561120f573d6000803e3d6000fd5b505050506040513d601f19601f820116820180604052508101906112339190612c89565b90508061013660008282546112489190612cb8565b925050819055508061013760008282546112629190612c13565b925050819055506001610135600082825461127d9190612cb8565b90915550506001600160a01b038216600090815261013b60205260409020600201546112ac576112ac82611c66565b6112b861013c85612068565b6113045760405162461bcd60e51b815260206004820181905260248201527f4d61726b65743a2052656d6f76616c20616c726561647920726573657276656460448201526064016103a2565b5060019392505050565b6000610134546101365410156113245750600090565b61013454610136546113369190612cb8565b905090565b60008281526097602052604081206113539083612074565b9392505050565b60009182526065602090815260408084206001600160a01b0393909316845291905290205460ff1690565b600054610100900460ff166113a05760005460ff16156113a4565b303b155b6114075760405162461bcd60e51b815260206004820152602e60248201527f496e697469616c697a61626c653a20636f6e747261637420697320616c72656160448201526d191e481a5b9a5d1a585b1a5e995960921b60648201526084016103a2565b600054610100900460ff16158015611429576000805461ffff19166101011790555b611431612080565b611439612080565b611441612080565b611449612080565b611451612080565b61012e80546001600160a01b03199081166001600160a01b038a8116919091179092556101308054821689841617905561012f8054821688841617905561013180548216878416179055610132805482169286169290921790915561013383905561012d8054731820a4b7618bde71dce8cdc73aab6c95905fad249216821790556040516329965a1d60e01b815230600482018190527fb281fc8c12954d22544db45de3159a39272895b169a852b314f9cc762e44c53b602483015260448201526329965a1d90606401600060405180830381600087803b15801561153557600080fd5b505af1158015611549573d6000803e3d6000fd5b5050600061013481905561013681905561013781905561013581905561013980546001600160a01b03191690556115839250905033611e6b565b6115ad7f26a560d834a19637eccba4611bbc09fb32970bb627da0a70f14f83fdc9822cbc33611e6b565b80156115bf576000805461ff00191690555b50505050505050565b6000806115d483612059565b90506115e261013c846120ed565b61163d5760405162461bcd60e51b815260206004820152602660248201527f4d61726b65743a2072656d6f76616c206e6f7420696e20726573657276656420604482015265737570706c7960d01b60648201526084016103a2565b600161013560008282546116519190612c13565b909155505061012e54604051627eeac760e11b8152306004820152602481018590526000916001600160a01b03169062fdd58e90604401602060405180830381865afa1580156116a5573d6000803e3d6000fd5b505050506040513d601f19601f820116820180604052508101906116c99190612c89565b90508061013660008282546116de9190612c13565b925050819055508061013760008282546116f89190612cb8565b90915550506001600160a01b038216600090815261013b602052604090206002015461172757611727826120f9565b6001600160a01b038216600090815261013b6020526040902061174a9085612222565b6113045760405162461bcd60e51b815260206004820152602360248201527f4d61726b65743a20556e61626c6520746f20756e726573657276652072656d6f6044820152621d985b60ea1b60648201526084016103a2565b61012e5460405163018e1c8360e01b815260009182916001600160a01b039091169063018e1c83906117da9030908990600401612dd4565b600060405180830381865afa1580156117f7573d6000803e3d6000fd5b505050506040513d6000823e601f3d908101601f1916820160405261181f9190810190612df8565b905060008060005b875181101561196957600088828151811061184457611844612ca2565b60200260200101519050600061185982612059565b9050600086848151811061186f5761186f612ca2565b602002602001015190506118b18361013b6000856001600160a01b03166001600160a01b0316815260200190815260200160002061222290919063ffffffff16565b61190e5760405162461bcd60e51b815260206004820152602860248201527f4d61726b65743a20556e61626c6520746f206164642072656d6f76616c2062796044820152672076696e7461676560c01b60648201526084016103a2565b6001600160a01b03828116600090815261013a60205260409020600101541661193a5761193a826120f9565b6119448187612c13565b9550611951600186612c13565b9450505050808061196190612ccf565b915050611827565b5081610136600082825461197d9190612c13565b925050819055508061013560008282546119979190612c13565b925050819055506000858060200190518101906119b49190612c89565b61013154604051637b7abd1760e11b8152600481018390529192506001600160a01b03169063f6f57a2e90602401600060405180830381600087803b1580156119fc57600080fd5b505af1158015611a10573d6000803e3d6000fd5b5063bc197c8160e01b9d9c50505050505050505050505050565b6000818152609760205260408120610ff5906122a4565b600082815260656020526040902060010154611a5d8133611e07565b6110218383611e8d565b6000611a738133611e07565b6101348290556040518281527f7ab6aa6547859e9ca74d567d44fefa0d63272ac019f4ebf9333032a62ea06fa59060200160405180910390a15050565b60018101546000908152602082905260408120610ff59082612074565b600080611ad9836122ae565b61ffff166000818152602086905260409020909150611af890846120ed565b611b555760405162461bcd60e51b815260206004820152602860248201527f4d61726b65743a206661696c656420746f2072656d6f766520636f7272656374604482015267081c995b5bdd985b60c21b60648201526084016103a2565b611b5f84826122bd565b15611304578360020154846001015403611b8757600019600185015560006002850155611304565b83600101548103611bf457600084600101546001611ba59190612c13565b90505b84600201548111611bee576000818152602086905260408120611bca906122a4565b1115611bdc5760018501819055611bee565b80611be681612ccf565b915050611ba8565b50611304565b8360020154810361130457600060018560020154611c129190612cb8565b90505b84600101548110611c5b576000818152602086905260408120611c37906122a4565b1115611c495760028501819055611c5b565b80611c5381612f22565b915050611c15565b505060019392505050565b6001600160a01b03808216600081815261013a60205260409020600101549091169003611ca35761013980546001600160a01b0319169055611d15565b6001600160a01b03818116600081815261013a60205260408082206001808201805483548816865284862090920180549288166001600160a01b0319938416179055915491548616845291909220805492851692909116919091179055610139549091169003611d1557611d15611d88565b604080518082018252600080825260208083018281526001600160a01b03868116845261013a909252938220925183546001600160a01b0319908116918316919091178455935160019384018054909516911617909255610138805491929091611d80908490612cb8565b909155505050565b61013980546001600160a01b03808216600090815261013a6020526040902060010154166001600160a01b0319909116179055565b60006001600160e01b03198216635a05180f60e01b1480610ff55750610ff5826122d1565b60006001600160e01b03198216630271189760e51b1480610ff55750610ff582611dbd565b611e11828261135a565b6110a057611e29816001600160a01b03166014612306565b611e34836020612306565b604051602001611e45929190612f39565b60408051601f198184030181529082905262461bcd60e51b82526103a291600401612fae565b611e7582826124a1565b60008281526097602052604090206110219082612527565b611e97828261253c565b600082815260976020526040902061102190826125a3565b60018201546000908190819081905b8660020154811161204f576000818152602088905260409020611ee0906122a4565b93506000846001600160401b03811115611efc57611efc6129a5565b604051908082528060200260200182016040528015611f25578160200160208202803683370190505b509050600093505b84841015611f7c576000828152602089905260409020611f4d9085612074565b818581518110611f5f57611f5f612ca2565b602090810291909101015283611f7481612ccf565b945050611f2d565b60405163018e1c8360e01b81526000906001600160a01b0389169063018e1c8390611fad9030908690600401612dd4565b600060405180830381865afa158015611fca573d6000803e3d6000fd5b505050506040513d6000823e601f3d908101601f19168201604052611ff29190810190612df8565b9050600094505b8585101561203a5780858151811061201357612013612ca2565b6020026020010151846120269190612c13565b93508461203281612ccf565b955050611ff9565b5050808061204790612ccf565b915050611ebe565b5095945050505050565b6000610ff582601460046125b8565b60006113538383612604565b60006113538383612653565b600054610100900460ff166120eb5760405162461bcd60e51b815260206004820152602b60248201527f496e697469616c697a61626c653a20636f6e7472616374206973206e6f74206960448201526a6e697469616c697a696e6760a81b60648201526084016103a2565b565b6000611353838361267d565b610139546001600160a01b03166121745761013980546001600160a01b03199081166001600160a01b038481169182179093556040805180820182528281526020808201848152600094855261013a90915291909220915182548416908516178255516001919091018054909216921691909117905561220e565b60408051808201825261013980546001600160a01b03908116600081815261013a60208181528783205485168752808701938452888516808452919052868220955186549085166001600160a01b0319918216178755925160019687018054918616918516919091179055845484168252868220548416825286822090950180548316861790559254909116825292902080549092161790555b60016101386000828254611d809190612c13565b60008061222e836122ae565b61ffff16905061224084600201541590565b15612258576001840181905560028401819055612284565b83600101548110156122705760018401819055612284565b836002015481111561228457600284018190555b600081815260208590526040902061229c9084612068565b949350505050565b6000610ff5825490565b6000610ff5826002601c6125b8565b60006122c98383612770565b159392505050565b60006001600160e01b03198216637965db0b60e01b1480610ff557506301ffc9a760e01b6001600160e01b0319831614610ff5565b60606000612315836002612c2b565b612320906002612c13565b6001600160401b03811115612337576123376129a5565b6040519080825280601f01601f191660200182016040528015612361576020820181803683370190505b509050600360fc1b8160008151811061237c5761237c612ca2565b60200101906001600160f81b031916908160001a905350600f60fb1b816001815181106123ab576123ab612ca2565b60200101906001600160f81b031916908160001a90535060006123cf846002612c2b565b6123da906001612c13565b90505b6001811115612452576f181899199a1a9b1b9c1cb0b131b232b360811b85600f166010811061240e5761240e612ca2565b1a60f81b82828151811061242457612424612ca2565b60200101906001600160f81b031916908160001a90535060049490941c9361244b81612f22565b90506123dd565b5083156113535760405162461bcd60e51b815260206004820181905260248201527f537472696e67733a20686578206c656e67746820696e73756666696369656e7460448201526064016103a2565b6124ab828261135a565b6110a05760008281526065602090815260408083206001600160a01b03851684529091529020805460ff191660011790556124e33390565b6001600160a01b0316816001600160a01b0316837f2f8788117e7eff1d82e926ec794901d17c78024a50270940304540a733656f0d60405160405180910390a45050565b6000611353836001600160a01b038416612604565b612546828261135a565b156110a05760008281526065602090815260408083206001600160a01b0385168085529252808320805460ff1916905551339285917ff6391f5c32d9c69d2a47ea670b442974b53935d1edc7fd64eb21e047a839171b9190a45050565b6000611353836001600160a01b03841661267d565b6000806125c6600884612c2b565b60016125d3600887612c2b565b6125de9060026130a5565b6125e89190612cb8565b901b90508481166125fa600885612c2b565b1c95945050505050565b600081815260018301602052604081205461264b57508154600181810184556000848152602080822090930184905584548482528286019093526040902091909155610ff5565b506000610ff5565b600082600001828154811061266a5761266a612ca2565b9060005260206000200154905092915050565b600081815260018301602052604081205480156127665760006126a1600183612cb8565b85549091506000906126b590600190612cb8565b905081811461271a5760008660000182815481106126d5576126d5612ca2565b90600052602060002001549050808760000184815481106126f8576126f8612ca2565b6000918252602080832090910192909255918252600188019052604090208390555b855486908061272b5761272b6130b1565b600190038181906000526020600020016000905590558560010160008681526020019081526020016000206000905560019350505050610ff5565b6000915050610ff5565b6000818152602083905260408120611353906122a4565b6001600160a01b038116811461279c57600080fd5b50565b60008083601f8401126127b157600080fd5b5081356001600160401b038111156127c857600080fd5b6020830191508360208285010111156127e057600080fd5b9250929050565b60008060008060008060008060c0898b03121561280357600080fd5b883561280e81612787565b9750602089013561281e81612787565b9650604089013561282e81612787565b95506060890135945060808901356001600160401b038082111561285157600080fd5b61285d8c838d0161279f565b909650945060a08b013591508082111561287657600080fd5b506128838b828c0161279f565b999c989b5096995094979396929594505050565b6000602082840312156128a957600080fd5b81356001600160e01b03198116811461135357600080fd5b6000602082840312156128d357600080fd5b5035919050565b600080604083850312156128ed57600080fd5b8235915060208301356128ff81612787565b809150509250929050565b6000806040838503121561291d57600080fd5b50508035926020909101359150565b60008060008060008060c0878903121561294557600080fd5b863561295081612787565b9550602087013561296081612787565b9450604087013561297081612787565b9350606087013561298081612787565b9250608087013561299081612787565b8092505060a087013590509295509295509295565b634e487b7160e01b600052604160045260246000fd5b604051601f8201601f191681016001600160401b03811182821017156129e3576129e36129a5565b604052919050565b60006001600160401b03821115612a0457612a046129a5565b5060051b60200190565b600082601f830112612a1f57600080fd5b81356020612a34612a2f836129eb565b6129bb565b82815260059290921b84018101918181019086841115612a5357600080fd5b8286015b84811015612a6e5780358352918301918301612a57565b509695505050505050565b600082601f830112612a8a57600080fd5b81356001600160401b03811115612aa357612aa36129a5565b612ab6601f8201601f19166020016129bb565b818152846020838601011115612acb57600080fd5b816020850160208301376000918101602001919091529392505050565b600080600080600060a08688031215612b0057600080fd5b8535612b0b81612787565b94506020860135612b1b81612787565b935060408601356001600160401b0380821115612b3757600080fd5b612b4389838a01612a0e565b94506060880135915080821115612b5957600080fd5b612b6589838a01612a0e565b93506080880135915080821115612b7b57600080fd5b50612b8888828901612a79565b9150509295509295909350565b600080600080600060a08688031215612bad57600080fd5b8535612bb881612787565b94506020860135612bc881612787565b9350604086013592506060860135915060808601356001600160401b03811115612bf157600080fd5b612b8888828901612a79565b634e487b7160e01b600052601160045260246000fd5b60008219821115612c2657612c26612bfd565b500190565b6000816000190483118215151615612c4557612c45612bfd565b500290565b600082612c6757634e487b7160e01b600052601260045260246000fd5b500490565b600060208284031215612c7e57600080fd5b813561135381612787565b600060208284031215612c9b57600080fd5b5051919050565b634e487b7160e01b600052603260045260246000fd5b600082821015612cca57612cca612bfd565b500390565b600060018201612ce157612ce1612bfd565b5060010190565b600081518084526020808501945080840160005b83811015612d1857815187529582019590820190600101612cfc565b509495945050505050565b60005b83811015612d3e578181015183820152602001612d26565b83811115612d4d576000848401525b50505050565b60008151808452612d6b816020860160208601612d23565b601f01601f19169290920160200192915050565b6001600160a01b0385168152608060208201819052600090612da390830186612ce8565b8281036040840152612db58186612ce8565b90508281036060840152612dc98185612d53565b979650505050505050565b6001600160a01b038316815260406020820181905260009061229c90830184612ce8565b60006020808385031215612e0b57600080fd5b82516001600160401b03811115612e2157600080fd5b8301601f81018513612e3257600080fd5b8051612e40612a2f826129eb565b81815260059190911b82018301908381019087831115612e5f57600080fd5b928401925b82841015612dc957835182529284019290840190612e64565b6020815260006113536020830184612ce8565b60018060a01b0384168152826020820152606060408201526000612eb76060830184612d53565b95945050505050565b600060208284031215612ed257600080fd5b8151801515811461135357600080fd5b6001600160a01b0384168152606060208201819052600090612f0690830185612ce8565b8281036040840152612f188185612ce8565b9695505050505050565b600081612f3157612f31612bfd565b506000190190565b7f416363657373436f6e74726f6c3a206163636f756e7420000000000000000000815260008351612f71816017850160208801612d23565b7001034b99036b4b9b9b4b733903937b6329607d1b6017918401918201528351612fa2816028840160208801612d23565b01602801949350505050565b6020815260006113536020830184612d53565b600181815b80851115612ffc578160001904821115612fe257612fe2612bfd565b80851615612fef57918102915b93841c9390800290612fc6565b509250929050565b60008261301357506001610ff5565b8161302057506000610ff5565b816001811461303657600281146130405761305c565b6001915050610ff5565b60ff84111561305157613051612bfd565b50506001821b610ff5565b5060208310610133831016604e8410600b841016171561307f575081810a610ff5565b6130898383612fc1565b806000190482111561309d5761309d612bfd565b029392505050565b60006113538383613004565b634e487b7160e01b600052603160045260246000fdfea2646970667358221220168c2cf9ac5d4231406ff473e0c027c847e863ad4c3328bd59ba83b745939dc564736f6c634300080d0033",
  "linkReferences": {},
  "deployedLinkReferences": {}
}