{
  "_format": "hh-sol-artifact-1",
  "contractName": "FIFOMarket",
  "sourceName": "contracts/FIFOMarket.sol",
  "abi": [
    {
      "anonymous": false,
      "inputs": [
        {
          "indexed": false,
          "internalType": "uint256",
          "name": "threshold",
          "type": "uint256"
        }
      ],
      "name": "PriorityRestrictedThresholdSet",
      "type": "event"
    },
    {
      "anonymous": false,
      "inputs": [
        {
          "indexed": true,
          "internalType": "bytes32",
          "name": "role",
          "type": "bytes32"
        },
        {
          "indexed": true,
          "internalType": "bytes32",
          "name": "previousAdminRole",
          "type": "bytes32"
        },
        {
          "indexed": true,
          "internalType": "bytes32",
          "name": "newAdminRole",
          "type": "bytes32"
        }
      ],
      "name": "RoleAdminChanged",
      "type": "event"
    },
    {
      "anonymous": false,
      "inputs": [
        {
          "indexed": true,
          "internalType": "bytes32",
          "name": "role",
          "type": "bytes32"
        },
        {
          "indexed": true,
          "internalType": "address",
          "name": "account",
          "type": "address"
        },
        {
          "indexed": true,
          "internalType": "address",
          "name": "sender",
          "type": "address"
        }
      ],
      "name": "RoleGranted",
      "type": "event"
    },
    {
      "anonymous": false,
      "inputs": [
        {
          "indexed": true,
          "internalType": "bytes32",
          "name": "role",
          "type": "bytes32"
        },
        {
          "indexed": true,
          "internalType": "address",
          "name": "account",
          "type": "address"
        },
        {
          "indexed": true,
          "internalType": "address",
          "name": "sender",
          "type": "address"
        }
      ],
      "name": "RoleRevoked",
      "type": "event"
    },
    {
      "inputs": [],
      "name": "ALLOWLIST_ROLE",
      "outputs": [
        {
          "internalType": "bytes32",
          "name": "",
          "type": "bytes32"
        }
      ],
      "stateMutability": "view",
      "type": "function"
    },
    {
      "inputs": [],
      "name": "DEFAULT_ADMIN_ROLE",
      "outputs": [
        {
          "internalType": "bytes32",
          "name": "",
          "type": "bytes32"
        }
      ],
      "stateMutability": "view",
      "type": "function"
    },
    {
      "inputs": [
        {
          "internalType": "bytes32",
          "name": "role",
          "type": "bytes32"
        }
      ],
      "name": "getRoleAdmin",
      "outputs": [
        {
          "internalType": "bytes32",
          "name": "",
          "type": "bytes32"
        }
      ],
      "stateMutability": "view",
      "type": "function"
    },
    {
      "inputs": [
        {
          "internalType": "bytes32",
          "name": "role",
          "type": "bytes32"
        },
        {
          "internalType": "uint256",
          "name": "index",
          "type": "uint256"
        }
      ],
      "name": "getRoleMember",
      "outputs": [
        {
          "internalType": "address",
          "name": "",
          "type": "address"
        }
      ],
      "stateMutability": "view",
      "type": "function"
    },
    {
      "inputs": [
        {
          "internalType": "bytes32",
          "name": "role",
          "type": "bytes32"
        }
      ],
      "name": "getRoleMemberCount",
      "outputs": [
        {
          "internalType": "uint256",
          "name": "",
          "type": "uint256"
        }
      ],
      "stateMutability": "view",
      "type": "function"
    },
    {
      "inputs": [
        {
          "internalType": "bytes32",
          "name": "role",
          "type": "bytes32"
        },
        {
          "internalType": "address",
          "name": "account",
          "type": "address"
        }
      ],
      "name": "grantRole",
      "outputs": [],
      "stateMutability": "nonpayable",
      "type": "function"
    },
    {
      "inputs": [
        {
          "internalType": "bytes32",
          "name": "role",
          "type": "bytes32"
        },
        {
          "internalType": "address",
          "name": "account",
          "type": "address"
        }
      ],
      "name": "hasRole",
      "outputs": [
        {
          "internalType": "bool",
          "name": "",
          "type": "bool"
        }
      ],
      "stateMutability": "view",
      "type": "function"
    },
    {
      "inputs": [
        {
          "internalType": "address",
          "name": "removalAddress",
          "type": "address"
        },
        {
          "internalType": "address",
          "name": "bridgedPolygonNoriAddress",
          "type": "address"
        },
        {
          "internalType": "address",
          "name": "certificateAddress",
          "type": "address"
        },
        {
          "internalType": "address",
          "name": "noriFeeWalletAddress",
          "type": "address"
        },
        {
          "internalType": "uint256",
          "name": "noriFee",
          "type": "uint256"
        }
      ],
      "name": "initialize",
      "outputs": [],
      "stateMutability": "nonpayable",
      "type": "function"
    },
    {
      "inputs": [],
      "name": "numberOfNrtsInQueueComputed",
      "outputs": [
        {
          "internalType": "uint256",
          "name": "",
          "type": "uint256"
        }
      ],
      "stateMutability": "view",
      "type": "function"
    },
    {
      "inputs": [
        {
          "internalType": "address",
          "name": "",
          "type": "address"
        },
        {
          "internalType": "address",
          "name": "",
          "type": "address"
        },
        {
          "internalType": "uint256[]",
          "name": "ids",
          "type": "uint256[]"
        },
        {
          "internalType": "uint256[]",
          "name": "",
          "type": "uint256[]"
        },
        {
          "internalType": "bytes",
          "name": "",
          "type": "bytes"
        }
      ],
      "name": "onERC1155BatchReceived",
      "outputs": [
        {
          "internalType": "bytes4",
          "name": "",
          "type": "bytes4"
        }
      ],
      "stateMutability": "nonpayable",
      "type": "function"
    },
    {
      "inputs": [
        {
          "internalType": "address",
          "name": "",
          "type": "address"
        },
        {
          "internalType": "address",
          "name": "",
          "type": "address"
        },
        {
          "internalType": "uint256",
          "name": "",
          "type": "uint256"
        },
        {
          "internalType": "uint256",
          "name": "",
          "type": "uint256"
        },
        {
          "internalType": "bytes",
          "name": "",
          "type": "bytes"
        }
      ],
      "name": "onERC1155Received",
      "outputs": [
        {
          "internalType": "bytes4",
          "name": "",
          "type": "bytes4"
        }
      ],
      "stateMutability": "nonpayable",
      "type": "function"
    },
    {
      "inputs": [],
      "name": "priorityRestrictedThreshold",
      "outputs": [
        {
          "internalType": "uint256",
          "name": "",
          "type": "uint256"
        }
      ],
      "stateMutability": "view",
      "type": "function"
    },
    {
      "inputs": [
        {
          "internalType": "bytes32",
          "name": "role",
          "type": "bytes32"
        },
        {
          "internalType": "address",
          "name": "account",
          "type": "address"
        }
      ],
      "name": "renounceRole",
      "outputs": [],
      "stateMutability": "nonpayable",
      "type": "function"
    },
    {
      "inputs": [
        {
          "internalType": "bytes32",
          "name": "role",
          "type": "bytes32"
        },
        {
          "internalType": "address",
          "name": "account",
          "type": "address"
        }
      ],
      "name": "revokeRole",
      "outputs": [],
      "stateMutability": "nonpayable",
      "type": "function"
    },
    {
      "inputs": [
        {
          "internalType": "uint256",
          "name": "threshold",
          "type": "uint256"
        }
      ],
      "name": "setPriorityRestrictedThreshold",
      "outputs": [],
      "stateMutability": "nonpayable",
      "type": "function"
    },
    {
      "inputs": [
        {
          "internalType": "bytes4",
          "name": "interfaceId",
          "type": "bytes4"
        }
      ],
      "name": "supportsInterface",
      "outputs": [
        {
          "internalType": "bool",
          "name": "",
          "type": "bool"
        }
      ],
      "stateMutability": "view",
      "type": "function"
    },
    {
      "inputs": [
        {
          "internalType": "address",
          "name": "",
          "type": "address"
        },
        {
          "internalType": "address",
          "name": "from",
          "type": "address"
        },
        {
          "internalType": "address",
          "name": "",
          "type": "address"
        },
        {
          "internalType": "uint256",
          "name": "amount",
          "type": "uint256"
        },
        {
          "internalType": "bytes",
          "name": "userData",
          "type": "bytes"
        },
        {
          "internalType": "bytes",
          "name": "",
          "type": "bytes"
        }
      ],
      "name": "tokensReceived",
      "outputs": [],
      "stateMutability": "nonpayable",
      "type": "function"
    },
    {
      "inputs": [],
      "name": "totalSupply",
      "outputs": [
        {
          "internalType": "uint256",
          "name": "",
          "type": "uint256"
        }
      ],
      "stateMutability": "view",
      "type": "function"
    }
  ],
  "bytecode": "0x608060405234801561001057600080fd5b50612065806100206000396000f3fe608060405234801561001057600080fd5b50600436106101155760003560e01c806391d14854116100a2578063ca15c87311610071578063ca15c87314610263578063d547741f14610276578063d797462f14610289578063f23a6e611461029c578063f7013ef6146102bb57600080fd5b806391d1485414610214578063a0f4031714610227578063a217fddf1461022f578063bc197c811461023757600080fd5b8063248a9ca3116100e9578063248a9ca3146101795780632f2ff15d1461019c5780633030b532146101af57806336568abe146101d65780639010d07c146101e957600080fd5b806223de291461011a57806301ffc9a71461012f57806312de2b051461015757806318160ddd1461016f575b600080fd5b61012d610128366004611864565b6102ce565b005b61014261013d366004611915565b610c0f565b60405190151581526020015b60405180910390f35b6101616101365481565b60405190815260200161014e565b6101616101375481565b61016161018736600461193f565b60009081526065602052604090206001015490565b61012d6101aa366004611958565b610c2f565b6101617f26a560d834a19637eccba4611bbc09fb32970bb627da0a70f14f83fdc9822cbc81565b61012d6101e4366004611958565b610c5a565b6101fc6101f7366004611988565b610cd8565b6040516001600160a01b03909116815260200161014e565b610142610222366004611958565b610cf7565b610161610d22565b610161600081565b61024a610245366004611ae1565b610ddf565b6040516001600160e01b0319909116815260200161014e565b61016161027136600461193f565b610f1c565b61012d610284366004611958565b610f33565b61012d61029736600461193f565b610f59565b61024a6102aa366004611b8f565b63f23a6e6160e01b95945050505050565b61012d6102c9366004611bf8565b610fa2565b6101375460000361031d5760405162461bcd60e51b81526020600482015260146024820152734d61726b65743a204f7574206f662073746f636b60601b60448201526064015b60405180910390fd5b6101365461013754116103ae576103547f26a560d834a19637eccba4611bbc09fb32970bb627da0a70f14f83fdc9822cbc88610cf7565b6103ae5760405162461bcd60e51b815260206004820152602560248201527f4c6f7720737570706c7920616e64206275796572206e6f74206f6e20616c6c6f6044820152641ddb1a5cdd60da1b6064820152608401610314565b60006101355460646103c09190611c72565b6103cb876064611c8a565b6103d59190611ca9565b90508060006103e686880188611ccb565b90506101335461013254036104395760405162461bcd60e51b81526020600482015260196024820152784d61726b65743a204e6f7420656e6f75676820737570706c7960381b6044820152606401610314565b6001600160a01b03811661049b5760405162461bcd60e51b8152602060048201526024808201527f4d61726b65743a2043616e6e6f74206d696e7420746f207468652030206164646044820152637265737360e01b6064820152608401610314565b610130546001600160a01b0316331461051c5760405162461bcd60e51b815260206004820152603960248201527f4d61726b65743a205468697320636f6e74726163742063616e206f6e6c79207260448201527f6563656976652042726964676564506f6c79676f6e4e4f5249000000000000006064820152608401610314565b60006105266111c6565b67ffffffffffffffff81111561053e5761053e6119aa565b604051908082528060200260200182016040528015610567578160200160208202803683370190505b50905060006105746111c6565b67ffffffffffffffff81111561058c5761058c6119aa565b6040519080825280602002602001820160405280156105b5578160200160208202803683370190505b50905060006105c26111c6565b67ffffffffffffffff8111156105da576105da6119aa565b604051908082528060200260200182016040528015610603578160200160208202803683370190505b50610132549091505b6101335481101561085d5761012e5460008281526101316020526040808220549051627eeac760e11b8152306004820152602481019190915290916001600160a01b03169062fdd58e90604401602060405180830381865afa158015610676573d6000803e3d6000fd5b505050506040513d601f19601f8201168201806040525081019061069a9190611ce8565b60008381526101316020526040812054919250906106b7906111df565b90508188101561074c576000838152610131602052604090205486518790859081106106e5576106e5611d01565b6020026020010181815250508785848151811061070457610704611d01565b6020026020010181815250508084848151811061072357610723611d01565b60200260200101906001600160a01b031690816001600160a01b03168152505060009750610839565b60016101335461075c9190611d17565b8314801561076957508188115b156107b25760405162461bcd60e51b81526020600482015260196024820152784d61726b65743a204e6f7420656e6f75676820737570706c7960381b6044820152606401610314565b6000838152610131602052604090205486518790859081106107d6576107d6611d01565b602002602001018181525050818584815181106107f5576107f5611d01565b6020026020010181815250508084848151811061081457610814611d01565b6001600160a01b03909216602092830291909101909101526108368289611d17565b97505b8760000361084857505061085d565b5050808061085590611d2e565b91505061060c565b5060008660405160200161087391815260200190565b60408051601f198184030181529082905261012f54630fbfeffd60e11b83529092506001600160a01b031690631f7fdffa906108b9908890889088908790600401611dde565b600060405180830381600087803b1580156108d357600080fd5b505af11580156108e7573d6000803e3d6000fd5b5050505060005b8451811015610b965783818151811061090957610909611d01565b602002602001015160000315610b965783818151811061092b5761092b611d01565b602002602001015161013760008282546109459190611d17565b909155505061012e546000828152610131602052604090819020549051627eeac760e11b815230600482015260248101919091526001600160a01b039091169062fdd58e90604401602060405180830381865afa1580156109aa573d6000803e3d6000fd5b505050506040513d601f19601f820116820180604052508101906109ce9190611ce8565b8482815181106109e0576109e0611d01565b602002602001015103610a045761013280549060006109fe83611d2e565b91905055505b6000610135546064868481518110610a1e57610a1e611d01565b6020026020010151610a309190611ca9565b610a3a9190611c8a565b90506000858381518110610a5057610a50611d01565b6020908102919091010151610130546101345460405163a9059cbb60e01b81526001600160a01b03918216600482015260248101869052929350169063a9059cbb906044016020604051808303816000875af1158015610ab4573d6000803e3d6000fd5b505050506040513d601f19601f82011682018060405250810190610ad89190611e28565b506101305485516001600160a01b039091169063a9059cbb90879086908110610b0357610b03611d01565b6020026020010151836040518363ffffffff1660e01b8152600401610b3d9291906001600160a01b03929092168252602082015260400190565b6020604051808303816000875af1158015610b5c573d6000803e3d6000fd5b505050506040513d601f19601f82011682018060405250810190610b809190611e28565b5050508080610b8e90611d2e565b9150506108ee565b5061012e54604051631ac8311560e21b81526001600160a01b0390911690636b20c45490610bcc90309088908890600401611e4a565b600060405180830381600087803b158015610be657600080fd5b505af1158015610bfa573d6000803e3d6000fd5b50505050505050505050505050505050505050565b6000610c1a826111ee565b80610c295750610c2982611213565b92915050565b600082815260656020526040902060010154610c4b8133611238565b610c55838361129c565b505050565b6001600160a01b0381163314610cca5760405162461bcd60e51b815260206004820152602f60248201527f416363657373436f6e74726f6c3a2063616e206f6e6c792072656e6f756e636560448201526e103937b632b9903337b91039b2b63360891b6064820152608401610314565b610cd482826112be565b5050565b6000828152609760205260408120610cf090836112e0565b9392505050565b60009182526065602090815260408084206001600160a01b0393909316845291905290205460ff1690565b6101325460009081905b61013354811015610dd95761012e546000828152610131602052604090819020549051627eeac760e11b815230600482015260248101919091526001600160a01b039091169062fdd58e90604401602060405180830381865afa158015610d97573d6000803e3d6000fd5b505050506040513d601f19601f82011682018060405250810190610dbb9190611ce8565b610dc59083611c72565b915080610dd181611d2e565b915050610d2c565b50919050565b6000805b8451811015610f095761012e5485516000916001600160a01b03169062fdd58e903090899086908110610e1857610e18611d01565b60200260200101516040518363ffffffff1660e01b8152600401610e519291906001600160a01b03929092168252602082015260400190565b602060405180830381865afa158015610e6e573d6000803e3d6000fd5b505050506040513d601f19601f82011682018060405250810190610e929190611ce8565b9050806101376000828254610ea79190611c72565b92505081905550858281518110610ec057610ec0611d01565b602090810291909101810151610133805460009081526101319093526040832091909155805491610ef083611d2e565b9190505550508080610f0190611d2e565b915050610de3565b5063bc197c8160e01b9695505050505050565b6000818152609760205260408120610c29906112ec565b600082815260656020526040902060010154610f4f8133611238565b610c5583836112be565b6000610f658133611238565b6101368290556040518281527f7ab6aa6547859e9ca74d567d44fefa0d63272ac019f4ebf9333032a62ea06fa59060200160405180910390a15050565b600054610100900460ff16610fbd5760005460ff1615610fc1565b303b155b6110245760405162461bcd60e51b815260206004820152602e60248201527f496e697469616c697a61626c653a20636f6e747261637420697320616c72656160448201526d191e481a5b9a5d1a585b1a5e995960921b6064820152608401610314565b600054610100900460ff16158015611046576000805461ffff19166101011790555b61104e6112f6565b6110566112f6565b61105e6112f6565b6110666112f6565b61106e6112f6565b61012e80546001600160a01b03199081166001600160a01b03898116919091179092556101308054821688841617905561012f80548216878416179055610134805482169286169290921790915561013583905561012d8054731820a4b7618bde71dce8cdc73aab6c95905fad249216821790556040516329965a1d60e01b815230600482018190527fb281fc8c12954d22544db45de3159a39272895b169a852b314f9cc762e44c53b602483015260448201526329965a1d90606401600060405180830381600087803b15801561114557600080fd5b505af1158015611159573d6000803e3d6000fd5b50506000610132819055610133819055610136819055610137819055611182925090503361129c565b6111ac7f26a560d834a19637eccba4611bbc09fb32970bb627da0a70f14f83fdc9822cbc3361129c565b80156111be576000805461ff00191690555b505050505050565b600061013254610133546111da9190611d17565b905090565b6000610c298260146004611363565b60006001600160e01b03198216635a05180f60e01b1480610c295750610c29826113af565b60006001600160e01b03198216630271189760e51b1480610c295750610c29826111ee565b6112428282610cf7565b610cd45761125a816001600160a01b031660146113e4565b6112658360206113e4565b604051602001611276929190611e8a565b60408051601f198184030181529082905262461bcd60e51b825261031491600401611eff565b6112a68282611580565b6000828152609760205260409020610c559082611606565b6112c8828261161b565b6000828152609760205260409020610c559082611682565b6000610cf08383611697565b6000610c29825490565b600054610100900460ff166113615760405162461bcd60e51b815260206004820152602b60248201527f496e697469616c697a61626c653a20636f6e7472616374206973206e6f74206960448201526a6e697469616c697a696e6760a81b6064820152608401610314565b565b600080611371600884611c8a565b600161137e600887611c8a565b611389906002611ff6565b6113939190611d17565b901b90508481166113a5600885611c8a565b1c95945050505050565b60006001600160e01b03198216637965db0b60e01b1480610c2957506301ffc9a760e01b6001600160e01b0319831614610c29565b606060006113f3836002611c8a565b6113fe906002611c72565b67ffffffffffffffff811115611416576114166119aa565b6040519080825280601f01601f191660200182016040528015611440576020820181803683370190505b509050600360fc1b8160008151811061145b5761145b611d01565b60200101906001600160f81b031916908160001a905350600f60fb1b8160018151811061148a5761148a611d01565b60200101906001600160f81b031916908160001a90535060006114ae846002611c8a565b6114b9906001611c72565b90505b6001811115611531576f181899199a1a9b1b9c1cb0b131b232b360811b85600f16601081106114ed576114ed611d01565b1a60f81b82828151811061150357611503611d01565b60200101906001600160f81b031916908160001a90535060049490941c9361152a81612002565b90506114bc565b508315610cf05760405162461bcd60e51b815260206004820181905260248201527f537472696e67733a20686578206c656e67746820696e73756666696369656e746044820152606401610314565b61158a8282610cf7565b610cd45760008281526065602090815260408083206001600160a01b03851684529091529020805460ff191660011790556115c23390565b6001600160a01b0316816001600160a01b0316837f2f8788117e7eff1d82e926ec794901d17c78024a50270940304540a733656f0d60405160405180910390a45050565b6000610cf0836001600160a01b0384166116c1565b6116258282610cf7565b15610cd45760008281526065602090815260408083206001600160a01b0385168085529252808320805460ff1916905551339285917ff6391f5c32d9c69d2a47ea670b442974b53935d1edc7fd64eb21e047a839171b9190a45050565b6000610cf0836001600160a01b038416611710565b60008260000182815481106116ae576116ae611d01565b9060005260206000200154905092915050565b600081815260018301602052604081205461170857508154600181810184556000848152602080822090930184905584548482528286019093526040902091909155610c29565b506000610c29565b600081815260018301602052604081205480156117f9576000611734600183611d17565b855490915060009061174890600190611d17565b90508181146117ad57600086600001828154811061176857611768611d01565b906000526020600020015490508087600001848154811061178b5761178b611d01565b6000918252602080832090910192909255918252600188019052604090208390555b85548690806117be576117be612019565b600190038181906000526020600020016000905590558560010160008681526020019081526020016000206000905560019350505050610c29565b6000915050610c29565b6001600160a01b038116811461181857600080fd5b50565b60008083601f84011261182d57600080fd5b50813567ffffffffffffffff81111561184557600080fd5b60208301915083602082850101111561185d57600080fd5b9250929050565b60008060008060008060008060c0898b03121561188057600080fd5b883561188b81611803565b9750602089013561189b81611803565b965060408901356118ab81611803565b955060608901359450608089013567ffffffffffffffff808211156118cf57600080fd5b6118db8c838d0161181b565b909650945060a08b01359150808211156118f457600080fd5b506119018b828c0161181b565b999c989b5096995094979396929594505050565b60006020828403121561192757600080fd5b81356001600160e01b031981168114610cf057600080fd5b60006020828403121561195157600080fd5b5035919050565b6000806040838503121561196b57600080fd5b82359150602083013561197d81611803565b809150509250929050565b6000806040838503121561199b57600080fd5b50508035926020909101359150565b634e487b7160e01b600052604160045260246000fd5b604051601f8201601f1916810167ffffffffffffffff811182821017156119e9576119e96119aa565b604052919050565b600082601f830112611a0257600080fd5b8135602067ffffffffffffffff821115611a1e57611a1e6119aa565b8160051b611a2d8282016119c0565b9283528481018201928281019087851115611a4757600080fd5b83870192505b84831015611a6657823582529183019190830190611a4d565b979650505050505050565b600082601f830112611a8257600080fd5b813567ffffffffffffffff811115611a9c57611a9c6119aa565b611aaf601f8201601f19166020016119c0565b818152846020838601011115611ac457600080fd5b816020850160208301376000918101602001919091529392505050565b600080600080600060a08688031215611af957600080fd5b8535611b0481611803565b94506020860135611b1481611803565b9350604086013567ffffffffffffffff80821115611b3157600080fd5b611b3d89838a016119f1565b94506060880135915080821115611b5357600080fd5b611b5f89838a016119f1565b93506080880135915080821115611b7557600080fd5b50611b8288828901611a71565b9150509295509295909350565b600080600080600060a08688031215611ba757600080fd5b8535611bb281611803565b94506020860135611bc281611803565b93506040860135925060608601359150608086013567ffffffffffffffff811115611bec57600080fd5b611b8288828901611a71565b600080600080600060a08688031215611c1057600080fd5b8535611c1b81611803565b94506020860135611c2b81611803565b93506040860135611c3b81611803565b92506060860135611c4b81611803565b949793965091946080013592915050565b634e487b7160e01b600052601160045260246000fd5b60008219821115611c8557611c85611c5c565b500190565b6000816000190483118215151615611ca457611ca4611c5c565b500290565b600082611cc657634e487b7160e01b600052601260045260246000fd5b500490565b600060208284031215611cdd57600080fd5b8135610cf081611803565b600060208284031215611cfa57600080fd5b5051919050565b634e487b7160e01b600052603260045260246000fd5b600082821015611d2957611d29611c5c565b500390565b600060018201611d4057611d40611c5c565b5060010190565b600081518084526020808501945080840160005b83811015611d7757815187529582019590820190600101611d5b565b509495945050505050565b60005b83811015611d9d578181015183820152602001611d85565b83811115611dac576000848401525b50505050565b60008151808452611dca816020860160208601611d82565b601f01601f19169290920160200192915050565b6001600160a01b0385168152608060208201819052600090611e0290830186611d47565b8281036040840152611e148186611d47565b90508281036060840152611a668185611db2565b600060208284031215611e3a57600080fd5b81518015158114610cf057600080fd5b6001600160a01b0384168152606060208201819052600090611e6e90830185611d47565b8281036040840152611e808185611d47565b9695505050505050565b7f416363657373436f6e74726f6c3a206163636f756e7420000000000000000000815260008351611ec2816017850160208801611d82565b7001034b99036b4b9b9b4b733903937b6329607d1b6017918401918201528351611ef3816028840160208801611d82565b01602801949350505050565b602081526000610cf06020830184611db2565b600181815b80851115611f4d578160001904821115611f3357611f33611c5c565b80851615611f4057918102915b93841c9390800290611f17565b509250929050565b600082611f6457506001610c29565b81611f7157506000610c29565b8160018114611f875760028114611f9157611fad565b6001915050610c29565b60ff841115611fa257611fa2611c5c565b50506001821b610c29565b5060208310610133831016604e8410600b8410161715611fd0575081810a610c29565b611fda8383611f12565b8060001904821115611fee57611fee611c5c565b029392505050565b6000610cf08383611f55565b60008161201157612011611c5c565b506000190190565b634e487b7160e01b600052603160045260246000fdfea264697066735822122097a85614935de7a8e7ced869ea6f86a9bc58dd55853b2a1f154cedd69b1f86f164736f6c634300080d0033",
  "linkReferences": {},
  "deployedLinkReferences": {}
}