{
  "_format": "hh-sol-artifact-1",
  "contractName": "FIFOMarket",
  "sourceName": "contracts/FIFOMarket.sol",
  "abi": [
    {
      "anonymous": false,
      "inputs": [
        {
          "indexed": false,
          "internalType": "uint256",
          "name": "threshold",
          "type": "uint256"
        }
      ],
      "name": "PriorityRestrictedThresholdSet",
      "type": "event"
    },
    {
      "anonymous": false,
      "inputs": [
        {
          "indexed": true,
          "internalType": "bytes32",
          "name": "role",
          "type": "bytes32"
        },
        {
          "indexed": true,
          "internalType": "bytes32",
          "name": "previousAdminRole",
          "type": "bytes32"
        },
        {
          "indexed": true,
          "internalType": "bytes32",
          "name": "newAdminRole",
          "type": "bytes32"
        }
      ],
      "name": "RoleAdminChanged",
      "type": "event"
    },
    {
      "anonymous": false,
      "inputs": [
        {
          "indexed": true,
          "internalType": "bytes32",
          "name": "role",
          "type": "bytes32"
        },
        {
          "indexed": true,
          "internalType": "address",
          "name": "account",
          "type": "address"
        },
        {
          "indexed": true,
          "internalType": "address",
          "name": "sender",
          "type": "address"
        }
      ],
      "name": "RoleGranted",
      "type": "event"
    },
    {
      "anonymous": false,
      "inputs": [
        {
          "indexed": true,
          "internalType": "bytes32",
          "name": "role",
          "type": "bytes32"
        },
        {
          "indexed": true,
          "internalType": "address",
          "name": "account",
          "type": "address"
        },
        {
          "indexed": true,
          "internalType": "address",
          "name": "sender",
          "type": "address"
        }
      ],
      "name": "RoleRevoked",
      "type": "event"
    },
    {
      "inputs": [],
      "name": "ALLOWLIST_ROLE",
      "outputs": [
        {
          "internalType": "bytes32",
          "name": "",
          "type": "bytes32"
        }
      ],
      "stateMutability": "view",
      "type": "function"
    },
    {
      "inputs": [],
      "name": "DEFAULT_ADMIN_ROLE",
      "outputs": [
        {
          "internalType": "bytes32",
          "name": "",
          "type": "bytes32"
        }
      ],
      "stateMutability": "view",
      "type": "function"
    },
    {
      "inputs": [],
      "name": "activeSupplierCount",
      "outputs": [
        {
          "internalType": "uint256",
          "name": "",
          "type": "uint256"
        }
      ],
      "stateMutability": "view",
      "type": "function"
    },
    {
      "inputs": [
        {
          "internalType": "bytes32",
          "name": "role",
          "type": "bytes32"
        }
      ],
      "name": "getRoleAdmin",
      "outputs": [
        {
          "internalType": "bytes32",
          "name": "",
          "type": "bytes32"
        }
      ],
      "stateMutability": "view",
      "type": "function"
    },
    {
      "inputs": [
        {
          "internalType": "bytes32",
          "name": "role",
          "type": "bytes32"
        },
        {
          "internalType": "uint256",
          "name": "index",
          "type": "uint256"
        }
      ],
      "name": "getRoleMember",
      "outputs": [
        {
          "internalType": "address",
          "name": "",
          "type": "address"
        }
      ],
      "stateMutability": "view",
      "type": "function"
    },
    {
      "inputs": [
        {
          "internalType": "bytes32",
          "name": "role",
          "type": "bytes32"
        }
      ],
      "name": "getRoleMemberCount",
      "outputs": [
        {
          "internalType": "uint256",
          "name": "",
          "type": "uint256"
        }
      ],
      "stateMutability": "view",
      "type": "function"
    },
    {
      "inputs": [
        {
          "internalType": "bytes32",
          "name": "role",
          "type": "bytes32"
        },
        {
          "internalType": "address",
          "name": "account",
          "type": "address"
        }
      ],
      "name": "grantRole",
      "outputs": [],
      "stateMutability": "nonpayable",
      "type": "function"
    },
    {
      "inputs": [
        {
          "internalType": "bytes32",
          "name": "role",
          "type": "bytes32"
        },
        {
          "internalType": "address",
          "name": "account",
          "type": "address"
        }
      ],
      "name": "hasRole",
      "outputs": [
        {
          "internalType": "bool",
          "name": "",
          "type": "bool"
        }
      ],
      "stateMutability": "view",
      "type": "function"
    },
    {
      "inputs": [
        {
          "internalType": "address",
          "name": "removalAddress",
          "type": "address"
        },
        {
          "internalType": "address",
          "name": "bridgedPolygonNoriAddress",
          "type": "address"
        },
        {
          "internalType": "address",
          "name": "certificateAddress",
          "type": "address"
        },
        {
          "internalType": "address",
          "name": "noriFeeWalletAddress",
          "type": "address"
        },
        {
          "internalType": "uint256",
          "name": "noriFee",
          "type": "uint256"
        }
      ],
      "name": "initialize",
      "outputs": [],
      "stateMutability": "nonpayable",
      "type": "function"
    },
    {
      "inputs": [],
      "name": "numberOfActiveNrtsInMarketComputed",
      "outputs": [
        {
          "internalType": "uint256",
          "name": "",
          "type": "uint256"
        }
      ],
      "stateMutability": "view",
      "type": "function"
    },
    {
      "inputs": [
        {
          "internalType": "address",
          "name": "",
          "type": "address"
        },
        {
          "internalType": "address",
          "name": "",
          "type": "address"
        },
        {
          "internalType": "uint256[]",
          "name": "ids",
          "type": "uint256[]"
        },
        {
          "internalType": "uint256[]",
          "name": "",
          "type": "uint256[]"
        },
        {
          "internalType": "bytes",
          "name": "",
          "type": "bytes"
        }
      ],
      "name": "onERC1155BatchReceived",
      "outputs": [
        {
          "internalType": "bytes4",
          "name": "",
          "type": "bytes4"
        }
      ],
      "stateMutability": "nonpayable",
      "type": "function"
    },
    {
      "inputs": [
        {
          "internalType": "address",
          "name": "",
          "type": "address"
        },
        {
          "internalType": "address",
          "name": "",
          "type": "address"
        },
        {
          "internalType": "uint256",
          "name": "",
          "type": "uint256"
        },
        {
          "internalType": "uint256",
          "name": "",
          "type": "uint256"
        },
        {
          "internalType": "bytes",
          "name": "",
          "type": "bytes"
        }
      ],
      "name": "onERC1155Received",
      "outputs": [
        {
          "internalType": "bytes4",
          "name": "",
          "type": "bytes4"
        }
      ],
      "stateMutability": "nonpayable",
      "type": "function"
    },
    {
      "inputs": [],
      "name": "priorityRestrictedThreshold",
      "outputs": [
        {
          "internalType": "uint256",
          "name": "",
          "type": "uint256"
        }
      ],
      "stateMutability": "view",
      "type": "function"
    },
    {
      "inputs": [
        {
          "internalType": "bytes32",
          "name": "role",
          "type": "bytes32"
        },
        {
          "internalType": "address",
          "name": "account",
          "type": "address"
        }
      ],
      "name": "renounceRole",
      "outputs": [],
      "stateMutability": "nonpayable",
      "type": "function"
    },
    {
      "inputs": [
        {
          "internalType": "uint256",
          "name": "removalId",
          "type": "uint256"
        }
      ],
      "name": "reserveRemoval",
      "outputs": [
        {
          "internalType": "bool",
          "name": "",
          "type": "bool"
        }
      ],
      "stateMutability": "nonpayable",
      "type": "function"
    },
    {
      "inputs": [
        {
          "internalType": "bytes32",
          "name": "role",
          "type": "bytes32"
        },
        {
          "internalType": "address",
          "name": "account",
          "type": "address"
        }
      ],
      "name": "revokeRole",
      "outputs": [],
      "stateMutability": "nonpayable",
      "type": "function"
    },
    {
      "inputs": [
        {
          "internalType": "uint256",
          "name": "threshold",
          "type": "uint256"
        }
      ],
      "name": "setPriorityRestrictedThreshold",
      "outputs": [],
      "stateMutability": "nonpayable",
      "type": "function"
    },
    {
      "inputs": [
        {
          "internalType": "bytes4",
          "name": "interfaceId",
          "type": "bytes4"
        }
      ],
      "name": "supportsInterface",
      "outputs": [
        {
          "internalType": "bool",
          "name": "",
          "type": "bool"
        }
      ],
      "stateMutability": "view",
      "type": "function"
    },
    {
      "inputs": [
        {
          "internalType": "address",
          "name": "",
          "type": "address"
        },
        {
          "internalType": "address",
          "name": "from",
          "type": "address"
        },
        {
          "internalType": "address",
          "name": "",
          "type": "address"
        },
        {
          "internalType": "uint256",
          "name": "amount",
          "type": "uint256"
        },
        {
          "internalType": "bytes",
          "name": "userData",
          "type": "bytes"
        },
        {
          "internalType": "bytes",
          "name": "",
          "type": "bytes"
        }
      ],
      "name": "tokensReceived",
      "outputs": [],
      "stateMutability": "nonpayable",
      "type": "function"
    },
    {
      "inputs": [],
      "name": "totalActiveSupply",
      "outputs": [
        {
          "internalType": "uint256",
          "name": "",
          "type": "uint256"
        }
      ],
      "stateMutability": "view",
      "type": "function"
    },
    {
      "inputs": [],
      "name": "totalNumberActiveRemovals",
      "outputs": [
        {
          "internalType": "uint256",
          "name": "",
          "type": "uint256"
        }
      ],
      "stateMutability": "view",
      "type": "function"
    },
    {
      "inputs": [],
      "name": "totalReservedSupply",
      "outputs": [
        {
          "internalType": "uint256",
          "name": "",
          "type": "uint256"
        }
      ],
      "stateMutability": "view",
      "type": "function"
    },
    {
      "inputs": [],
      "name": "totalUnrestrictedSupply",
      "outputs": [
        {
          "internalType": "uint256",
          "name": "",
          "type": "uint256"
        }
      ],
      "stateMutability": "view",
      "type": "function"
    },
    {
      "inputs": [
        {
          "internalType": "uint256",
          "name": "removalId",
          "type": "uint256"
        }
      ],
      "name": "unreserveRemoval",
      "outputs": [
        {
          "internalType": "bool",
          "name": "",
          "type": "bool"
        }
      ],
      "stateMutability": "nonpayable",
      "type": "function"
    }
  ],
  "bytecode": "0x608060405234801561001057600080fd5b50612a21806100206000396000f3fe608060405234801561001057600080fd5b50600436106101575760003560e01c806372069264116100c3578063bc197c811161007c578063bc197c81146102c5578063ca15c873146102f1578063d547741f14610304578063d797462f14610317578063f23a6e611461032a578063f7013ef61461034957600080fd5b8063720692641461025a5780637530b450146102645780639010d07c1461026c57806391d148541461029757806397a11ee9146102aa578063a217fddf146102bd57600080fd5b80633030b532116101155780633030b532146101f1578063361b7b9d1461021857806336568abe146102225780633eb12cee1461023557806359e1a71c1461023d578063674d13c81461025057600080fd5b806223de291461015c57806301ffc9a71461017157806312de2b0514610199578063179f0445146101b1578063248a9ca3146101bb5780632f2ff15d146101de575b600080fd5b61016f61016a366004612226565b61035c565b005b61018461017f3660046122d6565b610e8b565b60405190151581526020015b60405180910390f35b6101a36101335481565b604051908152602001610190565b6101a36101345481565b6101a36101c9366004612300565b60009081526065602052604090206001015490565b61016f6101ec366004612319565b610eab565b6101a37f26a560d834a19637eccba4611bbc09fb32970bb627da0a70f14f83fdc9822cbc81565b6101a36101375481565b61016f610230366004612319565b610ed6565b6101a3610f54565b61018461024b366004612300565b61108a565b6101a36101365481565b6101a36101355481565b6101a3611256565b61027f61027a366004612349565b611283565b6040516001600160a01b039091168152602001610190565b6101846102a5366004612319565b6112a2565b6101846102b8366004612300565b6112cd565b6101a3600081565b6102d86102d336600461249f565b6114a2565b6040516001600160e01b03199091168152602001610190565b6101a36102ff366004612300565b611658565b61016f610312366004612319565b61166f565b61016f610325366004612300565b611695565b6102d861033836600461254c565b63f23a6e6160e01b95945050505050565b61016f6103573660046125b4565b6116de565b610135546000036103ab5760405162461bcd60e51b81526020600482015260146024820152734d61726b65743a204f7574206f662073746f636b60601b60448201526064015b60405180910390fd5b61013354610135541161043c576103e27f26a560d834a19637eccba4611bbc09fb32970bb627da0a70f14f83fdc9822cbc886112a2565b61043c5760405162461bcd60e51b815260206004820152602560248201527f4c6f7720737570706c7920616e64206275796572206e6f74206f6e20616c6c6f6044820152641ddb1a5cdd60da1b60648201526084016103a2565b600061013254606461044e919061262e565b610459876064612646565b6104639190612665565b905080600061047486880188612687565b90506001600160a01b0381166104d85760405162461bcd60e51b8152602060048201526024808201527f4d61726b65743a2043616e6e6f74206d696e7420746f207468652030206164646044820152637265737360e01b60648201526084016103a2565b610130546001600160a01b031633146105595760405162461bcd60e51b815260206004820152603960248201527f4d61726b65743a205468697320636f6e74726163742063616e206f6e6c79207260448201527f6563656976652042726964676564506f6c79676f6e4e4f52490000000000000060648201526084016103a2565b6000610134546001600160401b038111156105765761057661236b565b60405190808252806020026020018201604052801561059f578160200160208202803683370190505b5090506000610134546001600160401b038111156105bf576105bf61236b565b6040519080825280602002602001820160405280156105e8578160200160208202803683370190505b5090506000610134546001600160401b038111156106085761060861236b565b604051908082528060200260200182016040528015610631578160200160208202803683370190505b5090506000805b610134548110156109b957610138546001600160a01b0316600090815261013c602052604081206106699082611913565b61012e54604051627eeac760e11b8152306004820152602481018390529192506000916001600160a01b039091169062fdd58e90604401602060405180830381865afa1580156106bd573d6000803e3d6000fd5b505050506040513d601f19601f820116820180604052508101906106e191906126a4565b90508089101561077557818785815181106106fe576106fe6126bd565b6020026020010181815250508886858151811061071d5761071d6126bd565b60209081029190910101526101385485516001600160a01b039091169086908690811061074c5761074c6126bd565b60200260200101906001600160a01b031690816001600160a01b03168152505060009850610988565b60016101345461078591906126d3565b8314801561079257508089115b156107df5760405162461bcd60e51b815260206004820152601960248201527f4d61726b65743a204e6f7420656e6f75676820737570706c790000000000000060448201526064016103a2565b818785815181106107f2576107f26126bd565b60200260200101818152505080868581518110610811576108116126bd565b60209081029190910101526101385485516001600160a01b0390911690869086908110610840576108406126bd565b6001600160a01b0390921660209283029190910190910152610862818a6126d3565b610138546001600160a01b0316600090815261013c6020526040902090995061088b908361191f565b6108e35760405162461bcd60e51b8152602060048201526024808201527f4d61726b65743a2052656d6f76616c206e6f7420696e2061637469766520737560448201526370706c7960e01b60648201526084016103a2565b610138546001600160a01b0316600090815261013c602052604090206109089061192b565b60000361092a5761013854610925906001600160a01b0316611935565b610988565b610138546001600160a01b0390811660008181526101396020526040902060010154909116146109885761013880546001600160a01b0380821660009081526101396020526040902060010154166001600160a01b03199091161790555b83610992816126ea565b945050886000036109a45750506109b9565b505080806109b1906126ea565b915050610638565b506000816001600160401b038111156109d4576109d461236b565b6040519080825280602002602001820160405280156109fd578160200160208202803683370190505b5090506000826001600160401b03811115610a1a57610a1a61236b565b604051908082528060200260200182016040528015610a43578160200160208202803683370190505b50905060005b83811015610ad257868181518110610a6357610a636126bd565b6020026020010151838281518110610a7d57610a7d6126bd565b602002602001018181525050858181518110610a9b57610a9b6126bd565b6020026020010151828281518110610ab557610ab56126bd565b602090810291909101015280610aca816126ea565b915050610a49565b50600089604051602001610ae891815260200190565b60408051601f198184030181529082905261012f54630fbfeffd60e11b83529092506001600160a01b031690631f7fdffa90610b2e908b9087908790879060040161279a565b600060405180830381600087803b158015610b4857600080fd5b505af1158015610b5c573d6000803e3d6000fd5b5050505060005b8351811015610e0f5761012e5484516001600160a01b039091169062fdd58e903090879085908110610b9757610b976126bd565b60200260200101516040518363ffffffff1660e01b8152600401610bd09291906001600160a01b03929092168252602082015260400190565b602060405180830381865afa158015610bed573d6000803e3d6000fd5b505050506040513d601f19601f82011682018060405250810190610c1191906126a4565b838281518110610c2357610c236126bd565b602002602001015103610c4a5760016101346000828254610c4491906126d3565b90915550505b828181518110610c5c57610c5c6126bd565b60200260200101516101356000828254610c7691906126d3565b925050819055506000610132546064858481518110610c9757610c976126bd565b6020026020010151610ca99190612665565b610cb39190612646565b90506000848381518110610cc957610cc96126bd565b6020908102919091010151610130546101315460405163a9059cbb60e01b81526001600160a01b03918216600482015260248101869052929350169063a9059cbb906044016020604051808303816000875af1158015610d2d573d6000803e3d6000fd5b505050506040513d601f19601f82011682018060405250810190610d5191906127e4565b506101305488516001600160a01b039091169063a9059cbb908a9086908110610d7c57610d7c6126bd565b6020026020010151836040518363ffffffff1660e01b8152600401610db69291906001600160a01b03929092168252602082015260400190565b6020604051808303816000875af1158015610dd5573d6000803e3d6000fd5b505050506040513d601f19601f82011682018060405250810190610df991906127e4565b5050508080610e07906126ea565b915050610b63565b5061012e54604051631ac8311560e21b81526001600160a01b0390911690636b20c45490610e4590309087908790600401612806565b600060405180830381600087803b158015610e5f57600080fd5b505af1158015610e73573d6000803e3d6000fd5b50505050505050505050505050505050505050505050565b6000610e9682611a84565b80610ea55750610ea582611aa9565b92915050565b600082815260656020526040902060010154610ec78133611ace565b610ed18383611b32565b505050565b6001600160a01b0381163314610f465760405162461bcd60e51b815260206004820152602f60248201527f416363657373436f6e74726f6c3a2063616e206f6e6c792072656e6f756e636560448201526e103937b632b9903337b91039b2b63360891b60648201526084016103a2565b610f508282611b54565b5050565b6101385460009081906001600160a01b0316815b61013754811015611082576001600160a01b038216600090815261013c60205260408120905b610f978261192b565b81101561104c5761012e546000906001600160a01b031662fdd58e30610fbd8686611913565b6040516001600160e01b031960e085901b1681526001600160a01b0390921660048301526024820152604401602060405180830381865afa158015611006573d6000803e3d6000fd5b505050506040513d601f19601f8201168201806040525081019061102a91906126a4565b9050611036818761262e565b9550508080611044906126ea565b915050610f8e565b50506001600160a01b0391821660009081526101396020526040902060010154909116908061107a816126ea565b915050610f68565b509092915050565b60008061109683611b76565b6001600160a01b038116600090815261013c602052604090209091506110bc818561191f565b15156001146111195760405162461bcd60e51b8152602060048201526024808201527f4d61726b65743a2072656d6f76616c206e6f7420696e2061637469766520737560448201526370706c7960e01b60648201526084016103a2565b6001610134600082825461112d91906126d3565b909155505061012e54604051627eeac760e11b8152306004820152602481018690526000916001600160a01b03169062fdd58e90604401602060405180830381865afa158015611181573d6000803e3d6000fd5b505050506040513d601f19601f820116820180604052508101906111a591906126a4565b90508061013560008282546111ba91906126d3565b925050819055508061013660008282546111d4919061262e565b909155506111e390508261192b565b6000036111f3576111f383611935565b6111ff61013a86611b85565b61124b5760405162461bcd60e51b815260206004820181905260248201527f4d61726b65743a2052656d6f76616c20616c726561647920726573657276656460448201526064016103a2565b506001949350505050565b60006101335461013554101561126c5750600090565b610133546101355461127e91906126d3565b905090565b600082815260976020526040812061129b9083611913565b9392505050565b60009182526065602090815260408084206001600160a01b0393909316845291905290205460ff1690565b6000806112d983611b76565b6001600160a01b038116600090815261013c6020526040902090915061130161013a8561191f565b15156001146113615760405162461bcd60e51b815260206004820152602660248201527f4d61726b65743a2072656d6f76616c206e6f7420696e20726573657276656420604482015265737570706c7960d01b60648201526084016103a2565b60016101346000828254611375919061262e565b909155505061012e54604051627eeac760e11b8152306004820152602481018690526000916001600160a01b03169062fdd58e90604401602060405180830381865afa1580156113c9573d6000803e3d6000fd5b505050506040513d601f19601f820116820180604052508101906113ed91906126a4565b9050806101356000828254611402919061262e565b9250508190555080610136600082825461141c91906126d3565b9091555061142b90508261192b565b60000361143b5761143b83611b91565b6114458286611b85565b61124b5760405162461bcd60e51b815260206004820152602860248201527f4d61726b65743a2052656d6f76616c20616c726561647920696e2061637469766044820152676520737570706c7960c01b60648201526084016103a2565b6000805b84518110156116455761012e5485516000916001600160a01b03169062fdd58e9030908990869081106114db576114db6126bd565b60200260200101516040518363ffffffff1660e01b81526004016115149291906001600160a01b03929092168252602082015260400190565b602060405180830381865afa158015611531573d6000803e3d6000fd5b505050506040513d601f19601f8201168201806040525081019061155591906126a4565b905080610135600082825461156a919061262e565b9250508190555060016101346000828254611585919061262e565b9250508190555060006115b08784815181106115a3576115a36126bd565b6020026020010151611b76565b90506116038784815181106115c7576115c76126bd565b602002602001015161013c6000846001600160a01b03166001600160a01b03168152602001908152602001600020611b8590919063ffffffff16565b506001600160a01b0381811660009081526101396020526040902060010154166116305761163081611b91565b5050808061163d906126ea565b9150506114a6565b5063bc197c8160e01b9695505050505050565b6000818152609760205260408120610ea59061192b565b60008281526065602052604090206001015461168b8133611ace565b610ed18383611b54565b60006116a18133611ace565b6101338290556040518281527f7ab6aa6547859e9ca74d567d44fefa0d63272ac019f4ebf9333032a62ea06fa59060200160405180910390a15050565b600054610100900460ff166116f95760005460ff16156116fd565b303b155b6117605760405162461bcd60e51b815260206004820152602e60248201527f496e697469616c697a61626c653a20636f6e747261637420697320616c72656160448201526d191e481a5b9a5d1a585b1a5e995960921b60648201526084016103a2565b600054610100900460ff16158015611782576000805461ffff19166101011790555b61178a611cba565b611792611cba565b61179a611cba565b6117a2611cba565b6117aa611cba565b61012e80546001600160a01b03199081166001600160a01b03898116919091179092556101308054821688841617905561012f80548216878416179055610131805482169286169290921790915561013283905561012d8054731820a4b7618bde71dce8cdc73aab6c95905fad249216821790556040516329965a1d60e01b815230600482018190527fb281fc8c12954d22544db45de3159a39272895b169a852b314f9cc762e44c53b602483015260448201526329965a1d90606401600060405180830381600087803b15801561188157600080fd5b505af1158015611895573d6000803e3d6000fd5b5050600061013381905561013581905561013681905561013481905561013880546001600160a01b03191690556118cf9250905033611b32565b6118f97f26a560d834a19637eccba4611bbc09fb32970bb627da0a70f14f83fdc9822cbc33611b32565b801561190b576000805461ff00191690555b505050505050565b600061129b8383611d27565b600061129b8383611d51565b6000610ea5825490565b6001600160a01b038082166000818152610139602052604090206001015490911690036119725761013880546001600160a01b0319169055611a11565b6001600160a01b03818116600081815261013960205260408082206001808201805483548816865284862090920180549288166001600160a01b0319938416179055915491548616845291909220805492851692909116919091179055610138549091169003611a11576001600160a01b038082166000908152610139602052604090206001015461013880546001600160a01b031916919092161790555b604080518082018252600080825260208083018281526001600160a01b038681168452610139909252938220925183546001600160a01b0319908116918316919091178455935160019384018054909516911617909255610137805491929091611a7c9084906126d3565b909155505050565b60006001600160e01b03198216635a05180f60e01b1480610ea55750610ea582611e44565b60006001600160e01b03198216630271189760e51b1480610ea55750610ea582611a84565b611ad882826112a2565b610f5057611af0816001600160a01b03166014611e79565b611afb836020611e79565b604051602001611b0c929190612846565b60408051601f198184030181529082905262461bcd60e51b82526103a2916004016128bb565b611b3c8282612014565b6000828152609760205260409020610ed1908261209a565b611b5e82826120af565b6000828152609760205260409020610ed19082612116565b6000610ea5826014600461212b565b600061129b8383612177565b610138546001600160a01b0316611c0c5761013880546001600160a01b03199081166001600160a01b0384811691821790935560408051808201825282815260208082018481526000948552610139909152919092209151825484169085161782555160019190910180549092169216919091179055611ca6565b60408051808201825261013880546001600160a01b03908116600081815261013960208181528783205485168752808701938452888516808452919052868220955186549085166001600160a01b0319918216178755925160019687018054918616918516919091179055845484168252868220548416825286822090950180548316861790559254909116825292902080549092161790555b60016101376000828254611a7c919061262e565b600054610100900460ff16611d255760405162461bcd60e51b815260206004820152602b60248201527f496e697469616c697a61626c653a20636f6e7472616374206973206e6f74206960448201526a6e697469616c697a696e6760a81b60648201526084016103a2565b565b6000826000018281548110611d3e57611d3e6126bd565b9060005260206000200154905092915050565b60008181526001830160205260408120548015611e3a576000611d756001836126d3565b8554909150600090611d89906001906126d3565b9050818114611dee576000866000018281548110611da957611da96126bd565b9060005260206000200154905080876000018481548110611dcc57611dcc6126bd565b6000918252602080832090910192909255918252600188019052604090208390555b8554869080611dff57611dff6128ce565b600190038181906000526020600020016000905590558560010160008681526020019081526020016000206000905560019350505050610ea5565b6000915050610ea5565b60006001600160e01b03198216637965db0b60e01b1480610ea557506301ffc9a760e01b6001600160e01b0319831614610ea5565b60606000611e88836002612646565b611e9390600261262e565b6001600160401b03811115611eaa57611eaa61236b565b6040519080825280601f01601f191660200182016040528015611ed4576020820181803683370190505b509050600360fc1b81600081518110611eef57611eef6126bd565b60200101906001600160f81b031916908160001a905350600f60fb1b81600181518110611f1e57611f1e6126bd565b60200101906001600160f81b031916908160001a9053506000611f42846002612646565b611f4d90600161262e565b90505b6001811115611fc5576f181899199a1a9b1b9c1cb0b131b232b360811b85600f1660108110611f8157611f816126bd565b1a60f81b828281518110611f9757611f976126bd565b60200101906001600160f81b031916908160001a90535060049490941c93611fbe816128e4565b9050611f50565b50831561129b5760405162461bcd60e51b815260206004820181905260248201527f537472696e67733a20686578206c656e67746820696e73756666696369656e7460448201526064016103a2565b61201e82826112a2565b610f505760008281526065602090815260408083206001600160a01b03851684529091529020805460ff191660011790556120563390565b6001600160a01b0316816001600160a01b0316837f2f8788117e7eff1d82e926ec794901d17c78024a50270940304540a733656f0d60405160405180910390a45050565b600061129b836001600160a01b038416612177565b6120b982826112a2565b15610f505760008281526065602090815260408083206001600160a01b0385168085529252808320805460ff1916905551339285917ff6391f5c32d9c69d2a47ea670b442974b53935d1edc7fd64eb21e047a839171b9190a45050565b600061129b836001600160a01b038416611d51565b600080612139600884612646565b6001612146600887612646565b6121519060026129df565b61215b91906126d3565b901b905084811661216d600885612646565b1c95945050505050565b60008181526001830160205260408120546121be57508154600181810184556000848152602080822090930184905584548482528286019093526040902091909155610ea5565b506000610ea5565b6001600160a01b03811681146121db57600080fd5b50565b60008083601f8401126121f057600080fd5b5081356001600160401b0381111561220757600080fd5b60208301915083602082850101111561221f57600080fd5b9250929050565b60008060008060008060008060c0898b03121561224257600080fd5b883561224d816121c6565b9750602089013561225d816121c6565b9650604089013561226d816121c6565b95506060890135945060808901356001600160401b038082111561229057600080fd5b61229c8c838d016121de565b909650945060a08b01359150808211156122b557600080fd5b506122c28b828c016121de565b999c989b5096995094979396929594505050565b6000602082840312156122e857600080fd5b81356001600160e01b03198116811461129b57600080fd5b60006020828403121561231257600080fd5b5035919050565b6000806040838503121561232c57600080fd5b82359150602083013561233e816121c6565b809150509250929050565b6000806040838503121561235c57600080fd5b50508035926020909101359150565b634e487b7160e01b600052604160045260246000fd5b604051601f8201601f191681016001600160401b03811182821017156123a9576123a961236b565b604052919050565b600082601f8301126123c257600080fd5b813560206001600160401b038211156123dd576123dd61236b565b8160051b6123ec828201612381565b928352848101820192828101908785111561240657600080fd5b83870192505b848310156124255782358252918301919083019061240c565b979650505050505050565b600082601f83011261244157600080fd5b81356001600160401b0381111561245a5761245a61236b565b61246d601f8201601f1916602001612381565b81815284602083860101111561248257600080fd5b816020850160208301376000918101602001919091529392505050565b600080600080600060a086880312156124b757600080fd5b85356124c2816121c6565b945060208601356124d2816121c6565b935060408601356001600160401b03808211156124ee57600080fd5b6124fa89838a016123b1565b9450606088013591508082111561251057600080fd5b61251c89838a016123b1565b9350608088013591508082111561253257600080fd5b5061253f88828901612430565b9150509295509295909350565b600080600080600060a0868803121561256457600080fd5b853561256f816121c6565b9450602086013561257f816121c6565b9350604086013592506060860135915060808601356001600160401b038111156125a857600080fd5b61253f88828901612430565b600080600080600060a086880312156125cc57600080fd5b85356125d7816121c6565b945060208601356125e7816121c6565b935060408601356125f7816121c6565b92506060860135612607816121c6565b949793965091946080013592915050565b634e487b7160e01b600052601160045260246000fd5b6000821982111561264157612641612618565b500190565b600081600019048311821515161561266057612660612618565b500290565b60008261268257634e487b7160e01b600052601260045260246000fd5b500490565b60006020828403121561269957600080fd5b813561129b816121c6565b6000602082840312156126b657600080fd5b5051919050565b634e487b7160e01b600052603260045260246000fd5b6000828210156126e5576126e5612618565b500390565b6000600182016126fc576126fc612618565b5060010190565b600081518084526020808501945080840160005b8381101561273357815187529582019590820190600101612717565b509495945050505050565b60005b83811015612759578181015183820152602001612741565b83811115612768576000848401525b50505050565b6000815180845261278681602086016020860161273e565b601f01601f19169290920160200192915050565b6001600160a01b03851681526080602082018190526000906127be90830186612703565b82810360408401526127d08186612703565b90508281036060840152612425818561276e565b6000602082840312156127f657600080fd5b8151801515811461129b57600080fd5b6001600160a01b038416815260606020820181905260009061282a90830185612703565b828103604084015261283c8185612703565b9695505050505050565b7f416363657373436f6e74726f6c3a206163636f756e742000000000000000000081526000835161287e81601785016020880161273e565b7001034b99036b4b9b9b4b733903937b6329607d1b60179184019182015283516128af81602884016020880161273e565b01602801949350505050565b60208152600061129b602083018461276e565b634e487b7160e01b600052603160045260246000fd5b6000816128f3576128f3612618565b506000190190565b600181815b8085111561293657816000190482111561291c5761291c612618565b8085161561292957918102915b93841c9390800290612900565b509250929050565b60008261294d57506001610ea5565b8161295a57506000610ea5565b8160018114612970576002811461297a57612996565b6001915050610ea5565b60ff84111561298b5761298b612618565b50506001821b610ea5565b5060208310610133831016604e8410600b84101617156129b9575081810a610ea5565b6129c383836128fb565b80600019048211156129d7576129d7612618565b029392505050565b600061129b838361293e56fea2646970667358221220b13c33a3f3384dc2896b941170f7c69dc1be62597c76fdb0400b40c2e617725a64736f6c634300080d0033",
  "linkReferences": {},
  "deployedLinkReferences": {}
}