{
  "_format": "hh-sol-artifact-1",
  "contractName": "FIFOMarket",
  "sourceName": "contracts/FIFOMarket.sol",
  "abi": [
    {
      "anonymous": false,
      "inputs": [
        {
          "indexed": true,
          "internalType": "bytes32",
          "name": "role",
          "type": "bytes32"
        },
        {
          "indexed": true,
          "internalType": "bytes32",
          "name": "previousAdminRole",
          "type": "bytes32"
        },
        {
          "indexed": true,
          "internalType": "bytes32",
          "name": "newAdminRole",
          "type": "bytes32"
        }
      ],
      "name": "RoleAdminChanged",
      "type": "event"
    },
    {
      "anonymous": false,
      "inputs": [
        {
          "indexed": true,
          "internalType": "bytes32",
          "name": "role",
          "type": "bytes32"
        },
        {
          "indexed": true,
          "internalType": "address",
          "name": "account",
          "type": "address"
        },
        {
          "indexed": true,
          "internalType": "address",
          "name": "sender",
          "type": "address"
        }
      ],
      "name": "RoleGranted",
      "type": "event"
    },
    {
      "anonymous": false,
      "inputs": [
        {
          "indexed": true,
          "internalType": "bytes32",
          "name": "role",
          "type": "bytes32"
        },
        {
          "indexed": true,
          "internalType": "address",
          "name": "account",
          "type": "address"
        },
        {
          "indexed": true,
          "internalType": "address",
          "name": "sender",
          "type": "address"
        }
      ],
      "name": "RoleRevoked",
      "type": "event"
    },
    {
      "inputs": [],
      "name": "DEFAULT_ADMIN_ROLE",
      "outputs": [
        {
          "internalType": "bytes32",
          "name": "",
          "type": "bytes32"
        }
      ],
      "stateMutability": "view",
      "type": "function"
    },
    {
      "inputs": [
        {
          "internalType": "bytes32",
          "name": "role",
          "type": "bytes32"
        }
      ],
      "name": "getRoleAdmin",
      "outputs": [
        {
          "internalType": "bytes32",
          "name": "",
          "type": "bytes32"
        }
      ],
      "stateMutability": "view",
      "type": "function"
    },
    {
      "inputs": [
        {
          "internalType": "bytes32",
          "name": "role",
          "type": "bytes32"
        },
        {
          "internalType": "uint256",
          "name": "index",
          "type": "uint256"
        }
      ],
      "name": "getRoleMember",
      "outputs": [
        {
          "internalType": "address",
          "name": "",
          "type": "address"
        }
      ],
      "stateMutability": "view",
      "type": "function"
    },
    {
      "inputs": [
        {
          "internalType": "bytes32",
          "name": "role",
          "type": "bytes32"
        }
      ],
      "name": "getRoleMemberCount",
      "outputs": [
        {
          "internalType": "uint256",
          "name": "",
          "type": "uint256"
        }
      ],
      "stateMutability": "view",
      "type": "function"
    },
    {
      "inputs": [
        {
          "internalType": "bytes32",
          "name": "role",
          "type": "bytes32"
        },
        {
          "internalType": "address",
          "name": "account",
          "type": "address"
        }
      ],
      "name": "grantRole",
      "outputs": [],
      "stateMutability": "nonpayable",
      "type": "function"
    },
    {
      "inputs": [
        {
          "internalType": "bytes32",
          "name": "role",
          "type": "bytes32"
        },
        {
          "internalType": "address",
          "name": "account",
          "type": "address"
        }
      ],
      "name": "hasRole",
      "outputs": [
        {
          "internalType": "bool",
          "name": "",
          "type": "bool"
        }
      ],
      "stateMutability": "view",
      "type": "function"
    },
    {
      "inputs": [
        {
          "internalType": "address",
          "name": "removalAddress",
          "type": "address"
        },
        {
          "internalType": "address",
          "name": "bridgedPolygonNoriAddress",
          "type": "address"
        },
        {
          "internalType": "address",
          "name": "certificateAddress",
          "type": "address"
        },
        {
          "internalType": "address",
          "name": "noriFeeWalletAddress",
          "type": "address"
        },
        {
          "internalType": "uint256",
          "name": "noriFee",
          "type": "uint256"
        }
      ],
      "name": "initialize",
      "outputs": [],
      "stateMutability": "nonpayable",
      "type": "function"
    },
    {
      "inputs": [],
      "name": "nextRemovalForSale",
      "outputs": [
        {
          "internalType": "uint256",
          "name": "",
          "type": "uint256"
        }
      ],
      "stateMutability": "view",
      "type": "function"
    },
    {
      "inputs": [],
      "name": "numberOfNrtsInQueue",
      "outputs": [
        {
          "internalType": "uint256",
          "name": "",
          "type": "uint256"
        }
      ],
      "stateMutability": "view",
      "type": "function"
    },
    {
      "inputs": [
        {
          "internalType": "address",
          "name": "",
          "type": "address"
        },
        {
          "internalType": "address",
          "name": "",
          "type": "address"
        },
        {
          "internalType": "uint256[]",
          "name": "ids",
          "type": "uint256[]"
        },
        {
          "internalType": "uint256[]",
          "name": "",
          "type": "uint256[]"
        },
        {
          "internalType": "bytes",
          "name": "",
          "type": "bytes"
        }
      ],
      "name": "onERC1155BatchReceived",
      "outputs": [
        {
          "internalType": "bytes4",
          "name": "",
          "type": "bytes4"
        }
      ],
      "stateMutability": "nonpayable",
      "type": "function"
    },
    {
      "inputs": [
        {
          "internalType": "address",
          "name": "",
          "type": "address"
        },
        {
          "internalType": "address",
          "name": "",
          "type": "address"
        },
        {
          "internalType": "uint256",
          "name": "",
          "type": "uint256"
        },
        {
          "internalType": "uint256",
          "name": "",
          "type": "uint256"
        },
        {
          "internalType": "bytes",
          "name": "",
          "type": "bytes"
        }
      ],
      "name": "onERC1155Received",
      "outputs": [
        {
          "internalType": "bytes4",
          "name": "",
          "type": "bytes4"
        }
      ],
      "stateMutability": "nonpayable",
      "type": "function"
    },
    {
      "inputs": [
        {
          "internalType": "bytes32",
          "name": "role",
          "type": "bytes32"
        },
        {
          "internalType": "address",
          "name": "account",
          "type": "address"
        }
      ],
      "name": "renounceRole",
      "outputs": [],
      "stateMutability": "nonpayable",
      "type": "function"
    },
    {
      "inputs": [
        {
          "internalType": "bytes32",
          "name": "role",
          "type": "bytes32"
        },
        {
          "internalType": "address",
          "name": "account",
          "type": "address"
        }
      ],
      "name": "revokeRole",
      "outputs": [],
      "stateMutability": "nonpayable",
      "type": "function"
    },
    {
      "inputs": [
        {
          "internalType": "bytes4",
          "name": "interfaceId",
          "type": "bytes4"
        }
      ],
      "name": "supportsInterface",
      "outputs": [
        {
          "internalType": "bool",
          "name": "",
          "type": "bool"
        }
      ],
      "stateMutability": "view",
      "type": "function"
    },
    {
      "inputs": [
        {
          "internalType": "address",
          "name": "",
          "type": "address"
        },
        {
          "internalType": "address",
          "name": "",
          "type": "address"
        },
        {
          "internalType": "address",
          "name": "",
          "type": "address"
        },
        {
          "internalType": "uint256",
          "name": "amount",
          "type": "uint256"
        },
        {
          "internalType": "bytes",
          "name": "userData",
          "type": "bytes"
        },
        {
          "internalType": "bytes",
          "name": "",
          "type": "bytes"
        }
      ],
      "name": "tokensReceived",
      "outputs": [],
      "stateMutability": "nonpayable",
      "type": "function"
    }
  ],
  "bytecode": "0x608060405234801561001057600080fd5b50611dc1806100206000396000f3fe608060405234801561001057600080fd5b50600436106100f45760003560e01c8063a217fddf11610097578063f23a6e6111610066578063f23a6e6114610225578063f7013ef614610244578063fa88276114610257578063fc67f94f1461025f57600080fd5b8063a217fddf146101cb578063bc197c81146101d3578063ca15c873146101ff578063d547741f1461021257600080fd5b80632f2ff15d116100d35780632f2ff15d1461016757806336568abe1461017a5780639010d07c1461018d57806391d14854146101b857600080fd5b806223de29146100f957806301ffc9a71461010e578063248a9ca314610136575b600080fd5b61010c6101073660046115c0565b610278565b005b61012161011c366004611671565b610aba565b60405190151581526020015b60405180910390f35b61015961014436600461169b565b60009081526065602052604090206001015490565b60405190815260200161012d565b61010c6101753660046116b4565b610ada565b61010c6101883660046116b4565b610b05565b6101a061019b3660046116e4565b610b83565b6040516001600160a01b03909116815260200161012d565b6101216101c63660046116b4565b610ba2565b610159600081565b6101e66101e136600461183d565b610bcd565b6040516001600160e01b0319909116815260200161012d565b61015961020d36600461169b565b610c47565b61010c6102203660046116b4565b610c5e565b6101e66102333660046118eb565b63f23a6e6160e01b95945050505050565b61010c610252366004611954565b610c84565b610159610e65565b6101325460009081526101316020526040902054610159565b600061013554606461028a91906119ce565b6102958760646119e6565b61029f9190611a05565b90508060006102b086880188611a27565b905061013354610132540361030c5760405162461bcd60e51b815260206004820152601d60248201527f4649464f4d61726b65743a204e6f7420656e6f75676820737570706c7900000060448201526064015b60405180910390fd5b6001600160a01b0381166103735760405162461bcd60e51b815260206004820152602860248201527f4649464f4d61726b65743a2043616e6e6f74206d696e7420746f207468652030604482015267206164647265737360c01b6064820152608401610303565b610130546001600160a01b031633146103f45760405162461bcd60e51b815260206004820152603d60248201527f4649464f4d61726b65743a205468697320636f6e74726163742063616e206f6e60448201527f6c7920726563656976652042726964676564506f6c79676f6e4e4f52490000006064820152608401610303565b60006103fe610f22565b67ffffffffffffffff81111561041657610416611706565b60405190808252806020026020018201604052801561043f578160200160208202803683370190505b509050600061044c610f22565b67ffffffffffffffff81111561046457610464611706565b60405190808252806020026020018201604052801561048d578160200160208202803683370190505b509050600061049a610f22565b67ffffffffffffffff8111156104b2576104b2611706565b6040519080825280602002602001820160405280156104db578160200160208202803683370190505b50610132549091505b610133548110156107395761012e5460008281526101316020526040808220549051627eeac760e11b8152306004820152602481019190915290916001600160a01b03169062fdd58e90604401602060405180830381865afa15801561054e573d6000803e3d6000fd5b505050506040513d601f19601f820116820180604052508101906105729190611a44565b600083815261013160205260408120549192509061058f90610f3b565b905081881015610624576000838152610131602052604090205486518790859081106105bd576105bd611a5d565b602002602001018181525050878584815181106105dc576105dc611a5d565b602002602001018181525050808484815181106105fb576105fb611a5d565b60200260200101906001600160a01b031690816001600160a01b03168152505060009750610715565b6001610133546106349190611a73565b8314801561064157508188115b1561068e5760405162461bcd60e51b815260206004820152601d60248201527f4649464f4d61726b65743a204e6f7420656e6f75676820737570706c790000006044820152606401610303565b6000838152610131602052604090205486518790859081106106b2576106b2611a5d565b602002602001018181525050818584815181106106d1576106d1611a5d565b602002602001018181525050808484815181106106f0576106f0611a5d565b6001600160a01b03909216602092830291909101909101526107128289611a73565b97505b87600003610724575050610739565b5050808061073190611a8a565b9150506104e4565b5060008660405160200161074f91815260200190565b60408051601f198184030181529082905261012f54630fbfeffd60e11b83529092506001600160a01b031690631f7fdffa90610795908890889088908790600401611b3a565b600060405180830381600087803b1580156107af57600080fd5b505af11580156107c3573d6000803e3d6000fd5b5050505060005b8451811015610a41578381815181106107e5576107e5611a5d565b602002602001015160000315610a415761012e546000828152610131602052604090819020549051627eeac760e11b815230600482015260248101919091526001600160a01b039091169062fdd58e90604401602060405180830381865afa158015610855573d6000803e3d6000fd5b505050506040513d601f19601f820116820180604052508101906108799190611a44565b84828151811061088b5761088b611a5d565b6020026020010151036108af5761013280549060006108a983611a8a565b91905055505b60006101355460648684815181106108c9576108c9611a5d565b60200260200101516108db9190611a05565b6108e591906119e6565b905060008583815181106108fb576108fb611a5d565b6020908102919091010151610130546101345460405163a9059cbb60e01b81526001600160a01b03918216600482015260248101869052929350169063a9059cbb906044016020604051808303816000875af115801561095f573d6000803e3d6000fd5b505050506040513d601f19601f820116820180604052508101906109839190611b84565b506101305485516001600160a01b039091169063a9059cbb908790869081106109ae576109ae611a5d565b6020026020010151836040518363ffffffff1660e01b81526004016109e89291906001600160a01b03929092168252602082015260400190565b6020604051808303816000875af1158015610a07573d6000803e3d6000fd5b505050506040513d601f19601f82011682018060405250810190610a2b9190611b84565b5050508080610a3990611a8a565b9150506107ca565b5061012e54604051631ac8311560e21b81526001600160a01b0390911690636b20c45490610a7790309088908890600401611ba6565b600060405180830381600087803b158015610a9157600080fd5b505af1158015610aa5573d6000803e3d6000fd5b50505050505050505050505050505050505050565b6000610ac582610f4a565b80610ad45750610ad482610f6f565b92915050565b600082815260656020526040902060010154610af68133610f94565b610b008383610ff8565b505050565b6001600160a01b0381163314610b755760405162461bcd60e51b815260206004820152602f60248201527f416363657373436f6e74726f6c3a2063616e206f6e6c792072656e6f756e636560448201526e103937b632b9903337b91039b2b63360891b6064820152608401610303565b610b7f828261101a565b5050565b6000828152609760205260408120610b9b908361103c565b9392505050565b60009182526065602090815260408084206001600160a01b0393909316845291905290205460ff1690565b6000805b8451811015610c3457848181518110610bec57610bec611a5d565b602090810291909101810151610133805460009081526101319093526040832091909155805491610c1c83611a8a565b91905055508080610c2c90611a8a565b915050610bd1565b5063bc197c8160e01b9695505050505050565b6000818152609760205260408120610ad490611048565b600082815260656020526040902060010154610c7a8133610f94565b610b00838361101a565b600054610100900460ff16610c9f5760005460ff1615610ca3565b303b155b610d065760405162461bcd60e51b815260206004820152602e60248201527f496e697469616c697a61626c653a20636f6e747261637420697320616c72656160448201526d191e481a5b9a5d1a585b1a5e995960921b6064820152608401610303565b600054610100900460ff16158015610d28576000805461ffff19166101011790555b610d30611052565b610d38611052565b610d40611052565b610d48611052565b610d50611052565b61012e80546001600160a01b03199081166001600160a01b03898116919091179092556101308054821688841617905561012f80548216878416179055610134805482169286169290921790915561013583905561012d8054731820a4b7618bde71dce8cdc73aab6c95905fad249216821790556040516329965a1d60e01b815230600482018190527fb281fc8c12954d22544db45de3159a39272895b169a852b314f9cc762e44c53b602483015260448201526329965a1d90606401600060405180830381600087803b158015610e2757600080fd5b505af1158015610e3b573d6000803e3d6000fd5b505060006101328190556101335550508015610e5d576000805461ff00191690555b505050505050565b6101325460009081905b61013354811015610f1c5761012e546000828152610131602052604090819020549051627eeac760e11b815230600482015260248101919091526001600160a01b039091169062fdd58e90604401602060405180830381865afa158015610eda573d6000803e3d6000fd5b505050506040513d601f19601f82011682018060405250810190610efe9190611a44565b610f0890836119ce565b915080610f1481611a8a565b915050610e6f565b50919050565b60006101325461013354610f369190611a73565b905090565b6000610ad482601460046110bf565b60006001600160e01b03198216635a05180f60e01b1480610ad45750610ad48261110b565b60006001600160e01b03198216630271189760e51b1480610ad45750610ad482610f4a565b610f9e8282610ba2565b610b7f57610fb6816001600160a01b03166014611140565b610fc1836020611140565b604051602001610fd2929190611be6565b60408051601f198184030181529082905262461bcd60e51b825261030391600401611c5b565b61100282826112dc565b6000828152609760205260409020610b009082611362565b6110248282611377565b6000828152609760205260409020610b0090826113de565b6000610b9b83836113f3565b6000610ad4825490565b600054610100900460ff166110bd5760405162461bcd60e51b815260206004820152602b60248201527f496e697469616c697a61626c653a20636f6e7472616374206973206e6f74206960448201526a6e697469616c697a696e6760a81b6064820152608401610303565b565b6000806110cd6008846119e6565b60016110da6008876119e6565b6110e5906002611d52565b6110ef9190611a73565b901b90508481166111016008856119e6565b1c95945050505050565b60006001600160e01b03198216637965db0b60e01b1480610ad457506301ffc9a760e01b6001600160e01b0319831614610ad4565b6060600061114f8360026119e6565b61115a9060026119ce565b67ffffffffffffffff81111561117257611172611706565b6040519080825280601f01601f19166020018201604052801561119c576020820181803683370190505b509050600360fc1b816000815181106111b7576111b7611a5d565b60200101906001600160f81b031916908160001a905350600f60fb1b816001815181106111e6576111e6611a5d565b60200101906001600160f81b031916908160001a905350600061120a8460026119e6565b6112159060016119ce565b90505b600181111561128d576f181899199a1a9b1b9c1cb0b131b232b360811b85600f166010811061124957611249611a5d565b1a60f81b82828151811061125f5761125f611a5d565b60200101906001600160f81b031916908160001a90535060049490941c9361128681611d5e565b9050611218565b508315610b9b5760405162461bcd60e51b815260206004820181905260248201527f537472696e67733a20686578206c656e67746820696e73756666696369656e746044820152606401610303565b6112e68282610ba2565b610b7f5760008281526065602090815260408083206001600160a01b03851684529091529020805460ff1916600117905561131e3390565b6001600160a01b0316816001600160a01b0316837f2f8788117e7eff1d82e926ec794901d17c78024a50270940304540a733656f0d60405160405180910390a45050565b6000610b9b836001600160a01b03841661141d565b6113818282610ba2565b15610b7f5760008281526065602090815260408083206001600160a01b0385168085529252808320805460ff1916905551339285917ff6391f5c32d9c69d2a47ea670b442974b53935d1edc7fd64eb21e047a839171b9190a45050565b6000610b9b836001600160a01b03841661146c565b600082600001828154811061140a5761140a611a5d565b9060005260206000200154905092915050565b600081815260018301602052604081205461146457508154600181810184556000848152602080822090930184905584548482528286019093526040902091909155610ad4565b506000610ad4565b60008181526001830160205260408120548015611555576000611490600183611a73565b85549091506000906114a490600190611a73565b90508181146115095760008660000182815481106114c4576114c4611a5d565b90600052602060002001549050808760000184815481106114e7576114e7611a5d565b6000918252602080832090910192909255918252600188019052604090208390555b855486908061151a5761151a611d75565b600190038181906000526020600020016000905590558560010160008681526020019081526020016000206000905560019350505050610ad4565b6000915050610ad4565b6001600160a01b038116811461157457600080fd5b50565b60008083601f84011261158957600080fd5b50813567ffffffffffffffff8111156115a157600080fd5b6020830191508360208285010111156115b957600080fd5b9250929050565b60008060008060008060008060c0898b0312156115dc57600080fd5b88356115e78161155f565b975060208901356115f78161155f565b965060408901356116078161155f565b955060608901359450608089013567ffffffffffffffff8082111561162b57600080fd5b6116378c838d01611577565b909650945060a08b013591508082111561165057600080fd5b5061165d8b828c01611577565b999c989b5096995094979396929594505050565b60006020828403121561168357600080fd5b81356001600160e01b031981168114610b9b57600080fd5b6000602082840312156116ad57600080fd5b5035919050565b600080604083850312156116c757600080fd5b8235915060208301356116d98161155f565b809150509250929050565b600080604083850312156116f757600080fd5b50508035926020909101359150565b634e487b7160e01b600052604160045260246000fd5b604051601f8201601f1916810167ffffffffffffffff8111828210171561174557611745611706565b604052919050565b600082601f83011261175e57600080fd5b8135602067ffffffffffffffff82111561177a5761177a611706565b8160051b61178982820161171c565b92835284810182019282810190878511156117a357600080fd5b83870192505b848310156117c2578235825291830191908301906117a9565b979650505050505050565b600082601f8301126117de57600080fd5b813567ffffffffffffffff8111156117f8576117f8611706565b61180b601f8201601f191660200161171c565b81815284602083860101111561182057600080fd5b816020850160208301376000918101602001919091529392505050565b600080600080600060a0868803121561185557600080fd5b85356118608161155f565b945060208601356118708161155f565b9350604086013567ffffffffffffffff8082111561188d57600080fd5b61189989838a0161174d565b945060608801359150808211156118af57600080fd5b6118bb89838a0161174d565b935060808801359150808211156118d157600080fd5b506118de888289016117cd565b9150509295509295909350565b600080600080600060a0868803121561190357600080fd5b853561190e8161155f565b9450602086013561191e8161155f565b93506040860135925060608601359150608086013567ffffffffffffffff81111561194857600080fd5b6118de888289016117cd565b600080600080600060a0868803121561196c57600080fd5b85356119778161155f565b945060208601356119878161155f565b935060408601356119978161155f565b925060608601356119a78161155f565b949793965091946080013592915050565b634e487b7160e01b600052601160045260246000fd5b600082198211156119e1576119e16119b8565b500190565b6000816000190483118215151615611a0057611a006119b8565b500290565b600082611a2257634e487b7160e01b600052601260045260246000fd5b500490565b600060208284031215611a3957600080fd5b8135610b9b8161155f565b600060208284031215611a5657600080fd5b5051919050565b634e487b7160e01b600052603260045260246000fd5b600082821015611a8557611a856119b8565b500390565b600060018201611a9c57611a9c6119b8565b5060010190565b600081518084526020808501945080840160005b83811015611ad357815187529582019590820190600101611ab7565b509495945050505050565b60005b83811015611af9578181015183820152602001611ae1565b83811115611b08576000848401525b50505050565b60008151808452611b26816020860160208601611ade565b601f01601f19169290920160200192915050565b6001600160a01b0385168152608060208201819052600090611b5e90830186611aa3565b8281036040840152611b708186611aa3565b905082810360608401526117c28185611b0e565b600060208284031215611b9657600080fd5b81518015158114610b9b57600080fd5b6001600160a01b0384168152606060208201819052600090611bca90830185611aa3565b8281036040840152611bdc8185611aa3565b9695505050505050565b7f416363657373436f6e74726f6c3a206163636f756e7420000000000000000000815260008351611c1e816017850160208801611ade565b7001034b99036b4b9b9b4b733903937b6329607d1b6017918401918201528351611c4f816028840160208801611ade565b01602801949350505050565b602081526000610b9b6020830184611b0e565b600181815b80851115611ca9578160001904821115611c8f57611c8f6119b8565b80851615611c9c57918102915b93841c9390800290611c73565b509250929050565b600082611cc057506001610ad4565b81611ccd57506000610ad4565b8160018114611ce35760028114611ced57611d09565b6001915050610ad4565b60ff841115611cfe57611cfe6119b8565b50506001821b610ad4565b5060208310610133831016604e8410600b8410161715611d2c575081810a610ad4565b611d368383611c6e565b8060001904821115611d4a57611d4a6119b8565b029392505050565b6000610b9b8383611cb1565b600081611d6d57611d6d6119b8565b506000190190565b634e487b7160e01b600052603160045260246000fdfea264697066735822122043d331e507cf17e015426a555e536b5fa11b793b5344b8523798f42b0a28f34864736f6c634300080d0033",
  "linkReferences": {},
  "deployedLinkReferences": {}
}