{
  "_format": "hh-sol-artifact-1",
  "contractName": "FIFOMarket",
  "sourceName": "contracts/FIFOMarket.sol",
  "abi": [
    {
      "anonymous": false,
      "inputs": [
        {
          "indexed": true,
          "internalType": "bytes32",
          "name": "role",
          "type": "bytes32"
        },
        {
          "indexed": true,
          "internalType": "bytes32",
          "name": "previousAdminRole",
          "type": "bytes32"
        },
        {
          "indexed": true,
          "internalType": "bytes32",
          "name": "newAdminRole",
          "type": "bytes32"
        }
      ],
      "name": "RoleAdminChanged",
      "type": "event"
    },
    {
      "anonymous": false,
      "inputs": [
        {
          "indexed": true,
          "internalType": "bytes32",
          "name": "role",
          "type": "bytes32"
        },
        {
          "indexed": true,
          "internalType": "address",
          "name": "account",
          "type": "address"
        },
        {
          "indexed": true,
          "internalType": "address",
          "name": "sender",
          "type": "address"
        }
      ],
      "name": "RoleGranted",
      "type": "event"
    },
    {
      "anonymous": false,
      "inputs": [
        {
          "indexed": true,
          "internalType": "bytes32",
          "name": "role",
          "type": "bytes32"
        },
        {
          "indexed": true,
          "internalType": "address",
          "name": "account",
          "type": "address"
        },
        {
          "indexed": true,
          "internalType": "address",
          "name": "sender",
          "type": "address"
        }
      ],
      "name": "RoleRevoked",
      "type": "event"
    },
    {
      "inputs": [],
      "name": "DEFAULT_ADMIN_ROLE",
      "outputs": [
        {
          "internalType": "bytes32",
          "name": "",
          "type": "bytes32"
        }
      ],
      "stateMutability": "view",
      "type": "function"
    },
    {
      "inputs": [
        {
          "internalType": "bytes32",
          "name": "role",
          "type": "bytes32"
        }
      ],
      "name": "getRoleAdmin",
      "outputs": [
        {
          "internalType": "bytes32",
          "name": "",
          "type": "bytes32"
        }
      ],
      "stateMutability": "view",
      "type": "function"
    },
    {
      "inputs": [
        {
          "internalType": "bytes32",
          "name": "role",
          "type": "bytes32"
        },
        {
          "internalType": "uint256",
          "name": "index",
          "type": "uint256"
        }
      ],
      "name": "getRoleMember",
      "outputs": [
        {
          "internalType": "address",
          "name": "",
          "type": "address"
        }
      ],
      "stateMutability": "view",
      "type": "function"
    },
    {
      "inputs": [
        {
          "internalType": "bytes32",
          "name": "role",
          "type": "bytes32"
        }
      ],
      "name": "getRoleMemberCount",
      "outputs": [
        {
          "internalType": "uint256",
          "name": "",
          "type": "uint256"
        }
      ],
      "stateMutability": "view",
      "type": "function"
    },
    {
      "inputs": [
        {
          "internalType": "bytes32",
          "name": "role",
          "type": "bytes32"
        },
        {
          "internalType": "address",
          "name": "account",
          "type": "address"
        }
      ],
      "name": "grantRole",
      "outputs": [],
      "stateMutability": "nonpayable",
      "type": "function"
    },
    {
      "inputs": [
        {
          "internalType": "bytes32",
          "name": "role",
          "type": "bytes32"
        },
        {
          "internalType": "address",
          "name": "account",
          "type": "address"
        }
      ],
      "name": "hasRole",
      "outputs": [
        {
          "internalType": "bool",
          "name": "",
          "type": "bool"
        }
      ],
      "stateMutability": "view",
      "type": "function"
    },
    {
      "inputs": [
        {
          "internalType": "address",
          "name": "removalAddress",
          "type": "address"
        },
        {
          "internalType": "address",
          "name": "noriAddress",
          "type": "address"
        },
        {
          "internalType": "address",
          "name": "certificateAddress",
          "type": "address"
        },
        {
          "internalType": "address",
          "name": "noriFeeWalletAddress",
          "type": "address"
        },
        {
          "internalType": "uint256",
          "name": "noriFee",
          "type": "uint256"
        }
      ],
      "name": "initialize",
      "outputs": [],
      "stateMutability": "nonpayable",
      "type": "function"
    },
    {
      "inputs": [],
      "name": "numberOfTonnesInQueue",
      "outputs": [
        {
          "internalType": "uint256",
          "name": "",
          "type": "uint256"
        }
      ],
      "stateMutability": "view",
      "type": "function"
    },
    {
      "inputs": [
        {
          "internalType": "address",
          "name": "",
          "type": "address"
        },
        {
          "internalType": "address",
          "name": "",
          "type": "address"
        },
        {
          "internalType": "uint256[]",
          "name": "ids",
          "type": "uint256[]"
        },
        {
          "internalType": "uint256[]",
          "name": "",
          "type": "uint256[]"
        },
        {
          "internalType": "bytes",
          "name": "",
          "type": "bytes"
        }
      ],
      "name": "onERC1155BatchReceived",
      "outputs": [
        {
          "internalType": "bytes4",
          "name": "",
          "type": "bytes4"
        }
      ],
      "stateMutability": "nonpayable",
      "type": "function"
    },
    {
      "inputs": [
        {
          "internalType": "address",
          "name": "",
          "type": "address"
        },
        {
          "internalType": "address",
          "name": "",
          "type": "address"
        },
        {
          "internalType": "uint256",
          "name": "",
          "type": "uint256"
        },
        {
          "internalType": "uint256",
          "name": "",
          "type": "uint256"
        },
        {
          "internalType": "bytes",
          "name": "",
          "type": "bytes"
        }
      ],
      "name": "onERC1155Received",
      "outputs": [
        {
          "internalType": "bytes4",
          "name": "",
          "type": "bytes4"
        }
      ],
      "stateMutability": "nonpayable",
      "type": "function"
    },
    {
      "inputs": [
        {
          "internalType": "bytes32",
          "name": "role",
          "type": "bytes32"
        },
        {
          "internalType": "address",
          "name": "account",
          "type": "address"
        }
      ],
      "name": "renounceRole",
      "outputs": [],
      "stateMutability": "nonpayable",
      "type": "function"
    },
    {
      "inputs": [
        {
          "internalType": "bytes32",
          "name": "role",
          "type": "bytes32"
        },
        {
          "internalType": "address",
          "name": "account",
          "type": "address"
        }
      ],
      "name": "revokeRole",
      "outputs": [],
      "stateMutability": "nonpayable",
      "type": "function"
    },
    {
      "inputs": [
        {
          "internalType": "bytes4",
          "name": "interfaceId",
          "type": "bytes4"
        }
      ],
      "name": "supportsInterface",
      "outputs": [
        {
          "internalType": "bool",
          "name": "",
          "type": "bool"
        }
      ],
      "stateMutability": "view",
      "type": "function"
    },
    {
      "inputs": [
        {
          "internalType": "address",
          "name": "",
          "type": "address"
        },
        {
          "internalType": "address",
          "name": "",
          "type": "address"
        },
        {
          "internalType": "address",
          "name": "",
          "type": "address"
        },
        {
          "internalType": "uint256",
          "name": "amount",
          "type": "uint256"
        },
        {
          "internalType": "bytes",
          "name": "userData",
          "type": "bytes"
        },
        {
          "internalType": "bytes",
          "name": "",
          "type": "bytes"
        }
      ],
      "name": "tokensReceived",
      "outputs": [],
      "stateMutability": "nonpayable",
      "type": "function"
    }
  ],
  "bytecode": "0x608060405234801561001057600080fd5b50614bd0806100206000396000f3fe608060405234801561001057600080fd5b50600436106100e95760003560e01c806391d148541161008c578063ca15c87311610066578063ca15c8731461026e578063d547741f1461029e578063f23a6e61146102ba578063f7013ef6146102ea576100e9565b806391d14854146101f0578063a217fddf14610220578063bc197c811461023e576100e9565b80632f2ff15d116100c85780632f2ff15d1461016a57806336568abe146101865780633fb305aa146101a25780639010d07c146101c0576100e9565b806223de29146100ee57806301ffc9a71461010a578063248a9ca31461013a575b600080fd5b6101086004803603810190610103919061389d565b610306565b005b610124600480360381019061011f91906139c4565b611e0a565b6040516101319190613a0c565b60405180910390f35b610154600480360381019061014f9190613a5d565b611eb0565b6040516101619190613a99565b60405180910390f35b610184600480360381019061017f9190613ab4565b611ed0565b005b6101a0600480360381019061019b9190613ab4565b611ef9565b005b6101aa611f7c565b6040516101b79190613b03565b60405180910390f35b6101da60048036038101906101d59190613b1e565b6121fa565b6040516101e79190613b6d565b60405180910390f35b61020a60048036038101906102059190613ab4565b612229565b6040516102179190613a0c565b60405180910390f35b610228612294565b6040516102359190613a99565b60405180910390f35b61025860048036038101906102539190613d8c565b61229b565b6040516102659190613e6a565b60405180910390f35b61028860048036038101906102839190613a5d565b612434565b6040516102959190613b03565b60405180910390f35b6102b860048036038101906102b39190613ab4565b612458565b005b6102d460048036038101906102cf9190613e85565b612481565b6040516102e19190613e6a565b60405180910390f35b61030460048036038101906102ff9190613f1c565b612496565b005b6103327fd4ac80a4e5e5a6137b9e09d58e3ac98f010349ae473ac25aaa708ab25e1c817260001b612c0b565b61035e7f09e6ec3c18bb4131c3b2cfa87dac663df64d8a24639605194289a5ae73c3411f60001b612c0b565b61038a7f8d665bfb72983750a8d5187e122ad146411de9642d0e3c4d5be5e5bc67aceb2460001b612c0b565b6000848481019061039b9190613fd5565b90506103c97fdbdc9b2bc709894b8765895d87041dcafea37dfe606d1f77334039a70ec14c1e60001b612c0b565b6103f57f605374405d4d58ff9e56f9f34dd1f80a88d893bdae0200f1bf0101d177dfd1be60001b612c0b565b6104217fdc4a8c576e21f881df2340e42f7a6db1473a9c7b7a4b95d21b476b730d87007060001b612c0b565b8073ffffffffffffffffffffffffffffffffffffffff168173ffffffffffffffffffffffffffffffffffffffff161461048f576040517f08c379a00000000000000000000000000000000000000000000000000000000081526004016104869061405f565b60405180910390fd5b6104bb7fa707f5093158b1e5838bad6451c394c5d2e9b9f637022a2916d205dfe4e4c65860001b612c0b565b6104e77faf41416edf08056f7fe582475f1f4f48200d4a4de262cc56f30597f08e4ef7ef60001b612c0b565b6105137f37ba853ef682f299e57dcc324ad37a7a223b9c007a46cfb0103237309212486660001b612c0b565b61053f7f36b6046c5a56f0d6d9bb1e82f0fd80e0fd8cc5d6cde4123b29b04cfbfdcb0c2360001b612c0b565b600073ffffffffffffffffffffffffffffffffffffffff168173ffffffffffffffffffffffffffffffffffffffff1614156105af576040517f08c379a00000000000000000000000000000000000000000000000000000000081526004016105a6906140f1565b60405180910390fd5b6105db7fa6dbbbcd7bdf6fc5f6f92bced7c688c359cce10758c2e5f3f49b1f1b2f1e30a060001b612c0b565b6106077f9b2db278aa611053f3dbf1bf9e58dbda1b596baf2cd6e8b52536229a75bcb24c60001b612c0b565b6106337fd2ec3f8156821d1a5399fd53b357fddfc4a51a2e59f681d6b4e2a4affee90aa360001b612c0b565b61065f7f59e89170970ed12d1995e89d8b0508e8908381e49978aa6b87a907c5efbb5b9960001b612c0b565b61013060009054906101000a900473ffffffffffffffffffffffffffffffffffffffff1673ffffffffffffffffffffffffffffffffffffffff163373ffffffffffffffffffffffffffffffffffffffff16146106f0576040517f08c379a00000000000000000000000000000000000000000000000000000000081526004016106e790614183565b60405180910390fd5b61071c7f3429a6557376b940d4f5d2dda885dd96beaf967e54dd47cec71b425c1e55c60a60001b612c0b565b6107487f4d64d71e0f2037cf983453d319e6992d36cfe5d3b05721445d4120c92a791c1060001b612c0b565b6107747f771a511f402fe7500da7411e93f340abbd4d299a27dc42340022b4d9921130c460001b612c0b565b600061013454606461078691906141d2565b6064886107939190614228565b61079d91906142b1565b90506107cb7f529a44a19291bf73b678049a8c6410e210a43a09e715ec960f2c6d7f8be910ad60001b612c0b565b6107f77f03c1b48bc099a9f112d42bd83a0faeba89787ce0ec16f40cebe24ad74597876760001b612c0b565b60008190506108287f746085c69af642bf84b319db91d4f8bf635dec07b00ca737134eecb8ad8d54af60001b612c0b565b6108547fa97c70d2e7eaaff3b1dfefc8530380967329163913618989828764e7fa7e1e0060001b612c0b565b6000610861610131612c0e565b67ffffffffffffffff81111561087a57610879613b99565b5b6040519080825280602002602001820160405280156108a85781602001602082028036833780820191505090505b5090506108d77ff2f91f0160c5bb35a4ff284299d0e88ff5512a4c5ece3efc6306764715daa39360001b612c0b565b6109037f1bcfe9d3237d6f1fdc5c46858a0d0373f64d77fc9ef649c3c12aff96e09a137360001b612c0b565b6000610910610131612c0e565b67ffffffffffffffff81111561092957610928613b99565b5b6040519080825280602002602001820160405280156109575781602001602082028036833780820191505090505b5090506109867f2f91f624051aeb78aa4efa3814f14f322653b3ba93ad0842f28943e05ae82bdb60001b612c0b565b6109b27f8d89668432b1a0d4f0b69f88e43493f6d9bdce5fbcbdc862ae9c8e3641ed873960001b612c0b565b60006109bf610131612c0e565b67ffffffffffffffff8111156109d8576109d7613b99565b5b604051908082528060200260200182016040528015610a065781602001602082028036833780820191505090505b509050610a357f1fb0a760a452a64e44af531b94a1782e382a3911d5419405a1fd981bd411760e60001b612c0b565b610a617f8e1fe32669ac58d43ef898528669c8de4476bd671404d026d36064b7252dbcb460001b612c0b565b60005b610a6f610131612c0e565b8110156114f857610aa27f8cd888bddb21032504c68c38b1b42032ae202927554d09502c9b3d3cf8d1c79560001b612c0b565b610ace7fbadb4f0677f69f4e11e8e7669a3a3229da8a7ad4f02f718cb0025c15a193f40d60001b612c0b565b600061012e60009054906101000a900473ffffffffffffffffffffffffffffffffffffffff1673ffffffffffffffffffffffffffffffffffffffff1662fdd58e30610b2485610131612c2390919063ffffffff16565b6040518363ffffffff1660e01b8152600401610b419291906142e2565b602060405180830381865afa158015610b5e573d6000803e3d6000fd5b505050506040513d601f19601f82011682018060405250810190610b829190614320565b9050610bb07f95393674721ea113138023957038675309e1a20b1d90e6a170ba3b320261447660001b612c0b565b610bdc7f174ed2e17f67095070b7445f079b8f16c7644ce34d36e0b2714dc58147181ea860001b612c0b565b600061012e60009054906101000a900473ffffffffffffffffffffffffffffffffffffffff1673ffffffffffffffffffffffffffffffffffffffff1663737fa589610c3285610131612c2390919063ffffffff16565b6040518263ffffffff1660e01b8152600401610c4e9190613b03565b6040805180830381865afa158015610c6a573d6000803e3d6000fd5b505050506040513d601f19601f82011682018060405250810190610c8e91906143f1565b600001519050610cc07fe2696dc9e6c1998e7136a1049623ec9218cb95cc1348cc985e18486be4cbb3f860001b612c0b565b610cec7f3e5224b2336730f9ff0060e6358fcc5a0828516999ed12c7a3ba7722a0f815d260001b612c0b565b81871015610f2b57610d207f8391b5aff25d3692f4c0d8df87e4a59a2b4b77b8ac605b1f745360c88073159760001b612c0b565b610d4c7f17cc4adf835b6418a878d3a970aa1dd65c83b6cbd010abc628e947cc0d6a57b360001b612c0b565b610d787f52fe47bd5d81495e5dbe2b5d2f0217ebdaf9525d0471f67ae9af33a9232f646160001b612c0b565b610d8d83610131612c2390919063ffffffff16565b868481518110610da057610d9f61441e565b5b602002602001018181525050610dd87fea0ab1ed3569f53a5f22d8c3ec58d02c91b078bbe43170f6e68379f6cc9042e860001b612c0b565b610e047fbdec76f50527b5b5a848df91a460b84473d96629a4f28d1bffe27c243c52375960001b612c0b565b86858481518110610e1857610e1761441e565b5b602002602001018181525050610e507f87ecfd6d30acc6cd49c23bb0afadeece65133c0ef477b69c1a51a6b77980e19460001b612c0b565b610e7c7fc9069f635f859615b36278f99cdd88895a733b92c853ba2ed69c45f6527f738c60001b612c0b565b80848481518110610e9057610e8f61441e565b5b602002602001019073ffffffffffffffffffffffffffffffffffffffff16908173ffffffffffffffffffffffffffffffffffffffff1681525050610ef67fe047ee49d590f98653e80b4f97f1368572fc0ffea000f08615c073df3c0d0c2960001b612c0b565b610f227fe9124152a2fa29d67a38586e0a33f96605f2d92011a7cfa3b45d0b62b6a21b6d60001b612c0b565b600096506113f7565b610f577f4da3b11935b3d14e0d0316e6692bc494a16cd30c457ad82669627d9394b7320360001b612c0b565b610f837fc07ef79f160497d1c7cb5e268cd415355e4b0f44616537c73a122846c93d561260001b612c0b565b81871061133757610fb67ff2506b7c0087b1dc80048a42575ee189851c89e60548ae79a2a0ea4e64dc237f60001b612c0b565b610fe27f1347eb0a5b021cc6be88bd384ff53f8ac5bd8b82accc86193329e9433bb4698a60001b612c0b565b61100e7f824eec0754f4f77c36a643890d8c4930cc101b01a4a192c7caaafaccd6b6058360001b612c0b565b600161101b610131612c0e565b611025919061444d565b8314801561103257508187115b156110f6576110637fe72d1466a53c1ce3389e0b24dd4c6fee3bd649689a90b22209a77df2321538c360001b612c0b565b61108f7fec61cc5b7c7ac49d141960c31f203d9d3aa3e1967eae6e836b71d8f4f053a15c60001b612c0b565b6110bb7fedc50226ac25e61b14e402fae692b4c3b065ccc4cbf616709214f5c90fedf1e560001b612c0b565b6040517f08c379a00000000000000000000000000000000000000000000000000000000081526004016110ed906144cd565b60405180910390fd5b6111227f4e6d9af41c2f42f5e87285398609722ed8b3f2f8dae0706486a76b4f703c990260001b612c0b565b61114e7f3fb63ce6fdc2c92d3c8f232fbcfb1647f1350a9b65b7f5ded167bc56ce3e318a60001b612c0b565b61117a7fa92ab8f53833bf5d1b0f9a6f5c701aa17f83eb5aa5b65294987b3578456af1eb60001b612c0b565b61118f83610131612c2390919063ffffffff16565b8684815181106111a2576111a161441e565b5b6020026020010181815250506111da7ff17dac06cbe483a61841ece8b13d2eb60bd7e578c00337a6cf21a7c159d58ec960001b612c0b565b6112067f4c282be4615970d9b79bc3c0bf38fd5c8dcd81068d0a47eb5dcdff3ded43265260001b612c0b565b8185848151811061121a5761121961441e565b5b6020026020010181815250506112527f30adcd1773fdda809ad42aa603620695757cef7b447524cd8b2a8592c530798260001b612c0b565b61127e7f153c8dd5904c2e09bb04b2aadb143802c01a9a9b4426a1d238a28daf2e8028ba60001b612c0b565b808484815181106112925761129161441e565b5b602002602001019073ffffffffffffffffffffffffffffffffffffffff16908173ffffffffffffffffffffffffffffffffffffffff16815250506112f87f2c89be86bb3406dcd51093866b7fd10b51b2113d6e894af0a5f7f505afd0cb4e60001b612c0b565b6113247fd8f1a4c55df1e659929ef42539d7703109f53b4bfc31162aadf9f143469ec8d760001b612c0b565b8187611330919061444d565b96506113f6565b6113637f9e21035c6d4b428c081fc8847119af28e70c1bb9fb76bdd02d0597f483e1d3ad60001b612c0b565b61138f7ff228fb0c99ec89b3599a3cdf456d1c02f1268e2ea2bef2bd46f2844e4ddcd14960001b612c0b565b6113bb7f347722681fa366e3d5236629111100a3d7b04b8c767c98d6f7413858b078028160001b612c0b565b6040517f08c379a00000000000000000000000000000000000000000000000000000000081526004016113ed906144cd565b60405180910390fd5b5b6114237ffb22e48bf527697b634dc9399932d02a08d461c7b409ecb0bb38ad3912e9022960001b612c0b565b61144f7f985abf168539e6fd253ee306dbbf178dc5b0203d5ce5e6599820e62c1f49708b60001b612c0b565b60008714156114b7576114847f19fbdd1e6b02e62d13a7c9d3ad9ffc1caaa9a1274ac581fc3b03673f156ed73a60001b612c0b565b6114b07f2f5443960d6e2b6cace3327e2dabb03e12491e612a8bda4144eb1ec6313830ee60001b612c0b565b50506114f8565b6114e37f2048f1fb64a7a163c024ed174b8bb1eb7d3111c1429fb679709fa1f7652c8cd860001b612c0b565b505080806114f0906144ed565b915050610a64565b506115257f93da50cc85edb54c94f37df7d94ca7701b68114fc12504b9c4300efad96b0c3160001b612c0b565b6115517ff389891211bbc5150767522944661b7ee4c26ed38648ac8efcaf597d0ba8b4d260001b612c0b565b6000856040516020016115649190613b03565b60405160208183030381529060405290506115a17fd8326bab3165a5b6e6aad6b032889c7b085ae7d1dcf1bc38f6543f0efe33b63560001b612c0b565b6115cd7fb343be747f76728fb824e6a54c405b8121e511626f0e2de32be39d9582495dbd60001b612c0b565b61012f60009054906101000a900473ffffffffffffffffffffffffffffffffffffffff1673ffffffffffffffffffffffffffffffffffffffff16631f7fdffa888686856040518563ffffffff1660e01b815260040161162f949392919061467c565b600060405180830381600087803b15801561164957600080fd5b505af115801561165d573d6000803e3d6000fd5b5050505061168d7ffc91bf6096e9df71cce1139ffddf882ca313512a2eab52f0b6a7dd87f3002b0860001b612c0b565b6116b97fe8fb7f88905844ad847ec4d398237723b91914f65862d053f1fb3e21a710a1d260001b612c0b565b60005b8451811015611d0e576116f17f483edd136c15fd4e586e1adaf22debc038719380eeabbaf2fd25a4eb37ba1bb760001b612c0b565b61171d7f4204fa5e75d0aafcc8e5e351875461dcb076e822771629032af3dc08c76623e060001b612c0b565b60008482815181106117325761173161441e565b5b6020026020010151141561179d5761176c7f979bc6a9f7be095cf48374f235e1a17f3b611a2acbf4ae8eb47add5716b5c44660001b612c0b565b6117987fbd1a4c1751b036bedebb2d88271a3ca98d3a704226064779a26e8f3fa76feeff60001b612c0b565b611d0e565b6117c97f3e1ed19325ae56348e99b246aa6538cb72b484ae3a9e187b5e38d26ed5a987a760001b612c0b565b6117f57f3964cfdd4f24efe0cfd556dff0b7847e1402bf9d94baa68b81206f55a17dfeb060001b612c0b565b6118217f0c7b8672cad43b323bcb10933cdab445b13dfe53ffc4a15afe68173a7328f12160001b612c0b565b61012e60009054906101000a900473ffffffffffffffffffffffffffffffffffffffff1673ffffffffffffffffffffffffffffffffffffffff1662fdd58e3061187584610131612c2390919063ffffffff16565b6040518363ffffffff1660e01b81526004016118929291906142e2565b602060405180830381865afa1580156118af573d6000803e3d6000fd5b505050506040513d601f19601f820116820180604052508101906118d39190614320565b8482815181106118e6576118e561441e565b5b60200260200101511415611993576119207f72698e45ee735e783adb7fe262c951a27bd1a0d8eb9b49c5a87e3d6e4f57ecad60001b612c0b565b61194c7f3164bbcb28242686666b33a3f39bd5a99733f47e279612d64c8c991b92cb312160001b612c0b565b6119787fef11164909639e798099447cd4a766fd52cf86d0c679ff4b60a5ce62269c781e60001b612c0b565b61198d81610131612c3d90919063ffffffff16565b506119c0565b6119bf7f52ef068ca9f849ad74127b685b9735858ec8bb7ead5ea9cc7b2ece3622ebfd3560001b612c0b565b5b6119ec7f21ea97e7dbbcfc463fe5e420f5a3dabf3815400f2cabbad23ca04dbdee5cad5060001b612c0b565b611a187fa8b2bc930f8e7f2659694206a223a042c6839a6bf7406f6e69fe985ce82cb74c60001b612c0b565b6000610134546064868481518110611a3357611a3261441e565b5b6020026020010151611a4591906142b1565b611a4f9190614228565b9050611a7d7fb55d7a22ef40153898bebef0454887178d11e3e8850219ca45fef98f1ac30fcb60001b612c0b565b611aa97f8115d6543441816b5cb06a014aaa2c6bb0845da388c283a0eb72514da9decec560001b612c0b565b6000858381518110611abe57611abd61441e565b5b60200260200101519050611af47ff6c472744852b33a564b8d63293891409db39ddb0bfaada1060fa73bc9d9ad2c60001b612c0b565b611b207f5ce1c6497e646626ace6a59e28950c871b56143fbf97a62b8dbedb1e554a7f4b60001b612c0b565b61013060009054906101000a900473ffffffffffffffffffffffffffffffffffffffff1673ffffffffffffffffffffffffffffffffffffffff1663a9059cbb61013360009054906101000a900473ffffffffffffffffffffffffffffffffffffffff16846040518363ffffffff1660e01b8152600401611ba19291906142e2565b6020604051808303816000875af1158015611bc0573d6000803e3d6000fd5b505050506040513d601f19601f82011682018060405250810190611be49190614702565b50611c117ff7d1512649fe8a5fde8dc26dc5c0f66e744f65e00e9746c463015cc963bf099460001b612c0b565b611c3d7f4cf78c5642ddddc63c988979e5ce65eaf41d7596942ec4de73d6fe294d174df160001b612c0b565b61013060009054906101000a900473ffffffffffffffffffffffffffffffffffffffff1673ffffffffffffffffffffffffffffffffffffffff1663a9059cbb868581518110611c8f57611c8e61441e565b5b6020026020010151836040518363ffffffff1660e01b8152600401611cb59291906142e2565b6020604051808303816000875af1158015611cd4573d6000803e3d6000fd5b505050506040513d601f19601f82011682018060405250810190611cf89190614702565b5050508080611d06906144ed565b9150506116bc565b50611d3b7f6222735af62472aadbd7ae7604559cf5df26d028b1bb653fbe16b7e52fa181a960001b612c0b565b611d677f629c8392fd831b87782ac9061f77f25205107793204512c93b4f88f5ec687e7160001b612c0b565b61012e60009054906101000a900473ffffffffffffffffffffffffffffffffffffffff1673ffffffffffffffffffffffffffffffffffffffff16636b20c4543086866040518463ffffffff1660e01b8152600401611dc79392919061472f565b600060405180830381600087803b158015611de157600080fd5b505af1158015611df5573d6000803e3d6000fd5b50505050505050505050505050505050505050565b6000611e387f2ffd4397ed0336b413c5b210611b77e3b7b28aa84bf96574e7bbe2137b43d82c60001b612c0b565b611e647fe50cc8a254deab3b7080decc4088f4999432c56bb3139bebd6920babeaefc2b860001b612c0b565b611e907f609b4384a5016145883fb07342b2ad89da227fc1866e74354caba785646d72b960001b612c0b565b611e9982612c57565b80611ea95750611ea882612cd1565b5b9050919050565b600060656000838152602001908152602001600020600101549050919050565b611ed982611eb0565b611eea81611ee5612d4b565b612d53565b611ef48383612df0565b505050565b611f01612d4b565b73ffffffffffffffffffffffffffffffffffffffff168173ffffffffffffffffffffffffffffffffffffffff1614611f6e576040517f08c379a0000000000000000000000000000000000000000000000000000000008152600401611f65906147e6565b60405180910390fd5b611f788282612e24565b5050565b6000611faa7f524135939433ccd59293329e88e7b6704ee22e0cf6b99c9e4d212e880996a79e60001b612c0b565b611fd67f2e2e4f39f72faafa9366e516fa7ec05af8e03921ed4540728cdce119bdc0fc6660001b612c0b565b6120027fd9fe0c04e66863c47d8d8798fbfaf24c3efaaba65bc0d03f07b7bfeedd43b38860001b612c0b565b60006120307f64a59770e37324152f53c7a6bbf8a7d26457a6189aab8bbf3c2cb5a2667c9b5460001b612c0b565b61205c7ffac7dab9cc9e04ca0e025cac978b1839f669e4ee11708d25352c0790af89148060001b612c0b565b60005b61206a610131612c0e565b81101561219a5761209c7ee57428fb954e9227f85a51c7e9aebae4475f63f9b82581e2e310a531c7fc6060001b612c0b565b6120c87f70275b9ff855c21b03c53f2fe883f88c2fe83085a38a760442789820e8c461d560001b612c0b565b61012e60009054906101000a900473ffffffffffffffffffffffffffffffffffffffff1673ffffffffffffffffffffffffffffffffffffffff1662fdd58e3061211c84610131612c2390919063ffffffff16565b6040518363ffffffff1660e01b81526004016121399291906142e2565b602060405180830381865afa158015612156573d6000803e3d6000fd5b505050506040513d601f19601f8201168201806040525081019061217a9190614320565b8261218591906141d2565b91508080612192906144ed565b91505061205f565b506121c77fb75e26cbeee29e414aa0acb2a45b0f0b5a90b13336fa6ccb1b99b1a24afd05c860001b612c0b565b6121f37f0e17634466dbb520fb404ffe3f2cabf67ee0789f72b30cc28d398d8553db9f9e60001b612c0b565b8091505090565b60006122218260976000868152602001908152602001600020612e5890919063ffffffff16565b905092915050565b60006065600084815260200190815260200160002060000160008373ffffffffffffffffffffffffffffffffffffffff1673ffffffffffffffffffffffffffffffffffffffff16815260200190815260200160002060009054906101000a900460ff16905092915050565b6000801b81565b60006122c97fe84ce3d475b052c82ef5563d8d0b45d03b3c38bcec300c10f1874fc8a893477c60001b612c0b565b6122f57fca326857cc05968948b9665a4fc0f4e25aee3e25ec790c9f640b54d895bf3e4b60001b612c0b565b6123217fc666fc43dbd1e2fc1495e5cfd6bdea8ab2334762ffc26d43f10e9b8abae56e6360001b612c0b565b60005b84518110156123c8576123597fec931f482d6eaaacc7fee14b735047c148ef7a51fa0435e67262960b5d115c4e60001b612c0b565b6123857fa2befe180c6877f2feee021f1a20686a13ac1340f87893b2835db4e01081f6a160001b612c0b565b6123b485828151811061239b5761239a61441e565b5b6020026020010151610131612e7290919063ffffffff16565b5080806123c0906144ed565b915050612324565b506123f57f7eaa15a793ebffa82c01917f7b8b4bddabe78de7f235f79d26928f6f7243d59e60001b612c0b565b6124217fa659c538d2b6933d8cdb1c108a69d9c1a04216042058977de6d3eb0a3089161e60001b612c0b565b63bc197c8160e01b905095945050505050565b600061245160976000848152602001908152602001600020612e8c565b9050919050565b61246182611eb0565b6124728161246d612d4b565b612d53565b61247c8383612e24565b505050565b600063f23a6e6160e01b905095945050505050565b600060019054906101000a900460ff166124be5760008054906101000a900460ff16156124c7565b6124c6612ea1565b5b612506576040517f08c379a00000000000000000000000000000000000000000000000000000000081526004016124fd90614878565b60405180910390fd5b60008060019054906101000a900460ff161590508015612556576001600060016101000a81548160ff02191690831515021790555060016000806101000a81548160ff0219169083151502179055505b6125827fcd594fc8dac0af93501c9eafae001d2deaf996e202ecca4e9e97290bf0f20b1360001b612c0b565b6125ae7fb0a0a40ad8c178491d4eefb4166f7514ac152f3622a4eb078c703abdbdf8236660001b612c0b565b6125da7ff6af5100759751727a72f140b17bba4ea37a3bb1f067db1efbcbf711c41013b460001b612c0b565b6125e2612eb2565b61260e7f5f94f6bfe8a8887d8c92a52fb13fcc95147d0cbad83750f150ca5d0b33a7d63c60001b612c0b565b61263a7f361b3d4d24f5d8e5150af7dcbca906a92addbafe73536a5315456ff9b65a9d7560001b612c0b565b612642612f03565b61266e7fabe08b00dd1f9a29d00c97b161a343e59cd4e3ee80d0f1f624a2ce545fe7609060001b612c0b565b61269a7fd658f7f74277674d069e29dba36308bba1c1cedd8b84a2e8cf62545fe6807cd460001b612c0b565b6126a2612f54565b6126ce7f6868e472e3e2e625bdb1599c9ec755f3e22d4fc5e86e6df1d78f907733dfd0ad60001b612c0b565b6126fa7f283d0957669b7226dd9789635c0f7fb1900cadc3d1439fd8e2de785c13939aa260001b612c0b565b612702612fa5565b61272e7f9dbdab597042950aeb2a6dc3282c4780be6767faff63e2d7022df33e53930da860001b612c0b565b61275a7ffe58fef07f3ebfb84cae99b3fab73a65cd847bb5f6d0927fec44b3819116268a60001b612c0b565b612762612ff6565b61278e7fbaee1112b62691235dbf43a0001b75e690f4cc74b86a0ea41a8bb2667dd8d96a60001b612c0b565b6127ba7fae1edff2c67a94554121c973cbfba1f69a937ed04421cca7d0e227bce8bb07f960001b612c0b565b8561012e60006101000a81548173ffffffffffffffffffffffffffffffffffffffff021916908373ffffffffffffffffffffffffffffffffffffffff1602179055506128287f86be7eeeee115303f66fb9ad942d28794aee4372a0ac5c2612e04e22485c3e3160001b612c0b565b6128547faf363caf41585b0c5db39bc890fba24100832993a4013f8426105424425a922760001b612c0b565b8461013060006101000a81548173ffffffffffffffffffffffffffffffffffffffff021916908373ffffffffffffffffffffffffffffffffffffffff1602179055506128c27f8275f552342a2fce3ba1aff77f40cc0bcbd71073f874b43204c636f9c61dc0cb60001b612c0b565b6128ee7f50dbf3c5570f5dafc2c4bb2d57fddffc07db208eff8d62638c3dc44dd663613e60001b612c0b565b8361012f60006101000a81548173ffffffffffffffffffffffffffffffffffffffff021916908373ffffffffffffffffffffffffffffffffffffffff16021790555061295c7f30e8f1f1cc488bbc53796d090dae7bafc3b4ed6612450dc8148b22612307857960001b612c0b565b6129887f98554c39f0552742c391da2393ed00bc7814613c13e9af4b669297ac529ac62860001b612c0b565b8261013360006101000a81548173ffffffffffffffffffffffffffffffffffffffff021916908373ffffffffffffffffffffffffffffffffffffffff1602179055506129f67fc25ebe200332a8202589d8877e948348b6003d356fda4e2c3cbf2c2ecb6121f560001b612c0b565b612a227ffa720005aad9b348a7b7201d073fbb5d95531882cdb66943df22db6c7c20763560001b612c0b565b8161013481905550612a567f915c3dbd65613198ff708b238026a485b555361e31781f59481b0365cde651fa60001b612c0b565b612a827f4b2ac8d111d56a1f28e50dbddbeca5f5b0fe23dcc973eb4f9fee05ded536a39f60001b612c0b565b731820a4b7618bde71dce8cdc73aab6c95905fad2461012d60006101000a81548173ffffffffffffffffffffffffffffffffffffffff021916908373ffffffffffffffffffffffffffffffffffffffff160217905550612b047f38f64f06a25c5759b7011835f8c7001a6474b533181203be2d535f9e1d2f21da60001b612c0b565b612b307fe54888195e9e83768f2b305933be85eb6af244246a3ff023db950a6ed499702c60001b612c0b565b61012d60009054906101000a900473ffffffffffffffffffffffffffffffffffffffff1673ffffffffffffffffffffffffffffffffffffffff166329965a1d307fb281fc8c12954d22544db45de3159a39272895b169a852b314f9cc762e44c53b306040518463ffffffff1660e01b8152600401612bb093929190614898565b600060405180830381600087803b158015612bca57600080fd5b505af1158015612bde573d6000803e3d6000fd5b505050508015612c035760008060016101000a81548160ff0219169083151502179055505b505050505050565b50565b6000612c1c82600001613047565b9050919050565b6000612c328360000183613058565b60001c905092915050565b6000612c4f836000018360001b613083565b905092915050565b60007f5a05180f000000000000000000000000000000000000000000000000000000007bffffffffffffffffffffffffffffffffffffffffffffffffffffffff1916827bffffffffffffffffffffffffffffffffffffffffffffffffffffffff19161480612cca5750612cc982613197565b5b9050919050565b60007f4e2312e0000000000000000000000000000000000000000000000000000000007bffffffffffffffffffffffffffffffffffffffffffffffffffffffff1916827bffffffffffffffffffffffffffffffffffffffffffffffffffffffff19161480612d445750612d4382612c57565b5b9050919050565b600033905090565b612d5d8282612229565b612dec57612d828173ffffffffffffffffffffffffffffffffffffffff166014613211565b612d908360001c6020613211565b604051602001612da19291906149ae565b6040516020818303038152906040526040517f08c379a0000000000000000000000000000000000000000000000000000000008152600401612de39190614a21565b60405180910390fd5b5050565b612dfa828261344d565b612e1f816097600085815260200190815260200160002061352e90919063ffffffff16565b505050565b612e2e828261355e565b612e53816097600085815260200190815260200160002061364090919063ffffffff16565b505050565b6000612e678360000183613058565b60001c905092915050565b6000612e84836000018360001b613670565b905092915050565b6000612e9a82600001613047565b9050919050565b6000612eac306136e0565b15905090565b600060019054906101000a900460ff16612f01576040517f08c379a0000000000000000000000000000000000000000000000000000000008152600401612ef890614ab5565b60405180910390fd5b565b600060019054906101000a900460ff16612f52576040517f08c379a0000000000000000000000000000000000000000000000000000000008152600401612f4990614ab5565b60405180910390fd5b565b600060019054906101000a900460ff16612fa3576040517f08c379a0000000000000000000000000000000000000000000000000000000008152600401612f9a90614ab5565b60405180910390fd5b565b600060019054906101000a900460ff16612ff4576040517f08c379a0000000000000000000000000000000000000000000000000000000008152600401612feb90614ab5565b60405180910390fd5b565b600060019054906101000a900460ff16613045576040517f08c379a000000000000000000000000000000000000000000000000000000000815260040161303c90614ab5565b60405180910390fd5b565b600081600001805490509050919050565b60008260000182815481106130705761306f61441e565b5b9060005260206000200154905092915050565b6000808360010160008481526020019081526020016000205490506000811461318b5760006001826130b5919061444d565b90506000600186600001805490506130cd919061444d565b905081811461313c5760008660000182815481106130ee576130ed61441e565b5b90600052602060002001549050808760000184815481106131125761311161441e565b5b90600052602060002001819055508387600101600083815260200190815260200160002081905550505b856000018054806131505761314f614ad5565b5b600190038181906000526020600020016000905590558560010160008681526020019081526020016000206000905560019350505050613191565b60009150505b92915050565b60007f7965db0b000000000000000000000000000000000000000000000000000000007bffffffffffffffffffffffffffffffffffffffffffffffffffffffff1916827bffffffffffffffffffffffffffffffffffffffffffffffffffffffff1916148061320a575061320982613703565b5b9050919050565b6060600060028360026132249190614228565b61322e91906141d2565b67ffffffffffffffff81111561324757613246613b99565b5b6040519080825280601f01601f1916602001820160405280156132795781602001600182028036833780820191505090505b5090507f3000000000000000000000000000000000000000000000000000000000000000816000815181106132b1576132b061441e565b5b60200101907effffffffffffffffffffffffffffffffffffffffffffffffffffffffffffff1916908160001a9053507f7800000000000000000000000000000000000000000000000000000000000000816001815181106133155761331461441e565b5b60200101907effffffffffffffffffffffffffffffffffffffffffffffffffffffffffffff1916908160001a905350600060018460026133559190614228565b61335f91906141d2565b90505b60018111156133ff577f3031323334353637383961626364656600000000000000000000000000000000600f8616601081106133a1576133a061441e565b5b1a60f81b8282815181106133b8576133b761441e565b5b60200101907effffffffffffffffffffffffffffffffffffffffffffffffffffffffffffff1916908160001a905350600485901c9450806133f890614b04565b9050613362565b5060008414613443576040517f08c379a000000000000000000000000000000000000000000000000000000000815260040161343a90614b7a565b60405180910390fd5b8091505092915050565b6134578282612229565b61352a5760016065600084815260200190815260200160002060000160008373ffffffffffffffffffffffffffffffffffffffff1673ffffffffffffffffffffffffffffffffffffffff16815260200190815260200160002060006101000a81548160ff0219169083151502179055506134cf612d4b565b73ffffffffffffffffffffffffffffffffffffffff168173ffffffffffffffffffffffffffffffffffffffff16837f2f8788117e7eff1d82e926ec794901d17c78024a50270940304540a733656f0d60405160405180910390a45b5050565b6000613556836000018373ffffffffffffffffffffffffffffffffffffffff1660001b613670565b905092915050565b6135688282612229565b1561363c5760006065600084815260200190815260200160002060000160008373ffffffffffffffffffffffffffffffffffffffff1673ffffffffffffffffffffffffffffffffffffffff16815260200190815260200160002060006101000a81548160ff0219169083151502179055506135e1612d4b565b73ffffffffffffffffffffffffffffffffffffffff168173ffffffffffffffffffffffffffffffffffffffff16837ff6391f5c32d9c69d2a47ea670b442974b53935d1edc7fd64eb21e047a839171b60405160405180910390a45b5050565b6000613668836000018373ffffffffffffffffffffffffffffffffffffffff1660001b613083565b905092915050565b600061367c838361376d565b6136d55782600001829080600181540180825580915050600190039060005260206000200160009091909190915055826000018054905083600101600084815260200190815260200160002081905550600190506136da565b600090505b92915050565b6000808273ffffffffffffffffffffffffffffffffffffffff163b119050919050565b60007f01ffc9a7000000000000000000000000000000000000000000000000000000007bffffffffffffffffffffffffffffffffffffffffffffffffffffffff1916827bffffffffffffffffffffffffffffffffffffffffffffffffffffffff1916149050919050565b600080836001016000848152602001908152602001600020541415905092915050565b6000604051905090565b600080fd5b600080fd5b600073ffffffffffffffffffffffffffffffffffffffff82169050919050565b60006137cf826137a4565b9050919050565b6137df816137c4565b81146137ea57600080fd5b50565b6000813590506137fc816137d6565b92915050565b6000819050919050565b61381581613802565b811461382057600080fd5b50565b6000813590506138328161380c565b92915050565b600080fd5b600080fd5b600080fd5b60008083601f84011261385d5761385c613838565b5b8235905067ffffffffffffffff81111561387a5761387961383d565b5b60208301915083600182028301111561389657613895613842565b5b9250929050565b60008060008060008060008060c0898b0312156138bd576138bc61379a565b5b60006138cb8b828c016137ed565b98505060206138dc8b828c016137ed565b97505060406138ed8b828c016137ed565b96505060606138fe8b828c01613823565b955050608089013567ffffffffffffffff81111561391f5761391e61379f565b5b61392b8b828c01613847565b945094505060a089013567ffffffffffffffff81111561394e5761394d61379f565b5b61395a8b828c01613847565b92509250509295985092959890939650565b60007fffffffff0000000000000000000000000000000000000000000000000000000082169050919050565b6139a18161396c565b81146139ac57600080fd5b50565b6000813590506139be81613998565b92915050565b6000602082840312156139da576139d961379a565b5b60006139e8848285016139af565b91505092915050565b60008115159050919050565b613a06816139f1565b82525050565b6000602082019050613a2160008301846139fd565b92915050565b6000819050919050565b613a3a81613a27565b8114613a4557600080fd5b50565b600081359050613a5781613a31565b92915050565b600060208284031215613a7357613a7261379a565b5b6000613a8184828501613a48565b91505092915050565b613a9381613a27565b82525050565b6000602082019050613aae6000830184613a8a565b92915050565b60008060408385031215613acb57613aca61379a565b5b6000613ad985828601613a48565b9250506020613aea858286016137ed565b9150509250929050565b613afd81613802565b82525050565b6000602082019050613b186000830184613af4565b92915050565b60008060408385031215613b3557613b3461379a565b5b6000613b4385828601613a48565b9250506020613b5485828601613823565b9150509250929050565b613b67816137c4565b82525050565b6000602082019050613b826000830184613b5e565b92915050565b6000601f19601f8301169050919050565b7f4e487b7100000000000000000000000000000000000000000000000000000000600052604160045260246000fd5b613bd182613b88565b810181811067ffffffffffffffff82111715613bf057613bef613b99565b5b80604052505050565b6000613c03613790565b9050613c0f8282613bc8565b919050565b600067ffffffffffffffff821115613c2f57613c2e613b99565b5b602082029050602081019050919050565b6000613c53613c4e84613c14565b613bf9565b90508083825260208201905060208402830185811115613c7657613c75613842565b5b835b81811015613c9f5780613c8b8882613823565b845260208401935050602081019050613c78565b5050509392505050565b600082601f830112613cbe57613cbd613838565b5b8135613cce848260208601613c40565b91505092915050565b600080fd5b600067ffffffffffffffff821115613cf757613cf6613b99565b5b613d0082613b88565b9050602081019050919050565b82818337600083830152505050565b6000613d2f613d2a84613cdc565b613bf9565b905082815260208101848484011115613d4b57613d4a613cd7565b5b613d56848285613d0d565b509392505050565b600082601f830112613d7357613d72613838565b5b8135613d83848260208601613d1c565b91505092915050565b600080600080600060a08688031215613da857613da761379a565b5b6000613db6888289016137ed565b9550506020613dc7888289016137ed565b945050604086013567ffffffffffffffff811115613de857613de761379f565b5b613df488828901613ca9565b935050606086013567ffffffffffffffff811115613e1557613e1461379f565b5b613e2188828901613ca9565b925050608086013567ffffffffffffffff811115613e4257613e4161379f565b5b613e4e88828901613d5e565b9150509295509295909350565b613e648161396c565b82525050565b6000602082019050613e7f6000830184613e5b565b92915050565b600080600080600060a08688031215613ea157613ea061379a565b5b6000613eaf888289016137ed565b9550506020613ec0888289016137ed565b9450506040613ed188828901613823565b9350506060613ee288828901613823565b925050608086013567ffffffffffffffff811115613f0357613f0261379f565b5b613f0f88828901613d5e565b9150509295509295909350565b600080600080600060a08688031215613f3857613f3761379a565b5b6000613f46888289016137ed565b9550506020613f57888289016137ed565b9450506040613f68888289016137ed565b9350506060613f79888289016137ed565b9250506080613f8a88828901613823565b9150509295509295909350565b6000613fa2826137a4565b9050919050565b613fb281613f97565b8114613fbd57600080fd5b50565b600081359050613fcf81613fa9565b92915050565b600060208284031215613feb57613fea61379a565b5b6000613ff984828501613fc0565b91505092915050565b600082825260208201905092915050565b7f4649464f4d61726b65743a20496e76616c696420616464726573730000000000600082015250565b6000614049601b83614002565b915061405482614013565b602082019050919050565b600060208201905081810360008301526140788161403c565b9050919050565b7f4649464f4d61726b65743a2063616e6e6f74206d696e7420746f20746865203060008201527f2061646472657373000000000000000000000000000000000000000000000000602082015250565b60006140db602883614002565b91506140e68261407f565b604082019050919050565b6000602082019050818103600083015261410a816140ce565b9050919050565b7f4649464f4d61726b65743a205468697320636f6e74726163742063616e206f6e60008201527f6c792072656365697665204e4f52490000000000000000000000000000000000602082015250565b600061416d602f83614002565b915061417882614111565b604082019050919050565b6000602082019050818103600083015261419c81614160565b9050919050565b7f4e487b7100000000000000000000000000000000000000000000000000000000600052601160045260246000fd5b60006141dd82613802565b91506141e883613802565b9250827fffffffffffffffffffffffffffffffffffffffffffffffffffffffffffffffff0382111561421d5761421c6141a3565b5b828201905092915050565b600061423382613802565b915061423e83613802565b9250817fffffffffffffffffffffffffffffffffffffffffffffffffffffffffffffffff0483118215151615614277576142766141a3565b5b828202905092915050565b7f4e487b7100000000000000000000000000000000000000000000000000000000600052601260045260246000fd5b60006142bc82613802565b91506142c783613802565b9250826142d7576142d6614282565b5b828204905092915050565b60006040820190506142f76000830185613b5e565b6143046020830184613af4565b9392505050565b60008151905061431a8161380c565b92915050565b6000602082840312156143365761433561379a565b5b60006143448482850161430b565b91505092915050565b600080fd5b600081519050614361816137d6565b92915050565b600061ffff82169050919050565b61437e81614367565b811461438957600080fd5b50565b60008151905061439b81614375565b92915050565b6000604082840312156143b7576143b661434d565b5b6143c16040613bf9565b905060006143d184828501614352565b60008301525060206143e58482850161438c565b60208301525092915050565b6000604082840312156144075761440661379a565b5b6000614415848285016143a1565b91505092915050565b7f4e487b7100000000000000000000000000000000000000000000000000000000600052603260045260246000fd5b600061445882613802565b915061446383613802565b925082821015614476576144756141a3565b5b828203905092915050565b7f4649464f4d61726b65743a204e6f7420656e6f75676820737570706c79000000600082015250565b60006144b7601d83614002565b91506144c282614481565b602082019050919050565b600060208201905081810360008301526144e6816144aa565b9050919050565b60006144f882613802565b91507fffffffffffffffffffffffffffffffffffffffffffffffffffffffffffffffff82141561452b5761452a6141a3565b5b600182019050919050565b600081519050919050565b600082825260208201905092915050565b6000819050602082019050919050565b61456b81613802565b82525050565b600061457d8383614562565b60208301905092915050565b6000602082019050919050565b60006145a182614536565b6145ab8185614541565b93506145b683614552565b8060005b838110156145e75781516145ce8882614571565b97506145d983614589565b9250506001810190506145ba565b5085935050505092915050565b600081519050919050565b600082825260208201905092915050565b60005b8381101561462e578082015181840152602081019050614613565b8381111561463d576000848401525b50505050565b600061464e826145f4565b61465881856145ff565b9350614668818560208601614610565b61467181613b88565b840191505092915050565b60006080820190506146916000830187613b5e565b81810360208301526146a38186614596565b905081810360408301526146b78185614596565b905081810360608301526146cb8184614643565b905095945050505050565b6146df816139f1565b81146146ea57600080fd5b50565b6000815190506146fc816146d6565b92915050565b6000602082840312156147185761471761379a565b5b6000614726848285016146ed565b91505092915050565b60006060820190506147446000830186613b5e565b81810360208301526147568185614596565b9050818103604083015261476a8184614596565b9050949350505050565b7f416363657373436f6e74726f6c3a2063616e206f6e6c792072656e6f756e636560008201527f20726f6c657320666f722073656c660000000000000000000000000000000000602082015250565b60006147d0602f83614002565b91506147db82614774565b604082019050919050565b600060208201905081810360008301526147ff816147c3565b9050919050565b7f496e697469616c697a61626c653a20636f6e747261637420697320616c72656160008201527f647920696e697469616c697a6564000000000000000000000000000000000000602082015250565b6000614862602e83614002565b915061486d82614806565b604082019050919050565b6000602082019050818103600083015261489181614855565b9050919050565b60006060820190506148ad6000830186613b5e565b6148ba6020830185613a8a565b6148c76040830184613b5e565b949350505050565b600081905092915050565b7f416363657373436f6e74726f6c3a206163636f756e7420000000000000000000600082015250565b60006149106017836148cf565b915061491b826148da565b601782019050919050565b600081519050919050565b600061493c82614926565b61494681856148cf565b9350614956818560208601614610565b80840191505092915050565b7f206973206d697373696e6720726f6c6520000000000000000000000000000000600082015250565b60006149986011836148cf565b91506149a382614962565b601182019050919050565b60006149b982614903565b91506149c58285614931565b91506149d08261498b565b91506149dc8284614931565b91508190509392505050565b60006149f382614926565b6149fd8185614002565b9350614a0d818560208601614610565b614a1681613b88565b840191505092915050565b60006020820190508181036000830152614a3b81846149e8565b905092915050565b7f496e697469616c697a61626c653a20636f6e7472616374206973206e6f74206960008201527f6e697469616c697a696e67000000000000000000000000000000000000000000602082015250565b6000614a9f602b83614002565b9150614aaa82614a43565b604082019050919050565b60006020820190508181036000830152614ace81614a92565b9050919050565b7f4e487b7100000000000000000000000000000000000000000000000000000000600052603160045260246000fd5b6000614b0f82613802565b91506000821415614b2357614b226141a3565b5b600182039050919050565b7f537472696e67733a20686578206c656e67746820696e73756666696369656e74600082015250565b6000614b64602083614002565b9150614b6f82614b2e565b602082019050919050565b60006020820190508181036000830152614b9381614b57565b905091905056fea2646970667358221220395e4a6c630187fd42b53c96ceee9fa9261ec3d586164bc58f7e60afb18345f664736f6c634300080a0033",
  "linkReferences": {},
  "deployedLinkReferences": {}
}