{
  "_format": "hh-sol-artifact-1",
  "contractName": "MockERC1155PresetPausableNonTransferrable",
  "sourceName": "contracts/mocks/MockERC1155PresetPausableNonTransferrable.sol",
  "abi": [
    {
      "inputs": [],
      "name": "ForbiddenTransferAfterMinting",
      "type": "error"
    },
    {
      "anonymous": false,
      "inputs": [
        {
          "indexed": true,
          "internalType": "address",
          "name": "account",
          "type": "address"
        },
        {
          "indexed": true,
          "internalType": "address",
          "name": "operator",
          "type": "address"
        },
        {
          "indexed": false,
          "internalType": "bool",
          "name": "approved",
          "type": "bool"
        }
      ],
      "name": "ApprovalForAll",
      "type": "event"
    },
    {
      "anonymous": false,
      "inputs": [],
      "name": "BeforeTokenTransfer",
      "type": "event"
    },
    {
      "anonymous": false,
      "inputs": [
        {
          "indexed": false,
          "internalType": "uint8",
          "name": "version",
          "type": "uint8"
        }
      ],
      "name": "Initialized",
      "type": "event"
    },
    {
      "anonymous": false,
      "inputs": [
        {
          "indexed": false,
          "internalType": "address",
          "name": "account",
          "type": "address"
        }
      ],
      "name": "Paused",
      "type": "event"
    },
    {
      "anonymous": false,
      "inputs": [
        {
          "indexed": true,
          "internalType": "bytes32",
          "name": "role",
          "type": "bytes32"
        },
        {
          "indexed": true,
          "internalType": "bytes32",
          "name": "previousAdminRole",
          "type": "bytes32"
        },
        {
          "indexed": true,
          "internalType": "bytes32",
          "name": "newAdminRole",
          "type": "bytes32"
        }
      ],
      "name": "RoleAdminChanged",
      "type": "event"
    },
    {
      "anonymous": false,
      "inputs": [
        {
          "indexed": true,
          "internalType": "bytes32",
          "name": "role",
          "type": "bytes32"
        },
        {
          "indexed": true,
          "internalType": "address",
          "name": "account",
          "type": "address"
        },
        {
          "indexed": true,
          "internalType": "address",
          "name": "sender",
          "type": "address"
        }
      ],
      "name": "RoleGranted",
      "type": "event"
    },
    {
      "anonymous": false,
      "inputs": [
        {
          "indexed": true,
          "internalType": "bytes32",
          "name": "role",
          "type": "bytes32"
        },
        {
          "indexed": true,
          "internalType": "address",
          "name": "account",
          "type": "address"
        },
        {
          "indexed": true,
          "internalType": "address",
          "name": "sender",
          "type": "address"
        }
      ],
      "name": "RoleRevoked",
      "type": "event"
    },
    {
      "anonymous": false,
      "inputs": [
        {
          "indexed": true,
          "internalType": "address",
          "name": "operator",
          "type": "address"
        },
        {
          "indexed": true,
          "internalType": "address",
          "name": "from",
          "type": "address"
        },
        {
          "indexed": true,
          "internalType": "address",
          "name": "to",
          "type": "address"
        },
        {
          "indexed": false,
          "internalType": "uint256[]",
          "name": "ids",
          "type": "uint256[]"
        },
        {
          "indexed": false,
          "internalType": "uint256[]",
          "name": "values",
          "type": "uint256[]"
        }
      ],
      "name": "TransferBatch",
      "type": "event"
    },
    {
      "anonymous": false,
      "inputs": [
        {
          "indexed": true,
          "internalType": "address",
          "name": "operator",
          "type": "address"
        },
        {
          "indexed": true,
          "internalType": "address",
          "name": "from",
          "type": "address"
        },
        {
          "indexed": true,
          "internalType": "address",
          "name": "to",
          "type": "address"
        },
        {
          "indexed": false,
          "internalType": "uint256",
          "name": "id",
          "type": "uint256"
        },
        {
          "indexed": false,
          "internalType": "uint256",
          "name": "value",
          "type": "uint256"
        }
      ],
      "name": "TransferSingle",
      "type": "event"
    },
    {
      "anonymous": false,
      "inputs": [
        {
          "indexed": false,
          "internalType": "string",
          "name": "value",
          "type": "string"
        },
        {
          "indexed": true,
          "internalType": "uint256",
          "name": "id",
          "type": "uint256"
        }
      ],
      "name": "URI",
      "type": "event"
    },
    {
      "anonymous": false,
      "inputs": [
        {
          "indexed": false,
          "internalType": "address",
          "name": "account",
          "type": "address"
        }
      ],
      "name": "Unpaused",
      "type": "event"
    },
    {
      "inputs": [],
      "name": "CERTIFICATE_OPERATOR_ROLE",
      "outputs": [
        {
          "internalType": "bytes32",
          "name": "",
          "type": "bytes32"
        }
      ],
      "stateMutability": "view",
      "type": "function"
    },
    {
      "inputs": [],
      "name": "DEFAULT_ADMIN_ROLE",
      "outputs": [
        {
          "internalType": "bytes32",
          "name": "",
          "type": "bytes32"
        }
      ],
      "stateMutability": "view",
      "type": "function"
    },
    {
      "inputs": [],
      "name": "MINTER_ROLE",
      "outputs": [
        {
          "internalType": "bytes32",
          "name": "",
          "type": "bytes32"
        }
      ],
      "stateMutability": "view",
      "type": "function"
    },
    {
      "inputs": [],
      "name": "PAUSER_ROLE",
      "outputs": [
        {
          "internalType": "bytes32",
          "name": "",
          "type": "bytes32"
        }
      ],
      "stateMutability": "view",
      "type": "function"
    },
    {
      "inputs": [
        {
          "internalType": "address",
          "name": "operator",
          "type": "address"
        },
        {
          "internalType": "address",
          "name": "from",
          "type": "address"
        },
        {
          "internalType": "address",
          "name": "to",
          "type": "address"
        },
        {
          "internalType": "uint256[]",
          "name": "ids",
          "type": "uint256[]"
        },
        {
          "internalType": "uint256[]",
          "name": "amounts",
          "type": "uint256[]"
        },
        {
          "internalType": "bytes",
          "name": "data",
          "type": "bytes"
        }
      ],
      "name": "_test_beforeTokenTransfer",
      "outputs": [],
      "stateMutability": "nonpayable",
      "type": "function"
    },
    {
      "inputs": [
        {
          "internalType": "address",
          "name": "account",
          "type": "address"
        },
        {
          "internalType": "uint256",
          "name": "id",
          "type": "uint256"
        }
      ],
      "name": "balanceOf",
      "outputs": [
        {
          "internalType": "uint256",
          "name": "",
          "type": "uint256"
        }
      ],
      "stateMutability": "view",
      "type": "function"
    },
    {
      "inputs": [
        {
          "internalType": "address[]",
          "name": "accounts",
          "type": "address[]"
        },
        {
          "internalType": "uint256[]",
          "name": "ids",
          "type": "uint256[]"
        }
      ],
      "name": "balanceOfBatch",
      "outputs": [
        {
          "internalType": "uint256[]",
          "name": "",
          "type": "uint256[]"
        }
      ],
      "stateMutability": "view",
      "type": "function"
    },
    {
      "inputs": [
        {
          "internalType": "address",
          "name": "account",
          "type": "address"
        },
        {
          "internalType": "uint256",
          "name": "id",
          "type": "uint256"
        },
        {
          "internalType": "uint256",
          "name": "value",
          "type": "uint256"
        }
      ],
      "name": "burn",
      "outputs": [],
      "stateMutability": "nonpayable",
      "type": "function"
    },
    {
      "inputs": [
        {
          "internalType": "address",
          "name": "account",
          "type": "address"
        },
        {
          "internalType": "uint256[]",
          "name": "ids",
          "type": "uint256[]"
        },
        {
          "internalType": "uint256[]",
          "name": "values",
          "type": "uint256[]"
        }
      ],
      "name": "burnBatch",
      "outputs": [],
      "stateMutability": "nonpayable",
      "type": "function"
    },
    {
      "inputs": [
        {
          "internalType": "uint256",
          "name": "id",
          "type": "uint256"
        }
      ],
      "name": "exists",
      "outputs": [
        {
          "internalType": "bool",
          "name": "",
          "type": "bool"
        }
      ],
      "stateMutability": "view",
      "type": "function"
    },
    {
      "inputs": [
        {
          "internalType": "bytes32",
          "name": "role",
          "type": "bytes32"
        }
      ],
      "name": "getRoleAdmin",
      "outputs": [
        {
          "internalType": "bytes32",
          "name": "",
          "type": "bytes32"
        }
      ],
      "stateMutability": "view",
      "type": "function"
    },
    {
      "inputs": [
        {
          "internalType": "bytes32",
          "name": "role",
          "type": "bytes32"
        },
        {
          "internalType": "uint256",
          "name": "index",
          "type": "uint256"
        }
      ],
      "name": "getRoleMember",
      "outputs": [
        {
          "internalType": "address",
          "name": "",
          "type": "address"
        }
      ],
      "stateMutability": "view",
      "type": "function"
    },
    {
      "inputs": [
        {
          "internalType": "bytes32",
          "name": "role",
          "type": "bytes32"
        }
      ],
      "name": "getRoleMemberCount",
      "outputs": [
        {
          "internalType": "uint256",
          "name": "",
          "type": "uint256"
        }
      ],
      "stateMutability": "view",
      "type": "function"
    },
    {
      "inputs": [
        {
          "internalType": "bytes32",
          "name": "role",
          "type": "bytes32"
        },
        {
          "internalType": "address",
          "name": "account",
          "type": "address"
        }
      ],
      "name": "grantRole",
      "outputs": [],
      "stateMutability": "nonpayable",
      "type": "function"
    },
    {
      "inputs": [
        {
          "internalType": "bytes32",
          "name": "role",
          "type": "bytes32"
        },
        {
          "internalType": "address",
          "name": "account",
          "type": "address"
        }
      ],
      "name": "hasRole",
      "outputs": [
        {
          "internalType": "bool",
          "name": "",
          "type": "bool"
        }
      ],
      "stateMutability": "view",
      "type": "function"
    },
    {
      "inputs": [],
      "name": "initialize",
      "outputs": [],
      "stateMutability": "nonpayable",
      "type": "function"
    },
    {
      "inputs": [
        {
          "internalType": "string",
          "name": "uri",
          "type": "string"
        }
      ],
      "name": "initialize",
      "outputs": [],
      "stateMutability": "nonpayable",
      "type": "function"
    },
    {
      "inputs": [
        {
          "internalType": "address",
          "name": "account",
          "type": "address"
        },
        {
          "internalType": "address",
          "name": "operator",
          "type": "address"
        }
      ],
      "name": "isApprovedForAll",
      "outputs": [
        {
          "internalType": "bool",
          "name": "",
          "type": "bool"
        }
      ],
      "stateMutability": "view",
      "type": "function"
    },
    {
      "inputs": [
        {
          "internalType": "address",
          "name": "to",
          "type": "address"
        },
        {
          "internalType": "uint256",
          "name": "id",
          "type": "uint256"
        },
        {
          "internalType": "uint256",
          "name": "amount",
          "type": "uint256"
        },
        {
          "internalType": "bytes",
          "name": "data",
          "type": "bytes"
        }
      ],
      "name": "mint",
      "outputs": [],
      "stateMutability": "nonpayable",
      "type": "function"
    },
    {
      "inputs": [
        {
          "internalType": "address",
          "name": "to",
          "type": "address"
        },
        {
          "internalType": "uint256[]",
          "name": "ids",
          "type": "uint256[]"
        },
        {
          "internalType": "uint256[]",
          "name": "amounts",
          "type": "uint256[]"
        },
        {
          "internalType": "bytes",
          "name": "data",
          "type": "bytes"
        }
      ],
      "name": "mintBatch",
      "outputs": [],
      "stateMutability": "nonpayable",
      "type": "function"
    },
    {
      "inputs": [],
      "name": "pause",
      "outputs": [],
      "stateMutability": "nonpayable",
      "type": "function"
    },
    {
      "inputs": [],
      "name": "paused",
      "outputs": [
        {
          "internalType": "bool",
          "name": "",
          "type": "bool"
        }
      ],
      "stateMutability": "view",
      "type": "function"
    },
    {
      "inputs": [
        {
          "internalType": "bytes32",
          "name": "role",
          "type": "bytes32"
        },
        {
          "internalType": "address",
          "name": "account",
          "type": "address"
        }
      ],
      "name": "renounceRole",
      "outputs": [],
      "stateMutability": "nonpayable",
      "type": "function"
    },
    {
      "inputs": [
        {
          "internalType": "bytes32",
          "name": "role",
          "type": "bytes32"
        },
        {
          "internalType": "address",
          "name": "account",
          "type": "address"
        }
      ],
      "name": "revokeRole",
      "outputs": [],
      "stateMutability": "nonpayable",
      "type": "function"
    },
    {
      "inputs": [
        {
          "internalType": "address",
          "name": "from",
          "type": "address"
        },
        {
          "internalType": "address",
          "name": "to",
          "type": "address"
        },
        {
          "internalType": "uint256[]",
          "name": "ids",
          "type": "uint256[]"
        },
        {
          "internalType": "uint256[]",
          "name": "amounts",
          "type": "uint256[]"
        },
        {
          "internalType": "bytes",
          "name": "data",
          "type": "bytes"
        }
      ],
      "name": "safeBatchTransferFrom",
      "outputs": [],
      "stateMutability": "nonpayable",
      "type": "function"
    },
    {
      "inputs": [
        {
          "internalType": "address",
          "name": "from",
          "type": "address"
        },
        {
          "internalType": "address",
          "name": "to",
          "type": "address"
        },
        {
          "internalType": "uint256",
          "name": "id",
          "type": "uint256"
        },
        {
          "internalType": "uint256",
          "name": "amount",
          "type": "uint256"
        },
        {
          "internalType": "bytes",
          "name": "data",
          "type": "bytes"
        }
      ],
      "name": "safeTransferFrom",
      "outputs": [],
      "stateMutability": "nonpayable",
      "type": "function"
    },
    {
      "inputs": [
        {
          "internalType": "address",
          "name": "operator",
          "type": "address"
        },
        {
          "internalType": "bool",
          "name": "approved",
          "type": "bool"
        }
      ],
      "name": "setApprovalForAll",
      "outputs": [],
      "stateMutability": "nonpayable",
      "type": "function"
    },
    {
      "inputs": [
        {
          "internalType": "bytes4",
          "name": "interfaceId",
          "type": "bytes4"
        }
      ],
      "name": "supportsInterface",
      "outputs": [
        {
          "internalType": "bool",
          "name": "",
          "type": "bool"
        }
      ],
      "stateMutability": "view",
      "type": "function"
    },
    {
      "inputs": [
        {
          "internalType": "uint256",
          "name": "id",
          "type": "uint256"
        }
      ],
      "name": "totalSupply",
      "outputs": [
        {
          "internalType": "uint256",
          "name": "",
          "type": "uint256"
        }
      ],
      "stateMutability": "view",
      "type": "function"
    },
    {
      "inputs": [],
      "name": "unpause",
      "outputs": [],
      "stateMutability": "nonpayable",
      "type": "function"
    },
    {
      "inputs": [
        {
          "internalType": "uint256",
          "name": "",
          "type": "uint256"
        }
      ],
      "name": "uri",
      "outputs": [
        {
          "internalType": "string",
          "name": "",
          "type": "string"
        }
      ],
      "stateMutability": "view",
      "type": "function"
    }
  ],
  "bytecode": "0x608060405234801561001057600080fd5b5061326b806100206000396000f3fe608060405234801561001057600080fd5b50600436106101e45760003560e01c8063731133e91161010f578063ca15c873116100a2578063e985e9c511610071578063e985e9c514610452578063f242432a1461048e578063f5298aca146104a1578063f62d1888146104b457600080fd5b8063ca15c87314610402578063d539139314610415578063d547741f1461042a578063e63ab1e91461043d57600080fd5b806391d14854116100de57806391d14854146103b4578063a217fddf146103c7578063a22cb465146103cf578063bd85b039146103e257600080fd5b8063731133e9146103665780638129fc1c146103795780638456cb59146103815780639010d07c1461038957600080fd5b80632f2ff15d116101875780634f558e79116101565780634f558e79146103125780635c975abb146103345780636b20c454146103405780636cb7f39c1461035357600080fd5b80632f2ff15d146102c457806336568abe146102d75780633f4ba83a146102ea5780634e1273f4146102f257600080fd5b80631f7fdffa116101c35780631f7fdffa14610252578063248a9ca31461026757806326c6da4f1461028a5780632eb2c2d6146102b157600080fd5b8062fdd58e146101e957806301ffc9a71461020f5780630e89341c14610232575b600080fd5b6101fc6101f73660046123fc565b6104c7565b6040519081526020015b60405180910390f35b61022261021d36600461243c565b610563565b6040519015158152602001610206565b610245610240366004612459565b61056e565b60405161020691906124ca565b610265610260366004612630565b610602565b005b6101fc610275366004612459565b60009081526065602052604090206001015490565b6101fc7fb6eeb50d1ea0d876d560efb18b8017323347ce323ef4b05d5a0322c9c7869f8f81565b6102656102bf3660046126c8565b610648565b6102656102d2366004612771565b6106df565b6102656102e5366004612771565b610709565b610265610787565b61030561030036600461279d565b61081b565b60405161020691906128a2565b610222610320366004612459565b600090815260fb6020526040902054151590565b61015f5460ff16610222565b61026561034e3660046128b5565b610944565b610265610361366004612928565b610987565b6102656103743660046129e0565b61099d565b6102656109dd565b610265610a6b565b61039c610397366004612a34565b610afd565b6040516001600160a01b039091168152602001610206565b6102226103c2366004612771565b610b1c565b6101fc600081565b6102656103dd366004612a56565b610b47565b6101fc6103f0366004612459565b600090815260fb602052604090205490565b6101fc610410366004612459565b610b52565b6101fc60008051602061321683398151915281565b610265610438366004612771565b610b69565b6101fc6000805160206131f683398151915281565b610222610460366004612a92565b6001600160a01b03918216600090815260ca6020908152604080832093909416825291909152205460ff1690565b61026561049c366004612abc565b610b8e565b6102656104af366004612b20565b610bd3565b6102656104c2366004612b53565b610c16565b60006001600160a01b0383166105385760405162461bcd60e51b815260206004820152602b60248201527f455243313135353a2062616c616e636520717565727920666f7220746865207a60448201526a65726f206164647265737360a81b60648201526084015b60405180910390fd5b50600081815260c9602090815260408083206001600160a01b03861684529091529020545b92915050565b600061055d82610c8c565b606060cb805461057d90612ba3565b80601f01602080910402602001604051908101604052809291908181526020018280546105a990612ba3565b80156105f65780601f106105cb576101008083540402835291602001916105f6565b820191906000526020600020905b8154815290600101906020018083116105d957829003601f168201915b50505050509050919050565b61061a60008051602061321683398151915233610b1c565b6106365760405162461bcd60e51b815260040161052f90612bdd565b61064284848484610c97565b50505050565b6001600160a01b03851633148061066457506106648533610460565b6106cb5760405162461bcd60e51b815260206004820152603260248201527f455243313135353a207472616e736665722063616c6c6572206973206e6f74206044820152711bdddb995c881b9bdc88185c1c1c9bdd995960721b606482015260840161052f565b6106d88585858585610df2565b5050505050565b6000828152606560205260409020600101546106fa81610f97565b6107048383610fa1565b505050565b6001600160a01b03811633146107795760405162461bcd60e51b815260206004820152602f60248201527f416363657373436f6e74726f6c3a2063616e206f6e6c792072656e6f756e636560448201526e103937b632b9903337b91039b2b63360891b606482015260840161052f565b6107838282610fc3565b5050565b61079f6000805160206131f683398151915233610b1c565b6108115760405162461bcd60e51b815260206004820152603b60248201527f455243313135355072657365744d696e7465725061757365723a206d7573742060448201527f686176652070617573657220726f6c6520746f20756e70617573650000000000606482015260840161052f565b610819610fe5565b565b606081518351146108805760405162461bcd60e51b815260206004820152602960248201527f455243313135353a206163636f756e747320616e6420696473206c656e677468604482015268040dad2e6dac2e8c6d60bb1b606482015260840161052f565b600083516001600160401b0381111561089b5761089b6124dd565b6040519080825280602002602001820160405280156108c4578160200160208202803683370190505b50905060005b845181101561093c5761090f8582815181106108e8576108e8612c3a565b602002602001015185838151811061090257610902612c3a565b60200260200101516104c7565b82828151811061092157610921612c3a565b602090810291909101015261093581612c66565b90506108ca565b509392505050565b6001600160a01b03831633148061096057506109608333610460565b61097c5760405162461bcd60e51b815260040161052f90612c7f565b61070483838361107a565b610995868686868686611219565b505050505050565b6109b560008051602061321683398151915233610b1c565b6109d15760405162461bcd60e51b815260040161052f90612bdd565b61064284848484611250565b60006109e9600161133b565b90508015610a01576000805461ff0019166101001790555b610a226040518060600160405280602a81526020016131cc602a91396113c8565b8015610a68576000805461ff0019169055604051600181527f7f26b83ff96e1f2b6a682f133852f6798a09c465da95921460cefb38474024989060200160405180910390a15b50565b610a836000805160206131f683398151915233610b1c565b610af55760405162461bcd60e51b815260206004820152603960248201527f455243313135355072657365744d696e7465725061757365723a206d7573742060448201527f686176652070617573657220726f6c6520746f20706175736500000000000000606482015260840161052f565b610819611411565b6000828152609760205260408120610b15908361148e565b9392505050565b60009182526065602090815260408084206001600160a01b0393909316845291905290205460ff1690565b61078333838361149a565b600081815260976020526040812061055d9061157a565b600082815260656020526040902060010154610b8481610f97565b6107048383610fc3565b6001600160a01b038516331480610baa5750610baa8533610460565b610bc65760405162461bcd60e51b815260040161052f90612c7f565b6106d88585858585611584565b6001600160a01b038316331480610bef5750610bef8333610460565b610c0b5760405162461bcd60e51b815260040161052f90612c7f565b6107048383836116c0565b6000610c22600161133b565b90508015610c3a576000805461ff0019166101001790555b610c43826117dc565b8015610783576000805461ff0019169055604051600181527f7f26b83ff96e1f2b6a682f133852f6798a09c465da95921460cefb38474024989060200160405180910390a15050565b600061055d8261181d565b6001600160a01b038416610cbd5760405162461bcd60e51b815260040161052f90612cc8565b8151835114610cde5760405162461bcd60e51b815260040161052f90612d09565b33610cee81600087878787611219565b60005b8451811015610d8a57838181518110610d0c57610d0c612c3a565b602002602001015160c96000878481518110610d2a57610d2a612c3a565b602002602001015181526020019081526020016000206000886001600160a01b03166001600160a01b031681526020019081526020016000206000828254610d729190612d51565b90915550819050610d8281612c66565b915050610cf1565b50846001600160a01b031660006001600160a01b0316826001600160a01b03167f4a39dc06d4c0dbc64b70af90fd698a233a518aa5d07e595d983b8c0526c8f7fb8787604051610ddb929190612d69565b60405180910390a46106d88160008787878761185d565b8151835114610e135760405162461bcd60e51b815260040161052f90612d09565b6001600160a01b038416610e395760405162461bcd60e51b815260040161052f90612d97565b33610e48818787878787611219565b60005b8451811015610f31576000858281518110610e6857610e68612c3a565b602002602001015190506000858381518110610e8657610e86612c3a565b602090810291909101810151600084815260c9835260408082206001600160a01b038e168352909352919091205490915081811015610ed75760405162461bcd60e51b815260040161052f90612ddc565b600083815260c9602090815260408083206001600160a01b038e8116855292528083208585039055908b16825281208054849290610f16908490612d51565b9250508190555050505080610f2a90612c66565b9050610e4b565b50846001600160a01b0316866001600160a01b0316826001600160a01b03167f4a39dc06d4c0dbc64b70af90fd698a233a518aa5d07e595d983b8c0526c8f7fb8787604051610f81929190612d69565b60405180910390a461099581878787878761185d565b610a6881336119b8565b610fab8282611a1c565b60008281526097602052604090206107049082611aa2565b610fcd8282611ab7565b60008281526097602052604090206107049082611b1e565b61015f5460ff1661102f5760405162461bcd60e51b815260206004820152601460248201527314185d5cd8589b194e881b9bdd081c185d5cd95960621b604482015260640161052f565b61015f805460ff191690557f5db9ee0a495bf2e6ff9c91a7834c1ba4fdd244a5e8aa4e537bd38aeae4b073aa335b6040516001600160a01b03909116815260200160405180910390a1565b6001600160a01b0383166110a05760405162461bcd60e51b815260040161052f90612e26565b80518251146110c15760405162461bcd60e51b815260040161052f90612d09565b60003390506110e481856000868660405180602001604052806000815250611219565b60005b83518110156111ac57600084828151811061110457611104612c3a565b60200260200101519050600084838151811061112257611122612c3a565b602090810291909101810151600084815260c9835260408082206001600160a01b038c1683529093529190912054909150818110156111735760405162461bcd60e51b815260040161052f90612e69565b600092835260c9602090815260408085206001600160a01b038b16865290915290922091039055806111a481612c66565b9150506110e7565b5060006001600160a01b0316846001600160a01b0316826001600160a01b03167f4a39dc06d4c0dbc64b70af90fd698a233a518aa5d07e595d983b8c0526c8f7fb86866040516111fd929190612d69565b60405180910390a4604080516020810190915260009052610642565b6040517f52316ab8e8b0687ce803e403dfe429541bccd4f6c4683ec65d254d382f15a26590600090a1610995868686868686611b33565b6001600160a01b0384166112765760405162461bcd60e51b815260040161052f90612cc8565b33600061128285611bb3565b9050600061128f85611bb3565b90506112a083600089858589611219565b600086815260c9602090815260408083206001600160a01b038b168452909152812080548792906112d2908490612d51565b909155505060408051878152602081018790526001600160a01b03808a1692600092918716917fc3d58168c5ae7397731d063d5bbf3d657854427343f4c083240f7aacaa2d0f62910160405180910390a461133283600089898989611bfe565b50505050505050565b60008054610100900460ff1615611382578160ff16600114801561135e5750303b155b61137a5760405162461bcd60e51b815260040161052f90612ead565b506000919050565b60005460ff8084169116106113a95760405162461bcd60e51b815260040161052f90612ead565b506000805460ff191660ff92909216919091179055600190565b919050565b600054610100900460ff166113ef5760405162461bcd60e51b815260040161052f90612efb565b6113f881611cb9565b611400611ce9565b61140981611d1d565b610a68611d7f565b61015f5460ff16156114585760405162461bcd60e51b815260206004820152601060248201526f14185d5cd8589b194e881c185d5cd95960821b604482015260640161052f565b61015f805460ff191660011790557f62e78cea01bee320cd4e420270b5ea74000d11b0c9f74754ebdbfc544b05a25861105d3390565b6000610b158383611dd0565b816001600160a01b0316836001600160a01b03160361150d5760405162461bcd60e51b815260206004820152602960248201527f455243313135353a2073657474696e6720617070726f76616c20737461747573604482015268103337b91039b2b63360b91b606482015260840161052f565b6001600160a01b03838116600081815260ca6020908152604080832094871680845294825291829020805460ff191686151590811790915591519182527f17307eab39ab6107e8899845ad3d59bd9653f200f220920489ca2b5937696c31910160405180910390a3505050565b600061055d825490565b6001600160a01b0384166115aa5760405162461bcd60e51b815260040161052f90612d97565b3360006115b685611bb3565b905060006115c385611bb3565b90506115d3838989858589611219565b600086815260c9602090815260408083206001600160a01b038c168452909152902054858110156116165760405162461bcd60e51b815260040161052f90612ddc565b600087815260c9602090815260408083206001600160a01b038d8116855292528083208985039055908a16825281208054889290611655908490612d51565b909155505060408051888152602081018890526001600160a01b03808b16928c821692918816917fc3d58168c5ae7397731d063d5bbf3d657854427343f4c083240f7aacaa2d0f62910160405180910390a46116b5848a8a8a8a8a611bfe565b505050505050505050565b6001600160a01b0383166116e65760405162461bcd60e51b815260040161052f90612e26565b3360006116f284611bb3565b905060006116ff84611bb3565b905061171f83876000858560405180602001604052806000815250611219565b600085815260c9602090815260408083206001600160a01b038a168452909152902054848110156117625760405162461bcd60e51b815260040161052f90612e69565b600086815260c9602090815260408083206001600160a01b038b81168086529184528285208a8703905582518b81529384018a90529092908816917fc3d58168c5ae7397731d063d5bbf3d657854427343f4c083240f7aacaa2d0f62910160405180910390a4604080516020810190915260009052611332565b600054610100900460ff166118035760405162461bcd60e51b815260040161052f90612efb565b61180c81611cb9565b611814611ce9565b610a6881611d1d565b60006001600160e01b03198216636cdb3d1360e11b148061184e57506001600160e01b031982166303a24d0760e21b145b8061055d575061055d82611dfa565b6001600160a01b0384163b156109955760405163bc197c8160e01b81526001600160a01b0385169063bc197c81906118a19089908990889088908890600401612f46565b6020604051808303816000875af19250505080156118dc575060408051601f3d908101601f191682019092526118d991810190612fa4565b60015b611988576118e8612fc1565b806308c379a00361192157506118fc612fdd565b806119075750611923565b8060405162461bcd60e51b815260040161052f91906124ca565b505b60405162461bcd60e51b815260206004820152603460248201527f455243313135353a207472616e7366657220746f206e6f6e20455243313135356044820152732932b1b2b4bb32b91034b6b83632b6b2b73a32b960611b606482015260840161052f565b6001600160e01b0319811663bc197c8160e01b146113325760405162461bcd60e51b815260040161052f90613066565b6119c28282610b1c565b610783576119da816001600160a01b03166014611e1f565b6119e5836020611e1f565b6040516020016119f69291906130ae565b60408051601f198184030181529082905262461bcd60e51b825261052f916004016124ca565b611a268282610b1c565b6107835760008281526065602090815260408083206001600160a01b03851684529091529020805460ff19166001179055611a5e3390565b6001600160a01b0316816001600160a01b0316837f2f8788117e7eff1d82e926ec794901d17c78024a50270940304540a733656f0d60405160405180910390a45050565b6000610b15836001600160a01b038416611fba565b611ac18282610b1c565b156107835760008281526065602090815260408083206001600160a01b0385168085529252808320805460ff1916905551339285917ff6391f5c32d9c69d2a47ea670b442974b53935d1edc7fd64eb21e047a839171b9190a45050565b6000610b15836001600160a01b038416612009565b6001600160a01b03858116151590851615156000611b717fb6eeb50d1ea0d876d560efb18b8017323347ce323ef4b05d5a0322c9c7869f8f8a610b1c565b159050828015611b7e5750815b8015611b875750805b15611ba557604051630175e5a960e41b815260040160405180910390fd5b6116b58989898989896120fc565b60408051600180825281830190925260609160009190602080830190803683370190505090508281600081518110611bed57611bed612c3a565b602090810291909101015292915050565b6001600160a01b0384163b156109955760405163f23a6e6160e01b81526001600160a01b0385169063f23a6e6190611c429089908990889088908890600401613123565b6020604051808303816000875af1925050508015611c7d575060408051601f3d908101601f19168201909252611c7a91810190612fa4565b60015b611c89576118e8612fc1565b6001600160e01b0319811663f23a6e6160e01b146113325760405162461bcd60e51b815260040161052f90613066565b600054610100900460ff16611ce05760405162461bcd60e51b815260040161052f90612efb565b610a688161210a565b600054610100900460ff16611d105760405162461bcd60e51b815260040161052f90612efb565b61015f805460ff19169055565b600054610100900460ff16611d445760405162461bcd60e51b815260040161052f90612efb565b611d4f60003361211d565b611d676000805160206132168339815191523361211d565b610a686000805160206131f68339815191523361211d565b600054610100900460ff16611da65760405162461bcd60e51b815260040161052f90612efb565b6108197fb6eeb50d1ea0d876d560efb18b8017323347ce323ef4b05d5a0322c9c7869f8f33610fa1565b6000826000018281548110611de757611de7612c3a565b9060005260206000200154905092915050565b60006001600160e01b03198216635a05180f60e01b148061055d575061055d82612127565b60606000611e2e836002613168565b611e39906002612d51565b6001600160401b03811115611e5057611e506124dd565b6040519080825280601f01601f191660200182016040528015611e7a576020820181803683370190505b509050600360fc1b81600081518110611e9557611e95612c3a565b60200101906001600160f81b031916908160001a905350600f60fb1b81600181518110611ec457611ec4612c3a565b60200101906001600160f81b031916908160001a9053506000611ee8846002613168565b611ef3906001612d51565b90505b6001811115611f6b576f181899199a1a9b1b9c1cb0b131b232b360811b85600f1660108110611f2757611f27612c3a565b1a60f81b828281518110611f3d57611f3d612c3a565b60200101906001600160f81b031916908160001a90535060049490941c93611f6481613187565b9050611ef6565b508315610b155760405162461bcd60e51b815260206004820181905260248201527f537472696e67733a20686578206c656e67746820696e73756666696369656e74604482015260640161052f565b60008181526001830160205260408120546120015750815460018181018455600084815260208082209093018490558454848252828601909352604090209190915561055d565b50600061055d565b600081815260018301602052604081205480156120f257600061202d60018361319e565b85549091506000906120419060019061319e565b90508181146120a657600086600001828154811061206157612061612c3a565b906000526020600020015490508087600001848154811061208457612084612c3a565b6000918252602080832090910192909255918252600188019052604090208390555b85548690806120b7576120b76131b5565b60019003818190600052602060002001600090559055856001016000868152602001908152602001600020600090556001935050505061055d565b600091505061055d565b61099586868686868661215c565b80516107839060cb90602084019061234c565b6107838282610fa1565b60006001600160e01b03198216637965db0b60e01b148061055d57506301ffc9a760e01b6001600160e01b031983161461055d565b61216a8686868686866121d3565b61015f5460ff16156109955760405162461bcd60e51b815260206004820152602c60248201527f455243313135355061757361626c653a20746f6b656e207472616e736665722060448201526b1dda1a5b19481c185d5cd95960a21b606482015260840161052f565b6001600160a01b03851661225a5760005b8351811015612258578281815181106121ff576121ff612c3a565b602002602001015160fb600086848151811061221d5761221d612c3a565b6020026020010151815260200190815260200160002060008282546122429190612d51565b90915550612251905081612c66565b90506121e4565b505b6001600160a01b0384166109955760005b835181101561133257600084828151811061228857612288612c3a565b6020026020010151905060008483815181106122a6576122a6612c3a565b60200260200101519050600060fb6000848152602001908152602001600020549050818110156123295760405162461bcd60e51b815260206004820152602860248201527f455243313135353a206275726e20616d6f756e74206578636565647320746f74604482015267616c537570706c7960c01b606482015260840161052f565b600092835260fb60205260409092209103905561234581612c66565b905061226b565b82805461235890612ba3565b90600052602060002090601f01602090048101928261237a57600085556123c0565b82601f1061239357805160ff19168380011785556123c0565b828001600101855582156123c0579182015b828111156123c05782518255916020019190600101906123a5565b506123cc9291506123d0565b5090565b5b808211156123cc57600081556001016123d1565b80356001600160a01b03811681146113c357600080fd5b6000806040838503121561240f57600080fd5b612418836123e5565b946020939093013593505050565b6001600160e01b031981168114610a6857600080fd5b60006020828403121561244e57600080fd5b8135610b1581612426565b60006020828403121561246b57600080fd5b5035919050565b60005b8381101561248d578181015183820152602001612475565b838111156106425750506000910152565b600081518084526124b6816020860160208601612472565b601f01601f19169290920160200192915050565b602081526000610b15602083018461249e565b634e487b7160e01b600052604160045260246000fd5b601f8201601f191681016001600160401b0381118282101715612518576125186124dd565b6040525050565b60006001600160401b03821115612538576125386124dd565b5060051b60200190565b600082601f83011261255357600080fd5b813560206125608261251f565b60405161256d82826124f3565b83815260059390931b850182019282810191508684111561258d57600080fd5b8286015b848110156125a85780358352918301918301612591565b509695505050505050565b60006001600160401b038311156125cc576125cc6124dd565b6040516125e3601f8501601f1916602001826124f3565b8091508381528484840111156125f857600080fd5b83836020830137600060208583010152509392505050565b600082601f83011261262157600080fd5b610b15838335602085016125b3565b6000806000806080858703121561264657600080fd5b61264f856123e5565b935060208501356001600160401b038082111561266b57600080fd5b61267788838901612542565b9450604087013591508082111561268d57600080fd5b61269988838901612542565b935060608701359150808211156126af57600080fd5b506126bc87828801612610565b91505092959194509250565b600080600080600060a086880312156126e057600080fd5b6126e9866123e5565b94506126f7602087016123e5565b935060408601356001600160401b038082111561271357600080fd5b61271f89838a01612542565b9450606088013591508082111561273557600080fd5b61274189838a01612542565b9350608088013591508082111561275757600080fd5b5061276488828901612610565b9150509295509295909350565b6000806040838503121561278457600080fd5b82359150612794602084016123e5565b90509250929050565b600080604083850312156127b057600080fd5b82356001600160401b03808211156127c757600080fd5b818501915085601f8301126127db57600080fd5b813560206127e88261251f565b6040516127f582826124f3565b83815260059390931b850182019282810191508984111561281557600080fd5b948201945b8386101561283a5761282b866123e5565b8252948201949082019061281a565b9650508601359250508082111561285057600080fd5b5061285d85828601612542565b9150509250929050565b600081518084526020808501945080840160005b838110156128975781518752958201959082019060010161287b565b509495945050505050565b602081526000610b156020830184612867565b6000806000606084860312156128ca57600080fd5b6128d3846123e5565b925060208401356001600160401b03808211156128ef57600080fd5b6128fb87838801612542565b9350604086013591508082111561291157600080fd5b5061291e86828701612542565b9150509250925092565b60008060008060008060c0878903121561294157600080fd5b61294a876123e5565b9550612958602088016123e5565b9450612966604088016123e5565b935060608701356001600160401b038082111561298257600080fd5b61298e8a838b01612542565b945060808901359150808211156129a457600080fd5b6129b08a838b01612542565b935060a08901359150808211156129c657600080fd5b506129d389828a01612610565b9150509295509295509295565b600080600080608085870312156129f657600080fd5b6129ff856123e5565b9350602085013592506040850135915060608501356001600160401b03811115612a2857600080fd5b6126bc87828801612610565b60008060408385031215612a4757600080fd5b50508035926020909101359150565b60008060408385031215612a6957600080fd5b612a72836123e5565b915060208301358015158114612a8757600080fd5b809150509250929050565b60008060408385031215612aa557600080fd5b612aae836123e5565b9150612794602084016123e5565b600080600080600060a08688031215612ad457600080fd5b612add866123e5565b9450612aeb602087016123e5565b9350604086013592506060860135915060808601356001600160401b03811115612b1457600080fd5b61276488828901612610565b600080600060608486031215612b3557600080fd5b612b3e846123e5565b95602085013595506040909401359392505050565b600060208284031215612b6557600080fd5b81356001600160401b03811115612b7b57600080fd5b8201601f81018413612b8c57600080fd5b612b9b848235602084016125b3565b949350505050565b600181811c90821680612bb757607f821691505b602082108103612bd757634e487b7160e01b600052602260045260246000fd5b50919050565b60208082526038908201527f455243313135355072657365744d696e7465725061757365723a206d7573742060408201527f68617665206d696e74657220726f6c6520746f206d696e740000000000000000606082015260800190565b634e487b7160e01b600052603260045260246000fd5b634e487b7160e01b600052601160045260246000fd5b600060018201612c7857612c78612c50565b5060010190565b60208082526029908201527f455243313135353a2063616c6c6572206973206e6f74206f776e6572206e6f7260408201526808185c1c1c9bdd995960ba1b606082015260800190565b60208082526021908201527f455243313135353a206d696e7420746f20746865207a65726f206164647265736040820152607360f81b606082015260800190565b60208082526028908201527f455243313135353a2069647320616e6420616d6f756e7473206c656e677468206040820152670dad2e6dac2e8c6d60c31b606082015260800190565b60008219821115612d6457612d64612c50565b500190565b604081526000612d7c6040830185612867565b8281036020840152612d8e8185612867565b95945050505050565b60208082526025908201527f455243313135353a207472616e7366657220746f20746865207a65726f206164604082015264647265737360d81b606082015260800190565b6020808252602a908201527f455243313135353a20696e73756666696369656e742062616c616e636520666f60408201526939103a3930b739b332b960b11b606082015260800190565b60208082526023908201527f455243313135353a206275726e2066726f6d20746865207a65726f206164647260408201526265737360e81b606082015260800190565b60208082526024908201527f455243313135353a206275726e20616d6f756e7420657863656564732062616c604082015263616e636560e01b606082015260800190565b6020808252602e908201527f496e697469616c697a61626c653a20636f6e747261637420697320616c72656160408201526d191e481a5b9a5d1a585b1a5e995960921b606082015260800190565b6020808252602b908201527f496e697469616c697a61626c653a20636f6e7472616374206973206e6f74206960408201526a6e697469616c697a696e6760a81b606082015260800190565b6001600160a01b0386811682528516602082015260a060408201819052600090612f7290830186612867565b8281036060840152612f848186612867565b90508281036080840152612f98818561249e565b98975050505050505050565b600060208284031215612fb657600080fd5b8151610b1581612426565b600060033d1115612fda5760046000803e5060005160e01c5b90565b600060443d1015612feb5790565b6040516003193d81016004833e81513d6001600160401b03816024840111818411171561301a57505050505090565b82850191508151818111156130325750505050505090565b843d870101602082850101111561304c5750505050505090565b61305b602082860101876124f3565b509095945050505050565b60208082526028908201527f455243313135353a204552433131353552656365697665722072656a656374656040820152676420746f6b656e7360c01b606082015260800190565b7f416363657373436f6e74726f6c3a206163636f756e74200000000000000000008152600083516130e6816017850160208801612472565b7001034b99036b4b9b9b4b733903937b6329607d1b6017918401918201528351613117816028840160208801612472565b01602801949350505050565b6001600160a01b03868116825285166020820152604081018490526060810183905260a06080820181905260009061315d9083018461249e565b979650505050505050565b600081600019048311821515161561318257613182612c50565b500290565b60008161319657613196612c50565b506000190190565b6000828210156131b0576131b0612c50565b500390565b634e487b7160e01b600052603160045260246000fdfe68747470733a2f2f6e6f72692e636f6d2f6170692f63657274696669636174652f7b69647d2e6a736f6e65d7a28e3265b37a6474929f336521b332c1681b933f6cb9f3376673440d862a9f2df0fed2c77648de5860a4cc508cd0818c85b8b8a1ab4ceeef8d981c8956a6a2646970667358221220354a94d428e7ccd8fd2a1a62d7051cfec910708492559e3e11e12ed50a9b211064736f6c634300080d0033",
  "linkReferences": {},
  "deployedLinkReferences": {}
}