{
  "_format": "hh-sol-artifact-1",
  "contractName": "MockERC1155PresetPausableNonTransferrable",
  "sourceName": "contracts/mocks/MockERC1155PresetPausableNonTransferrable.sol",
  "abi": [
    {
      "inputs": [],
      "name": "ForbiddenTransferAfterMinting",
      "type": "error"
    },
    {
      "anonymous": false,
      "inputs": [
        {
          "indexed": true,
          "internalType": "address",
          "name": "account",
          "type": "address"
        },
        {
          "indexed": true,
          "internalType": "address",
          "name": "operator",
          "type": "address"
        },
        {
          "indexed": false,
          "internalType": "bool",
          "name": "approved",
          "type": "bool"
        }
      ],
      "name": "ApprovalForAll",
      "type": "event"
    },
    {
      "anonymous": false,
      "inputs": [],
      "name": "BeforeTokenTransfer",
      "type": "event"
    },
    {
      "anonymous": false,
      "inputs": [
        {
          "indexed": false,
          "internalType": "uint8",
          "name": "version",
          "type": "uint8"
        }
      ],
      "name": "Initialized",
      "type": "event"
    },
    {
      "anonymous": false,
      "inputs": [
        {
          "indexed": false,
          "internalType": "address",
          "name": "account",
          "type": "address"
        }
      ],
      "name": "Paused",
      "type": "event"
    },
    {
      "anonymous": false,
      "inputs": [
        {
          "indexed": true,
          "internalType": "bytes32",
          "name": "role",
          "type": "bytes32"
        },
        {
          "indexed": true,
          "internalType": "bytes32",
          "name": "previousAdminRole",
          "type": "bytes32"
        },
        {
          "indexed": true,
          "internalType": "bytes32",
          "name": "newAdminRole",
          "type": "bytes32"
        }
      ],
      "name": "RoleAdminChanged",
      "type": "event"
    },
    {
      "anonymous": false,
      "inputs": [
        {
          "indexed": true,
          "internalType": "bytes32",
          "name": "role",
          "type": "bytes32"
        },
        {
          "indexed": true,
          "internalType": "address",
          "name": "account",
          "type": "address"
        },
        {
          "indexed": true,
          "internalType": "address",
          "name": "sender",
          "type": "address"
        }
      ],
      "name": "RoleGranted",
      "type": "event"
    },
    {
      "anonymous": false,
      "inputs": [
        {
          "indexed": true,
          "internalType": "bytes32",
          "name": "role",
          "type": "bytes32"
        },
        {
          "indexed": true,
          "internalType": "address",
          "name": "account",
          "type": "address"
        },
        {
          "indexed": true,
          "internalType": "address",
          "name": "sender",
          "type": "address"
        }
      ],
      "name": "RoleRevoked",
      "type": "event"
    },
    {
      "anonymous": false,
      "inputs": [
        {
          "indexed": true,
          "internalType": "address",
          "name": "operator",
          "type": "address"
        },
        {
          "indexed": true,
          "internalType": "address",
          "name": "from",
          "type": "address"
        },
        {
          "indexed": true,
          "internalType": "address",
          "name": "to",
          "type": "address"
        },
        {
          "indexed": false,
          "internalType": "uint256[]",
          "name": "ids",
          "type": "uint256[]"
        },
        {
          "indexed": false,
          "internalType": "uint256[]",
          "name": "values",
          "type": "uint256[]"
        }
      ],
      "name": "TransferBatch",
      "type": "event"
    },
    {
      "anonymous": false,
      "inputs": [
        {
          "indexed": true,
          "internalType": "address",
          "name": "operator",
          "type": "address"
        },
        {
          "indexed": true,
          "internalType": "address",
          "name": "from",
          "type": "address"
        },
        {
          "indexed": true,
          "internalType": "address",
          "name": "to",
          "type": "address"
        },
        {
          "indexed": false,
          "internalType": "uint256",
          "name": "id",
          "type": "uint256"
        },
        {
          "indexed": false,
          "internalType": "uint256",
          "name": "value",
          "type": "uint256"
        }
      ],
      "name": "TransferSingle",
      "type": "event"
    },
    {
      "anonymous": false,
      "inputs": [
        {
          "indexed": false,
          "internalType": "string",
          "name": "value",
          "type": "string"
        },
        {
          "indexed": true,
          "internalType": "uint256",
          "name": "id",
          "type": "uint256"
        }
      ],
      "name": "URI",
      "type": "event"
    },
    {
      "anonymous": false,
      "inputs": [
        {
          "indexed": false,
          "internalType": "address",
          "name": "account",
          "type": "address"
        }
      ],
      "name": "Unpaused",
      "type": "event"
    },
    {
      "inputs": [],
      "name": "CERTIFICATE_OPERATOR_ROLE",
      "outputs": [
        {
          "internalType": "bytes32",
          "name": "",
          "type": "bytes32"
        }
      ],
      "stateMutability": "view",
      "type": "function"
    },
    {
      "inputs": [],
      "name": "DEFAULT_ADMIN_ROLE",
      "outputs": [
        {
          "internalType": "bytes32",
          "name": "",
          "type": "bytes32"
        }
      ],
      "stateMutability": "view",
      "type": "function"
    },
    {
      "inputs": [],
      "name": "MINTER_ROLE",
      "outputs": [
        {
          "internalType": "bytes32",
          "name": "",
          "type": "bytes32"
        }
      ],
      "stateMutability": "view",
      "type": "function"
    },
    {
      "inputs": [],
      "name": "PAUSER_ROLE",
      "outputs": [
        {
          "internalType": "bytes32",
          "name": "",
          "type": "bytes32"
        }
      ],
      "stateMutability": "view",
      "type": "function"
    },
    {
      "inputs": [
        {
          "internalType": "address",
          "name": "operator",
          "type": "address"
        },
        {
          "internalType": "address",
          "name": "from",
          "type": "address"
        },
        {
          "internalType": "address",
          "name": "to",
          "type": "address"
        },
        {
          "internalType": "uint256[]",
          "name": "ids",
          "type": "uint256[]"
        },
        {
          "internalType": "uint256[]",
          "name": "amounts",
          "type": "uint256[]"
        },
        {
          "internalType": "bytes",
          "name": "data",
          "type": "bytes"
        }
      ],
      "name": "_test_beforeTokenTransfer",
      "outputs": [],
      "stateMutability": "nonpayable",
      "type": "function"
    },
    {
      "inputs": [
        {
          "internalType": "address",
          "name": "account",
          "type": "address"
        },
        {
          "internalType": "uint256",
          "name": "id",
          "type": "uint256"
        }
      ],
      "name": "balanceOf",
      "outputs": [
        {
          "internalType": "uint256",
          "name": "",
          "type": "uint256"
        }
      ],
      "stateMutability": "view",
      "type": "function"
    },
    {
      "inputs": [
        {
          "internalType": "address[]",
          "name": "accounts",
          "type": "address[]"
        },
        {
          "internalType": "uint256[]",
          "name": "ids",
          "type": "uint256[]"
        }
      ],
      "name": "balanceOfBatch",
      "outputs": [
        {
          "internalType": "uint256[]",
          "name": "",
          "type": "uint256[]"
        }
      ],
      "stateMutability": "view",
      "type": "function"
    },
    {
      "inputs": [
        {
          "internalType": "address",
          "name": "account",
          "type": "address"
        },
        {
          "internalType": "uint256",
          "name": "id",
          "type": "uint256"
        },
        {
          "internalType": "uint256",
          "name": "value",
          "type": "uint256"
        }
      ],
      "name": "burn",
      "outputs": [],
      "stateMutability": "nonpayable",
      "type": "function"
    },
    {
      "inputs": [
        {
          "internalType": "address",
          "name": "account",
          "type": "address"
        },
        {
          "internalType": "uint256[]",
          "name": "ids",
          "type": "uint256[]"
        },
        {
          "internalType": "uint256[]",
          "name": "values",
          "type": "uint256[]"
        }
      ],
      "name": "burnBatch",
      "outputs": [],
      "stateMutability": "nonpayable",
      "type": "function"
    },
    {
      "inputs": [
        {
          "internalType": "uint256",
          "name": "id",
          "type": "uint256"
        }
      ],
      "name": "exists",
      "outputs": [
        {
          "internalType": "bool",
          "name": "",
          "type": "bool"
        }
      ],
      "stateMutability": "view",
      "type": "function"
    },
    {
      "inputs": [
        {
          "internalType": "bytes32",
          "name": "role",
          "type": "bytes32"
        }
      ],
      "name": "getRoleAdmin",
      "outputs": [
        {
          "internalType": "bytes32",
          "name": "",
          "type": "bytes32"
        }
      ],
      "stateMutability": "view",
      "type": "function"
    },
    {
      "inputs": [
        {
          "internalType": "bytes32",
          "name": "role",
          "type": "bytes32"
        },
        {
          "internalType": "uint256",
          "name": "index",
          "type": "uint256"
        }
      ],
      "name": "getRoleMember",
      "outputs": [
        {
          "internalType": "address",
          "name": "",
          "type": "address"
        }
      ],
      "stateMutability": "view",
      "type": "function"
    },
    {
      "inputs": [
        {
          "internalType": "bytes32",
          "name": "role",
          "type": "bytes32"
        }
      ],
      "name": "getRoleMemberCount",
      "outputs": [
        {
          "internalType": "uint256",
          "name": "",
          "type": "uint256"
        }
      ],
      "stateMutability": "view",
      "type": "function"
    },
    {
      "inputs": [
        {
          "internalType": "bytes32",
          "name": "role",
          "type": "bytes32"
        },
        {
          "internalType": "address",
          "name": "account",
          "type": "address"
        }
      ],
      "name": "grantRole",
      "outputs": [],
      "stateMutability": "nonpayable",
      "type": "function"
    },
    {
      "inputs": [
        {
          "internalType": "bytes32",
          "name": "role",
          "type": "bytes32"
        },
        {
          "internalType": "address",
          "name": "account",
          "type": "address"
        }
      ],
      "name": "hasRole",
      "outputs": [
        {
          "internalType": "bool",
          "name": "",
          "type": "bool"
        }
      ],
      "stateMutability": "view",
      "type": "function"
    },
    {
      "inputs": [],
      "name": "initialize",
      "outputs": [],
      "stateMutability": "nonpayable",
      "type": "function"
    },
    {
      "inputs": [
        {
          "internalType": "string",
          "name": "uri",
          "type": "string"
        }
      ],
      "name": "initialize",
      "outputs": [],
      "stateMutability": "nonpayable",
      "type": "function"
    },
    {
      "inputs": [
        {
          "internalType": "address",
          "name": "account",
          "type": "address"
        },
        {
          "internalType": "address",
          "name": "operator",
          "type": "address"
        }
      ],
      "name": "isApprovedForAll",
      "outputs": [
        {
          "internalType": "bool",
          "name": "",
          "type": "bool"
        }
      ],
      "stateMutability": "view",
      "type": "function"
    },
    {
      "inputs": [
        {
          "internalType": "address",
          "name": "to",
          "type": "address"
        },
        {
          "internalType": "uint256",
          "name": "id",
          "type": "uint256"
        },
        {
          "internalType": "uint256",
          "name": "amount",
          "type": "uint256"
        },
        {
          "internalType": "bytes",
          "name": "data",
          "type": "bytes"
        }
      ],
      "name": "mint",
      "outputs": [],
      "stateMutability": "nonpayable",
      "type": "function"
    },
    {
      "inputs": [
        {
          "internalType": "address",
          "name": "to",
          "type": "address"
        },
        {
          "internalType": "uint256[]",
          "name": "ids",
          "type": "uint256[]"
        },
        {
          "internalType": "uint256[]",
          "name": "amounts",
          "type": "uint256[]"
        },
        {
          "internalType": "bytes",
          "name": "data",
          "type": "bytes"
        }
      ],
      "name": "mintBatch",
      "outputs": [],
      "stateMutability": "nonpayable",
      "type": "function"
    },
    {
      "inputs": [],
      "name": "pause",
      "outputs": [],
      "stateMutability": "nonpayable",
      "type": "function"
    },
    {
      "inputs": [],
      "name": "paused",
      "outputs": [
        {
          "internalType": "bool",
          "name": "",
          "type": "bool"
        }
      ],
      "stateMutability": "view",
      "type": "function"
    },
    {
      "inputs": [
        {
          "internalType": "bytes32",
          "name": "role",
          "type": "bytes32"
        },
        {
          "internalType": "address",
          "name": "account",
          "type": "address"
        }
      ],
      "name": "renounceRole",
      "outputs": [],
      "stateMutability": "nonpayable",
      "type": "function"
    },
    {
      "inputs": [
        {
          "internalType": "bytes32",
          "name": "role",
          "type": "bytes32"
        },
        {
          "internalType": "address",
          "name": "account",
          "type": "address"
        }
      ],
      "name": "revokeRole",
      "outputs": [],
      "stateMutability": "nonpayable",
      "type": "function"
    },
    {
      "inputs": [
        {
          "internalType": "address",
          "name": "from",
          "type": "address"
        },
        {
          "internalType": "address",
          "name": "to",
          "type": "address"
        },
        {
          "internalType": "uint256[]",
          "name": "ids",
          "type": "uint256[]"
        },
        {
          "internalType": "uint256[]",
          "name": "amounts",
          "type": "uint256[]"
        },
        {
          "internalType": "bytes",
          "name": "data",
          "type": "bytes"
        }
      ],
      "name": "safeBatchTransferFrom",
      "outputs": [],
      "stateMutability": "nonpayable",
      "type": "function"
    },
    {
      "inputs": [
        {
          "internalType": "address",
          "name": "from",
          "type": "address"
        },
        {
          "internalType": "address",
          "name": "to",
          "type": "address"
        },
        {
          "internalType": "uint256",
          "name": "id",
          "type": "uint256"
        },
        {
          "internalType": "uint256",
          "name": "amount",
          "type": "uint256"
        },
        {
          "internalType": "bytes",
          "name": "data",
          "type": "bytes"
        }
      ],
      "name": "safeTransferFrom",
      "outputs": [],
      "stateMutability": "nonpayable",
      "type": "function"
    },
    {
      "inputs": [
        {
          "internalType": "address",
          "name": "operator",
          "type": "address"
        },
        {
          "internalType": "bool",
          "name": "approved",
          "type": "bool"
        }
      ],
      "name": "setApprovalForAll",
      "outputs": [],
      "stateMutability": "nonpayable",
      "type": "function"
    },
    {
      "inputs": [
        {
          "internalType": "bytes4",
          "name": "interfaceId",
          "type": "bytes4"
        }
      ],
      "name": "supportsInterface",
      "outputs": [
        {
          "internalType": "bool",
          "name": "",
          "type": "bool"
        }
      ],
      "stateMutability": "view",
      "type": "function"
    },
    {
      "inputs": [
        {
          "internalType": "uint256",
          "name": "id",
          "type": "uint256"
        }
      ],
      "name": "totalSupply",
      "outputs": [
        {
          "internalType": "uint256",
          "name": "",
          "type": "uint256"
        }
      ],
      "stateMutability": "view",
      "type": "function"
    },
    {
      "inputs": [],
      "name": "unpause",
      "outputs": [],
      "stateMutability": "nonpayable",
      "type": "function"
    },
    {
      "inputs": [
        {
          "internalType": "uint256",
          "name": "",
          "type": "uint256"
        }
      ],
      "name": "uri",
      "outputs": [
        {
          "internalType": "string",
          "name": "",
          "type": "string"
        }
      ],
      "stateMutability": "view",
      "type": "function"
    }
  ],
  "bytecode": "0x608060405234801561001057600080fd5b50615ccc80620000216000396000f3fe608060405234801561001057600080fd5b50600436106101e45760003560e01c8063731133e91161010f578063ca15c873116100a2578063e985e9c511610071578063e985e9c514610579578063f242432a146105a9578063f5298aca146105c5578063f62d1888146105e1576101e4565b8063ca15c873146104f1578063d539139314610521578063d547741f1461053f578063e63ab1e91461055b576101e4565b806391d14854116100de57806391d1485414610457578063a217fddf14610487578063a22cb465146104a5578063bd85b039146104c1576101e4565b8063731133e9146103f75780638129fc1c146104135780638456cb591461041d5780639010d07c14610427576101e4565b80632f2ff15d116101875780634f558e79116101565780634f558e79146103715780635c975abb146103a15780636b20c454146103bf5780636cb7f39c146103db576101e4565b80632f2ff15d146102ff57806336568abe1461031b5780633f4ba83a146103375780634e1273f414610341576101e4565b80631f7fdffa116101c35780631f7fdffa14610279578063248a9ca31461029557806326c6da4f146102c55780632eb2c2d6146102e3576101e4565b8062fdd58e146101e957806301ffc9a7146102195780630e89341c14610249575b600080fd5b61020360048036038101906101fe9190613930565b6105fd565b604051610210919061397f565b60405180910390f35b610233600480360381019061022e91906139f2565b6106c6565b6040516102409190613a3a565b60405180910390f35b610263600480360381019061025e9190613a55565b6106d8565b6040516102709190613b1b565b60405180910390f35b610293600480360381019061028e9190613d3a565b61076c565b005b6102af60048036038101906102aa9190613e2b565b6107ee565b6040516102bc9190613e67565b60405180910390f35b6102cd61080e565b6040516102da9190613e67565b60405180910390f35b6102fd60048036038101906102f89190613e82565b610832565b005b61031960048036038101906103149190613f51565b6108d3565b005b61033560048036038101906103309190613f51565b6108f4565b005b61033f610977565b005b61035b60048036038101906103569190614054565b6109f1565b604051610368919061418a565b60405180910390f35b61038b60048036038101906103869190613a55565b610b0a565b6040516103989190613a3a565b60405180910390f35b6103a9610b1e565b6040516103b69190613a3a565b60405180910390f35b6103d960048036038101906103d491906141ac565b610b36565b005b6103f560048036038101906103f09190614237565b610bd3565b005b610411600480360381019061040c9190614318565b610be9565b005b61041b610c6b565b005b610425610d18565b005b610441600480360381019061043c919061439b565b610d92565b60405161044e91906143ea565b60405180910390f35b610471600480360381019061046c9190613f51565b610dc1565b60405161047e9190613a3a565b60405180910390f35b61048f610e2c565b60405161049c9190613e67565b60405180910390f35b6104bf60048036038101906104ba9190614431565b610e33565b005b6104db60048036038101906104d69190613a55565b610e49565b6040516104e8919061397f565b60405180910390f35b61050b60048036038101906105069190613e2b565b610e66565b604051610518919061397f565b60405180910390f35b610529610e8a565b6040516105369190613e67565b60405180910390f35b61055960048036038101906105549190613f51565b610eae565b005b610563610ecf565b6040516105709190613e67565b60405180910390f35b610593600480360381019061058e9190614471565b610ef3565b6040516105a09190613a3a565b60405180910390f35b6105c360048036038101906105be91906144b1565b610f87565b005b6105df60048036038101906105da9190614548565b611028565b005b6105fb60048036038101906105f6919061463c565b6110c5565b005b60008073ffffffffffffffffffffffffffffffffffffffff168373ffffffffffffffffffffffffffffffffffffffff160361066d576040517f08c379a0000000000000000000000000000000000000000000000000000000008152600401610664906146f7565b60405180910390fd5b60c9600083815260200190815260200160002060008473ffffffffffffffffffffffffffffffffffffffff1673ffffffffffffffffffffffffffffffffffffffff16815260200190815260200160002054905092915050565b60006106d18261115b565b9050919050565b606060cb80546106e790614746565b80601f016020809104026020016040519081016040528092919081815260200182805461071390614746565b80156107605780601f1061073557610100808354040283529160200191610760565b820191906000526020600020905b81548152906001019060200180831161074357829003601f168201915b50505050509050919050565b61079d7f9f2df0fed2c77648de5860a4cc508cd0818c85b8b8a1ab4ceeef8d981c8956a661079861116d565b610dc1565b6107dc576040517f08c379a00000000000000000000000000000000000000000000000000000000081526004016107d3906147e9565b60405180910390fd5b6107e884848484611175565b50505050565b600060656000838152602001908152602001600020600101549050919050565b7fb6eeb50d1ea0d876d560efb18b8017323347ce323ef4b05d5a0322c9c7869f8f81565b61083a61116d565b73ffffffffffffffffffffffffffffffffffffffff168573ffffffffffffffffffffffffffffffffffffffff161480610880575061087f8561087a61116d565b610ef3565b5b6108bf576040517f08c379a00000000000000000000000000000000000000000000000000000000081526004016108b69061487b565b60405180910390fd5b6108cc85858585856113a2565b5050505050565b6108dc826107ee565b6108e5816116c6565b6108ef83836116da565b505050565b6108fc61116d565b73ffffffffffffffffffffffffffffffffffffffff168173ffffffffffffffffffffffffffffffffffffffff1614610969576040517f08c379a00000000000000000000000000000000000000000000000000000000081526004016109609061490d565b60405180910390fd5b610973828261170e565b5050565b6109a87f65d7a28e3265b37a6474929f336521b332c1681b933f6cb9f3376673440d862a6109a361116d565b610dc1565b6109e7576040517f08c379a00000000000000000000000000000000000000000000000000000000081526004016109de9061499f565b60405180910390fd5b6109ef611742565b565b60608151835114610a37576040517f08c379a0000000000000000000000000000000000000000000000000000000008152600401610a2e90614a31565b60405180910390fd5b6000835167ffffffffffffffff811115610a5457610a53613b42565b5b604051908082528060200260200182016040528015610a825781602001602082028036833780820191505090505b50905060005b8451811015610aff57610acf858281518110610aa757610aa6614a51565b5b6020026020010151858381518110610ac257610ac1614a51565b5b60200260200101516105fd565b828281518110610ae257610ae1614a51565b5b60200260200101818152505080610af890614aaf565b9050610a88565b508091505092915050565b600080610b1683610e49565b119050919050565b600061015f60009054906101000a900460ff16905090565b610b3e61116d565b73ffffffffffffffffffffffffffffffffffffffff168373ffffffffffffffffffffffffffffffffffffffff161480610b845750610b8383610b7e61116d565b610ef3565b5b610bc3576040517f08c379a0000000000000000000000000000000000000000000000000000000008152600401610bba90614b69565b60405180910390fd5b610bce8383836117e5565b505050565b610be1868686868686611ab5565b505050505050565b610c1a7f9f2df0fed2c77648de5860a4cc508cd0818c85b8b8a1ab4ceeef8d981c8956a6610c1561116d565b610dc1565b610c59576040517f08c379a0000000000000000000000000000000000000000000000000000000008152600401610c50906147e9565b60405180910390fd5b610c6584848484611af7565b50505050565b6000610c776001611ca8565b90508015610c9b576001600060016101000a81548160ff0219169083151502179055505b610cbc6040518060600160405280602a8152602001615c6d602a9139611d98565b8015610d155760008060016101000a81548160ff0219169083151502179055507f7f26b83ff96e1f2b6a682f133852f6798a09c465da95921460cefb38474024986001604051610d0c9190614bdb565b60405180910390a15b50565b610d497f65d7a28e3265b37a6474929f336521b332c1681b933f6cb9f3376673440d862a610d4461116d565b610dc1565b610d88576040517f08c379a0000000000000000000000000000000000000000000000000000000008152600401610d7f90614c68565b60405180910390fd5b610d90611e0c565b565b6000610db98260976000868152602001908152602001600020611eb090919063ffffffff16565b905092915050565b60006065600084815260200190815260200160002060000160008373ffffffffffffffffffffffffffffffffffffffff1673ffffffffffffffffffffffffffffffffffffffff16815260200190815260200160002060009054906101000a900460ff16905092915050565b6000801b81565b610e45610e3e61116d565b8383611eca565b5050565b600060fb6000838152602001908152602001600020549050919050565b6000610e8360976000848152602001908152602001600020612036565b9050919050565b7f9f2df0fed2c77648de5860a4cc508cd0818c85b8b8a1ab4ceeef8d981c8956a681565b610eb7826107ee565b610ec0816116c6565b610eca838361170e565b505050565b7f65d7a28e3265b37a6474929f336521b332c1681b933f6cb9f3376673440d862a81565b600060ca60008473ffffffffffffffffffffffffffffffffffffffff1673ffffffffffffffffffffffffffffffffffffffff16815260200190815260200160002060008373ffffffffffffffffffffffffffffffffffffffff1673ffffffffffffffffffffffffffffffffffffffff16815260200190815260200160002060009054906101000a900460ff16905092915050565b610f8f61116d565b73ffffffffffffffffffffffffffffffffffffffff168573ffffffffffffffffffffffffffffffffffffffff161480610fd55750610fd485610fcf61116d565b610ef3565b5b611014576040517f08c379a000000000000000000000000000000000000000000000000000000000815260040161100b90614b69565b60405180910390fd5b611021858585858561204b565b5050505050565b61103061116d565b73ffffffffffffffffffffffffffffffffffffffff168373ffffffffffffffffffffffffffffffffffffffff16148061107657506110758361107061116d565b610ef3565b5b6110b5576040517f08c379a00000000000000000000000000000000000000000000000000000000081526004016110ac90614b69565b60405180910390fd5b6110c08383836122e9565b505050565b60006110d16001611ca8565b905080156110f5576001600060016101000a81548160ff0219169083151502179055505b6110fe82612531565b80156111575760008060016101000a81548160ff0219169083151502179055507f7f26b83ff96e1f2b6a682f133852f6798a09c465da95921460cefb3847402498600160405161114e9190614bdb565b60405180910390a15b5050565b60006111668261259d565b9050919050565b600033905090565b600073ffffffffffffffffffffffffffffffffffffffff168473ffffffffffffffffffffffffffffffffffffffff16036111e4576040517f08c379a00000000000000000000000000000000000000000000000000000000081526004016111db90614cfa565b60405180910390fd5b8151835114611228576040517f08c379a000000000000000000000000000000000000000000000000000000000815260040161121f90614d8c565b60405180910390fd5b600061123261116d565b905061124381600087878787611ab5565b60005b84518110156112fd5783818151811061126257611261614a51565b5b602002602001015160c9600087848151811061128157611280614a51565b5b6020026020010151815260200190815260200160002060008873ffffffffffffffffffffffffffffffffffffffff1673ffffffffffffffffffffffffffffffffffffffff16815260200190815260200160002060008282546112e39190614dac565b9250508190555080806112f590614aaf565b915050611246565b508473ffffffffffffffffffffffffffffffffffffffff16600073ffffffffffffffffffffffffffffffffffffffff168273ffffffffffffffffffffffffffffffffffffffff167f4a39dc06d4c0dbc64b70af90fd698a233a518aa5d07e595d983b8c0526c8f7fb8787604051611375929190614e02565b60405180910390a461138c8160008787878761267f565b61139b81600087878787612687565b5050505050565b81518351146113e6576040517f08c379a00000000000000000000000000000000000000000000000000000000081526004016113dd90614d8c565b60405180910390fd5b600073ffffffffffffffffffffffffffffffffffffffff168473ffffffffffffffffffffffffffffffffffffffff1603611455576040517f08c379a000000000000000000000000000000000000000000000000000000000815260040161144c90614eab565b60405180910390fd5b600061145f61116d565b905061146f818787878787611ab5565b60005b84518110156116235760008582815181106114905761148f614a51565b5b6020026020010151905060008583815181106114af576114ae614a51565b5b60200260200101519050600060c9600084815260200190815260200160002060008b73ffffffffffffffffffffffffffffffffffffffff1673ffffffffffffffffffffffffffffffffffffffff16815260200190815260200160002054905081811015611551576040517f08c379a000000000000000000000000000000000000000000000000000000000815260040161154890614f3d565b60405180910390fd5b81810360c9600085815260200190815260200160002060008c73ffffffffffffffffffffffffffffffffffffffff1673ffffffffffffffffffffffffffffffffffffffff168152602001908152602001600020819055508160c9600085815260200190815260200160002060008b73ffffffffffffffffffffffffffffffffffffffff1673ffffffffffffffffffffffffffffffffffffffff16815260200190815260200160002060008282546116089190614dac565b925050819055505050508061161c90614aaf565b9050611472565b508473ffffffffffffffffffffffffffffffffffffffff168673ffffffffffffffffffffffffffffffffffffffff168273ffffffffffffffffffffffffffffffffffffffff167f4a39dc06d4c0dbc64b70af90fd698a233a518aa5d07e595d983b8c0526c8f7fb878760405161169a929190614e02565b60405180910390a46116b081878787878761267f565b6116be818787878787612687565b505050505050565b6116d7816116d261116d565b61285e565b50565b6116e482826128fb565b61170981609760008581526020019081526020016000206129dc90919063ffffffff16565b505050565b6117188282612a0c565b61173d8160976000858152602001908152602001600020612aee90919063ffffffff16565b505050565b61174a610b1e565b611789576040517f08c379a000000000000000000000000000000000000000000000000000000000815260040161178090614fa9565b60405180910390fd5b600061015f60006101000a81548160ff0219169083151502179055507f5db9ee0a495bf2e6ff9c91a7834c1ba4fdd244a5e8aa4e537bd38aeae4b073aa6117ce61116d565b6040516117db91906143ea565b60405180910390a1565b600073ffffffffffffffffffffffffffffffffffffffff168373ffffffffffffffffffffffffffffffffffffffff1603611854576040517f08c379a000000000000000000000000000000000000000000000000000000000815260040161184b9061503b565b60405180910390fd5b8051825114611898576040517f08c379a000000000000000000000000000000000000000000000000000000000815260040161188f90614d8c565b60405180910390fd5b60006118a261116d565b90506118c281856000868660405180602001604052806000815250611ab5565b60005b8351811015611a115760008482815181106118e3576118e2614a51565b5b60200260200101519050600084838151811061190257611901614a51565b5b60200260200101519050600060c9600084815260200190815260200160002060008973ffffffffffffffffffffffffffffffffffffffff1673ffffffffffffffffffffffffffffffffffffffff168152602001908152602001600020549050818110156119a4576040517f08c379a000000000000000000000000000000000000000000000000000000000815260040161199b906150cd565b60405180910390fd5b81810360c9600085815260200190815260200160002060008a73ffffffffffffffffffffffffffffffffffffffff1673ffffffffffffffffffffffffffffffffffffffff168152602001908152602001600020819055505050508080611a0990614aaf565b9150506118c5565b50600073ffffffffffffffffffffffffffffffffffffffff168473ffffffffffffffffffffffffffffffffffffffff168273ffffffffffffffffffffffffffffffffffffffff167f4a39dc06d4c0dbc64b70af90fd698a233a518aa5d07e595d983b8c0526c8f7fb8686604051611a89929190614e02565b60405180910390a4611aaf8185600086866040518060200160405280600081525061267f565b50505050565b7f52316ab8e8b0687ce803e403dfe429541bccd4f6c4683ec65d254d382f15a26560405160405180910390a1611aef868686868686612b1e565b505050505050565b600073ffffffffffffffffffffffffffffffffffffffff168473ffffffffffffffffffffffffffffffffffffffff1603611b66576040517f08c379a0000000000000000000000000000000000000000000000000000000008152600401611b5d90614cfa565b60405180910390fd5b6000611b7061116d565b90506000611b7d85612c18565b90506000611b8a85612c18565b9050611b9b83600089858589611ab5565b8460c9600088815260200190815260200160002060008973ffffffffffffffffffffffffffffffffffffffff1673ffffffffffffffffffffffffffffffffffffffff1681526020019081526020016000206000828254611bfb9190614dac565b925050819055508673ffffffffffffffffffffffffffffffffffffffff16600073ffffffffffffffffffffffffffffffffffffffff168473ffffffffffffffffffffffffffffffffffffffff167fc3d58168c5ae7397731d063d5bbf3d657854427343f4c083240f7aacaa2d0f628989604051611c799291906150ed565b60405180910390a4611c908360008985858961267f565b611c9f83600089898989612c92565b50505050505050565b60008060019054906101000a900460ff1615611d1f5760018260ff16148015611cd75750611cd530612e69565b155b611d16576040517f08c379a0000000000000000000000000000000000000000000000000000000008152600401611d0d90615188565b60405180910390fd5b60009050611d93565b8160ff1660008054906101000a900460ff1660ff1610611d74576040517f08c379a0000000000000000000000000000000000000000000000000000000008152600401611d6b90615188565b60405180910390fd5b816000806101000a81548160ff021916908360ff160217905550600190505b919050565b600060019054906101000a900460ff16611de7576040517f08c379a0000000000000000000000000000000000000000000000000000000008152600401611dde9061521a565b60405180910390fd5b611df081612e8c565b611df8612ee7565b611e0181612f54565b611e0961301c565b50565b611e14610b1e565b15611e54576040517f08c379a0000000000000000000000000000000000000000000000000000000008152600401611e4b90615286565b60405180910390fd5b600161015f60006101000a81548160ff0219169083151502179055507f62e78cea01bee320cd4e420270b5ea74000d11b0c9f74754ebdbfc544b05a258611e9961116d565b604051611ea691906143ea565b60405180910390a1565b6000611ebf836000018361309e565b60001c905092915050565b8173ffffffffffffffffffffffffffffffffffffffff168373ffffffffffffffffffffffffffffffffffffffff1603611f38576040517f08c379a0000000000000000000000000000000000000000000000000000000008152600401611f2f90615318565b60405180910390fd5b8060ca60008573ffffffffffffffffffffffffffffffffffffffff1673ffffffffffffffffffffffffffffffffffffffff16815260200190815260200160002060008473ffffffffffffffffffffffffffffffffffffffff1673ffffffffffffffffffffffffffffffffffffffff16815260200190815260200160002060006101000a81548160ff0219169083151502179055508173ffffffffffffffffffffffffffffffffffffffff168373ffffffffffffffffffffffffffffffffffffffff167f17307eab39ab6107e8899845ad3d59bd9653f200f220920489ca2b5937696c31836040516120299190613a3a565b60405180910390a3505050565b6000612044826000016130c9565b9050919050565b600073ffffffffffffffffffffffffffffffffffffffff168473ffffffffffffffffffffffffffffffffffffffff16036120ba576040517f08c379a00000000000000000000000000000000000000000000000000000000081526004016120b190614eab565b60405180910390fd5b60006120c461116d565b905060006120d185612c18565b905060006120de85612c18565b90506120ee838989858589611ab5565b600060c9600088815260200190815260200160002060008a73ffffffffffffffffffffffffffffffffffffffff1673ffffffffffffffffffffffffffffffffffffffff16815260200190815260200160002054905085811015612186576040517f08c379a000000000000000000000000000000000000000000000000000000000815260040161217d90614f3d565b60405180910390fd5b85810360c9600089815260200190815260200160002060008b73ffffffffffffffffffffffffffffffffffffffff1673ffffffffffffffffffffffffffffffffffffffff168152602001908152602001600020819055508560c9600089815260200190815260200160002060008a73ffffffffffffffffffffffffffffffffffffffff1673ffffffffffffffffffffffffffffffffffffffff168152602001908152602001600020600082825461223d9190614dac565b925050819055508773ffffffffffffffffffffffffffffffffffffffff168973ffffffffffffffffffffffffffffffffffffffff168573ffffffffffffffffffffffffffffffffffffffff167fc3d58168c5ae7397731d063d5bbf3d657854427343f4c083240f7aacaa2d0f628a8a6040516122ba9291906150ed565b60405180910390a46122d0848a8a86868a61267f565b6122de848a8a8a8a8a612c92565b505050505050505050565b600073ffffffffffffffffffffffffffffffffffffffff168373ffffffffffffffffffffffffffffffffffffffff1603612358576040517f08c379a000000000000000000000000000000000000000000000000000000000815260040161234f9061503b565b60405180910390fd5b600061236261116d565b9050600061236f84612c18565b9050600061237c84612c18565b905061239c83876000858560405180602001604052806000815250611ab5565b600060c9600087815260200190815260200160002060008873ffffffffffffffffffffffffffffffffffffffff1673ffffffffffffffffffffffffffffffffffffffff16815260200190815260200160002054905084811015612434576040517f08c379a000000000000000000000000000000000000000000000000000000000815260040161242b906150cd565b60405180910390fd5b84810360c9600088815260200190815260200160002060008973ffffffffffffffffffffffffffffffffffffffff1673ffffffffffffffffffffffffffffffffffffffff16815260200190815260200160002081905550600073ffffffffffffffffffffffffffffffffffffffff168773ffffffffffffffffffffffffffffffffffffffff168573ffffffffffffffffffffffffffffffffffffffff167fc3d58168c5ae7397731d063d5bbf3d657854427343f4c083240f7aacaa2d0f6289896040516125029291906150ed565b60405180910390a46125288488600086866040518060200160405280600081525061267f565b50505050505050565b600060019054906101000a900460ff16612580576040517f08c379a00000000000000000000000000000000000000000000000000000000081526004016125779061521a565b60405180910390fd5b61258981612e8c565b612591612ee7565b61259a81612f54565b50565b60007fd9b67a26000000000000000000000000000000000000000000000000000000007bffffffffffffffffffffffffffffffffffffffffffffffffffffffff1916827bffffffffffffffffffffffffffffffffffffffffffffffffffffffff1916148061266857507f0e89341c000000000000000000000000000000000000000000000000000000007bffffffffffffffffffffffffffffffffffffffffffffffffffffffff1916827bffffffffffffffffffffffffffffffffffffffffffffffffffffffff1916145b806126785750612677826130da565b5b9050919050565b505050505050565b6126a68473ffffffffffffffffffffffffffffffffffffffff16612e69565b15612856578373ffffffffffffffffffffffffffffffffffffffff1663bc197c8187878686866040518663ffffffff1660e01b81526004016126ec95949392919061538d565b6020604051808303816000875af192505050801561272857506040513d601f19601f82011682018060405250810190612725919061540a565b60015b6127cd57612734615444565b806308c379a0036127905750612748615466565b806127535750612792565b806040517f08c379a00000000000000000000000000000000000000000000000000000000081526004016127879190613b1b565b60405180910390fd5b505b6040517f08c379a00000000000000000000000000000000000000000000000000000000081526004016127c490615568565b60405180910390fd5b63bc197c8160e01b7bffffffffffffffffffffffffffffffffffffffffffffffffffffffff1916817bffffffffffffffffffffffffffffffffffffffffffffffffffffffff191614612854576040517f08c379a000000000000000000000000000000000000000000000000000000000815260040161284b906155fa565b60405180910390fd5b505b505050505050565b6128688282610dc1565b6128f75761288d8173ffffffffffffffffffffffffffffffffffffffff166014613154565b61289b8360001c6020613154565b6040516020016128ac9291906156ee565b6040516020818303038152906040526040517f08c379a00000000000000000000000000000000000000000000000000000000081526004016128ee9190613b1b565b60405180910390fd5b5050565b6129058282610dc1565b6129d85760016065600084815260200190815260200160002060000160008373ffffffffffffffffffffffffffffffffffffffff1673ffffffffffffffffffffffffffffffffffffffff16815260200190815260200160002060006101000a81548160ff02191690831515021790555061297d61116d565b73ffffffffffffffffffffffffffffffffffffffff168173ffffffffffffffffffffffffffffffffffffffff16837f2f8788117e7eff1d82e926ec794901d17c78024a50270940304540a733656f0d60405160405180910390a45b5050565b6000612a04836000018373ffffffffffffffffffffffffffffffffffffffff1660001b613390565b905092915050565b612a168282610dc1565b15612aea5760006065600084815260200190815260200160002060000160008373ffffffffffffffffffffffffffffffffffffffff1673ffffffffffffffffffffffffffffffffffffffff16815260200190815260200160002060006101000a81548160ff021916908315150217905550612a8f61116d565b73ffffffffffffffffffffffffffffffffffffffff168173ffffffffffffffffffffffffffffffffffffffff16837ff6391f5c32d9c69d2a47ea670b442974b53935d1edc7fd64eb21e047a839171b60405160405180910390a45b5050565b6000612b16836000018373ffffffffffffffffffffffffffffffffffffffff1660001b613400565b905092915050565b60008073ffffffffffffffffffffffffffffffffffffffff168673ffffffffffffffffffffffffffffffffffffffff161415905060008073ffffffffffffffffffffffffffffffffffffffff168673ffffffffffffffffffffffffffffffffffffffff16141590506000612bb27fb6eeb50d1ea0d876d560efb18b8017323347ce323ef4b05d5a0322c9c7869f8f8a610dc1565b159050828015612bbf5750815b8015612bc85750805b15612bff576040517f175e5a9000000000000000000000000000000000000000000000000000000000815260040160405180910390fd5b612c0d898989898989613514565b505050505050505050565b60606000600167ffffffffffffffff811115612c3757612c36613b42565b5b604051908082528060200260200182016040528015612c655781602001602082028036833780820191505090505b5090508281600081518110612c7d57612c7c614a51565b5b60200260200101818152505080915050919050565b612cb18473ffffffffffffffffffffffffffffffffffffffff16612e69565b15612e61578373ffffffffffffffffffffffffffffffffffffffff1663f23a6e6187878686866040518663ffffffff1660e01b8152600401612cf7959493929190615728565b6020604051808303816000875af1925050508015612d3357506040513d601f19601f82011682018060405250810190612d30919061540a565b60015b612dd857612d3f615444565b806308c379a003612d9b5750612d53615466565b80612d5e5750612d9d565b806040517f08c379a0000000000000000000000000000000000000000000000000000000008152600401612d929190613b1b565b60405180910390fd5b505b6040517f08c379a0000000000000000000000000000000000000000000000000000000008152600401612dcf90615568565b60405180910390fd5b63f23a6e6160e01b7bffffffffffffffffffffffffffffffffffffffffffffffffffffffff1916817bffffffffffffffffffffffffffffffffffffffffffffffffffffffff191614612e5f576040517f08c379a0000000000000000000000000000000000000000000000000000000008152600401612e56906155fa565b60405180910390fd5b505b505050505050565b6000808273ffffffffffffffffffffffffffffffffffffffff163b119050919050565b600060019054906101000a900460ff16612edb576040517f08c379a0000000000000000000000000000000000000000000000000000000008152600401612ed29061521a565b60405180910390fd5b612ee48161352a565b50565b600060019054906101000a900460ff16612f36576040517f08c379a0000000000000000000000000000000000000000000000000000000008152600401612f2d9061521a565b60405180910390fd5b600061015f60006101000a81548160ff021916908315150217905550565b600060019054906101000a900460ff16612fa3576040517f08c379a0000000000000000000000000000000000000000000000000000000008152600401612f9a9061521a565b60405180910390fd5b612fb76000801b612fb261116d565b61353d565b612fe87f9f2df0fed2c77648de5860a4cc508cd0818c85b8b8a1ab4ceeef8d981c8956a6612fe361116d565b61353d565b6130197f65d7a28e3265b37a6474929f336521b332c1681b933f6cb9f3376673440d862a61301461116d565b61353d565b50565b600060019054906101000a900460ff1661306b576040517f08c379a00000000000000000000000000000000000000000000000000000000081526004016130629061521a565b60405180910390fd5b61309c7fb6eeb50d1ea0d876d560efb18b8017323347ce323ef4b05d5a0322c9c7869f8f61309761116d565b6116da565b565b60008260000182815481106130b6576130b5614a51565b5b9060005260206000200154905092915050565b600081600001805490509050919050565b60007f5a05180f000000000000000000000000000000000000000000000000000000007bffffffffffffffffffffffffffffffffffffffffffffffffffffffff1916827bffffffffffffffffffffffffffffffffffffffffffffffffffffffff1916148061314d575061314c8261354b565b5b9050919050565b6060600060028360026131679190615782565b6131719190614dac565b67ffffffffffffffff81111561318a57613189613b42565b5b6040519080825280601f01601f1916602001820160405280156131bc5781602001600182028036833780820191505090505b5090507f3000000000000000000000000000000000000000000000000000000000000000816000815181106131f4576131f3614a51565b5b60200101907effffffffffffffffffffffffffffffffffffffffffffffffffffffffffffff1916908160001a9053507f78000000000000000000000000000000000000000000000000000000000000008160018151811061325857613257614a51565b5b60200101907effffffffffffffffffffffffffffffffffffffffffffffffffffffffffffff1916908160001a905350600060018460026132989190615782565b6132a29190614dac565b90505b6001811115613342577f3031323334353637383961626364656600000000000000000000000000000000600f8616601081106132e4576132e3614a51565b5b1a60f81b8282815181106132fb576132fa614a51565b5b60200101907effffffffffffffffffffffffffffffffffffffffffffffffffffffffffffff1916908160001a905350600485901c94508061333b906157dc565b90506132a5565b5060008414613386576040517f08c379a000000000000000000000000000000000000000000000000000000000815260040161337d90615851565b60405180910390fd5b8091505092915050565b600061339c83836135c5565b6133f55782600001829080600181540180825580915050600190039060005260206000200160009091909190915055826000018054905083600101600084815260200190815260200160002081905550600190506133fa565b600090505b92915050565b600080836001016000848152602001908152602001600020549050600081146135085760006001826134329190615871565b905060006001866000018054905061344a9190615871565b90508181146134b957600086600001828154811061346b5761346a614a51565b5b906000526020600020015490508087600001848154811061348f5761348e614a51565b5b90600052602060002001819055508387600101600083815260200190815260200160002081905550505b856000018054806134cd576134cc6158a5565b5b60019003818190600052602060002001600090559055856001016000868152602001908152602001600020600090556001935050505061350e565b60009150505b92915050565b6135228686868686866135e8565b505050505050565b8060cb90816135399190615a76565b5050565b61354782826116da565b5050565b60007f7965db0b000000000000000000000000000000000000000000000000000000007bffffffffffffffffffffffffffffffffffffffffffffffffffffffff1916827bffffffffffffffffffffffffffffffffffffffffffffffffffffffff191614806135be57506135bd82613646565b5b9050919050565b600080836001016000848152602001908152602001600020541415905092915050565b6135f68686868686866136b0565b6135fe610b1e565b1561363e576040517f08c379a000000000000000000000000000000000000000000000000000000000815260040161363590615bba565b60405180910390fd5b505050505050565b60007f01ffc9a7000000000000000000000000000000000000000000000000000000007bffffffffffffffffffffffffffffffffffffffffffffffffffffffff1916827bffffffffffffffffffffffffffffffffffffffffffffffffffffffff1916149050919050565b6136be868686868686613880565b600073ffffffffffffffffffffffffffffffffffffffff168573ffffffffffffffffffffffffffffffffffffffff160361376f5760005b835181101561376d5782818151811061371157613710614a51565b5b602002602001015160fb60008684815181106137305761372f614a51565b5b6020026020010151815260200190815260200160002060008282546137559190614dac565b925050819055508061376690614aaf565b90506136f5565b505b600073ffffffffffffffffffffffffffffffffffffffff168473ffffffffffffffffffffffffffffffffffffffff16036138785760005b83518110156138765760008482815181106137c4576137c3614a51565b5b6020026020010151905060008483815181106137e3576137e2614a51565b5b60200260200101519050600060fb600084815260200190815260200160002054905081811015613848576040517f08c379a000000000000000000000000000000000000000000000000000000000815260040161383f90615c4c565b60405180910390fd5b81810360fb6000858152602001908152602001600020819055505050508061386f90614aaf565b90506137a6565b505b505050505050565b505050505050565b6000604051905090565b600080fd5b600080fd5b600073ffffffffffffffffffffffffffffffffffffffff82169050919050565b60006138c78261389c565b9050919050565b6138d7816138bc565b81146138e257600080fd5b50565b6000813590506138f4816138ce565b92915050565b6000819050919050565b61390d816138fa565b811461391857600080fd5b50565b60008135905061392a81613904565b92915050565b6000806040838503121561394757613946613892565b5b6000613955858286016138e5565b92505060206139668582860161391b565b9150509250929050565b613979816138fa565b82525050565b60006020820190506139946000830184613970565b92915050565b60007fffffffff0000000000000000000000000000000000000000000000000000000082169050919050565b6139cf8161399a565b81146139da57600080fd5b50565b6000813590506139ec816139c6565b92915050565b600060208284031215613a0857613a07613892565b5b6000613a16848285016139dd565b91505092915050565b60008115159050919050565b613a3481613a1f565b82525050565b6000602082019050613a4f6000830184613a2b565b92915050565b600060208284031215613a6b57613a6a613892565b5b6000613a798482850161391b565b91505092915050565b600081519050919050565b600082825260208201905092915050565b60005b83811015613abc578082015181840152602081019050613aa1565b83811115613acb576000848401525b50505050565b6000601f19601f8301169050919050565b6000613aed82613a82565b613af78185613a8d565b9350613b07818560208601613a9e565b613b1081613ad1565b840191505092915050565b60006020820190508181036000830152613b358184613ae2565b905092915050565b600080fd5b7f4e487b7100000000000000000000000000000000000000000000000000000000600052604160045260246000fd5b613b7a82613ad1565b810181811067ffffffffffffffff82111715613b9957613b98613b42565b5b80604052505050565b6000613bac613888565b9050613bb88282613b71565b919050565b600067ffffffffffffffff821115613bd857613bd7613b42565b5b602082029050602081019050919050565b600080fd5b6000613c01613bfc84613bbd565b613ba2565b90508083825260208201905060208402830185811115613c2457613c23613be9565b5b835b81811015613c4d5780613c39888261391b565b845260208401935050602081019050613c26565b5050509392505050565b600082601f830112613c6c57613c6b613b3d565b5b8135613c7c848260208601613bee565b91505092915050565b600080fd5b600067ffffffffffffffff821115613ca557613ca4613b42565b5b613cae82613ad1565b9050602081019050919050565b82818337600083830152505050565b6000613cdd613cd884613c8a565b613ba2565b905082815260208101848484011115613cf957613cf8613c85565b5b613d04848285613cbb565b509392505050565b600082601f830112613d2157613d20613b3d565b5b8135613d31848260208601613cca565b91505092915050565b60008060008060808587031215613d5457613d53613892565b5b6000613d62878288016138e5565b945050602085013567ffffffffffffffff811115613d8357613d82613897565b5b613d8f87828801613c57565b935050604085013567ffffffffffffffff811115613db057613daf613897565b5b613dbc87828801613c57565b925050606085013567ffffffffffffffff811115613ddd57613ddc613897565b5b613de987828801613d0c565b91505092959194509250565b6000819050919050565b613e0881613df5565b8114613e1357600080fd5b50565b600081359050613e2581613dff565b92915050565b600060208284031215613e4157613e40613892565b5b6000613e4f84828501613e16565b91505092915050565b613e6181613df5565b82525050565b6000602082019050613e7c6000830184613e58565b92915050565b600080600080600060a08688031215613e9e57613e9d613892565b5b6000613eac888289016138e5565b9550506020613ebd888289016138e5565b945050604086013567ffffffffffffffff811115613ede57613edd613897565b5b613eea88828901613c57565b935050606086013567ffffffffffffffff811115613f0b57613f0a613897565b5b613f1788828901613c57565b925050608086013567ffffffffffffffff811115613f3857613f37613897565b5b613f4488828901613d0c565b9150509295509295909350565b60008060408385031215613f6857613f67613892565b5b6000613f7685828601613e16565b9250506020613f87858286016138e5565b9150509250929050565b600067ffffffffffffffff821115613fac57613fab613b42565b5b602082029050602081019050919050565b6000613fd0613fcb84613f91565b613ba2565b90508083825260208201905060208402830185811115613ff357613ff2613be9565b5b835b8181101561401c578061400888826138e5565b845260208401935050602081019050613ff5565b5050509392505050565b600082601f83011261403b5761403a613b3d565b5b813561404b848260208601613fbd565b91505092915050565b6000806040838503121561406b5761406a613892565b5b600083013567ffffffffffffffff81111561408957614088613897565b5b61409585828601614026565b925050602083013567ffffffffffffffff8111156140b6576140b5613897565b5b6140c285828601613c57565b9150509250929050565b600081519050919050565b600082825260208201905092915050565b6000819050602082019050919050565b614101816138fa565b82525050565b600061411383836140f8565b60208301905092915050565b6000602082019050919050565b6000614137826140cc565b61414181856140d7565b935061414c836140e8565b8060005b8381101561417d5781516141648882614107565b975061416f8361411f565b925050600181019050614150565b5085935050505092915050565b600060208201905081810360008301526141a4818461412c565b905092915050565b6000806000606084860312156141c5576141c4613892565b5b60006141d3868287016138e5565b935050602084013567ffffffffffffffff8111156141f4576141f3613897565b5b61420086828701613c57565b925050604084013567ffffffffffffffff81111561422157614220613897565b5b61422d86828701613c57565b9150509250925092565b60008060008060008060c0878903121561425457614253613892565b5b600061426289828a016138e5565b965050602061427389828a016138e5565b955050604061428489828a016138e5565b945050606087013567ffffffffffffffff8111156142a5576142a4613897565b5b6142b189828a01613c57565b935050608087013567ffffffffffffffff8111156142d2576142d1613897565b5b6142de89828a01613c57565b92505060a087013567ffffffffffffffff8111156142ff576142fe613897565b5b61430b89828a01613d0c565b9150509295509295509295565b6000806000806080858703121561433257614331613892565b5b6000614340878288016138e5565b94505060206143518782880161391b565b93505060406143628782880161391b565b925050606085013567ffffffffffffffff81111561438357614382613897565b5b61438f87828801613d0c565b91505092959194509250565b600080604083850312156143b2576143b1613892565b5b60006143c085828601613e16565b92505060206143d18582860161391b565b9150509250929050565b6143e4816138bc565b82525050565b60006020820190506143ff60008301846143db565b92915050565b61440e81613a1f565b811461441957600080fd5b50565b60008135905061442b81614405565b92915050565b6000806040838503121561444857614447613892565b5b6000614456858286016138e5565b92505060206144678582860161441c565b9150509250929050565b6000806040838503121561448857614487613892565b5b6000614496858286016138e5565b92505060206144a7858286016138e5565b9150509250929050565b600080600080600060a086880312156144cd576144cc613892565b5b60006144db888289016138e5565b95505060206144ec888289016138e5565b94505060406144fd8882890161391b565b935050606061450e8882890161391b565b925050608086013567ffffffffffffffff81111561452f5761452e613897565b5b61453b88828901613d0c565b9150509295509295909350565b60008060006060848603121561456157614560613892565b5b600061456f868287016138e5565b93505060206145808682870161391b565b92505060406145918682870161391b565b9150509250925092565b600067ffffffffffffffff8211156145b6576145b5613b42565b5b6145bf82613ad1565b9050602081019050919050565b60006145df6145da8461459b565b613ba2565b9050828152602081018484840111156145fb576145fa613c85565b5b614606848285613cbb565b509392505050565b600082601f83011261462357614622613b3d565b5b81356146338482602086016145cc565b91505092915050565b60006020828403121561465257614651613892565b5b600082013567ffffffffffffffff8111156146705761466f613897565b5b61467c8482850161460e565b91505092915050565b7f455243313135353a2062616c616e636520717565727920666f7220746865207a60008201527f65726f2061646472657373000000000000000000000000000000000000000000602082015250565b60006146e1602b83613a8d565b91506146ec82614685565b604082019050919050565b60006020820190508181036000830152614710816146d4565b9050919050565b7f4e487b7100000000000000000000000000000000000000000000000000000000600052602260045260246000fd5b6000600282049050600182168061475e57607f821691505b60208210810361477157614770614717565b5b50919050565b7f455243313135355072657365744d696e7465725061757365723a206d7573742060008201527f68617665206d696e74657220726f6c6520746f206d696e740000000000000000602082015250565b60006147d3603883613a8d565b91506147de82614777565b604082019050919050565b60006020820190508181036000830152614802816147c6565b9050919050565b7f455243313135353a207472616e736665722063616c6c6572206973206e6f742060008201527f6f776e6572206e6f7220617070726f7665640000000000000000000000000000602082015250565b6000614865603283613a8d565b915061487082614809565b604082019050919050565b6000602082019050818103600083015261489481614858565b9050919050565b7f416363657373436f6e74726f6c3a2063616e206f6e6c792072656e6f756e636560008201527f20726f6c657320666f722073656c660000000000000000000000000000000000602082015250565b60006148f7602f83613a8d565b91506149028261489b565b604082019050919050565b60006020820190508181036000830152614926816148ea565b9050919050565b7f455243313135355072657365744d696e7465725061757365723a206d7573742060008201527f686176652070617573657220726f6c6520746f20756e70617573650000000000602082015250565b6000614989603b83613a8d565b91506149948261492d565b604082019050919050565b600060208201905081810360008301526149b88161497c565b9050919050565b7f455243313135353a206163636f756e747320616e6420696473206c656e67746860008201527f206d69736d617463680000000000000000000000000000000000000000000000602082015250565b6000614a1b602983613a8d565b9150614a26826149bf565b604082019050919050565b60006020820190508181036000830152614a4a81614a0e565b9050919050565b7f4e487b7100000000000000000000000000000000000000000000000000000000600052603260045260246000fd5b7f4e487b7100000000000000000000000000000000000000000000000000000000600052601160045260246000fd5b6000614aba826138fa565b91507fffffffffffffffffffffffffffffffffffffffffffffffffffffffffffffffff8203614aec57614aeb614a80565b5b600182019050919050565b7f455243313135353a2063616c6c6572206973206e6f74206f776e6572206e6f7260008201527f20617070726f7665640000000000000000000000000000000000000000000000602082015250565b6000614b53602983613a8d565b9150614b5e82614af7565b604082019050919050565b60006020820190508181036000830152614b8281614b46565b9050919050565b6000819050919050565b600060ff82169050919050565b6000819050919050565b6000614bc5614bc0614bbb84614b89565b614ba0565b614b93565b9050919050565b614bd581614baa565b82525050565b6000602082019050614bf06000830184614bcc565b92915050565b7f455243313135355072657365744d696e7465725061757365723a206d7573742060008201527f686176652070617573657220726f6c6520746f20706175736500000000000000602082015250565b6000614c52603983613a8d565b9150614c5d82614bf6565b604082019050919050565b60006020820190508181036000830152614c8181614c45565b9050919050565b7f455243313135353a206d696e7420746f20746865207a65726f2061646472657360008201527f7300000000000000000000000000000000000000000000000000000000000000602082015250565b6000614ce4602183613a8d565b9150614cef82614c88565b604082019050919050565b60006020820190508181036000830152614d1381614cd7565b9050919050565b7f455243313135353a2069647320616e6420616d6f756e7473206c656e6774682060008201527f6d69736d61746368000000000000000000000000000000000000000000000000602082015250565b6000614d76602883613a8d565b9150614d8182614d1a565b604082019050919050565b60006020820190508181036000830152614da581614d69565b9050919050565b6000614db7826138fa565b9150614dc2836138fa565b9250827fffffffffffffffffffffffffffffffffffffffffffffffffffffffffffffffff03821115614df757614df6614a80565b5b828201905092915050565b60006040820190508181036000830152614e1c818561412c565b90508181036020830152614e30818461412c565b90509392505050565b7f455243313135353a207472616e7366657220746f20746865207a65726f20616460008201527f6472657373000000000000000000000000000000000000000000000000000000602082015250565b6000614e95602583613a8d565b9150614ea082614e39565b604082019050919050565b60006020820190508181036000830152614ec481614e88565b9050919050565b7f455243313135353a20696e73756666696369656e742062616c616e636520666f60008201527f72207472616e7366657200000000000000000000000000000000000000000000602082015250565b6000614f27602a83613a8d565b9150614f3282614ecb565b604082019050919050565b60006020820190508181036000830152614f5681614f1a565b9050919050565b7f5061757361626c653a206e6f7420706175736564000000000000000000000000600082015250565b6000614f93601483613a8d565b9150614f9e82614f5d565b602082019050919050565b60006020820190508181036000830152614fc281614f86565b9050919050565b7f455243313135353a206275726e2066726f6d20746865207a65726f206164647260008201527f6573730000000000000000000000000000000000000000000000000000000000602082015250565b6000615025602383613a8d565b915061503082614fc9565b604082019050919050565b6000602082019050818103600083015261505481615018565b9050919050565b7f455243313135353a206275726e20616d6f756e7420657863656564732062616c60008201527f616e636500000000000000000000000000000000000000000000000000000000602082015250565b60006150b7602483613a8d565b91506150c28261505b565b604082019050919050565b600060208201905081810360008301526150e6816150aa565b9050919050565b60006040820190506151026000830185613970565b61510f6020830184613970565b9392505050565b7f496e697469616c697a61626c653a20636f6e747261637420697320616c72656160008201527f647920696e697469616c697a6564000000000000000000000000000000000000602082015250565b6000615172602e83613a8d565b915061517d82615116565b604082019050919050565b600060208201905081810360008301526151a181615165565b9050919050565b7f496e697469616c697a61626c653a20636f6e7472616374206973206e6f74206960008201527f6e697469616c697a696e67000000000000000000000000000000000000000000602082015250565b6000615204602b83613a8d565b915061520f826151a8565b604082019050919050565b60006020820190508181036000830152615233816151f7565b9050919050565b7f5061757361626c653a2070617573656400000000000000000000000000000000600082015250565b6000615270601083613a8d565b915061527b8261523a565b602082019050919050565b6000602082019050818103600083015261529f81615263565b9050919050565b7f455243313135353a2073657474696e6720617070726f76616c2073746174757360008201527f20666f722073656c660000000000000000000000000000000000000000000000602082015250565b6000615302602983613a8d565b915061530d826152a6565b604082019050919050565b60006020820190508181036000830152615331816152f5565b9050919050565b600081519050919050565b600082825260208201905092915050565b600061535f82615338565b6153698185615343565b9350615379818560208601613a9e565b61538281613ad1565b840191505092915050565b600060a0820190506153a260008301886143db565b6153af60208301876143db565b81810360408301526153c1818661412c565b905081810360608301526153d5818561412c565b905081810360808301526153e98184615354565b90509695505050505050565b600081519050615404816139c6565b92915050565b6000602082840312156154205761541f613892565b5b600061542e848285016153f5565b91505092915050565b60008160e01c9050919050565b600060033d11156154635760046000803e615460600051615437565b90505b90565b600060443d106154f357615478613888565b60043d036004823e80513d602482011167ffffffffffffffff821117156154a05750506154f3565b808201805167ffffffffffffffff8111156154be57505050506154f3565b80602083010160043d0385018111156154db5750505050506154f3565b6154ea82602001850186613b71565b82955050505050505b90565b7f455243313135353a207472616e7366657220746f206e6f6e204552433131353560008201527f526563656976657220696d706c656d656e746572000000000000000000000000602082015250565b6000615552603483613a8d565b915061555d826154f6565b604082019050919050565b6000602082019050818103600083015261558181615545565b9050919050565b7f455243313135353a204552433131353552656365697665722072656a6563746560008201527f6420746f6b656e73000000000000000000000000000000000000000000000000602082015250565b60006155e4602883613a8d565b91506155ef82615588565b604082019050919050565b60006020820190508181036000830152615613816155d7565b9050919050565b600081905092915050565b7f416363657373436f6e74726f6c3a206163636f756e7420000000000000000000600082015250565b600061565b60178361561a565b915061566682615625565b601782019050919050565b600061567c82613a82565b615686818561561a565b9350615696818560208601613a9e565b80840191505092915050565b7f206973206d697373696e6720726f6c6520000000000000000000000000000000600082015250565b60006156d860118361561a565b91506156e3826156a2565b601182019050919050565b60006156f98261564e565b91506157058285615671565b9150615710826156cb565b915061571c8284615671565b91508190509392505050565b600060a08201905061573d60008301886143db565b61574a60208301876143db565b6157576040830186613970565b6157646060830185613970565b81810360808301526157768184615354565b90509695505050505050565b600061578d826138fa565b9150615798836138fa565b9250817fffffffffffffffffffffffffffffffffffffffffffffffffffffffffffffffff04831182151516156157d1576157d0614a80565b5b828202905092915050565b60006157e7826138fa565b9150600082036157fa576157f9614a80565b5b600182039050919050565b7f537472696e67733a20686578206c656e67746820696e73756666696369656e74600082015250565b600061583b602083613a8d565b915061584682615805565b602082019050919050565b6000602082019050818103600083015261586a8161582e565b9050919050565b600061587c826138fa565b9150615887836138fa565b92508282101561589a57615899614a80565b5b828203905092915050565b7f4e487b7100000000000000000000000000000000000000000000000000000000600052603160045260246000fd5b60008190508160005260206000209050919050565b60006020601f8301049050919050565b600082821b905092915050565b6000600883026159367fffffffffffffffffffffffffffffffffffffffffffffffffffffffffffffffff826158f9565b61594086836158f9565b95508019841693508086168417925050509392505050565b600061597361596e615969846138fa565b614ba0565b6138fa565b9050919050565b6000819050919050565b61598d83615958565b6159a16159998261597a565b848454615906565b825550505050565b600090565b6159b66159a9565b6159c1818484615984565b505050565b5b818110156159e5576159da6000826159ae565b6001810190506159c7565b5050565b601f821115615a2a576159fb816158d4565b615a04846158e9565b81016020851015615a13578190505b615a27615a1f856158e9565b8301826159c6565b50505b505050565b600082821c905092915050565b6000615a4d60001984600802615a2f565b1980831691505092915050565b6000615a668383615a3c565b9150826002028217905092915050565b615a7f82613a82565b67ffffffffffffffff811115615a9857615a97613b42565b5b615aa28254614746565b615aad8282856159e9565b600060209050601f831160018114615ae05760008415615ace578287015190505b615ad88582615a5a565b865550615b40565b601f198416615aee866158d4565b60005b82811015615b1657848901518255600182019150602085019450602081019050615af1565b86831015615b335784890151615b2f601f891682615a3c565b8355505b6001600288020188555050505b505050505050565b7f455243313135355061757361626c653a20746f6b656e207472616e736665722060008201527f7768696c65207061757365640000000000000000000000000000000000000000602082015250565b6000615ba4602c83613a8d565b9150615baf82615b48565b604082019050919050565b60006020820190508181036000830152615bd381615b97565b9050919050565b7f455243313135353a206275726e20616d6f756e74206578636565647320746f7460008201527f616c537570706c79000000000000000000000000000000000000000000000000602082015250565b6000615c36602883613a8d565b9150615c4182615bda565b604082019050919050565b60006020820190508181036000830152615c6581615c29565b905091905056fe68747470733a2f2f6e6f72692e636f6d2f6170692f63657274696669636174652f7b69647d2e6a736f6ea264697066735822122079e8fb69bc88467c1da51423fa9e9c77dd7b9576016995fc0cf68a055f809a7164736f6c634300080f0033",
  "linkReferences": {},
  "deployedLinkReferences": {}
}