{"address":"0x0000000000000000000000000000000000000000","bytecode":"0x608060405234801561001057600080fd5b50613b56806100206000396000f3fe608060405234801561001057600080fd5b50600436106102055760003560e01c80637aef11641161011a578063ca15c873116100ad578063e63ab1e91161007c578063e63ab1e914610495578063e985e9c5146104aa578063f242432a146104e6578063f5298aca146104f9578063f62d18881461050c57600080fd5b8063ca15c8731461043a578063d53913931461044d578063d547741f14610462578063d85a53e91461047557600080fd5b806391d14854116100e957806391d14854146103eb578063a217fddf146103fe578063a22cb46514610406578063bd85b0391461041957600080fd5b80637aef11641461038f5780638129fc1c146103b05780638456cb59146103b85780639010d07c146103c057600080fd5b806336568abe1161019d5780634e1273f41161016c5780634e1273f41461031a5780634f558e791461033a5780635c975abb1461035d5780636b20c45414610369578063731133e91461037c57600080fd5b806336568abe146102d9578063367605ca146102ec5780633f4ba83a146102ff57806348ec4c3b1461030757600080fd5b80631f7fdffa116101d95780631f7fdffa1461027b578063248a9ca3146102905780632eb2c2d6146102b35780632f2ff15d146102c657600080fd5b8062fdd58e1461020a57806301ffc9a71461023057806306fdde03146102535780630e89341c14610268575b600080fd5b61021d6102183660046129b8565b61051f565b6040519081526020015b60405180910390f35b61024361023e3660046129fa565b6105bb565b6040519015158152602001610227565b61025b6105c6565b6040516102279190612a6f565b61025b610276366004612a82565b610655565b61028e610289366004612bee565b6106e9565b005b61021d61029e366004612a82565b60009081526065602052604090206001015490565b61028e6102c1366004612c88565b610871565b61028e6102d4366004612d35565b61087e565b61028e6102e7366004612d35565b6108a9565b61028e6102fa366004612d73565b610927565b61028e61098b565b61021d610315366004612dbe565b610a1f565b61032d610328366004612e2f565b610a32565b6040516102279190612f36565b610243610348366004612a82565b60009081526101c36020526040902054151590565b61012d5460ff16610243565b61028e610377366004612f49565b610b5b565b61028e61038a366004612fbe565b610b9e565b61021d61039d366004612a82565b6101f76020526000908152604090205481565b61028e610bde565b61028e610caf565b6103d36103ce366004613014565b610d41565b6040516001600160a01b039091168152602001610227565b6102436103f9366004612d35565b610d59565b61021d600081565b61028e610414366004613036565b610d84565b61021d610427366004612a82565b60009081526101c3602052604090205490565b61021d610448366004612a82565b610d8f565b61021d600080516020613adb83398151915281565b61028e610470366004612d35565b610da6565b610488610483366004612a82565b610dcc565b6040516102279190613064565b61021d600080516020613abb83398151915281565b6102436104b83660046130fb565b6001600160a01b03918216600090815260ca6020908152604080832093909416825291909152205460ff1690565b61028e6104f4366004613129565b610ddd565b61028e610507366004613191565b610e22565b61028e61051a3660046131c6565b610e65565b60006001600160a01b0383166105905760405162461bcd60e51b815260206004820152602b60248201527f455243313135353a2062616c616e636520717565727920666f7220746865207a60448201526a65726f206164647265737360a81b60648201526084015b60405180910390fd5b50600081815260c9602090815260408083206001600160a01b03861684529091529020545b92915050565b60006105b582610ee0565b6101f680546105d490613216565b80601f016020809104026020016040519081016040528092919081815260200182805461060090613216565b801561064d5780601f106106225761010080835404028352916020019161064d565b820191906000526020600020905b81548152906001019060200180831161063057829003601f168201915b505050505081565b606060cb805461066490613216565b80601f016020809104026020016040519081016040528092919081815260200182805461069090613216565b80156106dd5780601f106106b2576101008083540402835291602001916106dd565b820191906000526020600020905b8154815290600101906020018083116106c057829003601f168201915b50505050509050919050565b6000818060200190518101906106ff9190613250565b905060005b8351811015610836576101f86000858381518110610724576107246132ae565b60209081029190910181015182528101919091526040016000205460ff161561078f5760405162461bcd60e51b815260206004820152601760248201527f546f6b656e20696420616c7265616479206578697374730000000000000000006044820152606401610587565b60016101f860008684815181106107a8576107a86132ae565b6020026020010151815260200190815260200160002060006101000a81548160ff0219169083151502179055508381815181106107e7576107e76132ae565b60200260200101516101f760006101f55481526020019081526020016000208190555060016101f5600082825461081e91906132da565b9091555081905061082e816132f2565b915050610704565b5061084385848685610eeb565b61084f85336001610927565b80602001511561086a5761086a858260000151858786610871565b5050505050565b61086a8585858585610f2b565b60008281526065602052604090206001015461089a8133610fbb565b6108a4838361101f565b505050565b6001600160a01b03811633146109195760405162461bcd60e51b815260206004820152602f60248201527f416363657373436f6e74726f6c3a2063616e206f6e6c792072656e6f756e636560448201526e103937b632b9903337b91039b2b63360891b6064820152608401610587565b6109238282611041565b5050565b60006109338133610fbb565b61012d5460ff161561097a5760405162461bcd60e51b815260206004820152601060248201526f14185d5cd8589b194e881c185d5cd95960821b6044820152606401610587565b610985848484611063565b50505050565b6109a3600080516020613abb83398151915233610d59565b610a155760405162461bcd60e51b815260206004820152603b60248201527f455243313135355072657365744d696e7465725061757365723a206d7573742060448201527f686176652070617573657220726f6c6520746f20756e706175736500000000006064820152608401610587565b610a1d611143565b565b6000610a2b83836111d8565b9392505050565b60608151835114610a975760405162461bcd60e51b815260206004820152602960248201527f455243313135353a206163636f756e747320616e6420696473206c656e677468604482015268040dad2e6dac2e8c6d60bb1b6064820152608401610587565b600083516001600160401b03811115610ab257610ab2612a9b565b604051908082528060200260200182016040528015610adb578160200160208202803683370190505b50905060005b8451811015610b5357610b26858281518110610aff57610aff6132ae565b6020026020010151858381518110610b1957610b196132ae565b602002602001015161051f565b828281518110610b3857610b386132ae565b6020908102919091010152610b4c816132f2565b9050610ae1565b509392505050565b6001600160a01b038316331480610b775750610b7783336104b8565b610b935760405162461bcd60e51b81526004016105879061330b565b6108a48383836114ee565b610bb6600080516020613adb83398151915233610d59565b610bd25760405162461bcd60e51b815260040161058790613354565b6109858484848461167f565b600054610100900460ff16610bf95760005460ff1615610bfd565b303b155b610c195760405162461bcd60e51b8152600401610587906133b1565b600054610100900460ff16158015610c3b576000805461ffff19166101011790555b610c5c604051806060016040528060268152602001613afb60269139610e65565b610c64611757565b60006101f5556040805180820190915260078082526614995b5bdd985b60ca1b6020909201918252610c99916101f6916128b6565b508015610cac576000805461ff00191690555b50565b610cc7600080516020613abb83398151915233610d59565b610d395760405162461bcd60e51b815260206004820152603960248201527f455243313135355072657365744d696e7465725061757365723a206d7573742060448201527f686176652070617573657220726f6c6520746f207061757365000000000000006064820152608401610587565b610a1d61177e565b6000828152609760205260408120610a2b90836117fb565b60009182526065602090815260408084206001600160a01b0393909316845291905290205460ff1690565b610923338383611063565b60008181526097602052604081206105b590611807565b600082815260656020526040902060010154610dc28133610fbb565b6108a48383611041565b610dd461293a565b6105b582611811565b6001600160a01b038516331480610df95750610df985336104b8565b610e155760405162461bcd60e51b81526004016105879061330b565b61086a85858585856118c8565b6001600160a01b038316331480610e3e5750610e3e83336104b8565b610e5a5760405162461bcd60e51b81526004016105879061330b565b6108a48383836119e9565b600054610100900460ff16610e805760005460ff1615610e84565b303b155b610ea05760405162461bcd60e51b8152600401610587906133b1565b600054610100900460ff16158015610ec2576000805461ffff19166101011790555b610ecb82611aee565b8015610923576000805461ff00191690555050565b60006105b582611b2f565b610f03600080516020613adb83398151915233610d59565b610f1f5760405162461bcd60e51b815260040161058790613354565b61098584848484611b6f565b6001600160a01b038516331480610f475750610f4785336104b8565b610fae5760405162461bcd60e51b815260206004820152603260248201527f455243313135353a207472616e736665722063616c6c6572206973206e6f74206044820152711bdddb995c881b9bdc88185c1c1c9bdd995960721b6064820152608401610587565b61086a8585858585611cca565b610fc58282610d59565b61092357610fdd816001600160a01b03166014611e77565b610fe8836020611e77565b604051602001610ff99291906133ff565b60408051601f198184030181529082905262461bcd60e51b825261058791600401612a6f565b6110298282612012565b60008281526097602052604090206108a49082612098565b61104b82826120ad565b60008281526097602052604090206108a49082612114565b816001600160a01b0316836001600160a01b0316036110d65760405162461bcd60e51b815260206004820152602960248201527f455243313135353a2073657474696e6720617070726f76616c20737461747573604482015268103337b91039b2b63360b91b6064820152608401610587565b6001600160a01b03838116600081815260ca6020908152604080832094871680845294825291829020805460ff191686151590811790915591519182527f17307eab39ab6107e8899845ad3d59bd9653f200f220920489ca2b5937696c31910160405180910390a3505050565b61012d5460ff1661118d5760405162461bcd60e51b815260206004820152601460248201527314185d5cd8589b194e881b9bdd081c185d5cd95960621b6044820152606401610587565b61012d805460ff191690557f5db9ee0a495bf2e6ff9c91a7834c1ba4fdd244a5e8aa4e537bd38aeae4b073aa335b6040516001600160a01b03909116815260200160405180910390a1565b6000806111e783850185613485565b60ff16905080156112465760405162461bcd60e51b8152602060048201526024808201527f556e737570706f727465642072656d6f76616c20746f6b656e2069642076657260448201526339b4b7b760e11b6064820152608401610587565b61010083146112aa5760405162461bcd60e51b815260206004820152602a60248201527f72656d6f76616c4461746120636f6e7461696e732077726f6e67206e756d626560448201526972206f6620627974657360b01b6064820152608401610587565b60006112b8848601866134de565b9050600f816020015160ff16111561130a5760405162461bcd60e51b81526020600482015260156024820152744d6574686f6c6f646f677920746f6f206c6172676560581b6044820152606401610587565b600f816040015160ff1611156113625760405162461bcd60e51b815260206004820152601d60248201527f4d6574686f6c6f646f67792076657273696f6e20746f6f206c617267650000006044820152606401610587565b608081015160a082015160f882811c9260ff60f091821c8116939283901c9290911c16604184108015906113975750605a8411155b80156113a4575060418310155b80156113b15750605a8311155b80156113be575060418210155b80156113cb5750605a8211155b80156113d8575060418110155b80156113e55750605a8111155b6114215760405162461bcd60e51b815260206004820152600d60248201526c496e76616c696420415343494960981b6044820152606401610587565b600085604001516004876020015160ff16901b1760ff1690506008600061144891906135a2565b60e087015163ffffffff16901b611461600860046135a2565b60c08801516001600160a01b0316901b61147d600860186135a2565b60a089015160f01c901b6114936008601a6135a2565b60808a015160f01c901b6114a96008601c6135a2565b60608b015161ffff16901b6114c06008601e6135a2565b86901b6114cf6008601f6135a2565b8c6000015160ff16901b17171717171797505050505050505092915050565b6001600160a01b0383166115145760405162461bcd60e51b8152600401610587906135c1565b80518251146115355760405162461bcd60e51b815260040161058790613604565b600033905061155881856000868660405180602001604052806000815250612129565b60005b8351811015611620576000848281518110611578576115786132ae565b602002602001015190506000848381518110611596576115966132ae565b602090810291909101810151600084815260c9835260408082206001600160a01b038c1683529093529190912054909150818110156115e75760405162461bcd60e51b81526004016105879061364c565b600092835260c9602090815260408085206001600160a01b038b1686529091529092209103905580611618816132f2565b91505061155b565b5060006001600160a01b0316846001600160a01b0316826001600160a01b03167f4a39dc06d4c0dbc64b70af90fd698a233a518aa5d07e595d983b8c0526c8f7fb8686604051611671929190613690565b60405180910390a450505050565b6001600160a01b0384166116a55760405162461bcd60e51b8152600401610587906136be565b336116c5816000876116b688612137565b6116bf88612137565b87612129565b600084815260c9602090815260408083206001600160a01b0389168452909152812080548592906116f79084906132da565b909155505060408051858152602081018590526001600160a01b0380881692600092918516917fc3d58168c5ae7397731d063d5bbf3d657854427343f4c083240f7aacaa2d0f62910160405180910390a461086a81600087878787612182565b600054610100900460ff16610a1d5760405162461bcd60e51b8152600401610587906136ff565b61012d5460ff16156117c55760405162461bcd60e51b815260206004820152601060248201526f14185d5cd8589b194e881c185d5cd95960821b6044820152606401610587565b61012d805460ff191660011790557f62e78cea01bee320cd4e420270b5ea74000d11b0c9f74754ebdbfc544b05a2586111bb3390565b6000610a2b83836122dd565b60006105b5825490565b61181961293a565b60405180610100016040528061182e84612307565b60ff16815260200161183f84612316565b60ff1681526020016118508461232f565b60ff16815260200161186184612347565b61ffff16815260200161187384612356565b6001600160f01b031916815260200161188b8461236e565b6001600160f01b03191681526020016118a38461237d565b6001600160a01b031681526020016118ba8461238c565b63ffffffff16905292915050565b6001600160a01b0384166118ee5760405162461bcd60e51b81526004016105879061374a565b336118fe8187876116b688612137565b600084815260c9602090815260408083206001600160a01b038a168452909152902054838110156119415760405162461bcd60e51b81526004016105879061378f565b600085815260c9602090815260408083206001600160a01b038b81168552925280832087850390559088168252812080548692906119809084906132da565b909155505060408051868152602081018690526001600160a01b03808916928a821692918616917fc3d58168c5ae7397731d063d5bbf3d657854427343f4c083240f7aacaa2d0f62910160405180910390a46119e0828888888888612182565b50505050505050565b6001600160a01b038316611a0f5760405162461bcd60e51b8152600401610587906135c1565b33611a3e81856000611a2087612137565b611a2987612137565b60405180602001604052806000815250612129565b600083815260c9602090815260408083206001600160a01b038816845290915290205482811015611a815760405162461bcd60e51b81526004016105879061364c565b600084815260c9602090815260408083206001600160a01b03898116808652918452828520888703905582518981529384018890529092908616917fc3d58168c5ae7397731d063d5bbf3d657854427343f4c083240f7aacaa2d0f62910160405180910390a45050505050565b600054610100900460ff16611b155760405162461bcd60e51b8152600401610587906136ff565b611b1e8161239b565b611b266123cb565b610cac816123ff565b60006001600160e01b03198216636cdb3d1360e11b1480611b6057506001600160e01b031982166303a24d0760e21b145b806105b557506105b582612461565b6001600160a01b038416611b955760405162461bcd60e51b8152600401610587906136be565b8151835114611bb65760405162461bcd60e51b815260040161058790613604565b33611bc681600087878787612129565b60005b8451811015611c6257838181518110611be457611be46132ae565b602002602001015160c96000878481518110611c0257611c026132ae565b602002602001015181526020019081526020016000206000886001600160a01b03166001600160a01b031681526020019081526020016000206000828254611c4a91906132da565b90915550819050611c5a816132f2565b915050611bc9565b50846001600160a01b031660006001600160a01b0316826001600160a01b03167f4a39dc06d4c0dbc64b70af90fd698a233a518aa5d07e595d983b8c0526c8f7fb8787604051611cb3929190613690565b60405180910390a461086a81600087878787612486565b8151835114611ceb5760405162461bcd60e51b815260040161058790613604565b6001600160a01b038416611d115760405162461bcd60e51b81526004016105879061374a565b33611d20818787878787612129565b60005b8451811015611e09576000858281518110611d4057611d406132ae565b602002602001015190506000858381518110611d5e57611d5e6132ae565b602090810291909101810151600084815260c9835260408082206001600160a01b038e168352909352919091205490915081811015611daf5760405162461bcd60e51b81526004016105879061378f565b600083815260c9602090815260408083206001600160a01b038e8116855292528083208585039055908b16825281208054849290611dee9084906132da565b9250508190555050505080611e02906132f2565b9050611d23565b50846001600160a01b0316866001600160a01b0316826001600160a01b03167f4a39dc06d4c0dbc64b70af90fd698a233a518aa5d07e595d983b8c0526c8f7fb8787604051611e59929190613690565b60405180910390a4611e6f818787878787612486565b505050505050565b60606000611e868360026135a2565b611e919060026132da565b6001600160401b03811115611ea857611ea8612a9b565b6040519080825280601f01601f191660200182016040528015611ed2576020820181803683370190505b509050600360fc1b81600081518110611eed57611eed6132ae565b60200101906001600160f81b031916908160001a905350600f60fb1b81600181518110611f1c57611f1c6132ae565b60200101906001600160f81b031916908160001a9053506000611f408460026135a2565b611f4b9060016132da565b90505b6001811115611fc3576f181899199a1a9b1b9c1cb0b131b232b360811b85600f1660108110611f7f57611f7f6132ae565b1a60f81b828281518110611f9557611f956132ae565b60200101906001600160f81b031916908160001a90535060049490941c93611fbc816137d9565b9050611f4e565b508315610a2b5760405162461bcd60e51b815260206004820181905260248201527f537472696e67733a20686578206c656e67746820696e73756666696369656e746044820152606401610587565b61201c8282610d59565b6109235760008281526065602090815260408083206001600160a01b03851684529091529020805460ff191660011790556120543390565b6001600160a01b0316816001600160a01b0316837f2f8788117e7eff1d82e926ec794901d17c78024a50270940304540a733656f0d60405160405180910390a45050565b6000610a2b836001600160a01b038416612541565b6120b78282610d59565b156109235760008281526065602090815260408083206001600160a01b0385168085529252808320805460ff1916905551339285917ff6391f5c32d9c69d2a47ea670b442974b53935d1edc7fd64eb21e047a839171b9190a45050565b6000610a2b836001600160a01b038416612590565b611e6f86868686868661268a565b60408051600180825281830190925260609160009190602080830190803683370190505090508281600081518110612171576121716132ae565b602090810291909101015292915050565b6001600160a01b0384163b15611e6f5760405163f23a6e6160e01b81526001600160a01b0385169063f23a6e61906121c690899089908890889088906004016137f0565b6020604051808303816000875af1925050508015612201575060408051601f3d908101601f191682019092526121fe91810190613835565b60015b6122ad5761220d613852565b806308c379a003612246575061222161386e565b8061222c5750612248565b8060405162461bcd60e51b81526004016105879190612a6f565b505b60405162461bcd60e51b815260206004820152603460248201527f455243313135353a207472616e7366657220746f206e6f6e20455243313135356044820152732932b1b2b4bb32b91034b6b83632b6b2b73a32b960611b6064820152608401610587565b6001600160e01b0319811663f23a6e6160e01b146119e05760405162461bcd60e51b8152600401610587906138f7565b60008260000182815481106122f4576122f46132ae565b9060005260206000200154905092915050565b60006105b5826001601f6127a6565b60006004612327836001601e6127a6565b901c92915050565b600061233e826001601e6127a6565b600f1692915050565b60006105b5826002601c6127a6565b6000612365826002601a6127a6565b60f01b92915050565b600061236582600260186127a6565b60006105b582601460046127a6565b60006105b582600460006127a6565b600054610100900460ff166123c25760405162461bcd60e51b8152600401610587906136ff565b610cac816127f2565b600054610100900460ff166123f25760405162461bcd60e51b8152600401610587906136ff565b61012d805460ff19169055565b600054610100900460ff166124265760405162461bcd60e51b8152600401610587906136ff565b612431600033612805565b612449600080516020613adb83398151915233612805565b610cac600080516020613abb83398151915233612805565b60006001600160e01b03198216635a05180f60e01b14806105b557506105b58261280f565b6001600160a01b0384163b15611e6f5760405163bc197c8160e01b81526001600160a01b0385169063bc197c81906124ca908990899088908890889060040161393f565b6020604051808303816000875af1925050508015612505575060408051601f3d908101601f1916820190925261250291810190613835565b60015b6125115761220d613852565b6001600160e01b0319811663bc197c8160e01b146119e05760405162461bcd60e51b8152600401610587906138f7565b6000818152600183016020526040812054612588575081546001818101845560008481526020808220909301849055845484825282860190935260409020919091556105b5565b5060006105b5565b600081815260018301602052604081205480156126795760006125b460018361399d565b85549091506000906125c89060019061399d565b905081811461262d5760008660000182815481106125e8576125e86132ae565b906000526020600020015490508087600001848154811061260b5761260b6132ae565b6000918252602080832090910192909255918252600188019052604090208390555b855486908061263e5761263e6139b4565b6001900381819060005260206000200160009055905585600101600086815260200190815260200160002060009055600193505050506105b5565b60009150506105b5565b5092915050565b612698868686868686612844565b6001600160a01b0385166127205760005b835181101561271e578281815181106126c4576126c46132ae565b60200260200101516101c360008684815181106126e3576126e36132ae565b60200260200101518152602001908152602001600020600082825461270891906132da565b909155506127179050816132f2565b90506126a9565b505b6001600160a01b038416611e6f5760005b83518110156119e05782818151811061274c5761274c6132ae565b60200260200101516101c3600086848151811061276b5761276b6132ae565b602002602001015181526020019081526020016000206000828254612790919061399d565b9091555061279f9050816132f2565b9050612731565b6000806127b46008846135a2565b60016127c16008876135a2565b6127cc906002613aae565b6127d6919061399d565b901b90508481166127e86008856135a2565b1c95945050505050565b80516109239060cb9060208401906128b6565b610923828261101f565b60006001600160e01b03198216637965db0b60e01b14806105b557506301ffc9a760e01b6001600160e01b03198316146105b5565b611e6f86868686868661012d5460ff1615611e6f5760405162461bcd60e51b815260206004820152602c60248201527f455243313135355061757361626c653a20746f6b656e207472616e736665722060448201526b1dda1a5b19481c185d5cd95960a21b6064820152608401610587565b8280546128c290613216565b90600052602060002090601f0160209004810192826128e4576000855561292a565b82601f106128fd57805160ff191683800117855561292a565b8280016001018555821561292a579182015b8281111561292a57825182559160200191906001019061290f565b5061293692915061297e565b5090565b6040805161010081018252600080825260208201819052918101829052606081018290526080810182905260a0810182905260c0810182905260e081019190915290565b5b80821115612936576000815560010161297f565b6001600160a01b0381168114610cac57600080fd5b80356129b381612993565b919050565b600080604083850312156129cb57600080fd5b82356129d681612993565b946020939093013593505050565b6001600160e01b031981168114610cac57600080fd5b600060208284031215612a0c57600080fd5b8135610a2b816129e4565b60005b83811015612a32578181015183820152602001612a1a565b838111156109855750506000910152565b60008151808452612a5b816020860160208601612a17565b601f01601f19169290920160200192915050565b602081526000610a2b6020830184612a43565b600060208284031215612a9457600080fd5b5035919050565b634e487b7160e01b600052604160045260246000fd5b601f8201601f191681016001600160401b0381118282101715612ad657612ad6612a9b565b6040525050565b60006001600160401b03821115612af657612af6612a9b565b5060051b60200190565b600082601f830112612b1157600080fd5b81356020612b1e82612add565b604051612b2b8282612ab1565b83815260059390931b8501820192828101915086841115612b4b57600080fd5b8286015b84811015612b665780358352918301918301612b4f565b509695505050505050565b60006001600160401b03831115612b8a57612b8a612a9b565b604051612ba1601f8501601f191660200182612ab1565b809150838152848484011115612bb657600080fd5b83836020830137600060208583010152509392505050565b600082601f830112612bdf57600080fd5b610a2b83833560208501612b71565b60008060008060808587031215612c0457600080fd5b8435612c0f81612993565b935060208501356001600160401b0380821115612c2b57600080fd5b612c3788838901612b00565b94506040870135915080821115612c4d57600080fd5b612c5988838901612b00565b93506060870135915080821115612c6f57600080fd5b50612c7c87828801612bce565b91505092959194509250565b600080600080600060a08688031215612ca057600080fd5b8535612cab81612993565b94506020860135612cbb81612993565b935060408601356001600160401b0380821115612cd757600080fd5b612ce389838a01612b00565b94506060880135915080821115612cf957600080fd5b612d0589838a01612b00565b93506080880135915080821115612d1b57600080fd5b50612d2888828901612bce565b9150509295509295909350565b60008060408385031215612d4857600080fd5b823591506020830135612d5a81612993565b809150509250929050565b8015158114610cac57600080fd5b600080600060608486031215612d8857600080fd5b8335612d9381612993565b92506020840135612da381612993565b91506040840135612db381612d65565b809150509250925092565b60008060208385031215612dd157600080fd5b82356001600160401b0380821115612de857600080fd5b818501915085601f830112612dfc57600080fd5b813581811115612e0b57600080fd5b866020828501011115612e1d57600080fd5b60209290920196919550909350505050565b60008060408385031215612e4257600080fd5b82356001600160401b0380821115612e5957600080fd5b818501915085601f830112612e6d57600080fd5b81356020612e7a82612add565b604051612e878282612ab1565b83815260059390931b8501820192828101915089841115612ea757600080fd5b948201945b83861015612ece578535612ebf81612993565b82529482019490820190612eac565b96505086013592505080821115612ee457600080fd5b50612ef185828601612b00565b9150509250929050565b600081518084526020808501945080840160005b83811015612f2b57815187529582019590820190600101612f0f565b509495945050505050565b602081526000610a2b6020830184612efb565b600080600060608486031215612f5e57600080fd5b8335612f6981612993565b925060208401356001600160401b0380821115612f8557600080fd5b612f9187838801612b00565b93506040860135915080821115612fa757600080fd5b50612fb486828701612b00565b9150509250925092565b60008060008060808587031215612fd457600080fd5b8435612fdf81612993565b9350602085013592506040850135915060608501356001600160401b0381111561300857600080fd5b612c7c87828801612bce565b6000806040838503121561302757600080fd5b50508035926020909101359150565b6000806040838503121561304957600080fd5b823561305481612993565b91506020830135612d5a81612d65565b60006101008201905060ff835116825260ff602084015116602083015260ff604084015116604083015261ffff606084015116606083015261ffff60f01b608084015116608083015260a08301516130c860a08401826001600160f01b0319169052565b5060c08301516130e360c08401826001600160a01b03169052565b5060e083015161268360e084018263ffffffff169052565b6000806040838503121561310e57600080fd5b823561311981612993565b91506020830135612d5a81612993565b600080600080600060a0868803121561314157600080fd5b853561314c81612993565b9450602086013561315c81612993565b9350604086013592506060860135915060808601356001600160401b0381111561318557600080fd5b612d2888828901612bce565b6000806000606084860312156131a657600080fd5b83356131b181612993565b95602085013595506040909401359392505050565b6000602082840312156131d857600080fd5b81356001600160401b038111156131ee57600080fd5b8201601f810184136131ff57600080fd5b61320e84823560208401612b71565b949350505050565b600181811c9082168061322a57607f821691505b60208210810361324a57634e487b7160e01b600052602260045260246000fd5b50919050565b60006040828403121561326257600080fd5b604051604081018181106001600160401b038211171561328457613284612a9b565b604052825161329281612993565b815260208301516132a281612d65565b60208201529392505050565b634e487b7160e01b600052603260045260246000fd5b634e487b7160e01b600052601160045260246000fd5b600082198211156132ed576132ed6132c4565b500190565b600060018201613304576133046132c4565b5060010190565b60208082526029908201527f455243313135353a2063616c6c6572206973206e6f74206f776e6572206e6f7260408201526808185c1c1c9bdd995960ba1b606082015260800190565b60208082526038908201527f455243313135355072657365744d696e7465725061757365723a206d7573742060408201527f68617665206d696e74657220726f6c6520746f206d696e740000000000000000606082015260800190565b6020808252602e908201527f496e697469616c697a61626c653a20636f6e747261637420697320616c72656160408201526d191e481a5b9a5d1a585b1a5e995960921b606082015260800190565b7f416363657373436f6e74726f6c3a206163636f756e7420000000000000000000815260008351613437816017850160208801612a17565b7001034b99036b4b9b9b4b733903937b6329607d1b6017918401918201528351613468816028840160208801612a17565b01602801949350505050565b803560ff811681146129b357600080fd5b60006020828403121561349757600080fd5b610a2b82613474565b803561ffff811681146129b357600080fd5b80356001600160f01b0319811681146129b357600080fd5b803563ffffffff811681146129b357600080fd5b60006101008083850312156134f257600080fd5b604051908101906001600160401b038211818310171561351457613514612a9b565b8160405261352184613474565b815261352f60208501613474565b602082015261354060408501613474565b6040820152613551606085016134a0565b6060820152613562608085016134b2565b608082015261357360a085016134b2565b60a082015261358460c085016129a8565b60c082015261359560e085016134ca565b60e0820152949350505050565b60008160001904831182151516156135bc576135bc6132c4565b500290565b60208082526023908201527f455243313135353a206275726e2066726f6d20746865207a65726f206164647260408201526265737360e81b606082015260800190565b60208082526028908201527f455243313135353a2069647320616e6420616d6f756e7473206c656e677468206040820152670dad2e6dac2e8c6d60c31b606082015260800190565b60208082526024908201527f455243313135353a206275726e20616d6f756e7420657863656564732062616c604082015263616e636560e01b606082015260800190565b6040815260006136a36040830185612efb565b82810360208401526136b58185612efb565b95945050505050565b60208082526021908201527f455243313135353a206d696e7420746f20746865207a65726f206164647265736040820152607360f81b606082015260800190565b6020808252602b908201527f496e697469616c697a61626c653a20636f6e7472616374206973206e6f74206960408201526a6e697469616c697a696e6760a81b606082015260800190565b60208082526025908201527f455243313135353a207472616e7366657220746f20746865207a65726f206164604082015264647265737360d81b606082015260800190565b6020808252602a908201527f455243313135353a20696e73756666696369656e742062616c616e636520666f60408201526939103a3930b739b332b960b11b606082015260800190565b6000816137e8576137e86132c4565b506000190190565b6001600160a01b03868116825285166020820152604081018490526060810183905260a06080820181905260009061382a90830184612a43565b979650505050505050565b60006020828403121561384757600080fd5b8151610a2b816129e4565b600060033d111561386b5760046000803e5060005160e01c5b90565b600060443d101561387c5790565b6040516003193d81016004833e81513d6001600160401b0381602484011181841117156138ab57505050505090565b82850191508151818111156138c35750505050505090565b843d87010160208285010111156138dd5750505050505090565b6138ec60208286010187612ab1565b509095945050505050565b60208082526028908201527f455243313135353a204552433131353552656365697665722072656a656374656040820152676420746f6b656e7360c01b606082015260800190565b6001600160a01b0386811682528516602082015260a06040820181905260009061396b90830186612efb565b828103606084015261397d8186612efb565b905082810360808401526139918185612a43565b98975050505050505050565b6000828210156139af576139af6132c4565b500390565b634e487b7160e01b600052603160045260246000fd5b600181815b80851115613a055781600019048211156139eb576139eb6132c4565b808516156139f857918102915b93841c93908002906139cf565b509250929050565b600082613a1c575060016105b5565b81613a29575060006105b5565b8160018114613a3f5760028114613a4957613a65565b60019150506105b5565b60ff841115613a5a57613a5a6132c4565b50506001821b6105b5565b5060208310610133831016604e8410600b8410161715613a88575081810a6105b5565b613a9283836139ca565b8060001904821115613aa657613aa66132c4565b029392505050565b6000610a2b8383613a0d56fe65d7a28e3265b37a6474929f336521b332c1681b933f6cb9f3376673440d862a9f2df0fed2c77648de5860a4cc508cd0818c85b8b8a1ab4ceeef8d981c8956a668747470733a2f2f6e6f72692e636f6d2f6170692f72656d6f76616c2f7b69647d2e6a736f6ea2646970667358221220a5de2f67870a718d8bd3183ce06d12ad7d4e055a16f565678a4655744cec060864736f6c634300080d0033","abi":[{"anonymous":false,"inputs":[{"indexed":true,"internalType":"address","name":"account","type":"address"},{"indexed":true,"internalType":"address","name":"operator","type":"address"},{"indexed":false,"internalType":"bool","name":"approved","type":"bool"}],"name":"ApprovalForAll","type":"event"},{"anonymous":false,"inputs":[{"indexed":false,"internalType":"address","name":"account","type":"address"}],"name":"Paused","type":"event"},{"anonymous":false,"inputs":[{"indexed":true,"internalType":"bytes32","name":"role","type":"bytes32"},{"indexed":true,"internalType":"bytes32","name":"previousAdminRole","type":"bytes32"},{"indexed":true,"internalType":"bytes32","name":"newAdminRole","type":"bytes32"}],"name":"RoleAdminChanged","type":"event"},{"anonymous":false,"inputs":[{"indexed":true,"internalType":"bytes32","name":"role","type":"bytes32"},{"indexed":true,"internalType":"address","name":"account","type":"address"},{"indexed":true,"internalType":"address","name":"sender","type":"address"}],"name":"RoleGranted","type":"event"},{"anonymous":false,"inputs":[{"indexed":true,"internalType":"bytes32","name":"role","type":"bytes32"},{"indexed":true,"internalType":"address","name":"account","type":"address"},{"indexed":true,"internalType":"address","name":"sender","type":"address"}],"name":"RoleRevoked","type":"event"},{"anonymous":false,"inputs":[{"indexed":true,"internalType":"address","name":"operator","type":"address"},{"indexed":true,"internalType":"address","name":"from","type":"address"},{"indexed":true,"internalType":"address","name":"to","type":"address"},{"indexed":false,"internalType":"uint256[]","name":"ids","type":"uint256[]"},{"indexed":false,"internalType":"uint256[]","name":"values","type":"uint256[]"}],"name":"TransferBatch","type":"event"},{"anonymous":false,"inputs":[{"indexed":true,"internalType":"address","name":"operator","type":"address"},{"indexed":true,"internalType":"address","name":"from","type":"address"},{"indexed":true,"internalType":"address","name":"to","type":"address"},{"indexed":false,"internalType":"uint256","name":"id","type":"uint256"},{"indexed":false,"internalType":"uint256","name":"value","type":"uint256"}],"name":"TransferSingle","type":"event"},{"anonymous":false,"inputs":[{"indexed":false,"internalType":"string","name":"value","type":"string"},{"indexed":true,"internalType":"uint256","name":"id","type":"uint256"}],"name":"URI","type":"event"},{"anonymous":false,"inputs":[{"indexed":false,"internalType":"address","name":"account","type":"address"}],"name":"Unpaused","type":"event"},{"inputs":[],"name":"DEFAULT_ADMIN_ROLE","outputs":[{"internalType":"bytes32","name":"","type":"bytes32"}],"stateMutability":"view","type":"function"},{"inputs":[],"name":"MINTER_ROLE","outputs":[{"internalType":"bytes32","name":"","type":"bytes32"}],"stateMutability":"view","type":"function"},{"inputs":[],"name":"PAUSER_ROLE","outputs":[{"internalType":"bytes32","name":"","type":"bytes32"}],"stateMutability":"view","type":"function"},{"inputs":[{"internalType":"address","name":"account","type":"address"},{"internalType":"uint256","name":"id","type":"uint256"}],"name":"balanceOf","outputs":[{"internalType":"uint256","name":"","type":"uint256"}],"stateMutability":"view","type":"function"},{"inputs":[{"internalType":"address[]","name":"accounts","type":"address[]"},{"internalType":"uint256[]","name":"ids","type":"uint256[]"}],"name":"balanceOfBatch","outputs":[{"internalType":"uint256[]","name":"","type":"uint256[]"}],"stateMutability":"view","type":"function"},{"inputs":[{"internalType":"address","name":"account","type":"address"},{"internalType":"uint256","name":"id","type":"uint256"},{"internalType":"uint256","name":"value","type":"uint256"}],"name":"burn","outputs":[],"stateMutability":"nonpayable","type":"function"},{"inputs":[{"internalType":"address","name":"account","type":"address"},{"internalType":"uint256[]","name":"ids","type":"uint256[]"},{"internalType":"uint256[]","name":"values","type":"uint256[]"}],"name":"burnBatch","outputs":[],"stateMutability":"nonpayable","type":"function"},{"inputs":[{"internalType":"bytes","name":"removalData","type":"bytes"}],"name":"createRemovalId","outputs":[{"internalType":"uint256","name":"","type":"uint256"}],"stateMutability":"pure","type":"function"},{"inputs":[{"internalType":"uint256","name":"id","type":"uint256"}],"name":"exists","outputs":[{"internalType":"bool","name":"","type":"bool"}],"stateMutability":"view","type":"function"},{"inputs":[{"internalType":"bytes32","name":"role","type":"bytes32"}],"name":"getRoleAdmin","outputs":[{"internalType":"bytes32","name":"","type":"bytes32"}],"stateMutability":"view","type":"function"},{"inputs":[{"internalType":"bytes32","name":"role","type":"bytes32"},{"internalType":"uint256","name":"index","type":"uint256"}],"name":"getRoleMember","outputs":[{"internalType":"address","name":"","type":"address"}],"stateMutability":"view","type":"function"},{"inputs":[{"internalType":"bytes32","name":"role","type":"bytes32"}],"name":"getRoleMemberCount","outputs":[{"internalType":"uint256","name":"","type":"uint256"}],"stateMutability":"view","type":"function"},{"inputs":[{"internalType":"bytes32","name":"role","type":"bytes32"},{"internalType":"address","name":"account","type":"address"}],"name":"grantRole","outputs":[],"stateMutability":"nonpayable","type":"function"},{"inputs":[{"internalType":"bytes32","name":"role","type":"bytes32"},{"internalType":"address","name":"account","type":"address"}],"name":"hasRole","outputs":[{"internalType":"bool","name":"","type":"bool"}],"stateMutability":"view","type":"function"},{"inputs":[{"internalType":"uint256","name":"","type":"uint256"}],"name":"indexToTokenId","outputs":[{"internalType":"uint256","name":"","type":"uint256"}],"stateMutability":"view","type":"function"},{"inputs":[],"name":"initialize","outputs":[],"stateMutability":"nonpayable","type":"function"},{"inputs":[{"internalType":"string","name":"uri","type":"string"}],"name":"initialize","outputs":[],"stateMutability":"nonpayable","type":"function"},{"inputs":[{"internalType":"address","name":"account","type":"address"},{"internalType":"address","name":"operator","type":"address"}],"name":"isApprovedForAll","outputs":[{"internalType":"bool","name":"","type":"bool"}],"stateMutability":"view","type":"function"},{"inputs":[{"internalType":"address","name":"to","type":"address"},{"internalType":"uint256","name":"id","type":"uint256"},{"internalType":"uint256","name":"amount","type":"uint256"},{"internalType":"bytes","name":"data","type":"bytes"}],"name":"mint","outputs":[],"stateMutability":"nonpayable","type":"function"},{"inputs":[{"internalType":"address","name":"to","type":"address"},{"internalType":"uint256[]","name":"amounts","type":"uint256[]"},{"internalType":"uint256[]","name":"ids","type":"uint256[]"},{"internalType":"bytes","name":"data","type":"bytes"}],"name":"mintBatch","outputs":[],"stateMutability":"nonpayable","type":"function"},{"inputs":[],"name":"name","outputs":[{"internalType":"string","name":"","type":"string"}],"stateMutability":"view","type":"function"},{"inputs":[],"name":"pause","outputs":[],"stateMutability":"nonpayable","type":"function"},{"inputs":[],"name":"paused","outputs":[{"internalType":"bool","name":"","type":"bool"}],"stateMutability":"view","type":"function"},{"inputs":[{"internalType":"bytes32","name":"role","type":"bytes32"},{"internalType":"address","name":"account","type":"address"}],"name":"renounceRole","outputs":[],"stateMutability":"nonpayable","type":"function"},{"inputs":[{"internalType":"bytes32","name":"role","type":"bytes32"},{"internalType":"address","name":"account","type":"address"}],"name":"revokeRole","outputs":[],"stateMutability":"nonpayable","type":"function"},{"inputs":[{"internalType":"address","name":"_from","type":"address"},{"internalType":"address","name":"_to","type":"address"},{"internalType":"uint256[]","name":"_ids","type":"uint256[]"},{"internalType":"uint256[]","name":"_amounts","type":"uint256[]"},{"internalType":"bytes","name":"_data","type":"bytes"}],"name":"safeBatchTransferFrom","outputs":[],"stateMutability":"nonpayable","type":"function"},{"inputs":[{"internalType":"address","name":"from","type":"address"},{"internalType":"address","name":"to","type":"address"},{"internalType":"uint256","name":"id","type":"uint256"},{"internalType":"uint256","name":"amount","type":"uint256"},{"internalType":"bytes","name":"data","type":"bytes"}],"name":"safeTransferFrom","outputs":[],"stateMutability":"nonpayable","type":"function"},{"inputs":[{"internalType":"address","name":"owner","type":"address"},{"internalType":"address","name":"operator","type":"address"},{"internalType":"bool","name":"approved","type":"bool"}],"name":"setApprovalForAll","outputs":[],"stateMutability":"nonpayable","type":"function"},{"inputs":[{"internalType":"address","name":"operator","type":"address"},{"internalType":"bool","name":"approved","type":"bool"}],"name":"setApprovalForAll","outputs":[],"stateMutability":"nonpayable","type":"function"},{"inputs":[{"internalType":"bytes4","name":"interfaceId","type":"bytes4"}],"name":"supportsInterface","outputs":[{"internalType":"bool","name":"","type":"bool"}],"stateMutability":"view","type":"function"},{"inputs":[{"internalType":"uint256","name":"id","type":"uint256"}],"name":"totalSupply","outputs":[{"internalType":"uint256","name":"","type":"uint256"}],"stateMutability":"view","type":"function"},{"inputs":[{"internalType":"uint256","name":"removalId","type":"uint256"}],"name":"unpackRemovalIdV0","outputs":[{"components":[{"internalType":"uint8","name":"idVersion","type":"uint8"},{"internalType":"uint8","name":"methodology","type":"uint8"},{"internalType":"uint8","name":"methodologyVersion","type":"uint8"},{"internalType":"uint16","name":"vintage","type":"uint16"},{"internalType":"bytes2","name":"country","type":"bytes2"},{"internalType":"bytes2","name":"subdivision","type":"bytes2"},{"internalType":"address","name":"supplierAddress","type":"address"},{"internalType":"uint32","name":"subIdentifier","type":"uint32"}],"internalType":"struct UnpackedRemovalIdV0","name":"","type":"tuple"}],"stateMutability":"pure","type":"function"},{"inputs":[],"name":"unpause","outputs":[],"stateMutability":"nonpayable","type":"function"},{"inputs":[{"internalType":"uint256","name":"","type":"uint256"}],"name":"uri","outputs":[{"internalType":"string","name":"","type":"string"}],"stateMutability":"view","type":"function"}]}