{
  "_format": "hh-sol-artifact-1",
  "contractName": "LockedNORI",
  "sourceName": "contracts/LockedNORI.sol",
  "abi": [
    {
      "anonymous": false,
      "inputs": [
        {
          "indexed": true,
          "internalType": "address",
          "name": "owner",
          "type": "address"
        },
        {
          "indexed": true,
          "internalType": "address",
          "name": "spender",
          "type": "address"
        },
        {
          "indexed": false,
          "internalType": "uint256",
          "name": "value",
          "type": "uint256"
        }
      ],
      "name": "Approval",
      "type": "event"
    },
    {
      "anonymous": false,
      "inputs": [
        {
          "indexed": true,
          "internalType": "address",
          "name": "operator",
          "type": "address"
        },
        {
          "indexed": true,
          "internalType": "address",
          "name": "tokenHolder",
          "type": "address"
        }
      ],
      "name": "AuthorizedOperator",
      "type": "event"
    },
    {
      "anonymous": false,
      "inputs": [
        {
          "indexed": true,
          "internalType": "address",
          "name": "operator",
          "type": "address"
        },
        {
          "indexed": true,
          "internalType": "address",
          "name": "from",
          "type": "address"
        },
        {
          "indexed": false,
          "internalType": "uint256",
          "name": "amount",
          "type": "uint256"
        },
        {
          "indexed": false,
          "internalType": "bytes",
          "name": "data",
          "type": "bytes"
        },
        {
          "indexed": false,
          "internalType": "bytes",
          "name": "operatorData",
          "type": "bytes"
        }
      ],
      "name": "Burned",
      "type": "event"
    },
    {
      "anonymous": false,
      "inputs": [
        {
          "indexed": true,
          "internalType": "address",
          "name": "operator",
          "type": "address"
        },
        {
          "indexed": true,
          "internalType": "address",
          "name": "to",
          "type": "address"
        },
        {
          "indexed": false,
          "internalType": "uint256",
          "name": "amount",
          "type": "uint256"
        },
        {
          "indexed": false,
          "internalType": "bytes",
          "name": "data",
          "type": "bytes"
        },
        {
          "indexed": false,
          "internalType": "bytes",
          "name": "operatorData",
          "type": "bytes"
        }
      ],
      "name": "Minted",
      "type": "event"
    },
    {
      "anonymous": false,
      "inputs": [
        {
          "indexed": false,
          "internalType": "address",
          "name": "account",
          "type": "address"
        }
      ],
      "name": "Paused",
      "type": "event"
    },
    {
      "anonymous": false,
      "inputs": [
        {
          "indexed": true,
          "internalType": "address",
          "name": "operator",
          "type": "address"
        },
        {
          "indexed": true,
          "internalType": "address",
          "name": "tokenHolder",
          "type": "address"
        }
      ],
      "name": "RevokedOperator",
      "type": "event"
    },
    {
      "anonymous": false,
      "inputs": [
        {
          "indexed": true,
          "internalType": "bytes32",
          "name": "role",
          "type": "bytes32"
        },
        {
          "indexed": true,
          "internalType": "bytes32",
          "name": "previousAdminRole",
          "type": "bytes32"
        },
        {
          "indexed": true,
          "internalType": "bytes32",
          "name": "newAdminRole",
          "type": "bytes32"
        }
      ],
      "name": "RoleAdminChanged",
      "type": "event"
    },
    {
      "anonymous": false,
      "inputs": [
        {
          "indexed": true,
          "internalType": "bytes32",
          "name": "role",
          "type": "bytes32"
        },
        {
          "indexed": true,
          "internalType": "address",
          "name": "account",
          "type": "address"
        },
        {
          "indexed": true,
          "internalType": "address",
          "name": "sender",
          "type": "address"
        }
      ],
      "name": "RoleGranted",
      "type": "event"
    },
    {
      "anonymous": false,
      "inputs": [
        {
          "indexed": true,
          "internalType": "bytes32",
          "name": "role",
          "type": "bytes32"
        },
        {
          "indexed": true,
          "internalType": "address",
          "name": "account",
          "type": "address"
        },
        {
          "indexed": true,
          "internalType": "address",
          "name": "sender",
          "type": "address"
        }
      ],
      "name": "RoleRevoked",
      "type": "event"
    },
    {
      "anonymous": false,
      "inputs": [
        {
          "indexed": true,
          "internalType": "address",
          "name": "operator",
          "type": "address"
        },
        {
          "indexed": true,
          "internalType": "address",
          "name": "from",
          "type": "address"
        },
        {
          "indexed": true,
          "internalType": "address",
          "name": "to",
          "type": "address"
        },
        {
          "indexed": false,
          "internalType": "uint256",
          "name": "amount",
          "type": "uint256"
        },
        {
          "indexed": false,
          "internalType": "bytes",
          "name": "data",
          "type": "bytes"
        },
        {
          "indexed": false,
          "internalType": "bytes",
          "name": "operatorData",
          "type": "bytes"
        }
      ],
      "name": "Sent",
      "type": "event"
    },
    {
      "anonymous": false,
      "inputs": [
        {
          "indexed": true,
          "internalType": "address",
          "name": "recipient",
          "type": "address"
        },
        {
          "indexed": false,
          "internalType": "uint256",
          "name": "amount",
          "type": "uint256"
        },
        {
          "indexed": false,
          "internalType": "uint256",
          "name": "startTime",
          "type": "uint256"
        },
        {
          "indexed": false,
          "internalType": "uint256",
          "name": "vestEndTime",
          "type": "uint256"
        },
        {
          "indexed": false,
          "internalType": "uint256",
          "name": "unlockEndTime",
          "type": "uint256"
        }
      ],
      "name": "TokenGrantCreated",
      "type": "event"
    },
    {
      "anonymous": false,
      "inputs": [
        {
          "indexed": false,
          "internalType": "address",
          "name": "from",
          "type": "address"
        },
        {
          "indexed": false,
          "internalType": "address",
          "name": "to",
          "type": "address"
        },
        {
          "indexed": false,
          "internalType": "uint256",
          "name": "quantity",
          "type": "uint256"
        }
      ],
      "name": "TokensClaimed",
      "type": "event"
    },
    {
      "anonymous": false,
      "inputs": [
        {
          "indexed": true,
          "internalType": "address",
          "name": "from",
          "type": "address"
        },
        {
          "indexed": true,
          "internalType": "address",
          "name": "to",
          "type": "address"
        },
        {
          "indexed": false,
          "internalType": "uint256",
          "name": "value",
          "type": "uint256"
        }
      ],
      "name": "Transfer",
      "type": "event"
    },
    {
      "anonymous": false,
      "inputs": [
        {
          "indexed": false,
          "internalType": "address",
          "name": "account",
          "type": "address"
        }
      ],
      "name": "Unpaused",
      "type": "event"
    },
    {
      "anonymous": false,
      "inputs": [
        {
          "indexed": false,
          "internalType": "uint256",
          "name": "atTime",
          "type": "uint256"
        },
        {
          "indexed": false,
          "internalType": "address",
          "name": "from",
          "type": "address"
        },
        {
          "indexed": false,
          "internalType": "uint256",
          "name": "quantity",
          "type": "uint256"
        }
      ],
      "name": "UnvestedTokensRevoked",
      "type": "event"
    },
    {
      "inputs": [],
      "name": "DEFAULT_ADMIN_ROLE",
      "outputs": [
        {
          "internalType": "bytes32",
          "name": "",
          "type": "bytes32"
        }
      ],
      "stateMutability": "view",
      "type": "function"
    },
    {
      "inputs": [],
      "name": "ERC777_TOKENS_RECIPIENT_HASH",
      "outputs": [
        {
          "internalType": "bytes32",
          "name": "",
          "type": "bytes32"
        }
      ],
      "stateMutability": "view",
      "type": "function"
    },
    {
      "inputs": [],
      "name": "PAUSER_ROLE",
      "outputs": [
        {
          "internalType": "bytes32",
          "name": "",
          "type": "bytes32"
        }
      ],
      "stateMutability": "view",
      "type": "function"
    },
    {
      "inputs": [],
      "name": "TOKEN_GRANTER_ROLE",
      "outputs": [
        {
          "internalType": "bytes32",
          "name": "",
          "type": "bytes32"
        }
      ],
      "stateMutability": "view",
      "type": "function"
    },
    {
      "inputs": [
        {
          "internalType": "address",
          "name": "holder",
          "type": "address"
        },
        {
          "internalType": "address",
          "name": "spender",
          "type": "address"
        }
      ],
      "name": "allowance",
      "outputs": [
        {
          "internalType": "uint256",
          "name": "",
          "type": "uint256"
        }
      ],
      "stateMutability": "view",
      "type": "function"
    },
    {
      "inputs": [
        {
          "internalType": "address",
          "name": "spender",
          "type": "address"
        },
        {
          "internalType": "uint256",
          "name": "value",
          "type": "uint256"
        }
      ],
      "name": "approve",
      "outputs": [
        {
          "internalType": "bool",
          "name": "",
          "type": "bool"
        }
      ],
      "stateMutability": "nonpayable",
      "type": "function"
    },
    {
      "inputs": [
        {
          "internalType": "address",
          "name": "operator",
          "type": "address"
        }
      ],
      "name": "authorizeOperator",
      "outputs": [],
      "stateMutability": "nonpayable",
      "type": "function"
    },
    {
      "inputs": [
        {
          "internalType": "address",
          "name": "tokenHolder",
          "type": "address"
        }
      ],
      "name": "balanceOf",
      "outputs": [
        {
          "internalType": "uint256",
          "name": "",
          "type": "uint256"
        }
      ],
      "stateMutability": "view",
      "type": "function"
    },
    {
      "inputs": [
        {
          "internalType": "uint256",
          "name": "",
          "type": "uint256"
        },
        {
          "internalType": "bytes",
          "name": "",
          "type": "bytes"
        }
      ],
      "name": "burn",
      "outputs": [],
      "stateMutability": "pure",
      "type": "function"
    },
    {
      "inputs": [
        {
          "internalType": "uint256",
          "name": "amount",
          "type": "uint256"
        },
        {
          "internalType": "address",
          "name": "recipient",
          "type": "address"
        },
        {
          "internalType": "uint256",
          "name": "startTime",
          "type": "uint256"
        },
        {
          "internalType": "uint256",
          "name": "vestEndTime",
          "type": "uint256"
        },
        {
          "internalType": "uint256",
          "name": "unlockEndTime",
          "type": "uint256"
        },
        {
          "internalType": "uint256",
          "name": "cliff1Time",
          "type": "uint256"
        },
        {
          "internalType": "uint256",
          "name": "cliff2Time",
          "type": "uint256"
        },
        {
          "internalType": "uint256",
          "name": "vestCliff1Amount",
          "type": "uint256"
        },
        {
          "internalType": "uint256",
          "name": "vestCliff2Amount",
          "type": "uint256"
        },
        {
          "internalType": "uint256",
          "name": "unlockCliff1Amount",
          "type": "uint256"
        },
        {
          "internalType": "uint256",
          "name": "unlockCliff2Amount",
          "type": "uint256"
        }
      ],
      "name": "createGrant",
      "outputs": [],
      "stateMutability": "nonpayable",
      "type": "function"
    },
    {
      "inputs": [],
      "name": "decimals",
      "outputs": [
        {
          "internalType": "uint8",
          "name": "",
          "type": "uint8"
        }
      ],
      "stateMutability": "pure",
      "type": "function"
    },
    {
      "inputs": [],
      "name": "defaultOperators",
      "outputs": [
        {
          "internalType": "address[]",
          "name": "",
          "type": "address[]"
        }
      ],
      "stateMutability": "view",
      "type": "function"
    },
    {
      "inputs": [
        {
          "internalType": "address",
          "name": "account",
          "type": "address"
        }
      ],
      "name": "getGrant",
      "outputs": [
        {
          "components": [
            {
              "internalType": "uint256",
              "name": "grantAmount",
              "type": "uint256"
            },
            {
              "internalType": "address",
              "name": "recipient",
              "type": "address"
            },
            {
              "internalType": "uint256",
              "name": "startTime",
              "type": "uint256"
            },
            {
              "internalType": "uint256",
              "name": "vestEndTime",
              "type": "uint256"
            },
            {
              "internalType": "uint256",
              "name": "unlockEndTime",
              "type": "uint256"
            },
            {
              "internalType": "uint256",
              "name": "cliff1Time",
              "type": "uint256"
            },
            {
              "internalType": "uint256",
              "name": "cliff2Time",
              "type": "uint256"
            },
            {
              "internalType": "uint256",
              "name": "vestCliff1Amount",
              "type": "uint256"
            },
            {
              "internalType": "uint256",
              "name": "vestCliff2Amount",
              "type": "uint256"
            },
            {
              "internalType": "uint256",
              "name": "unlockCliff1Amount",
              "type": "uint256"
            },
            {
              "internalType": "uint256",
              "name": "unlockCliff2Amount",
              "type": "uint256"
            },
            {
              "internalType": "uint256",
              "name": "claimedAmount",
              "type": "uint256"
            },
            {
              "internalType": "uint256",
              "name": "originalAmount",
              "type": "uint256"
            }
          ],
          "internalType": "struct LockedNORI.TokenGrantDetail",
          "name": "",
          "type": "tuple"
        }
      ],
      "stateMutability": "view",
      "type": "function"
    },
    {
      "inputs": [
        {
          "internalType": "bytes32",
          "name": "role",
          "type": "bytes32"
        }
      ],
      "name": "getRoleAdmin",
      "outputs": [
        {
          "internalType": "bytes32",
          "name": "",
          "type": "bytes32"
        }
      ],
      "stateMutability": "view",
      "type": "function"
    },
    {
      "inputs": [
        {
          "internalType": "bytes32",
          "name": "role",
          "type": "bytes32"
        },
        {
          "internalType": "uint256",
          "name": "index",
          "type": "uint256"
        }
      ],
      "name": "getRoleMember",
      "outputs": [
        {
          "internalType": "address",
          "name": "",
          "type": "address"
        }
      ],
      "stateMutability": "view",
      "type": "function"
    },
    {
      "inputs": [
        {
          "internalType": "bytes32",
          "name": "role",
          "type": "bytes32"
        }
      ],
      "name": "getRoleMemberCount",
      "outputs": [
        {
          "internalType": "uint256",
          "name": "",
          "type": "uint256"
        }
      ],
      "stateMutability": "view",
      "type": "function"
    },
    {
      "inputs": [
        {
          "internalType": "bytes32",
          "name": "role",
          "type": "bytes32"
        },
        {
          "internalType": "address",
          "name": "account",
          "type": "address"
        }
      ],
      "name": "grantRole",
      "outputs": [],
      "stateMutability": "nonpayable",
      "type": "function"
    },
    {
      "inputs": [],
      "name": "granularity",
      "outputs": [
        {
          "internalType": "uint256",
          "name": "",
          "type": "uint256"
        }
      ],
      "stateMutability": "view",
      "type": "function"
    },
    {
      "inputs": [
        {
          "internalType": "bytes32",
          "name": "role",
          "type": "bytes32"
        },
        {
          "internalType": "address",
          "name": "account",
          "type": "address"
        }
      ],
      "name": "hasRole",
      "outputs": [
        {
          "internalType": "bool",
          "name": "",
          "type": "bool"
        }
      ],
      "stateMutability": "view",
      "type": "function"
    },
    {
      "inputs": [
        {
          "internalType": "contract IERC777Upgradeable",
          "name": "bridgedPolygonNoriAddress",
          "type": "address"
        }
      ],
      "name": "initialize",
      "outputs": [],
      "stateMutability": "nonpayable",
      "type": "function"
    },
    {
      "inputs": [
        {
          "internalType": "address",
          "name": "operator",
          "type": "address"
        },
        {
          "internalType": "address",
          "name": "tokenHolder",
          "type": "address"
        }
      ],
      "name": "isOperatorFor",
      "outputs": [
        {
          "internalType": "bool",
          "name": "",
          "type": "bool"
        }
      ],
      "stateMutability": "view",
      "type": "function"
    },
    {
      "inputs": [],
      "name": "name",
      "outputs": [
        {
          "internalType": "string",
          "name": "",
          "type": "string"
        }
      ],
      "stateMutability": "view",
      "type": "function"
    },
    {
      "inputs": [
        {
          "internalType": "address",
          "name": "",
          "type": "address"
        },
        {
          "internalType": "uint256",
          "name": "",
          "type": "uint256"
        },
        {
          "internalType": "bytes",
          "name": "",
          "type": "bytes"
        },
        {
          "internalType": "bytes",
          "name": "",
          "type": "bytes"
        }
      ],
      "name": "operatorBurn",
      "outputs": [],
      "stateMutability": "pure",
      "type": "function"
    },
    {
      "inputs": [
        {
          "internalType": "address",
          "name": "sender",
          "type": "address"
        },
        {
          "internalType": "address",
          "name": "recipient",
          "type": "address"
        },
        {
          "internalType": "uint256",
          "name": "amount",
          "type": "uint256"
        },
        {
          "internalType": "bytes",
          "name": "data",
          "type": "bytes"
        },
        {
          "internalType": "bytes",
          "name": "operatorData",
          "type": "bytes"
        }
      ],
      "name": "operatorSend",
      "outputs": [],
      "stateMutability": "nonpayable",
      "type": "function"
    },
    {
      "inputs": [],
      "name": "pause",
      "outputs": [],
      "stateMutability": "nonpayable",
      "type": "function"
    },
    {
      "inputs": [],
      "name": "paused",
      "outputs": [
        {
          "internalType": "bool",
          "name": "",
          "type": "bool"
        }
      ],
      "stateMutability": "view",
      "type": "function"
    },
    {
      "inputs": [
        {
          "internalType": "address",
          "name": "account",
          "type": "address"
        }
      ],
      "name": "quantityRevokedFrom",
      "outputs": [
        {
          "internalType": "uint256",
          "name": "",
          "type": "uint256"
        }
      ],
      "stateMutability": "view",
      "type": "function"
    },
    {
      "inputs": [
        {
          "internalType": "bytes32",
          "name": "role",
          "type": "bytes32"
        },
        {
          "internalType": "address",
          "name": "account",
          "type": "address"
        }
      ],
      "name": "renounceRole",
      "outputs": [],
      "stateMutability": "nonpayable",
      "type": "function"
    },
    {
      "inputs": [
        {
          "internalType": "address",
          "name": "operator",
          "type": "address"
        }
      ],
      "name": "revokeOperator",
      "outputs": [],
      "stateMutability": "nonpayable",
      "type": "function"
    },
    {
      "inputs": [
        {
          "internalType": "bytes32",
          "name": "role",
          "type": "bytes32"
        },
        {
          "internalType": "address",
          "name": "account",
          "type": "address"
        }
      ],
      "name": "revokeRole",
      "outputs": [],
      "stateMutability": "nonpayable",
      "type": "function"
    },
    {
      "inputs": [
        {
          "internalType": "address",
          "name": "from",
          "type": "address"
        },
        {
          "internalType": "address",
          "name": "to",
          "type": "address"
        },
        {
          "internalType": "uint256",
          "name": "atTime",
          "type": "uint256"
        },
        {
          "internalType": "uint256",
          "name": "amount",
          "type": "uint256"
        }
      ],
      "name": "revokeUnvestedTokenAmount",
      "outputs": [],
      "stateMutability": "nonpayable",
      "type": "function"
    },
    {
      "inputs": [
        {
          "internalType": "address",
          "name": "from",
          "type": "address"
        },
        {
          "internalType": "address",
          "name": "to",
          "type": "address"
        },
        {
          "internalType": "uint256",
          "name": "atTime",
          "type": "uint256"
        }
      ],
      "name": "revokeUnvestedTokens",
      "outputs": [],
      "stateMutability": "nonpayable",
      "type": "function"
    },
    {
      "inputs": [
        {
          "internalType": "address",
          "name": "recipient",
          "type": "address"
        },
        {
          "internalType": "uint256",
          "name": "amount",
          "type": "uint256"
        },
        {
          "internalType": "bytes",
          "name": "data",
          "type": "bytes"
        }
      ],
      "name": "send",
      "outputs": [],
      "stateMutability": "nonpayable",
      "type": "function"
    },
    {
      "inputs": [
        {
          "internalType": "bytes4",
          "name": "interfaceId",
          "type": "bytes4"
        }
      ],
      "name": "supportsInterface",
      "outputs": [
        {
          "internalType": "bool",
          "name": "",
          "type": "bool"
        }
      ],
      "stateMutability": "view",
      "type": "function"
    },
    {
      "inputs": [],
      "name": "symbol",
      "outputs": [
        {
          "internalType": "string",
          "name": "",
          "type": "string"
        }
      ],
      "stateMutability": "view",
      "type": "function"
    },
    {
      "inputs": [
        {
          "internalType": "address",
          "name": "",
          "type": "address"
        },
        {
          "internalType": "address",
          "name": "",
          "type": "address"
        },
        {
          "internalType": "address",
          "name": "",
          "type": "address"
        },
        {
          "internalType": "uint256",
          "name": "amount",
          "type": "uint256"
        },
        {
          "internalType": "bytes",
          "name": "userData",
          "type": "bytes"
        },
        {
          "internalType": "bytes",
          "name": "operatorData",
          "type": "bytes"
        }
      ],
      "name": "tokensReceived",
      "outputs": [],
      "stateMutability": "nonpayable",
      "type": "function"
    },
    {
      "inputs": [],
      "name": "totalSupply",
      "outputs": [
        {
          "internalType": "uint256",
          "name": "",
          "type": "uint256"
        }
      ],
      "stateMutability": "view",
      "type": "function"
    },
    {
      "inputs": [
        {
          "internalType": "address",
          "name": "recipient",
          "type": "address"
        },
        {
          "internalType": "uint256",
          "name": "amount",
          "type": "uint256"
        }
      ],
      "name": "transfer",
      "outputs": [
        {
          "internalType": "bool",
          "name": "",
          "type": "bool"
        }
      ],
      "stateMutability": "nonpayable",
      "type": "function"
    },
    {
      "inputs": [
        {
          "internalType": "address",
          "name": "holder",
          "type": "address"
        },
        {
          "internalType": "address",
          "name": "recipient",
          "type": "address"
        },
        {
          "internalType": "uint256",
          "name": "amount",
          "type": "uint256"
        }
      ],
      "name": "transferFrom",
      "outputs": [
        {
          "internalType": "bool",
          "name": "",
          "type": "bool"
        }
      ],
      "stateMutability": "nonpayable",
      "type": "function"
    },
    {
      "inputs": [
        {
          "internalType": "address",
          "name": "account",
          "type": "address"
        }
      ],
      "name": "unlockedBalanceOf",
      "outputs": [
        {
          "internalType": "uint256",
          "name": "",
          "type": "uint256"
        }
      ],
      "stateMutability": "view",
      "type": "function"
    },
    {
      "inputs": [],
      "name": "unpause",
      "outputs": [],
      "stateMutability": "nonpayable",
      "type": "function"
    },
    {
      "inputs": [
        {
          "internalType": "address",
          "name": "account",
          "type": "address"
        }
      ],
      "name": "vestedBalanceOf",
      "outputs": [
        {
          "internalType": "uint256",
          "name": "",
          "type": "uint256"
        }
      ],
      "stateMutability": "view",
      "type": "function"
    },
    {
      "inputs": [
        {
          "internalType": "address",
          "name": "recipient",
          "type": "address"
        },
        {
          "internalType": "uint256",
          "name": "amount",
          "type": "uint256"
        }
      ],
      "name": "withdrawTo",
      "outputs": [
        {
          "internalType": "bool",
          "name": "",
          "type": "bool"
        }
      ],
      "stateMutability": "nonpayable",
      "type": "function"
    }
  ],
  "bytecode": "0x608060405234801561001057600080fd5b506142dc806100206000396000f3fe608060405234801561001057600080fd5b50600436106102685760003560e01c806370a0823111610151578063a9059cbb116100c3578063d95b637111610087578063d95b637114610567578063dd62ed3e1461057a578063e63ab1e9146105b3578063fad8b32a146105c8578063fc673c4f146105db578063fe9d9303146105ee57600080fd5b8063a9059cbb146104fb578063bf31dbf41461050e578063c4d66de81461052e578063ca15c87314610541578063d547741f1461055457600080fd5b806391d148541161011557806391d148541461049f578063959b8c3f146104b257806395d89b41146104c55780639bd9bbc6146104cd5780639e3f3cac146104e0578063a217fddf146104f357600080fd5b806370a082311461041d5780637f02f21d146104465780638456cb591461045957806384955c88146104615780639010d07c1461047457600080fd5b8063248a9ca3116101ea5780633f4ba83a116101ae5780633f4ba83a146103b4578063521189a9146103bc578063556f0dc7146103e35780635c975abb146103ea57806362ad1b83146103f5578063633d9be01461040857600080fd5b8063248a9ca314610349578063271c6e1a1461036c5780632f2ff15d1461037f578063313ce5671461039257806336568abe146103a157600080fd5b80630e2d1a2a116102315780630e2d1a2a146102e7578063180e4bb81461030857806318160ddd1461031b578063205c28781461032357806323b872dd1461033657600080fd5b806223de291461026d57806301ffc9a71461028257806306e48538146102aa57806306fdde03146102bf578063095ea7b3146102d4575b600080fd5b61028061027b366004613781565b6105fc565b005b610295610290366004613832565b610674565b60405190151581526020015b60405180910390f35b6102b261069f565b6040516102a1919061385c565b6102c7610701565b6040516102a19190613901565b6102956102e2366004613914565b61078a565b6102fa6102f5366004613940565b6107d0565b6040519081526020016102a1565b61028061031636600461395d565b6107dc565b6034546102fa565b610295610331366004613914565b61082b565b6102956103443660046139a3565b610942565b6102fa6103573660046139e4565b600090815260c9602052604090206001015490565b61028061037a3660046139fd565b610a70565b61028061038d366004613a7c565b610b31565b604051601281526020016102a1565b6102806103af366004613a7c565b610b5c565b610280610bda565b6102fa7fb281fc8c12954d22544db45de3159a39272895b169a852b314f9cc762e44c53b81565b60016102fa565b60655460ff16610295565b610280610403366004613b79565b610bfe565b6102fa60008051602061426783398151915281565b6102fa61042b366004613940565b6001600160a01b031660009081526033602052604090205490565b6102806104543660046139a3565b610c78565b610280610cc7565b6102fa61046f366004613940565b610ce8565b610487610482366004613c0c565b610cf4565b6040516001600160a01b0390911681526020016102a1565b6102956104ad366004613a7c565b610d0c565b6102806104c0366004613940565b610d37565b6102c7610d4b565b6102806104db366004613c2e565b610d5a565b6102fa6104ee366004613940565b610d78565b6102fa600081565b610295610509366004613914565b610da5565b61052161051c366004613940565b610e62565b6040516102a19190613c87565b61028061053c366004613940565b610fa4565b6102fa61054f3660046139e4565b611229565b610280610562366004613a7c565b611240565b610295610575366004613d2a565b611266565b6102fa610588366004613d2a565b6001600160a01b039182166000908152603b6020908152604080832093909416825291909152205490565b6102fa60008051602061428783398151915281565b6102806105d6366004613940565b611307565b6102806105e9366004613d58565b61131b565b6102806105e9366004613dd8565b610160546001600160a01b0316331461065c5760405162461bcd60e51b815260206004820152601d60248201527f6c4e4f52493a206e6f742042726964676564506f6c79676f6e4e4f524900000060448201526064015b60405180910390fd5b6106698585858585611363565b505050505050505050565b60006001600160e01b03198216635a05180f60e01b1480610699575061069982611445565b92915050565b606060378054806020026020016040519081016040528092919081815260200182805480156106f757602002820191906000526020600020905b81546001600160a01b031681526001909101906020018083116106d9575b5050505050905090565b60606035805461071090613e1f565b80601f016020809104026020016040519081016040528092919081815260200182805461073c90613e1f565b80156106f75780601f1061075e576101008083540402835291602001916106f7565b820191906000526020600020905b81548152906001019060200180831161076c57509395945050505050565b600061079860655460ff1690565b156107b55760405162461bcd60e51b815260040161065390613e5a565b6107bf838361147a565b6107c9838361149d565b9392505050565b600061069982426114ab565b60655460ff16156107ff5760405162461bcd60e51b815260040161065390613e5a565b6000805160206142678339815191526108188133611593565b610824858585856115f7565b5050505050565b33600081815261015f6020908152604080832081518084018352848152825193840190925283835292936108629290918691611902565b61016054604051634decdde360e11b81526001600160a01b03868116600483015260248201869052606060448301526000606483015290911690639bd9bbc690608401600060405180830381600087803b1580156108bf57600080fd5b505af11580156108d3573d6000803e3d6000fd5b505050508281600b0160008282546108eb9190613e9a565b9091555050604080513381526001600160a01b038616602082015280820185905290517fa86305abc2db271df4609aa86a8d044bc11fb36939841bfdad6c1ab2b26e94719181900360600190a15060019392505050565b60006001600160a01b03831661096a5760405162461bcd60e51b815260040161065390613eb2565b6001600160a01b0384166109cf5760405162461bcd60e51b815260206004820152602660248201527f4552433737373a207472616e736665722066726f6d20746865207a65726f206160448201526564647265737360d01b6064820152608401610653565b6000339050610a00818686866040518060200160405280600081525060405180602001604052806000815250611ac4565b610a0b858285611bec565b610a37818686866040518060200160405280600081525060405180602001604052806000815250611c78565b610a658186868660405180602001604052806000815250604051806020016040528060008152506000611dea565b506001949350505050565b60655460ff1615610a935760405162461bcd60e51b815260040161065390613e5a565b600080516020614267833981519152610aac8133611593565b604080516001600160a01b038d1660208201529081018b9052606081018a90526080810189905260a0810188905260c0810187905260e08101869052610100810185905261012081018490526101408101839052600090610160016040516020818303038152906040529050610b228d82611faf565b50505050505050505050505050565b600082815260c96020526040902060010154610b4d8133611593565b610b5783836122b2565b505050565b6001600160a01b0381163314610bcc5760405162461bcd60e51b815260206004820152602f60248201527f416363657373436f6e74726f6c3a2063616e206f6e6c792072656e6f756e636560448201526e103937b632b9903337b91039b2b63360891b6064820152608401610653565b610bd682826122c6565b5050565b600080516020614287833981519152610bf38133611593565b610bfb6122da565b50565b610c083386611266565b610c695760405162461bcd60e51b815260206004820152602c60248201527f4552433737373a2063616c6c6572206973206e6f7420616e206f70657261746f60448201526b39103337b9103437b63232b960a11b6064820152608401610653565b6108248585858585600161236d565b60655460ff1615610c9b5760405162461bcd60e51b815260040161065390613e5a565b600080516020614267833981519152610cb48133611593565b610cc184848460006115f7565b50505050565b600080516020614287833981519152610ce08133611593565b610bfb612450565b600061069982426124a8565b600082815260fb602052604081206107c9908361259b565b600091825260c9602090815260408084206001600160a01b0393909316845291905290205460ff1690565b610d4281600061147a565b610bfb816125a7565b60606036805461071090613e1f565b610b573384848460405180602001604052806000815250600161236d565b6001600160a01b038116600090815261015f60205260408120600a810154600c8201546107c99190613ef6565b60006001600160a01b038316610dcd5760405162461bcd60e51b815260040161065390613eb2565b6000339050610dfe818286866040518060200160405280600081525060405180602001604052806000815250611ac4565b610e2a818286866040518060200160405280600081525060405180602001604052806000815250611c78565b610e588182868660405180602001604052806000815250604051806020016040528060008152506000611dea565b5060019392505050565b610ed6604051806101a001604052806000815260200160006001600160a01b0316815260200160008152602001600081526020016000815260200160008152602001600081526020016000815260200160008152602001600081526020016000815260200160008152602001600081525090565b506001600160a01b0316600081815261015f6020908152604080832081516101a081018352600a82015481528084019590955260058101548583015260018082015460608701526006820154608087015284805260088201808552838620805460a0890152828752818652848720805460c08a01528780526003850180885286892085015460e08b01528489528752948720830154610100890152820154610120880152948190529390925290910154610140830152600b810154610160830152600c015461018082015290565b600054610100900460ff16610fbf5760005460ff1615610fc3565b303b155b6110265760405162461bcd60e51b815260206004820152602e60248201527f496e697469616c697a61626c653a20636f6e747261637420697320616c72656160448201526d191e481a5b9a5d1a585b1a5e995960921b6064820152608401610653565b600054610100900460ff16158015611048576000805461ffff19166101011790555b60408051600180825281830190925260009160208083019080368337019050509050338160008151811061107e5761107e613f0d565b60200260200101906001600160a01b031690816001600160a01b0316815250506110a66126c5565b6110ae6126c5565b6110b66126c5565b6110be6126c5565b6110c66126ee565b6111236040518060400160405280601981526020017f4c6f636b65642042726964676564506f6c79676f6e4e4f524900000000000000815250604051806040016040528060058152602001646c4e4f524960d81b81525083612721565b61016080546001600160a01b0319166001600160a01b0385161790556040516329965a1d60e01b815230600482018190527fb281fc8c12954d22544db45de3159a39272895b169a852b314f9cc762e44c53b60248301526044820152731820a4b7618bde71dce8cdc73aab6c95905fad24906329965a1d90606401600060405180830381600087803b1580156111b857600080fd5b505af11580156111cc573d6000803e3d6000fd5b505050506111e36000801b6111de3390565b61290b565b6111fb6000805160206142678339815191523361290b565b6112136000805160206142878339815191523361290b565b508015610bd6576000805461ff00191690555050565b600081815260fb6020526040812061069990612915565b600082815260c9602052604090206001015461125c8133611593565b610b5783836122c6565b6000816001600160a01b0316836001600160a01b031614806112d157506001600160a01b03831660009081526038602052604090205460ff1680156112d157506001600160a01b038083166000908152603a602090815260408083209387168352929052205460ff16155b806107c95750506001600160a01b0390811660009081526039602090815260408083209490931682529290925290205460ff1690565b61131281600061147a565b610bfb8161291f565b60405162461bcd60e51b815260206004820152601c60248201527f6c4e4f52493a206275726e696e67206e6f7420737570706f72746564000000006044820152606401610653565b60008061137285870187613f23565b6020810151909150156113bf576113bf8787878080601f016020809104026020016040519081016040528093929190818152602001838380828437600092019190915250611faf92505050565b61143881600001518888888080601f01602080910402602001604051908101604052809392919081815260200183838082843760009201919091525050604080516020601f8c018190048102820181019092528a815292508a9150899081908401838280828437600092019190915250612a3b92505050565b5060019695505050505050565b60006001600160e01b03198216637965db0b60e01b148061069957506301ffc9a760e01b6001600160e01b0319831614610699565b60655460ff1615610bd65760405162461bcd60e51b815260040161065390613e5a565b600033610e58818585612a49565b6001600160a01b038216600081815261015f602052604080822090516370a0823160e01b815260048101939093529091829030906370a0823190602401602060405180830381865afa158015611505573d6000803e3d6000fd5b505050506040513d601f19601f820116820180604052508101906115299190613f7b565b600d83015490915060ff161561158b5761154285612b70565b1561157457600b8201546115636115598487612ba1565b84600a0154612bc1565b61156d9190613ef6565b905061158b565b81600b015482600a01546115889190613ef6565b90505b949350505050565b61159d8282610d0c565b610bd6576115b5816001600160a01b03166014612bd7565b6115c0836020612bd7565b6040516020016115d1929190613f94565b60408051601f198184030181529082905262461bcd60e51b825261065391600401613901565b6001600160a01b038416600090815261015f60205260409020600d81015460ff1661165d5760405162461bcd60e51b81526020600482015260166024820152756c4e4f52493a206e6f206772616e742065786973747360501b6044820152606401610653565b61166685612b70565b6116c45760405162461bcd60e51b815260206004820152602960248201527f6c4e4f52493a206e6f2076657374696e67207363686564756c6520666f7220746044820152681a1a5cc819dc985b9d60ba1b6064820152608401610653565b428310156117245760405162461bcd60e51b815260206004820152602760248201527f6c4e4f52493a205265766f636174696f6e2063616e6e6f7420626520696e20746044820152661a19481c185cdd60ca1b6064820152608401610653565b60006117308285612ba1565b905081600a015481106117855760405162461bcd60e51b815260206004820152601c60248201527f6c4e4f52493a20746f6b656e7320616c726561647920766573746564000000006044820152606401610653565b60008183600a01546117979190613ef6565b9050600084156117f857818511156117f15760405162461bcd60e51b815260206004820152601e60248201527f6c4e4f52493a20746f6f2066657720756e76657374656420746f6b656e7300006044820152606401610653565b50836117fb565b50805b8084600a015461180b9190613ef6565b600a85015561016054604051634decdde360e11b81526001600160a01b03898116600483015260248201849052606060448301526000606483015290911690639bd9bbc690608401600060405180830381600087803b15801561186d57600080fd5b505af1158015611881573d6000803e3d6000fd5b505050506118af88826040518060200160405280600081525060405180602001604052806000815250611902565b604080518781526001600160a01b038a1660208201529081018290527f0bbe3f9ae306d75ae6df08cd4a79ac5c6eae93ffae7d7e52f2859bf27592519d9060600160405180910390a15050505050505050565b6001600160a01b0384166119635760405162461bcd60e51b815260206004820152602260248201527f4552433737373a206275726e2066726f6d20746865207a65726f206164647265604482015261737360f01b6064820152608401610653565b3361197381866000878787611ac4565b6119808186600087612d73565b6001600160a01b038516600090815260336020526040902054848110156119f55760405162461bcd60e51b815260206004820152602360248201527f4552433737373a206275726e20616d6f756e7420657863656564732062616c616044820152626e636560e81b6064820152608401610653565b6001600160a01b0386166000908152603360205260408120868303905560348054879290611a24908490613ef6565b92505081905550856001600160a01b0316826001600160a01b03167fa78a9be3a7b862d26933ad85fb11d80ef66b8f972d7cbba06621d583943a4098878787604051611a7293929190614009565b60405180910390a36040518581526000906001600160a01b038816907fddf252ad1be2c89b69c2b068fc378daa952ba7f163c4a11628f55a4df523b3ef906020015b60405180910390a3505050505050565b60405163555ddc6560e11b81526001600160a01b03861660048201527f29ddb589b1fb5fc7cf394961c1adf5f8c6454761adf795e67fe149f658abe8956024820152600090731820a4b7618bde71dce8cdc73aab6c95905fad249063aabbb8ca90604401602060405180830381865afa158015611b45573d6000803e3d6000fd5b505050506040513d601f19601f82011682018060405250810190611b69919061404e565b90506001600160a01b03811615611be357604051633ad5cbc160e11b81526001600160a01b038216906375ab978290611bb0908a908a908a908a908a908a9060040161406b565b600060405180830381600087803b158015611bca57600080fd5b505af1158015611bde573d6000803e3d6000fd5b505050505b50505050505050565b6001600160a01b038381166000908152603b60209081526040808320938616835292905220546000198114610cc15781811015611c6b5760405162461bcd60e51b815260206004820152601e60248201527f4552433737373a20696e73756666696369656e7420616c6c6f77616e636500006044820152606401610653565b610cc18484848403612a49565b611c8486868686612d73565b6001600160a01b03851660009081526033602052604090205483811015611cfd5760405162461bcd60e51b815260206004820152602760248201527f4552433737373a207472616e7366657220616d6f756e7420657863656564732060448201526662616c616e636560c81b6064820152608401610653565b6001600160a01b03808716600090815260336020526040808220878503905591871681529081208054869290611d34908490613e9a565b92505081905550846001600160a01b0316866001600160a01b0316886001600160a01b03167f06b541ddaa720db2b10a4d0cdac39b8d360425fc073085fac19bc82614677987878787604051611d8c93929190614009565b60405180910390a4846001600160a01b0316866001600160a01b03167fddf252ad1be2c89b69c2b068fc378daa952ba7f163c4a11628f55a4df523b3ef86604051611dd991815260200190565b60405180910390a350505050505050565b60405163555ddc6560e11b81526001600160a01b03861660048201527fb281fc8c12954d22544db45de3159a39272895b169a852b314f9cc762e44c53b6024820152600090731820a4b7618bde71dce8cdc73aab6c95905fad249063aabbb8ca90604401602060405180830381865afa158015611e6b573d6000803e3d6000fd5b505050506040513d601f19601f82011682018060405250810190611e8f919061404e565b90506001600160a01b03811615611f0b576040516223de2960e01b81526001600160a01b038216906223de2990611ed4908b908b908b908b908b908b9060040161406b565b600060405180830381600087803b158015611eee57600080fd5b505af1158015611f02573d6000803e3d6000fd5b50505050611fa5565b8115611fa5576001600160a01b0386163b15611fa55760405162461bcd60e51b815260206004820152604d60248201527f4552433737373a20746f6b656e20726563697069656e7420636f6e747261637460448201527f20686173206e6f20696d706c656d656e74657220666f7220455243373737546f60648201526c1ad95b9cd49958da5c1a595b9d609a1b608482015260a401610653565b5050505050505050565b600081806020019051810190611fc591906140c5565b80519091506001600160a01b031661202f5760405162461bcd60e51b815260206004820152602760248201527f6c4e4f52493a20526563697069656e742063616e6e6f74206265207a65726f206044820152666164647265737360c81b6064820152608401610653565b80516001600160a01b03163314156120985760405162461bcd60e51b815260206004820152602660248201527f6c4e4f52493a20526563697069656e742063616e6e6f74206265206772616e746044820152651030b236b4b760d11b6064820152608401610653565b80516001600160a01b0316600090815261015f60205260409020600d015460ff16156121065760405162461bcd60e51b815260206004820152601b60248201527f6c4e4f52493a204772616e7420616c72656164792065786973747300000000006044820152606401610653565b80516001600160a01b0316600090815261015f6020908152604091829020600a8101869055600c8101869055600d8101805460ff19166001179055908301519183015190911015612200578161010001518260c0015110158061217257508161012001518260e0015110155b6121be5760405162461bcd60e51b815260206004820181905260248201527f6c4e4f52493a20756e6c6f636b20636c696666203c207665737420636c6966666044820152606401610653565b600281018490556020820151815560408201516001820155608082015160c08301516121eb918391612ea8565b60a082015160e0830151612200918391612ea8565b60078101849055602082015160058201908155606083015160068301556080830151610100840151612233929190612ea8565b60a082015161012083015161224c916005840191612ea8565b815160208084015160408086015160608088015183518b815295860194909452918401528201526001600160a01b03909116907f17161516b6ce34594617177a800b150a86ddee02c06993a73ef000a02367d1199060800160405180910390a250505050565b6122bc828261147a565b610bd6828261307d565b6122d0828261147a565b610bd6828261309f565b60655460ff166123235760405162461bcd60e51b815260206004820152601460248201527314185d5cd8589b194e881b9bdd081c185d5cd95960621b6044820152606401610653565b6065805460ff191690557f5db9ee0a495bf2e6ff9c91a7834c1ba4fdd244a5e8aa4e537bd38aeae4b073aa335b6040516001600160a01b03909116815260200160405180910390a1565b6001600160a01b0386166123ce5760405162461bcd60e51b815260206004820152602260248201527f4552433737373a2073656e642066726f6d20746865207a65726f206164647265604482015261737360f01b6064820152608401610653565b6001600160a01b0385166124245760405162461bcd60e51b815260206004820181905260248201527f4552433737373a2073656e6420746f20746865207a65726f20616464726573736044820152606401610653565b33612433818888888888611ac4565b612441818888888888611c78565b611be381888888888888611dea565b60655460ff16156124735760405162461bcd60e51b815260040161065390613e5a565b6065805460ff191660011790557f62e78cea01bee320cd4e420270b5ea74000d11b0c9f74754ebdbfc544b05a2586123503390565b6001600160a01b038216600081815261015f602052604080822090516370a0823160e01b815260048101939093529091829030906370a0823190602401602060405180830381865afa158015612502573d6000803e3d6000fd5b505050506040513d601f19601f820116820180604052508101906125269190613f7b565b9050600061253386612b70565b15612549576125428386612ba1565b9050612550565b50600a8201545b600d83015460ff161561259257600b83015461258561257b83612576600588018a612ba1565b612bc1565b85600a0154612bc1565b61258f9190613ef6565b91505b50949350505050565b60006107c983836130c1565b336001600160a01b038216141561260c5760405162461bcd60e51b8152602060048201526024808201527f4552433737373a20617574686f72697a696e672073656c66206173206f70657260448201526330ba37b960e11b6064820152608401610653565b6001600160a01b03811660009081526038602052604090205460ff161561265d57336000908152603a602090815260408083206001600160a01b03851684529091529020805460ff1916905561268c565b3360009081526039602090815260408083206001600160a01b03851684529091529020805460ff191660011790555b60405133906001600160a01b038316907ff4caeb2d6ca8932a215a353d0703c326ec2d81fc68170f320eb2ab49e9df61f990600090a350565b600054610100900460ff166126ec5760405162461bcd60e51b815260040161065390614153565b565b600054610100900460ff166127155760405162461bcd60e51b815260040161065390614153565b6065805460ff19169055565b600054610100900460ff166127485760405162461bcd60e51b815260040161065390614153565b825161275b906035906020860190613635565b50815161276f906036906020850190613635565b5080516127839060379060208401906136b9565b5060005b81518110156127ec576001603860008484815181106127a8576127a8613f0d565b6020908102919091018101516001600160a01b03168252810191909152604001600020805460ff1916911515919091179055806127e48161419e565b915050612787565b506040516329965a1d60e01b815230600482018190527fac7fbab5f54a3ca8194167523c6753bfeb96a445279294b6125b68cce217705460248301526044820152731820a4b7618bde71dce8cdc73aab6c95905fad24906329965a1d90606401600060405180830381600087803b15801561286657600080fd5b505af115801561287a573d6000803e3d6000fd5b50506040516329965a1d60e01b815230600482018190527faea199e31a596269b42cdafd93407f14436db6e4cad65417994c2eb37381e05a60248301526044820152731820a4b7618bde71dce8cdc73aab6c95905fad2492506329965a1d9150606401600060405180830381600087803b1580156128f757600080fd5b505af1158015611be3573d6000803e3d6000fd5b610bd682826122b2565b6000610699825490565b6001600160a01b0381163314156129825760405162461bcd60e51b815260206004820152602160248201527f4552433737373a207265766f6b696e672073656c66206173206f70657261746f6044820152603960f91b6064820152608401610653565b6001600160a01b03811660009081526038602052604090205460ff16156129d657336000908152603a602090815260408083206001600160a01b03851684529091529020805460ff19166001179055612a02565b3360009081526039602090815260408083206001600160a01b03851684529091529020805460ff191690555b60405133906001600160a01b038316907f50546e66e5f44d728365dc3908c63bc5cfeeab470722c1677e3073a6ac294aa190600090a350565b610cc18484848460016130eb565b6001600160a01b038316612aad5760405162461bcd60e51b815260206004820152602560248201527f4552433737373a20617070726f76652066726f6d20746865207a65726f206164604482015264647265737360d81b6064820152608401610653565b6001600160a01b038216612b0f5760405162461bcd60e51b815260206004820152602360248201527f4552433737373a20617070726f766520746f20746865207a65726f206164647260448201526265737360e81b6064820152608401610653565b6001600160a01b038381166000818152603b602090815260408083209487168084529482529182902085905590518481527f8c5be1e5ebec7d5bd14f71427d1e84f3dd0314c0f7b2291e5b200ac8c7c3b925910160405180910390a3505050565b6001600160a01b038116600090815261015f60205260408120600d81015460ff1680156107c9575054151592915050565b6000612bad8383613231565b612bb784846132ff565b6107c99190613e9a565b6000818310612bd057816107c9565b5090919050565b60606000612be68360026141b9565b612bf1906002613e9a565b67ffffffffffffffff811115612c0957612c09613aac565b6040519080825280601f01601f191660200182016040528015612c33576020820181803683370190505b509050600360fc1b81600081518110612c4e57612c4e613f0d565b60200101906001600160f81b031916908160001a905350600f60fb1b81600181518110612c7d57612c7d613f0d565b60200101906001600160f81b031916908160001a9053506000612ca18460026141b9565b612cac906001613e9a565b90505b6001811115612d24576f181899199a1a9b1b9c1cb0b131b232b360811b85600f1660108110612ce057612ce0613f0d565b1a60f81b828281518110612cf657612cf6613f0d565b60200101906001600160f81b031916908160001a90535060049490941c93612d1d816141d8565b9050612caf565b5083156107c95760405162461bcd60e51b815260206004820181905260248201527f537472696e67733a20686578206c656e67746820696e73756666696369656e746044820152606401610653565b6001600160a01b0383811615908316156000612d9d60008051602061426783398151915288610d0c565b90506001600160a01b0387811690871614156000612dba88610ce8565b8611159050838015612dc95750815b8015612dd25750825b15612e4a5785612df7896001600160a01b031660009081526033602052604090205490565b1015612e455760405162461bcd60e51b815260206004820152601b60248201527f6c4e4f52493a20696e73756666696369656e742062616c616e636500000000006044820152606401610653565b612e9c565b84612e9c5780612e9c5760405162461bcd60e51b815260206004820152601b60248201527f6c4e4f52493a20696e73756666696369656e742062616c616e636500000000006044820152606401610653565b61066989898989613369565b6004830154612f07578254821015612f025760405162461bcd60e51b815260206004820152601b60248201527f436c696666206265666f7265207363686564756c6520737461727400000000006044820152606401610653565b612f7f565b82600301600060018560040154612f1e9190613ef6565b815260200190815260200160002060000154821015612f7f5760405162461bcd60e51b815260206004820152601860248201527f436c69666673206e6f74206368726f6e6f6c6f676963616c00000000000000006044820152606401610653565b8260010154821115612fd35760405162461bcd60e51b815260206004820181905260248201527f436c696666732063616e6e6f7420656e64206166746572207363686564756c656044820152606401610653565b826002015481612fe285613391565b612fec9190613e9a565b111561303a5760405162461bcd60e51b815260206004820152601a60248201527f636c69666620616d6f756e74732065786365656420746f74616c0000000000006044820152606401610653565b60048301805460009081526003850160205260408082208590558254825281206001908101849055825490929190613073908490613e9a565b9091555050505050565b61308782826133dc565b600082815260fb60205260409020610b579082613462565b6130a98282613477565b600082815260fb60205260409020610b5790826134de565b60008260000182815481106130d8576130d8613f0d565b9060005260206000200154905092915050565b6001600160a01b0385166131415760405162461bcd60e51b815260206004820181905260248201527f4552433737373a206d696e7420746f20746865207a65726f20616464726573736044820152606401610653565b3361314f8160008888612d73565b84603460008282546131619190613e9a565b90915550506001600160a01b0386166000908152603360205260408120805487929061318e908490613e9a565b909155506131a490508160008888888888611dea565b856001600160a01b0316816001600160a01b03167f2fe5be0146f74c5bce36c0b80911af6c7d86ff27e89d5cfa61fc681327954e5d8787876040516131eb93929190614009565b60405180910390a36040518581526001600160a01b038716906000907fddf252ad1be2c89b69c2b068fc378daa952ba7f163c4a11628f55a4df523b3ef90602001611ab4565b60008061323d84613391565b8460020154106132625761325084613391565b846002015461325f9190613ef6565b90505b83600101548310613274579050610699565b83546004850154156132ac57846003016000600187600401546132979190613ef6565b81526020019081526020016000206000015490505b60008186600101546132be9190613ef6565b905060006132cc83876141ef565b905060008113156132f157816132e282866141b9565b6132ec919061422e565b6132f4565b60005b979650505050505050565b600080805b846004015481101561335a57600081815260038601602052604090205484106133485760008181526003860160205260409020600101546133459083613e9a565b91505b806133528161419e565b915050613304565b5061158b846002015482612bc1565b60655460ff161561338c5760405162461bcd60e51b815260040161065390613e5a565b610cc1565b60008060005b83600401548110156133d55760008181526003850160205260409020600101546133c19083613e9a565b9150806133cd8161419e565b915050613397565b5092915050565b6133e68282610d0c565b610bd657600082815260c9602090815260408083206001600160a01b03851684529091529020805460ff1916600117905561341e3390565b6001600160a01b0316816001600160a01b0316837f2f8788117e7eff1d82e926ec794901d17c78024a50270940304540a733656f0d60405160405180910390a45050565b60006107c9836001600160a01b0384166134f3565b6134818282610d0c565b15610bd657600082815260c9602090815260408083206001600160a01b0385168085529252808320805460ff1916905551339285917ff6391f5c32d9c69d2a47ea670b442974b53935d1edc7fd64eb21e047a839171b9190a45050565b60006107c9836001600160a01b038416613542565b600081815260018301602052604081205461353a57508154600181810184556000848152602080822090930184905584548482528286019093526040902091909155610699565b506000610699565b6000818152600183016020526040812054801561362b576000613566600183613ef6565b855490915060009061357a90600190613ef6565b90508181146135df57600086600001828154811061359a5761359a613f0d565b90600052602060002001549050808760000184815481106135bd576135bd613f0d565b6000918252602080832090910192909255918252600188019052604090208390555b85548690806135f0576135f0614250565b600190038181906000526020600020016000905590558560010160008681526020019081526020016000206000905560019350505050610699565b6000915050610699565b82805461364190613e1f565b90600052602060002090601f01602090048101928261366357600085556136a9565b82601f1061367c57805160ff19168380011785556136a9565b828001600101855582156136a9579182015b828111156136a957825182559160200191906001019061368e565b506136b592915061370e565b5090565b8280548282559060005260206000209081019282156136a9579160200282015b828111156136a957825182546001600160a01b0319166001600160a01b039091161782556020909201916001909101906136d9565b5b808211156136b5576000815560010161370f565b6001600160a01b0381168114610bfb57600080fd5b60008083601f84011261374a57600080fd5b50813567ffffffffffffffff81111561376257600080fd5b60208301915083602082850101111561377a57600080fd5b9250929050565b60008060008060008060008060c0898b03121561379d57600080fd5b88356137a881613723565b975060208901356137b881613723565b965060408901356137c881613723565b955060608901359450608089013567ffffffffffffffff808211156137ec57600080fd5b6137f88c838d01613738565b909650945060a08b013591508082111561381157600080fd5b5061381e8b828c01613738565b999c989b5096995094979396929594505050565b60006020828403121561384457600080fd5b81356001600160e01b0319811681146107c957600080fd5b6020808252825182820181905260009190848201906040850190845b8181101561389d5783516001600160a01b031683529284019291840191600101613878565b50909695505050505050565b60005b838110156138c45781810151838201526020016138ac565b83811115610cc15750506000910152565b600081518084526138ed8160208601602086016138a9565b601f01601f19169290920160200192915050565b6020815260006107c960208301846138d5565b6000806040838503121561392757600080fd5b823561393281613723565b946020939093013593505050565b60006020828403121561395257600080fd5b81356107c981613723565b6000806000806080858703121561397357600080fd5b843561397e81613723565b9350602085013561398e81613723565b93969395505050506040820135916060013590565b6000806000606084860312156139b857600080fd5b83356139c381613723565b925060208401356139d381613723565b929592945050506040919091013590565b6000602082840312156139f657600080fd5b5035919050565b60008060008060008060008060008060006101608c8e031215613a1f57600080fd5b8b359a5060208c0135613a3181613723565b9a9d9a9c505050506040890135986060810135986080820135985060a0820135975060c0820135965060e0820135955061010082013594506101208201359350610140909101359150565b60008060408385031215613a8f57600080fd5b823591506020830135613aa181613723565b809150509250929050565b634e487b7160e01b600052604160045260246000fd5b604051610140810167ffffffffffffffff81118282101715613ae657613ae6613aac565b60405290565b600082601f830112613afd57600080fd5b813567ffffffffffffffff80821115613b1857613b18613aac565b604051601f8301601f19908116603f01168101908282118183101715613b4057613b40613aac565b81604052838152866020858801011115613b5957600080fd5b836020870160208301376000602085830101528094505050505092915050565b600080600080600060a08688031215613b9157600080fd5b8535613b9c81613723565b94506020860135613bac81613723565b935060408601359250606086013567ffffffffffffffff80821115613bd057600080fd5b613bdc89838a01613aec565b93506080880135915080821115613bf257600080fd5b50613bff88828901613aec565b9150509295509295909350565b60008060408385031215613c1f57600080fd5b50508035926020909101359150565b600080600060608486031215613c4357600080fd5b8335613c4e81613723565b925060208401359150604084013567ffffffffffffffff811115613c7157600080fd5b613c7d86828701613aec565b9150509250925092565b815181526020808301516101a0830191613cab908401826001600160a01b03169052565b5060408301516040830152606083015160608301526080830151608083015260a083015160a083015260c083015160c083015260e083015160e083015261010080840151818401525061012080840151818401525061014080840151818401525061016080840151818401525061018080840151818401525092915050565b60008060408385031215613d3d57600080fd5b8235613d4881613723565b91506020830135613aa181613723565b60008060008060808587031215613d6e57600080fd5b8435613d7981613723565b935060208501359250604085013567ffffffffffffffff80821115613d9d57600080fd5b613da988838901613aec565b93506060870135915080821115613dbf57600080fd5b50613dcc87828801613aec565b91505092959194509250565b60008060408385031215613deb57600080fd5b82359150602083013567ffffffffffffffff811115613e0957600080fd5b613e1585828601613aec565b9150509250929050565b600181811c90821680613e3357607f821691505b60208210811415613e5457634e487b7160e01b600052602260045260246000fd5b50919050565b60208082526010908201526f14185d5cd8589b194e881c185d5cd95960821b604082015260600190565b634e487b7160e01b600052601160045260246000fd5b60008219821115613ead57613ead613e84565b500190565b60208082526024908201527f4552433737373a207472616e7366657220746f20746865207a65726f206164646040820152637265737360e01b606082015260800190565b600082821015613f0857613f08613e84565b500390565b634e487b7160e01b600052603260045260246000fd5b600060408284031215613f3557600080fd5b6040516040810181811067ffffffffffffffff82111715613f5857613f58613aac565b6040528235613f6681613723565b81526020928301359281019290925250919050565b600060208284031215613f8d57600080fd5b5051919050565b7f416363657373436f6e74726f6c3a206163636f756e7420000000000000000000815260008351613fcc8160178501602088016138a9565b7001034b99036b4b9b9b4b733903937b6329607d1b6017918401918201528351613ffd8160288401602088016138a9565b01602801949350505050565b83815260606020820152600061402260608301856138d5565b828103604084015261403481856138d5565b9695505050505050565b805161404981613723565b919050565b60006020828403121561406057600080fd5b81516107c981613723565b6001600160a01b0387811682528681166020830152851660408201526060810184905260c0608082018190526000906140a6908301856138d5565b82810360a08401526140b881856138d5565b9998505050505050505050565b600061014082840312156140d857600080fd5b6140e0613ac2565b6140e98361403e565b81526020830151602082015260408301516040820152606083015160608201526080830151608082015260a083015160a082015260c083015160c082015260e083015160e08201526101008084015181830152506101208084015181830152508091505092915050565b6020808252602b908201527f496e697469616c697a61626c653a20636f6e7472616374206973206e6f74206960408201526a6e697469616c697a696e6760a81b606082015260800190565b60006000198214156141b2576141b2613e84565b5060010190565b60008160001904831182151516156141d3576141d3613e84565b500290565b6000816141e7576141e7613e84565b506000190190565b60008083128015600160ff1b85018412161561420d5761420d613e84565b6001600160ff1b038401831381161561422857614228613e84565b50500390565b60008261424b57634e487b7160e01b600052601260045260246000fd5b500490565b634e487b7160e01b600052603160045260246000fdfea52f07bb8dc8df886598eb50edeaba2b8e45715237ed244354b60ea04d0390b865d7a28e3265b37a6474929f336521b332c1681b933f6cb9f3376673440d862aa2646970667358221220bf36cf688a7a91f73cc7dc6ecb82035ba4198b09efb1f032d0dd30a67212481c64736f6c634300080a0033",
  "linkReferences": {},
  "deployedLinkReferences": {}
}