{
  "_format": "hh-sol-artifact-1",
  "contractName": "LockedNORI",
  "sourceName": "contracts/LockedNORI.sol",
  "abi": [
    {
      "anonymous": false,
      "inputs": [
        {
          "indexed": true,
          "internalType": "address",
          "name": "owner",
          "type": "address"
        },
        {
          "indexed": true,
          "internalType": "address",
          "name": "spender",
          "type": "address"
        },
        {
          "indexed": false,
          "internalType": "uint256",
          "name": "value",
          "type": "uint256"
        }
      ],
      "name": "Approval",
      "type": "event"
    },
    {
      "anonymous": false,
      "inputs": [
        {
          "indexed": true,
          "internalType": "address",
          "name": "operator",
          "type": "address"
        },
        {
          "indexed": true,
          "internalType": "address",
          "name": "tokenHolder",
          "type": "address"
        }
      ],
      "name": "AuthorizedOperator",
      "type": "event"
    },
    {
      "anonymous": false,
      "inputs": [
        {
          "indexed": true,
          "internalType": "address",
          "name": "operator",
          "type": "address"
        },
        {
          "indexed": true,
          "internalType": "address",
          "name": "from",
          "type": "address"
        },
        {
          "indexed": false,
          "internalType": "uint256",
          "name": "amount",
          "type": "uint256"
        },
        {
          "indexed": false,
          "internalType": "bytes",
          "name": "data",
          "type": "bytes"
        },
        {
          "indexed": false,
          "internalType": "bytes",
          "name": "operatorData",
          "type": "bytes"
        }
      ],
      "name": "Burned",
      "type": "event"
    },
    {
      "anonymous": false,
      "inputs": [
        {
          "indexed": true,
          "internalType": "address",
          "name": "operator",
          "type": "address"
        },
        {
          "indexed": true,
          "internalType": "address",
          "name": "to",
          "type": "address"
        },
        {
          "indexed": false,
          "internalType": "uint256",
          "name": "amount",
          "type": "uint256"
        },
        {
          "indexed": false,
          "internalType": "bytes",
          "name": "data",
          "type": "bytes"
        },
        {
          "indexed": false,
          "internalType": "bytes",
          "name": "operatorData",
          "type": "bytes"
        }
      ],
      "name": "Minted",
      "type": "event"
    },
    {
      "anonymous": false,
      "inputs": [
        {
          "indexed": false,
          "internalType": "address",
          "name": "account",
          "type": "address"
        }
      ],
      "name": "Paused",
      "type": "event"
    },
    {
      "anonymous": false,
      "inputs": [
        {
          "indexed": true,
          "internalType": "address",
          "name": "operator",
          "type": "address"
        },
        {
          "indexed": true,
          "internalType": "address",
          "name": "tokenHolder",
          "type": "address"
        }
      ],
      "name": "RevokedOperator",
      "type": "event"
    },
    {
      "anonymous": false,
      "inputs": [
        {
          "indexed": true,
          "internalType": "bytes32",
          "name": "role",
          "type": "bytes32"
        },
        {
          "indexed": true,
          "internalType": "bytes32",
          "name": "previousAdminRole",
          "type": "bytes32"
        },
        {
          "indexed": true,
          "internalType": "bytes32",
          "name": "newAdminRole",
          "type": "bytes32"
        }
      ],
      "name": "RoleAdminChanged",
      "type": "event"
    },
    {
      "anonymous": false,
      "inputs": [
        {
          "indexed": true,
          "internalType": "bytes32",
          "name": "role",
          "type": "bytes32"
        },
        {
          "indexed": true,
          "internalType": "address",
          "name": "account",
          "type": "address"
        },
        {
          "indexed": true,
          "internalType": "address",
          "name": "sender",
          "type": "address"
        }
      ],
      "name": "RoleGranted",
      "type": "event"
    },
    {
      "anonymous": false,
      "inputs": [
        {
          "indexed": true,
          "internalType": "bytes32",
          "name": "role",
          "type": "bytes32"
        },
        {
          "indexed": true,
          "internalType": "address",
          "name": "account",
          "type": "address"
        },
        {
          "indexed": true,
          "internalType": "address",
          "name": "sender",
          "type": "address"
        }
      ],
      "name": "RoleRevoked",
      "type": "event"
    },
    {
      "anonymous": false,
      "inputs": [
        {
          "indexed": true,
          "internalType": "address",
          "name": "operator",
          "type": "address"
        },
        {
          "indexed": true,
          "internalType": "address",
          "name": "from",
          "type": "address"
        },
        {
          "indexed": true,
          "internalType": "address",
          "name": "to",
          "type": "address"
        },
        {
          "indexed": false,
          "internalType": "uint256",
          "name": "amount",
          "type": "uint256"
        },
        {
          "indexed": false,
          "internalType": "bytes",
          "name": "data",
          "type": "bytes"
        },
        {
          "indexed": false,
          "internalType": "bytes",
          "name": "operatorData",
          "type": "bytes"
        }
      ],
      "name": "Sent",
      "type": "event"
    },
    {
      "anonymous": false,
      "inputs": [
        {
          "indexed": true,
          "internalType": "address",
          "name": "recipient",
          "type": "address"
        },
        {
          "indexed": false,
          "internalType": "uint256",
          "name": "amount",
          "type": "uint256"
        },
        {
          "indexed": false,
          "internalType": "uint256",
          "name": "startTime",
          "type": "uint256"
        },
        {
          "indexed": false,
          "internalType": "uint256",
          "name": "vestEndTime",
          "type": "uint256"
        },
        {
          "indexed": false,
          "internalType": "uint256",
          "name": "unlockEndTime",
          "type": "uint256"
        }
      ],
      "name": "TokenGrantCreated",
      "type": "event"
    },
    {
      "anonymous": false,
      "inputs": [
        {
          "indexed": false,
          "internalType": "address",
          "name": "account",
          "type": "address"
        },
        {
          "indexed": false,
          "internalType": "uint256",
          "name": "quantity",
          "type": "uint256"
        }
      ],
      "name": "TokensClaimed",
      "type": "event"
    },
    {
      "anonymous": false,
      "inputs": [
        {
          "indexed": true,
          "internalType": "address",
          "name": "from",
          "type": "address"
        },
        {
          "indexed": true,
          "internalType": "address",
          "name": "to",
          "type": "address"
        },
        {
          "indexed": false,
          "internalType": "uint256",
          "name": "value",
          "type": "uint256"
        }
      ],
      "name": "Transfer",
      "type": "event"
    },
    {
      "anonymous": false,
      "inputs": [
        {
          "indexed": false,
          "internalType": "address",
          "name": "account",
          "type": "address"
        }
      ],
      "name": "Unpaused",
      "type": "event"
    },
    {
      "anonymous": false,
      "inputs": [
        {
          "indexed": false,
          "internalType": "uint256",
          "name": "atTime",
          "type": "uint256"
        },
        {
          "indexed": false,
          "internalType": "address",
          "name": "from",
          "type": "address"
        },
        {
          "indexed": false,
          "internalType": "uint256",
          "name": "quantity",
          "type": "uint256"
        }
      ],
      "name": "UnvestedTokensRevoked",
      "type": "event"
    },
    {
      "inputs": [],
      "name": "DEFAULT_ADMIN_ROLE",
      "outputs": [
        {
          "internalType": "bytes32",
          "name": "",
          "type": "bytes32"
        }
      ],
      "stateMutability": "view",
      "type": "function"
    },
    {
      "inputs": [],
      "name": "MINTER_ROLE",
      "outputs": [
        {
          "internalType": "bytes32",
          "name": "",
          "type": "bytes32"
        }
      ],
      "stateMutability": "view",
      "type": "function"
    },
    {
      "inputs": [],
      "name": "PAUSER_ROLE",
      "outputs": [
        {
          "internalType": "bytes32",
          "name": "",
          "type": "bytes32"
        }
      ],
      "stateMutability": "view",
      "type": "function"
    },
    {
      "inputs": [],
      "name": "TOKEN_GRANTER_ROLE",
      "outputs": [
        {
          "internalType": "bytes32",
          "name": "",
          "type": "bytes32"
        }
      ],
      "stateMutability": "view",
      "type": "function"
    },
    {
      "inputs": [
        {
          "internalType": "address",
          "name": "holder",
          "type": "address"
        },
        {
          "internalType": "address",
          "name": "spender",
          "type": "address"
        }
      ],
      "name": "allowance",
      "outputs": [
        {
          "internalType": "uint256",
          "name": "",
          "type": "uint256"
        }
      ],
      "stateMutability": "view",
      "type": "function"
    },
    {
      "inputs": [
        {
          "internalType": "address",
          "name": "spender",
          "type": "address"
        },
        {
          "internalType": "uint256",
          "name": "value",
          "type": "uint256"
        }
      ],
      "name": "approve",
      "outputs": [
        {
          "internalType": "bool",
          "name": "",
          "type": "bool"
        }
      ],
      "stateMutability": "nonpayable",
      "type": "function"
    },
    {
      "inputs": [
        {
          "internalType": "address",
          "name": "operator",
          "type": "address"
        }
      ],
      "name": "authorizeOperator",
      "outputs": [],
      "stateMutability": "nonpayable",
      "type": "function"
    },
    {
      "inputs": [
        {
          "internalType": "address",
          "name": "account",
          "type": "address"
        }
      ],
      "name": "balanceOf",
      "outputs": [
        {
          "internalType": "uint256",
          "name": "",
          "type": "uint256"
        }
      ],
      "stateMutability": "view",
      "type": "function"
    },
    {
      "inputs": [
        {
          "internalType": "uint256",
          "name": "amount",
          "type": "uint256"
        }
      ],
      "name": "burn",
      "outputs": [],
      "stateMutability": "nonpayable",
      "type": "function"
    },
    {
      "inputs": [
        {
          "internalType": "uint256",
          "name": "amount",
          "type": "uint256"
        },
        {
          "internalType": "bytes",
          "name": "data",
          "type": "bytes"
        }
      ],
      "name": "burn",
      "outputs": [],
      "stateMutability": "nonpayable",
      "type": "function"
    },
    {
      "inputs": [
        {
          "internalType": "address",
          "name": "account",
          "type": "address"
        },
        {
          "internalType": "uint256",
          "name": "amount",
          "type": "uint256"
        }
      ],
      "name": "burnFrom",
      "outputs": [],
      "stateMutability": "nonpayable",
      "type": "function"
    },
    {
      "inputs": [],
      "name": "decimals",
      "outputs": [
        {
          "internalType": "uint8",
          "name": "",
          "type": "uint8"
        }
      ],
      "stateMutability": "pure",
      "type": "function"
    },
    {
      "inputs": [
        {
          "internalType": "address",
          "name": "spender",
          "type": "address"
        },
        {
          "internalType": "uint256",
          "name": "subtractedValue",
          "type": "uint256"
        }
      ],
      "name": "decreaseAllowance",
      "outputs": [
        {
          "internalType": "bool",
          "name": "",
          "type": "bool"
        }
      ],
      "stateMutability": "nonpayable",
      "type": "function"
    },
    {
      "inputs": [],
      "name": "defaultOperators",
      "outputs": [
        {
          "internalType": "address[]",
          "name": "",
          "type": "address[]"
        }
      ],
      "stateMutability": "view",
      "type": "function"
    },
    {
      "inputs": [
        {
          "internalType": "address",
          "name": "account",
          "type": "address"
        }
      ],
      "name": "getGrant",
      "outputs": [
        {
          "components": [
            {
              "internalType": "uint256",
              "name": "grantAmount",
              "type": "uint256"
            },
            {
              "internalType": "address",
              "name": "recipient",
              "type": "address"
            },
            {
              "internalType": "uint256",
              "name": "startTime",
              "type": "uint256"
            },
            {
              "internalType": "uint256",
              "name": "vestEndTime",
              "type": "uint256"
            },
            {
              "internalType": "uint256",
              "name": "unlockEndTime",
              "type": "uint256"
            },
            {
              "internalType": "uint256",
              "name": "cliff1Time",
              "type": "uint256"
            },
            {
              "internalType": "uint256",
              "name": "cliff2Time",
              "type": "uint256"
            },
            {
              "internalType": "uint256",
              "name": "vestCliff1Amount",
              "type": "uint256"
            },
            {
              "internalType": "uint256",
              "name": "vestCliff2Amount",
              "type": "uint256"
            },
            {
              "internalType": "uint256",
              "name": "unlockCliff1Amount",
              "type": "uint256"
            },
            {
              "internalType": "uint256",
              "name": "unlockCliff2Amount",
              "type": "uint256"
            },
            {
              "internalType": "uint256",
              "name": "claimedAmount",
              "type": "uint256"
            },
            {
              "internalType": "uint256",
              "name": "originalAmount",
              "type": "uint256"
            }
          ],
          "internalType": "struct LockedNORI.TokenGrantDetail",
          "name": "",
          "type": "tuple"
        }
      ],
      "stateMutability": "view",
      "type": "function"
    },
    {
      "inputs": [
        {
          "internalType": "bytes32",
          "name": "role",
          "type": "bytes32"
        }
      ],
      "name": "getRoleAdmin",
      "outputs": [
        {
          "internalType": "bytes32",
          "name": "",
          "type": "bytes32"
        }
      ],
      "stateMutability": "view",
      "type": "function"
    },
    {
      "inputs": [
        {
          "internalType": "bytes32",
          "name": "role",
          "type": "bytes32"
        },
        {
          "internalType": "uint256",
          "name": "index",
          "type": "uint256"
        }
      ],
      "name": "getRoleMember",
      "outputs": [
        {
          "internalType": "address",
          "name": "",
          "type": "address"
        }
      ],
      "stateMutability": "view",
      "type": "function"
    },
    {
      "inputs": [
        {
          "internalType": "bytes32",
          "name": "role",
          "type": "bytes32"
        }
      ],
      "name": "getRoleMemberCount",
      "outputs": [
        {
          "internalType": "uint256",
          "name": "",
          "type": "uint256"
        }
      ],
      "stateMutability": "view",
      "type": "function"
    },
    {
      "inputs": [
        {
          "internalType": "bytes32",
          "name": "role",
          "type": "bytes32"
        },
        {
          "internalType": "address",
          "name": "account",
          "type": "address"
        }
      ],
      "name": "grantRole",
      "outputs": [],
      "stateMutability": "nonpayable",
      "type": "function"
    },
    {
      "inputs": [
        {
          "internalType": "uint256",
          "name": "amount",
          "type": "uint256"
        },
        {
          "internalType": "address",
          "name": "recipient",
          "type": "address"
        },
        {
          "internalType": "uint256",
          "name": "startTime",
          "type": "uint256"
        },
        {
          "internalType": "uint256",
          "name": "vestEndTime",
          "type": "uint256"
        },
        {
          "internalType": "uint256",
          "name": "unlockEndTime",
          "type": "uint256"
        },
        {
          "internalType": "uint256",
          "name": "cliff1Time",
          "type": "uint256"
        },
        {
          "internalType": "uint256",
          "name": "cliff2Time",
          "type": "uint256"
        },
        {
          "internalType": "uint256",
          "name": "vestCliff1Amount",
          "type": "uint256"
        },
        {
          "internalType": "uint256",
          "name": "vestCliff2Amount",
          "type": "uint256"
        },
        {
          "internalType": "uint256",
          "name": "unlockCliff1Amount",
          "type": "uint256"
        },
        {
          "internalType": "uint256",
          "name": "unlockCliff2Amount",
          "type": "uint256"
        }
      ],
      "name": "grantTo",
      "outputs": [],
      "stateMutability": "nonpayable",
      "type": "function"
    },
    {
      "inputs": [],
      "name": "granularity",
      "outputs": [
        {
          "internalType": "uint256",
          "name": "",
          "type": "uint256"
        }
      ],
      "stateMutability": "view",
      "type": "function"
    },
    {
      "inputs": [
        {
          "internalType": "bytes32",
          "name": "role",
          "type": "bytes32"
        },
        {
          "internalType": "address",
          "name": "account",
          "type": "address"
        }
      ],
      "name": "hasRole",
      "outputs": [
        {
          "internalType": "bool",
          "name": "",
          "type": "bool"
        }
      ],
      "stateMutability": "view",
      "type": "function"
    },
    {
      "inputs": [
        {
          "internalType": "address",
          "name": "spender",
          "type": "address"
        },
        {
          "internalType": "uint256",
          "name": "addedValue",
          "type": "uint256"
        }
      ],
      "name": "increaseAllowance",
      "outputs": [
        {
          "internalType": "bool",
          "name": "",
          "type": "bool"
        }
      ],
      "stateMutability": "nonpayable",
      "type": "function"
    },
    {
      "inputs": [
        {
          "internalType": "string",
          "name": "name",
          "type": "string"
        },
        {
          "internalType": "string",
          "name": "symbol",
          "type": "string"
        }
      ],
      "name": "initialize",
      "outputs": [],
      "stateMutability": "nonpayable",
      "type": "function"
    },
    {
      "inputs": [
        {
          "internalType": "contract IERC777Upgradeable",
          "name": "noriAddress",
          "type": "address"
        }
      ],
      "name": "initialize",
      "outputs": [],
      "stateMutability": "nonpayable",
      "type": "function"
    },
    {
      "inputs": [
        {
          "internalType": "address",
          "name": "operator",
          "type": "address"
        },
        {
          "internalType": "address",
          "name": "tokenHolder",
          "type": "address"
        }
      ],
      "name": "isOperatorFor",
      "outputs": [
        {
          "internalType": "bool",
          "name": "",
          "type": "bool"
        }
      ],
      "stateMutability": "view",
      "type": "function"
    },
    {
      "inputs": [
        {
          "internalType": "address",
          "name": "to",
          "type": "address"
        },
        {
          "internalType": "uint256",
          "name": "amount",
          "type": "uint256"
        }
      ],
      "name": "mint",
      "outputs": [],
      "stateMutability": "nonpayable",
      "type": "function"
    },
    {
      "inputs": [],
      "name": "name",
      "outputs": [
        {
          "internalType": "string",
          "name": "",
          "type": "string"
        }
      ],
      "stateMutability": "view",
      "type": "function"
    },
    {
      "inputs": [
        {
          "internalType": "address",
          "name": "account",
          "type": "address"
        },
        {
          "internalType": "uint256",
          "name": "amount",
          "type": "uint256"
        },
        {
          "internalType": "bytes",
          "name": "data",
          "type": "bytes"
        },
        {
          "internalType": "bytes",
          "name": "operatorData",
          "type": "bytes"
        }
      ],
      "name": "operatorBurn",
      "outputs": [],
      "stateMutability": "nonpayable",
      "type": "function"
    },
    {
      "inputs": [
        {
          "internalType": "address",
          "name": "sender",
          "type": "address"
        },
        {
          "internalType": "address",
          "name": "recipient",
          "type": "address"
        },
        {
          "internalType": "uint256",
          "name": "amount",
          "type": "uint256"
        },
        {
          "internalType": "bytes",
          "name": "data",
          "type": "bytes"
        },
        {
          "internalType": "bytes",
          "name": "operatorData",
          "type": "bytes"
        }
      ],
      "name": "operatorSend",
      "outputs": [],
      "stateMutability": "nonpayable",
      "type": "function"
    },
    {
      "inputs": [],
      "name": "pause",
      "outputs": [],
      "stateMutability": "nonpayable",
      "type": "function"
    },
    {
      "inputs": [],
      "name": "paused",
      "outputs": [
        {
          "internalType": "bool",
          "name": "",
          "type": "bool"
        }
      ],
      "stateMutability": "view",
      "type": "function"
    },
    {
      "inputs": [
        {
          "internalType": "address",
          "name": "account",
          "type": "address"
        }
      ],
      "name": "quantityRevokedFrom",
      "outputs": [
        {
          "internalType": "uint256",
          "name": "",
          "type": "uint256"
        }
      ],
      "stateMutability": "view",
      "type": "function"
    },
    {
      "inputs": [
        {
          "internalType": "bytes32",
          "name": "role",
          "type": "bytes32"
        },
        {
          "internalType": "address",
          "name": "account",
          "type": "address"
        }
      ],
      "name": "renounceRole",
      "outputs": [],
      "stateMutability": "nonpayable",
      "type": "function"
    },
    {
      "inputs": [
        {
          "internalType": "address",
          "name": "operator",
          "type": "address"
        }
      ],
      "name": "revokeOperator",
      "outputs": [],
      "stateMutability": "nonpayable",
      "type": "function"
    },
    {
      "inputs": [
        {
          "internalType": "bytes32",
          "name": "role",
          "type": "bytes32"
        },
        {
          "internalType": "address",
          "name": "account",
          "type": "address"
        }
      ],
      "name": "revokeRole",
      "outputs": [],
      "stateMutability": "nonpayable",
      "type": "function"
    },
    {
      "inputs": [
        {
          "internalType": "uint256",
          "name": "atTime",
          "type": "uint256"
        },
        {
          "internalType": "address",
          "name": "from",
          "type": "address"
        },
        {
          "internalType": "address",
          "name": "to",
          "type": "address"
        }
      ],
      "name": "revokeUnvestedTokens",
      "outputs": [],
      "stateMutability": "nonpayable",
      "type": "function"
    },
    {
      "inputs": [
        {
          "internalType": "address",
          "name": "recipient",
          "type": "address"
        },
        {
          "internalType": "uint256",
          "name": "amount",
          "type": "uint256"
        },
        {
          "internalType": "bytes",
          "name": "data",
          "type": "bytes"
        }
      ],
      "name": "send",
      "outputs": [],
      "stateMutability": "nonpayable",
      "type": "function"
    },
    {
      "inputs": [
        {
          "internalType": "bytes4",
          "name": "interfaceId",
          "type": "bytes4"
        }
      ],
      "name": "supportsInterface",
      "outputs": [
        {
          "internalType": "bool",
          "name": "",
          "type": "bool"
        }
      ],
      "stateMutability": "view",
      "type": "function"
    },
    {
      "inputs": [],
      "name": "symbol",
      "outputs": [
        {
          "internalType": "string",
          "name": "",
          "type": "string"
        }
      ],
      "stateMutability": "view",
      "type": "function"
    },
    {
      "inputs": [
        {
          "internalType": "uint256",
          "name": "branch",
          "type": "uint256"
        }
      ],
      "name": "testCoverage",
      "outputs": [
        {
          "internalType": "bool",
          "name": "",
          "type": "bool"
        }
      ],
      "stateMutability": "pure",
      "type": "function"
    },
    {
      "inputs": [
        {
          "internalType": "address",
          "name": "",
          "type": "address"
        },
        {
          "internalType": "address",
          "name": "",
          "type": "address"
        },
        {
          "internalType": "address",
          "name": "",
          "type": "address"
        },
        {
          "internalType": "uint256",
          "name": "amount",
          "type": "uint256"
        },
        {
          "internalType": "bytes",
          "name": "userData",
          "type": "bytes"
        },
        {
          "internalType": "bytes",
          "name": "operatorData",
          "type": "bytes"
        }
      ],
      "name": "tokensReceived",
      "outputs": [],
      "stateMutability": "nonpayable",
      "type": "function"
    },
    {
      "inputs": [],
      "name": "totalSupply",
      "outputs": [
        {
          "internalType": "uint256",
          "name": "",
          "type": "uint256"
        }
      ],
      "stateMutability": "view",
      "type": "function"
    },
    {
      "inputs": [
        {
          "internalType": "address",
          "name": "recipient",
          "type": "address"
        },
        {
          "internalType": "uint256",
          "name": "amount",
          "type": "uint256"
        }
      ],
      "name": "transfer",
      "outputs": [
        {
          "internalType": "bool",
          "name": "",
          "type": "bool"
        }
      ],
      "stateMutability": "nonpayable",
      "type": "function"
    },
    {
      "inputs": [
        {
          "internalType": "address",
          "name": "holder",
          "type": "address"
        },
        {
          "internalType": "address",
          "name": "recipient",
          "type": "address"
        },
        {
          "internalType": "uint256",
          "name": "amount",
          "type": "uint256"
        }
      ],
      "name": "transferFrom",
      "outputs": [
        {
          "internalType": "bool",
          "name": "",
          "type": "bool"
        }
      ],
      "stateMutability": "nonpayable",
      "type": "function"
    },
    {
      "inputs": [
        {
          "internalType": "address",
          "name": "account",
          "type": "address"
        }
      ],
      "name": "unlockedBalanceOf",
      "outputs": [
        {
          "internalType": "uint256",
          "name": "",
          "type": "uint256"
        }
      ],
      "stateMutability": "view",
      "type": "function"
    },
    {
      "inputs": [],
      "name": "unpause",
      "outputs": [],
      "stateMutability": "nonpayable",
      "type": "function"
    },
    {
      "inputs": [
        {
          "internalType": "address",
          "name": "account",
          "type": "address"
        }
      ],
      "name": "vestedBalanceOf",
      "outputs": [
        {
          "internalType": "uint256",
          "name": "",
          "type": "uint256"
        }
      ],
      "stateMutability": "view",
      "type": "function"
    },
    {
      "inputs": [
        {
          "internalType": "address",
          "name": "account",
          "type": "address"
        },
        {
          "internalType": "uint256",
          "name": "amount",
          "type": "uint256"
        }
      ],
      "name": "withdrawTo",
      "outputs": [
        {
          "internalType": "bool",
          "name": "",
          "type": "bool"
        }
      ],
      "stateMutability": "nonpayable",
      "type": "function"
    }
  ],
  "bytecode": "0x608060405234801561001057600080fd5b50614783806100206000396000f3fe608060405234801561001057600080fd5b50600436106102ba5760003560e01c8063808b6b5611610182578063a9059cbb116100e9578063d95b6371116100a2578063e63ab1e91161007c578063e63ab1e91461063c578063fad8b32a14610651578063fc673c4f14610664578063fe9d93031461067757600080fd5b8063d95b637114610603578063dd62ed3e14610616578063df8026cc1461062957600080fd5b8063a9059cbb14610570578063bf31dbf414610583578063c4d66de8146105a3578063ca15c873146105b6578063d5391393146105c9578063d547741f146105f057600080fd5b806395d89b411161013b57806395d89b41146105145780639bd9bbc61461051c5780639c9e4cc51461052f5780639e3f3cac14610542578063a217fddf14610555578063a457c2d71461055d57600080fd5b8063808b6b56146104955780638456cb59146104a857806384955c88146104b05780639010d07c146104c357806391d14854146104ee578063959b8c3f1461050157600080fd5b806336568abe11610226578063556f0dc7116101df578063556f0dc7146104345780635c975abb1461043b57806362ad1b8314610447578063633d9be01461045a57806370a082311461046f57806379cc67901461048257600080fd5b806336568abe146103cd57806339509351146103e05780633f4ba83a146103f357806340c10f19146103fb57806342966c681461040e5780634cd88b761461042157600080fd5b806318160ddd1161027857806318160ddd1461035a578063205c28781461036257806323b872dd14610375578063248a9ca3146103885780632f2ff15d146103ab578063313ce567146103be57600080fd5b806223de29146102bf57806301ffc9a7146102d457806306e48538146102fc57806306fdde0314610311578063095ea7b3146103265780630e2d1a2a14610339575b600080fd5b6102d26102cd366004613b18565b61068a565b005b6102e76102e2366004613bc9565b610715565b60405190151581526020015b60405180910390f35b610304610740565b6040516102f39190613bf3565b6103196107a2565b6040516102f39190613c98565b6102e7610334366004613cab565b6107b1565b61034c610347366004613cd7565b6107c4565b6040519081526020016102f3565b61034c6107d0565b6102e7610370366004613cab565b6107db565b6102e7610383366004613cf4565b6108f8565b61034c610396366004613d35565b60009081526065602052604090206001015490565b6102d26103b9366004613d4e565b61090d565b604051601281526020016102f3565b6102d26103db366004613d4e565b610938565b6102e76103ee366004613cab565b6109b6565b6102d26109fb565b6102d2610409366004613cab565b610a8f565b6102d261041c366004613d35565b610b2e565b6102d261042f366004613e4b565b610b3b565b600161034c565b61015f5460ff166102e7565b6102d2610455366004613eaf565b610bb8565b61034c6000805160206146ee83398151915281565b61034c61047d366004613cd7565b610bf4565b6102d2610490366004613cab565b610c12565b6102e76104a3366004613d35565b610c93565b6102d2610cd7565b61034c6104be366004613cd7565b610d69565b6104d66104d1366004613f42565b610d75565b6040516001600160a01b0390911681526020016102f3565b6102e76104fc366004613d4e565b610d8d565b6102d261050f366004613cd7565b610db8565b610319610de5565b6102d261052a366004613f64565b610def565b6102d261053d366004613fbd565b610e0d565b61034c610550366004613cd7565b610e5b565b61034c600081565b6102e761056b366004613cab565b610e88565b6102e761057e366004613cab565b610ebe565b610596610591366004613cd7565b610eca565b6040516102f39190613fff565b6102d26105b1366004613cd7565b61100c565b61034c6105c4366004613d35565b61127f565b61034c7f9f2df0fed2c77648de5860a4cc508cd0818c85b8b8a1ab4ceeef8d981c8956a681565b6102d26105fe366004613d4e565b611296565b6102e76106113660046140a2565b6112bc565b61034c6106243660046140a2565b61135d565b6102d26106373660046140d0565b61138a565b61034c60008051602061470e83398151915281565b6102d261065f366004613cd7565b61144c565b6102d261067236600461414f565b611568565b6102d26106853660046141cf565b61159a565b6101f6546001600160a01b031633146106fd5760405162461bcd60e51b815260206004820152602a60248201527f6c4e4f52493a205468697320636f6e74726163742063616e206f6e6c792072656044820152696365697665204e4f524960b01b60648201526084015b60405180910390fd5b61070a85858585856115b5565b505050505050505050565b60006001600160e01b03198216635a05180f60e01b148061073a575061073a82611697565b92915050565b606060cd80548060200260200160405190810160405280929190818152602001828054801561079857602002820191906000526020600020905b81546001600160a01b0316815260019091019060200180831161077a575b5050505050905090565b60606107ac6116cc565b905090565b60006107bd8383611755565b9392505050565b600061073a428361176d565b60006107ac60ca5490565b6001600160a01b03821660009081526101f56020526040812061081e3384604051806020016040528060008152506040518060200160405280600081525061183f565b6101f654604051634decdde360e11b81526001600160a01b03868116600483015260248201869052606060448301526000606483015290911690639bd9bbc690608401600060405180830381600087803b15801561087b57600080fd5b505af115801561088f573d6000803e3d6000fd5b505050508281600b0160008282546108a79190614222565b9091555050604080516001600160a01b0386168152602081018590527f896e034966eaaf1adc54acc0f257056febbd300c9e47182cf761982cf1f5e430910160405180910390a15060019392505050565b60006109058484846119ef565b949350505050565b6000828152606560205260409020600101546109298133611bb1565b6109338383611c15565b505050565b6001600160a01b03811633146109a85760405162461bcd60e51b815260206004820152602f60248201527f416363657373436f6e74726f6c3a2063616e206f6e6c792072656e6f756e636560448201526e103937b632b9903337b91039b2b63360891b60648201526084016106f4565b6109b28282611c37565b5050565b33600081815260fc602090815260408083206001600160a01b038716845290915281205490916109f29185906109ed908690614222565b611c59565b50600192915050565b610a1360008051602061470e83398151915233610d8d565b610a855760405162461bcd60e51b815260206004820152603960248201527f45524332305072657365744d696e7465725061757365723a206d75737420686160448201527f76652070617573657220726f6c6520746f20756e70617573650000000000000060648201526084016106f4565b610a8d611c88565b565b610ab97f9f2df0fed2c77648de5860a4cc508cd0818c85b8b8a1ab4ceeef8d981c8956a633610d8d565b610b245760405162461bcd60e51b815260206004820152603660248201527f45524332305072657365744d696e7465725061757365723a206d7573742068616044820152751d99481b5a5b9d195c881c9bdb19481d1bc81b5a5b9d60521b60648201526084016106f4565b6109b28282611d1d565b610b383382611df6565b50565b600054610100900460ff16610b565760005460ff1615610b5a565b303b155b610b765760405162461bcd60e51b81526004016106f49061423a565b600054610100900460ff16158015610b98576000805461ffff19166101011790555b610ba28383611f3e565b8015610933576000805461ff0019169055505050565b610bc233866112bc565b610bde5760405162461bcd60e51b81526004016106f490614288565b610bed85858585856001611fb1565b5050505050565b6001600160a01b038116600090815260c9602052604081205461073a565b6000610c1e833361135d565b905081811015610c7c5760405162461bcd60e51b8152602060048201526024808201527f45524332303a206275726e20616d6f756e74206578636565647320616c6c6f77604482015263616e636560e01b60648201526084016106f4565b610c898333848403611c59565b6109338383611df6565b60008160011480610ca45750816002145b15610ccf5760008260011415610cbd5750600192915050565b82600214156109f25750600092915050565b506000919050565b610cef60008051602061470e83398151915233610d8d565b610d615760405162461bcd60e51b815260206004820152603760248201527f45524332305072657365744d696e7465725061757365723a206d75737420686160448201527f76652070617573657220726f6c6520746f20706175736500000000000000000060648201526084016106f4565b610a8d61209d565b600061073a42836120f7565b60008281526097602052604081206107bd90836121c0565b60009182526065602090815260408084206001600160a01b0393909316845291905290205460ff1690565b61015f5460ff1615610ddc5760405162461bcd60e51b81526004016106f4906142d4565b610b38816121cc565b60606107ac6122ea565b61093333848484604051806020016040528060008152506001611fb1565b6000805160206146ee833981519152610e268133611bb1565b61015f5460ff1615610e4a5760405162461bcd60e51b81526004016106f4906142d4565b610e558484846122f9565b50505050565b6001600160a01b03811660009081526101f560205260408120600a810154600c8201546107bd91906142fe565b6000610e9761015f5460ff1690565b15610eb45760405162461bcd60e51b81526004016106f4906142d4565b6107bd8383610e88565b60006107bd8383612417565b610f3e604051806101a001604052806000815260200160006001600160a01b0316815260200160008152602001600081526020016000815260200160008152602001600081526020016000815260200160008152602001600081526020016000815260200160008152602001600081525090565b506001600160a01b031660008181526101f56020908152604080832081516101a081018352600a82015481528084019590955260058101548583015260018082015460608701526006820154608087015284805260088201808552838620805460a0890152828752818652848720805460c08a01528780526003850180885286892085015460e08b01528489528752948720830154610100890152820154610120880152948190529390925290910154610140830152600b810154610160830152600c015461018082015290565b600054610100900460ff166110275760005460ff161561102b565b303b155b6110475760405162461bcd60e51b81526004016106f49061423a565b600054610100900460ff16158015611069576000805461ffff19166101011790555b6110716124ca565b6110796124ca565b6110816124ca565b6110896124ca565b6110916124ca565b6110996124f1565b6110a16124ca565b6110eb6040518060400160405280600b81526020016a4c6f636b6564204e4f524960a81b815250604051806040016040528060058152602001646c4e4f524960d81b815250612525565b60408051600180825281830190925260009160208083019080368337019050509050338160008151811061112157611121614315565b60200260200101906001600160a01b031690816001600160a01b03168152505061118c6040518060400160405280600b81526020016a4c6f636b6564204e4f524960a81b815250604051806040016040528060058152602001646c4e4f524960d81b81525083612599565b611197600033612783565b6111af6000805160206146ee83398151915233612783565b6101f680546001600160a01b03199081166001600160a01b038616179091556101f78054731820a4b7618bde71dce8cdc73aab6c95905fad249216821790556040516329965a1d60e01b815230600482018190527fb281fc8c12954d22544db45de3159a39272895b169a852b314f9cc762e44c53b602483015260448201526329965a1d90606401600060405180830381600087803b15801561125157600080fd5b505af1158015611265573d6000803e3d6000fd5b505050505080156109b2576000805461ff00191690555050565b600081815260976020526040812061073a9061278d565b6000828152606560205260409020600101546112b28133611bb1565b6109338383611c37565b6000816001600160a01b0316836001600160a01b0316148061132757506001600160a01b038316600090815260ce602052604090205460ff16801561132757506001600160a01b03808316600090815260d0602090815260408083209387168352929052205460ff16155b806107bd5750506001600160a01b03908116600090815260cf602090815260408083209490931682529290925290205460ff1690565b6001600160a01b03808316600090815260d1602090815260408083209385168352929052908120546107bd565b61015f5460ff16156113ae5760405162461bcd60e51b81526004016106f4906142d4565b6000805160206146ee8339815191526113c78133611bb1565b604080516001600160a01b038d1660208201529081018b9052606081018a90526080810189905260a0810188905260c0810187905260e0810186905261010081018590526101208101849052610140810183905260009061016001604051602081830303815290604052905061143d8d82612797565b50505050505050505050505050565b6001600160a01b0381163314156114af5760405162461bcd60e51b815260206004820152602160248201527f4552433737373a207265766f6b696e672073656c66206173206f70657261746f6044820152603960f91b60648201526084016106f4565b6001600160a01b038116600090815260ce602052604090205460ff16156115035733600090815260d0602090815260408083206001600160a01b03851684529091529020805460ff1916600117905561152f565b33600090815260cf602090815260408083206001600160a01b03851684529091529020805460ff191690555b60405133906001600160a01b038316907f50546e66e5f44d728365dc3908c63bc5cfeeab470722c1677e3073a6ac294aa190600090a350565b61157233856112bc565b61158e5760405162461bcd60e51b81526004016106f490614288565b610e558484848461183f565b6109b23383836040518060200160405280600081525061183f565b6000806115c48587018761432b565b602081015190915015611611576116118787878080601f01602080910402602001604051908101604052809392919081815260200183838082843760009201919091525061279792505050565b61168a81600001518888888080601f01602080910402602001604051908101604052809392919081815260200183838082843760009201919091525050604080516020601f8c018190048102820181019092528a815292508a91508990819084018382808284376000920191909152506129d192505050565b5060019695505050505050565b60006001600160e01b03198216637965db0b60e01b148061073a57506301ffc9a760e01b6001600160e01b031983161461073a565b606060cb80546116db90614383565b80601f016020809104026020016040519081016040528092919081815260200182805461170790614383565b80156107985780601f1061172957610100808354040283529160200191610798565b820191906000526020600020905b81548152906001019060200180831161173757509395945050505050565b600033611763818585611c59565b5060019392505050565b6001600160a01b03811660008181526101f5602052604080822090516370a0823160e01b815260048101939093529091829030906370a0823190602401602060405180830381865afa1580156117c7573d6000803e3d6000fd5b505050506040513d601f19601f820116820180604052508101906117eb91906143be565b600d83015490915060ff16156109055781541561182257600b82015461181183876129df565b61181b91906142fe565b9050610905565b81600b015482600a015461183691906142fe565b95945050505050565b6001600160a01b0384166118a05760405162461bcd60e51b815260206004820152602260248201527f4552433737373a206275726e2066726f6d20746865207a65726f206164647265604482015261737360f01b60648201526084016106f4565b336118b0818660008787876129ff565b6118bd8186600087612b26565b6001600160a01b038516600090815260c96020526040902054848110156119325760405162461bcd60e51b815260206004820152602360248201527f4552433737373a206275726e20616d6f756e7420657863656564732062616c616044820152626e636560e81b60648201526084016106f4565b6001600160a01b038616600090815260c960205260408120868303905560ca80548792906119619084906142fe565b92505081905550856001600160a01b0316826001600160a01b03167fa78a9be3a7b862d26933ad85fb11d80ef66b8f972d7cbba06621d583943a40988787876040516119af939291906143d7565b60405180910390a36040518581526000906001600160a01b0388169060008051602061472e833981519152906020015b60405180910390a3505050505050565b60006001600160a01b038316611a175760405162461bcd60e51b81526004016106f49061440c565b6001600160a01b038416611a7c5760405162461bcd60e51b815260206004820152602660248201527f4552433737373a207472616e736665722066726f6d20746865207a65726f206160448201526564647265737360d01b60648201526084016106f4565b6000339050611aad8186868660405180602001604052806000815250604051806020016040528060008152506129ff565b6001600160a01b03808616600090815260d160209081526040808320938516835292905220546000198114611b4b5783811015611b3e5760405162461bcd60e51b815260206004820152602960248201527f4552433737373a207472616e7366657220616d6f756e74206578636565647320604482015268616c6c6f77616e636560b81b60648201526084016106f4565b611b4b8683868403611c59565b611b77828787876040518060200160405280600081525060405180602001604052806000815250612bff565b611ba58287878760405180602001604052806000815250604051806020016040528060008152506000612d5f565b50600195945050505050565b611bbb8282610d8d565b6109b257611bd3816001600160a01b03166014612f24565b611bde836020612f24565b604051602001611bef929190614450565b60408051601f198184030181529082905262461bcd60e51b82526106f491600401613c98565b611c1f82826130c0565b60008281526097602052604090206109339082613146565b611c41828261315b565b600082815260976020526040902061093390826131c2565b61015f5460ff1615611c7d5760405162461bcd60e51b81526004016106f4906142d4565b6109338383836131d7565b61015f5460ff16611cd25760405162461bcd60e51b815260206004820152601460248201527314185d5cd8589b194e881b9bdd081c185d5cd95960621b60448201526064016106f4565b61015f805460ff191690557f5db9ee0a495bf2e6ff9c91a7834c1ba4fdd244a5e8aa4e537bd38aeae4b073aa335b6040516001600160a01b03909116815260200160405180910390a1565b6001600160a01b038216611d735760405162461bcd60e51b815260206004820152601f60248201527f45524332303a206d696e7420746f20746865207a65726f20616464726573730060448201526064016106f4565b611d7f600083836132fe565b8060fd6000828254611d919190614222565b90915550506001600160a01b038216600090815260fb602052604081208054839290611dbe908490614222565b90915550506040518181526001600160a01b0383169060009060008051602061472e8339815191529060200160405180910390a35050565b6001600160a01b038216611e565760405162461bcd60e51b815260206004820152602160248201527f45524332303a206275726e2066726f6d20746865207a65726f206164647265736044820152607360f81b60648201526084016106f4565b611e62826000836132fe565b6001600160a01b038216600090815260fb602052604090205481811015611ed65760405162461bcd60e51b815260206004820152602260248201527f45524332303a206275726e20616d6f756e7420657863656564732062616c616e604482015261636560f01b60648201526084016106f4565b6001600160a01b038316600090815260fb60205260408120838303905560fd8054849290611f059084906142fe565b90915550506040518281526000906001600160a01b0385169060008051602061472e8339815191529060200160405180910390a3505050565b600054610100900460ff16611f655760405162461bcd60e51b81526004016106f4906144c5565b611f6d6124ca565b611f756124ca565b611f7d6124ca565b611f856124ca565b611f8f8282613309565b611f976124ca565b611f9f6124f1565b611fa76124ca565b6109b28282612525565b6001600160a01b0386166120125760405162461bcd60e51b815260206004820152602260248201527f4552433737373a2073656e642066726f6d20746865207a65726f206164647265604482015261737360f01b60648201526084016106f4565b6001600160a01b0385166120685760405162461bcd60e51b815260206004820181905260248201527f4552433737373a2073656e6420746f20746865207a65726f206164647265737360448201526064016106f4565b336120778188888888886129ff565b612085818888888888612bff565b61209481888888888888612d5f565b50505050505050565b61015f5460ff16156120c15760405162461bcd60e51b81526004016106f4906142d4565b61015f805460ff191660011790557f62e78cea01bee320cd4e420270b5ea74000d11b0c9f74754ebdbfc544b05a258611d003390565b6001600160a01b03811660008181526101f5602052604080822090516370a0823160e01b815260048101939093529091829030906370a0823190602401602060405180830381865afa158015612151573d6000803e3d6000fd5b505050506040513d601f19601f8201168201806040525081019061217591906143be565b600d83015490915060ff161561090557600b8201546121b66121ac61219a85896129df565b6121a7600587018a6129df565b613357565b84600a0154613357565b61183691906142fe565b60006107bd838361336d565b336001600160a01b03821614156122315760405162461bcd60e51b8152602060048201526024808201527f4552433737373a20617574686f72697a696e672073656c66206173206f70657260448201526330ba37b960e11b60648201526084016106f4565b6001600160a01b038116600090815260ce602052604090205460ff16156122825733600090815260d0602090815260408083206001600160a01b03851684529091529020805460ff191690556122b1565b33600090815260cf602090815260408083206001600160a01b03851684529091529020805460ff191660011790555b60405133906001600160a01b038316907ff4caeb2d6ca8932a215a353d0703c326ec2d81fc68170f320eb2ab49e9df61f990600090a350565b606060cc80546116db90614383565b6001600160a01b03821660009081526101f560205260409020600d81015460ff166123575760405162461bcd60e51b815260206004820152600e60248201526d139bc819dc985b9d08195e1a5cdd60921b60448201526064016106f4565b6000612363858561176d565b905081600a0154811015610bed5760008183600a015461238391906142fe565b600a84018390556002840183905560018401879055604080518881526001600160a01b03881660208201529081018290529091507f0bbe3f9ae306d75ae6df08cd4a79ac5c6eae93ffae7d7e52f2859bf27592519d9060600160405180910390a161240f8585836040518060200160405280600081525060405180602001604052806000815250610bb8565b505050505050565b60006001600160a01b03831661243f5760405162461bcd60e51b81526004016106f49061440c565b60003390506124708182868660405180602001604052806000815250604051806020016040528060008152506129ff565b61249c818286866040518060200160405280600081525060405180602001604052806000815250612bff565b6117638182868660405180602001604052806000815250604051806020016040528060008152506000612d5f565b600054610100900460ff16610a8d5760405162461bcd60e51b81526004016106f4906144c5565b600054610100900460ff166125185760405162461bcd60e51b81526004016106f4906144c5565b61015f805460ff19169055565b600054610100900460ff1661254c5760405162461bcd60e51b81526004016106f4906144c5565b612557600033612783565b6125817f9f2df0fed2c77648de5860a4cc508cd0818c85b8b8a1ab4ceeef8d981c8956a633612783565b6109b260008051602061470e83398151915233612783565b600054610100900460ff166125c05760405162461bcd60e51b81526004016106f4906144c5565b82516125d39060cb9060208601906139cc565b5081516125e79060cc9060208501906139cc565b5080516125fb9060cd906020840190613a50565b5060005b815181101561266457600160ce600084848151811061262057612620614315565b6020908102919091018101516001600160a01b03168252810191909152604001600020805460ff19169115159190911790558061265c81614510565b9150506125ff565b506040516329965a1d60e01b815230600482018190527fac7fbab5f54a3ca8194167523c6753bfeb96a445279294b6125b68cce217705460248301526044820152731820a4b7618bde71dce8cdc73aab6c95905fad24906329965a1d90606401600060405180830381600087803b1580156126de57600080fd5b505af11580156126f2573d6000803e3d6000fd5b50506040516329965a1d60e01b815230600482018190527faea199e31a596269b42cdafd93407f14436db6e4cad65417994c2eb37381e05a60248301526044820152731820a4b7618bde71dce8cdc73aab6c95905fad2492506329965a1d9150606401600060405180830381600087803b15801561276f57600080fd5b505af1158015612094573d6000803e3d6000fd5b6109b28282611c15565b600061073a825490565b6000818060200190518101906127ad919061453b565b80519091506001600160a01b03166128075760405162461bcd60e51b815260206004820181905260248201527f526563697069656e742063616e6e6f74206265207a65726f206164647265737360448201526064016106f4565b80516001600160a01b031660009081526101f56020908152604091829020600a8101869055600c8101869055600d8101805460ff1916600117905590830151918301519091101561291f578161010001518260c0015110158061287357508161012001518260e0015110155b6128dd5760405162461bcd60e51b815260206004820152603560248201527f556e6c6f636b20636c69666620616d6f756e74732063616e6e6f7420657863656044820152746564207665737420636c69666620616d6f756e747360581b60648201526084016106f4565b600281018490556020820151815560408201516001820155608082015160c083015161290a918391613397565b60a082015160e083015161291f918391613397565b60078101849055602082015160058201908155606083015160068301556080830151610100840151612952929190613397565b60a082015161012083015161296b916005840191613397565b815160208084015160408086015160608088015183518b815295860194909452918401528201526001600160a01b03909116907f17161516b6ce34594617177a800b150a86ddee02c06993a73ef000a02367d1199060800160405180910390a250505050565b610e5584848484600161356c565b60006129eb83836136a0565b6129f5848461376e565b6107bd9190614222565b60405163555ddc6560e11b81526001600160a01b03861660048201527f29ddb589b1fb5fc7cf394961c1adf5f8c6454761adf795e67fe149f658abe8956024820152600090731820a4b7618bde71dce8cdc73aab6c95905fad249063aabbb8ca90604401602060405180830381865afa158015612a80573d6000803e3d6000fd5b505050506040513d601f19601f82011682018060405250810190612aa491906145c9565b90506001600160a01b0381161561209457604051633ad5cbc160e11b81526001600160a01b038216906375ab978290612aeb908a908a908a908a908a908a906004016145e6565b600060405180830381600087803b158015612b0557600080fd5b505af1158015612b19573d6000803e3d6000fd5b5050505050505050505050565b61015f5460ff1615612b4a5760405162461bcd60e51b81526004016106f4906142d4565b6001600160a01b03831660008181526101f560205260409020600d0154901580159160ff16908290612b795750805b15612bf4576000612b8a8133610d8d565b1590508015612bf2576000612b9e87610d69565b905080851115612bf05760405162461bcd60e51b815260206004820152601b60248201527f6c4e4f52493a20696e73756666696369656e742062616c616e6365000000000060448201526064016106f4565b505b505b61240f8585856132fe565b612c0b86868686612b26565b6001600160a01b038516600090815260c9602052604090205483811015612c845760405162461bcd60e51b815260206004820152602760248201527f4552433737373a207472616e7366657220616d6f756e7420657863656564732060448201526662616c616e636560c81b60648201526084016106f4565b6001600160a01b03808716600090815260c96020526040808220878503905591871681529081208054869290612cbb908490614222565b92505081905550846001600160a01b0316866001600160a01b0316886001600160a01b03167f06b541ddaa720db2b10a4d0cdac39b8d360425fc073085fac19bc82614677987878787604051612d13939291906143d7565b60405180910390a4846001600160a01b0316866001600160a01b031660008051602061472e83398151915286604051612d4e91815260200190565b60405180910390a350505050505050565b60405163555ddc6560e11b81526001600160a01b03861660048201527fb281fc8c12954d22544db45de3159a39272895b169a852b314f9cc762e44c53b6024820152600090731820a4b7618bde71dce8cdc73aab6c95905fad249063aabbb8ca90604401602060405180830381865afa158015612de0573d6000803e3d6000fd5b505050506040513d601f19601f82011682018060405250810190612e0491906145c9565b90506001600160a01b03811615612e80576040516223de2960e01b81526001600160a01b038216906223de2990612e49908b908b908b908b908b908b906004016145e6565b600060405180830381600087803b158015612e6357600080fd5b505af1158015612e77573d6000803e3d6000fd5b50505050612f1a565b8115612f1a576001600160a01b0386163b15612f1a5760405162461bcd60e51b815260206004820152604d60248201527f4552433737373a20746f6b656e20726563697069656e7420636f6e747261637460448201527f20686173206e6f20696d706c656d656e74657220666f7220455243373737546f60648201526c1ad95b9cd49958da5c1a595b9d609a1b608482015260a4016106f4565b5050505050505050565b60606000612f33836002614640565b612f3e906002614222565b67ffffffffffffffff811115612f5657612f56613d7e565b6040519080825280601f01601f191660200182016040528015612f80576020820181803683370190505b509050600360fc1b81600081518110612f9b57612f9b614315565b60200101906001600160f81b031916908160001a905350600f60fb1b81600181518110612fca57612fca614315565b60200101906001600160f81b031916908160001a9053506000612fee846002614640565b612ff9906001614222565b90505b6001811115613071576f181899199a1a9b1b9c1cb0b131b232b360811b85600f166010811061302d5761302d614315565b1a60f81b82828151811061304357613043614315565b60200101906001600160f81b031916908160001a90535060049490941c9361306a8161465f565b9050612ffc565b5083156107bd5760405162461bcd60e51b815260206004820181905260248201527f537472696e67733a20686578206c656e67746820696e73756666696369656e7460448201526064016106f4565b6130ca8282610d8d565b6109b25760008281526065602090815260408083206001600160a01b03851684529091529020805460ff191660011790556131023390565b6001600160a01b0316816001600160a01b0316837f2f8788117e7eff1d82e926ec794901d17c78024a50270940304540a733656f0d60405160405180910390a45050565b60006107bd836001600160a01b0384166137d8565b6131658282610d8d565b156109b25760008281526065602090815260408083206001600160a01b0385168085529252808320805460ff1916905551339285917ff6391f5c32d9c69d2a47ea670b442974b53935d1edc7fd64eb21e047a839171b9190a45050565b60006107bd836001600160a01b038416613827565b6001600160a01b03831661323b5760405162461bcd60e51b815260206004820152602560248201527f4552433737373a20617070726f76652066726f6d20746865207a65726f206164604482015264647265737360d81b60648201526084016106f4565b6001600160a01b03821661329d5760405162461bcd60e51b815260206004820152602360248201527f4552433737373a20617070726f766520746f20746865207a65726f206164647260448201526265737360e81b60648201526084016106f4565b6001600160a01b03838116600081815260d1602090815260408083209487168084529482529182902085905590518481527f8c5be1e5ebec7d5bd14f71427d1e84f3dd0314c0f7b2291e5b200ac8c7c3b925910160405180910390a3505050565b61093383838361391a565b600054610100900460ff166133305760405162461bcd60e51b81526004016106f4906144c5565b81516133439060fe9060208501906139cc565b5080516109339060ff9060208401906139cc565b600081831061336657816107bd565b5090919050565b600082600001828154811061338457613384614315565b9060005260206000200154905092915050565b60048301546133f65782548210156133f15760405162461bcd60e51b815260206004820152601b60248201527f436c696666206265666f7265207363686564756c65207374617274000000000060448201526064016106f4565b61346e565b8260030160006001856004015461340d91906142fe565b81526020019081526020016000206000015482101561346e5760405162461bcd60e51b815260206004820152601860248201527f436c69666673206e6f74206368726f6e6f6c6f676963616c000000000000000060448201526064016106f4565b82600101548211156134c25760405162461bcd60e51b815260206004820181905260248201527f436c696666732063616e6e6f7420656e64206166746572207363686564756c6560448201526064016106f4565b8260020154816134d185613981565b6134db9190614222565b11156135295760405162461bcd60e51b815260206004820152601a60248201527f636c69666620616d6f756e74732065786365656420746f74616c00000000000060448201526064016106f4565b60048301805460009081526003850160205260408082208590558254825281206001908101849055825490929190613562908490614222565b9091555050505050565b6001600160a01b0385166135c25760405162461bcd60e51b815260206004820181905260248201527f4552433737373a206d696e7420746f20746865207a65726f206164647265737360448201526064016106f4565b336135d08160008888612b26565b8460ca60008282546135e29190614222565b90915550506001600160a01b038616600090815260c960205260408120805487929061360f908490614222565b9091555061362590508160008888888888612d5f565b856001600160a01b0316816001600160a01b03167f2fe5be0146f74c5bce36c0b80911af6c7d86ff27e89d5cfa61fc681327954e5d87878760405161366c939291906143d7565b60405180910390a36040518581526001600160a01b0387169060009060008051602061472e833981519152906020016119df565b6000806136ac84613981565b8460020154106136d1576136bf84613981565b84600201546136ce91906142fe565b90505b836001015483106136e357905061073a565b835460048501541561371b578460030160006001876004015461370691906142fe565b81526020019081526020016000206000015490505b600081866001015461372d91906142fe565b9050600061373b8387614676565b9050600081131561376057816137518286614640565b61375b91906146b5565b613763565b60005b979650505050505050565b600080805b84600401548110156137c957600081815260038601602052604090205484106137b75760008181526003860160205260409020600101546137b49083614222565b91505b806137c181614510565b915050613773565b50610905846002015482613357565b600081815260018301602052604081205461381f5750815460018181018455600084815260208082209093018490558454848252828601909352604090209190915561073a565b50600061073a565b6000818152600183016020526040812054801561391057600061384b6001836142fe565b855490915060009061385f906001906142fe565b90508181146138c457600086600001828154811061387f5761387f614315565b90600052602060002001549050808760000184815481106138a2576138a2614315565b6000918252602080832090910192909255918252600188019052604090208390555b85548690806138d5576138d56146d7565b60019003818190600052602060002001600090559055856001016000868152602001908152602001600020600090556001935050505061073a565b600091505061073a565b61015f5460ff16156109335760405162461bcd60e51b815260206004820152602a60248201527f45524332305061757361626c653a20746f6b656e207472616e736665722077686044820152691a5b19481c185d5cd95960b21b60648201526084016106f4565b60008060005b83600401548110156139c55760008181526003850160205260409020600101546139b19083614222565b9150806139bd81614510565b915050613987565b5092915050565b8280546139d890614383565b90600052602060002090601f0160209004810192826139fa5760008555613a40565b82601f10613a1357805160ff1916838001178555613a40565b82800160010185558215613a40579182015b82811115613a40578251825591602001919060010190613a25565b50613a4c929150613aa5565b5090565b828054828255906000526020600020908101928215613a40579160200282015b82811115613a4057825182546001600160a01b0319166001600160a01b03909116178255602090920191600190910190613a70565b5b80821115613a4c5760008155600101613aa6565b6001600160a01b0381168114610b3857600080fd5b60008083601f840112613ae157600080fd5b50813567ffffffffffffffff811115613af957600080fd5b602083019150836020828501011115613b1157600080fd5b9250929050565b60008060008060008060008060c0898b031215613b3457600080fd5b8835613b3f81613aba565b97506020890135613b4f81613aba565b96506040890135613b5f81613aba565b955060608901359450608089013567ffffffffffffffff80821115613b8357600080fd5b613b8f8c838d01613acf565b909650945060a08b0135915080821115613ba857600080fd5b50613bb58b828c01613acf565b999c989b5096995094979396929594505050565b600060208284031215613bdb57600080fd5b81356001600160e01b0319811681146107bd57600080fd5b6020808252825182820181905260009190848201906040850190845b81811015613c345783516001600160a01b031683529284019291840191600101613c0f565b50909695505050505050565b60005b83811015613c5b578181015183820152602001613c43565b83811115610e555750506000910152565b60008151808452613c84816020860160208601613c40565b601f01601f19169290920160200192915050565b6020815260006107bd6020830184613c6c565b60008060408385031215613cbe57600080fd5b8235613cc981613aba565b946020939093013593505050565b600060208284031215613ce957600080fd5b81356107bd81613aba565b600080600060608486031215613d0957600080fd5b8335613d1481613aba565b92506020840135613d2481613aba565b929592945050506040919091013590565b600060208284031215613d4757600080fd5b5035919050565b60008060408385031215613d6157600080fd5b823591506020830135613d7381613aba565b809150509250929050565b634e487b7160e01b600052604160045260246000fd5b604051610140810167ffffffffffffffff81118282101715613db857613db8613d7e565b60405290565b600082601f830112613dcf57600080fd5b813567ffffffffffffffff80821115613dea57613dea613d7e565b604051601f8301601f19908116603f01168101908282118183101715613e1257613e12613d7e565b81604052838152866020858801011115613e2b57600080fd5b836020870160208301376000602085830101528094505050505092915050565b60008060408385031215613e5e57600080fd5b823567ffffffffffffffff80821115613e7657600080fd5b613e8286838701613dbe565b93506020850135915080821115613e9857600080fd5b50613ea585828601613dbe565b9150509250929050565b600080600080600060a08688031215613ec757600080fd5b8535613ed281613aba565b94506020860135613ee281613aba565b935060408601359250606086013567ffffffffffffffff80821115613f0657600080fd5b613f1289838a01613dbe565b93506080880135915080821115613f2857600080fd5b50613f3588828901613dbe565b9150509295509295909350565b60008060408385031215613f5557600080fd5b50508035926020909101359150565b600080600060608486031215613f7957600080fd5b8335613f8481613aba565b925060208401359150604084013567ffffffffffffffff811115613fa757600080fd5b613fb386828701613dbe565b9150509250925092565b600080600060608486031215613fd257600080fd5b833592506020840135613fe481613aba565b91506040840135613ff481613aba565b809150509250925092565b815181526020808301516101a0830191614023908401826001600160a01b03169052565b5060408301516040830152606083015160608301526080830151608083015260a083015160a083015260c083015160c083015260e083015160e083015261010080840151818401525061012080840151818401525061014080840151818401525061016080840151818401525061018080840151818401525092915050565b600080604083850312156140b557600080fd5b82356140c081613aba565b91506020830135613d7381613aba565b60008060008060008060008060008060006101608c8e0312156140f257600080fd5b8b359a5060208c013561410481613aba565b9a9d9a9c505050506040890135986060810135986080820135985060a0820135975060c0820135965060e0820135955061010082013594506101208201359350610140909101359150565b6000806000806080858703121561416557600080fd5b843561417081613aba565b935060208501359250604085013567ffffffffffffffff8082111561419457600080fd5b6141a088838901613dbe565b935060608701359150808211156141b657600080fd5b506141c387828801613dbe565b91505092959194509250565b600080604083850312156141e257600080fd5b82359150602083013567ffffffffffffffff81111561420057600080fd5b613ea585828601613dbe565b634e487b7160e01b600052601160045260246000fd5b600082198211156142355761423561420c565b500190565b6020808252602e908201527f496e697469616c697a61626c653a20636f6e747261637420697320616c72656160408201526d191e481a5b9a5d1a585b1a5e995960921b606082015260800190565b6020808252602c908201527f4552433737373a2063616c6c6572206973206e6f7420616e206f70657261746f60408201526b39103337b9103437b63232b960a11b606082015260800190565b60208082526010908201526f14185d5cd8589b194e881c185d5cd95960821b604082015260600190565b6000828210156143105761431061420c565b500390565b634e487b7160e01b600052603260045260246000fd5b60006040828403121561433d57600080fd5b6040516040810181811067ffffffffffffffff8211171561436057614360613d7e565b604052823561436e81613aba565b81526020928301359281019290925250919050565b600181811c9082168061439757607f821691505b602082108114156143b857634e487b7160e01b600052602260045260246000fd5b50919050565b6000602082840312156143d057600080fd5b5051919050565b8381526060602082015260006143f06060830185613c6c565b82810360408401526144028185613c6c565b9695505050505050565b60208082526024908201527f4552433737373a207472616e7366657220746f20746865207a65726f206164646040820152637265737360e01b606082015260800190565b7f416363657373436f6e74726f6c3a206163636f756e7420000000000000000000815260008351614488816017850160208801613c40565b7001034b99036b4b9b9b4b733903937b6329607d1b60179184019182015283516144b9816028840160208801613c40565b01602801949350505050565b6020808252602b908201527f496e697469616c697a61626c653a20636f6e7472616374206973206e6f74206960408201526a6e697469616c697a696e6760a81b606082015260800190565b60006000198214156145245761452461420c565b5060010190565b805161453681613aba565b919050565b6000610140828403121561454e57600080fd5b614556613d94565b61455f8361452b565b81526020830151602082015260408301516040820152606083015160608201526080830151608082015260a083015160a082015260c083015160c082015260e083015160e08201526101008084015181830152506101208084015181830152508091505092915050565b6000602082840312156145db57600080fd5b81516107bd81613aba565b6001600160a01b0387811682528681166020830152851660408201526060810184905260c06080820181905260009061462190830185613c6c565b82810360a08401526146338185613c6c565b9998505050505050505050565b600081600019048311821515161561465a5761465a61420c565b500290565b60008161466e5761466e61420c565b506000190190565b60008083128015600160ff1b8501841216156146945761469461420c565b6001600160ff1b03840183138116156146af576146af61420c565b50500390565b6000826146d257634e487b7160e01b600052601260045260246000fd5b500490565b634e487b7160e01b600052603160045260246000fdfea52f07bb8dc8df886598eb50edeaba2b8e45715237ed244354b60ea04d0390b865d7a28e3265b37a6474929f336521b332c1681b933f6cb9f3376673440d862addf252ad1be2c89b69c2b068fc378daa952ba7f163c4a11628f55a4df523b3efa264697066735822122059bb949ebaba71e6e81df9f9ec6105a4982fb13c3d9b9b35b3d2982a9b0a2d2b64736f6c634300080a0033",
  "linkReferences": {},
  "deployedLinkReferences": {}
}