{
  "_format": "hh-sol-artifact-1",
  "contractName": "LockedNORI",
  "sourceName": "contracts/LockedNORI.sol",
  "abi": [
    {
      "anonymous": false,
      "inputs": [
        {
          "indexed": true,
          "internalType": "address",
          "name": "owner",
          "type": "address"
        },
        {
          "indexed": true,
          "internalType": "address",
          "name": "spender",
          "type": "address"
        },
        {
          "indexed": false,
          "internalType": "uint256",
          "name": "value",
          "type": "uint256"
        }
      ],
      "name": "Approval",
      "type": "event"
    },
    {
      "anonymous": false,
      "inputs": [
        {
          "indexed": true,
          "internalType": "address",
          "name": "operator",
          "type": "address"
        },
        {
          "indexed": true,
          "internalType": "address",
          "name": "tokenHolder",
          "type": "address"
        }
      ],
      "name": "AuthorizedOperator",
      "type": "event"
    },
    {
      "anonymous": false,
      "inputs": [
        {
          "indexed": true,
          "internalType": "address",
          "name": "operator",
          "type": "address"
        },
        {
          "indexed": true,
          "internalType": "address",
          "name": "from",
          "type": "address"
        },
        {
          "indexed": false,
          "internalType": "uint256",
          "name": "amount",
          "type": "uint256"
        },
        {
          "indexed": false,
          "internalType": "bytes",
          "name": "data",
          "type": "bytes"
        },
        {
          "indexed": false,
          "internalType": "bytes",
          "name": "operatorData",
          "type": "bytes"
        }
      ],
      "name": "Burned",
      "type": "event"
    },
    {
      "anonymous": false,
      "inputs": [
        {
          "indexed": true,
          "internalType": "address",
          "name": "operator",
          "type": "address"
        },
        {
          "indexed": true,
          "internalType": "address",
          "name": "to",
          "type": "address"
        },
        {
          "indexed": false,
          "internalType": "uint256",
          "name": "amount",
          "type": "uint256"
        },
        {
          "indexed": false,
          "internalType": "bytes",
          "name": "data",
          "type": "bytes"
        },
        {
          "indexed": false,
          "internalType": "bytes",
          "name": "operatorData",
          "type": "bytes"
        }
      ],
      "name": "Minted",
      "type": "event"
    },
    {
      "anonymous": false,
      "inputs": [
        {
          "indexed": false,
          "internalType": "address",
          "name": "account",
          "type": "address"
        }
      ],
      "name": "Paused",
      "type": "event"
    },
    {
      "anonymous": false,
      "inputs": [
        {
          "indexed": true,
          "internalType": "address",
          "name": "operator",
          "type": "address"
        },
        {
          "indexed": true,
          "internalType": "address",
          "name": "tokenHolder",
          "type": "address"
        }
      ],
      "name": "RevokedOperator",
      "type": "event"
    },
    {
      "anonymous": false,
      "inputs": [
        {
          "indexed": true,
          "internalType": "bytes32",
          "name": "role",
          "type": "bytes32"
        },
        {
          "indexed": true,
          "internalType": "bytes32",
          "name": "previousAdminRole",
          "type": "bytes32"
        },
        {
          "indexed": true,
          "internalType": "bytes32",
          "name": "newAdminRole",
          "type": "bytes32"
        }
      ],
      "name": "RoleAdminChanged",
      "type": "event"
    },
    {
      "anonymous": false,
      "inputs": [
        {
          "indexed": true,
          "internalType": "bytes32",
          "name": "role",
          "type": "bytes32"
        },
        {
          "indexed": true,
          "internalType": "address",
          "name": "account",
          "type": "address"
        },
        {
          "indexed": true,
          "internalType": "address",
          "name": "sender",
          "type": "address"
        }
      ],
      "name": "RoleGranted",
      "type": "event"
    },
    {
      "anonymous": false,
      "inputs": [
        {
          "indexed": true,
          "internalType": "bytes32",
          "name": "role",
          "type": "bytes32"
        },
        {
          "indexed": true,
          "internalType": "address",
          "name": "account",
          "type": "address"
        },
        {
          "indexed": true,
          "internalType": "address",
          "name": "sender",
          "type": "address"
        }
      ],
      "name": "RoleRevoked",
      "type": "event"
    },
    {
      "anonymous": false,
      "inputs": [
        {
          "indexed": true,
          "internalType": "address",
          "name": "operator",
          "type": "address"
        },
        {
          "indexed": true,
          "internalType": "address",
          "name": "from",
          "type": "address"
        },
        {
          "indexed": true,
          "internalType": "address",
          "name": "to",
          "type": "address"
        },
        {
          "indexed": false,
          "internalType": "uint256",
          "name": "amount",
          "type": "uint256"
        },
        {
          "indexed": false,
          "internalType": "bytes",
          "name": "data",
          "type": "bytes"
        },
        {
          "indexed": false,
          "internalType": "bytes",
          "name": "operatorData",
          "type": "bytes"
        }
      ],
      "name": "Sent",
      "type": "event"
    },
    {
      "anonymous": false,
      "inputs": [
        {
          "indexed": true,
          "internalType": "address",
          "name": "from",
          "type": "address"
        },
        {
          "indexed": false,
          "internalType": "address[]",
          "name": "recipients",
          "type": "address[]"
        },
        {
          "indexed": false,
          "internalType": "uint256[]",
          "name": "amounts",
          "type": "uint256[]"
        },
        {
          "indexed": false,
          "internalType": "bytes[]",
          "name": "userData",
          "type": "bytes[]"
        },
        {
          "indexed": false,
          "internalType": "bytes[]",
          "name": "operatorData",
          "type": "bytes[]"
        },
        {
          "indexed": false,
          "internalType": "bool[]",
          "name": "requireReceptionAck",
          "type": "bool[]"
        }
      ],
      "name": "SentBatch",
      "type": "event"
    },
    {
      "anonymous": false,
      "inputs": [
        {
          "indexed": true,
          "internalType": "address",
          "name": "recipient",
          "type": "address"
        },
        {
          "indexed": true,
          "internalType": "uint256",
          "name": "amount",
          "type": "uint256"
        },
        {
          "indexed": true,
          "internalType": "uint256",
          "name": "startTime",
          "type": "uint256"
        },
        {
          "indexed": false,
          "internalType": "uint256",
          "name": "vestEndTime",
          "type": "uint256"
        },
        {
          "indexed": false,
          "internalType": "uint256",
          "name": "unlockEndTime",
          "type": "uint256"
        }
      ],
      "name": "TokenGrantCreated",
      "type": "event"
    },
    {
      "anonymous": false,
      "inputs": [
        {
          "indexed": true,
          "internalType": "address",
          "name": "from",
          "type": "address"
        },
        {
          "indexed": true,
          "internalType": "address",
          "name": "to",
          "type": "address"
        },
        {
          "indexed": false,
          "internalType": "uint256",
          "name": "quantity",
          "type": "uint256"
        }
      ],
      "name": "TokensClaimed",
      "type": "event"
    },
    {
      "anonymous": false,
      "inputs": [
        {
          "indexed": true,
          "internalType": "address",
          "name": "from",
          "type": "address"
        },
        {
          "indexed": true,
          "internalType": "address",
          "name": "to",
          "type": "address"
        },
        {
          "indexed": false,
          "internalType": "uint256",
          "name": "value",
          "type": "uint256"
        }
      ],
      "name": "Transfer",
      "type": "event"
    },
    {
      "anonymous": false,
      "inputs": [
        {
          "indexed": false,
          "internalType": "address",
          "name": "account",
          "type": "address"
        }
      ],
      "name": "Unpaused",
      "type": "event"
    },
    {
      "anonymous": false,
      "inputs": [
        {
          "indexed": true,
          "internalType": "uint256",
          "name": "atTime",
          "type": "uint256"
        },
        {
          "indexed": true,
          "internalType": "address",
          "name": "from",
          "type": "address"
        },
        {
          "indexed": true,
          "internalType": "uint256",
          "name": "quantity",
          "type": "uint256"
        }
      ],
      "name": "UnvestedTokensRevoked",
      "type": "event"
    },
    {
      "inputs": [],
      "name": "DEFAULT_ADMIN_ROLE",
      "outputs": [
        {
          "internalType": "bytes32",
          "name": "",
          "type": "bytes32"
        }
      ],
      "stateMutability": "view",
      "type": "function"
    },
    {
      "inputs": [],
      "name": "ERC777_TOKENS_RECIPIENT_HASH",
      "outputs": [
        {
          "internalType": "bytes32",
          "name": "",
          "type": "bytes32"
        }
      ],
      "stateMutability": "view",
      "type": "function"
    },
    {
      "inputs": [],
      "name": "PAUSER_ROLE",
      "outputs": [
        {
          "internalType": "bytes32",
          "name": "",
          "type": "bytes32"
        }
      ],
      "stateMutability": "view",
      "type": "function"
    },
    {
      "inputs": [],
      "name": "TOKEN_GRANTER_ROLE",
      "outputs": [
        {
          "internalType": "bytes32",
          "name": "",
          "type": "bytes32"
        }
      ],
      "stateMutability": "view",
      "type": "function"
    },
    {
      "inputs": [
        {
          "internalType": "address",
          "name": "holder",
          "type": "address"
        },
        {
          "internalType": "address",
          "name": "spender",
          "type": "address"
        }
      ],
      "name": "allowance",
      "outputs": [
        {
          "internalType": "uint256",
          "name": "",
          "type": "uint256"
        }
      ],
      "stateMutability": "view",
      "type": "function"
    },
    {
      "inputs": [
        {
          "internalType": "address",
          "name": "spender",
          "type": "address"
        },
        {
          "internalType": "uint256",
          "name": "value",
          "type": "uint256"
        }
      ],
      "name": "approve",
      "outputs": [
        {
          "internalType": "bool",
          "name": "",
          "type": "bool"
        }
      ],
      "stateMutability": "nonpayable",
      "type": "function"
    },
    {
      "inputs": [
        {
          "internalType": "address",
          "name": "operator",
          "type": "address"
        }
      ],
      "name": "authorizeOperator",
      "outputs": [],
      "stateMutability": "nonpayable",
      "type": "function"
    },
    {
      "inputs": [
        {
          "internalType": "address",
          "name": "tokenHolder",
          "type": "address"
        }
      ],
      "name": "balanceOf",
      "outputs": [
        {
          "internalType": "uint256",
          "name": "",
          "type": "uint256"
        }
      ],
      "stateMutability": "view",
      "type": "function"
    },
    {
      "inputs": [
        {
          "internalType": "address[]",
          "name": "accounts",
          "type": "address[]"
        }
      ],
      "name": "balanceOfBatch",
      "outputs": [
        {
          "internalType": "uint256[]",
          "name": "",
          "type": "uint256[]"
        }
      ],
      "stateMutability": "view",
      "type": "function"
    },
    {
      "inputs": [
        {
          "internalType": "address[]",
          "name": "accounts",
          "type": "address[]"
        }
      ],
      "name": "batchGetGrant",
      "outputs": [
        {
          "components": [
            {
              "internalType": "uint256",
              "name": "grantAmount",
              "type": "uint256"
            },
            {
              "internalType": "address",
              "name": "recipient",
              "type": "address"
            },
            {
              "internalType": "uint256",
              "name": "startTime",
              "type": "uint256"
            },
            {
              "internalType": "uint256",
              "name": "vestEndTime",
              "type": "uint256"
            },
            {
              "internalType": "uint256",
              "name": "unlockEndTime",
              "type": "uint256"
            },
            {
              "internalType": "uint256",
              "name": "cliff1Time",
              "type": "uint256"
            },
            {
              "internalType": "uint256",
              "name": "cliff2Time",
              "type": "uint256"
            },
            {
              "internalType": "uint256",
              "name": "vestCliff1Amount",
              "type": "uint256"
            },
            {
              "internalType": "uint256",
              "name": "vestCliff2Amount",
              "type": "uint256"
            },
            {
              "internalType": "uint256",
              "name": "unlockCliff1Amount",
              "type": "uint256"
            },
            {
              "internalType": "uint256",
              "name": "unlockCliff2Amount",
              "type": "uint256"
            },
            {
              "internalType": "uint256",
              "name": "claimedAmount",
              "type": "uint256"
            },
            {
              "internalType": "uint256",
              "name": "originalAmount",
              "type": "uint256"
            },
            {
              "internalType": "uint256",
              "name": "lastRevocationTime",
              "type": "uint256"
            }
          ],
          "internalType": "struct LockedNORI.TokenGrantDetail[]",
          "name": "",
          "type": "tuple[]"
        }
      ],
      "stateMutability": "view",
      "type": "function"
    },
    {
      "inputs": [
        {
          "internalType": "address[]",
          "name": "recipients",
          "type": "address[]"
        },
        {
          "internalType": "uint256[]",
          "name": "amounts",
          "type": "uint256[]"
        },
        {
          "internalType": "bytes[]",
          "name": "userData",
          "type": "bytes[]"
        },
        {
          "internalType": "bytes[]",
          "name": "operatorData",
          "type": "bytes[]"
        },
        {
          "internalType": "bool[]",
          "name": "requireReceptionAck",
          "type": "bool[]"
        }
      ],
      "name": "batchSend",
      "outputs": [],
      "stateMutability": "nonpayable",
      "type": "function"
    },
    {
      "inputs": [
        {
          "internalType": "uint256",
          "name": "",
          "type": "uint256"
        },
        {
          "internalType": "bytes",
          "name": "",
          "type": "bytes"
        }
      ],
      "name": "burn",
      "outputs": [],
      "stateMutability": "pure",
      "type": "function"
    },
    {
      "inputs": [
        {
          "internalType": "uint256",
          "name": "amount",
          "type": "uint256"
        },
        {
          "internalType": "address",
          "name": "recipient",
          "type": "address"
        },
        {
          "internalType": "uint256",
          "name": "startTime",
          "type": "uint256"
        },
        {
          "internalType": "uint256",
          "name": "vestEndTime",
          "type": "uint256"
        },
        {
          "internalType": "uint256",
          "name": "unlockEndTime",
          "type": "uint256"
        },
        {
          "internalType": "uint256",
          "name": "cliff1Time",
          "type": "uint256"
        },
        {
          "internalType": "uint256",
          "name": "cliff2Time",
          "type": "uint256"
        },
        {
          "internalType": "uint256",
          "name": "vestCliff1Amount",
          "type": "uint256"
        },
        {
          "internalType": "uint256",
          "name": "vestCliff2Amount",
          "type": "uint256"
        },
        {
          "internalType": "uint256",
          "name": "unlockCliff1Amount",
          "type": "uint256"
        },
        {
          "internalType": "uint256",
          "name": "unlockCliff2Amount",
          "type": "uint256"
        }
      ],
      "name": "createGrant",
      "outputs": [],
      "stateMutability": "nonpayable",
      "type": "function"
    },
    {
      "inputs": [],
      "name": "decimals",
      "outputs": [
        {
          "internalType": "uint8",
          "name": "",
          "type": "uint8"
        }
      ],
      "stateMutability": "pure",
      "type": "function"
    },
    {
      "inputs": [],
      "name": "defaultOperators",
      "outputs": [
        {
          "internalType": "address[]",
          "name": "",
          "type": "address[]"
        }
      ],
      "stateMutability": "view",
      "type": "function"
    },
    {
      "inputs": [
        {
          "internalType": "address",
          "name": "account",
          "type": "address"
        }
      ],
      "name": "getGrant",
      "outputs": [
        {
          "components": [
            {
              "internalType": "uint256",
              "name": "grantAmount",
              "type": "uint256"
            },
            {
              "internalType": "address",
              "name": "recipient",
              "type": "address"
            },
            {
              "internalType": "uint256",
              "name": "startTime",
              "type": "uint256"
            },
            {
              "internalType": "uint256",
              "name": "vestEndTime",
              "type": "uint256"
            },
            {
              "internalType": "uint256",
              "name": "unlockEndTime",
              "type": "uint256"
            },
            {
              "internalType": "uint256",
              "name": "cliff1Time",
              "type": "uint256"
            },
            {
              "internalType": "uint256",
              "name": "cliff2Time",
              "type": "uint256"
            },
            {
              "internalType": "uint256",
              "name": "vestCliff1Amount",
              "type": "uint256"
            },
            {
              "internalType": "uint256",
              "name": "vestCliff2Amount",
              "type": "uint256"
            },
            {
              "internalType": "uint256",
              "name": "unlockCliff1Amount",
              "type": "uint256"
            },
            {
              "internalType": "uint256",
              "name": "unlockCliff2Amount",
              "type": "uint256"
            },
            {
              "internalType": "uint256",
              "name": "claimedAmount",
              "type": "uint256"
            },
            {
              "internalType": "uint256",
              "name": "originalAmount",
              "type": "uint256"
            },
            {
              "internalType": "uint256",
              "name": "lastRevocationTime",
              "type": "uint256"
            }
          ],
          "internalType": "struct LockedNORI.TokenGrantDetail",
          "name": "",
          "type": "tuple"
        }
      ],
      "stateMutability": "view",
      "type": "function"
    },
    {
      "inputs": [
        {
          "internalType": "bytes32",
          "name": "role",
          "type": "bytes32"
        }
      ],
      "name": "getRoleAdmin",
      "outputs": [
        {
          "internalType": "bytes32",
          "name": "",
          "type": "bytes32"
        }
      ],
      "stateMutability": "view",
      "type": "function"
    },
    {
      "inputs": [
        {
          "internalType": "bytes32",
          "name": "role",
          "type": "bytes32"
        },
        {
          "internalType": "uint256",
          "name": "index",
          "type": "uint256"
        }
      ],
      "name": "getRoleMember",
      "outputs": [
        {
          "internalType": "address",
          "name": "",
          "type": "address"
        }
      ],
      "stateMutability": "view",
      "type": "function"
    },
    {
      "inputs": [
        {
          "internalType": "bytes32",
          "name": "role",
          "type": "bytes32"
        }
      ],
      "name": "getRoleMemberCount",
      "outputs": [
        {
          "internalType": "uint256",
          "name": "",
          "type": "uint256"
        }
      ],
      "stateMutability": "view",
      "type": "function"
    },
    {
      "inputs": [
        {
          "internalType": "bytes32",
          "name": "role",
          "type": "bytes32"
        },
        {
          "internalType": "address",
          "name": "account",
          "type": "address"
        }
      ],
      "name": "grantRole",
      "outputs": [],
      "stateMutability": "nonpayable",
      "type": "function"
    },
    {
      "inputs": [],
      "name": "granularity",
      "outputs": [
        {
          "internalType": "uint256",
          "name": "",
          "type": "uint256"
        }
      ],
      "stateMutability": "view",
      "type": "function"
    },
    {
      "inputs": [
        {
          "internalType": "bytes32",
          "name": "role",
          "type": "bytes32"
        },
        {
          "internalType": "address",
          "name": "account",
          "type": "address"
        }
      ],
      "name": "hasRole",
      "outputs": [
        {
          "internalType": "bool",
          "name": "",
          "type": "bool"
        }
      ],
      "stateMutability": "view",
      "type": "function"
    },
    {
      "inputs": [
        {
          "internalType": "contract IERC777Upgradeable",
          "name": "bridgedPolygonNoriAddress",
          "type": "address"
        }
      ],
      "name": "initialize",
      "outputs": [],
      "stateMutability": "nonpayable",
      "type": "function"
    },
    {
      "inputs": [
        {
          "internalType": "address",
          "name": "operator",
          "type": "address"
        },
        {
          "internalType": "address",
          "name": "tokenHolder",
          "type": "address"
        }
      ],
      "name": "isOperatorFor",
      "outputs": [
        {
          "internalType": "bool",
          "name": "",
          "type": "bool"
        }
      ],
      "stateMutability": "view",
      "type": "function"
    },
    {
      "inputs": [],
      "name": "name",
      "outputs": [
        {
          "internalType": "string",
          "name": "",
          "type": "string"
        }
      ],
      "stateMutability": "view",
      "type": "function"
    },
    {
      "inputs": [
        {
          "internalType": "address",
          "name": "",
          "type": "address"
        },
        {
          "internalType": "uint256",
          "name": "",
          "type": "uint256"
        },
        {
          "internalType": "bytes",
          "name": "",
          "type": "bytes"
        },
        {
          "internalType": "bytes",
          "name": "",
          "type": "bytes"
        }
      ],
      "name": "operatorBurn",
      "outputs": [],
      "stateMutability": "pure",
      "type": "function"
    },
    {
      "inputs": [
        {
          "internalType": "address",
          "name": "sender",
          "type": "address"
        },
        {
          "internalType": "address",
          "name": "recipient",
          "type": "address"
        },
        {
          "internalType": "uint256",
          "name": "amount",
          "type": "uint256"
        },
        {
          "internalType": "bytes",
          "name": "data",
          "type": "bytes"
        },
        {
          "internalType": "bytes",
          "name": "operatorData",
          "type": "bytes"
        }
      ],
      "name": "operatorSend",
      "outputs": [],
      "stateMutability": "nonpayable",
      "type": "function"
    },
    {
      "inputs": [],
      "name": "pause",
      "outputs": [],
      "stateMutability": "nonpayable",
      "type": "function"
    },
    {
      "inputs": [],
      "name": "paused",
      "outputs": [
        {
          "internalType": "bool",
          "name": "",
          "type": "bool"
        }
      ],
      "stateMutability": "view",
      "type": "function"
    },
    {
      "inputs": [
        {
          "internalType": "address",
          "name": "account",
          "type": "address"
        }
      ],
      "name": "quantityRevokedFrom",
      "outputs": [
        {
          "internalType": "uint256",
          "name": "",
          "type": "uint256"
        }
      ],
      "stateMutability": "view",
      "type": "function"
    },
    {
      "inputs": [
        {
          "internalType": "bytes32",
          "name": "role",
          "type": "bytes32"
        },
        {
          "internalType": "address",
          "name": "account",
          "type": "address"
        }
      ],
      "name": "renounceRole",
      "outputs": [],
      "stateMutability": "nonpayable",
      "type": "function"
    },
    {
      "inputs": [
        {
          "internalType": "address",
          "name": "operator",
          "type": "address"
        }
      ],
      "name": "revokeOperator",
      "outputs": [],
      "stateMutability": "nonpayable",
      "type": "function"
    },
    {
      "inputs": [
        {
          "internalType": "bytes32",
          "name": "role",
          "type": "bytes32"
        },
        {
          "internalType": "address",
          "name": "account",
          "type": "address"
        }
      ],
      "name": "revokeRole",
      "outputs": [],
      "stateMutability": "nonpayable",
      "type": "function"
    },
    {
      "inputs": [
        {
          "internalType": "address",
          "name": "from",
          "type": "address"
        },
        {
          "internalType": "address",
          "name": "to",
          "type": "address"
        },
        {
          "internalType": "uint256",
          "name": "atTime",
          "type": "uint256"
        },
        {
          "internalType": "uint256",
          "name": "amount",
          "type": "uint256"
        }
      ],
      "name": "revokeUnvestedTokenAmount",
      "outputs": [],
      "stateMutability": "nonpayable",
      "type": "function"
    },
    {
      "inputs": [
        {
          "internalType": "address",
          "name": "from",
          "type": "address"
        },
        {
          "internalType": "address",
          "name": "to",
          "type": "address"
        },
        {
          "internalType": "uint256",
          "name": "atTime",
          "type": "uint256"
        }
      ],
      "name": "revokeUnvestedTokens",
      "outputs": [],
      "stateMutability": "nonpayable",
      "type": "function"
    },
    {
      "inputs": [
        {
          "internalType": "address",
          "name": "recipient",
          "type": "address"
        },
        {
          "internalType": "uint256",
          "name": "amount",
          "type": "uint256"
        },
        {
          "internalType": "bytes",
          "name": "data",
          "type": "bytes"
        }
      ],
      "name": "send",
      "outputs": [],
      "stateMutability": "nonpayable",
      "type": "function"
    },
    {
      "inputs": [
        {
          "internalType": "bytes4",
          "name": "interfaceId",
          "type": "bytes4"
        }
      ],
      "name": "supportsInterface",
      "outputs": [
        {
          "internalType": "bool",
          "name": "",
          "type": "bool"
        }
      ],
      "stateMutability": "view",
      "type": "function"
    },
    {
      "inputs": [],
      "name": "symbol",
      "outputs": [
        {
          "internalType": "string",
          "name": "",
          "type": "string"
        }
      ],
      "stateMutability": "view",
      "type": "function"
    },
    {
      "inputs": [
        {
          "internalType": "address",
          "name": "",
          "type": "address"
        },
        {
          "internalType": "address",
          "name": "",
          "type": "address"
        },
        {
          "internalType": "address",
          "name": "",
          "type": "address"
        },
        {
          "internalType": "uint256",
          "name": "amount",
          "type": "uint256"
        },
        {
          "internalType": "bytes",
          "name": "userData",
          "type": "bytes"
        },
        {
          "internalType": "bytes",
          "name": "operatorData",
          "type": "bytes"
        }
      ],
      "name": "tokensReceived",
      "outputs": [],
      "stateMutability": "nonpayable",
      "type": "function"
    },
    {
      "inputs": [],
      "name": "totalSupply",
      "outputs": [
        {
          "internalType": "uint256",
          "name": "",
          "type": "uint256"
        }
      ],
      "stateMutability": "view",
      "type": "function"
    },
    {
      "inputs": [
        {
          "internalType": "address",
          "name": "recipient",
          "type": "address"
        },
        {
          "internalType": "uint256",
          "name": "amount",
          "type": "uint256"
        }
      ],
      "name": "transfer",
      "outputs": [
        {
          "internalType": "bool",
          "name": "",
          "type": "bool"
        }
      ],
      "stateMutability": "nonpayable",
      "type": "function"
    },
    {
      "inputs": [
        {
          "internalType": "address",
          "name": "holder",
          "type": "address"
        },
        {
          "internalType": "address",
          "name": "recipient",
          "type": "address"
        },
        {
          "internalType": "uint256",
          "name": "amount",
          "type": "uint256"
        }
      ],
      "name": "transferFrom",
      "outputs": [
        {
          "internalType": "bool",
          "name": "",
          "type": "bool"
        }
      ],
      "stateMutability": "nonpayable",
      "type": "function"
    },
    {
      "inputs": [
        {
          "internalType": "address",
          "name": "account",
          "type": "address"
        }
      ],
      "name": "unlockedBalanceOf",
      "outputs": [
        {
          "internalType": "uint256",
          "name": "",
          "type": "uint256"
        }
      ],
      "stateMutability": "view",
      "type": "function"
    },
    {
      "inputs": [],
      "name": "unpause",
      "outputs": [],
      "stateMutability": "nonpayable",
      "type": "function"
    },
    {
      "inputs": [
        {
          "internalType": "address",
          "name": "account",
          "type": "address"
        }
      ],
      "name": "vestedBalanceOf",
      "outputs": [
        {
          "internalType": "uint256",
          "name": "",
          "type": "uint256"
        }
      ],
      "stateMutability": "view",
      "type": "function"
    },
    {
      "inputs": [
        {
          "internalType": "address",
          "name": "recipient",
          "type": "address"
        },
        {
          "internalType": "uint256",
          "name": "amount",
          "type": "uint256"
        }
      ],
      "name": "withdrawTo",
      "outputs": [
        {
          "internalType": "bool",
          "name": "",
          "type": "bool"
        }
      ],
      "stateMutability": "nonpayable",
      "type": "function"
    }
  ],
  "bytecode": "0x608060405234801561001057600080fd5b50614b30806100206000396000f3fe608060405234801561001057600080fd5b50600436106102895760003560e01c806370a082311161015c578063a217fddf116100ce578063d95b637111610087578063d95b6371146105db578063dd62ed3e146105ee578063e63ab1e914610627578063fad8b32a1461063c578063fc673c4f1461064f578063fe9d93031461066257600080fd5b8063a217fddf14610567578063a9059cbb1461056f578063bf31dbf414610582578063c4d66de8146105a2578063ca15c873146105b5578063d547741f146105c857600080fd5b806391d148541161012057806391d14854146104f3578063959b8c3f1461050657806395d89b41146105195780639bd9bbc6146105215780639e3f3cac146105345780639f916c211461054757600080fd5b806370a08231146104715780637f02f21d1461049a5780638456cb59146104ad57806384955c88146104b55780639010d07c146104c857600080fd5b8063271c6e1a11610200578063521189a9116101b9578063521189a9146103fd578063556f0dc7146104245780635c975abb1461042b57806362ad1b8314610436578063633d9be01461044957806366cf8bce1461045e57600080fd5b8063271c6e1a1461038d5780632f2ff15d146103a0578063313ce567146103b357806336568abe146103c25780633f4ba83a146103d5578063458c738e146103dd57600080fd5b80630e2d1a2a116102525780630e2d1a2a14610308578063180e4bb81461032957806318160ddd1461033c578063205c28781461034457806323b872dd14610357578063248a9ca31461036a57600080fd5b806223de291461028e57806301ffc9a7146102a357806306e48538146102cb57806306fdde03146102e0578063095ea7b3146102f5575b600080fd5b6102a161029c366004613af3565b610670565b005b6102b66102b1366004613ba3565b6106e8565b60405190151581526020015b60405180910390f35b6102d3610713565b6040516102c29190613c11565b6102e8610775565b6040516102c29190613c7c565b6102b6610303366004613c8f565b6107fe565b61031b610316366004613cbb565b610844565b6040519081526020016102c2565b6102a1610337366004613cd8565b610850565b60345461031b565b6102b6610352366004613c8f565b61089f565b6102b6610365366004613d1e565b6109ae565b61031b610378366004613d5f565b600090815260c9602052604090206001015490565b6102a161039b366004613d78565b610adc565b6102a16103ae366004613df7565b610b9d565b604051601281526020016102c2565b6102a16103d0366004613df7565b610bc8565b6102a1610c46565b6103f06103eb366004613f2d565b610c6a565b6040516102c29190613f91565b61031b7fb281fc8c12954d22544db45de3159a39272895b169a852b314f9cc762e44c53b81565b600161031b565b60655460ff166102b6565b6102a1610444366004614013565b610d2b565b61031b600080516020614abb83398151915281565b6102a161046c3660046141e9565b610da5565b61031b61047f366004613cbb565b6001600160a01b031660009081526033602052604090205490565b6102a16104a8366004613d1e565b610f25565b6102a1610f74565b61031b6104c3366004613cbb565b610f95565b6104db6104d63660046142ad565b610fa1565b6040516001600160a01b0390911681526020016102c2565b6102b6610501366004613df7565b610fb9565b6102a1610514366004613cbb565b610fe4565b6102e8610ff8565b6102a161052f3660046142cf565b611007565b61031b610542366004613cbb565b611025565b61055a610555366004614327565b611052565b6040516102c29190614439565b61031b600081565b6102b661057d366004613c8f565b611117565b610595610590366004613cbb565b6111d4565b6040516102c29190614488565b6102a16105b0366004613cbb565b6112b5565b61031b6105c3366004613d5f565b61153a565b6102a16105d6366004613df7565b611551565b6102b66105e9366004614497565b611577565b61031b6105fc366004614497565b6001600160a01b039182166000908152603b6020908152604080832093909416825291909152205490565b61031b600080516020614adb83398151915281565b6102a161064a366004613cbb565b611618565b6102a161065d3660046144c5565b61162c565b6102a161065d366004614544565b610160546001600160a01b031633146106d05760405162461bcd60e51b815260206004820152601d60248201527f6c4e4f52493a206e6f742042726964676564506f6c79676f6e4e4f524900000060448201526064015b60405180910390fd5b6106dd8585858585611674565b505050505050505050565b60006001600160e01b03198216635a05180f60e01b148061070d575061070d82611756565b92915050565b6060603780548060200260200160405190810160405280929190818152602001828054801561076b57602002820191906000526020600020905b81546001600160a01b0316815260019091019060200180831161074d575b5050505050905090565b6060603580546107849061458a565b80601f01602080910402602001604051908101604052809291908181526020018280546107b09061458a565b801561076b5780601f106107d25761010080835404028352916020019161076b565b820191906000526020600020905b8154815290600101906020018083116107e057509395945050505050565b600061080c60655460ff1690565b156108295760405162461bcd60e51b81526004016106c7906145c5565b610833838361178b565b61083d83836117ae565b9392505050565b600061070d82426117bc565b60655460ff16156108735760405162461bcd60e51b81526004016106c7906145c5565b600080516020614abb83398151915261088c81336118a4565b61089885858585611908565b5050505050565b33600081815261015f6020908152604080832081518084018352848152825193840190925283835292936108d69290918691611c09565b61016054604051634decdde360e11b81526001600160a01b03868116600483015260248201869052606060448301526000606483015290911690639bd9bbc690608401600060405180830381600087803b15801561093357600080fd5b505af1158015610947573d6000803e3d6000fd5b505050508281600b01600082825461095f9190614605565b90915550506040518381526001600160a01b0385169033907fa86305abc2db271df4609aa86a8d044bc11fb36939841bfdad6c1ab2b26e94719060200160405180910390a35060019392505050565b60006001600160a01b0383166109d65760405162461bcd60e51b81526004016106c79061461d565b6001600160a01b038416610a3b5760405162461bcd60e51b815260206004820152602660248201527f4552433737373a207472616e736665722066726f6d20746865207a65726f206160448201526564647265737360d01b60648201526084016106c7565b6000339050610a6c818686866040518060200160405280600081525060405180602001604052806000815250611dcb565b610a77858285611ef3565b610aa3818686866040518060200160405280600081525060405180602001604052806000815250611f7f565b610ad181868686604051806020016040528060008152506040518060200160405280600081525060006120f1565b506001949350505050565b60655460ff1615610aff5760405162461bcd60e51b81526004016106c7906145c5565b600080516020614abb833981519152610b1881336118a4565b604080516001600160a01b038d1660208201529081018b9052606081018a90526080810189905260a0810188905260c0810187905260e08101869052610100810185905261012081018490526101408101839052600090610160016040516020818303038152906040529050610b8e8d826122b6565b50505050505050505050505050565b600082815260c96020526040902060010154610bb981336118a4565b610bc383836125b7565b505050565b6001600160a01b0381163314610c385760405162461bcd60e51b815260206004820152602f60248201527f416363657373436f6e74726f6c3a2063616e206f6e6c792072656e6f756e636560448201526e103937b632b9903337b91039b2b63360891b60648201526084016106c7565b610c4282826125cb565b5050565b600080516020614adb833981519152610c5f81336118a4565b610c676125df565b50565b6060600082516001600160401b03811115610c8757610c87613e27565b604051908082528060200260200182016040528015610cb0578160200160208202803683370190505b50905060005b8351811015610d2457610cf7848281518110610cd457610cd4614661565b60200260200101516001600160a01b031660009081526033602052604090205490565b828281518110610d0957610d09614661565b6020908102919091010152610d1d81614677565b9050610cb6565b5092915050565b610d353386611577565b610d965760405162461bcd60e51b815260206004820152602c60248201527f4552433737373a2063616c6c6572206973206e6f7420616e206f70657261746f60448201526b39103337b9103437b63232b960a11b60648201526084016106c7565b61089885858585856001612672565b8351855114610e2b5760405162461bcd60e51b815260206004820152604660248201527f4552433737375072657365745061757361626c655065726d697373696f6e656460448201527f3a20726563697069656e7420616e6420616d6f756e74206c656e677468206d696064820152650e6dac2e8c6d60d31b608482015260a4016106c7565b60005b8551811015610ed457610ec233878381518110610e4d57610e4d614661565b6020026020010151878481518110610e6757610e67614661565b6020026020010151878581518110610e8157610e81614661565b6020026020010151878681518110610e9b57610e9b614661565b6020026020010151878781518110610eb557610eb5614661565b6020026020010151612672565b80610ecc81614677565b915050610e2e565b50336001600160a01b03167fd5865ae34f92a2d6a803fa13140b8165046f54e61e68560b26950c62a668c6b68686868686604051610f169594939291906146e7565b60405180910390a25050505050565b60655460ff1615610f485760405162461bcd60e51b81526004016106c7906145c5565b600080516020614abb833981519152610f6181336118a4565b610f6e8484846000611908565b50505050565b600080516020614adb833981519152610f8d81336118a4565b610c67612755565b600061070d82426127ad565b600082815260fb6020526040812061083d908361289e565b600091825260c9602090815260408084206001600160a01b0393909316845291905290205460ff1690565b610fef81600061178b565b610c67816128aa565b6060603680546107849061458a565b610bc333848484604051806020016040528060008152506001612672565b6001600160a01b038116600090815261015f60205260408120600a810154600c82015461083d919061477c565b60606000826001600160401b0381111561106e5761106e613e27565b6040519080825280602002602001820160405280156110a757816020015b611094613930565b81526020019060019003908161108c5790505b50905060005b8381101561110f576110df8585838181106110ca576110ca614661565b90506020020160208101906105909190613cbb565b8282815181106110f1576110f1614661565b6020026020010181905250808061110790614677565b9150506110ad565b509392505050565b60006001600160a01b03831661113f5760405162461bcd60e51b81526004016106c79061461d565b6000339050611170818286866040518060200160405280600081525060405180602001604052806000815250611dcb565b61119c818286866040518060200160405280600081525060405180602001604052806000815250611f7f565b6111ca81828686604051806020016040528060008152506040518060200160405280600081525060006120f1565b5060019392505050565b6111dc613930565b506001600160a01b0316600081815261015f6020908152604080832081516101c081018352600a82015481528084019590955260058101548583015260018082015460608701526006820154608087015284805260088201808552838620805460a0890152828752818652848720805460c08a01528780526003850180885286892085015460e08b01528489528752948720830154610100890152820154610120880152948190529390925290910154610140830152600b810154610160830152600c810154610180830152600d01546101a082015290565b600054610100900460ff166112d05760005460ff16156112d4565b303b155b6113375760405162461bcd60e51b815260206004820152602e60248201527f496e697469616c697a61626c653a20636f6e747261637420697320616c72656160448201526d191e481a5b9a5d1a585b1a5e995960921b60648201526084016106c7565b600054610100900460ff16158015611359576000805461ffff19166101011790555b60408051600180825281830190925260009160208083019080368337019050509050338160008151811061138f5761138f614661565b60200260200101906001600160a01b031690816001600160a01b0316815250506113b76129c8565b6113bf6129c8565b6113c76129c8565b6113cf6129c8565b6113d76129f1565b6114346040518060400160405280601981526020017f4c6f636b65642042726964676564506f6c79676f6e4e4f524900000000000000815250604051806040016040528060058152602001646c4e4f524960d81b81525083612a24565b61016080546001600160a01b0319166001600160a01b0385161790556040516329965a1d60e01b815230600482018190527fb281fc8c12954d22544db45de3159a39272895b169a852b314f9cc762e44c53b60248301526044820152731820a4b7618bde71dce8cdc73aab6c95905fad24906329965a1d90606401600060405180830381600087803b1580156114c957600080fd5b505af11580156114dd573d6000803e3d6000fd5b505050506114f46000801b6114ef3390565b612c0e565b61150c600080516020614abb83398151915233612c0e565b611524600080516020614adb83398151915233612c0e565b508015610c42576000805461ff00191690555050565b600081815260fb6020526040812061070d90612c18565b600082815260c9602052604090206001015461156d81336118a4565b610bc383836125cb565b6000816001600160a01b0316836001600160a01b031614806115e257506001600160a01b03831660009081526038602052604090205460ff1680156115e257506001600160a01b038083166000908152603a602090815260408083209387168352929052205460ff16155b8061083d5750506001600160a01b0390811660009081526039602090815260408083209490931682529290925290205460ff1690565b61162381600061178b565b610c6781612c22565b60405162461bcd60e51b815260206004820152601c60248201527f6c4e4f52493a206275726e696e67206e6f7420737570706f727465640000000060448201526064016106c7565b60008061168385870187614793565b6020810151909150156116d0576116d08787878080601f0160208091040260200160405190810160405280939291908181526020018383808284376000920191909152506122b692505050565b61174981600001518888888080601f01602080910402602001604051908101604052809392919081815260200183838082843760009201919091525050604080516020601f8c018190048102820181019092528a815292508a9150899081908401838280828437600092019190915250612d3e92505050565b5060019695505050505050565b60006001600160e01b03198216637965db0b60e01b148061070d57506301ffc9a760e01b6001600160e01b031983161461070d565b60655460ff1615610c425760405162461bcd60e51b81526004016106c7906145c5565b6000336111ca818585612d4c565b6001600160a01b038216600081815261015f602052604080822090516370a0823160e01b815260048101939093529091829030906370a0823190602401602060405180830381865afa158015611816573d6000803e3d6000fd5b505050506040513d601f19601f8201168201806040525081019061183a91906147ea565b600e83015490915060ff161561189c5761185385612e73565b1561188557600b82015461187461186a8487612ea4565b84600a0154612ec4565b61187e919061477c565b905061189c565b81600b015482600a0154611899919061477c565b90505b949350505050565b6118ae8282610fb9565b610c42576118c6816001600160a01b03166014612eda565b6118d1836020612eda565b6040516020016118e2929190614803565b60408051601f198184030181529082905262461bcd60e51b82526106c791600401613c7c565b6001600160a01b038416600090815261015f60205260409020600e81015460ff1661196e5760405162461bcd60e51b81526020600482015260166024820152756c4e4f52493a206e6f206772616e742065786973747360501b60448201526064016106c7565b61197785612e73565b6119d55760405162461bcd60e51b815260206004820152602960248201527f6c4e4f52493a206e6f2076657374696e67207363686564756c6520666f7220746044820152681a1a5cc819dc985b9d60ba1b60648201526084016106c7565b42831015611a355760405162461bcd60e51b815260206004820152602760248201527f6c4e4f52493a205265766f636174696f6e2063616e6e6f7420626520696e20746044820152661a19481c185cdd60ca1b60648201526084016106c7565b6000611a418285612ea4565b905081600a01548110611a965760405162461bcd60e51b815260206004820152601c60248201527f6c4e4f52493a20746f6b656e7320616c7265616479207665737465640000000060448201526064016106c7565b60008183600a0154611aa8919061477c565b905060008415611b095781851115611b025760405162461bcd60e51b815260206004820152601e60248201527f6c4e4f52493a20746f6f2066657720756e76657374656420746f6b656e73000060448201526064016106c7565b5083611b0c565b50805b8084600a0154611b1c919061477c565b600a850155600d840186905561016054604051634decdde360e11b81526001600160a01b03898116600483015260248201849052606060448301526000606483015290911690639bd9bbc690608401600060405180830381600087803b158015611b8557600080fd5b505af1158015611b99573d6000803e3d6000fd5b50505050611bc788826040518060200160405280600081525060405180602001604052806000815250611c09565b80886001600160a01b0316877f0bbe3f9ae306d75ae6df08cd4a79ac5c6eae93ffae7d7e52f2859bf27592519d60405160405180910390a45050505050505050565b6001600160a01b038416611c6a5760405162461bcd60e51b815260206004820152602260248201527f4552433737373a206275726e2066726f6d20746865207a65726f206164647265604482015261737360f01b60648201526084016106c7565b33611c7a81866000878787611dcb565b611c878186600087613075565b6001600160a01b03851660009081526033602052604090205484811015611cfc5760405162461bcd60e51b815260206004820152602360248201527f4552433737373a206275726e20616d6f756e7420657863656564732062616c616044820152626e636560e81b60648201526084016106c7565b6001600160a01b0386166000908152603360205260408120868303905560348054879290611d2b90849061477c565b92505081905550856001600160a01b0316826001600160a01b03167fa78a9be3a7b862d26933ad85fb11d80ef66b8f972d7cbba06621d583943a4098878787604051611d7993929190614878565b60405180910390a36040518581526000906001600160a01b038816907fddf252ad1be2c89b69c2b068fc378daa952ba7f163c4a11628f55a4df523b3ef906020015b60405180910390a3505050505050565b60405163555ddc6560e11b81526001600160a01b03861660048201527f29ddb589b1fb5fc7cf394961c1adf5f8c6454761adf795e67fe149f658abe8956024820152600090731820a4b7618bde71dce8cdc73aab6c95905fad249063aabbb8ca90604401602060405180830381865afa158015611e4c573d6000803e3d6000fd5b505050506040513d601f19601f82011682018060405250810190611e7091906148bd565b90506001600160a01b03811615611eea57604051633ad5cbc160e11b81526001600160a01b038216906375ab978290611eb7908a908a908a908a908a908a906004016148da565b600060405180830381600087803b158015611ed157600080fd5b505af1158015611ee5573d6000803e3d6000fd5b505050505b50505050505050565b6001600160a01b038381166000908152603b60209081526040808320938616835292905220546000198114610f6e5781811015611f725760405162461bcd60e51b815260206004820152601e60248201527f4552433737373a20696e73756666696369656e7420616c6c6f77616e6365000060448201526064016106c7565b610f6e8484848403612d4c565b611f8b86868686613075565b6001600160a01b038516600090815260336020526040902054838110156120045760405162461bcd60e51b815260206004820152602760248201527f4552433737373a207472616e7366657220616d6f756e7420657863656564732060448201526662616c616e636560c81b60648201526084016106c7565b6001600160a01b0380871660009081526033602052604080822087850390559187168152908120805486929061203b908490614605565b92505081905550846001600160a01b0316866001600160a01b0316886001600160a01b03167f06b541ddaa720db2b10a4d0cdac39b8d360425fc073085fac19bc8261467798787878760405161209393929190614878565b60405180910390a4846001600160a01b0316866001600160a01b03167fddf252ad1be2c89b69c2b068fc378daa952ba7f163c4a11628f55a4df523b3ef866040516120e091815260200190565b60405180910390a350505050505050565b60405163555ddc6560e11b81526001600160a01b03861660048201527fb281fc8c12954d22544db45de3159a39272895b169a852b314f9cc762e44c53b6024820152600090731820a4b7618bde71dce8cdc73aab6c95905fad249063aabbb8ca90604401602060405180830381865afa158015612172573d6000803e3d6000fd5b505050506040513d601f19601f8201168201806040525081019061219691906148bd565b90506001600160a01b03811615612212576040516223de2960e01b81526001600160a01b038216906223de29906121db908b908b908b908b908b908b906004016148da565b600060405180830381600087803b1580156121f557600080fd5b505af1158015612209573d6000803e3d6000fd5b505050506122ac565b81156122ac576001600160a01b0386163b156122ac5760405162461bcd60e51b815260206004820152604d60248201527f4552433737373a20746f6b656e20726563697069656e7420636f6e747261637460448201527f20686173206e6f20696d706c656d656e74657220666f7220455243373737546f60648201526c1ad95b9cd49958da5c1a595b9d609a1b608482015260a4016106c7565b5050505050505050565b6000818060200190518101906122cc9190614934565b80519091506001600160a01b03166123365760405162461bcd60e51b815260206004820152602760248201527f6c4e4f52493a20526563697069656e742063616e6e6f74206265207a65726f206044820152666164647265737360c81b60648201526084016106c7565b80516001600160a01b031633141561239f5760405162461bcd60e51b815260206004820152602660248201527f6c4e4f52493a20526563697069656e742063616e6e6f74206265206772616e746044820152651030b236b4b760d11b60648201526084016106c7565b80516001600160a01b0316600090815261015f60205260409020600e015460ff161561240d5760405162461bcd60e51b815260206004820152601b60248201527f6c4e4f52493a204772616e7420616c726561647920657869737473000000000060448201526064016106c7565b80516001600160a01b0316600090815261015f6020908152604091829020600a8101869055600c8101869055600e8101805460ff19166001179055908301519183015190911015612507578161010001518260c0015110158061247957508161012001518260e0015110155b6124c55760405162461bcd60e51b815260206004820181905260248201527f6c4e4f52493a20756e6c6f636b20636c696666203c207665737420636c69666660448201526064016106c7565b600281018490556020820151815560408201516001820155608082015160c08301516124f29183916131aa565b60a082015160e08301516125079183916131aa565b6007810184905560208201516005820190815560608301516006830155608083015161010084015161253a9291906131aa565b60a08201516101208301516125539160058401916131aa565b81602001518483600001516001600160a01b03167f17161516b6ce34594617177a800b150a86ddee02c06993a73ef000a02367d119856040015186606001516040516125a9929190918252602082015260400190565b60405180910390a450505050565b6125c1828261178b565b610c42828261337f565b6125d5828261178b565b610c4282826133a1565b60655460ff166126285760405162461bcd60e51b815260206004820152601460248201527314185d5cd8589b194e881b9bdd081c185d5cd95960621b60448201526064016106c7565b6065805460ff191690557f5db9ee0a495bf2e6ff9c91a7834c1ba4fdd244a5e8aa4e537bd38aeae4b073aa335b6040516001600160a01b03909116815260200160405180910390a1565b6001600160a01b0386166126d35760405162461bcd60e51b815260206004820152602260248201527f4552433737373a2073656e642066726f6d20746865207a65726f206164647265604482015261737360f01b60648201526084016106c7565b6001600160a01b0385166127295760405162461bcd60e51b815260206004820181905260248201527f4552433737373a2073656e6420746f20746865207a65726f206164647265737360448201526064016106c7565b33612738818888888888611dcb565b612746818888888888611f7f565b611eea818888888888886120f1565b60655460ff16156127785760405162461bcd60e51b81526004016106c7906145c5565b6065805460ff191660011790557f62e78cea01bee320cd4e420270b5ea74000d11b0c9f74754ebdbfc544b05a2586126553390565b6001600160a01b038216600081815261015f602052604080822090516370a0823160e01b815260048101939093529091829030906370a0823190602401602060405180830381865afa158015612807573d6000803e3d6000fd5b505050506040513d601f19601f8201168201806040525081019061282b91906147ea565b9050600061283886612e73565b6128465782600a0154612850565b6128508386612ea4565b600e84015490915060ff161561289557600b83015461288861287e83612879600588018a612ea4565b612ec4565b85600a0154612ec4565b612892919061477c565b91505b50949350505050565b600061083d83836133c3565b336001600160a01b038216141561290f5760405162461bcd60e51b8152602060048201526024808201527f4552433737373a20617574686f72697a696e672073656c66206173206f70657260448201526330ba37b960e11b60648201526084016106c7565b6001600160a01b03811660009081526038602052604090205460ff161561296057336000908152603a602090815260408083206001600160a01b03851684529091529020805460ff1916905561298f565b3360009081526039602090815260408083206001600160a01b03851684529091529020805460ff191660011790555b60405133906001600160a01b038316907ff4caeb2d6ca8932a215a353d0703c326ec2d81fc68170f320eb2ab49e9df61f990600090a350565b600054610100900460ff166129ef5760405162461bcd60e51b81526004016106c7906149c2565b565b600054610100900460ff16612a185760405162461bcd60e51b81526004016106c7906149c2565b6065805460ff19169055565b600054610100900460ff16612a4b5760405162461bcd60e51b81526004016106c7906149c2565b8251612a5e9060359060208601906139a8565b508151612a729060369060208501906139a8565b508051612a86906037906020840190613a2c565b5060005b8151811015612aef57600160386000848481518110612aab57612aab614661565b6020908102919091018101516001600160a01b03168252810191909152604001600020805460ff191691151591909117905580612ae781614677565b915050612a8a565b506040516329965a1d60e01b815230600482018190527fac7fbab5f54a3ca8194167523c6753bfeb96a445279294b6125b68cce217705460248301526044820152731820a4b7618bde71dce8cdc73aab6c95905fad24906329965a1d90606401600060405180830381600087803b158015612b6957600080fd5b505af1158015612b7d573d6000803e3d6000fd5b50506040516329965a1d60e01b815230600482018190527faea199e31a596269b42cdafd93407f14436db6e4cad65417994c2eb37381e05a60248301526044820152731820a4b7618bde71dce8cdc73aab6c95905fad2492506329965a1d9150606401600060405180830381600087803b158015612bfa57600080fd5b505af1158015611eea573d6000803e3d6000fd5b610c4282826125b7565b600061070d825490565b6001600160a01b038116331415612c855760405162461bcd60e51b815260206004820152602160248201527f4552433737373a207265766f6b696e672073656c66206173206f70657261746f6044820152603960f91b60648201526084016106c7565b6001600160a01b03811660009081526038602052604090205460ff1615612cd957336000908152603a602090815260408083206001600160a01b03851684529091529020805460ff19166001179055612d05565b3360009081526039602090815260408083206001600160a01b03851684529091529020805460ff191690555b60405133906001600160a01b038316907f50546e66e5f44d728365dc3908c63bc5cfeeab470722c1677e3073a6ac294aa190600090a350565b610f6e8484848460016133ed565b6001600160a01b038316612db05760405162461bcd60e51b815260206004820152602560248201527f4552433737373a20617070726f76652066726f6d20746865207a65726f206164604482015264647265737360d81b60648201526084016106c7565b6001600160a01b038216612e125760405162461bcd60e51b815260206004820152602360248201527f4552433737373a20617070726f766520746f20746865207a65726f206164647260448201526265737360e81b60648201526084016106c7565b6001600160a01b038381166000818152603b602090815260408083209487168084529482529182902085905590518481527f8c5be1e5ebec7d5bd14f71427d1e84f3dd0314c0f7b2291e5b200ac8c7c3b925910160405180910390a3505050565b6001600160a01b038116600090815261015f60205260408120600e81015460ff16801561083d575054151592915050565b6000612eb08383613533565b612eba8484613601565b61083d9190614605565b6000818310612ed3578161083d565b5090919050565b60606000612ee9836002614a0d565b612ef4906002614605565b6001600160401b03811115612f0b57612f0b613e27565b6040519080825280601f01601f191660200182016040528015612f35576020820181803683370190505b509050600360fc1b81600081518110612f5057612f50614661565b60200101906001600160f81b031916908160001a905350600f60fb1b81600181518110612f7f57612f7f614661565b60200101906001600160f81b031916908160001a9053506000612fa3846002614a0d565b612fae906001614605565b90505b6001811115613026576f181899199a1a9b1b9c1cb0b131b232b360811b85600f1660108110612fe257612fe2614661565b1a60f81b828281518110612ff857612ff8614661565b60200101906001600160f81b031916908160001a90535060049490941c9361301f81614a2c565b9050612fb1565b50831561083d5760405162461bcd60e51b815260206004820181905260248201527f537472696e67733a20686578206c656e67746820696e73756666696369656e7460448201526064016106c7565b6001600160a01b038381161590831615600061309f600080516020614abb83398151915288610fb9565b90506001600160a01b03878116908716141560006130bc88610f95565b86111590508380156130cb5750815b80156130d45750825b1561314c57856130f9896001600160a01b031660009081526033602052604090205490565b10156131475760405162461bcd60e51b815260206004820152601b60248201527f6c4e4f52493a20696e73756666696369656e742062616c616e6365000000000060448201526064016106c7565b61319e565b8461319e578061319e5760405162461bcd60e51b815260206004820152601b60248201527f6c4e4f52493a20696e73756666696369656e742062616c616e6365000000000060448201526064016106c7565b6106dd8989898961366b565b60048301546132095782548210156132045760405162461bcd60e51b815260206004820152601b60248201527f436c696666206265666f7265207363686564756c65207374617274000000000060448201526064016106c7565b613281565b82600301600060018560040154613220919061477c565b8152602001908152602001600020600001548210156132815760405162461bcd60e51b815260206004820152601860248201527f436c69666673206e6f74206368726f6e6f6c6f676963616c000000000000000060448201526064016106c7565b82600101548211156132d55760405162461bcd60e51b815260206004820181905260248201527f436c696666732063616e6e6f7420656e64206166746572207363686564756c6560448201526064016106c7565b8260020154816132e485613693565b6132ee9190614605565b111561333c5760405162461bcd60e51b815260206004820152601a60248201527f636c69666620616d6f756e74732065786365656420746f74616c00000000000060448201526064016106c7565b60048301805460009081526003850160205260408082208590558254825281206001908101849055825490929190613375908490614605565b9091555050505050565b61338982826136d7565b600082815260fb60205260409020610bc3908261375d565b6133ab8282613772565b600082815260fb60205260409020610bc390826137d9565b60008260000182815481106133da576133da614661565b9060005260206000200154905092915050565b6001600160a01b0385166134435760405162461bcd60e51b815260206004820181905260248201527f4552433737373a206d696e7420746f20746865207a65726f206164647265737360448201526064016106c7565b336134518160008888613075565b84603460008282546134639190614605565b90915550506001600160a01b03861660009081526033602052604081208054879290613490908490614605565b909155506134a6905081600088888888886120f1565b856001600160a01b0316816001600160a01b03167f2fe5be0146f74c5bce36c0b80911af6c7d86ff27e89d5cfa61fc681327954e5d8787876040516134ed93929190614878565b60405180910390a36040518581526001600160a01b038716906000907fddf252ad1be2c89b69c2b068fc378daa952ba7f163c4a11628f55a4df523b3ef90602001611dbb565b60008061353f84613693565b8460020154106135645761355284613693565b8460020154613561919061477c565b90505b8360010154831061357657905061070d565b83546004850154156135ae5784600301600060018760040154613599919061477c565b81526020019081526020016000206000015490505b60008186600101546135c0919061477c565b905060006135ce8387614a43565b905060008113156135f357816135e48286614a0d565b6135ee9190614a82565b6135f6565b60005b979650505050505050565b600080805b846004015481101561365c576000818152600386016020526040902054841061364a5760008181526003860160205260409020600101546136479083614605565b91505b8061365481614677565b915050613606565b5061189c846002015482612ec4565b60655460ff161561368e5760405162461bcd60e51b81526004016106c7906145c5565b610f6e565b60008060005b8360040154811015610d245760008181526003850160205260409020600101546136c39083614605565b9150806136cf81614677565b915050613699565b6136e18282610fb9565b610c4257600082815260c9602090815260408083206001600160a01b03851684529091529020805460ff191660011790556137193390565b6001600160a01b0316816001600160a01b0316837f2f8788117e7eff1d82e926ec794901d17c78024a50270940304540a733656f0d60405160405180910390a45050565b600061083d836001600160a01b0384166137ee565b61377c8282610fb9565b15610c4257600082815260c9602090815260408083206001600160a01b0385168085529252808320805460ff1916905551339285917ff6391f5c32d9c69d2a47ea670b442974b53935d1edc7fd64eb21e047a839171b9190a45050565b600061083d836001600160a01b03841661383d565b60008181526001830160205260408120546138355750815460018181018455600084815260208082209093018490558454848252828601909352604090209190915561070d565b50600061070d565b6000818152600183016020526040812054801561392657600061386160018361477c565b85549091506000906138759060019061477c565b90508181146138da57600086600001828154811061389557613895614661565b90600052602060002001549050808760000184815481106138b8576138b8614661565b6000918252602080832090910192909255918252600188019052604090208390555b85548690806138eb576138eb614aa4565b60019003818190600052602060002001600090559055856001016000868152602001908152602001600020600090556001935050505061070d565b600091505061070d565b604051806101c001604052806000815260200160006001600160a01b031681526020016000815260200160008152602001600081526020016000815260200160008152602001600081526020016000815260200160008152602001600081526020016000815260200160008152602001600081525090565b8280546139b49061458a565b90600052602060002090601f0160209004810192826139d65760008555613a1c565b82601f106139ef57805160ff1916838001178555613a1c565b82800160010185558215613a1c579182015b82811115613a1c578251825591602001919060010190613a01565b50613a28929150613a81565b5090565b828054828255906000526020600020908101928215613a1c579160200282015b82811115613a1c57825182546001600160a01b0319166001600160a01b03909116178255602090920191600190910190613a4c565b5b80821115613a285760008155600101613a82565b6001600160a01b0381168114610c6757600080fd5b60008083601f840112613abd57600080fd5b5081356001600160401b03811115613ad457600080fd5b602083019150836020828501011115613aec57600080fd5b9250929050565b60008060008060008060008060c0898b031215613b0f57600080fd5b8835613b1a81613a96565b97506020890135613b2a81613a96565b96506040890135613b3a81613a96565b95506060890135945060808901356001600160401b0380821115613b5d57600080fd5b613b698c838d01613aab565b909650945060a08b0135915080821115613b8257600080fd5b50613b8f8b828c01613aab565b999c989b5096995094979396929594505050565b600060208284031215613bb557600080fd5b81356001600160e01b03198116811461083d57600080fd5b600081518084526020808501945080840160005b83811015613c065781516001600160a01b031687529582019590820190600101613be1565b509495945050505050565b60208152600061083d6020830184613bcd565b60005b83811015613c3f578181015183820152602001613c27565b83811115610f6e5750506000910152565b60008151808452613c68816020860160208601613c24565b601f01601f19169290920160200192915050565b60208152600061083d6020830184613c50565b60008060408385031215613ca257600080fd5b8235613cad81613a96565b946020939093013593505050565b600060208284031215613ccd57600080fd5b813561083d81613a96565b60008060008060808587031215613cee57600080fd5b8435613cf981613a96565b93506020850135613d0981613a96565b93969395505050506040820135916060013590565b600080600060608486031215613d3357600080fd5b8335613d3e81613a96565b92506020840135613d4e81613a96565b929592945050506040919091013590565b600060208284031215613d7157600080fd5b5035919050565b60008060008060008060008060008060006101608c8e031215613d9a57600080fd5b8b359a5060208c0135613dac81613a96565b9a9d9a9c505050506040890135986060810135986080820135985060a0820135975060c0820135965060e0820135955061010082013594506101208201359350610140909101359150565b60008060408385031215613e0a57600080fd5b823591506020830135613e1c81613a96565b809150509250929050565b634e487b7160e01b600052604160045260246000fd5b60405161014081016001600160401b0381118282101715613e6057613e60613e27565b60405290565b604051601f8201601f191681016001600160401b0381118282101715613e8e57613e8e613e27565b604052919050565b60006001600160401b03821115613eaf57613eaf613e27565b5060051b60200190565b600082601f830112613eca57600080fd5b81356020613edf613eda83613e96565b613e66565b82815260059290921b84018101918181019086841115613efe57600080fd5b8286015b84811015613f22578035613f1581613a96565b8352918301918301613f02565b509695505050505050565b600060208284031215613f3f57600080fd5b81356001600160401b03811115613f5557600080fd5b61189c84828501613eb9565b600081518084526020808501945080840160005b83811015613c0657815187529582019590820190600101613f75565b60208152600061083d6020830184613f61565b600082601f830112613fb557600080fd5b81356001600160401b03811115613fce57613fce613e27565b613fe1601f8201601f1916602001613e66565b818152846020838601011115613ff657600080fd5b816020850160208301376000918101602001919091529392505050565b600080600080600060a0868803121561402b57600080fd5b853561403681613a96565b9450602086013561404681613a96565b93506040860135925060608601356001600160401b038082111561406957600080fd5b61407589838a01613fa4565b9350608088013591508082111561408b57600080fd5b5061409888828901613fa4565b9150509295509295909350565b600082601f8301126140b657600080fd5b813560206140c6613eda83613e96565b82815260059290921b840181019181810190868411156140e557600080fd5b8286015b84811015613f2257803583529183019183016140e9565b600082601f83011261411157600080fd5b81356020614121613eda83613e96565b82815260059290921b8401810191818101908684111561414057600080fd5b8286015b84811015613f225780356001600160401b038111156141635760008081fd5b6141718986838b0101613fa4565b845250918301918301614144565b600082601f83011261419057600080fd5b813560206141a0613eda83613e96565b82815260059290921b840181019181810190868411156141bf57600080fd5b8286015b84811015613f2257803580151581146141dc5760008081fd5b83529183019183016141c3565b600080600080600060a0868803121561420157600080fd5b85356001600160401b038082111561421857600080fd5b61422489838a01613eb9565b9650602088013591508082111561423a57600080fd5b61424689838a016140a5565b9550604088013591508082111561425c57600080fd5b61426889838a01614100565b9450606088013591508082111561427e57600080fd5b61428a89838a01614100565b935060808801359150808211156142a057600080fd5b506140988882890161417f565b600080604083850312156142c057600080fd5b50508035926020909101359150565b6000806000606084860312156142e457600080fd5b83356142ef81613a96565b92506020840135915060408401356001600160401b0381111561431157600080fd5b61431d86828701613fa4565b9150509250925092565b6000806020838503121561433a57600080fd5b82356001600160401b038082111561435157600080fd5b818501915085601f83011261436557600080fd5b81358181111561437457600080fd5b8660208260051b850101111561438957600080fd5b60209290920196919550909350505050565b8051825260208101516143b960208401826001600160a01b03169052565b5060408181015190830152606080820151908301526080808201519083015260a0808201519083015260c0808201519083015260e08082015190830152610100808201519083015261012080820151908301526101408082015190830152610160808201519083015261018080820151908301526101a090810151910152565b6020808252825182820181905260009190848201906040850190845b8181101561447c5761446883855161439b565b928401926101c09290920191600101614455565b50909695505050505050565b6101c0810161070d828461439b565b600080604083850312156144aa57600080fd5b82356144b581613a96565b91506020830135613e1c81613a96565b600080600080608085870312156144db57600080fd5b84356144e681613a96565b93506020850135925060408501356001600160401b038082111561450957600080fd5b61451588838901613fa4565b9350606087013591508082111561452b57600080fd5b5061453887828801613fa4565b91505092959194509250565b6000806040838503121561455757600080fd5b8235915060208301356001600160401b0381111561457457600080fd5b61458085828601613fa4565b9150509250929050565b600181811c9082168061459e57607f821691505b602082108114156145bf57634e487b7160e01b600052602260045260246000fd5b50919050565b60208082526010908201526f14185d5cd8589b194e881c185d5cd95960821b604082015260600190565b634e487b7160e01b600052601160045260246000fd5b60008219821115614618576146186145ef565b500190565b60208082526024908201527f4552433737373a207472616e7366657220746f20746865207a65726f206164646040820152637265737360e01b606082015260800190565b634e487b7160e01b600052603260045260246000fd5b600060001982141561468b5761468b6145ef565b5060010190565b600081518084526020808501808196508360051b8101915082860160005b858110156146da5782840389526146c8848351613c50565b988501989350908401906001016146b0565b5091979650505050505050565b60a0815260006146fa60a0830188613bcd565b60208382038185015261470d8289613f61565b915083820360408501526147218288614692565b915083820360608501526147358287614692565b8481036080860152855180825282870193509082019060005b8181101561476c57845115158352938301939183019160010161474e565b50909a9950505050505050505050565b60008282101561478e5761478e6145ef565b500390565b6000604082840312156147a557600080fd5b604051604081018181106001600160401b03821117156147c7576147c7613e27565b60405282356147d581613a96565b81526020928301359281019290925250919050565b6000602082840312156147fc57600080fd5b5051919050565b7f416363657373436f6e74726f6c3a206163636f756e742000000000000000000081526000835161483b816017850160208801613c24565b7001034b99036b4b9b9b4b733903937b6329607d1b601791840191820152835161486c816028840160208801613c24565b01602801949350505050565b8381526060602082015260006148916060830185613c50565b82810360408401526148a38185613c50565b9695505050505050565b80516148b881613a96565b919050565b6000602082840312156148cf57600080fd5b815161083d81613a96565b6001600160a01b0387811682528681166020830152851660408201526060810184905260c06080820181905260009061491590830185613c50565b82810360a08401526149278185613c50565b9998505050505050505050565b6000610140828403121561494757600080fd5b61494f613e3d565b614958836148ad565b81526020830151602082015260408301516040820152606083015160608201526080830151608082015260a083015160a082015260c083015160c082015260e083015160e08201526101008084015181830152506101208084015181830152508091505092915050565b6020808252602b908201527f496e697469616c697a61626c653a20636f6e7472616374206973206e6f74206960408201526a6e697469616c697a696e6760a81b606082015260800190565b6000816000190483118215151615614a2757614a276145ef565b500290565b600081614a3b57614a3b6145ef565b506000190190565b60008083128015600160ff1b850184121615614a6157614a616145ef565b6001600160ff1b0384018313811615614a7c57614a7c6145ef565b50500390565b600082614a9f57634e487b7160e01b600052601260045260246000fd5b500490565b634e487b7160e01b600052603160045260246000fdfea52f07bb8dc8df886598eb50edeaba2b8e45715237ed244354b60ea04d0390b865d7a28e3265b37a6474929f336521b332c1681b933f6cb9f3376673440d862aa2646970667358221220c890ecf9cb1ad81f5c8a8cd1bb9385b57874336b9c333aaaf8e991bfd233b9f764736f6c634300080a0033",
  "linkReferences": {},
  "deployedLinkReferences": {}
}