{
  "_format": "hh-sol-artifact-1",
  "contractName": "LockedNORI",
  "sourceName": "contracts/LockedNORI.sol",
  "abi": [
    {
      "anonymous": false,
      "inputs": [
        {
          "indexed": true,
          "internalType": "address",
          "name": "owner",
          "type": "address"
        },
        {
          "indexed": true,
          "internalType": "address",
          "name": "spender",
          "type": "address"
        },
        {
          "indexed": false,
          "internalType": "uint256",
          "name": "value",
          "type": "uint256"
        }
      ],
      "name": "Approval",
      "type": "event"
    },
    {
      "anonymous": false,
      "inputs": [
        {
          "indexed": true,
          "internalType": "address",
          "name": "operator",
          "type": "address"
        },
        {
          "indexed": true,
          "internalType": "address",
          "name": "tokenHolder",
          "type": "address"
        }
      ],
      "name": "AuthorizedOperator",
      "type": "event"
    },
    {
      "anonymous": false,
      "inputs": [
        {
          "indexed": true,
          "internalType": "address",
          "name": "operator",
          "type": "address"
        },
        {
          "indexed": true,
          "internalType": "address",
          "name": "from",
          "type": "address"
        },
        {
          "indexed": false,
          "internalType": "uint256",
          "name": "amount",
          "type": "uint256"
        },
        {
          "indexed": false,
          "internalType": "bytes",
          "name": "data",
          "type": "bytes"
        },
        {
          "indexed": false,
          "internalType": "bytes",
          "name": "operatorData",
          "type": "bytes"
        }
      ],
      "name": "Burned",
      "type": "event"
    },
    {
      "anonymous": false,
      "inputs": [
        {
          "indexed": true,
          "internalType": "address",
          "name": "operator",
          "type": "address"
        },
        {
          "indexed": true,
          "internalType": "address",
          "name": "to",
          "type": "address"
        },
        {
          "indexed": false,
          "internalType": "uint256",
          "name": "amount",
          "type": "uint256"
        },
        {
          "indexed": false,
          "internalType": "bytes",
          "name": "data",
          "type": "bytes"
        },
        {
          "indexed": false,
          "internalType": "bytes",
          "name": "operatorData",
          "type": "bytes"
        }
      ],
      "name": "Minted",
      "type": "event"
    },
    {
      "anonymous": false,
      "inputs": [
        {
          "indexed": false,
          "internalType": "address",
          "name": "account",
          "type": "address"
        }
      ],
      "name": "Paused",
      "type": "event"
    },
    {
      "anonymous": false,
      "inputs": [
        {
          "indexed": true,
          "internalType": "address",
          "name": "operator",
          "type": "address"
        },
        {
          "indexed": true,
          "internalType": "address",
          "name": "tokenHolder",
          "type": "address"
        }
      ],
      "name": "RevokedOperator",
      "type": "event"
    },
    {
      "anonymous": false,
      "inputs": [
        {
          "indexed": true,
          "internalType": "bytes32",
          "name": "role",
          "type": "bytes32"
        },
        {
          "indexed": true,
          "internalType": "bytes32",
          "name": "previousAdminRole",
          "type": "bytes32"
        },
        {
          "indexed": true,
          "internalType": "bytes32",
          "name": "newAdminRole",
          "type": "bytes32"
        }
      ],
      "name": "RoleAdminChanged",
      "type": "event"
    },
    {
      "anonymous": false,
      "inputs": [
        {
          "indexed": true,
          "internalType": "bytes32",
          "name": "role",
          "type": "bytes32"
        },
        {
          "indexed": true,
          "internalType": "address",
          "name": "account",
          "type": "address"
        },
        {
          "indexed": true,
          "internalType": "address",
          "name": "sender",
          "type": "address"
        }
      ],
      "name": "RoleGranted",
      "type": "event"
    },
    {
      "anonymous": false,
      "inputs": [
        {
          "indexed": true,
          "internalType": "bytes32",
          "name": "role",
          "type": "bytes32"
        },
        {
          "indexed": true,
          "internalType": "address",
          "name": "account",
          "type": "address"
        },
        {
          "indexed": true,
          "internalType": "address",
          "name": "sender",
          "type": "address"
        }
      ],
      "name": "RoleRevoked",
      "type": "event"
    },
    {
      "anonymous": false,
      "inputs": [
        {
          "indexed": true,
          "internalType": "address",
          "name": "operator",
          "type": "address"
        },
        {
          "indexed": true,
          "internalType": "address",
          "name": "from",
          "type": "address"
        },
        {
          "indexed": true,
          "internalType": "address",
          "name": "to",
          "type": "address"
        },
        {
          "indexed": false,
          "internalType": "uint256",
          "name": "amount",
          "type": "uint256"
        },
        {
          "indexed": false,
          "internalType": "bytes",
          "name": "data",
          "type": "bytes"
        },
        {
          "indexed": false,
          "internalType": "bytes",
          "name": "operatorData",
          "type": "bytes"
        }
      ],
      "name": "Sent",
      "type": "event"
    },
    {
      "anonymous": false,
      "inputs": [
        {
          "indexed": true,
          "internalType": "address",
          "name": "recipient",
          "type": "address"
        },
        {
          "indexed": false,
          "internalType": "uint256",
          "name": "amount",
          "type": "uint256"
        },
        {
          "indexed": false,
          "internalType": "uint256",
          "name": "startTime",
          "type": "uint256"
        },
        {
          "indexed": false,
          "internalType": "uint256",
          "name": "vestEndTime",
          "type": "uint256"
        },
        {
          "indexed": false,
          "internalType": "uint256",
          "name": "unlockEndTime",
          "type": "uint256"
        }
      ],
      "name": "TokenGrantCreated",
      "type": "event"
    },
    {
      "anonymous": false,
      "inputs": [
        {
          "indexed": false,
          "internalType": "address",
          "name": "from",
          "type": "address"
        },
        {
          "indexed": false,
          "internalType": "address",
          "name": "to",
          "type": "address"
        }
      ],
      "name": "TokenGrantTransferred",
      "type": "event"
    },
    {
      "anonymous": false,
      "inputs": [
        {
          "indexed": false,
          "internalType": "address",
          "name": "account",
          "type": "address"
        },
        {
          "indexed": false,
          "internalType": "uint256",
          "name": "quantity",
          "type": "uint256"
        }
      ],
      "name": "TokensClaimed",
      "type": "event"
    },
    {
      "anonymous": false,
      "inputs": [
        {
          "indexed": true,
          "internalType": "address",
          "name": "from",
          "type": "address"
        },
        {
          "indexed": true,
          "internalType": "address",
          "name": "to",
          "type": "address"
        },
        {
          "indexed": false,
          "internalType": "uint256",
          "name": "value",
          "type": "uint256"
        }
      ],
      "name": "Transfer",
      "type": "event"
    },
    {
      "anonymous": false,
      "inputs": [
        {
          "indexed": false,
          "internalType": "address",
          "name": "account",
          "type": "address"
        }
      ],
      "name": "Unpaused",
      "type": "event"
    },
    {
      "anonymous": false,
      "inputs": [
        {
          "indexed": false,
          "internalType": "uint256",
          "name": "atTime",
          "type": "uint256"
        },
        {
          "indexed": false,
          "internalType": "address",
          "name": "from",
          "type": "address"
        },
        {
          "indexed": false,
          "internalType": "uint256",
          "name": "quantity",
          "type": "uint256"
        }
      ],
      "name": "UnvestedTokensRevoked",
      "type": "event"
    },
    {
      "inputs": [],
      "name": "DEFAULT_ADMIN_ROLE",
      "outputs": [
        {
          "internalType": "bytes32",
          "name": "",
          "type": "bytes32"
        }
      ],
      "stateMutability": "view",
      "type": "function"
    },
    {
      "inputs": [],
      "name": "MINTER_ROLE",
      "outputs": [
        {
          "internalType": "bytes32",
          "name": "",
          "type": "bytes32"
        }
      ],
      "stateMutability": "view",
      "type": "function"
    },
    {
      "inputs": [],
      "name": "PAUSER_ROLE",
      "outputs": [
        {
          "internalType": "bytes32",
          "name": "",
          "type": "bytes32"
        }
      ],
      "stateMutability": "view",
      "type": "function"
    },
    {
      "inputs": [],
      "name": "TOKEN_GRANTER_ROLE",
      "outputs": [
        {
          "internalType": "bytes32",
          "name": "",
          "type": "bytes32"
        }
      ],
      "stateMutability": "view",
      "type": "function"
    },
    {
      "inputs": [
        {
          "internalType": "address",
          "name": "holder",
          "type": "address"
        },
        {
          "internalType": "address",
          "name": "spender",
          "type": "address"
        }
      ],
      "name": "allowance",
      "outputs": [
        {
          "internalType": "uint256",
          "name": "",
          "type": "uint256"
        }
      ],
      "stateMutability": "view",
      "type": "function"
    },
    {
      "inputs": [
        {
          "internalType": "address",
          "name": "spender",
          "type": "address"
        },
        {
          "internalType": "uint256",
          "name": "value",
          "type": "uint256"
        }
      ],
      "name": "approve",
      "outputs": [
        {
          "internalType": "bool",
          "name": "",
          "type": "bool"
        }
      ],
      "stateMutability": "nonpayable",
      "type": "function"
    },
    {
      "inputs": [
        {
          "internalType": "address",
          "name": "operator",
          "type": "address"
        }
      ],
      "name": "authorizeOperator",
      "outputs": [],
      "stateMutability": "nonpayable",
      "type": "function"
    },
    {
      "inputs": [
        {
          "internalType": "address",
          "name": "account",
          "type": "address"
        }
      ],
      "name": "balanceOf",
      "outputs": [
        {
          "internalType": "uint256",
          "name": "",
          "type": "uint256"
        }
      ],
      "stateMutability": "view",
      "type": "function"
    },
    {
      "inputs": [
        {
          "internalType": "uint256",
          "name": "amount",
          "type": "uint256"
        }
      ],
      "name": "burn",
      "outputs": [],
      "stateMutability": "nonpayable",
      "type": "function"
    },
    {
      "inputs": [
        {
          "internalType": "uint256",
          "name": "amount",
          "type": "uint256"
        },
        {
          "internalType": "bytes",
          "name": "data",
          "type": "bytes"
        }
      ],
      "name": "burn",
      "outputs": [],
      "stateMutability": "nonpayable",
      "type": "function"
    },
    {
      "inputs": [
        {
          "internalType": "address",
          "name": "account",
          "type": "address"
        },
        {
          "internalType": "uint256",
          "name": "amount",
          "type": "uint256"
        }
      ],
      "name": "burnFrom",
      "outputs": [],
      "stateMutability": "nonpayable",
      "type": "function"
    },
    {
      "inputs": [],
      "name": "decimals",
      "outputs": [
        {
          "internalType": "uint8",
          "name": "",
          "type": "uint8"
        }
      ],
      "stateMutability": "pure",
      "type": "function"
    },
    {
      "inputs": [
        {
          "internalType": "address",
          "name": "spender",
          "type": "address"
        },
        {
          "internalType": "uint256",
          "name": "subtractedValue",
          "type": "uint256"
        }
      ],
      "name": "decreaseAllowance",
      "outputs": [
        {
          "internalType": "bool",
          "name": "",
          "type": "bool"
        }
      ],
      "stateMutability": "nonpayable",
      "type": "function"
    },
    {
      "inputs": [],
      "name": "defaultOperators",
      "outputs": [
        {
          "internalType": "address[]",
          "name": "",
          "type": "address[]"
        }
      ],
      "stateMutability": "view",
      "type": "function"
    },
    {
      "inputs": [
        {
          "internalType": "address",
          "name": "account",
          "type": "address"
        }
      ],
      "name": "getGrant",
      "outputs": [
        {
          "internalType": "uint256",
          "name": "amount",
          "type": "uint256"
        },
        {
          "internalType": "uint256",
          "name": "startTime",
          "type": "uint256"
        },
        {
          "internalType": "uint256",
          "name": "vestEndTime",
          "type": "uint256"
        },
        {
          "internalType": "uint256",
          "name": "unlockEndTime",
          "type": "uint256"
        },
        {
          "internalType": "uint256",
          "name": "cliff1Time",
          "type": "uint256"
        },
        {
          "internalType": "uint256",
          "name": "cliff2Time",
          "type": "uint256"
        },
        {
          "internalType": "uint256",
          "name": "vestCliff1Amount",
          "type": "uint256"
        },
        {
          "internalType": "uint256",
          "name": "vestCliff2Amount",
          "type": "uint256"
        },
        {
          "internalType": "uint256",
          "name": "unlockCliff1Amount",
          "type": "uint256"
        },
        {
          "internalType": "uint256",
          "name": "unlockCliff2Amount",
          "type": "uint256"
        },
        {
          "internalType": "uint256",
          "name": "claimedAmount",
          "type": "uint256"
        },
        {
          "internalType": "uint256",
          "name": "originalAmount",
          "type": "uint256"
        }
      ],
      "stateMutability": "view",
      "type": "function"
    },
    {
      "inputs": [
        {
          "internalType": "bytes32",
          "name": "role",
          "type": "bytes32"
        }
      ],
      "name": "getRoleAdmin",
      "outputs": [
        {
          "internalType": "bytes32",
          "name": "",
          "type": "bytes32"
        }
      ],
      "stateMutability": "view",
      "type": "function"
    },
    {
      "inputs": [
        {
          "internalType": "bytes32",
          "name": "role",
          "type": "bytes32"
        },
        {
          "internalType": "uint256",
          "name": "index",
          "type": "uint256"
        }
      ],
      "name": "getRoleMember",
      "outputs": [
        {
          "internalType": "address",
          "name": "",
          "type": "address"
        }
      ],
      "stateMutability": "view",
      "type": "function"
    },
    {
      "inputs": [
        {
          "internalType": "bytes32",
          "name": "role",
          "type": "bytes32"
        }
      ],
      "name": "getRoleMemberCount",
      "outputs": [
        {
          "internalType": "uint256",
          "name": "",
          "type": "uint256"
        }
      ],
      "stateMutability": "view",
      "type": "function"
    },
    {
      "inputs": [
        {
          "internalType": "bytes32",
          "name": "role",
          "type": "bytes32"
        },
        {
          "internalType": "address",
          "name": "account",
          "type": "address"
        }
      ],
      "name": "grantRole",
      "outputs": [],
      "stateMutability": "nonpayable",
      "type": "function"
    },
    {
      "inputs": [],
      "name": "granularity",
      "outputs": [
        {
          "internalType": "uint256",
          "name": "",
          "type": "uint256"
        }
      ],
      "stateMutability": "view",
      "type": "function"
    },
    {
      "inputs": [
        {
          "internalType": "bytes32",
          "name": "role",
          "type": "bytes32"
        },
        {
          "internalType": "address",
          "name": "account",
          "type": "address"
        }
      ],
      "name": "hasRole",
      "outputs": [
        {
          "internalType": "bool",
          "name": "",
          "type": "bool"
        }
      ],
      "stateMutability": "view",
      "type": "function"
    },
    {
      "inputs": [
        {
          "internalType": "address",
          "name": "spender",
          "type": "address"
        },
        {
          "internalType": "uint256",
          "name": "addedValue",
          "type": "uint256"
        }
      ],
      "name": "increaseAllowance",
      "outputs": [
        {
          "internalType": "bool",
          "name": "",
          "type": "bool"
        }
      ],
      "stateMutability": "nonpayable",
      "type": "function"
    },
    {
      "inputs": [
        {
          "internalType": "string",
          "name": "name",
          "type": "string"
        },
        {
          "internalType": "string",
          "name": "symbol",
          "type": "string"
        }
      ],
      "name": "initialize",
      "outputs": [],
      "stateMutability": "nonpayable",
      "type": "function"
    },
    {
      "inputs": [
        {
          "internalType": "contract IERC777Upgradeable",
          "name": "noriAddress",
          "type": "address"
        }
      ],
      "name": "initialize",
      "outputs": [],
      "stateMutability": "nonpayable",
      "type": "function"
    },
    {
      "inputs": [
        {
          "internalType": "address",
          "name": "operator",
          "type": "address"
        },
        {
          "internalType": "address",
          "name": "tokenHolder",
          "type": "address"
        }
      ],
      "name": "isOperatorFor",
      "outputs": [
        {
          "internalType": "bool",
          "name": "",
          "type": "bool"
        }
      ],
      "stateMutability": "view",
      "type": "function"
    },
    {
      "inputs": [
        {
          "internalType": "address",
          "name": "to",
          "type": "address"
        },
        {
          "internalType": "uint256",
          "name": "amount",
          "type": "uint256"
        }
      ],
      "name": "mint",
      "outputs": [],
      "stateMutability": "nonpayable",
      "type": "function"
    },
    {
      "inputs": [],
      "name": "name",
      "outputs": [
        {
          "internalType": "string",
          "name": "",
          "type": "string"
        }
      ],
      "stateMutability": "view",
      "type": "function"
    },
    {
      "inputs": [
        {
          "internalType": "address",
          "name": "account",
          "type": "address"
        },
        {
          "internalType": "uint256",
          "name": "amount",
          "type": "uint256"
        },
        {
          "internalType": "bytes",
          "name": "data",
          "type": "bytes"
        },
        {
          "internalType": "bytes",
          "name": "operatorData",
          "type": "bytes"
        }
      ],
      "name": "operatorBurn",
      "outputs": [],
      "stateMutability": "nonpayable",
      "type": "function"
    },
    {
      "inputs": [
        {
          "internalType": "address",
          "name": "sender",
          "type": "address"
        },
        {
          "internalType": "address",
          "name": "recipient",
          "type": "address"
        },
        {
          "internalType": "uint256",
          "name": "amount",
          "type": "uint256"
        },
        {
          "internalType": "bytes",
          "name": "data",
          "type": "bytes"
        },
        {
          "internalType": "bytes",
          "name": "operatorData",
          "type": "bytes"
        }
      ],
      "name": "operatorSend",
      "outputs": [],
      "stateMutability": "nonpayable",
      "type": "function"
    },
    {
      "inputs": [],
      "name": "pause",
      "outputs": [],
      "stateMutability": "nonpayable",
      "type": "function"
    },
    {
      "inputs": [],
      "name": "paused",
      "outputs": [
        {
          "internalType": "bool",
          "name": "",
          "type": "bool"
        }
      ],
      "stateMutability": "view",
      "type": "function"
    },
    {
      "inputs": [
        {
          "internalType": "address",
          "name": "account",
          "type": "address"
        }
      ],
      "name": "quantityRevokedFrom",
      "outputs": [
        {
          "internalType": "uint256",
          "name": "",
          "type": "uint256"
        }
      ],
      "stateMutability": "view",
      "type": "function"
    },
    {
      "inputs": [
        {
          "internalType": "bytes32",
          "name": "role",
          "type": "bytes32"
        },
        {
          "internalType": "address",
          "name": "account",
          "type": "address"
        }
      ],
      "name": "renounceRole",
      "outputs": [],
      "stateMutability": "nonpayable",
      "type": "function"
    },
    {
      "inputs": [
        {
          "internalType": "address",
          "name": "operator",
          "type": "address"
        }
      ],
      "name": "revokeOperator",
      "outputs": [],
      "stateMutability": "nonpayable",
      "type": "function"
    },
    {
      "inputs": [
        {
          "internalType": "bytes32",
          "name": "role",
          "type": "bytes32"
        },
        {
          "internalType": "address",
          "name": "account",
          "type": "address"
        }
      ],
      "name": "revokeRole",
      "outputs": [],
      "stateMutability": "nonpayable",
      "type": "function"
    },
    {
      "inputs": [
        {
          "internalType": "uint256",
          "name": "atTime",
          "type": "uint256"
        },
        {
          "internalType": "address",
          "name": "from",
          "type": "address"
        },
        {
          "internalType": "address",
          "name": "to",
          "type": "address"
        }
      ],
      "name": "revokeUnvestedTokens",
      "outputs": [],
      "stateMutability": "nonpayable",
      "type": "function"
    },
    {
      "inputs": [
        {
          "internalType": "address",
          "name": "recipient",
          "type": "address"
        },
        {
          "internalType": "uint256",
          "name": "amount",
          "type": "uint256"
        },
        {
          "internalType": "bytes",
          "name": "data",
          "type": "bytes"
        }
      ],
      "name": "send",
      "outputs": [],
      "stateMutability": "nonpayable",
      "type": "function"
    },
    {
      "inputs": [
        {
          "internalType": "bytes4",
          "name": "interfaceId",
          "type": "bytes4"
        }
      ],
      "name": "supportsInterface",
      "outputs": [
        {
          "internalType": "bool",
          "name": "",
          "type": "bool"
        }
      ],
      "stateMutability": "view",
      "type": "function"
    },
    {
      "inputs": [],
      "name": "symbol",
      "outputs": [
        {
          "internalType": "string",
          "name": "",
          "type": "string"
        }
      ],
      "stateMutability": "view",
      "type": "function"
    },
    {
      "inputs": [
        {
          "internalType": "address",
          "name": "",
          "type": "address"
        },
        {
          "internalType": "address",
          "name": "",
          "type": "address"
        },
        {
          "internalType": "address",
          "name": "",
          "type": "address"
        },
        {
          "internalType": "uint256",
          "name": "amount",
          "type": "uint256"
        },
        {
          "internalType": "bytes",
          "name": "userData",
          "type": "bytes"
        },
        {
          "internalType": "bytes",
          "name": "operatorData",
          "type": "bytes"
        }
      ],
      "name": "tokensReceived",
      "outputs": [],
      "stateMutability": "nonpayable",
      "type": "function"
    },
    {
      "inputs": [],
      "name": "totalSupply",
      "outputs": [
        {
          "internalType": "uint256",
          "name": "",
          "type": "uint256"
        }
      ],
      "stateMutability": "view",
      "type": "function"
    },
    {
      "inputs": [
        {
          "internalType": "address",
          "name": "recipient",
          "type": "address"
        },
        {
          "internalType": "uint256",
          "name": "amount",
          "type": "uint256"
        }
      ],
      "name": "transfer",
      "outputs": [
        {
          "internalType": "bool",
          "name": "",
          "type": "bool"
        }
      ],
      "stateMutability": "nonpayable",
      "type": "function"
    },
    {
      "inputs": [
        {
          "internalType": "address",
          "name": "holder",
          "type": "address"
        },
        {
          "internalType": "address",
          "name": "recipient",
          "type": "address"
        },
        {
          "internalType": "uint256",
          "name": "amount",
          "type": "uint256"
        }
      ],
      "name": "transferFrom",
      "outputs": [
        {
          "internalType": "bool",
          "name": "",
          "type": "bool"
        }
      ],
      "stateMutability": "nonpayable",
      "type": "function"
    },
    {
      "inputs": [
        {
          "internalType": "address",
          "name": "account",
          "type": "address"
        }
      ],
      "name": "unlockedBalanceOf",
      "outputs": [
        {
          "internalType": "uint256",
          "name": "",
          "type": "uint256"
        }
      ],
      "stateMutability": "view",
      "type": "function"
    },
    {
      "inputs": [],
      "name": "unpause",
      "outputs": [],
      "stateMutability": "nonpayable",
      "type": "function"
    },
    {
      "inputs": [
        {
          "internalType": "address",
          "name": "account",
          "type": "address"
        }
      ],
      "name": "vestedBalanceOf",
      "outputs": [
        {
          "internalType": "uint256",
          "name": "",
          "type": "uint256"
        }
      ],
      "stateMutability": "view",
      "type": "function"
    },
    {
      "inputs": [
        {
          "internalType": "address",
          "name": "account",
          "type": "address"
        },
        {
          "internalType": "uint256",
          "name": "amount",
          "type": "uint256"
        }
      ],
      "name": "withdrawTo",
      "outputs": [
        {
          "internalType": "bool",
          "name": "",
          "type": "bool"
        }
      ],
      "stateMutability": "nonpayable",
      "type": "function"
    }
  ],
  "bytecode": "0x608060405234801561001057600080fd5b5061422e806100206000396000f3fe608060405234801561001057600080fd5b50600436106102945760003560e01c806379cc679011610167578063a9059cbb116100ce578063d95b637111610087578063d95b6371146106b3578063dd62ed3e146106c6578063e63ab1e9146106d9578063fad8b32a146106ee578063fc673c4f14610701578063fe9d93031461071457600080fd5b8063a9059cbb14610549578063bf31dbf41461055c578063c4d66de814610653578063ca15c87314610666578063d539139314610679578063d547741f146106a057600080fd5b806395d89b411161012057806395d89b41146104ed5780639bd9bbc6146104f55780639c9e4cc5146105085780639e3f3cac1461051b578063a217fddf1461052e578063a457c2d71461053657600080fd5b806379cc67901461046e5780638456cb591461048157806384955c88146104895780639010d07c1461049c57806391d14854146104c7578063959b8c3f146104da57600080fd5b8063313ce5671161020b5780634cd88b76116101c45780634cd88b76146103fb578063556f0dc71461040e5780635c975abb1461041557806362ad1b8314610421578063633d9be01461043457806370a082311461045b57600080fd5b8063313ce5671461039857806336568abe146103a757806339509351146103ba5780633f4ba83a146103cd57806340c10f19146103d557806342966c68146103e857600080fd5b80630e2d1a2a1161025d5780630e2d1a2a1461031357806318160ddd14610334578063205c28781461033c57806323b872dd1461034f578063248a9ca3146103625780632f2ff15d1461038557600080fd5b806223de291461029957806301ffc9a7146102ae57806306e48538146102d657806306fdde03146102eb578063095ea7b314610300575b600080fd5b6102ac6102a73660046137cd565b610727565b005b6102c16102bc36600461387e565b6107b7565b60405190151581526020015b60405180910390f35b6102de6107e2565b6040516102cd91906138a8565b6102f3610844565b6040516102cd919061394d565b6102c161030e366004613960565b610853565b61032661032136600461398c565b610866565b6040519081526020016102cd565b610326610872565b6102c161034a366004613960565b61087d565b6102c161035d3660046139a9565b61099a565b6103266103703660046139ea565b60009081526065602052604090206001015490565b6102ac610393366004613a03565b6109af565b604051601281526020016102cd565b6102ac6103b5366004613a03565b6109da565b6102c16103c8366004613960565b610a58565b6102ac610a9d565b6102ac6103e3366004613960565b610b31565b6102ac6103f63660046139ea565b610bd0565b6102ac610409366004613ad6565b610bdd565b6001610326565b61015f5460ff166102c1565b6102ac61042f366004613b3a565b610c5a565b6103267fa52f07bb8dc8df886598eb50edeaba2b8e45715237ed244354b60ea04d0390b881565b61032661046936600461398c565b610c96565b6102ac61047c366004613960565b610cb4565b6102ac610d35565b61032661049736600461398c565b610dc7565b6104af6104aa366004613bcd565b610e31565b6040516001600160a01b0390911681526020016102cd565b6102c16104d5366004613a03565b610e49565b6102ac6104e836600461398c565b610e74565b6102f3610f92565b6102ac610503366004613bef565b610f9c565b6102ac610516366004613c48565b610fba565b61032661052936600461398c565b61111b565b610326600081565b6102c1610544366004613960565b611148565b6102c1610557366004613960565b6111e1565b6105fa61056a36600461398c565b6001600160a01b031660009081526101f560209081526040808320600a8101546005820154600180840154600685015488805260088601808952878a208054858c52898c2080548d805260038b018d528b8e20880154888f529b909d2087015493909b52908501549990940154600b880154600c90980154969b959a939992989497939694959194929390929091565b604080519c8d5260208d019b909b52998b019890985260608a0196909652608089019490945260a088019290925260c087015260e0860152610100850152610120840152610140830152610160820152610180016102cd565b6102ac61066136600461398c565b6111ed565b6103266106743660046139ea565b611448565b6103267f9f2df0fed2c77648de5860a4cc508cd0818c85b8b8a1ab4ceeef8d981c8956a681565b6102ac6106ae366004613a03565b61145f565b6102c16106c1366004613c8a565b611485565b6103266106d4366004613c8a565b611526565b6103266000805160206141b983398151915281565b6102ac6106fc36600461398c565b611553565b6102ac61070f366004613cb8565b61166f565b6102ac610722366004613d38565b6116a7565b6101f6546001600160a01b0316331461079f5760405162461bcd60e51b815260206004820152602f60248201527f4c6f636b65644e4f52493a205468697320636f6e74726163742063616e206f6e60448201526e6c792072656365697665204e4f524960881b60648201526084015b60405180910390fd5b6107ac85858585856116c2565b505050505050505050565b60006001600160e01b03198216635a05180f60e01b14806107dc57506107dc8261173a565b92915050565b606060cd80548060200260200160405190810160405280929190818152602001828054801561083a57602002820191906000526020600020905b81546001600160a01b0316815260019091019060200180831161081c575b5050505050905090565b606061084e61176f565b905090565b600061085f83836117f8565b9392505050565b60006107dc4283611806565b600061084e60ca5490565b6001600160a01b03821660009081526101f5602052604081206108c03384604051806020016040528060008152506040518060200160405280600081525061187b565b6101f654604051634decdde360e11b81526001600160a01b03868116600483015260248201869052606060448301526000606483015290911690639bd9bbc690608401600060405180830381600087803b15801561091d57600080fd5b505af1158015610931573d6000803e3d6000fd5b505050508281600b0160008282546109499190613d8b565b9091555050604080516001600160a01b0386168152602081018590527f896e034966eaaf1adc54acc0f257056febbd300c9e47182cf761982cf1f5e430910160405180910390a15060019392505050565b60006109a7848484611a2b565b949350505050565b6000828152606560205260409020600101546109cb8133611bed565b6109d58383611c51565b505050565b6001600160a01b0381163314610a4a5760405162461bcd60e51b815260206004820152602f60248201527f416363657373436f6e74726f6c3a2063616e206f6e6c792072656e6f756e636560448201526e103937b632b9903337b91039b2b63360891b6064820152608401610796565b610a548282611c73565b5050565b33600081815260fc602090815260408083206001600160a01b03871684529091528120549091610a94918590610a8f908690613d8b565b611c95565b50600192915050565b610ab56000805160206141b983398151915233610e49565b610b275760405162461bcd60e51b815260206004820152603960248201527f45524332305072657365744d696e7465725061757365723a206d75737420686160448201527f76652070617573657220726f6c6520746f20756e7061757365000000000000006064820152608401610796565b610b2f611ca0565b565b610b5b7f9f2df0fed2c77648de5860a4cc508cd0818c85b8b8a1ab4ceeef8d981c8956a633610e49565b610bc65760405162461bcd60e51b815260206004820152603660248201527f45524332305072657365744d696e7465725061757365723a206d7573742068616044820152751d99481b5a5b9d195c881c9bdb19481d1bc81b5a5b9d60521b6064820152608401610796565b610a548282611d35565b610bda3382611e0e565b50565b600054610100900460ff16610bf85760005460ff1615610bfc565b303b155b610c185760405162461bcd60e51b815260040161079690613da3565b600054610100900460ff16158015610c3a576000805461ffff19166101011790555b610c448383611f56565b80156109d5576000805461ff0019169055505050565b610c643386611485565b610c805760405162461bcd60e51b815260040161079690613df1565b610c8f85858585856001611fc9565b5050505050565b6001600160a01b038116600090815260c960205260408120546107dc565b6000610cc08333611526565b905081811015610d1e5760405162461bcd60e51b8152602060048201526024808201527f45524332303a206275726e20616d6f756e74206578636565647320616c6c6f77604482015263616e636560e01b6064820152608401610796565b610d2b8333848403611c95565b6109d58383611e0e565b610d4d6000805160206141b983398151915233610e49565b610dbf5760405162461bcd60e51b815260206004820152603760248201527f45524332305072657365744d696e7465725061757365723a206d75737420686160448201527f76652070617573657220726f6c6520746f2070617573650000000000000000006064820152608401610796565b610b2f6120ac565b6001600160a01b03811660009081526101f560205260408120600d81015460ff1615610e2857600b810154610e1e610e14610e028442612106565b610e0f6005860142612106565b612126565b83600a0154612126565b61085f9190613e3d565b50600092915050565b600082815260976020526040812061085f908361213c565b60009182526065602090815260408084206001600160a01b0393909316845291905290205460ff1690565b336001600160a01b0382161415610ed95760405162461bcd60e51b8152602060048201526024808201527f4552433737373a20617574686f72697a696e672073656c66206173206f70657260448201526330ba37b960e11b6064820152608401610796565b6001600160a01b038116600090815260ce602052604090205460ff1615610f2a5733600090815260d0602090815260408083206001600160a01b03851684529091529020805460ff19169055610f59565b33600090815260cf602090815260408083206001600160a01b03851684529091529020805460ff191660011790555b60405133906001600160a01b038316907ff4caeb2d6ca8932a215a353d0703c326ec2d81fc68170f320eb2ab49e9df61f990600090a350565b606061084e612148565b6109d533848484604051806020016040528060008152506001611fc9565b7fa52f07bb8dc8df886598eb50edeaba2b8e45715237ed244354b60ea04d0390b8610fe58133611bed565b61015f5460ff16156110095760405162461bcd60e51b815260040161079690613e54565b6001600160a01b03831660009081526101f560205260409020600d81015460ff166110675760405162461bcd60e51b815260206004820152600e60248201526d139bc819dc985b9d08195e1a5cdd60921b6044820152606401610796565b60006110738686611806565b905081600a01548110156111135760008183600a01546110939190613e3d565b600a8401839055604080518981526001600160a01b03891660208201529081018290529091507f0bbe3f9ae306d75ae6df08cd4a79ac5c6eae93ffae7d7e52f2859bf27592519d9060600160405180910390a16111118686836040518060200160405280600081525060405180602001604052806000815250610c5a565b505b505050505050565b6001600160a01b03811660009081526101f560205260408120600a810154600c82015461085f9190613e3d565b33600090815260fc602090815260408083206001600160a01b0386168452909152812054828110156111ca5760405162461bcd60e51b815260206004820152602560248201527f45524332303a2064656372656173656420616c6c6f77616e63652062656c6f77604482015264207a65726f60d81b6064820152608401610796565b6111d73385858403611c95565b5060019392505050565b600061085f8383612157565b600054610100900460ff166112085760005460ff161561120c565b303b155b6112285760405162461bcd60e51b815260040161079690613da3565b600054610100900460ff1615801561124a576000805461ffff19166101011790555b61125261220a565b61125a61220a565b61126261220a565b61126a61220a565b61127261220a565b61127a612231565b61128261220a565b6112cc6040518060400160405280600b81526020016a4c6f636b6564204e4f524960a81b815250604051806040016040528060058152602001646c4e4f524960d81b815250612265565b60408051600180825281830190925260009160208083019080368337019050509050338160008151811061130257611302613e7e565b60200260200101906001600160a01b031690816001600160a01b03168152505061136d6040518060400160405280600b81526020016a4c6f636b6564204e4f524960a81b815250604051806040016040528060058152602001646c4e4f524960d81b815250836122d9565b6113786000336124c3565b6101f680546001600160a01b03199081166001600160a01b038616179091556101f78054731820a4b7618bde71dce8cdc73aab6c95905fad249216821790556040516329965a1d60e01b815230600482018190527fb281fc8c12954d22544db45de3159a39272895b169a852b314f9cc762e44c53b602483015260448201526329965a1d90606401600060405180830381600087803b15801561141a57600080fd5b505af115801561142e573d6000803e3d6000fd5b50505050508015610a54576000805461ff00191690555050565b60008181526097602052604081206107dc906124cd565b60008281526065602052604090206001015461147b8133611bed565b6109d58383611c73565b6000816001600160a01b0316836001600160a01b031614806114f057506001600160a01b038316600090815260ce602052604090205460ff1680156114f057506001600160a01b03808316600090815260d0602090815260408083209387168352929052205460ff16155b8061085f5750506001600160a01b03908116600090815260cf602090815260408083209490931682529290925290205460ff1690565b6001600160a01b03808316600090815260d16020908152604080832093851683529290529081205461085f565b6001600160a01b0381163314156115b65760405162461bcd60e51b815260206004820152602160248201527f4552433737373a207265766f6b696e672073656c66206173206f70657261746f6044820152603960f91b6064820152608401610796565b6001600160a01b038116600090815260ce602052604090205460ff161561160a5733600090815260d0602090815260408083206001600160a01b03851684529091529020805460ff19166001179055611636565b33600090815260cf602090815260408083206001600160a01b03851684529091529020805460ff191690555b60405133906001600160a01b038316907f50546e66e5f44d728365dc3908c63bc5cfeeab470722c1677e3073a6ac294aa190600090a350565b6116793385611485565b6116955760405162461bcd60e51b815260040161079690613df1565b6116a18484848461187b565b50505050565b610a543383836040518060200160405280600081525061187b565b6000806116d18587018761398c565b90506116de8787876124d7565b61172d818888888080601f0160208091040260200160405190810160405280939291908181526020018383808284376000920182905250604080516020810190915290815292506126f9915050565b5060019695505050505050565b60006001600160e01b03198216637965db0b60e01b14806107dc57506301ffc9a760e01b6001600160e01b03198316146107dc565b606060cb805461177e90613e94565b80601f01602080910402602001604051908101604052809291908181526020018280546117aa90613e94565b801561083a5780601f106117cc5761010080835404028352916020019161083a565b820191906000526020600020905b8154815290600101906020018083116117da57509395945050505050565b6000336111d7818585611c95565b6001600160a01b03811660009081526101f560205260408120600d81015460ff16156118715780541561185d57600b810154600a82015461184b90610e0f8488612106565b6118559190613e3d565b9150506107dc565b80600b015481600a01546118559190613e3d565b5060009392505050565b6001600160a01b0384166118dc5760405162461bcd60e51b815260206004820152602260248201527f4552433737373a206275726e2066726f6d20746865207a65726f206164647265604482015261737360f01b6064820152608401610796565b336118ec81866000878787612707565b6118f9818660008761282e565b6001600160a01b038516600090815260c960205260409020548481101561196e5760405162461bcd60e51b815260206004820152602360248201527f4552433737373a206275726e20616d6f756e7420657863656564732062616c616044820152626e636560e81b6064820152608401610796565b6001600160a01b038616600090815260c960205260408120868303905560ca805487929061199d908490613e3d565b92505081905550856001600160a01b0316826001600160a01b03167fa78a9be3a7b862d26933ad85fb11d80ef66b8f972d7cbba06621d583943a40988787876040516119eb93929190613ecf565b60405180910390a36040518581526000906001600160a01b038816906000805160206141d9833981519152906020015b60405180910390a3505050505050565b60006001600160a01b038316611a535760405162461bcd60e51b815260040161079690613f04565b6001600160a01b038416611ab85760405162461bcd60e51b815260206004820152602660248201527f4552433737373a207472616e736665722066726f6d20746865207a65726f206160448201526564647265737360d01b6064820152608401610796565b6000339050611ae9818686866040518060200160405280600081525060405180602001604052806000815250612707565b6001600160a01b03808616600090815260d160209081526040808320938516835292905220546000198114611b875783811015611b7a5760405162461bcd60e51b815260206004820152602960248201527f4552433737373a207472616e7366657220616d6f756e74206578636565647320604482015268616c6c6f77616e636560b81b6064820152608401610796565b611b878683868403611c95565b611bb38287878760405180602001604052806000815250604051806020016040528060008152506128ca565b611be18287878760405180602001604052806000815250604051806020016040528060008152506000612a2a565b50600195945050505050565b611bf78282610e49565b610a5457611c0f816001600160a01b03166014612bef565b611c1a836020612bef565b604051602001611c2b929190613f48565b60408051601f198184030181529082905262461bcd60e51b82526107969160040161394d565b611c5b8282612d8b565b60008281526097602052604090206109d59082612e11565b611c7d8282612e26565b60008281526097602052604090206109d59082612e8d565b6109d5838383612ea2565b61015f5460ff16611cea5760405162461bcd60e51b815260206004820152601460248201527314185d5cd8589b194e881b9bdd081c185d5cd95960621b6044820152606401610796565b61015f805460ff191690557f5db9ee0a495bf2e6ff9c91a7834c1ba4fdd244a5e8aa4e537bd38aeae4b073aa335b6040516001600160a01b03909116815260200160405180910390a1565b6001600160a01b038216611d8b5760405162461bcd60e51b815260206004820152601f60248201527f45524332303a206d696e7420746f20746865207a65726f2061646472657373006044820152606401610796565b611d9760008383612fc9565b8060fd6000828254611da99190613d8b565b90915550506001600160a01b038216600090815260fb602052604081208054839290611dd6908490613d8b565b90915550506040518181526001600160a01b038316906000906000805160206141d98339815191529060200160405180910390a35050565b6001600160a01b038216611e6e5760405162461bcd60e51b815260206004820152602160248201527f45524332303a206275726e2066726f6d20746865207a65726f206164647265736044820152607360f81b6064820152608401610796565b611e7a82600083612fc9565b6001600160a01b038216600090815260fb602052604090205481811015611eee5760405162461bcd60e51b815260206004820152602260248201527f45524332303a206275726e20616d6f756e7420657863656564732062616c616e604482015261636560f01b6064820152608401610796565b6001600160a01b038316600090815260fb60205260408120838303905560fd8054849290611f1d908490613e3d565b90915550506040518281526000906001600160a01b038516906000805160206141d98339815191529060200160405180910390a3505050565b600054610100900460ff16611f7d5760405162461bcd60e51b815260040161079690613fbd565b611f8561220a565b611f8d61220a565b611f9561220a565b611f9d61220a565b611fa78282612fd4565b611faf61220a565b611fb7612231565b611fbf61220a565b610a548282612265565b6001600160a01b03861661202a5760405162461bcd60e51b815260206004820152602260248201527f4552433737373a2073656e642066726f6d20746865207a65726f206164647265604482015261737360f01b6064820152608401610796565b6001600160a01b0385166120805760405162461bcd60e51b815260206004820181905260248201527f4552433737373a2073656e6420746f20746865207a65726f20616464726573736044820152606401610796565b3361208f818888888888612707565b61209d8188888888886128ca565b61111181888888888888612a2a565b61015f5460ff16156120d05760405162461bcd60e51b815260040161079690613e54565b61015f805460ff191660011790557f62e78cea01bee320cd4e420270b5ea74000d11b0c9f74754ebdbfc544b05a258611d183390565b60006121128383613022565b61211c84846130f0565b61085f9190613d8b565b6000818310612135578161085f565b5090919050565b600061085f838361315a565b606060cc805461177e90613e94565b60006001600160a01b03831661217f5760405162461bcd60e51b815260040161079690613f04565b60003390506121b0818286866040518060200160405280600081525060405180602001604052806000815250612707565b6121dc8182868660405180602001604052806000815250604051806020016040528060008152506128ca565b6111d78182868660405180602001604052806000815250604051806020016040528060008152506000612a2a565b600054610100900460ff16610b2f5760405162461bcd60e51b815260040161079690613fbd565b600054610100900460ff166122585760405162461bcd60e51b815260040161079690613fbd565b61015f805460ff19169055565b600054610100900460ff1661228c5760405162461bcd60e51b815260040161079690613fbd565b6122976000336124c3565b6122c17f9f2df0fed2c77648de5860a4cc508cd0818c85b8b8a1ab4ceeef8d981c8956a6336124c3565b610a546000805160206141b9833981519152336124c3565b600054610100900460ff166123005760405162461bcd60e51b815260040161079690613fbd565b82516123139060cb906020860190613681565b5081516123279060cc906020850190613681565b50805161233b9060cd906020840190613705565b5060005b81518110156123a457600160ce600084848151811061236057612360613e7e565b6020908102919091018101516001600160a01b03168252810191909152604001600020805460ff19169115159190911790558061239c81614008565b91505061233f565b506040516329965a1d60e01b815230600482018190527fac7fbab5f54a3ca8194167523c6753bfeb96a445279294b6125b68cce217705460248301526044820152731820a4b7618bde71dce8cdc73aab6c95905fad24906329965a1d90606401600060405180830381600087803b15801561241e57600080fd5b505af1158015612432573d6000803e3d6000fd5b50506040516329965a1d60e01b815230600482018190527faea199e31a596269b42cdafd93407f14436db6e4cad65417994c2eb37381e05a60248301526044820152731820a4b7618bde71dce8cdc73aab6c95905fad2492506329965a1d9150606401600060405180830381600087803b1580156124af57600080fd5b505af1158015611111573d6000803e3d6000fd5b610a548282611c51565b60006107dc825490565b61015f5460ff16156124fb5760405162461bcd60e51b815260040161079690613e54565b60008080808080808080806125128b8d018d614023565b995099509950995099509950995099509950995060006001600160a01b03168a6001600160a01b031614156125895760405162461bcd60e51b815260206004820181905260248201527f526563697069656e742063616e6e6f74206265207a65726f20616464726573736044820152606401610796565b6001600160a01b038a1660009081526101f560205260409020600a81018e9055600c81018e9055600d8101805460ff1916600117905589891115612668578285101580156125d75750818410155b6126415760405162461bcd60e51b815260206004820152603560248201527f556e6c6f636b20636c69666620616d6f756e74732063616e6e6f7420657863656044820152746564207665737420636c69666620616d6f756e747360581b6064820152608401610796565b600281018e90558981556001810189905561265d818887613184565b612668818786613184565b600781018e9055600581018a815560068201899055612688908885613184565b612696600582018784613184565b604080518f8152602081018c90529081018a9052606081018990526001600160a01b038c16907f17161516b6ce34594617177a800b150a86ddee02c06993a73ef000a02367d1199060800160405180910390a25050505050505050505050505050565b6116a1848484846001613359565b60405163555ddc6560e11b81526001600160a01b03861660048201527f29ddb589b1fb5fc7cf394961c1adf5f8c6454761adf795e67fe149f658abe8956024820152600090731820a4b7618bde71dce8cdc73aab6c95905fad249063aabbb8ca90604401602060405180830381865afa158015612788573d6000803e3d6000fd5b505050506040513d601f19601f820116820180604052508101906127ac9190614094565b90506001600160a01b0381161561111157604051633ad5cbc160e11b81526001600160a01b038216906375ab9782906127f3908a908a908a908a908a908a906004016140b1565b600060405180830381600087803b15801561280d57600080fd5b505af1158015612821573d6000803e3d6000fd5b5050505050505050505050565b6001600160a01b038316158015906128bf57600061284b85610dc7565b9050612858600033610e49565b6128bd57808311156128bd5760405162461bcd60e51b815260206004820152602860248201527f4c6f636b65644e4f52493a2057697468647261776c20616d6f756e7420756e616044820152677661696c61626c6560c01b6064820152608401610796565b505b610c8f848484612fc9565b6128d68686868661282e565b6001600160a01b038516600090815260c960205260409020548381101561294f5760405162461bcd60e51b815260206004820152602760248201527f4552433737373a207472616e7366657220616d6f756e7420657863656564732060448201526662616c616e636560c81b6064820152608401610796565b6001600160a01b03808716600090815260c96020526040808220878503905591871681529081208054869290612986908490613d8b565b92505081905550846001600160a01b0316866001600160a01b0316886001600160a01b03167f06b541ddaa720db2b10a4d0cdac39b8d360425fc073085fac19bc826146779878787876040516129de93929190613ecf565b60405180910390a4846001600160a01b0316866001600160a01b03166000805160206141d983398151915286604051612a1991815260200190565b60405180910390a350505050505050565b60405163555ddc6560e11b81526001600160a01b03861660048201527fb281fc8c12954d22544db45de3159a39272895b169a852b314f9cc762e44c53b6024820152600090731820a4b7618bde71dce8cdc73aab6c95905fad249063aabbb8ca90604401602060405180830381865afa158015612aab573d6000803e3d6000fd5b505050506040513d601f19601f82011682018060405250810190612acf9190614094565b90506001600160a01b03811615612b4b576040516223de2960e01b81526001600160a01b038216906223de2990612b14908b908b908b908b908b908b906004016140b1565b600060405180830381600087803b158015612b2e57600080fd5b505af1158015612b42573d6000803e3d6000fd5b50505050612be5565b8115612be5576001600160a01b0386163b15612be55760405162461bcd60e51b815260206004820152604d60248201527f4552433737373a20746f6b656e20726563697069656e7420636f6e747261637460448201527f20686173206e6f20696d706c656d656e74657220666f7220455243373737546f60648201526c1ad95b9cd49958da5c1a595b9d609a1b608482015260a401610796565b5050505050505050565b60606000612bfe83600261410b565b612c09906002613d8b565b67ffffffffffffffff811115612c2157612c21613a33565b6040519080825280601f01601f191660200182016040528015612c4b576020820181803683370190505b509050600360fc1b81600081518110612c6657612c66613e7e565b60200101906001600160f81b031916908160001a905350600f60fb1b81600181518110612c9557612c95613e7e565b60200101906001600160f81b031916908160001a9053506000612cb984600261410b565b612cc4906001613d8b565b90505b6001811115612d3c576f181899199a1a9b1b9c1cb0b131b232b360811b85600f1660108110612cf857612cf8613e7e565b1a60f81b828281518110612d0e57612d0e613e7e565b60200101906001600160f81b031916908160001a90535060049490941c93612d358161412a565b9050612cc7565b50831561085f5760405162461bcd60e51b815260206004820181905260248201527f537472696e67733a20686578206c656e67746820696e73756666696369656e746044820152606401610796565b612d958282610e49565b610a545760008281526065602090815260408083206001600160a01b03851684529091529020805460ff19166001179055612dcd3390565b6001600160a01b0316816001600160a01b0316837f2f8788117e7eff1d82e926ec794901d17c78024a50270940304540a733656f0d60405160405180910390a45050565b600061085f836001600160a01b03841661348d565b612e308282610e49565b15610a545760008281526065602090815260408083206001600160a01b0385168085529252808320805460ff1916905551339285917ff6391f5c32d9c69d2a47ea670b442974b53935d1edc7fd64eb21e047a839171b9190a45050565b600061085f836001600160a01b0384166134dc565b6001600160a01b038316612f065760405162461bcd60e51b815260206004820152602560248201527f4552433737373a20617070726f76652066726f6d20746865207a65726f206164604482015264647265737360d81b6064820152608401610796565b6001600160a01b038216612f685760405162461bcd60e51b815260206004820152602360248201527f4552433737373a20617070726f766520746f20746865207a65726f206164647260448201526265737360e81b6064820152608401610796565b6001600160a01b03838116600081815260d1602090815260408083209487168084529482529182902085905590518481527f8c5be1e5ebec7d5bd14f71427d1e84f3dd0314c0f7b2291e5b200ac8c7c3b925910160405180910390a3505050565b6109d58383836135cf565b600054610100900460ff16612ffb5760405162461bcd60e51b815260040161079690613fbd565b815161300e9060fe906020850190613681565b5080516109d59060ff906020840190613681565b60008061302e84613636565b8460020154106130535761304184613636565b84600201546130509190613e3d565b90505b836001015483106130655790506107dc565b835460048501541561309d57846003016000600187600401546130889190613e3d565b81526020019081526020016000206000015490505b60008186600101546130af9190613e3d565b905060006130bd8387614141565b905060008113156130e257816130d3828661410b565b6130dd9190614180565b6130e5565b60005b979650505050505050565b600080805b846004015481101561314b57600081815260038601602052604090205484106131395760008181526003860160205260409020600101546131369083613d8b565b91505b8061314381614008565b9150506130f5565b506109a7846002015482612126565b600082600001828154811061317157613171613e7e565b9060005260206000200154905092915050565b60048301546131e35782548210156131de5760405162461bcd60e51b815260206004820152601b60248201527f436c696666206265666f7265207363686564756c6520737461727400000000006044820152606401610796565b61325b565b826003016000600185600401546131fa9190613e3d565b81526020019081526020016000206000015482101561325b5760405162461bcd60e51b815260206004820152601860248201527f436c69666673206e6f74206368726f6e6f6c6f676963616c00000000000000006044820152606401610796565b82600101548211156132af5760405162461bcd60e51b815260206004820181905260248201527f436c696666732063616e6e6f7420656e64206166746572207363686564756c656044820152606401610796565b8260020154816132be85613636565b6132c89190613d8b565b11156133165760405162461bcd60e51b815260206004820152601a60248201527f636c69666620616d6f756e74732065786365656420746f74616c0000000000006044820152606401610796565b6004830180546000908152600385016020526040808220859055825482528120600190810184905582549092919061334f908490613d8b565b9091555050505050565b6001600160a01b0385166133af5760405162461bcd60e51b815260206004820181905260248201527f4552433737373a206d696e7420746f20746865207a65726f20616464726573736044820152606401610796565b336133bd816000888861282e565b8460ca60008282546133cf9190613d8b565b90915550506001600160a01b038616600090815260c96020526040812080548792906133fc908490613d8b565b9091555061341290508160008888888888612a2a565b856001600160a01b0316816001600160a01b03167f2fe5be0146f74c5bce36c0b80911af6c7d86ff27e89d5cfa61fc681327954e5d87878760405161345993929190613ecf565b60405180910390a36040518581526001600160a01b038716906000906000805160206141d983398151915290602001611a1b565b60008181526001830160205260408120546134d4575081546001818101845560008481526020808220909301849055845484825282860190935260409020919091556107dc565b5060006107dc565b600081815260018301602052604081205480156135c5576000613500600183613e3d565b855490915060009061351490600190613e3d565b905081811461357957600086600001828154811061353457613534613e7e565b906000526020600020015490508087600001848154811061355757613557613e7e565b6000918252602080832090910192909255918252600188019052604090208390555b855486908061358a5761358a6141a2565b6001900381819060005260206000200160009055905585600101600086815260200190815260200160002060009055600193505050506107dc565b60009150506107dc565b61015f5460ff16156109d55760405162461bcd60e51b815260206004820152602a60248201527f45524332305061757361626c653a20746f6b656e207472616e736665722077686044820152691a5b19481c185d5cd95960b21b6064820152608401610796565b60008060005b836004015481101561367a5760008181526003850160205260409020600101546136669083613d8b565b91508061367281614008565b91505061363c565b5092915050565b82805461368d90613e94565b90600052602060002090601f0160209004810192826136af57600085556136f5565b82601f106136c857805160ff19168380011785556136f5565b828001600101855582156136f5579182015b828111156136f55782518255916020019190600101906136da565b5061370192915061375a565b5090565b8280548282559060005260206000209081019282156136f5579160200282015b828111156136f557825182546001600160a01b0319166001600160a01b03909116178255602090920191600190910190613725565b5b80821115613701576000815560010161375b565b6001600160a01b0381168114610bda57600080fd5b60008083601f84011261379657600080fd5b50813567ffffffffffffffff8111156137ae57600080fd5b6020830191508360208285010111156137c657600080fd5b9250929050565b60008060008060008060008060c0898b0312156137e957600080fd5b88356137f48161376f565b975060208901356138048161376f565b965060408901356138148161376f565b955060608901359450608089013567ffffffffffffffff8082111561383857600080fd5b6138448c838d01613784565b909650945060a08b013591508082111561385d57600080fd5b5061386a8b828c01613784565b999c989b5096995094979396929594505050565b60006020828403121561389057600080fd5b81356001600160e01b03198116811461085f57600080fd5b6020808252825182820181905260009190848201906040850190845b818110156138e95783516001600160a01b0316835292840192918401916001016138c4565b50909695505050505050565b60005b838110156139105781810151838201526020016138f8565b838111156116a15750506000910152565b600081518084526139398160208601602086016138f5565b601f01601f19169290920160200192915050565b60208152600061085f6020830184613921565b6000806040838503121561397357600080fd5b823561397e8161376f565b946020939093013593505050565b60006020828403121561399e57600080fd5b813561085f8161376f565b6000806000606084860312156139be57600080fd5b83356139c98161376f565b925060208401356139d98161376f565b929592945050506040919091013590565b6000602082840312156139fc57600080fd5b5035919050565b60008060408385031215613a1657600080fd5b823591506020830135613a288161376f565b809150509250929050565b634e487b7160e01b600052604160045260246000fd5b600082601f830112613a5a57600080fd5b813567ffffffffffffffff80821115613a7557613a75613a33565b604051601f8301601f19908116603f01168101908282118183101715613a9d57613a9d613a33565b81604052838152866020858801011115613ab657600080fd5b836020870160208301376000602085830101528094505050505092915050565b60008060408385031215613ae957600080fd5b823567ffffffffffffffff80821115613b0157600080fd5b613b0d86838701613a49565b93506020850135915080821115613b2357600080fd5b50613b3085828601613a49565b9150509250929050565b600080600080600060a08688031215613b5257600080fd5b8535613b5d8161376f565b94506020860135613b6d8161376f565b935060408601359250606086013567ffffffffffffffff80821115613b9157600080fd5b613b9d89838a01613a49565b93506080880135915080821115613bb357600080fd5b50613bc088828901613a49565b9150509295509295909350565b60008060408385031215613be057600080fd5b50508035926020909101359150565b600080600060608486031215613c0457600080fd5b8335613c0f8161376f565b925060208401359150604084013567ffffffffffffffff811115613c3257600080fd5b613c3e86828701613a49565b9150509250925092565b600080600060608486031215613c5d57600080fd5b833592506020840135613c6f8161376f565b91506040840135613c7f8161376f565b809150509250925092565b60008060408385031215613c9d57600080fd5b8235613ca88161376f565b91506020830135613a288161376f565b60008060008060808587031215613cce57600080fd5b8435613cd98161376f565b935060208501359250604085013567ffffffffffffffff80821115613cfd57600080fd5b613d0988838901613a49565b93506060870135915080821115613d1f57600080fd5b50613d2c87828801613a49565b91505092959194509250565b60008060408385031215613d4b57600080fd5b82359150602083013567ffffffffffffffff811115613d6957600080fd5b613b3085828601613a49565b634e487b7160e01b600052601160045260246000fd5b60008219821115613d9e57613d9e613d75565b500190565b6020808252602e908201527f496e697469616c697a61626c653a20636f6e747261637420697320616c72656160408201526d191e481a5b9a5d1a585b1a5e995960921b606082015260800190565b6020808252602c908201527f4552433737373a2063616c6c6572206973206e6f7420616e206f70657261746f60408201526b39103337b9103437b63232b960a11b606082015260800190565b600082821015613e4f57613e4f613d75565b500390565b60208082526010908201526f14185d5cd8589b194e881c185d5cd95960821b604082015260600190565b634e487b7160e01b600052603260045260246000fd5b600181811c90821680613ea857607f821691505b60208210811415613ec957634e487b7160e01b600052602260045260246000fd5b50919050565b838152606060208201526000613ee86060830185613921565b8281036040840152613efa8185613921565b9695505050505050565b60208082526024908201527f4552433737373a207472616e7366657220746f20746865207a65726f206164646040820152637265737360e01b606082015260800190565b7f416363657373436f6e74726f6c3a206163636f756e7420000000000000000000815260008351613f808160178501602088016138f5565b7001034b99036b4b9b9b4b733903937b6329607d1b6017918401918201528351613fb18160288401602088016138f5565b01602801949350505050565b6020808252602b908201527f496e697469616c697a61626c653a20636f6e7472616374206973206e6f74206960408201526a6e697469616c697a696e6760a81b606082015260800190565b600060001982141561401c5761401c613d75565b5060010190565b6000806000806000806000806000806101408b8d03121561404357600080fd5b8a3561404e8161376f565b9c60208c01359c5060408c01359b60608101359b5060808101359a5060a0810135995060c0810135985060e0810135975061010081013596506101200135945092505050565b6000602082840312156140a657600080fd5b815161085f8161376f565b6001600160a01b0387811682528681166020830152851660408201526060810184905260c0608082018190526000906140ec90830185613921565b82810360a08401526140fe8185613921565b9998505050505050505050565b600081600019048311821515161561412557614125613d75565b500290565b60008161413957614139613d75565b506000190190565b60008083128015600160ff1b85018412161561415f5761415f613d75565b6001600160ff1b038401831381161561417a5761417a613d75565b50500390565b60008261419d57634e487b7160e01b600052601260045260246000fd5b500490565b634e487b7160e01b600052603160045260246000fdfe65d7a28e3265b37a6474929f336521b332c1681b933f6cb9f3376673440d862addf252ad1be2c89b69c2b068fc378daa952ba7f163c4a11628f55a4df523b3efa2646970667358221220570d65226a491c1928c5a82364a236bcc0d67472a1e4023ff182ffeb076968e764736f6c634300080a0033",
  "linkReferences": {},
  "deployedLinkReferences": {}
}