{
  "_format": "hh-sol-artifact-1",
  "contractName": "LockedNORI",
  "sourceName": "contracts/LockedNORI.sol",
  "abi": [
    {
      "anonymous": false,
      "inputs": [
        {
          "indexed": true,
          "internalType": "address",
          "name": "owner",
          "type": "address"
        },
        {
          "indexed": true,
          "internalType": "address",
          "name": "spender",
          "type": "address"
        },
        {
          "indexed": false,
          "internalType": "uint256",
          "name": "value",
          "type": "uint256"
        }
      ],
      "name": "Approval",
      "type": "event"
    },
    {
      "anonymous": false,
      "inputs": [
        {
          "indexed": true,
          "internalType": "address",
          "name": "operator",
          "type": "address"
        },
        {
          "indexed": true,
          "internalType": "address",
          "name": "tokenHolder",
          "type": "address"
        }
      ],
      "name": "AuthorizedOperator",
      "type": "event"
    },
    {
      "anonymous": false,
      "inputs": [
        {
          "indexed": true,
          "internalType": "address",
          "name": "operator",
          "type": "address"
        },
        {
          "indexed": true,
          "internalType": "address",
          "name": "from",
          "type": "address"
        },
        {
          "indexed": false,
          "internalType": "uint256",
          "name": "amount",
          "type": "uint256"
        },
        {
          "indexed": false,
          "internalType": "bytes",
          "name": "data",
          "type": "bytes"
        },
        {
          "indexed": false,
          "internalType": "bytes",
          "name": "operatorData",
          "type": "bytes"
        }
      ],
      "name": "Burned",
      "type": "event"
    },
    {
      "anonymous": false,
      "inputs": [
        {
          "indexed": true,
          "internalType": "address",
          "name": "operator",
          "type": "address"
        },
        {
          "indexed": true,
          "internalType": "address",
          "name": "to",
          "type": "address"
        },
        {
          "indexed": false,
          "internalType": "uint256",
          "name": "amount",
          "type": "uint256"
        },
        {
          "indexed": false,
          "internalType": "bytes",
          "name": "data",
          "type": "bytes"
        },
        {
          "indexed": false,
          "internalType": "bytes",
          "name": "operatorData",
          "type": "bytes"
        }
      ],
      "name": "Minted",
      "type": "event"
    },
    {
      "anonymous": false,
      "inputs": [
        {
          "indexed": false,
          "internalType": "address",
          "name": "account",
          "type": "address"
        }
      ],
      "name": "Paused",
      "type": "event"
    },
    {
      "anonymous": false,
      "inputs": [
        {
          "indexed": true,
          "internalType": "address",
          "name": "operator",
          "type": "address"
        },
        {
          "indexed": true,
          "internalType": "address",
          "name": "tokenHolder",
          "type": "address"
        }
      ],
      "name": "RevokedOperator",
      "type": "event"
    },
    {
      "anonymous": false,
      "inputs": [
        {
          "indexed": true,
          "internalType": "bytes32",
          "name": "role",
          "type": "bytes32"
        },
        {
          "indexed": true,
          "internalType": "bytes32",
          "name": "previousAdminRole",
          "type": "bytes32"
        },
        {
          "indexed": true,
          "internalType": "bytes32",
          "name": "newAdminRole",
          "type": "bytes32"
        }
      ],
      "name": "RoleAdminChanged",
      "type": "event"
    },
    {
      "anonymous": false,
      "inputs": [
        {
          "indexed": true,
          "internalType": "bytes32",
          "name": "role",
          "type": "bytes32"
        },
        {
          "indexed": true,
          "internalType": "address",
          "name": "account",
          "type": "address"
        },
        {
          "indexed": true,
          "internalType": "address",
          "name": "sender",
          "type": "address"
        }
      ],
      "name": "RoleGranted",
      "type": "event"
    },
    {
      "anonymous": false,
      "inputs": [
        {
          "indexed": true,
          "internalType": "bytes32",
          "name": "role",
          "type": "bytes32"
        },
        {
          "indexed": true,
          "internalType": "address",
          "name": "account",
          "type": "address"
        },
        {
          "indexed": true,
          "internalType": "address",
          "name": "sender",
          "type": "address"
        }
      ],
      "name": "RoleRevoked",
      "type": "event"
    },
    {
      "anonymous": false,
      "inputs": [
        {
          "indexed": true,
          "internalType": "address",
          "name": "operator",
          "type": "address"
        },
        {
          "indexed": true,
          "internalType": "address",
          "name": "from",
          "type": "address"
        },
        {
          "indexed": true,
          "internalType": "address",
          "name": "to",
          "type": "address"
        },
        {
          "indexed": false,
          "internalType": "uint256",
          "name": "amount",
          "type": "uint256"
        },
        {
          "indexed": false,
          "internalType": "bytes",
          "name": "data",
          "type": "bytes"
        },
        {
          "indexed": false,
          "internalType": "bytes",
          "name": "operatorData",
          "type": "bytes"
        }
      ],
      "name": "Sent",
      "type": "event"
    },
    {
      "anonymous": false,
      "inputs": [
        {
          "indexed": true,
          "internalType": "address",
          "name": "recipient",
          "type": "address"
        },
        {
          "indexed": false,
          "internalType": "uint256",
          "name": "amount",
          "type": "uint256"
        },
        {
          "indexed": false,
          "internalType": "uint256",
          "name": "startTime",
          "type": "uint256"
        },
        {
          "indexed": false,
          "internalType": "uint256",
          "name": "vestEndTime",
          "type": "uint256"
        },
        {
          "indexed": false,
          "internalType": "uint256",
          "name": "unlockEndTime",
          "type": "uint256"
        }
      ],
      "name": "TokenGrantCreated",
      "type": "event"
    },
    {
      "anonymous": false,
      "inputs": [
        {
          "indexed": false,
          "internalType": "address",
          "name": "from",
          "type": "address"
        },
        {
          "indexed": false,
          "internalType": "address",
          "name": "to",
          "type": "address"
        }
      ],
      "name": "TokenGrantTransferred",
      "type": "event"
    },
    {
      "anonymous": false,
      "inputs": [
        {
          "indexed": false,
          "internalType": "address",
          "name": "account",
          "type": "address"
        },
        {
          "indexed": false,
          "internalType": "uint256",
          "name": "quantity",
          "type": "uint256"
        }
      ],
      "name": "TokensClaimed",
      "type": "event"
    },
    {
      "anonymous": false,
      "inputs": [
        {
          "indexed": true,
          "internalType": "address",
          "name": "from",
          "type": "address"
        },
        {
          "indexed": true,
          "internalType": "address",
          "name": "to",
          "type": "address"
        },
        {
          "indexed": false,
          "internalType": "uint256",
          "name": "value",
          "type": "uint256"
        }
      ],
      "name": "Transfer",
      "type": "event"
    },
    {
      "anonymous": false,
      "inputs": [
        {
          "indexed": false,
          "internalType": "address",
          "name": "account",
          "type": "address"
        }
      ],
      "name": "Unpaused",
      "type": "event"
    },
    {
      "anonymous": false,
      "inputs": [
        {
          "indexed": false,
          "internalType": "uint256",
          "name": "atTime",
          "type": "uint256"
        },
        {
          "indexed": false,
          "internalType": "address",
          "name": "from",
          "type": "address"
        },
        {
          "indexed": false,
          "internalType": "uint256",
          "name": "quantity",
          "type": "uint256"
        }
      ],
      "name": "UnvestedTokensRevoked",
      "type": "event"
    },
    {
      "inputs": [],
      "name": "DEFAULT_ADMIN_ROLE",
      "outputs": [
        {
          "internalType": "bytes32",
          "name": "",
          "type": "bytes32"
        }
      ],
      "stateMutability": "view",
      "type": "function"
    },
    {
      "inputs": [],
      "name": "MINTER_ROLE",
      "outputs": [
        {
          "internalType": "bytes32",
          "name": "",
          "type": "bytes32"
        }
      ],
      "stateMutability": "view",
      "type": "function"
    },
    {
      "inputs": [],
      "name": "PAUSER_ROLE",
      "outputs": [
        {
          "internalType": "bytes32",
          "name": "",
          "type": "bytes32"
        }
      ],
      "stateMutability": "view",
      "type": "function"
    },
    {
      "inputs": [],
      "name": "TOKEN_GRANTER_ROLE",
      "outputs": [
        {
          "internalType": "bytes32",
          "name": "",
          "type": "bytes32"
        }
      ],
      "stateMutability": "view",
      "type": "function"
    },
    {
      "inputs": [
        {
          "internalType": "address",
          "name": "holder",
          "type": "address"
        },
        {
          "internalType": "address",
          "name": "spender",
          "type": "address"
        }
      ],
      "name": "allowance",
      "outputs": [
        {
          "internalType": "uint256",
          "name": "",
          "type": "uint256"
        }
      ],
      "stateMutability": "view",
      "type": "function"
    },
    {
      "inputs": [
        {
          "internalType": "address",
          "name": "spender",
          "type": "address"
        },
        {
          "internalType": "uint256",
          "name": "value",
          "type": "uint256"
        }
      ],
      "name": "approve",
      "outputs": [
        {
          "internalType": "bool",
          "name": "",
          "type": "bool"
        }
      ],
      "stateMutability": "nonpayable",
      "type": "function"
    },
    {
      "inputs": [
        {
          "internalType": "address",
          "name": "operator",
          "type": "address"
        }
      ],
      "name": "authorizeOperator",
      "outputs": [],
      "stateMutability": "nonpayable",
      "type": "function"
    },
    {
      "inputs": [
        {
          "internalType": "address",
          "name": "account",
          "type": "address"
        }
      ],
      "name": "balanceOf",
      "outputs": [
        {
          "internalType": "uint256",
          "name": "",
          "type": "uint256"
        }
      ],
      "stateMutability": "view",
      "type": "function"
    },
    {
      "inputs": [
        {
          "internalType": "uint256",
          "name": "amount",
          "type": "uint256"
        }
      ],
      "name": "burn",
      "outputs": [],
      "stateMutability": "nonpayable",
      "type": "function"
    },
    {
      "inputs": [
        {
          "internalType": "uint256",
          "name": "amount",
          "type": "uint256"
        },
        {
          "internalType": "bytes",
          "name": "data",
          "type": "bytes"
        }
      ],
      "name": "burn",
      "outputs": [],
      "stateMutability": "nonpayable",
      "type": "function"
    },
    {
      "inputs": [
        {
          "internalType": "address",
          "name": "account",
          "type": "address"
        },
        {
          "internalType": "uint256",
          "name": "amount",
          "type": "uint256"
        }
      ],
      "name": "burnFrom",
      "outputs": [],
      "stateMutability": "nonpayable",
      "type": "function"
    },
    {
      "inputs": [],
      "name": "decimals",
      "outputs": [
        {
          "internalType": "uint8",
          "name": "",
          "type": "uint8"
        }
      ],
      "stateMutability": "pure",
      "type": "function"
    },
    {
      "inputs": [
        {
          "internalType": "address",
          "name": "spender",
          "type": "address"
        },
        {
          "internalType": "uint256",
          "name": "subtractedValue",
          "type": "uint256"
        }
      ],
      "name": "decreaseAllowance",
      "outputs": [
        {
          "internalType": "bool",
          "name": "",
          "type": "bool"
        }
      ],
      "stateMutability": "nonpayable",
      "type": "function"
    },
    {
      "inputs": [],
      "name": "defaultOperators",
      "outputs": [
        {
          "internalType": "address[]",
          "name": "",
          "type": "address[]"
        }
      ],
      "stateMutability": "view",
      "type": "function"
    },
    {
      "inputs": [
        {
          "internalType": "address",
          "name": "account",
          "type": "address"
        }
      ],
      "name": "getGrant",
      "outputs": [
        {
          "internalType": "uint256",
          "name": "amount",
          "type": "uint256"
        },
        {
          "internalType": "uint256",
          "name": "startTime",
          "type": "uint256"
        },
        {
          "internalType": "uint256",
          "name": "vestEndTime",
          "type": "uint256"
        },
        {
          "internalType": "uint256",
          "name": "unlockEndTime",
          "type": "uint256"
        },
        {
          "internalType": "uint256",
          "name": "cliff1Time",
          "type": "uint256"
        },
        {
          "internalType": "uint256",
          "name": "cliff2Time",
          "type": "uint256"
        },
        {
          "internalType": "uint256",
          "name": "vestCliff1Amount",
          "type": "uint256"
        },
        {
          "internalType": "uint256",
          "name": "vestCliff2Amount",
          "type": "uint256"
        },
        {
          "internalType": "uint256",
          "name": "unlockCliff1Amount",
          "type": "uint256"
        },
        {
          "internalType": "uint256",
          "name": "unlockCliff2Amount",
          "type": "uint256"
        },
        {
          "internalType": "uint256",
          "name": "claimedAmount",
          "type": "uint256"
        },
        {
          "internalType": "uint256",
          "name": "originalAmount",
          "type": "uint256"
        }
      ],
      "stateMutability": "view",
      "type": "function"
    },
    {
      "inputs": [
        {
          "internalType": "bytes32",
          "name": "role",
          "type": "bytes32"
        }
      ],
      "name": "getRoleAdmin",
      "outputs": [
        {
          "internalType": "bytes32",
          "name": "",
          "type": "bytes32"
        }
      ],
      "stateMutability": "view",
      "type": "function"
    },
    {
      "inputs": [
        {
          "internalType": "bytes32",
          "name": "role",
          "type": "bytes32"
        },
        {
          "internalType": "uint256",
          "name": "index",
          "type": "uint256"
        }
      ],
      "name": "getRoleMember",
      "outputs": [
        {
          "internalType": "address",
          "name": "",
          "type": "address"
        }
      ],
      "stateMutability": "view",
      "type": "function"
    },
    {
      "inputs": [
        {
          "internalType": "bytes32",
          "name": "role",
          "type": "bytes32"
        }
      ],
      "name": "getRoleMemberCount",
      "outputs": [
        {
          "internalType": "uint256",
          "name": "",
          "type": "uint256"
        }
      ],
      "stateMutability": "view",
      "type": "function"
    },
    {
      "inputs": [
        {
          "internalType": "bytes32",
          "name": "role",
          "type": "bytes32"
        },
        {
          "internalType": "address",
          "name": "account",
          "type": "address"
        }
      ],
      "name": "grantRole",
      "outputs": [],
      "stateMutability": "nonpayable",
      "type": "function"
    },
    {
      "inputs": [],
      "name": "granularity",
      "outputs": [
        {
          "internalType": "uint256",
          "name": "",
          "type": "uint256"
        }
      ],
      "stateMutability": "view",
      "type": "function"
    },
    {
      "inputs": [
        {
          "internalType": "bytes32",
          "name": "role",
          "type": "bytes32"
        },
        {
          "internalType": "address",
          "name": "account",
          "type": "address"
        }
      ],
      "name": "hasRole",
      "outputs": [
        {
          "internalType": "bool",
          "name": "",
          "type": "bool"
        }
      ],
      "stateMutability": "view",
      "type": "function"
    },
    {
      "inputs": [
        {
          "internalType": "address",
          "name": "spender",
          "type": "address"
        },
        {
          "internalType": "uint256",
          "name": "addedValue",
          "type": "uint256"
        }
      ],
      "name": "increaseAllowance",
      "outputs": [
        {
          "internalType": "bool",
          "name": "",
          "type": "bool"
        }
      ],
      "stateMutability": "nonpayable",
      "type": "function"
    },
    {
      "inputs": [
        {
          "internalType": "string",
          "name": "name",
          "type": "string"
        },
        {
          "internalType": "string",
          "name": "symbol",
          "type": "string"
        }
      ],
      "name": "initialize",
      "outputs": [],
      "stateMutability": "nonpayable",
      "type": "function"
    },
    {
      "inputs": [
        {
          "internalType": "contract IERC777Upgradeable",
          "name": "noriAddress",
          "type": "address"
        }
      ],
      "name": "initialize",
      "outputs": [],
      "stateMutability": "nonpayable",
      "type": "function"
    },
    {
      "inputs": [
        {
          "internalType": "address",
          "name": "operator",
          "type": "address"
        },
        {
          "internalType": "address",
          "name": "tokenHolder",
          "type": "address"
        }
      ],
      "name": "isOperatorFor",
      "outputs": [
        {
          "internalType": "bool",
          "name": "",
          "type": "bool"
        }
      ],
      "stateMutability": "view",
      "type": "function"
    },
    {
      "inputs": [
        {
          "internalType": "address",
          "name": "to",
          "type": "address"
        },
        {
          "internalType": "uint256",
          "name": "amount",
          "type": "uint256"
        }
      ],
      "name": "mint",
      "outputs": [],
      "stateMutability": "nonpayable",
      "type": "function"
    },
    {
      "inputs": [],
      "name": "name",
      "outputs": [
        {
          "internalType": "string",
          "name": "",
          "type": "string"
        }
      ],
      "stateMutability": "view",
      "type": "function"
    },
    {
      "inputs": [
        {
          "internalType": "address",
          "name": "account",
          "type": "address"
        },
        {
          "internalType": "uint256",
          "name": "amount",
          "type": "uint256"
        },
        {
          "internalType": "bytes",
          "name": "data",
          "type": "bytes"
        },
        {
          "internalType": "bytes",
          "name": "operatorData",
          "type": "bytes"
        }
      ],
      "name": "operatorBurn",
      "outputs": [],
      "stateMutability": "nonpayable",
      "type": "function"
    },
    {
      "inputs": [
        {
          "internalType": "address",
          "name": "sender",
          "type": "address"
        },
        {
          "internalType": "address",
          "name": "recipient",
          "type": "address"
        },
        {
          "internalType": "uint256",
          "name": "amount",
          "type": "uint256"
        },
        {
          "internalType": "bytes",
          "name": "data",
          "type": "bytes"
        },
        {
          "internalType": "bytes",
          "name": "operatorData",
          "type": "bytes"
        }
      ],
      "name": "operatorSend",
      "outputs": [],
      "stateMutability": "nonpayable",
      "type": "function"
    },
    {
      "inputs": [],
      "name": "pause",
      "outputs": [],
      "stateMutability": "nonpayable",
      "type": "function"
    },
    {
      "inputs": [],
      "name": "paused",
      "outputs": [
        {
          "internalType": "bool",
          "name": "",
          "type": "bool"
        }
      ],
      "stateMutability": "view",
      "type": "function"
    },
    {
      "inputs": [
        {
          "internalType": "address",
          "name": "account",
          "type": "address"
        }
      ],
      "name": "quantityRevokedFrom",
      "outputs": [
        {
          "internalType": "uint256",
          "name": "",
          "type": "uint256"
        }
      ],
      "stateMutability": "view",
      "type": "function"
    },
    {
      "inputs": [
        {
          "internalType": "bytes32",
          "name": "role",
          "type": "bytes32"
        },
        {
          "internalType": "address",
          "name": "account",
          "type": "address"
        }
      ],
      "name": "renounceRole",
      "outputs": [],
      "stateMutability": "nonpayable",
      "type": "function"
    },
    {
      "inputs": [
        {
          "internalType": "address",
          "name": "operator",
          "type": "address"
        }
      ],
      "name": "revokeOperator",
      "outputs": [],
      "stateMutability": "nonpayable",
      "type": "function"
    },
    {
      "inputs": [
        {
          "internalType": "bytes32",
          "name": "role",
          "type": "bytes32"
        },
        {
          "internalType": "address",
          "name": "account",
          "type": "address"
        }
      ],
      "name": "revokeRole",
      "outputs": [],
      "stateMutability": "nonpayable",
      "type": "function"
    },
    {
      "inputs": [
        {
          "internalType": "uint256",
          "name": "atTime",
          "type": "uint256"
        },
        {
          "internalType": "address",
          "name": "from",
          "type": "address"
        },
        {
          "internalType": "address",
          "name": "to",
          "type": "address"
        }
      ],
      "name": "revokeUnvestedTokens",
      "outputs": [],
      "stateMutability": "nonpayable",
      "type": "function"
    },
    {
      "inputs": [
        {
          "internalType": "address",
          "name": "recipient",
          "type": "address"
        },
        {
          "internalType": "uint256",
          "name": "amount",
          "type": "uint256"
        },
        {
          "internalType": "bytes",
          "name": "data",
          "type": "bytes"
        }
      ],
      "name": "send",
      "outputs": [],
      "stateMutability": "nonpayable",
      "type": "function"
    },
    {
      "inputs": [
        {
          "internalType": "bytes4",
          "name": "interfaceId",
          "type": "bytes4"
        }
      ],
      "name": "supportsInterface",
      "outputs": [
        {
          "internalType": "bool",
          "name": "",
          "type": "bool"
        }
      ],
      "stateMutability": "view",
      "type": "function"
    },
    {
      "inputs": [],
      "name": "symbol",
      "outputs": [
        {
          "internalType": "string",
          "name": "",
          "type": "string"
        }
      ],
      "stateMutability": "view",
      "type": "function"
    },
    {
      "inputs": [
        {
          "internalType": "address",
          "name": "",
          "type": "address"
        },
        {
          "internalType": "address",
          "name": "",
          "type": "address"
        },
        {
          "internalType": "address",
          "name": "",
          "type": "address"
        },
        {
          "internalType": "uint256",
          "name": "amount",
          "type": "uint256"
        },
        {
          "internalType": "bytes",
          "name": "userData",
          "type": "bytes"
        },
        {
          "internalType": "bytes",
          "name": "operatorData",
          "type": "bytes"
        }
      ],
      "name": "tokensReceived",
      "outputs": [],
      "stateMutability": "nonpayable",
      "type": "function"
    },
    {
      "inputs": [],
      "name": "totalSupply",
      "outputs": [
        {
          "internalType": "uint256",
          "name": "",
          "type": "uint256"
        }
      ],
      "stateMutability": "view",
      "type": "function"
    },
    {
      "inputs": [
        {
          "internalType": "address",
          "name": "recipient",
          "type": "address"
        },
        {
          "internalType": "uint256",
          "name": "amount",
          "type": "uint256"
        }
      ],
      "name": "transfer",
      "outputs": [
        {
          "internalType": "bool",
          "name": "",
          "type": "bool"
        }
      ],
      "stateMutability": "nonpayable",
      "type": "function"
    },
    {
      "inputs": [
        {
          "internalType": "address",
          "name": "holder",
          "type": "address"
        },
        {
          "internalType": "address",
          "name": "recipient",
          "type": "address"
        },
        {
          "internalType": "uint256",
          "name": "amount",
          "type": "uint256"
        }
      ],
      "name": "transferFrom",
      "outputs": [
        {
          "internalType": "bool",
          "name": "",
          "type": "bool"
        }
      ],
      "stateMutability": "nonpayable",
      "type": "function"
    },
    {
      "inputs": [
        {
          "internalType": "address",
          "name": "account",
          "type": "address"
        }
      ],
      "name": "unlockedBalanceOf",
      "outputs": [
        {
          "internalType": "uint256",
          "name": "",
          "type": "uint256"
        }
      ],
      "stateMutability": "view",
      "type": "function"
    },
    {
      "inputs": [],
      "name": "unpause",
      "outputs": [],
      "stateMutability": "nonpayable",
      "type": "function"
    },
    {
      "inputs": [
        {
          "internalType": "address",
          "name": "account",
          "type": "address"
        }
      ],
      "name": "vestedBalanceOf",
      "outputs": [
        {
          "internalType": "uint256",
          "name": "",
          "type": "uint256"
        }
      ],
      "stateMutability": "view",
      "type": "function"
    },
    {
      "inputs": [
        {
          "internalType": "address",
          "name": "account",
          "type": "address"
        },
        {
          "internalType": "uint256",
          "name": "amount",
          "type": "uint256"
        }
      ],
      "name": "withdrawTo",
      "outputs": [
        {
          "internalType": "bool",
          "name": "",
          "type": "bool"
        }
      ],
      "stateMutability": "nonpayable",
      "type": "function"
    }
  ],
  "bytecode": "0x608060405234801561001057600080fd5b5061463a806100206000396000f3fe608060405234801561001057600080fd5b50600436106102945760003560e01c806379cc679011610167578063a9059cbb116100ce578063d95b637111610087578063d95b6371146106b3578063dd62ed3e146106c6578063e63ab1e9146106d9578063fad8b32a146106ee578063fc673c4f14610701578063fe9d93031461071457600080fd5b8063a9059cbb14610549578063bf31dbf41461055c578063c4d66de814610653578063ca15c87314610666578063d539139314610679578063d547741f146106a057600080fd5b806395d89b411161012057806395d89b41146104ed5780639bd9bbc6146104f55780639c9e4cc5146105085780639e3f3cac1461051b578063a217fddf1461052e578063a457c2d71461053657600080fd5b806379cc67901461046e5780638456cb591461048157806384955c88146104895780639010d07c1461049c57806391d14854146104c7578063959b8c3f146104da57600080fd5b8063313ce5671161020b5780634cd88b76116101c45780634cd88b76146103fb578063556f0dc71461040e5780635c975abb1461041557806362ad1b8314610421578063633d9be01461043457806370a082311461045b57600080fd5b8063313ce5671461039857806336568abe146103a757806339509351146103ba5780633f4ba83a146103cd57806340c10f19146103d557806342966c68146103e857600080fd5b80630e2d1a2a1161025d5780630e2d1a2a1461031357806318160ddd14610334578063205c28781461033c57806323b872dd1461034f578063248a9ca3146103625780632f2ff15d1461038557600080fd5b806223de291461029957806301ffc9a7146102ae57806306e48538146102d657806306fdde03146102eb578063095ea7b314610300575b600080fd5b6102ac6102a7366004613ac1565b610727565b005b6102c16102bc366004613b72565b6107b7565b60405190151581526020015b60405180910390f35b6102de6107e2565b6040516102cd9190613b9c565b6102f3610844565b6040516102cd9190613c41565b6102c161030e366004613c54565b610853565b610326610321366004613c80565b610866565b6040519081526020016102cd565b610326610872565b6102c161034a366004613c54565b61087d565b6102c161035d366004613c9d565b61099a565b610326610370366004613cde565b60009081526065602052604090206001015490565b6102ac610393366004613cf7565b6109af565b604051601281526020016102cd565b6102ac6103b5366004613cf7565b6109da565b6102c16103c8366004613c54565b610a58565b6102ac610a9d565b6102ac6103e3366004613c54565b610b31565b6102ac6103f6366004613cde565b610bd0565b6102ac610409366004613dca565b610bdd565b6001610326565b61015f5460ff166102c1565b6102ac61042f366004613e2e565b610c5a565b6103267fa52f07bb8dc8df886598eb50edeaba2b8e45715237ed244354b60ea04d0390b881565b610326610469366004613c80565b610c96565b6102ac61047c366004613c54565b610cb4565b6102ac610d35565b610326610497366004613c80565b610dc7565b6104af6104aa366004613ec1565b610ebe565b6040516001600160a01b0390911681526020016102cd565b6102c16104d5366004613cf7565b610ed6565b6102ac6104e8366004613c80565b610f01565b6102f361101f565b6102ac610503366004613ee3565b611029565b6102ac610516366004613f3c565b611047565b610326610529366004613c80565b61124f565b610326600081565b6102c1610544366004613c54565b61127c565b6102c1610557366004613c54565b611315565b6105fa61056a366004613c80565b6001600160a01b031660009081526101f560209081526040808320600a8101546005820154600180840154600685015488805260088601808952878a208054858c52898c2080548d805260038b018d528b8e20880154888f529b909d2087015493909b52908501549990940154600b880154600c90980154969b959a939992989497939694959194929390929091565b604080519c8d5260208d019b909b52998b019890985260608a0196909652608089019490945260a088019290925260c087015260e0860152610100850152610120840152610140830152610160820152610180016102cd565b6102ac610661366004613c80565b611321565b610326610674366004613cde565b61157c565b6103267f9f2df0fed2c77648de5860a4cc508cd0818c85b8b8a1ab4ceeef8d981c8956a681565b6102ac6106ae366004613cf7565b611593565b6102c16106c1366004613f7e565b6115b9565b6103266106d4366004613f7e565b61165a565b61032660008051602061458f83398151915281565b6102ac6106fc366004613c80565b611687565b6102ac61070f366004613fac565b6117a3565b6102ac61072236600461402c565b6117db565b6101f6546001600160a01b0316331461079f5760405162461bcd60e51b815260206004820152602f60248201527f4c6f636b65644e4f52493a205468697320636f6e74726163742063616e206f6e60448201526e6c792072656365697665204e4f524960881b60648201526084015b60405180910390fd5b6107ac85858585856117f6565b505050505050505050565b60006001600160e01b03198216635a05180f60e01b14806107dc57506107dc8261186e565b92915050565b606060cd80548060200260200160405190810160405280929190818152602001828054801561083a57602002820191906000526020600020905b81546001600160a01b0316815260019091019060200180831161081c575b5050505050905090565b606061084e6118a3565b905090565b600061085f838361192c565b9392505050565b60006107dc428361193a565b600061084e60ca5490565b6001600160a01b03821660009081526101f5602052604081206108c0338460405180602001604052806000815250604051806020016040528060008152506119af565b6101f654604051634decdde360e11b81526001600160a01b03868116600483015260248201869052606060448301526000606483015290911690639bd9bbc690608401600060405180830381600087803b15801561091d57600080fd5b505af1158015610931573d6000803e3d6000fd5b505050508281600b016000828254610949919061407f565b9091555050604080516001600160a01b0386168152602081018590527f896e034966eaaf1adc54acc0f257056febbd300c9e47182cf761982cf1f5e430910160405180910390a15060019392505050565b60006109a7848484611b5f565b949350505050565b6000828152606560205260409020600101546109cb8133611d21565b6109d58383611d85565b505050565b6001600160a01b0381163314610a4a5760405162461bcd60e51b815260206004820152602f60248201527f416363657373436f6e74726f6c3a2063616e206f6e6c792072656e6f756e636560448201526e103937b632b9903337b91039b2b63360891b6064820152608401610796565b610a548282611da7565b5050565b33600081815260fc602090815260408083206001600160a01b03871684529091528120549091610a94918590610a8f90869061407f565b611dc9565b50600192915050565b610ab560008051602061458f83398151915233610ed6565b610b275760405162461bcd60e51b815260206004820152603960248201527f45524332305072657365744d696e7465725061757365723a206d75737420686160448201527f76652070617573657220726f6c6520746f20756e7061757365000000000000006064820152608401610796565b610b2f611dd4565b565b610b5b7f9f2df0fed2c77648de5860a4cc508cd0818c85b8b8a1ab4ceeef8d981c8956a633610ed6565b610bc65760405162461bcd60e51b815260206004820152603660248201527f45524332305072657365744d696e7465725061757365723a206d7573742068616044820152751d99481b5a5b9d195c881c9bdb19481d1bc81b5a5b9d60521b6064820152608401610796565b610a548282611e69565b610bda3382611f42565b50565b600054610100900460ff16610bf85760005460ff1615610bfc565b303b155b610c185760405162461bcd60e51b815260040161079690614097565b600054610100900460ff16158015610c3a576000805461ffff19166101011790555b610c44838361208a565b80156109d5576000805461ff0019169055505050565b610c6433866115b9565b610c805760405162461bcd60e51b8152600401610796906140e5565b610c8f858585858560016120fd565b5050505050565b6001600160a01b038116600090815260c960205260408120546107dc565b6000610cc0833361165a565b905081811015610d1e5760405162461bcd60e51b8152602060048201526024808201527f45524332303a206275726e20616d6f756e74206578636565647320616c6c6f77604482015263616e636560e01b6064820152608401610796565b610d2b8333848403611dc9565b6109d58383611f42565b610d4d60008051602061458f83398151915233610ed6565b610dbf5760405162461bcd60e51b815260206004820152603760248201527f45524332305072657365744d696e7465725061757365723a206d75737420686160448201527f76652070617573657220726f6c6520746f2070617573650000000000000000006064820152608401610796565b610b2f6121e0565b6001600160a01b03811660009081526101f560205260408120600d81015460ff1615610eb557610e186040518060600160405280603681526020016145cf60369139610e13834261223a565b6122a6565b610e4160405180606001604052806035815260200161455a60359139610e13600584014261223a565b610e7a6040518060400160405280601381526020017219dc985b9d0b98db185a5b5959105b5bdd5b9d606a1b81525082600b01546122a6565b600b810154610eab610ea1610e8f844261223a565b610e9c600586014261223a565b6122eb565b83600a01546122eb565b61085f9190614131565b50600092915050565b600082815260976020526040812061085f9083612301565b60009182526065602090815260408084206001600160a01b0393909316845291905290205460ff1690565b336001600160a01b0382161415610f665760405162461bcd60e51b8152602060048201526024808201527f4552433737373a20617574686f72697a696e672073656c66206173206f70657260448201526330ba37b960e11b6064820152608401610796565b6001600160a01b038116600090815260ce602052604090205460ff1615610fb75733600090815260d0602090815260408083206001600160a01b03851684529091529020805460ff19169055610fe6565b33600090815260cf602090815260408083206001600160a01b03851684529091529020805460ff191660011790555b60405133906001600160a01b038316907ff4caeb2d6ca8932a215a353d0703c326ec2d81fc68170f320eb2ab49e9df61f990600090a350565b606061084e61230d565b6109d5338484846040518060200160405280600081525060016120fd565b7fa52f07bb8dc8df886598eb50edeaba2b8e45715237ed244354b60ea04d0390b86110728133611d21565b61015f5460ff16156110965760405162461bcd60e51b815260040161079690614148565b6001600160a01b03831660009081526101f560205260409020600d81015460ff166110f45760405162461bcd60e51b815260206004820152600e60248201526d139bc819dc985b9d08195e1a5cdd60921b6044820152606401610796565b6000611100868661193a565b905081600a01548110156112475760008183600a01546111209190614131565b600a8401839055604080518981526001600160a01b03891660208201529081018290529091507f0bbe3f9ae306d75ae6df08cd4a79ac5c6eae93ffae7d7e52f2859bf27592519d9060600160405180910390a16111b46040518060400160405280601781526020017f66726f6d2c746f2c7175616e746974795265766f6b656400000000000000000081525087878461231c565b6111eb6040518060400160405280601181526020017019dc985b9d0b99dc985b9d105b5bdd5b9d607a1b81525084600a01546122a6565b61121a6040518060400160405280600d81526020016c76657374656442616c616e636560981b815250836122a6565b6112458686836040518060200160405280600081525060405180602001604052806000815250610c5a565b505b505050505050565b6001600160a01b03811660009081526101f560205260408120600a810154600c82015461085f9190614131565b33600090815260fc602090815260408083206001600160a01b0386168452909152812054828110156112fe5760405162461bcd60e51b815260206004820152602560248201527f45524332303a2064656372656173656420616c6c6f77616e63652062656c6f77604482015264207a65726f60d81b6064820152608401610796565b61130b3385858403611dc9565b5060019392505050565b600061085f8383612365565b600054610100900460ff1661133c5760005460ff1615611340565b303b155b61135c5760405162461bcd60e51b815260040161079690614097565b600054610100900460ff1615801561137e576000805461ffff19166101011790555b611386612418565b61138e612418565b611396612418565b61139e612418565b6113a6612418565b6113ae61243f565b6113b6612418565b6114006040518060400160405280600b81526020016a4c6f636b6564204e4f524960a81b815250604051806040016040528060058152602001646c4e4f524960d81b815250612473565b60408051600180825281830190925260009160208083019080368337019050509050338160008151811061143657611436614172565b60200260200101906001600160a01b031690816001600160a01b0316815250506114a16040518060400160405280600b81526020016a4c6f636b6564204e4f524960a81b815250604051806040016040528060058152602001646c4e4f524960d81b815250836124e7565b6114ac6000336126d1565b6101f680546001600160a01b03199081166001600160a01b038616179091556101f78054731820a4b7618bde71dce8cdc73aab6c95905fad249216821790556040516329965a1d60e01b815230600482018190527fb281fc8c12954d22544db45de3159a39272895b169a852b314f9cc762e44c53b602483015260448201526329965a1d90606401600060405180830381600087803b15801561154e57600080fd5b505af1158015611562573d6000803e3d6000fd5b50505050508015610a54576000805461ff00191690555050565b60008181526097602052604081206107dc906126db565b6000828152606560205260409020600101546115af8133611d21565b6109d58383611da7565b6000816001600160a01b0316836001600160a01b0316148061162457506001600160a01b038316600090815260ce602052604090205460ff16801561162457506001600160a01b03808316600090815260d0602090815260408083209387168352929052205460ff16155b8061085f5750506001600160a01b03908116600090815260cf602090815260408083209490931682529290925290205460ff1690565b6001600160a01b03808316600090815260d16020908152604080832093851683529290529081205461085f565b6001600160a01b0381163314156116ea5760405162461bcd60e51b815260206004820152602160248201527f4552433737373a207265766f6b696e672073656c66206173206f70657261746f6044820152603960f91b6064820152608401610796565b6001600160a01b038116600090815260ce602052604090205460ff161561173e5733600090815260d0602090815260408083206001600160a01b03851684529091529020805460ff1916600117905561176a565b33600090815260cf602090815260408083206001600160a01b03851684529091529020805460ff191690555b60405133906001600160a01b038316907f50546e66e5f44d728365dc3908c63bc5cfeeab470722c1677e3073a6ac294aa190600090a350565b6117ad33856115b9565b6117c95760405162461bcd60e51b8152600401610796906140e5565b6117d5848484846119af565b50505050565b610a54338383604051806020016040528060008152506119af565b60008061180585870187613c80565b90506118128787876126e5565b611861818888888080601f016020809104026020016040519081016040528093929190818152602001838380828437600092018290525060408051602081019091529081529250612905915050565b5060019695505050505050565b60006001600160e01b03198216637965db0b60e01b14806107dc57506301ffc9a760e01b6001600160e01b03198316146107dc565b606060cb80546118b290614188565b80601f01602080910402602001604051908101604052809291908181526020018280546118de90614188565b801561083a5780601f106119005761010080835404028352916020019161083a565b820191906000526020600020905b81548152906001019060200180831161190e57509395945050505050565b60003361130b818585611dc9565b6001600160a01b03811660009081526101f560205260408120600d81015460ff16156119a55780541561199157600b810154600a82015461197f90610e9c848861223a565b6119899190614131565b9150506107dc565b80600b015481600a01546119899190614131565b5060009392505050565b6001600160a01b038416611a105760405162461bcd60e51b815260206004820152602260248201527f4552433737373a206275726e2066726f6d20746865207a65726f206164647265604482015261737360f01b6064820152608401610796565b33611a2081866000878787612913565b611a2d8186600087612a3a565b6001600160a01b038516600090815260c9602052604090205484811015611aa25760405162461bcd60e51b815260206004820152602360248201527f4552433737373a206275726e20616d6f756e7420657863656564732062616c616044820152626e636560e81b6064820152608401610796565b6001600160a01b038616600090815260c960205260408120868303905560ca8054879290611ad1908490614131565b92505081905550856001600160a01b0316826001600160a01b03167fa78a9be3a7b862d26933ad85fb11d80ef66b8f972d7cbba06621d583943a4098878787604051611b1f939291906141c3565b60405180910390a36040518581526000906001600160a01b038816906000805160206145af833981519152906020015b60405180910390a3505050505050565b60006001600160a01b038316611b875760405162461bcd60e51b8152600401610796906141f8565b6001600160a01b038416611bec5760405162461bcd60e51b815260206004820152602660248201527f4552433737373a207472616e736665722066726f6d20746865207a65726f206160448201526564647265737360d01b6064820152608401610796565b6000339050611c1d818686866040518060200160405280600081525060405180602001604052806000815250612913565b6001600160a01b03808616600090815260d160209081526040808320938516835292905220546000198114611cbb5783811015611cae5760405162461bcd60e51b815260206004820152602960248201527f4552433737373a207472616e7366657220616d6f756e74206578636565647320604482015268616c6c6f77616e636560b81b6064820152608401610796565b611cbb8683868403611dc9565b611ce7828787876040518060200160405280600081525060405180602001604052806000815250612b0c565b611d158287878760405180602001604052806000815250604051806020016040528060008152506000612c6c565b50600195945050505050565b611d2b8282610ed6565b610a5457611d43816001600160a01b03166014612e31565b611d4e836020612e31565b604051602001611d5f92919061423c565b60408051601f198184030181529082905262461bcd60e51b825261079691600401613c41565b611d8f8282612fcd565b60008281526097602052604090206109d59082613053565b611db18282613068565b60008281526097602052604090206109d590826130cf565b6109d58383836130e4565b61015f5460ff16611e1e5760405162461bcd60e51b815260206004820152601460248201527314185d5cd8589b194e881b9bdd081c185d5cd95960621b6044820152606401610796565b61015f805460ff191690557f5db9ee0a495bf2e6ff9c91a7834c1ba4fdd244a5e8aa4e537bd38aeae4b073aa335b6040516001600160a01b03909116815260200160405180910390a1565b6001600160a01b038216611ebf5760405162461bcd60e51b815260206004820152601f60248201527f45524332303a206d696e7420746f20746865207a65726f2061646472657373006044820152606401610796565b611ecb6000838361320b565b8060fd6000828254611edd919061407f565b90915550506001600160a01b038216600090815260fb602052604081208054839290611f0a90849061407f565b90915550506040518181526001600160a01b038316906000906000805160206145af8339815191529060200160405180910390a35050565b6001600160a01b038216611fa25760405162461bcd60e51b815260206004820152602160248201527f45524332303a206275726e2066726f6d20746865207a65726f206164647265736044820152607360f81b6064820152608401610796565b611fae8260008361320b565b6001600160a01b038216600090815260fb6020526040902054818110156120225760405162461bcd60e51b815260206004820152602260248201527f45524332303a206275726e20616d6f756e7420657863656564732062616c616e604482015261636560f01b6064820152608401610796565b6001600160a01b038316600090815260fb60205260408120838303905560fd8054849290612051908490614131565b90915550506040518281526000906001600160a01b038516906000805160206145af8339815191529060200160405180910390a3505050565b600054610100900460ff166120b15760405162461bcd60e51b8152600401610796906142b1565b6120b9612418565b6120c1612418565b6120c9612418565b6120d1612418565b6120db8282613216565b6120e3612418565b6120eb61243f565b6120f3612418565b610a548282612473565b6001600160a01b03861661215e5760405162461bcd60e51b815260206004820152602260248201527f4552433737373a2073656e642066726f6d20746865207a65726f206164647265604482015261737360f01b6064820152608401610796565b6001600160a01b0385166121b45760405162461bcd60e51b815260206004820181905260248201527f4552433737373a2073656e6420746f20746865207a65726f20616464726573736044820152606401610796565b336121c3818888888888612913565b6121d1818888888888612b0c565b61124581888888888888612c6c565b61015f5460ff16156122045760405162461bcd60e51b815260040161079690614148565b61015f805460ff191660011790557f62e78cea01bee320cd4e420270b5ea74000d11b0c9f74754ebdbfc544b05a258611e4c3390565b600061226260405180606001604052806027815260200161453360279139610e138585613264565b6122886040518060600160405280602e8152602001614505602e9139610e1385856132ce565b61229283836132ce565b61229c8484613264565b61085f919061407f565b610a5482826040516024016122bc9291906142fc565b60408051601f198184030181529190526020810180516001600160e01b03166309710a9d60e41b17905261339c565b60008183106122fa578161085f565b5090919050565b600061085f83836133bd565b606060cc80546118b290614188565b6117d584848484604051602401612336949392919061431e565b60408051601f198184030181529190526020810180516001600160e01b0316636eb7943d60e01b17905261339c565b60006001600160a01b03831661238d5760405162461bcd60e51b8152600401610796906141f8565b60003390506123be818286866040518060200160405280600081525060405180602001604052806000815250612913565b6123ea818286866040518060200160405280600081525060405180602001604052806000815250612b0c565b61130b8182868660405180602001604052806000815250604051806020016040528060008152506000612c6c565b600054610100900460ff16610b2f5760405162461bcd60e51b8152600401610796906142b1565b600054610100900460ff166124665760405162461bcd60e51b8152600401610796906142b1565b61015f805460ff19169055565b600054610100900460ff1661249a5760405162461bcd60e51b8152600401610796906142b1565b6124a56000336126d1565b6124cf7f9f2df0fed2c77648de5860a4cc508cd0818c85b8b8a1ab4ceeef8d981c8956a6336126d1565b610a5460008051602061458f833981519152336126d1565b600054610100900460ff1661250e5760405162461bcd60e51b8152600401610796906142b1565b82516125219060cb906020860190613975565b5081516125359060cc906020850190613975565b5080516125499060cd9060208401906139f9565b5060005b81518110156125b257600160ce600084848151811061256e5761256e614172565b6020908102919091018101516001600160a01b03168252810191909152604001600020805460ff1916911515919091179055806125aa81614354565b91505061254d565b506040516329965a1d60e01b815230600482018190527fac7fbab5f54a3ca8194167523c6753bfeb96a445279294b6125b68cce217705460248301526044820152731820a4b7618bde71dce8cdc73aab6c95905fad24906329965a1d90606401600060405180830381600087803b15801561262c57600080fd5b505af1158015612640573d6000803e3d6000fd5b50506040516329965a1d60e01b815230600482018190527faea199e31a596269b42cdafd93407f14436db6e4cad65417994c2eb37381e05a60248301526044820152731820a4b7618bde71dce8cdc73aab6c95905fad2492506329965a1d9150606401600060405180830381600087803b1580156126bd57600080fd5b505af1158015611245573d6000803e3d6000fd5b610a548282611d85565b60006107dc825490565b61015f5460ff16156127095760405162461bcd60e51b815260040161079690614148565b60008080808080808080806127208b8d018d61436f565b995099509950995099509950995099509950995061273f8989876133e7565b6001600160a01b038a166127955760405162461bcd60e51b815260206004820181905260248201527f526563697069656e742063616e6e6f74206265207a65726f20616464726573736044820152606401610796565b6001600160a01b038a1660009081526101f560205260409020600a81018e9055600c81018e9055600d8101805460ff1916600117905589891115612874578285101580156127e35750818410155b61284d5760405162461bcd60e51b815260206004820152603560248201527f556e6c6f636b20636c69666620616d6f756e74732063616e6e6f7420657863656044820152746564207665737420636c69666620616d6f756e747360581b6064820152608401610796565b600281018e905589815560018101899055612869818887613435565b612874818786613435565b600781018e9055600581018a815560068201899055612894908885613435565b6128a2600582018784613435565b604080518f8152602081018c90529081018a9052606081018990526001600160a01b038c16907f17161516b6ce34594617177a800b150a86ddee02c06993a73ef000a02367d1199060800160405180910390a25050505050505050505050505050565b6117d584848484600161360a565b60405163555ddc6560e11b81526001600160a01b03861660048201527f29ddb589b1fb5fc7cf394961c1adf5f8c6454761adf795e67fe149f658abe8956024820152600090731820a4b7618bde71dce8cdc73aab6c95905fad249063aabbb8ca90604401602060405180830381865afa158015612994573d6000803e3d6000fd5b505050506040513d601f19601f820116820180604052508101906129b891906143e0565b90506001600160a01b0381161561124557604051633ad5cbc160e11b81526001600160a01b038216906375ab9782906129ff908a908a908a908a908a908a906004016143fd565b600060405180830381600087803b158015612a1957600080fd5b505af1158015612a2d573d6000803e3d6000fd5b5050505050505050505050565b6001600160a01b03831615801590612acb576000612a5785610dc7565b9050612a64600033610ed6565b612ac95780831115612ac95760405162461bcd60e51b815260206004820152602860248201527f4c6f636b65644e4f52493a2057697468647261776c20616d6f756e7420756e616044820152677661696c61626c6560c01b6064820152608401610796565b505b612b01604051806040016040528060158152602001743132b337b932903a37b5b2b7103a3930b739b332b960591b81525061373e565b610c8f84848461320b565b612b1886868686612a3a565b6001600160a01b038516600090815260c9602052604090205483811015612b915760405162461bcd60e51b815260206004820152602760248201527f4552433737373a207472616e7366657220616d6f756e7420657863656564732060448201526662616c616e636560c81b6064820152608401610796565b6001600160a01b03808716600090815260c96020526040808220878503905591871681529081208054869290612bc890849061407f565b92505081905550846001600160a01b0316866001600160a01b0316886001600160a01b03167f06b541ddaa720db2b10a4d0cdac39b8d360425fc073085fac19bc82614677987878787604051612c20939291906141c3565b60405180910390a4846001600160a01b0316866001600160a01b03166000805160206145af83398151915286604051612c5b91815260200190565b60405180910390a350505050505050565b60405163555ddc6560e11b81526001600160a01b03861660048201527fb281fc8c12954d22544db45de3159a39272895b169a852b314f9cc762e44c53b6024820152600090731820a4b7618bde71dce8cdc73aab6c95905fad249063aabbb8ca90604401602060405180830381865afa158015612ced573d6000803e3d6000fd5b505050506040513d601f19601f82011682018060405250810190612d1191906143e0565b90506001600160a01b03811615612d8d576040516223de2960e01b81526001600160a01b038216906223de2990612d56908b908b908b908b908b908b906004016143fd565b600060405180830381600087803b158015612d7057600080fd5b505af1158015612d84573d6000803e3d6000fd5b50505050612e27565b8115612e27576001600160a01b0386163b15612e275760405162461bcd60e51b815260206004820152604d60248201527f4552433737373a20746f6b656e20726563697069656e7420636f6e747261637460448201527f20686173206e6f20696d706c656d656e74657220666f7220455243373737546f60648201526c1ad95b9cd49958da5c1a595b9d609a1b608482015260a401610796565b5050505050505050565b60606000612e40836002614457565b612e4b90600261407f565b67ffffffffffffffff811115612e6357612e63613d27565b6040519080825280601f01601f191660200182016040528015612e8d576020820181803683370190505b509050600360fc1b81600081518110612ea857612ea8614172565b60200101906001600160f81b031916908160001a905350600f60fb1b81600181518110612ed757612ed7614172565b60200101906001600160f81b031916908160001a9053506000612efb846002614457565b612f0690600161407f565b90505b6001811115612f7e576f181899199a1a9b1b9c1cb0b131b232b360811b85600f1660108110612f3a57612f3a614172565b1a60f81b828281518110612f5057612f50614172565b60200101906001600160f81b031916908160001a90535060049490941c93612f7781614476565b9050612f09565b50831561085f5760405162461bcd60e51b815260206004820181905260248201527f537472696e67733a20686578206c656e67746820696e73756666696369656e746044820152606401610796565b612fd78282610ed6565b610a545760008281526065602090815260408083206001600160a01b03851684529091529020805460ff1916600117905561300f3390565b6001600160a01b0316816001600160a01b0316837f2f8788117e7eff1d82e926ec794901d17c78024a50270940304540a733656f0d60405160405180910390a45050565b600061085f836001600160a01b038416613781565b6130728282610ed6565b15610a545760008281526065602090815260408083206001600160a01b0385168085529252808320805460ff1916905551339285917ff6391f5c32d9c69d2a47ea670b442974b53935d1edc7fd64eb21e047a839171b9190a45050565b600061085f836001600160a01b0384166137d0565b6001600160a01b0383166131485760405162461bcd60e51b815260206004820152602560248201527f4552433737373a20617070726f76652066726f6d20746865207a65726f206164604482015264647265737360d81b6064820152608401610796565b6001600160a01b0382166131aa5760405162461bcd60e51b815260206004820152602360248201527f4552433737373a20617070726f766520746f20746865207a65726f206164647260448201526265737360e81b6064820152608401610796565b6001600160a01b03838116600081815260d1602090815260408083209487168084529482529182902085905590518481527f8c5be1e5ebec7d5bd14f71427d1e84f3dd0314c0f7b2291e5b200ac8c7c3b925910160405180910390a3505050565b6109d58383836138c3565b600054610100900460ff1661323d5760405162461bcd60e51b8152600401610796906142b1565b81516132509060fe906020850190613975565b5080516109d59060ff906020840190613975565b600080805b84600401548110156132bf57600081815260038601602052604090205484106132ad5760008181526003860160205260409020600101546132aa908361407f565b91505b806132b781614354565b915050613269565b506109a78460020154826122eb565b6000806132da8461392a565b8460020154106132ff576132ed8461392a565b84600201546132fc9190614131565b90505b836001015483106133115790506107dc565b835460048501541561334957846003016000600187600401546133349190614131565b81526020019081526020016000206000015490505b600081866001015461335b9190614131565b90506000613369838761448d565b9050600081131561338e578161337f8286614457565b61338991906144cc565b613391565b60005b979650505050505050565b80516a636f6e736f6c652e6c6f67602083016000808483855afa5050505050565b60008260000182815481106133d4576133d4614172565b9060005260206000200154905092915050565b6040516024810184905260448101839052606481018290526109d59060840160408051601f198184030181529190526020810180516001600160e01b03166339e0829d60e21b17905261339c565b600483015461349457825482101561348f5760405162461bcd60e51b815260206004820152601b60248201527f436c696666206265666f7265207363686564756c6520737461727400000000006044820152606401610796565b61350c565b826003016000600185600401546134ab9190614131565b81526020019081526020016000206000015482101561350c5760405162461bcd60e51b815260206004820152601860248201527f436c69666673206e6f74206368726f6e6f6c6f676963616c00000000000000006044820152606401610796565b82600101548211156135605760405162461bcd60e51b815260206004820181905260248201527f436c696666732063616e6e6f7420656e64206166746572207363686564756c656044820152606401610796565b82600201548161356f8561392a565b613579919061407f565b11156135c75760405162461bcd60e51b815260206004820152601a60248201527f636c69666620616d6f756e74732065786365656420746f74616c0000000000006044820152606401610796565b6004830180546000908152600385016020526040808220859055825482528120600190810184905582549092919061360090849061407f565b9091555050505050565b6001600160a01b0385166136605760405162461bcd60e51b815260206004820181905260248201527f4552433737373a206d696e7420746f20746865207a65726f20616464726573736044820152606401610796565b3361366e8160008888612a3a565b8460ca6000828254613680919061407f565b90915550506001600160a01b038616600090815260c96020526040812080548792906136ad90849061407f565b909155506136c390508160008888888888612c6c565b856001600160a01b0316816001600160a01b03167f2fe5be0146f74c5bce36c0b80911af6c7d86ff27e89d5cfa61fc681327954e5d87878760405161370a939291906141c3565b60405180910390a36040518581526001600160a01b038716906000906000805160206145af83398151915290602001611b4f565b610bda816040516024016137529190613c41565b60408051601f198184030181529190526020810180516001600160e01b031663104c13eb60e21b17905261339c565b60008181526001830160205260408120546137c8575081546001818101845560008481526020808220909301849055845484825282860190935260409020919091556107dc565b5060006107dc565b600081815260018301602052604081205480156138b95760006137f4600183614131565b855490915060009061380890600190614131565b905081811461386d57600086600001828154811061382857613828614172565b906000526020600020015490508087600001848154811061384b5761384b614172565b6000918252602080832090910192909255918252600188019052604090208390555b855486908061387e5761387e6144ee565b6001900381819060005260206000200160009055905585600101600086815260200190815260200160002060009055600193505050506107dc565b60009150506107dc565b61015f5460ff16156109d55760405162461bcd60e51b815260206004820152602a60248201527f45524332305061757361626c653a20746f6b656e207472616e736665722077686044820152691a5b19481c185d5cd95960b21b6064820152608401610796565b60008060005b836004015481101561396e57600081815260038501602052604090206001015461395a908361407f565b91508061396681614354565b915050613930565b5092915050565b82805461398190614188565b90600052602060002090601f0160209004810192826139a357600085556139e9565b82601f106139bc57805160ff19168380011785556139e9565b828001600101855582156139e9579182015b828111156139e95782518255916020019190600101906139ce565b506139f5929150613a4e565b5090565b8280548282559060005260206000209081019282156139e9579160200282015b828111156139e957825182546001600160a01b0319166001600160a01b03909116178255602090920191600190910190613a19565b5b808211156139f55760008155600101613a4f565b6001600160a01b0381168114610bda57600080fd5b60008083601f840112613a8a57600080fd5b50813567ffffffffffffffff811115613aa257600080fd5b602083019150836020828501011115613aba57600080fd5b9250929050565b60008060008060008060008060c0898b031215613add57600080fd5b8835613ae881613a63565b97506020890135613af881613a63565b96506040890135613b0881613a63565b955060608901359450608089013567ffffffffffffffff80821115613b2c57600080fd5b613b388c838d01613a78565b909650945060a08b0135915080821115613b5157600080fd5b50613b5e8b828c01613a78565b999c989b5096995094979396929594505050565b600060208284031215613b8457600080fd5b81356001600160e01b03198116811461085f57600080fd5b6020808252825182820181905260009190848201906040850190845b81811015613bdd5783516001600160a01b031683529284019291840191600101613bb8565b50909695505050505050565b60005b83811015613c04578181015183820152602001613bec565b838111156117d55750506000910152565b60008151808452613c2d816020860160208601613be9565b601f01601f19169290920160200192915050565b60208152600061085f6020830184613c15565b60008060408385031215613c6757600080fd5b8235613c7281613a63565b946020939093013593505050565b600060208284031215613c9257600080fd5b813561085f81613a63565b600080600060608486031215613cb257600080fd5b8335613cbd81613a63565b92506020840135613ccd81613a63565b929592945050506040919091013590565b600060208284031215613cf057600080fd5b5035919050565b60008060408385031215613d0a57600080fd5b823591506020830135613d1c81613a63565b809150509250929050565b634e487b7160e01b600052604160045260246000fd5b600082601f830112613d4e57600080fd5b813567ffffffffffffffff80821115613d6957613d69613d27565b604051601f8301601f19908116603f01168101908282118183101715613d9157613d91613d27565b81604052838152866020858801011115613daa57600080fd5b836020870160208301376000602085830101528094505050505092915050565b60008060408385031215613ddd57600080fd5b823567ffffffffffffffff80821115613df557600080fd5b613e0186838701613d3d565b93506020850135915080821115613e1757600080fd5b50613e2485828601613d3d565b9150509250929050565b600080600080600060a08688031215613e4657600080fd5b8535613e5181613a63565b94506020860135613e6181613a63565b935060408601359250606086013567ffffffffffffffff80821115613e8557600080fd5b613e9189838a01613d3d565b93506080880135915080821115613ea757600080fd5b50613eb488828901613d3d565b9150509295509295909350565b60008060408385031215613ed457600080fd5b50508035926020909101359150565b600080600060608486031215613ef857600080fd5b8335613f0381613a63565b925060208401359150604084013567ffffffffffffffff811115613f2657600080fd5b613f3286828701613d3d565b9150509250925092565b600080600060608486031215613f5157600080fd5b833592506020840135613f6381613a63565b91506040840135613f7381613a63565b809150509250925092565b60008060408385031215613f9157600080fd5b8235613f9c81613a63565b91506020830135613d1c81613a63565b60008060008060808587031215613fc257600080fd5b8435613fcd81613a63565b935060208501359250604085013567ffffffffffffffff80821115613ff157600080fd5b613ffd88838901613d3d565b9350606087013591508082111561401357600080fd5b5061402087828801613d3d565b91505092959194509250565b6000806040838503121561403f57600080fd5b82359150602083013567ffffffffffffffff81111561405d57600080fd5b613e2485828601613d3d565b634e487b7160e01b600052601160045260246000fd5b6000821982111561409257614092614069565b500190565b6020808252602e908201527f496e697469616c697a61626c653a20636f6e747261637420697320616c72656160408201526d191e481a5b9a5d1a585b1a5e995960921b606082015260800190565b6020808252602c908201527f4552433737373a2063616c6c6572206973206e6f7420616e206f70657261746f60408201526b39103337b9103437b63232b960a11b606082015260800190565b60008282101561414357614143614069565b500390565b60208082526010908201526f14185d5cd8589b194e881c185d5cd95960821b604082015260600190565b634e487b7160e01b600052603260045260246000fd5b600181811c9082168061419c57607f821691505b602082108114156141bd57634e487b7160e01b600052602260045260246000fd5b50919050565b8381526060602082015260006141dc6060830185613c15565b82810360408401526141ee8185613c15565b9695505050505050565b60208082526024908201527f4552433737373a207472616e7366657220746f20746865207a65726f206164646040820152637265737360e01b606082015260800190565b7f416363657373436f6e74726f6c3a206163636f756e7420000000000000000000815260008351614274816017850160208801613be9565b7001034b99036b4b9b9b4b733903937b6329607d1b60179184019182015283516142a5816028840160208801613be9565b01602801949350505050565b6020808252602b908201527f496e697469616c697a61626c653a20636f6e7472616374206973206e6f74206960408201526a6e697469616c697a696e6760a81b606082015260800190565b60408152600061430f6040830185613c15565b90508260208301529392505050565b6080815260006143316080830187613c15565b6001600160a01b0395861660208401529390941660408201526060015292915050565b600060001982141561436857614368614069565b5060010190565b6000806000806000806000806000806101408b8d03121561438f57600080fd5b8a3561439a81613a63565b9c60208c01359c5060408c01359b60608101359b5060808101359a5060a0810135995060c0810135985060e0810135975061010081013596506101200135945092505050565b6000602082840312156143f257600080fd5b815161085f81613a63565b6001600160a01b0387811682528681166020830152851660408201526060810184905260c06080820181905260009061443890830185613c15565b82810360a084015261444a8185613c15565b9998505050505050505050565b600081600019048311821515161561447157614471614069565b500290565b60008161448557614485614069565b506000190190565b60008083128015600160ff1b8501841216156144ab576144ab614069565b6001600160ff1b03840183138116156144c6576144c6614069565b50500390565b6000826144e957634e487b7160e01b600052601260045260246000fd5b500490565b634e487b7160e01b600052603160045260246000fdfe6c696e65617252656c65617365416d6f756e74417661696c61626c65287363686564756c652c20617454696d6529636c696666416d6f756e7473417661696c61626c65287363686564756c652c20617454696d65296772616e742e6c6f636b75705363686564756c652e617661696c61626c65416d6f756e7428626c6f636b2e74696d657374616d702965d7a28e3265b37a6474929f336521b332c1681b933f6cb9f3376673440d862addf252ad1be2c89b69c2b068fc378daa952ba7f163c4a11628f55a4df523b3ef6772616e742e76657374696e675363686564756c652e617661696c61626c65416d6f756e7428626c6f636b2e74696d657374616d7029a264697066735822122096e5430de615d519576956e44d20c357f7b5b7d6574b3227aebe71d2d5ebdfd164736f6c634300080a0033",
  "linkReferences": {},
  "deployedLinkReferences": {}
}