{
  "_format": "hh-sol-artifact-1",
  "contractName": "LockedNORI",
  "sourceName": "contracts/LockedNORI.sol",
  "abi": [
    {
      "anonymous": false,
      "inputs": [
        {
          "indexed": true,
          "internalType": "address",
          "name": "owner",
          "type": "address"
        },
        {
          "indexed": true,
          "internalType": "address",
          "name": "spender",
          "type": "address"
        },
        {
          "indexed": false,
          "internalType": "uint256",
          "name": "value",
          "type": "uint256"
        }
      ],
      "name": "Approval",
      "type": "event"
    },
    {
      "anonymous": false,
      "inputs": [
        {
          "indexed": true,
          "internalType": "address",
          "name": "operator",
          "type": "address"
        },
        {
          "indexed": true,
          "internalType": "address",
          "name": "tokenHolder",
          "type": "address"
        }
      ],
      "name": "AuthorizedOperator",
      "type": "event"
    },
    {
      "anonymous": false,
      "inputs": [
        {
          "indexed": true,
          "internalType": "address",
          "name": "operator",
          "type": "address"
        },
        {
          "indexed": true,
          "internalType": "address",
          "name": "from",
          "type": "address"
        },
        {
          "indexed": false,
          "internalType": "uint256",
          "name": "amount",
          "type": "uint256"
        },
        {
          "indexed": false,
          "internalType": "bytes",
          "name": "data",
          "type": "bytes"
        },
        {
          "indexed": false,
          "internalType": "bytes",
          "name": "operatorData",
          "type": "bytes"
        }
      ],
      "name": "Burned",
      "type": "event"
    },
    {
      "anonymous": false,
      "inputs": [
        {
          "indexed": true,
          "internalType": "address",
          "name": "operator",
          "type": "address"
        },
        {
          "indexed": true,
          "internalType": "address",
          "name": "to",
          "type": "address"
        },
        {
          "indexed": false,
          "internalType": "uint256",
          "name": "amount",
          "type": "uint256"
        },
        {
          "indexed": false,
          "internalType": "bytes",
          "name": "data",
          "type": "bytes"
        },
        {
          "indexed": false,
          "internalType": "bytes",
          "name": "operatorData",
          "type": "bytes"
        }
      ],
      "name": "Minted",
      "type": "event"
    },
    {
      "anonymous": false,
      "inputs": [
        {
          "indexed": false,
          "internalType": "address",
          "name": "account",
          "type": "address"
        }
      ],
      "name": "Paused",
      "type": "event"
    },
    {
      "anonymous": false,
      "inputs": [
        {
          "indexed": true,
          "internalType": "address",
          "name": "operator",
          "type": "address"
        },
        {
          "indexed": true,
          "internalType": "address",
          "name": "tokenHolder",
          "type": "address"
        }
      ],
      "name": "RevokedOperator",
      "type": "event"
    },
    {
      "anonymous": false,
      "inputs": [
        {
          "indexed": true,
          "internalType": "bytes32",
          "name": "role",
          "type": "bytes32"
        },
        {
          "indexed": true,
          "internalType": "bytes32",
          "name": "previousAdminRole",
          "type": "bytes32"
        },
        {
          "indexed": true,
          "internalType": "bytes32",
          "name": "newAdminRole",
          "type": "bytes32"
        }
      ],
      "name": "RoleAdminChanged",
      "type": "event"
    },
    {
      "anonymous": false,
      "inputs": [
        {
          "indexed": true,
          "internalType": "bytes32",
          "name": "role",
          "type": "bytes32"
        },
        {
          "indexed": true,
          "internalType": "address",
          "name": "account",
          "type": "address"
        },
        {
          "indexed": true,
          "internalType": "address",
          "name": "sender",
          "type": "address"
        }
      ],
      "name": "RoleGranted",
      "type": "event"
    },
    {
      "anonymous": false,
      "inputs": [
        {
          "indexed": true,
          "internalType": "bytes32",
          "name": "role",
          "type": "bytes32"
        },
        {
          "indexed": true,
          "internalType": "address",
          "name": "account",
          "type": "address"
        },
        {
          "indexed": true,
          "internalType": "address",
          "name": "sender",
          "type": "address"
        }
      ],
      "name": "RoleRevoked",
      "type": "event"
    },
    {
      "anonymous": false,
      "inputs": [
        {
          "indexed": true,
          "internalType": "address",
          "name": "operator",
          "type": "address"
        },
        {
          "indexed": true,
          "internalType": "address",
          "name": "from",
          "type": "address"
        },
        {
          "indexed": true,
          "internalType": "address",
          "name": "to",
          "type": "address"
        },
        {
          "indexed": false,
          "internalType": "uint256",
          "name": "amount",
          "type": "uint256"
        },
        {
          "indexed": false,
          "internalType": "bytes",
          "name": "data",
          "type": "bytes"
        },
        {
          "indexed": false,
          "internalType": "bytes",
          "name": "operatorData",
          "type": "bytes"
        }
      ],
      "name": "Sent",
      "type": "event"
    },
    {
      "anonymous": false,
      "inputs": [
        {
          "indexed": true,
          "internalType": "address",
          "name": "recipient",
          "type": "address"
        },
        {
          "indexed": false,
          "internalType": "uint256",
          "name": "amount",
          "type": "uint256"
        },
        {
          "indexed": false,
          "internalType": "uint256",
          "name": "startTime",
          "type": "uint256"
        },
        {
          "indexed": false,
          "internalType": "uint256",
          "name": "vestEndTime",
          "type": "uint256"
        },
        {
          "indexed": false,
          "internalType": "uint256",
          "name": "unlockEndTime",
          "type": "uint256"
        }
      ],
      "name": "TokenGrantCreated",
      "type": "event"
    },
    {
      "anonymous": false,
      "inputs": [
        {
          "indexed": false,
          "internalType": "address",
          "name": "from",
          "type": "address"
        },
        {
          "indexed": false,
          "internalType": "address",
          "name": "to",
          "type": "address"
        }
      ],
      "name": "TokenGrantTransferred",
      "type": "event"
    },
    {
      "anonymous": false,
      "inputs": [
        {
          "indexed": false,
          "internalType": "address",
          "name": "account",
          "type": "address"
        },
        {
          "indexed": false,
          "internalType": "uint256",
          "name": "quantity",
          "type": "uint256"
        }
      ],
      "name": "TokensClaimed",
      "type": "event"
    },
    {
      "anonymous": false,
      "inputs": [
        {
          "indexed": true,
          "internalType": "address",
          "name": "from",
          "type": "address"
        },
        {
          "indexed": true,
          "internalType": "address",
          "name": "to",
          "type": "address"
        },
        {
          "indexed": false,
          "internalType": "uint256",
          "name": "value",
          "type": "uint256"
        }
      ],
      "name": "Transfer",
      "type": "event"
    },
    {
      "anonymous": false,
      "inputs": [
        {
          "indexed": false,
          "internalType": "address",
          "name": "account",
          "type": "address"
        }
      ],
      "name": "Unpaused",
      "type": "event"
    },
    {
      "anonymous": false,
      "inputs": [
        {
          "indexed": false,
          "internalType": "uint256",
          "name": "atTime",
          "type": "uint256"
        },
        {
          "indexed": false,
          "internalType": "address",
          "name": "from",
          "type": "address"
        },
        {
          "indexed": false,
          "internalType": "uint256",
          "name": "quantity",
          "type": "uint256"
        }
      ],
      "name": "UnvestedTokensRevoked",
      "type": "event"
    },
    {
      "inputs": [],
      "name": "DEFAULT_ADMIN_ROLE",
      "outputs": [
        {
          "internalType": "bytes32",
          "name": "",
          "type": "bytes32"
        }
      ],
      "stateMutability": "view",
      "type": "function"
    },
    {
      "inputs": [],
      "name": "MINTER_ROLE",
      "outputs": [
        {
          "internalType": "bytes32",
          "name": "",
          "type": "bytes32"
        }
      ],
      "stateMutability": "view",
      "type": "function"
    },
    {
      "inputs": [],
      "name": "PAUSER_ROLE",
      "outputs": [
        {
          "internalType": "bytes32",
          "name": "",
          "type": "bytes32"
        }
      ],
      "stateMutability": "view",
      "type": "function"
    },
    {
      "inputs": [],
      "name": "TOKEN_GRANTER_ROLE",
      "outputs": [
        {
          "internalType": "bytes32",
          "name": "",
          "type": "bytes32"
        }
      ],
      "stateMutability": "view",
      "type": "function"
    },
    {
      "inputs": [
        {
          "internalType": "address",
          "name": "holder",
          "type": "address"
        },
        {
          "internalType": "address",
          "name": "spender",
          "type": "address"
        }
      ],
      "name": "allowance",
      "outputs": [
        {
          "internalType": "uint256",
          "name": "",
          "type": "uint256"
        }
      ],
      "stateMutability": "view",
      "type": "function"
    },
    {
      "inputs": [
        {
          "internalType": "address",
          "name": "spender",
          "type": "address"
        },
        {
          "internalType": "uint256",
          "name": "value",
          "type": "uint256"
        }
      ],
      "name": "approve",
      "outputs": [
        {
          "internalType": "bool",
          "name": "",
          "type": "bool"
        }
      ],
      "stateMutability": "nonpayable",
      "type": "function"
    },
    {
      "inputs": [
        {
          "internalType": "address",
          "name": "operator",
          "type": "address"
        }
      ],
      "name": "authorizeOperator",
      "outputs": [],
      "stateMutability": "nonpayable",
      "type": "function"
    },
    {
      "inputs": [
        {
          "internalType": "address",
          "name": "account",
          "type": "address"
        }
      ],
      "name": "balanceOf",
      "outputs": [
        {
          "internalType": "uint256",
          "name": "",
          "type": "uint256"
        }
      ],
      "stateMutability": "view",
      "type": "function"
    },
    {
      "inputs": [
        {
          "internalType": "uint256",
          "name": "amount",
          "type": "uint256"
        }
      ],
      "name": "burn",
      "outputs": [],
      "stateMutability": "nonpayable",
      "type": "function"
    },
    {
      "inputs": [
        {
          "internalType": "uint256",
          "name": "amount",
          "type": "uint256"
        },
        {
          "internalType": "bytes",
          "name": "data",
          "type": "bytes"
        }
      ],
      "name": "burn",
      "outputs": [],
      "stateMutability": "nonpayable",
      "type": "function"
    },
    {
      "inputs": [
        {
          "internalType": "address",
          "name": "account",
          "type": "address"
        },
        {
          "internalType": "uint256",
          "name": "amount",
          "type": "uint256"
        }
      ],
      "name": "burnFrom",
      "outputs": [],
      "stateMutability": "nonpayable",
      "type": "function"
    },
    {
      "inputs": [],
      "name": "decimals",
      "outputs": [
        {
          "internalType": "uint8",
          "name": "",
          "type": "uint8"
        }
      ],
      "stateMutability": "pure",
      "type": "function"
    },
    {
      "inputs": [
        {
          "internalType": "address",
          "name": "spender",
          "type": "address"
        },
        {
          "internalType": "uint256",
          "name": "subtractedValue",
          "type": "uint256"
        }
      ],
      "name": "decreaseAllowance",
      "outputs": [
        {
          "internalType": "bool",
          "name": "",
          "type": "bool"
        }
      ],
      "stateMutability": "nonpayable",
      "type": "function"
    },
    {
      "inputs": [],
      "name": "defaultOperators",
      "outputs": [
        {
          "internalType": "address[]",
          "name": "",
          "type": "address[]"
        }
      ],
      "stateMutability": "view",
      "type": "function"
    },
    {
      "inputs": [
        {
          "internalType": "address",
          "name": "account",
          "type": "address"
        }
      ],
      "name": "getGrant",
      "outputs": [
        {
          "internalType": "uint256",
          "name": "amount",
          "type": "uint256"
        },
        {
          "internalType": "uint256",
          "name": "startTime",
          "type": "uint256"
        },
        {
          "internalType": "uint256",
          "name": "vestEndTime",
          "type": "uint256"
        },
        {
          "internalType": "uint256",
          "name": "unlockEndTime",
          "type": "uint256"
        },
        {
          "internalType": "uint256",
          "name": "cliff1Time",
          "type": "uint256"
        },
        {
          "internalType": "uint256",
          "name": "cliff2Time",
          "type": "uint256"
        },
        {
          "internalType": "uint256",
          "name": "vestCliff1Amount",
          "type": "uint256"
        },
        {
          "internalType": "uint256",
          "name": "vestCliff2Amount",
          "type": "uint256"
        },
        {
          "internalType": "uint256",
          "name": "unlockCliff1Amount",
          "type": "uint256"
        },
        {
          "internalType": "uint256",
          "name": "unlockCliff2Amount",
          "type": "uint256"
        },
        {
          "internalType": "uint256",
          "name": "claimedAmount",
          "type": "uint256"
        }
      ],
      "stateMutability": "view",
      "type": "function"
    },
    {
      "inputs": [
        {
          "internalType": "bytes32",
          "name": "role",
          "type": "bytes32"
        }
      ],
      "name": "getRoleAdmin",
      "outputs": [
        {
          "internalType": "bytes32",
          "name": "",
          "type": "bytes32"
        }
      ],
      "stateMutability": "view",
      "type": "function"
    },
    {
      "inputs": [
        {
          "internalType": "bytes32",
          "name": "role",
          "type": "bytes32"
        },
        {
          "internalType": "uint256",
          "name": "index",
          "type": "uint256"
        }
      ],
      "name": "getRoleMember",
      "outputs": [
        {
          "internalType": "address",
          "name": "",
          "type": "address"
        }
      ],
      "stateMutability": "view",
      "type": "function"
    },
    {
      "inputs": [
        {
          "internalType": "bytes32",
          "name": "role",
          "type": "bytes32"
        }
      ],
      "name": "getRoleMemberCount",
      "outputs": [
        {
          "internalType": "uint256",
          "name": "",
          "type": "uint256"
        }
      ],
      "stateMutability": "view",
      "type": "function"
    },
    {
      "inputs": [
        {
          "internalType": "bytes32",
          "name": "role",
          "type": "bytes32"
        },
        {
          "internalType": "address",
          "name": "account",
          "type": "address"
        }
      ],
      "name": "grantRole",
      "outputs": [],
      "stateMutability": "nonpayable",
      "type": "function"
    },
    {
      "inputs": [],
      "name": "granularity",
      "outputs": [
        {
          "internalType": "uint256",
          "name": "",
          "type": "uint256"
        }
      ],
      "stateMutability": "view",
      "type": "function"
    },
    {
      "inputs": [
        {
          "internalType": "bytes32",
          "name": "role",
          "type": "bytes32"
        },
        {
          "internalType": "address",
          "name": "account",
          "type": "address"
        }
      ],
      "name": "hasRole",
      "outputs": [
        {
          "internalType": "bool",
          "name": "",
          "type": "bool"
        }
      ],
      "stateMutability": "view",
      "type": "function"
    },
    {
      "inputs": [
        {
          "internalType": "address",
          "name": "spender",
          "type": "address"
        },
        {
          "internalType": "uint256",
          "name": "addedValue",
          "type": "uint256"
        }
      ],
      "name": "increaseAllowance",
      "outputs": [
        {
          "internalType": "bool",
          "name": "",
          "type": "bool"
        }
      ],
      "stateMutability": "nonpayable",
      "type": "function"
    },
    {
      "inputs": [
        {
          "internalType": "string",
          "name": "name",
          "type": "string"
        },
        {
          "internalType": "string",
          "name": "symbol",
          "type": "string"
        }
      ],
      "name": "initialize",
      "outputs": [],
      "stateMutability": "nonpayable",
      "type": "function"
    },
    {
      "inputs": [
        {
          "internalType": "contract IERC777Upgradeable",
          "name": "noriAddress",
          "type": "address"
        }
      ],
      "name": "initialize",
      "outputs": [],
      "stateMutability": "nonpayable",
      "type": "function"
    },
    {
      "inputs": [
        {
          "internalType": "address",
          "name": "operator",
          "type": "address"
        },
        {
          "internalType": "address",
          "name": "tokenHolder",
          "type": "address"
        }
      ],
      "name": "isOperatorFor",
      "outputs": [
        {
          "internalType": "bool",
          "name": "",
          "type": "bool"
        }
      ],
      "stateMutability": "view",
      "type": "function"
    },
    {
      "inputs": [
        {
          "internalType": "address",
          "name": "to",
          "type": "address"
        },
        {
          "internalType": "uint256",
          "name": "amount",
          "type": "uint256"
        }
      ],
      "name": "mint",
      "outputs": [],
      "stateMutability": "nonpayable",
      "type": "function"
    },
    {
      "inputs": [],
      "name": "name",
      "outputs": [
        {
          "internalType": "string",
          "name": "",
          "type": "string"
        }
      ],
      "stateMutability": "view",
      "type": "function"
    },
    {
      "inputs": [
        {
          "internalType": "address",
          "name": "account",
          "type": "address"
        },
        {
          "internalType": "uint256",
          "name": "amount",
          "type": "uint256"
        },
        {
          "internalType": "bytes",
          "name": "data",
          "type": "bytes"
        },
        {
          "internalType": "bytes",
          "name": "operatorData",
          "type": "bytes"
        }
      ],
      "name": "operatorBurn",
      "outputs": [],
      "stateMutability": "nonpayable",
      "type": "function"
    },
    {
      "inputs": [
        {
          "internalType": "address",
          "name": "sender",
          "type": "address"
        },
        {
          "internalType": "address",
          "name": "recipient",
          "type": "address"
        },
        {
          "internalType": "uint256",
          "name": "amount",
          "type": "uint256"
        },
        {
          "internalType": "bytes",
          "name": "data",
          "type": "bytes"
        },
        {
          "internalType": "bytes",
          "name": "operatorData",
          "type": "bytes"
        }
      ],
      "name": "operatorSend",
      "outputs": [],
      "stateMutability": "nonpayable",
      "type": "function"
    },
    {
      "inputs": [],
      "name": "pause",
      "outputs": [],
      "stateMutability": "nonpayable",
      "type": "function"
    },
    {
      "inputs": [],
      "name": "paused",
      "outputs": [
        {
          "internalType": "bool",
          "name": "",
          "type": "bool"
        }
      ],
      "stateMutability": "view",
      "type": "function"
    },
    {
      "inputs": [
        {
          "internalType": "bytes32",
          "name": "role",
          "type": "bytes32"
        },
        {
          "internalType": "address",
          "name": "account",
          "type": "address"
        }
      ],
      "name": "renounceRole",
      "outputs": [],
      "stateMutability": "nonpayable",
      "type": "function"
    },
    {
      "inputs": [
        {
          "internalType": "address",
          "name": "operator",
          "type": "address"
        }
      ],
      "name": "revokeOperator",
      "outputs": [],
      "stateMutability": "nonpayable",
      "type": "function"
    },
    {
      "inputs": [
        {
          "internalType": "bytes32",
          "name": "role",
          "type": "bytes32"
        },
        {
          "internalType": "address",
          "name": "account",
          "type": "address"
        }
      ],
      "name": "revokeRole",
      "outputs": [],
      "stateMutability": "nonpayable",
      "type": "function"
    },
    {
      "inputs": [
        {
          "internalType": "uint256",
          "name": "atTime",
          "type": "uint256"
        },
        {
          "internalType": "address",
          "name": "from",
          "type": "address"
        },
        {
          "internalType": "address",
          "name": "to",
          "type": "address"
        }
      ],
      "name": "revokeUnvestedTokens",
      "outputs": [],
      "stateMutability": "nonpayable",
      "type": "function"
    },
    {
      "inputs": [
        {
          "internalType": "address",
          "name": "recipient",
          "type": "address"
        },
        {
          "internalType": "uint256",
          "name": "amount",
          "type": "uint256"
        },
        {
          "internalType": "bytes",
          "name": "data",
          "type": "bytes"
        }
      ],
      "name": "send",
      "outputs": [],
      "stateMutability": "nonpayable",
      "type": "function"
    },
    {
      "inputs": [
        {
          "internalType": "bytes4",
          "name": "interfaceId",
          "type": "bytes4"
        }
      ],
      "name": "supportsInterface",
      "outputs": [
        {
          "internalType": "bool",
          "name": "",
          "type": "bool"
        }
      ],
      "stateMutability": "view",
      "type": "function"
    },
    {
      "inputs": [],
      "name": "symbol",
      "outputs": [
        {
          "internalType": "string",
          "name": "",
          "type": "string"
        }
      ],
      "stateMutability": "view",
      "type": "function"
    },
    {
      "inputs": [
        {
          "internalType": "address",
          "name": "",
          "type": "address"
        },
        {
          "internalType": "address",
          "name": "",
          "type": "address"
        },
        {
          "internalType": "address",
          "name": "",
          "type": "address"
        },
        {
          "internalType": "uint256",
          "name": "amount",
          "type": "uint256"
        },
        {
          "internalType": "bytes",
          "name": "userData",
          "type": "bytes"
        },
        {
          "internalType": "bytes",
          "name": "operatorData",
          "type": "bytes"
        }
      ],
      "name": "tokensReceived",
      "outputs": [],
      "stateMutability": "nonpayable",
      "type": "function"
    },
    {
      "inputs": [],
      "name": "totalSupply",
      "outputs": [
        {
          "internalType": "uint256",
          "name": "",
          "type": "uint256"
        }
      ],
      "stateMutability": "view",
      "type": "function"
    },
    {
      "inputs": [
        {
          "internalType": "address",
          "name": "recipient",
          "type": "address"
        },
        {
          "internalType": "uint256",
          "name": "amount",
          "type": "uint256"
        }
      ],
      "name": "transfer",
      "outputs": [
        {
          "internalType": "bool",
          "name": "",
          "type": "bool"
        }
      ],
      "stateMutability": "nonpayable",
      "type": "function"
    },
    {
      "inputs": [
        {
          "internalType": "address",
          "name": "holder",
          "type": "address"
        },
        {
          "internalType": "address",
          "name": "recipient",
          "type": "address"
        },
        {
          "internalType": "uint256",
          "name": "amount",
          "type": "uint256"
        }
      ],
      "name": "transferFrom",
      "outputs": [
        {
          "internalType": "bool",
          "name": "",
          "type": "bool"
        }
      ],
      "stateMutability": "nonpayable",
      "type": "function"
    },
    {
      "inputs": [
        {
          "internalType": "address",
          "name": "account",
          "type": "address"
        }
      ],
      "name": "unlockedBalanceOf",
      "outputs": [
        {
          "internalType": "uint256",
          "name": "",
          "type": "uint256"
        }
      ],
      "stateMutability": "view",
      "type": "function"
    },
    {
      "inputs": [],
      "name": "unpause",
      "outputs": [],
      "stateMutability": "nonpayable",
      "type": "function"
    },
    {
      "inputs": [
        {
          "internalType": "address",
          "name": "account",
          "type": "address"
        }
      ],
      "name": "vestedBalanceOf",
      "outputs": [
        {
          "internalType": "uint256",
          "name": "",
          "type": "uint256"
        }
      ],
      "stateMutability": "view",
      "type": "function"
    },
    {
      "inputs": [
        {
          "internalType": "address",
          "name": "account",
          "type": "address"
        },
        {
          "internalType": "uint256",
          "name": "amount",
          "type": "uint256"
        }
      ],
      "name": "withdrawTo",
      "outputs": [
        {
          "internalType": "bool",
          "name": "",
          "type": "bool"
        }
      ],
      "stateMutability": "nonpayable",
      "type": "function"
    }
  ],
  "bytecode": "0x608060405234801561001057600080fd5b50614109806100206000396000f3fe608060405234801561001057600080fd5b50600436106102895760003560e01c806379cc67901161015c578063a9059cbb116100ce578063d95b637111610087578063d95b637114610688578063dd62ed3e1461069b578063e63ab1e9146106ae578063fad8b32a146106c3578063fc673c4f146106d6578063fe9d9303146106e957600080fd5b8063a9059cbb1461052b578063bf31dbf41461053e578063c4d66de814610628578063ca15c8731461063b578063d53913931461064e578063d547741f1461067557600080fd5b8063959b8c3f11610120578063959b8c3f146104cf57806395d89b41146104e25780639bd9bbc6146104ea5780639c9e4cc5146104fd578063a217fddf14610510578063a457c2d71461051857600080fd5b806379cc6790146104635780638456cb591461047657806384955c881461047e5780639010d07c1461049157806391d14854146104bc57600080fd5b8063313ce567116102005780634cd88b76116101b95780634cd88b76146103f0578063556f0dc7146104035780635c975abb1461040a57806362ad1b8314610416578063633d9be01461042957806370a082311461045057600080fd5b8063313ce5671461038d57806336568abe1461039c57806339509351146103af5780633f4ba83a146103c257806340c10f19146103ca57806342966c68146103dd57600080fd5b80630e2d1a2a116102525780630e2d1a2a1461030857806318160ddd14610329578063205c28781461033157806323b872dd14610344578063248a9ca3146103575780632f2ff15d1461037a57600080fd5b806223de291461028e57806301ffc9a7146102a357806306e48538146102cb57806306fdde03146102e0578063095ea7b3146102f5575b600080fd5b6102a161029c3660046136a8565b6106fc565b005b6102b66102b1366004613759565b61078c565b60405190151581526020015b60405180910390f35b6102d36107b7565b6040516102c29190613783565b6102e8610819565b6040516102c29190613828565b6102b661030336600461383b565b610828565b61031b610316366004613867565b61083b565b6040519081526020016102c2565b61031b610847565b6102b661033f36600461383b565b610852565b6102b6610352366004613884565b61096f565b61031b6103653660046138c5565b60009081526065602052604090206001015490565b6102a16103883660046138de565b610984565b604051601281526020016102c2565b6102a16103aa3660046138de565b6109af565b6102b66103bd36600461383b565b610a2d565b6102a1610a72565b6102a16103d836600461383b565b610b06565b6102a16103eb3660046138c5565b610ba5565b6102a16103fe3660046139b1565b610bb2565b600161031b565b61015f5460ff166102b6565b6102a1610424366004613a15565b610c2f565b61031b7fa52f07bb8dc8df886598eb50edeaba2b8e45715237ed244354b60ea04d0390b881565b61031b61045e366004613867565b610c6b565b6102a161047136600461383b565b610c89565b6102a1610d0a565b61031b61048c366004613867565b610d9c565b6104a461049f366004613aa8565b610df9565b6040516001600160a01b0390911681526020016102c2565b6102b66104ca3660046138de565b610e11565b6102a16104dd366004613867565b610e3c565b6102e8610f5a565b6102a16104f8366004613aca565b610f64565b6102a161050b366004613b23565b610f82565b61031b600081565b6102b661052636600461383b565b6110d2565b6102b661053936600461383b565b61116b565b6105d561054c366004613867565b6001600160a01b031660009081526101f560209081526040808320600a8101546005820154600180840154600685015488805260088601808952878a208054858c52898c2080548d805260038b018d528b8e20880154888f529b909d2087015493909b52908501549990940154600b90970154959a949992989197939692959394909391929190565b604080519b8c5260208c019a909a52988a01979097526060890195909552608088019390935260a087019190915260c086015260e0850152610100840152610120830152610140820152610160016102c2565b6102a1610636366004613867565b611177565b61031b6106493660046138c5565b6113d2565b61031b7f9f2df0fed2c77648de5860a4cc508cd0818c85b8b8a1ab4ceeef8d981c8956a681565b6102a16106833660046138de565b6113e9565b6102b6610696366004613b65565b61140f565b61031b6106a9366004613b65565b6114b0565b61031b60008051602061409483398151915281565b6102a16106d1366004613867565b6114dd565b6102a16106e4366004613b93565b6115f9565b6102a16106f7366004613c13565b611631565b6101f6546001600160a01b031633146107745760405162461bcd60e51b815260206004820152602f60248201527f4c6f636b65644e4f52493a205468697320636f6e74726163742063616e206f6e60448201526e6c792072656365697665204e4f524960881b60648201526084015b60405180910390fd5b610781858585858561164c565b505050505050505050565b60006001600160e01b03198216635a05180f60e01b14806107b157506107b1826116c4565b92915050565b606060cd80548060200260200160405190810160405280929190818152602001828054801561080f57602002820191906000526020600020905b81546001600160a01b031681526001909101906020018083116107f1575b5050505050905090565b60606108236116f9565b905090565b60006108348383611782565b9392505050565b60006107b14283611790565b600061082360ca5490565b6001600160a01b03821660009081526101f560205260408120610895338460405180602001604052806000815250604051806020016040528060008152506117fc565b6101f654604051634decdde360e11b81526001600160a01b03868116600483015260248201869052606060448301526000606483015290911690639bd9bbc690608401600060405180830381600087803b1580156108f257600080fd5b505af1158015610906573d6000803e3d6000fd5b505050508281600b01600082825461091e9190613c66565b9091555050604080516001600160a01b0386168152602081018590527f896e034966eaaf1adc54acc0f257056febbd300c9e47182cf761982cf1f5e430910160405180910390a15060019392505050565b600061097c8484846119ac565b949350505050565b6000828152606560205260409020600101546109a08133611b6e565b6109aa8383611bd2565b505050565b6001600160a01b0381163314610a1f5760405162461bcd60e51b815260206004820152602f60248201527f416363657373436f6e74726f6c3a2063616e206f6e6c792072656e6f756e636560448201526e103937b632b9903337b91039b2b63360891b606482015260840161076b565b610a298282611bf4565b5050565b33600081815260fc602090815260408083206001600160a01b03871684529091528120549091610a69918590610a64908690613c66565b611c16565b50600192915050565b610a8a60008051602061409483398151915233610e11565b610afc5760405162461bcd60e51b815260206004820152603960248201527f45524332305072657365744d696e7465725061757365723a206d75737420686160448201527f76652070617573657220726f6c6520746f20756e706175736500000000000000606482015260840161076b565b610b04611c21565b565b610b307f9f2df0fed2c77648de5860a4cc508cd0818c85b8b8a1ab4ceeef8d981c8956a633610e11565b610b9b5760405162461bcd60e51b815260206004820152603660248201527f45524332305072657365744d696e7465725061757365723a206d7573742068616044820152751d99481b5a5b9d195c881c9bdb19481d1bc81b5a5b9d60521b606482015260840161076b565b610a298282611cb6565b610baf3382611d8f565b50565b600054610100900460ff16610bcd5760005460ff1615610bd1565b303b155b610bed5760405162461bcd60e51b815260040161076b90613c7e565b600054610100900460ff16158015610c0f576000805461ffff19166101011790555b610c198383611ed7565b80156109aa576000805461ff0019169055505050565b610c39338661140f565b610c555760405162461bcd60e51b815260040161076b90613ccc565b610c6485858585856001611f4a565b5050505050565b6001600160a01b038116600090815260c960205260408120546107b1565b6000610c9583336114b0565b905081811015610cf35760405162461bcd60e51b8152602060048201526024808201527f45524332303a206275726e20616d6f756e74206578636565647320616c6c6f77604482015263616e636560e01b606482015260840161076b565b610d008333848403611c16565b6109aa8383611d8f565b610d2260008051602061409483398151915233610e11565b610d945760405162461bcd60e51b815260206004820152603760248201527f45524332305072657365744d696e7465725061757365723a206d75737420686160448201527f76652070617573657220726f6c6520746f207061757365000000000000000000606482015260840161076b565b610b04612036565b6001600160a01b03811660009081526101f560205260408120600c81015460ff1615610df057600b810154610de6610dd48342612090565b610de16005850142612090565b6120b0565b6108349190613d18565b50600092915050565b600082815260976020526040812061083490836120c6565b60009182526065602090815260408084206001600160a01b0393909316845291905290205460ff1690565b336001600160a01b0382161415610ea15760405162461bcd60e51b8152602060048201526024808201527f4552433737373a20617574686f72697a696e672073656c66206173206f70657260448201526330ba37b960e11b606482015260840161076b565b6001600160a01b038116600090815260ce602052604090205460ff1615610ef25733600090815260d0602090815260408083206001600160a01b03851684529091529020805460ff19169055610f21565b33600090815260cf602090815260408083206001600160a01b03851684529091529020805460ff191660011790555b60405133906001600160a01b038316907ff4caeb2d6ca8932a215a353d0703c326ec2d81fc68170f320eb2ab49e9df61f990600090a350565b60606108236120d2565b6109aa33848484604051806020016040528060008152506001611f4a565b7fa52f07bb8dc8df886598eb50edeaba2b8e45715237ed244354b60ea04d0390b8610fad8133611b6e565b61015f5460ff1615610fd15760405162461bcd60e51b815260040161076b90613d2f565b6001600160a01b03831660009081526101f560205260409020600c81015460ff1661102f5760405162461bcd60e51b815260206004820152600e60248201526d139bc819dc985b9d08195e1a5cdd60921b604482015260640161076b565b600061103b8686611790565b905081600a01548110156110ca5760008183600a015461105b9190613d18565b600a84018390556002840183905560078401839055604080518981526001600160a01b03891660208201529081018290529091507f0bbe3f9ae306d75ae6df08cd4a79ac5c6eae93ffae7d7e52f2859bf27592519d9060600160405180910390a16110c786868361096f565b50505b505050505050565b33600090815260fc602090815260408083206001600160a01b0386168452909152812054828110156111545760405162461bcd60e51b815260206004820152602560248201527f45524332303a2064656372656173656420616c6c6f77616e63652062656c6f77604482015264207a65726f60d81b606482015260840161076b565b6111613385858403611c16565b5060019392505050565b600061083483836120e1565b600054610100900460ff166111925760005460ff1615611196565b303b155b6111b25760405162461bcd60e51b815260040161076b90613c7e565b600054610100900460ff161580156111d4576000805461ffff19166101011790555b6111dc612194565b6111e4612194565b6111ec612194565b6111f4612194565b6111fc612194565b6112046121bb565b61120c612194565b6112566040518060400160405280600b81526020016a4c6f636b6564204e4f524960a81b815250604051806040016040528060058152602001646c4e4f524960d81b8152506121ef565b60408051600180825281830190925260009160208083019080368337019050509050338160008151811061128c5761128c613d59565b60200260200101906001600160a01b031690816001600160a01b0316815250506112f76040518060400160405280600b81526020016a4c6f636b6564204e4f524960a81b815250604051806040016040528060058152602001646c4e4f524960d81b81525083612263565b61130260003361244d565b6101f680546001600160a01b03199081166001600160a01b038616179091556101f78054731820a4b7618bde71dce8cdc73aab6c95905fad249216821790556040516329965a1d60e01b815230600482018190527fb281fc8c12954d22544db45de3159a39272895b169a852b314f9cc762e44c53b602483015260448201526329965a1d90606401600060405180830381600087803b1580156113a457600080fd5b505af11580156113b8573d6000803e3d6000fd5b50505050508015610a29576000805461ff00191690555050565b60008181526097602052604081206107b190612457565b6000828152606560205260409020600101546114058133611b6e565b6109aa8383611bf4565b6000816001600160a01b0316836001600160a01b0316148061147a57506001600160a01b038316600090815260ce602052604090205460ff16801561147a57506001600160a01b03808316600090815260d0602090815260408083209387168352929052205460ff16155b806108345750506001600160a01b03908116600090815260cf602090815260408083209490931682529290925290205460ff1690565b6001600160a01b03808316600090815260d160209081526040808320938516835292905290812054610834565b6001600160a01b0381163314156115405760405162461bcd60e51b815260206004820152602160248201527f4552433737373a207265766f6b696e672073656c66206173206f70657261746f6044820152603960f91b606482015260840161076b565b6001600160a01b038116600090815260ce602052604090205460ff16156115945733600090815260d0602090815260408083206001600160a01b03851684529091529020805460ff191660011790556115c0565b33600090815260cf602090815260408083206001600160a01b03851684529091529020805460ff191690555b60405133906001600160a01b038316907f50546e66e5f44d728365dc3908c63bc5cfeeab470722c1677e3073a6ac294aa190600090a350565b611603338561140f565b61161f5760405162461bcd60e51b815260040161076b90613ccc565b61162b848484846117fc565b50505050565b610a29338383604051806020016040528060008152506117fc565b60008061165b85870187613867565b90506116ac818888888080601f016020809104026020016040519081016040528093929190818152602001838380828437600092018290525060408051602081019091529081529250612461915050565b6116b787878761246f565b5060019695505050505050565b60006001600160e01b03198216637965db0b60e01b14806107b157506301ffc9a760e01b6001600160e01b03198316146107b1565b606060cb805461170890613d6f565b80601f016020809104026020016040519081016040528092919081815260200182805461173490613d6f565b801561080f5780601f106117565761010080835404028352916020019161080f565b820191906000526020600020905b81548152906001019060200180831161176457509395945050505050565b600033611161818585611c16565b6001600160a01b03811660009081526101f560205260408120600c81015460ff16156117f2578054156117de57600b8101546117cc8286612090565b6117d69190613d18565b9150506107b1565b80600b015481600a01546117d69190613d18565b5060009392505050565b6001600160a01b03841661185d5760405162461bcd60e51b815260206004820152602260248201527f4552433737373a206275726e2066726f6d20746865207a65726f206164647265604482015261737360f01b606482015260840161076b565b3361186d81866000878787612610565b61187a8186600087612737565b6001600160a01b038516600090815260c96020526040902054848110156118ef5760405162461bcd60e51b815260206004820152602360248201527f4552433737373a206275726e20616d6f756e7420657863656564732062616c616044820152626e636560e81b606482015260840161076b565b6001600160a01b038616600090815260c960205260408120868303905560ca805487929061191e908490613d18565b92505081905550856001600160a01b0316826001600160a01b03167fa78a9be3a7b862d26933ad85fb11d80ef66b8f972d7cbba06621d583943a409887878760405161196c93929190613daa565b60405180910390a36040518581526000906001600160a01b038816906000805160206140b4833981519152906020015b60405180910390a3505050505050565b60006001600160a01b0383166119d45760405162461bcd60e51b815260040161076b90613ddf565b6001600160a01b038416611a395760405162461bcd60e51b815260206004820152602660248201527f4552433737373a207472616e736665722066726f6d20746865207a65726f206160448201526564647265737360d01b606482015260840161076b565b6000339050611a6a818686866040518060200160405280600081525060405180602001604052806000815250612610565b6001600160a01b03808616600090815260d160209081526040808320938516835292905220546000198114611b085783811015611afb5760405162461bcd60e51b815260206004820152602960248201527f4552433737373a207472616e7366657220616d6f756e74206578636565647320604482015268616c6c6f77616e636560b81b606482015260840161076b565b611b088683868403611c16565b611b348287878760405180602001604052806000815250604051806020016040528060008152506127af565b611b62828787876040518060200160405280600081525060405180602001604052806000815250600061290f565b50600195945050505050565b611b788282610e11565b610a2957611b90816001600160a01b03166014612aca565b611b9b836020612aca565b604051602001611bac929190613e23565b60408051601f198184030181529082905262461bcd60e51b825261076b91600401613828565b611bdc8282612c66565b60008281526097602052604090206109aa9082612cec565b611bfe8282612d01565b60008281526097602052604090206109aa9082612d68565b6109aa838383612d7d565b61015f5460ff16611c6b5760405162461bcd60e51b815260206004820152601460248201527314185d5cd8589b194e881b9bdd081c185d5cd95960621b604482015260640161076b565b61015f805460ff191690557f5db9ee0a495bf2e6ff9c91a7834c1ba4fdd244a5e8aa4e537bd38aeae4b073aa335b6040516001600160a01b03909116815260200160405180910390a1565b6001600160a01b038216611d0c5760405162461bcd60e51b815260206004820152601f60248201527f45524332303a206d696e7420746f20746865207a65726f206164647265737300604482015260640161076b565b611d1860008383612ea4565b8060fd6000828254611d2a9190613c66565b90915550506001600160a01b038216600090815260fb602052604081208054839290611d57908490613c66565b90915550506040518181526001600160a01b038316906000906000805160206140b48339815191529060200160405180910390a35050565b6001600160a01b038216611def5760405162461bcd60e51b815260206004820152602160248201527f45524332303a206275726e2066726f6d20746865207a65726f206164647265736044820152607360f81b606482015260840161076b565b611dfb82600083612ea4565b6001600160a01b038216600090815260fb602052604090205481811015611e6f5760405162461bcd60e51b815260206004820152602260248201527f45524332303a206275726e20616d6f756e7420657863656564732062616c616e604482015261636560f01b606482015260840161076b565b6001600160a01b038316600090815260fb60205260408120838303905560fd8054849290611e9e908490613d18565b90915550506040518281526000906001600160a01b038516906000805160206140b48339815191529060200160405180910390a3505050565b600054610100900460ff16611efe5760405162461bcd60e51b815260040161076b90613e98565b611f06612194565b611f0e612194565b611f16612194565b611f1e612194565b611f288282612eaf565b611f30612194565b611f386121bb565b611f40612194565b610a2982826121ef565b6001600160a01b038616611fab5760405162461bcd60e51b815260206004820152602260248201527f4552433737373a2073656e642066726f6d20746865207a65726f206164647265604482015261737360f01b606482015260840161076b565b6001600160a01b0385166120015760405162461bcd60e51b815260206004820181905260248201527f4552433737373a2073656e6420746f20746865207a65726f2061646472657373604482015260640161076b565b33612010818888888888612610565b61201e8188888888886127af565b61202d8188888888888861290f565b50505050505050565b61015f5460ff161561205a5760405162461bcd60e51b815260040161076b90613d2f565b61015f805460ff191660011790557f62e78cea01bee320cd4e420270b5ea74000d11b0c9f74754ebdbfc544b05a258611c993390565b600061209c8383612efd565b6120a68484612fcb565b6108349190613c66565b60008183106120bf5781610834565b5090919050565b60006108348383613035565b606060cc805461170890613d6f565b60006001600160a01b0383166121095760405162461bcd60e51b815260040161076b90613ddf565b600033905061213a818286866040518060200160405280600081525060405180602001604052806000815250612610565b6121668182868660405180602001604052806000815250604051806020016040528060008152506127af565b611161818286866040518060200160405280600081525060405180602001604052806000815250600061290f565b600054610100900460ff16610b045760405162461bcd60e51b815260040161076b90613e98565b600054610100900460ff166121e25760405162461bcd60e51b815260040161076b90613e98565b61015f805460ff19169055565b600054610100900460ff166122165760405162461bcd60e51b815260040161076b90613e98565b61222160003361244d565b61224b7f9f2df0fed2c77648de5860a4cc508cd0818c85b8b8a1ab4ceeef8d981c8956a63361244d565b610a296000805160206140948339815191523361244d565b600054610100900460ff1661228a5760405162461bcd60e51b815260040161076b90613e98565b825161229d9060cb90602086019061355c565b5081516122b19060cc90602085019061355c565b5080516122c59060cd9060208401906135e0565b5060005b815181101561232e57600160ce60008484815181106122ea576122ea613d59565b6020908102919091018101516001600160a01b03168252810191909152604001600020805460ff19169115159190911790558061232681613ee3565b9150506122c9565b506040516329965a1d60e01b815230600482018190527fac7fbab5f54a3ca8194167523c6753bfeb96a445279294b6125b68cce217705460248301526044820152731820a4b7618bde71dce8cdc73aab6c95905fad24906329965a1d90606401600060405180830381600087803b1580156123a857600080fd5b505af11580156123bc573d6000803e3d6000fd5b50506040516329965a1d60e01b815230600482018190527faea199e31a596269b42cdafd93407f14436db6e4cad65417994c2eb37381e05a60248301526044820152731820a4b7618bde71dce8cdc73aab6c95905fad2492506329965a1d9150606401600060405180830381600087803b15801561243957600080fd5b505af115801561202d573d6000803e3d6000fd5b610a298282611bd2565b60006107b1825490565b61162b84848484600161305f565b61015f5460ff16156124935760405162461bcd60e51b815260040161076b90613d2f565b60008080808080808080806124aa8b8d018d613efe565b995099509950995099509950995099509950995060006001600160a01b03168a6001600160a01b031614156125215760405162461bcd60e51b815260206004820181905260248201527f526563697069656e742063616e6e6f74206265207a65726f2061646472657373604482015260640161076b565b6001600160a01b038a1660009081526101f560205260409020600a81018e9055600c8101805460ff191660011790558989111561257f57600281018e905589815560018101899055612574818887613193565b61257f818786613193565b600781018e9055600581018a81556006820189905561259f908885613193565b6125ad600582018784613193565b604080518f8152602081018c90529081018a9052606081018990526001600160a01b038c16907f17161516b6ce34594617177a800b150a86ddee02c06993a73ef000a02367d1199060800160405180910390a25050505050505050505050505050565b60405163555ddc6560e11b81526001600160a01b03861660048201527f29ddb589b1fb5fc7cf394961c1adf5f8c6454761adf795e67fe149f658abe8956024820152600090731820a4b7618bde71dce8cdc73aab6c95905fad249063aabbb8ca90604401602060405180830381865afa158015612691573d6000803e3d6000fd5b505050506040513d601f19601f820116820180604052508101906126b59190613f6f565b90506001600160a01b0381161561202d57604051633ad5cbc160e11b81526001600160a01b038216906375ab9782906126fc908a908a908a908a908a908a90600401613f8c565b600060405180830381600087803b15801561271657600080fd5b505af115801561272a573d6000803e3d6000fd5b5050505050505050505050565b6001600160a01b0382166127a457600061275084610d9c565b9050808211156127a25760405162461bcd60e51b815260206004820152601c60248201527f57697468647261776c20616d6f756e7420756e617661696c61626c6500000000604482015260640161076b565b505b61162b838383612ea4565b6127bb86868686612737565b6001600160a01b038516600090815260c96020526040902054838110156128345760405162461bcd60e51b815260206004820152602760248201527f4552433737373a207472616e7366657220616d6f756e7420657863656564732060448201526662616c616e636560c81b606482015260840161076b565b6001600160a01b03808716600090815260c9602052604080822087850390559187168152908120805486929061286b908490613c66565b92505081905550846001600160a01b0316866001600160a01b0316886001600160a01b03167f06b541ddaa720db2b10a4d0cdac39b8d360425fc073085fac19bc826146779878787876040516128c393929190613daa565b60405180910390a4846001600160a01b0316866001600160a01b03166000805160206140b4833981519152866040516128fe91815260200190565b60405180910390a350505050505050565b60405163555ddc6560e11b81526001600160a01b03861660048201527fb281fc8c12954d22544db45de3159a39272895b169a852b314f9cc762e44c53b6024820152600090731820a4b7618bde71dce8cdc73aab6c95905fad249063aabbb8ca90604401602060405180830381865afa158015612990573d6000803e3d6000fd5b505050506040513d601f19601f820116820180604052508101906129b49190613f6f565b90506001600160a01b03811615612a30576040516223de2960e01b81526001600160a01b038216906223de29906129f9908b908b908b908b908b908b90600401613f8c565b600060405180830381600087803b158015612a1357600080fd5b505af1158015612a27573d6000803e3d6000fd5b505050506110c7565b81156110c7576001600160a01b0386163b156110c75760405162461bcd60e51b815260206004820152604d60248201527f4552433737373a20746f6b656e20726563697069656e7420636f6e747261637460448201527f20686173206e6f20696d706c656d656e74657220666f7220455243373737546f60648201526c1ad95b9cd49958da5c1a595b9d609a1b608482015260a40161076b565b60606000612ad9836002613fe6565b612ae4906002613c66565b67ffffffffffffffff811115612afc57612afc61390e565b6040519080825280601f01601f191660200182016040528015612b26576020820181803683370190505b509050600360fc1b81600081518110612b4157612b41613d59565b60200101906001600160f81b031916908160001a905350600f60fb1b81600181518110612b7057612b70613d59565b60200101906001600160f81b031916908160001a9053506000612b94846002613fe6565b612b9f906001613c66565b90505b6001811115612c17576f181899199a1a9b1b9c1cb0b131b232b360811b85600f1660108110612bd357612bd3613d59565b1a60f81b828281518110612be957612be9613d59565b60200101906001600160f81b031916908160001a90535060049490941c93612c1081614005565b9050612ba2565b5083156108345760405162461bcd60e51b815260206004820181905260248201527f537472696e67733a20686578206c656e67746820696e73756666696369656e74604482015260640161076b565b612c708282610e11565b610a295760008281526065602090815260408083206001600160a01b03851684529091529020805460ff19166001179055612ca83390565b6001600160a01b0316816001600160a01b0316837f2f8788117e7eff1d82e926ec794901d17c78024a50270940304540a733656f0d60405160405180910390a45050565b6000610834836001600160a01b038416613368565b612d0b8282610e11565b15610a295760008281526065602090815260408083206001600160a01b0385168085529252808320805460ff1916905551339285917ff6391f5c32d9c69d2a47ea670b442974b53935d1edc7fd64eb21e047a839171b9190a45050565b6000610834836001600160a01b0384166133b7565b6001600160a01b038316612de15760405162461bcd60e51b815260206004820152602560248201527f4552433737373a20617070726f76652066726f6d20746865207a65726f206164604482015264647265737360d81b606482015260840161076b565b6001600160a01b038216612e435760405162461bcd60e51b815260206004820152602360248201527f4552433737373a20617070726f766520746f20746865207a65726f206164647260448201526265737360e81b606482015260840161076b565b6001600160a01b03838116600081815260d1602090815260408083209487168084529482529182902085905590518481527f8c5be1e5ebec7d5bd14f71427d1e84f3dd0314c0f7b2291e5b200ac8c7c3b925910160405180910390a3505050565b6109aa8383836134aa565b600054610100900460ff16612ed65760405162461bcd60e51b815260040161076b90613e98565b8151612ee99060fe90602085019061355c565b5080516109aa9060ff90602084019061355c565b600080612f0984613511565b846002015410612f2e57612f1c84613511565b8460020154612f2b9190613d18565b90505b83600101548310612f405790506107b1565b8354600485015415612f785784600301600060018760040154612f639190613d18565b81526020019081526020016000206000015490505b6000818660010154612f8a9190613d18565b90506000612f98838761401c565b90506000811315612fbd5781612fae8286613fe6565b612fb8919061405b565b612fc0565b60005b979650505050505050565b600080805b846004015481101561302657600081815260038601602052604090205484106130145760008181526003860160205260409020600101546130119083613c66565b91505b8061301e81613ee3565b915050612fd0565b5061097c8460020154826120b0565b600082600001828154811061304c5761304c613d59565b9060005260206000200154905092915050565b6001600160a01b0385166130b55760405162461bcd60e51b815260206004820181905260248201527f4552433737373a206d696e7420746f20746865207a65726f2061646472657373604482015260640161076b565b336130c38160008888612737565b8460ca60008282546130d59190613c66565b90915550506001600160a01b038616600090815260c9602052604081208054879290613102908490613c66565b909155506131189050816000888888888861290f565b856001600160a01b0316816001600160a01b03167f2fe5be0146f74c5bce36c0b80911af6c7d86ff27e89d5cfa61fc681327954e5d87878760405161315f93929190613daa565b60405180910390a36040518581526001600160a01b038716906000906000805160206140b48339815191529060200161199c565b60048301546131f25782548210156131ed5760405162461bcd60e51b815260206004820152601b60248201527f436c696666206265666f7265207363686564756c652073746172740000000000604482015260640161076b565b61326a565b826003016000600185600401546132099190613d18565b81526020019081526020016000206000015482101561326a5760405162461bcd60e51b815260206004820152601860248201527f436c69666673206e6f74206368726f6e6f6c6f676963616c0000000000000000604482015260640161076b565b82600101548211156132be5760405162461bcd60e51b815260206004820181905260248201527f436c696666732063616e6e6f7420656e64206166746572207363686564756c65604482015260640161076b565b8260020154816132cd85613511565b6132d79190613c66565b11156133255760405162461bcd60e51b815260206004820152601a60248201527f636c69666620616d6f756e74732065786365656420746f74616c000000000000604482015260640161076b565b6004830180546000908152600385016020526040808220859055825482528120600190810184905582549092919061335e908490613c66565b9091555050505050565b60008181526001830160205260408120546133af575081546001818101845560008481526020808220909301849055845484825282860190935260409020919091556107b1565b5060006107b1565b600081815260018301602052604081205480156134a05760006133db600183613d18565b85549091506000906133ef90600190613d18565b905081811461345457600086600001828154811061340f5761340f613d59565b906000526020600020015490508087600001848154811061343257613432613d59565b6000918252602080832090910192909255918252600188019052604090208390555b85548690806134655761346561407d565b6001900381819060005260206000200160009055905585600101600086815260200190815260200160002060009055600193505050506107b1565b60009150506107b1565b61015f5460ff16156109aa5760405162461bcd60e51b815260206004820152602a60248201527f45524332305061757361626c653a20746f6b656e207472616e736665722077686044820152691a5b19481c185d5cd95960b21b606482015260840161076b565b60008060005b83600401548110156135555760008181526003850160205260409020600101546135419083613c66565b91508061354d81613ee3565b915050613517565b5092915050565b82805461356890613d6f565b90600052602060002090601f01602090048101928261358a57600085556135d0565b82601f106135a357805160ff19168380011785556135d0565b828001600101855582156135d0579182015b828111156135d05782518255916020019190600101906135b5565b506135dc929150613635565b5090565b8280548282559060005260206000209081019282156135d0579160200282015b828111156135d057825182546001600160a01b0319166001600160a01b03909116178255602090920191600190910190613600565b5b808211156135dc5760008155600101613636565b6001600160a01b0381168114610baf57600080fd5b60008083601f84011261367157600080fd5b50813567ffffffffffffffff81111561368957600080fd5b6020830191508360208285010111156136a157600080fd5b9250929050565b60008060008060008060008060c0898b0312156136c457600080fd5b88356136cf8161364a565b975060208901356136df8161364a565b965060408901356136ef8161364a565b955060608901359450608089013567ffffffffffffffff8082111561371357600080fd5b61371f8c838d0161365f565b909650945060a08b013591508082111561373857600080fd5b506137458b828c0161365f565b999c989b5096995094979396929594505050565b60006020828403121561376b57600080fd5b81356001600160e01b03198116811461083457600080fd5b6020808252825182820181905260009190848201906040850190845b818110156137c45783516001600160a01b03168352928401929184019160010161379f565b50909695505050505050565b60005b838110156137eb5781810151838201526020016137d3565b8381111561162b5750506000910152565b600081518084526138148160208601602086016137d0565b601f01601f19169290920160200192915050565b60208152600061083460208301846137fc565b6000806040838503121561384e57600080fd5b82356138598161364a565b946020939093013593505050565b60006020828403121561387957600080fd5b81356108348161364a565b60008060006060848603121561389957600080fd5b83356138a48161364a565b925060208401356138b48161364a565b929592945050506040919091013590565b6000602082840312156138d757600080fd5b5035919050565b600080604083850312156138f157600080fd5b8235915060208301356139038161364a565b809150509250929050565b634e487b7160e01b600052604160045260246000fd5b600082601f83011261393557600080fd5b813567ffffffffffffffff808211156139505761395061390e565b604051601f8301601f19908116603f011681019082821181831017156139785761397861390e565b8160405283815286602085880101111561399157600080fd5b836020870160208301376000602085830101528094505050505092915050565b600080604083850312156139c457600080fd5b823567ffffffffffffffff808211156139dc57600080fd5b6139e886838701613924565b935060208501359150808211156139fe57600080fd5b50613a0b85828601613924565b9150509250929050565b600080600080600060a08688031215613a2d57600080fd5b8535613a388161364a565b94506020860135613a488161364a565b935060408601359250606086013567ffffffffffffffff80821115613a6c57600080fd5b613a7889838a01613924565b93506080880135915080821115613a8e57600080fd5b50613a9b88828901613924565b9150509295509295909350565b60008060408385031215613abb57600080fd5b50508035926020909101359150565b600080600060608486031215613adf57600080fd5b8335613aea8161364a565b925060208401359150604084013567ffffffffffffffff811115613b0d57600080fd5b613b1986828701613924565b9150509250925092565b600080600060608486031215613b3857600080fd5b833592506020840135613b4a8161364a565b91506040840135613b5a8161364a565b809150509250925092565b60008060408385031215613b7857600080fd5b8235613b838161364a565b915060208301356139038161364a565b60008060008060808587031215613ba957600080fd5b8435613bb48161364a565b935060208501359250604085013567ffffffffffffffff80821115613bd857600080fd5b613be488838901613924565b93506060870135915080821115613bfa57600080fd5b50613c0787828801613924565b91505092959194509250565b60008060408385031215613c2657600080fd5b82359150602083013567ffffffffffffffff811115613c4457600080fd5b613a0b85828601613924565b634e487b7160e01b600052601160045260246000fd5b60008219821115613c7957613c79613c50565b500190565b6020808252602e908201527f496e697469616c697a61626c653a20636f6e747261637420697320616c72656160408201526d191e481a5b9a5d1a585b1a5e995960921b606082015260800190565b6020808252602c908201527f4552433737373a2063616c6c6572206973206e6f7420616e206f70657261746f60408201526b39103337b9103437b63232b960a11b606082015260800190565b600082821015613d2a57613d2a613c50565b500390565b60208082526010908201526f14185d5cd8589b194e881c185d5cd95960821b604082015260600190565b634e487b7160e01b600052603260045260246000fd5b600181811c90821680613d8357607f821691505b60208210811415613da457634e487b7160e01b600052602260045260246000fd5b50919050565b838152606060208201526000613dc360608301856137fc565b8281036040840152613dd581856137fc565b9695505050505050565b60208082526024908201527f4552433737373a207472616e7366657220746f20746865207a65726f206164646040820152637265737360e01b606082015260800190565b7f416363657373436f6e74726f6c3a206163636f756e7420000000000000000000815260008351613e5b8160178501602088016137d0565b7001034b99036b4b9b9b4b733903937b6329607d1b6017918401918201528351613e8c8160288401602088016137d0565b01602801949350505050565b6020808252602b908201527f496e697469616c697a61626c653a20636f6e7472616374206973206e6f74206960408201526a6e697469616c697a696e6760a81b606082015260800190565b6000600019821415613ef757613ef7613c50565b5060010190565b6000806000806000806000806000806101408b8d031215613f1e57600080fd5b8a35613f298161364a565b9c60208c01359c5060408c01359b60608101359b5060808101359a5060a0810135995060c0810135985060e0810135975061010081013596506101200135945092505050565b600060208284031215613f8157600080fd5b81516108348161364a565b6001600160a01b0387811682528681166020830152851660408201526060810184905260c060808201819052600090613fc7908301856137fc565b82810360a0840152613fd981856137fc565b9998505050505050505050565b600081600019048311821515161561400057614000613c50565b500290565b60008161401457614014613c50565b506000190190565b60008083128015600160ff1b85018412161561403a5761403a613c50565b6001600160ff1b038401831381161561405557614055613c50565b50500390565b60008261407857634e487b7160e01b600052601260045260246000fd5b500490565b634e487b7160e01b600052603160045260246000fdfe65d7a28e3265b37a6474929f336521b332c1681b933f6cb9f3376673440d862addf252ad1be2c89b69c2b068fc378daa952ba7f163c4a11628f55a4df523b3efa2646970667358221220bac64cd0724c738b3d5be7d8dfcefc3d9333fcb70195120ca4a12bb1116f34e164736f6c634300080a0033",
  "linkReferences": {},
  "deployedLinkReferences": {}
}