{
  "_format": "hh-sol-artifact-1",
  "contractName": "LockedNORI",
  "sourceName": "contracts/LockedNORI.sol",
  "abi": [
    {
      "anonymous": false,
      "inputs": [
        {
          "indexed": true,
          "internalType": "address",
          "name": "owner",
          "type": "address"
        },
        {
          "indexed": true,
          "internalType": "address",
          "name": "spender",
          "type": "address"
        },
        {
          "indexed": false,
          "internalType": "uint256",
          "name": "value",
          "type": "uint256"
        }
      ],
      "name": "Approval",
      "type": "event"
    },
    {
      "anonymous": false,
      "inputs": [
        {
          "indexed": true,
          "internalType": "address",
          "name": "operator",
          "type": "address"
        },
        {
          "indexed": true,
          "internalType": "address",
          "name": "tokenHolder",
          "type": "address"
        }
      ],
      "name": "AuthorizedOperator",
      "type": "event"
    },
    {
      "anonymous": false,
      "inputs": [
        {
          "indexed": true,
          "internalType": "address",
          "name": "operator",
          "type": "address"
        },
        {
          "indexed": true,
          "internalType": "address",
          "name": "from",
          "type": "address"
        },
        {
          "indexed": false,
          "internalType": "uint256",
          "name": "amount",
          "type": "uint256"
        },
        {
          "indexed": false,
          "internalType": "bytes",
          "name": "data",
          "type": "bytes"
        },
        {
          "indexed": false,
          "internalType": "bytes",
          "name": "operatorData",
          "type": "bytes"
        }
      ],
      "name": "Burned",
      "type": "event"
    },
    {
      "anonymous": false,
      "inputs": [
        {
          "indexed": true,
          "internalType": "address",
          "name": "operator",
          "type": "address"
        },
        {
          "indexed": true,
          "internalType": "address",
          "name": "to",
          "type": "address"
        },
        {
          "indexed": false,
          "internalType": "uint256",
          "name": "amount",
          "type": "uint256"
        },
        {
          "indexed": false,
          "internalType": "bytes",
          "name": "data",
          "type": "bytes"
        },
        {
          "indexed": false,
          "internalType": "bytes",
          "name": "operatorData",
          "type": "bytes"
        }
      ],
      "name": "Minted",
      "type": "event"
    },
    {
      "anonymous": false,
      "inputs": [
        {
          "indexed": false,
          "internalType": "address",
          "name": "account",
          "type": "address"
        }
      ],
      "name": "Paused",
      "type": "event"
    },
    {
      "anonymous": false,
      "inputs": [
        {
          "indexed": true,
          "internalType": "address",
          "name": "operator",
          "type": "address"
        },
        {
          "indexed": true,
          "internalType": "address",
          "name": "tokenHolder",
          "type": "address"
        }
      ],
      "name": "RevokedOperator",
      "type": "event"
    },
    {
      "anonymous": false,
      "inputs": [
        {
          "indexed": true,
          "internalType": "bytes32",
          "name": "role",
          "type": "bytes32"
        },
        {
          "indexed": true,
          "internalType": "bytes32",
          "name": "previousAdminRole",
          "type": "bytes32"
        },
        {
          "indexed": true,
          "internalType": "bytes32",
          "name": "newAdminRole",
          "type": "bytes32"
        }
      ],
      "name": "RoleAdminChanged",
      "type": "event"
    },
    {
      "anonymous": false,
      "inputs": [
        {
          "indexed": true,
          "internalType": "bytes32",
          "name": "role",
          "type": "bytes32"
        },
        {
          "indexed": true,
          "internalType": "address",
          "name": "account",
          "type": "address"
        },
        {
          "indexed": true,
          "internalType": "address",
          "name": "sender",
          "type": "address"
        }
      ],
      "name": "RoleGranted",
      "type": "event"
    },
    {
      "anonymous": false,
      "inputs": [
        {
          "indexed": true,
          "internalType": "bytes32",
          "name": "role",
          "type": "bytes32"
        },
        {
          "indexed": true,
          "internalType": "address",
          "name": "account",
          "type": "address"
        },
        {
          "indexed": true,
          "internalType": "address",
          "name": "sender",
          "type": "address"
        }
      ],
      "name": "RoleRevoked",
      "type": "event"
    },
    {
      "anonymous": false,
      "inputs": [
        {
          "indexed": true,
          "internalType": "address",
          "name": "operator",
          "type": "address"
        },
        {
          "indexed": true,
          "internalType": "address",
          "name": "from",
          "type": "address"
        },
        {
          "indexed": true,
          "internalType": "address",
          "name": "to",
          "type": "address"
        },
        {
          "indexed": false,
          "internalType": "uint256",
          "name": "amount",
          "type": "uint256"
        },
        {
          "indexed": false,
          "internalType": "bytes",
          "name": "data",
          "type": "bytes"
        },
        {
          "indexed": false,
          "internalType": "bytes",
          "name": "operatorData",
          "type": "bytes"
        }
      ],
      "name": "Sent",
      "type": "event"
    },
    {
      "anonymous": false,
      "inputs": [
        {
          "indexed": true,
          "internalType": "address",
          "name": "recipient",
          "type": "address"
        },
        {
          "indexed": true,
          "internalType": "uint256",
          "name": "amount",
          "type": "uint256"
        },
        {
          "indexed": true,
          "internalType": "uint256",
          "name": "startTime",
          "type": "uint256"
        },
        {
          "indexed": false,
          "internalType": "uint256",
          "name": "vestEndTime",
          "type": "uint256"
        },
        {
          "indexed": false,
          "internalType": "uint256",
          "name": "unlockEndTime",
          "type": "uint256"
        }
      ],
      "name": "TokenGrantCreated",
      "type": "event"
    },
    {
      "anonymous": false,
      "inputs": [
        {
          "indexed": true,
          "internalType": "address",
          "name": "from",
          "type": "address"
        },
        {
          "indexed": true,
          "internalType": "address",
          "name": "to",
          "type": "address"
        },
        {
          "indexed": false,
          "internalType": "uint256",
          "name": "quantity",
          "type": "uint256"
        }
      ],
      "name": "TokensClaimed",
      "type": "event"
    },
    {
      "anonymous": false,
      "inputs": [
        {
          "indexed": true,
          "internalType": "address",
          "name": "from",
          "type": "address"
        },
        {
          "indexed": true,
          "internalType": "address",
          "name": "to",
          "type": "address"
        },
        {
          "indexed": false,
          "internalType": "uint256",
          "name": "value",
          "type": "uint256"
        }
      ],
      "name": "Transfer",
      "type": "event"
    },
    {
      "anonymous": false,
      "inputs": [
        {
          "indexed": false,
          "internalType": "address",
          "name": "account",
          "type": "address"
        }
      ],
      "name": "Unpaused",
      "type": "event"
    },
    {
      "anonymous": false,
      "inputs": [
        {
          "indexed": true,
          "internalType": "uint256",
          "name": "atTime",
          "type": "uint256"
        },
        {
          "indexed": true,
          "internalType": "address",
          "name": "from",
          "type": "address"
        },
        {
          "indexed": true,
          "internalType": "uint256",
          "name": "quantity",
          "type": "uint256"
        }
      ],
      "name": "UnvestedTokensRevoked",
      "type": "event"
    },
    {
      "inputs": [],
      "name": "DEFAULT_ADMIN_ROLE",
      "outputs": [
        {
          "internalType": "bytes32",
          "name": "",
          "type": "bytes32"
        }
      ],
      "stateMutability": "view",
      "type": "function"
    },
    {
      "inputs": [],
      "name": "ERC777_TOKENS_RECIPIENT_HASH",
      "outputs": [
        {
          "internalType": "bytes32",
          "name": "",
          "type": "bytes32"
        }
      ],
      "stateMutability": "view",
      "type": "function"
    },
    {
      "inputs": [],
      "name": "PAUSER_ROLE",
      "outputs": [
        {
          "internalType": "bytes32",
          "name": "",
          "type": "bytes32"
        }
      ],
      "stateMutability": "view",
      "type": "function"
    },
    {
      "inputs": [],
      "name": "TOKEN_GRANTER_ROLE",
      "outputs": [
        {
          "internalType": "bytes32",
          "name": "",
          "type": "bytes32"
        }
      ],
      "stateMutability": "view",
      "type": "function"
    },
    {
      "inputs": [
        {
          "internalType": "address",
          "name": "holder",
          "type": "address"
        },
        {
          "internalType": "address",
          "name": "spender",
          "type": "address"
        }
      ],
      "name": "allowance",
      "outputs": [
        {
          "internalType": "uint256",
          "name": "",
          "type": "uint256"
        }
      ],
      "stateMutability": "view",
      "type": "function"
    },
    {
      "inputs": [
        {
          "internalType": "address",
          "name": "spender",
          "type": "address"
        },
        {
          "internalType": "uint256",
          "name": "value",
          "type": "uint256"
        }
      ],
      "name": "approve",
      "outputs": [
        {
          "internalType": "bool",
          "name": "",
          "type": "bool"
        }
      ],
      "stateMutability": "nonpayable",
      "type": "function"
    },
    {
      "inputs": [
        {
          "internalType": "address",
          "name": "operator",
          "type": "address"
        }
      ],
      "name": "authorizeOperator",
      "outputs": [],
      "stateMutability": "nonpayable",
      "type": "function"
    },
    {
      "inputs": [
        {
          "internalType": "address",
          "name": "tokenHolder",
          "type": "address"
        }
      ],
      "name": "balanceOf",
      "outputs": [
        {
          "internalType": "uint256",
          "name": "",
          "type": "uint256"
        }
      ],
      "stateMutability": "view",
      "type": "function"
    },
    {
      "inputs": [
        {
          "internalType": "address[]",
          "name": "accounts",
          "type": "address[]"
        }
      ],
      "name": "batchGetGrant",
      "outputs": [
        {
          "components": [
            {
              "internalType": "uint256",
              "name": "grantAmount",
              "type": "uint256"
            },
            {
              "internalType": "address",
              "name": "recipient",
              "type": "address"
            },
            {
              "internalType": "uint256",
              "name": "startTime",
              "type": "uint256"
            },
            {
              "internalType": "uint256",
              "name": "vestEndTime",
              "type": "uint256"
            },
            {
              "internalType": "uint256",
              "name": "unlockEndTime",
              "type": "uint256"
            },
            {
              "internalType": "uint256",
              "name": "cliff1Time",
              "type": "uint256"
            },
            {
              "internalType": "uint256",
              "name": "cliff2Time",
              "type": "uint256"
            },
            {
              "internalType": "uint256",
              "name": "vestCliff1Amount",
              "type": "uint256"
            },
            {
              "internalType": "uint256",
              "name": "vestCliff2Amount",
              "type": "uint256"
            },
            {
              "internalType": "uint256",
              "name": "unlockCliff1Amount",
              "type": "uint256"
            },
            {
              "internalType": "uint256",
              "name": "unlockCliff2Amount",
              "type": "uint256"
            },
            {
              "internalType": "uint256",
              "name": "claimedAmount",
              "type": "uint256"
            },
            {
              "internalType": "uint256",
              "name": "originalAmount",
              "type": "uint256"
            },
            {
              "internalType": "uint256",
              "name": "lastRevocationTime",
              "type": "uint256"
            }
          ],
          "internalType": "struct LockedNORI.TokenGrantDetail[]",
          "name": "",
          "type": "tuple[]"
        }
      ],
      "stateMutability": "view",
      "type": "function"
    },
    {
      "inputs": [
        {
          "internalType": "uint256",
          "name": "",
          "type": "uint256"
        },
        {
          "internalType": "bytes",
          "name": "",
          "type": "bytes"
        }
      ],
      "name": "burn",
      "outputs": [],
      "stateMutability": "pure",
      "type": "function"
    },
    {
      "inputs": [
        {
          "internalType": "uint256",
          "name": "amount",
          "type": "uint256"
        },
        {
          "internalType": "address",
          "name": "recipient",
          "type": "address"
        },
        {
          "internalType": "uint256",
          "name": "startTime",
          "type": "uint256"
        },
        {
          "internalType": "uint256",
          "name": "vestEndTime",
          "type": "uint256"
        },
        {
          "internalType": "uint256",
          "name": "unlockEndTime",
          "type": "uint256"
        },
        {
          "internalType": "uint256",
          "name": "cliff1Time",
          "type": "uint256"
        },
        {
          "internalType": "uint256",
          "name": "cliff2Time",
          "type": "uint256"
        },
        {
          "internalType": "uint256",
          "name": "vestCliff1Amount",
          "type": "uint256"
        },
        {
          "internalType": "uint256",
          "name": "vestCliff2Amount",
          "type": "uint256"
        },
        {
          "internalType": "uint256",
          "name": "unlockCliff1Amount",
          "type": "uint256"
        },
        {
          "internalType": "uint256",
          "name": "unlockCliff2Amount",
          "type": "uint256"
        }
      ],
      "name": "createGrant",
      "outputs": [],
      "stateMutability": "nonpayable",
      "type": "function"
    },
    {
      "inputs": [],
      "name": "decimals",
      "outputs": [
        {
          "internalType": "uint8",
          "name": "",
          "type": "uint8"
        }
      ],
      "stateMutability": "pure",
      "type": "function"
    },
    {
      "inputs": [],
      "name": "defaultOperators",
      "outputs": [
        {
          "internalType": "address[]",
          "name": "",
          "type": "address[]"
        }
      ],
      "stateMutability": "view",
      "type": "function"
    },
    {
      "inputs": [
        {
          "internalType": "address",
          "name": "account",
          "type": "address"
        }
      ],
      "name": "getGrant",
      "outputs": [
        {
          "components": [
            {
              "internalType": "uint256",
              "name": "grantAmount",
              "type": "uint256"
            },
            {
              "internalType": "address",
              "name": "recipient",
              "type": "address"
            },
            {
              "internalType": "uint256",
              "name": "startTime",
              "type": "uint256"
            },
            {
              "internalType": "uint256",
              "name": "vestEndTime",
              "type": "uint256"
            },
            {
              "internalType": "uint256",
              "name": "unlockEndTime",
              "type": "uint256"
            },
            {
              "internalType": "uint256",
              "name": "cliff1Time",
              "type": "uint256"
            },
            {
              "internalType": "uint256",
              "name": "cliff2Time",
              "type": "uint256"
            },
            {
              "internalType": "uint256",
              "name": "vestCliff1Amount",
              "type": "uint256"
            },
            {
              "internalType": "uint256",
              "name": "vestCliff2Amount",
              "type": "uint256"
            },
            {
              "internalType": "uint256",
              "name": "unlockCliff1Amount",
              "type": "uint256"
            },
            {
              "internalType": "uint256",
              "name": "unlockCliff2Amount",
              "type": "uint256"
            },
            {
              "internalType": "uint256",
              "name": "claimedAmount",
              "type": "uint256"
            },
            {
              "internalType": "uint256",
              "name": "originalAmount",
              "type": "uint256"
            },
            {
              "internalType": "uint256",
              "name": "lastRevocationTime",
              "type": "uint256"
            }
          ],
          "internalType": "struct LockedNORI.TokenGrantDetail",
          "name": "",
          "type": "tuple"
        }
      ],
      "stateMutability": "view",
      "type": "function"
    },
    {
      "inputs": [
        {
          "internalType": "bytes32",
          "name": "role",
          "type": "bytes32"
        }
      ],
      "name": "getRoleAdmin",
      "outputs": [
        {
          "internalType": "bytes32",
          "name": "",
          "type": "bytes32"
        }
      ],
      "stateMutability": "view",
      "type": "function"
    },
    {
      "inputs": [
        {
          "internalType": "bytes32",
          "name": "role",
          "type": "bytes32"
        },
        {
          "internalType": "uint256",
          "name": "index",
          "type": "uint256"
        }
      ],
      "name": "getRoleMember",
      "outputs": [
        {
          "internalType": "address",
          "name": "",
          "type": "address"
        }
      ],
      "stateMutability": "view",
      "type": "function"
    },
    {
      "inputs": [
        {
          "internalType": "bytes32",
          "name": "role",
          "type": "bytes32"
        }
      ],
      "name": "getRoleMemberCount",
      "outputs": [
        {
          "internalType": "uint256",
          "name": "",
          "type": "uint256"
        }
      ],
      "stateMutability": "view",
      "type": "function"
    },
    {
      "inputs": [
        {
          "internalType": "bytes32",
          "name": "role",
          "type": "bytes32"
        },
        {
          "internalType": "address",
          "name": "account",
          "type": "address"
        }
      ],
      "name": "grantRole",
      "outputs": [],
      "stateMutability": "nonpayable",
      "type": "function"
    },
    {
      "inputs": [],
      "name": "granularity",
      "outputs": [
        {
          "internalType": "uint256",
          "name": "",
          "type": "uint256"
        }
      ],
      "stateMutability": "view",
      "type": "function"
    },
    {
      "inputs": [
        {
          "internalType": "bytes32",
          "name": "role",
          "type": "bytes32"
        },
        {
          "internalType": "address",
          "name": "account",
          "type": "address"
        }
      ],
      "name": "hasRole",
      "outputs": [
        {
          "internalType": "bool",
          "name": "",
          "type": "bool"
        }
      ],
      "stateMutability": "view",
      "type": "function"
    },
    {
      "inputs": [
        {
          "internalType": "contract IERC777Upgradeable",
          "name": "bridgedPolygonNoriAddress",
          "type": "address"
        }
      ],
      "name": "initialize",
      "outputs": [],
      "stateMutability": "nonpayable",
      "type": "function"
    },
    {
      "inputs": [
        {
          "internalType": "address",
          "name": "operator",
          "type": "address"
        },
        {
          "internalType": "address",
          "name": "tokenHolder",
          "type": "address"
        }
      ],
      "name": "isOperatorFor",
      "outputs": [
        {
          "internalType": "bool",
          "name": "",
          "type": "bool"
        }
      ],
      "stateMutability": "view",
      "type": "function"
    },
    {
      "inputs": [],
      "name": "name",
      "outputs": [
        {
          "internalType": "string",
          "name": "",
          "type": "string"
        }
      ],
      "stateMutability": "view",
      "type": "function"
    },
    {
      "inputs": [
        {
          "internalType": "address",
          "name": "",
          "type": "address"
        },
        {
          "internalType": "uint256",
          "name": "",
          "type": "uint256"
        },
        {
          "internalType": "bytes",
          "name": "",
          "type": "bytes"
        },
        {
          "internalType": "bytes",
          "name": "",
          "type": "bytes"
        }
      ],
      "name": "operatorBurn",
      "outputs": [],
      "stateMutability": "pure",
      "type": "function"
    },
    {
      "inputs": [
        {
          "internalType": "address",
          "name": "sender",
          "type": "address"
        },
        {
          "internalType": "address",
          "name": "recipient",
          "type": "address"
        },
        {
          "internalType": "uint256",
          "name": "amount",
          "type": "uint256"
        },
        {
          "internalType": "bytes",
          "name": "data",
          "type": "bytes"
        },
        {
          "internalType": "bytes",
          "name": "operatorData",
          "type": "bytes"
        }
      ],
      "name": "operatorSend",
      "outputs": [],
      "stateMutability": "nonpayable",
      "type": "function"
    },
    {
      "inputs": [],
      "name": "pause",
      "outputs": [],
      "stateMutability": "nonpayable",
      "type": "function"
    },
    {
      "inputs": [],
      "name": "paused",
      "outputs": [
        {
          "internalType": "bool",
          "name": "",
          "type": "bool"
        }
      ],
      "stateMutability": "view",
      "type": "function"
    },
    {
      "inputs": [
        {
          "internalType": "address",
          "name": "account",
          "type": "address"
        }
      ],
      "name": "quantityRevokedFrom",
      "outputs": [
        {
          "internalType": "uint256",
          "name": "",
          "type": "uint256"
        }
      ],
      "stateMutability": "view",
      "type": "function"
    },
    {
      "inputs": [
        {
          "internalType": "bytes32",
          "name": "role",
          "type": "bytes32"
        },
        {
          "internalType": "address",
          "name": "account",
          "type": "address"
        }
      ],
      "name": "renounceRole",
      "outputs": [],
      "stateMutability": "nonpayable",
      "type": "function"
    },
    {
      "inputs": [
        {
          "internalType": "address",
          "name": "operator",
          "type": "address"
        }
      ],
      "name": "revokeOperator",
      "outputs": [],
      "stateMutability": "nonpayable",
      "type": "function"
    },
    {
      "inputs": [
        {
          "internalType": "bytes32",
          "name": "role",
          "type": "bytes32"
        },
        {
          "internalType": "address",
          "name": "account",
          "type": "address"
        }
      ],
      "name": "revokeRole",
      "outputs": [],
      "stateMutability": "nonpayable",
      "type": "function"
    },
    {
      "inputs": [
        {
          "internalType": "address",
          "name": "from",
          "type": "address"
        },
        {
          "internalType": "address",
          "name": "to",
          "type": "address"
        },
        {
          "internalType": "uint256",
          "name": "atTime",
          "type": "uint256"
        },
        {
          "internalType": "uint256",
          "name": "amount",
          "type": "uint256"
        }
      ],
      "name": "revokeUnvestedTokenAmount",
      "outputs": [],
      "stateMutability": "nonpayable",
      "type": "function"
    },
    {
      "inputs": [
        {
          "internalType": "address",
          "name": "from",
          "type": "address"
        },
        {
          "internalType": "address",
          "name": "to",
          "type": "address"
        },
        {
          "internalType": "uint256",
          "name": "atTime",
          "type": "uint256"
        }
      ],
      "name": "revokeUnvestedTokens",
      "outputs": [],
      "stateMutability": "nonpayable",
      "type": "function"
    },
    {
      "inputs": [
        {
          "internalType": "address",
          "name": "recipient",
          "type": "address"
        },
        {
          "internalType": "uint256",
          "name": "amount",
          "type": "uint256"
        },
        {
          "internalType": "bytes",
          "name": "data",
          "type": "bytes"
        }
      ],
      "name": "send",
      "outputs": [],
      "stateMutability": "nonpayable",
      "type": "function"
    },
    {
      "inputs": [
        {
          "internalType": "bytes4",
          "name": "interfaceId",
          "type": "bytes4"
        }
      ],
      "name": "supportsInterface",
      "outputs": [
        {
          "internalType": "bool",
          "name": "",
          "type": "bool"
        }
      ],
      "stateMutability": "view",
      "type": "function"
    },
    {
      "inputs": [],
      "name": "symbol",
      "outputs": [
        {
          "internalType": "string",
          "name": "",
          "type": "string"
        }
      ],
      "stateMutability": "view",
      "type": "function"
    },
    {
      "inputs": [
        {
          "internalType": "address",
          "name": "operator",
          "type": "address"
        },
        {
          "internalType": "address",
          "name": "from",
          "type": "address"
        },
        {
          "internalType": "address",
          "name": "",
          "type": "address"
        },
        {
          "internalType": "uint256",
          "name": "amount",
          "type": "uint256"
        },
        {
          "internalType": "bytes",
          "name": "userData",
          "type": "bytes"
        },
        {
          "internalType": "bytes",
          "name": "operatorData",
          "type": "bytes"
        }
      ],
      "name": "tokensReceived",
      "outputs": [],
      "stateMutability": "nonpayable",
      "type": "function"
    },
    {
      "inputs": [],
      "name": "totalSupply",
      "outputs": [
        {
          "internalType": "uint256",
          "name": "",
          "type": "uint256"
        }
      ],
      "stateMutability": "view",
      "type": "function"
    },
    {
      "inputs": [
        {
          "internalType": "address",
          "name": "recipient",
          "type": "address"
        },
        {
          "internalType": "uint256",
          "name": "amount",
          "type": "uint256"
        }
      ],
      "name": "transfer",
      "outputs": [
        {
          "internalType": "bool",
          "name": "",
          "type": "bool"
        }
      ],
      "stateMutability": "nonpayable",
      "type": "function"
    },
    {
      "inputs": [
        {
          "internalType": "address",
          "name": "holder",
          "type": "address"
        },
        {
          "internalType": "address",
          "name": "recipient",
          "type": "address"
        },
        {
          "internalType": "uint256",
          "name": "amount",
          "type": "uint256"
        }
      ],
      "name": "transferFrom",
      "outputs": [
        {
          "internalType": "bool",
          "name": "",
          "type": "bool"
        }
      ],
      "stateMutability": "nonpayable",
      "type": "function"
    },
    {
      "inputs": [
        {
          "internalType": "address",
          "name": "account",
          "type": "address"
        }
      ],
      "name": "unlockedBalanceOf",
      "outputs": [
        {
          "internalType": "uint256",
          "name": "",
          "type": "uint256"
        }
      ],
      "stateMutability": "view",
      "type": "function"
    },
    {
      "inputs": [],
      "name": "unpause",
      "outputs": [],
      "stateMutability": "nonpayable",
      "type": "function"
    },
    {
      "inputs": [
        {
          "internalType": "address",
          "name": "account",
          "type": "address"
        }
      ],
      "name": "vestedBalanceOf",
      "outputs": [
        {
          "internalType": "uint256",
          "name": "",
          "type": "uint256"
        }
      ],
      "stateMutability": "view",
      "type": "function"
    },
    {
      "inputs": [
        {
          "internalType": "address",
          "name": "recipient",
          "type": "address"
        },
        {
          "internalType": "uint256",
          "name": "amount",
          "type": "uint256"
        }
      ],
      "name": "withdrawTo",
      "outputs": [
        {
          "internalType": "bool",
          "name": "",
          "type": "bool"
        }
      ],
      "stateMutability": "nonpayable",
      "type": "function"
    }
  ],
  "bytecode": "0x608060405234801561001057600080fd5b5061472d806100206000396000f3fe608060405234801561001057600080fd5b50600436106102735760003560e01c80637f02f21d11610151578063a9059cbb116100c3578063d95b637111610087578063d95b637114610592578063dd62ed3e146105a5578063e63ab1e9146105de578063fad8b32a146105f3578063fc673c4f14610606578063fe9d93031461061957600080fd5b8063a9059cbb14610526578063bf31dbf414610539578063c4d66de814610559578063ca15c8731461056c578063d547741f1461057f57600080fd5b8063959b8c3f11610115578063959b8c3f146104bd57806395d89b41146104d05780639bd9bbc6146104d85780639e3f3cac146104eb5780639f916c21146104fe578063a217fddf1461051e57600080fd5b80637f02f21d146104515780638456cb591461046457806384955c881461046c5780639010d07c1461047f57806391d14854146104aa57600080fd5b8063271c6e1a116101ea578063521189a9116101ae578063521189a9146103c7578063556f0dc7146103ee5780635c975abb146103f557806362ad1b8314610400578063633d9be01461041357806370a082311461042857600080fd5b8063271c6e1a146103775780632f2ff15d1461038a578063313ce5671461039d57806336568abe146103ac5780633f4ba83a146103bf57600080fd5b80630e2d1a2a1161023c5780630e2d1a2a146102f2578063180e4bb81461031357806318160ddd14610326578063205c28781461032e57806323b872dd14610341578063248a9ca31461035457600080fd5b806223de291461027857806301ffc9a71461028d57806306e48538146102b557806306fdde03146102ca578063095ea7b3146102df575b600080fd5b61028b610286366004613b10565b610627565b005b6102a061029b366004613bc1565b6107b5565b60405190151581526020015b60405180910390f35b6102bd6107e0565b6040516102ac9190613beb565b6102d2610842565b6040516102ac9190613c90565b6102a06102ed366004613ca3565b6108cb565b610305610300366004613ccf565b610911565b6040519081526020016102ac565b61028b610321366004613cec565b61091d565b603454610305565b6102a061033c366004613ca3565b61096c565b6102a061034f366004613d32565b610a7b565b610305610362366004613d73565b600090815260c9602052604090206001015490565b61028b610385366004613d8c565b610ba9565b61028b610398366004613e0b565b610c6a565b604051601281526020016102ac565b61028b6103ba366004613e0b565b610c95565b61028b610d13565b6103057fb281fc8c12954d22544db45de3159a39272895b169a852b314f9cc762e44c53b81565b6001610305565b60655460ff166102a0565b61028b61040e366004613f08565b610d37565b6103056000805160206146b883398151915281565b610305610436366004613ccf565b6001600160a01b031660009081526033602052604090205490565b61028b61045f366004613d32565b610db1565b61028b610e00565b61030561047a366004613ccf565b610e21565b61049261048d366004613f9b565b610e2d565b6040516001600160a01b0390911681526020016102ac565b6102a06104b8366004613e0b565b610e45565b61028b6104cb366004613ccf565b610e70565b6102d2610e84565b61028b6104e6366004613fbd565b610e93565b6103056104f9366004613ccf565b610eb1565b61051161050c366004614016565b610ede565b6040516102ac9190614129565b610305600081565b6102a0610534366004613ca3565b610fa4565b61054c610547366004613ccf565b611061565b6040516102ac919061416c565b61028b610567366004613ccf565b611142565b61030561057a366004613d73565b6113aa565b61028b61058d366004613e0b565b6113c1565b6102a06105a036600461417b565b6113e7565b6103056105b336600461417b565b6001600160a01b039182166000908152603b6020908152604080832093909416825291909152205490565b6103056000805160206146d883398151915281565b61028b610601366004613ccf565b611488565b61028b6106143660046141a9565b61149c565b61028b610614366004614229565b610160546001600160a01b031633146106875760405162461bcd60e51b815260206004820152601d60248201527f6c4e4f52493a206e6f742042726964676564506f6c79676f6e4e4f524900000060448201526064015b60405180910390fd5b61069f6000805160206146b883398151915288610e45565b806106bd57506106bd6000805160206146b883398151915289610e45565b6107225760405162461bcd60e51b815260206004820152603060248201527f6c4e4f52493a2063616c6c6572206973206d697373696e6720726f6c6520544f60448201526f4b454e5f4752414e5445525f524f4c4560801b606482015260840161067e565b600061073084860186613ccf565b90506001600160a01b03811661079c5760405162461bcd60e51b815260206004820152602b60248201527f6c4e4f52493a20746f6b656e2073656e64206d697373696e672072657175697260448201526a656420757365724461746160a81b606482015260840161067e565b6107a986868686866114e4565b50505050505050505050565b60006001600160e01b03198216635a05180f60e01b14806107da57506107da82611641565b92915050565b6060603780548060200260200160405190810160405280929190818152602001828054801561083857602002820191906000526020600020905b81546001600160a01b0316815260019091019060200180831161081a575b5050505050905090565b60606035805461085190614270565b80601f016020809104026020016040519081016040528092919081815260200182805461087d90614270565b80156108385780601f1061089f57610100808354040283529160200191610838565b820191906000526020600020905b8154815290600101906020018083116108ad57509395945050505050565b60006108d960655460ff1690565b156108f65760405162461bcd60e51b815260040161067e906142ab565b6109008383611676565b61090a8383611699565b9392505050565b60006107da82426116a7565b60655460ff16156109405760405162461bcd60e51b815260040161067e906142ab565b6000805160206146b8833981519152610959813361178f565b610965858585856117f3565b5050505050565b33600081815261015f6020908152604080832081518084018352848152825193840190925283835292936109a39290918691611af4565b61016054604051634decdde360e11b81526001600160a01b03868116600483015260248201869052606060448301526000606483015290911690639bd9bbc690608401600060405180830381600087803b158015610a0057600080fd5b505af1158015610a14573d6000803e3d6000fd5b505050508281600b016000828254610a2c91906142eb565b90915550506040518381526001600160a01b0385169033907fa86305abc2db271df4609aa86a8d044bc11fb36939841bfdad6c1ab2b26e94719060200160405180910390a35060019392505050565b60006001600160a01b038316610aa35760405162461bcd60e51b815260040161067e90614303565b6001600160a01b038416610b085760405162461bcd60e51b815260206004820152602660248201527f4552433737373a207472616e736665722066726f6d20746865207a65726f206160448201526564647265737360d01b606482015260840161067e565b6000339050610b39818686866040518060200160405280600081525060405180602001604052806000815250611cb6565b610b44858285611dde565b610b70818686866040518060200160405280600081525060405180602001604052806000815250611e6a565b610b9e8186868660405180602001604052806000815250604051806020016040528060008152506000611fdc565b506001949350505050565b60655460ff1615610bcc5760405162461bcd60e51b815260040161067e906142ab565b6000805160206146b8833981519152610be5813361178f565b604080516001600160a01b038d1660208201529081018b9052606081018a90526080810189905260a0810188905260c0810187905260e08101869052610100810185905261012081018490526101408101839052600090610160016040516020818303038152906040529050610c5b8d826121a1565b50505050505050505050505050565b600082815260c96020526040902060010154610c86813361178f565b610c908383612576565b505050565b6001600160a01b0381163314610d055760405162461bcd60e51b815260206004820152602f60248201527f416363657373436f6e74726f6c3a2063616e206f6e6c792072656e6f756e636560448201526e103937b632b9903337b91039b2b63360891b606482015260840161067e565b610d0f828261258a565b5050565b6000805160206146d8833981519152610d2c813361178f565b610d3461259e565b50565b610d4133866113e7565b610da25760405162461bcd60e51b815260206004820152602c60248201527f4552433737373a2063616c6c6572206973206e6f7420616e206f70657261746f60448201526b39103337b9103437b63232b960a11b606482015260840161067e565b61096585858585856001612631565b60655460ff1615610dd45760405162461bcd60e51b815260040161067e906142ab565b6000805160206146b8833981519152610ded813361178f565b610dfa84848460006117f3565b50505050565b6000805160206146d8833981519152610e19813361178f565b610d34612714565b60006107da824261276c565b600082815260fb6020526040812061090a908361285d565b600091825260c9602090815260408084206001600160a01b0393909316845291905290205460ff1690565b610e7b816000611676565b610d3481612869565b60606036805461085190614270565b610c9033848484604051806020016040528060008152506001612631565b6001600160a01b038116600090815261015f60205260408120600a810154600c82015461090a9190614347565b606060008267ffffffffffffffff811115610efb57610efb613e3b565b604051908082528060200260200182016040528015610f3457816020015b610f2161394c565b815260200190600190039081610f195790505b50905060005b83811015610f9c57610f6c858583818110610f5757610f5761435e565b90506020020160208101906105479190613ccf565b828281518110610f7e57610f7e61435e565b60200260200101819052508080610f9490614374565b915050610f3a565b509392505050565b60006001600160a01b038316610fcc5760405162461bcd60e51b815260040161067e90614303565b6000339050610ffd818286866040518060200160405280600081525060405180602001604052806000815250611cb6565b611029818286866040518060200160405280600081525060405180602001604052806000815250611e6a565b6110578182868660405180602001604052806000815250604051806020016040528060008152506000611fdc565b5060019392505050565b61106961394c565b506001600160a01b0316600081815261015f6020908152604080832081516101c081018352600a82015481528084019590955260058101548583015260018082015460608701526006820154608087015284805260088201808552838620805460a0890152828752818652848720805460c08a01528780526003850180885286892085015460e08b01528489528752948720830154610100890152820154610120880152948190529390925290910154610140830152600b810154610160830152600c810154610180830152600d01546101a082015290565b600054610100900460ff1661115d5760005460ff1615611161565b303b155b6111c45760405162461bcd60e51b815260206004820152602e60248201527f496e697469616c697a61626c653a20636f6e747261637420697320616c72656160448201526d191e481a5b9a5d1a585b1a5e995960921b606482015260840161067e565b600054610100900460ff161580156111e6576000805461ffff19166101011790555b60408051600180825281830190925260009160208083019080368337019050509050338160008151811061121c5761121c61435e565b60200260200101906001600160a01b031690816001600160a01b031681525050611244612987565b61124c612987565b611254612987565b61125c612987565b6112646129b0565b61126c6129e3565b6112c96040518060400160405280601981526020017f4c6f636b65642042726964676564506f6c79676f6e4e4f524900000000000000815250604051806040016040528060058152602001646c4e4f524960d81b81525083612a2d565b61016080546001600160a01b0319166001600160a01b0385161790556040516329965a1d60e01b815230600482018190527fb281fc8c12954d22544db45de3159a39272895b169a852b314f9cc762e44c53b60248301526044820152731820a4b7618bde71dce8cdc73aab6c95905fad24906329965a1d90606401600060405180830381600087803b15801561135e57600080fd5b505af1158015611372573d6000803e3d6000fd5b505050506113946000805160206146b883398151915261138f3390565b612c17565b508015610d0f576000805461ff00191690555050565b600081815260fb602052604081206107da90612c21565b600082815260c960205260409020600101546113dd813361178f565b610c90838361258a565b6000816001600160a01b0316836001600160a01b0316148061145257506001600160a01b03831660009081526038602052604090205460ff16801561145257506001600160a01b038083166000908152603a602090815260408083209387168352929052205460ff16155b8061090a5750506001600160a01b0390811660009081526039602090815260408083209490931682529290925290205460ff1690565b611493816000611676565b610d3481612c2b565b60405162461bcd60e51b815260206004820152601c60248201527f6c4e4f52493a206275726e696e67206e6f7420737570706f7274656400000000604482015260640161067e565b6000806114f38587018761438f565b602081015190915015611540576115408787878080601f0160208091040260200160405190810160405280939291908181526020018383808284376000920191909152506121a192505050565b80516001600160a01b0316600090815261015f60205260409020600e015460ff166115bb5760405162461bcd60e51b815260206004820152602560248201527f6c4e4f52493a2043616e6e6f74206465706f73697420776974686f757420612060448201526419dc985b9d60da1b606482015260840161067e565b61163481600001518888888080601f01602080910402602001604051908101604052809392919081815260200183838082843760009201919091525050604080516020601f8c018190048102820181019092528a815292508a9150899081908401838280828437600092019190915250612d4792505050565b5060019695505050505050565b60006001600160e01b03198216637965db0b60e01b14806107da57506301ffc9a760e01b6001600160e01b03198316146107da565b60655460ff1615610d0f5760405162461bcd60e51b815260040161067e906142ab565b600033611057818585612d55565b6001600160a01b038216600081815261015f602052604080822090516370a0823160e01b815260048101939093529091829030906370a0823190602401602060405180830381865afa158015611701573d6000803e3d6000fd5b505050506040513d601f19601f8201168201806040525081019061172591906143e7565b600e83015490915060ff16156117875761173e85612e7c565b1561177057600b82015461175f6117558487612ead565b84600a0154612ecd565b6117699190614347565b9050611787565b81600b015482600a01546117849190614347565b90505b949350505050565b6117998282610e45565b610d0f576117b1816001600160a01b03166014612ee3565b6117bc836020612ee3565b6040516020016117cd929190614400565b60408051601f198184030181529082905262461bcd60e51b825261067e91600401613c90565b6001600160a01b038416600090815261015f60205260409020600e81015460ff166118595760405162461bcd60e51b81526020600482015260166024820152756c4e4f52493a206e6f206772616e742065786973747360501b604482015260640161067e565b61186285612e7c565b6118c05760405162461bcd60e51b815260206004820152602960248201527f6c4e4f52493a206e6f2076657374696e67207363686564756c6520666f7220746044820152681a1a5cc819dc985b9d60ba1b606482015260840161067e565b428310156119205760405162461bcd60e51b815260206004820152602760248201527f6c4e4f52493a205265766f636174696f6e2063616e6e6f7420626520696e20746044820152661a19481c185cdd60ca1b606482015260840161067e565b600061192c8285612ead565b905081600a015481106119815760405162461bcd60e51b815260206004820152601c60248201527f6c4e4f52493a20746f6b656e7320616c72656164792076657374656400000000604482015260640161067e565b60008183600a01546119939190614347565b9050600084156119f457818511156119ed5760405162461bcd60e51b815260206004820152601e60248201527f6c4e4f52493a20746f6f2066657720756e76657374656420746f6b656e730000604482015260640161067e565b50836119f7565b50805b8084600a0154611a079190614347565b600a850155600d840186905561016054604051634decdde360e11b81526001600160a01b03898116600483015260248201849052606060448301526000606483015290911690639bd9bbc690608401600060405180830381600087803b158015611a7057600080fd5b505af1158015611a84573d6000803e3d6000fd5b50505050611ab288826040518060200160405280600081525060405180602001604052806000815250611af4565b80886001600160a01b0316877f0bbe3f9ae306d75ae6df08cd4a79ac5c6eae93ffae7d7e52f2859bf27592519d60405160405180910390a45050505050505050565b6001600160a01b038416611b555760405162461bcd60e51b815260206004820152602260248201527f4552433737373a206275726e2066726f6d20746865207a65726f206164647265604482015261737360f01b606482015260840161067e565b33611b6581866000878787611cb6565b611b72818660008761307f565b6001600160a01b03851660009081526033602052604090205484811015611be75760405162461bcd60e51b815260206004820152602360248201527f4552433737373a206275726e20616d6f756e7420657863656564732062616c616044820152626e636560e81b606482015260840161067e565b6001600160a01b0386166000908152603360205260408120868303905560348054879290611c16908490614347565b92505081905550856001600160a01b0316826001600160a01b03167fa78a9be3a7b862d26933ad85fb11d80ef66b8f972d7cbba06621d583943a4098878787604051611c6493929190614475565b60405180910390a36040518581526000906001600160a01b038816907fddf252ad1be2c89b69c2b068fc378daa952ba7f163c4a11628f55a4df523b3ef906020015b60405180910390a3505050505050565b60405163555ddc6560e11b81526001600160a01b03861660048201527f29ddb589b1fb5fc7cf394961c1adf5f8c6454761adf795e67fe149f658abe8956024820152600090731820a4b7618bde71dce8cdc73aab6c95905fad249063aabbb8ca90604401602060405180830381865afa158015611d37573d6000803e3d6000fd5b505050506040513d601f19601f82011682018060405250810190611d5b91906144ba565b90506001600160a01b03811615611dd557604051633ad5cbc160e11b81526001600160a01b038216906375ab978290611da2908a908a908a908a908a908a906004016144d7565b600060405180830381600087803b158015611dbc57600080fd5b505af1158015611dd0573d6000803e3d6000fd5b505050505b50505050505050565b6001600160a01b038381166000908152603b60209081526040808320938616835292905220546000198114610dfa5781811015611e5d5760405162461bcd60e51b815260206004820152601e60248201527f4552433737373a20696e73756666696369656e7420616c6c6f77616e63650000604482015260640161067e565b610dfa8484848403612d55565b611e768686868661307f565b6001600160a01b03851660009081526033602052604090205483811015611eef5760405162461bcd60e51b815260206004820152602760248201527f4552433737373a207472616e7366657220616d6f756e7420657863656564732060448201526662616c616e636560c81b606482015260840161067e565b6001600160a01b03808716600090815260336020526040808220878503905591871681529081208054869290611f269084906142eb565b92505081905550846001600160a01b0316866001600160a01b0316886001600160a01b03167f06b541ddaa720db2b10a4d0cdac39b8d360425fc073085fac19bc82614677987878787604051611f7e93929190614475565b60405180910390a4846001600160a01b0316866001600160a01b03167fddf252ad1be2c89b69c2b068fc378daa952ba7f163c4a11628f55a4df523b3ef86604051611fcb91815260200190565b60405180910390a350505050505050565b60405163555ddc6560e11b81526001600160a01b03861660048201527fb281fc8c12954d22544db45de3159a39272895b169a852b314f9cc762e44c53b6024820152600090731820a4b7618bde71dce8cdc73aab6c95905fad249063aabbb8ca90604401602060405180830381865afa15801561205d573d6000803e3d6000fd5b505050506040513d601f19601f8201168201806040525081019061208191906144ba565b90506001600160a01b038116156120fd576040516223de2960e01b81526001600160a01b038216906223de29906120c6908b908b908b908b908b908b906004016144d7565b600060405180830381600087803b1580156120e057600080fd5b505af11580156120f4573d6000803e3d6000fd5b50505050612197565b8115612197576001600160a01b0386163b156121975760405162461bcd60e51b815260206004820152604d60248201527f4552433737373a20746f6b656e20726563697069656e7420636f6e747261637460448201527f20686173206e6f20696d706c656d656e74657220666f7220455243373737546f60648201526c1ad95b9cd49958da5c1a595b9d609a1b608482015260a40161067e565b5050505050505050565b6000818060200190518101906121b79190614531565b905080606001518160200151106122285760405162461bcd60e51b815260206004820152602f60248201527f6c4e4f52493a20756e6c6f636b456e6454696d652063616e6e6f74206265206260448201526e65666f726520737461727454696d6560881b606482015260840161067e565b8060600151421061228e5760405162461bcd60e51b815260206004820152602a60248201527f6c4e4f52493a20756e6c6f636b456e6454696d652063616e6e6f7420626520696044820152691b881d1a19481c185cdd60b21b606482015260840161067e565b80516001600160a01b03166122f55760405162461bcd60e51b815260206004820152602760248201527f6c4e4f52493a20526563697069656e742063616e6e6f74206265207a65726f206044820152666164647265737360c81b606482015260840161067e565b80516001600160a01b031633141561235e5760405162461bcd60e51b815260206004820152602660248201527f6c4e4f52493a20526563697069656e742063616e6e6f74206265206772616e746044820152651030b236b4b760d11b606482015260840161067e565b80516001600160a01b0316600090815261015f60205260409020600e015460ff16156123cc5760405162461bcd60e51b815260206004820152601b60248201527f6c4e4f52493a204772616e7420616c7265616479206578697374730000000000604482015260640161067e565b80516001600160a01b0316600090815261015f6020908152604091829020600a8101869055600c8101869055600e8101805460ff191660011790559083015191830151909110156124c6578161010001518260c0015110158061243857508161012001518260e0015110155b6124845760405162461bcd60e51b815260206004820181905260248201527f6c4e4f52493a20756e6c6f636b20636c696666203c207665737420636c696666604482015260640161067e565b600281018490556020820151815560408201516001820155608082015160c08301516124b19183916131bf565b60a082015160e08301516124c69183916131bf565b600781018490556020820151600582019081556060830151600683015560808301516101008401516124f99291906131bf565b60a08201516101208301516125129160058401916131bf565b81602001518483600001516001600160a01b03167f17161516b6ce34594617177a800b150a86ddee02c06993a73ef000a02367d11985604001518660600151604051612568929190918252602082015260400190565b60405180910390a450505050565b6125808282611676565b610d0f8282613394565b6125948282611676565b610d0f82826133b6565b60655460ff166125e75760405162461bcd60e51b815260206004820152601460248201527314185d5cd8589b194e881b9bdd081c185d5cd95960621b604482015260640161067e565b6065805460ff191690557f5db9ee0a495bf2e6ff9c91a7834c1ba4fdd244a5e8aa4e537bd38aeae4b073aa335b6040516001600160a01b03909116815260200160405180910390a1565b6001600160a01b0386166126925760405162461bcd60e51b815260206004820152602260248201527f4552433737373a2073656e642066726f6d20746865207a65726f206164647265604482015261737360f01b606482015260840161067e565b6001600160a01b0385166126e85760405162461bcd60e51b815260206004820181905260248201527f4552433737373a2073656e6420746f20746865207a65726f2061646472657373604482015260640161067e565b336126f7818888888888611cb6565b612705818888888888611e6a565b611dd581888888888888611fdc565b60655460ff16156127375760405162461bcd60e51b815260040161067e906142ab565b6065805460ff191660011790557f62e78cea01bee320cd4e420270b5ea74000d11b0c9f74754ebdbfc544b05a2586126143390565b6001600160a01b038216600081815261015f602052604080822090516370a0823160e01b815260048101939093529091829030906370a0823190602401602060405180830381865afa1580156127c6573d6000803e3d6000fd5b505050506040513d601f19601f820116820180604052508101906127ea91906143e7565b905060006127f786612e7c565b6128055782600a015461280f565b61280f8386612ead565b600e84015490915060ff161561285457600b83015461284761283d83612838600588018a612ead565b612ecd565b85600a0154612ecd565b6128519190614347565b91505b50949350505050565b600061090a83836133d8565b336001600160a01b03821614156128ce5760405162461bcd60e51b8152602060048201526024808201527f4552433737373a20617574686f72697a696e672073656c66206173206f70657260448201526330ba37b960e11b606482015260840161067e565b6001600160a01b03811660009081526038602052604090205460ff161561291f57336000908152603a602090815260408083206001600160a01b03851684529091529020805460ff1916905561294e565b3360009081526039602090815260408083206001600160a01b03851684529091529020805460ff191660011790555b60405133906001600160a01b038316907ff4caeb2d6ca8932a215a353d0703c326ec2d81fc68170f320eb2ab49e9df61f990600090a350565b600054610100900460ff166129ae5760405162461bcd60e51b815260040161067e906145bf565b565b600054610100900460ff166129d75760405162461bcd60e51b815260040161067e906145bf565b6065805460ff19169055565b600054610100900460ff16612a0a5760405162461bcd60e51b815260040161067e906145bf565b612a15600033612c17565b6129ae6000805160206146d883398151915233612c17565b600054610100900460ff16612a545760405162461bcd60e51b815260040161067e906145bf565b8251612a679060359060208601906139c4565b508151612a7b9060369060208501906139c4565b508051612a8f906037906020840190613a48565b5060005b8151811015612af857600160386000848481518110612ab457612ab461435e565b6020908102919091018101516001600160a01b03168252810191909152604001600020805460ff191691151591909117905580612af081614374565b915050612a93565b506040516329965a1d60e01b815230600482018190527fac7fbab5f54a3ca8194167523c6753bfeb96a445279294b6125b68cce217705460248301526044820152731820a4b7618bde71dce8cdc73aab6c95905fad24906329965a1d90606401600060405180830381600087803b158015612b7257600080fd5b505af1158015612b86573d6000803e3d6000fd5b50506040516329965a1d60e01b815230600482018190527faea199e31a596269b42cdafd93407f14436db6e4cad65417994c2eb37381e05a60248301526044820152731820a4b7618bde71dce8cdc73aab6c95905fad2492506329965a1d9150606401600060405180830381600087803b158015612c0357600080fd5b505af1158015611dd5573d6000803e3d6000fd5b610d0f8282612576565b60006107da825490565b6001600160a01b038116331415612c8e5760405162461bcd60e51b815260206004820152602160248201527f4552433737373a207265766f6b696e672073656c66206173206f70657261746f6044820152603960f91b606482015260840161067e565b6001600160a01b03811660009081526038602052604090205460ff1615612ce257336000908152603a602090815260408083206001600160a01b03851684529091529020805460ff19166001179055612d0e565b3360009081526039602090815260408083206001600160a01b03851684529091529020805460ff191690555b60405133906001600160a01b038316907f50546e66e5f44d728365dc3908c63bc5cfeeab470722c1677e3073a6ac294aa190600090a350565b610dfa848484846001613402565b6001600160a01b038316612db95760405162461bcd60e51b815260206004820152602560248201527f4552433737373a20617070726f76652066726f6d20746865207a65726f206164604482015264647265737360d81b606482015260840161067e565b6001600160a01b038216612e1b5760405162461bcd60e51b815260206004820152602360248201527f4552433737373a20617070726f766520746f20746865207a65726f206164647260448201526265737360e81b606482015260840161067e565b6001600160a01b038381166000818152603b602090815260408083209487168084529482529182902085905590518481527f8c5be1e5ebec7d5bd14f71427d1e84f3dd0314c0f7b2291e5b200ac8c7c3b925910160405180910390a3505050565b6001600160a01b038116600090815261015f60205260408120600e81015460ff16801561090a575054151592915050565b6000612eb98383613548565b612ec38484613616565b61090a91906142eb565b6000818310612edc578161090a565b5090919050565b60606000612ef283600261460a565b612efd9060026142eb565b67ffffffffffffffff811115612f1557612f15613e3b565b6040519080825280601f01601f191660200182016040528015612f3f576020820181803683370190505b509050600360fc1b81600081518110612f5a57612f5a61435e565b60200101906001600160f81b031916908160001a905350600f60fb1b81600181518110612f8957612f8961435e565b60200101906001600160f81b031916908160001a9053506000612fad84600261460a565b612fb89060016142eb565b90505b6001811115613030576f181899199a1a9b1b9c1cb0b131b232b360811b85600f1660108110612fec57612fec61435e565b1a60f81b8282815181106130025761300261435e565b60200101906001600160f81b031916908160001a90535060049490941c9361302981614629565b9050612fbb565b50831561090a5760405162461bcd60e51b815260206004820181905260248201527f537472696e67733a20686578206c656e67746820696e73756666696369656e74604482015260640161067e565b6001600160a01b03838116159083161560006130a96000805160206146b883398151915288610e45565b90506001600160a01b03878116908716141560006130c688610e21565b86111590508380156130d55750815b80156130de5750825b156131565785613103896001600160a01b031660009081526033602052604090205490565b10156131515760405162461bcd60e51b815260206004820152601b60248201527f6c4e4f52493a20696e73756666696369656e742062616c616e63650000000000604482015260640161067e565b6131a8565b846131a857806131a85760405162461bcd60e51b815260206004820152601b60248201527f6c4e4f52493a20696e73756666696369656e742062616c616e63650000000000604482015260640161067e565b6131b489898989613680565b505050505050505050565b600483015461321e5782548210156132195760405162461bcd60e51b815260206004820152601b60248201527f436c696666206265666f7265207363686564756c652073746172740000000000604482015260640161067e565b613296565b826003016000600185600401546132359190614347565b8152602001908152602001600020600001548210156132965760405162461bcd60e51b815260206004820152601860248201527f436c69666673206e6f74206368726f6e6f6c6f676963616c0000000000000000604482015260640161067e565b82600101548211156132ea5760405162461bcd60e51b815260206004820181905260248201527f436c696666732063616e6e6f7420656e64206166746572207363686564756c65604482015260640161067e565b8260020154816132f9856136a8565b61330391906142eb565b11156133515760405162461bcd60e51b815260206004820152601a60248201527f636c69666620616d6f756e74732065786365656420746f74616c000000000000604482015260640161067e565b6004830180546000908152600385016020526040808220859055825482528120600190810184905582549092919061338a9084906142eb565b9091555050505050565b61339e82826136f3565b600082815260fb60205260409020610c909082613779565b6133c0828261378e565b600082815260fb60205260409020610c9090826137f5565b60008260000182815481106133ef576133ef61435e565b9060005260206000200154905092915050565b6001600160a01b0385166134585760405162461bcd60e51b815260206004820181905260248201527f4552433737373a206d696e7420746f20746865207a65726f2061646472657373604482015260640161067e565b33613466816000888861307f565b846034600082825461347891906142eb565b90915550506001600160a01b038616600090815260336020526040812080548792906134a59084906142eb565b909155506134bb90508160008888888888611fdc565b856001600160a01b0316816001600160a01b03167f2fe5be0146f74c5bce36c0b80911af6c7d86ff27e89d5cfa61fc681327954e5d87878760405161350293929190614475565b60405180910390a36040518581526001600160a01b038716906000907fddf252ad1be2c89b69c2b068fc378daa952ba7f163c4a11628f55a4df523b3ef90602001611ca6565b600080613554846136a8565b84600201541061357957613567846136a8565b84600201546135769190614347565b90505b8360010154831061358b5790506107da565b83546004850154156135c357846003016000600187600401546135ae9190614347565b81526020019081526020016000206000015490505b60008186600101546135d59190614347565b905060006135e38387614640565b9050600081131561360857816135f9828661460a565b613603919061467f565b61360b565b60005b979650505050505050565b600080805b8460040154811015613671576000818152600386016020526040902054841061365f57600081815260038601602052604090206001015461365c90836142eb565b91505b8061366981614374565b91505061361b565b50611787846002015482612ecd565b60655460ff16156136a35760405162461bcd60e51b815260040161067e906142ab565b610dfa565b60008060005b83600401548110156136ec5760008181526003850160205260409020600101546136d890836142eb565b9150806136e481614374565b9150506136ae565b5092915050565b6136fd8282610e45565b610d0f57600082815260c9602090815260408083206001600160a01b03851684529091529020805460ff191660011790556137353390565b6001600160a01b0316816001600160a01b0316837f2f8788117e7eff1d82e926ec794901d17c78024a50270940304540a733656f0d60405160405180910390a45050565b600061090a836001600160a01b03841661380a565b6137988282610e45565b15610d0f57600082815260c9602090815260408083206001600160a01b0385168085529252808320805460ff1916905551339285917ff6391f5c32d9c69d2a47ea670b442974b53935d1edc7fd64eb21e047a839171b9190a45050565b600061090a836001600160a01b038416613859565b6000818152600183016020526040812054613851575081546001818101845560008481526020808220909301849055845484825282860190935260409020919091556107da565b5060006107da565b6000818152600183016020526040812054801561394257600061387d600183614347565b855490915060009061389190600190614347565b90508181146138f65760008660000182815481106138b1576138b161435e565b90600052602060002001549050808760000184815481106138d4576138d461435e565b6000918252602080832090910192909255918252600188019052604090208390555b8554869080613907576139076146a1565b6001900381819060005260206000200160009055905585600101600086815260200190815260200160002060009055600193505050506107da565b60009150506107da565b604051806101c001604052806000815260200160006001600160a01b031681526020016000815260200160008152602001600081526020016000815260200160008152602001600081526020016000815260200160008152602001600081526020016000815260200160008152602001600081525090565b8280546139d090614270565b90600052602060002090601f0160209004810192826139f25760008555613a38565b82601f10613a0b57805160ff1916838001178555613a38565b82800160010185558215613a38579182015b82811115613a38578251825591602001919060010190613a1d565b50613a44929150613a9d565b5090565b828054828255906000526020600020908101928215613a38579160200282015b82811115613a3857825182546001600160a01b0319166001600160a01b03909116178255602090920191600190910190613a68565b5b80821115613a445760008155600101613a9e565b6001600160a01b0381168114610d3457600080fd5b60008083601f840112613ad957600080fd5b50813567ffffffffffffffff811115613af157600080fd5b602083019150836020828501011115613b0957600080fd5b9250929050565b60008060008060008060008060c0898b031215613b2c57600080fd5b8835613b3781613ab2565b97506020890135613b4781613ab2565b96506040890135613b5781613ab2565b955060608901359450608089013567ffffffffffffffff80821115613b7b57600080fd5b613b878c838d01613ac7565b909650945060a08b0135915080821115613ba057600080fd5b50613bad8b828c01613ac7565b999c989b5096995094979396929594505050565b600060208284031215613bd357600080fd5b81356001600160e01b03198116811461090a57600080fd5b6020808252825182820181905260009190848201906040850190845b81811015613c2c5783516001600160a01b031683529284019291840191600101613c07565b50909695505050505050565b60005b83811015613c53578181015183820152602001613c3b565b83811115610dfa5750506000910152565b60008151808452613c7c816020860160208601613c38565b601f01601f19169290920160200192915050565b60208152600061090a6020830184613c64565b60008060408385031215613cb657600080fd5b8235613cc181613ab2565b946020939093013593505050565b600060208284031215613ce157600080fd5b813561090a81613ab2565b60008060008060808587031215613d0257600080fd5b8435613d0d81613ab2565b93506020850135613d1d81613ab2565b93969395505050506040820135916060013590565b600080600060608486031215613d4757600080fd5b8335613d5281613ab2565b92506020840135613d6281613ab2565b929592945050506040919091013590565b600060208284031215613d8557600080fd5b5035919050565b60008060008060008060008060008060006101608c8e031215613dae57600080fd5b8b359a5060208c0135613dc081613ab2565b9a9d9a9c505050506040890135986060810135986080820135985060a0820135975060c0820135965060e0820135955061010082013594506101208201359350610140909101359150565b60008060408385031215613e1e57600080fd5b823591506020830135613e3081613ab2565b809150509250929050565b634e487b7160e01b600052604160045260246000fd5b604051610140810167ffffffffffffffff81118282101715613e7557613e75613e3b565b60405290565b600082601f830112613e8c57600080fd5b813567ffffffffffffffff80821115613ea757613ea7613e3b565b604051601f8301601f19908116603f01168101908282118183101715613ecf57613ecf613e3b565b81604052838152866020858801011115613ee857600080fd5b836020870160208301376000602085830101528094505050505092915050565b600080600080600060a08688031215613f2057600080fd5b8535613f2b81613ab2565b94506020860135613f3b81613ab2565b935060408601359250606086013567ffffffffffffffff80821115613f5f57600080fd5b613f6b89838a01613e7b565b93506080880135915080821115613f8157600080fd5b50613f8e88828901613e7b565b9150509295509295909350565b60008060408385031215613fae57600080fd5b50508035926020909101359150565b600080600060608486031215613fd257600080fd5b8335613fdd81613ab2565b925060208401359150604084013567ffffffffffffffff81111561400057600080fd5b61400c86828701613e7b565b9150509250925092565b6000806020838503121561402957600080fd5b823567ffffffffffffffff8082111561404157600080fd5b818501915085601f83011261405557600080fd5b81358181111561406457600080fd5b8660208260051b850101111561407957600080fd5b60209290920196919550909350505050565b8051825260208101516140a960208401826001600160a01b03169052565b5060408181015190830152606080820151908301526080808201519083015260a0808201519083015260c0808201519083015260e08082015190830152610100808201519083015261012080820151908301526101408082015190830152610160808201519083015261018080820151908301526101a090810151910152565b6020808252825182820181905260009190848201906040850190845b81811015613c2c5761415883855161408b565b928401926101c09290920191600101614145565b6101c081016107da828461408b565b6000806040838503121561418e57600080fd5b823561419981613ab2565b91506020830135613e3081613ab2565b600080600080608085870312156141bf57600080fd5b84356141ca81613ab2565b935060208501359250604085013567ffffffffffffffff808211156141ee57600080fd5b6141fa88838901613e7b565b9350606087013591508082111561421057600080fd5b5061421d87828801613e7b565b91505092959194509250565b6000806040838503121561423c57600080fd5b82359150602083013567ffffffffffffffff81111561425a57600080fd5b61426685828601613e7b565b9150509250929050565b600181811c9082168061428457607f821691505b602082108114156142a557634e487b7160e01b600052602260045260246000fd5b50919050565b60208082526010908201526f14185d5cd8589b194e881c185d5cd95960821b604082015260600190565b634e487b7160e01b600052601160045260246000fd5b600082198211156142fe576142fe6142d5565b500190565b60208082526024908201527f4552433737373a207472616e7366657220746f20746865207a65726f206164646040820152637265737360e01b606082015260800190565b600082821015614359576143596142d5565b500390565b634e487b7160e01b600052603260045260246000fd5b6000600019821415614388576143886142d5565b5060010190565b6000604082840312156143a157600080fd5b6040516040810181811067ffffffffffffffff821117156143c4576143c4613e3b565b60405282356143d281613ab2565b81526020928301359281019290925250919050565b6000602082840312156143f957600080fd5b5051919050565b7f416363657373436f6e74726f6c3a206163636f756e7420000000000000000000815260008351614438816017850160208801613c38565b7001034b99036b4b9b9b4b733903937b6329607d1b6017918401918201528351614469816028840160208801613c38565b01602801949350505050565b83815260606020820152600061448e6060830185613c64565b82810360408401526144a08185613c64565b9695505050505050565b80516144b581613ab2565b919050565b6000602082840312156144cc57600080fd5b815161090a81613ab2565b6001600160a01b0387811682528681166020830152851660408201526060810184905260c06080820181905260009061451290830185613c64565b82810360a08401526145248185613c64565b9998505050505050505050565b6000610140828403121561454457600080fd5b61454c613e51565b614555836144aa565b81526020830151602082015260408301516040820152606083015160608201526080830151608082015260a083015160a082015260c083015160c082015260e083015160e08201526101008084015181830152506101208084015181830152508091505092915050565b6020808252602b908201527f496e697469616c697a61626c653a20636f6e7472616374206973206e6f74206960408201526a6e697469616c697a696e6760a81b606082015260800190565b6000816000190483118215151615614624576146246142d5565b500290565b600081614638576146386142d5565b506000190190565b60008083128015600160ff1b85018412161561465e5761465e6142d5565b6001600160ff1b0384018313811615614679576146796142d5565b50500390565b60008261469c57634e487b7160e01b600052601260045260246000fd5b500490565b634e487b7160e01b600052603160045260246000fdfea52f07bb8dc8df886598eb50edeaba2b8e45715237ed244354b60ea04d0390b865d7a28e3265b37a6474929f336521b332c1681b933f6cb9f3376673440d862aa26469706673582212205723ce53f59a38734cd5371d10387a05a8d4f2692343972e2ea8499ff8b6314764736f6c634300080a0033",
  "linkReferences": {},
  "deployedLinkReferences": {}
}