{
  "_format": "hh-sol-artifact-1",
  "contractName": "LockedNORI",
  "sourceName": "contracts/LockedNORI.sol",
  "abi": [
    {
      "anonymous": false,
      "inputs": [
        {
          "indexed": true,
          "internalType": "address",
          "name": "owner",
          "type": "address"
        },
        {
          "indexed": true,
          "internalType": "address",
          "name": "spender",
          "type": "address"
        },
        {
          "indexed": false,
          "internalType": "uint256",
          "name": "value",
          "type": "uint256"
        }
      ],
      "name": "Approval",
      "type": "event"
    },
    {
      "anonymous": false,
      "inputs": [
        {
          "indexed": true,
          "internalType": "address",
          "name": "operator",
          "type": "address"
        },
        {
          "indexed": true,
          "internalType": "address",
          "name": "tokenHolder",
          "type": "address"
        }
      ],
      "name": "AuthorizedOperator",
      "type": "event"
    },
    {
      "anonymous": false,
      "inputs": [
        {
          "indexed": true,
          "internalType": "address",
          "name": "operator",
          "type": "address"
        },
        {
          "indexed": true,
          "internalType": "address",
          "name": "from",
          "type": "address"
        },
        {
          "indexed": false,
          "internalType": "uint256",
          "name": "amount",
          "type": "uint256"
        },
        {
          "indexed": false,
          "internalType": "bytes",
          "name": "data",
          "type": "bytes"
        },
        {
          "indexed": false,
          "internalType": "bytes",
          "name": "operatorData",
          "type": "bytes"
        }
      ],
      "name": "Burned",
      "type": "event"
    },
    {
      "anonymous": false,
      "inputs": [
        {
          "indexed": true,
          "internalType": "address",
          "name": "operator",
          "type": "address"
        },
        {
          "indexed": true,
          "internalType": "address",
          "name": "to",
          "type": "address"
        },
        {
          "indexed": false,
          "internalType": "uint256",
          "name": "amount",
          "type": "uint256"
        },
        {
          "indexed": false,
          "internalType": "bytes",
          "name": "data",
          "type": "bytes"
        },
        {
          "indexed": false,
          "internalType": "bytes",
          "name": "operatorData",
          "type": "bytes"
        }
      ],
      "name": "Minted",
      "type": "event"
    },
    {
      "anonymous": false,
      "inputs": [
        {
          "indexed": false,
          "internalType": "address",
          "name": "account",
          "type": "address"
        }
      ],
      "name": "Paused",
      "type": "event"
    },
    {
      "anonymous": false,
      "inputs": [
        {
          "indexed": true,
          "internalType": "address",
          "name": "operator",
          "type": "address"
        },
        {
          "indexed": true,
          "internalType": "address",
          "name": "tokenHolder",
          "type": "address"
        }
      ],
      "name": "RevokedOperator",
      "type": "event"
    },
    {
      "anonymous": false,
      "inputs": [
        {
          "indexed": true,
          "internalType": "bytes32",
          "name": "role",
          "type": "bytes32"
        },
        {
          "indexed": true,
          "internalType": "bytes32",
          "name": "previousAdminRole",
          "type": "bytes32"
        },
        {
          "indexed": true,
          "internalType": "bytes32",
          "name": "newAdminRole",
          "type": "bytes32"
        }
      ],
      "name": "RoleAdminChanged",
      "type": "event"
    },
    {
      "anonymous": false,
      "inputs": [
        {
          "indexed": true,
          "internalType": "bytes32",
          "name": "role",
          "type": "bytes32"
        },
        {
          "indexed": true,
          "internalType": "address",
          "name": "account",
          "type": "address"
        },
        {
          "indexed": true,
          "internalType": "address",
          "name": "sender",
          "type": "address"
        }
      ],
      "name": "RoleGranted",
      "type": "event"
    },
    {
      "anonymous": false,
      "inputs": [
        {
          "indexed": true,
          "internalType": "bytes32",
          "name": "role",
          "type": "bytes32"
        },
        {
          "indexed": true,
          "internalType": "address",
          "name": "account",
          "type": "address"
        },
        {
          "indexed": true,
          "internalType": "address",
          "name": "sender",
          "type": "address"
        }
      ],
      "name": "RoleRevoked",
      "type": "event"
    },
    {
      "anonymous": false,
      "inputs": [
        {
          "indexed": true,
          "internalType": "address",
          "name": "operator",
          "type": "address"
        },
        {
          "indexed": true,
          "internalType": "address",
          "name": "from",
          "type": "address"
        },
        {
          "indexed": true,
          "internalType": "address",
          "name": "to",
          "type": "address"
        },
        {
          "indexed": false,
          "internalType": "uint256",
          "name": "amount",
          "type": "uint256"
        },
        {
          "indexed": false,
          "internalType": "bytes",
          "name": "data",
          "type": "bytes"
        },
        {
          "indexed": false,
          "internalType": "bytes",
          "name": "operatorData",
          "type": "bytes"
        }
      ],
      "name": "Sent",
      "type": "event"
    },
    {
      "anonymous": false,
      "inputs": [
        {
          "indexed": true,
          "internalType": "address",
          "name": "recipient",
          "type": "address"
        },
        {
          "indexed": false,
          "internalType": "uint256",
          "name": "amount",
          "type": "uint256"
        },
        {
          "indexed": false,
          "internalType": "uint256",
          "name": "startTime",
          "type": "uint256"
        },
        {
          "indexed": false,
          "internalType": "uint256",
          "name": "vestEndTime",
          "type": "uint256"
        },
        {
          "indexed": false,
          "internalType": "uint256",
          "name": "unlockEndTime",
          "type": "uint256"
        }
      ],
      "name": "TokenGrantCreated",
      "type": "event"
    },
    {
      "anonymous": false,
      "inputs": [
        {
          "indexed": false,
          "internalType": "address",
          "name": "account",
          "type": "address"
        },
        {
          "indexed": false,
          "internalType": "uint256",
          "name": "quantity",
          "type": "uint256"
        }
      ],
      "name": "TokensClaimed",
      "type": "event"
    },
    {
      "anonymous": false,
      "inputs": [
        {
          "indexed": true,
          "internalType": "address",
          "name": "from",
          "type": "address"
        },
        {
          "indexed": true,
          "internalType": "address",
          "name": "to",
          "type": "address"
        },
        {
          "indexed": false,
          "internalType": "uint256",
          "name": "value",
          "type": "uint256"
        }
      ],
      "name": "Transfer",
      "type": "event"
    },
    {
      "anonymous": false,
      "inputs": [
        {
          "indexed": false,
          "internalType": "address",
          "name": "account",
          "type": "address"
        }
      ],
      "name": "Unpaused",
      "type": "event"
    },
    {
      "anonymous": false,
      "inputs": [
        {
          "indexed": false,
          "internalType": "uint256",
          "name": "atTime",
          "type": "uint256"
        },
        {
          "indexed": false,
          "internalType": "address",
          "name": "from",
          "type": "address"
        },
        {
          "indexed": false,
          "internalType": "uint256",
          "name": "quantity",
          "type": "uint256"
        }
      ],
      "name": "UnvestedTokensRevoked",
      "type": "event"
    },
    {
      "inputs": [],
      "name": "DEFAULT_ADMIN_ROLE",
      "outputs": [
        {
          "internalType": "bytes32",
          "name": "",
          "type": "bytes32"
        }
      ],
      "stateMutability": "view",
      "type": "function"
    },
    {
      "inputs": [],
      "name": "MINTER_ROLE",
      "outputs": [
        {
          "internalType": "bytes32",
          "name": "",
          "type": "bytes32"
        }
      ],
      "stateMutability": "view",
      "type": "function"
    },
    {
      "inputs": [],
      "name": "PAUSER_ROLE",
      "outputs": [
        {
          "internalType": "bytes32",
          "name": "",
          "type": "bytes32"
        }
      ],
      "stateMutability": "view",
      "type": "function"
    },
    {
      "inputs": [],
      "name": "TOKEN_GRANTER_ROLE",
      "outputs": [
        {
          "internalType": "bytes32",
          "name": "",
          "type": "bytes32"
        }
      ],
      "stateMutability": "view",
      "type": "function"
    },
    {
      "inputs": [
        {
          "internalType": "address",
          "name": "holder",
          "type": "address"
        },
        {
          "internalType": "address",
          "name": "spender",
          "type": "address"
        }
      ],
      "name": "allowance",
      "outputs": [
        {
          "internalType": "uint256",
          "name": "",
          "type": "uint256"
        }
      ],
      "stateMutability": "view",
      "type": "function"
    },
    {
      "inputs": [
        {
          "internalType": "address",
          "name": "spender",
          "type": "address"
        },
        {
          "internalType": "uint256",
          "name": "value",
          "type": "uint256"
        }
      ],
      "name": "approve",
      "outputs": [
        {
          "internalType": "bool",
          "name": "",
          "type": "bool"
        }
      ],
      "stateMutability": "nonpayable",
      "type": "function"
    },
    {
      "inputs": [
        {
          "internalType": "address",
          "name": "operator",
          "type": "address"
        }
      ],
      "name": "authorizeOperator",
      "outputs": [],
      "stateMutability": "nonpayable",
      "type": "function"
    },
    {
      "inputs": [
        {
          "internalType": "address",
          "name": "account",
          "type": "address"
        }
      ],
      "name": "balanceOf",
      "outputs": [
        {
          "internalType": "uint256",
          "name": "",
          "type": "uint256"
        }
      ],
      "stateMutability": "view",
      "type": "function"
    },
    {
      "inputs": [
        {
          "internalType": "uint256",
          "name": "amount",
          "type": "uint256"
        }
      ],
      "name": "burn",
      "outputs": [],
      "stateMutability": "nonpayable",
      "type": "function"
    },
    {
      "inputs": [
        {
          "internalType": "uint256",
          "name": "amount",
          "type": "uint256"
        },
        {
          "internalType": "bytes",
          "name": "data",
          "type": "bytes"
        }
      ],
      "name": "burn",
      "outputs": [],
      "stateMutability": "nonpayable",
      "type": "function"
    },
    {
      "inputs": [
        {
          "internalType": "address",
          "name": "account",
          "type": "address"
        },
        {
          "internalType": "uint256",
          "name": "amount",
          "type": "uint256"
        }
      ],
      "name": "burnFrom",
      "outputs": [],
      "stateMutability": "nonpayable",
      "type": "function"
    },
    {
      "inputs": [],
      "name": "decimals",
      "outputs": [
        {
          "internalType": "uint8",
          "name": "",
          "type": "uint8"
        }
      ],
      "stateMutability": "pure",
      "type": "function"
    },
    {
      "inputs": [
        {
          "internalType": "address",
          "name": "spender",
          "type": "address"
        },
        {
          "internalType": "uint256",
          "name": "subtractedValue",
          "type": "uint256"
        }
      ],
      "name": "decreaseAllowance",
      "outputs": [
        {
          "internalType": "bool",
          "name": "",
          "type": "bool"
        }
      ],
      "stateMutability": "nonpayable",
      "type": "function"
    },
    {
      "inputs": [],
      "name": "defaultOperators",
      "outputs": [
        {
          "internalType": "address[]",
          "name": "",
          "type": "address[]"
        }
      ],
      "stateMutability": "view",
      "type": "function"
    },
    {
      "inputs": [
        {
          "internalType": "address",
          "name": "account",
          "type": "address"
        }
      ],
      "name": "getGrant",
      "outputs": [
        {
          "components": [
            {
              "internalType": "uint256",
              "name": "grantAmount",
              "type": "uint256"
            },
            {
              "internalType": "address",
              "name": "recipient",
              "type": "address"
            },
            {
              "internalType": "uint256",
              "name": "startTime",
              "type": "uint256"
            },
            {
              "internalType": "uint256",
              "name": "vestEndTime",
              "type": "uint256"
            },
            {
              "internalType": "uint256",
              "name": "unlockEndTime",
              "type": "uint256"
            },
            {
              "internalType": "uint256",
              "name": "cliff1Time",
              "type": "uint256"
            },
            {
              "internalType": "uint256",
              "name": "cliff2Time",
              "type": "uint256"
            },
            {
              "internalType": "uint256",
              "name": "vestCliff1Amount",
              "type": "uint256"
            },
            {
              "internalType": "uint256",
              "name": "vestCliff2Amount",
              "type": "uint256"
            },
            {
              "internalType": "uint256",
              "name": "unlockCliff1Amount",
              "type": "uint256"
            },
            {
              "internalType": "uint256",
              "name": "unlockCliff2Amount",
              "type": "uint256"
            },
            {
              "internalType": "uint256",
              "name": "claimedAmount",
              "type": "uint256"
            },
            {
              "internalType": "uint256",
              "name": "originalAmount",
              "type": "uint256"
            }
          ],
          "internalType": "struct LockedNORI.TokenGrantDetail",
          "name": "",
          "type": "tuple"
        }
      ],
      "stateMutability": "view",
      "type": "function"
    },
    {
      "inputs": [
        {
          "internalType": "bytes32",
          "name": "role",
          "type": "bytes32"
        }
      ],
      "name": "getRoleAdmin",
      "outputs": [
        {
          "internalType": "bytes32",
          "name": "",
          "type": "bytes32"
        }
      ],
      "stateMutability": "view",
      "type": "function"
    },
    {
      "inputs": [
        {
          "internalType": "bytes32",
          "name": "role",
          "type": "bytes32"
        },
        {
          "internalType": "uint256",
          "name": "index",
          "type": "uint256"
        }
      ],
      "name": "getRoleMember",
      "outputs": [
        {
          "internalType": "address",
          "name": "",
          "type": "address"
        }
      ],
      "stateMutability": "view",
      "type": "function"
    },
    {
      "inputs": [
        {
          "internalType": "bytes32",
          "name": "role",
          "type": "bytes32"
        }
      ],
      "name": "getRoleMemberCount",
      "outputs": [
        {
          "internalType": "uint256",
          "name": "",
          "type": "uint256"
        }
      ],
      "stateMutability": "view",
      "type": "function"
    },
    {
      "inputs": [
        {
          "internalType": "bytes32",
          "name": "role",
          "type": "bytes32"
        },
        {
          "internalType": "address",
          "name": "account",
          "type": "address"
        }
      ],
      "name": "grantRole",
      "outputs": [],
      "stateMutability": "nonpayable",
      "type": "function"
    },
    {
      "inputs": [
        {
          "internalType": "uint256",
          "name": "amount",
          "type": "uint256"
        },
        {
          "internalType": "address",
          "name": "recipient",
          "type": "address"
        },
        {
          "internalType": "uint256",
          "name": "startTime",
          "type": "uint256"
        },
        {
          "internalType": "uint256",
          "name": "vestEndTime",
          "type": "uint256"
        },
        {
          "internalType": "uint256",
          "name": "unlockEndTime",
          "type": "uint256"
        },
        {
          "internalType": "uint256",
          "name": "cliff1Time",
          "type": "uint256"
        },
        {
          "internalType": "uint256",
          "name": "cliff2Time",
          "type": "uint256"
        },
        {
          "internalType": "uint256",
          "name": "vestCliff1Amount",
          "type": "uint256"
        },
        {
          "internalType": "uint256",
          "name": "vestCliff2Amount",
          "type": "uint256"
        },
        {
          "internalType": "uint256",
          "name": "unlockCliff1Amount",
          "type": "uint256"
        },
        {
          "internalType": "uint256",
          "name": "unlockCliff2Amount",
          "type": "uint256"
        }
      ],
      "name": "grantTo",
      "outputs": [],
      "stateMutability": "nonpayable",
      "type": "function"
    },
    {
      "inputs": [],
      "name": "granularity",
      "outputs": [
        {
          "internalType": "uint256",
          "name": "",
          "type": "uint256"
        }
      ],
      "stateMutability": "view",
      "type": "function"
    },
    {
      "inputs": [
        {
          "internalType": "bytes32",
          "name": "role",
          "type": "bytes32"
        },
        {
          "internalType": "address",
          "name": "account",
          "type": "address"
        }
      ],
      "name": "hasRole",
      "outputs": [
        {
          "internalType": "bool",
          "name": "",
          "type": "bool"
        }
      ],
      "stateMutability": "view",
      "type": "function"
    },
    {
      "inputs": [
        {
          "internalType": "address",
          "name": "spender",
          "type": "address"
        },
        {
          "internalType": "uint256",
          "name": "addedValue",
          "type": "uint256"
        }
      ],
      "name": "increaseAllowance",
      "outputs": [
        {
          "internalType": "bool",
          "name": "",
          "type": "bool"
        }
      ],
      "stateMutability": "nonpayable",
      "type": "function"
    },
    {
      "inputs": [
        {
          "internalType": "string",
          "name": "name",
          "type": "string"
        },
        {
          "internalType": "string",
          "name": "symbol",
          "type": "string"
        }
      ],
      "name": "initialize",
      "outputs": [],
      "stateMutability": "nonpayable",
      "type": "function"
    },
    {
      "inputs": [
        {
          "internalType": "contract IERC777Upgradeable",
          "name": "noriAddress",
          "type": "address"
        }
      ],
      "name": "initialize",
      "outputs": [],
      "stateMutability": "nonpayable",
      "type": "function"
    },
    {
      "inputs": [
        {
          "internalType": "address",
          "name": "operator",
          "type": "address"
        },
        {
          "internalType": "address",
          "name": "tokenHolder",
          "type": "address"
        }
      ],
      "name": "isOperatorFor",
      "outputs": [
        {
          "internalType": "bool",
          "name": "",
          "type": "bool"
        }
      ],
      "stateMutability": "view",
      "type": "function"
    },
    {
      "inputs": [
        {
          "internalType": "address",
          "name": "to",
          "type": "address"
        },
        {
          "internalType": "uint256",
          "name": "amount",
          "type": "uint256"
        }
      ],
      "name": "mint",
      "outputs": [],
      "stateMutability": "nonpayable",
      "type": "function"
    },
    {
      "inputs": [],
      "name": "name",
      "outputs": [
        {
          "internalType": "string",
          "name": "",
          "type": "string"
        }
      ],
      "stateMutability": "view",
      "type": "function"
    },
    {
      "inputs": [
        {
          "internalType": "address",
          "name": "account",
          "type": "address"
        },
        {
          "internalType": "uint256",
          "name": "amount",
          "type": "uint256"
        },
        {
          "internalType": "bytes",
          "name": "data",
          "type": "bytes"
        },
        {
          "internalType": "bytes",
          "name": "operatorData",
          "type": "bytes"
        }
      ],
      "name": "operatorBurn",
      "outputs": [],
      "stateMutability": "nonpayable",
      "type": "function"
    },
    {
      "inputs": [
        {
          "internalType": "address",
          "name": "sender",
          "type": "address"
        },
        {
          "internalType": "address",
          "name": "recipient",
          "type": "address"
        },
        {
          "internalType": "uint256",
          "name": "amount",
          "type": "uint256"
        },
        {
          "internalType": "bytes",
          "name": "data",
          "type": "bytes"
        },
        {
          "internalType": "bytes",
          "name": "operatorData",
          "type": "bytes"
        }
      ],
      "name": "operatorSend",
      "outputs": [],
      "stateMutability": "nonpayable",
      "type": "function"
    },
    {
      "inputs": [],
      "name": "pause",
      "outputs": [],
      "stateMutability": "nonpayable",
      "type": "function"
    },
    {
      "inputs": [],
      "name": "paused",
      "outputs": [
        {
          "internalType": "bool",
          "name": "",
          "type": "bool"
        }
      ],
      "stateMutability": "view",
      "type": "function"
    },
    {
      "inputs": [
        {
          "internalType": "address",
          "name": "account",
          "type": "address"
        }
      ],
      "name": "quantityRevokedFrom",
      "outputs": [
        {
          "internalType": "uint256",
          "name": "",
          "type": "uint256"
        }
      ],
      "stateMutability": "view",
      "type": "function"
    },
    {
      "inputs": [
        {
          "internalType": "bytes32",
          "name": "role",
          "type": "bytes32"
        },
        {
          "internalType": "address",
          "name": "account",
          "type": "address"
        }
      ],
      "name": "renounceRole",
      "outputs": [],
      "stateMutability": "nonpayable",
      "type": "function"
    },
    {
      "inputs": [
        {
          "internalType": "address",
          "name": "operator",
          "type": "address"
        }
      ],
      "name": "revokeOperator",
      "outputs": [],
      "stateMutability": "nonpayable",
      "type": "function"
    },
    {
      "inputs": [
        {
          "internalType": "bytes32",
          "name": "role",
          "type": "bytes32"
        },
        {
          "internalType": "address",
          "name": "account",
          "type": "address"
        }
      ],
      "name": "revokeRole",
      "outputs": [],
      "stateMutability": "nonpayable",
      "type": "function"
    },
    {
      "inputs": [
        {
          "internalType": "uint256",
          "name": "atTime",
          "type": "uint256"
        },
        {
          "internalType": "address",
          "name": "from",
          "type": "address"
        },
        {
          "internalType": "address",
          "name": "to",
          "type": "address"
        }
      ],
      "name": "revokeUnvestedTokens",
      "outputs": [],
      "stateMutability": "nonpayable",
      "type": "function"
    },
    {
      "inputs": [
        {
          "internalType": "address",
          "name": "recipient",
          "type": "address"
        },
        {
          "internalType": "uint256",
          "name": "amount",
          "type": "uint256"
        },
        {
          "internalType": "bytes",
          "name": "data",
          "type": "bytes"
        }
      ],
      "name": "send",
      "outputs": [],
      "stateMutability": "nonpayable",
      "type": "function"
    },
    {
      "inputs": [
        {
          "internalType": "bytes4",
          "name": "interfaceId",
          "type": "bytes4"
        }
      ],
      "name": "supportsInterface",
      "outputs": [
        {
          "internalType": "bool",
          "name": "",
          "type": "bool"
        }
      ],
      "stateMutability": "view",
      "type": "function"
    },
    {
      "inputs": [],
      "name": "symbol",
      "outputs": [
        {
          "internalType": "string",
          "name": "",
          "type": "string"
        }
      ],
      "stateMutability": "view",
      "type": "function"
    },
    {
      "inputs": [
        {
          "internalType": "uint256",
          "name": "branch",
          "type": "uint256"
        }
      ],
      "name": "testCoverage",
      "outputs": [
        {
          "internalType": "bool",
          "name": "",
          "type": "bool"
        }
      ],
      "stateMutability": "pure",
      "type": "function"
    },
    {
      "inputs": [
        {
          "internalType": "address",
          "name": "",
          "type": "address"
        },
        {
          "internalType": "address",
          "name": "",
          "type": "address"
        },
        {
          "internalType": "address",
          "name": "",
          "type": "address"
        },
        {
          "internalType": "uint256",
          "name": "amount",
          "type": "uint256"
        },
        {
          "internalType": "bytes",
          "name": "userData",
          "type": "bytes"
        },
        {
          "internalType": "bytes",
          "name": "operatorData",
          "type": "bytes"
        }
      ],
      "name": "tokensReceived",
      "outputs": [],
      "stateMutability": "nonpayable",
      "type": "function"
    },
    {
      "inputs": [],
      "name": "totalSupply",
      "outputs": [
        {
          "internalType": "uint256",
          "name": "",
          "type": "uint256"
        }
      ],
      "stateMutability": "view",
      "type": "function"
    },
    {
      "inputs": [
        {
          "internalType": "address",
          "name": "recipient",
          "type": "address"
        },
        {
          "internalType": "uint256",
          "name": "amount",
          "type": "uint256"
        }
      ],
      "name": "transfer",
      "outputs": [
        {
          "internalType": "bool",
          "name": "",
          "type": "bool"
        }
      ],
      "stateMutability": "nonpayable",
      "type": "function"
    },
    {
      "inputs": [
        {
          "internalType": "address",
          "name": "holder",
          "type": "address"
        },
        {
          "internalType": "address",
          "name": "recipient",
          "type": "address"
        },
        {
          "internalType": "uint256",
          "name": "amount",
          "type": "uint256"
        }
      ],
      "name": "transferFrom",
      "outputs": [
        {
          "internalType": "bool",
          "name": "",
          "type": "bool"
        }
      ],
      "stateMutability": "nonpayable",
      "type": "function"
    },
    {
      "inputs": [
        {
          "internalType": "address",
          "name": "account",
          "type": "address"
        }
      ],
      "name": "unlockedBalanceOf",
      "outputs": [
        {
          "internalType": "uint256",
          "name": "",
          "type": "uint256"
        }
      ],
      "stateMutability": "view",
      "type": "function"
    },
    {
      "inputs": [],
      "name": "unpause",
      "outputs": [],
      "stateMutability": "nonpayable",
      "type": "function"
    },
    {
      "inputs": [
        {
          "internalType": "address",
          "name": "account",
          "type": "address"
        }
      ],
      "name": "vestedBalanceOf",
      "outputs": [
        {
          "internalType": "uint256",
          "name": "",
          "type": "uint256"
        }
      ],
      "stateMutability": "view",
      "type": "function"
    },
    {
      "inputs": [
        {
          "internalType": "address",
          "name": "account",
          "type": "address"
        },
        {
          "internalType": "uint256",
          "name": "amount",
          "type": "uint256"
        }
      ],
      "name": "withdrawTo",
      "outputs": [
        {
          "internalType": "bool",
          "name": "",
          "type": "bool"
        }
      ],
      "stateMutability": "nonpayable",
      "type": "function"
    }
  ],
  "bytecode": "0x608060405234801561001057600080fd5b506147a8806100206000396000f3fe608060405234801561001057600080fd5b50600436106102ba5760003560e01c8063808b6b5611610182578063a9059cbb116100e9578063d95b6371116100a2578063e63ab1e91161007c578063e63ab1e91461063c578063fad8b32a14610651578063fc673c4f14610664578063fe9d93031461067757600080fd5b8063d95b637114610603578063dd62ed3e14610616578063df8026cc1461062957600080fd5b8063a9059cbb14610570578063bf31dbf414610583578063c4d66de8146105a3578063ca15c873146105b6578063d5391393146105c9578063d547741f146105f057600080fd5b806395d89b411161013b57806395d89b41146105145780639bd9bbc61461051c5780639c9e4cc51461052f5780639e3f3cac14610542578063a217fddf14610555578063a457c2d71461055d57600080fd5b8063808b6b56146104955780638456cb59146104a857806384955c88146104b05780639010d07c146104c357806391d14854146104ee578063959b8c3f1461050157600080fd5b806336568abe11610226578063556f0dc7116101df578063556f0dc7146104345780635c975abb1461043b57806362ad1b8314610447578063633d9be01461045a57806370a082311461046f57806379cc67901461048257600080fd5b806336568abe146103cd57806339509351146103e05780633f4ba83a146103f357806340c10f19146103fb57806342966c681461040e5780634cd88b761461042157600080fd5b806318160ddd1161027857806318160ddd1461035a578063205c28781461036257806323b872dd14610375578063248a9ca3146103885780632f2ff15d146103ab578063313ce567146103be57600080fd5b806223de29146102bf57806301ffc9a7146102d457806306e48538146102fc57806306fdde0314610311578063095ea7b3146103265780630e2d1a2a14610339575b600080fd5b6102d26102cd366004613b3d565b61068a565b005b6102e76102e2366004613bee565b610715565b60405190151581526020015b60405180910390f35b610304610740565b6040516102f39190613c18565b6103196107a2565b6040516102f39190613cbd565b6102e7610334366004613cd0565b6107b1565b61034c610347366004613cfc565b6107c4565b6040519081526020016102f3565b61034c6107d0565b6102e7610370366004613cd0565b6107db565b6102e7610383366004613d19565b6108f8565b61034c610396366004613d5a565b60009081526065602052604090206001015490565b6102d26103b9366004613d73565b61090d565b604051601281526020016102f3565b6102d26103db366004613d73565b610938565b6102e76103ee366004613cd0565b6109b6565b6102d26109fb565b6102d2610409366004613cd0565b610a8f565b6102d261041c366004613d5a565b610b2e565b6102d261042f366004613e70565b610b3b565b600161034c565b61015f5460ff166102e7565b6102d2610455366004613ed4565b610bb8565b61034c60008051602061471383398151915281565b61034c61047d366004613cfc565b610bf4565b6102d2610490366004613cd0565b610c12565b6102e76104a3366004613d5a565b610c93565b6102d2610cfc565b61034c6104be366004613cfc565b610d8e565b6104d66104d1366004613f67565b610d9a565b6040516001600160a01b0390911681526020016102f3565b6102e76104fc366004613d73565b610db2565b6102d261050f366004613cfc565b610ddd565b610319610e0a565b6102d261052a366004613f89565b610e14565b6102d261053d366004613fe2565b610e32565b61034c610550366004613cfc565b610e80565b61034c600081565b6102e761056b366004613cd0565b610ead565b6102e761057e366004613cd0565b610ee3565b610596610591366004613cfc565b610eef565b6040516102f39190614024565b6102d26105b1366004613cfc565b611031565b61034c6105c4366004613d5a565b6112a4565b61034c7f9f2df0fed2c77648de5860a4cc508cd0818c85b8b8a1ab4ceeef8d981c8956a681565b6102d26105fe366004613d73565b6112bb565b6102e76106113660046140c7565b6112e1565b61034c6106243660046140c7565b611382565b6102d26106373660046140f5565b6113af565b61034c60008051602061473383398151915281565b6102d261065f366004613cfc565b611471565b6102d2610672366004614174565b61158d565b6102d26106853660046141f4565b6115bf565b6101f6546001600160a01b031633146106fd5760405162461bcd60e51b815260206004820152602a60248201527f6c4e4f52493a205468697320636f6e74726163742063616e206f6e6c792072656044820152696365697665204e4f524960b01b60648201526084015b60405180910390fd5b61070a85858585856115da565b505050505050505050565b60006001600160e01b03198216635a05180f60e01b148061073a575061073a826116bc565b92915050565b606060cd80548060200260200160405190810160405280929190818152602001828054801561079857602002820191906000526020600020905b81546001600160a01b0316815260019091019060200180831161077a575b5050505050905090565b60606107ac6116f1565b905090565b60006107bd838361177a565b9392505050565b600061073a4283611792565b60006107ac60ca5490565b6001600160a01b03821660009081526101f56020526040812061081e33846040518060200160405280600081525060405180602001604052806000815250611864565b6101f654604051634decdde360e11b81526001600160a01b03868116600483015260248201869052606060448301526000606483015290911690639bd9bbc690608401600060405180830381600087803b15801561087b57600080fd5b505af115801561088f573d6000803e3d6000fd5b505050508281600b0160008282546108a79190614247565b9091555050604080516001600160a01b0386168152602081018590527f896e034966eaaf1adc54acc0f257056febbd300c9e47182cf761982cf1f5e430910160405180910390a15060019392505050565b6000610905848484611a14565b949350505050565b6000828152606560205260409020600101546109298133611bd6565b6109338383611c3a565b505050565b6001600160a01b03811633146109a85760405162461bcd60e51b815260206004820152602f60248201527f416363657373436f6e74726f6c3a2063616e206f6e6c792072656e6f756e636560448201526e103937b632b9903337b91039b2b63360891b60648201526084016106f4565b6109b28282611c5c565b5050565b33600081815260fc602090815260408083206001600160a01b038716845290915281205490916109f29185906109ed908690614247565b611c7e565b50600192915050565b610a1360008051602061473383398151915233610db2565b610a855760405162461bcd60e51b815260206004820152603960248201527f45524332305072657365744d696e7465725061757365723a206d75737420686160448201527f76652070617573657220726f6c6520746f20756e70617573650000000000000060648201526084016106f4565b610a8d611cad565b565b610ab97f9f2df0fed2c77648de5860a4cc508cd0818c85b8b8a1ab4ceeef8d981c8956a633610db2565b610b245760405162461bcd60e51b815260206004820152603660248201527f45524332305072657365744d696e7465725061757365723a206d7573742068616044820152751d99481b5a5b9d195c881c9bdb19481d1bc81b5a5b9d60521b60648201526084016106f4565b6109b28282611d42565b610b383382611e1b565b50565b600054610100900460ff16610b565760005460ff1615610b5a565b303b155b610b765760405162461bcd60e51b81526004016106f49061425f565b600054610100900460ff16158015610b98576000805461ffff19166101011790555b610ba28383611f63565b8015610933576000805461ff0019169055505050565b610bc233866112e1565b610bde5760405162461bcd60e51b81526004016106f4906142ad565b610bed85858585856001611fd6565b5050505050565b6001600160a01b038116600090815260c9602052604081205461073a565b6000610c1e8333611382565b905081811015610c7c5760405162461bcd60e51b8152602060048201526024808201527f45524332303a206275726e20616d6f756e74206578636565647320616c6c6f77604482015263616e636560e01b60648201526084016106f4565b610c898333848403611c7e565b6109338383611e1b565b60008160031480610ca45750816004145b15610cba578160031415610cba57506001919050565b8160011480610cc95750816002145b15610cf45760008260011415610ce25750600192915050565b82600214156109f25750600092915050565b506000919050565b610d1460008051602061473383398151915233610db2565b610d865760405162461bcd60e51b815260206004820152603760248201527f45524332305072657365744d696e7465725061757365723a206d75737420686160448201527f76652070617573657220726f6c6520746f20706175736500000000000000000060648201526084016106f4565b610a8d6120c2565b600061073a428361211c565b60008281526097602052604081206107bd90836121e5565b60009182526065602090815260408084206001600160a01b0393909316845291905290205460ff1690565b61015f5460ff1615610e015760405162461bcd60e51b81526004016106f4906142f9565b610b38816121f1565b60606107ac61230f565b61093333848484604051806020016040528060008152506001611fd6565b600080516020614713833981519152610e4b8133611bd6565b61015f5460ff1615610e6f5760405162461bcd60e51b81526004016106f4906142f9565b610e7a84848461231e565b50505050565b6001600160a01b03811660009081526101f560205260408120600a810154600c8201546107bd9190614323565b6000610ebc61015f5460ff1690565b15610ed95760405162461bcd60e51b81526004016106f4906142f9565b6107bd8383610ead565b60006107bd838361243c565b610f63604051806101a001604052806000815260200160006001600160a01b0316815260200160008152602001600081526020016000815260200160008152602001600081526020016000815260200160008152602001600081526020016000815260200160008152602001600081525090565b506001600160a01b031660008181526101f56020908152604080832081516101a081018352600a82015481528084019590955260058101548583015260018082015460608701526006820154608087015284805260088201808552838620805460a0890152828752818652848720805460c08a01528780526003850180885286892085015460e08b01528489528752948720830154610100890152820154610120880152948190529390925290910154610140830152600b810154610160830152600c015461018082015290565b600054610100900460ff1661104c5760005460ff1615611050565b303b155b61106c5760405162461bcd60e51b81526004016106f49061425f565b600054610100900460ff1615801561108e576000805461ffff19166101011790555b6110966124ef565b61109e6124ef565b6110a66124ef565b6110ae6124ef565b6110b66124ef565b6110be612516565b6110c66124ef565b6111106040518060400160405280600b81526020016a4c6f636b6564204e4f524960a81b815250604051806040016040528060058152602001646c4e4f524960d81b81525061254a565b6040805160018082528183019092526000916020808301908036833701905050905033816000815181106111465761114661433a565b60200260200101906001600160a01b031690816001600160a01b0316815250506111b16040518060400160405280600b81526020016a4c6f636b6564204e4f524960a81b815250604051806040016040528060058152602001646c4e4f524960d81b815250836125be565b6111bc6000336127a8565b6111d4600080516020614713833981519152336127a8565b6101f680546001600160a01b03199081166001600160a01b038616179091556101f78054731820a4b7618bde71dce8cdc73aab6c95905fad249216821790556040516329965a1d60e01b815230600482018190527fb281fc8c12954d22544db45de3159a39272895b169a852b314f9cc762e44c53b602483015260448201526329965a1d90606401600060405180830381600087803b15801561127657600080fd5b505af115801561128a573d6000803e3d6000fd5b505050505080156109b2576000805461ff00191690555050565b600081815260976020526040812061073a906127b2565b6000828152606560205260409020600101546112d78133611bd6565b6109338383611c5c565b6000816001600160a01b0316836001600160a01b0316148061134c57506001600160a01b038316600090815260ce602052604090205460ff16801561134c57506001600160a01b03808316600090815260d0602090815260408083209387168352929052205460ff16155b806107bd5750506001600160a01b03908116600090815260cf602090815260408083209490931682529290925290205460ff1690565b6001600160a01b03808316600090815260d1602090815260408083209385168352929052908120546107bd565b61015f5460ff16156113d35760405162461bcd60e51b81526004016106f4906142f9565b6000805160206147138339815191526113ec8133611bd6565b604080516001600160a01b038d1660208201529081018b9052606081018a90526080810189905260a0810188905260c0810187905260e081018690526101008101859052610120810184905261014081018390526000906101600160405160208183030381529060405290506114628d826127bc565b50505050505050505050505050565b6001600160a01b0381163314156114d45760405162461bcd60e51b815260206004820152602160248201527f4552433737373a207265766f6b696e672073656c66206173206f70657261746f6044820152603960f91b60648201526084016106f4565b6001600160a01b038116600090815260ce602052604090205460ff16156115285733600090815260d0602090815260408083206001600160a01b03851684529091529020805460ff19166001179055611554565b33600090815260cf602090815260408083206001600160a01b03851684529091529020805460ff191690555b60405133906001600160a01b038316907f50546e66e5f44d728365dc3908c63bc5cfeeab470722c1677e3073a6ac294aa190600090a350565b61159733856112e1565b6115b35760405162461bcd60e51b81526004016106f4906142ad565b610e7a84848484611864565b6109b233838360405180602001604052806000815250611864565b6000806115e985870187614350565b602081015190915015611636576116368787878080601f0160208091040260200160405190810160405280939291908181526020018383808284376000920191909152506127bc92505050565b6116af81600001518888888080601f01602080910402602001604051908101604052809392919081815260200183838082843760009201919091525050604080516020601f8c018190048102820181019092528a815292508a91508990819084018382808284376000920191909152506129f692505050565b5060019695505050505050565b60006001600160e01b03198216637965db0b60e01b148061073a57506301ffc9a760e01b6001600160e01b031983161461073a565b606060cb8054611700906143a8565b80601f016020809104026020016040519081016040528092919081815260200182805461172c906143a8565b80156107985780601f1061174e57610100808354040283529160200191610798565b820191906000526020600020905b81548152906001019060200180831161175c57509395945050505050565b600033611788818585611c7e565b5060019392505050565b6001600160a01b03811660008181526101f5602052604080822090516370a0823160e01b815260048101939093529091829030906370a0823190602401602060405180830381865afa1580156117ec573d6000803e3d6000fd5b505050506040513d601f19601f8201168201806040525081019061181091906143e3565b600d83015490915060ff16156109055781541561184757600b8201546118368387612a04565b6118409190614323565b9050610905565b81600b015482600a015461185b9190614323565b95945050505050565b6001600160a01b0384166118c55760405162461bcd60e51b815260206004820152602260248201527f4552433737373a206275726e2066726f6d20746865207a65726f206164647265604482015261737360f01b60648201526084016106f4565b336118d581866000878787612a24565b6118e28186600087612b4b565b6001600160a01b038516600090815260c96020526040902054848110156119575760405162461bcd60e51b815260206004820152602360248201527f4552433737373a206275726e20616d6f756e7420657863656564732062616c616044820152626e636560e81b60648201526084016106f4565b6001600160a01b038616600090815260c960205260408120868303905560ca8054879290611986908490614323565b92505081905550856001600160a01b0316826001600160a01b03167fa78a9be3a7b862d26933ad85fb11d80ef66b8f972d7cbba06621d583943a40988787876040516119d4939291906143fc565b60405180910390a36040518581526000906001600160a01b03881690600080516020614753833981519152906020015b60405180910390a3505050505050565b60006001600160a01b038316611a3c5760405162461bcd60e51b81526004016106f490614431565b6001600160a01b038416611aa15760405162461bcd60e51b815260206004820152602660248201527f4552433737373a207472616e736665722066726f6d20746865207a65726f206160448201526564647265737360d01b60648201526084016106f4565b6000339050611ad2818686866040518060200160405280600081525060405180602001604052806000815250612a24565b6001600160a01b03808616600090815260d160209081526040808320938516835292905220546000198114611b705783811015611b635760405162461bcd60e51b815260206004820152602960248201527f4552433737373a207472616e7366657220616d6f756e74206578636565647320604482015268616c6c6f77616e636560b81b60648201526084016106f4565b611b708683868403611c7e565b611b9c828787876040518060200160405280600081525060405180602001604052806000815250612c24565b611bca8287878760405180602001604052806000815250604051806020016040528060008152506000612d84565b50600195945050505050565b611be08282610db2565b6109b257611bf8816001600160a01b03166014612f49565b611c03836020612f49565b604051602001611c14929190614475565b60408051601f198184030181529082905262461bcd60e51b82526106f491600401613cbd565b611c4482826130e5565b6000828152609760205260409020610933908261316b565b611c668282613180565b600082815260976020526040902061093390826131e7565b61015f5460ff1615611ca25760405162461bcd60e51b81526004016106f4906142f9565b6109338383836131fc565b61015f5460ff16611cf75760405162461bcd60e51b815260206004820152601460248201527314185d5cd8589b194e881b9bdd081c185d5cd95960621b60448201526064016106f4565b61015f805460ff191690557f5db9ee0a495bf2e6ff9c91a7834c1ba4fdd244a5e8aa4e537bd38aeae4b073aa335b6040516001600160a01b03909116815260200160405180910390a1565b6001600160a01b038216611d985760405162461bcd60e51b815260206004820152601f60248201527f45524332303a206d696e7420746f20746865207a65726f20616464726573730060448201526064016106f4565b611da460008383613323565b8060fd6000828254611db69190614247565b90915550506001600160a01b038216600090815260fb602052604081208054839290611de3908490614247565b90915550506040518181526001600160a01b038316906000906000805160206147538339815191529060200160405180910390a35050565b6001600160a01b038216611e7b5760405162461bcd60e51b815260206004820152602160248201527f45524332303a206275726e2066726f6d20746865207a65726f206164647265736044820152607360f81b60648201526084016106f4565b611e8782600083613323565b6001600160a01b038216600090815260fb602052604090205481811015611efb5760405162461bcd60e51b815260206004820152602260248201527f45524332303a206275726e20616d6f756e7420657863656564732062616c616e604482015261636560f01b60648201526084016106f4565b6001600160a01b038316600090815260fb60205260408120838303905560fd8054849290611f2a908490614323565b90915550506040518281526000906001600160a01b038516906000805160206147538339815191529060200160405180910390a3505050565b600054610100900460ff16611f8a5760405162461bcd60e51b81526004016106f4906144ea565b611f926124ef565b611f9a6124ef565b611fa26124ef565b611faa6124ef565b611fb4828261332e565b611fbc6124ef565b611fc4612516565b611fcc6124ef565b6109b2828261254a565b6001600160a01b0386166120375760405162461bcd60e51b815260206004820152602260248201527f4552433737373a2073656e642066726f6d20746865207a65726f206164647265604482015261737360f01b60648201526084016106f4565b6001600160a01b03851661208d5760405162461bcd60e51b815260206004820181905260248201527f4552433737373a2073656e6420746f20746865207a65726f206164647265737360448201526064016106f4565b3361209c818888888888612a24565b6120aa818888888888612c24565b6120b981888888888888612d84565b50505050505050565b61015f5460ff16156120e65760405162461bcd60e51b81526004016106f4906142f9565b61015f805460ff191660011790557f62e78cea01bee320cd4e420270b5ea74000d11b0c9f74754ebdbfc544b05a258611d253390565b6001600160a01b03811660008181526101f5602052604080822090516370a0823160e01b815260048101939093529091829030906370a0823190602401602060405180830381865afa158015612176573d6000803e3d6000fd5b505050506040513d601f19601f8201168201806040525081019061219a91906143e3565b600d83015490915060ff161561090557600b8201546121db6121d16121bf8589612a04565b6121cc600587018a612a04565b61337c565b84600a015461337c565b61185b9190614323565b60006107bd8383613392565b336001600160a01b03821614156122565760405162461bcd60e51b8152602060048201526024808201527f4552433737373a20617574686f72697a696e672073656c66206173206f70657260448201526330ba37b960e11b60648201526084016106f4565b6001600160a01b038116600090815260ce602052604090205460ff16156122a75733600090815260d0602090815260408083206001600160a01b03851684529091529020805460ff191690556122d6565b33600090815260cf602090815260408083206001600160a01b03851684529091529020805460ff191660011790555b60405133906001600160a01b038316907ff4caeb2d6ca8932a215a353d0703c326ec2d81fc68170f320eb2ab49e9df61f990600090a350565b606060cc8054611700906143a8565b6001600160a01b03821660009081526101f560205260409020600d81015460ff1661237c5760405162461bcd60e51b815260206004820152600e60248201526d139bc819dc985b9d08195e1a5cdd60921b60448201526064016106f4565b60006123888585611792565b905081600a0154811015610bed5760008183600a01546123a89190614323565b600a84018390556002840183905560018401879055604080518881526001600160a01b03881660208201529081018290529091507f0bbe3f9ae306d75ae6df08cd4a79ac5c6eae93ffae7d7e52f2859bf27592519d9060600160405180910390a16124348585836040518060200160405280600081525060405180602001604052806000815250610bb8565b505050505050565b60006001600160a01b0383166124645760405162461bcd60e51b81526004016106f490614431565b6000339050612495818286866040518060200160405280600081525060405180602001604052806000815250612a24565b6124c1818286866040518060200160405280600081525060405180602001604052806000815250612c24565b6117888182868660405180602001604052806000815250604051806020016040528060008152506000612d84565b600054610100900460ff16610a8d5760405162461bcd60e51b81526004016106f4906144ea565b600054610100900460ff1661253d5760405162461bcd60e51b81526004016106f4906144ea565b61015f805460ff19169055565b600054610100900460ff166125715760405162461bcd60e51b81526004016106f4906144ea565b61257c6000336127a8565b6125a67f9f2df0fed2c77648de5860a4cc508cd0818c85b8b8a1ab4ceeef8d981c8956a6336127a8565b6109b2600080516020614733833981519152336127a8565b600054610100900460ff166125e55760405162461bcd60e51b81526004016106f4906144ea565b82516125f89060cb9060208601906139f1565b50815161260c9060cc9060208501906139f1565b5080516126209060cd906020840190613a75565b5060005b815181101561268957600160ce60008484815181106126455761264561433a565b6020908102919091018101516001600160a01b03168252810191909152604001600020805460ff19169115159190911790558061268181614535565b915050612624565b506040516329965a1d60e01b815230600482018190527fac7fbab5f54a3ca8194167523c6753bfeb96a445279294b6125b68cce217705460248301526044820152731820a4b7618bde71dce8cdc73aab6c95905fad24906329965a1d90606401600060405180830381600087803b15801561270357600080fd5b505af1158015612717573d6000803e3d6000fd5b50506040516329965a1d60e01b815230600482018190527faea199e31a596269b42cdafd93407f14436db6e4cad65417994c2eb37381e05a60248301526044820152731820a4b7618bde71dce8cdc73aab6c95905fad2492506329965a1d9150606401600060405180830381600087803b15801561279457600080fd5b505af11580156120b9573d6000803e3d6000fd5b6109b28282611c3a565b600061073a825490565b6000818060200190518101906127d29190614560565b80519091506001600160a01b031661282c5760405162461bcd60e51b815260206004820181905260248201527f526563697069656e742063616e6e6f74206265207a65726f206164647265737360448201526064016106f4565b80516001600160a01b031660009081526101f56020908152604091829020600a8101869055600c8101869055600d8101805460ff19166001179055908301519183015190911015612944578161010001518260c0015110158061289857508161012001518260e0015110155b6129025760405162461bcd60e51b815260206004820152603560248201527f556e6c6f636b20636c69666620616d6f756e74732063616e6e6f7420657863656044820152746564207665737420636c69666620616d6f756e747360581b60648201526084016106f4565b600281018490556020820151815560408201516001820155608082015160c083015161292f9183916133bc565b60a082015160e08301516129449183916133bc565b600781018490556020820151600582019081556060830151600683015560808301516101008401516129779291906133bc565b60a08201516101208301516129909160058401916133bc565b815160208084015160408086015160608088015183518b815295860194909452918401528201526001600160a01b03909116907f17161516b6ce34594617177a800b150a86ddee02c06993a73ef000a02367d1199060800160405180910390a250505050565b610e7a848484846001613591565b6000612a1083836136c5565b612a1a8484613793565b6107bd9190614247565b60405163555ddc6560e11b81526001600160a01b03861660048201527f29ddb589b1fb5fc7cf394961c1adf5f8c6454761adf795e67fe149f658abe8956024820152600090731820a4b7618bde71dce8cdc73aab6c95905fad249063aabbb8ca90604401602060405180830381865afa158015612aa5573d6000803e3d6000fd5b505050506040513d601f19601f82011682018060405250810190612ac991906145ee565b90506001600160a01b038116156120b957604051633ad5cbc160e11b81526001600160a01b038216906375ab978290612b10908a908a908a908a908a908a9060040161460b565b600060405180830381600087803b158015612b2a57600080fd5b505af1158015612b3e573d6000803e3d6000fd5b5050505050505050505050565b61015f5460ff1615612b6f5760405162461bcd60e51b81526004016106f4906142f9565b6001600160a01b03831660008181526101f560205260409020600d0154901580159160ff16908290612b9e5750805b15612c19576000612baf8133610db2565b1590508015612c17576000612bc387610d8e565b905080851115612c155760405162461bcd60e51b815260206004820152601b60248201527f6c4e4f52493a20696e73756666696369656e742062616c616e6365000000000060448201526064016106f4565b505b505b612434858585613323565b612c3086868686612b4b565b6001600160a01b038516600090815260c9602052604090205483811015612ca95760405162461bcd60e51b815260206004820152602760248201527f4552433737373a207472616e7366657220616d6f756e7420657863656564732060448201526662616c616e636560c81b60648201526084016106f4565b6001600160a01b03808716600090815260c96020526040808220878503905591871681529081208054869290612ce0908490614247565b92505081905550846001600160a01b0316866001600160a01b0316886001600160a01b03167f06b541ddaa720db2b10a4d0cdac39b8d360425fc073085fac19bc82614677987878787604051612d38939291906143fc565b60405180910390a4846001600160a01b0316866001600160a01b031660008051602061475383398151915286604051612d7391815260200190565b60405180910390a350505050505050565b60405163555ddc6560e11b81526001600160a01b03861660048201527fb281fc8c12954d22544db45de3159a39272895b169a852b314f9cc762e44c53b6024820152600090731820a4b7618bde71dce8cdc73aab6c95905fad249063aabbb8ca90604401602060405180830381865afa158015612e05573d6000803e3d6000fd5b505050506040513d601f19601f82011682018060405250810190612e2991906145ee565b90506001600160a01b03811615612ea5576040516223de2960e01b81526001600160a01b038216906223de2990612e6e908b908b908b908b908b908b9060040161460b565b600060405180830381600087803b158015612e8857600080fd5b505af1158015612e9c573d6000803e3d6000fd5b50505050612f3f565b8115612f3f576001600160a01b0386163b15612f3f5760405162461bcd60e51b815260206004820152604d60248201527f4552433737373a20746f6b656e20726563697069656e7420636f6e747261637460448201527f20686173206e6f20696d706c656d656e74657220666f7220455243373737546f60648201526c1ad95b9cd49958da5c1a595b9d609a1b608482015260a4016106f4565b5050505050505050565b60606000612f58836002614665565b612f63906002614247565b67ffffffffffffffff811115612f7b57612f7b613da3565b6040519080825280601f01601f191660200182016040528015612fa5576020820181803683370190505b509050600360fc1b81600081518110612fc057612fc061433a565b60200101906001600160f81b031916908160001a905350600f60fb1b81600181518110612fef57612fef61433a565b60200101906001600160f81b031916908160001a9053506000613013846002614665565b61301e906001614247565b90505b6001811115613096576f181899199a1a9b1b9c1cb0b131b232b360811b85600f16601081106130525761305261433a565b1a60f81b8282815181106130685761306861433a565b60200101906001600160f81b031916908160001a90535060049490941c9361308f81614684565b9050613021565b5083156107bd5760405162461bcd60e51b815260206004820181905260248201527f537472696e67733a20686578206c656e67746820696e73756666696369656e7460448201526064016106f4565b6130ef8282610db2565b6109b25760008281526065602090815260408083206001600160a01b03851684529091529020805460ff191660011790556131273390565b6001600160a01b0316816001600160a01b0316837f2f8788117e7eff1d82e926ec794901d17c78024a50270940304540a733656f0d60405160405180910390a45050565b60006107bd836001600160a01b0384166137fd565b61318a8282610db2565b156109b25760008281526065602090815260408083206001600160a01b0385168085529252808320805460ff1916905551339285917ff6391f5c32d9c69d2a47ea670b442974b53935d1edc7fd64eb21e047a839171b9190a45050565b60006107bd836001600160a01b03841661384c565b6001600160a01b0383166132605760405162461bcd60e51b815260206004820152602560248201527f4552433737373a20617070726f76652066726f6d20746865207a65726f206164604482015264647265737360d81b60648201526084016106f4565b6001600160a01b0382166132c25760405162461bcd60e51b815260206004820152602360248201527f4552433737373a20617070726f766520746f20746865207a65726f206164647260448201526265737360e81b60648201526084016106f4565b6001600160a01b03838116600081815260d1602090815260408083209487168084529482529182902085905590518481527f8c5be1e5ebec7d5bd14f71427d1e84f3dd0314c0f7b2291e5b200ac8c7c3b925910160405180910390a3505050565b61093383838361393f565b600054610100900460ff166133555760405162461bcd60e51b81526004016106f4906144ea565b81516133689060fe9060208501906139f1565b5080516109339060ff9060208401906139f1565b600081831061338b57816107bd565b5090919050565b60008260000182815481106133a9576133a961433a565b9060005260206000200154905092915050565b600483015461341b5782548210156134165760405162461bcd60e51b815260206004820152601b60248201527f436c696666206265666f7265207363686564756c65207374617274000000000060448201526064016106f4565b613493565b826003016000600185600401546134329190614323565b8152602001908152602001600020600001548210156134935760405162461bcd60e51b815260206004820152601860248201527f436c69666673206e6f74206368726f6e6f6c6f676963616c000000000000000060448201526064016106f4565b82600101548211156134e75760405162461bcd60e51b815260206004820181905260248201527f436c696666732063616e6e6f7420656e64206166746572207363686564756c6560448201526064016106f4565b8260020154816134f6856139a6565b6135009190614247565b111561354e5760405162461bcd60e51b815260206004820152601a60248201527f636c69666620616d6f756e74732065786365656420746f74616c00000000000060448201526064016106f4565b60048301805460009081526003850160205260408082208590558254825281206001908101849055825490929190613587908490614247565b9091555050505050565b6001600160a01b0385166135e75760405162461bcd60e51b815260206004820181905260248201527f4552433737373a206d696e7420746f20746865207a65726f206164647265737360448201526064016106f4565b336135f58160008888612b4b565b8460ca60008282546136079190614247565b90915550506001600160a01b038616600090815260c9602052604081208054879290613634908490614247565b9091555061364a90508160008888888888612d84565b856001600160a01b0316816001600160a01b03167f2fe5be0146f74c5bce36c0b80911af6c7d86ff27e89d5cfa61fc681327954e5d878787604051613691939291906143fc565b60405180910390a36040518581526001600160a01b0387169060009060008051602061475383398151915290602001611a04565b6000806136d1846139a6565b8460020154106136f6576136e4846139a6565b84600201546136f39190614323565b90505b8360010154831061370857905061073a565b8354600485015415613740578460030160006001876004015461372b9190614323565b81526020019081526020016000206000015490505b60008186600101546137529190614323565b90506000613760838761469b565b9050600081131561378557816137768286614665565b61378091906146da565b613788565b60005b979650505050505050565b600080805b84600401548110156137ee57600081815260038601602052604090205484106137dc5760008181526003860160205260409020600101546137d99083614247565b91505b806137e681614535565b915050613798565b5061090584600201548261337c565b60008181526001830160205260408120546138445750815460018181018455600084815260208082209093018490558454848252828601909352604090209190915561073a565b50600061073a565b60008181526001830160205260408120548015613935576000613870600183614323565b855490915060009061388490600190614323565b90508181146138e95760008660000182815481106138a4576138a461433a565b90600052602060002001549050808760000184815481106138c7576138c761433a565b6000918252602080832090910192909255918252600188019052604090208390555b85548690806138fa576138fa6146fc565b60019003818190600052602060002001600090559055856001016000868152602001908152602001600020600090556001935050505061073a565b600091505061073a565b61015f5460ff16156109335760405162461bcd60e51b815260206004820152602a60248201527f45524332305061757361626c653a20746f6b656e207472616e736665722077686044820152691a5b19481c185d5cd95960b21b60648201526084016106f4565b60008060005b83600401548110156139ea5760008181526003850160205260409020600101546139d69083614247565b9150806139e281614535565b9150506139ac565b5092915050565b8280546139fd906143a8565b90600052602060002090601f016020900481019282613a1f5760008555613a65565b82601f10613a3857805160ff1916838001178555613a65565b82800160010185558215613a65579182015b82811115613a65578251825591602001919060010190613a4a565b50613a71929150613aca565b5090565b828054828255906000526020600020908101928215613a65579160200282015b82811115613a6557825182546001600160a01b0319166001600160a01b03909116178255602090920191600190910190613a95565b5b80821115613a715760008155600101613acb565b6001600160a01b0381168114610b3857600080fd5b60008083601f840112613b0657600080fd5b50813567ffffffffffffffff811115613b1e57600080fd5b602083019150836020828501011115613b3657600080fd5b9250929050565b60008060008060008060008060c0898b031215613b5957600080fd5b8835613b6481613adf565b97506020890135613b7481613adf565b96506040890135613b8481613adf565b955060608901359450608089013567ffffffffffffffff80821115613ba857600080fd5b613bb48c838d01613af4565b909650945060a08b0135915080821115613bcd57600080fd5b50613bda8b828c01613af4565b999c989b5096995094979396929594505050565b600060208284031215613c0057600080fd5b81356001600160e01b0319811681146107bd57600080fd5b6020808252825182820181905260009190848201906040850190845b81811015613c595783516001600160a01b031683529284019291840191600101613c34565b50909695505050505050565b60005b83811015613c80578181015183820152602001613c68565b83811115610e7a5750506000910152565b60008151808452613ca9816020860160208601613c65565b601f01601f19169290920160200192915050565b6020815260006107bd6020830184613c91565b60008060408385031215613ce357600080fd5b8235613cee81613adf565b946020939093013593505050565b600060208284031215613d0e57600080fd5b81356107bd81613adf565b600080600060608486031215613d2e57600080fd5b8335613d3981613adf565b92506020840135613d4981613adf565b929592945050506040919091013590565b600060208284031215613d6c57600080fd5b5035919050565b60008060408385031215613d8657600080fd5b823591506020830135613d9881613adf565b809150509250929050565b634e487b7160e01b600052604160045260246000fd5b604051610140810167ffffffffffffffff81118282101715613ddd57613ddd613da3565b60405290565b600082601f830112613df457600080fd5b813567ffffffffffffffff80821115613e0f57613e0f613da3565b604051601f8301601f19908116603f01168101908282118183101715613e3757613e37613da3565b81604052838152866020858801011115613e5057600080fd5b836020870160208301376000602085830101528094505050505092915050565b60008060408385031215613e8357600080fd5b823567ffffffffffffffff80821115613e9b57600080fd5b613ea786838701613de3565b93506020850135915080821115613ebd57600080fd5b50613eca85828601613de3565b9150509250929050565b600080600080600060a08688031215613eec57600080fd5b8535613ef781613adf565b94506020860135613f0781613adf565b935060408601359250606086013567ffffffffffffffff80821115613f2b57600080fd5b613f3789838a01613de3565b93506080880135915080821115613f4d57600080fd5b50613f5a88828901613de3565b9150509295509295909350565b60008060408385031215613f7a57600080fd5b50508035926020909101359150565b600080600060608486031215613f9e57600080fd5b8335613fa981613adf565b925060208401359150604084013567ffffffffffffffff811115613fcc57600080fd5b613fd886828701613de3565b9150509250925092565b600080600060608486031215613ff757600080fd5b83359250602084013561400981613adf565b9150604084013561401981613adf565b809150509250925092565b815181526020808301516101a0830191614048908401826001600160a01b03169052565b5060408301516040830152606083015160608301526080830151608083015260a083015160a083015260c083015160c083015260e083015160e083015261010080840151818401525061012080840151818401525061014080840151818401525061016080840151818401525061018080840151818401525092915050565b600080604083850312156140da57600080fd5b82356140e581613adf565b91506020830135613d9881613adf565b60008060008060008060008060008060006101608c8e03121561411757600080fd5b8b359a5060208c013561412981613adf565b9a9d9a9c505050506040890135986060810135986080820135985060a0820135975060c0820135965060e0820135955061010082013594506101208201359350610140909101359150565b6000806000806080858703121561418a57600080fd5b843561419581613adf565b935060208501359250604085013567ffffffffffffffff808211156141b957600080fd5b6141c588838901613de3565b935060608701359150808211156141db57600080fd5b506141e887828801613de3565b91505092959194509250565b6000806040838503121561420757600080fd5b82359150602083013567ffffffffffffffff81111561422557600080fd5b613eca85828601613de3565b634e487b7160e01b600052601160045260246000fd5b6000821982111561425a5761425a614231565b500190565b6020808252602e908201527f496e697469616c697a61626c653a20636f6e747261637420697320616c72656160408201526d191e481a5b9a5d1a585b1a5e995960921b606082015260800190565b6020808252602c908201527f4552433737373a2063616c6c6572206973206e6f7420616e206f70657261746f60408201526b39103337b9103437b63232b960a11b606082015260800190565b60208082526010908201526f14185d5cd8589b194e881c185d5cd95960821b604082015260600190565b60008282101561433557614335614231565b500390565b634e487b7160e01b600052603260045260246000fd5b60006040828403121561436257600080fd5b6040516040810181811067ffffffffffffffff8211171561438557614385613da3565b604052823561439381613adf565b81526020928301359281019290925250919050565b600181811c908216806143bc57607f821691505b602082108114156143dd57634e487b7160e01b600052602260045260246000fd5b50919050565b6000602082840312156143f557600080fd5b5051919050565b8381526060602082015260006144156060830185613c91565b82810360408401526144278185613c91565b9695505050505050565b60208082526024908201527f4552433737373a207472616e7366657220746f20746865207a65726f206164646040820152637265737360e01b606082015260800190565b7f416363657373436f6e74726f6c3a206163636f756e74200000000000000000008152600083516144ad816017850160208801613c65565b7001034b99036b4b9b9b4b733903937b6329607d1b60179184019182015283516144de816028840160208801613c65565b01602801949350505050565b6020808252602b908201527f496e697469616c697a61626c653a20636f6e7472616374206973206e6f74206960408201526a6e697469616c697a696e6760a81b606082015260800190565b600060001982141561454957614549614231565b5060010190565b805161455b81613adf565b919050565b6000610140828403121561457357600080fd5b61457b613db9565b61458483614550565b81526020830151602082015260408301516040820152606083015160608201526080830151608082015260a083015160a082015260c083015160c082015260e083015160e08201526101008084015181830152506101208084015181830152508091505092915050565b60006020828403121561460057600080fd5b81516107bd81613adf565b6001600160a01b0387811682528681166020830152851660408201526060810184905260c06080820181905260009061464690830185613c91565b82810360a08401526146588185613c91565b9998505050505050505050565b600081600019048311821515161561467f5761467f614231565b500290565b60008161469357614693614231565b506000190190565b60008083128015600160ff1b8501841216156146b9576146b9614231565b6001600160ff1b03840183138116156146d4576146d4614231565b50500390565b6000826146f757634e487b7160e01b600052601260045260246000fd5b500490565b634e487b7160e01b600052603160045260246000fdfea52f07bb8dc8df886598eb50edeaba2b8e45715237ed244354b60ea04d0390b865d7a28e3265b37a6474929f336521b332c1681b933f6cb9f3376673440d862addf252ad1be2c89b69c2b068fc378daa952ba7f163c4a11628f55a4df523b3efa2646970667358221220cc6f800daa15b6c983ad31270965f3c59cd2bff0a3825cf87bcae2fc744809e564736f6c634300080a0033",
  "linkReferences": {},
  "deployedLinkReferences": {}
}