{
  "_format": "hh-sol-artifact-1",
  "contractName": "LockedNORI",
  "sourceName": "contracts/LockedNORI.sol",
  "abi": [
    {
      "anonymous": false,
      "inputs": [
        {
          "indexed": true,
          "internalType": "address",
          "name": "owner",
          "type": "address"
        },
        {
          "indexed": true,
          "internalType": "address",
          "name": "spender",
          "type": "address"
        },
        {
          "indexed": false,
          "internalType": "uint256",
          "name": "value",
          "type": "uint256"
        }
      ],
      "name": "Approval",
      "type": "event"
    },
    {
      "anonymous": false,
      "inputs": [
        {
          "indexed": true,
          "internalType": "address",
          "name": "operator",
          "type": "address"
        },
        {
          "indexed": true,
          "internalType": "address",
          "name": "tokenHolder",
          "type": "address"
        }
      ],
      "name": "AuthorizedOperator",
      "type": "event"
    },
    {
      "anonymous": false,
      "inputs": [
        {
          "indexed": true,
          "internalType": "address",
          "name": "operator",
          "type": "address"
        },
        {
          "indexed": true,
          "internalType": "address",
          "name": "from",
          "type": "address"
        },
        {
          "indexed": false,
          "internalType": "uint256",
          "name": "amount",
          "type": "uint256"
        },
        {
          "indexed": false,
          "internalType": "bytes",
          "name": "data",
          "type": "bytes"
        },
        {
          "indexed": false,
          "internalType": "bytes",
          "name": "operatorData",
          "type": "bytes"
        }
      ],
      "name": "Burned",
      "type": "event"
    },
    {
      "anonymous": false,
      "inputs": [
        {
          "indexed": true,
          "internalType": "address",
          "name": "operator",
          "type": "address"
        },
        {
          "indexed": true,
          "internalType": "address",
          "name": "to",
          "type": "address"
        },
        {
          "indexed": false,
          "internalType": "uint256",
          "name": "amount",
          "type": "uint256"
        },
        {
          "indexed": false,
          "internalType": "bytes",
          "name": "data",
          "type": "bytes"
        },
        {
          "indexed": false,
          "internalType": "bytes",
          "name": "operatorData",
          "type": "bytes"
        }
      ],
      "name": "Minted",
      "type": "event"
    },
    {
      "anonymous": false,
      "inputs": [
        {
          "indexed": false,
          "internalType": "address",
          "name": "account",
          "type": "address"
        }
      ],
      "name": "Paused",
      "type": "event"
    },
    {
      "anonymous": false,
      "inputs": [
        {
          "indexed": true,
          "internalType": "address",
          "name": "operator",
          "type": "address"
        },
        {
          "indexed": true,
          "internalType": "address",
          "name": "tokenHolder",
          "type": "address"
        }
      ],
      "name": "RevokedOperator",
      "type": "event"
    },
    {
      "anonymous": false,
      "inputs": [
        {
          "indexed": true,
          "internalType": "bytes32",
          "name": "role",
          "type": "bytes32"
        },
        {
          "indexed": true,
          "internalType": "bytes32",
          "name": "previousAdminRole",
          "type": "bytes32"
        },
        {
          "indexed": true,
          "internalType": "bytes32",
          "name": "newAdminRole",
          "type": "bytes32"
        }
      ],
      "name": "RoleAdminChanged",
      "type": "event"
    },
    {
      "anonymous": false,
      "inputs": [
        {
          "indexed": true,
          "internalType": "bytes32",
          "name": "role",
          "type": "bytes32"
        },
        {
          "indexed": true,
          "internalType": "address",
          "name": "account",
          "type": "address"
        },
        {
          "indexed": true,
          "internalType": "address",
          "name": "sender",
          "type": "address"
        }
      ],
      "name": "RoleGranted",
      "type": "event"
    },
    {
      "anonymous": false,
      "inputs": [
        {
          "indexed": true,
          "internalType": "bytes32",
          "name": "role",
          "type": "bytes32"
        },
        {
          "indexed": true,
          "internalType": "address",
          "name": "account",
          "type": "address"
        },
        {
          "indexed": true,
          "internalType": "address",
          "name": "sender",
          "type": "address"
        }
      ],
      "name": "RoleRevoked",
      "type": "event"
    },
    {
      "anonymous": false,
      "inputs": [
        {
          "indexed": true,
          "internalType": "address",
          "name": "operator",
          "type": "address"
        },
        {
          "indexed": true,
          "internalType": "address",
          "name": "from",
          "type": "address"
        },
        {
          "indexed": true,
          "internalType": "address",
          "name": "to",
          "type": "address"
        },
        {
          "indexed": false,
          "internalType": "uint256",
          "name": "amount",
          "type": "uint256"
        },
        {
          "indexed": false,
          "internalType": "bytes",
          "name": "data",
          "type": "bytes"
        },
        {
          "indexed": false,
          "internalType": "bytes",
          "name": "operatorData",
          "type": "bytes"
        }
      ],
      "name": "Sent",
      "type": "event"
    },
    {
      "anonymous": false,
      "inputs": [
        {
          "indexed": true,
          "internalType": "address",
          "name": "recipient",
          "type": "address"
        },
        {
          "indexed": false,
          "internalType": "uint256",
          "name": "amount",
          "type": "uint256"
        },
        {
          "indexed": false,
          "internalType": "uint256",
          "name": "startTime",
          "type": "uint256"
        },
        {
          "indexed": false,
          "internalType": "uint256",
          "name": "vestEndTime",
          "type": "uint256"
        },
        {
          "indexed": false,
          "internalType": "uint256",
          "name": "unlockEndTime",
          "type": "uint256"
        }
      ],
      "name": "TokenGrantCreated",
      "type": "event"
    },
    {
      "anonymous": false,
      "inputs": [
        {
          "indexed": false,
          "internalType": "address",
          "name": "from",
          "type": "address"
        },
        {
          "indexed": false,
          "internalType": "address",
          "name": "to",
          "type": "address"
        }
      ],
      "name": "TokenGrantTransferred",
      "type": "event"
    },
    {
      "anonymous": false,
      "inputs": [
        {
          "indexed": false,
          "internalType": "address",
          "name": "account",
          "type": "address"
        },
        {
          "indexed": false,
          "internalType": "uint256",
          "name": "quantity",
          "type": "uint256"
        }
      ],
      "name": "TokensClaimed",
      "type": "event"
    },
    {
      "anonymous": false,
      "inputs": [
        {
          "indexed": true,
          "internalType": "address",
          "name": "from",
          "type": "address"
        },
        {
          "indexed": true,
          "internalType": "address",
          "name": "to",
          "type": "address"
        },
        {
          "indexed": false,
          "internalType": "uint256",
          "name": "value",
          "type": "uint256"
        }
      ],
      "name": "Transfer",
      "type": "event"
    },
    {
      "anonymous": false,
      "inputs": [
        {
          "indexed": false,
          "internalType": "address",
          "name": "account",
          "type": "address"
        }
      ],
      "name": "Unpaused",
      "type": "event"
    },
    {
      "anonymous": false,
      "inputs": [
        {
          "indexed": false,
          "internalType": "uint256",
          "name": "atTime",
          "type": "uint256"
        },
        {
          "indexed": false,
          "internalType": "address",
          "name": "from",
          "type": "address"
        },
        {
          "indexed": false,
          "internalType": "uint256",
          "name": "quantity",
          "type": "uint256"
        }
      ],
      "name": "UnvestedTokensRevoked",
      "type": "event"
    },
    {
      "inputs": [],
      "name": "DEFAULT_ADMIN_ROLE",
      "outputs": [
        {
          "internalType": "bytes32",
          "name": "",
          "type": "bytes32"
        }
      ],
      "stateMutability": "view",
      "type": "function"
    },
    {
      "inputs": [],
      "name": "MINTER_ROLE",
      "outputs": [
        {
          "internalType": "bytes32",
          "name": "",
          "type": "bytes32"
        }
      ],
      "stateMutability": "view",
      "type": "function"
    },
    {
      "inputs": [],
      "name": "PAUSER_ROLE",
      "outputs": [
        {
          "internalType": "bytes32",
          "name": "",
          "type": "bytes32"
        }
      ],
      "stateMutability": "view",
      "type": "function"
    },
    {
      "inputs": [],
      "name": "TOKEN_GRANTER_ROLE",
      "outputs": [
        {
          "internalType": "bytes32",
          "name": "",
          "type": "bytes32"
        }
      ],
      "stateMutability": "view",
      "type": "function"
    },
    {
      "inputs": [
        {
          "internalType": "address",
          "name": "holder",
          "type": "address"
        },
        {
          "internalType": "address",
          "name": "spender",
          "type": "address"
        }
      ],
      "name": "allowance",
      "outputs": [
        {
          "internalType": "uint256",
          "name": "",
          "type": "uint256"
        }
      ],
      "stateMutability": "view",
      "type": "function"
    },
    {
      "inputs": [
        {
          "internalType": "address",
          "name": "spender",
          "type": "address"
        },
        {
          "internalType": "uint256",
          "name": "value",
          "type": "uint256"
        }
      ],
      "name": "approve",
      "outputs": [
        {
          "internalType": "bool",
          "name": "",
          "type": "bool"
        }
      ],
      "stateMutability": "nonpayable",
      "type": "function"
    },
    {
      "inputs": [
        {
          "internalType": "address",
          "name": "operator",
          "type": "address"
        }
      ],
      "name": "authorizeOperator",
      "outputs": [],
      "stateMutability": "nonpayable",
      "type": "function"
    },
    {
      "inputs": [
        {
          "internalType": "address",
          "name": "account",
          "type": "address"
        }
      ],
      "name": "balanceOf",
      "outputs": [
        {
          "internalType": "uint256",
          "name": "",
          "type": "uint256"
        }
      ],
      "stateMutability": "view",
      "type": "function"
    },
    {
      "inputs": [
        {
          "internalType": "uint256",
          "name": "amount",
          "type": "uint256"
        }
      ],
      "name": "burn",
      "outputs": [],
      "stateMutability": "nonpayable",
      "type": "function"
    },
    {
      "inputs": [
        {
          "internalType": "uint256",
          "name": "amount",
          "type": "uint256"
        },
        {
          "internalType": "bytes",
          "name": "data",
          "type": "bytes"
        }
      ],
      "name": "burn",
      "outputs": [],
      "stateMutability": "nonpayable",
      "type": "function"
    },
    {
      "inputs": [
        {
          "internalType": "address",
          "name": "account",
          "type": "address"
        },
        {
          "internalType": "uint256",
          "name": "amount",
          "type": "uint256"
        }
      ],
      "name": "burnFrom",
      "outputs": [],
      "stateMutability": "nonpayable",
      "type": "function"
    },
    {
      "inputs": [],
      "name": "decimals",
      "outputs": [
        {
          "internalType": "uint8",
          "name": "",
          "type": "uint8"
        }
      ],
      "stateMutability": "pure",
      "type": "function"
    },
    {
      "inputs": [
        {
          "internalType": "address",
          "name": "spender",
          "type": "address"
        },
        {
          "internalType": "uint256",
          "name": "subtractedValue",
          "type": "uint256"
        }
      ],
      "name": "decreaseAllowance",
      "outputs": [
        {
          "internalType": "bool",
          "name": "",
          "type": "bool"
        }
      ],
      "stateMutability": "nonpayable",
      "type": "function"
    },
    {
      "inputs": [],
      "name": "defaultOperators",
      "outputs": [
        {
          "internalType": "address[]",
          "name": "",
          "type": "address[]"
        }
      ],
      "stateMutability": "view",
      "type": "function"
    },
    {
      "inputs": [
        {
          "internalType": "address",
          "name": "account",
          "type": "address"
        }
      ],
      "name": "getGrant",
      "outputs": [
        {
          "components": [
            {
              "internalType": "uint256",
              "name": "grantAmount",
              "type": "uint256"
            },
            {
              "internalType": "address",
              "name": "recipient",
              "type": "address"
            },
            {
              "internalType": "uint256",
              "name": "startTime",
              "type": "uint256"
            },
            {
              "internalType": "uint256",
              "name": "vestEndTime",
              "type": "uint256"
            },
            {
              "internalType": "uint256",
              "name": "unlockEndTime",
              "type": "uint256"
            },
            {
              "internalType": "uint256",
              "name": "cliff1Time",
              "type": "uint256"
            },
            {
              "internalType": "uint256",
              "name": "cliff2Time",
              "type": "uint256"
            },
            {
              "internalType": "uint256",
              "name": "vestCliff1Amount",
              "type": "uint256"
            },
            {
              "internalType": "uint256",
              "name": "vestCliff2Amount",
              "type": "uint256"
            },
            {
              "internalType": "uint256",
              "name": "unlockCliff1Amount",
              "type": "uint256"
            },
            {
              "internalType": "uint256",
              "name": "unlockCliff2Amount",
              "type": "uint256"
            },
            {
              "internalType": "uint256",
              "name": "claimedAmount",
              "type": "uint256"
            },
            {
              "internalType": "uint256",
              "name": "originalAmount",
              "type": "uint256"
            }
          ],
          "internalType": "struct LockedNORI.TokenGrantDetail",
          "name": "",
          "type": "tuple"
        }
      ],
      "stateMutability": "view",
      "type": "function"
    },
    {
      "inputs": [
        {
          "internalType": "bytes32",
          "name": "role",
          "type": "bytes32"
        }
      ],
      "name": "getRoleAdmin",
      "outputs": [
        {
          "internalType": "bytes32",
          "name": "",
          "type": "bytes32"
        }
      ],
      "stateMutability": "view",
      "type": "function"
    },
    {
      "inputs": [
        {
          "internalType": "bytes32",
          "name": "role",
          "type": "bytes32"
        },
        {
          "internalType": "uint256",
          "name": "index",
          "type": "uint256"
        }
      ],
      "name": "getRoleMember",
      "outputs": [
        {
          "internalType": "address",
          "name": "",
          "type": "address"
        }
      ],
      "stateMutability": "view",
      "type": "function"
    },
    {
      "inputs": [
        {
          "internalType": "bytes32",
          "name": "role",
          "type": "bytes32"
        }
      ],
      "name": "getRoleMemberCount",
      "outputs": [
        {
          "internalType": "uint256",
          "name": "",
          "type": "uint256"
        }
      ],
      "stateMutability": "view",
      "type": "function"
    },
    {
      "inputs": [
        {
          "internalType": "bytes32",
          "name": "role",
          "type": "bytes32"
        },
        {
          "internalType": "address",
          "name": "account",
          "type": "address"
        }
      ],
      "name": "grantRole",
      "outputs": [],
      "stateMutability": "nonpayable",
      "type": "function"
    },
    {
      "inputs": [
        {
          "internalType": "uint256",
          "name": "amount",
          "type": "uint256"
        },
        {
          "internalType": "address",
          "name": "recipient",
          "type": "address"
        },
        {
          "internalType": "uint256",
          "name": "startTime",
          "type": "uint256"
        },
        {
          "internalType": "uint256",
          "name": "vestEndTime",
          "type": "uint256"
        },
        {
          "internalType": "uint256",
          "name": "unlockEndTime",
          "type": "uint256"
        },
        {
          "internalType": "uint256",
          "name": "cliff1Time",
          "type": "uint256"
        },
        {
          "internalType": "uint256",
          "name": "cliff2Time",
          "type": "uint256"
        },
        {
          "internalType": "uint256",
          "name": "vestCliff1Amount",
          "type": "uint256"
        },
        {
          "internalType": "uint256",
          "name": "vestCliff2Amount",
          "type": "uint256"
        },
        {
          "internalType": "uint256",
          "name": "unlockCliff1Amount",
          "type": "uint256"
        },
        {
          "internalType": "uint256",
          "name": "unlockCliff2Amount",
          "type": "uint256"
        }
      ],
      "name": "grantTo",
      "outputs": [],
      "stateMutability": "nonpayable",
      "type": "function"
    },
    {
      "inputs": [],
      "name": "granularity",
      "outputs": [
        {
          "internalType": "uint256",
          "name": "",
          "type": "uint256"
        }
      ],
      "stateMutability": "view",
      "type": "function"
    },
    {
      "inputs": [
        {
          "internalType": "bytes32",
          "name": "role",
          "type": "bytes32"
        },
        {
          "internalType": "address",
          "name": "account",
          "type": "address"
        }
      ],
      "name": "hasRole",
      "outputs": [
        {
          "internalType": "bool",
          "name": "",
          "type": "bool"
        }
      ],
      "stateMutability": "view",
      "type": "function"
    },
    {
      "inputs": [
        {
          "internalType": "address",
          "name": "spender",
          "type": "address"
        },
        {
          "internalType": "uint256",
          "name": "addedValue",
          "type": "uint256"
        }
      ],
      "name": "increaseAllowance",
      "outputs": [
        {
          "internalType": "bool",
          "name": "",
          "type": "bool"
        }
      ],
      "stateMutability": "nonpayable",
      "type": "function"
    },
    {
      "inputs": [
        {
          "internalType": "string",
          "name": "name",
          "type": "string"
        },
        {
          "internalType": "string",
          "name": "symbol",
          "type": "string"
        }
      ],
      "name": "initialize",
      "outputs": [],
      "stateMutability": "nonpayable",
      "type": "function"
    },
    {
      "inputs": [
        {
          "internalType": "contract IERC777Upgradeable",
          "name": "noriAddress",
          "type": "address"
        }
      ],
      "name": "initialize",
      "outputs": [],
      "stateMutability": "nonpayable",
      "type": "function"
    },
    {
      "inputs": [
        {
          "internalType": "address",
          "name": "operator",
          "type": "address"
        },
        {
          "internalType": "address",
          "name": "tokenHolder",
          "type": "address"
        }
      ],
      "name": "isOperatorFor",
      "outputs": [
        {
          "internalType": "bool",
          "name": "",
          "type": "bool"
        }
      ],
      "stateMutability": "view",
      "type": "function"
    },
    {
      "inputs": [
        {
          "internalType": "address",
          "name": "to",
          "type": "address"
        },
        {
          "internalType": "uint256",
          "name": "amount",
          "type": "uint256"
        }
      ],
      "name": "mint",
      "outputs": [],
      "stateMutability": "nonpayable",
      "type": "function"
    },
    {
      "inputs": [],
      "name": "name",
      "outputs": [
        {
          "internalType": "string",
          "name": "",
          "type": "string"
        }
      ],
      "stateMutability": "view",
      "type": "function"
    },
    {
      "inputs": [
        {
          "internalType": "address",
          "name": "account",
          "type": "address"
        },
        {
          "internalType": "uint256",
          "name": "amount",
          "type": "uint256"
        },
        {
          "internalType": "bytes",
          "name": "data",
          "type": "bytes"
        },
        {
          "internalType": "bytes",
          "name": "operatorData",
          "type": "bytes"
        }
      ],
      "name": "operatorBurn",
      "outputs": [],
      "stateMutability": "nonpayable",
      "type": "function"
    },
    {
      "inputs": [
        {
          "internalType": "address",
          "name": "sender",
          "type": "address"
        },
        {
          "internalType": "address",
          "name": "recipient",
          "type": "address"
        },
        {
          "internalType": "uint256",
          "name": "amount",
          "type": "uint256"
        },
        {
          "internalType": "bytes",
          "name": "data",
          "type": "bytes"
        },
        {
          "internalType": "bytes",
          "name": "operatorData",
          "type": "bytes"
        }
      ],
      "name": "operatorSend",
      "outputs": [],
      "stateMutability": "nonpayable",
      "type": "function"
    },
    {
      "inputs": [],
      "name": "pause",
      "outputs": [],
      "stateMutability": "nonpayable",
      "type": "function"
    },
    {
      "inputs": [],
      "name": "paused",
      "outputs": [
        {
          "internalType": "bool",
          "name": "",
          "type": "bool"
        }
      ],
      "stateMutability": "view",
      "type": "function"
    },
    {
      "inputs": [
        {
          "internalType": "address",
          "name": "account",
          "type": "address"
        }
      ],
      "name": "quantityRevokedFrom",
      "outputs": [
        {
          "internalType": "uint256",
          "name": "",
          "type": "uint256"
        }
      ],
      "stateMutability": "view",
      "type": "function"
    },
    {
      "inputs": [
        {
          "internalType": "bytes32",
          "name": "role",
          "type": "bytes32"
        },
        {
          "internalType": "address",
          "name": "account",
          "type": "address"
        }
      ],
      "name": "renounceRole",
      "outputs": [],
      "stateMutability": "nonpayable",
      "type": "function"
    },
    {
      "inputs": [
        {
          "internalType": "address",
          "name": "operator",
          "type": "address"
        }
      ],
      "name": "revokeOperator",
      "outputs": [],
      "stateMutability": "nonpayable",
      "type": "function"
    },
    {
      "inputs": [
        {
          "internalType": "bytes32",
          "name": "role",
          "type": "bytes32"
        },
        {
          "internalType": "address",
          "name": "account",
          "type": "address"
        }
      ],
      "name": "revokeRole",
      "outputs": [],
      "stateMutability": "nonpayable",
      "type": "function"
    },
    {
      "inputs": [
        {
          "internalType": "uint256",
          "name": "atTime",
          "type": "uint256"
        },
        {
          "internalType": "address",
          "name": "from",
          "type": "address"
        },
        {
          "internalType": "address",
          "name": "to",
          "type": "address"
        }
      ],
      "name": "revokeUnvestedTokens",
      "outputs": [],
      "stateMutability": "nonpayable",
      "type": "function"
    },
    {
      "inputs": [
        {
          "internalType": "address",
          "name": "recipient",
          "type": "address"
        },
        {
          "internalType": "uint256",
          "name": "amount",
          "type": "uint256"
        },
        {
          "internalType": "bytes",
          "name": "data",
          "type": "bytes"
        }
      ],
      "name": "send",
      "outputs": [],
      "stateMutability": "nonpayable",
      "type": "function"
    },
    {
      "inputs": [
        {
          "internalType": "bytes4",
          "name": "interfaceId",
          "type": "bytes4"
        }
      ],
      "name": "supportsInterface",
      "outputs": [
        {
          "internalType": "bool",
          "name": "",
          "type": "bool"
        }
      ],
      "stateMutability": "view",
      "type": "function"
    },
    {
      "inputs": [],
      "name": "symbol",
      "outputs": [
        {
          "internalType": "string",
          "name": "",
          "type": "string"
        }
      ],
      "stateMutability": "view",
      "type": "function"
    },
    {
      "inputs": [
        {
          "internalType": "address",
          "name": "",
          "type": "address"
        },
        {
          "internalType": "address",
          "name": "",
          "type": "address"
        },
        {
          "internalType": "address",
          "name": "",
          "type": "address"
        },
        {
          "internalType": "uint256",
          "name": "amount",
          "type": "uint256"
        },
        {
          "internalType": "bytes",
          "name": "userData",
          "type": "bytes"
        },
        {
          "internalType": "bytes",
          "name": "operatorData",
          "type": "bytes"
        }
      ],
      "name": "tokensReceived",
      "outputs": [],
      "stateMutability": "nonpayable",
      "type": "function"
    },
    {
      "inputs": [],
      "name": "totalSupply",
      "outputs": [
        {
          "internalType": "uint256",
          "name": "",
          "type": "uint256"
        }
      ],
      "stateMutability": "view",
      "type": "function"
    },
    {
      "inputs": [
        {
          "internalType": "address",
          "name": "recipient",
          "type": "address"
        },
        {
          "internalType": "uint256",
          "name": "amount",
          "type": "uint256"
        }
      ],
      "name": "transfer",
      "outputs": [
        {
          "internalType": "bool",
          "name": "",
          "type": "bool"
        }
      ],
      "stateMutability": "nonpayable",
      "type": "function"
    },
    {
      "inputs": [
        {
          "internalType": "address",
          "name": "holder",
          "type": "address"
        },
        {
          "internalType": "address",
          "name": "recipient",
          "type": "address"
        },
        {
          "internalType": "uint256",
          "name": "amount",
          "type": "uint256"
        }
      ],
      "name": "transferFrom",
      "outputs": [
        {
          "internalType": "bool",
          "name": "",
          "type": "bool"
        }
      ],
      "stateMutability": "nonpayable",
      "type": "function"
    },
    {
      "inputs": [
        {
          "internalType": "address",
          "name": "account",
          "type": "address"
        }
      ],
      "name": "unlockedBalanceOf",
      "outputs": [
        {
          "internalType": "uint256",
          "name": "",
          "type": "uint256"
        }
      ],
      "stateMutability": "view",
      "type": "function"
    },
    {
      "inputs": [],
      "name": "unpause",
      "outputs": [],
      "stateMutability": "nonpayable",
      "type": "function"
    },
    {
      "inputs": [
        {
          "internalType": "address",
          "name": "account",
          "type": "address"
        }
      ],
      "name": "vestedBalanceOf",
      "outputs": [
        {
          "internalType": "uint256",
          "name": "",
          "type": "uint256"
        }
      ],
      "stateMutability": "view",
      "type": "function"
    },
    {
      "inputs": [
        {
          "internalType": "address",
          "name": "account",
          "type": "address"
        },
        {
          "internalType": "uint256",
          "name": "amount",
          "type": "uint256"
        }
      ],
      "name": "withdrawTo",
      "outputs": [
        {
          "internalType": "bool",
          "name": "",
          "type": "bool"
        }
      ],
      "stateMutability": "nonpayable",
      "type": "function"
    }
  ],
  "bytecode": "0x608060405234801561001057600080fd5b506145fc806100206000396000f3fe608060405234801561001057600080fd5b506004361061029f5760003560e01c80638456cb5911610167578063bf31dbf4116100ce578063dd62ed3e11610087578063dd62ed3e146105e8578063df8026cc146105fb578063e63ab1e91461060e578063fad8b32a14610623578063fc673c4f14610636578063fe9d93031461064957600080fd5b8063bf31dbf414610555578063c4d66de814610575578063ca15c87314610588578063d53913931461059b578063d547741f146105c2578063d95b6371146105d557600080fd5b80639bd9bbc6116101205780639bd9bbc6146104ee5780639c9e4cc5146105015780639e3f3cac14610514578063a217fddf14610527578063a457c2d71461052f578063a9059cbb1461054257600080fd5b80638456cb591461047a57806384955c88146104825780639010d07c1461049557806391d14854146104c0578063959b8c3f146104d357806395d89b41146104e657600080fd5b806336568abe1161020b578063556f0dc7116101c4578063556f0dc7146104195780635c975abb1461042057806362ad1b831461042c578063633d9be01461043f57806370a082311461045457806379cc67901461046757600080fd5b806336568abe146103b257806339509351146103c55780633f4ba83a146103d857806340c10f19146103e057806342966c68146103f35780634cd88b761461040657600080fd5b806318160ddd1161025d57806318160ddd1461033f578063205c28781461034757806323b872dd1461035a578063248a9ca31461036d5780632f2ff15d14610390578063313ce567146103a357600080fd5b806223de29146102a457806301ffc9a7146102b957806306e48538146102e157806306fdde03146102f6578063095ea7b31461030b5780630e2d1a2a1461031e575b600080fd5b6102b76102b23660046139aa565b61065c565b005b6102cc6102c7366004613a5b565b6106ec565b60405190151581526020015b60405180910390f35b6102e9610717565b6040516102d89190613a85565b6102fe610779565b6040516102d89190613b2a565b6102cc610319366004613b3d565b610788565b61033161032c366004613b69565b61079b565b6040519081526020016102d8565b6103316107a7565b6102cc610355366004613b3d565b6107b2565b6102cc610368366004613b86565b6108cf565b61033161037b366004613bc7565b60009081526065602052604090206001015490565b6102b761039e366004613be0565b6108e4565b604051601281526020016102d8565b6102b76103c0366004613be0565b61090f565b6102cc6103d3366004613b3d565b61098d565b6102b76109d2565b6102b76103ee366004613b3d565b610a66565b6102b7610401366004613bc7565b610b05565b6102b7610414366004613cdd565b610b12565b6001610331565b61015f5460ff166102cc565b6102b761043a366004613d41565b610b8f565b61033160008051602061456783398151915281565b610331610462366004613b69565b610bcb565b6102b7610475366004613b3d565b610be9565b6102b7610c6a565b610331610490366004613b69565b610cfc565b6104a86104a3366004613dd4565b610d08565b6040516001600160a01b0390911681526020016102d8565b6102cc6104ce366004613be0565b610d20565b6102b76104e1366004613b69565b610d4b565b6102fe610e69565b6102b76104fc366004613df6565b610e73565b6102b761050f366004613e4f565b610e91565b610331610522366004613b69565b610edf565b610331600081565b6102cc61053d366004613b3d565b610f0c565b6102cc610550366004613b3d565b610fa5565b610568610563366004613b69565b610fb1565b6040516102d89190613e91565b6102b7610583366004613b69565b6110f3565b610331610596366004613bc7565b611366565b6103317f9f2df0fed2c77648de5860a4cc508cd0818c85b8b8a1ab4ceeef8d981c8956a681565b6102b76105d0366004613be0565b61137d565b6102cc6105e3366004613f34565b6113a3565b6103316105f6366004613f34565b611444565b6102b7610609366004613f62565b611471565b61033160008051602061458783398151915281565b6102b7610631366004613b69565b611533565b6102b7610644366004613fe1565b61164f565b6102b7610657366004614061565b611681565b6101f6546001600160a01b031633146106d45760405162461bcd60e51b815260206004820152602f60248201527f4c6f636b65644e4f52493a205468697320636f6e74726163742063616e206f6e60448201526e6c792072656365697665204e4f524960881b60648201526084015b60405180910390fd5b6106e1858585858561169c565b505050505050505050565b60006001600160e01b03198216635a05180f60e01b148061071157506107118261177e565b92915050565b606060cd80548060200260200160405190810160405280929190818152602001828054801561076f57602002820191906000526020600020905b81546001600160a01b03168152600190910190602001808311610751575b5050505050905090565b60606107836117b3565b905090565b6000610794838361183c565b9392505050565b6000610711428361184a565b600061078360ca5490565b6001600160a01b03821660009081526101f5602052604081206107f5338460405180602001604052806000815250604051806020016040528060008152506118b6565b6101f654604051634decdde360e11b81526001600160a01b03868116600483015260248201869052606060448301526000606483015290911690639bd9bbc690608401600060405180830381600087803b15801561085257600080fd5b505af1158015610866573d6000803e3d6000fd5b505050508281600b01600082825461087e91906140b4565b9091555050604080516001600160a01b0386168152602081018590527f896e034966eaaf1adc54acc0f257056febbd300c9e47182cf761982cf1f5e430910160405180910390a15060019392505050565b60006108dc848484611a66565b949350505050565b6000828152606560205260409020600101546109008133611c28565b61090a8383611c8c565b505050565b6001600160a01b038116331461097f5760405162461bcd60e51b815260206004820152602f60248201527f416363657373436f6e74726f6c3a2063616e206f6e6c792072656e6f756e636560448201526e103937b632b9903337b91039b2b63360891b60648201526084016106cb565b6109898282611cae565b5050565b33600081815260fc602090815260408083206001600160a01b038716845290915281205490916109c99185906109c49086906140b4565b611cd0565b50600192915050565b6109ea60008051602061458783398151915233610d20565b610a5c5760405162461bcd60e51b815260206004820152603960248201527f45524332305072657365744d696e7465725061757365723a206d75737420686160448201527f76652070617573657220726f6c6520746f20756e70617573650000000000000060648201526084016106cb565b610a64611cdb565b565b610a907f9f2df0fed2c77648de5860a4cc508cd0818c85b8b8a1ab4ceeef8d981c8956a633610d20565b610afb5760405162461bcd60e51b815260206004820152603660248201527f45524332305072657365744d696e7465725061757365723a206d7573742068616044820152751d99481b5a5b9d195c881c9bdb19481d1bc81b5a5b9d60521b60648201526084016106cb565b6109898282611d70565b610b0f3382611e49565b50565b600054610100900460ff16610b2d5760005460ff1615610b31565b303b155b610b4d5760405162461bcd60e51b81526004016106cb906140cc565b600054610100900460ff16158015610b6f576000805461ffff19166101011790555b610b798383611f91565b801561090a576000805461ff0019169055505050565b610b9933866113a3565b610bb55760405162461bcd60e51b81526004016106cb9061411a565b610bc485858585856001612004565b5050505050565b6001600160a01b038116600090815260c96020526040812054610711565b6000610bf58333611444565b905081811015610c535760405162461bcd60e51b8152602060048201526024808201527f45524332303a206275726e20616d6f756e74206578636565647320616c6c6f77604482015263616e636560e01b60648201526084016106cb565b610c608333848403611cd0565b61090a8383611e49565b610c8260008051602061458783398151915233610d20565b610cf45760405162461bcd60e51b815260206004820152603760248201527f45524332305072657365744d696e7465725061757365723a206d75737420686160448201527f76652070617573657220726f6c6520746f20706175736500000000000000000060648201526084016106cb565b610a646120f0565b6000610711428361214a565b600082815260976020526040812061079490836121ad565b60009182526065602090815260408084206001600160a01b0393909316845291905290205460ff1690565b336001600160a01b0382161415610db05760405162461bcd60e51b8152602060048201526024808201527f4552433737373a20617574686f72697a696e672073656c66206173206f70657260448201526330ba37b960e11b60648201526084016106cb565b6001600160a01b038116600090815260ce602052604090205460ff1615610e015733600090815260d0602090815260408083206001600160a01b03851684529091529020805460ff19169055610e30565b33600090815260cf602090815260408083206001600160a01b03851684529091529020805460ff191660011790555b60405133906001600160a01b038316907ff4caeb2d6ca8932a215a353d0703c326ec2d81fc68170f320eb2ab49e9df61f990600090a350565b60606107836121b9565b61090a33848484604051806020016040528060008152506001612004565b600080516020614567833981519152610eaa8133611c28565b61015f5460ff1615610ece5760405162461bcd60e51b81526004016106cb90614166565b610ed98484846121c8565b50505050565b6001600160a01b03811660009081526101f560205260408120600a810154600c8201546107949190614190565b33600090815260fc602090815260408083206001600160a01b038616845290915281205482811015610f8e5760405162461bcd60e51b815260206004820152602560248201527f45524332303a2064656372656173656420616c6c6f77616e63652062656c6f77604482015264207a65726f60d81b60648201526084016106cb565b610f9b3385858403611cd0565b5060019392505050565b600061079483836122e6565b611025604051806101a001604052806000815260200160006001600160a01b0316815260200160008152602001600081526020016000815260200160008152602001600081526020016000815260200160008152602001600081526020016000815260200160008152602001600081525090565b506001600160a01b031660008181526101f56020908152604080832081516101a081018352600a82015481528084019590955260058101548583015260018082015460608701526006820154608087015284805260088201808552838620805460a0890152828752818652848720805460c08a01528780526003850180885286892085015460e08b01528489528752948720830154610100890152820154610120880152948190529390925290910154610140830152600b810154610160830152600c015461018082015290565b600054610100900460ff1661110e5760005460ff1615611112565b303b155b61112e5760405162461bcd60e51b81526004016106cb906140cc565b600054610100900460ff16158015611150576000805461ffff19166101011790555b611158612399565b611160612399565b611168612399565b611170612399565b611178612399565b6111806123c0565b611188612399565b6111d26040518060400160405280600b81526020016a4c6f636b6564204e4f524960a81b815250604051806040016040528060058152602001646c4e4f524960d81b8152506123f4565b604080516001808252818301909252600091602080830190803683370190505090503381600081518110611208576112086141a7565b60200260200101906001600160a01b031690816001600160a01b0316815250506112736040518060400160405280600b81526020016a4c6f636b6564204e4f524960a81b815250604051806040016040528060058152602001646c4e4f524960d81b81525083612468565b61127e600033612652565b61129660008051602061456783398151915233612652565b6101f680546001600160a01b03199081166001600160a01b038616179091556101f78054731820a4b7618bde71dce8cdc73aab6c95905fad249216821790556040516329965a1d60e01b815230600482018190527fb281fc8c12954d22544db45de3159a39272895b169a852b314f9cc762e44c53b602483015260448201526329965a1d90606401600060405180830381600087803b15801561133857600080fd5b505af115801561134c573d6000803e3d6000fd5b50505050508015610989576000805461ff00191690555050565b60008181526097602052604081206107119061265c565b6000828152606560205260409020600101546113998133611c28565b61090a8383611cae565b6000816001600160a01b0316836001600160a01b0316148061140e57506001600160a01b038316600090815260ce602052604090205460ff16801561140e57506001600160a01b03808316600090815260d0602090815260408083209387168352929052205460ff16155b806107945750506001600160a01b03908116600090815260cf602090815260408083209490931682529290925290205460ff1690565b6001600160a01b03808316600090815260d160209081526040808320938516835292905290812054610794565b61015f5460ff16156114955760405162461bcd60e51b81526004016106cb90614166565b6000805160206145678339815191526114ae8133611c28565b604080516001600160a01b038d1660208201529081018b9052606081018a90526080810189905260a0810188905260c0810187905260e081018690526101008101859052610120810184905261014081018390526000906101600160405160208183030381529060405290506115248d82612666565b50505050505050505050505050565b6001600160a01b0381163314156115965760405162461bcd60e51b815260206004820152602160248201527f4552433737373a207265766f6b696e672073656c66206173206f70657261746f6044820152603960f91b60648201526084016106cb565b6001600160a01b038116600090815260ce602052604090205460ff16156115ea5733600090815260d0602090815260408083206001600160a01b03851684529091529020805460ff19166001179055611616565b33600090815260cf602090815260408083206001600160a01b03851684529091529020805460ff191690555b60405133906001600160a01b038316907f50546e66e5f44d728365dc3908c63bc5cfeeab470722c1677e3073a6ac294aa190600090a350565b61165933856113a3565b6116755760405162461bcd60e51b81526004016106cb9061411a565b610ed9848484846118b6565b610989338383604051806020016040528060008152506118b6565b6000806116ab858701876141bd565b6020810151909150156116f8576116f88787878080601f01602080910402602001604051908101604052809392919081815260200183838082843760009201919091525061266692505050565b61177181600001518888888080601f01602080910402602001604051908101604052809392919081815260200183838082843760009201919091525050604080516020601f8c018190048102820181019092528a815292508a91508990819084018382808284376000920191909152506128a092505050565b5060019695505050505050565b60006001600160e01b03198216637965db0b60e01b148061071157506301ffc9a760e01b6001600160e01b0319831614610711565b606060cb80546117c290614215565b80601f01602080910402602001604051908101604052809291908181526020018280546117ee90614215565b801561076f5780601f106118105761010080835404028352916020019161076f565b820191906000526020600020905b81548152906001019060200180831161181e57509395945050505050565b600033610f9b818585611cd0565b6001600160a01b03811660009081526101f560205260408120600d810154829060ff16156108dc5781541561189957600b82015461188883876128ae565b6118929190614190565b90506108dc565b81600b015482600a01546118ad9190614190565b95945050505050565b6001600160a01b0384166119175760405162461bcd60e51b815260206004820152602260248201527f4552433737373a206275726e2066726f6d20746865207a65726f206164647265604482015261737360f01b60648201526084016106cb565b33611927818660008787876128ce565b61193481866000876129f5565b6001600160a01b038516600090815260c96020526040902054848110156119a95760405162461bcd60e51b815260206004820152602360248201527f4552433737373a206275726e20616d6f756e7420657863656564732062616c616044820152626e636560e81b60648201526084016106cb565b6001600160a01b038616600090815260c960205260408120868303905560ca80548792906119d8908490614190565b92505081905550856001600160a01b0316826001600160a01b03167fa78a9be3a7b862d26933ad85fb11d80ef66b8f972d7cbba06621d583943a4098878787604051611a2693929190614250565b60405180910390a36040518581526000906001600160a01b038816906000805160206145a7833981519152906020015b60405180910390a3505050505050565b60006001600160a01b038316611a8e5760405162461bcd60e51b81526004016106cb90614285565b6001600160a01b038416611af35760405162461bcd60e51b815260206004820152602660248201527f4552433737373a207472616e736665722066726f6d20746865207a65726f206160448201526564647265737360d01b60648201526084016106cb565b6000339050611b248186868660405180602001604052806000815250604051806020016040528060008152506128ce565b6001600160a01b03808616600090815260d160209081526040808320938516835292905220546000198114611bc25783811015611bb55760405162461bcd60e51b815260206004820152602960248201527f4552433737373a207472616e7366657220616d6f756e74206578636565647320604482015268616c6c6f77616e636560b81b60648201526084016106cb565b611bc28683868403611cd0565b611bee828787876040518060200160405280600081525060405180602001604052806000815250612a91565b611c1c8287878760405180602001604052806000815250604051806020016040528060008152506000612bf1565b50600195945050505050565b611c328282610d20565b61098957611c4a816001600160a01b03166014612db6565b611c55836020612db6565b604051602001611c669291906142c9565b60408051601f198184030181529082905262461bcd60e51b82526106cb91600401613b2a565b611c968282612f52565b600082815260976020526040902061090a9082612fd8565b611cb88282612fed565b600082815260976020526040902061090a9082613054565b61090a838383613069565b61015f5460ff16611d255760405162461bcd60e51b815260206004820152601460248201527314185d5cd8589b194e881b9bdd081c185d5cd95960621b60448201526064016106cb565b61015f805460ff191690557f5db9ee0a495bf2e6ff9c91a7834c1ba4fdd244a5e8aa4e537bd38aeae4b073aa335b6040516001600160a01b03909116815260200160405180910390a1565b6001600160a01b038216611dc65760405162461bcd60e51b815260206004820152601f60248201527f45524332303a206d696e7420746f20746865207a65726f20616464726573730060448201526064016106cb565b611dd260008383613190565b8060fd6000828254611de491906140b4565b90915550506001600160a01b038216600090815260fb602052604081208054839290611e119084906140b4565b90915550506040518181526001600160a01b038316906000906000805160206145a78339815191529060200160405180910390a35050565b6001600160a01b038216611ea95760405162461bcd60e51b815260206004820152602160248201527f45524332303a206275726e2066726f6d20746865207a65726f206164647265736044820152607360f81b60648201526084016106cb565b611eb582600083613190565b6001600160a01b038216600090815260fb602052604090205481811015611f295760405162461bcd60e51b815260206004820152602260248201527f45524332303a206275726e20616d6f756e7420657863656564732062616c616e604482015261636560f01b60648201526084016106cb565b6001600160a01b038316600090815260fb60205260408120838303905560fd8054849290611f58908490614190565b90915550506040518281526000906001600160a01b038516906000805160206145a78339815191529060200160405180910390a3505050565b600054610100900460ff16611fb85760405162461bcd60e51b81526004016106cb9061433e565b611fc0612399565b611fc8612399565b611fd0612399565b611fd8612399565b611fe2828261319b565b611fea612399565b611ff26123c0565b611ffa612399565b61098982826123f4565b6001600160a01b0386166120655760405162461bcd60e51b815260206004820152602260248201527f4552433737373a2073656e642066726f6d20746865207a65726f206164647265604482015261737360f01b60648201526084016106cb565b6001600160a01b0385166120bb5760405162461bcd60e51b815260206004820181905260248201527f4552433737373a2073656e6420746f20746865207a65726f206164647265737360448201526064016106cb565b336120ca8188888888886128ce565b6120d8818888888888612a91565b6120e781888888888888612bf1565b50505050505050565b61015f5460ff16156121145760405162461bcd60e51b81526004016106cb90614166565b61015f805460ff191660011790557f62e78cea01bee320cd4e420270b5ea74000d11b0c9f74754ebdbfc544b05a258611d533390565b6001600160a01b03811660009081526101f560205260408120600d810154829060ff16156108dc57600b8201546121a361219961218785896128ae565b612194600587018a6128ae565b6131e9565b84600a01546131e9565b6118ad9190614190565b600061079483836131ff565b606060cc80546117c290614215565b6001600160a01b03821660009081526101f560205260409020600d81015460ff166122265760405162461bcd60e51b815260206004820152600e60248201526d139bc819dc985b9d08195e1a5cdd60921b60448201526064016106cb565b6000612232858561184a565b905081600a0154811015610bc45760008183600a01546122529190614190565b600a84018390556002840183905560018401879055604080518881526001600160a01b03881660208201529081018290529091507f0bbe3f9ae306d75ae6df08cd4a79ac5c6eae93ffae7d7e52f2859bf27592519d9060600160405180910390a16122de8585836040518060200160405280600081525060405180602001604052806000815250610b8f565b505050505050565b60006001600160a01b03831661230e5760405162461bcd60e51b81526004016106cb90614285565b600033905061233f8182868660405180602001604052806000815250604051806020016040528060008152506128ce565b61236b818286866040518060200160405280600081525060405180602001604052806000815250612a91565b610f9b8182868660405180602001604052806000815250604051806020016040528060008152506000612bf1565b600054610100900460ff16610a645760405162461bcd60e51b81526004016106cb9061433e565b600054610100900460ff166123e75760405162461bcd60e51b81526004016106cb9061433e565b61015f805460ff19169055565b600054610100900460ff1661241b5760405162461bcd60e51b81526004016106cb9061433e565b612426600033612652565b6124507f9f2df0fed2c77648de5860a4cc508cd0818c85b8b8a1ab4ceeef8d981c8956a633612652565b61098960008051602061458783398151915233612652565b600054610100900460ff1661248f5760405162461bcd60e51b81526004016106cb9061433e565b82516124a29060cb90602086019061385e565b5081516124b69060cc90602085019061385e565b5080516124ca9060cd9060208401906138e2565b5060005b815181101561253357600160ce60008484815181106124ef576124ef6141a7565b6020908102919091018101516001600160a01b03168252810191909152604001600020805460ff19169115159190911790558061252b81614389565b9150506124ce565b506040516329965a1d60e01b815230600482018190527fac7fbab5f54a3ca8194167523c6753bfeb96a445279294b6125b68cce217705460248301526044820152731820a4b7618bde71dce8cdc73aab6c95905fad24906329965a1d90606401600060405180830381600087803b1580156125ad57600080fd5b505af11580156125c1573d6000803e3d6000fd5b50506040516329965a1d60e01b815230600482018190527faea199e31a596269b42cdafd93407f14436db6e4cad65417994c2eb37381e05a60248301526044820152731820a4b7618bde71dce8cdc73aab6c95905fad2492506329965a1d9150606401600060405180830381600087803b15801561263e57600080fd5b505af11580156120e7573d6000803e3d6000fd5b6109898282611c8c565b6000610711825490565b60008180602001905181019061267c91906143b4565b80519091506001600160a01b03166126d65760405162461bcd60e51b815260206004820181905260248201527f526563697069656e742063616e6e6f74206265207a65726f206164647265737360448201526064016106cb565b80516001600160a01b031660009081526101f56020908152604091829020600a8101869055600c8101869055600d8101805460ff191660011790559083015191830151909110156127ee578161010001518260c0015110158061274257508161012001518260e0015110155b6127ac5760405162461bcd60e51b815260206004820152603560248201527f556e6c6f636b20636c69666620616d6f756e74732063616e6e6f7420657863656044820152746564207665737420636c69666620616d6f756e747360581b60648201526084016106cb565b600281018490556020820151815560408201516001820155608082015160c08301516127d9918391613229565b60a082015160e08301516127ee918391613229565b60078101849055602082015160058201908155606083015160068301556080830151610100840151612821929190613229565b60a082015161012083015161283a916005840191613229565b815160208084015160408086015160608088015183518b815295860194909452918401528201526001600160a01b03909116907f17161516b6ce34594617177a800b150a86ddee02c06993a73ef000a02367d1199060800160405180910390a250505050565b610ed98484848460016133fe565b60006128ba8383613532565b6128c48484613600565b61079491906140b4565b60405163555ddc6560e11b81526001600160a01b03861660048201527f29ddb589b1fb5fc7cf394961c1adf5f8c6454761adf795e67fe149f658abe8956024820152600090731820a4b7618bde71dce8cdc73aab6c95905fad249063aabbb8ca90604401602060405180830381865afa15801561294f573d6000803e3d6000fd5b505050506040513d601f19601f820116820180604052508101906129739190614442565b90506001600160a01b038116156120e757604051633ad5cbc160e11b81526001600160a01b038216906375ab9782906129ba908a908a908a908a908a908a9060040161445f565b600060405180830381600087803b1580156129d457600080fd5b505af11580156129e8573d6000803e3d6000fd5b5050505050505050505050565b6001600160a01b03831615801590612a86576000612a1285610cfc565b9050612a1f600033610d20565b612a845780831115612a845760405162461bcd60e51b815260206004820152602860248201527f4c6f636b65644e4f52493a2057697468647261776c20616d6f756e7420756e616044820152677661696c61626c6560c01b60648201526084016106cb565b505b610bc4848484613190565b612a9d868686866129f5565b6001600160a01b038516600090815260c9602052604090205483811015612b165760405162461bcd60e51b815260206004820152602760248201527f4552433737373a207472616e7366657220616d6f756e7420657863656564732060448201526662616c616e636560c81b60648201526084016106cb565b6001600160a01b03808716600090815260c96020526040808220878503905591871681529081208054869290612b4d9084906140b4565b92505081905550846001600160a01b0316866001600160a01b0316886001600160a01b03167f06b541ddaa720db2b10a4d0cdac39b8d360425fc073085fac19bc82614677987878787604051612ba593929190614250565b60405180910390a4846001600160a01b0316866001600160a01b03166000805160206145a783398151915286604051612be091815260200190565b60405180910390a350505050505050565b60405163555ddc6560e11b81526001600160a01b03861660048201527fb281fc8c12954d22544db45de3159a39272895b169a852b314f9cc762e44c53b6024820152600090731820a4b7618bde71dce8cdc73aab6c95905fad249063aabbb8ca90604401602060405180830381865afa158015612c72573d6000803e3d6000fd5b505050506040513d601f19601f82011682018060405250810190612c969190614442565b90506001600160a01b03811615612d12576040516223de2960e01b81526001600160a01b038216906223de2990612cdb908b908b908b908b908b908b9060040161445f565b600060405180830381600087803b158015612cf557600080fd5b505af1158015612d09573d6000803e3d6000fd5b50505050612dac565b8115612dac576001600160a01b0386163b15612dac5760405162461bcd60e51b815260206004820152604d60248201527f4552433737373a20746f6b656e20726563697069656e7420636f6e747261637460448201527f20686173206e6f20696d706c656d656e74657220666f7220455243373737546f60648201526c1ad95b9cd49958da5c1a595b9d609a1b608482015260a4016106cb565b5050505050505050565b60606000612dc58360026144b9565b612dd09060026140b4565b67ffffffffffffffff811115612de857612de8613c10565b6040519080825280601f01601f191660200182016040528015612e12576020820181803683370190505b509050600360fc1b81600081518110612e2d57612e2d6141a7565b60200101906001600160f81b031916908160001a905350600f60fb1b81600181518110612e5c57612e5c6141a7565b60200101906001600160f81b031916908160001a9053506000612e808460026144b9565b612e8b9060016140b4565b90505b6001811115612f03576f181899199a1a9b1b9c1cb0b131b232b360811b85600f1660108110612ebf57612ebf6141a7565b1a60f81b828281518110612ed557612ed56141a7565b60200101906001600160f81b031916908160001a90535060049490941c93612efc816144d8565b9050612e8e565b5083156107945760405162461bcd60e51b815260206004820181905260248201527f537472696e67733a20686578206c656e67746820696e73756666696369656e7460448201526064016106cb565b612f5c8282610d20565b6109895760008281526065602090815260408083206001600160a01b03851684529091529020805460ff19166001179055612f943390565b6001600160a01b0316816001600160a01b0316837f2f8788117e7eff1d82e926ec794901d17c78024a50270940304540a733656f0d60405160405180910390a45050565b6000610794836001600160a01b03841661366a565b612ff78282610d20565b156109895760008281526065602090815260408083206001600160a01b0385168085529252808320805460ff1916905551339285917ff6391f5c32d9c69d2a47ea670b442974b53935d1edc7fd64eb21e047a839171b9190a45050565b6000610794836001600160a01b0384166136b9565b6001600160a01b0383166130cd5760405162461bcd60e51b815260206004820152602560248201527f4552433737373a20617070726f76652066726f6d20746865207a65726f206164604482015264647265737360d81b60648201526084016106cb565b6001600160a01b03821661312f5760405162461bcd60e51b815260206004820152602360248201527f4552433737373a20617070726f766520746f20746865207a65726f206164647260448201526265737360e81b60648201526084016106cb565b6001600160a01b03838116600081815260d1602090815260408083209487168084529482529182902085905590518481527f8c5be1e5ebec7d5bd14f71427d1e84f3dd0314c0f7b2291e5b200ac8c7c3b925910160405180910390a3505050565b61090a8383836137ac565b600054610100900460ff166131c25760405162461bcd60e51b81526004016106cb9061433e565b81516131d59060fe90602085019061385e565b50805161090a9060ff90602084019061385e565b60008183106131f85781610794565b5090919050565b6000826000018281548110613216576132166141a7565b9060005260206000200154905092915050565b60048301546132885782548210156132835760405162461bcd60e51b815260206004820152601b60248201527f436c696666206265666f7265207363686564756c65207374617274000000000060448201526064016106cb565b613300565b8260030160006001856004015461329f9190614190565b8152602001908152602001600020600001548210156133005760405162461bcd60e51b815260206004820152601860248201527f436c69666673206e6f74206368726f6e6f6c6f676963616c000000000000000060448201526064016106cb565b82600101548211156133545760405162461bcd60e51b815260206004820181905260248201527f436c696666732063616e6e6f7420656e64206166746572207363686564756c6560448201526064016106cb565b82600201548161336385613813565b61336d91906140b4565b11156133bb5760405162461bcd60e51b815260206004820152601a60248201527f636c69666620616d6f756e74732065786365656420746f74616c00000000000060448201526064016106cb565b600483018054600090815260038501602052604080822085905582548252812060019081018490558254909291906133f49084906140b4565b9091555050505050565b6001600160a01b0385166134545760405162461bcd60e51b815260206004820181905260248201527f4552433737373a206d696e7420746f20746865207a65726f206164647265737360448201526064016106cb565b3361346281600088886129f5565b8460ca600082825461347491906140b4565b90915550506001600160a01b038616600090815260c96020526040812080548792906134a19084906140b4565b909155506134b790508160008888888888612bf1565b856001600160a01b0316816001600160a01b03167f2fe5be0146f74c5bce36c0b80911af6c7d86ff27e89d5cfa61fc681327954e5d8787876040516134fe93929190614250565b60405180910390a36040518581526001600160a01b038716906000906000805160206145a783398151915290602001611a56565b60008061353e84613813565b8460020154106135635761355184613813565b84600201546135609190614190565b90505b83600101548310613575579050610711565b83546004850154156135ad57846003016000600187600401546135989190614190565b81526020019081526020016000206000015490505b60008186600101546135bf9190614190565b905060006135cd83876144ef565b905060008113156135f257816135e382866144b9565b6135ed919061452e565b6135f5565b60005b979650505050505050565b600080805b846004015481101561365b576000818152600386016020526040902054841061364957600081815260038601602052604090206001015461364690836140b4565b91505b8061365381614389565b915050613605565b506108dc8460020154826131e9565b60008181526001830160205260408120546136b157508154600181810184556000848152602080822090930184905584548482528286019093526040902091909155610711565b506000610711565b600081815260018301602052604081205480156137a25760006136dd600183614190565b85549091506000906136f190600190614190565b9050818114613756576000866000018281548110613711576137116141a7565b9060005260206000200154905080876000018481548110613734576137346141a7565b6000918252602080832090910192909255918252600188019052604090208390555b855486908061376757613767614550565b600190038181906000526020600020016000905590558560010160008681526020019081526020016000206000905560019350505050610711565b6000915050610711565b61015f5460ff161561090a5760405162461bcd60e51b815260206004820152602a60248201527f45524332305061757361626c653a20746f6b656e207472616e736665722077686044820152691a5b19481c185d5cd95960b21b60648201526084016106cb565b60008060005b836004015481101561385757600081815260038501602052604090206001015461384390836140b4565b91508061384f81614389565b915050613819565b5092915050565b82805461386a90614215565b90600052602060002090601f01602090048101928261388c57600085556138d2565b82601f106138a557805160ff19168380011785556138d2565b828001600101855582156138d2579182015b828111156138d25782518255916020019190600101906138b7565b506138de929150613937565b5090565b8280548282559060005260206000209081019282156138d2579160200282015b828111156138d257825182546001600160a01b0319166001600160a01b03909116178255602090920191600190910190613902565b5b808211156138de5760008155600101613938565b6001600160a01b0381168114610b0f57600080fd5b60008083601f84011261397357600080fd5b50813567ffffffffffffffff81111561398b57600080fd5b6020830191508360208285010111156139a357600080fd5b9250929050565b60008060008060008060008060c0898b0312156139c657600080fd5b88356139d18161394c565b975060208901356139e18161394c565b965060408901356139f18161394c565b955060608901359450608089013567ffffffffffffffff80821115613a1557600080fd5b613a218c838d01613961565b909650945060a08b0135915080821115613a3a57600080fd5b50613a478b828c01613961565b999c989b5096995094979396929594505050565b600060208284031215613a6d57600080fd5b81356001600160e01b03198116811461079457600080fd5b6020808252825182820181905260009190848201906040850190845b81811015613ac65783516001600160a01b031683529284019291840191600101613aa1565b50909695505050505050565b60005b83811015613aed578181015183820152602001613ad5565b83811115610ed95750506000910152565b60008151808452613b16816020860160208601613ad2565b601f01601f19169290920160200192915050565b6020815260006107946020830184613afe565b60008060408385031215613b5057600080fd5b8235613b5b8161394c565b946020939093013593505050565b600060208284031215613b7b57600080fd5b81356107948161394c565b600080600060608486031215613b9b57600080fd5b8335613ba68161394c565b92506020840135613bb68161394c565b929592945050506040919091013590565b600060208284031215613bd957600080fd5b5035919050565b60008060408385031215613bf357600080fd5b823591506020830135613c058161394c565b809150509250929050565b634e487b7160e01b600052604160045260246000fd5b604051610140810167ffffffffffffffff81118282101715613c4a57613c4a613c10565b60405290565b600082601f830112613c6157600080fd5b813567ffffffffffffffff80821115613c7c57613c7c613c10565b604051601f8301601f19908116603f01168101908282118183101715613ca457613ca4613c10565b81604052838152866020858801011115613cbd57600080fd5b836020870160208301376000602085830101528094505050505092915050565b60008060408385031215613cf057600080fd5b823567ffffffffffffffff80821115613d0857600080fd5b613d1486838701613c50565b93506020850135915080821115613d2a57600080fd5b50613d3785828601613c50565b9150509250929050565b600080600080600060a08688031215613d5957600080fd5b8535613d648161394c565b94506020860135613d748161394c565b935060408601359250606086013567ffffffffffffffff80821115613d9857600080fd5b613da489838a01613c50565b93506080880135915080821115613dba57600080fd5b50613dc788828901613c50565b9150509295509295909350565b60008060408385031215613de757600080fd5b50508035926020909101359150565b600080600060608486031215613e0b57600080fd5b8335613e168161394c565b925060208401359150604084013567ffffffffffffffff811115613e3957600080fd5b613e4586828701613c50565b9150509250925092565b600080600060608486031215613e6457600080fd5b833592506020840135613e768161394c565b91506040840135613e868161394c565b809150509250925092565b815181526020808301516101a0830191613eb5908401826001600160a01b03169052565b5060408301516040830152606083015160608301526080830151608083015260a083015160a083015260c083015160c083015260e083015160e083015261010080840151818401525061012080840151818401525061014080840151818401525061016080840151818401525061018080840151818401525092915050565b60008060408385031215613f4757600080fd5b8235613f528161394c565b91506020830135613c058161394c565b60008060008060008060008060008060006101608c8e031215613f8457600080fd5b8b359a5060208c0135613f968161394c565b9a9d9a9c505050506040890135986060810135986080820135985060a0820135975060c0820135965060e0820135955061010082013594506101208201359350610140909101359150565b60008060008060808587031215613ff757600080fd5b84356140028161394c565b935060208501359250604085013567ffffffffffffffff8082111561402657600080fd5b61403288838901613c50565b9350606087013591508082111561404857600080fd5b5061405587828801613c50565b91505092959194509250565b6000806040838503121561407457600080fd5b82359150602083013567ffffffffffffffff81111561409257600080fd5b613d3785828601613c50565b634e487b7160e01b600052601160045260246000fd5b600082198211156140c7576140c761409e565b500190565b6020808252602e908201527f496e697469616c697a61626c653a20636f6e747261637420697320616c72656160408201526d191e481a5b9a5d1a585b1a5e995960921b606082015260800190565b6020808252602c908201527f4552433737373a2063616c6c6572206973206e6f7420616e206f70657261746f60408201526b39103337b9103437b63232b960a11b606082015260800190565b60208082526010908201526f14185d5cd8589b194e881c185d5cd95960821b604082015260600190565b6000828210156141a2576141a261409e565b500390565b634e487b7160e01b600052603260045260246000fd5b6000604082840312156141cf57600080fd5b6040516040810181811067ffffffffffffffff821117156141f2576141f2613c10565b60405282356142008161394c565b81526020928301359281019290925250919050565b600181811c9082168061422957607f821691505b6020821081141561424a57634e487b7160e01b600052602260045260246000fd5b50919050565b8381526060602082015260006142696060830185613afe565b828103604084015261427b8185613afe565b9695505050505050565b60208082526024908201527f4552433737373a207472616e7366657220746f20746865207a65726f206164646040820152637265737360e01b606082015260800190565b7f416363657373436f6e74726f6c3a206163636f756e7420000000000000000000815260008351614301816017850160208801613ad2565b7001034b99036b4b9b9b4b733903937b6329607d1b6017918401918201528351614332816028840160208801613ad2565b01602801949350505050565b6020808252602b908201527f496e697469616c697a61626c653a20636f6e7472616374206973206e6f74206960408201526a6e697469616c697a696e6760a81b606082015260800190565b600060001982141561439d5761439d61409e565b5060010190565b80516143af8161394c565b919050565b600061014082840312156143c757600080fd5b6143cf613c26565b6143d8836143a4565b81526020830151602082015260408301516040820152606083015160608201526080830151608082015260a083015160a082015260c083015160c082015260e083015160e08201526101008084015181830152506101208084015181830152508091505092915050565b60006020828403121561445457600080fd5b81516107948161394c565b6001600160a01b0387811682528681166020830152851660408201526060810184905260c06080820181905260009061449a90830185613afe565b82810360a08401526144ac8185613afe565b9998505050505050505050565b60008160001904831182151516156144d3576144d361409e565b500290565b6000816144e7576144e761409e565b506000190190565b60008083128015600160ff1b85018412161561450d5761450d61409e565b6001600160ff1b03840183138116156145285761452861409e565b50500390565b60008261454b57634e487b7160e01b600052601260045260246000fd5b500490565b634e487b7160e01b600052603160045260246000fdfea52f07bb8dc8df886598eb50edeaba2b8e45715237ed244354b60ea04d0390b865d7a28e3265b37a6474929f336521b332c1681b933f6cb9f3376673440d862addf252ad1be2c89b69c2b068fc378daa952ba7f163c4a11628f55a4df523b3efa26469706673582212205f14ecf10a54fd815385464956a85ff606624519d06587857ddb0e9da61e011c64736f6c634300080a0033",
  "linkReferences": {},
  "deployedLinkReferences": {}
}