{
  "_format": "hh-sol-artifact-1",
  "contractName": "LockedNORI",
  "sourceName": "contracts/LockedNORI.sol",
  "abi": [
    {
      "anonymous": false,
      "inputs": [
        {
          "indexed": true,
          "internalType": "address",
          "name": "owner",
          "type": "address"
        },
        {
          "indexed": true,
          "internalType": "address",
          "name": "spender",
          "type": "address"
        },
        {
          "indexed": false,
          "internalType": "uint256",
          "name": "value",
          "type": "uint256"
        }
      ],
      "name": "Approval",
      "type": "event"
    },
    {
      "anonymous": false,
      "inputs": [
        {
          "indexed": true,
          "internalType": "address",
          "name": "operator",
          "type": "address"
        },
        {
          "indexed": true,
          "internalType": "address",
          "name": "tokenHolder",
          "type": "address"
        }
      ],
      "name": "AuthorizedOperator",
      "type": "event"
    },
    {
      "anonymous": false,
      "inputs": [
        {
          "indexed": true,
          "internalType": "address",
          "name": "operator",
          "type": "address"
        },
        {
          "indexed": true,
          "internalType": "address",
          "name": "from",
          "type": "address"
        },
        {
          "indexed": false,
          "internalType": "uint256",
          "name": "amount",
          "type": "uint256"
        },
        {
          "indexed": false,
          "internalType": "bytes",
          "name": "data",
          "type": "bytes"
        },
        {
          "indexed": false,
          "internalType": "bytes",
          "name": "operatorData",
          "type": "bytes"
        }
      ],
      "name": "Burned",
      "type": "event"
    },
    {
      "anonymous": false,
      "inputs": [
        {
          "indexed": true,
          "internalType": "address",
          "name": "operator",
          "type": "address"
        },
        {
          "indexed": true,
          "internalType": "address",
          "name": "to",
          "type": "address"
        },
        {
          "indexed": false,
          "internalType": "uint256",
          "name": "amount",
          "type": "uint256"
        },
        {
          "indexed": false,
          "internalType": "bytes",
          "name": "data",
          "type": "bytes"
        },
        {
          "indexed": false,
          "internalType": "bytes",
          "name": "operatorData",
          "type": "bytes"
        }
      ],
      "name": "Minted",
      "type": "event"
    },
    {
      "anonymous": false,
      "inputs": [
        {
          "indexed": false,
          "internalType": "address",
          "name": "account",
          "type": "address"
        }
      ],
      "name": "Paused",
      "type": "event"
    },
    {
      "anonymous": false,
      "inputs": [
        {
          "indexed": true,
          "internalType": "address",
          "name": "operator",
          "type": "address"
        },
        {
          "indexed": true,
          "internalType": "address",
          "name": "tokenHolder",
          "type": "address"
        }
      ],
      "name": "RevokedOperator",
      "type": "event"
    },
    {
      "anonymous": false,
      "inputs": [
        {
          "indexed": true,
          "internalType": "bytes32",
          "name": "role",
          "type": "bytes32"
        },
        {
          "indexed": true,
          "internalType": "bytes32",
          "name": "previousAdminRole",
          "type": "bytes32"
        },
        {
          "indexed": true,
          "internalType": "bytes32",
          "name": "newAdminRole",
          "type": "bytes32"
        }
      ],
      "name": "RoleAdminChanged",
      "type": "event"
    },
    {
      "anonymous": false,
      "inputs": [
        {
          "indexed": true,
          "internalType": "bytes32",
          "name": "role",
          "type": "bytes32"
        },
        {
          "indexed": true,
          "internalType": "address",
          "name": "account",
          "type": "address"
        },
        {
          "indexed": true,
          "internalType": "address",
          "name": "sender",
          "type": "address"
        }
      ],
      "name": "RoleGranted",
      "type": "event"
    },
    {
      "anonymous": false,
      "inputs": [
        {
          "indexed": true,
          "internalType": "bytes32",
          "name": "role",
          "type": "bytes32"
        },
        {
          "indexed": true,
          "internalType": "address",
          "name": "account",
          "type": "address"
        },
        {
          "indexed": true,
          "internalType": "address",
          "name": "sender",
          "type": "address"
        }
      ],
      "name": "RoleRevoked",
      "type": "event"
    },
    {
      "anonymous": false,
      "inputs": [
        {
          "indexed": true,
          "internalType": "address",
          "name": "operator",
          "type": "address"
        },
        {
          "indexed": true,
          "internalType": "address",
          "name": "from",
          "type": "address"
        },
        {
          "indexed": true,
          "internalType": "address",
          "name": "to",
          "type": "address"
        },
        {
          "indexed": false,
          "internalType": "uint256",
          "name": "amount",
          "type": "uint256"
        },
        {
          "indexed": false,
          "internalType": "bytes",
          "name": "data",
          "type": "bytes"
        },
        {
          "indexed": false,
          "internalType": "bytes",
          "name": "operatorData",
          "type": "bytes"
        }
      ],
      "name": "Sent",
      "type": "event"
    },
    {
      "anonymous": false,
      "inputs": [
        {
          "indexed": true,
          "internalType": "address",
          "name": "recipient",
          "type": "address"
        },
        {
          "indexed": false,
          "internalType": "uint256",
          "name": "amount",
          "type": "uint256"
        },
        {
          "indexed": false,
          "internalType": "uint256",
          "name": "startTime",
          "type": "uint256"
        },
        {
          "indexed": false,
          "internalType": "uint256",
          "name": "vestEndTime",
          "type": "uint256"
        },
        {
          "indexed": false,
          "internalType": "uint256",
          "name": "unlockEndTime",
          "type": "uint256"
        }
      ],
      "name": "TokenGrantCreated",
      "type": "event"
    },
    {
      "anonymous": false,
      "inputs": [
        {
          "indexed": false,
          "internalType": "address",
          "name": "account",
          "type": "address"
        },
        {
          "indexed": false,
          "internalType": "uint256",
          "name": "quantity",
          "type": "uint256"
        }
      ],
      "name": "TokensClaimed",
      "type": "event"
    },
    {
      "anonymous": false,
      "inputs": [
        {
          "indexed": true,
          "internalType": "address",
          "name": "from",
          "type": "address"
        },
        {
          "indexed": true,
          "internalType": "address",
          "name": "to",
          "type": "address"
        },
        {
          "indexed": false,
          "internalType": "uint256",
          "name": "value",
          "type": "uint256"
        }
      ],
      "name": "Transfer",
      "type": "event"
    },
    {
      "anonymous": false,
      "inputs": [
        {
          "indexed": false,
          "internalType": "address",
          "name": "account",
          "type": "address"
        }
      ],
      "name": "Unpaused",
      "type": "event"
    },
    {
      "anonymous": false,
      "inputs": [
        {
          "indexed": false,
          "internalType": "uint256",
          "name": "atTime",
          "type": "uint256"
        },
        {
          "indexed": false,
          "internalType": "address",
          "name": "from",
          "type": "address"
        },
        {
          "indexed": false,
          "internalType": "uint256",
          "name": "quantity",
          "type": "uint256"
        }
      ],
      "name": "UnvestedTokensRevoked",
      "type": "event"
    },
    {
      "inputs": [],
      "name": "DEFAULT_ADMIN_ROLE",
      "outputs": [
        {
          "internalType": "bytes32",
          "name": "",
          "type": "bytes32"
        }
      ],
      "stateMutability": "view",
      "type": "function"
    },
    {
      "inputs": [],
      "name": "MINTER_ROLE",
      "outputs": [
        {
          "internalType": "bytes32",
          "name": "",
          "type": "bytes32"
        }
      ],
      "stateMutability": "view",
      "type": "function"
    },
    {
      "inputs": [],
      "name": "PAUSER_ROLE",
      "outputs": [
        {
          "internalType": "bytes32",
          "name": "",
          "type": "bytes32"
        }
      ],
      "stateMutability": "view",
      "type": "function"
    },
    {
      "inputs": [],
      "name": "TOKEN_GRANTER_ROLE",
      "outputs": [
        {
          "internalType": "bytes32",
          "name": "",
          "type": "bytes32"
        }
      ],
      "stateMutability": "view",
      "type": "function"
    },
    {
      "inputs": [
        {
          "internalType": "address",
          "name": "holder",
          "type": "address"
        },
        {
          "internalType": "address",
          "name": "spender",
          "type": "address"
        }
      ],
      "name": "allowance",
      "outputs": [
        {
          "internalType": "uint256",
          "name": "",
          "type": "uint256"
        }
      ],
      "stateMutability": "view",
      "type": "function"
    },
    {
      "inputs": [
        {
          "internalType": "address",
          "name": "spender",
          "type": "address"
        },
        {
          "internalType": "uint256",
          "name": "value",
          "type": "uint256"
        }
      ],
      "name": "approve",
      "outputs": [
        {
          "internalType": "bool",
          "name": "",
          "type": "bool"
        }
      ],
      "stateMutability": "nonpayable",
      "type": "function"
    },
    {
      "inputs": [
        {
          "internalType": "address",
          "name": "operator",
          "type": "address"
        }
      ],
      "name": "authorizeOperator",
      "outputs": [],
      "stateMutability": "nonpayable",
      "type": "function"
    },
    {
      "inputs": [
        {
          "internalType": "address",
          "name": "account",
          "type": "address"
        }
      ],
      "name": "balanceOf",
      "outputs": [
        {
          "internalType": "uint256",
          "name": "",
          "type": "uint256"
        }
      ],
      "stateMutability": "view",
      "type": "function"
    },
    {
      "inputs": [
        {
          "internalType": "uint256",
          "name": "amount",
          "type": "uint256"
        }
      ],
      "name": "burn",
      "outputs": [],
      "stateMutability": "nonpayable",
      "type": "function"
    },
    {
      "inputs": [
        {
          "internalType": "uint256",
          "name": "amount",
          "type": "uint256"
        },
        {
          "internalType": "bytes",
          "name": "data",
          "type": "bytes"
        }
      ],
      "name": "burn",
      "outputs": [],
      "stateMutability": "nonpayable",
      "type": "function"
    },
    {
      "inputs": [
        {
          "internalType": "address",
          "name": "account",
          "type": "address"
        },
        {
          "internalType": "uint256",
          "name": "amount",
          "type": "uint256"
        }
      ],
      "name": "burnFrom",
      "outputs": [],
      "stateMutability": "nonpayable",
      "type": "function"
    },
    {
      "inputs": [],
      "name": "decimals",
      "outputs": [
        {
          "internalType": "uint8",
          "name": "",
          "type": "uint8"
        }
      ],
      "stateMutability": "pure",
      "type": "function"
    },
    {
      "inputs": [
        {
          "internalType": "address",
          "name": "spender",
          "type": "address"
        },
        {
          "internalType": "uint256",
          "name": "subtractedValue",
          "type": "uint256"
        }
      ],
      "name": "decreaseAllowance",
      "outputs": [
        {
          "internalType": "bool",
          "name": "",
          "type": "bool"
        }
      ],
      "stateMutability": "nonpayable",
      "type": "function"
    },
    {
      "inputs": [],
      "name": "defaultOperators",
      "outputs": [
        {
          "internalType": "address[]",
          "name": "",
          "type": "address[]"
        }
      ],
      "stateMutability": "view",
      "type": "function"
    },
    {
      "inputs": [
        {
          "internalType": "address",
          "name": "account",
          "type": "address"
        }
      ],
      "name": "getGrant",
      "outputs": [
        {
          "components": [
            {
              "internalType": "uint256",
              "name": "grantAmount",
              "type": "uint256"
            },
            {
              "internalType": "address",
              "name": "recipient",
              "type": "address"
            },
            {
              "internalType": "uint256",
              "name": "startTime",
              "type": "uint256"
            },
            {
              "internalType": "uint256",
              "name": "vestEndTime",
              "type": "uint256"
            },
            {
              "internalType": "uint256",
              "name": "unlockEndTime",
              "type": "uint256"
            },
            {
              "internalType": "uint256",
              "name": "cliff1Time",
              "type": "uint256"
            },
            {
              "internalType": "uint256",
              "name": "cliff2Time",
              "type": "uint256"
            },
            {
              "internalType": "uint256",
              "name": "vestCliff1Amount",
              "type": "uint256"
            },
            {
              "internalType": "uint256",
              "name": "vestCliff2Amount",
              "type": "uint256"
            },
            {
              "internalType": "uint256",
              "name": "unlockCliff1Amount",
              "type": "uint256"
            },
            {
              "internalType": "uint256",
              "name": "unlockCliff2Amount",
              "type": "uint256"
            },
            {
              "internalType": "uint256",
              "name": "claimedAmount",
              "type": "uint256"
            },
            {
              "internalType": "uint256",
              "name": "originalAmount",
              "type": "uint256"
            }
          ],
          "internalType": "struct LockedNORI.TokenGrantDetail",
          "name": "",
          "type": "tuple"
        }
      ],
      "stateMutability": "view",
      "type": "function"
    },
    {
      "inputs": [
        {
          "internalType": "bytes32",
          "name": "role",
          "type": "bytes32"
        }
      ],
      "name": "getRoleAdmin",
      "outputs": [
        {
          "internalType": "bytes32",
          "name": "",
          "type": "bytes32"
        }
      ],
      "stateMutability": "view",
      "type": "function"
    },
    {
      "inputs": [
        {
          "internalType": "bytes32",
          "name": "role",
          "type": "bytes32"
        },
        {
          "internalType": "uint256",
          "name": "index",
          "type": "uint256"
        }
      ],
      "name": "getRoleMember",
      "outputs": [
        {
          "internalType": "address",
          "name": "",
          "type": "address"
        }
      ],
      "stateMutability": "view",
      "type": "function"
    },
    {
      "inputs": [
        {
          "internalType": "bytes32",
          "name": "role",
          "type": "bytes32"
        }
      ],
      "name": "getRoleMemberCount",
      "outputs": [
        {
          "internalType": "uint256",
          "name": "",
          "type": "uint256"
        }
      ],
      "stateMutability": "view",
      "type": "function"
    },
    {
      "inputs": [
        {
          "internalType": "bytes32",
          "name": "role",
          "type": "bytes32"
        },
        {
          "internalType": "address",
          "name": "account",
          "type": "address"
        }
      ],
      "name": "grantRole",
      "outputs": [],
      "stateMutability": "nonpayable",
      "type": "function"
    },
    {
      "inputs": [
        {
          "internalType": "uint256",
          "name": "amount",
          "type": "uint256"
        },
        {
          "internalType": "address",
          "name": "recipient",
          "type": "address"
        },
        {
          "internalType": "uint256",
          "name": "startTime",
          "type": "uint256"
        },
        {
          "internalType": "uint256",
          "name": "vestEndTime",
          "type": "uint256"
        },
        {
          "internalType": "uint256",
          "name": "unlockEndTime",
          "type": "uint256"
        },
        {
          "internalType": "uint256",
          "name": "cliff1Time",
          "type": "uint256"
        },
        {
          "internalType": "uint256",
          "name": "cliff2Time",
          "type": "uint256"
        },
        {
          "internalType": "uint256",
          "name": "vestCliff1Amount",
          "type": "uint256"
        },
        {
          "internalType": "uint256",
          "name": "vestCliff2Amount",
          "type": "uint256"
        },
        {
          "internalType": "uint256",
          "name": "unlockCliff1Amount",
          "type": "uint256"
        },
        {
          "internalType": "uint256",
          "name": "unlockCliff2Amount",
          "type": "uint256"
        }
      ],
      "name": "grantTo",
      "outputs": [],
      "stateMutability": "nonpayable",
      "type": "function"
    },
    {
      "inputs": [],
      "name": "granularity",
      "outputs": [
        {
          "internalType": "uint256",
          "name": "",
          "type": "uint256"
        }
      ],
      "stateMutability": "view",
      "type": "function"
    },
    {
      "inputs": [
        {
          "internalType": "bytes32",
          "name": "role",
          "type": "bytes32"
        },
        {
          "internalType": "address",
          "name": "account",
          "type": "address"
        }
      ],
      "name": "hasRole",
      "outputs": [
        {
          "internalType": "bool",
          "name": "",
          "type": "bool"
        }
      ],
      "stateMutability": "view",
      "type": "function"
    },
    {
      "inputs": [
        {
          "internalType": "address",
          "name": "spender",
          "type": "address"
        },
        {
          "internalType": "uint256",
          "name": "addedValue",
          "type": "uint256"
        }
      ],
      "name": "increaseAllowance",
      "outputs": [
        {
          "internalType": "bool",
          "name": "",
          "type": "bool"
        }
      ],
      "stateMutability": "nonpayable",
      "type": "function"
    },
    {
      "inputs": [
        {
          "internalType": "string",
          "name": "name",
          "type": "string"
        },
        {
          "internalType": "string",
          "name": "symbol",
          "type": "string"
        }
      ],
      "name": "initialize",
      "outputs": [],
      "stateMutability": "nonpayable",
      "type": "function"
    },
    {
      "inputs": [
        {
          "internalType": "contract IERC777Upgradeable",
          "name": "noriAddress",
          "type": "address"
        }
      ],
      "name": "initialize",
      "outputs": [],
      "stateMutability": "nonpayable",
      "type": "function"
    },
    {
      "inputs": [
        {
          "internalType": "address",
          "name": "operator",
          "type": "address"
        },
        {
          "internalType": "address",
          "name": "tokenHolder",
          "type": "address"
        }
      ],
      "name": "isOperatorFor",
      "outputs": [
        {
          "internalType": "bool",
          "name": "",
          "type": "bool"
        }
      ],
      "stateMutability": "view",
      "type": "function"
    },
    {
      "inputs": [
        {
          "internalType": "address",
          "name": "to",
          "type": "address"
        },
        {
          "internalType": "uint256",
          "name": "amount",
          "type": "uint256"
        }
      ],
      "name": "mint",
      "outputs": [],
      "stateMutability": "nonpayable",
      "type": "function"
    },
    {
      "inputs": [],
      "name": "name",
      "outputs": [
        {
          "internalType": "string",
          "name": "",
          "type": "string"
        }
      ],
      "stateMutability": "view",
      "type": "function"
    },
    {
      "inputs": [
        {
          "internalType": "address",
          "name": "account",
          "type": "address"
        },
        {
          "internalType": "uint256",
          "name": "amount",
          "type": "uint256"
        },
        {
          "internalType": "bytes",
          "name": "data",
          "type": "bytes"
        },
        {
          "internalType": "bytes",
          "name": "operatorData",
          "type": "bytes"
        }
      ],
      "name": "operatorBurn",
      "outputs": [],
      "stateMutability": "nonpayable",
      "type": "function"
    },
    {
      "inputs": [
        {
          "internalType": "address",
          "name": "sender",
          "type": "address"
        },
        {
          "internalType": "address",
          "name": "recipient",
          "type": "address"
        },
        {
          "internalType": "uint256",
          "name": "amount",
          "type": "uint256"
        },
        {
          "internalType": "bytes",
          "name": "data",
          "type": "bytes"
        },
        {
          "internalType": "bytes",
          "name": "operatorData",
          "type": "bytes"
        }
      ],
      "name": "operatorSend",
      "outputs": [],
      "stateMutability": "nonpayable",
      "type": "function"
    },
    {
      "inputs": [],
      "name": "pause",
      "outputs": [],
      "stateMutability": "nonpayable",
      "type": "function"
    },
    {
      "inputs": [],
      "name": "paused",
      "outputs": [
        {
          "internalType": "bool",
          "name": "",
          "type": "bool"
        }
      ],
      "stateMutability": "view",
      "type": "function"
    },
    {
      "inputs": [
        {
          "internalType": "address",
          "name": "account",
          "type": "address"
        }
      ],
      "name": "quantityRevokedFrom",
      "outputs": [
        {
          "internalType": "uint256",
          "name": "",
          "type": "uint256"
        }
      ],
      "stateMutability": "view",
      "type": "function"
    },
    {
      "inputs": [
        {
          "internalType": "bytes32",
          "name": "role",
          "type": "bytes32"
        },
        {
          "internalType": "address",
          "name": "account",
          "type": "address"
        }
      ],
      "name": "renounceRole",
      "outputs": [],
      "stateMutability": "nonpayable",
      "type": "function"
    },
    {
      "inputs": [
        {
          "internalType": "address",
          "name": "operator",
          "type": "address"
        }
      ],
      "name": "revokeOperator",
      "outputs": [],
      "stateMutability": "nonpayable",
      "type": "function"
    },
    {
      "inputs": [
        {
          "internalType": "bytes32",
          "name": "role",
          "type": "bytes32"
        },
        {
          "internalType": "address",
          "name": "account",
          "type": "address"
        }
      ],
      "name": "revokeRole",
      "outputs": [],
      "stateMutability": "nonpayable",
      "type": "function"
    },
    {
      "inputs": [
        {
          "internalType": "uint256",
          "name": "atTime",
          "type": "uint256"
        },
        {
          "internalType": "address",
          "name": "from",
          "type": "address"
        },
        {
          "internalType": "address",
          "name": "to",
          "type": "address"
        }
      ],
      "name": "revokeUnvestedTokens",
      "outputs": [],
      "stateMutability": "nonpayable",
      "type": "function"
    },
    {
      "inputs": [
        {
          "internalType": "address",
          "name": "recipient",
          "type": "address"
        },
        {
          "internalType": "uint256",
          "name": "amount",
          "type": "uint256"
        },
        {
          "internalType": "bytes",
          "name": "data",
          "type": "bytes"
        }
      ],
      "name": "send",
      "outputs": [],
      "stateMutability": "nonpayable",
      "type": "function"
    },
    {
      "inputs": [
        {
          "internalType": "bytes4",
          "name": "interfaceId",
          "type": "bytes4"
        }
      ],
      "name": "supportsInterface",
      "outputs": [
        {
          "internalType": "bool",
          "name": "",
          "type": "bool"
        }
      ],
      "stateMutability": "view",
      "type": "function"
    },
    {
      "inputs": [],
      "name": "symbol",
      "outputs": [
        {
          "internalType": "string",
          "name": "",
          "type": "string"
        }
      ],
      "stateMutability": "view",
      "type": "function"
    },
    {
      "inputs": [
        {
          "internalType": "bool",
          "name": "branch",
          "type": "bool"
        }
      ],
      "name": "testCoverage",
      "outputs": [
        {
          "internalType": "bool",
          "name": "",
          "type": "bool"
        }
      ],
      "stateMutability": "pure",
      "type": "function"
    },
    {
      "inputs": [
        {
          "internalType": "address",
          "name": "",
          "type": "address"
        },
        {
          "internalType": "address",
          "name": "",
          "type": "address"
        },
        {
          "internalType": "address",
          "name": "",
          "type": "address"
        },
        {
          "internalType": "uint256",
          "name": "amount",
          "type": "uint256"
        },
        {
          "internalType": "bytes",
          "name": "userData",
          "type": "bytes"
        },
        {
          "internalType": "bytes",
          "name": "operatorData",
          "type": "bytes"
        }
      ],
      "name": "tokensReceived",
      "outputs": [],
      "stateMutability": "nonpayable",
      "type": "function"
    },
    {
      "inputs": [],
      "name": "totalSupply",
      "outputs": [
        {
          "internalType": "uint256",
          "name": "",
          "type": "uint256"
        }
      ],
      "stateMutability": "view",
      "type": "function"
    },
    {
      "inputs": [
        {
          "internalType": "address",
          "name": "recipient",
          "type": "address"
        },
        {
          "internalType": "uint256",
          "name": "amount",
          "type": "uint256"
        }
      ],
      "name": "transfer",
      "outputs": [
        {
          "internalType": "bool",
          "name": "",
          "type": "bool"
        }
      ],
      "stateMutability": "nonpayable",
      "type": "function"
    },
    {
      "inputs": [
        {
          "internalType": "address",
          "name": "holder",
          "type": "address"
        },
        {
          "internalType": "address",
          "name": "recipient",
          "type": "address"
        },
        {
          "internalType": "uint256",
          "name": "amount",
          "type": "uint256"
        }
      ],
      "name": "transferFrom",
      "outputs": [
        {
          "internalType": "bool",
          "name": "",
          "type": "bool"
        }
      ],
      "stateMutability": "nonpayable",
      "type": "function"
    },
    {
      "inputs": [
        {
          "internalType": "address",
          "name": "account",
          "type": "address"
        }
      ],
      "name": "unlockedBalanceOf",
      "outputs": [
        {
          "internalType": "uint256",
          "name": "",
          "type": "uint256"
        }
      ],
      "stateMutability": "view",
      "type": "function"
    },
    {
      "inputs": [],
      "name": "unpause",
      "outputs": [],
      "stateMutability": "nonpayable",
      "type": "function"
    },
    {
      "inputs": [
        {
          "internalType": "address",
          "name": "account",
          "type": "address"
        }
      ],
      "name": "vestedBalanceOf",
      "outputs": [
        {
          "internalType": "uint256",
          "name": "",
          "type": "uint256"
        }
      ],
      "stateMutability": "view",
      "type": "function"
    },
    {
      "inputs": [
        {
          "internalType": "address",
          "name": "account",
          "type": "address"
        },
        {
          "internalType": "uint256",
          "name": "amount",
          "type": "uint256"
        }
      ],
      "name": "withdrawTo",
      "outputs": [
        {
          "internalType": "bool",
          "name": "",
          "type": "bool"
        }
      ],
      "stateMutability": "nonpayable",
      "type": "function"
    }
  ],
  "bytecode": "0x608060405234801561001057600080fd5b5061475f806100206000396000f3fe608060405234801561001057600080fd5b50600436106102ba5760003560e01c806379cc679011610182578063a9059cbb116100e9578063d95b6371116100a2578063e63ab1e91161007c578063e63ab1e91461063a578063fad8b32a1461064f578063fc673c4f14610662578063fe9d93031461067557600080fd5b8063d95b637114610601578063dd62ed3e14610614578063df8026cc1461062757600080fd5b8063a9059cbb1461056e578063bf31dbf414610581578063c4d66de8146105a1578063ca15c873146105b4578063d5391393146105c7578063d547741f146105ee57600080fd5b806395d89b411161013b57806395d89b41146105125780639bd9bbc61461051a5780639c9e4cc51461052d5780639e3f3cac14610540578063a217fddf14610553578063a457c2d71461055b57600080fd5b806379cc6790146104935780638456cb59146104a657806384955c88146104ae5780639010d07c146104c157806391d14854146104ec578063959b8c3f146104ff57600080fd5b8063313ce567116102265780634cd88b76116101df5780634cd88b7614610432578063556f0dc7146104455780635c975abb1461044c57806362ad1b8314610458578063633d9be01461046b57806370a082311461048057600080fd5b8063313ce567146103cf57806336568abe146103de57806339509351146103f15780633f4ba83a1461040457806340c10f191461040c57806342966c681461041f57600080fd5b806318160ddd1161027857806318160ddd1461035a578063205c28781461036257806323b872dd14610375578063248a9ca3146103885780632abd8294146103ab5780632f2ff15d146103bc57600080fd5b806223de29146102bf57806301ffc9a7146102d457806306e48538146102fc57806306fdde0314610311578063095ea7b3146103265780630e2d1a2a14610339575b600080fd5b6102d26102cd366004613ad2565b610688565b005b6102e76102e2366004613b83565b610713565b60405190151581526020015b60405180910390f35b61030461073e565b6040516102f39190613bad565b6103196107a0565b6040516102f39190613c52565b6102e7610334366004613c65565b6107af565b61034c610347366004613c91565b6107c2565b6040519081526020016102f3565b61034c6107ce565b6102e7610370366004613c65565b6107d9565b6102e7610383366004613cae565b6108f6565b61034c610396366004613cef565b60009081526065602052604090206001015490565b6102e76103b9366004613d08565b90565b6102d26103ca366004613d2a565b61090b565b604051601281526020016102f3565b6102d26103ec366004613d2a565b610936565b6102e76103ff366004613c65565b6109b4565b6102d26109f9565b6102d261041a366004613c65565b610a8d565b6102d261042d366004613cef565b610b2c565b6102d2610440366004613e27565b610b39565b600161034c565b61015f5460ff166102e7565b6102d2610466366004613e8b565b610bb6565b61034c6000805160206146ca83398151915281565b61034c61048e366004613c91565b610bf2565b6102d26104a1366004613c65565b610c10565b6102d2610c91565b61034c6104bc366004613c91565b610d23565b6104d46104cf366004613f1e565b610d2f565b6040516001600160a01b0390911681526020016102f3565b6102e76104fa366004613d2a565b610d47565b6102d261050d366004613c91565b610d72565b610319610d9f565b6102d2610528366004613f40565b610da9565b6102d261053b366004613f99565b610dc7565b61034c61054e366004613c91565b610e15565b61034c600081565b6102e7610569366004613c65565b610e42565b6102e761057c366004613c65565b610e78565b61059461058f366004613c91565b610e84565b6040516102f39190613fdb565b6102d26105af366004613c91565b610fc6565b61034c6105c2366004613cef565b611239565b61034c7f9f2df0fed2c77648de5860a4cc508cd0818c85b8b8a1ab4ceeef8d981c8956a681565b6102d26105fc366004613d2a565b611250565b6102e761060f36600461407e565b611276565b61034c61062236600461407e565b611317565b6102d26106353660046140ac565b611344565b61034c6000805160206146ea83398151915281565b6102d261065d366004613c91565b611406565b6102d261067036600461412b565b611522565b6102d26106833660046141ab565b611554565b6101f6546001600160a01b031633146106fb5760405162461bcd60e51b815260206004820152602a60248201527f6c4e4f52493a205468697320636f6e74726163742063616e206f6e6c792072656044820152696365697665204e4f524960b01b60648201526084015b60405180910390fd5b610708858585858561156f565b505050505050505050565b60006001600160e01b03198216635a05180f60e01b1480610738575061073882611651565b92915050565b606060cd80548060200260200160405190810160405280929190818152602001828054801561079657602002820191906000526020600020905b81546001600160a01b03168152600190910190602001808311610778575b5050505050905090565b60606107aa611686565b905090565b60006107bb838361170f565b9392505050565b60006107384283611727565b60006107aa60ca5490565b6001600160a01b03821660009081526101f56020526040812061081c338460405180602001604052806000815250604051806020016040528060008152506117f9565b6101f654604051634decdde360e11b81526001600160a01b03868116600483015260248201869052606060448301526000606483015290911690639bd9bbc690608401600060405180830381600087803b15801561087957600080fd5b505af115801561088d573d6000803e3d6000fd5b505050508281600b0160008282546108a591906141fe565b9091555050604080516001600160a01b0386168152602081018590527f896e034966eaaf1adc54acc0f257056febbd300c9e47182cf761982cf1f5e430910160405180910390a15060019392505050565b60006109038484846119a9565b949350505050565b6000828152606560205260409020600101546109278133611b6b565b6109318383611bcf565b505050565b6001600160a01b03811633146109a65760405162461bcd60e51b815260206004820152602f60248201527f416363657373436f6e74726f6c3a2063616e206f6e6c792072656e6f756e636560448201526e103937b632b9903337b91039b2b63360891b60648201526084016106f2565b6109b08282611bf1565b5050565b33600081815260fc602090815260408083206001600160a01b038716845290915281205490916109f09185906109eb9086906141fe565b611c13565b50600192915050565b610a116000805160206146ea83398151915233610d47565b610a835760405162461bcd60e51b815260206004820152603960248201527f45524332305072657365744d696e7465725061757365723a206d75737420686160448201527f76652070617573657220726f6c6520746f20756e70617573650000000000000060648201526084016106f2565b610a8b611c42565b565b610ab77f9f2df0fed2c77648de5860a4cc508cd0818c85b8b8a1ab4ceeef8d981c8956a633610d47565b610b225760405162461bcd60e51b815260206004820152603660248201527f45524332305072657365744d696e7465725061757365723a206d7573742068616044820152751d99481b5a5b9d195c881c9bdb19481d1bc81b5a5b9d60521b60648201526084016106f2565b6109b08282611cd7565b610b363382611db0565b50565b600054610100900460ff16610b545760005460ff1615610b58565b303b155b610b745760405162461bcd60e51b81526004016106f290614216565b600054610100900460ff16158015610b96576000805461ffff19166101011790555b610ba08383611ef8565b8015610931576000805461ff0019169055505050565b610bc03386611276565b610bdc5760405162461bcd60e51b81526004016106f290614264565b610beb85858585856001611f6b565b5050505050565b6001600160a01b038116600090815260c96020526040812054610738565b6000610c1c8333611317565b905081811015610c7a5760405162461bcd60e51b8152602060048201526024808201527f45524332303a206275726e20616d6f756e74206578636565647320616c6c6f77604482015263616e636560e01b60648201526084016106f2565b610c878333848403611c13565b6109318383611db0565b610ca96000805160206146ea83398151915233610d47565b610d1b5760405162461bcd60e51b815260206004820152603760248201527f45524332305072657365744d696e7465725061757365723a206d75737420686160448201527f76652070617573657220726f6c6520746f20706175736500000000000000000060648201526084016106f2565b610a8b612057565b600061073842836120b1565b60008281526097602052604081206107bb908361217a565b60009182526065602090815260408084206001600160a01b0393909316845291905290205460ff1690565b61015f5460ff1615610d965760405162461bcd60e51b81526004016106f2906142b0565b610b3681612186565b60606107aa6122a4565b61093133848484604051806020016040528060008152506001611f6b565b6000805160206146ca833981519152610de08133611b6b565b61015f5460ff1615610e045760405162461bcd60e51b81526004016106f2906142b0565b610e0f8484846122b3565b50505050565b6001600160a01b03811660009081526101f560205260408120600a810154600c8201546107bb91906142da565b6000610e5161015f5460ff1690565b15610e6e5760405162461bcd60e51b81526004016106f2906142b0565b6107bb8383610e42565b60006107bb83836123d1565b610ef8604051806101a001604052806000815260200160006001600160a01b0316815260200160008152602001600081526020016000815260200160008152602001600081526020016000815260200160008152602001600081526020016000815260200160008152602001600081525090565b506001600160a01b031660008181526101f56020908152604080832081516101a081018352600a82015481528084019590955260058101548583015260018082015460608701526006820154608087015284805260088201808552838620805460a0890152828752818652848720805460c08a01528780526003850180885286892085015460e08b01528489528752948720830154610100890152820154610120880152948190529390925290910154610140830152600b810154610160830152600c015461018082015290565b600054610100900460ff16610fe15760005460ff1615610fe5565b303b155b6110015760405162461bcd60e51b81526004016106f290614216565b600054610100900460ff16158015611023576000805461ffff19166101011790555b61102b612484565b611033612484565b61103b612484565b611043612484565b61104b612484565b6110536124ab565b61105b612484565b6110a56040518060400160405280600b81526020016a4c6f636b6564204e4f524960a81b815250604051806040016040528060058152602001646c4e4f524960d81b8152506124df565b6040805160018082528183019092526000916020808301908036833701905050905033816000815181106110db576110db6142f1565b60200260200101906001600160a01b031690816001600160a01b0316815250506111466040518060400160405280600b81526020016a4c6f636b6564204e4f524960a81b815250604051806040016040528060058152602001646c4e4f524960d81b81525083612553565b61115160003361273d565b6111696000805160206146ca8339815191523361273d565b6101f680546001600160a01b03199081166001600160a01b038616179091556101f78054731820a4b7618bde71dce8cdc73aab6c95905fad249216821790556040516329965a1d60e01b815230600482018190527fb281fc8c12954d22544db45de3159a39272895b169a852b314f9cc762e44c53b602483015260448201526329965a1d90606401600060405180830381600087803b15801561120b57600080fd5b505af115801561121f573d6000803e3d6000fd5b505050505080156109b0576000805461ff00191690555050565b600081815260976020526040812061073890612747565b60008281526065602052604090206001015461126c8133611b6b565b6109318383611bf1565b6000816001600160a01b0316836001600160a01b031614806112e157506001600160a01b038316600090815260ce602052604090205460ff1680156112e157506001600160a01b03808316600090815260d0602090815260408083209387168352929052205460ff16155b806107bb5750506001600160a01b03908116600090815260cf602090815260408083209490931682529290925290205460ff1690565b6001600160a01b03808316600090815260d1602090815260408083209385168352929052908120546107bb565b61015f5460ff16156113685760405162461bcd60e51b81526004016106f2906142b0565b6000805160206146ca8339815191526113818133611b6b565b604080516001600160a01b038d1660208201529081018b9052606081018a90526080810189905260a0810188905260c0810187905260e081018690526101008101859052610120810184905261014081018390526000906101600160405160208183030381529060405290506113f78d82612751565b50505050505050505050505050565b6001600160a01b0381163314156114695760405162461bcd60e51b815260206004820152602160248201527f4552433737373a207265766f6b696e672073656c66206173206f70657261746f6044820152603960f91b60648201526084016106f2565b6001600160a01b038116600090815260ce602052604090205460ff16156114bd5733600090815260d0602090815260408083206001600160a01b03851684529091529020805460ff191660011790556114e9565b33600090815260cf602090815260408083206001600160a01b03851684529091529020805460ff191690555b60405133906001600160a01b038316907f50546e66e5f44d728365dc3908c63bc5cfeeab470722c1677e3073a6ac294aa190600090a350565b61152c3385611276565b6115485760405162461bcd60e51b81526004016106f290614264565b610e0f848484846117f9565b6109b0338383604051806020016040528060008152506117f9565b60008061157e85870187614307565b6020810151909150156115cb576115cb8787878080601f01602080910402602001604051908101604052809392919081815260200183838082843760009201919091525061275192505050565b61164481600001518888888080601f01602080910402602001604051908101604052809392919081815260200183838082843760009201919091525050604080516020601f8c018190048102820181019092528a815292508a915089908190840183828082843760009201919091525061298b92505050565b5060019695505050505050565b60006001600160e01b03198216637965db0b60e01b148061073857506301ffc9a760e01b6001600160e01b0319831614610738565b606060cb80546116959061435f565b80601f01602080910402602001604051908101604052809291908181526020018280546116c19061435f565b80156107965780601f106116e357610100808354040283529160200191610796565b820191906000526020600020905b8154815290600101906020018083116116f157509395945050505050565b60003361171d818585611c13565b5060019392505050565b6001600160a01b03811660008181526101f5602052604080822090516370a0823160e01b815260048101939093529091829030906370a0823190602401602060405180830381865afa158015611781573d6000803e3d6000fd5b505050506040513d601f19601f820116820180604052508101906117a5919061439a565b600d83015490915060ff1615610903578154156117dc57600b8201546117cb8387612999565b6117d591906142da565b9050610903565b81600b015482600a01546117f091906142da565b95945050505050565b6001600160a01b03841661185a5760405162461bcd60e51b815260206004820152602260248201527f4552433737373a206275726e2066726f6d20746865207a65726f206164647265604482015261737360f01b60648201526084016106f2565b3361186a818660008787876129b9565b6118778186600087612ae0565b6001600160a01b038516600090815260c96020526040902054848110156118ec5760405162461bcd60e51b815260206004820152602360248201527f4552433737373a206275726e20616d6f756e7420657863656564732062616c616044820152626e636560e81b60648201526084016106f2565b6001600160a01b038616600090815260c960205260408120868303905560ca805487929061191b9084906142da565b92505081905550856001600160a01b0316826001600160a01b03167fa78a9be3a7b862d26933ad85fb11d80ef66b8f972d7cbba06621d583943a4098878787604051611969939291906143b3565b60405180910390a36040518581526000906001600160a01b0388169060008051602061470a833981519152906020015b60405180910390a3505050505050565b60006001600160a01b0383166119d15760405162461bcd60e51b81526004016106f2906143e8565b6001600160a01b038416611a365760405162461bcd60e51b815260206004820152602660248201527f4552433737373a207472616e736665722066726f6d20746865207a65726f206160448201526564647265737360d01b60648201526084016106f2565b6000339050611a678186868660405180602001604052806000815250604051806020016040528060008152506129b9565b6001600160a01b03808616600090815260d160209081526040808320938516835292905220546000198114611b055783811015611af85760405162461bcd60e51b815260206004820152602960248201527f4552433737373a207472616e7366657220616d6f756e74206578636565647320604482015268616c6c6f77616e636560b81b60648201526084016106f2565b611b058683868403611c13565b611b31828787876040518060200160405280600081525060405180602001604052806000815250612bb9565b611b5f8287878760405180602001604052806000815250604051806020016040528060008152506000612d19565b50600195945050505050565b611b758282610d47565b6109b057611b8d816001600160a01b03166014612ede565b611b98836020612ede565b604051602001611ba992919061442c565b60408051601f198184030181529082905262461bcd60e51b82526106f291600401613c52565b611bd9828261307a565b60008281526097602052604090206109319082613100565b611bfb8282613115565b6000828152609760205260409020610931908261317c565b61015f5460ff1615611c375760405162461bcd60e51b81526004016106f2906142b0565b610931838383613191565b61015f5460ff16611c8c5760405162461bcd60e51b815260206004820152601460248201527314185d5cd8589b194e881b9bdd081c185d5cd95960621b60448201526064016106f2565b61015f805460ff191690557f5db9ee0a495bf2e6ff9c91a7834c1ba4fdd244a5e8aa4e537bd38aeae4b073aa335b6040516001600160a01b03909116815260200160405180910390a1565b6001600160a01b038216611d2d5760405162461bcd60e51b815260206004820152601f60248201527f45524332303a206d696e7420746f20746865207a65726f20616464726573730060448201526064016106f2565b611d39600083836132b8565b8060fd6000828254611d4b91906141fe565b90915550506001600160a01b038216600090815260fb602052604081208054839290611d789084906141fe565b90915550506040518181526001600160a01b0383169060009060008051602061470a8339815191529060200160405180910390a35050565b6001600160a01b038216611e105760405162461bcd60e51b815260206004820152602160248201527f45524332303a206275726e2066726f6d20746865207a65726f206164647265736044820152607360f81b60648201526084016106f2565b611e1c826000836132b8565b6001600160a01b038216600090815260fb602052604090205481811015611e905760405162461bcd60e51b815260206004820152602260248201527f45524332303a206275726e20616d6f756e7420657863656564732062616c616e604482015261636560f01b60648201526084016106f2565b6001600160a01b038316600090815260fb60205260408120838303905560fd8054849290611ebf9084906142da565b90915550506040518281526000906001600160a01b0385169060008051602061470a8339815191529060200160405180910390a3505050565b600054610100900460ff16611f1f5760405162461bcd60e51b81526004016106f2906144a1565b611f27612484565b611f2f612484565b611f37612484565b611f3f612484565b611f4982826132c3565b611f51612484565b611f596124ab565b611f61612484565b6109b082826124df565b6001600160a01b038616611fcc5760405162461bcd60e51b815260206004820152602260248201527f4552433737373a2073656e642066726f6d20746865207a65726f206164647265604482015261737360f01b60648201526084016106f2565b6001600160a01b0385166120225760405162461bcd60e51b815260206004820181905260248201527f4552433737373a2073656e6420746f20746865207a65726f206164647265737360448201526064016106f2565b336120318188888888886129b9565b61203f818888888888612bb9565b61204e81888888888888612d19565b50505050505050565b61015f5460ff161561207b5760405162461bcd60e51b81526004016106f2906142b0565b61015f805460ff191660011790557f62e78cea01bee320cd4e420270b5ea74000d11b0c9f74754ebdbfc544b05a258611cba3390565b6001600160a01b03811660008181526101f5602052604080822090516370a0823160e01b815260048101939093529091829030906370a0823190602401602060405180830381865afa15801561210b573d6000803e3d6000fd5b505050506040513d601f19601f8201168201806040525081019061212f919061439a565b600d83015490915060ff161561090357600b8201546121706121666121548589612999565b612161600587018a612999565b613311565b84600a0154613311565b6117f091906142da565b60006107bb8383613327565b336001600160a01b03821614156121eb5760405162461bcd60e51b8152602060048201526024808201527f4552433737373a20617574686f72697a696e672073656c66206173206f70657260448201526330ba37b960e11b60648201526084016106f2565b6001600160a01b038116600090815260ce602052604090205460ff161561223c5733600090815260d0602090815260408083206001600160a01b03851684529091529020805460ff1916905561226b565b33600090815260cf602090815260408083206001600160a01b03851684529091529020805460ff191660011790555b60405133906001600160a01b038316907ff4caeb2d6ca8932a215a353d0703c326ec2d81fc68170f320eb2ab49e9df61f990600090a350565b606060cc80546116959061435f565b6001600160a01b03821660009081526101f560205260409020600d81015460ff166123115760405162461bcd60e51b815260206004820152600e60248201526d139bc819dc985b9d08195e1a5cdd60921b60448201526064016106f2565b600061231d8585611727565b905081600a0154811015610beb5760008183600a015461233d91906142da565b600a84018390556002840183905560018401879055604080518881526001600160a01b03881660208201529081018290529091507f0bbe3f9ae306d75ae6df08cd4a79ac5c6eae93ffae7d7e52f2859bf27592519d9060600160405180910390a16123c98585836040518060200160405280600081525060405180602001604052806000815250610bb6565b505050505050565b60006001600160a01b0383166123f95760405162461bcd60e51b81526004016106f2906143e8565b600033905061242a8182868660405180602001604052806000815250604051806020016040528060008152506129b9565b612456818286866040518060200160405280600081525060405180602001604052806000815250612bb9565b61171d8182868660405180602001604052806000815250604051806020016040528060008152506000612d19565b600054610100900460ff16610a8b5760405162461bcd60e51b81526004016106f2906144a1565b600054610100900460ff166124d25760405162461bcd60e51b81526004016106f2906144a1565b61015f805460ff19169055565b600054610100900460ff166125065760405162461bcd60e51b81526004016106f2906144a1565b61251160003361273d565b61253b7f9f2df0fed2c77648de5860a4cc508cd0818c85b8b8a1ab4ceeef8d981c8956a63361273d565b6109b06000805160206146ea8339815191523361273d565b600054610100900460ff1661257a5760405162461bcd60e51b81526004016106f2906144a1565b825161258d9060cb906020860190613986565b5081516125a19060cc906020850190613986565b5080516125b59060cd906020840190613a0a565b5060005b815181101561261e57600160ce60008484815181106125da576125da6142f1565b6020908102919091018101516001600160a01b03168252810191909152604001600020805460ff191691151591909117905580612616816144ec565b9150506125b9565b506040516329965a1d60e01b815230600482018190527fac7fbab5f54a3ca8194167523c6753bfeb96a445279294b6125b68cce217705460248301526044820152731820a4b7618bde71dce8cdc73aab6c95905fad24906329965a1d90606401600060405180830381600087803b15801561269857600080fd5b505af11580156126ac573d6000803e3d6000fd5b50506040516329965a1d60e01b815230600482018190527faea199e31a596269b42cdafd93407f14436db6e4cad65417994c2eb37381e05a60248301526044820152731820a4b7618bde71dce8cdc73aab6c95905fad2492506329965a1d9150606401600060405180830381600087803b15801561272957600080fd5b505af115801561204e573d6000803e3d6000fd5b6109b08282611bcf565b6000610738825490565b6000818060200190518101906127679190614517565b80519091506001600160a01b03166127c15760405162461bcd60e51b815260206004820181905260248201527f526563697069656e742063616e6e6f74206265207a65726f206164647265737360448201526064016106f2565b80516001600160a01b031660009081526101f56020908152604091829020600a8101869055600c8101869055600d8101805460ff191660011790559083015191830151909110156128d9578161010001518260c0015110158061282d57508161012001518260e0015110155b6128975760405162461bcd60e51b815260206004820152603560248201527f556e6c6f636b20636c69666620616d6f756e74732063616e6e6f7420657863656044820152746564207665737420636c69666620616d6f756e747360581b60648201526084016106f2565b600281018490556020820151815560408201516001820155608082015160c08301516128c4918391613351565b60a082015160e08301516128d9918391613351565b6007810184905560208201516005820190815560608301516006830155608083015161010084015161290c929190613351565b60a0820151610120830151612925916005840191613351565b815160208084015160408086015160608088015183518b815295860194909452918401528201526001600160a01b03909116907f17161516b6ce34594617177a800b150a86ddee02c06993a73ef000a02367d1199060800160405180910390a250505050565b610e0f848484846001613526565b60006129a5838361365a565b6129af8484613728565b6107bb91906141fe565b60405163555ddc6560e11b81526001600160a01b03861660048201527f29ddb589b1fb5fc7cf394961c1adf5f8c6454761adf795e67fe149f658abe8956024820152600090731820a4b7618bde71dce8cdc73aab6c95905fad249063aabbb8ca90604401602060405180830381865afa158015612a3a573d6000803e3d6000fd5b505050506040513d601f19601f82011682018060405250810190612a5e91906145a5565b90506001600160a01b0381161561204e57604051633ad5cbc160e11b81526001600160a01b038216906375ab978290612aa5908a908a908a908a908a908a906004016145c2565b600060405180830381600087803b158015612abf57600080fd5b505af1158015612ad3573d6000803e3d6000fd5b5050505050505050505050565b61015f5460ff1615612b045760405162461bcd60e51b81526004016106f2906142b0565b6001600160a01b03831660008181526101f560205260409020600d0154901580159160ff16908290612b335750805b15612bae576000612b448133610d47565b1590508015612bac576000612b5887610d23565b905080851115612baa5760405162461bcd60e51b815260206004820152601b60248201527f6c4e4f52493a20696e73756666696369656e742062616c616e6365000000000060448201526064016106f2565b505b505b6123c98585856132b8565b612bc586868686612ae0565b6001600160a01b038516600090815260c9602052604090205483811015612c3e5760405162461bcd60e51b815260206004820152602760248201527f4552433737373a207472616e7366657220616d6f756e7420657863656564732060448201526662616c616e636560c81b60648201526084016106f2565b6001600160a01b03808716600090815260c96020526040808220878503905591871681529081208054869290612c759084906141fe565b92505081905550846001600160a01b0316866001600160a01b0316886001600160a01b03167f06b541ddaa720db2b10a4d0cdac39b8d360425fc073085fac19bc82614677987878787604051612ccd939291906143b3565b60405180910390a4846001600160a01b0316866001600160a01b031660008051602061470a83398151915286604051612d0891815260200190565b60405180910390a350505050505050565b60405163555ddc6560e11b81526001600160a01b03861660048201527fb281fc8c12954d22544db45de3159a39272895b169a852b314f9cc762e44c53b6024820152600090731820a4b7618bde71dce8cdc73aab6c95905fad249063aabbb8ca90604401602060405180830381865afa158015612d9a573d6000803e3d6000fd5b505050506040513d601f19601f82011682018060405250810190612dbe91906145a5565b90506001600160a01b03811615612e3a576040516223de2960e01b81526001600160a01b038216906223de2990612e03908b908b908b908b908b908b906004016145c2565b600060405180830381600087803b158015612e1d57600080fd5b505af1158015612e31573d6000803e3d6000fd5b50505050612ed4565b8115612ed4576001600160a01b0386163b15612ed45760405162461bcd60e51b815260206004820152604d60248201527f4552433737373a20746f6b656e20726563697069656e7420636f6e747261637460448201527f20686173206e6f20696d706c656d656e74657220666f7220455243373737546f60648201526c1ad95b9cd49958da5c1a595b9d609a1b608482015260a4016106f2565b5050505050505050565b60606000612eed83600261461c565b612ef89060026141fe565b67ffffffffffffffff811115612f1057612f10613d5a565b6040519080825280601f01601f191660200182016040528015612f3a576020820181803683370190505b509050600360fc1b81600081518110612f5557612f556142f1565b60200101906001600160f81b031916908160001a905350600f60fb1b81600181518110612f8457612f846142f1565b60200101906001600160f81b031916908160001a9053506000612fa884600261461c565b612fb39060016141fe565b90505b600181111561302b576f181899199a1a9b1b9c1cb0b131b232b360811b85600f1660108110612fe757612fe76142f1565b1a60f81b828281518110612ffd57612ffd6142f1565b60200101906001600160f81b031916908160001a90535060049490941c936130248161463b565b9050612fb6565b5083156107bb5760405162461bcd60e51b815260206004820181905260248201527f537472696e67733a20686578206c656e67746820696e73756666696369656e7460448201526064016106f2565b6130848282610d47565b6109b05760008281526065602090815260408083206001600160a01b03851684529091529020805460ff191660011790556130bc3390565b6001600160a01b0316816001600160a01b0316837f2f8788117e7eff1d82e926ec794901d17c78024a50270940304540a733656f0d60405160405180910390a45050565b60006107bb836001600160a01b038416613792565b61311f8282610d47565b156109b05760008281526065602090815260408083206001600160a01b0385168085529252808320805460ff1916905551339285917ff6391f5c32d9c69d2a47ea670b442974b53935d1edc7fd64eb21e047a839171b9190a45050565b60006107bb836001600160a01b0384166137e1565b6001600160a01b0383166131f55760405162461bcd60e51b815260206004820152602560248201527f4552433737373a20617070726f76652066726f6d20746865207a65726f206164604482015264647265737360d81b60648201526084016106f2565b6001600160a01b0382166132575760405162461bcd60e51b815260206004820152602360248201527f4552433737373a20617070726f766520746f20746865207a65726f206164647260448201526265737360e81b60648201526084016106f2565b6001600160a01b03838116600081815260d1602090815260408083209487168084529482529182902085905590518481527f8c5be1e5ebec7d5bd14f71427d1e84f3dd0314c0f7b2291e5b200ac8c7c3b925910160405180910390a3505050565b6109318383836138d4565b600054610100900460ff166132ea5760405162461bcd60e51b81526004016106f2906144a1565b81516132fd9060fe906020850190613986565b5080516109319060ff906020840190613986565b600081831061332057816107bb565b5090919050565b600082600001828154811061333e5761333e6142f1565b9060005260206000200154905092915050565b60048301546133b05782548210156133ab5760405162461bcd60e51b815260206004820152601b60248201527f436c696666206265666f7265207363686564756c65207374617274000000000060448201526064016106f2565b613428565b826003016000600185600401546133c791906142da565b8152602001908152602001600020600001548210156134285760405162461bcd60e51b815260206004820152601860248201527f436c69666673206e6f74206368726f6e6f6c6f676963616c000000000000000060448201526064016106f2565b826001015482111561347c5760405162461bcd60e51b815260206004820181905260248201527f436c696666732063616e6e6f7420656e64206166746572207363686564756c6560448201526064016106f2565b82600201548161348b8561393b565b61349591906141fe565b11156134e35760405162461bcd60e51b815260206004820152601a60248201527f636c69666620616d6f756e74732065786365656420746f74616c00000000000060448201526064016106f2565b6004830180546000908152600385016020526040808220859055825482528120600190810184905582549092919061351c9084906141fe565b9091555050505050565b6001600160a01b03851661357c5760405162461bcd60e51b815260206004820181905260248201527f4552433737373a206d696e7420746f20746865207a65726f206164647265737360448201526064016106f2565b3361358a8160008888612ae0565b8460ca600082825461359c91906141fe565b90915550506001600160a01b038616600090815260c96020526040812080548792906135c99084906141fe565b909155506135df90508160008888888888612d19565b856001600160a01b0316816001600160a01b03167f2fe5be0146f74c5bce36c0b80911af6c7d86ff27e89d5cfa61fc681327954e5d878787604051613626939291906143b3565b60405180910390a36040518581526001600160a01b0387169060009060008051602061470a83398151915290602001611999565b6000806136668461393b565b84600201541061368b576136798461393b565b846002015461368891906142da565b90505b8360010154831061369d579050610738565b83546004850154156136d557846003016000600187600401546136c091906142da565b81526020019081526020016000206000015490505b60008186600101546136e791906142da565b905060006136f58387614652565b9050600081131561371a578161370b828661461c565b6137159190614691565b61371d565b60005b979650505050505050565b600080805b8460040154811015613783576000818152600386016020526040902054841061377157600081815260038601602052604090206001015461376e90836141fe565b91505b8061377b816144ec565b91505061372d565b50610903846002015482613311565b60008181526001830160205260408120546137d957508154600181810184556000848152602080822090930184905584548482528286019093526040902091909155610738565b506000610738565b600081815260018301602052604081205480156138ca5760006138056001836142da565b8554909150600090613819906001906142da565b905081811461387e576000866000018281548110613839576138396142f1565b906000526020600020015490508087600001848154811061385c5761385c6142f1565b6000918252602080832090910192909255918252600188019052604090208390555b855486908061388f5761388f6146b3565b600190038181906000526020600020016000905590558560010160008681526020019081526020016000206000905560019350505050610738565b6000915050610738565b61015f5460ff16156109315760405162461bcd60e51b815260206004820152602a60248201527f45524332305061757361626c653a20746f6b656e207472616e736665722077686044820152691a5b19481c185d5cd95960b21b60648201526084016106f2565b60008060005b836004015481101561397f57600081815260038501602052604090206001015461396b90836141fe565b915080613977816144ec565b915050613941565b5092915050565b8280546139929061435f565b90600052602060002090601f0160209004810192826139b457600085556139fa565b82601f106139cd57805160ff19168380011785556139fa565b828001600101855582156139fa579182015b828111156139fa5782518255916020019190600101906139df565b50613a06929150613a5f565b5090565b8280548282559060005260206000209081019282156139fa579160200282015b828111156139fa57825182546001600160a01b0319166001600160a01b03909116178255602090920191600190910190613a2a565b5b80821115613a065760008155600101613a60565b6001600160a01b0381168114610b3657600080fd5b60008083601f840112613a9b57600080fd5b50813567ffffffffffffffff811115613ab357600080fd5b602083019150836020828501011115613acb57600080fd5b9250929050565b60008060008060008060008060c0898b031215613aee57600080fd5b8835613af981613a74565b97506020890135613b0981613a74565b96506040890135613b1981613a74565b955060608901359450608089013567ffffffffffffffff80821115613b3d57600080fd5b613b498c838d01613a89565b909650945060a08b0135915080821115613b6257600080fd5b50613b6f8b828c01613a89565b999c989b5096995094979396929594505050565b600060208284031215613b9557600080fd5b81356001600160e01b0319811681146107bb57600080fd5b6020808252825182820181905260009190848201906040850190845b81811015613bee5783516001600160a01b031683529284019291840191600101613bc9565b50909695505050505050565b60005b83811015613c15578181015183820152602001613bfd565b83811115610e0f5750506000910152565b60008151808452613c3e816020860160208601613bfa565b601f01601f19169290920160200192915050565b6020815260006107bb6020830184613c26565b60008060408385031215613c7857600080fd5b8235613c8381613a74565b946020939093013593505050565b600060208284031215613ca357600080fd5b81356107bb81613a74565b600080600060608486031215613cc357600080fd5b8335613cce81613a74565b92506020840135613cde81613a74565b929592945050506040919091013590565b600060208284031215613d0157600080fd5b5035919050565b600060208284031215613d1a57600080fd5b813580151581146107bb57600080fd5b60008060408385031215613d3d57600080fd5b823591506020830135613d4f81613a74565b809150509250929050565b634e487b7160e01b600052604160045260246000fd5b604051610140810167ffffffffffffffff81118282101715613d9457613d94613d5a565b60405290565b600082601f830112613dab57600080fd5b813567ffffffffffffffff80821115613dc657613dc6613d5a565b604051601f8301601f19908116603f01168101908282118183101715613dee57613dee613d5a565b81604052838152866020858801011115613e0757600080fd5b836020870160208301376000602085830101528094505050505092915050565b60008060408385031215613e3a57600080fd5b823567ffffffffffffffff80821115613e5257600080fd5b613e5e86838701613d9a565b93506020850135915080821115613e7457600080fd5b50613e8185828601613d9a565b9150509250929050565b600080600080600060a08688031215613ea357600080fd5b8535613eae81613a74565b94506020860135613ebe81613a74565b935060408601359250606086013567ffffffffffffffff80821115613ee257600080fd5b613eee89838a01613d9a565b93506080880135915080821115613f0457600080fd5b50613f1188828901613d9a565b9150509295509295909350565b60008060408385031215613f3157600080fd5b50508035926020909101359150565b600080600060608486031215613f5557600080fd5b8335613f6081613a74565b925060208401359150604084013567ffffffffffffffff811115613f8357600080fd5b613f8f86828701613d9a565b9150509250925092565b600080600060608486031215613fae57600080fd5b833592506020840135613fc081613a74565b91506040840135613fd081613a74565b809150509250925092565b815181526020808301516101a0830191613fff908401826001600160a01b03169052565b5060408301516040830152606083015160608301526080830151608083015260a083015160a083015260c083015160c083015260e083015160e083015261010080840151818401525061012080840151818401525061014080840151818401525061016080840151818401525061018080840151818401525092915050565b6000806040838503121561409157600080fd5b823561409c81613a74565b91506020830135613d4f81613a74565b60008060008060008060008060008060006101608c8e0312156140ce57600080fd5b8b359a5060208c01356140e081613a74565b9a9d9a9c505050506040890135986060810135986080820135985060a0820135975060c0820135965060e0820135955061010082013594506101208201359350610140909101359150565b6000806000806080858703121561414157600080fd5b843561414c81613a74565b935060208501359250604085013567ffffffffffffffff8082111561417057600080fd5b61417c88838901613d9a565b9350606087013591508082111561419257600080fd5b5061419f87828801613d9a565b91505092959194509250565b600080604083850312156141be57600080fd5b82359150602083013567ffffffffffffffff8111156141dc57600080fd5b613e8185828601613d9a565b634e487b7160e01b600052601160045260246000fd5b60008219821115614211576142116141e8565b500190565b6020808252602e908201527f496e697469616c697a61626c653a20636f6e747261637420697320616c72656160408201526d191e481a5b9a5d1a585b1a5e995960921b606082015260800190565b6020808252602c908201527f4552433737373a2063616c6c6572206973206e6f7420616e206f70657261746f60408201526b39103337b9103437b63232b960a11b606082015260800190565b60208082526010908201526f14185d5cd8589b194e881c185d5cd95960821b604082015260600190565b6000828210156142ec576142ec6141e8565b500390565b634e487b7160e01b600052603260045260246000fd5b60006040828403121561431957600080fd5b6040516040810181811067ffffffffffffffff8211171561433c5761433c613d5a565b604052823561434a81613a74565b81526020928301359281019290925250919050565b600181811c9082168061437357607f821691505b6020821081141561439457634e487b7160e01b600052602260045260246000fd5b50919050565b6000602082840312156143ac57600080fd5b5051919050565b8381526060602082015260006143cc6060830185613c26565b82810360408401526143de8185613c26565b9695505050505050565b60208082526024908201527f4552433737373a207472616e7366657220746f20746865207a65726f206164646040820152637265737360e01b606082015260800190565b7f416363657373436f6e74726f6c3a206163636f756e7420000000000000000000815260008351614464816017850160208801613bfa565b7001034b99036b4b9b9b4b733903937b6329607d1b6017918401918201528351614495816028840160208801613bfa565b01602801949350505050565b6020808252602b908201527f496e697469616c697a61626c653a20636f6e7472616374206973206e6f74206960408201526a6e697469616c697a696e6760a81b606082015260800190565b6000600019821415614500576145006141e8565b5060010190565b805161451281613a74565b919050565b6000610140828403121561452a57600080fd5b614532613d70565b61453b83614507565b81526020830151602082015260408301516040820152606083015160608201526080830151608082015260a083015160a082015260c083015160c082015260e083015160e08201526101008084015181830152506101208084015181830152508091505092915050565b6000602082840312156145b757600080fd5b81516107bb81613a74565b6001600160a01b0387811682528681166020830152851660408201526060810184905260c0608082018190526000906145fd90830185613c26565b82810360a084015261460f8185613c26565b9998505050505050505050565b6000816000190483118215151615614636576146366141e8565b500290565b60008161464a5761464a6141e8565b506000190190565b60008083128015600160ff1b850184121615614670576146706141e8565b6001600160ff1b038401831381161561468b5761468b6141e8565b50500390565b6000826146ae57634e487b7160e01b600052601260045260246000fd5b500490565b634e487b7160e01b600052603160045260246000fdfea52f07bb8dc8df886598eb50edeaba2b8e45715237ed244354b60ea04d0390b865d7a28e3265b37a6474929f336521b332c1681b933f6cb9f3376673440d862addf252ad1be2c89b69c2b068fc378daa952ba7f163c4a11628f55a4df523b3efa2646970667358221220a020584122a632de758490e7b88b8cb0966559842386d796d27596b79fa3877c64736f6c634300080a0033",
  "linkReferences": {},
  "deployedLinkReferences": {}
}