{
  "_format": "hh-sol-artifact-1",
  "contractName": "LockedNORI",
  "sourceName": "contracts/LockedNORI.sol",
  "abi": [
    {
      "anonymous": false,
      "inputs": [
        {
          "indexed": true,
          "internalType": "address",
          "name": "owner",
          "type": "address"
        },
        {
          "indexed": true,
          "internalType": "address",
          "name": "spender",
          "type": "address"
        },
        {
          "indexed": false,
          "internalType": "uint256",
          "name": "value",
          "type": "uint256"
        }
      ],
      "name": "Approval",
      "type": "event"
    },
    {
      "anonymous": false,
      "inputs": [
        {
          "indexed": true,
          "internalType": "address",
          "name": "operator",
          "type": "address"
        },
        {
          "indexed": true,
          "internalType": "address",
          "name": "tokenHolder",
          "type": "address"
        }
      ],
      "name": "AuthorizedOperator",
      "type": "event"
    },
    {
      "anonymous": false,
      "inputs": [
        {
          "indexed": true,
          "internalType": "address",
          "name": "operator",
          "type": "address"
        },
        {
          "indexed": true,
          "internalType": "address",
          "name": "from",
          "type": "address"
        },
        {
          "indexed": false,
          "internalType": "uint256",
          "name": "amount",
          "type": "uint256"
        },
        {
          "indexed": false,
          "internalType": "bytes",
          "name": "data",
          "type": "bytes"
        },
        {
          "indexed": false,
          "internalType": "bytes",
          "name": "operatorData",
          "type": "bytes"
        }
      ],
      "name": "Burned",
      "type": "event"
    },
    {
      "anonymous": false,
      "inputs": [
        {
          "indexed": true,
          "internalType": "address",
          "name": "operator",
          "type": "address"
        },
        {
          "indexed": true,
          "internalType": "address",
          "name": "to",
          "type": "address"
        },
        {
          "indexed": false,
          "internalType": "uint256",
          "name": "amount",
          "type": "uint256"
        },
        {
          "indexed": false,
          "internalType": "bytes",
          "name": "data",
          "type": "bytes"
        },
        {
          "indexed": false,
          "internalType": "bytes",
          "name": "operatorData",
          "type": "bytes"
        }
      ],
      "name": "Minted",
      "type": "event"
    },
    {
      "anonymous": false,
      "inputs": [
        {
          "indexed": false,
          "internalType": "address",
          "name": "account",
          "type": "address"
        }
      ],
      "name": "Paused",
      "type": "event"
    },
    {
      "anonymous": false,
      "inputs": [
        {
          "indexed": true,
          "internalType": "address",
          "name": "operator",
          "type": "address"
        },
        {
          "indexed": true,
          "internalType": "address",
          "name": "tokenHolder",
          "type": "address"
        }
      ],
      "name": "RevokedOperator",
      "type": "event"
    },
    {
      "anonymous": false,
      "inputs": [
        {
          "indexed": true,
          "internalType": "bytes32",
          "name": "role",
          "type": "bytes32"
        },
        {
          "indexed": true,
          "internalType": "bytes32",
          "name": "previousAdminRole",
          "type": "bytes32"
        },
        {
          "indexed": true,
          "internalType": "bytes32",
          "name": "newAdminRole",
          "type": "bytes32"
        }
      ],
      "name": "RoleAdminChanged",
      "type": "event"
    },
    {
      "anonymous": false,
      "inputs": [
        {
          "indexed": true,
          "internalType": "bytes32",
          "name": "role",
          "type": "bytes32"
        },
        {
          "indexed": true,
          "internalType": "address",
          "name": "account",
          "type": "address"
        },
        {
          "indexed": true,
          "internalType": "address",
          "name": "sender",
          "type": "address"
        }
      ],
      "name": "RoleGranted",
      "type": "event"
    },
    {
      "anonymous": false,
      "inputs": [
        {
          "indexed": true,
          "internalType": "bytes32",
          "name": "role",
          "type": "bytes32"
        },
        {
          "indexed": true,
          "internalType": "address",
          "name": "account",
          "type": "address"
        },
        {
          "indexed": true,
          "internalType": "address",
          "name": "sender",
          "type": "address"
        }
      ],
      "name": "RoleRevoked",
      "type": "event"
    },
    {
      "anonymous": false,
      "inputs": [
        {
          "indexed": true,
          "internalType": "address",
          "name": "operator",
          "type": "address"
        },
        {
          "indexed": true,
          "internalType": "address",
          "name": "from",
          "type": "address"
        },
        {
          "indexed": true,
          "internalType": "address",
          "name": "to",
          "type": "address"
        },
        {
          "indexed": false,
          "internalType": "uint256",
          "name": "amount",
          "type": "uint256"
        },
        {
          "indexed": false,
          "internalType": "bytes",
          "name": "data",
          "type": "bytes"
        },
        {
          "indexed": false,
          "internalType": "bytes",
          "name": "operatorData",
          "type": "bytes"
        }
      ],
      "name": "Sent",
      "type": "event"
    },
    {
      "anonymous": false,
      "inputs": [
        {
          "indexed": true,
          "internalType": "address",
          "name": "recipient",
          "type": "address"
        },
        {
          "indexed": true,
          "internalType": "uint256",
          "name": "amount",
          "type": "uint256"
        },
        {
          "indexed": true,
          "internalType": "uint256",
          "name": "startTime",
          "type": "uint256"
        },
        {
          "indexed": false,
          "internalType": "uint256",
          "name": "vestEndTime",
          "type": "uint256"
        },
        {
          "indexed": false,
          "internalType": "uint256",
          "name": "unlockEndTime",
          "type": "uint256"
        }
      ],
      "name": "TokenGrantCreated",
      "type": "event"
    },
    {
      "anonymous": false,
      "inputs": [
        {
          "indexed": true,
          "internalType": "address",
          "name": "from",
          "type": "address"
        },
        {
          "indexed": true,
          "internalType": "address",
          "name": "to",
          "type": "address"
        },
        {
          "indexed": false,
          "internalType": "uint256",
          "name": "quantity",
          "type": "uint256"
        }
      ],
      "name": "TokensClaimed",
      "type": "event"
    },
    {
      "anonymous": false,
      "inputs": [
        {
          "indexed": true,
          "internalType": "address",
          "name": "from",
          "type": "address"
        },
        {
          "indexed": true,
          "internalType": "address",
          "name": "to",
          "type": "address"
        },
        {
          "indexed": false,
          "internalType": "uint256",
          "name": "value",
          "type": "uint256"
        }
      ],
      "name": "Transfer",
      "type": "event"
    },
    {
      "anonymous": false,
      "inputs": [
        {
          "indexed": false,
          "internalType": "address",
          "name": "account",
          "type": "address"
        }
      ],
      "name": "Unpaused",
      "type": "event"
    },
    {
      "anonymous": false,
      "inputs": [
        {
          "indexed": true,
          "internalType": "uint256",
          "name": "atTime",
          "type": "uint256"
        },
        {
          "indexed": true,
          "internalType": "address",
          "name": "from",
          "type": "address"
        },
        {
          "indexed": true,
          "internalType": "uint256",
          "name": "quantity",
          "type": "uint256"
        }
      ],
      "name": "UnvestedTokensRevoked",
      "type": "event"
    },
    {
      "inputs": [],
      "name": "DEFAULT_ADMIN_ROLE",
      "outputs": [
        {
          "internalType": "bytes32",
          "name": "",
          "type": "bytes32"
        }
      ],
      "stateMutability": "view",
      "type": "function"
    },
    {
      "inputs": [],
      "name": "ERC777_TOKENS_RECIPIENT_HASH",
      "outputs": [
        {
          "internalType": "bytes32",
          "name": "",
          "type": "bytes32"
        }
      ],
      "stateMutability": "view",
      "type": "function"
    },
    {
      "inputs": [],
      "name": "PAUSER_ROLE",
      "outputs": [
        {
          "internalType": "bytes32",
          "name": "",
          "type": "bytes32"
        }
      ],
      "stateMutability": "view",
      "type": "function"
    },
    {
      "inputs": [],
      "name": "TOKEN_GRANTER_ROLE",
      "outputs": [
        {
          "internalType": "bytes32",
          "name": "",
          "type": "bytes32"
        }
      ],
      "stateMutability": "view",
      "type": "function"
    },
    {
      "inputs": [
        {
          "internalType": "address",
          "name": "holder",
          "type": "address"
        },
        {
          "internalType": "address",
          "name": "spender",
          "type": "address"
        }
      ],
      "name": "allowance",
      "outputs": [
        {
          "internalType": "uint256",
          "name": "",
          "type": "uint256"
        }
      ],
      "stateMutability": "view",
      "type": "function"
    },
    {
      "inputs": [
        {
          "internalType": "address",
          "name": "spender",
          "type": "address"
        },
        {
          "internalType": "uint256",
          "name": "value",
          "type": "uint256"
        }
      ],
      "name": "approve",
      "outputs": [
        {
          "internalType": "bool",
          "name": "",
          "type": "bool"
        }
      ],
      "stateMutability": "nonpayable",
      "type": "function"
    },
    {
      "inputs": [
        {
          "internalType": "address",
          "name": "operator",
          "type": "address"
        }
      ],
      "name": "authorizeOperator",
      "outputs": [],
      "stateMutability": "nonpayable",
      "type": "function"
    },
    {
      "inputs": [
        {
          "internalType": "address",
          "name": "tokenHolder",
          "type": "address"
        }
      ],
      "name": "balanceOf",
      "outputs": [
        {
          "internalType": "uint256",
          "name": "",
          "type": "uint256"
        }
      ],
      "stateMutability": "view",
      "type": "function"
    },
    {
      "inputs": [
        {
          "internalType": "address[]",
          "name": "accounts",
          "type": "address[]"
        }
      ],
      "name": "batchGetGrant",
      "outputs": [
        {
          "components": [
            {
              "internalType": "uint256",
              "name": "grantAmount",
              "type": "uint256"
            },
            {
              "internalType": "address",
              "name": "recipient",
              "type": "address"
            },
            {
              "internalType": "uint256",
              "name": "startTime",
              "type": "uint256"
            },
            {
              "internalType": "uint256",
              "name": "vestEndTime",
              "type": "uint256"
            },
            {
              "internalType": "uint256",
              "name": "unlockEndTime",
              "type": "uint256"
            },
            {
              "internalType": "uint256",
              "name": "cliff1Time",
              "type": "uint256"
            },
            {
              "internalType": "uint256",
              "name": "cliff2Time",
              "type": "uint256"
            },
            {
              "internalType": "uint256",
              "name": "vestCliff1Amount",
              "type": "uint256"
            },
            {
              "internalType": "uint256",
              "name": "vestCliff2Amount",
              "type": "uint256"
            },
            {
              "internalType": "uint256",
              "name": "unlockCliff1Amount",
              "type": "uint256"
            },
            {
              "internalType": "uint256",
              "name": "unlockCliff2Amount",
              "type": "uint256"
            },
            {
              "internalType": "uint256",
              "name": "claimedAmount",
              "type": "uint256"
            },
            {
              "internalType": "uint256",
              "name": "originalAmount",
              "type": "uint256"
            },
            {
              "internalType": "uint256",
              "name": "lastRevocationTime",
              "type": "uint256"
            }
          ],
          "internalType": "struct LockedNORI.TokenGrantDetail[]",
          "name": "",
          "type": "tuple[]"
        }
      ],
      "stateMutability": "view",
      "type": "function"
    },
    {
      "inputs": [
        {
          "internalType": "uint256",
          "name": "",
          "type": "uint256"
        },
        {
          "internalType": "bytes",
          "name": "",
          "type": "bytes"
        }
      ],
      "name": "burn",
      "outputs": [],
      "stateMutability": "pure",
      "type": "function"
    },
    {
      "inputs": [
        {
          "internalType": "uint256",
          "name": "amount",
          "type": "uint256"
        },
        {
          "internalType": "address",
          "name": "recipient",
          "type": "address"
        },
        {
          "internalType": "uint256",
          "name": "startTime",
          "type": "uint256"
        },
        {
          "internalType": "uint256",
          "name": "vestEndTime",
          "type": "uint256"
        },
        {
          "internalType": "uint256",
          "name": "unlockEndTime",
          "type": "uint256"
        },
        {
          "internalType": "uint256",
          "name": "cliff1Time",
          "type": "uint256"
        },
        {
          "internalType": "uint256",
          "name": "cliff2Time",
          "type": "uint256"
        },
        {
          "internalType": "uint256",
          "name": "vestCliff1Amount",
          "type": "uint256"
        },
        {
          "internalType": "uint256",
          "name": "vestCliff2Amount",
          "type": "uint256"
        },
        {
          "internalType": "uint256",
          "name": "unlockCliff1Amount",
          "type": "uint256"
        },
        {
          "internalType": "uint256",
          "name": "unlockCliff2Amount",
          "type": "uint256"
        }
      ],
      "name": "createGrant",
      "outputs": [],
      "stateMutability": "nonpayable",
      "type": "function"
    },
    {
      "inputs": [],
      "name": "decimals",
      "outputs": [
        {
          "internalType": "uint8",
          "name": "",
          "type": "uint8"
        }
      ],
      "stateMutability": "pure",
      "type": "function"
    },
    {
      "inputs": [],
      "name": "defaultOperators",
      "outputs": [
        {
          "internalType": "address[]",
          "name": "",
          "type": "address[]"
        }
      ],
      "stateMutability": "view",
      "type": "function"
    },
    {
      "inputs": [
        {
          "internalType": "address",
          "name": "account",
          "type": "address"
        }
      ],
      "name": "getGrant",
      "outputs": [
        {
          "components": [
            {
              "internalType": "uint256",
              "name": "grantAmount",
              "type": "uint256"
            },
            {
              "internalType": "address",
              "name": "recipient",
              "type": "address"
            },
            {
              "internalType": "uint256",
              "name": "startTime",
              "type": "uint256"
            },
            {
              "internalType": "uint256",
              "name": "vestEndTime",
              "type": "uint256"
            },
            {
              "internalType": "uint256",
              "name": "unlockEndTime",
              "type": "uint256"
            },
            {
              "internalType": "uint256",
              "name": "cliff1Time",
              "type": "uint256"
            },
            {
              "internalType": "uint256",
              "name": "cliff2Time",
              "type": "uint256"
            },
            {
              "internalType": "uint256",
              "name": "vestCliff1Amount",
              "type": "uint256"
            },
            {
              "internalType": "uint256",
              "name": "vestCliff2Amount",
              "type": "uint256"
            },
            {
              "internalType": "uint256",
              "name": "unlockCliff1Amount",
              "type": "uint256"
            },
            {
              "internalType": "uint256",
              "name": "unlockCliff2Amount",
              "type": "uint256"
            },
            {
              "internalType": "uint256",
              "name": "claimedAmount",
              "type": "uint256"
            },
            {
              "internalType": "uint256",
              "name": "originalAmount",
              "type": "uint256"
            },
            {
              "internalType": "uint256",
              "name": "lastRevocationTime",
              "type": "uint256"
            }
          ],
          "internalType": "struct LockedNORI.TokenGrantDetail",
          "name": "",
          "type": "tuple"
        }
      ],
      "stateMutability": "view",
      "type": "function"
    },
    {
      "inputs": [
        {
          "internalType": "bytes32",
          "name": "role",
          "type": "bytes32"
        }
      ],
      "name": "getRoleAdmin",
      "outputs": [
        {
          "internalType": "bytes32",
          "name": "",
          "type": "bytes32"
        }
      ],
      "stateMutability": "view",
      "type": "function"
    },
    {
      "inputs": [
        {
          "internalType": "bytes32",
          "name": "role",
          "type": "bytes32"
        },
        {
          "internalType": "uint256",
          "name": "index",
          "type": "uint256"
        }
      ],
      "name": "getRoleMember",
      "outputs": [
        {
          "internalType": "address",
          "name": "",
          "type": "address"
        }
      ],
      "stateMutability": "view",
      "type": "function"
    },
    {
      "inputs": [
        {
          "internalType": "bytes32",
          "name": "role",
          "type": "bytes32"
        }
      ],
      "name": "getRoleMemberCount",
      "outputs": [
        {
          "internalType": "uint256",
          "name": "",
          "type": "uint256"
        }
      ],
      "stateMutability": "view",
      "type": "function"
    },
    {
      "inputs": [
        {
          "internalType": "bytes32",
          "name": "role",
          "type": "bytes32"
        },
        {
          "internalType": "address",
          "name": "account",
          "type": "address"
        }
      ],
      "name": "grantRole",
      "outputs": [],
      "stateMutability": "nonpayable",
      "type": "function"
    },
    {
      "inputs": [],
      "name": "granularity",
      "outputs": [
        {
          "internalType": "uint256",
          "name": "",
          "type": "uint256"
        }
      ],
      "stateMutability": "view",
      "type": "function"
    },
    {
      "inputs": [
        {
          "internalType": "bytes32",
          "name": "role",
          "type": "bytes32"
        },
        {
          "internalType": "address",
          "name": "account",
          "type": "address"
        }
      ],
      "name": "hasRole",
      "outputs": [
        {
          "internalType": "bool",
          "name": "",
          "type": "bool"
        }
      ],
      "stateMutability": "view",
      "type": "function"
    },
    {
      "inputs": [
        {
          "internalType": "contract IERC777Upgradeable",
          "name": "bridgedPolygonNoriAddress",
          "type": "address"
        }
      ],
      "name": "initialize",
      "outputs": [],
      "stateMutability": "nonpayable",
      "type": "function"
    },
    {
      "inputs": [
        {
          "internalType": "address",
          "name": "operator",
          "type": "address"
        },
        {
          "internalType": "address",
          "name": "tokenHolder",
          "type": "address"
        }
      ],
      "name": "isOperatorFor",
      "outputs": [
        {
          "internalType": "bool",
          "name": "",
          "type": "bool"
        }
      ],
      "stateMutability": "view",
      "type": "function"
    },
    {
      "inputs": [],
      "name": "name",
      "outputs": [
        {
          "internalType": "string",
          "name": "",
          "type": "string"
        }
      ],
      "stateMutability": "view",
      "type": "function"
    },
    {
      "inputs": [
        {
          "internalType": "address",
          "name": "",
          "type": "address"
        },
        {
          "internalType": "uint256",
          "name": "",
          "type": "uint256"
        },
        {
          "internalType": "bytes",
          "name": "",
          "type": "bytes"
        },
        {
          "internalType": "bytes",
          "name": "",
          "type": "bytes"
        }
      ],
      "name": "operatorBurn",
      "outputs": [],
      "stateMutability": "pure",
      "type": "function"
    },
    {
      "inputs": [
        {
          "internalType": "address",
          "name": "sender",
          "type": "address"
        },
        {
          "internalType": "address",
          "name": "recipient",
          "type": "address"
        },
        {
          "internalType": "uint256",
          "name": "amount",
          "type": "uint256"
        },
        {
          "internalType": "bytes",
          "name": "data",
          "type": "bytes"
        },
        {
          "internalType": "bytes",
          "name": "operatorData",
          "type": "bytes"
        }
      ],
      "name": "operatorSend",
      "outputs": [],
      "stateMutability": "nonpayable",
      "type": "function"
    },
    {
      "inputs": [],
      "name": "pause",
      "outputs": [],
      "stateMutability": "nonpayable",
      "type": "function"
    },
    {
      "inputs": [],
      "name": "paused",
      "outputs": [
        {
          "internalType": "bool",
          "name": "",
          "type": "bool"
        }
      ],
      "stateMutability": "view",
      "type": "function"
    },
    {
      "inputs": [
        {
          "internalType": "address",
          "name": "account",
          "type": "address"
        }
      ],
      "name": "quantityRevokedFrom",
      "outputs": [
        {
          "internalType": "uint256",
          "name": "",
          "type": "uint256"
        }
      ],
      "stateMutability": "view",
      "type": "function"
    },
    {
      "inputs": [
        {
          "internalType": "bytes32",
          "name": "role",
          "type": "bytes32"
        },
        {
          "internalType": "address",
          "name": "account",
          "type": "address"
        }
      ],
      "name": "renounceRole",
      "outputs": [],
      "stateMutability": "nonpayable",
      "type": "function"
    },
    {
      "inputs": [
        {
          "internalType": "address",
          "name": "operator",
          "type": "address"
        }
      ],
      "name": "revokeOperator",
      "outputs": [],
      "stateMutability": "nonpayable",
      "type": "function"
    },
    {
      "inputs": [
        {
          "internalType": "bytes32",
          "name": "role",
          "type": "bytes32"
        },
        {
          "internalType": "address",
          "name": "account",
          "type": "address"
        }
      ],
      "name": "revokeRole",
      "outputs": [],
      "stateMutability": "nonpayable",
      "type": "function"
    },
    {
      "inputs": [
        {
          "internalType": "address",
          "name": "from",
          "type": "address"
        },
        {
          "internalType": "address",
          "name": "to",
          "type": "address"
        },
        {
          "internalType": "uint256",
          "name": "atTime",
          "type": "uint256"
        },
        {
          "internalType": "uint256",
          "name": "amount",
          "type": "uint256"
        }
      ],
      "name": "revokeUnvestedTokenAmount",
      "outputs": [],
      "stateMutability": "nonpayable",
      "type": "function"
    },
    {
      "inputs": [
        {
          "internalType": "address",
          "name": "from",
          "type": "address"
        },
        {
          "internalType": "address",
          "name": "to",
          "type": "address"
        },
        {
          "internalType": "uint256",
          "name": "atTime",
          "type": "uint256"
        }
      ],
      "name": "revokeUnvestedTokens",
      "outputs": [],
      "stateMutability": "nonpayable",
      "type": "function"
    },
    {
      "inputs": [
        {
          "internalType": "address",
          "name": "recipient",
          "type": "address"
        },
        {
          "internalType": "uint256",
          "name": "amount",
          "type": "uint256"
        },
        {
          "internalType": "bytes",
          "name": "data",
          "type": "bytes"
        }
      ],
      "name": "send",
      "outputs": [],
      "stateMutability": "nonpayable",
      "type": "function"
    },
    {
      "inputs": [
        {
          "internalType": "bytes4",
          "name": "interfaceId",
          "type": "bytes4"
        }
      ],
      "name": "supportsInterface",
      "outputs": [
        {
          "internalType": "bool",
          "name": "",
          "type": "bool"
        }
      ],
      "stateMutability": "view",
      "type": "function"
    },
    {
      "inputs": [],
      "name": "symbol",
      "outputs": [
        {
          "internalType": "string",
          "name": "",
          "type": "string"
        }
      ],
      "stateMutability": "view",
      "type": "function"
    },
    {
      "inputs": [
        {
          "internalType": "address",
          "name": "operator",
          "type": "address"
        },
        {
          "internalType": "address",
          "name": "from",
          "type": "address"
        },
        {
          "internalType": "address",
          "name": "",
          "type": "address"
        },
        {
          "internalType": "uint256",
          "name": "amount",
          "type": "uint256"
        },
        {
          "internalType": "bytes",
          "name": "userData",
          "type": "bytes"
        },
        {
          "internalType": "bytes",
          "name": "operatorData",
          "type": "bytes"
        }
      ],
      "name": "tokensReceived",
      "outputs": [],
      "stateMutability": "nonpayable",
      "type": "function"
    },
    {
      "inputs": [],
      "name": "totalSupply",
      "outputs": [
        {
          "internalType": "uint256",
          "name": "",
          "type": "uint256"
        }
      ],
      "stateMutability": "view",
      "type": "function"
    },
    {
      "inputs": [
        {
          "internalType": "address",
          "name": "recipient",
          "type": "address"
        },
        {
          "internalType": "uint256",
          "name": "amount",
          "type": "uint256"
        }
      ],
      "name": "transfer",
      "outputs": [
        {
          "internalType": "bool",
          "name": "",
          "type": "bool"
        }
      ],
      "stateMutability": "nonpayable",
      "type": "function"
    },
    {
      "inputs": [
        {
          "internalType": "address",
          "name": "holder",
          "type": "address"
        },
        {
          "internalType": "address",
          "name": "recipient",
          "type": "address"
        },
        {
          "internalType": "uint256",
          "name": "amount",
          "type": "uint256"
        }
      ],
      "name": "transferFrom",
      "outputs": [
        {
          "internalType": "bool",
          "name": "",
          "type": "bool"
        }
      ],
      "stateMutability": "nonpayable",
      "type": "function"
    },
    {
      "inputs": [
        {
          "internalType": "address",
          "name": "account",
          "type": "address"
        }
      ],
      "name": "unlockedBalanceOf",
      "outputs": [
        {
          "internalType": "uint256",
          "name": "",
          "type": "uint256"
        }
      ],
      "stateMutability": "view",
      "type": "function"
    },
    {
      "inputs": [],
      "name": "unpause",
      "outputs": [],
      "stateMutability": "nonpayable",
      "type": "function"
    },
    {
      "inputs": [
        {
          "internalType": "address",
          "name": "account",
          "type": "address"
        }
      ],
      "name": "vestedBalanceOf",
      "outputs": [
        {
          "internalType": "uint256",
          "name": "",
          "type": "uint256"
        }
      ],
      "stateMutability": "view",
      "type": "function"
    },
    {
      "inputs": [
        {
          "internalType": "address",
          "name": "recipient",
          "type": "address"
        },
        {
          "internalType": "uint256",
          "name": "amount",
          "type": "uint256"
        }
      ],
      "name": "withdrawTo",
      "outputs": [
        {
          "internalType": "bool",
          "name": "",
          "type": "bool"
        }
      ],
      "stateMutability": "nonpayable",
      "type": "function"
    }
  ],
  "bytecode": "0x608060405234801561001057600080fd5b5061470a806100206000396000f3fe608060405234801561001057600080fd5b50600436106102735760003560e01c80637f02f21d11610151578063a9059cbb116100c3578063d95b637111610087578063d95b637114610592578063dd62ed3e146105a5578063e63ab1e9146105de578063fad8b32a146105f3578063fc673c4f14610606578063fe9d93031461061957600080fd5b8063a9059cbb14610526578063bf31dbf414610539578063c4d66de814610559578063ca15c8731461056c578063d547741f1461057f57600080fd5b8063959b8c3f11610115578063959b8c3f146104bd57806395d89b41146104d05780639bd9bbc6146104d85780639e3f3cac146104eb5780639f916c21146104fe578063a217fddf1461051e57600080fd5b80637f02f21d146104515780638456cb591461046457806384955c881461046c5780639010d07c1461047f57806391d14854146104aa57600080fd5b8063271c6e1a116101ea578063521189a9116101ae578063521189a9146103c7578063556f0dc7146103ee5780635c975abb146103f557806362ad1b8314610400578063633d9be01461041357806370a082311461042857600080fd5b8063271c6e1a146103775780632f2ff15d1461038a578063313ce5671461039d57806336568abe146103ac5780633f4ba83a146103bf57600080fd5b80630e2d1a2a1161023c5780630e2d1a2a146102f2578063180e4bb81461031357806318160ddd14610326578063205c28781461032e57806323b872dd14610341578063248a9ca31461035457600080fd5b806223de291461027857806301ffc9a71461028d57806306e48538146102b557806306fdde03146102ca578063095ea7b3146102df575b600080fd5b61028b610286366004613aed565b610627565b005b6102a061029b366004613b9e565b6107be565b60405190151581526020015b60405180910390f35b6102bd6107e9565b6040516102ac9190613bc8565b6102d261084b565b6040516102ac9190613c6d565b6102a06102ed366004613c80565b6108d4565b610305610300366004613cac565b61091a565b6040519081526020016102ac565b61028b610321366004613cc9565b610926565b603454610305565b6102a061033c366004613c80565b610975565b6102a061034f366004613d0f565b610a84565b610305610362366004613d50565b600090815260c9602052604090206001015490565b61028b610385366004613d69565b610bb2565b61028b610398366004613de8565b610c73565b604051601281526020016102ac565b61028b6103ba366004613de8565b610c9e565b61028b610d1c565b6103057fb281fc8c12954d22544db45de3159a39272895b169a852b314f9cc762e44c53b81565b6001610305565b60655460ff166102a0565b61028b61040e366004613ee5565b610d40565b61030560008051602061469583398151915281565b610305610436366004613cac565b6001600160a01b031660009081526033602052604090205490565b61028b61045f366004613d0f565b610dba565b61028b610e09565b61030561047a366004613cac565b610e2a565b61049261048d366004613f78565b610e36565b6040516001600160a01b0390911681526020016102ac565b6102a06104b8366004613de8565b610e4e565b61028b6104cb366004613cac565b610e79565b6102d2610e8d565b61028b6104e6366004613f9a565b610e9c565b6103056104f9366004613cac565b610eba565b61051161050c366004613ff3565b610ee7565b6040516102ac9190614106565b610305600081565b6102a0610534366004613c80565b610fad565b61054c610547366004613cac565b61106a565b6040516102ac9190614149565b61028b610567366004613cac565b61114b565b61030561057a366004613d50565b6113d0565b61028b61058d366004613de8565b6113e7565b6102a06105a0366004614158565b61140d565b6103056105b3366004614158565b6001600160a01b039182166000908152603b6020908152604080832093909416825291909152205490565b6103056000805160206146b583398151915281565b61028b610601366004613cac565b6114ae565b61028b610614366004614186565b6114c2565b61028b610614366004614206565b610160546001600160a01b0316336001600160a01b0316146106905760405162461bcd60e51b815260206004820152601d60248201527f6c4e4f52493a206e6f742042726964676564506f6c79676f6e4e4f524900000060448201526064015b60405180910390fd5b6106a860008051602061469583398151915288610e4e565b806106c657506106c660008051602061469583398151915289610e4e565b61072b5760405162461bcd60e51b815260206004820152603060248201527f6c4e4f52493a2063616c6c6572206973206d697373696e6720726f6c6520544f60448201526f4b454e5f4752414e5445525f524f4c4560801b6064820152608401610687565b600061073984860186613cac565b90506001600160a01b0381166107a55760405162461bcd60e51b815260206004820152602b60248201527f6c4e4f52493a20746f6b656e2073656e64206d697373696e672072657175697260448201526a656420757365724461746160a81b6064820152608401610687565b6107b2868686868661150a565b50505050505050505050565b60006001600160e01b03198216635a05180f60e01b14806107e357506107e382611667565b92915050565b6060603780548060200260200160405190810160405280929190818152602001828054801561084157602002820191906000526020600020905b81546001600160a01b03168152600190910190602001808311610823575b5050505050905090565b60606035805461085a9061424d565b80601f01602080910402602001604051908101604052809291908181526020018280546108869061424d565b80156108415780601f106108a857610100808354040283529160200191610841565b820191906000526020600020905b8154815290600101906020018083116108b657509395945050505050565b60006108e260655460ff1690565b156108ff5760405162461bcd60e51b815260040161068790614288565b610909838361169c565b61091383836116bf565b9392505050565b60006107e382426116cd565b60655460ff16156109495760405162461bcd60e51b815260040161068790614288565b60008051602061469583398151915261096281336117b5565b61096e85858585611819565b5050505050565b33600081815261015f6020908152604080832081518084018352848152825193840190925283835292936109ac9290918691611b1a565b61016054604051634decdde360e11b81526001600160a01b03868116600483015260248201869052606060448301526000606483015290911690639bd9bbc690608401600060405180830381600087803b158015610a0957600080fd5b505af1158015610a1d573d6000803e3d6000fd5b505050508281600b016000828254610a3591906142c8565b90915550506040518381526001600160a01b0385169033907fa86305abc2db271df4609aa86a8d044bc11fb36939841bfdad6c1ab2b26e94719060200160405180910390a35060019392505050565b60006001600160a01b038316610aac5760405162461bcd60e51b8152600401610687906142e0565b6001600160a01b038416610b115760405162461bcd60e51b815260206004820152602660248201527f4552433737373a207472616e736665722066726f6d20746865207a65726f206160448201526564647265737360d01b6064820152608401610687565b6000339050610b42818686866040518060200160405280600081525060405180602001604052806000815250611cdc565b610b4d858285611e04565b610b79818686866040518060200160405280600081525060405180602001604052806000815250611e90565b610ba78186868660405180602001604052806000815250604051806020016040528060008152506000612002565b506001949350505050565b60655460ff1615610bd55760405162461bcd60e51b815260040161068790614288565b600080516020614695833981519152610bee81336117b5565b604080516001600160a01b038d1660208201529081018b9052606081018a90526080810189905260a0810188905260c0810187905260e08101869052610100810185905261012081018490526101408101839052600090610160016040516020818303038152906040529050610c648d826121c7565b50505050505050505050505050565b600082815260c96020526040902060010154610c8f81336117b5565b610c99838361259d565b505050565b6001600160a01b0381163314610d0e5760405162461bcd60e51b815260206004820152602f60248201527f416363657373436f6e74726f6c3a2063616e206f6e6c792072656e6f756e636560448201526e103937b632b9903337b91039b2b63360891b6064820152608401610687565b610d1882826125b1565b5050565b6000805160206146b5833981519152610d3581336117b5565b610d3d6125c5565b50565b610d4a338661140d565b610dab5760405162461bcd60e51b815260206004820152602c60248201527f4552433737373a2063616c6c6572206973206e6f7420616e206f70657261746f60448201526b39103337b9103437b63232b960a11b6064820152608401610687565b61096e85858585856001612658565b60655460ff1615610ddd5760405162461bcd60e51b815260040161068790614288565b600080516020614695833981519152610df681336117b5565b610e038484846000611819565b50505050565b6000805160206146b5833981519152610e2281336117b5565b610d3d61273b565b60006107e38242612793565b600082815260fb602052604081206109139083612884565b600091825260c9602090815260408084206001600160a01b0393909316845291905290205460ff1690565b610e8481600061169c565b610d3d81612890565b60606036805461085a9061424d565b610c9933848484604051806020016040528060008152506001612658565b6001600160a01b038116600090815261015f60205260408120600a810154600c8201546109139190614324565b606060008267ffffffffffffffff811115610f0457610f04613e18565b604051908082528060200260200182016040528015610f3d57816020015b610f2a613929565b815260200190600190039081610f225790505b50905060005b83811015610fa557610f75858583818110610f6057610f6061433b565b90506020020160208101906105479190613cac565b828281518110610f8757610f8761433b565b60200260200101819052508080610f9d90614351565b915050610f43565b509392505050565b60006001600160a01b038316610fd55760405162461bcd60e51b8152600401610687906142e0565b6000339050611006818286866040518060200160405280600081525060405180602001604052806000815250611cdc565b611032818286866040518060200160405280600081525060405180602001604052806000815250611e90565b6110608182868660405180602001604052806000815250604051806020016040528060008152506000612002565b5060019392505050565b611072613929565b506001600160a01b0316600081815261015f6020908152604080832081516101c081018352600a82015481528084019590955260058101548583015260018082015460608701526006820154608087015284805260088201808552838620805460a0890152828752818652848720805460c08a01528780526003850180885286892085015460e08b01528489528752948720830154610100890152820154610120880152948190529390925290910154610140830152600b810154610160830152600c810154610180830152600e01546101a082015290565b600054610100900460ff166111665760005460ff161561116a565b303b155b6111cd5760405162461bcd60e51b815260206004820152602e60248201527f496e697469616c697a61626c653a20636f6e747261637420697320616c72656160448201526d191e481a5b9a5d1a585b1a5e995960921b6064820152608401610687565b600054610100900460ff161580156111ef576000805461ffff19166101011790555b6040805160018082528183019092526000916020808301908036833701905050905033816000815181106112255761122561433b565b60200260200101906001600160a01b031690816001600160a01b03168152505061124d6129ae565b6112556129ae565b61125d6129ae565b6112656129ae565b61126d6129d7565b6112ca6040518060400160405280601981526020017f4c6f636b65642042726964676564506f6c79676f6e4e4f524900000000000000815250604051806040016040528060058152602001646c4e4f524960d81b81525083612a0a565b61016080546001600160a01b0319166001600160a01b0385161790556040516329965a1d60e01b815230600482018190527fb281fc8c12954d22544db45de3159a39272895b169a852b314f9cc762e44c53b60248301526044820152731820a4b7618bde71dce8cdc73aab6c95905fad24906329965a1d90606401600060405180830381600087803b15801561135f57600080fd5b505af1158015611373573d6000803e3d6000fd5b5050505061138a6000801b6113853390565b612bf4565b6113a260008051602061469583398151915233612bf4565b6113ba6000805160206146b583398151915233612bf4565b508015610d18576000805461ff00191690555050565b600081815260fb602052604081206107e390612bfe565b600082815260c9602052604090206001015461140381336117b5565b610c9983836125b1565b6000816001600160a01b0316836001600160a01b0316148061147857506001600160a01b03831660009081526038602052604090205460ff16801561147857506001600160a01b038083166000908152603a602090815260408083209387168352929052205460ff16155b806109135750506001600160a01b0390811660009081526039602090815260408083209490931682529290925290205460ff1690565b6114b981600061169c565b610d3d81612c08565b60405162461bcd60e51b815260206004820152601c60248201527f6c4e4f52493a206275726e696e67206e6f7420737570706f72746564000000006044820152606401610687565b6000806115198587018761436c565b602081015190915015611566576115668787878080601f0160208091040260200160405190810160405280939291908181526020018383808284376000920191909152506121c792505050565b80516001600160a01b0316600090815261015f60205260409020600d015460ff166115e15760405162461bcd60e51b815260206004820152602560248201527f6c4e4f52493a2043616e6e6f74206465706f73697420776974686f757420612060448201526419dc985b9d60da1b6064820152608401610687565b61165a81600001518888888080601f01602080910402602001604051908101604052809392919081815260200183838082843760009201919091525050604080516020601f8c018190048102820181019092528a815292508a9150899081908401838280828437600092019190915250612d2492505050565b5060019695505050505050565b60006001600160e01b03198216637965db0b60e01b14806107e357506301ffc9a760e01b6001600160e01b03198316146107e3565b60655460ff1615610d185760405162461bcd60e51b815260040161068790614288565b600033611060818585612d32565b6001600160a01b038216600081815261015f602052604080822090516370a0823160e01b815260048101939093529091829030906370a0823190602401602060405180830381865afa158015611727573d6000803e3d6000fd5b505050506040513d601f19601f8201168201806040525081019061174b91906143c4565b600d83015490915060ff16156117ad5761176485612e59565b1561179657600b82015461178561177b8487612e8a565b84600a0154612eaa565b61178f9190614324565b90506117ad565b81600b015482600a01546117aa9190614324565b90505b949350505050565b6117bf8282610e4e565b610d18576117d7816001600160a01b03166014612ec0565b6117e2836020612ec0565b6040516020016117f39291906143dd565b60408051601f198184030181529082905262461bcd60e51b825261068791600401613c6d565b6001600160a01b038416600090815261015f60205260409020600d81015460ff1661187f5760405162461bcd60e51b81526020600482015260166024820152756c4e4f52493a206e6f206772616e742065786973747360501b6044820152606401610687565b61188885612e59565b6118e65760405162461bcd60e51b815260206004820152602960248201527f6c4e4f52493a206e6f2076657374696e67207363686564756c6520666f7220746044820152681a1a5cc819dc985b9d60ba1b6064820152608401610687565b428310156119465760405162461bcd60e51b815260206004820152602760248201527f6c4e4f52493a205265766f636174696f6e2063616e6e6f7420626520696e20746044820152661a19481c185cdd60ca1b6064820152608401610687565b60006119528285612e8a565b905081600a015481106119a75760405162461bcd60e51b815260206004820152601c60248201527f6c4e4f52493a20746f6b656e7320616c726561647920766573746564000000006044820152606401610687565b60008183600a01546119b99190614324565b905060008415611a1a5781851115611a135760405162461bcd60e51b815260206004820152601e60248201527f6c4e4f52493a20746f6f2066657720756e76657374656420746f6b656e7300006044820152606401610687565b5083611a1d565b50805b8084600a0154611a2d9190614324565b600a850155600e840186905561016054604051634decdde360e11b81526001600160a01b03898116600483015260248201849052606060448301526000606483015290911690639bd9bbc690608401600060405180830381600087803b158015611a9657600080fd5b505af1158015611aaa573d6000803e3d6000fd5b50505050611ad888826040518060200160405280600081525060405180602001604052806000815250611b1a565b80886001600160a01b0316877f0bbe3f9ae306d75ae6df08cd4a79ac5c6eae93ffae7d7e52f2859bf27592519d60405160405180910390a45050505050505050565b6001600160a01b038416611b7b5760405162461bcd60e51b815260206004820152602260248201527f4552433737373a206275726e2066726f6d20746865207a65726f206164647265604482015261737360f01b6064820152608401610687565b33611b8b81866000878787611cdc565b611b98818660008761305c565b6001600160a01b03851660009081526033602052604090205484811015611c0d5760405162461bcd60e51b815260206004820152602360248201527f4552433737373a206275726e20616d6f756e7420657863656564732062616c616044820152626e636560e81b6064820152608401610687565b6001600160a01b0386166000908152603360205260408120868303905560348054879290611c3c908490614324565b92505081905550856001600160a01b0316826001600160a01b03167fa78a9be3a7b862d26933ad85fb11d80ef66b8f972d7cbba06621d583943a4098878787604051611c8a93929190614452565b60405180910390a36040518581526000906001600160a01b038816907fddf252ad1be2c89b69c2b068fc378daa952ba7f163c4a11628f55a4df523b3ef906020015b60405180910390a3505050505050565b60405163555ddc6560e11b81526001600160a01b03861660048201527f29ddb589b1fb5fc7cf394961c1adf5f8c6454761adf795e67fe149f658abe8956024820152600090731820a4b7618bde71dce8cdc73aab6c95905fad249063aabbb8ca90604401602060405180830381865afa158015611d5d573d6000803e3d6000fd5b505050506040513d601f19601f82011682018060405250810190611d819190614497565b90506001600160a01b03811615611dfb57604051633ad5cbc160e11b81526001600160a01b038216906375ab978290611dc8908a908a908a908a908a908a906004016144b4565b600060405180830381600087803b158015611de257600080fd5b505af1158015611df6573d6000803e3d6000fd5b505050505b50505050505050565b6001600160a01b038381166000908152603b60209081526040808320938616835292905220546000198114610e035781811015611e835760405162461bcd60e51b815260206004820152601e60248201527f4552433737373a20696e73756666696369656e7420616c6c6f77616e636500006044820152606401610687565b610e038484848403612d32565b611e9c8686868661305c565b6001600160a01b03851660009081526033602052604090205483811015611f155760405162461bcd60e51b815260206004820152602760248201527f4552433737373a207472616e7366657220616d6f756e7420657863656564732060448201526662616c616e636560c81b6064820152608401610687565b6001600160a01b03808716600090815260336020526040808220878503905591871681529081208054869290611f4c9084906142c8565b92505081905550846001600160a01b0316866001600160a01b0316886001600160a01b03167f06b541ddaa720db2b10a4d0cdac39b8d360425fc073085fac19bc82614677987878787604051611fa493929190614452565b60405180910390a4846001600160a01b0316866001600160a01b03167fddf252ad1be2c89b69c2b068fc378daa952ba7f163c4a11628f55a4df523b3ef86604051611ff191815260200190565b60405180910390a350505050505050565b60405163555ddc6560e11b81526001600160a01b03861660048201527fb281fc8c12954d22544db45de3159a39272895b169a852b314f9cc762e44c53b6024820152600090731820a4b7618bde71dce8cdc73aab6c95905fad249063aabbb8ca90604401602060405180830381865afa158015612083573d6000803e3d6000fd5b505050506040513d601f19601f820116820180604052508101906120a79190614497565b90506001600160a01b03811615612123576040516223de2960e01b81526001600160a01b038216906223de29906120ec908b908b908b908b908b908b906004016144b4565b600060405180830381600087803b15801561210657600080fd5b505af115801561211a573d6000803e3d6000fd5b505050506121bd565b81156121bd576001600160a01b0386163b156121bd5760405162461bcd60e51b815260206004820152604d60248201527f4552433737373a20746f6b656e20726563697069656e7420636f6e747261637460448201527f20686173206e6f20696d706c656d656e74657220666f7220455243373737546f60648201526c1ad95b9cd49958da5c1a595b9d609a1b608482015260a401610687565b5050505050505050565b6000818060200190518101906121dd919061450e565b80519091506001600160a01b03166122475760405162461bcd60e51b815260206004820152602760248201527f6c4e4f52493a20526563697069656e742063616e6e6f74206265207a65726f206044820152666164647265737360c81b6064820152608401610687565b80516001600160a01b03163314156122b05760405162461bcd60e51b815260206004820152602660248201527f6c4e4f52493a20526563697069656e742063616e6e6f74206265206772616e746044820152651030b236b4b760d11b6064820152608401610687565b806060015181602001511061231f5760405162461bcd60e51b815260206004820152602f60248201527f6c4e4f52493a20756e6c6f636b456e6454696d652063616e6e6f74206265206260448201526e65666f726520737461727454696d6560881b6064820152608401610687565b806060015142106123855760405162461bcd60e51b815260206004820152602a60248201527f6c4e4f52493a20756e6c6f636b456e6454696d652063616e6e6f7420626520696044820152691b881d1a19481c185cdd60b21b6064820152608401610687565b80516001600160a01b0316600090815261015f60205260409020600d015460ff16156123f35760405162461bcd60e51b815260206004820152601b60248201527f6c4e4f52493a204772616e7420616c72656164792065786973747300000000006044820152606401610687565b80516001600160a01b0316600090815261015f6020908152604091829020600a8101869055600c8101869055600d8101805460ff191660011790559083015191830151909110156124ed578161010001518260c0015110158061245f57508161012001518260e0015110155b6124ab5760405162461bcd60e51b815260206004820181905260248201527f6c4e4f52493a20756e6c6f636b20636c696666203c207665737420636c6966666044820152606401610687565b600281018490556020820151815560408201516001820155608082015160c08301516124d891839161319c565b60a082015160e08301516124ed91839161319c565b6007810184905560208201516005820190815560608301516006830155608083015161010084015161252092919061319c565b60a082015161012083015161253991600584019161319c565b81602001518483600001516001600160a01b03167f17161516b6ce34594617177a800b150a86ddee02c06993a73ef000a02367d1198560400151866060015160405161258f929190918252602082015260400190565b60405180910390a450505050565b6125a7828261169c565b610d188282613371565b6125bb828261169c565b610d188282613393565b60655460ff1661260e5760405162461bcd60e51b815260206004820152601460248201527314185d5cd8589b194e881b9bdd081c185d5cd95960621b6044820152606401610687565b6065805460ff191690557f5db9ee0a495bf2e6ff9c91a7834c1ba4fdd244a5e8aa4e537bd38aeae4b073aa335b6040516001600160a01b03909116815260200160405180910390a1565b6001600160a01b0386166126b95760405162461bcd60e51b815260206004820152602260248201527f4552433737373a2073656e642066726f6d20746865207a65726f206164647265604482015261737360f01b6064820152608401610687565b6001600160a01b03851661270f5760405162461bcd60e51b815260206004820181905260248201527f4552433737373a2073656e6420746f20746865207a65726f20616464726573736044820152606401610687565b3361271e818888888888611cdc565b61272c818888888888611e90565b611dfb81888888888888612002565b60655460ff161561275e5760405162461bcd60e51b815260040161068790614288565b6065805460ff191660011790557f62e78cea01bee320cd4e420270b5ea74000d11b0c9f74754ebdbfc544b05a25861263b3390565b6001600160a01b038216600081815261015f602052604080822090516370a0823160e01b815260048101939093529091829030906370a0823190602401602060405180830381865afa1580156127ed573d6000803e3d6000fd5b505050506040513d601f19601f8201168201806040525081019061281191906143c4565b9050600061281e86612e59565b61282c5782600a0154612836565b6128368386612e8a565b600d84015490915060ff161561287b57600b83015461286e6128648361285f600588018a612e8a565b612eaa565b85600a0154612eaa565b6128789190614324565b91505b50949350505050565b600061091383836133b5565b336001600160a01b03821614156128f55760405162461bcd60e51b8152602060048201526024808201527f4552433737373a20617574686f72697a696e672073656c66206173206f70657260448201526330ba37b960e11b6064820152608401610687565b6001600160a01b03811660009081526038602052604090205460ff161561294657336000908152603a602090815260408083206001600160a01b03851684529091529020805460ff19169055612975565b3360009081526039602090815260408083206001600160a01b03851684529091529020805460ff191660011790555b60405133906001600160a01b038316907ff4caeb2d6ca8932a215a353d0703c326ec2d81fc68170f320eb2ab49e9df61f990600090a350565b600054610100900460ff166129d55760405162461bcd60e51b81526004016106879061459c565b565b600054610100900460ff166129fe5760405162461bcd60e51b81526004016106879061459c565b6065805460ff19169055565b600054610100900460ff16612a315760405162461bcd60e51b81526004016106879061459c565b8251612a449060359060208601906139a1565b508151612a589060369060208501906139a1565b508051612a6c906037906020840190613a25565b5060005b8151811015612ad557600160386000848481518110612a9157612a9161433b565b6020908102919091018101516001600160a01b03168252810191909152604001600020805460ff191691151591909117905580612acd81614351565b915050612a70565b506040516329965a1d60e01b815230600482018190527fac7fbab5f54a3ca8194167523c6753bfeb96a445279294b6125b68cce217705460248301526044820152731820a4b7618bde71dce8cdc73aab6c95905fad24906329965a1d90606401600060405180830381600087803b158015612b4f57600080fd5b505af1158015612b63573d6000803e3d6000fd5b50506040516329965a1d60e01b815230600482018190527faea199e31a596269b42cdafd93407f14436db6e4cad65417994c2eb37381e05a60248301526044820152731820a4b7618bde71dce8cdc73aab6c95905fad2492506329965a1d9150606401600060405180830381600087803b158015612be057600080fd5b505af1158015611dfb573d6000803e3d6000fd5b610d18828261259d565b60006107e3825490565b6001600160a01b038116331415612c6b5760405162461bcd60e51b815260206004820152602160248201527f4552433737373a207265766f6b696e672073656c66206173206f70657261746f6044820152603960f91b6064820152608401610687565b6001600160a01b03811660009081526038602052604090205460ff1615612cbf57336000908152603a602090815260408083206001600160a01b03851684529091529020805460ff19166001179055612ceb565b3360009081526039602090815260408083206001600160a01b03851684529091529020805460ff191690555b60405133906001600160a01b038316907f50546e66e5f44d728365dc3908c63bc5cfeeab470722c1677e3073a6ac294aa190600090a350565b610e038484848460016133df565b6001600160a01b038316612d965760405162461bcd60e51b815260206004820152602560248201527f4552433737373a20617070726f76652066726f6d20746865207a65726f206164604482015264647265737360d81b6064820152608401610687565b6001600160a01b038216612df85760405162461bcd60e51b815260206004820152602360248201527f4552433737373a20617070726f766520746f20746865207a65726f206164647260448201526265737360e81b6064820152608401610687565b6001600160a01b038381166000818152603b602090815260408083209487168084529482529182902085905590518481527f8c5be1e5ebec7d5bd14f71427d1e84f3dd0314c0f7b2291e5b200ac8c7c3b925910160405180910390a3505050565b6001600160a01b038116600090815261015f60205260408120600d81015460ff168015610913575054151592915050565b6000612e968383613525565b612ea084846135f3565b61091391906142c8565b6000818310612eb95781610913565b5090919050565b60606000612ecf8360026145e7565b612eda9060026142c8565b67ffffffffffffffff811115612ef257612ef2613e18565b6040519080825280601f01601f191660200182016040528015612f1c576020820181803683370190505b509050600360fc1b81600081518110612f3757612f3761433b565b60200101906001600160f81b031916908160001a905350600f60fb1b81600181518110612f6657612f6661433b565b60200101906001600160f81b031916908160001a9053506000612f8a8460026145e7565b612f959060016142c8565b90505b600181111561300d576f181899199a1a9b1b9c1cb0b131b232b360811b85600f1660108110612fc957612fc961433b565b1a60f81b828281518110612fdf57612fdf61433b565b60200101906001600160f81b031916908160001a90535060049490941c9361300681614606565b9050612f98565b5083156109135760405162461bcd60e51b815260206004820181905260248201527f537472696e67733a20686578206c656e67746820696e73756666696369656e746044820152606401610687565b6001600160a01b038381161590831615600061308660008051602061469583398151915288610e4e565b90506001600160a01b03878116908716141560006130a388610e2a565b86111590508380156130b25750815b80156130bb5750825b1561313357856130e0896001600160a01b031660009081526033602052604090205490565b101561312e5760405162461bcd60e51b815260206004820152601b60248201527f6c4e4f52493a20696e73756666696369656e742062616c616e636500000000006044820152606401610687565b613185565b8461318557806131855760405162461bcd60e51b815260206004820152601b60248201527f6c4e4f52493a20696e73756666696369656e742062616c616e636500000000006044820152606401610687565b6131918989898961365d565b505050505050505050565b60048301546131fb5782548210156131f65760405162461bcd60e51b815260206004820152601b60248201527f436c696666206265666f7265207363686564756c6520737461727400000000006044820152606401610687565b613273565b826003016000600185600401546132129190614324565b8152602001908152602001600020600001548210156132735760405162461bcd60e51b815260206004820152601860248201527f436c69666673206e6f74206368726f6e6f6c6f676963616c00000000000000006044820152606401610687565b82600101548211156132c75760405162461bcd60e51b815260206004820181905260248201527f436c696666732063616e6e6f7420656e64206166746572207363686564756c656044820152606401610687565b8260020154816132d685613685565b6132e091906142c8565b111561332e5760405162461bcd60e51b815260206004820152601a60248201527f636c69666620616d6f756e74732065786365656420746f74616c0000000000006044820152606401610687565b600483018054600090815260038501602052604080822085905582548252812060019081018490558254909291906133679084906142c8565b9091555050505050565b61337b82826136d0565b600082815260fb60205260409020610c999082613756565b61339d828261376b565b600082815260fb60205260409020610c9990826137d2565b60008260000182815481106133cc576133cc61433b565b9060005260206000200154905092915050565b6001600160a01b0385166134355760405162461bcd60e51b815260206004820181905260248201527f4552433737373a206d696e7420746f20746865207a65726f20616464726573736044820152606401610687565b33613443816000888861305c565b846034600082825461345591906142c8565b90915550506001600160a01b038616600090815260336020526040812080548792906134829084906142c8565b9091555061349890508160008888888888612002565b856001600160a01b0316816001600160a01b03167f2fe5be0146f74c5bce36c0b80911af6c7d86ff27e89d5cfa61fc681327954e5d8787876040516134df93929190614452565b60405180910390a36040518581526001600160a01b038716906000907fddf252ad1be2c89b69c2b068fc378daa952ba7f163c4a11628f55a4df523b3ef90602001611ccc565b60008061353184613685565b8460020154106135565761354484613685565b84600201546135539190614324565b90505b836001015483106135685790506107e3565b83546004850154156135a0578460030160006001876004015461358b9190614324565b81526020019081526020016000206000015490505b60008186600101546135b29190614324565b905060006135c0838761461d565b905060008113156135e557816135d682866145e7565b6135e0919061465c565b6135e8565b60005b979650505050505050565b600080805b846004015481101561364e576000818152600386016020526040902054841061363c57600081815260038601602052604090206001015461363990836142c8565b91505b8061364681614351565b9150506135f8565b506117ad846002015482612eaa565b60655460ff16156136805760405162461bcd60e51b815260040161068790614288565b610e03565b60008060005b83600401548110156136c95760008181526003850160205260409020600101546136b590836142c8565b9150806136c181614351565b91505061368b565b5092915050565b6136da8282610e4e565b610d1857600082815260c9602090815260408083206001600160a01b03851684529091529020805460ff191660011790556137123390565b6001600160a01b0316816001600160a01b0316837f2f8788117e7eff1d82e926ec794901d17c78024a50270940304540a733656f0d60405160405180910390a45050565b6000610913836001600160a01b0384166137e7565b6137758282610e4e565b15610d1857600082815260c9602090815260408083206001600160a01b0385168085529252808320805460ff1916905551339285917ff6391f5c32d9c69d2a47ea670b442974b53935d1edc7fd64eb21e047a839171b9190a45050565b6000610913836001600160a01b038416613836565b600081815260018301602052604081205461382e575081546001818101845560008481526020808220909301849055845484825282860190935260409020919091556107e3565b5060006107e3565b6000818152600183016020526040812054801561391f57600061385a600183614324565b855490915060009061386e90600190614324565b90508181146138d357600086600001828154811061388e5761388e61433b565b90600052602060002001549050808760000184815481106138b1576138b161433b565b6000918252602080832090910192909255918252600188019052604090208390555b85548690806138e4576138e461467e565b6001900381819060005260206000200160009055905585600101600086815260200190815260200160002060009055600193505050506107e3565b60009150506107e3565b604051806101c001604052806000815260200160006001600160a01b031681526020016000815260200160008152602001600081526020016000815260200160008152602001600081526020016000815260200160008152602001600081526020016000815260200160008152602001600081525090565b8280546139ad9061424d565b90600052602060002090601f0160209004810192826139cf5760008555613a15565b82601f106139e857805160ff1916838001178555613a15565b82800160010185558215613a15579182015b82811115613a155782518255916020019190600101906139fa565b50613a21929150613a7a565b5090565b828054828255906000526020600020908101928215613a15579160200282015b82811115613a1557825182546001600160a01b0319166001600160a01b03909116178255602090920191600190910190613a45565b5b80821115613a215760008155600101613a7b565b6001600160a01b0381168114610d3d57600080fd5b60008083601f840112613ab657600080fd5b50813567ffffffffffffffff811115613ace57600080fd5b602083019150836020828501011115613ae657600080fd5b9250929050565b60008060008060008060008060c0898b031215613b0957600080fd5b8835613b1481613a8f565b97506020890135613b2481613a8f565b96506040890135613b3481613a8f565b955060608901359450608089013567ffffffffffffffff80821115613b5857600080fd5b613b648c838d01613aa4565b909650945060a08b0135915080821115613b7d57600080fd5b50613b8a8b828c01613aa4565b999c989b5096995094979396929594505050565b600060208284031215613bb057600080fd5b81356001600160e01b03198116811461091357600080fd5b6020808252825182820181905260009190848201906040850190845b81811015613c095783516001600160a01b031683529284019291840191600101613be4565b50909695505050505050565b60005b83811015613c30578181015183820152602001613c18565b83811115610e035750506000910152565b60008151808452613c59816020860160208601613c15565b601f01601f19169290920160200192915050565b6020815260006109136020830184613c41565b60008060408385031215613c9357600080fd5b8235613c9e81613a8f565b946020939093013593505050565b600060208284031215613cbe57600080fd5b813561091381613a8f565b60008060008060808587031215613cdf57600080fd5b8435613cea81613a8f565b93506020850135613cfa81613a8f565b93969395505050506040820135916060013590565b600080600060608486031215613d2457600080fd5b8335613d2f81613a8f565b92506020840135613d3f81613a8f565b929592945050506040919091013590565b600060208284031215613d6257600080fd5b5035919050565b60008060008060008060008060008060006101608c8e031215613d8b57600080fd5b8b359a5060208c0135613d9d81613a8f565b9a9d9a9c505050506040890135986060810135986080820135985060a0820135975060c0820135965060e0820135955061010082013594506101208201359350610140909101359150565b60008060408385031215613dfb57600080fd5b823591506020830135613e0d81613a8f565b809150509250929050565b634e487b7160e01b600052604160045260246000fd5b604051610140810167ffffffffffffffff81118282101715613e5257613e52613e18565b60405290565b600082601f830112613e6957600080fd5b813567ffffffffffffffff80821115613e8457613e84613e18565b604051601f8301601f19908116603f01168101908282118183101715613eac57613eac613e18565b81604052838152866020858801011115613ec557600080fd5b836020870160208301376000602085830101528094505050505092915050565b600080600080600060a08688031215613efd57600080fd5b8535613f0881613a8f565b94506020860135613f1881613a8f565b935060408601359250606086013567ffffffffffffffff80821115613f3c57600080fd5b613f4889838a01613e58565b93506080880135915080821115613f5e57600080fd5b50613f6b88828901613e58565b9150509295509295909350565b60008060408385031215613f8b57600080fd5b50508035926020909101359150565b600080600060608486031215613faf57600080fd5b8335613fba81613a8f565b925060208401359150604084013567ffffffffffffffff811115613fdd57600080fd5b613fe986828701613e58565b9150509250925092565b6000806020838503121561400657600080fd5b823567ffffffffffffffff8082111561401e57600080fd5b818501915085601f83011261403257600080fd5b81358181111561404157600080fd5b8660208260051b850101111561405657600080fd5b60209290920196919550909350505050565b80518252602081015161408660208401826001600160a01b03169052565b5060408181015190830152606080820151908301526080808201519083015260a0808201519083015260c0808201519083015260e08082015190830152610100808201519083015261012080820151908301526101408082015190830152610160808201519083015261018080820151908301526101a090810151910152565b6020808252825182820181905260009190848201906040850190845b81811015613c0957614135838551614068565b928401926101c09290920191600101614122565b6101c081016107e38284614068565b6000806040838503121561416b57600080fd5b823561417681613a8f565b91506020830135613e0d81613a8f565b6000806000806080858703121561419c57600080fd5b84356141a781613a8f565b935060208501359250604085013567ffffffffffffffff808211156141cb57600080fd5b6141d788838901613e58565b935060608701359150808211156141ed57600080fd5b506141fa87828801613e58565b91505092959194509250565b6000806040838503121561421957600080fd5b82359150602083013567ffffffffffffffff81111561423757600080fd5b61424385828601613e58565b9150509250929050565b600181811c9082168061426157607f821691505b6020821081141561428257634e487b7160e01b600052602260045260246000fd5b50919050565b60208082526010908201526f14185d5cd8589b194e881c185d5cd95960821b604082015260600190565b634e487b7160e01b600052601160045260246000fd5b600082198211156142db576142db6142b2565b500190565b60208082526024908201527f4552433737373a207472616e7366657220746f20746865207a65726f206164646040820152637265737360e01b606082015260800190565b600082821015614336576143366142b2565b500390565b634e487b7160e01b600052603260045260246000fd5b6000600019821415614365576143656142b2565b5060010190565b60006040828403121561437e57600080fd5b6040516040810181811067ffffffffffffffff821117156143a1576143a1613e18565b60405282356143af81613a8f565b81526020928301359281019290925250919050565b6000602082840312156143d657600080fd5b5051919050565b7f416363657373436f6e74726f6c3a206163636f756e7420000000000000000000815260008351614415816017850160208801613c15565b7001034b99036b4b9b9b4b733903937b6329607d1b6017918401918201528351614446816028840160208801613c15565b01602801949350505050565b83815260606020820152600061446b6060830185613c41565b828103604084015261447d8185613c41565b9695505050505050565b805161449281613a8f565b919050565b6000602082840312156144a957600080fd5b815161091381613a8f565b6001600160a01b0387811682528681166020830152851660408201526060810184905260c0608082018190526000906144ef90830185613c41565b82810360a08401526145018185613c41565b9998505050505050505050565b6000610140828403121561452157600080fd5b614529613e2e565b61453283614487565b81526020830151602082015260408301516040820152606083015160608201526080830151608082015260a083015160a082015260c083015160c082015260e083015160e08201526101008084015181830152506101208084015181830152508091505092915050565b6020808252602b908201527f496e697469616c697a61626c653a20636f6e7472616374206973206e6f74206960408201526a6e697469616c697a696e6760a81b606082015260800190565b6000816000190483118215151615614601576146016142b2565b500290565b600081614615576146156142b2565b506000190190565b60008083128015600160ff1b85018412161561463b5761463b6142b2565b6001600160ff1b0384018313811615614656576146566142b2565b50500390565b60008261467957634e487b7160e01b600052601260045260246000fd5b500490565b634e487b7160e01b600052603160045260246000fdfea52f07bb8dc8df886598eb50edeaba2b8e45715237ed244354b60ea04d0390b865d7a28e3265b37a6474929f336521b332c1681b933f6cb9f3376673440d862aa2646970667358221220afeee976e911e76e3bc3bd736413f1b2f93aa98ea5d4b5b24969e9a29682444f64736f6c634300080c0033",
  "linkReferences": {},
  "deployedLinkReferences": {}
}