{
  "_format": "hh-sol-artifact-1",
  "contractName": "LockedNORI",
  "sourceName": "contracts/LockedNORI.sol",
  "abi": [
    {
      "anonymous": false,
      "inputs": [
        {
          "indexed": true,
          "internalType": "address",
          "name": "owner",
          "type": "address"
        },
        {
          "indexed": true,
          "internalType": "address",
          "name": "spender",
          "type": "address"
        },
        {
          "indexed": false,
          "internalType": "uint256",
          "name": "value",
          "type": "uint256"
        }
      ],
      "name": "Approval",
      "type": "event"
    },
    {
      "anonymous": false,
      "inputs": [
        {
          "indexed": true,
          "internalType": "address",
          "name": "operator",
          "type": "address"
        },
        {
          "indexed": true,
          "internalType": "address",
          "name": "tokenHolder",
          "type": "address"
        }
      ],
      "name": "AuthorizedOperator",
      "type": "event"
    },
    {
      "anonymous": false,
      "inputs": [
        {
          "indexed": true,
          "internalType": "address",
          "name": "operator",
          "type": "address"
        },
        {
          "indexed": true,
          "internalType": "address",
          "name": "from",
          "type": "address"
        },
        {
          "indexed": false,
          "internalType": "uint256",
          "name": "amount",
          "type": "uint256"
        },
        {
          "indexed": false,
          "internalType": "bytes",
          "name": "data",
          "type": "bytes"
        },
        {
          "indexed": false,
          "internalType": "bytes",
          "name": "operatorData",
          "type": "bytes"
        }
      ],
      "name": "Burned",
      "type": "event"
    },
    {
      "anonymous": false,
      "inputs": [
        {
          "indexed": true,
          "internalType": "address",
          "name": "operator",
          "type": "address"
        },
        {
          "indexed": true,
          "internalType": "address",
          "name": "to",
          "type": "address"
        },
        {
          "indexed": false,
          "internalType": "uint256",
          "name": "amount",
          "type": "uint256"
        },
        {
          "indexed": false,
          "internalType": "bytes",
          "name": "data",
          "type": "bytes"
        },
        {
          "indexed": false,
          "internalType": "bytes",
          "name": "operatorData",
          "type": "bytes"
        }
      ],
      "name": "Minted",
      "type": "event"
    },
    {
      "anonymous": false,
      "inputs": [
        {
          "indexed": false,
          "internalType": "address",
          "name": "account",
          "type": "address"
        }
      ],
      "name": "Paused",
      "type": "event"
    },
    {
      "anonymous": false,
      "inputs": [
        {
          "indexed": true,
          "internalType": "address",
          "name": "operator",
          "type": "address"
        },
        {
          "indexed": true,
          "internalType": "address",
          "name": "tokenHolder",
          "type": "address"
        }
      ],
      "name": "RevokedOperator",
      "type": "event"
    },
    {
      "anonymous": false,
      "inputs": [
        {
          "indexed": true,
          "internalType": "bytes32",
          "name": "role",
          "type": "bytes32"
        },
        {
          "indexed": true,
          "internalType": "bytes32",
          "name": "previousAdminRole",
          "type": "bytes32"
        },
        {
          "indexed": true,
          "internalType": "bytes32",
          "name": "newAdminRole",
          "type": "bytes32"
        }
      ],
      "name": "RoleAdminChanged",
      "type": "event"
    },
    {
      "anonymous": false,
      "inputs": [
        {
          "indexed": true,
          "internalType": "bytes32",
          "name": "role",
          "type": "bytes32"
        },
        {
          "indexed": true,
          "internalType": "address",
          "name": "account",
          "type": "address"
        },
        {
          "indexed": true,
          "internalType": "address",
          "name": "sender",
          "type": "address"
        }
      ],
      "name": "RoleGranted",
      "type": "event"
    },
    {
      "anonymous": false,
      "inputs": [
        {
          "indexed": true,
          "internalType": "bytes32",
          "name": "role",
          "type": "bytes32"
        },
        {
          "indexed": true,
          "internalType": "address",
          "name": "account",
          "type": "address"
        },
        {
          "indexed": true,
          "internalType": "address",
          "name": "sender",
          "type": "address"
        }
      ],
      "name": "RoleRevoked",
      "type": "event"
    },
    {
      "anonymous": false,
      "inputs": [
        {
          "indexed": true,
          "internalType": "address",
          "name": "operator",
          "type": "address"
        },
        {
          "indexed": true,
          "internalType": "address",
          "name": "from",
          "type": "address"
        },
        {
          "indexed": true,
          "internalType": "address",
          "name": "to",
          "type": "address"
        },
        {
          "indexed": false,
          "internalType": "uint256",
          "name": "amount",
          "type": "uint256"
        },
        {
          "indexed": false,
          "internalType": "bytes",
          "name": "data",
          "type": "bytes"
        },
        {
          "indexed": false,
          "internalType": "bytes",
          "name": "operatorData",
          "type": "bytes"
        }
      ],
      "name": "Sent",
      "type": "event"
    },
    {
      "anonymous": false,
      "inputs": [
        {
          "indexed": true,
          "internalType": "address",
          "name": "recipient",
          "type": "address"
        },
        {
          "indexed": false,
          "internalType": "uint256",
          "name": "amount",
          "type": "uint256"
        },
        {
          "indexed": false,
          "internalType": "uint256",
          "name": "startTime",
          "type": "uint256"
        },
        {
          "indexed": false,
          "internalType": "uint256",
          "name": "vestEndTime",
          "type": "uint256"
        },
        {
          "indexed": false,
          "internalType": "uint256",
          "name": "unlockEndTime",
          "type": "uint256"
        }
      ],
      "name": "TokenGrantCreated",
      "type": "event"
    },
    {
      "anonymous": false,
      "inputs": [
        {
          "indexed": false,
          "internalType": "address",
          "name": "account",
          "type": "address"
        },
        {
          "indexed": false,
          "internalType": "uint256",
          "name": "quantity",
          "type": "uint256"
        }
      ],
      "name": "TokensClaimed",
      "type": "event"
    },
    {
      "anonymous": false,
      "inputs": [
        {
          "indexed": true,
          "internalType": "address",
          "name": "from",
          "type": "address"
        },
        {
          "indexed": true,
          "internalType": "address",
          "name": "to",
          "type": "address"
        },
        {
          "indexed": false,
          "internalType": "uint256",
          "name": "value",
          "type": "uint256"
        }
      ],
      "name": "Transfer",
      "type": "event"
    },
    {
      "anonymous": false,
      "inputs": [
        {
          "indexed": false,
          "internalType": "address",
          "name": "account",
          "type": "address"
        }
      ],
      "name": "Unpaused",
      "type": "event"
    },
    {
      "anonymous": false,
      "inputs": [
        {
          "indexed": false,
          "internalType": "uint256",
          "name": "atTime",
          "type": "uint256"
        },
        {
          "indexed": false,
          "internalType": "address",
          "name": "from",
          "type": "address"
        },
        {
          "indexed": false,
          "internalType": "uint256",
          "name": "quantity",
          "type": "uint256"
        }
      ],
      "name": "UnvestedTokensRevoked",
      "type": "event"
    },
    {
      "inputs": [],
      "name": "DEFAULT_ADMIN_ROLE",
      "outputs": [
        {
          "internalType": "bytes32",
          "name": "",
          "type": "bytes32"
        }
      ],
      "stateMutability": "view",
      "type": "function"
    },
    {
      "inputs": [],
      "name": "ERC777_TOKENS_RECIPIENT_HASH",
      "outputs": [
        {
          "internalType": "bytes32",
          "name": "",
          "type": "bytes32"
        }
      ],
      "stateMutability": "view",
      "type": "function"
    },
    {
      "inputs": [],
      "name": "PAUSER_ROLE",
      "outputs": [
        {
          "internalType": "bytes32",
          "name": "",
          "type": "bytes32"
        }
      ],
      "stateMutability": "view",
      "type": "function"
    },
    {
      "inputs": [],
      "name": "TOKEN_GRANTER_ROLE",
      "outputs": [
        {
          "internalType": "bytes32",
          "name": "",
          "type": "bytes32"
        }
      ],
      "stateMutability": "view",
      "type": "function"
    },
    {
      "inputs": [
        {
          "internalType": "address",
          "name": "holder",
          "type": "address"
        },
        {
          "internalType": "address",
          "name": "spender",
          "type": "address"
        }
      ],
      "name": "allowance",
      "outputs": [
        {
          "internalType": "uint256",
          "name": "",
          "type": "uint256"
        }
      ],
      "stateMutability": "view",
      "type": "function"
    },
    {
      "inputs": [
        {
          "internalType": "address",
          "name": "spender",
          "type": "address"
        },
        {
          "internalType": "uint256",
          "name": "value",
          "type": "uint256"
        }
      ],
      "name": "approve",
      "outputs": [
        {
          "internalType": "bool",
          "name": "",
          "type": "bool"
        }
      ],
      "stateMutability": "nonpayable",
      "type": "function"
    },
    {
      "inputs": [
        {
          "internalType": "address",
          "name": "operator",
          "type": "address"
        }
      ],
      "name": "authorizeOperator",
      "outputs": [],
      "stateMutability": "nonpayable",
      "type": "function"
    },
    {
      "inputs": [
        {
          "internalType": "address",
          "name": "tokenHolder",
          "type": "address"
        }
      ],
      "name": "balanceOf",
      "outputs": [
        {
          "internalType": "uint256",
          "name": "",
          "type": "uint256"
        }
      ],
      "stateMutability": "view",
      "type": "function"
    },
    {
      "inputs": [
        {
          "internalType": "uint256",
          "name": "",
          "type": "uint256"
        },
        {
          "internalType": "bytes",
          "name": "",
          "type": "bytes"
        }
      ],
      "name": "burn",
      "outputs": [],
      "stateMutability": "pure",
      "type": "function"
    },
    {
      "inputs": [
        {
          "internalType": "uint256",
          "name": "amount",
          "type": "uint256"
        },
        {
          "internalType": "address",
          "name": "recipient",
          "type": "address"
        },
        {
          "internalType": "uint256",
          "name": "startTime",
          "type": "uint256"
        },
        {
          "internalType": "uint256",
          "name": "vestEndTime",
          "type": "uint256"
        },
        {
          "internalType": "uint256",
          "name": "unlockEndTime",
          "type": "uint256"
        },
        {
          "internalType": "uint256",
          "name": "cliff1Time",
          "type": "uint256"
        },
        {
          "internalType": "uint256",
          "name": "cliff2Time",
          "type": "uint256"
        },
        {
          "internalType": "uint256",
          "name": "vestCliff1Amount",
          "type": "uint256"
        },
        {
          "internalType": "uint256",
          "name": "vestCliff2Amount",
          "type": "uint256"
        },
        {
          "internalType": "uint256",
          "name": "unlockCliff1Amount",
          "type": "uint256"
        },
        {
          "internalType": "uint256",
          "name": "unlockCliff2Amount",
          "type": "uint256"
        }
      ],
      "name": "createGrant",
      "outputs": [],
      "stateMutability": "nonpayable",
      "type": "function"
    },
    {
      "inputs": [],
      "name": "decimals",
      "outputs": [
        {
          "internalType": "uint8",
          "name": "",
          "type": "uint8"
        }
      ],
      "stateMutability": "pure",
      "type": "function"
    },
    {
      "inputs": [],
      "name": "defaultOperators",
      "outputs": [
        {
          "internalType": "address[]",
          "name": "",
          "type": "address[]"
        }
      ],
      "stateMutability": "view",
      "type": "function"
    },
    {
      "inputs": [
        {
          "internalType": "address",
          "name": "account",
          "type": "address"
        }
      ],
      "name": "getGrant",
      "outputs": [
        {
          "components": [
            {
              "internalType": "uint256",
              "name": "grantAmount",
              "type": "uint256"
            },
            {
              "internalType": "address",
              "name": "recipient",
              "type": "address"
            },
            {
              "internalType": "uint256",
              "name": "startTime",
              "type": "uint256"
            },
            {
              "internalType": "uint256",
              "name": "vestEndTime",
              "type": "uint256"
            },
            {
              "internalType": "uint256",
              "name": "unlockEndTime",
              "type": "uint256"
            },
            {
              "internalType": "uint256",
              "name": "cliff1Time",
              "type": "uint256"
            },
            {
              "internalType": "uint256",
              "name": "cliff2Time",
              "type": "uint256"
            },
            {
              "internalType": "uint256",
              "name": "vestCliff1Amount",
              "type": "uint256"
            },
            {
              "internalType": "uint256",
              "name": "vestCliff2Amount",
              "type": "uint256"
            },
            {
              "internalType": "uint256",
              "name": "unlockCliff1Amount",
              "type": "uint256"
            },
            {
              "internalType": "uint256",
              "name": "unlockCliff2Amount",
              "type": "uint256"
            },
            {
              "internalType": "uint256",
              "name": "claimedAmount",
              "type": "uint256"
            },
            {
              "internalType": "uint256",
              "name": "originalAmount",
              "type": "uint256"
            }
          ],
          "internalType": "struct LockedNORI.TokenGrantDetail",
          "name": "",
          "type": "tuple"
        }
      ],
      "stateMutability": "view",
      "type": "function"
    },
    {
      "inputs": [
        {
          "internalType": "bytes32",
          "name": "role",
          "type": "bytes32"
        }
      ],
      "name": "getRoleAdmin",
      "outputs": [
        {
          "internalType": "bytes32",
          "name": "",
          "type": "bytes32"
        }
      ],
      "stateMutability": "view",
      "type": "function"
    },
    {
      "inputs": [
        {
          "internalType": "bytes32",
          "name": "role",
          "type": "bytes32"
        },
        {
          "internalType": "uint256",
          "name": "index",
          "type": "uint256"
        }
      ],
      "name": "getRoleMember",
      "outputs": [
        {
          "internalType": "address",
          "name": "",
          "type": "address"
        }
      ],
      "stateMutability": "view",
      "type": "function"
    },
    {
      "inputs": [
        {
          "internalType": "bytes32",
          "name": "role",
          "type": "bytes32"
        }
      ],
      "name": "getRoleMemberCount",
      "outputs": [
        {
          "internalType": "uint256",
          "name": "",
          "type": "uint256"
        }
      ],
      "stateMutability": "view",
      "type": "function"
    },
    {
      "inputs": [
        {
          "internalType": "bytes32",
          "name": "role",
          "type": "bytes32"
        },
        {
          "internalType": "address",
          "name": "account",
          "type": "address"
        }
      ],
      "name": "grantRole",
      "outputs": [],
      "stateMutability": "nonpayable",
      "type": "function"
    },
    {
      "inputs": [],
      "name": "granularity",
      "outputs": [
        {
          "internalType": "uint256",
          "name": "",
          "type": "uint256"
        }
      ],
      "stateMutability": "view",
      "type": "function"
    },
    {
      "inputs": [
        {
          "internalType": "bytes32",
          "name": "role",
          "type": "bytes32"
        },
        {
          "internalType": "address",
          "name": "account",
          "type": "address"
        }
      ],
      "name": "hasRole",
      "outputs": [
        {
          "internalType": "bool",
          "name": "",
          "type": "bool"
        }
      ],
      "stateMutability": "view",
      "type": "function"
    },
    {
      "inputs": [
        {
          "internalType": "contract IERC777Upgradeable",
          "name": "bridgedPolygonNoriAddress",
          "type": "address"
        }
      ],
      "name": "initialize",
      "outputs": [],
      "stateMutability": "nonpayable",
      "type": "function"
    },
    {
      "inputs": [
        {
          "internalType": "address",
          "name": "operator",
          "type": "address"
        },
        {
          "internalType": "address",
          "name": "tokenHolder",
          "type": "address"
        }
      ],
      "name": "isOperatorFor",
      "outputs": [
        {
          "internalType": "bool",
          "name": "",
          "type": "bool"
        }
      ],
      "stateMutability": "view",
      "type": "function"
    },
    {
      "inputs": [],
      "name": "name",
      "outputs": [
        {
          "internalType": "string",
          "name": "",
          "type": "string"
        }
      ],
      "stateMutability": "view",
      "type": "function"
    },
    {
      "inputs": [
        {
          "internalType": "address",
          "name": "",
          "type": "address"
        },
        {
          "internalType": "uint256",
          "name": "",
          "type": "uint256"
        },
        {
          "internalType": "bytes",
          "name": "",
          "type": "bytes"
        },
        {
          "internalType": "bytes",
          "name": "",
          "type": "bytes"
        }
      ],
      "name": "operatorBurn",
      "outputs": [],
      "stateMutability": "pure",
      "type": "function"
    },
    {
      "inputs": [
        {
          "internalType": "address",
          "name": "sender",
          "type": "address"
        },
        {
          "internalType": "address",
          "name": "recipient",
          "type": "address"
        },
        {
          "internalType": "uint256",
          "name": "amount",
          "type": "uint256"
        },
        {
          "internalType": "bytes",
          "name": "data",
          "type": "bytes"
        },
        {
          "internalType": "bytes",
          "name": "operatorData",
          "type": "bytes"
        }
      ],
      "name": "operatorSend",
      "outputs": [],
      "stateMutability": "nonpayable",
      "type": "function"
    },
    {
      "inputs": [],
      "name": "pause",
      "outputs": [],
      "stateMutability": "nonpayable",
      "type": "function"
    },
    {
      "inputs": [],
      "name": "paused",
      "outputs": [
        {
          "internalType": "bool",
          "name": "",
          "type": "bool"
        }
      ],
      "stateMutability": "view",
      "type": "function"
    },
    {
      "inputs": [
        {
          "internalType": "address",
          "name": "account",
          "type": "address"
        }
      ],
      "name": "quantityRevokedFrom",
      "outputs": [
        {
          "internalType": "uint256",
          "name": "",
          "type": "uint256"
        }
      ],
      "stateMutability": "view",
      "type": "function"
    },
    {
      "inputs": [
        {
          "internalType": "bytes32",
          "name": "role",
          "type": "bytes32"
        },
        {
          "internalType": "address",
          "name": "account",
          "type": "address"
        }
      ],
      "name": "renounceRole",
      "outputs": [],
      "stateMutability": "nonpayable",
      "type": "function"
    },
    {
      "inputs": [
        {
          "internalType": "address",
          "name": "operator",
          "type": "address"
        }
      ],
      "name": "revokeOperator",
      "outputs": [],
      "stateMutability": "nonpayable",
      "type": "function"
    },
    {
      "inputs": [
        {
          "internalType": "bytes32",
          "name": "role",
          "type": "bytes32"
        },
        {
          "internalType": "address",
          "name": "account",
          "type": "address"
        }
      ],
      "name": "revokeRole",
      "outputs": [],
      "stateMutability": "nonpayable",
      "type": "function"
    },
    {
      "inputs": [
        {
          "internalType": "address",
          "name": "from",
          "type": "address"
        },
        {
          "internalType": "address",
          "name": "to",
          "type": "address"
        },
        {
          "internalType": "uint256",
          "name": "atTime",
          "type": "uint256"
        },
        {
          "internalType": "uint256",
          "name": "amount",
          "type": "uint256"
        }
      ],
      "name": "revokeUnvestedTokenAmount",
      "outputs": [],
      "stateMutability": "nonpayable",
      "type": "function"
    },
    {
      "inputs": [
        {
          "internalType": "address",
          "name": "from",
          "type": "address"
        },
        {
          "internalType": "address",
          "name": "to",
          "type": "address"
        },
        {
          "internalType": "uint256",
          "name": "atTime",
          "type": "uint256"
        }
      ],
      "name": "revokeUnvestedTokens",
      "outputs": [],
      "stateMutability": "nonpayable",
      "type": "function"
    },
    {
      "inputs": [
        {
          "internalType": "address",
          "name": "recipient",
          "type": "address"
        },
        {
          "internalType": "uint256",
          "name": "amount",
          "type": "uint256"
        },
        {
          "internalType": "bytes",
          "name": "data",
          "type": "bytes"
        }
      ],
      "name": "send",
      "outputs": [],
      "stateMutability": "nonpayable",
      "type": "function"
    },
    {
      "inputs": [
        {
          "internalType": "bytes4",
          "name": "interfaceId",
          "type": "bytes4"
        }
      ],
      "name": "supportsInterface",
      "outputs": [
        {
          "internalType": "bool",
          "name": "",
          "type": "bool"
        }
      ],
      "stateMutability": "view",
      "type": "function"
    },
    {
      "inputs": [],
      "name": "symbol",
      "outputs": [
        {
          "internalType": "string",
          "name": "",
          "type": "string"
        }
      ],
      "stateMutability": "view",
      "type": "function"
    },
    {
      "inputs": [
        {
          "internalType": "address",
          "name": "",
          "type": "address"
        },
        {
          "internalType": "address",
          "name": "",
          "type": "address"
        },
        {
          "internalType": "address",
          "name": "",
          "type": "address"
        },
        {
          "internalType": "uint256",
          "name": "amount",
          "type": "uint256"
        },
        {
          "internalType": "bytes",
          "name": "userData",
          "type": "bytes"
        },
        {
          "internalType": "bytes",
          "name": "operatorData",
          "type": "bytes"
        }
      ],
      "name": "tokensReceived",
      "outputs": [],
      "stateMutability": "nonpayable",
      "type": "function"
    },
    {
      "inputs": [],
      "name": "totalSupply",
      "outputs": [
        {
          "internalType": "uint256",
          "name": "",
          "type": "uint256"
        }
      ],
      "stateMutability": "view",
      "type": "function"
    },
    {
      "inputs": [
        {
          "internalType": "address",
          "name": "recipient",
          "type": "address"
        },
        {
          "internalType": "uint256",
          "name": "amount",
          "type": "uint256"
        }
      ],
      "name": "transfer",
      "outputs": [
        {
          "internalType": "bool",
          "name": "",
          "type": "bool"
        }
      ],
      "stateMutability": "nonpayable",
      "type": "function"
    },
    {
      "inputs": [
        {
          "internalType": "address",
          "name": "holder",
          "type": "address"
        },
        {
          "internalType": "address",
          "name": "recipient",
          "type": "address"
        },
        {
          "internalType": "uint256",
          "name": "amount",
          "type": "uint256"
        }
      ],
      "name": "transferFrom",
      "outputs": [
        {
          "internalType": "bool",
          "name": "",
          "type": "bool"
        }
      ],
      "stateMutability": "nonpayable",
      "type": "function"
    },
    {
      "inputs": [
        {
          "internalType": "address",
          "name": "account",
          "type": "address"
        }
      ],
      "name": "unlockedBalanceOf",
      "outputs": [
        {
          "internalType": "uint256",
          "name": "",
          "type": "uint256"
        }
      ],
      "stateMutability": "view",
      "type": "function"
    },
    {
      "inputs": [],
      "name": "unpause",
      "outputs": [],
      "stateMutability": "nonpayable",
      "type": "function"
    },
    {
      "inputs": [
        {
          "internalType": "address",
          "name": "account",
          "type": "address"
        }
      ],
      "name": "vestedBalanceOf",
      "outputs": [
        {
          "internalType": "uint256",
          "name": "",
          "type": "uint256"
        }
      ],
      "stateMutability": "view",
      "type": "function"
    },
    {
      "inputs": [
        {
          "internalType": "address",
          "name": "account",
          "type": "address"
        },
        {
          "internalType": "uint256",
          "name": "amount",
          "type": "uint256"
        }
      ],
      "name": "withdrawTo",
      "outputs": [
        {
          "internalType": "bool",
          "name": "",
          "type": "bool"
        }
      ],
      "stateMutability": "nonpayable",
      "type": "function"
    }
  ],
  "bytecode": "0x608060405234801561001057600080fd5b506141fd806100206000396000f3fe608060405234801561001057600080fd5b50600436106102685760003560e01c806370a0823111610151578063a9059cbb116100c3578063d95b637111610087578063d95b637114610567578063dd62ed3e1461057a578063e63ab1e9146105b3578063fad8b32a146105c8578063fc673c4f146105db578063fe9d9303146105ee57600080fd5b8063a9059cbb146104fb578063bf31dbf41461050e578063c4d66de81461052e578063ca15c87314610541578063d547741f1461055457600080fd5b806391d148541161011557806391d148541461049f578063959b8c3f146104b257806395d89b41146104c55780639bd9bbc6146104cd5780639e3f3cac146104e0578063a217fddf146104f357600080fd5b806370a082311461041d5780637f02f21d146104465780638456cb591461045957806384955c88146104615780639010d07c1461047457600080fd5b8063248a9ca3116101ea5780633f4ba83a116101ae5780633f4ba83a146103b4578063521189a9146103bc578063556f0dc7146103e35780635c975abb146103ea57806362ad1b83146103f5578063633d9be01461040857600080fd5b8063248a9ca314610349578063271c6e1a1461036c5780632f2ff15d1461037f578063313ce5671461039257806336568abe146103a157600080fd5b80630e2d1a2a116102315780630e2d1a2a146102e7578063180e4bb81461030857806318160ddd1461031b578063205c28781461032357806323b872dd1461033657600080fd5b806223de291461026d57806301ffc9a71461028257806306e48538146102aa57806306fdde03146102bf578063095ea7b3146102d4575b600080fd5b61028061027b3660046136a2565b6105fc565b005b610295610290366004613753565b610674565b60405190151581526020015b60405180910390f35b6102b261069f565b6040516102a1919061377d565b6102c7610701565b6040516102a19190613822565b6102956102e2366004613835565b61078a565b6102fa6102f5366004613861565b6107d0565b6040519081526020016102a1565b61028061031636600461387e565b6107dc565b6034546102fa565b610295610331366004613835565b61082b565b6102956103443660046138c4565b610948565b6102fa610357366004613905565b600090815260c9602052604090206001015490565b61028061037a36600461391e565b610a76565b61028061038d36600461399d565b610b37565b604051601281526020016102a1565b6102806103af36600461399d565b610b62565b610280610be0565b6102fa7fb281fc8c12954d22544db45de3159a39272895b169a852b314f9cc762e44c53b81565b60016102fa565b60655460ff16610295565b610280610403366004613a9a565b610c04565b6102fa60008051602061418883398151915281565b6102fa61042b366004613861565b6001600160a01b031660009081526033602052604090205490565b6102806104543660046138c4565b610c7e565b610280610ccd565b6102fa61046f366004613861565b610cee565b610487610482366004613b2d565b610cfa565b6040516001600160a01b0390911681526020016102a1565b6102956104ad36600461399d565b610d12565b6102806104c0366004613861565b610d3d565b6102c7610d51565b6102806104db366004613b4f565b610d60565b6102fa6104ee366004613861565b610d7e565b6102fa600081565b610295610509366004613835565b610dab565b61052161051c366004613861565b610e68565b6040516102a19190613ba8565b61028061053c366004613861565b610faa565b6102fa61054f366004613905565b61122f565b61028061056236600461399d565b611246565b610295610575366004613c4b565b61126c565b6102fa610588366004613c4b565b6001600160a01b039182166000908152603b6020908152604080832093909416825291909152205490565b6102fa6000805160206141a883398151915281565b6102806105d6366004613861565b61130d565b6102806105e9366004613c79565b611321565b6102806105e9366004613cf9565b610160546001600160a01b0316331461065c5760405162461bcd60e51b815260206004820152601d60248201527f6c4e4f52493a206e6f742042726964676564506f6c79676f6e4e4f524900000060448201526064015b60405180910390fd5b6106698585858585611369565b505050505050505050565b60006001600160e01b03198216635a05180f60e01b148061069957506106998261144b565b92915050565b606060378054806020026020016040519081016040528092919081815260200182805480156106f757602002820191906000526020600020905b81546001600160a01b031681526001909101906020018083116106d9575b5050505050905090565b60606035805461071090613d40565b80601f016020809104026020016040519081016040528092919081815260200182805461073c90613d40565b80156106f75780601f1061075e576101008083540402835291602001916106f7565b820191906000526020600020905b81548152906001019060200180831161076c57509395945050505050565b600061079860655460ff1690565b156107b55760405162461bcd60e51b815260040161065390613d7b565b6107bf8383611480565b6107c983836114a3565b9392505050565b600061069982426114b1565b60655460ff16156107ff5760405162461bcd60e51b815260040161065390613d7b565b6000805160206141888339815191526108188133611592565b610824858585856115f6565b5050505050565b6001600160a01b038216600090815261015f6020526040812061086e33846040518060200160405280600081525060405180602001604052806000815250611901565b61016054604051634decdde360e11b81526001600160a01b03868116600483015260248201869052606060448301526000606483015290911690639bd9bbc690608401600060405180830381600087803b1580156108cb57600080fd5b505af11580156108df573d6000803e3d6000fd5b505050508281600b0160008282546108f79190613dbb565b9091555050604080516001600160a01b0386168152602081018590527f896e034966eaaf1adc54acc0f257056febbd300c9e47182cf761982cf1f5e430910160405180910390a15060019392505050565b60006001600160a01b0383166109705760405162461bcd60e51b815260040161065390613dd3565b6001600160a01b0384166109d55760405162461bcd60e51b815260206004820152602660248201527f4552433737373a207472616e736665722066726f6d20746865207a65726f206160448201526564647265737360d01b6064820152608401610653565b6000339050610a06818686866040518060200160405280600081525060405180602001604052806000815250611ac3565b610a11858285611beb565b610a3d818686866040518060200160405280600081525060405180602001604052806000815250611c77565b610a6b8186868660405180602001604052806000815250604051806020016040528060008152506000611de9565b506001949350505050565b60655460ff1615610a995760405162461bcd60e51b815260040161065390613d7b565b600080516020614188833981519152610ab28133611592565b604080516001600160a01b038d1660208201529081018b9052606081018a90526080810189905260a0810188905260c0810187905260e08101869052610100810185905261012081018490526101408101839052600090610160016040516020818303038152906040529050610b288d82611fae565b50505050505050505050505050565b600082815260c96020526040902060010154610b538133611592565b610b5d8383612238565b505050565b6001600160a01b0381163314610bd25760405162461bcd60e51b815260206004820152602f60248201527f416363657373436f6e74726f6c3a2063616e206f6e6c792072656e6f756e636560448201526e103937b632b9903337b91039b2b63360891b6064820152608401610653565b610bdc828261224c565b5050565b6000805160206141a8833981519152610bf98133611592565b610c01612260565b50565b610c0e338661126c565b610c6f5760405162461bcd60e51b815260206004820152602c60248201527f4552433737373a2063616c6c6572206973206e6f7420616e206f70657261746f60448201526b39103337b9103437b63232b960a11b6064820152608401610653565b610824858585858560016122f3565b60655460ff1615610ca15760405162461bcd60e51b815260040161065390613d7b565b600080516020614188833981519152610cba8133611592565b610cc784848460006115f6565b50505050565b6000805160206141a8833981519152610ce68133611592565b610c016123d6565b6000610699824261242e565b600082815260fb602052604081206107c990836124ed565b600091825260c9602090815260408084206001600160a01b0393909316845291905290205460ff1690565b610d48816000611480565b610c01816124f9565b60606036805461071090613d40565b610b5d338484846040518060200160405280600081525060016122f3565b6001600160a01b038116600090815261015f60205260408120600a810154600c8201546107c99190613e17565b60006001600160a01b038316610dd35760405162461bcd60e51b815260040161065390613dd3565b6000339050610e04818286866040518060200160405280600081525060405180602001604052806000815250611ac3565b610e30818286866040518060200160405280600081525060405180602001604052806000815250611c77565b610e5e8182868660405180602001604052806000815250604051806020016040528060008152506000611de9565b5060019392505050565b610edc604051806101a001604052806000815260200160006001600160a01b0316815260200160008152602001600081526020016000815260200160008152602001600081526020016000815260200160008152602001600081526020016000815260200160008152602001600081525090565b506001600160a01b0316600081815261015f6020908152604080832081516101a081018352600a82015481528084019590955260058101548583015260018082015460608701526006820154608087015284805260088201808552838620805460a0890152828752818652848720805460c08a01528780526003850180885286892085015460e08b01528489528752948720830154610100890152820154610120880152948190529390925290910154610140830152600b810154610160830152600c015461018082015290565b600054610100900460ff16610fc55760005460ff1615610fc9565b303b155b61102c5760405162461bcd60e51b815260206004820152602e60248201527f496e697469616c697a61626c653a20636f6e747261637420697320616c72656160448201526d191e481a5b9a5d1a585b1a5e995960921b6064820152608401610653565b600054610100900460ff1615801561104e576000805461ffff19166101011790555b60408051600180825281830190925260009160208083019080368337019050509050338160008151811061108457611084613e2e565b60200260200101906001600160a01b031690816001600160a01b0316815250506110ac612617565b6110b4612617565b6110bc612617565b6110c4612617565b6110cc612640565b6111296040518060400160405280601981526020017f4c6f636b65642042726964676564506f6c79676f6e4e4f524900000000000000815250604051806040016040528060058152602001646c4e4f524960d81b81525083612673565b61016080546001600160a01b0319166001600160a01b0385161790556040516329965a1d60e01b815230600482018190527fb281fc8c12954d22544db45de3159a39272895b169a852b314f9cc762e44c53b60248301526044820152731820a4b7618bde71dce8cdc73aab6c95905fad24906329965a1d90606401600060405180830381600087803b1580156111be57600080fd5b505af11580156111d2573d6000803e3d6000fd5b505050506111e96000801b6111e43390565b61285d565b6112016000805160206141888339815191523361285d565b6112196000805160206141a88339815191523361285d565b508015610bdc576000805461ff00191690555050565b600081815260fb6020526040812061069990612867565b600082815260c960205260409020600101546112628133611592565b610b5d838361224c565b6000816001600160a01b0316836001600160a01b031614806112d757506001600160a01b03831660009081526038602052604090205460ff1680156112d757506001600160a01b038083166000908152603a602090815260408083209387168352929052205460ff16155b806107c95750506001600160a01b0390811660009081526039602090815260408083209490931682529290925290205460ff1690565b611318816000611480565b610c0181612871565b60405162461bcd60e51b815260206004820152601c60248201527f6c4e4f52493a206275726e696e67206e6f7420737570706f72746564000000006044820152606401610653565b60008061137885870187613e44565b6020810151909150156113c5576113c58787878080601f016020809104026020016040519081016040528093929190818152602001838380828437600092019190915250611fae92505050565b61143e81600001518888888080601f01602080910402602001604051908101604052809392919081815260200183838082843760009201919091525050604080516020601f8c018190048102820181019092528a815292508a915089908190840183828082843760009201919091525061298d92505050565b5060019695505050505050565b60006001600160e01b03198216637965db0b60e01b148061069957506301ffc9a760e01b6001600160e01b0319831614610699565b60655460ff1615610bdc5760405162461bcd60e51b815260040161065390613d7b565b600033610e5e81858561299b565b6001600160a01b038216600081815261015f602052604080822090516370a0823160e01b815260048101939093529091829030906370a0823190602401602060405180830381865afa15801561150b573d6000803e3d6000fd5b505050506040513d601f19601f8201168201806040525081019061152f9190613e9c565b600d83015490915060ff161561158a5781541561157357600b8201546115626115588487612ac2565b84600a0154612ae2565b61156c9190613e17565b905061158a565b81600b015482600a01546115879190613e17565b90505b949350505050565b61159c8282610d12565b610bdc576115b4816001600160a01b03166014612af8565b6115bf836020612af8565b6040516020016115d0929190613eb5565b60408051601f198184030181529082905262461bcd60e51b825261065391600401613822565b6001600160a01b038416600090815261015f60205260409020600d81015460ff1661165c5760405162461bcd60e51b81526020600482015260166024820152756c4e4f52493a206e6f206772616e742065786973747360501b6044820152606401610653565b80546116bc5760405162461bcd60e51b815260206004820152602960248201527f6c4e4f52493a206e6f2076657374696e67207363686564756c6520666f7220746044820152681a1a5cc819dc985b9d60ba1b6064820152608401610653565b4283101561171c5760405162461bcd60e51b815260206004820152602760248201527f6c4e4f52493a205265766f636174696f6e2063616e6e6f7420626520696e20746044820152661a19481c185cdd60ca1b6064820152608401610653565b60006117288285612ac2565b905081600a0154811061177d5760405162461bcd60e51b815260206004820152601c60248201527f6c4e4f52493a20746f6b656e7320616c726561647920766573746564000000006044820152606401610653565b60008183600a015461178f9190613e17565b9050600084156117f057818511156117e95760405162461bcd60e51b815260206004820152601e60248201527f6c4e4f52493a20746f6f2066657720756e76657374656420746f6b656e7300006044820152606401610653565b50836117f3565b50805b60008185600a01546118059190613e17565b600a860181905561016054604051634decdde360e11b81526001600160a01b038b81166004830152602482018690526060604483015260006064830152929350911690639bd9bbc690608401600060405180830381600087803b15801561186b57600080fd5b505af115801561187f573d6000803e3d6000fd5b505050506118ad89836040518060200160405280600081525060405180602001604052806000815250611901565b604080518881526001600160a01b038b1660208201529081018390527f0bbe3f9ae306d75ae6df08cd4a79ac5c6eae93ffae7d7e52f2859bf27592519d9060600160405180910390a1505050505050505050565b6001600160a01b0384166119625760405162461bcd60e51b815260206004820152602260248201527f4552433737373a206275726e2066726f6d20746865207a65726f206164647265604482015261737360f01b6064820152608401610653565b3361197281866000878787611ac3565b61197f8186600087612c94565b6001600160a01b038516600090815260336020526040902054848110156119f45760405162461bcd60e51b815260206004820152602360248201527f4552433737373a206275726e20616d6f756e7420657863656564732062616c616044820152626e636560e81b6064820152608401610653565b6001600160a01b0386166000908152603360205260408120868303905560348054879290611a23908490613e17565b92505081905550856001600160a01b0316826001600160a01b03167fa78a9be3a7b862d26933ad85fb11d80ef66b8f972d7cbba06621d583943a4098878787604051611a7193929190613f2a565b60405180910390a36040518581526000906001600160a01b038816907fddf252ad1be2c89b69c2b068fc378daa952ba7f163c4a11628f55a4df523b3ef906020015b60405180910390a3505050505050565b60405163555ddc6560e11b81526001600160a01b03861660048201527f29ddb589b1fb5fc7cf394961c1adf5f8c6454761adf795e67fe149f658abe8956024820152600090731820a4b7618bde71dce8cdc73aab6c95905fad249063aabbb8ca90604401602060405180830381865afa158015611b44573d6000803e3d6000fd5b505050506040513d601f19601f82011682018060405250810190611b689190613f6f565b90506001600160a01b03811615611be257604051633ad5cbc160e11b81526001600160a01b038216906375ab978290611baf908a908a908a908a908a908a90600401613f8c565b600060405180830381600087803b158015611bc957600080fd5b505af1158015611bdd573d6000803e3d6000fd5b505050505b50505050505050565b6001600160a01b038381166000908152603b60209081526040808320938616835292905220546000198114610cc75781811015611c6a5760405162461bcd60e51b815260206004820152601e60248201527f4552433737373a20696e73756666696369656e7420616c6c6f77616e636500006044820152606401610653565b610cc7848484840361299b565b611c8386868686612c94565b6001600160a01b03851660009081526033602052604090205483811015611cfc5760405162461bcd60e51b815260206004820152602760248201527f4552433737373a207472616e7366657220616d6f756e7420657863656564732060448201526662616c616e636560c81b6064820152608401610653565b6001600160a01b03808716600090815260336020526040808220878503905591871681529081208054869290611d33908490613dbb565b92505081905550846001600160a01b0316866001600160a01b0316886001600160a01b03167f06b541ddaa720db2b10a4d0cdac39b8d360425fc073085fac19bc82614677987878787604051611d8b93929190613f2a565b60405180910390a4846001600160a01b0316866001600160a01b03167fddf252ad1be2c89b69c2b068fc378daa952ba7f163c4a11628f55a4df523b3ef86604051611dd891815260200190565b60405180910390a350505050505050565b60405163555ddc6560e11b81526001600160a01b03861660048201527fb281fc8c12954d22544db45de3159a39272895b169a852b314f9cc762e44c53b6024820152600090731820a4b7618bde71dce8cdc73aab6c95905fad249063aabbb8ca90604401602060405180830381865afa158015611e6a573d6000803e3d6000fd5b505050506040513d601f19601f82011682018060405250810190611e8e9190613f6f565b90506001600160a01b03811615611f0a576040516223de2960e01b81526001600160a01b038216906223de2990611ed3908b908b908b908b908b908b90600401613f8c565b600060405180830381600087803b158015611eed57600080fd5b505af1158015611f01573d6000803e3d6000fd5b50505050611fa4565b8115611fa4576001600160a01b0386163b15611fa45760405162461bcd60e51b815260206004820152604d60248201527f4552433737373a20746f6b656e20726563697069656e7420636f6e747261637460448201527f20686173206e6f20696d706c656d656e74657220666f7220455243373737546f60648201526c1ad95b9cd49958da5c1a595b9d609a1b608482015260a401610653565b5050505050505050565b600081806020019051810190611fc49190613fe6565b80519091506001600160a01b031661201e5760405162461bcd60e51b815260206004820181905260248201527f526563697069656e742063616e6e6f74206265207a65726f20616464726573736044820152606401610653565b80516001600160a01b0316600090815261015f60205260409020600d015460ff161561208c5760405162461bcd60e51b815260206004820152601b60248201527f6c4e4f52493a204772616e7420616c72656164792065786973747300000000006044820152606401610653565b80516001600160a01b0316600090815261015f6020908152604091829020600a8101869055600c8101869055600d8101805460ff19166001179055908301519183015190911015612186578161010001518260c001511015806120f857508161012001518260e0015110155b6121445760405162461bcd60e51b815260206004820181905260248201527f6c4e4f52493a20756e6c6f636b20636c696666203c207665737420636c6966666044820152606401610653565b600281018490556020820151815560408201516001820155608082015160c0830151612171918391612dc9565b60a082015160e0830151612186918391612dc9565b600781018490556020820151600582019081556060830151600683015560808301516101008401516121b9929190612dc9565b60a08201516101208301516121d2916005840191612dc9565b815160208084015160408086015160608088015183518b815295860194909452918401528201526001600160a01b03909116907f17161516b6ce34594617177a800b150a86ddee02c06993a73ef000a02367d1199060800160405180910390a250505050565b6122428282611480565b610bdc8282612f9e565b6122568282611480565b610bdc8282612fc0565b60655460ff166122a95760405162461bcd60e51b815260206004820152601460248201527314185d5cd8589b194e881b9bdd081c185d5cd95960621b6044820152606401610653565b6065805460ff191690557f5db9ee0a495bf2e6ff9c91a7834c1ba4fdd244a5e8aa4e537bd38aeae4b073aa335b6040516001600160a01b03909116815260200160405180910390a1565b6001600160a01b0386166123545760405162461bcd60e51b815260206004820152602260248201527f4552433737373a2073656e642066726f6d20746865207a65726f206164647265604482015261737360f01b6064820152608401610653565b6001600160a01b0385166123aa5760405162461bcd60e51b815260206004820181905260248201527f4552433737373a2073656e6420746f20746865207a65726f20616464726573736044820152606401610653565b336123b9818888888888611ac3565b6123c7818888888888611c77565b611be281888888888888611de9565b60655460ff16156123f95760405162461bcd60e51b815260040161065390613d7b565b6065805460ff191660011790557f62e78cea01bee320cd4e420270b5ea74000d11b0c9f74754ebdbfc544b05a2586122d63390565b6001600160a01b038216600081815261015f602052604080822090516370a0823160e01b815260048101939093529091829030906370a0823190602401602060405180830381865afa158015612488573d6000803e3d6000fd5b505050506040513d601f19601f820116820180604052508101906124ac9190613e9c565b600d83015490915060ff161561158a57600b8201546124e36115586124d18588612ac2565b6124de6005870189612ac2565b612ae2565b6115879190613e17565b60006107c98383612fe2565b336001600160a01b038216141561255e5760405162461bcd60e51b8152602060048201526024808201527f4552433737373a20617574686f72697a696e672073656c66206173206f70657260448201526330ba37b960e11b6064820152608401610653565b6001600160a01b03811660009081526038602052604090205460ff16156125af57336000908152603a602090815260408083206001600160a01b03851684529091529020805460ff191690556125de565b3360009081526039602090815260408083206001600160a01b03851684529091529020805460ff191660011790555b60405133906001600160a01b038316907ff4caeb2d6ca8932a215a353d0703c326ec2d81fc68170f320eb2ab49e9df61f990600090a350565b600054610100900460ff1661263e5760405162461bcd60e51b815260040161065390614074565b565b600054610100900460ff166126675760405162461bcd60e51b815260040161065390614074565b6065805460ff19169055565b600054610100900460ff1661269a5760405162461bcd60e51b815260040161065390614074565b82516126ad906035906020860190613556565b5081516126c1906036906020850190613556565b5080516126d59060379060208401906135da565b5060005b815181101561273e576001603860008484815181106126fa576126fa613e2e565b6020908102919091018101516001600160a01b03168252810191909152604001600020805460ff191691151591909117905580612736816140bf565b9150506126d9565b506040516329965a1d60e01b815230600482018190527fac7fbab5f54a3ca8194167523c6753bfeb96a445279294b6125b68cce217705460248301526044820152731820a4b7618bde71dce8cdc73aab6c95905fad24906329965a1d90606401600060405180830381600087803b1580156127b857600080fd5b505af11580156127cc573d6000803e3d6000fd5b50506040516329965a1d60e01b815230600482018190527faea199e31a596269b42cdafd93407f14436db6e4cad65417994c2eb37381e05a60248301526044820152731820a4b7618bde71dce8cdc73aab6c95905fad2492506329965a1d9150606401600060405180830381600087803b15801561284957600080fd5b505af1158015611be2573d6000803e3d6000fd5b610bdc8282612238565b6000610699825490565b6001600160a01b0381163314156128d45760405162461bcd60e51b815260206004820152602160248201527f4552433737373a207265766f6b696e672073656c66206173206f70657261746f6044820152603960f91b6064820152608401610653565b6001600160a01b03811660009081526038602052604090205460ff161561292857336000908152603a602090815260408083206001600160a01b03851684529091529020805460ff19166001179055612954565b3360009081526039602090815260408083206001600160a01b03851684529091529020805460ff191690555b60405133906001600160a01b038316907f50546e66e5f44d728365dc3908c63bc5cfeeab470722c1677e3073a6ac294aa190600090a350565b610cc784848484600161300c565b6001600160a01b0383166129ff5760405162461bcd60e51b815260206004820152602560248201527f4552433737373a20617070726f76652066726f6d20746865207a65726f206164604482015264647265737360d81b6064820152608401610653565b6001600160a01b038216612a615760405162461bcd60e51b815260206004820152602360248201527f4552433737373a20617070726f766520746f20746865207a65726f206164647260448201526265737360e81b6064820152608401610653565b6001600160a01b038381166000818152603b602090815260408083209487168084529482529182902085905590518481527f8c5be1e5ebec7d5bd14f71427d1e84f3dd0314c0f7b2291e5b200ac8c7c3b925910160405180910390a3505050565b6000612ace8383613152565b612ad88484613220565b6107c99190613dbb565b6000818310612af157816107c9565b5090919050565b60606000612b078360026140da565b612b12906002613dbb565b67ffffffffffffffff811115612b2a57612b2a6139cd565b6040519080825280601f01601f191660200182016040528015612b54576020820181803683370190505b509050600360fc1b81600081518110612b6f57612b6f613e2e565b60200101906001600160f81b031916908160001a905350600f60fb1b81600181518110612b9e57612b9e613e2e565b60200101906001600160f81b031916908160001a9053506000612bc28460026140da565b612bcd906001613dbb565b90505b6001811115612c45576f181899199a1a9b1b9c1cb0b131b232b360811b85600f1660108110612c0157612c01613e2e565b1a60f81b828281518110612c1757612c17613e2e565b60200101906001600160f81b031916908160001a90535060049490941c93612c3e816140f9565b9050612bd0565b5083156107c95760405162461bcd60e51b815260206004820181905260248201527f537472696e67733a20686578206c656e67746820696e73756666696369656e746044820152606401610653565b6001600160a01b0383811615908316156000612cbe60008051602061418883398151915288610d12565b90506001600160a01b0387811690871614156000612cdb88610cee565b8611159050838015612cea5750815b8015612cf35750825b15612d6b5785612d18896001600160a01b031660009081526033602052604090205490565b1015612d665760405162461bcd60e51b815260206004820152601b60248201527f6c4e4f52493a20696e73756666696369656e742062616c616e636500000000006044820152606401610653565b612dbd565b84612dbd5780612dbd5760405162461bcd60e51b815260206004820152601b60248201527f6c4e4f52493a20696e73756666696369656e742062616c616e636500000000006044820152606401610653565b6106698989898961328a565b6004830154612e28578254821015612e235760405162461bcd60e51b815260206004820152601b60248201527f436c696666206265666f7265207363686564756c6520737461727400000000006044820152606401610653565b612ea0565b82600301600060018560040154612e3f9190613e17565b815260200190815260200160002060000154821015612ea05760405162461bcd60e51b815260206004820152601860248201527f436c69666673206e6f74206368726f6e6f6c6f676963616c00000000000000006044820152606401610653565b8260010154821115612ef45760405162461bcd60e51b815260206004820181905260248201527f436c696666732063616e6e6f7420656e64206166746572207363686564756c656044820152606401610653565b826002015481612f03856132b2565b612f0d9190613dbb565b1115612f5b5760405162461bcd60e51b815260206004820152601a60248201527f636c69666620616d6f756e74732065786365656420746f74616c0000000000006044820152606401610653565b60048301805460009081526003850160205260408082208590558254825281206001908101849055825490929190612f94908490613dbb565b9091555050505050565b612fa882826132fd565b600082815260fb60205260409020610b5d9082613383565b612fca8282613398565b600082815260fb60205260409020610b5d90826133ff565b6000826000018281548110612ff957612ff9613e2e565b9060005260206000200154905092915050565b6001600160a01b0385166130625760405162461bcd60e51b815260206004820181905260248201527f4552433737373a206d696e7420746f20746865207a65726f20616464726573736044820152606401610653565b336130708160008888612c94565b84603460008282546130829190613dbb565b90915550506001600160a01b038616600090815260336020526040812080548792906130af908490613dbb565b909155506130c590508160008888888888611de9565b856001600160a01b0316816001600160a01b03167f2fe5be0146f74c5bce36c0b80911af6c7d86ff27e89d5cfa61fc681327954e5d87878760405161310c93929190613f2a565b60405180910390a36040518581526001600160a01b038716906000907fddf252ad1be2c89b69c2b068fc378daa952ba7f163c4a11628f55a4df523b3ef90602001611ab3565b60008061315e846132b2565b84600201541061318357613171846132b2565b84600201546131809190613e17565b90505b83600101548310613195579050610699565b83546004850154156131cd57846003016000600187600401546131b89190613e17565b81526020019081526020016000206000015490505b60008186600101546131df9190613e17565b905060006131ed8387614110565b90506000811315613212578161320382866140da565b61320d919061414f565b613215565b60005b979650505050505050565b600080805b846004015481101561327b57600081815260038601602052604090205484106132695760008181526003860160205260409020600101546132669083613dbb565b91505b80613273816140bf565b915050613225565b5061158a846002015482612ae2565b60655460ff16156132ad5760405162461bcd60e51b815260040161065390613d7b565b610cc7565b60008060005b83600401548110156132f65760008181526003850160205260409020600101546132e29083613dbb565b9150806132ee816140bf565b9150506132b8565b5092915050565b6133078282610d12565b610bdc57600082815260c9602090815260408083206001600160a01b03851684529091529020805460ff1916600117905561333f3390565b6001600160a01b0316816001600160a01b0316837f2f8788117e7eff1d82e926ec794901d17c78024a50270940304540a733656f0d60405160405180910390a45050565b60006107c9836001600160a01b038416613414565b6133a28282610d12565b15610bdc57600082815260c9602090815260408083206001600160a01b0385168085529252808320805460ff1916905551339285917ff6391f5c32d9c69d2a47ea670b442974b53935d1edc7fd64eb21e047a839171b9190a45050565b60006107c9836001600160a01b038416613463565b600081815260018301602052604081205461345b57508154600181810184556000848152602080822090930184905584548482528286019093526040902091909155610699565b506000610699565b6000818152600183016020526040812054801561354c576000613487600183613e17565b855490915060009061349b90600190613e17565b90508181146135005760008660000182815481106134bb576134bb613e2e565b90600052602060002001549050808760000184815481106134de576134de613e2e565b6000918252602080832090910192909255918252600188019052604090208390555b855486908061351157613511614171565b600190038181906000526020600020016000905590558560010160008681526020019081526020016000206000905560019350505050610699565b6000915050610699565b82805461356290613d40565b90600052602060002090601f01602090048101928261358457600085556135ca565b82601f1061359d57805160ff19168380011785556135ca565b828001600101855582156135ca579182015b828111156135ca5782518255916020019190600101906135af565b506135d692915061362f565b5090565b8280548282559060005260206000209081019282156135ca579160200282015b828111156135ca57825182546001600160a01b0319166001600160a01b039091161782556020909201916001909101906135fa565b5b808211156135d65760008155600101613630565b6001600160a01b0381168114610c0157600080fd5b60008083601f84011261366b57600080fd5b50813567ffffffffffffffff81111561368357600080fd5b60208301915083602082850101111561369b57600080fd5b9250929050565b60008060008060008060008060c0898b0312156136be57600080fd5b88356136c981613644565b975060208901356136d981613644565b965060408901356136e981613644565b955060608901359450608089013567ffffffffffffffff8082111561370d57600080fd5b6137198c838d01613659565b909650945060a08b013591508082111561373257600080fd5b5061373f8b828c01613659565b999c989b5096995094979396929594505050565b60006020828403121561376557600080fd5b81356001600160e01b0319811681146107c957600080fd5b6020808252825182820181905260009190848201906040850190845b818110156137be5783516001600160a01b031683529284019291840191600101613799565b50909695505050505050565b60005b838110156137e55781810151838201526020016137cd565b83811115610cc75750506000910152565b6000815180845261380e8160208601602086016137ca565b601f01601f19169290920160200192915050565b6020815260006107c960208301846137f6565b6000806040838503121561384857600080fd5b823561385381613644565b946020939093013593505050565b60006020828403121561387357600080fd5b81356107c981613644565b6000806000806080858703121561389457600080fd5b843561389f81613644565b935060208501356138af81613644565b93969395505050506040820135916060013590565b6000806000606084860312156138d957600080fd5b83356138e481613644565b925060208401356138f481613644565b929592945050506040919091013590565b60006020828403121561391757600080fd5b5035919050565b60008060008060008060008060008060006101608c8e03121561394057600080fd5b8b359a5060208c013561395281613644565b9a9d9a9c505050506040890135986060810135986080820135985060a0820135975060c0820135965060e0820135955061010082013594506101208201359350610140909101359150565b600080604083850312156139b057600080fd5b8235915060208301356139c281613644565b809150509250929050565b634e487b7160e01b600052604160045260246000fd5b604051610140810167ffffffffffffffff81118282101715613a0757613a076139cd565b60405290565b600082601f830112613a1e57600080fd5b813567ffffffffffffffff80821115613a3957613a396139cd565b604051601f8301601f19908116603f01168101908282118183101715613a6157613a616139cd565b81604052838152866020858801011115613a7a57600080fd5b836020870160208301376000602085830101528094505050505092915050565b600080600080600060a08688031215613ab257600080fd5b8535613abd81613644565b94506020860135613acd81613644565b935060408601359250606086013567ffffffffffffffff80821115613af157600080fd5b613afd89838a01613a0d565b93506080880135915080821115613b1357600080fd5b50613b2088828901613a0d565b9150509295509295909350565b60008060408385031215613b4057600080fd5b50508035926020909101359150565b600080600060608486031215613b6457600080fd5b8335613b6f81613644565b925060208401359150604084013567ffffffffffffffff811115613b9257600080fd5b613b9e86828701613a0d565b9150509250925092565b815181526020808301516101a0830191613bcc908401826001600160a01b03169052565b5060408301516040830152606083015160608301526080830151608083015260a083015160a083015260c083015160c083015260e083015160e083015261010080840151818401525061012080840151818401525061014080840151818401525061016080840151818401525061018080840151818401525092915050565b60008060408385031215613c5e57600080fd5b8235613c6981613644565b915060208301356139c281613644565b60008060008060808587031215613c8f57600080fd5b8435613c9a81613644565b935060208501359250604085013567ffffffffffffffff80821115613cbe57600080fd5b613cca88838901613a0d565b93506060870135915080821115613ce057600080fd5b50613ced87828801613a0d565b91505092959194509250565b60008060408385031215613d0c57600080fd5b82359150602083013567ffffffffffffffff811115613d2a57600080fd5b613d3685828601613a0d565b9150509250929050565b600181811c90821680613d5457607f821691505b60208210811415613d7557634e487b7160e01b600052602260045260246000fd5b50919050565b60208082526010908201526f14185d5cd8589b194e881c185d5cd95960821b604082015260600190565b634e487b7160e01b600052601160045260246000fd5b60008219821115613dce57613dce613da5565b500190565b60208082526024908201527f4552433737373a207472616e7366657220746f20746865207a65726f206164646040820152637265737360e01b606082015260800190565b600082821015613e2957613e29613da5565b500390565b634e487b7160e01b600052603260045260246000fd5b600060408284031215613e5657600080fd5b6040516040810181811067ffffffffffffffff82111715613e7957613e796139cd565b6040528235613e8781613644565b81526020928301359281019290925250919050565b600060208284031215613eae57600080fd5b5051919050565b7f416363657373436f6e74726f6c3a206163636f756e7420000000000000000000815260008351613eed8160178501602088016137ca565b7001034b99036b4b9b9b4b733903937b6329607d1b6017918401918201528351613f1e8160288401602088016137ca565b01602801949350505050565b838152606060208201526000613f4360608301856137f6565b8281036040840152613f5581856137f6565b9695505050505050565b8051613f6a81613644565b919050565b600060208284031215613f8157600080fd5b81516107c981613644565b6001600160a01b0387811682528681166020830152851660408201526060810184905260c060808201819052600090613fc7908301856137f6565b82810360a0840152613fd981856137f6565b9998505050505050505050565b60006101408284031215613ff957600080fd5b6140016139e3565b61400a83613f5f565b81526020830151602082015260408301516040820152606083015160608201526080830151608082015260a083015160a082015260c083015160c082015260e083015160e08201526101008084015181830152506101208084015181830152508091505092915050565b6020808252602b908201527f496e697469616c697a61626c653a20636f6e7472616374206973206e6f74206960408201526a6e697469616c697a696e6760a81b606082015260800190565b60006000198214156140d3576140d3613da5565b5060010190565b60008160001904831182151516156140f4576140f4613da5565b500290565b60008161410857614108613da5565b506000190190565b60008083128015600160ff1b85018412161561412e5761412e613da5565b6001600160ff1b038401831381161561414957614149613da5565b50500390565b60008261416c57634e487b7160e01b600052601260045260246000fd5b500490565b634e487b7160e01b600052603160045260246000fdfea52f07bb8dc8df886598eb50edeaba2b8e45715237ed244354b60ea04d0390b865d7a28e3265b37a6474929f336521b332c1681b933f6cb9f3376673440d862aa2646970667358221220ce27e6b7f3f6c67ef9e3debed0cc7606c6bf3b0f0f9cb5513512c0ec29fc8a8364736f6c634300080a0033",
  "linkReferences": {},
  "deployedLinkReferences": {}
}