{
  "_format": "hh-sol-artifact-1",
  "contractName": "LockedNORI",
  "sourceName": "contracts/LockedNORI.sol",
  "abi": [
    {
      "anonymous": false,
      "inputs": [
        {
          "indexed": true,
          "internalType": "address",
          "name": "owner",
          "type": "address"
        },
        {
          "indexed": true,
          "internalType": "address",
          "name": "spender",
          "type": "address"
        },
        {
          "indexed": false,
          "internalType": "uint256",
          "name": "value",
          "type": "uint256"
        }
      ],
      "name": "Approval",
      "type": "event"
    },
    {
      "anonymous": false,
      "inputs": [
        {
          "indexed": true,
          "internalType": "address",
          "name": "operator",
          "type": "address"
        },
        {
          "indexed": true,
          "internalType": "address",
          "name": "tokenHolder",
          "type": "address"
        }
      ],
      "name": "AuthorizedOperator",
      "type": "event"
    },
    {
      "anonymous": false,
      "inputs": [
        {
          "indexed": true,
          "internalType": "address",
          "name": "operator",
          "type": "address"
        },
        {
          "indexed": true,
          "internalType": "address",
          "name": "from",
          "type": "address"
        },
        {
          "indexed": false,
          "internalType": "uint256",
          "name": "amount",
          "type": "uint256"
        },
        {
          "indexed": false,
          "internalType": "bytes",
          "name": "data",
          "type": "bytes"
        },
        {
          "indexed": false,
          "internalType": "bytes",
          "name": "operatorData",
          "type": "bytes"
        }
      ],
      "name": "Burned",
      "type": "event"
    },
    {
      "anonymous": false,
      "inputs": [
        {
          "indexed": true,
          "internalType": "address",
          "name": "operator",
          "type": "address"
        },
        {
          "indexed": true,
          "internalType": "address",
          "name": "to",
          "type": "address"
        },
        {
          "indexed": false,
          "internalType": "uint256",
          "name": "amount",
          "type": "uint256"
        },
        {
          "indexed": false,
          "internalType": "bytes",
          "name": "data",
          "type": "bytes"
        },
        {
          "indexed": false,
          "internalType": "bytes",
          "name": "operatorData",
          "type": "bytes"
        }
      ],
      "name": "Minted",
      "type": "event"
    },
    {
      "anonymous": false,
      "inputs": [
        {
          "indexed": false,
          "internalType": "address",
          "name": "account",
          "type": "address"
        }
      ],
      "name": "Paused",
      "type": "event"
    },
    {
      "anonymous": false,
      "inputs": [
        {
          "indexed": true,
          "internalType": "address",
          "name": "operator",
          "type": "address"
        },
        {
          "indexed": true,
          "internalType": "address",
          "name": "tokenHolder",
          "type": "address"
        }
      ],
      "name": "RevokedOperator",
      "type": "event"
    },
    {
      "anonymous": false,
      "inputs": [
        {
          "indexed": true,
          "internalType": "bytes32",
          "name": "role",
          "type": "bytes32"
        },
        {
          "indexed": true,
          "internalType": "bytes32",
          "name": "previousAdminRole",
          "type": "bytes32"
        },
        {
          "indexed": true,
          "internalType": "bytes32",
          "name": "newAdminRole",
          "type": "bytes32"
        }
      ],
      "name": "RoleAdminChanged",
      "type": "event"
    },
    {
      "anonymous": false,
      "inputs": [
        {
          "indexed": true,
          "internalType": "bytes32",
          "name": "role",
          "type": "bytes32"
        },
        {
          "indexed": true,
          "internalType": "address",
          "name": "account",
          "type": "address"
        },
        {
          "indexed": true,
          "internalType": "address",
          "name": "sender",
          "type": "address"
        }
      ],
      "name": "RoleGranted",
      "type": "event"
    },
    {
      "anonymous": false,
      "inputs": [
        {
          "indexed": true,
          "internalType": "bytes32",
          "name": "role",
          "type": "bytes32"
        },
        {
          "indexed": true,
          "internalType": "address",
          "name": "account",
          "type": "address"
        },
        {
          "indexed": true,
          "internalType": "address",
          "name": "sender",
          "type": "address"
        }
      ],
      "name": "RoleRevoked",
      "type": "event"
    },
    {
      "anonymous": false,
      "inputs": [
        {
          "indexed": true,
          "internalType": "address",
          "name": "operator",
          "type": "address"
        },
        {
          "indexed": true,
          "internalType": "address",
          "name": "from",
          "type": "address"
        },
        {
          "indexed": true,
          "internalType": "address",
          "name": "to",
          "type": "address"
        },
        {
          "indexed": false,
          "internalType": "uint256",
          "name": "amount",
          "type": "uint256"
        },
        {
          "indexed": false,
          "internalType": "bytes",
          "name": "data",
          "type": "bytes"
        },
        {
          "indexed": false,
          "internalType": "bytes",
          "name": "operatorData",
          "type": "bytes"
        }
      ],
      "name": "Sent",
      "type": "event"
    },
    {
      "anonymous": false,
      "inputs": [
        {
          "indexed": true,
          "internalType": "address",
          "name": "recipient",
          "type": "address"
        },
        {
          "indexed": false,
          "internalType": "uint256",
          "name": "amount",
          "type": "uint256"
        },
        {
          "indexed": false,
          "internalType": "uint256",
          "name": "startTime",
          "type": "uint256"
        },
        {
          "indexed": false,
          "internalType": "uint256",
          "name": "vestEndTime",
          "type": "uint256"
        },
        {
          "indexed": false,
          "internalType": "uint256",
          "name": "unlockEndTime",
          "type": "uint256"
        }
      ],
      "name": "TokenGrantCreated",
      "type": "event"
    },
    {
      "anonymous": false,
      "inputs": [
        {
          "indexed": false,
          "internalType": "address",
          "name": "account",
          "type": "address"
        },
        {
          "indexed": false,
          "internalType": "uint256",
          "name": "quantity",
          "type": "uint256"
        }
      ],
      "name": "TokensClaimed",
      "type": "event"
    },
    {
      "anonymous": false,
      "inputs": [
        {
          "indexed": true,
          "internalType": "address",
          "name": "from",
          "type": "address"
        },
        {
          "indexed": true,
          "internalType": "address",
          "name": "to",
          "type": "address"
        },
        {
          "indexed": false,
          "internalType": "uint256",
          "name": "value",
          "type": "uint256"
        }
      ],
      "name": "Transfer",
      "type": "event"
    },
    {
      "anonymous": false,
      "inputs": [
        {
          "indexed": false,
          "internalType": "address",
          "name": "account",
          "type": "address"
        }
      ],
      "name": "Unpaused",
      "type": "event"
    },
    {
      "anonymous": false,
      "inputs": [
        {
          "indexed": false,
          "internalType": "uint256",
          "name": "atTime",
          "type": "uint256"
        },
        {
          "indexed": false,
          "internalType": "address",
          "name": "from",
          "type": "address"
        },
        {
          "indexed": false,
          "internalType": "uint256",
          "name": "quantity",
          "type": "uint256"
        }
      ],
      "name": "UnvestedTokensRevoked",
      "type": "event"
    },
    {
      "inputs": [],
      "name": "DEFAULT_ADMIN_ROLE",
      "outputs": [
        {
          "internalType": "bytes32",
          "name": "",
          "type": "bytes32"
        }
      ],
      "stateMutability": "view",
      "type": "function"
    },
    {
      "inputs": [],
      "name": "MINTER_ROLE",
      "outputs": [
        {
          "internalType": "bytes32",
          "name": "",
          "type": "bytes32"
        }
      ],
      "stateMutability": "view",
      "type": "function"
    },
    {
      "inputs": [],
      "name": "PAUSER_ROLE",
      "outputs": [
        {
          "internalType": "bytes32",
          "name": "",
          "type": "bytes32"
        }
      ],
      "stateMutability": "view",
      "type": "function"
    },
    {
      "inputs": [],
      "name": "TOKEN_GRANTER_ROLE",
      "outputs": [
        {
          "internalType": "bytes32",
          "name": "",
          "type": "bytes32"
        }
      ],
      "stateMutability": "view",
      "type": "function"
    },
    {
      "inputs": [
        {
          "internalType": "address",
          "name": "holder",
          "type": "address"
        },
        {
          "internalType": "address",
          "name": "spender",
          "type": "address"
        }
      ],
      "name": "allowance",
      "outputs": [
        {
          "internalType": "uint256",
          "name": "",
          "type": "uint256"
        }
      ],
      "stateMutability": "view",
      "type": "function"
    },
    {
      "inputs": [
        {
          "internalType": "address",
          "name": "spender",
          "type": "address"
        },
        {
          "internalType": "uint256",
          "name": "value",
          "type": "uint256"
        }
      ],
      "name": "approve",
      "outputs": [
        {
          "internalType": "bool",
          "name": "",
          "type": "bool"
        }
      ],
      "stateMutability": "nonpayable",
      "type": "function"
    },
    {
      "inputs": [
        {
          "internalType": "address",
          "name": "operator",
          "type": "address"
        }
      ],
      "name": "authorizeOperator",
      "outputs": [],
      "stateMutability": "nonpayable",
      "type": "function"
    },
    {
      "inputs": [
        {
          "internalType": "address",
          "name": "account",
          "type": "address"
        }
      ],
      "name": "balanceOf",
      "outputs": [
        {
          "internalType": "uint256",
          "name": "",
          "type": "uint256"
        }
      ],
      "stateMutability": "view",
      "type": "function"
    },
    {
      "inputs": [
        {
          "internalType": "uint256",
          "name": "",
          "type": "uint256"
        }
      ],
      "name": "burn",
      "outputs": [],
      "stateMutability": "nonpayable",
      "type": "function"
    },
    {
      "inputs": [
        {
          "internalType": "uint256",
          "name": "",
          "type": "uint256"
        },
        {
          "internalType": "bytes",
          "name": "",
          "type": "bytes"
        }
      ],
      "name": "burn",
      "outputs": [],
      "stateMutability": "nonpayable",
      "type": "function"
    },
    {
      "inputs": [
        {
          "internalType": "address",
          "name": "account",
          "type": "address"
        },
        {
          "internalType": "uint256",
          "name": "amount",
          "type": "uint256"
        }
      ],
      "name": "burnFrom",
      "outputs": [],
      "stateMutability": "nonpayable",
      "type": "function"
    },
    {
      "inputs": [
        {
          "internalType": "uint256",
          "name": "amount",
          "type": "uint256"
        },
        {
          "internalType": "address",
          "name": "recipient",
          "type": "address"
        },
        {
          "internalType": "uint256",
          "name": "startTime",
          "type": "uint256"
        },
        {
          "internalType": "uint256",
          "name": "vestEndTime",
          "type": "uint256"
        },
        {
          "internalType": "uint256",
          "name": "unlockEndTime",
          "type": "uint256"
        },
        {
          "internalType": "uint256",
          "name": "cliff1Time",
          "type": "uint256"
        },
        {
          "internalType": "uint256",
          "name": "cliff2Time",
          "type": "uint256"
        },
        {
          "internalType": "uint256",
          "name": "vestCliff1Amount",
          "type": "uint256"
        },
        {
          "internalType": "uint256",
          "name": "vestCliff2Amount",
          "type": "uint256"
        },
        {
          "internalType": "uint256",
          "name": "unlockCliff1Amount",
          "type": "uint256"
        },
        {
          "internalType": "uint256",
          "name": "unlockCliff2Amount",
          "type": "uint256"
        }
      ],
      "name": "createGrant",
      "outputs": [],
      "stateMutability": "nonpayable",
      "type": "function"
    },
    {
      "inputs": [],
      "name": "decimals",
      "outputs": [
        {
          "internalType": "uint8",
          "name": "",
          "type": "uint8"
        }
      ],
      "stateMutability": "pure",
      "type": "function"
    },
    {
      "inputs": [
        {
          "internalType": "address",
          "name": "spender",
          "type": "address"
        },
        {
          "internalType": "uint256",
          "name": "subtractedValue",
          "type": "uint256"
        }
      ],
      "name": "decreaseAllowance",
      "outputs": [
        {
          "internalType": "bool",
          "name": "",
          "type": "bool"
        }
      ],
      "stateMutability": "nonpayable",
      "type": "function"
    },
    {
      "inputs": [],
      "name": "defaultOperators",
      "outputs": [
        {
          "internalType": "address[]",
          "name": "",
          "type": "address[]"
        }
      ],
      "stateMutability": "view",
      "type": "function"
    },
    {
      "inputs": [
        {
          "internalType": "address",
          "name": "account",
          "type": "address"
        }
      ],
      "name": "getGrant",
      "outputs": [
        {
          "components": [
            {
              "internalType": "uint256",
              "name": "grantAmount",
              "type": "uint256"
            },
            {
              "internalType": "address",
              "name": "recipient",
              "type": "address"
            },
            {
              "internalType": "uint256",
              "name": "startTime",
              "type": "uint256"
            },
            {
              "internalType": "uint256",
              "name": "vestEndTime",
              "type": "uint256"
            },
            {
              "internalType": "uint256",
              "name": "unlockEndTime",
              "type": "uint256"
            },
            {
              "internalType": "uint256",
              "name": "cliff1Time",
              "type": "uint256"
            },
            {
              "internalType": "uint256",
              "name": "cliff2Time",
              "type": "uint256"
            },
            {
              "internalType": "uint256",
              "name": "vestCliff1Amount",
              "type": "uint256"
            },
            {
              "internalType": "uint256",
              "name": "vestCliff2Amount",
              "type": "uint256"
            },
            {
              "internalType": "uint256",
              "name": "unlockCliff1Amount",
              "type": "uint256"
            },
            {
              "internalType": "uint256",
              "name": "unlockCliff2Amount",
              "type": "uint256"
            },
            {
              "internalType": "uint256",
              "name": "claimedAmount",
              "type": "uint256"
            },
            {
              "internalType": "uint256",
              "name": "originalAmount",
              "type": "uint256"
            }
          ],
          "internalType": "struct LockedNORI.TokenGrantDetail",
          "name": "",
          "type": "tuple"
        }
      ],
      "stateMutability": "view",
      "type": "function"
    },
    {
      "inputs": [
        {
          "internalType": "bytes32",
          "name": "role",
          "type": "bytes32"
        }
      ],
      "name": "getRoleAdmin",
      "outputs": [
        {
          "internalType": "bytes32",
          "name": "",
          "type": "bytes32"
        }
      ],
      "stateMutability": "view",
      "type": "function"
    },
    {
      "inputs": [
        {
          "internalType": "bytes32",
          "name": "role",
          "type": "bytes32"
        },
        {
          "internalType": "uint256",
          "name": "index",
          "type": "uint256"
        }
      ],
      "name": "getRoleMember",
      "outputs": [
        {
          "internalType": "address",
          "name": "",
          "type": "address"
        }
      ],
      "stateMutability": "view",
      "type": "function"
    },
    {
      "inputs": [
        {
          "internalType": "bytes32",
          "name": "role",
          "type": "bytes32"
        }
      ],
      "name": "getRoleMemberCount",
      "outputs": [
        {
          "internalType": "uint256",
          "name": "",
          "type": "uint256"
        }
      ],
      "stateMutability": "view",
      "type": "function"
    },
    {
      "inputs": [
        {
          "internalType": "bytes32",
          "name": "role",
          "type": "bytes32"
        },
        {
          "internalType": "address",
          "name": "account",
          "type": "address"
        }
      ],
      "name": "grantRole",
      "outputs": [],
      "stateMutability": "nonpayable",
      "type": "function"
    },
    {
      "inputs": [],
      "name": "granularity",
      "outputs": [
        {
          "internalType": "uint256",
          "name": "",
          "type": "uint256"
        }
      ],
      "stateMutability": "view",
      "type": "function"
    },
    {
      "inputs": [
        {
          "internalType": "bytes32",
          "name": "role",
          "type": "bytes32"
        },
        {
          "internalType": "address",
          "name": "account",
          "type": "address"
        }
      ],
      "name": "hasRole",
      "outputs": [
        {
          "internalType": "bool",
          "name": "",
          "type": "bool"
        }
      ],
      "stateMutability": "view",
      "type": "function"
    },
    {
      "inputs": [
        {
          "internalType": "address",
          "name": "spender",
          "type": "address"
        },
        {
          "internalType": "uint256",
          "name": "addedValue",
          "type": "uint256"
        }
      ],
      "name": "increaseAllowance",
      "outputs": [
        {
          "internalType": "bool",
          "name": "",
          "type": "bool"
        }
      ],
      "stateMutability": "nonpayable",
      "type": "function"
    },
    {
      "inputs": [
        {
          "internalType": "string",
          "name": "name",
          "type": "string"
        },
        {
          "internalType": "string",
          "name": "symbol",
          "type": "string"
        }
      ],
      "name": "initialize",
      "outputs": [],
      "stateMutability": "nonpayable",
      "type": "function"
    },
    {
      "inputs": [
        {
          "internalType": "contract IERC777Upgradeable",
          "name": "noriAddress",
          "type": "address"
        }
      ],
      "name": "initialize",
      "outputs": [],
      "stateMutability": "nonpayable",
      "type": "function"
    },
    {
      "inputs": [
        {
          "internalType": "address",
          "name": "operator",
          "type": "address"
        },
        {
          "internalType": "address",
          "name": "tokenHolder",
          "type": "address"
        }
      ],
      "name": "isOperatorFor",
      "outputs": [
        {
          "internalType": "bool",
          "name": "",
          "type": "bool"
        }
      ],
      "stateMutability": "view",
      "type": "function"
    },
    {
      "inputs": [
        {
          "internalType": "address",
          "name": "to",
          "type": "address"
        },
        {
          "internalType": "uint256",
          "name": "amount",
          "type": "uint256"
        }
      ],
      "name": "mint",
      "outputs": [],
      "stateMutability": "nonpayable",
      "type": "function"
    },
    {
      "inputs": [],
      "name": "name",
      "outputs": [
        {
          "internalType": "string",
          "name": "",
          "type": "string"
        }
      ],
      "stateMutability": "view",
      "type": "function"
    },
    {
      "inputs": [
        {
          "internalType": "address",
          "name": "account",
          "type": "address"
        },
        {
          "internalType": "uint256",
          "name": "amount",
          "type": "uint256"
        },
        {
          "internalType": "bytes",
          "name": "data",
          "type": "bytes"
        },
        {
          "internalType": "bytes",
          "name": "operatorData",
          "type": "bytes"
        }
      ],
      "name": "operatorBurn",
      "outputs": [],
      "stateMutability": "nonpayable",
      "type": "function"
    },
    {
      "inputs": [
        {
          "internalType": "address",
          "name": "sender",
          "type": "address"
        },
        {
          "internalType": "address",
          "name": "recipient",
          "type": "address"
        },
        {
          "internalType": "uint256",
          "name": "amount",
          "type": "uint256"
        },
        {
          "internalType": "bytes",
          "name": "data",
          "type": "bytes"
        },
        {
          "internalType": "bytes",
          "name": "operatorData",
          "type": "bytes"
        }
      ],
      "name": "operatorSend",
      "outputs": [],
      "stateMutability": "nonpayable",
      "type": "function"
    },
    {
      "inputs": [],
      "name": "pause",
      "outputs": [],
      "stateMutability": "nonpayable",
      "type": "function"
    },
    {
      "inputs": [],
      "name": "paused",
      "outputs": [
        {
          "internalType": "bool",
          "name": "",
          "type": "bool"
        }
      ],
      "stateMutability": "view",
      "type": "function"
    },
    {
      "inputs": [
        {
          "internalType": "address",
          "name": "account",
          "type": "address"
        }
      ],
      "name": "quantityRevokedFrom",
      "outputs": [
        {
          "internalType": "uint256",
          "name": "",
          "type": "uint256"
        }
      ],
      "stateMutability": "view",
      "type": "function"
    },
    {
      "inputs": [
        {
          "internalType": "bytes32",
          "name": "role",
          "type": "bytes32"
        },
        {
          "internalType": "address",
          "name": "account",
          "type": "address"
        }
      ],
      "name": "renounceRole",
      "outputs": [],
      "stateMutability": "nonpayable",
      "type": "function"
    },
    {
      "inputs": [
        {
          "internalType": "address",
          "name": "operator",
          "type": "address"
        }
      ],
      "name": "revokeOperator",
      "outputs": [],
      "stateMutability": "nonpayable",
      "type": "function"
    },
    {
      "inputs": [
        {
          "internalType": "bytes32",
          "name": "role",
          "type": "bytes32"
        },
        {
          "internalType": "address",
          "name": "account",
          "type": "address"
        }
      ],
      "name": "revokeRole",
      "outputs": [],
      "stateMutability": "nonpayable",
      "type": "function"
    },
    {
      "inputs": [
        {
          "internalType": "uint256",
          "name": "atTime",
          "type": "uint256"
        },
        {
          "internalType": "address",
          "name": "from",
          "type": "address"
        },
        {
          "internalType": "address",
          "name": "to",
          "type": "address"
        }
      ],
      "name": "revokeUnvestedTokens",
      "outputs": [],
      "stateMutability": "nonpayable",
      "type": "function"
    },
    {
      "inputs": [
        {
          "internalType": "address",
          "name": "recipient",
          "type": "address"
        },
        {
          "internalType": "uint256",
          "name": "amount",
          "type": "uint256"
        },
        {
          "internalType": "bytes",
          "name": "data",
          "type": "bytes"
        }
      ],
      "name": "send",
      "outputs": [],
      "stateMutability": "nonpayable",
      "type": "function"
    },
    {
      "inputs": [
        {
          "internalType": "bytes4",
          "name": "interfaceId",
          "type": "bytes4"
        }
      ],
      "name": "supportsInterface",
      "outputs": [
        {
          "internalType": "bool",
          "name": "",
          "type": "bool"
        }
      ],
      "stateMutability": "view",
      "type": "function"
    },
    {
      "inputs": [],
      "name": "symbol",
      "outputs": [
        {
          "internalType": "string",
          "name": "",
          "type": "string"
        }
      ],
      "stateMutability": "view",
      "type": "function"
    },
    {
      "inputs": [
        {
          "internalType": "address",
          "name": "",
          "type": "address"
        },
        {
          "internalType": "address",
          "name": "",
          "type": "address"
        },
        {
          "internalType": "address",
          "name": "",
          "type": "address"
        },
        {
          "internalType": "uint256",
          "name": "amount",
          "type": "uint256"
        },
        {
          "internalType": "bytes",
          "name": "userData",
          "type": "bytes"
        },
        {
          "internalType": "bytes",
          "name": "operatorData",
          "type": "bytes"
        }
      ],
      "name": "tokensReceived",
      "outputs": [],
      "stateMutability": "nonpayable",
      "type": "function"
    },
    {
      "inputs": [],
      "name": "totalSupply",
      "outputs": [
        {
          "internalType": "uint256",
          "name": "",
          "type": "uint256"
        }
      ],
      "stateMutability": "view",
      "type": "function"
    },
    {
      "inputs": [
        {
          "internalType": "address",
          "name": "recipient",
          "type": "address"
        },
        {
          "internalType": "uint256",
          "name": "amount",
          "type": "uint256"
        }
      ],
      "name": "transfer",
      "outputs": [
        {
          "internalType": "bool",
          "name": "",
          "type": "bool"
        }
      ],
      "stateMutability": "nonpayable",
      "type": "function"
    },
    {
      "inputs": [
        {
          "internalType": "address",
          "name": "holder",
          "type": "address"
        },
        {
          "internalType": "address",
          "name": "recipient",
          "type": "address"
        },
        {
          "internalType": "uint256",
          "name": "amount",
          "type": "uint256"
        }
      ],
      "name": "transferFrom",
      "outputs": [
        {
          "internalType": "bool",
          "name": "",
          "type": "bool"
        }
      ],
      "stateMutability": "nonpayable",
      "type": "function"
    },
    {
      "inputs": [
        {
          "internalType": "address",
          "name": "account",
          "type": "address"
        }
      ],
      "name": "unlockedBalanceOf",
      "outputs": [
        {
          "internalType": "uint256",
          "name": "",
          "type": "uint256"
        }
      ],
      "stateMutability": "view",
      "type": "function"
    },
    {
      "inputs": [],
      "name": "unpause",
      "outputs": [],
      "stateMutability": "nonpayable",
      "type": "function"
    },
    {
      "inputs": [
        {
          "internalType": "address",
          "name": "account",
          "type": "address"
        }
      ],
      "name": "vestedBalanceOf",
      "outputs": [
        {
          "internalType": "uint256",
          "name": "",
          "type": "uint256"
        }
      ],
      "stateMutability": "view",
      "type": "function"
    },
    {
      "inputs": [
        {
          "internalType": "address",
          "name": "account",
          "type": "address"
        },
        {
          "internalType": "uint256",
          "name": "amount",
          "type": "uint256"
        }
      ],
      "name": "withdrawTo",
      "outputs": [
        {
          "internalType": "bool",
          "name": "",
          "type": "bool"
        }
      ],
      "stateMutability": "nonpayable",
      "type": "function"
    }
  ],
  "bytecode": "0x608060405234801561001057600080fd5b5061464e806100206000396000f3fe608060405234801561001057600080fd5b506004361061029f5760003560e01c806379cc679011610167578063a9059cbb116100ce578063d95b637111610087578063d95b6371146105e3578063dd62ed3e146105f6578063e63ab1e914610609578063fad8b32a1461061e578063fc673c4f14610631578063fe9d93031461064457600080fd5b8063a9059cbb14610550578063bf31dbf414610563578063c4d66de814610583578063ca15c87314610596578063d5391393146105a9578063d547741f146105d057600080fd5b806395d89b411161012057806395d89b41146104f45780639bd9bbc6146104fc5780639c9e4cc51461050f5780639e3f3cac14610522578063a217fddf14610535578063a457c2d71461053d57600080fd5b806379cc6790146104755780638456cb591461048857806384955c88146104905780639010d07c146104a357806391d14854146104ce578063959b8c3f146104e157600080fd5b8063313ce5671161020b5780634cd88b76116101c45780634cd88b7614610414578063556f0dc7146104275780635c975abb1461042e57806362ad1b831461043a578063633d9be01461044d57806370a082311461046257600080fd5b8063313ce567146103b657806336568abe146103c557806339509351146103d85780633f4ba83a146103eb57806340c10f19146103f357806342966c681461040657600080fd5b806318160ddd1161025d57806318160ddd1461033f578063205c28781461034757806323b872dd1461035a578063248a9ca31461036d578063271c6e1a146103905780632f2ff15d146103a357600080fd5b806223de29146102a457806301ffc9a7146102b957806306e48538146102e157806306fdde03146102f6578063095ea7b31461030b5780630e2d1a2a1461031e575b600080fd5b6102b76102b23660046139f9565b610652565b005b6102cc6102c7366004613aaa565b6106dd565b60405190151581526020015b60405180910390f35b6102e9610708565b6040516102d89190613ad4565b6102fe61076a565b6040516102d89190613b79565b6102cc610319366004613b8c565b610779565b61033161032c366004613bb8565b61078c565b6040519081526020016102d8565b610331610798565b6102cc610355366004613b8c565b6107a3565b6102cc610368366004613bd5565b6108c0565b61033161037b366004613c16565b60009081526065602052604090206001015490565b6102b761039e366004613c2f565b6108d5565b6102b76103b1366004613cae565b610997565b604051601281526020016102d8565b6102b76103d3366004613cae565b6109c2565b6102cc6103e6366004613b8c565b610a40565b6102b7610a85565b6102b7610401366004613b8c565b610b19565b6102b761029f366004613c16565b6102b7610422366004613dab565b610bb8565b6001610331565b61015f5460ff166102cc565b6102b7610448366004613e0f565b610c35565b6103316000805160206145b983398151915281565b610331610470366004613bb8565b610c71565b6102b7610483366004613b8c565b610c8f565b6102b7610d10565b61033161049e366004613bb8565b610da2565b6104b66104b1366004613ea2565b610dae565b6040516001600160a01b0390911681526020016102d8565b6102cc6104dc366004613cae565b610dc6565b6102b76104ef366004613bb8565b610df1565b6102fe610e21565b6102b761050a366004613ec4565b610e2b565b6102b761051d366004613f1d565b610e49565b610331610530366004613bb8565b610e97565b610331600081565b6102cc61054b366004613b8c565b610ec4565b6102cc61055e366004613b8c565b610efa565b610576610571366004613bb8565b610f06565b6040516102d89190613f5f565b6102b7610591366004613bb8565b611048565b6103316105a4366004613c16565b6112b0565b6103317f9f2df0fed2c77648de5860a4cc508cd0818c85b8b8a1ab4ceeef8d981c8956a681565b6102b76105de366004613cae565b6112c7565b6102cc6105f1366004614002565b6112ed565b610331610604366004614002565b61138e565b6103316000805160206145d983398151915281565b6102b761062c366004613bb8565b6113bb565b6102b761063f366004614030565b6114d7565b6102b761029f3660046140b0565b6101f6546001600160a01b031633146106c55760405162461bcd60e51b815260206004820152602a60248201527f6c4e4f52493a205468697320636f6e74726163742063616e206f6e6c792072656044820152696365697665204e4f524960b01b60648201526084015b60405180910390fd5b6106d28585858585611509565b505050505050505050565b60006001600160e01b03198216635a05180f60e01b14806107025750610702826115eb565b92915050565b606060cd80548060200260200160405190810160405280929190818152602001828054801561076057602002820191906000526020600020905b81546001600160a01b03168152600190910190602001808311610742575b5050505050905090565b6060610774611620565b905090565b600061078583836116a9565b9392505050565b600061070242836116c1565b600061077460ca5490565b6001600160a01b03821660009081526101f5602052604081206107e633846040518060200160405280600081525060405180602001604052806000815250611793565b6101f654604051634decdde360e11b81526001600160a01b03868116600483015260248201869052606060448301526000606483015290911690639bd9bbc690608401600060405180830381600087803b15801561084357600080fd5b505af1158015610857573d6000803e3d6000fd5b505050508281600b01600082825461086f9190614103565b9091555050604080516001600160a01b0386168152602081018590527f896e034966eaaf1adc54acc0f257056febbd300c9e47182cf761982cf1f5e430910160405180910390a15060019392505050565b60006108cd848484611943565b949350505050565b61015f5460ff16156108f95760405162461bcd60e51b81526004016106bc9061411b565b6000805160206145b98339815191526109128133611b05565b604080516001600160a01b038d1660208201529081018b9052606081018a90526080810189905260a0810188905260c0810187905260e081018690526101008101859052610120810184905261014081018390526000906101600160405160208183030381529060405290506109888d82611b69565b50505050505050505050505050565b6000828152606560205260409020600101546109b38133611b05565b6109bd8383611dab565b505050565b6001600160a01b0381163314610a325760405162461bcd60e51b815260206004820152602f60248201527f416363657373436f6e74726f6c3a2063616e206f6e6c792072656e6f756e636560448201526e103937b632b9903337b91039b2b63360891b60648201526084016106bc565b610a3c8282611dbf565b5050565b33600081815260fc602090815260408083206001600160a01b03871684529091528120549091610a7c918590610a77908690614103565b611dd3565b50600192915050565b610a9d6000805160206145d983398151915233610dc6565b610b0f5760405162461bcd60e51b815260206004820152603960248201527f45524332305072657365744d696e7465725061757365723a206d75737420686160448201527f76652070617573657220726f6c6520746f20756e70617573650000000000000060648201526084016106bc565b610b17611e02565b565b610b437f9f2df0fed2c77648de5860a4cc508cd0818c85b8b8a1ab4ceeef8d981c8956a633610dc6565b610bae5760405162461bcd60e51b815260206004820152603660248201527f45524332305072657365744d696e7465725061757365723a206d7573742068616044820152751d99481b5a5b9d195c881c9bdb19481d1bc81b5a5b9d60521b60648201526084016106bc565b610a3c8282611e97565b600054610100900460ff16610bd35760005460ff1615610bd7565b303b155b610bf35760405162461bcd60e51b81526004016106bc90614145565b600054610100900460ff16158015610c15576000805461ffff19166101011790555b610c1f8383611f70565b80156109bd576000805461ff0019169055505050565b610c3f33866112ed565b610c5b5760405162461bcd60e51b81526004016106bc90614193565b610c6a85858585856001611fe3565b5050505050565b6001600160a01b038116600090815260c96020526040812054610702565b6000610c9b833361138e565b905081811015610cf95760405162461bcd60e51b8152602060048201526024808201527f45524332303a206275726e20616d6f756e74206578636565647320616c6c6f77604482015263616e636560e01b60648201526084016106bc565b610d068333848403611dd3565b6109bd83836120cf565b610d286000805160206145d983398151915233610dc6565b610d9a5760405162461bcd60e51b815260206004820152603760248201527f45524332305072657365744d696e7465725061757365723a206d75737420686160448201527f76652070617573657220726f6c6520746f20706175736500000000000000000060648201526084016106bc565b610b17612217565b60006107024283612271565b6000828152609760205260408120610785908361233a565b60009182526065602090815260408084206001600160a01b0393909316845291905290205460ff1690565b61015f5460ff1615610e155760405162461bcd60e51b81526004016106bc9061411b565b610e1e81612346565b50565b6060610774612464565b6109bd33848484604051806020016040528060008152506001611fe3565b6000805160206145b9833981519152610e628133611b05565b61015f5460ff1615610e865760405162461bcd60e51b81526004016106bc9061411b565b610e91848484612473565b50505050565b6001600160a01b03811660009081526101f560205260408120600a810154600c82015461078591906141df565b6000610ed361015f5460ff1690565b15610ef05760405162461bcd60e51b81526004016106bc9061411b565b6107858383610ec4565b60006107858383612653565b610f7a604051806101a001604052806000815260200160006001600160a01b0316815260200160008152602001600081526020016000815260200160008152602001600081526020016000815260200160008152602001600081526020016000815260200160008152602001600081525090565b506001600160a01b031660008181526101f56020908152604080832081516101a081018352600a82015481528084019590955260058101548583015260018082015460608701526006820154608087015284805260088201808552838620805460a0890152828752818652848720805460c08a01528780526003850180885286892085015460e08b01528489528752948720830154610100890152820154610120880152948190529390925290910154610140830152600b810154610160830152600c015461018082015290565b600054610100900460ff166110635760005460ff1615611067565b303b155b6110835760405162461bcd60e51b81526004016106bc90614145565b600054610100900460ff161580156110a5576000805461ffff19166101011790555b6040805160018082528183019092526000916020808301908036833701905050905033816000815181106110db576110db6141f6565b60200260200101906001600160a01b031690816001600160a01b031681525050611103612706565b61110b612706565b611113612706565b61111b612706565b611123612706565b61112b61272d565b611133612706565b61117d6040518060400160405280600b81526020016a4c6f636b6564204e4f524960a81b815250604051806040016040528060058152602001646c4e4f524960d81b815250612761565b6111c86040518060400160405280600b81526020016a4c6f636b6564204e4f524960a81b815250604051806040016040528060058152602001646c4e4f524960d81b815250836127d5565b6111e06000805160206145b983398151915233610997565b6101f680546001600160a01b03199081166001600160a01b038616179091556101f78054731820a4b7618bde71dce8cdc73aab6c95905fad249216821790556040516329965a1d60e01b815230600482018190527fb281fc8c12954d22544db45de3159a39272895b169a852b314f9cc762e44c53b602483015260448201526329965a1d90606401600060405180830381600087803b15801561128257600080fd5b505af1158015611296573d6000803e3d6000fd5b50505050508015610a3c576000805461ff00191690555050565b6000818152609760205260408120610702906129bf565b6000828152606560205260409020600101546112e38133611b05565b6109bd8383611dbf565b6000816001600160a01b0316836001600160a01b0316148061135857506001600160a01b038316600090815260ce602052604090205460ff16801561135857506001600160a01b03808316600090815260d0602090815260408083209387168352929052205460ff16155b806107855750506001600160a01b03908116600090815260cf602090815260408083209490931682529290925290205460ff1690565b6001600160a01b03808316600090815260d160209081526040808320938516835292905290812054610785565b6001600160a01b03811633141561141e5760405162461bcd60e51b815260206004820152602160248201527f4552433737373a207265766f6b696e672073656c66206173206f70657261746f6044820152603960f91b60648201526084016106bc565b6001600160a01b038116600090815260ce602052604090205460ff16156114725733600090815260d0602090815260408083206001600160a01b03851684529091529020805460ff1916600117905561149e565b33600090815260cf602090815260408083206001600160a01b03851684529091529020805460ff191690555b60405133906001600160a01b038316907f50546e66e5f44d728365dc3908c63bc5cfeeab470722c1677e3073a6ac294aa190600090a350565b6114e133856112ed565b6114fd5760405162461bcd60e51b81526004016106bc90614193565b610e9184848484611793565b6000806115188587018761420c565b602081015190915015611565576115658787878080601f016020809104026020016040519081016040528093929190818152602001838380828437600092019190915250611b6992505050565b6115de81600001518888888080601f01602080910402602001604051908101604052809392919081815260200183838082843760009201919091525050604080516020601f8c018190048102820181019092528a815292508a91508990819084018382808284376000920191909152506129c992505050565b5060019695505050505050565b60006001600160e01b03198216637965db0b60e01b148061070257506301ffc9a760e01b6001600160e01b0319831614610702565b606060cb805461162f90614264565b80601f016020809104026020016040519081016040528092919081815260200182805461165b90614264565b80156107605780601f1061167d57610100808354040283529160200191610760565b820191906000526020600020905b81548152906001019060200180831161168b57509395945050505050565b6000336116b7818585611dd3565b5060019392505050565b6001600160a01b03811660008181526101f5602052604080822090516370a0823160e01b815260048101939093529091829030906370a0823190602401602060405180830381865afa15801561171b573d6000803e3d6000fd5b505050506040513d601f19601f8201168201806040525081019061173f919061429f565b600d83015490915060ff16156108cd5781541561177657600b82015461176583876129d7565b61176f91906141df565b90506108cd565b81600b015482600a015461178a91906141df565b95945050505050565b6001600160a01b0384166117f45760405162461bcd60e51b815260206004820152602260248201527f4552433737373a206275726e2066726f6d20746865207a65726f206164647265604482015261737360f01b60648201526084016106bc565b33611804818660008787876129f7565b6118118186600087612b1e565b6001600160a01b038516600090815260c96020526040902054848110156118865760405162461bcd60e51b815260206004820152602360248201527f4552433737373a206275726e20616d6f756e7420657863656564732062616c616044820152626e636560e81b60648201526084016106bc565b6001600160a01b038616600090815260c960205260408120868303905560ca80548792906118b59084906141df565b92505081905550856001600160a01b0316826001600160a01b03167fa78a9be3a7b862d26933ad85fb11d80ef66b8f972d7cbba06621d583943a4098878787604051611903939291906142b8565b60405180910390a36040518581526000906001600160a01b038816906000805160206145f9833981519152906020015b60405180910390a3505050505050565b60006001600160a01b03831661196b5760405162461bcd60e51b81526004016106bc906142ed565b6001600160a01b0384166119d05760405162461bcd60e51b815260206004820152602660248201527f4552433737373a207472616e736665722066726f6d20746865207a65726f206160448201526564647265737360d01b60648201526084016106bc565b6000339050611a018186868660405180602001604052806000815250604051806020016040528060008152506129f7565b6001600160a01b03808616600090815260d160209081526040808320938516835292905220546000198114611a9f5783811015611a925760405162461bcd60e51b815260206004820152602960248201527f4552433737373a207472616e7366657220616d6f756e74206578636565647320604482015268616c6c6f77616e636560b81b60648201526084016106bc565b611a9f8683868403611dd3565b611acb828787876040518060200160405280600081525060405180602001604052806000815250612bff565b611af98287878760405180602001604052806000815250604051806020016040528060008152506000612d5f565b50600195945050505050565b611b0f8282610dc6565b610a3c57611b27816001600160a01b03166014612f24565b611b32836020612f24565b604051602001611b43929190614331565b60408051601f198184030181529082905262461bcd60e51b82526106bc91600401613b79565b600081806020019051810190611b7f91906143b6565b80519091506001600160a01b0316611bd95760405162461bcd60e51b815260206004820181905260248201527f526563697069656e742063616e6e6f74206265207a65726f206164647265737360448201526064016106bc565b80516001600160a01b031660009081526101f56020908152604091829020600a8101869055600c8101869055600d8101805460ff19166001179055908301519183015190911015611cf9578161010001518260c00151101580611c4557508161012001518260e0015110155b611cb75760405162461bcd60e51b815260206004820152603c60248201527f6c4e4f52493a20556e6c6f636b20636c69666620616d6f756e74732063616e6e60448201527f6f7420657863656564207665737420636c69666620616d6f756e74730000000060648201526084016106bc565b600281018490556020820151815560408201516001820155608082015160c0830151611ce49183916130c0565b60a082015160e0830151611cf99183916130c0565b60078101849055602082015160058201908155606083015160068301556080830151610100840151611d2c9291906130c0565b60a0820151610120830151611d459160058401916130c0565b815160208084015160408086015160608088015183518b815295860194909452918401528201526001600160a01b03909116907f17161516b6ce34594617177a800b150a86ddee02c06993a73ef000a02367d1199060800160405180910390a250505050565b611db58282613295565b610a3c82826132b9565b611dc98282613295565b610a3c82826112c7565b61015f5460ff1615611df75760405162461bcd60e51b81526004016106bc9061411b565b6109bd8383836132db565b61015f5460ff16611e4c5760405162461bcd60e51b815260206004820152601460248201527314185d5cd8589b194e881b9bdd081c185d5cd95960621b60448201526064016106bc565b61015f805460ff191690557f5db9ee0a495bf2e6ff9c91a7834c1ba4fdd244a5e8aa4e537bd38aeae4b073aa335b6040516001600160a01b03909116815260200160405180910390a1565b6001600160a01b038216611eed5760405162461bcd60e51b815260206004820152601f60248201527f45524332303a206d696e7420746f20746865207a65726f20616464726573730060448201526064016106bc565b611ef960008383613402565b8060fd6000828254611f0b9190614103565b90915550506001600160a01b038216600090815260fb602052604081208054839290611f38908490614103565b90915550506040518181526001600160a01b038316906000906000805160206145f98339815191529060200160405180910390a35050565b600054610100900460ff16611f975760405162461bcd60e51b81526004016106bc90614444565b611f9f612706565b611fa7612706565b611faf612706565b611fb7612706565b611fc1828261340d565b611fc9612706565b611fd161272d565b611fd9612706565b610a3c8282612761565b6001600160a01b0386166120445760405162461bcd60e51b815260206004820152602260248201527f4552433737373a2073656e642066726f6d20746865207a65726f206164647265604482015261737360f01b60648201526084016106bc565b6001600160a01b03851661209a5760405162461bcd60e51b815260206004820181905260248201527f4552433737373a2073656e6420746f20746865207a65726f206164647265737360448201526064016106bc565b336120a98188888888886129f7565b6120b7818888888888612bff565b6120c681888888888888612d5f565b50505050505050565b6001600160a01b03821661212f5760405162461bcd60e51b815260206004820152602160248201527f45524332303a206275726e2066726f6d20746865207a65726f206164647265736044820152607360f81b60648201526084016106bc565b61213b82600083613402565b6001600160a01b038216600090815260fb6020526040902054818110156121af5760405162461bcd60e51b815260206004820152602260248201527f45524332303a206275726e20616d6f756e7420657863656564732062616c616e604482015261636560f01b60648201526084016106bc565b6001600160a01b038316600090815260fb60205260408120838303905560fd80548492906121de9084906141df565b90915550506040518281526000906001600160a01b038516906000805160206145f98339815191529060200160405180910390a3505050565b61015f5460ff161561223b5760405162461bcd60e51b81526004016106bc9061411b565b61015f805460ff191660011790557f62e78cea01bee320cd4e420270b5ea74000d11b0c9f74754ebdbfc544b05a258611e7a3390565b6001600160a01b03811660008181526101f5602052604080822090516370a0823160e01b815260048101939093529091829030906370a0823190602401602060405180830381865afa1580156122cb573d6000803e3d6000fd5b505050506040513d601f19601f820116820180604052508101906122ef919061429f565b600d83015490915060ff16156108cd57600b82015461233061232661231485896129d7565b612321600587018a6129d7565b61345b565b84600a015461345b565b61178a91906141df565b60006107858383613471565b336001600160a01b03821614156123ab5760405162461bcd60e51b8152602060048201526024808201527f4552433737373a20617574686f72697a696e672073656c66206173206f70657260448201526330ba37b960e11b60648201526084016106bc565b6001600160a01b038116600090815260ce602052604090205460ff16156123fc5733600090815260d0602090815260408083206001600160a01b03851684529091529020805460ff1916905561242b565b33600090815260cf602090815260408083206001600160a01b03851684529091529020805460ff191660011790555b60405133906001600160a01b038316907ff4caeb2d6ca8932a215a353d0703c326ec2d81fc68170f320eb2ab49e9df61f990600090a350565b606060cc805461162f90614264565b6001600160a01b03821660009081526101f560205260409020600d81015460ff166124d95760405162461bcd60e51b81526020600482015260166024820152756c4e6f72693a206e6f206772616e742065786973747360501b60448201526064016106bc565b60006124e585856116c1565b905081600a0154811061253a5760405162461bcd60e51b815260206004820152601c60248201527f6c4e4f52493a20746f6b656e7320616c7265616479207665737465640000000060448201526064016106bc565b60008183600a015461254c91906141df565b600a840183905560028401839055600184018790556101f654604051634decdde360e11b81526001600160a01b038781166004830152602482018490526060604483015260006064830152929350911690639bd9bbc690608401600060405180830381600087803b1580156125c057600080fd5b505af11580156125d4573d6000803e3d6000fd5b5050505061260285826040518060200160405280600081525060405180602001604052806000815250611793565b604080518781526001600160a01b03871660208201529081018290527f0bbe3f9ae306d75ae6df08cd4a79ac5c6eae93ffae7d7e52f2859bf27592519d9060600160405180910390a1505050505050565b60006001600160a01b03831661267b5760405162461bcd60e51b81526004016106bc906142ed565b60003390506126ac8182868660405180602001604052806000815250604051806020016040528060008152506129f7565b6126d8818286866040518060200160405280600081525060405180602001604052806000815250612bff565b6116b78182868660405180602001604052806000815250604051806020016040528060008152506000612d5f565b600054610100900460ff16610b175760405162461bcd60e51b81526004016106bc90614444565b600054610100900460ff166127545760405162461bcd60e51b81526004016106bc90614444565b61015f805460ff19169055565b600054610100900460ff166127885760405162461bcd60e51b81526004016106bc90614444565b61279360003361349b565b6127bd7f9f2df0fed2c77648de5860a4cc508cd0818c85b8b8a1ab4ceeef8d981c8956a63361349b565b610a3c6000805160206145d98339815191523361349b565b600054610100900460ff166127fc5760405162461bcd60e51b81526004016106bc90614444565b825161280f9060cb9060208601906138ad565b5081516128239060cc9060208501906138ad565b5080516128379060cd906020840190613931565b5060005b81518110156128a057600160ce600084848151811061285c5761285c6141f6565b6020908102919091018101516001600160a01b03168252810191909152604001600020805460ff1916911515919091179055806128988161448f565b91505061283b565b506040516329965a1d60e01b815230600482018190527fac7fbab5f54a3ca8194167523c6753bfeb96a445279294b6125b68cce217705460248301526044820152731820a4b7618bde71dce8cdc73aab6c95905fad24906329965a1d90606401600060405180830381600087803b15801561291a57600080fd5b505af115801561292e573d6000803e3d6000fd5b50506040516329965a1d60e01b815230600482018190527faea199e31a596269b42cdafd93407f14436db6e4cad65417994c2eb37381e05a60248301526044820152731820a4b7618bde71dce8cdc73aab6c95905fad2492506329965a1d9150606401600060405180830381600087803b1580156129ab57600080fd5b505af11580156120c6573d6000803e3d6000fd5b6000610702825490565b610e918484848460016134a5565b60006129e383836135d9565b6129ed84846136a7565b6107859190614103565b60405163555ddc6560e11b81526001600160a01b03861660048201527f29ddb589b1fb5fc7cf394961c1adf5f8c6454761adf795e67fe149f658abe8956024820152600090731820a4b7618bde71dce8cdc73aab6c95905fad249063aabbb8ca90604401602060405180830381865afa158015612a78573d6000803e3d6000fd5b505050506040513d601f19601f82011682018060405250810190612a9c91906144aa565b90506001600160a01b038116156120c657604051633ad5cbc160e11b81526001600160a01b038216906375ab978290612ae3908a908a908a908a908a908a906004016144c7565b600060405180830381600087803b158015612afd57600080fd5b505af1158015612b11573d6000803e3d6000fd5b5050505050505050505050565b61015f5460ff1615612b425760405162461bcd60e51b81526004016106bc9061411b565b6001600160a01b03831660008181526101f560205260409020600d0154901580159160ff16908290612b715750805b15612bec576000612b828133610dc6565b1590508015612bea576000612b9687610da2565b905080851115612be85760405162461bcd60e51b815260206004820152601b60248201527f6c4e4f52493a20696e73756666696369656e742062616c616e6365000000000060448201526064016106bc565b505b505b612bf7858585613402565b505050505050565b612c0b86868686612b1e565b6001600160a01b038516600090815260c9602052604090205483811015612c845760405162461bcd60e51b815260206004820152602760248201527f4552433737373a207472616e7366657220616d6f756e7420657863656564732060448201526662616c616e636560c81b60648201526084016106bc565b6001600160a01b03808716600090815260c96020526040808220878503905591871681529081208054869290612cbb908490614103565b92505081905550846001600160a01b0316866001600160a01b0316886001600160a01b03167f06b541ddaa720db2b10a4d0cdac39b8d360425fc073085fac19bc82614677987878787604051612d13939291906142b8565b60405180910390a4846001600160a01b0316866001600160a01b03166000805160206145f983398151915286604051612d4e91815260200190565b60405180910390a350505050505050565b60405163555ddc6560e11b81526001600160a01b03861660048201527fb281fc8c12954d22544db45de3159a39272895b169a852b314f9cc762e44c53b6024820152600090731820a4b7618bde71dce8cdc73aab6c95905fad249063aabbb8ca90604401602060405180830381865afa158015612de0573d6000803e3d6000fd5b505050506040513d601f19601f82011682018060405250810190612e0491906144aa565b90506001600160a01b03811615612e80576040516223de2960e01b81526001600160a01b038216906223de2990612e49908b908b908b908b908b908b906004016144c7565b600060405180830381600087803b158015612e6357600080fd5b505af1158015612e77573d6000803e3d6000fd5b50505050612f1a565b8115612f1a576001600160a01b0386163b15612f1a5760405162461bcd60e51b815260206004820152604d60248201527f4552433737373a20746f6b656e20726563697069656e7420636f6e747261637460448201527f20686173206e6f20696d706c656d656e74657220666f7220455243373737546f60648201526c1ad95b9cd49958da5c1a595b9d609a1b608482015260a4016106bc565b5050505050505050565b60606000612f33836002614521565b612f3e906002614103565b67ffffffffffffffff811115612f5657612f56613cde565b6040519080825280601f01601f191660200182016040528015612f80576020820181803683370190505b509050600360fc1b81600081518110612f9b57612f9b6141f6565b60200101906001600160f81b031916908160001a905350600f60fb1b81600181518110612fca57612fca6141f6565b60200101906001600160f81b031916908160001a9053506000612fee846002614521565b612ff9906001614103565b90505b6001811115613071576f181899199a1a9b1b9c1cb0b131b232b360811b85600f166010811061302d5761302d6141f6565b1a60f81b828281518110613043576130436141f6565b60200101906001600160f81b031916908160001a90535060049490941c9361306a81614540565b9050612ffc565b5083156107855760405162461bcd60e51b815260206004820181905260248201527f537472696e67733a20686578206c656e67746820696e73756666696369656e7460448201526064016106bc565b600483015461311f57825482101561311a5760405162461bcd60e51b815260206004820152601b60248201527f436c696666206265666f7265207363686564756c65207374617274000000000060448201526064016106bc565b613197565b8260030160006001856004015461313691906141df565b8152602001908152602001600020600001548210156131975760405162461bcd60e51b815260206004820152601860248201527f436c69666673206e6f74206368726f6e6f6c6f676963616c000000000000000060448201526064016106bc565b82600101548211156131eb5760405162461bcd60e51b815260206004820181905260248201527f436c696666732063616e6e6f7420656e64206166746572207363686564756c6560448201526064016106bc565b8260020154816131fa85613711565b6132049190614103565b11156132525760405162461bcd60e51b815260206004820152601a60248201527f636c69666620616d6f756e74732065786365656420746f74616c00000000000060448201526064016106bc565b6004830180546000908152600385016020526040808220859055825482528120600190810184905582549092919061328b908490614103565b9091555050505050565b61015f5460ff1615610a3c5760405162461bcd60e51b81526004016106bc9061411b565b6132c3828261375c565b60008281526097602052604090206109bd90826137e2565b6001600160a01b03831661333f5760405162461bcd60e51b815260206004820152602560248201527f4552433737373a20617070726f76652066726f6d20746865207a65726f206164604482015264647265737360d81b60648201526084016106bc565b6001600160a01b0382166133a15760405162461bcd60e51b815260206004820152602360248201527f4552433737373a20617070726f766520746f20746865207a65726f206164647260448201526265737360e81b60648201526084016106bc565b6001600160a01b03838116600081815260d1602090815260408083209487168084529482529182902085905590518481527f8c5be1e5ebec7d5bd14f71427d1e84f3dd0314c0f7b2291e5b200ac8c7c3b925910160405180910390a3505050565b6109bd8383836137f7565b600054610100900460ff166134345760405162461bcd60e51b81526004016106bc90614444565b81516134479060fe9060208501906138ad565b5080516109bd9060ff9060208401906138ad565b600081831061346a5781610785565b5090919050565b6000826000018281548110613488576134886141f6565b9060005260206000200154905092915050565b610a3c8282611dab565b6001600160a01b0385166134fb5760405162461bcd60e51b815260206004820181905260248201527f4552433737373a206d696e7420746f20746865207a65726f206164647265737360448201526064016106bc565b336135098160008888612b1e565b8460ca600082825461351b9190614103565b90915550506001600160a01b038616600090815260c9602052604081208054879290613548908490614103565b9091555061355e90508160008888888888612d5f565b856001600160a01b0316816001600160a01b03167f2fe5be0146f74c5bce36c0b80911af6c7d86ff27e89d5cfa61fc681327954e5d8787876040516135a5939291906142b8565b60405180910390a36040518581526001600160a01b038716906000906000805160206145f983398151915290602001611933565b6000806135e584613711565b84600201541061360a576135f884613711565b846002015461360791906141df565b90505b8360010154831061361c579050610702565b8354600485015415613654578460030160006001876004015461363f91906141df565b81526020019081526020016000206000015490505b600081866001015461366691906141df565b905060006136748387614557565b90506000811315613699578161368a8286614521565b6136949190614596565b61369c565b60005b979650505050505050565b600080805b846004015481101561370257600081815260038601602052604090205484106136f05760008181526003860160205260409020600101546136ed9083614103565b91505b806136fa8161448f565b9150506136ac565b506108cd84600201548261345b565b60008060005b83600401548110156137555760008181526003850160205260409020600101546137419083614103565b91508061374d8161448f565b915050613717565b5092915050565b6137668282610dc6565b610a3c5760008281526065602090815260408083206001600160a01b03851684529091529020805460ff1916600117905561379e3390565b6001600160a01b0316816001600160a01b0316837f2f8788117e7eff1d82e926ec794901d17c78024a50270940304540a733656f0d60405160405180910390a45050565b6000610785836001600160a01b03841661385e565b61015f5460ff16156109bd5760405162461bcd60e51b815260206004820152602a60248201527f45524332305061757361626c653a20746f6b656e207472616e736665722077686044820152691a5b19481c185d5cd95960b21b60648201526084016106bc565b60008181526001830160205260408120546138a557508154600181810184556000848152602080822090930184905584548482528286019093526040902091909155610702565b506000610702565b8280546138b990614264565b90600052602060002090601f0160209004810192826138db5760008555613921565b82601f106138f457805160ff1916838001178555613921565b82800160010185558215613921579182015b82811115613921578251825591602001919060010190613906565b5061392d929150613986565b5090565b828054828255906000526020600020908101928215613921579160200282015b8281111561392157825182546001600160a01b0319166001600160a01b03909116178255602090920191600190910190613951565b5b8082111561392d5760008155600101613987565b6001600160a01b0381168114610e1e57600080fd5b60008083601f8401126139c257600080fd5b50813567ffffffffffffffff8111156139da57600080fd5b6020830191508360208285010111156139f257600080fd5b9250929050565b60008060008060008060008060c0898b031215613a1557600080fd5b8835613a208161399b565b97506020890135613a308161399b565b96506040890135613a408161399b565b955060608901359450608089013567ffffffffffffffff80821115613a6457600080fd5b613a708c838d016139b0565b909650945060a08b0135915080821115613a8957600080fd5b50613a968b828c016139b0565b999c989b5096995094979396929594505050565b600060208284031215613abc57600080fd5b81356001600160e01b03198116811461078557600080fd5b6020808252825182820181905260009190848201906040850190845b81811015613b155783516001600160a01b031683529284019291840191600101613af0565b50909695505050505050565b60005b83811015613b3c578181015183820152602001613b24565b83811115610e915750506000910152565b60008151808452613b65816020860160208601613b21565b601f01601f19169290920160200192915050565b6020815260006107856020830184613b4d565b60008060408385031215613b9f57600080fd5b8235613baa8161399b565b946020939093013593505050565b600060208284031215613bca57600080fd5b81356107858161399b565b600080600060608486031215613bea57600080fd5b8335613bf58161399b565b92506020840135613c058161399b565b929592945050506040919091013590565b600060208284031215613c2857600080fd5b5035919050565b60008060008060008060008060008060006101608c8e031215613c5157600080fd5b8b359a5060208c0135613c638161399b565b9a9d9a9c505050506040890135986060810135986080820135985060a0820135975060c0820135965060e0820135955061010082013594506101208201359350610140909101359150565b60008060408385031215613cc157600080fd5b823591506020830135613cd38161399b565b809150509250929050565b634e487b7160e01b600052604160045260246000fd5b604051610140810167ffffffffffffffff81118282101715613d1857613d18613cde565b60405290565b600082601f830112613d2f57600080fd5b813567ffffffffffffffff80821115613d4a57613d4a613cde565b604051601f8301601f19908116603f01168101908282118183101715613d7257613d72613cde565b81604052838152866020858801011115613d8b57600080fd5b836020870160208301376000602085830101528094505050505092915050565b60008060408385031215613dbe57600080fd5b823567ffffffffffffffff80821115613dd657600080fd5b613de286838701613d1e565b93506020850135915080821115613df857600080fd5b50613e0585828601613d1e565b9150509250929050565b600080600080600060a08688031215613e2757600080fd5b8535613e328161399b565b94506020860135613e428161399b565b935060408601359250606086013567ffffffffffffffff80821115613e6657600080fd5b613e7289838a01613d1e565b93506080880135915080821115613e8857600080fd5b50613e9588828901613d1e565b9150509295509295909350565b60008060408385031215613eb557600080fd5b50508035926020909101359150565b600080600060608486031215613ed957600080fd5b8335613ee48161399b565b925060208401359150604084013567ffffffffffffffff811115613f0757600080fd5b613f1386828701613d1e565b9150509250925092565b600080600060608486031215613f3257600080fd5b833592506020840135613f448161399b565b91506040840135613f548161399b565b809150509250925092565b815181526020808301516101a0830191613f83908401826001600160a01b03169052565b5060408301516040830152606083015160608301526080830151608083015260a083015160a083015260c083015160c083015260e083015160e083015261010080840151818401525061012080840151818401525061014080840151818401525061016080840151818401525061018080840151818401525092915050565b6000806040838503121561401557600080fd5b82356140208161399b565b91506020830135613cd38161399b565b6000806000806080858703121561404657600080fd5b84356140518161399b565b935060208501359250604085013567ffffffffffffffff8082111561407557600080fd5b61408188838901613d1e565b9350606087013591508082111561409757600080fd5b506140a487828801613d1e565b91505092959194509250565b600080604083850312156140c357600080fd5b82359150602083013567ffffffffffffffff8111156140e157600080fd5b613e0585828601613d1e565b634e487b7160e01b600052601160045260246000fd5b60008219821115614116576141166140ed565b500190565b60208082526010908201526f14185d5cd8589b194e881c185d5cd95960821b604082015260600190565b6020808252602e908201527f496e697469616c697a61626c653a20636f6e747261637420697320616c72656160408201526d191e481a5b9a5d1a585b1a5e995960921b606082015260800190565b6020808252602c908201527f4552433737373a2063616c6c6572206973206e6f7420616e206f70657261746f60408201526b39103337b9103437b63232b960a11b606082015260800190565b6000828210156141f1576141f16140ed565b500390565b634e487b7160e01b600052603260045260246000fd5b60006040828403121561421e57600080fd5b6040516040810181811067ffffffffffffffff8211171561424157614241613cde565b604052823561424f8161399b565b81526020928301359281019290925250919050565b600181811c9082168061427857607f821691505b6020821081141561429957634e487b7160e01b600052602260045260246000fd5b50919050565b6000602082840312156142b157600080fd5b5051919050565b8381526060602082015260006142d16060830185613b4d565b82810360408401526142e38185613b4d565b9695505050505050565b60208082526024908201527f4552433737373a207472616e7366657220746f20746865207a65726f206164646040820152637265737360e01b606082015260800190565b7f416363657373436f6e74726f6c3a206163636f756e7420000000000000000000815260008351614369816017850160208801613b21565b7001034b99036b4b9b9b4b733903937b6329607d1b601791840191820152835161439a816028840160208801613b21565b01602801949350505050565b80516143b18161399b565b919050565b600061014082840312156143c957600080fd5b6143d1613cf4565b6143da836143a6565b81526020830151602082015260408301516040820152606083015160608201526080830151608082015260a083015160a082015260c083015160c082015260e083015160e08201526101008084015181830152506101208084015181830152508091505092915050565b6020808252602b908201527f496e697469616c697a61626c653a20636f6e7472616374206973206e6f74206960408201526a6e697469616c697a696e6760a81b606082015260800190565b60006000198214156144a3576144a36140ed565b5060010190565b6000602082840312156144bc57600080fd5b81516107858161399b565b6001600160a01b0387811682528681166020830152851660408201526060810184905260c06080820181905260009061450290830185613b4d565b82810360a08401526145148185613b4d565b9998505050505050505050565b600081600019048311821515161561453b5761453b6140ed565b500290565b60008161454f5761454f6140ed565b506000190190565b60008083128015600160ff1b850184121615614575576145756140ed565b6001600160ff1b0384018313811615614590576145906140ed565b50500390565b6000826145b357634e487b7160e01b600052601260045260246000fd5b50049056fea52f07bb8dc8df886598eb50edeaba2b8e45715237ed244354b60ea04d0390b865d7a28e3265b37a6474929f336521b332c1681b933f6cb9f3376673440d862addf252ad1be2c89b69c2b068fc378daa952ba7f163c4a11628f55a4df523b3efa264697066735822122031f9ba67a5ab2592a61ea40e4c2ab3c67869db923f20782a91b0ed2939ae4b1464736f6c634300080a0033",
  "linkReferences": {},
  "deployedLinkReferences": {}
}