{
  "_format": "hh-sol-artifact-1",
  "contractName": "Certificate",
  "sourceName": "contracts/Certificate.sol",
  "abi": [
    {
      "inputs": [],
      "name": "ForbiddenFunctionCall",
      "type": "error"
    },
    {
      "inputs": [],
      "name": "ForbiddenTransferAfterMinting",
      "type": "error"
    },
    {
      "anonymous": false,
      "inputs": [
        {
          "indexed": true,
          "internalType": "address",
          "name": "account",
          "type": "address"
        },
        {
          "indexed": true,
          "internalType": "address",
          "name": "operator",
          "type": "address"
        },
        {
          "indexed": false,
          "internalType": "bool",
          "name": "approved",
          "type": "bool"
        }
      ],
      "name": "ApprovalForAll",
      "type": "event"
    },
    {
      "anonymous": false,
      "inputs": [
        {
          "indexed": true,
          "internalType": "address",
          "name": "recipient",
          "type": "address"
        },
        {
          "indexed": true,
          "internalType": "uint256",
          "name": "certificateId",
          "type": "uint256"
        },
        {
          "indexed": false,
          "internalType": "uint256[]",
          "name": "removalIds",
          "type": "uint256[]"
        },
        {
          "indexed": false,
          "internalType": "uint256[]",
          "name": "amounts",
          "type": "uint256[]"
        }
      ],
      "name": "CertificateCreated",
      "type": "event"
    },
    {
      "anonymous": false,
      "inputs": [
        {
          "indexed": false,
          "internalType": "address",
          "name": "account",
          "type": "address"
        }
      ],
      "name": "Paused",
      "type": "event"
    },
    {
      "anonymous": false,
      "inputs": [
        {
          "indexed": true,
          "internalType": "bytes32",
          "name": "role",
          "type": "bytes32"
        },
        {
          "indexed": true,
          "internalType": "bytes32",
          "name": "previousAdminRole",
          "type": "bytes32"
        },
        {
          "indexed": true,
          "internalType": "bytes32",
          "name": "newAdminRole",
          "type": "bytes32"
        }
      ],
      "name": "RoleAdminChanged",
      "type": "event"
    },
    {
      "anonymous": false,
      "inputs": [
        {
          "indexed": true,
          "internalType": "bytes32",
          "name": "role",
          "type": "bytes32"
        },
        {
          "indexed": true,
          "internalType": "address",
          "name": "account",
          "type": "address"
        },
        {
          "indexed": true,
          "internalType": "address",
          "name": "sender",
          "type": "address"
        }
      ],
      "name": "RoleGranted",
      "type": "event"
    },
    {
      "anonymous": false,
      "inputs": [
        {
          "indexed": true,
          "internalType": "bytes32",
          "name": "role",
          "type": "bytes32"
        },
        {
          "indexed": true,
          "internalType": "address",
          "name": "account",
          "type": "address"
        },
        {
          "indexed": true,
          "internalType": "address",
          "name": "sender",
          "type": "address"
        }
      ],
      "name": "RoleRevoked",
      "type": "event"
    },
    {
      "anonymous": false,
      "inputs": [
        {
          "indexed": true,
          "internalType": "address",
          "name": "operator",
          "type": "address"
        },
        {
          "indexed": true,
          "internalType": "address",
          "name": "from",
          "type": "address"
        },
        {
          "indexed": true,
          "internalType": "address",
          "name": "to",
          "type": "address"
        },
        {
          "indexed": false,
          "internalType": "uint256[]",
          "name": "ids",
          "type": "uint256[]"
        },
        {
          "indexed": false,
          "internalType": "uint256[]",
          "name": "values",
          "type": "uint256[]"
        }
      ],
      "name": "TransferBatch",
      "type": "event"
    },
    {
      "anonymous": false,
      "inputs": [
        {
          "indexed": true,
          "internalType": "address",
          "name": "operator",
          "type": "address"
        },
        {
          "indexed": true,
          "internalType": "address",
          "name": "from",
          "type": "address"
        },
        {
          "indexed": true,
          "internalType": "address",
          "name": "to",
          "type": "address"
        },
        {
          "indexed": false,
          "internalType": "uint256",
          "name": "id",
          "type": "uint256"
        },
        {
          "indexed": false,
          "internalType": "uint256",
          "name": "value",
          "type": "uint256"
        }
      ],
      "name": "TransferSingle",
      "type": "event"
    },
    {
      "anonymous": false,
      "inputs": [
        {
          "indexed": false,
          "internalType": "string",
          "name": "value",
          "type": "string"
        },
        {
          "indexed": true,
          "internalType": "uint256",
          "name": "id",
          "type": "uint256"
        }
      ],
      "name": "URI",
      "type": "event"
    },
    {
      "anonymous": false,
      "inputs": [
        {
          "indexed": false,
          "internalType": "address",
          "name": "account",
          "type": "address"
        }
      ],
      "name": "Unpaused",
      "type": "event"
    },
    {
      "inputs": [],
      "name": "CERTIFICATE_OPERATOR_ROLE",
      "outputs": [
        {
          "internalType": "bytes32",
          "name": "",
          "type": "bytes32"
        }
      ],
      "stateMutability": "view",
      "type": "function"
    },
    {
      "inputs": [],
      "name": "DEFAULT_ADMIN_ROLE",
      "outputs": [
        {
          "internalType": "bytes32",
          "name": "",
          "type": "bytes32"
        }
      ],
      "stateMutability": "view",
      "type": "function"
    },
    {
      "inputs": [],
      "name": "MINTER_ROLE",
      "outputs": [
        {
          "internalType": "bytes32",
          "name": "",
          "type": "bytes32"
        }
      ],
      "stateMutability": "view",
      "type": "function"
    },
    {
      "inputs": [],
      "name": "PAUSER_ROLE",
      "outputs": [
        {
          "internalType": "bytes32",
          "name": "",
          "type": "bytes32"
        }
      ],
      "stateMutability": "view",
      "type": "function"
    },
    {
      "inputs": [
        {
          "internalType": "address",
          "name": "_minter",
          "type": "address"
        }
      ],
      "name": "addMinter",
      "outputs": [],
      "stateMutability": "nonpayable",
      "type": "function"
    },
    {
      "inputs": [
        {
          "internalType": "address",
          "name": "account",
          "type": "address"
        },
        {
          "internalType": "uint256",
          "name": "id",
          "type": "uint256"
        }
      ],
      "name": "balanceOf",
      "outputs": [
        {
          "internalType": "uint256",
          "name": "",
          "type": "uint256"
        }
      ],
      "stateMutability": "view",
      "type": "function"
    },
    {
      "inputs": [
        {
          "internalType": "address[]",
          "name": "accounts",
          "type": "address[]"
        },
        {
          "internalType": "uint256[]",
          "name": "ids",
          "type": "uint256[]"
        }
      ],
      "name": "balanceOfBatch",
      "outputs": [
        {
          "internalType": "uint256[]",
          "name": "",
          "type": "uint256[]"
        }
      ],
      "stateMutability": "view",
      "type": "function"
    },
    {
      "inputs": [
        {
          "internalType": "address",
          "name": "account",
          "type": "address"
        },
        {
          "internalType": "uint256",
          "name": "id",
          "type": "uint256"
        },
        {
          "internalType": "uint256",
          "name": "value",
          "type": "uint256"
        }
      ],
      "name": "burn",
      "outputs": [],
      "stateMutability": "nonpayable",
      "type": "function"
    },
    {
      "inputs": [
        {
          "internalType": "address",
          "name": "account",
          "type": "address"
        },
        {
          "internalType": "uint256[]",
          "name": "ids",
          "type": "uint256[]"
        },
        {
          "internalType": "uint256[]",
          "name": "values",
          "type": "uint256[]"
        }
      ],
      "name": "burnBatch",
      "outputs": [],
      "stateMutability": "nonpayable",
      "type": "function"
    },
    {
      "inputs": [
        {
          "internalType": "uint256",
          "name": "id",
          "type": "uint256"
        }
      ],
      "name": "exists",
      "outputs": [
        {
          "internalType": "bool",
          "name": "",
          "type": "bool"
        }
      ],
      "stateMutability": "view",
      "type": "function"
    },
    {
      "inputs": [
        {
          "internalType": "bytes32",
          "name": "role",
          "type": "bytes32"
        }
      ],
      "name": "getRoleAdmin",
      "outputs": [
        {
          "internalType": "bytes32",
          "name": "",
          "type": "bytes32"
        }
      ],
      "stateMutability": "view",
      "type": "function"
    },
    {
      "inputs": [
        {
          "internalType": "bytes32",
          "name": "role",
          "type": "bytes32"
        },
        {
          "internalType": "uint256",
          "name": "index",
          "type": "uint256"
        }
      ],
      "name": "getRoleMember",
      "outputs": [
        {
          "internalType": "address",
          "name": "",
          "type": "address"
        }
      ],
      "stateMutability": "view",
      "type": "function"
    },
    {
      "inputs": [
        {
          "internalType": "bytes32",
          "name": "role",
          "type": "bytes32"
        }
      ],
      "name": "getRoleMemberCount",
      "outputs": [
        {
          "internalType": "uint256",
          "name": "",
          "type": "uint256"
        }
      ],
      "stateMutability": "view",
      "type": "function"
    },
    {
      "inputs": [
        {
          "internalType": "bytes32",
          "name": "role",
          "type": "bytes32"
        },
        {
          "internalType": "address",
          "name": "account",
          "type": "address"
        }
      ],
      "name": "grantRole",
      "outputs": [],
      "stateMutability": "nonpayable",
      "type": "function"
    },
    {
      "inputs": [
        {
          "internalType": "bytes32",
          "name": "role",
          "type": "bytes32"
        },
        {
          "internalType": "address",
          "name": "account",
          "type": "address"
        }
      ],
      "name": "hasRole",
      "outputs": [
        {
          "internalType": "bool",
          "name": "",
          "type": "bool"
        }
      ],
      "stateMutability": "view",
      "type": "function"
    },
    {
      "inputs": [],
      "name": "initialize",
      "outputs": [],
      "stateMutability": "nonpayable",
      "type": "function"
    },
    {
      "inputs": [
        {
          "internalType": "string",
          "name": "uri",
          "type": "string"
        }
      ],
      "name": "initialize",
      "outputs": [],
      "stateMutability": "nonpayable",
      "type": "function"
    },
    {
      "inputs": [
        {
          "internalType": "address",
          "name": "account",
          "type": "address"
        },
        {
          "internalType": "address",
          "name": "operator",
          "type": "address"
        }
      ],
      "name": "isApprovedForAll",
      "outputs": [
        {
          "internalType": "bool",
          "name": "",
          "type": "bool"
        }
      ],
      "stateMutability": "view",
      "type": "function"
    },
    {
      "inputs": [
        {
          "internalType": "address",
          "name": "",
          "type": "address"
        },
        {
          "internalType": "uint256",
          "name": "",
          "type": "uint256"
        },
        {
          "internalType": "uint256",
          "name": "",
          "type": "uint256"
        },
        {
          "internalType": "bytes",
          "name": "",
          "type": "bytes"
        }
      ],
      "name": "mint",
      "outputs": [],
      "stateMutability": "pure",
      "type": "function"
    },
    {
      "inputs": [
        {
          "internalType": "address",
          "name": "to",
          "type": "address"
        },
        {
          "internalType": "uint256[]",
          "name": "removalIds",
          "type": "uint256[]"
        },
        {
          "internalType": "uint256[]",
          "name": "removalAmounts",
          "type": "uint256[]"
        },
        {
          "internalType": "bytes",
          "name": "data",
          "type": "bytes"
        }
      ],
      "name": "mintBatch",
      "outputs": [],
      "stateMutability": "nonpayable",
      "type": "function"
    },
    {
      "inputs": [],
      "name": "pause",
      "outputs": [],
      "stateMutability": "nonpayable",
      "type": "function"
    },
    {
      "inputs": [],
      "name": "paused",
      "outputs": [
        {
          "internalType": "bool",
          "name": "",
          "type": "bool"
        }
      ],
      "stateMutability": "view",
      "type": "function"
    },
    {
      "inputs": [
        {
          "internalType": "bytes32",
          "name": "role",
          "type": "bytes32"
        },
        {
          "internalType": "address",
          "name": "account",
          "type": "address"
        }
      ],
      "name": "renounceRole",
      "outputs": [],
      "stateMutability": "nonpayable",
      "type": "function"
    },
    {
      "inputs": [
        {
          "internalType": "bytes32",
          "name": "role",
          "type": "bytes32"
        },
        {
          "internalType": "address",
          "name": "account",
          "type": "address"
        }
      ],
      "name": "revokeRole",
      "outputs": [],
      "stateMutability": "nonpayable",
      "type": "function"
    },
    {
      "inputs": [
        {
          "internalType": "address",
          "name": "from",
          "type": "address"
        },
        {
          "internalType": "address",
          "name": "to",
          "type": "address"
        },
        {
          "internalType": "uint256[]",
          "name": "ids",
          "type": "uint256[]"
        },
        {
          "internalType": "uint256[]",
          "name": "amounts",
          "type": "uint256[]"
        },
        {
          "internalType": "bytes",
          "name": "data",
          "type": "bytes"
        }
      ],
      "name": "safeBatchTransferFrom",
      "outputs": [],
      "stateMutability": "nonpayable",
      "type": "function"
    },
    {
      "inputs": [
        {
          "internalType": "address",
          "name": "from",
          "type": "address"
        },
        {
          "internalType": "address",
          "name": "to",
          "type": "address"
        },
        {
          "internalType": "uint256",
          "name": "id",
          "type": "uint256"
        },
        {
          "internalType": "uint256",
          "name": "amount",
          "type": "uint256"
        },
        {
          "internalType": "bytes",
          "name": "data",
          "type": "bytes"
        }
      ],
      "name": "safeTransferFrom",
      "outputs": [],
      "stateMutability": "nonpayable",
      "type": "function"
    },
    {
      "inputs": [
        {
          "internalType": "address",
          "name": "operator",
          "type": "address"
        },
        {
          "internalType": "bool",
          "name": "approved",
          "type": "bool"
        }
      ],
      "name": "setApprovalForAll",
      "outputs": [],
      "stateMutability": "nonpayable",
      "type": "function"
    },
    {
      "inputs": [
        {
          "internalType": "uint256",
          "name": "certificateId",
          "type": "uint256"
        }
      ],
      "name": "sources",
      "outputs": [
        {
          "components": [
            {
              "internalType": "uint256",
              "name": "removalId",
              "type": "uint256"
            },
            {
              "internalType": "uint256",
              "name": "amount",
              "type": "uint256"
            }
          ],
          "internalType": "struct Certificate.Source[]",
          "name": "",
          "type": "tuple[]"
        }
      ],
      "stateMutability": "view",
      "type": "function"
    },
    {
      "inputs": [
        {
          "internalType": "bytes4",
          "name": "interfaceId",
          "type": "bytes4"
        }
      ],
      "name": "supportsInterface",
      "outputs": [
        {
          "internalType": "bool",
          "name": "",
          "type": "bool"
        }
      ],
      "stateMutability": "view",
      "type": "function"
    },
    {
      "inputs": [
        {
          "internalType": "uint256",
          "name": "id",
          "type": "uint256"
        }
      ],
      "name": "totalSupply",
      "outputs": [
        {
          "internalType": "uint256",
          "name": "",
          "type": "uint256"
        }
      ],
      "stateMutability": "view",
      "type": "function"
    },
    {
      "inputs": [],
      "name": "unpause",
      "outputs": [],
      "stateMutability": "nonpayable",
      "type": "function"
    },
    {
      "inputs": [
        {
          "internalType": "uint256",
          "name": "",
          "type": "uint256"
        }
      ],
      "name": "uri",
      "outputs": [
        {
          "internalType": "string",
          "name": "",
          "type": "string"
        }
      ],
      "stateMutability": "view",
      "type": "function"
    }
  ],
  "bytecode": "0x608060405234801561001057600080fd5b50613169806100206000396000f3fe608060405234801561001057600080fd5b50600436106101ef5760003560e01c80638456cb591161010f578063ca15c873116100a2578063e985e9c511610071578063e985e9c51461047f578063f242432a146104bb578063f5298aca146104ce578063f62d1888146104e157600080fd5b8063ca15c8731461042f578063d539139314610442578063d547741f14610457578063e63ab1e91461046a57600080fd5b8063a217fddf116100de578063a217fddf146103d3578063a22cb465146103db578063a3663d37146103ee578063bd85b0391461040e57600080fd5b80638456cb591461037a5780639010d07c1461038257806391d14854146103ad578063983b2d56146103c057600080fd5b806336568abe116101875780635c975abb116101565780635c975abb146103405780636b20c4541461034c578063731133e91461035f5780638129fc1c1461037257600080fd5b806336568abe146102e25780633f4ba83a146102f55780634e1273f4146102fd5780634f558e791461031d57600080fd5b8063248a9ca3116101c3578063248a9ca31461027257806326c6da4f146102955780632eb2c2d6146102bc5780632f2ff15d146102cf57600080fd5b8062fdd58e146101f457806301ffc9a71461021a5780630e89341c1461023d5780631f7fdffa1461025d575b600080fd5b6102076102023660046123cd565b6104f4565b6040519081526020015b60405180910390f35b61022d61022836600461240d565b610590565b6040519015158152602001610211565b61025061024b36600461242a565b61059b565b604051610211919061249b565b61027061026b366004612601565b61062f565b005b61020761028036600461242a565b60009081526065602052604090206001015490565b6102077fb6eeb50d1ea0d876d560efb18b8017323347ce323ef4b05d5a0322c9c7869f8f81565b6102706102ca366004612699565b6107cf565b6102706102dd366004612742565b610866565b6102706102f0366004612742565b610891565b61027061090f565b61031061030b36600461276e565b6109a3565b6040516102119190612873565b61022d61032b36600461242a565b60009081526101c36020526040902054151590565b61012d5460ff1661022d565b61027061035a366004612886565b610acc565b61027061036d3660046128f9565b610b0f565b610270610b28565b610270610bc9565b61039561039036600461294d565b610c5b565b6040516001600160a01b039091168152602001610211565b61022d6103bb366004612742565b610c7a565b6102706103ce36600461296f565b610ca5565b610207600081565b6102706103e936600461298a565b610cbd565b6104016103fc36600461242a565b610cc8565b60405161021191906129c6565b61020761041c36600461242a565b60009081526101c3602052604090205490565b61020761043d36600461242a565b610d4f565b61020760008051602061311483398151915281565b610270610465366004612742565b610d66565b6102076000805160206130f483398151915281565b61022d61048d366004612a15565b6001600160a01b03918216600090815260ca6020908152604080832093909416825291909152205460ff1690565b6102706104c9366004612a3f565b610d8c565b6102706104dc366004612aa3565b610dd1565b6102706104ef366004612ad6565b610e14565b60006001600160a01b0383166105655760405162461bcd60e51b815260206004820152602b60248201527f455243313135353a2062616c616e636520717565727920666f7220746865207a60448201526a65726f206164647265737360a81b60648201526084015b60405180910390fd5b50600081815260c9602090815260408083206001600160a01b03861684529091529020545b92915050565b600061058a82610e8f565b606060cb80546105aa90612b26565b80601f01602080910402602001604051908101604052809291908181526020018280546105d690612b26565b80156106235780601f106105f857610100808354040283529160200191610623565b820191906000526020600020905b81548152906001019060200180831161060657829003601f168201915b50505050509050919050565b6000818060200190518101906106459190612b60565b905060005b84518110156107535783818151811061066557610665612b79565b60200260200101516000036106bc5760405162461bcd60e51b815260206004820152601d60248201527f43657274696669636174653a2052656d6f76616c20616d6f756e742030000000604482015260640161055c565b6101f560006101f654815260200190815260200160002060405180604001604052808784815181106106f0576106f0612b79565b6020026020010151815260200186848151811061070f5761070f612b79565b60209081029190910181015190915282546001818101855560009485529382902083516002909202019081559101519101558061074b81612ba5565b91505061064a565b50610763856101f6548385610e9a565b6101f654856001600160a01b03167fb1b9468300ca5a516913a0f871fd85fbf8a14af751437fd41a807ba45e75d7c986866040516107a2929190612bbe565b60405180910390a360016101f660008282546107be9190612bec565b91829055506101f655505050505050565b6001600160a01b0385163314806107eb57506107eb853361048d565b6108525760405162461bcd60e51b815260206004820152603260248201527f455243313135353a207472616e736665722063616c6c6572206973206e6f74206044820152711bdddb995c881b9bdc88185c1c1c9bdd995960721b606482015260840161055c565b61085f8585858585610f36565b5050505050565b60008281526065602052604090206001015461088281336110e3565b61088c8383611147565b505050565b6001600160a01b03811633146109015760405162461bcd60e51b815260206004820152602f60248201527f416363657373436f6e74726f6c3a2063616e206f6e6c792072656e6f756e636560448201526e103937b632b9903337b91039b2b63360891b606482015260840161055c565b61090b8282611169565b5050565b6109276000805160206130f483398151915233610c7a565b6109995760405162461bcd60e51b815260206004820152603b60248201527f455243313135355072657365744d696e7465725061757365723a206d7573742060448201527f686176652070617573657220726f6c6520746f20756e70617573650000000000606482015260840161055c565b6109a161118b565b565b60608151835114610a085760405162461bcd60e51b815260206004820152602960248201527f455243313135353a206163636f756e747320616e6420696473206c656e677468604482015268040dad2e6dac2e8c6d60bb1b606482015260840161055c565b600083516001600160401b03811115610a2357610a236124ae565b604051908082528060200260200182016040528015610a4c578160200160208202803683370190505b50905060005b8451811015610ac457610a97858281518110610a7057610a70612b79565b6020026020010151858381518110610a8a57610a8a612b79565b60200260200101516104f4565b828281518110610aa957610aa9612b79565b6020908102919091010152610abd81612ba5565b9050610a52565b509392505050565b6001600160a01b038316331480610ae85750610ae8833361048d565b610b045760405162461bcd60e51b815260040161055c90612c04565b61088c838383611220565b604051630583896960e51b815260040160405180910390fd5b600054610100900460ff16610b435760005460ff1615610b47565b303b155b610b635760405162461bcd60e51b815260040161055c90612c4d565b600054610100900460ff16158015610b85576000805461ffff19166101011790555b610ba66040518060600160405280602a81526020016130ca602a9139610e14565b610bae6113b1565b60006101f6558015610bc6576000805461ff00191690555b50565b610be16000805160206130f483398151915233610c7a565b610c535760405162461bcd60e51b815260206004820152603960248201527f455243313135355072657365744d696e7465725061757365723a206d7573742060448201527f686176652070617573657220726f6c6520746f20706175736500000000000000606482015260840161055c565b6109a16113d8565b6000828152609760205260408120610c739083611455565b9392505050565b60009182526065602090815260408084206001600160a01b0393909316845291905290205460ff1690565b610bc660008051602061311483398151915282611461565b61090b33838361146b565b60606101f56000838152602001908152602001600020805480602002602001604051908101604052809291908181526020016000905b82821015610d4457838290600052602060002090600202016040518060400160405290816000820154815260200160018201548152505081526020019060010190610cfe565b505050509050919050565b600081815260976020526040812061058a9061154b565b600082815260656020526040902060010154610d8281336110e3565b61088c8383611169565b6001600160a01b038516331480610da85750610da8853361048d565b610dc45760405162461bcd60e51b815260040161055c90612c04565b61085f8585858585611555565b6001600160a01b038316331480610ded5750610ded833361048d565b610e095760405162461bcd60e51b815260040161055c90612c04565b61088c838383611685565b600054610100900460ff16610e2f5760005460ff1615610e33565b303b155b610e4f5760405162461bcd60e51b815260040161055c90612c4d565b600054610100900460ff16158015610e71576000805461ffff19166101011790555b610e7a8261178a565b801561090b576000805461ff00191690555050565b600061058a826117cb565b610eb260008051602061311483398151915233610c7a565b610f245760405162461bcd60e51b815260206004820152603860248201527f455243313135355072657365744d696e7465725061757365723a206d7573742060448201527f68617665206d696e74657220726f6c6520746f206d696e740000000000000000606482015260840161055c565b610f308484848461180b565b50505050565b8151835114610f575760405162461bcd60e51b815260040161055c90612c9b565b6001600160a01b038416610f7d5760405162461bcd60e51b815260040161055c90612ce3565b33610f8c81878787878761190e565b60005b8451811015611075576000858281518110610fac57610fac612b79565b602002602001015190506000858381518110610fca57610fca612b79565b602090810291909101810151600084815260c9835260408082206001600160a01b038e16835290935291909120549091508181101561101b5760405162461bcd60e51b815260040161055c90612d28565b600083815260c9602090815260408083206001600160a01b038e8116855292528083208585039055908b1682528120805484929061105a908490612bec565b925050819055505050508061106e90612ba5565b9050610f8f565b50846001600160a01b0316866001600160a01b0316826001600160a01b03167f4a39dc06d4c0dbc64b70af90fd698a233a518aa5d07e595d983b8c0526c8f7fb87876040516110c5929190612bbe565b60405180910390a46110db8187878787876119d8565b505050505050565b6110ed8282610c7a565b61090b57611105816001600160a01b03166014611b33565b611110836020611b33565b604051602001611121929190612d72565b60408051601f198184030181529082905262461bcd60e51b825261055c9160040161249b565b6111518282611cce565b600082815260976020526040902061088c9082611d54565b6111738282611d69565b600082815260976020526040902061088c9082611dd0565b61012d5460ff166111d55760405162461bcd60e51b815260206004820152601460248201527314185d5cd8589b194e881b9bdd081c185d5cd95960621b604482015260640161055c565b61012d805460ff191690557f5db9ee0a495bf2e6ff9c91a7834c1ba4fdd244a5e8aa4e537bd38aeae4b073aa335b6040516001600160a01b03909116815260200160405180910390a1565b6001600160a01b0383166112465760405162461bcd60e51b815260040161055c90612de7565b80518251146112675760405162461bcd60e51b815260040161055c90612c9b565b600033905061128a8185600086866040518060200160405280600081525061190e565b60005b83518110156113525760008482815181106112aa576112aa612b79565b6020026020010151905060008483815181106112c8576112c8612b79565b602090810291909101810151600084815260c9835260408082206001600160a01b038c1683529093529190912054909150818110156113195760405162461bcd60e51b815260040161055c90612e2a565b600092835260c9602090815260408085206001600160a01b038b168652909152909220910390558061134a81612ba5565b91505061128d565b5060006001600160a01b0316846001600160a01b0316826001600160a01b03167f4a39dc06d4c0dbc64b70af90fd698a233a518aa5d07e595d983b8c0526c8f7fb86866040516113a3929190612bbe565b60405180910390a450505050565b600054610100900460ff166109a15760405162461bcd60e51b815260040161055c90612e6e565b61012d5460ff161561141f5760405162461bcd60e51b815260206004820152601060248201526f14185d5cd8589b194e881c185d5cd95960821b604482015260640161055c565b61012d805460ff191660011790557f62e78cea01bee320cd4e420270b5ea74000d11b0c9f74754ebdbfc544b05a2586112033390565b6000610c738383611de5565b61090b8282611147565b816001600160a01b0316836001600160a01b0316036114de5760405162461bcd60e51b815260206004820152602960248201527f455243313135353a2073657474696e6720617070726f76616c20737461747573604482015268103337b91039b2b63360b91b606482015260840161055c565b6001600160a01b03838116600081815260ca6020908152604080832094871680845294825291829020805460ff191686151590811790915591519182527f17307eab39ab6107e8899845ad3d59bd9653f200f220920489ca2b5937696c31910160405180910390a3505050565b600061058a825490565b6001600160a01b03841661157b5760405162461bcd60e51b815260040161055c90612ce3565b3361159a81878761158b88611e0f565b61159488611e0f565b8761190e565b600084815260c9602090815260408083206001600160a01b038a168452909152902054838110156115dd5760405162461bcd60e51b815260040161055c90612d28565b600085815260c9602090815260408083206001600160a01b038b811685529252808320878503905590881682528120805486929061161c908490612bec565b909155505060408051868152602081018690526001600160a01b03808916928a821692918616917fc3d58168c5ae7397731d063d5bbf3d657854427343f4c083240f7aacaa2d0f62910160405180910390a461167c828888888888611e5a565b50505050505050565b6001600160a01b0383166116ab5760405162461bcd60e51b815260040161055c90612de7565b336116da818560006116bc87611e0f565b6116c587611e0f565b6040518060200160405280600081525061190e565b600083815260c9602090815260408083206001600160a01b03881684529091529020548281101561171d5760405162461bcd60e51b815260040161055c90612e2a565b600084815260c9602090815260408083206001600160a01b03898116808652918452828520888703905582518981529384018890529092908616917fc3d58168c5ae7397731d063d5bbf3d657854427343f4c083240f7aacaa2d0f62910160405180910390a45050505050565b600054610100900460ff166117b15760405162461bcd60e51b815260040161055c90612e6e565b6117ba81611f15565b6117c2611f45565b610bc681611f79565b60006001600160e01b03198216636cdb3d1360e11b14806117fc57506001600160e01b031982166303a24d0760e21b145b8061058a575061058a82611fdb565b6001600160a01b03841661186b5760405162461bcd60e51b815260206004820152602160248201527f455243313135353a206d696e7420746f20746865207a65726f206164647265736044820152607360f81b606482015260840161055c565b3361187c8160008761158b88611e0f565b600084815260c9602090815260408083206001600160a01b0389168452909152812080548592906118ae908490612bec565b909155505060408051858152602081018590526001600160a01b0380881692600092918516917fc3d58168c5ae7397731d063d5bbf3d657854427343f4c083240f7aacaa2d0f62910160405180910390a461085f81600087878787611e5a565b61012d5460ff16156119555760405162461bcd60e51b815260206004820152601060248201526f14185d5cd8589b194e881c185d5cd95960821b604482015260640161055c565b6001600160a01b038581161515908516151581806119705750805b806119a257506119a07fb6eeb50d1ea0d876d560efb18b8017323347ce323ef4b05d5a0322c9c7869f8f89610c7a565b155b156119c057604051630175e5a960e41b815260040160405180910390fd5b6119ce888888888888612000565b5050505050505050565b6001600160a01b0384163b156110db5760405163bc197c8160e01b81526001600160a01b0385169063bc197c8190611a1c9089908990889088908890600401612eb9565b6020604051808303816000875af1925050508015611a57575060408051601f3d908101601f19168201909252611a5491810190612f17565b60015b611b0357611a63612f34565b806308c379a003611a9c5750611a77612f50565b80611a825750611a9e565b8060405162461bcd60e51b815260040161055c919061249b565b505b60405162461bcd60e51b815260206004820152603460248201527f455243313135353a207472616e7366657220746f206e6f6e20455243313135356044820152732932b1b2b4bb32b91034b6b83632b6b2b73a32b960611b606482015260840161055c565b6001600160e01b0319811663bc197c8160e01b1461167c5760405162461bcd60e51b815260040161055c90612fd9565b60606000611b42836002613021565b611b4d906002612bec565b6001600160401b03811115611b6457611b646124ae565b6040519080825280601f01601f191660200182016040528015611b8e576020820181803683370190505b509050600360fc1b81600081518110611ba957611ba9612b79565b60200101906001600160f81b031916908160001a905350600f60fb1b81600181518110611bd857611bd8612b79565b60200101906001600160f81b031916908160001a9053506000611bfc846002613021565b611c07906001612bec565b90505b6001811115611c7f576f181899199a1a9b1b9c1cb0b131b232b360811b85600f1660108110611c3b57611c3b612b79565b1a60f81b828281518110611c5157611c51612b79565b60200101906001600160f81b031916908160001a90535060049490941c93611c7881613040565b9050611c0a565b508315610c735760405162461bcd60e51b815260206004820181905260248201527f537472696e67733a20686578206c656e67746820696e73756666696369656e74604482015260640161055c565b611cd88282610c7a565b61090b5760008281526065602090815260408083206001600160a01b03851684529091529020805460ff19166001179055611d103390565b6001600160a01b0316816001600160a01b0316837f2f8788117e7eff1d82e926ec794901d17c78024a50270940304540a733656f0d60405160405180910390a45050565b6000610c73836001600160a01b03841661211c565b611d738282610c7a565b1561090b5760008281526065602090815260408083206001600160a01b0385168085529252808320805460ff1916905551339285917ff6391f5c32d9c69d2a47ea670b442974b53935d1edc7fd64eb21e047a839171b9190a45050565b6000610c73836001600160a01b03841661216b565b6000826000018281548110611dfc57611dfc612b79565b9060005260206000200154905092915050565b60408051600180825281830190925260609160009190602080830190803683370190505090508281600081518110611e4957611e49612b79565b602090810291909101015292915050565b6001600160a01b0384163b156110db5760405163f23a6e6160e01b81526001600160a01b0385169063f23a6e6190611e9e9089908990889088908890600401613057565b6020604051808303816000875af1925050508015611ed9575060408051601f3d908101601f19168201909252611ed691810190612f17565b60015b611ee557611a63612f34565b6001600160e01b0319811663f23a6e6160e01b1461167c5760405162461bcd60e51b815260040161055c90612fd9565b600054610100900460ff16611f3c5760405162461bcd60e51b815260040161055c90612e6e565b610bc68161225e565b600054610100900460ff16611f6c5760405162461bcd60e51b815260040161055c90612e6e565b61012d805460ff19169055565b600054610100900460ff16611fa05760405162461bcd60e51b815260040161055c90612e6e565b611fab600033611461565b611fc360008051602061311483398151915233611461565b610bc66000805160206130f483398151915233611461565b60006001600160e01b03198216635a05180f60e01b148061058a575061058a82612271565b61200e8686868686866122a6565b6001600160a01b0385166120965760005b83518110156120945782818151811061203a5761203a612b79565b60200260200101516101c3600086848151811061205957612059612b79565b60200260200101518152602001908152602001600020600082825461207e9190612bec565b9091555061208d905081612ba5565b905061201f565b505b6001600160a01b0384166110db5760005b835181101561167c578281815181106120c2576120c2612b79565b60200260200101516101c360008684815181106120e1576120e1612b79565b602002602001015181526020019081526020016000206000828254612106919061309c565b90915550612115905081612ba5565b90506120a7565b60008181526001830160205260408120546121635750815460018181018455600084815260208082209093018490558454848252828601909352604090209190915561058a565b50600061058a565b6000818152600183016020526040812054801561225457600061218f60018361309c565b85549091506000906121a39060019061309c565b90508181146122085760008660000182815481106121c3576121c3612b79565b90600052602060002001549050808760000184815481106121e6576121e6612b79565b6000918252602080832090910192909255918252600188019052604090208390555b8554869080612219576122196130b3565b60019003818190600052602060002001600090559055856001016000868152602001908152602001600020600090556001935050505061058a565b600091505061058a565b805161090b9060cb906020840190612318565b60006001600160e01b03198216637965db0b60e01b148061058a57506301ffc9a760e01b6001600160e01b031983161461058a565b6110db86868686868661012d5460ff16156110db5760405162461bcd60e51b815260206004820152602c60248201527f455243313135355061757361626c653a20746f6b656e207472616e736665722060448201526b1dda1a5b19481c185d5cd95960a21b606482015260840161055c565b82805461232490612b26565b90600052602060002090601f016020900481019282612346576000855561238c565b82601f1061235f57805160ff191683800117855561238c565b8280016001018555821561238c579182015b8281111561238c578251825591602001919060010190612371565b5061239892915061239c565b5090565b5b80821115612398576000815560010161239d565b80356001600160a01b03811681146123c857600080fd5b919050565b600080604083850312156123e057600080fd5b6123e9836123b1565b946020939093013593505050565b6001600160e01b031981168114610bc657600080fd5b60006020828403121561241f57600080fd5b8135610c73816123f7565b60006020828403121561243c57600080fd5b5035919050565b60005b8381101561245e578181015183820152602001612446565b83811115610f305750506000910152565b60008151808452612487816020860160208601612443565b601f01601f19169290920160200192915050565b602081526000610c73602083018461246f565b634e487b7160e01b600052604160045260246000fd5b601f8201601f191681016001600160401b03811182821017156124e9576124e96124ae565b6040525050565b60006001600160401b03821115612509576125096124ae565b5060051b60200190565b600082601f83011261252457600080fd5b81356020612531826124f0565b60405161253e82826124c4565b83815260059390931b850182019282810191508684111561255e57600080fd5b8286015b848110156125795780358352918301918301612562565b509695505050505050565b60006001600160401b0383111561259d5761259d6124ae565b6040516125b4601f8501601f1916602001826124c4565b8091508381528484840111156125c957600080fd5b83836020830137600060208583010152509392505050565b600082601f8301126125f257600080fd5b610c7383833560208501612584565b6000806000806080858703121561261757600080fd5b612620856123b1565b935060208501356001600160401b038082111561263c57600080fd5b61264888838901612513565b9450604087013591508082111561265e57600080fd5b61266a88838901612513565b9350606087013591508082111561268057600080fd5b5061268d878288016125e1565b91505092959194509250565b600080600080600060a086880312156126b157600080fd5b6126ba866123b1565b94506126c8602087016123b1565b935060408601356001600160401b03808211156126e457600080fd5b6126f089838a01612513565b9450606088013591508082111561270657600080fd5b61271289838a01612513565b9350608088013591508082111561272857600080fd5b50612735888289016125e1565b9150509295509295909350565b6000806040838503121561275557600080fd5b82359150612765602084016123b1565b90509250929050565b6000806040838503121561278157600080fd5b82356001600160401b038082111561279857600080fd5b818501915085601f8301126127ac57600080fd5b813560206127b9826124f0565b6040516127c682826124c4565b83815260059390931b85018201928281019150898411156127e657600080fd5b948201945b8386101561280b576127fc866123b1565b825294820194908201906127eb565b9650508601359250508082111561282157600080fd5b5061282e85828601612513565b9150509250929050565b600081518084526020808501945080840160005b838110156128685781518752958201959082019060010161284c565b509495945050505050565b602081526000610c736020830184612838565b60008060006060848603121561289b57600080fd5b6128a4846123b1565b925060208401356001600160401b03808211156128c057600080fd5b6128cc87838801612513565b935060408601359150808211156128e257600080fd5b506128ef86828701612513565b9150509250925092565b6000806000806080858703121561290f57600080fd5b612918856123b1565b9350602085013592506040850135915060608501356001600160401b0381111561294157600080fd5b61268d878288016125e1565b6000806040838503121561296057600080fd5b50508035926020909101359150565b60006020828403121561298157600080fd5b610c73826123b1565b6000806040838503121561299d57600080fd5b6129a6836123b1565b9150602083013580151581146129bb57600080fd5b809150509250929050565b602080825282518282018190526000919060409081850190868401855b82811015612a08578151805185528601518685015292840192908501906001016129e3565b5091979650505050505050565b60008060408385031215612a2857600080fd5b612a31836123b1565b9150612765602084016123b1565b600080600080600060a08688031215612a5757600080fd5b612a60866123b1565b9450612a6e602087016123b1565b9350604086013592506060860135915060808601356001600160401b03811115612a9757600080fd5b612735888289016125e1565b600080600060608486031215612ab857600080fd5b612ac1846123b1565b95602085013595506040909401359392505050565b600060208284031215612ae857600080fd5b81356001600160401b03811115612afe57600080fd5b8201601f81018413612b0f57600080fd5b612b1e84823560208401612584565b949350505050565b600181811c90821680612b3a57607f821691505b602082108103612b5a57634e487b7160e01b600052602260045260246000fd5b50919050565b600060208284031215612b7257600080fd5b5051919050565b634e487b7160e01b600052603260045260246000fd5b634e487b7160e01b600052601160045260246000fd5b600060018201612bb757612bb7612b8f565b5060010190565b604081526000612bd16040830185612838565b8281036020840152612be38185612838565b95945050505050565b60008219821115612bff57612bff612b8f565b500190565b60208082526029908201527f455243313135353a2063616c6c6572206973206e6f74206f776e6572206e6f7260408201526808185c1c1c9bdd995960ba1b606082015260800190565b6020808252602e908201527f496e697469616c697a61626c653a20636f6e747261637420697320616c72656160408201526d191e481a5b9a5d1a585b1a5e995960921b606082015260800190565b60208082526028908201527f455243313135353a2069647320616e6420616d6f756e7473206c656e677468206040820152670dad2e6dac2e8c6d60c31b606082015260800190565b60208082526025908201527f455243313135353a207472616e7366657220746f20746865207a65726f206164604082015264647265737360d81b606082015260800190565b6020808252602a908201527f455243313135353a20696e73756666696369656e742062616c616e636520666f60408201526939103a3930b739b332b960b11b606082015260800190565b7f416363657373436f6e74726f6c3a206163636f756e7420000000000000000000815260008351612daa816017850160208801612443565b7001034b99036b4b9b9b4b733903937b6329607d1b6017918401918201528351612ddb816028840160208801612443565b01602801949350505050565b60208082526023908201527f455243313135353a206275726e2066726f6d20746865207a65726f206164647260408201526265737360e81b606082015260800190565b60208082526024908201527f455243313135353a206275726e20616d6f756e7420657863656564732062616c604082015263616e636560e01b606082015260800190565b6020808252602b908201527f496e697469616c697a61626c653a20636f6e7472616374206973206e6f74206960408201526a6e697469616c697a696e6760a81b606082015260800190565b6001600160a01b0386811682528516602082015260a060408201819052600090612ee590830186612838565b8281036060840152612ef78186612838565b90508281036080840152612f0b818561246f565b98975050505050505050565b600060208284031215612f2957600080fd5b8151610c73816123f7565b600060033d1115612f4d5760046000803e5060005160e01c5b90565b600060443d1015612f5e5790565b6040516003193d81016004833e81513d6001600160401b038160248401118184111715612f8d57505050505090565b8285019150815181811115612fa55750505050505090565b843d8701016020828501011115612fbf5750505050505090565b612fce602082860101876124c4565b509095945050505050565b60208082526028908201527f455243313135353a204552433131353552656365697665722072656a656374656040820152676420746f6b656e7360c01b606082015260800190565b600081600019048311821515161561303b5761303b612b8f565b500290565b60008161304f5761304f612b8f565b506000190190565b6001600160a01b03868116825285166020820152604081018490526060810183905260a0608082018190526000906130919083018461246f565b979650505050505050565b6000828210156130ae576130ae612b8f565b500390565b634e487b7160e01b600052603160045260246000fdfe68747470733a2f2f6e6f72692e636f6d2f6170692f63657274696669636174652f7b69647d2e6a736f6e65d7a28e3265b37a6474929f336521b332c1681b933f6cb9f3376673440d862a9f2df0fed2c77648de5860a4cc508cd0818c85b8b8a1ab4ceeef8d981c8956a6a264697066735822122092829ab855864518f6f9349074222c91b321fcc0fd8c49c6494f20faea0dbb9c64736f6c634300080d0033",
  "linkReferences": {},
  "deployedLinkReferences": {}
}