{
  "_format": "hh-sol-artifact-1",
  "contractName": "Certificate",
  "sourceName": "contracts/Certificate.sol",
  "abi": [
    {
      "anonymous": false,
      "inputs": [
        {
          "indexed": true,
          "internalType": "address",
          "name": "account",
          "type": "address"
        },
        {
          "indexed": true,
          "internalType": "address",
          "name": "operator",
          "type": "address"
        },
        {
          "indexed": false,
          "internalType": "bool",
          "name": "approved",
          "type": "bool"
        }
      ],
      "name": "ApprovalForAll",
      "type": "event"
    },
    {
      "anonymous": false,
      "inputs": [
        {
          "indexed": false,
          "internalType": "address",
          "name": "account",
          "type": "address"
        }
      ],
      "name": "Paused",
      "type": "event"
    },
    {
      "anonymous": false,
      "inputs": [
        {
          "indexed": true,
          "internalType": "bytes32",
          "name": "role",
          "type": "bytes32"
        },
        {
          "indexed": true,
          "internalType": "bytes32",
          "name": "previousAdminRole",
          "type": "bytes32"
        },
        {
          "indexed": true,
          "internalType": "bytes32",
          "name": "newAdminRole",
          "type": "bytes32"
        }
      ],
      "name": "RoleAdminChanged",
      "type": "event"
    },
    {
      "anonymous": false,
      "inputs": [
        {
          "indexed": true,
          "internalType": "bytes32",
          "name": "role",
          "type": "bytes32"
        },
        {
          "indexed": true,
          "internalType": "address",
          "name": "account",
          "type": "address"
        },
        {
          "indexed": true,
          "internalType": "address",
          "name": "sender",
          "type": "address"
        }
      ],
      "name": "RoleGranted",
      "type": "event"
    },
    {
      "anonymous": false,
      "inputs": [
        {
          "indexed": true,
          "internalType": "bytes32",
          "name": "role",
          "type": "bytes32"
        },
        {
          "indexed": true,
          "internalType": "address",
          "name": "account",
          "type": "address"
        },
        {
          "indexed": true,
          "internalType": "address",
          "name": "sender",
          "type": "address"
        }
      ],
      "name": "RoleRevoked",
      "type": "event"
    },
    {
      "anonymous": false,
      "inputs": [
        {
          "indexed": true,
          "internalType": "address",
          "name": "operator",
          "type": "address"
        },
        {
          "indexed": true,
          "internalType": "address",
          "name": "from",
          "type": "address"
        },
        {
          "indexed": true,
          "internalType": "address",
          "name": "to",
          "type": "address"
        },
        {
          "indexed": false,
          "internalType": "uint256[]",
          "name": "ids",
          "type": "uint256[]"
        },
        {
          "indexed": false,
          "internalType": "uint256[]",
          "name": "values",
          "type": "uint256[]"
        }
      ],
      "name": "TransferBatch",
      "type": "event"
    },
    {
      "anonymous": false,
      "inputs": [
        {
          "indexed": true,
          "internalType": "address",
          "name": "operator",
          "type": "address"
        },
        {
          "indexed": true,
          "internalType": "address",
          "name": "from",
          "type": "address"
        },
        {
          "indexed": true,
          "internalType": "address",
          "name": "to",
          "type": "address"
        },
        {
          "indexed": false,
          "internalType": "uint256",
          "name": "id",
          "type": "uint256"
        },
        {
          "indexed": false,
          "internalType": "uint256",
          "name": "value",
          "type": "uint256"
        }
      ],
      "name": "TransferSingle",
      "type": "event"
    },
    {
      "anonymous": false,
      "inputs": [
        {
          "indexed": false,
          "internalType": "string",
          "name": "value",
          "type": "string"
        },
        {
          "indexed": true,
          "internalType": "uint256",
          "name": "id",
          "type": "uint256"
        }
      ],
      "name": "URI",
      "type": "event"
    },
    {
      "anonymous": false,
      "inputs": [
        {
          "indexed": false,
          "internalType": "address",
          "name": "account",
          "type": "address"
        }
      ],
      "name": "Unpaused",
      "type": "event"
    },
    {
      "inputs": [],
      "name": "DEFAULT_ADMIN_ROLE",
      "outputs": [
        {
          "internalType": "bytes32",
          "name": "",
          "type": "bytes32"
        }
      ],
      "stateMutability": "view",
      "type": "function"
    },
    {
      "inputs": [],
      "name": "MINTER_ROLE",
      "outputs": [
        {
          "internalType": "bytes32",
          "name": "",
          "type": "bytes32"
        }
      ],
      "stateMutability": "view",
      "type": "function"
    },
    {
      "inputs": [],
      "name": "PAUSER_ROLE",
      "outputs": [
        {
          "internalType": "bytes32",
          "name": "",
          "type": "bytes32"
        }
      ],
      "stateMutability": "view",
      "type": "function"
    },
    {
      "inputs": [
        {
          "internalType": "address",
          "name": "_minter",
          "type": "address"
        }
      ],
      "name": "addMinter",
      "outputs": [],
      "stateMutability": "nonpayable",
      "type": "function"
    },
    {
      "inputs": [
        {
          "internalType": "address",
          "name": "account",
          "type": "address"
        },
        {
          "internalType": "uint256",
          "name": "id",
          "type": "uint256"
        }
      ],
      "name": "balanceOf",
      "outputs": [
        {
          "internalType": "uint256",
          "name": "",
          "type": "uint256"
        }
      ],
      "stateMutability": "view",
      "type": "function"
    },
    {
      "inputs": [
        {
          "internalType": "address[]",
          "name": "accounts",
          "type": "address[]"
        },
        {
          "internalType": "uint256[]",
          "name": "ids",
          "type": "uint256[]"
        }
      ],
      "name": "balanceOfBatch",
      "outputs": [
        {
          "internalType": "uint256[]",
          "name": "",
          "type": "uint256[]"
        }
      ],
      "stateMutability": "view",
      "type": "function"
    },
    {
      "inputs": [
        {
          "internalType": "address",
          "name": "account",
          "type": "address"
        },
        {
          "internalType": "uint256",
          "name": "id",
          "type": "uint256"
        },
        {
          "internalType": "uint256",
          "name": "value",
          "type": "uint256"
        }
      ],
      "name": "burn",
      "outputs": [],
      "stateMutability": "nonpayable",
      "type": "function"
    },
    {
      "inputs": [
        {
          "internalType": "address",
          "name": "account",
          "type": "address"
        },
        {
          "internalType": "uint256[]",
          "name": "ids",
          "type": "uint256[]"
        },
        {
          "internalType": "uint256[]",
          "name": "values",
          "type": "uint256[]"
        }
      ],
      "name": "burnBatch",
      "outputs": [],
      "stateMutability": "nonpayable",
      "type": "function"
    },
    {
      "inputs": [
        {
          "internalType": "uint256",
          "name": "id",
          "type": "uint256"
        }
      ],
      "name": "exists",
      "outputs": [
        {
          "internalType": "bool",
          "name": "",
          "type": "bool"
        }
      ],
      "stateMutability": "view",
      "type": "function"
    },
    {
      "inputs": [
        {
          "internalType": "bytes32",
          "name": "role",
          "type": "bytes32"
        }
      ],
      "name": "getRoleAdmin",
      "outputs": [
        {
          "internalType": "bytes32",
          "name": "",
          "type": "bytes32"
        }
      ],
      "stateMutability": "view",
      "type": "function"
    },
    {
      "inputs": [
        {
          "internalType": "bytes32",
          "name": "role",
          "type": "bytes32"
        },
        {
          "internalType": "uint256",
          "name": "index",
          "type": "uint256"
        }
      ],
      "name": "getRoleMember",
      "outputs": [
        {
          "internalType": "address",
          "name": "",
          "type": "address"
        }
      ],
      "stateMutability": "view",
      "type": "function"
    },
    {
      "inputs": [
        {
          "internalType": "bytes32",
          "name": "role",
          "type": "bytes32"
        }
      ],
      "name": "getRoleMemberCount",
      "outputs": [
        {
          "internalType": "uint256",
          "name": "",
          "type": "uint256"
        }
      ],
      "stateMutability": "view",
      "type": "function"
    },
    {
      "inputs": [
        {
          "internalType": "bytes32",
          "name": "role",
          "type": "bytes32"
        },
        {
          "internalType": "address",
          "name": "account",
          "type": "address"
        }
      ],
      "name": "grantRole",
      "outputs": [],
      "stateMutability": "nonpayable",
      "type": "function"
    },
    {
      "inputs": [
        {
          "internalType": "bytes32",
          "name": "role",
          "type": "bytes32"
        },
        {
          "internalType": "address",
          "name": "account",
          "type": "address"
        }
      ],
      "name": "hasRole",
      "outputs": [
        {
          "internalType": "bool",
          "name": "",
          "type": "bool"
        }
      ],
      "stateMutability": "view",
      "type": "function"
    },
    {
      "inputs": [],
      "name": "initialize",
      "outputs": [],
      "stateMutability": "nonpayable",
      "type": "function"
    },
    {
      "inputs": [
        {
          "internalType": "string",
          "name": "uri",
          "type": "string"
        }
      ],
      "name": "initialize",
      "outputs": [],
      "stateMutability": "nonpayable",
      "type": "function"
    },
    {
      "inputs": [
        {
          "internalType": "address",
          "name": "account",
          "type": "address"
        },
        {
          "internalType": "address",
          "name": "operator",
          "type": "address"
        }
      ],
      "name": "isApprovedForAll",
      "outputs": [
        {
          "internalType": "bool",
          "name": "",
          "type": "bool"
        }
      ],
      "stateMutability": "view",
      "type": "function"
    },
    {
      "inputs": [
        {
          "internalType": "address",
          "name": "to",
          "type": "address"
        },
        {
          "internalType": "uint256",
          "name": "id",
          "type": "uint256"
        },
        {
          "internalType": "uint256",
          "name": "amount",
          "type": "uint256"
        },
        {
          "internalType": "bytes",
          "name": "data",
          "type": "bytes"
        }
      ],
      "name": "mint",
      "outputs": [],
      "stateMutability": "nonpayable",
      "type": "function"
    },
    {
      "inputs": [
        {
          "internalType": "address",
          "name": "to",
          "type": "address"
        },
        {
          "internalType": "uint256[]",
          "name": "removalIds",
          "type": "uint256[]"
        },
        {
          "internalType": "uint256[]",
          "name": "removalAmounts",
          "type": "uint256[]"
        },
        {
          "internalType": "bytes",
          "name": "data",
          "type": "bytes"
        }
      ],
      "name": "mintBatch",
      "outputs": [],
      "stateMutability": "nonpayable",
      "type": "function"
    },
    {
      "inputs": [],
      "name": "pause",
      "outputs": [],
      "stateMutability": "nonpayable",
      "type": "function"
    },
    {
      "inputs": [],
      "name": "paused",
      "outputs": [
        {
          "internalType": "bool",
          "name": "",
          "type": "bool"
        }
      ],
      "stateMutability": "view",
      "type": "function"
    },
    {
      "inputs": [
        {
          "internalType": "bytes32",
          "name": "role",
          "type": "bytes32"
        },
        {
          "internalType": "address",
          "name": "account",
          "type": "address"
        }
      ],
      "name": "renounceRole",
      "outputs": [],
      "stateMutability": "nonpayable",
      "type": "function"
    },
    {
      "inputs": [
        {
          "internalType": "bytes32",
          "name": "role",
          "type": "bytes32"
        },
        {
          "internalType": "address",
          "name": "account",
          "type": "address"
        }
      ],
      "name": "revokeRole",
      "outputs": [],
      "stateMutability": "nonpayable",
      "type": "function"
    },
    {
      "inputs": [
        {
          "internalType": "address",
          "name": "from",
          "type": "address"
        },
        {
          "internalType": "address",
          "name": "to",
          "type": "address"
        },
        {
          "internalType": "uint256[]",
          "name": "ids",
          "type": "uint256[]"
        },
        {
          "internalType": "uint256[]",
          "name": "amounts",
          "type": "uint256[]"
        },
        {
          "internalType": "bytes",
          "name": "data",
          "type": "bytes"
        }
      ],
      "name": "safeBatchTransferFrom",
      "outputs": [],
      "stateMutability": "nonpayable",
      "type": "function"
    },
    {
      "inputs": [
        {
          "internalType": "address",
          "name": "from",
          "type": "address"
        },
        {
          "internalType": "address",
          "name": "to",
          "type": "address"
        },
        {
          "internalType": "uint256",
          "name": "id",
          "type": "uint256"
        },
        {
          "internalType": "uint256",
          "name": "amount",
          "type": "uint256"
        },
        {
          "internalType": "bytes",
          "name": "data",
          "type": "bytes"
        }
      ],
      "name": "safeTransferFrom",
      "outputs": [],
      "stateMutability": "nonpayable",
      "type": "function"
    },
    {
      "inputs": [
        {
          "internalType": "address",
          "name": "operator",
          "type": "address"
        },
        {
          "internalType": "bool",
          "name": "approved",
          "type": "bool"
        }
      ],
      "name": "setApprovalForAll",
      "outputs": [],
      "stateMutability": "nonpayable",
      "type": "function"
    },
    {
      "inputs": [
        {
          "internalType": "uint256",
          "name": "certificateId",
          "type": "uint256"
        }
      ],
      "name": "sources",
      "outputs": [
        {
          "components": [
            {
              "internalType": "uint256",
              "name": "removalId",
              "type": "uint256"
            },
            {
              "internalType": "uint256",
              "name": "amount",
              "type": "uint256"
            }
          ],
          "internalType": "struct Certificate.Source[]",
          "name": "",
          "type": "tuple[]"
        }
      ],
      "stateMutability": "view",
      "type": "function"
    },
    {
      "inputs": [
        {
          "internalType": "bytes4",
          "name": "interfaceId",
          "type": "bytes4"
        }
      ],
      "name": "supportsInterface",
      "outputs": [
        {
          "internalType": "bool",
          "name": "",
          "type": "bool"
        }
      ],
      "stateMutability": "view",
      "type": "function"
    },
    {
      "inputs": [
        {
          "internalType": "uint256",
          "name": "id",
          "type": "uint256"
        }
      ],
      "name": "totalSupply",
      "outputs": [
        {
          "internalType": "uint256",
          "name": "",
          "type": "uint256"
        }
      ],
      "stateMutability": "view",
      "type": "function"
    },
    {
      "inputs": [],
      "name": "unpause",
      "outputs": [],
      "stateMutability": "nonpayable",
      "type": "function"
    },
    {
      "inputs": [
        {
          "internalType": "uint256",
          "name": "",
          "type": "uint256"
        }
      ],
      "name": "uri",
      "outputs": [
        {
          "internalType": "string",
          "name": "",
          "type": "string"
        }
      ],
      "stateMutability": "view",
      "type": "function"
    }
  ],
  "bytecode": "0x608060405234801561001057600080fd5b50615e5980620000216000396000f3fe608060405234801561001057600080fd5b50600436106101e45760003560e01c80638456cb591161010f578063ca15c873116100a2578063e985e9c511610071578063e985e9c51461058b578063f242432a146105bb578063f5298aca146105d7578063f62d1888146105f3576101e4565b8063ca15c87314610503578063d539139314610533578063d547741f14610551578063e63ab1e91461056d576101e4565b8063a217fddf116100de578063a217fddf14610469578063a22cb46514610487578063a3663d37146104a3578063bd85b039146104d3576101e4565b80638456cb59146103e35780639010d07c146103ed57806391d148541461041d578063983b2d561461044d576101e4565b806336568abe116101875780635c975abb116101565780635c975abb146103835780636b20c454146103a1578063731133e9146103bd5780638129fc1c146103d9576101e4565b806336568abe146102fd5780633f4ba83a146103195780634e1273f4146103235780634f558e7914610353576101e4565b80631f7fdffa116101c35780631f7fdffa14610279578063248a9ca3146102955780632eb2c2d6146102c55780632f2ff15d146102e1576101e4565b8062fdd58e146101e957806301ffc9a7146102195780630e89341c14610249575b600080fd5b61020360048036038101906101fe9190613d2d565b61060f565b6040516102109190613d7c565b60405180910390f35b610233600480360381019061022e9190613def565b6106d9565b6040516102409190613e37565b60405180910390f35b610263600480360381019061025e9190613e52565b61076f565b6040516102709190613f18565b60405180910390f35b610293600480360381019061028e9190614137565b610803565b005b6102af60048036038101906102aa9190614228565b610bf9565b6040516102bc9190614264565b60405180910390f35b6102df60048036038101906102da919061427f565b610c19565b005b6102fb60048036038101906102f6919061434e565b610cba565b005b6103176004803603810190610312919061434e565b610ce3565b005b610321610d66565b005b61033d60048036038101906103389190614451565b610de0565b60405161034a9190614587565b60405180910390f35b61036d60048036038101906103689190613e52565b610ef9565b60405161037a9190613e37565b60405180910390f35b61038b610f0d565b6040516103989190613e37565b60405180910390f35b6103bb60048036038101906103b691906145a9565b610f25565b005b6103d760048036038101906103d29190614634565b610fc2565b005b6103e1611044565b005b6103eb61128e565b005b610407600480360381019061040291906146b7565b611308565b6040516104149190614706565b60405180910390f35b6104376004803603810190610432919061434e565b611337565b6040516104449190613e37565b60405180910390f35b61046760048036038101906104629190614721565b6113a2565b005b610471611556565b60405161047e9190614264565b60405180910390f35b6104a1600480360381019061049c919061477a565b61155d565b005b6104bd60048036038101906104b89190613e52565b611573565b6040516104ca9190614898565b60405180910390f35b6104ed60048036038101906104e89190613e52565b61167e565b6040516104fa9190613d7c565b60405180910390f35b61051d60048036038101906105189190614228565b61169c565b60405161052a9190613d7c565b60405180910390f35b61053b6116c0565b6040516105489190614264565b60405180910390f35b61056b6004803603810190610566919061434e565b6116e4565b005b61057561170d565b6040516105829190614264565b60405180910390f35b6105a560048036038101906105a091906148ba565b611731565b6040516105b29190613e37565b60405180910390f35b6105d560048036038101906105d091906148fa565b6117c5565b005b6105f160048036038101906105ec9190614991565b611866565b005b61060d60048036038101906106089190614a85565b611903565b005b60008073ffffffffffffffffffffffffffffffffffffffff168373ffffffffffffffffffffffffffffffffffffffff161415610680576040517f08c379a000000000000000000000000000000000000000000000000000000000815260040161067790614b40565b60405180910390fd5b60c9600083815260200190815260200160002060008473ffffffffffffffffffffffffffffffffffffffff1673ffffffffffffffffffffffffffffffffffffffff16815260200190815260200160002054905092915050565b60006107077f29d731d3408154d88767b3cc154402235536e59ff0133452471341f619d4b2a960001b6119f1565b6107337f0d65fae6d1b9b11d63aa4424c9c7a0b640e870a1e7a3594e4a42597c56ac4d4a60001b6119f1565b61075f7f5a0021c94a4d508a2a332b52d5d518b6caced41912479df0bcc61aa875cbf27060001b6119f1565b610768826119f4565b9050919050565b606060cb805461077e90614b8f565b80601f01602080910402602001604051908101604052809291908181526020018280546107aa90614b8f565b80156107f75780601f106107cc576101008083540402835291602001916107f7565b820191906000526020600020905b8154815290600101906020018083116107da57829003601f168201915b50505050509050919050565b61082f7f2df75239193ce9a8230cc717e2ef3d55b91765c4b7476df716a99a702d267e4560001b6119f1565b61085b7fbad47f8855ae2c03c74fe6b5d0743b35c696ec418270723dc9de29867c6f88c360001b6119f1565b6108877fbea10f102bf2d2f3c82ab163dca363bd8871bbb2bf045ab52bed29e1b1aa7c1560001b6119f1565b60008180602001905181019061089d9190614bd6565b90506108cb7f913558e985d1ebf41b4ef035b0f73a69a9b39b30f27f09718c2599d6c5c7932060001b6119f1565b6108f77fb3cef23f54526a227d444193375ab81ca59dcd45edcca58bb9df145a40cc4e8560001b6119f1565b60005b8451811015610b115761092f7fe8c1d9e194676b161b41c1fb47bd211dd66437da48aee0f8147f06dbf2138e4e60001b6119f1565b61095b7f6de2e989fa907d7b2a89213288f4a43ee07fcc39ff6d38dc567773c27ee2f9c160001b6119f1565b60008482815181106109705761096f614c03565b5b602002602001015114156109db576109aa7fd59fa19d3c6be210cde02debe0d231eaa5ac4786eaa3f8555ac59fa754c1ad3c60001b6119f1565b6109d67fa24e96daaa098a124d434ca1e9484d81b29be09cc52f7eda6fe2e9f2d8f2406a60001b6119f1565b610b11565b610a077f32ca99b5066a951790bcee0a9e87f32d3c80f77d4739c0602f421c7821a4dbbe60001b6119f1565b610a337f52f1e52c488e12d299c79e353252af3c985521bf81e46cd53a0210cbbaeed08f60001b6119f1565b610a5f7f30f5b4ebe23523474417a8705cc7ffd6f7da2e3345160ee5b03686357d828e3e60001b6119f1565b6101f560006101f65481526020019081526020016000206040518060400160405280878481518110610a9457610a93614c03565b5b60200260200101518152602001868481518110610ab457610ab3614c03565b5b60200260200101518152509080600181540180825580915050600190039060005260206000209060020201600090919091909150600082015181600001556020820151816001015550508080610b0990614c61565b9150506108fa565b50610b3e7fcc42afac8343731e0eb32d9bcb44b9cacb0c9c7b4f5e0e36341f3aa186cb683160001b6119f1565b610b6a7f89eaed43694933b430bcd6143459a85335cddb44204c2c21a6afeb1b412d25b560001b6119f1565b610b79856101f6548385610fc2565b610ba57fe273e2a2e2b285a17a030e654ed2ba3a0253f4faf51c3763d9ce42754710f44e60001b6119f1565b610bd17f1eaa467a28b36b32253cb133f0d60d3ae38bc0bcfb293d20677547e9ed39fc1660001b6119f1565b60016101f66000828254610be59190614caa565b9250508190556101f6819055505050505050565b600060656000838152602001908152602001600020600101549050919050565b610c21611a06565b73ffffffffffffffffffffffffffffffffffffffff168573ffffffffffffffffffffffffffffffffffffffff161480610c675750610c6685610c61611a06565b611731565b5b610ca6576040517f08c379a0000000000000000000000000000000000000000000000000000000008152600401610c9d90614d72565b60405180910390fd5b610cb38585858585611a0e565b5050505050565b610cc382610bf9565b610cd481610ccf611a06565b611d25565b610cde8383611dc2565b505050565b610ceb611a06565b73ffffffffffffffffffffffffffffffffffffffff168173ffffffffffffffffffffffffffffffffffffffff1614610d58576040517f08c379a0000000000000000000000000000000000000000000000000000000008152600401610d4f90614e04565b60405180910390fd5b610d628282611df6565b5050565b610d977f65d7a28e3265b37a6474929f336521b332c1681b933f6cb9f3376673440d862a610d92611a06565b611337565b610dd6576040517f08c379a0000000000000000000000000000000000000000000000000000000008152600401610dcd90614e96565b60405180910390fd5b610dde611e2a565b565b60608151835114610e26576040517f08c379a0000000000000000000000000000000000000000000000000000000008152600401610e1d90614f28565b60405180910390fd5b6000835167ffffffffffffffff811115610e4357610e42613f3f565b5b604051908082528060200260200182016040528015610e715781602001602082028036833780820191505090505b50905060005b8451811015610eee57610ebe858281518110610e9657610e95614c03565b5b6020026020010151858381518110610eb157610eb0614c03565b5b602002602001015161060f565b828281518110610ed157610ed0614c03565b5b60200260200101818152505080610ee790614c61565b9050610e77565b508091505092915050565b600080610f058361167e565b119050919050565b600061012d60009054906101000a900460ff16905090565b610f2d611a06565b73ffffffffffffffffffffffffffffffffffffffff168373ffffffffffffffffffffffffffffffffffffffff161480610f735750610f7283610f6d611a06565b611731565b5b610fb2576040517f08c379a0000000000000000000000000000000000000000000000000000000008152600401610fa990614fba565b60405180910390fd5b610fbd838383611ecd565b505050565b610ff37f9f2df0fed2c77648de5860a4cc508cd0818c85b8b8a1ab4ceeef8d981c8956a6610fee611a06565b611337565b611032576040517f08c379a00000000000000000000000000000000000000000000000000000000081526004016110299061504c565b60405180910390fd5b61103e84848484612180565b50505050565b600060019054906101000a900460ff1661106c5760008054906101000a900460ff1615611075565b611074612317565b5b6110b4576040517f08c379a00000000000000000000000000000000000000000000000000000000081526004016110ab906150de565b60405180910390fd5b60008060019054906101000a900460ff161590508015611104576001600060016101000a81548160ff02191690831515021790555060016000806101000a81548160ff0219169083151502179055505b6111307fac3e9157bc7c31197c1a29d172f17f58202fd967a79850f7d494c4d186adf04c60001b6119f1565b61115c7fbff9ce2363945611902093eb3300264d971febd1a8a4018b2efa4784bef7043c60001b6119f1565b6111887fe0a057ebb313c18142a5d9e00a807f16256d55dc872f69be90fa2de3f9a85dde60001b6119f1565b6111a96040518060600160405280602a8152602001615dfa602a9139611903565b6111d57f66e969ea9001f0c1fca8a708ac0b7ed13ca45ce070ab2d4a82b6848dd5f8489c60001b6119f1565b6112017ffff1130a572c95beefb642ca3ab7bb2f8749eadf0a4d3f6ccb973e613ebecbe060001b6119f1565b611209612328565b6112357f961b95d1616bdbc0cb74b08e931ca50e98fc7f7a6b378314a0279e772f97d26b60001b6119f1565b6112617f2d7a46784fa51f05ddc64e447fcf1f891d3e606b571974f8fe93a09535573d8f60001b6119f1565b60006101f681905550801561128b5760008060016101000a81548160ff0219169083151502179055505b50565b6112bf7f65d7a28e3265b37a6474929f336521b332c1681b933f6cb9f3376673440d862a6112ba611a06565b611337565b6112fe576040517f08c379a00000000000000000000000000000000000000000000000000000000081526004016112f590615170565b60405180910390fd5b611306612379565b565b600061132f826097600086815260200190815260200160002061241d90919063ffffffff16565b905092915050565b60006065600084815260200190815260200160002060000160008373ffffffffffffffffffffffffffffffffffffffff1673ffffffffffffffffffffffffffffffffffffffff16815260200190815260200160002060009054906101000a900460ff16905092915050565b6113ce7f78a3be52224d8ec46f61f8de37b4cc81b3e46067fa07aadd294ddb6827d9f7a260001b6119f1565b6113fa7fc1f89ac2b3dbd5411b992096e24afebec2d3a995b60592277c34e31fcee6175060001b6119f1565b6114267fc9681971328d59107d2bb5033f79d1b9f2c723c988041750ac3e52fd2b90f74060001b6119f1565b6114527f2f7f80fbeb98f2da5cd4ea259e8eeeb4bc139cce63b03ab9f291a67cabdd497360001b6119f1565b6114666000801b611461611a06565b611337565b6114a5576040517f08c379a000000000000000000000000000000000000000000000000000000000815260040161149c906151dc565b60405180910390fd5b6114d17fee201f532ea757cc455512cfdccdd6f23ddc3fa5601e77434aa957504e14e67c60001b6119f1565b6114fd7f63e8b3173efc445a35f303178dc2399fbb6209e07fb304d3d26a1c044895039360001b6119f1565b6115297f3d95169d6caa80dbeb81a29fa2f87497c22135927232b1f357d2c476f3e211b360001b6119f1565b6115537f9f2df0fed2c77648de5860a4cc508cd0818c85b8b8a1ab4ceeef8d981c8956a682612437565b50565b6000801b81565b61156f611568611a06565b8383612445565b5050565b60606115a17f1fa7cbccca28e57e5d1a0652878ae36d3d6e21c95f73d5b69b7ca18c5eea563460001b6119f1565b6115cd7f1de1c9de11d3fe19fd9dbe02808cc379cff0f0cd8c93b7c14cf7d23db271fcf960001b6119f1565b6115f97fa1630118679bede6963e05fd74f33ae0697006f7e7ef74b4b1aa110edf43283160001b6119f1565b6101f56000838152602001908152602001600020805480602002602001604051908101604052809291908181526020016000905b828210156116735783829060005260206000209060020201604051806040016040529081600082015481526020016001820154815250508152602001906001019061162d565b505050509050919050565b60006101c36000838152602001908152602001600020549050919050565b60006116b9609760008481526020019081526020016000206125b2565b9050919050565b7f9f2df0fed2c77648de5860a4cc508cd0818c85b8b8a1ab4ceeef8d981c8956a681565b6116ed82610bf9565b6116fe816116f9611a06565b611d25565b6117088383611df6565b505050565b7f65d7a28e3265b37a6474929f336521b332c1681b933f6cb9f3376673440d862a81565b600060ca60008473ffffffffffffffffffffffffffffffffffffffff1673ffffffffffffffffffffffffffffffffffffffff16815260200190815260200160002060008373ffffffffffffffffffffffffffffffffffffffff1673ffffffffffffffffffffffffffffffffffffffff16815260200190815260200160002060009054906101000a900460ff16905092915050565b6117cd611a06565b73ffffffffffffffffffffffffffffffffffffffff168573ffffffffffffffffffffffffffffffffffffffff16148061181357506118128561180d611a06565b611731565b5b611852576040517f08c379a000000000000000000000000000000000000000000000000000000000815260040161184990614fba565b60405180910390fd5b61185f85858585856125c7565b5050505050565b61186e611a06565b73ffffffffffffffffffffffffffffffffffffffff168373ffffffffffffffffffffffffffffffffffffffff1614806118b457506118b3836118ae611a06565b611731565b5b6118f3576040517f08c379a00000000000000000000000000000000000000000000000000000000081526004016118ea90614fba565b60405180910390fd5b6118fe83838361284c565b505050565b600060019054906101000a900460ff1661192b5760008054906101000a900460ff1615611934565b611933612317565b5b611973576040517f08c379a000000000000000000000000000000000000000000000000000000000815260040161196a906150de565b60405180910390fd5b60008060019054906101000a900460ff1615905080156119c3576001600060016101000a81548160ff02191690831515021790555060016000806101000a81548160ff0219169083151502179055505b6119cc82612a6b565b80156119ed5760008060016101000a81548160ff0219169083151502179055505b5050565b50565b60006119ff82612ad7565b9050919050565b600033905090565b8151835114611a52576040517f08c379a0000000000000000000000000000000000000000000000000000000008152600401611a499061526e565b60405180910390fd5b600073ffffffffffffffffffffffffffffffffffffffff168473ffffffffffffffffffffffffffffffffffffffff161415611ac2576040517f08c379a0000000000000000000000000000000000000000000000000000000008152600401611ab990615300565b60405180910390fd5b6000611acc611a06565b9050611adc818787878787612bb9565b60005b8451811015611c90576000858281518110611afd57611afc614c03565b5b602002602001015190506000858381518110611b1c57611b1b614c03565b5b60200260200101519050600060c9600084815260200190815260200160002060008b73ffffffffffffffffffffffffffffffffffffffff1673ffffffffffffffffffffffffffffffffffffffff16815260200190815260200160002054905081811015611bbe576040517f08c379a0000000000000000000000000000000000000000000000000000000008152600401611bb590615392565b60405180910390fd5b81810360c9600085815260200190815260200160002060008c73ffffffffffffffffffffffffffffffffffffffff1673ffffffffffffffffffffffffffffffffffffffff168152602001908152602001600020819055508160c9600085815260200190815260200160002060008b73ffffffffffffffffffffffffffffffffffffffff1673ffffffffffffffffffffffffffffffffffffffff1681526020019081526020016000206000828254611c759190614caa565b9250508190555050505080611c8990614c61565b9050611adf565b508473ffffffffffffffffffffffffffffffffffffffff168673ffffffffffffffffffffffffffffffffffffffff168273ffffffffffffffffffffffffffffffffffffffff167f4a39dc06d4c0dbc64b70af90fd698a233a518aa5d07e595d983b8c0526c8f7fb8787604051611d079291906153b2565b60405180910390a4611d1d818787878787612c53565b505050505050565b611d2f8282611337565b611dbe57611d548173ffffffffffffffffffffffffffffffffffffffff166014612e2b565b611d628360001c6020612e2b565b604051602001611d739291906154bd565b6040516020818303038152906040526040517f08c379a0000000000000000000000000000000000000000000000000000000008152600401611db59190613f18565b60405180910390fd5b5050565b611dcc8282613067565b611df1816097600085815260200190815260200160002061314890919063ffffffff16565b505050565b611e008282613178565b611e25816097600085815260200190815260200160002061325a90919063ffffffff16565b505050565b611e32610f0d565b611e71576040517f08c379a0000000000000000000000000000000000000000000000000000000008152600401611e6890615543565b60405180910390fd5b600061012d60006101000a81548160ff0219169083151502179055507f5db9ee0a495bf2e6ff9c91a7834c1ba4fdd244a5e8aa4e537bd38aeae4b073aa611eb6611a06565b604051611ec39190614706565b60405180910390a1565b600073ffffffffffffffffffffffffffffffffffffffff168373ffffffffffffffffffffffffffffffffffffffff161415611f3d576040517f08c379a0000000000000000000000000000000000000000000000000000000008152600401611f34906155d5565b60405180910390fd5b8051825114611f81576040517f08c379a0000000000000000000000000000000000000000000000000000000008152600401611f789061526e565b60405180910390fd5b6000611f8b611a06565b9050611fab81856000868660405180602001604052806000815250612bb9565b60005b83518110156120fa576000848281518110611fcc57611fcb614c03565b5b602002602001015190506000848381518110611feb57611fea614c03565b5b60200260200101519050600060c9600084815260200190815260200160002060008973ffffffffffffffffffffffffffffffffffffffff1673ffffffffffffffffffffffffffffffffffffffff1681526020019081526020016000205490508181101561208d576040517f08c379a000000000000000000000000000000000000000000000000000000000815260040161208490615667565b60405180910390fd5b81810360c9600085815260200190815260200160002060008a73ffffffffffffffffffffffffffffffffffffffff1673ffffffffffffffffffffffffffffffffffffffff1681526020019081526020016000208190555050505080806120f290614c61565b915050611fae565b50600073ffffffffffffffffffffffffffffffffffffffff168473ffffffffffffffffffffffffffffffffffffffff168273ffffffffffffffffffffffffffffffffffffffff167f4a39dc06d4c0dbc64b70af90fd698a233a518aa5d07e595d983b8c0526c8f7fb86866040516121729291906153b2565b60405180910390a450505050565b600073ffffffffffffffffffffffffffffffffffffffff168473ffffffffffffffffffffffffffffffffffffffff1614156121f0576040517f08c379a00000000000000000000000000000000000000000000000000000000081526004016121e7906156f9565b60405180910390fd5b60006121fa611a06565b905061221b8160008761220c8861328a565b6122158861328a565b87612bb9565b8260c9600086815260200190815260200160002060008773ffffffffffffffffffffffffffffffffffffffff1673ffffffffffffffffffffffffffffffffffffffff168152602001908152602001600020600082825461227b9190614caa565b925050819055508473ffffffffffffffffffffffffffffffffffffffff16600073ffffffffffffffffffffffffffffffffffffffff168273ffffffffffffffffffffffffffffffffffffffff167fc3d58168c5ae7397731d063d5bbf3d657854427343f4c083240f7aacaa2d0f6287876040516122f9929190615719565b60405180910390a461231081600087878787613304565b5050505050565b6000612322306134dc565b15905090565b600060019054906101000a900460ff16612377576040517f08c379a000000000000000000000000000000000000000000000000000000000815260040161236e906157b4565b60405180910390fd5b565b612381610f0d565b156123c1576040517f08c379a00000000000000000000000000000000000000000000000000000000081526004016123b890615820565b60405180910390fd5b600161012d60006101000a81548160ff0219169083151502179055507f62e78cea01bee320cd4e420270b5ea74000d11b0c9f74754ebdbfc544b05a258612406611a06565b6040516124139190614706565b60405180910390a1565b600061242c83600001836134ff565b60001c905092915050565b6124418282611dc2565b5050565b8173ffffffffffffffffffffffffffffffffffffffff168373ffffffffffffffffffffffffffffffffffffffff1614156124b4576040517f08c379a00000000000000000000000000000000000000000000000000000000081526004016124ab906158b2565b60405180910390fd5b8060ca60008573ffffffffffffffffffffffffffffffffffffffff1673ffffffffffffffffffffffffffffffffffffffff16815260200190815260200160002060008473ffffffffffffffffffffffffffffffffffffffff1673ffffffffffffffffffffffffffffffffffffffff16815260200190815260200160002060006101000a81548160ff0219169083151502179055508173ffffffffffffffffffffffffffffffffffffffff168373ffffffffffffffffffffffffffffffffffffffff167f17307eab39ab6107e8899845ad3d59bd9653f200f220920489ca2b5937696c31836040516125a59190613e37565b60405180910390a3505050565b60006125c08260000161352a565b9050919050565b600073ffffffffffffffffffffffffffffffffffffffff168473ffffffffffffffffffffffffffffffffffffffff161415612637576040517f08c379a000000000000000000000000000000000000000000000000000000000815260040161262e90615300565b60405180910390fd5b6000612641611a06565b90506126618187876126528861328a565b61265b8861328a565b87612bb9565b600060c9600086815260200190815260200160002060008873ffffffffffffffffffffffffffffffffffffffff1673ffffffffffffffffffffffffffffffffffffffff168152602001908152602001600020549050838110156126f9576040517f08c379a00000000000000000000000000000000000000000000000000000000081526004016126f090615392565b60405180910390fd5b83810360c9600087815260200190815260200160002060008973ffffffffffffffffffffffffffffffffffffffff1673ffffffffffffffffffffffffffffffffffffffff168152602001908152602001600020819055508360c9600087815260200190815260200160002060008873ffffffffffffffffffffffffffffffffffffffff1673ffffffffffffffffffffffffffffffffffffffff16815260200190815260200160002060008282546127b09190614caa565b925050819055508573ffffffffffffffffffffffffffffffffffffffff168773ffffffffffffffffffffffffffffffffffffffff168373ffffffffffffffffffffffffffffffffffffffff167fc3d58168c5ae7397731d063d5bbf3d657854427343f4c083240f7aacaa2d0f62888860405161282d929190615719565b60405180910390a4612843828888888888613304565b50505050505050565b600073ffffffffffffffffffffffffffffffffffffffff168373ffffffffffffffffffffffffffffffffffffffff1614156128bc576040517f08c379a00000000000000000000000000000000000000000000000000000000081526004016128b3906155d5565b60405180910390fd5b60006128c6611a06565b90506128f6818560006128d88761328a565b6128e18761328a565b60405180602001604052806000815250612bb9565b600060c9600085815260200190815260200160002060008673ffffffffffffffffffffffffffffffffffffffff1673ffffffffffffffffffffffffffffffffffffffff1681526020019081526020016000205490508281101561298e576040517f08c379a000000000000000000000000000000000000000000000000000000000815260040161298590615667565b60405180910390fd5b82810360c9600086815260200190815260200160002060008773ffffffffffffffffffffffffffffffffffffffff1673ffffffffffffffffffffffffffffffffffffffff16815260200190815260200160002081905550600073ffffffffffffffffffffffffffffffffffffffff168573ffffffffffffffffffffffffffffffffffffffff168373ffffffffffffffffffffffffffffffffffffffff167fc3d58168c5ae7397731d063d5bbf3d657854427343f4c083240f7aacaa2d0f628787604051612a5c929190615719565b60405180910390a45050505050565b600060019054906101000a900460ff16612aba576040517f08c379a0000000000000000000000000000000000000000000000000000000008152600401612ab1906157b4565b60405180910390fd5b612ac38161353b565b612acb613596565b612ad481613603565b50565b60007fd9b67a26000000000000000000000000000000000000000000000000000000007bffffffffffffffffffffffffffffffffffffffffffffffffffffffff1916827bffffffffffffffffffffffffffffffffffffffffffffffffffffffff19161480612ba257507f0e89341c000000000000000000000000000000000000000000000000000000007bffffffffffffffffffffffffffffffffffffffffffffffffffffffff1916827bffffffffffffffffffffffffffffffffffffffffffffffffffffffff1916145b80612bb25750612bb1826136cb565b5b9050919050565b612be57f4b2f0c036069e238a161ceeaf07b5c7f6933daaac09083d1c922e0bbb5f08bb060001b6119f1565b612c117fcf8f5238d2562fc726dee3a788e7f0f70c6511cb954eef69990d59274e91ddd360001b6119f1565b612c3d7ffcfb762662de01a82131b5db70ac6b4c4f2007d977da3b0642068915dff5df2560001b6119f1565b612c4b868686868686613745565b505050505050565b612c728473ffffffffffffffffffffffffffffffffffffffff166134dc565b15612e23578373ffffffffffffffffffffffffffffffffffffffff1663bc197c8187878686866040518663ffffffff1660e01b8152600401612cb8959493929190615927565b6020604051808303816000875af1925050508015612cf457506040513d601f19601f82011682018060405250810190612cf191906159a4565b60015b612d9a57612d006159de565b806308c379a01415612d5d5750612d15615a00565b80612d205750612d5f565b806040517f08c379a0000000000000000000000000000000000000000000000000000000008152600401612d549190613f18565b60405180910390fd5b505b6040517f08c379a0000000000000000000000000000000000000000000000000000000008152600401612d9190615b08565b60405180910390fd5b63bc197c8160e01b7bffffffffffffffffffffffffffffffffffffffffffffffffffffffff1916817bffffffffffffffffffffffffffffffffffffffffffffffffffffffff191614612e21576040517f08c379a0000000000000000000000000000000000000000000000000000000008152600401612e1890615b9a565b60405180910390fd5b505b505050505050565b606060006002836002612e3e9190615bba565b612e489190614caa565b67ffffffffffffffff811115612e6157612e60613f3f565b5b6040519080825280601f01601f191660200182016040528015612e935781602001600182028036833780820191505090505b5090507f300000000000000000000000000000000000000000000000000000000000000081600081518110612ecb57612eca614c03565b5b60200101907effffffffffffffffffffffffffffffffffffffffffffffffffffffffffffff1916908160001a9053507f780000000000000000000000000000000000000000000000000000000000000081600181518110612f2f57612f2e614c03565b5b60200101907effffffffffffffffffffffffffffffffffffffffffffffffffffffffffffff1916908160001a90535060006001846002612f6f9190615bba565b612f799190614caa565b90505b6001811115613019577f3031323334353637383961626364656600000000000000000000000000000000600f861660108110612fbb57612fba614c03565b5b1a60f81b828281518110612fd257612fd1614c03565b5b60200101907effffffffffffffffffffffffffffffffffffffffffffffffffffffffffffff1916908160001a905350600485901c94508061301290615c14565b9050612f7c565b506000841461305d576040517f08c379a000000000000000000000000000000000000000000000000000000000815260040161305490615c8a565b60405180910390fd5b8091505092915050565b6130718282611337565b6131445760016065600084815260200190815260200160002060000160008373ffffffffffffffffffffffffffffffffffffffff1673ffffffffffffffffffffffffffffffffffffffff16815260200190815260200160002060006101000a81548160ff0219169083151502179055506130e9611a06565b73ffffffffffffffffffffffffffffffffffffffff168173ffffffffffffffffffffffffffffffffffffffff16837f2f8788117e7eff1d82e926ec794901d17c78024a50270940304540a733656f0d60405160405180910390a45b5050565b6000613170836000018373ffffffffffffffffffffffffffffffffffffffff1660001b6138c1565b905092915050565b6131828282611337565b156132565760006065600084815260200190815260200160002060000160008373ffffffffffffffffffffffffffffffffffffffff1673ffffffffffffffffffffffffffffffffffffffff16815260200190815260200160002060006101000a81548160ff0219169083151502179055506131fb611a06565b73ffffffffffffffffffffffffffffffffffffffff168173ffffffffffffffffffffffffffffffffffffffff16837ff6391f5c32d9c69d2a47ea670b442974b53935d1edc7fd64eb21e047a839171b60405160405180910390a45b5050565b6000613282836000018373ffffffffffffffffffffffffffffffffffffffff1660001b613931565b905092915050565b60606000600167ffffffffffffffff8111156132a9576132a8613f3f565b5b6040519080825280602002602001820160405280156132d75781602001602082028036833780820191505090505b50905082816000815181106132ef576132ee614c03565b5b60200260200101818152505080915050919050565b6133238473ffffffffffffffffffffffffffffffffffffffff166134dc565b156134d4578373ffffffffffffffffffffffffffffffffffffffff1663f23a6e6187878686866040518663ffffffff1660e01b8152600401613369959493929190615caa565b6020604051808303816000875af19250505080156133a557506040513d601f19601f820116820180604052508101906133a291906159a4565b60015b61344b576133b16159de565b806308c379a0141561340e57506133c6615a00565b806133d15750613410565b806040517f08c379a00000000000000000000000000000000000000000000000000000000081526004016134059190613f18565b60405180910390fd5b505b6040517f08c379a000000000000000000000000000000000000000000000000000000000815260040161344290615b08565b60405180910390fd5b63f23a6e6160e01b7bffffffffffffffffffffffffffffffffffffffffffffffffffffffff1916817bffffffffffffffffffffffffffffffffffffffffffffffffffffffff1916146134d2576040517f08c379a00000000000000000000000000000000000000000000000000000000081526004016134c990615b9a565b60405180910390fd5b505b505050505050565b6000808273ffffffffffffffffffffffffffffffffffffffff163b119050919050565b600082600001828154811061351757613516614c03565b5b9060005260206000200154905092915050565b600081600001805490509050919050565b600060019054906101000a900460ff1661358a576040517f08c379a0000000000000000000000000000000000000000000000000000000008152600401613581906157b4565b60405180910390fd5b61359381613a45565b50565b600060019054906101000a900460ff166135e5576040517f08c379a00000000000000000000000000000000000000000000000000000000081526004016135dc906157b4565b60405180910390fd5b600061012d60006101000a81548160ff021916908315150217905550565b600060019054906101000a900460ff16613652576040517f08c379a0000000000000000000000000000000000000000000000000000000008152600401613649906157b4565b60405180910390fd5b6136666000801b613661611a06565b612437565b6136977f9f2df0fed2c77648de5860a4cc508cd0818c85b8b8a1ab4ceeef8d981c8956a6613692611a06565b612437565b6136c87f65d7a28e3265b37a6474929f336521b332c1681b933f6cb9f3376673440d862a6136c3611a06565b612437565b50565b60007f5a05180f000000000000000000000000000000000000000000000000000000007bffffffffffffffffffffffffffffffffffffffffffffffffffffffff1916827bffffffffffffffffffffffffffffffffffffffffffffffffffffffff1916148061373e575061373d82613a5f565b5b9050919050565b613753868686868686613ad9565b600073ffffffffffffffffffffffffffffffffffffffff168573ffffffffffffffffffffffffffffffffffffffff1614156138065760005b8351811015613804578281815181106137a7576137a6614c03565b5b60200260200101516101c360008684815181106137c7576137c6614c03565b5b6020026020010151815260200190815260200160002060008282546137ec9190614caa565b92505081905550806137fd90614c61565b905061378b565b505b600073ffffffffffffffffffffffffffffffffffffffff168473ffffffffffffffffffffffffffffffffffffffff1614156138b95760005b83518110156138b75782818151811061385a57613859614c03565b5b60200260200101516101c3600086848151811061387a57613879614c03565b5b60200260200101518152602001908152602001600020600082825461389f9190615d04565b92505081905550806138b090614c61565b905061383e565b505b505050505050565b60006138cd8383613aef565b61392657826000018290806001815401808255809150506001900390600052602060002001600090919091909150558260000180549050836001016000848152602001908152602001600020819055506001905061392b565b600090505b92915050565b60008083600101600084815260200190815260200160002054905060008114613a395760006001826139639190615d04565b905060006001866000018054905061397b9190615d04565b90508181146139ea57600086600001828154811061399c5761399b614c03565b5b90600052602060002001549050808760000184815481106139c0576139bf614c03565b5b90600052602060002001819055508387600101600083815260200190815260200160002081905550505b856000018054806139fe576139fd615d38565b5b600190038181906000526020600020016000905590558560010160008681526020019081526020016000206000905560019350505050613a3f565b60009150505b92915050565b8060cb9080519060200190613a5b929190613be2565b5050565b60007f7965db0b000000000000000000000000000000000000000000000000000000007bffffffffffffffffffffffffffffffffffffffffffffffffffffffff1916827bffffffffffffffffffffffffffffffffffffffffffffffffffffffff19161480613ad25750613ad182613b12565b5b9050919050565b613ae7868686868686613b7c565b505050505050565b600080836001016000848152602001908152602001600020541415905092915050565b60007f01ffc9a7000000000000000000000000000000000000000000000000000000007bffffffffffffffffffffffffffffffffffffffffffffffffffffffff1916827bffffffffffffffffffffffffffffffffffffffffffffffffffffffff1916149050919050565b613b8a868686868686613bda565b613b92610f0d565b15613bd2576040517f08c379a0000000000000000000000000000000000000000000000000000000008152600401613bc990615dd9565b60405180910390fd5b505050505050565b505050505050565b828054613bee90614b8f565b90600052602060002090601f016020900481019282613c105760008555613c57565b82601f10613c2957805160ff1916838001178555613c57565b82800160010185558215613c57579182015b82811115613c56578251825591602001919060010190613c3b565b5b509050613c649190613c68565b5090565b5b80821115613c81576000816000905550600101613c69565b5090565b6000604051905090565b600080fd5b600080fd5b600073ffffffffffffffffffffffffffffffffffffffff82169050919050565b6000613cc482613c99565b9050919050565b613cd481613cb9565b8114613cdf57600080fd5b50565b600081359050613cf181613ccb565b92915050565b6000819050919050565b613d0a81613cf7565b8114613d1557600080fd5b50565b600081359050613d2781613d01565b92915050565b60008060408385031215613d4457613d43613c8f565b5b6000613d5285828601613ce2565b9250506020613d6385828601613d18565b9150509250929050565b613d7681613cf7565b82525050565b6000602082019050613d916000830184613d6d565b92915050565b60007fffffffff0000000000000000000000000000000000000000000000000000000082169050919050565b613dcc81613d97565b8114613dd757600080fd5b50565b600081359050613de981613dc3565b92915050565b600060208284031215613e0557613e04613c8f565b5b6000613e1384828501613dda565b91505092915050565b60008115159050919050565b613e3181613e1c565b82525050565b6000602082019050613e4c6000830184613e28565b92915050565b600060208284031215613e6857613e67613c8f565b5b6000613e7684828501613d18565b91505092915050565b600081519050919050565b600082825260208201905092915050565b60005b83811015613eb9578082015181840152602081019050613e9e565b83811115613ec8576000848401525b50505050565b6000601f19601f8301169050919050565b6000613eea82613e7f565b613ef48185613e8a565b9350613f04818560208601613e9b565b613f0d81613ece565b840191505092915050565b60006020820190508181036000830152613f328184613edf565b905092915050565b600080fd5b7f4e487b7100000000000000000000000000000000000000000000000000000000600052604160045260246000fd5b613f7782613ece565b810181811067ffffffffffffffff82111715613f9657613f95613f3f565b5b80604052505050565b6000613fa9613c85565b9050613fb58282613f6e565b919050565b600067ffffffffffffffff821115613fd557613fd4613f3f565b5b602082029050602081019050919050565b600080fd5b6000613ffe613ff984613fba565b613f9f565b9050808382526020820190506020840283018581111561402157614020613fe6565b5b835b8181101561404a57806140368882613d18565b845260208401935050602081019050614023565b5050509392505050565b600082601f83011261406957614068613f3a565b5b8135614079848260208601613feb565b91505092915050565b600080fd5b600067ffffffffffffffff8211156140a2576140a1613f3f565b5b6140ab82613ece565b9050602081019050919050565b82818337600083830152505050565b60006140da6140d584614087565b613f9f565b9050828152602081018484840111156140f6576140f5614082565b5b6141018482856140b8565b509392505050565b600082601f83011261411e5761411d613f3a565b5b813561412e8482602086016140c7565b91505092915050565b6000806000806080858703121561415157614150613c8f565b5b600061415f87828801613ce2565b945050602085013567ffffffffffffffff8111156141805761417f613c94565b5b61418c87828801614054565b935050604085013567ffffffffffffffff8111156141ad576141ac613c94565b5b6141b987828801614054565b925050606085013567ffffffffffffffff8111156141da576141d9613c94565b5b6141e687828801614109565b91505092959194509250565b6000819050919050565b614205816141f2565b811461421057600080fd5b50565b600081359050614222816141fc565b92915050565b60006020828403121561423e5761423d613c8f565b5b600061424c84828501614213565b91505092915050565b61425e816141f2565b82525050565b60006020820190506142796000830184614255565b92915050565b600080600080600060a0868803121561429b5761429a613c8f565b5b60006142a988828901613ce2565b95505060206142ba88828901613ce2565b945050604086013567ffffffffffffffff8111156142db576142da613c94565b5b6142e788828901614054565b935050606086013567ffffffffffffffff81111561430857614307613c94565b5b61431488828901614054565b925050608086013567ffffffffffffffff81111561433557614334613c94565b5b61434188828901614109565b9150509295509295909350565b6000806040838503121561436557614364613c8f565b5b600061437385828601614213565b925050602061438485828601613ce2565b9150509250929050565b600067ffffffffffffffff8211156143a9576143a8613f3f565b5b602082029050602081019050919050565b60006143cd6143c88461438e565b613f9f565b905080838252602082019050602084028301858111156143f0576143ef613fe6565b5b835b8181101561441957806144058882613ce2565b8452602084019350506020810190506143f2565b5050509392505050565b600082601f83011261443857614437613f3a565b5b81356144488482602086016143ba565b91505092915050565b6000806040838503121561446857614467613c8f565b5b600083013567ffffffffffffffff81111561448657614485613c94565b5b61449285828601614423565b925050602083013567ffffffffffffffff8111156144b3576144b2613c94565b5b6144bf85828601614054565b9150509250929050565b600081519050919050565b600082825260208201905092915050565b6000819050602082019050919050565b6144fe81613cf7565b82525050565b600061451083836144f5565b60208301905092915050565b6000602082019050919050565b6000614534826144c9565b61453e81856144d4565b9350614549836144e5565b8060005b8381101561457a5781516145618882614504565b975061456c8361451c565b92505060018101905061454d565b5085935050505092915050565b600060208201905081810360008301526145a18184614529565b905092915050565b6000806000606084860312156145c2576145c1613c8f565b5b60006145d086828701613ce2565b935050602084013567ffffffffffffffff8111156145f1576145f0613c94565b5b6145fd86828701614054565b925050604084013567ffffffffffffffff81111561461e5761461d613c94565b5b61462a86828701614054565b9150509250925092565b6000806000806080858703121561464e5761464d613c8f565b5b600061465c87828801613ce2565b945050602061466d87828801613d18565b935050604061467e87828801613d18565b925050606085013567ffffffffffffffff81111561469f5761469e613c94565b5b6146ab87828801614109565b91505092959194509250565b600080604083850312156146ce576146cd613c8f565b5b60006146dc85828601614213565b92505060206146ed85828601613d18565b9150509250929050565b61470081613cb9565b82525050565b600060208201905061471b60008301846146f7565b92915050565b60006020828403121561473757614736613c8f565b5b600061474584828501613ce2565b91505092915050565b61475781613e1c565b811461476257600080fd5b50565b6000813590506147748161474e565b92915050565b6000806040838503121561479157614790613c8f565b5b600061479f85828601613ce2565b92505060206147b085828601614765565b9150509250929050565b600081519050919050565b600082825260208201905092915050565b6000819050602082019050919050565b6040820160008201516147fc60008501826144f5565b50602082015161480f60208501826144f5565b50505050565b600061482183836147e6565b60408301905092915050565b6000602082019050919050565b6000614845826147ba565b61484f81856147c5565b935061485a836147d6565b8060005b8381101561488b5781516148728882614815565b975061487d8361482d565b92505060018101905061485e565b5085935050505092915050565b600060208201905081810360008301526148b2818461483a565b905092915050565b600080604083850312156148d1576148d0613c8f565b5b60006148df85828601613ce2565b92505060206148f085828601613ce2565b9150509250929050565b600080600080600060a0868803121561491657614915613c8f565b5b600061492488828901613ce2565b955050602061493588828901613ce2565b945050604061494688828901613d18565b935050606061495788828901613d18565b925050608086013567ffffffffffffffff81111561497857614977613c94565b5b61498488828901614109565b9150509295509295909350565b6000806000606084860312156149aa576149a9613c8f565b5b60006149b886828701613ce2565b93505060206149c986828701613d18565b92505060406149da86828701613d18565b9150509250925092565b600067ffffffffffffffff8211156149ff576149fe613f3f565b5b614a0882613ece565b9050602081019050919050565b6000614a28614a23846149e4565b613f9f565b905082815260208101848484011115614a4457614a43614082565b5b614a4f8482856140b8565b509392505050565b600082601f830112614a6c57614a6b613f3a565b5b8135614a7c848260208601614a15565b91505092915050565b600060208284031215614a9b57614a9a613c8f565b5b600082013567ffffffffffffffff811115614ab957614ab8613c94565b5b614ac584828501614a57565b91505092915050565b7f455243313135353a2062616c616e636520717565727920666f7220746865207a60008201527f65726f2061646472657373000000000000000000000000000000000000000000602082015250565b6000614b2a602b83613e8a565b9150614b3582614ace565b604082019050919050565b60006020820190508181036000830152614b5981614b1d565b9050919050565b7f4e487b7100000000000000000000000000000000000000000000000000000000600052602260045260246000fd5b60006002820490506001821680614ba757607f821691505b60208210811415614bbb57614bba614b60565b5b50919050565b600081519050614bd081613d01565b92915050565b600060208284031215614bec57614beb613c8f565b5b6000614bfa84828501614bc1565b91505092915050565b7f4e487b7100000000000000000000000000000000000000000000000000000000600052603260045260246000fd5b7f4e487b7100000000000000000000000000000000000000000000000000000000600052601160045260246000fd5b6000614c6c82613cf7565b91507fffffffffffffffffffffffffffffffffffffffffffffffffffffffffffffffff821415614c9f57614c9e614c32565b5b600182019050919050565b6000614cb582613cf7565b9150614cc083613cf7565b9250827fffffffffffffffffffffffffffffffffffffffffffffffffffffffffffffffff03821115614cf557614cf4614c32565b5b828201905092915050565b7f455243313135353a207472616e736665722063616c6c6572206973206e6f742060008201527f6f776e6572206e6f7220617070726f7665640000000000000000000000000000602082015250565b6000614d5c603283613e8a565b9150614d6782614d00565b604082019050919050565b60006020820190508181036000830152614d8b81614d4f565b9050919050565b7f416363657373436f6e74726f6c3a2063616e206f6e6c792072656e6f756e636560008201527f20726f6c657320666f722073656c660000000000000000000000000000000000602082015250565b6000614dee602f83613e8a565b9150614df982614d92565b604082019050919050565b60006020820190508181036000830152614e1d81614de1565b9050919050565b7f455243313135355072657365744d696e7465725061757365723a206d7573742060008201527f686176652070617573657220726f6c6520746f20756e70617573650000000000602082015250565b6000614e80603b83613e8a565b9150614e8b82614e24565b604082019050919050565b60006020820190508181036000830152614eaf81614e73565b9050919050565b7f455243313135353a206163636f756e747320616e6420696473206c656e67746860008201527f206d69736d617463680000000000000000000000000000000000000000000000602082015250565b6000614f12602983613e8a565b9150614f1d82614eb6565b604082019050919050565b60006020820190508181036000830152614f4181614f05565b9050919050565b7f455243313135353a2063616c6c6572206973206e6f74206f776e6572206e6f7260008201527f20617070726f7665640000000000000000000000000000000000000000000000602082015250565b6000614fa4602983613e8a565b9150614faf82614f48565b604082019050919050565b60006020820190508181036000830152614fd381614f97565b9050919050565b7f455243313135355072657365744d696e7465725061757365723a206d7573742060008201527f68617665206d696e74657220726f6c6520746f206d696e740000000000000000602082015250565b6000615036603883613e8a565b915061504182614fda565b604082019050919050565b6000602082019050818103600083015261506581615029565b9050919050565b7f496e697469616c697a61626c653a20636f6e747261637420697320616c72656160008201527f647920696e697469616c697a6564000000000000000000000000000000000000602082015250565b60006150c8602e83613e8a565b91506150d38261506c565b604082019050919050565b600060208201905081810360008301526150f7816150bb565b9050919050565b7f455243313135355072657365744d696e7465725061757365723a206d7573742060008201527f686176652070617573657220726f6c6520746f20706175736500000000000000602082015250565b600061515a603983613e8a565b9150615165826150fe565b604082019050919050565b600060208201905081810360008301526151898161514d565b9050919050565b7f43657274696669636174653a206d697373696e67206d696e74657220726f6c65600082015250565b60006151c6602083613e8a565b91506151d182615190565b602082019050919050565b600060208201905081810360008301526151f5816151b9565b9050919050565b7f455243313135353a2069647320616e6420616d6f756e7473206c656e6774682060008201527f6d69736d61746368000000000000000000000000000000000000000000000000602082015250565b6000615258602883613e8a565b9150615263826151fc565b604082019050919050565b600060208201905081810360008301526152878161524b565b9050919050565b7f455243313135353a207472616e7366657220746f20746865207a65726f20616460008201527f6472657373000000000000000000000000000000000000000000000000000000602082015250565b60006152ea602583613e8a565b91506152f58261528e565b604082019050919050565b60006020820190508181036000830152615319816152dd565b9050919050565b7f455243313135353a20696e73756666696369656e742062616c616e636520666f60008201527f72207472616e7366657200000000000000000000000000000000000000000000602082015250565b600061537c602a83613e8a565b915061538782615320565b604082019050919050565b600060208201905081810360008301526153ab8161536f565b9050919050565b600060408201905081810360008301526153cc8185614529565b905081810360208301526153e08184614529565b90509392505050565b600081905092915050565b7f416363657373436f6e74726f6c3a206163636f756e7420000000000000000000600082015250565b600061542a6017836153e9565b9150615435826153f4565b601782019050919050565b600061544b82613e7f565b61545581856153e9565b9350615465818560208601613e9b565b80840191505092915050565b7f206973206d697373696e6720726f6c6520000000000000000000000000000000600082015250565b60006154a76011836153e9565b91506154b282615471565b601182019050919050565b60006154c88261541d565b91506154d48285615440565b91506154df8261549a565b91506154eb8284615440565b91508190509392505050565b7f5061757361626c653a206e6f7420706175736564000000000000000000000000600082015250565b600061552d601483613e8a565b9150615538826154f7565b602082019050919050565b6000602082019050818103600083015261555c81615520565b9050919050565b7f455243313135353a206275726e2066726f6d20746865207a65726f206164647260008201527f6573730000000000000000000000000000000000000000000000000000000000602082015250565b60006155bf602383613e8a565b91506155ca82615563565b604082019050919050565b600060208201905081810360008301526155ee816155b2565b9050919050565b7f455243313135353a206275726e20616d6f756e7420657863656564732062616c60008201527f616e636500000000000000000000000000000000000000000000000000000000602082015250565b6000615651602483613e8a565b915061565c826155f5565b604082019050919050565b6000602082019050818103600083015261568081615644565b9050919050565b7f455243313135353a206d696e7420746f20746865207a65726f2061646472657360008201527f7300000000000000000000000000000000000000000000000000000000000000602082015250565b60006156e3602183613e8a565b91506156ee82615687565b604082019050919050565b60006020820190508181036000830152615712816156d6565b9050919050565b600060408201905061572e6000830185613d6d565b61573b6020830184613d6d565b9392505050565b7f496e697469616c697a61626c653a20636f6e7472616374206973206e6f74206960008201527f6e697469616c697a696e67000000000000000000000000000000000000000000602082015250565b600061579e602b83613e8a565b91506157a982615742565b604082019050919050565b600060208201905081810360008301526157cd81615791565b9050919050565b7f5061757361626c653a2070617573656400000000000000000000000000000000600082015250565b600061580a601083613e8a565b9150615815826157d4565b602082019050919050565b60006020820190508181036000830152615839816157fd565b9050919050565b7f455243313135353a2073657474696e6720617070726f76616c2073746174757360008201527f20666f722073656c660000000000000000000000000000000000000000000000602082015250565b600061589c602983613e8a565b91506158a782615840565b604082019050919050565b600060208201905081810360008301526158cb8161588f565b9050919050565b600081519050919050565b600082825260208201905092915050565b60006158f9826158d2565b61590381856158dd565b9350615913818560208601613e9b565b61591c81613ece565b840191505092915050565b600060a08201905061593c60008301886146f7565b61594960208301876146f7565b818103604083015261595b8186614529565b9050818103606083015261596f8185614529565b9050818103608083015261598381846158ee565b90509695505050505050565b60008151905061599e81613dc3565b92915050565b6000602082840312156159ba576159b9613c8f565b5b60006159c88482850161598f565b91505092915050565b60008160e01c9050919050565b600060033d11156159fd5760046000803e6159fa6000516159d1565b90505b90565b600060443d1015615a1057615a93565b615a18613c85565b60043d036004823e80513d602482011167ffffffffffffffff82111715615a40575050615a93565b808201805167ffffffffffffffff811115615a5e5750505050615a93565b80602083010160043d038501811115615a7b575050505050615a93565b615a8a82602001850186613f6e565b82955050505050505b90565b7f455243313135353a207472616e7366657220746f206e6f6e204552433131353560008201527f526563656976657220696d706c656d656e746572000000000000000000000000602082015250565b6000615af2603483613e8a565b9150615afd82615a96565b604082019050919050565b60006020820190508181036000830152615b2181615ae5565b9050919050565b7f455243313135353a204552433131353552656365697665722072656a6563746560008201527f6420746f6b656e73000000000000000000000000000000000000000000000000602082015250565b6000615b84602883613e8a565b9150615b8f82615b28565b604082019050919050565b60006020820190508181036000830152615bb381615b77565b9050919050565b6000615bc582613cf7565b9150615bd083613cf7565b9250817fffffffffffffffffffffffffffffffffffffffffffffffffffffffffffffffff0483118215151615615c0957615c08614c32565b5b828202905092915050565b6000615c1f82613cf7565b91506000821415615c3357615c32614c32565b5b600182039050919050565b7f537472696e67733a20686578206c656e67746820696e73756666696369656e74600082015250565b6000615c74602083613e8a565b9150615c7f82615c3e565b602082019050919050565b60006020820190508181036000830152615ca381615c67565b9050919050565b600060a082019050615cbf60008301886146f7565b615ccc60208301876146f7565b615cd96040830186613d6d565b615ce66060830185613d6d565b8181036080830152615cf881846158ee565b90509695505050505050565b6000615d0f82613cf7565b9150615d1a83613cf7565b925082821015615d2d57615d2c614c32565b5b828203905092915050565b7f4e487b7100000000000000000000000000000000000000000000000000000000600052603160045260246000fd5b7f455243313135355061757361626c653a20746f6b656e207472616e736665722060008201527f7768696c65207061757365640000000000000000000000000000000000000000602082015250565b6000615dc3602c83613e8a565b9150615dce82615d67565b604082019050919050565b60006020820190508181036000830152615df281615db6565b905091905056fe68747470733a2f2f6e6f72692e636f6d2f6170692f63657274696669636174652f7b69647d2e6a736f6ea2646970667358221220b3a30b251058994e25b70401f6eff28c6b64ef53647a57eef723fc0537d200aa64736f6c634300080a0033",
  "linkReferences": {},
  "deployedLinkReferences": {}
}