{
  "_format": "hh-sol-artifact-1",
  "contractName": "Certificate",
  "sourceName": "contracts/Certificate.sol",
  "abi": [
    {
      "anonymous": false,
      "inputs": [
        {
          "indexed": true,
          "internalType": "address",
          "name": "account",
          "type": "address"
        },
        {
          "indexed": true,
          "internalType": "address",
          "name": "operator",
          "type": "address"
        },
        {
          "indexed": false,
          "internalType": "bool",
          "name": "approved",
          "type": "bool"
        }
      ],
      "name": "ApprovalForAll",
      "type": "event"
    },
    {
      "anonymous": false,
      "inputs": [
        {
          "indexed": false,
          "internalType": "address",
          "name": "account",
          "type": "address"
        }
      ],
      "name": "Paused",
      "type": "event"
    },
    {
      "anonymous": false,
      "inputs": [
        {
          "indexed": true,
          "internalType": "bytes32",
          "name": "role",
          "type": "bytes32"
        },
        {
          "indexed": true,
          "internalType": "bytes32",
          "name": "previousAdminRole",
          "type": "bytes32"
        },
        {
          "indexed": true,
          "internalType": "bytes32",
          "name": "newAdminRole",
          "type": "bytes32"
        }
      ],
      "name": "RoleAdminChanged",
      "type": "event"
    },
    {
      "anonymous": false,
      "inputs": [
        {
          "indexed": true,
          "internalType": "bytes32",
          "name": "role",
          "type": "bytes32"
        },
        {
          "indexed": true,
          "internalType": "address",
          "name": "account",
          "type": "address"
        },
        {
          "indexed": true,
          "internalType": "address",
          "name": "sender",
          "type": "address"
        }
      ],
      "name": "RoleGranted",
      "type": "event"
    },
    {
      "anonymous": false,
      "inputs": [
        {
          "indexed": true,
          "internalType": "bytes32",
          "name": "role",
          "type": "bytes32"
        },
        {
          "indexed": true,
          "internalType": "address",
          "name": "account",
          "type": "address"
        },
        {
          "indexed": true,
          "internalType": "address",
          "name": "sender",
          "type": "address"
        }
      ],
      "name": "RoleRevoked",
      "type": "event"
    },
    {
      "anonymous": false,
      "inputs": [
        {
          "indexed": true,
          "internalType": "address",
          "name": "operator",
          "type": "address"
        },
        {
          "indexed": true,
          "internalType": "address",
          "name": "from",
          "type": "address"
        },
        {
          "indexed": true,
          "internalType": "address",
          "name": "to",
          "type": "address"
        },
        {
          "indexed": false,
          "internalType": "uint256[]",
          "name": "ids",
          "type": "uint256[]"
        },
        {
          "indexed": false,
          "internalType": "uint256[]",
          "name": "values",
          "type": "uint256[]"
        }
      ],
      "name": "TransferBatch",
      "type": "event"
    },
    {
      "anonymous": false,
      "inputs": [
        {
          "indexed": true,
          "internalType": "address",
          "name": "operator",
          "type": "address"
        },
        {
          "indexed": true,
          "internalType": "address",
          "name": "from",
          "type": "address"
        },
        {
          "indexed": true,
          "internalType": "address",
          "name": "to",
          "type": "address"
        },
        {
          "indexed": false,
          "internalType": "uint256",
          "name": "id",
          "type": "uint256"
        },
        {
          "indexed": false,
          "internalType": "uint256",
          "name": "value",
          "type": "uint256"
        }
      ],
      "name": "TransferSingle",
      "type": "event"
    },
    {
      "anonymous": false,
      "inputs": [
        {
          "indexed": false,
          "internalType": "string",
          "name": "value",
          "type": "string"
        },
        {
          "indexed": true,
          "internalType": "uint256",
          "name": "id",
          "type": "uint256"
        }
      ],
      "name": "URI",
      "type": "event"
    },
    {
      "anonymous": false,
      "inputs": [
        {
          "indexed": false,
          "internalType": "address",
          "name": "account",
          "type": "address"
        }
      ],
      "name": "Unpaused",
      "type": "event"
    },
    {
      "inputs": [],
      "name": "DEFAULT_ADMIN_ROLE",
      "outputs": [
        {
          "internalType": "bytes32",
          "name": "",
          "type": "bytes32"
        }
      ],
      "stateMutability": "view",
      "type": "function"
    },
    {
      "inputs": [],
      "name": "MINTER_ROLE",
      "outputs": [
        {
          "internalType": "bytes32",
          "name": "",
          "type": "bytes32"
        }
      ],
      "stateMutability": "view",
      "type": "function"
    },
    {
      "inputs": [],
      "name": "PAUSER_ROLE",
      "outputs": [
        {
          "internalType": "bytes32",
          "name": "",
          "type": "bytes32"
        }
      ],
      "stateMutability": "view",
      "type": "function"
    },
    {
      "inputs": [
        {
          "internalType": "address",
          "name": "_minter",
          "type": "address"
        }
      ],
      "name": "addMinter",
      "outputs": [],
      "stateMutability": "nonpayable",
      "type": "function"
    },
    {
      "inputs": [
        {
          "internalType": "address",
          "name": "account",
          "type": "address"
        },
        {
          "internalType": "uint256",
          "name": "id",
          "type": "uint256"
        }
      ],
      "name": "balanceOf",
      "outputs": [
        {
          "internalType": "uint256",
          "name": "",
          "type": "uint256"
        }
      ],
      "stateMutability": "view",
      "type": "function"
    },
    {
      "inputs": [
        {
          "internalType": "address[]",
          "name": "accounts",
          "type": "address[]"
        },
        {
          "internalType": "uint256[]",
          "name": "ids",
          "type": "uint256[]"
        }
      ],
      "name": "balanceOfBatch",
      "outputs": [
        {
          "internalType": "uint256[]",
          "name": "",
          "type": "uint256[]"
        }
      ],
      "stateMutability": "view",
      "type": "function"
    },
    {
      "inputs": [
        {
          "internalType": "address",
          "name": "account",
          "type": "address"
        },
        {
          "internalType": "uint256",
          "name": "id",
          "type": "uint256"
        },
        {
          "internalType": "uint256",
          "name": "value",
          "type": "uint256"
        }
      ],
      "name": "burn",
      "outputs": [],
      "stateMutability": "nonpayable",
      "type": "function"
    },
    {
      "inputs": [
        {
          "internalType": "address",
          "name": "account",
          "type": "address"
        },
        {
          "internalType": "uint256[]",
          "name": "ids",
          "type": "uint256[]"
        },
        {
          "internalType": "uint256[]",
          "name": "values",
          "type": "uint256[]"
        }
      ],
      "name": "burnBatch",
      "outputs": [],
      "stateMutability": "nonpayable",
      "type": "function"
    },
    {
      "inputs": [
        {
          "internalType": "uint256",
          "name": "id",
          "type": "uint256"
        }
      ],
      "name": "exists",
      "outputs": [
        {
          "internalType": "bool",
          "name": "",
          "type": "bool"
        }
      ],
      "stateMutability": "view",
      "type": "function"
    },
    {
      "inputs": [
        {
          "internalType": "bytes32",
          "name": "role",
          "type": "bytes32"
        }
      ],
      "name": "getRoleAdmin",
      "outputs": [
        {
          "internalType": "bytes32",
          "name": "",
          "type": "bytes32"
        }
      ],
      "stateMutability": "view",
      "type": "function"
    },
    {
      "inputs": [
        {
          "internalType": "bytes32",
          "name": "role",
          "type": "bytes32"
        },
        {
          "internalType": "uint256",
          "name": "index",
          "type": "uint256"
        }
      ],
      "name": "getRoleMember",
      "outputs": [
        {
          "internalType": "address",
          "name": "",
          "type": "address"
        }
      ],
      "stateMutability": "view",
      "type": "function"
    },
    {
      "inputs": [
        {
          "internalType": "bytes32",
          "name": "role",
          "type": "bytes32"
        }
      ],
      "name": "getRoleMemberCount",
      "outputs": [
        {
          "internalType": "uint256",
          "name": "",
          "type": "uint256"
        }
      ],
      "stateMutability": "view",
      "type": "function"
    },
    {
      "inputs": [
        {
          "internalType": "bytes32",
          "name": "role",
          "type": "bytes32"
        },
        {
          "internalType": "address",
          "name": "account",
          "type": "address"
        }
      ],
      "name": "grantRole",
      "outputs": [],
      "stateMutability": "nonpayable",
      "type": "function"
    },
    {
      "inputs": [
        {
          "internalType": "bytes32",
          "name": "role",
          "type": "bytes32"
        },
        {
          "internalType": "address",
          "name": "account",
          "type": "address"
        }
      ],
      "name": "hasRole",
      "outputs": [
        {
          "internalType": "bool",
          "name": "",
          "type": "bool"
        }
      ],
      "stateMutability": "view",
      "type": "function"
    },
    {
      "inputs": [],
      "name": "initialize",
      "outputs": [],
      "stateMutability": "nonpayable",
      "type": "function"
    },
    {
      "inputs": [
        {
          "internalType": "string",
          "name": "uri",
          "type": "string"
        }
      ],
      "name": "initialize",
      "outputs": [],
      "stateMutability": "nonpayable",
      "type": "function"
    },
    {
      "inputs": [
        {
          "internalType": "address",
          "name": "account",
          "type": "address"
        },
        {
          "internalType": "address",
          "name": "operator",
          "type": "address"
        }
      ],
      "name": "isApprovedForAll",
      "outputs": [
        {
          "internalType": "bool",
          "name": "",
          "type": "bool"
        }
      ],
      "stateMutability": "view",
      "type": "function"
    },
    {
      "inputs": [
        {
          "internalType": "address",
          "name": "to",
          "type": "address"
        },
        {
          "internalType": "uint256",
          "name": "id",
          "type": "uint256"
        },
        {
          "internalType": "uint256",
          "name": "amount",
          "type": "uint256"
        },
        {
          "internalType": "bytes",
          "name": "data",
          "type": "bytes"
        }
      ],
      "name": "mint",
      "outputs": [],
      "stateMutability": "nonpayable",
      "type": "function"
    },
    {
      "inputs": [
        {
          "internalType": "address",
          "name": "to",
          "type": "address"
        },
        {
          "internalType": "uint256[]",
          "name": "removalIds",
          "type": "uint256[]"
        },
        {
          "internalType": "uint256[]",
          "name": "removalAmounts",
          "type": "uint256[]"
        },
        {
          "internalType": "bytes",
          "name": "data",
          "type": "bytes"
        }
      ],
      "name": "mintBatch",
      "outputs": [],
      "stateMutability": "nonpayable",
      "type": "function"
    },
    {
      "inputs": [],
      "name": "pause",
      "outputs": [],
      "stateMutability": "nonpayable",
      "type": "function"
    },
    {
      "inputs": [],
      "name": "paused",
      "outputs": [
        {
          "internalType": "bool",
          "name": "",
          "type": "bool"
        }
      ],
      "stateMutability": "view",
      "type": "function"
    },
    {
      "inputs": [
        {
          "internalType": "bytes32",
          "name": "role",
          "type": "bytes32"
        },
        {
          "internalType": "address",
          "name": "account",
          "type": "address"
        }
      ],
      "name": "renounceRole",
      "outputs": [],
      "stateMutability": "nonpayable",
      "type": "function"
    },
    {
      "inputs": [
        {
          "internalType": "bytes32",
          "name": "role",
          "type": "bytes32"
        },
        {
          "internalType": "address",
          "name": "account",
          "type": "address"
        }
      ],
      "name": "revokeRole",
      "outputs": [],
      "stateMutability": "nonpayable",
      "type": "function"
    },
    {
      "inputs": [
        {
          "internalType": "address",
          "name": "from",
          "type": "address"
        },
        {
          "internalType": "address",
          "name": "to",
          "type": "address"
        },
        {
          "internalType": "uint256[]",
          "name": "ids",
          "type": "uint256[]"
        },
        {
          "internalType": "uint256[]",
          "name": "amounts",
          "type": "uint256[]"
        },
        {
          "internalType": "bytes",
          "name": "data",
          "type": "bytes"
        }
      ],
      "name": "safeBatchTransferFrom",
      "outputs": [],
      "stateMutability": "nonpayable",
      "type": "function"
    },
    {
      "inputs": [
        {
          "internalType": "address",
          "name": "from",
          "type": "address"
        },
        {
          "internalType": "address",
          "name": "to",
          "type": "address"
        },
        {
          "internalType": "uint256",
          "name": "id",
          "type": "uint256"
        },
        {
          "internalType": "uint256",
          "name": "amount",
          "type": "uint256"
        },
        {
          "internalType": "bytes",
          "name": "data",
          "type": "bytes"
        }
      ],
      "name": "safeTransferFrom",
      "outputs": [],
      "stateMutability": "nonpayable",
      "type": "function"
    },
    {
      "inputs": [
        {
          "internalType": "address",
          "name": "operator",
          "type": "address"
        },
        {
          "internalType": "bool",
          "name": "approved",
          "type": "bool"
        }
      ],
      "name": "setApprovalForAll",
      "outputs": [],
      "stateMutability": "nonpayable",
      "type": "function"
    },
    {
      "inputs": [
        {
          "internalType": "uint256",
          "name": "certificateId",
          "type": "uint256"
        }
      ],
      "name": "sources",
      "outputs": [
        {
          "components": [
            {
              "internalType": "uint256",
              "name": "removalId",
              "type": "uint256"
            },
            {
              "internalType": "uint256",
              "name": "amount",
              "type": "uint256"
            }
          ],
          "internalType": "struct Certificate.Source[]",
          "name": "",
          "type": "tuple[]"
        }
      ],
      "stateMutability": "view",
      "type": "function"
    },
    {
      "inputs": [
        {
          "internalType": "bytes4",
          "name": "interfaceId",
          "type": "bytes4"
        }
      ],
      "name": "supportsInterface",
      "outputs": [
        {
          "internalType": "bool",
          "name": "",
          "type": "bool"
        }
      ],
      "stateMutability": "view",
      "type": "function"
    },
    {
      "inputs": [
        {
          "internalType": "uint256",
          "name": "id",
          "type": "uint256"
        }
      ],
      "name": "totalSupply",
      "outputs": [
        {
          "internalType": "uint256",
          "name": "",
          "type": "uint256"
        }
      ],
      "stateMutability": "view",
      "type": "function"
    },
    {
      "inputs": [],
      "name": "unpause",
      "outputs": [],
      "stateMutability": "nonpayable",
      "type": "function"
    },
    {
      "inputs": [
        {
          "internalType": "uint256",
          "name": "",
          "type": "uint256"
        }
      ],
      "name": "uri",
      "outputs": [
        {
          "internalType": "string",
          "name": "",
          "type": "string"
        }
      ],
      "stateMutability": "view",
      "type": "function"
    }
  ],
  "bytecode": "0x608060405234801561001057600080fd5b50613078806100206000396000f3fe608060405234801561001057600080fd5b50600436106101e45760003560e01c80638456cb591161010f578063ca15c873116100a2578063e985e9c511610071578063e985e9c51461044d578063f242432a14610489578063f5298aca1461049c578063f62d1888146104af57600080fd5b8063ca15c873146103fd578063d539139314610410578063d547741f14610425578063e63ab1e91461043857600080fd5b8063a217fddf116100de578063a217fddf146103a1578063a22cb465146103a9578063a3663d37146103bc578063bd85b039146103dc57600080fd5b80638456cb59146103485780639010d07c1461035057806391d148541461037b578063983b2d561461038e57600080fd5b806336568abe116101875780635c975abb116101565780635c975abb1461030e5780636b20c4541461031a578063731133e91461032d5780638129fc1c1461034057600080fd5b806336568abe146102b05780633f4ba83a146102c35780634e1273f4146102cb5780634f558e79146102eb57600080fd5b80631f7fdffa116101c35780631f7fdffa14610252578063248a9ca3146102675780632eb2c2d61461028a5780632f2ff15d1461029d57600080fd5b8062fdd58e146101e957806301ffc9a71461020f5780630e89341c14610232575b600080fd5b6101fc6101f73660046122d9565b6104c2565b6040519081526020015b60405180910390f35b61022261021d366004612319565b61055e565b6040519015158152602001610206565b610245610240366004612336565b610569565b60405161020691906123a7565b61026561026036600461250d565b6105fd565b005b6101fc610275366004612336565b60009081526065602052604090206001015490565b6102656102983660046125a5565b610714565b6102656102ab36600461264e565b6107ab565b6102656102be36600461264e565b6107d6565b610265610854565b6102de6102d936600461267a565b6108e8565b604051610206919061277f565b6102226102f9366004612336565b60009081526101c36020526040902054151590565b61012d5460ff16610222565b610265610328366004612792565b610a11565b61026561033b366004612805565b610a54565b610265610af0565b610265610b91565b61036361035e366004612859565b610c23565b6040516001600160a01b039091168152602001610206565b61022261038936600461264e565b610c42565b61026561039c36600461287b565b610c6d565b6101fc600081565b6102656103b7366004612896565b610cef565b6103cf6103ca366004612336565b610cfa565b60405161020691906128d2565b6101fc6103ea366004612336565b60009081526101c3602052604090205490565b6101fc61040b366004612336565b610d81565b6101fc60008051602061302383398151915281565b61026561043336600461264e565b610d98565b6101fc60008051602061300383398151915281565b61022261045b366004612921565b6001600160a01b03918216600090815260ca6020908152604080832093909416825291909152205460ff1690565b61026561049736600461294b565b610dbe565b6102656104aa3660046129af565b610e03565b6102656104bd3660046129e2565b610e46565b60006001600160a01b0383166105335760405162461bcd60e51b815260206004820152602b60248201527f455243313135353a2062616c616e636520717565727920666f7220746865207a60448201526a65726f206164647265737360a81b60648201526084015b60405180910390fd5b50600081815260c9602090815260408083206001600160a01b03861684529091529020545b92915050565b600061055882610ec1565b606060cb805461057890612a32565b80601f01602080910402602001604051908101604052809291908181526020018280546105a490612a32565b80156105f15780601f106105c6576101008083540402835291602001916105f1565b820191906000526020600020905b8154815290600101906020018083116105d457829003601f168201915b50505050509050919050565b6000818060200190518101906106139190612a6d565b905060005b84518110156106df5783818151811061063357610633612a86565b602002602001015160001415610648576106df565b6101f560006101f6548152602001908152602001600020604051806040016040528087848151811061067c5761067c612a86565b6020026020010151815260200186848151811061069b5761069b612a86565b6020908102919091018101519091528254600181810185556000948552938290208351600290920201908155910151910155806106d781612ab2565b915050610618565b506106ef856101f6548385610a54565b60016101f660008282546107039190612acd565b91829055506101f655505050505050565b6001600160a01b0385163314806107305750610730853361045b565b6107975760405162461bcd60e51b815260206004820152603260248201527f455243313135353a207472616e736665722063616c6c6572206973206e6f74206044820152711bdddb995c881b9bdc88185c1c1c9bdd995960721b606482015260840161052a565b6107a48585858585610ecc565b5050505050565b6000828152606560205260409020600101546107c78133611079565b6107d183836110dd565b505050565b6001600160a01b03811633146108465760405162461bcd60e51b815260206004820152602f60248201527f416363657373436f6e74726f6c3a2063616e206f6e6c792072656e6f756e636560448201526e103937b632b9903337b91039b2b63360891b606482015260840161052a565b61085082826110ff565b5050565b61086c60008051602061300383398151915233610c42565b6108de5760405162461bcd60e51b815260206004820152603b60248201527f455243313135355072657365744d696e7465725061757365723a206d7573742060448201527f686176652070617573657220726f6c6520746f20756e70617573650000000000606482015260840161052a565b6108e6611121565b565b6060815183511461094d5760405162461bcd60e51b815260206004820152602960248201527f455243313135353a206163636f756e747320616e6420696473206c656e677468604482015268040dad2e6dac2e8c6d60bb1b606482015260840161052a565b600083516001600160401b03811115610968576109686123ba565b604051908082528060200260200182016040528015610991578160200160208202803683370190505b50905060005b8451811015610a09576109dc8582815181106109b5576109b5612a86565b60200260200101518583815181106109cf576109cf612a86565b60200260200101516104c2565b8282815181106109ee576109ee612a86565b6020908102919091010152610a0281612ab2565b9050610997565b509392505050565b6001600160a01b038316331480610a2d5750610a2d833361045b565b610a495760405162461bcd60e51b815260040161052a90612ae5565b6107d18383836111b6565b610a6c60008051602061302383398151915233610c42565b610ade5760405162461bcd60e51b815260206004820152603860248201527f455243313135355072657365744d696e7465725061757365723a206d7573742060448201527f68617665206d696e74657220726f6c6520746f206d696e740000000000000000606482015260840161052a565b610aea84848484611347565b50505050565b600054610100900460ff16610b0b5760005460ff1615610b0f565b303b155b610b2b5760405162461bcd60e51b815260040161052a90612b2e565b600054610100900460ff16158015610b4d576000805461ffff19166101011790555b610b6e6040518060600160405280602a8152602001612fd9602a9139610e46565b610b76611459565b60006101f6558015610b8e576000805461ff00191690555b50565b610ba960008051602061300383398151915233610c42565b610c1b5760405162461bcd60e51b815260206004820152603960248201527f455243313135355072657365744d696e7465725061757365723a206d7573742060448201527f686176652070617573657220726f6c6520746f20706175736500000000000000606482015260840161052a565b6108e6611480565b6000828152609760205260408120610c3b90836114fd565b9392505050565b60009182526065602090815260408084206001600160a01b0393909316845291905290205460ff1690565b610c78600033610c42565b610cd75760405162461bcd60e51b815260206004820152602a60248201527f43657274696669636174653a206d7573742068617665206d696e74657220726f6044820152691b19481d1bc81b5a5b9d60b21b606482015260840161052a565b610b8e60008051602061302383398151915282611509565b610850338383611513565b60606101f56000838152602001908152602001600020805480602002602001604051908101604052809291908181526020016000905b82821015610d7657838290600052602060002090600202016040518060400160405290816000820154815260200160018201548152505081526020019060010190610d30565b505050509050919050565b6000818152609760205260408120610558906115f4565b600082815260656020526040902060010154610db48133611079565b6107d183836110ff565b6001600160a01b038516331480610dda5750610dda853361045b565b610df65760405162461bcd60e51b815260040161052a90612ae5565b6107a485858585856115fe565b6001600160a01b038316331480610e1f5750610e1f833361045b565b610e3b5760405162461bcd60e51b815260040161052a90612ae5565b6107d183838361171f565b600054610100900460ff16610e615760005460ff1615610e65565b303b155b610e815760405162461bcd60e51b815260040161052a90612b2e565b600054610100900460ff16158015610ea3576000805461ffff19166101011790555b610eac82611824565b8015610850576000805461ff00191690555050565b600061055882611895565b8151835114610eed5760405162461bcd60e51b815260040161052a90612b7c565b6001600160a01b038416610f135760405162461bcd60e51b815260040161052a90612bc4565b33610f228187878787876118d5565b60005b845181101561100b576000858281518110610f4257610f42612a86565b602002602001015190506000858381518110610f6057610f60612a86565b602090810291909101810151600084815260c9835260408082206001600160a01b038e168352909352919091205490915081811015610fb15760405162461bcd60e51b815260040161052a90612c09565b600083815260c9602090815260408083206001600160a01b038e8116855292528083208585039055908b16825281208054849290610ff0908490612acd565b925050819055505050508061100490612ab2565b9050610f25565b50846001600160a01b0316866001600160a01b0316826001600160a01b03167f4a39dc06d4c0dbc64b70af90fd698a233a518aa5d07e595d983b8c0526c8f7fb878760405161105b929190612c53565b60405180910390a46110718187878787876118e3565b505050505050565b6110838282610c42565b6108505761109b816001600160a01b03166014611a3f565b6110a6836020611a3f565b6040516020016110b7929190612c81565b60408051601f198184030181529082905262461bcd60e51b825261052a916004016123a7565b6110e78282611bda565b60008281526097602052604090206107d19082611c60565b6111098282611c75565b60008281526097602052604090206107d19082611cdc565b61012d5460ff1661116b5760405162461bcd60e51b815260206004820152601460248201527314185d5cd8589b194e881b9bdd081c185d5cd95960621b604482015260640161052a565b61012d805460ff191690557f5db9ee0a495bf2e6ff9c91a7834c1ba4fdd244a5e8aa4e537bd38aeae4b073aa335b6040516001600160a01b03909116815260200160405180910390a1565b6001600160a01b0383166111dc5760405162461bcd60e51b815260040161052a90612cf6565b80518251146111fd5760405162461bcd60e51b815260040161052a90612b7c565b6000339050611220818560008686604051806020016040528060008152506118d5565b60005b83518110156112e857600084828151811061124057611240612a86565b60200260200101519050600084838151811061125e5761125e612a86565b602090810291909101810151600084815260c9835260408082206001600160a01b038c1683529093529190912054909150818110156112af5760405162461bcd60e51b815260040161052a90612d39565b600092835260c9602090815260408085206001600160a01b038b16865290915290922091039055806112e081612ab2565b915050611223565b5060006001600160a01b0316846001600160a01b0316826001600160a01b03167f4a39dc06d4c0dbc64b70af90fd698a233a518aa5d07e595d983b8c0526c8f7fb8686604051611339929190612c53565b60405180910390a450505050565b6001600160a01b0384166113a75760405162461bcd60e51b815260206004820152602160248201527f455243313135353a206d696e7420746f20746865207a65726f206164647265736044820152607360f81b606482015260840161052a565b336113c7816000876113b888611cf1565b6113c188611cf1565b876118d5565b600084815260c9602090815260408083206001600160a01b0389168452909152812080548592906113f9908490612acd565b909155505060408051858152602081018590526001600160a01b0380881692600092918516917fc3d58168c5ae7397731d063d5bbf3d657854427343f4c083240f7aacaa2d0f62910160405180910390a46107a481600087878787611d3c565b600054610100900460ff166108e65760405162461bcd60e51b815260040161052a90612d7d565b61012d5460ff16156114c75760405162461bcd60e51b815260206004820152601060248201526f14185d5cd8589b194e881c185d5cd95960821b604482015260640161052a565b61012d805460ff191660011790557f62e78cea01bee320cd4e420270b5ea74000d11b0c9f74754ebdbfc544b05a2586111993390565b6000610c3b8383611df7565b61085082826110dd565b816001600160a01b0316836001600160a01b031614156115875760405162461bcd60e51b815260206004820152602960248201527f455243313135353a2073657474696e6720617070726f76616c20737461747573604482015268103337b91039b2b63360b91b606482015260840161052a565b6001600160a01b03838116600081815260ca6020908152604080832094871680845294825291829020805460ff191686151590811790915591519182527f17307eab39ab6107e8899845ad3d59bd9653f200f220920489ca2b5937696c31910160405180910390a3505050565b6000610558825490565b6001600160a01b0384166116245760405162461bcd60e51b815260040161052a90612bc4565b336116348187876113b888611cf1565b600084815260c9602090815260408083206001600160a01b038a168452909152902054838110156116775760405162461bcd60e51b815260040161052a90612c09565b600085815260c9602090815260408083206001600160a01b038b81168552925280832087850390559088168252812080548692906116b6908490612acd565b909155505060408051868152602081018690526001600160a01b03808916928a821692918616917fc3d58168c5ae7397731d063d5bbf3d657854427343f4c083240f7aacaa2d0f62910160405180910390a4611716828888888888611d3c565b50505050505050565b6001600160a01b0383166117455760405162461bcd60e51b815260040161052a90612cf6565b336117748185600061175687611cf1565b61175f87611cf1565b604051806020016040528060008152506118d5565b600083815260c9602090815260408083206001600160a01b0388168452909152902054828110156117b75760405162461bcd60e51b815260040161052a90612d39565b600084815260c9602090815260408083206001600160a01b03898116808652918452828520888703905582518981529384018890529092908616917fc3d58168c5ae7397731d063d5bbf3d657854427343f4c083240f7aacaa2d0f62910160405180910390a45050505050565b600054610100900460ff1661184b5760405162461bcd60e51b815260040161052a90612d7d565b611853611459565b61185b611459565b611863611459565b61186b611459565b61187481611e21565b61187c611459565b611884611e51565b61188c611459565b610b8e81611e85565b60006001600160e01b03198216636cdb3d1360e11b14806118c657506001600160e01b031982166303a24d0760e21b145b80610558575061055882611ee7565b611071868686868686611f0c565b6001600160a01b0384163b156110715760405163bc197c8160e01b81526001600160a01b0385169063bc197c81906119279089908990889088908890600401612dc8565b6020604051808303816000875af1925050508015611962575060408051601f3d908101601f1916820190925261195f91810190612e26565b60015b611a0f5761196e612e43565b806308c379a014156119a85750611983612e5f565b8061198e57506119aa565b8060405162461bcd60e51b815260040161052a91906123a7565b505b60405162461bcd60e51b815260206004820152603460248201527f455243313135353a207472616e7366657220746f206e6f6e20455243313135356044820152732932b1b2b4bb32b91034b6b83632b6b2b73a32b960611b606482015260840161052a565b6001600160e01b0319811663bc197c8160e01b146117165760405162461bcd60e51b815260040161052a90612ee8565b60606000611a4e836002612f30565b611a59906002612acd565b6001600160401b03811115611a7057611a706123ba565b6040519080825280601f01601f191660200182016040528015611a9a576020820181803683370190505b509050600360fc1b81600081518110611ab557611ab5612a86565b60200101906001600160f81b031916908160001a905350600f60fb1b81600181518110611ae457611ae4612a86565b60200101906001600160f81b031916908160001a9053506000611b08846002612f30565b611b13906001612acd565b90505b6001811115611b8b576f181899199a1a9b1b9c1cb0b131b232b360811b85600f1660108110611b4757611b47612a86565b1a60f81b828281518110611b5d57611b5d612a86565b60200101906001600160f81b031916908160001a90535060049490941c93611b8481612f4f565b9050611b16565b508315610c3b5760405162461bcd60e51b815260206004820181905260248201527f537472696e67733a20686578206c656e67746820696e73756666696369656e74604482015260640161052a565b611be48282610c42565b6108505760008281526065602090815260408083206001600160a01b03851684529091529020805460ff19166001179055611c1c3390565b6001600160a01b0316816001600160a01b0316837f2f8788117e7eff1d82e926ec794901d17c78024a50270940304540a733656f0d60405160405180910390a45050565b6000610c3b836001600160a01b038416612028565b611c7f8282610c42565b156108505760008281526065602090815260408083206001600160a01b0385168085529252808320805460ff1916905551339285917ff6391f5c32d9c69d2a47ea670b442974b53935d1edc7fd64eb21e047a839171b9190a45050565b6000610c3b836001600160a01b038416612077565b60408051600180825281830190925260609160009190602080830190803683370190505090508281600081518110611d2b57611d2b612a86565b602090810291909101015292915050565b6001600160a01b0384163b156110715760405163f23a6e6160e01b81526001600160a01b0385169063f23a6e6190611d809089908990889088908890600401612f66565b6020604051808303816000875af1925050508015611dbb575060408051601f3d908101601f19168201909252611db891810190612e26565b60015b611dc75761196e612e43565b6001600160e01b0319811663f23a6e6160e01b146117165760405162461bcd60e51b815260040161052a90612ee8565b6000826000018281548110611e0e57611e0e612a86565b9060005260206000200154905092915050565b600054610100900460ff16611e485760405162461bcd60e51b815260040161052a90612d7d565b610b8e8161216a565b600054610100900460ff16611e785760405162461bcd60e51b815260040161052a90612d7d565b61012d805460ff19169055565b600054610100900460ff16611eac5760405162461bcd60e51b815260040161052a90612d7d565b611eb7600033611509565b611ecf60008051602061302383398151915233611509565b610b8e60008051602061300383398151915233611509565b60006001600160e01b03198216635a05180f60e01b148061055857506105588261217d565b611f1a8686868686866121b2565b6001600160a01b038516611fa25760005b8351811015611fa057828181518110611f4657611f46612a86565b60200260200101516101c36000868481518110611f6557611f65612a86565b602002602001015181526020019081526020016000206000828254611f8a9190612acd565b90915550611f99905081612ab2565b9050611f2b565b505b6001600160a01b0384166110715760005b835181101561171657828181518110611fce57611fce612a86565b60200260200101516101c36000868481518110611fed57611fed612a86565b6020026020010151815260200190815260200160002060008282546120129190612fab565b90915550612021905081612ab2565b9050611fb3565b600081815260018301602052604081205461206f57508154600181810184556000848152602080822090930184905584548482528286019093526040902091909155610558565b506000610558565b6000818152600183016020526040812054801561216057600061209b600183612fab565b85549091506000906120af90600190612fab565b90508181146121145760008660000182815481106120cf576120cf612a86565b90600052602060002001549050808760000184815481106120f2576120f2612a86565b6000918252602080832090910192909255918252600188019052604090208390555b855486908061212557612125612fc2565b600190038181906000526020600020016000905590558560010160008681526020019081526020016000206000905560019350505050610558565b6000915050610558565b80516108509060cb906020840190612224565b60006001600160e01b03198216637965db0b60e01b148061055857506301ffc9a760e01b6001600160e01b0319831614610558565b61107186868686868661012d5460ff16156110715760405162461bcd60e51b815260206004820152602c60248201527f455243313135355061757361626c653a20746f6b656e207472616e736665722060448201526b1dda1a5b19481c185d5cd95960a21b606482015260840161052a565b82805461223090612a32565b90600052602060002090601f0160209004810192826122525760008555612298565b82601f1061226b57805160ff1916838001178555612298565b82800160010185558215612298579182015b8281111561229857825182559160200191906001019061227d565b506122a49291506122a8565b5090565b5b808211156122a457600081556001016122a9565b80356001600160a01b03811681146122d457600080fd5b919050565b600080604083850312156122ec57600080fd5b6122f5836122bd565b946020939093013593505050565b6001600160e01b031981168114610b8e57600080fd5b60006020828403121561232b57600080fd5b8135610c3b81612303565b60006020828403121561234857600080fd5b5035919050565b60005b8381101561236a578181015183820152602001612352565b83811115610aea5750506000910152565b6000815180845261239381602086016020860161234f565b601f01601f19169290920160200192915050565b602081526000610c3b602083018461237b565b634e487b7160e01b600052604160045260246000fd5b601f8201601f191681016001600160401b03811182821017156123f5576123f56123ba565b6040525050565b60006001600160401b03821115612415576124156123ba565b5060051b60200190565b600082601f83011261243057600080fd5b8135602061243d826123fc565b60405161244a82826123d0565b83815260059390931b850182019282810191508684111561246a57600080fd5b8286015b84811015612485578035835291830191830161246e565b509695505050505050565b60006001600160401b038311156124a9576124a96123ba565b6040516124c0601f8501601f1916602001826123d0565b8091508381528484840111156124d557600080fd5b83836020830137600060208583010152509392505050565b600082601f8301126124fe57600080fd5b610c3b83833560208501612490565b6000806000806080858703121561252357600080fd5b61252c856122bd565b935060208501356001600160401b038082111561254857600080fd5b6125548883890161241f565b9450604087013591508082111561256a57600080fd5b6125768883890161241f565b9350606087013591508082111561258c57600080fd5b50612599878288016124ed565b91505092959194509250565b600080600080600060a086880312156125bd57600080fd5b6125c6866122bd565b94506125d4602087016122bd565b935060408601356001600160401b03808211156125f057600080fd5b6125fc89838a0161241f565b9450606088013591508082111561261257600080fd5b61261e89838a0161241f565b9350608088013591508082111561263457600080fd5b50612641888289016124ed565b9150509295509295909350565b6000806040838503121561266157600080fd5b82359150612671602084016122bd565b90509250929050565b6000806040838503121561268d57600080fd5b82356001600160401b03808211156126a457600080fd5b818501915085601f8301126126b857600080fd5b813560206126c5826123fc565b6040516126d282826123d0565b83815260059390931b85018201928281019150898411156126f257600080fd5b948201945b8386101561271757612708866122bd565b825294820194908201906126f7565b9650508601359250508082111561272d57600080fd5b5061273a8582860161241f565b9150509250929050565b600081518084526020808501945080840160005b8381101561277457815187529582019590820190600101612758565b509495945050505050565b602081526000610c3b6020830184612744565b6000806000606084860312156127a757600080fd5b6127b0846122bd565b925060208401356001600160401b03808211156127cc57600080fd5b6127d88783880161241f565b935060408601359150808211156127ee57600080fd5b506127fb8682870161241f565b9150509250925092565b6000806000806080858703121561281b57600080fd5b612824856122bd565b9350602085013592506040850135915060608501356001600160401b0381111561284d57600080fd5b612599878288016124ed565b6000806040838503121561286c57600080fd5b50508035926020909101359150565b60006020828403121561288d57600080fd5b610c3b826122bd565b600080604083850312156128a957600080fd5b6128b2836122bd565b9150602083013580151581146128c757600080fd5b809150509250929050565b602080825282518282018190526000919060409081850190868401855b82811015612914578151805185528601518685015292840192908501906001016128ef565b5091979650505050505050565b6000806040838503121561293457600080fd5b61293d836122bd565b9150612671602084016122bd565b600080600080600060a0868803121561296357600080fd5b61296c866122bd565b945061297a602087016122bd565b9350604086013592506060860135915060808601356001600160401b038111156129a357600080fd5b612641888289016124ed565b6000806000606084860312156129c457600080fd5b6129cd846122bd565b95602085013595506040909401359392505050565b6000602082840312156129f457600080fd5b81356001600160401b03811115612a0a57600080fd5b8201601f81018413612a1b57600080fd5b612a2a84823560208401612490565b949350505050565b600181811c90821680612a4657607f821691505b60208210811415612a6757634e487b7160e01b600052602260045260246000fd5b50919050565b600060208284031215612a7f57600080fd5b5051919050565b634e487b7160e01b600052603260045260246000fd5b634e487b7160e01b600052601160045260246000fd5b6000600019821415612ac657612ac6612a9c565b5060010190565b60008219821115612ae057612ae0612a9c565b500190565b60208082526029908201527f455243313135353a2063616c6c6572206973206e6f74206f776e6572206e6f7260408201526808185c1c1c9bdd995960ba1b606082015260800190565b6020808252602e908201527f496e697469616c697a61626c653a20636f6e747261637420697320616c72656160408201526d191e481a5b9a5d1a585b1a5e995960921b606082015260800190565b60208082526028908201527f455243313135353a2069647320616e6420616d6f756e7473206c656e677468206040820152670dad2e6dac2e8c6d60c31b606082015260800190565b60208082526025908201527f455243313135353a207472616e7366657220746f20746865207a65726f206164604082015264647265737360d81b606082015260800190565b6020808252602a908201527f455243313135353a20696e73756666696369656e742062616c616e636520666f60408201526939103a3930b739b332b960b11b606082015260800190565b604081526000612c666040830185612744565b8281036020840152612c788185612744565b95945050505050565b7f416363657373436f6e74726f6c3a206163636f756e7420000000000000000000815260008351612cb981601785016020880161234f565b7001034b99036b4b9b9b4b733903937b6329607d1b6017918401918201528351612cea81602884016020880161234f565b01602801949350505050565b60208082526023908201527f455243313135353a206275726e2066726f6d20746865207a65726f206164647260408201526265737360e81b606082015260800190565b60208082526024908201527f455243313135353a206275726e20616d6f756e7420657863656564732062616c604082015263616e636560e01b606082015260800190565b6020808252602b908201527f496e697469616c697a61626c653a20636f6e7472616374206973206e6f74206960408201526a6e697469616c697a696e6760a81b606082015260800190565b6001600160a01b0386811682528516602082015260a060408201819052600090612df490830186612744565b8281036060840152612e068186612744565b90508281036080840152612e1a818561237b565b98975050505050505050565b600060208284031215612e3857600080fd5b8151610c3b81612303565b600060033d1115612e5c5760046000803e5060005160e01c5b90565b600060443d1015612e6d5790565b6040516003193d81016004833e81513d6001600160401b038160248401118184111715612e9c57505050505090565b8285019150815181811115612eb45750505050505090565b843d8701016020828501011115612ece5750505050505090565b612edd602082860101876123d0565b509095945050505050565b60208082526028908201527f455243313135353a204552433131353552656365697665722072656a656374656040820152676420746f6b656e7360c01b606082015260800190565b6000816000190483118215151615612f4a57612f4a612a9c565b500290565b600081612f5e57612f5e612a9c565b506000190190565b6001600160a01b03868116825285166020820152604081018490526060810183905260a060808201819052600090612fa09083018461237b565b979650505050505050565b600082821015612fbd57612fbd612a9c565b500390565b634e487b7160e01b600052603160045260246000fdfe68747470733a2f2f6e6f72692e636f6d2f6170692f63657274696669636174652f7b69647d2e6a736f6e65d7a28e3265b37a6474929f336521b332c1681b933f6cb9f3376673440d862a9f2df0fed2c77648de5860a4cc508cd0818c85b8b8a1ab4ceeef8d981c8956a6a2646970667358221220ad81cdb3ce32601167a787fc699d3812255739773b9b03c921dc40b9414386dd64736f6c634300080a0033",
  "linkReferences": {},
  "deployedLinkReferences": {}
}