{
  "_format": "hh-sol-artifact-1",
  "contractName": "Certificate",
  "sourceName": "contracts/Certificate.sol",
  "abi": [
    {
      "inputs": [],
      "stateMutability": "nonpayable",
      "type": "constructor"
    },
    {
      "inputs": [],
      "name": "ForbiddenFunctionCall",
      "type": "error"
    },
    {
      "inputs": [],
      "name": "ForbiddenTransferAfterMinting",
      "type": "error"
    },
    {
      "anonymous": false,
      "inputs": [
        {
          "indexed": true,
          "internalType": "address",
          "name": "account",
          "type": "address"
        },
        {
          "indexed": true,
          "internalType": "address",
          "name": "operator",
          "type": "address"
        },
        {
          "indexed": false,
          "internalType": "bool",
          "name": "approved",
          "type": "bool"
        }
      ],
      "name": "ApprovalForAll",
      "type": "event"
    },
    {
      "anonymous": false,
      "inputs": [
        {
          "indexed": true,
          "internalType": "address",
          "name": "recipient",
          "type": "address"
        },
        {
          "indexed": true,
          "internalType": "uint256",
          "name": "certificateId",
          "type": "uint256"
        },
        {
          "indexed": false,
          "internalType": "uint256[]",
          "name": "removalIds",
          "type": "uint256[]"
        },
        {
          "indexed": false,
          "internalType": "uint256[]",
          "name": "amounts",
          "type": "uint256[]"
        }
      ],
      "name": "CertificateCreated",
      "type": "event"
    },
    {
      "anonymous": false,
      "inputs": [
        {
          "indexed": false,
          "internalType": "uint8",
          "name": "version",
          "type": "uint8"
        }
      ],
      "name": "Initialized",
      "type": "event"
    },
    {
      "anonymous": false,
      "inputs": [
        {
          "indexed": false,
          "internalType": "address",
          "name": "account",
          "type": "address"
        }
      ],
      "name": "Paused",
      "type": "event"
    },
    {
      "anonymous": false,
      "inputs": [
        {
          "indexed": true,
          "internalType": "bytes32",
          "name": "role",
          "type": "bytes32"
        },
        {
          "indexed": true,
          "internalType": "bytes32",
          "name": "previousAdminRole",
          "type": "bytes32"
        },
        {
          "indexed": true,
          "internalType": "bytes32",
          "name": "newAdminRole",
          "type": "bytes32"
        }
      ],
      "name": "RoleAdminChanged",
      "type": "event"
    },
    {
      "anonymous": false,
      "inputs": [
        {
          "indexed": true,
          "internalType": "bytes32",
          "name": "role",
          "type": "bytes32"
        },
        {
          "indexed": true,
          "internalType": "address",
          "name": "account",
          "type": "address"
        },
        {
          "indexed": true,
          "internalType": "address",
          "name": "sender",
          "type": "address"
        }
      ],
      "name": "RoleGranted",
      "type": "event"
    },
    {
      "anonymous": false,
      "inputs": [
        {
          "indexed": true,
          "internalType": "bytes32",
          "name": "role",
          "type": "bytes32"
        },
        {
          "indexed": true,
          "internalType": "address",
          "name": "account",
          "type": "address"
        },
        {
          "indexed": true,
          "internalType": "address",
          "name": "sender",
          "type": "address"
        }
      ],
      "name": "RoleRevoked",
      "type": "event"
    },
    {
      "anonymous": false,
      "inputs": [
        {
          "indexed": true,
          "internalType": "address",
          "name": "operator",
          "type": "address"
        },
        {
          "indexed": true,
          "internalType": "address",
          "name": "from",
          "type": "address"
        },
        {
          "indexed": true,
          "internalType": "address",
          "name": "to",
          "type": "address"
        },
        {
          "indexed": false,
          "internalType": "uint256[]",
          "name": "ids",
          "type": "uint256[]"
        },
        {
          "indexed": false,
          "internalType": "uint256[]",
          "name": "values",
          "type": "uint256[]"
        }
      ],
      "name": "TransferBatch",
      "type": "event"
    },
    {
      "anonymous": false,
      "inputs": [
        {
          "indexed": true,
          "internalType": "address",
          "name": "operator",
          "type": "address"
        },
        {
          "indexed": true,
          "internalType": "address",
          "name": "from",
          "type": "address"
        },
        {
          "indexed": true,
          "internalType": "address",
          "name": "to",
          "type": "address"
        },
        {
          "indexed": false,
          "internalType": "uint256",
          "name": "id",
          "type": "uint256"
        },
        {
          "indexed": false,
          "internalType": "uint256",
          "name": "value",
          "type": "uint256"
        }
      ],
      "name": "TransferSingle",
      "type": "event"
    },
    {
      "anonymous": false,
      "inputs": [
        {
          "indexed": false,
          "internalType": "string",
          "name": "value",
          "type": "string"
        },
        {
          "indexed": true,
          "internalType": "uint256",
          "name": "id",
          "type": "uint256"
        }
      ],
      "name": "URI",
      "type": "event"
    },
    {
      "anonymous": false,
      "inputs": [
        {
          "indexed": false,
          "internalType": "address",
          "name": "account",
          "type": "address"
        }
      ],
      "name": "Unpaused",
      "type": "event"
    },
    {
      "inputs": [],
      "name": "CERTIFICATE_OPERATOR_ROLE",
      "outputs": [
        {
          "internalType": "bytes32",
          "name": "",
          "type": "bytes32"
        }
      ],
      "stateMutability": "view",
      "type": "function"
    },
    {
      "inputs": [],
      "name": "DEFAULT_ADMIN_ROLE",
      "outputs": [
        {
          "internalType": "bytes32",
          "name": "",
          "type": "bytes32"
        }
      ],
      "stateMutability": "view",
      "type": "function"
    },
    {
      "inputs": [],
      "name": "MINTER_ROLE",
      "outputs": [
        {
          "internalType": "bytes32",
          "name": "",
          "type": "bytes32"
        }
      ],
      "stateMutability": "view",
      "type": "function"
    },
    {
      "inputs": [],
      "name": "PAUSER_ROLE",
      "outputs": [
        {
          "internalType": "bytes32",
          "name": "",
          "type": "bytes32"
        }
      ],
      "stateMutability": "view",
      "type": "function"
    },
    {
      "inputs": [
        {
          "internalType": "address",
          "name": "account",
          "type": "address"
        },
        {
          "internalType": "uint256",
          "name": "id",
          "type": "uint256"
        }
      ],
      "name": "balanceOf",
      "outputs": [
        {
          "internalType": "uint256",
          "name": "",
          "type": "uint256"
        }
      ],
      "stateMutability": "view",
      "type": "function"
    },
    {
      "inputs": [
        {
          "internalType": "address[]",
          "name": "accounts",
          "type": "address[]"
        },
        {
          "internalType": "uint256[]",
          "name": "ids",
          "type": "uint256[]"
        }
      ],
      "name": "balanceOfBatch",
      "outputs": [
        {
          "internalType": "uint256[]",
          "name": "",
          "type": "uint256[]"
        }
      ],
      "stateMutability": "view",
      "type": "function"
    },
    {
      "inputs": [
        {
          "internalType": "address",
          "name": "account",
          "type": "address"
        },
        {
          "internalType": "uint256",
          "name": "id",
          "type": "uint256"
        },
        {
          "internalType": "uint256",
          "name": "value",
          "type": "uint256"
        }
      ],
      "name": "burn",
      "outputs": [],
      "stateMutability": "nonpayable",
      "type": "function"
    },
    {
      "inputs": [
        {
          "internalType": "address",
          "name": "account",
          "type": "address"
        },
        {
          "internalType": "uint256[]",
          "name": "ids",
          "type": "uint256[]"
        },
        {
          "internalType": "uint256[]",
          "name": "values",
          "type": "uint256[]"
        }
      ],
      "name": "burnBatch",
      "outputs": [],
      "stateMutability": "nonpayable",
      "type": "function"
    },
    {
      "inputs": [
        {
          "internalType": "uint256",
          "name": "id",
          "type": "uint256"
        }
      ],
      "name": "exists",
      "outputs": [
        {
          "internalType": "bool",
          "name": "",
          "type": "bool"
        }
      ],
      "stateMutability": "view",
      "type": "function"
    },
    {
      "inputs": [
        {
          "internalType": "bytes32",
          "name": "role",
          "type": "bytes32"
        }
      ],
      "name": "getRoleAdmin",
      "outputs": [
        {
          "internalType": "bytes32",
          "name": "",
          "type": "bytes32"
        }
      ],
      "stateMutability": "view",
      "type": "function"
    },
    {
      "inputs": [
        {
          "internalType": "bytes32",
          "name": "role",
          "type": "bytes32"
        },
        {
          "internalType": "uint256",
          "name": "index",
          "type": "uint256"
        }
      ],
      "name": "getRoleMember",
      "outputs": [
        {
          "internalType": "address",
          "name": "",
          "type": "address"
        }
      ],
      "stateMutability": "view",
      "type": "function"
    },
    {
      "inputs": [
        {
          "internalType": "bytes32",
          "name": "role",
          "type": "bytes32"
        }
      ],
      "name": "getRoleMemberCount",
      "outputs": [
        {
          "internalType": "uint256",
          "name": "",
          "type": "uint256"
        }
      ],
      "stateMutability": "view",
      "type": "function"
    },
    {
      "inputs": [
        {
          "internalType": "bytes32",
          "name": "role",
          "type": "bytes32"
        },
        {
          "internalType": "address",
          "name": "account",
          "type": "address"
        }
      ],
      "name": "grantRole",
      "outputs": [],
      "stateMutability": "nonpayable",
      "type": "function"
    },
    {
      "inputs": [
        {
          "internalType": "bytes32",
          "name": "role",
          "type": "bytes32"
        },
        {
          "internalType": "address",
          "name": "account",
          "type": "address"
        }
      ],
      "name": "hasRole",
      "outputs": [
        {
          "internalType": "bool",
          "name": "",
          "type": "bool"
        }
      ],
      "stateMutability": "view",
      "type": "function"
    },
    {
      "inputs": [],
      "name": "initialize",
      "outputs": [],
      "stateMutability": "nonpayable",
      "type": "function"
    },
    {
      "inputs": [
        {
          "internalType": "string",
          "name": "uri",
          "type": "string"
        }
      ],
      "name": "initialize",
      "outputs": [],
      "stateMutability": "nonpayable",
      "type": "function"
    },
    {
      "inputs": [
        {
          "internalType": "address",
          "name": "account",
          "type": "address"
        },
        {
          "internalType": "address",
          "name": "operator",
          "type": "address"
        }
      ],
      "name": "isApprovedForAll",
      "outputs": [
        {
          "internalType": "bool",
          "name": "",
          "type": "bool"
        }
      ],
      "stateMutability": "view",
      "type": "function"
    },
    {
      "inputs": [
        {
          "internalType": "address",
          "name": "",
          "type": "address"
        },
        {
          "internalType": "uint256",
          "name": "",
          "type": "uint256"
        },
        {
          "internalType": "uint256",
          "name": "",
          "type": "uint256"
        },
        {
          "internalType": "bytes",
          "name": "",
          "type": "bytes"
        }
      ],
      "name": "mint",
      "outputs": [],
      "stateMutability": "pure",
      "type": "function"
    },
    {
      "inputs": [
        {
          "internalType": "address",
          "name": "to",
          "type": "address"
        },
        {
          "internalType": "uint256[]",
          "name": "removalIds",
          "type": "uint256[]"
        },
        {
          "internalType": "uint256[]",
          "name": "removalAmounts",
          "type": "uint256[]"
        },
        {
          "internalType": "bytes",
          "name": "data",
          "type": "bytes"
        }
      ],
      "name": "mintBatch",
      "outputs": [],
      "stateMutability": "nonpayable",
      "type": "function"
    },
    {
      "inputs": [],
      "name": "pause",
      "outputs": [],
      "stateMutability": "nonpayable",
      "type": "function"
    },
    {
      "inputs": [],
      "name": "paused",
      "outputs": [
        {
          "internalType": "bool",
          "name": "",
          "type": "bool"
        }
      ],
      "stateMutability": "view",
      "type": "function"
    },
    {
      "inputs": [
        {
          "internalType": "bytes32",
          "name": "role",
          "type": "bytes32"
        },
        {
          "internalType": "address",
          "name": "account",
          "type": "address"
        }
      ],
      "name": "renounceRole",
      "outputs": [],
      "stateMutability": "nonpayable",
      "type": "function"
    },
    {
      "inputs": [
        {
          "internalType": "bytes32",
          "name": "role",
          "type": "bytes32"
        },
        {
          "internalType": "address",
          "name": "account",
          "type": "address"
        }
      ],
      "name": "revokeRole",
      "outputs": [],
      "stateMutability": "nonpayable",
      "type": "function"
    },
    {
      "inputs": [
        {
          "internalType": "address",
          "name": "from",
          "type": "address"
        },
        {
          "internalType": "address",
          "name": "to",
          "type": "address"
        },
        {
          "internalType": "uint256[]",
          "name": "ids",
          "type": "uint256[]"
        },
        {
          "internalType": "uint256[]",
          "name": "amounts",
          "type": "uint256[]"
        },
        {
          "internalType": "bytes",
          "name": "data",
          "type": "bytes"
        }
      ],
      "name": "safeBatchTransferFrom",
      "outputs": [],
      "stateMutability": "nonpayable",
      "type": "function"
    },
    {
      "inputs": [
        {
          "internalType": "address",
          "name": "from",
          "type": "address"
        },
        {
          "internalType": "address",
          "name": "to",
          "type": "address"
        },
        {
          "internalType": "uint256",
          "name": "id",
          "type": "uint256"
        },
        {
          "internalType": "uint256",
          "name": "amount",
          "type": "uint256"
        },
        {
          "internalType": "bytes",
          "name": "data",
          "type": "bytes"
        }
      ],
      "name": "safeTransferFrom",
      "outputs": [],
      "stateMutability": "nonpayable",
      "type": "function"
    },
    {
      "inputs": [
        {
          "internalType": "address",
          "name": "operator",
          "type": "address"
        },
        {
          "internalType": "bool",
          "name": "approved",
          "type": "bool"
        }
      ],
      "name": "setApprovalForAll",
      "outputs": [],
      "stateMutability": "nonpayable",
      "type": "function"
    },
    {
      "inputs": [
        {
          "internalType": "uint256",
          "name": "certificateId",
          "type": "uint256"
        }
      ],
      "name": "sources",
      "outputs": [
        {
          "components": [
            {
              "internalType": "uint256",
              "name": "removalId",
              "type": "uint256"
            },
            {
              "internalType": "uint256",
              "name": "amount",
              "type": "uint256"
            }
          ],
          "internalType": "struct Certificate.Source[]",
          "name": "",
          "type": "tuple[]"
        }
      ],
      "stateMutability": "view",
      "type": "function"
    },
    {
      "inputs": [
        {
          "internalType": "bytes4",
          "name": "interfaceId",
          "type": "bytes4"
        }
      ],
      "name": "supportsInterface",
      "outputs": [
        {
          "internalType": "bool",
          "name": "",
          "type": "bool"
        }
      ],
      "stateMutability": "view",
      "type": "function"
    },
    {
      "inputs": [
        {
          "internalType": "uint256",
          "name": "id",
          "type": "uint256"
        }
      ],
      "name": "totalSupply",
      "outputs": [
        {
          "internalType": "uint256",
          "name": "",
          "type": "uint256"
        }
      ],
      "stateMutability": "view",
      "type": "function"
    },
    {
      "inputs": [],
      "name": "unpause",
      "outputs": [],
      "stateMutability": "nonpayable",
      "type": "function"
    },
    {
      "inputs": [
        {
          "internalType": "uint256",
          "name": "",
          "type": "uint256"
        }
      ],
      "name": "uri",
      "outputs": [
        {
          "internalType": "string",
          "name": "",
          "type": "string"
        }
      ],
      "stateMutability": "view",
      "type": "function"
    }
  ],
  "bytecode": "0x6080604052346200002557620000146200002a565b506040516145289081620000ee8239f35b600080fd5b60005460ff8160081c16600014620000875760405162461bcd60e51b815260206004820152602e60248201526000805160206200461683398151915260448201526d191e481a5b9a5d1a585b1a5e995960921b6064820152608490fd5b60ff8082161015620000a25760ff191660ff17600055600190565b60405162461bcd60e51b815260206004820152602e60248201526000805160206200461683398151915260448201526d191e481a5b9a5d1a585b1a5e995960921b6064820152608490fdfe6080604052600436101561001257600080fd5b60003560e01c8062fdd58e14612e3557806301ffc9a714612cdf5780630e89341c14612bc15780631f7fdffa146125f8578063248a9ca3146125ab57806326c6da4f146125525780632eb2c2d6146120105780632f2ff15d14611efc57806336568abe14611e185780633f4ba83a14611c725780634e1273f414611a4d5780634f558e7914611a015780635c975abb146119bf5780636b20c45414611814578063731133e9146117915780638129fc1c146113825780638456cb59146111d95780639010d07c1461116857806391d14854146110ef578063a217fddf146110b5578063a22cb46514610f5b578063a3663d3714610e77578063bd85b03914610e2d578063ca15c87314610de3578063d539139314610d8a578063d547741f14610d2d578063e63ab1e914610cd4578063e985e9c514610c52578063f242432a146105f3578063f5298aca146104b15763f62d18881461017057600080fd5b346104ac576020807ffffffffffffffffffffffffffffffffffffffffffffffffffffffffffffffffc3601126104ac5767ffffffffffffffff6004358181116104ac57366023820112156104ac576101d290369060248160040135910161302f565b906101db613ef1565b908161047b575b6101fc60ff60005460081c166101f781613f4f565b613f4f565b825190811161044c5761021060cb5461389a565b601f81116103e8575b508392601f821160011461032a579281929360009261031f575b50507fffffffffffffffffffffffffffffffffffffffffffffffffffffffffffffffff8260011b9260031b1c19161760cb555b6102a960ff60005460081c1661027b81613f4f565b61015f7fffffffffffffffffffffffffffffffffffffffffffffffffffffffffffffff008154169055613f4f565b6102b2336130e6565b6102bb336131b5565b6102c4336132a2565b6102cb575b005b7f7f26b83ff96e1f2b6a682f133852f6798a09c465da95921460cefb3847402498907fffffffffffffffffffffffffffffffffffffffffffffffffffffffffffff00ff6000541660005560405160018152a1005b015190503880610233565b7fffffffffffffffffffffffffffffffffffffffffffffffffffffffffffffffe082169360cb6000527fa7ce836d032b2bf62b7e2097a8e0a6d8aeb35405ad15271e96d3b0188a1d06fb9160005b878782106103d257505083600195961061039b575b505050811b0160cb55610266565b01517fffffffffffffffffffffffffffffffffffffffffffffffffffffffffffffffff60f88460031b161c1916905538808061038d565b6001849582939585015181550194019201610378565b60cb6000527fa7ce836d032b2bf62b7e2097a8e0a6d8aeb35405ad15271e96d3b0188a1d06fb601f830160051c810191868410610442575b601f0160051c01905b8181106104365750610219565b60008155600101610429565b9091508190610420565b7f4e487b7100000000000000000000000000000000000000000000000000000000600052604160045260246000fd5b6101007fffffffffffffffffffffffffffffffffffffffffffffffffffffffffffff00ff60005416176000556101e2565b600080fd5b346104ac5760607ffffffffffffffffffffffffffffffffffffffffffffffffffffffffffffffffc3601126104ac5760006104ea612e82565b60243560443561055073ffffffffffffffffffffffffffffffffffffffff84169333851480156105ce575b61051e906139ec565b610529851515613d51565b61053284613d2c565b61053b84613d2c565b918760405161054981612f5c565b5233614290565b81845260c96020526040842083855260205280604085205461057482821015613ddc565b83865260c96020526040862085875260205203604085205560405191825260208201527fc3d58168c5ae7397731d063d5bbf3d657854427343f4c083240f7aacaa2d0f6260403392a460006040516105cb81612f5c565b52005b5084865260ca6020526040862033875260205261051e60ff6040882054169050610515565b346104ac5760a07ffffffffffffffffffffffffffffffffffffffffffffffffffffffffffffffffc3601126104ac5761062a612e82565b610632612ea5565b60843567ffffffffffffffff81116104ac57610652903690600401613094565b9073ffffffffffffffffffffffffffffffffffffffff9133838516148015610c27575b61067e906139ec565b828216151561068c81613a77565b610697604435613d2c565b6106a2606435613d2c565b3360009081527fa8488299d87e5601451cb7c5c2bc43590b838425bc5443a432aac49cb663957b60205260409020549092868816159182159160ff909116159082610c1f575b5081610c17575b50610bed57610b91575b84841615610aa3575b505060ff61015f5416610a1f5760443560005260c9602052604060002083851660005260205260406000205461073c606435821015613b02565b60443560005260c96020526040600020848616600052602052606435900360406000205560443560005260c96020526040600020838316600052602052604060002061078b6064358254613b8d565b90556040516044358152606435602082015283831690848616907fc3d58168c5ae7397731d063d5bbf3d657854427343f4c083240f7aacaa2d0f6260403392a4813b6107d357005b602091610838916000604051958680958194837ff23a6e61000000000000000000000000000000000000000000000000000000009b8c85523360048601521660248401526044356044840152606435606484015260a0608484015260a4830190612efd565b0393165af1600091816109ee575b506109425750506001610857613c81565b6308c379a0146108f1575b61086857005b6040517f08c379a000000000000000000000000000000000000000000000000000000000815260206004820152603460248201527f455243313135353a207472616e7366657220746f206e6f6e204552433131353560448201527f526563656976657220696d706c656d656e7465720000000000000000000000006064820152608490fd5b0390fd5b6108f9613c9f565b806109045750610862565b6108ed906040519182917f08c379a0000000000000000000000000000000000000000000000000000000008352602060048401526024830190612efd565b7fffffffff0000000000000000000000000000000000000000000000000000000016146102c9576040517f08c379a000000000000000000000000000000000000000000000000000000000815260206004820152602860248201527f455243313135353a204552433131353552656365697665722072656a6563746560448201527f6420746f6b656e730000000000000000000000000000000000000000000000006064820152608490fd5b610a1191925060203d602011610a18575b610a098183612f78565b810190613c49565b9083610846565b503d6109ff565b60846040517f08c379a000000000000000000000000000000000000000000000000000000000815260206004820152602c60248201527f455243313135355061757361626c653a20746f6b656e207472616e736665722060448201527f7768696c652070617573656400000000000000000000000000000000000000006064820152fd5b92600095929491955b8451811015610b8357610abf81866139d8565b5190610acb81896139d8565b518260005260fb602052604060002054818110610aff57610afa9360005260fb602052036040600020556139ab565b610aac565b60846040517f08c379a000000000000000000000000000000000000000000000000000000000815260206004820152602860248201527f455243313135353a206275726e20616d6f756e74206578636565647320746f7460448201527f616c537570706c790000000000000000000000000000000000000000000000006064820152fd5b509250929093508480610702565b92600095929491955b8451811015610be15780610bb1610bdc92896139d8565b51610bbc82886139d8565b5160005260fb602052610bd56040600020918254613b8d565b90556139ab565b610b9a565b509294909391946106f9565b60046040517f175e5a90000000000000000000000000000000000000000000000000000000008152fd5b9050886106ef565b9150896106e8565b5082841660005260ca60205260406000203360005260205261067e60ff604060002054169050610675565b346104ac5760407ffffffffffffffffffffffffffffffffffffffffffffffffffffffffffffffffc3601126104ac57610c89612e82565b610c91612ea5565b9073ffffffffffffffffffffffffffffffffffffffff80911660005260ca60205260406000209116600052602052602060ff604060002054166040519015158152f35b346104ac5760007ffffffffffffffffffffffffffffffffffffffffffffffffffffffffffffffffc3601126104ac5760206040517f65d7a28e3265b37a6474929f336521b332c1681b933f6cb9f3376673440d862a8152f35b346104ac5760407ffffffffffffffffffffffffffffffffffffffffffffffffffffffffffffffffc3601126104ac576102c9600435610d6a612ea5565b90806000526065602052610d85600160406000200154613324565b6137e7565b346104ac5760007ffffffffffffffffffffffffffffffffffffffffffffffffffffffffffffffffc3601126104ac5760206040517f9f2df0fed2c77648de5860a4cc508cd0818c85b8b8a1ab4ceeef8d981c8956a68152f35b346104ac5760207ffffffffffffffffffffffffffffffffffffffffffffffffffffffffffffffffc3601126104ac5760043560005260976020526020604060002054604051908152f35b346104ac5760207ffffffffffffffffffffffffffffffffffffffffffffffffffffffffffffffffc3601126104ac5760043560005260fb6020526020604060002054604051908152f35b346104ac576020807ffffffffffffffffffffffffffffffffffffffffffffffffffffffffffffffffc3601126104ac576004356000526101f581526040600020908154610ec381612fb9565b90610ed16040519283612f78565b8082528282018094600052836000206000915b838310610f2f5760408051878152865181890181905289928201908960005b828110610f105784840385f35b8551805185528201518483015294810194604090930192600101610f03565b600286600192604051610f4181612f40565b855481528486015483820152815201920192019190610ee4565b346104ac5760407ffffffffffffffffffffffffffffffffffffffffffffffffffffffffffffffffc3601126104ac57610f92612e82565b602435908115158092036104ac5773ffffffffffffffffffffffffffffffffffffffff1690813314611031573360005260ca60205260406000208260005260205260406000207fffffffffffffffffffffffffffffffffffffffffffffffffffffffffffffff0081541660ff83161790556040519081527f17307eab39ab6107e8899845ad3d59bd9653f200f220920489ca2b5937696c3160203392a3005b60846040517f08c379a000000000000000000000000000000000000000000000000000000000815260206004820152602960248201527f455243313135353a2073657474696e6720617070726f76616c2073746174757360448201527f20666f722073656c6600000000000000000000000000000000000000000000006064820152fd5b346104ac5760007ffffffffffffffffffffffffffffffffffffffffffffffffffffffffffffffffc3601126104ac57602060405160008152f35b346104ac5760407ffffffffffffffffffffffffffffffffffffffffffffffffffffffffffffffffc3601126104ac57611126612ea5565b600435600052606560205273ffffffffffffffffffffffffffffffffffffffff60406000209116600052602052602060ff604060002054166040519015158152f35b346104ac5760407ffffffffffffffffffffffffffffffffffffffffffffffffffffffffffffffffc3601126104ac576004356000526097602052602073ffffffffffffffffffffffffffffffffffffffff6111c96024356040600020613feb565b9190546040519260031b1c168152f35b346104ac5760007ffffffffffffffffffffffffffffffffffffffffffffffffffffffffffffffffc3601126104ac573360009081527fbfe93621c6aa2dbf737e9056c9b79e4d30ee4f6b28b18be2cb71aac8a7bf258e602052604090205460ff16156112fe5761015f805460ff81166112a0577fffffffffffffffffffffffffffffffffffffffffffffffffffffffffffffff00600191161790557f62e78cea01bee320cd4e420270b5ea74000d11b0c9f74754ebdbfc544b05a2586020604051338152a1005b60646040517f08c379a000000000000000000000000000000000000000000000000000000000815260206004820152601060248201527f5061757361626c653a20706175736564000000000000000000000000000000006044820152fd5b60846040517f08c379a000000000000000000000000000000000000000000000000000000000815260206004820152603960248201527f455243313135355072657365744d696e7465725061757365723a206d7573742060448201527f686176652070617573657220726f6c6520746f207061757365000000000000006064820152fd5b346104ac5760007ffffffffffffffffffffffffffffffffffffffffffffffffffffffffffffffffc3601126104ac576113b9613ef1565b80611760575b60ff60005460081c16906113d282613f4f565b6113db82613f4f565b6113e482613f4f565b6113ed82613f4f565b6113f682613f4f565b7fffffffffffffffffffffffffffffffffffffffffffffffffffffffffffffff0061015f81815416815561142984613f4f565b61143a611434614220565b94613f4f565b835167ffffffffffffffff811161044c5761145660cb5461389a565b601f81116116fb575b506020601f82116001146116355781906114d794959660009261162a575b50507fffffffffffffffffffffffffffffffffffffffffffffffffffffffffffffffff8260011b9260031b1c19161760cb555b60ff60005460081c16906114c382613f4f565b8381541690556114d1614220565b50613f4f565b6114e0336130e6565b6114e9336131b5565b6114f2336132a2565b61150360ff60005460081c16613f4f565b3360009081527fa8488299d87e5601451cb7c5c2bc43590b838425bc5443a432aac49cb663957b60205260409020547fb6eeb50d1ea0d876d560efb18b8017323347ce323ef4b05d5a0322c9c7869f8f919060ff16156115d7575b506000526097602052611575336040600020614003565b5060006101f65561158257005b7fffffffffffffffffffffffffffffffffffffffffffffffffffffffffffff00ff600054166000557f7f26b83ff96e1f2b6a682f133852f6798a09c465da95921460cefb3847402498602060405160018152a1005b81600052606560205260406000203360005260205260016040600020918254161790553333827f2f8788117e7eff1d82e926ec794901d17c78024a50270940304540a733656f0d6000604051a48261155e565b01519050868061147d565b7fffffffffffffffffffffffffffffffffffffffffffffffffffffffffffffffe082169560cb6000527fa7ce836d032b2bf62b7e2097a8e0a6d8aeb35405ad15271e96d3b0188a1d06fb9660005b8181106116e35750916114d7959697918460019594106116ac575b505050811b0160cb556114b0565b01517fffffffffffffffffffffffffffffffffffffffffffffffffffffffffffffffff60f88460031b161c1916905586808061169e565b83830151895560019098019760209384019301611683565b60cb6000527fa7ce836d032b2bf62b7e2097a8e0a6d8aeb35405ad15271e96d3b0188a1d06fb601f830160051c81019160208410611756575b601f0160051c01905b81811061174a575061145f565b6000815560010161173d565b9091508190611734565b6101007fffffffffffffffffffffffffffffffffffffffffffffffffffffffffffff00ff60005416176000556113bf565b346104ac5760807ffffffffffffffffffffffffffffffffffffffffffffffffffffffffffffffffc3601126104ac576117c8612e82565b5060643567ffffffffffffffff81116104ac576117e9903690600401613094565b5060046040517fb0712d20000000000000000000000000000000000000000000000000000000008152fd5b346104ac5760607ffffffffffffffffffffffffffffffffffffffffffffffffffffffffffffffffc3601126104ac5761184b612e82565b67ffffffffffffffff6024358181116104ac5761186c903690600401612fd1565b906044359081116104ac57611885903690600401612fd1565b916118dc838373ffffffffffffffffffffffffffffffffffffffff8416933385148015611996575b6118b6906139ec565b6118c1851515613d51565b6118ce8251845114613b99565b600060405161054981612f5c565b60005b825181101561194e57806118f661194992856139d8565b5161190182876139d8565b51908060005260c960209080825260406000208760005282526040600020549261192d85851015613ddc565b60005281526040600020908660005252036040600020556139ab565b6118df565b50907f4a39dc06d4c0dbc64b70af90fd698a233a518aa5d07e595d983b8c0526c8f7fb611985600094604051918291339583613c24565b0390a460006040516105cb81612f5c565b508460005260ca6020526040600020336000526020526118b660ff6040600020541690506118ad565b346104ac5760007ffffffffffffffffffffffffffffffffffffffffffffffffffffffffffffffffc3601126104ac57602060ff61015f54166040519015158152f35b346104ac5760207ffffffffffffffffffffffffffffffffffffffffffffffffffffffffffffffffc3601126104ac5760043560005260fb60205260206040600020541515604051908152f35b346104ac5760407ffffffffffffffffffffffffffffffffffffffffffffffffffffffffffffffffc3601126104ac5760043567ffffffffffffffff8082116104ac57366023830112156104ac57816004013590611aa982612fb9565b92611ab76040519485612f78565b82845260209260248486019160051b830101913683116104ac57602401905b828210611c46575050506024359081116104ac57611af8903690600401612fd1565b8251815103611bc2578251927fffffffffffffffffffffffffffffffffffffffffffffffffffffffffffffffe0611b47611b3186612fb9565b95611b3f6040519788612f78565b808752612fb9565b01368486013760005b8151811015611ba75780611b9273ffffffffffffffffffffffffffffffffffffffff611b7f611ba294866139d8565b5116611b8b83876139d8565b51906138ed565b611b9c82886139d8565b526139ab565b611b50565b505050611bbe6040519282849384528301906130b2565b0390f35b608482604051907f08c379a00000000000000000000000000000000000000000000000000000000082526004820152602960248201527f455243313135353a206163636f756e747320616e6420696473206c656e67746860448201527f206d69736d6174636800000000000000000000000000000000000000000000006064820152fd5b813573ffffffffffffffffffffffffffffffffffffffff811681036104ac578152908401908401611ad6565b346104ac5760007ffffffffffffffffffffffffffffffffffffffffffffffffffffffffffffffffc3601126104ac573360009081527fbfe93621c6aa2dbf737e9056c9b79e4d30ee4f6b28b18be2cb71aac8a7bf258e602052604090205460ff1615611d945761015f805460ff811615611d36577fffffffffffffffffffffffffffffffffffffffffffffffffffffffffffffff001690557f5db9ee0a495bf2e6ff9c91a7834c1ba4fdd244a5e8aa4e537bd38aeae4b073aa6020604051338152a1005b60646040517f08c379a000000000000000000000000000000000000000000000000000000000815260206004820152601460248201527f5061757361626c653a206e6f74207061757365640000000000000000000000006044820152fd5b60846040517f08c379a000000000000000000000000000000000000000000000000000000000815260206004820152603b60248201527f455243313135355072657365744d696e7465725061757365723a206d7573742060448201527f686176652070617573657220726f6c6520746f20756e706175736500000000006064820152fd5b346104ac5760407ffffffffffffffffffffffffffffffffffffffffffffffffffffffffffffffffc3601126104ac57611e4f612ea5565b3373ffffffffffffffffffffffffffffffffffffffff821603611e78576102c9906004356137e7565b60846040517f08c379a000000000000000000000000000000000000000000000000000000000815260206004820152602f60248201527f416363657373436f6e74726f6c3a2063616e206f6e6c792072656e6f756e636560448201527f20726f6c657320666f722073656c6600000000000000000000000000000000006064820152fd5b346104ac5760407ffffffffffffffffffffffffffffffffffffffffffffffffffffffffffffffffc3601126104ac576102c96004356097611f3b612ea5565b918060005260209060658252611f58600160406000200154613324565b806000526065825273ffffffffffffffffffffffffffffffffffffffff604060002094169384600052825260ff6040600020541615611fa0575b600052526040600020614003565b80600052606582526040600020846000528252604060002060017fffffffffffffffffffffffffffffffffffffffffffffffffffffffffffffff008254161790553384827f2f8788117e7eff1d82e926ec794901d17c78024a50270940304540a733656f0d6000604051a4611f92565b346104ac5760a07ffffffffffffffffffffffffffffffffffffffffffffffffffffffffffffffffc3601126104ac57612047612e82565b61204f612ea5565b67ffffffffffffffff6044358181116104ac57612070903690600401612fd1565b916064358281116104ac57612089903690600401612fd1565b916084359081116104ac576120a2903690600401613094565b9273ffffffffffffffffffffffffffffffffffffffff903382871614801561252c575b156124a8576120d78151855114613b99565b8183161580156120e681613a77565b3360009081527fa8488299d87e5601451cb7c5c2bc43590b838425bc5443a432aac49cb663957b6020526040902054888516159182159160ff161590826124a0575b5081612498575b50610bed5761245e575b6123f6575b60ff61015f5416610a1f5760005b81518110156121e357806121636121de92846139d8565b5161216e82886139d8565b51908060005260c990816020526040600020878c166000526020528260406000205461219c82821015613b02565b82600052836020528c8960406000209116600052602052036040600020556000526020526040600020858716600052602052610bd56040600020918254613b8d565b61214c565b509294939460405182841690838716907f4a39dc06d4c0dbc64b70af90fd698a233a518aa5d07e595d983b8c0526c8f7fb339180612222878b83613c24565b0390a4823b61222d57005b816020956122e8612288986122b86000956040519b8c9a8b998a977fbc197c810000000000000000000000000000000000000000000000000000000089523360048a015216602488015260a0604488015260a48701906130b2565b907ffffffffffffffffffffffffffffffffffffffffffffffffffffffffffffffffc8683030160648701526130b2565b907ffffffffffffffffffffffffffffffffffffffffffffffffffffffffffffffffc848303016084850152612efd565b0393165af1600091816123d5575b5061230657506001610857613c81565b7fffffffff000000000000000000000000000000000000000000000000000000007fbc197c8100000000000000000000000000000000000000000000000000000000911603156102c9576040517f08c379a000000000000000000000000000000000000000000000000000000000815260206004820152602860248201527f455243313135353a204552433131353552656365697665722072656a6563746560448201527f6420746f6b656e730000000000000000000000000000000000000000000000006064820152608490fd5b6123ef91925060203d602011610a1857610a098183612f78565b90826122f6565b92949160009491945b84518110156124525761241281866139d8565b519061241e81896139d8565b518260005260fb602052604060002054818110610aff5761244d9360005260fb602052036040600020556139ab565b6123ff565b5091949293909361213e565b959290949160005b865181101561248d578061247d61248892886139d8565b51610bbc828a6139d8565b612466565b509194909295612139565b90508961212f565b91508a612128565b60846040517f08c379a000000000000000000000000000000000000000000000000000000000815260206004820152603260248201527f455243313135353a207472616e736665722063616c6c6572206973206e6f742060448201527f6f776e6572206e6f7220617070726f76656400000000000000000000000000006064820152fd5b5081861660005260ca60205260406000203360005260205260ff604060002054166120c5565b346104ac5760007ffffffffffffffffffffffffffffffffffffffffffffffffffffffffffffffffc3601126104ac5760206040517fb6eeb50d1ea0d876d560efb18b8017323347ce323ef4b05d5a0322c9c7869f8f8152f35b346104ac5760207ffffffffffffffffffffffffffffffffffffffffffffffffffffffffffffffffc3601126104ac5760043560005260656020526020600160406000200154604051908152f35b346104ac5760807ffffffffffffffffffffffffffffffffffffffffffffffffffffffffffffffffc3601126104ac5761262f612e82565b67ffffffffffffffff906024358281116104ac57612651903690600401612fd1565b60449182358481116104ac5761266b903690600401612fd1565b60649485359081116104ac57612685903690600401613094565b6101f6928354916020818051810103126104ac5760208101519060005b87518110156127c8576126b581876139d8565b516127175789897f43657274696669636174653a2052656d6f76616c20616d6f756e742030000000604051917f08c379a000000000000000000000000000000000000000000000000000000000835260206004840152601d6024840152820152fd5b846000526101f5602052604060002090612731818a6139d8565b5161273c82896139d8565b516040519161274a83612f40565b8252602082019081528354906801000000000000000082101561044c576001918281018087558110156127995761279495600052602060002090831b0192518355519101556139ab565b6126a2565b7f4e487b7100000000000000000000000000000000000000000000000000000000600052603260045260246000fd5b509092879295878a967ffffffffffffffffffffffffffffffffffffffffffffffffffffffffffffffffe8411612b92576128497fb1b9468300ca5a516913a0f871fd85fbf8a14af751437fd41a807ba45e75d7c991859460018601905560405191829173ffffffffffffffffffffffffffffffffffffffff8d169583613c24565b0390a33360009081527fa0f6cebec7fb889cc5ac88647269c4c0108fb926abd2111b551f234b348876df602052604090205460ff1615612b0f5773ffffffffffffffffffffffffffffffffffffffff861615612a8c576128a881613d2c565b936128b281613d2c565b3360009081527fa8488299d87e5601451cb7c5c2bc43590b838425bc5443a432aac49cb663957b6020529097905b86518110156128fc578061247d6128f7928b6139d8565b6128e0565b508660ff61015f5416612a09578360005260c9602052604060002073ffffffffffffffffffffffffffffffffffffffff83166000526020526040600020612944848254613b8d565b9055604051848152836020820152600073ffffffffffffffffffffffffffffffffffffffff8416917fc3d58168c5ae7397731d063d5bbf3d657854427343f4c083240f7aacaa2d0f6260403392a4813b61299a57005b600073ffffffffffffffffffffffffffffffffffffffff602095610838604051988997889687947ff23a6e61000000000000000000000000000000000000000000000000000000009d8e875233600488015288602488015286015284015260a0608484015260a4830190612efd565b857f7768696c652070617573656400000000000000000000000000000000000000006084927f455243313135355061757361626c653a20746f6b656e207472616e7366657220604051937f08c379a000000000000000000000000000000000000000000000000000000000855260206004860152602c6024860152840152820152fd5b6084837f7300000000000000000000000000000000000000000000000000000000000000877f455243313135353a206d696e7420746f20746865207a65726f20616464726573604051937f08c379a00000000000000000000000000000000000000000000000000000000085526020600486015260216024860152840152820152fd5b6084837f68617665206d696e74657220726f6c6520746f206d696e740000000000000000877f455243313135355072657365744d696e7465725061757365723a206d75737420604051937f08c379a00000000000000000000000000000000000000000000000000000000085526020600486015260386024860152840152820152fd5b7f4e487b7100000000000000000000000000000000000000000000000000000000600052601160045260246000fd5b346104ac576020807ffffffffffffffffffffffffffffffffffffffffffffffffffffffffffffffffc3601126104ac576040519060008260cb5491612c058361389a565b92838352600190858282169182600014612ca1575050600114612c44575b50612c3092500383612f78565b611bbe604051928284938452830190612efd565b84915060cb6000527fa7ce836d032b2bf62b7e2097a8e0a6d8aeb35405ad15271e96d3b0188a1d06fb906000915b858310612c89575050612c30935082010185612c23565b80548389018501528794508693909201918101612c72565b7fffffffffffffffffffffffffffffffffffffffffffffffffffffffffffffff001685820152612c3095151560051b8501019250879150612c239050565b346104ac5760207ffffffffffffffffffffffffffffffffffffffffffffffffffffffffffffffffc3601126104ac576004357fffffffff0000000000000000000000000000000000000000000000000000000081168091036104ac57807fd9b67a260000000000000000000000000000000000000000000000000000000060209214908115612e0b575b8115612d7b575b506040519015158152f35b7f5a05180f00000000000000000000000000000000000000000000000000000000811491508115612dae575b5082612d70565b7f7965db0b00000000000000000000000000000000000000000000000000000000811491508115612de1575b5082612da7565b7f01ffc9a70000000000000000000000000000000000000000000000000000000091501482612dda565b7f0e89341c0000000000000000000000000000000000000000000000000000000081149150612d69565b346104ac5760407ffffffffffffffffffffffffffffffffffffffffffffffffffffffffffffffffc3601126104ac576020612e7a612e71612e82565b602435906138ed565b604051908152f35b6004359073ffffffffffffffffffffffffffffffffffffffff821682036104ac57565b6024359073ffffffffffffffffffffffffffffffffffffffff821682036104ac57565b918091926000905b828210612ee8575011612ee1575050565b6000910152565b91508060209183015181860152018291612ed0565b907fffffffffffffffffffffffffffffffffffffffffffffffffffffffffffffffe0601f602093612f3981518092818752878088019101612ec8565b0116010190565b6040810190811067ffffffffffffffff82111761044c57604052565b6020810190811067ffffffffffffffff82111761044c57604052565b90601f7fffffffffffffffffffffffffffffffffffffffffffffffffffffffffffffffe0910116810190811067ffffffffffffffff82111761044c57604052565b67ffffffffffffffff811161044c5760051b60200190565b81601f820112156104ac57803591612fe883612fb9565b92612ff66040519485612f78565b808452602092838086019260051b8201019283116104ac578301905b828210613020575050505090565b81358152908301908301613012565b92919267ffffffffffffffff821161044c576040519161307760207fffffffffffffffffffffffffffffffffffffffffffffffffffffffffffffffe0601f8401160184612f78565b8294818452818301116104ac578281602093846000960137010152565b9080601f830112156104ac578160206130af9335910161302f565b90565b90815180825260208080930193019160005b8281106130d2575050505090565b8351855293810193928101926001016130c4565b73ffffffffffffffffffffffffffffffffffffffff1660008181527fffdfc1249c027f9191656349feb0761381bb32c9f557e01f419fd08754bf5a1b60205260408082205461314893929060ff161561314b575b808052609760205220614003565b50565b808052606560205281812083825260205281812060017fffffffffffffffffffffffffffffffffffffffffffffffffffffffffffffff008254161790553383827f2f8788117e7eff1d82e926ec794901d17c78024a50270940304540a733656f0d818651a461313a565b73ffffffffffffffffffffffffffffffffffffffff1660008181527fa0f6cebec7fb889cc5ac88647269c4c0108fb926abd2111b551f234b348876df6020526040808220546131489392907f9f2df0fed2c77648de5860a4cc508cd0818c85b8b8a1ab4ceeef8d981c8956a69060ff1615613238575b8152609760205220614003565b808252606560205282822084835260205282822060017fffffffffffffffffffffffffffffffffffffffffffffffffffffffffffffff008254161790553384827f2f8788117e7eff1d82e926ec794901d17c78024a50270940304540a733656f0d858751a461322b565b73ffffffffffffffffffffffffffffffffffffffff1660008181527fbfe93621c6aa2dbf737e9056c9b79e4d30ee4f6b28b18be2cb71aac8a7bf258e6020526040808220546131489392907f65d7a28e3265b37a6474929f336521b332c1681b933f6cb9f3376673440d862a9060ff1615613238578152609760205220614003565b60009080825260209060658252604092838120338252835260ff84822054161561334e5750505050565b83519167ffffffffffffffff903360608501838111868210176137ba578752602a8552858501918736843785511561378d5760308353855191600192831015613760576078602188015360295b838111613699575061363d5790875193608085019085821090821117613610578852604284528684019460603687378451156135e3576030865384518210156135e35790607860218601536041915b818311613518575050506134bc576108ed938693613486936134776048946134429a519a8b957f416363657373436f6e74726f6c3a206163636f756e74200000000000000000008c8801525180926037880190612ec8565b8401917f206973206d697373696e6720726f6c6520000000000000000000000000000000603784015251809386840190612ec8565b01036028810187520185612f78565b519283927f08c379a000000000000000000000000000000000000000000000000000000000845260048401526024830190612efd565b6064858751907f08c379a000000000000000000000000000000000000000000000000000000000825280600483015260248201527f537472696e67733a20686578206c656e67746820696e73756666696369656e746044820152fd5b909192600f811660108110156135b6577f3031323334353637383961626364656600000000000000000000000000000000901a6135558588613fda565b5360041c928015613589577fffffffffffffffffffffffffffffffffffffffffffffffffffffffffffffffff0191906133ea565b6024827f4e487b710000000000000000000000000000000000000000000000000000000081526011600452fd5b6024837f4e487b710000000000000000000000000000000000000000000000000000000081526032600452fd5b807f4e487b7100000000000000000000000000000000000000000000000000000000602492526032600452fd5b6024867f4e487b710000000000000000000000000000000000000000000000000000000081526041600452fd5b6064878951907f08c379a000000000000000000000000000000000000000000000000000000000825280600483015260248201527f537472696e67733a20686578206c656e67746820696e73756666696369656e746044820152fd5b90600f81166010811015613733577f3031323334353637383961626364656600000000000000000000000000000000901a6136d4838a613fda565b5360041c908015613706577fffffffffffffffffffffffffffffffffffffffffffffffffffffffffffffffff0161339b565b6024877f4e487b710000000000000000000000000000000000000000000000000000000081526011600452fd5b6024887f4e487b710000000000000000000000000000000000000000000000000000000081526032600452fd5b6024867f4e487b710000000000000000000000000000000000000000000000000000000081526032600452fd5b6024857f4e487b710000000000000000000000000000000000000000000000000000000081526032600452fd5b6024857f4e487b710000000000000000000000000000000000000000000000000000000081526041600452fd5b90613148916000818152606560205260409173ffffffffffffffffffffffffffffffffffffffff83832094169384835260205260ff8383205416613833575b81526097602052206140c6565b80825260656020528282208483526020528282207fffffffffffffffffffffffffffffffffffffffffffffffffffffffffffffff0081541690553384827ff6391f5c32d9c69d2a47ea670b442974b53935d1edc7fd64eb21e047a839171b858751a4613826565b90600182811c921680156138e3575b60208310146138b457565b7f4e487b7100000000000000000000000000000000000000000000000000000000600052602260045260246000fd5b91607f16916138a9565b73ffffffffffffffffffffffffffffffffffffffff169081156139275760005260c960205260406000209060005260205260406000205490565b60846040517f08c379a000000000000000000000000000000000000000000000000000000000815260206004820152602b60248201527f455243313135353a2062616c616e636520717565727920666f7220746865207a60448201527f65726f20616464726573730000000000000000000000000000000000000000006064820152fd5b7fffffffffffffffffffffffffffffffffffffffffffffffffffffffffffffffff8114612b925760010190565b80518210156127995760209160051b010190565b156139f357565b60846040517f08c379a000000000000000000000000000000000000000000000000000000000815260206004820152602960248201527f455243313135353a2063616c6c6572206973206e6f74206f776e6572206e6f7260448201527f20617070726f76656400000000000000000000000000000000000000000000006064820152fd5b15613a7e57565b60846040517f08c379a000000000000000000000000000000000000000000000000000000000815260206004820152602560248201527f455243313135353a207472616e7366657220746f20746865207a65726f20616460448201527f64726573730000000000000000000000000000000000000000000000000000006064820152fd5b15613b0957565b60846040517f08c379a000000000000000000000000000000000000000000000000000000000815260206004820152602a60248201527f455243313135353a20696e73756666696369656e742062616c616e636520666f60448201527f72207472616e73666572000000000000000000000000000000000000000000006064820152fd5b81198111612b92570190565b15613ba057565b60846040517f08c379a000000000000000000000000000000000000000000000000000000000815260206004820152602860248201527f455243313135353a2069647320616e6420616d6f756e7473206c656e6774682060448201527f6d69736d617463680000000000000000000000000000000000000000000000006064820152fd5b9091613c3b6130af936040845260408401906130b2565b9160208184039101526130b2565b908160209103126104ac57517fffffffff00000000000000000000000000000000000000000000000000000000811681036104ac5790565b60009060033d11613c8e57565b905060046000803e60005160e01c90565b600060443d106130af576040517ffffffffffffffffffffffffffffffffffffffffffffffffffffffffffffffffc91823d016004833e815167ffffffffffffffff918282113d602484011117613d1b57818401948551938411613d23573d85010160208487010111613d1b57506130af92910160200190612f78565b949350505050565b50949350505050565b60405190613d3982612f40565b60018252602082016020368237825115612799575290565b15613d5857565b60846040517f08c379a000000000000000000000000000000000000000000000000000000000815260206004820152602360248201527f455243313135353a206275726e2066726f6d20746865207a65726f206164647260448201527f65737300000000000000000000000000000000000000000000000000000000006064820152fd5b15613de357565b60846040517f08c379a0000000000000000000000000000000000000000000000000000000008152602060048201526024808201527f455243313135353a206275726e20616d6f756e7420657863656564732062616c60448201527f616e6365000000000000000000000000000000000000000000000000000000006064820152fd5b15613e6d57565b60846040517f08c379a000000000000000000000000000000000000000000000000000000000815260206004820152602e60248201527f496e697469616c697a61626c653a20636f6e747261637420697320616c72656160448201527f647920696e697469616c697a65640000000000000000000000000000000000006064820152fd5b60005460ff8160081c16600014613f135750613f0e303b15613e66565b600090565b7fffffffffffffffffffffffffffffffffffffffffffffffffffffffffffffff0081613f45600160ff81951610613e66565b1617600055600190565b15613f5657565b60846040517f08c379a000000000000000000000000000000000000000000000000000000000815260206004820152602b60248201527f496e697469616c697a61626c653a20636f6e7472616374206973206e6f74206960448201527f6e697469616c697a696e670000000000000000000000000000000000000000006064820152fd5b908151811015612799570160200190565b80548210156127995760005260206000200190600090565b919060018301600090828252806020526040822054156000146140c05784549468010000000000000000861015614093578361408361404c886001604098999a01855584613feb565b819391549060031b7fffffffffffffffffffffffffffffffffffffffffffffffffffffffffffffffff811b9283911b169119161790565b9055549382526020522055600190565b6024837f4e487b710000000000000000000000000000000000000000000000000000000081526041600452fd5b50925050565b9060018201906000928184528260205260408420549081151560001461421957600182106141ec577fffffffffffffffffffffffffffffffffffffffffffffffffffffffffffffffff918281018254600181106141bf5784019080820361418a575b5050508054801561415d578201916141408383613feb565b909182549160031b1b191690555582526020526040812055600190565b6024867f4e487b710000000000000000000000000000000000000000000000000000000081526031600452fd5b6141aa61419a61404c9386613feb565b90549060031b1c92839286613feb565b90558652846020526040862055388080614128565b6024887f4e487b710000000000000000000000000000000000000000000000000000000081526011600452fd5b6024857f4e487b710000000000000000000000000000000000000000000000000000000081526011600452fd5b5050505090565b604051906060820182811067ffffffffffffffff82111761044c57604052602a82527f2f7b69647d2e6a736f6e000000000000000000000000000000000000000000006040837f68747470733a2f2f6e6f72692e636f6d2f6170692f636572746966696361746560208201520152565b73ffffffffffffffffffffffffffffffffffffffff90811660009081527fa8488299d87e5601451cb7c5c2bc43590b838425bc5443a432aac49cb663957b602090815260408083205496979692959094919390929116159081159060ff1615816144ea575b816144e2575b506144b957614471575b835b81518110156143d85761431a81836139d8565b5161432582896139d8565b519080875260fb808652868820549183831061435557885285528587209190039055614350906139ab565b614307565b6084878951907f08c379a00000000000000000000000000000000000000000000000000000000082526004820152602860248201527f455243313135353a206275726e20616d6f756e74206578636565647320746f7460448201527f616c537570706c790000000000000000000000000000000000000000000000006064820152fd5b5050929350905060ff61015f54166143ee575050565b6084925051907f08c379a00000000000000000000000000000000000000000000000000000000082526004820152602c60248201527f455243313135355061757361626c653a20746f6b656e207472616e736665722060448201527f7768696c652070617573656400000000000000000000000000000000000000006064820152fd5b9294855b84518110156144b1578061448c6144ac92846139d8565b5161449782886139d8565b51895260fb8552610bd5868a20918254613b8d565b614475565b509492614305565b600484517f175e5a90000000000000000000000000000000000000000000000000000000008152fd5b9050386142fb565b8691506142f556fea2646970667358221220b4007aad70e732e6e8b09583b52c2911a1561df1c8df81ee4dde1dc69829de5e64736f6c634300080f0033496e697469616c697a61626c653a20636f6e747261637420697320616c726561",
  "linkReferences": {},
  "deployedLinkReferences": {}
}