{
  "_format": "hh-sol-artifact-1",
  "contractName": "Certificate",
  "sourceName": "contracts/Certificate.sol",
  "abi": [
    {
      "inputs": [],
      "name": "ForbiddenFunctionCall",
      "type": "error"
    },
    {
      "inputs": [],
      "name": "ForbiddenTransferAfterMinting",
      "type": "error"
    },
    {
      "anonymous": false,
      "inputs": [
        {
          "indexed": true,
          "internalType": "address",
          "name": "account",
          "type": "address"
        },
        {
          "indexed": true,
          "internalType": "address",
          "name": "operator",
          "type": "address"
        },
        {
          "indexed": false,
          "internalType": "bool",
          "name": "approved",
          "type": "bool"
        }
      ],
      "name": "ApprovalForAll",
      "type": "event"
    },
    {
      "anonymous": false,
      "inputs": [
        {
          "indexed": true,
          "internalType": "address",
          "name": "recipient",
          "type": "address"
        },
        {
          "indexed": true,
          "internalType": "uint256",
          "name": "certificateId",
          "type": "uint256"
        },
        {
          "indexed": false,
          "internalType": "uint256[]",
          "name": "removalIds",
          "type": "uint256[]"
        },
        {
          "indexed": false,
          "internalType": "uint256[]",
          "name": "amounts",
          "type": "uint256[]"
        }
      ],
      "name": "CertificateCreated",
      "type": "event"
    },
    {
      "anonymous": false,
      "inputs": [
        {
          "indexed": false,
          "internalType": "address",
          "name": "account",
          "type": "address"
        }
      ],
      "name": "Paused",
      "type": "event"
    },
    {
      "anonymous": false,
      "inputs": [
        {
          "indexed": true,
          "internalType": "bytes32",
          "name": "role",
          "type": "bytes32"
        },
        {
          "indexed": true,
          "internalType": "bytes32",
          "name": "previousAdminRole",
          "type": "bytes32"
        },
        {
          "indexed": true,
          "internalType": "bytes32",
          "name": "newAdminRole",
          "type": "bytes32"
        }
      ],
      "name": "RoleAdminChanged",
      "type": "event"
    },
    {
      "anonymous": false,
      "inputs": [
        {
          "indexed": true,
          "internalType": "bytes32",
          "name": "role",
          "type": "bytes32"
        },
        {
          "indexed": true,
          "internalType": "address",
          "name": "account",
          "type": "address"
        },
        {
          "indexed": true,
          "internalType": "address",
          "name": "sender",
          "type": "address"
        }
      ],
      "name": "RoleGranted",
      "type": "event"
    },
    {
      "anonymous": false,
      "inputs": [
        {
          "indexed": true,
          "internalType": "bytes32",
          "name": "role",
          "type": "bytes32"
        },
        {
          "indexed": true,
          "internalType": "address",
          "name": "account",
          "type": "address"
        },
        {
          "indexed": true,
          "internalType": "address",
          "name": "sender",
          "type": "address"
        }
      ],
      "name": "RoleRevoked",
      "type": "event"
    },
    {
      "anonymous": false,
      "inputs": [
        {
          "indexed": true,
          "internalType": "address",
          "name": "operator",
          "type": "address"
        },
        {
          "indexed": true,
          "internalType": "address",
          "name": "from",
          "type": "address"
        },
        {
          "indexed": true,
          "internalType": "address",
          "name": "to",
          "type": "address"
        },
        {
          "indexed": false,
          "internalType": "uint256[]",
          "name": "ids",
          "type": "uint256[]"
        },
        {
          "indexed": false,
          "internalType": "uint256[]",
          "name": "values",
          "type": "uint256[]"
        }
      ],
      "name": "TransferBatch",
      "type": "event"
    },
    {
      "anonymous": false,
      "inputs": [
        {
          "indexed": true,
          "internalType": "address",
          "name": "operator",
          "type": "address"
        },
        {
          "indexed": true,
          "internalType": "address",
          "name": "from",
          "type": "address"
        },
        {
          "indexed": true,
          "internalType": "address",
          "name": "to",
          "type": "address"
        },
        {
          "indexed": false,
          "internalType": "uint256",
          "name": "id",
          "type": "uint256"
        },
        {
          "indexed": false,
          "internalType": "uint256",
          "name": "value",
          "type": "uint256"
        }
      ],
      "name": "TransferSingle",
      "type": "event"
    },
    {
      "anonymous": false,
      "inputs": [
        {
          "indexed": false,
          "internalType": "string",
          "name": "value",
          "type": "string"
        },
        {
          "indexed": true,
          "internalType": "uint256",
          "name": "id",
          "type": "uint256"
        }
      ],
      "name": "URI",
      "type": "event"
    },
    {
      "anonymous": false,
      "inputs": [
        {
          "indexed": false,
          "internalType": "address",
          "name": "account",
          "type": "address"
        }
      ],
      "name": "Unpaused",
      "type": "event"
    },
    {
      "inputs": [],
      "name": "CERTIFICATE_OPERATOR_ROLE",
      "outputs": [
        {
          "internalType": "bytes32",
          "name": "",
          "type": "bytes32"
        }
      ],
      "stateMutability": "view",
      "type": "function"
    },
    {
      "inputs": [],
      "name": "DEFAULT_ADMIN_ROLE",
      "outputs": [
        {
          "internalType": "bytes32",
          "name": "",
          "type": "bytes32"
        }
      ],
      "stateMutability": "view",
      "type": "function"
    },
    {
      "inputs": [],
      "name": "MINTER_ROLE",
      "outputs": [
        {
          "internalType": "bytes32",
          "name": "",
          "type": "bytes32"
        }
      ],
      "stateMutability": "view",
      "type": "function"
    },
    {
      "inputs": [],
      "name": "PAUSER_ROLE",
      "outputs": [
        {
          "internalType": "bytes32",
          "name": "",
          "type": "bytes32"
        }
      ],
      "stateMutability": "view",
      "type": "function"
    },
    {
      "inputs": [
        {
          "internalType": "address",
          "name": "operator",
          "type": "address"
        }
      ],
      "name": "addCertificateOperator",
      "outputs": [],
      "stateMutability": "nonpayable",
      "type": "function"
    },
    {
      "inputs": [
        {
          "internalType": "address",
          "name": "minter",
          "type": "address"
        }
      ],
      "name": "addMinter",
      "outputs": [],
      "stateMutability": "nonpayable",
      "type": "function"
    },
    {
      "inputs": [
        {
          "internalType": "address",
          "name": "account",
          "type": "address"
        },
        {
          "internalType": "uint256",
          "name": "id",
          "type": "uint256"
        }
      ],
      "name": "balanceOf",
      "outputs": [
        {
          "internalType": "uint256",
          "name": "",
          "type": "uint256"
        }
      ],
      "stateMutability": "view",
      "type": "function"
    },
    {
      "inputs": [
        {
          "internalType": "address[]",
          "name": "accounts",
          "type": "address[]"
        },
        {
          "internalType": "uint256[]",
          "name": "ids",
          "type": "uint256[]"
        }
      ],
      "name": "balanceOfBatch",
      "outputs": [
        {
          "internalType": "uint256[]",
          "name": "",
          "type": "uint256[]"
        }
      ],
      "stateMutability": "view",
      "type": "function"
    },
    {
      "inputs": [
        {
          "internalType": "address",
          "name": "account",
          "type": "address"
        },
        {
          "internalType": "uint256",
          "name": "id",
          "type": "uint256"
        },
        {
          "internalType": "uint256",
          "name": "value",
          "type": "uint256"
        }
      ],
      "name": "burn",
      "outputs": [],
      "stateMutability": "nonpayable",
      "type": "function"
    },
    {
      "inputs": [
        {
          "internalType": "address",
          "name": "account",
          "type": "address"
        },
        {
          "internalType": "uint256[]",
          "name": "ids",
          "type": "uint256[]"
        },
        {
          "internalType": "uint256[]",
          "name": "values",
          "type": "uint256[]"
        }
      ],
      "name": "burnBatch",
      "outputs": [],
      "stateMutability": "nonpayable",
      "type": "function"
    },
    {
      "inputs": [
        {
          "internalType": "uint256",
          "name": "id",
          "type": "uint256"
        }
      ],
      "name": "exists",
      "outputs": [
        {
          "internalType": "bool",
          "name": "",
          "type": "bool"
        }
      ],
      "stateMutability": "view",
      "type": "function"
    },
    {
      "inputs": [
        {
          "internalType": "bytes32",
          "name": "role",
          "type": "bytes32"
        }
      ],
      "name": "getRoleAdmin",
      "outputs": [
        {
          "internalType": "bytes32",
          "name": "",
          "type": "bytes32"
        }
      ],
      "stateMutability": "view",
      "type": "function"
    },
    {
      "inputs": [
        {
          "internalType": "bytes32",
          "name": "role",
          "type": "bytes32"
        },
        {
          "internalType": "uint256",
          "name": "index",
          "type": "uint256"
        }
      ],
      "name": "getRoleMember",
      "outputs": [
        {
          "internalType": "address",
          "name": "",
          "type": "address"
        }
      ],
      "stateMutability": "view",
      "type": "function"
    },
    {
      "inputs": [
        {
          "internalType": "bytes32",
          "name": "role",
          "type": "bytes32"
        }
      ],
      "name": "getRoleMemberCount",
      "outputs": [
        {
          "internalType": "uint256",
          "name": "",
          "type": "uint256"
        }
      ],
      "stateMutability": "view",
      "type": "function"
    },
    {
      "inputs": [
        {
          "internalType": "bytes32",
          "name": "role",
          "type": "bytes32"
        },
        {
          "internalType": "address",
          "name": "account",
          "type": "address"
        }
      ],
      "name": "grantRole",
      "outputs": [],
      "stateMutability": "nonpayable",
      "type": "function"
    },
    {
      "inputs": [
        {
          "internalType": "bytes32",
          "name": "role",
          "type": "bytes32"
        },
        {
          "internalType": "address",
          "name": "account",
          "type": "address"
        }
      ],
      "name": "hasRole",
      "outputs": [
        {
          "internalType": "bool",
          "name": "",
          "type": "bool"
        }
      ],
      "stateMutability": "view",
      "type": "function"
    },
    {
      "inputs": [],
      "name": "initialize",
      "outputs": [],
      "stateMutability": "nonpayable",
      "type": "function"
    },
    {
      "inputs": [
        {
          "internalType": "string",
          "name": "uri",
          "type": "string"
        }
      ],
      "name": "initialize",
      "outputs": [],
      "stateMutability": "nonpayable",
      "type": "function"
    },
    {
      "inputs": [
        {
          "internalType": "address",
          "name": "account",
          "type": "address"
        },
        {
          "internalType": "address",
          "name": "operator",
          "type": "address"
        }
      ],
      "name": "isApprovedForAll",
      "outputs": [
        {
          "internalType": "bool",
          "name": "",
          "type": "bool"
        }
      ],
      "stateMutability": "view",
      "type": "function"
    },
    {
      "inputs": [
        {
          "internalType": "address",
          "name": "",
          "type": "address"
        },
        {
          "internalType": "uint256",
          "name": "",
          "type": "uint256"
        },
        {
          "internalType": "uint256",
          "name": "",
          "type": "uint256"
        },
        {
          "internalType": "bytes",
          "name": "",
          "type": "bytes"
        }
      ],
      "name": "mint",
      "outputs": [],
      "stateMutability": "pure",
      "type": "function"
    },
    {
      "inputs": [
        {
          "internalType": "address",
          "name": "to",
          "type": "address"
        },
        {
          "internalType": "uint256[]",
          "name": "removalIds",
          "type": "uint256[]"
        },
        {
          "internalType": "uint256[]",
          "name": "removalAmounts",
          "type": "uint256[]"
        },
        {
          "internalType": "bytes",
          "name": "data",
          "type": "bytes"
        }
      ],
      "name": "mintBatch",
      "outputs": [],
      "stateMutability": "nonpayable",
      "type": "function"
    },
    {
      "inputs": [],
      "name": "pause",
      "outputs": [],
      "stateMutability": "nonpayable",
      "type": "function"
    },
    {
      "inputs": [],
      "name": "paused",
      "outputs": [
        {
          "internalType": "bool",
          "name": "",
          "type": "bool"
        }
      ],
      "stateMutability": "view",
      "type": "function"
    },
    {
      "inputs": [
        {
          "internalType": "bytes32",
          "name": "role",
          "type": "bytes32"
        },
        {
          "internalType": "address",
          "name": "account",
          "type": "address"
        }
      ],
      "name": "renounceRole",
      "outputs": [],
      "stateMutability": "nonpayable",
      "type": "function"
    },
    {
      "inputs": [
        {
          "internalType": "bytes32",
          "name": "role",
          "type": "bytes32"
        },
        {
          "internalType": "address",
          "name": "account",
          "type": "address"
        }
      ],
      "name": "revokeRole",
      "outputs": [],
      "stateMutability": "nonpayable",
      "type": "function"
    },
    {
      "inputs": [
        {
          "internalType": "address",
          "name": "from",
          "type": "address"
        },
        {
          "internalType": "address",
          "name": "to",
          "type": "address"
        },
        {
          "internalType": "uint256[]",
          "name": "ids",
          "type": "uint256[]"
        },
        {
          "internalType": "uint256[]",
          "name": "amounts",
          "type": "uint256[]"
        },
        {
          "internalType": "bytes",
          "name": "data",
          "type": "bytes"
        }
      ],
      "name": "safeBatchTransferFrom",
      "outputs": [],
      "stateMutability": "nonpayable",
      "type": "function"
    },
    {
      "inputs": [
        {
          "internalType": "address",
          "name": "from",
          "type": "address"
        },
        {
          "internalType": "address",
          "name": "to",
          "type": "address"
        },
        {
          "internalType": "uint256",
          "name": "id",
          "type": "uint256"
        },
        {
          "internalType": "uint256",
          "name": "amount",
          "type": "uint256"
        },
        {
          "internalType": "bytes",
          "name": "data",
          "type": "bytes"
        }
      ],
      "name": "safeTransferFrom",
      "outputs": [],
      "stateMutability": "nonpayable",
      "type": "function"
    },
    {
      "inputs": [
        {
          "internalType": "address",
          "name": "operator",
          "type": "address"
        },
        {
          "internalType": "bool",
          "name": "approved",
          "type": "bool"
        }
      ],
      "name": "setApprovalForAll",
      "outputs": [],
      "stateMutability": "nonpayable",
      "type": "function"
    },
    {
      "inputs": [
        {
          "internalType": "uint256",
          "name": "certificateId",
          "type": "uint256"
        }
      ],
      "name": "sources",
      "outputs": [
        {
          "components": [
            {
              "internalType": "uint256",
              "name": "removalId",
              "type": "uint256"
            },
            {
              "internalType": "uint256",
              "name": "amount",
              "type": "uint256"
            }
          ],
          "internalType": "struct Certificate.Source[]",
          "name": "",
          "type": "tuple[]"
        }
      ],
      "stateMutability": "view",
      "type": "function"
    },
    {
      "inputs": [
        {
          "internalType": "bytes4",
          "name": "interfaceId",
          "type": "bytes4"
        }
      ],
      "name": "supportsInterface",
      "outputs": [
        {
          "internalType": "bool",
          "name": "",
          "type": "bool"
        }
      ],
      "stateMutability": "view",
      "type": "function"
    },
    {
      "inputs": [
        {
          "internalType": "uint256",
          "name": "id",
          "type": "uint256"
        }
      ],
      "name": "totalSupply",
      "outputs": [
        {
          "internalType": "uint256",
          "name": "",
          "type": "uint256"
        }
      ],
      "stateMutability": "view",
      "type": "function"
    },
    {
      "inputs": [],
      "name": "unpause",
      "outputs": [],
      "stateMutability": "nonpayable",
      "type": "function"
    },
    {
      "inputs": [
        {
          "internalType": "uint256",
          "name": "",
          "type": "uint256"
        }
      ],
      "name": "uri",
      "outputs": [
        {
          "internalType": "string",
          "name": "",
          "type": "string"
        }
      ],
      "stateMutability": "view",
      "type": "function"
    }
  ],
  "bytecode": "0x608060405234801561001057600080fd5b506131b2806100206000396000f3fe608060405234801561001057600080fd5b50600436106101fa5760003560e01c80638456cb591161011a578063bd85b039116100ad578063e63ab1e91161007c578063e63ab1e914610488578063e985e9c51461049d578063f242432a146104d9578063f5298aca146104ec578063f62d1888146104ff57600080fd5b8063bd85b0391461042c578063ca15c8731461044d578063d539139314610460578063d547741f1461047557600080fd5b80639aab24b6116100e95780639aab24b6146103de578063a217fddf146103f1578063a22cb465146103f9578063a3663d371461040c57600080fd5b80638456cb59146103855780639010d07c1461038d57806391d14854146103b8578063983b2d56146103cb57600080fd5b806336568abe116101925780635c975abb116101615780635c975abb1461034b5780636b20c45414610357578063731133e91461036a5780638129fc1c1461037d57600080fd5b806336568abe146102ed5780633f4ba83a146103005780634e1273f4146103085780634f558e791461032857600080fd5b8063248a9ca3116101ce578063248a9ca31461027d57806326c6da4f146102a05780632eb2c2d6146102c75780632f2ff15d146102da57600080fd5b8062fdd58e146101ff57806301ffc9a7146102255780630e89341c146102485780631f7fdffa14610268575b600080fd5b61021261020d366004612416565b610512565b6040519081526020015b60405180910390f35b610238610233366004612456565b6105ae565b604051901515815260200161021c565b61025b610256366004612473565b6105b9565b60405161021c91906124e4565b61027b61027636600461264a565b61064d565b005b61021261028b366004612473565b60009081526065602052604090206001015490565b6102127fb6eeb50d1ea0d876d560efb18b8017323347ce323ef4b05d5a0322c9c7869f8f81565b61027b6102d53660046126e2565b6107ed565b61027b6102e836600461278b565b610884565b61027b6102fb36600461278b565b6108af565b61027b61092d565b61031b6103163660046127b7565b6109c1565b60405161021c91906128bc565b610238610336366004612473565b60009081526101c36020526040902054151590565b61012d5460ff16610238565b61027b6103653660046128cf565b610aea565b61027b610378366004612942565b610b2d565b61027b610b46565b61027b610be7565b6103a061039b366004612996565b610c79565b6040516001600160a01b03909116815260200161021c565b6102386103c636600461278b565b610c98565b61027b6103d93660046129b8565b610cc3565b61027b6103ec3660046129b8565b610cdb565b610212600081565b61027b6104073660046129d3565b610d05565b61041f61041a366004612473565b610d10565b60405161021c9190612a0f565b61021261043a366004612473565b60009081526101c3602052604090205490565b61021261045b366004612473565b610d97565b61021260008051602061315d83398151915281565b61027b61048336600461278b565b610dae565b61021260008051602061313d83398151915281565b6102386104ab366004612a5e565b6001600160a01b03918216600090815260ca6020908152604080832093909416825291909152205460ff1690565b61027b6104e7366004612a88565b610dd4565b61027b6104fa366004612aec565b610e19565b61027b61050d366004612b1f565b610e5c565b60006001600160a01b0383166105835760405162461bcd60e51b815260206004820152602b60248201527f455243313135353a2062616c616e636520717565727920666f7220746865207a60448201526a65726f206164647265737360a81b60648201526084015b60405180910390fd5b50600081815260c9602090815260408083206001600160a01b03861684529091529020545b92915050565b60006105a882610ed7565b606060cb80546105c890612b6f565b80601f01602080910402602001604051908101604052809291908181526020018280546105f490612b6f565b80156106415780601f1061061657610100808354040283529160200191610641565b820191906000526020600020905b81548152906001019060200180831161062457829003601f168201915b50505050509050919050565b6000818060200190518101906106639190612ba9565b905060005b84518110156107715783818151811061068357610683612bc2565b60200260200101516000036106da5760405162461bcd60e51b815260206004820152601d60248201527f43657274696669636174653a2052656d6f76616c20616d6f756e742030000000604482015260640161057a565b6101f560006101f6548152602001908152602001600020604051806040016040528087848151811061070e5761070e612bc2565b6020026020010151815260200186848151811061072d5761072d612bc2565b60209081029190910181015190915282546001818101855560009485529382902083516002909202019081559101519101558061076981612bee565b915050610668565b50610781856101f6548385610ee2565b6101f654856001600160a01b03167fb1b9468300ca5a516913a0f871fd85fbf8a14af751437fd41a807ba45e75d7c986866040516107c0929190612c07565b60405180910390a360016101f660008282546107dc9190612c35565b91829055506101f655505050505050565b6001600160a01b038516331480610809575061080985336104ab565b6108705760405162461bcd60e51b815260206004820152603260248201527f455243313135353a207472616e736665722063616c6c6572206973206e6f74206044820152711bdddb995c881b9bdc88185c1c1c9bdd995960721b606482015260840161057a565b61087d8585858585610f7e565b5050505050565b6000828152606560205260409020600101546108a0813361112b565b6108aa838361118f565b505050565b6001600160a01b038116331461091f5760405162461bcd60e51b815260206004820152602f60248201527f416363657373436f6e74726f6c3a2063616e206f6e6c792072656e6f756e636560448201526e103937b632b9903337b91039b2b63360891b606482015260840161057a565b61092982826111b1565b5050565b61094560008051602061313d83398151915233610c98565b6109b75760405162461bcd60e51b815260206004820152603b60248201527f455243313135355072657365744d696e7465725061757365723a206d7573742060448201527f686176652070617573657220726f6c6520746f20756e70617573650000000000606482015260840161057a565b6109bf6111d3565b565b60608151835114610a265760405162461bcd60e51b815260206004820152602960248201527f455243313135353a206163636f756e747320616e6420696473206c656e677468604482015268040dad2e6dac2e8c6d60bb1b606482015260840161057a565b600083516001600160401b03811115610a4157610a416124f7565b604051908082528060200260200182016040528015610a6a578160200160208202803683370190505b50905060005b8451811015610ae257610ab5858281518110610a8e57610a8e612bc2565b6020026020010151858381518110610aa857610aa8612bc2565b6020026020010151610512565b828281518110610ac757610ac7612bc2565b6020908102919091010152610adb81612bee565b9050610a70565b509392505050565b6001600160a01b038316331480610b065750610b0683336104ab565b610b225760405162461bcd60e51b815260040161057a90612c4d565b6108aa838383611268565b604051630583896960e51b815260040160405180910390fd5b600054610100900460ff16610b615760005460ff1615610b65565b303b155b610b815760405162461bcd60e51b815260040161057a90612c96565b600054610100900460ff16158015610ba3576000805461ffff19166101011790555b610bc46040518060600160405280602a8152602001613113602a9139610e5c565b610bcc6113f9565b60006101f6558015610be4576000805461ff00191690555b50565b610bff60008051602061313d83398151915233610c98565b610c715760405162461bcd60e51b815260206004820152603960248201527f455243313135355072657365744d696e7465725061757365723a206d7573742060448201527f686176652070617573657220726f6c6520746f20706175736500000000000000606482015260840161057a565b6109bf611420565b6000828152609760205260408120610c91908361149d565b9392505050565b60009182526065602090815260408084206001600160a01b0393909316845291905290205460ff1690565b610be460008051602061315d833981519152826114a9565b610be47fb6eeb50d1ea0d876d560efb18b8017323347ce323ef4b05d5a0322c9c7869f8f826114a9565b6109293383836114b3565b60606101f56000838152602001908152602001600020805480602002602001604051908101604052809291908181526020016000905b82821015610d8c57838290600052602060002090600202016040518060400160405290816000820154815260200160018201548152505081526020019060010190610d46565b505050509050919050565b60008181526097602052604081206105a890611593565b600082815260656020526040902060010154610dca813361112b565b6108aa83836111b1565b6001600160a01b038516331480610df05750610df085336104ab565b610e0c5760405162461bcd60e51b815260040161057a90612c4d565b61087d858585858561159d565b6001600160a01b038316331480610e355750610e3583336104ab565b610e515760405162461bcd60e51b815260040161057a90612c4d565b6108aa8383836116cd565b600054610100900460ff16610e775760005460ff1615610e7b565b303b155b610e975760405162461bcd60e51b815260040161057a90612c96565b600054610100900460ff16158015610eb9576000805461ffff19166101011790555b610ec2826117d2565b8015610929576000805461ff00191690555050565b60006105a882611813565b610efa60008051602061315d83398151915233610c98565b610f6c5760405162461bcd60e51b815260206004820152603860248201527f455243313135355072657365744d696e7465725061757365723a206d7573742060448201527f68617665206d696e74657220726f6c6520746f206d696e740000000000000000606482015260840161057a565b610f7884848484611853565b50505050565b8151835114610f9f5760405162461bcd60e51b815260040161057a90612ce4565b6001600160a01b038416610fc55760405162461bcd60e51b815260040161057a90612d2c565b33610fd4818787878787611956565b60005b84518110156110bd576000858281518110610ff457610ff4612bc2565b60200260200101519050600085838151811061101257611012612bc2565b602090810291909101810151600084815260c9835260408082206001600160a01b038e1683529093529190912054909150818110156110635760405162461bcd60e51b815260040161057a90612d71565b600083815260c9602090815260408083206001600160a01b038e8116855292528083208585039055908b168252812080548492906110a2908490612c35565b92505081905550505050806110b690612bee565b9050610fd7565b50846001600160a01b0316866001600160a01b0316826001600160a01b03167f4a39dc06d4c0dbc64b70af90fd698a233a518aa5d07e595d983b8c0526c8f7fb878760405161110d929190612c07565b60405180910390a4611123818787878787611a21565b505050505050565b6111358282610c98565b6109295761114d816001600160a01b03166014611b7c565b611158836020611b7c565b604051602001611169929190612dbb565b60408051601f198184030181529082905262461bcd60e51b825261057a916004016124e4565b6111998282611d17565b60008281526097602052604090206108aa9082611d9d565b6111bb8282611db2565b60008281526097602052604090206108aa9082611e19565b61012d5460ff1661121d5760405162461bcd60e51b815260206004820152601460248201527314185d5cd8589b194e881b9bdd081c185d5cd95960621b604482015260640161057a565b61012d805460ff191690557f5db9ee0a495bf2e6ff9c91a7834c1ba4fdd244a5e8aa4e537bd38aeae4b073aa335b6040516001600160a01b03909116815260200160405180910390a1565b6001600160a01b03831661128e5760405162461bcd60e51b815260040161057a90612e30565b80518251146112af5760405162461bcd60e51b815260040161057a90612ce4565b60003390506112d281856000868660405180602001604052806000815250611956565b60005b835181101561139a5760008482815181106112f2576112f2612bc2565b60200260200101519050600084838151811061131057611310612bc2565b602090810291909101810151600084815260c9835260408082206001600160a01b038c1683529093529190912054909150818110156113615760405162461bcd60e51b815260040161057a90612e73565b600092835260c9602090815260408085206001600160a01b038b168652909152909220910390558061139281612bee565b9150506112d5565b5060006001600160a01b0316846001600160a01b0316826001600160a01b03167f4a39dc06d4c0dbc64b70af90fd698a233a518aa5d07e595d983b8c0526c8f7fb86866040516113eb929190612c07565b60405180910390a450505050565b600054610100900460ff166109bf5760405162461bcd60e51b815260040161057a90612eb7565b61012d5460ff16156114675760405162461bcd60e51b815260206004820152601060248201526f14185d5cd8589b194e881c185d5cd95960821b604482015260640161057a565b61012d805460ff191660011790557f62e78cea01bee320cd4e420270b5ea74000d11b0c9f74754ebdbfc544b05a25861124b3390565b6000610c918383611e2e565b610929828261118f565b816001600160a01b0316836001600160a01b0316036115265760405162461bcd60e51b815260206004820152602960248201527f455243313135353a2073657474696e6720617070726f76616c20737461747573604482015268103337b91039b2b63360b91b606482015260840161057a565b6001600160a01b03838116600081815260ca6020908152604080832094871680845294825291829020805460ff191686151590811790915591519182527f17307eab39ab6107e8899845ad3d59bd9653f200f220920489ca2b5937696c31910160405180910390a3505050565b60006105a8825490565b6001600160a01b0384166115c35760405162461bcd60e51b815260040161057a90612d2c565b336115e28187876115d388611e58565b6115dc88611e58565b87611956565b600084815260c9602090815260408083206001600160a01b038a168452909152902054838110156116255760405162461bcd60e51b815260040161057a90612d71565b600085815260c9602090815260408083206001600160a01b038b8116855292528083208785039055908816825281208054869290611664908490612c35565b909155505060408051868152602081018690526001600160a01b03808916928a821692918616917fc3d58168c5ae7397731d063d5bbf3d657854427343f4c083240f7aacaa2d0f62910160405180910390a46116c4828888888888611ea3565b50505050505050565b6001600160a01b0383166116f35760405162461bcd60e51b815260040161057a90612e30565b336117228185600061170487611e58565b61170d87611e58565b60405180602001604052806000815250611956565b600083815260c9602090815260408083206001600160a01b0388168452909152902054828110156117655760405162461bcd60e51b815260040161057a90612e73565b600084815260c9602090815260408083206001600160a01b03898116808652918452828520888703905582518981529384018890529092908616917fc3d58168c5ae7397731d063d5bbf3d657854427343f4c083240f7aacaa2d0f62910160405180910390a45050505050565b600054610100900460ff166117f95760405162461bcd60e51b815260040161057a90612eb7565b61180281611f5e565b61180a611f8e565b610be481611fc2565b60006001600160e01b03198216636cdb3d1360e11b148061184457506001600160e01b031982166303a24d0760e21b145b806105a857506105a882612024565b6001600160a01b0384166118b35760405162461bcd60e51b815260206004820152602160248201527f455243313135353a206d696e7420746f20746865207a65726f206164647265736044820152607360f81b606482015260840161057a565b336118c4816000876115d388611e58565b600084815260c9602090815260408083206001600160a01b0389168452909152812080548592906118f6908490612c35565b909155505060408051858152602081018590526001600160a01b0380881692600092918516917fc3d58168c5ae7397731d063d5bbf3d657854427343f4c083240f7aacaa2d0f62910160405180910390a461087d81600087878787611ea3565b61012d5460ff161561199d5760405162461bcd60e51b815260206004820152601060248201526f14185d5cd8589b194e881c185d5cd95960821b604482015260640161057a565b6001600160a01b0385811615908516158115826119b8575080155b80156119eb57506119e97fb6eeb50d1ea0d876d560efb18b8017323347ce323ef4b05d5a0322c9c7869f8f89610c98565b155b15611a0957604051630175e5a960e41b815260040160405180910390fd5b611a17888888888888612049565b5050505050505050565b6001600160a01b0384163b156111235760405163bc197c8160e01b81526001600160a01b0385169063bc197c8190611a659089908990889088908890600401612f02565b6020604051808303816000875af1925050508015611aa0575060408051601f3d908101601f19168201909252611a9d91810190612f60565b60015b611b4c57611aac612f7d565b806308c379a003611ae55750611ac0612f99565b80611acb5750611ae7565b8060405162461bcd60e51b815260040161057a91906124e4565b505b60405162461bcd60e51b815260206004820152603460248201527f455243313135353a207472616e7366657220746f206e6f6e20455243313135356044820152732932b1b2b4bb32b91034b6b83632b6b2b73a32b960611b606482015260840161057a565b6001600160e01b0319811663bc197c8160e01b146116c45760405162461bcd60e51b815260040161057a90613022565b60606000611b8b83600261306a565b611b96906002612c35565b6001600160401b03811115611bad57611bad6124f7565b6040519080825280601f01601f191660200182016040528015611bd7576020820181803683370190505b509050600360fc1b81600081518110611bf257611bf2612bc2565b60200101906001600160f81b031916908160001a905350600f60fb1b81600181518110611c2157611c21612bc2565b60200101906001600160f81b031916908160001a9053506000611c4584600261306a565b611c50906001612c35565b90505b6001811115611cc8576f181899199a1a9b1b9c1cb0b131b232b360811b85600f1660108110611c8457611c84612bc2565b1a60f81b828281518110611c9a57611c9a612bc2565b60200101906001600160f81b031916908160001a90535060049490941c93611cc181613089565b9050611c53565b508315610c915760405162461bcd60e51b815260206004820181905260248201527f537472696e67733a20686578206c656e67746820696e73756666696369656e74604482015260640161057a565b611d218282610c98565b6109295760008281526065602090815260408083206001600160a01b03851684529091529020805460ff19166001179055611d593390565b6001600160a01b0316816001600160a01b0316837f2f8788117e7eff1d82e926ec794901d17c78024a50270940304540a733656f0d60405160405180910390a45050565b6000610c91836001600160a01b038416612165565b611dbc8282610c98565b156109295760008281526065602090815260408083206001600160a01b0385168085529252808320805460ff1916905551339285917ff6391f5c32d9c69d2a47ea670b442974b53935d1edc7fd64eb21e047a839171b9190a45050565b6000610c91836001600160a01b0384166121b4565b6000826000018281548110611e4557611e45612bc2565b9060005260206000200154905092915050565b60408051600180825281830190925260609160009190602080830190803683370190505090508281600081518110611e9257611e92612bc2565b602090810291909101015292915050565b6001600160a01b0384163b156111235760405163f23a6e6160e01b81526001600160a01b0385169063f23a6e6190611ee790899089908890889088906004016130a0565b6020604051808303816000875af1925050508015611f22575060408051601f3d908101601f19168201909252611f1f91810190612f60565b60015b611f2e57611aac612f7d565b6001600160e01b0319811663f23a6e6160e01b146116c45760405162461bcd60e51b815260040161057a90613022565b600054610100900460ff16611f855760405162461bcd60e51b815260040161057a90612eb7565b610be4816122a7565b600054610100900460ff16611fb55760405162461bcd60e51b815260040161057a90612eb7565b61012d805460ff19169055565b600054610100900460ff16611fe95760405162461bcd60e51b815260040161057a90612eb7565b611ff46000336114a9565b61200c60008051602061315d833981519152336114a9565b610be460008051602061313d833981519152336114a9565b60006001600160e01b03198216635a05180f60e01b14806105a857506105a8826122ba565b6120578686868686866122ef565b6001600160a01b0385166120df5760005b83518110156120dd5782818151811061208357612083612bc2565b60200260200101516101c360008684815181106120a2576120a2612bc2565b6020026020010151815260200190815260200160002060008282546120c79190612c35565b909155506120d6905081612bee565b9050612068565b505b6001600160a01b0384166111235760005b83518110156116c45782818151811061210b5761210b612bc2565b60200260200101516101c3600086848151811061212a5761212a612bc2565b60200260200101518152602001908152602001600020600082825461214f91906130e5565b9091555061215e905081612bee565b90506120f0565b60008181526001830160205260408120546121ac575081546001818101845560008481526020808220909301849055845484825282860190935260409020919091556105a8565b5060006105a8565b6000818152600183016020526040812054801561229d5760006121d86001836130e5565b85549091506000906121ec906001906130e5565b905081811461225157600086600001828154811061220c5761220c612bc2565b906000526020600020015490508087600001848154811061222f5761222f612bc2565b6000918252602080832090910192909255918252600188019052604090208390555b8554869080612262576122626130fc565b6001900381819060005260206000200160009055905585600101600086815260200190815260200160002060009055600193505050506105a8565b60009150506105a8565b80516109299060cb906020840190612361565b60006001600160e01b03198216637965db0b60e01b14806105a857506301ffc9a760e01b6001600160e01b03198316146105a8565b61112386868686868661012d5460ff16156111235760405162461bcd60e51b815260206004820152602c60248201527f455243313135355061757361626c653a20746f6b656e207472616e736665722060448201526b1dda1a5b19481c185d5cd95960a21b606482015260840161057a565b82805461236d90612b6f565b90600052602060002090601f01602090048101928261238f57600085556123d5565b82601f106123a857805160ff19168380011785556123d5565b828001600101855582156123d5579182015b828111156123d55782518255916020019190600101906123ba565b506123e19291506123e5565b5090565b5b808211156123e157600081556001016123e6565b80356001600160a01b038116811461241157600080fd5b919050565b6000806040838503121561242957600080fd5b612432836123fa565b946020939093013593505050565b6001600160e01b031981168114610be457600080fd5b60006020828403121561246857600080fd5b8135610c9181612440565b60006020828403121561248557600080fd5b5035919050565b60005b838110156124a757818101518382015260200161248f565b83811115610f785750506000910152565b600081518084526124d081602086016020860161248c565b601f01601f19169290920160200192915050565b602081526000610c9160208301846124b8565b634e487b7160e01b600052604160045260246000fd5b601f8201601f191681016001600160401b0381118282101715612532576125326124f7565b6040525050565b60006001600160401b03821115612552576125526124f7565b5060051b60200190565b600082601f83011261256d57600080fd5b8135602061257a82612539565b604051612587828261250d565b83815260059390931b85018201928281019150868411156125a757600080fd5b8286015b848110156125c257803583529183019183016125ab565b509695505050505050565b60006001600160401b038311156125e6576125e66124f7565b6040516125fd601f8501601f19166020018261250d565b80915083815284848401111561261257600080fd5b83836020830137600060208583010152509392505050565b600082601f83011261263b57600080fd5b610c91838335602085016125cd565b6000806000806080858703121561266057600080fd5b612669856123fa565b935060208501356001600160401b038082111561268557600080fd5b6126918883890161255c565b945060408701359150808211156126a757600080fd5b6126b38883890161255c565b935060608701359150808211156126c957600080fd5b506126d68782880161262a565b91505092959194509250565b600080600080600060a086880312156126fa57600080fd5b612703866123fa565b9450612711602087016123fa565b935060408601356001600160401b038082111561272d57600080fd5b61273989838a0161255c565b9450606088013591508082111561274f57600080fd5b61275b89838a0161255c565b9350608088013591508082111561277157600080fd5b5061277e8882890161262a565b9150509295509295909350565b6000806040838503121561279e57600080fd5b823591506127ae602084016123fa565b90509250929050565b600080604083850312156127ca57600080fd5b82356001600160401b03808211156127e157600080fd5b818501915085601f8301126127f557600080fd5b8135602061280282612539565b60405161280f828261250d565b83815260059390931b850182019282810191508984111561282f57600080fd5b948201945b8386101561285457612845866123fa565b82529482019490820190612834565b9650508601359250508082111561286a57600080fd5b506128778582860161255c565b9150509250929050565b600081518084526020808501945080840160005b838110156128b157815187529582019590820190600101612895565b509495945050505050565b602081526000610c916020830184612881565b6000806000606084860312156128e457600080fd5b6128ed846123fa565b925060208401356001600160401b038082111561290957600080fd5b6129158783880161255c565b9350604086013591508082111561292b57600080fd5b506129388682870161255c565b9150509250925092565b6000806000806080858703121561295857600080fd5b612961856123fa565b9350602085013592506040850135915060608501356001600160401b0381111561298a57600080fd5b6126d68782880161262a565b600080604083850312156129a957600080fd5b50508035926020909101359150565b6000602082840312156129ca57600080fd5b610c91826123fa565b600080604083850312156129e657600080fd5b6129ef836123fa565b915060208301358015158114612a0457600080fd5b809150509250929050565b602080825282518282018190526000919060409081850190868401855b82811015612a5157815180518552860151868501529284019290850190600101612a2c565b5091979650505050505050565b60008060408385031215612a7157600080fd5b612a7a836123fa565b91506127ae602084016123fa565b600080600080600060a08688031215612aa057600080fd5b612aa9866123fa565b9450612ab7602087016123fa565b9350604086013592506060860135915060808601356001600160401b03811115612ae057600080fd5b61277e8882890161262a565b600080600060608486031215612b0157600080fd5b612b0a846123fa565b95602085013595506040909401359392505050565b600060208284031215612b3157600080fd5b81356001600160401b03811115612b4757600080fd5b8201601f81018413612b5857600080fd5b612b67848235602084016125cd565b949350505050565b600181811c90821680612b8357607f821691505b602082108103612ba357634e487b7160e01b600052602260045260246000fd5b50919050565b600060208284031215612bbb57600080fd5b5051919050565b634e487b7160e01b600052603260045260246000fd5b634e487b7160e01b600052601160045260246000fd5b600060018201612c0057612c00612bd8565b5060010190565b604081526000612c1a6040830185612881565b8281036020840152612c2c8185612881565b95945050505050565b60008219821115612c4857612c48612bd8565b500190565b60208082526029908201527f455243313135353a2063616c6c6572206973206e6f74206f776e6572206e6f7260408201526808185c1c1c9bdd995960ba1b606082015260800190565b6020808252602e908201527f496e697469616c697a61626c653a20636f6e747261637420697320616c72656160408201526d191e481a5b9a5d1a585b1a5e995960921b606082015260800190565b60208082526028908201527f455243313135353a2069647320616e6420616d6f756e7473206c656e677468206040820152670dad2e6dac2e8c6d60c31b606082015260800190565b60208082526025908201527f455243313135353a207472616e7366657220746f20746865207a65726f206164604082015264647265737360d81b606082015260800190565b6020808252602a908201527f455243313135353a20696e73756666696369656e742062616c616e636520666f60408201526939103a3930b739b332b960b11b606082015260800190565b7f416363657373436f6e74726f6c3a206163636f756e7420000000000000000000815260008351612df381601785016020880161248c565b7001034b99036b4b9b9b4b733903937b6329607d1b6017918401918201528351612e2481602884016020880161248c565b01602801949350505050565b60208082526023908201527f455243313135353a206275726e2066726f6d20746865207a65726f206164647260408201526265737360e81b606082015260800190565b60208082526024908201527f455243313135353a206275726e20616d6f756e7420657863656564732062616c604082015263616e636560e01b606082015260800190565b6020808252602b908201527f496e697469616c697a61626c653a20636f6e7472616374206973206e6f74206960408201526a6e697469616c697a696e6760a81b606082015260800190565b6001600160a01b0386811682528516602082015260a060408201819052600090612f2e90830186612881565b8281036060840152612f408186612881565b90508281036080840152612f5481856124b8565b98975050505050505050565b600060208284031215612f7257600080fd5b8151610c9181612440565b600060033d1115612f965760046000803e5060005160e01c5b90565b600060443d1015612fa75790565b6040516003193d81016004833e81513d6001600160401b038160248401118184111715612fd657505050505090565b8285019150815181811115612fee5750505050505090565b843d87010160208285010111156130085750505050505090565b6130176020828601018761250d565b509095945050505050565b60208082526028908201527f455243313135353a204552433131353552656365697665722072656a656374656040820152676420746f6b656e7360c01b606082015260800190565b600081600019048311821515161561308457613084612bd8565b500290565b60008161309857613098612bd8565b506000190190565b6001600160a01b03868116825285166020820152604081018490526060810183905260a0608082018190526000906130da908301846124b8565b979650505050505050565b6000828210156130f7576130f7612bd8565b500390565b634e487b7160e01b600052603160045260246000fdfe68747470733a2f2f6e6f72692e636f6d2f6170692f63657274696669636174652f7b69647d2e6a736f6e65d7a28e3265b37a6474929f336521b332c1681b933f6cb9f3376673440d862a9f2df0fed2c77648de5860a4cc508cd0818c85b8b8a1ab4ceeef8d981c8956a6a26469706673582212201dd251198072372698e156e9a36f44efcfb5c1fedcd03ac66ec5c68239ac533c64736f6c634300080d0033",
  "linkReferences": {},
  "deployedLinkReferences": {}
}