{
  "_format": "hh-sol-artifact-1",
  "contractName": "Certificate",
  "sourceName": "contracts/Certificate.sol",
  "abi": [
    {
      "inputs": [],
      "stateMutability": "nonpayable",
      "type": "constructor"
    },
    {
      "inputs": [],
      "name": "ApprovalCallerNotOwnerNorApproved",
      "type": "error"
    },
    {
      "inputs": [],
      "name": "ApprovalQueryForNonexistentToken",
      "type": "error"
    },
    {
      "inputs": [],
      "name": "ApproveToCaller",
      "type": "error"
    },
    {
      "inputs": [
        {
          "internalType": "string",
          "name": "array1Name",
          "type": "string"
        },
        {
          "internalType": "string",
          "name": "array2Name",
          "type": "string"
        }
      ],
      "name": "ArrayLengthMismatch",
      "type": "error"
    },
    {
      "inputs": [],
      "name": "BalanceQueryForZeroAddress",
      "type": "error"
    },
    {
      "inputs": [],
      "name": "ForbiddenTransferAfterMinting",
      "type": "error"
    },
    {
      "inputs": [],
      "name": "FunctionDisabled",
      "type": "error"
    },
    {
      "inputs": [],
      "name": "InvalidQueryRange",
      "type": "error"
    },
    {
      "inputs": [],
      "name": "MintERC2309QuantityExceedsLimit",
      "type": "error"
    },
    {
      "inputs": [],
      "name": "MintToZeroAddress",
      "type": "error"
    },
    {
      "inputs": [],
      "name": "MintZeroQuantity",
      "type": "error"
    },
    {
      "inputs": [],
      "name": "OwnerQueryForNonexistentToken",
      "type": "error"
    },
    {
      "inputs": [],
      "name": "OwnershipNotInitializedForExtraData",
      "type": "error"
    },
    {
      "inputs": [],
      "name": "SenderNotRemovalContract",
      "type": "error"
    },
    {
      "inputs": [],
      "name": "TransferCallerNotOwnerNorApproved",
      "type": "error"
    },
    {
      "inputs": [],
      "name": "TransferFromIncorrectOwner",
      "type": "error"
    },
    {
      "inputs": [],
      "name": "TransferToNonERC721ReceiverImplementer",
      "type": "error"
    },
    {
      "inputs": [],
      "name": "TransferToZeroAddress",
      "type": "error"
    },
    {
      "inputs": [],
      "name": "URIQueryForNonexistentToken",
      "type": "error"
    },
    {
      "anonymous": false,
      "inputs": [
        {
          "indexed": true,
          "internalType": "address",
          "name": "owner",
          "type": "address"
        },
        {
          "indexed": true,
          "internalType": "address",
          "name": "approved",
          "type": "address"
        },
        {
          "indexed": true,
          "internalType": "uint256",
          "name": "tokenId",
          "type": "uint256"
        }
      ],
      "name": "Approval",
      "type": "event"
    },
    {
      "anonymous": false,
      "inputs": [
        {
          "indexed": true,
          "internalType": "address",
          "name": "owner",
          "type": "address"
        },
        {
          "indexed": true,
          "internalType": "address",
          "name": "operator",
          "type": "address"
        },
        {
          "indexed": false,
          "internalType": "bool",
          "name": "approved",
          "type": "bool"
        }
      ],
      "name": "ApprovalForAll",
      "type": "event"
    },
    {
      "anonymous": false,
      "inputs": [
        {
          "indexed": true,
          "internalType": "uint256",
          "name": "fromTokenId",
          "type": "uint256"
        },
        {
          "indexed": false,
          "internalType": "uint256",
          "name": "toTokenId",
          "type": "uint256"
        },
        {
          "indexed": true,
          "internalType": "address",
          "name": "from",
          "type": "address"
        },
        {
          "indexed": true,
          "internalType": "address",
          "name": "to",
          "type": "address"
        }
      ],
      "name": "ConsecutiveTransfer",
      "type": "event"
    },
    {
      "anonymous": false,
      "inputs": [
        {
          "indexed": false,
          "internalType": "uint8",
          "name": "version",
          "type": "uint8"
        }
      ],
      "name": "Initialized",
      "type": "event"
    },
    {
      "anonymous": false,
      "inputs": [
        {
          "indexed": false,
          "internalType": "address",
          "name": "account",
          "type": "address"
        }
      ],
      "name": "Paused",
      "type": "event"
    },
    {
      "anonymous": false,
      "inputs": [
        {
          "indexed": false,
          "internalType": "address",
          "name": "from",
          "type": "address"
        },
        {
          "indexed": true,
          "internalType": "address",
          "name": "recipient",
          "type": "address"
        },
        {
          "indexed": true,
          "internalType": "uint256",
          "name": "certificateId",
          "type": "uint256"
        },
        {
          "indexed": false,
          "internalType": "uint256[]",
          "name": "removalIds",
          "type": "uint256[]"
        },
        {
          "indexed": false,
          "internalType": "uint256[]",
          "name": "removalAmounts",
          "type": "uint256[]"
        }
      ],
      "name": "ReceiveRemovalBatch",
      "type": "event"
    },
    {
      "anonymous": false,
      "inputs": [
        {
          "indexed": true,
          "internalType": "bytes32",
          "name": "role",
          "type": "bytes32"
        },
        {
          "indexed": true,
          "internalType": "bytes32",
          "name": "previousAdminRole",
          "type": "bytes32"
        },
        {
          "indexed": true,
          "internalType": "bytes32",
          "name": "newAdminRole",
          "type": "bytes32"
        }
      ],
      "name": "RoleAdminChanged",
      "type": "event"
    },
    {
      "anonymous": false,
      "inputs": [
        {
          "indexed": true,
          "internalType": "bytes32",
          "name": "role",
          "type": "bytes32"
        },
        {
          "indexed": true,
          "internalType": "address",
          "name": "account",
          "type": "address"
        },
        {
          "indexed": true,
          "internalType": "address",
          "name": "sender",
          "type": "address"
        }
      ],
      "name": "RoleGranted",
      "type": "event"
    },
    {
      "anonymous": false,
      "inputs": [
        {
          "indexed": true,
          "internalType": "bytes32",
          "name": "role",
          "type": "bytes32"
        },
        {
          "indexed": true,
          "internalType": "address",
          "name": "account",
          "type": "address"
        },
        {
          "indexed": true,
          "internalType": "address",
          "name": "sender",
          "type": "address"
        }
      ],
      "name": "RoleRevoked",
      "type": "event"
    },
    {
      "anonymous": false,
      "inputs": [
        {
          "indexed": true,
          "internalType": "address",
          "name": "from",
          "type": "address"
        },
        {
          "indexed": true,
          "internalType": "address",
          "name": "to",
          "type": "address"
        },
        {
          "indexed": true,
          "internalType": "uint256",
          "name": "tokenId",
          "type": "uint256"
        }
      ],
      "name": "Transfer",
      "type": "event"
    },
    {
      "anonymous": false,
      "inputs": [
        {
          "indexed": false,
          "internalType": "address",
          "name": "account",
          "type": "address"
        }
      ],
      "name": "Unpaused",
      "type": "event"
    },
    {
      "inputs": [],
      "name": "CERTIFICATE_OPERATOR_ROLE",
      "outputs": [
        {
          "internalType": "bytes32",
          "name": "",
          "type": "bytes32"
        }
      ],
      "stateMutability": "view",
      "type": "function"
    },
    {
      "inputs": [],
      "name": "DEFAULT_ADMIN_ROLE",
      "outputs": [
        {
          "internalType": "bytes32",
          "name": "",
          "type": "bytes32"
        }
      ],
      "stateMutability": "view",
      "type": "function"
    },
    {
      "inputs": [],
      "name": "PAUSER_ROLE",
      "outputs": [
        {
          "internalType": "bytes32",
          "name": "",
          "type": "bytes32"
        }
      ],
      "stateMutability": "view",
      "type": "function"
    },
    {
      "inputs": [
        {
          "internalType": "address",
          "name": "",
          "type": "address"
        },
        {
          "internalType": "uint256",
          "name": "",
          "type": "uint256"
        }
      ],
      "name": "approve",
      "outputs": [],
      "stateMutability": "pure",
      "type": "function"
    },
    {
      "inputs": [
        {
          "internalType": "address",
          "name": "owner",
          "type": "address"
        }
      ],
      "name": "balanceOf",
      "outputs": [
        {
          "internalType": "uint256",
          "name": "",
          "type": "uint256"
        }
      ],
      "stateMutability": "view",
      "type": "function"
    },
    {
      "inputs": [
        {
          "internalType": "uint256",
          "name": "certificateTokenId",
          "type": "uint256"
        },
        {
          "internalType": "uint256",
          "name": "removalTokenId",
          "type": "uint256"
        }
      ],
      "name": "balanceOfRemoval",
      "outputs": [
        {
          "internalType": "uint256",
          "name": "",
          "type": "uint256"
        }
      ],
      "stateMutability": "view",
      "type": "function"
    },
    {
      "inputs": [
        {
          "internalType": "uint256",
          "name": "tokenId",
          "type": "uint256"
        }
      ],
      "name": "burn",
      "outputs": [],
      "stateMutability": "nonpayable",
      "type": "function"
    },
    {
      "inputs": [
        {
          "internalType": "uint256",
          "name": "removalId",
          "type": "uint256"
        }
      ],
      "name": "certificatesOfRemoval",
      "outputs": [
        {
          "components": [
            {
              "internalType": "uint256",
              "name": "id",
              "type": "uint256"
            },
            {
              "internalType": "uint256",
              "name": "amount",
              "type": "uint256"
            }
          ],
          "internalType": "struct Certificate.Balance[]",
          "name": "",
          "type": "tuple[]"
        }
      ],
      "stateMutability": "view",
      "type": "function"
    },
    {
      "inputs": [
        {
          "internalType": "uint256",
          "name": "tokenId",
          "type": "uint256"
        }
      ],
      "name": "explicitOwnershipOf",
      "outputs": [
        {
          "components": [
            {
              "internalType": "address",
              "name": "addr",
              "type": "address"
            },
            {
              "internalType": "uint64",
              "name": "startTimestamp",
              "type": "uint64"
            },
            {
              "internalType": "bool",
              "name": "burned",
              "type": "bool"
            },
            {
              "internalType": "uint24",
              "name": "extraData",
              "type": "uint24"
            }
          ],
          "internalType": "struct IERC721AUpgradeable.TokenOwnership",
          "name": "",
          "type": "tuple"
        }
      ],
      "stateMutability": "view",
      "type": "function"
    },
    {
      "inputs": [
        {
          "internalType": "uint256[]",
          "name": "tokenIds",
          "type": "uint256[]"
        }
      ],
      "name": "explicitOwnershipsOf",
      "outputs": [
        {
          "components": [
            {
              "internalType": "address",
              "name": "addr",
              "type": "address"
            },
            {
              "internalType": "uint64",
              "name": "startTimestamp",
              "type": "uint64"
            },
            {
              "internalType": "bool",
              "name": "burned",
              "type": "bool"
            },
            {
              "internalType": "uint24",
              "name": "extraData",
              "type": "uint24"
            }
          ],
          "internalType": "struct IERC721AUpgradeable.TokenOwnership[]",
          "name": "",
          "type": "tuple[]"
        }
      ],
      "stateMutability": "view",
      "type": "function"
    },
    {
      "inputs": [
        {
          "internalType": "uint256",
          "name": "tokenId",
          "type": "uint256"
        }
      ],
      "name": "getApproved",
      "outputs": [
        {
          "internalType": "address",
          "name": "",
          "type": "address"
        }
      ],
      "stateMutability": "view",
      "type": "function"
    },
    {
      "inputs": [
        {
          "internalType": "bytes32",
          "name": "role",
          "type": "bytes32"
        }
      ],
      "name": "getRoleAdmin",
      "outputs": [
        {
          "internalType": "bytes32",
          "name": "",
          "type": "bytes32"
        }
      ],
      "stateMutability": "view",
      "type": "function"
    },
    {
      "inputs": [
        {
          "internalType": "bytes32",
          "name": "role",
          "type": "bytes32"
        },
        {
          "internalType": "uint256",
          "name": "index",
          "type": "uint256"
        }
      ],
      "name": "getRoleMember",
      "outputs": [
        {
          "internalType": "address",
          "name": "",
          "type": "address"
        }
      ],
      "stateMutability": "view",
      "type": "function"
    },
    {
      "inputs": [
        {
          "internalType": "bytes32",
          "name": "role",
          "type": "bytes32"
        }
      ],
      "name": "getRoleMemberCount",
      "outputs": [
        {
          "internalType": "uint256",
          "name": "",
          "type": "uint256"
        }
      ],
      "stateMutability": "view",
      "type": "function"
    },
    {
      "inputs": [
        {
          "internalType": "bytes32",
          "name": "role",
          "type": "bytes32"
        },
        {
          "internalType": "address",
          "name": "account",
          "type": "address"
        }
      ],
      "name": "grantRole",
      "outputs": [],
      "stateMutability": "nonpayable",
      "type": "function"
    },
    {
      "inputs": [
        {
          "internalType": "bytes32",
          "name": "role",
          "type": "bytes32"
        },
        {
          "internalType": "address",
          "name": "account",
          "type": "address"
        }
      ],
      "name": "hasRole",
      "outputs": [
        {
          "internalType": "bool",
          "name": "",
          "type": "bool"
        }
      ],
      "stateMutability": "view",
      "type": "function"
    },
    {
      "inputs": [],
      "name": "initialize",
      "outputs": [],
      "stateMutability": "nonpayable",
      "type": "function"
    },
    {
      "inputs": [
        {
          "internalType": "address",
          "name": "owner",
          "type": "address"
        },
        {
          "internalType": "address",
          "name": "operator",
          "type": "address"
        }
      ],
      "name": "isApprovedForAll",
      "outputs": [
        {
          "internalType": "bool",
          "name": "",
          "type": "bool"
        }
      ],
      "stateMutability": "view",
      "type": "function"
    },
    {
      "inputs": [
        {
          "internalType": "bytes[]",
          "name": "data",
          "type": "bytes[]"
        }
      ],
      "name": "multicall",
      "outputs": [
        {
          "internalType": "bytes[]",
          "name": "results",
          "type": "bytes[]"
        }
      ],
      "stateMutability": "nonpayable",
      "type": "function"
    },
    {
      "inputs": [],
      "name": "name",
      "outputs": [
        {
          "internalType": "string",
          "name": "",
          "type": "string"
        }
      ],
      "stateMutability": "view",
      "type": "function"
    },
    {
      "inputs": [
        {
          "internalType": "address",
          "name": "",
          "type": "address"
        },
        {
          "internalType": "address",
          "name": "",
          "type": "address"
        },
        {
          "internalType": "uint256[]",
          "name": "removalIds",
          "type": "uint256[]"
        },
        {
          "internalType": "uint256[]",
          "name": "removalAmounts",
          "type": "uint256[]"
        },
        {
          "internalType": "bytes",
          "name": "data",
          "type": "bytes"
        }
      ],
      "name": "onERC1155BatchReceived",
      "outputs": [
        {
          "internalType": "bytes4",
          "name": "",
          "type": "bytes4"
        }
      ],
      "stateMutability": "nonpayable",
      "type": "function"
    },
    {
      "inputs": [
        {
          "internalType": "uint256",
          "name": "tokenId",
          "type": "uint256"
        }
      ],
      "name": "ownerOf",
      "outputs": [
        {
          "internalType": "address",
          "name": "",
          "type": "address"
        }
      ],
      "stateMutability": "view",
      "type": "function"
    },
    {
      "inputs": [],
      "name": "pause",
      "outputs": [],
      "stateMutability": "nonpayable",
      "type": "function"
    },
    {
      "inputs": [],
      "name": "paused",
      "outputs": [
        {
          "internalType": "bool",
          "name": "",
          "type": "bool"
        }
      ],
      "stateMutability": "view",
      "type": "function"
    },
    {
      "inputs": [
        {
          "internalType": "contract Removal",
          "name": "removal",
          "type": "address"
        }
      ],
      "name": "registerContractAddresses",
      "outputs": [],
      "stateMutability": "nonpayable",
      "type": "function"
    },
    {
      "inputs": [
        {
          "internalType": "uint256",
          "name": "certificateId",
          "type": "uint256"
        },
        {
          "internalType": "uint256",
          "name": "removalId",
          "type": "uint256"
        },
        {
          "internalType": "uint256",
          "name": "amount",
          "type": "uint256"
        }
      ],
      "name": "releaseRemoval",
      "outputs": [],
      "stateMutability": "nonpayable",
      "type": "function"
    },
    {
      "inputs": [
        {
          "internalType": "uint256",
          "name": "certificateId",
          "type": "uint256"
        }
      ],
      "name": "removalsOfCertificate",
      "outputs": [
        {
          "components": [
            {
              "internalType": "uint256",
              "name": "id",
              "type": "uint256"
            },
            {
              "internalType": "uint256",
              "name": "amount",
              "type": "uint256"
            }
          ],
          "internalType": "struct Certificate.Balance[]",
          "name": "",
          "type": "tuple[]"
        }
      ],
      "stateMutability": "view",
      "type": "function"
    },
    {
      "inputs": [
        {
          "internalType": "bytes32",
          "name": "role",
          "type": "bytes32"
        },
        {
          "internalType": "address",
          "name": "account",
          "type": "address"
        }
      ],
      "name": "renounceRole",
      "outputs": [],
      "stateMutability": "nonpayable",
      "type": "function"
    },
    {
      "inputs": [
        {
          "internalType": "bytes32",
          "name": "role",
          "type": "bytes32"
        },
        {
          "internalType": "address",
          "name": "account",
          "type": "address"
        }
      ],
      "name": "revokeRole",
      "outputs": [],
      "stateMutability": "nonpayable",
      "type": "function"
    },
    {
      "inputs": [
        {
          "internalType": "address",
          "name": "from",
          "type": "address"
        },
        {
          "internalType": "address",
          "name": "to",
          "type": "address"
        },
        {
          "internalType": "uint256",
          "name": "tokenId",
          "type": "uint256"
        }
      ],
      "name": "safeTransferFrom",
      "outputs": [],
      "stateMutability": "nonpayable",
      "type": "function"
    },
    {
      "inputs": [
        {
          "internalType": "address",
          "name": "from",
          "type": "address"
        },
        {
          "internalType": "address",
          "name": "to",
          "type": "address"
        },
        {
          "internalType": "uint256",
          "name": "tokenId",
          "type": "uint256"
        },
        {
          "internalType": "bytes",
          "name": "_data",
          "type": "bytes"
        }
      ],
      "name": "safeTransferFrom",
      "outputs": [],
      "stateMutability": "nonpayable",
      "type": "function"
    },
    {
      "inputs": [
        {
          "internalType": "address",
          "name": "",
          "type": "address"
        },
        {
          "internalType": "bool",
          "name": "",
          "type": "bool"
        }
      ],
      "name": "setApprovalForAll",
      "outputs": [],
      "stateMutability": "pure",
      "type": "function"
    },
    {
      "inputs": [
        {
          "internalType": "bytes4",
          "name": "interfaceId",
          "type": "bytes4"
        }
      ],
      "name": "supportsInterface",
      "outputs": [
        {
          "internalType": "bool",
          "name": "",
          "type": "bool"
        }
      ],
      "stateMutability": "view",
      "type": "function"
    },
    {
      "inputs": [],
      "name": "symbol",
      "outputs": [
        {
          "internalType": "string",
          "name": "",
          "type": "string"
        }
      ],
      "stateMutability": "view",
      "type": "function"
    },
    {
      "inputs": [
        {
          "internalType": "uint256",
          "name": "tokenId",
          "type": "uint256"
        }
      ],
      "name": "tokenURI",
      "outputs": [
        {
          "internalType": "string",
          "name": "",
          "type": "string"
        }
      ],
      "stateMutability": "view",
      "type": "function"
    },
    {
      "inputs": [
        {
          "internalType": "address",
          "name": "owner",
          "type": "address"
        }
      ],
      "name": "tokensOfOwner",
      "outputs": [
        {
          "internalType": "uint256[]",
          "name": "",
          "type": "uint256[]"
        }
      ],
      "stateMutability": "view",
      "type": "function"
    },
    {
      "inputs": [
        {
          "internalType": "address",
          "name": "owner",
          "type": "address"
        },
        {
          "internalType": "uint256",
          "name": "start",
          "type": "uint256"
        },
        {
          "internalType": "uint256",
          "name": "stop",
          "type": "uint256"
        }
      ],
      "name": "tokensOfOwnerIn",
      "outputs": [
        {
          "internalType": "uint256[]",
          "name": "",
          "type": "uint256[]"
        }
      ],
      "stateMutability": "view",
      "type": "function"
    },
    {
      "inputs": [],
      "name": "totalMinted",
      "outputs": [
        {
          "internalType": "uint256",
          "name": "",
          "type": "uint256"
        }
      ],
      "stateMutability": "view",
      "type": "function"
    },
    {
      "inputs": [],
      "name": "totalSupply",
      "outputs": [
        {
          "internalType": "uint256",
          "name": "",
          "type": "uint256"
        }
      ],
      "stateMutability": "view",
      "type": "function"
    },
    {
      "inputs": [
        {
          "internalType": "address",
          "name": "from",
          "type": "address"
        },
        {
          "internalType": "address",
          "name": "to",
          "type": "address"
        },
        {
          "internalType": "uint256",
          "name": "tokenId",
          "type": "uint256"
        }
      ],
      "name": "transferFrom",
      "outputs": [],
      "stateMutability": "nonpayable",
      "type": "function"
    },
    {
      "inputs": [],
      "name": "unpause",
      "outputs": [],
      "stateMutability": "nonpayable",
      "type": "function"
    }
  ],
  "bytecode": "0x60a06040527f65d7a28e3265b37a6474929f336521b332c1681b933f6cb9f3376673440d862a6080523480156200003557600080fd5b506200004062000046565b62000108565b600054610100900460ff1615620000b35760405162461bcd60e51b815260206004820152602760248201527f496e697469616c697a61626c653a20636f6e747261637420697320696e697469604482015266616c697a696e6760c81b606482015260840160405180910390fd5b60005460ff908116101562000106576000805460ff191660ff9081179091556040519081527f7f26b83ff96e1f2b6a682f133852f6798a09c465da95921460cefb38474024989060200160405180910390a15b565b60805161466462000139600039600081816106c101528181610d6c015281816113ae01526114b301526146646000f3fe608060405234801561001057600080fd5b50600436106102d35760003560e01c80638462151c11610186578063b88d4fde116100e3578063ca15c87311610097578063e63ab1e911610071578063e63ab1e9146106bc578063e985e9c5146106e3578063fc6413731461074b57600080fd5b8063ca15c8731461066a578063d547741f1461067d578063e508c52c1461069057600080fd5b8063bfdecc67116100c8578063bfdecc6714610624578063c23dc68f14610637578063c87b56dd1461065757600080fd5b8063b88d4fde146105cd578063bc197c81146105e057600080fd5b806399a2557a1161013a578063a22cb4651161011f578063a22cb46514610597578063a2309ff8146105a5578063ac9650d8146105ad57600080fd5b806399a2557a1461057c578063a217fddf1461058f57600080fd5b80639010d07c1161016b5780639010d07c1461051b57806391d148541461052e57806395d89b411461057457600080fd5b80638462151c146104e85780638e104d571461050857600080fd5b80633f4ba83a116102345780636352211e116101e85780637371efc9116101cd5780637371efc9146104b85780638129fc1c146104d85780638456cb59146104e057600080fd5b80636352211e1461049257806370a08231146104a557600080fd5b806342966c681161021957806342966c68146104545780635bbb2177146104675780635c975abb1461048757600080fd5b80633f4ba83a1461043957806342842e0e1461044157600080fd5b806323b872dd1161028b57806326c6da4f1161027057806326c6da4f146103ec5780632f2ff15d1461041357806336568abe1461042657600080fd5b806323b872dd146103b6578063248a9ca3146103c957600080fd5b8063081812fc116102bc578063081812fc14610315578063095ea7b31461034d57806318160ddd1461036257600080fd5b806301ffc9a7146102d857806306fdde0314610300575b600080fd5b6102eb6102e636600461396a565b61075e565b60405190151581526020015b60405180910390f35b61030861076f565b6040516102f791906139fd565b610328610323366004613a10565b610823565b60405173ffffffffffffffffffffffffffffffffffffffff90911681526020016102f7565b61036061035b366004613a4b565b6108ac565b005b7f2569078dfb4b0305704d3008e7403993ae9601b85f7ae5e742de3de8f8011c41547f2569078dfb4b0305704d3008e7403993ae9601b85f7ae5e742de3de8f8011c4054035b6040519081526020016102f7565b6103606103c4366004613a77565b6108de565b6103a86103d7366004613a10565b600090815260c9602052604090206001015490565b6103a87fb6eeb50d1ea0d876d560efb18b8017323347ce323ef4b05d5a0322c9c7869f8f81565b610360610421366004613ab8565b610c88565b610360610434366004613ab8565b610cb2565b610360610d6a565b61036061044f366004613a77565b610d9f565b610360610462366004613a10565b610dba565b61047a610475366004613b34565b610dc5565b6040516102f79190613b76565b60655460ff166102eb565b6103286104a0366004613a10565b610eaf565b6103a86104b3366004613c00565b610eba565b6104cb6104c6366004613a10565b610f5b565b6040516102f79190613c1d565b610360611060565b6103606114b1565b6104fb6104f6366004613c00565b6114e3565b6040516102f79190613ca7565b610360610516366004613cba565b61160b565b610328610529366004613ce6565b611704565b6102eb61053c366004613ab8565b600091825260c96020908152604080842073ffffffffffffffffffffffffffffffffffffffff93909316845291905290205460ff1690565b610308611723565b6104fb61058a366004613d08565b611754565b6103a8600081565b61036061035b366004613d3d565b6103a861192b565b6105c06105bb366004613b34565b61195a565b6040516102f79190613d70565b6103606105db366004613efc565b611a4f565b6105f36105ee366004613fe8565b611ab9565b6040517fffffffff0000000000000000000000000000000000000000000000000000000090911681526020016102f7565b6104cb610632366004613a10565b611b60565b61064a610645366004613a10565b611c5d565b6040516102f79190614096565b610308610665366004613a10565b611cfa565b6103a8610678366004613a10565b611dc8565b61036061068b366004613ab8565b611ddf565b6103a861069e366004613ce6565b600091825261012d6020908152604080842092845291905290205490565b6103a87f000000000000000000000000000000000000000000000000000000000000000081565b6102eb6106f13660046140e8565b73ffffffffffffffffffffffffffffffffffffffff91821660009081527f2569078dfb4b0305704d3008e7403993ae9601b85f7ae5e742de3de8f8011c476020908152604080832093909416825291909152205460ff1690565b610360610759366004613c00565b611e04565b600061076982611e60565b92915050565b60607f2569078dfb4b0305704d3008e7403993ae9601b85f7ae5e742de3de8f8011c4060020180546107a090614116565b80601f01602080910402602001604051908101604052809291908181526020018280546107cc90614116565b80156108195780601f106107ee57610100808354040283529160200191610819565b820191906000526020600020905b8154815290600101906020018083116107fc57829003601f168201915b5050505050905090565b600061082e82611eb6565b610864576040517fcf4700e400000000000000000000000000000000000000000000000000000000815260040160405180910390fd5b5060009081527f2569078dfb4b0305704d3008e7403993ae9601b85f7ae5e742de3de8f8011c46602052604090205473ffffffffffffffffffffffffffffffffffffffff1690565b6040517fbf24148800000000000000000000000000000000000000000000000000000000815260040160405180910390fd5b60006108e982611f35565b90508373ffffffffffffffffffffffffffffffffffffffff168173ffffffffffffffffffffffffffffffffffffffff1614610950576040517fa114810000000000000000000000000000000000000000000000000000000000815260040160405180910390fd5b60008281527f2569078dfb4b0305704d3008e7403993ae9601b85f7ae5e742de3de8f8011c466020526040902080546109a88187335b73ffffffffffffffffffffffffffffffffffffffff9081169116811491141790565b610a355773ffffffffffffffffffffffffffffffffffffffff861660009081527f2569078dfb4b0305704d3008e7403993ae9601b85f7ae5e742de3de8f8011c476020908152604080832033845290915290205460ff16610a35576040517f59c896be00000000000000000000000000000000000000000000000000000000815260040160405180910390fd5b73ffffffffffffffffffffffffffffffffffffffff8516610a82576040517fea553b3400000000000000000000000000000000000000000000000000000000815260040160405180910390fd5b610a8f8686866001612049565b8015610a9a57600082555b73ffffffffffffffffffffffffffffffffffffffff86811660009081527f2569078dfb4b0305704d3008e7403993ae9601b85f7ae5e742de3de8f8011c45602052604080822080547fffffffffffffffffffffffffffffffffffffffffffffffffffffffffffffffff019055918716808252919020805460010190554260a01b177c02000000000000000000000000000000000000000000000000000000001760008581527f2569078dfb4b0305704d3008e7403993ae9601b85f7ae5e742de3de8f8011c4460205260408120919091557c020000000000000000000000000000000000000000000000000000000084169003610c24576001840160008181527f2569078dfb4b0305704d3008e7403993ae9601b85f7ae5e742de3de8f8011c4460205260408120549003610c22577f2569078dfb4b0305704d3008e7403993ae9601b85f7ae5e742de3de8f8011c40548114610c225760008181527f2569078dfb4b0305704d3008e7403993ae9601b85f7ae5e742de3de8f8011c44602052604090208490555b505b838573ffffffffffffffffffffffffffffffffffffffff168773ffffffffffffffffffffffffffffffffffffffff167fddf252ad1be2c89b69c2b068fc378daa952ba7f163c4a11628f55a4df523b3ef60405160405180910390a45b505050505050565b600082815260c96020526040902060010154610ca3816120f2565b610cad83836120fc565b505050565b73ffffffffffffffffffffffffffffffffffffffff81163314610d5c576040517f08c379a000000000000000000000000000000000000000000000000000000000815260206004820152602f60248201527f416363657373436f6e74726f6c3a2063616e206f6e6c792072656e6f756e636560448201527f20726f6c657320666f722073656c66000000000000000000000000000000000060648201526084015b60405180910390fd5b610d66828261211e565b5050565b7f0000000000000000000000000000000000000000000000000000000000000000610d94816120f2565b610d9c612140565b50565b610cad83838360405180602001604052806000815250611a4f565b610d9c8160016121bd565b60608160008167ffffffffffffffff811115610de357610de3613df0565b604051908082528060200260200182016040528015610e5357816020015b6040805160808101825260008082526020808301829052928201819052606082015282527fffffffffffffffffffffffffffffffffffffffffffffffffffffffffffffffff909201910181610e015790505b50905060005b828114610ea657610e81868683818110610e7557610e75614169565b90506020020135611c5d565b828281518110610e9357610e93614169565b6020908102919091010152600101610e59565b50949350505050565b600061076982611f35565b600073ffffffffffffffffffffffffffffffffffffffff8216610f09576040517f8f4eb60400000000000000000000000000000000000000000000000000000000815260040160405180910390fd5b5073ffffffffffffffffffffffffffffffffffffffff1660009081527f2569078dfb4b0305704d3008e7403993ae9601b85f7ae5e742de3de8f8011c45602052604090205467ffffffffffffffff1690565b600081815261012e60205260408120606091610f768261249d565b67ffffffffffffffff811115610f8e57610f8e613df0565b604051908082528060200260200182016040528015610fd357816020015b6040805180820190915260008082526020820152815260200190600190039081610fac5790505b50905060005b610fe28361249d565b811015611058576000610ff584836124a7565b604080518082018252828152600089815261012d60209081528382208583528152929020549181019190915284519192509084908490811061103957611039614169565b6020026020010181905250508080611050906141c7565b915050610fd9565b509392505050565b7fee151c8401928dc223602bb187aff91b9a56c7cae5476ef1b3287b085a16c85f54610100900460ff166110b9577fee151c8401928dc223602bb187aff91b9a56c7cae5476ef1b3287b085a16c85f5460ff16156110bd565b303b155b611149576040517f08c379a000000000000000000000000000000000000000000000000000000000815260206004820152603760248201527f455243373231415f5f496e697469616c697a61626c653a20636f6e747261637460448201527f20697320616c726561647920696e697469616c697a65640000000000000000006064820152608401610d53565b7fee151c8401928dc223602bb187aff91b9a56c7cae5476ef1b3287b085a16c85f54610100900460ff161580156111c6577fee151c8401928dc223602bb187aff91b9a56c7cae5476ef1b3287b085a16c85f80547fffffffffffffffffffffffffffffffffffffffffffffffffffffffffffff0000166101011790555b600054610100900460ff16158080156111e65750600054600160ff909116105b806112005750303b158015611200575060005460ff166001145b61128c576040517f08c379a000000000000000000000000000000000000000000000000000000000815260206004820152602e60248201527f496e697469616c697a61626c653a20636f6e747261637420697320616c72656160448201527f647920696e697469616c697a65640000000000000000000000000000000000006064820152608401610d53565b600080547fffffffffffffffffffffffffffffffffffffffffffffffffffffffffffffff0016600117905580156112ea57600080547fffffffffffffffffffffffffffffffffffffffffffffffffffffffffffff00ff166101001790555b6112f26124b3565b6112fa6124b3565b61136e6040518060400160405280600b81526020017f43657274696669636174650000000000000000000000000000000000000000008152506040518060400160405280600381526020017f4e5254000000000000000000000000000000000000000000000000000000000081525061254c565b611376612682565b61137e612682565b611386612738565b61138e6124b3565b6113966124b3565b61139e6124b3565b6113a96000336120fc565b6113d37f0000000000000000000000000000000000000000000000000000000000000000336120fc565b6113fd7fb6eeb50d1ea0d876d560efb18b8017323347ce323ef4b05d5a0322c9c7869f8f336120fc565b801561146057600080547fffffffffffffffffffffffffffffffffffffffffffffffffffffffffffff00ff169055604051600181527f7f26b83ff96e1f2b6a682f133852f6798a09c465da95921460cefb38474024989060200160405180910390a15b508015610d9c57507fee151c8401928dc223602bb187aff91b9a56c7cae5476ef1b3287b085a16c85f80547fffffffffffffffffffffffffffffffffffffffffffffffffffffffffffff00ff169055565b7f00000000000000000000000000000000000000000000000000000000000000006114db816120f2565b610d9c6127f9565b606060008060006114f385610eba565b905060008167ffffffffffffffff81111561151057611510613df0565b604051908082528060200260200182016040528015611539578160200160208202803683370190505b5060408051608081018252600080825260208201819052918101829052606081018290529192505b8386146115ff5761157181612854565b915081604001516115f757815173ffffffffffffffffffffffffffffffffffffffff161561159e57815194505b8773ffffffffffffffffffffffffffffffffffffffff168573ffffffffffffffffffffffffffffffffffffffff16036115f757808387806001019850815181106115ea576115ea614169565b6020026020010181815250505b600101611561565b50909695505050505050565b61161361291d565b6101305473ffffffffffffffffffffffffffffffffffffffff163373ffffffffffffffffffffffffffffffffffffffff161461167b576040517f9a5ed74b00000000000000000000000000000000000000000000000000000000815260040160405180910390fd5b600083815261012d60209081526040808320858452909152812080548392906116a59084906141ff565b9091555050600083815261012d602090815260408083208584529091528120549003610cad57600083815261012e602052604090206116e4908361298a565b50600082815261012f602052604090206116fe908461298a565b50505050565b600082815260fb6020526040812061171c90836124a7565b9392505050565b60607f2569078dfb4b0305704d3008e7403993ae9601b85f7ae5e742de3de8f8011c4060030180546107a090614116565b606081831061178f576040517f32c1995a00000000000000000000000000000000000000000000000000000000815260040160405180910390fd5b6000806117ba7f2569078dfb4b0305704d3008e7403993ae9601b85f7ae5e742de3de8f8011c405490565b9050808411156117c8578093505b60006117d387610eba565b9050848610156117f257858503818110156117ec578091505b506117f6565b5060005b60008167ffffffffffffffff81111561181157611811613df0565b60405190808252806020026020018201604052801561183a578160200160208202803683370190505b5090508160000361185057935061171c92505050565b600061185b88611c5d565b90506000816040015161186c575080515b885b88811415801561187e5750848714155b1561191a5761188c81612854565b9250826040015161191257825173ffffffffffffffffffffffffffffffffffffffff16156118b957825191505b8a73ffffffffffffffffffffffffffffffffffffffff168273ffffffffffffffffffffffffffffffffffffffff1603611912578084888060010199508151811061190557611905614169565b6020026020010181815250505b60010161186e565b505050928352509095945050505050565b60006119557f2569078dfb4b0305704d3008e7403993ae9601b85f7ae5e742de3de8f8011c405490565b905090565b60608167ffffffffffffffff81111561197557611975613df0565b6040519080825280602002602001820160405280156119a857816020015b60608152602001906001900390816119935790505b50905060005b82811015611a4857611a18308585848181106119cc576119cc614169565b90506020028101906119de9190614216565b8080601f01602080910402602001604051908101604052809392919081815260200183838082843760009201919091525061299692505050565b828281518110611a2a57611a2a614169565b60200260200101819052508080611a40906141c7565b9150506119ae565b5092915050565b611a5a8484846108de565b73ffffffffffffffffffffffffffffffffffffffff83163b156116fe57611a8384848484612ad5565b6116fe576040517fd1a57ed600000000000000000000000000000000000000000000000000000000815260040160405180910390fd5b6101305460009073ffffffffffffffffffffffffffffffffffffffff163373ffffffffffffffffffffffffffffffffffffffff1614611b24576040517f9a5ed74b00000000000000000000000000000000000000000000000000000000815260040160405180910390fd5b6020820151611b34818686612c4e565b507fbc197c81000000000000000000000000000000000000000000000000000000009695505050505050565b600081815261012f60205260408120606091611b7b8261249d565b67ffffffffffffffff811115611b9357611b93613df0565b604051908082528060200260200182016040528015611bd857816020015b6040805180820190915260008082526020820152815260200190600190039081611bb15790505b50905060005b611be78361249d565b811015611058576000611bfa84836124a7565b604080518082018252828152600083815261012d60209081528382208b835281529290205491810191909152845191925090849084908110611c3e57611c3e614169565b6020026020010181905250508080611c55906141c7565b915050611bde565b604080516080808201835260008083526020808401829052838501829052606080850183905285519384018652828452908301829052938201819052928101839052909150611cca7f2569078dfb4b0305704d3008e7403993ae9601b85f7ae5e742de3de8f8011c405490565b8310611cd65792915050565b611cdf83612854565b9050806040015115611cf15792915050565b61171c83612df3565b6060611d0582611eb6565b611d3b576040517fa14c4b5000000000000000000000000000000000000000000000000000000000815260040160405180910390fd5b6000611d7760408051808201909152601181527f68747470733a2f2f6e6f72692e636f6d2f000000000000000000000000000000602082015290565b90508051600003611d97576040518060200160405280600081525061171c565b80611da184612e91565b604051602001611db292919061427b565b6040516020818303038152906040529392505050565b600081815260fb602052604081206107699061249d565b600082815260c96020526040902060010154611dfa816120f2565b610cad838361211e565b611e0c61291d565b6000611e17816120f2565b5061013080547fffffffffffffffffffffffff00000000000000000000000000000000000000001673ffffffffffffffffffffffffffffffffffffffff92909216919091179055565b60007fffffffff0000000000000000000000000000000000000000000000000000000082167f5a05180f000000000000000000000000000000000000000000000000000000001480610769575061076982612efe565b60007f2569078dfb4b0305704d3008e7403993ae9601b85f7ae5e742de3de8f8011c40548210801561076957505060009081527f2569078dfb4b0305704d3008e7403993ae9601b85f7ae5e742de3de8f8011c4460205260409020547c0100000000000000000000000000000000000000000000000000000000161590565b6000817f2569078dfb4b0305704d3008e7403993ae9601b85f7ae5e742de3de8f8011c40548110156120175760008181527f2569078dfb4b0305704d3008e7403993ae9601b85f7ae5e742de3de8f8011c446020526040812054907c010000000000000000000000000000000000000000000000000000000082169003612015575b8060000361171c57507fffffffffffffffffffffffffffffffffffffffffffffffffffffffffffffffff0160008181527f2569078dfb4b0305704d3008e7403993ae9601b85f7ae5e742de3de8f8011c446020526040902054611fb7565b505b6040517fdf2d9b4200000000000000000000000000000000000000000000000000000000815260040160405180910390fd5b61205161291d565b73ffffffffffffffffffffffffffffffffffffffff84811615159084161515600061209c7fb6eeb50d1ea0d876d560efb18b8017323347ce323ef4b05d5a0322c9c7869f8f3361053c565b1590508280156120a95750815b80156120b25750805b156120e9576040517f175e5a9000000000000000000000000000000000000000000000000000000000815260040160405180910390fd5b50505050505050565b610d9c8133612f95565b6121068282613067565b600082815260fb60205260409020610cad908261315b565b612128828261317d565b600082815260fb60205260409020610cad9082613238565b61214861325a565b606580547fffffffffffffffffffffffffffffffffffffffffffffffffffffffffffffff001690557f5db9ee0a495bf2e6ff9c91a7834c1ba4fdd244a5e8aa4e537bd38aeae4b073aa335b60405173ffffffffffffffffffffffffffffffffffffffff909116815260200160405180910390a1565b60006121c883611f35565b9050806000806122058660009081527f2569078dfb4b0305704d3008e7403993ae9601b85f7ae5e742de3de8f8011c466020526040902080549091565b9150915084156122a75761221a818433610986565b6122a75773ffffffffffffffffffffffffffffffffffffffff831660009081527f2569078dfb4b0305704d3008e7403993ae9601b85f7ae5e742de3de8f8011c476020908152604080832033845290915290205460ff166122a7576040517f59c896be00000000000000000000000000000000000000000000000000000000815260040160405180910390fd5b6122b5836000886001612049565b80156122c057600082555b73ffffffffffffffffffffffffffffffffffffffff831660008181527f2569078dfb4b0305704d3008e7403993ae9601b85f7ae5e742de3de8f8011c456020526040902080546fffffffffffffffffffffffffffffffff0190554260a01b177c03000000000000000000000000000000000000000000000000000000001760008781527f2569078dfb4b0305704d3008e7403993ae9601b85f7ae5e742de3de8f8011c4460205260408120919091557c020000000000000000000000000000000000000000000000000000000085169003612428576001860160008181527f2569078dfb4b0305704d3008e7403993ae9601b85f7ae5e742de3de8f8011c4460205260408120549003612426577f2569078dfb4b0305704d3008e7403993ae9601b85f7ae5e742de3de8f8011c405481146124265760008181527f2569078dfb4b0305704d3008e7403993ae9601b85f7ae5e742de3de8f8011c44602052604090208590555b505b604051869060009073ffffffffffffffffffffffffffffffffffffffff8616907fddf252ad1be2c89b69c2b068fc378daa952ba7f163c4a11628f55a4df523b3ef908390a450507f2569078dfb4b0305704d3008e7403993ae9601b85f7ae5e742de3de8f8011c418054600101905550505050565b6000610769825490565b600061171c83836132c6565b600054610100900460ff1661254a576040517f08c379a000000000000000000000000000000000000000000000000000000000815260206004820152602b60248201527f496e697469616c697a61626c653a20636f6e7472616374206973206e6f74206960448201527f6e697469616c697a696e670000000000000000000000000000000000000000006064820152608401610d53565b565b7fee151c8401928dc223602bb187aff91b9a56c7cae5476ef1b3287b085a16c85f54610100900460ff16612602576040517f08c379a000000000000000000000000000000000000000000000000000000000815260206004820152603460248201527f455243373231415f5f496e697469616c697a61626c653a20636f6e747261637460448201527f206973206e6f7420696e697469616c697a696e670000000000000000000000006064820152608401610d53565b7f2569078dfb4b0305704d3008e7403993ae9601b85f7ae5e742de3de8f8011c4261262d83826142f0565b507f2569078dfb4b0305704d3008e7403993ae9601b85f7ae5e742de3de8f8011c4361265982826142f0565b5060007f2569078dfb4b0305704d3008e7403993ae9601b85f7ae5e742de3de8f8011c40555050565b7fee151c8401928dc223602bb187aff91b9a56c7cae5476ef1b3287b085a16c85f54610100900460ff1661254a576040517f08c379a000000000000000000000000000000000000000000000000000000000815260206004820152603460248201527f455243373231415f5f496e697469616c697a61626c653a20636f6e747261637460448201527f206973206e6f7420696e697469616c697a696e670000000000000000000000006064820152608401610d53565b600054610100900460ff166127cf576040517f08c379a000000000000000000000000000000000000000000000000000000000815260206004820152602b60248201527f496e697469616c697a61626c653a20636f6e7472616374206973206e6f74206960448201527f6e697469616c697a696e670000000000000000000000000000000000000000006064820152608401610d53565b606580547fffffffffffffffffffffffffffffffffffffffffffffffffffffffffffffff00169055565b61280161291d565b606580547fffffffffffffffffffffffffffffffffffffffffffffffffffffffffffffff001660011790557f62e78cea01bee320cd4e420270b5ea74000d11b0c9f74754ebdbfc544b05a2586121933390565b6040805160808101825260008082526020820181905291810182905260608101919091526107697f2569078dfb4b0305704d3008e7403993ae9601b85f7ae5e742de3de8f8011c40600084815260049190910160205260409020546040805160808101825273ffffffffffffffffffffffffffffffffffffffff8316815260a083901c67ffffffffffffffff1660208201527c0100000000000000000000000000000000000000000000000000000000831615159181019190915260e89190911c606082015290565b60655460ff161561254a576040517f08c379a000000000000000000000000000000000000000000000000000000000815260206004820152601060248201527f5061757361626c653a20706175736564000000000000000000000000000000006044820152606401610d53565b600061171c83836132f0565b606073ffffffffffffffffffffffffffffffffffffffff83163b612a3c576040517f08c379a000000000000000000000000000000000000000000000000000000000815260206004820152602660248201527f416464726573733a2064656c65676174652063616c6c20746f206e6f6e2d636f60448201527f6e747261637400000000000000000000000000000000000000000000000000006064820152608401610d53565b6000808473ffffffffffffffffffffffffffffffffffffffff1684604051612a64919061440a565b600060405180830381855af49150503d8060008114612a9f576040519150601f19603f3d011682016040523d82523d6000602084013e612aa4565b606091505b5091509150612acc8282604051806060016040528060278152602001614608602791396133e3565b95945050505050565b6040517f150b7a0200000000000000000000000000000000000000000000000000000000815260009073ffffffffffffffffffffffffffffffffffffffff85169063150b7a0290612b30903390899088908890600401614426565b6020604051808303816000875af1925050508015612b89575060408051601f3d9081017fffffffffffffffffffffffffffffffffffffffffffffffffffffffffffffffe0168201909252612b869181019061446f565b60015b612c00573d808015612bb7576040519150601f19603f3d011682016040523d82523d6000602084013e612bbc565b606091505b508051600003612bf8576040517fd1a57ed600000000000000000000000000000000000000000000000000000000815260040160405180910390fd5b805181602001fd5b7fffffffff00000000000000000000000000000000000000000000000000000000167f150b7a0200000000000000000000000000000000000000000000000000000000149050949350505050565b612c588282613436565b6000612c827f2569078dfb4b0305704d3008e7403993ae9601b85f7ae5e742de3de8f8011c405490565b9050612c8f8460016134d7565b60005b8351811015612d9957828181518110612cad57612cad614169565b602002602001015161012d60008481526020019081526020016000206000868481518110612cdd57612cdd614169565b602002602001015181526020019081526020016000206000828254612d02919061448c565b92505081905550612d48848281518110612d1e57612d1e614169565b602002602001015161012e600085815260200190815260200160002061369e90919063ffffffff16565b50612d888261012f6000878581518110612d6457612d64614169565b6020026020010151815260200190815260200160002061369e90919063ffffffff16565b50612d92816141c7565b9050612c92565b508073ffffffffffffffffffffffffffffffffffffffff85167f71b93f608484eca5c0ce34cf649c43ec993a234dffbf78fd29d711fb47fd023c338686604051612de5939291906144a4565b60405180910390a350505050565b604080516080810182526000808252602082018190529181018290526060810191909152610769612e2383611f35565b6040805160808101825273ffffffffffffffffffffffffffffffffffffffff8316815260a083901c67ffffffffffffffff1660208201527c0100000000000000000000000000000000000000000000000000000000831615159181019190915260e89190911c606082015290565b604080516080810191829052607f0190826030600a8206018353600a90045b8015612ece57600183039250600a81066030018353600a9004612eb0565b508190037fffffffffffffffffffffffffffffffffffffffffffffffffffffffffffffffe0909101908152919050565b60007fffffffff0000000000000000000000000000000000000000000000000000000082167f7965db0b00000000000000000000000000000000000000000000000000000000148061076957507f01ffc9a7000000000000000000000000000000000000000000000000000000007fffffffff00000000000000000000000000000000000000000000000000000000831614610769565b600082815260c96020908152604080832073ffffffffffffffffffffffffffffffffffffffff8516845290915290205460ff16610d6657612fed8173ffffffffffffffffffffffffffffffffffffffff1660146136aa565b612ff88360206136aa565b6040516020016130099291906144e5565b604080517fffffffffffffffffffffffffffffffffffffffffffffffffffffffffffffffe0818403018152908290527f08c379a0000000000000000000000000000000000000000000000000000000008252610d53916004016139fd565b600082815260c96020908152604080832073ffffffffffffffffffffffffffffffffffffffff8516845290915290205460ff16610d6657600082815260c96020908152604080832073ffffffffffffffffffffffffffffffffffffffff85168452909152902080547fffffffffffffffffffffffffffffffffffffffffffffffffffffffffffffff001660011790556130fd3390565b73ffffffffffffffffffffffffffffffffffffffff168173ffffffffffffffffffffffffffffffffffffffff16837f2f8788117e7eff1d82e926ec794901d17c78024a50270940304540a733656f0d60405160405180910390a45050565b600061171c8373ffffffffffffffffffffffffffffffffffffffff84166138ed565b600082815260c96020908152604080832073ffffffffffffffffffffffffffffffffffffffff8516845290915290205460ff1615610d6657600082815260c96020908152604080832073ffffffffffffffffffffffffffffffffffffffff8516808552925280832080547fffffffffffffffffffffffffffffffffffffffffffffffffffffffffffffff0016905551339285917ff6391f5c32d9c69d2a47ea670b442974b53935d1edc7fd64eb21e047a839171b9190a45050565b600061171c8373ffffffffffffffffffffffffffffffffffffffff84166132f0565b60655460ff1661254a576040517f08c379a000000000000000000000000000000000000000000000000000000000815260206004820152601460248201527f5061757361626c653a206e6f74207061757365640000000000000000000000006044820152606401610d53565b60008260000182815481106132dd576132dd614169565b9060005260206000200154905092915050565b600081815260018301602052604081205480156133d95760006133146001836141ff565b8554909150600090613328906001906141ff565b905081811461338d57600086600001828154811061334857613348614169565b906000526020600020015490508087600001848154811061336b5761336b614169565b6000918252602080832090910192909255918252600188019052604090208390555b855486908061339e5761339e614566565b600190038181906000526020600020016000905590558560010160008681526020019081526020016000206000905560019350505050610769565b6000915050610769565b606083156133f257508161171c565b8251156134025782518084602001fd5b816040517f08c379a0000000000000000000000000000000000000000000000000000000008152600401610d5391906139fd565b8051825114610d6657604080517f616c41130000000000000000000000000000000000000000000000000000000081526004810191909152600a60448201527f72656d6f76616c49647300000000000000000000000000000000000000000000606482015260806024820152600e60848201527f72656d6f76616c416d6f756e747300000000000000000000000000000000000060a482015260c401610d53565b7f2569078dfb4b0305704d3008e7403993ae9601b85f7ae5e742de3de8f8011c40546000829003613534576040517fb562e8dd00000000000000000000000000000000000000000000000000000000815260040160405180910390fd5b6135416000848385612049565b73ffffffffffffffffffffffffffffffffffffffff831660008181527f2569078dfb4b0305704d3008e7403993ae9601b85f7ae5e742de3de8f8011c456020908152604080832080546801000000000000000188020190558483527f2569078dfb4b0305704d3008e7403993ae9601b85f7ae5e742de3de8f8011c4490915281206001851460e11b4260a01b178317905582840190839083907fddf252ad1be2c89b69c2b068fc378daa952ba7f163c4a11628f55a4df523b3ef8180a4600183015b81811461363b57808360007fddf252ad1be2c89b69c2b068fc378daa952ba7f163c4a11628f55a4df523b3ef600080a4600101613603565b5081600003613676576040517f2e07630000000000000000000000000000000000000000000000000000000000815260040160405180910390fd5b7f2569078dfb4b0305704d3008e7403993ae9601b85f7ae5e742de3de8f8011c405550505050565b600061171c83836138ed565b606060006136b9836002614595565b6136c490600261448c565b67ffffffffffffffff8111156136dc576136dc613df0565b6040519080825280601f01601f191660200182016040528015613706576020820181803683370190505b5090507f30000000000000000000000000000000000000000000000000000000000000008160008151811061373d5761373d614169565b60200101907effffffffffffffffffffffffffffffffffffffffffffffffffffffffffffff1916908160001a9053507f7800000000000000000000000000000000000000000000000000000000000000816001815181106137a0576137a0614169565b60200101907effffffffffffffffffffffffffffffffffffffffffffffffffffffffffffff1916908160001a90535060006137dc846002614595565b6137e790600161448c565b90505b6001811115613884577f303132333435363738396162636465660000000000000000000000000000000085600f166010811061382857613828614169565b1a60f81b82828151811061383e5761383e614169565b60200101907effffffffffffffffffffffffffffffffffffffffffffffffffffffffffffff1916908160001a90535060049490941c9361387d816145d2565b90506137ea565b50831561171c576040517f08c379a000000000000000000000000000000000000000000000000000000000815260206004820181905260248201527f537472696e67733a20686578206c656e67746820696e73756666696369656e746044820152606401610d53565b600081815260018301602052604081205461393457508154600181810184556000848152602080822090930184905584548482528286019093526040902091909155610769565b506000610769565b7fffffffff0000000000000000000000000000000000000000000000000000000081168114610d9c57600080fd5b60006020828403121561397c57600080fd5b813561171c8161393c565b60005b838110156139a257818101518382015260200161398a565b838111156116fe5750506000910152565b600081518084526139cb816020860160208601613987565b601f017fffffffffffffffffffffffffffffffffffffffffffffffffffffffffffffffe0169290920160200192915050565b60208152600061171c60208301846139b3565b600060208284031215613a2257600080fd5b5035919050565b73ffffffffffffffffffffffffffffffffffffffff81168114610d9c57600080fd5b60008060408385031215613a5e57600080fd5b8235613a6981613a29565b946020939093013593505050565b600080600060608486031215613a8c57600080fd5b8335613a9781613a29565b92506020840135613aa781613a29565b929592945050506040919091013590565b60008060408385031215613acb57600080fd5b823591506020830135613add81613a29565b809150509250929050565b60008083601f840112613afa57600080fd5b50813567ffffffffffffffff811115613b1257600080fd5b6020830191508360208260051b8501011115613b2d57600080fd5b9250929050565b60008060208385031215613b4757600080fd5b823567ffffffffffffffff811115613b5e57600080fd5b613b6a85828601613ae8565b90969095509350505050565b6020808252825182820181905260009190848201906040850190845b818110156115ff57613bed83855173ffffffffffffffffffffffffffffffffffffffff815116825267ffffffffffffffff602082015116602083015260408101511515604083015262ffffff60608201511660608301525050565b9284019260809290920191600101613b92565b600060208284031215613c1257600080fd5b813561171c81613a29565b602080825282518282018190526000919060409081850190868401855b82811015613c5f57815180518552860151868501529284019290850190600101613c3a565b5091979650505050505050565b600081518084526020808501945080840160005b83811015613c9c57815187529582019590820190600101613c80565b509495945050505050565b60208152600061171c6020830184613c6c565b600080600060608486031215613ccf57600080fd5b505081359360208301359350604090920135919050565b60008060408385031215613cf957600080fd5b50508035926020909101359150565b600080600060608486031215613d1d57600080fd5b8335613d2881613a29565b95602085013595506040909401359392505050565b60008060408385031215613d5057600080fd5b8235613d5b81613a29565b915060208301358015158114613add57600080fd5b6000602080830181845280855180835260408601915060408160051b870101925083870160005b82811015613de3577fffffffffffffffffffffffffffffffffffffffffffffffffffffffffffffffc0888603018452613dd18583516139b3565b94509285019290850190600101613d97565b5092979650505050505050565b7f4e487b7100000000000000000000000000000000000000000000000000000000600052604160045260246000fd5b604051601f82017fffffffffffffffffffffffffffffffffffffffffffffffffffffffffffffffe016810167ffffffffffffffff81118282101715613e6657613e66613df0565b604052919050565b600082601f830112613e7f57600080fd5b813567ffffffffffffffff811115613e9957613e99613df0565b613eca60207fffffffffffffffffffffffffffffffffffffffffffffffffffffffffffffffe0601f84011601613e1f565b818152846020838601011115613edf57600080fd5b816020850160208301376000918101602001919091529392505050565b60008060008060808587031215613f1257600080fd5b8435613f1d81613a29565b93506020850135613f2d81613a29565b925060408501359150606085013567ffffffffffffffff811115613f5057600080fd5b613f5c87828801613e6e565b91505092959194509250565b600082601f830112613f7957600080fd5b8135602067ffffffffffffffff821115613f9557613f95613df0565b8160051b613fa4828201613e1f565b9283528481018201928281019087851115613fbe57600080fd5b83870192505b84831015613fdd57823582529183019190830190613fc4565b979650505050505050565b600080600080600060a0868803121561400057600080fd5b853561400b81613a29565b9450602086013561401b81613a29565b9350604086013567ffffffffffffffff8082111561403857600080fd5b61404489838a01613f68565b9450606088013591508082111561405a57600080fd5b61406689838a01613f68565b9350608088013591508082111561407c57600080fd5b5061408988828901613e6e565b9150509295509295909350565b815173ffffffffffffffffffffffffffffffffffffffff16815260208083015167ffffffffffffffff169082015260408083015115159082015260608083015162ffffff169082015260808101610769565b600080604083850312156140fb57600080fd5b823561410681613a29565b91506020830135613add81613a29565b600181811c9082168061412a57607f821691505b602082108103614163577f4e487b7100000000000000000000000000000000000000000000000000000000600052602260045260246000fd5b50919050565b7f4e487b7100000000000000000000000000000000000000000000000000000000600052603260045260246000fd5b7f4e487b7100000000000000000000000000000000000000000000000000000000600052601160045260246000fd5b60007fffffffffffffffffffffffffffffffffffffffffffffffffffffffffffffffff82036141f8576141f8614198565b5060010190565b60008282101561421157614211614198565b500390565b60008083357fffffffffffffffffffffffffffffffffffffffffffffffffffffffffffffffe184360301811261424b57600080fd5b83018035915067ffffffffffffffff82111561426657600080fd5b602001915036819003821315613b2d57600080fd5b6000835161428d818460208801613987565b8351908301906142a1818360208801613987565b01949350505050565b601f821115610cad57600081815260208120601f850160051c810160208610156142d15750805b601f850160051c820191505b81811015610c80578281556001016142dd565b815167ffffffffffffffff81111561430a5761430a613df0565b61431e816143188454614116565b846142aa565b602080601f831160018114614371576000841561433b5750858301515b7fffffffffffffffffffffffffffffffffffffffffffffffffffffffffffffffff600386901b1c1916600185901b178555610c80565b6000858152602081207fffffffffffffffffffffffffffffffffffffffffffffffffffffffffffffffe08616915b828110156143be5788860151825594840194600190910190840161439f565b50858210156143fa57878501517fffffffffffffffffffffffffffffffffffffffffffffffffffffffffffffffff600388901b60f8161c191681555b5050505050600190811b01905550565b6000825161441c818460208701613987565b9190910192915050565b600073ffffffffffffffffffffffffffffffffffffffff80871683528086166020840152508360408301526080606083015261446560808301846139b3565b9695505050505050565b60006020828403121561448157600080fd5b815161171c8161393c565b6000821982111561449f5761449f614198565b500190565b73ffffffffffffffffffffffffffffffffffffffff841681526060602082015260006144d36060830185613c6c565b82810360408401526144658185613c6c565b7f416363657373436f6e74726f6c3a206163636f756e742000000000000000000081526000835161451d816017850160208801613987565b7f206973206d697373696e6720726f6c6520000000000000000000000000000000601791840191820152835161455a816028840160208801613987565b01602801949350505050565b7f4e487b7100000000000000000000000000000000000000000000000000000000600052603160045260246000fd5b6000817fffffffffffffffffffffffffffffffffffffffffffffffffffffffffffffffff04831182151516156145cd576145cd614198565b500290565b6000816145e1576145e1614198565b507fffffffffffffffffffffffffffffffffffffffffffffffffffffffffffffffff019056fe416464726573733a206c6f772d6c6576656c2064656c65676174652063616c6c206661696c6564a26469706673582212200285dd08ba8226316777b6e2ae2698a7e990349a5c599215d78b99e9d0c0ea9f64736f6c634300080f0033",
  "linkReferences": {},
  "deployedLinkReferences": {}
}