{
  "_format": "hh-sol-artifact-1",
  "contractName": "Certificate",
  "sourceName": "contracts/Certificate.sol",
  "abi": [
    {
      "inputs": [],
      "stateMutability": "nonpayable",
      "type": "constructor"
    },
    {
      "inputs": [],
      "name": "ApprovalCallerNotOwnerNorApproved",
      "type": "error"
    },
    {
      "inputs": [],
      "name": "ApprovalQueryForNonexistentToken",
      "type": "error"
    },
    {
      "inputs": [],
      "name": "ApproveToCaller",
      "type": "error"
    },
    {
      "inputs": [
        {
          "internalType": "string",
          "name": "array1Name",
          "type": "string"
        },
        {
          "internalType": "string",
          "name": "array2Name",
          "type": "string"
        }
      ],
      "name": "ArrayLengthMismatch",
      "type": "error"
    },
    {
      "inputs": [],
      "name": "BalanceQueryForZeroAddress",
      "type": "error"
    },
    {
      "inputs": [],
      "name": "ForbiddenTransferAfterMinting",
      "type": "error"
    },
    {
      "inputs": [],
      "name": "FunctionDisabled",
      "type": "error"
    },
    {
      "inputs": [],
      "name": "InvalidQueryRange",
      "type": "error"
    },
    {
      "inputs": [],
      "name": "MintERC2309QuantityExceedsLimit",
      "type": "error"
    },
    {
      "inputs": [],
      "name": "MintToZeroAddress",
      "type": "error"
    },
    {
      "inputs": [],
      "name": "MintZeroQuantity",
      "type": "error"
    },
    {
      "inputs": [],
      "name": "OwnerQueryForNonexistentToken",
      "type": "error"
    },
    {
      "inputs": [],
      "name": "OwnershipNotInitializedForExtraData",
      "type": "error"
    },
    {
      "inputs": [],
      "name": "TransferCallerNotOwnerNorApproved",
      "type": "error"
    },
    {
      "inputs": [],
      "name": "TransferFromIncorrectOwner",
      "type": "error"
    },
    {
      "inputs": [],
      "name": "TransferToNonERC721ReceiverImplementer",
      "type": "error"
    },
    {
      "inputs": [],
      "name": "TransferToZeroAddress",
      "type": "error"
    },
    {
      "inputs": [],
      "name": "URIQueryForNonexistentToken",
      "type": "error"
    },
    {
      "anonymous": false,
      "inputs": [
        {
          "indexed": true,
          "internalType": "address",
          "name": "owner",
          "type": "address"
        },
        {
          "indexed": true,
          "internalType": "address",
          "name": "approved",
          "type": "address"
        },
        {
          "indexed": true,
          "internalType": "uint256",
          "name": "tokenId",
          "type": "uint256"
        }
      ],
      "name": "Approval",
      "type": "event"
    },
    {
      "anonymous": false,
      "inputs": [
        {
          "indexed": true,
          "internalType": "address",
          "name": "owner",
          "type": "address"
        },
        {
          "indexed": true,
          "internalType": "address",
          "name": "operator",
          "type": "address"
        },
        {
          "indexed": false,
          "internalType": "bool",
          "name": "approved",
          "type": "bool"
        }
      ],
      "name": "ApprovalForAll",
      "type": "event"
    },
    {
      "anonymous": false,
      "inputs": [
        {
          "indexed": true,
          "internalType": "uint256",
          "name": "fromTokenId",
          "type": "uint256"
        },
        {
          "indexed": false,
          "internalType": "uint256",
          "name": "toTokenId",
          "type": "uint256"
        },
        {
          "indexed": true,
          "internalType": "address",
          "name": "from",
          "type": "address"
        },
        {
          "indexed": true,
          "internalType": "address",
          "name": "to",
          "type": "address"
        }
      ],
      "name": "ConsecutiveTransfer",
      "type": "event"
    },
    {
      "anonymous": false,
      "inputs": [
        {
          "indexed": false,
          "internalType": "uint8",
          "name": "version",
          "type": "uint8"
        }
      ],
      "name": "Initialized",
      "type": "event"
    },
    {
      "anonymous": false,
      "inputs": [
        {
          "indexed": false,
          "internalType": "address",
          "name": "account",
          "type": "address"
        }
      ],
      "name": "Paused",
      "type": "event"
    },
    {
      "anonymous": false,
      "inputs": [
        {
          "indexed": false,
          "internalType": "address",
          "name": "from",
          "type": "address"
        },
        {
          "indexed": true,
          "internalType": "address",
          "name": "recipient",
          "type": "address"
        },
        {
          "indexed": true,
          "internalType": "uint256",
          "name": "certificateId",
          "type": "uint256"
        },
        {
          "indexed": false,
          "internalType": "uint256[]",
          "name": "removalIds",
          "type": "uint256[]"
        },
        {
          "indexed": false,
          "internalType": "uint256[]",
          "name": "removalAmounts",
          "type": "uint256[]"
        }
      ],
      "name": "ReceiveRemovalBatch",
      "type": "event"
    },
    {
      "anonymous": false,
      "inputs": [
        {
          "indexed": true,
          "internalType": "bytes32",
          "name": "role",
          "type": "bytes32"
        },
        {
          "indexed": true,
          "internalType": "bytes32",
          "name": "previousAdminRole",
          "type": "bytes32"
        },
        {
          "indexed": true,
          "internalType": "bytes32",
          "name": "newAdminRole",
          "type": "bytes32"
        }
      ],
      "name": "RoleAdminChanged",
      "type": "event"
    },
    {
      "anonymous": false,
      "inputs": [
        {
          "indexed": true,
          "internalType": "bytes32",
          "name": "role",
          "type": "bytes32"
        },
        {
          "indexed": true,
          "internalType": "address",
          "name": "account",
          "type": "address"
        },
        {
          "indexed": true,
          "internalType": "address",
          "name": "sender",
          "type": "address"
        }
      ],
      "name": "RoleGranted",
      "type": "event"
    },
    {
      "anonymous": false,
      "inputs": [
        {
          "indexed": true,
          "internalType": "bytes32",
          "name": "role",
          "type": "bytes32"
        },
        {
          "indexed": true,
          "internalType": "address",
          "name": "account",
          "type": "address"
        },
        {
          "indexed": true,
          "internalType": "address",
          "name": "sender",
          "type": "address"
        }
      ],
      "name": "RoleRevoked",
      "type": "event"
    },
    {
      "anonymous": false,
      "inputs": [
        {
          "indexed": true,
          "internalType": "address",
          "name": "from",
          "type": "address"
        },
        {
          "indexed": true,
          "internalType": "address",
          "name": "to",
          "type": "address"
        },
        {
          "indexed": true,
          "internalType": "uint256",
          "name": "tokenId",
          "type": "uint256"
        }
      ],
      "name": "Transfer",
      "type": "event"
    },
    {
      "anonymous": false,
      "inputs": [
        {
          "indexed": false,
          "internalType": "address",
          "name": "account",
          "type": "address"
        }
      ],
      "name": "Unpaused",
      "type": "event"
    },
    {
      "inputs": [],
      "name": "CERTIFICATE_OPERATOR_ROLE",
      "outputs": [
        {
          "internalType": "bytes32",
          "name": "",
          "type": "bytes32"
        }
      ],
      "stateMutability": "view",
      "type": "function"
    },
    {
      "inputs": [],
      "name": "DEFAULT_ADMIN_ROLE",
      "outputs": [
        {
          "internalType": "bytes32",
          "name": "",
          "type": "bytes32"
        }
      ],
      "stateMutability": "view",
      "type": "function"
    },
    {
      "inputs": [],
      "name": "MINTER_ROLE",
      "outputs": [
        {
          "internalType": "bytes32",
          "name": "",
          "type": "bytes32"
        }
      ],
      "stateMutability": "view",
      "type": "function"
    },
    {
      "inputs": [],
      "name": "PAUSER_ROLE",
      "outputs": [
        {
          "internalType": "bytes32",
          "name": "",
          "type": "bytes32"
        }
      ],
      "stateMutability": "view",
      "type": "function"
    },
    {
      "inputs": [],
      "name": "RELEASER_ROLE",
      "outputs": [
        {
          "internalType": "bytes32",
          "name": "",
          "type": "bytes32"
        }
      ],
      "stateMutability": "view",
      "type": "function"
    },
    {
      "inputs": [
        {
          "internalType": "address",
          "name": "",
          "type": "address"
        },
        {
          "internalType": "uint256",
          "name": "",
          "type": "uint256"
        }
      ],
      "name": "approve",
      "outputs": [],
      "stateMutability": "pure",
      "type": "function"
    },
    {
      "inputs": [
        {
          "internalType": "address",
          "name": "owner",
          "type": "address"
        }
      ],
      "name": "balanceOf",
      "outputs": [
        {
          "internalType": "uint256",
          "name": "",
          "type": "uint256"
        }
      ],
      "stateMutability": "view",
      "type": "function"
    },
    {
      "inputs": [
        {
          "internalType": "uint256",
          "name": "certificateTokenId",
          "type": "uint256"
        }
      ],
      "name": "balanceOf",
      "outputs": [
        {
          "internalType": "uint256",
          "name": "",
          "type": "uint256"
        }
      ],
      "stateMutability": "view",
      "type": "function"
    },
    {
      "inputs": [
        {
          "internalType": "uint256",
          "name": "certificateTokenId",
          "type": "uint256"
        },
        {
          "internalType": "uint256",
          "name": "removalTokenId",
          "type": "uint256"
        }
      ],
      "name": "balanceOfRemoval",
      "outputs": [
        {
          "internalType": "uint256",
          "name": "",
          "type": "uint256"
        }
      ],
      "stateMutability": "view",
      "type": "function"
    },
    {
      "inputs": [
        {
          "internalType": "uint256",
          "name": "tokenId",
          "type": "uint256"
        }
      ],
      "name": "burn",
      "outputs": [],
      "stateMutability": "nonpayable",
      "type": "function"
    },
    {
      "inputs": [
        {
          "internalType": "RemovalId",
          "name": "removalId",
          "type": "uint256"
        }
      ],
      "name": "certificatesOfRemoval",
      "outputs": [
        {
          "internalType": "uint256[]",
          "name": "",
          "type": "uint256[]"
        }
      ],
      "stateMutability": "view",
      "type": "function"
    },
    {
      "inputs": [
        {
          "internalType": "uint256",
          "name": "tokenId",
          "type": "uint256"
        }
      ],
      "name": "explicitOwnershipOf",
      "outputs": [
        {
          "components": [
            {
              "internalType": "address",
              "name": "addr",
              "type": "address"
            },
            {
              "internalType": "uint64",
              "name": "startTimestamp",
              "type": "uint64"
            },
            {
              "internalType": "bool",
              "name": "burned",
              "type": "bool"
            },
            {
              "internalType": "uint24",
              "name": "extraData",
              "type": "uint24"
            }
          ],
          "internalType": "struct IERC721AUpgradeable.TokenOwnership",
          "name": "",
          "type": "tuple"
        }
      ],
      "stateMutability": "view",
      "type": "function"
    },
    {
      "inputs": [
        {
          "internalType": "uint256[]",
          "name": "tokenIds",
          "type": "uint256[]"
        }
      ],
      "name": "explicitOwnershipsOf",
      "outputs": [
        {
          "components": [
            {
              "internalType": "address",
              "name": "addr",
              "type": "address"
            },
            {
              "internalType": "uint64",
              "name": "startTimestamp",
              "type": "uint64"
            },
            {
              "internalType": "bool",
              "name": "burned",
              "type": "bool"
            },
            {
              "internalType": "uint24",
              "name": "extraData",
              "type": "uint24"
            }
          ],
          "internalType": "struct IERC721AUpgradeable.TokenOwnership[]",
          "name": "",
          "type": "tuple[]"
        }
      ],
      "stateMutability": "view",
      "type": "function"
    },
    {
      "inputs": [
        {
          "internalType": "uint256",
          "name": "tokenId",
          "type": "uint256"
        }
      ],
      "name": "getApproved",
      "outputs": [
        {
          "internalType": "address",
          "name": "",
          "type": "address"
        }
      ],
      "stateMutability": "view",
      "type": "function"
    },
    {
      "inputs": [
        {
          "internalType": "bytes32",
          "name": "role",
          "type": "bytes32"
        }
      ],
      "name": "getRoleAdmin",
      "outputs": [
        {
          "internalType": "bytes32",
          "name": "",
          "type": "bytes32"
        }
      ],
      "stateMutability": "view",
      "type": "function"
    },
    {
      "inputs": [
        {
          "internalType": "bytes32",
          "name": "role",
          "type": "bytes32"
        },
        {
          "internalType": "uint256",
          "name": "index",
          "type": "uint256"
        }
      ],
      "name": "getRoleMember",
      "outputs": [
        {
          "internalType": "address",
          "name": "",
          "type": "address"
        }
      ],
      "stateMutability": "view",
      "type": "function"
    },
    {
      "inputs": [
        {
          "internalType": "bytes32",
          "name": "role",
          "type": "bytes32"
        }
      ],
      "name": "getRoleMemberCount",
      "outputs": [
        {
          "internalType": "uint256",
          "name": "",
          "type": "uint256"
        }
      ],
      "stateMutability": "view",
      "type": "function"
    },
    {
      "inputs": [
        {
          "internalType": "bytes32",
          "name": "role",
          "type": "bytes32"
        },
        {
          "internalType": "address",
          "name": "account",
          "type": "address"
        }
      ],
      "name": "grantRole",
      "outputs": [],
      "stateMutability": "nonpayable",
      "type": "function"
    },
    {
      "inputs": [
        {
          "internalType": "bytes32",
          "name": "role",
          "type": "bytes32"
        },
        {
          "internalType": "address",
          "name": "account",
          "type": "address"
        }
      ],
      "name": "hasRole",
      "outputs": [
        {
          "internalType": "bool",
          "name": "",
          "type": "bool"
        }
      ],
      "stateMutability": "view",
      "type": "function"
    },
    {
      "inputs": [],
      "name": "initialize",
      "outputs": [],
      "stateMutability": "nonpayable",
      "type": "function"
    },
    {
      "inputs": [
        {
          "internalType": "address",
          "name": "owner",
          "type": "address"
        },
        {
          "internalType": "address",
          "name": "operator",
          "type": "address"
        }
      ],
      "name": "isApprovedForAll",
      "outputs": [
        {
          "internalType": "bool",
          "name": "",
          "type": "bool"
        }
      ],
      "stateMutability": "view",
      "type": "function"
    },
    {
      "inputs": [],
      "name": "name",
      "outputs": [
        {
          "internalType": "string",
          "name": "",
          "type": "string"
        }
      ],
      "stateMutability": "view",
      "type": "function"
    },
    {
      "inputs": [
        {
          "internalType": "address",
          "name": "",
          "type": "address"
        },
        {
          "internalType": "address",
          "name": "",
          "type": "address"
        },
        {
          "internalType": "uint256[]",
          "name": "removalIds",
          "type": "uint256[]"
        },
        {
          "internalType": "uint256[]",
          "name": "removalAmounts",
          "type": "uint256[]"
        },
        {
          "internalType": "bytes",
          "name": "data",
          "type": "bytes"
        }
      ],
      "name": "onERC1155BatchReceived",
      "outputs": [
        {
          "internalType": "bytes4",
          "name": "",
          "type": "bytes4"
        }
      ],
      "stateMutability": "nonpayable",
      "type": "function"
    },
    {
      "inputs": [
        {
          "internalType": "uint256",
          "name": "tokenId",
          "type": "uint256"
        }
      ],
      "name": "ownerOf",
      "outputs": [
        {
          "internalType": "address",
          "name": "",
          "type": "address"
        }
      ],
      "stateMutability": "view",
      "type": "function"
    },
    {
      "inputs": [],
      "name": "pause",
      "outputs": [],
      "stateMutability": "nonpayable",
      "type": "function"
    },
    {
      "inputs": [],
      "name": "paused",
      "outputs": [
        {
          "internalType": "bool",
          "name": "",
          "type": "bool"
        }
      ],
      "stateMutability": "view",
      "type": "function"
    },
    {
      "inputs": [
        {
          "internalType": "contract Removal",
          "name": "removal",
          "type": "address"
        }
      ],
      "name": "registerContractAddresses",
      "outputs": [],
      "stateMutability": "nonpayable",
      "type": "function"
    },
    {
      "inputs": [
        {
          "internalType": "uint256",
          "name": "certificateId",
          "type": "uint256"
        },
        {
          "internalType": "RemovalId",
          "name": "removalId",
          "type": "uint256"
        },
        {
          "internalType": "uint256",
          "name": "amount",
          "type": "uint256"
        }
      ],
      "name": "releaseRemoval",
      "outputs": [],
      "stateMutability": "nonpayable",
      "type": "function"
    },
    {
      "inputs": [
        {
          "internalType": "uint256",
          "name": "certificateId",
          "type": "uint256"
        }
      ],
      "name": "removalsOfCertificate",
      "outputs": [
        {
          "internalType": "uint256[]",
          "name": "",
          "type": "uint256[]"
        }
      ],
      "stateMutability": "view",
      "type": "function"
    },
    {
      "inputs": [
        {
          "internalType": "bytes32",
          "name": "role",
          "type": "bytes32"
        },
        {
          "internalType": "address",
          "name": "account",
          "type": "address"
        }
      ],
      "name": "renounceRole",
      "outputs": [],
      "stateMutability": "nonpayable",
      "type": "function"
    },
    {
      "inputs": [
        {
          "internalType": "bytes32",
          "name": "role",
          "type": "bytes32"
        },
        {
          "internalType": "address",
          "name": "account",
          "type": "address"
        }
      ],
      "name": "revokeRole",
      "outputs": [],
      "stateMutability": "nonpayable",
      "type": "function"
    },
    {
      "inputs": [
        {
          "internalType": "address",
          "name": "from",
          "type": "address"
        },
        {
          "internalType": "address",
          "name": "to",
          "type": "address"
        },
        {
          "internalType": "uint256",
          "name": "tokenId",
          "type": "uint256"
        }
      ],
      "name": "safeTransferFrom",
      "outputs": [],
      "stateMutability": "nonpayable",
      "type": "function"
    },
    {
      "inputs": [
        {
          "internalType": "address",
          "name": "from",
          "type": "address"
        },
        {
          "internalType": "address",
          "name": "to",
          "type": "address"
        },
        {
          "internalType": "uint256",
          "name": "tokenId",
          "type": "uint256"
        },
        {
          "internalType": "bytes",
          "name": "_data",
          "type": "bytes"
        }
      ],
      "name": "safeTransferFrom",
      "outputs": [],
      "stateMutability": "nonpayable",
      "type": "function"
    },
    {
      "inputs": [
        {
          "internalType": "address",
          "name": "",
          "type": "address"
        },
        {
          "internalType": "bool",
          "name": "",
          "type": "bool"
        }
      ],
      "name": "setApprovalForAll",
      "outputs": [],
      "stateMutability": "pure",
      "type": "function"
    },
    {
      "inputs": [
        {
          "internalType": "bytes4",
          "name": "interfaceId",
          "type": "bytes4"
        }
      ],
      "name": "supportsInterface",
      "outputs": [
        {
          "internalType": "bool",
          "name": "",
          "type": "bool"
        }
      ],
      "stateMutability": "view",
      "type": "function"
    },
    {
      "inputs": [],
      "name": "symbol",
      "outputs": [
        {
          "internalType": "string",
          "name": "",
          "type": "string"
        }
      ],
      "stateMutability": "view",
      "type": "function"
    },
    {
      "inputs": [
        {
          "internalType": "uint256",
          "name": "tokenId",
          "type": "uint256"
        }
      ],
      "name": "tokenURI",
      "outputs": [
        {
          "internalType": "string",
          "name": "",
          "type": "string"
        }
      ],
      "stateMutability": "view",
      "type": "function"
    },
    {
      "inputs": [
        {
          "internalType": "address",
          "name": "owner",
          "type": "address"
        }
      ],
      "name": "tokensOfOwner",
      "outputs": [
        {
          "internalType": "uint256[]",
          "name": "",
          "type": "uint256[]"
        }
      ],
      "stateMutability": "view",
      "type": "function"
    },
    {
      "inputs": [
        {
          "internalType": "address",
          "name": "owner",
          "type": "address"
        },
        {
          "internalType": "uint256",
          "name": "start",
          "type": "uint256"
        },
        {
          "internalType": "uint256",
          "name": "stop",
          "type": "uint256"
        }
      ],
      "name": "tokensOfOwnerIn",
      "outputs": [
        {
          "internalType": "uint256[]",
          "name": "",
          "type": "uint256[]"
        }
      ],
      "stateMutability": "view",
      "type": "function"
    },
    {
      "inputs": [],
      "name": "totalSupply",
      "outputs": [
        {
          "internalType": "uint256",
          "name": "",
          "type": "uint256"
        }
      ],
      "stateMutability": "view",
      "type": "function"
    },
    {
      "inputs": [
        {
          "internalType": "address",
          "name": "from",
          "type": "address"
        },
        {
          "internalType": "address",
          "name": "to",
          "type": "address"
        },
        {
          "internalType": "uint256",
          "name": "tokenId",
          "type": "uint256"
        }
      ],
      "name": "transferFrom",
      "outputs": [],
      "stateMutability": "nonpayable",
      "type": "function"
    },
    {
      "inputs": [],
      "name": "unpause",
      "outputs": [],
      "stateMutability": "nonpayable",
      "type": "function"
    }
  ],
  "bytecode": "0x60806040523480156200001157600080fd5b506200001c62000022565b620000e4565b600054610100900460ff16156200008f5760405162461bcd60e51b815260206004820152602760248201527f496e697469616c697a61626c653a20636f6e747261637420697320696e697469604482015266616c697a696e6760c81b606482015260840160405180910390fd5b60005460ff9081161015620000e2576000805460ff191660ff9081179091556040519081527f7f26b83ff96e1f2b6a682f133852f6798a09c465da95921460cefb38474024989060200160405180910390a15b565b6143a680620000f46000396000f3fe608060405234801561001057600080fd5b50600436106102de5760003560e01c80638e104d5711610186578063bc197c81116100e3578063d539139311610097578063e63ab1e911610071578063e63ab1e9146106f2578063e985e9c514610719578063fc6413731461078157600080fd5b8063d53913931461068d578063d547741f146106b4578063e508c52c146106c757600080fd5b8063c23dc68f116100c8578063c23dc68f14610647578063c87b56dd14610667578063ca15c8731461067a57600080fd5b8063bc197c81146105f0578063bfdecc671461063457600080fd5b80639cc7f7081161013a578063a22cb4651161011f578063a22cb465146105a8578063ac28af24146105b6578063b88d4fde146105dd57600080fd5b80639cc7f7081461058d578063a217fddf146105a057600080fd5b806391d148541161016b57806391d148541461052c57806395d89b411461057257806399a2557a1461057a57600080fd5b80638e104d57146105065780639010d07c1461051957600080fd5b80633f4ba83a1161023f5780636352211e116101f35780638129fc1c116101cd5780638129fc1c146104e35780638456cb59146104eb5780638462151c146104f357600080fd5b80636352211e1461049d57806370a08231146104b05780637371efc9146104c357600080fd5b806342966c681161022457806342966c681461045f5780635bbb2177146104725780635c975abb1461049257600080fd5b80633f4ba83a1461044457806342842e0e1461044c57600080fd5b806323b872dd1161029657806326c6da4f1161027b57806326c6da4f146103f75780632f2ff15d1461041e57806336568abe1461043157600080fd5b806323b872dd146103c1578063248a9ca3146103d457600080fd5b8063081812fc116102c7578063081812fc14610320578063095ea7b31461035857806318160ddd1461036d57600080fd5b806301ffc9a7146102e357806306fdde031461030b575b600080fd5b6102f66102f1366004613783565b610794565b60405190151581526020015b60405180910390f35b6103136107a5565b6040516103029190613816565b61033361032e366004613829565b610859565b60405173ffffffffffffffffffffffffffffffffffffffff9091168152602001610302565b61036b610366366004613864565b6108e2565b005b7f2569078dfb4b0305704d3008e7403993ae9601b85f7ae5e742de3de8f8011c41547f2569078dfb4b0305704d3008e7403993ae9601b85f7ae5e742de3de8f8011c4054035b604051908152602001610302565b61036b6103cf366004613890565b610914565b6103b36103e2366004613829565b60009081526097602052604090206001015490565b6103b37fb6eeb50d1ea0d876d560efb18b8017323347ce323ef4b05d5a0322c9c7869f8f81565b61036b61042c3660046138d1565b610cbe565b61036b61043f3660046138d1565b610ce8565b61036b610da0565b61036b61045a366004613890565b610dd5565b61036b61046d366004613829565b610df0565b610485610480366004613901565b610dfb565b6040516103029190613976565b60335460ff166102f6565b6103336104ab366004613829565b610ee5565b6103b36104be366004613a00565b610ef0565b6104d66104d1366004613829565b610f91565b6040516103029190613a58565b61036b610fab565b61036b6113f4565b6104d6610501366004613a00565b611426565b61036b610514366004613a6b565b61154e565b610333610527366004613a97565b6115ee565b6102f661053a3660046138d1565b600091825260976020908152604080842073ffffffffffffffffffffffffffffffffffffffff93909316845291905290205460ff1690565b61031361160d565b6104d6610588366004613ab9565b61163e565b6103b361059b366004613829565b611815565b6103b3600081565b61036b610366366004613aee565b6103b37f88f3509f0e42391f2d94ebfb2a37cbd0782b1b8f73715330017f4663290b811781565b61036b6105eb366004613c2d565b611925565b6106036105fe366004613d28565b61198f565b6040517fffffffff000000000000000000000000000000000000000000000000000000009091168152602001610302565b6104d6610642366004613829565b6119ce565b61065a610655366004613829565b611b31565b6040516103029190613dd6565b610313610675366004613829565b611bce565b6103b3610688366004613829565b611c9c565b6103b37f9f2df0fed2c77648de5860a4cc508cd0818c85b8b8a1ab4ceeef8d981c8956a681565b61036b6106c23660046138d1565b611cb3565b6103b36106d5366004613a97565b600091825260fb6020908152604080842092845291905290205490565b6103b37f65d7a28e3265b37a6474929f336521b332c1681b933f6cb9f3376673440d862a81565b6102f6610727366004613e28565b73ffffffffffffffffffffffffffffffffffffffff91821660009081527f2569078dfb4b0305704d3008e7403993ae9601b85f7ae5e742de3de8f8011c476020908152604080832093909416825291909152205460ff1690565b61036b61078f366004613a00565b611cd8565b600061079f82611d33565b92915050565b60607f2569078dfb4b0305704d3008e7403993ae9601b85f7ae5e742de3de8f8011c4060020180546107d690613e56565b80601f016020809104026020016040519081016040528092919081815260200182805461080290613e56565b801561084f5780601f106108245761010080835404028352916020019161084f565b820191906000526020600020905b81548152906001019060200180831161083257829003601f168201915b5050505050905090565b600061086482611d89565b61089a576040517fcf4700e400000000000000000000000000000000000000000000000000000000815260040160405180910390fd5b5060009081527f2569078dfb4b0305704d3008e7403993ae9601b85f7ae5e742de3de8f8011c46602052604090205473ffffffffffffffffffffffffffffffffffffffff1690565b6040517fbf24148800000000000000000000000000000000000000000000000000000000815260040160405180910390fd5b600061091f82611e08565b90508373ffffffffffffffffffffffffffffffffffffffff168173ffffffffffffffffffffffffffffffffffffffff1614610986576040517fa114810000000000000000000000000000000000000000000000000000000000815260040160405180910390fd5b60008281527f2569078dfb4b0305704d3008e7403993ae9601b85f7ae5e742de3de8f8011c466020526040902080546109de8187335b73ffffffffffffffffffffffffffffffffffffffff9081169116811491141790565b610a6b5773ffffffffffffffffffffffffffffffffffffffff861660009081527f2569078dfb4b0305704d3008e7403993ae9601b85f7ae5e742de3de8f8011c476020908152604080832033845290915290205460ff16610a6b576040517f59c896be00000000000000000000000000000000000000000000000000000000815260040160405180910390fd5b73ffffffffffffffffffffffffffffffffffffffff8516610ab8576040517fea553b3400000000000000000000000000000000000000000000000000000000815260040160405180910390fd5b610ac58686866001611f1c565b8015610ad057600082555b73ffffffffffffffffffffffffffffffffffffffff86811660009081527f2569078dfb4b0305704d3008e7403993ae9601b85f7ae5e742de3de8f8011c45602052604080822080547fffffffffffffffffffffffffffffffffffffffffffffffffffffffffffffffff019055918716808252919020805460010190554260a01b177c02000000000000000000000000000000000000000000000000000000001760008581527f2569078dfb4b0305704d3008e7403993ae9601b85f7ae5e742de3de8f8011c4460205260408120919091557c020000000000000000000000000000000000000000000000000000000084169003610c5a576001840160008181527f2569078dfb4b0305704d3008e7403993ae9601b85f7ae5e742de3de8f8011c4460205260408120549003610c58577f2569078dfb4b0305704d3008e7403993ae9601b85f7ae5e742de3de8f8011c40548114610c585760008181527f2569078dfb4b0305704d3008e7403993ae9601b85f7ae5e742de3de8f8011c44602052604090208490555b505b838573ffffffffffffffffffffffffffffffffffffffff168773ffffffffffffffffffffffffffffffffffffffff167fddf252ad1be2c89b69c2b068fc378daa952ba7f163c4a11628f55a4df523b3ef60405160405180910390a45b505050505050565b600082815260976020526040902060010154610cd981611fc5565b610ce38383611fcf565b505050565b73ffffffffffffffffffffffffffffffffffffffff81163314610d92576040517f08c379a000000000000000000000000000000000000000000000000000000000815260206004820152602f60248201527f416363657373436f6e74726f6c3a2063616e206f6e6c792072656e6f756e636560448201527f20726f6c657320666f722073656c66000000000000000000000000000000000060648201526084015b60405180910390fd5b610d9c8282611ff1565b5050565b7f65d7a28e3265b37a6474929f336521b332c1681b933f6cb9f3376673440d862a610dca81611fc5565b610dd2612013565b50565b610ce383838360405180602001604052806000815250611925565b610dd2816001612090565b60608160008167ffffffffffffffff811115610e1957610e19613b21565b604051908082528060200260200182016040528015610e8957816020015b6040805160808101825260008082526020808301829052928201819052606082015282527fffffffffffffffffffffffffffffffffffffffffffffffffffffffffffffffff909201910181610e375790505b50905060005b828114610edc57610eb7868683818110610eab57610eab613ea9565b90506020020135611b31565b828281518110610ec957610ec9613ea9565b6020908102919091010152600101610e8f565b50949350505050565b600061079f82611e08565b600073ffffffffffffffffffffffffffffffffffffffff8216610f3f576040517f8f4eb60400000000000000000000000000000000000000000000000000000000815260040160405180910390fd5b5073ffffffffffffffffffffffffffffffffffffffff1660009081527f2569078dfb4b0305704d3008e7403993ae9601b85f7ae5e742de3de8f8011c45602052604090205467ffffffffffffffff1690565b600081815260fc6020526040902060609061079f90612370565b7fee151c8401928dc223602bb187aff91b9a56c7cae5476ef1b3287b085a16c85f54610100900460ff16611004577fee151c8401928dc223602bb187aff91b9a56c7cae5476ef1b3287b085a16c85f5460ff1615611008565b303b155b611094576040517f08c379a000000000000000000000000000000000000000000000000000000000815260206004820152603760248201527f455243373231415f5f496e697469616c697a61626c653a20636f6e747261637460448201527f20697320616c726561647920696e697469616c697a65640000000000000000006064820152608401610d89565b7fee151c8401928dc223602bb187aff91b9a56c7cae5476ef1b3287b085a16c85f54610100900460ff16158015611111577fee151c8401928dc223602bb187aff91b9a56c7cae5476ef1b3287b085a16c85f80547fffffffffffffffffffffffffffffffffffffffffffffffffffffffffffff0000166101011790555b600054610100900460ff16158080156111315750600054600160ff909116105b8061114b5750303b15801561114b575060005460ff166001145b6111d7576040517f08c379a000000000000000000000000000000000000000000000000000000000815260206004820152602e60248201527f496e697469616c697a61626c653a20636f6e747261637420697320616c72656160448201527f647920696e697469616c697a65640000000000000000000000000000000000006064820152608401610d89565b600080547fffffffffffffffffffffffffffffffffffffffffffffffffffffffffffffff00166001179055801561123557600080547fffffffffffffffffffffffffffffffffffffffffffffffffffffffffffff00ff166101001790555b61123d61237d565b61124561237d565b6112b96040518060400160405280600b81526020017f43657274696669636174650000000000000000000000000000000000000000008152506040518060400160405280600381526020017f4e52540000000000000000000000000000000000000000000000000000000000815250612416565b6112c161254c565b6112c961254c565b6112d1612602565b6112d961237d565b6112e161237d565b6112ec600033611fcf565b6113167f9f2df0fed2c77648de5860a4cc508cd0818c85b8b8a1ab4ceeef8d981c8956a633611fcf565b6113407f65d7a28e3265b37a6474929f336521b332c1681b933f6cb9f3376673440d862a33611fcf565b80156113a357600080547fffffffffffffffffffffffffffffffffffffffffffffffffffffffffffff00ff169055604051600181527f7f26b83ff96e1f2b6a682f133852f6798a09c465da95921460cefb38474024989060200160405180910390a15b508015610dd257507fee151c8401928dc223602bb187aff91b9a56c7cae5476ef1b3287b085a16c85f80547fffffffffffffffffffffffffffffffffffffffffffffffffffffffffffff00ff169055565b7f65d7a28e3265b37a6474929f336521b332c1681b933f6cb9f3376673440d862a61141e81611fc5565b610dd26126c3565b6060600080600061143685610ef0565b905060008167ffffffffffffffff81111561145357611453613b21565b60405190808252806020026020018201604052801561147c578160200160208202803683370190505b5060408051608081018252600080825260208201819052918101829052606081018290529192505b838614611542576114b48161271e565b9150816040015161153a57815173ffffffffffffffffffffffffffffffffffffffff16156114e157815194505b8773ffffffffffffffffffffffffffffffffffffffff168573ffffffffffffffffffffffffffffffffffffffff160361153a578083878060010198508151811061152d5761152d613ea9565b6020026020010181815250505b6001016114a4565b50909695505050505050565b6115566127e7565b7f88f3509f0e42391f2d94ebfb2a37cbd0782b1b8f73715330017f4663290b811761158081611fc5565b600084815260fb60209081526040808320868452909152812080548492906115a9908490613f07565b9091555050600084815260fb6020908152604080832086845290915281205490036115e857600084815260fc602052604090206115e69084612854565b505b50505050565b600082815260c9602052604081206116069083612860565b9392505050565b60607f2569078dfb4b0305704d3008e7403993ae9601b85f7ae5e742de3de8f8011c4060030180546107d690613e56565b6060818310611679576040517f32c1995a00000000000000000000000000000000000000000000000000000000815260040160405180910390fd5b6000806116a47f2569078dfb4b0305704d3008e7403993ae9601b85f7ae5e742de3de8f8011c405490565b9050808411156116b2578093505b60006116bd87610ef0565b9050848610156116dc57858503818110156116d6578091505b506116e0565b5060005b60008167ffffffffffffffff8111156116fb576116fb613b21565b604051908082528060200260200182016040528015611724578160200160208202803683370190505b5090508160000361173a57935061160692505050565b600061174588611b31565b905060008160400151611756575080515b885b8881141580156117685750848714155b15611804576117768161271e565b925082604001516117fc57825173ffffffffffffffffffffffffffffffffffffffff16156117a357825191505b8a73ffffffffffffffffffffffffffffffffffffffff168273ffffffffffffffffffffffffffffffffffffffff16036117fc57808488806001019950815181106117ef576117ef613ea9565b6020026020010181815250505b600101611758565b505050928352509095945050505050565b6040517f7371efc90000000000000000000000000000000000000000000000000000000081526004810182905260009081903090637371efc990602401600060405180830381865afa15801561186f573d6000803e3d6000fd5b505050506040513d6000823e601f3d9081017fffffffffffffffffffffffffffffffffffffffffffffffffffffffffffffffe01682016040526118b59190810190613f1e565b600084815260fb6020526040812091925090815b835181101561191b578160008583815181106118e7576118e7613ea9565b6020026020010151815260200190815260200160002054836119099190613faf565b925061191481613fc7565b90506118c9565b5090949350505050565b611930848484610914565b73ffffffffffffffffffffffffffffffffffffffff83163b156115e8576119598484848461286c565b6115e8576040517fd1a57ed600000000000000000000000000000000000000000000000000000000815260040160405180910390fd5b60208101516000906119a28186866129e5565b507fbc197c81000000000000000000000000000000000000000000000000000000009695505050505050565b606060003073ffffffffffffffffffffffffffffffffffffffff166318160ddd6040518163ffffffff1660e01b8152600401602060405180830381865afa158015611a1d573d6000803e3d6000fd5b505050506040513d601f19601f82011682018060405250810190611a419190613fff565b90506000808267ffffffffffffffff811115611a5f57611a5f613b21565b604051908082528060200260200182016040528015611a88578160200160208202803683370190505b50905060005b83811015611b1d576000828281518110611aaa57611aaa613ea9565b60200260200101519050611ad98760fc6000848152602001908152602001600020612b4890919063ffffffff16565b15611b0a5780838381518110611af157611af1613ea9565b602090810291909101015283611b0681613fc7565b9450505b5080611b1581613fc7565b915050611a8e565b50611b288183612b60565b95945050505050565b604080516080808201835260008083526020808401829052838501829052606080850183905285519384018652828452908301829052938201819052928101839052909150611b9e7f2569078dfb4b0305704d3008e7403993ae9601b85f7ae5e742de3de8f8011c405490565b8310611baa5792915050565b611bb38361271e565b9050806040015115611bc55792915050565b61160683612bf9565b6060611bd982611d89565b611c0f576040517fa14c4b5000000000000000000000000000000000000000000000000000000000815260040160405180910390fd5b6000611c4b60408051808201909152601181527f68747470733a2f2f6e6f72692e636f6d2f000000000000000000000000000000602082015290565b90508051600003611c6b5760405180602001604052806000815250611606565b80611c7584612c97565b604051602001611c86929190614018565b6040516020818303038152906040529392505050565b600081815260c96020526040812061079f90612d04565b600082815260976020526040902060010154611cce81611fc5565b610ce38383611ff1565b611ce06127e7565b6000611ceb81611fc5565b5060fd80547fffffffffffffffffffffffff00000000000000000000000000000000000000001673ffffffffffffffffffffffffffffffffffffffff92909216919091179055565b60007fffffffff0000000000000000000000000000000000000000000000000000000082167f5a05180f00000000000000000000000000000000000000000000000000000000148061079f575061079f82612d0e565b60007f2569078dfb4b0305704d3008e7403993ae9601b85f7ae5e742de3de8f8011c40548210801561079f57505060009081527f2569078dfb4b0305704d3008e7403993ae9601b85f7ae5e742de3de8f8011c4460205260409020547c0100000000000000000000000000000000000000000000000000000000161590565b6000817f2569078dfb4b0305704d3008e7403993ae9601b85f7ae5e742de3de8f8011c4054811015611eea5760008181527f2569078dfb4b0305704d3008e7403993ae9601b85f7ae5e742de3de8f8011c446020526040812054907c010000000000000000000000000000000000000000000000000000000082169003611ee8575b8060000361160657507fffffffffffffffffffffffffffffffffffffffffffffffffffffffffffffffff0160008181527f2569078dfb4b0305704d3008e7403993ae9601b85f7ae5e742de3de8f8011c446020526040902054611e8a565b505b6040517fdf2d9b4200000000000000000000000000000000000000000000000000000000815260040160405180910390fd5b611f246127e7565b73ffffffffffffffffffffffffffffffffffffffff848116151590841615156000611f6f7fb6eeb50d1ea0d876d560efb18b8017323347ce323ef4b05d5a0322c9c7869f8f3361053a565b159050828015611f7c5750815b8015611f855750805b15611fbc576040517f175e5a9000000000000000000000000000000000000000000000000000000000815260040160405180910390fd5b50505050505050565b610dd28133612da5565b611fd98282612e77565b600082815260c960205260409020610ce39082612f6b565b611ffb8282612f8d565b600082815260c960205260409020610ce39082613048565b61201b61306a565b603380547fffffffffffffffffffffffffffffffffffffffffffffffffffffffffffffff001690557f5db9ee0a495bf2e6ff9c91a7834c1ba4fdd244a5e8aa4e537bd38aeae4b073aa335b60405173ffffffffffffffffffffffffffffffffffffffff909116815260200160405180910390a1565b600061209b83611e08565b9050806000806120d88660009081527f2569078dfb4b0305704d3008e7403993ae9601b85f7ae5e742de3de8f8011c466020526040902080549091565b91509150841561217a576120ed8184336109bc565b61217a5773ffffffffffffffffffffffffffffffffffffffff831660009081527f2569078dfb4b0305704d3008e7403993ae9601b85f7ae5e742de3de8f8011c476020908152604080832033845290915290205460ff1661217a576040517f59c896be00000000000000000000000000000000000000000000000000000000815260040160405180910390fd5b612188836000886001611f1c565b801561219357600082555b73ffffffffffffffffffffffffffffffffffffffff831660008181527f2569078dfb4b0305704d3008e7403993ae9601b85f7ae5e742de3de8f8011c456020526040902080546fffffffffffffffffffffffffffffffff0190554260a01b177c03000000000000000000000000000000000000000000000000000000001760008781527f2569078dfb4b0305704d3008e7403993ae9601b85f7ae5e742de3de8f8011c4460205260408120919091557c0200000000000000000000000000000000000000000000000000000000851690036122fb576001860160008181527f2569078dfb4b0305704d3008e7403993ae9601b85f7ae5e742de3de8f8011c44602052604081205490036122f9577f2569078dfb4b0305704d3008e7403993ae9601b85f7ae5e742de3de8f8011c405481146122f95760008181527f2569078dfb4b0305704d3008e7403993ae9601b85f7ae5e742de3de8f8011c44602052604090208590555b505b604051869060009073ffffffffffffffffffffffffffffffffffffffff8616907fddf252ad1be2c89b69c2b068fc378daa952ba7f163c4a11628f55a4df523b3ef908390a450507f2569078dfb4b0305704d3008e7403993ae9601b85f7ae5e742de3de8f8011c418054600101905550505050565b60606000611606836130d6565b600054610100900460ff16612414576040517f08c379a000000000000000000000000000000000000000000000000000000000815260206004820152602b60248201527f496e697469616c697a61626c653a20636f6e7472616374206973206e6f74206960448201527f6e697469616c697a696e670000000000000000000000000000000000000000006064820152608401610d89565b565b7fee151c8401928dc223602bb187aff91b9a56c7cae5476ef1b3287b085a16c85f54610100900460ff166124cc576040517f08c379a000000000000000000000000000000000000000000000000000000000815260206004820152603460248201527f455243373231415f5f496e697469616c697a61626c653a20636f6e747261637460448201527f206973206e6f7420696e697469616c697a696e670000000000000000000000006064820152608401610d89565b7f2569078dfb4b0305704d3008e7403993ae9601b85f7ae5e742de3de8f8011c426124f7838261408d565b507f2569078dfb4b0305704d3008e7403993ae9601b85f7ae5e742de3de8f8011c43612523828261408d565b5060007f2569078dfb4b0305704d3008e7403993ae9601b85f7ae5e742de3de8f8011c40555050565b7fee151c8401928dc223602bb187aff91b9a56c7cae5476ef1b3287b085a16c85f54610100900460ff16612414576040517f08c379a000000000000000000000000000000000000000000000000000000000815260206004820152603460248201527f455243373231415f5f496e697469616c697a61626c653a20636f6e747261637460448201527f206973206e6f7420696e697469616c697a696e670000000000000000000000006064820152608401610d89565b600054610100900460ff16612699576040517f08c379a000000000000000000000000000000000000000000000000000000000815260206004820152602b60248201527f496e697469616c697a61626c653a20636f6e7472616374206973206e6f74206960448201527f6e697469616c697a696e670000000000000000000000000000000000000000006064820152608401610d89565b603380547fffffffffffffffffffffffffffffffffffffffffffffffffffffffffffffff00169055565b6126cb6127e7565b603380547fffffffffffffffffffffffffffffffffffffffffffffffffffffffffffffff001660011790557f62e78cea01bee320cd4e420270b5ea74000d11b0c9f74754ebdbfc544b05a2586120663390565b60408051608081018252600080825260208201819052918101829052606081019190915261079f7f2569078dfb4b0305704d3008e7403993ae9601b85f7ae5e742de3de8f8011c40600084815260049190910160205260409020546040805160808101825273ffffffffffffffffffffffffffffffffffffffff8316815260a083901c67ffffffffffffffff1660208201527c0100000000000000000000000000000000000000000000000000000000831615159181019190915260e89190911c606082015290565b60335460ff1615612414576040517f08c379a000000000000000000000000000000000000000000000000000000000815260206004820152601060248201527f5061757361626c653a20706175736564000000000000000000000000000000006044820152606401610d89565b60006116068383613132565b60006116068383613225565b6040517f150b7a0200000000000000000000000000000000000000000000000000000000815260009073ffffffffffffffffffffffffffffffffffffffff85169063150b7a02906128c79033908990889088906004016141a7565b6020604051808303816000875af1925050508015612920575060408051601f3d9081017fffffffffffffffffffffffffffffffffffffffffffffffffffffffffffffffe016820190925261291d918101906141f0565b60015b612997573d80801561294e576040519150601f19603f3d011682016040523d82523d6000602084013e612953565b606091505b50805160000361298f576040517fd1a57ed600000000000000000000000000000000000000000000000000000000815260040160405180910390fd5b805181602001fd5b7fffffffff00000000000000000000000000000000000000000000000000000000167f150b7a0200000000000000000000000000000000000000000000000000000000149050949350505050565b6129ef828261324f565b6000612a197f2569078dfb4b0305704d3008e7403993ae9601b85f7ae5e742de3de8f8011c405490565b9050612a268460016132f0565b60005b8351811015612aee57828181518110612a4457612a44613ea9565b602002602001015160fb60008481526020019081526020016000206000868481518110612a7357612a73613ea9565b602002602001015181526020019081526020016000206000828254612a989190613faf565b92505081905550612add848281518110612ab457612ab4613ea9565b602002602001015160fc60008581526020019081526020016000206134b790919063ffffffff16565b50612ae781613fc7565b9050612a29565b508073ffffffffffffffffffffffffffffffffffffffff85167f71b93f608484eca5c0ce34cf649c43ec993a234dffbf78fd29d711fb47fd023c338686604051612b3a9392919061420d565b60405180910390a350505050565b60008181526001830160205260408120541515611606565b60608251821115612bf3576040517f08c379a000000000000000000000000000000000000000000000000000000000815260206004820152603060248201527f41727261793a206c656e67746820616674657220736872696e6b696e67206c6160448201527f72676572207468616e206265666f7265000000000000000000000000000000006064820152608401610d89565b50815290565b60408051608081018252600080825260208201819052918101829052606081019190915261079f612c2983611e08565b6040805160808101825273ffffffffffffffffffffffffffffffffffffffff8316815260a083901c67ffffffffffffffff1660208201527c0100000000000000000000000000000000000000000000000000000000831615159181019190915260e89190911c606082015290565b604080516080810191829052607f0190826030600a8206018353600a90045b8015612cd457600183039250600a81066030018353600a9004612cb6565b508190037fffffffffffffffffffffffffffffffffffffffffffffffffffffffffffffffe0909101908152919050565b600061079f825490565b60007fffffffff0000000000000000000000000000000000000000000000000000000082167f7965db0b00000000000000000000000000000000000000000000000000000000148061079f57507f01ffc9a7000000000000000000000000000000000000000000000000000000007fffffffff0000000000000000000000000000000000000000000000000000000083161461079f565b600082815260976020908152604080832073ffffffffffffffffffffffffffffffffffffffff8516845290915290205460ff16610d9c57612dfd8173ffffffffffffffffffffffffffffffffffffffff1660146134c3565b612e088360206134c3565b604051602001612e1992919061424e565b604080517fffffffffffffffffffffffffffffffffffffffffffffffffffffffffffffffe0818403018152908290527f08c379a0000000000000000000000000000000000000000000000000000000008252610d8991600401613816565b600082815260976020908152604080832073ffffffffffffffffffffffffffffffffffffffff8516845290915290205460ff16610d9c57600082815260976020908152604080832073ffffffffffffffffffffffffffffffffffffffff85168452909152902080547fffffffffffffffffffffffffffffffffffffffffffffffffffffffffffffff00166001179055612f0d3390565b73ffffffffffffffffffffffffffffffffffffffff168173ffffffffffffffffffffffffffffffffffffffff16837f2f8788117e7eff1d82e926ec794901d17c78024a50270940304540a733656f0d60405160405180910390a45050565b60006116068373ffffffffffffffffffffffffffffffffffffffff8416613706565b600082815260976020908152604080832073ffffffffffffffffffffffffffffffffffffffff8516845290915290205460ff1615610d9c57600082815260976020908152604080832073ffffffffffffffffffffffffffffffffffffffff8516808552925280832080547fffffffffffffffffffffffffffffffffffffffffffffffffffffffffffffff0016905551339285917ff6391f5c32d9c69d2a47ea670b442974b53935d1edc7fd64eb21e047a839171b9190a45050565b60006116068373ffffffffffffffffffffffffffffffffffffffff8416613132565b60335460ff16612414576040517f08c379a000000000000000000000000000000000000000000000000000000000815260206004820152601460248201527f5061757361626c653a206e6f74207061757365640000000000000000000000006044820152606401610d89565b60608160000180548060200260200160405190810160405280929190818152602001828054801561312657602002820191906000526020600020905b815481526020019060010190808311613112575b50505050509050919050565b6000818152600183016020526040812054801561321b576000613156600183613f07565b855490915060009061316a90600190613f07565b90508181146131cf57600086600001828154811061318a5761318a613ea9565b90600052602060002001549050808760000184815481106131ad576131ad613ea9565b6000918252602080832090910192909255918252600188019052604090208390555b85548690806131e0576131e06142cf565b60019003818190600052602060002001600090559055856001016000868152602001908152602001600020600090556001935050505061079f565b600091505061079f565b600082600001828154811061323c5761323c613ea9565b9060005260206000200154905092915050565b8051825114610d9c57604080517f616c41130000000000000000000000000000000000000000000000000000000081526004810191909152600a60448201527f72656d6f76616c49647300000000000000000000000000000000000000000000606482015260806024820152600e60848201527f72656d6f76616c416d6f756e747300000000000000000000000000000000000060a482015260c401610d89565b7f2569078dfb4b0305704d3008e7403993ae9601b85f7ae5e742de3de8f8011c4054600082900361334d576040517fb562e8dd00000000000000000000000000000000000000000000000000000000815260040160405180910390fd5b61335a6000848385611f1c565b73ffffffffffffffffffffffffffffffffffffffff831660008181527f2569078dfb4b0305704d3008e7403993ae9601b85f7ae5e742de3de8f8011c456020908152604080832080546801000000000000000188020190558483527f2569078dfb4b0305704d3008e7403993ae9601b85f7ae5e742de3de8f8011c4490915281206001851460e11b4260a01b178317905582840190839083907fddf252ad1be2c89b69c2b068fc378daa952ba7f163c4a11628f55a4df523b3ef8180a4600183015b81811461345457808360007fddf252ad1be2c89b69c2b068fc378daa952ba7f163c4a11628f55a4df523b3ef600080a460010161341c565b508160000361348f576040517f2e07630000000000000000000000000000000000000000000000000000000000815260040160405180910390fd5b7f2569078dfb4b0305704d3008e7403993ae9601b85f7ae5e742de3de8f8011c405550505050565b60006116068383613706565b606060006134d28360026142fe565b6134dd906002613faf565b67ffffffffffffffff8111156134f5576134f5613b21565b6040519080825280601f01601f19166020018201604052801561351f576020820181803683370190505b5090507f30000000000000000000000000000000000000000000000000000000000000008160008151811061355657613556613ea9565b60200101907effffffffffffffffffffffffffffffffffffffffffffffffffffffffffffff1916908160001a9053507f7800000000000000000000000000000000000000000000000000000000000000816001815181106135b9576135b9613ea9565b60200101907effffffffffffffffffffffffffffffffffffffffffffffffffffffffffffff1916908160001a90535060006135f58460026142fe565b613600906001613faf565b90505b600181111561369d577f303132333435363738396162636465660000000000000000000000000000000085600f166010811061364157613641613ea9565b1a60f81b82828151811061365757613657613ea9565b60200101907effffffffffffffffffffffffffffffffffffffffffffffffffffffffffffff1916908160001a90535060049490941c936136968161433b565b9050613603565b508315611606576040517f08c379a000000000000000000000000000000000000000000000000000000000815260206004820181905260248201527f537472696e67733a20686578206c656e67746820696e73756666696369656e746044820152606401610d89565b600081815260018301602052604081205461374d5750815460018181018455600084815260208082209093018490558454848252828601909352604090209190915561079f565b50600061079f565b7fffffffff0000000000000000000000000000000000000000000000000000000081168114610dd257600080fd5b60006020828403121561379557600080fd5b813561160681613755565b60005b838110156137bb5781810151838201526020016137a3565b838111156115e85750506000910152565b600081518084526137e48160208601602086016137a0565b601f017fffffffffffffffffffffffffffffffffffffffffffffffffffffffffffffffe0169290920160200192915050565b60208152600061160660208301846137cc565b60006020828403121561383b57600080fd5b5035919050565b73ffffffffffffffffffffffffffffffffffffffff81168114610dd257600080fd5b6000806040838503121561387757600080fd5b823561388281613842565b946020939093013593505050565b6000806000606084860312156138a557600080fd5b83356138b081613842565b925060208401356138c081613842565b929592945050506040919091013590565b600080604083850312156138e457600080fd5b8235915060208301356138f681613842565b809150509250929050565b6000806020838503121561391457600080fd5b823567ffffffffffffffff8082111561392c57600080fd5b818501915085601f83011261394057600080fd5b81358181111561394f57600080fd5b8660208260051b850101111561396457600080fd5b60209290920196919550909350505050565b6020808252825182820181905260009190848201906040850190845b81811015611542576139ed83855173ffffffffffffffffffffffffffffffffffffffff815116825267ffffffffffffffff602082015116602083015260408101511515604083015262ffffff60608201511660608301525050565b9284019260809290920191600101613992565b600060208284031215613a1257600080fd5b813561160681613842565b600081518084526020808501945080840160005b83811015613a4d57815187529582019590820190600101613a31565b509495945050505050565b6020815260006116066020830184613a1d565b600080600060608486031215613a8057600080fd5b505081359360208301359350604090920135919050565b60008060408385031215613aaa57600080fd5b50508035926020909101359150565b600080600060608486031215613ace57600080fd5b8335613ad981613842565b95602085013595506040909401359392505050565b60008060408385031215613b0157600080fd5b8235613b0c81613842565b9150602083013580151581146138f657600080fd5b7f4e487b7100000000000000000000000000000000000000000000000000000000600052604160045260246000fd5b604051601f82017fffffffffffffffffffffffffffffffffffffffffffffffffffffffffffffffe016810167ffffffffffffffff81118282101715613b9757613b97613b21565b604052919050565b600082601f830112613bb057600080fd5b813567ffffffffffffffff811115613bca57613bca613b21565b613bfb60207fffffffffffffffffffffffffffffffffffffffffffffffffffffffffffffffe0601f84011601613b50565b818152846020838601011115613c1057600080fd5b816020850160208301376000918101602001919091529392505050565b60008060008060808587031215613c4357600080fd5b8435613c4e81613842565b93506020850135613c5e81613842565b925060408501359150606085013567ffffffffffffffff811115613c8157600080fd5b613c8d87828801613b9f565b91505092959194509250565b600067ffffffffffffffff821115613cb357613cb3613b21565b5060051b60200190565b600082601f830112613cce57600080fd5b81356020613ce3613cde83613c99565b613b50565b82815260059290921b84018101918181019086841115613d0257600080fd5b8286015b84811015613d1d5780358352918301918301613d06565b509695505050505050565b600080600080600060a08688031215613d4057600080fd5b8535613d4b81613842565b94506020860135613d5b81613842565b9350604086013567ffffffffffffffff80821115613d7857600080fd5b613d8489838a01613cbd565b94506060880135915080821115613d9a57600080fd5b613da689838a01613cbd565b93506080880135915080821115613dbc57600080fd5b50613dc988828901613b9f565b9150509295509295909350565b815173ffffffffffffffffffffffffffffffffffffffff16815260208083015167ffffffffffffffff169082015260408083015115159082015260608083015162ffffff16908201526080810161079f565b60008060408385031215613e3b57600080fd5b8235613e4681613842565b915060208301356138f681613842565b600181811c90821680613e6a57607f821691505b602082108103613ea3577f4e487b7100000000000000000000000000000000000000000000000000000000600052602260045260246000fd5b50919050565b7f4e487b7100000000000000000000000000000000000000000000000000000000600052603260045260246000fd5b7f4e487b7100000000000000000000000000000000000000000000000000000000600052601160045260246000fd5b600082821015613f1957613f19613ed8565b500390565b60006020808385031215613f3157600080fd5b825167ffffffffffffffff811115613f4857600080fd5b8301601f81018513613f5957600080fd5b8051613f67613cde82613c99565b81815260059190911b82018301908381019087831115613f8657600080fd5b928401925b82841015613fa457835182529284019290840190613f8b565b979650505050505050565b60008219821115613fc257613fc2613ed8565b500190565b60007fffffffffffffffffffffffffffffffffffffffffffffffffffffffffffffffff8203613ff857613ff8613ed8565b5060010190565b60006020828403121561401157600080fd5b5051919050565b6000835161402a8184602088016137a0565b83519083019061403e8183602088016137a0565b01949350505050565b601f821115610ce357600081815260208120601f850160051c8101602086101561406e5750805b601f850160051c820191505b81811015610cb65782815560010161407a565b815167ffffffffffffffff8111156140a7576140a7613b21565b6140bb816140b58454613e56565b84614047565b602080601f83116001811461410e57600084156140d85750858301515b7fffffffffffffffffffffffffffffffffffffffffffffffffffffffffffffffff600386901b1c1916600185901b178555610cb6565b6000858152602081207fffffffffffffffffffffffffffffffffffffffffffffffffffffffffffffffe08616915b8281101561415b5788860151825594840194600190910190840161413c565b508582101561419757878501517fffffffffffffffffffffffffffffffffffffffffffffffffffffffffffffffff600388901b60f8161c191681555b5050505050600190811b01905550565b600073ffffffffffffffffffffffffffffffffffffffff8087168352808616602084015250836040830152608060608301526141e660808301846137cc565b9695505050505050565b60006020828403121561420257600080fd5b815161160681613755565b73ffffffffffffffffffffffffffffffffffffffff8416815260606020820152600061423c6060830185613a1d565b82810360408401526141e68185613a1d565b7f416363657373436f6e74726f6c3a206163636f756e74200000000000000000008152600083516142868160178501602088016137a0565b7f206973206d697373696e6720726f6c652000000000000000000000000000000060179184019182015283516142c38160288401602088016137a0565b01602801949350505050565b7f4e487b7100000000000000000000000000000000000000000000000000000000600052603160045260246000fd5b6000817fffffffffffffffffffffffffffffffffffffffffffffffffffffffffffffffff048311821515161561433657614336613ed8565b500290565b60008161434a5761434a613ed8565b507fffffffffffffffffffffffffffffffffffffffffffffffffffffffffffffffff019056fea264697066735822122009dd5d3ddf47b4543e02b2d7d9bffa1674357d767e4242a381d233de8971a83864736f6c634300080f0033",
  "linkReferences": {},
  "deployedLinkReferences": {}
}