{
  "_format": "hh-sol-artifact-1",
  "contractName": "Removal",
  "sourceName": "contracts/Removal.sol",
  "abi": [
    {
      "inputs": [
        {
          "internalType": "string",
          "name": "array1Name",
          "type": "string"
        },
        {
          "internalType": "string",
          "name": "array2Name",
          "type": "string"
        }
      ],
      "name": "ArrayLengthMismatch",
      "type": "error"
    },
    {
      "inputs": [
        {
          "internalType": "uint256",
          "name": "projectId",
          "type": "uint256"
        }
      ],
      "name": "InvalidProjectId",
      "type": "error"
    },
    {
      "inputs": [
        {
          "internalType": "uint256",
          "name": "startTime",
          "type": "uint256"
        }
      ],
      "name": "InvalidScheduleStartTime",
      "type": "error"
    },
    {
      "inputs": [
        {
          "internalType": "address",
          "name": "account",
          "type": "address"
        },
        {
          "internalType": "string",
          "name": "role",
          "type": "string"
        }
      ],
      "name": "MissingRole",
      "type": "error"
    },
    {
      "inputs": [
        {
          "internalType": "uint256",
          "name": "tokenId",
          "type": "uint256"
        }
      ],
      "name": "TokenIdExists",
      "type": "error"
    },
    {
      "anonymous": false,
      "inputs": [
        {
          "indexed": true,
          "internalType": "address",
          "name": "account",
          "type": "address"
        },
        {
          "indexed": true,
          "internalType": "address",
          "name": "operator",
          "type": "address"
        },
        {
          "indexed": false,
          "internalType": "bool",
          "name": "approved",
          "type": "bool"
        }
      ],
      "name": "ApprovalForAll",
      "type": "event"
    },
    {
      "anonymous": false,
      "inputs": [
        {
          "indexed": false,
          "internalType": "address",
          "name": "account",
          "type": "address"
        }
      ],
      "name": "Paused",
      "type": "event"
    },
    {
      "anonymous": false,
      "inputs": [
        {
          "indexed": true,
          "internalType": "bytes32",
          "name": "role",
          "type": "bytes32"
        },
        {
          "indexed": true,
          "internalType": "bytes32",
          "name": "previousAdminRole",
          "type": "bytes32"
        },
        {
          "indexed": true,
          "internalType": "bytes32",
          "name": "newAdminRole",
          "type": "bytes32"
        }
      ],
      "name": "RoleAdminChanged",
      "type": "event"
    },
    {
      "anonymous": false,
      "inputs": [
        {
          "indexed": true,
          "internalType": "bytes32",
          "name": "role",
          "type": "bytes32"
        },
        {
          "indexed": true,
          "internalType": "address",
          "name": "account",
          "type": "address"
        },
        {
          "indexed": true,
          "internalType": "address",
          "name": "sender",
          "type": "address"
        }
      ],
      "name": "RoleGranted",
      "type": "event"
    },
    {
      "anonymous": false,
      "inputs": [
        {
          "indexed": true,
          "internalType": "bytes32",
          "name": "role",
          "type": "bytes32"
        },
        {
          "indexed": true,
          "internalType": "address",
          "name": "account",
          "type": "address"
        },
        {
          "indexed": true,
          "internalType": "address",
          "name": "sender",
          "type": "address"
        }
      ],
      "name": "RoleRevoked",
      "type": "event"
    },
    {
      "anonymous": false,
      "inputs": [
        {
          "indexed": true,
          "internalType": "address",
          "name": "operator",
          "type": "address"
        },
        {
          "indexed": true,
          "internalType": "address",
          "name": "from",
          "type": "address"
        },
        {
          "indexed": true,
          "internalType": "address",
          "name": "to",
          "type": "address"
        },
        {
          "indexed": false,
          "internalType": "uint256[]",
          "name": "ids",
          "type": "uint256[]"
        },
        {
          "indexed": false,
          "internalType": "uint256[]",
          "name": "values",
          "type": "uint256[]"
        }
      ],
      "name": "TransferBatch",
      "type": "event"
    },
    {
      "anonymous": false,
      "inputs": [
        {
          "indexed": true,
          "internalType": "address",
          "name": "operator",
          "type": "address"
        },
        {
          "indexed": true,
          "internalType": "address",
          "name": "from",
          "type": "address"
        },
        {
          "indexed": true,
          "internalType": "address",
          "name": "to",
          "type": "address"
        },
        {
          "indexed": false,
          "internalType": "uint256",
          "name": "id",
          "type": "uint256"
        },
        {
          "indexed": false,
          "internalType": "uint256",
          "name": "value",
          "type": "uint256"
        }
      ],
      "name": "TransferSingle",
      "type": "event"
    },
    {
      "anonymous": false,
      "inputs": [
        {
          "indexed": false,
          "internalType": "string",
          "name": "value",
          "type": "string"
        },
        {
          "indexed": true,
          "internalType": "uint256",
          "name": "id",
          "type": "uint256"
        }
      ],
      "name": "URI",
      "type": "event"
    },
    {
      "anonymous": false,
      "inputs": [
        {
          "indexed": false,
          "internalType": "address",
          "name": "account",
          "type": "address"
        }
      ],
      "name": "Unpaused",
      "type": "event"
    },
    {
      "inputs": [],
      "name": "DEFAULT_ADMIN_ROLE",
      "outputs": [
        {
          "internalType": "bytes32",
          "name": "",
          "type": "bytes32"
        }
      ],
      "stateMutability": "view",
      "type": "function"
    },
    {
      "inputs": [],
      "name": "MINTER_ROLE",
      "outputs": [
        {
          "internalType": "bytes32",
          "name": "",
          "type": "bytes32"
        }
      ],
      "stateMutability": "view",
      "type": "function"
    },
    {
      "inputs": [],
      "name": "PAUSER_ROLE",
      "outputs": [
        {
          "internalType": "bytes32",
          "name": "",
          "type": "bytes32"
        }
      ],
      "stateMutability": "view",
      "type": "function"
    },
    {
      "inputs": [
        {
          "internalType": "address",
          "name": "account",
          "type": "address"
        },
        {
          "internalType": "uint256",
          "name": "id",
          "type": "uint256"
        }
      ],
      "name": "balanceOf",
      "outputs": [
        {
          "internalType": "uint256",
          "name": "",
          "type": "uint256"
        }
      ],
      "stateMutability": "view",
      "type": "function"
    },
    {
      "inputs": [
        {
          "internalType": "address[]",
          "name": "accounts",
          "type": "address[]"
        },
        {
          "internalType": "uint256[]",
          "name": "ids",
          "type": "uint256[]"
        }
      ],
      "name": "balanceOfBatch",
      "outputs": [
        {
          "internalType": "uint256[]",
          "name": "",
          "type": "uint256[]"
        }
      ],
      "stateMutability": "view",
      "type": "function"
    },
    {
      "inputs": [
        {
          "internalType": "address",
          "name": "account",
          "type": "address"
        },
        {
          "internalType": "uint256[]",
          "name": "ids",
          "type": "uint256[]"
        }
      ],
      "name": "balanceOfIds",
      "outputs": [
        {
          "internalType": "uint256[]",
          "name": "",
          "type": "uint256[]"
        }
      ],
      "stateMutability": "view",
      "type": "function"
    },
    {
      "inputs": [
        {
          "internalType": "address",
          "name": "account",
          "type": "address"
        },
        {
          "internalType": "uint256",
          "name": "id",
          "type": "uint256"
        },
        {
          "internalType": "uint256",
          "name": "value",
          "type": "uint256"
        }
      ],
      "name": "burn",
      "outputs": [],
      "stateMutability": "nonpayable",
      "type": "function"
    },
    {
      "inputs": [
        {
          "internalType": "address",
          "name": "account",
          "type": "address"
        },
        {
          "internalType": "uint256[]",
          "name": "ids",
          "type": "uint256[]"
        },
        {
          "internalType": "uint256[]",
          "name": "values",
          "type": "uint256[]"
        }
      ],
      "name": "burnBatch",
      "outputs": [],
      "stateMutability": "nonpayable",
      "type": "function"
    },
    {
      "inputs": [
        {
          "internalType": "bytes",
          "name": "removalData",
          "type": "bytes"
        }
      ],
      "name": "createRemovalId",
      "outputs": [
        {
          "internalType": "uint256",
          "name": "",
          "type": "uint256"
        }
      ],
      "stateMutability": "pure",
      "type": "function"
    },
    {
      "inputs": [
        {
          "internalType": "uint256",
          "name": "id",
          "type": "uint256"
        }
      ],
      "name": "exists",
      "outputs": [
        {
          "internalType": "bool",
          "name": "",
          "type": "bool"
        }
      ],
      "stateMutability": "view",
      "type": "function"
    },
    {
      "inputs": [
        {
          "internalType": "uint256",
          "name": "removalId",
          "type": "uint256"
        }
      ],
      "name": "getProjectIdForRemoval",
      "outputs": [
        {
          "internalType": "uint256",
          "name": "",
          "type": "uint256"
        }
      ],
      "stateMutability": "view",
      "type": "function"
    },
    {
      "inputs": [
        {
          "internalType": "bytes32",
          "name": "role",
          "type": "bytes32"
        }
      ],
      "name": "getRoleAdmin",
      "outputs": [
        {
          "internalType": "bytes32",
          "name": "",
          "type": "bytes32"
        }
      ],
      "stateMutability": "view",
      "type": "function"
    },
    {
      "inputs": [
        {
          "internalType": "bytes32",
          "name": "role",
          "type": "bytes32"
        },
        {
          "internalType": "uint256",
          "name": "index",
          "type": "uint256"
        }
      ],
      "name": "getRoleMember",
      "outputs": [
        {
          "internalType": "address",
          "name": "",
          "type": "address"
        }
      ],
      "stateMutability": "view",
      "type": "function"
    },
    {
      "inputs": [
        {
          "internalType": "bytes32",
          "name": "role",
          "type": "bytes32"
        }
      ],
      "name": "getRoleMemberCount",
      "outputs": [
        {
          "internalType": "uint256",
          "name": "",
          "type": "uint256"
        }
      ],
      "stateMutability": "view",
      "type": "function"
    },
    {
      "inputs": [
        {
          "internalType": "uint256",
          "name": "projectId",
          "type": "uint256"
        }
      ],
      "name": "getScheduleDataForProjectId",
      "outputs": [
        {
          "components": [
            {
              "internalType": "uint256",
              "name": "startTime",
              "type": "uint256"
            },
            {
              "internalType": "address",
              "name": "supplierAddress",
              "type": "address"
            },
            {
              "internalType": "uint256",
              "name": "methodology",
              "type": "uint256"
            },
            {
              "internalType": "uint256",
              "name": "methodologyVersion",
              "type": "uint256"
            }
          ],
          "internalType": "struct Removal.ScheduleData",
          "name": "",
          "type": "tuple"
        }
      ],
      "stateMutability": "view",
      "type": "function"
    },
    {
      "inputs": [
        {
          "internalType": "uint256",
          "name": "removalId",
          "type": "uint256"
        }
      ],
      "name": "getScheduleDataForRemovalId",
      "outputs": [
        {
          "components": [
            {
              "internalType": "uint256",
              "name": "startTime",
              "type": "uint256"
            },
            {
              "internalType": "address",
              "name": "supplierAddress",
              "type": "address"
            },
            {
              "internalType": "uint256",
              "name": "methodology",
              "type": "uint256"
            },
            {
              "internalType": "uint256",
              "name": "methodologyVersion",
              "type": "uint256"
            }
          ],
          "internalType": "struct Removal.ScheduleData",
          "name": "",
          "type": "tuple"
        }
      ],
      "stateMutability": "view",
      "type": "function"
    },
    {
      "inputs": [
        {
          "internalType": "bytes32",
          "name": "role",
          "type": "bytes32"
        },
        {
          "internalType": "address",
          "name": "account",
          "type": "address"
        }
      ],
      "name": "grantRole",
      "outputs": [],
      "stateMutability": "nonpayable",
      "type": "function"
    },
    {
      "inputs": [
        {
          "internalType": "bytes32",
          "name": "role",
          "type": "bytes32"
        },
        {
          "internalType": "address",
          "name": "account",
          "type": "address"
        }
      ],
      "name": "hasRole",
      "outputs": [
        {
          "internalType": "bool",
          "name": "",
          "type": "bool"
        }
      ],
      "stateMutability": "view",
      "type": "function"
    },
    {
      "inputs": [
        {
          "internalType": "uint256",
          "name": "",
          "type": "uint256"
        }
      ],
      "name": "indexToTokenId",
      "outputs": [
        {
          "internalType": "uint256",
          "name": "",
          "type": "uint256"
        }
      ],
      "stateMutability": "view",
      "type": "function"
    },
    {
      "inputs": [],
      "name": "initialize",
      "outputs": [],
      "stateMutability": "nonpayable",
      "type": "function"
    },
    {
      "inputs": [
        {
          "internalType": "string",
          "name": "uri",
          "type": "string"
        }
      ],
      "name": "initialize",
      "outputs": [],
      "stateMutability": "nonpayable",
      "type": "function"
    },
    {
      "inputs": [
        {
          "internalType": "address",
          "name": "account",
          "type": "address"
        },
        {
          "internalType": "address",
          "name": "operator",
          "type": "address"
        }
      ],
      "name": "isApprovedForAll",
      "outputs": [
        {
          "internalType": "bool",
          "name": "",
          "type": "bool"
        }
      ],
      "stateMutability": "view",
      "type": "function"
    },
    {
      "inputs": [
        {
          "internalType": "address",
          "name": "",
          "type": "address"
        },
        {
          "internalType": "uint256",
          "name": "",
          "type": "uint256"
        },
        {
          "internalType": "uint256",
          "name": "",
          "type": "uint256"
        },
        {
          "internalType": "bytes",
          "name": "",
          "type": "bytes"
        }
      ],
      "name": "mint",
      "outputs": [],
      "stateMutability": "pure",
      "type": "function"
    },
    {
      "inputs": [
        {
          "internalType": "address",
          "name": "to",
          "type": "address"
        },
        {
          "internalType": "uint256[]",
          "name": "amounts",
          "type": "uint256[]"
        },
        {
          "internalType": "uint256[]",
          "name": "ids",
          "type": "uint256[]"
        },
        {
          "internalType": "bytes",
          "name": "data",
          "type": "bytes"
        }
      ],
      "name": "mintBatch",
      "outputs": [],
      "stateMutability": "nonpayable",
      "type": "function"
    },
    {
      "inputs": [],
      "name": "name",
      "outputs": [
        {
          "internalType": "string",
          "name": "",
          "type": "string"
        }
      ],
      "stateMutability": "view",
      "type": "function"
    },
    {
      "inputs": [],
      "name": "pause",
      "outputs": [],
      "stateMutability": "nonpayable",
      "type": "function"
    },
    {
      "inputs": [],
      "name": "paused",
      "outputs": [
        {
          "internalType": "bool",
          "name": "",
          "type": "bool"
        }
      ],
      "stateMutability": "view",
      "type": "function"
    },
    {
      "inputs": [
        {
          "internalType": "address",
          "name": "restrictedNORIAddress",
          "type": "address"
        }
      ],
      "name": "registerRestrictedNORIAddress",
      "outputs": [],
      "stateMutability": "nonpayable",
      "type": "function"
    },
    {
      "inputs": [
        {
          "internalType": "bytes32",
          "name": "role",
          "type": "bytes32"
        },
        {
          "internalType": "address",
          "name": "account",
          "type": "address"
        }
      ],
      "name": "renounceRole",
      "outputs": [],
      "stateMutability": "nonpayable",
      "type": "function"
    },
    {
      "inputs": [
        {
          "internalType": "bytes32",
          "name": "role",
          "type": "bytes32"
        },
        {
          "internalType": "address",
          "name": "account",
          "type": "address"
        }
      ],
      "name": "revokeRole",
      "outputs": [],
      "stateMutability": "nonpayable",
      "type": "function"
    },
    {
      "inputs": [
        {
          "internalType": "address",
          "name": "from",
          "type": "address"
        },
        {
          "internalType": "address",
          "name": "to",
          "type": "address"
        },
        {
          "internalType": "uint256[]",
          "name": "ids",
          "type": "uint256[]"
        },
        {
          "internalType": "uint256[]",
          "name": "amounts",
          "type": "uint256[]"
        },
        {
          "internalType": "bytes",
          "name": "data",
          "type": "bytes"
        }
      ],
      "name": "safeBatchTransferFrom",
      "outputs": [],
      "stateMutability": "nonpayable",
      "type": "function"
    },
    {
      "inputs": [
        {
          "internalType": "address",
          "name": "from",
          "type": "address"
        },
        {
          "internalType": "address",
          "name": "to",
          "type": "address"
        },
        {
          "internalType": "uint256",
          "name": "id",
          "type": "uint256"
        },
        {
          "internalType": "uint256",
          "name": "amount",
          "type": "uint256"
        },
        {
          "internalType": "bytes",
          "name": "data",
          "type": "bytes"
        }
      ],
      "name": "safeTransferFrom",
      "outputs": [],
      "stateMutability": "nonpayable",
      "type": "function"
    },
    {
      "inputs": [
        {
          "internalType": "address",
          "name": "owner",
          "type": "address"
        },
        {
          "internalType": "address",
          "name": "operator",
          "type": "address"
        },
        {
          "internalType": "bool",
          "name": "approved",
          "type": "bool"
        }
      ],
      "name": "setApprovalForAll",
      "outputs": [],
      "stateMutability": "nonpayable",
      "type": "function"
    },
    {
      "inputs": [
        {
          "internalType": "address",
          "name": "operator",
          "type": "address"
        },
        {
          "internalType": "bool",
          "name": "approved",
          "type": "bool"
        }
      ],
      "name": "setApprovalForAll",
      "outputs": [],
      "stateMutability": "nonpayable",
      "type": "function"
    },
    {
      "inputs": [
        {
          "internalType": "bytes4",
          "name": "interfaceId",
          "type": "bytes4"
        }
      ],
      "name": "supportsInterface",
      "outputs": [
        {
          "internalType": "bool",
          "name": "",
          "type": "bool"
        }
      ],
      "stateMutability": "view",
      "type": "function"
    },
    {
      "inputs": [],
      "name": "tokenIdCounter",
      "outputs": [
        {
          "internalType": "uint256",
          "name": "",
          "type": "uint256"
        }
      ],
      "stateMutability": "view",
      "type": "function"
    },
    {
      "inputs": [
        {
          "internalType": "uint256",
          "name": "id",
          "type": "uint256"
        }
      ],
      "name": "totalSupply",
      "outputs": [
        {
          "internalType": "uint256",
          "name": "",
          "type": "uint256"
        }
      ],
      "stateMutability": "view",
      "type": "function"
    },
    {
      "inputs": [
        {
          "internalType": "uint256",
          "name": "removalId",
          "type": "uint256"
        }
      ],
      "name": "unpackRemovalIdV0",
      "outputs": [
        {
          "components": [
            {
              "internalType": "uint8",
              "name": "idVersion",
              "type": "uint8"
            },
            {
              "internalType": "uint8",
              "name": "methodology",
              "type": "uint8"
            },
            {
              "internalType": "uint8",
              "name": "methodologyVersion",
              "type": "uint8"
            },
            {
              "internalType": "uint16",
              "name": "vintage",
              "type": "uint16"
            },
            {
              "internalType": "bytes2",
              "name": "country",
              "type": "bytes2"
            },
            {
              "internalType": "bytes2",
              "name": "subdivision",
              "type": "bytes2"
            },
            {
              "internalType": "address",
              "name": "supplierAddress",
              "type": "address"
            },
            {
              "internalType": "uint32",
              "name": "subIdentifier",
              "type": "uint32"
            }
          ],
          "internalType": "struct UnpackedRemovalIdV0",
          "name": "",
          "type": "tuple"
        }
      ],
      "stateMutability": "pure",
      "type": "function"
    },
    {
      "inputs": [],
      "name": "unpause",
      "outputs": [],
      "stateMutability": "nonpayable",
      "type": "function"
    },
    {
      "inputs": [
        {
          "internalType": "uint256",
          "name": "",
          "type": "uint256"
        }
      ],
      "name": "uri",
      "outputs": [
        {
          "internalType": "string",
          "name": "",
          "type": "string"
        }
      ],
      "stateMutability": "view",
      "type": "function"
    }
  ],
  "bytecode": "0x608060405234801561001057600080fd5b50613f7e806100206000396000f3fe608060405234801561001057600080fd5b50600436106102475760003560e01c80637aef11641161013b578063ca15c873116100b8578063e63ab1e91161007c578063e63ab1e91461059c578063e985e9c5146105b1578063f242432a146105ed578063f5298aca14610600578063f62d18881461061357600080fd5b8063ca15c8731461050e578063d539139314610521578063d547741f14610548578063d85a53e91461055b578063e0fc29381461057b57600080fd5b806398bdf6f5116100ff57806398bdf6f5146104b557806399d5121b146104bf578063a217fddf146104d2578063a22cb465146104da578063bd85b039146104ed57600080fd5b80637aef1164146104465780638129fc1c146104675780638456cb591461046f5780639010d07c1461047757806391d14854146104a257600080fd5b806336568abe116101c95780634f558e791161018d5780634f558e79146103de5780635c975abb146104015780635f830d771461040d5780636b20c45414610420578063731133e91461043357600080fd5b806336568abe1461038a578063367605ca1461039d5780633f4ba83a146103b057806348ec4c3b146103b85780634e1273f4146103cb57600080fd5b80631990ad05116102105780631990ad05146102dd5780631f7fdffa1461032c578063248a9ca3146103415780632eb2c2d6146103645780632f2ff15d1461037757600080fd5b8062fdd58e1461024c578063018e1c831461027257806301ffc9a71461029257806306fdde03146102b55780630e89341c146102ca575b600080fd5b61025f61025a366004612dfb565b610626565b6040519081526020015b60405180910390f35b610285610280366004612efd565b6106c2565b6040516102699190612f87565b6102a56102a0366004612fb0565b61076f565b6040519015158152602001610269565b6102bd61077a565b6040516102699190613025565b6102bd6102d8366004613038565b610809565b6102f06102eb366004613038565b61089d565b6040516102699190815181526020808301516001600160a01b031690820152604080830151908201526060918201519181019190915260800190565b61033f61033a3660046130ce565b61092b565b005b61025f61034f366004613038565b60009081526065602052604090206001015490565b61033f610372366004613168565b610bc8565b61033f610385366004613215565b610c31565b61033f610398366004613215565b610c5c565b61033f6103ab366004613253565b610cda565b61033f610d3e565b61025f6103c63660046132e6565b610dd2565b6102856103d9366004613327565b610de5565b6102a56103ec366004613038565b60009081526101c36020526040902054151590565b61012d5460ff166102a5565b61033f61041b3660046133e9565b610ef9565b61033f61042e366004613406565b610f29565b61033f61044136600461347b565b610f6c565b61025f610454366004613038565b6101f86020526000908152604090205481565b61033f610fb4565b61033f611085565b61048a6104853660046134e4565b611117565b6040516001600160a01b039091168152602001610269565b6102a56104b0366004613215565b61112f565b61025f6101f65481565b6102f06104cd366004613038565b61115a565b61025f600081565b61033f6104e8366004613506565b6111dd565b61025f6104fb366004613038565b60009081526101c3602052604090205490565b61025f61051c366004613038565b6111e8565b61025f7f9f2df0fed2c77648de5860a4cc508cd0818c85b8b8a1ab4ceeef8d981c8956a681565b61033f610556366004613215565b6111ff565b61056e610569366004613038565b611225565b6040516102699190613534565b61025f610589366004613038565b60009081526101fa602052604090205490565b61025f600080516020613f0383398151915281565b6102a56105bf3660046135cb565b6001600160a01b03918216600090815260ca6020908152604080832093909416825291909152205460ff1690565b61033f6105fb3660046135f9565b611236565b61033f61060e366004613661565b611282565b61033f610621366004613696565b6112c5565b60006001600160a01b0383166106975760405162461bcd60e51b815260206004820152602b60248201527f455243313135353a2062616c616e636520717565727920666f7220746865207a60448201526a65726f206164647265737360a81b60648201526084015b60405180910390fd5b50600081815260c9602090815260408083206001600160a01b03861684529091529020545b92915050565b6060600082516001600160401b038111156106df576106df612e27565b604051908082528060200260200182016040528015610708578160200160208202803683370190505b50905060005b83518110156107675761073a8585838151811061072d5761072d6136e6565b6020026020010151610626565b82828151811061074c5761074c6136e6565b602090810291909101015261076081613712565b905061070e565b509392505050565b60006106bc82611340565b6101f780546107889061372b565b80601f01602080910402602001604051908101604052809291908181526020018280546107b49061372b565b80156108015780601f106107d657610100808354040283529160200191610801565b820191906000526020600020905b8154815290600101906020018083116107e457829003601f168201915b505050505081565b606060cb80546108189061372b565b80601f01602080910402602001604051908101604052809291908181526020018280546108449061372b565b80156108915780601f1061086657610100808354040283529160200191610891565b820191906000526020600020905b81548152906001019060200180831161087457829003601f168201915b50505050509050919050565b6108d160405180608001604052806000815260200160006001600160a01b0316815260200160008152602001600081525090565b5060009081526101fa602090815260408083205483526101fb82529182902082516080810184528154815260018201546001600160a01b031692810192909252600281015492820192909252600390910154606082015290565b815183518114610984576040805163616c411360e01b815260048101919091526007604482015266616d6f756e747360c81b606482015260806024820152600360848201526269647360e81b60a482015260c40161068e565b60008280602001905181019061099a9190613765565b8051602082015160608301516040840151939450919290919060008490036109d857604051633223e66d60e21b81526004810185905260240161068e565b634b3d3b008310806109ed575063967a760083115b15610a0e5760405163a2037ed360e01b81526004810184905260240161068e565b6101f65460005b87811015610acf5760008a8281518110610a3157610a316136e6565b60209081029190910181015160008181526101f990925260409091205490915060ff1615610a7557604051634acb9c2960e01b81526004810182905260240161068e565b60008181526101fa602090815260408083208a90556101f98252808320805460ff191660019081179091558684526101f8909252909120829055610ab990846137d9565b9250508080610ac790613712565b915050610a15565b50600089600081518110610ae557610ae56136e6565b60200260200101519050816101f6819055506040518060800160405280868152602001610b118361134b565b6001600160a01b03168152602001610b288361135a565b60ff168152602001610b3983611373565b60ff16905260008781526101fb602090815260409182902083518155908301516001820180546001600160a01b0319166001600160a01b03909216919091179055908201516002820155606090910151600390910155610b9b8c8b8d8c61138b565b610ba78c336001610cda565b8315610bba57610bba8c848c8e8d610bc8565b505050505050505050505050565b60006101fa600085600081518110610be257610be26136e6565b6020026020010151815260200190815260200160002054604051602001610c0b91815260200190565b6040516020818303038152906040529050610c298686868685611433565b505050505050565b600082815260656020526040902060010154610c4d81336114c3565b610c578383611527565b505050565b6001600160a01b0381163314610ccc5760405162461bcd60e51b815260206004820152602f60248201527f416363657373436f6e74726f6c3a2063616e206f6e6c792072656e6f756e636560448201526e103937b632b9903337b91039b2b63360891b606482015260840161068e565b610cd68282611549565b5050565b6000610ce681336114c3565b61012d5460ff1615610d2d5760405162461bcd60e51b815260206004820152601060248201526f14185d5cd8589b194e881c185d5cd95960821b604482015260640161068e565b610d3884848461156b565b50505050565b610d56600080516020613f038339815191523361112f565b610dc85760405162461bcd60e51b815260206004820152603b60248201527f455243313135355072657365744d696e7465725061757365723a206d7573742060448201527f686176652070617573657220726f6c6520746f20756e70617573650000000000606482015260840161068e565b610dd061164b565b565b6000610dde83836116e0565b9392505050565b60608151835114610e4a5760405162461bcd60e51b815260206004820152602960248201527f455243313135353a206163636f756e747320616e6420696473206c656e677468604482015268040dad2e6dac2e8c6d60bb1b606482015260840161068e565b600083516001600160401b03811115610e6557610e65612e27565b604051908082528060200260200182016040528015610e8e578160200160208202803683370190505b50905060005b845181101561076757610ecc858281518110610eb257610eb26136e6565b602002602001015185838151811061072d5761072d6136e6565b828281518110610ede57610ede6136e6565b6020908102919091010152610ef281613712565b9050610e94565b6000610f0581336114c3565b506101f580546001600160a01b0319166001600160a01b0392909216919091179055565b6001600160a01b038316331480610f455750610f4583336105bf565b610f615760405162461bcd60e51b815260040161068e906137f1565b610c578383836119f6565b60405162461bcd60e51b815260206004820152601f60248201527f52656d6f76616c3a204552432031313535206d696e742064697361626c656400604482015260640161068e565b600054610100900460ff16610fcf5760005460ff1615610fd3565b303b155b610fef5760405162461bcd60e51b815260040161068e9061383a565b600054610100900460ff16158015611011576000805461ffff19166101011790555b611032604051806060016040528060268152602001613f23602691396112c5565b61103a611b87565b60006101f6556040805180820190915260078082526614995b5bdd985b60ca1b602090920191825261106f916101f791612cf9565b508015611082576000805461ff00191690555b50565b61109d600080516020613f038339815191523361112f565b61110f5760405162461bcd60e51b815260206004820152603960248201527f455243313135355072657365744d696e7465725061757365723a206d7573742060448201527f686176652070617573657220726f6c6520746f20706175736500000000000000606482015260840161068e565b610dd0611bae565b6000828152609760205260408120610dde9083611c2b565b60009182526065602090815260408084206001600160a01b0393909316845291905290205460ff1690565b61118e60405180608001604052806000815260200160006001600160a01b0316815260200160008152602001600081525090565b5060009081526101fb602090815260409182902082516080810184528154815260018201546001600160a01b031692810192909252600281015492820192909252600390910154606082015290565b610cd633838361156b565b60008181526097602052604081206106bc90611c37565b60008281526065602052604090206001015461121b81336114c3565b610c578383611549565b61122d612d7d565b6106bc82611c41565b6001600160a01b038516331480611252575061125285336105bf565b61126e5760405162461bcd60e51b815260040161068e906137f1565b61127b8585858585611cf8565b5050505050565b6001600160a01b03831633148061129e575061129e83336105bf565b6112ba5760405162461bcd60e51b815260040161068e906137f1565b610c57838383611e28565b600054610100900460ff166112e05760005460ff16156112e4565b303b155b6113005760405162461bcd60e51b815260040161068e9061383a565b600054610100900460ff16158015611322576000805461ffff19166101011790555b61132b82611f2d565b8015610cd6576000805461ff00191690555050565b60006106bc82611f6e565b60006106bc8260146004611fae565b6000600461136b836001601e611fae565b901c92915050565b6000611382826001601e611fae565b600f1692915050565b6113b57f9f2df0fed2c77648de5860a4cc508cd0818c85b8b8a1ab4ceeef8d981c8956a63361112f565b6114275760405162461bcd60e51b815260206004820152603860248201527f455243313135355072657365744d696e7465725061757365723a206d7573742060448201527f68617665206d696e74657220726f6c6520746f206d696e740000000000000000606482015260840161068e565b610d3884848484611ffa565b6001600160a01b03851633148061144f575061144f85336105bf565b6114b65760405162461bcd60e51b815260206004820152603260248201527f455243313135353a207472616e736665722063616c6c6572206973206e6f74206044820152711bdddb995c881b9bdc88185c1c1c9bdd995960721b606482015260840161068e565b61127b858585858561218f565b6114cd828261112f565b610cd6576114e5816001600160a01b03166014612334565b6114f0836020612334565b604051602001611501929190613888565b60408051601f198184030181529082905262461bcd60e51b825261068e91600401613025565b61153182826124cf565b6000828152609760205260409020610c579082612555565b611553828261256a565b6000828152609760205260409020610c5790826125d1565b816001600160a01b0316836001600160a01b0316036115de5760405162461bcd60e51b815260206004820152602960248201527f455243313135353a2073657474696e6720617070726f76616c20737461747573604482015268103337b91039b2b63360b91b606482015260840161068e565b6001600160a01b03838116600081815260ca6020908152604080832094871680845294825291829020805460ff191686151590811790915591519182527f17307eab39ab6107e8899845ad3d59bd9653f200f220920489ca2b5937696c31910160405180910390a3505050565b61012d5460ff166116955760405162461bcd60e51b815260206004820152601460248201527314185d5cd8589b194e881b9bdd081c185d5cd95960621b604482015260640161068e565b61012d805460ff191690557f5db9ee0a495bf2e6ff9c91a7834c1ba4fdd244a5e8aa4e537bd38aeae4b073aa335b6040516001600160a01b03909116815260200160405180910390a1565b6000806116ef8385018561390e565b60ff169050801561174e5760405162461bcd60e51b8152602060048201526024808201527f556e737570706f727465642072656d6f76616c20746f6b656e2069642076657260448201526339b4b7b760e11b606482015260840161068e565b61010083146117b25760405162461bcd60e51b815260206004820152602a60248201527f72656d6f76616c4461746120636f6e7461696e732077726f6e67206e756d626560448201526972206f6620627974657360b01b606482015260840161068e565b60006117c084860186613967565b9050600f816020015160ff1611156118125760405162461bcd60e51b81526020600482015260156024820152744d6574686f6c6f646f677920746f6f206c6172676560581b604482015260640161068e565b600f816040015160ff16111561186a5760405162461bcd60e51b815260206004820152601d60248201527f4d6574686f6c6f646f67792076657273696f6e20746f6f206c61726765000000604482015260640161068e565b608081015160a082015160f882811c9260ff60f091821c8116939283901c9290911c166041841080159061189f5750605a8411155b80156118ac575060418310155b80156118b95750605a8311155b80156118c6575060418210155b80156118d35750605a8211155b80156118e0575060418110155b80156118ed5750605a8111155b6119295760405162461bcd60e51b815260206004820152600d60248201526c496e76616c696420415343494960981b604482015260640161068e565b600085604001516004876020015160ff16901b1760ff169050600860006119509190613a2b565b60e087015163ffffffff16901b61196960086004613a2b565b60c08801516001600160a01b0316901b61198560086018613a2b565b60a089015160f01c901b61199b6008601a613a2b565b60808a015160f01c901b6119b16008601c613a2b565b60608b015161ffff16901b6119c86008601e613a2b565b86901b6119d76008601f613a2b565b8c6000015160ff16901b17171717171797505050505050505092915050565b6001600160a01b038316611a1c5760405162461bcd60e51b815260040161068e90613a4a565b8051825114611a3d5760405162461bcd60e51b815260040161068e90613a8d565b6000339050611a60818560008686604051806020016040528060008152506125e6565b60005b8351811015611b28576000848281518110611a8057611a806136e6565b602002602001015190506000848381518110611a9e57611a9e6136e6565b602090810291909101810151600084815260c9835260408082206001600160a01b038c168352909352919091205490915081811015611aef5760405162461bcd60e51b815260040161068e90613ad5565b600092835260c9602090815260408085206001600160a01b038b1686529091529092209103905580611b2081613712565b915050611a63565b5060006001600160a01b0316846001600160a01b0316826001600160a01b03167f4a39dc06d4c0dbc64b70af90fd698a233a518aa5d07e595d983b8c0526c8f7fb8686604051611b79929190613b19565b60405180910390a450505050565b600054610100900460ff16610dd05760405162461bcd60e51b815260040161068e90613b47565b61012d5460ff1615611bf55760405162461bcd60e51b815260206004820152601060248201526f14185d5cd8589b194e881c185d5cd95960821b604482015260640161068e565b61012d805460ff191660011790557f62e78cea01bee320cd4e420270b5ea74000d11b0c9f74754ebdbfc544b05a2586116c33390565b6000610dde83836125f4565b60006106bc825490565b611c49612d7d565b604051806101000160405280611c5e8461261e565b60ff168152602001611c6f8461135a565b60ff168152602001611c8084611373565b60ff168152602001611c918461262d565b61ffff168152602001611ca38461263c565b6001600160f01b0319168152602001611cbb84612654565b6001600160f01b0319168152602001611cd38461134b565b6001600160a01b03168152602001611cea84612663565b63ffffffff16905292915050565b6001600160a01b038416611d1e5760405162461bcd60e51b815260040161068e90613b92565b33611d3d818787611d2e88612672565b611d3788612672565b876125e6565b600084815260c9602090815260408083206001600160a01b038a16845290915290205483811015611d805760405162461bcd60e51b815260040161068e90613bd7565b600085815260c9602090815260408083206001600160a01b038b8116855292528083208785039055908816825281208054869290611dbf9084906137d9565b909155505060408051868152602081018690526001600160a01b03808916928a821692918616917fc3d58168c5ae7397731d063d5bbf3d657854427343f4c083240f7aacaa2d0f62910160405180910390a4611e1f8288888888886126bd565b50505050505050565b6001600160a01b038316611e4e5760405162461bcd60e51b815260040161068e90613a4a565b33611e7d81856000611e5f87612672565b611e6887612672565b604051806020016040528060008152506125e6565b600083815260c9602090815260408083206001600160a01b038816845290915290205482811015611ec05760405162461bcd60e51b815260040161068e90613ad5565b600084815260c9602090815260408083206001600160a01b03898116808652918452828520888703905582518981529384018890529092908616917fc3d58168c5ae7397731d063d5bbf3d657854427343f4c083240f7aacaa2d0f62910160405180910390a45050505050565b600054610100900460ff16611f545760405162461bcd60e51b815260040161068e90613b47565b611f5d81612818565b611f65612848565b6110828161287c565b60006001600160e01b03198216636cdb3d1360e11b1480611f9f57506001600160e01b031982166303a24d0760e21b145b806106bc57506106bc826128f0565b600080611fbc600884613a2b565b6001611fc9600887613a2b565b611fd4906002613d05565b611fde9190613d11565b901b9050848116611ff0600885613a2b565b1c95945050505050565b6001600160a01b03841661205a5760405162461bcd60e51b815260206004820152602160248201527f455243313135353a206d696e7420746f20746865207a65726f206164647265736044820152607360f81b606482015260840161068e565b815183511461207b5760405162461bcd60e51b815260040161068e90613a8d565b3361208b816000878787876125e6565b60005b8451811015612127578381815181106120a9576120a96136e6565b602002602001015160c960008784815181106120c7576120c76136e6565b602002602001015181526020019081526020016000206000886001600160a01b03166001600160a01b03168152602001908152602001600020600082825461210f91906137d9565b9091555081905061211f81613712565b91505061208e565b50846001600160a01b031660006001600160a01b0316826001600160a01b03167f4a39dc06d4c0dbc64b70af90fd698a233a518aa5d07e595d983b8c0526c8f7fb8787604051612178929190613b19565b60405180910390a461127b81600087878787612915565b81518351146121b05760405162461bcd60e51b815260040161068e90613a8d565b6001600160a01b0384166121d65760405162461bcd60e51b815260040161068e90613b92565b336121e58187878787876125e6565b60005b84518110156122ce576000858281518110612205576122056136e6565b602002602001015190506000858381518110612223576122236136e6565b602090810291909101810151600084815260c9835260408082206001600160a01b038e1683529093529190912054909150818110156122745760405162461bcd60e51b815260040161068e90613bd7565b600083815260c9602090815260408083206001600160a01b038e8116855292528083208585039055908b168252812080548492906122b39084906137d9565b92505081905550505050806122c790613712565b90506121e8565b50846001600160a01b0316866001600160a01b0316826001600160a01b03167f4a39dc06d4c0dbc64b70af90fd698a233a518aa5d07e595d983b8c0526c8f7fb878760405161231e929190613b19565b60405180910390a4610c29818787878787612915565b60606000612343836002613a2b565b61234e9060026137d9565b6001600160401b0381111561236557612365612e27565b6040519080825280601f01601f19166020018201604052801561238f576020820181803683370190505b509050600360fc1b816000815181106123aa576123aa6136e6565b60200101906001600160f81b031916908160001a905350600f60fb1b816001815181106123d9576123d96136e6565b60200101906001600160f81b031916908160001a90535060006123fd846002613a2b565b6124089060016137d9565b90505b6001811115612480576f181899199a1a9b1b9c1cb0b131b232b360811b85600f166010811061243c5761243c6136e6565b1a60f81b828281518110612452576124526136e6565b60200101906001600160f81b031916908160001a90535060049490941c9361247981613d28565b905061240b565b508315610dde5760405162461bcd60e51b815260206004820181905260248201527f537472696e67733a20686578206c656e67746820696e73756666696369656e74604482015260640161068e565b6124d9828261112f565b610cd65760008281526065602090815260408083206001600160a01b03851684529091529020805460ff191660011790556125113390565b6001600160a01b0316816001600160a01b0316837f2f8788117e7eff1d82e926ec794901d17c78024a50270940304540a733656f0d60405160405180910390a45050565b6000610dde836001600160a01b0384166129d0565b612574828261112f565b15610cd65760008281526065602090815260408083206001600160a01b0385168085529252808320805460ff1916905551339285917ff6391f5c32d9c69d2a47ea670b442974b53935d1edc7fd64eb21e047a839171b9190a45050565b6000610dde836001600160a01b038416612a1f565b610c29868686868686612b19565b600082600001828154811061260b5761260b6136e6565b9060005260206000200154905092915050565b60006106bc826001601f611fae565b60006106bc826002601c611fae565b600061264b826002601a611fae565b60f01b92915050565b600061264b8260026018611fae565b60006106bc8260046000611fae565b604080516001808252818301909252606091600091906020808301908036833701905050905082816000815181106126ac576126ac6136e6565b602090810291909101015292915050565b6001600160a01b0384163b15610c295760405163f23a6e6160e01b81526001600160a01b0385169063f23a6e61906127019089908990889088908890600401613d3f565b6020604051808303816000875af192505050801561273c575060408051601f3d908101601f1916820190925261273991810190613d84565b60015b6127e857612748613da1565b806308c379a003612781575061275c613dbd565b806127675750612783565b8060405162461bcd60e51b815260040161068e9190613025565b505b60405162461bcd60e51b815260206004820152603460248201527f455243313135353a207472616e7366657220746f206e6f6e20455243313135356044820152732932b1b2b4bb32b91034b6b83632b6b2b73a32b960611b606482015260840161068e565b6001600160e01b0319811663f23a6e6160e01b14611e1f5760405162461bcd60e51b815260040161068e90613e46565b600054610100900460ff1661283f5760405162461bcd60e51b815260040161068e90613b47565b61108281612c35565b600054610100900460ff1661286f5760405162461bcd60e51b815260040161068e90613b47565b61012d805460ff19169055565b600054610100900460ff166128a35760405162461bcd60e51b815260040161068e90613b47565b6128ae600033612c48565b6128d87f9f2df0fed2c77648de5860a4cc508cd0818c85b8b8a1ab4ceeef8d981c8956a633612c48565b611082600080516020613f0383398151915233612c48565b60006001600160e01b03198216635a05180f60e01b14806106bc57506106bc82612c52565b6001600160a01b0384163b15610c295760405163bc197c8160e01b81526001600160a01b0385169063bc197c81906129599089908990889088908890600401613e8e565b6020604051808303816000875af1925050508015612994575060408051601f3d908101601f1916820190925261299191810190613d84565b60015b6129a057612748613da1565b6001600160e01b0319811663bc197c8160e01b14611e1f5760405162461bcd60e51b815260040161068e90613e46565b6000818152600183016020526040812054612a17575081546001818101845560008481526020808220909301849055845484825282860190935260409020919091556106bc565b5060006106bc565b60008181526001830160205260408120548015612b08576000612a43600183613d11565b8554909150600090612a5790600190613d11565b9050818114612abc576000866000018281548110612a7757612a776136e6565b9060005260206000200154905080876000018481548110612a9a57612a9a6136e6565b6000918252602080832090910192909255918252600188019052604090208390555b8554869080612acd57612acd613eec565b6001900381819060005260206000200160009055905585600101600086815260200190815260200160002060009055600193505050506106bc565b60009150506106bc565b5092915050565b612b27868686868686612c87565b6001600160a01b038516612baf5760005b8351811015612bad57828181518110612b5357612b536136e6565b60200260200101516101c36000868481518110612b7257612b726136e6565b602002602001015181526020019081526020016000206000828254612b9791906137d9565b90915550612ba6905081613712565b9050612b38565b505b6001600160a01b038416610c295760005b8351811015611e1f57828181518110612bdb57612bdb6136e6565b60200260200101516101c36000868481518110612bfa57612bfa6136e6565b602002602001015181526020019081526020016000206000828254612c1f9190613d11565b90915550612c2e905081613712565b9050612bc0565b8051610cd69060cb906020840190612cf9565b610cd68282611527565b60006001600160e01b03198216637965db0b60e01b14806106bc57506301ffc9a760e01b6001600160e01b03198316146106bc565b610c2986868686868661012d5460ff1615610c295760405162461bcd60e51b815260206004820152602c60248201527f455243313135355061757361626c653a20746f6b656e207472616e736665722060448201526b1dda1a5b19481c185d5cd95960a21b606482015260840161068e565b828054612d059061372b565b90600052602060002090601f016020900481019282612d275760008555612d6d565b82601f10612d4057805160ff1916838001178555612d6d565b82800160010185558215612d6d579182015b82811115612d6d578251825591602001919060010190612d52565b50612d79929150612dc1565b5090565b6040805161010081018252600080825260208201819052918101829052606081018290526080810182905260a0810182905260c0810182905260e081019190915290565b5b80821115612d795760008155600101612dc2565b6001600160a01b038116811461108257600080fd5b8035612df681612dd6565b919050565b60008060408385031215612e0e57600080fd5b8235612e1981612dd6565b946020939093013593505050565b634e487b7160e01b600052604160045260246000fd5b601f8201601f191681016001600160401b0381118282101715612e6257612e62612e27565b6040525050565b60006001600160401b03821115612e8257612e82612e27565b5060051b60200190565b600082601f830112612e9d57600080fd5b81356020612eaa82612e69565b604051612eb78282612e3d565b83815260059390931b8501820192828101915086841115612ed757600080fd5b8286015b84811015612ef25780358352918301918301612edb565b509695505050505050565b60008060408385031215612f1057600080fd5b8235612f1b81612dd6565b915060208301356001600160401b03811115612f3657600080fd5b612f4285828601612e8c565b9150509250929050565b600081518084526020808501945080840160005b83811015612f7c57815187529582019590820190600101612f60565b509495945050505050565b602081526000610dde6020830184612f4c565b6001600160e01b03198116811461108257600080fd5b600060208284031215612fc257600080fd5b8135610dde81612f9a565b60005b83811015612fe8578181015183820152602001612fd0565b83811115610d385750506000910152565b60008151808452613011816020860160208601612fcd565b601f01601f19169290920160200192915050565b602081526000610dde6020830184612ff9565b60006020828403121561304a57600080fd5b5035919050565b60006001600160401b0383111561306a5761306a612e27565b604051613081601f8501601f191660200182612e3d565b80915083815284848401111561309657600080fd5b83836020830137600060208583010152509392505050565b600082601f8301126130bf57600080fd5b610dde83833560208501613051565b600080600080608085870312156130e457600080fd5b84356130ef81612dd6565b935060208501356001600160401b038082111561310b57600080fd5b61311788838901612e8c565b9450604087013591508082111561312d57600080fd5b61313988838901612e8c565b9350606087013591508082111561314f57600080fd5b5061315c878288016130ae565b91505092959194509250565b600080600080600060a0868803121561318057600080fd5b853561318b81612dd6565b9450602086013561319b81612dd6565b935060408601356001600160401b03808211156131b757600080fd5b6131c389838a01612e8c565b945060608801359150808211156131d957600080fd5b6131e589838a01612e8c565b935060808801359150808211156131fb57600080fd5b50613208888289016130ae565b9150509295509295909350565b6000806040838503121561322857600080fd5b82359150602083013561323a81612dd6565b809150509250929050565b801515811461108257600080fd5b60008060006060848603121561326857600080fd5b833561327381612dd6565b9250602084013561328381612dd6565b9150604084013561329381613245565b809150509250925092565b60008083601f8401126132b057600080fd5b5081356001600160401b038111156132c757600080fd5b6020830191508360208285010111156132df57600080fd5b9250929050565b600080602083850312156132f957600080fd5b82356001600160401b0381111561330f57600080fd5b61331b8582860161329e565b90969095509350505050565b6000806040838503121561333a57600080fd5b82356001600160401b038082111561335157600080fd5b818501915085601f83011261336557600080fd5b8135602061337282612e69565b60405161337f8282612e3d565b83815260059390931b850182019282810191508984111561339f57600080fd5b948201945b838610156133c65785356133b781612dd6565b825294820194908201906133a4565b965050860135925050808211156133dc57600080fd5b50612f4285828601612e8c565b6000602082840312156133fb57600080fd5b8135610dde81612dd6565b60008060006060848603121561341b57600080fd5b833561342681612dd6565b925060208401356001600160401b038082111561344257600080fd5b61344e87838801612e8c565b9350604086013591508082111561346457600080fd5b5061347186828701612e8c565b9150509250925092565b60008060008060006080868803121561349357600080fd5b853561349e81612dd6565b9450602086013593506040860135925060608601356001600160401b038111156134c757600080fd5b6134d38882890161329e565b969995985093965092949392505050565b600080604083850312156134f757600080fd5b50508035926020909101359150565b6000806040838503121561351957600080fd5b823561352481612dd6565b9150602083013561323a81613245565b60006101008201905060ff835116825260ff602084015116602083015260ff604084015116604083015261ffff606084015116606083015261ffff60f01b608084015116608083015260a083015161359860a08401826001600160f01b0319169052565b5060c08301516135b360c08401826001600160a01b03169052565b5060e0830151612b1260e084018263ffffffff169052565b600080604083850312156135de57600080fd5b82356135e981612dd6565b9150602083013561323a81612dd6565b600080600080600060a0868803121561361157600080fd5b853561361c81612dd6565b9450602086013561362c81612dd6565b9350604086013592506060860135915060808601356001600160401b0381111561365557600080fd5b613208888289016130ae565b60008060006060848603121561367657600080fd5b833561368181612dd6565b95602085013595506040909401359392505050565b6000602082840312156136a857600080fd5b81356001600160401b038111156136be57600080fd5b8201601f810184136136cf57600080fd5b6136de84823560208401613051565b949350505050565b634e487b7160e01b600052603260045260246000fd5b634e487b7160e01b600052601160045260246000fd5b600060018201613724576137246136fc565b5060010190565b600181811c9082168061373f57607f821691505b60208210810361375f57634e487b7160e01b600052602260045260246000fd5b50919050565b60006080828403121561377757600080fd5b604051608081018181106001600160401b038211171561379957613799612e27565b8060405250825181526020830151602082015260408301516137ba81612dd6565b604082015260608301516137cd81613245565b60608201529392505050565b600082198211156137ec576137ec6136fc565b500190565b60208082526029908201527f455243313135353a2063616c6c6572206973206e6f74206f776e6572206e6f7260408201526808185c1c1c9bdd995960ba1b606082015260800190565b6020808252602e908201527f496e697469616c697a61626c653a20636f6e747261637420697320616c72656160408201526d191e481a5b9a5d1a585b1a5e995960921b606082015260800190565b7f416363657373436f6e74726f6c3a206163636f756e74200000000000000000008152600083516138c0816017850160208801612fcd565b7001034b99036b4b9b9b4b733903937b6329607d1b60179184019182015283516138f1816028840160208801612fcd565b01602801949350505050565b803560ff81168114612df657600080fd5b60006020828403121561392057600080fd5b610dde826138fd565b803561ffff81168114612df657600080fd5b80356001600160f01b031981168114612df657600080fd5b803563ffffffff81168114612df657600080fd5b600061010080838503121561397b57600080fd5b604051908101906001600160401b038211818310171561399d5761399d612e27565b816040526139aa846138fd565b81526139b8602085016138fd565b60208201526139c9604085016138fd565b60408201526139da60608501613929565b60608201526139eb6080850161393b565b60808201526139fc60a0850161393b565b60a0820152613a0d60c08501612deb565b60c0820152613a1e60e08501613953565b60e0820152949350505050565b6000816000190483118215151615613a4557613a456136fc565b500290565b60208082526023908201527f455243313135353a206275726e2066726f6d20746865207a65726f206164647260408201526265737360e81b606082015260800190565b60208082526028908201527f455243313135353a2069647320616e6420616d6f756e7473206c656e677468206040820152670dad2e6dac2e8c6d60c31b606082015260800190565b60208082526024908201527f455243313135353a206275726e20616d6f756e7420657863656564732062616c604082015263616e636560e01b606082015260800190565b604081526000613b2c6040830185612f4c565b8281036020840152613b3e8185612f4c565b95945050505050565b6020808252602b908201527f496e697469616c697a61626c653a20636f6e7472616374206973206e6f74206960408201526a6e697469616c697a696e6760a81b606082015260800190565b60208082526025908201527f455243313135353a207472616e7366657220746f20746865207a65726f206164604082015264647265737360d81b606082015260800190565b6020808252602a908201527f455243313135353a20696e73756666696369656e742062616c616e636520666f60408201526939103a3930b739b332b960b11b606082015260800190565b600181815b80851115613c5c578160001904821115613c4257613c426136fc565b80851615613c4f57918102915b93841c9390800290613c26565b509250929050565b600082613c73575060016106bc565b81613c80575060006106bc565b8160018114613c965760028114613ca057613cbc565b60019150506106bc565b60ff841115613cb157613cb16136fc565b50506001821b6106bc565b5060208310610133831016604e8410600b8410161715613cdf575081810a6106bc565b613ce98383613c21565b8060001904821115613cfd57613cfd6136fc565b029392505050565b6000610dde8383613c64565b600082821015613d2357613d236136fc565b500390565b600081613d3757613d376136fc565b506000190190565b6001600160a01b03868116825285166020820152604081018490526060810183905260a060808201819052600090613d7990830184612ff9565b979650505050505050565b600060208284031215613d9657600080fd5b8151610dde81612f9a565b600060033d1115613dba5760046000803e5060005160e01c5b90565b600060443d1015613dcb5790565b6040516003193d81016004833e81513d6001600160401b038160248401118184111715613dfa57505050505090565b8285019150815181811115613e125750505050505090565b843d8701016020828501011115613e2c5750505050505090565b613e3b60208286010187612e3d565b509095945050505050565b60208082526028908201527f455243313135353a204552433131353552656365697665722072656a656374656040820152676420746f6b656e7360c01b606082015260800190565b6001600160a01b0386811682528516602082015260a060408201819052600090613eba90830186612f4c565b8281036060840152613ecc8186612f4c565b90508281036080840152613ee08185612ff9565b98975050505050505050565b634e487b7160e01b600052603160045260246000fdfe65d7a28e3265b37a6474929f336521b332c1681b933f6cb9f3376673440d862a68747470733a2f2f6e6f72692e636f6d2f6170692f72656d6f76616c2f7b69647d2e6a736f6ea26469706673582212202f1865b2817a2d7d41abc476b91a4abd9b9cf2bea719faad51b5f62404408abd64736f6c634300080d0033",
  "linkReferences": {},
  "deployedLinkReferences": {}
}