{
  "_format": "hh-sol-artifact-1",
  "contractName": "Removal",
  "sourceName": "contracts/Removal.sol",
  "abi": [
    {
      "inputs": [],
      "stateMutability": "nonpayable",
      "type": "constructor"
    },
    {
      "inputs": [
        {
          "internalType": "string",
          "name": "array1Name",
          "type": "string"
        },
        {
          "internalType": "string",
          "name": "array2Name",
          "type": "string"
        }
      ],
      "name": "ArrayLengthMismatch",
      "type": "error"
    },
    {
      "inputs": [
        {
          "internalType": "uint256",
          "name": "tokenId",
          "type": "uint256"
        }
      ],
      "name": "TokenIdDoesNotExist",
      "type": "error"
    },
    {
      "inputs": [
        {
          "internalType": "uint256",
          "name": "tokenId",
          "type": "uint256"
        }
      ],
      "name": "TokenIdExists",
      "type": "error"
    },
    {
      "anonymous": false,
      "inputs": [
        {
          "indexed": true,
          "internalType": "address",
          "name": "account",
          "type": "address"
        },
        {
          "indexed": true,
          "internalType": "address",
          "name": "operator",
          "type": "address"
        },
        {
          "indexed": false,
          "internalType": "bool",
          "name": "approved",
          "type": "bool"
        }
      ],
      "name": "ApprovalForAll",
      "type": "event"
    },
    {
      "anonymous": false,
      "inputs": [
        {
          "indexed": false,
          "internalType": "uint8",
          "name": "version",
          "type": "uint8"
        }
      ],
      "name": "Initialized",
      "type": "event"
    },
    {
      "anonymous": false,
      "inputs": [
        {
          "indexed": false,
          "internalType": "address",
          "name": "account",
          "type": "address"
        }
      ],
      "name": "Paused",
      "type": "event"
    },
    {
      "anonymous": false,
      "inputs": [
        {
          "indexed": true,
          "internalType": "bytes32",
          "name": "role",
          "type": "bytes32"
        },
        {
          "indexed": true,
          "internalType": "bytes32",
          "name": "previousAdminRole",
          "type": "bytes32"
        },
        {
          "indexed": true,
          "internalType": "bytes32",
          "name": "newAdminRole",
          "type": "bytes32"
        }
      ],
      "name": "RoleAdminChanged",
      "type": "event"
    },
    {
      "anonymous": false,
      "inputs": [
        {
          "indexed": true,
          "internalType": "bytes32",
          "name": "role",
          "type": "bytes32"
        },
        {
          "indexed": true,
          "internalType": "address",
          "name": "account",
          "type": "address"
        },
        {
          "indexed": true,
          "internalType": "address",
          "name": "sender",
          "type": "address"
        }
      ],
      "name": "RoleGranted",
      "type": "event"
    },
    {
      "anonymous": false,
      "inputs": [
        {
          "indexed": true,
          "internalType": "bytes32",
          "name": "role",
          "type": "bytes32"
        },
        {
          "indexed": true,
          "internalType": "address",
          "name": "account",
          "type": "address"
        },
        {
          "indexed": true,
          "internalType": "address",
          "name": "sender",
          "type": "address"
        }
      ],
      "name": "RoleRevoked",
      "type": "event"
    },
    {
      "anonymous": false,
      "inputs": [
        {
          "indexed": true,
          "internalType": "address",
          "name": "operator",
          "type": "address"
        },
        {
          "indexed": true,
          "internalType": "address",
          "name": "from",
          "type": "address"
        },
        {
          "indexed": true,
          "internalType": "address",
          "name": "to",
          "type": "address"
        },
        {
          "indexed": false,
          "internalType": "uint256[]",
          "name": "ids",
          "type": "uint256[]"
        },
        {
          "indexed": false,
          "internalType": "uint256[]",
          "name": "values",
          "type": "uint256[]"
        }
      ],
      "name": "TransferBatch",
      "type": "event"
    },
    {
      "anonymous": false,
      "inputs": [
        {
          "indexed": true,
          "internalType": "address",
          "name": "operator",
          "type": "address"
        },
        {
          "indexed": true,
          "internalType": "address",
          "name": "from",
          "type": "address"
        },
        {
          "indexed": true,
          "internalType": "address",
          "name": "to",
          "type": "address"
        },
        {
          "indexed": false,
          "internalType": "uint256",
          "name": "id",
          "type": "uint256"
        },
        {
          "indexed": false,
          "internalType": "uint256",
          "name": "value",
          "type": "uint256"
        }
      ],
      "name": "TransferSingle",
      "type": "event"
    },
    {
      "anonymous": false,
      "inputs": [
        {
          "indexed": false,
          "internalType": "string",
          "name": "value",
          "type": "string"
        },
        {
          "indexed": true,
          "internalType": "uint256",
          "name": "id",
          "type": "uint256"
        }
      ],
      "name": "URI",
      "type": "event"
    },
    {
      "anonymous": false,
      "inputs": [
        {
          "indexed": false,
          "internalType": "address",
          "name": "account",
          "type": "address"
        }
      ],
      "name": "Unpaused",
      "type": "event"
    },
    {
      "inputs": [],
      "name": "DEFAULT_ADMIN_ROLE",
      "outputs": [
        {
          "internalType": "bytes32",
          "name": "",
          "type": "bytes32"
        }
      ],
      "stateMutability": "view",
      "type": "function"
    },
    {
      "inputs": [],
      "name": "MINTER_ROLE",
      "outputs": [
        {
          "internalType": "bytes32",
          "name": "",
          "type": "bytes32"
        }
      ],
      "stateMutability": "view",
      "type": "function"
    },
    {
      "inputs": [],
      "name": "PAUSER_ROLE",
      "outputs": [
        {
          "internalType": "bytes32",
          "name": "",
          "type": "bytes32"
        }
      ],
      "stateMutability": "view",
      "type": "function"
    },
    {
      "inputs": [],
      "name": "RELEASER_ROLE",
      "outputs": [
        {
          "internalType": "bytes32",
          "name": "",
          "type": "bytes32"
        }
      ],
      "stateMutability": "view",
      "type": "function"
    },
    {
      "inputs": [
        {
          "internalType": "address",
          "name": "account",
          "type": "address"
        },
        {
          "internalType": "uint256",
          "name": "id",
          "type": "uint256"
        }
      ],
      "name": "balanceOf",
      "outputs": [
        {
          "internalType": "uint256",
          "name": "",
          "type": "uint256"
        }
      ],
      "stateMutability": "view",
      "type": "function"
    },
    {
      "inputs": [
        {
          "internalType": "address[]",
          "name": "accounts",
          "type": "address[]"
        },
        {
          "internalType": "uint256[]",
          "name": "ids",
          "type": "uint256[]"
        }
      ],
      "name": "balanceOfBatch",
      "outputs": [
        {
          "internalType": "uint256[]",
          "name": "",
          "type": "uint256[]"
        }
      ],
      "stateMutability": "view",
      "type": "function"
    },
    {
      "inputs": [
        {
          "internalType": "address",
          "name": "account",
          "type": "address"
        },
        {
          "internalType": "uint256[]",
          "name": "ids",
          "type": "uint256[]"
        }
      ],
      "name": "balanceOfIds",
      "outputs": [
        {
          "internalType": "uint256[]",
          "name": "",
          "type": "uint256[]"
        }
      ],
      "stateMutability": "view",
      "type": "function"
    },
    {
      "inputs": [
        {
          "internalType": "uint256[]",
          "name": "removalIds",
          "type": "uint256[]"
        }
      ],
      "name": "batchGetHoldbackPercentages",
      "outputs": [
        {
          "internalType": "uint256[]",
          "name": "",
          "type": "uint256[]"
        }
      ],
      "stateMutability": "view",
      "type": "function"
    },
    {
      "inputs": [
        {
          "internalType": "uint256[]",
          "name": "removalIds",
          "type": "uint256[]"
        },
        {
          "internalType": "uint256",
          "name": "holdbackPercentage",
          "type": "uint256"
        }
      ],
      "name": "batchSetHoldbackPercentage",
      "outputs": [],
      "stateMutability": "nonpayable",
      "type": "function"
    },
    {
      "inputs": [
        {
          "internalType": "address",
          "name": "account",
          "type": "address"
        },
        {
          "internalType": "uint256",
          "name": "id",
          "type": "uint256"
        },
        {
          "internalType": "uint256",
          "name": "value",
          "type": "uint256"
        }
      ],
      "name": "burn",
      "outputs": [],
      "stateMutability": "nonpayable",
      "type": "function"
    },
    {
      "inputs": [
        {
          "internalType": "address",
          "name": "account",
          "type": "address"
        },
        {
          "internalType": "uint256[]",
          "name": "ids",
          "type": "uint256[]"
        },
        {
          "internalType": "uint256[]",
          "name": "values",
          "type": "uint256[]"
        }
      ],
      "name": "burnBatch",
      "outputs": [],
      "stateMutability": "nonpayable",
      "type": "function"
    },
    {
      "inputs": [
        {
          "internalType": "bytes",
          "name": "removalData",
          "type": "bytes"
        }
      ],
      "name": "createRemovalId",
      "outputs": [
        {
          "internalType": "uint256",
          "name": "",
          "type": "uint256"
        }
      ],
      "stateMutability": "pure",
      "type": "function"
    },
    {
      "inputs": [
        {
          "internalType": "address",
          "name": "owner",
          "type": "address"
        }
      ],
      "name": "cumulativeBalanceOf",
      "outputs": [
        {
          "internalType": "uint256",
          "name": "",
          "type": "uint256"
        }
      ],
      "stateMutability": "view",
      "type": "function"
    },
    {
      "inputs": [
        {
          "internalType": "address[]",
          "name": "accounts",
          "type": "address[]"
        }
      ],
      "name": "cumulativeBalanceOfBatch",
      "outputs": [
        {
          "internalType": "uint256[]",
          "name": "",
          "type": "uint256[]"
        }
      ],
      "stateMutability": "view",
      "type": "function"
    },
    {
      "inputs": [
        {
          "internalType": "address",
          "name": "owner",
          "type": "address"
        },
        {
          "internalType": "uint256[]",
          "name": "ids",
          "type": "uint256[]"
        }
      ],
      "name": "cumulativeBalanceOfOwnerSubset",
      "outputs": [
        {
          "internalType": "uint256",
          "name": "",
          "type": "uint256"
        }
      ],
      "stateMutability": "view",
      "type": "function"
    },
    {
      "inputs": [
        {
          "internalType": "uint256",
          "name": "id",
          "type": "uint256"
        }
      ],
      "name": "exists",
      "outputs": [
        {
          "internalType": "bool",
          "name": "",
          "type": "bool"
        }
      ],
      "stateMutability": "view",
      "type": "function"
    },
    {
      "inputs": [
        {
          "internalType": "uint256",
          "name": "removalId",
          "type": "uint256"
        }
      ],
      "name": "getProjectIdForRemoval",
      "outputs": [
        {
          "internalType": "uint256",
          "name": "",
          "type": "uint256"
        }
      ],
      "stateMutability": "view",
      "type": "function"
    },
    {
      "inputs": [
        {
          "internalType": "bytes32",
          "name": "role",
          "type": "bytes32"
        }
      ],
      "name": "getRoleAdmin",
      "outputs": [
        {
          "internalType": "bytes32",
          "name": "",
          "type": "bytes32"
        }
      ],
      "stateMutability": "view",
      "type": "function"
    },
    {
      "inputs": [
        {
          "internalType": "bytes32",
          "name": "role",
          "type": "bytes32"
        },
        {
          "internalType": "uint256",
          "name": "index",
          "type": "uint256"
        }
      ],
      "name": "getRoleMember",
      "outputs": [
        {
          "internalType": "address",
          "name": "",
          "type": "address"
        }
      ],
      "stateMutability": "view",
      "type": "function"
    },
    {
      "inputs": [
        {
          "internalType": "bytes32",
          "name": "role",
          "type": "bytes32"
        }
      ],
      "name": "getRoleMemberCount",
      "outputs": [
        {
          "internalType": "uint256",
          "name": "",
          "type": "uint256"
        }
      ],
      "stateMutability": "view",
      "type": "function"
    },
    {
      "inputs": [
        {
          "internalType": "uint256",
          "name": "projectId",
          "type": "uint256"
        }
      ],
      "name": "getScheduleDataForProjectId",
      "outputs": [
        {
          "components": [
            {
              "internalType": "uint256",
              "name": "startTime",
              "type": "uint256"
            },
            {
              "internalType": "address",
              "name": "supplierAddress",
              "type": "address"
            },
            {
              "internalType": "uint256",
              "name": "methodology",
              "type": "uint256"
            },
            {
              "internalType": "uint256",
              "name": "methodologyVersion",
              "type": "uint256"
            }
          ],
          "internalType": "struct Removal.ScheduleData",
          "name": "",
          "type": "tuple"
        }
      ],
      "stateMutability": "view",
      "type": "function"
    },
    {
      "inputs": [
        {
          "internalType": "uint256",
          "name": "removalId",
          "type": "uint256"
        }
      ],
      "name": "getScheduleDataForRemovalId",
      "outputs": [
        {
          "components": [
            {
              "internalType": "uint256",
              "name": "startTime",
              "type": "uint256"
            },
            {
              "internalType": "address",
              "name": "supplierAddress",
              "type": "address"
            },
            {
              "internalType": "uint256",
              "name": "methodology",
              "type": "uint256"
            },
            {
              "internalType": "uint256",
              "name": "methodologyVersion",
              "type": "uint256"
            }
          ],
          "internalType": "struct Removal.ScheduleData",
          "name": "",
          "type": "tuple"
        }
      ],
      "stateMutability": "view",
      "type": "function"
    },
    {
      "inputs": [
        {
          "internalType": "bytes32",
          "name": "role",
          "type": "bytes32"
        },
        {
          "internalType": "address",
          "name": "account",
          "type": "address"
        }
      ],
      "name": "grantRole",
      "outputs": [],
      "stateMutability": "nonpayable",
      "type": "function"
    },
    {
      "inputs": [
        {
          "internalType": "bytes32",
          "name": "role",
          "type": "bytes32"
        },
        {
          "internalType": "address",
          "name": "account",
          "type": "address"
        }
      ],
      "name": "hasRole",
      "outputs": [
        {
          "internalType": "bool",
          "name": "",
          "type": "bool"
        }
      ],
      "stateMutability": "view",
      "type": "function"
    },
    {
      "inputs": [],
      "name": "initialize",
      "outputs": [],
      "stateMutability": "nonpayable",
      "type": "function"
    },
    {
      "inputs": [
        {
          "internalType": "address",
          "name": "account",
          "type": "address"
        },
        {
          "internalType": "address",
          "name": "operator",
          "type": "address"
        }
      ],
      "name": "isApprovedForAll",
      "outputs": [
        {
          "internalType": "bool",
          "name": "",
          "type": "bool"
        }
      ],
      "stateMutability": "view",
      "type": "function"
    },
    {
      "inputs": [],
      "name": "marketAddress",
      "outputs": [
        {
          "internalType": "address",
          "name": "",
          "type": "address"
        }
      ],
      "stateMutability": "view",
      "type": "function"
    },
    {
      "inputs": [
        {
          "internalType": "address",
          "name": "to",
          "type": "address"
        },
        {
          "internalType": "uint256[]",
          "name": "amounts",
          "type": "uint256[]"
        },
        {
          "internalType": "uint256[]",
          "name": "ids",
          "type": "uint256[]"
        },
        {
          "components": [
            {
              "internalType": "uint256",
              "name": "projectId",
              "type": "uint256"
            },
            {
              "internalType": "uint256",
              "name": "scheduleStartTime",
              "type": "uint256"
            },
            {
              "internalType": "uint256",
              "name": "holdbackPercentage",
              "type": "uint256"
            },
            {
              "internalType": "bool",
              "name": "list",
              "type": "bool"
            }
          ],
          "internalType": "struct BatchMintRemovalsData",
          "name": "data",
          "type": "tuple"
        }
      ],
      "name": "mintBatch",
      "outputs": [],
      "stateMutability": "nonpayable",
      "type": "function"
    },
    {
      "inputs": [
        {
          "internalType": "address",
          "name": "account",
          "type": "address"
        }
      ],
      "name": "numberOfTokensOwnedByAddress",
      "outputs": [
        {
          "internalType": "uint256",
          "name": "",
          "type": "uint256"
        }
      ],
      "stateMutability": "view",
      "type": "function"
    },
    {
      "inputs": [],
      "name": "paused",
      "outputs": [
        {
          "internalType": "bool",
          "name": "",
          "type": "bool"
        }
      ],
      "stateMutability": "view",
      "type": "function"
    },
    {
      "inputs": [
        {
          "internalType": "contract RestrictedNORI",
          "name": "restrictedNoriAddress_",
          "type": "address"
        },
        {
          "internalType": "contract Market",
          "name": "marketAddress_",
          "type": "address"
        }
      ],
      "name": "registerContractAddresses",
      "outputs": [],
      "stateMutability": "nonpayable",
      "type": "function"
    },
    {
      "inputs": [
        {
          "internalType": "address",
          "name": "owner",
          "type": "address"
        },
        {
          "internalType": "uint256",
          "name": "removalId",
          "type": "uint256"
        },
        {
          "internalType": "uint256",
          "name": "amount",
          "type": "uint256"
        }
      ],
      "name": "release",
      "outputs": [],
      "stateMutability": "nonpayable",
      "type": "function"
    },
    {
      "inputs": [
        {
          "internalType": "bytes32",
          "name": "role",
          "type": "bytes32"
        },
        {
          "internalType": "address",
          "name": "account",
          "type": "address"
        }
      ],
      "name": "renounceRole",
      "outputs": [],
      "stateMutability": "nonpayable",
      "type": "function"
    },
    {
      "inputs": [],
      "name": "restrictedNoriAddress",
      "outputs": [
        {
          "internalType": "address",
          "name": "",
          "type": "address"
        }
      ],
      "stateMutability": "view",
      "type": "function"
    },
    {
      "inputs": [
        {
          "internalType": "bytes32",
          "name": "role",
          "type": "bytes32"
        },
        {
          "internalType": "address",
          "name": "account",
          "type": "address"
        }
      ],
      "name": "revokeRole",
      "outputs": [],
      "stateMutability": "nonpayable",
      "type": "function"
    },
    {
      "inputs": [
        {
          "internalType": "address",
          "name": "from",
          "type": "address"
        },
        {
          "internalType": "address",
          "name": "to",
          "type": "address"
        },
        {
          "internalType": "uint256[]",
          "name": "ids",
          "type": "uint256[]"
        },
        {
          "internalType": "uint256[]",
          "name": "amounts",
          "type": "uint256[]"
        },
        {
          "internalType": "bytes",
          "name": "data",
          "type": "bytes"
        }
      ],
      "name": "safeBatchTransferFrom",
      "outputs": [],
      "stateMutability": "nonpayable",
      "type": "function"
    },
    {
      "inputs": [
        {
          "internalType": "address",
          "name": "from",
          "type": "address"
        },
        {
          "internalType": "address",
          "name": "to",
          "type": "address"
        },
        {
          "internalType": "uint256",
          "name": "id",
          "type": "uint256"
        },
        {
          "internalType": "uint256",
          "name": "amount",
          "type": "uint256"
        },
        {
          "internalType": "bytes",
          "name": "data",
          "type": "bytes"
        }
      ],
      "name": "safeTransferFrom",
      "outputs": [],
      "stateMutability": "nonpayable",
      "type": "function"
    },
    {
      "inputs": [
        {
          "internalType": "address",
          "name": "operator",
          "type": "address"
        },
        {
          "internalType": "bool",
          "name": "approved",
          "type": "bool"
        }
      ],
      "name": "setApprovalForAll",
      "outputs": [],
      "stateMutability": "nonpayable",
      "type": "function"
    },
    {
      "inputs": [
        {
          "internalType": "bytes4",
          "name": "interfaceId",
          "type": "bytes4"
        }
      ],
      "name": "supportsInterface",
      "outputs": [
        {
          "internalType": "bool",
          "name": "",
          "type": "bool"
        }
      ],
      "stateMutability": "view",
      "type": "function"
    },
    {
      "inputs": [
        {
          "internalType": "address",
          "name": "owner",
          "type": "address"
        }
      ],
      "name": "tokensOfOwner",
      "outputs": [
        {
          "internalType": "uint256[]",
          "name": "",
          "type": "uint256[]"
        }
      ],
      "stateMutability": "view",
      "type": "function"
    },
    {
      "inputs": [
        {
          "internalType": "uint256",
          "name": "id",
          "type": "uint256"
        }
      ],
      "name": "totalSupply",
      "outputs": [
        {
          "internalType": "uint256",
          "name": "",
          "type": "uint256"
        }
      ],
      "stateMutability": "view",
      "type": "function"
    },
    {
      "inputs": [
        {
          "internalType": "uint256",
          "name": "removalId",
          "type": "uint256"
        }
      ],
      "name": "unpackRemovalIdV0",
      "outputs": [
        {
          "components": [
            {
              "internalType": "uint8",
              "name": "idVersion",
              "type": "uint8"
            },
            {
              "internalType": "uint8",
              "name": "methodology",
              "type": "uint8"
            },
            {
              "internalType": "uint8",
              "name": "methodologyVersion",
              "type": "uint8"
            },
            {
              "internalType": "uint16",
              "name": "vintage",
              "type": "uint16"
            },
            {
              "internalType": "bytes2",
              "name": "country",
              "type": "bytes2"
            },
            {
              "internalType": "bytes2",
              "name": "subdivision",
              "type": "bytes2"
            },
            {
              "internalType": "address",
              "name": "supplierAddress",
              "type": "address"
            },
            {
              "internalType": "uint32",
              "name": "subIdentifier",
              "type": "uint32"
            }
          ],
          "internalType": "struct UnpackedRemovalIdV0",
          "name": "",
          "type": "tuple"
        }
      ],
      "stateMutability": "pure",
      "type": "function"
    },
    {
      "inputs": [
        {
          "internalType": "uint256",
          "name": "",
          "type": "uint256"
        }
      ],
      "name": "uri",
      "outputs": [
        {
          "internalType": "string",
          "name": "",
          "type": "string"
        }
      ],
      "stateMutability": "view",
      "type": "function"
    }
  ],
  "bytecode": "0x60806040523480156200001157600080fd5b506200001c62000022565b620000e4565b600054610100900460ff16156200008f5760405162461bcd60e51b815260206004820152602760248201527f496e697469616c697a61626c653a20636f6e747261637420697320696e697469604482015266616c697a696e6760c81b606482015260840160405180910390fd5b60005460ff9081161015620000e2576000805460ff191660ff9081179091556040519081527f7f26b83ff96e1f2b6a682f133852f6798a09c465da95921460cefb38474024989060200160405180910390a15b565b61566280620000f46000396000f3fe608060405234801561001057600080fd5b50600436106102e85760003560e01c806391d1485411610191578063c1b8ecdd116100e3578063e0fc293811610097578063f242432a11610071578063f242432a14610778578063f297be661461078b578063f5298aca1461079e57600080fd5b8063e0fc2938146106e7578063e63ab1e914610708578063e985e9c51461072f57600080fd5b8063d5391393116100c8578063d53913931461068d578063d547741f146106b4578063d85a53e9146106c757600080fd5b8063c1b8ecdd14610667578063ca15c8731461067a57600080fd5b8063a22cb46511610145578063ac28af241161011f578063ac28af241461060c578063b6477cc014610633578063bd85b0391461064657600080fd5b8063a22cb465146105d3578063a42f3061146105e6578063a53ba527146105f957600080fd5b80639562364111610176578063956236411461059957806399d5121b146105b8578063a217fddf146105cb57600080fd5b806391d148541461053f57806393ae796d1461058657600080fd5b80634e1273f41161024a5780637f7081fa116101fe578063854560a4116101d8578063854560a41461050657806388c28f11146105195780639010d07c1461052c57600080fd5b80637f7081fa146104ab5780638129fc1c146104eb5780638462151c146104f357600080fd5b80635c975abb1161022f5780635c975abb1461047a5780636b20c45414610485578063789e8cdf1461049857600080fd5b80634e1273f4146104445780634f558e791461045757600080fd5b8063248a9ca3116102a15780632f2ff15d116102865780632f2ff15d1461040b57806336568abe1461041e57806348ec4c3b1461043157600080fd5b8063248a9ca3146103d25780632eb2c2d6146103f657600080fd5b806301ffc9a7116102d257806301ffc9a7146103335780630e89341c146103565780631990ad051461037657600080fd5b8062fdd58e146102ed578063018e1c8314610313575b600080fd5b6103006102fb366004614434565b6107b1565b6040519081526020015b60405180910390f35b61032661032136600461458a565b610893565b60405161030a9190614615565b610346610341366004614656565b610941565b604051901515815260200161030a565b610369610364366004614673565b61094c565b60405161030a9190614702565b610389610384366004614673565b6109e0565b60405161030a91908151815260208083015173ffffffffffffffffffffffffffffffffffffffff1690820152604080830151908201526060918201519181019190915260800190565b6103006103e0366004614673565b600090815261015f602052604090206001015490565b6104096104043660046147a7565b610a88565b005b610409610419366004614855565b610b51565b61040961042c366004614855565b610b7c565b61030061043f366004614885565b610c2f565b610326610452366004614966565b610c42565b610346610465366004614673565b600090815261012d6020526040902054151590565b60975460ff16610346565b6104096104933660046149c0565b610d85565b6103006104a6366004614a36565b610e45565b6101c35473ffffffffffffffffffffffffffffffffffffffff165b60405173ffffffffffffffffffffffffffffffffffffffff909116815260200161030a565b610409610e74565b610326610501366004614a36565b6110d0565b610300610514366004614a36565b611102565b61030061052736600461458a565b61122e565b6104c661053a366004614a53565b611328565b61034661054d366004614855565b600091825261015f6020908152604080842073ffffffffffffffffffffffffffffffffffffffff93909316845291905290205460ff1690565b610409610594366004614a75565b611341565b6101c45473ffffffffffffffffffffffffffffffffffffffff166104c6565b6103896105c6366004614673565b6113aa565b610300600081565b6104096105e1366004614ab3565b611447565b6104096105f4366004614ae8565b611452565b610409610607366004614bcd565b611720565b6103007f88f3509f0e42391f2d94ebfb2a37cbd0782b1b8f73715330017f4663290b811781565b610326610641366004614c48565b61177e565b610300610654366004614673565b600090815261012d602052604090205490565b610326610675366004614c85565b611839565b610300610688366004614673565b6118df565b6103007f9f2df0fed2c77648de5860a4cc508cd0818c85b8b8a1ab4ceeef8d981c8956a681565b6104096106c2366004614855565b6118f7565b6106da6106d5366004614673565b61191d565b60405161030a9190614cba565b6103006106f5366004614673565b60009081526101c5602052604090205490565b6103007f65d7a28e3265b37a6474929f336521b332c1681b933f6cb9f3376673440d862a81565b61034661073d366004614a75565b73ffffffffffffffffffffffffffffffffffffffff918216600090815260666020908152604080832093909416825291909152205460ff1690565b610409610786366004614d91565b611967565b610409610799366004614dfa565b611a29565b6104096107ac366004614dfa565b611b05565b600073ffffffffffffffffffffffffffffffffffffffff831661085b576040517f08c379a000000000000000000000000000000000000000000000000000000000815260206004820152602a60248201527f455243313135353a2061646472657373207a65726f206973206e6f742061207660448201527f616c6964206f776e65720000000000000000000000000000000000000000000060648201526084015b60405180910390fd5b50600081815260656020908152604080832073ffffffffffffffffffffffffffffffffffffffff861684529091529020545b92915050565b60606000825167ffffffffffffffff8111156108b1576108b1614460565b6040519080825280602002602001820160405280156108da578160200160208202803683370190505b50905060005b83518110156109395761090c858583815181106108ff576108ff614e2f565b60200260200101516107b1565b82828151811061091e5761091e614e2f565b602090810291909101015261093281614e8d565b90506108e0565b509392505050565b600061088d82611bc5565b60606067805461095b90614ec5565b80601f016020809104026020016040519081016040528092919081815260200182805461098790614ec5565b80156109d45780601f106109a9576101008083540402835291602001916109d4565b820191906000526020600020905b8154815290600101906020018083116109b757829003601f168201915b50505050509050919050565b610a21604051806080016040528060008152602001600073ffffffffffffffffffffffffffffffffffffffff16815260200160008152602001600081525090565b5060009081526101c5602090815260408083205483526101c6825291829020825160808101845281548152600182015473ffffffffffffffffffffffffffffffffffffffff1692810192909252600281015492820192909252600390910154606082015290565b73ffffffffffffffffffffffffffffffffffffffff8516331480610ab15750610ab1853361073d565b610b3d576040517f08c379a000000000000000000000000000000000000000000000000000000000815260206004820152602f60248201527f455243313135353a2063616c6c6572206973206e6f7420746f6b656e206f776e60448201527f6572206e6f7220617070726f76656400000000000000000000000000000000006064820152608401610852565b610b4a8585858585611c1b565b5050505050565b600082815261015f6020526040902060010154610b6d81611f66565b610b778383611f70565b505050565b73ffffffffffffffffffffffffffffffffffffffff81163314610c21576040517f08c379a000000000000000000000000000000000000000000000000000000000815260206004820152602f60248201527f416363657373436f6e74726f6c3a2063616e206f6e6c792072656e6f756e636560448201527f20726f6c657320666f722073656c6600000000000000000000000000000000006064820152608401610852565b610c2b8282611f93565b5050565b6000610c3b8383611fb6565b9392505050565b60608151835114610cd5576040517f08c379a000000000000000000000000000000000000000000000000000000000815260206004820152602960248201527f455243313135353a206163636f756e747320616e6420696473206c656e67746860448201527f206d69736d6174636800000000000000000000000000000000000000000000006064820152608401610852565b6000835167ffffffffffffffff811115610cf157610cf1614460565b604051908082528060200260200182016040528015610d1a578160200160208202803683370190505b50905060005b845181101561093957610d58858281518110610d3e57610d3e614e2f565b60200260200101518583815181106108ff576108ff614e2f565b828281518110610d6a57610d6a614e2f565b6020908102919091010152610d7e81614e8d565b9050610d20565b73ffffffffffffffffffffffffffffffffffffffff8316331480610dae5750610dae833361073d565b610e3a576040517f08c379a000000000000000000000000000000000000000000000000000000000815260206004820152602f60248201527f455243313135353a2063616c6c6572206973206e6f7420746f6b656e206f776e60448201527f6572206e6f7220617070726f76656400000000000000000000000000000000006064820152608401610852565b610b7783838361239f565b73ffffffffffffffffffffffffffffffffffffffff811660009081526101c76020526040812061088d906126db565b600054610100900460ff1615808015610e945750600054600160ff909116105b80610eae5750303b158015610eae575060005460ff166001145b610f3a576040517f08c379a000000000000000000000000000000000000000000000000000000000815260206004820152602e60248201527f496e697469616c697a61626c653a20636f6e747261637420697320616c72656160448201527f647920696e697469616c697a65640000000000000000000000000000000000006064820152608401610852565b600080547fffffffffffffffffffffffffffffffffffffffffffffffffffffffffffffff001660011790558015610f9857600080547fffffffffffffffffffffffffffffffffffffffffffffffffffffffffffff00ff166101001790555b610fb9604051806060016040528060268152602001615607602691396126e5565b610fc1612785565b610fc9612846565b610fd1612846565b610fd9612846565b610fe1612846565b610fec600033611f70565b6110167f65d7a28e3265b37a6474929f336521b332c1681b933f6cb9f3376673440d862a33611f70565b6110407f9f2df0fed2c77648de5860a4cc508cd0818c85b8b8a1ab4ceeef8d981c8956a633611f70565b61106a7f88f3509f0e42391f2d94ebfb2a37cbd0782b1b8f73715330017f4663290b811733611f70565b80156110cd57600080547fffffffffffffffffffffffffffffffffffffffffffffffffffffffffffff00ff169055604051600181527f7f26b83ff96e1f2b6a682f133852f6798a09c465da95921460cefb38474024989060200160405180910390a15b50565b73ffffffffffffffffffffffffffffffffffffffff811660009081526101c76020526040902060609061088d906128df565b73ffffffffffffffffffffffffffffffffffffffff811660009081526101c76020526040812081611132826126db565b905060008167ffffffffffffffff81111561114f5761114f614460565b604051908082528060200260200182016040528015611178578160200160208202803683370190505b50905060005b828110156111ce578582828151811061119957611199614e2f565b73ffffffffffffffffffffffffffffffffffffffff909216602092830291909101909101526111c781614e8d565b905061117e565b5060006111de82610452866128df565b90506000805b84811015611223578281815181106111fe576111fe614e2f565b6020026020010151826112119190614f18565b915061121c81614e8d565b90506111e4565b509695505050505050565b600080825167ffffffffffffffff81111561124b5761124b614460565b604051908082528060200260200182016040528015611274578160200160208202803683370190505b50905060005b83518110156112cb578482828151811061129657611296614e2f565b73ffffffffffffffffffffffffffffffffffffffff909216602092830291909101909101526112c481614e8d565b905061127a565b5060006112d88285610c42565b90506000805b825181101561131e578281815181106112f9576112f9614e2f565b60200260200101518261130c9190614f18565b915061131781614e8d565b90506112de565b5095945050505050565b600082815261019160205260408120610c3b90836128ec565b6113496128f8565b600061135481611f66565b506101c3805473ffffffffffffffffffffffffffffffffffffffff9384167fffffffffffffffffffffffff0000000000000000000000000000000000000000918216179091556101c48054929093169116179055565b6113eb604051806080016040528060008152602001600073ffffffffffffffffffffffffffffffffffffffff16815260200160008152602001600081525090565b5060009081526101c66020908152604091829020825160808101845281548152600182015473ffffffffffffffffffffffffffffffffffffffff1692810192909252600281015492820192909252600390910154606082015290565b610c2b338383612965565b8151835181146114f457604080517f616c41130000000000000000000000000000000000000000000000000000000081526004810191909152600760448201527f616d6f756e747300000000000000000000000000000000000000000000000000606482015260806024820152600360848201527f696473000000000000000000000000000000000000000000000000000000000060a482015260c401610852565b8151604083015160005b838110156115b857600086828151811061151a5761151a614e2f565b6020026020010151905061153d81600090815261012d6020526040902054151590565b80611556575060008181526101c5602052604090205415155b15611590576040517f4acb9c2900000000000000000000000000000000000000000000000000000000815260048101829052602401610852565b60009081526101c5602052604090208381556001018290556115b181614e8d565b90506114fe565b506000856000815181106115ce576115ce614e2f565b602002602001015190506040518060800160405280866020015181526020016115f68361297b565b73ffffffffffffffffffffffffffffffffffffffff16815260200161161a8361298a565b60ff16815260200161162b836129a3565b60ff16905260008481526101c66020908152604080832084518155848301516001820180547fffffffffffffffffffffffff00000000000000000000000000000000000000001673ffffffffffffffffffffffffffffffffffffffff909216919091179055848201516002820155606090940151600390940193909355825190810190925281526116c190899088908a906129bb565b6116cd88336001612965565b84606001511561171657611716886101c460009054906101000a900473ffffffffffffffffffffffffffffffffffffffff16888a60405180602001604052806000815250610a88565b5050505050505050565b6117286128f8565b60005b8281101561177857600084848381811061174757611747614e2f565b6020908102929092013560009081526101c590925250604090206001018390555061177181614e8d565b905061172b565b50505050565b805160609060008167ffffffffffffffff81111561179e5761179e614460565b6040519080825280602002602001820160405280156117c7578160200160208202803683370190505b50905060005b828110156109395760008582815181106117e9576117e9614e2f565b602002602001015190506101c560008281526020019081526020016000206001015483838151811061181d5761181d614e2f565b60209081029190910101525061183281614e8d565b90506117cd565b805160609060008167ffffffffffffffff81111561185957611859614460565b604051908082528060200260200182016040528015611882578160200160208202803683370190505b50905060005b82811015610939576118b28582815181106118a5576118a5614e2f565b6020026020010151611102565b8282815181106118c4576118c4614e2f565b60209081029190910101526118d881614e8d565b9050611888565b60008181526101916020526040812061088d906126db565b600082815261015f602052604090206001015461191381611f66565b610b778383611f93565b6040805161010081018252600080825260208201819052918101829052606081018290526080810182905260a0810182905260c0810182905260e081019190915261088d82612c44565b73ffffffffffffffffffffffffffffffffffffffff85163314806119905750611990853361073d565b611a1c576040517f08c379a000000000000000000000000000000000000000000000000000000000815260206004820152602f60248201527f455243313135353a2063616c6c6572206973206e6f7420746f6b656e206f776e60448201527f6572206e6f7220617070726f76656400000000000000000000000000000000006064820152608401610852565b610b4a8585858585612d71565b7f88f3509f0e42391f2d94ebfb2a37cbd0782b1b8f73715330017f4663290b8117611a5381611f66565b611a5e848484611b05565b6101c45473ffffffffffffffffffffffffffffffffffffffff90811690851603611778576040517f366a4120000000000000000000000000000000000000000000000000000000008152600481018490526024810183905273ffffffffffffffffffffffffffffffffffffffff85169063366a412090604401600060405180830381600087803b158015611af157600080fd5b505af1158015611716573d6000803e3d6000fd5b73ffffffffffffffffffffffffffffffffffffffff8316331480611b2e5750611b2e833361073d565b611bba576040517f08c379a000000000000000000000000000000000000000000000000000000000815260206004820152602f60248201527f455243313135353a2063616c6c6572206973206e6f7420746f6b656e206f776e60448201527f6572206e6f7220617070726f76656400000000000000000000000000000000006064820152608401610852565b610b77838383612fc1565b60007fffffffff0000000000000000000000000000000000000000000000000000000082167f5a05180f00000000000000000000000000000000000000000000000000000000148061088d575061088d826131e8565b8151835114611cac576040517f08c379a000000000000000000000000000000000000000000000000000000000815260206004820152602860248201527f455243313135353a2069647320616e6420616d6f756e7473206c656e6774682060448201527f6d69736d617463680000000000000000000000000000000000000000000000006064820152608401610852565b73ffffffffffffffffffffffffffffffffffffffff8416611d4f576040517f08c379a000000000000000000000000000000000000000000000000000000000815260206004820152602560248201527f455243313135353a207472616e7366657220746f20746865207a65726f20616460448201527f64726573730000000000000000000000000000000000000000000000000000006064820152608401610852565b33611d5e81878787878761323e565b60005b8451811015611ed1576000858281518110611d7e57611d7e614e2f565b602002602001015190506000858381518110611d9c57611d9c614e2f565b602090810291909101810151600084815260658352604080822073ffffffffffffffffffffffffffffffffffffffff8e168352909352919091205490915081811015611e6a576040517f08c379a000000000000000000000000000000000000000000000000000000000815260206004820152602a60248201527f455243313135353a20696e73756666696369656e742062616c616e636520666f60448201527f72207472616e73666572000000000000000000000000000000000000000000006064820152608401610852565b600083815260656020908152604080832073ffffffffffffffffffffffffffffffffffffffff8e8116855292528083208585039055908b16825281208054849290611eb6908490614f18565b9250508190555050505080611eca90614e8d565b9050611d61565b508473ffffffffffffffffffffffffffffffffffffffff168673ffffffffffffffffffffffffffffffffffffffff168273ffffffffffffffffffffffffffffffffffffffff167f4a39dc06d4c0dbc64b70af90fd698a233a518aa5d07e595d983b8c0526c8f7fb8787604051611f48929190614f30565b60405180910390a4611f5e818787878787613345565b505050505050565b6110cd81336135cf565b611f7a82826136a2565b600082815261019160205260409020610b779082613798565b611f9d82826137ba565b600082815261019160205260409020610b779082613877565b600080611fc583850185614f6f565b60ff1690508015612057576040517f08c379a0000000000000000000000000000000000000000000000000000000008152602060048201526024808201527f556e737570706f727465642072656d6f76616c20746f6b656e2069642076657260448201527f73696f6e000000000000000000000000000000000000000000000000000000006064820152608401610852565b61010083146120e8576040517f08c379a000000000000000000000000000000000000000000000000000000000815260206004820152602a60248201527f72656d6f76616c4461746120636f6e7461696e732077726f6e67206e756d626560448201527f72206f66206279746573000000000000000000000000000000000000000000006064820152608401610852565b60006120f684860186614fe0565b9050600f816020015160ff16111561216a576040517f08c379a000000000000000000000000000000000000000000000000000000000815260206004820152601560248201527f4d6574686f6c6f646f677920746f6f206c6172676500000000000000000000006044820152606401610852565b600f816040015160ff1611156121dc576040517f08c379a000000000000000000000000000000000000000000000000000000000815260206004820152601d60248201527f4d6574686f6c6f646f67792076657273696f6e20746f6f206c617267650000006044820152606401610852565b608081015160a082015160f882811c9260ff60f091821c8116939283901c9290911c16604184108015906122115750605a8411155b801561221e575060418310155b801561222b5750605a8311155b8015612238575060418210155b80156122455750605a8211155b8015612252575060418110155b801561225f5750605a8111155b6122c5576040517f08c379a000000000000000000000000000000000000000000000000000000000815260206004820152600d60248201527f496e76616c6964204153434949000000000000000000000000000000000000006044820152606401610852565b600085604001516004876020015160ff16901b1760ff169050600860006122ec91906150a5565b60e087015163ffffffff16901b612305600860046150a5565b60c088015173ffffffffffffffffffffffffffffffffffffffff16901b61232e600860186150a5565b60a089015160f01c901b6123446008601a6150a5565b60808a015160f01c901b61235a6008601c6150a5565b60608b015161ffff16901b6123716008601e6150a5565b86901b6123806008601f6150a5565b8c6000015160ff16901b17171717171797505050505050505092915050565b73ffffffffffffffffffffffffffffffffffffffff8316612442576040517f08c379a000000000000000000000000000000000000000000000000000000000815260206004820152602360248201527f455243313135353a206275726e2066726f6d20746865207a65726f206164647260448201527f65737300000000000000000000000000000000000000000000000000000000006064820152608401610852565b80518251146124d3576040517f08c379a000000000000000000000000000000000000000000000000000000000815260206004820152602860248201527f455243313135353a2069647320616e6420616d6f756e7473206c656e6774682060448201527f6d69736d617463680000000000000000000000000000000000000000000000006064820152608401610852565b60003390506124f68185600086866040518060200160405280600081525061323e565b60005b835181101561264757600084828151811061251657612516614e2f565b60200260200101519050600084838151811061253457612534614e2f565b602090810291909101810151600084815260658352604080822073ffffffffffffffffffffffffffffffffffffffff8c168352909352919091205490915081811015612601576040517f08c379a0000000000000000000000000000000000000000000000000000000008152602060048201526024808201527f455243313135353a206275726e20616d6f756e7420657863656564732062616c60448201527f616e6365000000000000000000000000000000000000000000000000000000006064820152608401610852565b600092835260656020908152604080852073ffffffffffffffffffffffffffffffffffffffff8b168652909152909220910390558061263f81614e8d565b9150506124f9565b50600073ffffffffffffffffffffffffffffffffffffffff168473ffffffffffffffffffffffffffffffffffffffff168273ffffffffffffffffffffffffffffffffffffffff167f4a39dc06d4c0dbc64b70af90fd698a233a518aa5d07e595d983b8c0526c8f7fb86866040516126bf929190614f30565b60405180910390a4604080516020810190915260009052611778565b600061088d825490565b600054610100900460ff1661277c576040517f08c379a000000000000000000000000000000000000000000000000000000000815260206004820152602b60248201527f496e697469616c697a61626c653a20636f6e7472616374206973206e6f74206960448201527f6e697469616c697a696e670000000000000000000000000000000000000000006064820152608401610852565b6110cd81613899565b600054610100900460ff1661281c576040517f08c379a000000000000000000000000000000000000000000000000000000000815260206004820152602b60248201527f496e697469616c697a61626c653a20636f6e7472616374206973206e6f74206960448201527f6e697469616c697a696e670000000000000000000000000000000000000000006064820152608401610852565b609780547fffffffffffffffffffffffffffffffffffffffffffffffffffffffffffffff00169055565b600054610100900460ff166128dd576040517f08c379a000000000000000000000000000000000000000000000000000000000815260206004820152602b60248201527f496e697469616c697a61626c653a20636f6e7472616374206973206e6f74206960448201527f6e697469616c697a696e670000000000000000000000000000000000000000006064820152608401610852565b565b60606000610c3b836138a5565b6000610c3b8383613900565b60975460ff16156128dd576040517f08c379a000000000000000000000000000000000000000000000000000000000815260206004820152601060248201527f5061757361626c653a20706175736564000000000000000000000000000000006044820152606401610852565b600061297081611f66565b61177884848461392a565b600061088d8260146004613a7d565b6000600461299b836001601e613a7d565b901c92915050565b60006129b2826001601e613a7d565b600f1692915050565b73ffffffffffffffffffffffffffffffffffffffff8416612a5e576040517f08c379a000000000000000000000000000000000000000000000000000000000815260206004820152602160248201527f455243313135353a206d696e7420746f20746865207a65726f2061646472657360448201527f73000000000000000000000000000000000000000000000000000000000000006064820152608401610852565b8151835114612aef576040517f08c379a000000000000000000000000000000000000000000000000000000000815260206004820152602860248201527f455243313135353a2069647320616e6420616d6f756e7473206c656e6774682060448201527f6d69736d617463680000000000000000000000000000000000000000000000006064820152608401610852565b33612aff8160008787878761323e565b60005b8451811015612bb557838181518110612b1d57612b1d614e2f565b602002602001015160656000878481518110612b3b57612b3b614e2f565b6020026020010151815260200190815260200160002060008873ffffffffffffffffffffffffffffffffffffffff1673ffffffffffffffffffffffffffffffffffffffff1681526020019081526020016000206000828254612b9d9190614f18565b90915550819050612bad81614e8d565b915050612b02565b508473ffffffffffffffffffffffffffffffffffffffff16600073ffffffffffffffffffffffffffffffffffffffff168273ffffffffffffffffffffffffffffffffffffffff167f4a39dc06d4c0dbc64b70af90fd698a233a518aa5d07e595d983b8c0526c8f7fb8787604051612c2d929190614f30565b60405180910390a4610b4a81600087878787613345565b6040805161010081018252600080825260208201819052918101829052606081018290526080810182905260a0810182905260c0810182905260e0810191909152604051806101000160405280612c9a84613ac9565b60ff168152602001612cab8461298a565b60ff168152602001612cbc846129a3565b60ff168152602001612ccd84613ad8565b61ffff168152602001612cdf84613ae7565b7fffff000000000000000000000000000000000000000000000000000000000000168152602001612d0f84613aff565b7fffff000000000000000000000000000000000000000000000000000000000000168152602001612d3f8461297b565b73ffffffffffffffffffffffffffffffffffffffff168152602001612d6384613b0e565b63ffffffff16905292915050565b73ffffffffffffffffffffffffffffffffffffffff8416612e14576040517f08c379a000000000000000000000000000000000000000000000000000000000815260206004820152602560248201527f455243313135353a207472616e7366657220746f20746865207a65726f20616460448201527f64726573730000000000000000000000000000000000000000000000000000006064820152608401610852565b336000612e2085613b1d565b90506000612e2d85613b1d565b9050612e3d83898985858961323e565b600086815260656020908152604080832073ffffffffffffffffffffffffffffffffffffffff8c16845290915290205485811015612efd576040517f08c379a000000000000000000000000000000000000000000000000000000000815260206004820152602a60248201527f455243313135353a20696e73756666696369656e742062616c616e636520666f60448201527f72207472616e73666572000000000000000000000000000000000000000000006064820152608401610852565b600087815260656020908152604080832073ffffffffffffffffffffffffffffffffffffffff8d8116855292528083208985039055908a16825281208054889290612f49908490614f18565b9091555050604080518881526020810188905273ffffffffffffffffffffffffffffffffffffffff808b16928c821692918816917fc3d58168c5ae7397731d063d5bbf3d657854427343f4c083240f7aacaa2d0f62910160405180910390a4612fb6848a8a8a8a8a613b68565b505050505050505050565b73ffffffffffffffffffffffffffffffffffffffff8316613064576040517f08c379a000000000000000000000000000000000000000000000000000000000815260206004820152602360248201527f455243313135353a206275726e2066726f6d20746865207a65726f206164647260448201527f65737300000000000000000000000000000000000000000000000000000000006064820152608401610852565b33600061307084613b1d565b9050600061307d84613b1d565b905061309d8387600085856040518060200160405280600081525061323e565b600085815260656020908152604080832073ffffffffffffffffffffffffffffffffffffffff8a1684529091529020548481101561315c576040517f08c379a0000000000000000000000000000000000000000000000000000000008152602060048201526024808201527f455243313135353a206275726e20616d6f756e7420657863656564732062616c60448201527f616e6365000000000000000000000000000000000000000000000000000000006064820152608401610852565b600086815260656020908152604080832073ffffffffffffffffffffffffffffffffffffffff8b81168086529184528285208a8703905582518b81529384018a90529092908816917fc3d58168c5ae7397731d063d5bbf3d657854427343f4c083240f7aacaa2d0f62910160405180910390a46040805160208101909152600090525b50505050505050565b60007fffffffff0000000000000000000000000000000000000000000000000000000082167f7965db0b00000000000000000000000000000000000000000000000000000000148061088d575061088d82613d15565b6132466128f8565b815160005b8181101561333657600085828151811061326757613267614e2f565b60200260200101519050600073ffffffffffffffffffffffffffffffffffffffff168873ffffffffffffffffffffffffffffffffffffffff16146132d75773ffffffffffffffffffffffffffffffffffffffff881660009081526101c7602052604090206132d59082613df8565b505b73ffffffffffffffffffffffffffffffffffffffff8716156133255773ffffffffffffffffffffffffffffffffffffffff871660009081526101c7602052604090206133239082613e04565b505b5061332f81614e8d565b905061324b565b506131df878787878787613e10565b73ffffffffffffffffffffffffffffffffffffffff84163b15611f5e576040517fbc197c8100000000000000000000000000000000000000000000000000000000815273ffffffffffffffffffffffffffffffffffffffff85169063bc197c81906133bc90899089908890889088906004016150e2565b6020604051808303816000875af1925050508015613415575060408051601f3d9081017fffffffffffffffffffffffffffffffffffffffffffffffffffffffffffffffe01682019092526134129181019061514d565b60015b6134fe5761342161516a565b806308c379a0036134745750613435615186565b806134405750613476565b806040517f08c379a00000000000000000000000000000000000000000000000000000000081526004016108529190614702565b505b6040517f08c379a000000000000000000000000000000000000000000000000000000000815260206004820152603460248201527f455243313135353a207472616e7366657220746f206e6f6e204552433131353560448201527f526563656976657220696d706c656d656e7465720000000000000000000000006064820152608401610852565b7fffffffff0000000000000000000000000000000000000000000000000000000081167fbc197c8100000000000000000000000000000000000000000000000000000000146131df576040517f08c379a000000000000000000000000000000000000000000000000000000000815260206004820152602860248201527f455243313135353a204552433131353552656365697665722072656a6563746560448201527f6420746f6b656e730000000000000000000000000000000000000000000000006064820152608401610852565b600082815261015f6020908152604080832073ffffffffffffffffffffffffffffffffffffffff8516845290915290205460ff16610c2b576136288173ffffffffffffffffffffffffffffffffffffffff166014613fe3565b613633836020613fe3565b60405160200161364492919061522e565b604080517fffffffffffffffffffffffffffffffffffffffffffffffffffffffffffffffe0818403018152908290527f08c379a000000000000000000000000000000000000000000000000000000000825261085291600401614702565b600082815261015f6020908152604080832073ffffffffffffffffffffffffffffffffffffffff8516845290915290205460ff16610c2b57600082815261015f6020908152604080832073ffffffffffffffffffffffffffffffffffffffff85168452909152902080547fffffffffffffffffffffffffffffffffffffffffffffffffffffffffffffff0016600117905561373a3390565b73ffffffffffffffffffffffffffffffffffffffff168173ffffffffffffffffffffffffffffffffffffffff16837f2f8788117e7eff1d82e926ec794901d17c78024a50270940304540a733656f0d60405160405180910390a45050565b6000610c3b8373ffffffffffffffffffffffffffffffffffffffff8416614226565b600082815261015f6020908152604080832073ffffffffffffffffffffffffffffffffffffffff8516845290915290205460ff1615610c2b57600082815261015f6020908152604080832073ffffffffffffffffffffffffffffffffffffffff8516808552925280832080547fffffffffffffffffffffffffffffffffffffffffffffffffffffffffffffff0016905551339285917ff6391f5c32d9c69d2a47ea670b442974b53935d1edc7fd64eb21e047a839171b9190a45050565b6000610c3b8373ffffffffffffffffffffffffffffffffffffffff8416614275565b6067610c2b82826152f5565b6060816000018054806020026020016040519081016040528092919081815260200182805480156109d457602002820191906000526020600020905b8154815260200190600101908083116138e15750505050509050919050565b600082600001828154811061391757613917614e2f565b9060005260206000200154905092915050565b8173ffffffffffffffffffffffffffffffffffffffff168373ffffffffffffffffffffffffffffffffffffffff16036139e5576040517f08c379a000000000000000000000000000000000000000000000000000000000815260206004820152602960248201527f455243313135353a2073657474696e6720617070726f76616c2073746174757360448201527f20666f722073656c6600000000000000000000000000000000000000000000006064820152608401610852565b73ffffffffffffffffffffffffffffffffffffffff83811660008181526066602090815260408083209487168084529482529182902080547fffffffffffffffffffffffffffffffffffffffffffffffffffffffffffffff001686151590811790915591519182527f17307eab39ab6107e8899845ad3d59bd9653f200f220920489ca2b5937696c31910160405180910390a3505050565b600080613a8b6008846150a5565b6001613a986008876150a5565b613aa390600261552f565b613aad919061553b565b901b9050848116613abf6008856150a5565b1c95945050505050565b600061088d826001601f613a7d565b600061088d826002601c613a7d565b6000613af6826002601a613a7d565b60f01b92915050565b6000613af68260026018613a7d565b600061088d8260046000613a7d565b60408051600180825281830190925260609160009190602080830190803683370190505090508281600081518110613b5757613b57614e2f565b602090810291909101015292915050565b73ffffffffffffffffffffffffffffffffffffffff84163b15611f5e576040517ff23a6e6100000000000000000000000000000000000000000000000000000000815273ffffffffffffffffffffffffffffffffffffffff85169063f23a6e6190613bdf9089908990889088908890600401615552565b6020604051808303816000875af1925050508015613c38575060408051601f3d9081017fffffffffffffffffffffffffffffffffffffffffffffffffffffffffffffffe0168201909252613c359181019061514d565b60015b613c445761342161516a565b7fffffffff0000000000000000000000000000000000000000000000000000000081167ff23a6e6100000000000000000000000000000000000000000000000000000000146131df576040517f08c379a000000000000000000000000000000000000000000000000000000000815260206004820152602860248201527f455243313135353a204552433131353552656365697665722072656a6563746560448201527f6420746f6b656e730000000000000000000000000000000000000000000000006064820152608401610852565b60007fffffffff0000000000000000000000000000000000000000000000000000000082167fd9b67a26000000000000000000000000000000000000000000000000000000001480613da857507fffffffff0000000000000000000000000000000000000000000000000000000082167f0e89341c00000000000000000000000000000000000000000000000000000000145b8061088d57507f01ffc9a7000000000000000000000000000000000000000000000000000000007fffffffff0000000000000000000000000000000000000000000000000000000083161461088d565b6000610c3b8383614275565b6000610c3b8383614226565b613e1e86868686868661436f565b73ffffffffffffffffffffffffffffffffffffffff8516613eb35760005b8351811015613eb157828181518110613e5757613e57614e2f565b602002602001015161012d6000868481518110613e7657613e76614e2f565b602002602001015181526020019081526020016000206000828254613e9b9190614f18565b90915550613eaa905081614e8d565b9050613e3c565b505b73ffffffffffffffffffffffffffffffffffffffff8416611f5e5760005b83518110156131df576000848281518110613eee57613eee614e2f565b602002602001015190506000848381518110613f0c57613f0c614e2f565b60200260200101519050600061012d600084815260200190815260200160002054905081811015613fbf576040517f08c379a000000000000000000000000000000000000000000000000000000000815260206004820152602860248201527f455243313135353a206275726e20616d6f756e74206578636565647320746f7460448201527f616c537570706c790000000000000000000000000000000000000000000000006064820152608401610852565b600092835261012d602052604090922091039055613fdc81614e8d565b9050613ed1565b60606000613ff28360026150a5565b613ffd906002614f18565b67ffffffffffffffff81111561401557614015614460565b6040519080825280601f01601f19166020018201604052801561403f576020820181803683370190505b5090507f30000000000000000000000000000000000000000000000000000000000000008160008151811061407657614076614e2f565b60200101907effffffffffffffffffffffffffffffffffffffffffffffffffffffffffffff1916908160001a9053507f7800000000000000000000000000000000000000000000000000000000000000816001815181106140d9576140d9614e2f565b60200101907effffffffffffffffffffffffffffffffffffffffffffffffffffffffffffff1916908160001a90535060006141158460026150a5565b614120906001614f18565b90505b60018111156141bd577f303132333435363738396162636465660000000000000000000000000000000085600f166010811061416157614161614e2f565b1a60f81b82828151811061417757614177614e2f565b60200101907effffffffffffffffffffffffffffffffffffffffffffffffffffffffffffff1916908160001a90535060049490941c936141b6816155a2565b9050614123565b508315610c3b576040517f08c379a000000000000000000000000000000000000000000000000000000000815260206004820181905260248201527f537472696e67733a20686578206c656e67746820696e73756666696369656e746044820152606401610852565b600081815260018301602052604081205461426d5750815460018181018455600084815260208082209093018490558454848252828601909352604090209190915561088d565b50600061088d565b6000818152600183016020526040812054801561435e57600061429960018361553b565b85549091506000906142ad9060019061553b565b90508181146143125760008660000182815481106142cd576142cd614e2f565b90600052602060002001549050808760000184815481106142f0576142f0614e2f565b6000918252602080832090910192909255918252600188019052604090208390555b8554869080614323576143236155d7565b60019003818190600052602060002001600090559055856001016000868152602001908152602001600020600090556001935050505061088d565b600091505061088d565b5092915050565b60975460ff1615611f5e576040517f08c379a000000000000000000000000000000000000000000000000000000000815260206004820152602c60248201527f455243313135355061757361626c653a20746f6b656e207472616e736665722060448201527f7768696c652070617573656400000000000000000000000000000000000000006064820152608401610852565b73ffffffffffffffffffffffffffffffffffffffff811681146110cd57600080fd5b803561442f81614402565b919050565b6000806040838503121561444757600080fd5b823561445281614402565b946020939093013593505050565b7f4e487b7100000000000000000000000000000000000000000000000000000000600052604160045260246000fd5b6080810181811067ffffffffffffffff821117156144af576144af614460565b60405250565b7fffffffffffffffffffffffffffffffffffffffffffffffffffffffffffffffe0601f830116810181811067ffffffffffffffff821117156144f9576144f9614460565b6040525050565b600067ffffffffffffffff82111561451a5761451a614460565b5060051b60200190565b600082601f83011261453557600080fd5b8135602061454282614500565b60405161454f82826144b5565b83815260059390931b850182019282810191508684111561456f57600080fd5b8286015b848110156112235780358352918301918301614573565b6000806040838503121561459d57600080fd5b82356145a881614402565b9150602083013567ffffffffffffffff8111156145c457600080fd5b6145d085828601614524565b9150509250929050565b600081518084526020808501945080840160005b8381101561460a578151875295820195908201906001016145ee565b509495945050505050565b602081526000610c3b60208301846145da565b7fffffffff00000000000000000000000000000000000000000000000000000000811681146110cd57600080fd5b60006020828403121561466857600080fd5b8135610c3b81614628565b60006020828403121561468557600080fd5b5035919050565b60005b838110156146a757818101518382015260200161468f565b838111156117785750506000910152565b600081518084526146d081602086016020860161468c565b601f017fffffffffffffffffffffffffffffffffffffffffffffffffffffffffffffffe0169290920160200192915050565b602081526000610c3b60208301846146b8565b600082601f83011261472657600080fd5b813567ffffffffffffffff81111561474057614740614460565b60405161477560207fffffffffffffffffffffffffffffffffffffffffffffffffffffffffffffffe0601f85011601826144b5565b81815284602083860101111561478a57600080fd5b816020850160208301376000918101602001919091529392505050565b600080600080600060a086880312156147bf57600080fd5b85356147ca81614402565b945060208601356147da81614402565b9350604086013567ffffffffffffffff808211156147f757600080fd5b61480389838a01614524565b9450606088013591508082111561481957600080fd5b61482589838a01614524565b9350608088013591508082111561483b57600080fd5b5061484888828901614715565b9150509295509295909350565b6000806040838503121561486857600080fd5b82359150602083013561487a81614402565b809150509250929050565b6000806020838503121561489857600080fd5b823567ffffffffffffffff808211156148b057600080fd5b818501915085601f8301126148c457600080fd5b8135818111156148d357600080fd5b8660208285010111156148e557600080fd5b60209290920196919550909350505050565b600082601f83011261490857600080fd5b8135602061491582614500565b60405161492282826144b5565b83815260059390931b850182019282810191508684111561494257600080fd5b8286015b8481101561122357803561495981614402565b8352918301918301614946565b6000806040838503121561497957600080fd5b823567ffffffffffffffff8082111561499157600080fd5b61499d868387016148f7565b935060208501359150808211156149b357600080fd5b506145d085828601614524565b6000806000606084860312156149d557600080fd5b83356149e081614402565b9250602084013567ffffffffffffffff808211156149fd57600080fd5b614a0987838801614524565b93506040860135915080821115614a1f57600080fd5b50614a2c86828701614524565b9150509250925092565b600060208284031215614a4857600080fd5b8135610c3b81614402565b60008060408385031215614a6657600080fd5b50508035926020909101359150565b60008060408385031215614a8857600080fd5b8235614a9381614402565b9150602083013561487a81614402565b8035801515811461442f57600080fd5b60008060408385031215614ac657600080fd5b8235614ad181614402565b9150614adf60208401614aa3565b90509250929050565b60008060008084860360e0811215614aff57600080fd5b8535614b0a81614402565b9450602086013567ffffffffffffffff80821115614b2757600080fd5b614b3389838a01614524565b95506040880135915080821115614b4957600080fd5b50614b5688828901614524565b93505060807fffffffffffffffffffffffffffffffffffffffffffffffffffffffffffffffa082011215614b8957600080fd5b50604051614b968161448f565b606086013581526080860135602082015260a08601356040820152614bbd60c08701614aa3565b6060820152939692955090935050565b600080600060408486031215614be257600080fd5b833567ffffffffffffffff80821115614bfa57600080fd5b818601915086601f830112614c0e57600080fd5b813581811115614c1d57600080fd5b8760208260051b8501011115614c3257600080fd5b6020928301989097509590910135949350505050565b600060208284031215614c5a57600080fd5b813567ffffffffffffffff811115614c7157600080fd5b614c7d84828501614524565b949350505050565b600060208284031215614c9757600080fd5b813567ffffffffffffffff811115614cae57600080fd5b614c7d848285016148f7565b60006101008201905060ff835116825260ff602084015116602083015260ff604084015116604083015261ffff60608401511660608301527fffff000000000000000000000000000000000000000000000000000000000000608084015116608083015260a0830151614d5160a08401827fffff000000000000000000000000000000000000000000000000000000000000169052565b5060c0830151614d7960c084018273ffffffffffffffffffffffffffffffffffffffff169052565b5060e083015161436860e084018263ffffffff169052565b600080600080600060a08688031215614da957600080fd5b8535614db481614402565b94506020860135614dc481614402565b93506040860135925060608601359150608086013567ffffffffffffffff811115614dee57600080fd5b61484888828901614715565b600080600060608486031215614e0f57600080fd5b8335614e1a81614402565b95602085013595506040909401359392505050565b7f4e487b7100000000000000000000000000000000000000000000000000000000600052603260045260246000fd5b7f4e487b7100000000000000000000000000000000000000000000000000000000600052601160045260246000fd5b60007fffffffffffffffffffffffffffffffffffffffffffffffffffffffffffffffff8203614ebe57614ebe614e5e565b5060010190565b600181811c90821680614ed957607f821691505b602082108103614f12577f4e487b7100000000000000000000000000000000000000000000000000000000600052602260045260246000fd5b50919050565b60008219821115614f2b57614f2b614e5e565b500190565b604081526000614f4360408301856145da565b8281036020840152614f5581856145da565b95945050505050565b803560ff8116811461442f57600080fd5b600060208284031215614f8157600080fd5b610c3b82614f5e565b803561ffff8116811461442f57600080fd5b80357fffff0000000000000000000000000000000000000000000000000000000000008116811461442f57600080fd5b803563ffffffff8116811461442f57600080fd5b6000610100808385031215614ff457600080fd5b6040519081019067ffffffffffffffff8211818310171561501757615017614460565b8160405261502484614f5e565b815261503260208501614f5e565b602082015261504360408501614f5e565b604082015261505460608501614f8a565b606082015261506560808501614f9c565b608082015261507660a08501614f9c565b60a082015261508760c08501614424565b60c082015261509860e08501614fcc565b60e0820152949350505050565b6000817fffffffffffffffffffffffffffffffffffffffffffffffffffffffffffffffff04831182151516156150dd576150dd614e5e565b500290565b600073ffffffffffffffffffffffffffffffffffffffff808816835280871660208401525060a0604083015261511b60a08301866145da565b828103606084015261512d81866145da565b9050828103608084015261514181856146b8565b98975050505050505050565b60006020828403121561515f57600080fd5b8151610c3b81614628565b600060033d11156151835760046000803e5060005160e01c5b90565b600060443d10156151945790565b6040517ffffffffffffffffffffffffffffffffffffffffffffffffffffffffffffffffc803d016004833e81513d67ffffffffffffffff81602484011181841117156151e257505050505090565b82850191508151818111156151fa5750505050505090565b843d87010160208285010111156152145750505050505090565b615223602082860101876144b5565b509095945050505050565b7f416363657373436f6e74726f6c3a206163636f756e742000000000000000000081526000835161526681601785016020880161468c565b7f206973206d697373696e6720726f6c652000000000000000000000000000000060179184019182015283516152a381602884016020880161468c565b01602801949350505050565b601f821115610b7757600081815260208120601f850160051c810160208610156152d65750805b601f850160051c820191505b81811015611f5e578281556001016152e2565b815167ffffffffffffffff81111561530f5761530f614460565b6153238161531d8454614ec5565b846152af565b602080601f83116001811461537657600084156153405750858301515b7fffffffffffffffffffffffffffffffffffffffffffffffffffffffffffffffff600386901b1c1916600185901b178555611f5e565b6000858152602081207fffffffffffffffffffffffffffffffffffffffffffffffffffffffffffffffe08616915b828110156153c3578886015182559484019460019091019084016153a4565b50858210156153ff57878501517fffffffffffffffffffffffffffffffffffffffffffffffffffffffffffffffff600388901b60f8161c191681555b5050505050600190811b01905550565b600181815b8085111561546857817fffffffffffffffffffffffffffffffffffffffffffffffffffffffffffffffff0482111561544e5761544e614e5e565b8085161561545b57918102915b93841c9390800290615414565b509250929050565b60008261547f5750600161088d565b8161548c5750600061088d565b81600181146154a257600281146154ac576154c8565b600191505061088d565b60ff8411156154bd576154bd614e5e565b50506001821b61088d565b5060208310610133831016604e8410600b84101617156154eb575081810a61088d565b6154f5838361540f565b807fffffffffffffffffffffffffffffffffffffffffffffffffffffffffffffffff0482111561552757615527614e5e565b029392505050565b6000610c3b8383615470565b60008282101561554d5761554d614e5e565b500390565b600073ffffffffffffffffffffffffffffffffffffffff808816835280871660208401525084604083015283606083015260a0608083015261559760a08301846146b8565b979650505050505050565b6000816155b1576155b1614e5e565b507fffffffffffffffffffffffffffffffffffffffffffffffffffffffffffffffff0190565b7f4e487b7100000000000000000000000000000000000000000000000000000000600052603160045260246000fdfe68747470733a2f2f6e6f72692e636f6d2f6170692f72656d6f76616c2f7b69647d2e6a736f6ea264697066735822122034681538c42681ea548aceb1362bf80c4392a4d569f89e3ddb1507171675d18164736f6c634300080f0033",
  "linkReferences": {},
  "deployedLinkReferences": {}
}