{
  "_format": "hh-sol-artifact-1",
  "contractName": "Removal",
  "sourceName": "contracts/Removal.sol",
  "abi": [
    {
      "anonymous": false,
      "inputs": [
        {
          "indexed": true,
          "internalType": "address",
          "name": "account",
          "type": "address"
        },
        {
          "indexed": true,
          "internalType": "address",
          "name": "operator",
          "type": "address"
        },
        {
          "indexed": false,
          "internalType": "bool",
          "name": "approved",
          "type": "bool"
        }
      ],
      "name": "ApprovalForAll",
      "type": "event"
    },
    {
      "anonymous": false,
      "inputs": [
        {
          "indexed": false,
          "internalType": "address",
          "name": "account",
          "type": "address"
        }
      ],
      "name": "Paused",
      "type": "event"
    },
    {
      "anonymous": false,
      "inputs": [
        {
          "indexed": true,
          "internalType": "bytes32",
          "name": "role",
          "type": "bytes32"
        },
        {
          "indexed": true,
          "internalType": "bytes32",
          "name": "previousAdminRole",
          "type": "bytes32"
        },
        {
          "indexed": true,
          "internalType": "bytes32",
          "name": "newAdminRole",
          "type": "bytes32"
        }
      ],
      "name": "RoleAdminChanged",
      "type": "event"
    },
    {
      "anonymous": false,
      "inputs": [
        {
          "indexed": true,
          "internalType": "bytes32",
          "name": "role",
          "type": "bytes32"
        },
        {
          "indexed": true,
          "internalType": "address",
          "name": "account",
          "type": "address"
        },
        {
          "indexed": true,
          "internalType": "address",
          "name": "sender",
          "type": "address"
        }
      ],
      "name": "RoleGranted",
      "type": "event"
    },
    {
      "anonymous": false,
      "inputs": [
        {
          "indexed": true,
          "internalType": "bytes32",
          "name": "role",
          "type": "bytes32"
        },
        {
          "indexed": true,
          "internalType": "address",
          "name": "account",
          "type": "address"
        },
        {
          "indexed": true,
          "internalType": "address",
          "name": "sender",
          "type": "address"
        }
      ],
      "name": "RoleRevoked",
      "type": "event"
    },
    {
      "anonymous": false,
      "inputs": [
        {
          "indexed": true,
          "internalType": "address",
          "name": "operator",
          "type": "address"
        },
        {
          "indexed": true,
          "internalType": "address",
          "name": "from",
          "type": "address"
        },
        {
          "indexed": true,
          "internalType": "address",
          "name": "to",
          "type": "address"
        },
        {
          "indexed": false,
          "internalType": "uint256[]",
          "name": "ids",
          "type": "uint256[]"
        },
        {
          "indexed": false,
          "internalType": "uint256[]",
          "name": "values",
          "type": "uint256[]"
        }
      ],
      "name": "TransferBatch",
      "type": "event"
    },
    {
      "anonymous": false,
      "inputs": [
        {
          "indexed": true,
          "internalType": "address",
          "name": "operator",
          "type": "address"
        },
        {
          "indexed": true,
          "internalType": "address",
          "name": "from",
          "type": "address"
        },
        {
          "indexed": true,
          "internalType": "address",
          "name": "to",
          "type": "address"
        },
        {
          "indexed": false,
          "internalType": "uint256",
          "name": "id",
          "type": "uint256"
        },
        {
          "indexed": false,
          "internalType": "uint256",
          "name": "value",
          "type": "uint256"
        }
      ],
      "name": "TransferSingle",
      "type": "event"
    },
    {
      "anonymous": false,
      "inputs": [
        {
          "indexed": false,
          "internalType": "string",
          "name": "value",
          "type": "string"
        },
        {
          "indexed": true,
          "internalType": "uint256",
          "name": "id",
          "type": "uint256"
        }
      ],
      "name": "URI",
      "type": "event"
    },
    {
      "anonymous": false,
      "inputs": [
        {
          "indexed": false,
          "internalType": "address",
          "name": "account",
          "type": "address"
        }
      ],
      "name": "Unpaused",
      "type": "event"
    },
    {
      "inputs": [],
      "name": "DEFAULT_ADMIN_ROLE",
      "outputs": [
        {
          "internalType": "bytes32",
          "name": "",
          "type": "bytes32"
        }
      ],
      "stateMutability": "view",
      "type": "function"
    },
    {
      "inputs": [],
      "name": "MINTER_ROLE",
      "outputs": [
        {
          "internalType": "bytes32",
          "name": "",
          "type": "bytes32"
        }
      ],
      "stateMutability": "view",
      "type": "function"
    },
    {
      "inputs": [],
      "name": "PAUSER_ROLE",
      "outputs": [
        {
          "internalType": "bytes32",
          "name": "",
          "type": "bytes32"
        }
      ],
      "stateMutability": "view",
      "type": "function"
    },
    {
      "inputs": [
        {
          "internalType": "address",
          "name": "account",
          "type": "address"
        },
        {
          "internalType": "uint256",
          "name": "id",
          "type": "uint256"
        }
      ],
      "name": "balanceOf",
      "outputs": [
        {
          "internalType": "uint256",
          "name": "",
          "type": "uint256"
        }
      ],
      "stateMutability": "view",
      "type": "function"
    },
    {
      "inputs": [
        {
          "internalType": "address[]",
          "name": "accounts",
          "type": "address[]"
        },
        {
          "internalType": "uint256[]",
          "name": "ids",
          "type": "uint256[]"
        }
      ],
      "name": "balanceOfBatch",
      "outputs": [
        {
          "internalType": "uint256[]",
          "name": "",
          "type": "uint256[]"
        }
      ],
      "stateMutability": "view",
      "type": "function"
    },
    {
      "inputs": [
        {
          "internalType": "address",
          "name": "account",
          "type": "address"
        },
        {
          "internalType": "uint256",
          "name": "id",
          "type": "uint256"
        },
        {
          "internalType": "uint256",
          "name": "value",
          "type": "uint256"
        }
      ],
      "name": "burn",
      "outputs": [],
      "stateMutability": "nonpayable",
      "type": "function"
    },
    {
      "inputs": [
        {
          "internalType": "address",
          "name": "account",
          "type": "address"
        },
        {
          "internalType": "uint256[]",
          "name": "ids",
          "type": "uint256[]"
        },
        {
          "internalType": "uint256[]",
          "name": "values",
          "type": "uint256[]"
        }
      ],
      "name": "burnBatch",
      "outputs": [],
      "stateMutability": "nonpayable",
      "type": "function"
    },
    {
      "inputs": [
        {
          "internalType": "uint256",
          "name": "tokenId",
          "type": "uint256"
        }
      ],
      "name": "countryCodeFromTokenId",
      "outputs": [
        {
          "internalType": "string",
          "name": "",
          "type": "string"
        }
      ],
      "stateMutability": "view",
      "type": "function"
    },
    {
      "inputs": [
        {
          "internalType": "uint256",
          "name": "id",
          "type": "uint256"
        }
      ],
      "name": "exists",
      "outputs": [
        {
          "internalType": "bool",
          "name": "",
          "type": "bool"
        }
      ],
      "stateMutability": "view",
      "type": "function"
    },
    {
      "inputs": [
        {
          "internalType": "bytes32",
          "name": "role",
          "type": "bytes32"
        }
      ],
      "name": "getRoleAdmin",
      "outputs": [
        {
          "internalType": "bytes32",
          "name": "",
          "type": "bytes32"
        }
      ],
      "stateMutability": "view",
      "type": "function"
    },
    {
      "inputs": [
        {
          "internalType": "bytes32",
          "name": "role",
          "type": "bytes32"
        },
        {
          "internalType": "uint256",
          "name": "index",
          "type": "uint256"
        }
      ],
      "name": "getRoleMember",
      "outputs": [
        {
          "internalType": "address",
          "name": "",
          "type": "address"
        }
      ],
      "stateMutability": "view",
      "type": "function"
    },
    {
      "inputs": [
        {
          "internalType": "bytes32",
          "name": "role",
          "type": "bytes32"
        }
      ],
      "name": "getRoleMemberCount",
      "outputs": [
        {
          "internalType": "uint256",
          "name": "",
          "type": "uint256"
        }
      ],
      "stateMutability": "view",
      "type": "function"
    },
    {
      "inputs": [
        {
          "internalType": "bytes32",
          "name": "role",
          "type": "bytes32"
        },
        {
          "internalType": "address",
          "name": "account",
          "type": "address"
        }
      ],
      "name": "grantRole",
      "outputs": [],
      "stateMutability": "nonpayable",
      "type": "function"
    },
    {
      "inputs": [
        {
          "internalType": "bytes32",
          "name": "role",
          "type": "bytes32"
        },
        {
          "internalType": "address",
          "name": "account",
          "type": "address"
        }
      ],
      "name": "hasRole",
      "outputs": [
        {
          "internalType": "bool",
          "name": "",
          "type": "bool"
        }
      ],
      "stateMutability": "view",
      "type": "function"
    },
    {
      "inputs": [],
      "name": "initialize",
      "outputs": [],
      "stateMutability": "nonpayable",
      "type": "function"
    },
    {
      "inputs": [
        {
          "internalType": "string",
          "name": "uri",
          "type": "string"
        }
      ],
      "name": "initialize",
      "outputs": [],
      "stateMutability": "nonpayable",
      "type": "function"
    },
    {
      "inputs": [
        {
          "internalType": "address",
          "name": "account",
          "type": "address"
        },
        {
          "internalType": "address",
          "name": "operator",
          "type": "address"
        }
      ],
      "name": "isApprovedForAll",
      "outputs": [
        {
          "internalType": "bool",
          "name": "",
          "type": "bool"
        }
      ],
      "stateMutability": "view",
      "type": "function"
    },
    {
      "inputs": [
        {
          "internalType": "uint256",
          "name": "tokenId",
          "type": "uint256"
        }
      ],
      "name": "methodologyFromTokenId",
      "outputs": [
        {
          "internalType": "uint256",
          "name": "",
          "type": "uint256"
        }
      ],
      "stateMutability": "view",
      "type": "function"
    },
    {
      "inputs": [
        {
          "internalType": "uint256",
          "name": "tokenId",
          "type": "uint256"
        }
      ],
      "name": "methodologyVersionFromTokenId",
      "outputs": [
        {
          "internalType": "uint256",
          "name": "",
          "type": "uint256"
        }
      ],
      "stateMutability": "view",
      "type": "function"
    },
    {
      "inputs": [
        {
          "internalType": "address",
          "name": "to",
          "type": "address"
        },
        {
          "internalType": "uint256",
          "name": "id",
          "type": "uint256"
        },
        {
          "internalType": "uint256",
          "name": "amount",
          "type": "uint256"
        },
        {
          "internalType": "bytes",
          "name": "data",
          "type": "bytes"
        }
      ],
      "name": "mint",
      "outputs": [],
      "stateMutability": "nonpayable",
      "type": "function"
    },
    {
      "inputs": [
        {
          "internalType": "address",
          "name": "to",
          "type": "address"
        },
        {
          "internalType": "uint256[]",
          "name": "amounts",
          "type": "uint256[]"
        },
        {
          "internalType": "uint256[]",
          "name": "ids",
          "type": "uint256[]"
        },
        {
          "internalType": "bytes",
          "name": "data",
          "type": "bytes"
        }
      ],
      "name": "mintBatch",
      "outputs": [],
      "stateMutability": "nonpayable",
      "type": "function"
    },
    {
      "inputs": [],
      "name": "name",
      "outputs": [
        {
          "internalType": "string",
          "name": "",
          "type": "string"
        }
      ],
      "stateMutability": "view",
      "type": "function"
    },
    {
      "inputs": [
        {
          "internalType": "uint256",
          "name": "",
          "type": "uint256"
        }
      ],
      "name": "orderedTokenIds",
      "outputs": [
        {
          "internalType": "uint256",
          "name": "",
          "type": "uint256"
        }
      ],
      "stateMutability": "view",
      "type": "function"
    },
    {
      "inputs": [
        {
          "internalType": "uint256",
          "name": "tokenId",
          "type": "uint256"
        }
      ],
      "name": "parcelIdFromTokenId",
      "outputs": [
        {
          "internalType": "uint256",
          "name": "",
          "type": "uint256"
        }
      ],
      "stateMutability": "view",
      "type": "function"
    },
    {
      "inputs": [],
      "name": "pause",
      "outputs": [],
      "stateMutability": "nonpayable",
      "type": "function"
    },
    {
      "inputs": [],
      "name": "paused",
      "outputs": [
        {
          "internalType": "bool",
          "name": "",
          "type": "bool"
        }
      ],
      "stateMutability": "view",
      "type": "function"
    },
    {
      "inputs": [
        {
          "internalType": "bytes32",
          "name": "role",
          "type": "bytes32"
        },
        {
          "internalType": "address",
          "name": "account",
          "type": "address"
        }
      ],
      "name": "renounceRole",
      "outputs": [],
      "stateMutability": "nonpayable",
      "type": "function"
    },
    {
      "inputs": [
        {
          "internalType": "bytes32",
          "name": "role",
          "type": "bytes32"
        },
        {
          "internalType": "address",
          "name": "account",
          "type": "address"
        }
      ],
      "name": "revokeRole",
      "outputs": [],
      "stateMutability": "nonpayable",
      "type": "function"
    },
    {
      "inputs": [
        {
          "internalType": "address",
          "name": "_from",
          "type": "address"
        },
        {
          "internalType": "address",
          "name": "_to",
          "type": "address"
        },
        {
          "internalType": "uint256[]",
          "name": "_ids",
          "type": "uint256[]"
        },
        {
          "internalType": "uint256[]",
          "name": "_amounts",
          "type": "uint256[]"
        },
        {
          "internalType": "bytes",
          "name": "_data",
          "type": "bytes"
        }
      ],
      "name": "safeBatchTransferFrom",
      "outputs": [],
      "stateMutability": "nonpayable",
      "type": "function"
    },
    {
      "inputs": [
        {
          "internalType": "address",
          "name": "from",
          "type": "address"
        },
        {
          "internalType": "address",
          "name": "to",
          "type": "address"
        },
        {
          "internalType": "uint256",
          "name": "id",
          "type": "uint256"
        },
        {
          "internalType": "uint256",
          "name": "amount",
          "type": "uint256"
        },
        {
          "internalType": "bytes",
          "name": "data",
          "type": "bytes"
        }
      ],
      "name": "safeTransferFrom",
      "outputs": [],
      "stateMutability": "nonpayable",
      "type": "function"
    },
    {
      "inputs": [
        {
          "internalType": "address",
          "name": "owner",
          "type": "address"
        },
        {
          "internalType": "address",
          "name": "operator",
          "type": "address"
        },
        {
          "internalType": "bool",
          "name": "approved",
          "type": "bool"
        }
      ],
      "name": "setApprovalForAll",
      "outputs": [],
      "stateMutability": "nonpayable",
      "type": "function"
    },
    {
      "inputs": [
        {
          "internalType": "address",
          "name": "operator",
          "type": "address"
        },
        {
          "internalType": "bool",
          "name": "approved",
          "type": "bool"
        }
      ],
      "name": "setApprovalForAll",
      "outputs": [],
      "stateMutability": "nonpayable",
      "type": "function"
    },
    {
      "inputs": [
        {
          "internalType": "uint256",
          "name": "tokenId",
          "type": "uint256"
        }
      ],
      "name": "stateCodeFromTokenId",
      "outputs": [
        {
          "internalType": "string",
          "name": "",
          "type": "string"
        }
      ],
      "stateMutability": "view",
      "type": "function"
    },
    {
      "inputs": [
        {
          "internalType": "uint256",
          "name": "tokenId",
          "type": "uint256"
        }
      ],
      "name": "supplierAddressFromTokenId",
      "outputs": [
        {
          "internalType": "address",
          "name": "",
          "type": "address"
        }
      ],
      "stateMutability": "view",
      "type": "function"
    },
    {
      "inputs": [
        {
          "internalType": "bytes4",
          "name": "interfaceId",
          "type": "bytes4"
        }
      ],
      "name": "supportsInterface",
      "outputs": [
        {
          "internalType": "bool",
          "name": "",
          "type": "bool"
        }
      ],
      "stateMutability": "view",
      "type": "function"
    },
    {
      "inputs": [
        {
          "internalType": "uint256",
          "name": "id",
          "type": "uint256"
        }
      ],
      "name": "totalSupply",
      "outputs": [
        {
          "internalType": "uint256",
          "name": "",
          "type": "uint256"
        }
      ],
      "stateMutability": "view",
      "type": "function"
    },
    {
      "inputs": [],
      "name": "unpause",
      "outputs": [],
      "stateMutability": "nonpayable",
      "type": "function"
    },
    {
      "inputs": [
        {
          "internalType": "uint256",
          "name": "",
          "type": "uint256"
        }
      ],
      "name": "uri",
      "outputs": [
        {
          "internalType": "string",
          "name": "",
          "type": "string"
        }
      ],
      "stateMutability": "view",
      "type": "function"
    },
    {
      "inputs": [
        {
          "internalType": "uint256",
          "name": "removalId",
          "type": "uint256"
        }
      ],
      "name": "vintage",
      "outputs": [
        {
          "components": [
            {
              "internalType": "address",
              "name": "supplier",
              "type": "address"
            },
            {
              "internalType": "uint256",
              "name": "vintage",
              "type": "uint256"
            }
          ],
          "internalType": "struct Removal.Vintage",
          "name": "",
          "type": "tuple"
        }
      ],
      "stateMutability": "view",
      "type": "function"
    },
    {
      "inputs": [
        {
          "internalType": "uint256",
          "name": "tokenId",
          "type": "uint256"
        }
      ],
      "name": "vintageFromTokenId",
      "outputs": [
        {
          "internalType": "uint256",
          "name": "",
          "type": "uint256"
        }
      ],
      "stateMutability": "view",
      "type": "function"
    }
  ],
  "bytecode": "0x608060405234801561001057600080fd5b50613616806100206000396000f3fe608060405234801561001057600080fd5b50600436106102475760003560e01c80638456cb591161013b578063d5391393116100b8578063efd57a491161007c578063efd57a49146105c0578063f242432a146105d3578063f5298aca146105e6578063f5d29fbd146105f9578063f62d18881461061a57600080fd5b8063d539139314610534578063d547741f14610549578063e63ab1e91461055c578063e63e5dba14610571578063e985e9c51461058457600080fd5b8063b07fb900116100ff578063b07fb900146104c7578063b2cfa72c146104da578063bd85b039146104ed578063c2ef84981461050e578063ca15c8731461052157600080fd5b80638456cb591461047e5780639010d07c1461048657806391d1485414610499578063a217fddf146104ac578063a22cb465146104b457600080fd5b8063367605ca116101c95780636b20c4541161018d5780636b20c454146103ab5780636dcfe50f146103be578063731133e9146103e9578063737fa589146103fc5780638129fc1c1461047657600080fd5b8063367605ca146103415780633f4ba83a146103545780634e1273f41461035c5780634f558e791461037c5780635c975abb1461039f57600080fd5b80631f7fdffa116102105780631f7fdffa146102d0578063248a9ca3146102e55780632eb2c2d6146103085780632f2ff15d1461031b57806336568abe1461032e57600080fd5b8062fdd58e1461024c57806301ffc9a71461027257806306fdde03146102955780630e89341c146102aa578063115b7099146102bd575b600080fd5b61025f61025a3660046126ab565b61062d565b6040519081526020015b60405180910390f35b6102856102803660046126ed565b6106c9565b6040519015158152602001610269565b61029d6106d4565b6040516102699190612762565b61029d6102b8366004612775565b610763565b61025f6102cb366004612775565b6107f7565b6102e36102de3660046128e1565b610806565b005b61025f6102f3366004612775565b60009081526065602052604090206001015490565b6102e361031636600461297b565b61095d565b6102e3610329366004612a28565b61096a565b6102e361033c366004612a28565b610995565b6102e361034f366004612a66565b610a13565b6102e3610a77565b61036f61036a366004612ab1565b610b0b565b6040516102699190612bb8565b61028561038a366004612775565b60009081526101c36020526040902054151590565b61012d5460ff16610285565b6102e36103b9366004612bcb565b610c34565b6103d16103cc366004612775565b610c77565b6040516001600160a01b039091168152602001610269565b6102e36103f7366004612c40565b610c86565b61045261040a366004612775565b60408051808201909152600080825260208201525060009081526101f66020908152604091829020825180840190935280546001600160a01b03168352600101549082015290565b6040805182516001600160a01b031681526020928301519281019290925201610269565b6102e3610cc6565b6102e3610d97565b6103d1610494366004612c96565b610e29565b6102856104a7366004612a28565b610e48565b61025f600081565b6102e36104c2366004612cb8565b610e73565b61025f6104d5366004612775565b610e7e565b61025f6104e8366004612775565b610e97565b61025f6104fb366004612775565b60009081526101c3602052604090205490565b61029d61051c366004612775565b610ea6565b61025f61052f366004612775565b610f45565b61025f60008051602061359b83398151915281565b6102e3610557366004612a28565b610f5c565b61025f60008051602061357b83398151915281565b61025f61057f366004612775565b610f82565b610285610592366004612ce6565b6001600160a01b03918216600090815260ca6020908152604080832093909416825291909152205460ff1690565b61029d6105ce366004612775565b610f9a565b6102e36105e1366004612d14565b610fab565b6102e36105f4366004612d7c565b610ff0565b61025f610607366004612775565b6101f56020526000908152604090205481565b6102e3610628366004612db1565b611033565b60006001600160a01b03831661069e5760405162461bcd60e51b815260206004820152602b60248201527f455243313135353a2062616c616e636520717565727920666f7220746865207a60448201526a65726f206164647265737360a81b60648201526084015b60405180910390fd5b50600081815260c9602090815260408083206001600160a01b03861684529091529020545b92915050565b60006106c3826110ae565b6101f880546106e290612e01565b80601f016020809104026020016040519081016040528092919081815260200182805461070e90612e01565b801561075b5780601f106107305761010080835404028352916020019161075b565b820191906000526020600020905b81548152906001019060200180831161073e57829003601f168201915b505050505081565b606060cb805461077290612e01565b80601f016020809104026020016040519081016040528092919081815260200182805461079e90612e01565b80156107eb5780601f106107c0576101008083540402835291602001916107eb565b820191906000526020600020905b8154815290600101906020018083116107ce57829003601f168201915b50505050509050919050565b60006106c382602860386110b9565b60008180602001905181019061081c9190612e3c565b905060005b83518110156109225783818151811061083c5761083c612e9a565b60200260200101516101f560006101f75481526020019081526020016000208190555060016101f760008282546108739190612ec6565b925050819055506040518060400160405280876001600160a01b031681526020016108b68684815181106108a9576108a9612e9a565b6020026020010151610e97565b8152506101f660008684815181106108d0576108d0612e9a565b602090810291909101810151825281810192909252604001600020825181546001600160a01b0319166001600160a01b039091161781559101516001909101558061091a81612ede565b915050610821565b5061092f858486856110e4565b61093b85336001610a13565b8060200151156109565761095685826000015185878661095d565b5050505050565b6109568585858585611124565b60008281526065602052604090206001015461098681336111b4565b6109908383611218565b505050565b6001600160a01b0381163314610a055760405162461bcd60e51b815260206004820152602f60248201527f416363657373436f6e74726f6c3a2063616e206f6e6c792072656e6f756e636560448201526e103937b632b9903337b91039b2b63360891b6064820152608401610695565b610a0f828261123a565b5050565b6000610a1f81336111b4565b61012d5460ff1615610a665760405162461bcd60e51b815260206004820152601060248201526f14185d5cd8589b194e881c185d5cd95960821b6044820152606401610695565b610a7184848461125c565b50505050565b610a8f60008051602061357b83398151915233610e48565b610b015760405162461bcd60e51b815260206004820152603b60248201527f455243313135355072657365744d696e7465725061757365723a206d7573742060448201527f686176652070617573657220726f6c6520746f20756e706175736500000000006064820152608401610695565b610b0961133d565b565b60608151835114610b705760405162461bcd60e51b815260206004820152602960248201527f455243313135353a206163636f756e747320616e6420696473206c656e677468604482015268040dad2e6dac2e8c6d60bb1b6064820152608401610695565b600083516001600160401b03811115610b8b57610b8b61278e565b604051908082528060200260200182016040528015610bb4578160200160208202803683370190505b50905060005b8451811015610c2c57610bff858281518110610bd857610bd8612e9a565b6020026020010151858381518110610bf257610bf2612e9a565b602002602001015161062d565b828281518110610c1157610c11612e9a565b6020908102919091010152610c2581612ede565b9050610bba565b509392505050565b6001600160a01b038316331480610c505750610c508333610592565b610c6c5760405162461bcd60e51b815260040161069590612ef9565b6109908383836113d2565b60006106c38260a060606110b9565b610c9e60008051602061359b83398151915233610e48565b610cba5760405162461bcd60e51b815260040161069590612f42565b610a7184848484611563565b600054610100900460ff16610ce15760005460ff1615610ce5565b303b155b610d015760405162461bcd60e51b815260040161069590612f9f565b600054610100900460ff16158015610d23576000805461ffff19166101011790555b610d446040518060600160405280602681526020016135bb60269139611033565b610d4c61163b565b60006101f7556040805180820190915260078082526614995b5bdd985b60ca1b6020909201918252610d81916101f8916125fd565b508015610d94576000805461ff00191690555b50565b610daf60008051602061357b83398151915233610e48565b610e215760405162461bcd60e51b815260206004820152603960248201527f455243313135355072657365744d696e7465725061757365723a206d7573742060448201527f686176652070617573657220726f6c6520746f207061757365000000000000006064820152608401610695565b610b09611662565b6000828152609760205260408120610e4190836116df565b9392505050565b60009182526065602090815260408084206001600160a01b0393909316845291905290205460ff1690565b610a0f33838361125c565b60006004610e8f83600860006110b9565b901c92915050565b60006106c382601060286110b9565b60606000610eb783601060086110b9565b6040805160028082528183019092529192506000919060208201818036833701905050905081601e1a60f81b81600081518110610ef657610ef6612e9a565b60200101906001600160f81b031916908160001a90535081601f1a60f81b81600181518110610f2757610f27612e9a565b60200101906001600160f81b031916908160001a9053509392505050565b60008181526097602052604081206106c3906116eb565b600082815260656020526040902060010154610f7881336111b4565b610990838361123a565b6000610f9182600860006110b9565b60031692915050565b60606000610eb783601060186110b9565b6001600160a01b038516331480610fc75750610fc78533610592565b610fe35760405162461bcd60e51b815260040161069590612ef9565b61095685858585856116f5565b6001600160a01b03831633148061100c575061100c8333610592565b6110285760405162461bcd60e51b815260040161069590612ef9565b610990838383611816565b600054610100900460ff1661104e5760005460ff1615611052565b303b155b61106e5760405162461bcd60e51b815260040161069590612f9f565b600054610100900460ff16158015611090576000805461ffff19166101011790555b6110998261191b565b8015610a0f576000805461ff00191690555050565b60006106c38261195c565b6000808260016110ca8660026130d1565b6110d491906130dd565b901b8516831c9150509392505050565b6110fc60008051602061359b83398151915233610e48565b6111185760405162461bcd60e51b815260040161069590612f42565b610a718484848461199c565b6001600160a01b03851633148061114057506111408533610592565b6111a75760405162461bcd60e51b815260206004820152603260248201527f455243313135353a207472616e736665722063616c6c6572206973206e6f74206044820152711bdddb995c881b9bdc88185c1c1c9bdd995960721b6064820152608401610695565b6109568585858585611af7565b6111be8282610e48565b610a0f576111d6816001600160a01b03166014611ca4565b6111e1836020611ca4565b6040516020016111f29291906130f4565b60408051601f198184030181529082905262461bcd60e51b825261069591600401612762565b6112228282611e3f565b60008281526097602052604090206109909082611ec5565b6112448282611eda565b60008281526097602052604090206109909082611f41565b816001600160a01b0316836001600160a01b031614156112d05760405162461bcd60e51b815260206004820152602960248201527f455243313135353a2073657474696e6720617070726f76616c20737461747573604482015268103337b91039b2b63360b91b6064820152608401610695565b6001600160a01b03838116600081815260ca6020908152604080832094871680845294825291829020805460ff191686151590811790915591519182527f17307eab39ab6107e8899845ad3d59bd9653f200f220920489ca2b5937696c31910160405180910390a3505050565b61012d5460ff166113875760405162461bcd60e51b815260206004820152601460248201527314185d5cd8589b194e881b9bdd081c185d5cd95960621b6044820152606401610695565b61012d805460ff191690557f5db9ee0a495bf2e6ff9c91a7834c1ba4fdd244a5e8aa4e537bd38aeae4b073aa335b6040516001600160a01b03909116815260200160405180910390a1565b6001600160a01b0383166113f85760405162461bcd60e51b815260040161069590613169565b80518251146114195760405162461bcd60e51b8152600401610695906131ac565b600033905061143c81856000868660405180602001604052806000815250611f56565b60005b835181101561150457600084828151811061145c5761145c612e9a565b60200260200101519050600084838151811061147a5761147a612e9a565b602090810291909101810151600084815260c9835260408082206001600160a01b038c1683529093529190912054909150818110156114cb5760405162461bcd60e51b8152600401610695906131f4565b600092835260c9602090815260408085206001600160a01b038b16865290915290922091039055806114fc81612ede565b91505061143f565b5060006001600160a01b0316846001600160a01b0316826001600160a01b03167f4a39dc06d4c0dbc64b70af90fd698a233a518aa5d07e595d983b8c0526c8f7fb8686604051611555929190613238565b60405180910390a450505050565b6001600160a01b0384166115895760405162461bcd60e51b815260040161069590613266565b336115a98160008761159a88611f64565b6115a388611f64565b87611f56565b600084815260c9602090815260408083206001600160a01b0389168452909152812080548592906115db908490612ec6565b909155505060408051858152602081018590526001600160a01b0380881692600092918516917fc3d58168c5ae7397731d063d5bbf3d657854427343f4c083240f7aacaa2d0f62910160405180910390a461095681600087878787611faf565b600054610100900460ff16610b095760405162461bcd60e51b8152600401610695906132a7565b61012d5460ff16156116a95760405162461bcd60e51b815260206004820152601060248201526f14185d5cd8589b194e881c185d5cd95960821b6044820152606401610695565b61012d805460ff191660011790557f62e78cea01bee320cd4e420270b5ea74000d11b0c9f74754ebdbfc544b05a2586113b53390565b6000610e41838361210b565b60006106c3825490565b6001600160a01b03841661171b5760405162461bcd60e51b8152600401610695906132f2565b3361172b81878761159a88611f64565b600084815260c9602090815260408083206001600160a01b038a1684529091529020548381101561176e5760405162461bcd60e51b815260040161069590613337565b600085815260c9602090815260408083206001600160a01b038b81168552925280832087850390559088168252812080548692906117ad908490612ec6565b909155505060408051868152602081018690526001600160a01b03808916928a821692918616917fc3d58168c5ae7397731d063d5bbf3d657854427343f4c083240f7aacaa2d0f62910160405180910390a461180d828888888888611faf565b50505050505050565b6001600160a01b03831661183c5760405162461bcd60e51b815260040161069590613169565b3361186b8185600061184d87611f64565b61185687611f64565b60405180602001604052806000815250611f56565b600083815260c9602090815260408083206001600160a01b0388168452909152902054828110156118ae5760405162461bcd60e51b8152600401610695906131f4565b600084815260c9602090815260408083206001600160a01b03898116808652918452828520888703905582518981529384018890529092908616917fc3d58168c5ae7397731d063d5bbf3d657854427343f4c083240f7aacaa2d0f62910160405180910390a45050505050565b600054610100900460ff166119425760405162461bcd60e51b8152600401610695906132a7565b61194b81612135565b611953612165565b610d9481612199565b60006001600160e01b03198216636cdb3d1360e11b148061198d57506001600160e01b031982166303a24d0760e21b145b806106c357506106c3826121fb565b6001600160a01b0384166119c25760405162461bcd60e51b815260040161069590613266565b81518351146119e35760405162461bcd60e51b8152600401610695906131ac565b336119f381600087878787611f56565b60005b8451811015611a8f57838181518110611a1157611a11612e9a565b602002602001015160c96000878481518110611a2f57611a2f612e9a565b602002602001015181526020019081526020016000206000886001600160a01b03166001600160a01b031681526020019081526020016000206000828254611a779190612ec6565b90915550819050611a8781612ede565b9150506119f6565b50846001600160a01b031660006001600160a01b0316826001600160a01b03167f4a39dc06d4c0dbc64b70af90fd698a233a518aa5d07e595d983b8c0526c8f7fb8787604051611ae0929190613238565b60405180910390a461095681600087878787612220565b8151835114611b185760405162461bcd60e51b8152600401610695906131ac565b6001600160a01b038416611b3e5760405162461bcd60e51b8152600401610695906132f2565b33611b4d818787878787611f56565b60005b8451811015611c36576000858281518110611b6d57611b6d612e9a565b602002602001015190506000858381518110611b8b57611b8b612e9a565b602090810291909101810151600084815260c9835260408082206001600160a01b038e168352909352919091205490915081811015611bdc5760405162461bcd60e51b815260040161069590613337565b600083815260c9602090815260408083206001600160a01b038e8116855292528083208585039055908b16825281208054849290611c1b908490612ec6565b9250508190555050505080611c2f90612ede565b9050611b50565b50846001600160a01b0316866001600160a01b0316826001600160a01b03167f4a39dc06d4c0dbc64b70af90fd698a233a518aa5d07e595d983b8c0526c8f7fb8787604051611c86929190613238565b60405180910390a4611c9c818787878787612220565b505050505050565b60606000611cb3836002613381565b611cbe906002612ec6565b6001600160401b03811115611cd557611cd561278e565b6040519080825280601f01601f191660200182016040528015611cff576020820181803683370190505b509050600360fc1b81600081518110611d1a57611d1a612e9a565b60200101906001600160f81b031916908160001a905350600f60fb1b81600181518110611d4957611d49612e9a565b60200101906001600160f81b031916908160001a9053506000611d6d846002613381565b611d78906001612ec6565b90505b6001811115611df0576f181899199a1a9b1b9c1cb0b131b232b360811b85600f1660108110611dac57611dac612e9a565b1a60f81b828281518110611dc257611dc2612e9a565b60200101906001600160f81b031916908160001a90535060049490941c93611de9816133a0565b9050611d7b565b508315610e415760405162461bcd60e51b815260206004820181905260248201527f537472696e67733a20686578206c656e67746820696e73756666696369656e746044820152606401610695565b611e498282610e48565b610a0f5760008281526065602090815260408083206001600160a01b03851684529091529020805460ff19166001179055611e813390565b6001600160a01b0316816001600160a01b0316837f2f8788117e7eff1d82e926ec794901d17c78024a50270940304540a733656f0d60405160405180910390a45050565b6000610e41836001600160a01b0384166122db565b611ee48282610e48565b15610a0f5760008281526065602090815260408083206001600160a01b0385168085529252808320805460ff1916905551339285917ff6391f5c32d9c69d2a47ea670b442974b53935d1edc7fd64eb21e047a839171b9190a45050565b6000610e41836001600160a01b03841661232a565b611c9c86868686868661241d565b60408051600180825281830190925260609160009190602080830190803683370190505090508281600081518110611f9e57611f9e612e9a565b602090810291909101015292915050565b6001600160a01b0384163b15611c9c5760405163f23a6e6160e01b81526001600160a01b0385169063f23a6e6190611ff390899089908890889088906004016133b7565b6020604051808303816000875af192505050801561202e575060408051601f3d908101601f1916820190925261202b918101906133fc565b60015b6120db5761203a613419565b806308c379a01415612074575061204f613435565b8061205a5750612076565b8060405162461bcd60e51b81526004016106959190612762565b505b60405162461bcd60e51b815260206004820152603460248201527f455243313135353a207472616e7366657220746f206e6f6e20455243313135356044820152732932b1b2b4bb32b91034b6b83632b6b2b73a32b960611b6064820152608401610695565b6001600160e01b0319811663f23a6e6160e01b1461180d5760405162461bcd60e51b8152600401610695906134be565b600082600001828154811061212257612122612e9a565b9060005260206000200154905092915050565b600054610100900460ff1661215c5760405162461bcd60e51b8152600401610695906132a7565b610d9481612539565b600054610100900460ff1661218c5760405162461bcd60e51b8152600401610695906132a7565b61012d805460ff19169055565b600054610100900460ff166121c05760405162461bcd60e51b8152600401610695906132a7565b6121cb60003361254c565b6121e360008051602061359b8339815191523361254c565b610d9460008051602061357b8339815191523361254c565b60006001600160e01b03198216635a05180f60e01b14806106c357506106c382612556565b6001600160a01b0384163b15611c9c5760405163bc197c8160e01b81526001600160a01b0385169063bc197c81906122649089908990889088908890600401613506565b6020604051808303816000875af192505050801561229f575060408051601f3d908101601f1916820190925261229c918101906133fc565b60015b6122ab5761203a613419565b6001600160e01b0319811663bc197c8160e01b1461180d5760405162461bcd60e51b8152600401610695906134be565b6000818152600183016020526040812054612322575081546001818101845560008481526020808220909301849055845484825282860190935260409020919091556106c3565b5060006106c3565b6000818152600183016020526040812054801561241357600061234e6001836130dd565b8554909150600090612362906001906130dd565b90508181146123c757600086600001828154811061238257612382612e9a565b90600052602060002001549050808760000184815481106123a5576123a5612e9a565b6000918252602080832090910192909255918252600188019052604090208390555b85548690806123d8576123d8613564565b6001900381819060005260206000200160009055905585600101600086815260200190815260200160002060009055600193505050506106c3565b60009150506106c3565b61242b86868686868661258b565b6001600160a01b0385166124b35760005b83518110156124b15782818151811061245757612457612e9a565b60200260200101516101c3600086848151811061247657612476612e9a565b60200260200101518152602001908152602001600020600082825461249b9190612ec6565b909155506124aa905081612ede565b905061243c565b505b6001600160a01b038416611c9c5760005b835181101561180d578281815181106124df576124df612e9a565b60200260200101516101c360008684815181106124fe576124fe612e9a565b60200260200101518152602001908152602001600020600082825461252391906130dd565b90915550612532905081612ede565b90506124c4565b8051610a0f9060cb9060208401906125fd565b610a0f8282611218565b60006001600160e01b03198216637965db0b60e01b14806106c357506301ffc9a760e01b6001600160e01b03198316146106c3565b611c9c86868686868661012d5460ff1615611c9c5760405162461bcd60e51b815260206004820152602c60248201527f455243313135355061757361626c653a20746f6b656e207472616e736665722060448201526b1dda1a5b19481c185d5cd95960a21b6064820152608401610695565b82805461260990612e01565b90600052602060002090601f01602090048101928261262b5760008555612671565b82601f1061264457805160ff1916838001178555612671565b82800160010185558215612671579182015b82811115612671578251825591602001919060010190612656565b5061267d929150612681565b5090565b5b8082111561267d5760008155600101612682565b6001600160a01b0381168114610d9457600080fd5b600080604083850312156126be57600080fd5b82356126c981612696565b946020939093013593505050565b6001600160e01b031981168114610d9457600080fd5b6000602082840312156126ff57600080fd5b8135610e41816126d7565b60005b8381101561272557818101518382015260200161270d565b83811115610a715750506000910152565b6000815180845261274e81602086016020860161270a565b601f01601f19169290920160200192915050565b602081526000610e416020830184612736565b60006020828403121561278757600080fd5b5035919050565b634e487b7160e01b600052604160045260246000fd5b601f8201601f191681016001600160401b03811182821017156127c9576127c961278e565b6040525050565b60006001600160401b038211156127e9576127e961278e565b5060051b60200190565b600082601f83011261280457600080fd5b81356020612811826127d0565b60405161281e82826127a4565b83815260059390931b850182019282810191508684111561283e57600080fd5b8286015b848110156128595780358352918301918301612842565b509695505050505050565b60006001600160401b0383111561287d5761287d61278e565b604051612894601f8501601f1916602001826127a4565b8091508381528484840111156128a957600080fd5b83836020830137600060208583010152509392505050565b600082601f8301126128d257600080fd5b610e4183833560208501612864565b600080600080608085870312156128f757600080fd5b843561290281612696565b935060208501356001600160401b038082111561291e57600080fd5b61292a888389016127f3565b9450604087013591508082111561294057600080fd5b61294c888389016127f3565b9350606087013591508082111561296257600080fd5b5061296f878288016128c1565b91505092959194509250565b600080600080600060a0868803121561299357600080fd5b853561299e81612696565b945060208601356129ae81612696565b935060408601356001600160401b03808211156129ca57600080fd5b6129d689838a016127f3565b945060608801359150808211156129ec57600080fd5b6129f889838a016127f3565b93506080880135915080821115612a0e57600080fd5b50612a1b888289016128c1565b9150509295509295909350565b60008060408385031215612a3b57600080fd5b823591506020830135612a4d81612696565b809150509250929050565b8015158114610d9457600080fd5b600080600060608486031215612a7b57600080fd5b8335612a8681612696565b92506020840135612a9681612696565b91506040840135612aa681612a58565b809150509250925092565b60008060408385031215612ac457600080fd5b82356001600160401b0380821115612adb57600080fd5b818501915085601f830112612aef57600080fd5b81356020612afc826127d0565b604051612b0982826127a4565b83815260059390931b8501820192828101915089841115612b2957600080fd5b948201945b83861015612b50578535612b4181612696565b82529482019490820190612b2e565b96505086013592505080821115612b6657600080fd5b50612b73858286016127f3565b9150509250929050565b600081518084526020808501945080840160005b83811015612bad57815187529582019590820190600101612b91565b509495945050505050565b602081526000610e416020830184612b7d565b600080600060608486031215612be057600080fd5b8335612beb81612696565b925060208401356001600160401b0380821115612c0757600080fd5b612c13878388016127f3565b93506040860135915080821115612c2957600080fd5b50612c36868287016127f3565b9150509250925092565b60008060008060808587031215612c5657600080fd5b8435612c6181612696565b9350602085013592506040850135915060608501356001600160401b03811115612c8a57600080fd5b61296f878288016128c1565b60008060408385031215612ca957600080fd5b50508035926020909101359150565b60008060408385031215612ccb57600080fd5b8235612cd681612696565b91506020830135612a4d81612a58565b60008060408385031215612cf957600080fd5b8235612d0481612696565b91506020830135612a4d81612696565b600080600080600060a08688031215612d2c57600080fd5b8535612d3781612696565b94506020860135612d4781612696565b9350604086013592506060860135915060808601356001600160401b03811115612d7057600080fd5b612a1b888289016128c1565b600080600060608486031215612d9157600080fd5b8335612d9c81612696565b95602085013595506040909401359392505050565b600060208284031215612dc357600080fd5b81356001600160401b03811115612dd957600080fd5b8201601f81018413612dea57600080fd5b612df984823560208401612864565b949350505050565b600181811c90821680612e1557607f821691505b60208210811415612e3657634e487b7160e01b600052602260045260246000fd5b50919050565b600060408284031215612e4e57600080fd5b604051604081018181106001600160401b0382111715612e7057612e7061278e565b6040528251612e7e81612696565b81526020830151612e8e81612a58565b60208201529392505050565b634e487b7160e01b600052603260045260246000fd5b634e487b7160e01b600052601160045260246000fd5b60008219821115612ed957612ed9612eb0565b500190565b6000600019821415612ef257612ef2612eb0565b5060010190565b60208082526029908201527f455243313135353a2063616c6c6572206973206e6f74206f776e6572206e6f7260408201526808185c1c1c9bdd995960ba1b606082015260800190565b60208082526038908201527f455243313135355072657365744d696e7465725061757365723a206d7573742060408201527f68617665206d696e74657220726f6c6520746f206d696e740000000000000000606082015260800190565b6020808252602e908201527f496e697469616c697a61626c653a20636f6e747261637420697320616c72656160408201526d191e481a5b9a5d1a585b1a5e995960921b606082015260800190565b600181815b8085111561302857816000190482111561300e5761300e612eb0565b8085161561301b57918102915b93841c9390800290612ff2565b509250929050565b60008261303f575060016106c3565b8161304c575060006106c3565b8160018114613062576002811461306c57613088565b60019150506106c3565b60ff84111561307d5761307d612eb0565b50506001821b6106c3565b5060208310610133831016604e8410600b84101617156130ab575081810a6106c3565b6130b58383612fed565b80600019048211156130c9576130c9612eb0565b029392505050565b6000610e418383613030565b6000828210156130ef576130ef612eb0565b500390565b7f416363657373436f6e74726f6c3a206163636f756e742000000000000000000081526000835161312c81601785016020880161270a565b7001034b99036b4b9b9b4b733903937b6329607d1b601791840191820152835161315d81602884016020880161270a565b01602801949350505050565b60208082526023908201527f455243313135353a206275726e2066726f6d20746865207a65726f206164647260408201526265737360e81b606082015260800190565b60208082526028908201527f455243313135353a2069647320616e6420616d6f756e7473206c656e677468206040820152670dad2e6dac2e8c6d60c31b606082015260800190565b60208082526024908201527f455243313135353a206275726e20616d6f756e7420657863656564732062616c604082015263616e636560e01b606082015260800190565b60408152600061324b6040830185612b7d565b828103602084015261325d8185612b7d565b95945050505050565b60208082526021908201527f455243313135353a206d696e7420746f20746865207a65726f206164647265736040820152607360f81b606082015260800190565b6020808252602b908201527f496e697469616c697a61626c653a20636f6e7472616374206973206e6f74206960408201526a6e697469616c697a696e6760a81b606082015260800190565b60208082526025908201527f455243313135353a207472616e7366657220746f20746865207a65726f206164604082015264647265737360d81b606082015260800190565b6020808252602a908201527f455243313135353a20696e73756666696369656e742062616c616e636520666f60408201526939103a3930b739b332b960b11b606082015260800190565b600081600019048311821515161561339b5761339b612eb0565b500290565b6000816133af576133af612eb0565b506000190190565b6001600160a01b03868116825285166020820152604081018490526060810183905260a0608082018190526000906133f190830184612736565b979650505050505050565b60006020828403121561340e57600080fd5b8151610e41816126d7565b600060033d11156134325760046000803e5060005160e01c5b90565b600060443d10156134435790565b6040516003193d81016004833e81513d6001600160401b03816024840111818411171561347257505050505090565b828501915081518181111561348a5750505050505090565b843d87010160208285010111156134a45750505050505090565b6134b3602082860101876127a4565b509095945050505050565b60208082526028908201527f455243313135353a204552433131353552656365697665722072656a656374656040820152676420746f6b656e7360c01b606082015260800190565b6001600160a01b0386811682528516602082015260a06040820181905260009061353290830186612b7d565b82810360608401526135448186612b7d565b905082810360808401526135588185612736565b98975050505050505050565b634e487b7160e01b600052603160045260246000fdfe65d7a28e3265b37a6474929f336521b332c1681b933f6cb9f3376673440d862a9f2df0fed2c77648de5860a4cc508cd0818c85b8b8a1ab4ceeef8d981c8956a668747470733a2f2f6e6f72692e636f6d2f6170692f72656d6f76616c2f7b69647d2e6a736f6ea264697066735822122025cae6ba4125b6c011e0729625b1a7fef64b819b0100c489d4e69a5ce860242764736f6c634300080c0033",
  "linkReferences": {},
  "deployedLinkReferences": {}
}