{
  "_format": "hh-sol-artifact-1",
  "contractName": "Removal",
  "sourceName": "contracts/Removal.sol",
  "abi": [
    {
      "inputs": [],
      "stateMutability": "nonpayable",
      "type": "constructor"
    },
    {
      "inputs": [
        {
          "internalType": "string",
          "name": "array1Name",
          "type": "string"
        },
        {
          "internalType": "string",
          "name": "array2Name",
          "type": "string"
        }
      ],
      "name": "ArrayLengthMismatch",
      "type": "error"
    },
    {
      "inputs": [
        {
          "internalType": "RemovalId",
          "name": "tokenId",
          "type": "uint256"
        }
      ],
      "name": "TokenIdExists",
      "type": "error"
    },
    {
      "anonymous": false,
      "inputs": [
        {
          "indexed": true,
          "internalType": "address",
          "name": "account",
          "type": "address"
        },
        {
          "indexed": true,
          "internalType": "address",
          "name": "operator",
          "type": "address"
        },
        {
          "indexed": false,
          "internalType": "bool",
          "name": "approved",
          "type": "bool"
        }
      ],
      "name": "ApprovalForAll",
      "type": "event"
    },
    {
      "anonymous": false,
      "inputs": [
        {
          "indexed": false,
          "internalType": "uint8",
          "name": "version",
          "type": "uint8"
        }
      ],
      "name": "Initialized",
      "type": "event"
    },
    {
      "anonymous": false,
      "inputs": [
        {
          "indexed": false,
          "internalType": "address",
          "name": "account",
          "type": "address"
        }
      ],
      "name": "Paused",
      "type": "event"
    },
    {
      "anonymous": false,
      "inputs": [
        {
          "indexed": true,
          "internalType": "bytes32",
          "name": "role",
          "type": "bytes32"
        },
        {
          "indexed": true,
          "internalType": "bytes32",
          "name": "previousAdminRole",
          "type": "bytes32"
        },
        {
          "indexed": true,
          "internalType": "bytes32",
          "name": "newAdminRole",
          "type": "bytes32"
        }
      ],
      "name": "RoleAdminChanged",
      "type": "event"
    },
    {
      "anonymous": false,
      "inputs": [
        {
          "indexed": true,
          "internalType": "bytes32",
          "name": "role",
          "type": "bytes32"
        },
        {
          "indexed": true,
          "internalType": "address",
          "name": "account",
          "type": "address"
        },
        {
          "indexed": true,
          "internalType": "address",
          "name": "sender",
          "type": "address"
        }
      ],
      "name": "RoleGranted",
      "type": "event"
    },
    {
      "anonymous": false,
      "inputs": [
        {
          "indexed": true,
          "internalType": "bytes32",
          "name": "role",
          "type": "bytes32"
        },
        {
          "indexed": true,
          "internalType": "address",
          "name": "account",
          "type": "address"
        },
        {
          "indexed": true,
          "internalType": "address",
          "name": "sender",
          "type": "address"
        }
      ],
      "name": "RoleRevoked",
      "type": "event"
    },
    {
      "anonymous": false,
      "inputs": [
        {
          "indexed": true,
          "internalType": "address",
          "name": "operator",
          "type": "address"
        },
        {
          "indexed": true,
          "internalType": "address",
          "name": "from",
          "type": "address"
        },
        {
          "indexed": true,
          "internalType": "address",
          "name": "to",
          "type": "address"
        },
        {
          "indexed": false,
          "internalType": "uint256[]",
          "name": "ids",
          "type": "uint256[]"
        },
        {
          "indexed": false,
          "internalType": "uint256[]",
          "name": "values",
          "type": "uint256[]"
        }
      ],
      "name": "TransferBatch",
      "type": "event"
    },
    {
      "anonymous": false,
      "inputs": [
        {
          "indexed": true,
          "internalType": "address",
          "name": "operator",
          "type": "address"
        },
        {
          "indexed": true,
          "internalType": "address",
          "name": "from",
          "type": "address"
        },
        {
          "indexed": true,
          "internalType": "address",
          "name": "to",
          "type": "address"
        },
        {
          "indexed": false,
          "internalType": "uint256",
          "name": "id",
          "type": "uint256"
        },
        {
          "indexed": false,
          "internalType": "uint256",
          "name": "value",
          "type": "uint256"
        }
      ],
      "name": "TransferSingle",
      "type": "event"
    },
    {
      "anonymous": false,
      "inputs": [
        {
          "indexed": false,
          "internalType": "string",
          "name": "value",
          "type": "string"
        },
        {
          "indexed": true,
          "internalType": "uint256",
          "name": "id",
          "type": "uint256"
        }
      ],
      "name": "URI",
      "type": "event"
    },
    {
      "anonymous": false,
      "inputs": [
        {
          "indexed": false,
          "internalType": "address",
          "name": "account",
          "type": "address"
        }
      ],
      "name": "Unpaused",
      "type": "event"
    },
    {
      "inputs": [],
      "name": "DEFAULT_ADMIN_ROLE",
      "outputs": [
        {
          "internalType": "bytes32",
          "name": "",
          "type": "bytes32"
        }
      ],
      "stateMutability": "view",
      "type": "function"
    },
    {
      "inputs": [],
      "name": "MINTER_AND_LISTER_ROLE",
      "outputs": [
        {
          "internalType": "bytes32",
          "name": "",
          "type": "bytes32"
        }
      ],
      "stateMutability": "view",
      "type": "function"
    },
    {
      "inputs": [],
      "name": "PAUSER_ROLE",
      "outputs": [
        {
          "internalType": "bytes32",
          "name": "",
          "type": "bytes32"
        }
      ],
      "stateMutability": "view",
      "type": "function"
    },
    {
      "inputs": [],
      "name": "RELEASER_ROLE",
      "outputs": [
        {
          "internalType": "bytes32",
          "name": "",
          "type": "bytes32"
        }
      ],
      "stateMutability": "view",
      "type": "function"
    },
    {
      "inputs": [
        {
          "internalType": "address",
          "name": "account",
          "type": "address"
        },
        {
          "internalType": "uint256",
          "name": "id",
          "type": "uint256"
        }
      ],
      "name": "balanceOf",
      "outputs": [
        {
          "internalType": "uint256",
          "name": "",
          "type": "uint256"
        }
      ],
      "stateMutability": "view",
      "type": "function"
    },
    {
      "inputs": [
        {
          "internalType": "address[]",
          "name": "accounts",
          "type": "address[]"
        },
        {
          "internalType": "uint256[]",
          "name": "ids",
          "type": "uint256[]"
        }
      ],
      "name": "balanceOfBatch",
      "outputs": [
        {
          "internalType": "uint256[]",
          "name": "",
          "type": "uint256[]"
        }
      ],
      "stateMutability": "view",
      "type": "function"
    },
    {
      "inputs": [
        {
          "internalType": "address",
          "name": "account",
          "type": "address"
        },
        {
          "internalType": "RemovalId[]",
          "name": "ids",
          "type": "uint256[]"
        }
      ],
      "name": "balanceOfIds",
      "outputs": [
        {
          "internalType": "uint256[]",
          "name": "",
          "type": "uint256[]"
        }
      ],
      "stateMutability": "view",
      "type": "function"
    },
    {
      "inputs": [
        {
          "internalType": "RemovalId[]",
          "name": "removalIds",
          "type": "uint256[]"
        }
      ],
      "name": "batchGetHoldbackPercentages",
      "outputs": [
        {
          "internalType": "uint256[]",
          "name": "",
          "type": "uint256[]"
        }
      ],
      "stateMutability": "view",
      "type": "function"
    },
    {
      "inputs": [],
      "name": "certificateAddress",
      "outputs": [
        {
          "internalType": "address",
          "name": "",
          "type": "address"
        }
      ],
      "stateMutability": "view",
      "type": "function"
    },
    {
      "inputs": [
        {
          "internalType": "bytes",
          "name": "removalData",
          "type": "bytes"
        }
      ],
      "name": "createRemovalId",
      "outputs": [
        {
          "internalType": "RemovalId",
          "name": "",
          "type": "uint256"
        }
      ],
      "stateMutability": "pure",
      "type": "function"
    },
    {
      "inputs": [
        {
          "internalType": "address",
          "name": "owner",
          "type": "address"
        }
      ],
      "name": "cumulativeBalanceOf",
      "outputs": [
        {
          "internalType": "uint256",
          "name": "",
          "type": "uint256"
        }
      ],
      "stateMutability": "view",
      "type": "function"
    },
    {
      "inputs": [
        {
          "internalType": "address[]",
          "name": "accounts",
          "type": "address[]"
        }
      ],
      "name": "cumulativeBalanceOfBatch",
      "outputs": [
        {
          "internalType": "uint256[]",
          "name": "",
          "type": "uint256[]"
        }
      ],
      "stateMutability": "view",
      "type": "function"
    },
    {
      "inputs": [
        {
          "internalType": "address",
          "name": "owner",
          "type": "address"
        },
        {
          "internalType": "RemovalId[]",
          "name": "ids",
          "type": "uint256[]"
        }
      ],
      "name": "cumulativeBalanceOfOwnerSubset",
      "outputs": [
        {
          "internalType": "uint256",
          "name": "",
          "type": "uint256"
        }
      ],
      "stateMutability": "view",
      "type": "function"
    },
    {
      "inputs": [
        {
          "internalType": "uint256",
          "name": "id",
          "type": "uint256"
        }
      ],
      "name": "exists",
      "outputs": [
        {
          "internalType": "bool",
          "name": "",
          "type": "bool"
        }
      ],
      "stateMutability": "view",
      "type": "function"
    },
    {
      "inputs": [
        {
          "internalType": "RemovalId",
          "name": "removalId",
          "type": "uint256"
        }
      ],
      "name": "getProjectIdForRemoval",
      "outputs": [
        {
          "internalType": "uint256",
          "name": "",
          "type": "uint256"
        }
      ],
      "stateMutability": "view",
      "type": "function"
    },
    {
      "inputs": [
        {
          "internalType": "bytes32",
          "name": "role",
          "type": "bytes32"
        }
      ],
      "name": "getRoleAdmin",
      "outputs": [
        {
          "internalType": "bytes32",
          "name": "",
          "type": "bytes32"
        }
      ],
      "stateMutability": "view",
      "type": "function"
    },
    {
      "inputs": [
        {
          "internalType": "bytes32",
          "name": "role",
          "type": "bytes32"
        },
        {
          "internalType": "uint256",
          "name": "index",
          "type": "uint256"
        }
      ],
      "name": "getRoleMember",
      "outputs": [
        {
          "internalType": "address",
          "name": "",
          "type": "address"
        }
      ],
      "stateMutability": "view",
      "type": "function"
    },
    {
      "inputs": [
        {
          "internalType": "bytes32",
          "name": "role",
          "type": "bytes32"
        }
      ],
      "name": "getRoleMemberCount",
      "outputs": [
        {
          "internalType": "uint256",
          "name": "",
          "type": "uint256"
        }
      ],
      "stateMutability": "view",
      "type": "function"
    },
    {
      "inputs": [
        {
          "internalType": "uint256",
          "name": "projectId",
          "type": "uint256"
        }
      ],
      "name": "getScheduleDataForProjectId",
      "outputs": [
        {
          "components": [
            {
              "internalType": "uint256",
              "name": "startTime",
              "type": "uint256"
            },
            {
              "internalType": "address",
              "name": "supplierAddress",
              "type": "address"
            },
            {
              "internalType": "uint256",
              "name": "methodology",
              "type": "uint256"
            },
            {
              "internalType": "uint256",
              "name": "methodologyVersion",
              "type": "uint256"
            }
          ],
          "internalType": "struct Removal.ScheduleData",
          "name": "",
          "type": "tuple"
        }
      ],
      "stateMutability": "view",
      "type": "function"
    },
    {
      "inputs": [
        {
          "internalType": "RemovalId",
          "name": "removalId",
          "type": "uint256"
        }
      ],
      "name": "getScheduleDataForRemovalId",
      "outputs": [
        {
          "components": [
            {
              "internalType": "uint256",
              "name": "startTime",
              "type": "uint256"
            },
            {
              "internalType": "address",
              "name": "supplierAddress",
              "type": "address"
            },
            {
              "internalType": "uint256",
              "name": "methodology",
              "type": "uint256"
            },
            {
              "internalType": "uint256",
              "name": "methodologyVersion",
              "type": "uint256"
            }
          ],
          "internalType": "struct Removal.ScheduleData",
          "name": "",
          "type": "tuple"
        }
      ],
      "stateMutability": "view",
      "type": "function"
    },
    {
      "inputs": [
        {
          "internalType": "bytes32",
          "name": "role",
          "type": "bytes32"
        },
        {
          "internalType": "address",
          "name": "account",
          "type": "address"
        }
      ],
      "name": "grantRole",
      "outputs": [],
      "stateMutability": "nonpayable",
      "type": "function"
    },
    {
      "inputs": [
        {
          "internalType": "bytes32",
          "name": "role",
          "type": "bytes32"
        },
        {
          "internalType": "address",
          "name": "account",
          "type": "address"
        }
      ],
      "name": "hasRole",
      "outputs": [
        {
          "internalType": "bool",
          "name": "",
          "type": "bool"
        }
      ],
      "stateMutability": "view",
      "type": "function"
    },
    {
      "inputs": [],
      "name": "initialize",
      "outputs": [],
      "stateMutability": "nonpayable",
      "type": "function"
    },
    {
      "inputs": [
        {
          "internalType": "address",
          "name": "account",
          "type": "address"
        },
        {
          "internalType": "address",
          "name": "operator",
          "type": "address"
        }
      ],
      "name": "isApprovedForAll",
      "outputs": [
        {
          "internalType": "bool",
          "name": "",
          "type": "bool"
        }
      ],
      "stateMutability": "view",
      "type": "function"
    },
    {
      "inputs": [],
      "name": "marketAddress",
      "outputs": [
        {
          "internalType": "address",
          "name": "",
          "type": "address"
        }
      ],
      "stateMutability": "view",
      "type": "function"
    },
    {
      "inputs": [
        {
          "internalType": "address",
          "name": "to",
          "type": "address"
        },
        {
          "internalType": "uint256[]",
          "name": "amounts",
          "type": "uint256[]"
        },
        {
          "internalType": "RemovalId[]",
          "name": "ids",
          "type": "uint256[]"
        },
        {
          "components": [
            {
              "internalType": "uint256",
              "name": "projectId",
              "type": "uint256"
            },
            {
              "internalType": "uint256",
              "name": "scheduleStartTime",
              "type": "uint256"
            },
            {
              "internalType": "uint8",
              "name": "holdbackPercentage",
              "type": "uint8"
            },
            {
              "internalType": "bool",
              "name": "list",
              "type": "bool"
            }
          ],
          "internalType": "struct BatchMintRemovalsData",
          "name": "data",
          "type": "tuple"
        }
      ],
      "name": "mintBatch",
      "outputs": [],
      "stateMutability": "nonpayable",
      "type": "function"
    },
    {
      "inputs": [
        {
          "internalType": "address",
          "name": "account",
          "type": "address"
        }
      ],
      "name": "numberOfTokensOwnedByAddress",
      "outputs": [
        {
          "internalType": "uint256",
          "name": "",
          "type": "uint256"
        }
      ],
      "stateMutability": "view",
      "type": "function"
    },
    {
      "inputs": [],
      "name": "paused",
      "outputs": [
        {
          "internalType": "bool",
          "name": "",
          "type": "bool"
        }
      ],
      "stateMutability": "view",
      "type": "function"
    },
    {
      "inputs": [
        {
          "internalType": "contract RestrictedNORI",
          "name": "restrictedNori",
          "type": "address"
        },
        {
          "internalType": "contract Market",
          "name": "market",
          "type": "address"
        },
        {
          "internalType": "contract Certificate",
          "name": "certificate",
          "type": "address"
        }
      ],
      "name": "registerContractAddresses",
      "outputs": [],
      "stateMutability": "nonpayable",
      "type": "function"
    },
    {
      "inputs": [
        {
          "internalType": "address",
          "name": "owner",
          "type": "address"
        },
        {
          "internalType": "RemovalId",
          "name": "removalId",
          "type": "uint256"
        },
        {
          "internalType": "uint256",
          "name": "amount",
          "type": "uint256"
        }
      ],
      "name": "release",
      "outputs": [],
      "stateMutability": "nonpayable",
      "type": "function"
    },
    {
      "inputs": [
        {
          "internalType": "bytes32",
          "name": "role",
          "type": "bytes32"
        },
        {
          "internalType": "address",
          "name": "account",
          "type": "address"
        }
      ],
      "name": "renounceRole",
      "outputs": [],
      "stateMutability": "nonpayable",
      "type": "function"
    },
    {
      "inputs": [],
      "name": "restrictedNoriAddress",
      "outputs": [
        {
          "internalType": "address",
          "name": "",
          "type": "address"
        }
      ],
      "stateMutability": "view",
      "type": "function"
    },
    {
      "inputs": [
        {
          "internalType": "bytes32",
          "name": "role",
          "type": "bytes32"
        },
        {
          "internalType": "address",
          "name": "account",
          "type": "address"
        }
      ],
      "name": "revokeRole",
      "outputs": [],
      "stateMutability": "nonpayable",
      "type": "function"
    },
    {
      "inputs": [
        {
          "internalType": "address",
          "name": "from",
          "type": "address"
        },
        {
          "internalType": "address",
          "name": "to",
          "type": "address"
        },
        {
          "internalType": "uint256[]",
          "name": "ids",
          "type": "uint256[]"
        },
        {
          "internalType": "uint256[]",
          "name": "amounts",
          "type": "uint256[]"
        },
        {
          "internalType": "bytes",
          "name": "data",
          "type": "bytes"
        }
      ],
      "name": "safeBatchTransferFrom",
      "outputs": [],
      "stateMutability": "nonpayable",
      "type": "function"
    },
    {
      "inputs": [
        {
          "internalType": "address",
          "name": "from",
          "type": "address"
        },
        {
          "internalType": "address",
          "name": "to",
          "type": "address"
        },
        {
          "internalType": "uint256",
          "name": "id",
          "type": "uint256"
        },
        {
          "internalType": "uint256",
          "name": "amount",
          "type": "uint256"
        },
        {
          "internalType": "bytes",
          "name": "data",
          "type": "bytes"
        }
      ],
      "name": "safeTransferFrom",
      "outputs": [],
      "stateMutability": "nonpayable",
      "type": "function"
    },
    {
      "inputs": [
        {
          "internalType": "address",
          "name": "operator",
          "type": "address"
        },
        {
          "internalType": "bool",
          "name": "approved",
          "type": "bool"
        }
      ],
      "name": "setApprovalForAll",
      "outputs": [],
      "stateMutability": "nonpayable",
      "type": "function"
    },
    {
      "inputs": [
        {
          "internalType": "bytes4",
          "name": "interfaceId",
          "type": "bytes4"
        }
      ],
      "name": "supportsInterface",
      "outputs": [
        {
          "internalType": "bool",
          "name": "",
          "type": "bool"
        }
      ],
      "stateMutability": "view",
      "type": "function"
    },
    {
      "inputs": [
        {
          "internalType": "address",
          "name": "owner",
          "type": "address"
        }
      ],
      "name": "tokensOfOwner",
      "outputs": [
        {
          "internalType": "uint256[]",
          "name": "",
          "type": "uint256[]"
        }
      ],
      "stateMutability": "view",
      "type": "function"
    },
    {
      "inputs": [
        {
          "internalType": "uint256",
          "name": "id",
          "type": "uint256"
        }
      ],
      "name": "totalSupply",
      "outputs": [
        {
          "internalType": "uint256",
          "name": "",
          "type": "uint256"
        }
      ],
      "stateMutability": "view",
      "type": "function"
    },
    {
      "inputs": [
        {
          "internalType": "RemovalId",
          "name": "removalId",
          "type": "uint256"
        }
      ],
      "name": "unpackRemovalIdV0",
      "outputs": [
        {
          "components": [
            {
              "internalType": "uint8",
              "name": "idVersion",
              "type": "uint8"
            },
            {
              "internalType": "uint8",
              "name": "methodology",
              "type": "uint8"
            },
            {
              "internalType": "uint8",
              "name": "methodologyVersion",
              "type": "uint8"
            },
            {
              "internalType": "uint16",
              "name": "vintage",
              "type": "uint16"
            },
            {
              "internalType": "bytes2",
              "name": "country",
              "type": "bytes2"
            },
            {
              "internalType": "bytes2",
              "name": "subdivision",
              "type": "bytes2"
            },
            {
              "internalType": "address",
              "name": "supplierAddress",
              "type": "address"
            },
            {
              "internalType": "uint32",
              "name": "subIdentifier",
              "type": "uint32"
            }
          ],
          "internalType": "struct UnpackedRemovalIdV0",
          "name": "",
          "type": "tuple"
        }
      ],
      "stateMutability": "pure",
      "type": "function"
    },
    {
      "inputs": [
        {
          "internalType": "uint256",
          "name": "",
          "type": "uint256"
        }
      ],
      "name": "uri",
      "outputs": [
        {
          "internalType": "string",
          "name": "",
          "type": "string"
        }
      ],
      "stateMutability": "view",
      "type": "function"
    }
  ],
  "bytecode": "0x60806040523480156200001157600080fd5b506200001c62000022565b620000e4565b600054610100900460ff16156200008f5760405162461bcd60e51b815260206004820152602760248201527f496e697469616c697a61626c653a20636f6e747261637420697320696e697469604482015266616c697a696e6760c81b606482015260840160405180910390fd5b60005460ff9081161015620000e2576000805460ff191660ff9081179091556040519081527f7f26b83ff96e1f2b6a682f133852f6798a09c465da95921460cefb38474024989060200160405180910390a15b565b61524080620000f46000396000f3fe608060405234801561001057600080fd5b50600436106102d25760003560e01c806388c28f1111610186578063bd85b039116100e3578063e0fc293811610097578063e985e9c511610071578063e985e9c51461070e578063f242432a14610757578063f297be661461076a57600080fd5b8063e0fc2938146106b3578063e63ab1e9146106d4578063e6e0a038146106fb57600080fd5b8063ca15c873116100c8578063ca15c8731461066d578063d547741f14610680578063d85a53e91461069357600080fd5b8063bd85b0391461063a578063c1b8ecdd1461065a57600080fd5b80639e2d5a131161013a578063a22cb4651161011f578063a22cb465146105ed578063ac28af2414610600578063b6477cc01461062757600080fd5b80639e2d5a13146105be578063a217fddf146105e557600080fd5b806391d148541161016b57806391d1485414610546578063956236411461058c57806399d5121b146105ab57600080fd5b806388c28f11146105205780639010d07c1461053357600080fd5b80633df4fe7c11610234578063789e8cdf116101e85780638129fc1c116101cd5780638129fc1c146104f25780638462151c146104fa578063854560a41461050d57600080fd5b8063789e8cdf146104c05780637f7081fa146104d357600080fd5b80634e1273f4116102195780634e1273f4146104805780634f558e79146104935780635c975abb146104b557600080fd5b80633df4fe7c1461045a57806348ec4c3b1461046d57600080fd5b8063248a9ca31161028b5780632eb2c2d6116102705780632eb2c2d61461041f5780632f2ff15d1461043457806336568abe1461044757600080fd5b8063248a9ca3146103bc5780632707193b146103df57600080fd5b806301ffc9a7116102bc57806301ffc9a71461031d5780630e89341c146103405780631990ad051461036057600080fd5b8062fdd58e146102d7578063018e1c83146102fd575b600080fd5b6102ea6102e5366004614007565b61077d565b6040519081526020015b60405180910390f35b61031061030b36600461415d565b61085f565b6040516102f491906141e8565b61033061032b366004614229565b61090d565b60405190151581526020016102f4565b61035361034e366004614246565b610918565b6040516102f491906142d5565b61037361036e366004614246565b6109ac565b6040516102f491908151815260208083015173ffffffffffffffffffffffffffffffffffffffff1690820152604080830151908201526060918201519181019190915260800190565b6102ea6103ca366004614246565b600090815260fb602052604090206001015490565b6101615473ffffffffffffffffffffffffffffffffffffffff165b60405173ffffffffffffffffffffffffffffffffffffffff90911681526020016102f4565b61043261042d36600461437a565b610a54565b005b610432610442366004614428565b610aa9565b610432610455366004614428565b610ad3565b610432610468366004614479565b610b86565b6102ea61047b366004614565565b610e6d565b61031061048e366004614646565b610e80565b6103306104a1366004614246565b600090815260976020526040902054151590565b60c95460ff16610330565b6102ea6104ce3660046146a0565b610fc3565b61015f5473ffffffffffffffffffffffffffffffffffffffff166103fa565b610432610ff2565b6103106105083660046146a0565b61124e565b6102ea61051b3660046146a0565b611280565b6102ea61052e36600461415d565b6113ac565b6103fa6105413660046146bd565b6114a6565b610330610554366004614428565b600091825260fb6020908152604080842073ffffffffffffffffffffffffffffffffffffffff93909316845291905290205460ff1690565b6101605473ffffffffffffffffffffffffffffffffffffffff166103fa565b6103736105b9366004614246565b6114bf565b6102ea7f12cd22fd141e3b4174581d0951a6074fa9852fd9cf88f3ae35f518804459176481565b6102ea600081565b6104326105fb3660046146df565b61155c565b6102ea7f88f3509f0e42391f2d94ebfb2a37cbd0782b1b8f73715330017f4663290b811781565b610310610635366004614714565b611567565b6102ea610648366004614246565b60009081526097602052604090205490565b610310610668366004614751565b611622565b6102ea61067b366004614246565b611755565b61043261068e366004614428565b61176d565b6106a66106a1366004614246565b611792565b6040516102f49190614786565b6102ea6106c1366004614246565b6000908152610162602052604090205490565b6102ea7f65d7a28e3265b37a6474929f336521b332c1681b933f6cb9f3376673440d862a81565b61043261070936600461485d565b6117dc565b61033061071c3660046148a8565b73ffffffffffffffffffffffffffffffffffffffff918216600090815260666020908152604080832093909416825291909152205460ff1690565b6104326107653660046148d6565b611857565b61043261077836600461493f565b611919565b600073ffffffffffffffffffffffffffffffffffffffff8316610827576040517f08c379a000000000000000000000000000000000000000000000000000000000815260206004820152602a60248201527f455243313135353a2061646472657373207a65726f206973206e6f742061207660448201527f616c6964206f776e65720000000000000000000000000000000000000000000060648201526084015b60405180910390fd5b50600081815260656020908152604080832073ffffffffffffffffffffffffffffffffffffffff861684529091529020545b92915050565b60606000825167ffffffffffffffff81111561087d5761087d614033565b6040519080825280602002602001820160405280156108a6578160200160208202803683370190505b50905060005b8351811015610905576108d8858583815181106108cb576108cb614974565b602002602001015161077d565b8282815181106108ea576108ea614974565b60209081029190910101526108fe816149d2565b90506108ac565b509392505050565b600061085982611954565b60606067805461092790614a0a565b80601f016020809104026020016040519081016040528092919081815260200182805461095390614a0a565b80156109a05780601f10610975576101008083540402835291602001916109a0565b820191906000526020600020905b81548152906001019060200180831161098357829003601f168201915b50505050509050919050565b6109ed604051806080016040528060008152602001600073ffffffffffffffffffffffffffffffffffffffff16815260200160008152602001600081525090565b50600090815261016260209081526040808320548352610163825291829020825160808101845281548152600182015473ffffffffffffffffffffffffffffffffffffffff1692810192909252600281015492820192909252600390910154606082015290565b610a7e7f12cd22fd141e3b4174581d0951a6074fa9852fd9cf88f3ae35f518804459176433610554565b15610a9557610a9085858585856119aa565b610aa2565b610aa28585858585611cf5565b5050505050565b600082815260fb6020526040902060010154610ac481611db7565b610ace8383611dc1565b505050565b73ffffffffffffffffffffffffffffffffffffffff81163314610b78576040517f08c379a000000000000000000000000000000000000000000000000000000000815260206004820152602f60248201527f416363657373436f6e74726f6c3a2063616e206f6e6c792072656e6f756e636560448201527f20726f6c657320666f722073656c660000000000000000000000000000000000606482015260840161081e565b610b828282611de4565b5050565b7f12cd22fd141e3b4174581d0951a6074fa9852fd9cf88f3ae35f5188044591764610bb081611db7565b825184518114610c5257604080517f616c41130000000000000000000000000000000000000000000000000000000081526004810191909152600760448201527f616d6f756e747300000000000000000000000000000000000000000000000000606482015260806024820152600360848201527f696473000000000000000000000000000000000000000000000000000000000060a482015260c40161081e565b8251604084015160ff1660005b83811015610d18576000878281518110610c7b57610c7b614974565b60200260200101519050610c9d81600090815260976020526040902054151590565b80610cb657506000818152610162602052604090205415155b15610cf0576040517f4acb9c290000000000000000000000000000000000000000000000000000000081526004810182905260240161081e565b600090815261016260205260409020838155600101829055610d11816149d2565b9050610c5f565b50600086600081518110610d2e57610d2e614974565b60200260200101519050604051806080016040528087602001518152602001610d5683611e07565b73ffffffffffffffffffffffffffffffffffffffff168152602001610d7a83611e16565b60ff168152602001610d8b83611e2f565b60ff1690526000848152610163602090815260409182902083518155908301516001820180547fffffffffffffffffffffffff00000000000000000000000000000000000000001673ffffffffffffffffffffffffffffffffffffffff909216919091179055908201516002820155606090910151600390910155610e2189888a60405180602001604052806000815250611e47565b856060015115610e625761016054610e62908a9073ffffffffffffffffffffffffffffffffffffffff16898b60405180602001604052806000815250610a54565b505050505050505050565b6000610e7983836120d0565b9392505050565b60608151835114610f13576040517f08c379a000000000000000000000000000000000000000000000000000000000815260206004820152602960248201527f455243313135353a206163636f756e747320616e6420696473206c656e67746860448201527f206d69736d617463680000000000000000000000000000000000000000000000606482015260840161081e565b6000835167ffffffffffffffff811115610f2f57610f2f614033565b604051908082528060200260200182016040528015610f58578160200160208202803683370190505b50905060005b845181101561090557610f96858281518110610f7c57610f7c614974565b60200260200101518583815181106108cb576108cb614974565b828281518110610fa857610fa8614974565b6020908102919091010152610fbc816149d2565b9050610f5e565b73ffffffffffffffffffffffffffffffffffffffff8116600090815261016460205260408120610859906124b9565b600054610100900460ff16158080156110125750600054600160ff909116105b8061102c5750303b15801561102c575060005460ff166001145b6110b8576040517f08c379a000000000000000000000000000000000000000000000000000000000815260206004820152602e60248201527f496e697469616c697a61626c653a20636f6e747261637420697320616c72656160448201527f647920696e697469616c697a6564000000000000000000000000000000000000606482015260840161081e565b600080547fffffffffffffffffffffffffffffffffffffffffffffffffffffffffffffff00166001179055801561111657600080547fffffffffffffffffffffffffffffffffffffffffffffffffffffffffffff00ff166101001790555b61111e6124c3565b61113f6040518060600160405280602681526020016151e56026913961255c565b6111476125fc565b61114f6124c3565b6111576124c3565b61115f6124c3565b61116a600033611dc1565b6111947f65d7a28e3265b37a6474929f336521b332c1681b933f6cb9f3376673440d862a33611dc1565b6111be7f12cd22fd141e3b4174581d0951a6074fa9852fd9cf88f3ae35f518804459176433611dc1565b6111e87f88f3509f0e42391f2d94ebfb2a37cbd0782b1b8f73715330017f4663290b811733611dc1565b801561124b57600080547fffffffffffffffffffffffffffffffffffffffffffffffffffffffffffff00ff169055604051600181527f7f26b83ff96e1f2b6a682f133852f6798a09c465da95921460cefb38474024989060200160405180910390a15b50565b73ffffffffffffffffffffffffffffffffffffffff8116600090815261016460205260409020606090610859906126bd565b73ffffffffffffffffffffffffffffffffffffffff8116600090815261016460205260408120816112b0826124b9565b905060008167ffffffffffffffff8111156112cd576112cd614033565b6040519080825280602002602001820160405280156112f6578160200160208202803683370190505b50905060005b8281101561134c578582828151811061131757611317614974565b73ffffffffffffffffffffffffffffffffffffffff90921660209283029190910190910152611345816149d2565b90506112fc565b50600061135c8261048e866126bd565b90506000805b848110156113a15782818151811061137c5761137c614974565b60200260200101518261138f9190614a5d565b915061139a816149d2565b9050611362565b509695505050505050565b600080825167ffffffffffffffff8111156113c9576113c9614033565b6040519080825280602002602001820160405280156113f2578160200160208202803683370190505b50905060005b8351811015611449578482828151811061141457611414614974565b73ffffffffffffffffffffffffffffffffffffffff90921660209283029190910190910152611442816149d2565b90506113f8565b5060006114568285610e80565b90506000805b825181101561149c5782818151811061147757611477614974565b60200260200101518261148a9190614a5d565b9150611495816149d2565b905061145c565b5095945050505050565b600082815261012d60205260408120610e7990836126ca565b611500604051806080016040528060008152602001600073ffffffffffffffffffffffffffffffffffffffff16815260200160008152602001600081525090565b5060009081526101636020908152604091829020825160808101845281548152600182015473ffffffffffffffffffffffffffffffffffffffff1692810192909252600281015492820192909252600390910154606082015290565b610b823383836126d6565b805160609060008167ffffffffffffffff81111561158757611587614033565b6040519080825280602002602001820160405280156115b0578160200160208202803683370190505b50905060005b828110156109055760008582815181106115d2576115d2614974565b6020026020010151905061016260008281526020019081526020016000206001015483838151811061160657611606614974565b60209081029190910101525061161b816149d2565b90506115b6565b805160609060008167ffffffffffffffff81111561164257611642614033565b60405190808252806020026020018201604052801561166b578160200160208202803683370190505b50905060005b82811015610905573073ffffffffffffffffffffffffffffffffffffffff1663854560a48683815181106116a7576116a7614974565b60200260200101516040518263ffffffff1660e01b81526004016116e7919073ffffffffffffffffffffffffffffffffffffffff91909116815260200190565b602060405180830381865afa158015611704573d6000803e3d6000fd5b505050506040513d601f19601f820116820180604052508101906117289190614a75565b82828151811061173a5761173a614974565b602090810291909101015261174e816149d2565b9050611671565b600081815261012d60205260408120610859906124b9565b600082815260fb602052604090206001015461178881611db7565b610ace8383611de4565b6040805161010081018252600080825260208201819052918101829052606081018290526080810182905260a0810182905260c0810182905260e081019190915261085982612829565b6117e4612956565b60006117ef81611db7565b5061015f805473ffffffffffffffffffffffffffffffffffffffff9485167fffffffffffffffffffffffff0000000000000000000000000000000000000000918216179091556101608054938516938216939093179092556101618054919093169116179055565b73ffffffffffffffffffffffffffffffffffffffff85163314806118805750611880853361071c565b61190c576040517f08c379a000000000000000000000000000000000000000000000000000000000815260206004820152602f60248201527f455243313135353a2063616c6c6572206973206e6f7420746f6b656e206f776e60448201527f6572206e6f7220617070726f7665640000000000000000000000000000000000606482015260840161081e565b610aa285858585856129c3565b7f88f3509f0e42391f2d94ebfb2a37cbd0782b1b8f73715330017f4663290b811761194381611db7565b61194e848484612c08565b50505050565b60007fffffffff0000000000000000000000000000000000000000000000000000000082167f5a05180f000000000000000000000000000000000000000000000000000000001480610859575061085982612d8c565b8151835114611a3b576040517f08c379a000000000000000000000000000000000000000000000000000000000815260206004820152602860248201527f455243313135353a2069647320616e6420616d6f756e7473206c656e6774682060448201527f6d69736d61746368000000000000000000000000000000000000000000000000606482015260840161081e565b73ffffffffffffffffffffffffffffffffffffffff8416611ade576040517f08c379a000000000000000000000000000000000000000000000000000000000815260206004820152602560248201527f455243313135353a207472616e7366657220746f20746865207a65726f20616460448201527f6472657373000000000000000000000000000000000000000000000000000000606482015260840161081e565b33611aed818787878787612de2565b60005b8451811015611c60576000858281518110611b0d57611b0d614974565b602002602001015190506000858381518110611b2b57611b2b614974565b602090810291909101810151600084815260658352604080822073ffffffffffffffffffffffffffffffffffffffff8e168352909352919091205490915081811015611bf9576040517f08c379a000000000000000000000000000000000000000000000000000000000815260206004820152602a60248201527f455243313135353a20696e73756666696369656e742062616c616e636520666f60448201527f72207472616e7366657200000000000000000000000000000000000000000000606482015260840161081e565b600083815260656020908152604080832073ffffffffffffffffffffffffffffffffffffffff8e8116855292528083208585039055908b16825281208054849290611c45908490614a5d565b9250508190555050505080611c59906149d2565b9050611af0565b508473ffffffffffffffffffffffffffffffffffffffff168673ffffffffffffffffffffffffffffffffffffffff168273ffffffffffffffffffffffffffffffffffffffff167f4a39dc06d4c0dbc64b70af90fd698a233a518aa5d07e595d983b8c0526c8f7fb8787604051611cd7929190614a8e565b60405180910390a4611ced818787878787612ef2565b505050505050565b73ffffffffffffffffffffffffffffffffffffffff8516331480611d1e5750611d1e853361071c565b611daa576040517f08c379a000000000000000000000000000000000000000000000000000000000815260206004820152602f60248201527f455243313135353a2063616c6c6572206973206e6f7420746f6b656e206f776e60448201527f6572206e6f7220617070726f7665640000000000000000000000000000000000606482015260840161081e565b610aa285858585856119aa565b61124b813361317c565b611dcb828261324e565b600082815261012d60205260409020610ace9082613342565b611dee8282613364565b600082815261012d60205260409020610ace908261341f565b60006108598260146004613441565b60006004611e27836001601e613441565b901c92915050565b6000611e3e826001601e613441565b600f1692915050565b73ffffffffffffffffffffffffffffffffffffffff8416611eea576040517f08c379a000000000000000000000000000000000000000000000000000000000815260206004820152602160248201527f455243313135353a206d696e7420746f20746865207a65726f2061646472657360448201527f7300000000000000000000000000000000000000000000000000000000000000606482015260840161081e565b8151835114611f7b576040517f08c379a000000000000000000000000000000000000000000000000000000000815260206004820152602860248201527f455243313135353a2069647320616e6420616d6f756e7473206c656e6774682060448201527f6d69736d61746368000000000000000000000000000000000000000000000000606482015260840161081e565b33611f8b81600087878787612de2565b60005b845181101561204157838181518110611fa957611fa9614974565b602002602001015160656000878481518110611fc757611fc7614974565b6020026020010151815260200190815260200160002060008873ffffffffffffffffffffffffffffffffffffffff1673ffffffffffffffffffffffffffffffffffffffff16815260200190815260200160002060008282546120299190614a5d565b90915550819050612039816149d2565b915050611f8e565b508473ffffffffffffffffffffffffffffffffffffffff16600073ffffffffffffffffffffffffffffffffffffffff168273ffffffffffffffffffffffffffffffffffffffff167f4a39dc06d4c0dbc64b70af90fd698a233a518aa5d07e595d983b8c0526c8f7fb87876040516120b9929190614a8e565b60405180910390a4610aa281600087878787612ef2565b6000806120df83850185614abc565b60ff1690508015612171576040517f08c379a0000000000000000000000000000000000000000000000000000000008152602060048201526024808201527f556e737570706f727465642072656d6f76616c20746f6b656e2069642076657260448201527f73696f6e00000000000000000000000000000000000000000000000000000000606482015260840161081e565b6101008314612202576040517f08c379a000000000000000000000000000000000000000000000000000000000815260206004820152602a60248201527f72656d6f76616c4461746120636f6e7461696e732077726f6e67206e756d626560448201527f72206f6620627974657300000000000000000000000000000000000000000000606482015260840161081e565b600061221084860186614b2d565b9050600f816020015160ff161115612284576040517f08c379a000000000000000000000000000000000000000000000000000000000815260206004820152601560248201527f4d6574686f6c6f646f677920746f6f206c617267650000000000000000000000604482015260640161081e565b600f816040015160ff1611156122f6576040517f08c379a000000000000000000000000000000000000000000000000000000000815260206004820152601d60248201527f4d6574686f6c6f646f67792076657273696f6e20746f6f206c61726765000000604482015260640161081e565b608081015160a082015160f882811c9260ff60f091821c8116939283901c9290911c166041841080159061232b5750605a8411155b8015612338575060418310155b80156123455750605a8311155b8015612352575060418210155b801561235f5750605a8211155b801561236c575060418110155b80156123795750605a8111155b6123df576040517f08c379a000000000000000000000000000000000000000000000000000000000815260206004820152600d60248201527f496e76616c696420415343494900000000000000000000000000000000000000604482015260640161081e565b600085604001516004876020015160ff16901b1760ff169050600860006124069190614bf2565b60e087015163ffffffff16901b61241f60086004614bf2565b60c088015173ffffffffffffffffffffffffffffffffffffffff16901b61244860086018614bf2565b60a089015160f01c901b61245e6008601a614bf2565b60808a015160f01c901b6124746008601c614bf2565b60608b015161ffff16901b61248b6008601e614bf2565b86901b61249a6008601f614bf2565b8c6000015160ff16901b17171717171797505050505050505092915050565b6000610859825490565b600054610100900460ff1661255a576040517f08c379a000000000000000000000000000000000000000000000000000000000815260206004820152602b60248201527f496e697469616c697a61626c653a20636f6e7472616374206973206e6f74206960448201527f6e697469616c697a696e67000000000000000000000000000000000000000000606482015260840161081e565b565b600054610100900460ff166125f3576040517f08c379a000000000000000000000000000000000000000000000000000000000815260206004820152602b60248201527f496e697469616c697a61626c653a20636f6e7472616374206973206e6f74206960448201527f6e697469616c697a696e67000000000000000000000000000000000000000000606482015260840161081e565b61124b8161348d565b600054610100900460ff16612693576040517f08c379a000000000000000000000000000000000000000000000000000000000815260206004820152602b60248201527f496e697469616c697a61626c653a20636f6e7472616374206973206e6f74206960448201527f6e697469616c697a696e67000000000000000000000000000000000000000000606482015260840161081e565b60c980547fffffffffffffffffffffffffffffffffffffffffffffffffffffffffffffff00169055565b60606000610e7983613499565b6000610e7983836134f4565b8173ffffffffffffffffffffffffffffffffffffffff168373ffffffffffffffffffffffffffffffffffffffff1603612791576040517f08c379a000000000000000000000000000000000000000000000000000000000815260206004820152602960248201527f455243313135353a2073657474696e6720617070726f76616c2073746174757360448201527f20666f722073656c660000000000000000000000000000000000000000000000606482015260840161081e565b73ffffffffffffffffffffffffffffffffffffffff83811660008181526066602090815260408083209487168084529482529182902080547fffffffffffffffffffffffffffffffffffffffffffffffffffffffffffffff001686151590811790915591519182527f17307eab39ab6107e8899845ad3d59bd9653f200f220920489ca2b5937696c31910160405180910390a3505050565b6040805161010081018252600080825260208201819052918101829052606081018290526080810182905260a0810182905260c0810182905260e081019190915260405180610100016040528061287f8461351e565b60ff16815260200161289084611e16565b60ff1681526020016128a184611e2f565b60ff1681526020016128b28461352d565b61ffff1681526020016128c48461353c565b7fffff0000000000000000000000000000000000000000000000000000000000001681526020016128f484613554565b7fffff00000000000000000000000000000000000000000000000000000000000016815260200161292484611e07565b73ffffffffffffffffffffffffffffffffffffffff16815260200161294884613563565b63ffffffff16905292915050565b60c95460ff161561255a576040517f08c379a000000000000000000000000000000000000000000000000000000000815260206004820152601060248201527f5061757361626c653a2070617573656400000000000000000000000000000000604482015260640161081e565b73ffffffffffffffffffffffffffffffffffffffff8416612a66576040517f08c379a000000000000000000000000000000000000000000000000000000000815260206004820152602560248201527f455243313135353a207472616e7366657220746f20746865207a65726f20616460448201527f6472657373000000000000000000000000000000000000000000000000000000606482015260840161081e565b336000612a7285613572565b90506000612a7f85613572565b9050612a8f838989858589612de2565b600086815260656020908152604080832073ffffffffffffffffffffffffffffffffffffffff8c16845290915290205485811015612b4f576040517f08c379a000000000000000000000000000000000000000000000000000000000815260206004820152602a60248201527f455243313135353a20696e73756666696369656e742062616c616e636520666f60448201527f72207472616e7366657200000000000000000000000000000000000000000000606482015260840161081e565b600087815260656020908152604080832073ffffffffffffffffffffffffffffffffffffffff8d8116855292528083208985039055908a16825281208054889290612b9b908490614a5d565b9091555050604080518881526020810188905273ffffffffffffffffffffffffffffffffffffffff808b16928c821692918816917fc3d58168c5ae7397731d063d5bbf3d657854427343f4c083240f7aacaa2d0f62910160405180910390a4610e62848a8a8a8a8a6135bd565b610161546040517fbfdecc670000000000000000000000000000000000000000000000000000000081526004810184905260009173ffffffffffffffffffffffffffffffffffffffff169063bfdecc6790602401600060405180830381865afa158015612c79573d6000803e3d6000fd5b505050506040513d6000823e601f3d9081017fffffffffffffffffffffffffffffffffffffffffffffffffffffffffffffffe0168201604052612cbf9190810190614c2f565b905060005b8151811015612d805761016154825173ffffffffffffffffffffffffffffffffffffffff90911690638e104d5790849084908110612d0457612d04614974565b602002602001015186866040518463ffffffff1660e01b8152600401612d3d939291909283526020830191909152604082015260600190565b600060405180830381600087803b158015612d5757600080fd5b505af1158015612d6b573d6000803e3d6000fd5b5050505080612d79906149d2565b9050612cc4565b5061194e84848461376a565b60007fffffffff0000000000000000000000000000000000000000000000000000000082167f7965db0b00000000000000000000000000000000000000000000000000000000148061085957506108598261398c565b612dea612956565b815160005b81811015612eda576000858281518110612e0b57612e0b614974565b60200260200101519050600073ffffffffffffffffffffffffffffffffffffffff168873ffffffffffffffffffffffffffffffffffffffff1614612e7b5773ffffffffffffffffffffffffffffffffffffffff8816600090815261016460205260409020612e799082613a6f565b505b73ffffffffffffffffffffffffffffffffffffffff871615612ec95773ffffffffffffffffffffffffffffffffffffffff8716600090815261016460205260409020612ec79082613a7b565b505b50612ed3816149d2565b9050612def565b50612ee9878787878787613a87565b50505050505050565b73ffffffffffffffffffffffffffffffffffffffff84163b15611ced576040517fbc197c8100000000000000000000000000000000000000000000000000000000815273ffffffffffffffffffffffffffffffffffffffff85169063bc197c8190612f699089908990889088908890600401614ccb565b6020604051808303816000875af1925050508015612fc2575060408051601f3d9081017fffffffffffffffffffffffffffffffffffffffffffffffffffffffffffffffe0168201909252612fbf91810190614d36565b60015b6130ab57612fce614d53565b806308c379a0036130215750612fe2614d6f565b80612fed5750613023565b806040517f08c379a000000000000000000000000000000000000000000000000000000000815260040161081e91906142d5565b505b6040517f08c379a000000000000000000000000000000000000000000000000000000000815260206004820152603460248201527f455243313135353a207472616e7366657220746f206e6f6e204552433131353560448201527f526563656976657220696d706c656d656e746572000000000000000000000000606482015260840161081e565b7fffffffff0000000000000000000000000000000000000000000000000000000081167fbc197c810000000000000000000000000000000000000000000000000000000014612ee9576040517f08c379a000000000000000000000000000000000000000000000000000000000815260206004820152602860248201527f455243313135353a204552433131353552656365697665722072656a6563746560448201527f6420746f6b656e73000000000000000000000000000000000000000000000000606482015260840161081e565b600082815260fb6020908152604080832073ffffffffffffffffffffffffffffffffffffffff8516845290915290205460ff16610b82576131d48173ffffffffffffffffffffffffffffffffffffffff166014613c49565b6131df836020613c49565b6040516020016131f0929190614e17565b604080517fffffffffffffffffffffffffffffffffffffffffffffffffffffffffffffffe0818403018152908290527f08c379a000000000000000000000000000000000000000000000000000000000825261081e916004016142d5565b600082815260fb6020908152604080832073ffffffffffffffffffffffffffffffffffffffff8516845290915290205460ff16610b8257600082815260fb6020908152604080832073ffffffffffffffffffffffffffffffffffffffff85168452909152902080547fffffffffffffffffffffffffffffffffffffffffffffffffffffffffffffff001660011790556132e43390565b73ffffffffffffffffffffffffffffffffffffffff168173ffffffffffffffffffffffffffffffffffffffff16837f2f8788117e7eff1d82e926ec794901d17c78024a50270940304540a733656f0d60405160405180910390a45050565b6000610e798373ffffffffffffffffffffffffffffffffffffffff8416613e8c565b600082815260fb6020908152604080832073ffffffffffffffffffffffffffffffffffffffff8516845290915290205460ff1615610b8257600082815260fb6020908152604080832073ffffffffffffffffffffffffffffffffffffffff8516808552925280832080547fffffffffffffffffffffffffffffffffffffffffffffffffffffffffffffff0016905551339285917ff6391f5c32d9c69d2a47ea670b442974b53935d1edc7fd64eb21e047a839171b9190a45050565b6000610e798373ffffffffffffffffffffffffffffffffffffffff8416613edb565b60008061344f600884614bf2565b600161345c600887614bf2565b613467906002614fb8565b6134719190614fc4565b901b9050848116613483600885614bf2565b1c95945050505050565b6067610b828282615021565b6060816000018054806020026020016040519081016040528092919081815260200182805480156109a057602002820191906000526020600020905b8154815260200190600101908083116134d55750505050509050919050565b600082600001828154811061350b5761350b614974565b9060005260206000200154905092915050565b6000610859826001601f613441565b6000610859826002601c613441565b600061354b826002601a613441565b60f01b92915050565b600061354b8260026018613441565b60006108598260046000613441565b604080516001808252818301909252606091600091906020808301908036833701905050905082816000815181106135ac576135ac614974565b602090810291909101015292915050565b73ffffffffffffffffffffffffffffffffffffffff84163b15611ced576040517ff23a6e6100000000000000000000000000000000000000000000000000000000815273ffffffffffffffffffffffffffffffffffffffff85169063f23a6e6190613634908990899088908890889060040161513b565b6020604051808303816000875af192505050801561368d575060408051601f3d9081017fffffffffffffffffffffffffffffffffffffffffffffffffffffffffffffffe016820190925261368a91810190614d36565b60015b61369957612fce614d53565b7fffffffff0000000000000000000000000000000000000000000000000000000081167ff23a6e610000000000000000000000000000000000000000000000000000000014612ee9576040517f08c379a000000000000000000000000000000000000000000000000000000000815260206004820152602860248201527f455243313135353a204552433131353552656365697665722072656a6563746560448201527f6420746f6b656e73000000000000000000000000000000000000000000000000606482015260840161081e565b73ffffffffffffffffffffffffffffffffffffffff831661380d576040517f08c379a000000000000000000000000000000000000000000000000000000000815260206004820152602360248201527f455243313135353a206275726e2066726f6d20746865207a65726f206164647260448201527f6573730000000000000000000000000000000000000000000000000000000000606482015260840161081e565b33600061381984613572565b9050600061382684613572565b905061384683876000858560405180602001604052806000815250612de2565b600085815260656020908152604080832073ffffffffffffffffffffffffffffffffffffffff8a16845290915290205484811015613905576040517f08c379a0000000000000000000000000000000000000000000000000000000008152602060048201526024808201527f455243313135353a206275726e20616d6f756e7420657863656564732062616c60448201527f616e636500000000000000000000000000000000000000000000000000000000606482015260840161081e565b600086815260656020908152604080832073ffffffffffffffffffffffffffffffffffffffff8b81168086529184528285208a8703905582518b81529384018a90529092908816917fc3d58168c5ae7397731d063d5bbf3d657854427343f4c083240f7aacaa2d0f62910160405180910390a4604080516020810190915260009052612ee9565b60007fffffffff0000000000000000000000000000000000000000000000000000000082167fd9b67a26000000000000000000000000000000000000000000000000000000001480613a1f57507fffffffff0000000000000000000000000000000000000000000000000000000082167f0e89341c00000000000000000000000000000000000000000000000000000000145b8061085957507f01ffc9a7000000000000000000000000000000000000000000000000000000007fffffffff00000000000000000000000000000000000000000000000000000000831614610859565b6000610e798383613edb565b6000610e798383613e8c565b73ffffffffffffffffffffffffffffffffffffffff8516613b1b5760005b8351811015613b1957828181518110613ac057613ac0614974565b602002602001015160976000868481518110613ade57613ade614974565b602002602001015181526020019081526020016000206000828254613b039190614a5d565b90915550613b129050816149d2565b9050613aa5565b505b73ffffffffffffffffffffffffffffffffffffffff8416611ced5760005b8351811015612ee9576000848281518110613b5657613b56614974565b602002602001015190506000848381518110613b7457613b74614974565b6020026020010151905060006097600084815260200190815260200160002054905081811015613c26576040517f08c379a000000000000000000000000000000000000000000000000000000000815260206004820152602860248201527f455243313135353a206275726e20616d6f756e74206578636565647320746f7460448201527f616c537570706c79000000000000000000000000000000000000000000000000606482015260840161081e565b60009283526097602052604090922091039055613c42816149d2565b9050613b39565b60606000613c58836002614bf2565b613c63906002614a5d565b67ffffffffffffffff811115613c7b57613c7b614033565b6040519080825280601f01601f191660200182016040528015613ca5576020820181803683370190505b5090507f300000000000000000000000000000000000000000000000000000000000000081600081518110613cdc57613cdc614974565b60200101907effffffffffffffffffffffffffffffffffffffffffffffffffffffffffffff1916908160001a9053507f780000000000000000000000000000000000000000000000000000000000000081600181518110613d3f57613d3f614974565b60200101907effffffffffffffffffffffffffffffffffffffffffffffffffffffffffffff1916908160001a9053506000613d7b846002614bf2565b613d86906001614a5d565b90505b6001811115613e23577f303132333435363738396162636465660000000000000000000000000000000085600f1660108110613dc757613dc7614974565b1a60f81b828281518110613ddd57613ddd614974565b60200101907effffffffffffffffffffffffffffffffffffffffffffffffffffffffffffff1916908160001a90535060049490941c93613e1c81615180565b9050613d89565b508315610e79576040517f08c379a000000000000000000000000000000000000000000000000000000000815260206004820181905260248201527f537472696e67733a20686578206c656e67746820696e73756666696369656e74604482015260640161081e565b6000818152600183016020526040812054613ed357508154600181810184556000848152602080822090930184905584548482528286019093526040902091909155610859565b506000610859565b60008181526001830160205260408120548015613fc4576000613eff600183614fc4565b8554909150600090613f1390600190614fc4565b9050818114613f78576000866000018281548110613f3357613f33614974565b9060005260206000200154905080876000018481548110613f5657613f56614974565b6000918252602080832090910192909255918252600188019052604090208390555b8554869080613f8957613f896151b5565b600190038181906000526020600020016000905590558560010160008681526020019081526020016000206000905560019350505050610859565b6000915050610859565b5092915050565b73ffffffffffffffffffffffffffffffffffffffff8116811461124b57600080fd5b803561400281613fd5565b919050565b6000806040838503121561401a57600080fd5b823561402581613fd5565b946020939093013593505050565b7f4e487b7100000000000000000000000000000000000000000000000000000000600052604160045260246000fd5b6080810181811067ffffffffffffffff8211171561408257614082614033565b60405250565b7fffffffffffffffffffffffffffffffffffffffffffffffffffffffffffffffe0601f830116810181811067ffffffffffffffff821117156140cc576140cc614033565b6040525050565b600067ffffffffffffffff8211156140ed576140ed614033565b5060051b60200190565b600082601f83011261410857600080fd5b81356020614115826140d3565b6040516141228282614088565b83815260059390931b850182019282810191508684111561414257600080fd5b8286015b848110156113a15780358352918301918301614146565b6000806040838503121561417057600080fd5b823561417b81613fd5565b9150602083013567ffffffffffffffff81111561419757600080fd5b6141a3858286016140f7565b9150509250929050565b600081518084526020808501945080840160005b838110156141dd578151875295820195908201906001016141c1565b509495945050505050565b602081526000610e7960208301846141ad565b7fffffffff000000000000000000000000000000000000000000000000000000008116811461124b57600080fd5b60006020828403121561423b57600080fd5b8135610e79816141fb565b60006020828403121561425857600080fd5b5035919050565b60005b8381101561427a578181015183820152602001614262565b8381111561194e5750506000910152565b600081518084526142a381602086016020860161425f565b601f017fffffffffffffffffffffffffffffffffffffffffffffffffffffffffffffffe0169290920160200192915050565b602081526000610e79602083018461428b565b600082601f8301126142f957600080fd5b813567ffffffffffffffff81111561431357614313614033565b60405161434860207fffffffffffffffffffffffffffffffffffffffffffffffffffffffffffffffe0601f8501160182614088565b81815284602083860101111561435d57600080fd5b816020850160208301376000918101602001919091529392505050565b600080600080600060a0868803121561439257600080fd5b853561439d81613fd5565b945060208601356143ad81613fd5565b9350604086013567ffffffffffffffff808211156143ca57600080fd5b6143d689838a016140f7565b945060608801359150808211156143ec57600080fd5b6143f889838a016140f7565b9350608088013591508082111561440e57600080fd5b5061441b888289016142e8565b9150509295509295909350565b6000806040838503121561443b57600080fd5b82359150602083013561444d81613fd5565b809150509250929050565b803560ff8116811461400257600080fd5b8035801515811461400257600080fd5b60008060008084860360e081121561449057600080fd5b853561449b81613fd5565b9450602086013567ffffffffffffffff808211156144b857600080fd5b6144c489838a016140f7565b955060408801359150808211156144da57600080fd5b506144e7888289016140f7565b93505060807fffffffffffffffffffffffffffffffffffffffffffffffffffffffffffffffa08201121561451a57600080fd5b5060405161452781614062565b606086013581526080860135602082015261454460a08701614458565b604082015261455560c08701614469565b6060820152939692955090935050565b6000806020838503121561457857600080fd5b823567ffffffffffffffff8082111561459057600080fd5b818501915085601f8301126145a457600080fd5b8135818111156145b357600080fd5b8660208285010111156145c557600080fd5b60209290920196919550909350505050565b600082601f8301126145e857600080fd5b813560206145f5826140d3565b6040516146028282614088565b83815260059390931b850182019282810191508684111561462257600080fd5b8286015b848110156113a157803561463981613fd5565b8352918301918301614626565b6000806040838503121561465957600080fd5b823567ffffffffffffffff8082111561467157600080fd5b61467d868387016145d7565b9350602085013591508082111561469357600080fd5b506141a3858286016140f7565b6000602082840312156146b257600080fd5b8135610e7981613fd5565b600080604083850312156146d057600080fd5b50508035926020909101359150565b600080604083850312156146f257600080fd5b82356146fd81613fd5565b915061470b60208401614469565b90509250929050565b60006020828403121561472657600080fd5b813567ffffffffffffffff81111561473d57600080fd5b614749848285016140f7565b949350505050565b60006020828403121561476357600080fd5b813567ffffffffffffffff81111561477a57600080fd5b614749848285016145d7565b60006101008201905060ff835116825260ff602084015116602083015260ff604084015116604083015261ffff60608401511660608301527fffff000000000000000000000000000000000000000000000000000000000000608084015116608083015260a083015161481d60a08401827fffff000000000000000000000000000000000000000000000000000000000000169052565b5060c083015161484560c084018273ffffffffffffffffffffffffffffffffffffffff169052565b5060e0830151613fce60e084018263ffffffff169052565b60008060006060848603121561487257600080fd5b833561487d81613fd5565b9250602084013561488d81613fd5565b9150604084013561489d81613fd5565b809150509250925092565b600080604083850312156148bb57600080fd5b82356148c681613fd5565b9150602083013561444d81613fd5565b600080600080600060a086880312156148ee57600080fd5b85356148f981613fd5565b9450602086013561490981613fd5565b93506040860135925060608601359150608086013567ffffffffffffffff81111561493357600080fd5b61441b888289016142e8565b60008060006060848603121561495457600080fd5b833561495f81613fd5565b95602085013595506040909401359392505050565b7f4e487b7100000000000000000000000000000000000000000000000000000000600052603260045260246000fd5b7f4e487b7100000000000000000000000000000000000000000000000000000000600052601160045260246000fd5b60007fffffffffffffffffffffffffffffffffffffffffffffffffffffffffffffffff8203614a0357614a036149a3565b5060010190565b600181811c90821680614a1e57607f821691505b602082108103614a57577f4e487b7100000000000000000000000000000000000000000000000000000000600052602260045260246000fd5b50919050565b60008219821115614a7057614a706149a3565b500190565b600060208284031215614a8757600080fd5b5051919050565b604081526000614aa160408301856141ad565b8281036020840152614ab381856141ad565b95945050505050565b600060208284031215614ace57600080fd5b610e7982614458565b803561ffff8116811461400257600080fd5b80357fffff0000000000000000000000000000000000000000000000000000000000008116811461400257600080fd5b803563ffffffff8116811461400257600080fd5b6000610100808385031215614b4157600080fd5b6040519081019067ffffffffffffffff82118183101715614b6457614b64614033565b81604052614b7184614458565b8152614b7f60208501614458565b6020820152614b9060408501614458565b6040820152614ba160608501614ad7565b6060820152614bb260808501614ae9565b6080820152614bc360a08501614ae9565b60a0820152614bd460c08501613ff7565b60c0820152614be560e08501614b19565b60e0820152949350505050565b6000817fffffffffffffffffffffffffffffffffffffffffffffffffffffffffffffffff0483118215151615614c2a57614c2a6149a3565b500290565b60006020808385031215614c4257600080fd5b825167ffffffffffffffff811115614c5957600080fd5b8301601f81018513614c6a57600080fd5b8051614c75816140d3565b604051614c828282614088565b82815260059290921b8301840191848101915087831115614ca257600080fd5b928401925b82841015614cc057835182529284019290840190614ca7565b979650505050505050565b600073ffffffffffffffffffffffffffffffffffffffff808816835280871660208401525060a06040830152614d0460a08301866141ad565b8281036060840152614d1681866141ad565b90508281036080840152614d2a818561428b565b98975050505050505050565b600060208284031215614d4857600080fd5b8151610e79816141fb565b600060033d1115614d6c5760046000803e5060005160e01c5b90565b600060443d1015614d7d5790565b6040517ffffffffffffffffffffffffffffffffffffffffffffffffffffffffffffffffc803d016004833e81513d67ffffffffffffffff8160248401118184111715614dcb57505050505090565b8285019150815181811115614de35750505050505090565b843d8701016020828501011115614dfd5750505050505090565b614e0c60208286010187614088565b509095945050505050565b7f416363657373436f6e74726f6c3a206163636f756e7420000000000000000000815260008351614e4f81601785016020880161425f565b7f206973206d697373696e6720726f6c65200000000000000000000000000000006017918401918201528351614e8c81602884016020880161425f565b01602801949350505050565b600181815b80851115614ef157817fffffffffffffffffffffffffffffffffffffffffffffffffffffffffffffffff04821115614ed757614ed76149a3565b80851615614ee457918102915b93841c9390800290614e9d565b509250929050565b600082614f0857506001610859565b81614f1557506000610859565b8160018114614f2b5760028114614f3557614f51565b6001915050610859565b60ff841115614f4657614f466149a3565b50506001821b610859565b5060208310610133831016604e8410600b8410161715614f74575081810a610859565b614f7e8383614e98565b807fffffffffffffffffffffffffffffffffffffffffffffffffffffffffffffffff04821115614fb057614fb06149a3565b029392505050565b6000610e798383614ef9565b600082821015614fd657614fd66149a3565b500390565b601f821115610ace57600081815260208120601f850160051c810160208610156150025750805b601f850160051c820191505b81811015611ced5782815560010161500e565b815167ffffffffffffffff81111561503b5761503b614033565b61504f816150498454614a0a565b84614fdb565b602080601f8311600181146150a2576000841561506c5750858301515b7fffffffffffffffffffffffffffffffffffffffffffffffffffffffffffffffff600386901b1c1916600185901b178555611ced565b6000858152602081207fffffffffffffffffffffffffffffffffffffffffffffffffffffffffffffffe08616915b828110156150ef578886015182559484019460019091019084016150d0565b508582101561512b57878501517fffffffffffffffffffffffffffffffffffffffffffffffffffffffffffffffff600388901b60f8161c191681555b5050505050600190811b01905550565b600073ffffffffffffffffffffffffffffffffffffffff808816835280871660208401525084604083015283606083015260a06080830152614cc060a083018461428b565b60008161518f5761518f6149a3565b507fffffffffffffffffffffffffffffffffffffffffffffffffffffffffffffffff0190565b7f4e487b7100000000000000000000000000000000000000000000000000000000600052603160045260246000fdfe68747470733a2f2f6e6f72692e636f6d2f6170692f72656d6f76616c2f7b69647d2e6a736f6ea264697066735822122002f2ecf2aec63c56e581f97e80aaed8b42056448c9569a29431285ddd66d81b564736f6c634300080f0033",
  "linkReferences": {},
  "deployedLinkReferences": {}
}