{
  "_format": "hh-sol-artifact-1",
  "contractName": "Removal",
  "sourceName": "contracts/Removal.sol",
  "abi": [
    {
      "inputs": [],
      "name": "TokenIdExists",
      "type": "error"
    },
    {
      "anonymous": false,
      "inputs": [
        {
          "indexed": true,
          "internalType": "address",
          "name": "account",
          "type": "address"
        },
        {
          "indexed": true,
          "internalType": "address",
          "name": "operator",
          "type": "address"
        },
        {
          "indexed": false,
          "internalType": "bool",
          "name": "approved",
          "type": "bool"
        }
      ],
      "name": "ApprovalForAll",
      "type": "event"
    },
    {
      "anonymous": false,
      "inputs": [
        {
          "indexed": false,
          "internalType": "address",
          "name": "account",
          "type": "address"
        }
      ],
      "name": "Paused",
      "type": "event"
    },
    {
      "anonymous": false,
      "inputs": [
        {
          "indexed": true,
          "internalType": "bytes32",
          "name": "role",
          "type": "bytes32"
        },
        {
          "indexed": true,
          "internalType": "bytes32",
          "name": "previousAdminRole",
          "type": "bytes32"
        },
        {
          "indexed": true,
          "internalType": "bytes32",
          "name": "newAdminRole",
          "type": "bytes32"
        }
      ],
      "name": "RoleAdminChanged",
      "type": "event"
    },
    {
      "anonymous": false,
      "inputs": [
        {
          "indexed": true,
          "internalType": "bytes32",
          "name": "role",
          "type": "bytes32"
        },
        {
          "indexed": true,
          "internalType": "address",
          "name": "account",
          "type": "address"
        },
        {
          "indexed": true,
          "internalType": "address",
          "name": "sender",
          "type": "address"
        }
      ],
      "name": "RoleGranted",
      "type": "event"
    },
    {
      "anonymous": false,
      "inputs": [
        {
          "indexed": true,
          "internalType": "bytes32",
          "name": "role",
          "type": "bytes32"
        },
        {
          "indexed": true,
          "internalType": "address",
          "name": "account",
          "type": "address"
        },
        {
          "indexed": true,
          "internalType": "address",
          "name": "sender",
          "type": "address"
        }
      ],
      "name": "RoleRevoked",
      "type": "event"
    },
    {
      "anonymous": false,
      "inputs": [
        {
          "indexed": true,
          "internalType": "address",
          "name": "operator",
          "type": "address"
        },
        {
          "indexed": true,
          "internalType": "address",
          "name": "from",
          "type": "address"
        },
        {
          "indexed": true,
          "internalType": "address",
          "name": "to",
          "type": "address"
        },
        {
          "indexed": false,
          "internalType": "uint256[]",
          "name": "ids",
          "type": "uint256[]"
        },
        {
          "indexed": false,
          "internalType": "uint256[]",
          "name": "values",
          "type": "uint256[]"
        }
      ],
      "name": "TransferBatch",
      "type": "event"
    },
    {
      "anonymous": false,
      "inputs": [
        {
          "indexed": true,
          "internalType": "address",
          "name": "operator",
          "type": "address"
        },
        {
          "indexed": true,
          "internalType": "address",
          "name": "from",
          "type": "address"
        },
        {
          "indexed": true,
          "internalType": "address",
          "name": "to",
          "type": "address"
        },
        {
          "indexed": false,
          "internalType": "uint256",
          "name": "id",
          "type": "uint256"
        },
        {
          "indexed": false,
          "internalType": "uint256",
          "name": "value",
          "type": "uint256"
        }
      ],
      "name": "TransferSingle",
      "type": "event"
    },
    {
      "anonymous": false,
      "inputs": [
        {
          "indexed": false,
          "internalType": "string",
          "name": "value",
          "type": "string"
        },
        {
          "indexed": true,
          "internalType": "uint256",
          "name": "id",
          "type": "uint256"
        }
      ],
      "name": "URI",
      "type": "event"
    },
    {
      "anonymous": false,
      "inputs": [
        {
          "indexed": false,
          "internalType": "address",
          "name": "account",
          "type": "address"
        }
      ],
      "name": "Unpaused",
      "type": "event"
    },
    {
      "inputs": [],
      "name": "DEFAULT_ADMIN_ROLE",
      "outputs": [
        {
          "internalType": "bytes32",
          "name": "",
          "type": "bytes32"
        }
      ],
      "stateMutability": "view",
      "type": "function"
    },
    {
      "inputs": [],
      "name": "MINTER_ROLE",
      "outputs": [
        {
          "internalType": "bytes32",
          "name": "",
          "type": "bytes32"
        }
      ],
      "stateMutability": "view",
      "type": "function"
    },
    {
      "inputs": [],
      "name": "PAUSER_ROLE",
      "outputs": [
        {
          "internalType": "bytes32",
          "name": "",
          "type": "bytes32"
        }
      ],
      "stateMutability": "view",
      "type": "function"
    },
    {
      "inputs": [
        {
          "internalType": "address",
          "name": "account",
          "type": "address"
        },
        {
          "internalType": "uint256",
          "name": "id",
          "type": "uint256"
        }
      ],
      "name": "balanceOf",
      "outputs": [
        {
          "internalType": "uint256",
          "name": "",
          "type": "uint256"
        }
      ],
      "stateMutability": "view",
      "type": "function"
    },
    {
      "inputs": [
        {
          "internalType": "address[]",
          "name": "accounts",
          "type": "address[]"
        },
        {
          "internalType": "uint256[]",
          "name": "ids",
          "type": "uint256[]"
        }
      ],
      "name": "balanceOfBatch",
      "outputs": [
        {
          "internalType": "uint256[]",
          "name": "",
          "type": "uint256[]"
        }
      ],
      "stateMutability": "view",
      "type": "function"
    },
    {
      "inputs": [
        {
          "internalType": "address",
          "name": "account",
          "type": "address"
        },
        {
          "internalType": "uint256",
          "name": "id",
          "type": "uint256"
        },
        {
          "internalType": "uint256",
          "name": "value",
          "type": "uint256"
        }
      ],
      "name": "burn",
      "outputs": [],
      "stateMutability": "nonpayable",
      "type": "function"
    },
    {
      "inputs": [
        {
          "internalType": "address",
          "name": "account",
          "type": "address"
        },
        {
          "internalType": "uint256[]",
          "name": "ids",
          "type": "uint256[]"
        },
        {
          "internalType": "uint256[]",
          "name": "values",
          "type": "uint256[]"
        }
      ],
      "name": "burnBatch",
      "outputs": [],
      "stateMutability": "nonpayable",
      "type": "function"
    },
    {
      "inputs": [
        {
          "internalType": "bytes",
          "name": "removalData",
          "type": "bytes"
        }
      ],
      "name": "createRemovalId",
      "outputs": [
        {
          "internalType": "uint256",
          "name": "",
          "type": "uint256"
        }
      ],
      "stateMutability": "pure",
      "type": "function"
    },
    {
      "inputs": [
        {
          "internalType": "uint256",
          "name": "id",
          "type": "uint256"
        }
      ],
      "name": "exists",
      "outputs": [
        {
          "internalType": "bool",
          "name": "",
          "type": "bool"
        }
      ],
      "stateMutability": "view",
      "type": "function"
    },
    {
      "inputs": [
        {
          "internalType": "bytes32",
          "name": "role",
          "type": "bytes32"
        }
      ],
      "name": "getRoleAdmin",
      "outputs": [
        {
          "internalType": "bytes32",
          "name": "",
          "type": "bytes32"
        }
      ],
      "stateMutability": "view",
      "type": "function"
    },
    {
      "inputs": [
        {
          "internalType": "bytes32",
          "name": "role",
          "type": "bytes32"
        },
        {
          "internalType": "uint256",
          "name": "index",
          "type": "uint256"
        }
      ],
      "name": "getRoleMember",
      "outputs": [
        {
          "internalType": "address",
          "name": "",
          "type": "address"
        }
      ],
      "stateMutability": "view",
      "type": "function"
    },
    {
      "inputs": [
        {
          "internalType": "bytes32",
          "name": "role",
          "type": "bytes32"
        }
      ],
      "name": "getRoleMemberCount",
      "outputs": [
        {
          "internalType": "uint256",
          "name": "",
          "type": "uint256"
        }
      ],
      "stateMutability": "view",
      "type": "function"
    },
    {
      "inputs": [
        {
          "internalType": "bytes32",
          "name": "role",
          "type": "bytes32"
        },
        {
          "internalType": "address",
          "name": "account",
          "type": "address"
        }
      ],
      "name": "grantRole",
      "outputs": [],
      "stateMutability": "nonpayable",
      "type": "function"
    },
    {
      "inputs": [
        {
          "internalType": "bytes32",
          "name": "role",
          "type": "bytes32"
        },
        {
          "internalType": "address",
          "name": "account",
          "type": "address"
        }
      ],
      "name": "hasRole",
      "outputs": [
        {
          "internalType": "bool",
          "name": "",
          "type": "bool"
        }
      ],
      "stateMutability": "view",
      "type": "function"
    },
    {
      "inputs": [
        {
          "internalType": "uint256",
          "name": "",
          "type": "uint256"
        }
      ],
      "name": "indexToTokenId",
      "outputs": [
        {
          "internalType": "uint256",
          "name": "",
          "type": "uint256"
        }
      ],
      "stateMutability": "view",
      "type": "function"
    },
    {
      "inputs": [],
      "name": "initialize",
      "outputs": [],
      "stateMutability": "nonpayable",
      "type": "function"
    },
    {
      "inputs": [
        {
          "internalType": "string",
          "name": "uri",
          "type": "string"
        }
      ],
      "name": "initialize",
      "outputs": [],
      "stateMutability": "nonpayable",
      "type": "function"
    },
    {
      "inputs": [
        {
          "internalType": "address",
          "name": "account",
          "type": "address"
        },
        {
          "internalType": "address",
          "name": "operator",
          "type": "address"
        }
      ],
      "name": "isApprovedForAll",
      "outputs": [
        {
          "internalType": "bool",
          "name": "",
          "type": "bool"
        }
      ],
      "stateMutability": "view",
      "type": "function"
    },
    {
      "inputs": [
        {
          "internalType": "address",
          "name": "to",
          "type": "address"
        },
        {
          "internalType": "uint256",
          "name": "id",
          "type": "uint256"
        },
        {
          "internalType": "uint256",
          "name": "amount",
          "type": "uint256"
        },
        {
          "internalType": "bytes",
          "name": "data",
          "type": "bytes"
        }
      ],
      "name": "mint",
      "outputs": [],
      "stateMutability": "nonpayable",
      "type": "function"
    },
    {
      "inputs": [
        {
          "internalType": "address",
          "name": "to",
          "type": "address"
        },
        {
          "internalType": "uint256[]",
          "name": "amounts",
          "type": "uint256[]"
        },
        {
          "internalType": "uint256[]",
          "name": "ids",
          "type": "uint256[]"
        },
        {
          "internalType": "bytes",
          "name": "data",
          "type": "bytes"
        }
      ],
      "name": "mintBatch",
      "outputs": [],
      "stateMutability": "nonpayable",
      "type": "function"
    },
    {
      "inputs": [],
      "name": "name",
      "outputs": [
        {
          "internalType": "string",
          "name": "",
          "type": "string"
        }
      ],
      "stateMutability": "view",
      "type": "function"
    },
    {
      "inputs": [],
      "name": "pause",
      "outputs": [],
      "stateMutability": "nonpayable",
      "type": "function"
    },
    {
      "inputs": [],
      "name": "paused",
      "outputs": [
        {
          "internalType": "bool",
          "name": "",
          "type": "bool"
        }
      ],
      "stateMutability": "view",
      "type": "function"
    },
    {
      "inputs": [
        {
          "internalType": "bytes32",
          "name": "role",
          "type": "bytes32"
        },
        {
          "internalType": "address",
          "name": "account",
          "type": "address"
        }
      ],
      "name": "renounceRole",
      "outputs": [],
      "stateMutability": "nonpayable",
      "type": "function"
    },
    {
      "inputs": [
        {
          "internalType": "bytes32",
          "name": "role",
          "type": "bytes32"
        },
        {
          "internalType": "address",
          "name": "account",
          "type": "address"
        }
      ],
      "name": "revokeRole",
      "outputs": [],
      "stateMutability": "nonpayable",
      "type": "function"
    },
    {
      "inputs": [
        {
          "internalType": "address",
          "name": "_from",
          "type": "address"
        },
        {
          "internalType": "address",
          "name": "_to",
          "type": "address"
        },
        {
          "internalType": "uint256[]",
          "name": "_ids",
          "type": "uint256[]"
        },
        {
          "internalType": "uint256[]",
          "name": "_amounts",
          "type": "uint256[]"
        },
        {
          "internalType": "bytes",
          "name": "_data",
          "type": "bytes"
        }
      ],
      "name": "safeBatchTransferFrom",
      "outputs": [],
      "stateMutability": "nonpayable",
      "type": "function"
    },
    {
      "inputs": [
        {
          "internalType": "address",
          "name": "from",
          "type": "address"
        },
        {
          "internalType": "address",
          "name": "to",
          "type": "address"
        },
        {
          "internalType": "uint256",
          "name": "id",
          "type": "uint256"
        },
        {
          "internalType": "uint256",
          "name": "amount",
          "type": "uint256"
        },
        {
          "internalType": "bytes",
          "name": "data",
          "type": "bytes"
        }
      ],
      "name": "safeTransferFrom",
      "outputs": [],
      "stateMutability": "nonpayable",
      "type": "function"
    },
    {
      "inputs": [
        {
          "internalType": "address",
          "name": "owner",
          "type": "address"
        },
        {
          "internalType": "address",
          "name": "operator",
          "type": "address"
        },
        {
          "internalType": "bool",
          "name": "approved",
          "type": "bool"
        }
      ],
      "name": "setApprovalForAll",
      "outputs": [],
      "stateMutability": "nonpayable",
      "type": "function"
    },
    {
      "inputs": [
        {
          "internalType": "address",
          "name": "operator",
          "type": "address"
        },
        {
          "internalType": "bool",
          "name": "approved",
          "type": "bool"
        }
      ],
      "name": "setApprovalForAll",
      "outputs": [],
      "stateMutability": "nonpayable",
      "type": "function"
    },
    {
      "inputs": [
        {
          "internalType": "bytes4",
          "name": "interfaceId",
          "type": "bytes4"
        }
      ],
      "name": "supportsInterface",
      "outputs": [
        {
          "internalType": "bool",
          "name": "",
          "type": "bool"
        }
      ],
      "stateMutability": "view",
      "type": "function"
    },
    {
      "inputs": [
        {
          "internalType": "uint256",
          "name": "id",
          "type": "uint256"
        }
      ],
      "name": "totalSupply",
      "outputs": [
        {
          "internalType": "uint256",
          "name": "",
          "type": "uint256"
        }
      ],
      "stateMutability": "view",
      "type": "function"
    },
    {
      "inputs": [
        {
          "internalType": "uint256",
          "name": "removalId",
          "type": "uint256"
        }
      ],
      "name": "unpackRemovalIdV0",
      "outputs": [
        {
          "components": [
            {
              "internalType": "uint8",
              "name": "idVersion",
              "type": "uint8"
            },
            {
              "internalType": "uint8",
              "name": "methodology",
              "type": "uint8"
            },
            {
              "internalType": "uint8",
              "name": "methodologyVersion",
              "type": "uint8"
            },
            {
              "internalType": "uint16",
              "name": "vintage",
              "type": "uint16"
            },
            {
              "internalType": "bytes2",
              "name": "country",
              "type": "bytes2"
            },
            {
              "internalType": "bytes2",
              "name": "subdivision",
              "type": "bytes2"
            },
            {
              "internalType": "address",
              "name": "supplierAddress",
              "type": "address"
            },
            {
              "internalType": "uint32",
              "name": "subIdentifier",
              "type": "uint32"
            }
          ],
          "internalType": "struct UnpackedRemovalIdV0",
          "name": "",
          "type": "tuple"
        }
      ],
      "stateMutability": "pure",
      "type": "function"
    },
    {
      "inputs": [],
      "name": "unpause",
      "outputs": [],
      "stateMutability": "nonpayable",
      "type": "function"
    },
    {
      "inputs": [
        {
          "internalType": "uint256",
          "name": "",
          "type": "uint256"
        }
      ],
      "name": "uri",
      "outputs": [
        {
          "internalType": "string",
          "name": "",
          "type": "string"
        }
      ],
      "stateMutability": "view",
      "type": "function"
    }
  ],
  "bytecode": "0x608060405234801561001057600080fd5b50613b27806100206000396000f3fe608060405234801561001057600080fd5b50600436106102055760003560e01c80637aef11641161011a578063ca15c873116100ad578063e63ab1e91161007c578063e63ab1e914610495578063e985e9c5146104aa578063f242432a146104e6578063f5298aca146104f9578063f62d18881461050c57600080fd5b8063ca15c8731461043a578063d53913931461044d578063d547741f14610462578063d85a53e91461047557600080fd5b806391d14854116100e957806391d14854146103eb578063a217fddf146103fe578063a22cb46514610406578063bd85b0391461041957600080fd5b80637aef11641461038f5780638129fc1c146103b05780638456cb59146103b85780639010d07c146103c057600080fd5b806336568abe1161019d5780634e1273f41161016c5780634e1273f41461031a5780634f558e791461033a5780635c975abb1461035d5780636b20c45414610369578063731133e91461037c57600080fd5b806336568abe146102d9578063367605ca146102ec5780633f4ba83a146102ff57806348ec4c3b1461030757600080fd5b80631f7fdffa116101d95780631f7fdffa1461027b578063248a9ca3146102905780632eb2c2d6146102b35780632f2ff15d146102c657600080fd5b8062fdd58e1461020a57806301ffc9a71461023057806306fdde03146102535780630e89341c14610268575b600080fd5b61021d610218366004612989565b61051f565b6040519081526020015b60405180910390f35b61024361023e3660046129cb565b6105bb565b6040519015158152602001610227565b61025b6105c6565b6040516102279190612a40565b61025b610276366004612a53565b610655565b61028e610289366004612bbf565b6106e9565b005b61021d61029e366004612a53565b60009081526065602052604090206001015490565b61028e6102c1366004612c59565b610842565b61028e6102d4366004612d06565b61084f565b61028e6102e7366004612d06565b61087a565b61028e6102fa366004612d44565b6108f8565b61028e61095c565b61021d610315366004612d8f565b6109f0565b61032d610328366004612e00565b610a03565b6040516102279190612f07565b610243610348366004612a53565b60009081526101c36020526040902054151590565b61012d5460ff16610243565b61028e610377366004612f1a565b610b2c565b61028e61038a366004612f8f565b610b6f565b61021d61039d366004612a53565b6101f76020526000908152604090205481565b61028e610baf565b61028e610c80565b6103d36103ce366004612fe5565b610d12565b6040516001600160a01b039091168152602001610227565b6102436103f9366004612d06565b610d2a565b61021d600081565b61028e610414366004613007565b610d55565b61021d610427366004612a53565b60009081526101c3602052604090205490565b61021d610448366004612a53565b610d60565b61021d600080516020613aac83398151915281565b61028e610470366004612d06565b610d77565b610488610483366004612a53565b610d9d565b6040516102279190613035565b61021d600080516020613a8c83398151915281565b6102436104b83660046130cc565b6001600160a01b03918216600090815260ca6020908152604080832093909416825291909152205460ff1690565b61028e6104f43660046130fa565b610dae565b61028e610507366004613162565b610df3565b61028e61051a366004613197565b610e36565b60006001600160a01b0383166105905760405162461bcd60e51b815260206004820152602b60248201527f455243313135353a2062616c616e636520717565727920666f7220746865207a60448201526a65726f206164647265737360a81b60648201526084015b60405180910390fd5b50600081815260c9602090815260408083206001600160a01b03861684529091529020545b92915050565b60006105b582610eb1565b6101f680546105d4906131e7565b80601f0160208091040260200160405190810160405280929190818152602001828054610600906131e7565b801561064d5780601f106106225761010080835404028352916020019161064d565b820191906000526020600020905b81548152906001019060200180831161063057829003601f168201915b505050505081565b606060cb8054610664906131e7565b80601f0160208091040260200160405190810160405280929190818152602001828054610690906131e7565b80156106dd5780601f106106b2576101008083540402835291602001916106dd565b820191906000526020600020905b8154815290600101906020018083116106c057829003601f168201915b50505050509050919050565b6000818060200190518101906106ff9190613221565b905060005b8351811015610807576101f860008583815181106107245761072461327f565b60209081029190910181015182528101919091526040016000205460ff1615610760576040516355e7cfc560e01b815260040160405180910390fd5b60016101f860008684815181106107795761077961327f565b6020026020010151815260200190815260200160002060006101000a81548160ff0219169083151502179055508381815181106107b8576107b861327f565b60200260200101516101f760006101f55481526020019081526020016000208190555060016101f560008282546107ef91906132ab565b909155508190506107ff816132c3565b915050610704565b5061081485848685610ebc565b610820853360016108f8565b80602001511561083b5761083b858260000151858786610842565b5050505050565b61083b8585858585610efc565b60008281526065602052604090206001015461086b8133610f8c565b6108758383610ff0565b505050565b6001600160a01b03811633146108ea5760405162461bcd60e51b815260206004820152602f60248201527f416363657373436f6e74726f6c3a2063616e206f6e6c792072656e6f756e636560448201526e103937b632b9903337b91039b2b63360891b6064820152608401610587565b6108f48282611012565b5050565b60006109048133610f8c565b61012d5460ff161561094b5760405162461bcd60e51b815260206004820152601060248201526f14185d5cd8589b194e881c185d5cd95960821b6044820152606401610587565b610956848484611034565b50505050565b610974600080516020613a8c83398151915233610d2a565b6109e65760405162461bcd60e51b815260206004820152603b60248201527f455243313135355072657365744d696e7465725061757365723a206d7573742060448201527f686176652070617573657220726f6c6520746f20756e706175736500000000006064820152608401610587565b6109ee611114565b565b60006109fc83836111a9565b9392505050565b60608151835114610a685760405162461bcd60e51b815260206004820152602960248201527f455243313135353a206163636f756e747320616e6420696473206c656e677468604482015268040dad2e6dac2e8c6d60bb1b6064820152608401610587565b600083516001600160401b03811115610a8357610a83612a6c565b604051908082528060200260200182016040528015610aac578160200160208202803683370190505b50905060005b8451811015610b2457610af7858281518110610ad057610ad061327f565b6020026020010151858381518110610aea57610aea61327f565b602002602001015161051f565b828281518110610b0957610b0961327f565b6020908102919091010152610b1d816132c3565b9050610ab2565b509392505050565b6001600160a01b038316331480610b485750610b4883336104b8565b610b645760405162461bcd60e51b8152600401610587906132dc565b6108758383836114bf565b610b87600080516020613aac83398151915233610d2a565b610ba35760405162461bcd60e51b815260040161058790613325565b61095684848484611650565b600054610100900460ff16610bca5760005460ff1615610bce565b303b155b610bea5760405162461bcd60e51b815260040161058790613382565b600054610100900460ff16158015610c0c576000805461ffff19166101011790555b610c2d604051806060016040528060268152602001613acc60269139610e36565b610c35611728565b60006101f5556040805180820190915260078082526614995b5bdd985b60ca1b6020909201918252610c6a916101f691612887565b508015610c7d576000805461ff00191690555b50565b610c98600080516020613a8c83398151915233610d2a565b610d0a5760405162461bcd60e51b815260206004820152603960248201527f455243313135355072657365744d696e7465725061757365723a206d7573742060448201527f686176652070617573657220726f6c6520746f207061757365000000000000006064820152608401610587565b6109ee61174f565b60008281526097602052604081206109fc90836117cc565b60009182526065602090815260408084206001600160a01b0393909316845291905290205460ff1690565b6108f4338383611034565b60008181526097602052604081206105b5906117d8565b600082815260656020526040902060010154610d938133610f8c565b6108758383611012565b610da561290b565b6105b5826117e2565b6001600160a01b038516331480610dca5750610dca85336104b8565b610de65760405162461bcd60e51b8152600401610587906132dc565b61083b8585858585611899565b6001600160a01b038316331480610e0f5750610e0f83336104b8565b610e2b5760405162461bcd60e51b8152600401610587906132dc565b6108758383836119ba565b600054610100900460ff16610e515760005460ff1615610e55565b303b155b610e715760405162461bcd60e51b815260040161058790613382565b600054610100900460ff16158015610e93576000805461ffff19166101011790555b610e9c82611abf565b80156108f4576000805461ff00191690555050565b60006105b582611b00565b610ed4600080516020613aac83398151915233610d2a565b610ef05760405162461bcd60e51b815260040161058790613325565b61095684848484611b40565b6001600160a01b038516331480610f185750610f1885336104b8565b610f7f5760405162461bcd60e51b815260206004820152603260248201527f455243313135353a207472616e736665722063616c6c6572206973206e6f74206044820152711bdddb995c881b9bdc88185c1c1c9bdd995960721b6064820152608401610587565b61083b8585858585611c9b565b610f968282610d2a565b6108f457610fae816001600160a01b03166014611e48565b610fb9836020611e48565b604051602001610fca9291906133d0565b60408051601f198184030181529082905262461bcd60e51b825261058791600401612a40565b610ffa8282611fe3565b60008281526097602052604090206108759082612069565b61101c828261207e565b600082815260976020526040902061087590826120e5565b816001600160a01b0316836001600160a01b0316036110a75760405162461bcd60e51b815260206004820152602960248201527f455243313135353a2073657474696e6720617070726f76616c20737461747573604482015268103337b91039b2b63360b91b6064820152608401610587565b6001600160a01b03838116600081815260ca6020908152604080832094871680845294825291829020805460ff191686151590811790915591519182527f17307eab39ab6107e8899845ad3d59bd9653f200f220920489ca2b5937696c31910160405180910390a3505050565b61012d5460ff1661115e5760405162461bcd60e51b815260206004820152601460248201527314185d5cd8589b194e881b9bdd081c185d5cd95960621b6044820152606401610587565b61012d805460ff191690557f5db9ee0a495bf2e6ff9c91a7834c1ba4fdd244a5e8aa4e537bd38aeae4b073aa335b6040516001600160a01b03909116815260200160405180910390a1565b6000806111b883850185613456565b60ff16905080156112175760405162461bcd60e51b8152602060048201526024808201527f556e737570706f727465642072656d6f76616c20746f6b656e2069642076657260448201526339b4b7b760e11b6064820152608401610587565b610100831461127b5760405162461bcd60e51b815260206004820152602a60248201527f72656d6f76616c4461746120636f6e7461696e732077726f6e67206e756d626560448201526972206f6620627974657360b01b6064820152608401610587565b6000611289848601866134af565b9050600f816020015160ff1611156112db5760405162461bcd60e51b81526020600482015260156024820152744d6574686f6c6f646f677920746f6f206c6172676560581b6044820152606401610587565b600f816040015160ff1611156113335760405162461bcd60e51b815260206004820152601d60248201527f4d6574686f6c6f646f67792076657273696f6e20746f6f206c617267650000006044820152606401610587565b608081015160a082015160f882811c9260ff60f091821c8116939283901c9290911c16604184108015906113685750605a8411155b8015611375575060418310155b80156113825750605a8311155b801561138f575060418210155b801561139c5750605a8211155b80156113a9575060418110155b80156113b65750605a8111155b6113f25760405162461bcd60e51b815260206004820152600d60248201526c496e76616c696420415343494960981b6044820152606401610587565b600085604001516004876020015160ff16901b1760ff169050600860006114199190613573565b60e087015163ffffffff16901b61143260086004613573565b60c08801516001600160a01b0316901b61144e60086018613573565b60a089015160f01c901b6114646008601a613573565b60808a015160f01c901b61147a6008601c613573565b60608b015161ffff16901b6114916008601e613573565b86901b6114a06008601f613573565b8c6000015160ff16901b17171717171797505050505050505092915050565b6001600160a01b0383166114e55760405162461bcd60e51b815260040161058790613592565b80518251146115065760405162461bcd60e51b8152600401610587906135d5565b6000339050611529818560008686604051806020016040528060008152506120fa565b60005b83518110156115f15760008482815181106115495761154961327f565b6020026020010151905060008483815181106115675761156761327f565b602090810291909101810151600084815260c9835260408082206001600160a01b038c1683529093529190912054909150818110156115b85760405162461bcd60e51b81526004016105879061361d565b600092835260c9602090815260408085206001600160a01b038b16865290915290922091039055806115e9816132c3565b91505061152c565b5060006001600160a01b0316846001600160a01b0316826001600160a01b03167f4a39dc06d4c0dbc64b70af90fd698a233a518aa5d07e595d983b8c0526c8f7fb8686604051611642929190613661565b60405180910390a450505050565b6001600160a01b0384166116765760405162461bcd60e51b81526004016105879061368f565b336116968160008761168788612108565b61169088612108565b876120fa565b600084815260c9602090815260408083206001600160a01b0389168452909152812080548592906116c89084906132ab565b909155505060408051858152602081018590526001600160a01b0380881692600092918516917fc3d58168c5ae7397731d063d5bbf3d657854427343f4c083240f7aacaa2d0f62910160405180910390a461083b81600087878787612153565b600054610100900460ff166109ee5760405162461bcd60e51b8152600401610587906136d0565b61012d5460ff16156117965760405162461bcd60e51b815260206004820152601060248201526f14185d5cd8589b194e881c185d5cd95960821b6044820152606401610587565b61012d805460ff191660011790557f62e78cea01bee320cd4e420270b5ea74000d11b0c9f74754ebdbfc544b05a25861118c3390565b60006109fc83836122ae565b60006105b5825490565b6117ea61290b565b6040518061010001604052806117ff846122d8565b60ff168152602001611810846122e7565b60ff16815260200161182184612300565b60ff16815260200161183284612318565b61ffff16815260200161184484612327565b6001600160f01b031916815260200161185c8461233f565b6001600160f01b03191681526020016118748461234e565b6001600160a01b0316815260200161188b8461235d565b63ffffffff16905292915050565b6001600160a01b0384166118bf5760405162461bcd60e51b81526004016105879061371b565b336118cf81878761168788612108565b600084815260c9602090815260408083206001600160a01b038a168452909152902054838110156119125760405162461bcd60e51b815260040161058790613760565b600085815260c9602090815260408083206001600160a01b038b81168552925280832087850390559088168252812080548692906119519084906132ab565b909155505060408051868152602081018690526001600160a01b03808916928a821692918616917fc3d58168c5ae7397731d063d5bbf3d657854427343f4c083240f7aacaa2d0f62910160405180910390a46119b1828888888888612153565b50505050505050565b6001600160a01b0383166119e05760405162461bcd60e51b815260040161058790613592565b33611a0f818560006119f187612108565b6119fa87612108565b604051806020016040528060008152506120fa565b600083815260c9602090815260408083206001600160a01b038816845290915290205482811015611a525760405162461bcd60e51b81526004016105879061361d565b600084815260c9602090815260408083206001600160a01b03898116808652918452828520888703905582518981529384018890529092908616917fc3d58168c5ae7397731d063d5bbf3d657854427343f4c083240f7aacaa2d0f62910160405180910390a45050505050565b600054610100900460ff16611ae65760405162461bcd60e51b8152600401610587906136d0565b611aef8161236c565b611af761239c565b610c7d816123d0565b60006001600160e01b03198216636cdb3d1360e11b1480611b3157506001600160e01b031982166303a24d0760e21b145b806105b557506105b582612432565b6001600160a01b038416611b665760405162461bcd60e51b81526004016105879061368f565b8151835114611b875760405162461bcd60e51b8152600401610587906135d5565b33611b97816000878787876120fa565b60005b8451811015611c3357838181518110611bb557611bb561327f565b602002602001015160c96000878481518110611bd357611bd361327f565b602002602001015181526020019081526020016000206000886001600160a01b03166001600160a01b031681526020019081526020016000206000828254611c1b91906132ab565b90915550819050611c2b816132c3565b915050611b9a565b50846001600160a01b031660006001600160a01b0316826001600160a01b03167f4a39dc06d4c0dbc64b70af90fd698a233a518aa5d07e595d983b8c0526c8f7fb8787604051611c84929190613661565b60405180910390a461083b81600087878787612457565b8151835114611cbc5760405162461bcd60e51b8152600401610587906135d5565b6001600160a01b038416611ce25760405162461bcd60e51b81526004016105879061371b565b33611cf18187878787876120fa565b60005b8451811015611dda576000858281518110611d1157611d1161327f565b602002602001015190506000858381518110611d2f57611d2f61327f565b602090810291909101810151600084815260c9835260408082206001600160a01b038e168352909352919091205490915081811015611d805760405162461bcd60e51b815260040161058790613760565b600083815260c9602090815260408083206001600160a01b038e8116855292528083208585039055908b16825281208054849290611dbf9084906132ab565b9250508190555050505080611dd3906132c3565b9050611cf4565b50846001600160a01b0316866001600160a01b0316826001600160a01b03167f4a39dc06d4c0dbc64b70af90fd698a233a518aa5d07e595d983b8c0526c8f7fb8787604051611e2a929190613661565b60405180910390a4611e40818787878787612457565b505050505050565b60606000611e57836002613573565b611e629060026132ab565b6001600160401b03811115611e7957611e79612a6c565b6040519080825280601f01601f191660200182016040528015611ea3576020820181803683370190505b509050600360fc1b81600081518110611ebe57611ebe61327f565b60200101906001600160f81b031916908160001a905350600f60fb1b81600181518110611eed57611eed61327f565b60200101906001600160f81b031916908160001a9053506000611f11846002613573565b611f1c9060016132ab565b90505b6001811115611f94576f181899199a1a9b1b9c1cb0b131b232b360811b85600f1660108110611f5057611f5061327f565b1a60f81b828281518110611f6657611f6661327f565b60200101906001600160f81b031916908160001a90535060049490941c93611f8d816137aa565b9050611f1f565b5083156109fc5760405162461bcd60e51b815260206004820181905260248201527f537472696e67733a20686578206c656e67746820696e73756666696369656e746044820152606401610587565b611fed8282610d2a565b6108f45760008281526065602090815260408083206001600160a01b03851684529091529020805460ff191660011790556120253390565b6001600160a01b0316816001600160a01b0316837f2f8788117e7eff1d82e926ec794901d17c78024a50270940304540a733656f0d60405160405180910390a45050565b60006109fc836001600160a01b038416612512565b6120888282610d2a565b156108f45760008281526065602090815260408083206001600160a01b0385168085529252808320805460ff1916905551339285917ff6391f5c32d9c69d2a47ea670b442974b53935d1edc7fd64eb21e047a839171b9190a45050565b60006109fc836001600160a01b038416612561565b611e4086868686868661265b565b604080516001808252818301909252606091600091906020808301908036833701905050905082816000815181106121425761214261327f565b602090810291909101015292915050565b6001600160a01b0384163b15611e405760405163f23a6e6160e01b81526001600160a01b0385169063f23a6e619061219790899089908890889088906004016137c1565b6020604051808303816000875af19250505080156121d2575060408051601f3d908101601f191682019092526121cf91810190613806565b60015b61227e576121de613823565b806308c379a00361221757506121f261383f565b806121fd5750612219565b8060405162461bcd60e51b81526004016105879190612a40565b505b60405162461bcd60e51b815260206004820152603460248201527f455243313135353a207472616e7366657220746f206e6f6e20455243313135356044820152732932b1b2b4bb32b91034b6b83632b6b2b73a32b960611b6064820152608401610587565b6001600160e01b0319811663f23a6e6160e01b146119b15760405162461bcd60e51b8152600401610587906138c8565b60008260000182815481106122c5576122c561327f565b9060005260206000200154905092915050565b60006105b5826001601f612777565b600060046122f8836001601e612777565b901c92915050565b600061230f826001601e612777565b600f1692915050565b60006105b5826002601c612777565b6000612336826002601a612777565b60f01b92915050565b60006123368260026018612777565b60006105b58260146004612777565b60006105b58260046000612777565b600054610100900460ff166123935760405162461bcd60e51b8152600401610587906136d0565b610c7d816127c3565b600054610100900460ff166123c35760405162461bcd60e51b8152600401610587906136d0565b61012d805460ff19169055565b600054610100900460ff166123f75760405162461bcd60e51b8152600401610587906136d0565b6124026000336127d6565b61241a600080516020613aac833981519152336127d6565b610c7d600080516020613a8c833981519152336127d6565b60006001600160e01b03198216635a05180f60e01b14806105b557506105b5826127e0565b6001600160a01b0384163b15611e405760405163bc197c8160e01b81526001600160a01b0385169063bc197c819061249b9089908990889088908890600401613910565b6020604051808303816000875af19250505080156124d6575060408051601f3d908101601f191682019092526124d391810190613806565b60015b6124e2576121de613823565b6001600160e01b0319811663bc197c8160e01b146119b15760405162461bcd60e51b8152600401610587906138c8565b6000818152600183016020526040812054612559575081546001818101845560008481526020808220909301849055845484825282860190935260409020919091556105b5565b5060006105b5565b6000818152600183016020526040812054801561264a57600061258560018361396e565b85549091506000906125999060019061396e565b90508181146125fe5760008660000182815481106125b9576125b961327f565b90600052602060002001549050808760000184815481106125dc576125dc61327f565b6000918252602080832090910192909255918252600188019052604090208390555b855486908061260f5761260f613985565b6001900381819060005260206000200160009055905585600101600086815260200190815260200160002060009055600193505050506105b5565b60009150506105b5565b5092915050565b612669868686868686612815565b6001600160a01b0385166126f15760005b83518110156126ef578281815181106126955761269561327f565b60200260200101516101c360008684815181106126b4576126b461327f565b6020026020010151815260200190815260200160002060008282546126d991906132ab565b909155506126e89050816132c3565b905061267a565b505b6001600160a01b038416611e405760005b83518110156119b15782818151811061271d5761271d61327f565b60200260200101516101c3600086848151811061273c5761273c61327f565b602002602001015181526020019081526020016000206000828254612761919061396e565b909155506127709050816132c3565b9050612702565b600080612785600884613573565b6001612792600887613573565b61279d906002613a7f565b6127a7919061396e565b901b90508481166127b9600885613573565b1c95945050505050565b80516108f49060cb906020840190612887565b6108f48282610ff0565b60006001600160e01b03198216637965db0b60e01b14806105b557506301ffc9a760e01b6001600160e01b03198316146105b5565b611e4086868686868661012d5460ff1615611e405760405162461bcd60e51b815260206004820152602c60248201527f455243313135355061757361626c653a20746f6b656e207472616e736665722060448201526b1dda1a5b19481c185d5cd95960a21b6064820152608401610587565b828054612893906131e7565b90600052602060002090601f0160209004810192826128b557600085556128fb565b82601f106128ce57805160ff19168380011785556128fb565b828001600101855582156128fb579182015b828111156128fb5782518255916020019190600101906128e0565b5061290792915061294f565b5090565b6040805161010081018252600080825260208201819052918101829052606081018290526080810182905260a0810182905260c0810182905260e081019190915290565b5b808211156129075760008155600101612950565b6001600160a01b0381168114610c7d57600080fd5b803561298481612964565b919050565b6000806040838503121561299c57600080fd5b82356129a781612964565b946020939093013593505050565b6001600160e01b031981168114610c7d57600080fd5b6000602082840312156129dd57600080fd5b81356109fc816129b5565b60005b83811015612a035781810151838201526020016129eb565b838111156109565750506000910152565b60008151808452612a2c8160208601602086016129e8565b601f01601f19169290920160200192915050565b6020815260006109fc6020830184612a14565b600060208284031215612a6557600080fd5b5035919050565b634e487b7160e01b600052604160045260246000fd5b601f8201601f191681016001600160401b0381118282101715612aa757612aa7612a6c565b6040525050565b60006001600160401b03821115612ac757612ac7612a6c565b5060051b60200190565b600082601f830112612ae257600080fd5b81356020612aef82612aae565b604051612afc8282612a82565b83815260059390931b8501820192828101915086841115612b1c57600080fd5b8286015b84811015612b375780358352918301918301612b20565b509695505050505050565b60006001600160401b03831115612b5b57612b5b612a6c565b604051612b72601f8501601f191660200182612a82565b809150838152848484011115612b8757600080fd5b83836020830137600060208583010152509392505050565b600082601f830112612bb057600080fd5b6109fc83833560208501612b42565b60008060008060808587031215612bd557600080fd5b8435612be081612964565b935060208501356001600160401b0380821115612bfc57600080fd5b612c0888838901612ad1565b94506040870135915080821115612c1e57600080fd5b612c2a88838901612ad1565b93506060870135915080821115612c4057600080fd5b50612c4d87828801612b9f565b91505092959194509250565b600080600080600060a08688031215612c7157600080fd5b8535612c7c81612964565b94506020860135612c8c81612964565b935060408601356001600160401b0380821115612ca857600080fd5b612cb489838a01612ad1565b94506060880135915080821115612cca57600080fd5b612cd689838a01612ad1565b93506080880135915080821115612cec57600080fd5b50612cf988828901612b9f565b9150509295509295909350565b60008060408385031215612d1957600080fd5b823591506020830135612d2b81612964565b809150509250929050565b8015158114610c7d57600080fd5b600080600060608486031215612d5957600080fd5b8335612d6481612964565b92506020840135612d7481612964565b91506040840135612d8481612d36565b809150509250925092565b60008060208385031215612da257600080fd5b82356001600160401b0380821115612db957600080fd5b818501915085601f830112612dcd57600080fd5b813581811115612ddc57600080fd5b866020828501011115612dee57600080fd5b60209290920196919550909350505050565b60008060408385031215612e1357600080fd5b82356001600160401b0380821115612e2a57600080fd5b818501915085601f830112612e3e57600080fd5b81356020612e4b82612aae565b604051612e588282612a82565b83815260059390931b8501820192828101915089841115612e7857600080fd5b948201945b83861015612e9f578535612e9081612964565b82529482019490820190612e7d565b96505086013592505080821115612eb557600080fd5b50612ec285828601612ad1565b9150509250929050565b600081518084526020808501945080840160005b83811015612efc57815187529582019590820190600101612ee0565b509495945050505050565b6020815260006109fc6020830184612ecc565b600080600060608486031215612f2f57600080fd5b8335612f3a81612964565b925060208401356001600160401b0380821115612f5657600080fd5b612f6287838801612ad1565b93506040860135915080821115612f7857600080fd5b50612f8586828701612ad1565b9150509250925092565b60008060008060808587031215612fa557600080fd5b8435612fb081612964565b9350602085013592506040850135915060608501356001600160401b03811115612fd957600080fd5b612c4d87828801612b9f565b60008060408385031215612ff857600080fd5b50508035926020909101359150565b6000806040838503121561301a57600080fd5b823561302581612964565b91506020830135612d2b81612d36565b60006101008201905060ff835116825260ff602084015116602083015260ff604084015116604083015261ffff606084015116606083015261ffff60f01b608084015116608083015260a083015161309960a08401826001600160f01b0319169052565b5060c08301516130b460c08401826001600160a01b03169052565b5060e083015161265460e084018263ffffffff169052565b600080604083850312156130df57600080fd5b82356130ea81612964565b91506020830135612d2b81612964565b600080600080600060a0868803121561311257600080fd5b853561311d81612964565b9450602086013561312d81612964565b9350604086013592506060860135915060808601356001600160401b0381111561315657600080fd5b612cf988828901612b9f565b60008060006060848603121561317757600080fd5b833561318281612964565b95602085013595506040909401359392505050565b6000602082840312156131a957600080fd5b81356001600160401b038111156131bf57600080fd5b8201601f810184136131d057600080fd5b6131df84823560208401612b42565b949350505050565b600181811c908216806131fb57607f821691505b60208210810361321b57634e487b7160e01b600052602260045260246000fd5b50919050565b60006040828403121561323357600080fd5b604051604081018181106001600160401b038211171561325557613255612a6c565b604052825161326381612964565b8152602083015161327381612d36565b60208201529392505050565b634e487b7160e01b600052603260045260246000fd5b634e487b7160e01b600052601160045260246000fd5b600082198211156132be576132be613295565b500190565b6000600182016132d5576132d5613295565b5060010190565b60208082526029908201527f455243313135353a2063616c6c6572206973206e6f74206f776e6572206e6f7260408201526808185c1c1c9bdd995960ba1b606082015260800190565b60208082526038908201527f455243313135355072657365744d696e7465725061757365723a206d7573742060408201527f68617665206d696e74657220726f6c6520746f206d696e740000000000000000606082015260800190565b6020808252602e908201527f496e697469616c697a61626c653a20636f6e747261637420697320616c72656160408201526d191e481a5b9a5d1a585b1a5e995960921b606082015260800190565b7f416363657373436f6e74726f6c3a206163636f756e74200000000000000000008152600083516134088160178501602088016129e8565b7001034b99036b4b9b9b4b733903937b6329607d1b60179184019182015283516134398160288401602088016129e8565b01602801949350505050565b803560ff8116811461298457600080fd5b60006020828403121561346857600080fd5b6109fc82613445565b803561ffff8116811461298457600080fd5b80356001600160f01b03198116811461298457600080fd5b803563ffffffff8116811461298457600080fd5b60006101008083850312156134c357600080fd5b604051908101906001600160401b03821181831017156134e5576134e5612a6c565b816040526134f284613445565b815261350060208501613445565b602082015261351160408501613445565b604082015261352260608501613471565b606082015261353360808501613483565b608082015261354460a08501613483565b60a082015261355560c08501612979565b60c082015261356660e0850161349b565b60e0820152949350505050565b600081600019048311821515161561358d5761358d613295565b500290565b60208082526023908201527f455243313135353a206275726e2066726f6d20746865207a65726f206164647260408201526265737360e81b606082015260800190565b60208082526028908201527f455243313135353a2069647320616e6420616d6f756e7473206c656e677468206040820152670dad2e6dac2e8c6d60c31b606082015260800190565b60208082526024908201527f455243313135353a206275726e20616d6f756e7420657863656564732062616c604082015263616e636560e01b606082015260800190565b6040815260006136746040830185612ecc565b82810360208401526136868185612ecc565b95945050505050565b60208082526021908201527f455243313135353a206d696e7420746f20746865207a65726f206164647265736040820152607360f81b606082015260800190565b6020808252602b908201527f496e697469616c697a61626c653a20636f6e7472616374206973206e6f74206960408201526a6e697469616c697a696e6760a81b606082015260800190565b60208082526025908201527f455243313135353a207472616e7366657220746f20746865207a65726f206164604082015264647265737360d81b606082015260800190565b6020808252602a908201527f455243313135353a20696e73756666696369656e742062616c616e636520666f60408201526939103a3930b739b332b960b11b606082015260800190565b6000816137b9576137b9613295565b506000190190565b6001600160a01b03868116825285166020820152604081018490526060810183905260a0608082018190526000906137fb90830184612a14565b979650505050505050565b60006020828403121561381857600080fd5b81516109fc816129b5565b600060033d111561383c5760046000803e5060005160e01c5b90565b600060443d101561384d5790565b6040516003193d81016004833e81513d6001600160401b03816024840111818411171561387c57505050505090565b82850191508151818111156138945750505050505090565b843d87010160208285010111156138ae5750505050505090565b6138bd60208286010187612a82565b509095945050505050565b60208082526028908201527f455243313135353a204552433131353552656365697665722072656a656374656040820152676420746f6b656e7360c01b606082015260800190565b6001600160a01b0386811682528516602082015260a06040820181905260009061393c90830186612ecc565b828103606084015261394e8186612ecc565b905082810360808401526139628185612a14565b98975050505050505050565b60008282101561398057613980613295565b500390565b634e487b7160e01b600052603160045260246000fd5b600181815b808511156139d65781600019048211156139bc576139bc613295565b808516156139c957918102915b93841c93908002906139a0565b509250929050565b6000826139ed575060016105b5565b816139fa575060006105b5565b8160018114613a105760028114613a1a57613a36565b60019150506105b5565b60ff841115613a2b57613a2b613295565b50506001821b6105b5565b5060208310610133831016604e8410600b8410161715613a59575081810a6105b5565b613a63838361399b565b8060001904821115613a7757613a77613295565b029392505050565b60006109fc83836139de56fe65d7a28e3265b37a6474929f336521b332c1681b933f6cb9f3376673440d862a9f2df0fed2c77648de5860a4cc508cd0818c85b8b8a1ab4ceeef8d981c8956a668747470733a2f2f6e6f72692e636f6d2f6170692f72656d6f76616c2f7b69647d2e6a736f6ea2646970667358221220d98041d2c2b5c60d999c39e52eb2329f015df0a1cb6ca6118ddf2c240950c07c64736f6c634300080d0033",
  "linkReferences": {},
  "deployedLinkReferences": {}
}