{
  "_format": "hh-sol-artifact-1",
  "contractName": "Removal",
  "sourceName": "contracts/Removal.sol",
  "abi": [
    {
      "inputs": [],
      "stateMutability": "nonpayable",
      "type": "constructor"
    },
    {
      "inputs": [
        {
          "internalType": "string",
          "name": "array1Name",
          "type": "string"
        },
        {
          "internalType": "string",
          "name": "array2Name",
          "type": "string"
        }
      ],
      "name": "ArrayLengthMismatch",
      "type": "error"
    },
    {
      "inputs": [
        {
          "internalType": "uint256",
          "name": "projectId",
          "type": "uint256"
        }
      ],
      "name": "InvalidProjectId",
      "type": "error"
    },
    {
      "inputs": [
        {
          "internalType": "uint256",
          "name": "tokenId",
          "type": "uint256"
        }
      ],
      "name": "TokenIdDoesNotExist",
      "type": "error"
    },
    {
      "inputs": [
        {
          "internalType": "uint256",
          "name": "tokenId",
          "type": "uint256"
        }
      ],
      "name": "TokenIdExists",
      "type": "error"
    },
    {
      "anonymous": false,
      "inputs": [
        {
          "indexed": true,
          "internalType": "address",
          "name": "account",
          "type": "address"
        },
        {
          "indexed": true,
          "internalType": "address",
          "name": "operator",
          "type": "address"
        },
        {
          "indexed": false,
          "internalType": "bool",
          "name": "approved",
          "type": "bool"
        }
      ],
      "name": "ApprovalForAll",
      "type": "event"
    },
    {
      "anonymous": false,
      "inputs": [
        {
          "indexed": false,
          "internalType": "uint8",
          "name": "version",
          "type": "uint8"
        }
      ],
      "name": "Initialized",
      "type": "event"
    },
    {
      "anonymous": false,
      "inputs": [
        {
          "indexed": false,
          "internalType": "address",
          "name": "account",
          "type": "address"
        }
      ],
      "name": "Paused",
      "type": "event"
    },
    {
      "anonymous": false,
      "inputs": [
        {
          "indexed": true,
          "internalType": "bytes32",
          "name": "role",
          "type": "bytes32"
        },
        {
          "indexed": true,
          "internalType": "bytes32",
          "name": "previousAdminRole",
          "type": "bytes32"
        },
        {
          "indexed": true,
          "internalType": "bytes32",
          "name": "newAdminRole",
          "type": "bytes32"
        }
      ],
      "name": "RoleAdminChanged",
      "type": "event"
    },
    {
      "anonymous": false,
      "inputs": [
        {
          "indexed": true,
          "internalType": "bytes32",
          "name": "role",
          "type": "bytes32"
        },
        {
          "indexed": true,
          "internalType": "address",
          "name": "account",
          "type": "address"
        },
        {
          "indexed": true,
          "internalType": "address",
          "name": "sender",
          "type": "address"
        }
      ],
      "name": "RoleGranted",
      "type": "event"
    },
    {
      "anonymous": false,
      "inputs": [
        {
          "indexed": true,
          "internalType": "bytes32",
          "name": "role",
          "type": "bytes32"
        },
        {
          "indexed": true,
          "internalType": "address",
          "name": "account",
          "type": "address"
        },
        {
          "indexed": true,
          "internalType": "address",
          "name": "sender",
          "type": "address"
        }
      ],
      "name": "RoleRevoked",
      "type": "event"
    },
    {
      "anonymous": false,
      "inputs": [
        {
          "indexed": true,
          "internalType": "address",
          "name": "operator",
          "type": "address"
        },
        {
          "indexed": true,
          "internalType": "address",
          "name": "from",
          "type": "address"
        },
        {
          "indexed": true,
          "internalType": "address",
          "name": "to",
          "type": "address"
        },
        {
          "indexed": false,
          "internalType": "uint256[]",
          "name": "ids",
          "type": "uint256[]"
        },
        {
          "indexed": false,
          "internalType": "uint256[]",
          "name": "values",
          "type": "uint256[]"
        }
      ],
      "name": "TransferBatch",
      "type": "event"
    },
    {
      "anonymous": false,
      "inputs": [
        {
          "indexed": true,
          "internalType": "address",
          "name": "operator",
          "type": "address"
        },
        {
          "indexed": true,
          "internalType": "address",
          "name": "from",
          "type": "address"
        },
        {
          "indexed": true,
          "internalType": "address",
          "name": "to",
          "type": "address"
        },
        {
          "indexed": false,
          "internalType": "uint256",
          "name": "id",
          "type": "uint256"
        },
        {
          "indexed": false,
          "internalType": "uint256",
          "name": "value",
          "type": "uint256"
        }
      ],
      "name": "TransferSingle",
      "type": "event"
    },
    {
      "anonymous": false,
      "inputs": [
        {
          "indexed": false,
          "internalType": "string",
          "name": "value",
          "type": "string"
        },
        {
          "indexed": true,
          "internalType": "uint256",
          "name": "id",
          "type": "uint256"
        }
      ],
      "name": "URI",
      "type": "event"
    },
    {
      "anonymous": false,
      "inputs": [
        {
          "indexed": false,
          "internalType": "address",
          "name": "account",
          "type": "address"
        }
      ],
      "name": "Unpaused",
      "type": "event"
    },
    {
      "inputs": [],
      "name": "DEFAULT_ADMIN_ROLE",
      "outputs": [
        {
          "internalType": "bytes32",
          "name": "",
          "type": "bytes32"
        }
      ],
      "stateMutability": "view",
      "type": "function"
    },
    {
      "inputs": [],
      "name": "MINTER_ROLE",
      "outputs": [
        {
          "internalType": "bytes32",
          "name": "",
          "type": "bytes32"
        }
      ],
      "stateMutability": "view",
      "type": "function"
    },
    {
      "inputs": [],
      "name": "PAUSER_ROLE",
      "outputs": [
        {
          "internalType": "bytes32",
          "name": "",
          "type": "bytes32"
        }
      ],
      "stateMutability": "view",
      "type": "function"
    },
    {
      "inputs": [],
      "name": "RELEASER_ROLE",
      "outputs": [
        {
          "internalType": "bytes32",
          "name": "",
          "type": "bytes32"
        }
      ],
      "stateMutability": "view",
      "type": "function"
    },
    {
      "inputs": [
        {
          "internalType": "address",
          "name": "account",
          "type": "address"
        },
        {
          "internalType": "uint256",
          "name": "id",
          "type": "uint256"
        }
      ],
      "name": "balanceOf",
      "outputs": [
        {
          "internalType": "uint256",
          "name": "",
          "type": "uint256"
        }
      ],
      "stateMutability": "view",
      "type": "function"
    },
    {
      "inputs": [
        {
          "internalType": "address[]",
          "name": "accounts",
          "type": "address[]"
        },
        {
          "internalType": "uint256[]",
          "name": "ids",
          "type": "uint256[]"
        }
      ],
      "name": "balanceOfBatch",
      "outputs": [
        {
          "internalType": "uint256[]",
          "name": "",
          "type": "uint256[]"
        }
      ],
      "stateMutability": "view",
      "type": "function"
    },
    {
      "inputs": [
        {
          "internalType": "address",
          "name": "account",
          "type": "address"
        },
        {
          "internalType": "uint256[]",
          "name": "ids",
          "type": "uint256[]"
        }
      ],
      "name": "balanceOfIds",
      "outputs": [
        {
          "internalType": "uint256[]",
          "name": "",
          "type": "uint256[]"
        }
      ],
      "stateMutability": "view",
      "type": "function"
    },
    {
      "inputs": [
        {
          "internalType": "uint256[]",
          "name": "removalIds",
          "type": "uint256[]"
        }
      ],
      "name": "batchGetHoldbackPercentages",
      "outputs": [
        {
          "internalType": "uint256[]",
          "name": "",
          "type": "uint256[]"
        }
      ],
      "stateMutability": "view",
      "type": "function"
    },
    {
      "inputs": [
        {
          "internalType": "uint256[]",
          "name": "removalIds",
          "type": "uint256[]"
        },
        {
          "internalType": "uint256",
          "name": "holdbackPercentage",
          "type": "uint256"
        }
      ],
      "name": "batchSetHoldbackPercentage",
      "outputs": [],
      "stateMutability": "nonpayable",
      "type": "function"
    },
    {
      "inputs": [
        {
          "internalType": "address",
          "name": "account",
          "type": "address"
        },
        {
          "internalType": "uint256",
          "name": "id",
          "type": "uint256"
        },
        {
          "internalType": "uint256",
          "name": "value",
          "type": "uint256"
        }
      ],
      "name": "burn",
      "outputs": [],
      "stateMutability": "nonpayable",
      "type": "function"
    },
    {
      "inputs": [
        {
          "internalType": "address",
          "name": "account",
          "type": "address"
        },
        {
          "internalType": "uint256[]",
          "name": "ids",
          "type": "uint256[]"
        },
        {
          "internalType": "uint256[]",
          "name": "values",
          "type": "uint256[]"
        }
      ],
      "name": "burnBatch",
      "outputs": [],
      "stateMutability": "nonpayable",
      "type": "function"
    },
    {
      "inputs": [
        {
          "internalType": "bytes",
          "name": "removalData",
          "type": "bytes"
        }
      ],
      "name": "createRemovalId",
      "outputs": [
        {
          "internalType": "uint256",
          "name": "",
          "type": "uint256"
        }
      ],
      "stateMutability": "pure",
      "type": "function"
    },
    {
      "inputs": [
        {
          "internalType": "address",
          "name": "account",
          "type": "address"
        }
      ],
      "name": "cumulativeBalanceOf",
      "outputs": [
        {
          "internalType": "uint256",
          "name": "",
          "type": "uint256"
        }
      ],
      "stateMutability": "view",
      "type": "function"
    },
    {
      "inputs": [
        {
          "internalType": "address[]",
          "name": "accounts",
          "type": "address[]"
        }
      ],
      "name": "cumulativeBalanceOfBatch",
      "outputs": [
        {
          "internalType": "uint256[]",
          "name": "",
          "type": "uint256[]"
        }
      ],
      "stateMutability": "view",
      "type": "function"
    },
    {
      "inputs": [
        {
          "internalType": "uint256",
          "name": "id",
          "type": "uint256"
        }
      ],
      "name": "exists",
      "outputs": [
        {
          "internalType": "bool",
          "name": "",
          "type": "bool"
        }
      ],
      "stateMutability": "view",
      "type": "function"
    },
    {
      "inputs": [
        {
          "internalType": "uint256",
          "name": "removalId",
          "type": "uint256"
        }
      ],
      "name": "getProjectIdForRemoval",
      "outputs": [
        {
          "internalType": "uint256",
          "name": "",
          "type": "uint256"
        }
      ],
      "stateMutability": "view",
      "type": "function"
    },
    {
      "inputs": [
        {
          "internalType": "bytes32",
          "name": "role",
          "type": "bytes32"
        }
      ],
      "name": "getRoleAdmin",
      "outputs": [
        {
          "internalType": "bytes32",
          "name": "",
          "type": "bytes32"
        }
      ],
      "stateMutability": "view",
      "type": "function"
    },
    {
      "inputs": [
        {
          "internalType": "bytes32",
          "name": "role",
          "type": "bytes32"
        },
        {
          "internalType": "uint256",
          "name": "index",
          "type": "uint256"
        }
      ],
      "name": "getRoleMember",
      "outputs": [
        {
          "internalType": "address",
          "name": "",
          "type": "address"
        }
      ],
      "stateMutability": "view",
      "type": "function"
    },
    {
      "inputs": [
        {
          "internalType": "bytes32",
          "name": "role",
          "type": "bytes32"
        }
      ],
      "name": "getRoleMemberCount",
      "outputs": [
        {
          "internalType": "uint256",
          "name": "",
          "type": "uint256"
        }
      ],
      "stateMutability": "view",
      "type": "function"
    },
    {
      "inputs": [
        {
          "internalType": "uint256",
          "name": "projectId",
          "type": "uint256"
        }
      ],
      "name": "getScheduleDataForProjectId",
      "outputs": [
        {
          "components": [
            {
              "internalType": "uint256",
              "name": "startTime",
              "type": "uint256"
            },
            {
              "internalType": "address",
              "name": "supplierAddress",
              "type": "address"
            },
            {
              "internalType": "uint256",
              "name": "methodology",
              "type": "uint256"
            },
            {
              "internalType": "uint256",
              "name": "methodologyVersion",
              "type": "uint256"
            }
          ],
          "internalType": "struct Removal.ScheduleData",
          "name": "",
          "type": "tuple"
        }
      ],
      "stateMutability": "view",
      "type": "function"
    },
    {
      "inputs": [
        {
          "internalType": "uint256",
          "name": "removalId",
          "type": "uint256"
        }
      ],
      "name": "getScheduleDataForRemovalId",
      "outputs": [
        {
          "components": [
            {
              "internalType": "uint256",
              "name": "startTime",
              "type": "uint256"
            },
            {
              "internalType": "address",
              "name": "supplierAddress",
              "type": "address"
            },
            {
              "internalType": "uint256",
              "name": "methodology",
              "type": "uint256"
            },
            {
              "internalType": "uint256",
              "name": "methodologyVersion",
              "type": "uint256"
            }
          ],
          "internalType": "struct Removal.ScheduleData",
          "name": "",
          "type": "tuple"
        }
      ],
      "stateMutability": "view",
      "type": "function"
    },
    {
      "inputs": [
        {
          "internalType": "bytes32",
          "name": "role",
          "type": "bytes32"
        },
        {
          "internalType": "address",
          "name": "account",
          "type": "address"
        }
      ],
      "name": "grantRole",
      "outputs": [],
      "stateMutability": "nonpayable",
      "type": "function"
    },
    {
      "inputs": [
        {
          "internalType": "bytes32",
          "name": "role",
          "type": "bytes32"
        },
        {
          "internalType": "address",
          "name": "account",
          "type": "address"
        }
      ],
      "name": "hasRole",
      "outputs": [
        {
          "internalType": "bool",
          "name": "",
          "type": "bool"
        }
      ],
      "stateMutability": "view",
      "type": "function"
    },
    {
      "inputs": [
        {
          "internalType": "uint256",
          "name": "",
          "type": "uint256"
        }
      ],
      "name": "indexToTokenId",
      "outputs": [
        {
          "internalType": "uint256",
          "name": "",
          "type": "uint256"
        }
      ],
      "stateMutability": "view",
      "type": "function"
    },
    {
      "inputs": [],
      "name": "initialize",
      "outputs": [],
      "stateMutability": "nonpayable",
      "type": "function"
    },
    {
      "inputs": [
        {
          "internalType": "string",
          "name": "uri",
          "type": "string"
        }
      ],
      "name": "initialize",
      "outputs": [],
      "stateMutability": "nonpayable",
      "type": "function"
    },
    {
      "inputs": [
        {
          "internalType": "address",
          "name": "account",
          "type": "address"
        },
        {
          "internalType": "address",
          "name": "operator",
          "type": "address"
        }
      ],
      "name": "isApprovedForAll",
      "outputs": [
        {
          "internalType": "bool",
          "name": "",
          "type": "bool"
        }
      ],
      "stateMutability": "view",
      "type": "function"
    },
    {
      "inputs": [
        {
          "internalType": "address",
          "name": "",
          "type": "address"
        },
        {
          "internalType": "uint256",
          "name": "",
          "type": "uint256"
        },
        {
          "internalType": "uint256",
          "name": "",
          "type": "uint256"
        },
        {
          "internalType": "bytes",
          "name": "",
          "type": "bytes"
        }
      ],
      "name": "mint",
      "outputs": [],
      "stateMutability": "pure",
      "type": "function"
    },
    {
      "inputs": [
        {
          "internalType": "address",
          "name": "to",
          "type": "address"
        },
        {
          "internalType": "uint256[]",
          "name": "amounts",
          "type": "uint256[]"
        },
        {
          "internalType": "uint256[]",
          "name": "ids",
          "type": "uint256[]"
        },
        {
          "internalType": "bytes",
          "name": "data",
          "type": "bytes"
        }
      ],
      "name": "mintBatch",
      "outputs": [],
      "stateMutability": "nonpayable",
      "type": "function"
    },
    {
      "inputs": [],
      "name": "name",
      "outputs": [
        {
          "internalType": "string",
          "name": "",
          "type": "string"
        }
      ],
      "stateMutability": "view",
      "type": "function"
    },
    {
      "inputs": [],
      "name": "pause",
      "outputs": [],
      "stateMutability": "nonpayable",
      "type": "function"
    },
    {
      "inputs": [],
      "name": "paused",
      "outputs": [
        {
          "internalType": "bool",
          "name": "",
          "type": "bool"
        }
      ],
      "stateMutability": "view",
      "type": "function"
    },
    {
      "inputs": [
        {
          "internalType": "address",
          "name": "restrictedNORIAddress",
          "type": "address"
        }
      ],
      "name": "registerRestrictedNORIAddress",
      "outputs": [],
      "stateMutability": "nonpayable",
      "type": "function"
    },
    {
      "inputs": [
        {
          "internalType": "address",
          "name": "owner",
          "type": "address"
        },
        {
          "internalType": "uint256",
          "name": "removalId",
          "type": "uint256"
        },
        {
          "internalType": "uint256",
          "name": "amount",
          "type": "uint256"
        }
      ],
      "name": "release",
      "outputs": [],
      "stateMutability": "nonpayable",
      "type": "function"
    },
    {
      "inputs": [
        {
          "internalType": "bytes32",
          "name": "role",
          "type": "bytes32"
        },
        {
          "internalType": "address",
          "name": "account",
          "type": "address"
        }
      ],
      "name": "renounceRole",
      "outputs": [],
      "stateMutability": "nonpayable",
      "type": "function"
    },
    {
      "inputs": [
        {
          "internalType": "bytes32",
          "name": "role",
          "type": "bytes32"
        },
        {
          "internalType": "address",
          "name": "account",
          "type": "address"
        }
      ],
      "name": "revokeRole",
      "outputs": [],
      "stateMutability": "nonpayable",
      "type": "function"
    },
    {
      "inputs": [
        {
          "internalType": "address",
          "name": "from",
          "type": "address"
        },
        {
          "internalType": "address",
          "name": "to",
          "type": "address"
        },
        {
          "internalType": "uint256[]",
          "name": "ids",
          "type": "uint256[]"
        },
        {
          "internalType": "uint256[]",
          "name": "amounts",
          "type": "uint256[]"
        },
        {
          "internalType": "bytes",
          "name": "",
          "type": "bytes"
        }
      ],
      "name": "safeBatchTransferFrom",
      "outputs": [],
      "stateMutability": "nonpayable",
      "type": "function"
    },
    {
      "inputs": [
        {
          "internalType": "address",
          "name": "from",
          "type": "address"
        },
        {
          "internalType": "address",
          "name": "to",
          "type": "address"
        },
        {
          "internalType": "uint256",
          "name": "id",
          "type": "uint256"
        },
        {
          "internalType": "uint256",
          "name": "amount",
          "type": "uint256"
        },
        {
          "internalType": "bytes",
          "name": "data",
          "type": "bytes"
        }
      ],
      "name": "safeTransferFrom",
      "outputs": [],
      "stateMutability": "nonpayable",
      "type": "function"
    },
    {
      "inputs": [
        {
          "internalType": "address",
          "name": "owner",
          "type": "address"
        },
        {
          "internalType": "address",
          "name": "operator",
          "type": "address"
        },
        {
          "internalType": "bool",
          "name": "approved",
          "type": "bool"
        }
      ],
      "name": "setApprovalForAll",
      "outputs": [],
      "stateMutability": "nonpayable",
      "type": "function"
    },
    {
      "inputs": [
        {
          "internalType": "address",
          "name": "operator",
          "type": "address"
        },
        {
          "internalType": "bool",
          "name": "approved",
          "type": "bool"
        }
      ],
      "name": "setApprovalForAll",
      "outputs": [],
      "stateMutability": "nonpayable",
      "type": "function"
    },
    {
      "inputs": [
        {
          "internalType": "bytes4",
          "name": "interfaceId",
          "type": "bytes4"
        }
      ],
      "name": "supportsInterface",
      "outputs": [
        {
          "internalType": "bool",
          "name": "",
          "type": "bool"
        }
      ],
      "stateMutability": "view",
      "type": "function"
    },
    {
      "inputs": [],
      "name": "tokenIdCounter",
      "outputs": [
        {
          "internalType": "uint256",
          "name": "",
          "type": "uint256"
        }
      ],
      "stateMutability": "view",
      "type": "function"
    },
    {
      "inputs": [
        {
          "internalType": "uint256",
          "name": "id",
          "type": "uint256"
        }
      ],
      "name": "totalSupply",
      "outputs": [
        {
          "internalType": "uint256",
          "name": "",
          "type": "uint256"
        }
      ],
      "stateMutability": "view",
      "type": "function"
    },
    {
      "inputs": [
        {
          "internalType": "uint256",
          "name": "removalId",
          "type": "uint256"
        }
      ],
      "name": "unpackRemovalIdV0",
      "outputs": [
        {
          "components": [
            {
              "internalType": "uint8",
              "name": "idVersion",
              "type": "uint8"
            },
            {
              "internalType": "uint8",
              "name": "methodology",
              "type": "uint8"
            },
            {
              "internalType": "uint8",
              "name": "methodologyVersion",
              "type": "uint8"
            },
            {
              "internalType": "uint16",
              "name": "vintage",
              "type": "uint16"
            },
            {
              "internalType": "bytes2",
              "name": "country",
              "type": "bytes2"
            },
            {
              "internalType": "bytes2",
              "name": "subdivision",
              "type": "bytes2"
            },
            {
              "internalType": "address",
              "name": "supplierAddress",
              "type": "address"
            },
            {
              "internalType": "uint32",
              "name": "subIdentifier",
              "type": "uint32"
            }
          ],
          "internalType": "struct UnpackedRemovalIdV0",
          "name": "",
          "type": "tuple"
        }
      ],
      "stateMutability": "pure",
      "type": "function"
    },
    {
      "inputs": [],
      "name": "unpause",
      "outputs": [],
      "stateMutability": "nonpayable",
      "type": "function"
    },
    {
      "inputs": [
        {
          "internalType": "uint256",
          "name": "",
          "type": "uint256"
        }
      ],
      "name": "uri",
      "outputs": [
        {
          "internalType": "string",
          "name": "",
          "type": "string"
        }
      ],
      "stateMutability": "view",
      "type": "function"
    }
  ],
  "bytecode": "0x60806040523480156200001157600080fd5b50620000226200002860201b60201c565b620001d3565b600060019054906101000a900460ff16156200007b576040517f08c379a0000000000000000000000000000000000000000000000000000000008152600401620000729062000176565b60405180910390fd5b60ff801660008054906101000a900460ff1660ff161015620000ed5760ff6000806101000a81548160ff021916908360ff1602179055507f7f26b83ff96e1f2b6a682f133852f6798a09c465da95921460cefb384740249860ff604051620000e49190620001b6565b60405180910390a15b565b600082825260208201905092915050565b7f496e697469616c697a61626c653a20636f6e747261637420697320696e69746960008201527f616c697a696e6700000000000000000000000000000000000000000000000000602082015250565b60006200015e602783620000ef565b91506200016b8262000100565b604082019050919050565b6000602082019050818103600083015262000191816200014f565b9050919050565b600060ff82169050919050565b620001b08162000198565b82525050565b6000602082019050620001cd6000830184620001a5565b92915050565b617aed80620001e36000396000f3fe608060405234801561001057600080fd5b50600436106102195760003560e01c8062fdd58e1461021e578063018e1c831461024e57806301ffc9a71461027e57806306fdde03146102ae5780630e89341c146102cc5780631990ad05146102fc5780631f7fdffa1461032c578063248a9ca3146103485780632eb2c2d6146103785780632f2ff15d1461039457806336568abe146103b0578063367605ca146103cc5780633f4ba83a146103e857806348ec4c3b146103f25780634e1273f4146104225780634f558e79146104525780635c975abb146104825780635f830d77146104a05780636b20c454146104bc578063731133e9146104d85780637aef1164146104f45780638129fc1c146105245780638456cb591461052e578063854560a4146105385780639010d07c1461056857806391d148541461059857806398bdf6f5146105c857806399d5121b146105e6578063a217fddf14610616578063a22cb46514610634578063a53ba52714610650578063ac28af241461066c578063b6477cc01461068a578063bd85b039146106ba578063c1b8ecdd146106ea578063ca15c8731461071a578063d53913931461074a578063d547741f14610768578063d85a53e914610784578063e0fc2938146107b4578063e63ab1e9146107e4578063e985e9c514610802578063f242432a14610832578063f297be661461084e578063f5298aca1461086a578063f62d188814610886575b600080fd5b61023860048036038101906102339190614c1d565b6108a2565b6040516102459190614c6c565b60405180910390f35b61026860048036038101906102639190614de0565b61096b565b6040516102759190614efa565b60405180910390f35b61029860048036038101906102939190614f74565b610a26565b6040516102a59190614fbc565b60405180910390f35b6102b6610a38565b6040516102c3919061505f565b60405180910390f35b6102e660048036038101906102e19190615081565b610ac7565b6040516102f3919061505f565b60405180910390f35b61031660048036038101906103119190615081565b610b5b565b6040516103239190615112565b60405180910390f35b610346600480360381019061034191906151e2565b610c14565b005b610362600480360381019061035d91906152d3565b610f5a565b60405161036f919061530f565b60405180910390f35b610392600480360381019061038d919061532a565b610f7a565b005b6103ae60048036038101906103a991906153f9565b610fe5565b005b6103ca60048036038101906103c591906153f9565b611006565b005b6103e660048036038101906103e19190615465565b611089565b005b6103f06110af565b005b61040c60048036038101906104079190615513565b611129565b6040516104199190614c6c565b60405180910390f35b61043c60048036038101906104379190615623565b61113d565b6040516104499190614efa565b60405180910390f35b61046c60048036038101906104679190615081565b611256565b6040516104799190614fbc565b60405180910390f35b61048a61126a565b6040516104979190614fbc565b60405180910390f35b6104ba60048036038101906104b5919061569b565b611282565b005b6104d660048036038101906104d191906156c8565b6112d5565b005b6104f260048036038101906104ed9190615753565b611372565b005b61050e60048036038101906105099190615081565b6113ad565b60405161051b9190614c6c565b60405180910390f35b61052c6113c6565b005b6105366115a5565b005b610552600480360381019061054d919061569b565b61161f565b60405161055f9190614c6c565b60405180910390f35b610582600480360381019061057d91906157d6565b611669565b60405161058f9190615825565b60405180910390f35b6105b260048036038101906105ad91906153f9565b611698565b6040516105bf9190614fbc565b60405180910390f35b6105d0611703565b6040516105dd9190614c6c565b60405180910390f35b61060060048036038101906105fb9190615081565b61170a565b60405161060d9190615112565b60405180910390f35b61061e6117ac565b60405161062b919061530f565b60405180910390f35b61064e60048036038101906106499190615840565b6117b3565b005b61066a600480360381019061066591906158d6565b6117c9565b005b61067461188e565b604051610681919061530f565b60405180910390f35b6106a4600480360381019061069f9190615936565b6118b2565b6040516106b19190614efa565b60405180910390f35b6106d460048036038101906106cf9190615081565b6119ff565b6040516106e19190614c6c565b60405180910390f35b61070460048036038101906106ff919061597f565b611a1d565b6040516107119190614efa565b60405180910390f35b610734600480360381019061072f91906152d3565b611ad6565b6040516107419190614c6c565b60405180910390f35b610752611afa565b60405161075f919061530f565b60405180910390f35b610782600480360381019061077d91906153f9565b611b1e565b005b61079e60048036038101906107999190615081565b611b3f565b6040516107ab9190615afd565b60405180910390f35b6107ce60048036038101906107c99190615081565b611b57565b6040516107db9190614c6c565b60405180910390f35b6107ec611b78565b6040516107f9919061530f565b60405180910390f35b61081c60048036038101906108179190615b19565b611b9c565b6040516108299190614fbc565b60405180910390f35b61084c60048036038101906108479190615b59565b611c30565b005b61086860048036038101906108639190615bf0565b611cd1565b005b610884600480360381019061087f9190615bf0565b611dac565b005b6108a0600480360381019061089b9190615ce4565b611e49565b005b60008073ffffffffffffffffffffffffffffffffffffffff168373ffffffffffffffffffffffffffffffffffffffff1603610912576040517f08c379a000000000000000000000000000000000000000000000000000000000815260040161090990615d9f565b60405180910390fd5b60c9600083815260200190815260200160002060008473ffffffffffffffffffffffffffffffffffffffff1673ffffffffffffffffffffffffffffffffffffffff16815260200190815260200160002054905092915050565b60606000825167ffffffffffffffff81111561098a57610989614c9d565b5b6040519080825280602002602001820160405280156109b85781602001602082028036833780820191505090505b50905060005b8351811015610a1b576109eb858583815181106109de576109dd615dbf565b5b60200260200101516108a2565b8282815181106109fe576109fd615dbf565b5b60200260200101818152505080610a1490615e1d565b90506109be565b508091505092915050565b6000610a3182611f89565b9050919050565b6101f88054610a4690615e94565b80601f0160208091040260200160405190810160405280929190818152602001828054610a7290615e94565b8015610abf5780601f10610a9457610100808354040283529160200191610abf565b820191906000526020600020905b815481529060010190602001808311610aa257829003601f168201915b505050505081565b606060cb8054610ad690615e94565b80601f0160208091040260200160405190810160405280929190818152602001828054610b0290615e94565b8015610b4f5780601f10610b2457610100808354040283529160200191610b4f565b820191906000526020600020905b815481529060010190602001808311610b3257829003601f168201915b50505050509050919050565b610b63614a87565b6101fc60006101fb6000858152602001908152602001600020600001548152602001908152602001600020604051806080016040529081600082015481526020016001820160009054906101000a900473ffffffffffffffffffffffffffffffffffffffff1673ffffffffffffffffffffffffffffffffffffffff1673ffffffffffffffffffffffffffffffffffffffff168152602001600282015481526020016003820154815250509050919050565b60008251905080845114610c5d576040517f616c4113000000000000000000000000000000000000000000000000000000008152600401610c5490615f5d565b60405180910390fd5b600082806020019051810190610c739190616060565b905060008160000151905060008260200151905060008360400151905060008460800151905060008560600151905060008503610ce757846040517fc88f99b4000000000000000000000000000000000000000000000000000000008152600401610cde9190614c6c565b60405180910390fd5b60006101f754905060005b88811015610e1e5760008b8281518110610d0f57610d0e615dbf565b5b602002602001015190506101fa600082815260200190815260200160002060009054906101000a900460ff1615610d7d57806040517f4acb9c29000000000000000000000000000000000000000000000000000000008152600401610d749190614c6c565b60405180910390fd5b876101fb600083815260200190815260200160002060000181905550856101fb60008381526020019081526020016000206001018190555060016101fa600083815260200190815260200160002060006101000a81548160ff021916908315150217905550806101f9600085815260200190815260200160002081905550600183610e08919061608d565b9250508080610e1690615e1d565b915050610cf2565b5060008a600081518110610e3557610e34615dbf565b5b60200260200101519050816101f7819055506040518060800160405280878152602001610e6183611f9b565b73ffffffffffffffffffffffffffffffffffffffff168152602001610e8583611fb1565b60ff168152602001610e9683611fcb565b60ff168152506101fc60008981526020019081526020016000206000820151816000015560208201518160010160006101000a81548173ffffffffffffffffffffffffffffffffffffffff021916908373ffffffffffffffffffffffffffffffffffffffff1602179055506040820151816002015560608201518160030155905050610f248d8c8e8d611fe4565b610f378d610f30612066565b6001611089565b8315610f4b57610f4a8d848d8f8e610f7a565b5b50505050505050505050505050565b600060656000838152602001908152602001600020600101549050919050565b60006101fb600085600081518110610f9557610f94615dbf565b5b6020026020010151815260200190815260200160002060000154604051602001610fbf9190614c6c565b6040516020818303038152906040529050610fdd868686868561206e565b505050505050565b610fee82610f5a565b610ff78161210f565b6110018383612123565b505050565b61100e612066565b73ffffffffffffffffffffffffffffffffffffffff168173ffffffffffffffffffffffffffffffffffffffff161461107b576040517f08c379a000000000000000000000000000000000000000000000000000000000815260040161107290616155565b60405180910390fd5b6110858282612157565b5050565b6000801b6110968161210f565b61109e61218b565b6110a98484846121d5565b50505050565b6110e07f65d7a28e3265b37a6474929f336521b332c1681b933f6cb9f3376673440d862a6110db612066565b611698565b61111f576040517f08c379a0000000000000000000000000000000000000000000000000000000008152600401611116906161e7565b60405180910390fd5b611127612341565b565b600061113583836123a5565b905092915050565b60608151835114611183576040517f08c379a000000000000000000000000000000000000000000000000000000000815260040161117a90616279565b60405180910390fd5b6000835167ffffffffffffffff8111156111a05761119f614c9d565b5b6040519080825280602002602001820160405280156111ce5781602001602082028036833780820191505090505b50905060005b845181101561124b5761121b8582815181106111f3576111f2615dbf565b5b602002602001015185838151811061120e5761120d615dbf565b5b60200260200101516108a2565b82828151811061122e5761122d615dbf565b5b6020026020010181815250508061124490615e1d565b90506111d4565b508091505092915050565b600080611262836119ff565b119050919050565b600061012d60009054906101000a900460ff16905090565b6000801b61128f8161210f565b816101f660006101000a81548173ffffffffffffffffffffffffffffffffffffffff021916908373ffffffffffffffffffffffffffffffffffffffff1602179055505050565b6112dd612066565b73ffffffffffffffffffffffffffffffffffffffff168373ffffffffffffffffffffffffffffffffffffffff16148061132357506113228361131d612066565b611b9c565b5b611362576040517f08c379a00000000000000000000000000000000000000000000000000000000081526004016113599061630b565b60405180910390fd5b61136d8383836126ca565b505050565b6040517f08c379a00000000000000000000000000000000000000000000000000000000081526004016113a490616377565b60405180910390fd5b6101f96020528060005260406000206000915090505481565b60008060019054906101000a900460ff161590508080156113f75750600160008054906101000a900460ff1660ff16105b8061142457506114063061299a565b1580156114235750600160008054906101000a900460ff1660ff16145b5b611463576040517f08c379a000000000000000000000000000000000000000000000000000000000815260040161145a90616409565b60405180910390fd5b60016000806101000a81548160ff021916908360ff16021790555080156114a0576001600060016101000a81548160ff0219169083151502179055505b6114c1604051806060016040528060268152602001617a9260269139611e49565b6114c96129bd565b60006101f7819055506040518060400160405280600781526020017f52656d6f76616c000000000000000000000000000000000000000000000000008152506101f8908161151791906165d5565b506115497f88f3509f0e42391f2d94ebfb2a37cbd0782b1b8f73715330017f4663290b8117611544612066565b612123565b80156115a25760008060016101000a81548160ff0219169083151502179055507f7f26b83ff96e1f2b6a682f133852f6798a09c465da95921460cefb3847402498600160405161159991906166e2565b60405180910390a15b50565b6115d67f65d7a28e3265b37a6474929f336521b332c1681b933f6cb9f3376673440d862a6115d1612066565b611698565b611615576040517f08c379a000000000000000000000000000000000000000000000000000000000815260040161160c9061676f565b60405180910390fd5b61161d612a0e565b565b60006101fd60008373ffffffffffffffffffffffffffffffffffffffff1673ffffffffffffffffffffffffffffffffffffffff168152602001908152602001600020549050919050565b60006116908260976000868152602001908152602001600020612a7290919063ffffffff16565b905092915050565b60006065600084815260200190815260200160002060000160008373ffffffffffffffffffffffffffffffffffffffff1673ffffffffffffffffffffffffffffffffffffffff16815260200190815260200160002060009054906101000a900460ff16905092915050565b6101f75481565b611712614a87565b6101fc6000838152602001908152602001600020604051806080016040529081600082015481526020016001820160009054906101000a900473ffffffffffffffffffffffffffffffffffffffff1673ffffffffffffffffffffffffffffffffffffffff1673ffffffffffffffffffffffffffffffffffffffff168152602001600282015481526020016003820154815250509050919050565b6000801b81565b6117c56117be612066565b83836121d5565b5050565b60005b838390508110156118885760008484838181106117ec576117eb615dbf565b5b9050602002013590506101fa600082815260200190815260200160002060009054906101000a900460ff1661185857806040517f3374f12d00000000000000000000000000000000000000000000000000000000815260040161184f9190614c6c565b60405180910390fd5b826101fb60008381526020019081526020016000206001018190555050808061188090615e1d565b9150506117cc565b50505050565b7f88f3509f0e42391f2d94ebfb2a37cbd0782b1b8f73715330017f4663290b811781565b60606000825167ffffffffffffffff8111156118d1576118d0614c9d565b5b6040519080825280602002602001820160405280156118ff5781602001602082028036833780820191505090505b50905060005b83518110156119f557600084828151811061192357611922615dbf565b5b602002602001015190506101fa600082815260200190815260200160002060009054906101000a900460ff1661199057806040517f3374f12d0000000000000000000000000000000000000000000000000000000081526004016119879190614c6c565b60405180910390fd5b6101fb60008684815181106119a8576119a7615dbf565b5b60200260200101518152602001908152602001600020600101548383815181106119d5576119d4615dbf565b5b6020026020010181815250505080806119ed90615e1d565b915050611905565b5080915050919050565b60006101c36000838152602001908152602001600020549050919050565b60606000825167ffffffffffffffff811115611a3c57611a3b614c9d565b5b604051908082528060200260200182016040528015611a6a5781602001602082028036833780820191505090505b50905060005b8351811015611acc57611a9c848281518110611a8f57611a8e615dbf565b5b602002602001015161161f565b828281518110611aaf57611aae615dbf565b5b60200260200101818152505080611ac590615e1d565b9050611a70565b5080915050919050565b6000611af360976000848152602001908152602001600020612a8c565b9050919050565b7f9f2df0fed2c77648de5860a4cc508cd0818c85b8b8a1ab4ceeef8d981c8956a681565b611b2782610f5a565b611b308161210f565b611b3a8383612157565b505050565b611b47614ac5565b611b5082612aa1565b9050919050565b60006101fb6000838152602001908152602001600020600001549050919050565b7f65d7a28e3265b37a6474929f336521b332c1681b933f6cb9f3376673440d862a81565b600060ca60008473ffffffffffffffffffffffffffffffffffffffff1673ffffffffffffffffffffffffffffffffffffffff16815260200190815260200160002060008373ffffffffffffffffffffffffffffffffffffffff1673ffffffffffffffffffffffffffffffffffffffff16815260200190815260200160002060009054906101000a900460ff16905092915050565b611c38612066565b73ffffffffffffffffffffffffffffffffffffffff168573ffffffffffffffffffffffffffffffffffffffff161480611c7e5750611c7d85611c78612066565b611b9c565b5b611cbd576040517f08c379a0000000000000000000000000000000000000000000000000000000008152600401611cb49061630b565b60405180910390fd5b611cca8585858585612b95565b5050505050565b611cd961218b565b7f88f3509f0e42391f2d94ebfb2a37cbd0782b1b8f73715330017f4663290b8117611d038161210f565b816101f5600085815260200190815260200160002081905550611d27848484611dac565b8373ffffffffffffffffffffffffffffffffffffffff1663366a412084846040518363ffffffff1660e01b8152600401611d6292919061678f565b6020604051808303816000875af1158015611d81573d6000803e3d6000fd5b505050506040513d601f19601f82011682018060405250810190611da591906167b8565b5050505050565b611db4612066565b73ffffffffffffffffffffffffffffffffffffffff168373ffffffffffffffffffffffffffffffffffffffff161480611dfa5750611df983611df4612066565b611b9c565b5b611e39576040517f08c379a0000000000000000000000000000000000000000000000000000000008152600401611e309061630b565b60405180910390fd5b611e44838383612e33565b505050565b60008060019054906101000a900460ff16159050808015611e7a5750600160008054906101000a900460ff1660ff16105b80611ea75750611e893061299a565b158015611ea65750600160008054906101000a900460ff1660ff16145b5b611ee6576040517f08c379a0000000000000000000000000000000000000000000000000000000008152600401611edd90616409565b60405180910390fd5b60016000806101000a81548160ff021916908360ff1602179055508015611f23576001600060016101000a81548160ff0219169083151502179055505b611f2c8261307b565b8015611f855760008060016101000a81548160ff0219169083151502179055507f7f26b83ff96e1f2b6a682f133852f6798a09c465da95921460cefb38474024986001604051611f7c91906166e2565b60405180910390a15b5050565b6000611f94826130e7565b9050919050565b6000611faa82601460046131c9565b9050919050565b60006004611fc2836001601e6131c9565b901c9050919050565b6000600f611fdc836001601e6131c9565b169050919050565b6120157f9f2df0fed2c77648de5860a4cc508cd0818c85b8b8a1ab4ceeef8d981c8956a6612010612066565b611698565b612054576040517f08c379a000000000000000000000000000000000000000000000000000000000815260040161204b90616857565b60405180910390fd5b6120608484848461322d565b50505050565b600033905090565b612076612066565b73ffffffffffffffffffffffffffffffffffffffff168573ffffffffffffffffffffffffffffffffffffffff1614806120bc57506120bb856120b6612066565b611b9c565b5b6120fb576040517f08c379a00000000000000000000000000000000000000000000000000000000081526004016120f29061630b565b60405180910390fd5b612108858585858561345a565b5050505050565b6121208161211b612066565b61377e565b50565b61212d828261381b565b61215281609760008581526020019081526020016000206138fc90919063ffffffff16565b505050565b612161828261392c565b6121868160976000858152602001908152602001600020613a0e90919063ffffffff16565b505050565b61219361126a565b156121d3576040517f08c379a00000000000000000000000000000000000000000000000000000000081526004016121ca906168c3565b60405180910390fd5b565b8173ffffffffffffffffffffffffffffffffffffffff168373ffffffffffffffffffffffffffffffffffffffff1603612243576040517f08c379a000000000000000000000000000000000000000000000000000000000815260040161223a90616955565b60405180910390fd5b8060ca60008573ffffffffffffffffffffffffffffffffffffffff1673ffffffffffffffffffffffffffffffffffffffff16815260200190815260200160002060008473ffffffffffffffffffffffffffffffffffffffff1673ffffffffffffffffffffffffffffffffffffffff16815260200190815260200160002060006101000a81548160ff0219169083151502179055508173ffffffffffffffffffffffffffffffffffffffff168373ffffffffffffffffffffffffffffffffffffffff167f17307eab39ab6107e8899845ad3d59bd9653f200f220920489ca2b5937696c31836040516123349190614fbc565b60405180910390a3505050565b612349613a3e565b600061012d60006101000a81548160ff0219169083151502179055507f5db9ee0a495bf2e6ff9c91a7834c1ba4fdd244a5e8aa4e537bd38aeae4b073aa61238e612066565b60405161239b9190615825565b60405180910390a1565b60008083838101906123b791906169a1565b60ff169050600081146123ff576040517f08c379a00000000000000000000000000000000000000000000000000000000081526004016123f690616a40565b60405180910390fd5b6101008484905014612446576040517f08c379a000000000000000000000000000000000000000000000000000000000815260040161243d90616ad2565b60405180910390fd5b600084848101906124579190616c40565b9050600f816020015160ff1611156124a4576040517f08c379a000000000000000000000000000000000000000000000000000000000815260040161249b90616cba565b60405180910390fd5b600f816040015160ff1611156124ef576040517f08c379a00000000000000000000000000000000000000000000000000000000081526004016124e690616d26565b60405180910390fd5b60006008826080015160f01c61ffff16901c9050600060ff836080015160f01c61ffff16169050600060088460a0015160f01c61ffff16901c9050600060ff8560a0015160f01c61ffff161690506041841015801561254f5750605a8411155b801561255c575060418310155b80156125695750605a8311155b8015612576575060418210155b80156125835750605a8211155b8015612590575060418110155b801561259d5750605a8111155b6125dc576040517f08c379a00000000000000000000000000000000000000000000000000000000081526004016125d390616d92565b60405180910390fd5b600085604001516004876020015160ff16901b1760ff169050600860006126039190616db2565b8660e0015163ffffffff16901b6008600461261e9190616db2565b8760c0015173ffffffffffffffffffffffffffffffffffffffff16901b600860186126499190616db2565b8860a0015160f01c61ffff16901b6008601a6126659190616db2565b896080015160f01c61ffff16901b6008601c6126819190616db2565b8a6060015161ffff16901b6008601e61269a9190616db2565b86901b6008601f6126ab9190616db2565b8c6000015160ff16901b17171717171797505050505050505092915050565b600073ffffffffffffffffffffffffffffffffffffffff168373ffffffffffffffffffffffffffffffffffffffff1603612739576040517f08c379a000000000000000000000000000000000000000000000000000000000815260040161273090616e7e565b60405180910390fd5b805182511461277d576040517f08c379a000000000000000000000000000000000000000000000000000000000815260040161277490616f10565b60405180910390fd5b6000612787612066565b90506127a781856000868660405180602001604052806000815250613a87565b60005b83518110156128f65760008482815181106127c8576127c7615dbf565b5b6020026020010151905060008483815181106127e7576127e6615dbf565b5b60200260200101519050600060c9600084815260200190815260200160002060008973ffffffffffffffffffffffffffffffffffffffff1673ffffffffffffffffffffffffffffffffffffffff16815260200190815260200160002054905081811015612889576040517f08c379a000000000000000000000000000000000000000000000000000000000815260040161288090616fa2565b60405180910390fd5b81810360c9600085815260200190815260200160002060008a73ffffffffffffffffffffffffffffffffffffffff1673ffffffffffffffffffffffffffffffffffffffff1681526020019081526020016000208190555050505080806128ee90615e1d565b9150506127aa565b50600073ffffffffffffffffffffffffffffffffffffffff168473ffffffffffffffffffffffffffffffffffffffff168273ffffffffffffffffffffffffffffffffffffffff167f4a39dc06d4c0dbc64b70af90fd698a233a518aa5d07e595d983b8c0526c8f7fb868660405161296e929190616fc2565b60405180910390a461299481856000868660405180602001604052806000815250613c66565b50505050565b6000808273ffffffffffffffffffffffffffffffffffffffff163b119050919050565b600060019054906101000a900460ff16612a0c576040517f08c379a0000000000000000000000000000000000000000000000000000000008152600401612a039061706b565b60405180910390fd5b565b612a1661218b565b600161012d60006101000a81548160ff0219169083151502179055507f62e78cea01bee320cd4e420270b5ea74000d11b0c9f74754ebdbfc544b05a258612a5b612066565b604051612a689190615825565b60405180910390a1565b6000612a818360000183613c6e565b60001c905092915050565b6000612a9a82600001613c99565b9050919050565b612aa9614ac5565b604051806101000160405280612abe84613caa565b60ff168152602001612acf84611fb1565b60ff168152602001612ae084611fcb565b60ff168152602001612af184613cc0565b61ffff168152602001612b0384613cd6565b7dffffffffffffffffffffffffffffffffffffffffffffffffffffffffffff19168152602001612b3284613cef565b7dffffffffffffffffffffffffffffffffffffffffffffffffffffffffffff19168152602001612b6184611f9b565b73ffffffffffffffffffffffffffffffffffffffff168152602001612b8584613d08565b63ffffffff168152509050919050565b600073ffffffffffffffffffffffffffffffffffffffff168473ffffffffffffffffffffffffffffffffffffffff1603612c04576040517f08c379a0000000000000000000000000000000000000000000000000000000008152600401612bfb906170fd565b60405180910390fd5b6000612c0e612066565b90506000612c1b85613d1e565b90506000612c2885613d1e565b9050612c38838989858589613a87565b600060c9600088815260200190815260200160002060008a73ffffffffffffffffffffffffffffffffffffffff1673ffffffffffffffffffffffffffffffffffffffff16815260200190815260200160002054905085811015612cd0576040517f08c379a0000000000000000000000000000000000000000000000000000000008152600401612cc79061718f565b60405180910390fd5b85810360c9600089815260200190815260200160002060008b73ffffffffffffffffffffffffffffffffffffffff1673ffffffffffffffffffffffffffffffffffffffff168152602001908152602001600020819055508560c9600089815260200190815260200160002060008a73ffffffffffffffffffffffffffffffffffffffff1673ffffffffffffffffffffffffffffffffffffffff1681526020019081526020016000206000828254612d87919061608d565b925050819055508773ffffffffffffffffffffffffffffffffffffffff168973ffffffffffffffffffffffffffffffffffffffff168573ffffffffffffffffffffffffffffffffffffffff167fc3d58168c5ae7397731d063d5bbf3d657854427343f4c083240f7aacaa2d0f628a8a604051612e0492919061678f565b60405180910390a4612e1a848a8a86868a613c66565b612e28848a8a8a8a8a613d98565b505050505050505050565b600073ffffffffffffffffffffffffffffffffffffffff168373ffffffffffffffffffffffffffffffffffffffff1603612ea2576040517f08c379a0000000000000000000000000000000000000000000000000000000008152600401612e9990616e7e565b60405180910390fd5b6000612eac612066565b90506000612eb984613d1e565b90506000612ec684613d1e565b9050612ee683876000858560405180602001604052806000815250613a87565b600060c9600087815260200190815260200160002060008873ffffffffffffffffffffffffffffffffffffffff1673ffffffffffffffffffffffffffffffffffffffff16815260200190815260200160002054905084811015612f7e576040517f08c379a0000000000000000000000000000000000000000000000000000000008152600401612f7590616fa2565b60405180910390fd5b84810360c9600088815260200190815260200160002060008973ffffffffffffffffffffffffffffffffffffffff1673ffffffffffffffffffffffffffffffffffffffff16815260200190815260200160002081905550600073ffffffffffffffffffffffffffffffffffffffff168773ffffffffffffffffffffffffffffffffffffffff168573ffffffffffffffffffffffffffffffffffffffff167fc3d58168c5ae7397731d063d5bbf3d657854427343f4c083240f7aacaa2d0f62898960405161304c92919061678f565b60405180910390a461307284886000868660405180602001604052806000815250613c66565b50505050505050565b600060019054906101000a900460ff166130ca576040517f08c379a00000000000000000000000000000000000000000000000000000000081526004016130c19061706b565b60405180910390fd5b6130d381613f6f565b6130db613fca565b6130e481614037565b50565b60007fd9b67a26000000000000000000000000000000000000000000000000000000007bffffffffffffffffffffffffffffffffffffffffffffffffffffffff1916827bffffffffffffffffffffffffffffffffffffffffffffffffffffffff191614806131b257507f0e89341c000000000000000000000000000000000000000000000000000000007bffffffffffffffffffffffffffffffffffffffffffffffffffffffff1916827bffffffffffffffffffffffffffffffffffffffffffffffffffffffff1916145b806131c257506131c1826140ff565b5b9050919050565b6000806008836131d99190616db2565b60016008866131e89190616db2565b60026131f491906172e2565b6131fe919061732d565b60001b901b90506000818660001b16905060088461321c9190616db2565b81901c60001c925050509392505050565b600073ffffffffffffffffffffffffffffffffffffffff168473ffffffffffffffffffffffffffffffffffffffff160361329c576040517f08c379a0000000000000000000000000000000000000000000000000000000008152600401613293906173d3565b60405180910390fd5b81518351146132e0576040517f08c379a00000000000000000000000000000000000000000000000000000000081526004016132d790616f10565b60405180910390fd5b60006132ea612066565b90506132fb81600087878787613a87565b60005b84518110156133b55783818151811061331a57613319615dbf565b5b602002602001015160c9600087848151811061333957613338615dbf565b5b6020026020010151815260200190815260200160002060008873ffffffffffffffffffffffffffffffffffffffff1673ffffffffffffffffffffffffffffffffffffffff168152602001908152602001600020600082825461339b919061608d565b9250508190555080806133ad90615e1d565b9150506132fe565b508473ffffffffffffffffffffffffffffffffffffffff16600073ffffffffffffffffffffffffffffffffffffffff168273ffffffffffffffffffffffffffffffffffffffff167f4a39dc06d4c0dbc64b70af90fd698a233a518aa5d07e595d983b8c0526c8f7fb878760405161342d929190616fc2565b60405180910390a461344481600087878787613c66565b61345381600087878787614179565b5050505050565b815183511461349e576040517f08c379a000000000000000000000000000000000000000000000000000000000815260040161349590616f10565b60405180910390fd5b600073ffffffffffffffffffffffffffffffffffffffff168473ffffffffffffffffffffffffffffffffffffffff160361350d576040517f08c379a0000000000000000000000000000000000000000000000000000000008152600401613504906170fd565b60405180910390fd5b6000613517612066565b9050613527818787878787613a87565b60005b84518110156136db57600085828151811061354857613547615dbf565b5b60200260200101519050600085838151811061356757613566615dbf565b5b60200260200101519050600060c9600084815260200190815260200160002060008b73ffffffffffffffffffffffffffffffffffffffff1673ffffffffffffffffffffffffffffffffffffffff16815260200190815260200160002054905081811015613609576040517f08c379a00000000000000000000000000000000000000000000000000000000081526004016136009061718f565b60405180910390fd5b81810360c9600085815260200190815260200160002060008c73ffffffffffffffffffffffffffffffffffffffff1673ffffffffffffffffffffffffffffffffffffffff168152602001908152602001600020819055508160c9600085815260200190815260200160002060008b73ffffffffffffffffffffffffffffffffffffffff1673ffffffffffffffffffffffffffffffffffffffff16815260200190815260200160002060008282546136c0919061608d565b92505081905550505050806136d490615e1d565b905061352a565b508473ffffffffffffffffffffffffffffffffffffffff168673ffffffffffffffffffffffffffffffffffffffff168273ffffffffffffffffffffffffffffffffffffffff167f4a39dc06d4c0dbc64b70af90fd698a233a518aa5d07e595d983b8c0526c8f7fb8787604051613752929190616fc2565b60405180910390a4613768818787878787613c66565b613776818787878787614179565b505050505050565b6137888282611698565b613817576137ad8173ffffffffffffffffffffffffffffffffffffffff166014614350565b6137bb8360001c6020614350565b6040516020016137cc9291906174c7565b6040516020818303038152906040526040517f08c379a000000000000000000000000000000000000000000000000000000000815260040161380e919061505f565b60405180910390fd5b5050565b6138258282611698565b6138f85760016065600084815260200190815260200160002060000160008373ffffffffffffffffffffffffffffffffffffffff1673ffffffffffffffffffffffffffffffffffffffff16815260200190815260200160002060006101000a81548160ff02191690831515021790555061389d612066565b73ffffffffffffffffffffffffffffffffffffffff168173ffffffffffffffffffffffffffffffffffffffff16837f2f8788117e7eff1d82e926ec794901d17c78024a50270940304540a733656f0d60405160405180910390a45b5050565b6000613924836000018373ffffffffffffffffffffffffffffffffffffffff1660001b61458c565b905092915050565b6139368282611698565b15613a0a5760006065600084815260200190815260200160002060000160008373ffffffffffffffffffffffffffffffffffffffff1673ffffffffffffffffffffffffffffffffffffffff16815260200190815260200160002060006101000a81548160ff0219169083151502179055506139af612066565b73ffffffffffffffffffffffffffffffffffffffff168173ffffffffffffffffffffffffffffffffffffffff16837ff6391f5c32d9c69d2a47ea670b442974b53935d1edc7fd64eb21e047a839171b60405160405180910390a45b5050565b6000613a36836000018373ffffffffffffffffffffffffffffffffffffffff1660001b6145fc565b905092915050565b613a4661126a565b613a85576040517f08c379a0000000000000000000000000000000000000000000000000000000008152600401613a7c9061754d565b60405180910390fd5b565b600073ffffffffffffffffffffffffffffffffffffffff168573ffffffffffffffffffffffffffffffffffffffff1603613b4f5760005b8251811015613b4957828181518110613ada57613ad9615dbf565b5b60200260200101516101fd60008773ffffffffffffffffffffffffffffffffffffffff1673ffffffffffffffffffffffffffffffffffffffff1681526020019081526020016000206000828254613b31919061608d565b9250508190555080613b4290615e1d565b9050613abe565b50613c50565b60005b8251811015613c4e57828181518110613b6e57613b6d615dbf565b5b60200260200101516101fd60008873ffffffffffffffffffffffffffffffffffffffff1673ffffffffffffffffffffffffffffffffffffffff1681526020019081526020016000206000828254613bc5919061732d565b92505081905550828181518110613bdf57613bde615dbf565b5b60200260200101516101fd60008773ffffffffffffffffffffffffffffffffffffffff1673ffffffffffffffffffffffffffffffffffffffff1681526020019081526020016000206000828254613c36919061608d565b9250508190555080613c4790615e1d565b9050613b52565b505b613c5e868686868686614710565b505050505050565b505050505050565b6000826000018281548110613c8657613c85615dbf565b5b9060005260206000200154905092915050565b600081600001805490509050919050565b6000613cb9826001601f6131c9565b9050919050565b6000613ccf826002601c6131c9565b9050919050565b6000613ce5826002601a6131c9565b60f01b9050919050565b6000613cfe82600260186131c9565b60f01b9050919050565b6000613d1782600460006131c9565b9050919050565b60606000600167ffffffffffffffff811115613d3d57613d3c614c9d565b5b604051908082528060200260200182016040528015613d6b5781602001602082028036833780820191505090505b5090508281600081518110613d8357613d82615dbf565b5b60200260200101818152505080915050919050565b613db78473ffffffffffffffffffffffffffffffffffffffff1661299a565b15613f67578373ffffffffffffffffffffffffffffffffffffffff1663f23a6e6187878686866040518663ffffffff1660e01b8152600401613dfd9594939291906175c2565b6020604051808303816000875af1925050508015613e3957506040513d601f19601f82011682018060405250810190613e369190617631565b60015b613ede57613e4561766b565b806308c379a003613ea15750613e5961768d565b80613e645750613ea3565b806040517f08c379a0000000000000000000000000000000000000000000000000000000008152600401613e98919061505f565b60405180910390fd5b505b6040517f08c379a0000000000000000000000000000000000000000000000000000000008152600401613ed59061778f565b60405180910390fd5b63f23a6e6160e01b7bffffffffffffffffffffffffffffffffffffffffffffffffffffffff1916817bffffffffffffffffffffffffffffffffffffffffffffffffffffffff191614613f65576040517f08c379a0000000000000000000000000000000000000000000000000000000008152600401613f5c90617821565b60405180910390fd5b505b505050505050565b600060019054906101000a900460ff16613fbe576040517f08c379a0000000000000000000000000000000000000000000000000000000008152600401613fb59061706b565b60405180910390fd5b613fc7816148e3565b50565b600060019054906101000a900460ff16614019576040517f08c379a00000000000000000000000000000000000000000000000000000000081526004016140109061706b565b60405180910390fd5b600061012d60006101000a81548160ff021916908315150217905550565b600060019054906101000a900460ff16614086576040517f08c379a000000000000000000000000000000000000000000000000000000000815260040161407d9061706b565b60405180910390fd5b61409a6000801b614095612066565b6148f6565b6140cb7f9f2df0fed2c77648de5860a4cc508cd0818c85b8b8a1ab4ceeef8d981c8956a66140c6612066565b6148f6565b6140fc7f65d7a28e3265b37a6474929f336521b332c1681b933f6cb9f3376673440d862a6140f7612066565b6148f6565b50565b60007f5a05180f000000000000000000000000000000000000000000000000000000007bffffffffffffffffffffffffffffffffffffffffffffffffffffffff1916827bffffffffffffffffffffffffffffffffffffffffffffffffffffffff19161480614172575061417182614904565b5b9050919050565b6141988473ffffffffffffffffffffffffffffffffffffffff1661299a565b15614348578373ffffffffffffffffffffffffffffffffffffffff1663bc197c8187878686866040518663ffffffff1660e01b81526004016141de959493929190617841565b6020604051808303816000875af192505050801561421a57506040513d601f19601f820116820180604052508101906142179190617631565b60015b6142bf5761422661766b565b806308c379a003614282575061423a61768d565b806142455750614284565b806040517f08c379a0000000000000000000000000000000000000000000000000000000008152600401614279919061505f565b60405180910390fd5b505b6040517f08c379a00000000000000000000000000000000000000000000000000000000081526004016142b69061778f565b60405180910390fd5b63bc197c8160e01b7bffffffffffffffffffffffffffffffffffffffffffffffffffffffff1916817bffffffffffffffffffffffffffffffffffffffffffffffffffffffff191614614346576040517f08c379a000000000000000000000000000000000000000000000000000000000815260040161433d90617821565b60405180910390fd5b505b505050505050565b6060600060028360026143639190616db2565b61436d919061608d565b67ffffffffffffffff81111561438657614385614c9d565b5b6040519080825280601f01601f1916602001820160405280156143b85781602001600182028036833780820191505090505b5090507f3000000000000000000000000000000000000000000000000000000000000000816000815181106143f0576143ef615dbf565b5b60200101907effffffffffffffffffffffffffffffffffffffffffffffffffffffffffffff1916908160001a9053507f78000000000000000000000000000000000000000000000000000000000000008160018151811061445457614453615dbf565b5b60200101907effffffffffffffffffffffffffffffffffffffffffffffffffffffffffffff1916908160001a905350600060018460026144949190616db2565b61449e919061608d565b90505b600181111561453e577f3031323334353637383961626364656600000000000000000000000000000000600f8616601081106144e0576144df615dbf565b5b1a60f81b8282815181106144f7576144f6615dbf565b5b60200101907effffffffffffffffffffffffffffffffffffffffffffffffffffffffffffff1916908160001a905350600485901c945080614537906178a9565b90506144a1565b5060008414614582576040517f08c379a00000000000000000000000000000000000000000000000000000000081526004016145799061791e565b60405180910390fd5b8091505092915050565b6000614598838361497e565b6145f15782600001829080600181540180825580915050600190039060005260206000200160009091909190915055826000018054905083600101600084815260200190815260200160002081905550600190506145f6565b600090505b92915050565b6000808360010160008481526020019081526020016000205490506000811461470457600060018261462e919061732d565b9050600060018660000180549050614646919061732d565b90508181146146b557600086600001828154811061466757614666615dbf565b5b906000526020600020015490508087600001848154811061468b5761468a615dbf565b5b90600052602060002001819055508387600101600083815260200190815260200160002081905550505b856000018054806146c9576146c861793e565b5b60019003818190600052602060002001600090559055856001016000868152602001908152602001600020600090556001935050505061470a565b60009150505b92915050565b61471e8686868686866149a1565b600073ffffffffffffffffffffffffffffffffffffffff168573ffffffffffffffffffffffffffffffffffffffff16036147d05760005b83518110156147ce5782818151811061477157614770615dbf565b5b60200260200101516101c3600086848151811061479157614790615dbf565b5b6020026020010151815260200190815260200160002060008282546147b6919061608d565b92505081905550806147c790615e1d565b9050614755565b505b600073ffffffffffffffffffffffffffffffffffffffff168473ffffffffffffffffffffffffffffffffffffffff16036148db5760005b83518110156148d957600084828151811061482557614824615dbf565b5b60200260200101519050600084838151811061484457614843615dbf565b5b6020026020010151905060006101c36000848152602001908152602001600020549050818110156148aa576040517f08c379a00000000000000000000000000000000000000000000000000000000081526004016148a1906179df565b60405180910390fd5b8181036101c3600085815260200190815260200160002081905550505050806148d290615e1d565b9050614807565b505b505050505050565b8060cb90816148f291906165d5565b5050565b6149008282612123565b5050565b60007f7965db0b000000000000000000000000000000000000000000000000000000007bffffffffffffffffffffffffffffffffffffffffffffffffffffffff1916827bffffffffffffffffffffffffffffffffffffffffffffffffffffffff191614806149775750614976826149b7565b5b9050919050565b600080836001016000848152602001908152602001600020541415905092915050565b6149af868686868686614a21565b505050505050565b60007f01ffc9a7000000000000000000000000000000000000000000000000000000007bffffffffffffffffffffffffffffffffffffffffffffffffffffffff1916827bffffffffffffffffffffffffffffffffffffffffffffffffffffffff1916149050919050565b614a2f868686868686614a7f565b614a3761126a565b15614a77576040517f08c379a0000000000000000000000000000000000000000000000000000000008152600401614a6e90617a71565b60405180910390fd5b505050505050565b505050505050565b604051806080016040528060008152602001600073ffffffffffffffffffffffffffffffffffffffff16815260200160008152602001600081525090565b604051806101000160405280600060ff168152602001600060ff168152602001600060ff168152602001600061ffff16815260200160007dffffffffffffffffffffffffffffffffffffffffffffffffffffffffffff1916815260200160007dffffffffffffffffffffffffffffffffffffffffffffffffffffffffffff19168152602001600073ffffffffffffffffffffffffffffffffffffffff168152602001600063ffffffff1681525090565b6000604051905090565b600080fd5b600080fd5b600073ffffffffffffffffffffffffffffffffffffffff82169050919050565b6000614bb482614b89565b9050919050565b614bc481614ba9565b8114614bcf57600080fd5b50565b600081359050614be181614bbb565b92915050565b6000819050919050565b614bfa81614be7565b8114614c0557600080fd5b50565b600081359050614c1781614bf1565b92915050565b60008060408385031215614c3457614c33614b7f565b5b6000614c4285828601614bd2565b9250506020614c5385828601614c08565b9150509250929050565b614c6681614be7565b82525050565b6000602082019050614c816000830184614c5d565b92915050565b600080fd5b6000601f19601f8301169050919050565b7f4e487b7100000000000000000000000000000000000000000000000000000000600052604160045260246000fd5b614cd582614c8c565b810181811067ffffffffffffffff82111715614cf457614cf3614c9d565b5b80604052505050565b6000614d07614b75565b9050614d138282614ccc565b919050565b600067ffffffffffffffff821115614d3357614d32614c9d565b5b602082029050602081019050919050565b600080fd5b6000614d5c614d5784614d18565b614cfd565b90508083825260208201905060208402830185811115614d7f57614d7e614d44565b5b835b81811015614da85780614d948882614c08565b845260208401935050602081019050614d81565b5050509392505050565b600082601f830112614dc757614dc6614c87565b5b8135614dd7848260208601614d49565b91505092915050565b60008060408385031215614df757614df6614b7f565b5b6000614e0585828601614bd2565b925050602083013567ffffffffffffffff811115614e2657614e25614b84565b5b614e3285828601614db2565b9150509250929050565b600081519050919050565b600082825260208201905092915050565b6000819050602082019050919050565b614e7181614be7565b82525050565b6000614e838383614e68565b60208301905092915050565b6000602082019050919050565b6000614ea782614e3c565b614eb18185614e47565b9350614ebc83614e58565b8060005b83811015614eed578151614ed48882614e77565b9750614edf83614e8f565b925050600181019050614ec0565b5085935050505092915050565b60006020820190508181036000830152614f148184614e9c565b905092915050565b60007fffffffff0000000000000000000000000000000000000000000000000000000082169050919050565b614f5181614f1c565b8114614f5c57600080fd5b50565b600081359050614f6e81614f48565b92915050565b600060208284031215614f8a57614f89614b7f565b5b6000614f9884828501614f5f565b91505092915050565b60008115159050919050565b614fb681614fa1565b82525050565b6000602082019050614fd16000830184614fad565b92915050565b600081519050919050565b600082825260208201905092915050565b60005b83811015615011578082015181840152602081019050614ff6565b83811115615020576000848401525b50505050565b600061503182614fd7565b61503b8185614fe2565b935061504b818560208601614ff3565b61505481614c8c565b840191505092915050565b600060208201905081810360008301526150798184615026565b905092915050565b60006020828403121561509757615096614b7f565b5b60006150a584828501614c08565b91505092915050565b6150b781614ba9565b82525050565b6080820160008201516150d36000850182614e68565b5060208201516150e660208501826150ae565b5060408201516150f96040850182614e68565b50606082015161510c6060850182614e68565b50505050565b600060808201905061512760008301846150bd565b92915050565b600080fd5b600067ffffffffffffffff82111561514d5761514c614c9d565b5b61515682614c8c565b9050602081019050919050565b82818337600083830152505050565b600061518561518084615132565b614cfd565b9050828152602081018484840111156151a1576151a061512d565b5b6151ac848285615163565b509392505050565b600082601f8301126151c9576151c8614c87565b5b81356151d9848260208601615172565b91505092915050565b600080600080608085870312156151fc576151fb614b7f565b5b600061520a87828801614bd2565b945050602085013567ffffffffffffffff81111561522b5761522a614b84565b5b61523787828801614db2565b935050604085013567ffffffffffffffff81111561525857615257614b84565b5b61526487828801614db2565b925050606085013567ffffffffffffffff81111561528557615284614b84565b5b615291878288016151b4565b91505092959194509250565b6000819050919050565b6152b08161529d565b81146152bb57600080fd5b50565b6000813590506152cd816152a7565b92915050565b6000602082840312156152e9576152e8614b7f565b5b60006152f7848285016152be565b91505092915050565b6153098161529d565b82525050565b60006020820190506153246000830184615300565b92915050565b600080600080600060a0868803121561534657615345614b7f565b5b600061535488828901614bd2565b955050602061536588828901614bd2565b945050604086013567ffffffffffffffff81111561538657615385614b84565b5b61539288828901614db2565b935050606086013567ffffffffffffffff8111156153b3576153b2614b84565b5b6153bf88828901614db2565b925050608086013567ffffffffffffffff8111156153e0576153df614b84565b5b6153ec888289016151b4565b9150509295509295909350565b600080604083850312156154105761540f614b7f565b5b600061541e858286016152be565b925050602061542f85828601614bd2565b9150509250929050565b61544281614fa1565b811461544d57600080fd5b50565b60008135905061545f81615439565b92915050565b60008060006060848603121561547e5761547d614b7f565b5b600061548c86828701614bd2565b935050602061549d86828701614bd2565b92505060406154ae86828701615450565b9150509250925092565b600080fd5b60008083601f8401126154d3576154d2614c87565b5b8235905067ffffffffffffffff8111156154f0576154ef6154b8565b5b60208301915083600182028301111561550c5761550b614d44565b5b9250929050565b6000806020838503121561552a57615529614b7f565b5b600083013567ffffffffffffffff81111561554857615547614b84565b5b615554858286016154bd565b92509250509250929050565b600067ffffffffffffffff82111561557b5761557a614c9d565b5b602082029050602081019050919050565b600061559f61559a84615560565b614cfd565b905080838252602082019050602084028301858111156155c2576155c1614d44565b5b835b818110156155eb57806155d78882614bd2565b8452602084019350506020810190506155c4565b5050509392505050565b600082601f83011261560a57615609614c87565b5b813561561a84826020860161558c565b91505092915050565b6000806040838503121561563a57615639614b7f565b5b600083013567ffffffffffffffff81111561565857615657614b84565b5b615664858286016155f5565b925050602083013567ffffffffffffffff81111561568557615684614b84565b5b61569185828601614db2565b9150509250929050565b6000602082840312156156b1576156b0614b7f565b5b60006156bf84828501614bd2565b91505092915050565b6000806000606084860312156156e1576156e0614b7f565b5b60006156ef86828701614bd2565b935050602084013567ffffffffffffffff8111156157105761570f614b84565b5b61571c86828701614db2565b925050604084013567ffffffffffffffff81111561573d5761573c614b84565b5b61574986828701614db2565b9150509250925092565b6000806000806080858703121561576d5761576c614b7f565b5b600061577b87828801614bd2565b945050602061578c87828801614c08565b935050604061579d87828801614c08565b925050606085013567ffffffffffffffff8111156157be576157bd614b84565b5b6157ca878288016151b4565b91505092959194509250565b600080604083850312156157ed576157ec614b7f565b5b60006157fb858286016152be565b925050602061580c85828601614c08565b9150509250929050565b61581f81614ba9565b82525050565b600060208201905061583a6000830184615816565b92915050565b6000806040838503121561585757615856614b7f565b5b600061586585828601614bd2565b925050602061587685828601615450565b9150509250929050565b60008083601f84011261589657615895614c87565b5b8235905067ffffffffffffffff8111156158b3576158b26154b8565b5b6020830191508360208202830111156158cf576158ce614d44565b5b9250929050565b6000806000604084860312156158ef576158ee614b7f565b5b600084013567ffffffffffffffff81111561590d5761590c614b84565b5b61591986828701615880565b9350935050602061592c86828701614c08565b9150509250925092565b60006020828403121561594c5761594b614b7f565b5b600082013567ffffffffffffffff81111561596a57615969614b84565b5b61597684828501614db2565b91505092915050565b60006020828403121561599557615994614b7f565b5b600082013567ffffffffffffffff8111156159b3576159b2614b84565b5b6159bf848285016155f5565b91505092915050565b600060ff82169050919050565b6159de816159c8565b82525050565b600061ffff82169050919050565b6159fb816159e4565b82525050565b60007fffff00000000000000000000000000000000000000000000000000000000000082169050919050565b615a3681615a01565b82525050565b600063ffffffff82169050919050565b615a5581615a3c565b82525050565b61010082016000820151615a7260008501826159d5565b506020820151615a8560208501826159d5565b506040820151615a9860408501826159d5565b506060820151615aab60608501826159f2565b506080820151615abe6080850182615a2d565b5060a0820151615ad160a0850182615a2d565b5060c0820151615ae460c08501826150ae565b5060e0820151615af760e0850182615a4c565b50505050565b600061010082019050615b136000830184615a5b565b92915050565b60008060408385031215615b3057615b2f614b7f565b5b6000615b3e85828601614bd2565b9250506020615b4f85828601614bd2565b9150509250929050565b600080600080600060a08688031215615b7557615b74614b7f565b5b6000615b8388828901614bd2565b9550506020615b9488828901614bd2565b9450506040615ba588828901614c08565b9350506060615bb688828901614c08565b925050608086013567ffffffffffffffff811115615bd757615bd6614b84565b5b615be3888289016151b4565b9150509295509295909350565b600080600060608486031215615c0957615c08614b7f565b5b6000615c1786828701614bd2565b9350506020615c2886828701614c08565b9250506040615c3986828701614c08565b9150509250925092565b600067ffffffffffffffff821115615c5e57615c5d614c9d565b5b615c6782614c8c565b9050602081019050919050565b6000615c87615c8284615c43565b614cfd565b905082815260208101848484011115615ca357615ca261512d565b5b615cae848285615163565b509392505050565b600082601f830112615ccb57615cca614c87565b5b8135615cdb848260208601615c74565b91505092915050565b600060208284031215615cfa57615cf9614b7f565b5b600082013567ffffffffffffffff811115615d1857615d17614b84565b5b615d2484828501615cb6565b91505092915050565b7f455243313135353a2061646472657373207a65726f206973206e6f742061207660008201527f616c6964206f776e657200000000000000000000000000000000000000000000602082015250565b6000615d89602a83614fe2565b9150615d9482615d2d565b604082019050919050565b60006020820190508181036000830152615db881615d7c565b9050919050565b7f4e487b7100000000000000000000000000000000000000000000000000000000600052603260045260246000fd5b7f4e487b7100000000000000000000000000000000000000000000000000000000600052601160045260246000fd5b6000615e2882614be7565b91507fffffffffffffffffffffffffffffffffffffffffffffffffffffffffffffffff8203615e5a57615e59615dee565b5b600182019050919050565b7f4e487b7100000000000000000000000000000000000000000000000000000000600052602260045260246000fd5b60006002820490506001821680615eac57607f821691505b602082108103615ebf57615ebe615e65565b5b50919050565b7f616d6f756e747300000000000000000000000000000000000000000000000000600082015250565b6000615efb600783614fe2565b9150615f0682615ec5565b602082019050919050565b7f6964730000000000000000000000000000000000000000000000000000000000600082015250565b6000615f47600383614fe2565b9150615f5282615f11565b602082019050919050565b60006040820190508181036000830152615f7681615eee565b90508181036020830152615f8981615f3a565b9050919050565b600080fd5b600081519050615fa481614bf1565b92915050565b600081519050615fb981614bbb565b92915050565b600081519050615fce81615439565b92915050565b600060a08284031215615fea57615fe9615f90565b5b615ff460a0614cfd565b9050600061600484828501615f95565b600083015250602061601884828501615f95565b602083015250604061602c84828501615f95565b604083015250606061604084828501615faa565b606083015250608061605484828501615fbf565b60808301525092915050565b600060a0828403121561607657616075614b7f565b5b600061608484828501615fd4565b91505092915050565b600061609882614be7565b91506160a383614be7565b9250827fffffffffffffffffffffffffffffffffffffffffffffffffffffffffffffffff038211156160d8576160d7615dee565b5b828201905092915050565b7f416363657373436f6e74726f6c3a2063616e206f6e6c792072656e6f756e636560008201527f20726f6c657320666f722073656c660000000000000000000000000000000000602082015250565b600061613f602f83614fe2565b915061614a826160e3565b604082019050919050565b6000602082019050818103600083015261616e81616132565b9050919050565b7f455243313135355072657365744d696e7465725061757365723a206d7573742060008201527f686176652070617573657220726f6c6520746f20756e70617573650000000000602082015250565b60006161d1603b83614fe2565b91506161dc82616175565b604082019050919050565b60006020820190508181036000830152616200816161c4565b9050919050565b7f455243313135353a206163636f756e747320616e6420696473206c656e67746860008201527f206d69736d617463680000000000000000000000000000000000000000000000602082015250565b6000616263602983614fe2565b915061626e82616207565b604082019050919050565b6000602082019050818103600083015261629281616256565b9050919050565b7f455243313135353a2063616c6c6572206973206e6f7420746f6b656e206f776e60008201527f6572206e6f7220617070726f7665640000000000000000000000000000000000602082015250565b60006162f5602f83614fe2565b915061630082616299565b604082019050919050565b60006020820190508181036000830152616324816162e8565b9050919050565b7f52656d6f76616c3a204552432031313535206d696e742064697361626c656400600082015250565b6000616361601f83614fe2565b915061636c8261632b565b602082019050919050565b6000602082019050818103600083015261639081616354565b9050919050565b7f496e697469616c697a61626c653a20636f6e747261637420697320616c72656160008201527f647920696e697469616c697a6564000000000000000000000000000000000000602082015250565b60006163f3602e83614fe2565b91506163fe82616397565b604082019050919050565b60006020820190508181036000830152616422816163e6565b9050919050565b60008190508160005260206000209050919050565b60006020601f8301049050919050565b600082821b905092915050565b60006008830261648b7fffffffffffffffffffffffffffffffffffffffffffffffffffffffffffffffff8261644e565b616495868361644e565b95508019841693508086168417925050509392505050565b6000819050919050565b60006164d26164cd6164c884614be7565b6164ad565b614be7565b9050919050565b6000819050919050565b6164ec836164b7565b6165006164f8826164d9565b84845461645b565b825550505050565b600090565b616515616508565b6165208184846164e3565b505050565b5b818110156165445761653960008261650d565b600181019050616526565b5050565b601f8211156165895761655a81616429565b6165638461643e565b81016020851015616572578190505b61658661657e8561643e565b830182616525565b50505b505050565b600082821c905092915050565b60006165ac6000198460080261658e565b1980831691505092915050565b60006165c5838361659b565b9150826002028217905092915050565b6165de82614fd7565b67ffffffffffffffff8111156165f7576165f6614c9d565b5b6166018254615e94565b61660c828285616548565b600060209050601f83116001811461663f576000841561662d578287015190505b61663785826165b9565b86555061669f565b601f19841661664d86616429565b60005b8281101561667557848901518255600182019150602085019450602081019050616650565b86831015616692578489015161668e601f89168261659b565b8355505b6001600288020188555050505b505050505050565b6000819050919050565b60006166cc6166c76166c2846166a7565b6164ad565b6159c8565b9050919050565b6166dc816166b1565b82525050565b60006020820190506166f760008301846166d3565b92915050565b7f455243313135355072657365744d696e7465725061757365723a206d7573742060008201527f686176652070617573657220726f6c6520746f20706175736500000000000000602082015250565b6000616759603983614fe2565b9150616764826166fd565b604082019050919050565b600060208201905081810360008301526167888161674c565b9050919050565b60006040820190506167a46000830185614c5d565b6167b16020830184614c5d565b9392505050565b6000602082840312156167ce576167cd614b7f565b5b60006167dc84828501615fbf565b91505092915050565b7f455243313135355072657365744d696e7465725061757365723a206d7573742060008201527f68617665206d696e74657220726f6c6520746f206d696e740000000000000000602082015250565b6000616841603883614fe2565b915061684c826167e5565b604082019050919050565b6000602082019050818103600083015261687081616834565b9050919050565b7f5061757361626c653a2070617573656400000000000000000000000000000000600082015250565b60006168ad601083614fe2565b91506168b882616877565b602082019050919050565b600060208201905081810360008301526168dc816168a0565b9050919050565b7f455243313135353a2073657474696e6720617070726f76616c2073746174757360008201527f20666f722073656c660000000000000000000000000000000000000000000000602082015250565b600061693f602983614fe2565b915061694a826168e3565b604082019050919050565b6000602082019050818103600083015261696e81616932565b9050919050565b61697e816159c8565b811461698957600080fd5b50565b60008135905061699b81616975565b92915050565b6000602082840312156169b7576169b6614b7f565b5b60006169c58482850161698c565b91505092915050565b7f556e737570706f727465642072656d6f76616c20746f6b656e2069642076657260008201527f73696f6e00000000000000000000000000000000000000000000000000000000602082015250565b6000616a2a602483614fe2565b9150616a35826169ce565b604082019050919050565b60006020820190508181036000830152616a5981616a1d565b9050919050565b7f72656d6f76616c4461746120636f6e7461696e732077726f6e67206e756d626560008201527f72206f6620627974657300000000000000000000000000000000000000000000602082015250565b6000616abc602a83614fe2565b9150616ac782616a60565b604082019050919050565b60006020820190508181036000830152616aeb81616aaf565b9050919050565b616afb816159e4565b8114616b0657600080fd5b50565b600081359050616b1881616af2565b92915050565b616b2781615a01565b8114616b3257600080fd5b50565b600081359050616b4481616b1e565b92915050565b616b5381615a3c565b8114616b5e57600080fd5b50565b600081359050616b7081616b4a565b92915050565b60006101008284031215616b8d57616b8c615f90565b5b616b98610100614cfd565b90506000616ba88482850161698c565b6000830152506020616bbc8482850161698c565b6020830152506040616bd08482850161698c565b6040830152506060616be484828501616b09565b6060830152506080616bf884828501616b35565b60808301525060a0616c0c84828501616b35565b60a08301525060c0616c2084828501614bd2565b60c08301525060e0616c3484828501616b61565b60e08301525092915050565b60006101008284031215616c5757616c56614b7f565b5b6000616c6584828501616b76565b91505092915050565b7f4d6574686f6c6f646f677920746f6f206c617267650000000000000000000000600082015250565b6000616ca4601583614fe2565b9150616caf82616c6e565b602082019050919050565b60006020820190508181036000830152616cd381616c97565b9050919050565b7f4d6574686f6c6f646f67792076657273696f6e20746f6f206c61726765000000600082015250565b6000616d10601d83614fe2565b9150616d1b82616cda565b602082019050919050565b60006020820190508181036000830152616d3f81616d03565b9050919050565b7f496e76616c696420415343494900000000000000000000000000000000000000600082015250565b6000616d7c600d83614fe2565b9150616d8782616d46565b602082019050919050565b60006020820190508181036000830152616dab81616d6f565b9050919050565b6000616dbd82614be7565b9150616dc883614be7565b9250817fffffffffffffffffffffffffffffffffffffffffffffffffffffffffffffffff0483118215151615616e0157616e00615dee565b5b828202905092915050565b7f455243313135353a206275726e2066726f6d20746865207a65726f206164647260008201527f6573730000000000000000000000000000000000000000000000000000000000602082015250565b6000616e68602383614fe2565b9150616e7382616e0c565b604082019050919050565b60006020820190508181036000830152616e9781616e5b565b9050919050565b7f455243313135353a2069647320616e6420616d6f756e7473206c656e6774682060008201527f6d69736d61746368000000000000000000000000000000000000000000000000602082015250565b6000616efa602883614fe2565b9150616f0582616e9e565b604082019050919050565b60006020820190508181036000830152616f2981616eed565b9050919050565b7f455243313135353a206275726e20616d6f756e7420657863656564732062616c60008201527f616e636500000000000000000000000000000000000000000000000000000000602082015250565b6000616f8c602483614fe2565b9150616f9782616f30565b604082019050919050565b60006020820190508181036000830152616fbb81616f7f565b9050919050565b60006040820190508181036000830152616fdc8185614e9c565b90508181036020830152616ff08184614e9c565b90509392505050565b7f496e697469616c697a61626c653a20636f6e7472616374206973206e6f74206960008201527f6e697469616c697a696e67000000000000000000000000000000000000000000602082015250565b6000617055602b83614fe2565b915061706082616ff9565b604082019050919050565b6000602082019050818103600083015261708481617048565b9050919050565b7f455243313135353a207472616e7366657220746f20746865207a65726f20616460008201527f6472657373000000000000000000000000000000000000000000000000000000602082015250565b60006170e7602583614fe2565b91506170f28261708b565b604082019050919050565b60006020820190508181036000830152617116816170da565b9050919050565b7f455243313135353a20696e73756666696369656e742062616c616e636520666f60008201527f72207472616e7366657200000000000000000000000000000000000000000000602082015250565b6000617179602a83614fe2565b91506171848261711d565b604082019050919050565b600060208201905081810360008301526171a88161716c565b9050919050565b60008160011c9050919050565b6000808291508390505b6001851115617206578086048111156171e2576171e1615dee565b5b60018516156171f15780820291505b80810290506171ff856171af565b94506171c6565b94509492505050565b60008261721f57600190506172db565b8161722d57600090506172db565b8160018114617243576002811461724d5761727c565b60019150506172db565b60ff84111561725f5761725e615dee565b5b8360020a91508482111561727657617275615dee565b5b506172db565b5060208310610133831016604e8410600b84101617156172b15782820a9050838111156172ac576172ab615dee565b5b6172db565b6172be84848460016171bc565b925090508184048111156172d5576172d4615dee565b5b81810290505b9392505050565b60006172ed82614be7565b91506172f883614be7565b92506173257fffffffffffffffffffffffffffffffffffffffffffffffffffffffffffffffff848461720f565b905092915050565b600061733882614be7565b915061734383614be7565b92508282101561735657617355615dee565b5b828203905092915050565b7f455243313135353a206d696e7420746f20746865207a65726f2061646472657360008201527f7300000000000000000000000000000000000000000000000000000000000000602082015250565b60006173bd602183614fe2565b91506173c882617361565b604082019050919050565b600060208201905081810360008301526173ec816173b0565b9050919050565b600081905092915050565b7f416363657373436f6e74726f6c3a206163636f756e7420000000000000000000600082015250565b60006174346017836173f3565b915061743f826173fe565b601782019050919050565b600061745582614fd7565b61745f81856173f3565b935061746f818560208601614ff3565b80840191505092915050565b7f206973206d697373696e6720726f6c6520000000000000000000000000000000600082015250565b60006174b16011836173f3565b91506174bc8261747b565b601182019050919050565b60006174d282617427565b91506174de828561744a565b91506174e9826174a4565b91506174f5828461744a565b91508190509392505050565b7f5061757361626c653a206e6f7420706175736564000000000000000000000000600082015250565b6000617537601483614fe2565b915061754282617501565b602082019050919050565b600060208201905081810360008301526175668161752a565b9050919050565b600081519050919050565b600082825260208201905092915050565b60006175948261756d565b61759e8185617578565b93506175ae818560208601614ff3565b6175b781614c8c565b840191505092915050565b600060a0820190506175d76000830188615816565b6175e46020830187615816565b6175f16040830186614c5d565b6175fe6060830185614c5d565b81810360808301526176108184617589565b90509695505050505050565b60008151905061762b81614f48565b92915050565b60006020828403121561764757617646614b7f565b5b60006176558482850161761c565b91505092915050565b60008160e01c9050919050565b600060033d111561768a5760046000803e61768760005161765e565b90505b90565b600060443d1061771a5761769f614b75565b60043d036004823e80513d602482011167ffffffffffffffff821117156176c757505061771a565b808201805167ffffffffffffffff8111156176e5575050505061771a565b80602083010160043d03850181111561770257505050505061771a565b61771182602001850186614ccc565b82955050505050505b90565b7f455243313135353a207472616e7366657220746f206e6f6e204552433131353560008201527f526563656976657220696d706c656d656e746572000000000000000000000000602082015250565b6000617779603483614fe2565b91506177848261771d565b604082019050919050565b600060208201905081810360008301526177a88161776c565b9050919050565b7f455243313135353a204552433131353552656365697665722072656a6563746560008201527f6420746f6b656e73000000000000000000000000000000000000000000000000602082015250565b600061780b602883614fe2565b9150617816826177af565b604082019050919050565b6000602082019050818103600083015261783a816177fe565b9050919050565b600060a0820190506178566000830188615816565b6178636020830187615816565b81810360408301526178758186614e9c565b905081810360608301526178898185614e9c565b9050818103608083015261789d8184617589565b90509695505050505050565b60006178b482614be7565b9150600082036178c7576178c6615dee565b5b600182039050919050565b7f537472696e67733a20686578206c656e67746820696e73756666696369656e74600082015250565b6000617908602083614fe2565b9150617913826178d2565b602082019050919050565b60006020820190508181036000830152617937816178fb565b9050919050565b7f4e487b7100000000000000000000000000000000000000000000000000000000600052603160045260246000fd5b7f455243313135353a206275726e20616d6f756e74206578636565647320746f7460008201527f616c537570706c79000000000000000000000000000000000000000000000000602082015250565b60006179c9602883614fe2565b91506179d48261796d565b604082019050919050565b600060208201905081810360008301526179f8816179bc565b9050919050565b7f455243313135355061757361626c653a20746f6b656e207472616e736665722060008201527f7768696c65207061757365640000000000000000000000000000000000000000602082015250565b6000617a5b602c83614fe2565b9150617a66826179ff565b604082019050919050565b60006020820190508181036000830152617a8a81617a4e565b905091905056fe68747470733a2f2f6e6f72692e636f6d2f6170692f72656d6f76616c2f7b69647d2e6a736f6ea26469706673582212202659a09214fce3153190179ee7abc7078040ba37469b0beeaedca5a7d1bd9b9864736f6c634300080f0033",
  "linkReferences": {},
  "deployedLinkReferences": {}
}