{
  "_format": "hh-sol-artifact-1",
  "contractName": "Removal",
  "sourceName": "contracts/Removal.sol",
  "abi": [
    {
      "inputs": [],
      "stateMutability": "nonpayable",
      "type": "constructor"
    },
    {
      "inputs": [
        {
          "internalType": "string",
          "name": "array1Name",
          "type": "string"
        },
        {
          "internalType": "string",
          "name": "array2Name",
          "type": "string"
        }
      ],
      "name": "ArrayLengthMismatch",
      "type": "error"
    },
    {
      "inputs": [
        {
          "internalType": "uint256",
          "name": "projectId",
          "type": "uint256"
        }
      ],
      "name": "InvalidProjectId",
      "type": "error"
    },
    {
      "inputs": [
        {
          "internalType": "uint256",
          "name": "tokenId",
          "type": "uint256"
        }
      ],
      "name": "TokenIdDoesNotExist",
      "type": "error"
    },
    {
      "inputs": [
        {
          "internalType": "uint256",
          "name": "tokenId",
          "type": "uint256"
        }
      ],
      "name": "TokenIdExists",
      "type": "error"
    },
    {
      "anonymous": false,
      "inputs": [
        {
          "indexed": true,
          "internalType": "address",
          "name": "account",
          "type": "address"
        },
        {
          "indexed": true,
          "internalType": "address",
          "name": "operator",
          "type": "address"
        },
        {
          "indexed": false,
          "internalType": "bool",
          "name": "approved",
          "type": "bool"
        }
      ],
      "name": "ApprovalForAll",
      "type": "event"
    },
    {
      "anonymous": false,
      "inputs": [
        {
          "indexed": false,
          "internalType": "uint8",
          "name": "version",
          "type": "uint8"
        }
      ],
      "name": "Initialized",
      "type": "event"
    },
    {
      "anonymous": false,
      "inputs": [
        {
          "indexed": false,
          "internalType": "address",
          "name": "account",
          "type": "address"
        }
      ],
      "name": "Paused",
      "type": "event"
    },
    {
      "anonymous": false,
      "inputs": [
        {
          "indexed": true,
          "internalType": "bytes32",
          "name": "role",
          "type": "bytes32"
        },
        {
          "indexed": true,
          "internalType": "bytes32",
          "name": "previousAdminRole",
          "type": "bytes32"
        },
        {
          "indexed": true,
          "internalType": "bytes32",
          "name": "newAdminRole",
          "type": "bytes32"
        }
      ],
      "name": "RoleAdminChanged",
      "type": "event"
    },
    {
      "anonymous": false,
      "inputs": [
        {
          "indexed": true,
          "internalType": "bytes32",
          "name": "role",
          "type": "bytes32"
        },
        {
          "indexed": true,
          "internalType": "address",
          "name": "account",
          "type": "address"
        },
        {
          "indexed": true,
          "internalType": "address",
          "name": "sender",
          "type": "address"
        }
      ],
      "name": "RoleGranted",
      "type": "event"
    },
    {
      "anonymous": false,
      "inputs": [
        {
          "indexed": true,
          "internalType": "bytes32",
          "name": "role",
          "type": "bytes32"
        },
        {
          "indexed": true,
          "internalType": "address",
          "name": "account",
          "type": "address"
        },
        {
          "indexed": true,
          "internalType": "address",
          "name": "sender",
          "type": "address"
        }
      ],
      "name": "RoleRevoked",
      "type": "event"
    },
    {
      "anonymous": false,
      "inputs": [
        {
          "indexed": true,
          "internalType": "address",
          "name": "operator",
          "type": "address"
        },
        {
          "indexed": true,
          "internalType": "address",
          "name": "from",
          "type": "address"
        },
        {
          "indexed": true,
          "internalType": "address",
          "name": "to",
          "type": "address"
        },
        {
          "indexed": false,
          "internalType": "uint256[]",
          "name": "ids",
          "type": "uint256[]"
        },
        {
          "indexed": false,
          "internalType": "uint256[]",
          "name": "values",
          "type": "uint256[]"
        }
      ],
      "name": "TransferBatch",
      "type": "event"
    },
    {
      "anonymous": false,
      "inputs": [
        {
          "indexed": true,
          "internalType": "address",
          "name": "operator",
          "type": "address"
        },
        {
          "indexed": true,
          "internalType": "address",
          "name": "from",
          "type": "address"
        },
        {
          "indexed": true,
          "internalType": "address",
          "name": "to",
          "type": "address"
        },
        {
          "indexed": false,
          "internalType": "uint256",
          "name": "id",
          "type": "uint256"
        },
        {
          "indexed": false,
          "internalType": "uint256",
          "name": "value",
          "type": "uint256"
        }
      ],
      "name": "TransferSingle",
      "type": "event"
    },
    {
      "anonymous": false,
      "inputs": [
        {
          "indexed": false,
          "internalType": "string",
          "name": "value",
          "type": "string"
        },
        {
          "indexed": true,
          "internalType": "uint256",
          "name": "id",
          "type": "uint256"
        }
      ],
      "name": "URI",
      "type": "event"
    },
    {
      "anonymous": false,
      "inputs": [
        {
          "indexed": false,
          "internalType": "address",
          "name": "account",
          "type": "address"
        }
      ],
      "name": "Unpaused",
      "type": "event"
    },
    {
      "inputs": [],
      "name": "DEFAULT_ADMIN_ROLE",
      "outputs": [
        {
          "internalType": "bytes32",
          "name": "",
          "type": "bytes32"
        }
      ],
      "stateMutability": "view",
      "type": "function"
    },
    {
      "inputs": [],
      "name": "MINTER_ROLE",
      "outputs": [
        {
          "internalType": "bytes32",
          "name": "",
          "type": "bytes32"
        }
      ],
      "stateMutability": "view",
      "type": "function"
    },
    {
      "inputs": [],
      "name": "PAUSER_ROLE",
      "outputs": [
        {
          "internalType": "bytes32",
          "name": "",
          "type": "bytes32"
        }
      ],
      "stateMutability": "view",
      "type": "function"
    },
    {
      "inputs": [
        {
          "internalType": "address",
          "name": "account",
          "type": "address"
        },
        {
          "internalType": "uint256",
          "name": "id",
          "type": "uint256"
        }
      ],
      "name": "balanceOf",
      "outputs": [
        {
          "internalType": "uint256",
          "name": "",
          "type": "uint256"
        }
      ],
      "stateMutability": "view",
      "type": "function"
    },
    {
      "inputs": [
        {
          "internalType": "address[]",
          "name": "accounts",
          "type": "address[]"
        },
        {
          "internalType": "uint256[]",
          "name": "ids",
          "type": "uint256[]"
        }
      ],
      "name": "balanceOfBatch",
      "outputs": [
        {
          "internalType": "uint256[]",
          "name": "",
          "type": "uint256[]"
        }
      ],
      "stateMutability": "view",
      "type": "function"
    },
    {
      "inputs": [
        {
          "internalType": "address",
          "name": "account",
          "type": "address"
        },
        {
          "internalType": "uint256[]",
          "name": "ids",
          "type": "uint256[]"
        }
      ],
      "name": "balanceOfIds",
      "outputs": [
        {
          "internalType": "uint256[]",
          "name": "",
          "type": "uint256[]"
        }
      ],
      "stateMutability": "view",
      "type": "function"
    },
    {
      "inputs": [
        {
          "internalType": "uint256[]",
          "name": "removalIds",
          "type": "uint256[]"
        }
      ],
      "name": "batchGetHoldbackPercentages",
      "outputs": [
        {
          "internalType": "uint256[]",
          "name": "",
          "type": "uint256[]"
        }
      ],
      "stateMutability": "view",
      "type": "function"
    },
    {
      "inputs": [
        {
          "internalType": "uint256[]",
          "name": "removalIds",
          "type": "uint256[]"
        },
        {
          "internalType": "uint256",
          "name": "holdbackPercentage",
          "type": "uint256"
        }
      ],
      "name": "batchSetHoldbackPercentage",
      "outputs": [],
      "stateMutability": "nonpayable",
      "type": "function"
    },
    {
      "inputs": [
        {
          "internalType": "address",
          "name": "account",
          "type": "address"
        },
        {
          "internalType": "uint256",
          "name": "id",
          "type": "uint256"
        },
        {
          "internalType": "uint256",
          "name": "value",
          "type": "uint256"
        }
      ],
      "name": "burn",
      "outputs": [],
      "stateMutability": "nonpayable",
      "type": "function"
    },
    {
      "inputs": [
        {
          "internalType": "address",
          "name": "account",
          "type": "address"
        },
        {
          "internalType": "uint256[]",
          "name": "ids",
          "type": "uint256[]"
        },
        {
          "internalType": "uint256[]",
          "name": "values",
          "type": "uint256[]"
        }
      ],
      "name": "burnBatch",
      "outputs": [],
      "stateMutability": "nonpayable",
      "type": "function"
    },
    {
      "inputs": [
        {
          "internalType": "bytes",
          "name": "removalData",
          "type": "bytes"
        }
      ],
      "name": "createRemovalId",
      "outputs": [
        {
          "internalType": "uint256",
          "name": "",
          "type": "uint256"
        }
      ],
      "stateMutability": "pure",
      "type": "function"
    },
    {
      "inputs": [
        {
          "internalType": "uint256",
          "name": "id",
          "type": "uint256"
        }
      ],
      "name": "exists",
      "outputs": [
        {
          "internalType": "bool",
          "name": "",
          "type": "bool"
        }
      ],
      "stateMutability": "view",
      "type": "function"
    },
    {
      "inputs": [
        {
          "internalType": "uint256",
          "name": "removalId",
          "type": "uint256"
        }
      ],
      "name": "getProjectIdForRemoval",
      "outputs": [
        {
          "internalType": "uint256",
          "name": "",
          "type": "uint256"
        }
      ],
      "stateMutability": "view",
      "type": "function"
    },
    {
      "inputs": [
        {
          "internalType": "bytes32",
          "name": "role",
          "type": "bytes32"
        }
      ],
      "name": "getRoleAdmin",
      "outputs": [
        {
          "internalType": "bytes32",
          "name": "",
          "type": "bytes32"
        }
      ],
      "stateMutability": "view",
      "type": "function"
    },
    {
      "inputs": [
        {
          "internalType": "bytes32",
          "name": "role",
          "type": "bytes32"
        },
        {
          "internalType": "uint256",
          "name": "index",
          "type": "uint256"
        }
      ],
      "name": "getRoleMember",
      "outputs": [
        {
          "internalType": "address",
          "name": "",
          "type": "address"
        }
      ],
      "stateMutability": "view",
      "type": "function"
    },
    {
      "inputs": [
        {
          "internalType": "bytes32",
          "name": "role",
          "type": "bytes32"
        }
      ],
      "name": "getRoleMemberCount",
      "outputs": [
        {
          "internalType": "uint256",
          "name": "",
          "type": "uint256"
        }
      ],
      "stateMutability": "view",
      "type": "function"
    },
    {
      "inputs": [
        {
          "internalType": "uint256",
          "name": "projectId",
          "type": "uint256"
        }
      ],
      "name": "getScheduleDataForProjectId",
      "outputs": [
        {
          "components": [
            {
              "internalType": "uint256",
              "name": "startTime",
              "type": "uint256"
            },
            {
              "internalType": "address",
              "name": "supplierAddress",
              "type": "address"
            },
            {
              "internalType": "uint256",
              "name": "methodology",
              "type": "uint256"
            },
            {
              "internalType": "uint256",
              "name": "methodologyVersion",
              "type": "uint256"
            }
          ],
          "internalType": "struct Removal.ScheduleData",
          "name": "",
          "type": "tuple"
        }
      ],
      "stateMutability": "view",
      "type": "function"
    },
    {
      "inputs": [
        {
          "internalType": "uint256",
          "name": "removalId",
          "type": "uint256"
        }
      ],
      "name": "getScheduleDataForRemovalId",
      "outputs": [
        {
          "components": [
            {
              "internalType": "uint256",
              "name": "startTime",
              "type": "uint256"
            },
            {
              "internalType": "address",
              "name": "supplierAddress",
              "type": "address"
            },
            {
              "internalType": "uint256",
              "name": "methodology",
              "type": "uint256"
            },
            {
              "internalType": "uint256",
              "name": "methodologyVersion",
              "type": "uint256"
            }
          ],
          "internalType": "struct Removal.ScheduleData",
          "name": "",
          "type": "tuple"
        }
      ],
      "stateMutability": "view",
      "type": "function"
    },
    {
      "inputs": [
        {
          "internalType": "bytes32",
          "name": "role",
          "type": "bytes32"
        },
        {
          "internalType": "address",
          "name": "account",
          "type": "address"
        }
      ],
      "name": "grantRole",
      "outputs": [],
      "stateMutability": "nonpayable",
      "type": "function"
    },
    {
      "inputs": [
        {
          "internalType": "bytes32",
          "name": "role",
          "type": "bytes32"
        },
        {
          "internalType": "address",
          "name": "account",
          "type": "address"
        }
      ],
      "name": "hasRole",
      "outputs": [
        {
          "internalType": "bool",
          "name": "",
          "type": "bool"
        }
      ],
      "stateMutability": "view",
      "type": "function"
    },
    {
      "inputs": [
        {
          "internalType": "uint256",
          "name": "",
          "type": "uint256"
        }
      ],
      "name": "indexToTokenId",
      "outputs": [
        {
          "internalType": "uint256",
          "name": "",
          "type": "uint256"
        }
      ],
      "stateMutability": "view",
      "type": "function"
    },
    {
      "inputs": [],
      "name": "initialize",
      "outputs": [],
      "stateMutability": "nonpayable",
      "type": "function"
    },
    {
      "inputs": [
        {
          "internalType": "address",
          "name": "account",
          "type": "address"
        },
        {
          "internalType": "address",
          "name": "operator",
          "type": "address"
        }
      ],
      "name": "isApprovedForAll",
      "outputs": [
        {
          "internalType": "bool",
          "name": "",
          "type": "bool"
        }
      ],
      "stateMutability": "view",
      "type": "function"
    },
    {
      "inputs": [
        {
          "internalType": "address",
          "name": "to",
          "type": "address"
        },
        {
          "internalType": "uint256[]",
          "name": "amounts",
          "type": "uint256[]"
        },
        {
          "internalType": "uint256[]",
          "name": "ids",
          "type": "uint256[]"
        },
        {
          "internalType": "bytes",
          "name": "data",
          "type": "bytes"
        }
      ],
      "name": "mintBatch",
      "outputs": [],
      "stateMutability": "nonpayable",
      "type": "function"
    },
    {
      "inputs": [],
      "name": "name",
      "outputs": [
        {
          "internalType": "string",
          "name": "",
          "type": "string"
        }
      ],
      "stateMutability": "view",
      "type": "function"
    },
    {
      "inputs": [],
      "name": "paused",
      "outputs": [
        {
          "internalType": "bool",
          "name": "",
          "type": "bool"
        }
      ],
      "stateMutability": "view",
      "type": "function"
    },
    {
      "inputs": [
        {
          "internalType": "address",
          "name": "restrictedNORIAddress",
          "type": "address"
        }
      ],
      "name": "registerRestrictedNORIAddress",
      "outputs": [],
      "stateMutability": "nonpayable",
      "type": "function"
    },
    {
      "inputs": [
        {
          "internalType": "bytes32",
          "name": "role",
          "type": "bytes32"
        },
        {
          "internalType": "address",
          "name": "account",
          "type": "address"
        }
      ],
      "name": "renounceRole",
      "outputs": [],
      "stateMutability": "nonpayable",
      "type": "function"
    },
    {
      "inputs": [
        {
          "internalType": "bytes32",
          "name": "role",
          "type": "bytes32"
        },
        {
          "internalType": "address",
          "name": "account",
          "type": "address"
        }
      ],
      "name": "revokeRole",
      "outputs": [],
      "stateMutability": "nonpayable",
      "type": "function"
    },
    {
      "inputs": [
        {
          "internalType": "address",
          "name": "from",
          "type": "address"
        },
        {
          "internalType": "address",
          "name": "to",
          "type": "address"
        },
        {
          "internalType": "uint256[]",
          "name": "ids",
          "type": "uint256[]"
        },
        {
          "internalType": "uint256[]",
          "name": "amounts",
          "type": "uint256[]"
        },
        {
          "internalType": "bytes",
          "name": "",
          "type": "bytes"
        }
      ],
      "name": "safeBatchTransferFrom",
      "outputs": [],
      "stateMutability": "nonpayable",
      "type": "function"
    },
    {
      "inputs": [
        {
          "internalType": "address",
          "name": "from",
          "type": "address"
        },
        {
          "internalType": "address",
          "name": "to",
          "type": "address"
        },
        {
          "internalType": "uint256",
          "name": "id",
          "type": "uint256"
        },
        {
          "internalType": "uint256",
          "name": "amount",
          "type": "uint256"
        },
        {
          "internalType": "bytes",
          "name": "data",
          "type": "bytes"
        }
      ],
      "name": "safeTransferFrom",
      "outputs": [],
      "stateMutability": "nonpayable",
      "type": "function"
    },
    {
      "inputs": [
        {
          "internalType": "address",
          "name": "owner",
          "type": "address"
        },
        {
          "internalType": "address",
          "name": "operator",
          "type": "address"
        },
        {
          "internalType": "bool",
          "name": "approved",
          "type": "bool"
        }
      ],
      "name": "setApprovalForAll",
      "outputs": [],
      "stateMutability": "nonpayable",
      "type": "function"
    },
    {
      "inputs": [
        {
          "internalType": "address",
          "name": "operator",
          "type": "address"
        },
        {
          "internalType": "bool",
          "name": "approved",
          "type": "bool"
        }
      ],
      "name": "setApprovalForAll",
      "outputs": [],
      "stateMutability": "nonpayable",
      "type": "function"
    },
    {
      "inputs": [
        {
          "internalType": "bytes4",
          "name": "interfaceId",
          "type": "bytes4"
        }
      ],
      "name": "supportsInterface",
      "outputs": [
        {
          "internalType": "bool",
          "name": "",
          "type": "bool"
        }
      ],
      "stateMutability": "view",
      "type": "function"
    },
    {
      "inputs": [],
      "name": "tokenIdCounter",
      "outputs": [
        {
          "internalType": "uint256",
          "name": "",
          "type": "uint256"
        }
      ],
      "stateMutability": "view",
      "type": "function"
    },
    {
      "inputs": [
        {
          "internalType": "uint256",
          "name": "id",
          "type": "uint256"
        }
      ],
      "name": "totalSupply",
      "outputs": [
        {
          "internalType": "uint256",
          "name": "",
          "type": "uint256"
        }
      ],
      "stateMutability": "view",
      "type": "function"
    },
    {
      "inputs": [
        {
          "internalType": "uint256",
          "name": "removalId",
          "type": "uint256"
        }
      ],
      "name": "unpackRemovalIdV0",
      "outputs": [
        {
          "components": [
            {
              "internalType": "uint8",
              "name": "idVersion",
              "type": "uint8"
            },
            {
              "internalType": "uint8",
              "name": "methodology",
              "type": "uint8"
            },
            {
              "internalType": "uint8",
              "name": "methodologyVersion",
              "type": "uint8"
            },
            {
              "internalType": "uint16",
              "name": "vintage",
              "type": "uint16"
            },
            {
              "internalType": "bytes2",
              "name": "country",
              "type": "bytes2"
            },
            {
              "internalType": "bytes2",
              "name": "subdivision",
              "type": "bytes2"
            },
            {
              "internalType": "address",
              "name": "supplierAddress",
              "type": "address"
            },
            {
              "internalType": "uint32",
              "name": "subIdentifier",
              "type": "uint32"
            }
          ],
          "internalType": "struct UnpackedRemovalIdV0",
          "name": "",
          "type": "tuple"
        }
      ],
      "stateMutability": "pure",
      "type": "function"
    },
    {
      "inputs": [
        {
          "internalType": "uint256",
          "name": "",
          "type": "uint256"
        }
      ],
      "name": "uri",
      "outputs": [
        {
          "internalType": "string",
          "name": "",
          "type": "string"
        }
      ],
      "stateMutability": "view",
      "type": "function"
    }
  ],
  "bytecode": "0x60808060405234620000c6576000549060ff8260081c1662000074575060ff8082161062000038575b6040516152519081620000cc8239f35b60ff90811916176000557f7f26b83ff96e1f2b6a682f133852f6798a09c465da95921460cefb3847402498602060405160ff8152a13862000028565b62461bcd60e51b815260206004820152602760248201527f496e697469616c697a61626c653a20636f6e747261637420697320696e697469604482015266616c697a696e6760c81b6064820152608490fd5b600080fdfe6080604052600436101561001257600080fd5b60e0600035811c908162fdd58e14613c42578163018e1c8314613b9757816301ffc9a714613a4157816306fdde031461391d5781630e89341c146137ff5781631990ad05146137955781631f7fdffa14612b27578163248a9ca314612ad95781632eb2c2d6146127705781632f2ff15d1461265957816336568abe14612575578163367605ca1461251057816348ec4c3b14611fe55781634e1273f414611e1c5781634f558e7914611dcf5781635c975abb14611d8e5781635f830d7714611cff5781636b20c454146119a95781637aef11641461195e5781638129fc1c146112c05781639010d07c1461124e57816391d14854146111d457816398bdf6f51461119757816399d5121b146110c0578163a217fddf14611086578163a22cb46514611039578163a53ba52714610f3c578163b6477cc014610e33578163bd85b03914610de8578163ca15c87314610d9d578163d539139314610d44578163d547741f14610ce6578163d85a53e914610bb257508063e0fc293814610b67578063e63ab1e914610b0e578063e985e9c514610a8c578063f242432a146104d75763f5298aca146101c057600080fd5b346104d25760607ffffffffffffffffffffffffffffffffffffffffffffffffffffffffffffffffc3601126104d2576101f7613c8f565b6024908135604473ffffffffffffffffffffffffffffffffffffffff813593169133831480156104a9575b61022b906145c5565b8215926102388415614914565b610241826148ef565b9161024b866148ef565b94600060405161025a81613d4b565b5260ff60975416610426576103cb575b60005b83518110156103485761028081856145b1565b5161028b82886145b1565b51908060005261012d6020818152604060002054928484106102c557906102c095949392916000525203604060002055614548565b61026d565b506084907f455243313135353a206275726e20616d6f756e74206578636565647320746f748a60288f604051947f08c379a000000000000000000000000000000000000000000000000000000000865260048601528401528201527f616c537570706c790000000000000000000000000000000000000000000000006064820152fd5b60008383898184526065602052604084208385526020528060408520546103718282101561499f565b83865260656020526040862085875260205203604085205560405191825260208201527fc3d58168c5ae7397731d063d5bbf3d657854427343f4c083240f7aacaa2d0f6260403392a460006040516103c881613d4b565b52005b949195929060005b875181101561041b57806103ea61041692886145b1565b516103f5828b6145b1565b5160005261012d60205261040f6040600020918254614766565b9055614548565b6103d3565b50909295919461026a565b6084887f455243313135355061757361626c653a20746f6b656e207472616e736665722087602c604051937f08c379a0000000000000000000000000000000000000000000000000000000008552602060048601528401528201527f7768696c652070617573656400000000000000000000000000000000000000006064820152fd5b5082600052606660205260406000203360005260205261022b60ff604060002054169050610222565b600080fd5b346104d25760a07ffffffffffffffffffffffffffffffffffffffffffffffffffffffffffffffffc3601126104d25761050e613c8f565b610516613cb2565b906084803567ffffffffffffffff81116104d257610538903690600401613f1d565b9073ffffffffffffffffffffffffffffffffffffffff9133838516148015610a61575b610564906145c5565b828516156105728115614650565b61057d6044356148ef565b6105886064356148ef565b9160ff609754166109de578587161561099e575b6108ae575b505060443560005260209460658652604060002084861660005286526040600020546105d16064358210156146db565b604435600052606587526040600020858716600052875260643590036040600020556044356000526065865260406000208482166000528652604060002061061c6064358254614766565b905560405160443581526064358782015284821690858716907fc3d58168c5ae7397731d063d5bbf3d657854427343f4c083240f7aacaa2d0f6260403392a4803b610664575b005b60a060006106c795889560405197889687958693857ff23a6e61000000000000000000000000000000000000000000000000000000009d8e87523360048801521660248601526044356044860152606435606486015284015260a4830190613eda565b0393165af16000918161087f575b506107d15750506001906106e7614841565b6308c379a014610782575b506106f957005b6040517f08c379a000000000000000000000000000000000000000000000000000000000815260206004820152603460248201527f455243313135353a207472616e7366657220746f206e6f6e204552433131353560448201527f526563656976657220696d706c656d656e7465720000000000000000000000006064820152608490fd5b0390fd5b61078a61485f565b908161079657506106f2565b61077e6040519283927f08c379a000000000000000000000000000000000000000000000000000000000845260048401526024830190613eda565b7fffffffff0000000000000000000000000000000000000000000000000000000016149050610662576040517f08c379a000000000000000000000000000000000000000000000000000000000815260206004820152602860248201527f455243313135353a204552433131353552656365697665722072656a6563746560448201527f6420746f6b656e730000000000000000000000000000000000000000000000006064820152608490fd5b6108a0919250843d86116108a7575b6108988183613d67565b810190614809565b90846106d5565b503d61088e565b92959194909360005b845181101561098f576108ca81866145b1565b51906108d681886145b1565b518260005261012d60205260406000205481811061090c576109079360005261012d60205203604060002055614548565b6108b7565b8a6040517f08c379a000000000000000000000000000000000000000000000000000000000815260206004820152602860248201527f455243313135353a206275726e20616d6f756e74206578636565647320746f7460448201527f616c537570706c790000000000000000000000000000000000000000000000006064820152fd5b509350939094915085806105a1565b959260009794919592975b86518110156109d057806109c06109cb928b6145b1565b516103f5828a6145b1565b6109a9565b50929596919490939661059c565b846040517f08c379a000000000000000000000000000000000000000000000000000000000815260206004820152602c60248201527f455243313135355061757361626c653a20746f6b656e207472616e736665722060448201527f7768696c652070617573656400000000000000000000000000000000000000006064820152fd5b50828416600052606660205260406000203360005260205261056460ff60406000205416905061055b565b346104d25760407ffffffffffffffffffffffffffffffffffffffffffffffffffffffffffffffffc3601126104d257610ac3613c8f565b610acb613cb2565b9073ffffffffffffffffffffffffffffffffffffffff809116600052606660205260406000209116600052602052602060ff604060002054166040519015158152f35b346104d25760007ffffffffffffffffffffffffffffffffffffffffffffffffffffffffffffffffc3601126104d25760206040517f65d7a28e3265b37a6474929f336521b332c1681b933f6cb9f3376673440d862a8152f35b346104d25760207ffffffffffffffffffffffffffffffffffffffffffffffffffffffffffffffffc3601126104d2576004356000526101c86020526020604060002054604051908152f35b346104d25760207ffffffffffffffffffffffffffffffffffffffffffffffffffffffffffffffffc3601126104d25760043590610bed614f9a565b50610bf6614f9a565b508160f81c9160405192610c0984613d12565b80845260208401938260f41c600f168552604081018360f01c600f1681526060820161ffff908186881c16815260808401917fffff000000000000000000000000000000000000000000000000000000000000928391828960201b16825260a0870193838a60301b16855260c08801968b73ffffffffffffffffffffffffffffffffffffffff998a8d60201c168a52019963ffffffff809c168b526040519d8e9182525160ff1690602001525160ff1660408d0152511660608b015251166080890152511660a0870152511660c085015251169082015261010090f35b346104d25760407ffffffffffffffffffffffffffffffffffffffffffffffffffffffffffffffffc3601126104d257610662600435610d23613cb2565b908060005261015f602052610d3f600160406000200154614244565b614381565b346104d25760007ffffffffffffffffffffffffffffffffffffffffffffffffffffffffffffffffc3601126104d25760206040517f9f2df0fed2c77648de5860a4cc508cd0818c85b8b8a1ab4ceeef8d981c8956a68152f35b346104d25760207ffffffffffffffffffffffffffffffffffffffffffffffffffffffffffffffffc3601126104d2576004356000526101916020526020604060002054604051908152f35b346104d25760207ffffffffffffffffffffffffffffffffffffffffffffffffffffffffffffffffc3601126104d25760043560005261012d6020526020604060002054604051908152f35b346104d2576020807ffffffffffffffffffffffffffffffffffffffffffffffffffffffffffffffffc3601126104d25760043567ffffffffffffffff81116104d257610e83903690600401613dc0565b610e8d81516144f9565b60005b8251811015610f2257610ea381846145b1565b51806000526101c7855260ff6040600020541615610ef1575080610eca610eec92856145b1565b516000526101c88552600160406000200154610ee682856145b1565b52614548565b610e90565b602490604051907f3374f12d0000000000000000000000000000000000000000000000000000000082526004820152fd5b5082610f38604051928284938452830190613e1e565b0390f35b346104d25760407ffffffffffffffffffffffffffffffffffffffffffffffffffffffffffffffffc3601126104d25760043567ffffffffffffffff8082116104d257366023830112156104d25781600401359081116104d2576024916005368484831b840101116104d257833591610fb2614f30565b610fba613f92565b60005b848110610fc657005b8581841b83010135806000526020906101c7825260ff60406000205416156110095761100492916101c8916000525284600160406000200155614548565b610fbd565b8790604051907f3374f12d0000000000000000000000000000000000000000000000000000000082526004820152fd5b346104d25760407ffffffffffffffffffffffffffffffffffffffffffffffffffffffffffffffffc3601126104d257611070613c8f565b60243580151581036104d2576106629133614772565b346104d25760007ffffffffffffffffffffffffffffffffffffffffffffffffffffffffffffffffc3601126104d257602060405160008152f35b346104d25760207ffffffffffffffffffffffffffffffffffffffffffffffffffffffffffffffffc3601126104d2576110f7614fd8565b506004356000526101c9602052610f38604060002060036040519161111b83613cf6565b8054835273ffffffffffffffffffffffffffffffffffffffff600182015416602084015260028101546040840152015460608201526040519182918291909160608060808301948051845273ffffffffffffffffffffffffffffffffffffffff6020820151166020850152604081015160408501520151910152565b346104d25760007ffffffffffffffffffffffffffffffffffffffffffffffffffffffffffffffffc3601126104d25760206101c454604051908152f35b346104d25760407ffffffffffffffffffffffffffffffffffffffffffffffffffffffffffffffffc3601126104d25761120b613cb2565b60043560005261015f60205273ffffffffffffffffffffffffffffffffffffffff60406000209116600052602052602060ff604060002054166040519015158152f35b346104d25760407ffffffffffffffffffffffffffffffffffffffffffffffffffffffffffffffffc3601126104d257600435600052610191602052602073ffffffffffffffffffffffffffffffffffffffff6112b06024356040600020614c70565b9190546040519260031b1c168152f35b346104d25760007ffffffffffffffffffffffffffffffffffffffffffffffffffffffffffffffffc3601126104d25760005460ff808260081c1615808091611952575b801561193c575b156118b8576001927fffffffffffffffffffffffffffffffffffffffffffffffffffffffffffffff0090828583831617600055611889575b5060405190606082019367ffffffffffffffff948381108682111761185a57604052602683526020947f68747470733a2f2f6e6f72692e636f6d2f6170692f72656d6f76616c2f7b6964868501527f7d2e6a736f6e000000000000000000000000000000000000000000000000000060408501526113c68260005460081c16614ea5565b835190811161185a57806113db606754613e52565b94601f958681116117eb575b50879086831160011461172f57600092611724575b50507fffffffffffffffffffffffffffffffffffffffffffffffffffffffffffffffff82891b9260031b1c1916176067555b61146a8160005460081c1661144281614ea5565b836097541660975561145381614ea5565b61145c81614ea5565b61146581614ea5565b614ea5565b6000805261015f9182865260406000203360005286528160406000205416156116d6575b60008052610191928387526114a7336040600020614c88565b507f65d7a28e3265b37a6474929f336521b332c1681b933f6cb9f3376673440d862a806000528188526040600020336000528852836040600020541615611688575b6000528387526114fd336040600020614c88565b507f9f2df0fed2c77648de5860a4cc508cd0818c85b8b8a1ab4ceeef8d981c8956a6928360005281885260406000203360005288526040600020541615611639575b50506000528352611554336040600020614c88565b5060006101c4556101c5906115698254613e52565b908082116115f0575b50507f52656d6f76616c0000000000000000000000000000000000000000000000000e905561159d57005b7f7f26b83ff96e1f2b6a682f133852f6798a09c465da95921460cefb3847402498917fffffffffffffffffffffffffffffffffffffffffffffffffffffffffffff00ff60005416600055604051908152a1005b8590836000527f818f40e4590a6f2c3ec1caee0533b9960911937d8dd67c8f1447b1392a84f253920160051c8201915b82811061162d5750611572565b60008155018590611620565b8260005286526040600020336000528652866040600020918254161790553333827f2f8788117e7eff1d82e926ec794901d17c78024a50270940304540a733656f0d6000604051a4868061153f565b806000528188526040600020336000528852604060002089848254161790553333827f2f8788117e7eff1d82e926ec794901d17c78024a50270940304540a733656f0d6000604051a46114e9565b60008052828652604060002033600052865260406000208782825416179055333360007f2f8788117e7eff1d82e926ec794901d17c78024a50270940304540a733656f0d81604051a461148e565b0151905088806113fc565b907fffffffffffffffffffffffffffffffffffffffffffffffffffffffffffffffe08a94169160676000527f9787eeb91fe3101235e4a76063c7023ecb40f923f97916639c598592fa30d6ae9260005b8b8282106117d5575050841161179e575b505050811b0160675561142e565b01517fffffffffffffffffffffffffffffffffffffffffffffffffffffffffffffffff60f88460031b161c19169055888080611790565b8385015186558d9790950194938401930161177f565b90915060676000527f9787eeb91fe3101235e4a76063c7023ecb40f923f97916639c598592fa30d6ae8680850160051c8201928a8610611851575b918b91869594930160051c01915b8281106118425750506113e7565b600081558594508b9101611834565b92508192611826565b7f4e487b7100000000000000000000000000000000000000000000000000000000600052604160045260246000fd5b7fffffffffffffffffffffffffffffffffffffffffffffffffffffffffffff0000166101011760005584611342565b60846040517f08c379a000000000000000000000000000000000000000000000000000000000815260206004820152602e60248201527f496e697469616c697a61626c653a20636f6e747261637420697320616c72656160448201527f647920696e697469616c697a65640000000000000000000000000000000000006064820152fd5b50303b15801561130a575060018284161461130a565b50600182841610611303565b346104d25760207ffffffffffffffffffffffffffffffffffffffffffffffffffffffffffffffffc3601126104d2576004356000526101c66020526020604060002054604051908152f35b346104d25760607ffffffffffffffffffffffffffffffffffffffffffffffffffffffffffffffffc3601126104d2576119e0613c8f565b60249067ffffffffffffffff9082358281116104d257611a04903690600401613dc0565b9160449081359081116104d257611a3473ffffffffffffffffffffffffffffffffffffffff913690600401613dc0565b9216923384148015611cd6575b611a4a906145c5565b8315611a568115614914565b611a638251855114614a29565b6000604051611a7181613d4b565b5260ff60975416611c5357611c1b575b60005b8151811015611b5e57611a9781836145b1565b51611aa282866145b1565b51908060005261012d602081815260406000205492848410611adc5790611ad795949392916000525203604060002055614548565b611a84565b6084827f455243313135353a206275726e20616d6f756e74206578636565647320746f748a60288f604051947f08c379a000000000000000000000000000000000000000000000000000000000865260048601528401528201527f616c537570706c790000000000000000000000000000000000000000000000006064820152fd5b83828660005b8251811015611bd35780611b7b611bce92856145b1565b51611b8682876145b1565b5190806000526065602090808252604060002087600052825260406000205492611bb28585101561499f565b6000528152604060002090866000525203604060002055614548565b611b64565b50907f4a39dc06d4c0dbc64b70af90fd698a233a518aa5d07e595d983b8c0526c8f7fb611c0a600094604051918291339583614ab4565b0390a460006040516103c881613d4b565b9260009491945b8451811015611c495780611c39611c4492866145b1565b516103f582886145b1565b611c22565b5092939093611a81565b6084867f455243313135355061757361626c653a20746f6b656e207472616e736665722085602c604051937f08c379a0000000000000000000000000000000000000000000000000000000008552602060048601528401528201527f7768696c652070617573656400000000000000000000000000000000000000006064820152fd5b50836000526066602052604060002033600052602052611a4a60ff604060002054169050611a41565b346104d25760207ffffffffffffffffffffffffffffffffffffffffffffffffffffffffffffffffc3601126104d257611d36613c8f565b611d3e613f92565b611d46614f30565b73ffffffffffffffffffffffffffffffffffffffff6101c391167fffffffffffffffffffffffff00000000000000000000000000000000000000008254161790556000604051f35b346104d25760007ffffffffffffffffffffffffffffffffffffffffffffffffffffffffffffffffc3601126104d257602060ff609754166040519015158152f35b346104d25760207ffffffffffffffffffffffffffffffffffffffffffffffffffffffffffffffffc3601126104d25760043560005261012d60205260206040600020541515604051908152f35b346104d25760407ffffffffffffffffffffffffffffffffffffffffffffffffffffffffffffffffc3601126104d25760043567ffffffffffffffff8082116104d257366023830112156104d257816004013590611e7882613da8565b92611e866040519485613d67565b82845260209260248486019160051b830101913683116104d2576024859101915b838310611fcd57505050506024359081116104d257611eca903690600401613dc0565b8251815103611f4957611edd83516144f9565b9260005b8151811015611f325780611f2373ffffffffffffffffffffffffffffffffffffffff611f10611f2d94866145b1565b5116611f1c83876145b1565b519061443b565b610ee682886145b1565b611ee1565b505050610f38604051928284938452830190613e1e565b608482604051907f08c379a00000000000000000000000000000000000000000000000000000000082526004820152602960248201527f455243313135353a206163636f756e747320616e6420696473206c656e67746860448201527f206d69736d6174636800000000000000000000000000000000000000000000006064820152fd5b8190611fd884613cd5565b8152019101908490611ea7565b346104d257602090817ffffffffffffffffffffffffffffffffffffffffffffffffffffffffffffffffc3601126104d25767ffffffffffffffff6004358181116104d257366023820112156104d2578060040135928284116104d25760249384830181840136878201116104d257849003948786126104d25760ff958661206b846151e0565b1661248e5761010080940361240b5783136104d257604051928301908111838210176123dd5760405261209d906151e0565b81526120ab604484016151e0565b93868201928584526120bf606486016151e0565b906040840191825260848601359161ffff831683036104d257606085019283526120eb60a488016151ee565b93608086019485526120ff60c489016151ee565b9660a0870197885261010461211660e48b01613cd5565b9960c089019a8b5201359a63ffffffff9a8b8d168d036104d25783600f91878b019e8f52161161238057600f8385511611612323578651838160f81c9160f01c168a51858160f81c9160f01c169160418410159384612317575b508361230b575b836122ff575b50826122f3575b826122e7575b50816122db575b816122cf575b5015612272575079ffff00000000000000000000000000000000000000000000000095937fff0000000000000000000000000000000000000000000000000000000000000077ffffffffffffffffffffffffffffffffffffffff00000000999896947bffff00000000000000000000000000000000000000000000000000009460f07dffff00000000000000000000000000000000000000000000000000000000955160041b1691511617965160f81b169351901b1692518b1c169260f01b171717915160301c16179151851b161791511617604051908152f35b8c600d606492604051927f08c379a000000000000000000000000000000000000000000000000000000000845260048401528201527f496e76616c6964204153434949000000000000000000000000000000000000006044820152fd5b605a915011158e612197565b60418110159150612191565b605a101591508f61218a565b60418110159250612184565b605a101592503861217d565b60418110159350612177565b605a1015935038612170565b8c601d606492604051927f08c379a000000000000000000000000000000000000000000000000000000000845260048401528201527f4d6574686f6c6f646f67792076657273696f6e20746f6f206c617267650000006044820152fd5b8c6015606492604051927f08c379a000000000000000000000000000000000000000000000000000000000845260048401528201527f4d6574686f6c6f646f677920746f6f206c6172676500000000000000000000006044820152fd5b867f4e487b710000000000000000000000000000000000000000000000000000000060005260416004526000fd5b608489602a8a604051927f08c379a000000000000000000000000000000000000000000000000000000000845260048401528201527f72656d6f76616c4461746120636f6e7461696e732077726f6e67206e756d626560448201527f72206f66206279746573000000000000000000000000000000000000000000006064820152fd5b60848989604051917f08c379a00000000000000000000000000000000000000000000000000000000083526004830152808201527f556e737570706f727465642072656d6f76616c20746f6b656e2069642076657260448201527f73696f6e000000000000000000000000000000000000000000000000000000006064820152fd5b346104d25760607ffffffffffffffffffffffffffffffffffffffffffffffffffffffffffffffffc3601126104d257612547613c8f565b61254f613cb2565b6044359081151582036104d25761066292612568613f92565b612570614f30565b614772565b346104d25760407ffffffffffffffffffffffffffffffffffffffffffffffffffffffffffffffffc3601126104d2576125ac613cb2565b3373ffffffffffffffffffffffffffffffffffffffff8216036125d55761066290600435614381565b60846040517f08c379a000000000000000000000000000000000000000000000000000000000815260206004820152602f60248201527f416363657373436f6e74726f6c3a2063616e206f6e6c792072656e6f756e636560448201527f20726f6c657320666f722073656c6600000000000000000000000000000000006064820152fd5b346104d25760407ffffffffffffffffffffffffffffffffffffffffffffffffffffffffffffffffc3601126104d257610662600435610191612699613cb2565b918060005261015f906020918083526126b9600160406000200154614244565b8160005280835273ffffffffffffffffffffffffffffffffffffffff604060002095169485600052835260ff6040600020541615612701575b50600052526040600020614c88565b8160005282526040600020846000528252604060002060017fffffffffffffffffffffffffffffffffffffffffffffffffffffffffffffff008254161790553384827f2f8788117e7eff1d82e926ec794901d17c78024a50270940304540a733656f0d6000604051a4856126f2565b346104d25760a07ffffffffffffffffffffffffffffffffffffffffffffffffffffffffffffffffc3601126104d2576127a7613c8f565b6127af613cb2565b9067ffffffffffffffff6044358181116104d2576127d1903690600401613dc0565b926064358281116104d2576127ea903690600401613dc0565b9160849081359081116104d257612805903690600401613f1d565b5061280e614f30565b612816613f92565b61281f85614575565b516000526101c8602052604060002054936040519460208601526020855261284685613d2f565b73ffffffffffffffffffffffffffffffffffffffff9133838316148015612aae575b612871906145c5565b61287e8751865114614a29565b8284161561288c8115614650565b60ff60975416612a2b57838316156129f1575b612987575b5060005b865181101561293e57806128bf61293992896145b1565b516128ca82886145b1565b519080600052606590816020526040600020878716600052602052826040600020546128f8828210156146db565b8260005283602052604060002089891660005260205203604060002055600052602052604060002085871660005260205261040f6040600020918254614766565b6128a8565b50610662959291604051818416918316907f4a39dc06d4c0dbc64b70af90fd698a233a518aa5d07e595d983b8c0526c8f7fb33918061297e8a8a83614ab4565b0390a433614ffd565b959290949160005b84518110156129e4576129a281866145b1565b51906129ae81886145b1565b518260005261012d60205260406000205481811061090c576129df9360005261012d60205203604060002055614548565b61298f565b50919490929550866128a4565b959392919060005b8851811015612a205780612a10612a1b92896145b1565b516103f5828c6145b1565b6129f9565b50909192939561289f565b506040517f08c379a000000000000000000000000000000000000000000000000000000000815260206004820152602c60248201527f455243313135355061757361626c653a20746f6b656e207472616e736665722060448201527f7768696c652070617573656400000000000000000000000000000000000000006064820152fd5b50828216600052606660205260406000203360005260205261287160ff604060002054169050612868565b346104d25760207ffffffffffffffffffffffffffffffffffffffffffffffffffffffffffffffffc3601126104d25760043560005261015f6020526020600160406000200154604051908152f35b346104d25760807ffffffffffffffffffffffffffffffffffffffffffffffffffffffffffffffffc3601126104d257612b5e613c8f565b67ffffffffffffffff906024358281116104d257612b80903690600401613dc0565b6044358381116104d257612b98903690600401613dc0565b906064358481116104d257612bb1903690600401613f1d565b612bb9614f30565b612bc1613f92565b825193848351036137035760a0828051810103126104d2576040519560a087019081118782101761185a57604052602082015180875260408301519081602089015260608401518060408a015260808501519773ffffffffffffffffffffffffffffffffffffffff891689036104d2578860608b015260a0860151998a15158b036104d25760808b91015282156136d2576101c454906000925b8184106135b4575050600f9150612c7188614575565b51906101c45560405193612c8485613cf6565b845273ffffffffffffffffffffffffffffffffffffffff8160201c166020850152818160f41c16604085015260f01c1660608301526000526101c960205260036060604060002092805184556001840173ffffffffffffffffffffffffffffffffffffffff6020830151167fffffffffffffffffffffffff000000000000000000000000000000000000000082541617905560408101516002850155015191015573ffffffffffffffffffffffffffffffffffffffff81161561353057612d4e8451845114614a29565b60ff609754166131e75760005b8451811015612d775780611c39612d7292866145b1565b612d5b565b509091848660005b8651811015612de15780612d96612ddc92866145b1565b51612da1828a6145b1565b516000526065602052604060002073ffffffffffffffffffffffffffffffffffffffff881660005260205261040f6040600020918254614766565b612d7f565b508594604051600073ffffffffffffffffffffffffffffffffffffffff8716917f4a39dc06d4c0dbc64b70af90fd698a233a518aa5d07e595d983b8c0526c8f7fb339180612e308a8d83614ab4565b0390a4843b6132ef575b50612e43613f92565b612e4b614f30565b3373ffffffffffffffffffffffffffffffffffffffff85161461326b5773ffffffffffffffffffffffffffffffffffffffff84166000526066602052604060002033600052602052604060002060017fffffffffffffffffffffffffffffffffffffffffffffffffffffffffffffff008254161790556040516001815233907f17307eab39ab6107e8899845ad3d59bd9653f200f220920489ca2b5937696c31602073ffffffffffffffffffffffffffffffffffffffff881692a3612f0c57005b612f14614f30565b612f1c613f92565b612f2584614575565b516000526101c86020526040600020549260405193602085015260208452612f4c84613d2f565b73ffffffffffffffffffffffffffffffffffffffff81166000526066602052604060002033600052602052612f8860ff604060002054166145c5565b612f958551845114614a29565b73ffffffffffffffffffffffffffffffffffffffff821615612fb78115614650565b60ff609754166131e7576130fb575b60005b855181101561309b5780612fe061309692886145b1565b51612feb82876145b1565b51908060005260659081602052604060002073ffffffffffffffffffffffffffffffffffffffff87166000526020528260406000205461302d828210156146db565b8260005283602052604060002073ffffffffffffffffffffffffffffffffffffffff891660005260205203604060002055600052602052604060002073ffffffffffffffffffffffffffffffffffffffff861660005260205261040f6040600020918254614766565b612fc9565b5073ffffffffffffffffffffffffffffffffffffffff610662959260405182821690838516907f4a39dc06d4c0dbc64b70af90fd698a233a518aa5d07e595d983b8c0526c8f7fb3391806130f08b8b83614ab4565b0390a4169033614ffd565b929060009492945b83518110156131dc5761311681856145b1565b519061312281886145b1565b518260005261012d602052604060002054818110613158576131539360005261012d60205203604060002055614548565b613103565b60846040517f08c379a000000000000000000000000000000000000000000000000000000000815260206004820152602860248201527f455243313135353a206275726e20616d6f756e74206578636565647320746f7460448201527f616c537570706c790000000000000000000000000000000000000000000000006064820152fd5b509092939193612fc6565b60846040517f08c379a000000000000000000000000000000000000000000000000000000000815260206004820152602c60248201527f455243313135355061757361626c653a20746f6b656e207472616e736665722060448201527f7768696c652070617573656400000000000000000000000000000000000000006064820152fd5b60846040517f08c379a000000000000000000000000000000000000000000000000000000000815260206004820152602960248201527f455243313135353a2073657474696e6720617070726f76616c2073746174757360448201527f20666f722073656c6600000000000000000000000000000000000000000000006064820152fd5b60206133a391604051809381927fbc197c810000000000000000000000000000000000000000000000000000000083523360048401526000602484015260a0604484015261337361334360a485018d613e1e565b7ffffffffffffffffffffffffffffffffffffffffffffffffffffffffffffffffc8582030160648601528a613e1e565b907ffffffffffffffffffffffffffffffffffffffffffffffffffffffffffffffffc848303016084850152613eda565b0381600073ffffffffffffffffffffffffffffffffffffffff8a165af16000918161350f575b50613440575060016133d9614841565b6308c379a0146133ef575b6106f9575b85612e3a565b6133f761485f565b8061340257506133e4565b61077e906040519182917f08c379a0000000000000000000000000000000000000000000000000000000008352602060048401526024830190613eda565b7fffffffff000000000000000000000000000000000000000000000000000000007fbc197c8100000000000000000000000000000000000000000000000000000000911603156133e9576040517f08c379a000000000000000000000000000000000000000000000000000000000815260206004820152602860248201527f455243313135353a204552433131353552656365697665722072656a6563746560448201527f6420746f6b656e730000000000000000000000000000000000000000000000006064820152608490fd5b61352991925060203d6020116108a7576108988183613d67565b90876133c9565b60846040517f08c379a000000000000000000000000000000000000000000000000000000000815260206004820152602160248201527f455243313135353a206d696e7420746f20746865207a65726f2061646472657360448201527f73000000000000000000000000000000000000000000000000000000000000006064820152fd5b90916135c0848b6145b1565b51806000526101c760205260ff604060002054166136a157806000526101c8602052856040600020556001908382604060002001556101c76020526040600020827fffffffffffffffffffffffffffffffffffffffffffffffffffffffffffffff00825416179055826000526101c66020526040600020557ffffffffffffffffffffffffffffffffffffffffffffffffffffffffffffffffe82116136725761366a910193614548565b929190612c5b565b7f4e487b7100000000000000000000000000000000000000000000000000000000600052601160045260246000fd5b602490604051907f4acb9c290000000000000000000000000000000000000000000000000000000082526004820152fd5b602483604051907fc88f99b40000000000000000000000000000000000000000000000000000000082526004820152fd5b60c46040517f616c411300000000000000000000000000000000000000000000000000000000815260406004820152600760448201527f616d6f756e747300000000000000000000000000000000000000000000000000606482015260806024820152600360848201527f696473000000000000000000000000000000000000000000000000000000000060a4820152fd5b346104d25760207ffffffffffffffffffffffffffffffffffffffffffffffffffffffffffffffffc3601126104d2576137cc614fd8565b506004356000526101c86020526040600020546000526101c9602052610f38604060002060036040519161111b83613cf6565b346104d2576020807ffffffffffffffffffffffffffffffffffffffffffffffffffffffffffffffffc3601126104d257604051906000826067549161384383613e52565b928383526001908582821691826000146138df575050600114613882575b5061386e92500383613d67565b610f38604051928284938452830190613eda565b84915060676000527f9787eeb91fe3101235e4a76063c7023ecb40f923f97916639c598592fa30d6ae906000915b8583106138c757505061386e935082010185613861565b805483890185015287945086939092019181016138b0565b7fffffffffffffffffffffffffffffffffffffffffffffffffffffffffffffff00168582015261386e95151560051b85010192508791506138619050565b346104d25760007ffffffffffffffffffffffffffffffffffffffffffffffffffffffffffffffffc3601126104d25760405160006101c5805461395f81613e52565b808552916001918083169081156139f9575060011461399d575b610f388561398981870382613d67565b604051918291602083526020830190613eda565b600090815292507f818f40e4590a6f2c3ec1caee0533b9960911937d8dd67c8f1447b1392a84f2535b8284106139e157505050810160200161398982610f38613979565b805460208587018101919091529093019281016139c6565b869550610f38969350602092506139899491507fffffffffffffffffffffffffffffffffffffffffffffffffffffffffffffff001682840152151560051b8201019293613979565b346104d25760207ffffffffffffffffffffffffffffffffffffffffffffffffffffffffffffffffc3601126104d2576004357fffffffff0000000000000000000000000000000000000000000000000000000081168091036104d257807f5a05180f0000000000000000000000000000000000000000000000000000000060209214908115613ad6575b506040519015158152f35b7f7965db0b00000000000000000000000000000000000000000000000000000000811491508115613b09575b5082613acb565b7fd9b67a2600000000000000000000000000000000000000000000000000000000811491508115613b6d575b8115613b43575b5082613b02565b7f01ffc9a70000000000000000000000000000000000000000000000000000000091501482613b3c565b7f0e89341c0000000000000000000000000000000000000000000000000000000081149150613b35565b346104d25760407ffffffffffffffffffffffffffffffffffffffffffffffffffffffffffffffffc3601126104d257613bce613c8f565b60243567ffffffffffffffff81116104d257613bee903690600401613dc0565b613bf881516144f9565b9160005b8251811015613c2c5780613c1d613c16613c2793866145b1565b518461443b565b610ee682876145b1565b613bfc565b60405160208082528190610f3890820187613e1e565b346104d25760407ffffffffffffffffffffffffffffffffffffffffffffffffffffffffffffffffc3601126104d2576020613c87613c7e613c8f565b6024359061443b565b604051908152f35b6004359073ffffffffffffffffffffffffffffffffffffffff821682036104d257565b6024359073ffffffffffffffffffffffffffffffffffffffff821682036104d257565b359073ffffffffffffffffffffffffffffffffffffffff821682036104d257565b6080810190811067ffffffffffffffff82111761185a57604052565b610100810190811067ffffffffffffffff82111761185a57604052565b6040810190811067ffffffffffffffff82111761185a57604052565b6020810190811067ffffffffffffffff82111761185a57604052565b90601f7fffffffffffffffffffffffffffffffffffffffffffffffffffffffffffffffe0910116810190811067ffffffffffffffff82111761185a57604052565b67ffffffffffffffff811161185a5760051b60200190565b81601f820112156104d257803591613dd783613da8565b92613de56040519485613d67565b808452602092838086019260051b8201019283116104d2578301905b828210613e0f575050505090565b81358152908301908301613e01565b90815180825260208080930193019160005b828110613e3e575050505090565b835185529381019392810192600101613e30565b90600182811c92168015613e9b575b6020831014613e6c57565b7f4e487b7100000000000000000000000000000000000000000000000000000000600052602260045260246000fd5b91607f1691613e61565b918091926000905b828210613ec5575011613ebe575050565b6000910152565b91508060209183015181860152018291613ead565b907fffffffffffffffffffffffffffffffffffffffffffffffffffffffffffffffe0601f602093613f1681518092818752878088019101613ea5565b0116010190565b81601f820112156104d25780359067ffffffffffffffff821161185a5760405192613f7060207fffffffffffffffffffffffffffffffffffffffffffffffffffffffffffffffe0601f8601160185613d67565b828452602083830101116104d257816000926020809301838601378301015290565b3360009081527f213cbec2b438e27569ac0cf67d4573025a7224c5c7e3037a3c891b910e08dc68602090815260408083205490929060ff1615613fd457505050565b613fdd33614aea565b9080845190613feb82613cf6565b6042825284820192606036853782511561421757603084538251906001918210156142175790607860218501536041915b81831161414c575050506140f057604861077e9386936140ba936140ab98519889937f416363657373436f6e74726f6c3a206163636f756e74200000000000000000008a860152614076815180928c603789019101613ea5565b8401917f206973206d697373696e6720726f6c6520000000000000000000000000000000603784015251809386840190613ea5565b01036028810187520185613d67565b519283927f08c379a000000000000000000000000000000000000000000000000000000000845260048401526024830190613eda565b6064848651907f08c379a000000000000000000000000000000000000000000000000000000000825280600483015260248201527f537472696e67733a20686578206c656e67746820696e73756666696369656e746044820152fd5b909192600f811660108110156141ea577f3031323334353637383961626364656600000000000000000000000000000000901a6141898587614ad9565b5360041c9280156141bd577fffffffffffffffffffffffffffffffffffffffffffffffffffffffffffffffff01919061401c565b6024827f4e487b710000000000000000000000000000000000000000000000000000000081526011600452fd5b6024837f4e487b710000000000000000000000000000000000000000000000000000000081526032600452fd5b807f4e487b7100000000000000000000000000000000000000000000000000000000602492526032600452fd5b60009080825260209061015f8252604092838120338252835260ff84822054161561426f5750505050565b61427833614aea565b9184519061428582613cf6565b6042825284820192606036853782511561421757603084538251906001918210156142175790607860218501536041915b818311614310575050506140f057604861077e9386936140ba936140ab98519889937f416363657373436f6e74726f6c3a206163636f756e74200000000000000000008a860152614076815180928c603789019101613ea5565b909192600f811660108110156141ea577f3031323334353637383961626364656600000000000000000000000000000000901a61434d8587614ad9565b5360041c9280156141bd577fffffffffffffffffffffffffffffffffffffffffffffffffffffffffffffffff0191906142b6565b906143d291600081815261015f918260205260409273ffffffffffffffffffffffffffffffffffffffff84842095169485845260205260ff84842054166143d5575b50815261019160205220614d4b565b50565b8183526020528282208483526020528282207fffffffffffffffffffffffffffffffffffffffffffffffffffffffffffffff0081541690553384827ff6391f5c32d9c69d2a47ea670b442974b53935d1edc7fd64eb21e047a839171b858751a4386143c3565b73ffffffffffffffffffffffffffffffffffffffff1690811561447557600052606560205260406000209060005260205260406000205490565b60846040517f08c379a000000000000000000000000000000000000000000000000000000000815260206004820152602a60248201527f455243313135353a2061646472657373207a65726f206973206e6f742061207660448201527f616c6964206f776e6572000000000000000000000000000000000000000000006064820152fd5b9061450382613da8565b6145106040519182613d67565b8281527fffffffffffffffffffffffffffffffffffffffffffffffffffffffffffffffe061453e8294613da8565b0190602036910137565b7fffffffffffffffffffffffffffffffffffffffffffffffffffffffffffffffff81146136725760010190565b8051156145825760200190565b7f4e487b7100000000000000000000000000000000000000000000000000000000600052603260045260246000fd5b80518210156145825760209160051b010190565b156145cc57565b60846040517f08c379a000000000000000000000000000000000000000000000000000000000815260206004820152602f60248201527f455243313135353a2063616c6c6572206973206e6f7420746f6b656e206f776e60448201527f6572206e6f7220617070726f76656400000000000000000000000000000000006064820152fd5b1561465757565b60846040517f08c379a000000000000000000000000000000000000000000000000000000000815260206004820152602560248201527f455243313135353a207472616e7366657220746f20746865207a65726f20616460448201527f64726573730000000000000000000000000000000000000000000000000000006064820152fd5b156146e257565b60846040517f08c379a000000000000000000000000000000000000000000000000000000000815260206004820152602a60248201527f455243313135353a20696e73756666696369656e742062616c616e636520666f60448201527f72207472616e73666572000000000000000000000000000000000000000000006064820152fd5b81198111613672570190565b73ffffffffffffffffffffffffffffffffffffffff9182169291169081831461326b5760207f17307eab39ab6107e8899845ad3d59bd9653f200f220920489ca2b5937696c3191836000526066825260406000208560005282526040600020901515907fffffffffffffffffffffffffffffffffffffffffffffffffffffffffffffff0081541660ff8316179055604051908152a3565b908160209103126104d257517fffffffff00000000000000000000000000000000000000000000000000000000811681036104d25790565b60009060033d1161484e57565b905060046000803e60005160e01c90565b600060443d106148db576040517ffffffffffffffffffffffffffffffffffffffffffffffffffffffffffffffffc91823d016004833e815167ffffffffffffffff918282113d6024840111176148de578184019485519384116148e6573d850101602084870101116148de57506148db92910160200190613d67565b90565b949350505050565b50949350505050565b604051906148fc82613d2f565b60018252602082016020368237825115614582575290565b1561491b57565b60846040517f08c379a000000000000000000000000000000000000000000000000000000000815260206004820152602360248201527f455243313135353a206275726e2066726f6d20746865207a65726f206164647260448201527f65737300000000000000000000000000000000000000000000000000000000006064820152fd5b156149a657565b60846040517f08c379a0000000000000000000000000000000000000000000000000000000008152602060048201526024808201527f455243313135353a206275726e20616d6f756e7420657863656564732062616c60448201527f616e6365000000000000000000000000000000000000000000000000000000006064820152fd5b15614a3057565b60846040517f08c379a000000000000000000000000000000000000000000000000000000000815260206004820152602860248201527f455243313135353a2069647320616e6420616d6f756e7473206c656e6774682060448201527f6d69736d617463680000000000000000000000000000000000000000000000006064820152fd5b9091614acb6148db93604084526040840190613e1e565b916020818403910152613e1e565b908151811015614582570160200190565b604051906060820182811067ffffffffffffffff82111761185a57604052602a82526020820160403682378251156145825760309053815160019081101561458257607860218401536029905b808211614ba5575050614b475790565b60646040517f08c379a000000000000000000000000000000000000000000000000000000000815260206004820152602060248201527f537472696e67733a20686578206c656e67746820696e73756666696369656e746044820152fd5b9091600f81166010811015614c42577f3031323334353637383961626364656600000000000000000000000000000000901a614be18486614ad9565b5360041c918015614c14577fffffffffffffffffffffffffffffffffffffffffffffffffffffffffffffffff0190614b37565b602460007f4e487b710000000000000000000000000000000000000000000000000000000081526011600452fd5b602460007f4e487b710000000000000000000000000000000000000000000000000000000081526032600452fd5b80548210156145825760005260206000200190600090565b91906001830160009082825280602052604082205415600014614d455784549468010000000000000000861015614d185783614d08614cd1886001604098999a01855584614c70565b819391549060031b7fffffffffffffffffffffffffffffffffffffffffffffffffffffffffffffffff811b9283911b169119161790565b9055549382526020522055600190565b6024837f4e487b710000000000000000000000000000000000000000000000000000000081526041600452fd5b50925050565b90600182019060009281845282602052604084205490811515600014614e9e5760018210614e71577fffffffffffffffffffffffffffffffffffffffffffffffffffffffffffffffff91828101825460018110614e4457840190808203614e0f575b50505080548015614de257820191614dc58383614c70565b909182549160031b1b191690555582526020526040812055600190565b6024867f4e487b710000000000000000000000000000000000000000000000000000000081526031600452fd5b614e2f614e1f614cd19386614c70565b90549060031b1c92839286614c70565b90558652846020526040862055388080614dad565b6024887f4e487b710000000000000000000000000000000000000000000000000000000081526011600452fd5b6024857f4e487b710000000000000000000000000000000000000000000000000000000081526011600452fd5b5050505090565b15614eac57565b60846040517f08c379a000000000000000000000000000000000000000000000000000000000815260206004820152602b60248201527f496e697469616c697a61626c653a20636f6e7472616374206973206e6f74206960448201527f6e697469616c697a696e670000000000000000000000000000000000000000006064820152fd5b60ff60975416614f3c57565b60646040517f08c379a000000000000000000000000000000000000000000000000000000000815260206004820152601060248201527f5061757361626c653a20706175736564000000000000000000000000000000006044820152fd5b60405190614fa782613d12565b8160e06000918281528260208201528260408201528260608201528260808201528260a08201528260c08201520152565b60405190614fe582613cf6565b60006060838281528260208201528260408201520152565b949392919091813b615012575b505050505050565b60006150b893615087926150c7602097604051998a98899788957fbc197c81000000000000000000000000000000000000000000000000000000009e8f885273ffffffffffffffffffffffffffffffffffffffff988980921660048a015216602488015260a0604488015260a4870190613e1e565b7ffffffffffffffffffffffffffffffffffffffffffffffffffffffffffffffffc9384878303016064880152613e1e565b91848303016084850152613eda565b0393165af1600091816151c0575b5061511457505060016150e6614841565b6308c379a014615101575b6106f9575b38808080808061500a565b61510961485f565b8061340257506150f1565b7fffffffff0000000000000000000000000000000000000000000000000000000016146150f6576040517f08c379a000000000000000000000000000000000000000000000000000000000815260206004820152602860248201527f455243313135353a204552433131353552656365697665722072656a6563746560448201527f6420746f6b656e730000000000000000000000000000000000000000000000006064820152608490fd5b6151d991925060203d81116108a7576108988183613d67565b90386150d5565b359060ff821682036104d257565b35907fffff000000000000000000000000000000000000000000000000000000000000821682036104d25756fea2646970667358221220adfef5d63479ae620b1576ab4a56fe5e750f5a1f386ca550000a30c7254fe35164736f6c634300080f0033",
  "linkReferences": {},
  "deployedLinkReferences": {}
}