{
  "_format": "hh-sol-artifact-1",
  "contractName": "Removal",
  "sourceName": "contracts/Removal.sol",
  "abi": [
    {
      "anonymous": false,
      "inputs": [
        {
          "indexed": true,
          "internalType": "address",
          "name": "account",
          "type": "address"
        },
        {
          "indexed": true,
          "internalType": "address",
          "name": "operator",
          "type": "address"
        },
        {
          "indexed": false,
          "internalType": "bool",
          "name": "approved",
          "type": "bool"
        }
      ],
      "name": "ApprovalForAll",
      "type": "event"
    },
    {
      "anonymous": false,
      "inputs": [
        {
          "indexed": false,
          "internalType": "address",
          "name": "account",
          "type": "address"
        }
      ],
      "name": "Paused",
      "type": "event"
    },
    {
      "anonymous": false,
      "inputs": [
        {
          "indexed": true,
          "internalType": "bytes32",
          "name": "role",
          "type": "bytes32"
        },
        {
          "indexed": true,
          "internalType": "bytes32",
          "name": "previousAdminRole",
          "type": "bytes32"
        },
        {
          "indexed": true,
          "internalType": "bytes32",
          "name": "newAdminRole",
          "type": "bytes32"
        }
      ],
      "name": "RoleAdminChanged",
      "type": "event"
    },
    {
      "anonymous": false,
      "inputs": [
        {
          "indexed": true,
          "internalType": "bytes32",
          "name": "role",
          "type": "bytes32"
        },
        {
          "indexed": true,
          "internalType": "address",
          "name": "account",
          "type": "address"
        },
        {
          "indexed": true,
          "internalType": "address",
          "name": "sender",
          "type": "address"
        }
      ],
      "name": "RoleGranted",
      "type": "event"
    },
    {
      "anonymous": false,
      "inputs": [
        {
          "indexed": true,
          "internalType": "bytes32",
          "name": "role",
          "type": "bytes32"
        },
        {
          "indexed": true,
          "internalType": "address",
          "name": "account",
          "type": "address"
        },
        {
          "indexed": true,
          "internalType": "address",
          "name": "sender",
          "type": "address"
        }
      ],
      "name": "RoleRevoked",
      "type": "event"
    },
    {
      "anonymous": false,
      "inputs": [
        {
          "indexed": true,
          "internalType": "address",
          "name": "operator",
          "type": "address"
        },
        {
          "indexed": true,
          "internalType": "address",
          "name": "from",
          "type": "address"
        },
        {
          "indexed": true,
          "internalType": "address",
          "name": "to",
          "type": "address"
        },
        {
          "indexed": false,
          "internalType": "uint256[]",
          "name": "ids",
          "type": "uint256[]"
        },
        {
          "indexed": false,
          "internalType": "uint256[]",
          "name": "values",
          "type": "uint256[]"
        }
      ],
      "name": "TransferBatch",
      "type": "event"
    },
    {
      "anonymous": false,
      "inputs": [
        {
          "indexed": true,
          "internalType": "address",
          "name": "operator",
          "type": "address"
        },
        {
          "indexed": true,
          "internalType": "address",
          "name": "from",
          "type": "address"
        },
        {
          "indexed": true,
          "internalType": "address",
          "name": "to",
          "type": "address"
        },
        {
          "indexed": false,
          "internalType": "uint256",
          "name": "id",
          "type": "uint256"
        },
        {
          "indexed": false,
          "internalType": "uint256",
          "name": "value",
          "type": "uint256"
        }
      ],
      "name": "TransferSingle",
      "type": "event"
    },
    {
      "anonymous": false,
      "inputs": [
        {
          "indexed": false,
          "internalType": "string",
          "name": "value",
          "type": "string"
        },
        {
          "indexed": true,
          "internalType": "uint256",
          "name": "id",
          "type": "uint256"
        }
      ],
      "name": "URI",
      "type": "event"
    },
    {
      "anonymous": false,
      "inputs": [
        {
          "indexed": false,
          "internalType": "address",
          "name": "account",
          "type": "address"
        }
      ],
      "name": "Unpaused",
      "type": "event"
    },
    {
      "inputs": [],
      "name": "DEFAULT_ADMIN_ROLE",
      "outputs": [
        {
          "internalType": "bytes32",
          "name": "",
          "type": "bytes32"
        }
      ],
      "stateMutability": "view",
      "type": "function"
    },
    {
      "inputs": [],
      "name": "MINTER_ROLE",
      "outputs": [
        {
          "internalType": "bytes32",
          "name": "",
          "type": "bytes32"
        }
      ],
      "stateMutability": "view",
      "type": "function"
    },
    {
      "inputs": [],
      "name": "PAUSER_ROLE",
      "outputs": [
        {
          "internalType": "bytes32",
          "name": "",
          "type": "bytes32"
        }
      ],
      "stateMutability": "view",
      "type": "function"
    },
    {
      "inputs": [
        {
          "internalType": "address",
          "name": "account",
          "type": "address"
        },
        {
          "internalType": "uint256",
          "name": "id",
          "type": "uint256"
        }
      ],
      "name": "balanceOf",
      "outputs": [
        {
          "internalType": "uint256",
          "name": "",
          "type": "uint256"
        }
      ],
      "stateMutability": "view",
      "type": "function"
    },
    {
      "inputs": [
        {
          "internalType": "address[]",
          "name": "accounts",
          "type": "address[]"
        },
        {
          "internalType": "uint256[]",
          "name": "ids",
          "type": "uint256[]"
        }
      ],
      "name": "balanceOfBatch",
      "outputs": [
        {
          "internalType": "uint256[]",
          "name": "",
          "type": "uint256[]"
        }
      ],
      "stateMutability": "view",
      "type": "function"
    },
    {
      "inputs": [
        {
          "internalType": "address",
          "name": "account",
          "type": "address"
        },
        {
          "internalType": "uint256",
          "name": "id",
          "type": "uint256"
        },
        {
          "internalType": "uint256",
          "name": "value",
          "type": "uint256"
        }
      ],
      "name": "burn",
      "outputs": [],
      "stateMutability": "nonpayable",
      "type": "function"
    },
    {
      "inputs": [
        {
          "internalType": "address",
          "name": "account",
          "type": "address"
        },
        {
          "internalType": "uint256[]",
          "name": "ids",
          "type": "uint256[]"
        },
        {
          "internalType": "uint256[]",
          "name": "values",
          "type": "uint256[]"
        }
      ],
      "name": "burnBatch",
      "outputs": [],
      "stateMutability": "nonpayable",
      "type": "function"
    },
    {
      "inputs": [
        {
          "internalType": "uint256",
          "name": "id",
          "type": "uint256"
        }
      ],
      "name": "exists",
      "outputs": [
        {
          "internalType": "bool",
          "name": "",
          "type": "bool"
        }
      ],
      "stateMutability": "view",
      "type": "function"
    },
    {
      "inputs": [
        {
          "internalType": "bytes32",
          "name": "role",
          "type": "bytes32"
        }
      ],
      "name": "getRoleAdmin",
      "outputs": [
        {
          "internalType": "bytes32",
          "name": "",
          "type": "bytes32"
        }
      ],
      "stateMutability": "view",
      "type": "function"
    },
    {
      "inputs": [
        {
          "internalType": "bytes32",
          "name": "role",
          "type": "bytes32"
        },
        {
          "internalType": "uint256",
          "name": "index",
          "type": "uint256"
        }
      ],
      "name": "getRoleMember",
      "outputs": [
        {
          "internalType": "address",
          "name": "",
          "type": "address"
        }
      ],
      "stateMutability": "view",
      "type": "function"
    },
    {
      "inputs": [
        {
          "internalType": "bytes32",
          "name": "role",
          "type": "bytes32"
        }
      ],
      "name": "getRoleMemberCount",
      "outputs": [
        {
          "internalType": "uint256",
          "name": "",
          "type": "uint256"
        }
      ],
      "stateMutability": "view",
      "type": "function"
    },
    {
      "inputs": [
        {
          "internalType": "bytes32",
          "name": "role",
          "type": "bytes32"
        },
        {
          "internalType": "address",
          "name": "account",
          "type": "address"
        }
      ],
      "name": "grantRole",
      "outputs": [],
      "stateMutability": "nonpayable",
      "type": "function"
    },
    {
      "inputs": [
        {
          "internalType": "bytes32",
          "name": "role",
          "type": "bytes32"
        },
        {
          "internalType": "address",
          "name": "account",
          "type": "address"
        }
      ],
      "name": "hasRole",
      "outputs": [
        {
          "internalType": "bool",
          "name": "",
          "type": "bool"
        }
      ],
      "stateMutability": "view",
      "type": "function"
    },
    {
      "inputs": [],
      "name": "initialize",
      "outputs": [],
      "stateMutability": "nonpayable",
      "type": "function"
    },
    {
      "inputs": [
        {
          "internalType": "string",
          "name": "uri",
          "type": "string"
        }
      ],
      "name": "initialize",
      "outputs": [],
      "stateMutability": "nonpayable",
      "type": "function"
    },
    {
      "inputs": [
        {
          "internalType": "address",
          "name": "account",
          "type": "address"
        },
        {
          "internalType": "address",
          "name": "operator",
          "type": "address"
        }
      ],
      "name": "isApprovedForAll",
      "outputs": [
        {
          "internalType": "bool",
          "name": "",
          "type": "bool"
        }
      ],
      "stateMutability": "view",
      "type": "function"
    },
    {
      "inputs": [
        {
          "internalType": "address",
          "name": "to",
          "type": "address"
        },
        {
          "internalType": "uint256",
          "name": "id",
          "type": "uint256"
        },
        {
          "internalType": "uint256",
          "name": "amount",
          "type": "uint256"
        },
        {
          "internalType": "bytes",
          "name": "data",
          "type": "bytes"
        }
      ],
      "name": "mint",
      "outputs": [],
      "stateMutability": "nonpayable",
      "type": "function"
    },
    {
      "inputs": [
        {
          "internalType": "address",
          "name": "to",
          "type": "address"
        },
        {
          "internalType": "uint256[]",
          "name": "amounts",
          "type": "uint256[]"
        },
        {
          "internalType": "uint256[]",
          "name": "vintages",
          "type": "uint256[]"
        },
        {
          "internalType": "bytes",
          "name": "data",
          "type": "bytes"
        }
      ],
      "name": "mintBatch",
      "outputs": [],
      "stateMutability": "nonpayable",
      "type": "function"
    },
    {
      "inputs": [],
      "name": "name",
      "outputs": [
        {
          "internalType": "string",
          "name": "",
          "type": "string"
        }
      ],
      "stateMutability": "view",
      "type": "function"
    },
    {
      "inputs": [],
      "name": "pause",
      "outputs": [],
      "stateMutability": "nonpayable",
      "type": "function"
    },
    {
      "inputs": [],
      "name": "paused",
      "outputs": [
        {
          "internalType": "bool",
          "name": "",
          "type": "bool"
        }
      ],
      "stateMutability": "view",
      "type": "function"
    },
    {
      "inputs": [
        {
          "internalType": "bytes32",
          "name": "role",
          "type": "bytes32"
        },
        {
          "internalType": "address",
          "name": "account",
          "type": "address"
        }
      ],
      "name": "renounceRole",
      "outputs": [],
      "stateMutability": "nonpayable",
      "type": "function"
    },
    {
      "inputs": [
        {
          "internalType": "bytes32",
          "name": "role",
          "type": "bytes32"
        },
        {
          "internalType": "address",
          "name": "account",
          "type": "address"
        }
      ],
      "name": "revokeRole",
      "outputs": [],
      "stateMutability": "nonpayable",
      "type": "function"
    },
    {
      "inputs": [
        {
          "internalType": "address",
          "name": "_from",
          "type": "address"
        },
        {
          "internalType": "address",
          "name": "_to",
          "type": "address"
        },
        {
          "internalType": "uint256[]",
          "name": "_ids",
          "type": "uint256[]"
        },
        {
          "internalType": "uint256[]",
          "name": "_amounts",
          "type": "uint256[]"
        },
        {
          "internalType": "bytes",
          "name": "_data",
          "type": "bytes"
        }
      ],
      "name": "safeBatchTransferFrom",
      "outputs": [],
      "stateMutability": "nonpayable",
      "type": "function"
    },
    {
      "inputs": [
        {
          "internalType": "address",
          "name": "from",
          "type": "address"
        },
        {
          "internalType": "address",
          "name": "to",
          "type": "address"
        },
        {
          "internalType": "uint256",
          "name": "id",
          "type": "uint256"
        },
        {
          "internalType": "uint256",
          "name": "amount",
          "type": "uint256"
        },
        {
          "internalType": "bytes",
          "name": "data",
          "type": "bytes"
        }
      ],
      "name": "safeTransferFrom",
      "outputs": [],
      "stateMutability": "nonpayable",
      "type": "function"
    },
    {
      "inputs": [
        {
          "internalType": "address",
          "name": "operator",
          "type": "address"
        },
        {
          "internalType": "bool",
          "name": "approved",
          "type": "bool"
        }
      ],
      "name": "setApprovalForAll",
      "outputs": [],
      "stateMutability": "nonpayable",
      "type": "function"
    },
    {
      "inputs": [
        {
          "internalType": "address",
          "name": "owner",
          "type": "address"
        },
        {
          "internalType": "address",
          "name": "operator",
          "type": "address"
        },
        {
          "internalType": "bool",
          "name": "approved",
          "type": "bool"
        }
      ],
      "name": "setApprovalForAllAsAdmin",
      "outputs": [],
      "stateMutability": "nonpayable",
      "type": "function"
    },
    {
      "inputs": [
        {
          "internalType": "bytes4",
          "name": "interfaceId",
          "type": "bytes4"
        }
      ],
      "name": "supportsInterface",
      "outputs": [
        {
          "internalType": "bool",
          "name": "",
          "type": "bool"
        }
      ],
      "stateMutability": "view",
      "type": "function"
    },
    {
      "inputs": [
        {
          "internalType": "bytes32[]",
          "name": "parcelIdentifiers",
          "type": "bytes32[]"
        },
        {
          "internalType": "uint256[]",
          "name": "removalVintages",
          "type": "uint256[]"
        }
      ],
      "name": "tokenIdsForRemovals",
      "outputs": [
        {
          "internalType": "uint256[]",
          "name": "",
          "type": "uint256[]"
        }
      ],
      "stateMutability": "view",
      "type": "function"
    },
    {
      "inputs": [
        {
          "internalType": "uint256",
          "name": "id",
          "type": "uint256"
        }
      ],
      "name": "totalSupply",
      "outputs": [
        {
          "internalType": "uint256",
          "name": "",
          "type": "uint256"
        }
      ],
      "stateMutability": "view",
      "type": "function"
    },
    {
      "inputs": [],
      "name": "unpause",
      "outputs": [],
      "stateMutability": "nonpayable",
      "type": "function"
    },
    {
      "inputs": [
        {
          "internalType": "uint256",
          "name": "",
          "type": "uint256"
        }
      ],
      "name": "uri",
      "outputs": [
        {
          "internalType": "string",
          "name": "",
          "type": "string"
        }
      ],
      "stateMutability": "view",
      "type": "function"
    },
    {
      "inputs": [
        {
          "internalType": "uint256",
          "name": "removalId",
          "type": "uint256"
        }
      ],
      "name": "vintage",
      "outputs": [
        {
          "components": [
            {
              "internalType": "address",
              "name": "supplier",
              "type": "address"
            },
            {
              "internalType": "uint16",
              "name": "vintage",
              "type": "uint16"
            },
            {
              "internalType": "bytes32",
              "name": "uniqueId",
              "type": "bytes32"
            }
          ],
          "internalType": "struct Removal.Vintage",
          "name": "",
          "type": "tuple"
        }
      ],
      "stateMutability": "view",
      "type": "function"
    }
  ],
  "bytecode": "0x608060405234801561001057600080fd5b50613561806100206000396000f3fe608060405234801561001057600080fd5b50600436106101fa5760003560e01c8063731133e91161011a578063bd85b039116100ad578063e63ab1e91161007c578063e63ab1e9146104e2578063e985e9c5146104f7578063f242432a14610533578063f5298aca14610546578063f62d18881461055957600080fd5b8063bd85b03914610486578063ca15c873146104a7578063d5391393146104ba578063d547741f146104cf57600080fd5b80639010d07c116100e95780639010d07c1461042d57806391d1485414610458578063a217fddf1461046b578063a22cb4651461047357600080fd5b8063731133e914610371578063737fa589146103845780638129fc1c1461041d5780638456cb591461042557600080fd5b806336568abe116101925780635948525e116101615780635948525e1461032c5780635abec0b51461033f5780635c975abb146103525780636b20c4541461035e57600080fd5b806336568abe146102ce5780633f4ba83a146102e15780634e1273f4146102e95780634f558e791461030957600080fd5b80631f7fdffa116101ce5780631f7fdffa14610270578063248a9ca3146102855780632eb2c2d6146102a85780632f2ff15d146102bb57600080fd5b8062fdd58e146101ff57806301ffc9a71461022557806306fdde03146102485780630e89341c1461025d575b600080fd5b61021261020d366004612676565b61056c565b6040519081526020015b60405180910390f35b6102386102333660046126b8565b610608565b604051901515815260200161021c565b610250610613565b60405161021c919061272d565b61025061026b366004612740565b6106a2565b61028361027e3660046128ac565b610736565b005b610212610293366004612740565b60009081526065602052604090206001015490565b6102836102b6366004612946565b610966565b6102836102c93660046129f3565b61097a565b6102836102dc3660046129f3565b6109a5565b610283610a23565b6102fc6102f7366004612a23565b610ab7565b60405161021c9190612b2a565b610238610317366004612740565b60009081526101c36020526040902054151590565b6102fc61033a366004612b3d565b610be0565b61028361034d366004612be1565b610cdc565b61012d5460ff16610238565b61028361036c366004612c2c565b610cf9565b61028361037f366004612ca1565b610d3c565b6103ee610392366004612740565b6040805160608082018352600080835260208084018290529284018190529384526101f58252928290208251938401835280546001600160a01b0381168552600160a01b900461ffff1691840191909152600101549082015290565b6040805182516001600160a01b0316815260208084015161ffff1690820152918101519082015260600161021c565b610283610d7c565b610283610e4d565b61044061043b366004612cf7565b610edf565b6040516001600160a01b03909116815260200161021c565b6102386104663660046129f3565b610efe565b610212600081565b610283610481366004612d19565b610f29565b610212610494366004612740565b60009081526101c3602052604090205490565b6102126104b5366004612740565b610f34565b6102126000805160206134e683398151915281565b6102836104dd3660046129f3565b610f4b565b6102126000805160206134c683398151915281565b610238610505366004612d47565b6001600160a01b03918216600090815260ca6020908152604080832093909416825291909152205460ff1690565b610283610541366004612d75565b610f71565b610283610554366004612ddd565b610fb6565b610283610567366004612e12565b610ff9565b60006001600160a01b0383166105dd5760405162461bcd60e51b815260206004820152602b60248201527f455243313135353a2062616c616e636520717565727920666f7220746865207a60448201526a65726f206164647265737360a81b60648201526084015b60405180910390fd5b50600081815260c9602090815260408083206001600160a01b03861684529091529020545b92915050565b600061060282611074565b6101f8805461062190612e62565b80601f016020809104026020016040519081016040528092919081815260200182805461064d90612e62565b801561069a5780601f1061066f5761010080835404028352916020019161069a565b820191906000526020600020905b81548152906001019060200180831161067d57829003601f168201915b505050505081565b606060cb80546106b190612e62565b80601f01602080910402602001604051908101604052809291908181526020018280546106dd90612e62565b801561072a5780601f106106ff5761010080835404028352916020019161072a565b820191906000526020600020905b81548152906001019060200180831161070d57829003601f168201915b50505050509050919050565b60008060008380602001905181019061074f9190612e9d565b925092509250600085516001600160401b0381111561077057610770612759565b604051908082528060200260200182016040528015610799578160200160208202803683370190505b50905060005b86518110156108f9576000848883815181106107bd576107bd612ed5565b60200260200101516040516020016107df929190918252602082015260400190565b604051602081830303815290604052805190602001209050816101f7546108069190612f01565b83838151811061081857610818612ed5565b60200260200101818152505060405180606001604052808b6001600160a01b0316815260200189848151811061085057610850612ed5565b602002602001015161ffff168152602001828152506101f56000846101f7546108799190612f01565b81526020808201929092526040908101600020835181549385015161ffff16600160a01b026001600160b01b03199094166001600160a01b039091161792909217825591909101516001909101556101f7546108d6908390612f01565b60009182526101f6602052604090912055806108f181612f19565b91505061079f565b5080600182516109099190612f34565b8151811061091957610919612ed5565b6020026020010151600161092d9190612f01565b6101f75561093d8882898861107f565b61094988336001610cdc565b811561095c5761095c8885838a896110bf565b5050505050505050565b61097385858585856110bf565b5050505050565b600082815260656020526040902060010154610996813361114f565b6109a083836111b3565b505050565b6001600160a01b0381163314610a155760405162461bcd60e51b815260206004820152602f60248201527f416363657373436f6e74726f6c3a2063616e206f6e6c792072656e6f756e636560448201526e103937b632b9903337b91039b2b63360891b60648201526084016105d4565b610a1f82826111d5565b5050565b610a3b6000805160206134c683398151915233610efe565b610aad5760405162461bcd60e51b815260206004820152603b60248201527f455243313135355072657365744d696e7465725061757365723a206d7573742060448201527f686176652070617573657220726f6c6520746f20756e7061757365000000000060648201526084016105d4565b610ab56111f7565b565b60608151835114610b1c5760405162461bcd60e51b815260206004820152602960248201527f455243313135353a206163636f756e747320616e6420696473206c656e677468604482015268040dad2e6dac2e8c6d60bb1b60648201526084016105d4565b600083516001600160401b03811115610b3757610b37612759565b604051908082528060200260200182016040528015610b60578160200160208202803683370190505b50905060005b8451811015610bd857610bab858281518110610b8457610b84612ed5565b6020026020010151858381518110610b9e57610b9e612ed5565b602002602001015161056c565b828281518110610bbd57610bbd612ed5565b6020908102919091010152610bd181612f19565b9050610b66565b509392505050565b6060600082516001600160401b03811115610bfd57610bfd612759565b604051908082528060200260200182016040528015610c26578160200160208202803683370190505b50905060005b8351811015610bd8576101f66000868381518110610c4c57610c4c612ed5565b6020026020010151868481518110610c6657610c66612ed5565b6020026020010151604051602001610c88929190918252602082015260400190565b60405160208183030381529060405280519060200120815260200190815260200160002054828281518110610cbf57610cbf612ed5565b602090810291909101015280610cd481612f19565b915050610c2c565b6000610ce8813361114f565b610cf384848461128c565b50505050565b6001600160a01b038316331480610d155750610d158333610505565b610d315760405162461bcd60e51b81526004016105d490612f4b565b6109a083838361136d565b610d546000805160206134e683398151915233610efe565b610d705760405162461bcd60e51b81526004016105d490612f94565b610cf3848484846114fe565b600054610100900460ff16610d975760005460ff1615610d9b565b303b155b610db75760405162461bcd60e51b81526004016105d490612ff1565b600054610100900460ff16158015610dd9576000805461ffff19166101011790555b610dfa60405180606001604052806026815260200161350660269139610ff9565b610e026115d6565b60006101f7556040805180820190915260078082526614995b5bdd985b60ca1b6020909201918252610e37916101f8916125c8565b508015610e4a576000805461ff00191690555b50565b610e656000805160206134c683398151915233610efe565b610ed75760405162461bcd60e51b815260206004820152603960248201527f455243313135355072657365744d696e7465725061757365723a206d7573742060448201527f686176652070617573657220726f6c6520746f2070617573650000000000000060648201526084016105d4565b610ab56115fd565b6000828152609760205260408120610ef7908361167a565b9392505050565b60009182526065602090815260408084206001600160a01b0393909316845291905290205460ff1690565b610a1f33838361128c565b600081815260976020526040812061060290611686565b600082815260656020526040902060010154610f67813361114f565b6109a083836111d5565b6001600160a01b038516331480610f8d5750610f8d8533610505565b610fa95760405162461bcd60e51b81526004016105d490612f4b565b6109738585858585611690565b6001600160a01b038316331480610fd25750610fd28333610505565b610fee5760405162461bcd60e51b81526004016105d490612f4b565b6109a08383836117b1565b600054610100900460ff166110145760005460ff1615611018565b303b155b6110345760405162461bcd60e51b81526004016105d490612ff1565b600054610100900460ff16158015611056576000805461ffff19166101011790555b61105f826118b6565b8015610a1f576000805461ff00191690555050565b600061060282611927565b6110976000805160206134e683398151915233610efe565b6110b35760405162461bcd60e51b81526004016105d490612f94565b610cf384848484611967565b6001600160a01b0385163314806110db57506110db8533610505565b6111425760405162461bcd60e51b815260206004820152603260248201527f455243313135353a207472616e736665722063616c6c6572206973206e6f74206044820152711bdddb995c881b9bdc88185c1c1c9bdd995960721b60648201526084016105d4565b6109738585858585611ac2565b6111598282610efe565b610a1f57611171816001600160a01b03166014611c6f565b61117c836020611c6f565b60405160200161118d92919061303f565b60408051601f198184030181529082905262461bcd60e51b82526105d49160040161272d565b6111bd8282611e0a565b60008281526097602052604090206109a09082611e90565b6111df8282611ea5565b60008281526097602052604090206109a09082611f0c565b61012d5460ff166112415760405162461bcd60e51b815260206004820152601460248201527314185d5cd8589b194e881b9bdd081c185d5cd95960621b60448201526064016105d4565b61012d805460ff191690557f5db9ee0a495bf2e6ff9c91a7834c1ba4fdd244a5e8aa4e537bd38aeae4b073aa335b6040516001600160a01b03909116815260200160405180910390a1565b816001600160a01b0316836001600160a01b031614156113005760405162461bcd60e51b815260206004820152602960248201527f455243313135353a2073657474696e6720617070726f76616c20737461747573604482015268103337b91039b2b63360b91b60648201526084016105d4565b6001600160a01b03838116600081815260ca6020908152604080832094871680845294825291829020805460ff191686151590811790915591519182527f17307eab39ab6107e8899845ad3d59bd9653f200f220920489ca2b5937696c31910160405180910390a3505050565b6001600160a01b0383166113935760405162461bcd60e51b81526004016105d4906130b4565b80518251146113b45760405162461bcd60e51b81526004016105d4906130f7565b60003390506113d781856000868660405180602001604052806000815250611f21565b60005b835181101561149f5760008482815181106113f7576113f7612ed5565b60200260200101519050600084838151811061141557611415612ed5565b602090810291909101810151600084815260c9835260408082206001600160a01b038c1683529093529190912054909150818110156114665760405162461bcd60e51b81526004016105d49061313f565b600092835260c9602090815260408085206001600160a01b038b168652909152909220910390558061149781612f19565b9150506113da565b5060006001600160a01b0316846001600160a01b0316826001600160a01b03167f4a39dc06d4c0dbc64b70af90fd698a233a518aa5d07e595d983b8c0526c8f7fb86866040516114f0929190613183565b60405180910390a450505050565b6001600160a01b0384166115245760405162461bcd60e51b81526004016105d4906131b1565b336115448160008761153588611f2f565b61153e88611f2f565b87611f21565b600084815260c9602090815260408083206001600160a01b038916845290915281208054859290611576908490612f01565b909155505060408051858152602081018590526001600160a01b0380881692600092918516917fc3d58168c5ae7397731d063d5bbf3d657854427343f4c083240f7aacaa2d0f62910160405180910390a461097381600087878787611f7a565b600054610100900460ff16610ab55760405162461bcd60e51b81526004016105d4906131f2565b61012d5460ff16156116445760405162461bcd60e51b815260206004820152601060248201526f14185d5cd8589b194e881c185d5cd95960821b60448201526064016105d4565b61012d805460ff191660011790557f62e78cea01bee320cd4e420270b5ea74000d11b0c9f74754ebdbfc544b05a25861126f3390565b6000610ef783836120d6565b6000610602825490565b6001600160a01b0384166116b65760405162461bcd60e51b81526004016105d49061323d565b336116c681878761153588611f2f565b600084815260c9602090815260408083206001600160a01b038a168452909152902054838110156117095760405162461bcd60e51b81526004016105d490613282565b600085815260c9602090815260408083206001600160a01b038b8116855292528083208785039055908816825281208054869290611748908490612f01565b909155505060408051868152602081018690526001600160a01b03808916928a821692918616917fc3d58168c5ae7397731d063d5bbf3d657854427343f4c083240f7aacaa2d0f62910160405180910390a46117a8828888888888611f7a565b50505050505050565b6001600160a01b0383166117d75760405162461bcd60e51b81526004016105d4906130b4565b33611806818560006117e887611f2f565b6117f187611f2f565b60405180602001604052806000815250611f21565b600083815260c9602090815260408083206001600160a01b0388168452909152902054828110156118495760405162461bcd60e51b81526004016105d49061313f565b600084815260c9602090815260408083206001600160a01b03898116808652918452828520888703905582518981529384018890529092908616917fc3d58168c5ae7397731d063d5bbf3d657854427343f4c083240f7aacaa2d0f62910160405180910390a45050505050565b600054610100900460ff166118dd5760405162461bcd60e51b81526004016105d4906131f2565b6118e56115d6565b6118ed6115d6565b6118f56115d6565b6118fd6115d6565b61190681612100565b61190e6115d6565b611916612130565b61191e6115d6565b610e4a81612164565b60006001600160e01b03198216636cdb3d1360e11b148061195857506001600160e01b031982166303a24d0760e21b145b806106025750610602826121c6565b6001600160a01b03841661198d5760405162461bcd60e51b81526004016105d4906131b1565b81518351146119ae5760405162461bcd60e51b81526004016105d4906130f7565b336119be81600087878787611f21565b60005b8451811015611a5a578381815181106119dc576119dc612ed5565b602002602001015160c960008784815181106119fa576119fa612ed5565b602002602001015181526020019081526020016000206000886001600160a01b03166001600160a01b031681526020019081526020016000206000828254611a429190612f01565b90915550819050611a5281612f19565b9150506119c1565b50846001600160a01b031660006001600160a01b0316826001600160a01b03167f4a39dc06d4c0dbc64b70af90fd698a233a518aa5d07e595d983b8c0526c8f7fb8787604051611aab929190613183565b60405180910390a4610973816000878787876121eb565b8151835114611ae35760405162461bcd60e51b81526004016105d4906130f7565b6001600160a01b038416611b095760405162461bcd60e51b81526004016105d49061323d565b33611b18818787878787611f21565b60005b8451811015611c01576000858281518110611b3857611b38612ed5565b602002602001015190506000858381518110611b5657611b56612ed5565b602090810291909101810151600084815260c9835260408082206001600160a01b038e168352909352919091205490915081811015611ba75760405162461bcd60e51b81526004016105d490613282565b600083815260c9602090815260408083206001600160a01b038e8116855292528083208585039055908b16825281208054849290611be6908490612f01565b9250508190555050505080611bfa90612f19565b9050611b1b565b50846001600160a01b0316866001600160a01b0316826001600160a01b03167f4a39dc06d4c0dbc64b70af90fd698a233a518aa5d07e595d983b8c0526c8f7fb8787604051611c51929190613183565b60405180910390a4611c678187878787876121eb565b505050505050565b60606000611c7e8360026132cc565b611c89906002612f01565b6001600160401b03811115611ca057611ca0612759565b6040519080825280601f01601f191660200182016040528015611cca576020820181803683370190505b509050600360fc1b81600081518110611ce557611ce5612ed5565b60200101906001600160f81b031916908160001a905350600f60fb1b81600181518110611d1457611d14612ed5565b60200101906001600160f81b031916908160001a9053506000611d388460026132cc565b611d43906001612f01565b90505b6001811115611dbb576f181899199a1a9b1b9c1cb0b131b232b360811b85600f1660108110611d7757611d77612ed5565b1a60f81b828281518110611d8d57611d8d612ed5565b60200101906001600160f81b031916908160001a90535060049490941c93611db4816132eb565b9050611d46565b508315610ef75760405162461bcd60e51b815260206004820181905260248201527f537472696e67733a20686578206c656e67746820696e73756666696369656e7460448201526064016105d4565b611e148282610efe565b610a1f5760008281526065602090815260408083206001600160a01b03851684529091529020805460ff19166001179055611e4c3390565b6001600160a01b0316816001600160a01b0316837f2f8788117e7eff1d82e926ec794901d17c78024a50270940304540a733656f0d60405160405180910390a45050565b6000610ef7836001600160a01b0384166122a6565b611eaf8282610efe565b15610a1f5760008281526065602090815260408083206001600160a01b0385168085529252808320805460ff1916905551339285917ff6391f5c32d9c69d2a47ea670b442974b53935d1edc7fd64eb21e047a839171b9190a45050565b6000610ef7836001600160a01b0384166122f5565b611c678686868686866123e8565b60408051600180825281830190925260609160009190602080830190803683370190505090508281600081518110611f6957611f69612ed5565b602090810291909101015292915050565b6001600160a01b0384163b15611c675760405163f23a6e6160e01b81526001600160a01b0385169063f23a6e6190611fbe9089908990889088908890600401613302565b6020604051808303816000875af1925050508015611ff9575060408051601f3d908101601f19168201909252611ff691810190613347565b60015b6120a657612005613364565b806308c379a0141561203f575061201a613380565b806120255750612041565b8060405162461bcd60e51b81526004016105d4919061272d565b505b60405162461bcd60e51b815260206004820152603460248201527f455243313135353a207472616e7366657220746f206e6f6e20455243313135356044820152732932b1b2b4bb32b91034b6b83632b6b2b73a32b960611b60648201526084016105d4565b6001600160e01b0319811663f23a6e6160e01b146117a85760405162461bcd60e51b81526004016105d490613409565b60008260000182815481106120ed576120ed612ed5565b9060005260206000200154905092915050565b600054610100900460ff166121275760405162461bcd60e51b81526004016105d4906131f2565b610e4a81612504565b600054610100900460ff166121575760405162461bcd60e51b81526004016105d4906131f2565b61012d805460ff19169055565b600054610100900460ff1661218b5760405162461bcd60e51b81526004016105d4906131f2565b612196600033612517565b6121ae6000805160206134e683398151915233612517565b610e4a6000805160206134c683398151915233612517565b60006001600160e01b03198216635a05180f60e01b1480610602575061060282612521565b6001600160a01b0384163b15611c675760405163bc197c8160e01b81526001600160a01b0385169063bc197c819061222f9089908990889088908890600401613451565b6020604051808303816000875af192505050801561226a575060408051601f3d908101601f1916820190925261226791810190613347565b60015b61227657612005613364565b6001600160e01b0319811663bc197c8160e01b146117a85760405162461bcd60e51b81526004016105d490613409565b60008181526001830160205260408120546122ed57508154600181810184556000848152602080822090930184905584548482528286019093526040902091909155610602565b506000610602565b600081815260018301602052604081205480156123de576000612319600183612f34565b855490915060009061232d90600190612f34565b905081811461239257600086600001828154811061234d5761234d612ed5565b906000526020600020015490508087600001848154811061237057612370612ed5565b6000918252602080832090910192909255918252600188019052604090208390555b85548690806123a3576123a36134af565b600190038181906000526020600020016000905590558560010160008681526020019081526020016000206000905560019350505050610602565b6000915050610602565b6123f6868686868686612556565b6001600160a01b03851661247e5760005b835181101561247c5782818151811061242257612422612ed5565b60200260200101516101c3600086848151811061244157612441612ed5565b6020026020010151815260200190815260200160002060008282546124669190612f01565b90915550612475905081612f19565b9050612407565b505b6001600160a01b038416611c675760005b83518110156117a8578281815181106124aa576124aa612ed5565b60200260200101516101c360008684815181106124c9576124c9612ed5565b6020026020010151815260200190815260200160002060008282546124ee9190612f34565b909155506124fd905081612f19565b905061248f565b8051610a1f9060cb9060208401906125c8565b610a1f82826111b3565b60006001600160e01b03198216637965db0b60e01b148061060257506301ffc9a760e01b6001600160e01b0319831614610602565b611c6786868686868661012d5460ff1615611c675760405162461bcd60e51b815260206004820152602c60248201527f455243313135355061757361626c653a20746f6b656e207472616e736665722060448201526b1dda1a5b19481c185d5cd95960a21b60648201526084016105d4565b8280546125d490612e62565b90600052602060002090601f0160209004810192826125f6576000855561263c565b82601f1061260f57805160ff191683800117855561263c565b8280016001018555821561263c579182015b8281111561263c578251825591602001919060010190612621565b5061264892915061264c565b5090565b5b80821115612648576000815560010161264d565b6001600160a01b0381168114610e4a57600080fd5b6000806040838503121561268957600080fd5b823561269481612661565b946020939093013593505050565b6001600160e01b031981168114610e4a57600080fd5b6000602082840312156126ca57600080fd5b8135610ef7816126a2565b60005b838110156126f05781810151838201526020016126d8565b83811115610cf35750506000910152565b600081518084526127198160208601602086016126d5565b601f01601f19169290920160200192915050565b602081526000610ef76020830184612701565b60006020828403121561275257600080fd5b5035919050565b634e487b7160e01b600052604160045260246000fd5b601f8201601f191681016001600160401b038111828210171561279457612794612759565b6040525050565b60006001600160401b038211156127b4576127b4612759565b5060051b60200190565b600082601f8301126127cf57600080fd5b813560206127dc8261279b565b6040516127e9828261276f565b83815260059390931b850182019282810191508684111561280957600080fd5b8286015b84811015612824578035835291830191830161280d565b509695505050505050565b60006001600160401b0383111561284857612848612759565b60405161285f601f8501601f19166020018261276f565b80915083815284848401111561287457600080fd5b83836020830137600060208583010152509392505050565b600082601f83011261289d57600080fd5b610ef78383356020850161282f565b600080600080608085870312156128c257600080fd5b84356128cd81612661565b935060208501356001600160401b03808211156128e957600080fd5b6128f5888389016127be565b9450604087013591508082111561290b57600080fd5b612917888389016127be565b9350606087013591508082111561292d57600080fd5b5061293a8782880161288c565b91505092959194509250565b600080600080600060a0868803121561295e57600080fd5b853561296981612661565b9450602086013561297981612661565b935060408601356001600160401b038082111561299557600080fd5b6129a189838a016127be565b945060608801359150808211156129b757600080fd5b6129c389838a016127be565b935060808801359150808211156129d957600080fd5b506129e68882890161288c565b9150509295509295909350565b60008060408385031215612a0657600080fd5b823591506020830135612a1881612661565b809150509250929050565b60008060408385031215612a3657600080fd5b82356001600160401b0380821115612a4d57600080fd5b818501915085601f830112612a6157600080fd5b81356020612a6e8261279b565b604051612a7b828261276f565b83815260059390931b8501820192828101915089841115612a9b57600080fd5b948201945b83861015612ac2578535612ab381612661565b82529482019490820190612aa0565b96505086013592505080821115612ad857600080fd5b50612ae5858286016127be565b9150509250929050565b600081518084526020808501945080840160005b83811015612b1f57815187529582019590820190600101612b03565b509495945050505050565b602081526000610ef76020830184612aef565b60008060408385031215612b5057600080fd5b82356001600160401b0380821115612b6757600080fd5b818501915085601f830112612b7b57600080fd5b81356020612b888261279b565b604051612b95828261276f565b83815260059390931b8501820192828101915089841115612bb557600080fd5b948201945b83861015612ac257853582529482019490820190612bba565b8015158114610e4a57600080fd5b600080600060608486031215612bf657600080fd5b8335612c0181612661565b92506020840135612c1181612661565b91506040840135612c2181612bd3565b809150509250925092565b600080600060608486031215612c4157600080fd5b8335612c4c81612661565b925060208401356001600160401b0380821115612c6857600080fd5b612c74878388016127be565b93506040860135915080821115612c8a57600080fd5b50612c97868287016127be565b9150509250925092565b60008060008060808587031215612cb757600080fd5b8435612cc281612661565b9350602085013592506040850135915060608501356001600160401b03811115612ceb57600080fd5b61293a8782880161288c565b60008060408385031215612d0a57600080fd5b50508035926020909101359150565b60008060408385031215612d2c57600080fd5b8235612d3781612661565b91506020830135612a1881612bd3565b60008060408385031215612d5a57600080fd5b8235612d6581612661565b91506020830135612a1881612661565b600080600080600060a08688031215612d8d57600080fd5b8535612d9881612661565b94506020860135612da881612661565b9350604086013592506060860135915060808601356001600160401b03811115612dd157600080fd5b6129e68882890161288c565b600080600060608486031215612df257600080fd5b8335612dfd81612661565b95602085013595506040909401359392505050565b600060208284031215612e2457600080fd5b81356001600160401b03811115612e3a57600080fd5b8201601f81018413612e4b57600080fd5b612e5a8482356020840161282f565b949350505050565b600181811c90821680612e7657607f821691505b60208210811415612e9757634e487b7160e01b600052602260045260246000fd5b50919050565b600080600060608486031215612eb257600080fd5b8351612ebd81612661565b602085015160408601519194509250612c2181612bd3565b634e487b7160e01b600052603260045260246000fd5b634e487b7160e01b600052601160045260246000fd5b60008219821115612f1457612f14612eeb565b500190565b6000600019821415612f2d57612f2d612eeb565b5060010190565b600082821015612f4657612f46612eeb565b500390565b60208082526029908201527f455243313135353a2063616c6c6572206973206e6f74206f776e6572206e6f7260408201526808185c1c1c9bdd995960ba1b606082015260800190565b60208082526038908201527f455243313135355072657365744d696e7465725061757365723a206d7573742060408201527f68617665206d696e74657220726f6c6520746f206d696e740000000000000000606082015260800190565b6020808252602e908201527f496e697469616c697a61626c653a20636f6e747261637420697320616c72656160408201526d191e481a5b9a5d1a585b1a5e995960921b606082015260800190565b7f416363657373436f6e74726f6c3a206163636f756e74200000000000000000008152600083516130778160178501602088016126d5565b7001034b99036b4b9b9b4b733903937b6329607d1b60179184019182015283516130a88160288401602088016126d5565b01602801949350505050565b60208082526023908201527f455243313135353a206275726e2066726f6d20746865207a65726f206164647260408201526265737360e81b606082015260800190565b60208082526028908201527f455243313135353a2069647320616e6420616d6f756e7473206c656e677468206040820152670dad2e6dac2e8c6d60c31b606082015260800190565b60208082526024908201527f455243313135353a206275726e20616d6f756e7420657863656564732062616c604082015263616e636560e01b606082015260800190565b6040815260006131966040830185612aef565b82810360208401526131a88185612aef565b95945050505050565b60208082526021908201527f455243313135353a206d696e7420746f20746865207a65726f206164647265736040820152607360f81b606082015260800190565b6020808252602b908201527f496e697469616c697a61626c653a20636f6e7472616374206973206e6f74206960408201526a6e697469616c697a696e6760a81b606082015260800190565b60208082526025908201527f455243313135353a207472616e7366657220746f20746865207a65726f206164604082015264647265737360d81b606082015260800190565b6020808252602a908201527f455243313135353a20696e73756666696369656e742062616c616e636520666f60408201526939103a3930b739b332b960b11b606082015260800190565b60008160001904831182151516156132e6576132e6612eeb565b500290565b6000816132fa576132fa612eeb565b506000190190565b6001600160a01b03868116825285166020820152604081018490526060810183905260a06080820181905260009061333c90830184612701565b979650505050505050565b60006020828403121561335957600080fd5b8151610ef7816126a2565b600060033d111561337d5760046000803e5060005160e01c5b90565b600060443d101561338e5790565b6040516003193d81016004833e81513d6001600160401b0381602484011181841117156133bd57505050505090565b82850191508151818111156133d55750505050505090565b843d87010160208285010111156133ef5750505050505090565b6133fe6020828601018761276f565b509095945050505050565b60208082526028908201527f455243313135353a204552433131353552656365697665722072656a656374656040820152676420746f6b656e7360c01b606082015260800190565b6001600160a01b0386811682528516602082015260a06040820181905260009061347d90830186612aef565b828103606084015261348f8186612aef565b905082810360808401526134a38185612701565b98975050505050505050565b634e487b7160e01b600052603160045260246000fdfe65d7a28e3265b37a6474929f336521b332c1681b933f6cb9f3376673440d862a9f2df0fed2c77648de5860a4cc508cd0818c85b8b8a1ab4ceeef8d981c8956a668747470733a2f2f6e6f72692e636f6d2f6170692f72656d6f76616c2f7b69647d2e6a736f6ea2646970667358221220660f9637fe5cd0f04678cc8651c43a49018c9ed0f99820a6272728d6d32c419664736f6c634300080a0033",
  "linkReferences": {},
  "deployedLinkReferences": {}
}