{
  "_format": "hh-sol-artifact-1",
  "contractName": "Removal",
  "sourceName": "contracts/Removal.sol",
  "abi": [
    {
      "inputs": [],
      "stateMutability": "nonpayable",
      "type": "constructor"
    },
    {
      "inputs": [
        {
          "internalType": "string",
          "name": "array1Name",
          "type": "string"
        },
        {
          "internalType": "string",
          "name": "array2Name",
          "type": "string"
        }
      ],
      "name": "ArrayLengthMismatch",
      "type": "error"
    },
    {
      "inputs": [
        {
          "internalType": "uint256",
          "name": "projectId",
          "type": "uint256"
        }
      ],
      "name": "InvalidProjectId",
      "type": "error"
    },
    {
      "inputs": [
        {
          "internalType": "uint256",
          "name": "tokenId",
          "type": "uint256"
        }
      ],
      "name": "TokenIdDoesNotExist",
      "type": "error"
    },
    {
      "inputs": [
        {
          "internalType": "uint256",
          "name": "tokenId",
          "type": "uint256"
        }
      ],
      "name": "TokenIdExists",
      "type": "error"
    },
    {
      "anonymous": false,
      "inputs": [
        {
          "indexed": true,
          "internalType": "address",
          "name": "account",
          "type": "address"
        },
        {
          "indexed": true,
          "internalType": "address",
          "name": "operator",
          "type": "address"
        },
        {
          "indexed": false,
          "internalType": "bool",
          "name": "approved",
          "type": "bool"
        }
      ],
      "name": "ApprovalForAll",
      "type": "event"
    },
    {
      "anonymous": false,
      "inputs": [
        {
          "indexed": false,
          "internalType": "uint8",
          "name": "version",
          "type": "uint8"
        }
      ],
      "name": "Initialized",
      "type": "event"
    },
    {
      "anonymous": false,
      "inputs": [
        {
          "indexed": false,
          "internalType": "address",
          "name": "account",
          "type": "address"
        }
      ],
      "name": "Paused",
      "type": "event"
    },
    {
      "anonymous": false,
      "inputs": [
        {
          "indexed": true,
          "internalType": "bytes32",
          "name": "role",
          "type": "bytes32"
        },
        {
          "indexed": true,
          "internalType": "bytes32",
          "name": "previousAdminRole",
          "type": "bytes32"
        },
        {
          "indexed": true,
          "internalType": "bytes32",
          "name": "newAdminRole",
          "type": "bytes32"
        }
      ],
      "name": "RoleAdminChanged",
      "type": "event"
    },
    {
      "anonymous": false,
      "inputs": [
        {
          "indexed": true,
          "internalType": "bytes32",
          "name": "role",
          "type": "bytes32"
        },
        {
          "indexed": true,
          "internalType": "address",
          "name": "account",
          "type": "address"
        },
        {
          "indexed": true,
          "internalType": "address",
          "name": "sender",
          "type": "address"
        }
      ],
      "name": "RoleGranted",
      "type": "event"
    },
    {
      "anonymous": false,
      "inputs": [
        {
          "indexed": true,
          "internalType": "bytes32",
          "name": "role",
          "type": "bytes32"
        },
        {
          "indexed": true,
          "internalType": "address",
          "name": "account",
          "type": "address"
        },
        {
          "indexed": true,
          "internalType": "address",
          "name": "sender",
          "type": "address"
        }
      ],
      "name": "RoleRevoked",
      "type": "event"
    },
    {
      "anonymous": false,
      "inputs": [
        {
          "indexed": true,
          "internalType": "address",
          "name": "operator",
          "type": "address"
        },
        {
          "indexed": true,
          "internalType": "address",
          "name": "from",
          "type": "address"
        },
        {
          "indexed": true,
          "internalType": "address",
          "name": "to",
          "type": "address"
        },
        {
          "indexed": false,
          "internalType": "uint256[]",
          "name": "ids",
          "type": "uint256[]"
        },
        {
          "indexed": false,
          "internalType": "uint256[]",
          "name": "values",
          "type": "uint256[]"
        }
      ],
      "name": "TransferBatch",
      "type": "event"
    },
    {
      "anonymous": false,
      "inputs": [
        {
          "indexed": true,
          "internalType": "address",
          "name": "operator",
          "type": "address"
        },
        {
          "indexed": true,
          "internalType": "address",
          "name": "from",
          "type": "address"
        },
        {
          "indexed": true,
          "internalType": "address",
          "name": "to",
          "type": "address"
        },
        {
          "indexed": false,
          "internalType": "uint256",
          "name": "id",
          "type": "uint256"
        },
        {
          "indexed": false,
          "internalType": "uint256",
          "name": "value",
          "type": "uint256"
        }
      ],
      "name": "TransferSingle",
      "type": "event"
    },
    {
      "anonymous": false,
      "inputs": [
        {
          "indexed": false,
          "internalType": "string",
          "name": "value",
          "type": "string"
        },
        {
          "indexed": true,
          "internalType": "uint256",
          "name": "id",
          "type": "uint256"
        }
      ],
      "name": "URI",
      "type": "event"
    },
    {
      "anonymous": false,
      "inputs": [
        {
          "indexed": false,
          "internalType": "address",
          "name": "account",
          "type": "address"
        }
      ],
      "name": "Unpaused",
      "type": "event"
    },
    {
      "inputs": [],
      "name": "DEFAULT_ADMIN_ROLE",
      "outputs": [
        {
          "internalType": "bytes32",
          "name": "",
          "type": "bytes32"
        }
      ],
      "stateMutability": "view",
      "type": "function"
    },
    {
      "inputs": [],
      "name": "MINTER_ROLE",
      "outputs": [
        {
          "internalType": "bytes32",
          "name": "",
          "type": "bytes32"
        }
      ],
      "stateMutability": "view",
      "type": "function"
    },
    {
      "inputs": [],
      "name": "PAUSER_ROLE",
      "outputs": [
        {
          "internalType": "bytes32",
          "name": "",
          "type": "bytes32"
        }
      ],
      "stateMutability": "view",
      "type": "function"
    },
    {
      "inputs": [
        {
          "internalType": "address",
          "name": "account",
          "type": "address"
        },
        {
          "internalType": "uint256",
          "name": "id",
          "type": "uint256"
        }
      ],
      "name": "balanceOf",
      "outputs": [
        {
          "internalType": "uint256",
          "name": "",
          "type": "uint256"
        }
      ],
      "stateMutability": "view",
      "type": "function"
    },
    {
      "inputs": [
        {
          "internalType": "address[]",
          "name": "accounts",
          "type": "address[]"
        },
        {
          "internalType": "uint256[]",
          "name": "ids",
          "type": "uint256[]"
        }
      ],
      "name": "balanceOfBatch",
      "outputs": [
        {
          "internalType": "uint256[]",
          "name": "",
          "type": "uint256[]"
        }
      ],
      "stateMutability": "view",
      "type": "function"
    },
    {
      "inputs": [
        {
          "internalType": "address",
          "name": "account",
          "type": "address"
        },
        {
          "internalType": "uint256[]",
          "name": "ids",
          "type": "uint256[]"
        }
      ],
      "name": "balanceOfIds",
      "outputs": [
        {
          "internalType": "uint256[]",
          "name": "",
          "type": "uint256[]"
        }
      ],
      "stateMutability": "view",
      "type": "function"
    },
    {
      "inputs": [
        {
          "internalType": "uint256[]",
          "name": "removalIds",
          "type": "uint256[]"
        }
      ],
      "name": "batchGetHoldbackPercentages",
      "outputs": [
        {
          "internalType": "uint256[]",
          "name": "",
          "type": "uint256[]"
        }
      ],
      "stateMutability": "view",
      "type": "function"
    },
    {
      "inputs": [
        {
          "internalType": "uint256[]",
          "name": "removalIds",
          "type": "uint256[]"
        },
        {
          "internalType": "uint256",
          "name": "holdbackPercentage",
          "type": "uint256"
        }
      ],
      "name": "batchSetHoldbackPercentage",
      "outputs": [],
      "stateMutability": "nonpayable",
      "type": "function"
    },
    {
      "inputs": [
        {
          "internalType": "address",
          "name": "account",
          "type": "address"
        },
        {
          "internalType": "uint256",
          "name": "id",
          "type": "uint256"
        },
        {
          "internalType": "uint256",
          "name": "value",
          "type": "uint256"
        }
      ],
      "name": "burn",
      "outputs": [],
      "stateMutability": "nonpayable",
      "type": "function"
    },
    {
      "inputs": [
        {
          "internalType": "address",
          "name": "account",
          "type": "address"
        },
        {
          "internalType": "uint256[]",
          "name": "ids",
          "type": "uint256[]"
        },
        {
          "internalType": "uint256[]",
          "name": "values",
          "type": "uint256[]"
        }
      ],
      "name": "burnBatch",
      "outputs": [],
      "stateMutability": "nonpayable",
      "type": "function"
    },
    {
      "inputs": [
        {
          "internalType": "bytes",
          "name": "removalData",
          "type": "bytes"
        }
      ],
      "name": "createRemovalId",
      "outputs": [
        {
          "internalType": "uint256",
          "name": "",
          "type": "uint256"
        }
      ],
      "stateMutability": "pure",
      "type": "function"
    },
    {
      "inputs": [
        {
          "internalType": "uint256",
          "name": "id",
          "type": "uint256"
        }
      ],
      "name": "exists",
      "outputs": [
        {
          "internalType": "bool",
          "name": "",
          "type": "bool"
        }
      ],
      "stateMutability": "view",
      "type": "function"
    },
    {
      "inputs": [
        {
          "internalType": "uint256",
          "name": "removalId",
          "type": "uint256"
        }
      ],
      "name": "getProjectIdForRemoval",
      "outputs": [
        {
          "internalType": "uint256",
          "name": "",
          "type": "uint256"
        }
      ],
      "stateMutability": "view",
      "type": "function"
    },
    {
      "inputs": [
        {
          "internalType": "bytes32",
          "name": "role",
          "type": "bytes32"
        }
      ],
      "name": "getRoleAdmin",
      "outputs": [
        {
          "internalType": "bytes32",
          "name": "",
          "type": "bytes32"
        }
      ],
      "stateMutability": "view",
      "type": "function"
    },
    {
      "inputs": [
        {
          "internalType": "bytes32",
          "name": "role",
          "type": "bytes32"
        },
        {
          "internalType": "uint256",
          "name": "index",
          "type": "uint256"
        }
      ],
      "name": "getRoleMember",
      "outputs": [
        {
          "internalType": "address",
          "name": "",
          "type": "address"
        }
      ],
      "stateMutability": "view",
      "type": "function"
    },
    {
      "inputs": [
        {
          "internalType": "bytes32",
          "name": "role",
          "type": "bytes32"
        }
      ],
      "name": "getRoleMemberCount",
      "outputs": [
        {
          "internalType": "uint256",
          "name": "",
          "type": "uint256"
        }
      ],
      "stateMutability": "view",
      "type": "function"
    },
    {
      "inputs": [
        {
          "internalType": "uint256",
          "name": "projectId",
          "type": "uint256"
        }
      ],
      "name": "getScheduleDataForProjectId",
      "outputs": [
        {
          "components": [
            {
              "internalType": "uint256",
              "name": "startTime",
              "type": "uint256"
            },
            {
              "internalType": "address",
              "name": "supplierAddress",
              "type": "address"
            },
            {
              "internalType": "uint256",
              "name": "methodology",
              "type": "uint256"
            },
            {
              "internalType": "uint256",
              "name": "methodologyVersion",
              "type": "uint256"
            }
          ],
          "internalType": "struct Removal.ScheduleData",
          "name": "",
          "type": "tuple"
        }
      ],
      "stateMutability": "view",
      "type": "function"
    },
    {
      "inputs": [
        {
          "internalType": "uint256",
          "name": "removalId",
          "type": "uint256"
        }
      ],
      "name": "getScheduleDataForRemovalId",
      "outputs": [
        {
          "components": [
            {
              "internalType": "uint256",
              "name": "startTime",
              "type": "uint256"
            },
            {
              "internalType": "address",
              "name": "supplierAddress",
              "type": "address"
            },
            {
              "internalType": "uint256",
              "name": "methodology",
              "type": "uint256"
            },
            {
              "internalType": "uint256",
              "name": "methodologyVersion",
              "type": "uint256"
            }
          ],
          "internalType": "struct Removal.ScheduleData",
          "name": "",
          "type": "tuple"
        }
      ],
      "stateMutability": "view",
      "type": "function"
    },
    {
      "inputs": [
        {
          "internalType": "bytes32",
          "name": "role",
          "type": "bytes32"
        },
        {
          "internalType": "address",
          "name": "account",
          "type": "address"
        }
      ],
      "name": "grantRole",
      "outputs": [],
      "stateMutability": "nonpayable",
      "type": "function"
    },
    {
      "inputs": [
        {
          "internalType": "bytes32",
          "name": "role",
          "type": "bytes32"
        },
        {
          "internalType": "address",
          "name": "account",
          "type": "address"
        }
      ],
      "name": "hasRole",
      "outputs": [
        {
          "internalType": "bool",
          "name": "",
          "type": "bool"
        }
      ],
      "stateMutability": "view",
      "type": "function"
    },
    {
      "inputs": [
        {
          "internalType": "uint256",
          "name": "",
          "type": "uint256"
        }
      ],
      "name": "indexToTokenId",
      "outputs": [
        {
          "internalType": "uint256",
          "name": "",
          "type": "uint256"
        }
      ],
      "stateMutability": "view",
      "type": "function"
    },
    {
      "inputs": [],
      "name": "initialize",
      "outputs": [],
      "stateMutability": "nonpayable",
      "type": "function"
    },
    {
      "inputs": [
        {
          "internalType": "string",
          "name": "uri",
          "type": "string"
        }
      ],
      "name": "initialize",
      "outputs": [],
      "stateMutability": "nonpayable",
      "type": "function"
    },
    {
      "inputs": [
        {
          "internalType": "address",
          "name": "account",
          "type": "address"
        },
        {
          "internalType": "address",
          "name": "operator",
          "type": "address"
        }
      ],
      "name": "isApprovedForAll",
      "outputs": [
        {
          "internalType": "bool",
          "name": "",
          "type": "bool"
        }
      ],
      "stateMutability": "view",
      "type": "function"
    },
    {
      "inputs": [
        {
          "internalType": "address",
          "name": "",
          "type": "address"
        },
        {
          "internalType": "uint256",
          "name": "",
          "type": "uint256"
        },
        {
          "internalType": "uint256",
          "name": "",
          "type": "uint256"
        },
        {
          "internalType": "bytes",
          "name": "",
          "type": "bytes"
        }
      ],
      "name": "mint",
      "outputs": [],
      "stateMutability": "pure",
      "type": "function"
    },
    {
      "inputs": [
        {
          "internalType": "address",
          "name": "to",
          "type": "address"
        },
        {
          "internalType": "uint256[]",
          "name": "amounts",
          "type": "uint256[]"
        },
        {
          "internalType": "uint256[]",
          "name": "ids",
          "type": "uint256[]"
        },
        {
          "internalType": "bytes",
          "name": "data",
          "type": "bytes"
        }
      ],
      "name": "mintBatch",
      "outputs": [],
      "stateMutability": "nonpayable",
      "type": "function"
    },
    {
      "inputs": [],
      "name": "name",
      "outputs": [
        {
          "internalType": "string",
          "name": "",
          "type": "string"
        }
      ],
      "stateMutability": "view",
      "type": "function"
    },
    {
      "inputs": [],
      "name": "pause",
      "outputs": [],
      "stateMutability": "nonpayable",
      "type": "function"
    },
    {
      "inputs": [],
      "name": "paused",
      "outputs": [
        {
          "internalType": "bool",
          "name": "",
          "type": "bool"
        }
      ],
      "stateMutability": "view",
      "type": "function"
    },
    {
      "inputs": [
        {
          "internalType": "address",
          "name": "restrictedNORIAddress",
          "type": "address"
        }
      ],
      "name": "registerRestrictedNORIAddress",
      "outputs": [],
      "stateMutability": "nonpayable",
      "type": "function"
    },
    {
      "inputs": [
        {
          "internalType": "bytes32",
          "name": "role",
          "type": "bytes32"
        },
        {
          "internalType": "address",
          "name": "account",
          "type": "address"
        }
      ],
      "name": "renounceRole",
      "outputs": [],
      "stateMutability": "nonpayable",
      "type": "function"
    },
    {
      "inputs": [
        {
          "internalType": "bytes32",
          "name": "role",
          "type": "bytes32"
        },
        {
          "internalType": "address",
          "name": "account",
          "type": "address"
        }
      ],
      "name": "revokeRole",
      "outputs": [],
      "stateMutability": "nonpayable",
      "type": "function"
    },
    {
      "inputs": [
        {
          "internalType": "address",
          "name": "from",
          "type": "address"
        },
        {
          "internalType": "address",
          "name": "to",
          "type": "address"
        },
        {
          "internalType": "uint256[]",
          "name": "ids",
          "type": "uint256[]"
        },
        {
          "internalType": "uint256[]",
          "name": "amounts",
          "type": "uint256[]"
        },
        {
          "internalType": "bytes",
          "name": "",
          "type": "bytes"
        }
      ],
      "name": "safeBatchTransferFrom",
      "outputs": [],
      "stateMutability": "nonpayable",
      "type": "function"
    },
    {
      "inputs": [
        {
          "internalType": "address",
          "name": "from",
          "type": "address"
        },
        {
          "internalType": "address",
          "name": "to",
          "type": "address"
        },
        {
          "internalType": "uint256",
          "name": "id",
          "type": "uint256"
        },
        {
          "internalType": "uint256",
          "name": "amount",
          "type": "uint256"
        },
        {
          "internalType": "bytes",
          "name": "data",
          "type": "bytes"
        }
      ],
      "name": "safeTransferFrom",
      "outputs": [],
      "stateMutability": "nonpayable",
      "type": "function"
    },
    {
      "inputs": [
        {
          "internalType": "address",
          "name": "owner",
          "type": "address"
        },
        {
          "internalType": "address",
          "name": "operator",
          "type": "address"
        },
        {
          "internalType": "bool",
          "name": "approved",
          "type": "bool"
        }
      ],
      "name": "setApprovalForAll",
      "outputs": [],
      "stateMutability": "nonpayable",
      "type": "function"
    },
    {
      "inputs": [
        {
          "internalType": "address",
          "name": "operator",
          "type": "address"
        },
        {
          "internalType": "bool",
          "name": "approved",
          "type": "bool"
        }
      ],
      "name": "setApprovalForAll",
      "outputs": [],
      "stateMutability": "nonpayable",
      "type": "function"
    },
    {
      "inputs": [
        {
          "internalType": "bytes4",
          "name": "interfaceId",
          "type": "bytes4"
        }
      ],
      "name": "supportsInterface",
      "outputs": [
        {
          "internalType": "bool",
          "name": "",
          "type": "bool"
        }
      ],
      "stateMutability": "view",
      "type": "function"
    },
    {
      "inputs": [],
      "name": "tokenIdCounter",
      "outputs": [
        {
          "internalType": "uint256",
          "name": "",
          "type": "uint256"
        }
      ],
      "stateMutability": "view",
      "type": "function"
    },
    {
      "inputs": [
        {
          "internalType": "uint256",
          "name": "id",
          "type": "uint256"
        }
      ],
      "name": "totalSupply",
      "outputs": [
        {
          "internalType": "uint256",
          "name": "",
          "type": "uint256"
        }
      ],
      "stateMutability": "view",
      "type": "function"
    },
    {
      "inputs": [
        {
          "internalType": "uint256",
          "name": "removalId",
          "type": "uint256"
        }
      ],
      "name": "unpackRemovalIdV0",
      "outputs": [
        {
          "components": [
            {
              "internalType": "uint8",
              "name": "idVersion",
              "type": "uint8"
            },
            {
              "internalType": "uint8",
              "name": "methodology",
              "type": "uint8"
            },
            {
              "internalType": "uint8",
              "name": "methodologyVersion",
              "type": "uint8"
            },
            {
              "internalType": "uint16",
              "name": "vintage",
              "type": "uint16"
            },
            {
              "internalType": "bytes2",
              "name": "country",
              "type": "bytes2"
            },
            {
              "internalType": "bytes2",
              "name": "subdivision",
              "type": "bytes2"
            },
            {
              "internalType": "address",
              "name": "supplierAddress",
              "type": "address"
            },
            {
              "internalType": "uint32",
              "name": "subIdentifier",
              "type": "uint32"
            }
          ],
          "internalType": "struct UnpackedRemovalIdV0",
          "name": "",
          "type": "tuple"
        }
      ],
      "stateMutability": "pure",
      "type": "function"
    },
    {
      "inputs": [],
      "name": "unpause",
      "outputs": [],
      "stateMutability": "nonpayable",
      "type": "function"
    },
    {
      "inputs": [
        {
          "internalType": "uint256",
          "name": "",
          "type": "uint256"
        }
      ],
      "name": "uri",
      "outputs": [
        {
          "internalType": "string",
          "name": "",
          "type": "string"
        }
      ],
      "stateMutability": "view",
      "type": "function"
    }
  ],
  "bytecode": "0x60806040523480156200001157600080fd5b50620000467f111be869eb3b7ad202e14e1cb6a7a1dafa083fbbd8fac89333eda6144284deb760001b620000c460201b60201c565b6200007a7f1ee8f644cca4aff2ae5450219f200f1a5522ed6e570bdcdd366181f60bf3e2f860001b620000c460201b60201c565b620000ae7f9153d83f997fb330b750550849208120bd9d4c24f868d1ac92fc67db7e3d214660001b620000c460201b60201c565b620000be620000c760201b60201c565b620002ae565b50565b620000d960ff620000dc60201b60201c565b50565b60008060019054906101000a900460ff1615620001665760018260ff161480156200011a57506200011830620001e260201b620034801760201c565b155b6200015c576040517f08c379a000000000000000000000000000000000000000000000000000000000815260040162000153906200028c565b60405180910390fd5b60009050620001dd565b8160ff1660008054906101000a900460ff1660ff1610620001be576040517f08c379a0000000000000000000000000000000000000000000000000000000008152600401620001b5906200028c565b60405180910390fd5b816000806101000a81548160ff021916908360ff160217905550600190505b919050565b6000808273ffffffffffffffffffffffffffffffffffffffff163b119050919050565b600082825260208201905092915050565b7f496e697469616c697a61626c653a20636f6e747261637420697320616c72656160008201527f647920696e697469616c697a6564000000000000000000000000000000000000602082015250565b600062000274602e8362000205565b9150620002818262000216565b604082019050919050565b60006020820190508181036000830152620002a78162000265565b9050919050565b619bd380620002be6000396000f3fe608060405234801561001057600080fd5b50600436106102dd5760003560e01c80638129fc1c11610186578063bd85b039116100e3578063e0fc293811610097578063f242432a11610071578063f242432a14610878578063f5298aca14610894578063f62d1888146108b0576102dd565b8063e0fc2938146107fa578063e63ab1e91461082a578063e985e9c514610848576102dd565b8063d5391393116100c8578063d539139314610790578063d547741f146107ae578063d85a53e9146107ca576102dd565b8063bd85b03914610730578063ca15c87314610760576102dd565b806399d5121b1161013a578063a22cb4651161011f578063a22cb465146106c8578063a53ba527146106e4578063b6477cc014610700576102dd565b806399d5121b1461067a578063a217fddf146106aa576102dd565b80639010d07c1161016b5780639010d07c146105fc57806391d148541461062c57806398bdf6f51461065c576102dd565b80638129fc1c146105e85780638456cb59146105f2576102dd565b806336568abe1161023f5780634f558e79116101f35780636b20c454116101cd5780636b20c45414610580578063731133e91461059c5780637aef1164146105b8576102dd565b80634f558e79146105165780635c975abb146105465780635f830d7714610564576102dd565b80633f4ba83a116102245780633f4ba83a146104ac57806348ec4c3b146104b65780634e1273f4146104e6576102dd565b806336568abe14610474578063367605ca14610490576102dd565b80631990ad0511610296578063248a9ca31161027b578063248a9ca31461040c5780632eb2c2d61461043c5780632f2ff15d14610458576102dd565b80631990ad05146103c05780631f7fdffa146103f0576102dd565b806301ffc9a7116102c757806301ffc9a71461034257806306fdde03146103725780630e89341c14610390576102dd565b8062fdd58e146102e2578063018e1c8314610312575b600080fd5b6102fc60048036038101906102f79190616ce7565b6108cc565b6040516103099190616d36565b60405180910390f35b61032c60048036038101906103279190616eaa565b610995565b6040516103399190616fc4565b60405180910390f35b61035c6004803603810190610357919061703e565b610bdb565b6040516103699190617086565b60405180910390f35b61037a610c71565b6040516103879190617129565b60405180910390f35b6103aa60048036038101906103a5919061714b565b610d00565b6040516103b79190617129565b60405180910390f35b6103da60048036038101906103d5919061714b565b610d94565b6040516103e791906171dc565b60405180910390f35b61040a600480360381019061040591906172ac565b610ed1565b005b6104266004803603810190610421919061739d565b611cc4565b60405161043391906173d9565b60405180910390f35b610456600480360381019061045191906173f4565b611ce4565b005b610472600480360381019061046d91906174c3565b611e2b565b005b61048e600480360381019061048991906174c3565b611e4c565b005b6104aa60048036038101906104a5919061752f565b611ecf565b005b6104b4611fb9565b005b6104d060048036038101906104cb91906175dd565b612033565b6040516104dd9190616d36565b60405180910390f35b61050060048036038101906104fb91906176ed565b6120cb565b60405161050d9190616fc4565b60405180910390f35b610530600480360381019061052b919061714b565b6121e4565b60405161053d9190617086565b60405180910390f35b61054e6121f8565b60405161055b9190617086565b60405180910390f35b61057e60048036038101906105799190617765565b612210565b005b61059a60048036038101906105959190617792565b6122e7565b005b6105b660048036038101906105b1919061781d565b612384565b005b6105d260048036038101906105cd919061714b565b612443565b6040516105df9190616d36565b60405180910390f35b6105f061245c565b005b6105fa6126ec565b005b610616600480360381019061061191906178a0565b612766565b60405161062391906178ef565b60405180910390f35b610646600480360381019061064191906174c3565b612795565b6040516106539190617086565b60405180910390f35b610664612800565b6040516106719190616d36565b60405180910390f35b610694600480360381019061068f919061714b565b612807565b6040516106a191906171dc565b60405180910390f35b6106b261292d565b6040516106bf91906173d9565b60405180910390f35b6106e260048036038101906106dd919061790a565b612934565b005b6106fe60048036038101906106f991906179a0565b61294a565b005b61071a60048036038101906107159190617a00565b612c1f565b6040516107279190616fc4565b60405180910390f35b61074a6004803603810190610745919061714b565b61302c565b6040516107579190616d36565b60405180910390f35b61077a6004803603810190610775919061739d565b61304a565b6040516107879190616d36565b60405180910390f35b61079861306e565b6040516107a591906173d9565b60405180910390f35b6107c860048036038101906107c391906174c3565b613092565b005b6107e460048036038101906107df919061714b565b6130b3565b6040516107f19190617b7e565b60405180910390f35b610814600480360381019061080f919061714b565b61314f565b6040516108219190616d36565b60405180910390f35b6108326131f4565b60405161083f91906173d9565b60405180910390f35b610862600480360381019061085d9190617b9a565b613218565b60405161086f9190617086565b60405180910390f35b610892600480360381019061088d9190617bda565b6132ac565b005b6108ae60048036038101906108a99190617c71565b61334d565b005b6108ca60048036038101906108c59190617d65565b6133ea565b005b60008073ffffffffffffffffffffffffffffffffffffffff168373ffffffffffffffffffffffffffffffffffffffff160361093c576040517f08c379a000000000000000000000000000000000000000000000000000000000815260040161093390617e20565b60405180910390fd5b60c9600083815260200190815260200160002060008473ffffffffffffffffffffffffffffffffffffffff1673ffffffffffffffffffffffffffffffffffffffff16815260200190815260200160002054905092915050565b60606109c37f6ee76e36d18c83718506b17645b294b61a580ff88026d064e255f10cf8956d5b60001b6134a3565b6109ef7fba631e3d0a1d6ca0a85b3506aaf24b703d74d692d686e25ccc7112fd017ba86360001b6134a3565b610a1b7ff5fb852f6f8dd0352ea7d0a796c55b58e62448b58432a110261c1feb92d9bad160001b6134a3565b6000825167ffffffffffffffff811115610a3857610a37616d67565b5b604051908082528060200260200182016040528015610a665781602001602082028036833780820191505090505b509050610a947ecbda44fc8e80945bd4eaf86a15a3405977142996b60a20bfce2f6b2115d66760001b6134a3565b610ac07f21ea25f42788b13b55f21a0d5ee7dc08b6f67f08d788a61896e4db90069dcb6460001b6134a3565b60005b8351811015610b7857610af87f1483499c842728da705e2b369f1fc2849563f13567dde6768bc1114189a4217c60001b6134a3565b610b247f7f37fb6852bd791be01848de520c3119e13fdc48cd4340365d24a0bcce1a5da660001b6134a3565b610b4885858381518110610b3b57610b3a617e40565b5b60200260200101516108cc565b828281518110610b5b57610b5a617e40565b5b60200260200101818152505080610b7190617e9e565b9050610ac3565b50610ba57f80756cb832108f2040e1353a63f37ac222e9d4ee1d4a8144eb69a2e432dd512960001b6134a3565b610bd17f838ef8dc32a29aeff3341e18bc1262169368cf16ff8f0354ebff728751bdc49960001b6134a3565b8091505092915050565b6000610c097f49dc8e863c9a664a526b712e85c64d0f8b24b91e759f840001923ecddb7c29b460001b6134a3565b610c357f7592707db6960000ce30828da9ce0f742c3ba7efc8a119a06eb3c15e29bd7d2f60001b6134a3565b610c617fd19f5589e0d672b2f96c1554f4f5b8b04618407bf25e52ce65ccabe44d8dc76f60001b6134a3565b610c6a826134a6565b9050919050565b6101f78054610c7f90617f15565b80601f0160208091040260200160405190810160405280929190818152602001828054610cab90617f15565b8015610cf85780601f10610ccd57610100808354040283529160200191610cf8565b820191906000526020600020905b815481529060010190602001808311610cdb57829003601f168201915b505050505081565b606060cb8054610d0f90617f15565b80601f0160208091040260200160405190810160405280929190818152602001828054610d3b90617f15565b8015610d885780601f10610d5d57610100808354040283529160200191610d88565b820191906000526020600020905b815481529060010190602001808311610d6b57829003601f168201915b50505050509050919050565b610d9c616b51565b610dc87f141fa3e01fbb013c75fd9fa93dd570cec753cb7dc7061db14a52ea7e9501fcd060001b6134a3565b610df47f5cc0302ce56cfc9a0dc2f4b7888e30114c508d97ee6f44c974ab9576ce0f853960001b6134a3565b610e207f2e8b85b857c77df98d197155af52c6f2d5cf5f16104fe3e37aec6d09779589ba60001b6134a3565b6101fb60006101fa6000858152602001908152602001600020600001548152602001908152602001600020604051806080016040529081600082015481526020016001820160009054906101000a900473ffffffffffffffffffffffffffffffffffffffff1673ffffffffffffffffffffffffffffffffffffffff1673ffffffffffffffffffffffffffffffffffffffff168152602001600282015481526020016003820154815250509050919050565b610efd7fb388fd50ed9e2a845a3d84614b18e3fd728f087c09d6ae034347e1f01cde94ea60001b6134a3565b610f297fe51296d1ab9c087ea7bd455637545892af38a30009dcbef37509e64af970845060001b6134a3565b610f557f04789cd41fd88fe714c5e5acb25a93a96bc650bbdeaf8d30c47ccfaf83fa4d9160001b6134a3565b600082519050610f877f674e6bb68cfaa819649d97b7881be1094af14faf881fb73000ff0f5c4d4721b060001b6134a3565b610fb37fb7d933ed11018fb56a11e031429881a8fa85cb6f9c5ed5055d6e0cf4412a48b560001b6134a3565b8084511461104e57610fe77f098f06386ca0ac3390749f5c8e327fae63a72f122f41fc52d26235a36561173c60001b6134a3565b6110137fd0dab1517d293dabb06bc7a9af86399f774b8144e2fb4c464bd2fc9937e4721260001b6134a3565b6040517f616c411300000000000000000000000000000000000000000000000000000000815260040161104590617fde565b60405180910390fd5b61107a7f6a290ed058b8a6305bfbb36ea38a4f309ba7054fd509cdc5b6f3953f853a2e5b60001b6134a3565b6110a67fff6112e1524e5c395505a5fec7a683cf5af196ff7a6f8b6b0559a1b517fda7fe60001b6134a3565b6110d27fa6427015fb8d7422511d0a343081c687a251ace67f539f22d21a8209a4e44a1c60001b6134a3565b6000828060200190518101906110e891906180e1565b90506111167f13348e515473567add9d276135a879f03be93c139b11854a9c2f5aaafd1ff86b60001b6134a3565b6111427f772c38eae548395582cf586805300b6fa4579dc245cf54fc5751491cfde8a9ff60001b6134a3565b6000816000015190506111777f0e4e6bb21ddde1affe66bc98d679a77e239b2ea84f62923e60dc81f8ce9950df60001b6134a3565b6111a37f92824a089ecbff61810cf2d5dcbd4c9c16e829808598438808c8c31a825c1d8160001b6134a3565b6000826020015190506111d87f5de05c07bf007abc1ee601086b990df6e144ff4cd713790201227857690d168060001b6134a3565b6112047fa1abb7fc44a67a94c5b8db71303413603a5c1f5fa2c20f244f494aef3d7bd61960001b6134a3565b6000836040015190506112397f94c5f6a69cd7da3a32aa1288eab7233a7e2cf8214902089f6c6232a87f63475d60001b6134a3565b6112657fd20e786d617556821db6d06e398e9f5c9e1a9bb8778c95b5bf9e1681b4051d4460001b6134a3565b60008460800151905061129a7f02e693367d0459abfdf7316c9acc2206b7c71ab15ff38e08e398b6aec34e9d2c60001b6134a3565b6112c67f063168b116b0b10574da38d711f68efd3a0a6cb9919c16d2156d32b67cd3925b60001b6134a3565b6000856060015190506112fb7fb729840df3d86196f08ca6f98a47848173b1a79db6bfacc9acf5cecf09e0337760001b6134a3565b6113277fb7294beee369e62390fe7958e223f56d12232e4007a6910222d736f42f82872a60001b6134a3565b600085036113c45761135b7f13cf220dad39f25bdbd6d268913476759496879feca658af553318cf5302990d60001b6134a3565b6113877f7014381dfbfb21d6a2676e287665d18960291dc0f28daff00380bf0a011ad70860001b6134a3565b846040517fc88f99b40000000000000000000000000000000000000000000000000000000081526004016113bb9190616d36565b60405180910390fd5b6113f07ffdd88198d0bfc051b913bb4395a180f511af6cf1e6f4f69f7ae9aa0ce6747a5860001b6134a3565b61141c7f7deb24ec32afb34421f2fb3783638b8f17eaaae5acc3ed37a06e2d430f0a1ce360001b6134a3565b6114487feac9aea9b3e00d739bd34fae644db7952f70019201daf70062ec26b26898f2ad60001b6134a3565b60006101f654905061147c7f0e5c79b2b8045b7bf19c335b8c99c2477486354c74dd28501f50d3a6311e3a5860001b6134a3565b6114a87f4b7388bfcd71bd5324ccb108a53802165ae661389fd6d93f9f7bd55b11b9ca1060001b6134a3565b60005b888110156118c3576114df7f039d8363e38b21ca658ea87561802f5c6e752d21ab530ce97d4bf192668eea1160001b6134a3565b61150b7f602190a9bb95c68a3d7fa59d8228fa3e88314a18fcc7b3d08f01da2553e251b760001b6134a3565b60008b82815181106115205761151f617e40565b5b602002602001015190506115567f6c7dde61df3722771fce97ecd97bdd7d869f73b9dfb6754b133837bfd4cc495b60001b6134a3565b6115827f45276ee22ba47551b0ae2b4e05dd69bbc07240317843fd3799b095e5bf92944860001b6134a3565b6101f9600082815260200190815260200160002060009054906101000a900460ff161561163e576115d57f3522776ee9824f77acea1c356cb4f26c8b4ef1e77f4bc171b625f887be6eecb960001b6134a3565b6116017fd38d657777ba173990c360658f368ef0e8d411d4175646ca760dcaa450071e3b60001b6134a3565b806040517f4acb9c290000000000000000000000000000000000000000000000000000000081526004016116359190616d36565b60405180910390fd5b61166a7f1addaceb142a2cde46933902c2bc6ef8592d5d98069591fd28c46212c2a8486d60001b6134a3565b6116967f209382ba7d5ddb8fcc1bbd17dd217160e874a29b61db095f56833ac31fe6b9db60001b6134a3565b6116c27fc285eea3b64a8c24c275f87079cf16a3398581956878f7b36a70ae6e9f957bdb60001b6134a3565b876101fa60008381526020019081526020016000206000018190555061170a7ff41ee3bd701966ad36d83076fbc4a667b65627368e9a2c491bcaa74ef643d53b60001b6134a3565b6117367f651298994c2066eb12a629f01d911c1e572cdbb8edafe0af472d30c5571953b360001b6134a3565b856101fa60008381526020019081526020016000206001018190555061177e7f14ffde773a4807605635407375918b3dddc50e889f1ac75d10829d2e7d41855160001b6134a3565b6117aa7f82d5b0f398acb599de16fcd2629802ca70fd1f6a9dd3f2e64db05a2d88e8e28960001b6134a3565b60016101f9600083815260200190815260200160002060006101000a81548160ff0219169083151502179055506118037fa865b971fbac3149ac6b57332956e31f761ccaba67f78f2736cc5f772794f4dd60001b6134a3565b61182f7f15ec6e69b4bb96452080abfbc7a443f76b83219286d06dea2a730341eae8d56960001b6134a3565b806101f86000858152602001908152602001600020819055506118747f7e95379f8d53cc10468f6eb60e3be6ef5def429e815bd9f3613e214fd476fceb60001b6134a3565b6118a07f935468be525c1030b5d772ebef195827360589dac357cb861f3daae1415e11aa60001b6134a3565b6001836118ad919061810e565b92505080806118bb90617e9e565b9150506114ab565b506118f07f2a189be0619cd4fb82355a389b636ba0627008cd3f7f395ab160758f1f2a19b460001b6134a3565b61191c7f9c3ab4df0ea78ca636ff6b6440b698222c16ec372423cae4a80e461f8c4a4e7360001b6134a3565b60008a60008151811061193257611931617e40565b5b602002602001015190506119687ffef594d15b81cadd0bf04d7fb2cbdc3639034ed42fbb69d0a63b0d3e00592d0960001b6134a3565b6119947f3dd507feeecb9c4c0d746c900cf0fd607e77e0b75d1e9ce4df87e3fbf030fe3560001b6134a3565b816101f6819055506119c87f15ed553d6e05369d266a551255ec138bba4eafec70ba753633200644ff760bea60001b6134a3565b6119f47f18dddf9733736ad8340ddcc0970d09070cca4e1070d4a4daa0c1c63f7f9df92760001b6134a3565b6040518060800160405280878152602001611a0e836134b8565b73ffffffffffffffffffffffffffffffffffffffff168152602001611a3283613552565b60ff168152602001611a43836135f0565b60ff168152506101fb60008981526020019081526020016000206000820151816000015560208201518160010160006101000a81548173ffffffffffffffffffffffffffffffffffffffff021916908373ffffffffffffffffffffffffffffffffffffffff1602179055506040820151816002015560608201518160030155905050611af17fe2ba4f36fe7693fc61cfd5960a85f9d5bdaeb6a0e3529b302346c291c56f109e60001b6134a3565b611b1d7f112707f68eff827d6167242c60054fde30395fc647b412b1c2d29a189e6e923b60001b6134a3565b611b298d8c8e8d61368d565b611b557f01b17e980e01c1f9eb577af7b55a1820d24e895f42e438b2b495695adfa887ab60001b6134a3565b611b817f41c1f600d55b5bd5f4283a04d96ebd6afdd13322b8ace0e0523da48a3781178f60001b6134a3565b611b948d611b8d61370f565b6001611ecf565b611bc07f547a326760d5c2b98738d14abf61f9d91061951e44597e651803fc85fdd20ef660001b6134a3565b611bec7f33dd89823cec482cd919a23e049eb4ecc272c6df84cc268a86cd0af3b7e4802f60001b6134a3565b8315611c8857611c1e7fd00ec1f474a4906725cee5c332e0859890d750c02220d3c3962fece3629070e760001b6134a3565b611c4a7f847d668c70280c52fc1a073894d680d9c89d48c1ffc6564ef63e362cefa18f2560001b6134a3565b611c767fd8f156fa5436eb031579a42001411c86cf3ad25bebcb9fab72ed6337fd9cf43660001b6134a3565b611c838d848d8f8e611ce4565b611cb5565b611cb47f2b1f5fb20bd45a1fc2f1db577d4b1d83c1b8bc75930978a7d5fe50ab7d9eab6960001b6134a3565b5b50505050505050505050505050565b600060656000838152602001908152602001600020600101549050919050565b611d107f5533a4c4c42a885642d5ba5839f4108d1902e38db29d6684050b6aabd51883ad60001b6134a3565b611d3c7f2776d19a6f946d01ccb021b5f1050b42580552d22145b2e1e35f5259568571ba60001b6134a3565b611d687ffc435ef50390044adfb54b3faefb24675acddb66617fc571e71962f23526f71860001b6134a3565b60006101fa600085600081518110611d8357611d82617e40565b5b6020026020010151815260200190815260200160002060000154604051602001611dad9190616d36565b6040516020818303038152906040529050611dea7fdd7a7299163debc65dcbffc384b306b6209d3677089723de6478da7dbea212c860001b6134a3565b611e167f82d2e1df97ee1769e04ba1c02d5100a412cde4506d39e46e407d1bf6e842ed9860001b6134a3565b611e238686868685613717565b505050505050565b611e3482611cc4565b611e3d816137b8565b611e4783836137cc565b505050565b611e5461370f565b73ffffffffffffffffffffffffffffffffffffffff168173ffffffffffffffffffffffffffffffffffffffff1614611ec1576040517f08c379a0000000000000000000000000000000000000000000000000000000008152600401611eb8906181d6565b60405180910390fd5b611ecb8282613800565b5050565b6000801b611edc816137b8565b611ee46121f8565b15611f24576040517f08c379a0000000000000000000000000000000000000000000000000000000008152600401611f1b90618242565b60405180910390fd5b611f507f94c222b8abb72b2be3a015a4c0aac62e268b151dbabebf62ae3d96bfd2f9f6e960001b6134a3565b611f7c7fbb2859e1e1a3f8098833121c6f3993d739ca0787989438b227f895adb57ee89260001b6134a3565b611fa87fd8a3f181fbc78916176f2f51215ea7a1988ccd025d52efe72f23830bf0808f1e60001b6134a3565b611fb3848484613834565b50505050565b611fea7f65d7a28e3265b37a6474929f336521b332c1681b933f6cb9f3376673440d862a611fe561370f565b612795565b612029576040517f08c379a0000000000000000000000000000000000000000000000000000000008152600401612020906182d4565b60405180910390fd5b6120316139a0565b565b60006120617f1ed0b4d7e8879c86909ddc21914a7dbb550db8ec17a79a91b57f195703d2acf160001b6134a3565b61208d7fd7f977ded7bcbdd40630fdecde7571024cd4194d7d92d6fd4c4ecddde0a9f44060001b6134a3565b6120b97f9b57b9fdef52a0e265c169d47c381c9d059c02b1c7ef6d7c30574b25110b662560001b6134a3565b6120c38383613a43565b905092915050565b60608151835114612111576040517f08c379a000000000000000000000000000000000000000000000000000000000815260040161210890618366565b60405180910390fd5b6000835167ffffffffffffffff81111561212e5761212d616d67565b5b60405190808252806020026020018201604052801561215c5781602001602082028036833780820191505090505b50905060005b84518110156121d9576121a985828151811061218157612180617e40565b5b602002602001015185838151811061219c5761219b617e40565b5b60200260200101516108cc565b8282815181106121bc576121bb617e40565b5b602002602001018181525050806121d290617e9e565b9050612162565b508091505092915050565b6000806121f08361302c565b119050919050565b600061012d60009054906101000a900460ff16905090565b6000801b61221d816137b8565b6122497fbbbc746098fdc7127442e66989b8f58fa0369bf932c2c0c5460772e14cf8290e60001b6134a3565b6122757fc42d69caaa94839115fa67bd9e114384c3eca7563d0785d5df273acdbe5410f760001b6134a3565b6122a17fa339601b601c727edad6223e45a61ba6d599ceebe936a491faa26691df07ddeb60001b6134a3565b816101f560006101000a81548173ffffffffffffffffffffffffffffffffffffffff021916908373ffffffffffffffffffffffffffffffffffffffff1602179055505050565b6122ef61370f565b73ffffffffffffffffffffffffffffffffffffffff168373ffffffffffffffffffffffffffffffffffffffff16148061233557506123348361232f61370f565b613218565b5b612374576040517f08c379a000000000000000000000000000000000000000000000000000000000815260040161236b906183f8565b60405180910390fd5b61237f8383836143c5565b505050565b6123b07fc5e3031b1c88ced953dc8f5c97fa1d8970c49366896ac5acf2ef35c9858e49e860001b6134a3565b6123dc7fc2a552f96fa3c0dd8903a0bda827ba05195f19776030c15ade922c53bbf0459460001b6134a3565b6124087f6c222b3a029480e25650cf74fc2ee275573e770d2c8f982b29df7aa553a297b060001b6134a3565b6040517f08c379a000000000000000000000000000000000000000000000000000000000815260040161243a90618464565b60405180910390fd5b6101f86020528060005260406000206000915090505481565b60006124686001614695565b9050801561248c576001600060016101000a81548160ff0219169083151502179055505b6124b87f2b8822d9ffec22bf52034b3a77fffc1b6b720f80b557e17531b9adb61115da9660001b6134a3565b6124e47f065d0633a3314a51939f001752c2767425ab02f26345a4a958b5ffe38b0e384f60001b6134a3565b6125107f6a2850e43efbb791413bac40b00558029db5001fa3ca55d2db0d938179bac1fe60001b6134a3565b612531604051806060016040528060268152602001619b78602691396133ea565b61255d7f32570610129a259c076652d635bd735955273c20bd7694f70c30163e3b1737f460001b6134a3565b6125897fe2b17e3ded994ad8dd0b4c1f881f5e696f6ad97188c76cfd13d086f9a818b40860001b6134a3565b612591614785565b6125bd7fdf56a84a8231129861a03a1f457f7d1ec5b5fbf2900cf1a611ce39d3339e57d160001b6134a3565b6125e97f1562007888bde475b40528653bfdc38bddbaecaff73b28fdc47842086c20ec2e60001b6134a3565b60006101f68190555061261e7f5b2f9c77f4e3eaea70c086c2b77b729522affe79a198e504b127f718286a473960001b6134a3565b61264a7f6c6a8b521550b60f74b3ca07f38d8b45f742791597d0dcf758023dfaeb25771460001b6134a3565b6040518060400160405280600781526020017f52656d6f76616c000000000000000000000000000000000000000000000000008152506101f7908161268f9190618630565b5080156126e95760008060016101000a81548160ff0219169083151502179055507f7f26b83ff96e1f2b6a682f133852f6798a09c465da95921460cefb384740249860016040516126e0919061873d565b60405180910390a15b50565b61271d7f65d7a28e3265b37a6474929f336521b332c1681b933f6cb9f3376673440d862a61271861370f565b612795565b61275c576040517f08c379a0000000000000000000000000000000000000000000000000000000008152600401612753906187ca565b60405180910390fd5b6127646147d6565b565b600061278d826097600086815260200190815260200160002061487a90919063ffffffff16565b905092915050565b60006065600084815260200190815260200160002060000160008373ffffffffffffffffffffffffffffffffffffffff1673ffffffffffffffffffffffffffffffffffffffff16815260200190815260200160002060009054906101000a900460ff16905092915050565b6101f65481565b61280f616b51565b61283b7f0d2ac675e1d87b107fb6ab99db62af8b25aede876ca711e78ad26b5aa87f57a460001b6134a3565b6128677f939dc0f6830dc91dd6d406386a63c581c531f4d0fbe743d0e2c4f667ce3e7ac460001b6134a3565b6128937f7536152545898ea2e991fbbe810deb9acfc30a941cb0419609def0f2ff62970460001b6134a3565b6101fb6000838152602001908152602001600020604051806080016040529081600082015481526020016001820160009054906101000a900473ffffffffffffffffffffffffffffffffffffffff1673ffffffffffffffffffffffffffffffffffffffff1673ffffffffffffffffffffffffffffffffffffffff168152602001600282015481526020016003820154815250509050919050565b6000801b81565b61294661293f61370f565b8383613834565b5050565b6129767fb00ce341deba9cf192972a6381c91cce4d0332277bdacde623d6007b265ffc5d60001b6134a3565b6129a27f717dac213ac42e95237531a384435249dca18705398da35caf7f209b4198094560001b6134a3565b6129ce7fee89ccd8d2286114572fae1daa68cc683a720bc894a9a61c4822c7ea506c980360001b6134a3565b60005b83839050811015612c1957612a087f36b3795b82b8f8d668fa714730818a97e457036cd8e34b608d84e38fae71eb1a60001b6134a3565b612a347f49f77e7e55ebc43962f5bd1b4bd25d112f4b2d62cc361a267ba54cdefbf51d3260001b6134a3565b6000848483818110612a4957612a48617e40565b5b905060200201359050612a7e7f788b5246eae7bdcf2e952717b0bb699746cafabfd58d0d7e2a9ac1c48b6871da60001b6134a3565b612aaa7f94edde03d01f2055111e87f0bcc6e3bb8af18426e7a2e763ad1eab59d4fd138a60001b6134a3565b6101f9600082815260200190815260200160002060009054906101000a900460ff16612b6557612afc7fab44f41527772d91e2bd4d21ef68fed8eac3a36d0a9a16fbece617e97dc83fb260001b6134a3565b612b287f3c1f863f2fc78b52e56d5d9c600e13cdcc27f6a63593b9b4fa6fac831f006da560001b6134a3565b806040517f3374f12d000000000000000000000000000000000000000000000000000000008152600401612b5c9190616d36565b60405180910390fd5b612b917fe015e9e8b0677a2c13acdcf0da85ab8ecc43909a5dc52249b5f312063022576560001b6134a3565b612bbd7f3a83d14c0b40b8d24135f26f67b6be8697438bc33bda523210c9acafb7de3ddb60001b6134a3565b612be97f52409175d0fe2b4541608ba96485ac35c20cb9f9e7a8665cf01a71be776f118960001b6134a3565b826101fa600083815260200190815260200160002060010181905550508080612c1190617e9e565b9150506129d1565b50505050565b6060612c4d7fe76993b2b87e377abe872f811064d45c4e8d6b4ba18ce8371fe7014f68c9f91360001b6134a3565b612c797f68884cce610155556dd7bb3eb7a34febe68e60ba9eaa2363289ad17bd1caefbe60001b6134a3565b612ca57f5dba9afb25369fd808140299dcfa9c5c307e33f30398f7bf3560e309388cf64b60001b6134a3565b6000825167ffffffffffffffff811115612cc257612cc1616d67565b5b604051908082528060200260200182016040528015612cf05781602001602082028036833780820191505090505b509050612d1f7fc202780e62f046a1c2f922026731baa1ee47c1810d65cf1bab2292f6693c069c60001b6134a3565b612d4b7f8bfc392e479c55efff392a99e739a6a42cbad1253dbe0a98983cf7bab9f89dde60001b6134a3565b60005b8351811015612fca57612d837ff627be9e698bb21220931c2c4d97c74d98495d80a00870b60589c91bae5cd83a60001b6134a3565b612daf7f5013c2f8fee61c20a71fc6de28cae67998368369dd125b910c1920ebb912890360001b6134a3565b6000848281518110612dc457612dc3617e40565b5b60200260200101519050612dfa7f4d1af13e9b677832294dc42a793943d1aa08f0ee5533049e9b36b5c726e0090260001b6134a3565b612e267f0954c898a90148d34e0f292ce0b7912b311701baccf6150d8c6904e2c3ce014860001b6134a3565b6101f9600082815260200190815260200160002060009054906101000a900460ff16612ee157612e787f0f27a1195f775ead0b01694cfe03de82baee5334d111efb321a71690c22fdfa360001b6134a3565b612ea47fa48c8262d522e472b988472e8ad82db77ef20e1c4839c183d2290acf01b5a41c60001b6134a3565b806040517f3374f12d000000000000000000000000000000000000000000000000000000008152600401612ed89190616d36565b60405180910390fd5b612f0d7fc05247c0a30e6abb24a3e4a0c915938b48b0acca4b5362f4e4770a948b2b701460001b6134a3565b612f397febffc8786980489084554312cd1cd33c3b044b6c771ab23b915f9f3c5dd3df5860001b6134a3565b612f657f2396d362aaef1247b4009a72d55e270a51b1ae5e395ee2d67da71b281c84d7d760001b6134a3565b6101fa6000868481518110612f7d57612f7c617e40565b5b6020026020010151815260200190815260200160002060010154838381518110612faa57612fa9617e40565b5b602002602001018181525050508080612fc290617e9e565b915050612d4e565b50612ff77f04715582b64e32b7d9e3db7266973798c359fe363b65e6bb96436a69fbf36ffe60001b6134a3565b6130237f01b40688847dec1bfe9754eb27b0aad8423edd926191c7817365328eb18f890c60001b6134a3565b80915050919050565b60006101c36000838152602001908152602001600020549050919050565b600061306760976000848152602001908152602001600020614894565b9050919050565b7f9f2df0fed2c77648de5860a4cc508cd0818c85b8b8a1ab4ceeef8d981c8956a681565b61309b82611cc4565b6130a4816137b8565b6130ae8383613800565b505050565b6130bb616b8f565b6130e77f953a77dbc97f02cab89360fe58cb33aad0f12946586d45de8dbcbaafa8acee3c60001b6134a3565b6131137f8dc0a1580f0c85205ebae98ba90644581a92315dabcc6546d58ffcff164a647860001b6134a3565b61313f7f9560efa8b498ca8ecc70e6e9632bb463916587c0056ceec76691794a3a54e2ac60001b6134a3565b613148826148a9565b9050919050565b600061317d7fdc82600b32df58e739185687351699670429ce33b21d24237150ddb047f011be60001b6134a3565b6131a97f9695a51a8be54edaaaac674b675db2e2d729b44464ba2b8651160df5287d7a0c60001b6134a3565b6131d57fed485fd137f082a4fbe41e95cc62d532c84d85c3a2172ada9db41c9fe0113b3260001b6134a3565b6101fa6000838152602001908152602001600020600001549050919050565b7f65d7a28e3265b37a6474929f336521b332c1681b933f6cb9f3376673440d862a81565b600060ca60008473ffffffffffffffffffffffffffffffffffffffff1673ffffffffffffffffffffffffffffffffffffffff16815260200190815260200160002060008373ffffffffffffffffffffffffffffffffffffffff1673ffffffffffffffffffffffffffffffffffffffff16815260200190815260200160002060009054906101000a900460ff16905092915050565b6132b461370f565b73ffffffffffffffffffffffffffffffffffffffff168573ffffffffffffffffffffffffffffffffffffffff1614806132fa57506132f9856132f461370f565b613218565b5b613339576040517f08c379a0000000000000000000000000000000000000000000000000000000008152600401613330906183f8565b60405180910390fd5b6133468585858585614a21565b5050505050565b61335561370f565b73ffffffffffffffffffffffffffffffffffffffff168373ffffffffffffffffffffffffffffffffffffffff16148061339b575061339a8361339561370f565b613218565b5b6133da576040517f08c379a00000000000000000000000000000000000000000000000000000000081526004016133d1906183f8565b60405180910390fd5b6133e5838383614cbf565b505050565b60006133f66001614695565b9050801561341a576001600060016101000a81548160ff0219169083151502179055505b61342382614f07565b801561347c5760008060016101000a81548160ff0219169083151502179055507f7f26b83ff96e1f2b6a682f133852f6798a09c465da95921460cefb38474024986001604051613473919061873d565b60405180910390a15b5050565b6000808273ffffffffffffffffffffffffffffffffffffffff163b119050919050565b50565b60006134b182614f73565b9050919050565b60006134e67fd9dc930eb876c61d42137572829d2c9d65bec912ca8a2e35c51991a549842b3660001b615055565b6135127ffef970e2c43aed89704325fe57cbc6a745d39527a354b119d55988c27a519b0560001b615055565b61353e7fa92b4c3e4f14ff96219eeca476140c5eaa6de75763efdd0f9499eaee6869b4d860001b615055565b61354b8260146004615058565b9050919050565b60006135807f5c810c06761b121387444f29b4e01dc3d5c7ab03474df053681df5b995e8c98260001b615055565b6135ac7f286a412f44c48cd3ece9461f606e53bc86922ee3d2f8a0412b3631c3d1a183a560001b615055565b6135d87f7664e71c1aea5a342f6ab6cbbe93731a3b972268b5f98bd8160ac7f402cfb92e60001b615055565b60046135e7836001601e615058565b901c9050919050565b600061361e7f17a8a4fb1673c6b11727b153d98115fc258f1b8396082db4e2a7264281f7a49960001b615055565b61364a7f6255982d2e84ddea88d1fc78d1ddf0f40788fa5761b80169f7bd44a8b4412b3060001b615055565b6136767f570d6480f852be97169cd6d76f2c012c4f9ff734c3fec22d43abd61cb642bdfa60001b615055565b600f613685836001601e615058565b169050919050565b6136be7f9f2df0fed2c77648de5860a4cc508cd0818c85b8b8a1ab4ceeef8d981c8956a66136b961370f565b612795565b6136fd576040517f08c379a00000000000000000000000000000000000000000000000000000000081526004016136f49061885c565b60405180910390fd5b613709848484846151f1565b50505050565b600033905090565b61371f61370f565b73ffffffffffffffffffffffffffffffffffffffff168573ffffffffffffffffffffffffffffffffffffffff16148061376557506137648561375f61370f565b613218565b5b6137a4576040517f08c379a000000000000000000000000000000000000000000000000000000000815260040161379b906188ee565b60405180910390fd5b6137b1858585858561541e565b5050505050565b6137c9816137c461370f565b615742565b50565b6137d682826157df565b6137fb81609760008581526020019081526020016000206158c090919063ffffffff16565b505050565b61380a82826158f0565b61382f81609760008581526020019081526020016000206159d290919063ffffffff16565b505050565b8173ffffffffffffffffffffffffffffffffffffffff168373ffffffffffffffffffffffffffffffffffffffff16036138a2576040517f08c379a000000000000000000000000000000000000000000000000000000000815260040161389990618980565b60405180910390fd5b8060ca60008573ffffffffffffffffffffffffffffffffffffffff1673ffffffffffffffffffffffffffffffffffffffff16815260200190815260200160002060008473ffffffffffffffffffffffffffffffffffffffff1673ffffffffffffffffffffffffffffffffffffffff16815260200190815260200160002060006101000a81548160ff0219169083151502179055508173ffffffffffffffffffffffffffffffffffffffff168373ffffffffffffffffffffffffffffffffffffffff167f17307eab39ab6107e8899845ad3d59bd9653f200f220920489ca2b5937696c31836040516139939190617086565b60405180910390a3505050565b6139a86121f8565b6139e7576040517f08c379a00000000000000000000000000000000000000000000000000000000081526004016139de906189ec565b60405180910390fd5b600061012d60006101000a81548160ff0219169083151502179055507f5db9ee0a495bf2e6ff9c91a7834c1ba4fdd244a5e8aa4e537bd38aeae4b073aa613a2c61370f565b604051613a3991906178ef565b60405180910390a1565b6000613a717fe229a0b21b25b3079058c0e2c23ebfbf56e045bc9ea0e560e78208de2f4b43e560001b615055565b613a9d7f90c4d1ab79031bd8103aefc24e5234982590f52280865420d9529d3a57cd78e960001b615055565b613ac97fa3336f85b34628c4013de12aed5d8a84e6fd9a3b797cc9a0fea0a28fd1b9db0e60001b615055565b60008383810190613ada9190618a38565b60ff169050613b0b7f25e27d84780c13a8352f571aaa8580b637656ae01f9f6836a1a141ce1bfc646660001b615055565b613b377fb08027e95dffcad151cde94453c243a7d1637a5e4080ac7126c58074ef9a04e960001b615055565b613b637fc4822580ea77216039d98a66a9878dbaaad6615d7708f36e1a85735daeb7ce3460001b615055565b60008114613ba6576040517f08c379a0000000000000000000000000000000000000000000000000000000008152600401613b9d90618ad7565b60405180910390fd5b613bd27fac4d2811251ae7aa884744d9b06855c1355d39abf05aba2e1dfb63745db6bc8460001b615055565b613bfe7fa2b70e8561eef596b9d7df1b08184823419695c8f6fe8deb024cdca3f7ca797360001b615055565b613c2a7f8b1594776f248d8a5975da95b1b45e3f1e9027451b357fd39a81fcea67cea4ff60001b615055565b613c567f0f5443b6a0911f009ad17b67347358bb88bf31e0a34e5aa77e38fbc4b8da7e9860001b615055565b6101008484905014613c9d576040517f08c379a0000000000000000000000000000000000000000000000000000000008152600401613c9490618b69565b60405180910390fd5b613cc97f6c4f2138ce03647fe7fb1b2b40d477f821d0426368c8706791835441682cd5f960001b615055565b613cf57f9b20cfadd1ebea1d974f6a8cc7e6c67efdecec064264ec6f61a014b3f316e84760001b615055565b613d217f96e954fb4d6f844b0c9e35a96c138f4f860af7598eeaf4a13be983e34b9983dc60001b615055565b60008484810190613d329190618cd7565b9050613d607f788b922a43bf0dd1d160b6d823b07b166bd4c7380cfcfca0078e35303ca19d9b60001b615055565b613d8c7fbcfe09c17d2985b19617144dfae724e5e42a7b6d63fae27458ba52cdde4dabc660001b615055565b613db87fa44c9de73d40194bcb7d92ba5135f20049d046c4d10384f4ec5cdf7edcd47b7d60001b615055565b600f816020015160ff161115613e03576040517f08c379a0000000000000000000000000000000000000000000000000000000008152600401613dfa90618d51565b60405180910390fd5b613e2f7f3b7a75afc27aa473155c80c142aa6d3f3156231ef92e5f194d3e7d098f58ed4260001b615055565b613e5b7f1c0e8196682585986e0855a5e80e91416eb71bf6bd2ed94f2b154173ab2a6d9660001b615055565b613e877f9c1f072d0d1472db62c7a8b04c4bd16f9eb60b01d53a5cb24c054542a409602260001b615055565b613eb37f7b2d7f4f3866993670c07dc56b28231d66831b7d969c023d8eddeac11b3aad3560001b615055565b600f816040015160ff161115613efe576040517f08c379a0000000000000000000000000000000000000000000000000000000008152600401613ef590618dbd565b60405180910390fd5b613f2a7ff74808b6f68754539afbbbe4772872e8f8c4fba3e0a77b4eccca23a758fdccbf60001b615055565b613f567ff447b80243ab2850d51e211ae35ac3fa14c38fd75e3abfd29259c6f583b41ffc60001b615055565b613f827fe659f6ea491cf017aeae8eac0c94a2c2ba04d3120ae4fbf0773be69c02edee9760001b615055565b60006008826080015160f01c61ffff16901c9050613fc27ff56dd6eda747829a1afe6fad8776dfb714b0b6a1f66188b99c8f97eaa5fbc72560001b615055565b613fee7f059e2a72069da9aa32bff58920be0d663540af9efca020768e043b8885bc3a1760001b615055565b600060ff836080015160f01c61ffff1616905061402d7fd5a06ab33f29b718caf484a2eed3b3f3998012cd4dcab5528dcc868c84cfd7d960001b615055565b6140597f9b1d4aa8ad194c0f0bb3512490db07b91f868553a4ac44f3fb1acd66a4f6a07560001b615055565b600060088460a0015160f01c61ffff16901c90506140997ff6b79103e8c78ba0001ae70d08c78f4d0a113e5a3985162a880b188f7087ae1f60001b615055565b6140c57fdf86fe3daf730e8dedf682a95d36126e587206b69414dedacd49dd586fa395b160001b615055565b600060ff8560a0015160f01c61ffff161690506141047f9b2d19d32625b7696ea1a8cd7dbf191a4cdddbe2fc95003fc668dfcd4f133c9a60001b615055565b6141307f75138d8410212a050adbc8581b26cc913fb5cde8863411184b94bf17d67e96b960001b615055565b61415c7fbc78190b58da4fe51a2ab9557c6a08be2fe3ec8d646b2ce7efb6a0df7e6fa9a760001b615055565b6041841015801561416e5750605a8411155b801561417b575060418310155b80156141885750605a8311155b8015614195575060418210155b80156141a25750605a8211155b80156141af575060418110155b80156141bc5750605a8111155b6141fb576040517f08c379a00000000000000000000000000000000000000000000000000000000081526004016141f290618e29565b60405180910390fd5b6142277f58b7c945bbdf0b5891be55ffa0bf263f4b95e73f2dff15bd7fde43ff8e55347760001b615055565b6142537f3f0dc58a4fff5fc35cc2e2fa3647b0e9d7abbe180fa16192af6252aa3718fa9d60001b615055565b61427f7f6bee725e8c423df9145980c756d5327ae9c13a10aee0de63a267f56148cf159260001b615055565b600085604001516004876020015160ff16901b1760ff1690506142c47f549d095567b6f5ca8be74ba591ea956b9ec04eacaf35bfa6683ee39ed337ed2860001b615055565b6142f07fa20d9c6e9a64b2a0480899110134c99c3c6ac2a034d26c5ec955af5578db524660001b615055565b600860006142fe9190618e49565b8660e0015163ffffffff16901b600860046143199190618e49565b8760c0015173ffffffffffffffffffffffffffffffffffffffff16901b600860186143449190618e49565b8860a0015160f01c61ffff16901b6008601a6143609190618e49565b896080015160f01c61ffff16901b6008601c61437c9190618e49565b8a6060015161ffff16901b6008601e6143959190618e49565b86901b6008601f6143a69190618e49565b8c6000015160ff16901b17171717171797505050505050505092915050565b600073ffffffffffffffffffffffffffffffffffffffff168373ffffffffffffffffffffffffffffffffffffffff1603614434576040517f08c379a000000000000000000000000000000000000000000000000000000000815260040161442b90618f15565b60405180910390fd5b8051825114614478576040517f08c379a000000000000000000000000000000000000000000000000000000000815260040161446f90618fa7565b60405180910390fd5b600061448261370f565b90506144a281856000868660405180602001604052806000815250615a02565b60005b83518110156145f15760008482815181106144c3576144c2617e40565b5b6020026020010151905060008483815181106144e2576144e1617e40565b5b60200260200101519050600060c9600084815260200190815260200160002060008973ffffffffffffffffffffffffffffffffffffffff1673ffffffffffffffffffffffffffffffffffffffff16815260200190815260200160002054905081811015614584576040517f08c379a000000000000000000000000000000000000000000000000000000000815260040161457b90619039565b60405180910390fd5b81810360c9600085815260200190815260200160002060008a73ffffffffffffffffffffffffffffffffffffffff1673ffffffffffffffffffffffffffffffffffffffff1681526020019081526020016000208190555050505080806145e990617e9e565b9150506144a5565b50600073ffffffffffffffffffffffffffffffffffffffff168473ffffffffffffffffffffffffffffffffffffffff168273ffffffffffffffffffffffffffffffffffffffff167f4a39dc06d4c0dbc64b70af90fd698a233a518aa5d07e595d983b8c0526c8f7fb8686604051614669929190619059565b60405180910390a461468f81856000868660405180602001604052806000815250615a9c565b50505050565b60008060019054906101000a900460ff161561470c5760018260ff161480156146c457506146c230613480565b155b614703576040517f08c379a00000000000000000000000000000000000000000000000000000000081526004016146fa90619102565b60405180910390fd5b60009050614780565b8160ff1660008054906101000a900460ff1660ff1610614761576040517f08c379a000000000000000000000000000000000000000000000000000000000815260040161475890619102565b60405180910390fd5b816000806101000a81548160ff021916908360ff160217905550600190505b919050565b600060019054906101000a900460ff166147d4576040517f08c379a00000000000000000000000000000000000000000000000000000000081526004016147cb90619194565b60405180910390fd5b565b6147de6121f8565b1561481e576040517f08c379a000000000000000000000000000000000000000000000000000000000815260040161481590618242565b60405180910390fd5b600161012d60006101000a81548160ff0219169083151502179055507f62e78cea01bee320cd4e420270b5ea74000d11b0c9f74754ebdbfc544b05a25861486361370f565b60405161487091906178ef565b60405180910390a1565b60006148898360000183615aa4565b60001c905092915050565b60006148a282600001615acf565b9050919050565b6148b1616b8f565b6148dd7f731a8fcd0fe63a45ba97f6416171af418564cde79e1462f5c190277a71a40a1960001b615055565b6149097f39310894f1ba570c2aae43d6d73261549410ecf04f0734781cf9721ed444824560001b615055565b6149357fe8d344031cc9df75e6f357057cba3b16202205d5ea3af4a4140a2486127dd5c360001b615055565b60405180610100016040528061494a84615ae0565b60ff16815260200161495b84613552565b60ff16815260200161496c846135f0565b60ff16815260200161497d84615b7a565b61ffff16815260200161498f84615c14565b7dffffffffffffffffffffffffffffffffffffffffffffffffffffffffffff191681526020016149be84615cb1565b7dffffffffffffffffffffffffffffffffffffffffffffffffffffffffffff191681526020016149ed846134b8565b73ffffffffffffffffffffffffffffffffffffffff168152602001614a1184615d4e565b63ffffffff168152509050919050565b600073ffffffffffffffffffffffffffffffffffffffff168473ffffffffffffffffffffffffffffffffffffffff1603614a90576040517f08c379a0000000000000000000000000000000000000000000000000000000008152600401614a8790619226565b60405180910390fd5b6000614a9a61370f565b90506000614aa785615de8565b90506000614ab485615de8565b9050614ac4838989858589615a02565b600060c9600088815260200190815260200160002060008a73ffffffffffffffffffffffffffffffffffffffff1673ffffffffffffffffffffffffffffffffffffffff16815260200190815260200160002054905085811015614b5c576040517f08c379a0000000000000000000000000000000000000000000000000000000008152600401614b53906192b8565b60405180910390fd5b85810360c9600089815260200190815260200160002060008b73ffffffffffffffffffffffffffffffffffffffff1673ffffffffffffffffffffffffffffffffffffffff168152602001908152602001600020819055508560c9600089815260200190815260200160002060008a73ffffffffffffffffffffffffffffffffffffffff1673ffffffffffffffffffffffffffffffffffffffff1681526020019081526020016000206000828254614c13919061810e565b925050819055508773ffffffffffffffffffffffffffffffffffffffff168973ffffffffffffffffffffffffffffffffffffffff168573ffffffffffffffffffffffffffffffffffffffff167fc3d58168c5ae7397731d063d5bbf3d657854427343f4c083240f7aacaa2d0f628a8a604051614c909291906192d8565b60405180910390a4614ca6848a8a86868a615a9c565b614cb4848a8a8a8a8a615e62565b505050505050505050565b600073ffffffffffffffffffffffffffffffffffffffff168373ffffffffffffffffffffffffffffffffffffffff1603614d2e576040517f08c379a0000000000000000000000000000000000000000000000000000000008152600401614d2590618f15565b60405180910390fd5b6000614d3861370f565b90506000614d4584615de8565b90506000614d5284615de8565b9050614d7283876000858560405180602001604052806000815250615a02565b600060c9600087815260200190815260200160002060008873ffffffffffffffffffffffffffffffffffffffff1673ffffffffffffffffffffffffffffffffffffffff16815260200190815260200160002054905084811015614e0a576040517f08c379a0000000000000000000000000000000000000000000000000000000008152600401614e0190619039565b60405180910390fd5b84810360c9600088815260200190815260200160002060008973ffffffffffffffffffffffffffffffffffffffff1673ffffffffffffffffffffffffffffffffffffffff16815260200190815260200160002081905550600073ffffffffffffffffffffffffffffffffffffffff168773ffffffffffffffffffffffffffffffffffffffff168573ffffffffffffffffffffffffffffffffffffffff167fc3d58168c5ae7397731d063d5bbf3d657854427343f4c083240f7aacaa2d0f628989604051614ed89291906192d8565b60405180910390a4614efe84886000868660405180602001604052806000815250615a9c565b50505050505050565b600060019054906101000a900460ff16614f56576040517f08c379a0000000000000000000000000000000000000000000000000000000008152600401614f4d90619194565b60405180910390fd5b614f5f81616039565b614f67616094565b614f7081616101565b50565b60007fd9b67a26000000000000000000000000000000000000000000000000000000007bffffffffffffffffffffffffffffffffffffffffffffffffffffffff1916827bffffffffffffffffffffffffffffffffffffffffffffffffffffffff1916148061503e57507f0e89341c000000000000000000000000000000000000000000000000000000007bffffffffffffffffffffffffffffffffffffffffffffffffffffffff1916827bffffffffffffffffffffffffffffffffffffffffffffffffffffffff1916145b8061504e575061504d826161c9565b5b9050919050565b50565b60006150867f3821661ef88da6147169d6eda6b7a00a3d891657186b66e0284b70c04567f1e460001b615055565b6150b27fa58ffd111498d0da0877910b06617ba24e531bc7a64f346a1647b4d192c5adc660001b615055565b6150de7f7117a113f83d6f65f3a6d51b2d1b4c77ace852b714a5bf51550ba0db9adda53060001b615055565b60006008836150ed9190618e49565b60016008866150fc9190618e49565b60026151089190619434565b615112919061947f565b60001b901b90506151457f353683d26a6561f07b717fbc9314fd4c9e5f84b10920c9eb01c93034f03b056660001b615055565b6151717faebdd4ed55d157d6ae26e0e0532aae3f8fc8863d670af2eeccd528efd817019860001b615055565b6000818660001b1690506151a77fb4d73b3a10223149da38cd2b443c2cdc6f1af5778e26e9208455d09ceb9994e460001b615055565b6151d37f8582f0e2c5ce681163decbd225b36e6adbf9cb30f839b7edb3a3b3dadf90ec0b60001b615055565b6008846151e09190618e49565b81901c60001c925050509392505050565b600073ffffffffffffffffffffffffffffffffffffffff168473ffffffffffffffffffffffffffffffffffffffff1603615260576040517f08c379a000000000000000000000000000000000000000000000000000000000815260040161525790619525565b60405180910390fd5b81518351146152a4576040517f08c379a000000000000000000000000000000000000000000000000000000000815260040161529b90618fa7565b60405180910390fd5b60006152ae61370f565b90506152bf81600087878787615a02565b60005b8451811015615379578381815181106152de576152dd617e40565b5b602002602001015160c960008784815181106152fd576152fc617e40565b5b6020026020010151815260200190815260200160002060008873ffffffffffffffffffffffffffffffffffffffff1673ffffffffffffffffffffffffffffffffffffffff168152602001908152602001600020600082825461535f919061810e565b92505081905550808061537190617e9e565b9150506152c2565b508473ffffffffffffffffffffffffffffffffffffffff16600073ffffffffffffffffffffffffffffffffffffffff168273ffffffffffffffffffffffffffffffffffffffff167f4a39dc06d4c0dbc64b70af90fd698a233a518aa5d07e595d983b8c0526c8f7fb87876040516153f1929190619059565b60405180910390a461540881600087878787615a9c565b61541781600087878787616243565b5050505050565b8151835114615462576040517f08c379a000000000000000000000000000000000000000000000000000000000815260040161545990618fa7565b60405180910390fd5b600073ffffffffffffffffffffffffffffffffffffffff168473ffffffffffffffffffffffffffffffffffffffff16036154d1576040517f08c379a00000000000000000000000000000000000000000000000000000000081526004016154c890619226565b60405180910390fd5b60006154db61370f565b90506154eb818787878787615a02565b60005b845181101561569f57600085828151811061550c5761550b617e40565b5b60200260200101519050600085838151811061552b5761552a617e40565b5b60200260200101519050600060c9600084815260200190815260200160002060008b73ffffffffffffffffffffffffffffffffffffffff1673ffffffffffffffffffffffffffffffffffffffff168152602001908152602001600020549050818110156155cd576040517f08c379a00000000000000000000000000000000000000000000000000000000081526004016155c4906192b8565b60405180910390fd5b81810360c9600085815260200190815260200160002060008c73ffffffffffffffffffffffffffffffffffffffff1673ffffffffffffffffffffffffffffffffffffffff168152602001908152602001600020819055508160c9600085815260200190815260200160002060008b73ffffffffffffffffffffffffffffffffffffffff1673ffffffffffffffffffffffffffffffffffffffff1681526020019081526020016000206000828254615684919061810e565b925050819055505050508061569890617e9e565b90506154ee565b508473ffffffffffffffffffffffffffffffffffffffff168673ffffffffffffffffffffffffffffffffffffffff168273ffffffffffffffffffffffffffffffffffffffff167f4a39dc06d4c0dbc64b70af90fd698a233a518aa5d07e595d983b8c0526c8f7fb8787604051615716929190619059565b60405180910390a461572c818787878787615a9c565b61573a818787878787616243565b505050505050565b61574c8282612795565b6157db576157718173ffffffffffffffffffffffffffffffffffffffff16601461641a565b61577f8360001c602061641a565b604051602001615790929190619619565b6040516020818303038152906040526040517f08c379a00000000000000000000000000000000000000000000000000000000081526004016157d29190617129565b60405180910390fd5b5050565b6157e98282612795565b6158bc5760016065600084815260200190815260200160002060000160008373ffffffffffffffffffffffffffffffffffffffff1673ffffffffffffffffffffffffffffffffffffffff16815260200190815260200160002060006101000a81548160ff02191690831515021790555061586161370f565b73ffffffffffffffffffffffffffffffffffffffff168173ffffffffffffffffffffffffffffffffffffffff16837f2f8788117e7eff1d82e926ec794901d17c78024a50270940304540a733656f0d60405160405180910390a45b5050565b60006158e8836000018373ffffffffffffffffffffffffffffffffffffffff1660001b616656565b905092915050565b6158fa8282612795565b156159ce5760006065600084815260200190815260200160002060000160008373ffffffffffffffffffffffffffffffffffffffff1673ffffffffffffffffffffffffffffffffffffffff16815260200190815260200160002060006101000a81548160ff02191690831515021790555061597361370f565b73ffffffffffffffffffffffffffffffffffffffff168173ffffffffffffffffffffffffffffffffffffffff16837ff6391f5c32d9c69d2a47ea670b442974b53935d1edc7fd64eb21e047a839171b60405160405180910390a45b5050565b60006159fa836000018373ffffffffffffffffffffffffffffffffffffffff1660001b6166c6565b905092915050565b615a2e7f290851b4c2b3cb8aa6e100a4f5d2141aabca366d680106c921478a7f3ee252f860001b6134a3565b615a5a7fca104a1313b06d3eecaa24e89f445e30016420b7a2b4503e3c1b001931f0856160001b6134a3565b615a867f92052f3f614bfda22b1575b798c61c0998b6b210babd0c171914951699e75c9060001b6134a3565b615a948686868686866167da565b505050505050565b505050505050565b6000826000018281548110615abc57615abb617e40565b5b9060005260206000200154905092915050565b600081600001805490509050919050565b6000615b0e7f94f83813dc2a36467a6700daf2cc674a231e5245452ce04539edb5790360663a60001b615055565b615b3a7f6029685b436f2bdec8ea3349f07cdb50018d1f5e6e29895ebc5c674fa0c0f44b60001b615055565b615b667f19941d430fda1b17e6a1876d74a86bb3820cd23af3071d03f101dcebc50fc5ed60001b615055565b615b73826001601f615058565b9050919050565b6000615ba87f3920f5b7520a5fe6e4b00320730d758c3012dbea847041e09b4d8bacd6a2bc7160001b615055565b615bd47fd7a41bed8e19422d55221b84035051321dc50fa8079e83625ad3815e725a04b160001b615055565b615c007fa8cd26d578d9a9318019116c452d8d7d7fe384886d7b339b78366ceeb0eccc8c60001b615055565b615c0d826002601c615058565b9050919050565b6000615c427ffc9e7c285bdc793dda2f6ce85d1f67b929991b6cddb73303a8a78fb932d7ed2960001b615055565b615c6e7f5248ef3cd2af1b7c0fd1a5ad8252a96b94049d16d5e6065549c41035d256789960001b615055565b615c9a7f2b6b2f9d039ac205cc4774d7ebe4826610c15ef10711e00bb13e5e0cbfcf6aac60001b615055565b615ca7826002601a615058565b60f01b9050919050565b6000615cdf7f955900c1e0d5dcfa075bdd58961cd07384a2a633093f236fbca3ba7c0a45407260001b615055565b615d0b7f5913fb7bab716443f87e468c3f99d672c2de7ad15290207d61a22c102abe627b60001b615055565b615d377f836971c58cade59056a41ad0d10bb7bfc0965005458aa827cee7ad7b253f10fa60001b615055565b615d448260026018615058565b60f01b9050919050565b6000615d7c7fa5b4bac583ce4aea3970f811a1410e3cb974dfe3a7870a1341c96f5c5cd84be960001b615055565b615da87fe366a70508ce79e14db7931bb1a5e675226b77da6f3f98ed44b419fdb31502c760001b615055565b615dd47f673757d1afc1164870f7818695959d6fe9a80d4887a138638b95d0a2e406f44560001b615055565b615de18260046000615058565b9050919050565b60606000600167ffffffffffffffff811115615e0757615e06616d67565b5b604051908082528060200260200182016040528015615e355781602001602082028036833780820191505090505b5090508281600081518110615e4d57615e4c617e40565b5b60200260200101818152505080915050919050565b615e818473ffffffffffffffffffffffffffffffffffffffff16613480565b15616031578373ffffffffffffffffffffffffffffffffffffffff1663f23a6e6187878686866040518663ffffffff1660e01b8152600401615ec79594939291906196a8565b6020604051808303816000875af1925050508015615f0357506040513d601f19601f82011682018060405250810190615f009190619717565b60015b615fa857615f0f619751565b806308c379a003615f6b5750615f23619773565b80615f2e5750615f6d565b806040517f08c379a0000000000000000000000000000000000000000000000000000000008152600401615f629190617129565b60405180910390fd5b505b6040517f08c379a0000000000000000000000000000000000000000000000000000000008152600401615f9f90619875565b60405180910390fd5b63f23a6e6160e01b7bffffffffffffffffffffffffffffffffffffffffffffffffffffffff1916817bffffffffffffffffffffffffffffffffffffffffffffffffffffffff19161461602f576040517f08c379a000000000000000000000000000000000000000000000000000000000815260040161602690619907565b60405180910390fd5b505b505050505050565b600060019054906101000a900460ff16616088576040517f08c379a000000000000000000000000000000000000000000000000000000000815260040161607f90619194565b60405180910390fd5b616091816169ad565b50565b600060019054906101000a900460ff166160e3576040517f08c379a00000000000000000000000000000000000000000000000000000000081526004016160da90619194565b60405180910390fd5b600061012d60006101000a81548160ff021916908315150217905550565b600060019054906101000a900460ff16616150576040517f08c379a000000000000000000000000000000000000000000000000000000000815260040161614790619194565b60405180910390fd5b6161646000801b61615f61370f565b6169c0565b6161957f9f2df0fed2c77648de5860a4cc508cd0818c85b8b8a1ab4ceeef8d981c8956a661619061370f565b6169c0565b6161c67f65d7a28e3265b37a6474929f336521b332c1681b933f6cb9f3376673440d862a6161c161370f565b6169c0565b50565b60007f5a05180f000000000000000000000000000000000000000000000000000000007bffffffffffffffffffffffffffffffffffffffffffffffffffffffff1916827bffffffffffffffffffffffffffffffffffffffffffffffffffffffff1916148061623c575061623b826169ce565b5b9050919050565b6162628473ffffffffffffffffffffffffffffffffffffffff16613480565b15616412578373ffffffffffffffffffffffffffffffffffffffff1663bc197c8187878686866040518663ffffffff1660e01b81526004016162a8959493929190619927565b6020604051808303816000875af19250505080156162e457506040513d601f19601f820116820180604052508101906162e19190619717565b60015b616389576162f0619751565b806308c379a00361634c5750616304619773565b8061630f575061634e565b806040517f08c379a00000000000000000000000000000000000000000000000000000000081526004016163439190617129565b60405180910390fd5b505b6040517f08c379a000000000000000000000000000000000000000000000000000000000815260040161638090619875565b60405180910390fd5b63bc197c8160e01b7bffffffffffffffffffffffffffffffffffffffffffffffffffffffff1916817bffffffffffffffffffffffffffffffffffffffffffffffffffffffff191614616410576040517f08c379a000000000000000000000000000000000000000000000000000000000815260040161640790619907565b60405180910390fd5b505b505050505050565b60606000600283600261642d9190618e49565b616437919061810e565b67ffffffffffffffff8111156164505761644f616d67565b5b6040519080825280601f01601f1916602001820160405280156164825781602001600182028036833780820191505090505b5090507f3000000000000000000000000000000000000000000000000000000000000000816000815181106164ba576164b9617e40565b5b60200101907effffffffffffffffffffffffffffffffffffffffffffffffffffffffffffff1916908160001a9053507f78000000000000000000000000000000000000000000000000000000000000008160018151811061651e5761651d617e40565b5b60200101907effffffffffffffffffffffffffffffffffffffffffffffffffffffffffffff1916908160001a9053506000600184600261655e9190618e49565b616568919061810e565b90505b6001811115616608577f3031323334353637383961626364656600000000000000000000000000000000600f8616601081106165aa576165a9617e40565b5b1a60f81b8282815181106165c1576165c0617e40565b5b60200101907effffffffffffffffffffffffffffffffffffffffffffffffffffffffffffff1916908160001a905350600485901c9450806166019061998f565b905061656b565b506000841461664c576040517f08c379a000000000000000000000000000000000000000000000000000000000815260040161664390619a04565b60405180910390fd5b8091505092915050565b60006166628383616a48565b6166bb5782600001829080600181540180825580915050600190039060005260206000200160009091909190915055826000018054905083600101600084815260200190815260200160002081905550600190506166c0565b600090505b92915050565b600080836001016000848152602001908152602001600020549050600081146167ce5760006001826166f8919061947f565b9050600060018660000180549050616710919061947f565b905081811461677f57600086600001828154811061673157616730617e40565b5b906000526020600020015490508087600001848154811061675557616754617e40565b5b90600052602060002001819055508387600101600083815260200190815260200160002081905550505b8560000180548061679357616792619a24565b5b6001900381819060005260206000200160009055905585600101600086815260200190815260200160002060009055600193505050506167d4565b60009150505b92915050565b6167e8868686868686616a6b565b600073ffffffffffffffffffffffffffffffffffffffff168573ffffffffffffffffffffffffffffffffffffffff160361689a5760005b83518110156168985782818151811061683b5761683a617e40565b5b60200260200101516101c3600086848151811061685b5761685a617e40565b5b602002602001015181526020019081526020016000206000828254616880919061810e565b925050819055508061689190617e9e565b905061681f565b505b600073ffffffffffffffffffffffffffffffffffffffff168473ffffffffffffffffffffffffffffffffffffffff16036169a55760005b83518110156169a35760008482815181106168ef576168ee617e40565b5b60200260200101519050600084838151811061690e5761690d617e40565b5b6020026020010151905060006101c3600084815260200190815260200160002054905081811015616974576040517f08c379a000000000000000000000000000000000000000000000000000000000815260040161696b90619ac5565b60405180910390fd5b8181036101c36000858152602001908152602001600020819055505050508061699c90617e9e565b90506168d1565b505b505050505050565b8060cb90816169bc9190618630565b5050565b6169ca82826137cc565b5050565b60007f7965db0b000000000000000000000000000000000000000000000000000000007bffffffffffffffffffffffffffffffffffffffffffffffffffffffff1916827bffffffffffffffffffffffffffffffffffffffffffffffffffffffff19161480616a415750616a4082616a81565b5b9050919050565b600080836001016000848152602001908152602001600020541415905092915050565b616a79868686868686616aeb565b505050505050565b60007f01ffc9a7000000000000000000000000000000000000000000000000000000007bffffffffffffffffffffffffffffffffffffffffffffffffffffffff1916827bffffffffffffffffffffffffffffffffffffffffffffffffffffffff1916149050919050565b616af9868686868686616b49565b616b016121f8565b15616b41576040517f08c379a0000000000000000000000000000000000000000000000000000000008152600401616b3890619b57565b60405180910390fd5b505050505050565b505050505050565b604051806080016040528060008152602001600073ffffffffffffffffffffffffffffffffffffffff16815260200160008152602001600081525090565b604051806101000160405280600060ff168152602001600060ff168152602001600060ff168152602001600061ffff16815260200160007dffffffffffffffffffffffffffffffffffffffffffffffffffffffffffff1916815260200160007dffffffffffffffffffffffffffffffffffffffffffffffffffffffffffff19168152602001600073ffffffffffffffffffffffffffffffffffffffff168152602001600063ffffffff1681525090565b6000604051905090565b600080fd5b600080fd5b600073ffffffffffffffffffffffffffffffffffffffff82169050919050565b6000616c7e82616c53565b9050919050565b616c8e81616c73565b8114616c9957600080fd5b50565b600081359050616cab81616c85565b92915050565b6000819050919050565b616cc481616cb1565b8114616ccf57600080fd5b50565b600081359050616ce181616cbb565b92915050565b60008060408385031215616cfe57616cfd616c49565b5b6000616d0c85828601616c9c565b9250506020616d1d85828601616cd2565b9150509250929050565b616d3081616cb1565b82525050565b6000602082019050616d4b6000830184616d27565b92915050565b600080fd5b6000601f19601f8301169050919050565b7f4e487b7100000000000000000000000000000000000000000000000000000000600052604160045260246000fd5b616d9f82616d56565b810181811067ffffffffffffffff82111715616dbe57616dbd616d67565b5b80604052505050565b6000616dd1616c3f565b9050616ddd8282616d96565b919050565b600067ffffffffffffffff821115616dfd57616dfc616d67565b5b602082029050602081019050919050565b600080fd5b6000616e26616e2184616de2565b616dc7565b90508083825260208201905060208402830185811115616e4957616e48616e0e565b5b835b81811015616e725780616e5e8882616cd2565b845260208401935050602081019050616e4b565b5050509392505050565b600082601f830112616e9157616e90616d51565b5b8135616ea1848260208601616e13565b91505092915050565b60008060408385031215616ec157616ec0616c49565b5b6000616ecf85828601616c9c565b925050602083013567ffffffffffffffff811115616ef057616eef616c4e565b5b616efc85828601616e7c565b9150509250929050565b600081519050919050565b600082825260208201905092915050565b6000819050602082019050919050565b616f3b81616cb1565b82525050565b6000616f4d8383616f32565b60208301905092915050565b6000602082019050919050565b6000616f7182616f06565b616f7b8185616f11565b9350616f8683616f22565b8060005b83811015616fb7578151616f9e8882616f41565b9750616fa983616f59565b925050600181019050616f8a565b5085935050505092915050565b60006020820190508181036000830152616fde8184616f66565b905092915050565b60007fffffffff0000000000000000000000000000000000000000000000000000000082169050919050565b61701b81616fe6565b811461702657600080fd5b50565b60008135905061703881617012565b92915050565b60006020828403121561705457617053616c49565b5b600061706284828501617029565b91505092915050565b60008115159050919050565b6170808161706b565b82525050565b600060208201905061709b6000830184617077565b92915050565b600081519050919050565b600082825260208201905092915050565b60005b838110156170db5780820151818401526020810190506170c0565b838111156170ea576000848401525b50505050565b60006170fb826170a1565b61710581856170ac565b93506171158185602086016170bd565b61711e81616d56565b840191505092915050565b6000602082019050818103600083015261714381846170f0565b905092915050565b60006020828403121561716157617160616c49565b5b600061716f84828501616cd2565b91505092915050565b61718181616c73565b82525050565b60808201600082015161719d6000850182616f32565b5060208201516171b06020850182617178565b5060408201516171c36040850182616f32565b5060608201516171d66060850182616f32565b50505050565b60006080820190506171f16000830184617187565b92915050565b600080fd5b600067ffffffffffffffff82111561721757617216616d67565b5b61722082616d56565b9050602081019050919050565b82818337600083830152505050565b600061724f61724a846171fc565b616dc7565b90508281526020810184848401111561726b5761726a6171f7565b5b61727684828561722d565b509392505050565b600082601f83011261729357617292616d51565b5b81356172a384826020860161723c565b91505092915050565b600080600080608085870312156172c6576172c5616c49565b5b60006172d487828801616c9c565b945050602085013567ffffffffffffffff8111156172f5576172f4616c4e565b5b61730187828801616e7c565b935050604085013567ffffffffffffffff81111561732257617321616c4e565b5b61732e87828801616e7c565b925050606085013567ffffffffffffffff81111561734f5761734e616c4e565b5b61735b8782880161727e565b91505092959194509250565b6000819050919050565b61737a81617367565b811461738557600080fd5b50565b60008135905061739781617371565b92915050565b6000602082840312156173b3576173b2616c49565b5b60006173c184828501617388565b91505092915050565b6173d381617367565b82525050565b60006020820190506173ee60008301846173ca565b92915050565b600080600080600060a086880312156174105761740f616c49565b5b600061741e88828901616c9c565b955050602061742f88828901616c9c565b945050604086013567ffffffffffffffff8111156174505761744f616c4e565b5b61745c88828901616e7c565b935050606086013567ffffffffffffffff81111561747d5761747c616c4e565b5b61748988828901616e7c565b925050608086013567ffffffffffffffff8111156174aa576174a9616c4e565b5b6174b68882890161727e565b9150509295509295909350565b600080604083850312156174da576174d9616c49565b5b60006174e885828601617388565b92505060206174f985828601616c9c565b9150509250929050565b61750c8161706b565b811461751757600080fd5b50565b60008135905061752981617503565b92915050565b60008060006060848603121561754857617547616c49565b5b600061755686828701616c9c565b935050602061756786828701616c9c565b92505060406175788682870161751a565b9150509250925092565b600080fd5b60008083601f84011261759d5761759c616d51565b5b8235905067ffffffffffffffff8111156175ba576175b9617582565b5b6020830191508360018202830111156175d6576175d5616e0e565b5b9250929050565b600080602083850312156175f4576175f3616c49565b5b600083013567ffffffffffffffff81111561761257617611616c4e565b5b61761e85828601617587565b92509250509250929050565b600067ffffffffffffffff82111561764557617644616d67565b5b602082029050602081019050919050565b60006176696176648461762a565b616dc7565b9050808382526020820190506020840283018581111561768c5761768b616e0e565b5b835b818110156176b557806176a18882616c9c565b84526020840193505060208101905061768e565b5050509392505050565b600082601f8301126176d4576176d3616d51565b5b81356176e4848260208601617656565b91505092915050565b6000806040838503121561770457617703616c49565b5b600083013567ffffffffffffffff81111561772257617721616c4e565b5b61772e858286016176bf565b925050602083013567ffffffffffffffff81111561774f5761774e616c4e565b5b61775b85828601616e7c565b9150509250929050565b60006020828403121561777b5761777a616c49565b5b600061778984828501616c9c565b91505092915050565b6000806000606084860312156177ab576177aa616c49565b5b60006177b986828701616c9c565b935050602084013567ffffffffffffffff8111156177da576177d9616c4e565b5b6177e686828701616e7c565b925050604084013567ffffffffffffffff81111561780757617806616c4e565b5b61781386828701616e7c565b9150509250925092565b6000806000806080858703121561783757617836616c49565b5b600061784587828801616c9c565b945050602061785687828801616cd2565b935050604061786787828801616cd2565b925050606085013567ffffffffffffffff81111561788857617887616c4e565b5b6178948782880161727e565b91505092959194509250565b600080604083850312156178b7576178b6616c49565b5b60006178c585828601617388565b92505060206178d685828601616cd2565b9150509250929050565b6178e981616c73565b82525050565b600060208201905061790460008301846178e0565b92915050565b6000806040838503121561792157617920616c49565b5b600061792f85828601616c9c565b92505060206179408582860161751a565b9150509250929050565b60008083601f8401126179605761795f616d51565b5b8235905067ffffffffffffffff81111561797d5761797c617582565b5b60208301915083602082028301111561799957617998616e0e565b5b9250929050565b6000806000604084860312156179b9576179b8616c49565b5b600084013567ffffffffffffffff8111156179d7576179d6616c4e565b5b6179e38682870161794a565b935093505060206179f686828701616cd2565b9150509250925092565b600060208284031215617a1657617a15616c49565b5b600082013567ffffffffffffffff811115617a3457617a33616c4e565b5b617a4084828501616e7c565b91505092915050565b600060ff82169050919050565b617a5f81617a49565b82525050565b600061ffff82169050919050565b617a7c81617a65565b82525050565b60007fffff00000000000000000000000000000000000000000000000000000000000082169050919050565b617ab781617a82565b82525050565b600063ffffffff82169050919050565b617ad681617abd565b82525050565b61010082016000820151617af36000850182617a56565b506020820151617b066020850182617a56565b506040820151617b196040850182617a56565b506060820151617b2c6060850182617a73565b506080820151617b3f6080850182617aae565b5060a0820151617b5260a0850182617aae565b5060c0820151617b6560c0850182617178565b5060e0820151617b7860e0850182617acd565b50505050565b600061010082019050617b946000830184617adc565b92915050565b60008060408385031215617bb157617bb0616c49565b5b6000617bbf85828601616c9c565b9250506020617bd085828601616c9c565b9150509250929050565b600080600080600060a08688031215617bf657617bf5616c49565b5b6000617c0488828901616c9c565b9550506020617c1588828901616c9c565b9450506040617c2688828901616cd2565b9350506060617c3788828901616cd2565b925050608086013567ffffffffffffffff811115617c5857617c57616c4e565b5b617c648882890161727e565b9150509295509295909350565b600080600060608486031215617c8a57617c89616c49565b5b6000617c9886828701616c9c565b9350506020617ca986828701616cd2565b9250506040617cba86828701616cd2565b9150509250925092565b600067ffffffffffffffff821115617cdf57617cde616d67565b5b617ce882616d56565b9050602081019050919050565b6000617d08617d0384617cc4565b616dc7565b905082815260208101848484011115617d2457617d236171f7565b5b617d2f84828561722d565b509392505050565b600082601f830112617d4c57617d4b616d51565b5b8135617d5c848260208601617cf5565b91505092915050565b600060208284031215617d7b57617d7a616c49565b5b600082013567ffffffffffffffff811115617d9957617d98616c4e565b5b617da584828501617d37565b91505092915050565b7f455243313135353a2062616c616e636520717565727920666f7220746865207a60008201527f65726f2061646472657373000000000000000000000000000000000000000000602082015250565b6000617e0a602b836170ac565b9150617e1582617dae565b604082019050919050565b60006020820190508181036000830152617e3981617dfd565b9050919050565b7f4e487b7100000000000000000000000000000000000000000000000000000000600052603260045260246000fd5b7f4e487b7100000000000000000000000000000000000000000000000000000000600052601160045260246000fd5b6000617ea982616cb1565b91507fffffffffffffffffffffffffffffffffffffffffffffffffffffffffffffffff8203617edb57617eda617e6f565b5b600182019050919050565b7f4e487b7100000000000000000000000000000000000000000000000000000000600052602260045260246000fd5b60006002820490506001821680617f2d57607f821691505b602082108103617f4057617f3f617ee6565b5b50919050565b7f616d6f756e747300000000000000000000000000000000000000000000000000600082015250565b6000617f7c6007836170ac565b9150617f8782617f46565b602082019050919050565b7f6964730000000000000000000000000000000000000000000000000000000000600082015250565b6000617fc86003836170ac565b9150617fd382617f92565b602082019050919050565b60006040820190508181036000830152617ff781617f6f565b9050818103602083015261800a81617fbb565b9050919050565b600080fd5b60008151905061802581616cbb565b92915050565b60008151905061803a81616c85565b92915050565b60008151905061804f81617503565b92915050565b600060a0828403121561806b5761806a618011565b5b61807560a0616dc7565b9050600061808584828501618016565b600083015250602061809984828501618016565b60208301525060406180ad84828501618016565b60408301525060606180c18482850161802b565b60608301525060806180d584828501618040565b60808301525092915050565b600060a082840312156180f7576180f6616c49565b5b600061810584828501618055565b91505092915050565b600061811982616cb1565b915061812483616cb1565b9250827fffffffffffffffffffffffffffffffffffffffffffffffffffffffffffffffff0382111561815957618158617e6f565b5b828201905092915050565b7f416363657373436f6e74726f6c3a2063616e206f6e6c792072656e6f756e636560008201527f20726f6c657320666f722073656c660000000000000000000000000000000000602082015250565b60006181c0602f836170ac565b91506181cb82618164565b604082019050919050565b600060208201905081810360008301526181ef816181b3565b9050919050565b7f5061757361626c653a2070617573656400000000000000000000000000000000600082015250565b600061822c6010836170ac565b9150618237826181f6565b602082019050919050565b6000602082019050818103600083015261825b8161821f565b9050919050565b7f455243313135355072657365744d696e7465725061757365723a206d7573742060008201527f686176652070617573657220726f6c6520746f20756e70617573650000000000602082015250565b60006182be603b836170ac565b91506182c982618262565b604082019050919050565b600060208201905081810360008301526182ed816182b1565b9050919050565b7f455243313135353a206163636f756e747320616e6420696473206c656e67746860008201527f206d69736d617463680000000000000000000000000000000000000000000000602082015250565b60006183506029836170ac565b915061835b826182f4565b604082019050919050565b6000602082019050818103600083015261837f81618343565b9050919050565b7f455243313135353a2063616c6c6572206973206e6f74206f776e6572206e6f7260008201527f20617070726f7665640000000000000000000000000000000000000000000000602082015250565b60006183e26029836170ac565b91506183ed82618386565b604082019050919050565b60006020820190508181036000830152618411816183d5565b9050919050565b7f52656d6f76616c3a204552432031313535206d696e742064697361626c656400600082015250565b600061844e601f836170ac565b915061845982618418565b602082019050919050565b6000602082019050818103600083015261847d81618441565b9050919050565b60008190508160005260206000209050919050565b60006020601f8301049050919050565b600082821b905092915050565b6000600883026184e67fffffffffffffffffffffffffffffffffffffffffffffffffffffffffffffffff826184a9565b6184f086836184a9565b95508019841693508086168417925050509392505050565b6000819050919050565b600061852d61852861852384616cb1565b618508565b616cb1565b9050919050565b6000819050919050565b61854783618512565b61855b61855382618534565b8484546184b6565b825550505050565b600090565b618570618563565b61857b81848461853e565b505050565b5b8181101561859f57618594600082618568565b600181019050618581565b5050565b601f8211156185e4576185b581618484565b6185be84618499565b810160208510156185cd578190505b6185e16185d985618499565b830182618580565b50505b505050565b600082821c905092915050565b6000618607600019846008026185e9565b1980831691505092915050565b600061862083836185f6565b9150826002028217905092915050565b618639826170a1565b67ffffffffffffffff81111561865257618651616d67565b5b61865c8254617f15565b6186678282856185a3565b600060209050601f83116001811461869a5760008415618688578287015190505b6186928582618614565b8655506186fa565b601f1984166186a886618484565b60005b828110156186d0578489015182556001820191506020850194506020810190506186ab565b868310156186ed57848901516186e9601f8916826185f6565b8355505b6001600288020188555050505b505050505050565b6000819050919050565b600061872761872261871d84618702565b618508565b617a49565b9050919050565b6187378161870c565b82525050565b6000602082019050618752600083018461872e565b92915050565b7f455243313135355072657365744d696e7465725061757365723a206d7573742060008201527f686176652070617573657220726f6c6520746f20706175736500000000000000602082015250565b60006187b46039836170ac565b91506187bf82618758565b604082019050919050565b600060208201905081810360008301526187e3816187a7565b9050919050565b7f455243313135355072657365744d696e7465725061757365723a206d7573742060008201527f68617665206d696e74657220726f6c6520746f206d696e740000000000000000602082015250565b60006188466038836170ac565b9150618851826187ea565b604082019050919050565b6000602082019050818103600083015261887581618839565b9050919050565b7f455243313135353a207472616e736665722063616c6c6572206973206e6f742060008201527f6f776e6572206e6f7220617070726f7665640000000000000000000000000000602082015250565b60006188d86032836170ac565b91506188e38261887c565b604082019050919050565b60006020820190508181036000830152618907816188cb565b9050919050565b7f455243313135353a2073657474696e6720617070726f76616c2073746174757360008201527f20666f722073656c660000000000000000000000000000000000000000000000602082015250565b600061896a6029836170ac565b91506189758261890e565b604082019050919050565b600060208201905081810360008301526189998161895d565b9050919050565b7f5061757361626c653a206e6f7420706175736564000000000000000000000000600082015250565b60006189d66014836170ac565b91506189e1826189a0565b602082019050919050565b60006020820190508181036000830152618a05816189c9565b9050919050565b618a1581617a49565b8114618a2057600080fd5b50565b600081359050618a3281618a0c565b92915050565b600060208284031215618a4e57618a4d616c49565b5b6000618a5c84828501618a23565b91505092915050565b7f556e737570706f727465642072656d6f76616c20746f6b656e2069642076657260008201527f73696f6e00000000000000000000000000000000000000000000000000000000602082015250565b6000618ac16024836170ac565b9150618acc82618a65565b604082019050919050565b60006020820190508181036000830152618af081618ab4565b9050919050565b7f72656d6f76616c4461746120636f6e7461696e732077726f6e67206e756d626560008201527f72206f6620627974657300000000000000000000000000000000000000000000602082015250565b6000618b53602a836170ac565b9150618b5e82618af7565b604082019050919050565b60006020820190508181036000830152618b8281618b46565b9050919050565b618b9281617a65565b8114618b9d57600080fd5b50565b600081359050618baf81618b89565b92915050565b618bbe81617a82565b8114618bc957600080fd5b50565b600081359050618bdb81618bb5565b92915050565b618bea81617abd565b8114618bf557600080fd5b50565b600081359050618c0781618be1565b92915050565b60006101008284031215618c2457618c23618011565b5b618c2f610100616dc7565b90506000618c3f84828501618a23565b6000830152506020618c5384828501618a23565b6020830152506040618c6784828501618a23565b6040830152506060618c7b84828501618ba0565b6060830152506080618c8f84828501618bcc565b60808301525060a0618ca384828501618bcc565b60a08301525060c0618cb784828501616c9c565b60c08301525060e0618ccb84828501618bf8565b60e08301525092915050565b60006101008284031215618cee57618ced616c49565b5b6000618cfc84828501618c0d565b91505092915050565b7f4d6574686f6c6f646f677920746f6f206c617267650000000000000000000000600082015250565b6000618d3b6015836170ac565b9150618d4682618d05565b602082019050919050565b60006020820190508181036000830152618d6a81618d2e565b9050919050565b7f4d6574686f6c6f646f67792076657273696f6e20746f6f206c61726765000000600082015250565b6000618da7601d836170ac565b9150618db282618d71565b602082019050919050565b60006020820190508181036000830152618dd681618d9a565b9050919050565b7f496e76616c696420415343494900000000000000000000000000000000000000600082015250565b6000618e13600d836170ac565b9150618e1e82618ddd565b602082019050919050565b60006020820190508181036000830152618e4281618e06565b9050919050565b6000618e5482616cb1565b9150618e5f83616cb1565b9250817fffffffffffffffffffffffffffffffffffffffffffffffffffffffffffffffff0483118215151615618e9857618e97617e6f565b5b828202905092915050565b7f455243313135353a206275726e2066726f6d20746865207a65726f206164647260008201527f6573730000000000000000000000000000000000000000000000000000000000602082015250565b6000618eff6023836170ac565b9150618f0a82618ea3565b604082019050919050565b60006020820190508181036000830152618f2e81618ef2565b9050919050565b7f455243313135353a2069647320616e6420616d6f756e7473206c656e6774682060008201527f6d69736d61746368000000000000000000000000000000000000000000000000602082015250565b6000618f916028836170ac565b9150618f9c82618f35565b604082019050919050565b60006020820190508181036000830152618fc081618f84565b9050919050565b7f455243313135353a206275726e20616d6f756e7420657863656564732062616c60008201527f616e636500000000000000000000000000000000000000000000000000000000602082015250565b60006190236024836170ac565b915061902e82618fc7565b604082019050919050565b6000602082019050818103600083015261905281619016565b9050919050565b600060408201905081810360008301526190738185616f66565b905081810360208301526190878184616f66565b90509392505050565b7f496e697469616c697a61626c653a20636f6e747261637420697320616c72656160008201527f647920696e697469616c697a6564000000000000000000000000000000000000602082015250565b60006190ec602e836170ac565b91506190f782619090565b604082019050919050565b6000602082019050818103600083015261911b816190df565b9050919050565b7f496e697469616c697a61626c653a20636f6e7472616374206973206e6f74206960008201527f6e697469616c697a696e67000000000000000000000000000000000000000000602082015250565b600061917e602b836170ac565b915061918982619122565b604082019050919050565b600060208201905081810360008301526191ad81619171565b9050919050565b7f455243313135353a207472616e7366657220746f20746865207a65726f20616460008201527f6472657373000000000000000000000000000000000000000000000000000000602082015250565b60006192106025836170ac565b915061921b826191b4565b604082019050919050565b6000602082019050818103600083015261923f81619203565b9050919050565b7f455243313135353a20696e73756666696369656e742062616c616e636520666f60008201527f72207472616e7366657200000000000000000000000000000000000000000000602082015250565b60006192a2602a836170ac565b91506192ad82619246565b604082019050919050565b600060208201905081810360008301526192d181619295565b9050919050565b60006040820190506192ed6000830185616d27565b6192fa6020830184616d27565b9392505050565b60008160011c9050919050565b6000808291508390505b60018511156193585780860481111561933457619333617e6f565b5b60018516156193435780820291505b808102905061935185619301565b9450619318565b94509492505050565b600082619371576001905061942d565b8161937f576000905061942d565b8160018114619395576002811461939f576193ce565b600191505061942d565b60ff8411156193b1576193b0617e6f565b5b8360020a9150848211156193c8576193c7617e6f565b5b5061942d565b5060208310610133831016604e8410600b84101617156194035782820a9050838111156193fe576193fd617e6f565b5b61942d565b619410848484600161930e565b9250905081840481111561942757619426617e6f565b5b81810290505b9392505050565b600061943f82616cb1565b915061944a83616cb1565b92506194777fffffffffffffffffffffffffffffffffffffffffffffffffffffffffffffffff8484619361565b905092915050565b600061948a82616cb1565b915061949583616cb1565b9250828210156194a8576194a7617e6f565b5b828203905092915050565b7f455243313135353a206d696e7420746f20746865207a65726f2061646472657360008201527f7300000000000000000000000000000000000000000000000000000000000000602082015250565b600061950f6021836170ac565b915061951a826194b3565b604082019050919050565b6000602082019050818103600083015261953e81619502565b9050919050565b600081905092915050565b7f416363657373436f6e74726f6c3a206163636f756e7420000000000000000000600082015250565b6000619586601783619545565b915061959182619550565b601782019050919050565b60006195a7826170a1565b6195b18185619545565b93506195c18185602086016170bd565b80840191505092915050565b7f206973206d697373696e6720726f6c6520000000000000000000000000000000600082015250565b6000619603601183619545565b915061960e826195cd565b601182019050919050565b600061962482619579565b9150619630828561959c565b915061963b826195f6565b9150619647828461959c565b91508190509392505050565b600081519050919050565b600082825260208201905092915050565b600061967a82619653565b619684818561965e565b93506196948185602086016170bd565b61969d81616d56565b840191505092915050565b600060a0820190506196bd60008301886178e0565b6196ca60208301876178e0565b6196d76040830186616d27565b6196e46060830185616d27565b81810360808301526196f6818461966f565b90509695505050505050565b60008151905061971181617012565b92915050565b60006020828403121561972d5761972c616c49565b5b600061973b84828501619702565b91505092915050565b60008160e01c9050919050565b600060033d11156197705760046000803e61976d600051619744565b90505b90565b600060443d1061980057619785616c3f565b60043d036004823e80513d602482011167ffffffffffffffff821117156197ad575050619800565b808201805167ffffffffffffffff8111156197cb5750505050619800565b80602083010160043d0385018111156197e8575050505050619800565b6197f782602001850186616d96565b82955050505050505b90565b7f455243313135353a207472616e7366657220746f206e6f6e204552433131353560008201527f526563656976657220696d706c656d656e746572000000000000000000000000602082015250565b600061985f6034836170ac565b915061986a82619803565b604082019050919050565b6000602082019050818103600083015261988e81619852565b9050919050565b7f455243313135353a204552433131353552656365697665722072656a6563746560008201527f6420746f6b656e73000000000000000000000000000000000000000000000000602082015250565b60006198f16028836170ac565b91506198fc82619895565b604082019050919050565b60006020820190508181036000830152619920816198e4565b9050919050565b600060a08201905061993c60008301886178e0565b61994960208301876178e0565b818103604083015261995b8186616f66565b9050818103606083015261996f8185616f66565b90508181036080830152619983818461966f565b90509695505050505050565b600061999a82616cb1565b9150600082036199ad576199ac617e6f565b5b600182039050919050565b7f537472696e67733a20686578206c656e67746820696e73756666696369656e74600082015250565b60006199ee6020836170ac565b91506199f9826199b8565b602082019050919050565b60006020820190508181036000830152619a1d816199e1565b9050919050565b7f4e487b7100000000000000000000000000000000000000000000000000000000600052603160045260246000fd5b7f455243313135353a206275726e20616d6f756e74206578636565647320746f7460008201527f616c537570706c79000000000000000000000000000000000000000000000000602082015250565b6000619aaf6028836170ac565b9150619aba82619a53565b604082019050919050565b60006020820190508181036000830152619ade81619aa2565b9050919050565b7f455243313135355061757361626c653a20746f6b656e207472616e736665722060008201527f7768696c65207061757365640000000000000000000000000000000000000000602082015250565b6000619b41602c836170ac565b9150619b4c82619ae5565b604082019050919050565b60006020820190508181036000830152619b7081619b34565b905091905056fe68747470733a2f2f6e6f72692e636f6d2f6170692f72656d6f76616c2f7b69647d2e6a736f6ea2646970667358221220fa4d7c18933febef9dad61d0f9c02ccc0e45b75707e2ce3784c2db67d64212c964736f6c634300080f0033",
  "linkReferences": {},
  "deployedLinkReferences": {}
}