{
  "_format": "hh-sol-artifact-1",
  "contractName": "Removal",
  "sourceName": "contracts/Removal.sol",
  "abi": [
    {
      "anonymous": false,
      "inputs": [
        {
          "indexed": true,
          "internalType": "address",
          "name": "account",
          "type": "address"
        },
        {
          "indexed": true,
          "internalType": "address",
          "name": "operator",
          "type": "address"
        },
        {
          "indexed": false,
          "internalType": "bool",
          "name": "approved",
          "type": "bool"
        }
      ],
      "name": "ApprovalForAll",
      "type": "event"
    },
    {
      "anonymous": false,
      "inputs": [
        {
          "indexed": false,
          "internalType": "address",
          "name": "account",
          "type": "address"
        }
      ],
      "name": "Paused",
      "type": "event"
    },
    {
      "anonymous": false,
      "inputs": [
        {
          "indexed": true,
          "internalType": "bytes32",
          "name": "role",
          "type": "bytes32"
        },
        {
          "indexed": true,
          "internalType": "bytes32",
          "name": "previousAdminRole",
          "type": "bytes32"
        },
        {
          "indexed": true,
          "internalType": "bytes32",
          "name": "newAdminRole",
          "type": "bytes32"
        }
      ],
      "name": "RoleAdminChanged",
      "type": "event"
    },
    {
      "anonymous": false,
      "inputs": [
        {
          "indexed": true,
          "internalType": "bytes32",
          "name": "role",
          "type": "bytes32"
        },
        {
          "indexed": true,
          "internalType": "address",
          "name": "account",
          "type": "address"
        },
        {
          "indexed": true,
          "internalType": "address",
          "name": "sender",
          "type": "address"
        }
      ],
      "name": "RoleGranted",
      "type": "event"
    },
    {
      "anonymous": false,
      "inputs": [
        {
          "indexed": true,
          "internalType": "bytes32",
          "name": "role",
          "type": "bytes32"
        },
        {
          "indexed": true,
          "internalType": "address",
          "name": "account",
          "type": "address"
        },
        {
          "indexed": true,
          "internalType": "address",
          "name": "sender",
          "type": "address"
        }
      ],
      "name": "RoleRevoked",
      "type": "event"
    },
    {
      "anonymous": false,
      "inputs": [
        {
          "indexed": true,
          "internalType": "address",
          "name": "operator",
          "type": "address"
        },
        {
          "indexed": true,
          "internalType": "address",
          "name": "from",
          "type": "address"
        },
        {
          "indexed": true,
          "internalType": "address",
          "name": "to",
          "type": "address"
        },
        {
          "indexed": false,
          "internalType": "uint256[]",
          "name": "ids",
          "type": "uint256[]"
        },
        {
          "indexed": false,
          "internalType": "uint256[]",
          "name": "values",
          "type": "uint256[]"
        }
      ],
      "name": "TransferBatch",
      "type": "event"
    },
    {
      "anonymous": false,
      "inputs": [
        {
          "indexed": true,
          "internalType": "address",
          "name": "operator",
          "type": "address"
        },
        {
          "indexed": true,
          "internalType": "address",
          "name": "from",
          "type": "address"
        },
        {
          "indexed": true,
          "internalType": "address",
          "name": "to",
          "type": "address"
        },
        {
          "indexed": false,
          "internalType": "uint256",
          "name": "id",
          "type": "uint256"
        },
        {
          "indexed": false,
          "internalType": "uint256",
          "name": "value",
          "type": "uint256"
        }
      ],
      "name": "TransferSingle",
      "type": "event"
    },
    {
      "anonymous": false,
      "inputs": [
        {
          "indexed": false,
          "internalType": "string",
          "name": "value",
          "type": "string"
        },
        {
          "indexed": true,
          "internalType": "uint256",
          "name": "id",
          "type": "uint256"
        }
      ],
      "name": "URI",
      "type": "event"
    },
    {
      "anonymous": false,
      "inputs": [
        {
          "indexed": false,
          "internalType": "address",
          "name": "account",
          "type": "address"
        }
      ],
      "name": "Unpaused",
      "type": "event"
    },
    {
      "inputs": [],
      "name": "DEFAULT_ADMIN_ROLE",
      "outputs": [
        {
          "internalType": "bytes32",
          "name": "",
          "type": "bytes32"
        }
      ],
      "stateMutability": "view",
      "type": "function"
    },
    {
      "inputs": [],
      "name": "MINTER_ROLE",
      "outputs": [
        {
          "internalType": "bytes32",
          "name": "",
          "type": "bytes32"
        }
      ],
      "stateMutability": "view",
      "type": "function"
    },
    {
      "inputs": [],
      "name": "PAUSER_ROLE",
      "outputs": [
        {
          "internalType": "bytes32",
          "name": "",
          "type": "bytes32"
        }
      ],
      "stateMutability": "view",
      "type": "function"
    },
    {
      "inputs": [
        {
          "internalType": "address",
          "name": "account",
          "type": "address"
        },
        {
          "internalType": "uint256",
          "name": "id",
          "type": "uint256"
        }
      ],
      "name": "balanceOf",
      "outputs": [
        {
          "internalType": "uint256",
          "name": "",
          "type": "uint256"
        }
      ],
      "stateMutability": "view",
      "type": "function"
    },
    {
      "inputs": [
        {
          "internalType": "address[]",
          "name": "accounts",
          "type": "address[]"
        },
        {
          "internalType": "uint256[]",
          "name": "ids",
          "type": "uint256[]"
        }
      ],
      "name": "balanceOfBatch",
      "outputs": [
        {
          "internalType": "uint256[]",
          "name": "",
          "type": "uint256[]"
        }
      ],
      "stateMutability": "view",
      "type": "function"
    },
    {
      "inputs": [
        {
          "internalType": "address",
          "name": "account",
          "type": "address"
        },
        {
          "internalType": "uint256",
          "name": "id",
          "type": "uint256"
        },
        {
          "internalType": "uint256",
          "name": "value",
          "type": "uint256"
        }
      ],
      "name": "burn",
      "outputs": [],
      "stateMutability": "nonpayable",
      "type": "function"
    },
    {
      "inputs": [
        {
          "internalType": "address",
          "name": "account",
          "type": "address"
        },
        {
          "internalType": "uint256[]",
          "name": "ids",
          "type": "uint256[]"
        },
        {
          "internalType": "uint256[]",
          "name": "values",
          "type": "uint256[]"
        }
      ],
      "name": "burnBatch",
      "outputs": [],
      "stateMutability": "nonpayable",
      "type": "function"
    },
    {
      "inputs": [
        {
          "internalType": "uint256",
          "name": "id",
          "type": "uint256"
        }
      ],
      "name": "exists",
      "outputs": [
        {
          "internalType": "bool",
          "name": "",
          "type": "bool"
        }
      ],
      "stateMutability": "view",
      "type": "function"
    },
    {
      "inputs": [
        {
          "internalType": "bytes32",
          "name": "role",
          "type": "bytes32"
        }
      ],
      "name": "getRoleAdmin",
      "outputs": [
        {
          "internalType": "bytes32",
          "name": "",
          "type": "bytes32"
        }
      ],
      "stateMutability": "view",
      "type": "function"
    },
    {
      "inputs": [
        {
          "internalType": "bytes32",
          "name": "role",
          "type": "bytes32"
        },
        {
          "internalType": "uint256",
          "name": "index",
          "type": "uint256"
        }
      ],
      "name": "getRoleMember",
      "outputs": [
        {
          "internalType": "address",
          "name": "",
          "type": "address"
        }
      ],
      "stateMutability": "view",
      "type": "function"
    },
    {
      "inputs": [
        {
          "internalType": "bytes32",
          "name": "role",
          "type": "bytes32"
        }
      ],
      "name": "getRoleMemberCount",
      "outputs": [
        {
          "internalType": "uint256",
          "name": "",
          "type": "uint256"
        }
      ],
      "stateMutability": "view",
      "type": "function"
    },
    {
      "inputs": [
        {
          "internalType": "bytes32",
          "name": "role",
          "type": "bytes32"
        },
        {
          "internalType": "address",
          "name": "account",
          "type": "address"
        }
      ],
      "name": "grantRole",
      "outputs": [],
      "stateMutability": "nonpayable",
      "type": "function"
    },
    {
      "inputs": [
        {
          "internalType": "bytes32",
          "name": "role",
          "type": "bytes32"
        },
        {
          "internalType": "address",
          "name": "account",
          "type": "address"
        }
      ],
      "name": "hasRole",
      "outputs": [
        {
          "internalType": "bool",
          "name": "",
          "type": "bool"
        }
      ],
      "stateMutability": "view",
      "type": "function"
    },
    {
      "inputs": [],
      "name": "initialize",
      "outputs": [],
      "stateMutability": "nonpayable",
      "type": "function"
    },
    {
      "inputs": [
        {
          "internalType": "string",
          "name": "uri",
          "type": "string"
        }
      ],
      "name": "initialize",
      "outputs": [],
      "stateMutability": "nonpayable",
      "type": "function"
    },
    {
      "inputs": [
        {
          "internalType": "address",
          "name": "account",
          "type": "address"
        },
        {
          "internalType": "address",
          "name": "operator",
          "type": "address"
        }
      ],
      "name": "isApprovedForAll",
      "outputs": [
        {
          "internalType": "bool",
          "name": "",
          "type": "bool"
        }
      ],
      "stateMutability": "view",
      "type": "function"
    },
    {
      "inputs": [
        {
          "internalType": "address",
          "name": "to",
          "type": "address"
        },
        {
          "internalType": "uint256",
          "name": "id",
          "type": "uint256"
        },
        {
          "internalType": "uint256",
          "name": "amount",
          "type": "uint256"
        },
        {
          "internalType": "bytes",
          "name": "data",
          "type": "bytes"
        }
      ],
      "name": "mint",
      "outputs": [],
      "stateMutability": "nonpayable",
      "type": "function"
    },
    {
      "inputs": [
        {
          "internalType": "address",
          "name": "to",
          "type": "address"
        },
        {
          "internalType": "uint256[]",
          "name": "amounts",
          "type": "uint256[]"
        },
        {
          "internalType": "uint256[]",
          "name": "vintages",
          "type": "uint256[]"
        },
        {
          "internalType": "bytes",
          "name": "data",
          "type": "bytes"
        }
      ],
      "name": "mintBatch",
      "outputs": [],
      "stateMutability": "nonpayable",
      "type": "function"
    },
    {
      "inputs": [],
      "name": "name",
      "outputs": [
        {
          "internalType": "string",
          "name": "",
          "type": "string"
        }
      ],
      "stateMutability": "view",
      "type": "function"
    },
    {
      "inputs": [
        {
          "internalType": "uint256",
          "name": "tokenId",
          "type": "uint256"
        }
      ],
      "name": "parcelIdFromTokenId",
      "outputs": [
        {
          "internalType": "uint256",
          "name": "",
          "type": "uint256"
        }
      ],
      "stateMutability": "view",
      "type": "function"
    },
    {
      "inputs": [],
      "name": "pause",
      "outputs": [],
      "stateMutability": "nonpayable",
      "type": "function"
    },
    {
      "inputs": [],
      "name": "paused",
      "outputs": [
        {
          "internalType": "bool",
          "name": "",
          "type": "bool"
        }
      ],
      "stateMutability": "view",
      "type": "function"
    },
    {
      "inputs": [
        {
          "internalType": "bytes32",
          "name": "role",
          "type": "bytes32"
        },
        {
          "internalType": "address",
          "name": "account",
          "type": "address"
        }
      ],
      "name": "renounceRole",
      "outputs": [],
      "stateMutability": "nonpayable",
      "type": "function"
    },
    {
      "inputs": [
        {
          "internalType": "bytes32",
          "name": "role",
          "type": "bytes32"
        },
        {
          "internalType": "address",
          "name": "account",
          "type": "address"
        }
      ],
      "name": "revokeRole",
      "outputs": [],
      "stateMutability": "nonpayable",
      "type": "function"
    },
    {
      "inputs": [
        {
          "internalType": "address",
          "name": "_from",
          "type": "address"
        },
        {
          "internalType": "address",
          "name": "_to",
          "type": "address"
        },
        {
          "internalType": "uint256[]",
          "name": "_ids",
          "type": "uint256[]"
        },
        {
          "internalType": "uint256[]",
          "name": "_amounts",
          "type": "uint256[]"
        },
        {
          "internalType": "bytes",
          "name": "_data",
          "type": "bytes"
        }
      ],
      "name": "safeBatchTransferFrom",
      "outputs": [],
      "stateMutability": "nonpayable",
      "type": "function"
    },
    {
      "inputs": [
        {
          "internalType": "address",
          "name": "from",
          "type": "address"
        },
        {
          "internalType": "address",
          "name": "to",
          "type": "address"
        },
        {
          "internalType": "uint256",
          "name": "id",
          "type": "uint256"
        },
        {
          "internalType": "uint256",
          "name": "amount",
          "type": "uint256"
        },
        {
          "internalType": "bytes",
          "name": "data",
          "type": "bytes"
        }
      ],
      "name": "safeTransferFrom",
      "outputs": [],
      "stateMutability": "nonpayable",
      "type": "function"
    },
    {
      "inputs": [
        {
          "internalType": "address",
          "name": "owner",
          "type": "address"
        },
        {
          "internalType": "address",
          "name": "operator",
          "type": "address"
        },
        {
          "internalType": "bool",
          "name": "approved",
          "type": "bool"
        }
      ],
      "name": "setApprovalForAll",
      "outputs": [],
      "stateMutability": "nonpayable",
      "type": "function"
    },
    {
      "inputs": [
        {
          "internalType": "address",
          "name": "operator",
          "type": "address"
        },
        {
          "internalType": "bool",
          "name": "approved",
          "type": "bool"
        }
      ],
      "name": "setApprovalForAll",
      "outputs": [],
      "stateMutability": "nonpayable",
      "type": "function"
    },
    {
      "inputs": [
        {
          "internalType": "bytes4",
          "name": "interfaceId",
          "type": "bytes4"
        }
      ],
      "name": "supportsInterface",
      "outputs": [
        {
          "internalType": "bool",
          "name": "",
          "type": "bool"
        }
      ],
      "stateMutability": "view",
      "type": "function"
    },
    {
      "inputs": [
        {
          "internalType": "uint256",
          "name": "id",
          "type": "uint256"
        }
      ],
      "name": "totalSupply",
      "outputs": [
        {
          "internalType": "uint256",
          "name": "",
          "type": "uint256"
        }
      ],
      "stateMutability": "view",
      "type": "function"
    },
    {
      "inputs": [],
      "name": "unpause",
      "outputs": [],
      "stateMutability": "nonpayable",
      "type": "function"
    },
    {
      "inputs": [
        {
          "internalType": "uint256",
          "name": "",
          "type": "uint256"
        }
      ],
      "name": "uri",
      "outputs": [
        {
          "internalType": "string",
          "name": "",
          "type": "string"
        }
      ],
      "stateMutability": "view",
      "type": "function"
    },
    {
      "inputs": [
        {
          "internalType": "uint256",
          "name": "removalId",
          "type": "uint256"
        }
      ],
      "name": "vintage",
      "outputs": [
        {
          "components": [
            {
              "internalType": "address",
              "name": "supplier",
              "type": "address"
            },
            {
              "internalType": "uint16",
              "name": "vintage",
              "type": "uint16"
            }
          ],
          "internalType": "struct Removal.Vintage",
          "name": "",
          "type": "tuple"
        }
      ],
      "stateMutability": "view",
      "type": "function"
    },
    {
      "inputs": [
        {
          "internalType": "uint256",
          "name": "tokenId",
          "type": "uint256"
        }
      ],
      "name": "vintageFromTokenId",
      "outputs": [
        {
          "internalType": "uint256",
          "name": "",
          "type": "uint256"
        }
      ],
      "stateMutability": "view",
      "type": "function"
    }
  ],
  "bytecode": "0x608060405234801561001057600080fd5b506134e9806100206000396000f3fe608060405234801561001057600080fd5b50600436106102055760003560e01c8063737fa5891161011a578063bd85b039116100ad578063e63ab1e91161007c578063e63ab1e9146104ec578063e985e9c514610501578063f242432a1461053d578063f5298aca14610550578063f62d18881461056357600080fd5b8063bd85b03914610490578063ca15c873146104b1578063d5391393146104c4578063d547741f146104d957600080fd5b806391d14854116100e957806391d148541461044f578063a217fddf14610462578063a22cb4651461046a578063b2cfa72c1461047d57600080fd5b8063737fa5891461038f5780638129fc1c146104145780638456cb591461041c5780639010d07c1461042457600080fd5b80632f2ff15d1161019d5780634e1273f41161016c5780634e1273f41461031a5780634f558e791461033a5780635c975abb1461035d5780636b20c45414610369578063731133e91461037c57600080fd5b80632f2ff15d146102d957806336568abe146102ec578063367605ca146102ff5780633f4ba83a1461031257600080fd5b8063115b7099116101d9578063115b70991461027b5780631f7fdffa1461028e578063248a9ca3146102a35780632eb2c2d6146102c657600080fd5b8062fdd58e1461020a57806301ffc9a71461023057806306fdde03146102535780630e89341c14610268575b600080fd5b61021d61021836600461257e565b610576565b6040519081526020015b60405180910390f35b61024361023e3660046125c0565b610612565b6040519015158152602001610227565b61025b61061d565b6040516102279190612635565b61025b610276366004612648565b6106ac565b61021d610289366004612648565b610740565b6102a161029c3660046127b4565b61074f565b005b61021d6102b1366004612648565b60009081526065602052604090206001015490565b6102a16102d436600461284e565b610900565b6102a16102e73660046128fb565b610914565b6102a16102fa3660046128fb565b61093f565b6102a161030d366004612939565b6109bd565b6102a1610a21565b61032d610328366004612984565b610ab5565b6040516102279190612a8b565b610243610348366004612648565b60009081526101c36020526040902054151590565b61012d5460ff16610243565b6102a1610377366004612a9e565b610bde565b6102a161038a366004612b13565b610c21565b6103ec61039d366004612648565b60408051808201909152600080825260208201525060009081526101f560209081526040918290208251808401909352546001600160a01b0381168352600160a01b900461ffff169082015290565b6040805182516001600160a01b0316815260209283015161ffff169281019290925201610227565b6102a1610c61565b6102a1610d32565b610437610432366004612b69565b610dc4565b6040516001600160a01b039091168152602001610227565b61024361045d3660046128fb565b610de3565b61021d600081565b6102a1610478366004612b8b565b610e0e565b61021d61048b366004612648565b610e19565b61021d61049e366004612648565b60009081526101c3602052604090205490565b61021d6104bf366004612648565b610e28565b61021d60008051602061346e83398151915281565b6102a16104e73660046128fb565b610e3f565b61021d60008051602061344e83398151915281565b61024361050f366004612bb9565b6001600160a01b03918216600090815260ca6020908152604080832093909416825291909152205460ff1690565b6102a161054b366004612be7565b610e65565b6102a161055e366004612c4f565b610eaa565b6102a1610571366004612c84565b610eed565b60006001600160a01b0383166105e75760405162461bcd60e51b815260206004820152602b60248201527f455243313135353a2062616c616e636520717565727920666f7220746865207a60448201526a65726f206164647265737360a81b60648201526084015b60405180910390fd5b50600081815260c9602090815260408083206001600160a01b03861684529091529020545b92915050565b600061060c82610f68565b6101f7805461062b90612cd4565b80601f016020809104026020016040519081016040528092919081815260200182805461065790612cd4565b80156106a45780601f10610679576101008083540402835291602001916106a4565b820191906000526020600020905b81548152906001019060200180831161068757829003601f168201915b505050505081565b606060cb80546106bb90612cd4565b80601f01602080910402602001604051908101604052809291908181526020018280546106e790612cd4565b80156107345780601f1061070957610100808354040283529160200191610734565b820191906000526020600020905b81548152906001019060200180831161071757829003601f168201915b50505050509050919050565b600061060c8260086004610f73565b6000818060200190518101906107659190612d0f565b9050600083516001600160401b0381111561078257610782612661565b6040519080825280602002602001820160405280156107ab578160200160208202803683370190505b50905060005b845181101561088d57806101f6546107c99190612d83565b8282815181106107db576107db612d9b565b6020026020010181815250506040518060400160405280886001600160a01b0316815260200186838151811061081357610813612d9b565b602002602001015161ffff168152506101f56000836101f6546108369190612d83565b815260208082019290925260400160002082518154939092015161ffff16600160a01b026001600160b01b03199093166001600160a01b03909216919091179190911790558061088581612db1565b9150506107b1565b50806001825161089d9190612dcc565b815181106108ad576108ad612d9b565b602002602001015160016108c19190612d83565b6101f6556108d186828786610fbf565b6108dd863360016109bd565b8160200151156108f8576108f8868360000151838887610900565b505050505050565b61090d8585858585610fff565b5050505050565b600082815260656020526040902060010154610930813361108f565b61093a83836110f3565b505050565b6001600160a01b03811633146109af5760405162461bcd60e51b815260206004820152602f60248201527f416363657373436f6e74726f6c3a2063616e206f6e6c792072656e6f756e636560448201526e103937b632b9903337b91039b2b63360891b60648201526084016105de565b6109b98282611115565b5050565b60006109c9813361108f565b61012d5460ff1615610a105760405162461bcd60e51b815260206004820152601060248201526f14185d5cd8589b194e881c185d5cd95960821b60448201526064016105de565b610a1b848484611137565b50505050565b610a3960008051602061344e83398151915233610de3565b610aab5760405162461bcd60e51b815260206004820152603b60248201527f455243313135355072657365744d696e7465725061757365723a206d7573742060448201527f686176652070617573657220726f6c6520746f20756e7061757365000000000060648201526084016105de565b610ab3611218565b565b60608151835114610b1a5760405162461bcd60e51b815260206004820152602960248201527f455243313135353a206163636f756e747320616e6420696473206c656e677468604482015268040dad2e6dac2e8c6d60bb1b60648201526084016105de565b600083516001600160401b03811115610b3557610b35612661565b604051908082528060200260200182016040528015610b5e578160200160208202803683370190505b50905060005b8451811015610bd657610ba9858281518110610b8257610b82612d9b565b6020026020010151858381518110610b9c57610b9c612d9b565b6020026020010151610576565b828281518110610bbb57610bbb612d9b565b6020908102919091010152610bcf81612db1565b9050610b64565b509392505050565b6001600160a01b038316331480610bfa5750610bfa833361050f565b610c165760405162461bcd60e51b81526004016105de90612de3565b61093a8383836112ad565b610c3960008051602061346e83398151915233610de3565b610c555760405162461bcd60e51b81526004016105de90612e2c565b610a1b8484848461143e565b600054610100900460ff16610c7c5760005460ff1615610c80565b303b155b610c9c5760405162461bcd60e51b81526004016105de90612e89565b600054610100900460ff16158015610cbe576000805461ffff19166101011790555b610cdf60405180606001604052806026815260200161348e60269139610eed565b610ce7611516565b60006101f6556040805180820190915260078082526614995b5bdd985b60ca1b6020909201918252610d1c916101f7916124d0565b508015610d2f576000805461ff00191690555b50565b610d4a60008051602061344e83398151915233610de3565b610dbc5760405162461bcd60e51b815260206004820152603960248201527f455243313135355072657365744d696e7465725061757365723a206d7573742060448201527f686176652070617573657220726f6c6520746f2070617573650000000000000060648201526084016105de565b610ab361153d565b6000828152609760205260408120610ddc90836115ba565b9392505050565b60009182526065602090815260408084206001600160a01b0393909316845291905290205460ff1690565b6109b9338383611137565b600061060c8260046000610f73565b600081815260976020526040812061060c906115c6565b600082815260656020526040902060010154610e5b813361108f565b61093a8383611115565b6001600160a01b038516331480610e815750610e81853361050f565b610e9d5760405162461bcd60e51b81526004016105de90612de3565b61090d85858585856115d0565b6001600160a01b038316331480610ec65750610ec6833361050f565b610ee25760405162461bcd60e51b81526004016105de90612de3565b61093a8383836116f1565b600054610100900460ff16610f085760005460ff1615610f0c565b303b155b610f285760405162461bcd60e51b81526004016105de90612e89565b600054610100900460ff16158015610f4a576000805461ffff19166101011790555b610f53826117f6565b80156109b9576000805461ff00191690555050565b600061060c82611837565b600080610f81836008612ed7565b6001610f8e866008612ed7565b610f99906002612fda565b610fa39190612dcc565b901b9050848116610fb5846008612ed7565b1c95945050505050565b610fd760008051602061346e83398151915233610de3565b610ff35760405162461bcd60e51b81526004016105de90612e2c565b610a1b84848484611877565b6001600160a01b03851633148061101b575061101b853361050f565b6110825760405162461bcd60e51b815260206004820152603260248201527f455243313135353a207472616e736665722063616c6c6572206973206e6f74206044820152711bdddb995c881b9bdc88185c1c1c9bdd995960721b60648201526084016105de565b61090d85858585856119d2565b6110998282610de3565b6109b9576110b1816001600160a01b03166014611b77565b6110bc836020611b77565b6040516020016110cd929190612fe6565b60408051601f198184030181529082905262461bcd60e51b82526105de91600401612635565b6110fd8282611d12565b600082815260976020526040902061093a9082611d98565b61111f8282611dad565b600082815260976020526040902061093a9082611e14565b816001600160a01b0316836001600160a01b031614156111ab5760405162461bcd60e51b815260206004820152602960248201527f455243313135353a2073657474696e6720617070726f76616c20737461747573604482015268103337b91039b2b63360b91b60648201526084016105de565b6001600160a01b03838116600081815260ca6020908152604080832094871680845294825291829020805460ff191686151590811790915591519182527f17307eab39ab6107e8899845ad3d59bd9653f200f220920489ca2b5937696c31910160405180910390a3505050565b61012d5460ff166112625760405162461bcd60e51b815260206004820152601460248201527314185d5cd8589b194e881b9bdd081c185d5cd95960621b60448201526064016105de565b61012d805460ff191690557f5db9ee0a495bf2e6ff9c91a7834c1ba4fdd244a5e8aa4e537bd38aeae4b073aa335b6040516001600160a01b03909116815260200160405180910390a1565b6001600160a01b0383166112d35760405162461bcd60e51b81526004016105de9061305b565b80518251146112f45760405162461bcd60e51b81526004016105de9061309e565b600033905061131781856000868660405180602001604052806000815250611e29565b60005b83518110156113df57600084828151811061133757611337612d9b565b60200260200101519050600084838151811061135557611355612d9b565b602090810291909101810151600084815260c9835260408082206001600160a01b038c1683529093529190912054909150818110156113a65760405162461bcd60e51b81526004016105de906130e6565b600092835260c9602090815260408085206001600160a01b038b16865290915290922091039055806113d781612db1565b91505061131a565b5060006001600160a01b0316846001600160a01b0316826001600160a01b03167f4a39dc06d4c0dbc64b70af90fd698a233a518aa5d07e595d983b8c0526c8f7fb868660405161143092919061312a565b60405180910390a450505050565b6001600160a01b0384166114645760405162461bcd60e51b81526004016105de90613158565b336114848160008761147588611e37565b61147e88611e37565b87611e29565b600084815260c9602090815260408083206001600160a01b0389168452909152812080548592906114b6908490612d83565b909155505060408051858152602081018590526001600160a01b0380881692600092918516917fc3d58168c5ae7397731d063d5bbf3d657854427343f4c083240f7aacaa2d0f62910160405180910390a461090d81600087878787611e82565b600054610100900460ff16610ab35760405162461bcd60e51b81526004016105de90613199565b61012d5460ff16156115845760405162461bcd60e51b815260206004820152601060248201526f14185d5cd8589b194e881c185d5cd95960821b60448201526064016105de565b61012d805460ff191660011790557f62e78cea01bee320cd4e420270b5ea74000d11b0c9f74754ebdbfc544b05a2586112903390565b6000610ddc8383611fde565b600061060c825490565b6001600160a01b0384166115f65760405162461bcd60e51b81526004016105de906131e4565b3361160681878761147588611e37565b600084815260c9602090815260408083206001600160a01b038a168452909152902054838110156116495760405162461bcd60e51b81526004016105de90613229565b600085815260c9602090815260408083206001600160a01b038b8116855292528083208785039055908816825281208054869290611688908490612d83565b909155505060408051868152602081018690526001600160a01b03808916928a821692918616917fc3d58168c5ae7397731d063d5bbf3d657854427343f4c083240f7aacaa2d0f62910160405180910390a46116e8828888888888611e82565b50505050505050565b6001600160a01b0383166117175760405162461bcd60e51b81526004016105de9061305b565b336117468185600061172887611e37565b61173187611e37565b60405180602001604052806000815250611e29565b600083815260c9602090815260408083206001600160a01b0388168452909152902054828110156117895760405162461bcd60e51b81526004016105de906130e6565b600084815260c9602090815260408083206001600160a01b03898116808652918452828520888703905582518981529384018890529092908616917fc3d58168c5ae7397731d063d5bbf3d657854427343f4c083240f7aacaa2d0f62910160405180910390a45050505050565b600054610100900460ff1661181d5760405162461bcd60e51b81526004016105de90613199565b61182681612008565b61182e612038565b610d2f8161206c565b60006001600160e01b03198216636cdb3d1360e11b148061186857506001600160e01b031982166303a24d0760e21b145b8061060c575061060c826120ce565b6001600160a01b03841661189d5760405162461bcd60e51b81526004016105de90613158565b81518351146118be5760405162461bcd60e51b81526004016105de9061309e565b336118ce81600087878787611e29565b60005b845181101561196a578381815181106118ec576118ec612d9b565b602002602001015160c9600087848151811061190a5761190a612d9b565b602002602001015181526020019081526020016000206000886001600160a01b03166001600160a01b0316815260200190815260200160002060008282546119529190612d83565b9091555081905061196281612db1565b9150506118d1565b50846001600160a01b031660006001600160a01b0316826001600160a01b03167f4a39dc06d4c0dbc64b70af90fd698a233a518aa5d07e595d983b8c0526c8f7fb87876040516119bb92919061312a565b60405180910390a461090d816000878787876120f3565b81518351146119f35760405162461bcd60e51b81526004016105de9061309e565b6001600160a01b038416611a195760405162461bcd60e51b81526004016105de906131e4565b33611a28818787878787611e29565b60005b8451811015611b11576000858281518110611a4857611a48612d9b565b602002602001015190506000858381518110611a6657611a66612d9b565b602090810291909101810151600084815260c9835260408082206001600160a01b038e168352909352919091205490915081811015611ab75760405162461bcd60e51b81526004016105de90613229565b600083815260c9602090815260408083206001600160a01b038e8116855292528083208585039055908b16825281208054849290611af6908490612d83565b9250508190555050505080611b0a90612db1565b9050611a2b565b50846001600160a01b0316866001600160a01b0316826001600160a01b03167f4a39dc06d4c0dbc64b70af90fd698a233a518aa5d07e595d983b8c0526c8f7fb8787604051611b6192919061312a565b60405180910390a46108f88187878787876120f3565b60606000611b86836002612ed7565b611b91906002612d83565b6001600160401b03811115611ba857611ba8612661565b6040519080825280601f01601f191660200182016040528015611bd2576020820181803683370190505b509050600360fc1b81600081518110611bed57611bed612d9b565b60200101906001600160f81b031916908160001a905350600f60fb1b81600181518110611c1c57611c1c612d9b565b60200101906001600160f81b031916908160001a9053506000611c40846002612ed7565b611c4b906001612d83565b90505b6001811115611cc3576f181899199a1a9b1b9c1cb0b131b232b360811b85600f1660108110611c7f57611c7f612d9b565b1a60f81b828281518110611c9557611c95612d9b565b60200101906001600160f81b031916908160001a90535060049490941c93611cbc81613273565b9050611c4e565b508315610ddc5760405162461bcd60e51b815260206004820181905260248201527f537472696e67733a20686578206c656e67746820696e73756666696369656e7460448201526064016105de565b611d1c8282610de3565b6109b95760008281526065602090815260408083206001600160a01b03851684529091529020805460ff19166001179055611d543390565b6001600160a01b0316816001600160a01b0316837f2f8788117e7eff1d82e926ec794901d17c78024a50270940304540a733656f0d60405160405180910390a45050565b6000610ddc836001600160a01b0384166121ae565b611db78282610de3565b156109b95760008281526065602090815260408083206001600160a01b0385168085529252808320805460ff1916905551339285917ff6391f5c32d9c69d2a47ea670b442974b53935d1edc7fd64eb21e047a839171b9190a45050565b6000610ddc836001600160a01b0384166121fd565b6108f88686868686866122f0565b60408051600180825281830190925260609160009190602080830190803683370190505090508281600081518110611e7157611e71612d9b565b602090810291909101015292915050565b6001600160a01b0384163b156108f85760405163f23a6e6160e01b81526001600160a01b0385169063f23a6e6190611ec6908990899088908890889060040161328a565b6020604051808303816000875af1925050508015611f01575060408051601f3d908101601f19168201909252611efe918101906132cf565b60015b611fae57611f0d6132ec565b806308c379a01415611f475750611f22613308565b80611f2d5750611f49565b8060405162461bcd60e51b81526004016105de9190612635565b505b60405162461bcd60e51b815260206004820152603460248201527f455243313135353a207472616e7366657220746f206e6f6e20455243313135356044820152732932b1b2b4bb32b91034b6b83632b6b2b73a32b960611b60648201526084016105de565b6001600160e01b0319811663f23a6e6160e01b146116e85760405162461bcd60e51b81526004016105de90613391565b6000826000018281548110611ff557611ff5612d9b565b9060005260206000200154905092915050565b600054610100900460ff1661202f5760405162461bcd60e51b81526004016105de90613199565b610d2f8161240c565b600054610100900460ff1661205f5760405162461bcd60e51b81526004016105de90613199565b61012d805460ff19169055565b600054610100900460ff166120935760405162461bcd60e51b81526004016105de90613199565b61209e60003361241f565b6120b660008051602061346e8339815191523361241f565b610d2f60008051602061344e8339815191523361241f565b60006001600160e01b03198216635a05180f60e01b148061060c575061060c82612429565b6001600160a01b0384163b156108f85760405163bc197c8160e01b81526001600160a01b0385169063bc197c819061213790899089908890889088906004016133d9565b6020604051808303816000875af1925050508015612172575060408051601f3d908101601f1916820190925261216f918101906132cf565b60015b61217e57611f0d6132ec565b6001600160e01b0319811663bc197c8160e01b146116e85760405162461bcd60e51b81526004016105de90613391565b60008181526001830160205260408120546121f55750815460018181018455600084815260208082209093018490558454848252828601909352604090209190915561060c565b50600061060c565b600081815260018301602052604081205480156122e6576000612221600183612dcc565b855490915060009061223590600190612dcc565b905081811461229a57600086600001828154811061225557612255612d9b565b906000526020600020015490508087600001848154811061227857612278612d9b565b6000918252602080832090910192909255918252600188019052604090208390555b85548690806122ab576122ab613437565b60019003818190600052602060002001600090559055856001016000868152602001908152602001600020600090556001935050505061060c565b600091505061060c565b6122fe86868686868661245e565b6001600160a01b0385166123865760005b83518110156123845782818151811061232a5761232a612d9b565b60200260200101516101c3600086848151811061234957612349612d9b565b60200260200101518152602001908152602001600020600082825461236e9190612d83565b9091555061237d905081612db1565b905061230f565b505b6001600160a01b0384166108f85760005b83518110156116e8578281815181106123b2576123b2612d9b565b60200260200101516101c360008684815181106123d1576123d1612d9b565b6020026020010151815260200190815260200160002060008282546123f69190612dcc565b90915550612405905081612db1565b9050612397565b80516109b99060cb9060208401906124d0565b6109b982826110f3565b60006001600160e01b03198216637965db0b60e01b148061060c57506301ffc9a760e01b6001600160e01b031983161461060c565b6108f886868686868661012d5460ff16156108f85760405162461bcd60e51b815260206004820152602c60248201527f455243313135355061757361626c653a20746f6b656e207472616e736665722060448201526b1dda1a5b19481c185d5cd95960a21b60648201526084016105de565b8280546124dc90612cd4565b90600052602060002090601f0160209004810192826124fe5760008555612544565b82601f1061251757805160ff1916838001178555612544565b82800160010185558215612544579182015b82811115612544578251825591602001919060010190612529565b50612550929150612554565b5090565b5b808211156125505760008155600101612555565b6001600160a01b0381168114610d2f57600080fd5b6000806040838503121561259157600080fd5b823561259c81612569565b946020939093013593505050565b6001600160e01b031981168114610d2f57600080fd5b6000602082840312156125d257600080fd5b8135610ddc816125aa565b60005b838110156125f85781810151838201526020016125e0565b83811115610a1b5750506000910152565b600081518084526126218160208601602086016125dd565b601f01601f19169290920160200192915050565b602081526000610ddc6020830184612609565b60006020828403121561265a57600080fd5b5035919050565b634e487b7160e01b600052604160045260246000fd5b601f8201601f191681016001600160401b038111828210171561269c5761269c612661565b6040525050565b60006001600160401b038211156126bc576126bc612661565b5060051b60200190565b600082601f8301126126d757600080fd5b813560206126e4826126a3565b6040516126f18282612677565b83815260059390931b850182019282810191508684111561271157600080fd5b8286015b8481101561272c5780358352918301918301612715565b509695505050505050565b60006001600160401b0383111561275057612750612661565b604051612767601f8501601f191660200182612677565b80915083815284848401111561277c57600080fd5b83836020830137600060208583010152509392505050565b600082601f8301126127a557600080fd5b610ddc83833560208501612737565b600080600080608085870312156127ca57600080fd5b84356127d581612569565b935060208501356001600160401b03808211156127f157600080fd5b6127fd888389016126c6565b9450604087013591508082111561281357600080fd5b61281f888389016126c6565b9350606087013591508082111561283557600080fd5b5061284287828801612794565b91505092959194509250565b600080600080600060a0868803121561286657600080fd5b853561287181612569565b9450602086013561288181612569565b935060408601356001600160401b038082111561289d57600080fd5b6128a989838a016126c6565b945060608801359150808211156128bf57600080fd5b6128cb89838a016126c6565b935060808801359150808211156128e157600080fd5b506128ee88828901612794565b9150509295509295909350565b6000806040838503121561290e57600080fd5b82359150602083013561292081612569565b809150509250929050565b8015158114610d2f57600080fd5b60008060006060848603121561294e57600080fd5b833561295981612569565b9250602084013561296981612569565b915060408401356129798161292b565b809150509250925092565b6000806040838503121561299757600080fd5b82356001600160401b03808211156129ae57600080fd5b818501915085601f8301126129c257600080fd5b813560206129cf826126a3565b6040516129dc8282612677565b83815260059390931b85018201928281019150898411156129fc57600080fd5b948201945b83861015612a23578535612a1481612569565b82529482019490820190612a01565b96505086013592505080821115612a3957600080fd5b50612a46858286016126c6565b9150509250929050565b600081518084526020808501945080840160005b83811015612a8057815187529582019590820190600101612a64565b509495945050505050565b602081526000610ddc6020830184612a50565b600080600060608486031215612ab357600080fd5b8335612abe81612569565b925060208401356001600160401b0380821115612ada57600080fd5b612ae6878388016126c6565b93506040860135915080821115612afc57600080fd5b50612b09868287016126c6565b9150509250925092565b60008060008060808587031215612b2957600080fd5b8435612b3481612569565b9350602085013592506040850135915060608501356001600160401b03811115612b5d57600080fd5b61284287828801612794565b60008060408385031215612b7c57600080fd5b50508035926020909101359150565b60008060408385031215612b9e57600080fd5b8235612ba981612569565b915060208301356129208161292b565b60008060408385031215612bcc57600080fd5b8235612bd781612569565b9150602083013561292081612569565b600080600080600060a08688031215612bff57600080fd5b8535612c0a81612569565b94506020860135612c1a81612569565b9350604086013592506060860135915060808601356001600160401b03811115612c4357600080fd5b6128ee88828901612794565b600080600060608486031215612c6457600080fd5b8335612c6f81612569565b95602085013595506040909401359392505050565b600060208284031215612c9657600080fd5b81356001600160401b03811115612cac57600080fd5b8201601f81018413612cbd57600080fd5b612ccc84823560208401612737565b949350505050565b600181811c90821680612ce857607f821691505b60208210811415612d0957634e487b7160e01b600052602260045260246000fd5b50919050565b600060408284031215612d2157600080fd5b604051604081018181106001600160401b0382111715612d4357612d43612661565b6040528251612d5181612569565b81526020830151612d618161292b565b60208201529392505050565b634e487b7160e01b600052601160045260246000fd5b60008219821115612d9657612d96612d6d565b500190565b634e487b7160e01b600052603260045260246000fd5b6000600019821415612dc557612dc5612d6d565b5060010190565b600082821015612dde57612dde612d6d565b500390565b60208082526029908201527f455243313135353a2063616c6c6572206973206e6f74206f776e6572206e6f7260408201526808185c1c1c9bdd995960ba1b606082015260800190565b60208082526038908201527f455243313135355072657365744d696e7465725061757365723a206d7573742060408201527f68617665206d696e74657220726f6c6520746f206d696e740000000000000000606082015260800190565b6020808252602e908201527f496e697469616c697a61626c653a20636f6e747261637420697320616c72656160408201526d191e481a5b9a5d1a585b1a5e995960921b606082015260800190565b6000816000190483118215151615612ef157612ef1612d6d565b500290565b600181815b80851115612f31578160001904821115612f1757612f17612d6d565b80851615612f2457918102915b93841c9390800290612efb565b509250929050565b600082612f485750600161060c565b81612f555750600061060c565b8160018114612f6b5760028114612f7557612f91565b600191505061060c565b60ff841115612f8657612f86612d6d565b50506001821b61060c565b5060208310610133831016604e8410600b8410161715612fb4575081810a61060c565b612fbe8383612ef6565b8060001904821115612fd257612fd2612d6d565b029392505050565b6000610ddc8383612f39565b7f416363657373436f6e74726f6c3a206163636f756e742000000000000000000081526000835161301e8160178501602088016125dd565b7001034b99036b4b9b9b4b733903937b6329607d1b601791840191820152835161304f8160288401602088016125dd565b01602801949350505050565b60208082526023908201527f455243313135353a206275726e2066726f6d20746865207a65726f206164647260408201526265737360e81b606082015260800190565b60208082526028908201527f455243313135353a2069647320616e6420616d6f756e7473206c656e677468206040820152670dad2e6dac2e8c6d60c31b606082015260800190565b60208082526024908201527f455243313135353a206275726e20616d6f756e7420657863656564732062616c604082015263616e636560e01b606082015260800190565b60408152600061313d6040830185612a50565b828103602084015261314f8185612a50565b95945050505050565b60208082526021908201527f455243313135353a206d696e7420746f20746865207a65726f206164647265736040820152607360f81b606082015260800190565b6020808252602b908201527f496e697469616c697a61626c653a20636f6e7472616374206973206e6f74206960408201526a6e697469616c697a696e6760a81b606082015260800190565b60208082526025908201527f455243313135353a207472616e7366657220746f20746865207a65726f206164604082015264647265737360d81b606082015260800190565b6020808252602a908201527f455243313135353a20696e73756666696369656e742062616c616e636520666f60408201526939103a3930b739b332b960b11b606082015260800190565b60008161328257613282612d6d565b506000190190565b6001600160a01b03868116825285166020820152604081018490526060810183905260a0608082018190526000906132c490830184612609565b979650505050505050565b6000602082840312156132e157600080fd5b8151610ddc816125aa565b600060033d11156133055760046000803e5060005160e01c5b90565b600060443d10156133165790565b6040516003193d81016004833e81513d6001600160401b03816024840111818411171561334557505050505090565b828501915081518181111561335d5750505050505090565b843d87010160208285010111156133775750505050505090565b61338660208286010187612677565b509095945050505050565b60208082526028908201527f455243313135353a204552433131353552656365697665722072656a656374656040820152676420746f6b656e7360c01b606082015260800190565b6001600160a01b0386811682528516602082015260a06040820181905260009061340590830186612a50565b82810360608401526134178186612a50565b9050828103608084015261342b8185612609565b98975050505050505050565b634e487b7160e01b600052603160045260246000fdfe65d7a28e3265b37a6474929f336521b332c1681b933f6cb9f3376673440d862a9f2df0fed2c77648de5860a4cc508cd0818c85b8b8a1ab4ceeef8d981c8956a668747470733a2f2f6e6f72692e636f6d2f6170692f72656d6f76616c2f7b69647d2e6a736f6ea2646970667358221220f0f74b23c653b9c0bfe1e0f354645db7877f61fedff7df1df34d96cce3eaa6ff64736f6c634300080c0033",
  "linkReferences": {},
  "deployedLinkReferences": {}
}