{
  "_format": "hh-sol-artifact-1",
  "contractName": "Removal",
  "sourceName": "contracts/Removal.sol",
  "abi": [
    {
      "anonymous": false,
      "inputs": [
        {
          "indexed": true,
          "internalType": "address",
          "name": "account",
          "type": "address"
        },
        {
          "indexed": true,
          "internalType": "address",
          "name": "operator",
          "type": "address"
        },
        {
          "indexed": false,
          "internalType": "bool",
          "name": "approved",
          "type": "bool"
        }
      ],
      "name": "ApprovalForAll",
      "type": "event"
    },
    {
      "anonymous": false,
      "inputs": [
        {
          "indexed": false,
          "internalType": "address",
          "name": "account",
          "type": "address"
        }
      ],
      "name": "Paused",
      "type": "event"
    },
    {
      "anonymous": false,
      "inputs": [
        {
          "indexed": true,
          "internalType": "bytes32",
          "name": "role",
          "type": "bytes32"
        },
        {
          "indexed": true,
          "internalType": "bytes32",
          "name": "previousAdminRole",
          "type": "bytes32"
        },
        {
          "indexed": true,
          "internalType": "bytes32",
          "name": "newAdminRole",
          "type": "bytes32"
        }
      ],
      "name": "RoleAdminChanged",
      "type": "event"
    },
    {
      "anonymous": false,
      "inputs": [
        {
          "indexed": true,
          "internalType": "bytes32",
          "name": "role",
          "type": "bytes32"
        },
        {
          "indexed": true,
          "internalType": "address",
          "name": "account",
          "type": "address"
        },
        {
          "indexed": true,
          "internalType": "address",
          "name": "sender",
          "type": "address"
        }
      ],
      "name": "RoleGranted",
      "type": "event"
    },
    {
      "anonymous": false,
      "inputs": [
        {
          "indexed": true,
          "internalType": "bytes32",
          "name": "role",
          "type": "bytes32"
        },
        {
          "indexed": true,
          "internalType": "address",
          "name": "account",
          "type": "address"
        },
        {
          "indexed": true,
          "internalType": "address",
          "name": "sender",
          "type": "address"
        }
      ],
      "name": "RoleRevoked",
      "type": "event"
    },
    {
      "anonymous": false,
      "inputs": [
        {
          "indexed": true,
          "internalType": "address",
          "name": "operator",
          "type": "address"
        },
        {
          "indexed": true,
          "internalType": "address",
          "name": "from",
          "type": "address"
        },
        {
          "indexed": true,
          "internalType": "address",
          "name": "to",
          "type": "address"
        },
        {
          "indexed": false,
          "internalType": "uint256[]",
          "name": "ids",
          "type": "uint256[]"
        },
        {
          "indexed": false,
          "internalType": "uint256[]",
          "name": "values",
          "type": "uint256[]"
        }
      ],
      "name": "TransferBatch",
      "type": "event"
    },
    {
      "anonymous": false,
      "inputs": [
        {
          "indexed": true,
          "internalType": "address",
          "name": "operator",
          "type": "address"
        },
        {
          "indexed": true,
          "internalType": "address",
          "name": "from",
          "type": "address"
        },
        {
          "indexed": true,
          "internalType": "address",
          "name": "to",
          "type": "address"
        },
        {
          "indexed": false,
          "internalType": "uint256",
          "name": "id",
          "type": "uint256"
        },
        {
          "indexed": false,
          "internalType": "uint256",
          "name": "value",
          "type": "uint256"
        }
      ],
      "name": "TransferSingle",
      "type": "event"
    },
    {
      "anonymous": false,
      "inputs": [
        {
          "indexed": false,
          "internalType": "string",
          "name": "value",
          "type": "string"
        },
        {
          "indexed": true,
          "internalType": "uint256",
          "name": "id",
          "type": "uint256"
        }
      ],
      "name": "URI",
      "type": "event"
    },
    {
      "anonymous": false,
      "inputs": [
        {
          "indexed": false,
          "internalType": "address",
          "name": "account",
          "type": "address"
        }
      ],
      "name": "Unpaused",
      "type": "event"
    },
    {
      "inputs": [],
      "name": "DEFAULT_ADMIN_ROLE",
      "outputs": [
        {
          "internalType": "bytes32",
          "name": "",
          "type": "bytes32"
        }
      ],
      "stateMutability": "view",
      "type": "function"
    },
    {
      "inputs": [],
      "name": "MINTER_ROLE",
      "outputs": [
        {
          "internalType": "bytes32",
          "name": "",
          "type": "bytes32"
        }
      ],
      "stateMutability": "view",
      "type": "function"
    },
    {
      "inputs": [],
      "name": "PAUSER_ROLE",
      "outputs": [
        {
          "internalType": "bytes32",
          "name": "",
          "type": "bytes32"
        }
      ],
      "stateMutability": "view",
      "type": "function"
    },
    {
      "inputs": [
        {
          "internalType": "address",
          "name": "account",
          "type": "address"
        },
        {
          "internalType": "uint256",
          "name": "id",
          "type": "uint256"
        }
      ],
      "name": "balanceOf",
      "outputs": [
        {
          "internalType": "uint256",
          "name": "",
          "type": "uint256"
        }
      ],
      "stateMutability": "view",
      "type": "function"
    },
    {
      "inputs": [
        {
          "internalType": "address[]",
          "name": "accounts",
          "type": "address[]"
        },
        {
          "internalType": "uint256[]",
          "name": "ids",
          "type": "uint256[]"
        }
      ],
      "name": "balanceOfBatch",
      "outputs": [
        {
          "internalType": "uint256[]",
          "name": "",
          "type": "uint256[]"
        }
      ],
      "stateMutability": "view",
      "type": "function"
    },
    {
      "inputs": [
        {
          "internalType": "address",
          "name": "account",
          "type": "address"
        },
        {
          "internalType": "uint256",
          "name": "id",
          "type": "uint256"
        },
        {
          "internalType": "uint256",
          "name": "value",
          "type": "uint256"
        }
      ],
      "name": "burn",
      "outputs": [],
      "stateMutability": "nonpayable",
      "type": "function"
    },
    {
      "inputs": [
        {
          "internalType": "address",
          "name": "account",
          "type": "address"
        },
        {
          "internalType": "uint256[]",
          "name": "ids",
          "type": "uint256[]"
        },
        {
          "internalType": "uint256[]",
          "name": "values",
          "type": "uint256[]"
        }
      ],
      "name": "burnBatch",
      "outputs": [],
      "stateMutability": "nonpayable",
      "type": "function"
    },
    {
      "inputs": [
        {
          "internalType": "uint256",
          "name": "id",
          "type": "uint256"
        }
      ],
      "name": "exists",
      "outputs": [
        {
          "internalType": "bool",
          "name": "",
          "type": "bool"
        }
      ],
      "stateMutability": "view",
      "type": "function"
    },
    {
      "inputs": [
        {
          "internalType": "bytes32",
          "name": "role",
          "type": "bytes32"
        }
      ],
      "name": "getRoleAdmin",
      "outputs": [
        {
          "internalType": "bytes32",
          "name": "",
          "type": "bytes32"
        }
      ],
      "stateMutability": "view",
      "type": "function"
    },
    {
      "inputs": [
        {
          "internalType": "bytes32",
          "name": "role",
          "type": "bytes32"
        },
        {
          "internalType": "uint256",
          "name": "index",
          "type": "uint256"
        }
      ],
      "name": "getRoleMember",
      "outputs": [
        {
          "internalType": "address",
          "name": "",
          "type": "address"
        }
      ],
      "stateMutability": "view",
      "type": "function"
    },
    {
      "inputs": [
        {
          "internalType": "bytes32",
          "name": "role",
          "type": "bytes32"
        }
      ],
      "name": "getRoleMemberCount",
      "outputs": [
        {
          "internalType": "uint256",
          "name": "",
          "type": "uint256"
        }
      ],
      "stateMutability": "view",
      "type": "function"
    },
    {
      "inputs": [
        {
          "internalType": "bytes32",
          "name": "role",
          "type": "bytes32"
        },
        {
          "internalType": "address",
          "name": "account",
          "type": "address"
        }
      ],
      "name": "grantRole",
      "outputs": [],
      "stateMutability": "nonpayable",
      "type": "function"
    },
    {
      "inputs": [
        {
          "internalType": "bytes32",
          "name": "role",
          "type": "bytes32"
        },
        {
          "internalType": "address",
          "name": "account",
          "type": "address"
        }
      ],
      "name": "hasRole",
      "outputs": [
        {
          "internalType": "bool",
          "name": "",
          "type": "bool"
        }
      ],
      "stateMutability": "view",
      "type": "function"
    },
    {
      "inputs": [],
      "name": "initialize",
      "outputs": [],
      "stateMutability": "nonpayable",
      "type": "function"
    },
    {
      "inputs": [
        {
          "internalType": "string",
          "name": "uri",
          "type": "string"
        }
      ],
      "name": "initialize",
      "outputs": [],
      "stateMutability": "nonpayable",
      "type": "function"
    },
    {
      "inputs": [
        {
          "internalType": "address",
          "name": "account",
          "type": "address"
        },
        {
          "internalType": "address",
          "name": "operator",
          "type": "address"
        }
      ],
      "name": "isApprovedForAll",
      "outputs": [
        {
          "internalType": "bool",
          "name": "",
          "type": "bool"
        }
      ],
      "stateMutability": "view",
      "type": "function"
    },
    {
      "inputs": [
        {
          "internalType": "address",
          "name": "to",
          "type": "address"
        },
        {
          "internalType": "uint256",
          "name": "id",
          "type": "uint256"
        },
        {
          "internalType": "uint256",
          "name": "amount",
          "type": "uint256"
        },
        {
          "internalType": "bytes",
          "name": "data",
          "type": "bytes"
        }
      ],
      "name": "mint",
      "outputs": [],
      "stateMutability": "nonpayable",
      "type": "function"
    },
    {
      "inputs": [
        {
          "internalType": "address",
          "name": "to",
          "type": "address"
        },
        {
          "internalType": "uint256[]",
          "name": "amounts",
          "type": "uint256[]"
        },
        {
          "internalType": "uint256[]",
          "name": "vintages",
          "type": "uint256[]"
        },
        {
          "internalType": "bytes",
          "name": "data",
          "type": "bytes"
        }
      ],
      "name": "mintBatch",
      "outputs": [],
      "stateMutability": "nonpayable",
      "type": "function"
    },
    {
      "inputs": [],
      "name": "name",
      "outputs": [
        {
          "internalType": "string",
          "name": "",
          "type": "string"
        }
      ],
      "stateMutability": "view",
      "type": "function"
    },
    {
      "inputs": [],
      "name": "pause",
      "outputs": [],
      "stateMutability": "nonpayable",
      "type": "function"
    },
    {
      "inputs": [],
      "name": "paused",
      "outputs": [
        {
          "internalType": "bool",
          "name": "",
          "type": "bool"
        }
      ],
      "stateMutability": "view",
      "type": "function"
    },
    {
      "inputs": [
        {
          "internalType": "bytes32",
          "name": "role",
          "type": "bytes32"
        },
        {
          "internalType": "address",
          "name": "account",
          "type": "address"
        }
      ],
      "name": "renounceRole",
      "outputs": [],
      "stateMutability": "nonpayable",
      "type": "function"
    },
    {
      "inputs": [
        {
          "internalType": "bytes32",
          "name": "role",
          "type": "bytes32"
        },
        {
          "internalType": "address",
          "name": "account",
          "type": "address"
        }
      ],
      "name": "revokeRole",
      "outputs": [],
      "stateMutability": "nonpayable",
      "type": "function"
    },
    {
      "inputs": [
        {
          "internalType": "address",
          "name": "_from",
          "type": "address"
        },
        {
          "internalType": "address",
          "name": "_to",
          "type": "address"
        },
        {
          "internalType": "uint256[]",
          "name": "_ids",
          "type": "uint256[]"
        },
        {
          "internalType": "uint256[]",
          "name": "_amounts",
          "type": "uint256[]"
        },
        {
          "internalType": "bytes",
          "name": "_data",
          "type": "bytes"
        }
      ],
      "name": "safeBatchTransferFrom",
      "outputs": [],
      "stateMutability": "nonpayable",
      "type": "function"
    },
    {
      "inputs": [
        {
          "internalType": "address",
          "name": "from",
          "type": "address"
        },
        {
          "internalType": "address",
          "name": "to",
          "type": "address"
        },
        {
          "internalType": "uint256",
          "name": "id",
          "type": "uint256"
        },
        {
          "internalType": "uint256",
          "name": "amount",
          "type": "uint256"
        },
        {
          "internalType": "bytes",
          "name": "data",
          "type": "bytes"
        }
      ],
      "name": "safeTransferFrom",
      "outputs": [],
      "stateMutability": "nonpayable",
      "type": "function"
    },
    {
      "inputs": [
        {
          "internalType": "address",
          "name": "operator",
          "type": "address"
        },
        {
          "internalType": "bool",
          "name": "approved",
          "type": "bool"
        }
      ],
      "name": "setApprovalForAll",
      "outputs": [],
      "stateMutability": "nonpayable",
      "type": "function"
    },
    {
      "inputs": [
        {
          "internalType": "address",
          "name": "owner",
          "type": "address"
        },
        {
          "internalType": "address",
          "name": "operator",
          "type": "address"
        },
        {
          "internalType": "bool",
          "name": "approved",
          "type": "bool"
        }
      ],
      "name": "setApprovalForAllAsAdmin",
      "outputs": [],
      "stateMutability": "nonpayable",
      "type": "function"
    },
    {
      "inputs": [
        {
          "internalType": "bytes4",
          "name": "interfaceId",
          "type": "bytes4"
        }
      ],
      "name": "supportsInterface",
      "outputs": [
        {
          "internalType": "bool",
          "name": "",
          "type": "bool"
        }
      ],
      "stateMutability": "view",
      "type": "function"
    },
    {
      "inputs": [
        {
          "internalType": "bytes32[]",
          "name": "parcelIdentifiers",
          "type": "bytes32[]"
        },
        {
          "internalType": "uint256[]",
          "name": "removalVintages",
          "type": "uint256[]"
        }
      ],
      "name": "tokenIdsForRemovals",
      "outputs": [
        {
          "internalType": "uint256[]",
          "name": "",
          "type": "uint256[]"
        }
      ],
      "stateMutability": "view",
      "type": "function"
    },
    {
      "inputs": [
        {
          "internalType": "uint256",
          "name": "id",
          "type": "uint256"
        }
      ],
      "name": "totalSupply",
      "outputs": [
        {
          "internalType": "uint256",
          "name": "",
          "type": "uint256"
        }
      ],
      "stateMutability": "view",
      "type": "function"
    },
    {
      "inputs": [],
      "name": "unpause",
      "outputs": [],
      "stateMutability": "nonpayable",
      "type": "function"
    },
    {
      "inputs": [
        {
          "internalType": "uint256",
          "name": "",
          "type": "uint256"
        }
      ],
      "name": "uri",
      "outputs": [
        {
          "internalType": "string",
          "name": "",
          "type": "string"
        }
      ],
      "stateMutability": "view",
      "type": "function"
    },
    {
      "inputs": [
        {
          "internalType": "uint256",
          "name": "removalId",
          "type": "uint256"
        }
      ],
      "name": "vintage",
      "outputs": [
        {
          "components": [
            {
              "internalType": "address",
              "name": "supplier",
              "type": "address"
            },
            {
              "internalType": "uint16",
              "name": "vintage",
              "type": "uint16"
            },
            {
              "internalType": "bytes32",
              "name": "uniqueId",
              "type": "bytes32"
            }
          ],
          "internalType": "struct Removal.Vintage",
          "name": "",
          "type": "tuple"
        }
      ],
      "stateMutability": "view",
      "type": "function"
    }
  ],
  "bytecode": "0x608060405234801561001057600080fd5b506135d8806100206000396000f3fe608060405234801561001057600080fd5b50600436106101fa5760003560e01c8063731133e91161011a578063bd85b039116100ad578063e63ab1e91161007c578063e63ab1e9146104e2578063e985e9c5146104f7578063f242432a14610533578063f5298aca14610546578063f62d18881461055957600080fd5b8063bd85b03914610486578063ca15c873146104a7578063d5391393146104ba578063d547741f146104cf57600080fd5b80639010d07c116100e95780639010d07c1461042d57806391d1485414610458578063a217fddf1461046b578063a22cb4651461047357600080fd5b8063731133e914610371578063737fa589146103845780638129fc1c1461041d5780638456cb591461042557600080fd5b806336568abe116101925780635948525e116101615780635948525e1461032c5780635abec0b51461033f5780635c975abb146103525780636b20c4541461035e57600080fd5b806336568abe146102ce5780633f4ba83a146102e15780634e1273f4146102e95780634f558e791461030957600080fd5b80631f7fdffa116101ce5780631f7fdffa14610270578063248a9ca3146102855780632eb2c2d6146102a85780632f2ff15d146102bb57600080fd5b8062fdd58e146101ff57806301ffc9a71461022557806306fdde03146102485780630e89341c1461025d575b600080fd5b61021261020d3660046126ed565b61056c565b6040519081526020015b60405180910390f35b61023861023336600461272f565b610608565b604051901515815260200161021c565b610250610613565b60405161021c91906127a4565b61025061026b3660046127b7565b6106a2565b61028361027e366004612923565b610736565b005b6102126102933660046127b7565b60009081526065602052604090206001015490565b6102836102b63660046129bd565b610966565b6102836102c9366004612a6a565b61097a565b6102836102dc366004612a6a565b6109a5565b610283610a23565b6102fc6102f7366004612a9a565b610ab7565b60405161021c9190612ba1565b6102386103173660046127b7565b60009081526101c36020526040902054151590565b6102fc61033a366004612bb4565b610be0565b61028361034d366004612c58565b610d53565b61012d5460ff16610238565b61028361036c366004612ca3565b610d70565b61028361037f366004612d18565b610db3565b6103ee6103923660046127b7565b6040805160608082018352600080835260208084018290529284018190529384526101f58252928290208251938401835280546001600160a01b0381168552600160a01b900461ffff1691840191909152600101549082015290565b6040805182516001600160a01b0316815260208084015161ffff1690820152918101519082015260600161021c565b610283610df3565b610283610ec4565b61044061043b366004612d6e565b610f56565b6040516001600160a01b03909116815260200161021c565b610238610466366004612a6a565b610f75565b610212600081565b610283610481366004612d90565b610fa0565b6102126104943660046127b7565b60009081526101c3602052604090205490565b6102126104b53660046127b7565b610fab565b61021260008051602061355d83398151915281565b6102836104dd366004612a6a565b610fc2565b61021260008051602061353d83398151915281565b610238610505366004612dbe565b6001600160a01b03918216600090815260ca6020908152604080832093909416825291909152205460ff1690565b610283610541366004612dec565b610fe8565b610283610554366004612e54565b61102d565b610283610567366004612e89565b611070565b60006001600160a01b0383166105dd5760405162461bcd60e51b815260206004820152602b60248201527f455243313135353a2062616c616e636520717565727920666f7220746865207a60448201526a65726f206164647265737360a81b60648201526084015b60405180910390fd5b50600081815260c9602090815260408083206001600160a01b03861684529091529020545b92915050565b6000610602826110eb565b6101f8805461062190612ed9565b80601f016020809104026020016040519081016040528092919081815260200182805461064d90612ed9565b801561069a5780601f1061066f5761010080835404028352916020019161069a565b820191906000526020600020905b81548152906001019060200180831161067d57829003601f168201915b505050505081565b606060cb80546106b190612ed9565b80601f01602080910402602001604051908101604052809291908181526020018280546106dd90612ed9565b801561072a5780601f106106ff5761010080835404028352916020019161072a565b820191906000526020600020905b81548152906001019060200180831161070d57829003601f168201915b50505050509050919050565b60008060008380602001905181019061074f9190612f14565b925092509250600085516001600160401b03811115610770576107706127d0565b604051908082528060200260200182016040528015610799578160200160208202803683370190505b50905060005b86518110156108f9576000848883815181106107bd576107bd612f4c565b60200260200101516040516020016107df929190918252602082015260400190565b604051602081830303815290604052805190602001209050816101f7546108069190612f78565b83838151811061081857610818612f4c565b60200260200101818152505060405180606001604052808b6001600160a01b0316815260200189848151811061085057610850612f4c565b602002602001015161ffff168152602001828152506101f56000846101f7546108799190612f78565b81526020808201929092526040908101600020835181549385015161ffff16600160a01b026001600160b01b03199094166001600160a01b039091161792909217825591909101516001909101556101f7546108d6908390612f78565b60009182526101f6602052604090912055806108f181612f90565b91505061079f565b5080600182516109099190612fab565b8151811061091957610919612f4c565b6020026020010151600161092d9190612f78565b6101f75561093d888289886110f6565b61094988336001610d53565b811561095c5761095c8885838a89611136565b5050505050505050565b6109738585858585611136565b5050505050565b60008281526065602052604090206001015461099681336111c6565b6109a0838361122a565b505050565b6001600160a01b0381163314610a155760405162461bcd60e51b815260206004820152602f60248201527f416363657373436f6e74726f6c3a2063616e206f6e6c792072656e6f756e636560448201526e103937b632b9903337b91039b2b63360891b60648201526084016105d4565b610a1f828261124c565b5050565b610a3b60008051602061353d83398151915233610f75565b610aad5760405162461bcd60e51b815260206004820152603b60248201527f455243313135355072657365744d696e7465725061757365723a206d7573742060448201527f686176652070617573657220726f6c6520746f20756e7061757365000000000060648201526084016105d4565b610ab561126e565b565b60608151835114610b1c5760405162461bcd60e51b815260206004820152602960248201527f455243313135353a206163636f756e747320616e6420696473206c656e677468604482015268040dad2e6dac2e8c6d60bb1b60648201526084016105d4565b600083516001600160401b03811115610b3757610b376127d0565b604051908082528060200260200182016040528015610b60578160200160208202803683370190505b50905060005b8451811015610bd857610bab858281518110610b8457610b84612f4c565b6020026020010151858381518110610b9e57610b9e612f4c565b602002602001015161056c565b828281518110610bbd57610bbd612f4c565b6020908102919091010152610bd181612f90565b9050610b66565b509392505050565b60608151835114610c595760405162461bcd60e51b815260206004820152603860248201527f70617263656c4964656e74696665727320616e642072656d6f76616c56696e7460448201527f61676573206d7573742062652073616d65206c656e677468000000000000000060648201526084016105d4565b600082516001600160401b03811115610c7457610c746127d0565b604051908082528060200260200182016040528015610c9d578160200160208202803683370190505b50905060005b8351811015610bd8576101f66000868381518110610cc357610cc3612f4c565b6020026020010151868481518110610cdd57610cdd612f4c565b6020026020010151604051602001610cff929190918252602082015260400190565b60405160208183030381529060405280519060200120815260200190815260200160002054828281518110610d3657610d36612f4c565b602090810291909101015280610d4b81612f90565b915050610ca3565b6000610d5f81336111c6565b610d6a848484611303565b50505050565b6001600160a01b038316331480610d8c5750610d8c8333610505565b610da85760405162461bcd60e51b81526004016105d490612fc2565b6109a08383836113e4565b610dcb60008051602061355d83398151915233610f75565b610de75760405162461bcd60e51b81526004016105d49061300b565b610d6a84848484611575565b600054610100900460ff16610e0e5760005460ff1615610e12565b303b155b610e2e5760405162461bcd60e51b81526004016105d490613068565b600054610100900460ff16158015610e50576000805461ffff19166101011790555b610e7160405180606001604052806026815260200161357d60269139611070565b610e7961164d565b60006101f7556040805180820190915260078082526614995b5bdd985b60ca1b6020909201918252610eae916101f89161263f565b508015610ec1576000805461ff00191690555b50565b610edc60008051602061353d83398151915233610f75565b610f4e5760405162461bcd60e51b815260206004820152603960248201527f455243313135355072657365744d696e7465725061757365723a206d7573742060448201527f686176652070617573657220726f6c6520746f2070617573650000000000000060648201526084016105d4565b610ab5611674565b6000828152609760205260408120610f6e90836116f1565b9392505050565b60009182526065602090815260408084206001600160a01b0393909316845291905290205460ff1690565b610a1f338383611303565b6000818152609760205260408120610602906116fd565b600082815260656020526040902060010154610fde81336111c6565b6109a0838361124c565b6001600160a01b03851633148061100457506110048533610505565b6110205760405162461bcd60e51b81526004016105d490612fc2565b6109738585858585611707565b6001600160a01b03831633148061104957506110498333610505565b6110655760405162461bcd60e51b81526004016105d490612fc2565b6109a0838383611828565b600054610100900460ff1661108b5760005460ff161561108f565b303b155b6110ab5760405162461bcd60e51b81526004016105d490613068565b600054610100900460ff161580156110cd576000805461ffff19166101011790555b6110d68261192d565b8015610a1f576000805461ff00191690555050565b60006106028261199e565b61110e60008051602061355d83398151915233610f75565b61112a5760405162461bcd60e51b81526004016105d49061300b565b610d6a848484846119de565b6001600160a01b03851633148061115257506111528533610505565b6111b95760405162461bcd60e51b815260206004820152603260248201527f455243313135353a207472616e736665722063616c6c6572206973206e6f74206044820152711bdddb995c881b9bdc88185c1c1c9bdd995960721b60648201526084016105d4565b6109738585858585611b39565b6111d08282610f75565b610a1f576111e8816001600160a01b03166014611ce6565b6111f3836020611ce6565b6040516020016112049291906130b6565b60408051601f198184030181529082905262461bcd60e51b82526105d4916004016127a4565b6112348282611e81565b60008281526097602052604090206109a09082611f07565b6112568282611f1c565b60008281526097602052604090206109a09082611f83565b61012d5460ff166112b85760405162461bcd60e51b815260206004820152601460248201527314185d5cd8589b194e881b9bdd081c185d5cd95960621b60448201526064016105d4565b61012d805460ff191690557f5db9ee0a495bf2e6ff9c91a7834c1ba4fdd244a5e8aa4e537bd38aeae4b073aa335b6040516001600160a01b03909116815260200160405180910390a1565b816001600160a01b0316836001600160a01b031614156113775760405162461bcd60e51b815260206004820152602960248201527f455243313135353a2073657474696e6720617070726f76616c20737461747573604482015268103337b91039b2b63360b91b60648201526084016105d4565b6001600160a01b03838116600081815260ca6020908152604080832094871680845294825291829020805460ff191686151590811790915591519182527f17307eab39ab6107e8899845ad3d59bd9653f200f220920489ca2b5937696c31910160405180910390a3505050565b6001600160a01b03831661140a5760405162461bcd60e51b81526004016105d49061312b565b805182511461142b5760405162461bcd60e51b81526004016105d49061316e565b600033905061144e81856000868660405180602001604052806000815250611f98565b60005b835181101561151657600084828151811061146e5761146e612f4c565b60200260200101519050600084838151811061148c5761148c612f4c565b602090810291909101810151600084815260c9835260408082206001600160a01b038c1683529093529190912054909150818110156114dd5760405162461bcd60e51b81526004016105d4906131b6565b600092835260c9602090815260408085206001600160a01b038b168652909152909220910390558061150e81612f90565b915050611451565b5060006001600160a01b0316846001600160a01b0316826001600160a01b03167f4a39dc06d4c0dbc64b70af90fd698a233a518aa5d07e595d983b8c0526c8f7fb86866040516115679291906131fa565b60405180910390a450505050565b6001600160a01b03841661159b5760405162461bcd60e51b81526004016105d490613228565b336115bb816000876115ac88611fa6565b6115b588611fa6565b87611f98565b600084815260c9602090815260408083206001600160a01b0389168452909152812080548592906115ed908490612f78565b909155505060408051858152602081018590526001600160a01b0380881692600092918516917fc3d58168c5ae7397731d063d5bbf3d657854427343f4c083240f7aacaa2d0f62910160405180910390a461097381600087878787611ff1565b600054610100900460ff16610ab55760405162461bcd60e51b81526004016105d490613269565b61012d5460ff16156116bb5760405162461bcd60e51b815260206004820152601060248201526f14185d5cd8589b194e881c185d5cd95960821b60448201526064016105d4565b61012d805460ff191660011790557f62e78cea01bee320cd4e420270b5ea74000d11b0c9f74754ebdbfc544b05a2586112e63390565b6000610f6e838361214d565b6000610602825490565b6001600160a01b03841661172d5760405162461bcd60e51b81526004016105d4906132b4565b3361173d8187876115ac88611fa6565b600084815260c9602090815260408083206001600160a01b038a168452909152902054838110156117805760405162461bcd60e51b81526004016105d4906132f9565b600085815260c9602090815260408083206001600160a01b038b81168552925280832087850390559088168252812080548692906117bf908490612f78565b909155505060408051868152602081018690526001600160a01b03808916928a821692918616917fc3d58168c5ae7397731d063d5bbf3d657854427343f4c083240f7aacaa2d0f62910160405180910390a461181f828888888888611ff1565b50505050505050565b6001600160a01b03831661184e5760405162461bcd60e51b81526004016105d49061312b565b3361187d8185600061185f87611fa6565b61186887611fa6565b60405180602001604052806000815250611f98565b600083815260c9602090815260408083206001600160a01b0388168452909152902054828110156118c05760405162461bcd60e51b81526004016105d4906131b6565b600084815260c9602090815260408083206001600160a01b03898116808652918452828520888703905582518981529384018890529092908616917fc3d58168c5ae7397731d063d5bbf3d657854427343f4c083240f7aacaa2d0f62910160405180910390a45050505050565b600054610100900460ff166119545760405162461bcd60e51b81526004016105d490613269565b61195c61164d565b61196461164d565b61196c61164d565b61197461164d565b61197d81612177565b61198561164d565b61198d6121a7565b61199561164d565b610ec1816121db565b60006001600160e01b03198216636cdb3d1360e11b14806119cf57506001600160e01b031982166303a24d0760e21b145b8061060257506106028261223d565b6001600160a01b038416611a045760405162461bcd60e51b81526004016105d490613228565b8151835114611a255760405162461bcd60e51b81526004016105d49061316e565b33611a3581600087878787611f98565b60005b8451811015611ad157838181518110611a5357611a53612f4c565b602002602001015160c96000878481518110611a7157611a71612f4c565b602002602001015181526020019081526020016000206000886001600160a01b03166001600160a01b031681526020019081526020016000206000828254611ab99190612f78565b90915550819050611ac981612f90565b915050611a38565b50846001600160a01b031660006001600160a01b0316826001600160a01b03167f4a39dc06d4c0dbc64b70af90fd698a233a518aa5d07e595d983b8c0526c8f7fb8787604051611b229291906131fa565b60405180910390a461097381600087878787612262565b8151835114611b5a5760405162461bcd60e51b81526004016105d49061316e565b6001600160a01b038416611b805760405162461bcd60e51b81526004016105d4906132b4565b33611b8f818787878787611f98565b60005b8451811015611c78576000858281518110611baf57611baf612f4c565b602002602001015190506000858381518110611bcd57611bcd612f4c565b602090810291909101810151600084815260c9835260408082206001600160a01b038e168352909352919091205490915081811015611c1e5760405162461bcd60e51b81526004016105d4906132f9565b600083815260c9602090815260408083206001600160a01b038e8116855292528083208585039055908b16825281208054849290611c5d908490612f78565b9250508190555050505080611c7190612f90565b9050611b92565b50846001600160a01b0316866001600160a01b0316826001600160a01b03167f4a39dc06d4c0dbc64b70af90fd698a233a518aa5d07e595d983b8c0526c8f7fb8787604051611cc89291906131fa565b60405180910390a4611cde818787878787612262565b505050505050565b60606000611cf5836002613343565b611d00906002612f78565b6001600160401b03811115611d1757611d176127d0565b6040519080825280601f01601f191660200182016040528015611d41576020820181803683370190505b509050600360fc1b81600081518110611d5c57611d5c612f4c565b60200101906001600160f81b031916908160001a905350600f60fb1b81600181518110611d8b57611d8b612f4c565b60200101906001600160f81b031916908160001a9053506000611daf846002613343565b611dba906001612f78565b90505b6001811115611e32576f181899199a1a9b1b9c1cb0b131b232b360811b85600f1660108110611dee57611dee612f4c565b1a60f81b828281518110611e0457611e04612f4c565b60200101906001600160f81b031916908160001a90535060049490941c93611e2b81613362565b9050611dbd565b508315610f6e5760405162461bcd60e51b815260206004820181905260248201527f537472696e67733a20686578206c656e67746820696e73756666696369656e7460448201526064016105d4565b611e8b8282610f75565b610a1f5760008281526065602090815260408083206001600160a01b03851684529091529020805460ff19166001179055611ec33390565b6001600160a01b0316816001600160a01b0316837f2f8788117e7eff1d82e926ec794901d17c78024a50270940304540a733656f0d60405160405180910390a45050565b6000610f6e836001600160a01b03841661231d565b611f268282610f75565b15610a1f5760008281526065602090815260408083206001600160a01b0385168085529252808320805460ff1916905551339285917ff6391f5c32d9c69d2a47ea670b442974b53935d1edc7fd64eb21e047a839171b9190a45050565b6000610f6e836001600160a01b03841661236c565b611cde86868686868661245f565b60408051600180825281830190925260609160009190602080830190803683370190505090508281600081518110611fe057611fe0612f4c565b602090810291909101015292915050565b6001600160a01b0384163b15611cde5760405163f23a6e6160e01b81526001600160a01b0385169063f23a6e61906120359089908990889088908890600401613379565b6020604051808303816000875af1925050508015612070575060408051601f3d908101601f1916820190925261206d918101906133be565b60015b61211d5761207c6133db565b806308c379a014156120b657506120916133f7565b8061209c57506120b8565b8060405162461bcd60e51b81526004016105d491906127a4565b505b60405162461bcd60e51b815260206004820152603460248201527f455243313135353a207472616e7366657220746f206e6f6e20455243313135356044820152732932b1b2b4bb32b91034b6b83632b6b2b73a32b960611b60648201526084016105d4565b6001600160e01b0319811663f23a6e6160e01b1461181f5760405162461bcd60e51b81526004016105d490613480565b600082600001828154811061216457612164612f4c565b9060005260206000200154905092915050565b600054610100900460ff1661219e5760405162461bcd60e51b81526004016105d490613269565b610ec18161257b565b600054610100900460ff166121ce5760405162461bcd60e51b81526004016105d490613269565b61012d805460ff19169055565b600054610100900460ff166122025760405162461bcd60e51b81526004016105d490613269565b61220d60003361258e565b61222560008051602061355d8339815191523361258e565b610ec160008051602061353d8339815191523361258e565b60006001600160e01b03198216635a05180f60e01b1480610602575061060282612598565b6001600160a01b0384163b15611cde5760405163bc197c8160e01b81526001600160a01b0385169063bc197c81906122a690899089908890889088906004016134c8565b6020604051808303816000875af19250505080156122e1575060408051601f3d908101601f191682019092526122de918101906133be565b60015b6122ed5761207c6133db565b6001600160e01b0319811663bc197c8160e01b1461181f5760405162461bcd60e51b81526004016105d490613480565b600081815260018301602052604081205461236457508154600181810184556000848152602080822090930184905584548482528286019093526040902091909155610602565b506000610602565b60008181526001830160205260408120548015612455576000612390600183612fab565b85549091506000906123a490600190612fab565b90508181146124095760008660000182815481106123c4576123c4612f4c565b90600052602060002001549050808760000184815481106123e7576123e7612f4c565b6000918252602080832090910192909255918252600188019052604090208390555b855486908061241a5761241a613526565b600190038181906000526020600020016000905590558560010160008681526020019081526020016000206000905560019350505050610602565b6000915050610602565b61246d8686868686866125cd565b6001600160a01b0385166124f55760005b83518110156124f35782818151811061249957612499612f4c565b60200260200101516101c360008684815181106124b8576124b8612f4c565b6020026020010151815260200190815260200160002060008282546124dd9190612f78565b909155506124ec905081612f90565b905061247e565b505b6001600160a01b038416611cde5760005b835181101561181f5782818151811061252157612521612f4c565b60200260200101516101c3600086848151811061254057612540612f4c565b6020026020010151815260200190815260200160002060008282546125659190612fab565b90915550612574905081612f90565b9050612506565b8051610a1f9060cb90602084019061263f565b610a1f828261122a565b60006001600160e01b03198216637965db0b60e01b148061060257506301ffc9a760e01b6001600160e01b0319831614610602565b611cde86868686868661012d5460ff1615611cde5760405162461bcd60e51b815260206004820152602c60248201527f455243313135355061757361626c653a20746f6b656e207472616e736665722060448201526b1dda1a5b19481c185d5cd95960a21b60648201526084016105d4565b82805461264b90612ed9565b90600052602060002090601f01602090048101928261266d57600085556126b3565b82601f1061268657805160ff19168380011785556126b3565b828001600101855582156126b3579182015b828111156126b3578251825591602001919060010190612698565b506126bf9291506126c3565b5090565b5b808211156126bf57600081556001016126c4565b6001600160a01b0381168114610ec157600080fd5b6000806040838503121561270057600080fd5b823561270b816126d8565b946020939093013593505050565b6001600160e01b031981168114610ec157600080fd5b60006020828403121561274157600080fd5b8135610f6e81612719565b60005b8381101561276757818101518382015260200161274f565b83811115610d6a5750506000910152565b6000815180845261279081602086016020860161274c565b601f01601f19169290920160200192915050565b602081526000610f6e6020830184612778565b6000602082840312156127c957600080fd5b5035919050565b634e487b7160e01b600052604160045260246000fd5b601f8201601f191681016001600160401b038111828210171561280b5761280b6127d0565b6040525050565b60006001600160401b0382111561282b5761282b6127d0565b5060051b60200190565b600082601f83011261284657600080fd5b8135602061285382612812565b60405161286082826127e6565b83815260059390931b850182019282810191508684111561288057600080fd5b8286015b8481101561289b5780358352918301918301612884565b509695505050505050565b60006001600160401b038311156128bf576128bf6127d0565b6040516128d6601f8501601f1916602001826127e6565b8091508381528484840111156128eb57600080fd5b83836020830137600060208583010152509392505050565b600082601f83011261291457600080fd5b610f6e838335602085016128a6565b6000806000806080858703121561293957600080fd5b8435612944816126d8565b935060208501356001600160401b038082111561296057600080fd5b61296c88838901612835565b9450604087013591508082111561298257600080fd5b61298e88838901612835565b935060608701359150808211156129a457600080fd5b506129b187828801612903565b91505092959194509250565b600080600080600060a086880312156129d557600080fd5b85356129e0816126d8565b945060208601356129f0816126d8565b935060408601356001600160401b0380821115612a0c57600080fd5b612a1889838a01612835565b94506060880135915080821115612a2e57600080fd5b612a3a89838a01612835565b93506080880135915080821115612a5057600080fd5b50612a5d88828901612903565b9150509295509295909350565b60008060408385031215612a7d57600080fd5b823591506020830135612a8f816126d8565b809150509250929050565b60008060408385031215612aad57600080fd5b82356001600160401b0380821115612ac457600080fd5b818501915085601f830112612ad857600080fd5b81356020612ae582612812565b604051612af282826127e6565b83815260059390931b8501820192828101915089841115612b1257600080fd5b948201945b83861015612b39578535612b2a816126d8565b82529482019490820190612b17565b96505086013592505080821115612b4f57600080fd5b50612b5c85828601612835565b9150509250929050565b600081518084526020808501945080840160005b83811015612b9657815187529582019590820190600101612b7a565b509495945050505050565b602081526000610f6e6020830184612b66565b60008060408385031215612bc757600080fd5b82356001600160401b0380821115612bde57600080fd5b818501915085601f830112612bf257600080fd5b81356020612bff82612812565b604051612c0c82826127e6565b83815260059390931b8501820192828101915089841115612c2c57600080fd5b948201945b83861015612b3957853582529482019490820190612c31565b8015158114610ec157600080fd5b600080600060608486031215612c6d57600080fd5b8335612c78816126d8565b92506020840135612c88816126d8565b91506040840135612c9881612c4a565b809150509250925092565b600080600060608486031215612cb857600080fd5b8335612cc3816126d8565b925060208401356001600160401b0380821115612cdf57600080fd5b612ceb87838801612835565b93506040860135915080821115612d0157600080fd5b50612d0e86828701612835565b9150509250925092565b60008060008060808587031215612d2e57600080fd5b8435612d39816126d8565b9350602085013592506040850135915060608501356001600160401b03811115612d6257600080fd5b6129b187828801612903565b60008060408385031215612d8157600080fd5b50508035926020909101359150565b60008060408385031215612da357600080fd5b8235612dae816126d8565b91506020830135612a8f81612c4a565b60008060408385031215612dd157600080fd5b8235612ddc816126d8565b91506020830135612a8f816126d8565b600080600080600060a08688031215612e0457600080fd5b8535612e0f816126d8565b94506020860135612e1f816126d8565b9350604086013592506060860135915060808601356001600160401b03811115612e4857600080fd5b612a5d88828901612903565b600080600060608486031215612e6957600080fd5b8335612e74816126d8565b95602085013595506040909401359392505050565b600060208284031215612e9b57600080fd5b81356001600160401b03811115612eb157600080fd5b8201601f81018413612ec257600080fd5b612ed1848235602084016128a6565b949350505050565b600181811c90821680612eed57607f821691505b60208210811415612f0e57634e487b7160e01b600052602260045260246000fd5b50919050565b600080600060608486031215612f2957600080fd5b8351612f34816126d8565b602085015160408601519194509250612c9881612c4a565b634e487b7160e01b600052603260045260246000fd5b634e487b7160e01b600052601160045260246000fd5b60008219821115612f8b57612f8b612f62565b500190565b6000600019821415612fa457612fa4612f62565b5060010190565b600082821015612fbd57612fbd612f62565b500390565b60208082526029908201527f455243313135353a2063616c6c6572206973206e6f74206f776e6572206e6f7260408201526808185c1c1c9bdd995960ba1b606082015260800190565b60208082526038908201527f455243313135355072657365744d696e7465725061757365723a206d7573742060408201527f68617665206d696e74657220726f6c6520746f206d696e740000000000000000606082015260800190565b6020808252602e908201527f496e697469616c697a61626c653a20636f6e747261637420697320616c72656160408201526d191e481a5b9a5d1a585b1a5e995960921b606082015260800190565b7f416363657373436f6e74726f6c3a206163636f756e74200000000000000000008152600083516130ee81601785016020880161274c565b7001034b99036b4b9b9b4b733903937b6329607d1b601791840191820152835161311f81602884016020880161274c565b01602801949350505050565b60208082526023908201527f455243313135353a206275726e2066726f6d20746865207a65726f206164647260408201526265737360e81b606082015260800190565b60208082526028908201527f455243313135353a2069647320616e6420616d6f756e7473206c656e677468206040820152670dad2e6dac2e8c6d60c31b606082015260800190565b60208082526024908201527f455243313135353a206275726e20616d6f756e7420657863656564732062616c604082015263616e636560e01b606082015260800190565b60408152600061320d6040830185612b66565b828103602084015261321f8185612b66565b95945050505050565b60208082526021908201527f455243313135353a206d696e7420746f20746865207a65726f206164647265736040820152607360f81b606082015260800190565b6020808252602b908201527f496e697469616c697a61626c653a20636f6e7472616374206973206e6f74206960408201526a6e697469616c697a696e6760a81b606082015260800190565b60208082526025908201527f455243313135353a207472616e7366657220746f20746865207a65726f206164604082015264647265737360d81b606082015260800190565b6020808252602a908201527f455243313135353a20696e73756666696369656e742062616c616e636520666f60408201526939103a3930b739b332b960b11b606082015260800190565b600081600019048311821515161561335d5761335d612f62565b500290565b60008161337157613371612f62565b506000190190565b6001600160a01b03868116825285166020820152604081018490526060810183905260a0608082018190526000906133b390830184612778565b979650505050505050565b6000602082840312156133d057600080fd5b8151610f6e81612719565b600060033d11156133f45760046000803e5060005160e01c5b90565b600060443d10156134055790565b6040516003193d81016004833e81513d6001600160401b03816024840111818411171561343457505050505090565b828501915081518181111561344c5750505050505090565b843d87010160208285010111156134665750505050505090565b613475602082860101876127e6565b509095945050505050565b60208082526028908201527f455243313135353a204552433131353552656365697665722072656a656374656040820152676420746f6b656e7360c01b606082015260800190565b6001600160a01b0386811682528516602082015260a0604082018190526000906134f490830186612b66565b82810360608401526135068186612b66565b9050828103608084015261351a8185612778565b98975050505050505050565b634e487b7160e01b600052603160045260246000fdfe65d7a28e3265b37a6474929f336521b332c1681b933f6cb9f3376673440d862a9f2df0fed2c77648de5860a4cc508cd0818c85b8b8a1ab4ceeef8d981c8956a668747470733a2f2f6e6f72692e636f6d2f6170692f72656d6f76616c2f7b69647d2e6a736f6ea2646970667358221220d971602b621455bf71c39e4a2e8808b999cd24ad380582dc26fd713271186ba464736f6c634300080a0033",
  "linkReferences": {},
  "deployedLinkReferences": {}
}