{
  "_format": "hh-sol-artifact-1",
  "contractName": "Removal",
  "sourceName": "contracts/Removal.sol",
  "abi": [
    {
      "inputs": [],
      "name": "TokenIdExists",
      "type": "error"
    },
    {
      "anonymous": false,
      "inputs": [
        {
          "indexed": true,
          "internalType": "address",
          "name": "account",
          "type": "address"
        },
        {
          "indexed": true,
          "internalType": "address",
          "name": "operator",
          "type": "address"
        },
        {
          "indexed": false,
          "internalType": "bool",
          "name": "approved",
          "type": "bool"
        }
      ],
      "name": "ApprovalForAll",
      "type": "event"
    },
    {
      "anonymous": false,
      "inputs": [
        {
          "indexed": false,
          "internalType": "address",
          "name": "account",
          "type": "address"
        }
      ],
      "name": "Paused",
      "type": "event"
    },
    {
      "anonymous": false,
      "inputs": [
        {
          "indexed": true,
          "internalType": "bytes32",
          "name": "role",
          "type": "bytes32"
        },
        {
          "indexed": true,
          "internalType": "bytes32",
          "name": "previousAdminRole",
          "type": "bytes32"
        },
        {
          "indexed": true,
          "internalType": "bytes32",
          "name": "newAdminRole",
          "type": "bytes32"
        }
      ],
      "name": "RoleAdminChanged",
      "type": "event"
    },
    {
      "anonymous": false,
      "inputs": [
        {
          "indexed": true,
          "internalType": "bytes32",
          "name": "role",
          "type": "bytes32"
        },
        {
          "indexed": true,
          "internalType": "address",
          "name": "account",
          "type": "address"
        },
        {
          "indexed": true,
          "internalType": "address",
          "name": "sender",
          "type": "address"
        }
      ],
      "name": "RoleGranted",
      "type": "event"
    },
    {
      "anonymous": false,
      "inputs": [
        {
          "indexed": true,
          "internalType": "bytes32",
          "name": "role",
          "type": "bytes32"
        },
        {
          "indexed": true,
          "internalType": "address",
          "name": "account",
          "type": "address"
        },
        {
          "indexed": true,
          "internalType": "address",
          "name": "sender",
          "type": "address"
        }
      ],
      "name": "RoleRevoked",
      "type": "event"
    },
    {
      "anonymous": false,
      "inputs": [
        {
          "indexed": true,
          "internalType": "address",
          "name": "operator",
          "type": "address"
        },
        {
          "indexed": true,
          "internalType": "address",
          "name": "from",
          "type": "address"
        },
        {
          "indexed": true,
          "internalType": "address",
          "name": "to",
          "type": "address"
        },
        {
          "indexed": false,
          "internalType": "uint256[]",
          "name": "ids",
          "type": "uint256[]"
        },
        {
          "indexed": false,
          "internalType": "uint256[]",
          "name": "values",
          "type": "uint256[]"
        }
      ],
      "name": "TransferBatch",
      "type": "event"
    },
    {
      "anonymous": false,
      "inputs": [
        {
          "indexed": true,
          "internalType": "address",
          "name": "operator",
          "type": "address"
        },
        {
          "indexed": true,
          "internalType": "address",
          "name": "from",
          "type": "address"
        },
        {
          "indexed": true,
          "internalType": "address",
          "name": "to",
          "type": "address"
        },
        {
          "indexed": false,
          "internalType": "uint256",
          "name": "id",
          "type": "uint256"
        },
        {
          "indexed": false,
          "internalType": "uint256",
          "name": "value",
          "type": "uint256"
        }
      ],
      "name": "TransferSingle",
      "type": "event"
    },
    {
      "anonymous": false,
      "inputs": [
        {
          "indexed": false,
          "internalType": "string",
          "name": "value",
          "type": "string"
        },
        {
          "indexed": true,
          "internalType": "uint256",
          "name": "id",
          "type": "uint256"
        }
      ],
      "name": "URI",
      "type": "event"
    },
    {
      "anonymous": false,
      "inputs": [
        {
          "indexed": false,
          "internalType": "address",
          "name": "account",
          "type": "address"
        }
      ],
      "name": "Unpaused",
      "type": "event"
    },
    {
      "inputs": [],
      "name": "DEFAULT_ADMIN_ROLE",
      "outputs": [
        {
          "internalType": "bytes32",
          "name": "",
          "type": "bytes32"
        }
      ],
      "stateMutability": "view",
      "type": "function"
    },
    {
      "inputs": [],
      "name": "MINTER_ROLE",
      "outputs": [
        {
          "internalType": "bytes32",
          "name": "",
          "type": "bytes32"
        }
      ],
      "stateMutability": "view",
      "type": "function"
    },
    {
      "inputs": [],
      "name": "PAUSER_ROLE",
      "outputs": [
        {
          "internalType": "bytes32",
          "name": "",
          "type": "bytes32"
        }
      ],
      "stateMutability": "view",
      "type": "function"
    },
    {
      "inputs": [
        {
          "internalType": "address",
          "name": "account",
          "type": "address"
        },
        {
          "internalType": "uint256",
          "name": "id",
          "type": "uint256"
        }
      ],
      "name": "balanceOf",
      "outputs": [
        {
          "internalType": "uint256",
          "name": "",
          "type": "uint256"
        }
      ],
      "stateMutability": "view",
      "type": "function"
    },
    {
      "inputs": [
        {
          "internalType": "address[]",
          "name": "accounts",
          "type": "address[]"
        },
        {
          "internalType": "uint256[]",
          "name": "ids",
          "type": "uint256[]"
        }
      ],
      "name": "balanceOfBatch",
      "outputs": [
        {
          "internalType": "uint256[]",
          "name": "",
          "type": "uint256[]"
        }
      ],
      "stateMutability": "view",
      "type": "function"
    },
    {
      "inputs": [
        {
          "internalType": "address",
          "name": "account",
          "type": "address"
        },
        {
          "internalType": "uint256",
          "name": "id",
          "type": "uint256"
        },
        {
          "internalType": "uint256",
          "name": "value",
          "type": "uint256"
        }
      ],
      "name": "burn",
      "outputs": [],
      "stateMutability": "nonpayable",
      "type": "function"
    },
    {
      "inputs": [
        {
          "internalType": "address",
          "name": "account",
          "type": "address"
        },
        {
          "internalType": "uint256[]",
          "name": "ids",
          "type": "uint256[]"
        },
        {
          "internalType": "uint256[]",
          "name": "values",
          "type": "uint256[]"
        }
      ],
      "name": "burnBatch",
      "outputs": [],
      "stateMutability": "nonpayable",
      "type": "function"
    },
    {
      "inputs": [
        {
          "internalType": "bytes",
          "name": "removalData",
          "type": "bytes"
        }
      ],
      "name": "createRemovalId",
      "outputs": [
        {
          "internalType": "uint256",
          "name": "",
          "type": "uint256"
        }
      ],
      "stateMutability": "pure",
      "type": "function"
    },
    {
      "inputs": [
        {
          "internalType": "uint256",
          "name": "id",
          "type": "uint256"
        }
      ],
      "name": "exists",
      "outputs": [
        {
          "internalType": "bool",
          "name": "",
          "type": "bool"
        }
      ],
      "stateMutability": "view",
      "type": "function"
    },
    {
      "inputs": [
        {
          "internalType": "uint256",
          "name": "removalId",
          "type": "uint256"
        }
      ],
      "name": "getEscrowScheduleIdForRemoval",
      "outputs": [
        {
          "internalType": "uint256",
          "name": "",
          "type": "uint256"
        }
      ],
      "stateMutability": "view",
      "type": "function"
    },
    {
      "inputs": [
        {
          "internalType": "bytes32",
          "name": "role",
          "type": "bytes32"
        }
      ],
      "name": "getRoleAdmin",
      "outputs": [
        {
          "internalType": "bytes32",
          "name": "",
          "type": "bytes32"
        }
      ],
      "stateMutability": "view",
      "type": "function"
    },
    {
      "inputs": [
        {
          "internalType": "bytes32",
          "name": "role",
          "type": "bytes32"
        },
        {
          "internalType": "uint256",
          "name": "index",
          "type": "uint256"
        }
      ],
      "name": "getRoleMember",
      "outputs": [
        {
          "internalType": "address",
          "name": "",
          "type": "address"
        }
      ],
      "stateMutability": "view",
      "type": "function"
    },
    {
      "inputs": [
        {
          "internalType": "bytes32",
          "name": "role",
          "type": "bytes32"
        }
      ],
      "name": "getRoleMemberCount",
      "outputs": [
        {
          "internalType": "uint256",
          "name": "",
          "type": "uint256"
        }
      ],
      "stateMutability": "view",
      "type": "function"
    },
    {
      "inputs": [
        {
          "internalType": "bytes32",
          "name": "role",
          "type": "bytes32"
        },
        {
          "internalType": "address",
          "name": "account",
          "type": "address"
        }
      ],
      "name": "grantRole",
      "outputs": [],
      "stateMutability": "nonpayable",
      "type": "function"
    },
    {
      "inputs": [
        {
          "internalType": "bytes32",
          "name": "role",
          "type": "bytes32"
        },
        {
          "internalType": "address",
          "name": "account",
          "type": "address"
        }
      ],
      "name": "hasRole",
      "outputs": [
        {
          "internalType": "bool",
          "name": "",
          "type": "bool"
        }
      ],
      "stateMutability": "view",
      "type": "function"
    },
    {
      "inputs": [
        {
          "internalType": "uint256",
          "name": "",
          "type": "uint256"
        }
      ],
      "name": "indexToTokenId",
      "outputs": [
        {
          "internalType": "uint256",
          "name": "",
          "type": "uint256"
        }
      ],
      "stateMutability": "view",
      "type": "function"
    },
    {
      "inputs": [],
      "name": "initialize",
      "outputs": [],
      "stateMutability": "nonpayable",
      "type": "function"
    },
    {
      "inputs": [
        {
          "internalType": "string",
          "name": "uri",
          "type": "string"
        }
      ],
      "name": "initialize",
      "outputs": [],
      "stateMutability": "nonpayable",
      "type": "function"
    },
    {
      "inputs": [
        {
          "internalType": "address",
          "name": "escrowedNORIAddress",
          "type": "address"
        }
      ],
      "name": "initializeEscrowedNORI",
      "outputs": [],
      "stateMutability": "nonpayable",
      "type": "function"
    },
    {
      "inputs": [
        {
          "internalType": "address",
          "name": "account",
          "type": "address"
        },
        {
          "internalType": "address",
          "name": "operator",
          "type": "address"
        }
      ],
      "name": "isApprovedForAll",
      "outputs": [
        {
          "internalType": "bool",
          "name": "",
          "type": "bool"
        }
      ],
      "stateMutability": "view",
      "type": "function"
    },
    {
      "inputs": [
        {
          "internalType": "address",
          "name": "",
          "type": "address"
        },
        {
          "internalType": "uint256",
          "name": "",
          "type": "uint256"
        },
        {
          "internalType": "uint256",
          "name": "",
          "type": "uint256"
        },
        {
          "internalType": "bytes",
          "name": "",
          "type": "bytes"
        }
      ],
      "name": "mint",
      "outputs": [],
      "stateMutability": "pure",
      "type": "function"
    },
    {
      "inputs": [
        {
          "internalType": "address",
          "name": "",
          "type": "address"
        },
        {
          "internalType": "uint256[]",
          "name": "",
          "type": "uint256[]"
        },
        {
          "internalType": "uint256[]",
          "name": "",
          "type": "uint256[]"
        },
        {
          "internalType": "bytes",
          "name": "",
          "type": "bytes"
        }
      ],
      "name": "mintBatch",
      "outputs": [],
      "stateMutability": "pure",
      "type": "function"
    },
    {
      "inputs": [
        {
          "internalType": "address",
          "name": "to",
          "type": "address"
        },
        {
          "internalType": "uint256[]",
          "name": "amounts",
          "type": "uint256[]"
        },
        {
          "internalType": "uint256[]",
          "name": "ids",
          "type": "uint256[]"
        },
        {
          "internalType": "uint256[]",
          "name": "escrowScheduleStartTimes",
          "type": "uint256[]"
        },
        {
          "internalType": "bytes",
          "name": "data",
          "type": "bytes"
        }
      ],
      "name": "mintRemovalBatch",
      "outputs": [],
      "stateMutability": "nonpayable",
      "type": "function"
    },
    {
      "inputs": [],
      "name": "name",
      "outputs": [
        {
          "internalType": "string",
          "name": "",
          "type": "string"
        }
      ],
      "stateMutability": "view",
      "type": "function"
    },
    {
      "inputs": [],
      "name": "pause",
      "outputs": [],
      "stateMutability": "nonpayable",
      "type": "function"
    },
    {
      "inputs": [],
      "name": "paused",
      "outputs": [
        {
          "internalType": "bool",
          "name": "",
          "type": "bool"
        }
      ],
      "stateMutability": "view",
      "type": "function"
    },
    {
      "inputs": [
        {
          "internalType": "bytes32",
          "name": "role",
          "type": "bytes32"
        },
        {
          "internalType": "address",
          "name": "account",
          "type": "address"
        }
      ],
      "name": "renounceRole",
      "outputs": [],
      "stateMutability": "nonpayable",
      "type": "function"
    },
    {
      "inputs": [
        {
          "internalType": "bytes32",
          "name": "role",
          "type": "bytes32"
        },
        {
          "internalType": "address",
          "name": "account",
          "type": "address"
        }
      ],
      "name": "revokeRole",
      "outputs": [],
      "stateMutability": "nonpayable",
      "type": "function"
    },
    {
      "inputs": [
        {
          "internalType": "address",
          "name": "_from",
          "type": "address"
        },
        {
          "internalType": "address",
          "name": "_to",
          "type": "address"
        },
        {
          "internalType": "uint256[]",
          "name": "_ids",
          "type": "uint256[]"
        },
        {
          "internalType": "uint256[]",
          "name": "_amounts",
          "type": "uint256[]"
        },
        {
          "internalType": "bytes",
          "name": "_data",
          "type": "bytes"
        }
      ],
      "name": "safeBatchTransferFrom",
      "outputs": [],
      "stateMutability": "nonpayable",
      "type": "function"
    },
    {
      "inputs": [
        {
          "internalType": "address",
          "name": "from",
          "type": "address"
        },
        {
          "internalType": "address",
          "name": "to",
          "type": "address"
        },
        {
          "internalType": "uint256",
          "name": "id",
          "type": "uint256"
        },
        {
          "internalType": "uint256",
          "name": "amount",
          "type": "uint256"
        },
        {
          "internalType": "bytes",
          "name": "data",
          "type": "bytes"
        }
      ],
      "name": "safeTransferFrom",
      "outputs": [],
      "stateMutability": "nonpayable",
      "type": "function"
    },
    {
      "inputs": [
        {
          "internalType": "address",
          "name": "owner",
          "type": "address"
        },
        {
          "internalType": "address",
          "name": "operator",
          "type": "address"
        },
        {
          "internalType": "bool",
          "name": "approved",
          "type": "bool"
        }
      ],
      "name": "setApprovalForAll",
      "outputs": [],
      "stateMutability": "nonpayable",
      "type": "function"
    },
    {
      "inputs": [
        {
          "internalType": "address",
          "name": "operator",
          "type": "address"
        },
        {
          "internalType": "bool",
          "name": "approved",
          "type": "bool"
        }
      ],
      "name": "setApprovalForAll",
      "outputs": [],
      "stateMutability": "nonpayable",
      "type": "function"
    },
    {
      "inputs": [
        {
          "internalType": "bytes4",
          "name": "interfaceId",
          "type": "bytes4"
        }
      ],
      "name": "supportsInterface",
      "outputs": [
        {
          "internalType": "bool",
          "name": "",
          "type": "bool"
        }
      ],
      "stateMutability": "view",
      "type": "function"
    },
    {
      "inputs": [],
      "name": "tokenIdCounter",
      "outputs": [
        {
          "internalType": "uint256",
          "name": "",
          "type": "uint256"
        }
      ],
      "stateMutability": "view",
      "type": "function"
    },
    {
      "inputs": [
        {
          "internalType": "uint256",
          "name": "id",
          "type": "uint256"
        }
      ],
      "name": "totalSupply",
      "outputs": [
        {
          "internalType": "uint256",
          "name": "",
          "type": "uint256"
        }
      ],
      "stateMutability": "view",
      "type": "function"
    },
    {
      "inputs": [
        {
          "internalType": "uint256",
          "name": "removalId",
          "type": "uint256"
        }
      ],
      "name": "unpackRemovalIdV0",
      "outputs": [
        {
          "components": [
            {
              "internalType": "uint8",
              "name": "idVersion",
              "type": "uint8"
            },
            {
              "internalType": "uint8",
              "name": "methodology",
              "type": "uint8"
            },
            {
              "internalType": "uint8",
              "name": "methodologyVersion",
              "type": "uint8"
            },
            {
              "internalType": "uint16",
              "name": "vintage",
              "type": "uint16"
            },
            {
              "internalType": "bytes2",
              "name": "country",
              "type": "bytes2"
            },
            {
              "internalType": "bytes2",
              "name": "subdivision",
              "type": "bytes2"
            },
            {
              "internalType": "address",
              "name": "supplierAddress",
              "type": "address"
            },
            {
              "internalType": "uint32",
              "name": "subIdentifier",
              "type": "uint32"
            }
          ],
          "internalType": "struct UnpackedRemovalIdV0",
          "name": "",
          "type": "tuple"
        }
      ],
      "stateMutability": "pure",
      "type": "function"
    },
    {
      "inputs": [],
      "name": "unpause",
      "outputs": [],
      "stateMutability": "nonpayable",
      "type": "function"
    },
    {
      "inputs": [
        {
          "internalType": "uint256",
          "name": "",
          "type": "uint256"
        }
      ],
      "name": "uri",
      "outputs": [
        {
          "internalType": "string",
          "name": "",
          "type": "string"
        }
      ],
      "stateMutability": "view",
      "type": "function"
    }
  ],
  "bytecode": "0x608060405234801561001057600080fd5b50613f8a806100206000396000f3fe608060405234801561001057600080fd5b50600436106102315760003560e01c80637985f3a111610130578063bd85b039116100b8578063e63ab1e91161007c578063e63ab1e914610542578063e985e9c514610557578063f242432a14610593578063f5298aca146105a6578063f62d1888146105b957600080fd5b8063bd85b039146104b4578063ca15c873146104d5578063d5391393146104e8578063d547741f1461050f578063d85a53e91461052257600080fd5b80639010d07c116100ff5780639010d07c1461045157806391d148541461047c57806398bdf6f51461048f578063a217fddf14610499578063a22cb465146104a157600080fd5b80637985f3a11461040d5780637aef1164146104205780638129fc1c146104415780638456cb591461044957600080fd5b806336568abe116101be5780634f558e79116101825780634f558e79146103975780635c975abb146103ba5780636b20c454146103c6578063731133e9146103d95780637932417b146103ec57600080fd5b806336568abe14610336578063367605ca146103495780633f4ba83a1461035c57806348ec4c3b146103645780634e1273f41461037757600080fd5b80631f7fdffa116102055780631f7fdffa146102a7578063248a9ca3146102bc5780632c3a0728146102df5780632eb2c2d6146103105780632f2ff15d1461032357600080fd5b8062fdd58e1461023657806301ffc9a71461025c57806306fdde031461027f5780630e89341c14610294575b600080fd5b610249610244366004612d4b565b6105cc565b6040519081526020015b60405180910390f35b61026f61026a366004612d8d565b610668565b6040519015158152602001610253565b610287610673565b6040516102539190612e02565b6102876102a2366004612e15565b610702565b6102ba6102b5366004612eba565b610796565b005b6102496102ca366004612e15565b60009081526065602052604090206001015490565b6102ba6102ed366004612f66565b6101f580546001600160a01b0319166001600160a01b0392909216919091179055565b6102ba61031e3660046130d6565b6107ea565b6102ba610331366004613183565b6109b3565b6102ba610344366004613183565b6109de565b6102ba6103573660046131c1565b610a5c565b6102ba610ac0565b61024961037236600461320c565b610b54565b61038a61038536600461324d565b610b67565b6040516102539190613354565b61026f6103a5366004612e15565b60009081526101c36020526040902054151590565b61012d5460ff1661026f565b6102ba6103d4366004613367565b610c90565b6102ba6103e73660046133dc565b610cd3565b6102496103fa366004612e15565b60009081526101fa602052604090205490565b6102ba61041b366004613445565b610d1b565b61024961042e366004612e15565b6101f86020526000908152604090205481565b6102ba610f90565b6102ba611061565b61046461045f3660046134a6565b6110f3565b6040516001600160a01b039091168152602001610253565b61026f61048a366004613183565b61110b565b6102496101f65481565b610249600081565b6102ba6104af3660046134c8565b611136565b6102496104c2366004612e15565b60009081526101c3602052604090205490565b6102496104e3366004612e15565b611141565b6102497f9f2df0fed2c77648de5860a4cc508cd0818c85b8b8a1ab4ceeef8d981c8956a681565b6102ba61051d366004613183565b611158565b610535610530366004612e15565b61117e565b60405161025391906134f6565b610249600080516020613f0f83398151915281565b61026f61056536600461358d565b6001600160a01b03918216600090815260ca6020908152604080832093909416825291909152205460ff1690565b6102ba6105a13660046135bb565b61118f565b6102ba6105b4366004613623565b6111db565b6102ba6105c7366004613658565b61121e565b60006001600160a01b03831661063d5760405162461bcd60e51b815260206004820152602b60248201527f455243313135353a2062616c616e636520717565727920666f7220746865207a60448201526a65726f206164647265737360a81b60648201526084015b60405180910390fd5b50600081815260c9602090815260408083206001600160a01b03861684529091529020545b92915050565b600061066282611299565b6101f78054610681906136a8565b80601f01602080910402602001604051908101604052809291908181526020018280546106ad906136a8565b80156106fa5780601f106106cf576101008083540402835291602001916106fa565b820191906000526020600020905b8154815290600101906020018083116106dd57829003601f168201915b505050505081565b606060cb8054610711906136a8565b80601f016020809104026020016040519081016040528092919081815260200182805461073d906136a8565b801561078a5780601f1061075f5761010080835404028352916020019161078a565b820191906000526020600020905b81548152906001019060200180831161076d57829003601f168201915b50505050509050919050565b60405162461bcd60e51b815260206004820152602360248201527f52656d6f76616c3a2045524331313535206d696e7442617463682064697361626044820152621b195960ea1b6064820152608401610634565b600083516001600160401b0381111561080557610805612f83565b60405190808252806020026020018201604052801561082e578160200160208202803683370190505b509050600084516001600160401b0381111561084c5761084c612f83565b604051908082528060200260200182016040528015610875578160200160208202803683370190505b50905060005b8551811015610937576108a6868281518110610899576108996136e2565b60200260200101516112a4565b8382815181106108b8576108b86136e2565b60200260200101906001600160a01b031690816001600160a01b0316815250506109088682815181106108ed576108ed6136e2565b602002602001015160009081526101fa602052604090205490565b82828151811061091a5761091a6136e2565b60209081029190910101528061092f8161370e565b91505061087b565b506101f5546040516322cbfb6160e01b81526001600160a01b03909116906322cbfb619061096b9085908590600401613727565b600060405180830381600087803b15801561098557600080fd5b505af1158015610999573d6000803e3d6000fd5b505050506109aa87878787876112b3565b50505050505050565b6000828152606560205260409020600101546109cf8133611343565b6109d983836113a7565b505050565b6001600160a01b0381163314610a4e5760405162461bcd60e51b815260206004820152602f60248201527f416363657373436f6e74726f6c3a2063616e206f6e6c792072656e6f756e636560448201526e103937b632b9903337b91039b2b63360891b6064820152608401610634565b610a5882826113c9565b5050565b6000610a688133611343565b61012d5460ff1615610aaf5760405162461bcd60e51b815260206004820152601060248201526f14185d5cd8589b194e881c185d5cd95960821b6044820152606401610634565b610aba8484846113eb565b50505050565b610ad8600080516020613f0f8339815191523361110b565b610b4a5760405162461bcd60e51b815260206004820152603b60248201527f455243313135355072657365744d696e7465725061757365723a206d7573742060448201527f686176652070617573657220726f6c6520746f20756e706175736500000000006064820152608401610634565b610b526114cb565b565b6000610b608383611560565b9392505050565b60608151835114610bcc5760405162461bcd60e51b815260206004820152602960248201527f455243313135353a206163636f756e747320616e6420696473206c656e677468604482015268040dad2e6dac2e8c6d60bb1b6064820152608401610634565b600083516001600160401b03811115610be757610be7612f83565b604051908082528060200260200182016040528015610c10578160200160208202803683370190505b50905060005b8451811015610c8857610c5b858281518110610c3457610c346136e2565b6020026020010151858381518110610c4e57610c4e6136e2565b60200260200101516105cc565b828281518110610c6d57610c6d6136e2565b6020908102919091010152610c818161370e565b9050610c16565b509392505050565b6001600160a01b038316331480610cac5750610cac8333610565565b610cc85760405162461bcd60e51b815260040161063490613787565b6109d9838383611876565b60405162461bcd60e51b815260206004820152601f60248201527f52656d6f76616c3a204552432031313535206d696e742064697361626c6564006044820152606401610634565b8251845114610d7d5760405162461bcd60e51b815260206004820152602860248201527f52656d6f76616c3a20616d6f756e747320616e6420696473206c656e677468206044820152670dad2e6dac2e8c6d60c31b6064820152608401610634565b8151845114610deb5760405162461bcd60e51b815260206004820152603460248201527f52656d6f76616c3a20616d6f756e747320616e6420657363726f7753636865646044820152730ead8caa6e8c2e4e8a8d2dacae65cd8cadccee8d60631b6064820152608401610634565b600081806020019051810190610e0191906137d0565b905060005b8451811015610f54576101f96000868381518110610e2657610e266136e2565b60209081029190910181015182528101919091526040016000205460ff1615610e62576040516355e7cfc560e01b815260040160405180910390fd5b838181518110610e7457610e746136e2565b60200260200101516101fa6000878481518110610e9357610e936136e2565b602002602001015181526020019081526020016000208190555060016101f96000878481518110610ec657610ec66136e2565b6020026020010151815260200190815260200160002060006101000a81548160ff021916908315150217905550848181518110610f0557610f056136e2565b60200260200101516101f860006101f65481526020019081526020016000208190555060016101f66000828254610f3c919061382e565b90915550819050610f4c8161370e565b915050610e06565b50610f6186858785611a07565b610f6d86336001610a5c565b806020015115610f8857610f888682600001518688866107ea565b505050505050565b600054610100900460ff16610fab5760005460ff1615610faf565b303b155b610fcb5760405162461bcd60e51b815260040161063490613846565b600054610100900460ff16158015610fed576000805461ffff19166101011790555b61100e604051806060016040528060268152602001613f2f6026913961121e565b611016611aaf565b60006101f6556040805180820190915260078082526614995b5bdd985b60ca1b602090920191825261104b916101f791612c49565b50801561105e576000805461ff00191690555b50565b611079600080516020613f0f8339815191523361110b565b6110eb5760405162461bcd60e51b815260206004820152603960248201527f455243313135355072657365744d696e7465725061757365723a206d7573742060448201527f686176652070617573657220726f6c6520746f207061757365000000000000006064820152608401610634565b610b52611ad6565b6000828152609760205260408120610b609083611b53565b60009182526065602090815260408084206001600160a01b0393909316845291905290205460ff1690565b610a583383836113eb565b600081815260976020526040812061066290611b5f565b6000828152606560205260409020600101546111748133611343565b6109d983836113c9565b611186612ccd565b61066282611b69565b6001600160a01b0385163314806111ab57506111ab8533610565565b6111c75760405162461bcd60e51b815260040161063490613787565b6111d48585858585611c20565b5050505050565b6001600160a01b0383163314806111f757506111f78333610565565b6112135760405162461bcd60e51b815260040161063490613787565b6109d9838383611d47565b600054610100900460ff166112395760005460ff161561123d565b303b155b6112595760405162461bcd60e51b815260040161063490613846565b600054610100900460ff1615801561127b576000805461ffff19166101011790555b61128482611e4c565b8015610a58576000805461ff00191690555050565b600061066282611e8d565b60006106628260146004611ecd565b6001600160a01b0385163314806112cf57506112cf8533610565565b6113365760405162461bcd60e51b815260206004820152603260248201527f455243313135353a207472616e736665722063616c6c6572206973206e6f74206044820152711bdddb995c881b9bdc88185c1c1c9bdd995960721b6064820152608401610634565b6111d48585858585611f19565b61134d828261110b565b610a5857611365816001600160a01b031660146120be565b6113708360206120be565b604051602001611381929190613894565b60408051601f198184030181529082905262461bcd60e51b825261063491600401612e02565b6113b18282612259565b60008281526097602052604090206109d990826122df565b6113d382826122f4565b60008281526097602052604090206109d9908261235b565b816001600160a01b0316836001600160a01b03160361145e5760405162461bcd60e51b815260206004820152602960248201527f455243313135353a2073657474696e6720617070726f76616c20737461747573604482015268103337b91039b2b63360b91b6064820152608401610634565b6001600160a01b03838116600081815260ca6020908152604080832094871680845294825291829020805460ff191686151590811790915591519182527f17307eab39ab6107e8899845ad3d59bd9653f200f220920489ca2b5937696c31910160405180910390a3505050565b61012d5460ff166115155760405162461bcd60e51b815260206004820152601460248201527314185d5cd8589b194e881b9bdd081c185d5cd95960621b6044820152606401610634565b61012d805460ff191690557f5db9ee0a495bf2e6ff9c91a7834c1ba4fdd244a5e8aa4e537bd38aeae4b073aa335b6040516001600160a01b03909116815260200160405180910390a1565b60008061156f8385018561391a565b60ff16905080156115ce5760405162461bcd60e51b8152602060048201526024808201527f556e737570706f727465642072656d6f76616c20746f6b656e2069642076657260448201526339b4b7b760e11b6064820152608401610634565b61010083146116325760405162461bcd60e51b815260206004820152602a60248201527f72656d6f76616c4461746120636f6e7461696e732077726f6e67206e756d626560448201526972206f6620627974657360b01b6064820152608401610634565b600061164084860186613973565b9050600f816020015160ff1611156116925760405162461bcd60e51b81526020600482015260156024820152744d6574686f6c6f646f677920746f6f206c6172676560581b6044820152606401610634565b600f816040015160ff1611156116ea5760405162461bcd60e51b815260206004820152601d60248201527f4d6574686f6c6f646f67792076657273696f6e20746f6f206c617267650000006044820152606401610634565b608081015160a082015160f882811c9260ff60f091821c8116939283901c9290911c166041841080159061171f5750605a8411155b801561172c575060418310155b80156117395750605a8311155b8015611746575060418210155b80156117535750605a8211155b8015611760575060418110155b801561176d5750605a8111155b6117a95760405162461bcd60e51b815260206004820152600d60248201526c496e76616c696420415343494960981b6044820152606401610634565b600085604001516004876020015160ff16901b1760ff169050600860006117d09190613a37565b60e087015163ffffffff16901b6117e960086004613a37565b60c08801516001600160a01b0316901b61180560086018613a37565b60a089015160f01c901b61181b6008601a613a37565b60808a015160f01c901b6118316008601c613a37565b60608b015161ffff16901b6118486008601e613a37565b86901b6118576008601f613a37565b8c6000015160ff16901b17171717171797505050505050505092915050565b6001600160a01b03831661189c5760405162461bcd60e51b815260040161063490613a56565b80518251146118bd5760405162461bcd60e51b815260040161063490613a99565b60003390506118e081856000868660405180602001604052806000815250612370565b60005b83518110156119a8576000848281518110611900576119006136e2565b60200260200101519050600084838151811061191e5761191e6136e2565b602090810291909101810151600084815260c9835260408082206001600160a01b038c16835290935291909120549091508181101561196f5760405162461bcd60e51b815260040161063490613ae1565b600092835260c9602090815260408085206001600160a01b038b16865290915290922091039055806119a08161370e565b9150506118e3565b5060006001600160a01b0316846001600160a01b0316826001600160a01b03167f4a39dc06d4c0dbc64b70af90fd698a233a518aa5d07e595d983b8c0526c8f7fb86866040516119f9929190613b25565b60405180910390a450505050565b611a317f9f2df0fed2c77648de5860a4cc508cd0818c85b8b8a1ab4ceeef8d981c8956a63361110b565b611aa35760405162461bcd60e51b815260206004820152603860248201527f455243313135355072657365744d696e7465725061757365723a206d7573742060448201527f68617665206d696e74657220726f6c6520746f206d696e7400000000000000006064820152608401610634565b610aba8484848461237e565b600054610100900460ff16610b525760405162461bcd60e51b815260040161063490613b53565b61012d5460ff1615611b1d5760405162461bcd60e51b815260206004820152601060248201526f14185d5cd8589b194e881c185d5cd95960821b6044820152606401610634565b61012d805460ff191660011790557f62e78cea01bee320cd4e420270b5ea74000d11b0c9f74754ebdbfc544b05a2586115433390565b6000610b608383612513565b6000610662825490565b611b71612ccd565b604051806101000160405280611b868461253d565b60ff168152602001611b978461254c565b60ff168152602001611ba884612565565b60ff168152602001611bb98461257d565b61ffff168152602001611bcb8461258c565b6001600160f01b0319168152602001611be3846125a4565b6001600160f01b0319168152602001611bfb846112a4565b6001600160a01b03168152602001611c12846125b3565b63ffffffff16905292915050565b6001600160a01b038416611c465760405162461bcd60e51b815260040161063490613b9e565b33611c65818787611c56886125c2565b611c5f886125c2565b87612370565b600084815260c9602090815260408083206001600160a01b038a16845290915290205483811015611ca85760405162461bcd60e51b815260040161063490613be3565b600085815260c9602090815260408083206001600160a01b038b8116855292528083208785039055908816825281208054869290611ce790849061382e565b909155505060408051868152602081018690526001600160a01b03808916928a821692918616917fc3d58168c5ae7397731d063d5bbf3d657854427343f4c083240f7aacaa2d0f62910160405180910390a46109aa82888888888861260d565b6001600160a01b038316611d6d5760405162461bcd60e51b815260040161063490613a56565b33611d9c81856000611d7e876125c2565b611d87876125c2565b60405180602001604052806000815250612370565b600083815260c9602090815260408083206001600160a01b038816845290915290205482811015611ddf5760405162461bcd60e51b815260040161063490613ae1565b600084815260c9602090815260408083206001600160a01b03898116808652918452828520888703905582518981529384018890529092908616917fc3d58168c5ae7397731d063d5bbf3d657854427343f4c083240f7aacaa2d0f62910160405180910390a45050505050565b600054610100900460ff16611e735760405162461bcd60e51b815260040161063490613b53565b611e7c81612768565b611e84612798565b61105e816127cc565b60006001600160e01b03198216636cdb3d1360e11b1480611ebe57506001600160e01b031982166303a24d0760e21b145b80610662575061066282612840565b600080611edb600884613a37565b6001611ee8600887613a37565b611ef3906002613d11565b611efd9190613d1d565b901b9050848116611f0f600885613a37565b1c95945050505050565b8151835114611f3a5760405162461bcd60e51b815260040161063490613a99565b6001600160a01b038416611f605760405162461bcd60e51b815260040161063490613b9e565b33611f6f818787878787612370565b60005b8451811015612058576000858281518110611f8f57611f8f6136e2565b602002602001015190506000858381518110611fad57611fad6136e2565b602090810291909101810151600084815260c9835260408082206001600160a01b038e168352909352919091205490915081811015611ffe5760405162461bcd60e51b815260040161063490613be3565b600083815260c9602090815260408083206001600160a01b038e8116855292528083208585039055908b1682528120805484929061203d90849061382e565b92505081905550505050806120519061370e565b9050611f72565b50846001600160a01b0316866001600160a01b0316826001600160a01b03167f4a39dc06d4c0dbc64b70af90fd698a233a518aa5d07e595d983b8c0526c8f7fb87876040516120a8929190613b25565b60405180910390a4610f88818787878787612865565b606060006120cd836002613a37565b6120d890600261382e565b6001600160401b038111156120ef576120ef612f83565b6040519080825280601f01601f191660200182016040528015612119576020820181803683370190505b509050600360fc1b81600081518110612134576121346136e2565b60200101906001600160f81b031916908160001a905350600f60fb1b81600181518110612163576121636136e2565b60200101906001600160f81b031916908160001a9053506000612187846002613a37565b61219290600161382e565b90505b600181111561220a576f181899199a1a9b1b9c1cb0b131b232b360811b85600f16601081106121c6576121c66136e2565b1a60f81b8282815181106121dc576121dc6136e2565b60200101906001600160f81b031916908160001a90535060049490941c9361220381613d34565b9050612195565b508315610b605760405162461bcd60e51b815260206004820181905260248201527f537472696e67733a20686578206c656e67746820696e73756666696369656e746044820152606401610634565b612263828261110b565b610a585760008281526065602090815260408083206001600160a01b03851684529091529020805460ff1916600117905561229b3390565b6001600160a01b0316816001600160a01b0316837f2f8788117e7eff1d82e926ec794901d17c78024a50270940304540a733656f0d60405160405180910390a45050565b6000610b60836001600160a01b038416612920565b6122fe828261110b565b15610a585760008281526065602090815260408083206001600160a01b0385168085529252808320805460ff1916905551339285917ff6391f5c32d9c69d2a47ea670b442974b53935d1edc7fd64eb21e047a839171b9190a45050565b6000610b60836001600160a01b03841661296f565b610f88868686868686612a69565b6001600160a01b0384166123de5760405162461bcd60e51b815260206004820152602160248201527f455243313135353a206d696e7420746f20746865207a65726f206164647265736044820152607360f81b6064820152608401610634565b81518351146123ff5760405162461bcd60e51b815260040161063490613a99565b3361240f81600087878787612370565b60005b84518110156124ab5783818151811061242d5761242d6136e2565b602002602001015160c9600087848151811061244b5761244b6136e2565b602002602001015181526020019081526020016000206000886001600160a01b03166001600160a01b031681526020019081526020016000206000828254612493919061382e565b909155508190506124a38161370e565b915050612412565b50846001600160a01b031660006001600160a01b0316826001600160a01b03167f4a39dc06d4c0dbc64b70af90fd698a233a518aa5d07e595d983b8c0526c8f7fb87876040516124fc929190613b25565b60405180910390a46111d481600087878787612865565b600082600001828154811061252a5761252a6136e2565b9060005260206000200154905092915050565b6000610662826001601f611ecd565b6000600461255d836001601e611ecd565b901c92915050565b6000612574826001601e611ecd565b600f1692915050565b6000610662826002601c611ecd565b600061259b826002601a611ecd565b60f01b92915050565b600061259b8260026018611ecd565b60006106628260046000611ecd565b604080516001808252818301909252606091600091906020808301908036833701905050905082816000815181106125fc576125fc6136e2565b602090810291909101015292915050565b6001600160a01b0384163b15610f885760405163f23a6e6160e01b81526001600160a01b0385169063f23a6e61906126519089908990889088908890600401613d4b565b6020604051808303816000875af192505050801561268c575060408051601f3d908101601f1916820190925261268991810190613d90565b60015b61273857612698613dad565b806308c379a0036126d157506126ac613dc9565b806126b757506126d3565b8060405162461bcd60e51b81526004016106349190612e02565b505b60405162461bcd60e51b815260206004820152603460248201527f455243313135353a207472616e7366657220746f206e6f6e20455243313135356044820152732932b1b2b4bb32b91034b6b83632b6b2b73a32b960611b6064820152608401610634565b6001600160e01b0319811663f23a6e6160e01b146109aa5760405162461bcd60e51b815260040161063490613e52565b600054610100900460ff1661278f5760405162461bcd60e51b815260040161063490613b53565b61105e81612b85565b600054610100900460ff166127bf5760405162461bcd60e51b815260040161063490613b53565b61012d805460ff19169055565b600054610100900460ff166127f35760405162461bcd60e51b815260040161063490613b53565b6127fe600033612b98565b6128287f9f2df0fed2c77648de5860a4cc508cd0818c85b8b8a1ab4ceeef8d981c8956a633612b98565b61105e600080516020613f0f83398151915233612b98565b60006001600160e01b03198216635a05180f60e01b1480610662575061066282612ba2565b6001600160a01b0384163b15610f885760405163bc197c8160e01b81526001600160a01b0385169063bc197c81906128a99089908990889088908890600401613e9a565b6020604051808303816000875af19250505080156128e4575060408051601f3d908101601f191682019092526128e191810190613d90565b60015b6128f057612698613dad565b6001600160e01b0319811663bc197c8160e01b146109aa5760405162461bcd60e51b815260040161063490613e52565b600081815260018301602052604081205461296757508154600181810184556000848152602080822090930184905584548482528286019093526040902091909155610662565b506000610662565b60008181526001830160205260408120548015612a58576000612993600183613d1d565b85549091506000906129a790600190613d1d565b9050818114612a0c5760008660000182815481106129c7576129c76136e2565b90600052602060002001549050808760000184815481106129ea576129ea6136e2565b6000918252602080832090910192909255918252600188019052604090208390555b8554869080612a1d57612a1d613ef8565b600190038181906000526020600020016000905590558560010160008681526020019081526020016000206000905560019350505050610662565b6000915050610662565b5092915050565b612a77868686868686612bd7565b6001600160a01b038516612aff5760005b8351811015612afd57828181518110612aa357612aa36136e2565b60200260200101516101c36000868481518110612ac257612ac26136e2565b602002602001015181526020019081526020016000206000828254612ae7919061382e565b90915550612af690508161370e565b9050612a88565b505b6001600160a01b038416610f885760005b83518110156109aa57828181518110612b2b57612b2b6136e2565b60200260200101516101c36000868481518110612b4a57612b4a6136e2565b602002602001015181526020019081526020016000206000828254612b6f9190613d1d565b90915550612b7e90508161370e565b9050612b10565b8051610a589060cb906020840190612c49565b610a5882826113a7565b60006001600160e01b03198216637965db0b60e01b148061066257506301ffc9a760e01b6001600160e01b0319831614610662565b610f8886868686868661012d5460ff1615610f885760405162461bcd60e51b815260206004820152602c60248201527f455243313135355061757361626c653a20746f6b656e207472616e736665722060448201526b1dda1a5b19481c185d5cd95960a21b6064820152608401610634565b828054612c55906136a8565b90600052602060002090601f016020900481019282612c775760008555612cbd565b82601f10612c9057805160ff1916838001178555612cbd565b82800160010185558215612cbd579182015b82811115612cbd578251825591602001919060010190612ca2565b50612cc9929150612d11565b5090565b6040805161010081018252600080825260208201819052918101829052606081018290526080810182905260a0810182905260c0810182905260e081019190915290565b5b80821115612cc95760008155600101612d12565b6001600160a01b038116811461105e57600080fd5b8035612d4681612d26565b919050565b60008060408385031215612d5e57600080fd5b8235612d6981612d26565b946020939093013593505050565b6001600160e01b03198116811461105e57600080fd5b600060208284031215612d9f57600080fd5b8135610b6081612d77565b60005b83811015612dc5578181015183820152602001612dad565b83811115610aba5750506000910152565b60008151808452612dee816020860160208601612daa565b601f01601f19169290920160200192915050565b602081526000610b606020830184612dd6565b600060208284031215612e2757600080fd5b5035919050565b60008083601f840112612e4057600080fd5b5081356001600160401b03811115612e5757600080fd5b6020830191508360208260051b8501011115612e7257600080fd5b9250929050565b60008083601f840112612e8b57600080fd5b5081356001600160401b03811115612ea257600080fd5b602083019150836020828501011115612e7257600080fd5b60008060008060008060006080888a031215612ed557600080fd5b8735612ee081612d26565b965060208801356001600160401b0380821115612efc57600080fd5b612f088b838c01612e2e565b909850965060408a0135915080821115612f2157600080fd5b612f2d8b838c01612e2e565b909650945060608a0135915080821115612f4657600080fd5b50612f538a828b01612e79565b989b979a50959850939692959293505050565b600060208284031215612f7857600080fd5b8135610b6081612d26565b634e487b7160e01b600052604160045260246000fd5b601f8201601f191681016001600160401b0381118282101715612fbe57612fbe612f83565b6040525050565b60006001600160401b03821115612fde57612fde612f83565b5060051b60200190565b600082601f830112612ff957600080fd5b8135602061300682612fc5565b6040516130138282612f99565b83815260059390931b850182019282810191508684111561303357600080fd5b8286015b8481101561304e5780358352918301918301613037565b509695505050505050565b60006001600160401b0383111561307257613072612f83565b604051613089601f8501601f191660200182612f99565b80915083815284848401111561309e57600080fd5b83836020830137600060208583010152509392505050565b600082601f8301126130c757600080fd5b610b6083833560208501613059565b600080600080600060a086880312156130ee57600080fd5b85356130f981612d26565b9450602086013561310981612d26565b935060408601356001600160401b038082111561312557600080fd5b61313189838a01612fe8565b9450606088013591508082111561314757600080fd5b61315389838a01612fe8565b9350608088013591508082111561316957600080fd5b50613176888289016130b6565b9150509295509295909350565b6000806040838503121561319657600080fd5b8235915060208301356131a881612d26565b809150509250929050565b801515811461105e57600080fd5b6000806000606084860312156131d657600080fd5b83356131e181612d26565b925060208401356131f181612d26565b91506040840135613201816131b3565b809150509250925092565b6000806020838503121561321f57600080fd5b82356001600160401b0381111561323557600080fd5b61324185828601612e79565b90969095509350505050565b6000806040838503121561326057600080fd5b82356001600160401b038082111561327757600080fd5b818501915085601f83011261328b57600080fd5b8135602061329882612fc5565b6040516132a58282612f99565b83815260059390931b85018201928281019150898411156132c557600080fd5b948201945b838610156132ec5785356132dd81612d26565b825294820194908201906132ca565b9650508601359250508082111561330257600080fd5b5061330f85828601612fe8565b9150509250929050565b600081518084526020808501945080840160005b838110156133495781518752958201959082019060010161332d565b509495945050505050565b602081526000610b606020830184613319565b60008060006060848603121561337c57600080fd5b833561338781612d26565b925060208401356001600160401b03808211156133a357600080fd5b6133af87838801612fe8565b935060408601359150808211156133c557600080fd5b506133d286828701612fe8565b9150509250925092565b6000806000806000608086880312156133f457600080fd5b85356133ff81612d26565b9450602086013593506040860135925060608601356001600160401b0381111561342857600080fd5b61343488828901612e79565b969995985093965092949392505050565b600080600080600060a0868803121561345d57600080fd5b853561346881612d26565b945060208601356001600160401b038082111561348457600080fd5b61349089838a01612fe8565b9550604088013591508082111561312557600080fd5b600080604083850312156134b957600080fd5b50508035926020909101359150565b600080604083850312156134db57600080fd5b82356134e681612d26565b915060208301356131a8816131b3565b60006101008201905060ff835116825260ff602084015116602083015260ff604084015116604083015261ffff606084015116606083015261ffff60f01b608084015116608083015260a083015161355a60a08401826001600160f01b0319169052565b5060c083015161357560c08401826001600160a01b03169052565b5060e0830151612a6260e084018263ffffffff169052565b600080604083850312156135a057600080fd5b82356135ab81612d26565b915060208301356131a881612d26565b600080600080600060a086880312156135d357600080fd5b85356135de81612d26565b945060208601356135ee81612d26565b9350604086013592506060860135915060808601356001600160401b0381111561361757600080fd5b613176888289016130b6565b60008060006060848603121561363857600080fd5b833561364381612d26565b95602085013595506040909401359392505050565b60006020828403121561366a57600080fd5b81356001600160401b0381111561368057600080fd5b8201601f8101841361369157600080fd5b6136a084823560208401613059565b949350505050565b600181811c908216806136bc57607f821691505b6020821081036136dc57634e487b7160e01b600052602260045260246000fd5b50919050565b634e487b7160e01b600052603260045260246000fd5b634e487b7160e01b600052601160045260246000fd5b600060018201613720576137206136f8565b5060010190565b604080825283519082018190526000906020906060840190828701845b828110156137695781516001600160a01b031684529284019290840190600101613744565b5050508381038285015261377d8186613319565b9695505050505050565b60208082526029908201527f455243313135353a2063616c6c6572206973206e6f74206f776e6572206e6f7260408201526808185c1c1c9bdd995960ba1b606082015260800190565b6000604082840312156137e257600080fd5b604051604081018181106001600160401b038211171561380457613804612f83565b604052825161381281612d26565b81526020830151613822816131b3565b60208201529392505050565b60008219821115613841576138416136f8565b500190565b6020808252602e908201527f496e697469616c697a61626c653a20636f6e747261637420697320616c72656160408201526d191e481a5b9a5d1a585b1a5e995960921b606082015260800190565b7f416363657373436f6e74726f6c3a206163636f756e74200000000000000000008152600083516138cc816017850160208801612daa565b7001034b99036b4b9b9b4b733903937b6329607d1b60179184019182015283516138fd816028840160208801612daa565b01602801949350505050565b803560ff81168114612d4657600080fd5b60006020828403121561392c57600080fd5b610b6082613909565b803561ffff81168114612d4657600080fd5b80356001600160f01b031981168114612d4657600080fd5b803563ffffffff81168114612d4657600080fd5b600061010080838503121561398757600080fd5b604051908101906001600160401b03821181831017156139a9576139a9612f83565b816040526139b684613909565b81526139c460208501613909565b60208201526139d560408501613909565b60408201526139e660608501613935565b60608201526139f760808501613947565b6080820152613a0860a08501613947565b60a0820152613a1960c08501612d3b565b60c0820152613a2a60e0850161395f565b60e0820152949350505050565b6000816000190483118215151615613a5157613a516136f8565b500290565b60208082526023908201527f455243313135353a206275726e2066726f6d20746865207a65726f206164647260408201526265737360e81b606082015260800190565b60208082526028908201527f455243313135353a2069647320616e6420616d6f756e7473206c656e677468206040820152670dad2e6dac2e8c6d60c31b606082015260800190565b60208082526024908201527f455243313135353a206275726e20616d6f756e7420657863656564732062616c604082015263616e636560e01b606082015260800190565b604081526000613b386040830185613319565b8281036020840152613b4a8185613319565b95945050505050565b6020808252602b908201527f496e697469616c697a61626c653a20636f6e7472616374206973206e6f74206960408201526a6e697469616c697a696e6760a81b606082015260800190565b60208082526025908201527f455243313135353a207472616e7366657220746f20746865207a65726f206164604082015264647265737360d81b606082015260800190565b6020808252602a908201527f455243313135353a20696e73756666696369656e742062616c616e636520666f60408201526939103a3930b739b332b960b11b606082015260800190565b600181815b80851115613c68578160001904821115613c4e57613c4e6136f8565b80851615613c5b57918102915b93841c9390800290613c32565b509250929050565b600082613c7f57506001610662565b81613c8c57506000610662565b8160018114613ca25760028114613cac57613cc8565b6001915050610662565b60ff841115613cbd57613cbd6136f8565b50506001821b610662565b5060208310610133831016604e8410600b8410161715613ceb575081810a610662565b613cf58383613c2d565b8060001904821115613d0957613d096136f8565b029392505050565b6000610b608383613c70565b600082821015613d2f57613d2f6136f8565b500390565b600081613d4357613d436136f8565b506000190190565b6001600160a01b03868116825285166020820152604081018490526060810183905260a060808201819052600090613d8590830184612dd6565b979650505050505050565b600060208284031215613da257600080fd5b8151610b6081612d77565b600060033d1115613dc65760046000803e5060005160e01c5b90565b600060443d1015613dd75790565b6040516003193d81016004833e81513d6001600160401b038160248401118184111715613e0657505050505090565b8285019150815181811115613e1e5750505050505090565b843d8701016020828501011115613e385750505050505090565b613e4760208286010187612f99565b509095945050505050565b60208082526028908201527f455243313135353a204552433131353552656365697665722072656a656374656040820152676420746f6b656e7360c01b606082015260800190565b6001600160a01b0386811682528516602082015260a060408201819052600090613ec690830186613319565b8281036060840152613ed88186613319565b90508281036080840152613eec8185612dd6565b98975050505050505050565b634e487b7160e01b600052603160045260246000fdfe65d7a28e3265b37a6474929f336521b332c1681b933f6cb9f3376673440d862a68747470733a2f2f6e6f72692e636f6d2f6170692f72656d6f76616c2f7b69647d2e6a736f6ea2646970667358221220bb65aa7571d9e1f6b0e81f606fb04b76acbf7c201f60b361f33aa86f924e164564736f6c634300080d0033",
  "linkReferences": {},
  "deployedLinkReferences": {}
}