{
  "_format": "hh-sol-artifact-1",
  "contractName": "Removal",
  "sourceName": "contracts/Removal.sol",
  "abi": [
    {
      "anonymous": false,
      "inputs": [
        {
          "indexed": true,
          "internalType": "address",
          "name": "account",
          "type": "address"
        },
        {
          "indexed": true,
          "internalType": "address",
          "name": "operator",
          "type": "address"
        },
        {
          "indexed": false,
          "internalType": "bool",
          "name": "approved",
          "type": "bool"
        }
      ],
      "name": "ApprovalForAll",
      "type": "event"
    },
    {
      "anonymous": false,
      "inputs": [
        {
          "indexed": false,
          "internalType": "uint256[]",
          "name": "tokenIds",
          "type": "uint256[]"
        }
      ],
      "name": "BatchMinted",
      "type": "event"
    },
    {
      "anonymous": false,
      "inputs": [
        {
          "indexed": false,
          "internalType": "address",
          "name": "account",
          "type": "address"
        }
      ],
      "name": "Paused",
      "type": "event"
    },
    {
      "anonymous": false,
      "inputs": [
        {
          "indexed": true,
          "internalType": "bytes32",
          "name": "role",
          "type": "bytes32"
        },
        {
          "indexed": true,
          "internalType": "bytes32",
          "name": "previousAdminRole",
          "type": "bytes32"
        },
        {
          "indexed": true,
          "internalType": "bytes32",
          "name": "newAdminRole",
          "type": "bytes32"
        }
      ],
      "name": "RoleAdminChanged",
      "type": "event"
    },
    {
      "anonymous": false,
      "inputs": [
        {
          "indexed": true,
          "internalType": "bytes32",
          "name": "role",
          "type": "bytes32"
        },
        {
          "indexed": true,
          "internalType": "address",
          "name": "account",
          "type": "address"
        },
        {
          "indexed": true,
          "internalType": "address",
          "name": "sender",
          "type": "address"
        }
      ],
      "name": "RoleGranted",
      "type": "event"
    },
    {
      "anonymous": false,
      "inputs": [
        {
          "indexed": true,
          "internalType": "bytes32",
          "name": "role",
          "type": "bytes32"
        },
        {
          "indexed": true,
          "internalType": "address",
          "name": "account",
          "type": "address"
        },
        {
          "indexed": true,
          "internalType": "address",
          "name": "sender",
          "type": "address"
        }
      ],
      "name": "RoleRevoked",
      "type": "event"
    },
    {
      "anonymous": false,
      "inputs": [
        {
          "indexed": true,
          "internalType": "address",
          "name": "operator",
          "type": "address"
        },
        {
          "indexed": true,
          "internalType": "address",
          "name": "from",
          "type": "address"
        },
        {
          "indexed": true,
          "internalType": "address",
          "name": "to",
          "type": "address"
        },
        {
          "indexed": false,
          "internalType": "uint256[]",
          "name": "ids",
          "type": "uint256[]"
        },
        {
          "indexed": false,
          "internalType": "uint256[]",
          "name": "values",
          "type": "uint256[]"
        }
      ],
      "name": "TransferBatch",
      "type": "event"
    },
    {
      "anonymous": false,
      "inputs": [
        {
          "indexed": true,
          "internalType": "address",
          "name": "operator",
          "type": "address"
        },
        {
          "indexed": true,
          "internalType": "address",
          "name": "from",
          "type": "address"
        },
        {
          "indexed": true,
          "internalType": "address",
          "name": "to",
          "type": "address"
        },
        {
          "indexed": false,
          "internalType": "uint256",
          "name": "id",
          "type": "uint256"
        },
        {
          "indexed": false,
          "internalType": "uint256",
          "name": "value",
          "type": "uint256"
        }
      ],
      "name": "TransferSingle",
      "type": "event"
    },
    {
      "anonymous": false,
      "inputs": [
        {
          "indexed": false,
          "internalType": "string",
          "name": "value",
          "type": "string"
        },
        {
          "indexed": true,
          "internalType": "uint256",
          "name": "id",
          "type": "uint256"
        }
      ],
      "name": "URI",
      "type": "event"
    },
    {
      "anonymous": false,
      "inputs": [
        {
          "indexed": false,
          "internalType": "address",
          "name": "account",
          "type": "address"
        }
      ],
      "name": "Unpaused",
      "type": "event"
    },
    {
      "inputs": [],
      "name": "DEFAULT_ADMIN_ROLE",
      "outputs": [
        {
          "internalType": "bytes32",
          "name": "",
          "type": "bytes32"
        }
      ],
      "stateMutability": "view",
      "type": "function"
    },
    {
      "inputs": [],
      "name": "MINTER_ROLE",
      "outputs": [
        {
          "internalType": "bytes32",
          "name": "",
          "type": "bytes32"
        }
      ],
      "stateMutability": "view",
      "type": "function"
    },
    {
      "inputs": [],
      "name": "PAUSER_ROLE",
      "outputs": [
        {
          "internalType": "bytes32",
          "name": "",
          "type": "bytes32"
        }
      ],
      "stateMutability": "view",
      "type": "function"
    },
    {
      "inputs": [
        {
          "internalType": "address",
          "name": "account",
          "type": "address"
        },
        {
          "internalType": "uint256",
          "name": "id",
          "type": "uint256"
        }
      ],
      "name": "balanceOf",
      "outputs": [
        {
          "internalType": "uint256",
          "name": "",
          "type": "uint256"
        }
      ],
      "stateMutability": "view",
      "type": "function"
    },
    {
      "inputs": [
        {
          "internalType": "address[]",
          "name": "accounts",
          "type": "address[]"
        },
        {
          "internalType": "uint256[]",
          "name": "ids",
          "type": "uint256[]"
        }
      ],
      "name": "balanceOfBatch",
      "outputs": [
        {
          "internalType": "uint256[]",
          "name": "",
          "type": "uint256[]"
        }
      ],
      "stateMutability": "view",
      "type": "function"
    },
    {
      "inputs": [
        {
          "internalType": "address",
          "name": "account",
          "type": "address"
        },
        {
          "internalType": "uint256",
          "name": "id",
          "type": "uint256"
        },
        {
          "internalType": "uint256",
          "name": "value",
          "type": "uint256"
        }
      ],
      "name": "burn",
      "outputs": [],
      "stateMutability": "nonpayable",
      "type": "function"
    },
    {
      "inputs": [
        {
          "internalType": "address",
          "name": "account",
          "type": "address"
        },
        {
          "internalType": "uint256[]",
          "name": "ids",
          "type": "uint256[]"
        },
        {
          "internalType": "uint256[]",
          "name": "values",
          "type": "uint256[]"
        }
      ],
      "name": "burnBatch",
      "outputs": [],
      "stateMutability": "nonpayable",
      "type": "function"
    },
    {
      "inputs": [
        {
          "internalType": "uint256",
          "name": "id",
          "type": "uint256"
        }
      ],
      "name": "exists",
      "outputs": [
        {
          "internalType": "bool",
          "name": "",
          "type": "bool"
        }
      ],
      "stateMutability": "view",
      "type": "function"
    },
    {
      "inputs": [
        {
          "internalType": "bytes32",
          "name": "role",
          "type": "bytes32"
        }
      ],
      "name": "getRoleAdmin",
      "outputs": [
        {
          "internalType": "bytes32",
          "name": "",
          "type": "bytes32"
        }
      ],
      "stateMutability": "view",
      "type": "function"
    },
    {
      "inputs": [
        {
          "internalType": "bytes32",
          "name": "role",
          "type": "bytes32"
        },
        {
          "internalType": "uint256",
          "name": "index",
          "type": "uint256"
        }
      ],
      "name": "getRoleMember",
      "outputs": [
        {
          "internalType": "address",
          "name": "",
          "type": "address"
        }
      ],
      "stateMutability": "view",
      "type": "function"
    },
    {
      "inputs": [
        {
          "internalType": "bytes32",
          "name": "role",
          "type": "bytes32"
        }
      ],
      "name": "getRoleMemberCount",
      "outputs": [
        {
          "internalType": "uint256",
          "name": "",
          "type": "uint256"
        }
      ],
      "stateMutability": "view",
      "type": "function"
    },
    {
      "inputs": [
        {
          "internalType": "bytes32",
          "name": "role",
          "type": "bytes32"
        },
        {
          "internalType": "address",
          "name": "account",
          "type": "address"
        }
      ],
      "name": "grantRole",
      "outputs": [],
      "stateMutability": "nonpayable",
      "type": "function"
    },
    {
      "inputs": [
        {
          "internalType": "bytes32",
          "name": "role",
          "type": "bytes32"
        },
        {
          "internalType": "address",
          "name": "account",
          "type": "address"
        }
      ],
      "name": "hasRole",
      "outputs": [
        {
          "internalType": "bool",
          "name": "",
          "type": "bool"
        }
      ],
      "stateMutability": "view",
      "type": "function"
    },
    {
      "inputs": [],
      "name": "initialize",
      "outputs": [],
      "stateMutability": "nonpayable",
      "type": "function"
    },
    {
      "inputs": [
        {
          "internalType": "string",
          "name": "uri",
          "type": "string"
        }
      ],
      "name": "initialize",
      "outputs": [],
      "stateMutability": "nonpayable",
      "type": "function"
    },
    {
      "inputs": [
        {
          "internalType": "address",
          "name": "account",
          "type": "address"
        },
        {
          "internalType": "address",
          "name": "operator",
          "type": "address"
        }
      ],
      "name": "isApprovedForAll",
      "outputs": [
        {
          "internalType": "bool",
          "name": "",
          "type": "bool"
        }
      ],
      "stateMutability": "view",
      "type": "function"
    },
    {
      "inputs": [
        {
          "internalType": "address",
          "name": "to",
          "type": "address"
        },
        {
          "internalType": "uint256",
          "name": "id",
          "type": "uint256"
        },
        {
          "internalType": "uint256",
          "name": "amount",
          "type": "uint256"
        },
        {
          "internalType": "bytes",
          "name": "data",
          "type": "bytes"
        }
      ],
      "name": "mint",
      "outputs": [],
      "stateMutability": "nonpayable",
      "type": "function"
    },
    {
      "inputs": [
        {
          "internalType": "address",
          "name": "to",
          "type": "address"
        },
        {
          "internalType": "uint256[]",
          "name": "amounts",
          "type": "uint256[]"
        },
        {
          "internalType": "uint256[]",
          "name": "vintages",
          "type": "uint256[]"
        },
        {
          "internalType": "bytes",
          "name": "data",
          "type": "bytes"
        }
      ],
      "name": "mintBatch",
      "outputs": [],
      "stateMutability": "nonpayable",
      "type": "function"
    },
    {
      "inputs": [],
      "name": "name",
      "outputs": [
        {
          "internalType": "string",
          "name": "",
          "type": "string"
        }
      ],
      "stateMutability": "view",
      "type": "function"
    },
    {
      "inputs": [],
      "name": "pause",
      "outputs": [],
      "stateMutability": "nonpayable",
      "type": "function"
    },
    {
      "inputs": [],
      "name": "paused",
      "outputs": [
        {
          "internalType": "bool",
          "name": "",
          "type": "bool"
        }
      ],
      "stateMutability": "view",
      "type": "function"
    },
    {
      "inputs": [
        {
          "internalType": "bytes32",
          "name": "role",
          "type": "bytes32"
        },
        {
          "internalType": "address",
          "name": "account",
          "type": "address"
        }
      ],
      "name": "renounceRole",
      "outputs": [],
      "stateMutability": "nonpayable",
      "type": "function"
    },
    {
      "inputs": [
        {
          "internalType": "bytes32",
          "name": "role",
          "type": "bytes32"
        },
        {
          "internalType": "address",
          "name": "account",
          "type": "address"
        }
      ],
      "name": "revokeRole",
      "outputs": [],
      "stateMutability": "nonpayable",
      "type": "function"
    },
    {
      "inputs": [
        {
          "internalType": "address",
          "name": "_from",
          "type": "address"
        },
        {
          "internalType": "address",
          "name": "_to",
          "type": "address"
        },
        {
          "internalType": "uint256[]",
          "name": "_ids",
          "type": "uint256[]"
        },
        {
          "internalType": "uint256[]",
          "name": "_amounts",
          "type": "uint256[]"
        },
        {
          "internalType": "bytes",
          "name": "_data",
          "type": "bytes"
        }
      ],
      "name": "safeBatchTransferFrom",
      "outputs": [],
      "stateMutability": "nonpayable",
      "type": "function"
    },
    {
      "inputs": [
        {
          "internalType": "address",
          "name": "from",
          "type": "address"
        },
        {
          "internalType": "address",
          "name": "to",
          "type": "address"
        },
        {
          "internalType": "uint256",
          "name": "id",
          "type": "uint256"
        },
        {
          "internalType": "uint256",
          "name": "amount",
          "type": "uint256"
        },
        {
          "internalType": "bytes",
          "name": "data",
          "type": "bytes"
        }
      ],
      "name": "safeTransferFrom",
      "outputs": [],
      "stateMutability": "nonpayable",
      "type": "function"
    },
    {
      "inputs": [
        {
          "internalType": "address",
          "name": "operator",
          "type": "address"
        },
        {
          "internalType": "bool",
          "name": "approved",
          "type": "bool"
        }
      ],
      "name": "setApprovalForAll",
      "outputs": [],
      "stateMutability": "nonpayable",
      "type": "function"
    },
    {
      "inputs": [
        {
          "internalType": "address",
          "name": "owner",
          "type": "address"
        },
        {
          "internalType": "address",
          "name": "operator",
          "type": "address"
        },
        {
          "internalType": "bool",
          "name": "approved",
          "type": "bool"
        }
      ],
      "name": "setApprovalForAllAsAdmin",
      "outputs": [],
      "stateMutability": "nonpayable",
      "type": "function"
    },
    {
      "inputs": [
        {
          "internalType": "bytes4",
          "name": "interfaceId",
          "type": "bytes4"
        }
      ],
      "name": "supportsInterface",
      "outputs": [
        {
          "internalType": "bool",
          "name": "",
          "type": "bool"
        }
      ],
      "stateMutability": "view",
      "type": "function"
    },
    {
      "inputs": [
        {
          "internalType": "uint256",
          "name": "id",
          "type": "uint256"
        }
      ],
      "name": "totalSupply",
      "outputs": [
        {
          "internalType": "uint256",
          "name": "",
          "type": "uint256"
        }
      ],
      "stateMutability": "view",
      "type": "function"
    },
    {
      "inputs": [],
      "name": "unpause",
      "outputs": [],
      "stateMutability": "nonpayable",
      "type": "function"
    },
    {
      "inputs": [
        {
          "internalType": "uint256",
          "name": "",
          "type": "uint256"
        }
      ],
      "name": "uri",
      "outputs": [
        {
          "internalType": "string",
          "name": "",
          "type": "string"
        }
      ],
      "stateMutability": "view",
      "type": "function"
    },
    {
      "inputs": [
        {
          "internalType": "uint256",
          "name": "removalId",
          "type": "uint256"
        }
      ],
      "name": "vintage",
      "outputs": [
        {
          "components": [
            {
              "internalType": "address",
              "name": "supplier",
              "type": "address"
            },
            {
              "internalType": "uint16",
              "name": "vintage",
              "type": "uint16"
            }
          ],
          "internalType": "struct Removal.Vintage",
          "name": "",
          "type": "tuple"
        }
      ],
      "stateMutability": "view",
      "type": "function"
    }
  ],
  "bytecode": "0x608060405234801561001057600080fd5b50613389806100206000396000f3fe608060405234801561001057600080fd5b50600436106101ef5760003560e01c8063737fa5891161010f578063ca15c873116100a2578063e985e9c511610071578063e985e9c5146104c5578063f242432a14610501578063f5298aca14610514578063f62d18881461052757600080fd5b8063ca15c87314610475578063d539139314610488578063d547741f1461049d578063e63ab1e9146104b057600080fd5b806391d14854116100de57806391d1485414610426578063a217fddf14610439578063a22cb46514610441578063bd85b0391461045457600080fd5b8063737fa589146103665780638129fc1c146103eb5780638456cb59146103f35780639010d07c146103fb57600080fd5b806336568abe116101875780635abec0b5116101565780635abec0b5146103215780635c975abb146103345780636b20c45414610340578063731133e91461035357600080fd5b806336568abe146102c35780633f4ba83a146102d65780634e1273f4146102de5780634f558e79146102fe57600080fd5b80631f7fdffa116101c35780631f7fdffa14610265578063248a9ca31461027a5780632eb2c2d61461029d5780632f2ff15d146102b057600080fd5b8062fdd58e146101f457806301ffc9a71461021a57806306fdde031461023d5780630e89341c14610252575b600080fd5b61020761020236600461250e565b61053a565b6040519081526020015b60405180910390f35b61022d610228366004612550565b6105d6565b6040519015158152602001610211565b6102456105e1565b60405161021191906125c5565b6102456102603660046125d8565b610670565b610278610273366004612744565b610704565b005b6102076102883660046125d8565b60009081526065602052604090206001015490565b6102786102ab3660046127de565b6108eb565b6102786102be36600461288b565b6108ff565b6102786102d136600461288b565b61092a565b6102786109a8565b6102f16102ec3660046128bb565b610a3c565b60405161021191906129c2565b61022d61030c3660046125d8565b60009081526101c36020526040902054151590565b61027861032f3660046129e3565b610b65565b61012d5460ff1661022d565b61027861034e366004612a2e565b610bc9565b610278610361366004612aa3565b610c0c565b6103c36103743660046125d8565b60408051808201909152600080825260208201525060009081526101f560209081526040918290208251808401909352546001600160a01b0381168352600160a01b900461ffff169082015290565b6040805182516001600160a01b0316815260209283015161ffff169281019290925201610211565b610278610c4c565b610278610d1d565b61040e610409366004612af9565b610daf565b6040516001600160a01b039091168152602001610211565b61022d61043436600461288b565b610dce565b610207600081565b61027861044f366004612b1b565b610df9565b6102076104623660046125d8565b60009081526101c3602052604090205490565b6102076104833660046125d8565b610e04565b61020760008051602061330e83398151915281565b6102786104ab36600461288b565b610e1b565b6102076000805160206132ee83398151915281565b61022d6104d3366004612b49565b6001600160a01b03918216600090815260ca6020908152604080832093909416825291909152205460ff1690565b61027861050f366004612b77565b610e41565b610278610522366004612bdf565b610e86565b610278610535366004612c14565b610ec9565b60006001600160a01b0383166105ab5760405162461bcd60e51b815260206004820152602b60248201527f455243313135353a2062616c616e636520717565727920666f7220746865207a60448201526a65726f206164647265737360a81b60648201526084015b60405180910390fd5b50600081815260c9602090815260408083206001600160a01b03861684529091529020545b92915050565b60006105d082610f44565b6101f780546105ef90612c64565b80601f016020809104026020016040519081016040528092919081815260200182805461061b90612c64565b80156106685780601f1061063d57610100808354040283529160200191610668565b820191906000526020600020905b81548152906001019060200180831161064b57829003601f168201915b505050505081565b606060cb805461067f90612c64565b80601f01602080910402602001604051908101604052809291908181526020018280546106ab90612c64565b80156106f85780601f106106cd576101008083540402835291602001916106f8565b820191906000526020600020905b8154815290600101906020018083116106db57829003601f168201915b50505050509050919050565b60008180602001905181019061071a9190612c9f565b9050600083516001600160401b03811115610737576107376125f1565b604051908082528060200260200182016040528015610760578160200160208202803683370190505b50905060005b845181101561084257806101f65461077e9190612d13565b82828151811061079057610790612d2b565b6020026020010181815250506040518060400160405280886001600160a01b031681526020018683815181106107c8576107c8612d2b565b602002602001015161ffff168152506101f56000836101f6546107eb9190612d13565b815260208082019290925260400160002082518154939092015161ffff16600160a01b026001600160b01b03199093166001600160a01b03909216919091179190911790558061083a81612d41565b915050610766565b5080600182516108529190612d5c565b8151811061086257610862612d2b565b602002602001015160016108769190612d13565b6101f65561088686828786610f4f565b7ed7dbdfe74994b1b54ec15ae7f0efa0134592b53302fae9a1549a1b8e4e5be4816040516108b491906129c2565b60405180910390a16108c886336001610b65565b8160200151156108e3576108e38683600001518388876108eb565b505050505050565b6108f88585858585610f8f565b5050505050565b60008281526065602052604090206001015461091b813361101f565b6109258383611083565b505050565b6001600160a01b038116331461099a5760405162461bcd60e51b815260206004820152602f60248201527f416363657373436f6e74726f6c3a2063616e206f6e6c792072656e6f756e636560448201526e103937b632b9903337b91039b2b63360891b60648201526084016105a2565b6109a482826110a5565b5050565b6109c06000805160206132ee83398151915233610dce565b610a325760405162461bcd60e51b815260206004820152603b60248201527f455243313135355072657365744d696e7465725061757365723a206d7573742060448201527f686176652070617573657220726f6c6520746f20756e7061757365000000000060648201526084016105a2565b610a3a6110c7565b565b60608151835114610aa15760405162461bcd60e51b815260206004820152602960248201527f455243313135353a206163636f756e747320616e6420696473206c656e677468604482015268040dad2e6dac2e8c6d60bb1b60648201526084016105a2565b600083516001600160401b03811115610abc57610abc6125f1565b604051908082528060200260200182016040528015610ae5578160200160208202803683370190505b50905060005b8451811015610b5d57610b30858281518110610b0957610b09612d2b565b6020026020010151858381518110610b2357610b23612d2b565b602002602001015161053a565b828281518110610b4257610b42612d2b565b6020908102919091010152610b5681612d41565b9050610aeb565b509392505050565b6000610b71813361101f565b61012d5460ff1615610bb85760405162461bcd60e51b815260206004820152601060248201526f14185d5cd8589b194e881c185d5cd95960821b60448201526064016105a2565b610bc384848461115c565b50505050565b6001600160a01b038316331480610be55750610be583336104d3565b610c015760405162461bcd60e51b81526004016105a290612d73565b61092583838361123d565b610c2460008051602061330e83398151915233610dce565b610c405760405162461bcd60e51b81526004016105a290612dbc565b610bc3848484846113ce565b600054610100900460ff16610c675760005460ff1615610c6b565b303b155b610c875760405162461bcd60e51b81526004016105a290612e19565b600054610100900460ff16158015610ca9576000805461ffff19166101011790555b610cca60405180606001604052806026815260200161332e60269139610ec9565b610cd26114a6565b60006101f6556040805180820190915260078082526614995b5bdd985b60ca1b6020909201918252610d07916101f791612460565b508015610d1a576000805461ff00191690555b50565b610d356000805160206132ee83398151915233610dce565b610da75760405162461bcd60e51b815260206004820152603960248201527f455243313135355072657365744d696e7465725061757365723a206d7573742060448201527f686176652070617573657220726f6c6520746f2070617573650000000000000060648201526084016105a2565b610a3a6114cd565b6000828152609760205260408120610dc7908361154a565b9392505050565b60009182526065602090815260408084206001600160a01b0393909316845291905290205460ff1690565b6109a433838361115c565b60008181526097602052604081206105d090611556565b600082815260656020526040902060010154610e37813361101f565b61092583836110a5565b6001600160a01b038516331480610e5d5750610e5d85336104d3565b610e795760405162461bcd60e51b81526004016105a290612d73565b6108f88585858585611560565b6001600160a01b038316331480610ea25750610ea283336104d3565b610ebe5760405162461bcd60e51b81526004016105a290612d73565b610925838383611681565b600054610100900460ff16610ee45760005460ff1615610ee8565b303b155b610f045760405162461bcd60e51b81526004016105a290612e19565b600054610100900460ff16158015610f26576000805461ffff19166101011790555b610f2f82611786565b80156109a4576000805461ff00191690555050565b60006105d0826117c7565b610f6760008051602061330e83398151915233610dce565b610f835760405162461bcd60e51b81526004016105a290612dbc565b610bc384848484611807565b6001600160a01b038516331480610fab5750610fab85336104d3565b6110125760405162461bcd60e51b815260206004820152603260248201527f455243313135353a207472616e736665722063616c6c6572206973206e6f74206044820152711bdddb995c881b9bdc88185c1c1c9bdd995960721b60648201526084016105a2565b6108f88585858585611962565b6110298282610dce565b6109a457611041816001600160a01b03166014611b07565b61104c836020611b07565b60405160200161105d929190612e67565b60408051601f198184030181529082905262461bcd60e51b82526105a2916004016125c5565b61108d8282611ca2565b60008281526097602052604090206109259082611d28565b6110af8282611d3d565b60008281526097602052604090206109259082611da4565b61012d5460ff166111115760405162461bcd60e51b815260206004820152601460248201527314185d5cd8589b194e881b9bdd081c185d5cd95960621b60448201526064016105a2565b61012d805460ff191690557f5db9ee0a495bf2e6ff9c91a7834c1ba4fdd244a5e8aa4e537bd38aeae4b073aa335b6040516001600160a01b03909116815260200160405180910390a1565b816001600160a01b0316836001600160a01b031614156111d05760405162461bcd60e51b815260206004820152602960248201527f455243313135353a2073657474696e6720617070726f76616c20737461747573604482015268103337b91039b2b63360b91b60648201526084016105a2565b6001600160a01b03838116600081815260ca6020908152604080832094871680845294825291829020805460ff191686151590811790915591519182527f17307eab39ab6107e8899845ad3d59bd9653f200f220920489ca2b5937696c31910160405180910390a3505050565b6001600160a01b0383166112635760405162461bcd60e51b81526004016105a290612edc565b80518251146112845760405162461bcd60e51b81526004016105a290612f1f565b60003390506112a781856000868660405180602001604052806000815250611db9565b60005b835181101561136f5760008482815181106112c7576112c7612d2b565b6020026020010151905060008483815181106112e5576112e5612d2b565b602090810291909101810151600084815260c9835260408082206001600160a01b038c1683529093529190912054909150818110156113365760405162461bcd60e51b81526004016105a290612f67565b600092835260c9602090815260408085206001600160a01b038b168652909152909220910390558061136781612d41565b9150506112aa565b5060006001600160a01b0316846001600160a01b0316826001600160a01b03167f4a39dc06d4c0dbc64b70af90fd698a233a518aa5d07e595d983b8c0526c8f7fb86866040516113c0929190612fab565b60405180910390a450505050565b6001600160a01b0384166113f45760405162461bcd60e51b81526004016105a290612fd9565b336114148160008761140588611dc7565b61140e88611dc7565b87611db9565b600084815260c9602090815260408083206001600160a01b038916845290915281208054859290611446908490612d13565b909155505060408051858152602081018590526001600160a01b0380881692600092918516917fc3d58168c5ae7397731d063d5bbf3d657854427343f4c083240f7aacaa2d0f62910160405180910390a46108f881600087878787611e12565b600054610100900460ff16610a3a5760405162461bcd60e51b81526004016105a29061301a565b61012d5460ff16156115145760405162461bcd60e51b815260206004820152601060248201526f14185d5cd8589b194e881c185d5cd95960821b60448201526064016105a2565b61012d805460ff191660011790557f62e78cea01bee320cd4e420270b5ea74000d11b0c9f74754ebdbfc544b05a25861113f3390565b6000610dc78383611f6e565b60006105d0825490565b6001600160a01b0384166115865760405162461bcd60e51b81526004016105a290613065565b3361159681878761140588611dc7565b600084815260c9602090815260408083206001600160a01b038a168452909152902054838110156115d95760405162461bcd60e51b81526004016105a2906130aa565b600085815260c9602090815260408083206001600160a01b038b8116855292528083208785039055908816825281208054869290611618908490612d13565b909155505060408051868152602081018690526001600160a01b03808916928a821692918616917fc3d58168c5ae7397731d063d5bbf3d657854427343f4c083240f7aacaa2d0f62910160405180910390a4611678828888888888611e12565b50505050505050565b6001600160a01b0383166116a75760405162461bcd60e51b81526004016105a290612edc565b336116d6818560006116b887611dc7565b6116c187611dc7565b60405180602001604052806000815250611db9565b600083815260c9602090815260408083206001600160a01b0388168452909152902054828110156117195760405162461bcd60e51b81526004016105a290612f67565b600084815260c9602090815260408083206001600160a01b03898116808652918452828520888703905582518981529384018890529092908616917fc3d58168c5ae7397731d063d5bbf3d657854427343f4c083240f7aacaa2d0f62910160405180910390a45050505050565b600054610100900460ff166117ad5760405162461bcd60e51b81526004016105a29061301a565b6117b681611f98565b6117be611fc8565b610d1a81611ffc565b60006001600160e01b03198216636cdb3d1360e11b14806117f857506001600160e01b031982166303a24d0760e21b145b806105d057506105d08261205e565b6001600160a01b03841661182d5760405162461bcd60e51b81526004016105a290612fd9565b815183511461184e5760405162461bcd60e51b81526004016105a290612f1f565b3361185e81600087878787611db9565b60005b84518110156118fa5783818151811061187c5761187c612d2b565b602002602001015160c9600087848151811061189a5761189a612d2b565b602002602001015181526020019081526020016000206000886001600160a01b03166001600160a01b0316815260200190815260200160002060008282546118e29190612d13565b909155508190506118f281612d41565b915050611861565b50846001600160a01b031660006001600160a01b0316826001600160a01b03167f4a39dc06d4c0dbc64b70af90fd698a233a518aa5d07e595d983b8c0526c8f7fb878760405161194b929190612fab565b60405180910390a46108f881600087878787612083565b81518351146119835760405162461bcd60e51b81526004016105a290612f1f565b6001600160a01b0384166119a95760405162461bcd60e51b81526004016105a290613065565b336119b8818787878787611db9565b60005b8451811015611aa15760008582815181106119d8576119d8612d2b565b6020026020010151905060008583815181106119f6576119f6612d2b565b602090810291909101810151600084815260c9835260408082206001600160a01b038e168352909352919091205490915081811015611a475760405162461bcd60e51b81526004016105a2906130aa565b600083815260c9602090815260408083206001600160a01b038e8116855292528083208585039055908b16825281208054849290611a86908490612d13565b9250508190555050505080611a9a90612d41565b90506119bb565b50846001600160a01b0316866001600160a01b0316826001600160a01b03167f4a39dc06d4c0dbc64b70af90fd698a233a518aa5d07e595d983b8c0526c8f7fb8787604051611af1929190612fab565b60405180910390a46108e3818787878787612083565b60606000611b168360026130f4565b611b21906002612d13565b6001600160401b03811115611b3857611b386125f1565b6040519080825280601f01601f191660200182016040528015611b62576020820181803683370190505b509050600360fc1b81600081518110611b7d57611b7d612d2b565b60200101906001600160f81b031916908160001a905350600f60fb1b81600181518110611bac57611bac612d2b565b60200101906001600160f81b031916908160001a9053506000611bd08460026130f4565b611bdb906001612d13565b90505b6001811115611c53576f181899199a1a9b1b9c1cb0b131b232b360811b85600f1660108110611c0f57611c0f612d2b565b1a60f81b828281518110611c2557611c25612d2b565b60200101906001600160f81b031916908160001a90535060049490941c93611c4c81613113565b9050611bde565b508315610dc75760405162461bcd60e51b815260206004820181905260248201527f537472696e67733a20686578206c656e67746820696e73756666696369656e7460448201526064016105a2565b611cac8282610dce565b6109a45760008281526065602090815260408083206001600160a01b03851684529091529020805460ff19166001179055611ce43390565b6001600160a01b0316816001600160a01b0316837f2f8788117e7eff1d82e926ec794901d17c78024a50270940304540a733656f0d60405160405180910390a45050565b6000610dc7836001600160a01b03841661213e565b611d478282610dce565b156109a45760008281526065602090815260408083206001600160a01b0385168085529252808320805460ff1916905551339285917ff6391f5c32d9c69d2a47ea670b442974b53935d1edc7fd64eb21e047a839171b9190a45050565b6000610dc7836001600160a01b03841661218d565b6108e3868686868686612280565b60408051600180825281830190925260609160009190602080830190803683370190505090508281600081518110611e0157611e01612d2b565b602090810291909101015292915050565b6001600160a01b0384163b156108e35760405163f23a6e6160e01b81526001600160a01b0385169063f23a6e6190611e56908990899088908890889060040161312a565b6020604051808303816000875af1925050508015611e91575060408051601f3d908101601f19168201909252611e8e9181019061316f565b60015b611f3e57611e9d61318c565b806308c379a01415611ed75750611eb26131a8565b80611ebd5750611ed9565b8060405162461bcd60e51b81526004016105a291906125c5565b505b60405162461bcd60e51b815260206004820152603460248201527f455243313135353a207472616e7366657220746f206e6f6e20455243313135356044820152732932b1b2b4bb32b91034b6b83632b6b2b73a32b960611b60648201526084016105a2565b6001600160e01b0319811663f23a6e6160e01b146116785760405162461bcd60e51b81526004016105a290613231565b6000826000018281548110611f8557611f85612d2b565b9060005260206000200154905092915050565b600054610100900460ff16611fbf5760405162461bcd60e51b81526004016105a29061301a565b610d1a8161239c565b600054610100900460ff16611fef5760405162461bcd60e51b81526004016105a29061301a565b61012d805460ff19169055565b600054610100900460ff166120235760405162461bcd60e51b81526004016105a29061301a565b61202e6000336123af565b61204660008051602061330e833981519152336123af565b610d1a6000805160206132ee833981519152336123af565b60006001600160e01b03198216635a05180f60e01b14806105d057506105d0826123b9565b6001600160a01b0384163b156108e35760405163bc197c8160e01b81526001600160a01b0385169063bc197c81906120c79089908990889088908890600401613279565b6020604051808303816000875af1925050508015612102575060408051601f3d908101601f191682019092526120ff9181019061316f565b60015b61210e57611e9d61318c565b6001600160e01b0319811663bc197c8160e01b146116785760405162461bcd60e51b81526004016105a290613231565b6000818152600183016020526040812054612185575081546001818101845560008481526020808220909301849055845484825282860190935260409020919091556105d0565b5060006105d0565b600081815260018301602052604081205480156122765760006121b1600183612d5c565b85549091506000906121c590600190612d5c565b905081811461222a5760008660000182815481106121e5576121e5612d2b565b906000526020600020015490508087600001848154811061220857612208612d2b565b6000918252602080832090910192909255918252600188019052604090208390555b855486908061223b5761223b6132d7565b6001900381819060005260206000200160009055905585600101600086815260200190815260200160002060009055600193505050506105d0565b60009150506105d0565b61228e8686868686866123ee565b6001600160a01b0385166123165760005b8351811015612314578281815181106122ba576122ba612d2b565b60200260200101516101c360008684815181106122d9576122d9612d2b565b6020026020010151815260200190815260200160002060008282546122fe9190612d13565b9091555061230d905081612d41565b905061229f565b505b6001600160a01b0384166108e35760005b83518110156116785782818151811061234257612342612d2b565b60200260200101516101c3600086848151811061236157612361612d2b565b6020026020010151815260200190815260200160002060008282546123869190612d5c565b90915550612395905081612d41565b9050612327565b80516109a49060cb906020840190612460565b6109a48282611083565b60006001600160e01b03198216637965db0b60e01b14806105d057506301ffc9a760e01b6001600160e01b03198316146105d0565b6108e386868686868661012d5460ff16156108e35760405162461bcd60e51b815260206004820152602c60248201527f455243313135355061757361626c653a20746f6b656e207472616e736665722060448201526b1dda1a5b19481c185d5cd95960a21b60648201526084016105a2565b82805461246c90612c64565b90600052602060002090601f01602090048101928261248e57600085556124d4565b82601f106124a757805160ff19168380011785556124d4565b828001600101855582156124d4579182015b828111156124d45782518255916020019190600101906124b9565b506124e09291506124e4565b5090565b5b808211156124e057600081556001016124e5565b6001600160a01b0381168114610d1a57600080fd5b6000806040838503121561252157600080fd5b823561252c816124f9565b946020939093013593505050565b6001600160e01b031981168114610d1a57600080fd5b60006020828403121561256257600080fd5b8135610dc78161253a565b60005b83811015612588578181015183820152602001612570565b83811115610bc35750506000910152565b600081518084526125b181602086016020860161256d565b601f01601f19169290920160200192915050565b602081526000610dc76020830184612599565b6000602082840312156125ea57600080fd5b5035919050565b634e487b7160e01b600052604160045260246000fd5b601f8201601f191681016001600160401b038111828210171561262c5761262c6125f1565b6040525050565b60006001600160401b0382111561264c5761264c6125f1565b5060051b60200190565b600082601f83011261266757600080fd5b8135602061267482612633565b6040516126818282612607565b83815260059390931b85018201928281019150868411156126a157600080fd5b8286015b848110156126bc57803583529183019183016126a5565b509695505050505050565b60006001600160401b038311156126e0576126e06125f1565b6040516126f7601f8501601f191660200182612607565b80915083815284848401111561270c57600080fd5b83836020830137600060208583010152509392505050565b600082601f83011261273557600080fd5b610dc7838335602085016126c7565b6000806000806080858703121561275a57600080fd5b8435612765816124f9565b935060208501356001600160401b038082111561278157600080fd5b61278d88838901612656565b945060408701359150808211156127a357600080fd5b6127af88838901612656565b935060608701359150808211156127c557600080fd5b506127d287828801612724565b91505092959194509250565b600080600080600060a086880312156127f657600080fd5b8535612801816124f9565b94506020860135612811816124f9565b935060408601356001600160401b038082111561282d57600080fd5b61283989838a01612656565b9450606088013591508082111561284f57600080fd5b61285b89838a01612656565b9350608088013591508082111561287157600080fd5b5061287e88828901612724565b9150509295509295909350565b6000806040838503121561289e57600080fd5b8235915060208301356128b0816124f9565b809150509250929050565b600080604083850312156128ce57600080fd5b82356001600160401b03808211156128e557600080fd5b818501915085601f8301126128f957600080fd5b8135602061290682612633565b6040516129138282612607565b83815260059390931b850182019282810191508984111561293357600080fd5b948201945b8386101561295a57853561294b816124f9565b82529482019490820190612938565b9650508601359250508082111561297057600080fd5b5061297d85828601612656565b9150509250929050565b600081518084526020808501945080840160005b838110156129b75781518752958201959082019060010161299b565b509495945050505050565b602081526000610dc76020830184612987565b8015158114610d1a57600080fd5b6000806000606084860312156129f857600080fd5b8335612a03816124f9565b92506020840135612a13816124f9565b91506040840135612a23816129d5565b809150509250925092565b600080600060608486031215612a4357600080fd5b8335612a4e816124f9565b925060208401356001600160401b0380821115612a6a57600080fd5b612a7687838801612656565b93506040860135915080821115612a8c57600080fd5b50612a9986828701612656565b9150509250925092565b60008060008060808587031215612ab957600080fd5b8435612ac4816124f9565b9350602085013592506040850135915060608501356001600160401b03811115612aed57600080fd5b6127d287828801612724565b60008060408385031215612b0c57600080fd5b50508035926020909101359150565b60008060408385031215612b2e57600080fd5b8235612b39816124f9565b915060208301356128b0816129d5565b60008060408385031215612b5c57600080fd5b8235612b67816124f9565b915060208301356128b0816124f9565b600080600080600060a08688031215612b8f57600080fd5b8535612b9a816124f9565b94506020860135612baa816124f9565b9350604086013592506060860135915060808601356001600160401b03811115612bd357600080fd5b61287e88828901612724565b600080600060608486031215612bf457600080fd5b8335612bff816124f9565b95602085013595506040909401359392505050565b600060208284031215612c2657600080fd5b81356001600160401b03811115612c3c57600080fd5b8201601f81018413612c4d57600080fd5b612c5c848235602084016126c7565b949350505050565b600181811c90821680612c7857607f821691505b60208210811415612c9957634e487b7160e01b600052602260045260246000fd5b50919050565b600060408284031215612cb157600080fd5b604051604081018181106001600160401b0382111715612cd357612cd36125f1565b6040528251612ce1816124f9565b81526020830151612cf1816129d5565b60208201529392505050565b634e487b7160e01b600052601160045260246000fd5b60008219821115612d2657612d26612cfd565b500190565b634e487b7160e01b600052603260045260246000fd5b6000600019821415612d5557612d55612cfd565b5060010190565b600082821015612d6e57612d6e612cfd565b500390565b60208082526029908201527f455243313135353a2063616c6c6572206973206e6f74206f776e6572206e6f7260408201526808185c1c1c9bdd995960ba1b606082015260800190565b60208082526038908201527f455243313135355072657365744d696e7465725061757365723a206d7573742060408201527f68617665206d696e74657220726f6c6520746f206d696e740000000000000000606082015260800190565b6020808252602e908201527f496e697469616c697a61626c653a20636f6e747261637420697320616c72656160408201526d191e481a5b9a5d1a585b1a5e995960921b606082015260800190565b7f416363657373436f6e74726f6c3a206163636f756e7420000000000000000000815260008351612e9f81601785016020880161256d565b7001034b99036b4b9b9b4b733903937b6329607d1b6017918401918201528351612ed081602884016020880161256d565b01602801949350505050565b60208082526023908201527f455243313135353a206275726e2066726f6d20746865207a65726f206164647260408201526265737360e81b606082015260800190565b60208082526028908201527f455243313135353a2069647320616e6420616d6f756e7473206c656e677468206040820152670dad2e6dac2e8c6d60c31b606082015260800190565b60208082526024908201527f455243313135353a206275726e20616d6f756e7420657863656564732062616c604082015263616e636560e01b606082015260800190565b604081526000612fbe6040830185612987565b8281036020840152612fd08185612987565b95945050505050565b60208082526021908201527f455243313135353a206d696e7420746f20746865207a65726f206164647265736040820152607360f81b606082015260800190565b6020808252602b908201527f496e697469616c697a61626c653a20636f6e7472616374206973206e6f74206960408201526a6e697469616c697a696e6760a81b606082015260800190565b60208082526025908201527f455243313135353a207472616e7366657220746f20746865207a65726f206164604082015264647265737360d81b606082015260800190565b6020808252602a908201527f455243313135353a20696e73756666696369656e742062616c616e636520666f60408201526939103a3930b739b332b960b11b606082015260800190565b600081600019048311821515161561310e5761310e612cfd565b500290565b60008161312257613122612cfd565b506000190190565b6001600160a01b03868116825285166020820152604081018490526060810183905260a06080820181905260009061316490830184612599565b979650505050505050565b60006020828403121561318157600080fd5b8151610dc78161253a565b600060033d11156131a55760046000803e5060005160e01c5b90565b600060443d10156131b65790565b6040516003193d81016004833e81513d6001600160401b0381602484011181841117156131e557505050505090565b82850191508151818111156131fd5750505050505090565b843d87010160208285010111156132175750505050505090565b61322660208286010187612607565b509095945050505050565b60208082526028908201527f455243313135353a204552433131353552656365697665722072656a656374656040820152676420746f6b656e7360c01b606082015260800190565b6001600160a01b0386811682528516602082015260a0604082018190526000906132a590830186612987565b82810360608401526132b78186612987565b905082810360808401526132cb8185612599565b98975050505050505050565b634e487b7160e01b600052603160045260246000fdfe65d7a28e3265b37a6474929f336521b332c1681b933f6cb9f3376673440d862a9f2df0fed2c77648de5860a4cc508cd0818c85b8b8a1ab4ceeef8d981c8956a668747470733a2f2f6e6f72692e636f6d2f6170692f72656d6f76616c2f7b69647d2e6a736f6ea2646970667358221220f02adb424f0fd47bf3e44137fdc8ff9d2794488c4c745ec2acf300d2929a7fbf64736f6c634300080a0033",
  "linkReferences": {},
  "deployedLinkReferences": {}
}