{
  "_format": "hh-sol-artifact-1",
  "contractName": "Removal",
  "sourceName": "contracts/Removal.sol",
  "abi": [
    {
      "inputs": [],
      "stateMutability": "nonpayable",
      "type": "constructor"
    },
    {
      "inputs": [
        {
          "internalType": "string",
          "name": "array1Name",
          "type": "string"
        },
        {
          "internalType": "string",
          "name": "array2Name",
          "type": "string"
        }
      ],
      "name": "ArrayLengthMismatch",
      "type": "error"
    },
    {
      "inputs": [
        {
          "internalType": "uint256",
          "name": "projectId",
          "type": "uint256"
        }
      ],
      "name": "InvalidProjectId",
      "type": "error"
    },
    {
      "inputs": [
        {
          "internalType": "uint256",
          "name": "tokenId",
          "type": "uint256"
        }
      ],
      "name": "TokenIdDoesNotExist",
      "type": "error"
    },
    {
      "inputs": [
        {
          "internalType": "uint256",
          "name": "tokenId",
          "type": "uint256"
        }
      ],
      "name": "TokenIdExists",
      "type": "error"
    },
    {
      "anonymous": false,
      "inputs": [
        {
          "indexed": true,
          "internalType": "address",
          "name": "account",
          "type": "address"
        },
        {
          "indexed": true,
          "internalType": "address",
          "name": "operator",
          "type": "address"
        },
        {
          "indexed": false,
          "internalType": "bool",
          "name": "approved",
          "type": "bool"
        }
      ],
      "name": "ApprovalForAll",
      "type": "event"
    },
    {
      "anonymous": false,
      "inputs": [
        {
          "indexed": false,
          "internalType": "uint8",
          "name": "version",
          "type": "uint8"
        }
      ],
      "name": "Initialized",
      "type": "event"
    },
    {
      "anonymous": false,
      "inputs": [
        {
          "indexed": false,
          "internalType": "address",
          "name": "account",
          "type": "address"
        }
      ],
      "name": "Paused",
      "type": "event"
    },
    {
      "anonymous": false,
      "inputs": [
        {
          "indexed": true,
          "internalType": "bytes32",
          "name": "role",
          "type": "bytes32"
        },
        {
          "indexed": true,
          "internalType": "bytes32",
          "name": "previousAdminRole",
          "type": "bytes32"
        },
        {
          "indexed": true,
          "internalType": "bytes32",
          "name": "newAdminRole",
          "type": "bytes32"
        }
      ],
      "name": "RoleAdminChanged",
      "type": "event"
    },
    {
      "anonymous": false,
      "inputs": [
        {
          "indexed": true,
          "internalType": "bytes32",
          "name": "role",
          "type": "bytes32"
        },
        {
          "indexed": true,
          "internalType": "address",
          "name": "account",
          "type": "address"
        },
        {
          "indexed": true,
          "internalType": "address",
          "name": "sender",
          "type": "address"
        }
      ],
      "name": "RoleGranted",
      "type": "event"
    },
    {
      "anonymous": false,
      "inputs": [
        {
          "indexed": true,
          "internalType": "bytes32",
          "name": "role",
          "type": "bytes32"
        },
        {
          "indexed": true,
          "internalType": "address",
          "name": "account",
          "type": "address"
        },
        {
          "indexed": true,
          "internalType": "address",
          "name": "sender",
          "type": "address"
        }
      ],
      "name": "RoleRevoked",
      "type": "event"
    },
    {
      "anonymous": false,
      "inputs": [
        {
          "indexed": true,
          "internalType": "address",
          "name": "operator",
          "type": "address"
        },
        {
          "indexed": true,
          "internalType": "address",
          "name": "from",
          "type": "address"
        },
        {
          "indexed": true,
          "internalType": "address",
          "name": "to",
          "type": "address"
        },
        {
          "indexed": false,
          "internalType": "uint256[]",
          "name": "ids",
          "type": "uint256[]"
        },
        {
          "indexed": false,
          "internalType": "uint256[]",
          "name": "values",
          "type": "uint256[]"
        }
      ],
      "name": "TransferBatch",
      "type": "event"
    },
    {
      "anonymous": false,
      "inputs": [
        {
          "indexed": true,
          "internalType": "address",
          "name": "operator",
          "type": "address"
        },
        {
          "indexed": true,
          "internalType": "address",
          "name": "from",
          "type": "address"
        },
        {
          "indexed": true,
          "internalType": "address",
          "name": "to",
          "type": "address"
        },
        {
          "indexed": false,
          "internalType": "uint256",
          "name": "id",
          "type": "uint256"
        },
        {
          "indexed": false,
          "internalType": "uint256",
          "name": "value",
          "type": "uint256"
        }
      ],
      "name": "TransferSingle",
      "type": "event"
    },
    {
      "anonymous": false,
      "inputs": [
        {
          "indexed": false,
          "internalType": "string",
          "name": "value",
          "type": "string"
        },
        {
          "indexed": true,
          "internalType": "uint256",
          "name": "id",
          "type": "uint256"
        }
      ],
      "name": "URI",
      "type": "event"
    },
    {
      "anonymous": false,
      "inputs": [
        {
          "indexed": false,
          "internalType": "address",
          "name": "account",
          "type": "address"
        }
      ],
      "name": "Unpaused",
      "type": "event"
    },
    {
      "inputs": [],
      "name": "DEFAULT_ADMIN_ROLE",
      "outputs": [
        {
          "internalType": "bytes32",
          "name": "",
          "type": "bytes32"
        }
      ],
      "stateMutability": "view",
      "type": "function"
    },
    {
      "inputs": [],
      "name": "MINTER_ROLE",
      "outputs": [
        {
          "internalType": "bytes32",
          "name": "",
          "type": "bytes32"
        }
      ],
      "stateMutability": "view",
      "type": "function"
    },
    {
      "inputs": [],
      "name": "PAUSER_ROLE",
      "outputs": [
        {
          "internalType": "bytes32",
          "name": "",
          "type": "bytes32"
        }
      ],
      "stateMutability": "view",
      "type": "function"
    },
    {
      "inputs": [],
      "name": "RELEASER_ROLE",
      "outputs": [
        {
          "internalType": "bytes32",
          "name": "",
          "type": "bytes32"
        }
      ],
      "stateMutability": "view",
      "type": "function"
    },
    {
      "inputs": [
        {
          "internalType": "address",
          "name": "account",
          "type": "address"
        },
        {
          "internalType": "uint256",
          "name": "id",
          "type": "uint256"
        }
      ],
      "name": "balanceOf",
      "outputs": [
        {
          "internalType": "uint256",
          "name": "",
          "type": "uint256"
        }
      ],
      "stateMutability": "view",
      "type": "function"
    },
    {
      "inputs": [
        {
          "internalType": "address[]",
          "name": "accounts",
          "type": "address[]"
        },
        {
          "internalType": "uint256[]",
          "name": "ids",
          "type": "uint256[]"
        }
      ],
      "name": "balanceOfBatch",
      "outputs": [
        {
          "internalType": "uint256[]",
          "name": "",
          "type": "uint256[]"
        }
      ],
      "stateMutability": "view",
      "type": "function"
    },
    {
      "inputs": [
        {
          "internalType": "address",
          "name": "account",
          "type": "address"
        },
        {
          "internalType": "uint256[]",
          "name": "ids",
          "type": "uint256[]"
        }
      ],
      "name": "balanceOfIds",
      "outputs": [
        {
          "internalType": "uint256[]",
          "name": "",
          "type": "uint256[]"
        }
      ],
      "stateMutability": "view",
      "type": "function"
    },
    {
      "inputs": [
        {
          "internalType": "uint256[]",
          "name": "removalIds",
          "type": "uint256[]"
        }
      ],
      "name": "batchGetHoldbackPercentages",
      "outputs": [
        {
          "internalType": "uint256[]",
          "name": "",
          "type": "uint256[]"
        }
      ],
      "stateMutability": "view",
      "type": "function"
    },
    {
      "inputs": [
        {
          "internalType": "uint256[]",
          "name": "removalIds",
          "type": "uint256[]"
        },
        {
          "internalType": "uint256",
          "name": "holdbackPercentage",
          "type": "uint256"
        }
      ],
      "name": "batchSetHoldbackPercentage",
      "outputs": [],
      "stateMutability": "nonpayable",
      "type": "function"
    },
    {
      "inputs": [
        {
          "internalType": "address",
          "name": "account",
          "type": "address"
        },
        {
          "internalType": "uint256",
          "name": "id",
          "type": "uint256"
        },
        {
          "internalType": "uint256",
          "name": "value",
          "type": "uint256"
        }
      ],
      "name": "burn",
      "outputs": [],
      "stateMutability": "nonpayable",
      "type": "function"
    },
    {
      "inputs": [
        {
          "internalType": "address",
          "name": "account",
          "type": "address"
        },
        {
          "internalType": "uint256[]",
          "name": "ids",
          "type": "uint256[]"
        },
        {
          "internalType": "uint256[]",
          "name": "values",
          "type": "uint256[]"
        }
      ],
      "name": "burnBatch",
      "outputs": [],
      "stateMutability": "nonpayable",
      "type": "function"
    },
    {
      "inputs": [
        {
          "internalType": "bytes",
          "name": "removalData",
          "type": "bytes"
        }
      ],
      "name": "createRemovalId",
      "outputs": [
        {
          "internalType": "uint256",
          "name": "",
          "type": "uint256"
        }
      ],
      "stateMutability": "pure",
      "type": "function"
    },
    {
      "inputs": [
        {
          "internalType": "address",
          "name": "account",
          "type": "address"
        }
      ],
      "name": "cumulativeBalanceOf",
      "outputs": [
        {
          "internalType": "uint256",
          "name": "",
          "type": "uint256"
        }
      ],
      "stateMutability": "view",
      "type": "function"
    },
    {
      "inputs": [
        {
          "internalType": "address[]",
          "name": "accounts",
          "type": "address[]"
        }
      ],
      "name": "cumulativeBalanceOfBatch",
      "outputs": [
        {
          "internalType": "uint256[]",
          "name": "",
          "type": "uint256[]"
        }
      ],
      "stateMutability": "view",
      "type": "function"
    },
    {
      "inputs": [
        {
          "internalType": "uint256",
          "name": "id",
          "type": "uint256"
        }
      ],
      "name": "exists",
      "outputs": [
        {
          "internalType": "bool",
          "name": "",
          "type": "bool"
        }
      ],
      "stateMutability": "view",
      "type": "function"
    },
    {
      "inputs": [
        {
          "internalType": "uint256",
          "name": "removalId",
          "type": "uint256"
        }
      ],
      "name": "getProjectIdForRemoval",
      "outputs": [
        {
          "internalType": "uint256",
          "name": "",
          "type": "uint256"
        }
      ],
      "stateMutability": "view",
      "type": "function"
    },
    {
      "inputs": [
        {
          "internalType": "bytes32",
          "name": "role",
          "type": "bytes32"
        }
      ],
      "name": "getRoleAdmin",
      "outputs": [
        {
          "internalType": "bytes32",
          "name": "",
          "type": "bytes32"
        }
      ],
      "stateMutability": "view",
      "type": "function"
    },
    {
      "inputs": [
        {
          "internalType": "bytes32",
          "name": "role",
          "type": "bytes32"
        },
        {
          "internalType": "uint256",
          "name": "index",
          "type": "uint256"
        }
      ],
      "name": "getRoleMember",
      "outputs": [
        {
          "internalType": "address",
          "name": "",
          "type": "address"
        }
      ],
      "stateMutability": "view",
      "type": "function"
    },
    {
      "inputs": [
        {
          "internalType": "bytes32",
          "name": "role",
          "type": "bytes32"
        }
      ],
      "name": "getRoleMemberCount",
      "outputs": [
        {
          "internalType": "uint256",
          "name": "",
          "type": "uint256"
        }
      ],
      "stateMutability": "view",
      "type": "function"
    },
    {
      "inputs": [
        {
          "internalType": "uint256",
          "name": "projectId",
          "type": "uint256"
        }
      ],
      "name": "getScheduleDataForProjectId",
      "outputs": [
        {
          "components": [
            {
              "internalType": "uint256",
              "name": "startTime",
              "type": "uint256"
            },
            {
              "internalType": "address",
              "name": "supplierAddress",
              "type": "address"
            },
            {
              "internalType": "uint256",
              "name": "methodology",
              "type": "uint256"
            },
            {
              "internalType": "uint256",
              "name": "methodologyVersion",
              "type": "uint256"
            }
          ],
          "internalType": "struct Removal.ScheduleData",
          "name": "",
          "type": "tuple"
        }
      ],
      "stateMutability": "view",
      "type": "function"
    },
    {
      "inputs": [
        {
          "internalType": "uint256",
          "name": "removalId",
          "type": "uint256"
        }
      ],
      "name": "getScheduleDataForRemovalId",
      "outputs": [
        {
          "components": [
            {
              "internalType": "uint256",
              "name": "startTime",
              "type": "uint256"
            },
            {
              "internalType": "address",
              "name": "supplierAddress",
              "type": "address"
            },
            {
              "internalType": "uint256",
              "name": "methodology",
              "type": "uint256"
            },
            {
              "internalType": "uint256",
              "name": "methodologyVersion",
              "type": "uint256"
            }
          ],
          "internalType": "struct Removal.ScheduleData",
          "name": "",
          "type": "tuple"
        }
      ],
      "stateMutability": "view",
      "type": "function"
    },
    {
      "inputs": [
        {
          "internalType": "bytes32",
          "name": "role",
          "type": "bytes32"
        },
        {
          "internalType": "address",
          "name": "account",
          "type": "address"
        }
      ],
      "name": "grantRole",
      "outputs": [],
      "stateMutability": "nonpayable",
      "type": "function"
    },
    {
      "inputs": [
        {
          "internalType": "bytes32",
          "name": "role",
          "type": "bytes32"
        },
        {
          "internalType": "address",
          "name": "account",
          "type": "address"
        }
      ],
      "name": "hasRole",
      "outputs": [
        {
          "internalType": "bool",
          "name": "",
          "type": "bool"
        }
      ],
      "stateMutability": "view",
      "type": "function"
    },
    {
      "inputs": [
        {
          "internalType": "uint256",
          "name": "",
          "type": "uint256"
        }
      ],
      "name": "indexToTokenId",
      "outputs": [
        {
          "internalType": "uint256",
          "name": "",
          "type": "uint256"
        }
      ],
      "stateMutability": "view",
      "type": "function"
    },
    {
      "inputs": [],
      "name": "initialize",
      "outputs": [],
      "stateMutability": "nonpayable",
      "type": "function"
    },
    {
      "inputs": [
        {
          "internalType": "string",
          "name": "uri",
          "type": "string"
        }
      ],
      "name": "initialize",
      "outputs": [],
      "stateMutability": "nonpayable",
      "type": "function"
    },
    {
      "inputs": [
        {
          "internalType": "address",
          "name": "account",
          "type": "address"
        },
        {
          "internalType": "address",
          "name": "operator",
          "type": "address"
        }
      ],
      "name": "isApprovedForAll",
      "outputs": [
        {
          "internalType": "bool",
          "name": "",
          "type": "bool"
        }
      ],
      "stateMutability": "view",
      "type": "function"
    },
    {
      "inputs": [
        {
          "internalType": "address",
          "name": "",
          "type": "address"
        },
        {
          "internalType": "uint256",
          "name": "",
          "type": "uint256"
        },
        {
          "internalType": "uint256",
          "name": "",
          "type": "uint256"
        },
        {
          "internalType": "bytes",
          "name": "",
          "type": "bytes"
        }
      ],
      "name": "mint",
      "outputs": [],
      "stateMutability": "pure",
      "type": "function"
    },
    {
      "inputs": [
        {
          "internalType": "address",
          "name": "to",
          "type": "address"
        },
        {
          "internalType": "uint256[]",
          "name": "amounts",
          "type": "uint256[]"
        },
        {
          "internalType": "uint256[]",
          "name": "ids",
          "type": "uint256[]"
        },
        {
          "internalType": "bytes",
          "name": "data",
          "type": "bytes"
        }
      ],
      "name": "mintBatch",
      "outputs": [],
      "stateMutability": "nonpayable",
      "type": "function"
    },
    {
      "inputs": [],
      "name": "name",
      "outputs": [
        {
          "internalType": "string",
          "name": "",
          "type": "string"
        }
      ],
      "stateMutability": "view",
      "type": "function"
    },
    {
      "inputs": [],
      "name": "pause",
      "outputs": [],
      "stateMutability": "nonpayable",
      "type": "function"
    },
    {
      "inputs": [],
      "name": "paused",
      "outputs": [
        {
          "internalType": "bool",
          "name": "",
          "type": "bool"
        }
      ],
      "stateMutability": "view",
      "type": "function"
    },
    {
      "inputs": [
        {
          "internalType": "address",
          "name": "restrictedNORIAddress",
          "type": "address"
        }
      ],
      "name": "registerRestrictedNORIAddress",
      "outputs": [],
      "stateMutability": "nonpayable",
      "type": "function"
    },
    {
      "inputs": [
        {
          "internalType": "address",
          "name": "owner",
          "type": "address"
        },
        {
          "internalType": "uint256",
          "name": "removalId",
          "type": "uint256"
        },
        {
          "internalType": "uint256",
          "name": "amount",
          "type": "uint256"
        }
      ],
      "name": "release",
      "outputs": [],
      "stateMutability": "nonpayable",
      "type": "function"
    },
    {
      "inputs": [
        {
          "internalType": "bytes32",
          "name": "role",
          "type": "bytes32"
        },
        {
          "internalType": "address",
          "name": "account",
          "type": "address"
        }
      ],
      "name": "renounceRole",
      "outputs": [],
      "stateMutability": "nonpayable",
      "type": "function"
    },
    {
      "inputs": [
        {
          "internalType": "bytes32",
          "name": "role",
          "type": "bytes32"
        },
        {
          "internalType": "address",
          "name": "account",
          "type": "address"
        }
      ],
      "name": "revokeRole",
      "outputs": [],
      "stateMutability": "nonpayable",
      "type": "function"
    },
    {
      "inputs": [
        {
          "internalType": "address",
          "name": "from",
          "type": "address"
        },
        {
          "internalType": "address",
          "name": "to",
          "type": "address"
        },
        {
          "internalType": "uint256[]",
          "name": "ids",
          "type": "uint256[]"
        },
        {
          "internalType": "uint256[]",
          "name": "amounts",
          "type": "uint256[]"
        },
        {
          "internalType": "bytes",
          "name": "",
          "type": "bytes"
        }
      ],
      "name": "safeBatchTransferFrom",
      "outputs": [],
      "stateMutability": "nonpayable",
      "type": "function"
    },
    {
      "inputs": [
        {
          "internalType": "address",
          "name": "from",
          "type": "address"
        },
        {
          "internalType": "address",
          "name": "to",
          "type": "address"
        },
        {
          "internalType": "uint256",
          "name": "id",
          "type": "uint256"
        },
        {
          "internalType": "uint256",
          "name": "amount",
          "type": "uint256"
        },
        {
          "internalType": "bytes",
          "name": "data",
          "type": "bytes"
        }
      ],
      "name": "safeTransferFrom",
      "outputs": [],
      "stateMutability": "nonpayable",
      "type": "function"
    },
    {
      "inputs": [
        {
          "internalType": "address",
          "name": "owner",
          "type": "address"
        },
        {
          "internalType": "address",
          "name": "operator",
          "type": "address"
        },
        {
          "internalType": "bool",
          "name": "approved",
          "type": "bool"
        }
      ],
      "name": "setApprovalForAll",
      "outputs": [],
      "stateMutability": "nonpayable",
      "type": "function"
    },
    {
      "inputs": [
        {
          "internalType": "address",
          "name": "operator",
          "type": "address"
        },
        {
          "internalType": "bool",
          "name": "approved",
          "type": "bool"
        }
      ],
      "name": "setApprovalForAll",
      "outputs": [],
      "stateMutability": "nonpayable",
      "type": "function"
    },
    {
      "inputs": [
        {
          "internalType": "bytes4",
          "name": "interfaceId",
          "type": "bytes4"
        }
      ],
      "name": "supportsInterface",
      "outputs": [
        {
          "internalType": "bool",
          "name": "",
          "type": "bool"
        }
      ],
      "stateMutability": "view",
      "type": "function"
    },
    {
      "inputs": [],
      "name": "tokenIdCounter",
      "outputs": [
        {
          "internalType": "uint256",
          "name": "",
          "type": "uint256"
        }
      ],
      "stateMutability": "view",
      "type": "function"
    },
    {
      "inputs": [
        {
          "internalType": "uint256",
          "name": "id",
          "type": "uint256"
        }
      ],
      "name": "totalSupply",
      "outputs": [
        {
          "internalType": "uint256",
          "name": "",
          "type": "uint256"
        }
      ],
      "stateMutability": "view",
      "type": "function"
    },
    {
      "inputs": [
        {
          "internalType": "uint256",
          "name": "removalId",
          "type": "uint256"
        }
      ],
      "name": "unpackRemovalIdV0",
      "outputs": [
        {
          "components": [
            {
              "internalType": "uint8",
              "name": "idVersion",
              "type": "uint8"
            },
            {
              "internalType": "uint8",
              "name": "methodology",
              "type": "uint8"
            },
            {
              "internalType": "uint8",
              "name": "methodologyVersion",
              "type": "uint8"
            },
            {
              "internalType": "uint16",
              "name": "vintage",
              "type": "uint16"
            },
            {
              "internalType": "bytes2",
              "name": "country",
              "type": "bytes2"
            },
            {
              "internalType": "bytes2",
              "name": "subdivision",
              "type": "bytes2"
            },
            {
              "internalType": "address",
              "name": "supplierAddress",
              "type": "address"
            },
            {
              "internalType": "uint32",
              "name": "subIdentifier",
              "type": "uint32"
            }
          ],
          "internalType": "struct UnpackedRemovalIdV0",
          "name": "",
          "type": "tuple"
        }
      ],
      "stateMutability": "pure",
      "type": "function"
    },
    {
      "inputs": [],
      "name": "unpause",
      "outputs": [],
      "stateMutability": "nonpayable",
      "type": "function"
    },
    {
      "inputs": [
        {
          "internalType": "uint256",
          "name": "",
          "type": "uint256"
        }
      ],
      "name": "uri",
      "outputs": [
        {
          "internalType": "string",
          "name": "",
          "type": "string"
        }
      ],
      "stateMutability": "view",
      "type": "function"
    }
  ],
  "bytecode": "0x60808060405234620000c6576000549060ff8260081c1662000074575060ff8082161062000038575b604051615f439081620000cc8239f35b60ff90811916176000557f7f26b83ff96e1f2b6a682f133852f6798a09c465da95921460cefb3847402498602060405160ff8152a13862000028565b62461bcd60e51b815260206004820152602760248201527f496e697469616c697a61626c653a20636f6e747261637420697320696e697469604482015266616c697a696e6760c81b6064820152608490fd5b600080fdfe6080604052600436101561001257600080fd5b60e0600035811c908162fdd58e14614233578163018e1c83146141a857816301ffc9a71461405257816306fdde0314613f2e5781630e89341c14613e105781631990ad0514613da65781631f7fdffa14613105578163248a9ca3146130b85781632eb2c2d614612d725781632f2ff15d14612c5e57816336568abe14612b7a578163367605ca14612b155781633f4ba83a1461296f57816348ec4c3b146124445781634e1273f4146122e25781634f558e79146122955781635c975abb146122535781635f830d77146121cc5781636b20c45414612018578163731133e914611f615781637aef116414611f165781638129fc1c14611a2c5781638456cb59146118e2578163854560a4146118765781639010d07c1461180557816391d148541461178c57816398bdf6f51461174f57816399d5121b14611678578163a217fddf1461163e578163a22cb465146115f1578163a53ba52714611504578163ac28af24146114ab578163b6477cc0146113ac578163bd85b03914611361578163c1b8ecdd1461127d578163ca15c87314611233578163d5391393146111da578163d547741f1461117d578163d85a53e91461104957508063e0fc293814610ffe578063e63ab1e914610fa5578063e985e9c514610f23578063f242432a146108cd578063f297be661461055b578063f5298aca146105445763f62d18881461021857600080fd5b3461053f576020807ffffffffffffffffffffffffffffffffffffffffffffffffffffffffffffffffc36011261053f5767ffffffffffffffff9060043582811161053f573660238201121561053f5761027b903690602481600401359101614506565b9160005460ff8160081c161591828093610532575b801561051b575b6102a090615460565b6001947fffffffffffffffffffffffffffffffffffffffffffffffffffffffffffffff00928487858316176000556104ec575b506102ee60ff60005460081c166102e9816154eb565b6154eb565b80519182116104bd5761030b8261030660cb5461443b565b615576565b8490601f83116001146103fa5761037a939291600091836103ef575b50507fffffffffffffffffffffffffffffffffffffffffffffffffffffffffffffffff82881b9260031b1c19161760cb555b60ff60005460081c169061036c826154eb565b61012d9081541690556154eb565b61038333614644565b61038c33614713565b61039533614800565b61039c575b005b7f7f26b83ff96e1f2b6a682f133852f6798a09c465da95921460cefb3847402498917fffffffffffffffffffffffffffffffffffffffffffffffffffffffffffff00ff60005416600055604051908152a1005b015190503880610327565b929186917fffffffffffffffffffffffffffffffffffffffffffffffffffffffffffffffe082169060cb6000527fa7ce836d032b2bf62b7e2097a8e0a6d8aeb35405ad15271e96d3b0188a1d06fb9160005b898282106104a7575050958361037a9710610470575b505050811b0160cb55610359565b01517fffffffffffffffffffffffffffffffffffffffffffffffffffffffffffffffff60f88460031b161c19169055388080610462565b8389015185558b9690940193928301920161044c565b7f4e487b7100000000000000000000000000000000000000000000000000000000600052604160045260246000fd5b7fffffffffffffffffffffffffffffffffffffffffffffffffffffffffffff00001661010117600055386102d3565b50303b158015610297575060ff8216600114610297565b50600160ff831610610290565b600080fd5b3461053f5761039a610555366145ef565b91615195565b3461053f57610569366145ef565b6105716155e7565b3360009081527fec61bc6b0866a4b1868602619f88652b89981557ea810abfe8701ca0aadd758760209081526040909120549092907f88f3509f0e42391f2d94ebfb2a37cbd0782b1b8f73715330017f4663290b81179060ff161561068457509060448284936000526101f58452826040600020556105f1838288615195565b600073ffffffffffffffffffffffffffffffffffffffff60405197889586947f366a412000000000000000000000000000000000000000000000000000000000865260048601526024850152165af180156106785761064c57005b81813d8311610671575b6106608183614350565b8101031261053f5761039a90615a8c565b503d610656565b6040513d6000823e3d90fd5b8361068e33615663565b9160405161069b816142df565b6042815282810191606036843781511561089e5760308353815160019081101561089e57607860218401536041905b8082116108005750506107a35761075593610764926048926040519687937f416363657373436f6e74726f6c3a206163636f756e742000000000000000000088860152610720815180928a60378901910161448e565b8401917f206973206d697373696e6720726f6c652000000000000000000000000000000060378401525180938684019061448e565b01036028810185520183614350565b61079f6040519283927f08c379a0000000000000000000000000000000000000000000000000000000008452600484015260248301906144c3565b0390fd5b606483604051907f08c379a000000000000000000000000000000000000000000000000000000000825280600483015260248201527f537472696e67733a20686578206c656e67746820696e73756666696369656e746044820152fd5b9091600f8116601081101561089e577f3031323334353637383961626364656600000000000000000000000000000000901a61083c8486615652565b5360041c91801561086f577fffffffffffffffffffffffffffffffffffffffffffffffffffffffffffffffff01906106ca565b7f4e487b7100000000000000000000000000000000000000000000000000000000600052601160045260246000fd5b7f4e487b7100000000000000000000000000000000000000000000000000000000600052603260045260246000fd5b3461053f5760a07ffffffffffffffffffffffffffffffffffffffffffffffffffffffffffffffffc36011261053f57610904614278565b61090c61429b565b60843567ffffffffffffffff811161053f5761092c90369060040161456b565b9073ffffffffffffffffffffffffffffffffffffffff9133838516148015610ef8575b61095890614e49565b6109658383161515614ed4565b610970604435615170565b61097b606435615170565b90600082516000905b808210610ed2575050858716610eaf575b8585166000526101fd6020526109b16040600020918254614fea565b905560ff61012d5416610e2b5784861615610dce575b84841615610cde575b505060443560005260c960205260406000208385166000526020526040600020546109ff606435821015614f5f565b60443560005260c96020526040600020848616600052602052606435900360406000205560443560005260c960205260406000208383166000526020526040600020610a4e6064358254614fea565b90556040516044358152606435602082015283831690848616907fc3d58168c5ae7397731d063d5bbf3d657854427343f4c083240f7aacaa2d0f6260403392a4813b610a9657005b602091610afb916000604051958680958194837ff23a6e61000000000000000000000000000000000000000000000000000000009b8c85523360048601521660248401526044356044840152606435606484015260a0608484015260a48301906144c3565b0393165af160009181610cad575b50610c015750506001610b1a6150c5565b6308c379a014610bb0575b610b2b57005b6040517f08c379a000000000000000000000000000000000000000000000000000000000815260206004820152603460248201527f455243313135353a207472616e7366657220746f206e6f6e204552433131353560448201527f526563656976657220696d706c656d656e7465720000000000000000000000006064820152608490fd5b610bb86150e3565b80610bc35750610b25565b61079f906040519182917f08c379a00000000000000000000000000000000000000000000000000000000083526020600484015260248301906144c3565b7fffffffff00000000000000000000000000000000000000000000000000000000161461039a576040517f08c379a000000000000000000000000000000000000000000000000000000000815260206004820152602860248201527f455243313135353a204552433131353552656365697665722072656a6563746560448201527f6420746f6b656e730000000000000000000000000000000000000000000000006064820152608490fd5b610cd091925060203d602011610cd7575b610cc88183614350565b81019061508d565b9083610b09565b503d610cbe565b92600095929491955b8451811015610dc057610cfa8186614e35565b5190610d068189614e35565b51826000526101c3602052604060002054818110610d3c57610d37936000526101c360205203604060002055614dfb565b610ce7565b60846040517f08c379a000000000000000000000000000000000000000000000000000000000815260206004820152602860248201527f455243313135353a206275726e20616d6f756e74206578636565647320746f7460448201527f616c537570706c790000000000000000000000000000000000000000000000006064820152fd5b5092509290935084806109d0565b92600095929491955b8451811015610e1f5780610dee610e1a9289614e35565b51610df98288614e35565b516000526101c3602052610e136040600020918254614fea565b9055614dfb565b610dd7565b509294909391946109c7565b60846040517f08c379a000000000000000000000000000000000000000000000000000000000815260206004820152602c60248201527f455243313135355061757361626c653a20746f6b656e207472616e736665722060448201527f7768696c652070617573656400000000000000000000000000000000000000006064820152fd5b8587166000526101fd6020526040600020610ecb8282546158c4565b9055610995565b9091610eec610ef291610ee58588614e35565b5190614fea565b92614dfb565b90610984565b5082841660005260ca60205260406000203360005260205261095860ff60406000205416905061094f565b3461053f5760407ffffffffffffffffffffffffffffffffffffffffffffffffffffffffffffffffc36011261053f57610f5a614278565b610f6261429b565b9073ffffffffffffffffffffffffffffffffffffffff80911660005260ca60205260406000209116600052602052602060ff604060002054166040519015158152f35b3461053f5760007ffffffffffffffffffffffffffffffffffffffffffffffffffffffffffffffffc36011261053f5760206040517f65d7a28e3265b37a6474929f336521b332c1681b933f6cb9f3376673440d862a8152f35b3461053f5760207ffffffffffffffffffffffffffffffffffffffffffffffffffffffffffffffffc36011261053f576004356000526101fb6020526020604060002054604051908152f35b3461053f5760207ffffffffffffffffffffffffffffffffffffffffffffffffffffffffffffffffc36011261053f5760043590611084615a29565b5061108d615a29565b508160f81c91604051926110a0846142fb565b80845260208401938260f41c600f168552604081018360f01c600f1681526060820161ffff908186881c16815260808401917fffff000000000000000000000000000000000000000000000000000000000000928391828960201b16825260a0870193838a60301b16855260c08801968b73ffffffffffffffffffffffffffffffffffffffff998a8d60201c168a52019963ffffffff809c168b526040519d8e9182525160ff1690602001525160ff1660408d0152511660608b015251166080890152511660a0870152511660c085015251169082015261010090f35b3461053f5760407ffffffffffffffffffffffffffffffffffffffffffffffffffffffffffffffffc36011261053f5761039a6004356111ba61429b565b908060005260656020526111d5600160406000200154614aff565b614c3b565b3461053f5760007ffffffffffffffffffffffffffffffffffffffffffffffffffffffffffffffffc36011261053f5760206040517f9f2df0fed2c77648de5860a4cc508cd0818c85b8b8a1ab4ceeef8d981c8956a68152f35b3461053f5760207ffffffffffffffffffffffffffffffffffffffffffffffffffffffffffffffffc36011261053f5760043560005260976020526020604060002054604051908152f35b3461053f5760207ffffffffffffffffffffffffffffffffffffffffffffffffffffffffffffffffc36011261053f5760043567ffffffffffffffff811161053f576112cc903690600401614589565b80516112d781614dac565b9160005b8281106112fc57604051602080825281906112f890820187614407565b0390f35b8061134c73ffffffffffffffffffffffffffffffffffffffff61132261135c9486614e35565b511673ffffffffffffffffffffffffffffffffffffffff166000526101fd60205260406000205490565b6113568287614e35565b52614dfb565b6112db565b3461053f5760207ffffffffffffffffffffffffffffffffffffffffffffffffffffffffffffffffc36011261053f576004356000526101c36020526020604060002054604051908152f35b3461053f576020807ffffffffffffffffffffffffffffffffffffffffffffffffffffffffffffffffc36011261053f5760043567ffffffffffffffff811161053f576113fc9036906004016143a9565b6114068151614dac565b60005b82518110156114955761141c8184614e35565b51806000526101fa855260ff604060002054161561146457508061144361145f9285614e35565b516000526101fb85526001604060002001546113568285614e35565b611409565b602490604051907f3374f12d0000000000000000000000000000000000000000000000000000000082526004820152fd5b50826112f8604051928284938452830190614407565b3461053f5760007ffffffffffffffffffffffffffffffffffffffffffffffffffffffffffffffffc36011261053f5760206040517f88f3509f0e42391f2d94ebfb2a37cbd0782b1b8f73715330017f4663290b81178152f35b3461053f5760407ffffffffffffffffffffffffffffffffffffffffffffffffffffffffffffffffc36011261053f5760043567ffffffffffffffff80821161053f573660238301121561053f57816004013590811161053f576024916005368484831b8401011161053f5783359160005b84811061157e57005b8581841b83010135806000526020906101fa825260ff60406000205416156115c1576115bc92916101fb916000525284600160406000200155614dfb565b611575565b8790604051907f3374f12d0000000000000000000000000000000000000000000000000000000082526004820152fd5b3461053f5760407ffffffffffffffffffffffffffffffffffffffffffffffffffffffffffffffffc36011261053f57611628614278565b602435801515810361053f5761039a9133614ff6565b3461053f5760007ffffffffffffffffffffffffffffffffffffffffffffffffffffffffffffffffc36011261053f57602060405160008152f35b3461053f5760207ffffffffffffffffffffffffffffffffffffffffffffffffffffffffffffffffc36011261053f576116af615a67565b506004356000526101fc6020526112f860406000206003604051916116d3836142df565b8054835273ffffffffffffffffffffffffffffffffffffffff600182015416602084015260028101546040840152015460608201526040519182918291909160608060808301948051845273ffffffffffffffffffffffffffffffffffffffff6020820151166020850152604081015160408501520151910152565b3461053f5760007ffffffffffffffffffffffffffffffffffffffffffffffffffffffffffffffffc36011261053f5760206101f754604051908152f35b3461053f5760407ffffffffffffffffffffffffffffffffffffffffffffffffffffffffffffffffc36011261053f576117c361429b565b600435600052606560205273ffffffffffffffffffffffffffffffffffffffff60406000209116600052602052602060ff604060002054166040519015158152f35b3461053f5760407ffffffffffffffffffffffffffffffffffffffffffffffffffffffffffffffffc36011261053f576004356000526097602052602073ffffffffffffffffffffffffffffffffffffffff61186660243560406000206157e9565b9190546040519260031b1c168152f35b3461053f5760207ffffffffffffffffffffffffffffffffffffffffffffffffffffffffffffffffc36011261053f5760206118da6118b2614278565b73ffffffffffffffffffffffffffffffffffffffff166000526101fd60205260406000205490565b604051908152f35b3461053f5760007ffffffffffffffffffffffffffffffffffffffffffffffffffffffffffffffffc36011261053f573360009081527fbfe93621c6aa2dbf737e9056c9b79e4d30ee4f6b28b18be2cb71aac8a7bf258e602052604090205460ff16156119a8576119506155e7565b61012d60017fffffffffffffffffffffffffffffffffffffffffffffffffffffffffffffff008254161790557f62e78cea01bee320cd4e420270b5ea74000d11b0c9f74754ebdbfc544b05a2586020604051338152a1005b60846040517f08c379a000000000000000000000000000000000000000000000000000000000815260206004820152603960248201527f455243313135355072657365744d696e7465725061757365723a206d7573742060448201527f686176652070617573657220726f6c6520746f207061757365000000000000006064820152fd5b3461053f5760007ffffffffffffffffffffffffffffffffffffffffffffffffffffffffffffffffc36011261053f5760005460ff90818160081c1615808091611f0a575b8015611ef4575b611a8090615460565b6001927fffffffffffffffffffffffffffffffffffffffffffffffffffffffffffffff0092828585831617600055611ec5575b5060405167ffffffffffffffff939060608101858111828210176104bd57604052602681526020947f68747470733a2f2f6e6f72692e636f6d2f6170692f72656d6f76616c2f7b6964868301527f7d2e6a736f6e0000000000000000000000000000000000000000000000000000604083015260005491848360081c161592838094611eba575b8015611ea5575b611b4a90615460565b838986831617600055611e76575b50611b6d8560005460081c166102e9816154eb565b80519182116104bd578190611b878261030660cb5461443b565b8790601f8311600114611dba57600092611daf575b50507fffffffffffffffffffffffffffffffffffffffffffffffffffffffffffffffff82891b9260031b1c19161760cb555b611bf08360005460081c16611be2816154eb565b61012d8481541690556154eb565b611bf933614644565b611c0233614713565b611c0b33614800565b611d59575b611c208260005460081c166154eb565b60006101f7556101f8611c33815461443b565b601f8111611d12575b50600e7f52656d6f76616c000000000000000000000000000000000000000000000000000190557f88f3509f0e42391f2d94ebfb2a37cbd0782b1b8f73715330017f4663290b811791826000526065855260406000203360005285526040600020541615611cc2575b5060005260978252611cbb336040600020615801565b5061039c57005b81600052606584526040600020336000528452846040600020918254161790553333827f2f8788117e7eff1d82e926ec794901d17c78024a50270940304540a733656f0d6000604051a484611ca5565b86601f7f8266c9cfd8dabe6f78455c38dd0de8582c4fa8f7b2e2a0cae9fbe2a3861fc0c6920160051c8201915b828110611d4d575050611c3c565b60008155018790611d3f565b7fffffffffffffffffffffffffffffffffffffffffffffffffffffffffffff00ff600054166000557f7f26b83ff96e1f2b6a682f133852f6798a09c465da95921460cefb384740249884604051878152a1611c10565b015190508880611b9c565b907fffffffffffffffffffffffffffffffffffffffffffffffffffffffffffffffe08a94169160cb6000527fa7ce836d032b2bf62b7e2097a8e0a6d8aeb35405ad15271e96d3b0188a1d06fb9260005b8b828210611e605750508411611e29575b505050811b0160cb55611bce565b01517fffffffffffffffffffffffffffffffffffffffffffffffffffffffffffffffff60f88460031b161c19169055888080611e1b565b8385015186558d97909501949384019301611e0a565b7fffffffffffffffffffffffffffffffffffffffffffffffffffffffffffff0000166101011760005588611b58565b50303b158015611b4157508086168914611b41565b508886821610611b3a565b7fffffffffffffffffffffffffffffffffffffffffffffffffffffffffffff0000166101011760005584611ab3565b50303b158015611a775750818316600114611a77565b50600183831610611a70565b3461053f5760207ffffffffffffffffffffffffffffffffffffffffffffffffffffffffffffffffc36011261053f576004356000526101f96020526020604060002054604051908152f35b3461053f5760807ffffffffffffffffffffffffffffffffffffffffffffffffffffffffffffffffc36011261053f57611f98614278565b5060643567ffffffffffffffff811161053f57611fb990369060040161456b565b5060646040517f08c379a000000000000000000000000000000000000000000000000000000000815260206004820152601f60248201527f52656d6f76616c3a204552432031313535206d696e742064697361626c6564006044820152fd5b3461053f5760607ffffffffffffffffffffffffffffffffffffffffffffffffffffffffffffffffc36011261053f5761204f614278565b67ffffffffffffffff60243581811161053f576120709036906004016143a9565b9060443590811161053f576120899036906004016143a9565b916120e6838373ffffffffffffffffffffffffffffffffffffffff84169333851480156121a3575b6120ba90614e49565b6120c585151561529b565b6120d282518451146153b0565b60006040516120e081614334565b52615c7c565b60005b825181101561215857806121006121539285614e35565b5161210b8287614e35565b51908060005260c960209080825260406000208760005282526040600020549261213785851015615326565b6000528152604060002090866000525203604060002055614dfb565b6120e9565b50907f4a39dc06d4c0dbc64b70af90fd698a233a518aa5d07e595d983b8c0526c8f7fb61218f60009460405191829133958361543b565b0390a460006040516121a081614334565b52005b508460005260ca6020526040600020336000526020526120ba60ff6040600020541690506120b1565b3461053f5760207ffffffffffffffffffffffffffffffffffffffffffffffffffffffffffffffffc36011261053f57612203614278565b61220b614882565b73ffffffffffffffffffffffffffffffffffffffff6101f691167fffffffffffffffffffffffff00000000000000000000000000000000000000008254161790556000604051f35b3461053f5760007ffffffffffffffffffffffffffffffffffffffffffffffffffffffffffffffffc36011261053f57602060ff61012d54166040519015158152f35b3461053f5760207ffffffffffffffffffffffffffffffffffffffffffffffffffffffffffffffffc36011261053f576004356000526101c360205260206040600020541515604051908152f35b3461053f5760407ffffffffffffffffffffffffffffffffffffffffffffffffffffffffffffffffc36011261053f5767ffffffffffffffff60043581811161053f57612332903690600401614589565b9060243590811161053f5761234b9036906004016143a9565b9080518251036123c05761235f8151614dac565b9160005b82518110156123aa578061134c73ffffffffffffffffffffffffffffffffffffffff6123926123a59487614e35565b511661239e8386614e35565b5190614cee565b612363565b604051602080825281906112f890820187614407565b60846040517f08c379a000000000000000000000000000000000000000000000000000000000815260206004820152602960248201527f455243313135353a206163636f756e747320616e6420696473206c656e67746860448201527f206d69736d6174636800000000000000000000000000000000000000000000006064820152fd5b3461053f57602090817ffffffffffffffffffffffffffffffffffffffffffffffffffffffffffffffffc36011261053f5767ffffffffffffffff60043581811161053f573660238201121561053f5780600401359282841161053f57602493848301818401368782011161053f578490039487861261053f5760ff95866124ca84615ed2565b166128ed5761010080940361286a57831361053f576040519283019081118382101761283c576040526124fc90615ed2565b815261250a60448401615ed2565b938682019285845261251e60648601615ed2565b906040840191825260848601359161ffff8316830361053f576060850192835261254a60a48801615ee0565b936080860194855261255e60c48901615ee0565b9660a0870197885261010461257560e48b016142be565b9960c089019a8b5201359a63ffffffff9a8b8d168d0361053f5783600f91878b019e8f5216116127df57600f8385511611612782578651838160f81c9160f01c168a51858160f81c9160f01c169160418410159384612776575b508361276a575b8361275e575b5082612752575b82612746575b508161273a575b8161272e575b50156126d1575079ffff00000000000000000000000000000000000000000000000095937fff0000000000000000000000000000000000000000000000000000000000000077ffffffffffffffffffffffffffffffffffffffff00000000999896947bffff00000000000000000000000000000000000000000000000000009460f07dffff00000000000000000000000000000000000000000000000000000000955160041b1691511617965160f81b169351901b1692518b1c169260f01b171717915160301c16179151851b161791511617604051908152f35b8c600d606492604051927f08c379a000000000000000000000000000000000000000000000000000000000845260048401528201527f496e76616c6964204153434949000000000000000000000000000000000000006044820152fd5b605a915011158e6125f6565b604181101591506125f0565b605a101591508f6125e9565b604181101592506125e3565b605a10159250386125dc565b604181101593506125d6565b605a10159350386125cf565b8c601d606492604051927f08c379a000000000000000000000000000000000000000000000000000000000845260048401528201527f4d6574686f6c6f646f67792076657273696f6e20746f6f206c617267650000006044820152fd5b8c6015606492604051927f08c379a000000000000000000000000000000000000000000000000000000000845260048401528201527f4d6574686f6c6f646f677920746f6f206c6172676500000000000000000000006044820152fd5b867f4e487b710000000000000000000000000000000000000000000000000000000060005260416004526000fd5b608489602a8a604051927f08c379a000000000000000000000000000000000000000000000000000000000845260048401528201527f72656d6f76616c4461746120636f6e7461696e732077726f6e67206e756d626560448201527f72206f66206279746573000000000000000000000000000000000000000000006064820152fd5b60848989604051917f08c379a00000000000000000000000000000000000000000000000000000000083526004830152808201527f556e737570706f727465642072656d6f76616c20746f6b656e2069642076657260448201527f73696f6e000000000000000000000000000000000000000000000000000000006064820152fd5b3461053f5760007ffffffffffffffffffffffffffffffffffffffffffffffffffffffffffffffffc36011261053f573360009081527fbfe93621c6aa2dbf737e9056c9b79e4d30ee4f6b28b18be2cb71aac8a7bf258e602052604090205460ff1615612a915761012d805460ff811615612a33577fffffffffffffffffffffffffffffffffffffffffffffffffffffffffffffff001690557f5db9ee0a495bf2e6ff9c91a7834c1ba4fdd244a5e8aa4e537bd38aeae4b073aa6020604051338152a1005b60646040517f08c379a000000000000000000000000000000000000000000000000000000000815260206004820152601460248201527f5061757361626c653a206e6f74207061757365640000000000000000000000006044820152fd5b60846040517f08c379a000000000000000000000000000000000000000000000000000000000815260206004820152603b60248201527f455243313135355072657365744d696e7465725061757365723a206d7573742060448201527f686176652070617573657220726f6c6520746f20756e706175736500000000006064820152fd5b3461053f5760607ffffffffffffffffffffffffffffffffffffffffffffffffffffffffffffffffc36011261053f57612b4c614278565b612b5461429b565b60443590811515820361053f5761039a92612b6d614882565b612b756155e7565b614ff6565b3461053f5760407ffffffffffffffffffffffffffffffffffffffffffffffffffffffffffffffffc36011261053f57612bb161429b565b3373ffffffffffffffffffffffffffffffffffffffff821603612bda5761039a90600435614c3b565b60846040517f08c379a000000000000000000000000000000000000000000000000000000000815260206004820152602f60248201527f416363657373436f6e74726f6c3a2063616e206f6e6c792072656e6f756e636560448201527f20726f6c657320666f722073656c6600000000000000000000000000000000006064820152fd5b3461053f5760407ffffffffffffffffffffffffffffffffffffffffffffffffffffffffffffffffc36011261053f5761039a6004356097612c9d61429b565b918060005260209060658252612cba600160406000200154614aff565b806000526065825273ffffffffffffffffffffffffffffffffffffffff604060002094169384600052825260ff6040600020541615612d02575b600052526040600020615801565b80600052606582526040600020846000528252604060002060017fffffffffffffffffffffffffffffffffffffffffffffffffffffffffffffff008254161790553384827f2f8788117e7eff1d82e926ec794901d17c78024a50270940304540a733656f0d6000604051a4612cf4565b3461053f5760a07ffffffffffffffffffffffffffffffffffffffffffffffffffffffffffffffffc36011261053f57612da9614278565b612db161429b565b9067ffffffffffffffff60443581811161053f57612dd39036906004016143a9565b9260643582811161053f57612dec9036906004016143a9565b9160843590811161053f57612e0590369060040161456b565b50612e0f84614e28565b516000526101fb6020526040600020549260405193602085015260208452612e3684614318565b73ffffffffffffffffffffffffffffffffffffffff903382821614801561308d575b612e6190614e49565b612e6e86518551146153b0565b612e7b8284161515614ed4565b600084516000905b808210613074575050828216613051575b8284166000526101fd602052612eb06040600020918254614fea565b905560ff61012d5416610e2b578181161561301b575b81831615612fb1575b60005b8651811015612f685780612ee9612f639289614e35565b51612ef48288614e35565b51908060005260c99081602052604060002087871660005260205282604060002054612f2282821015614f5f565b82600052836020526040600020898916600052602052036040600020556000526020526040600020858716600052602052610e136040600020918254614fea565b612ed2565b5061039a959291604051818416918316907f4a39dc06d4c0dbc64b70af90fd698a233a518aa5d07e595d983b8c0526c8f7fb339180612fa88a8a8361543b565b0390a433615a99565b93919060009593955b845181101561300f57612fcd8186614e35565b5190612fd98189614e35565b51826000526101c3602052604060002054818110610d3c5761300a936000526101c360205203604060002055614dfb565b612fba565b50909193949294612ecf565b93919060005b865181101561304857806130386130439287614e35565b51610df9828a614e35565b613021565b50909193612ec6565b8282166000526101fd602052604060002061306d8282546158c4565b9055612e94565b9091610eec61308791610ee5858a614e35565b90612e83565b5081811660005260ca602052604060002033600052602052612e6160ff604060002054169050612e58565b3461053f5760207ffffffffffffffffffffffffffffffffffffffffffffffffffffffffffffffffc36011261053f5760043560005260656020526020600160406000200154604051908152f35b3461053f5760807ffffffffffffffffffffffffffffffffffffffffffffffffffffffffffffffffc36011261053f5761313c614278565b67ffffffffffffffff9060243582811161053f5761315e9036906004016143a9565b60443583811161053f576131769036906004016143a9565b9060643584811161053f5761318f90369060040161456b565b82519384835103613d145760a08280518101031261053f576040519560a08701908111878210176104bd5760405260208201518087526040830151908160208901526060840151908160408a015260808501519773ffffffffffffffffffffffffffffffffffffffff8916890361053f578989606060809c015261321560a08801615a8c565b9a8b9101528115613ce357906101f754916000935b818510613bf25750506003925061324088614e28565b51916101f75560405193613253856142df565b84526020840173ffffffffffffffffffffffffffffffffffffffff8360201c1681526040850191600f8460f41c168352600f606087019460f01c1684526000526101fc60205260406000209451855573ffffffffffffffffffffffffffffffffffffffff600186019151167fffffffffffffffffffffffff0000000000000000000000000000000000000000825416179055516002840155519101557f9f2df0fed2c77648de5860a4cc508cd0818c85b8b8a1ab4ceeef8d981c8956a6600052606560205260406000203360005260205260ff6040600020541615613b6e5773ffffffffffffffffffffffffffffffffffffffff811615613aea5761335b84518451146153b0565b600083516000905b808210613ad157505073ffffffffffffffffffffffffffffffffffffffff82166000526101fd60205261339c6040600020918254614fea565b905560ff61012d5416610e2b5760005b84518110156133c85780610dee6133c39286614e35565b6133ac565b509091848660005b865181101561343257806133e761342d9286614e35565b516133f2828a614e35565b5160005260c9602052604060002073ffffffffffffffffffffffffffffffffffffffff8816600052602052610e136040600020918254614fea565b6133d0565b508594604051600073ffffffffffffffffffffffffffffffffffffffff8716917f4a39dc06d4c0dbc64b70af90fd698a233a518aa5d07e595d983b8c0526c8f7fb3391806134818a8d8361543b565b0390a4843b6138ce575b50613494614882565b61349c6155e7565b3373ffffffffffffffffffffffffffffffffffffffff85161461384a5773ffffffffffffffffffffffffffffffffffffffff841660005260ca602052604060002033600052602052604060002060017fffffffffffffffffffffffffffffffffffffffffffffffffffffffffffffff008254161790556040516001815233907f17307eab39ab6107e8899845ad3d59bd9653f200f220920489ca2b5937696c31602073ffffffffffffffffffffffffffffffffffffffff881692a361355d57005b61356684614e28565b516000526101fb602052604060002054926040519360208501526020845261358d84614318565b73ffffffffffffffffffffffffffffffffffffffff811660005260ca6020526040600020336000526020526135c960ff60406000205416614e49565b6135d685518451146153b0565b6135f773ffffffffffffffffffffffffffffffffffffffff83161515614ed4565b600083516000905b80821061383157505073ffffffffffffffffffffffffffffffffffffffff82166000526101fd60205260406000206136388282546158c4565b905573ffffffffffffffffffffffffffffffffffffffff83166000526101fd60205261366a6040600020918254614fea565b905560ff61012d5416610e2b5773ffffffffffffffffffffffffffffffffffffffff8216156137c9575b60005b855181101561376957806136ae6137649288614e35565b516136b98287614e35565b51908060005260c99081602052604060002073ffffffffffffffffffffffffffffffffffffffff8716600052602052826040600020546136fb82821015614f5f565b8260005283602052604060002073ffffffffffffffffffffffffffffffffffffffff891660005260205203604060002055600052602052604060002073ffffffffffffffffffffffffffffffffffffffff8616600052602052610e136040600020918254614fea565b613697565b5073ffffffffffffffffffffffffffffffffffffffff61039a959260405182821690838516907f4a39dc06d4c0dbc64b70af90fd698a233a518aa5d07e595d983b8c0526c8f7fb3391806137be8b8b8361543b565b0390a4169033615a99565b929060009492945b8351811015613826576137e48185614e35565b51906137f08188614e35565b51826000526101c3602052604060002054818110610d3c57613821936000526101c360205203604060002055614dfb565b6137d1565b509092939193613694565b9091610eec61384491610ee58589614e35565b906135ff565b60846040517f08c379a000000000000000000000000000000000000000000000000000000000815260206004820152602960248201527f455243313135353a2073657474696e6720617070726f76616c2073746174757360448201527f20666f722073656c6600000000000000000000000000000000000000000000006064820152fd5b602061398291604051809381927fbc197c810000000000000000000000000000000000000000000000000000000083523360048401526000602484015260a0604484015261395261392260a485018d614407565b7ffffffffffffffffffffffffffffffffffffffffffffffffffffffffffffffffc8582030160648601528a614407565b907ffffffffffffffffffffffffffffffffffffffffffffffffffffffffffffffffc8483030160848501526144c3565b0381600073ffffffffffffffffffffffffffffffffffffffff8a165af160009181613ab0575b506139e1575060016139b86150c5565b6308c379a0146139ce575b610b2b575b8561348b565b6139d66150e3565b80610bc357506139c3565b7fffffffff000000000000000000000000000000000000000000000000000000007fbc197c8100000000000000000000000000000000000000000000000000000000911603156139c8576040517f08c379a000000000000000000000000000000000000000000000000000000000815260206004820152602860248201527f455243313135353a204552433131353552656365697665722072656a6563746560448201527f6420746f6b656e730000000000000000000000000000000000000000000000006064820152608490fd5b613aca91925060203d602011610cd757610cc88183614350565b90876139a8565b9091610eec613ae491610ee58589614e35565b90613363565b60846040517f08c379a000000000000000000000000000000000000000000000000000000000815260206004820152602160248201527f455243313135353a206d696e7420746f20746865207a65726f2061646472657360448201527f73000000000000000000000000000000000000000000000000000000000000006064820152fd5b60846040517f08c379a000000000000000000000000000000000000000000000000000000000815260206004820152603860248201527f455243313135355072657365744d696e7465725061757365723a206d7573742060448201527f68617665206d696e74657220726f6c6520746f206d696e7400000000000000006064820152fd5b909192613bff858b614e35565b51806000526101fa60205260ff60406000205416613cb257806000526101fb602052846040600020556001908382604060002001556101fa6020526040600020827fffffffffffffffffffffffffffffffffffffffffffffffffffffffffffffff00825416179055826000526101f96020526040600020557ffffffffffffffffffffffffffffffffffffffffffffffffffffffffffffffffe821161086f57613ca9910194614dfb565b9392919061322a565b602490604051907f4acb9c290000000000000000000000000000000000000000000000000000000082526004820152fd5b602482604051907fc88f99b40000000000000000000000000000000000000000000000000000000082526004820152fd5b60c46040517f616c411300000000000000000000000000000000000000000000000000000000815260406004820152600760448201527f616d6f756e747300000000000000000000000000000000000000000000000000606482015260806024820152600360848201527f696473000000000000000000000000000000000000000000000000000000000060a4820152fd5b3461053f5760207ffffffffffffffffffffffffffffffffffffffffffffffffffffffffffffffffc36011261053f57613ddd615a67565b506004356000526101fb6020526040600020546000526101fc6020526112f860406000206003604051916116d3836142df565b3461053f576020807ffffffffffffffffffffffffffffffffffffffffffffffffffffffffffffffffc36011261053f576040519060008260cb5491613e548361443b565b92838352600190858282169182600014613ef0575050600114613e93575b50613e7f92500383614350565b6112f86040519282849384528301906144c3565b84915060cb6000527fa7ce836d032b2bf62b7e2097a8e0a6d8aeb35405ad15271e96d3b0188a1d06fb906000915b858310613ed8575050613e7f935082010185613e72565b80548389018501528794508693909201918101613ec1565b7fffffffffffffffffffffffffffffffffffffffffffffffffffffffffffffff001685820152613e7f95151560051b8501019250879150613e729050565b3461053f5760007ffffffffffffffffffffffffffffffffffffffffffffffffffffffffffffffffc36011261053f5760405160006101f88054613f708161443b565b8085529160019180831690811561400a5750600114613fae575b6112f885613f9a81870382614350565b6040519182916020835260208301906144c3565b600090815292507f8266c9cfd8dabe6f78455c38dd0de8582c4fa8f7b2e2a0cae9fbe2a3861fc0c65b828410613ff2575050508101602001613f9a826112f8613f8a565b80546020858701810191909152909301928101613fd7565b8695506112f896935060209250613f9a9491507fffffffffffffffffffffffffffffffffffffffffffffffffffffffffffffff001682840152151560051b8201019293613f8a565b3461053f5760207ffffffffffffffffffffffffffffffffffffffffffffffffffffffffffffffffc36011261053f576004357fffffffff00000000000000000000000000000000000000000000000000000000811680910361053f57807fd9b67a26000000000000000000000000000000000000000000000000000000006020921490811561417e575b81156140ee575b506040519015158152f35b7f5a05180f00000000000000000000000000000000000000000000000000000000811491508115614121575b50826140e3565b7f7965db0b00000000000000000000000000000000000000000000000000000000811491508115614154575b508261411a565b7f01ffc9a7000000000000000000000000000000000000000000000000000000009150148261414d565b7f0e89341c00000000000000000000000000000000000000000000000000000000811491506140dc565b3461053f5760407ffffffffffffffffffffffffffffffffffffffffffffffffffffffffffffffffc36011261053f576141df614278565b60243567ffffffffffffffff811161053f576141ff9036906004016143a9565b6142098151614dac565b9160005b82518110156123aa578061134c61422761422e9386614e35565b5184614cee565b61420d565b3461053f5760407ffffffffffffffffffffffffffffffffffffffffffffffffffffffffffffffffc36011261053f5760206118da61426f614278565b60243590614cee565b6004359073ffffffffffffffffffffffffffffffffffffffff8216820361053f57565b6024359073ffffffffffffffffffffffffffffffffffffffff8216820361053f57565b359073ffffffffffffffffffffffffffffffffffffffff8216820361053f57565b6080810190811067ffffffffffffffff8211176104bd57604052565b610100810190811067ffffffffffffffff8211176104bd57604052565b6040810190811067ffffffffffffffff8211176104bd57604052565b6020810190811067ffffffffffffffff8211176104bd57604052565b90601f7fffffffffffffffffffffffffffffffffffffffffffffffffffffffffffffffe0910116810190811067ffffffffffffffff8211176104bd57604052565b67ffffffffffffffff81116104bd5760051b60200190565b81601f8201121561053f578035916143c083614391565b926143ce6040519485614350565b808452602092838086019260051b82010192831161053f578301905b8282106143f8575050505090565b813581529083019083016143ea565b90815180825260208080930193019160005b828110614427575050505090565b835185529381019392810192600101614419565b90600182811c92168015614484575b602083101461445557565b7f4e487b7100000000000000000000000000000000000000000000000000000000600052602260045260246000fd5b91607f169161444a565b918091926000905b8282106144ae5750116144a7575050565b6000910152565b91508060209183015181860152018291614496565b907fffffffffffffffffffffffffffffffffffffffffffffffffffffffffffffffe0601f6020936144ff8151809281875287808801910161448e565b0116010190565b92919267ffffffffffffffff82116104bd576040519161454e60207fffffffffffffffffffffffffffffffffffffffffffffffffffffffffffffffe0601f8401160184614350565b82948184528183011161053f578281602093846000960137010152565b9080601f8301121561053f5781602061458693359101614506565b90565b81601f8201121561053f578035916145a083614391565b926145ae6040519485614350565b808452602092838086019260051b82010192831161053f578301905b8282106145d8575050505090565b8380916145e4846142be565b8152019101906145ca565b7ffffffffffffffffffffffffffffffffffffffffffffffffffffffffffffffffc606091011261053f5760043573ffffffffffffffffffffffffffffffffffffffff8116810361053f57906024359060443590565b73ffffffffffffffffffffffffffffffffffffffff1660008181527fffdfc1249c027f9191656349feb0761381bb32c9f557e01f419fd08754bf5a1b6020526040808220546146a693929060ff16156146a9575b808052609760205220615801565b50565b808052606560205281812083825260205281812060017fffffffffffffffffffffffffffffffffffffffffffffffffffffffffffffff008254161790553383827f2f8788117e7eff1d82e926ec794901d17c78024a50270940304540a733656f0d818651a4614698565b73ffffffffffffffffffffffffffffffffffffffff1660008181527fa0f6cebec7fb889cc5ac88647269c4c0108fb926abd2111b551f234b348876df6020526040808220546146a69392907f9f2df0fed2c77648de5860a4cc508cd0818c85b8b8a1ab4ceeef8d981c8956a69060ff1615614796575b8152609760205220615801565b808252606560205282822084835260205282822060017fffffffffffffffffffffffffffffffffffffffffffffffffffffffffffffff008254161790553384827f2f8788117e7eff1d82e926ec794901d17c78024a50270940304540a733656f0d858751a4614789565b73ffffffffffffffffffffffffffffffffffffffff1660008181527fbfe93621c6aa2dbf737e9056c9b79e4d30ee4f6b28b18be2cb71aac8a7bf258e6020526040808220546146a69392907f65d7a28e3265b37a6474929f336521b332c1681b933f6cb9f3376673440d862a9060ff1615614796578152609760205220615801565b3360009081527fffdfc1249c027f9191656349feb0761381bb32c9f557e01f419fd08754bf5a1b602090815260408083205490929060ff16156148c457505050565b6148cd33615663565b90808451906148db826142df565b60428252848201926060368537825115614ad25760308453825190600191821015614ad25790607860218501536041915b818311614a07575050506149ab57604861079f9386936149759361496698519889937f416363657373436f6e74726f6c3a206163636f756e74200000000000000000008a860152610720815180928c60378901910161448e565b01036028810187520185614350565b519283927f08c379a0000000000000000000000000000000000000000000000000000000008452600484015260248301906144c3565b6064848651907f08c379a000000000000000000000000000000000000000000000000000000000825280600483015260248201527f537472696e67733a20686578206c656e67746820696e73756666696369656e746044820152fd5b909192600f81166010811015614aa5577f3031323334353637383961626364656600000000000000000000000000000000901a614a448587615652565b5360041c928015614a78577fffffffffffffffffffffffffffffffffffffffffffffffffffffffffffffffff01919061490c565b6024827f4e487b710000000000000000000000000000000000000000000000000000000081526011600452fd5b6024837f4e487b710000000000000000000000000000000000000000000000000000000081526032600452fd5b807f4e487b7100000000000000000000000000000000000000000000000000000000602492526032600452fd5b60009080825260209060658252604092838120338252835260ff848220541615614b295750505050565b614b3233615663565b91845190614b3f826142df565b60428252848201926060368537825115614ad25760308453825190600191821015614ad25790607860218501536041915b818311614bca575050506149ab57604861079f9386936149759361496698519889937f416363657373436f6e74726f6c3a206163636f756e74200000000000000000008a860152610720815180928c60378901910161448e565b909192600f81166010811015614aa5577f3031323334353637383961626364656600000000000000000000000000000000901a614c078587615652565b5360041c928015614a78577fffffffffffffffffffffffffffffffffffffffffffffffffffffffffffffffff019190614b70565b906146a6916000818152606560205260409173ffffffffffffffffffffffffffffffffffffffff83832094169384835260205260ff8383205416614c87575b81526097602052206158cf565b80825260656020528282208483526020528282207fffffffffffffffffffffffffffffffffffffffffffffffffffffffffffffff0081541690553384827ff6391f5c32d9c69d2a47ea670b442974b53935d1edc7fd64eb21e047a839171b858751a4614c7a565b73ffffffffffffffffffffffffffffffffffffffff16908115614d285760005260c960205260406000209060005260205260406000205490565b60846040517f08c379a000000000000000000000000000000000000000000000000000000000815260206004820152602a60248201527f455243313135353a2061646472657373207a65726f206973206e6f742061207660448201527f616c6964206f776e6572000000000000000000000000000000000000000000006064820152fd5b90614db682614391565b614dc36040519182614350565b8281527fffffffffffffffffffffffffffffffffffffffffffffffffffffffffffffffe0614df18294614391565b0190602036910137565b7fffffffffffffffffffffffffffffffffffffffffffffffffffffffffffffffff811461086f5760010190565b80511561089e5760200190565b805182101561089e5760209160051b010190565b15614e5057565b60846040517f08c379a000000000000000000000000000000000000000000000000000000000815260206004820152602f60248201527f455243313135353a2063616c6c6572206973206e6f7420746f6b656e206f776e60448201527f6572206e6f7220617070726f76656400000000000000000000000000000000006064820152fd5b15614edb57565b60846040517f08c379a000000000000000000000000000000000000000000000000000000000815260206004820152602560248201527f455243313135353a207472616e7366657220746f20746865207a65726f20616460448201527f64726573730000000000000000000000000000000000000000000000000000006064820152fd5b15614f6657565b60846040517f08c379a000000000000000000000000000000000000000000000000000000000815260206004820152602a60248201527f455243313135353a20696e73756666696369656e742062616c616e636520666f60448201527f72207472616e73666572000000000000000000000000000000000000000000006064820152fd5b8119811161086f570190565b73ffffffffffffffffffffffffffffffffffffffff9182169291169081831461384a5760207f17307eab39ab6107e8899845ad3d59bd9653f200f220920489ca2b5937696c31918360005260ca825260406000208560005282526040600020901515907fffffffffffffffffffffffffffffffffffffffffffffffffffffffffffffff0081541660ff8316179055604051908152a3565b9081602091031261053f57517fffffffff000000000000000000000000000000000000000000000000000000008116810361053f5790565b60009060033d116150d257565b905060046000803e60005160e01c90565b600060443d10614586576040517ffffffffffffffffffffffffffffffffffffffffffffffffffffffffffffffffc91823d016004833e815167ffffffffffffffff918282113d60248401111761515f57818401948551938411615167573d8501016020848701011161515f575061458692910160200190614350565b949350505050565b50949350505050565b6040519061517d82614318565b6001825260208201602036823782511561089e575290565b919073ffffffffffffffffffffffffffffffffffffffff83163381148015615272575b6151c190614e49565b6151cc81151561529b565b6151d582615170565b916151df84615170565b936151fe6040958651956151f287614334565b60009889809852615c7c565b81845260c9602052848420838552602052808585205461522082821015615326565b83865260c96020528686208587526020520385852055845191825260208201527fc3d58168c5ae7397731d063d5bbf3d657854427343f4c083240f7aacaa2d0f62843392a45161526f81614334565b52565b508060005260ca6020526040600020336000526020526151c160ff6040600020541690506151b8565b156152a257565b60846040517f08c379a000000000000000000000000000000000000000000000000000000000815260206004820152602360248201527f455243313135353a206275726e2066726f6d20746865207a65726f206164647260448201527f65737300000000000000000000000000000000000000000000000000000000006064820152fd5b1561532d57565b60846040517f08c379a0000000000000000000000000000000000000000000000000000000008152602060048201526024808201527f455243313135353a206275726e20616d6f756e7420657863656564732062616c60448201527f616e6365000000000000000000000000000000000000000000000000000000006064820152fd5b156153b757565b60846040517f08c379a000000000000000000000000000000000000000000000000000000000815260206004820152602860248201527f455243313135353a2069647320616e6420616d6f756e7473206c656e6774682060448201527f6d69736d617463680000000000000000000000000000000000000000000000006064820152fd5b909161545261458693604084526040840190614407565b916020818403910152614407565b1561546757565b60846040517f08c379a000000000000000000000000000000000000000000000000000000000815260206004820152602e60248201527f496e697469616c697a61626c653a20636f6e747261637420697320616c72656160448201527f647920696e697469616c697a65640000000000000000000000000000000000006064820152fd5b156154f257565b60846040517f08c379a000000000000000000000000000000000000000000000000000000000815260206004820152602b60248201527f496e697469616c697a61626c653a20636f6e7472616374206973206e6f74206960448201527f6e697469616c697a696e670000000000000000000000000000000000000000006064820152fd5b601f8111615582575050565b60009060cb82527fa7ce836d032b2bf62b7e2097a8e0a6d8aeb35405ad15271e96d3b0188a1d06fb906020601f850160051c830194106155dd575b601f0160051c01915b8281106155d257505050565b8181556001016155c6565b90925082906155bd565b60ff61012d54166155f457565b60646040517f08c379a000000000000000000000000000000000000000000000000000000000815260206004820152601060248201527f5061757361626c653a20706175736564000000000000000000000000000000006044820152fd5b90815181101561089e570160200190565b604051906060820182811067ffffffffffffffff8211176104bd57604052602a825260208201604036823782511561089e5760309053815160019081101561089e57607860218401536029905b80821161571e5750506156c05790565b60646040517f08c379a000000000000000000000000000000000000000000000000000000000815260206004820152602060248201527f537472696e67733a20686578206c656e67746820696e73756666696369656e746044820152fd5b9091600f811660108110156157bb577f3031323334353637383961626364656600000000000000000000000000000000901a61575a8486615652565b5360041c91801561578d577fffffffffffffffffffffffffffffffffffffffffffffffffffffffffffffffff01906156b0565b602460007f4e487b710000000000000000000000000000000000000000000000000000000081526011600452fd5b602460007f4e487b710000000000000000000000000000000000000000000000000000000081526032600452fd5b805482101561089e5760005260206000200190600090565b919060018301600090828252806020526040822054156000146158be5784549468010000000000000000861015615891578361588161584a886001604098999a018555846157e9565b819391549060031b7fffffffffffffffffffffffffffffffffffffffffffffffffffffffffffffffff811b9283911b169119161790565b9055549382526020522055600190565b6024837f4e487b710000000000000000000000000000000000000000000000000000000081526041600452fd5b50925050565b81811061086f570390565b90600182019060009281845282602052604084205490811515600014615a2257600182106159f5577fffffffffffffffffffffffffffffffffffffffffffffffffffffffffffffffff918281018254600181106159c857840190808203615993575b505050805480156159665782019161594983836157e9565b909182549160031b1b191690555582526020526040812055600190565b6024867f4e487b710000000000000000000000000000000000000000000000000000000081526031600452fd5b6159b36159a361584a93866157e9565b90549060031b1c928392866157e9565b90558652846020526040862055388080615931565b6024887f4e487b710000000000000000000000000000000000000000000000000000000081526011600452fd5b6024857f4e487b710000000000000000000000000000000000000000000000000000000081526011600452fd5b5050505090565b60405190615a36826142fb565b8160e06000918281528260208201528260408201528260608201528260808201528260a08201528260c08201520152565b60405190615a74826142df565b60006060838281528260208201528260408201520152565b5190811515820361053f57565b949392919091813b615aae575b505050505050565b6000615b5493615b2392615b63602097604051998a98899788957fbc197c81000000000000000000000000000000000000000000000000000000009e8f885273ffffffffffffffffffffffffffffffffffffffff988980921660048a015216602488015260a0604488015260a4870190614407565b7ffffffffffffffffffffffffffffffffffffffffffffffffffffffffffffffffc9384878303016064880152614407565b918483030160848501526144c3565b0393165af160009181615c5c575b50615bb05750506001615b826150c5565b6308c379a014615b9d575b610b2b575b388080808080615aa6565b615ba56150e3565b80610bc35750615b8d565b7fffffffff000000000000000000000000000000000000000000000000000000001614615b92576040517f08c379a000000000000000000000000000000000000000000000000000000000815260206004820152602860248201527f455243313135353a204552433131353552656365697665722072656a6563746560448201527f6420746f6b656e730000000000000000000000000000000000000000000000006064820152608490fd5b615c7591925060203d8111610cd757610cc88183614350565b9038615b71565b90929192600091845183905b808210615eb357505073ffffffffffffffffffffffffffffffffffffffff16908115918215615e92575b50600080526020916101fd8352604093615cd185600020918254614fea565b905560ff61012d5416615e0f57615dc5575b60005b8151811015615dbd57615cf98183614e35565b51615d048288614e35565b5190806000526101c3808652866000205491838310615d3a5790615d35949392916000528652038560002055614dfb565b615ce6565b6084878951907f08c379a00000000000000000000000000000000000000000000000000000000082526004820152602860248201527f455243313135353a206275726e20616d6f756e74206578636565647320746f7460448201527f616c537570706c790000000000000000000000000000000000000000000000006064820152fd5b505050509050565b9360005b8551811015615e085780615de0615e039284614e35565b51615deb8289614e35565b516000526101c38552610e1386600020918254614fea565b615dc9565b5093615ce3565b6084838551907f08c379a00000000000000000000000000000000000000000000000000000000082526004820152602c60248201527f455243313135355061757361626c653a20746f6b656e207472616e736665722060448201527f7768696c652070617573656400000000000000000000000000000000000000006064820152fd5b6000526101fd6020526040600020615eab8482546158c4565b905538615cb2565b9093615ec6615ecc91610ee5878a614e35565b94614dfb565b90615c88565b359060ff8216820361053f57565b35907fffff0000000000000000000000000000000000000000000000000000000000008216820361053f5756fea2646970667358221220b6759fa9519796efdb165d4b224173611b84deb0e3c22bee6b78f200e49e166764736f6c634300080f0033",
  "linkReferences": {},
  "deployedLinkReferences": {}
}