{
  "_format": "hh-sol-artifact-1",
  "contractName": "Removal",
  "sourceName": "contracts/Removal.sol",
  "abi": [
    {
      "inputs": [
        {
          "internalType": "uint256",
          "name": "tokenId",
          "type": "uint256"
        }
      ],
      "name": "TokenIdExists",
      "type": "error"
    },
    {
      "anonymous": false,
      "inputs": [
        {
          "indexed": true,
          "internalType": "address",
          "name": "account",
          "type": "address"
        },
        {
          "indexed": true,
          "internalType": "address",
          "name": "operator",
          "type": "address"
        },
        {
          "indexed": false,
          "internalType": "bool",
          "name": "approved",
          "type": "bool"
        }
      ],
      "name": "ApprovalForAll",
      "type": "event"
    },
    {
      "anonymous": false,
      "inputs": [
        {
          "indexed": false,
          "internalType": "address",
          "name": "account",
          "type": "address"
        }
      ],
      "name": "Paused",
      "type": "event"
    },
    {
      "anonymous": false,
      "inputs": [
        {
          "indexed": true,
          "internalType": "bytes32",
          "name": "role",
          "type": "bytes32"
        },
        {
          "indexed": true,
          "internalType": "bytes32",
          "name": "previousAdminRole",
          "type": "bytes32"
        },
        {
          "indexed": true,
          "internalType": "bytes32",
          "name": "newAdminRole",
          "type": "bytes32"
        }
      ],
      "name": "RoleAdminChanged",
      "type": "event"
    },
    {
      "anonymous": false,
      "inputs": [
        {
          "indexed": true,
          "internalType": "bytes32",
          "name": "role",
          "type": "bytes32"
        },
        {
          "indexed": true,
          "internalType": "address",
          "name": "account",
          "type": "address"
        },
        {
          "indexed": true,
          "internalType": "address",
          "name": "sender",
          "type": "address"
        }
      ],
      "name": "RoleGranted",
      "type": "event"
    },
    {
      "anonymous": false,
      "inputs": [
        {
          "indexed": true,
          "internalType": "bytes32",
          "name": "role",
          "type": "bytes32"
        },
        {
          "indexed": true,
          "internalType": "address",
          "name": "account",
          "type": "address"
        },
        {
          "indexed": true,
          "internalType": "address",
          "name": "sender",
          "type": "address"
        }
      ],
      "name": "RoleRevoked",
      "type": "event"
    },
    {
      "anonymous": false,
      "inputs": [
        {
          "indexed": true,
          "internalType": "address",
          "name": "operator",
          "type": "address"
        },
        {
          "indexed": true,
          "internalType": "address",
          "name": "from",
          "type": "address"
        },
        {
          "indexed": true,
          "internalType": "address",
          "name": "to",
          "type": "address"
        },
        {
          "indexed": false,
          "internalType": "uint256[]",
          "name": "ids",
          "type": "uint256[]"
        },
        {
          "indexed": false,
          "internalType": "uint256[]",
          "name": "values",
          "type": "uint256[]"
        }
      ],
      "name": "TransferBatch",
      "type": "event"
    },
    {
      "anonymous": false,
      "inputs": [
        {
          "indexed": true,
          "internalType": "address",
          "name": "operator",
          "type": "address"
        },
        {
          "indexed": true,
          "internalType": "address",
          "name": "from",
          "type": "address"
        },
        {
          "indexed": true,
          "internalType": "address",
          "name": "to",
          "type": "address"
        },
        {
          "indexed": false,
          "internalType": "uint256",
          "name": "id",
          "type": "uint256"
        },
        {
          "indexed": false,
          "internalType": "uint256",
          "name": "value",
          "type": "uint256"
        }
      ],
      "name": "TransferSingle",
      "type": "event"
    },
    {
      "anonymous": false,
      "inputs": [
        {
          "indexed": false,
          "internalType": "string",
          "name": "value",
          "type": "string"
        },
        {
          "indexed": true,
          "internalType": "uint256",
          "name": "id",
          "type": "uint256"
        }
      ],
      "name": "URI",
      "type": "event"
    },
    {
      "anonymous": false,
      "inputs": [
        {
          "indexed": false,
          "internalType": "address",
          "name": "account",
          "type": "address"
        }
      ],
      "name": "Unpaused",
      "type": "event"
    },
    {
      "inputs": [],
      "name": "DEFAULT_ADMIN_ROLE",
      "outputs": [
        {
          "internalType": "bytes32",
          "name": "",
          "type": "bytes32"
        }
      ],
      "stateMutability": "view",
      "type": "function"
    },
    {
      "inputs": [],
      "name": "MINTER_ROLE",
      "outputs": [
        {
          "internalType": "bytes32",
          "name": "",
          "type": "bytes32"
        }
      ],
      "stateMutability": "view",
      "type": "function"
    },
    {
      "inputs": [],
      "name": "PAUSER_ROLE",
      "outputs": [
        {
          "internalType": "bytes32",
          "name": "",
          "type": "bytes32"
        }
      ],
      "stateMutability": "view",
      "type": "function"
    },
    {
      "inputs": [
        {
          "internalType": "address",
          "name": "account",
          "type": "address"
        },
        {
          "internalType": "uint256",
          "name": "id",
          "type": "uint256"
        }
      ],
      "name": "balanceOf",
      "outputs": [
        {
          "internalType": "uint256",
          "name": "",
          "type": "uint256"
        }
      ],
      "stateMutability": "view",
      "type": "function"
    },
    {
      "inputs": [
        {
          "internalType": "address[]",
          "name": "accounts",
          "type": "address[]"
        },
        {
          "internalType": "uint256[]",
          "name": "ids",
          "type": "uint256[]"
        }
      ],
      "name": "balanceOfBatch",
      "outputs": [
        {
          "internalType": "uint256[]",
          "name": "",
          "type": "uint256[]"
        }
      ],
      "stateMutability": "view",
      "type": "function"
    },
    {
      "inputs": [
        {
          "internalType": "address",
          "name": "account",
          "type": "address"
        },
        {
          "internalType": "uint256",
          "name": "id",
          "type": "uint256"
        },
        {
          "internalType": "uint256",
          "name": "value",
          "type": "uint256"
        }
      ],
      "name": "burn",
      "outputs": [],
      "stateMutability": "nonpayable",
      "type": "function"
    },
    {
      "inputs": [
        {
          "internalType": "address",
          "name": "account",
          "type": "address"
        },
        {
          "internalType": "uint256[]",
          "name": "ids",
          "type": "uint256[]"
        },
        {
          "internalType": "uint256[]",
          "name": "values",
          "type": "uint256[]"
        }
      ],
      "name": "burnBatch",
      "outputs": [],
      "stateMutability": "nonpayable",
      "type": "function"
    },
    {
      "inputs": [
        {
          "internalType": "bytes",
          "name": "removalData",
          "type": "bytes"
        }
      ],
      "name": "createRemovalId",
      "outputs": [
        {
          "internalType": "uint256",
          "name": "",
          "type": "uint256"
        }
      ],
      "stateMutability": "pure",
      "type": "function"
    },
    {
      "inputs": [
        {
          "internalType": "uint256",
          "name": "id",
          "type": "uint256"
        }
      ],
      "name": "exists",
      "outputs": [
        {
          "internalType": "bool",
          "name": "",
          "type": "bool"
        }
      ],
      "stateMutability": "view",
      "type": "function"
    },
    {
      "inputs": [
        {
          "internalType": "uint256",
          "name": "removalId",
          "type": "uint256"
        }
      ],
      "name": "getEscrowScheduleIdForRemoval",
      "outputs": [
        {
          "internalType": "uint256",
          "name": "",
          "type": "uint256"
        }
      ],
      "stateMutability": "view",
      "type": "function"
    },
    {
      "inputs": [
        {
          "internalType": "bytes32",
          "name": "role",
          "type": "bytes32"
        }
      ],
      "name": "getRoleAdmin",
      "outputs": [
        {
          "internalType": "bytes32",
          "name": "",
          "type": "bytes32"
        }
      ],
      "stateMutability": "view",
      "type": "function"
    },
    {
      "inputs": [
        {
          "internalType": "bytes32",
          "name": "role",
          "type": "bytes32"
        },
        {
          "internalType": "uint256",
          "name": "index",
          "type": "uint256"
        }
      ],
      "name": "getRoleMember",
      "outputs": [
        {
          "internalType": "address",
          "name": "",
          "type": "address"
        }
      ],
      "stateMutability": "view",
      "type": "function"
    },
    {
      "inputs": [
        {
          "internalType": "bytes32",
          "name": "role",
          "type": "bytes32"
        }
      ],
      "name": "getRoleMemberCount",
      "outputs": [
        {
          "internalType": "uint256",
          "name": "",
          "type": "uint256"
        }
      ],
      "stateMutability": "view",
      "type": "function"
    },
    {
      "inputs": [
        {
          "internalType": "bytes32",
          "name": "role",
          "type": "bytes32"
        },
        {
          "internalType": "address",
          "name": "account",
          "type": "address"
        }
      ],
      "name": "grantRole",
      "outputs": [],
      "stateMutability": "nonpayable",
      "type": "function"
    },
    {
      "inputs": [
        {
          "internalType": "bytes32",
          "name": "role",
          "type": "bytes32"
        },
        {
          "internalType": "address",
          "name": "account",
          "type": "address"
        }
      ],
      "name": "hasRole",
      "outputs": [
        {
          "internalType": "bool",
          "name": "",
          "type": "bool"
        }
      ],
      "stateMutability": "view",
      "type": "function"
    },
    {
      "inputs": [
        {
          "internalType": "uint256",
          "name": "",
          "type": "uint256"
        }
      ],
      "name": "indexToTokenId",
      "outputs": [
        {
          "internalType": "uint256",
          "name": "",
          "type": "uint256"
        }
      ],
      "stateMutability": "view",
      "type": "function"
    },
    {
      "inputs": [],
      "name": "initialize",
      "outputs": [],
      "stateMutability": "nonpayable",
      "type": "function"
    },
    {
      "inputs": [
        {
          "internalType": "string",
          "name": "uri",
          "type": "string"
        }
      ],
      "name": "initialize",
      "outputs": [],
      "stateMutability": "nonpayable",
      "type": "function"
    },
    {
      "inputs": [
        {
          "internalType": "address",
          "name": "escrowedNORIAddress",
          "type": "address"
        }
      ],
      "name": "initializeEscrowedNORI",
      "outputs": [],
      "stateMutability": "nonpayable",
      "type": "function"
    },
    {
      "inputs": [
        {
          "internalType": "address",
          "name": "account",
          "type": "address"
        },
        {
          "internalType": "address",
          "name": "operator",
          "type": "address"
        }
      ],
      "name": "isApprovedForAll",
      "outputs": [
        {
          "internalType": "bool",
          "name": "",
          "type": "bool"
        }
      ],
      "stateMutability": "view",
      "type": "function"
    },
    {
      "inputs": [
        {
          "internalType": "address",
          "name": "",
          "type": "address"
        },
        {
          "internalType": "uint256",
          "name": "",
          "type": "uint256"
        },
        {
          "internalType": "uint256",
          "name": "",
          "type": "uint256"
        },
        {
          "internalType": "bytes",
          "name": "",
          "type": "bytes"
        }
      ],
      "name": "mint",
      "outputs": [],
      "stateMutability": "pure",
      "type": "function"
    },
    {
      "inputs": [
        {
          "internalType": "address",
          "name": "",
          "type": "address"
        },
        {
          "internalType": "uint256[]",
          "name": "",
          "type": "uint256[]"
        },
        {
          "internalType": "uint256[]",
          "name": "",
          "type": "uint256[]"
        },
        {
          "internalType": "bytes",
          "name": "",
          "type": "bytes"
        }
      ],
      "name": "mintBatch",
      "outputs": [],
      "stateMutability": "pure",
      "type": "function"
    },
    {
      "inputs": [
        {
          "internalType": "address",
          "name": "to",
          "type": "address"
        },
        {
          "internalType": "uint256[]",
          "name": "amounts",
          "type": "uint256[]"
        },
        {
          "internalType": "uint256[]",
          "name": "ids",
          "type": "uint256[]"
        },
        {
          "internalType": "uint256[]",
          "name": "escrowScheduleStartTimes",
          "type": "uint256[]"
        },
        {
          "internalType": "bytes",
          "name": "data",
          "type": "bytes"
        }
      ],
      "name": "mintRemovalBatch",
      "outputs": [],
      "stateMutability": "nonpayable",
      "type": "function"
    },
    {
      "inputs": [],
      "name": "name",
      "outputs": [
        {
          "internalType": "string",
          "name": "",
          "type": "string"
        }
      ],
      "stateMutability": "view",
      "type": "function"
    },
    {
      "inputs": [],
      "name": "pause",
      "outputs": [],
      "stateMutability": "nonpayable",
      "type": "function"
    },
    {
      "inputs": [],
      "name": "paused",
      "outputs": [
        {
          "internalType": "bool",
          "name": "",
          "type": "bool"
        }
      ],
      "stateMutability": "view",
      "type": "function"
    },
    {
      "inputs": [
        {
          "internalType": "bytes32",
          "name": "role",
          "type": "bytes32"
        },
        {
          "internalType": "address",
          "name": "account",
          "type": "address"
        }
      ],
      "name": "renounceRole",
      "outputs": [],
      "stateMutability": "nonpayable",
      "type": "function"
    },
    {
      "inputs": [
        {
          "internalType": "bytes32",
          "name": "role",
          "type": "bytes32"
        },
        {
          "internalType": "address",
          "name": "account",
          "type": "address"
        }
      ],
      "name": "revokeRole",
      "outputs": [],
      "stateMutability": "nonpayable",
      "type": "function"
    },
    {
      "inputs": [
        {
          "internalType": "address",
          "name": "_from",
          "type": "address"
        },
        {
          "internalType": "address",
          "name": "_to",
          "type": "address"
        },
        {
          "internalType": "uint256[]",
          "name": "_ids",
          "type": "uint256[]"
        },
        {
          "internalType": "uint256[]",
          "name": "_amounts",
          "type": "uint256[]"
        },
        {
          "internalType": "bytes",
          "name": "_data",
          "type": "bytes"
        }
      ],
      "name": "safeBatchTransferFrom",
      "outputs": [],
      "stateMutability": "nonpayable",
      "type": "function"
    },
    {
      "inputs": [
        {
          "internalType": "address",
          "name": "from",
          "type": "address"
        },
        {
          "internalType": "address",
          "name": "to",
          "type": "address"
        },
        {
          "internalType": "uint256",
          "name": "id",
          "type": "uint256"
        },
        {
          "internalType": "uint256",
          "name": "amount",
          "type": "uint256"
        },
        {
          "internalType": "bytes",
          "name": "data",
          "type": "bytes"
        }
      ],
      "name": "safeTransferFrom",
      "outputs": [],
      "stateMutability": "nonpayable",
      "type": "function"
    },
    {
      "inputs": [
        {
          "internalType": "address",
          "name": "owner",
          "type": "address"
        },
        {
          "internalType": "address",
          "name": "operator",
          "type": "address"
        },
        {
          "internalType": "bool",
          "name": "approved",
          "type": "bool"
        }
      ],
      "name": "setApprovalForAll",
      "outputs": [],
      "stateMutability": "nonpayable",
      "type": "function"
    },
    {
      "inputs": [
        {
          "internalType": "address",
          "name": "operator",
          "type": "address"
        },
        {
          "internalType": "bool",
          "name": "approved",
          "type": "bool"
        }
      ],
      "name": "setApprovalForAll",
      "outputs": [],
      "stateMutability": "nonpayable",
      "type": "function"
    },
    {
      "inputs": [
        {
          "internalType": "bytes4",
          "name": "interfaceId",
          "type": "bytes4"
        }
      ],
      "name": "supportsInterface",
      "outputs": [
        {
          "internalType": "bool",
          "name": "",
          "type": "bool"
        }
      ],
      "stateMutability": "view",
      "type": "function"
    },
    {
      "inputs": [],
      "name": "tokenIdCounter",
      "outputs": [
        {
          "internalType": "uint256",
          "name": "",
          "type": "uint256"
        }
      ],
      "stateMutability": "view",
      "type": "function"
    },
    {
      "inputs": [
        {
          "internalType": "uint256",
          "name": "id",
          "type": "uint256"
        }
      ],
      "name": "totalSupply",
      "outputs": [
        {
          "internalType": "uint256",
          "name": "",
          "type": "uint256"
        }
      ],
      "stateMutability": "view",
      "type": "function"
    },
    {
      "inputs": [
        {
          "internalType": "uint256",
          "name": "removalId",
          "type": "uint256"
        }
      ],
      "name": "unpackRemovalIdV0",
      "outputs": [
        {
          "components": [
            {
              "internalType": "uint8",
              "name": "idVersion",
              "type": "uint8"
            },
            {
              "internalType": "uint8",
              "name": "methodology",
              "type": "uint8"
            },
            {
              "internalType": "uint8",
              "name": "methodologyVersion",
              "type": "uint8"
            },
            {
              "internalType": "uint16",
              "name": "vintage",
              "type": "uint16"
            },
            {
              "internalType": "bytes2",
              "name": "country",
              "type": "bytes2"
            },
            {
              "internalType": "bytes2",
              "name": "subdivision",
              "type": "bytes2"
            },
            {
              "internalType": "address",
              "name": "supplierAddress",
              "type": "address"
            },
            {
              "internalType": "uint32",
              "name": "subIdentifier",
              "type": "uint32"
            }
          ],
          "internalType": "struct UnpackedRemovalIdV0",
          "name": "",
          "type": "tuple"
        }
      ],
      "stateMutability": "pure",
      "type": "function"
    },
    {
      "inputs": [],
      "name": "unpause",
      "outputs": [],
      "stateMutability": "nonpayable",
      "type": "function"
    },
    {
      "inputs": [
        {
          "internalType": "uint256",
          "name": "",
          "type": "uint256"
        }
      ],
      "name": "uri",
      "outputs": [
        {
          "internalType": "string",
          "name": "",
          "type": "string"
        }
      ],
      "stateMutability": "view",
      "type": "function"
    }
  ],
  "bytecode": "0x608060405234801561001057600080fd5b50613fa7806100206000396000f3fe608060405234801561001057600080fd5b50600436106102315760003560e01c80637985f3a111610130578063bd85b039116100b8578063e63ab1e91161007c578063e63ab1e914610542578063e985e9c514610557578063f242432a14610593578063f5298aca146105a6578063f62d1888146105b957600080fd5b8063bd85b039146104b4578063ca15c873146104d5578063d5391393146104e8578063d547741f1461050f578063d85a53e91461052257600080fd5b80639010d07c116100ff5780639010d07c1461045157806391d148541461047c57806398bdf6f51461048f578063a217fddf14610499578063a22cb465146104a157600080fd5b80637985f3a11461040d5780637aef1164146104205780638129fc1c146104415780638456cb591461044957600080fd5b806336568abe116101be5780634f558e79116101825780634f558e79146103975780635c975abb146103ba5780636b20c454146103c6578063731133e9146103d95780637932417b146103ec57600080fd5b806336568abe14610336578063367605ca146103495780633f4ba83a1461035c57806348ec4c3b146103645780634e1273f41461037757600080fd5b80631f7fdffa116102055780631f7fdffa146102a7578063248a9ca3146102bc5780632c3a0728146102df5780632eb2c2d6146103105780632f2ff15d1461032357600080fd5b8062fdd58e1461023657806301ffc9a71461025c57806306fdde031461027f5780630e89341c14610294575b600080fd5b610249610244366004612d68565b6105cc565b6040519081526020015b60405180910390f35b61026f61026a366004612daa565b610668565b6040519015158152602001610253565b610287610673565b6040516102539190612e1f565b6102876102a2366004612e32565b610702565b6102ba6102b5366004612ed7565b610796565b005b6102496102ca366004612e32565b60009081526065602052604090206001015490565b6102ba6102ed366004612f83565b6101f580546001600160a01b0319166001600160a01b0392909216919091179055565b6102ba61031e3660046130f3565b6107ea565b6102ba6103313660046131a0565b6109b3565b6102ba6103443660046131a0565b6109de565b6102ba6103573660046131de565b610a5c565b6102ba610ac0565b610249610372366004613229565b610b54565b61038a61038536600461326a565b610b67565b6040516102539190613371565b61026f6103a5366004612e32565b60009081526101c36020526040902054151590565b61012d5460ff1661026f565b6102ba6103d4366004613384565b610c90565b6102ba6103e73660046133f9565b610cd3565b6102496103fa366004612e32565b60009081526101fa602052604090205490565b6102ba61041b366004613462565b610d1b565b61024961042e366004612e32565b6101f86020526000908152604090205481565b6102ba610fad565b6102ba61107e565b61046461045f3660046134c3565b611110565b6040516001600160a01b039091168152602001610253565b61026f61048a3660046131a0565b611128565b6102496101f65481565b610249600081565b6102ba6104af3660046134e5565b611153565b6102496104c2366004612e32565b60009081526101c3602052604090205490565b6102496104e3366004612e32565b61115e565b6102497f9f2df0fed2c77648de5860a4cc508cd0818c85b8b8a1ab4ceeef8d981c8956a681565b6102ba61051d3660046131a0565b611175565b610535610530366004612e32565b61119b565b6040516102539190613513565b610249600080516020613f2c83398151915281565b61026f6105653660046135aa565b6001600160a01b03918216600090815260ca6020908152604080832093909416825291909152205460ff1690565b6102ba6105a13660046135d8565b6111ac565b6102ba6105b4366004613640565b6111f8565b6102ba6105c7366004613675565b61123b565b60006001600160a01b03831661063d5760405162461bcd60e51b815260206004820152602b60248201527f455243313135353a2062616c616e636520717565727920666f7220746865207a60448201526a65726f206164647265737360a81b60648201526084015b60405180910390fd5b50600081815260c9602090815260408083206001600160a01b03861684529091529020545b92915050565b6000610662826112b6565b6101f78054610681906136c5565b80601f01602080910402602001604051908101604052809291908181526020018280546106ad906136c5565b80156106fa5780601f106106cf576101008083540402835291602001916106fa565b820191906000526020600020905b8154815290600101906020018083116106dd57829003601f168201915b505050505081565b606060cb8054610711906136c5565b80601f016020809104026020016040519081016040528092919081815260200182805461073d906136c5565b801561078a5780601f1061075f5761010080835404028352916020019161078a565b820191906000526020600020905b81548152906001019060200180831161076d57829003601f168201915b50505050509050919050565b60405162461bcd60e51b815260206004820152602360248201527f52656d6f76616c3a2045524331313535206d696e7442617463682064697361626044820152621b195960ea1b6064820152608401610634565b600083516001600160401b0381111561080557610805612fa0565b60405190808252806020026020018201604052801561082e578160200160208202803683370190505b509050600084516001600160401b0381111561084c5761084c612fa0565b604051908082528060200260200182016040528015610875578160200160208202803683370190505b50905060005b8551811015610937576108a6868281518110610899576108996136ff565b60200260200101516112c1565b8382815181106108b8576108b86136ff565b60200260200101906001600160a01b031690816001600160a01b0316815250506109088682815181106108ed576108ed6136ff565b602002602001015160009081526101fa602052604090205490565b82828151811061091a5761091a6136ff565b60209081029190910101528061092f8161372b565b91505061087b565b506101f5546040516322cbfb6160e01b81526001600160a01b03909116906322cbfb619061096b9085908590600401613744565b600060405180830381600087803b15801561098557600080fd5b505af1158015610999573d6000803e3d6000fd5b505050506109aa87878787876112d0565b50505050505050565b6000828152606560205260409020600101546109cf8133611360565b6109d983836113c4565b505050565b6001600160a01b0381163314610a4e5760405162461bcd60e51b815260206004820152602f60248201527f416363657373436f6e74726f6c3a2063616e206f6e6c792072656e6f756e636560448201526e103937b632b9903337b91039b2b63360891b6064820152608401610634565b610a5882826113e6565b5050565b6000610a688133611360565b61012d5460ff1615610aaf5760405162461bcd60e51b815260206004820152601060248201526f14185d5cd8589b194e881c185d5cd95960821b6044820152606401610634565b610aba848484611408565b50505050565b610ad8600080516020613f2c83398151915233611128565b610b4a5760405162461bcd60e51b815260206004820152603b60248201527f455243313135355072657365744d696e7465725061757365723a206d7573742060448201527f686176652070617573657220726f6c6520746f20756e706175736500000000006064820152608401610634565b610b526114e8565b565b6000610b60838361157d565b9392505050565b60608151835114610bcc5760405162461bcd60e51b815260206004820152602960248201527f455243313135353a206163636f756e747320616e6420696473206c656e677468604482015268040dad2e6dac2e8c6d60bb1b6064820152608401610634565b600083516001600160401b03811115610be757610be7612fa0565b604051908082528060200260200182016040528015610c10578160200160208202803683370190505b50905060005b8451811015610c8857610c5b858281518110610c3457610c346136ff565b6020026020010151858381518110610c4e57610c4e6136ff565b60200260200101516105cc565b828281518110610c6d57610c6d6136ff565b6020908102919091010152610c818161372b565b9050610c16565b509392505050565b6001600160a01b038316331480610cac5750610cac8333610565565b610cc85760405162461bcd60e51b8152600401610634906137a4565b6109d9838383611893565b60405162461bcd60e51b815260206004820152601f60248201527f52656d6f76616c3a204552432031313535206d696e742064697361626c6564006044820152606401610634565b8251845114610d7d5760405162461bcd60e51b815260206004820152602860248201527f52656d6f76616c3a20616d6f756e747320616e6420696473206c656e677468206044820152670dad2e6dac2e8c6d60c31b6064820152608401610634565b8151845114610deb5760405162461bcd60e51b815260206004820152603460248201527f52656d6f76616c3a20616d6f756e747320616e6420657363726f7753636865646044820152730ead8caa6e8c2e4e8a8d2dacae65cd8cadccee8d60631b6064820152608401610634565b600081806020019051810190610e0191906137ed565b905060005b8451811015610f71576101f96000868381518110610e2657610e266136ff565b60209081029190910181015182528101919091526040016000205460ff1615610e7f57848181518110610e5b57610e5b6136ff565b6020026020010151604051634acb9c2960e01b815260040161063491815260200190565b838181518110610e9157610e916136ff565b60200260200101516101fa6000878481518110610eb057610eb06136ff565b602002602001015181526020019081526020016000208190555060016101f96000878481518110610ee357610ee36136ff565b6020026020010151815260200190815260200160002060006101000a81548160ff021916908315150217905550848181518110610f2257610f226136ff565b60200260200101516101f860006101f65481526020019081526020016000208190555060016101f66000828254610f59919061384b565b90915550819050610f698161372b565b915050610e06565b50610f7e86858785611a24565b610f8a86336001610a5c565b806020015115610fa557610fa58682600001518688866107ea565b505050505050565b600054610100900460ff16610fc85760005460ff1615610fcc565b303b155b610fe85760405162461bcd60e51b815260040161063490613863565b600054610100900460ff1615801561100a576000805461ffff19166101011790555b61102b604051806060016040528060268152602001613f4c6026913961123b565b611033611acc565b60006101f6556040805180820190915260078082526614995b5bdd985b60ca1b6020909201918252611068916101f791612c66565b50801561107b576000805461ff00191690555b50565b611096600080516020613f2c83398151915233611128565b6111085760405162461bcd60e51b815260206004820152603960248201527f455243313135355072657365744d696e7465725061757365723a206d7573742060448201527f686176652070617573657220726f6c6520746f207061757365000000000000006064820152608401610634565b610b52611af3565b6000828152609760205260408120610b609083611b70565b60009182526065602090815260408084206001600160a01b0393909316845291905290205460ff1690565b610a58338383611408565b600081815260976020526040812061066290611b7c565b6000828152606560205260409020600101546111918133611360565b6109d983836113e6565b6111a3612cea565b61066282611b86565b6001600160a01b0385163314806111c857506111c88533610565565b6111e45760405162461bcd60e51b8152600401610634906137a4565b6111f18585858585611c3d565b5050505050565b6001600160a01b03831633148061121457506112148333610565565b6112305760405162461bcd60e51b8152600401610634906137a4565b6109d9838383611d64565b600054610100900460ff166112565760005460ff161561125a565b303b155b6112765760405162461bcd60e51b815260040161063490613863565b600054610100900460ff16158015611298576000805461ffff19166101011790555b6112a182611e69565b8015610a58576000805461ff00191690555050565b600061066282611eaa565b60006106628260146004611eea565b6001600160a01b0385163314806112ec57506112ec8533610565565b6113535760405162461bcd60e51b815260206004820152603260248201527f455243313135353a207472616e736665722063616c6c6572206973206e6f74206044820152711bdddb995c881b9bdc88185c1c1c9bdd995960721b6064820152608401610634565b6111f18585858585611f36565b61136a8282611128565b610a5857611382816001600160a01b031660146120db565b61138d8360206120db565b60405160200161139e9291906138b1565b60408051601f198184030181529082905262461bcd60e51b825261063491600401612e1f565b6113ce8282612276565b60008281526097602052604090206109d990826122fc565b6113f08282612311565b60008281526097602052604090206109d99082612378565b816001600160a01b0316836001600160a01b03160361147b5760405162461bcd60e51b815260206004820152602960248201527f455243313135353a2073657474696e6720617070726f76616c20737461747573604482015268103337b91039b2b63360b91b6064820152608401610634565b6001600160a01b03838116600081815260ca6020908152604080832094871680845294825291829020805460ff191686151590811790915591519182527f17307eab39ab6107e8899845ad3d59bd9653f200f220920489ca2b5937696c31910160405180910390a3505050565b61012d5460ff166115325760405162461bcd60e51b815260206004820152601460248201527314185d5cd8589b194e881b9bdd081c185d5cd95960621b6044820152606401610634565b61012d805460ff191690557f5db9ee0a495bf2e6ff9c91a7834c1ba4fdd244a5e8aa4e537bd38aeae4b073aa335b6040516001600160a01b03909116815260200160405180910390a1565b60008061158c83850185613937565b60ff16905080156115eb5760405162461bcd60e51b8152602060048201526024808201527f556e737570706f727465642072656d6f76616c20746f6b656e2069642076657260448201526339b4b7b760e11b6064820152608401610634565b610100831461164f5760405162461bcd60e51b815260206004820152602a60248201527f72656d6f76616c4461746120636f6e7461696e732077726f6e67206e756d626560448201526972206f6620627974657360b01b6064820152608401610634565b600061165d84860186613990565b9050600f816020015160ff1611156116af5760405162461bcd60e51b81526020600482015260156024820152744d6574686f6c6f646f677920746f6f206c6172676560581b6044820152606401610634565b600f816040015160ff1611156117075760405162461bcd60e51b815260206004820152601d60248201527f4d6574686f6c6f646f67792076657273696f6e20746f6f206c617267650000006044820152606401610634565b608081015160a082015160f882811c9260ff60f091821c8116939283901c9290911c166041841080159061173c5750605a8411155b8015611749575060418310155b80156117565750605a8311155b8015611763575060418210155b80156117705750605a8211155b801561177d575060418110155b801561178a5750605a8111155b6117c65760405162461bcd60e51b815260206004820152600d60248201526c496e76616c696420415343494960981b6044820152606401610634565b600085604001516004876020015160ff16901b1760ff169050600860006117ed9190613a54565b60e087015163ffffffff16901b61180660086004613a54565b60c08801516001600160a01b0316901b61182260086018613a54565b60a089015160f01c901b6118386008601a613a54565b60808a015160f01c901b61184e6008601c613a54565b60608b015161ffff16901b6118656008601e613a54565b86901b6118746008601f613a54565b8c6000015160ff16901b17171717171797505050505050505092915050565b6001600160a01b0383166118b95760405162461bcd60e51b815260040161063490613a73565b80518251146118da5760405162461bcd60e51b815260040161063490613ab6565b60003390506118fd8185600086866040518060200160405280600081525061238d565b60005b83518110156119c557600084828151811061191d5761191d6136ff565b60200260200101519050600084838151811061193b5761193b6136ff565b602090810291909101810151600084815260c9835260408082206001600160a01b038c16835290935291909120549091508181101561198c5760405162461bcd60e51b815260040161063490613afe565b600092835260c9602090815260408085206001600160a01b038b16865290915290922091039055806119bd8161372b565b915050611900565b5060006001600160a01b0316846001600160a01b0316826001600160a01b03167f4a39dc06d4c0dbc64b70af90fd698a233a518aa5d07e595d983b8c0526c8f7fb8686604051611a16929190613b42565b60405180910390a450505050565b611a4e7f9f2df0fed2c77648de5860a4cc508cd0818c85b8b8a1ab4ceeef8d981c8956a633611128565b611ac05760405162461bcd60e51b815260206004820152603860248201527f455243313135355072657365744d696e7465725061757365723a206d7573742060448201527f68617665206d696e74657220726f6c6520746f206d696e7400000000000000006064820152608401610634565b610aba8484848461239b565b600054610100900460ff16610b525760405162461bcd60e51b815260040161063490613b70565b61012d5460ff1615611b3a5760405162461bcd60e51b815260206004820152601060248201526f14185d5cd8589b194e881c185d5cd95960821b6044820152606401610634565b61012d805460ff191660011790557f62e78cea01bee320cd4e420270b5ea74000d11b0c9f74754ebdbfc544b05a2586115603390565b6000610b608383612530565b6000610662825490565b611b8e612cea565b604051806101000160405280611ba38461255a565b60ff168152602001611bb484612569565b60ff168152602001611bc584612582565b60ff168152602001611bd68461259a565b61ffff168152602001611be8846125a9565b6001600160f01b0319168152602001611c00846125c1565b6001600160f01b0319168152602001611c18846112c1565b6001600160a01b03168152602001611c2f846125d0565b63ffffffff16905292915050565b6001600160a01b038416611c635760405162461bcd60e51b815260040161063490613bbb565b33611c82818787611c73886125df565b611c7c886125df565b8761238d565b600084815260c9602090815260408083206001600160a01b038a16845290915290205483811015611cc55760405162461bcd60e51b815260040161063490613c00565b600085815260c9602090815260408083206001600160a01b038b8116855292528083208785039055908816825281208054869290611d0490849061384b565b909155505060408051868152602081018690526001600160a01b03808916928a821692918616917fc3d58168c5ae7397731d063d5bbf3d657854427343f4c083240f7aacaa2d0f62910160405180910390a46109aa82888888888861262a565b6001600160a01b038316611d8a5760405162461bcd60e51b815260040161063490613a73565b33611db981856000611d9b876125df565b611da4876125df565b6040518060200160405280600081525061238d565b600083815260c9602090815260408083206001600160a01b038816845290915290205482811015611dfc5760405162461bcd60e51b815260040161063490613afe565b600084815260c9602090815260408083206001600160a01b03898116808652918452828520888703905582518981529384018890529092908616917fc3d58168c5ae7397731d063d5bbf3d657854427343f4c083240f7aacaa2d0f62910160405180910390a45050505050565b600054610100900460ff16611e905760405162461bcd60e51b815260040161063490613b70565b611e9981612785565b611ea16127b5565b61107b816127e9565b60006001600160e01b03198216636cdb3d1360e11b1480611edb57506001600160e01b031982166303a24d0760e21b145b8061066257506106628261285d565b600080611ef8600884613a54565b6001611f05600887613a54565b611f10906002613d2e565b611f1a9190613d3a565b901b9050848116611f2c600885613a54565b1c95945050505050565b8151835114611f575760405162461bcd60e51b815260040161063490613ab6565b6001600160a01b038416611f7d5760405162461bcd60e51b815260040161063490613bbb565b33611f8c81878787878761238d565b60005b8451811015612075576000858281518110611fac57611fac6136ff565b602002602001015190506000858381518110611fca57611fca6136ff565b602090810291909101810151600084815260c9835260408082206001600160a01b038e16835290935291909120549091508181101561201b5760405162461bcd60e51b815260040161063490613c00565b600083815260c9602090815260408083206001600160a01b038e8116855292528083208585039055908b1682528120805484929061205a90849061384b565b925050819055505050508061206e9061372b565b9050611f8f565b50846001600160a01b0316866001600160a01b0316826001600160a01b03167f4a39dc06d4c0dbc64b70af90fd698a233a518aa5d07e595d983b8c0526c8f7fb87876040516120c5929190613b42565b60405180910390a4610fa5818787878787612882565b606060006120ea836002613a54565b6120f590600261384b565b6001600160401b0381111561210c5761210c612fa0565b6040519080825280601f01601f191660200182016040528015612136576020820181803683370190505b509050600360fc1b81600081518110612151576121516136ff565b60200101906001600160f81b031916908160001a905350600f60fb1b81600181518110612180576121806136ff565b60200101906001600160f81b031916908160001a90535060006121a4846002613a54565b6121af90600161384b565b90505b6001811115612227576f181899199a1a9b1b9c1cb0b131b232b360811b85600f16601081106121e3576121e36136ff565b1a60f81b8282815181106121f9576121f96136ff565b60200101906001600160f81b031916908160001a90535060049490941c9361222081613d51565b90506121b2565b508315610b605760405162461bcd60e51b815260206004820181905260248201527f537472696e67733a20686578206c656e67746820696e73756666696369656e746044820152606401610634565b6122808282611128565b610a585760008281526065602090815260408083206001600160a01b03851684529091529020805460ff191660011790556122b83390565b6001600160a01b0316816001600160a01b0316837f2f8788117e7eff1d82e926ec794901d17c78024a50270940304540a733656f0d60405160405180910390a45050565b6000610b60836001600160a01b03841661293d565b61231b8282611128565b15610a585760008281526065602090815260408083206001600160a01b0385168085529252808320805460ff1916905551339285917ff6391f5c32d9c69d2a47ea670b442974b53935d1edc7fd64eb21e047a839171b9190a45050565b6000610b60836001600160a01b03841661298c565b610fa5868686868686612a86565b6001600160a01b0384166123fb5760405162461bcd60e51b815260206004820152602160248201527f455243313135353a206d696e7420746f20746865207a65726f206164647265736044820152607360f81b6064820152608401610634565b815183511461241c5760405162461bcd60e51b815260040161063490613ab6565b3361242c8160008787878761238d565b60005b84518110156124c85783818151811061244a5761244a6136ff565b602002602001015160c96000878481518110612468576124686136ff565b602002602001015181526020019081526020016000206000886001600160a01b03166001600160a01b0316815260200190815260200160002060008282546124b0919061384b565b909155508190506124c08161372b565b91505061242f565b50846001600160a01b031660006001600160a01b0316826001600160a01b03167f4a39dc06d4c0dbc64b70af90fd698a233a518aa5d07e595d983b8c0526c8f7fb8787604051612519929190613b42565b60405180910390a46111f181600087878787612882565b6000826000018281548110612547576125476136ff565b9060005260206000200154905092915050565b6000610662826001601f611eea565b6000600461257a836001601e611eea565b901c92915050565b6000612591826001601e611eea565b600f1692915050565b6000610662826002601c611eea565b60006125b8826002601a611eea565b60f01b92915050565b60006125b88260026018611eea565b60006106628260046000611eea565b60408051600180825281830190925260609160009190602080830190803683370190505090508281600081518110612619576126196136ff565b602090810291909101015292915050565b6001600160a01b0384163b15610fa55760405163f23a6e6160e01b81526001600160a01b0385169063f23a6e619061266e9089908990889088908890600401613d68565b6020604051808303816000875af19250505080156126a9575060408051601f3d908101601f191682019092526126a691810190613dad565b60015b612755576126b5613dca565b806308c379a0036126ee57506126c9613de6565b806126d457506126f0565b8060405162461bcd60e51b81526004016106349190612e1f565b505b60405162461bcd60e51b815260206004820152603460248201527f455243313135353a207472616e7366657220746f206e6f6e20455243313135356044820152732932b1b2b4bb32b91034b6b83632b6b2b73a32b960611b6064820152608401610634565b6001600160e01b0319811663f23a6e6160e01b146109aa5760405162461bcd60e51b815260040161063490613e6f565b600054610100900460ff166127ac5760405162461bcd60e51b815260040161063490613b70565b61107b81612ba2565b600054610100900460ff166127dc5760405162461bcd60e51b815260040161063490613b70565b61012d805460ff19169055565b600054610100900460ff166128105760405162461bcd60e51b815260040161063490613b70565b61281b600033612bb5565b6128457f9f2df0fed2c77648de5860a4cc508cd0818c85b8b8a1ab4ceeef8d981c8956a633612bb5565b61107b600080516020613f2c83398151915233612bb5565b60006001600160e01b03198216635a05180f60e01b1480610662575061066282612bbf565b6001600160a01b0384163b15610fa55760405163bc197c8160e01b81526001600160a01b0385169063bc197c81906128c69089908990889088908890600401613eb7565b6020604051808303816000875af1925050508015612901575060408051601f3d908101601f191682019092526128fe91810190613dad565b60015b61290d576126b5613dca565b6001600160e01b0319811663bc197c8160e01b146109aa5760405162461bcd60e51b815260040161063490613e6f565b600081815260018301602052604081205461298457508154600181810184556000848152602080822090930184905584548482528286019093526040902091909155610662565b506000610662565b60008181526001830160205260408120548015612a755760006129b0600183613d3a565b85549091506000906129c490600190613d3a565b9050818114612a295760008660000182815481106129e4576129e46136ff565b9060005260206000200154905080876000018481548110612a0757612a076136ff565b6000918252602080832090910192909255918252600188019052604090208390555b8554869080612a3a57612a3a613f15565b600190038181906000526020600020016000905590558560010160008681526020019081526020016000206000905560019350505050610662565b6000915050610662565b5092915050565b612a94868686868686612bf4565b6001600160a01b038516612b1c5760005b8351811015612b1a57828181518110612ac057612ac06136ff565b60200260200101516101c36000868481518110612adf57612adf6136ff565b602002602001015181526020019081526020016000206000828254612b04919061384b565b90915550612b1390508161372b565b9050612aa5565b505b6001600160a01b038416610fa55760005b83518110156109aa57828181518110612b4857612b486136ff565b60200260200101516101c36000868481518110612b6757612b676136ff565b602002602001015181526020019081526020016000206000828254612b8c9190613d3a565b90915550612b9b90508161372b565b9050612b2d565b8051610a589060cb906020840190612c66565b610a5882826113c4565b60006001600160e01b03198216637965db0b60e01b148061066257506301ffc9a760e01b6001600160e01b0319831614610662565b610fa586868686868661012d5460ff1615610fa55760405162461bcd60e51b815260206004820152602c60248201527f455243313135355061757361626c653a20746f6b656e207472616e736665722060448201526b1dda1a5b19481c185d5cd95960a21b6064820152608401610634565b828054612c72906136c5565b90600052602060002090601f016020900481019282612c945760008555612cda565b82601f10612cad57805160ff1916838001178555612cda565b82800160010185558215612cda579182015b82811115612cda578251825591602001919060010190612cbf565b50612ce6929150612d2e565b5090565b6040805161010081018252600080825260208201819052918101829052606081018290526080810182905260a0810182905260c0810182905260e081019190915290565b5b80821115612ce65760008155600101612d2f565b6001600160a01b038116811461107b57600080fd5b8035612d6381612d43565b919050565b60008060408385031215612d7b57600080fd5b8235612d8681612d43565b946020939093013593505050565b6001600160e01b03198116811461107b57600080fd5b600060208284031215612dbc57600080fd5b8135610b6081612d94565b60005b83811015612de2578181015183820152602001612dca565b83811115610aba5750506000910152565b60008151808452612e0b816020860160208601612dc7565b601f01601f19169290920160200192915050565b602081526000610b606020830184612df3565b600060208284031215612e4457600080fd5b5035919050565b60008083601f840112612e5d57600080fd5b5081356001600160401b03811115612e7457600080fd5b6020830191508360208260051b8501011115612e8f57600080fd5b9250929050565b60008083601f840112612ea857600080fd5b5081356001600160401b03811115612ebf57600080fd5b602083019150836020828501011115612e8f57600080fd5b60008060008060008060006080888a031215612ef257600080fd5b8735612efd81612d43565b965060208801356001600160401b0380821115612f1957600080fd5b612f258b838c01612e4b565b909850965060408a0135915080821115612f3e57600080fd5b612f4a8b838c01612e4b565b909650945060608a0135915080821115612f6357600080fd5b50612f708a828b01612e96565b989b979a50959850939692959293505050565b600060208284031215612f9557600080fd5b8135610b6081612d43565b634e487b7160e01b600052604160045260246000fd5b601f8201601f191681016001600160401b0381118282101715612fdb57612fdb612fa0565b6040525050565b60006001600160401b03821115612ffb57612ffb612fa0565b5060051b60200190565b600082601f83011261301657600080fd5b8135602061302382612fe2565b6040516130308282612fb6565b83815260059390931b850182019282810191508684111561305057600080fd5b8286015b8481101561306b5780358352918301918301613054565b509695505050505050565b60006001600160401b0383111561308f5761308f612fa0565b6040516130a6601f8501601f191660200182612fb6565b8091508381528484840111156130bb57600080fd5b83836020830137600060208583010152509392505050565b600082601f8301126130e457600080fd5b610b6083833560208501613076565b600080600080600060a0868803121561310b57600080fd5b853561311681612d43565b9450602086013561312681612d43565b935060408601356001600160401b038082111561314257600080fd5b61314e89838a01613005565b9450606088013591508082111561316457600080fd5b61317089838a01613005565b9350608088013591508082111561318657600080fd5b50613193888289016130d3565b9150509295509295909350565b600080604083850312156131b357600080fd5b8235915060208301356131c581612d43565b809150509250929050565b801515811461107b57600080fd5b6000806000606084860312156131f357600080fd5b83356131fe81612d43565b9250602084013561320e81612d43565b9150604084013561321e816131d0565b809150509250925092565b6000806020838503121561323c57600080fd5b82356001600160401b0381111561325257600080fd5b61325e85828601612e96565b90969095509350505050565b6000806040838503121561327d57600080fd5b82356001600160401b038082111561329457600080fd5b818501915085601f8301126132a857600080fd5b813560206132b582612fe2565b6040516132c28282612fb6565b83815260059390931b85018201928281019150898411156132e257600080fd5b948201945b838610156133095785356132fa81612d43565b825294820194908201906132e7565b9650508601359250508082111561331f57600080fd5b5061332c85828601613005565b9150509250929050565b600081518084526020808501945080840160005b838110156133665781518752958201959082019060010161334a565b509495945050505050565b602081526000610b606020830184613336565b60008060006060848603121561339957600080fd5b83356133a481612d43565b925060208401356001600160401b03808211156133c057600080fd5b6133cc87838801613005565b935060408601359150808211156133e257600080fd5b506133ef86828701613005565b9150509250925092565b60008060008060006080868803121561341157600080fd5b853561341c81612d43565b9450602086013593506040860135925060608601356001600160401b0381111561344557600080fd5b61345188828901612e96565b969995985093965092949392505050565b600080600080600060a0868803121561347a57600080fd5b853561348581612d43565b945060208601356001600160401b03808211156134a157600080fd5b6134ad89838a01613005565b9550604088013591508082111561314257600080fd5b600080604083850312156134d657600080fd5b50508035926020909101359150565b600080604083850312156134f857600080fd5b823561350381612d43565b915060208301356131c5816131d0565b60006101008201905060ff835116825260ff602084015116602083015260ff604084015116604083015261ffff606084015116606083015261ffff60f01b608084015116608083015260a083015161357760a08401826001600160f01b0319169052565b5060c083015161359260c08401826001600160a01b03169052565b5060e0830151612a7f60e084018263ffffffff169052565b600080604083850312156135bd57600080fd5b82356135c881612d43565b915060208301356131c581612d43565b600080600080600060a086880312156135f057600080fd5b85356135fb81612d43565b9450602086013561360b81612d43565b9350604086013592506060860135915060808601356001600160401b0381111561363457600080fd5b613193888289016130d3565b60008060006060848603121561365557600080fd5b833561366081612d43565b95602085013595506040909401359392505050565b60006020828403121561368757600080fd5b81356001600160401b0381111561369d57600080fd5b8201601f810184136136ae57600080fd5b6136bd84823560208401613076565b949350505050565b600181811c908216806136d957607f821691505b6020821081036136f957634e487b7160e01b600052602260045260246000fd5b50919050565b634e487b7160e01b600052603260045260246000fd5b634e487b7160e01b600052601160045260246000fd5b60006001820161373d5761373d613715565b5060010190565b604080825283519082018190526000906020906060840190828701845b828110156137865781516001600160a01b031684529284019290840190600101613761565b5050508381038285015261379a8186613336565b9695505050505050565b60208082526029908201527f455243313135353a2063616c6c6572206973206e6f74206f776e6572206e6f7260408201526808185c1c1c9bdd995960ba1b606082015260800190565b6000604082840312156137ff57600080fd5b604051604081018181106001600160401b038211171561382157613821612fa0565b604052825161382f81612d43565b8152602083015161383f816131d0565b60208201529392505050565b6000821982111561385e5761385e613715565b500190565b6020808252602e908201527f496e697469616c697a61626c653a20636f6e747261637420697320616c72656160408201526d191e481a5b9a5d1a585b1a5e995960921b606082015260800190565b7f416363657373436f6e74726f6c3a206163636f756e74200000000000000000008152600083516138e9816017850160208801612dc7565b7001034b99036b4b9b9b4b733903937b6329607d1b601791840191820152835161391a816028840160208801612dc7565b01602801949350505050565b803560ff81168114612d6357600080fd5b60006020828403121561394957600080fd5b610b6082613926565b803561ffff81168114612d6357600080fd5b80356001600160f01b031981168114612d6357600080fd5b803563ffffffff81168114612d6357600080fd5b60006101008083850312156139a457600080fd5b604051908101906001600160401b03821181831017156139c6576139c6612fa0565b816040526139d384613926565b81526139e160208501613926565b60208201526139f260408501613926565b6040820152613a0360608501613952565b6060820152613a1460808501613964565b6080820152613a2560a08501613964565b60a0820152613a3660c08501612d58565b60c0820152613a4760e0850161397c565b60e0820152949350505050565b6000816000190483118215151615613a6e57613a6e613715565b500290565b60208082526023908201527f455243313135353a206275726e2066726f6d20746865207a65726f206164647260408201526265737360e81b606082015260800190565b60208082526028908201527f455243313135353a2069647320616e6420616d6f756e7473206c656e677468206040820152670dad2e6dac2e8c6d60c31b606082015260800190565b60208082526024908201527f455243313135353a206275726e20616d6f756e7420657863656564732062616c604082015263616e636560e01b606082015260800190565b604081526000613b556040830185613336565b8281036020840152613b678185613336565b95945050505050565b6020808252602b908201527f496e697469616c697a61626c653a20636f6e7472616374206973206e6f74206960408201526a6e697469616c697a696e6760a81b606082015260800190565b60208082526025908201527f455243313135353a207472616e7366657220746f20746865207a65726f206164604082015264647265737360d81b606082015260800190565b6020808252602a908201527f455243313135353a20696e73756666696369656e742062616c616e636520666f60408201526939103a3930b739b332b960b11b606082015260800190565b600181815b80851115613c85578160001904821115613c6b57613c6b613715565b80851615613c7857918102915b93841c9390800290613c4f565b509250929050565b600082613c9c57506001610662565b81613ca957506000610662565b8160018114613cbf5760028114613cc957613ce5565b6001915050610662565b60ff841115613cda57613cda613715565b50506001821b610662565b5060208310610133831016604e8410600b8410161715613d08575081810a610662565b613d128383613c4a565b8060001904821115613d2657613d26613715565b029392505050565b6000610b608383613c8d565b600082821015613d4c57613d4c613715565b500390565b600081613d6057613d60613715565b506000190190565b6001600160a01b03868116825285166020820152604081018490526060810183905260a060808201819052600090613da290830184612df3565b979650505050505050565b600060208284031215613dbf57600080fd5b8151610b6081612d94565b600060033d1115613de35760046000803e5060005160e01c5b90565b600060443d1015613df45790565b6040516003193d81016004833e81513d6001600160401b038160248401118184111715613e2357505050505090565b8285019150815181811115613e3b5750505050505090565b843d8701016020828501011115613e555750505050505090565b613e6460208286010187612fb6565b509095945050505050565b60208082526028908201527f455243313135353a204552433131353552656365697665722072656a656374656040820152676420746f6b656e7360c01b606082015260800190565b6001600160a01b0386811682528516602082015260a060408201819052600090613ee390830186613336565b8281036060840152613ef58186613336565b90508281036080840152613f098185612df3565b98975050505050505050565b634e487b7160e01b600052603160045260246000fdfe65d7a28e3265b37a6474929f336521b332c1681b933f6cb9f3376673440d862a68747470733a2f2f6e6f72692e636f6d2f6170692f72656d6f76616c2f7b69647d2e6a736f6ea26469706673582212201adf3ed2c85e89a634679a1612d3974ff763fb0e596abfde08c301a8b99de38f64736f6c634300080d0033",
  "linkReferences": {},
  "deployedLinkReferences": {}
}