{
  "_format": "hh-sol-artifact-1",
  "contractName": "Removal",
  "sourceName": "contracts/Removal.sol",
  "abi": [
    {
      "anonymous": false,
      "inputs": [
        {
          "indexed": true,
          "internalType": "address",
          "name": "account",
          "type": "address"
        },
        {
          "indexed": true,
          "internalType": "address",
          "name": "operator",
          "type": "address"
        },
        {
          "indexed": false,
          "internalType": "bool",
          "name": "approved",
          "type": "bool"
        }
      ],
      "name": "ApprovalForAll",
      "type": "event"
    },
    {
      "anonymous": false,
      "inputs": [
        {
          "indexed": false,
          "internalType": "address",
          "name": "account",
          "type": "address"
        }
      ],
      "name": "Paused",
      "type": "event"
    },
    {
      "anonymous": false,
      "inputs": [
        {
          "indexed": true,
          "internalType": "bytes32",
          "name": "role",
          "type": "bytes32"
        },
        {
          "indexed": true,
          "internalType": "bytes32",
          "name": "previousAdminRole",
          "type": "bytes32"
        },
        {
          "indexed": true,
          "internalType": "bytes32",
          "name": "newAdminRole",
          "type": "bytes32"
        }
      ],
      "name": "RoleAdminChanged",
      "type": "event"
    },
    {
      "anonymous": false,
      "inputs": [
        {
          "indexed": true,
          "internalType": "bytes32",
          "name": "role",
          "type": "bytes32"
        },
        {
          "indexed": true,
          "internalType": "address",
          "name": "account",
          "type": "address"
        },
        {
          "indexed": true,
          "internalType": "address",
          "name": "sender",
          "type": "address"
        }
      ],
      "name": "RoleGranted",
      "type": "event"
    },
    {
      "anonymous": false,
      "inputs": [
        {
          "indexed": true,
          "internalType": "bytes32",
          "name": "role",
          "type": "bytes32"
        },
        {
          "indexed": true,
          "internalType": "address",
          "name": "account",
          "type": "address"
        },
        {
          "indexed": true,
          "internalType": "address",
          "name": "sender",
          "type": "address"
        }
      ],
      "name": "RoleRevoked",
      "type": "event"
    },
    {
      "anonymous": false,
      "inputs": [
        {
          "indexed": true,
          "internalType": "address",
          "name": "operator",
          "type": "address"
        },
        {
          "indexed": true,
          "internalType": "address",
          "name": "from",
          "type": "address"
        },
        {
          "indexed": true,
          "internalType": "address",
          "name": "to",
          "type": "address"
        },
        {
          "indexed": false,
          "internalType": "uint256[]",
          "name": "ids",
          "type": "uint256[]"
        },
        {
          "indexed": false,
          "internalType": "uint256[]",
          "name": "values",
          "type": "uint256[]"
        }
      ],
      "name": "TransferBatch",
      "type": "event"
    },
    {
      "anonymous": false,
      "inputs": [
        {
          "indexed": true,
          "internalType": "address",
          "name": "operator",
          "type": "address"
        },
        {
          "indexed": true,
          "internalType": "address",
          "name": "from",
          "type": "address"
        },
        {
          "indexed": true,
          "internalType": "address",
          "name": "to",
          "type": "address"
        },
        {
          "indexed": false,
          "internalType": "uint256",
          "name": "id",
          "type": "uint256"
        },
        {
          "indexed": false,
          "internalType": "uint256",
          "name": "value",
          "type": "uint256"
        }
      ],
      "name": "TransferSingle",
      "type": "event"
    },
    {
      "anonymous": false,
      "inputs": [
        {
          "indexed": false,
          "internalType": "string",
          "name": "value",
          "type": "string"
        },
        {
          "indexed": true,
          "internalType": "uint256",
          "name": "id",
          "type": "uint256"
        }
      ],
      "name": "URI",
      "type": "event"
    },
    {
      "anonymous": false,
      "inputs": [
        {
          "indexed": false,
          "internalType": "address",
          "name": "account",
          "type": "address"
        }
      ],
      "name": "Unpaused",
      "type": "event"
    },
    {
      "inputs": [],
      "name": "DEFAULT_ADMIN_ROLE",
      "outputs": [
        {
          "internalType": "bytes32",
          "name": "",
          "type": "bytes32"
        }
      ],
      "stateMutability": "view",
      "type": "function"
    },
    {
      "inputs": [],
      "name": "MINTER_ROLE",
      "outputs": [
        {
          "internalType": "bytes32",
          "name": "",
          "type": "bytes32"
        }
      ],
      "stateMutability": "view",
      "type": "function"
    },
    {
      "inputs": [],
      "name": "PAUSER_ROLE",
      "outputs": [
        {
          "internalType": "bytes32",
          "name": "",
          "type": "bytes32"
        }
      ],
      "stateMutability": "view",
      "type": "function"
    },
    {
      "inputs": [
        {
          "internalType": "address",
          "name": "account",
          "type": "address"
        },
        {
          "internalType": "uint256",
          "name": "id",
          "type": "uint256"
        }
      ],
      "name": "balanceOf",
      "outputs": [
        {
          "internalType": "uint256",
          "name": "",
          "type": "uint256"
        }
      ],
      "stateMutability": "view",
      "type": "function"
    },
    {
      "inputs": [
        {
          "internalType": "address[]",
          "name": "accounts",
          "type": "address[]"
        },
        {
          "internalType": "uint256[]",
          "name": "ids",
          "type": "uint256[]"
        }
      ],
      "name": "balanceOfBatch",
      "outputs": [
        {
          "internalType": "uint256[]",
          "name": "",
          "type": "uint256[]"
        }
      ],
      "stateMutability": "view",
      "type": "function"
    },
    {
      "inputs": [
        {
          "internalType": "address",
          "name": "account",
          "type": "address"
        },
        {
          "internalType": "uint256",
          "name": "id",
          "type": "uint256"
        },
        {
          "internalType": "uint256",
          "name": "value",
          "type": "uint256"
        }
      ],
      "name": "burn",
      "outputs": [],
      "stateMutability": "nonpayable",
      "type": "function"
    },
    {
      "inputs": [
        {
          "internalType": "address",
          "name": "account",
          "type": "address"
        },
        {
          "internalType": "uint256[]",
          "name": "ids",
          "type": "uint256[]"
        },
        {
          "internalType": "uint256[]",
          "name": "values",
          "type": "uint256[]"
        }
      ],
      "name": "burnBatch",
      "outputs": [],
      "stateMutability": "nonpayable",
      "type": "function"
    },
    {
      "inputs": [
        {
          "internalType": "uint256",
          "name": "id",
          "type": "uint256"
        }
      ],
      "name": "exists",
      "outputs": [
        {
          "internalType": "bool",
          "name": "",
          "type": "bool"
        }
      ],
      "stateMutability": "view",
      "type": "function"
    },
    {
      "inputs": [
        {
          "internalType": "bytes32",
          "name": "role",
          "type": "bytes32"
        }
      ],
      "name": "getRoleAdmin",
      "outputs": [
        {
          "internalType": "bytes32",
          "name": "",
          "type": "bytes32"
        }
      ],
      "stateMutability": "view",
      "type": "function"
    },
    {
      "inputs": [
        {
          "internalType": "bytes32",
          "name": "role",
          "type": "bytes32"
        },
        {
          "internalType": "uint256",
          "name": "index",
          "type": "uint256"
        }
      ],
      "name": "getRoleMember",
      "outputs": [
        {
          "internalType": "address",
          "name": "",
          "type": "address"
        }
      ],
      "stateMutability": "view",
      "type": "function"
    },
    {
      "inputs": [
        {
          "internalType": "bytes32",
          "name": "role",
          "type": "bytes32"
        }
      ],
      "name": "getRoleMemberCount",
      "outputs": [
        {
          "internalType": "uint256",
          "name": "",
          "type": "uint256"
        }
      ],
      "stateMutability": "view",
      "type": "function"
    },
    {
      "inputs": [
        {
          "internalType": "bytes32",
          "name": "role",
          "type": "bytes32"
        },
        {
          "internalType": "address",
          "name": "account",
          "type": "address"
        }
      ],
      "name": "grantRole",
      "outputs": [],
      "stateMutability": "nonpayable",
      "type": "function"
    },
    {
      "inputs": [
        {
          "internalType": "bytes32",
          "name": "role",
          "type": "bytes32"
        },
        {
          "internalType": "address",
          "name": "account",
          "type": "address"
        }
      ],
      "name": "hasRole",
      "outputs": [
        {
          "internalType": "bool",
          "name": "",
          "type": "bool"
        }
      ],
      "stateMutability": "view",
      "type": "function"
    },
    {
      "inputs": [],
      "name": "initialize",
      "outputs": [],
      "stateMutability": "nonpayable",
      "type": "function"
    },
    {
      "inputs": [
        {
          "internalType": "string",
          "name": "uri",
          "type": "string"
        }
      ],
      "name": "initialize",
      "outputs": [],
      "stateMutability": "nonpayable",
      "type": "function"
    },
    {
      "inputs": [
        {
          "internalType": "address",
          "name": "account",
          "type": "address"
        },
        {
          "internalType": "address",
          "name": "operator",
          "type": "address"
        }
      ],
      "name": "isApprovedForAll",
      "outputs": [
        {
          "internalType": "bool",
          "name": "",
          "type": "bool"
        }
      ],
      "stateMutability": "view",
      "type": "function"
    },
    {
      "inputs": [
        {
          "internalType": "address",
          "name": "to",
          "type": "address"
        },
        {
          "internalType": "uint256",
          "name": "id",
          "type": "uint256"
        },
        {
          "internalType": "uint256",
          "name": "amount",
          "type": "uint256"
        },
        {
          "internalType": "bytes",
          "name": "data",
          "type": "bytes"
        }
      ],
      "name": "mint",
      "outputs": [],
      "stateMutability": "nonpayable",
      "type": "function"
    },
    {
      "inputs": [
        {
          "internalType": "address",
          "name": "to",
          "type": "address"
        },
        {
          "internalType": "uint256[]",
          "name": "amounts",
          "type": "uint256[]"
        },
        {
          "internalType": "uint256[]",
          "name": "vintages",
          "type": "uint256[]"
        },
        {
          "internalType": "bytes",
          "name": "data",
          "type": "bytes"
        }
      ],
      "name": "mintBatch",
      "outputs": [],
      "stateMutability": "nonpayable",
      "type": "function"
    },
    {
      "inputs": [],
      "name": "name",
      "outputs": [
        {
          "internalType": "string",
          "name": "",
          "type": "string"
        }
      ],
      "stateMutability": "view",
      "type": "function"
    },
    {
      "inputs": [],
      "name": "pause",
      "outputs": [],
      "stateMutability": "nonpayable",
      "type": "function"
    },
    {
      "inputs": [],
      "name": "paused",
      "outputs": [
        {
          "internalType": "bool",
          "name": "",
          "type": "bool"
        }
      ],
      "stateMutability": "view",
      "type": "function"
    },
    {
      "inputs": [
        {
          "internalType": "bytes32",
          "name": "role",
          "type": "bytes32"
        },
        {
          "internalType": "address",
          "name": "account",
          "type": "address"
        }
      ],
      "name": "renounceRole",
      "outputs": [],
      "stateMutability": "nonpayable",
      "type": "function"
    },
    {
      "inputs": [
        {
          "internalType": "bytes32",
          "name": "role",
          "type": "bytes32"
        },
        {
          "internalType": "address",
          "name": "account",
          "type": "address"
        }
      ],
      "name": "revokeRole",
      "outputs": [],
      "stateMutability": "nonpayable",
      "type": "function"
    },
    {
      "inputs": [
        {
          "internalType": "address",
          "name": "_from",
          "type": "address"
        },
        {
          "internalType": "address",
          "name": "_to",
          "type": "address"
        },
        {
          "internalType": "uint256[]",
          "name": "_ids",
          "type": "uint256[]"
        },
        {
          "internalType": "uint256[]",
          "name": "_amounts",
          "type": "uint256[]"
        },
        {
          "internalType": "bytes",
          "name": "_data",
          "type": "bytes"
        }
      ],
      "name": "safeBatchTransferFrom",
      "outputs": [],
      "stateMutability": "nonpayable",
      "type": "function"
    },
    {
      "inputs": [
        {
          "internalType": "address",
          "name": "from",
          "type": "address"
        },
        {
          "internalType": "address",
          "name": "to",
          "type": "address"
        },
        {
          "internalType": "uint256",
          "name": "id",
          "type": "uint256"
        },
        {
          "internalType": "uint256",
          "name": "amount",
          "type": "uint256"
        },
        {
          "internalType": "bytes",
          "name": "data",
          "type": "bytes"
        }
      ],
      "name": "safeTransferFrom",
      "outputs": [],
      "stateMutability": "nonpayable",
      "type": "function"
    },
    {
      "inputs": [
        {
          "internalType": "address",
          "name": "operator",
          "type": "address"
        },
        {
          "internalType": "bool",
          "name": "approved",
          "type": "bool"
        }
      ],
      "name": "setApprovalForAll",
      "outputs": [],
      "stateMutability": "nonpayable",
      "type": "function"
    },
    {
      "inputs": [
        {
          "internalType": "bytes4",
          "name": "interfaceId",
          "type": "bytes4"
        }
      ],
      "name": "supportsInterface",
      "outputs": [
        {
          "internalType": "bool",
          "name": "",
          "type": "bool"
        }
      ],
      "stateMutability": "view",
      "type": "function"
    },
    {
      "inputs": [
        {
          "internalType": "bytes[]",
          "name": "parcelIdentifiers",
          "type": "bytes[]"
        },
        {
          "internalType": "uint256[]",
          "name": "removalVintages",
          "type": "uint256[]"
        }
      ],
      "name": "tokenIdsForRemovals",
      "outputs": [
        {
          "internalType": "uint256[]",
          "name": "",
          "type": "uint256[]"
        }
      ],
      "stateMutability": "view",
      "type": "function"
    },
    {
      "inputs": [
        {
          "internalType": "uint256",
          "name": "id",
          "type": "uint256"
        }
      ],
      "name": "totalSupply",
      "outputs": [
        {
          "internalType": "uint256",
          "name": "",
          "type": "uint256"
        }
      ],
      "stateMutability": "view",
      "type": "function"
    },
    {
      "inputs": [],
      "name": "unpause",
      "outputs": [],
      "stateMutability": "nonpayable",
      "type": "function"
    },
    {
      "inputs": [
        {
          "internalType": "uint256",
          "name": "",
          "type": "uint256"
        }
      ],
      "name": "uri",
      "outputs": [
        {
          "internalType": "string",
          "name": "",
          "type": "string"
        }
      ],
      "stateMutability": "view",
      "type": "function"
    },
    {
      "inputs": [
        {
          "internalType": "uint256",
          "name": "removalId",
          "type": "uint256"
        }
      ],
      "name": "vintage",
      "outputs": [
        {
          "components": [
            {
              "internalType": "address",
              "name": "supplier",
              "type": "address"
            },
            {
              "internalType": "uint16",
              "name": "vintage",
              "type": "uint16"
            },
            {
              "internalType": "bytes32",
              "name": "uniqueId",
              "type": "bytes32"
            }
          ],
          "internalType": "struct Removal.Vintage",
          "name": "",
          "type": "tuple"
        }
      ],
      "stateMutability": "view",
      "type": "function"
    }
  ],
  "bytecode": "0x608060405234801561001057600080fd5b5061348d806100206000396000f3fe608060405234801561001057600080fd5b50600436106101ef5760003560e01c80638129fc1c1161010f578063d5391393116100a2578063e985e9c511610071578063e985e9c5146104d9578063f242432a14610515578063f5298aca14610528578063f62d18881461053b57600080fd5b8063d539139314610489578063d547741f1461049e578063deccb8c9146104b1578063e63ab1e9146104c457600080fd5b8063a217fddf116100de578063a217fddf1461043a578063a22cb46514610442578063bd85b03914610455578063ca15c8731461047657600080fd5b80638129fc1c146103ec5780638456cb59146103f45780639010d07c146103fc57806391d148541461042757600080fd5b806336568abe116101875780635c975abb116101565780635c975abb146103215780636b20c4541461032d578063731133e914610340578063737fa5891461035357600080fd5b806336568abe146102c35780633f4ba83a146102d65780634e1273f4146102de5780634f558e79146102fe57600080fd5b80631f7fdffa116101c35780631f7fdffa14610265578063248a9ca31461027a5780632eb2c2d61461029d5780632f2ff15d146102b057600080fd5b8062fdd58e146101f457806301ffc9a71461021a57806306fdde031461023d5780630e89341c14610252575b600080fd5b6102076102023660046125ee565b61054e565b6040519081526020015b60405180910390f35b61022d61022836600461262e565b6105ea565b6040519015158152602001610211565b6102456105f5565b60405161021191906126a3565b6102456102603660046126b6565b610684565b610278610273366004612822565b610718565b005b6102076102883660046126b6565b60009081526065602052604090206001015490565b6102786102ab3660046128ba565b6108fe565b6102786102be366004612963565b61090b565b6102786102d1366004612963565b610936565b6102786109b4565b6102f16102ec36600461298f565b610a48565b6040516102119190612a94565b61022d61030c3660046126b6565b60009081526101c36020526040902054151590565b61012d5460ff1661022d565b61027861033b366004612aa7565b610b71565b61027861034e366004612b1a565b610bb4565b6103bd6103613660046126b6565b6040805160608082018352600080835260208084018290529284018190529384526101f58252928290208251938401835280546001600160a01b0381168552600160a01b900461ffff1691840191909152600101549082015290565b6040805182516001600160a01b0316815260208084015161ffff16908201529181015190820152606001610211565b610278610bfa565b610278610ccb565b61040f61040a366004612b6e565b610d5d565b6040516001600160a01b039091168152602001610211565b61022d610435366004612963565b610d7c565b610207600081565b610278610450366004612b90565b610da7565b6102076104633660046126b6565b60009081526101c3602052604090205490565b6102076104843660046126b6565b610db2565b61020760008051602061341283398151915281565b6102786104ac366004612963565b610dc9565b6102f16104bf366004612bcc565b610def565b6102076000805160206133f283398151915281565b61022d6104e7366004612c93565b6001600160a01b03918216600090815260ca6020908152604080832093909416825291909152205460ff1690565b610278610523366004612cbd565b610ee2565b610278610536366004612d21565b610f27565b610278610549366004612d54565b610f6a565b60006001600160a01b0383166105bf5760405162461bcd60e51b815260206004820152602b60248201527f455243313135353a2062616c616e636520717565727920666f7220746865207a60448201526a65726f206164647265737360a81b60648201526084015b60405180910390fd5b50600081815260c9602090815260408083206001600160a01b03861684529091529020545b92915050565b60006105e482610fe5565b6101f8805461060390612da4565b80601f016020809104026020016040519081016040528092919081815260200182805461062f90612da4565b801561067c5780601f106106515761010080835404028352916020019161067c565b820191906000526020600020905b81548152906001019060200180831161065f57829003601f168201915b505050505081565b606060cb805461069390612da4565b80601f01602080910402602001604051908101604052809291908181526020018280546106bf90612da4565b801561070c5780601f106106e15761010080835404028352916020019161070c565b820191906000526020600020905b8154815290600101906020018083116106ef57829003601f168201915b50505050509050919050565b600082516001600160401b03811115610733576107336126cf565b60405190808252806020026020018201604052801561075c578160200160208202803683370190505b50905060005b83518110156108b35760008385838151811061078057610780612ddf565b6020026020010151604051602001610799929190612df5565b604051602081830303815290604052805190602001209050816101f7546107c09190612e2d565b8383815181106107d2576107d2612ddf565b6020026020010181815250506040518060600160405280886001600160a01b0316815260200186848151811061080a5761080a612ddf565b602002602001015161ffff168152602001828152506101f56000846101f7546108339190612e2d565b81526020808201929092526040908101600020835181549385015161ffff16600160a01b026001600160b01b03199094166001600160a01b039091161792909217825591909101516001909101556101f754610890908390612e2d565b60009182526101f6602052604090912055806108ab81612e45565b915050610762565b5080600182516108c39190612e60565b815181106108d3576108d3612ddf565b602002602001015160016108e79190612e2d565b6101f7556108f785828685610ff0565b5050505050565b6108f78585858585611030565b60008281526065602052604090206001015461092781336110c0565b6109318383611124565b505050565b6001600160a01b03811633146109a65760405162461bcd60e51b815260206004820152602f60248201527f416363657373436f6e74726f6c3a2063616e206f6e6c792072656e6f756e636560448201526e103937b632b9903337b91039b2b63360891b60648201526084016105b6565b6109b08282611146565b5050565b6109cc6000805160206133f283398151915233610d7c565b610a3e5760405162461bcd60e51b815260206004820152603b60248201527f455243313135355072657365744d696e7465725061757365723a206d7573742060448201527f686176652070617573657220726f6c6520746f20756e7061757365000000000060648201526084016105b6565b610a46611168565b565b60608151835114610aad5760405162461bcd60e51b815260206004820152602960248201527f455243313135353a206163636f756e747320616e6420696473206c656e677468604482015268040dad2e6dac2e8c6d60bb1b60648201526084016105b6565b600083516001600160401b03811115610ac857610ac86126cf565b604051908082528060200260200182016040528015610af1578160200160208202803683370190505b50905060005b8451811015610b6957610b3c858281518110610b1557610b15612ddf565b6020026020010151858381518110610b2f57610b2f612ddf565b602002602001015161054e565b828281518110610b4e57610b4e612ddf565b6020908102919091010152610b6281612e45565b9050610af7565b509392505050565b6001600160a01b038316331480610b8d5750610b8d83336104e7565b610ba95760405162461bcd60e51b81526004016105b690612e77565b6109318383836111fd565b610bcc60008051602061341283398151915233610d7c565b610be85760405162461bcd60e51b81526004016105b690612ec0565b610bf48484848461138e565b50505050565b600054610100900460ff16610c155760005460ff1615610c19565b303b155b610c355760405162461bcd60e51b81526004016105b690612f1d565b600054610100900460ff16158015610c57576000805461ffff19166101011790555b610c7860405180606001604052806026815260200161343260269139610f6a565b610c80611466565b60006101f7556040805180820190915260078082526614995b5bdd985b60ca1b6020909201918252610cb5916101f891612539565b508015610cc8576000805461ff00191690555b50565b610ce36000805160206133f283398151915233610d7c565b610d555760405162461bcd60e51b815260206004820152603960248201527f455243313135355072657365744d696e7465725061757365723a206d7573742060448201527f686176652070617573657220726f6c6520746f2070617573650000000000000060648201526084016105b6565b610a4661148d565b6000828152609760205260408120610d75908361150a565b9392505050565b60009182526065602090815260408084206001600160a01b0393909316845291905290205460ff1690565b6109b0338383611516565b60008181526097602052604081206105e4906115f7565b600082815260656020526040902060010154610de581336110c0565b6109318383611146565b6060600082516001600160401b03811115610e0c57610e0c6126cf565b604051908082528060200260200182016040528015610e35578160200160208202803683370190505b50905060005b8351811015610b69576101f66000868381518110610e5b57610e5b612ddf565b6020026020010151868481518110610e7557610e75612ddf565b6020026020010151604051602001610e8e929190612df5565b60405160208183030381529060405280519060200120815260200190815260200160002054828281518110610ec557610ec5612ddf565b602090810291909101015280610eda81612e45565b915050610e3b565b6001600160a01b038516331480610efe5750610efe85336104e7565b610f1a5760405162461bcd60e51b81526004016105b690612e77565b6108f78585858585611601565b6001600160a01b038316331480610f435750610f4383336104e7565b610f5f5760405162461bcd60e51b81526004016105b690612e77565b610931838383611722565b600054610100900460ff16610f855760005460ff1615610f89565b303b155b610fa55760405162461bcd60e51b81526004016105b690612f1d565b600054610100900460ff16158015610fc7576000805461ffff19166101011790555b610fd082611827565b80156109b0576000805461ff00191690555050565b60006105e482611898565b61100860008051602061341283398151915233610d7c565b6110245760405162461bcd60e51b81526004016105b690612ec0565b610bf4848484846118d8565b6001600160a01b03851633148061104c575061104c85336104e7565b6110b35760405162461bcd60e51b815260206004820152603260248201527f455243313135353a207472616e736665722063616c6c6572206973206e6f74206044820152711bdddb995c881b9bdc88185c1c1c9bdd995960721b60648201526084016105b6565b6108f78585858585611a33565b6110ca8282610d7c565b6109b0576110e2816001600160a01b03166014611be0565b6110ed836020611be0565b6040516020016110fe929190612f6b565b60408051601f198184030181529082905262461bcd60e51b82526105b6916004016126a3565b61112e8282611d7b565b60008281526097602052604090206109319082611e01565b6111508282611e16565b60008281526097602052604090206109319082611e7d565b61012d5460ff166111b25760405162461bcd60e51b815260206004820152601460248201527314185d5cd8589b194e881b9bdd081c185d5cd95960621b60448201526064016105b6565b61012d805460ff191690557f5db9ee0a495bf2e6ff9c91a7834c1ba4fdd244a5e8aa4e537bd38aeae4b073aa335b6040516001600160a01b03909116815260200160405180910390a1565b6001600160a01b0383166112235760405162461bcd60e51b81526004016105b690612fe0565b80518251146112445760405162461bcd60e51b81526004016105b690613023565b600033905061126781856000868660405180602001604052806000815250611e92565b60005b835181101561132f57600084828151811061128757611287612ddf565b6020026020010151905060008483815181106112a5576112a5612ddf565b602090810291909101810151600084815260c9835260408082206001600160a01b038c1683529093529190912054909150818110156112f65760405162461bcd60e51b81526004016105b69061306b565b600092835260c9602090815260408085206001600160a01b038b168652909152909220910390558061132781612e45565b91505061126a565b5060006001600160a01b0316846001600160a01b0316826001600160a01b03167f4a39dc06d4c0dbc64b70af90fd698a233a518aa5d07e595d983b8c0526c8f7fb86866040516113809291906130af565b60405180910390a450505050565b6001600160a01b0384166113b45760405162461bcd60e51b81526004016105b6906130dd565b336113d4816000876113c588611ea0565b6113ce88611ea0565b87611e92565b600084815260c9602090815260408083206001600160a01b038916845290915281208054859290611406908490612e2d565b909155505060408051858152602081018590526001600160a01b0380881692600092918516917fc3d58168c5ae7397731d063d5bbf3d657854427343f4c083240f7aacaa2d0f62910160405180910390a46108f781600087878787611eeb565b600054610100900460ff16610a465760405162461bcd60e51b81526004016105b69061311e565b61012d5460ff16156114d45760405162461bcd60e51b815260206004820152601060248201526f14185d5cd8589b194e881c185d5cd95960821b60448201526064016105b6565b61012d805460ff191660011790557f62e78cea01bee320cd4e420270b5ea74000d11b0c9f74754ebdbfc544b05a2586111e03390565b6000610d758383612047565b816001600160a01b0316836001600160a01b0316141561158a5760405162461bcd60e51b815260206004820152602960248201527f455243313135353a2073657474696e6720617070726f76616c20737461747573604482015268103337b91039b2b63360b91b60648201526084016105b6565b6001600160a01b03838116600081815260ca6020908152604080832094871680845294825291829020805460ff191686151590811790915591519182527f17307eab39ab6107e8899845ad3d59bd9653f200f220920489ca2b5937696c31910160405180910390a3505050565b60006105e4825490565b6001600160a01b0384166116275760405162461bcd60e51b81526004016105b690613169565b336116378187876113c588611ea0565b600084815260c9602090815260408083206001600160a01b038a1684529091529020548381101561167a5760405162461bcd60e51b81526004016105b6906131ae565b600085815260c9602090815260408083206001600160a01b038b81168552925280832087850390559088168252812080548692906116b9908490612e2d565b909155505060408051868152602081018690526001600160a01b03808916928a821692918616917fc3d58168c5ae7397731d063d5bbf3d657854427343f4c083240f7aacaa2d0f62910160405180910390a4611719828888888888611eeb565b50505050505050565b6001600160a01b0383166117485760405162461bcd60e51b81526004016105b690612fe0565b336117778185600061175987611ea0565b61176287611ea0565b60405180602001604052806000815250611e92565b600083815260c9602090815260408083206001600160a01b0388168452909152902054828110156117ba5760405162461bcd60e51b81526004016105b69061306b565b600084815260c9602090815260408083206001600160a01b03898116808652918452828520888703905582518981529384018890529092908616917fc3d58168c5ae7397731d063d5bbf3d657854427343f4c083240f7aacaa2d0f62910160405180910390a45050505050565b600054610100900460ff1661184e5760405162461bcd60e51b81526004016105b69061311e565b611856611466565b61185e611466565b611866611466565b61186e611466565b61187781612071565b61187f611466565b6118876120a1565b61188f611466565b610cc8816120d5565b60006001600160e01b03198216636cdb3d1360e11b14806118c957506001600160e01b031982166303a24d0760e21b145b806105e457506105e482612137565b6001600160a01b0384166118fe5760405162461bcd60e51b81526004016105b6906130dd565b815183511461191f5760405162461bcd60e51b81526004016105b690613023565b3361192f81600087878787611e92565b60005b84518110156119cb5783818151811061194d5761194d612ddf565b602002602001015160c9600087848151811061196b5761196b612ddf565b602002602001015181526020019081526020016000206000886001600160a01b03166001600160a01b0316815260200190815260200160002060008282546119b39190612e2d565b909155508190506119c381612e45565b915050611932565b50846001600160a01b031660006001600160a01b0316826001600160a01b03167f4a39dc06d4c0dbc64b70af90fd698a233a518aa5d07e595d983b8c0526c8f7fb8787604051611a1c9291906130af565b60405180910390a46108f78160008787878761215c565b8151835114611a545760405162461bcd60e51b81526004016105b690613023565b6001600160a01b038416611a7a5760405162461bcd60e51b81526004016105b690613169565b33611a89818787878787611e92565b60005b8451811015611b72576000858281518110611aa957611aa9612ddf565b602002602001015190506000858381518110611ac757611ac7612ddf565b602090810291909101810151600084815260c9835260408082206001600160a01b038e168352909352919091205490915081811015611b185760405162461bcd60e51b81526004016105b6906131ae565b600083815260c9602090815260408083206001600160a01b038e8116855292528083208585039055908b16825281208054849290611b57908490612e2d565b9250508190555050505080611b6b90612e45565b9050611a8c565b50846001600160a01b0316866001600160a01b0316826001600160a01b03167f4a39dc06d4c0dbc64b70af90fd698a233a518aa5d07e595d983b8c0526c8f7fb8787604051611bc29291906130af565b60405180910390a4611bd881878787878761215c565b505050505050565b60606000611bef8360026131f8565b611bfa906002612e2d565b6001600160401b03811115611c1157611c116126cf565b6040519080825280601f01601f191660200182016040528015611c3b576020820181803683370190505b509050600360fc1b81600081518110611c5657611c56612ddf565b60200101906001600160f81b031916908160001a905350600f60fb1b81600181518110611c8557611c85612ddf565b60200101906001600160f81b031916908160001a9053506000611ca98460026131f8565b611cb4906001612e2d565b90505b6001811115611d2c576f181899199a1a9b1b9c1cb0b131b232b360811b85600f1660108110611ce857611ce8612ddf565b1a60f81b828281518110611cfe57611cfe612ddf565b60200101906001600160f81b031916908160001a90535060049490941c93611d2581613217565b9050611cb7565b508315610d755760405162461bcd60e51b815260206004820181905260248201527f537472696e67733a20686578206c656e67746820696e73756666696369656e7460448201526064016105b6565b611d858282610d7c565b6109b05760008281526065602090815260408083206001600160a01b03851684529091529020805460ff19166001179055611dbd3390565b6001600160a01b0316816001600160a01b0316837f2f8788117e7eff1d82e926ec794901d17c78024a50270940304540a733656f0d60405160405180910390a45050565b6000610d75836001600160a01b038416612217565b611e208282610d7c565b156109b05760008281526065602090815260408083206001600160a01b0385168085529252808320805460ff1916905551339285917ff6391f5c32d9c69d2a47ea670b442974b53935d1edc7fd64eb21e047a839171b9190a45050565b6000610d75836001600160a01b038416612266565b611bd8868686868686612359565b60408051600180825281830190925260609160009190602080830190803683370190505090508281600081518110611eda57611eda612ddf565b602090810291909101015292915050565b6001600160a01b0384163b15611bd85760405163f23a6e6160e01b81526001600160a01b0385169063f23a6e6190611f2f908990899088908890889060040161322e565b6020604051808303816000875af1925050508015611f6a575060408051601f3d908101601f19168201909252611f6791810190613273565b60015b61201757611f76613290565b806308c379a01415611fb05750611f8b6132ac565b80611f965750611fb2565b8060405162461bcd60e51b81526004016105b691906126a3565b505b60405162461bcd60e51b815260206004820152603460248201527f455243313135353a207472616e7366657220746f206e6f6e20455243313135356044820152732932b1b2b4bb32b91034b6b83632b6b2b73a32b960611b60648201526084016105b6565b6001600160e01b0319811663f23a6e6160e01b146117195760405162461bcd60e51b81526004016105b690613335565b600082600001828154811061205e5761205e612ddf565b9060005260206000200154905092915050565b600054610100900460ff166120985760405162461bcd60e51b81526004016105b69061311e565b610cc881612475565b600054610100900460ff166120c85760405162461bcd60e51b81526004016105b69061311e565b61012d805460ff19169055565b600054610100900460ff166120fc5760405162461bcd60e51b81526004016105b69061311e565b612107600033612488565b61211f60008051602061341283398151915233612488565b610cc86000805160206133f283398151915233612488565b60006001600160e01b03198216635a05180f60e01b14806105e457506105e482612492565b6001600160a01b0384163b15611bd85760405163bc197c8160e01b81526001600160a01b0385169063bc197c81906121a0908990899088908890889060040161337d565b6020604051808303816000875af19250505080156121db575060408051601f3d908101601f191682019092526121d891810190613273565b60015b6121e757611f76613290565b6001600160e01b0319811663bc197c8160e01b146117195760405162461bcd60e51b81526004016105b690613335565b600081815260018301602052604081205461225e575081546001818101845560008481526020808220909301849055845484825282860190935260409020919091556105e4565b5060006105e4565b6000818152600183016020526040812054801561234f57600061228a600183612e60565b855490915060009061229e90600190612e60565b90508181146123035760008660000182815481106122be576122be612ddf565b90600052602060002001549050808760000184815481106122e1576122e1612ddf565b6000918252602080832090910192909255918252600188019052604090208390555b8554869080612314576123146133db565b6001900381819060005260206000200160009055905585600101600086815260200190815260200160002060009055600193505050506105e4565b60009150506105e4565b6123678686868686866124c7565b6001600160a01b0385166123ef5760005b83518110156123ed5782818151811061239357612393612ddf565b60200260200101516101c360008684815181106123b2576123b2612ddf565b6020026020010151815260200190815260200160002060008282546123d79190612e2d565b909155506123e6905081612e45565b9050612378565b505b6001600160a01b038416611bd85760005b83518110156117195782818151811061241b5761241b612ddf565b60200260200101516101c3600086848151811061243a5761243a612ddf565b60200260200101518152602001908152602001600020600082825461245f9190612e60565b9091555061246e905081612e45565b9050612400565b80516109b09060cb906020840190612539565b6109b08282611124565b60006001600160e01b03198216637965db0b60e01b14806105e457506301ffc9a760e01b6001600160e01b03198316146105e4565b611bd886868686868661012d5460ff1615611bd85760405162461bcd60e51b815260206004820152602c60248201527f455243313135355061757361626c653a20746f6b656e207472616e736665722060448201526b1dda1a5b19481c185d5cd95960a21b60648201526084016105b6565b82805461254590612da4565b90600052602060002090601f01602090048101928261256757600085556125ad565b82601f1061258057805160ff19168380011785556125ad565b828001600101855582156125ad579182015b828111156125ad578251825591602001919060010190612592565b506125b99291506125bd565b5090565b5b808211156125b957600081556001016125be565b80356001600160a01b03811681146125e957600080fd5b919050565b6000806040838503121561260157600080fd5b61260a836125d2565b946020939093013593505050565b6001600160e01b031981168114610cc857600080fd5b60006020828403121561264057600080fd5b8135610d7581612618565b60005b8381101561266657818101518382015260200161264e565b83811115610bf45750506000910152565b6000815180845261268f81602086016020860161264b565b601f01601f19169290920160200192915050565b602081526000610d756020830184612677565b6000602082840312156126c857600080fd5b5035919050565b634e487b7160e01b600052604160045260246000fd5b601f8201601f191681016001600160401b038111828210171561270a5761270a6126cf565b6040525050565b60006001600160401b0382111561272a5761272a6126cf565b5060051b60200190565b600082601f83011261274557600080fd5b8135602061275282612711565b60405161275f82826126e5565b83815260059390931b850182019282810191508684111561277f57600080fd5b8286015b8481101561279a5780358352918301918301612783565b509695505050505050565b60006001600160401b038311156127be576127be6126cf565b6040516127d5601f8501601f1916602001826126e5565b8091508381528484840111156127ea57600080fd5b83836020830137600060208583010152509392505050565b600082601f83011261281357600080fd5b610d75838335602085016127a5565b6000806000806080858703121561283857600080fd5b612841856125d2565b935060208501356001600160401b038082111561285d57600080fd5b61286988838901612734565b9450604087013591508082111561287f57600080fd5b61288b88838901612734565b935060608701359150808211156128a157600080fd5b506128ae87828801612802565b91505092959194509250565b600080600080600060a086880312156128d257600080fd5b6128db866125d2565b94506128e9602087016125d2565b935060408601356001600160401b038082111561290557600080fd5b61291189838a01612734565b9450606088013591508082111561292757600080fd5b61293389838a01612734565b9350608088013591508082111561294957600080fd5b5061295688828901612802565b9150509295509295909350565b6000806040838503121561297657600080fd5b82359150612986602084016125d2565b90509250929050565b600080604083850312156129a257600080fd5b82356001600160401b03808211156129b957600080fd5b818501915085601f8301126129cd57600080fd5b813560206129da82612711565b6040516129e782826126e5565b83815260059390931b8501820192828101915089841115612a0757600080fd5b948201945b83861015612a2c57612a1d866125d2565b82529482019490820190612a0c565b96505086013592505080821115612a4257600080fd5b50612a4f85828601612734565b9150509250929050565b600081518084526020808501945080840160005b83811015612a8957815187529582019590820190600101612a6d565b509495945050505050565b602081526000610d756020830184612a59565b600080600060608486031215612abc57600080fd5b612ac5846125d2565b925060208401356001600160401b0380821115612ae157600080fd5b612aed87838801612734565b93506040860135915080821115612b0357600080fd5b50612b1086828701612734565b9150509250925092565b60008060008060808587031215612b3057600080fd5b612b39856125d2565b9350602085013592506040850135915060608501356001600160401b03811115612b6257600080fd5b6128ae87828801612802565b60008060408385031215612b8157600080fd5b50508035926020909101359150565b60008060408385031215612ba357600080fd5b612bac836125d2565b915060208301358015158114612bc157600080fd5b809150509250929050565b60008060408385031215612bdf57600080fd5b82356001600160401b0380821115612bf657600080fd5b818501915085601f830112612c0a57600080fd5b81356020612c1782612711565b604051612c2482826126e5565b83815260059390931b8501820192828101915089841115612c4457600080fd5b8286015b84811015612c7c57803586811115612c605760008081fd5b612c6e8c86838b0101612802565b845250918301918301612c48565b5096505086013592505080821115612a4257600080fd5b60008060408385031215612ca657600080fd5b612caf836125d2565b9150612986602084016125d2565b600080600080600060a08688031215612cd557600080fd5b612cde866125d2565b9450612cec602087016125d2565b9350604086013592506060860135915060808601356001600160401b03811115612d1557600080fd5b61295688828901612802565b600080600060608486031215612d3657600080fd5b612d3f846125d2565b95602085013595506040909401359392505050565b600060208284031215612d6657600080fd5b81356001600160401b03811115612d7c57600080fd5b8201601f81018413612d8d57600080fd5b612d9c848235602084016127a5565b949350505050565b600181811c90821680612db857607f821691505b60208210811415612dd957634e487b7160e01b600052602260045260246000fd5b50919050565b634e487b7160e01b600052603260045260246000fd5b60008351612e0781846020880161264b565b9190910191825250602001919050565b634e487b7160e01b600052601160045260246000fd5b60008219821115612e4057612e40612e17565b500190565b6000600019821415612e5957612e59612e17565b5060010190565b600082821015612e7257612e72612e17565b500390565b60208082526029908201527f455243313135353a2063616c6c6572206973206e6f74206f776e6572206e6f7260408201526808185c1c1c9bdd995960ba1b606082015260800190565b60208082526038908201527f455243313135355072657365744d696e7465725061757365723a206d7573742060408201527f68617665206d696e74657220726f6c6520746f206d696e740000000000000000606082015260800190565b6020808252602e908201527f496e697469616c697a61626c653a20636f6e747261637420697320616c72656160408201526d191e481a5b9a5d1a585b1a5e995960921b606082015260800190565b7f416363657373436f6e74726f6c3a206163636f756e7420000000000000000000815260008351612fa381601785016020880161264b565b7001034b99036b4b9b9b4b733903937b6329607d1b6017918401918201528351612fd481602884016020880161264b565b01602801949350505050565b60208082526023908201527f455243313135353a206275726e2066726f6d20746865207a65726f206164647260408201526265737360e81b606082015260800190565b60208082526028908201527f455243313135353a2069647320616e6420616d6f756e7473206c656e677468206040820152670dad2e6dac2e8c6d60c31b606082015260800190565b60208082526024908201527f455243313135353a206275726e20616d6f756e7420657863656564732062616c604082015263616e636560e01b606082015260800190565b6040815260006130c26040830185612a59565b82810360208401526130d48185612a59565b95945050505050565b60208082526021908201527f455243313135353a206d696e7420746f20746865207a65726f206164647265736040820152607360f81b606082015260800190565b6020808252602b908201527f496e697469616c697a61626c653a20636f6e7472616374206973206e6f74206960408201526a6e697469616c697a696e6760a81b606082015260800190565b60208082526025908201527f455243313135353a207472616e7366657220746f20746865207a65726f206164604082015264647265737360d81b606082015260800190565b6020808252602a908201527f455243313135353a20696e73756666696369656e742062616c616e636520666f60408201526939103a3930b739b332b960b11b606082015260800190565b600081600019048311821515161561321257613212612e17565b500290565b60008161322657613226612e17565b506000190190565b6001600160a01b03868116825285166020820152604081018490526060810183905260a06080820181905260009061326890830184612677565b979650505050505050565b60006020828403121561328557600080fd5b8151610d7581612618565b600060033d11156132a95760046000803e5060005160e01c5b90565b600060443d10156132ba5790565b6040516003193d81016004833e81513d6001600160401b0381602484011181841117156132e957505050505090565b82850191508151818111156133015750505050505090565b843d870101602082850101111561331b5750505050505090565b61332a602082860101876126e5565b509095945050505050565b60208082526028908201527f455243313135353a204552433131353552656365697665722072656a656374656040820152676420746f6b656e7360c01b606082015260800190565b6001600160a01b0386811682528516602082015260a0604082018190526000906133a990830186612a59565b82810360608401526133bb8186612a59565b905082810360808401526133cf8185612677565b98975050505050505050565b634e487b7160e01b600052603160045260246000fdfe65d7a28e3265b37a6474929f336521b332c1681b933f6cb9f3376673440d862a9f2df0fed2c77648de5860a4cc508cd0818c85b8b8a1ab4ceeef8d981c8956a668747470733a2f2f6e6f72692e636f6d2f6170692f72656d6f76616c2f7b69647d2e6a736f6ea26469706673582212202d0ac6980b7e04f81eb0d8e4d3807966e5d9877ce412057f676cf6461868248564736f6c634300080a0033",
  "linkReferences": {},
  "deployedLinkReferences": {}
}