{
  "_format": "hh-sol-artifact-1",
  "contractName": "Removal",
  "sourceName": "contracts/Removal.sol",
  "abi": [
    {
      "inputs": [],
      "name": "TokenIdExists",
      "type": "error"
    },
    {
      "anonymous": false,
      "inputs": [
        {
          "indexed": true,
          "internalType": "address",
          "name": "account",
          "type": "address"
        },
        {
          "indexed": true,
          "internalType": "address",
          "name": "operator",
          "type": "address"
        },
        {
          "indexed": false,
          "internalType": "bool",
          "name": "approved",
          "type": "bool"
        }
      ],
      "name": "ApprovalForAll",
      "type": "event"
    },
    {
      "anonymous": false,
      "inputs": [
        {
          "indexed": false,
          "internalType": "address",
          "name": "account",
          "type": "address"
        }
      ],
      "name": "Paused",
      "type": "event"
    },
    {
      "anonymous": false,
      "inputs": [
        {
          "indexed": true,
          "internalType": "bytes32",
          "name": "role",
          "type": "bytes32"
        },
        {
          "indexed": true,
          "internalType": "bytes32",
          "name": "previousAdminRole",
          "type": "bytes32"
        },
        {
          "indexed": true,
          "internalType": "bytes32",
          "name": "newAdminRole",
          "type": "bytes32"
        }
      ],
      "name": "RoleAdminChanged",
      "type": "event"
    },
    {
      "anonymous": false,
      "inputs": [
        {
          "indexed": true,
          "internalType": "bytes32",
          "name": "role",
          "type": "bytes32"
        },
        {
          "indexed": true,
          "internalType": "address",
          "name": "account",
          "type": "address"
        },
        {
          "indexed": true,
          "internalType": "address",
          "name": "sender",
          "type": "address"
        }
      ],
      "name": "RoleGranted",
      "type": "event"
    },
    {
      "anonymous": false,
      "inputs": [
        {
          "indexed": true,
          "internalType": "bytes32",
          "name": "role",
          "type": "bytes32"
        },
        {
          "indexed": true,
          "internalType": "address",
          "name": "account",
          "type": "address"
        },
        {
          "indexed": true,
          "internalType": "address",
          "name": "sender",
          "type": "address"
        }
      ],
      "name": "RoleRevoked",
      "type": "event"
    },
    {
      "anonymous": false,
      "inputs": [
        {
          "indexed": true,
          "internalType": "address",
          "name": "operator",
          "type": "address"
        },
        {
          "indexed": true,
          "internalType": "address",
          "name": "from",
          "type": "address"
        },
        {
          "indexed": true,
          "internalType": "address",
          "name": "to",
          "type": "address"
        },
        {
          "indexed": false,
          "internalType": "uint256[]",
          "name": "ids",
          "type": "uint256[]"
        },
        {
          "indexed": false,
          "internalType": "uint256[]",
          "name": "values",
          "type": "uint256[]"
        }
      ],
      "name": "TransferBatch",
      "type": "event"
    },
    {
      "anonymous": false,
      "inputs": [
        {
          "indexed": true,
          "internalType": "address",
          "name": "operator",
          "type": "address"
        },
        {
          "indexed": true,
          "internalType": "address",
          "name": "from",
          "type": "address"
        },
        {
          "indexed": true,
          "internalType": "address",
          "name": "to",
          "type": "address"
        },
        {
          "indexed": false,
          "internalType": "uint256",
          "name": "id",
          "type": "uint256"
        },
        {
          "indexed": false,
          "internalType": "uint256",
          "name": "value",
          "type": "uint256"
        }
      ],
      "name": "TransferSingle",
      "type": "event"
    },
    {
      "anonymous": false,
      "inputs": [
        {
          "indexed": false,
          "internalType": "string",
          "name": "value",
          "type": "string"
        },
        {
          "indexed": true,
          "internalType": "uint256",
          "name": "id",
          "type": "uint256"
        }
      ],
      "name": "URI",
      "type": "event"
    },
    {
      "anonymous": false,
      "inputs": [
        {
          "indexed": false,
          "internalType": "address",
          "name": "account",
          "type": "address"
        }
      ],
      "name": "Unpaused",
      "type": "event"
    },
    {
      "inputs": [],
      "name": "DEFAULT_ADMIN_ROLE",
      "outputs": [
        {
          "internalType": "bytes32",
          "name": "",
          "type": "bytes32"
        }
      ],
      "stateMutability": "view",
      "type": "function"
    },
    {
      "inputs": [],
      "name": "MINTER_ROLE",
      "outputs": [
        {
          "internalType": "bytes32",
          "name": "",
          "type": "bytes32"
        }
      ],
      "stateMutability": "view",
      "type": "function"
    },
    {
      "inputs": [],
      "name": "PAUSER_ROLE",
      "outputs": [
        {
          "internalType": "bytes32",
          "name": "",
          "type": "bytes32"
        }
      ],
      "stateMutability": "view",
      "type": "function"
    },
    {
      "inputs": [
        {
          "internalType": "address",
          "name": "account",
          "type": "address"
        },
        {
          "internalType": "uint256",
          "name": "id",
          "type": "uint256"
        }
      ],
      "name": "balanceOf",
      "outputs": [
        {
          "internalType": "uint256",
          "name": "",
          "type": "uint256"
        }
      ],
      "stateMutability": "view",
      "type": "function"
    },
    {
      "inputs": [
        {
          "internalType": "address[]",
          "name": "accounts",
          "type": "address[]"
        },
        {
          "internalType": "uint256[]",
          "name": "ids",
          "type": "uint256[]"
        }
      ],
      "name": "balanceOfBatch",
      "outputs": [
        {
          "internalType": "uint256[]",
          "name": "",
          "type": "uint256[]"
        }
      ],
      "stateMutability": "view",
      "type": "function"
    },
    {
      "inputs": [
        {
          "internalType": "address",
          "name": "account",
          "type": "address"
        },
        {
          "internalType": "uint256",
          "name": "id",
          "type": "uint256"
        },
        {
          "internalType": "uint256",
          "name": "value",
          "type": "uint256"
        }
      ],
      "name": "burn",
      "outputs": [],
      "stateMutability": "nonpayable",
      "type": "function"
    },
    {
      "inputs": [
        {
          "internalType": "address",
          "name": "account",
          "type": "address"
        },
        {
          "internalType": "uint256[]",
          "name": "ids",
          "type": "uint256[]"
        },
        {
          "internalType": "uint256[]",
          "name": "values",
          "type": "uint256[]"
        }
      ],
      "name": "burnBatch",
      "outputs": [],
      "stateMutability": "nonpayable",
      "type": "function"
    },
    {
      "inputs": [
        {
          "internalType": "bytes",
          "name": "removalData",
          "type": "bytes"
        }
      ],
      "name": "createRemovalId",
      "outputs": [
        {
          "internalType": "uint256",
          "name": "",
          "type": "uint256"
        }
      ],
      "stateMutability": "pure",
      "type": "function"
    },
    {
      "inputs": [
        {
          "internalType": "uint256",
          "name": "id",
          "type": "uint256"
        }
      ],
      "name": "exists",
      "outputs": [
        {
          "internalType": "bool",
          "name": "",
          "type": "bool"
        }
      ],
      "stateMutability": "view",
      "type": "function"
    },
    {
      "inputs": [
        {
          "internalType": "uint256",
          "name": "removalId",
          "type": "uint256"
        }
      ],
      "name": "getEscrowScheduleIdForRemoval",
      "outputs": [
        {
          "internalType": "uint256",
          "name": "",
          "type": "uint256"
        }
      ],
      "stateMutability": "view",
      "type": "function"
    },
    {
      "inputs": [
        {
          "internalType": "bytes32",
          "name": "role",
          "type": "bytes32"
        }
      ],
      "name": "getRoleAdmin",
      "outputs": [
        {
          "internalType": "bytes32",
          "name": "",
          "type": "bytes32"
        }
      ],
      "stateMutability": "view",
      "type": "function"
    },
    {
      "inputs": [
        {
          "internalType": "bytes32",
          "name": "role",
          "type": "bytes32"
        },
        {
          "internalType": "uint256",
          "name": "index",
          "type": "uint256"
        }
      ],
      "name": "getRoleMember",
      "outputs": [
        {
          "internalType": "address",
          "name": "",
          "type": "address"
        }
      ],
      "stateMutability": "view",
      "type": "function"
    },
    {
      "inputs": [
        {
          "internalType": "bytes32",
          "name": "role",
          "type": "bytes32"
        }
      ],
      "name": "getRoleMemberCount",
      "outputs": [
        {
          "internalType": "uint256",
          "name": "",
          "type": "uint256"
        }
      ],
      "stateMutability": "view",
      "type": "function"
    },
    {
      "inputs": [
        {
          "internalType": "bytes32",
          "name": "role",
          "type": "bytes32"
        },
        {
          "internalType": "address",
          "name": "account",
          "type": "address"
        }
      ],
      "name": "grantRole",
      "outputs": [],
      "stateMutability": "nonpayable",
      "type": "function"
    },
    {
      "inputs": [
        {
          "internalType": "bytes32",
          "name": "role",
          "type": "bytes32"
        },
        {
          "internalType": "address",
          "name": "account",
          "type": "address"
        }
      ],
      "name": "hasRole",
      "outputs": [
        {
          "internalType": "bool",
          "name": "",
          "type": "bool"
        }
      ],
      "stateMutability": "view",
      "type": "function"
    },
    {
      "inputs": [
        {
          "internalType": "uint256",
          "name": "",
          "type": "uint256"
        }
      ],
      "name": "indexToTokenId",
      "outputs": [
        {
          "internalType": "uint256",
          "name": "",
          "type": "uint256"
        }
      ],
      "stateMutability": "view",
      "type": "function"
    },
    {
      "inputs": [],
      "name": "initialize",
      "outputs": [],
      "stateMutability": "nonpayable",
      "type": "function"
    },
    {
      "inputs": [
        {
          "internalType": "string",
          "name": "uri",
          "type": "string"
        }
      ],
      "name": "initialize",
      "outputs": [],
      "stateMutability": "nonpayable",
      "type": "function"
    },
    {
      "inputs": [
        {
          "internalType": "address",
          "name": "account",
          "type": "address"
        },
        {
          "internalType": "address",
          "name": "operator",
          "type": "address"
        }
      ],
      "name": "isApprovedForAll",
      "outputs": [
        {
          "internalType": "bool",
          "name": "",
          "type": "bool"
        }
      ],
      "stateMutability": "view",
      "type": "function"
    },
    {
      "inputs": [
        {
          "internalType": "address",
          "name": "to",
          "type": "address"
        },
        {
          "internalType": "uint256",
          "name": "id",
          "type": "uint256"
        },
        {
          "internalType": "uint256",
          "name": "amount",
          "type": "uint256"
        },
        {
          "internalType": "bytes",
          "name": "data",
          "type": "bytes"
        }
      ],
      "name": "mint",
      "outputs": [],
      "stateMutability": "nonpayable",
      "type": "function"
    },
    {
      "inputs": [
        {
          "internalType": "address",
          "name": "",
          "type": "address"
        },
        {
          "internalType": "uint256[]",
          "name": "",
          "type": "uint256[]"
        },
        {
          "internalType": "uint256[]",
          "name": "",
          "type": "uint256[]"
        },
        {
          "internalType": "bytes",
          "name": "",
          "type": "bytes"
        }
      ],
      "name": "mintBatch",
      "outputs": [],
      "stateMutability": "pure",
      "type": "function"
    },
    {
      "inputs": [
        {
          "internalType": "address",
          "name": "to",
          "type": "address"
        },
        {
          "internalType": "uint256[]",
          "name": "amounts",
          "type": "uint256[]"
        },
        {
          "internalType": "uint256[]",
          "name": "ids",
          "type": "uint256[]"
        },
        {
          "internalType": "uint256[]",
          "name": "escrowScheduleStartTimes",
          "type": "uint256[]"
        },
        {
          "internalType": "bytes",
          "name": "data",
          "type": "bytes"
        }
      ],
      "name": "mintRemovalBatch",
      "outputs": [],
      "stateMutability": "nonpayable",
      "type": "function"
    },
    {
      "inputs": [],
      "name": "name",
      "outputs": [
        {
          "internalType": "string",
          "name": "",
          "type": "string"
        }
      ],
      "stateMutability": "view",
      "type": "function"
    },
    {
      "inputs": [],
      "name": "pause",
      "outputs": [],
      "stateMutability": "nonpayable",
      "type": "function"
    },
    {
      "inputs": [],
      "name": "paused",
      "outputs": [
        {
          "internalType": "bool",
          "name": "",
          "type": "bool"
        }
      ],
      "stateMutability": "view",
      "type": "function"
    },
    {
      "inputs": [
        {
          "internalType": "bytes32",
          "name": "role",
          "type": "bytes32"
        },
        {
          "internalType": "address",
          "name": "account",
          "type": "address"
        }
      ],
      "name": "renounceRole",
      "outputs": [],
      "stateMutability": "nonpayable",
      "type": "function"
    },
    {
      "inputs": [
        {
          "internalType": "bytes32",
          "name": "role",
          "type": "bytes32"
        },
        {
          "internalType": "address",
          "name": "account",
          "type": "address"
        }
      ],
      "name": "revokeRole",
      "outputs": [],
      "stateMutability": "nonpayable",
      "type": "function"
    },
    {
      "inputs": [
        {
          "internalType": "address",
          "name": "_from",
          "type": "address"
        },
        {
          "internalType": "address",
          "name": "_to",
          "type": "address"
        },
        {
          "internalType": "uint256[]",
          "name": "_ids",
          "type": "uint256[]"
        },
        {
          "internalType": "uint256[]",
          "name": "_amounts",
          "type": "uint256[]"
        },
        {
          "internalType": "bytes",
          "name": "_data",
          "type": "bytes"
        }
      ],
      "name": "safeBatchTransferFrom",
      "outputs": [],
      "stateMutability": "nonpayable",
      "type": "function"
    },
    {
      "inputs": [
        {
          "internalType": "address",
          "name": "from",
          "type": "address"
        },
        {
          "internalType": "address",
          "name": "to",
          "type": "address"
        },
        {
          "internalType": "uint256",
          "name": "id",
          "type": "uint256"
        },
        {
          "internalType": "uint256",
          "name": "amount",
          "type": "uint256"
        },
        {
          "internalType": "bytes",
          "name": "data",
          "type": "bytes"
        }
      ],
      "name": "safeTransferFrom",
      "outputs": [],
      "stateMutability": "nonpayable",
      "type": "function"
    },
    {
      "inputs": [
        {
          "internalType": "address",
          "name": "owner",
          "type": "address"
        },
        {
          "internalType": "address",
          "name": "operator",
          "type": "address"
        },
        {
          "internalType": "bool",
          "name": "approved",
          "type": "bool"
        }
      ],
      "name": "setApprovalForAll",
      "outputs": [],
      "stateMutability": "nonpayable",
      "type": "function"
    },
    {
      "inputs": [
        {
          "internalType": "address",
          "name": "operator",
          "type": "address"
        },
        {
          "internalType": "bool",
          "name": "approved",
          "type": "bool"
        }
      ],
      "name": "setApprovalForAll",
      "outputs": [],
      "stateMutability": "nonpayable",
      "type": "function"
    },
    {
      "inputs": [
        {
          "internalType": "bytes4",
          "name": "interfaceId",
          "type": "bytes4"
        }
      ],
      "name": "supportsInterface",
      "outputs": [
        {
          "internalType": "bool",
          "name": "",
          "type": "bool"
        }
      ],
      "stateMutability": "view",
      "type": "function"
    },
    {
      "inputs": [],
      "name": "tokenIdCounter",
      "outputs": [
        {
          "internalType": "uint256",
          "name": "",
          "type": "uint256"
        }
      ],
      "stateMutability": "view",
      "type": "function"
    },
    {
      "inputs": [
        {
          "internalType": "uint256",
          "name": "id",
          "type": "uint256"
        }
      ],
      "name": "totalSupply",
      "outputs": [
        {
          "internalType": "uint256",
          "name": "",
          "type": "uint256"
        }
      ],
      "stateMutability": "view",
      "type": "function"
    },
    {
      "inputs": [
        {
          "internalType": "uint256",
          "name": "removalId",
          "type": "uint256"
        }
      ],
      "name": "unpackRemovalIdV0",
      "outputs": [
        {
          "components": [
            {
              "internalType": "uint8",
              "name": "idVersion",
              "type": "uint8"
            },
            {
              "internalType": "uint8",
              "name": "methodology",
              "type": "uint8"
            },
            {
              "internalType": "uint8",
              "name": "methodologyVersion",
              "type": "uint8"
            },
            {
              "internalType": "uint16",
              "name": "vintage",
              "type": "uint16"
            },
            {
              "internalType": "bytes2",
              "name": "country",
              "type": "bytes2"
            },
            {
              "internalType": "bytes2",
              "name": "subdivision",
              "type": "bytes2"
            },
            {
              "internalType": "address",
              "name": "supplierAddress",
              "type": "address"
            },
            {
              "internalType": "uint32",
              "name": "subIdentifier",
              "type": "uint32"
            }
          ],
          "internalType": "struct UnpackedRemovalIdV0",
          "name": "",
          "type": "tuple"
        }
      ],
      "stateMutability": "pure",
      "type": "function"
    },
    {
      "inputs": [],
      "name": "unpause",
      "outputs": [],
      "stateMutability": "nonpayable",
      "type": "function"
    },
    {
      "inputs": [
        {
          "internalType": "uint256",
          "name": "",
          "type": "uint256"
        }
      ],
      "name": "uri",
      "outputs": [
        {
          "internalType": "string",
          "name": "",
          "type": "string"
        }
      ],
      "stateMutability": "view",
      "type": "function"
    }
  ],
  "bytecode": "0x608060405234801561001057600080fd5b50613df0806100206000396000f3fe608060405234801561001057600080fd5b50600436106102265760003560e01c80637985f3a111610130578063bd85b039116100b8578063e63ab1e91161007c578063e63ab1e9146104f4578063e985e9c514610509578063f242432a14610545578063f5298aca14610558578063f62d18881461056b57600080fd5b8063bd85b03914610478578063ca15c87314610499578063d5391393146104ac578063d547741f146104c1578063d85a53e9146104d457600080fd5b80639010d07c116100ff5780639010d07c1461041557806391d148541461044057806398bdf6f514610453578063a217fddf1461045d578063a22cb4651461046557600080fd5b80637985f3a1146103d15780637aef1164146103e45780638129fc1c146104055780638456cb591461040d57600080fd5b8063367605ca116101b35780634f558e79116101825780634f558e791461035b5780635c975abb1461037e5780636b20c4541461038a578063731133e91461039d5780637932417b146103b057600080fd5b8063367605ca1461030d5780633f4ba83a1461032057806348ec4c3b146103285780634e1273f41461033b57600080fd5b80631f7fdffa116101fa5780631f7fdffa1461029c578063248a9ca3146102b15780632eb2c2d6146102d45780632f2ff15d146102e757806336568abe146102fa57600080fd5b8062fdd58e1461022b57806301ffc9a71461025157806306fdde03146102745780630e89341c14610289575b600080fd5b61023e610239366004612b77565b61057e565b6040519081526020015b60405180910390f35b61026461025f366004612bb9565b61061a565b6040519015158152602001610248565b61027c610625565b6040516102489190612c2e565b61027c610297366004612c41565b6106b4565b6102af6102aa366004612ce6565b610748565b005b61023e6102bf366004612c41565b60009081526065602052604090206001015490565b6102af6102e2366004612ee5565b6107a5565b6102af6102f5366004612f92565b6107b9565b6102af610308366004612f92565b6107e4565b6102af61031b366004612fd0565b610862565b6102af6108c6565b61023e61033636600461301b565b61095a565b61034e61034936600461305c565b61096d565b6040516102489190613163565b610264610369366004612c41565b60009081526101c36020526040902054151590565b61012d5460ff16610264565b6102af610398366004613176565b610a96565b6102af6103ab3660046131eb565b610ad9565b61023e6103be366004612c41565b60009081526101f9602052604090205490565b6102af6103df36600461324d565b610b19565b61023e6103f2366004612c41565b6101f76020526000908152604090205481565b6102af610da5565b6102af610e76565b6104286104233660046132ae565b610f08565b6040516001600160a01b039091168152602001610248565b61026461044e366004612f92565b610f20565b61023e6101f55481565b61023e600081565b6102af6104733660046132d0565b610f4b565b61023e610486366004612c41565b60009081526101c3602052604090205490565b61023e6104a7366004612c41565b610f56565b61023e600080516020613d7583398151915281565b6102af6104cf366004612f92565b610f6d565b6104e76104e2366004612c41565b610f93565b60405161024891906132fe565b61023e600080516020613d5583398151915281565b610264610517366004613395565b6001600160a01b03918216600090815260ca6020908152604080832093909416825291909152205460ff1690565b6102af6105533660046133c3565b610fa4565b6102af61056636600461342b565b610fe9565b6102af610579366004613460565b61102c565b60006001600160a01b0383166105ef5760405162461bcd60e51b815260206004820152602b60248201527f455243313135353a2062616c616e636520717565727920666f7220746865207a60448201526a65726f206164647265737360a81b60648201526084015b60405180910390fd5b50600081815260c9602090815260408083206001600160a01b03861684529091529020545b92915050565b6000610614826110a7565b6101f68054610633906134b0565b80601f016020809104026020016040519081016040528092919081815260200182805461065f906134b0565b80156106ac5780601f10610681576101008083540402835291602001916106ac565b820191906000526020600020905b81548152906001019060200180831161068f57829003601f168201915b505050505081565b606060cb80546106c3906134b0565b80601f01602080910402602001604051908101604052809291908181526020018280546106ef906134b0565b801561073c5780601f106107115761010080835404028352916020019161073c565b820191906000526020600020905b81548152906001019060200180831161071f57829003601f168201915b50505050509050919050565b60405162461bcd60e51b815260206004820152602c60248201527f52656d6f76616c3a206d696e744261746368207374616e64617264204552433160448201526b0c4d4d48191a5cd8589b195960a21b60648201526084016105e6565b6107b285858585856110b2565b5050505050565b6000828152606560205260409020600101546107d58133611142565b6107df83836111a6565b505050565b6001600160a01b03811633146108545760405162461bcd60e51b815260206004820152602f60248201527f416363657373436f6e74726f6c3a2063616e206f6e6c792072656e6f756e636560448201526e103937b632b9903337b91039b2b63360891b60648201526084016105e6565b61085e82826111c8565b5050565b600061086e8133611142565b61012d5460ff16156108b55760405162461bcd60e51b815260206004820152601060248201526f14185d5cd8589b194e881c185d5cd95960821b60448201526064016105e6565b6108c08484846111ea565b50505050565b6108de600080516020613d5583398151915233610f20565b6109505760405162461bcd60e51b815260206004820152603b60248201527f455243313135355072657365744d696e7465725061757365723a206d7573742060448201527f686176652070617573657220726f6c6520746f20756e7061757365000000000060648201526084016105e6565b6109586112ca565b565b6000610966838361135f565b9392505050565b606081518351146109d25760405162461bcd60e51b815260206004820152602960248201527f455243313135353a206163636f756e747320616e6420696473206c656e677468604482015268040dad2e6dac2e8c6d60bb1b60648201526084016105e6565b600083516001600160401b038111156109ed576109ed612d92565b604051908082528060200260200182016040528015610a16578160200160208202803683370190505b50905060005b8451811015610a8e57610a61858281518110610a3a57610a3a6134ea565b6020026020010151858381518110610a5457610a546134ea565b602002602001015161057e565b828281518110610a7357610a736134ea565b6020908102919091010152610a8781613516565b9050610a1c565b509392505050565b6001600160a01b038316331480610ab25750610ab28333610517565b610ace5760405162461bcd60e51b81526004016105e69061352f565b6107df838383611675565b610af1600080516020613d7583398151915233610f20565b610b0d5760405162461bcd60e51b81526004016105e690613578565b6108c084848484611806565b8251845114610b7b5760405162461bcd60e51b815260206004820152602860248201527f52656d6f76616c3a20616d6f756e747320616e6420696473206c656e677468206044820152670dad2e6dac2e8c6d60c31b60648201526084016105e6565b8151845114610be95760405162461bcd60e51b815260206004820152603460248201527f52656d6f76616c3a20616d6f756e747320616e6420657363726f7753636865646044820152730ead8caa6e8c2e4e8a8d2dacae65cd8cadccee8d60631b60648201526084016105e6565b600081806020019051810190610bff91906135d5565b905060005b8451811015610d69576101f86000868381518110610c2457610c246134ea565b60209081029190910181015182528101919091526040016000205460ff1615610c60576040516355e7cfc560e01b815260040160405180910390fd5b6040518060200160405280858381518110610c7d57610c7d6134ea565b60200260200101518152506101f96000878481518110610c9f57610c9f6134ea565b602002602001015181526020019081526020016000206000820151816000015590505060016101f86000878481518110610cdb57610cdb6134ea565b6020026020010151815260200190815260200160002060006101000a81548160ff021916908315150217905550848181518110610d1a57610d1a6134ea565b60200260200101516101f760006101f55481526020019081526020016000208190555060016101f56000828254610d519190613633565b90915550819050610d6181613516565b915050610c04565b50610d76868587856118de565b610d8286336001610862565b806020015115610d9d57610d9d8682600001518688866107a5565b505050505050565b600054610100900460ff16610dc05760005460ff1615610dc4565b303b155b610de05760405162461bcd60e51b81526004016105e69061364b565b600054610100900460ff16158015610e02576000805461ffff19166101011790555b610e23604051806060016040528060268152602001613d956026913961102c565b610e2b61191e565b60006101f5556040805180820190915260078082526614995b5bdd985b60ca1b6020909201918252610e60916101f691612a75565b508015610e73576000805461ff00191690555b50565b610e8e600080516020613d5583398151915233610f20565b610f005760405162461bcd60e51b815260206004820152603960248201527f455243313135355072657365744d696e7465725061757365723a206d7573742060448201527f686176652070617573657220726f6c6520746f2070617573650000000000000060648201526084016105e6565b610958611945565b600082815260976020526040812061096690836119c2565b60009182526065602090815260408084206001600160a01b0393909316845291905290205460ff1690565b61085e3383836111ea565b6000818152609760205260408120610614906119ce565b600082815260656020526040902060010154610f898133611142565b6107df83836111c8565b610f9b612af9565b610614826119d8565b6001600160a01b038516331480610fc05750610fc08533610517565b610fdc5760405162461bcd60e51b81526004016105e69061352f565b6107b28585858585611a8f565b6001600160a01b03831633148061100557506110058333610517565b6110215760405162461bcd60e51b81526004016105e69061352f565b6107df838383611bb0565b600054610100900460ff166110475760005460ff161561104b565b303b155b6110675760405162461bcd60e51b81526004016105e69061364b565b600054610100900460ff16158015611089576000805461ffff19166101011790555b61109282611cb5565b801561085e576000805461ff00191690555050565b600061061482611cf6565b6001600160a01b0385163314806110ce57506110ce8533610517565b6111355760405162461bcd60e51b815260206004820152603260248201527f455243313135353a207472616e736665722063616c6c6572206973206e6f74206044820152711bdddb995c881b9bdc88185c1c1c9bdd995960721b60648201526084016105e6565b6107b28585858585611d36565b61114c8282610f20565b61085e57611164816001600160a01b03166014611edb565b61116f836020611edb565b604051602001611180929190613699565b60408051601f198184030181529082905262461bcd60e51b82526105e691600401612c2e565b6111b08282612076565b60008281526097602052604090206107df90826120fc565b6111d28282612111565b60008281526097602052604090206107df9082612178565b816001600160a01b0316836001600160a01b03160361125d5760405162461bcd60e51b815260206004820152602960248201527f455243313135353a2073657474696e6720617070726f76616c20737461747573604482015268103337b91039b2b63360b91b60648201526084016105e6565b6001600160a01b03838116600081815260ca6020908152604080832094871680845294825291829020805460ff191686151590811790915591519182527f17307eab39ab6107e8899845ad3d59bd9653f200f220920489ca2b5937696c31910160405180910390a3505050565b61012d5460ff166113145760405162461bcd60e51b815260206004820152601460248201527314185d5cd8589b194e881b9bdd081c185d5cd95960621b60448201526064016105e6565b61012d805460ff191690557f5db9ee0a495bf2e6ff9c91a7834c1ba4fdd244a5e8aa4e537bd38aeae4b073aa335b6040516001600160a01b03909116815260200160405180910390a1565b60008061136e8385018561371f565b60ff16905080156113cd5760405162461bcd60e51b8152602060048201526024808201527f556e737570706f727465642072656d6f76616c20746f6b656e2069642076657260448201526339b4b7b760e11b60648201526084016105e6565b61010083146114315760405162461bcd60e51b815260206004820152602a60248201527f72656d6f76616c4461746120636f6e7461696e732077726f6e67206e756d626560448201526972206f6620627974657360b01b60648201526084016105e6565b600061143f84860186613778565b9050600f816020015160ff1611156114915760405162461bcd60e51b81526020600482015260156024820152744d6574686f6c6f646f677920746f6f206c6172676560581b60448201526064016105e6565b600f816040015160ff1611156114e95760405162461bcd60e51b815260206004820152601d60248201527f4d6574686f6c6f646f67792076657273696f6e20746f6f206c6172676500000060448201526064016105e6565b608081015160a082015160f882811c9260ff60f091821c8116939283901c9290911c166041841080159061151e5750605a8411155b801561152b575060418310155b80156115385750605a8311155b8015611545575060418210155b80156115525750605a8211155b801561155f575060418110155b801561156c5750605a8111155b6115a85760405162461bcd60e51b815260206004820152600d60248201526c496e76616c696420415343494960981b60448201526064016105e6565b600085604001516004876020015160ff16901b1760ff169050600860006115cf919061383c565b60e087015163ffffffff16901b6115e86008600461383c565b60c08801516001600160a01b0316901b6116046008601861383c565b60a089015160f01c901b61161a6008601a61383c565b60808a015160f01c901b6116306008601c61383c565b60608b015161ffff16901b6116476008601e61383c565b86901b6116566008601f61383c565b8c6000015160ff16901b17171717171797505050505050505092915050565b6001600160a01b03831661169b5760405162461bcd60e51b81526004016105e69061385b565b80518251146116bc5760405162461bcd60e51b81526004016105e69061389e565b60003390506116df8185600086866040518060200160405280600081525061218d565b60005b83518110156117a75760008482815181106116ff576116ff6134ea565b60200260200101519050600084838151811061171d5761171d6134ea565b602090810291909101810151600084815260c9835260408082206001600160a01b038c16835290935291909120549091508181101561176e5760405162461bcd60e51b81526004016105e6906138e6565b600092835260c9602090815260408085206001600160a01b038b168652909152909220910390558061179f81613516565b9150506116e2565b5060006001600160a01b0316846001600160a01b0316826001600160a01b03167f4a39dc06d4c0dbc64b70af90fd698a233a518aa5d07e595d983b8c0526c8f7fb86866040516117f892919061392a565b60405180910390a450505050565b6001600160a01b03841661182c5760405162461bcd60e51b81526004016105e690613958565b3361184c8160008761183d8861219b565b6118468861219b565b8761218d565b600084815260c9602090815260408083206001600160a01b03891684529091528120805485929061187e908490613633565b909155505060408051858152602081018590526001600160a01b0380881692600092918516917fc3d58168c5ae7397731d063d5bbf3d657854427343f4c083240f7aacaa2d0f62910160405180910390a46107b2816000878787876121e6565b6118f6600080516020613d7583398151915233610f20565b6119125760405162461bcd60e51b81526004016105e690613578565b6108c084848484612341565b600054610100900460ff166109585760405162461bcd60e51b81526004016105e690613999565b61012d5460ff161561198c5760405162461bcd60e51b815260206004820152601060248201526f14185d5cd8589b194e881c185d5cd95960821b60448201526064016105e6565b61012d805460ff191660011790557f62e78cea01bee320cd4e420270b5ea74000d11b0c9f74754ebdbfc544b05a2586113423390565b6000610966838361249c565b6000610614825490565b6119e0612af9565b6040518061010001604052806119f5846124c6565b60ff168152602001611a06846124d5565b60ff168152602001611a17846124ee565b60ff168152602001611a2884612506565b61ffff168152602001611a3a84612515565b6001600160f01b0319168152602001611a528461252d565b6001600160f01b0319168152602001611a6a8461253c565b6001600160a01b03168152602001611a818461254b565b63ffffffff16905292915050565b6001600160a01b038416611ab55760405162461bcd60e51b81526004016105e6906139e4565b33611ac581878761183d8861219b565b600084815260c9602090815260408083206001600160a01b038a16845290915290205483811015611b085760405162461bcd60e51b81526004016105e690613a29565b600085815260c9602090815260408083206001600160a01b038b8116855292528083208785039055908816825281208054869290611b47908490613633565b909155505060408051868152602081018690526001600160a01b03808916928a821692918616917fc3d58168c5ae7397731d063d5bbf3d657854427343f4c083240f7aacaa2d0f62910160405180910390a4611ba78288888888886121e6565b50505050505050565b6001600160a01b038316611bd65760405162461bcd60e51b81526004016105e69061385b565b33611c0581856000611be78761219b565b611bf08761219b565b6040518060200160405280600081525061218d565b600083815260c9602090815260408083206001600160a01b038816845290915290205482811015611c485760405162461bcd60e51b81526004016105e6906138e6565b600084815260c9602090815260408083206001600160a01b03898116808652918452828520888703905582518981529384018890529092908616917fc3d58168c5ae7397731d063d5bbf3d657854427343f4c083240f7aacaa2d0f62910160405180910390a45050505050565b600054610100900460ff16611cdc5760405162461bcd60e51b81526004016105e690613999565b611ce58161255a565b611ced61258a565b610e73816125be565b60006001600160e01b03198216636cdb3d1360e11b1480611d2757506001600160e01b031982166303a24d0760e21b145b80610614575061061482612620565b8151835114611d575760405162461bcd60e51b81526004016105e69061389e565b6001600160a01b038416611d7d5760405162461bcd60e51b81526004016105e6906139e4565b33611d8c81878787878761218d565b60005b8451811015611e75576000858281518110611dac57611dac6134ea565b602002602001015190506000858381518110611dca57611dca6134ea565b602090810291909101810151600084815260c9835260408082206001600160a01b038e168352909352919091205490915081811015611e1b5760405162461bcd60e51b81526004016105e690613a29565b600083815260c9602090815260408083206001600160a01b038e8116855292528083208585039055908b16825281208054849290611e5a908490613633565b9250508190555050505080611e6e90613516565b9050611d8f565b50846001600160a01b0316866001600160a01b0316826001600160a01b03167f4a39dc06d4c0dbc64b70af90fd698a233a518aa5d07e595d983b8c0526c8f7fb8787604051611ec592919061392a565b60405180910390a4610d9d818787878787612645565b60606000611eea83600261383c565b611ef5906002613633565b6001600160401b03811115611f0c57611f0c612d92565b6040519080825280601f01601f191660200182016040528015611f36576020820181803683370190505b509050600360fc1b81600081518110611f5157611f516134ea565b60200101906001600160f81b031916908160001a905350600f60fb1b81600181518110611f8057611f806134ea565b60200101906001600160f81b031916908160001a9053506000611fa484600261383c565b611faf906001613633565b90505b6001811115612027576f181899199a1a9b1b9c1cb0b131b232b360811b85600f1660108110611fe357611fe36134ea565b1a60f81b828281518110611ff957611ff96134ea565b60200101906001600160f81b031916908160001a90535060049490941c9361202081613a73565b9050611fb2565b5083156109665760405162461bcd60e51b815260206004820181905260248201527f537472696e67733a20686578206c656e67746820696e73756666696369656e7460448201526064016105e6565b6120808282610f20565b61085e5760008281526065602090815260408083206001600160a01b03851684529091529020805460ff191660011790556120b83390565b6001600160a01b0316816001600160a01b0316837f2f8788117e7eff1d82e926ec794901d17c78024a50270940304540a733656f0d60405160405180910390a45050565b6000610966836001600160a01b038416612700565b61211b8282610f20565b1561085e5760008281526065602090815260408083206001600160a01b0385168085529252808320805460ff1916905551339285917ff6391f5c32d9c69d2a47ea670b442974b53935d1edc7fd64eb21e047a839171b9190a45050565b6000610966836001600160a01b03841661274f565b610d9d868686868686612849565b604080516001808252818301909252606091600091906020808301908036833701905050905082816000815181106121d5576121d56134ea565b602090810291909101015292915050565b6001600160a01b0384163b15610d9d5760405163f23a6e6160e01b81526001600160a01b0385169063f23a6e619061222a9089908990889088908890600401613a8a565b6020604051808303816000875af1925050508015612265575060408051601f3d908101601f1916820190925261226291810190613acf565b60015b61231157612271613aec565b806308c379a0036122aa5750612285613b08565b8061229057506122ac565b8060405162461bcd60e51b81526004016105e69190612c2e565b505b60405162461bcd60e51b815260206004820152603460248201527f455243313135353a207472616e7366657220746f206e6f6e20455243313135356044820152732932b1b2b4bb32b91034b6b83632b6b2b73a32b960611b60648201526084016105e6565b6001600160e01b0319811663f23a6e6160e01b14611ba75760405162461bcd60e51b81526004016105e690613b91565b6001600160a01b0384166123675760405162461bcd60e51b81526004016105e690613958565b81518351146123885760405162461bcd60e51b81526004016105e69061389e565b336123988160008787878761218d565b60005b8451811015612434578381815181106123b6576123b66134ea565b602002602001015160c960008784815181106123d4576123d46134ea565b602002602001015181526020019081526020016000206000886001600160a01b03166001600160a01b03168152602001908152602001600020600082825461241c9190613633565b9091555081905061242c81613516565b91505061239b565b50846001600160a01b031660006001600160a01b0316826001600160a01b03167f4a39dc06d4c0dbc64b70af90fd698a233a518aa5d07e595d983b8c0526c8f7fb878760405161248592919061392a565b60405180910390a46107b281600087878787612645565b60008260000182815481106124b3576124b36134ea565b9060005260206000200154905092915050565b6000610614826001601f612965565b600060046124e6836001601e612965565b901c92915050565b60006124fd826001601e612965565b600f1692915050565b6000610614826002601c612965565b6000612524826002601a612965565b60f01b92915050565b60006125248260026018612965565b60006106148260146004612965565b60006106148260046000612965565b600054610100900460ff166125815760405162461bcd60e51b81526004016105e690613999565b610e73816129b1565b600054610100900460ff166125b15760405162461bcd60e51b81526004016105e690613999565b61012d805460ff19169055565b600054610100900460ff166125e55760405162461bcd60e51b81526004016105e690613999565b6125f06000336129c4565b612608600080516020613d75833981519152336129c4565b610e73600080516020613d55833981519152336129c4565b60006001600160e01b03198216635a05180f60e01b14806106145750610614826129ce565b6001600160a01b0384163b15610d9d5760405163bc197c8160e01b81526001600160a01b0385169063bc197c81906126899089908990889088908890600401613bd9565b6020604051808303816000875af19250505080156126c4575060408051601f3d908101601f191682019092526126c191810190613acf565b60015b6126d057612271613aec565b6001600160e01b0319811663bc197c8160e01b14611ba75760405162461bcd60e51b81526004016105e690613b91565b600081815260018301602052604081205461274757508154600181810184556000848152602080822090930184905584548482528286019093526040902091909155610614565b506000610614565b60008181526001830160205260408120548015612838576000612773600183613c37565b855490915060009061278790600190613c37565b90508181146127ec5760008660000182815481106127a7576127a76134ea565b90600052602060002001549050808760000184815481106127ca576127ca6134ea565b6000918252602080832090910192909255918252600188019052604090208390555b85548690806127fd576127fd613c4e565b600190038181906000526020600020016000905590558560010160008681526020019081526020016000206000905560019350505050610614565b6000915050610614565b5092915050565b612857868686868686612a03565b6001600160a01b0385166128df5760005b83518110156128dd57828181518110612883576128836134ea565b60200260200101516101c360008684815181106128a2576128a26134ea565b6020026020010151815260200190815260200160002060008282546128c79190613633565b909155506128d6905081613516565b9050612868565b505b6001600160a01b038416610d9d5760005b8351811015611ba75782818151811061290b5761290b6134ea565b60200260200101516101c3600086848151811061292a5761292a6134ea565b60200260200101518152602001908152602001600020600082825461294f9190613c37565b9091555061295e905081613516565b90506128f0565b60008061297360088461383c565b600161298060088761383c565b61298b906002613d48565b6129959190613c37565b901b90508481166129a760088561383c565b1c95945050505050565b805161085e9060cb906020840190612a75565b61085e82826111a6565b60006001600160e01b03198216637965db0b60e01b148061061457506301ffc9a760e01b6001600160e01b0319831614610614565b610d9d86868686868661012d5460ff1615610d9d5760405162461bcd60e51b815260206004820152602c60248201527f455243313135355061757361626c653a20746f6b656e207472616e736665722060448201526b1dda1a5b19481c185d5cd95960a21b60648201526084016105e6565b828054612a81906134b0565b90600052602060002090601f016020900481019282612aa35760008555612ae9565b82601f10612abc57805160ff1916838001178555612ae9565b82800160010185558215612ae9579182015b82811115612ae9578251825591602001919060010190612ace565b50612af5929150612b3d565b5090565b6040805161010081018252600080825260208201819052918101829052606081018290526080810182905260a0810182905260c0810182905260e081019190915290565b5b80821115612af55760008155600101612b3e565b6001600160a01b0381168114610e7357600080fd5b8035612b7281612b52565b919050565b60008060408385031215612b8a57600080fd5b8235612b9581612b52565b946020939093013593505050565b6001600160e01b031981168114610e7357600080fd5b600060208284031215612bcb57600080fd5b813561096681612ba3565b60005b83811015612bf1578181015183820152602001612bd9565b838111156108c05750506000910152565b60008151808452612c1a816020860160208601612bd6565b601f01601f19169290920160200192915050565b6020815260006109666020830184612c02565b600060208284031215612c5357600080fd5b5035919050565b60008083601f840112612c6c57600080fd5b5081356001600160401b03811115612c8357600080fd5b6020830191508360208260051b8501011115612c9e57600080fd5b9250929050565b60008083601f840112612cb757600080fd5b5081356001600160401b03811115612cce57600080fd5b602083019150836020828501011115612c9e57600080fd5b60008060008060008060006080888a031215612d0157600080fd5b8735612d0c81612b52565b965060208801356001600160401b0380821115612d2857600080fd5b612d348b838c01612c5a565b909850965060408a0135915080821115612d4d57600080fd5b612d598b838c01612c5a565b909650945060608a0135915080821115612d7257600080fd5b50612d7f8a828b01612ca5565b989b979a50959850939692959293505050565b634e487b7160e01b600052604160045260246000fd5b601f8201601f191681016001600160401b0381118282101715612dcd57612dcd612d92565b6040525050565b60006001600160401b03821115612ded57612ded612d92565b5060051b60200190565b600082601f830112612e0857600080fd5b81356020612e1582612dd4565b604051612e228282612da8565b83815260059390931b8501820192828101915086841115612e4257600080fd5b8286015b84811015612e5d5780358352918301918301612e46565b509695505050505050565b60006001600160401b03831115612e8157612e81612d92565b604051612e98601f8501601f191660200182612da8565b809150838152848484011115612ead57600080fd5b83836020830137600060208583010152509392505050565b600082601f830112612ed657600080fd5b61096683833560208501612e68565b600080600080600060a08688031215612efd57600080fd5b8535612f0881612b52565b94506020860135612f1881612b52565b935060408601356001600160401b0380821115612f3457600080fd5b612f4089838a01612df7565b94506060880135915080821115612f5657600080fd5b612f6289838a01612df7565b93506080880135915080821115612f7857600080fd5b50612f8588828901612ec5565b9150509295509295909350565b60008060408385031215612fa557600080fd5b823591506020830135612fb781612b52565b809150509250929050565b8015158114610e7357600080fd5b600080600060608486031215612fe557600080fd5b8335612ff081612b52565b9250602084013561300081612b52565b9150604084013561301081612fc2565b809150509250925092565b6000806020838503121561302e57600080fd5b82356001600160401b0381111561304457600080fd5b61305085828601612ca5565b90969095509350505050565b6000806040838503121561306f57600080fd5b82356001600160401b038082111561308657600080fd5b818501915085601f83011261309a57600080fd5b813560206130a782612dd4565b6040516130b48282612da8565b83815260059390931b85018201928281019150898411156130d457600080fd5b948201945b838610156130fb5785356130ec81612b52565b825294820194908201906130d9565b9650508601359250508082111561311157600080fd5b5061311e85828601612df7565b9150509250929050565b600081518084526020808501945080840160005b838110156131585781518752958201959082019060010161313c565b509495945050505050565b6020815260006109666020830184613128565b60008060006060848603121561318b57600080fd5b833561319681612b52565b925060208401356001600160401b03808211156131b257600080fd5b6131be87838801612df7565b935060408601359150808211156131d457600080fd5b506131e186828701612df7565b9150509250925092565b6000806000806080858703121561320157600080fd5b843561320c81612b52565b9350602085013592506040850135915060608501356001600160401b0381111561323557600080fd5b61324187828801612ec5565b91505092959194509250565b600080600080600060a0868803121561326557600080fd5b853561327081612b52565b945060208601356001600160401b038082111561328c57600080fd5b61329889838a01612df7565b95506040880135915080821115612f3457600080fd5b600080604083850312156132c157600080fd5b50508035926020909101359150565b600080604083850312156132e357600080fd5b82356132ee81612b52565b91506020830135612fb781612fc2565b60006101008201905060ff835116825260ff602084015116602083015260ff604084015116604083015261ffff606084015116606083015261ffff60f01b608084015116608083015260a083015161336260a08401826001600160f01b0319169052565b5060c083015161337d60c08401826001600160a01b03169052565b5060e083015161284260e084018263ffffffff169052565b600080604083850312156133a857600080fd5b82356133b381612b52565b91506020830135612fb781612b52565b600080600080600060a086880312156133db57600080fd5b85356133e681612b52565b945060208601356133f681612b52565b9350604086013592506060860135915060808601356001600160401b0381111561341f57600080fd5b612f8588828901612ec5565b60008060006060848603121561344057600080fd5b833561344b81612b52565b95602085013595506040909401359392505050565b60006020828403121561347257600080fd5b81356001600160401b0381111561348857600080fd5b8201601f8101841361349957600080fd5b6134a884823560208401612e68565b949350505050565b600181811c908216806134c457607f821691505b6020821081036134e457634e487b7160e01b600052602260045260246000fd5b50919050565b634e487b7160e01b600052603260045260246000fd5b634e487b7160e01b600052601160045260246000fd5b60006001820161352857613528613500565b5060010190565b60208082526029908201527f455243313135353a2063616c6c6572206973206e6f74206f776e6572206e6f7260408201526808185c1c1c9bdd995960ba1b606082015260800190565b60208082526038908201527f455243313135355072657365744d696e7465725061757365723a206d7573742060408201527f68617665206d696e74657220726f6c6520746f206d696e740000000000000000606082015260800190565b6000604082840312156135e757600080fd5b604051604081018181106001600160401b038211171561360957613609612d92565b604052825161361781612b52565b8152602083015161362781612fc2565b60208201529392505050565b6000821982111561364657613646613500565b500190565b6020808252602e908201527f496e697469616c697a61626c653a20636f6e747261637420697320616c72656160408201526d191e481a5b9a5d1a585b1a5e995960921b606082015260800190565b7f416363657373436f6e74726f6c3a206163636f756e74200000000000000000008152600083516136d1816017850160208801612bd6565b7001034b99036b4b9b9b4b733903937b6329607d1b6017918401918201528351613702816028840160208801612bd6565b01602801949350505050565b803560ff81168114612b7257600080fd5b60006020828403121561373157600080fd5b6109668261370e565b803561ffff81168114612b7257600080fd5b80356001600160f01b031981168114612b7257600080fd5b803563ffffffff81168114612b7257600080fd5b600061010080838503121561378c57600080fd5b604051908101906001600160401b03821181831017156137ae576137ae612d92565b816040526137bb8461370e565b81526137c96020850161370e565b60208201526137da6040850161370e565b60408201526137eb6060850161373a565b60608201526137fc6080850161374c565b608082015261380d60a0850161374c565b60a082015261381e60c08501612b67565b60c082015261382f60e08501613764565b60e0820152949350505050565b600081600019048311821515161561385657613856613500565b500290565b60208082526023908201527f455243313135353a206275726e2066726f6d20746865207a65726f206164647260408201526265737360e81b606082015260800190565b60208082526028908201527f455243313135353a2069647320616e6420616d6f756e7473206c656e677468206040820152670dad2e6dac2e8c6d60c31b606082015260800190565b60208082526024908201527f455243313135353a206275726e20616d6f756e7420657863656564732062616c604082015263616e636560e01b606082015260800190565b60408152600061393d6040830185613128565b828103602084015261394f8185613128565b95945050505050565b60208082526021908201527f455243313135353a206d696e7420746f20746865207a65726f206164647265736040820152607360f81b606082015260800190565b6020808252602b908201527f496e697469616c697a61626c653a20636f6e7472616374206973206e6f74206960408201526a6e697469616c697a696e6760a81b606082015260800190565b60208082526025908201527f455243313135353a207472616e7366657220746f20746865207a65726f206164604082015264647265737360d81b606082015260800190565b6020808252602a908201527f455243313135353a20696e73756666696369656e742062616c616e636520666f60408201526939103a3930b739b332b960b11b606082015260800190565b600081613a8257613a82613500565b506000190190565b6001600160a01b03868116825285166020820152604081018490526060810183905260a060808201819052600090613ac490830184612c02565b979650505050505050565b600060208284031215613ae157600080fd5b815161096681612ba3565b600060033d1115613b055760046000803e5060005160e01c5b90565b600060443d1015613b165790565b6040516003193d81016004833e81513d6001600160401b038160248401118184111715613b4557505050505090565b8285019150815181811115613b5d5750505050505090565b843d8701016020828501011115613b775750505050505090565b613b8660208286010187612da8565b509095945050505050565b60208082526028908201527f455243313135353a204552433131353552656365697665722072656a656374656040820152676420746f6b656e7360c01b606082015260800190565b6001600160a01b0386811682528516602082015260a060408201819052600090613c0590830186613128565b8281036060840152613c178186613128565b90508281036080840152613c2b8185612c02565b98975050505050505050565b600082821015613c4957613c49613500565b500390565b634e487b7160e01b600052603160045260246000fd5b600181815b80851115613c9f578160001904821115613c8557613c85613500565b80851615613c9257918102915b93841c9390800290613c69565b509250929050565b600082613cb657506001610614565b81613cc357506000610614565b8160018114613cd95760028114613ce357613cff565b6001915050610614565b60ff841115613cf457613cf4613500565b50506001821b610614565b5060208310610133831016604e8410600b8410161715613d22575081810a610614565b613d2c8383613c64565b8060001904821115613d4057613d40613500565b029392505050565b60006109668383613ca756fe65d7a28e3265b37a6474929f336521b332c1681b933f6cb9f3376673440d862a9f2df0fed2c77648de5860a4cc508cd0818c85b8b8a1ab4ceeef8d981c8956a668747470733a2f2f6e6f72692e636f6d2f6170692f72656d6f76616c2f7b69647d2e6a736f6ea26469706673582212209236250a64cf12d51f005da153606675fd5a3a0e41a7d0dc80a269959a1f52c964736f6c634300080d0033",
  "linkReferences": {},
  "deployedLinkReferences": {}
}