{
  "_format": "hh-sol-artifact-1",
  "contractName": "Removal",
  "sourceName": "contracts/Removal.sol",
  "abi": [
    {
      "inputs": [],
      "stateMutability": "nonpayable",
      "type": "constructor"
    },
    {
      "inputs": [
        {
          "internalType": "string",
          "name": "array1Name",
          "type": "string"
        },
        {
          "internalType": "string",
          "name": "array2Name",
          "type": "string"
        }
      ],
      "name": "ArrayLengthMismatch",
      "type": "error"
    },
    {
      "inputs": [
        {
          "internalType": "uint256",
          "name": "tokenId",
          "type": "uint256"
        }
      ],
      "name": "TokenIdDoesNotExist",
      "type": "error"
    },
    {
      "inputs": [
        {
          "internalType": "uint256",
          "name": "tokenId",
          "type": "uint256"
        }
      ],
      "name": "TokenIdExists",
      "type": "error"
    },
    {
      "anonymous": false,
      "inputs": [
        {
          "indexed": true,
          "internalType": "address",
          "name": "account",
          "type": "address"
        },
        {
          "indexed": true,
          "internalType": "address",
          "name": "operator",
          "type": "address"
        },
        {
          "indexed": false,
          "internalType": "bool",
          "name": "approved",
          "type": "bool"
        }
      ],
      "name": "ApprovalForAll",
      "type": "event"
    },
    {
      "anonymous": false,
      "inputs": [
        {
          "indexed": false,
          "internalType": "uint8",
          "name": "version",
          "type": "uint8"
        }
      ],
      "name": "Initialized",
      "type": "event"
    },
    {
      "anonymous": false,
      "inputs": [
        {
          "indexed": false,
          "internalType": "address",
          "name": "account",
          "type": "address"
        }
      ],
      "name": "Paused",
      "type": "event"
    },
    {
      "anonymous": false,
      "inputs": [
        {
          "indexed": true,
          "internalType": "bytes32",
          "name": "role",
          "type": "bytes32"
        },
        {
          "indexed": true,
          "internalType": "bytes32",
          "name": "previousAdminRole",
          "type": "bytes32"
        },
        {
          "indexed": true,
          "internalType": "bytes32",
          "name": "newAdminRole",
          "type": "bytes32"
        }
      ],
      "name": "RoleAdminChanged",
      "type": "event"
    },
    {
      "anonymous": false,
      "inputs": [
        {
          "indexed": true,
          "internalType": "bytes32",
          "name": "role",
          "type": "bytes32"
        },
        {
          "indexed": true,
          "internalType": "address",
          "name": "account",
          "type": "address"
        },
        {
          "indexed": true,
          "internalType": "address",
          "name": "sender",
          "type": "address"
        }
      ],
      "name": "RoleGranted",
      "type": "event"
    },
    {
      "anonymous": false,
      "inputs": [
        {
          "indexed": true,
          "internalType": "bytes32",
          "name": "role",
          "type": "bytes32"
        },
        {
          "indexed": true,
          "internalType": "address",
          "name": "account",
          "type": "address"
        },
        {
          "indexed": true,
          "internalType": "address",
          "name": "sender",
          "type": "address"
        }
      ],
      "name": "RoleRevoked",
      "type": "event"
    },
    {
      "anonymous": false,
      "inputs": [
        {
          "indexed": true,
          "internalType": "address",
          "name": "operator",
          "type": "address"
        },
        {
          "indexed": true,
          "internalType": "address",
          "name": "from",
          "type": "address"
        },
        {
          "indexed": true,
          "internalType": "address",
          "name": "to",
          "type": "address"
        },
        {
          "indexed": false,
          "internalType": "uint256[]",
          "name": "ids",
          "type": "uint256[]"
        },
        {
          "indexed": false,
          "internalType": "uint256[]",
          "name": "values",
          "type": "uint256[]"
        }
      ],
      "name": "TransferBatch",
      "type": "event"
    },
    {
      "anonymous": false,
      "inputs": [
        {
          "indexed": true,
          "internalType": "address",
          "name": "operator",
          "type": "address"
        },
        {
          "indexed": true,
          "internalType": "address",
          "name": "from",
          "type": "address"
        },
        {
          "indexed": true,
          "internalType": "address",
          "name": "to",
          "type": "address"
        },
        {
          "indexed": false,
          "internalType": "uint256",
          "name": "id",
          "type": "uint256"
        },
        {
          "indexed": false,
          "internalType": "uint256",
          "name": "value",
          "type": "uint256"
        }
      ],
      "name": "TransferSingle",
      "type": "event"
    },
    {
      "anonymous": false,
      "inputs": [
        {
          "indexed": false,
          "internalType": "string",
          "name": "value",
          "type": "string"
        },
        {
          "indexed": true,
          "internalType": "uint256",
          "name": "id",
          "type": "uint256"
        }
      ],
      "name": "URI",
      "type": "event"
    },
    {
      "anonymous": false,
      "inputs": [
        {
          "indexed": false,
          "internalType": "address",
          "name": "account",
          "type": "address"
        }
      ],
      "name": "Unpaused",
      "type": "event"
    },
    {
      "inputs": [],
      "name": "DEFAULT_ADMIN_ROLE",
      "outputs": [
        {
          "internalType": "bytes32",
          "name": "",
          "type": "bytes32"
        }
      ],
      "stateMutability": "view",
      "type": "function"
    },
    {
      "inputs": [],
      "name": "MINTER_ROLE",
      "outputs": [
        {
          "internalType": "bytes32",
          "name": "",
          "type": "bytes32"
        }
      ],
      "stateMutability": "view",
      "type": "function"
    },
    {
      "inputs": [],
      "name": "PAUSER_ROLE",
      "outputs": [
        {
          "internalType": "bytes32",
          "name": "",
          "type": "bytes32"
        }
      ],
      "stateMutability": "view",
      "type": "function"
    },
    {
      "inputs": [],
      "name": "RELEASER_ROLE",
      "outputs": [
        {
          "internalType": "bytes32",
          "name": "",
          "type": "bytes32"
        }
      ],
      "stateMutability": "view",
      "type": "function"
    },
    {
      "inputs": [
        {
          "internalType": "address",
          "name": "account",
          "type": "address"
        },
        {
          "internalType": "uint256",
          "name": "id",
          "type": "uint256"
        }
      ],
      "name": "balanceOf",
      "outputs": [
        {
          "internalType": "uint256",
          "name": "",
          "type": "uint256"
        }
      ],
      "stateMutability": "view",
      "type": "function"
    },
    {
      "inputs": [
        {
          "internalType": "address[]",
          "name": "accounts",
          "type": "address[]"
        },
        {
          "internalType": "uint256[]",
          "name": "ids",
          "type": "uint256[]"
        }
      ],
      "name": "balanceOfBatch",
      "outputs": [
        {
          "internalType": "uint256[]",
          "name": "",
          "type": "uint256[]"
        }
      ],
      "stateMutability": "view",
      "type": "function"
    },
    {
      "inputs": [
        {
          "internalType": "address",
          "name": "account",
          "type": "address"
        },
        {
          "internalType": "uint256[]",
          "name": "ids",
          "type": "uint256[]"
        }
      ],
      "name": "balanceOfIds",
      "outputs": [
        {
          "internalType": "uint256[]",
          "name": "",
          "type": "uint256[]"
        }
      ],
      "stateMutability": "view",
      "type": "function"
    },
    {
      "inputs": [
        {
          "internalType": "uint256[]",
          "name": "removalIds",
          "type": "uint256[]"
        }
      ],
      "name": "batchGetHoldbackPercentages",
      "outputs": [
        {
          "internalType": "uint256[]",
          "name": "",
          "type": "uint256[]"
        }
      ],
      "stateMutability": "view",
      "type": "function"
    },
    {
      "inputs": [
        {
          "internalType": "uint256[]",
          "name": "removalIds",
          "type": "uint256[]"
        },
        {
          "internalType": "uint256",
          "name": "holdbackPercentage",
          "type": "uint256"
        }
      ],
      "name": "batchSetHoldbackPercentage",
      "outputs": [],
      "stateMutability": "nonpayable",
      "type": "function"
    },
    {
      "inputs": [
        {
          "internalType": "address",
          "name": "account",
          "type": "address"
        },
        {
          "internalType": "uint256",
          "name": "id",
          "type": "uint256"
        },
        {
          "internalType": "uint256",
          "name": "value",
          "type": "uint256"
        }
      ],
      "name": "burn",
      "outputs": [],
      "stateMutability": "nonpayable",
      "type": "function"
    },
    {
      "inputs": [
        {
          "internalType": "address",
          "name": "account",
          "type": "address"
        },
        {
          "internalType": "uint256[]",
          "name": "ids",
          "type": "uint256[]"
        },
        {
          "internalType": "uint256[]",
          "name": "values",
          "type": "uint256[]"
        }
      ],
      "name": "burnBatch",
      "outputs": [],
      "stateMutability": "nonpayable",
      "type": "function"
    },
    {
      "inputs": [
        {
          "internalType": "bytes",
          "name": "removalData",
          "type": "bytes"
        }
      ],
      "name": "createRemovalId",
      "outputs": [
        {
          "internalType": "uint256",
          "name": "",
          "type": "uint256"
        }
      ],
      "stateMutability": "pure",
      "type": "function"
    },
    {
      "inputs": [
        {
          "internalType": "address",
          "name": "owner",
          "type": "address"
        }
      ],
      "name": "cumulativeBalanceOf",
      "outputs": [
        {
          "internalType": "uint256",
          "name": "",
          "type": "uint256"
        }
      ],
      "stateMutability": "view",
      "type": "function"
    },
    {
      "inputs": [
        {
          "internalType": "address[]",
          "name": "accounts",
          "type": "address[]"
        }
      ],
      "name": "cumulativeBalanceOfBatch",
      "outputs": [
        {
          "internalType": "uint256[]",
          "name": "",
          "type": "uint256[]"
        }
      ],
      "stateMutability": "view",
      "type": "function"
    },
    {
      "inputs": [
        {
          "internalType": "uint256",
          "name": "id",
          "type": "uint256"
        }
      ],
      "name": "exists",
      "outputs": [
        {
          "internalType": "bool",
          "name": "",
          "type": "bool"
        }
      ],
      "stateMutability": "view",
      "type": "function"
    },
    {
      "inputs": [
        {
          "internalType": "uint256",
          "name": "removalId",
          "type": "uint256"
        }
      ],
      "name": "getProjectIdForRemoval",
      "outputs": [
        {
          "internalType": "uint256",
          "name": "",
          "type": "uint256"
        }
      ],
      "stateMutability": "view",
      "type": "function"
    },
    {
      "inputs": [
        {
          "internalType": "bytes32",
          "name": "role",
          "type": "bytes32"
        }
      ],
      "name": "getRoleAdmin",
      "outputs": [
        {
          "internalType": "bytes32",
          "name": "",
          "type": "bytes32"
        }
      ],
      "stateMutability": "view",
      "type": "function"
    },
    {
      "inputs": [
        {
          "internalType": "bytes32",
          "name": "role",
          "type": "bytes32"
        },
        {
          "internalType": "uint256",
          "name": "index",
          "type": "uint256"
        }
      ],
      "name": "getRoleMember",
      "outputs": [
        {
          "internalType": "address",
          "name": "",
          "type": "address"
        }
      ],
      "stateMutability": "view",
      "type": "function"
    },
    {
      "inputs": [
        {
          "internalType": "bytes32",
          "name": "role",
          "type": "bytes32"
        }
      ],
      "name": "getRoleMemberCount",
      "outputs": [
        {
          "internalType": "uint256",
          "name": "",
          "type": "uint256"
        }
      ],
      "stateMutability": "view",
      "type": "function"
    },
    {
      "inputs": [
        {
          "internalType": "uint256",
          "name": "projectId",
          "type": "uint256"
        }
      ],
      "name": "getScheduleDataForProjectId",
      "outputs": [
        {
          "components": [
            {
              "internalType": "uint256",
              "name": "startTime",
              "type": "uint256"
            },
            {
              "internalType": "address",
              "name": "supplierAddress",
              "type": "address"
            },
            {
              "internalType": "uint256",
              "name": "methodology",
              "type": "uint256"
            },
            {
              "internalType": "uint256",
              "name": "methodologyVersion",
              "type": "uint256"
            }
          ],
          "internalType": "struct Removal.ScheduleData",
          "name": "",
          "type": "tuple"
        }
      ],
      "stateMutability": "view",
      "type": "function"
    },
    {
      "inputs": [
        {
          "internalType": "uint256",
          "name": "removalId",
          "type": "uint256"
        }
      ],
      "name": "getScheduleDataForRemovalId",
      "outputs": [
        {
          "components": [
            {
              "internalType": "uint256",
              "name": "startTime",
              "type": "uint256"
            },
            {
              "internalType": "address",
              "name": "supplierAddress",
              "type": "address"
            },
            {
              "internalType": "uint256",
              "name": "methodology",
              "type": "uint256"
            },
            {
              "internalType": "uint256",
              "name": "methodologyVersion",
              "type": "uint256"
            }
          ],
          "internalType": "struct Removal.ScheduleData",
          "name": "",
          "type": "tuple"
        }
      ],
      "stateMutability": "view",
      "type": "function"
    },
    {
      "inputs": [
        {
          "internalType": "bytes32",
          "name": "role",
          "type": "bytes32"
        },
        {
          "internalType": "address",
          "name": "account",
          "type": "address"
        }
      ],
      "name": "grantRole",
      "outputs": [],
      "stateMutability": "nonpayable",
      "type": "function"
    },
    {
      "inputs": [
        {
          "internalType": "bytes32",
          "name": "role",
          "type": "bytes32"
        },
        {
          "internalType": "address",
          "name": "account",
          "type": "address"
        }
      ],
      "name": "hasRole",
      "outputs": [
        {
          "internalType": "bool",
          "name": "",
          "type": "bool"
        }
      ],
      "stateMutability": "view",
      "type": "function"
    },
    {
      "inputs": [],
      "name": "initialize",
      "outputs": [],
      "stateMutability": "nonpayable",
      "type": "function"
    },
    {
      "inputs": [
        {
          "internalType": "address",
          "name": "account",
          "type": "address"
        },
        {
          "internalType": "address",
          "name": "operator",
          "type": "address"
        }
      ],
      "name": "isApprovedForAll",
      "outputs": [
        {
          "internalType": "bool",
          "name": "",
          "type": "bool"
        }
      ],
      "stateMutability": "view",
      "type": "function"
    },
    {
      "inputs": [],
      "name": "marketAddress",
      "outputs": [
        {
          "internalType": "address",
          "name": "",
          "type": "address"
        }
      ],
      "stateMutability": "view",
      "type": "function"
    },
    {
      "inputs": [
        {
          "internalType": "address",
          "name": "to",
          "type": "address"
        },
        {
          "internalType": "uint256[]",
          "name": "amounts",
          "type": "uint256[]"
        },
        {
          "internalType": "uint256[]",
          "name": "ids",
          "type": "uint256[]"
        },
        {
          "components": [
            {
              "internalType": "uint256",
              "name": "projectId",
              "type": "uint256"
            },
            {
              "internalType": "uint256",
              "name": "scheduleStartTime",
              "type": "uint256"
            },
            {
              "internalType": "uint256",
              "name": "holdbackPercentage",
              "type": "uint256"
            },
            {
              "internalType": "bool",
              "name": "list",
              "type": "bool"
            }
          ],
          "internalType": "struct BatchMintRemovalsData",
          "name": "data",
          "type": "tuple"
        }
      ],
      "name": "mintBatch",
      "outputs": [],
      "stateMutability": "nonpayable",
      "type": "function"
    },
    {
      "inputs": [
        {
          "internalType": "address",
          "name": "account",
          "type": "address"
        }
      ],
      "name": "numberOfTokensOwnedByAddress",
      "outputs": [
        {
          "internalType": "uint256",
          "name": "",
          "type": "uint256"
        }
      ],
      "stateMutability": "view",
      "type": "function"
    },
    {
      "inputs": [],
      "name": "paused",
      "outputs": [
        {
          "internalType": "bool",
          "name": "",
          "type": "bool"
        }
      ],
      "stateMutability": "view",
      "type": "function"
    },
    {
      "inputs": [
        {
          "internalType": "contract RestrictedNORI",
          "name": "restrictedNoriAddress_",
          "type": "address"
        },
        {
          "internalType": "contract Market",
          "name": "marketAddress_",
          "type": "address"
        }
      ],
      "name": "registerContractAddresses",
      "outputs": [],
      "stateMutability": "nonpayable",
      "type": "function"
    },
    {
      "inputs": [
        {
          "internalType": "address",
          "name": "owner",
          "type": "address"
        },
        {
          "internalType": "uint256",
          "name": "removalId",
          "type": "uint256"
        },
        {
          "internalType": "uint256",
          "name": "amount",
          "type": "uint256"
        }
      ],
      "name": "release",
      "outputs": [],
      "stateMutability": "nonpayable",
      "type": "function"
    },
    {
      "inputs": [
        {
          "internalType": "bytes32",
          "name": "role",
          "type": "bytes32"
        },
        {
          "internalType": "address",
          "name": "account",
          "type": "address"
        }
      ],
      "name": "renounceRole",
      "outputs": [],
      "stateMutability": "nonpayable",
      "type": "function"
    },
    {
      "inputs": [],
      "name": "restrictedNoriAddress",
      "outputs": [
        {
          "internalType": "address",
          "name": "",
          "type": "address"
        }
      ],
      "stateMutability": "view",
      "type": "function"
    },
    {
      "inputs": [
        {
          "internalType": "bytes32",
          "name": "role",
          "type": "bytes32"
        },
        {
          "internalType": "address",
          "name": "account",
          "type": "address"
        }
      ],
      "name": "revokeRole",
      "outputs": [],
      "stateMutability": "nonpayable",
      "type": "function"
    },
    {
      "inputs": [
        {
          "internalType": "address",
          "name": "from",
          "type": "address"
        },
        {
          "internalType": "address",
          "name": "to",
          "type": "address"
        },
        {
          "internalType": "uint256[]",
          "name": "ids",
          "type": "uint256[]"
        },
        {
          "internalType": "uint256[]",
          "name": "amounts",
          "type": "uint256[]"
        },
        {
          "internalType": "bytes",
          "name": "",
          "type": "bytes"
        }
      ],
      "name": "safeBatchTransferFrom",
      "outputs": [],
      "stateMutability": "nonpayable",
      "type": "function"
    },
    {
      "inputs": [
        {
          "internalType": "address",
          "name": "from",
          "type": "address"
        },
        {
          "internalType": "address",
          "name": "to",
          "type": "address"
        },
        {
          "internalType": "uint256",
          "name": "id",
          "type": "uint256"
        },
        {
          "internalType": "uint256",
          "name": "amount",
          "type": "uint256"
        },
        {
          "internalType": "bytes",
          "name": "data",
          "type": "bytes"
        }
      ],
      "name": "safeTransferFrom",
      "outputs": [],
      "stateMutability": "nonpayable",
      "type": "function"
    },
    {
      "inputs": [
        {
          "internalType": "address",
          "name": "operator",
          "type": "address"
        },
        {
          "internalType": "bool",
          "name": "approved",
          "type": "bool"
        }
      ],
      "name": "setApprovalForAll",
      "outputs": [],
      "stateMutability": "nonpayable",
      "type": "function"
    },
    {
      "inputs": [
        {
          "internalType": "bytes4",
          "name": "interfaceId",
          "type": "bytes4"
        }
      ],
      "name": "supportsInterface",
      "outputs": [
        {
          "internalType": "bool",
          "name": "",
          "type": "bool"
        }
      ],
      "stateMutability": "view",
      "type": "function"
    },
    {
      "inputs": [
        {
          "internalType": "address",
          "name": "owner",
          "type": "address"
        }
      ],
      "name": "tokensOfOwner",
      "outputs": [
        {
          "internalType": "uint256[]",
          "name": "",
          "type": "uint256[]"
        }
      ],
      "stateMutability": "view",
      "type": "function"
    },
    {
      "inputs": [
        {
          "internalType": "uint256",
          "name": "id",
          "type": "uint256"
        }
      ],
      "name": "totalSupply",
      "outputs": [
        {
          "internalType": "uint256",
          "name": "",
          "type": "uint256"
        }
      ],
      "stateMutability": "view",
      "type": "function"
    },
    {
      "inputs": [
        {
          "internalType": "uint256",
          "name": "removalId",
          "type": "uint256"
        }
      ],
      "name": "unpackRemovalIdV0",
      "outputs": [
        {
          "components": [
            {
              "internalType": "uint8",
              "name": "idVersion",
              "type": "uint8"
            },
            {
              "internalType": "uint8",
              "name": "methodology",
              "type": "uint8"
            },
            {
              "internalType": "uint8",
              "name": "methodologyVersion",
              "type": "uint8"
            },
            {
              "internalType": "uint16",
              "name": "vintage",
              "type": "uint16"
            },
            {
              "internalType": "bytes2",
              "name": "country",
              "type": "bytes2"
            },
            {
              "internalType": "bytes2",
              "name": "subdivision",
              "type": "bytes2"
            },
            {
              "internalType": "address",
              "name": "supplierAddress",
              "type": "address"
            },
            {
              "internalType": "uint32",
              "name": "subIdentifier",
              "type": "uint32"
            }
          ],
          "internalType": "struct UnpackedRemovalIdV0",
          "name": "",
          "type": "tuple"
        }
      ],
      "stateMutability": "pure",
      "type": "function"
    },
    {
      "inputs": [
        {
          "internalType": "uint256",
          "name": "",
          "type": "uint256"
        }
      ],
      "name": "uri",
      "outputs": [
        {
          "internalType": "string",
          "name": "",
          "type": "string"
        }
      ],
      "stateMutability": "view",
      "type": "function"
    }
  ],
  "bytecode": "0x60806040523480156200001157600080fd5b506200001c62000022565b620000e4565b600054610100900460ff16156200008f5760405162461bcd60e51b815260206004820152602760248201527f496e697469616c697a61626c653a20636f6e747261637420697320696e697469604482015266616c697a696e6760c81b606482015260840160405180910390fd5b60005460ff9081161015620000e2576000805460ff191660ff9081179091556040519081527f7f26b83ff96e1f2b6a682f133852f6798a09c465da95921460cefb38474024989060200160405180910390a15b565b6155b880620000f46000396000f3fe608060405234801561001057600080fd5b50600436106102dd5760003560e01c806393ae796d11610186578063c1b8ecdd116100e3578063e0fc293811610097578063f242432a11610071578063f242432a1461075a578063f297be661461076d578063f5298aca1461078057600080fd5b8063e0fc2938146106c9578063e63ab1e9146106ea578063e985e9c51461071157600080fd5b8063d5391393116100c8578063d53913931461066f578063d547741f14610696578063d85a53e9146106a957600080fd5b8063c1b8ecdd14610649578063ca15c8731461065c57600080fd5b8063a42f30611161013a578063ac28af241161011f578063ac28af24146105ee578063b6477cc014610615578063bd85b0391461062857600080fd5b8063a42f3061146105c8578063a53ba527146105db57600080fd5b806399d5121b1161016b57806399d5121b1461059a578063a217fddf146105ad578063a22cb465146105b557600080fd5b806393ae796d14610568578063956236411461057b57600080fd5b80634e1273f41161023f5780637f7081fa116101f3578063854560a4116101cd578063854560a4146104fb5780639010d07c1461050e57806391d148541461052157600080fd5b80637f7081fa146104a05780638129fc1c146104e05780638462151c146104e857600080fd5b80635c975abb116102245780635c975abb1461046f5780636b20c4541461047a578063789e8cdf1461048d57600080fd5b80634e1273f4146104395780634f558e791461044c57600080fd5b8063248a9ca3116102965780632f2ff15d1161027b5780632f2ff15d1461040057806336568abe1461041357806348ec4c3b1461042657600080fd5b8063248a9ca3146103c75780632eb2c2d6146103eb57600080fd5b806301ffc9a7116102c757806301ffc9a7146103285780630e89341c1461034b5780631990ad051461036b57600080fd5b8062fdd58e146102e2578063018e1c8314610308575b600080fd5b6102f56102f036600461438a565b610793565b6040519081526020015b60405180910390f35b61031b6103163660046144e0565b610875565b6040516102ff919061456b565b61033b6103363660046145ac565b610923565b60405190151581526020016102ff565b61035e6103593660046145c9565b61092e565b6040516102ff9190614658565b61037e6103793660046145c9565b6109c2565b6040516102ff91908151815260208083015173ffffffffffffffffffffffffffffffffffffffff1690820152604080830151908201526060918201519181019190915260800190565b6102f56103d53660046145c9565b600090815261015f602052604090206001015490565b6103fe6103f93660046146fd565b610a6a565b005b6103fe61040e3660046147ab565b610ad6565b6103fe6104213660046147ab565b610b01565b6102f56104343660046147db565b610bb4565b61031b6104473660046148bc565b610bc7565b61033b61045a3660046145c9565b600090815261012d6020526040902054151590565b60975460ff1661033b565b6103fe610488366004614916565b610d0a565b6102f561049b36600461498c565b610dca565b6101c35473ffffffffffffffffffffffffffffffffffffffff165b60405173ffffffffffffffffffffffffffffffffffffffff90911681526020016102ff565b6103fe610df9565b61031b6104f636600461498c565b611055565b6102f561050936600461498c565b611087565b6104bb61051c3660046149a9565b6111b3565b61033b61052f3660046147ab565b600091825261015f6020908152604080842073ffffffffffffffffffffffffffffffffffffffff93909316845291905290205460ff1690565b6103fe6105763660046149cb565b6111cc565b6101c45473ffffffffffffffffffffffffffffffffffffffff166104bb565b61037e6105a83660046145c9565b611235565b6102f5600081565b6103fe6105c3366004614a09565b6112d2565b6103fe6105d6366004614a3e565b6112dd565b6103fe6105e9366004614b23565b61159e565b6102f57f88f3509f0e42391f2d94ebfb2a37cbd0782b1b8f73715330017f4663290b811781565b61031b610623366004614b9e565b6115fc565b6102f56106363660046145c9565b600090815261012d602052604090205490565b61031b610657366004614bdb565b6116b7565b6102f561066a3660046145c9565b61175d565b6102f57f9f2df0fed2c77648de5860a4cc508cd0818c85b8b8a1ab4ceeef8d981c8956a681565b6103fe6106a43660046147ab565b611775565b6106bc6106b73660046145c9565b61179b565b6040516102ff9190614c10565b6102f56106d73660046145c9565b60009081526101c5602052604090205490565b6102f57f65d7a28e3265b37a6474929f336521b332c1681b933f6cb9f3376673440d862a81565b61033b61071f3660046149cb565b73ffffffffffffffffffffffffffffffffffffffff918216600090815260666020908152604080832093909416825291909152205460ff1690565b6103fe610768366004614ce7565b6117e5565b6103fe61077b366004614d50565b6118ae565b6103fe61078e366004614d50565b611994565b600073ffffffffffffffffffffffffffffffffffffffff831661083d576040517f08c379a000000000000000000000000000000000000000000000000000000000815260206004820152602a60248201527f455243313135353a2061646472657373207a65726f206973206e6f742061207660448201527f616c6964206f776e65720000000000000000000000000000000000000000000060648201526084015b60405180910390fd5b50600081815260656020908152604080832073ffffffffffffffffffffffffffffffffffffffff861684529091529020545b92915050565b60606000825167ffffffffffffffff811115610893576108936143b6565b6040519080825280602002602001820160405280156108bc578160200160208202803683370190505b50905060005b835181101561091b576108ee858583815181106108e1576108e1614d85565b6020026020010151610793565b82828151811061090057610900614d85565b602090810291909101015261091481614de3565b90506108c2565b509392505050565b600061086f82611a54565b60606067805461093d90614e1b565b80601f016020809104026020016040519081016040528092919081815260200182805461096990614e1b565b80156109b65780601f1061098b576101008083540402835291602001916109b6565b820191906000526020600020905b81548152906001019060200180831161099957829003601f168201915b50505050509050919050565b610a03604051806080016040528060008152602001600073ffffffffffffffffffffffffffffffffffffffff16815260200160008152602001600081525090565b5060009081526101c5602090815260408083205483526101c6825291829020825160808101845281548152600182015473ffffffffffffffffffffffffffffffffffffffff1692810192909252600281015492820192909252600390910154606082015290565b60006101c5600085600081518110610a8457610a84614d85565b6020026020010151815260200190815260200160002060000154604051602001610ab091815260200190565b6040516020818303038152906040529050610ace8686868685611aaa565b505050505050565b600082815261015f6020526040902060010154610af281611b6c565b610afc8383611b76565b505050565b73ffffffffffffffffffffffffffffffffffffffff81163314610ba6576040517f08c379a000000000000000000000000000000000000000000000000000000000815260206004820152602f60248201527f416363657373436f6e74726f6c3a2063616e206f6e6c792072656e6f756e636560448201527f20726f6c657320666f722073656c6600000000000000000000000000000000006064820152608401610834565b610bb08282611b99565b5050565b6000610bc08383611bbc565b9392505050565b60608151835114610c5a576040517f08c379a000000000000000000000000000000000000000000000000000000000815260206004820152602960248201527f455243313135353a206163636f756e747320616e6420696473206c656e67746860448201527f206d69736d6174636800000000000000000000000000000000000000000000006064820152608401610834565b6000835167ffffffffffffffff811115610c7657610c766143b6565b604051908082528060200260200182016040528015610c9f578160200160208202803683370190505b50905060005b845181101561091b57610cdd858281518110610cc357610cc3614d85565b60200260200101518583815181106108e1576108e1614d85565b828281518110610cef57610cef614d85565b6020908102919091010152610d0381614de3565b9050610ca5565b73ffffffffffffffffffffffffffffffffffffffff8316331480610d335750610d33833361071f565b610dbf576040517f08c379a000000000000000000000000000000000000000000000000000000000815260206004820152602f60248201527f455243313135353a2063616c6c6572206973206e6f7420746f6b656e206f776e60448201527f6572206e6f7220617070726f76656400000000000000000000000000000000006064820152608401610834565b610afc838383611fa5565b73ffffffffffffffffffffffffffffffffffffffff811660009081526101c76020526040812061086f906122e1565b600054610100900460ff1615808015610e195750600054600160ff909116105b80610e335750303b158015610e33575060005460ff166001145b610ebf576040517f08c379a000000000000000000000000000000000000000000000000000000000815260206004820152602e60248201527f496e697469616c697a61626c653a20636f6e747261637420697320616c72656160448201527f647920696e697469616c697a65640000000000000000000000000000000000006064820152608401610834565b600080547fffffffffffffffffffffffffffffffffffffffffffffffffffffffffffffff001660011790558015610f1d57600080547fffffffffffffffffffffffffffffffffffffffffffffffffffffffffffff00ff166101001790555b610f3e60405180606001604052806026815260200161555d602691396122eb565b610f4661238b565b610f4e61244c565b610f5661244c565b610f5e61244c565b610f6661244c565b610f71600033611b76565b610f9b7f65d7a28e3265b37a6474929f336521b332c1681b933f6cb9f3376673440d862a33611b76565b610fc57f9f2df0fed2c77648de5860a4cc508cd0818c85b8b8a1ab4ceeef8d981c8956a633611b76565b610fef7f88f3509f0e42391f2d94ebfb2a37cbd0782b1b8f73715330017f4663290b811733611b76565b801561105257600080547fffffffffffffffffffffffffffffffffffffffffffffffffffffffffffff00ff169055604051600181527f7f26b83ff96e1f2b6a682f133852f6798a09c465da95921460cefb38474024989060200160405180910390a15b50565b73ffffffffffffffffffffffffffffffffffffffff811660009081526101c76020526040902060609061086f906124e5565b73ffffffffffffffffffffffffffffffffffffffff811660009081526101c760205260408120816110b7826122e1565b905060008167ffffffffffffffff8111156110d4576110d46143b6565b6040519080825280602002602001820160405280156110fd578160200160208202803683370190505b50905060005b82811015611153578582828151811061111e5761111e614d85565b73ffffffffffffffffffffffffffffffffffffffff9092166020928302919091019091015261114c81614de3565b9050611103565b50600061116382610447866124e5565b90506000805b848110156111a85782818151811061118357611183614d85565b6020026020010151826111969190614e6e565b91506111a181614de3565b9050611169565b509695505050505050565b600082815261019160205260408120610bc090836124f2565b6111d46124fe565b60006111df81611b6c565b506101c3805473ffffffffffffffffffffffffffffffffffffffff9384167fffffffffffffffffffffffff0000000000000000000000000000000000000000918216179091556101c48054929093169116179055565b611276604051806080016040528060008152602001600073ffffffffffffffffffffffffffffffffffffffff16815260200160008152602001600081525090565b5060009081526101c66020908152604091829020825160808101845281548152600182015473ffffffffffffffffffffffffffffffffffffffff1692810192909252600281015492820192909252600390910154606082015290565b610bb033838361256b565b81518351811461137f57604080517f616c41130000000000000000000000000000000000000000000000000000000081526004810191909152600760448201527f616d6f756e747300000000000000000000000000000000000000000000000000606482015260806024820152600360848201527f696473000000000000000000000000000000000000000000000000000000000060a482015260c401610834565b8151604083015160005b838110156114265760008682815181106113a5576113a5614d85565b602002602001015190506113c4816101c861258190919063ffffffff16565b156113fe576040517f4acb9c2900000000000000000000000000000000000000000000000000000000815260048101829052602401610834565b60009081526101c56020526040902083815560010182905561141f81614de3565b9050611389565b5060008560008151811061143c5761143c614d85565b6020026020010151905060405180608001604052808660200151815260200161146483612599565b73ffffffffffffffffffffffffffffffffffffffff168152602001611488836125a8565b60ff168152602001611499836125c1565b60ff16905260008481526101c66020908152604080832084518155848301516001820180547fffffffffffffffffffffffff00000000000000000000000000000000000000001673ffffffffffffffffffffffffffffffffffffffff909216919091179055848201516002820155606094850151600390910155805189518184015291890151828201528801518184015291870151151560808301529060a001604051602081830303815290604052905061155689888a846125d9565b6115613360016112d2565b856060015115611593576101c454611593908a9073ffffffffffffffffffffffffffffffffffffffff16898b85610a6a565b505050505050505050565b6115a66124fe565b60005b828110156115f65760008484838181106115c5576115c5614d85565b6020908102929092013560009081526101c59092525060409020600101839055506115ef81614de3565b90506115a9565b50505050565b805160609060008167ffffffffffffffff81111561161c5761161c6143b6565b604051908082528060200260200182016040528015611645578160200160208202803683370190505b50905060005b8281101561091b57600085828151811061166757611667614d85565b602002602001015190506101c560008281526020019081526020016000206001015483838151811061169b5761169b614d85565b6020908102919091010152506116b081614de3565b905061164b565b805160609060008167ffffffffffffffff8111156116d7576116d76143b6565b604051908082528060200260200182016040528015611700578160200160208202803683370190505b50905060005b8281101561091b5761173085828151811061172357611723614d85565b6020026020010151611087565b82828151811061174257611742614d85565b602090810291909101015261175681614de3565b9050611706565b60008181526101916020526040812061086f906122e1565b600082815261015f602052604090206001015461179181611b6c565b610afc8383611b99565b6040805161010081018252600080825260208201819052918101829052606081018290526080810182905260a0810182905260c0810182905260e081019190915261086f82612862565b73ffffffffffffffffffffffffffffffffffffffff851633148061180e575061180e853361071f565b61189a576040517f08c379a000000000000000000000000000000000000000000000000000000000815260206004820152602f60248201527f455243313135353a2063616c6c6572206973206e6f7420746f6b656e206f776e60448201527f6572206e6f7220617070726f76656400000000000000000000000000000000006064820152608401610834565b6118a7858585858561298f565b5050505050565b7f88f3509f0e42391f2d94ebfb2a37cbd0782b1b8f73715330017f4663290b81176118d881611b6c565b6118e3848484611994565b6101c45473ffffffffffffffffffffffffffffffffffffffff908116908516036115f6576040517f366a4120000000000000000000000000000000000000000000000000000000008152600481018490526024810183905273ffffffffffffffffffffffffffffffffffffffff85169063366a412090604401600060405180830381600087803b15801561197657600080fd5b505af115801561198a573d6000803e3d6000fd5b5050505050505050565b73ffffffffffffffffffffffffffffffffffffffff83163314806119bd57506119bd833361071f565b611a49576040517f08c379a000000000000000000000000000000000000000000000000000000000815260206004820152602f60248201527f455243313135353a2063616c6c6572206973206e6f7420746f6b656e206f776e60448201527f6572206e6f7220617070726f76656400000000000000000000000000000000006064820152608401610834565b610afc838383612bd4565b60007fffffffff0000000000000000000000000000000000000000000000000000000082167f5a05180f00000000000000000000000000000000000000000000000000000000148061086f575061086f82612dfb565b73ffffffffffffffffffffffffffffffffffffffff8516331480611ad35750611ad3853361071f565b611b5f576040517f08c379a000000000000000000000000000000000000000000000000000000000815260206004820152602f60248201527f455243313135353a2063616c6c6572206973206e6f7420746f6b656e206f776e60448201527f6572206e6f7220617070726f76656400000000000000000000000000000000006064820152608401610834565b6118a78585858585612e51565b6110528133613194565b611b808282613267565b600082815261019160205260409020610afc908261335d565b611ba3828261337f565b600082815261019160205260409020610afc908261343c565b600080611bcb83850185614e97565b60ff1690508015611c5d576040517f08c379a0000000000000000000000000000000000000000000000000000000008152602060048201526024808201527f556e737570706f727465642072656d6f76616c20746f6b656e2069642076657260448201527f73696f6e000000000000000000000000000000000000000000000000000000006064820152608401610834565b6101008314611cee576040517f08c379a000000000000000000000000000000000000000000000000000000000815260206004820152602a60248201527f72656d6f76616c4461746120636f6e7461696e732077726f6e67206e756d626560448201527f72206f66206279746573000000000000000000000000000000000000000000006064820152608401610834565b6000611cfc84860186614f08565b9050600f816020015160ff161115611d70576040517f08c379a000000000000000000000000000000000000000000000000000000000815260206004820152601560248201527f4d6574686f6c6f646f677920746f6f206c6172676500000000000000000000006044820152606401610834565b600f816040015160ff161115611de2576040517f08c379a000000000000000000000000000000000000000000000000000000000815260206004820152601d60248201527f4d6574686f6c6f646f67792076657273696f6e20746f6f206c617267650000006044820152606401610834565b608081015160a082015160f882811c9260ff60f091821c8116939283901c9290911c1660418410801590611e175750605a8411155b8015611e24575060418310155b8015611e315750605a8311155b8015611e3e575060418210155b8015611e4b5750605a8211155b8015611e58575060418110155b8015611e655750605a8111155b611ecb576040517f08c379a000000000000000000000000000000000000000000000000000000000815260206004820152600d60248201527f496e76616c6964204153434949000000000000000000000000000000000000006044820152606401610834565b600085604001516004876020015160ff16901b1760ff16905060086000611ef29190614fcd565b60e087015163ffffffff16901b611f0b60086004614fcd565b60c088015173ffffffffffffffffffffffffffffffffffffffff16901b611f3460086018614fcd565b60a089015160f01c901b611f4a6008601a614fcd565b60808a015160f01c901b611f606008601c614fcd565b60608b015161ffff16901b611f776008601e614fcd565b86901b611f866008601f614fcd565b8c6000015160ff16901b17171717171797505050505050505092915050565b73ffffffffffffffffffffffffffffffffffffffff8316612048576040517f08c379a000000000000000000000000000000000000000000000000000000000815260206004820152602360248201527f455243313135353a206275726e2066726f6d20746865207a65726f206164647260448201527f65737300000000000000000000000000000000000000000000000000000000006064820152608401610834565b80518251146120d9576040517f08c379a000000000000000000000000000000000000000000000000000000000815260206004820152602860248201527f455243313135353a2069647320616e6420616d6f756e7473206c656e6774682060448201527f6d69736d617463680000000000000000000000000000000000000000000000006064820152608401610834565b60003390506120fc8185600086866040518060200160405280600081525061345e565b60005b835181101561224d57600084828151811061211c5761211c614d85565b60200260200101519050600084838151811061213a5761213a614d85565b602090810291909101810151600084815260658352604080822073ffffffffffffffffffffffffffffffffffffffff8c168352909352919091205490915081811015612207576040517f08c379a0000000000000000000000000000000000000000000000000000000008152602060048201526024808201527f455243313135353a206275726e20616d6f756e7420657863656564732062616c60448201527f616e6365000000000000000000000000000000000000000000000000000000006064820152608401610834565b600092835260656020908152604080852073ffffffffffffffffffffffffffffffffffffffff8b168652909152909220910390558061224581614de3565b9150506120ff565b50600073ffffffffffffffffffffffffffffffffffffffff168473ffffffffffffffffffffffffffffffffffffffff168273ffffffffffffffffffffffffffffffffffffffff167f4a39dc06d4c0dbc64b70af90fd698a233a518aa5d07e595d983b8c0526c8f7fb86866040516122c592919061500a565b60405180910390a46040805160208101909152600090526115f6565b600061086f825490565b600054610100900460ff16612382576040517f08c379a000000000000000000000000000000000000000000000000000000000815260206004820152602b60248201527f496e697469616c697a61626c653a20636f6e7472616374206973206e6f74206960448201527f6e697469616c697a696e670000000000000000000000000000000000000000006064820152608401610834565b61105281613565565b600054610100900460ff16612422576040517f08c379a000000000000000000000000000000000000000000000000000000000815260206004820152602b60248201527f496e697469616c697a61626c653a20636f6e7472616374206973206e6f74206960448201527f6e697469616c697a696e670000000000000000000000000000000000000000006064820152608401610834565b609780547fffffffffffffffffffffffffffffffffffffffffffffffffffffffffffffff00169055565b600054610100900460ff166124e3576040517f08c379a000000000000000000000000000000000000000000000000000000000815260206004820152602b60248201527f496e697469616c697a61626c653a20636f6e7472616374206973206e6f74206960448201527f6e697469616c697a696e670000000000000000000000000000000000000000006064820152608401610834565b565b60606000610bc083613571565b6000610bc083836135cc565b60975460ff16156124e3576040517f08c379a000000000000000000000000000000000000000000000000000000000815260206004820152601060248201527f5061757361626c653a20706175736564000000000000000000000000000000006044820152606401610834565b600061257681611b6c565b6115f68484846135f6565b60008181526001830160205260408120541515610bc0565b600061086f8260146004613749565b600060046125b9836001601e613749565b901c92915050565b60006125d0826001601e613749565b600f1692915050565b73ffffffffffffffffffffffffffffffffffffffff841661267c576040517f08c379a000000000000000000000000000000000000000000000000000000000815260206004820152602160248201527f455243313135353a206d696e7420746f20746865207a65726f2061646472657360448201527f73000000000000000000000000000000000000000000000000000000000000006064820152608401610834565b815183511461270d576040517f08c379a000000000000000000000000000000000000000000000000000000000815260206004820152602860248201527f455243313135353a2069647320616e6420616d6f756e7473206c656e6774682060448201527f6d69736d617463680000000000000000000000000000000000000000000000006064820152608401610834565b3361271d8160008787878761345e565b60005b84518110156127d35783818151811061273b5761273b614d85565b60200260200101516065600087848151811061275957612759614d85565b6020026020010151815260200190815260200160002060008873ffffffffffffffffffffffffffffffffffffffff1673ffffffffffffffffffffffffffffffffffffffff16815260200190815260200160002060008282546127bb9190614e6e565b909155508190506127cb81614de3565b915050612720565b508473ffffffffffffffffffffffffffffffffffffffff16600073ffffffffffffffffffffffffffffffffffffffff168273ffffffffffffffffffffffffffffffffffffffff167f4a39dc06d4c0dbc64b70af90fd698a233a518aa5d07e595d983b8c0526c8f7fb878760405161284b92919061500a565b60405180910390a46118a781600087878787613795565b6040805161010081018252600080825260208201819052918101829052606081018290526080810182905260a0810182905260c0810182905260e08101919091526040518061010001604052806128b884613a1f565b60ff1681526020016128c9846125a8565b60ff1681526020016128da846125c1565b60ff1681526020016128eb84613a2e565b61ffff1681526020016128fd84613a3d565b7fffff00000000000000000000000000000000000000000000000000000000000016815260200161292d84613a55565b7fffff00000000000000000000000000000000000000000000000000000000000016815260200161295d84612599565b73ffffffffffffffffffffffffffffffffffffffff16815260200161298184613a64565b63ffffffff16905292915050565b73ffffffffffffffffffffffffffffffffffffffff8416612a32576040517f08c379a000000000000000000000000000000000000000000000000000000000815260206004820152602560248201527f455243313135353a207472616e7366657220746f20746865207a65726f20616460448201527f64726573730000000000000000000000000000000000000000000000000000006064820152608401610834565b336000612a3e85613a73565b90506000612a4b85613a73565b9050612a5b83898985858961345e565b600086815260656020908152604080832073ffffffffffffffffffffffffffffffffffffffff8c16845290915290205485811015612b1b576040517f08c379a000000000000000000000000000000000000000000000000000000000815260206004820152602a60248201527f455243313135353a20696e73756666696369656e742062616c616e636520666f60448201527f72207472616e73666572000000000000000000000000000000000000000000006064820152608401610834565b600087815260656020908152604080832073ffffffffffffffffffffffffffffffffffffffff8d8116855292528083208985039055908a16825281208054889290612b67908490614e6e565b9091555050604080518881526020810188905273ffffffffffffffffffffffffffffffffffffffff808b16928c821692918816917fc3d58168c5ae7397731d063d5bbf3d657854427343f4c083240f7aacaa2d0f62910160405180910390a4611593848a8a8a8a8a613abe565b73ffffffffffffffffffffffffffffffffffffffff8316612c77576040517f08c379a000000000000000000000000000000000000000000000000000000000815260206004820152602360248201527f455243313135353a206275726e2066726f6d20746865207a65726f206164647260448201527f65737300000000000000000000000000000000000000000000000000000000006064820152608401610834565b336000612c8384613a73565b90506000612c9084613a73565b9050612cb08387600085856040518060200160405280600081525061345e565b600085815260656020908152604080832073ffffffffffffffffffffffffffffffffffffffff8a16845290915290205484811015612d6f576040517f08c379a0000000000000000000000000000000000000000000000000000000008152602060048201526024808201527f455243313135353a206275726e20616d6f756e7420657863656564732062616c60448201527f616e6365000000000000000000000000000000000000000000000000000000006064820152608401610834565b600086815260656020908152604080832073ffffffffffffffffffffffffffffffffffffffff8b81168086529184528285208a8703905582518b81529384018a90529092908816917fc3d58168c5ae7397731d063d5bbf3d657854427343f4c083240f7aacaa2d0f62910160405180910390a46040805160208101909152600090525b50505050505050565b60007fffffffff0000000000000000000000000000000000000000000000000000000082167f7965db0b00000000000000000000000000000000000000000000000000000000148061086f575061086f82613c6b565b8151835114612ee2576040517f08c379a000000000000000000000000000000000000000000000000000000000815260206004820152602860248201527f455243313135353a2069647320616e6420616d6f756e7473206c656e6774682060448201527f6d69736d617463680000000000000000000000000000000000000000000000006064820152608401610834565b73ffffffffffffffffffffffffffffffffffffffff8416612f85576040517f08c379a000000000000000000000000000000000000000000000000000000000815260206004820152602560248201527f455243313135353a207472616e7366657220746f20746865207a65726f20616460448201527f64726573730000000000000000000000000000000000000000000000000000006064820152608401610834565b33612f9481878787878761345e565b60005b8451811015613107576000858281518110612fb457612fb4614d85565b602002602001015190506000858381518110612fd257612fd2614d85565b602090810291909101810151600084815260658352604080822073ffffffffffffffffffffffffffffffffffffffff8e1683529093529190912054909150818110156130a0576040517f08c379a000000000000000000000000000000000000000000000000000000000815260206004820152602a60248201527f455243313135353a20696e73756666696369656e742062616c616e636520666f60448201527f72207472616e73666572000000000000000000000000000000000000000000006064820152608401610834565b600083815260656020908152604080832073ffffffffffffffffffffffffffffffffffffffff8e8116855292528083208585039055908b168252812080548492906130ec908490614e6e565b925050819055505050508061310090614de3565b9050612f97565b508473ffffffffffffffffffffffffffffffffffffffff168673ffffffffffffffffffffffffffffffffffffffff168273ffffffffffffffffffffffffffffffffffffffff167f4a39dc06d4c0dbc64b70af90fd698a233a518aa5d07e595d983b8c0526c8f7fb878760405161317e92919061500a565b60405180910390a4610ace818787878787613795565b600082815261015f6020908152604080832073ffffffffffffffffffffffffffffffffffffffff8516845290915290205460ff16610bb0576131ed8173ffffffffffffffffffffffffffffffffffffffff166014613d4e565b6131f8836020613d4e565b604051602001613209929190615038565b604080517fffffffffffffffffffffffffffffffffffffffffffffffffffffffffffffffe0818403018152908290527f08c379a000000000000000000000000000000000000000000000000000000000825261083491600401614658565b600082815261015f6020908152604080832073ffffffffffffffffffffffffffffffffffffffff8516845290915290205460ff16610bb057600082815261015f6020908152604080832073ffffffffffffffffffffffffffffffffffffffff85168452909152902080547fffffffffffffffffffffffffffffffffffffffffffffffffffffffffffffff001660011790556132ff3390565b73ffffffffffffffffffffffffffffffffffffffff168173ffffffffffffffffffffffffffffffffffffffff16837f2f8788117e7eff1d82e926ec794901d17c78024a50270940304540a733656f0d60405160405180910390a45050565b6000610bc08373ffffffffffffffffffffffffffffffffffffffff8416613f91565b600082815261015f6020908152604080832073ffffffffffffffffffffffffffffffffffffffff8516845290915290205460ff1615610bb057600082815261015f6020908152604080832073ffffffffffffffffffffffffffffffffffffffff8516808552925280832080547fffffffffffffffffffffffffffffffffffffffffffffffffffffffffffffff0016905551339285917ff6391f5c32d9c69d2a47ea670b442974b53935d1edc7fd64eb21e047a839171b9190a45050565b6000610bc08373ffffffffffffffffffffffffffffffffffffffff8416613fe0565b6134666124fe565b815160005b8181101561355657600085828151811061348757613487614d85565b60200260200101519050600073ffffffffffffffffffffffffffffffffffffffff168873ffffffffffffffffffffffffffffffffffffffff16146134f75773ffffffffffffffffffffffffffffffffffffffff881660009081526101c7602052604090206134f590826140da565b505b73ffffffffffffffffffffffffffffffffffffffff8716156135455773ffffffffffffffffffffffffffffffffffffffff871660009081526101c76020526040902061354390826140e6565b505b5061354f81614de3565b905061346b565b50612df28787878787876140f2565b6067610bb082826150ff565b6060816000018054806020026020016040519081016040528092919081815260200182805480156109b657602002820191906000526020600020905b8154815260200190600101908083116135ad5750505050509050919050565b60008260000182815481106135e3576135e3614d85565b9060005260206000200154905092915050565b8173ffffffffffffffffffffffffffffffffffffffff168373ffffffffffffffffffffffffffffffffffffffff16036136b1576040517f08c379a000000000000000000000000000000000000000000000000000000000815260206004820152602960248201527f455243313135353a2073657474696e6720617070726f76616c2073746174757360448201527f20666f722073656c6600000000000000000000000000000000000000000000006064820152608401610834565b73ffffffffffffffffffffffffffffffffffffffff83811660008181526066602090815260408083209487168084529482529182902080547fffffffffffffffffffffffffffffffffffffffffffffffffffffffffffffff001686151590811790915591519182527f17307eab39ab6107e8899845ad3d59bd9653f200f220920489ca2b5937696c31910160405180910390a3505050565b600080613757600884614fcd565b6001613764600887614fcd565b61376f906002615339565b6137799190615345565b901b905084811661378b600885614fcd565b1c95945050505050565b73ffffffffffffffffffffffffffffffffffffffff84163b15610ace576040517fbc197c8100000000000000000000000000000000000000000000000000000000815273ffffffffffffffffffffffffffffffffffffffff85169063bc197c819061380c908990899088908890889060040161535c565b6020604051808303816000875af1925050508015613865575060408051601f3d9081017fffffffffffffffffffffffffffffffffffffffffffffffffffffffffffffffe0168201909252613862918101906153c7565b60015b61394e576138716153e4565b806308c379a0036138c45750613885615400565b8061389057506138c6565b806040517f08c379a00000000000000000000000000000000000000000000000000000000081526004016108349190614658565b505b6040517f08c379a000000000000000000000000000000000000000000000000000000000815260206004820152603460248201527f455243313135353a207472616e7366657220746f206e6f6e204552433131353560448201527f526563656976657220696d706c656d656e7465720000000000000000000000006064820152608401610834565b7fffffffff0000000000000000000000000000000000000000000000000000000081167fbc197c810000000000000000000000000000000000000000000000000000000014612df2576040517f08c379a000000000000000000000000000000000000000000000000000000000815260206004820152602860248201527f455243313135353a204552433131353552656365697665722072656a6563746560448201527f6420746f6b656e730000000000000000000000000000000000000000000000006064820152608401610834565b600061086f826001601f613749565b600061086f826002601c613749565b6000613a4c826002601a613749565b60f01b92915050565b6000613a4c8260026018613749565b600061086f8260046000613749565b60408051600180825281830190925260609160009190602080830190803683370190505090508281600081518110613aad57613aad614d85565b602090810291909101015292915050565b73ffffffffffffffffffffffffffffffffffffffff84163b15610ace576040517ff23a6e6100000000000000000000000000000000000000000000000000000000815273ffffffffffffffffffffffffffffffffffffffff85169063f23a6e6190613b3590899089908890889088906004016154a8565b6020604051808303816000875af1925050508015613b8e575060408051601f3d9081017fffffffffffffffffffffffffffffffffffffffffffffffffffffffffffffffe0168201909252613b8b918101906153c7565b60015b613b9a576138716153e4565b7fffffffff0000000000000000000000000000000000000000000000000000000081167ff23a6e610000000000000000000000000000000000000000000000000000000014612df2576040517f08c379a000000000000000000000000000000000000000000000000000000000815260206004820152602860248201527f455243313135353a204552433131353552656365697665722072656a6563746560448201527f6420746f6b656e730000000000000000000000000000000000000000000000006064820152608401610834565b60007fffffffff0000000000000000000000000000000000000000000000000000000082167fd9b67a26000000000000000000000000000000000000000000000000000000001480613cfe57507fffffffff0000000000000000000000000000000000000000000000000000000082167f0e89341c00000000000000000000000000000000000000000000000000000000145b8061086f57507f01ffc9a7000000000000000000000000000000000000000000000000000000007fffffffff0000000000000000000000000000000000000000000000000000000083161461086f565b60606000613d5d836002614fcd565b613d68906002614e6e565b67ffffffffffffffff811115613d8057613d806143b6565b6040519080825280601f01601f191660200182016040528015613daa576020820181803683370190505b5090507f300000000000000000000000000000000000000000000000000000000000000081600081518110613de157613de1614d85565b60200101907effffffffffffffffffffffffffffffffffffffffffffffffffffffffffffff1916908160001a9053507f780000000000000000000000000000000000000000000000000000000000000081600181518110613e4457613e44614d85565b60200101907effffffffffffffffffffffffffffffffffffffffffffffffffffffffffffff1916908160001a9053506000613e80846002614fcd565b613e8b906001614e6e565b90505b6001811115613f28577f303132333435363738396162636465660000000000000000000000000000000085600f1660108110613ecc57613ecc614d85565b1a60f81b828281518110613ee257613ee2614d85565b60200101907effffffffffffffffffffffffffffffffffffffffffffffffffffffffffffff1916908160001a90535060049490941c93613f21816154f8565b9050613e8e565b508315610bc0576040517f08c379a000000000000000000000000000000000000000000000000000000000815260206004820181905260248201527f537472696e67733a20686578206c656e67746820696e73756666696369656e746044820152606401610834565b6000818152600183016020526040812054613fd85750815460018181018455600084815260208082209093018490558454848252828601909352604090209190915561086f565b50600061086f565b600081815260018301602052604081205480156140c9576000614004600183615345565b855490915060009061401890600190615345565b905081811461407d57600086600001828154811061403857614038614d85565b906000526020600020015490508087600001848154811061405b5761405b614d85565b6000918252602080832090910192909255918252600188019052604090208390555b855486908061408e5761408e61552d565b60019003818190600052602060002001600090559055856001016000868152602001908152602001600020600090556001935050505061086f565b600091505061086f565b5092915050565b6000610bc08383613fe0565b6000610bc08383613f91565b6141008686868686866142c5565b73ffffffffffffffffffffffffffffffffffffffff85166141955760005b83518110156141935782818151811061413957614139614d85565b602002602001015161012d600086848151811061415857614158614d85565b60200260200101518152602001908152602001600020600082825461417d9190614e6e565b9091555061418c905081614de3565b905061411e565b505b73ffffffffffffffffffffffffffffffffffffffff8416610ace5760005b8351811015612df25760008482815181106141d0576141d0614d85565b6020026020010151905060008483815181106141ee576141ee614d85565b60200260200101519050600061012d6000848152602001908152602001600020549050818110156142a1576040517f08c379a000000000000000000000000000000000000000000000000000000000815260206004820152602860248201527f455243313135353a206275726e20616d6f756e74206578636565647320746f7460448201527f616c537570706c790000000000000000000000000000000000000000000000006064820152608401610834565b600092835261012d6020526040909220910390556142be81614de3565b90506141b3565b60975460ff1615610ace576040517f08c379a000000000000000000000000000000000000000000000000000000000815260206004820152602c60248201527f455243313135355061757361626c653a20746f6b656e207472616e736665722060448201527f7768696c652070617573656400000000000000000000000000000000000000006064820152608401610834565b73ffffffffffffffffffffffffffffffffffffffff8116811461105257600080fd5b803561438581614358565b919050565b6000806040838503121561439d57600080fd5b82356143a881614358565b946020939093013593505050565b7f4e487b7100000000000000000000000000000000000000000000000000000000600052604160045260246000fd5b6080810181811067ffffffffffffffff82111715614405576144056143b6565b60405250565b7fffffffffffffffffffffffffffffffffffffffffffffffffffffffffffffffe0601f830116810181811067ffffffffffffffff8211171561444f5761444f6143b6565b6040525050565b600067ffffffffffffffff821115614470576144706143b6565b5060051b60200190565b600082601f83011261448b57600080fd5b8135602061449882614456565b6040516144a5828261440b565b83815260059390931b85018201928281019150868411156144c557600080fd5b8286015b848110156111a857803583529183019183016144c9565b600080604083850312156144f357600080fd5b82356144fe81614358565b9150602083013567ffffffffffffffff81111561451a57600080fd5b6145268582860161447a565b9150509250929050565b600081518084526020808501945080840160005b8381101561456057815187529582019590820190600101614544565b509495945050505050565b602081526000610bc06020830184614530565b7fffffffff000000000000000000000000000000000000000000000000000000008116811461105257600080fd5b6000602082840312156145be57600080fd5b8135610bc08161457e565b6000602082840312156145db57600080fd5b5035919050565b60005b838110156145fd5781810151838201526020016145e5565b838111156115f65750506000910152565b600081518084526146268160208601602086016145e2565b601f017fffffffffffffffffffffffffffffffffffffffffffffffffffffffffffffffe0169290920160200192915050565b602081526000610bc0602083018461460e565b600082601f83011261467c57600080fd5b813567ffffffffffffffff811115614696576146966143b6565b6040516146cb60207fffffffffffffffffffffffffffffffffffffffffffffffffffffffffffffffe0601f850116018261440b565b8181528460208386010111156146e057600080fd5b816020850160208301376000918101602001919091529392505050565b600080600080600060a0868803121561471557600080fd5b853561472081614358565b9450602086013561473081614358565b9350604086013567ffffffffffffffff8082111561474d57600080fd5b61475989838a0161447a565b9450606088013591508082111561476f57600080fd5b61477b89838a0161447a565b9350608088013591508082111561479157600080fd5b5061479e8882890161466b565b9150509295509295909350565b600080604083850312156147be57600080fd5b8235915060208301356147d081614358565b809150509250929050565b600080602083850312156147ee57600080fd5b823567ffffffffffffffff8082111561480657600080fd5b818501915085601f83011261481a57600080fd5b81358181111561482957600080fd5b86602082850101111561483b57600080fd5b60209290920196919550909350505050565b600082601f83011261485e57600080fd5b8135602061486b82614456565b604051614878828261440b565b83815260059390931b850182019282810191508684111561489857600080fd5b8286015b848110156111a85780356148af81614358565b835291830191830161489c565b600080604083850312156148cf57600080fd5b823567ffffffffffffffff808211156148e757600080fd5b6148f38683870161484d565b9350602085013591508082111561490957600080fd5b506145268582860161447a565b60008060006060848603121561492b57600080fd5b833561493681614358565b9250602084013567ffffffffffffffff8082111561495357600080fd5b61495f8783880161447a565b9350604086013591508082111561497557600080fd5b506149828682870161447a565b9150509250925092565b60006020828403121561499e57600080fd5b8135610bc081614358565b600080604083850312156149bc57600080fd5b50508035926020909101359150565b600080604083850312156149de57600080fd5b82356149e981614358565b915060208301356147d081614358565b8035801515811461438557600080fd5b60008060408385031215614a1c57600080fd5b8235614a2781614358565b9150614a35602084016149f9565b90509250929050565b60008060008084860360e0811215614a5557600080fd5b8535614a6081614358565b9450602086013567ffffffffffffffff80821115614a7d57600080fd5b614a8989838a0161447a565b95506040880135915080821115614a9f57600080fd5b50614aac8882890161447a565b93505060807fffffffffffffffffffffffffffffffffffffffffffffffffffffffffffffffa082011215614adf57600080fd5b50604051614aec816143e5565b606086013581526080860135602082015260a08601356040820152614b1360c087016149f9565b6060820152939692955090935050565b600080600060408486031215614b3857600080fd5b833567ffffffffffffffff80821115614b5057600080fd5b818601915086601f830112614b6457600080fd5b813581811115614b7357600080fd5b8760208260051b8501011115614b8857600080fd5b6020928301989097509590910135949350505050565b600060208284031215614bb057600080fd5b813567ffffffffffffffff811115614bc757600080fd5b614bd38482850161447a565b949350505050565b600060208284031215614bed57600080fd5b813567ffffffffffffffff811115614c0457600080fd5b614bd38482850161484d565b60006101008201905060ff835116825260ff602084015116602083015260ff604084015116604083015261ffff60608401511660608301527fffff000000000000000000000000000000000000000000000000000000000000608084015116608083015260a0830151614ca760a08401827fffff000000000000000000000000000000000000000000000000000000000000169052565b5060c0830151614ccf60c084018273ffffffffffffffffffffffffffffffffffffffff169052565b5060e08301516140d360e084018263ffffffff169052565b600080600080600060a08688031215614cff57600080fd5b8535614d0a81614358565b94506020860135614d1a81614358565b93506040860135925060608601359150608086013567ffffffffffffffff811115614d4457600080fd5b61479e8882890161466b565b600080600060608486031215614d6557600080fd5b8335614d7081614358565b95602085013595506040909401359392505050565b7f4e487b7100000000000000000000000000000000000000000000000000000000600052603260045260246000fd5b7f4e487b7100000000000000000000000000000000000000000000000000000000600052601160045260246000fd5b60007fffffffffffffffffffffffffffffffffffffffffffffffffffffffffffffffff8203614e1457614e14614db4565b5060010190565b600181811c90821680614e2f57607f821691505b602082108103614e68577f4e487b7100000000000000000000000000000000000000000000000000000000600052602260045260246000fd5b50919050565b60008219821115614e8157614e81614db4565b500190565b803560ff8116811461438557600080fd5b600060208284031215614ea957600080fd5b610bc082614e86565b803561ffff8116811461438557600080fd5b80357fffff0000000000000000000000000000000000000000000000000000000000008116811461438557600080fd5b803563ffffffff8116811461438557600080fd5b6000610100808385031215614f1c57600080fd5b6040519081019067ffffffffffffffff82118183101715614f3f57614f3f6143b6565b81604052614f4c84614e86565b8152614f5a60208501614e86565b6020820152614f6b60408501614e86565b6040820152614f7c60608501614eb2565b6060820152614f8d60808501614ec4565b6080820152614f9e60a08501614ec4565b60a0820152614faf60c0850161437a565b60c0820152614fc060e08501614ef4565b60e0820152949350505050565b6000817fffffffffffffffffffffffffffffffffffffffffffffffffffffffffffffffff048311821515161561500557615005614db4565b500290565b60408152600061501d6040830185614530565b828103602084015261502f8185614530565b95945050505050565b7f416363657373436f6e74726f6c3a206163636f756e74200000000000000000008152600083516150708160178501602088016145e2565b7f206973206d697373696e6720726f6c652000000000000000000000000000000060179184019182015283516150ad8160288401602088016145e2565b01602801949350505050565b601f821115610afc57600081815260208120601f850160051c810160208610156150e05750805b601f850160051c820191505b81811015610ace578281556001016150ec565b815167ffffffffffffffff811115615119576151196143b6565b61512d816151278454614e1b565b846150b9565b602080601f831160018114615180576000841561514a5750858301515b7fffffffffffffffffffffffffffffffffffffffffffffffffffffffffffffffff600386901b1c1916600185901b178555610ace565b6000858152602081207fffffffffffffffffffffffffffffffffffffffffffffffffffffffffffffffe08616915b828110156151cd578886015182559484019460019091019084016151ae565b508582101561520957878501517fffffffffffffffffffffffffffffffffffffffffffffffffffffffffffffffff600388901b60f8161c191681555b5050505050600190811b01905550565b600181815b8085111561527257817fffffffffffffffffffffffffffffffffffffffffffffffffffffffffffffffff0482111561525857615258614db4565b8085161561526557918102915b93841c939080029061521e565b509250929050565b6000826152895750600161086f565b816152965750600061086f565b81600181146152ac57600281146152b6576152d2565b600191505061086f565b60ff8411156152c7576152c7614db4565b50506001821b61086f565b5060208310610133831016604e8410600b84101617156152f5575081810a61086f565b6152ff8383615219565b807fffffffffffffffffffffffffffffffffffffffffffffffffffffffffffffffff0482111561533157615331614db4565b029392505050565b6000610bc0838361527a565b60008282101561535757615357614db4565b500390565b600073ffffffffffffffffffffffffffffffffffffffff808816835280871660208401525060a0604083015261539560a0830186614530565b82810360608401526153a78186614530565b905082810360808401526153bb818561460e565b98975050505050505050565b6000602082840312156153d957600080fd5b8151610bc08161457e565b600060033d11156153fd5760046000803e5060005160e01c5b90565b600060443d101561540e5790565b6040517ffffffffffffffffffffffffffffffffffffffffffffffffffffffffffffffffc803d016004833e81513d67ffffffffffffffff816024840111818411171561545c57505050505090565b82850191508151818111156154745750505050505090565b843d870101602082850101111561548e5750505050505090565b61549d6020828601018761440b565b509095945050505050565b600073ffffffffffffffffffffffffffffffffffffffff808816835280871660208401525084604083015283606083015260a060808301526154ed60a083018461460e565b979650505050505050565b60008161550757615507614db4565b507fffffffffffffffffffffffffffffffffffffffffffffffffffffffffffffffff0190565b7f4e487b7100000000000000000000000000000000000000000000000000000000600052603160045260246000fdfe68747470733a2f2f6e6f72692e636f6d2f6170692f72656d6f76616c2f7b69647d2e6a736f6ea2646970667358221220e9333c79733d95244d3e832e97506b19537c01eaea8d586b523f151230eee6d264736f6c634300080f0033",
  "linkReferences": {},
  "deployedLinkReferences": {}
}