{
  "_format": "hh-sol-artifact-1",
  "contractName": "Removal",
  "sourceName": "contracts/Removal.sol",
  "abi": [
    {
      "anonymous": false,
      "inputs": [
        {
          "indexed": true,
          "internalType": "address",
          "name": "account",
          "type": "address"
        },
        {
          "indexed": true,
          "internalType": "address",
          "name": "operator",
          "type": "address"
        },
        {
          "indexed": false,
          "internalType": "bool",
          "name": "approved",
          "type": "bool"
        }
      ],
      "name": "ApprovalForAll",
      "type": "event"
    },
    {
      "anonymous": false,
      "inputs": [
        {
          "indexed": false,
          "internalType": "address",
          "name": "account",
          "type": "address"
        }
      ],
      "name": "Paused",
      "type": "event"
    },
    {
      "anonymous": false,
      "inputs": [
        {
          "indexed": true,
          "internalType": "bytes32",
          "name": "role",
          "type": "bytes32"
        },
        {
          "indexed": true,
          "internalType": "bytes32",
          "name": "previousAdminRole",
          "type": "bytes32"
        },
        {
          "indexed": true,
          "internalType": "bytes32",
          "name": "newAdminRole",
          "type": "bytes32"
        }
      ],
      "name": "RoleAdminChanged",
      "type": "event"
    },
    {
      "anonymous": false,
      "inputs": [
        {
          "indexed": true,
          "internalType": "bytes32",
          "name": "role",
          "type": "bytes32"
        },
        {
          "indexed": true,
          "internalType": "address",
          "name": "account",
          "type": "address"
        },
        {
          "indexed": true,
          "internalType": "address",
          "name": "sender",
          "type": "address"
        }
      ],
      "name": "RoleGranted",
      "type": "event"
    },
    {
      "anonymous": false,
      "inputs": [
        {
          "indexed": true,
          "internalType": "bytes32",
          "name": "role",
          "type": "bytes32"
        },
        {
          "indexed": true,
          "internalType": "address",
          "name": "account",
          "type": "address"
        },
        {
          "indexed": true,
          "internalType": "address",
          "name": "sender",
          "type": "address"
        }
      ],
      "name": "RoleRevoked",
      "type": "event"
    },
    {
      "anonymous": false,
      "inputs": [
        {
          "indexed": true,
          "internalType": "address",
          "name": "operator",
          "type": "address"
        },
        {
          "indexed": true,
          "internalType": "address",
          "name": "from",
          "type": "address"
        },
        {
          "indexed": true,
          "internalType": "address",
          "name": "to",
          "type": "address"
        },
        {
          "indexed": false,
          "internalType": "uint256[]",
          "name": "ids",
          "type": "uint256[]"
        },
        {
          "indexed": false,
          "internalType": "uint256[]",
          "name": "values",
          "type": "uint256[]"
        }
      ],
      "name": "TransferBatch",
      "type": "event"
    },
    {
      "anonymous": false,
      "inputs": [
        {
          "indexed": true,
          "internalType": "address",
          "name": "operator",
          "type": "address"
        },
        {
          "indexed": true,
          "internalType": "address",
          "name": "from",
          "type": "address"
        },
        {
          "indexed": true,
          "internalType": "address",
          "name": "to",
          "type": "address"
        },
        {
          "indexed": false,
          "internalType": "uint256",
          "name": "id",
          "type": "uint256"
        },
        {
          "indexed": false,
          "internalType": "uint256",
          "name": "value",
          "type": "uint256"
        }
      ],
      "name": "TransferSingle",
      "type": "event"
    },
    {
      "anonymous": false,
      "inputs": [
        {
          "indexed": false,
          "internalType": "string",
          "name": "value",
          "type": "string"
        },
        {
          "indexed": true,
          "internalType": "uint256",
          "name": "id",
          "type": "uint256"
        }
      ],
      "name": "URI",
      "type": "event"
    },
    {
      "anonymous": false,
      "inputs": [
        {
          "indexed": false,
          "internalType": "address",
          "name": "account",
          "type": "address"
        }
      ],
      "name": "Unpaused",
      "type": "event"
    },
    {
      "inputs": [],
      "name": "DEFAULT_ADMIN_ROLE",
      "outputs": [
        {
          "internalType": "bytes32",
          "name": "",
          "type": "bytes32"
        }
      ],
      "stateMutability": "view",
      "type": "function"
    },
    {
      "inputs": [],
      "name": "MINTER_ROLE",
      "outputs": [
        {
          "internalType": "bytes32",
          "name": "",
          "type": "bytes32"
        }
      ],
      "stateMutability": "view",
      "type": "function"
    },
    {
      "inputs": [],
      "name": "PAUSER_ROLE",
      "outputs": [
        {
          "internalType": "bytes32",
          "name": "",
          "type": "bytes32"
        }
      ],
      "stateMutability": "view",
      "type": "function"
    },
    {
      "inputs": [
        {
          "internalType": "address",
          "name": "account",
          "type": "address"
        },
        {
          "internalType": "uint256",
          "name": "id",
          "type": "uint256"
        }
      ],
      "name": "balanceOf",
      "outputs": [
        {
          "internalType": "uint256",
          "name": "",
          "type": "uint256"
        }
      ],
      "stateMutability": "view",
      "type": "function"
    },
    {
      "inputs": [
        {
          "internalType": "address[]",
          "name": "accounts",
          "type": "address[]"
        },
        {
          "internalType": "uint256[]",
          "name": "ids",
          "type": "uint256[]"
        }
      ],
      "name": "balanceOfBatch",
      "outputs": [
        {
          "internalType": "uint256[]",
          "name": "",
          "type": "uint256[]"
        }
      ],
      "stateMutability": "view",
      "type": "function"
    },
    {
      "inputs": [
        {
          "internalType": "address",
          "name": "account",
          "type": "address"
        },
        {
          "internalType": "uint256",
          "name": "id",
          "type": "uint256"
        },
        {
          "internalType": "uint256",
          "name": "value",
          "type": "uint256"
        }
      ],
      "name": "burn",
      "outputs": [],
      "stateMutability": "nonpayable",
      "type": "function"
    },
    {
      "inputs": [
        {
          "internalType": "address",
          "name": "account",
          "type": "address"
        },
        {
          "internalType": "uint256[]",
          "name": "ids",
          "type": "uint256[]"
        },
        {
          "internalType": "uint256[]",
          "name": "values",
          "type": "uint256[]"
        }
      ],
      "name": "burnBatch",
      "outputs": [],
      "stateMutability": "nonpayable",
      "type": "function"
    },
    {
      "inputs": [
        {
          "internalType": "uint256",
          "name": "id",
          "type": "uint256"
        }
      ],
      "name": "exists",
      "outputs": [
        {
          "internalType": "bool",
          "name": "",
          "type": "bool"
        }
      ],
      "stateMutability": "view",
      "type": "function"
    },
    {
      "inputs": [
        {
          "internalType": "bytes32",
          "name": "role",
          "type": "bytes32"
        }
      ],
      "name": "getRoleAdmin",
      "outputs": [
        {
          "internalType": "bytes32",
          "name": "",
          "type": "bytes32"
        }
      ],
      "stateMutability": "view",
      "type": "function"
    },
    {
      "inputs": [
        {
          "internalType": "bytes32",
          "name": "role",
          "type": "bytes32"
        },
        {
          "internalType": "uint256",
          "name": "index",
          "type": "uint256"
        }
      ],
      "name": "getRoleMember",
      "outputs": [
        {
          "internalType": "address",
          "name": "",
          "type": "address"
        }
      ],
      "stateMutability": "view",
      "type": "function"
    },
    {
      "inputs": [
        {
          "internalType": "bytes32",
          "name": "role",
          "type": "bytes32"
        }
      ],
      "name": "getRoleMemberCount",
      "outputs": [
        {
          "internalType": "uint256",
          "name": "",
          "type": "uint256"
        }
      ],
      "stateMutability": "view",
      "type": "function"
    },
    {
      "inputs": [
        {
          "internalType": "bytes32",
          "name": "role",
          "type": "bytes32"
        },
        {
          "internalType": "address",
          "name": "account",
          "type": "address"
        }
      ],
      "name": "grantRole",
      "outputs": [],
      "stateMutability": "nonpayable",
      "type": "function"
    },
    {
      "inputs": [
        {
          "internalType": "bytes32",
          "name": "role",
          "type": "bytes32"
        },
        {
          "internalType": "address",
          "name": "account",
          "type": "address"
        }
      ],
      "name": "hasRole",
      "outputs": [
        {
          "internalType": "bool",
          "name": "",
          "type": "bool"
        }
      ],
      "stateMutability": "view",
      "type": "function"
    },
    {
      "inputs": [],
      "name": "initialize",
      "outputs": [],
      "stateMutability": "nonpayable",
      "type": "function"
    },
    {
      "inputs": [
        {
          "internalType": "string",
          "name": "uri",
          "type": "string"
        }
      ],
      "name": "initialize",
      "outputs": [],
      "stateMutability": "nonpayable",
      "type": "function"
    },
    {
      "inputs": [
        {
          "internalType": "address",
          "name": "account",
          "type": "address"
        },
        {
          "internalType": "address",
          "name": "operator",
          "type": "address"
        }
      ],
      "name": "isApprovedForAll",
      "outputs": [
        {
          "internalType": "bool",
          "name": "",
          "type": "bool"
        }
      ],
      "stateMutability": "view",
      "type": "function"
    },
    {
      "inputs": [
        {
          "internalType": "address",
          "name": "to",
          "type": "address"
        },
        {
          "internalType": "uint256",
          "name": "id",
          "type": "uint256"
        },
        {
          "internalType": "uint256",
          "name": "amount",
          "type": "uint256"
        },
        {
          "internalType": "bytes",
          "name": "data",
          "type": "bytes"
        }
      ],
      "name": "mint",
      "outputs": [],
      "stateMutability": "nonpayable",
      "type": "function"
    },
    {
      "inputs": [
        {
          "internalType": "address",
          "name": "to",
          "type": "address"
        },
        {
          "internalType": "uint256[]",
          "name": "amounts",
          "type": "uint256[]"
        },
        {
          "internalType": "uint256[]",
          "name": "vintages",
          "type": "uint256[]"
        },
        {
          "internalType": "bytes",
          "name": "data",
          "type": "bytes"
        }
      ],
      "name": "mintBatch",
      "outputs": [],
      "stateMutability": "nonpayable",
      "type": "function"
    },
    {
      "inputs": [],
      "name": "name",
      "outputs": [
        {
          "internalType": "string",
          "name": "",
          "type": "string"
        }
      ],
      "stateMutability": "view",
      "type": "function"
    },
    {
      "inputs": [],
      "name": "pause",
      "outputs": [],
      "stateMutability": "nonpayable",
      "type": "function"
    },
    {
      "inputs": [],
      "name": "paused",
      "outputs": [
        {
          "internalType": "bool",
          "name": "",
          "type": "bool"
        }
      ],
      "stateMutability": "view",
      "type": "function"
    },
    {
      "inputs": [
        {
          "internalType": "bytes32",
          "name": "role",
          "type": "bytes32"
        },
        {
          "internalType": "address",
          "name": "account",
          "type": "address"
        }
      ],
      "name": "renounceRole",
      "outputs": [],
      "stateMutability": "nonpayable",
      "type": "function"
    },
    {
      "inputs": [
        {
          "internalType": "bytes32",
          "name": "role",
          "type": "bytes32"
        },
        {
          "internalType": "address",
          "name": "account",
          "type": "address"
        }
      ],
      "name": "revokeRole",
      "outputs": [],
      "stateMutability": "nonpayable",
      "type": "function"
    },
    {
      "inputs": [
        {
          "internalType": "address",
          "name": "_from",
          "type": "address"
        },
        {
          "internalType": "address",
          "name": "_to",
          "type": "address"
        },
        {
          "internalType": "uint256[]",
          "name": "_ids",
          "type": "uint256[]"
        },
        {
          "internalType": "uint256[]",
          "name": "_amounts",
          "type": "uint256[]"
        },
        {
          "internalType": "bytes",
          "name": "_data",
          "type": "bytes"
        }
      ],
      "name": "safeBatchTransferFrom",
      "outputs": [],
      "stateMutability": "nonpayable",
      "type": "function"
    },
    {
      "inputs": [
        {
          "internalType": "address",
          "name": "from",
          "type": "address"
        },
        {
          "internalType": "address",
          "name": "to",
          "type": "address"
        },
        {
          "internalType": "uint256",
          "name": "id",
          "type": "uint256"
        },
        {
          "internalType": "uint256",
          "name": "amount",
          "type": "uint256"
        },
        {
          "internalType": "bytes",
          "name": "data",
          "type": "bytes"
        }
      ],
      "name": "safeTransferFrom",
      "outputs": [],
      "stateMutability": "nonpayable",
      "type": "function"
    },
    {
      "inputs": [
        {
          "internalType": "address",
          "name": "operator",
          "type": "address"
        },
        {
          "internalType": "bool",
          "name": "approved",
          "type": "bool"
        }
      ],
      "name": "setApprovalForAll",
      "outputs": [],
      "stateMutability": "nonpayable",
      "type": "function"
    },
    {
      "inputs": [
        {
          "internalType": "bytes4",
          "name": "interfaceId",
          "type": "bytes4"
        }
      ],
      "name": "supportsInterface",
      "outputs": [
        {
          "internalType": "bool",
          "name": "",
          "type": "bool"
        }
      ],
      "stateMutability": "view",
      "type": "function"
    },
    {
      "inputs": [
        {
          "internalType": "bytes32",
          "name": "uniqueId",
          "type": "bytes32"
        }
      ],
      "name": "tokenIdForRemoval",
      "outputs": [
        {
          "internalType": "uint256",
          "name": "",
          "type": "uint256"
        }
      ],
      "stateMutability": "view",
      "type": "function"
    },
    {
      "inputs": [
        {
          "internalType": "uint256",
          "name": "id",
          "type": "uint256"
        }
      ],
      "name": "totalSupply",
      "outputs": [
        {
          "internalType": "uint256",
          "name": "",
          "type": "uint256"
        }
      ],
      "stateMutability": "view",
      "type": "function"
    },
    {
      "inputs": [],
      "name": "unpause",
      "outputs": [],
      "stateMutability": "nonpayable",
      "type": "function"
    },
    {
      "inputs": [
        {
          "internalType": "uint256",
          "name": "",
          "type": "uint256"
        }
      ],
      "name": "uri",
      "outputs": [
        {
          "internalType": "string",
          "name": "",
          "type": "string"
        }
      ],
      "stateMutability": "view",
      "type": "function"
    },
    {
      "inputs": [
        {
          "internalType": "uint256",
          "name": "removalId",
          "type": "uint256"
        }
      ],
      "name": "vintage",
      "outputs": [
        {
          "components": [
            {
              "internalType": "address",
              "name": "supplier",
              "type": "address"
            },
            {
              "internalType": "uint16",
              "name": "vintage",
              "type": "uint16"
            },
            {
              "internalType": "bytes32",
              "name": "uniqueId",
              "type": "bytes32"
            }
          ],
          "internalType": "struct Removal.Vintage",
          "name": "",
          "type": "tuple"
        }
      ],
      "stateMutability": "view",
      "type": "function"
    }
  ],
  "bytecode": "0x608060405234801561001057600080fd5b506132e1806100206000396000f3fe608060405234801561001057600080fd5b50600436106101ef5760003560e01c80638129fc1c1161010f578063d5391393116100a2578063f242432a11610071578063f242432a14610502578063f5298aca14610515578063f62d188814610528578063fe7a53f71461053b57600080fd5b8063d539139314610489578063d547741f1461049e578063e63ab1e9146104b1578063e985e9c5146104c657600080fd5b8063a217fddf116100de578063a217fddf1461043a578063a22cb46514610442578063bd85b03914610455578063ca15c8731461047657600080fd5b80638129fc1c146103ec5780638456cb59146103f45780639010d07c146103fc57806391d148541461042757600080fd5b806336568abe116101875780635c975abb116101565780635c975abb146103215780636b20c4541461032d578063731133e914610340578063737fa5891461035357600080fd5b806336568abe146102c35780633f4ba83a146102d65780634e1273f4146102de5780634f558e79146102fe57600080fd5b80631f7fdffa116101c35780631f7fdffa14610265578063248a9ca31461027a5780632eb2c2d61461029d5780632f2ff15d146102b057600080fd5b8062fdd58e146101f457806301ffc9a71461021a57806306fdde031461023d5780630e89341c14610252575b600080fd5b610207610202366004612509565b61055c565b6040519081526020015b60405180910390f35b61022d610228366004612549565b6105f8565b6040519015158152602001610211565b610245610603565b60405161021191906125be565b6102456102603660046125d1565b610692565b61027861027336600461273d565b610726565b005b6102076102883660046125d1565b60009081526065602052604090206001015490565b6102786102ab3660046127d5565b61090c565b6102786102be36600461287e565b610919565b6102786102d136600461287e565b610944565b6102786109c2565b6102f16102ec3660046128aa565b610a56565b60405161021191906129af565b61022d61030c3660046125d1565b60009081526101c36020526040902054151590565b61012d5460ff1661022d565b61027861033b3660046129c2565b610b7f565b61027861034e366004612a35565b610bc2565b6103bd6103613660046125d1565b6040805160608082018352600080835260208084018290529284018190529384526101f58252928290208251938401835280546001600160a01b0381168552600160a01b900461ffff1691840191909152600101549082015290565b6040805182516001600160a01b0316815260208084015161ffff16908201529181015190820152606001610211565b610278610c08565b610278610cd9565b61040f61040a366004612a89565b610d6b565b6040516001600160a01b039091168152602001610211565b61022d61043536600461287e565b610d8a565b610207600081565b610278610450366004612aab565b610db5565b6102076104633660046125d1565b60009081526101c3602052604090205490565b6102076104843660046125d1565b610dc0565b61020760008051602061326683398151915281565b6102786104ac36600461287e565b610dd7565b61020760008051602061324683398151915281565b61022d6104d4366004612ae7565b6001600160a01b03918216600090815260ca6020908152604080832093909416825291909152205460ff1690565b610278610510366004612b11565b610dfd565b610278610523366004612b75565b610e42565b610278610536366004612ba8565b610e85565b6102076105493660046125d1565b60009081526101f6602052604090205490565b60006001600160a01b0383166105cd5760405162461bcd60e51b815260206004820152602b60248201527f455243313135353a2062616c616e636520717565727920666f7220746865207a60448201526a65726f206164647265737360a81b60648201526084015b60405180910390fd5b50600081815260c9602090815260408083206001600160a01b03861684529091529020545b92915050565b60006105f282610f00565b6101f8805461061190612bf8565b80601f016020809104026020016040519081016040528092919081815260200182805461063d90612bf8565b801561068a5780601f1061065f5761010080835404028352916020019161068a565b820191906000526020600020905b81548152906001019060200180831161066d57829003601f168201915b505050505081565b606060cb80546106a190612bf8565b80601f01602080910402602001604051908101604052809291908181526020018280546106cd90612bf8565b801561071a5780601f106106ef5761010080835404028352916020019161071a565b820191906000526020600020905b8154815290600101906020018083116106fd57829003601f168201915b50505050509050919050565b600082516001600160401b03811115610741576107416125ea565b60405190808252806020026020018201604052801561076a578160200160208202803683370190505b50905060005b83518110156108c15760008385838151811061078e5761078e612c33565b60200260200101516040516020016107a7929190612c49565b604051602081830303815290604052805190602001209050816101f7546107ce9190612c81565b8383815181106107e0576107e0612c33565b6020026020010181815250506040518060600160405280886001600160a01b0316815260200186848151811061081857610818612c33565b602002602001015161ffff168152602001828152506101f56000846101f7546108419190612c81565b81526020808201929092526040908101600020835181549385015161ffff16600160a01b026001600160b01b03199094166001600160a01b039091161792909217825591909101516001909101556101f75461089e908390612c81565b60009182526101f6602052604090912055806108b981612c99565b915050610770565b5080600182516108d19190612cb4565b815181106108e1576108e1612c33565b602002602001015160016108f59190612c81565b6101f75561090585828685610f0b565b5050505050565b6109058585858585610f4b565b6000828152606560205260409020600101546109358133610fdb565b61093f838361103f565b505050565b6001600160a01b03811633146109b45760405162461bcd60e51b815260206004820152602f60248201527f416363657373436f6e74726f6c3a2063616e206f6e6c792072656e6f756e636560448201526e103937b632b9903337b91039b2b63360891b60648201526084016105c4565b6109be8282611061565b5050565b6109da60008051602061324683398151915233610d8a565b610a4c5760405162461bcd60e51b815260206004820152603b60248201527f455243313135355072657365744d696e7465725061757365723a206d7573742060448201527f686176652070617573657220726f6c6520746f20756e7061757365000000000060648201526084016105c4565b610a54611083565b565b60608151835114610abb5760405162461bcd60e51b815260206004820152602960248201527f455243313135353a206163636f756e747320616e6420696473206c656e677468604482015268040dad2e6dac2e8c6d60bb1b60648201526084016105c4565b600083516001600160401b03811115610ad657610ad66125ea565b604051908082528060200260200182016040528015610aff578160200160208202803683370190505b50905060005b8451811015610b7757610b4a858281518110610b2357610b23612c33565b6020026020010151858381518110610b3d57610b3d612c33565b602002602001015161055c565b828281518110610b5c57610b5c612c33565b6020908102919091010152610b7081612c99565b9050610b05565b509392505050565b6001600160a01b038316331480610b9b5750610b9b83336104d4565b610bb75760405162461bcd60e51b81526004016105c490612ccb565b61093f838383611118565b610bda60008051602061326683398151915233610d8a565b610bf65760405162461bcd60e51b81526004016105c490612d14565b610c02848484846112a9565b50505050565b600054610100900460ff16610c235760005460ff1615610c27565b303b155b610c435760405162461bcd60e51b81526004016105c490612d71565b600054610100900460ff16158015610c65576000805461ffff19166101011790555b610c8660405180606001604052806026815260200161328660269139610e85565b610c8e611381565b60006101f7556040805180820190915260078082526614995b5bdd985b60ca1b6020909201918252610cc3916101f891612454565b508015610cd6576000805461ff00191690555b50565b610cf160008051602061324683398151915233610d8a565b610d635760405162461bcd60e51b815260206004820152603960248201527f455243313135355072657365744d696e7465725061757365723a206d7573742060448201527f686176652070617573657220726f6c6520746f2070617573650000000000000060648201526084016105c4565b610a546113a8565b6000828152609760205260408120610d839083611425565b9392505050565b60009182526065602090815260408084206001600160a01b0393909316845291905290205460ff1690565b6109be338383611431565b60008181526097602052604081206105f290611512565b600082815260656020526040902060010154610df38133610fdb565b61093f8383611061565b6001600160a01b038516331480610e195750610e1985336104d4565b610e355760405162461bcd60e51b81526004016105c490612ccb565b610905858585858561151c565b6001600160a01b038316331480610e5e5750610e5e83336104d4565b610e7a5760405162461bcd60e51b81526004016105c490612ccb565b61093f83838361163d565b600054610100900460ff16610ea05760005460ff1615610ea4565b303b155b610ec05760405162461bcd60e51b81526004016105c490612d71565b600054610100900460ff16158015610ee2576000805461ffff19166101011790555b610eeb82611742565b80156109be576000805461ff00191690555050565b60006105f2826117b3565b610f2360008051602061326683398151915233610d8a565b610f3f5760405162461bcd60e51b81526004016105c490612d14565b610c02848484846117f3565b6001600160a01b038516331480610f675750610f6785336104d4565b610fce5760405162461bcd60e51b815260206004820152603260248201527f455243313135353a207472616e736665722063616c6c6572206973206e6f74206044820152711bdddb995c881b9bdc88185c1c1c9bdd995960721b60648201526084016105c4565b610905858585858561194e565b610fe58282610d8a565b6109be57610ffd816001600160a01b03166014611afb565b611008836020611afb565b604051602001611019929190612dbf565b60408051601f198184030181529082905262461bcd60e51b82526105c4916004016125be565b6110498282611c96565b600082815260976020526040902061093f9082611d1c565b61106b8282611d31565b600082815260976020526040902061093f9082611d98565b61012d5460ff166110cd5760405162461bcd60e51b815260206004820152601460248201527314185d5cd8589b194e881b9bdd081c185d5cd95960621b60448201526064016105c4565b61012d805460ff191690557f5db9ee0a495bf2e6ff9c91a7834c1ba4fdd244a5e8aa4e537bd38aeae4b073aa335b6040516001600160a01b03909116815260200160405180910390a1565b6001600160a01b03831661113e5760405162461bcd60e51b81526004016105c490612e34565b805182511461115f5760405162461bcd60e51b81526004016105c490612e77565b600033905061118281856000868660405180602001604052806000815250611dad565b60005b835181101561124a5760008482815181106111a2576111a2612c33565b6020026020010151905060008483815181106111c0576111c0612c33565b602090810291909101810151600084815260c9835260408082206001600160a01b038c1683529093529190912054909150818110156112115760405162461bcd60e51b81526004016105c490612ebf565b600092835260c9602090815260408085206001600160a01b038b168652909152909220910390558061124281612c99565b915050611185565b5060006001600160a01b0316846001600160a01b0316826001600160a01b03167f4a39dc06d4c0dbc64b70af90fd698a233a518aa5d07e595d983b8c0526c8f7fb868660405161129b929190612f03565b60405180910390a450505050565b6001600160a01b0384166112cf5760405162461bcd60e51b81526004016105c490612f31565b336112ef816000876112e088611dbb565b6112e988611dbb565b87611dad565b600084815260c9602090815260408083206001600160a01b038916845290915281208054859290611321908490612c81565b909155505060408051858152602081018590526001600160a01b0380881692600092918516917fc3d58168c5ae7397731d063d5bbf3d657854427343f4c083240f7aacaa2d0f62910160405180910390a461090581600087878787611e06565b600054610100900460ff16610a545760405162461bcd60e51b81526004016105c490612f72565b61012d5460ff16156113ef5760405162461bcd60e51b815260206004820152601060248201526f14185d5cd8589b194e881c185d5cd95960821b60448201526064016105c4565b61012d805460ff191660011790557f62e78cea01bee320cd4e420270b5ea74000d11b0c9f74754ebdbfc544b05a2586110fb3390565b6000610d838383611f62565b816001600160a01b0316836001600160a01b031614156114a55760405162461bcd60e51b815260206004820152602960248201527f455243313135353a2073657474696e6720617070726f76616c20737461747573604482015268103337b91039b2b63360b91b60648201526084016105c4565b6001600160a01b03838116600081815260ca6020908152604080832094871680845294825291829020805460ff191686151590811790915591519182527f17307eab39ab6107e8899845ad3d59bd9653f200f220920489ca2b5937696c31910160405180910390a3505050565b60006105f2825490565b6001600160a01b0384166115425760405162461bcd60e51b81526004016105c490612fbd565b336115528187876112e088611dbb565b600084815260c9602090815260408083206001600160a01b038a168452909152902054838110156115955760405162461bcd60e51b81526004016105c490613002565b600085815260c9602090815260408083206001600160a01b038b81168552925280832087850390559088168252812080548692906115d4908490612c81565b909155505060408051868152602081018690526001600160a01b03808916928a821692918616917fc3d58168c5ae7397731d063d5bbf3d657854427343f4c083240f7aacaa2d0f62910160405180910390a4611634828888888888611e06565b50505050505050565b6001600160a01b0383166116635760405162461bcd60e51b81526004016105c490612e34565b336116928185600061167487611dbb565b61167d87611dbb565b60405180602001604052806000815250611dad565b600083815260c9602090815260408083206001600160a01b0388168452909152902054828110156116d55760405162461bcd60e51b81526004016105c490612ebf565b600084815260c9602090815260408083206001600160a01b03898116808652918452828520888703905582518981529384018890529092908616917fc3d58168c5ae7397731d063d5bbf3d657854427343f4c083240f7aacaa2d0f62910160405180910390a45050505050565b600054610100900460ff166117695760405162461bcd60e51b81526004016105c490612f72565b611771611381565b611779611381565b611781611381565b611789611381565b61179281611f8c565b61179a611381565b6117a2611fbc565b6117aa611381565b610cd681611ff0565b60006001600160e01b03198216636cdb3d1360e11b14806117e457506001600160e01b031982166303a24d0760e21b145b806105f257506105f282612052565b6001600160a01b0384166118195760405162461bcd60e51b81526004016105c490612f31565b815183511461183a5760405162461bcd60e51b81526004016105c490612e77565b3361184a81600087878787611dad565b60005b84518110156118e65783818151811061186857611868612c33565b602002602001015160c9600087848151811061188657611886612c33565b602002602001015181526020019081526020016000206000886001600160a01b03166001600160a01b0316815260200190815260200160002060008282546118ce9190612c81565b909155508190506118de81612c99565b91505061184d565b50846001600160a01b031660006001600160a01b0316826001600160a01b03167f4a39dc06d4c0dbc64b70af90fd698a233a518aa5d07e595d983b8c0526c8f7fb8787604051611937929190612f03565b60405180910390a461090581600087878787612077565b815183511461196f5760405162461bcd60e51b81526004016105c490612e77565b6001600160a01b0384166119955760405162461bcd60e51b81526004016105c490612fbd565b336119a4818787878787611dad565b60005b8451811015611a8d5760008582815181106119c4576119c4612c33565b6020026020010151905060008583815181106119e2576119e2612c33565b602090810291909101810151600084815260c9835260408082206001600160a01b038e168352909352919091205490915081811015611a335760405162461bcd60e51b81526004016105c490613002565b600083815260c9602090815260408083206001600160a01b038e8116855292528083208585039055908b16825281208054849290611a72908490612c81565b9250508190555050505080611a8690612c99565b90506119a7565b50846001600160a01b0316866001600160a01b0316826001600160a01b03167f4a39dc06d4c0dbc64b70af90fd698a233a518aa5d07e595d983b8c0526c8f7fb8787604051611add929190612f03565b60405180910390a4611af3818787878787612077565b505050505050565b60606000611b0a83600261304c565b611b15906002612c81565b6001600160401b03811115611b2c57611b2c6125ea565b6040519080825280601f01601f191660200182016040528015611b56576020820181803683370190505b509050600360fc1b81600081518110611b7157611b71612c33565b60200101906001600160f81b031916908160001a905350600f60fb1b81600181518110611ba057611ba0612c33565b60200101906001600160f81b031916908160001a9053506000611bc484600261304c565b611bcf906001612c81565b90505b6001811115611c47576f181899199a1a9b1b9c1cb0b131b232b360811b85600f1660108110611c0357611c03612c33565b1a60f81b828281518110611c1957611c19612c33565b60200101906001600160f81b031916908160001a90535060049490941c93611c408161306b565b9050611bd2565b508315610d835760405162461bcd60e51b815260206004820181905260248201527f537472696e67733a20686578206c656e67746820696e73756666696369656e7460448201526064016105c4565b611ca08282610d8a565b6109be5760008281526065602090815260408083206001600160a01b03851684529091529020805460ff19166001179055611cd83390565b6001600160a01b0316816001600160a01b0316837f2f8788117e7eff1d82e926ec794901d17c78024a50270940304540a733656f0d60405160405180910390a45050565b6000610d83836001600160a01b038416612132565b611d3b8282610d8a565b156109be5760008281526065602090815260408083206001600160a01b0385168085529252808320805460ff1916905551339285917ff6391f5c32d9c69d2a47ea670b442974b53935d1edc7fd64eb21e047a839171b9190a45050565b6000610d83836001600160a01b038416612181565b611af3868686868686612274565b60408051600180825281830190925260609160009190602080830190803683370190505090508281600081518110611df557611df5612c33565b602090810291909101015292915050565b6001600160a01b0384163b15611af35760405163f23a6e6160e01b81526001600160a01b0385169063f23a6e6190611e4a9089908990889088908890600401613082565b6020604051808303816000875af1925050508015611e85575060408051601f3d908101601f19168201909252611e82918101906130c7565b60015b611f3257611e916130e4565b806308c379a01415611ecb5750611ea6613100565b80611eb15750611ecd565b8060405162461bcd60e51b81526004016105c491906125be565b505b60405162461bcd60e51b815260206004820152603460248201527f455243313135353a207472616e7366657220746f206e6f6e20455243313135356044820152732932b1b2b4bb32b91034b6b83632b6b2b73a32b960611b60648201526084016105c4565b6001600160e01b0319811663f23a6e6160e01b146116345760405162461bcd60e51b81526004016105c490613189565b6000826000018281548110611f7957611f79612c33565b9060005260206000200154905092915050565b600054610100900460ff16611fb35760405162461bcd60e51b81526004016105c490612f72565b610cd681612390565b600054610100900460ff16611fe35760405162461bcd60e51b81526004016105c490612f72565b61012d805460ff19169055565b600054610100900460ff166120175760405162461bcd60e51b81526004016105c490612f72565b6120226000336123a3565b61203a600080516020613266833981519152336123a3565b610cd6600080516020613246833981519152336123a3565b60006001600160e01b03198216635a05180f60e01b14806105f257506105f2826123ad565b6001600160a01b0384163b15611af35760405163bc197c8160e01b81526001600160a01b0385169063bc197c81906120bb90899089908890889088906004016131d1565b6020604051808303816000875af19250505080156120f6575060408051601f3d908101601f191682019092526120f3918101906130c7565b60015b61210257611e916130e4565b6001600160e01b0319811663bc197c8160e01b146116345760405162461bcd60e51b81526004016105c490613189565b6000818152600183016020526040812054612179575081546001818101845560008481526020808220909301849055845484825282860190935260409020919091556105f2565b5060006105f2565b6000818152600183016020526040812054801561226a5760006121a5600183612cb4565b85549091506000906121b990600190612cb4565b905081811461221e5760008660000182815481106121d9576121d9612c33565b90600052602060002001549050808760000184815481106121fc576121fc612c33565b6000918252602080832090910192909255918252600188019052604090208390555b855486908061222f5761222f61322f565b6001900381819060005260206000200160009055905585600101600086815260200190815260200160002060009055600193505050506105f2565b60009150506105f2565b6122828686868686866123e2565b6001600160a01b03851661230a5760005b8351811015612308578281815181106122ae576122ae612c33565b60200260200101516101c360008684815181106122cd576122cd612c33565b6020026020010151815260200190815260200160002060008282546122f29190612c81565b90915550612301905081612c99565b9050612293565b505b6001600160a01b038416611af35760005b83518110156116345782818151811061233657612336612c33565b60200260200101516101c3600086848151811061235557612355612c33565b60200260200101518152602001908152602001600020600082825461237a9190612cb4565b90915550612389905081612c99565b905061231b565b80516109be9060cb906020840190612454565b6109be828261103f565b60006001600160e01b03198216637965db0b60e01b14806105f257506301ffc9a760e01b6001600160e01b03198316146105f2565b611af386868686868661012d5460ff1615611af35760405162461bcd60e51b815260206004820152602c60248201527f455243313135355061757361626c653a20746f6b656e207472616e736665722060448201526b1dda1a5b19481c185d5cd95960a21b60648201526084016105c4565b82805461246090612bf8565b90600052602060002090601f01602090048101928261248257600085556124c8565b82601f1061249b57805160ff19168380011785556124c8565b828001600101855582156124c8579182015b828111156124c85782518255916020019190600101906124ad565b506124d49291506124d8565b5090565b5b808211156124d457600081556001016124d9565b80356001600160a01b038116811461250457600080fd5b919050565b6000806040838503121561251c57600080fd5b612525836124ed565b946020939093013593505050565b6001600160e01b031981168114610cd657600080fd5b60006020828403121561255b57600080fd5b8135610d8381612533565b60005b83811015612581578181015183820152602001612569565b83811115610c025750506000910152565b600081518084526125aa816020860160208601612566565b601f01601f19169290920160200192915050565b602081526000610d836020830184612592565b6000602082840312156125e357600080fd5b5035919050565b634e487b7160e01b600052604160045260246000fd5b601f8201601f191681016001600160401b0381118282101715612625576126256125ea565b6040525050565b60006001600160401b03821115612645576126456125ea565b5060051b60200190565b600082601f83011261266057600080fd5b8135602061266d8261262c565b60405161267a8282612600565b83815260059390931b850182019282810191508684111561269a57600080fd5b8286015b848110156126b5578035835291830191830161269e565b509695505050505050565b60006001600160401b038311156126d9576126d96125ea565b6040516126f0601f8501601f191660200182612600565b80915083815284848401111561270557600080fd5b83836020830137600060208583010152509392505050565b600082601f83011261272e57600080fd5b610d83838335602085016126c0565b6000806000806080858703121561275357600080fd5b61275c856124ed565b935060208501356001600160401b038082111561277857600080fd5b6127848883890161264f565b9450604087013591508082111561279a57600080fd5b6127a68883890161264f565b935060608701359150808211156127bc57600080fd5b506127c98782880161271d565b91505092959194509250565b600080600080600060a086880312156127ed57600080fd5b6127f6866124ed565b9450612804602087016124ed565b935060408601356001600160401b038082111561282057600080fd5b61282c89838a0161264f565b9450606088013591508082111561284257600080fd5b61284e89838a0161264f565b9350608088013591508082111561286457600080fd5b506128718882890161271d565b9150509295509295909350565b6000806040838503121561289157600080fd5b823591506128a1602084016124ed565b90509250929050565b600080604083850312156128bd57600080fd5b82356001600160401b03808211156128d457600080fd5b818501915085601f8301126128e857600080fd5b813560206128f58261262c565b6040516129028282612600565b83815260059390931b850182019282810191508984111561292257600080fd5b948201945b8386101561294757612938866124ed565b82529482019490820190612927565b9650508601359250508082111561295d57600080fd5b5061296a8582860161264f565b9150509250929050565b600081518084526020808501945080840160005b838110156129a457815187529582019590820190600101612988565b509495945050505050565b602081526000610d836020830184612974565b6000806000606084860312156129d757600080fd5b6129e0846124ed565b925060208401356001600160401b03808211156129fc57600080fd5b612a088783880161264f565b93506040860135915080821115612a1e57600080fd5b50612a2b8682870161264f565b9150509250925092565b60008060008060808587031215612a4b57600080fd5b612a54856124ed565b9350602085013592506040850135915060608501356001600160401b03811115612a7d57600080fd5b6127c98782880161271d565b60008060408385031215612a9c57600080fd5b50508035926020909101359150565b60008060408385031215612abe57600080fd5b612ac7836124ed565b915060208301358015158114612adc57600080fd5b809150509250929050565b60008060408385031215612afa57600080fd5b612b03836124ed565b91506128a1602084016124ed565b600080600080600060a08688031215612b2957600080fd5b612b32866124ed565b9450612b40602087016124ed565b9350604086013592506060860135915060808601356001600160401b03811115612b6957600080fd5b6128718882890161271d565b600080600060608486031215612b8a57600080fd5b612b93846124ed565b95602085013595506040909401359392505050565b600060208284031215612bba57600080fd5b81356001600160401b03811115612bd057600080fd5b8201601f81018413612be157600080fd5b612bf0848235602084016126c0565b949350505050565b600181811c90821680612c0c57607f821691505b60208210811415612c2d57634e487b7160e01b600052602260045260246000fd5b50919050565b634e487b7160e01b600052603260045260246000fd5b60008351612c5b818460208801612566565b9190910191825250602001919050565b634e487b7160e01b600052601160045260246000fd5b60008219821115612c9457612c94612c6b565b500190565b6000600019821415612cad57612cad612c6b565b5060010190565b600082821015612cc657612cc6612c6b565b500390565b60208082526029908201527f455243313135353a2063616c6c6572206973206e6f74206f776e6572206e6f7260408201526808185c1c1c9bdd995960ba1b606082015260800190565b60208082526038908201527f455243313135355072657365744d696e7465725061757365723a206d7573742060408201527f68617665206d696e74657220726f6c6520746f206d696e740000000000000000606082015260800190565b6020808252602e908201527f496e697469616c697a61626c653a20636f6e747261637420697320616c72656160408201526d191e481a5b9a5d1a585b1a5e995960921b606082015260800190565b7f416363657373436f6e74726f6c3a206163636f756e7420000000000000000000815260008351612df7816017850160208801612566565b7001034b99036b4b9b9b4b733903937b6329607d1b6017918401918201528351612e28816028840160208801612566565b01602801949350505050565b60208082526023908201527f455243313135353a206275726e2066726f6d20746865207a65726f206164647260408201526265737360e81b606082015260800190565b60208082526028908201527f455243313135353a2069647320616e6420616d6f756e7473206c656e677468206040820152670dad2e6dac2e8c6d60c31b606082015260800190565b60208082526024908201527f455243313135353a206275726e20616d6f756e7420657863656564732062616c604082015263616e636560e01b606082015260800190565b604081526000612f166040830185612974565b8281036020840152612f288185612974565b95945050505050565b60208082526021908201527f455243313135353a206d696e7420746f20746865207a65726f206164647265736040820152607360f81b606082015260800190565b6020808252602b908201527f496e697469616c697a61626c653a20636f6e7472616374206973206e6f74206960408201526a6e697469616c697a696e6760a81b606082015260800190565b60208082526025908201527f455243313135353a207472616e7366657220746f20746865207a65726f206164604082015264647265737360d81b606082015260800190565b6020808252602a908201527f455243313135353a20696e73756666696369656e742062616c616e636520666f60408201526939103a3930b739b332b960b11b606082015260800190565b600081600019048311821515161561306657613066612c6b565b500290565b60008161307a5761307a612c6b565b506000190190565b6001600160a01b03868116825285166020820152604081018490526060810183905260a0608082018190526000906130bc90830184612592565b979650505050505050565b6000602082840312156130d957600080fd5b8151610d8381612533565b600060033d11156130fd5760046000803e5060005160e01c5b90565b600060443d101561310e5790565b6040516003193d81016004833e81513d6001600160401b03816024840111818411171561313d57505050505090565b82850191508151818111156131555750505050505090565b843d870101602082850101111561316f5750505050505090565b61317e60208286010187612600565b509095945050505050565b60208082526028908201527f455243313135353a204552433131353552656365697665722072656a656374656040820152676420746f6b656e7360c01b606082015260800190565b6001600160a01b0386811682528516602082015260a0604082018190526000906131fd90830186612974565b828103606084015261320f8186612974565b905082810360808401526132238185612592565b98975050505050505050565b634e487b7160e01b600052603160045260246000fdfe65d7a28e3265b37a6474929f336521b332c1681b933f6cb9f3376673440d862a9f2df0fed2c77648de5860a4cc508cd0818c85b8b8a1ab4ceeef8d981c8956a668747470733a2f2f6e6f72692e636f6d2f6170692f72656d6f76616c2f7b69647d2e6a736f6ea2646970667358221220dbc7424252c960d84b987093f86595fe112bcf0dfd96a790813fdeb788aa418364736f6c634300080a0033",
  "linkReferences": {},
  "deployedLinkReferences": {}
}