{
  "_format": "hh-sol-artifact-1",
  "contractName": "Removal",
  "sourceName": "contracts/Removal.sol",
  "abi": [
    {
      "inputs": [],
      "stateMutability": "nonpayable",
      "type": "constructor"
    },
    {
      "inputs": [
        {
          "internalType": "string",
          "name": "array1Name",
          "type": "string"
        },
        {
          "internalType": "string",
          "name": "array2Name",
          "type": "string"
        }
      ],
      "name": "ArrayLengthMismatch",
      "type": "error"
    },
    {
      "inputs": [
        {
          "internalType": "uint256",
          "name": "tokenId",
          "type": "uint256"
        }
      ],
      "name": "RemovalAmountZero",
      "type": "error"
    },
    {
      "inputs": [
        {
          "internalType": "uint256",
          "name": "tokenId",
          "type": "uint256"
        }
      ],
      "name": "TokenIdExists",
      "type": "error"
    },
    {
      "anonymous": false,
      "inputs": [
        {
          "indexed": true,
          "internalType": "address",
          "name": "account",
          "type": "address"
        },
        {
          "indexed": true,
          "internalType": "address",
          "name": "operator",
          "type": "address"
        },
        {
          "indexed": false,
          "internalType": "bool",
          "name": "approved",
          "type": "bool"
        }
      ],
      "name": "ApprovalForAll",
      "type": "event"
    },
    {
      "anonymous": false,
      "inputs": [
        {
          "indexed": false,
          "internalType": "uint8",
          "name": "version",
          "type": "uint8"
        }
      ],
      "name": "Initialized",
      "type": "event"
    },
    {
      "anonymous": false,
      "inputs": [
        {
          "indexed": false,
          "internalType": "address",
          "name": "account",
          "type": "address"
        }
      ],
      "name": "Paused",
      "type": "event"
    },
    {
      "anonymous": false,
      "inputs": [
        {
          "indexed": true,
          "internalType": "bytes32",
          "name": "role",
          "type": "bytes32"
        },
        {
          "indexed": true,
          "internalType": "bytes32",
          "name": "previousAdminRole",
          "type": "bytes32"
        },
        {
          "indexed": true,
          "internalType": "bytes32",
          "name": "newAdminRole",
          "type": "bytes32"
        }
      ],
      "name": "RoleAdminChanged",
      "type": "event"
    },
    {
      "anonymous": false,
      "inputs": [
        {
          "indexed": true,
          "internalType": "bytes32",
          "name": "role",
          "type": "bytes32"
        },
        {
          "indexed": true,
          "internalType": "address",
          "name": "account",
          "type": "address"
        },
        {
          "indexed": true,
          "internalType": "address",
          "name": "sender",
          "type": "address"
        }
      ],
      "name": "RoleGranted",
      "type": "event"
    },
    {
      "anonymous": false,
      "inputs": [
        {
          "indexed": true,
          "internalType": "bytes32",
          "name": "role",
          "type": "bytes32"
        },
        {
          "indexed": true,
          "internalType": "address",
          "name": "account",
          "type": "address"
        },
        {
          "indexed": true,
          "internalType": "address",
          "name": "sender",
          "type": "address"
        }
      ],
      "name": "RoleRevoked",
      "type": "event"
    },
    {
      "anonymous": false,
      "inputs": [
        {
          "indexed": true,
          "internalType": "address",
          "name": "operator",
          "type": "address"
        },
        {
          "indexed": true,
          "internalType": "address",
          "name": "from",
          "type": "address"
        },
        {
          "indexed": true,
          "internalType": "address",
          "name": "to",
          "type": "address"
        },
        {
          "indexed": false,
          "internalType": "uint256[]",
          "name": "ids",
          "type": "uint256[]"
        },
        {
          "indexed": false,
          "internalType": "uint256[]",
          "name": "values",
          "type": "uint256[]"
        }
      ],
      "name": "TransferBatch",
      "type": "event"
    },
    {
      "anonymous": false,
      "inputs": [
        {
          "indexed": true,
          "internalType": "address",
          "name": "operator",
          "type": "address"
        },
        {
          "indexed": true,
          "internalType": "address",
          "name": "from",
          "type": "address"
        },
        {
          "indexed": true,
          "internalType": "address",
          "name": "to",
          "type": "address"
        },
        {
          "indexed": false,
          "internalType": "uint256",
          "name": "id",
          "type": "uint256"
        },
        {
          "indexed": false,
          "internalType": "uint256",
          "name": "value",
          "type": "uint256"
        }
      ],
      "name": "TransferSingle",
      "type": "event"
    },
    {
      "anonymous": false,
      "inputs": [
        {
          "indexed": false,
          "internalType": "string",
          "name": "value",
          "type": "string"
        },
        {
          "indexed": true,
          "internalType": "uint256",
          "name": "id",
          "type": "uint256"
        }
      ],
      "name": "URI",
      "type": "event"
    },
    {
      "anonymous": false,
      "inputs": [
        {
          "indexed": false,
          "internalType": "address",
          "name": "account",
          "type": "address"
        }
      ],
      "name": "Unpaused",
      "type": "event"
    },
    {
      "inputs": [],
      "name": "DEFAULT_ADMIN_ROLE",
      "outputs": [
        {
          "internalType": "bytes32",
          "name": "",
          "type": "bytes32"
        }
      ],
      "stateMutability": "view",
      "type": "function"
    },
    {
      "inputs": [],
      "name": "MINTER_ROLE",
      "outputs": [
        {
          "internalType": "bytes32",
          "name": "",
          "type": "bytes32"
        }
      ],
      "stateMutability": "view",
      "type": "function"
    },
    {
      "inputs": [],
      "name": "PAUSER_ROLE",
      "outputs": [
        {
          "internalType": "bytes32",
          "name": "",
          "type": "bytes32"
        }
      ],
      "stateMutability": "view",
      "type": "function"
    },
    {
      "inputs": [],
      "name": "RELEASER_ROLE",
      "outputs": [
        {
          "internalType": "bytes32",
          "name": "",
          "type": "bytes32"
        }
      ],
      "stateMutability": "view",
      "type": "function"
    },
    {
      "inputs": [
        {
          "internalType": "address",
          "name": "account",
          "type": "address"
        },
        {
          "internalType": "uint256",
          "name": "id",
          "type": "uint256"
        }
      ],
      "name": "balanceOf",
      "outputs": [
        {
          "internalType": "uint256",
          "name": "",
          "type": "uint256"
        }
      ],
      "stateMutability": "view",
      "type": "function"
    },
    {
      "inputs": [
        {
          "internalType": "address[]",
          "name": "accounts",
          "type": "address[]"
        },
        {
          "internalType": "uint256[]",
          "name": "ids",
          "type": "uint256[]"
        }
      ],
      "name": "balanceOfBatch",
      "outputs": [
        {
          "internalType": "uint256[]",
          "name": "",
          "type": "uint256[]"
        }
      ],
      "stateMutability": "view",
      "type": "function"
    },
    {
      "inputs": [
        {
          "internalType": "address",
          "name": "account",
          "type": "address"
        },
        {
          "internalType": "uint256[]",
          "name": "ids",
          "type": "uint256[]"
        }
      ],
      "name": "balanceOfIds",
      "outputs": [
        {
          "internalType": "uint256[]",
          "name": "",
          "type": "uint256[]"
        }
      ],
      "stateMutability": "view",
      "type": "function"
    },
    {
      "inputs": [
        {
          "internalType": "uint256[]",
          "name": "removalIds",
          "type": "uint256[]"
        }
      ],
      "name": "batchGetHoldbackPercentages",
      "outputs": [
        {
          "internalType": "uint256[]",
          "name": "",
          "type": "uint256[]"
        }
      ],
      "stateMutability": "view",
      "type": "function"
    },
    {
      "inputs": [],
      "name": "certificateAddress",
      "outputs": [
        {
          "internalType": "address",
          "name": "",
          "type": "address"
        }
      ],
      "stateMutability": "view",
      "type": "function"
    },
    {
      "inputs": [
        {
          "components": [
            {
              "internalType": "uint8",
              "name": "idVersion",
              "type": "uint8"
            },
            {
              "internalType": "uint8",
              "name": "methodology",
              "type": "uint8"
            },
            {
              "internalType": "uint8",
              "name": "methodologyVersion",
              "type": "uint8"
            },
            {
              "internalType": "uint16",
              "name": "vintage",
              "type": "uint16"
            },
            {
              "internalType": "bytes2",
              "name": "country",
              "type": "bytes2"
            },
            {
              "internalType": "bytes2",
              "name": "subdivision",
              "type": "bytes2"
            },
            {
              "internalType": "address",
              "name": "supplierAddress",
              "type": "address"
            },
            {
              "internalType": "uint32",
              "name": "subIdentifier",
              "type": "uint32"
            }
          ],
          "internalType": "struct UnpackedRemovalIdV0",
          "name": "removalData",
          "type": "tuple"
        }
      ],
      "name": "createRemovalId",
      "outputs": [
        {
          "internalType": "uint256",
          "name": "",
          "type": "uint256"
        }
      ],
      "stateMutability": "pure",
      "type": "function"
    },
    {
      "inputs": [
        {
          "internalType": "address",
          "name": "owner",
          "type": "address"
        }
      ],
      "name": "cumulativeBalanceOf",
      "outputs": [
        {
          "internalType": "uint256",
          "name": "",
          "type": "uint256"
        }
      ],
      "stateMutability": "view",
      "type": "function"
    },
    {
      "inputs": [
        {
          "internalType": "address[]",
          "name": "accounts",
          "type": "address[]"
        }
      ],
      "name": "cumulativeBalanceOfBatch",
      "outputs": [
        {
          "internalType": "uint256[]",
          "name": "",
          "type": "uint256[]"
        }
      ],
      "stateMutability": "view",
      "type": "function"
    },
    {
      "inputs": [
        {
          "internalType": "uint256",
          "name": "id",
          "type": "uint256"
        }
      ],
      "name": "exists",
      "outputs": [
        {
          "internalType": "bool",
          "name": "",
          "type": "bool"
        }
      ],
      "stateMutability": "view",
      "type": "function"
    },
    {
      "inputs": [
        {
          "internalType": "uint256",
          "name": "removalId",
          "type": "uint256"
        }
      ],
      "name": "getProjectIdForRemoval",
      "outputs": [
        {
          "internalType": "uint256",
          "name": "",
          "type": "uint256"
        }
      ],
      "stateMutability": "view",
      "type": "function"
    },
    {
      "inputs": [
        {
          "internalType": "bytes32",
          "name": "role",
          "type": "bytes32"
        }
      ],
      "name": "getRoleAdmin",
      "outputs": [
        {
          "internalType": "bytes32",
          "name": "",
          "type": "bytes32"
        }
      ],
      "stateMutability": "view",
      "type": "function"
    },
    {
      "inputs": [
        {
          "internalType": "bytes32",
          "name": "role",
          "type": "bytes32"
        },
        {
          "internalType": "uint256",
          "name": "index",
          "type": "uint256"
        }
      ],
      "name": "getRoleMember",
      "outputs": [
        {
          "internalType": "address",
          "name": "",
          "type": "address"
        }
      ],
      "stateMutability": "view",
      "type": "function"
    },
    {
      "inputs": [
        {
          "internalType": "bytes32",
          "name": "role",
          "type": "bytes32"
        }
      ],
      "name": "getRoleMemberCount",
      "outputs": [
        {
          "internalType": "uint256",
          "name": "",
          "type": "uint256"
        }
      ],
      "stateMutability": "view",
      "type": "function"
    },
    {
      "inputs": [
        {
          "internalType": "uint256",
          "name": "projectId",
          "type": "uint256"
        }
      ],
      "name": "getScheduleDataForProjectId",
      "outputs": [
        {
          "components": [
            {
              "internalType": "uint256",
              "name": "startTime",
              "type": "uint256"
            },
            {
              "internalType": "address",
              "name": "supplierAddress",
              "type": "address"
            },
            {
              "internalType": "uint256",
              "name": "methodology",
              "type": "uint256"
            },
            {
              "internalType": "uint256",
              "name": "methodologyVersion",
              "type": "uint256"
            }
          ],
          "internalType": "struct ScheduleData",
          "name": "",
          "type": "tuple"
        }
      ],
      "stateMutability": "view",
      "type": "function"
    },
    {
      "inputs": [
        {
          "internalType": "uint256",
          "name": "removalId",
          "type": "uint256"
        }
      ],
      "name": "getScheduleDataForRemovalId",
      "outputs": [
        {
          "components": [
            {
              "internalType": "uint256",
              "name": "startTime",
              "type": "uint256"
            },
            {
              "internalType": "address",
              "name": "supplierAddress",
              "type": "address"
            },
            {
              "internalType": "uint256",
              "name": "methodology",
              "type": "uint256"
            },
            {
              "internalType": "uint256",
              "name": "methodologyVersion",
              "type": "uint256"
            }
          ],
          "internalType": "struct ScheduleData",
          "name": "",
          "type": "tuple"
        }
      ],
      "stateMutability": "view",
      "type": "function"
    },
    {
      "inputs": [
        {
          "internalType": "bytes32",
          "name": "role",
          "type": "bytes32"
        },
        {
          "internalType": "address",
          "name": "account",
          "type": "address"
        }
      ],
      "name": "grantRole",
      "outputs": [],
      "stateMutability": "nonpayable",
      "type": "function"
    },
    {
      "inputs": [
        {
          "internalType": "bytes32",
          "name": "role",
          "type": "bytes32"
        },
        {
          "internalType": "address",
          "name": "account",
          "type": "address"
        }
      ],
      "name": "hasRole",
      "outputs": [
        {
          "internalType": "bool",
          "name": "",
          "type": "bool"
        }
      ],
      "stateMutability": "view",
      "type": "function"
    },
    {
      "inputs": [],
      "name": "initialize",
      "outputs": [],
      "stateMutability": "nonpayable",
      "type": "function"
    },
    {
      "inputs": [
        {
          "internalType": "address",
          "name": "account",
          "type": "address"
        },
        {
          "internalType": "address",
          "name": "operator",
          "type": "address"
        }
      ],
      "name": "isApprovedForAll",
      "outputs": [
        {
          "internalType": "bool",
          "name": "",
          "type": "bool"
        }
      ],
      "stateMutability": "view",
      "type": "function"
    },
    {
      "inputs": [],
      "name": "marketAddress",
      "outputs": [
        {
          "internalType": "address",
          "name": "",
          "type": "address"
        }
      ],
      "stateMutability": "view",
      "type": "function"
    },
    {
      "inputs": [
        {
          "internalType": "address",
          "name": "to",
          "type": "address"
        },
        {
          "internalType": "uint256[]",
          "name": "amounts",
          "type": "uint256[]"
        },
        {
          "internalType": "uint256[]",
          "name": "ids",
          "type": "uint256[]"
        },
        {
          "components": [
            {
              "internalType": "uint256",
              "name": "projectId",
              "type": "uint256"
            },
            {
              "internalType": "uint256",
              "name": "scheduleStartTime",
              "type": "uint256"
            },
            {
              "internalType": "uint8",
              "name": "holdbackPercentage",
              "type": "uint8"
            },
            {
              "internalType": "bool",
              "name": "list",
              "type": "bool"
            }
          ],
          "internalType": "struct BatchMintRemovalsData",
          "name": "data",
          "type": "tuple"
        }
      ],
      "name": "mintBatch",
      "outputs": [],
      "stateMutability": "nonpayable",
      "type": "function"
    },
    {
      "inputs": [
        {
          "internalType": "address",
          "name": "account",
          "type": "address"
        }
      ],
      "name": "numberOfTokensOwnedByAddress",
      "outputs": [
        {
          "internalType": "uint256",
          "name": "",
          "type": "uint256"
        }
      ],
      "stateMutability": "view",
      "type": "function"
    },
    {
      "inputs": [],
      "name": "pause",
      "outputs": [],
      "stateMutability": "nonpayable",
      "type": "function"
    },
    {
      "inputs": [],
      "name": "paused",
      "outputs": [
        {
          "internalType": "bool",
          "name": "",
          "type": "bool"
        }
      ],
      "stateMutability": "view",
      "type": "function"
    },
    {
      "inputs": [
        {
          "internalType": "contract RestrictedNORI",
          "name": "restrictedNori",
          "type": "address"
        },
        {
          "internalType": "contract Market",
          "name": "market",
          "type": "address"
        },
        {
          "internalType": "contract Certificate",
          "name": "certificate",
          "type": "address"
        }
      ],
      "name": "registerContractAddresses",
      "outputs": [],
      "stateMutability": "nonpayable",
      "type": "function"
    },
    {
      "inputs": [
        {
          "internalType": "address",
          "name": "owner",
          "type": "address"
        },
        {
          "internalType": "uint256",
          "name": "removalId",
          "type": "uint256"
        },
        {
          "internalType": "uint256",
          "name": "amount",
          "type": "uint256"
        }
      ],
      "name": "release",
      "outputs": [],
      "stateMutability": "nonpayable",
      "type": "function"
    },
    {
      "inputs": [
        {
          "internalType": "bytes32",
          "name": "role",
          "type": "bytes32"
        },
        {
          "internalType": "address",
          "name": "account",
          "type": "address"
        }
      ],
      "name": "renounceRole",
      "outputs": [],
      "stateMutability": "nonpayable",
      "type": "function"
    },
    {
      "inputs": [],
      "name": "restrictedNoriAddress",
      "outputs": [
        {
          "internalType": "address",
          "name": "",
          "type": "address"
        }
      ],
      "stateMutability": "view",
      "type": "function"
    },
    {
      "inputs": [
        {
          "internalType": "bytes32",
          "name": "role",
          "type": "bytes32"
        },
        {
          "internalType": "address",
          "name": "account",
          "type": "address"
        }
      ],
      "name": "revokeRole",
      "outputs": [],
      "stateMutability": "nonpayable",
      "type": "function"
    },
    {
      "inputs": [
        {
          "internalType": "address",
          "name": "from",
          "type": "address"
        },
        {
          "internalType": "address",
          "name": "to",
          "type": "address"
        },
        {
          "internalType": "uint256[]",
          "name": "ids",
          "type": "uint256[]"
        },
        {
          "internalType": "uint256[]",
          "name": "amounts",
          "type": "uint256[]"
        },
        {
          "internalType": "bytes",
          "name": "data",
          "type": "bytes"
        }
      ],
      "name": "safeBatchTransferFrom",
      "outputs": [],
      "stateMutability": "nonpayable",
      "type": "function"
    },
    {
      "inputs": [
        {
          "internalType": "address",
          "name": "from",
          "type": "address"
        },
        {
          "internalType": "address",
          "name": "to",
          "type": "address"
        },
        {
          "internalType": "uint256",
          "name": "id",
          "type": "uint256"
        },
        {
          "internalType": "uint256",
          "name": "amount",
          "type": "uint256"
        },
        {
          "internalType": "bytes",
          "name": "data",
          "type": "bytes"
        }
      ],
      "name": "safeTransferFrom",
      "outputs": [],
      "stateMutability": "nonpayable",
      "type": "function"
    },
    {
      "inputs": [
        {
          "internalType": "address",
          "name": "operator",
          "type": "address"
        },
        {
          "internalType": "bool",
          "name": "approved",
          "type": "bool"
        }
      ],
      "name": "setApprovalForAll",
      "outputs": [],
      "stateMutability": "nonpayable",
      "type": "function"
    },
    {
      "inputs": [
        {
          "internalType": "bytes4",
          "name": "interfaceId",
          "type": "bytes4"
        }
      ],
      "name": "supportsInterface",
      "outputs": [
        {
          "internalType": "bool",
          "name": "",
          "type": "bool"
        }
      ],
      "stateMutability": "view",
      "type": "function"
    },
    {
      "inputs": [
        {
          "internalType": "address",
          "name": "owner",
          "type": "address"
        }
      ],
      "name": "tokensOfOwner",
      "outputs": [
        {
          "internalType": "uint256[]",
          "name": "",
          "type": "uint256[]"
        }
      ],
      "stateMutability": "view",
      "type": "function"
    },
    {
      "inputs": [
        {
          "internalType": "uint256",
          "name": "id",
          "type": "uint256"
        }
      ],
      "name": "totalSupply",
      "outputs": [
        {
          "internalType": "uint256",
          "name": "",
          "type": "uint256"
        }
      ],
      "stateMutability": "view",
      "type": "function"
    },
    {
      "inputs": [
        {
          "internalType": "uint256",
          "name": "removalId",
          "type": "uint256"
        }
      ],
      "name": "unpackRemovalIdV0",
      "outputs": [
        {
          "components": [
            {
              "internalType": "uint8",
              "name": "idVersion",
              "type": "uint8"
            },
            {
              "internalType": "uint8",
              "name": "methodology",
              "type": "uint8"
            },
            {
              "internalType": "uint8",
              "name": "methodologyVersion",
              "type": "uint8"
            },
            {
              "internalType": "uint16",
              "name": "vintage",
              "type": "uint16"
            },
            {
              "internalType": "bytes2",
              "name": "country",
              "type": "bytes2"
            },
            {
              "internalType": "bytes2",
              "name": "subdivision",
              "type": "bytes2"
            },
            {
              "internalType": "address",
              "name": "supplierAddress",
              "type": "address"
            },
            {
              "internalType": "uint32",
              "name": "subIdentifier",
              "type": "uint32"
            }
          ],
          "internalType": "struct UnpackedRemovalIdV0",
          "name": "",
          "type": "tuple"
        }
      ],
      "stateMutability": "pure",
      "type": "function"
    },
    {
      "inputs": [],
      "name": "unpause",
      "outputs": [],
      "stateMutability": "nonpayable",
      "type": "function"
    },
    {
      "inputs": [
        {
          "internalType": "uint256",
          "name": "",
          "type": "uint256"
        }
      ],
      "name": "uri",
      "outputs": [
        {
          "internalType": "string",
          "name": "",
          "type": "string"
        }
      ],
      "stateMutability": "view",
      "type": "function"
    }
  ],
  "bytecode": "0x60808060405234620000c6576000549060ff8260081c1662000074575060ff8082161062000038575b6040516158a79081620000cc8239f35b60ff90811916176000557f7f26b83ff96e1f2b6a682f133852f6798a09c465da95921460cefb3847402498602060405160ff8152a13862000028565b62461bcd60e51b815260206004820152602760248201527f496e697469616c697a61626c653a20636f6e747261637420697320696e697469604482015266616c697a696e6760c81b6064820152608490fd5b600080fdfe6080604052600436101561001257600080fd5b600060e08135811c908162fdd58e14613efd578163018e1c8314613e5257816301ffc9a714613cfb5781630e89341c14613bdd5781631990ad0514613b77578163248a9ca314613b2c5781632707193b14613ad95781632eb2c2d614613a3c5781632f2ff15d1461392d57816336568abe146138485781633df4fe7c1461305d5781633f4ba83a14612f685781634e1273f414612ede5781634f558e7914612e895781635c975abb14612e48578163789e8cdf14612de45781637f7081fa14612d915781638129fc1c146126de5781638456cb59146126455781638462151c14612592578163854560a414612445578163898a2b3f1461203d5781639010d07c14611fcc57816391d1485414611f595781639562364114611f0657816399d5121b14611e30578163a217fddf14611df6578163a22cb46514611c9c578163ac28af2414611c43578163b6477cc014611b9b578163bd85b03914611b53578163c1b8ecdd14611a1b578163ca15c873146119d2578163d539139314611979578163d547741f14611918578163d85a53e9146117e257508063e0fc293814611799578063e63ab1e914611740578063e6e0a038146113f8578063e985e9c51461137d578063f242432a14610d845763f297be66146101ed57600080fd5b34610d8157606090817ffffffffffffffffffffffffffffffffffffffffffffffffffffffffffffffffc360112610d8157610226613f4b565b907f88f3509f0e42391f2d94ebfb2a37cbd0782b1b8f73715330017f4663290b81179081815260209160fb835260408220338352835260ff60408320541615610b09575073ffffffffffffffffffffffffffffffffffffffff61016081815416958286169687146000146106a057505416803b1561069c578180916044604051809481937f366a41200000000000000000000000000000000000000000000000000000000083526024356004840152833560248401525af180156106915761064c575b50905b83158015906105c85760249485359061030482614c0b565b9060449384359761031489614c0b565b948860405161032281613ffe565b5261032b61500d565b8551895b818110610570575050885b855181101561040d5761034d818761483f565b51610358828961483f565b5190808c5260c9808c5260408d20549183831061038a578d528b5260408c209190039055610385906147e3565b61033a565b8f8d7f455243313135353a206275726e20616d6f756e74206578636565647320746f748e6028608494604051947f08c379a000000000000000000000000000000000000000000000000000000000865260048601528401528201527f616c537570706c790000000000000000000000000000000000000000000000006064820152fd5b5090889588928b8d8a838b526097875260408b20896000528752604060002054918383106104ef575050918188928b94838652609789526040862085600052895203604060002055604051918252868201527fc3d58168c5ae7397731d063d5bbf3d657854427343f4c083240f7aacaa2d0f6260403392a48660405161049281613ffe565b525194865b8681106104a45787604051f35b80856104b36104c0938561483f565b51906104c5575b506147e3565b610497565b6104cf81866146d6565b6104ba576104e890888b52610164875260408b20614eb3565b50896104ba565b7f455243313135353a206275726e20616d6f756e7420657863656564732062616c6084928992604051937f08c379a00000000000000000000000000000000000000000000000000000000085526004850152808401528201527f616e6365000000000000000000000000000000000000000000000000000000006064820152fd5b61057a818961483f565b511561058e57610589906147e3565b61032f565b6105998d918861483f565b51604051907f863bda4f0000000000000000000000000000000000000000000000000000000082526004820152fd5b608482604051907f08c379a00000000000000000000000000000000000000000000000000000000082526004820152602360248201527f455243313135353a206275726e2066726f6d20746865207a65726f206164647260448201527f65737300000000000000000000000000000000000000000000000000000000006064820152fd5b67ffffffffffffffff811161066457604052386102e9565b6024827f4e487b710000000000000000000000000000000000000000000000000000000081526041600452fd5b6040513d84823e3d90fd5b5080fd5b91905061016193929354168086146106ba575b50506102ec565b604051917fbfdecc67000000000000000000000000000000000000000000000000000000008352602492833580600483015286828681875afa918215610afe578792610a06575b50908693918195939551916107158361405b565b96610723604051988961401a565b83885261072f8461405b565b7fffffffffffffffffffffffffffffffffffffffffffffffffffffffffffffffe0019089885b8381106109f35750505050855b83811061092f57505050506040519384927fac9650d80000000000000000000000000000000000000000000000000000000084528301866004850152815180915260448401908760448260051b87010193019186905b898383106108e05750505050508383809203925af180156108d5576107de575b806106b3565b3d8084833e6107ed818361401a565b81019082818303126108d157805167ffffffffffffffff918282116108cd57019180601f840112156108c95782519184806108278561405b565b610834604051918261401a565b858152019360051b850101938285116108c557858101935b85851061085d5750505050506107d8565b84518381116108c157820184603f820112156108c157878101516108808161417d565b9161088e604051938461401a565b81835286604083830101116108bd57916108b28a9492859460408685019101614105565b81520194019361084c565b8a80fd5b8880fd5b8680fd5b8480fd5b8580fd5b8380fd5b6040513d85823e3d90fd5b9194600193969850807fffffffffffffffffffffffffffffffffffffffffffffffffffffffffffffffbc8493969961091d9303018652885161413a565b960192019201928895938795936107b8565b909192939550610942818398969861483f565b51888151910151604051917f8e104d57000000000000000000000000000000000000000000000000000000008b8401528983015284604483015260649081830152815260a0810181811067ffffffffffffffff8211176109c7576040526109b991906109ae828861483f565b526104ba818761483f565b908895939291969496610762565b888b7f4e487b710000000000000000000000000000000000000000000000000000000081526041600452fd5b8a810182018390528c99508b9101610755565b9091503d8088833e610a18818361401a565b8101908681830312610afa57805167ffffffffffffffff91828211610af657019082601f830112156108c157815190610a508261405b565b93610a5e604051958661401a565b828552898086019360061b85010193818511610af2578a01925b848410610a8b5750505050509038610701565b604084830312610af2576040516040810181811085821117610ac657918c916040938452865181528287015183820152815201930192610a78565b8b8e7f4e487b710000000000000000000000000000000000000000000000000000000081526041600452fd5b8b80fd5b8980fd5b8780fd5b6040513d89823e3d90fd5b828583610b1533614c52565b9360405191610b2383613f96565b6042835284830193368537825115610d545760308453825190600191821015610d545790607860218501536041915b818311610c8957505050610c2c57610bde93610bed926048926040519687937f416363657373436f6e74726f6c3a206163636f756e742000000000000000000088860152610ba9815180928a603789019101614105565b8401917f206973206d697373696e6720726f6c6520000000000000000000000000000000603784015251809386840190614105565b0103602881018552018361401a565b610c286040519283927f08c379a00000000000000000000000000000000000000000000000000000000084526004840152602483019061413a565b0390fd5b606483604051907f08c379a000000000000000000000000000000000000000000000000000000000825280600483015260248201527f537472696e67733a20686578206c656e67746820696e73756666696369656e746044820152fd5b909192600f81166010811015610d27577f3031323334353637383961626364656600000000000000000000000000000000901a610cc68587614c41565b5360041c928015610cfa577fffffffffffffffffffffffffffffffffffffffffffffffffffffffffffffffff019190610b52565b6024827f4e487b710000000000000000000000000000000000000000000000000000000081526011600452fd5b6024837f4e487b710000000000000000000000000000000000000000000000000000000081526032600452fd5b807f4e487b7100000000000000000000000000000000000000000000000000000000602492526032600452fd5b80fd5b5034610d815760a07ffffffffffffffffffffffffffffffffffffffffffffffffffffffffffffffffc360112610d8157610dbc613f4b565b610dc4613f73565b60843567ffffffffffffffff81116108d157610de49036906004016141b7565b9073ffffffffffffffffffffffffffffffffffffffff9133838516148015611356575b610e1090614978565b610e1d8383161515614a03565b610e28604435614c0b565b610e33606435614c0b565b610e3b61500d565b8051875b81811061132c575050848616156112d1575b848416156111e8575b604435875260976020526040872085871688526020526040872054610e83606435821015614a8e565b60443588526097602052604088208688168952602052606435900360408820556044358752609760205260408720858516885260205260408720610eca6064358254614b19565b90556040516044358152606435602082015285851690868816907fc3d58168c5ae7397731d063d5bbf3d657854427343f4c083240f7aacaa2d0f6260403392a45190865b82811061117457505050813b610f25575b84604051f35b602091610f899186604051958680958194837ff23a6e61000000000000000000000000000000000000000000000000000000009b8c85523360048601521660248401526044356044840152606435606484015260a0608484015260a483019061413a565b0393165af1839181611143575b506110965750506001610fa7614b5d565b6308c379a014611045575b610fc0575b38808080610f1f565b6040517f08c379a000000000000000000000000000000000000000000000000000000000815260206004820152603460248201527f455243313135353a207472616e7366657220746f206e6f6e204552433131353560448201527f526563656976657220696d706c656d656e7465720000000000000000000000006064820152608490fd5b61104d614b7b565b806110585750610fb2565b610c28906040519182917f08c379a000000000000000000000000000000000000000000000000000000000835260206004840152602483019061413a565b7fffffffff000000000000000000000000000000000000000000000000000000001614610fb7575b6040517f08c379a000000000000000000000000000000000000000000000000000000000815260206004820152602860248201527f455243313135353a204552433131353552656365697665722072656a6563746560448201527f6420746f6b656e730000000000000000000000000000000000000000000000006064820152608490fd5b61116691925060203d60201161116d575b61115e818361401a565b810190614b25565b9038610f96565b503d611154565b80611182611198928461483f565b518789166111bc575b87871661119d57506147e3565b610f0e565b6111b5908888168b5261016460205260408b20614df0565b50386104ba565b6111c6818a6146d6565b61118b578789168a526101646020526111e28160408c20614eb3565b5061118b565b95939092849592955b84518110156112c457611204818661483f565b5190611210818a61483f565b5182885260c960205260408820548181106112405761123b93895260c96020520360408820556147e3565b6111f1565b60846040517f08c379a000000000000000000000000000000000000000000000000000000000815260206004820152602860248201527f455243313135353a206275726e20616d6f756e74206578636565647320746f7460448201527f616c537570706c790000000000000000000000000000000000000000000000006064820152fd5b5092909395949194610e5a565b92869592959491945b855181101561131f57806112f161131a928761483f565b516112fc828961483f565b518a5260c960205261131360408b20918254614b19565b90556147e3565b6112da565b5092949194939093610e51565b611336818461483f565b511561134a57611345906147e3565b610e3f565b6105996024918561483f565b508284168552609860205260408520338652602052610e1060ff6040872054169050610e07565b5034610d815760407ffffffffffffffffffffffffffffffffffffffffffffffffffffffffffffffffc360112610d815760ff60406020926113bc613f4b565b6113c4613f73565b73ffffffffffffffffffffffffffffffffffffffff9182168352609886528383209116825284522054604051911615158152f35b5034610d815760607ffffffffffffffffffffffffffffffffffffffffffffffffffffffffffffffffc360112610d815760043573ffffffffffffffffffffffffffffffffffffffff80821680920361173c5760248035908282168092036108c9576044359283168093036108c95761146e61500d565b848052602060fb815260408620338752815260ff604087205416156114d65750507fffffffffffffffffffffffff00000000000000000000000000000000000000009261015f9084825416179055610160908382541617905561016191825416179055604051f35b856114e033614c52565b9080604051906114ef82613f96565b6042825284820192606036853782511561171057603084538251906001918210156116e45790607860218501536041915b81831161161b575050506115bf576048610c289361157a93611589936040519586937f416363657373436f6e74726f6c3a206163636f756e74200000000000000000008a860152610ba9815180928c603789019101614105565b0103602881018452018261401a565b6040519384937f08c379a0000000000000000000000000000000000000000000000000000000008552600485015283019061413a565b60648585604051917f08c379a00000000000000000000000000000000000000000000000000000000083528160048401528201527f537472696e67733a20686578206c656e67746820696e73756666696369656e746044820152fd5b909192600f811660108110156116b8577f3031323334353637383961626364656600000000000000000000000000000000901a6116588587614c41565b5360041c92801561168c577fffffffffffffffffffffffffffffffffffffffffffffffffffffffffffffffff019190611520565b88827f4e487b710000000000000000000000000000000000000000000000000000000081526011600452fd5b89837f4e487b710000000000000000000000000000000000000000000000000000000081526032600452fd5b807f4e487b71000000000000000000000000000000000000000000000000000000008992526032600452fd5b807f4e487b71000000000000000000000000000000000000000000000000000000008892526032600452fd5b8280fd5b5034610d8157807ffffffffffffffffffffffffffffffffffffffffffffffffffffffffffffffffc360112610d815760206040517f65d7a28e3265b37a6474929f336521b332c1681b933f6cb9f3376673440d862a8152f35b5034610d815760207ffffffffffffffffffffffffffffffffffffffffffffffffffffffffffffffffc360112610d81576040602091600435815261016283522054604051908152f35b8234610d815760207ffffffffffffffffffffffffffffffffffffffffffffffffffffffffffffffffc360112610d8157506004359061181f6151d7565b506118286151d7565b508160f81c916040519261183b84613fe1565b80845260208401938260f41c600f168552604081018360f01c600f1681526060820161ffff908186881c16815260808401917fffff000000000000000000000000000000000000000000000000000000000000928391828960201b16825260a0870193838a60301b16855260c08801968b73ffffffffffffffffffffffffffffffffffffffff998a8d60201c168a52019963ffffffff809c168b526040519d8e9182525160ff1690602001525160ff1660408d0152511660608b015251166080890152511660a0870152511660c085015251169082015261010090f35b8234610d815760407ffffffffffffffffffffffffffffffffffffffffffffffffffffffffffffffffc360112610d8157611974600435611956613f73565b9080845260fb60205261196f6001604086200154614490565b6145cc565b604051f35b8234610d8157807ffffffffffffffffffffffffffffffffffffffffffffffffffffffffffffffffc360112610d815760206040517f9f2df0fed2c77648de5860a4cc508cd0818c85b8b8a1ab4ceeef8d981c8956a68152f35b8234610d815760207ffffffffffffffffffffffffffffffffffffffffffffffffffffffffffffffffc360112610d81576040602091600435815261012d83522054604051908152f35b8234610d81576020807ffffffffffffffffffffffffffffffffffffffffffffffffffffffffffffffffc36011261069c5760043567ffffffffffffffff811161173c57611a6c9036906004016141fe565b91825190611a7982614794565b93815b838110611a9a5760405185815280611a96818801896140d1565b0390f35b73ffffffffffffffffffffffffffffffffffffffff611ab9828461483f565b511690604051917f854560a400000000000000000000000000000000000000000000000000000000835260048301528582602481305afa8015611b48578490611b17575b611b129250611b0c828961483f565b526147e3565b611a7c565b50908581813d8311611b41575b611b2e818361401a565b810103126108d15790611b129151611afd565b503d611b24565b6040513d86823e3d90fd5b8234610d815760207ffffffffffffffffffffffffffffffffffffffffffffffffffffffffffffffffc360112610d81576040602091600435815260c983522054604051908152f35b8234610d81576020807ffffffffffffffffffffffffffffffffffffffffffffffffffffffffffffffffc36011261069c5760043567ffffffffffffffff811161173c57611bec903690600401614073565b91825190611bf982614794565b93815b838110611c165760405185815280611a96818801896140d1565b80611c24611c3e928461483f565b51845261016286526001604085200154611b0c828961483f565b611bfc565b8234610d8157807ffffffffffffffffffffffffffffffffffffffffffffffffffffffffffffffffc360112610d815760206040517f88f3509f0e42391f2d94ebfb2a37cbd0782b1b8f73715330017f4663290b81178152f35b8234610d815760407ffffffffffffffffffffffffffffffffffffffffffffffffffffffffffffffffc360112610d8157611cd4613f4b565b6024359081151580920361173c5773ffffffffffffffffffffffffffffffffffffffff1690813314611d7257338352609860205260408320828452602052604083207fffffffffffffffffffffffffffffffffffffffffffffffffffffffffffffff0081541660ff83161790556040519081527f17307eab39ab6107e8899845ad3d59bd9653f200f220920489ca2b5937696c3160203392a3604051f35b60846040517f08c379a000000000000000000000000000000000000000000000000000000000815260206004820152602960248201527f455243313135353a2073657474696e6720617070726f76616c2073746174757360448201527f20666f722073656c6600000000000000000000000000000000000000000000006064820152fd5b8234610d8157807ffffffffffffffffffffffffffffffffffffffffffffffffffffffffffffffffc360112610d8157602090604051908152f35b8234610d815760207ffffffffffffffffffffffffffffffffffffffffffffffffffffffffffffffffc360112610d81576040611a9691611e6e6151b2565b50600435815261016360205220600360405191611e8a83613f96565b8054835273ffffffffffffffffffffffffffffffffffffffff600182015416602084015260028101546040840152015460608201526040519182918291909160608060808301948051845273ffffffffffffffffffffffffffffffffffffffff6020820151166020850152604081015160408501520151910152565b8234610d8157807ffffffffffffffffffffffffffffffffffffffffffffffffffffffffffffffffc360112610d8157602073ffffffffffffffffffffffffffffffffffffffff6101605416604051908152f35b8234610d815760407ffffffffffffffffffffffffffffffffffffffffffffffffffffffffffffffffc360112610d815760ff6040602092611f98613f73565b600435825260fb855273ffffffffffffffffffffffffffffffffffffffff8383209116825284522054166040519015158152f35b8234610d815760407ffffffffffffffffffffffffffffffffffffffffffffffffffffffffffffffffc360112610d815773ffffffffffffffffffffffffffffffffffffffff61202d602092600435815261012d845260406024359120614dd8565b9190546040519260031b1c168152f35b8234610d81576101007ffffffffffffffffffffffffffffffffffffffffffffffffffffffffffffffffc360112610d81576040519061207b82613fe1565b60ff60043581811693908481036108d157815260249081359280841684036108c9576020968783019485526044359082821682036108c557604084019182526064359161ffff83168303610afa5760608501928352608435937fffff000000000000000000000000000000000000000000000000000000000000978886168603610af6576080870195865260a4359789891689036108bd5760a0880198895260c4359973ffffffffffffffffffffffffffffffffffffffff8b168b03610af25760c089019a8b5260e4359c8d9c63ffffffff9d8e811603610d815750868a019d8e526123c357600f848451161161236657600f84865116116123095761219d818951168060001a9060011a605b6040821191101690605b604082119110161690565b90816122dc575b501561227f575079ffff00000000000000000000000000000000000000000000000095937fff0000000000000000000000000000000000000000000000000000000000000077ffffffffffffffffffffffffffffffffffffffff00000000999896947bffff00000000000000000000000000000000000000000000000000009460f07dffff00000000000000000000000000000000000000000000000000000000955160041b1691511617965160f81b169351901b1692518b1c169260f01b171717915160301c16179151851b161791511617604051908152f35b8c601b606492604051927f08c379a000000000000000000000000000000000000000000000000000000000845260048401528201527f496e76616c696420556e6361706974616c697a656420415343494900000000006044820152fd5b61230391508a51168060001a9060011a605b6040821191101690605b604082119110161690565b8e6121a4565b60648e601d84604051927f08c379a000000000000000000000000000000000000000000000000000000000845260048401528201527f4d6574686f6c6f646f67792076657273696f6e20746f6f206c617267650000006044820152fd5b60648e601584604051927f08c379a000000000000000000000000000000000000000000000000000000000845260048401528201527f4d6574686f6c6f646f677920746f6f206c6172676500000000000000000000006044820152fd5b60848e83604051917f08c379a00000000000000000000000000000000000000000000000000000000083526004830152808201527f556e737570706f727465642072656d6f76616c20746f6b656e2069642076657260448201527f73696f6e000000000000000000000000000000000000000000000000000000006064820152fd5b8234610d8157602090817ffffffffffffffffffffffffffffffffffffffffffffffffffffffffffffffffc360112610d815773ffffffffffffffffffffffffffffffffffffffff612494613f4b565b168082526101648352604082208054916124ad8361405b565b906124bb604051928361401a565b8382527fffffffffffffffffffffffffffffffffffffffffffffffffffffffffffffffe06124e88561405b565b013687840137845b84811061257e57505060405191858385815201908552858520855b8786821061256a57505050906125278361252c9493038361401a565b614882565b9082915b81831061254257505050604051908152f35b90919261255d61256391612556868561483f565b5190614b19565b936147e3565b9190612530565b82548452909201916001918201910161250b565b8082611b0c61258d938661483f565b6124f0565b8234610d81576020807ffffffffffffffffffffffffffffffffffffffffffffffffffffffffffffffffc36011261069c5773ffffffffffffffffffffffffffffffffffffffff6125e0613f4b565b16825261016481526040822091604051809384918482549182815201918452848420935b8582821061262f5750505061261b9250038361401a565b611a966040519282849384528301906140d1565b8554845260019586019588955093019201612604565b8234610d8157807ffffffffffffffffffffffffffffffffffffffffffffffffffffffffffffffffc360112610d815761267c614279565b61268461500d565b60017fffffffffffffffffffffffffffffffffffffffffffffffffffffffffffffff0060335416176033557f62e78cea01bee320cd4e420270b5ea74000d11b0c9f74754ebdbfc544b05a2586020604051338152a1604051f35b8234610d8157807ffffffffffffffffffffffffffffffffffffffffffffffffffffffffffffffffc360112610d8157805460ff808260081c1615808091612d85575b8015612d6f575b15612ceb576001927fffffffffffffffffffffffffffffffffffffffffffffffffffffffffffffff00908285838316178755612cbd575b5082855460081c169261277084615077565b60405167ffffffffffffffff906060810182811182821017612c9057604052602681526127e96020967f68747470733a2f2f6e6f72692e636f6d2f6170692f72656d6f76616c2f7b6964888401527f7d2e6a736f6e00000000000000000000000000000000000000000000000000006040840152615077565b8051918211612c635781906127ff609954614683565b601f8111612bf4575b508690601f8311600114612b3a578992612b2f575b50507fffffffffffffffffffffffffffffffffffffffffffffffffffffffffffffffff82881b9260031b1c1916176099555b61288181875460081c1661286281615077565b836033541660335561287381615077565b61287c81615077565b615077565b85805260fb918285526040872033885285528160408820541615612ae6575b86805261012d928386526128b73360408a20614df0565b507f65d7a28e3265b37a6474929f336521b332c1681b933f6cb9f3376673440d862a80895281875260408920338a5287528360408a20541615612a9d575b88528386526129073360408a20614df0565b507f9f2df0fed2c77648de5860a4cc508cd0818c85b8b8a1ab4ceeef8d981c8956a680895281875260408920338a5287528360408a20541615612a54575b88528386526129573360408a20614df0565b507f88f3509f0e42391f2d94ebfb2a37cbd0782b1b8f73715330017f4663290b81179283895281875260408920338a52875260408920541615612a0a575b5050855282526129a83360408620614df0565b506129b4575b82604051f35b7f7f26b83ff96e1f2b6a682f133852f6798a09c465da95921460cefb3847402498917fffffffffffffffffffffffffffffffffffffffffffffffffffffffffffff00ff8454168455604051908152a181806129ae565b82885285526040872033885285528560408820918254161790553333827f2f8788117e7eff1d82e926ec794901d17c78024a50270940304540a733656f0d89604051a48680612995565b80895281875260408920338a5287526040892088848254161790553333827f2f8788117e7eff1d82e926ec794901d17c78024a50270940304540a733656f0d8c604051a4612945565b80895281875260408920338a5287526040892088848254161790553333827f2f8788117e7eff1d82e926ec794901d17c78024a50270940304540a733656f0d8c604051a46128f5565b8680528285526040872033885285526040872086828254161790553333887f2f8788117e7eff1d82e926ec794901d17c78024a50270940304540a733656f0d81604051a46128a0565b01519050888061281d565b907fffffffffffffffffffffffffffffffffffffffffffffffffffffffffffffffe08994169160998b527f72a152ddfb8e864297c917af52ea6c1c68aead0fee1a62673fcc7e0c94979d00928b5b8a828210612bde5750508411612ba7575b505050811b0160995561284f565b01517fffffffffffffffffffffffffffffffffffffffffffffffffffffffffffffffff60f88460031b161c19169055888080612b99565b8385015186558c97909501949384019301612b88565b909150609989527f72a152ddfb8e864297c917af52ea6c1c68aead0fee1a62673fcc7e0c94979d00601f840160051c810191888510612c59575b84939291601f8b920160051c01915b828110612c4b575050612808565b8b81558594508a9101612c3d565b9091508190612c2e565b6024887f4e487b710000000000000000000000000000000000000000000000000000000081526041600452fd5b6024897f4e487b710000000000000000000000000000000000000000000000000000000081526041600452fd5b7fffffffffffffffffffffffffffffffffffffffffffffffffffffffffffff0000166101011785558561275e565b60846040517f08c379a000000000000000000000000000000000000000000000000000000000815260206004820152602e60248201527f496e697469616c697a61626c653a20636f6e747261637420697320616c72656160448201527f647920696e697469616c697a65640000000000000000000000000000000000006064820152fd5b50303b1580156127275750600182841614612727565b50600182841610612720565b8234610d8157807ffffffffffffffffffffffffffffffffffffffffffffffffffffffffffffffffc360112610d8157602073ffffffffffffffffffffffffffffffffffffffff61015f5416604051908152f35b8234610d815760207ffffffffffffffffffffffffffffffffffffffffffffffffffffffffffffffffc360112610d8157604060209173ffffffffffffffffffffffffffffffffffffffff612e36613f4b565b16815261016483522054604051908152f35b8234610d8157807ffffffffffffffffffffffffffffffffffffffffffffffffffffffffffffffffc360112610d8157602060ff603354166040519015158152f35b8234610d815760207ffffffffffffffffffffffffffffffffffffffffffffffffffffffffffffffffc360112610d81576020612ed460043560005260c9602052604060002054151590565b6040519015158152f35b8234610d815760407ffffffffffffffffffffffffffffffffffffffffffffffffffffffffffffffffc360112610d815767ffffffffffffffff60043581811161173c57612f2f9036906004016141fe565b91602435918211610d8157611a96612f5484612f4e3660048701614073565b90614882565b6040519182916020835260208301906140d1565b8234610d8157807ffffffffffffffffffffffffffffffffffffffffffffffffffffffffffffffffc360112610d8157612f9f614279565b60335460ff811615612fff577fffffffffffffffffffffffffffffffffffffffffffffffffffffffffffffff00166033557f5db9ee0a495bf2e6ff9c91a7834c1ba4fdd244a5e8aa4e537bd38aeae4b073aa6020604051338152a1604051f35b60646040517f08c379a000000000000000000000000000000000000000000000000000000000815260206004820152601460248201527f5061757361626c653a206e6f74207061757365640000000000000000000000006044820152fd5b90503461069c577ffffffffffffffffffffffffffffffffffffffffffffffffffffffffffffffffc908136011261069c57613096613f4b565b6024919067ffffffffffffffff83358181116108cd576130ba903690600401614073565b906044359081116108cd576130d3903690600401614073565b9260807fffffffffffffffffffffffffffffffffffffffffffffffffffffffffffffff9c3601126108cd576040519461310b86613f96565b606435865260209384870190608435825260a43560ff81168103610af6576040890190815260c43580151581036108bd5760608a01527f9f2df0fed2c77648de5860a4cc508cd0818c85b8b8a1ab4ceeef8d981c8956a6808b5260fb885260408b20338c52885260ff60408c20541615613731575087518087510361369f5760ff8a519251168b5b828110613607575050508751156135db5760038789015180945192604051936131bb85613f96565b84528c60408b8601918c73ffffffffffffffffffffffffffffffffffffffff998a911c16835281870193600f8660f41c168552600f606089019660f01c16865281526101638d52209451855586600186019151167fffffffffffffffffffffffff0000000000000000000000000000000000000000825416179055516002840155519101556040519761324d89613ffe565b898952828216938415613558576132678951885114615102565b61326f61500d565b86518b5b81811061352f5750508a5b8b8a518210156132be57908a61131360406132b99460c98e6132ac8f6132a589809261483f565b519761483f565b5183525220918254614b19565b61327e565b505090919293969594988a5b8b8a5182101561331257908a611313604061330d946132f4856132ed818f61483f565b519561483f565b51815260978d528d8282209082528d5220918254614b19565b6132ca565b999598869291508b9098949598808c8a7f4a39dc06d4c0dbc64b70af90fd698a233a518aa5d07e595d983b8c0526c8f7fb6040518061335333948b8361518d565b0390a488518c5b8d8282106134fd57505050893b6133a7575b505050505050606001516133805784604051f35b61339e9361016054166040519361339685613ffe565b868552615215565b81808080610f1f565b908591898d6040518096819582947fbc197c81000000000000000000000000000000000000000000000000000000009a8b8552336004860152858d8601526044850160a0905260a485016133fa916140d1565b8285820301606486015261340d916140d1565b908382030160848401526134209161413a565b03925af18a91816134de575b506134ab57505060019161343e614b5d565b6308c379a01461345e575b5050610fc0576060905b90878381808061336c565b613466614b7b565b806134715750613449565b610c28906040519384937f08c379a0000000000000000000000000000000000000000000000000000000008552600485015283019061413a565b7fffffffff00000000000000000000000000000000000000000000000000000000160391506110be905057606090613453565b6134f6919250853d871161116d5761115e818361401a565b908b61342c565b6104ba90604061351484613524969798999a61483f565b51918781526101648c5220614df0565b90889493929161335a565b613539818a61483f565b511561354d57613548906147e3565b613273565b61059991508a61483f565b876021608492604051927f08c379a000000000000000000000000000000000000000000000000000000000845260048401528201527f455243313135353a206d696e7420746f20746865207a65726f2061646472657360448201527f73000000000000000000000000000000000000000000000000000000000000006064820152fd5b838a7f4e487b710000000000000000000000000000000000000000000000000000000081526032600452fd5b613611818c61483f565b518d61362a8260005260c9602052604060002054151590565b908115613689575b50613659578d526101628a5260408d20848155600101829055613654906147e3565b613193565b8790604051907f4acb9c290000000000000000000000000000000000000000000000000000000082526004820152fd5b604091508281526101628d52205415158e613632565b60c4856080604051917f616c411300000000000000000000000000000000000000000000000000000000835260406004840152600760448401527f616d6f756e7473000000000000000000000000000000000000000000000000006064840152820152600360848201527f696473000000000000000000000000000000000000000000000000000000000060a4820152fd5b8785918c61373e33614c52565b916040519061374c82613f96565b6042825284820192606036853782511561171057603084538251906001918210156116e45790607860218501536041915b8183116137d7575050506115bf576048610c289361157a93611589936040519586937f416363657373436f6e74726f6c3a206163636f756e74200000000000000000008a860152610ba9815180928c603789019101614105565b909192600f811660108110156116b8577f3031323334353637383961626364656600000000000000000000000000000000901a6138148587614c41565b5360041c92801561168c577fffffffffffffffffffffffffffffffffffffffffffffffffffffffffffffffff01919061377d565b8234610d815760407ffffffffffffffffffffffffffffffffffffffffffffffffffffffffffffffffc360112610d8157613880613f73565b3373ffffffffffffffffffffffffffffffffffffffff8216036138a957611974906004356145cc565b60846040517f08c379a000000000000000000000000000000000000000000000000000000000815260206004820152602f60248201527f416363657373436f6e74726f6c3a2063616e206f6e6c792072656e6f756e636560448201527f20726f6c657320666f722073656c6600000000000000000000000000000000006064820152fd5b8234610d815760407ffffffffffffffffffffffffffffffffffffffffffffffffffffffffffffffffc360112610d81576139cb60043561012d61396e613f73565b9180855260209060fb82526139896001604088200154614490565b80865260fb825273ffffffffffffffffffffffffffffffffffffffff60408720941693848752825260ff604087205416156139d1575b85525260408320614df0565b50604051f35b80865260fb82526040862084875282526040862060017fffffffffffffffffffffffffffffffffffffffffffffffffffffffffffffff008254161790553384827f2f8788117e7eff1d82e926ec794901d17c78024a50270940304540a733656f0d89604051a46139bf565b8234610d815760a07ffffffffffffffffffffffffffffffffffffffffffffffffffffffffffffffffc360112610d8157613a74613f4b565b613a7c613f73565b67ffffffffffffffff91906044358381116108c957613a9f903690600401614073565b6064358481116108cd57613ab7903690600401614073565b916084359485116108cd57613ad36119749536906004016141b7565b93615215565b8234610d8157807ffffffffffffffffffffffffffffffffffffffffffffffffffffffffffffffffc360112610d8157602073ffffffffffffffffffffffffffffffffffffffff6101615416604051908152f35b8234610d815760207ffffffffffffffffffffffffffffffffffffffffffffffffffffffffffffffffc360112610d815760016040602092600435815260fb8452200154604051908152f35b8234610d815760207ffffffffffffffffffffffffffffffffffffffffffffffffffffffffffffffffc360112610d81576040611a9691613bb56151b2565b50600435815261016260205281812054815261016360205220600360405191611e8a83613f96565b8234610d81576020807ffffffffffffffffffffffffffffffffffffffffffffffffffffffffffffffffc36011261069c57604051918281609954613c2081614683565b93848452600191868382169182600014613cba575050600114613c60575b5050613c4c9250038361401a565b611a9660405192828493845283019061413a565b90859250609982527f72a152ddfb8e864297c917af52ea6c1c68aead0fee1a62673fcc7e0c94979d005b858310613ca2575050613c4c93508201018580613c3e565b80548389018501528794508693909201918101613c8a565b91509350613c4c9592507fffffffffffffffffffffffffffffffffffffffffffffffffffffffffffffff0091501682840152151560051b8201018580613c3e565b8234610d815760207ffffffffffffffffffffffffffffffffffffffffffffffffffffffffffffffffc360112610d81576004357fffffffff00000000000000000000000000000000000000000000000000000000811680910361069c57807f5a05180f0000000000000000000000000000000000000000000000000000000060209214908115613d91575b506040519015158152f35b7f7965db0b00000000000000000000000000000000000000000000000000000000811491508115613dc4575b5082613d86565b7fd9b67a2600000000000000000000000000000000000000000000000000000000811491508115613e28575b8115613dfe575b5082613dbd565b7f01ffc9a70000000000000000000000000000000000000000000000000000000091501482613df7565b7f0e89341c0000000000000000000000000000000000000000000000000000000081149150613df0565b8234610d815760407ffffffffffffffffffffffffffffffffffffffffffffffffffffffffffffffffc360112610d8157613e8a613f4b565b60243567ffffffffffffffff811161173c57613eaa903690600401614073565b90613eb58251614794565b925b8251811015613ee75780613ed8613ed1613ee2938661483f565b51846146d6565b611b0c828761483f565b613eb7565b60405160208082528190611a96908201876140d1565b8234610d815760407ffffffffffffffffffffffffffffffffffffffffffffffffffffffffffffffffc360112610d81576020613f43613f3a613f4b565b602435906146d6565b604051908152f35b6004359073ffffffffffffffffffffffffffffffffffffffff82168203613f6e57565b600080fd5b6024359073ffffffffffffffffffffffffffffffffffffffff82168203613f6e57565b6080810190811067ffffffffffffffff821117613fb257604052565b7f4e487b7100000000000000000000000000000000000000000000000000000000600052604160045260246000fd5b610100810190811067ffffffffffffffff821117613fb257604052565b6020810190811067ffffffffffffffff821117613fb257604052565b90601f7fffffffffffffffffffffffffffffffffffffffffffffffffffffffffffffffe0910116810190811067ffffffffffffffff821117613fb257604052565b67ffffffffffffffff8111613fb25760051b60200190565b81601f82011215613f6e5780359161408a8361405b565b92614098604051948561401a565b808452602092838086019260051b820101928311613f6e578301905b8282106140c2575050505090565b813581529083019083016140b4565b90815180825260208080930193019160005b8281106140f1575050505090565b8351855293810193928101926001016140e3565b918091926000905b82821061412557501161411e575050565b6000910152565b9150806020918301518186015201829161410d565b907fffffffffffffffffffffffffffffffffffffffffffffffffffffffffffffffe0601f60209361417681518092818752878088019101614105565b0116010190565b67ffffffffffffffff8111613fb257601f017fffffffffffffffffffffffffffffffffffffffffffffffffffffffffffffffe01660200190565b81601f82011215613f6e578035906141ce8261417d565b926141dc604051948561401a565b82845260208383010111613f6e57816000926020809301838601378301015290565b81601f82011215613f6e578035916142158361405b565b92614223604051948561401a565b808452602092838086019260051b820101928311613f6e578301905b82821061424d575050505090565b813573ffffffffffffffffffffffffffffffffffffffff81168103613f6e57815290830190830161423f565b3360009081527fc81858b0fc5e8d7d2c7a341b4e13a62a27b51e1da1072bf5f7fee8fdef673e94602090815260408083205490927f65d7a28e3265b37a6474929f336521b332c1681b933f6cb9f3376673440d862a9160ff16156142dd5750505050565b6142e633614c52565b918451906142f382613f96565b60428252848201926060368537825115610d545760308453825190600191821015610d545790607860218501536041915b81831161441f575050506143c3576048610c2893869361438d9361437e98519889937f416363657373436f6e74726f6c3a206163636f756e74200000000000000000008a860152610ba9815180928c603789019101614105565b0103602881018752018561401a565b519283927f08c379a00000000000000000000000000000000000000000000000000000000084526004840152602483019061413a565b6064848651907f08c379a000000000000000000000000000000000000000000000000000000000825280600483015260248201527f537472696e67733a20686578206c656e67746820696e73756666696369656e746044820152fd5b909192600f81166010811015610d27577f3031323334353637383961626364656600000000000000000000000000000000901a61445c8587614c41565b5360041c928015610cfa577fffffffffffffffffffffffffffffffffffffffffffffffffffffffffffffffff019190614324565b60009080825260209060fb8252604092838120338252835260ff8482205416156144ba5750505050565b6144c333614c52565b918451906144d082613f96565b60428252848201926060368537825115610d545760308453825190600191821015610d545790607860218501536041915b81831161455b575050506143c3576048610c2893869361438d9361437e98519889937f416363657373436f6e74726f6c3a206163636f756e74200000000000000000008a860152610ba9815180928c603789019101614105565b909192600f81166010811015610d27577f3031323334353637383961626364656600000000000000000000000000000000901a6145988587614c41565b5360041c928015610cfa577fffffffffffffffffffffffffffffffffffffffffffffffffffffffffffffffff019190614501565b9061461991600081815260fb60205260409173ffffffffffffffffffffffffffffffffffffffff83832094169384835260205260ff838320541661461c575b815261012d60205220614eb3565b50565b80825260fb6020528282208483526020528282207fffffffffffffffffffffffffffffffffffffffffffffffffffffffffffffff0081541690553384827ff6391f5c32d9c69d2a47ea670b442974b53935d1edc7fd64eb21e047a839171b858751a461460b565b90600182811c921680156146cc575b602083101461469d57565b7f4e487b7100000000000000000000000000000000000000000000000000000000600052602260045260246000fd5b91607f1691614692565b73ffffffffffffffffffffffffffffffffffffffff1690811561471057600052609760205260406000209060005260205260406000205490565b60846040517f08c379a000000000000000000000000000000000000000000000000000000000815260206004820152602a60248201527f455243313135353a2061646472657373207a65726f206973206e6f742061207660448201527f616c6964206f776e6572000000000000000000000000000000000000000000006064820152fd5b9061479e8261405b565b6147ab604051918261401a565b8281527fffffffffffffffffffffffffffffffffffffffffffffffffffffffffffffffe06147d9829461405b565b0190602036910137565b7fffffffffffffffffffffffffffffffffffffffffffffffffffffffffffffffff81146148105760010190565b7f4e487b7100000000000000000000000000000000000000000000000000000000600052601160045260246000fd5b80518210156148535760209160051b010190565b7f4e487b7100000000000000000000000000000000000000000000000000000000600052603260045260246000fd5b91909180518351036148f4576148988151614794565b9060005b81518110156148ed57806148de73ffffffffffffffffffffffffffffffffffffffff6148cb6148e8948661483f565b51166148d7838961483f565b51906146d6565b611b0c828661483f565b61489c565b5090925050565b60846040517f08c379a000000000000000000000000000000000000000000000000000000000815260206004820152602960248201527f455243313135353a206163636f756e747320616e6420696473206c656e67746860448201527f206d69736d6174636800000000000000000000000000000000000000000000006064820152fd5b1561497f57565b60846040517f08c379a000000000000000000000000000000000000000000000000000000000815260206004820152602f60248201527f455243313135353a2063616c6c6572206973206e6f7420746f6b656e206f776e60448201527f6572206e6f7220617070726f76656400000000000000000000000000000000006064820152fd5b15614a0a57565b60846040517f08c379a000000000000000000000000000000000000000000000000000000000815260206004820152602560248201527f455243313135353a207472616e7366657220746f20746865207a65726f20616460448201527f64726573730000000000000000000000000000000000000000000000000000006064820152fd5b15614a9557565b60846040517f08c379a000000000000000000000000000000000000000000000000000000000815260206004820152602a60248201527f455243313135353a20696e73756666696369656e742062616c616e636520666f60448201527f72207472616e73666572000000000000000000000000000000000000000000006064820152fd5b81198111614810570190565b90816020910312613f6e57517fffffffff0000000000000000000000000000000000000000000000000000000081168103613f6e5790565b60009060033d11614b6a57565b905060046000803e60005160e01c90565b600060443d10614bf7576040517ffffffffffffffffffffffffffffffffffffffffffffffffffffffffffffffffc91823d016004833e815167ffffffffffffffff918282113d602484011117614bfa57818401948551938411614c02573d85010160208487010111614bfa5750614bf79291016020019061401a565b90565b949350505050565b50949350505050565b604051906040820182811067ffffffffffffffff821117613fb25760405260018252602082016020368237825115614853575290565b908151811015614853570160200190565b604051906060820182811067ffffffffffffffff821117613fb257604052602a82526020820160403682378251156148535760309053815160019081101561485357607860218401536029905b808211614d0d575050614caf5790565b60646040517f08c379a000000000000000000000000000000000000000000000000000000000815260206004820152602060248201527f537472696e67733a20686578206c656e67746820696e73756666696369656e746044820152fd5b9091600f81166010811015614daa577f3031323334353637383961626364656600000000000000000000000000000000901a614d498486614c41565b5360041c918015614d7c577fffffffffffffffffffffffffffffffffffffffffffffffffffffffffffffffff0190614c9f565b602460007f4e487b710000000000000000000000000000000000000000000000000000000081526011600452fd5b602460007f4e487b710000000000000000000000000000000000000000000000000000000081526032600452fd5b80548210156148535760005260206000200190600090565b91906001830160009082825280602052604082205415600014614ead5784549468010000000000000000861015614e805783614e70614e39886001604098999a01855584614dd8565b819391549060031b7fffffffffffffffffffffffffffffffffffffffffffffffffffffffffffffffff811b9283911b169119161790565b9055549382526020522055600190565b6024837f4e487b710000000000000000000000000000000000000000000000000000000081526041600452fd5b50925050565b906001820190600092818452826020526040842054908115156000146150065760018210614fd9577fffffffffffffffffffffffffffffffffffffffffffffffffffffffffffffffff91828101825460018110614fac57840190808203614f77575b50505080548015614f4a57820191614f2d8383614dd8565b909182549160031b1b191690555582526020526040812055600190565b6024867f4e487b710000000000000000000000000000000000000000000000000000000081526031600452fd5b614f97614f87614e399386614dd8565b90549060031b1c92839286614dd8565b90558652846020526040862055388080614f15565b6024887f4e487b710000000000000000000000000000000000000000000000000000000081526011600452fd5b6024857f4e487b710000000000000000000000000000000000000000000000000000000081526011600452fd5b5050505090565b60ff6033541661501957565b60646040517f08c379a000000000000000000000000000000000000000000000000000000000815260206004820152601060248201527f5061757361626c653a20706175736564000000000000000000000000000000006044820152fd5b1561507e57565b60846040517f08c379a000000000000000000000000000000000000000000000000000000000815260206004820152602b60248201527f496e697469616c697a61626c653a20636f6e7472616374206973206e6f74206960448201527f6e697469616c697a696e670000000000000000000000000000000000000000006064820152fd5b1561510957565b60846040517f08c379a000000000000000000000000000000000000000000000000000000000815260206004820152602860248201527f455243313135353a2069647320616e6420616d6f756e7473206c656e6774682060448201527f6d69736d617463680000000000000000000000000000000000000000000000006064820152fd5b90916151a4614bf7936040845260408401906140d1565b9160208184039101526140d1565b604051906151bf82613f96565b60006060838281528260208201528260408201520152565b604051906151e482613fe1565b8160e06000918281528260208201528260408201528260608201528260808201528260a08201528260c08201520152565b3360009081527f72f2994cda805697ff5940dc92bd4118d9d7058b657a897ee8a2023e4f67343460205260408120549095949392919060ff161561525f5761525d95506152b7565b565b61529061525d9673ffffffffffffffffffffffffffffffffffffffff831690338214918215615295575b5050614978565b6152b7565b60ff925090604091815260986020528181203382526020522054163880615289565b93949190916152c98251855114615102565b73ffffffffffffffffffffffffffffffffffffffff808416968715948515926152f184614a03565b6152f961500d565b875160005b818110615847575050881695861590816157eb575b6156f3575b60005b865181101561539f5780896113138a8e61533c856132ed61539a988f61483f565b5193806000526097602091818352866040958660002081600052855286600020549061536a83831015614a8e565b83600052848652876000209060005285520385600020556000528152826000209160005252600020918254614b19565b61531b565b509892979091959693986040988489887f4a39dc06d4c0dbc64b70af90fd698a233a518aa5d07e595d983b8c0526c8f7fb8d51806153df8c33958361518d565b0390a48551928760009315935b8c86821061567f57505050505050503b615409575b505050505050565b61546260006020946154a2615493958a51988997889687957fbc197c81000000000000000000000000000000000000000000000000000000009d8e8852336004890152602488015260a0604488015260a48701906140d1565b7ffffffffffffffffffffffffffffffffffffffffffffffffffffffffffffffffc93848783030160648801526140d1565b9184830301608485015261413a565b03925af16000918161565f575b506155af57505060016154c0614b5d565b6308c379a01461555f575b6154dc57505b388080808080615401565b517f08c379a000000000000000000000000000000000000000000000000000000000815260206004820152603460248201527f455243313135353a207472616e7366657220746f206e6f6e204552433131353560448201527f526563656976657220696d706c656d656e7465720000000000000000000000006064820152608490fd5b615567614b7b565b8061557257506154cb565b610c289083519182917f08c379a000000000000000000000000000000000000000000000000000000000835260206004840152602483019061413a565b7fffffffff0000000000000000000000000000000000000000000000000000000016036155dc57506154d1565b517f08c379a000000000000000000000000000000000000000000000000000000000815260206004820152602860248201527f455243313135353a204552433131353552656365697665722072656a6563746560448201527f6420746f6b656e730000000000000000000000000000000000000000000000006064820152608490fd5b61567891925060203d811161116d5761115e818361401a565b90386154af565b858561568e846156a19661483f565b51916156c6575b6156a8575b50506147e3565b88906153ec565b6156be918a600052610164602052600020614df0565b508c3861569a565b6156d082876146d6565b61569557508d600052610164602052856156ed8284600020614eb3565b50615695565b97949698959392919060005b88518110156157dc57615712818a61483f565b5161571d828d61483f565b518160005260c9916020928084526040938460002054928484106157595790615754969594939291600052520390600020556147e3565b6156ff565b6084828751907f08c379a00000000000000000000000000000000000000000000000000000000082526004820152602860248201527f455243313135353a206275726e20616d6f756e74206578636565647320746f7460448201527f616c537570706c790000000000000000000000000000000000000000000000006064820152fd5b50909192939598969497615318565b98959996949392919060005b8b5181101561583857808c61581a82615813615833958f61483f565b519261483f565b5160005260c96020526113136040600020918254614b19565b6157f7565b50909192939496999598615313565b615851818b61483f565b511561586557615860906147e3565b6152fe565b6105996024918961483f56fea26469706673582212209d3d06bcb936dfd60dc14358dd3d365eaa4a8cf878e9e879a7fd63423d6a142a64736f6c634300080f0033",
  "linkReferences": {},
  "deployedLinkReferences": {}
}