{
  "_format": "hh-sol-artifact-1",
  "contractName": "Removal",
  "sourceName": "contracts/Removal.sol",
  "abi": [
    {
      "anonymous": false,
      "inputs": [
        {
          "indexed": true,
          "internalType": "address",
          "name": "account",
          "type": "address"
        },
        {
          "indexed": true,
          "internalType": "address",
          "name": "operator",
          "type": "address"
        },
        {
          "indexed": false,
          "internalType": "bool",
          "name": "approved",
          "type": "bool"
        }
      ],
      "name": "ApprovalForAll",
      "type": "event"
    },
    {
      "anonymous": false,
      "inputs": [
        {
          "indexed": false,
          "internalType": "uint256[]",
          "name": "tokenIds",
          "type": "uint256[]"
        }
      ],
      "name": "BatchListed",
      "type": "event"
    },
    {
      "anonymous": false,
      "inputs": [
        {
          "indexed": false,
          "internalType": "uint256[]",
          "name": "tokenIds",
          "type": "uint256[]"
        }
      ],
      "name": "BatchMinted",
      "type": "event"
    },
    {
      "anonymous": false,
      "inputs": [
        {
          "indexed": false,
          "internalType": "address",
          "name": "account",
          "type": "address"
        }
      ],
      "name": "Paused",
      "type": "event"
    },
    {
      "anonymous": false,
      "inputs": [
        {
          "indexed": true,
          "internalType": "bytes32",
          "name": "role",
          "type": "bytes32"
        },
        {
          "indexed": true,
          "internalType": "bytes32",
          "name": "previousAdminRole",
          "type": "bytes32"
        },
        {
          "indexed": true,
          "internalType": "bytes32",
          "name": "newAdminRole",
          "type": "bytes32"
        }
      ],
      "name": "RoleAdminChanged",
      "type": "event"
    },
    {
      "anonymous": false,
      "inputs": [
        {
          "indexed": true,
          "internalType": "bytes32",
          "name": "role",
          "type": "bytes32"
        },
        {
          "indexed": true,
          "internalType": "address",
          "name": "account",
          "type": "address"
        },
        {
          "indexed": true,
          "internalType": "address",
          "name": "sender",
          "type": "address"
        }
      ],
      "name": "RoleGranted",
      "type": "event"
    },
    {
      "anonymous": false,
      "inputs": [
        {
          "indexed": true,
          "internalType": "bytes32",
          "name": "role",
          "type": "bytes32"
        },
        {
          "indexed": true,
          "internalType": "address",
          "name": "account",
          "type": "address"
        },
        {
          "indexed": true,
          "internalType": "address",
          "name": "sender",
          "type": "address"
        }
      ],
      "name": "RoleRevoked",
      "type": "event"
    },
    {
      "anonymous": false,
      "inputs": [
        {
          "indexed": true,
          "internalType": "address",
          "name": "operator",
          "type": "address"
        },
        {
          "indexed": true,
          "internalType": "address",
          "name": "from",
          "type": "address"
        },
        {
          "indexed": true,
          "internalType": "address",
          "name": "to",
          "type": "address"
        },
        {
          "indexed": false,
          "internalType": "uint256[]",
          "name": "ids",
          "type": "uint256[]"
        },
        {
          "indexed": false,
          "internalType": "uint256[]",
          "name": "values",
          "type": "uint256[]"
        }
      ],
      "name": "TransferBatch",
      "type": "event"
    },
    {
      "anonymous": false,
      "inputs": [
        {
          "indexed": true,
          "internalType": "address",
          "name": "operator",
          "type": "address"
        },
        {
          "indexed": true,
          "internalType": "address",
          "name": "from",
          "type": "address"
        },
        {
          "indexed": true,
          "internalType": "address",
          "name": "to",
          "type": "address"
        },
        {
          "indexed": false,
          "internalType": "uint256",
          "name": "id",
          "type": "uint256"
        },
        {
          "indexed": false,
          "internalType": "uint256",
          "name": "value",
          "type": "uint256"
        }
      ],
      "name": "TransferSingle",
      "type": "event"
    },
    {
      "anonymous": false,
      "inputs": [
        {
          "indexed": false,
          "internalType": "string",
          "name": "value",
          "type": "string"
        },
        {
          "indexed": true,
          "internalType": "uint256",
          "name": "id",
          "type": "uint256"
        }
      ],
      "name": "URI",
      "type": "event"
    },
    {
      "anonymous": false,
      "inputs": [
        {
          "indexed": false,
          "internalType": "address",
          "name": "account",
          "type": "address"
        }
      ],
      "name": "Unpaused",
      "type": "event"
    },
    {
      "inputs": [],
      "name": "DEFAULT_ADMIN_ROLE",
      "outputs": [
        {
          "internalType": "bytes32",
          "name": "",
          "type": "bytes32"
        }
      ],
      "stateMutability": "view",
      "type": "function"
    },
    {
      "inputs": [],
      "name": "MINTER_ROLE",
      "outputs": [
        {
          "internalType": "bytes32",
          "name": "",
          "type": "bytes32"
        }
      ],
      "stateMutability": "view",
      "type": "function"
    },
    {
      "inputs": [],
      "name": "PAUSER_ROLE",
      "outputs": [
        {
          "internalType": "bytes32",
          "name": "",
          "type": "bytes32"
        }
      ],
      "stateMutability": "view",
      "type": "function"
    },
    {
      "inputs": [
        {
          "internalType": "address",
          "name": "account",
          "type": "address"
        },
        {
          "internalType": "uint256",
          "name": "id",
          "type": "uint256"
        }
      ],
      "name": "balanceOf",
      "outputs": [
        {
          "internalType": "uint256",
          "name": "",
          "type": "uint256"
        }
      ],
      "stateMutability": "view",
      "type": "function"
    },
    {
      "inputs": [
        {
          "internalType": "address[]",
          "name": "accounts",
          "type": "address[]"
        },
        {
          "internalType": "uint256[]",
          "name": "ids",
          "type": "uint256[]"
        }
      ],
      "name": "balanceOfBatch",
      "outputs": [
        {
          "internalType": "uint256[]",
          "name": "",
          "type": "uint256[]"
        }
      ],
      "stateMutability": "view",
      "type": "function"
    },
    {
      "inputs": [
        {
          "internalType": "address",
          "name": "account",
          "type": "address"
        },
        {
          "internalType": "uint256",
          "name": "id",
          "type": "uint256"
        },
        {
          "internalType": "uint256",
          "name": "value",
          "type": "uint256"
        }
      ],
      "name": "burn",
      "outputs": [],
      "stateMutability": "nonpayable",
      "type": "function"
    },
    {
      "inputs": [
        {
          "internalType": "address",
          "name": "account",
          "type": "address"
        },
        {
          "internalType": "uint256[]",
          "name": "ids",
          "type": "uint256[]"
        },
        {
          "internalType": "uint256[]",
          "name": "values",
          "type": "uint256[]"
        }
      ],
      "name": "burnBatch",
      "outputs": [],
      "stateMutability": "nonpayable",
      "type": "function"
    },
    {
      "inputs": [
        {
          "internalType": "uint256",
          "name": "id",
          "type": "uint256"
        }
      ],
      "name": "exists",
      "outputs": [
        {
          "internalType": "bool",
          "name": "",
          "type": "bool"
        }
      ],
      "stateMutability": "view",
      "type": "function"
    },
    {
      "inputs": [
        {
          "internalType": "bytes32",
          "name": "role",
          "type": "bytes32"
        }
      ],
      "name": "getRoleAdmin",
      "outputs": [
        {
          "internalType": "bytes32",
          "name": "",
          "type": "bytes32"
        }
      ],
      "stateMutability": "view",
      "type": "function"
    },
    {
      "inputs": [
        {
          "internalType": "bytes32",
          "name": "role",
          "type": "bytes32"
        },
        {
          "internalType": "uint256",
          "name": "index",
          "type": "uint256"
        }
      ],
      "name": "getRoleMember",
      "outputs": [
        {
          "internalType": "address",
          "name": "",
          "type": "address"
        }
      ],
      "stateMutability": "view",
      "type": "function"
    },
    {
      "inputs": [
        {
          "internalType": "bytes32",
          "name": "role",
          "type": "bytes32"
        }
      ],
      "name": "getRoleMemberCount",
      "outputs": [
        {
          "internalType": "uint256",
          "name": "",
          "type": "uint256"
        }
      ],
      "stateMutability": "view",
      "type": "function"
    },
    {
      "inputs": [
        {
          "internalType": "bytes32",
          "name": "role",
          "type": "bytes32"
        },
        {
          "internalType": "address",
          "name": "account",
          "type": "address"
        }
      ],
      "name": "grantRole",
      "outputs": [],
      "stateMutability": "nonpayable",
      "type": "function"
    },
    {
      "inputs": [
        {
          "internalType": "bytes32",
          "name": "role",
          "type": "bytes32"
        },
        {
          "internalType": "address",
          "name": "account",
          "type": "address"
        }
      ],
      "name": "hasRole",
      "outputs": [
        {
          "internalType": "bool",
          "name": "",
          "type": "bool"
        }
      ],
      "stateMutability": "view",
      "type": "function"
    },
    {
      "inputs": [],
      "name": "initialize",
      "outputs": [],
      "stateMutability": "nonpayable",
      "type": "function"
    },
    {
      "inputs": [
        {
          "internalType": "string",
          "name": "uri",
          "type": "string"
        }
      ],
      "name": "initialize",
      "outputs": [],
      "stateMutability": "nonpayable",
      "type": "function"
    },
    {
      "inputs": [
        {
          "internalType": "address",
          "name": "account",
          "type": "address"
        },
        {
          "internalType": "address",
          "name": "operator",
          "type": "address"
        }
      ],
      "name": "isApprovedForAll",
      "outputs": [
        {
          "internalType": "bool",
          "name": "",
          "type": "bool"
        }
      ],
      "stateMutability": "view",
      "type": "function"
    },
    {
      "inputs": [
        {
          "internalType": "address",
          "name": "to",
          "type": "address"
        },
        {
          "internalType": "uint256",
          "name": "id",
          "type": "uint256"
        },
        {
          "internalType": "uint256",
          "name": "amount",
          "type": "uint256"
        },
        {
          "internalType": "bytes",
          "name": "data",
          "type": "bytes"
        }
      ],
      "name": "mint",
      "outputs": [],
      "stateMutability": "nonpayable",
      "type": "function"
    },
    {
      "inputs": [
        {
          "internalType": "address",
          "name": "to",
          "type": "address"
        },
        {
          "internalType": "uint256[]",
          "name": "amounts",
          "type": "uint256[]"
        },
        {
          "internalType": "uint256[]",
          "name": "vintages",
          "type": "uint256[]"
        },
        {
          "internalType": "bytes",
          "name": "data",
          "type": "bytes"
        }
      ],
      "name": "mintBatch",
      "outputs": [],
      "stateMutability": "nonpayable",
      "type": "function"
    },
    {
      "inputs": [],
      "name": "name",
      "outputs": [
        {
          "internalType": "string",
          "name": "",
          "type": "string"
        }
      ],
      "stateMutability": "view",
      "type": "function"
    },
    {
      "inputs": [],
      "name": "pause",
      "outputs": [],
      "stateMutability": "nonpayable",
      "type": "function"
    },
    {
      "inputs": [],
      "name": "paused",
      "outputs": [
        {
          "internalType": "bool",
          "name": "",
          "type": "bool"
        }
      ],
      "stateMutability": "view",
      "type": "function"
    },
    {
      "inputs": [
        {
          "internalType": "bytes32",
          "name": "role",
          "type": "bytes32"
        },
        {
          "internalType": "address",
          "name": "account",
          "type": "address"
        }
      ],
      "name": "renounceRole",
      "outputs": [],
      "stateMutability": "nonpayable",
      "type": "function"
    },
    {
      "inputs": [
        {
          "internalType": "bytes32",
          "name": "role",
          "type": "bytes32"
        },
        {
          "internalType": "address",
          "name": "account",
          "type": "address"
        }
      ],
      "name": "revokeRole",
      "outputs": [],
      "stateMutability": "nonpayable",
      "type": "function"
    },
    {
      "inputs": [
        {
          "internalType": "address",
          "name": "_from",
          "type": "address"
        },
        {
          "internalType": "address",
          "name": "_to",
          "type": "address"
        },
        {
          "internalType": "uint256[]",
          "name": "_ids",
          "type": "uint256[]"
        },
        {
          "internalType": "uint256[]",
          "name": "_amounts",
          "type": "uint256[]"
        },
        {
          "internalType": "bytes",
          "name": "_data",
          "type": "bytes"
        }
      ],
      "name": "safeBatchTransferFrom",
      "outputs": [],
      "stateMutability": "nonpayable",
      "type": "function"
    },
    {
      "inputs": [
        {
          "internalType": "address",
          "name": "from",
          "type": "address"
        },
        {
          "internalType": "address",
          "name": "to",
          "type": "address"
        },
        {
          "internalType": "uint256",
          "name": "id",
          "type": "uint256"
        },
        {
          "internalType": "uint256",
          "name": "amount",
          "type": "uint256"
        },
        {
          "internalType": "bytes",
          "name": "data",
          "type": "bytes"
        }
      ],
      "name": "safeTransferFrom",
      "outputs": [],
      "stateMutability": "nonpayable",
      "type": "function"
    },
    {
      "inputs": [
        {
          "internalType": "address",
          "name": "owner",
          "type": "address"
        },
        {
          "internalType": "address",
          "name": "operator",
          "type": "address"
        },
        {
          "internalType": "bool",
          "name": "approved",
          "type": "bool"
        }
      ],
      "name": "setApprovalForAll",
      "outputs": [],
      "stateMutability": "nonpayable",
      "type": "function"
    },
    {
      "inputs": [
        {
          "internalType": "address",
          "name": "operator",
          "type": "address"
        },
        {
          "internalType": "bool",
          "name": "approved",
          "type": "bool"
        }
      ],
      "name": "setApprovalForAll",
      "outputs": [],
      "stateMutability": "nonpayable",
      "type": "function"
    },
    {
      "inputs": [
        {
          "internalType": "bytes4",
          "name": "interfaceId",
          "type": "bytes4"
        }
      ],
      "name": "supportsInterface",
      "outputs": [
        {
          "internalType": "bool",
          "name": "",
          "type": "bool"
        }
      ],
      "stateMutability": "view",
      "type": "function"
    },
    {
      "inputs": [
        {
          "internalType": "uint256",
          "name": "id",
          "type": "uint256"
        }
      ],
      "name": "totalSupply",
      "outputs": [
        {
          "internalType": "uint256",
          "name": "",
          "type": "uint256"
        }
      ],
      "stateMutability": "view",
      "type": "function"
    },
    {
      "inputs": [],
      "name": "unpause",
      "outputs": [],
      "stateMutability": "nonpayable",
      "type": "function"
    },
    {
      "inputs": [
        {
          "internalType": "uint256",
          "name": "",
          "type": "uint256"
        }
      ],
      "name": "uri",
      "outputs": [
        {
          "internalType": "string",
          "name": "",
          "type": "string"
        }
      ],
      "stateMutability": "view",
      "type": "function"
    },
    {
      "inputs": [
        {
          "internalType": "uint256",
          "name": "removalId",
          "type": "uint256"
        }
      ],
      "name": "vintage",
      "outputs": [
        {
          "components": [
            {
              "internalType": "address",
              "name": "supplier",
              "type": "address"
            },
            {
              "internalType": "uint16",
              "name": "vintage",
              "type": "uint16"
            }
          ],
          "internalType": "struct Removal.Vintage",
          "name": "",
          "type": "tuple"
        }
      ],
      "stateMutability": "view",
      "type": "function"
    }
  ],
  "bytecode": "0x608060405234801561001057600080fd5b506133c7806100206000396000f3fe608060405234801561001057600080fd5b50600436106101ef5760003560e01c8063737fa5891161010f578063ca15c873116100a2578063e985e9c511610071578063e985e9c5146104c5578063f242432a14610501578063f5298aca14610514578063f62d18881461052757600080fd5b8063ca15c87314610475578063d539139314610488578063d547741f1461049d578063e63ab1e9146104b057600080fd5b806391d14854116100de57806391d1485414610426578063a217fddf14610439578063a22cb46514610441578063bd85b0391461045457600080fd5b8063737fa589146103665780638129fc1c146103eb5780638456cb59146103f35780639010d07c146103fb57600080fd5b806336568abe116101875780634f558e79116101565780634f558e79146103115780635c975abb146103345780636b20c45414610340578063731133e91461035357600080fd5b806336568abe146102c3578063367605ca146102d65780633f4ba83a146102e95780634e1273f4146102f157600080fd5b80631f7fdffa116101c35780631f7fdffa14610265578063248a9ca31461027a5780632eb2c2d61461029d5780632f2ff15d146102b057600080fd5b8062fdd58e146101f457806301ffc9a71461021a57806306fdde031461023d5780630e89341c14610252575b600080fd5b61020761020236600461254c565b61053a565b6040519081526020015b60405180910390f35b61022d61022836600461258e565b6105d6565b6040519015158152602001610211565b6102456105e1565b6040516102119190612603565b610245610260366004612616565b610670565b610278610273366004612782565b610704565b005b610207610288366004612616565b60009081526065602052604090206001015490565b6102786102ab36600461281c565b6108eb565b6102786102be3660046128c9565b610936565b6102786102d13660046128c9565b610961565b6102786102e4366004612907565b6109df565b610278610a43565b6103046102ff366004612952565b610ad7565b6040516102119190612a59565b61022d61031f366004612616565b60009081526101c36020526040902054151590565b61012d5460ff1661022d565b61027861034e366004612a6c565b610c00565b610278610361366004612ae1565b610c43565b6103c3610374366004612616565b60408051808201909152600080825260208201525060009081526101f560209081526040918290208251808401909352546001600160a01b0381168352600160a01b900461ffff169082015290565b6040805182516001600160a01b0316815260209283015161ffff169281019290925201610211565b610278610c83565b610278610d54565b61040e610409366004612b37565b610de6565b6040516001600160a01b039091168152602001610211565b61022d6104343660046128c9565b610e05565b610207600081565b61027861044f366004612b59565b610e30565b610207610462366004612616565b60009081526101c3602052604090205490565b610207610483366004612616565b610e3b565b61020760008051602061334c83398151915281565b6102786104ab3660046128c9565b610e52565b61020760008051602061332c83398151915281565b61022d6104d3366004612b87565b6001600160a01b03918216600090815260ca6020908152604080832093909416825291909152205460ff1690565b61027861050f366004612bb5565b610e78565b610278610522366004612c1d565b610ec4565b610278610535366004612c52565b610f07565b60006001600160a01b0383166105ab5760405162461bcd60e51b815260206004820152602b60248201527f455243313135353a2062616c616e636520717565727920666f7220746865207a60448201526a65726f206164647265737360a81b60648201526084015b60405180910390fd5b50600081815260c9602090815260408083206001600160a01b03861684529091529020545b92915050565b60006105d082610f82565b6101f780546105ef90612ca2565b80601f016020809104026020016040519081016040528092919081815260200182805461061b90612ca2565b80156106685780601f1061063d57610100808354040283529160200191610668565b820191906000526020600020905b81548152906001019060200180831161064b57829003601f168201915b505050505081565b606060cb805461067f90612ca2565b80601f01602080910402602001604051908101604052809291908181526020018280546106ab90612ca2565b80156106f85780601f106106cd576101008083540402835291602001916106f8565b820191906000526020600020905b8154815290600101906020018083116106db57829003601f168201915b50505050509050919050565b60008180602001905181019061071a9190612cdd565b9050600083516001600160401b038111156107375761073761262f565b604051908082528060200260200182016040528015610760578160200160208202803683370190505b50905060005b845181101561084257806101f65461077e9190612d51565b82828151811061079057610790612d69565b6020026020010181815250506040518060400160405280886001600160a01b031681526020018683815181106107c8576107c8612d69565b602002602001015161ffff168152506101f56000836101f6546107eb9190612d51565b815260208082019290925260400160002082518154939092015161ffff16600160a01b026001600160b01b03199093166001600160a01b03909216919091179190911790558061083a81612d7f565b915050610766565b5080600182516108529190612d9a565b8151811061086257610862612d69565b602002602001015160016108769190612d51565b6101f65561088686828786610f8d565b7ed7dbdfe74994b1b54ec15ae7f0efa0134592b53302fae9a1549a1b8e4e5be4816040516108b49190612a59565b60405180910390a16108c8863360016109df565b8160200151156108e3576108e38683600001518388876108eb565b505050505050565b6108f88585858585610fcd565b7f219308f8c4cfad1841a8381b6d561ad407b7dd09899f7599eddecfbfe69e29aa836040516109279190612a59565b60405180910390a15050505050565b600082815260656020526040902060010154610952813361105d565b61095c83836110c1565b505050565b6001600160a01b03811633146109d15760405162461bcd60e51b815260206004820152602f60248201527f416363657373436f6e74726f6c3a2063616e206f6e6c792072656e6f756e636560448201526e103937b632b9903337b91039b2b63360891b60648201526084016105a2565b6109db82826110e3565b5050565b60006109eb813361105d565b61012d5460ff1615610a325760405162461bcd60e51b815260206004820152601060248201526f14185d5cd8589b194e881c185d5cd95960821b60448201526064016105a2565b610a3d848484611105565b50505050565b610a5b60008051602061332c83398151915233610e05565b610acd5760405162461bcd60e51b815260206004820152603b60248201527f455243313135355072657365744d696e7465725061757365723a206d7573742060448201527f686176652070617573657220726f6c6520746f20756e7061757365000000000060648201526084016105a2565b610ad56111e6565b565b60608151835114610b3c5760405162461bcd60e51b815260206004820152602960248201527f455243313135353a206163636f756e747320616e6420696473206c656e677468604482015268040dad2e6dac2e8c6d60bb1b60648201526084016105a2565b600083516001600160401b03811115610b5757610b5761262f565b604051908082528060200260200182016040528015610b80578160200160208202803683370190505b50905060005b8451811015610bf857610bcb858281518110610ba457610ba4612d69565b6020026020010151858381518110610bbe57610bbe612d69565b602002602001015161053a565b828281518110610bdd57610bdd612d69565b6020908102919091010152610bf181612d7f565b9050610b86565b509392505050565b6001600160a01b038316331480610c1c5750610c1c83336104d3565b610c385760405162461bcd60e51b81526004016105a290612db1565b61095c83838361127b565b610c5b60008051602061334c83398151915233610e05565b610c775760405162461bcd60e51b81526004016105a290612dfa565b610a3d8484848461140c565b600054610100900460ff16610c9e5760005460ff1615610ca2565b303b155b610cbe5760405162461bcd60e51b81526004016105a290612e57565b600054610100900460ff16158015610ce0576000805461ffff19166101011790555b610d0160405180606001604052806026815260200161336c60269139610f07565b610d096114e4565b60006101f6556040805180820190915260078082526614995b5bdd985b60ca1b6020909201918252610d3e916101f79161249e565b508015610d51576000805461ff00191690555b50565b610d6c60008051602061332c83398151915233610e05565b610dde5760405162461bcd60e51b815260206004820152603960248201527f455243313135355072657365744d696e7465725061757365723a206d7573742060448201527f686176652070617573657220726f6c6520746f2070617573650000000000000060648201526084016105a2565b610ad561150b565b6000828152609760205260408120610dfe9083611588565b9392505050565b60009182526065602090815260408084206001600160a01b0393909316845291905290205460ff1690565b6109db338383611105565b60008181526097602052604081206105d090611594565b600082815260656020526040902060010154610e6e813361105d565b61095c83836110e3565b6001600160a01b038516331480610e945750610e9485336104d3565b610eb05760405162461bcd60e51b81526004016105a290612db1565b610ebd858585858561159e565b5050505050565b6001600160a01b038316331480610ee05750610ee083336104d3565b610efc5760405162461bcd60e51b81526004016105a290612db1565b61095c8383836116bf565b600054610100900460ff16610f225760005460ff1615610f26565b303b155b610f425760405162461bcd60e51b81526004016105a290612e57565b600054610100900460ff16158015610f64576000805461ffff19166101011790555b610f6d826117c4565b80156109db576000805461ff00191690555050565b60006105d082611805565b610fa560008051602061334c83398151915233610e05565b610fc15760405162461bcd60e51b81526004016105a290612dfa565b610a3d84848484611845565b6001600160a01b038516331480610fe95750610fe985336104d3565b6110505760405162461bcd60e51b815260206004820152603260248201527f455243313135353a207472616e736665722063616c6c6572206973206e6f74206044820152711bdddb995c881b9bdc88185c1c1c9bdd995960721b60648201526084016105a2565b610ebd85858585856119a0565b6110678282610e05565b6109db5761107f816001600160a01b03166014611b45565b61108a836020611b45565b60405160200161109b929190612ea5565b60408051601f198184030181529082905262461bcd60e51b82526105a291600401612603565b6110cb8282611ce0565b600082815260976020526040902061095c9082611d66565b6110ed8282611d7b565b600082815260976020526040902061095c9082611de2565b816001600160a01b0316836001600160a01b031614156111795760405162461bcd60e51b815260206004820152602960248201527f455243313135353a2073657474696e6720617070726f76616c20737461747573604482015268103337b91039b2b63360b91b60648201526084016105a2565b6001600160a01b03838116600081815260ca6020908152604080832094871680845294825291829020805460ff191686151590811790915591519182527f17307eab39ab6107e8899845ad3d59bd9653f200f220920489ca2b5937696c31910160405180910390a3505050565b61012d5460ff166112305760405162461bcd60e51b815260206004820152601460248201527314185d5cd8589b194e881b9bdd081c185d5cd95960621b60448201526064016105a2565b61012d805460ff191690557f5db9ee0a495bf2e6ff9c91a7834c1ba4fdd244a5e8aa4e537bd38aeae4b073aa335b6040516001600160a01b03909116815260200160405180910390a1565b6001600160a01b0383166112a15760405162461bcd60e51b81526004016105a290612f1a565b80518251146112c25760405162461bcd60e51b81526004016105a290612f5d565b60003390506112e581856000868660405180602001604052806000815250611df7565b60005b83518110156113ad57600084828151811061130557611305612d69565b60200260200101519050600084838151811061132357611323612d69565b602090810291909101810151600084815260c9835260408082206001600160a01b038c1683529093529190912054909150818110156113745760405162461bcd60e51b81526004016105a290612fa5565b600092835260c9602090815260408085206001600160a01b038b16865290915290922091039055806113a581612d7f565b9150506112e8565b5060006001600160a01b0316846001600160a01b0316826001600160a01b03167f4a39dc06d4c0dbc64b70af90fd698a233a518aa5d07e595d983b8c0526c8f7fb86866040516113fe929190612fe9565b60405180910390a450505050565b6001600160a01b0384166114325760405162461bcd60e51b81526004016105a290613017565b336114528160008761144388611e05565b61144c88611e05565b87611df7565b600084815260c9602090815260408083206001600160a01b038916845290915281208054859290611484908490612d51565b909155505060408051858152602081018590526001600160a01b0380881692600092918516917fc3d58168c5ae7397731d063d5bbf3d657854427343f4c083240f7aacaa2d0f62910160405180910390a4610ebd81600087878787611e50565b600054610100900460ff16610ad55760405162461bcd60e51b81526004016105a290613058565b61012d5460ff16156115525760405162461bcd60e51b815260206004820152601060248201526f14185d5cd8589b194e881c185d5cd95960821b60448201526064016105a2565b61012d805460ff191660011790557f62e78cea01bee320cd4e420270b5ea74000d11b0c9f74754ebdbfc544b05a25861125e3390565b6000610dfe8383611fac565b60006105d0825490565b6001600160a01b0384166115c45760405162461bcd60e51b81526004016105a2906130a3565b336115d481878761144388611e05565b600084815260c9602090815260408083206001600160a01b038a168452909152902054838110156116175760405162461bcd60e51b81526004016105a2906130e8565b600085815260c9602090815260408083206001600160a01b038b8116855292528083208785039055908816825281208054869290611656908490612d51565b909155505060408051868152602081018690526001600160a01b03808916928a821692918616917fc3d58168c5ae7397731d063d5bbf3d657854427343f4c083240f7aacaa2d0f62910160405180910390a46116b6828888888888611e50565b50505050505050565b6001600160a01b0383166116e55760405162461bcd60e51b81526004016105a290612f1a565b33611714818560006116f687611e05565b6116ff87611e05565b60405180602001604052806000815250611df7565b600083815260c9602090815260408083206001600160a01b0388168452909152902054828110156117575760405162461bcd60e51b81526004016105a290612fa5565b600084815260c9602090815260408083206001600160a01b03898116808652918452828520888703905582518981529384018890529092908616917fc3d58168c5ae7397731d063d5bbf3d657854427343f4c083240f7aacaa2d0f62910160405180910390a45050505050565b600054610100900460ff166117eb5760405162461bcd60e51b81526004016105a290613058565b6117f481611fd6565b6117fc612006565b610d518161203a565b60006001600160e01b03198216636cdb3d1360e11b148061183657506001600160e01b031982166303a24d0760e21b145b806105d057506105d08261209c565b6001600160a01b03841661186b5760405162461bcd60e51b81526004016105a290613017565b815183511461188c5760405162461bcd60e51b81526004016105a290612f5d565b3361189c81600087878787611df7565b60005b8451811015611938578381815181106118ba576118ba612d69565b602002602001015160c960008784815181106118d8576118d8612d69565b602002602001015181526020019081526020016000206000886001600160a01b03166001600160a01b0316815260200190815260200160002060008282546119209190612d51565b9091555081905061193081612d7f565b91505061189f565b50846001600160a01b031660006001600160a01b0316826001600160a01b03167f4a39dc06d4c0dbc64b70af90fd698a233a518aa5d07e595d983b8c0526c8f7fb8787604051611989929190612fe9565b60405180910390a4610ebd816000878787876120c1565b81518351146119c15760405162461bcd60e51b81526004016105a290612f5d565b6001600160a01b0384166119e75760405162461bcd60e51b81526004016105a2906130a3565b336119f6818787878787611df7565b60005b8451811015611adf576000858281518110611a1657611a16612d69565b602002602001015190506000858381518110611a3457611a34612d69565b602090810291909101810151600084815260c9835260408082206001600160a01b038e168352909352919091205490915081811015611a855760405162461bcd60e51b81526004016105a2906130e8565b600083815260c9602090815260408083206001600160a01b038e8116855292528083208585039055908b16825281208054849290611ac4908490612d51565b9250508190555050505080611ad890612d7f565b90506119f9565b50846001600160a01b0316866001600160a01b0316826001600160a01b03167f4a39dc06d4c0dbc64b70af90fd698a233a518aa5d07e595d983b8c0526c8f7fb8787604051611b2f929190612fe9565b60405180910390a46108e38187878787876120c1565b60606000611b54836002613132565b611b5f906002612d51565b6001600160401b03811115611b7657611b7661262f565b6040519080825280601f01601f191660200182016040528015611ba0576020820181803683370190505b509050600360fc1b81600081518110611bbb57611bbb612d69565b60200101906001600160f81b031916908160001a905350600f60fb1b81600181518110611bea57611bea612d69565b60200101906001600160f81b031916908160001a9053506000611c0e846002613132565b611c19906001612d51565b90505b6001811115611c91576f181899199a1a9b1b9c1cb0b131b232b360811b85600f1660108110611c4d57611c4d612d69565b1a60f81b828281518110611c6357611c63612d69565b60200101906001600160f81b031916908160001a90535060049490941c93611c8a81613151565b9050611c1c565b508315610dfe5760405162461bcd60e51b815260206004820181905260248201527f537472696e67733a20686578206c656e67746820696e73756666696369656e7460448201526064016105a2565b611cea8282610e05565b6109db5760008281526065602090815260408083206001600160a01b03851684529091529020805460ff19166001179055611d223390565b6001600160a01b0316816001600160a01b0316837f2f8788117e7eff1d82e926ec794901d17c78024a50270940304540a733656f0d60405160405180910390a45050565b6000610dfe836001600160a01b03841661217c565b611d858282610e05565b156109db5760008281526065602090815260408083206001600160a01b0385168085529252808320805460ff1916905551339285917ff6391f5c32d9c69d2a47ea670b442974b53935d1edc7fd64eb21e047a839171b9190a45050565b6000610dfe836001600160a01b0384166121cb565b6108e38686868686866122be565b60408051600180825281830190925260609160009190602080830190803683370190505090508281600081518110611e3f57611e3f612d69565b602090810291909101015292915050565b6001600160a01b0384163b156108e35760405163f23a6e6160e01b81526001600160a01b0385169063f23a6e6190611e949089908990889088908890600401613168565b6020604051808303816000875af1925050508015611ecf575060408051601f3d908101601f19168201909252611ecc918101906131ad565b60015b611f7c57611edb6131ca565b806308c379a01415611f155750611ef06131e6565b80611efb5750611f17565b8060405162461bcd60e51b81526004016105a29190612603565b505b60405162461bcd60e51b815260206004820152603460248201527f455243313135353a207472616e7366657220746f206e6f6e20455243313135356044820152732932b1b2b4bb32b91034b6b83632b6b2b73a32b960611b60648201526084016105a2565b6001600160e01b0319811663f23a6e6160e01b146116b65760405162461bcd60e51b81526004016105a29061326f565b6000826000018281548110611fc357611fc3612d69565b9060005260206000200154905092915050565b600054610100900460ff16611ffd5760405162461bcd60e51b81526004016105a290613058565b610d51816123da565b600054610100900460ff1661202d5760405162461bcd60e51b81526004016105a290613058565b61012d805460ff19169055565b600054610100900460ff166120615760405162461bcd60e51b81526004016105a290613058565b61206c6000336123ed565b61208460008051602061334c833981519152336123ed565b610d5160008051602061332c833981519152336123ed565b60006001600160e01b03198216635a05180f60e01b14806105d057506105d0826123f7565b6001600160a01b0384163b156108e35760405163bc197c8160e01b81526001600160a01b0385169063bc197c819061210590899089908890889088906004016132b7565b6020604051808303816000875af1925050508015612140575060408051601f3d908101601f1916820190925261213d918101906131ad565b60015b61214c57611edb6131ca565b6001600160e01b0319811663bc197c8160e01b146116b65760405162461bcd60e51b81526004016105a29061326f565b60008181526001830160205260408120546121c3575081546001818101845560008481526020808220909301849055845484825282860190935260409020919091556105d0565b5060006105d0565b600081815260018301602052604081205480156122b45760006121ef600183612d9a565b855490915060009061220390600190612d9a565b905081811461226857600086600001828154811061222357612223612d69565b906000526020600020015490508087600001848154811061224657612246612d69565b6000918252602080832090910192909255918252600188019052604090208390555b855486908061227957612279613315565b6001900381819060005260206000200160009055905585600101600086815260200190815260200160002060009055600193505050506105d0565b60009150506105d0565b6122cc86868686868661242c565b6001600160a01b0385166123545760005b8351811015612352578281815181106122f8576122f8612d69565b60200260200101516101c3600086848151811061231757612317612d69565b60200260200101518152602001908152602001600020600082825461233c9190612d51565b9091555061234b905081612d7f565b90506122dd565b505b6001600160a01b0384166108e35760005b83518110156116b65782818151811061238057612380612d69565b60200260200101516101c3600086848151811061239f5761239f612d69565b6020026020010151815260200190815260200160002060008282546123c49190612d9a565b909155506123d3905081612d7f565b9050612365565b80516109db9060cb90602084019061249e565b6109db82826110c1565b60006001600160e01b03198216637965db0b60e01b14806105d057506301ffc9a760e01b6001600160e01b03198316146105d0565b6108e386868686868661012d5460ff16156108e35760405162461bcd60e51b815260206004820152602c60248201527f455243313135355061757361626c653a20746f6b656e207472616e736665722060448201526b1dda1a5b19481c185d5cd95960a21b60648201526084016105a2565b8280546124aa90612ca2565b90600052602060002090601f0160209004810192826124cc5760008555612512565b82601f106124e557805160ff1916838001178555612512565b82800160010185558215612512579182015b828111156125125782518255916020019190600101906124f7565b5061251e929150612522565b5090565b5b8082111561251e5760008155600101612523565b6001600160a01b0381168114610d5157600080fd5b6000806040838503121561255f57600080fd5b823561256a81612537565b946020939093013593505050565b6001600160e01b031981168114610d5157600080fd5b6000602082840312156125a057600080fd5b8135610dfe81612578565b60005b838110156125c65781810151838201526020016125ae565b83811115610a3d5750506000910152565b600081518084526125ef8160208601602086016125ab565b601f01601f19169290920160200192915050565b602081526000610dfe60208301846125d7565b60006020828403121561262857600080fd5b5035919050565b634e487b7160e01b600052604160045260246000fd5b601f8201601f191681016001600160401b038111828210171561266a5761266a61262f565b6040525050565b60006001600160401b0382111561268a5761268a61262f565b5060051b60200190565b600082601f8301126126a557600080fd5b813560206126b282612671565b6040516126bf8282612645565b83815260059390931b85018201928281019150868411156126df57600080fd5b8286015b848110156126fa57803583529183019183016126e3565b509695505050505050565b60006001600160401b0383111561271e5761271e61262f565b604051612735601f8501601f191660200182612645565b80915083815284848401111561274a57600080fd5b83836020830137600060208583010152509392505050565b600082601f83011261277357600080fd5b610dfe83833560208501612705565b6000806000806080858703121561279857600080fd5b84356127a381612537565b935060208501356001600160401b03808211156127bf57600080fd5b6127cb88838901612694565b945060408701359150808211156127e157600080fd5b6127ed88838901612694565b9350606087013591508082111561280357600080fd5b5061281087828801612762565b91505092959194509250565b600080600080600060a0868803121561283457600080fd5b853561283f81612537565b9450602086013561284f81612537565b935060408601356001600160401b038082111561286b57600080fd5b61287789838a01612694565b9450606088013591508082111561288d57600080fd5b61289989838a01612694565b935060808801359150808211156128af57600080fd5b506128bc88828901612762565b9150509295509295909350565b600080604083850312156128dc57600080fd5b8235915060208301356128ee81612537565b809150509250929050565b8015158114610d5157600080fd5b60008060006060848603121561291c57600080fd5b833561292781612537565b9250602084013561293781612537565b91506040840135612947816128f9565b809150509250925092565b6000806040838503121561296557600080fd5b82356001600160401b038082111561297c57600080fd5b818501915085601f83011261299057600080fd5b8135602061299d82612671565b6040516129aa8282612645565b83815260059390931b85018201928281019150898411156129ca57600080fd5b948201945b838610156129f15785356129e281612537565b825294820194908201906129cf565b96505086013592505080821115612a0757600080fd5b50612a1485828601612694565b9150509250929050565b600081518084526020808501945080840160005b83811015612a4e57815187529582019590820190600101612a32565b509495945050505050565b602081526000610dfe6020830184612a1e565b600080600060608486031215612a8157600080fd5b8335612a8c81612537565b925060208401356001600160401b0380821115612aa857600080fd5b612ab487838801612694565b93506040860135915080821115612aca57600080fd5b50612ad786828701612694565b9150509250925092565b60008060008060808587031215612af757600080fd5b8435612b0281612537565b9350602085013592506040850135915060608501356001600160401b03811115612b2b57600080fd5b61281087828801612762565b60008060408385031215612b4a57600080fd5b50508035926020909101359150565b60008060408385031215612b6c57600080fd5b8235612b7781612537565b915060208301356128ee816128f9565b60008060408385031215612b9a57600080fd5b8235612ba581612537565b915060208301356128ee81612537565b600080600080600060a08688031215612bcd57600080fd5b8535612bd881612537565b94506020860135612be881612537565b9350604086013592506060860135915060808601356001600160401b03811115612c1157600080fd5b6128bc88828901612762565b600080600060608486031215612c3257600080fd5b8335612c3d81612537565b95602085013595506040909401359392505050565b600060208284031215612c6457600080fd5b81356001600160401b03811115612c7a57600080fd5b8201601f81018413612c8b57600080fd5b612c9a84823560208401612705565b949350505050565b600181811c90821680612cb657607f821691505b60208210811415612cd757634e487b7160e01b600052602260045260246000fd5b50919050565b600060408284031215612cef57600080fd5b604051604081018181106001600160401b0382111715612d1157612d1161262f565b6040528251612d1f81612537565b81526020830151612d2f816128f9565b60208201529392505050565b634e487b7160e01b600052601160045260246000fd5b60008219821115612d6457612d64612d3b565b500190565b634e487b7160e01b600052603260045260246000fd5b6000600019821415612d9357612d93612d3b565b5060010190565b600082821015612dac57612dac612d3b565b500390565b60208082526029908201527f455243313135353a2063616c6c6572206973206e6f74206f776e6572206e6f7260408201526808185c1c1c9bdd995960ba1b606082015260800190565b60208082526038908201527f455243313135355072657365744d696e7465725061757365723a206d7573742060408201527f68617665206d696e74657220726f6c6520746f206d696e740000000000000000606082015260800190565b6020808252602e908201527f496e697469616c697a61626c653a20636f6e747261637420697320616c72656160408201526d191e481a5b9a5d1a585b1a5e995960921b606082015260800190565b7f416363657373436f6e74726f6c3a206163636f756e7420000000000000000000815260008351612edd8160178501602088016125ab565b7001034b99036b4b9b9b4b733903937b6329607d1b6017918401918201528351612f0e8160288401602088016125ab565b01602801949350505050565b60208082526023908201527f455243313135353a206275726e2066726f6d20746865207a65726f206164647260408201526265737360e81b606082015260800190565b60208082526028908201527f455243313135353a2069647320616e6420616d6f756e7473206c656e677468206040820152670dad2e6dac2e8c6d60c31b606082015260800190565b60208082526024908201527f455243313135353a206275726e20616d6f756e7420657863656564732062616c604082015263616e636560e01b606082015260800190565b604081526000612ffc6040830185612a1e565b828103602084015261300e8185612a1e565b95945050505050565b60208082526021908201527f455243313135353a206d696e7420746f20746865207a65726f206164647265736040820152607360f81b606082015260800190565b6020808252602b908201527f496e697469616c697a61626c653a20636f6e7472616374206973206e6f74206960408201526a6e697469616c697a696e6760a81b606082015260800190565b60208082526025908201527f455243313135353a207472616e7366657220746f20746865207a65726f206164604082015264647265737360d81b606082015260800190565b6020808252602a908201527f455243313135353a20696e73756666696369656e742062616c616e636520666f60408201526939103a3930b739b332b960b11b606082015260800190565b600081600019048311821515161561314c5761314c612d3b565b500290565b60008161316057613160612d3b565b506000190190565b6001600160a01b03868116825285166020820152604081018490526060810183905260a0608082018190526000906131a2908301846125d7565b979650505050505050565b6000602082840312156131bf57600080fd5b8151610dfe81612578565b600060033d11156131e35760046000803e5060005160e01c5b90565b600060443d10156131f45790565b6040516003193d81016004833e81513d6001600160401b03816024840111818411171561322357505050505090565b828501915081518181111561323b5750505050505090565b843d87010160208285010111156132555750505050505090565b61326460208286010187612645565b509095945050505050565b60208082526028908201527f455243313135353a204552433131353552656365697665722072656a656374656040820152676420746f6b656e7360c01b606082015260800190565b6001600160a01b0386811682528516602082015260a0604082018190526000906132e390830186612a1e565b82810360608401526132f58186612a1e565b9050828103608084015261330981856125d7565b98975050505050505050565b634e487b7160e01b600052603160045260246000fdfe65d7a28e3265b37a6474929f336521b332c1681b933f6cb9f3376673440d862a9f2df0fed2c77648de5860a4cc508cd0818c85b8b8a1ab4ceeef8d981c8956a668747470733a2f2f6e6f72692e636f6d2f6170692f72656d6f76616c2f7b69647d2e6a736f6ea26469706673582212206f7e74df8127b70d4b5c6f02a86b51d058f6e978bf34132da06e21b12f88486164736f6c634300080a0033",
  "linkReferences": {},
  "deployedLinkReferences": {}
}