{
  "_format": "hh-sol-artifact-1",
  "contractName": "Removal",
  "sourceName": "contracts/Removal.sol",
  "abi": [
    {
      "inputs": [],
      "stateMutability": "nonpayable",
      "type": "constructor"
    },
    {
      "inputs": [
        {
          "internalType": "string",
          "name": "array1Name",
          "type": "string"
        },
        {
          "internalType": "string",
          "name": "array2Name",
          "type": "string"
        }
      ],
      "name": "ArrayLengthMismatch",
      "type": "error"
    },
    {
      "inputs": [
        {
          "internalType": "uint256",
          "name": "tokenId",
          "type": "uint256"
        }
      ],
      "name": "TokenIdExists",
      "type": "error"
    },
    {
      "anonymous": false,
      "inputs": [
        {
          "indexed": true,
          "internalType": "address",
          "name": "account",
          "type": "address"
        },
        {
          "indexed": true,
          "internalType": "address",
          "name": "operator",
          "type": "address"
        },
        {
          "indexed": false,
          "internalType": "bool",
          "name": "approved",
          "type": "bool"
        }
      ],
      "name": "ApprovalForAll",
      "type": "event"
    },
    {
      "anonymous": false,
      "inputs": [
        {
          "indexed": false,
          "internalType": "uint8",
          "name": "version",
          "type": "uint8"
        }
      ],
      "name": "Initialized",
      "type": "event"
    },
    {
      "anonymous": false,
      "inputs": [
        {
          "indexed": false,
          "internalType": "address",
          "name": "account",
          "type": "address"
        }
      ],
      "name": "Paused",
      "type": "event"
    },
    {
      "anonymous": false,
      "inputs": [
        {
          "indexed": true,
          "internalType": "bytes32",
          "name": "role",
          "type": "bytes32"
        },
        {
          "indexed": true,
          "internalType": "bytes32",
          "name": "previousAdminRole",
          "type": "bytes32"
        },
        {
          "indexed": true,
          "internalType": "bytes32",
          "name": "newAdminRole",
          "type": "bytes32"
        }
      ],
      "name": "RoleAdminChanged",
      "type": "event"
    },
    {
      "anonymous": false,
      "inputs": [
        {
          "indexed": true,
          "internalType": "bytes32",
          "name": "role",
          "type": "bytes32"
        },
        {
          "indexed": true,
          "internalType": "address",
          "name": "account",
          "type": "address"
        },
        {
          "indexed": true,
          "internalType": "address",
          "name": "sender",
          "type": "address"
        }
      ],
      "name": "RoleGranted",
      "type": "event"
    },
    {
      "anonymous": false,
      "inputs": [
        {
          "indexed": true,
          "internalType": "bytes32",
          "name": "role",
          "type": "bytes32"
        },
        {
          "indexed": true,
          "internalType": "address",
          "name": "account",
          "type": "address"
        },
        {
          "indexed": true,
          "internalType": "address",
          "name": "sender",
          "type": "address"
        }
      ],
      "name": "RoleRevoked",
      "type": "event"
    },
    {
      "anonymous": false,
      "inputs": [
        {
          "indexed": true,
          "internalType": "address",
          "name": "operator",
          "type": "address"
        },
        {
          "indexed": true,
          "internalType": "address",
          "name": "from",
          "type": "address"
        },
        {
          "indexed": true,
          "internalType": "address",
          "name": "to",
          "type": "address"
        },
        {
          "indexed": false,
          "internalType": "uint256[]",
          "name": "ids",
          "type": "uint256[]"
        },
        {
          "indexed": false,
          "internalType": "uint256[]",
          "name": "values",
          "type": "uint256[]"
        }
      ],
      "name": "TransferBatch",
      "type": "event"
    },
    {
      "anonymous": false,
      "inputs": [
        {
          "indexed": true,
          "internalType": "address",
          "name": "operator",
          "type": "address"
        },
        {
          "indexed": true,
          "internalType": "address",
          "name": "from",
          "type": "address"
        },
        {
          "indexed": true,
          "internalType": "address",
          "name": "to",
          "type": "address"
        },
        {
          "indexed": false,
          "internalType": "uint256",
          "name": "id",
          "type": "uint256"
        },
        {
          "indexed": false,
          "internalType": "uint256",
          "name": "value",
          "type": "uint256"
        }
      ],
      "name": "TransferSingle",
      "type": "event"
    },
    {
      "anonymous": false,
      "inputs": [
        {
          "indexed": false,
          "internalType": "string",
          "name": "value",
          "type": "string"
        },
        {
          "indexed": true,
          "internalType": "uint256",
          "name": "id",
          "type": "uint256"
        }
      ],
      "name": "URI",
      "type": "event"
    },
    {
      "anonymous": false,
      "inputs": [
        {
          "indexed": false,
          "internalType": "address",
          "name": "account",
          "type": "address"
        }
      ],
      "name": "Unpaused",
      "type": "event"
    },
    {
      "inputs": [],
      "name": "DEFAULT_ADMIN_ROLE",
      "outputs": [
        {
          "internalType": "bytes32",
          "name": "",
          "type": "bytes32"
        }
      ],
      "stateMutability": "view",
      "type": "function"
    },
    {
      "inputs": [],
      "name": "MINTER_ROLE",
      "outputs": [
        {
          "internalType": "bytes32",
          "name": "",
          "type": "bytes32"
        }
      ],
      "stateMutability": "view",
      "type": "function"
    },
    {
      "inputs": [],
      "name": "PAUSER_ROLE",
      "outputs": [
        {
          "internalType": "bytes32",
          "name": "",
          "type": "bytes32"
        }
      ],
      "stateMutability": "view",
      "type": "function"
    },
    {
      "inputs": [],
      "name": "RELEASER_ROLE",
      "outputs": [
        {
          "internalType": "bytes32",
          "name": "",
          "type": "bytes32"
        }
      ],
      "stateMutability": "view",
      "type": "function"
    },
    {
      "inputs": [
        {
          "internalType": "address",
          "name": "account",
          "type": "address"
        },
        {
          "internalType": "uint256",
          "name": "id",
          "type": "uint256"
        }
      ],
      "name": "balanceOf",
      "outputs": [
        {
          "internalType": "uint256",
          "name": "",
          "type": "uint256"
        }
      ],
      "stateMutability": "view",
      "type": "function"
    },
    {
      "inputs": [
        {
          "internalType": "address[]",
          "name": "accounts",
          "type": "address[]"
        },
        {
          "internalType": "uint256[]",
          "name": "ids",
          "type": "uint256[]"
        }
      ],
      "name": "balanceOfBatch",
      "outputs": [
        {
          "internalType": "uint256[]",
          "name": "",
          "type": "uint256[]"
        }
      ],
      "stateMutability": "view",
      "type": "function"
    },
    {
      "inputs": [
        {
          "internalType": "address",
          "name": "account",
          "type": "address"
        },
        {
          "internalType": "uint256[]",
          "name": "ids",
          "type": "uint256[]"
        }
      ],
      "name": "balanceOfIds",
      "outputs": [
        {
          "internalType": "uint256[]",
          "name": "",
          "type": "uint256[]"
        }
      ],
      "stateMutability": "view",
      "type": "function"
    },
    {
      "inputs": [
        {
          "internalType": "uint256[]",
          "name": "removalIds",
          "type": "uint256[]"
        }
      ],
      "name": "batchGetHoldbackPercentages",
      "outputs": [
        {
          "internalType": "uint256[]",
          "name": "",
          "type": "uint256[]"
        }
      ],
      "stateMutability": "view",
      "type": "function"
    },
    {
      "inputs": [
        {
          "internalType": "address",
          "name": "account",
          "type": "address"
        },
        {
          "internalType": "uint256",
          "name": "id",
          "type": "uint256"
        },
        {
          "internalType": "uint256",
          "name": "value",
          "type": "uint256"
        }
      ],
      "name": "burn",
      "outputs": [],
      "stateMutability": "nonpayable",
      "type": "function"
    },
    {
      "inputs": [
        {
          "internalType": "address",
          "name": "account",
          "type": "address"
        },
        {
          "internalType": "uint256[]",
          "name": "ids",
          "type": "uint256[]"
        },
        {
          "internalType": "uint256[]",
          "name": "values",
          "type": "uint256[]"
        }
      ],
      "name": "burnBatch",
      "outputs": [],
      "stateMutability": "nonpayable",
      "type": "function"
    },
    {
      "inputs": [
        {
          "internalType": "bytes",
          "name": "removalData",
          "type": "bytes"
        }
      ],
      "name": "createRemovalId",
      "outputs": [
        {
          "internalType": "uint256",
          "name": "",
          "type": "uint256"
        }
      ],
      "stateMutability": "pure",
      "type": "function"
    },
    {
      "inputs": [
        {
          "internalType": "address",
          "name": "owner",
          "type": "address"
        }
      ],
      "name": "cumulativeBalanceOf",
      "outputs": [
        {
          "internalType": "uint256",
          "name": "",
          "type": "uint256"
        }
      ],
      "stateMutability": "view",
      "type": "function"
    },
    {
      "inputs": [
        {
          "internalType": "address[]",
          "name": "accounts",
          "type": "address[]"
        }
      ],
      "name": "cumulativeBalanceOfBatch",
      "outputs": [
        {
          "internalType": "uint256[]",
          "name": "",
          "type": "uint256[]"
        }
      ],
      "stateMutability": "view",
      "type": "function"
    },
    {
      "inputs": [
        {
          "internalType": "address",
          "name": "owner",
          "type": "address"
        },
        {
          "internalType": "uint256[]",
          "name": "ids",
          "type": "uint256[]"
        }
      ],
      "name": "cumulativeBalanceOfOwnerSubset",
      "outputs": [
        {
          "internalType": "uint256",
          "name": "",
          "type": "uint256"
        }
      ],
      "stateMutability": "view",
      "type": "function"
    },
    {
      "inputs": [
        {
          "internalType": "uint256",
          "name": "id",
          "type": "uint256"
        }
      ],
      "name": "exists",
      "outputs": [
        {
          "internalType": "bool",
          "name": "",
          "type": "bool"
        }
      ],
      "stateMutability": "view",
      "type": "function"
    },
    {
      "inputs": [
        {
          "internalType": "uint256",
          "name": "removalId",
          "type": "uint256"
        }
      ],
      "name": "getProjectIdForRemoval",
      "outputs": [
        {
          "internalType": "uint256",
          "name": "",
          "type": "uint256"
        }
      ],
      "stateMutability": "view",
      "type": "function"
    },
    {
      "inputs": [
        {
          "internalType": "bytes32",
          "name": "role",
          "type": "bytes32"
        }
      ],
      "name": "getRoleAdmin",
      "outputs": [
        {
          "internalType": "bytes32",
          "name": "",
          "type": "bytes32"
        }
      ],
      "stateMutability": "view",
      "type": "function"
    },
    {
      "inputs": [
        {
          "internalType": "bytes32",
          "name": "role",
          "type": "bytes32"
        },
        {
          "internalType": "uint256",
          "name": "index",
          "type": "uint256"
        }
      ],
      "name": "getRoleMember",
      "outputs": [
        {
          "internalType": "address",
          "name": "",
          "type": "address"
        }
      ],
      "stateMutability": "view",
      "type": "function"
    },
    {
      "inputs": [
        {
          "internalType": "bytes32",
          "name": "role",
          "type": "bytes32"
        }
      ],
      "name": "getRoleMemberCount",
      "outputs": [
        {
          "internalType": "uint256",
          "name": "",
          "type": "uint256"
        }
      ],
      "stateMutability": "view",
      "type": "function"
    },
    {
      "inputs": [
        {
          "internalType": "uint256",
          "name": "projectId",
          "type": "uint256"
        }
      ],
      "name": "getScheduleDataForProjectId",
      "outputs": [
        {
          "components": [
            {
              "internalType": "uint256",
              "name": "startTime",
              "type": "uint256"
            },
            {
              "internalType": "address",
              "name": "supplierAddress",
              "type": "address"
            },
            {
              "internalType": "uint256",
              "name": "methodology",
              "type": "uint256"
            },
            {
              "internalType": "uint256",
              "name": "methodologyVersion",
              "type": "uint256"
            }
          ],
          "internalType": "struct Removal.ScheduleData",
          "name": "",
          "type": "tuple"
        }
      ],
      "stateMutability": "view",
      "type": "function"
    },
    {
      "inputs": [
        {
          "internalType": "uint256",
          "name": "removalId",
          "type": "uint256"
        }
      ],
      "name": "getScheduleDataForRemovalId",
      "outputs": [
        {
          "components": [
            {
              "internalType": "uint256",
              "name": "startTime",
              "type": "uint256"
            },
            {
              "internalType": "address",
              "name": "supplierAddress",
              "type": "address"
            },
            {
              "internalType": "uint256",
              "name": "methodology",
              "type": "uint256"
            },
            {
              "internalType": "uint256",
              "name": "methodologyVersion",
              "type": "uint256"
            }
          ],
          "internalType": "struct Removal.ScheduleData",
          "name": "",
          "type": "tuple"
        }
      ],
      "stateMutability": "view",
      "type": "function"
    },
    {
      "inputs": [
        {
          "internalType": "bytes32",
          "name": "role",
          "type": "bytes32"
        },
        {
          "internalType": "address",
          "name": "account",
          "type": "address"
        }
      ],
      "name": "grantRole",
      "outputs": [],
      "stateMutability": "nonpayable",
      "type": "function"
    },
    {
      "inputs": [
        {
          "internalType": "bytes32",
          "name": "role",
          "type": "bytes32"
        },
        {
          "internalType": "address",
          "name": "account",
          "type": "address"
        }
      ],
      "name": "hasRole",
      "outputs": [
        {
          "internalType": "bool",
          "name": "",
          "type": "bool"
        }
      ],
      "stateMutability": "view",
      "type": "function"
    },
    {
      "inputs": [],
      "name": "initialize",
      "outputs": [],
      "stateMutability": "nonpayable",
      "type": "function"
    },
    {
      "inputs": [
        {
          "internalType": "address",
          "name": "account",
          "type": "address"
        },
        {
          "internalType": "address",
          "name": "operator",
          "type": "address"
        }
      ],
      "name": "isApprovedForAll",
      "outputs": [
        {
          "internalType": "bool",
          "name": "",
          "type": "bool"
        }
      ],
      "stateMutability": "view",
      "type": "function"
    },
    {
      "inputs": [],
      "name": "marketAddress",
      "outputs": [
        {
          "internalType": "address",
          "name": "",
          "type": "address"
        }
      ],
      "stateMutability": "view",
      "type": "function"
    },
    {
      "inputs": [
        {
          "internalType": "address",
          "name": "to",
          "type": "address"
        },
        {
          "internalType": "uint256[]",
          "name": "amounts",
          "type": "uint256[]"
        },
        {
          "internalType": "uint256[]",
          "name": "ids",
          "type": "uint256[]"
        },
        {
          "components": [
            {
              "internalType": "uint256",
              "name": "projectId",
              "type": "uint256"
            },
            {
              "internalType": "uint256",
              "name": "scheduleStartTime",
              "type": "uint256"
            },
            {
              "internalType": "uint8",
              "name": "holdbackPercentage",
              "type": "uint8"
            },
            {
              "internalType": "bool",
              "name": "list",
              "type": "bool"
            }
          ],
          "internalType": "struct BatchMintRemovalsData",
          "name": "data",
          "type": "tuple"
        }
      ],
      "name": "mintBatch",
      "outputs": [],
      "stateMutability": "nonpayable",
      "type": "function"
    },
    {
      "inputs": [
        {
          "internalType": "address",
          "name": "account",
          "type": "address"
        }
      ],
      "name": "numberOfTokensOwnedByAddress",
      "outputs": [
        {
          "internalType": "uint256",
          "name": "",
          "type": "uint256"
        }
      ],
      "stateMutability": "view",
      "type": "function"
    },
    {
      "inputs": [],
      "name": "paused",
      "outputs": [
        {
          "internalType": "bool",
          "name": "",
          "type": "bool"
        }
      ],
      "stateMutability": "view",
      "type": "function"
    },
    {
      "inputs": [
        {
          "internalType": "contract RestrictedNORI",
          "name": "restrictedNoriAddress_",
          "type": "address"
        },
        {
          "internalType": "contract Market",
          "name": "marketAddress_",
          "type": "address"
        }
      ],
      "name": "registerContractAddresses",
      "outputs": [],
      "stateMutability": "nonpayable",
      "type": "function"
    },
    {
      "inputs": [
        {
          "internalType": "address",
          "name": "owner",
          "type": "address"
        },
        {
          "internalType": "uint256",
          "name": "removalId",
          "type": "uint256"
        },
        {
          "internalType": "uint256",
          "name": "amount",
          "type": "uint256"
        }
      ],
      "name": "release",
      "outputs": [],
      "stateMutability": "nonpayable",
      "type": "function"
    },
    {
      "inputs": [
        {
          "internalType": "bytes32",
          "name": "role",
          "type": "bytes32"
        },
        {
          "internalType": "address",
          "name": "account",
          "type": "address"
        }
      ],
      "name": "renounceRole",
      "outputs": [],
      "stateMutability": "nonpayable",
      "type": "function"
    },
    {
      "inputs": [],
      "name": "restrictedNoriAddress",
      "outputs": [
        {
          "internalType": "address",
          "name": "",
          "type": "address"
        }
      ],
      "stateMutability": "view",
      "type": "function"
    },
    {
      "inputs": [
        {
          "internalType": "bytes32",
          "name": "role",
          "type": "bytes32"
        },
        {
          "internalType": "address",
          "name": "account",
          "type": "address"
        }
      ],
      "name": "revokeRole",
      "outputs": [],
      "stateMutability": "nonpayable",
      "type": "function"
    },
    {
      "inputs": [
        {
          "internalType": "address",
          "name": "from",
          "type": "address"
        },
        {
          "internalType": "address",
          "name": "to",
          "type": "address"
        },
        {
          "internalType": "uint256[]",
          "name": "ids",
          "type": "uint256[]"
        },
        {
          "internalType": "uint256[]",
          "name": "amounts",
          "type": "uint256[]"
        },
        {
          "internalType": "bytes",
          "name": "data",
          "type": "bytes"
        }
      ],
      "name": "safeBatchTransferFrom",
      "outputs": [],
      "stateMutability": "nonpayable",
      "type": "function"
    },
    {
      "inputs": [
        {
          "internalType": "address",
          "name": "from",
          "type": "address"
        },
        {
          "internalType": "address",
          "name": "to",
          "type": "address"
        },
        {
          "internalType": "uint256",
          "name": "id",
          "type": "uint256"
        },
        {
          "internalType": "uint256",
          "name": "amount",
          "type": "uint256"
        },
        {
          "internalType": "bytes",
          "name": "data",
          "type": "bytes"
        }
      ],
      "name": "safeTransferFrom",
      "outputs": [],
      "stateMutability": "nonpayable",
      "type": "function"
    },
    {
      "inputs": [
        {
          "internalType": "address",
          "name": "operator",
          "type": "address"
        },
        {
          "internalType": "bool",
          "name": "approved",
          "type": "bool"
        }
      ],
      "name": "setApprovalForAll",
      "outputs": [],
      "stateMutability": "nonpayable",
      "type": "function"
    },
    {
      "inputs": [
        {
          "internalType": "bytes4",
          "name": "interfaceId",
          "type": "bytes4"
        }
      ],
      "name": "supportsInterface",
      "outputs": [
        {
          "internalType": "bool",
          "name": "",
          "type": "bool"
        }
      ],
      "stateMutability": "view",
      "type": "function"
    },
    {
      "inputs": [
        {
          "internalType": "address",
          "name": "owner",
          "type": "address"
        }
      ],
      "name": "tokensOfOwner",
      "outputs": [
        {
          "internalType": "uint256[]",
          "name": "",
          "type": "uint256[]"
        }
      ],
      "stateMutability": "view",
      "type": "function"
    },
    {
      "inputs": [
        {
          "internalType": "uint256",
          "name": "id",
          "type": "uint256"
        }
      ],
      "name": "totalSupply",
      "outputs": [
        {
          "internalType": "uint256",
          "name": "",
          "type": "uint256"
        }
      ],
      "stateMutability": "view",
      "type": "function"
    },
    {
      "inputs": [
        {
          "internalType": "uint256",
          "name": "removalId",
          "type": "uint256"
        }
      ],
      "name": "unpackRemovalIdV0",
      "outputs": [
        {
          "components": [
            {
              "internalType": "uint8",
              "name": "idVersion",
              "type": "uint8"
            },
            {
              "internalType": "uint8",
              "name": "methodology",
              "type": "uint8"
            },
            {
              "internalType": "uint8",
              "name": "methodologyVersion",
              "type": "uint8"
            },
            {
              "internalType": "uint16",
              "name": "vintage",
              "type": "uint16"
            },
            {
              "internalType": "bytes2",
              "name": "country",
              "type": "bytes2"
            },
            {
              "internalType": "bytes2",
              "name": "subdivision",
              "type": "bytes2"
            },
            {
              "internalType": "address",
              "name": "supplierAddress",
              "type": "address"
            },
            {
              "internalType": "uint32",
              "name": "subIdentifier",
              "type": "uint32"
            }
          ],
          "internalType": "struct UnpackedRemovalIdV0",
          "name": "",
          "type": "tuple"
        }
      ],
      "stateMutability": "pure",
      "type": "function"
    },
    {
      "inputs": [
        {
          "internalType": "uint256",
          "name": "",
          "type": "uint256"
        }
      ],
      "name": "uri",
      "outputs": [
        {
          "internalType": "string",
          "name": "",
          "type": "string"
        }
      ],
      "stateMutability": "view",
      "type": "function"
    }
  ],
  "bytecode": "0x60806040523480156200001157600080fd5b506200001c62000022565b620000e4565b600054610100900460ff16156200008f5760405162461bcd60e51b815260206004820152602760248201527f496e697469616c697a61626c653a20636f6e747261637420697320696e697469604482015266616c697a696e6760c81b606482015260840160405180910390fd5b60005460ff9081161015620000e2576000805460ff191660ff9081179091556040519081527f7f26b83ff96e1f2b6a682f133852f6798a09c465da95921460cefb38474024989060200160405180910390a15b565b61562980620000f46000396000f3fe608060405234801561001057600080fd5b50600436106102dd5760003560e01c80639010d07c11610186578063c1b8ecdd116100e3578063e0fc293811610097578063f242432a11610071578063f242432a1461075a578063f297be661461076d578063f5298aca1461078057600080fd5b8063e0fc2938146106c9578063e63ab1e9146106ea578063e985e9c51461071157600080fd5b8063d5391393116100c8578063d53913931461066f578063d547741f14610696578063d85a53e9146106a957600080fd5b8063c1b8ecdd14610649578063ca15c8731461065c57600080fd5b8063a217fddf1161013a578063ac28af241161011f578063ac28af24146105ee578063b6477cc014610615578063bd85b0391461062857600080fd5b8063a217fddf146105d3578063a22cb465146105db57600080fd5b806393ae796d1161016b57806393ae796d1461058e57806395623641146105a157806399d5121b146105c057600080fd5b80639010d07c1461053457806391d148541461054757600080fd5b806348ec4c3b1161023f578063789e8cdf116101f35780638462151c116101cd5780638462151c146104fb578063854560a41461050e57806388c28f111461052157600080fd5b8063789e8cdf146104a05780637f7081fa146104b35780638129fc1c146104f357600080fd5b80634f558e79116102245780634f558e791461045f5780635c975abb146104825780636b20c4541461048d57600080fd5b806348ec4c3b146104395780634e1273f41461044c57600080fd5b8063248a9ca3116102965780632f2ff15d1161027b5780632f2ff15d1461040057806336568abe146104135780633df4fe7c1461042657600080fd5b8063248a9ca3146103c75780632eb2c2d6146103eb57600080fd5b806301ffc9a7116102c757806301ffc9a7146103285780630e89341c1461034b5780631990ad051461036b57600080fd5b8062fdd58e146102e2578063018e1c8314610308575b600080fd5b6102f56102f0366004614456565b610793565b6040519081526020015b60405180910390f35b61031b6103163660046145ac565b610875565b6040516102ff9190614637565b61033b610336366004614678565b610923565b60405190151581526020016102ff565b61035e610359366004614695565b61092e565b6040516102ff9190614724565b61037e610379366004614695565b6109c2565b6040516102ff91908151815260208083015173ffffffffffffffffffffffffffffffffffffffff1690820152604080830151908201526060918201519181019190915260800190565b6102f56103d5366004614695565b600090815261015f602052604090206001015490565b6103fe6103f93660046147c9565b610a6a565b005b6103fe61040e366004614877565b610b33565b6103fe610421366004614877565b610b5e565b6103fe6104343660046148c8565b610c11565b6102f56104473660046149b4565b610ee2565b61031b61045a366004614a95565b610ef5565b61033b61046d366004614695565b600090815261012d6020526040902054151590565b60975460ff1661033b565b6103fe61049b366004614aef565b611038565b6102f56104ae366004614b65565b6110f8565b6101c35473ffffffffffffffffffffffffffffffffffffffff165b60405173ffffffffffffffffffffffffffffffffffffffff90911681526020016102ff565b6103fe611127565b61031b610509366004614b65565b61138b565b6102f561051c366004614b65565b6113bd565b6102f561052f3660046145ac565b6114e9565b6104ce610542366004614b82565b6115e3565b61033b610555366004614877565b600091825261015f6020908152604080842073ffffffffffffffffffffffffffffffffffffffff93909316845291905290205460ff1690565b6103fe61059c366004614ba4565b6115fc565b6101c45473ffffffffffffffffffffffffffffffffffffffff166104ce565b61037e6105ce366004614695565b611665565b6102f5600081565b6103fe6105e9366004614bd2565b611702565b6102f57f88f3509f0e42391f2d94ebfb2a37cbd0782b1b8f73715330017f4663290b811781565b61031b610623366004614c07565b61170d565b6102f5610636366004614695565b600090815261012d602052604090205490565b61031b610657366004614c44565b6117c8565b6102f561066a366004614695565b6118fb565b6102f57f9f2df0fed2c77648de5860a4cc508cd0818c85b8b8a1ab4ceeef8d981c8956a681565b6103fe6106a4366004614877565b611913565b6106bc6106b7366004614695565b611939565b6040516102ff9190614c79565b6102f56106d7366004614695565b60009081526101c5602052604090205490565b6102f57f65d7a28e3265b37a6474929f336521b332c1681b933f6cb9f3376673440d862a81565b61033b61071f366004614ba4565b73ffffffffffffffffffffffffffffffffffffffff918216600090815260666020908152604080832093909416825291909152205460ff1690565b6103fe610768366004614d50565b611983565b6103fe61077b366004614db9565b611a45565b6103fe61078e366004614db9565b611b27565b600073ffffffffffffffffffffffffffffffffffffffff831661083d576040517f08c379a000000000000000000000000000000000000000000000000000000000815260206004820152602a60248201527f455243313135353a2061646472657373207a65726f206973206e6f742061207660448201527f616c6964206f776e65720000000000000000000000000000000000000000000060648201526084015b60405180910390fd5b50600081815260656020908152604080832073ffffffffffffffffffffffffffffffffffffffff861684529091529020545b92915050565b60606000825167ffffffffffffffff81111561089357610893614482565b6040519080825280602002602001820160405280156108bc578160200160208202803683370190505b50905060005b835181101561091b576108ee858583815181106108e1576108e1614dee565b6020026020010151610793565b82828151811061090057610900614dee565b602090810291909101015261091481614e4c565b90506108c2565b509392505050565b600061086f82611be7565b60606067805461093d90614e84565b80601f016020809104026020016040519081016040528092919081815260200182805461096990614e84565b80156109b65780601f1061098b576101008083540402835291602001916109b6565b820191906000526020600020905b81548152906001019060200180831161099957829003601f168201915b50505050509050919050565b610a03604051806080016040528060008152602001600073ffffffffffffffffffffffffffffffffffffffff16815260200160008152602001600081525090565b5060009081526101c5602090815260408083205483526101c6825291829020825160808101845281548152600182015473ffffffffffffffffffffffffffffffffffffffff1692810192909252600281015492820192909252600390910154606082015290565b73ffffffffffffffffffffffffffffffffffffffff8516331480610a935750610a93853361071f565b610b1f576040517f08c379a000000000000000000000000000000000000000000000000000000000815260206004820152602f60248201527f455243313135353a2063616c6c6572206973206e6f7420746f6b656e206f776e60448201527f6572206e6f7220617070726f76656400000000000000000000000000000000006064820152608401610834565b610b2c8585858585611c3d565b5050505050565b600082815261015f6020526040902060010154610b4f81611f88565b610b598383611f92565b505050565b73ffffffffffffffffffffffffffffffffffffffff81163314610c03576040517f08c379a000000000000000000000000000000000000000000000000000000000815260206004820152602f60248201527f416363657373436f6e74726f6c3a2063616e206f6e6c792072656e6f756e636560448201527f20726f6c657320666f722073656c6600000000000000000000000000000000006064820152608401610834565b610c0d8282611fb5565b5050565b815183518114610cb357604080517f616c41130000000000000000000000000000000000000000000000000000000081526004810191909152600760448201527f616d6f756e747300000000000000000000000000000000000000000000000000606482015260806024820152600360848201527f696473000000000000000000000000000000000000000000000000000000000060a482015260c401610834565b8151604083015160ff1660005b83811015610d7a576000868281518110610cdc57610cdc614dee565b60200260200101519050610cff81600090815261012d6020526040902054151590565b80610d18575060008181526101c5602052604090205415155b15610d52576040517f4acb9c2900000000000000000000000000000000000000000000000000000000815260048101829052602401610834565b60009081526101c560205260409020838155600101829055610d7381614e4c565b9050610cc0565b50600085600081518110610d9057610d90614dee565b60200260200101519050604051806080016040528086602001518152602001610db883611fd8565b73ffffffffffffffffffffffffffffffffffffffff168152602001610ddc83611fe7565b60ff168152602001610ded83612000565b60ff16905260008481526101c66020908152604080832084518155848301516001820180547fffffffffffffffffffffffff00000000000000000000000000000000000000001673ffffffffffffffffffffffffffffffffffffffff90921691909117905584820151600282015560609094015160039094019390935582519081019092528152610e8390899088908a90612018565b610e8f883360016122a1565b846060015115610ed857610ed8886101c460009054906101000a900473ffffffffffffffffffffffffffffffffffffffff16888a60405180602001604052806000815250610a6a565b5050505050505050565b6000610eee83836122b7565b9392505050565b60608151835114610f88576040517f08c379a000000000000000000000000000000000000000000000000000000000815260206004820152602960248201527f455243313135353a206163636f756e747320616e6420696473206c656e67746860448201527f206d69736d6174636800000000000000000000000000000000000000000000006064820152608401610834565b6000835167ffffffffffffffff811115610fa457610fa4614482565b604051908082528060200260200182016040528015610fcd578160200160208202803683370190505b50905060005b845181101561091b5761100b858281518110610ff157610ff1614dee565b60200260200101518583815181106108e1576108e1614dee565b82828151811061101d5761101d614dee565b602090810291909101015261103181614e4c565b9050610fd3565b73ffffffffffffffffffffffffffffffffffffffff83163314806110615750611061833361071f565b6110ed576040517f08c379a000000000000000000000000000000000000000000000000000000000815260206004820152602f60248201527f455243313135353a2063616c6c6572206973206e6f7420746f6b656e206f776e60448201527f6572206e6f7220617070726f76656400000000000000000000000000000000006064820152608401610834565b610b598383836126a0565b73ffffffffffffffffffffffffffffffffffffffff811660009081526101c76020526040812061086f906129dc565b600054610100900460ff16158080156111475750600054600160ff909116105b806111615750303b158015611161575060005460ff166001145b6111ed576040517f08c379a000000000000000000000000000000000000000000000000000000000815260206004820152602e60248201527f496e697469616c697a61626c653a20636f6e747261637420697320616c72656160448201527f647920696e697469616c697a65640000000000000000000000000000000000006064820152608401610834565b600080547fffffffffffffffffffffffffffffffffffffffffffffffffffffffffffffff00166001179055801561124b57600080547fffffffffffffffffffffffffffffffffffffffffffffffffffffffffffff00ff166101001790555b6112536129e6565b6112746040518060600160405280602681526020016155ce60269139612a7f565b61127c612b1f565b6112846129e6565b61128c6129e6565b6112946129e6565b61129c6129e6565b6112a7600033611f92565b6112d17f65d7a28e3265b37a6474929f336521b332c1681b933f6cb9f3376673440d862a33611f92565b6112fb7f9f2df0fed2c77648de5860a4cc508cd0818c85b8b8a1ab4ceeef8d981c8956a633611f92565b6113257f88f3509f0e42391f2d94ebfb2a37cbd0782b1b8f73715330017f4663290b811733611f92565b801561138857600080547fffffffffffffffffffffffffffffffffffffffffffffffffffffffffffff00ff169055604051600181527f7f26b83ff96e1f2b6a682f133852f6798a09c465da95921460cefb38474024989060200160405180910390a15b50565b73ffffffffffffffffffffffffffffffffffffffff811660009081526101c76020526040902060609061086f90612be0565b73ffffffffffffffffffffffffffffffffffffffff811660009081526101c760205260408120816113ed826129dc565b905060008167ffffffffffffffff81111561140a5761140a614482565b604051908082528060200260200182016040528015611433578160200160208202803683370190505b50905060005b82811015611489578582828151811061145457611454614dee565b73ffffffffffffffffffffffffffffffffffffffff9092166020928302919091019091015261148281614e4c565b9050611439565b5060006114998261045a86612be0565b90506000805b848110156114de578281815181106114b9576114b9614dee565b6020026020010151826114cc9190614ed7565b91506114d781614e4c565b905061149f565b509695505050505050565b600080825167ffffffffffffffff81111561150657611506614482565b60405190808252806020026020018201604052801561152f578160200160208202803683370190505b50905060005b8351811015611586578482828151811061155157611551614dee565b73ffffffffffffffffffffffffffffffffffffffff9092166020928302919091019091015261157f81614e4c565b9050611535565b5060006115938285610ef5565b90506000805b82518110156115d9578281815181106115b4576115b4614dee565b6020026020010151826115c79190614ed7565b91506115d281614e4c565b9050611599565b5095945050505050565b600082815261019160205260408120610eee9083612bed565b611604612bf9565b600061160f81611f88565b506101c3805473ffffffffffffffffffffffffffffffffffffffff9384167fffffffffffffffffffffffff0000000000000000000000000000000000000000918216179091556101c48054929093169116179055565b6116a6604051806080016040528060008152602001600073ffffffffffffffffffffffffffffffffffffffff16815260200160008152602001600081525090565b5060009081526101c66020908152604091829020825160808101845281548152600182015473ffffffffffffffffffffffffffffffffffffffff1692810192909252600281015492820192909252600390910154606082015290565b610c0d3383836122a1565b805160609060008167ffffffffffffffff81111561172d5761172d614482565b604051908082528060200260200182016040528015611756578160200160208202803683370190505b50905060005b8281101561091b57600085828151811061177857611778614dee565b602002602001015190506101c56000828152602001908152602001600020600101548383815181106117ac576117ac614dee565b6020908102919091010152506117c181614e4c565b905061175c565b805160609060008167ffffffffffffffff8111156117e8576117e8614482565b604051908082528060200260200182016040528015611811578160200160208202803683370190505b50905060005b8281101561091b573073ffffffffffffffffffffffffffffffffffffffff1663854560a486838151811061184d5761184d614dee565b60200260200101516040518263ffffffff1660e01b815260040161188d919073ffffffffffffffffffffffffffffffffffffffff91909116815260200190565b602060405180830381865afa1580156118aa573d6000803e3d6000fd5b505050506040513d601f19601f820116820180604052508101906118ce9190614eef565b8282815181106118e0576118e0614dee565b60209081029190910101526118f481614e4c565b9050611817565b60008181526101916020526040812061086f906129dc565b600082815261015f602052604090206001015461192f81611f88565b610b598383611fb5565b6040805161010081018252600080825260208201819052918101829052606081018290526080810182905260a0810182905260c0810182905260e081019190915261086f82612c66565b73ffffffffffffffffffffffffffffffffffffffff85163314806119ac57506119ac853361071f565b611a38576040517f08c379a000000000000000000000000000000000000000000000000000000000815260206004820152602f60248201527f455243313135353a2063616c6c6572206973206e6f7420746f6b656e206f776e60448201527f6572206e6f7220617070726f76656400000000000000000000000000000000006064820152608401610834565b610b2c8585858585612d93565b7f88f3509f0e42391f2d94ebfb2a37cbd0782b1b8f73715330017f4663290b8117611a6f81611f88565b611a7a848484611b27565b6101c45473ffffffffffffffffffffffffffffffffffffffff90811690851603611b21576040517f366a4120000000000000000000000000000000000000000000000000000000008152600481018490526024810183905273ffffffffffffffffffffffffffffffffffffffff85169063366a412090604401600060405180830381600087803b158015611b0d57600080fd5b505af1158015610ed8573d6000803e3d6000fd5b50505050565b73ffffffffffffffffffffffffffffffffffffffff8316331480611b505750611b50833361071f565b611bdc576040517f08c379a000000000000000000000000000000000000000000000000000000000815260206004820152602f60248201527f455243313135353a2063616c6c6572206973206e6f7420746f6b656e206f776e60448201527f6572206e6f7220617070726f76656400000000000000000000000000000000006064820152608401610834565b610b59838383612fe3565b60007fffffffff0000000000000000000000000000000000000000000000000000000082167f5a05180f00000000000000000000000000000000000000000000000000000000148061086f575061086f8261320a565b8151835114611cce576040517f08c379a000000000000000000000000000000000000000000000000000000000815260206004820152602860248201527f455243313135353a2069647320616e6420616d6f756e7473206c656e6774682060448201527f6d69736d617463680000000000000000000000000000000000000000000000006064820152608401610834565b73ffffffffffffffffffffffffffffffffffffffff8416611d71576040517f08c379a000000000000000000000000000000000000000000000000000000000815260206004820152602560248201527f455243313135353a207472616e7366657220746f20746865207a65726f20616460448201527f64726573730000000000000000000000000000000000000000000000000000006064820152608401610834565b33611d80818787878787613260565b60005b8451811015611ef3576000858281518110611da057611da0614dee565b602002602001015190506000858381518110611dbe57611dbe614dee565b602090810291909101810151600084815260658352604080822073ffffffffffffffffffffffffffffffffffffffff8e168352909352919091205490915081811015611e8c576040517f08c379a000000000000000000000000000000000000000000000000000000000815260206004820152602a60248201527f455243313135353a20696e73756666696369656e742062616c616e636520666f60448201527f72207472616e73666572000000000000000000000000000000000000000000006064820152608401610834565b600083815260656020908152604080832073ffffffffffffffffffffffffffffffffffffffff8e8116855292528083208585039055908b16825281208054849290611ed8908490614ed7565b9250508190555050505080611eec90614e4c565b9050611d83565b508473ffffffffffffffffffffffffffffffffffffffff168673ffffffffffffffffffffffffffffffffffffffff168273ffffffffffffffffffffffffffffffffffffffff167f4a39dc06d4c0dbc64b70af90fd698a233a518aa5d07e595d983b8c0526c8f7fb8787604051611f6a929190614f08565b60405180910390a4611f80818787878787613367565b505050505050565b61138881336135f1565b611f9c82826136c4565b600082815261019160205260409020610b5990826137ba565b611fbf82826137dc565b600082815261019160205260409020610b599082613899565b600061086f82601460046138bb565b60006004611ff8836001601e6138bb565b901c92915050565b600061200f826001601e6138bb565b600f1692915050565b73ffffffffffffffffffffffffffffffffffffffff84166120bb576040517f08c379a000000000000000000000000000000000000000000000000000000000815260206004820152602160248201527f455243313135353a206d696e7420746f20746865207a65726f2061646472657360448201527f73000000000000000000000000000000000000000000000000000000000000006064820152608401610834565b815183511461214c576040517f08c379a000000000000000000000000000000000000000000000000000000000815260206004820152602860248201527f455243313135353a2069647320616e6420616d6f756e7473206c656e6774682060448201527f6d69736d617463680000000000000000000000000000000000000000000000006064820152608401610834565b3361215c81600087878787613260565b60005b84518110156122125783818151811061217a5761217a614dee565b60200260200101516065600087848151811061219857612198614dee565b6020026020010151815260200190815260200160002060008873ffffffffffffffffffffffffffffffffffffffff1673ffffffffffffffffffffffffffffffffffffffff16815260200190815260200160002060008282546121fa9190614ed7565b9091555081905061220a81614e4c565b91505061215f565b508473ffffffffffffffffffffffffffffffffffffffff16600073ffffffffffffffffffffffffffffffffffffffff168273ffffffffffffffffffffffffffffffffffffffff167f4a39dc06d4c0dbc64b70af90fd698a233a518aa5d07e595d983b8c0526c8f7fb878760405161228a929190614f08565b60405180910390a4610b2c81600087878787613367565b60006122ac81611f88565b611b21848484613907565b6000806122c683850185614f36565b60ff1690508015612358576040517f08c379a0000000000000000000000000000000000000000000000000000000008152602060048201526024808201527f556e737570706f727465642072656d6f76616c20746f6b656e2069642076657260448201527f73696f6e000000000000000000000000000000000000000000000000000000006064820152608401610834565b61010083146123e9576040517f08c379a000000000000000000000000000000000000000000000000000000000815260206004820152602a60248201527f72656d6f76616c4461746120636f6e7461696e732077726f6e67206e756d626560448201527f72206f66206279746573000000000000000000000000000000000000000000006064820152608401610834565b60006123f784860186614fa7565b9050600f816020015160ff16111561246b576040517f08c379a000000000000000000000000000000000000000000000000000000000815260206004820152601560248201527f4d6574686f6c6f646f677920746f6f206c6172676500000000000000000000006044820152606401610834565b600f816040015160ff1611156124dd576040517f08c379a000000000000000000000000000000000000000000000000000000000815260206004820152601d60248201527f4d6574686f6c6f646f67792076657273696f6e20746f6f206c617267650000006044820152606401610834565b608081015160a082015160f882811c9260ff60f091821c8116939283901c9290911c16604184108015906125125750605a8411155b801561251f575060418310155b801561252c5750605a8311155b8015612539575060418210155b80156125465750605a8211155b8015612553575060418110155b80156125605750605a8111155b6125c6576040517f08c379a000000000000000000000000000000000000000000000000000000000815260206004820152600d60248201527f496e76616c6964204153434949000000000000000000000000000000000000006044820152606401610834565b600085604001516004876020015160ff16901b1760ff169050600860006125ed919061506c565b60e087015163ffffffff16901b6126066008600461506c565b60c088015173ffffffffffffffffffffffffffffffffffffffff16901b61262f6008601861506c565b60a089015160f01c901b6126456008601a61506c565b60808a015160f01c901b61265b6008601c61506c565b60608b015161ffff16901b6126726008601e61506c565b86901b6126816008601f61506c565b8c6000015160ff16901b17171717171797505050505050505092915050565b73ffffffffffffffffffffffffffffffffffffffff8316612743576040517f08c379a000000000000000000000000000000000000000000000000000000000815260206004820152602360248201527f455243313135353a206275726e2066726f6d20746865207a65726f206164647260448201527f65737300000000000000000000000000000000000000000000000000000000006064820152608401610834565b80518251146127d4576040517f08c379a000000000000000000000000000000000000000000000000000000000815260206004820152602860248201527f455243313135353a2069647320616e6420616d6f756e7473206c656e6774682060448201527f6d69736d617463680000000000000000000000000000000000000000000000006064820152608401610834565b60003390506127f781856000868660405180602001604052806000815250613260565b60005b835181101561294857600084828151811061281757612817614dee565b60200260200101519050600084838151811061283557612835614dee565b602090810291909101810151600084815260658352604080822073ffffffffffffffffffffffffffffffffffffffff8c168352909352919091205490915081811015612902576040517f08c379a0000000000000000000000000000000000000000000000000000000008152602060048201526024808201527f455243313135353a206275726e20616d6f756e7420657863656564732062616c60448201527f616e6365000000000000000000000000000000000000000000000000000000006064820152608401610834565b600092835260656020908152604080852073ffffffffffffffffffffffffffffffffffffffff8b168652909152909220910390558061294081614e4c565b9150506127fa565b50600073ffffffffffffffffffffffffffffffffffffffff168473ffffffffffffffffffffffffffffffffffffffff168273ffffffffffffffffffffffffffffffffffffffff167f4a39dc06d4c0dbc64b70af90fd698a233a518aa5d07e595d983b8c0526c8f7fb86866040516129c0929190614f08565b60405180910390a4604080516020810190915260009052611b21565b600061086f825490565b600054610100900460ff16612a7d576040517f08c379a000000000000000000000000000000000000000000000000000000000815260206004820152602b60248201527f496e697469616c697a61626c653a20636f6e7472616374206973206e6f74206960448201527f6e697469616c697a696e670000000000000000000000000000000000000000006064820152608401610834565b565b600054610100900460ff16612b16576040517f08c379a000000000000000000000000000000000000000000000000000000000815260206004820152602b60248201527f496e697469616c697a61626c653a20636f6e7472616374206973206e6f74206960448201527f6e697469616c697a696e670000000000000000000000000000000000000000006064820152608401610834565b61138881613a5a565b600054610100900460ff16612bb6576040517f08c379a000000000000000000000000000000000000000000000000000000000815260206004820152602b60248201527f496e697469616c697a61626c653a20636f6e7472616374206973206e6f74206960448201527f6e697469616c697a696e670000000000000000000000000000000000000000006064820152608401610834565b609780547fffffffffffffffffffffffffffffffffffffffffffffffffffffffffffffff00169055565b60606000610eee83613a66565b6000610eee8383613ac1565b60975460ff1615612a7d576040517f08c379a000000000000000000000000000000000000000000000000000000000815260206004820152601060248201527f5061757361626c653a20706175736564000000000000000000000000000000006044820152606401610834565b6040805161010081018252600080825260208201819052918101829052606081018290526080810182905260a0810182905260c0810182905260e0810191909152604051806101000160405280612cbc84613aeb565b60ff168152602001612ccd84611fe7565b60ff168152602001612cde84612000565b60ff168152602001612cef84613afa565b61ffff168152602001612d0184613b09565b7fffff000000000000000000000000000000000000000000000000000000000000168152602001612d3184613b21565b7fffff000000000000000000000000000000000000000000000000000000000000168152602001612d6184611fd8565b73ffffffffffffffffffffffffffffffffffffffff168152602001612d8584613b30565b63ffffffff16905292915050565b73ffffffffffffffffffffffffffffffffffffffff8416612e36576040517f08c379a000000000000000000000000000000000000000000000000000000000815260206004820152602560248201527f455243313135353a207472616e7366657220746f20746865207a65726f20616460448201527f64726573730000000000000000000000000000000000000000000000000000006064820152608401610834565b336000612e4285613b3f565b90506000612e4f85613b3f565b9050612e5f838989858589613260565b600086815260656020908152604080832073ffffffffffffffffffffffffffffffffffffffff8c16845290915290205485811015612f1f576040517f08c379a000000000000000000000000000000000000000000000000000000000815260206004820152602a60248201527f455243313135353a20696e73756666696369656e742062616c616e636520666f60448201527f72207472616e73666572000000000000000000000000000000000000000000006064820152608401610834565b600087815260656020908152604080832073ffffffffffffffffffffffffffffffffffffffff8d8116855292528083208985039055908a16825281208054889290612f6b908490614ed7565b9091555050604080518881526020810188905273ffffffffffffffffffffffffffffffffffffffff808b16928c821692918816917fc3d58168c5ae7397731d063d5bbf3d657854427343f4c083240f7aacaa2d0f62910160405180910390a4612fd8848a8a8a8a8a613b8a565b505050505050505050565b73ffffffffffffffffffffffffffffffffffffffff8316613086576040517f08c379a000000000000000000000000000000000000000000000000000000000815260206004820152602360248201527f455243313135353a206275726e2066726f6d20746865207a65726f206164647260448201527f65737300000000000000000000000000000000000000000000000000000000006064820152608401610834565b33600061309284613b3f565b9050600061309f84613b3f565b90506130bf83876000858560405180602001604052806000815250613260565b600085815260656020908152604080832073ffffffffffffffffffffffffffffffffffffffff8a1684529091529020548481101561317e576040517f08c379a0000000000000000000000000000000000000000000000000000000008152602060048201526024808201527f455243313135353a206275726e20616d6f756e7420657863656564732062616c60448201527f616e6365000000000000000000000000000000000000000000000000000000006064820152608401610834565b600086815260656020908152604080832073ffffffffffffffffffffffffffffffffffffffff8b81168086529184528285208a8703905582518b81529384018a90529092908816917fc3d58168c5ae7397731d063d5bbf3d657854427343f4c083240f7aacaa2d0f62910160405180910390a46040805160208101909152600090525b50505050505050565b60007fffffffff0000000000000000000000000000000000000000000000000000000082167f7965db0b00000000000000000000000000000000000000000000000000000000148061086f575061086f82613d37565b613268612bf9565b815160005b8181101561335857600085828151811061328957613289614dee565b60200260200101519050600073ffffffffffffffffffffffffffffffffffffffff168873ffffffffffffffffffffffffffffffffffffffff16146132f95773ffffffffffffffffffffffffffffffffffffffff881660009081526101c7602052604090206132f79082613e1a565b505b73ffffffffffffffffffffffffffffffffffffffff8716156133475773ffffffffffffffffffffffffffffffffffffffff871660009081526101c7602052604090206133459082613e26565b505b5061335181614e4c565b905061326d565b50613201878787878787613e32565b73ffffffffffffffffffffffffffffffffffffffff84163b15611f80576040517fbc197c8100000000000000000000000000000000000000000000000000000000815273ffffffffffffffffffffffffffffffffffffffff85169063bc197c81906133de90899089908890889088906004016150a9565b6020604051808303816000875af1925050508015613437575060408051601f3d9081017fffffffffffffffffffffffffffffffffffffffffffffffffffffffffffffffe016820190925261343491810190615114565b60015b61352057613443615131565b806308c379a003613496575061345761514d565b806134625750613498565b806040517f08c379a00000000000000000000000000000000000000000000000000000000081526004016108349190614724565b505b6040517f08c379a000000000000000000000000000000000000000000000000000000000815260206004820152603460248201527f455243313135353a207472616e7366657220746f206e6f6e204552433131353560448201527f526563656976657220696d706c656d656e7465720000000000000000000000006064820152608401610834565b7fffffffff0000000000000000000000000000000000000000000000000000000081167fbc197c810000000000000000000000000000000000000000000000000000000014613201576040517f08c379a000000000000000000000000000000000000000000000000000000000815260206004820152602860248201527f455243313135353a204552433131353552656365697665722072656a6563746560448201527f6420746f6b656e730000000000000000000000000000000000000000000000006064820152608401610834565b600082815261015f6020908152604080832073ffffffffffffffffffffffffffffffffffffffff8516845290915290205460ff16610c0d5761364a8173ffffffffffffffffffffffffffffffffffffffff166014614005565b613655836020614005565b6040516020016136669291906151f5565b604080517fffffffffffffffffffffffffffffffffffffffffffffffffffffffffffffffe0818403018152908290527f08c379a000000000000000000000000000000000000000000000000000000000825261083491600401614724565b600082815261015f6020908152604080832073ffffffffffffffffffffffffffffffffffffffff8516845290915290205460ff16610c0d57600082815261015f6020908152604080832073ffffffffffffffffffffffffffffffffffffffff85168452909152902080547fffffffffffffffffffffffffffffffffffffffffffffffffffffffffffffff0016600117905561375c3390565b73ffffffffffffffffffffffffffffffffffffffff168173ffffffffffffffffffffffffffffffffffffffff16837f2f8788117e7eff1d82e926ec794901d17c78024a50270940304540a733656f0d60405160405180910390a45050565b6000610eee8373ffffffffffffffffffffffffffffffffffffffff8416614248565b600082815261015f6020908152604080832073ffffffffffffffffffffffffffffffffffffffff8516845290915290205460ff1615610c0d57600082815261015f6020908152604080832073ffffffffffffffffffffffffffffffffffffffff8516808552925280832080547fffffffffffffffffffffffffffffffffffffffffffffffffffffffffffffff0016905551339285917ff6391f5c32d9c69d2a47ea670b442974b53935d1edc7fd64eb21e047a839171b9190a45050565b6000610eee8373ffffffffffffffffffffffffffffffffffffffff8416614297565b6000806138c960088461506c565b60016138d660088761506c565b6138e1906002615396565b6138eb91906153a2565b901b90508481166138fd60088561506c565b1c95945050505050565b8173ffffffffffffffffffffffffffffffffffffffff168373ffffffffffffffffffffffffffffffffffffffff16036139c2576040517f08c379a000000000000000000000000000000000000000000000000000000000815260206004820152602960248201527f455243313135353a2073657474696e6720617070726f76616c2073746174757360448201527f20666f722073656c6600000000000000000000000000000000000000000000006064820152608401610834565b73ffffffffffffffffffffffffffffffffffffffff83811660008181526066602090815260408083209487168084529482529182902080547fffffffffffffffffffffffffffffffffffffffffffffffffffffffffffffff001686151590811790915591519182527f17307eab39ab6107e8899845ad3d59bd9653f200f220920489ca2b5937696c31910160405180910390a3505050565b6067610c0d82826153ff565b6060816000018054806020026020016040519081016040528092919081815260200182805480156109b657602002820191906000526020600020905b815481526020019060010190808311613aa25750505050509050919050565b6000826000018281548110613ad857613ad8614dee565b9060005260206000200154905092915050565b600061086f826001601f6138bb565b600061086f826002601c6138bb565b6000613b18826002601a6138bb565b60f01b92915050565b6000613b1882600260186138bb565b600061086f82600460006138bb565b60408051600180825281830190925260609160009190602080830190803683370190505090508281600081518110613b7957613b79614dee565b602090810291909101015292915050565b73ffffffffffffffffffffffffffffffffffffffff84163b15611f80576040517ff23a6e6100000000000000000000000000000000000000000000000000000000815273ffffffffffffffffffffffffffffffffffffffff85169063f23a6e6190613c019089908990889088908890600401615519565b6020604051808303816000875af1925050508015613c5a575060408051601f3d9081017fffffffffffffffffffffffffffffffffffffffffffffffffffffffffffffffe0168201909252613c5791810190615114565b60015b613c6657613443615131565b7fffffffff0000000000000000000000000000000000000000000000000000000081167ff23a6e610000000000000000000000000000000000000000000000000000000014613201576040517f08c379a000000000000000000000000000000000000000000000000000000000815260206004820152602860248201527f455243313135353a204552433131353552656365697665722072656a6563746560448201527f6420746f6b656e730000000000000000000000000000000000000000000000006064820152608401610834565b60007fffffffff0000000000000000000000000000000000000000000000000000000082167fd9b67a26000000000000000000000000000000000000000000000000000000001480613dca57507fffffffff0000000000000000000000000000000000000000000000000000000082167f0e89341c00000000000000000000000000000000000000000000000000000000145b8061086f57507f01ffc9a7000000000000000000000000000000000000000000000000000000007fffffffff0000000000000000000000000000000000000000000000000000000083161461086f565b6000610eee8383614297565b6000610eee8383614248565b613e40868686868686614391565b73ffffffffffffffffffffffffffffffffffffffff8516613ed55760005b8351811015613ed357828181518110613e7957613e79614dee565b602002602001015161012d6000868481518110613e9857613e98614dee565b602002602001015181526020019081526020016000206000828254613ebd9190614ed7565b90915550613ecc905081614e4c565b9050613e5e565b505b73ffffffffffffffffffffffffffffffffffffffff8416611f805760005b8351811015613201576000848281518110613f1057613f10614dee565b602002602001015190506000848381518110613f2e57613f2e614dee565b60200260200101519050600061012d600084815260200190815260200160002054905081811015613fe1576040517f08c379a000000000000000000000000000000000000000000000000000000000815260206004820152602860248201527f455243313135353a206275726e20616d6f756e74206578636565647320746f7460448201527f616c537570706c790000000000000000000000000000000000000000000000006064820152608401610834565b600092835261012d602052604090922091039055613ffe81614e4c565b9050613ef3565b6060600061401483600261506c565b61401f906002614ed7565b67ffffffffffffffff81111561403757614037614482565b6040519080825280601f01601f191660200182016040528015614061576020820181803683370190505b5090507f30000000000000000000000000000000000000000000000000000000000000008160008151811061409857614098614dee565b60200101907effffffffffffffffffffffffffffffffffffffffffffffffffffffffffffff1916908160001a9053507f7800000000000000000000000000000000000000000000000000000000000000816001815181106140fb576140fb614dee565b60200101907effffffffffffffffffffffffffffffffffffffffffffffffffffffffffffff1916908160001a905350600061413784600261506c565b614142906001614ed7565b90505b60018111156141df577f303132333435363738396162636465660000000000000000000000000000000085600f166010811061418357614183614dee565b1a60f81b82828151811061419957614199614dee565b60200101907effffffffffffffffffffffffffffffffffffffffffffffffffffffffffffff1916908160001a90535060049490941c936141d881615569565b9050614145565b508315610eee576040517f08c379a000000000000000000000000000000000000000000000000000000000815260206004820181905260248201527f537472696e67733a20686578206c656e67746820696e73756666696369656e746044820152606401610834565b600081815260018301602052604081205461428f5750815460018181018455600084815260208082209093018490558454848252828601909352604090209190915561086f565b50600061086f565b600081815260018301602052604081205480156143805760006142bb6001836153a2565b85549091506000906142cf906001906153a2565b90508181146143345760008660000182815481106142ef576142ef614dee565b906000526020600020015490508087600001848154811061431257614312614dee565b6000918252602080832090910192909255918252600188019052604090208390555b85548690806143455761434561559e565b60019003818190600052602060002001600090559055856001016000868152602001908152602001600020600090556001935050505061086f565b600091505061086f565b5092915050565b60975460ff1615611f80576040517f08c379a000000000000000000000000000000000000000000000000000000000815260206004820152602c60248201527f455243313135355061757361626c653a20746f6b656e207472616e736665722060448201527f7768696c652070617573656400000000000000000000000000000000000000006064820152608401610834565b73ffffffffffffffffffffffffffffffffffffffff8116811461138857600080fd5b803561445181614424565b919050565b6000806040838503121561446957600080fd5b823561447481614424565b946020939093013593505050565b7f4e487b7100000000000000000000000000000000000000000000000000000000600052604160045260246000fd5b6080810181811067ffffffffffffffff821117156144d1576144d1614482565b60405250565b7fffffffffffffffffffffffffffffffffffffffffffffffffffffffffffffffe0601f830116810181811067ffffffffffffffff8211171561451b5761451b614482565b6040525050565b600067ffffffffffffffff82111561453c5761453c614482565b5060051b60200190565b600082601f83011261455757600080fd5b8135602061456482614522565b60405161457182826144d7565b83815260059390931b850182019282810191508684111561459157600080fd5b8286015b848110156114de5780358352918301918301614595565b600080604083850312156145bf57600080fd5b82356145ca81614424565b9150602083013567ffffffffffffffff8111156145e657600080fd5b6145f285828601614546565b9150509250929050565b600081518084526020808501945080840160005b8381101561462c57815187529582019590820190600101614610565b509495945050505050565b602081526000610eee60208301846145fc565b7fffffffff000000000000000000000000000000000000000000000000000000008116811461138857600080fd5b60006020828403121561468a57600080fd5b8135610eee8161464a565b6000602082840312156146a757600080fd5b5035919050565b60005b838110156146c95781810151838201526020016146b1565b83811115611b215750506000910152565b600081518084526146f28160208601602086016146ae565b601f017fffffffffffffffffffffffffffffffffffffffffffffffffffffffffffffffe0169290920160200192915050565b602081526000610eee60208301846146da565b600082601f83011261474857600080fd5b813567ffffffffffffffff81111561476257614762614482565b60405161479760207fffffffffffffffffffffffffffffffffffffffffffffffffffffffffffffffe0601f85011601826144d7565b8181528460208386010111156147ac57600080fd5b816020850160208301376000918101602001919091529392505050565b600080600080600060a086880312156147e157600080fd5b85356147ec81614424565b945060208601356147fc81614424565b9350604086013567ffffffffffffffff8082111561481957600080fd5b61482589838a01614546565b9450606088013591508082111561483b57600080fd5b61484789838a01614546565b9350608088013591508082111561485d57600080fd5b5061486a88828901614737565b9150509295509295909350565b6000806040838503121561488a57600080fd5b82359150602083013561489c81614424565b809150509250929050565b803560ff8116811461445157600080fd5b8035801515811461445157600080fd5b60008060008084860360e08112156148df57600080fd5b85356148ea81614424565b9450602086013567ffffffffffffffff8082111561490757600080fd5b61491389838a01614546565b9550604088013591508082111561492957600080fd5b5061493688828901614546565b93505060807fffffffffffffffffffffffffffffffffffffffffffffffffffffffffffffffa08201121561496957600080fd5b50604051614976816144b1565b606086013581526080860135602082015261499360a087016148a7565b60408201526149a460c087016148b8565b6060820152939692955090935050565b600080602083850312156149c757600080fd5b823567ffffffffffffffff808211156149df57600080fd5b818501915085601f8301126149f357600080fd5b813581811115614a0257600080fd5b866020828501011115614a1457600080fd5b60209290920196919550909350505050565b600082601f830112614a3757600080fd5b81356020614a4482614522565b604051614a5182826144d7565b83815260059390931b8501820192828101915086841115614a7157600080fd5b8286015b848110156114de578035614a8881614424565b8352918301918301614a75565b60008060408385031215614aa857600080fd5b823567ffffffffffffffff80821115614ac057600080fd5b614acc86838701614a26565b93506020850135915080821115614ae257600080fd5b506145f285828601614546565b600080600060608486031215614b0457600080fd5b8335614b0f81614424565b9250602084013567ffffffffffffffff80821115614b2c57600080fd5b614b3887838801614546565b93506040860135915080821115614b4e57600080fd5b50614b5b86828701614546565b9150509250925092565b600060208284031215614b7757600080fd5b8135610eee81614424565b60008060408385031215614b9557600080fd5b50508035926020909101359150565b60008060408385031215614bb757600080fd5b8235614bc281614424565b9150602083013561489c81614424565b60008060408385031215614be557600080fd5b8235614bf081614424565b9150614bfe602084016148b8565b90509250929050565b600060208284031215614c1957600080fd5b813567ffffffffffffffff811115614c3057600080fd5b614c3c84828501614546565b949350505050565b600060208284031215614c5657600080fd5b813567ffffffffffffffff811115614c6d57600080fd5b614c3c84828501614a26565b60006101008201905060ff835116825260ff602084015116602083015260ff604084015116604083015261ffff60608401511660608301527fffff000000000000000000000000000000000000000000000000000000000000608084015116608083015260a0830151614d1060a08401827fffff000000000000000000000000000000000000000000000000000000000000169052565b5060c0830151614d3860c084018273ffffffffffffffffffffffffffffffffffffffff169052565b5060e083015161438a60e084018263ffffffff169052565b600080600080600060a08688031215614d6857600080fd5b8535614d7381614424565b94506020860135614d8381614424565b93506040860135925060608601359150608086013567ffffffffffffffff811115614dad57600080fd5b61486a88828901614737565b600080600060608486031215614dce57600080fd5b8335614dd981614424565b95602085013595506040909401359392505050565b7f4e487b7100000000000000000000000000000000000000000000000000000000600052603260045260246000fd5b7f4e487b7100000000000000000000000000000000000000000000000000000000600052601160045260246000fd5b60007fffffffffffffffffffffffffffffffffffffffffffffffffffffffffffffffff8203614e7d57614e7d614e1d565b5060010190565b600181811c90821680614e9857607f821691505b602082108103614ed1577f4e487b7100000000000000000000000000000000000000000000000000000000600052602260045260246000fd5b50919050565b60008219821115614eea57614eea614e1d565b500190565b600060208284031215614f0157600080fd5b5051919050565b604081526000614f1b60408301856145fc565b8281036020840152614f2d81856145fc565b95945050505050565b600060208284031215614f4857600080fd5b610eee826148a7565b803561ffff8116811461445157600080fd5b80357fffff0000000000000000000000000000000000000000000000000000000000008116811461445157600080fd5b803563ffffffff8116811461445157600080fd5b6000610100808385031215614fbb57600080fd5b6040519081019067ffffffffffffffff82118183101715614fde57614fde614482565b81604052614feb846148a7565b8152614ff9602085016148a7565b602082015261500a604085016148a7565b604082015261501b60608501614f51565b606082015261502c60808501614f63565b608082015261503d60a08501614f63565b60a082015261504e60c08501614446565b60c082015261505f60e08501614f93565b60e0820152949350505050565b6000817fffffffffffffffffffffffffffffffffffffffffffffffffffffffffffffffff04831182151516156150a4576150a4614e1d565b500290565b600073ffffffffffffffffffffffffffffffffffffffff808816835280871660208401525060a060408301526150e260a08301866145fc565b82810360608401526150f481866145fc565b9050828103608084015261510881856146da565b98975050505050505050565b60006020828403121561512657600080fd5b8151610eee8161464a565b600060033d111561514a5760046000803e5060005160e01c5b90565b600060443d101561515b5790565b6040517ffffffffffffffffffffffffffffffffffffffffffffffffffffffffffffffffc803d016004833e81513d67ffffffffffffffff81602484011181841117156151a957505050505090565b82850191508151818111156151c15750505050505090565b843d87010160208285010111156151db5750505050505090565b6151ea602082860101876144d7565b509095945050505050565b7f416363657373436f6e74726f6c3a206163636f756e742000000000000000000081526000835161522d8160178501602088016146ae565b7f206973206d697373696e6720726f6c6520000000000000000000000000000000601791840191820152835161526a8160288401602088016146ae565b01602801949350505050565b600181815b808511156152cf57817fffffffffffffffffffffffffffffffffffffffffffffffffffffffffffffffff048211156152b5576152b5614e1d565b808516156152c257918102915b93841c939080029061527b565b509250929050565b6000826152e65750600161086f565b816152f35750600061086f565b816001811461530957600281146153135761532f565b600191505061086f565b60ff84111561532457615324614e1d565b50506001821b61086f565b5060208310610133831016604e8410600b8410161715615352575081810a61086f565b61535c8383615276565b807fffffffffffffffffffffffffffffffffffffffffffffffffffffffffffffffff0482111561538e5761538e614e1d565b029392505050565b6000610eee83836152d7565b6000828210156153b4576153b4614e1d565b500390565b601f821115610b5957600081815260208120601f850160051c810160208610156153e05750805b601f850160051c820191505b81811015611f80578281556001016153ec565b815167ffffffffffffffff81111561541957615419614482565b61542d816154278454614e84565b846153b9565b602080601f831160018114615480576000841561544a5750858301515b7fffffffffffffffffffffffffffffffffffffffffffffffffffffffffffffffff600386901b1c1916600185901b178555611f80565b6000858152602081207fffffffffffffffffffffffffffffffffffffffffffffffffffffffffffffffe08616915b828110156154cd578886015182559484019460019091019084016154ae565b508582101561550957878501517fffffffffffffffffffffffffffffffffffffffffffffffffffffffffffffffff600388901b60f8161c191681555b5050505050600190811b01905550565b600073ffffffffffffffffffffffffffffffffffffffff808816835280871660208401525084604083015283606083015260a0608083015261555e60a08301846146da565b979650505050505050565b60008161557857615578614e1d565b507fffffffffffffffffffffffffffffffffffffffffffffffffffffffffffffffff0190565b7f4e487b7100000000000000000000000000000000000000000000000000000000600052603160045260246000fdfe68747470733a2f2f6e6f72692e636f6d2f6170692f72656d6f76616c2f7b69647d2e6a736f6ea264697066735822122046bc9e52dd3cbcd85b8fcd14698c7b1e5ae75b4f8757770f88d551b884cc473664736f6c634300080f0033",
  "linkReferences": {},
  "deployedLinkReferences": {}
}