{
  "_format": "hh-sol-artifact-1",
  "contractName": "Removal",
  "sourceName": "contracts/Removal.sol",
  "abi": [
    {
      "anonymous": false,
      "inputs": [
        {
          "indexed": true,
          "internalType": "address",
          "name": "account",
          "type": "address"
        },
        {
          "indexed": true,
          "internalType": "address",
          "name": "operator",
          "type": "address"
        },
        {
          "indexed": false,
          "internalType": "bool",
          "name": "approved",
          "type": "bool"
        }
      ],
      "name": "ApprovalForAll",
      "type": "event"
    },
    {
      "anonymous": false,
      "inputs": [
        {
          "indexed": false,
          "internalType": "address",
          "name": "account",
          "type": "address"
        }
      ],
      "name": "Paused",
      "type": "event"
    },
    {
      "anonymous": false,
      "inputs": [
        {
          "indexed": true,
          "internalType": "bytes32",
          "name": "role",
          "type": "bytes32"
        },
        {
          "indexed": true,
          "internalType": "bytes32",
          "name": "previousAdminRole",
          "type": "bytes32"
        },
        {
          "indexed": true,
          "internalType": "bytes32",
          "name": "newAdminRole",
          "type": "bytes32"
        }
      ],
      "name": "RoleAdminChanged",
      "type": "event"
    },
    {
      "anonymous": false,
      "inputs": [
        {
          "indexed": true,
          "internalType": "bytes32",
          "name": "role",
          "type": "bytes32"
        },
        {
          "indexed": true,
          "internalType": "address",
          "name": "account",
          "type": "address"
        },
        {
          "indexed": true,
          "internalType": "address",
          "name": "sender",
          "type": "address"
        }
      ],
      "name": "RoleGranted",
      "type": "event"
    },
    {
      "anonymous": false,
      "inputs": [
        {
          "indexed": true,
          "internalType": "bytes32",
          "name": "role",
          "type": "bytes32"
        },
        {
          "indexed": true,
          "internalType": "address",
          "name": "account",
          "type": "address"
        },
        {
          "indexed": true,
          "internalType": "address",
          "name": "sender",
          "type": "address"
        }
      ],
      "name": "RoleRevoked",
      "type": "event"
    },
    {
      "anonymous": false,
      "inputs": [
        {
          "indexed": true,
          "internalType": "address",
          "name": "operator",
          "type": "address"
        },
        {
          "indexed": true,
          "internalType": "address",
          "name": "from",
          "type": "address"
        },
        {
          "indexed": true,
          "internalType": "address",
          "name": "to",
          "type": "address"
        },
        {
          "indexed": false,
          "internalType": "uint256[]",
          "name": "ids",
          "type": "uint256[]"
        },
        {
          "indexed": false,
          "internalType": "uint256[]",
          "name": "values",
          "type": "uint256[]"
        }
      ],
      "name": "TransferBatch",
      "type": "event"
    },
    {
      "anonymous": false,
      "inputs": [
        {
          "indexed": true,
          "internalType": "address",
          "name": "operator",
          "type": "address"
        },
        {
          "indexed": true,
          "internalType": "address",
          "name": "from",
          "type": "address"
        },
        {
          "indexed": true,
          "internalType": "address",
          "name": "to",
          "type": "address"
        },
        {
          "indexed": false,
          "internalType": "uint256",
          "name": "id",
          "type": "uint256"
        },
        {
          "indexed": false,
          "internalType": "uint256",
          "name": "value",
          "type": "uint256"
        }
      ],
      "name": "TransferSingle",
      "type": "event"
    },
    {
      "anonymous": false,
      "inputs": [
        {
          "indexed": false,
          "internalType": "string",
          "name": "value",
          "type": "string"
        },
        {
          "indexed": true,
          "internalType": "uint256",
          "name": "id",
          "type": "uint256"
        }
      ],
      "name": "URI",
      "type": "event"
    },
    {
      "anonymous": false,
      "inputs": [
        {
          "indexed": false,
          "internalType": "address",
          "name": "account",
          "type": "address"
        }
      ],
      "name": "Unpaused",
      "type": "event"
    },
    {
      "inputs": [],
      "name": "DEFAULT_ADMIN_ROLE",
      "outputs": [
        {
          "internalType": "bytes32",
          "name": "",
          "type": "bytes32"
        }
      ],
      "stateMutability": "view",
      "type": "function"
    },
    {
      "inputs": [],
      "name": "MINTER_ROLE",
      "outputs": [
        {
          "internalType": "bytes32",
          "name": "",
          "type": "bytes32"
        }
      ],
      "stateMutability": "view",
      "type": "function"
    },
    {
      "inputs": [],
      "name": "PAUSER_ROLE",
      "outputs": [
        {
          "internalType": "bytes32",
          "name": "",
          "type": "bytes32"
        }
      ],
      "stateMutability": "view",
      "type": "function"
    },
    {
      "inputs": [
        {
          "internalType": "address",
          "name": "account",
          "type": "address"
        },
        {
          "internalType": "uint256",
          "name": "id",
          "type": "uint256"
        }
      ],
      "name": "balanceOf",
      "outputs": [
        {
          "internalType": "uint256",
          "name": "",
          "type": "uint256"
        }
      ],
      "stateMutability": "view",
      "type": "function"
    },
    {
      "inputs": [
        {
          "internalType": "address[]",
          "name": "accounts",
          "type": "address[]"
        },
        {
          "internalType": "uint256[]",
          "name": "ids",
          "type": "uint256[]"
        }
      ],
      "name": "balanceOfBatch",
      "outputs": [
        {
          "internalType": "uint256[]",
          "name": "",
          "type": "uint256[]"
        }
      ],
      "stateMutability": "view",
      "type": "function"
    },
    {
      "inputs": [
        {
          "internalType": "address",
          "name": "account",
          "type": "address"
        },
        {
          "internalType": "uint256",
          "name": "id",
          "type": "uint256"
        },
        {
          "internalType": "uint256",
          "name": "value",
          "type": "uint256"
        }
      ],
      "name": "burn",
      "outputs": [],
      "stateMutability": "nonpayable",
      "type": "function"
    },
    {
      "inputs": [
        {
          "internalType": "address",
          "name": "account",
          "type": "address"
        },
        {
          "internalType": "uint256[]",
          "name": "ids",
          "type": "uint256[]"
        },
        {
          "internalType": "uint256[]",
          "name": "values",
          "type": "uint256[]"
        }
      ],
      "name": "burnBatch",
      "outputs": [],
      "stateMutability": "nonpayable",
      "type": "function"
    },
    {
      "inputs": [
        {
          "internalType": "uint256",
          "name": "id",
          "type": "uint256"
        }
      ],
      "name": "exists",
      "outputs": [
        {
          "internalType": "bool",
          "name": "",
          "type": "bool"
        }
      ],
      "stateMutability": "view",
      "type": "function"
    },
    {
      "inputs": [
        {
          "internalType": "bytes32",
          "name": "role",
          "type": "bytes32"
        }
      ],
      "name": "getRoleAdmin",
      "outputs": [
        {
          "internalType": "bytes32",
          "name": "",
          "type": "bytes32"
        }
      ],
      "stateMutability": "view",
      "type": "function"
    },
    {
      "inputs": [
        {
          "internalType": "bytes32",
          "name": "role",
          "type": "bytes32"
        },
        {
          "internalType": "uint256",
          "name": "index",
          "type": "uint256"
        }
      ],
      "name": "getRoleMember",
      "outputs": [
        {
          "internalType": "address",
          "name": "",
          "type": "address"
        }
      ],
      "stateMutability": "view",
      "type": "function"
    },
    {
      "inputs": [
        {
          "internalType": "bytes32",
          "name": "role",
          "type": "bytes32"
        }
      ],
      "name": "getRoleMemberCount",
      "outputs": [
        {
          "internalType": "uint256",
          "name": "",
          "type": "uint256"
        }
      ],
      "stateMutability": "view",
      "type": "function"
    },
    {
      "inputs": [
        {
          "internalType": "bytes32",
          "name": "role",
          "type": "bytes32"
        },
        {
          "internalType": "address",
          "name": "account",
          "type": "address"
        }
      ],
      "name": "grantRole",
      "outputs": [],
      "stateMutability": "nonpayable",
      "type": "function"
    },
    {
      "inputs": [
        {
          "internalType": "bytes32",
          "name": "role",
          "type": "bytes32"
        },
        {
          "internalType": "address",
          "name": "account",
          "type": "address"
        }
      ],
      "name": "hasRole",
      "outputs": [
        {
          "internalType": "bool",
          "name": "",
          "type": "bool"
        }
      ],
      "stateMutability": "view",
      "type": "function"
    },
    {
      "inputs": [],
      "name": "initialize",
      "outputs": [],
      "stateMutability": "nonpayable",
      "type": "function"
    },
    {
      "inputs": [
        {
          "internalType": "string",
          "name": "uri",
          "type": "string"
        }
      ],
      "name": "initialize",
      "outputs": [],
      "stateMutability": "nonpayable",
      "type": "function"
    },
    {
      "inputs": [
        {
          "internalType": "address",
          "name": "account",
          "type": "address"
        },
        {
          "internalType": "address",
          "name": "operator",
          "type": "address"
        }
      ],
      "name": "isApprovedForAll",
      "outputs": [
        {
          "internalType": "bool",
          "name": "",
          "type": "bool"
        }
      ],
      "stateMutability": "view",
      "type": "function"
    },
    {
      "inputs": [
        {
          "internalType": "address",
          "name": "to",
          "type": "address"
        },
        {
          "internalType": "uint256",
          "name": "id",
          "type": "uint256"
        },
        {
          "internalType": "uint256",
          "name": "amount",
          "type": "uint256"
        },
        {
          "internalType": "bytes",
          "name": "data",
          "type": "bytes"
        }
      ],
      "name": "mint",
      "outputs": [],
      "stateMutability": "nonpayable",
      "type": "function"
    },
    {
      "inputs": [
        {
          "internalType": "address",
          "name": "to",
          "type": "address"
        },
        {
          "internalType": "uint256[]",
          "name": "amounts",
          "type": "uint256[]"
        },
        {
          "internalType": "uint256[]",
          "name": "vintages",
          "type": "uint256[]"
        },
        {
          "internalType": "bytes",
          "name": "data",
          "type": "bytes"
        }
      ],
      "name": "mintBatch",
      "outputs": [],
      "stateMutability": "nonpayable",
      "type": "function"
    },
    {
      "inputs": [],
      "name": "name",
      "outputs": [
        {
          "internalType": "string",
          "name": "",
          "type": "string"
        }
      ],
      "stateMutability": "view",
      "type": "function"
    },
    {
      "inputs": [],
      "name": "pause",
      "outputs": [],
      "stateMutability": "nonpayable",
      "type": "function"
    },
    {
      "inputs": [],
      "name": "paused",
      "outputs": [
        {
          "internalType": "bool",
          "name": "",
          "type": "bool"
        }
      ],
      "stateMutability": "view",
      "type": "function"
    },
    {
      "inputs": [
        {
          "internalType": "bytes32",
          "name": "role",
          "type": "bytes32"
        },
        {
          "internalType": "address",
          "name": "account",
          "type": "address"
        }
      ],
      "name": "renounceRole",
      "outputs": [],
      "stateMutability": "nonpayable",
      "type": "function"
    },
    {
      "inputs": [
        {
          "internalType": "bytes32",
          "name": "role",
          "type": "bytes32"
        },
        {
          "internalType": "address",
          "name": "account",
          "type": "address"
        }
      ],
      "name": "revokeRole",
      "outputs": [],
      "stateMutability": "nonpayable",
      "type": "function"
    },
    {
      "inputs": [
        {
          "internalType": "address",
          "name": "_from",
          "type": "address"
        },
        {
          "internalType": "address",
          "name": "_to",
          "type": "address"
        },
        {
          "internalType": "uint256[]",
          "name": "_ids",
          "type": "uint256[]"
        },
        {
          "internalType": "uint256[]",
          "name": "_amounts",
          "type": "uint256[]"
        },
        {
          "internalType": "bytes",
          "name": "_data",
          "type": "bytes"
        }
      ],
      "name": "safeBatchTransferFrom",
      "outputs": [],
      "stateMutability": "nonpayable",
      "type": "function"
    },
    {
      "inputs": [
        {
          "internalType": "address",
          "name": "from",
          "type": "address"
        },
        {
          "internalType": "address",
          "name": "to",
          "type": "address"
        },
        {
          "internalType": "uint256",
          "name": "id",
          "type": "uint256"
        },
        {
          "internalType": "uint256",
          "name": "amount",
          "type": "uint256"
        },
        {
          "internalType": "bytes",
          "name": "data",
          "type": "bytes"
        }
      ],
      "name": "safeTransferFrom",
      "outputs": [],
      "stateMutability": "nonpayable",
      "type": "function"
    },
    {
      "inputs": [
        {
          "internalType": "address",
          "name": "owner",
          "type": "address"
        },
        {
          "internalType": "address",
          "name": "operator",
          "type": "address"
        },
        {
          "internalType": "bool",
          "name": "approved",
          "type": "bool"
        }
      ],
      "name": "setApprovalForAll",
      "outputs": [],
      "stateMutability": "nonpayable",
      "type": "function"
    },
    {
      "inputs": [
        {
          "internalType": "address",
          "name": "operator",
          "type": "address"
        },
        {
          "internalType": "bool",
          "name": "approved",
          "type": "bool"
        }
      ],
      "name": "setApprovalForAll",
      "outputs": [],
      "stateMutability": "nonpayable",
      "type": "function"
    },
    {
      "inputs": [
        {
          "internalType": "bytes4",
          "name": "interfaceId",
          "type": "bytes4"
        }
      ],
      "name": "supportsInterface",
      "outputs": [
        {
          "internalType": "bool",
          "name": "",
          "type": "bool"
        }
      ],
      "stateMutability": "view",
      "type": "function"
    },
    {
      "inputs": [
        {
          "internalType": "uint256",
          "name": "id",
          "type": "uint256"
        }
      ],
      "name": "totalSupply",
      "outputs": [
        {
          "internalType": "uint256",
          "name": "",
          "type": "uint256"
        }
      ],
      "stateMutability": "view",
      "type": "function"
    },
    {
      "inputs": [],
      "name": "unpause",
      "outputs": [],
      "stateMutability": "nonpayable",
      "type": "function"
    },
    {
      "inputs": [
        {
          "internalType": "uint256",
          "name": "",
          "type": "uint256"
        }
      ],
      "name": "uri",
      "outputs": [
        {
          "internalType": "string",
          "name": "",
          "type": "string"
        }
      ],
      "stateMutability": "view",
      "type": "function"
    },
    {
      "inputs": [
        {
          "internalType": "uint256",
          "name": "removalId",
          "type": "uint256"
        }
      ],
      "name": "vintage",
      "outputs": [
        {
          "components": [
            {
              "internalType": "address",
              "name": "supplier",
              "type": "address"
            },
            {
              "internalType": "uint16",
              "name": "vintage",
              "type": "uint16"
            }
          ],
          "internalType": "struct Removal.Vintage",
          "name": "",
          "type": "tuple"
        }
      ],
      "stateMutability": "view",
      "type": "function"
    }
  ],
  "bytecode": "0x608060405234801561001057600080fd5b50613353806100206000396000f3fe608060405234801561001057600080fd5b50600436106101ef5760003560e01c8063737fa5891161010f578063ca15c873116100a2578063e985e9c511610071578063e985e9c5146104c5578063f242432a14610501578063f5298aca14610514578063f62d18881461052757600080fd5b8063ca15c87314610475578063d539139314610488578063d547741f1461049d578063e63ab1e9146104b057600080fd5b806391d14854116100de57806391d1485414610426578063a217fddf14610439578063a22cb46514610441578063bd85b0391461045457600080fd5b8063737fa589146103665780638129fc1c146103eb5780638456cb59146103f35780639010d07c146103fb57600080fd5b806336568abe116101875780634f558e79116101565780634f558e79146103115780635c975abb146103345780636b20c45414610340578063731133e91461035357600080fd5b806336568abe146102c3578063367605ca146102d65780633f4ba83a146102e95780634e1273f4146102f157600080fd5b80631f7fdffa116101c35780631f7fdffa14610265578063248a9ca31461027a5780632eb2c2d61461029d5780632f2ff15d146102b057600080fd5b8062fdd58e146101f457806301ffc9a71461021a57806306fdde031461023d5780630e89341c14610252575b600080fd5b6102076102023660046124d8565b61053a565b6040519081526020015b60405180910390f35b61022d61022836600461251a565b6105d6565b6040519015158152602001610211565b6102456105e1565b604051610211919061258f565b6102456102603660046125a2565b610670565b61027861027336600461270e565b610704565b005b6102076102883660046125a2565b60009081526065602052604090206001015490565b6102786102ab3660046127a8565b6108b5565b6102786102be366004612855565b6108c9565b6102786102d1366004612855565b6108f4565b6102786102e4366004612893565b610972565b6102786109d6565b6103046102ff3660046128de565b610a6a565b60405161021191906129e5565b61022d61031f3660046125a2565b60009081526101c36020526040902054151590565b61012d5460ff1661022d565b61027861034e3660046129f8565b610b93565b610278610361366004612a6d565b610bd6565b6103c36103743660046125a2565b60408051808201909152600080825260208201525060009081526101f560209081526040918290208251808401909352546001600160a01b0381168352600160a01b900461ffff169082015290565b6040805182516001600160a01b0316815260209283015161ffff169281019290925201610211565b610278610c16565b610278610ce7565b61040e610409366004612ac3565b610d79565b6040516001600160a01b039091168152602001610211565b61022d610434366004612855565b610d98565b610207600081565b61027861044f366004612ae5565b610dc3565b6102076104623660046125a2565b60009081526101c3602052604090205490565b6102076104833660046125a2565b610dce565b6102076000805160206132d883398151915281565b6102786104ab366004612855565b610de5565b6102076000805160206132b883398151915281565b61022d6104d3366004612b13565b6001600160a01b03918216600090815260ca6020908152604080832093909416825291909152205460ff1690565b61027861050f366004612b41565b610e0b565b610278610522366004612ba9565b610e50565b610278610535366004612bde565b610e93565b60006001600160a01b0383166105ab5760405162461bcd60e51b815260206004820152602b60248201527f455243313135353a2062616c616e636520717565727920666f7220746865207a60448201526a65726f206164647265737360a81b60648201526084015b60405180910390fd5b50600081815260c9602090815260408083206001600160a01b03861684529091529020545b92915050565b60006105d082610f0e565b6101f780546105ef90612c2e565b80601f016020809104026020016040519081016040528092919081815260200182805461061b90612c2e565b80156106685780601f1061063d57610100808354040283529160200191610668565b820191906000526020600020905b81548152906001019060200180831161064b57829003601f168201915b505050505081565b606060cb805461067f90612c2e565b80601f01602080910402602001604051908101604052809291908181526020018280546106ab90612c2e565b80156106f85780601f106106cd576101008083540402835291602001916106f8565b820191906000526020600020905b8154815290600101906020018083116106db57829003601f168201915b50505050509050919050565b60008180602001905181019061071a9190612c69565b9050600083516001600160401b03811115610737576107376125bb565b604051908082528060200260200182016040528015610760578160200160208202803683370190505b50905060005b845181101561084257806101f65461077e9190612cdd565b82828151811061079057610790612cf5565b6020026020010181815250506040518060400160405280886001600160a01b031681526020018683815181106107c8576107c8612cf5565b602002602001015161ffff168152506101f56000836101f6546107eb9190612cdd565b815260208082019290925260400160002082518154939092015161ffff16600160a01b026001600160b01b03199093166001600160a01b03909216919091179190911790558061083a81612d0b565b915050610766565b5080600182516108529190612d26565b8151811061086257610862612cf5565b602002602001015160016108769190612cdd565b6101f65561088686828786610f19565b61089286336001610972565b8160200151156108ad576108ad8683600001518388876108b5565b505050505050565b6108c28585858585610f59565b5050505050565b6000828152606560205260409020600101546108e58133610fe9565b6108ef838361104d565b505050565b6001600160a01b03811633146109645760405162461bcd60e51b815260206004820152602f60248201527f416363657373436f6e74726f6c3a2063616e206f6e6c792072656e6f756e636560448201526e103937b632b9903337b91039b2b63360891b60648201526084016105a2565b61096e828261106f565b5050565b600061097e8133610fe9565b61012d5460ff16156109c55760405162461bcd60e51b815260206004820152601060248201526f14185d5cd8589b194e881c185d5cd95960821b60448201526064016105a2565b6109d0848484611091565b50505050565b6109ee6000805160206132b883398151915233610d98565b610a605760405162461bcd60e51b815260206004820152603b60248201527f455243313135355072657365744d696e7465725061757365723a206d7573742060448201527f686176652070617573657220726f6c6520746f20756e7061757365000000000060648201526084016105a2565b610a68611172565b565b60608151835114610acf5760405162461bcd60e51b815260206004820152602960248201527f455243313135353a206163636f756e747320616e6420696473206c656e677468604482015268040dad2e6dac2e8c6d60bb1b60648201526084016105a2565b600083516001600160401b03811115610aea57610aea6125bb565b604051908082528060200260200182016040528015610b13578160200160208202803683370190505b50905060005b8451811015610b8b57610b5e858281518110610b3757610b37612cf5565b6020026020010151858381518110610b5157610b51612cf5565b602002602001015161053a565b828281518110610b7057610b70612cf5565b6020908102919091010152610b8481612d0b565b9050610b19565b509392505050565b6001600160a01b038316331480610baf5750610baf83336104d3565b610bcb5760405162461bcd60e51b81526004016105a290612d3d565b6108ef838383611207565b610bee6000805160206132d883398151915233610d98565b610c0a5760405162461bcd60e51b81526004016105a290612d86565b6109d084848484611398565b600054610100900460ff16610c315760005460ff1615610c35565b303b155b610c515760405162461bcd60e51b81526004016105a290612de3565b600054610100900460ff16158015610c73576000805461ffff19166101011790555b610c946040518060600160405280602681526020016132f860269139610e93565b610c9c611470565b60006101f6556040805180820190915260078082526614995b5bdd985b60ca1b6020909201918252610cd1916101f79161242a565b508015610ce4576000805461ff00191690555b50565b610cff6000805160206132b883398151915233610d98565b610d715760405162461bcd60e51b815260206004820152603960248201527f455243313135355072657365744d696e7465725061757365723a206d7573742060448201527f686176652070617573657220726f6c6520746f2070617573650000000000000060648201526084016105a2565b610a68611497565b6000828152609760205260408120610d919083611514565b9392505050565b60009182526065602090815260408084206001600160a01b0393909316845291905290205460ff1690565b61096e338383611091565b60008181526097602052604081206105d090611520565b600082815260656020526040902060010154610e018133610fe9565b6108ef838361106f565b6001600160a01b038516331480610e275750610e2785336104d3565b610e435760405162461bcd60e51b81526004016105a290612d3d565b6108c2858585858561152a565b6001600160a01b038316331480610e6c5750610e6c83336104d3565b610e885760405162461bcd60e51b81526004016105a290612d3d565b6108ef83838361164b565b600054610100900460ff16610eae5760005460ff1615610eb2565b303b155b610ece5760405162461bcd60e51b81526004016105a290612de3565b600054610100900460ff16158015610ef0576000805461ffff19166101011790555b610ef982611750565b801561096e576000805461ff00191690555050565b60006105d082611791565b610f316000805160206132d883398151915233610d98565b610f4d5760405162461bcd60e51b81526004016105a290612d86565b6109d0848484846117d1565b6001600160a01b038516331480610f755750610f7585336104d3565b610fdc5760405162461bcd60e51b815260206004820152603260248201527f455243313135353a207472616e736665722063616c6c6572206973206e6f74206044820152711bdddb995c881b9bdc88185c1c1c9bdd995960721b60648201526084016105a2565b6108c2858585858561192c565b610ff38282610d98565b61096e5761100b816001600160a01b03166014611ad1565b611016836020611ad1565b604051602001611027929190612e31565b60408051601f198184030181529082905262461bcd60e51b82526105a29160040161258f565b6110578282611c6c565b60008281526097602052604090206108ef9082611cf2565b6110798282611d07565b60008281526097602052604090206108ef9082611d6e565b816001600160a01b0316836001600160a01b031614156111055760405162461bcd60e51b815260206004820152602960248201527f455243313135353a2073657474696e6720617070726f76616c20737461747573604482015268103337b91039b2b63360b91b60648201526084016105a2565b6001600160a01b03838116600081815260ca6020908152604080832094871680845294825291829020805460ff191686151590811790915591519182527f17307eab39ab6107e8899845ad3d59bd9653f200f220920489ca2b5937696c31910160405180910390a3505050565b61012d5460ff166111bc5760405162461bcd60e51b815260206004820152601460248201527314185d5cd8589b194e881b9bdd081c185d5cd95960621b60448201526064016105a2565b61012d805460ff191690557f5db9ee0a495bf2e6ff9c91a7834c1ba4fdd244a5e8aa4e537bd38aeae4b073aa335b6040516001600160a01b03909116815260200160405180910390a1565b6001600160a01b03831661122d5760405162461bcd60e51b81526004016105a290612ea6565b805182511461124e5760405162461bcd60e51b81526004016105a290612ee9565b600033905061127181856000868660405180602001604052806000815250611d83565b60005b835181101561133957600084828151811061129157611291612cf5565b6020026020010151905060008483815181106112af576112af612cf5565b602090810291909101810151600084815260c9835260408082206001600160a01b038c1683529093529190912054909150818110156113005760405162461bcd60e51b81526004016105a290612f31565b600092835260c9602090815260408085206001600160a01b038b168652909152909220910390558061133181612d0b565b915050611274565b5060006001600160a01b0316846001600160a01b0316826001600160a01b03167f4a39dc06d4c0dbc64b70af90fd698a233a518aa5d07e595d983b8c0526c8f7fb868660405161138a929190612f75565b60405180910390a450505050565b6001600160a01b0384166113be5760405162461bcd60e51b81526004016105a290612fa3565b336113de816000876113cf88611d91565b6113d888611d91565b87611d83565b600084815260c9602090815260408083206001600160a01b038916845290915281208054859290611410908490612cdd565b909155505060408051858152602081018590526001600160a01b0380881692600092918516917fc3d58168c5ae7397731d063d5bbf3d657854427343f4c083240f7aacaa2d0f62910160405180910390a46108c281600087878787611ddc565b600054610100900460ff16610a685760405162461bcd60e51b81526004016105a290612fe4565b61012d5460ff16156114de5760405162461bcd60e51b815260206004820152601060248201526f14185d5cd8589b194e881c185d5cd95960821b60448201526064016105a2565b61012d805460ff191660011790557f62e78cea01bee320cd4e420270b5ea74000d11b0c9f74754ebdbfc544b05a2586111ea3390565b6000610d918383611f38565b60006105d0825490565b6001600160a01b0384166115505760405162461bcd60e51b81526004016105a29061302f565b336115608187876113cf88611d91565b600084815260c9602090815260408083206001600160a01b038a168452909152902054838110156115a35760405162461bcd60e51b81526004016105a290613074565b600085815260c9602090815260408083206001600160a01b038b81168552925280832087850390559088168252812080548692906115e2908490612cdd565b909155505060408051868152602081018690526001600160a01b03808916928a821692918616917fc3d58168c5ae7397731d063d5bbf3d657854427343f4c083240f7aacaa2d0f62910160405180910390a4611642828888888888611ddc565b50505050505050565b6001600160a01b0383166116715760405162461bcd60e51b81526004016105a290612ea6565b336116a08185600061168287611d91565b61168b87611d91565b60405180602001604052806000815250611d83565b600083815260c9602090815260408083206001600160a01b0388168452909152902054828110156116e35760405162461bcd60e51b81526004016105a290612f31565b600084815260c9602090815260408083206001600160a01b03898116808652918452828520888703905582518981529384018890529092908616917fc3d58168c5ae7397731d063d5bbf3d657854427343f4c083240f7aacaa2d0f62910160405180910390a45050505050565b600054610100900460ff166117775760405162461bcd60e51b81526004016105a290612fe4565b61178081611f62565b611788611f92565b610ce481611fc6565b60006001600160e01b03198216636cdb3d1360e11b14806117c257506001600160e01b031982166303a24d0760e21b145b806105d057506105d082612028565b6001600160a01b0384166117f75760405162461bcd60e51b81526004016105a290612fa3565b81518351146118185760405162461bcd60e51b81526004016105a290612ee9565b3361182881600087878787611d83565b60005b84518110156118c45783818151811061184657611846612cf5565b602002602001015160c9600087848151811061186457611864612cf5565b602002602001015181526020019081526020016000206000886001600160a01b03166001600160a01b0316815260200190815260200160002060008282546118ac9190612cdd565b909155508190506118bc81612d0b565b91505061182b565b50846001600160a01b031660006001600160a01b0316826001600160a01b03167f4a39dc06d4c0dbc64b70af90fd698a233a518aa5d07e595d983b8c0526c8f7fb8787604051611915929190612f75565b60405180910390a46108c28160008787878761204d565b815183511461194d5760405162461bcd60e51b81526004016105a290612ee9565b6001600160a01b0384166119735760405162461bcd60e51b81526004016105a29061302f565b33611982818787878787611d83565b60005b8451811015611a6b5760008582815181106119a2576119a2612cf5565b6020026020010151905060008583815181106119c0576119c0612cf5565b602090810291909101810151600084815260c9835260408082206001600160a01b038e168352909352919091205490915081811015611a115760405162461bcd60e51b81526004016105a290613074565b600083815260c9602090815260408083206001600160a01b038e8116855292528083208585039055908b16825281208054849290611a50908490612cdd565b9250508190555050505080611a6490612d0b565b9050611985565b50846001600160a01b0316866001600160a01b0316826001600160a01b03167f4a39dc06d4c0dbc64b70af90fd698a233a518aa5d07e595d983b8c0526c8f7fb8787604051611abb929190612f75565b60405180910390a46108ad81878787878761204d565b60606000611ae08360026130be565b611aeb906002612cdd565b6001600160401b03811115611b0257611b026125bb565b6040519080825280601f01601f191660200182016040528015611b2c576020820181803683370190505b509050600360fc1b81600081518110611b4757611b47612cf5565b60200101906001600160f81b031916908160001a905350600f60fb1b81600181518110611b7657611b76612cf5565b60200101906001600160f81b031916908160001a9053506000611b9a8460026130be565b611ba5906001612cdd565b90505b6001811115611c1d576f181899199a1a9b1b9c1cb0b131b232b360811b85600f1660108110611bd957611bd9612cf5565b1a60f81b828281518110611bef57611bef612cf5565b60200101906001600160f81b031916908160001a90535060049490941c93611c16816130dd565b9050611ba8565b508315610d915760405162461bcd60e51b815260206004820181905260248201527f537472696e67733a20686578206c656e67746820696e73756666696369656e7460448201526064016105a2565b611c768282610d98565b61096e5760008281526065602090815260408083206001600160a01b03851684529091529020805460ff19166001179055611cae3390565b6001600160a01b0316816001600160a01b0316837f2f8788117e7eff1d82e926ec794901d17c78024a50270940304540a733656f0d60405160405180910390a45050565b6000610d91836001600160a01b038416612108565b611d118282610d98565b1561096e5760008281526065602090815260408083206001600160a01b0385168085529252808320805460ff1916905551339285917ff6391f5c32d9c69d2a47ea670b442974b53935d1edc7fd64eb21e047a839171b9190a45050565b6000610d91836001600160a01b038416612157565b6108ad86868686868661224a565b60408051600180825281830190925260609160009190602080830190803683370190505090508281600081518110611dcb57611dcb612cf5565b602090810291909101015292915050565b6001600160a01b0384163b156108ad5760405163f23a6e6160e01b81526001600160a01b0385169063f23a6e6190611e2090899089908890889088906004016130f4565b6020604051808303816000875af1925050508015611e5b575060408051601f3d908101601f19168201909252611e5891810190613139565b60015b611f0857611e67613156565b806308c379a01415611ea15750611e7c613172565b80611e875750611ea3565b8060405162461bcd60e51b81526004016105a2919061258f565b505b60405162461bcd60e51b815260206004820152603460248201527f455243313135353a207472616e7366657220746f206e6f6e20455243313135356044820152732932b1b2b4bb32b91034b6b83632b6b2b73a32b960611b60648201526084016105a2565b6001600160e01b0319811663f23a6e6160e01b146116425760405162461bcd60e51b81526004016105a2906131fb565b6000826000018281548110611f4f57611f4f612cf5565b9060005260206000200154905092915050565b600054610100900460ff16611f895760405162461bcd60e51b81526004016105a290612fe4565b610ce481612366565b600054610100900460ff16611fb95760405162461bcd60e51b81526004016105a290612fe4565b61012d805460ff19169055565b600054610100900460ff16611fed5760405162461bcd60e51b81526004016105a290612fe4565b611ff8600033612379565b6120106000805160206132d883398151915233612379565b610ce46000805160206132b883398151915233612379565b60006001600160e01b03198216635a05180f60e01b14806105d057506105d082612383565b6001600160a01b0384163b156108ad5760405163bc197c8160e01b81526001600160a01b0385169063bc197c81906120919089908990889088908890600401613243565b6020604051808303816000875af19250505080156120cc575060408051601f3d908101601f191682019092526120c991810190613139565b60015b6120d857611e67613156565b6001600160e01b0319811663bc197c8160e01b146116425760405162461bcd60e51b81526004016105a2906131fb565b600081815260018301602052604081205461214f575081546001818101845560008481526020808220909301849055845484825282860190935260409020919091556105d0565b5060006105d0565b6000818152600183016020526040812054801561224057600061217b600183612d26565b855490915060009061218f90600190612d26565b90508181146121f45760008660000182815481106121af576121af612cf5565b90600052602060002001549050808760000184815481106121d2576121d2612cf5565b6000918252602080832090910192909255918252600188019052604090208390555b8554869080612205576122056132a1565b6001900381819060005260206000200160009055905585600101600086815260200190815260200160002060009055600193505050506105d0565b60009150506105d0565b6122588686868686866123b8565b6001600160a01b0385166122e05760005b83518110156122de5782818151811061228457612284612cf5565b60200260200101516101c360008684815181106122a3576122a3612cf5565b6020026020010151815260200190815260200160002060008282546122c89190612cdd565b909155506122d7905081612d0b565b9050612269565b505b6001600160a01b0384166108ad5760005b83518110156116425782818151811061230c5761230c612cf5565b60200260200101516101c3600086848151811061232b5761232b612cf5565b6020026020010151815260200190815260200160002060008282546123509190612d26565b9091555061235f905081612d0b565b90506122f1565b805161096e9060cb90602084019061242a565b61096e828261104d565b60006001600160e01b03198216637965db0b60e01b14806105d057506301ffc9a760e01b6001600160e01b03198316146105d0565b6108ad86868686868661012d5460ff16156108ad5760405162461bcd60e51b815260206004820152602c60248201527f455243313135355061757361626c653a20746f6b656e207472616e736665722060448201526b1dda1a5b19481c185d5cd95960a21b60648201526084016105a2565b82805461243690612c2e565b90600052602060002090601f016020900481019282612458576000855561249e565b82601f1061247157805160ff191683800117855561249e565b8280016001018555821561249e579182015b8281111561249e578251825591602001919060010190612483565b506124aa9291506124ae565b5090565b5b808211156124aa57600081556001016124af565b6001600160a01b0381168114610ce457600080fd5b600080604083850312156124eb57600080fd5b82356124f6816124c3565b946020939093013593505050565b6001600160e01b031981168114610ce457600080fd5b60006020828403121561252c57600080fd5b8135610d9181612504565b60005b8381101561255257818101518382015260200161253a565b838111156109d05750506000910152565b6000815180845261257b816020860160208601612537565b601f01601f19169290920160200192915050565b602081526000610d916020830184612563565b6000602082840312156125b457600080fd5b5035919050565b634e487b7160e01b600052604160045260246000fd5b601f8201601f191681016001600160401b03811182821017156125f6576125f66125bb565b6040525050565b60006001600160401b03821115612616576126166125bb565b5060051b60200190565b600082601f83011261263157600080fd5b8135602061263e826125fd565b60405161264b82826125d1565b83815260059390931b850182019282810191508684111561266b57600080fd5b8286015b84811015612686578035835291830191830161266f565b509695505050505050565b60006001600160401b038311156126aa576126aa6125bb565b6040516126c1601f8501601f1916602001826125d1565b8091508381528484840111156126d657600080fd5b83836020830137600060208583010152509392505050565b600082601f8301126126ff57600080fd5b610d9183833560208501612691565b6000806000806080858703121561272457600080fd5b843561272f816124c3565b935060208501356001600160401b038082111561274b57600080fd5b61275788838901612620565b9450604087013591508082111561276d57600080fd5b61277988838901612620565b9350606087013591508082111561278f57600080fd5b5061279c878288016126ee565b91505092959194509250565b600080600080600060a086880312156127c057600080fd5b85356127cb816124c3565b945060208601356127db816124c3565b935060408601356001600160401b03808211156127f757600080fd5b61280389838a01612620565b9450606088013591508082111561281957600080fd5b61282589838a01612620565b9350608088013591508082111561283b57600080fd5b50612848888289016126ee565b9150509295509295909350565b6000806040838503121561286857600080fd5b82359150602083013561287a816124c3565b809150509250929050565b8015158114610ce457600080fd5b6000806000606084860312156128a857600080fd5b83356128b3816124c3565b925060208401356128c3816124c3565b915060408401356128d381612885565b809150509250925092565b600080604083850312156128f157600080fd5b82356001600160401b038082111561290857600080fd5b818501915085601f83011261291c57600080fd5b81356020612929826125fd565b60405161293682826125d1565b83815260059390931b850182019282810191508984111561295657600080fd5b948201945b8386101561297d57853561296e816124c3565b8252948201949082019061295b565b9650508601359250508082111561299357600080fd5b506129a085828601612620565b9150509250929050565b600081518084526020808501945080840160005b838110156129da578151875295820195908201906001016129be565b509495945050505050565b602081526000610d9160208301846129aa565b600080600060608486031215612a0d57600080fd5b8335612a18816124c3565b925060208401356001600160401b0380821115612a3457600080fd5b612a4087838801612620565b93506040860135915080821115612a5657600080fd5b50612a6386828701612620565b9150509250925092565b60008060008060808587031215612a8357600080fd5b8435612a8e816124c3565b9350602085013592506040850135915060608501356001600160401b03811115612ab757600080fd5b61279c878288016126ee565b60008060408385031215612ad657600080fd5b50508035926020909101359150565b60008060408385031215612af857600080fd5b8235612b03816124c3565b9150602083013561287a81612885565b60008060408385031215612b2657600080fd5b8235612b31816124c3565b9150602083013561287a816124c3565b600080600080600060a08688031215612b5957600080fd5b8535612b64816124c3565b94506020860135612b74816124c3565b9350604086013592506060860135915060808601356001600160401b03811115612b9d57600080fd5b612848888289016126ee565b600080600060608486031215612bbe57600080fd5b8335612bc9816124c3565b95602085013595506040909401359392505050565b600060208284031215612bf057600080fd5b81356001600160401b03811115612c0657600080fd5b8201601f81018413612c1757600080fd5b612c2684823560208401612691565b949350505050565b600181811c90821680612c4257607f821691505b60208210811415612c6357634e487b7160e01b600052602260045260246000fd5b50919050565b600060408284031215612c7b57600080fd5b604051604081018181106001600160401b0382111715612c9d57612c9d6125bb565b6040528251612cab816124c3565b81526020830151612cbb81612885565b60208201529392505050565b634e487b7160e01b600052601160045260246000fd5b60008219821115612cf057612cf0612cc7565b500190565b634e487b7160e01b600052603260045260246000fd5b6000600019821415612d1f57612d1f612cc7565b5060010190565b600082821015612d3857612d38612cc7565b500390565b60208082526029908201527f455243313135353a2063616c6c6572206973206e6f74206f776e6572206e6f7260408201526808185c1c1c9bdd995960ba1b606082015260800190565b60208082526038908201527f455243313135355072657365744d696e7465725061757365723a206d7573742060408201527f68617665206d696e74657220726f6c6520746f206d696e740000000000000000606082015260800190565b6020808252602e908201527f496e697469616c697a61626c653a20636f6e747261637420697320616c72656160408201526d191e481a5b9a5d1a585b1a5e995960921b606082015260800190565b7f416363657373436f6e74726f6c3a206163636f756e7420000000000000000000815260008351612e69816017850160208801612537565b7001034b99036b4b9b9b4b733903937b6329607d1b6017918401918201528351612e9a816028840160208801612537565b01602801949350505050565b60208082526023908201527f455243313135353a206275726e2066726f6d20746865207a65726f206164647260408201526265737360e81b606082015260800190565b60208082526028908201527f455243313135353a2069647320616e6420616d6f756e7473206c656e677468206040820152670dad2e6dac2e8c6d60c31b606082015260800190565b60208082526024908201527f455243313135353a206275726e20616d6f756e7420657863656564732062616c604082015263616e636560e01b606082015260800190565b604081526000612f8860408301856129aa565b8281036020840152612f9a81856129aa565b95945050505050565b60208082526021908201527f455243313135353a206d696e7420746f20746865207a65726f206164647265736040820152607360f81b606082015260800190565b6020808252602b908201527f496e697469616c697a61626c653a20636f6e7472616374206973206e6f74206960408201526a6e697469616c697a696e6760a81b606082015260800190565b60208082526025908201527f455243313135353a207472616e7366657220746f20746865207a65726f206164604082015264647265737360d81b606082015260800190565b6020808252602a908201527f455243313135353a20696e73756666696369656e742062616c616e636520666f60408201526939103a3930b739b332b960b11b606082015260800190565b60008160001904831182151516156130d8576130d8612cc7565b500290565b6000816130ec576130ec612cc7565b506000190190565b6001600160a01b03868116825285166020820152604081018490526060810183905260a06080820181905260009061312e90830184612563565b979650505050505050565b60006020828403121561314b57600080fd5b8151610d9181612504565b600060033d111561316f5760046000803e5060005160e01c5b90565b600060443d10156131805790565b6040516003193d81016004833e81513d6001600160401b0381602484011181841117156131af57505050505090565b82850191508151818111156131c75750505050505090565b843d87010160208285010111156131e15750505050505090565b6131f0602082860101876125d1565b509095945050505050565b60208082526028908201527f455243313135353a204552433131353552656365697665722072656a656374656040820152676420746f6b656e7360c01b606082015260800190565b6001600160a01b0386811682528516602082015260a06040820181905260009061326f908301866129aa565b828103606084015261328181866129aa565b905082810360808401526132958185612563565b98975050505050505050565b634e487b7160e01b600052603160045260246000fdfe65d7a28e3265b37a6474929f336521b332c1681b933f6cb9f3376673440d862a9f2df0fed2c77648de5860a4cc508cd0818c85b8b8a1ab4ceeef8d981c8956a668747470733a2f2f6e6f72692e636f6d2f6170692f72656d6f76616c2f7b69647d2e6a736f6ea2646970667358221220a3c89f5fcc9ddaa63002c8f4d53599b9000dfd0c256e2f8857cf4a337ce33bf164736f6c634300080c0033",
  "linkReferences": {},
  "deployedLinkReferences": {}
}