{
  "_format": "hh-sol-artifact-1",
  "contractName": "Removal",
  "sourceName": "contracts/Removal.sol",
  "abi": [
    {
      "anonymous": false,
      "inputs": [
        {
          "indexed": true,
          "internalType": "address",
          "name": "account",
          "type": "address"
        },
        {
          "indexed": true,
          "internalType": "address",
          "name": "operator",
          "type": "address"
        },
        {
          "indexed": false,
          "internalType": "bool",
          "name": "approved",
          "type": "bool"
        }
      ],
      "name": "ApprovalForAll",
      "type": "event"
    },
    {
      "anonymous": false,
      "inputs": [
        {
          "indexed": false,
          "internalType": "address",
          "name": "account",
          "type": "address"
        }
      ],
      "name": "Paused",
      "type": "event"
    },
    {
      "anonymous": false,
      "inputs": [
        {
          "indexed": true,
          "internalType": "bytes32",
          "name": "role",
          "type": "bytes32"
        },
        {
          "indexed": true,
          "internalType": "bytes32",
          "name": "previousAdminRole",
          "type": "bytes32"
        },
        {
          "indexed": true,
          "internalType": "bytes32",
          "name": "newAdminRole",
          "type": "bytes32"
        }
      ],
      "name": "RoleAdminChanged",
      "type": "event"
    },
    {
      "anonymous": false,
      "inputs": [
        {
          "indexed": true,
          "internalType": "bytes32",
          "name": "role",
          "type": "bytes32"
        },
        {
          "indexed": true,
          "internalType": "address",
          "name": "account",
          "type": "address"
        },
        {
          "indexed": true,
          "internalType": "address",
          "name": "sender",
          "type": "address"
        }
      ],
      "name": "RoleGranted",
      "type": "event"
    },
    {
      "anonymous": false,
      "inputs": [
        {
          "indexed": true,
          "internalType": "bytes32",
          "name": "role",
          "type": "bytes32"
        },
        {
          "indexed": true,
          "internalType": "address",
          "name": "account",
          "type": "address"
        },
        {
          "indexed": true,
          "internalType": "address",
          "name": "sender",
          "type": "address"
        }
      ],
      "name": "RoleRevoked",
      "type": "event"
    },
    {
      "anonymous": false,
      "inputs": [
        {
          "indexed": true,
          "internalType": "address",
          "name": "operator",
          "type": "address"
        },
        {
          "indexed": true,
          "internalType": "address",
          "name": "from",
          "type": "address"
        },
        {
          "indexed": true,
          "internalType": "address",
          "name": "to",
          "type": "address"
        },
        {
          "indexed": false,
          "internalType": "uint256[]",
          "name": "ids",
          "type": "uint256[]"
        },
        {
          "indexed": false,
          "internalType": "uint256[]",
          "name": "values",
          "type": "uint256[]"
        }
      ],
      "name": "TransferBatch",
      "type": "event"
    },
    {
      "anonymous": false,
      "inputs": [
        {
          "indexed": true,
          "internalType": "address",
          "name": "operator",
          "type": "address"
        },
        {
          "indexed": true,
          "internalType": "address",
          "name": "from",
          "type": "address"
        },
        {
          "indexed": true,
          "internalType": "address",
          "name": "to",
          "type": "address"
        },
        {
          "indexed": false,
          "internalType": "uint256",
          "name": "id",
          "type": "uint256"
        },
        {
          "indexed": false,
          "internalType": "uint256",
          "name": "value",
          "type": "uint256"
        }
      ],
      "name": "TransferSingle",
      "type": "event"
    },
    {
      "anonymous": false,
      "inputs": [
        {
          "indexed": false,
          "internalType": "string",
          "name": "value",
          "type": "string"
        },
        {
          "indexed": true,
          "internalType": "uint256",
          "name": "id",
          "type": "uint256"
        }
      ],
      "name": "URI",
      "type": "event"
    },
    {
      "anonymous": false,
      "inputs": [
        {
          "indexed": false,
          "internalType": "address",
          "name": "account",
          "type": "address"
        }
      ],
      "name": "Unpaused",
      "type": "event"
    },
    {
      "inputs": [],
      "name": "DEFAULT_ADMIN_ROLE",
      "outputs": [
        {
          "internalType": "bytes32",
          "name": "",
          "type": "bytes32"
        }
      ],
      "stateMutability": "view",
      "type": "function"
    },
    {
      "inputs": [],
      "name": "MINTER_ROLE",
      "outputs": [
        {
          "internalType": "bytes32",
          "name": "",
          "type": "bytes32"
        }
      ],
      "stateMutability": "view",
      "type": "function"
    },
    {
      "inputs": [],
      "name": "PAUSER_ROLE",
      "outputs": [
        {
          "internalType": "bytes32",
          "name": "",
          "type": "bytes32"
        }
      ],
      "stateMutability": "view",
      "type": "function"
    },
    {
      "inputs": [
        {
          "internalType": "address",
          "name": "account",
          "type": "address"
        },
        {
          "internalType": "uint256",
          "name": "id",
          "type": "uint256"
        }
      ],
      "name": "balanceOf",
      "outputs": [
        {
          "internalType": "uint256",
          "name": "",
          "type": "uint256"
        }
      ],
      "stateMutability": "view",
      "type": "function"
    },
    {
      "inputs": [
        {
          "internalType": "address[]",
          "name": "accounts",
          "type": "address[]"
        },
        {
          "internalType": "uint256[]",
          "name": "ids",
          "type": "uint256[]"
        }
      ],
      "name": "balanceOfBatch",
      "outputs": [
        {
          "internalType": "uint256[]",
          "name": "",
          "type": "uint256[]"
        }
      ],
      "stateMutability": "view",
      "type": "function"
    },
    {
      "inputs": [
        {
          "internalType": "address",
          "name": "account",
          "type": "address"
        },
        {
          "internalType": "uint256",
          "name": "id",
          "type": "uint256"
        },
        {
          "internalType": "uint256",
          "name": "value",
          "type": "uint256"
        }
      ],
      "name": "burn",
      "outputs": [],
      "stateMutability": "nonpayable",
      "type": "function"
    },
    {
      "inputs": [
        {
          "internalType": "address",
          "name": "account",
          "type": "address"
        },
        {
          "internalType": "uint256[]",
          "name": "ids",
          "type": "uint256[]"
        },
        {
          "internalType": "uint256[]",
          "name": "values",
          "type": "uint256[]"
        }
      ],
      "name": "burnBatch",
      "outputs": [],
      "stateMutability": "nonpayable",
      "type": "function"
    },
    {
      "inputs": [
        {
          "internalType": "bytes",
          "name": "removalData",
          "type": "bytes"
        }
      ],
      "name": "createRemovalId",
      "outputs": [
        {
          "internalType": "uint256",
          "name": "",
          "type": "uint256"
        }
      ],
      "stateMutability": "view",
      "type": "function"
    },
    {
      "inputs": [
        {
          "internalType": "uint256",
          "name": "id",
          "type": "uint256"
        }
      ],
      "name": "exists",
      "outputs": [
        {
          "internalType": "bool",
          "name": "",
          "type": "bool"
        }
      ],
      "stateMutability": "view",
      "type": "function"
    },
    {
      "inputs": [
        {
          "internalType": "bytes32",
          "name": "role",
          "type": "bytes32"
        }
      ],
      "name": "getRoleAdmin",
      "outputs": [
        {
          "internalType": "bytes32",
          "name": "",
          "type": "bytes32"
        }
      ],
      "stateMutability": "view",
      "type": "function"
    },
    {
      "inputs": [
        {
          "internalType": "bytes32",
          "name": "role",
          "type": "bytes32"
        },
        {
          "internalType": "uint256",
          "name": "index",
          "type": "uint256"
        }
      ],
      "name": "getRoleMember",
      "outputs": [
        {
          "internalType": "address",
          "name": "",
          "type": "address"
        }
      ],
      "stateMutability": "view",
      "type": "function"
    },
    {
      "inputs": [
        {
          "internalType": "bytes32",
          "name": "role",
          "type": "bytes32"
        }
      ],
      "name": "getRoleMemberCount",
      "outputs": [
        {
          "internalType": "uint256",
          "name": "",
          "type": "uint256"
        }
      ],
      "stateMutability": "view",
      "type": "function"
    },
    {
      "inputs": [
        {
          "internalType": "bytes32",
          "name": "role",
          "type": "bytes32"
        },
        {
          "internalType": "address",
          "name": "account",
          "type": "address"
        }
      ],
      "name": "grantRole",
      "outputs": [],
      "stateMutability": "nonpayable",
      "type": "function"
    },
    {
      "inputs": [
        {
          "internalType": "bytes32",
          "name": "role",
          "type": "bytes32"
        },
        {
          "internalType": "address",
          "name": "account",
          "type": "address"
        }
      ],
      "name": "hasRole",
      "outputs": [
        {
          "internalType": "bool",
          "name": "",
          "type": "bool"
        }
      ],
      "stateMutability": "view",
      "type": "function"
    },
    {
      "inputs": [
        {
          "internalType": "uint256",
          "name": "",
          "type": "uint256"
        }
      ],
      "name": "indexToTokenId",
      "outputs": [
        {
          "internalType": "uint256",
          "name": "",
          "type": "uint256"
        }
      ],
      "stateMutability": "view",
      "type": "function"
    },
    {
      "inputs": [],
      "name": "initialize",
      "outputs": [],
      "stateMutability": "nonpayable",
      "type": "function"
    },
    {
      "inputs": [
        {
          "internalType": "string",
          "name": "uri",
          "type": "string"
        }
      ],
      "name": "initialize",
      "outputs": [],
      "stateMutability": "nonpayable",
      "type": "function"
    },
    {
      "inputs": [
        {
          "internalType": "address",
          "name": "account",
          "type": "address"
        },
        {
          "internalType": "address",
          "name": "operator",
          "type": "address"
        }
      ],
      "name": "isApprovedForAll",
      "outputs": [
        {
          "internalType": "bool",
          "name": "",
          "type": "bool"
        }
      ],
      "stateMutability": "view",
      "type": "function"
    },
    {
      "inputs": [
        {
          "internalType": "address",
          "name": "to",
          "type": "address"
        },
        {
          "internalType": "uint256",
          "name": "id",
          "type": "uint256"
        },
        {
          "internalType": "uint256",
          "name": "amount",
          "type": "uint256"
        },
        {
          "internalType": "bytes",
          "name": "data",
          "type": "bytes"
        }
      ],
      "name": "mint",
      "outputs": [],
      "stateMutability": "nonpayable",
      "type": "function"
    },
    {
      "inputs": [
        {
          "internalType": "address",
          "name": "to",
          "type": "address"
        },
        {
          "internalType": "uint256[]",
          "name": "amounts",
          "type": "uint256[]"
        },
        {
          "internalType": "uint256[]",
          "name": "ids",
          "type": "uint256[]"
        },
        {
          "internalType": "bytes",
          "name": "data",
          "type": "bytes"
        }
      ],
      "name": "mintBatch",
      "outputs": [],
      "stateMutability": "nonpayable",
      "type": "function"
    },
    {
      "inputs": [],
      "name": "name",
      "outputs": [
        {
          "internalType": "string",
          "name": "",
          "type": "string"
        }
      ],
      "stateMutability": "view",
      "type": "function"
    },
    {
      "inputs": [],
      "name": "pause",
      "outputs": [],
      "stateMutability": "nonpayable",
      "type": "function"
    },
    {
      "inputs": [],
      "name": "paused",
      "outputs": [
        {
          "internalType": "bool",
          "name": "",
          "type": "bool"
        }
      ],
      "stateMutability": "view",
      "type": "function"
    },
    {
      "inputs": [
        {
          "internalType": "bytes32",
          "name": "role",
          "type": "bytes32"
        },
        {
          "internalType": "address",
          "name": "account",
          "type": "address"
        }
      ],
      "name": "renounceRole",
      "outputs": [],
      "stateMutability": "nonpayable",
      "type": "function"
    },
    {
      "inputs": [
        {
          "internalType": "bytes32",
          "name": "role",
          "type": "bytes32"
        },
        {
          "internalType": "address",
          "name": "account",
          "type": "address"
        }
      ],
      "name": "revokeRole",
      "outputs": [],
      "stateMutability": "nonpayable",
      "type": "function"
    },
    {
      "inputs": [
        {
          "internalType": "address",
          "name": "_from",
          "type": "address"
        },
        {
          "internalType": "address",
          "name": "_to",
          "type": "address"
        },
        {
          "internalType": "uint256[]",
          "name": "_ids",
          "type": "uint256[]"
        },
        {
          "internalType": "uint256[]",
          "name": "_amounts",
          "type": "uint256[]"
        },
        {
          "internalType": "bytes",
          "name": "_data",
          "type": "bytes"
        }
      ],
      "name": "safeBatchTransferFrom",
      "outputs": [],
      "stateMutability": "nonpayable",
      "type": "function"
    },
    {
      "inputs": [
        {
          "internalType": "address",
          "name": "from",
          "type": "address"
        },
        {
          "internalType": "address",
          "name": "to",
          "type": "address"
        },
        {
          "internalType": "uint256",
          "name": "id",
          "type": "uint256"
        },
        {
          "internalType": "uint256",
          "name": "amount",
          "type": "uint256"
        },
        {
          "internalType": "bytes",
          "name": "data",
          "type": "bytes"
        }
      ],
      "name": "safeTransferFrom",
      "outputs": [],
      "stateMutability": "nonpayable",
      "type": "function"
    },
    {
      "inputs": [
        {
          "internalType": "address",
          "name": "owner",
          "type": "address"
        },
        {
          "internalType": "address",
          "name": "operator",
          "type": "address"
        },
        {
          "internalType": "bool",
          "name": "approved",
          "type": "bool"
        }
      ],
      "name": "setApprovalForAll",
      "outputs": [],
      "stateMutability": "nonpayable",
      "type": "function"
    },
    {
      "inputs": [
        {
          "internalType": "address",
          "name": "operator",
          "type": "address"
        },
        {
          "internalType": "bool",
          "name": "approved",
          "type": "bool"
        }
      ],
      "name": "setApprovalForAll",
      "outputs": [],
      "stateMutability": "nonpayable",
      "type": "function"
    },
    {
      "inputs": [
        {
          "internalType": "bytes4",
          "name": "interfaceId",
          "type": "bytes4"
        }
      ],
      "name": "supportsInterface",
      "outputs": [
        {
          "internalType": "bool",
          "name": "",
          "type": "bool"
        }
      ],
      "stateMutability": "view",
      "type": "function"
    },
    {
      "inputs": [
        {
          "internalType": "uint256",
          "name": "id",
          "type": "uint256"
        }
      ],
      "name": "totalSupply",
      "outputs": [
        {
          "internalType": "uint256",
          "name": "",
          "type": "uint256"
        }
      ],
      "stateMutability": "view",
      "type": "function"
    },
    {
      "inputs": [
        {
          "internalType": "uint256",
          "name": "removalId",
          "type": "uint256"
        }
      ],
      "name": "unpackRemovalId",
      "outputs": [
        {
          "components": [
            {
              "internalType": "uint8",
              "name": "idVersion",
              "type": "uint8"
            },
            {
              "internalType": "uint8",
              "name": "methodology",
              "type": "uint8"
            },
            {
              "internalType": "uint8",
              "name": "methodologyVersion",
              "type": "uint8"
            },
            {
              "internalType": "uint16",
              "name": "vintage",
              "type": "uint16"
            },
            {
              "internalType": "bytes2",
              "name": "country",
              "type": "bytes2"
            },
            {
              "internalType": "bytes2",
              "name": "admin1",
              "type": "bytes2"
            },
            {
              "internalType": "address",
              "name": "supplierAddress",
              "type": "address"
            },
            {
              "internalType": "uint32",
              "name": "subIdentifier",
              "type": "uint32"
            }
          ],
          "internalType": "struct UnpackedRemovalIdV0",
          "name": "",
          "type": "tuple"
        }
      ],
      "stateMutability": "pure",
      "type": "function"
    },
    {
      "inputs": [],
      "name": "unpause",
      "outputs": [],
      "stateMutability": "nonpayable",
      "type": "function"
    },
    {
      "inputs": [
        {
          "internalType": "uint256",
          "name": "",
          "type": "uint256"
        }
      ],
      "name": "uri",
      "outputs": [
        {
          "internalType": "string",
          "name": "",
          "type": "string"
        }
      ],
      "stateMutability": "view",
      "type": "function"
    }
  ],
  "bytecode": "0x608060405234801561001057600080fd5b50613b56806100206000396000f3fe608060405234801561001057600080fd5b50600436106102055760003560e01c8063731133e91161011a578063bd85b039116100ad578063e63ab1e91161007c578063e63ab1e914610495578063e985e9c5146104aa578063f242432a146104e6578063f5298aca146104f9578063f62d18881461050c57600080fd5b8063bd85b03914610439578063ca15c8731461045a578063d53913931461046d578063d547741f1461048257600080fd5b80639010d07c116100e95780639010d07c146103e057806391d148541461040b578063a217fddf1461041e578063a22cb4651461042657600080fd5b8063731133e91461039c5780637aef1164146103af5780638129fc1c146103d05780638456cb59146103d857600080fd5b80632f2ff15d1161019d57806348ec4c3b1161016c57806348ec4c3b146103275780634e1273f41461033a5780634f558e791461035a5780635c975abb1461037d5780636b20c4541461038957600080fd5b80632f2ff15d146102e657806336568abe146102f9578063367605ca1461030c5780633f4ba83a1461031f57600080fd5b80630e89341c116101d95780630e89341c146102885780631f7fdffa1461029b578063248a9ca3146102b05780632eb2c2d6146102d357600080fd5b8062fdd58e1461020a57806301ffc9a71461023057806305a396581461025357806306fdde0314610273575b600080fd5b61021d6102183660046129b8565b61051f565b6040519081526020015b60405180910390f35b61024361023e3660046129fa565b6105bb565b6040519015158152602001610227565b610266610261366004612a17565b6105c6565b6040516102279190612a30565b61027b6105d7565b6040516102279190612b1f565b61027b610296366004612a17565b610666565b6102ae6102a9366004612c85565b6106fa565b005b61021d6102be366004612a17565b60009081526065602052604090206001015490565b6102ae6102e1366004612d1f565b610882565b6102ae6102f4366004612dcc565b61088f565b6102ae610307366004612dcc565b6108ba565b6102ae61031a366004612e0a565b610938565b6102ae61099c565b61021d610335366004612e55565b610a30565b61034d610348366004612ec6565b610a43565b6040516102279190612fcd565b610243610368366004612a17565b60009081526101c36020526040902054151590565b61012d5460ff16610243565b6102ae610397366004612fe0565b610b6c565b6102ae6103aa366004613055565b610baf565b61021d6103bd366004612a17565b6101f76020526000908152604090205481565b6102ae610bef565b6102ae610cc0565b6103f36103ee3660046130ab565b610d52565b6040516001600160a01b039091168152602001610227565b610243610419366004612dcc565b610d6a565b61021d600081565b6102ae6104343660046130cd565b610d95565b61021d610447366004612a17565b60009081526101c3602052604090205490565b61021d610468366004612a17565b610da0565b61021d600080516020613adb83398151915281565b6102ae610490366004612dcc565b610db7565b61021d600080516020613abb83398151915281565b6102436104b83660046130fb565b6001600160a01b03918216600090815260ca6020908152604080832093909416825291909152205460ff1690565b6102ae6104f4366004613129565b610ddd565b6102ae610507366004613191565b610e22565b6102ae61051a3660046131c6565b610e65565b60006001600160a01b0383166105905760405162461bcd60e51b815260206004820152602b60248201527f455243313135353a2062616c616e636520717565727920666f7220746865207a60448201526a65726f206164647265737360a81b60648201526084015b60405180910390fd5b50600081815260c9602090815260408083206001600160a01b03861684529091529020545b92915050565b60006105b582610ee0565b6105ce6128b6565b6105b582610eeb565b6101f680546105e590613216565b80601f016020809104026020016040519081016040528092919081815260200182805461061190613216565b801561065e5780601f106106335761010080835404028352916020019161065e565b820191906000526020600020905b81548152906001019060200180831161064157829003601f168201915b505050505081565b606060cb805461067590613216565b80601f01602080910402602001604051908101604052809291908181526020018280546106a190613216565b80156106ee5780601f106106c3576101008083540402835291602001916106ee565b820191906000526020600020905b8154815290600101906020018083116106d157829003601f168201915b50505050509050919050565b6000818060200190518101906107109190613250565b905060005b8351811015610847576101f86000858381518110610735576107356132ae565b60209081029190910181015182528101919091526040016000205460ff16156107a05760405162461bcd60e51b815260206004820152601760248201527f546f6b656e20696420616c7265616479206578697374730000000000000000006044820152606401610587565b60016101f860008684815181106107b9576107b96132ae565b6020026020010151815260200190815260200160002060006101000a81548160ff0219169083151502179055508381815181106107f8576107f86132ae565b60200260200101516101f760006101f55481526020019081526020016000208190555060016101f5600082825461082f91906132da565b9091555081905061083f816132f2565b915050610715565b5061085485848685610fa2565b61086085336001610938565b80602001511561087b5761087b858260000151858786610882565b5050505050565b61087b8585858585610fe2565b6000828152606560205260409020600101546108ab8133611072565b6108b583836110d6565b505050565b6001600160a01b038116331461092a5760405162461bcd60e51b815260206004820152602f60248201527f416363657373436f6e74726f6c3a2063616e206f6e6c792072656e6f756e636560448201526e103937b632b9903337b91039b2b63360891b6064820152608401610587565b61093482826110f8565b5050565b60006109448133611072565b61012d5460ff161561098b5760405162461bcd60e51b815260206004820152601060248201526f14185d5cd8589b194e881c185d5cd95960821b6044820152606401610587565b61099684848461111a565b50505050565b6109b4600080516020613abb83398151915233610d6a565b610a265760405162461bcd60e51b815260206004820152603b60248201527f455243313135355072657365744d696e7465725061757365723a206d7573742060448201527f686176652070617573657220726f6c6520746f20756e706175736500000000006064820152608401610587565b610a2e6111fa565b565b6000610a3c838361128f565b9392505050565b60608151835114610aa85760405162461bcd60e51b815260206004820152602960248201527f455243313135353a206163636f756e747320616e6420696473206c656e677468604482015268040dad2e6dac2e8c6d60bb1b6064820152608401610587565b600083516001600160401b03811115610ac357610ac3612b32565b604051908082528060200260200182016040528015610aec578160200160208202803683370190505b50905060005b8451811015610b6457610b37858281518110610b1057610b106132ae565b6020026020010151858381518110610b2a57610b2a6132ae565b602002602001015161051f565b828281518110610b4957610b496132ae565b6020908102919091010152610b5d816132f2565b9050610af2565b509392505050565b6001600160a01b038316331480610b885750610b8883336104b8565b610ba45760405162461bcd60e51b81526004016105879061330b565b6108b58383836115a5565b610bc7600080516020613adb83398151915233610d6a565b610be35760405162461bcd60e51b815260040161058790613354565b61099684848484611736565b600054610100900460ff16610c0a5760005460ff1615610c0e565b303b155b610c2a5760405162461bcd60e51b8152600401610587906133b1565b600054610100900460ff16158015610c4c576000805461ffff19166101011790555b610c6d604051806060016040528060268152602001613afb60269139610e65565b610c7561180e565b60006101f5556040805180820190915260078082526614995b5bdd985b60ca1b6020909201918252610caa916101f6916128fa565b508015610cbd576000805461ff00191690555b50565b610cd8600080516020613abb83398151915233610d6a565b610d4a5760405162461bcd60e51b815260206004820152603960248201527f455243313135355072657365744d696e7465725061757365723a206d7573742060448201527f686176652070617573657220726f6c6520746f207061757365000000000000006064820152608401610587565b610a2e611835565b6000828152609760205260408120610a3c90836118b2565b60009182526065602090815260408084206001600160a01b0393909316845291905290205460ff1690565b61093433838361111a565b60008181526097602052604081206105b5906118be565b600082815260656020526040902060010154610dd38133611072565b6108b583836110f8565b6001600160a01b038516331480610df95750610df985336104b8565b610e155760405162461bcd60e51b81526004016105879061330b565b61087b85858585856118c8565b6001600160a01b038316331480610e3e5750610e3e83336104b8565b610e5a5760405162461bcd60e51b81526004016105879061330b565b6108b58383836119e9565b600054610100900460ff16610e805760005460ff1615610e84565b303b155b610ea05760405162461bcd60e51b8152600401610587906133b1565b600054610100900460ff16158015610ec2576000805461ffff19166101011790555b610ecb82611aee565b8015610934576000805461ff00191690555050565b60006105b582611b2f565b610ef36128b6565b604051806101000160405280610f0884611b6f565b60ff168152602001610f1984611b7e565b60ff168152602001610f2a84611b97565b60ff168152602001610f3b84611baf565b61ffff168152602001610f4d84611bbe565b6001600160f01b0319168152602001610f6584611bd6565b6001600160f01b0319168152602001610f7d84611be5565b6001600160a01b03168152602001610f9484611bf4565b63ffffffff16905292915050565b610fba600080516020613adb83398151915233610d6a565b610fd65760405162461bcd60e51b815260040161058790613354565b61099684848484611c03565b6001600160a01b038516331480610ffe5750610ffe85336104b8565b6110655760405162461bcd60e51b815260206004820152603260248201527f455243313135353a207472616e736665722063616c6c6572206973206e6f74206044820152711bdddb995c881b9bdc88185c1c1c9bdd995960721b6064820152608401610587565b61087b8585858585611d5e565b61107c8282610d6a565b61093457611094816001600160a01b03166014611f0b565b61109f836020611f0b565b6040516020016110b09291906133ff565b60408051601f198184030181529082905262461bcd60e51b825261058791600401612b1f565b6110e082826120a6565b60008281526097602052604090206108b5908261212c565b6111028282612141565b60008281526097602052604090206108b590826121a8565b816001600160a01b0316836001600160a01b03160361118d5760405162461bcd60e51b815260206004820152602960248201527f455243313135353a2073657474696e6720617070726f76616c20737461747573604482015268103337b91039b2b63360b91b6064820152608401610587565b6001600160a01b03838116600081815260ca6020908152604080832094871680845294825291829020805460ff191686151590811790915591519182527f17307eab39ab6107e8899845ad3d59bd9653f200f220920489ca2b5937696c31910160405180910390a3505050565b61012d5460ff166112445760405162461bcd60e51b815260206004820152601460248201527314185d5cd8589b194e881b9bdd081c185d5cd95960621b6044820152606401610587565b61012d805460ff191690557f5db9ee0a495bf2e6ff9c91a7834c1ba4fdd244a5e8aa4e537bd38aeae4b073aa335b6040516001600160a01b03909116815260200160405180910390a1565b60008061129e83850185613485565b60ff16905080156112fd5760405162461bcd60e51b8152602060048201526024808201527f556e737570706f727465642072656d6f76616c20746f6b656e2069642076657260448201526339b4b7b760e11b6064820152608401610587565b61010083146113615760405162461bcd60e51b815260206004820152602a60248201527f72656d6f76616c4461746120636f6e7461696e732077726f6e67206e756d626560448201526972206f6620627974657360b01b6064820152608401610587565b600061136f848601866134de565b9050600f816020015160ff1611156113c15760405162461bcd60e51b81526020600482015260156024820152744d6574686f6c6f646f677920746f6f206c6172676560581b6044820152606401610587565b600f816040015160ff1611156114195760405162461bcd60e51b815260206004820152601d60248201527f4d6574686f6c6f646f67792076657273696f6e20746f6f206c617267650000006044820152606401610587565b608081015160a082015160f882811c9260ff60f091821c8116939283901c9290911c166041841080159061144e5750605a8411155b801561145b575060418310155b80156114685750605a8311155b8015611475575060418210155b80156114825750605a8211155b801561148f575060418110155b801561149c5750605a8111155b6114d85760405162461bcd60e51b815260206004820152600d60248201526c496e76616c696420415343494960981b6044820152606401610587565b600085604001516004876020015160ff16901b1760ff169050600860006114ff91906135a2565b60e087015163ffffffff16901b611518600860046135a2565b60c08801516001600160a01b0316901b611534600860186135a2565b60a089015160f01c901b61154a6008601a6135a2565b60808a015160f01c901b6115606008601c6135a2565b60608b015161ffff16901b6115776008601e6135a2565b86901b6115866008601f6135a2565b8c6000015160ff16901b17171717171797505050505050505092915050565b6001600160a01b0383166115cb5760405162461bcd60e51b8152600401610587906135c1565b80518251146115ec5760405162461bcd60e51b815260040161058790613604565b600033905061160f818560008686604051806020016040528060008152506121bd565b60005b83518110156116d757600084828151811061162f5761162f6132ae565b60200260200101519050600084838151811061164d5761164d6132ae565b602090810291909101810151600084815260c9835260408082206001600160a01b038c16835290935291909120549091508181101561169e5760405162461bcd60e51b81526004016105879061364c565b600092835260c9602090815260408085206001600160a01b038b16865290915290922091039055806116cf816132f2565b915050611612565b5060006001600160a01b0316846001600160a01b0316826001600160a01b03167f4a39dc06d4c0dbc64b70af90fd698a233a518aa5d07e595d983b8c0526c8f7fb8686604051611728929190613690565b60405180910390a450505050565b6001600160a01b03841661175c5760405162461bcd60e51b8152600401610587906136be565b3361177c8160008761176d886121cb565b611776886121cb565b876121bd565b600084815260c9602090815260408083206001600160a01b0389168452909152812080548592906117ae9084906132da565b909155505060408051858152602081018590526001600160a01b0380881692600092918516917fc3d58168c5ae7397731d063d5bbf3d657854427343f4c083240f7aacaa2d0f62910160405180910390a461087b81600087878787612216565b600054610100900460ff16610a2e5760405162461bcd60e51b8152600401610587906136ff565b61012d5460ff161561187c5760405162461bcd60e51b815260206004820152601060248201526f14185d5cd8589b194e881c185d5cd95960821b6044820152606401610587565b61012d805460ff191660011790557f62e78cea01bee320cd4e420270b5ea74000d11b0c9f74754ebdbfc544b05a2586112723390565b6000610a3c8383612371565b60006105b5825490565b6001600160a01b0384166118ee5760405162461bcd60e51b81526004016105879061374a565b336118fe81878761176d886121cb565b600084815260c9602090815260408083206001600160a01b038a168452909152902054838110156119415760405162461bcd60e51b81526004016105879061378f565b600085815260c9602090815260408083206001600160a01b038b81168552925280832087850390559088168252812080548692906119809084906132da565b909155505060408051868152602081018690526001600160a01b03808916928a821692918616917fc3d58168c5ae7397731d063d5bbf3d657854427343f4c083240f7aacaa2d0f62910160405180910390a46119e0828888888888612216565b50505050505050565b6001600160a01b038316611a0f5760405162461bcd60e51b8152600401610587906135c1565b33611a3e81856000611a20876121cb565b611a29876121cb565b604051806020016040528060008152506121bd565b600083815260c9602090815260408083206001600160a01b038816845290915290205482811015611a815760405162461bcd60e51b81526004016105879061364c565b600084815260c9602090815260408083206001600160a01b03898116808652918452828520888703905582518981529384018890529092908616917fc3d58168c5ae7397731d063d5bbf3d657854427343f4c083240f7aacaa2d0f62910160405180910390a45050505050565b600054610100900460ff16611b155760405162461bcd60e51b8152600401610587906136ff565b611b1e8161239b565b611b266123cb565b610cbd816123ff565b60006001600160e01b03198216636cdb3d1360e11b1480611b6057506001600160e01b031982166303a24d0760e21b145b806105b557506105b582612461565b60006105b5826001601f612486565b60006004611b8f836001601e612486565b901c92915050565b6000611ba6826001601e612486565b600f1692915050565b60006105b5826002601c612486565b6000611bcd826002601a612486565b60f01b92915050565b6000611bcd8260026018612486565b60006105b58260146004612486565b60006105b58260046000612486565b6001600160a01b038416611c295760405162461bcd60e51b8152600401610587906136be565b8151835114611c4a5760405162461bcd60e51b815260040161058790613604565b33611c5a816000878787876121bd565b60005b8451811015611cf657838181518110611c7857611c786132ae565b602002602001015160c96000878481518110611c9657611c966132ae565b602002602001015181526020019081526020016000206000886001600160a01b03166001600160a01b031681526020019081526020016000206000828254611cde91906132da565b90915550819050611cee816132f2565b915050611c5d565b50846001600160a01b031660006001600160a01b0316826001600160a01b03167f4a39dc06d4c0dbc64b70af90fd698a233a518aa5d07e595d983b8c0526c8f7fb8787604051611d47929190613690565b60405180910390a461087b816000878787876124d2565b8151835114611d7f5760405162461bcd60e51b815260040161058790613604565b6001600160a01b038416611da55760405162461bcd60e51b81526004016105879061374a565b33611db48187878787876121bd565b60005b8451811015611e9d576000858281518110611dd457611dd46132ae565b602002602001015190506000858381518110611df257611df26132ae565b602090810291909101810151600084815260c9835260408082206001600160a01b038e168352909352919091205490915081811015611e435760405162461bcd60e51b81526004016105879061378f565b600083815260c9602090815260408083206001600160a01b038e8116855292528083208585039055908b16825281208054849290611e829084906132da565b9250508190555050505080611e96906132f2565b9050611db7565b50846001600160a01b0316866001600160a01b0316826001600160a01b03167f4a39dc06d4c0dbc64b70af90fd698a233a518aa5d07e595d983b8c0526c8f7fb8787604051611eed929190613690565b60405180910390a4611f038187878787876124d2565b505050505050565b60606000611f1a8360026135a2565b611f259060026132da565b6001600160401b03811115611f3c57611f3c612b32565b6040519080825280601f01601f191660200182016040528015611f66576020820181803683370190505b509050600360fc1b81600081518110611f8157611f816132ae565b60200101906001600160f81b031916908160001a905350600f60fb1b81600181518110611fb057611fb06132ae565b60200101906001600160f81b031916908160001a9053506000611fd48460026135a2565b611fdf9060016132da565b90505b6001811115612057576f181899199a1a9b1b9c1cb0b131b232b360811b85600f1660108110612013576120136132ae565b1a60f81b828281518110612029576120296132ae565b60200101906001600160f81b031916908160001a90535060049490941c93612050816137d9565b9050611fe2565b508315610a3c5760405162461bcd60e51b815260206004820181905260248201527f537472696e67733a20686578206c656e67746820696e73756666696369656e746044820152606401610587565b6120b08282610d6a565b6109345760008281526065602090815260408083206001600160a01b03851684529091529020805460ff191660011790556120e83390565b6001600160a01b0316816001600160a01b0316837f2f8788117e7eff1d82e926ec794901d17c78024a50270940304540a733656f0d60405160405180910390a45050565b6000610a3c836001600160a01b03841661258d565b61214b8282610d6a565b156109345760008281526065602090815260408083206001600160a01b0385168085529252808320805460ff1916905551339285917ff6391f5c32d9c69d2a47ea670b442974b53935d1edc7fd64eb21e047a839171b9190a45050565b6000610a3c836001600160a01b0384166125dc565b611f038686868686866126d6565b60408051600180825281830190925260609160009190602080830190803683370190505090508281600081518110612205576122056132ae565b602090810291909101015292915050565b6001600160a01b0384163b15611f035760405163f23a6e6160e01b81526001600160a01b0385169063f23a6e619061225a90899089908890889088906004016137f0565b6020604051808303816000875af1925050508015612295575060408051601f3d908101601f1916820190925261229291810190613835565b60015b612341576122a1613852565b806308c379a0036122da57506122b561386e565b806122c057506122dc565b8060405162461bcd60e51b81526004016105879190612b1f565b505b60405162461bcd60e51b815260206004820152603460248201527f455243313135353a207472616e7366657220746f206e6f6e20455243313135356044820152732932b1b2b4bb32b91034b6b83632b6b2b73a32b960611b6064820152608401610587565b6001600160e01b0319811663f23a6e6160e01b146119e05760405162461bcd60e51b8152600401610587906138f7565b6000826000018281548110612388576123886132ae565b9060005260206000200154905092915050565b600054610100900460ff166123c25760405162461bcd60e51b8152600401610587906136ff565b610cbd816127f2565b600054610100900460ff166123f25760405162461bcd60e51b8152600401610587906136ff565b61012d805460ff19169055565b600054610100900460ff166124265760405162461bcd60e51b8152600401610587906136ff565b612431600033612805565b612449600080516020613adb83398151915233612805565b610cbd600080516020613abb83398151915233612805565b60006001600160e01b03198216635a05180f60e01b14806105b557506105b58261280f565b6000806124946008846135a2565b60016124a16008876135a2565b6124ac906002613a23565b6124b69190613a2f565b901b90508481166124c86008856135a2565b1c95945050505050565b6001600160a01b0384163b15611f035760405163bc197c8160e01b81526001600160a01b0385169063bc197c81906125169089908990889088908890600401613a46565b6020604051808303816000875af1925050508015612551575060408051601f3d908101601f1916820190925261254e91810190613835565b60015b61255d576122a1613852565b6001600160e01b0319811663bc197c8160e01b146119e05760405162461bcd60e51b8152600401610587906138f7565b60008181526001830160205260408120546125d4575081546001818101845560008481526020808220909301849055845484825282860190935260409020919091556105b5565b5060006105b5565b600081815260018301602052604081205480156126c5576000612600600183613a2f565b855490915060009061261490600190613a2f565b9050818114612679576000866000018281548110612634576126346132ae565b9060005260206000200154905080876000018481548110612657576126576132ae565b6000918252602080832090910192909255918252600188019052604090208390555b855486908061268a5761268a613aa4565b6001900381819060005260206000200160009055905585600101600086815260200190815260200160002060009055600193505050506105b5565b60009150506105b5565b5092915050565b6126e4868686868686612844565b6001600160a01b03851661276c5760005b835181101561276a57828181518110612710576127106132ae565b60200260200101516101c3600086848151811061272f5761272f6132ae565b60200260200101518152602001908152602001600020600082825461275491906132da565b909155506127639050816132f2565b90506126f5565b505b6001600160a01b038416611f035760005b83518110156119e057828181518110612798576127986132ae565b60200260200101516101c360008684815181106127b7576127b76132ae565b6020026020010151815260200190815260200160002060008282546127dc9190613a2f565b909155506127eb9050816132f2565b905061277d565b80516109349060cb9060208401906128fa565b61093482826110d6565b60006001600160e01b03198216637965db0b60e01b14806105b557506301ffc9a760e01b6001600160e01b03198316146105b5565b611f0386868686868661012d5460ff1615611f035760405162461bcd60e51b815260206004820152602c60248201527f455243313135355061757361626c653a20746f6b656e207472616e736665722060448201526b1dda1a5b19481c185d5cd95960a21b6064820152608401610587565b6040805161010081018252600080825260208201819052918101829052606081018290526080810182905260a0810182905260c0810182905260e081019190915290565b82805461290690613216565b90600052602060002090601f016020900481019282612928576000855561296e565b82601f1061294157805160ff191683800117855561296e565b8280016001018555821561296e579182015b8281111561296e578251825591602001919060010190612953565b5061297a92915061297e565b5090565b5b8082111561297a576000815560010161297f565b6001600160a01b0381168114610cbd57600080fd5b80356129b381612993565b919050565b600080604083850312156129cb57600080fd5b82356129d681612993565b946020939093013593505050565b6001600160e01b031981168114610cbd57600080fd5b600060208284031215612a0c57600080fd5b8135610a3c816129e4565b600060208284031215612a2957600080fd5b5035919050565b60006101008201905060ff835116825260ff602084015116602083015260ff604084015116604083015261ffff606084015116606083015261ffff60f01b608084015116608083015260a0830151612a9460a08401826001600160f01b0319169052565b5060c0830151612aaf60c08401826001600160a01b03169052565b5060e08301516126cf60e084018263ffffffff169052565b60005b83811015612ae2578181015183820152602001612aca565b838111156109965750506000910152565b60008151808452612b0b816020860160208601612ac7565b601f01601f19169290920160200192915050565b602081526000610a3c6020830184612af3565b634e487b7160e01b600052604160045260246000fd5b601f8201601f191681016001600160401b0381118282101715612b6d57612b6d612b32565b6040525050565b60006001600160401b03821115612b8d57612b8d612b32565b5060051b60200190565b600082601f830112612ba857600080fd5b81356020612bb582612b74565b604051612bc28282612b48565b83815260059390931b8501820192828101915086841115612be257600080fd5b8286015b84811015612bfd5780358352918301918301612be6565b509695505050505050565b60006001600160401b03831115612c2157612c21612b32565b604051612c38601f8501601f191660200182612b48565b809150838152848484011115612c4d57600080fd5b83836020830137600060208583010152509392505050565b600082601f830112612c7657600080fd5b610a3c83833560208501612c08565b60008060008060808587031215612c9b57600080fd5b8435612ca681612993565b935060208501356001600160401b0380821115612cc257600080fd5b612cce88838901612b97565b94506040870135915080821115612ce457600080fd5b612cf088838901612b97565b93506060870135915080821115612d0657600080fd5b50612d1387828801612c65565b91505092959194509250565b600080600080600060a08688031215612d3757600080fd5b8535612d4281612993565b94506020860135612d5281612993565b935060408601356001600160401b0380821115612d6e57600080fd5b612d7a89838a01612b97565b94506060880135915080821115612d9057600080fd5b612d9c89838a01612b97565b93506080880135915080821115612db257600080fd5b50612dbf88828901612c65565b9150509295509295909350565b60008060408385031215612ddf57600080fd5b823591506020830135612df181612993565b809150509250929050565b8015158114610cbd57600080fd5b600080600060608486031215612e1f57600080fd5b8335612e2a81612993565b92506020840135612e3a81612993565b91506040840135612e4a81612dfc565b809150509250925092565b60008060208385031215612e6857600080fd5b82356001600160401b0380821115612e7f57600080fd5b818501915085601f830112612e9357600080fd5b813581811115612ea257600080fd5b866020828501011115612eb457600080fd5b60209290920196919550909350505050565b60008060408385031215612ed957600080fd5b82356001600160401b0380821115612ef057600080fd5b818501915085601f830112612f0457600080fd5b81356020612f1182612b74565b604051612f1e8282612b48565b83815260059390931b8501820192828101915089841115612f3e57600080fd5b948201945b83861015612f65578535612f5681612993565b82529482019490820190612f43565b96505086013592505080821115612f7b57600080fd5b50612f8885828601612b97565b9150509250929050565b600081518084526020808501945080840160005b83811015612fc257815187529582019590820190600101612fa6565b509495945050505050565b602081526000610a3c6020830184612f92565b600080600060608486031215612ff557600080fd5b833561300081612993565b925060208401356001600160401b038082111561301c57600080fd5b61302887838801612b97565b9350604086013591508082111561303e57600080fd5b5061304b86828701612b97565b9150509250925092565b6000806000806080858703121561306b57600080fd5b843561307681612993565b9350602085013592506040850135915060608501356001600160401b0381111561309f57600080fd5b612d1387828801612c65565b600080604083850312156130be57600080fd5b50508035926020909101359150565b600080604083850312156130e057600080fd5b82356130eb81612993565b91506020830135612df181612dfc565b6000806040838503121561310e57600080fd5b823561311981612993565b91506020830135612df181612993565b600080600080600060a0868803121561314157600080fd5b853561314c81612993565b9450602086013561315c81612993565b9350604086013592506060860135915060808601356001600160401b0381111561318557600080fd5b612dbf88828901612c65565b6000806000606084860312156131a657600080fd5b83356131b181612993565b95602085013595506040909401359392505050565b6000602082840312156131d857600080fd5b81356001600160401b038111156131ee57600080fd5b8201601f810184136131ff57600080fd5b61320e84823560208401612c08565b949350505050565b600181811c9082168061322a57607f821691505b60208210810361324a57634e487b7160e01b600052602260045260246000fd5b50919050565b60006040828403121561326257600080fd5b604051604081018181106001600160401b038211171561328457613284612b32565b604052825161329281612993565b815260208301516132a281612dfc565b60208201529392505050565b634e487b7160e01b600052603260045260246000fd5b634e487b7160e01b600052601160045260246000fd5b600082198211156132ed576132ed6132c4565b500190565b600060018201613304576133046132c4565b5060010190565b60208082526029908201527f455243313135353a2063616c6c6572206973206e6f74206f776e6572206e6f7260408201526808185c1c1c9bdd995960ba1b606082015260800190565b60208082526038908201527f455243313135355072657365744d696e7465725061757365723a206d7573742060408201527f68617665206d696e74657220726f6c6520746f206d696e740000000000000000606082015260800190565b6020808252602e908201527f496e697469616c697a61626c653a20636f6e747261637420697320616c72656160408201526d191e481a5b9a5d1a585b1a5e995960921b606082015260800190565b7f416363657373436f6e74726f6c3a206163636f756e7420000000000000000000815260008351613437816017850160208801612ac7565b7001034b99036b4b9b9b4b733903937b6329607d1b6017918401918201528351613468816028840160208801612ac7565b01602801949350505050565b803560ff811681146129b357600080fd5b60006020828403121561349757600080fd5b610a3c82613474565b803561ffff811681146129b357600080fd5b80356001600160f01b0319811681146129b357600080fd5b803563ffffffff811681146129b357600080fd5b60006101008083850312156134f257600080fd5b604051908101906001600160401b038211818310171561351457613514612b32565b8160405261352184613474565b815261352f60208501613474565b602082015261354060408501613474565b6040820152613551606085016134a0565b6060820152613562608085016134b2565b608082015261357360a085016134b2565b60a082015261358460c085016129a8565b60c082015261359560e085016134ca565b60e0820152949350505050565b60008160001904831182151516156135bc576135bc6132c4565b500290565b60208082526023908201527f455243313135353a206275726e2066726f6d20746865207a65726f206164647260408201526265737360e81b606082015260800190565b60208082526028908201527f455243313135353a2069647320616e6420616d6f756e7473206c656e677468206040820152670dad2e6dac2e8c6d60c31b606082015260800190565b60208082526024908201527f455243313135353a206275726e20616d6f756e7420657863656564732062616c604082015263616e636560e01b606082015260800190565b6040815260006136a36040830185612f92565b82810360208401526136b58185612f92565b95945050505050565b60208082526021908201527f455243313135353a206d696e7420746f20746865207a65726f206164647265736040820152607360f81b606082015260800190565b6020808252602b908201527f496e697469616c697a61626c653a20636f6e7472616374206973206e6f74206960408201526a6e697469616c697a696e6760a81b606082015260800190565b60208082526025908201527f455243313135353a207472616e7366657220746f20746865207a65726f206164604082015264647265737360d81b606082015260800190565b6020808252602a908201527f455243313135353a20696e73756666696369656e742062616c616e636520666f60408201526939103a3930b739b332b960b11b606082015260800190565b6000816137e8576137e86132c4565b506000190190565b6001600160a01b03868116825285166020820152604081018490526060810183905260a06080820181905260009061382a90830184612af3565b979650505050505050565b60006020828403121561384757600080fd5b8151610a3c816129e4565b600060033d111561386b5760046000803e5060005160e01c5b90565b600060443d101561387c5790565b6040516003193d81016004833e81513d6001600160401b0381602484011181841117156138ab57505050505090565b82850191508151818111156138c35750505050505090565b843d87010160208285010111156138dd5750505050505090565b6138ec60208286010187612b48565b509095945050505050565b60208082526028908201527f455243313135353a204552433131353552656365697665722072656a656374656040820152676420746f6b656e7360c01b606082015260800190565b600181815b8085111561397a578160001904821115613960576139606132c4565b8085161561396d57918102915b93841c9390800290613944565b509250929050565b600082613991575060016105b5565b8161399e575060006105b5565b81600181146139b457600281146139be576139da565b60019150506105b5565b60ff8411156139cf576139cf6132c4565b50506001821b6105b5565b5060208310610133831016604e8410600b84101617156139fd575081810a6105b5565b613a07838361393f565b8060001904821115613a1b57613a1b6132c4565b029392505050565b6000610a3c8383613982565b600082821015613a4157613a416132c4565b500390565b6001600160a01b0386811682528516602082015260a060408201819052600090613a7290830186612f92565b8281036060840152613a848186612f92565b90508281036080840152613a988185612af3565b98975050505050505050565b634e487b7160e01b600052603160045260246000fdfe65d7a28e3265b37a6474929f336521b332c1681b933f6cb9f3376673440d862a9f2df0fed2c77648de5860a4cc508cd0818c85b8b8a1ab4ceeef8d981c8956a668747470733a2f2f6e6f72692e636f6d2f6170692f72656d6f76616c2f7b69647d2e6a736f6ea26469706673582212209eb8e901d1b50f2bdbcf2e580521410a91009e1610bd1fe37f6270db4fd2e85564736f6c634300080d0033",
  "linkReferences": {},
  "deployedLinkReferences": {}
}