{
  "_format": "hh-sol-artifact-1",
  "contractName": "Removal",
  "sourceName": "contracts/Removal.sol",
  "abi": [
    {
      "inputs": [],
      "stateMutability": "nonpayable",
      "type": "constructor"
    },
    {
      "inputs": [
        {
          "internalType": "string",
          "name": "array1Name",
          "type": "string"
        },
        {
          "internalType": "string",
          "name": "array2Name",
          "type": "string"
        }
      ],
      "name": "ArrayLengthMismatch",
      "type": "error"
    },
    {
      "inputs": [
        {
          "internalType": "uint256",
          "name": "tokenId",
          "type": "uint256"
        }
      ],
      "name": "TokenIdDoesNotExist",
      "type": "error"
    },
    {
      "inputs": [
        {
          "internalType": "uint256",
          "name": "tokenId",
          "type": "uint256"
        }
      ],
      "name": "TokenIdExists",
      "type": "error"
    },
    {
      "anonymous": false,
      "inputs": [
        {
          "indexed": true,
          "internalType": "address",
          "name": "account",
          "type": "address"
        },
        {
          "indexed": true,
          "internalType": "address",
          "name": "operator",
          "type": "address"
        },
        {
          "indexed": false,
          "internalType": "bool",
          "name": "approved",
          "type": "bool"
        }
      ],
      "name": "ApprovalForAll",
      "type": "event"
    },
    {
      "anonymous": false,
      "inputs": [
        {
          "indexed": false,
          "internalType": "uint8",
          "name": "version",
          "type": "uint8"
        }
      ],
      "name": "Initialized",
      "type": "event"
    },
    {
      "anonymous": false,
      "inputs": [
        {
          "indexed": false,
          "internalType": "address",
          "name": "account",
          "type": "address"
        }
      ],
      "name": "Paused",
      "type": "event"
    },
    {
      "anonymous": false,
      "inputs": [
        {
          "indexed": true,
          "internalType": "bytes32",
          "name": "role",
          "type": "bytes32"
        },
        {
          "indexed": true,
          "internalType": "bytes32",
          "name": "previousAdminRole",
          "type": "bytes32"
        },
        {
          "indexed": true,
          "internalType": "bytes32",
          "name": "newAdminRole",
          "type": "bytes32"
        }
      ],
      "name": "RoleAdminChanged",
      "type": "event"
    },
    {
      "anonymous": false,
      "inputs": [
        {
          "indexed": true,
          "internalType": "bytes32",
          "name": "role",
          "type": "bytes32"
        },
        {
          "indexed": true,
          "internalType": "address",
          "name": "account",
          "type": "address"
        },
        {
          "indexed": true,
          "internalType": "address",
          "name": "sender",
          "type": "address"
        }
      ],
      "name": "RoleGranted",
      "type": "event"
    },
    {
      "anonymous": false,
      "inputs": [
        {
          "indexed": true,
          "internalType": "bytes32",
          "name": "role",
          "type": "bytes32"
        },
        {
          "indexed": true,
          "internalType": "address",
          "name": "account",
          "type": "address"
        },
        {
          "indexed": true,
          "internalType": "address",
          "name": "sender",
          "type": "address"
        }
      ],
      "name": "RoleRevoked",
      "type": "event"
    },
    {
      "anonymous": false,
      "inputs": [
        {
          "indexed": true,
          "internalType": "address",
          "name": "operator",
          "type": "address"
        },
        {
          "indexed": true,
          "internalType": "address",
          "name": "from",
          "type": "address"
        },
        {
          "indexed": true,
          "internalType": "address",
          "name": "to",
          "type": "address"
        },
        {
          "indexed": false,
          "internalType": "uint256[]",
          "name": "ids",
          "type": "uint256[]"
        },
        {
          "indexed": false,
          "internalType": "uint256[]",
          "name": "values",
          "type": "uint256[]"
        }
      ],
      "name": "TransferBatch",
      "type": "event"
    },
    {
      "anonymous": false,
      "inputs": [
        {
          "indexed": true,
          "internalType": "address",
          "name": "operator",
          "type": "address"
        },
        {
          "indexed": true,
          "internalType": "address",
          "name": "from",
          "type": "address"
        },
        {
          "indexed": true,
          "internalType": "address",
          "name": "to",
          "type": "address"
        },
        {
          "indexed": false,
          "internalType": "uint256",
          "name": "id",
          "type": "uint256"
        },
        {
          "indexed": false,
          "internalType": "uint256",
          "name": "value",
          "type": "uint256"
        }
      ],
      "name": "TransferSingle",
      "type": "event"
    },
    {
      "anonymous": false,
      "inputs": [
        {
          "indexed": false,
          "internalType": "string",
          "name": "value",
          "type": "string"
        },
        {
          "indexed": true,
          "internalType": "uint256",
          "name": "id",
          "type": "uint256"
        }
      ],
      "name": "URI",
      "type": "event"
    },
    {
      "anonymous": false,
      "inputs": [
        {
          "indexed": false,
          "internalType": "address",
          "name": "account",
          "type": "address"
        }
      ],
      "name": "Unpaused",
      "type": "event"
    },
    {
      "inputs": [],
      "name": "DEFAULT_ADMIN_ROLE",
      "outputs": [
        {
          "internalType": "bytes32",
          "name": "",
          "type": "bytes32"
        }
      ],
      "stateMutability": "view",
      "type": "function"
    },
    {
      "inputs": [],
      "name": "MINTER_ROLE",
      "outputs": [
        {
          "internalType": "bytes32",
          "name": "",
          "type": "bytes32"
        }
      ],
      "stateMutability": "view",
      "type": "function"
    },
    {
      "inputs": [],
      "name": "PAUSER_ROLE",
      "outputs": [
        {
          "internalType": "bytes32",
          "name": "",
          "type": "bytes32"
        }
      ],
      "stateMutability": "view",
      "type": "function"
    },
    {
      "inputs": [],
      "name": "RELEASER_ROLE",
      "outputs": [
        {
          "internalType": "bytes32",
          "name": "",
          "type": "bytes32"
        }
      ],
      "stateMutability": "view",
      "type": "function"
    },
    {
      "inputs": [
        {
          "internalType": "address",
          "name": "account",
          "type": "address"
        },
        {
          "internalType": "uint256",
          "name": "id",
          "type": "uint256"
        }
      ],
      "name": "balanceOf",
      "outputs": [
        {
          "internalType": "uint256",
          "name": "",
          "type": "uint256"
        }
      ],
      "stateMutability": "view",
      "type": "function"
    },
    {
      "inputs": [
        {
          "internalType": "address[]",
          "name": "accounts",
          "type": "address[]"
        },
        {
          "internalType": "uint256[]",
          "name": "ids",
          "type": "uint256[]"
        }
      ],
      "name": "balanceOfBatch",
      "outputs": [
        {
          "internalType": "uint256[]",
          "name": "",
          "type": "uint256[]"
        }
      ],
      "stateMutability": "view",
      "type": "function"
    },
    {
      "inputs": [
        {
          "internalType": "address",
          "name": "account",
          "type": "address"
        },
        {
          "internalType": "uint256[]",
          "name": "ids",
          "type": "uint256[]"
        }
      ],
      "name": "balanceOfIds",
      "outputs": [
        {
          "internalType": "uint256[]",
          "name": "",
          "type": "uint256[]"
        }
      ],
      "stateMutability": "view",
      "type": "function"
    },
    {
      "inputs": [
        {
          "internalType": "uint256[]",
          "name": "removalIds",
          "type": "uint256[]"
        }
      ],
      "name": "batchGetHoldbackPercentages",
      "outputs": [
        {
          "internalType": "uint256[]",
          "name": "",
          "type": "uint256[]"
        }
      ],
      "stateMutability": "view",
      "type": "function"
    },
    {
      "inputs": [
        {
          "internalType": "uint256[]",
          "name": "removalIds",
          "type": "uint256[]"
        },
        {
          "internalType": "uint256",
          "name": "holdbackPercentage",
          "type": "uint256"
        }
      ],
      "name": "batchSetHoldbackPercentage",
      "outputs": [],
      "stateMutability": "nonpayable",
      "type": "function"
    },
    {
      "inputs": [
        {
          "internalType": "address",
          "name": "account",
          "type": "address"
        },
        {
          "internalType": "uint256",
          "name": "id",
          "type": "uint256"
        },
        {
          "internalType": "uint256",
          "name": "value",
          "type": "uint256"
        }
      ],
      "name": "burn",
      "outputs": [],
      "stateMutability": "nonpayable",
      "type": "function"
    },
    {
      "inputs": [
        {
          "internalType": "address",
          "name": "account",
          "type": "address"
        },
        {
          "internalType": "uint256[]",
          "name": "ids",
          "type": "uint256[]"
        },
        {
          "internalType": "uint256[]",
          "name": "values",
          "type": "uint256[]"
        }
      ],
      "name": "burnBatch",
      "outputs": [],
      "stateMutability": "nonpayable",
      "type": "function"
    },
    {
      "inputs": [
        {
          "internalType": "bytes",
          "name": "removalData",
          "type": "bytes"
        }
      ],
      "name": "createRemovalId",
      "outputs": [
        {
          "internalType": "uint256",
          "name": "",
          "type": "uint256"
        }
      ],
      "stateMutability": "pure",
      "type": "function"
    },
    {
      "inputs": [
        {
          "internalType": "address",
          "name": "owner",
          "type": "address"
        }
      ],
      "name": "cumulativeBalanceOf",
      "outputs": [
        {
          "internalType": "uint256",
          "name": "",
          "type": "uint256"
        }
      ],
      "stateMutability": "view",
      "type": "function"
    },
    {
      "inputs": [
        {
          "internalType": "address[]",
          "name": "accounts",
          "type": "address[]"
        }
      ],
      "name": "cumulativeBalanceOfBatch",
      "outputs": [
        {
          "internalType": "uint256[]",
          "name": "",
          "type": "uint256[]"
        }
      ],
      "stateMutability": "view",
      "type": "function"
    },
    {
      "inputs": [
        {
          "internalType": "uint256",
          "name": "id",
          "type": "uint256"
        }
      ],
      "name": "exists",
      "outputs": [
        {
          "internalType": "bool",
          "name": "",
          "type": "bool"
        }
      ],
      "stateMutability": "view",
      "type": "function"
    },
    {
      "inputs": [
        {
          "internalType": "uint256",
          "name": "removalId",
          "type": "uint256"
        }
      ],
      "name": "getProjectIdForRemoval",
      "outputs": [
        {
          "internalType": "uint256",
          "name": "",
          "type": "uint256"
        }
      ],
      "stateMutability": "view",
      "type": "function"
    },
    {
      "inputs": [
        {
          "internalType": "bytes32",
          "name": "role",
          "type": "bytes32"
        }
      ],
      "name": "getRoleAdmin",
      "outputs": [
        {
          "internalType": "bytes32",
          "name": "",
          "type": "bytes32"
        }
      ],
      "stateMutability": "view",
      "type": "function"
    },
    {
      "inputs": [
        {
          "internalType": "bytes32",
          "name": "role",
          "type": "bytes32"
        },
        {
          "internalType": "uint256",
          "name": "index",
          "type": "uint256"
        }
      ],
      "name": "getRoleMember",
      "outputs": [
        {
          "internalType": "address",
          "name": "",
          "type": "address"
        }
      ],
      "stateMutability": "view",
      "type": "function"
    },
    {
      "inputs": [
        {
          "internalType": "bytes32",
          "name": "role",
          "type": "bytes32"
        }
      ],
      "name": "getRoleMemberCount",
      "outputs": [
        {
          "internalType": "uint256",
          "name": "",
          "type": "uint256"
        }
      ],
      "stateMutability": "view",
      "type": "function"
    },
    {
      "inputs": [
        {
          "internalType": "uint256",
          "name": "projectId",
          "type": "uint256"
        }
      ],
      "name": "getScheduleDataForProjectId",
      "outputs": [
        {
          "components": [
            {
              "internalType": "uint256",
              "name": "startTime",
              "type": "uint256"
            },
            {
              "internalType": "address",
              "name": "supplierAddress",
              "type": "address"
            },
            {
              "internalType": "uint256",
              "name": "methodology",
              "type": "uint256"
            },
            {
              "internalType": "uint256",
              "name": "methodologyVersion",
              "type": "uint256"
            }
          ],
          "internalType": "struct Removal.ScheduleData",
          "name": "",
          "type": "tuple"
        }
      ],
      "stateMutability": "view",
      "type": "function"
    },
    {
      "inputs": [
        {
          "internalType": "uint256",
          "name": "removalId",
          "type": "uint256"
        }
      ],
      "name": "getScheduleDataForRemovalId",
      "outputs": [
        {
          "components": [
            {
              "internalType": "uint256",
              "name": "startTime",
              "type": "uint256"
            },
            {
              "internalType": "address",
              "name": "supplierAddress",
              "type": "address"
            },
            {
              "internalType": "uint256",
              "name": "methodology",
              "type": "uint256"
            },
            {
              "internalType": "uint256",
              "name": "methodologyVersion",
              "type": "uint256"
            }
          ],
          "internalType": "struct Removal.ScheduleData",
          "name": "",
          "type": "tuple"
        }
      ],
      "stateMutability": "view",
      "type": "function"
    },
    {
      "inputs": [
        {
          "internalType": "bytes32",
          "name": "role",
          "type": "bytes32"
        },
        {
          "internalType": "address",
          "name": "account",
          "type": "address"
        }
      ],
      "name": "grantRole",
      "outputs": [],
      "stateMutability": "nonpayable",
      "type": "function"
    },
    {
      "inputs": [
        {
          "internalType": "bytes32",
          "name": "role",
          "type": "bytes32"
        },
        {
          "internalType": "address",
          "name": "account",
          "type": "address"
        }
      ],
      "name": "hasRole",
      "outputs": [
        {
          "internalType": "bool",
          "name": "",
          "type": "bool"
        }
      ],
      "stateMutability": "view",
      "type": "function"
    },
    {
      "inputs": [],
      "name": "initialize",
      "outputs": [],
      "stateMutability": "nonpayable",
      "type": "function"
    },
    {
      "inputs": [
        {
          "internalType": "address",
          "name": "account",
          "type": "address"
        },
        {
          "internalType": "address",
          "name": "operator",
          "type": "address"
        }
      ],
      "name": "isApprovedForAll",
      "outputs": [
        {
          "internalType": "bool",
          "name": "",
          "type": "bool"
        }
      ],
      "stateMutability": "view",
      "type": "function"
    },
    {
      "inputs": [],
      "name": "marketAddress",
      "outputs": [
        {
          "internalType": "address",
          "name": "",
          "type": "address"
        }
      ],
      "stateMutability": "view",
      "type": "function"
    },
    {
      "inputs": [
        {
          "internalType": "address",
          "name": "to",
          "type": "address"
        },
        {
          "internalType": "uint256[]",
          "name": "amounts",
          "type": "uint256[]"
        },
        {
          "internalType": "uint256[]",
          "name": "ids",
          "type": "uint256[]"
        },
        {
          "components": [
            {
              "internalType": "uint256",
              "name": "projectId",
              "type": "uint256"
            },
            {
              "internalType": "uint256",
              "name": "scheduleStartTime",
              "type": "uint256"
            },
            {
              "internalType": "uint256",
              "name": "holdbackPercentage",
              "type": "uint256"
            },
            {
              "internalType": "bool",
              "name": "list",
              "type": "bool"
            }
          ],
          "internalType": "struct BatchMintRemovalsData",
          "name": "data",
          "type": "tuple"
        }
      ],
      "name": "mintBatch",
      "outputs": [],
      "stateMutability": "nonpayable",
      "type": "function"
    },
    {
      "inputs": [
        {
          "internalType": "address",
          "name": "account",
          "type": "address"
        }
      ],
      "name": "numberOfTokensOwnedByAddress",
      "outputs": [
        {
          "internalType": "uint256",
          "name": "",
          "type": "uint256"
        }
      ],
      "stateMutability": "view",
      "type": "function"
    },
    {
      "inputs": [],
      "name": "paused",
      "outputs": [
        {
          "internalType": "bool",
          "name": "",
          "type": "bool"
        }
      ],
      "stateMutability": "view",
      "type": "function"
    },
    {
      "inputs": [
        {
          "internalType": "contract RestrictedNORI",
          "name": "restrictedNoriAddress_",
          "type": "address"
        },
        {
          "internalType": "contract Market",
          "name": "marketAddress_",
          "type": "address"
        }
      ],
      "name": "registerContractAddresses",
      "outputs": [],
      "stateMutability": "nonpayable",
      "type": "function"
    },
    {
      "inputs": [
        {
          "internalType": "address",
          "name": "owner",
          "type": "address"
        },
        {
          "internalType": "uint256",
          "name": "removalId",
          "type": "uint256"
        },
        {
          "internalType": "uint256",
          "name": "amount",
          "type": "uint256"
        }
      ],
      "name": "release",
      "outputs": [],
      "stateMutability": "nonpayable",
      "type": "function"
    },
    {
      "inputs": [
        {
          "internalType": "bytes32",
          "name": "role",
          "type": "bytes32"
        },
        {
          "internalType": "address",
          "name": "account",
          "type": "address"
        }
      ],
      "name": "renounceRole",
      "outputs": [],
      "stateMutability": "nonpayable",
      "type": "function"
    },
    {
      "inputs": [],
      "name": "restrictedNoriAddress",
      "outputs": [
        {
          "internalType": "address",
          "name": "",
          "type": "address"
        }
      ],
      "stateMutability": "view",
      "type": "function"
    },
    {
      "inputs": [
        {
          "internalType": "bytes32",
          "name": "role",
          "type": "bytes32"
        },
        {
          "internalType": "address",
          "name": "account",
          "type": "address"
        }
      ],
      "name": "revokeRole",
      "outputs": [],
      "stateMutability": "nonpayable",
      "type": "function"
    },
    {
      "inputs": [
        {
          "internalType": "address",
          "name": "from",
          "type": "address"
        },
        {
          "internalType": "address",
          "name": "to",
          "type": "address"
        },
        {
          "internalType": "uint256[]",
          "name": "ids",
          "type": "uint256[]"
        },
        {
          "internalType": "uint256[]",
          "name": "amounts",
          "type": "uint256[]"
        },
        {
          "internalType": "bytes",
          "name": "data",
          "type": "bytes"
        }
      ],
      "name": "safeBatchTransferFrom",
      "outputs": [],
      "stateMutability": "nonpayable",
      "type": "function"
    },
    {
      "inputs": [
        {
          "internalType": "address",
          "name": "from",
          "type": "address"
        },
        {
          "internalType": "address",
          "name": "to",
          "type": "address"
        },
        {
          "internalType": "uint256",
          "name": "id",
          "type": "uint256"
        },
        {
          "internalType": "uint256",
          "name": "amount",
          "type": "uint256"
        },
        {
          "internalType": "bytes",
          "name": "data",
          "type": "bytes"
        }
      ],
      "name": "safeTransferFrom",
      "outputs": [],
      "stateMutability": "nonpayable",
      "type": "function"
    },
    {
      "inputs": [
        {
          "internalType": "address",
          "name": "owner",
          "type": "address"
        },
        {
          "internalType": "address",
          "name": "operator",
          "type": "address"
        },
        {
          "internalType": "bool",
          "name": "approved",
          "type": "bool"
        }
      ],
      "name": "setApprovalForAll",
      "outputs": [],
      "stateMutability": "nonpayable",
      "type": "function"
    },
    {
      "inputs": [
        {
          "internalType": "address",
          "name": "operator",
          "type": "address"
        },
        {
          "internalType": "bool",
          "name": "approved",
          "type": "bool"
        }
      ],
      "name": "setApprovalForAll",
      "outputs": [],
      "stateMutability": "nonpayable",
      "type": "function"
    },
    {
      "inputs": [
        {
          "internalType": "bytes4",
          "name": "interfaceId",
          "type": "bytes4"
        }
      ],
      "name": "supportsInterface",
      "outputs": [
        {
          "internalType": "bool",
          "name": "",
          "type": "bool"
        }
      ],
      "stateMutability": "view",
      "type": "function"
    },
    {
      "inputs": [
        {
          "internalType": "address",
          "name": "owner",
          "type": "address"
        }
      ],
      "name": "tokensOfOwner",
      "outputs": [
        {
          "internalType": "uint256[]",
          "name": "",
          "type": "uint256[]"
        }
      ],
      "stateMutability": "view",
      "type": "function"
    },
    {
      "inputs": [
        {
          "internalType": "uint256",
          "name": "id",
          "type": "uint256"
        }
      ],
      "name": "totalSupply",
      "outputs": [
        {
          "internalType": "uint256",
          "name": "",
          "type": "uint256"
        }
      ],
      "stateMutability": "view",
      "type": "function"
    },
    {
      "inputs": [
        {
          "internalType": "uint256",
          "name": "removalId",
          "type": "uint256"
        }
      ],
      "name": "unpackRemovalIdV0",
      "outputs": [
        {
          "components": [
            {
              "internalType": "uint8",
              "name": "idVersion",
              "type": "uint8"
            },
            {
              "internalType": "uint8",
              "name": "methodology",
              "type": "uint8"
            },
            {
              "internalType": "uint8",
              "name": "methodologyVersion",
              "type": "uint8"
            },
            {
              "internalType": "uint16",
              "name": "vintage",
              "type": "uint16"
            },
            {
              "internalType": "bytes2",
              "name": "country",
              "type": "bytes2"
            },
            {
              "internalType": "bytes2",
              "name": "subdivision",
              "type": "bytes2"
            },
            {
              "internalType": "address",
              "name": "supplierAddress",
              "type": "address"
            },
            {
              "internalType": "uint32",
              "name": "subIdentifier",
              "type": "uint32"
            }
          ],
          "internalType": "struct UnpackedRemovalIdV0",
          "name": "",
          "type": "tuple"
        }
      ],
      "stateMutability": "pure",
      "type": "function"
    },
    {
      "inputs": [
        {
          "internalType": "uint256",
          "name": "",
          "type": "uint256"
        }
      ],
      "name": "uri",
      "outputs": [
        {
          "internalType": "string",
          "name": "",
          "type": "string"
        }
      ],
      "stateMutability": "view",
      "type": "function"
    }
  ],
  "bytecode": "0x60806040523480156200001157600080fd5b506200001c62000022565b620000e4565b600054610100900460ff16156200008f5760405162461bcd60e51b815260206004820152602760248201527f496e697469616c697a61626c653a20636f6e747261637420697320696e697469604482015266616c697a696e6760c81b606482015260840160405180910390fd5b60005460ff9081161015620000e2576000805460ff191660ff9081179091556040519081527f7f26b83ff96e1f2b6a682f133852f6798a09c465da95921460cefb38474024989060200160405180910390a15b565b61557180620000f46000396000f3fe608060405234801561001057600080fd5b50600436106102e85760003560e01c806391d1485411610191578063c1b8ecdd116100e3578063e0fc293811610097578063f242432a11610071578063f242432a14610778578063f297be661461078b578063f5298aca1461079e57600080fd5b8063e0fc2938146106e7578063e63ab1e914610708578063e985e9c51461072f57600080fd5b8063d5391393116100c8578063d53913931461068d578063d547741f146106b4578063d85a53e9146106c757600080fd5b8063c1b8ecdd14610667578063ca15c8731461067a57600080fd5b8063a22cb46511610145578063ac28af241161011f578063ac28af241461060c578063b6477cc014610633578063bd85b0391461064657600080fd5b8063a22cb465146105d3578063a42f3061146105e6578063a53ba527146105f957600080fd5b80639562364111610176578063956236411461059957806399d5121b146105b8578063a217fddf146105cb57600080fd5b806391d148541461053f57806393ae796d1461058657600080fd5b806348ec4c3b1161024a578063789e8cdf116101fe5780638462151c116101d85780638462151c14610506578063854560a4146105195780639010d07c1461052c57600080fd5b8063789e8cdf146104ab5780637f7081fa146104be5780638129fc1c146104fe57600080fd5b80634f558e791161022f5780634f558e791461046a5780635c975abb1461048d5780636b20c4541461049857600080fd5b806348ec4c3b146104445780634e1273f41461045757600080fd5b8063248a9ca3116102a15780632f2ff15d116102865780632f2ff15d1461040b57806336568abe1461041e578063367605ca1461043157600080fd5b8063248a9ca3146103d25780632eb2c2d6146103f657600080fd5b806301ffc9a7116102d257806301ffc9a7146103335780630e89341c146103565780631990ad051461037657600080fd5b8062fdd58e146102ed578063018e1c8314610313575b600080fd5b6103006102fb3660046142fc565b6107b1565b6040519081526020015b60405180910390f35b610326610321366004614452565b610893565b60405161030a91906144dd565b61034661034136600461451e565b610941565b604051901515815260200161030a565b61036961036436600461453b565b61094c565b60405161030a91906145ca565b61038961038436600461453b565b6109e0565b60405161030a91908151815260208083015173ffffffffffffffffffffffffffffffffffffffff1690820152604080830151908201526060918201519181019190915260800190565b6103006103e036600461453b565b600090815261015f602052604090206001015490565b61040961040436600461466f565b610a88565b005b61040961041936600461471d565b610b51565b61040961042c36600461471d565b610b7c565b61040961043f36600461475d565b610c2f565b6103006104523660046147a4565b610c3a565b610326610465366004614885565b610c4d565b61034661047836600461453b565b600090815261012d6020526040902054151590565b60975460ff16610346565b6104096104a63660046148df565b610d90565b6103006104b9366004614955565b610e50565b6101c35473ffffffffffffffffffffffffffffffffffffffff165b60405173ffffffffffffffffffffffffffffffffffffffff909116815260200161030a565b610409610e7f565b610326610514366004614955565b6110db565b610300610527366004614955565b61110d565b6104d961053a366004614972565b611239565b61034661054d36600461471d565b600091825261015f6020908152604080842073ffffffffffffffffffffffffffffffffffffffff93909316845291905290205460ff1690565b610409610594366004614994565b611252565b6101c45473ffffffffffffffffffffffffffffffffffffffff166104d9565b6103896105c636600461453b565b6112b3565b610300600081565b6104096105e13660046149c2565b611350565b6104096105f43660046149f7565b61135b565b610409610607366004614adc565b61166e565b6103007f88f3509f0e42391f2d94ebfb2a37cbd0782b1b8f73715330017f4663290b811781565b610326610641366004614b57565b6116c4565b61030061065436600461453b565b600090815261012d602052604090205490565b610326610675366004614b94565b61177f565b61030061068836600461453b565b611825565b6103007f9f2df0fed2c77648de5860a4cc508cd0818c85b8b8a1ab4ceeef8d981c8956a681565b6104096106c236600461471d565b61183d565b6106da6106d536600461453b565b611863565b60405161030a9190614bc9565b6103006106f536600461453b565b60009081526101c5602052604090205490565b6103007f65d7a28e3265b37a6474929f336521b332c1681b933f6cb9f3376673440d862a81565b61034661073d366004614994565b73ffffffffffffffffffffffffffffffffffffffff918216600090815260666020908152604080832093909416825291909152205460ff1690565b610409610786366004614ca0565b6118ad565b610409610799366004614d09565b61196f565b6104096107ac366004614d09565b611a4b565b600073ffffffffffffffffffffffffffffffffffffffff831661085b576040517f08c379a000000000000000000000000000000000000000000000000000000000815260206004820152602a60248201527f455243313135353a2061646472657373207a65726f206973206e6f742061207660448201527f616c6964206f776e65720000000000000000000000000000000000000000000060648201526084015b60405180910390fd5b50600081815260656020908152604080832073ffffffffffffffffffffffffffffffffffffffff861684529091529020545b92915050565b60606000825167ffffffffffffffff8111156108b1576108b1614328565b6040519080825280602002602001820160405280156108da578160200160208202803683370190505b50905060005b83518110156109395761090c858583815181106108ff576108ff614d3e565b60200260200101516107b1565b82828151811061091e5761091e614d3e565b602090810291909101015261093281614d9c565b90506108e0565b509392505050565b600061088d82611b0b565b60606067805461095b90614dd4565b80601f016020809104026020016040519081016040528092919081815260200182805461098790614dd4565b80156109d45780601f106109a9576101008083540402835291602001916109d4565b820191906000526020600020905b8154815290600101906020018083116109b757829003601f168201915b50505050509050919050565b610a21604051806080016040528060008152602001600073ffffffffffffffffffffffffffffffffffffffff16815260200160008152602001600081525090565b5060009081526101c5602090815260408083205483526101c6825291829020825160808101845281548152600182015473ffffffffffffffffffffffffffffffffffffffff1692810192909252600281015492820192909252600390910154606082015290565b73ffffffffffffffffffffffffffffffffffffffff8516331480610ab15750610ab1853361073d565b610b3d576040517f08c379a000000000000000000000000000000000000000000000000000000000815260206004820152602f60248201527f455243313135353a2063616c6c6572206973206e6f7420746f6b656e206f776e60448201527f6572206e6f7220617070726f76656400000000000000000000000000000000006064820152608401610852565b610b4a8585858585611b61565b5050505050565b600082815261015f6020526040902060010154610b6d81611eac565b610b778383611eb6565b505050565b73ffffffffffffffffffffffffffffffffffffffff81163314610c21576040517f08c379a000000000000000000000000000000000000000000000000000000000815260206004820152602f60248201527f416363657373436f6e74726f6c3a2063616e206f6e6c792072656e6f756e636560448201527f20726f6c657320666f722073656c6600000000000000000000000000000000006064820152608401610852565b610c2b8282611ed9565b5050565b610b77838383611efc565b6000610c46838361204f565b9392505050565b60608151835114610ce0576040517f08c379a000000000000000000000000000000000000000000000000000000000815260206004820152602960248201527f455243313135353a206163636f756e747320616e6420696473206c656e67746860448201527f206d69736d6174636800000000000000000000000000000000000000000000006064820152608401610852565b6000835167ffffffffffffffff811115610cfc57610cfc614328565b604051908082528060200260200182016040528015610d25578160200160208202803683370190505b50905060005b845181101561093957610d63858281518110610d4957610d49614d3e565b60200260200101518583815181106108ff576108ff614d3e565b828281518110610d7557610d75614d3e565b6020908102919091010152610d8981614d9c565b9050610d2b565b73ffffffffffffffffffffffffffffffffffffffff8316331480610db95750610db9833361073d565b610e45576040517f08c379a000000000000000000000000000000000000000000000000000000000815260206004820152602f60248201527f455243313135353a2063616c6c6572206973206e6f7420746f6b656e206f776e60448201527f6572206e6f7220617070726f76656400000000000000000000000000000000006064820152608401610852565b610b77838383612438565b73ffffffffffffffffffffffffffffffffffffffff811660009081526101c76020526040812061088d90612774565b600054610100900460ff1615808015610e9f5750600054600160ff909116105b80610eb95750303b158015610eb9575060005460ff166001145b610f45576040517f08c379a000000000000000000000000000000000000000000000000000000000815260206004820152602e60248201527f496e697469616c697a61626c653a20636f6e747261637420697320616c72656160448201527f647920696e697469616c697a65640000000000000000000000000000000000006064820152608401610852565b600080547fffffffffffffffffffffffffffffffffffffffffffffffffffffffffffffff001660011790558015610fa357600080547fffffffffffffffffffffffffffffffffffffffffffffffffffffffffffff00ff166101001790555b610fc46040518060600160405280602681526020016155166026913961277e565b610fcc61281e565b610fd46128df565b610fdc6128df565b610fe46128df565b610fec6128df565b610ff7600033611eb6565b6110217f65d7a28e3265b37a6474929f336521b332c1681b933f6cb9f3376673440d862a33611eb6565b61104b7f9f2df0fed2c77648de5860a4cc508cd0818c85b8b8a1ab4ceeef8d981c8956a633611eb6565b6110757f88f3509f0e42391f2d94ebfb2a37cbd0782b1b8f73715330017f4663290b811733611eb6565b80156110d857600080547fffffffffffffffffffffffffffffffffffffffffffffffffffffffffffff00ff169055604051600181527f7f26b83ff96e1f2b6a682f133852f6798a09c465da95921460cefb38474024989060200160405180910390a15b50565b73ffffffffffffffffffffffffffffffffffffffff811660009081526101c76020526040902060609061088d90612978565b73ffffffffffffffffffffffffffffffffffffffff811660009081526101c7602052604081208161113d82612774565b905060008167ffffffffffffffff81111561115a5761115a614328565b604051908082528060200260200182016040528015611183578160200160208202803683370190505b50905060005b828110156111d957858282815181106111a4576111a4614d3e565b73ffffffffffffffffffffffffffffffffffffffff909216602092830291909101909101526111d281614d9c565b9050611189565b5060006111e98261046586612978565b90506000805b8481101561122e5782818151811061120957611209614d3e565b60200260200101518261121c9190614e27565b915061122781614d9c565b90506111ef565b509695505050505050565b600082815261019160205260408120610c469083612985565b600061125d81611eac565b506101c3805473ffffffffffffffffffffffffffffffffffffffff9384167fffffffffffffffffffffffff0000000000000000000000000000000000000000918216179091556101c48054929093169116179055565b6112f4604051806080016040528060008152602001600073ffffffffffffffffffffffffffffffffffffffff16815260200160008152602001600081525090565b5060009081526101c66020908152604091829020825160808101845281548152600182015473ffffffffffffffffffffffffffffffffffffffff1692810192909252600281015492820192909252600390910154606082015290565b610c2b338383611efc565b8151835181146113fd57604080517f616c41130000000000000000000000000000000000000000000000000000000081526004810191909152600760448201527f616d6f756e747300000000000000000000000000000000000000000000000000606482015260806024820152600360848201527f696473000000000000000000000000000000000000000000000000000000000060a482015260c401610852565b8151604083015160005b838110156114a457600086828151811061142357611423614d3e565b60200260200101519050611442816101c861299190919063ffffffff16565b1561147c576040517f4acb9c2900000000000000000000000000000000000000000000000000000000815260048101829052602401610852565b60009081526101c56020526040902083815560010182905561149d81614d9c565b9050611407565b506000856000815181106114ba576114ba614d3e565b602002602001015190506040518060800160405280866020015181526020016114e2836129a9565b73ffffffffffffffffffffffffffffffffffffffff168152602001611506836129b8565b60ff168152602001611517836129d1565b60ff16905260008481526101c66020908152604080832084518155848301516001820180547fffffffffffffffffffffffff00000000000000000000000000000000000000001673ffffffffffffffffffffffffffffffffffffffff909216919091179055848201516002820155606090940151600390940193909355825190810190925281526115ad90899088908a906129e9565b6115b988336001610c2f565b8460600151156116645760006101c56000886000815181106115dd576115dd614d3e565b602002602001015181526020019081526020016000206000015460405160200161160991815260200190565b604080517fffffffffffffffffffffffffffffffffffffffffffffffffffffffffffffffe08184030181529190526101c454909150611662908a9073ffffffffffffffffffffffffffffffffffffffff16898b85610a88565b505b5050505050505050565b60005b828110156116be57600084848381811061168d5761168d614d3e565b6020908102929092013560009081526101c59092525060409020600101839055506116b781614d9c565b9050611671565b50505050565b805160609060008167ffffffffffffffff8111156116e4576116e4614328565b60405190808252806020026020018201604052801561170d578160200160208202803683370190505b50905060005b8281101561093957600085828151811061172f5761172f614d3e565b602002602001015190506101c560008281526020019081526020016000206001015483838151811061176357611763614d3e565b60209081029190910101525061177881614d9c565b9050611713565b805160609060008167ffffffffffffffff81111561179f5761179f614328565b6040519080825280602002602001820160405280156117c8578160200160208202803683370190505b50905060005b82811015610939576117f88582815181106117eb576117eb614d3e565b602002602001015161110d565b82828151811061180a5761180a614d3e565b602090810291909101015261181e81614d9c565b90506117ce565b60008181526101916020526040812061088d90612774565b600082815261015f602052604090206001015461185981611eac565b610b778383611ed9565b6040805161010081018252600080825260208201819052918101829052606081018290526080810182905260a0810182905260c0810182905260e081019190915261088d82612c72565b73ffffffffffffffffffffffffffffffffffffffff85163314806118d657506118d6853361073d565b611962576040517f08c379a000000000000000000000000000000000000000000000000000000000815260206004820152602f60248201527f455243313135353a2063616c6c6572206973206e6f7420746f6b656e206f776e60448201527f6572206e6f7220617070726f76656400000000000000000000000000000000006064820152608401610852565b610b4a8585858585612d9f565b7f88f3509f0e42391f2d94ebfb2a37cbd0782b1b8f73715330017f4663290b811761199981611eac565b6119a4848484611a4b565b6101c45473ffffffffffffffffffffffffffffffffffffffff908116908516036116be576040517f366a4120000000000000000000000000000000000000000000000000000000008152600481018490526024810183905273ffffffffffffffffffffffffffffffffffffffff85169063366a412090604401600060405180830381600087803b158015611a3757600080fd5b505af1158015611664573d6000803e3d6000fd5b73ffffffffffffffffffffffffffffffffffffffff8316331480611a745750611a74833361073d565b611b00576040517f08c379a000000000000000000000000000000000000000000000000000000000815260206004820152602f60248201527f455243313135353a2063616c6c6572206973206e6f7420746f6b656e206f776e60448201527f6572206e6f7220617070726f76656400000000000000000000000000000000006064820152608401610852565b610b77838383612fe4565b60007fffffffff0000000000000000000000000000000000000000000000000000000082167f5a05180f00000000000000000000000000000000000000000000000000000000148061088d575061088d8261320b565b8151835114611bf2576040517f08c379a000000000000000000000000000000000000000000000000000000000815260206004820152602860248201527f455243313135353a2069647320616e6420616d6f756e7473206c656e6774682060448201527f6d69736d617463680000000000000000000000000000000000000000000000006064820152608401610852565b73ffffffffffffffffffffffffffffffffffffffff8416611c95576040517f08c379a000000000000000000000000000000000000000000000000000000000815260206004820152602560248201527f455243313135353a207472616e7366657220746f20746865207a65726f20616460448201527f64726573730000000000000000000000000000000000000000000000000000006064820152608401610852565b33611ca4818787878787613261565b60005b8451811015611e17576000858281518110611cc457611cc4614d3e565b602002602001015190506000858381518110611ce257611ce2614d3e565b602090810291909101810151600084815260658352604080822073ffffffffffffffffffffffffffffffffffffffff8e168352909352919091205490915081811015611db0576040517f08c379a000000000000000000000000000000000000000000000000000000000815260206004820152602a60248201527f455243313135353a20696e73756666696369656e742062616c616e636520666f60448201527f72207472616e73666572000000000000000000000000000000000000000000006064820152608401610852565b600083815260656020908152604080832073ffffffffffffffffffffffffffffffffffffffff8e8116855292528083208585039055908b16825281208054849290611dfc908490614e27565b9250508190555050505080611e1090614d9c565b9050611ca7565b508473ffffffffffffffffffffffffffffffffffffffff168673ffffffffffffffffffffffffffffffffffffffff168273ffffffffffffffffffffffffffffffffffffffff167f4a39dc06d4c0dbc64b70af90fd698a233a518aa5d07e595d983b8c0526c8f7fb8787604051611e8e929190614e3f565b60405180910390a4611ea4818787878787613360565b505050505050565b6110d881336135ea565b611ec082826136bd565b600082815261019160205260409020610b7790826137b3565b611ee382826137d5565b600082815261019160205260409020610b779082613892565b8173ffffffffffffffffffffffffffffffffffffffff168373ffffffffffffffffffffffffffffffffffffffff1603611fb7576040517f08c379a000000000000000000000000000000000000000000000000000000000815260206004820152602960248201527f455243313135353a2073657474696e6720617070726f76616c2073746174757360448201527f20666f722073656c6600000000000000000000000000000000000000000000006064820152608401610852565b73ffffffffffffffffffffffffffffffffffffffff83811660008181526066602090815260408083209487168084529482529182902080547fffffffffffffffffffffffffffffffffffffffffffffffffffffffffffffff001686151590811790915591519182527f17307eab39ab6107e8899845ad3d59bd9653f200f220920489ca2b5937696c31910160405180910390a3505050565b60008061205e83850185614e7e565b60ff16905080156120f0576040517f08c379a0000000000000000000000000000000000000000000000000000000008152602060048201526024808201527f556e737570706f727465642072656d6f76616c20746f6b656e2069642076657260448201527f73696f6e000000000000000000000000000000000000000000000000000000006064820152608401610852565b6101008314612181576040517f08c379a000000000000000000000000000000000000000000000000000000000815260206004820152602a60248201527f72656d6f76616c4461746120636f6e7461696e732077726f6e67206e756d626560448201527f72206f66206279746573000000000000000000000000000000000000000000006064820152608401610852565b600061218f84860186614eef565b9050600f816020015160ff161115612203576040517f08c379a000000000000000000000000000000000000000000000000000000000815260206004820152601560248201527f4d6574686f6c6f646f677920746f6f206c6172676500000000000000000000006044820152606401610852565b600f816040015160ff161115612275576040517f08c379a000000000000000000000000000000000000000000000000000000000815260206004820152601d60248201527f4d6574686f6c6f646f67792076657273696f6e20746f6f206c617267650000006044820152606401610852565b608081015160a082015160f882811c9260ff60f091821c8116939283901c9290911c16604184108015906122aa5750605a8411155b80156122b7575060418310155b80156122c45750605a8311155b80156122d1575060418210155b80156122de5750605a8211155b80156122eb575060418110155b80156122f85750605a8111155b61235e576040517f08c379a000000000000000000000000000000000000000000000000000000000815260206004820152600d60248201527f496e76616c6964204153434949000000000000000000000000000000000000006044820152606401610852565b600085604001516004876020015160ff16901b1760ff169050600860006123859190614fb4565b60e087015163ffffffff16901b61239e60086004614fb4565b60c088015173ffffffffffffffffffffffffffffffffffffffff16901b6123c760086018614fb4565b60a089015160f01c901b6123dd6008601a614fb4565b60808a015160f01c901b6123f36008601c614fb4565b60608b015161ffff16901b61240a6008601e614fb4565b86901b6124196008601f614fb4565b8c6000015160ff16901b17171717171797505050505050505092915050565b73ffffffffffffffffffffffffffffffffffffffff83166124db576040517f08c379a000000000000000000000000000000000000000000000000000000000815260206004820152602360248201527f455243313135353a206275726e2066726f6d20746865207a65726f206164647260448201527f65737300000000000000000000000000000000000000000000000000000000006064820152608401610852565b805182511461256c576040517f08c379a000000000000000000000000000000000000000000000000000000000815260206004820152602860248201527f455243313135353a2069647320616e6420616d6f756e7473206c656e6774682060448201527f6d69736d617463680000000000000000000000000000000000000000000000006064820152608401610852565b600033905061258f81856000868660405180602001604052806000815250613261565b60005b83518110156126e05760008482815181106125af576125af614d3e565b6020026020010151905060008483815181106125cd576125cd614d3e565b602090810291909101810151600084815260658352604080822073ffffffffffffffffffffffffffffffffffffffff8c16835290935291909120549091508181101561269a576040517f08c379a0000000000000000000000000000000000000000000000000000000008152602060048201526024808201527f455243313135353a206275726e20616d6f756e7420657863656564732062616c60448201527f616e6365000000000000000000000000000000000000000000000000000000006064820152608401610852565b600092835260656020908152604080852073ffffffffffffffffffffffffffffffffffffffff8b16865290915290922091039055806126d881614d9c565b915050612592565b50600073ffffffffffffffffffffffffffffffffffffffff168473ffffffffffffffffffffffffffffffffffffffff168273ffffffffffffffffffffffffffffffffffffffff167f4a39dc06d4c0dbc64b70af90fd698a233a518aa5d07e595d983b8c0526c8f7fb8686604051612758929190614e3f565b60405180910390a46040805160208101909152600090526116be565b600061088d825490565b600054610100900460ff16612815576040517f08c379a000000000000000000000000000000000000000000000000000000000815260206004820152602b60248201527f496e697469616c697a61626c653a20636f6e7472616374206973206e6f74206960448201527f6e697469616c697a696e670000000000000000000000000000000000000000006064820152608401610852565b6110d8816138b4565b600054610100900460ff166128b5576040517f08c379a000000000000000000000000000000000000000000000000000000000815260206004820152602b60248201527f496e697469616c697a61626c653a20636f6e7472616374206973206e6f74206960448201527f6e697469616c697a696e670000000000000000000000000000000000000000006064820152608401610852565b609780547fffffffffffffffffffffffffffffffffffffffffffffffffffffffffffffff00169055565b600054610100900460ff16612976576040517f08c379a000000000000000000000000000000000000000000000000000000000815260206004820152602b60248201527f496e697469616c697a61626c653a20636f6e7472616374206973206e6f74206960448201527f6e697469616c697a696e670000000000000000000000000000000000000000006064820152608401610852565b565b60606000610c46836138c0565b6000610c46838361391b565b60008181526001830160205260408120541515610c46565b600061088d8260146004613945565b600060046129c9836001601e613945565b901c92915050565b60006129e0826001601e613945565b600f1692915050565b73ffffffffffffffffffffffffffffffffffffffff8416612a8c576040517f08c379a000000000000000000000000000000000000000000000000000000000815260206004820152602160248201527f455243313135353a206d696e7420746f20746865207a65726f2061646472657360448201527f73000000000000000000000000000000000000000000000000000000000000006064820152608401610852565b8151835114612b1d576040517f08c379a000000000000000000000000000000000000000000000000000000000815260206004820152602860248201527f455243313135353a2069647320616e6420616d6f756e7473206c656e6774682060448201527f6d69736d617463680000000000000000000000000000000000000000000000006064820152608401610852565b33612b2d81600087878787613261565b60005b8451811015612be357838181518110612b4b57612b4b614d3e565b602002602001015160656000878481518110612b6957612b69614d3e565b6020026020010151815260200190815260200160002060008873ffffffffffffffffffffffffffffffffffffffff1673ffffffffffffffffffffffffffffffffffffffff1681526020019081526020016000206000828254612bcb9190614e27565b90915550819050612bdb81614d9c565b915050612b30565b508473ffffffffffffffffffffffffffffffffffffffff16600073ffffffffffffffffffffffffffffffffffffffff168273ffffffffffffffffffffffffffffffffffffffff167f4a39dc06d4c0dbc64b70af90fd698a233a518aa5d07e595d983b8c0526c8f7fb8787604051612c5b929190614e3f565b60405180910390a4610b4a81600087878787613360565b6040805161010081018252600080825260208201819052918101829052606081018290526080810182905260a0810182905260c0810182905260e0810191909152604051806101000160405280612cc884613991565b60ff168152602001612cd9846129b8565b60ff168152602001612cea846129d1565b60ff168152602001612cfb846139a0565b61ffff168152602001612d0d846139af565b7fffff000000000000000000000000000000000000000000000000000000000000168152602001612d3d846139c7565b7fffff000000000000000000000000000000000000000000000000000000000000168152602001612d6d846129a9565b73ffffffffffffffffffffffffffffffffffffffff168152602001612d91846139d6565b63ffffffff16905292915050565b73ffffffffffffffffffffffffffffffffffffffff8416612e42576040517f08c379a000000000000000000000000000000000000000000000000000000000815260206004820152602560248201527f455243313135353a207472616e7366657220746f20746865207a65726f20616460448201527f64726573730000000000000000000000000000000000000000000000000000006064820152608401610852565b336000612e4e856139e5565b90506000612e5b856139e5565b9050612e6b838989858589613261565b600086815260656020908152604080832073ffffffffffffffffffffffffffffffffffffffff8c16845290915290205485811015612f2b576040517f08c379a000000000000000000000000000000000000000000000000000000000815260206004820152602a60248201527f455243313135353a20696e73756666696369656e742062616c616e636520666f60448201527f72207472616e73666572000000000000000000000000000000000000000000006064820152608401610852565b600087815260656020908152604080832073ffffffffffffffffffffffffffffffffffffffff8d8116855292528083208985039055908a16825281208054889290612f77908490614e27565b9091555050604080518881526020810188905273ffffffffffffffffffffffffffffffffffffffff808b16928c821692918816917fc3d58168c5ae7397731d063d5bbf3d657854427343f4c083240f7aacaa2d0f62910160405180910390a4611662848a8a8a8a8a613a30565b73ffffffffffffffffffffffffffffffffffffffff8316613087576040517f08c379a000000000000000000000000000000000000000000000000000000000815260206004820152602360248201527f455243313135353a206275726e2066726f6d20746865207a65726f206164647260448201527f65737300000000000000000000000000000000000000000000000000000000006064820152608401610852565b336000613093846139e5565b905060006130a0846139e5565b90506130c083876000858560405180602001604052806000815250613261565b600085815260656020908152604080832073ffffffffffffffffffffffffffffffffffffffff8a1684529091529020548481101561317f576040517f08c379a0000000000000000000000000000000000000000000000000000000008152602060048201526024808201527f455243313135353a206275726e20616d6f756e7420657863656564732062616c60448201527f616e6365000000000000000000000000000000000000000000000000000000006064820152608401610852565b600086815260656020908152604080832073ffffffffffffffffffffffffffffffffffffffff8b81168086529184528285208a8703905582518b81529384018a90529092908816917fc3d58168c5ae7397731d063d5bbf3d657854427343f4c083240f7aacaa2d0f62910160405180910390a46040805160208101909152600090525b50505050505050565b60007fffffffff0000000000000000000000000000000000000000000000000000000082167f7965db0b00000000000000000000000000000000000000000000000000000000148061088d575061088d82613bdd565b815160005b8181101561335157600085828151811061328257613282614d3e565b60200260200101519050600073ffffffffffffffffffffffffffffffffffffffff168873ffffffffffffffffffffffffffffffffffffffff16146132f25773ffffffffffffffffffffffffffffffffffffffff881660009081526101c7602052604090206132f09082613cc0565b505b73ffffffffffffffffffffffffffffffffffffffff8716156133405773ffffffffffffffffffffffffffffffffffffffff871660009081526101c76020526040902061333e9082613ccc565b505b5061334a81614d9c565b9050613266565b50613202878787878787613cd8565b73ffffffffffffffffffffffffffffffffffffffff84163b15611ea4576040517fbc197c8100000000000000000000000000000000000000000000000000000000815273ffffffffffffffffffffffffffffffffffffffff85169063bc197c81906133d79089908990889088908890600401614ff1565b6020604051808303816000875af1925050508015613430575060408051601f3d9081017fffffffffffffffffffffffffffffffffffffffffffffffffffffffffffffffe016820190925261342d9181019061505c565b60015b6135195761343c615079565b806308c379a00361348f5750613450615095565b8061345b5750613491565b806040517f08c379a000000000000000000000000000000000000000000000000000000000815260040161085291906145ca565b505b6040517f08c379a000000000000000000000000000000000000000000000000000000000815260206004820152603460248201527f455243313135353a207472616e7366657220746f206e6f6e204552433131353560448201527f526563656976657220696d706c656d656e7465720000000000000000000000006064820152608401610852565b7fffffffff0000000000000000000000000000000000000000000000000000000081167fbc197c810000000000000000000000000000000000000000000000000000000014613202576040517f08c379a000000000000000000000000000000000000000000000000000000000815260206004820152602860248201527f455243313135353a204552433131353552656365697665722072656a6563746560448201527f6420746f6b656e730000000000000000000000000000000000000000000000006064820152608401610852565b600082815261015f6020908152604080832073ffffffffffffffffffffffffffffffffffffffff8516845290915290205460ff16610c2b576136438173ffffffffffffffffffffffffffffffffffffffff166014613eab565b61364e836020613eab565b60405160200161365f92919061513d565b604080517fffffffffffffffffffffffffffffffffffffffffffffffffffffffffffffffe0818403018152908290527f08c379a0000000000000000000000000000000000000000000000000000000008252610852916004016145ca565b600082815261015f6020908152604080832073ffffffffffffffffffffffffffffffffffffffff8516845290915290205460ff16610c2b57600082815261015f6020908152604080832073ffffffffffffffffffffffffffffffffffffffff85168452909152902080547fffffffffffffffffffffffffffffffffffffffffffffffffffffffffffffff001660011790556137553390565b73ffffffffffffffffffffffffffffffffffffffff168173ffffffffffffffffffffffffffffffffffffffff16837f2f8788117e7eff1d82e926ec794901d17c78024a50270940304540a733656f0d60405160405180910390a45050565b6000610c468373ffffffffffffffffffffffffffffffffffffffff84166140ee565b600082815261015f6020908152604080832073ffffffffffffffffffffffffffffffffffffffff8516845290915290205460ff1615610c2b57600082815261015f6020908152604080832073ffffffffffffffffffffffffffffffffffffffff8516808552925280832080547fffffffffffffffffffffffffffffffffffffffffffffffffffffffffffffff0016905551339285917ff6391f5c32d9c69d2a47ea670b442974b53935d1edc7fd64eb21e047a839171b9190a45050565b6000610c468373ffffffffffffffffffffffffffffffffffffffff841661413d565b6067610c2b8282615204565b6060816000018054806020026020016040519081016040528092919081815260200182805480156109d457602002820191906000526020600020905b8154815260200190600101908083116138fc5750505050509050919050565b600082600001828154811061393257613932614d3e565b9060005260206000200154905092915050565b600080613953600884614fb4565b6001613960600887614fb4565b61396b90600261543e565b613975919061544a565b901b9050848116613987600885614fb4565b1c95945050505050565b600061088d826001601f613945565b600061088d826002601c613945565b60006139be826002601a613945565b60f01b92915050565b60006139be8260026018613945565b600061088d8260046000613945565b60408051600180825281830190925260609160009190602080830190803683370190505090508281600081518110613a1f57613a1f614d3e565b602090810291909101015292915050565b73ffffffffffffffffffffffffffffffffffffffff84163b15611ea4576040517ff23a6e6100000000000000000000000000000000000000000000000000000000815273ffffffffffffffffffffffffffffffffffffffff85169063f23a6e6190613aa79089908990889088908890600401615461565b6020604051808303816000875af1925050508015613b00575060408051601f3d9081017fffffffffffffffffffffffffffffffffffffffffffffffffffffffffffffffe0168201909252613afd9181019061505c565b60015b613b0c5761343c615079565b7fffffffff0000000000000000000000000000000000000000000000000000000081167ff23a6e610000000000000000000000000000000000000000000000000000000014613202576040517f08c379a000000000000000000000000000000000000000000000000000000000815260206004820152602860248201527f455243313135353a204552433131353552656365697665722072656a6563746560448201527f6420746f6b656e730000000000000000000000000000000000000000000000006064820152608401610852565b60007fffffffff0000000000000000000000000000000000000000000000000000000082167fd9b67a26000000000000000000000000000000000000000000000000000000001480613c7057507fffffffff0000000000000000000000000000000000000000000000000000000082167f0e89341c00000000000000000000000000000000000000000000000000000000145b8061088d57507f01ffc9a7000000000000000000000000000000000000000000000000000000007fffffffff0000000000000000000000000000000000000000000000000000000083161461088d565b6000610c46838361413d565b6000610c4683836140ee565b613ce6868686868686614237565b73ffffffffffffffffffffffffffffffffffffffff8516613d7b5760005b8351811015613d7957828181518110613d1f57613d1f614d3e565b602002602001015161012d6000868481518110613d3e57613d3e614d3e565b602002602001015181526020019081526020016000206000828254613d639190614e27565b90915550613d72905081614d9c565b9050613d04565b505b73ffffffffffffffffffffffffffffffffffffffff8416611ea45760005b8351811015613202576000848281518110613db657613db6614d3e565b602002602001015190506000848381518110613dd457613dd4614d3e565b60200260200101519050600061012d600084815260200190815260200160002054905081811015613e87576040517f08c379a000000000000000000000000000000000000000000000000000000000815260206004820152602860248201527f455243313135353a206275726e20616d6f756e74206578636565647320746f7460448201527f616c537570706c790000000000000000000000000000000000000000000000006064820152608401610852565b600092835261012d602052604090922091039055613ea481614d9c565b9050613d99565b60606000613eba836002614fb4565b613ec5906002614e27565b67ffffffffffffffff811115613edd57613edd614328565b6040519080825280601f01601f191660200182016040528015613f07576020820181803683370190505b5090507f300000000000000000000000000000000000000000000000000000000000000081600081518110613f3e57613f3e614d3e565b60200101907effffffffffffffffffffffffffffffffffffffffffffffffffffffffffffff1916908160001a9053507f780000000000000000000000000000000000000000000000000000000000000081600181518110613fa157613fa1614d3e565b60200101907effffffffffffffffffffffffffffffffffffffffffffffffffffffffffffff1916908160001a9053506000613fdd846002614fb4565b613fe8906001614e27565b90505b6001811115614085577f303132333435363738396162636465660000000000000000000000000000000085600f166010811061402957614029614d3e565b1a60f81b82828151811061403f5761403f614d3e565b60200101907effffffffffffffffffffffffffffffffffffffffffffffffffffffffffffff1916908160001a90535060049490941c9361407e816154b1565b9050613feb565b508315610c46576040517f08c379a000000000000000000000000000000000000000000000000000000000815260206004820181905260248201527f537472696e67733a20686578206c656e67746820696e73756666696369656e746044820152606401610852565b60008181526001830160205260408120546141355750815460018181018455600084815260208082209093018490558454848252828601909352604090209190915561088d565b50600061088d565b6000818152600183016020526040812054801561422657600061416160018361544a565b85549091506000906141759060019061544a565b90508181146141da57600086600001828154811061419557614195614d3e565b90600052602060002001549050808760000184815481106141b8576141b8614d3e565b6000918252602080832090910192909255918252600188019052604090208390555b85548690806141eb576141eb6154e6565b60019003818190600052602060002001600090559055856001016000868152602001908152602001600020600090556001935050505061088d565b600091505061088d565b5092915050565b60975460ff1615611ea4576040517f08c379a000000000000000000000000000000000000000000000000000000000815260206004820152602c60248201527f455243313135355061757361626c653a20746f6b656e207472616e736665722060448201527f7768696c652070617573656400000000000000000000000000000000000000006064820152608401610852565b73ffffffffffffffffffffffffffffffffffffffff811681146110d857600080fd5b80356142f7816142ca565b919050565b6000806040838503121561430f57600080fd5b823561431a816142ca565b946020939093013593505050565b7f4e487b7100000000000000000000000000000000000000000000000000000000600052604160045260246000fd5b6080810181811067ffffffffffffffff8211171561437757614377614328565b60405250565b7fffffffffffffffffffffffffffffffffffffffffffffffffffffffffffffffe0601f830116810181811067ffffffffffffffff821117156143c1576143c1614328565b6040525050565b600067ffffffffffffffff8211156143e2576143e2614328565b5060051b60200190565b600082601f8301126143fd57600080fd5b8135602061440a826143c8565b604051614417828261437d565b83815260059390931b850182019282810191508684111561443757600080fd5b8286015b8481101561122e578035835291830191830161443b565b6000806040838503121561446557600080fd5b8235614470816142ca565b9150602083013567ffffffffffffffff81111561448c57600080fd5b614498858286016143ec565b9150509250929050565b600081518084526020808501945080840160005b838110156144d2578151875295820195908201906001016144b6565b509495945050505050565b602081526000610c4660208301846144a2565b7fffffffff00000000000000000000000000000000000000000000000000000000811681146110d857600080fd5b60006020828403121561453057600080fd5b8135610c46816144f0565b60006020828403121561454d57600080fd5b5035919050565b60005b8381101561456f578181015183820152602001614557565b838111156116be5750506000910152565b60008151808452614598816020860160208601614554565b601f017fffffffffffffffffffffffffffffffffffffffffffffffffffffffffffffffe0169290920160200192915050565b602081526000610c466020830184614580565b600082601f8301126145ee57600080fd5b813567ffffffffffffffff81111561460857614608614328565b60405161463d60207fffffffffffffffffffffffffffffffffffffffffffffffffffffffffffffffe0601f850116018261437d565b81815284602083860101111561465257600080fd5b816020850160208301376000918101602001919091529392505050565b600080600080600060a0868803121561468757600080fd5b8535614692816142ca565b945060208601356146a2816142ca565b9350604086013567ffffffffffffffff808211156146bf57600080fd5b6146cb89838a016143ec565b945060608801359150808211156146e157600080fd5b6146ed89838a016143ec565b9350608088013591508082111561470357600080fd5b50614710888289016145dd565b9150509295509295909350565b6000806040838503121561473057600080fd5b823591506020830135614742816142ca565b809150509250929050565b803580151581146142f757600080fd5b60008060006060848603121561477257600080fd5b833561477d816142ca565b9250602084013561478d816142ca565b915061479b6040850161474d565b90509250925092565b600080602083850312156147b757600080fd5b823567ffffffffffffffff808211156147cf57600080fd5b818501915085601f8301126147e357600080fd5b8135818111156147f257600080fd5b86602082850101111561480457600080fd5b60209290920196919550909350505050565b600082601f83011261482757600080fd5b81356020614834826143c8565b604051614841828261437d565b83815260059390931b850182019282810191508684111561486157600080fd5b8286015b8481101561122e578035614878816142ca565b8352918301918301614865565b6000806040838503121561489857600080fd5b823567ffffffffffffffff808211156148b057600080fd5b6148bc86838701614816565b935060208501359150808211156148d257600080fd5b50614498858286016143ec565b6000806000606084860312156148f457600080fd5b83356148ff816142ca565b9250602084013567ffffffffffffffff8082111561491c57600080fd5b614928878388016143ec565b9350604086013591508082111561493e57600080fd5b5061494b868287016143ec565b9150509250925092565b60006020828403121561496757600080fd5b8135610c46816142ca565b6000806040838503121561498557600080fd5b50508035926020909101359150565b600080604083850312156149a757600080fd5b82356149b2816142ca565b91506020830135614742816142ca565b600080604083850312156149d557600080fd5b82356149e0816142ca565b91506149ee6020840161474d565b90509250929050565b60008060008084860360e0811215614a0e57600080fd5b8535614a19816142ca565b9450602086013567ffffffffffffffff80821115614a3657600080fd5b614a4289838a016143ec565b95506040880135915080821115614a5857600080fd5b50614a65888289016143ec565b93505060807fffffffffffffffffffffffffffffffffffffffffffffffffffffffffffffffa082011215614a9857600080fd5b50604051614aa581614357565b606086013581526080860135602082015260a08601356040820152614acc60c0870161474d565b6060820152939692955090935050565b600080600060408486031215614af157600080fd5b833567ffffffffffffffff80821115614b0957600080fd5b818601915086601f830112614b1d57600080fd5b813581811115614b2c57600080fd5b8760208260051b8501011115614b4157600080fd5b6020928301989097509590910135949350505050565b600060208284031215614b6957600080fd5b813567ffffffffffffffff811115614b8057600080fd5b614b8c848285016143ec565b949350505050565b600060208284031215614ba657600080fd5b813567ffffffffffffffff811115614bbd57600080fd5b614b8c84828501614816565b60006101008201905060ff835116825260ff602084015116602083015260ff604084015116604083015261ffff60608401511660608301527fffff000000000000000000000000000000000000000000000000000000000000608084015116608083015260a0830151614c6060a08401827fffff000000000000000000000000000000000000000000000000000000000000169052565b5060c0830151614c8860c084018273ffffffffffffffffffffffffffffffffffffffff169052565b5060e083015161423060e084018263ffffffff169052565b600080600080600060a08688031215614cb857600080fd5b8535614cc3816142ca565b94506020860135614cd3816142ca565b93506040860135925060608601359150608086013567ffffffffffffffff811115614cfd57600080fd5b614710888289016145dd565b600080600060608486031215614d1e57600080fd5b8335614d29816142ca565b95602085013595506040909401359392505050565b7f4e487b7100000000000000000000000000000000000000000000000000000000600052603260045260246000fd5b7f4e487b7100000000000000000000000000000000000000000000000000000000600052601160045260246000fd5b60007fffffffffffffffffffffffffffffffffffffffffffffffffffffffffffffffff8203614dcd57614dcd614d6d565b5060010190565b600181811c90821680614de857607f821691505b602082108103614e21577f4e487b7100000000000000000000000000000000000000000000000000000000600052602260045260246000fd5b50919050565b60008219821115614e3a57614e3a614d6d565b500190565b604081526000614e5260408301856144a2565b8281036020840152614e6481856144a2565b95945050505050565b803560ff811681146142f757600080fd5b600060208284031215614e9057600080fd5b610c4682614e6d565b803561ffff811681146142f757600080fd5b80357fffff000000000000000000000000000000000000000000000000000000000000811681146142f757600080fd5b803563ffffffff811681146142f757600080fd5b6000610100808385031215614f0357600080fd5b6040519081019067ffffffffffffffff82118183101715614f2657614f26614328565b81604052614f3384614e6d565b8152614f4160208501614e6d565b6020820152614f5260408501614e6d565b6040820152614f6360608501614e99565b6060820152614f7460808501614eab565b6080820152614f8560a08501614eab565b60a0820152614f9660c085016142ec565b60c0820152614fa760e08501614edb565b60e0820152949350505050565b6000817fffffffffffffffffffffffffffffffffffffffffffffffffffffffffffffffff0483118215151615614fec57614fec614d6d565b500290565b600073ffffffffffffffffffffffffffffffffffffffff808816835280871660208401525060a0604083015261502a60a08301866144a2565b828103606084015261503c81866144a2565b905082810360808401526150508185614580565b98975050505050505050565b60006020828403121561506e57600080fd5b8151610c46816144f0565b600060033d11156150925760046000803e5060005160e01c5b90565b600060443d10156150a35790565b6040517ffffffffffffffffffffffffffffffffffffffffffffffffffffffffffffffffc803d016004833e81513d67ffffffffffffffff81602484011181841117156150f157505050505090565b82850191508151818111156151095750505050505090565b843d87010160208285010111156151235750505050505090565b6151326020828601018761437d565b509095945050505050565b7f416363657373436f6e74726f6c3a206163636f756e7420000000000000000000815260008351615175816017850160208801614554565b7f206973206d697373696e6720726f6c652000000000000000000000000000000060179184019182015283516151b2816028840160208801614554565b01602801949350505050565b601f821115610b7757600081815260208120601f850160051c810160208610156151e55750805b601f850160051c820191505b81811015611ea4578281556001016151f1565b815167ffffffffffffffff81111561521e5761521e614328565b6152328161522c8454614dd4565b846151be565b602080601f831160018114615285576000841561524f5750858301515b7fffffffffffffffffffffffffffffffffffffffffffffffffffffffffffffffff600386901b1c1916600185901b178555611ea4565b6000858152602081207fffffffffffffffffffffffffffffffffffffffffffffffffffffffffffffffe08616915b828110156152d2578886015182559484019460019091019084016152b3565b508582101561530e57878501517fffffffffffffffffffffffffffffffffffffffffffffffffffffffffffffffff600388901b60f8161c191681555b5050505050600190811b01905550565b600181815b8085111561537757817fffffffffffffffffffffffffffffffffffffffffffffffffffffffffffffffff0482111561535d5761535d614d6d565b8085161561536a57918102915b93841c9390800290615323565b509250929050565b60008261538e5750600161088d565b8161539b5750600061088d565b81600181146153b157600281146153bb576153d7565b600191505061088d565b60ff8411156153cc576153cc614d6d565b50506001821b61088d565b5060208310610133831016604e8410600b84101617156153fa575081810a61088d565b615404838361531e565b807fffffffffffffffffffffffffffffffffffffffffffffffffffffffffffffffff0482111561543657615436614d6d565b029392505050565b6000610c46838361537f565b60008282101561545c5761545c614d6d565b500390565b600073ffffffffffffffffffffffffffffffffffffffff808816835280871660208401525084604083015283606083015260a060808301526154a660a0830184614580565b979650505050505050565b6000816154c0576154c0614d6d565b507fffffffffffffffffffffffffffffffffffffffffffffffffffffffffffffffff0190565b7f4e487b7100000000000000000000000000000000000000000000000000000000600052603160045260246000fdfe68747470733a2f2f6e6f72692e636f6d2f6170692f72656d6f76616c2f7b69647d2e6a736f6ea2646970667358221220b7918c3ae18d69d92dfb76a21884195e5f77df0964b7c2c3df3cbe6e895f3a7f64736f6c634300080f0033",
  "linkReferences": {},
  "deployedLinkReferences": {}
}