{
  "_format": "hh-sol-artifact-1",
  "contractName": "Removal",
  "sourceName": "contracts/Removal.sol",
  "abi": [
    {
      "inputs": [],
      "stateMutability": "nonpayable",
      "type": "constructor"
    },
    {
      "inputs": [
        {
          "internalType": "string",
          "name": "array1Name",
          "type": "string"
        },
        {
          "internalType": "string",
          "name": "array2Name",
          "type": "string"
        }
      ],
      "name": "ArrayLengthMismatch",
      "type": "error"
    },
    {
      "inputs": [
        {
          "internalType": "uint256",
          "name": "projectId",
          "type": "uint256"
        }
      ],
      "name": "InvalidProjectId",
      "type": "error"
    },
    {
      "inputs": [
        {
          "internalType": "uint256",
          "name": "tokenId",
          "type": "uint256"
        }
      ],
      "name": "TokenIdDoesNotExist",
      "type": "error"
    },
    {
      "inputs": [
        {
          "internalType": "uint256",
          "name": "tokenId",
          "type": "uint256"
        }
      ],
      "name": "TokenIdExists",
      "type": "error"
    },
    {
      "anonymous": false,
      "inputs": [
        {
          "indexed": true,
          "internalType": "address",
          "name": "account",
          "type": "address"
        },
        {
          "indexed": true,
          "internalType": "address",
          "name": "operator",
          "type": "address"
        },
        {
          "indexed": false,
          "internalType": "bool",
          "name": "approved",
          "type": "bool"
        }
      ],
      "name": "ApprovalForAll",
      "type": "event"
    },
    {
      "anonymous": false,
      "inputs": [
        {
          "indexed": false,
          "internalType": "uint8",
          "name": "version",
          "type": "uint8"
        }
      ],
      "name": "Initialized",
      "type": "event"
    },
    {
      "anonymous": false,
      "inputs": [
        {
          "indexed": false,
          "internalType": "address",
          "name": "account",
          "type": "address"
        }
      ],
      "name": "Paused",
      "type": "event"
    },
    {
      "anonymous": false,
      "inputs": [
        {
          "indexed": true,
          "internalType": "bytes32",
          "name": "role",
          "type": "bytes32"
        },
        {
          "indexed": true,
          "internalType": "bytes32",
          "name": "previousAdminRole",
          "type": "bytes32"
        },
        {
          "indexed": true,
          "internalType": "bytes32",
          "name": "newAdminRole",
          "type": "bytes32"
        }
      ],
      "name": "RoleAdminChanged",
      "type": "event"
    },
    {
      "anonymous": false,
      "inputs": [
        {
          "indexed": true,
          "internalType": "bytes32",
          "name": "role",
          "type": "bytes32"
        },
        {
          "indexed": true,
          "internalType": "address",
          "name": "account",
          "type": "address"
        },
        {
          "indexed": true,
          "internalType": "address",
          "name": "sender",
          "type": "address"
        }
      ],
      "name": "RoleGranted",
      "type": "event"
    },
    {
      "anonymous": false,
      "inputs": [
        {
          "indexed": true,
          "internalType": "bytes32",
          "name": "role",
          "type": "bytes32"
        },
        {
          "indexed": true,
          "internalType": "address",
          "name": "account",
          "type": "address"
        },
        {
          "indexed": true,
          "internalType": "address",
          "name": "sender",
          "type": "address"
        }
      ],
      "name": "RoleRevoked",
      "type": "event"
    },
    {
      "anonymous": false,
      "inputs": [
        {
          "indexed": true,
          "internalType": "address",
          "name": "operator",
          "type": "address"
        },
        {
          "indexed": true,
          "internalType": "address",
          "name": "from",
          "type": "address"
        },
        {
          "indexed": true,
          "internalType": "address",
          "name": "to",
          "type": "address"
        },
        {
          "indexed": false,
          "internalType": "uint256[]",
          "name": "ids",
          "type": "uint256[]"
        },
        {
          "indexed": false,
          "internalType": "uint256[]",
          "name": "values",
          "type": "uint256[]"
        }
      ],
      "name": "TransferBatch",
      "type": "event"
    },
    {
      "anonymous": false,
      "inputs": [
        {
          "indexed": true,
          "internalType": "address",
          "name": "operator",
          "type": "address"
        },
        {
          "indexed": true,
          "internalType": "address",
          "name": "from",
          "type": "address"
        },
        {
          "indexed": true,
          "internalType": "address",
          "name": "to",
          "type": "address"
        },
        {
          "indexed": false,
          "internalType": "uint256",
          "name": "id",
          "type": "uint256"
        },
        {
          "indexed": false,
          "internalType": "uint256",
          "name": "value",
          "type": "uint256"
        }
      ],
      "name": "TransferSingle",
      "type": "event"
    },
    {
      "anonymous": false,
      "inputs": [
        {
          "indexed": false,
          "internalType": "string",
          "name": "value",
          "type": "string"
        },
        {
          "indexed": true,
          "internalType": "uint256",
          "name": "id",
          "type": "uint256"
        }
      ],
      "name": "URI",
      "type": "event"
    },
    {
      "anonymous": false,
      "inputs": [
        {
          "indexed": false,
          "internalType": "address",
          "name": "account",
          "type": "address"
        }
      ],
      "name": "Unpaused",
      "type": "event"
    },
    {
      "inputs": [],
      "name": "DEFAULT_ADMIN_ROLE",
      "outputs": [
        {
          "internalType": "bytes32",
          "name": "",
          "type": "bytes32"
        }
      ],
      "stateMutability": "view",
      "type": "function"
    },
    {
      "inputs": [],
      "name": "MINTER_ROLE",
      "outputs": [
        {
          "internalType": "bytes32",
          "name": "",
          "type": "bytes32"
        }
      ],
      "stateMutability": "view",
      "type": "function"
    },
    {
      "inputs": [],
      "name": "PAUSER_ROLE",
      "outputs": [
        {
          "internalType": "bytes32",
          "name": "",
          "type": "bytes32"
        }
      ],
      "stateMutability": "view",
      "type": "function"
    },
    {
      "inputs": [
        {
          "internalType": "address",
          "name": "account",
          "type": "address"
        },
        {
          "internalType": "uint256",
          "name": "id",
          "type": "uint256"
        }
      ],
      "name": "balanceOf",
      "outputs": [
        {
          "internalType": "uint256",
          "name": "",
          "type": "uint256"
        }
      ],
      "stateMutability": "view",
      "type": "function"
    },
    {
      "inputs": [
        {
          "internalType": "address[]",
          "name": "accounts",
          "type": "address[]"
        },
        {
          "internalType": "uint256[]",
          "name": "ids",
          "type": "uint256[]"
        }
      ],
      "name": "balanceOfBatch",
      "outputs": [
        {
          "internalType": "uint256[]",
          "name": "",
          "type": "uint256[]"
        }
      ],
      "stateMutability": "view",
      "type": "function"
    },
    {
      "inputs": [
        {
          "internalType": "address",
          "name": "account",
          "type": "address"
        },
        {
          "internalType": "uint256[]",
          "name": "ids",
          "type": "uint256[]"
        }
      ],
      "name": "balanceOfIds",
      "outputs": [
        {
          "internalType": "uint256[]",
          "name": "",
          "type": "uint256[]"
        }
      ],
      "stateMutability": "view",
      "type": "function"
    },
    {
      "inputs": [
        {
          "internalType": "uint256[]",
          "name": "removalIds",
          "type": "uint256[]"
        }
      ],
      "name": "batchGetHoldbackPercentages",
      "outputs": [
        {
          "internalType": "uint256[]",
          "name": "",
          "type": "uint256[]"
        }
      ],
      "stateMutability": "view",
      "type": "function"
    },
    {
      "inputs": [
        {
          "internalType": "uint256[]",
          "name": "removalIds",
          "type": "uint256[]"
        },
        {
          "internalType": "uint256",
          "name": "holdbackPercentage",
          "type": "uint256"
        }
      ],
      "name": "batchSetHoldbackPercentage",
      "outputs": [],
      "stateMutability": "nonpayable",
      "type": "function"
    },
    {
      "inputs": [
        {
          "internalType": "address",
          "name": "account",
          "type": "address"
        },
        {
          "internalType": "uint256",
          "name": "id",
          "type": "uint256"
        },
        {
          "internalType": "uint256",
          "name": "value",
          "type": "uint256"
        }
      ],
      "name": "burn",
      "outputs": [],
      "stateMutability": "nonpayable",
      "type": "function"
    },
    {
      "inputs": [
        {
          "internalType": "address",
          "name": "account",
          "type": "address"
        },
        {
          "internalType": "uint256[]",
          "name": "ids",
          "type": "uint256[]"
        },
        {
          "internalType": "uint256[]",
          "name": "values",
          "type": "uint256[]"
        }
      ],
      "name": "burnBatch",
      "outputs": [],
      "stateMutability": "nonpayable",
      "type": "function"
    },
    {
      "inputs": [
        {
          "internalType": "bytes",
          "name": "removalData",
          "type": "bytes"
        }
      ],
      "name": "createRemovalId",
      "outputs": [
        {
          "internalType": "uint256",
          "name": "",
          "type": "uint256"
        }
      ],
      "stateMutability": "pure",
      "type": "function"
    },
    {
      "inputs": [
        {
          "internalType": "uint256",
          "name": "id",
          "type": "uint256"
        }
      ],
      "name": "exists",
      "outputs": [
        {
          "internalType": "bool",
          "name": "",
          "type": "bool"
        }
      ],
      "stateMutability": "view",
      "type": "function"
    },
    {
      "inputs": [
        {
          "internalType": "uint256",
          "name": "removalId",
          "type": "uint256"
        }
      ],
      "name": "getProjectIdForRemoval",
      "outputs": [
        {
          "internalType": "uint256",
          "name": "",
          "type": "uint256"
        }
      ],
      "stateMutability": "view",
      "type": "function"
    },
    {
      "inputs": [
        {
          "internalType": "bytes32",
          "name": "role",
          "type": "bytes32"
        }
      ],
      "name": "getRoleAdmin",
      "outputs": [
        {
          "internalType": "bytes32",
          "name": "",
          "type": "bytes32"
        }
      ],
      "stateMutability": "view",
      "type": "function"
    },
    {
      "inputs": [
        {
          "internalType": "bytes32",
          "name": "role",
          "type": "bytes32"
        },
        {
          "internalType": "uint256",
          "name": "index",
          "type": "uint256"
        }
      ],
      "name": "getRoleMember",
      "outputs": [
        {
          "internalType": "address",
          "name": "",
          "type": "address"
        }
      ],
      "stateMutability": "view",
      "type": "function"
    },
    {
      "inputs": [
        {
          "internalType": "bytes32",
          "name": "role",
          "type": "bytes32"
        }
      ],
      "name": "getRoleMemberCount",
      "outputs": [
        {
          "internalType": "uint256",
          "name": "",
          "type": "uint256"
        }
      ],
      "stateMutability": "view",
      "type": "function"
    },
    {
      "inputs": [
        {
          "internalType": "uint256",
          "name": "projectId",
          "type": "uint256"
        }
      ],
      "name": "getScheduleDataForProjectId",
      "outputs": [
        {
          "components": [
            {
              "internalType": "uint256",
              "name": "startTime",
              "type": "uint256"
            },
            {
              "internalType": "address",
              "name": "supplierAddress",
              "type": "address"
            },
            {
              "internalType": "uint256",
              "name": "methodology",
              "type": "uint256"
            },
            {
              "internalType": "uint256",
              "name": "methodologyVersion",
              "type": "uint256"
            }
          ],
          "internalType": "struct Removal.ScheduleData",
          "name": "",
          "type": "tuple"
        }
      ],
      "stateMutability": "view",
      "type": "function"
    },
    {
      "inputs": [
        {
          "internalType": "uint256",
          "name": "removalId",
          "type": "uint256"
        }
      ],
      "name": "getScheduleDataForRemovalId",
      "outputs": [
        {
          "components": [
            {
              "internalType": "uint256",
              "name": "startTime",
              "type": "uint256"
            },
            {
              "internalType": "address",
              "name": "supplierAddress",
              "type": "address"
            },
            {
              "internalType": "uint256",
              "name": "methodology",
              "type": "uint256"
            },
            {
              "internalType": "uint256",
              "name": "methodologyVersion",
              "type": "uint256"
            }
          ],
          "internalType": "struct Removal.ScheduleData",
          "name": "",
          "type": "tuple"
        }
      ],
      "stateMutability": "view",
      "type": "function"
    },
    {
      "inputs": [
        {
          "internalType": "bytes32",
          "name": "role",
          "type": "bytes32"
        },
        {
          "internalType": "address",
          "name": "account",
          "type": "address"
        }
      ],
      "name": "grantRole",
      "outputs": [],
      "stateMutability": "nonpayable",
      "type": "function"
    },
    {
      "inputs": [
        {
          "internalType": "bytes32",
          "name": "role",
          "type": "bytes32"
        },
        {
          "internalType": "address",
          "name": "account",
          "type": "address"
        }
      ],
      "name": "hasRole",
      "outputs": [
        {
          "internalType": "bool",
          "name": "",
          "type": "bool"
        }
      ],
      "stateMutability": "view",
      "type": "function"
    },
    {
      "inputs": [
        {
          "internalType": "uint256",
          "name": "",
          "type": "uint256"
        }
      ],
      "name": "indexToTokenId",
      "outputs": [
        {
          "internalType": "uint256",
          "name": "",
          "type": "uint256"
        }
      ],
      "stateMutability": "view",
      "type": "function"
    },
    {
      "inputs": [],
      "name": "initialize",
      "outputs": [],
      "stateMutability": "nonpayable",
      "type": "function"
    },
    {
      "inputs": [
        {
          "internalType": "address",
          "name": "account",
          "type": "address"
        },
        {
          "internalType": "address",
          "name": "operator",
          "type": "address"
        }
      ],
      "name": "isApprovedForAll",
      "outputs": [
        {
          "internalType": "bool",
          "name": "",
          "type": "bool"
        }
      ],
      "stateMutability": "view",
      "type": "function"
    },
    {
      "inputs": [
        {
          "internalType": "address",
          "name": "to",
          "type": "address"
        },
        {
          "internalType": "uint256[]",
          "name": "amounts",
          "type": "uint256[]"
        },
        {
          "internalType": "uint256[]",
          "name": "ids",
          "type": "uint256[]"
        },
        {
          "internalType": "bytes",
          "name": "data",
          "type": "bytes"
        }
      ],
      "name": "mintBatch",
      "outputs": [],
      "stateMutability": "nonpayable",
      "type": "function"
    },
    {
      "inputs": [],
      "name": "name",
      "outputs": [
        {
          "internalType": "string",
          "name": "",
          "type": "string"
        }
      ],
      "stateMutability": "view",
      "type": "function"
    },
    {
      "inputs": [],
      "name": "paused",
      "outputs": [
        {
          "internalType": "bool",
          "name": "",
          "type": "bool"
        }
      ],
      "stateMutability": "view",
      "type": "function"
    },
    {
      "inputs": [
        {
          "internalType": "address",
          "name": "restrictedNORIAddress",
          "type": "address"
        }
      ],
      "name": "registerRestrictedNORIAddress",
      "outputs": [],
      "stateMutability": "nonpayable",
      "type": "function"
    },
    {
      "inputs": [
        {
          "internalType": "bytes32",
          "name": "role",
          "type": "bytes32"
        },
        {
          "internalType": "address",
          "name": "account",
          "type": "address"
        }
      ],
      "name": "renounceRole",
      "outputs": [],
      "stateMutability": "nonpayable",
      "type": "function"
    },
    {
      "inputs": [
        {
          "internalType": "bytes32",
          "name": "role",
          "type": "bytes32"
        },
        {
          "internalType": "address",
          "name": "account",
          "type": "address"
        }
      ],
      "name": "revokeRole",
      "outputs": [],
      "stateMutability": "nonpayable",
      "type": "function"
    },
    {
      "inputs": [
        {
          "internalType": "address",
          "name": "from",
          "type": "address"
        },
        {
          "internalType": "address",
          "name": "to",
          "type": "address"
        },
        {
          "internalType": "uint256[]",
          "name": "ids",
          "type": "uint256[]"
        },
        {
          "internalType": "uint256[]",
          "name": "amounts",
          "type": "uint256[]"
        },
        {
          "internalType": "bytes",
          "name": "",
          "type": "bytes"
        }
      ],
      "name": "safeBatchTransferFrom",
      "outputs": [],
      "stateMutability": "nonpayable",
      "type": "function"
    },
    {
      "inputs": [
        {
          "internalType": "address",
          "name": "from",
          "type": "address"
        },
        {
          "internalType": "address",
          "name": "to",
          "type": "address"
        },
        {
          "internalType": "uint256",
          "name": "id",
          "type": "uint256"
        },
        {
          "internalType": "uint256",
          "name": "amount",
          "type": "uint256"
        },
        {
          "internalType": "bytes",
          "name": "data",
          "type": "bytes"
        }
      ],
      "name": "safeTransferFrom",
      "outputs": [],
      "stateMutability": "nonpayable",
      "type": "function"
    },
    {
      "inputs": [
        {
          "internalType": "address",
          "name": "owner",
          "type": "address"
        },
        {
          "internalType": "address",
          "name": "operator",
          "type": "address"
        },
        {
          "internalType": "bool",
          "name": "approved",
          "type": "bool"
        }
      ],
      "name": "setApprovalForAll",
      "outputs": [],
      "stateMutability": "nonpayable",
      "type": "function"
    },
    {
      "inputs": [
        {
          "internalType": "address",
          "name": "operator",
          "type": "address"
        },
        {
          "internalType": "bool",
          "name": "approved",
          "type": "bool"
        }
      ],
      "name": "setApprovalForAll",
      "outputs": [],
      "stateMutability": "nonpayable",
      "type": "function"
    },
    {
      "inputs": [
        {
          "internalType": "bytes4",
          "name": "interfaceId",
          "type": "bytes4"
        }
      ],
      "name": "supportsInterface",
      "outputs": [
        {
          "internalType": "bool",
          "name": "",
          "type": "bool"
        }
      ],
      "stateMutability": "view",
      "type": "function"
    },
    {
      "inputs": [],
      "name": "tokenIdCounter",
      "outputs": [
        {
          "internalType": "uint256",
          "name": "",
          "type": "uint256"
        }
      ],
      "stateMutability": "view",
      "type": "function"
    },
    {
      "inputs": [
        {
          "internalType": "uint256",
          "name": "id",
          "type": "uint256"
        }
      ],
      "name": "totalSupply",
      "outputs": [
        {
          "internalType": "uint256",
          "name": "",
          "type": "uint256"
        }
      ],
      "stateMutability": "view",
      "type": "function"
    },
    {
      "inputs": [
        {
          "internalType": "uint256",
          "name": "removalId",
          "type": "uint256"
        }
      ],
      "name": "unpackRemovalIdV0",
      "outputs": [
        {
          "components": [
            {
              "internalType": "uint8",
              "name": "idVersion",
              "type": "uint8"
            },
            {
              "internalType": "uint8",
              "name": "methodology",
              "type": "uint8"
            },
            {
              "internalType": "uint8",
              "name": "methodologyVersion",
              "type": "uint8"
            },
            {
              "internalType": "uint16",
              "name": "vintage",
              "type": "uint16"
            },
            {
              "internalType": "bytes2",
              "name": "country",
              "type": "bytes2"
            },
            {
              "internalType": "bytes2",
              "name": "subdivision",
              "type": "bytes2"
            },
            {
              "internalType": "address",
              "name": "supplierAddress",
              "type": "address"
            },
            {
              "internalType": "uint32",
              "name": "subIdentifier",
              "type": "uint32"
            }
          ],
          "internalType": "struct UnpackedRemovalIdV0",
          "name": "",
          "type": "tuple"
        }
      ],
      "stateMutability": "pure",
      "type": "function"
    },
    {
      "inputs": [
        {
          "internalType": "uint256",
          "name": "",
          "type": "uint256"
        }
      ],
      "name": "uri",
      "outputs": [
        {
          "internalType": "string",
          "name": "",
          "type": "string"
        }
      ],
      "stateMutability": "view",
      "type": "function"
    }
  ],
  "bytecode": "0x60808060405234620000c6576000549060ff8260081c1662000074575060ff8082161062000038575b6040516152019081620000cc8239f35b60ff90811916176000557f7f26b83ff96e1f2b6a682f133852f6798a09c465da95921460cefb3847402498602060405160ff8152a13862000028565b62461bcd60e51b815260206004820152602760248201527f496e697469616c697a61626c653a20636f6e747261637420697320696e697469604482015266616c697a696e6760c81b6064820152608490fd5b600080fdfe6080604052600436101561001257600080fd5b60e0600035811c908162fdd58e14613c5c578163018e1c8314613bb157816301ffc9a714613a5b57816306fdde03146139375781630e89341c146138195781631990ad05146137af5781631f7fdffa14612b5f578163248a9ca314612b115781632eb2c2d6146127b85781632f2ff15d146126a157816336568abe146125bd578163367605ca146124f857816348ec4c3b14611fcd5781634e1273f414611e045781634f558e7914611db75781635c975abb14611d765781635f830d7714611cef5781636b20c454146119995781637aef11641461194e5781638129fc1c146112b05781639010d07c1461123e57816391d14854146111c457816398bdf6f51461118757816399d5121b146110b0578163a217fddf14611076578163a22cb46514611029578163a53ba52714610f3c578163b6477cc014610e33578163bd85b03914610de8578163ca15c87314610d9d578163d539139314610d44578163d547741f14610ce6578163d85a53e914610bb257508063e0fc293814610b67578063e63ab1e914610b0e578063e985e9c514610a8c578063f242432a146104d75763f5298aca146101c057600080fd5b346104d25760607ffffffffffffffffffffffffffffffffffffffffffffffffffffffffffffffffc3601126104d2576101f7613ca9565b6024908135604473ffffffffffffffffffffffffffffffffffffffff813593169133831480156104a9575b61022b906145df565b821592610238841561492e565b61024182614909565b9161024b86614909565b94600060405161025a81613d65565b5260ff60975416610426576103cb575b60005b83518110156103485761028081856145cb565b5161028b82886145cb565b51908060005261012d6020818152604060002054928484106102c557906102c095949392916000525203604060002055614562565b61026d565b506084907f455243313135353a206275726e20616d6f756e74206578636565647320746f748a60288f604051947f08c379a000000000000000000000000000000000000000000000000000000000865260048601528401528201527f616c537570706c790000000000000000000000000000000000000000000000006064820152fd5b6000838389818452606560205260408420838552602052806040852054610371828210156149b9565b83865260656020526040862085875260205203604085205560405191825260208201527fc3d58168c5ae7397731d063d5bbf3d657854427343f4c083240f7aacaa2d0f6260403392a460006040516103c881613d65565b52005b949195929060005b875181101561041b57806103ea61041692886145cb565b516103f5828b6145cb565b5160005261012d60205261040f6040600020918254614780565b9055614562565b6103d3565b50909295919461026a565b6084887f455243313135355061757361626c653a20746f6b656e207472616e736665722087602c604051937f08c379a0000000000000000000000000000000000000000000000000000000008552602060048601528401528201527f7768696c652070617573656400000000000000000000000000000000000000006064820152fd5b5082600052606660205260406000203360005260205261022b60ff604060002054169050610222565b600080fd5b346104d25760a07ffffffffffffffffffffffffffffffffffffffffffffffffffffffffffffffffc3601126104d25761050e613ca9565b610516613ccc565b906084803567ffffffffffffffff81116104d257610538903690600401613f37565b9073ffffffffffffffffffffffffffffffffffffffff9133838516148015610a61575b610564906145df565b82851615610572811561466a565b61057d604435614909565b610588606435614909565b9160ff609754166109de578587161561099e575b6108ae575b505060443560005260209460658652604060002084861660005286526040600020546105d16064358210156146f5565b604435600052606587526040600020858716600052875260643590036040600020556044356000526065865260406000208482166000528652604060002061061c6064358254614780565b905560405160443581526064358782015284821690858716907fc3d58168c5ae7397731d063d5bbf3d657854427343f4c083240f7aacaa2d0f6260403392a4803b610664575b005b60a060006106c795889560405197889687958693857ff23a6e61000000000000000000000000000000000000000000000000000000009d8e87523360048801521660248601526044356044860152606435606486015284015260a4830190613ef4565b0393165af16000918161087f575b506107d15750506001906106e761485b565b6308c379a014610782575b506106f957005b6040517f08c379a000000000000000000000000000000000000000000000000000000000815260206004820152603460248201527f455243313135353a207472616e7366657220746f206e6f6e204552433131353560448201527f526563656976657220696d706c656d656e7465720000000000000000000000006064820152608490fd5b0390fd5b61078a614879565b908161079657506106f2565b61077e6040519283927f08c379a000000000000000000000000000000000000000000000000000000000845260048401526024830190613ef4565b7fffffffff0000000000000000000000000000000000000000000000000000000016149050610662576040517f08c379a000000000000000000000000000000000000000000000000000000000815260206004820152602860248201527f455243313135353a204552433131353552656365697665722072656a6563746560448201527f6420746f6b656e730000000000000000000000000000000000000000000000006064820152608490fd5b6108a0919250843d86116108a7575b6108988183613d81565b810190614823565b90846106d5565b503d61088e565b92959194909360005b845181101561098f576108ca81866145cb565b51906108d681886145cb565b518260005261012d60205260406000205481811061090c576109079360005261012d60205203604060002055614562565b6108b7565b8a6040517f08c379a000000000000000000000000000000000000000000000000000000000815260206004820152602860248201527f455243313135353a206275726e20616d6f756e74206578636565647320746f7460448201527f616c537570706c790000000000000000000000000000000000000000000000006064820152fd5b509350939094915085806105a1565b959260009794919592975b86518110156109d057806109c06109cb928b6145cb565b516103f5828a6145cb565b6109a9565b50929596919490939661059c565b846040517f08c379a000000000000000000000000000000000000000000000000000000000815260206004820152602c60248201527f455243313135355061757361626c653a20746f6b656e207472616e736665722060448201527f7768696c652070617573656400000000000000000000000000000000000000006064820152fd5b50828416600052606660205260406000203360005260205261056460ff60406000205416905061055b565b346104d25760407ffffffffffffffffffffffffffffffffffffffffffffffffffffffffffffffffc3601126104d257610ac3613ca9565b610acb613ccc565b9073ffffffffffffffffffffffffffffffffffffffff809116600052606660205260406000209116600052602052602060ff604060002054166040519015158152f35b346104d25760007ffffffffffffffffffffffffffffffffffffffffffffffffffffffffffffffffc3601126104d25760206040517f65d7a28e3265b37a6474929f336521b332c1681b933f6cb9f3376673440d862a8152f35b346104d25760207ffffffffffffffffffffffffffffffffffffffffffffffffffffffffffffffffc3601126104d2576004356000526101c86020526020604060002054604051908152f35b346104d25760207ffffffffffffffffffffffffffffffffffffffffffffffffffffffffffffffffc3601126104d25760043590610bed614f4a565b50610bf6614f4a565b508160f81c9160405192610c0984613d2c565b80845260208401938260f41c600f168552604081018360f01c600f1681526060820161ffff908186881c16815260808401917fffff000000000000000000000000000000000000000000000000000000000000928391828960201b16825260a0870193838a60301b16855260c08801968b73ffffffffffffffffffffffffffffffffffffffff998a8d60201c168a52019963ffffffff809c168b526040519d8e9182525160ff1690602001525160ff1660408d0152511660608b015251166080890152511660a0870152511660c085015251169082015261010090f35b346104d25760407ffffffffffffffffffffffffffffffffffffffffffffffffffffffffffffffffc3601126104d257610662600435610d23613ccc565b908060005261015f602052610d3f60016040600020015461425e565b61439b565b346104d25760007ffffffffffffffffffffffffffffffffffffffffffffffffffffffffffffffffc3601126104d25760206040517f9f2df0fed2c77648de5860a4cc508cd0818c85b8b8a1ab4ceeef8d981c8956a68152f35b346104d25760207ffffffffffffffffffffffffffffffffffffffffffffffffffffffffffffffffc3601126104d2576004356000526101916020526020604060002054604051908152f35b346104d25760207ffffffffffffffffffffffffffffffffffffffffffffffffffffffffffffffffc3601126104d25760043560005261012d6020526020604060002054604051908152f35b346104d2576020807ffffffffffffffffffffffffffffffffffffffffffffffffffffffffffffffffc3601126104d25760043567ffffffffffffffff81116104d257610e83903690600401613dda565b610e8d8151614513565b60005b8251811015610f2257610ea381846145cb565b51806000526101c7855260ff6040600020541615610ef1575080610eca610eec92856145cb565b516000526101c88552600160406000200154610ee682856145cb565b52614562565b610e90565b602490604051907f3374f12d0000000000000000000000000000000000000000000000000000000082526004820152fd5b5082610f38604051928284938452830190613e38565b0390f35b346104d25760407ffffffffffffffffffffffffffffffffffffffffffffffffffffffffffffffffc3601126104d25760043567ffffffffffffffff8082116104d257366023830112156104d25781600401359081116104d2576024916005368484831b840101116104d25783359160005b848110610fb657005b8581841b83010135806000526020906101c7825260ff6040600020541615610ff957610ff492916101c8916000525284600160406000200155614562565b610fad565b8790604051907f3374f12d0000000000000000000000000000000000000000000000000000000082526004820152fd5b346104d25760407ffffffffffffffffffffffffffffffffffffffffffffffffffffffffffffffffc3601126104d257611060613ca9565b60243580151581036104d257610662913361478c565b346104d25760007ffffffffffffffffffffffffffffffffffffffffffffffffffffffffffffffffc3601126104d257602060405160008152f35b346104d25760207ffffffffffffffffffffffffffffffffffffffffffffffffffffffffffffffffc3601126104d2576110e7614f88565b506004356000526101c9602052610f38604060002060036040519161110b83613d10565b8054835273ffffffffffffffffffffffffffffffffffffffff600182015416602084015260028101546040840152015460608201526040519182918291909160608060808301948051845273ffffffffffffffffffffffffffffffffffffffff6020820151166020850152604081015160408501520151910152565b346104d25760007ffffffffffffffffffffffffffffffffffffffffffffffffffffffffffffffffc3601126104d25760206101c454604051908152f35b346104d25760407ffffffffffffffffffffffffffffffffffffffffffffffffffffffffffffffffc3601126104d2576111fb613ccc565b60043560005261015f60205273ffffffffffffffffffffffffffffffffffffffff60406000209116600052602052602060ff604060002054166040519015158152f35b346104d25760407ffffffffffffffffffffffffffffffffffffffffffffffffffffffffffffffffc3601126104d257600435600052610191602052602073ffffffffffffffffffffffffffffffffffffffff6112a06024356040600020614c8a565b9190546040519260031b1c168152f35b346104d25760007ffffffffffffffffffffffffffffffffffffffffffffffffffffffffffffffffc3601126104d25760005460ff808260081c1615808091611942575b801561192c575b156118a8576001927fffffffffffffffffffffffffffffffffffffffffffffffffffffffffffffff0090828583831617600055611879575b5060405190606082019367ffffffffffffffff948381108682111761184a57604052602683526020947f68747470733a2f2f6e6f72692e636f6d2f6170692f72656d6f76616c2f7b6964868501527f7d2e6a736f6e000000000000000000000000000000000000000000000000000060408501526113b68260005460081c16614ebf565b835190811161184a57806113cb606754613e6c565b94601f958681116117db575b50879086831160011461171f57600092611714575b50507fffffffffffffffffffffffffffffffffffffffffffffffffffffffffffffffff82891b9260031b1c1916176067555b61145a8160005460081c1661143281614ebf565b836097541660975561144381614ebf565b61144c81614ebf565b61145581614ebf565b614ebf565b6000805261015f9182865260406000203360005286528160406000205416156116c6575b6000805261019192838752611497336040600020614ca2565b507f65d7a28e3265b37a6474929f336521b332c1681b933f6cb9f3376673440d862a806000528188526040600020336000528852836040600020541615611678575b6000528387526114ed336040600020614ca2565b507f9f2df0fed2c77648de5860a4cc508cd0818c85b8b8a1ab4ceeef8d981c8956a6928360005281885260406000203360005288526040600020541615611629575b50506000528352611544336040600020614ca2565b5060006101c4556101c5906115598254613e6c565b908082116115e0575b50507f52656d6f76616c0000000000000000000000000000000000000000000000000e905561158d57005b7f7f26b83ff96e1f2b6a682f133852f6798a09c465da95921460cefb3847402498917fffffffffffffffffffffffffffffffffffffffffffffffffffffffffffff00ff60005416600055604051908152a1005b8590836000527f818f40e4590a6f2c3ec1caee0533b9960911937d8dd67c8f1447b1392a84f253920160051c8201915b82811061161d5750611562565b60008155018590611610565b8260005286526040600020336000528652866040600020918254161790553333827f2f8788117e7eff1d82e926ec794901d17c78024a50270940304540a733656f0d6000604051a4868061152f565b806000528188526040600020336000528852604060002089848254161790553333827f2f8788117e7eff1d82e926ec794901d17c78024a50270940304540a733656f0d6000604051a46114d9565b60008052828652604060002033600052865260406000208782825416179055333360007f2f8788117e7eff1d82e926ec794901d17c78024a50270940304540a733656f0d81604051a461147e565b0151905088806113ec565b907fffffffffffffffffffffffffffffffffffffffffffffffffffffffffffffffe08a94169160676000527f9787eeb91fe3101235e4a76063c7023ecb40f923f97916639c598592fa30d6ae9260005b8b8282106117c5575050841161178e575b505050811b0160675561141e565b01517fffffffffffffffffffffffffffffffffffffffffffffffffffffffffffffffff60f88460031b161c19169055888080611780565b8385015186558d9790950194938401930161176f565b90915060676000527f9787eeb91fe3101235e4a76063c7023ecb40f923f97916639c598592fa30d6ae8680850160051c8201928a8610611841575b918b91869594930160051c01915b8281106118325750506113d7565b600081558594508b9101611824565b92508192611816565b7f4e487b7100000000000000000000000000000000000000000000000000000000600052604160045260246000fd5b7fffffffffffffffffffffffffffffffffffffffffffffffffffffffffffff0000166101011760005584611332565b60846040517f08c379a000000000000000000000000000000000000000000000000000000000815260206004820152602e60248201527f496e697469616c697a61626c653a20636f6e747261637420697320616c72656160448201527f647920696e697469616c697a65640000000000000000000000000000000000006064820152fd5b50303b1580156112fa57506001828416146112fa565b506001828416106112f3565b346104d25760207ffffffffffffffffffffffffffffffffffffffffffffffffffffffffffffffffc3601126104d2576004356000526101c66020526020604060002054604051908152f35b346104d25760607ffffffffffffffffffffffffffffffffffffffffffffffffffffffffffffffffc3601126104d2576119d0613ca9565b60249067ffffffffffffffff9082358281116104d2576119f4903690600401613dda565b9160449081359081116104d257611a2473ffffffffffffffffffffffffffffffffffffffff913690600401613dda565b9216923384148015611cc6575b611a3a906145df565b8315611a46811561492e565b611a538251855114614a43565b6000604051611a6181613d65565b5260ff60975416611c4357611c0b575b60005b8151811015611b4e57611a8781836145cb565b51611a9282866145cb565b51908060005261012d602081815260406000205492848410611acc5790611ac795949392916000525203604060002055614562565b611a74565b6084827f455243313135353a206275726e20616d6f756e74206578636565647320746f748a60288f604051947f08c379a000000000000000000000000000000000000000000000000000000000865260048601528401528201527f616c537570706c790000000000000000000000000000000000000000000000006064820152fd5b83828660005b8251811015611bc35780611b6b611bbe92856145cb565b51611b7682876145cb565b5190806000526065602090808252604060002087600052825260406000205492611ba2858510156149b9565b6000528152604060002090866000525203604060002055614562565b611b54565b50907f4a39dc06d4c0dbc64b70af90fd698a233a518aa5d07e595d983b8c0526c8f7fb611bfa600094604051918291339583614ace565b0390a460006040516103c881613d65565b9260009491945b8451811015611c395780611c29611c3492866145cb565b516103f582886145cb565b611c12565b5092939093611a71565b6084867f455243313135355061757361626c653a20746f6b656e207472616e736665722085602c604051937f08c379a0000000000000000000000000000000000000000000000000000000008552602060048601528401528201527f7768696c652070617573656400000000000000000000000000000000000000006064820152fd5b50836000526066602052604060002033600052602052611a3a60ff604060002054169050611a31565b346104d25760207ffffffffffffffffffffffffffffffffffffffffffffffffffffffffffffffffc3601126104d257611d26613ca9565b611d2e613fac565b73ffffffffffffffffffffffffffffffffffffffff6101c391167fffffffffffffffffffffffff00000000000000000000000000000000000000008254161790556000604051f35b346104d25760007ffffffffffffffffffffffffffffffffffffffffffffffffffffffffffffffffc3601126104d257602060ff609754166040519015158152f35b346104d25760207ffffffffffffffffffffffffffffffffffffffffffffffffffffffffffffffffc3601126104d25760043560005261012d60205260206040600020541515604051908152f35b346104d25760407ffffffffffffffffffffffffffffffffffffffffffffffffffffffffffffffffc3601126104d25760043567ffffffffffffffff8082116104d257366023830112156104d257816004013590611e6082613dc2565b92611e6e6040519485613d81565b82845260209260248486019160051b830101913683116104d2576024859101915b838310611fb557505050506024359081116104d257611eb2903690600401613dda565b8251815103611f3157611ec58351614513565b9260005b8151811015611f1a5780611f0b73ffffffffffffffffffffffffffffffffffffffff611ef8611f1594866145cb565b5116611f0483876145cb565b5190614455565b610ee682886145cb565b611ec9565b505050610f38604051928284938452830190613e38565b608482604051907f08c379a00000000000000000000000000000000000000000000000000000000082526004820152602960248201527f455243313135353a206163636f756e747320616e6420696473206c656e67746860448201527f206d69736d6174636800000000000000000000000000000000000000000000006064820152fd5b8190611fc084613cef565b8152019101908490611e8f565b346104d257602090817ffffffffffffffffffffffffffffffffffffffffffffffffffffffffffffffffc3601126104d25767ffffffffffffffff6004358181116104d257366023820112156104d2578060040135928284116104d25760249384830181840136878201116104d257849003948786126104d25760ff958661205384615190565b16612476576101008094036123f35783136104d257604051928301908111838210176123c55760405261208590615190565b815261209360448401615190565b93868201928584526120a760648601615190565b906040840191825260848601359161ffff831683036104d257606085019283526120d360a4880161519e565b93608086019485526120e760c4890161519e565b9660a087019788526101046120fe60e48b01613cef565b9960c089019a8b5201359a63ffffffff9a8b8d168d036104d25783600f91878b019e8f52161161236857600f838551161161230b578651838160f81c9160f01c168a51858160f81c9160f01c1691604184101593846122ff575b50836122f3575b836122e7575b50826122db575b826122cf575b50816122c3575b816122b7575b501561225a575079ffff00000000000000000000000000000000000000000000000095937fff0000000000000000000000000000000000000000000000000000000000000077ffffffffffffffffffffffffffffffffffffffff00000000999896947bffff00000000000000000000000000000000000000000000000000009460f07dffff00000000000000000000000000000000000000000000000000000000955160041b1691511617965160f81b169351901b1692518b1c169260f01b171717915160301c16179151851b161791511617604051908152f35b8c600d606492604051927f08c379a000000000000000000000000000000000000000000000000000000000845260048401528201527f496e76616c6964204153434949000000000000000000000000000000000000006044820152fd5b605a915011158e61217f565b60418110159150612179565b605a101591508f612172565b6041811015925061216c565b605a1015925038612165565b6041811015935061215f565b605a1015935038612158565b8c601d606492604051927f08c379a000000000000000000000000000000000000000000000000000000000845260048401528201527f4d6574686f6c6f646f67792076657273696f6e20746f6f206c617267650000006044820152fd5b8c6015606492604051927f08c379a000000000000000000000000000000000000000000000000000000000845260048401528201527f4d6574686f6c6f646f677920746f6f206c6172676500000000000000000000006044820152fd5b867f4e487b710000000000000000000000000000000000000000000000000000000060005260416004526000fd5b608489602a8a604051927f08c379a000000000000000000000000000000000000000000000000000000000845260048401528201527f72656d6f76616c4461746120636f6e7461696e732077726f6e67206e756d626560448201527f72206f66206279746573000000000000000000000000000000000000000000006064820152fd5b60848989604051917f08c379a00000000000000000000000000000000000000000000000000000000083526004830152808201527f556e737570706f727465642072656d6f76616c20746f6b656e2069642076657260448201527f73696f6e000000000000000000000000000000000000000000000000000000006064820152fd5b346104d25760607ffffffffffffffffffffffffffffffffffffffffffffffffffffffffffffffffc3601126104d25761252f613ca9565b612537613ccc565b6044359081151582036104d25761254c613fac565b60ff6097541661255f576106629261478c565b60646040517f08c379a000000000000000000000000000000000000000000000000000000000815260206004820152601060248201527f5061757361626c653a20706175736564000000000000000000000000000000006044820152fd5b346104d25760407ffffffffffffffffffffffffffffffffffffffffffffffffffffffffffffffffc3601126104d2576125f4613ccc565b3373ffffffffffffffffffffffffffffffffffffffff82160361261d576106629060043561439b565b60846040517f08c379a000000000000000000000000000000000000000000000000000000000815260206004820152602f60248201527f416363657373436f6e74726f6c3a2063616e206f6e6c792072656e6f756e636560448201527f20726f6c657320666f722073656c6600000000000000000000000000000000006064820152fd5b346104d25760407ffffffffffffffffffffffffffffffffffffffffffffffffffffffffffffffffc3601126104d2576106626004356101916126e1613ccc565b918060005261015f9060209180835261270160016040600020015461425e565b8160005280835273ffffffffffffffffffffffffffffffffffffffff604060002095169485600052835260ff6040600020541615612749575b50600052526040600020614ca2565b8160005282526040600020846000528252604060002060017fffffffffffffffffffffffffffffffffffffffffffffffffffffffffffffff008254161790553384827f2f8788117e7eff1d82e926ec794901d17c78024a50270940304540a733656f0d6000604051a48561273a565b346104d25760a07ffffffffffffffffffffffffffffffffffffffffffffffffffffffffffffffffc3601126104d2576127ef613ca9565b6127f7613ccc565b9067ffffffffffffffff6044358181116104d257612819903690600401613dda565b926064358281116104d257612832903690600401613dda565b9160849081359081116104d25761284d903690600401613f37565b506128578561458f565b516000526101c8602052604060002054936040519460208601526020855261287e85613d49565b73ffffffffffffffffffffffffffffffffffffffff9133838316148015612ae6575b6128a9906145df565b6128b68751865114614a43565b828416156128c4811561466a565b60ff60975416612a635783831615612a29575b6129bf575b5060005b865181101561297657806128f761297192896145cb565b5161290282886145cb565b51908060005260659081602052604060002087871660005260205282604060002054612930828210156146f5565b8260005283602052604060002089891660005260205203604060002055600052602052604060002085871660005260205261040f6040600020918254614780565b6128e0565b50610662959291604051818416918316907f4a39dc06d4c0dbc64b70af90fd698a233a518aa5d07e595d983b8c0526c8f7fb3391806129b68a8a83614ace565b0390a433614fad565b959290949160005b8451811015612a1c576129da81866145cb565b51906129e681886145cb565b518260005261012d60205260406000205481811061090c57612a179360005261012d60205203604060002055614562565b6129c7565b50919490929550866128dc565b959392919060005b8851811015612a585780612a48612a5392896145cb565b516103f5828c6145cb565b612a31565b5090919293956128d7565b506040517f08c379a000000000000000000000000000000000000000000000000000000000815260206004820152602c60248201527f455243313135355061757361626c653a20746f6b656e207472616e736665722060448201527f7768696c652070617573656400000000000000000000000000000000000000006064820152fd5b5082821660005260666020526040600020336000526020526128a960ff6040600020541690506128a0565b346104d25760207ffffffffffffffffffffffffffffffffffffffffffffffffffffffffffffffffc3601126104d25760043560005261015f6020526020600160406000200154604051908152f35b346104d25760807ffffffffffffffffffffffffffffffffffffffffffffffffffffffffffffffffc3601126104d257612b96613ca9565b67ffffffffffffffff906024358281116104d257612bb8903690600401613dda565b6044358381116104d257612bd0903690600401613dda565b906064358481116104d257612be9903690600401613f37565b8251938483510361371d5760a0828051810103126104d2576040519560a087019081118782101761184a57604052602082015180875260408301519081602089015260608401518060408a015260808501519773ffffffffffffffffffffffffffffffffffffffff891689036104d2578860608b015260a0860151998a15158b036104d25760808b91015282156136ec576101c454906000925b8184106135ce575050600f9150612c998861458f565b51906101c45560405193612cac85613d10565b845273ffffffffffffffffffffffffffffffffffffffff8160201c166020850152818160f41c16604085015260f01c1660608301526000526101c960205260036060604060002092805184556001840173ffffffffffffffffffffffffffffffffffffffff6020830151167fffffffffffffffffffffffff000000000000000000000000000000000000000082541617905560408101516002850155015191015573ffffffffffffffffffffffffffffffffffffffff81161561354a57612d768451845114614a43565b60ff609754166132015760005b8451811015612d9f5780611c29612d9a92866145cb565b612d83565b509091848660005b8651811015612e095780612dbe612e0492866145cb565b51612dc9828a6145cb565b516000526065602052604060002073ffffffffffffffffffffffffffffffffffffffff881660005260205261040f6040600020918254614780565b612da7565b508594604051600073ffffffffffffffffffffffffffffffffffffffff8716917f4a39dc06d4c0dbc64b70af90fd698a233a518aa5d07e595d983b8c0526c8f7fb339180612e588a8d83614ace565b0390a4843b613309575b50612e6b613fac565b60ff6097541661255f573373ffffffffffffffffffffffffffffffffffffffff8516146132855773ffffffffffffffffffffffffffffffffffffffff84166000526066602052604060002033600052602052604060002060017fffffffffffffffffffffffffffffffffffffffffffffffffffffffffffffff008254161790556040516001815233907f17307eab39ab6107e8899845ad3d59bd9653f200f220920489ca2b5937696c31602073ffffffffffffffffffffffffffffffffffffffff881692a3612f3657005b612f3f8461458f565b516000526101c86020526040600020549260405193602085015260208452612f6684613d49565b73ffffffffffffffffffffffffffffffffffffffff81166000526066602052604060002033600052602052612fa260ff604060002054166145df565b612faf8551845114614a43565b73ffffffffffffffffffffffffffffffffffffffff821615612fd1811561466a565b60ff6097541661320157613115575b60005b85518110156130b55780612ffa6130b092886145cb565b5161300582876145cb565b51908060005260659081602052604060002073ffffffffffffffffffffffffffffffffffffffff871660005260205282604060002054613047828210156146f5565b8260005283602052604060002073ffffffffffffffffffffffffffffffffffffffff891660005260205203604060002055600052602052604060002073ffffffffffffffffffffffffffffffffffffffff861660005260205261040f6040600020918254614780565b612fe3565b5073ffffffffffffffffffffffffffffffffffffffff610662959260405182821690838516907f4a39dc06d4c0dbc64b70af90fd698a233a518aa5d07e595d983b8c0526c8f7fb33918061310a8b8b83614ace565b0390a4169033614fad565b929060009492945b83518110156131f65761313081856145cb565b519061313c81886145cb565b518260005261012d6020526040600020548181106131725761316d9360005261012d60205203604060002055614562565b61311d565b60846040517f08c379a000000000000000000000000000000000000000000000000000000000815260206004820152602860248201527f455243313135353a206275726e20616d6f756e74206578636565647320746f7460448201527f616c537570706c790000000000000000000000000000000000000000000000006064820152fd5b509092939193612fe0565b60846040517f08c379a000000000000000000000000000000000000000000000000000000000815260206004820152602c60248201527f455243313135355061757361626c653a20746f6b656e207472616e736665722060448201527f7768696c652070617573656400000000000000000000000000000000000000006064820152fd5b60846040517f08c379a000000000000000000000000000000000000000000000000000000000815260206004820152602960248201527f455243313135353a2073657474696e6720617070726f76616c2073746174757360448201527f20666f722073656c6600000000000000000000000000000000000000000000006064820152fd5b60206133bd91604051809381927fbc197c810000000000000000000000000000000000000000000000000000000083523360048401526000602484015260a0604484015261338d61335d60a485018d613e38565b7ffffffffffffffffffffffffffffffffffffffffffffffffffffffffffffffffc8582030160648601528a613e38565b907ffffffffffffffffffffffffffffffffffffffffffffffffffffffffffffffffc848303016084850152613ef4565b0381600073ffffffffffffffffffffffffffffffffffffffff8a165af160009181613529575b5061345a575060016133f361485b565b6308c379a014613409575b6106f9575b85612e62565b613411614879565b8061341c57506133fe565b61077e906040519182917f08c379a0000000000000000000000000000000000000000000000000000000008352602060048401526024830190613ef4565b7fffffffff000000000000000000000000000000000000000000000000000000007fbc197c810000000000000000000000000000000000000000000000000000000091160315613403576040517f08c379a000000000000000000000000000000000000000000000000000000000815260206004820152602860248201527f455243313135353a204552433131353552656365697665722072656a6563746560448201527f6420746f6b656e730000000000000000000000000000000000000000000000006064820152608490fd5b61354391925060203d6020116108a7576108988183613d81565b90876133e3565b60846040517f08c379a000000000000000000000000000000000000000000000000000000000815260206004820152602160248201527f455243313135353a206d696e7420746f20746865207a65726f2061646472657360448201527f73000000000000000000000000000000000000000000000000000000000000006064820152fd5b90916135da848b6145cb565b51806000526101c760205260ff604060002054166136bb57806000526101c8602052856040600020556001908382604060002001556101c76020526040600020827fffffffffffffffffffffffffffffffffffffffffffffffffffffffffffffff00825416179055826000526101c66020526040600020557ffffffffffffffffffffffffffffffffffffffffffffffffffffffffffffffffe821161368c57613684910193614562565b929190612c83565b7f4e487b7100000000000000000000000000000000000000000000000000000000600052601160045260246000fd5b602490604051907f4acb9c290000000000000000000000000000000000000000000000000000000082526004820152fd5b602483604051907fc88f99b40000000000000000000000000000000000000000000000000000000082526004820152fd5b60c46040517f616c411300000000000000000000000000000000000000000000000000000000815260406004820152600760448201527f616d6f756e747300000000000000000000000000000000000000000000000000606482015260806024820152600360848201527f696473000000000000000000000000000000000000000000000000000000000060a4820152fd5b346104d25760207ffffffffffffffffffffffffffffffffffffffffffffffffffffffffffffffffc3601126104d2576137e6614f88565b506004356000526101c86020526040600020546000526101c9602052610f38604060002060036040519161110b83613d10565b346104d2576020807ffffffffffffffffffffffffffffffffffffffffffffffffffffffffffffffffc3601126104d257604051906000826067549161385d83613e6c565b928383526001908582821691826000146138f957505060011461389c575b5061388892500383613d81565b610f38604051928284938452830190613ef4565b84915060676000527f9787eeb91fe3101235e4a76063c7023ecb40f923f97916639c598592fa30d6ae906000915b8583106138e157505061388893508201018561387b565b805483890185015287945086939092019181016138ca565b7fffffffffffffffffffffffffffffffffffffffffffffffffffffffffffffff00168582015261388895151560051b850101925087915061387b9050565b346104d25760007ffffffffffffffffffffffffffffffffffffffffffffffffffffffffffffffffc3601126104d25760405160006101c5805461397981613e6c565b80855291600191808316908115613a1357506001146139b7575b610f38856139a381870382613d81565b604051918291602083526020830190613ef4565b600090815292507f818f40e4590a6f2c3ec1caee0533b9960911937d8dd67c8f1447b1392a84f2535b8284106139fb5750505081016020016139a382610f38613993565b805460208587018101919091529093019281016139e0565b869550610f38969350602092506139a39491507fffffffffffffffffffffffffffffffffffffffffffffffffffffffffffffff001682840152151560051b8201019293613993565b346104d25760207ffffffffffffffffffffffffffffffffffffffffffffffffffffffffffffffffc3601126104d2576004357fffffffff0000000000000000000000000000000000000000000000000000000081168091036104d257807f5a05180f0000000000000000000000000000000000000000000000000000000060209214908115613af0575b506040519015158152f35b7f7965db0b00000000000000000000000000000000000000000000000000000000811491508115613b23575b5082613ae5565b7fd9b67a2600000000000000000000000000000000000000000000000000000000811491508115613b87575b8115613b5d575b5082613b1c565b7f01ffc9a70000000000000000000000000000000000000000000000000000000091501482613b56565b7f0e89341c0000000000000000000000000000000000000000000000000000000081149150613b4f565b346104d25760407ffffffffffffffffffffffffffffffffffffffffffffffffffffffffffffffffc3601126104d257613be8613ca9565b60243567ffffffffffffffff81116104d257613c08903690600401613dda565b613c128151614513565b9160005b8251811015613c465780613c37613c30613c4193866145cb565b5184614455565b610ee682876145cb565b613c16565b60405160208082528190610f3890820187613e38565b346104d25760407ffffffffffffffffffffffffffffffffffffffffffffffffffffffffffffffffc3601126104d2576020613ca1613c98613ca9565b60243590614455565b604051908152f35b6004359073ffffffffffffffffffffffffffffffffffffffff821682036104d257565b6024359073ffffffffffffffffffffffffffffffffffffffff821682036104d257565b359073ffffffffffffffffffffffffffffffffffffffff821682036104d257565b6080810190811067ffffffffffffffff82111761184a57604052565b610100810190811067ffffffffffffffff82111761184a57604052565b6040810190811067ffffffffffffffff82111761184a57604052565b6020810190811067ffffffffffffffff82111761184a57604052565b90601f7fffffffffffffffffffffffffffffffffffffffffffffffffffffffffffffffe0910116810190811067ffffffffffffffff82111761184a57604052565b67ffffffffffffffff811161184a5760051b60200190565b81601f820112156104d257803591613df183613dc2565b92613dff6040519485613d81565b808452602092838086019260051b8201019283116104d2578301905b828210613e29575050505090565b81358152908301908301613e1b565b90815180825260208080930193019160005b828110613e58575050505090565b835185529381019392810192600101613e4a565b90600182811c92168015613eb5575b6020831014613e8657565b7f4e487b7100000000000000000000000000000000000000000000000000000000600052602260045260246000fd5b91607f1691613e7b565b918091926000905b828210613edf575011613ed8575050565b6000910152565b91508060209183015181860152018291613ec7565b907fffffffffffffffffffffffffffffffffffffffffffffffffffffffffffffffe0601f602093613f3081518092818752878088019101613ebf565b0116010190565b81601f820112156104d25780359067ffffffffffffffff821161184a5760405192613f8a60207fffffffffffffffffffffffffffffffffffffffffffffffffffffffffffffffe0601f8601160185613d81565b828452602083830101116104d257816000926020809301838601378301015290565b3360009081527f213cbec2b438e27569ac0cf67d4573025a7224c5c7e3037a3c891b910e08dc68602090815260408083205490929060ff1615613fee57505050565b613ff733614b04565b908084519061400582613d10565b6042825284820192606036853782511561423157603084538251906001918210156142315790607860218501536041915b8183116141665750505061410a57604861077e9386936140d4936140c598519889937f416363657373436f6e74726f6c3a206163636f756e74200000000000000000008a860152614090815180928c603789019101613ebf565b8401917f206973206d697373696e6720726f6c6520000000000000000000000000000000603784015251809386840190613ebf565b01036028810187520185613d81565b519283927f08c379a000000000000000000000000000000000000000000000000000000000845260048401526024830190613ef4565b6064848651907f08c379a000000000000000000000000000000000000000000000000000000000825280600483015260248201527f537472696e67733a20686578206c656e67746820696e73756666696369656e746044820152fd5b909192600f81166010811015614204577f3031323334353637383961626364656600000000000000000000000000000000901a6141a38587614af3565b5360041c9280156141d7577fffffffffffffffffffffffffffffffffffffffffffffffffffffffffffffffff019190614036565b6024827f4e487b710000000000000000000000000000000000000000000000000000000081526011600452fd5b6024837f4e487b710000000000000000000000000000000000000000000000000000000081526032600452fd5b807f4e487b7100000000000000000000000000000000000000000000000000000000602492526032600452fd5b60009080825260209061015f8252604092838120338252835260ff8482205416156142895750505050565b61429233614b04565b9184519061429f82613d10565b6042825284820192606036853782511561423157603084538251906001918210156142315790607860218501536041915b81831161432a5750505061410a57604861077e9386936140d4936140c598519889937f416363657373436f6e74726f6c3a206163636f756e74200000000000000000008a860152614090815180928c603789019101613ebf565b909192600f81166010811015614204577f3031323334353637383961626364656600000000000000000000000000000000901a6143678587614af3565b5360041c9280156141d7577fffffffffffffffffffffffffffffffffffffffffffffffffffffffffffffffff0191906142d0565b906143ec91600081815261015f918260205260409273ffffffffffffffffffffffffffffffffffffffff84842095169485845260205260ff84842054166143ef575b50815261019160205220614d65565b50565b8183526020528282208483526020528282207fffffffffffffffffffffffffffffffffffffffffffffffffffffffffffffff0081541690553384827ff6391f5c32d9c69d2a47ea670b442974b53935d1edc7fd64eb21e047a839171b858751a4386143dd565b73ffffffffffffffffffffffffffffffffffffffff1690811561448f57600052606560205260406000209060005260205260406000205490565b60846040517f08c379a000000000000000000000000000000000000000000000000000000000815260206004820152602a60248201527f455243313135353a2061646472657373207a65726f206973206e6f742061207660448201527f616c6964206f776e6572000000000000000000000000000000000000000000006064820152fd5b9061451d82613dc2565b61452a6040519182613d81565b8281527fffffffffffffffffffffffffffffffffffffffffffffffffffffffffffffffe06145588294613dc2565b0190602036910137565b7fffffffffffffffffffffffffffffffffffffffffffffffffffffffffffffffff811461368c5760010190565b80511561459c5760200190565b7f4e487b7100000000000000000000000000000000000000000000000000000000600052603260045260246000fd5b805182101561459c5760209160051b010190565b156145e657565b60846040517f08c379a000000000000000000000000000000000000000000000000000000000815260206004820152602f60248201527f455243313135353a2063616c6c6572206973206e6f7420746f6b656e206f776e60448201527f6572206e6f7220617070726f76656400000000000000000000000000000000006064820152fd5b1561467157565b60846040517f08c379a000000000000000000000000000000000000000000000000000000000815260206004820152602560248201527f455243313135353a207472616e7366657220746f20746865207a65726f20616460448201527f64726573730000000000000000000000000000000000000000000000000000006064820152fd5b156146fc57565b60846040517f08c379a000000000000000000000000000000000000000000000000000000000815260206004820152602a60248201527f455243313135353a20696e73756666696369656e742062616c616e636520666f60448201527f72207472616e73666572000000000000000000000000000000000000000000006064820152fd5b8119811161368c570190565b73ffffffffffffffffffffffffffffffffffffffff918216929116908183146132855760207f17307eab39ab6107e8899845ad3d59bd9653f200f220920489ca2b5937696c3191836000526066825260406000208560005282526040600020901515907fffffffffffffffffffffffffffffffffffffffffffffffffffffffffffffff0081541660ff8316179055604051908152a3565b908160209103126104d257517fffffffff00000000000000000000000000000000000000000000000000000000811681036104d25790565b60009060033d1161486857565b905060046000803e60005160e01c90565b600060443d106148f5576040517ffffffffffffffffffffffffffffffffffffffffffffffffffffffffffffffffc91823d016004833e815167ffffffffffffffff918282113d6024840111176148f857818401948551938411614900573d850101602084870101116148f857506148f592910160200190613d81565b90565b949350505050565b50949350505050565b6040519061491682613d49565b6001825260208201602036823782511561459c575290565b1561493557565b60846040517f08c379a000000000000000000000000000000000000000000000000000000000815260206004820152602360248201527f455243313135353a206275726e2066726f6d20746865207a65726f206164647260448201527f65737300000000000000000000000000000000000000000000000000000000006064820152fd5b156149c057565b60846040517f08c379a0000000000000000000000000000000000000000000000000000000008152602060048201526024808201527f455243313135353a206275726e20616d6f756e7420657863656564732062616c60448201527f616e6365000000000000000000000000000000000000000000000000000000006064820152fd5b15614a4a57565b60846040517f08c379a000000000000000000000000000000000000000000000000000000000815260206004820152602860248201527f455243313135353a2069647320616e6420616d6f756e7473206c656e6774682060448201527f6d69736d617463680000000000000000000000000000000000000000000000006064820152fd5b9091614ae56148f593604084526040840190613e38565b916020818403910152613e38565b90815181101561459c570160200190565b604051906060820182811067ffffffffffffffff82111761184a57604052602a825260208201604036823782511561459c5760309053815160019081101561459c57607860218401536029905b808211614bbf575050614b615790565b60646040517f08c379a000000000000000000000000000000000000000000000000000000000815260206004820152602060248201527f537472696e67733a20686578206c656e67746820696e73756666696369656e746044820152fd5b9091600f81166010811015614c5c577f3031323334353637383961626364656600000000000000000000000000000000901a614bfb8486614af3565b5360041c918015614c2e577fffffffffffffffffffffffffffffffffffffffffffffffffffffffffffffffff0190614b51565b602460007f4e487b710000000000000000000000000000000000000000000000000000000081526011600452fd5b602460007f4e487b710000000000000000000000000000000000000000000000000000000081526032600452fd5b805482101561459c5760005260206000200190600090565b91906001830160009082825280602052604082205415600014614d5f5784549468010000000000000000861015614d325783614d22614ceb886001604098999a01855584614c8a565b819391549060031b7fffffffffffffffffffffffffffffffffffffffffffffffffffffffffffffffff811b9283911b169119161790565b9055549382526020522055600190565b6024837f4e487b710000000000000000000000000000000000000000000000000000000081526041600452fd5b50925050565b90600182019060009281845282602052604084205490811515600014614eb85760018210614e8b577fffffffffffffffffffffffffffffffffffffffffffffffffffffffffffffffff91828101825460018110614e5e57840190808203614e29575b50505080548015614dfc57820191614ddf8383614c8a565b909182549160031b1b191690555582526020526040812055600190565b6024867f4e487b710000000000000000000000000000000000000000000000000000000081526031600452fd5b614e49614e39614ceb9386614c8a565b90549060031b1c92839286614c8a565b90558652846020526040862055388080614dc7565b6024887f4e487b710000000000000000000000000000000000000000000000000000000081526011600452fd5b6024857f4e487b710000000000000000000000000000000000000000000000000000000081526011600452fd5b5050505090565b15614ec657565b60846040517f08c379a000000000000000000000000000000000000000000000000000000000815260206004820152602b60248201527f496e697469616c697a61626c653a20636f6e7472616374206973206e6f74206960448201527f6e697469616c697a696e670000000000000000000000000000000000000000006064820152fd5b60405190614f5782613d2c565b8160e06000918281528260208201528260408201528260608201528260808201528260a08201528260c08201520152565b60405190614f9582613d10565b60006060838281528260208201528260408201520152565b949392919091813b614fc2575b505050505050565b60006150689361503792615077602097604051998a98899788957fbc197c81000000000000000000000000000000000000000000000000000000009e8f885273ffffffffffffffffffffffffffffffffffffffff988980921660048a015216602488015260a0604488015260a4870190613e38565b7ffffffffffffffffffffffffffffffffffffffffffffffffffffffffffffffffc9384878303016064880152613e38565b91848303016084850152613ef4565b0393165af160009181615170575b506150c4575050600161509661485b565b6308c379a0146150b1575b6106f9575b388080808080614fba565b6150b9614879565b8061341c57506150a1565b7fffffffff0000000000000000000000000000000000000000000000000000000016146150a6576040517f08c379a000000000000000000000000000000000000000000000000000000000815260206004820152602860248201527f455243313135353a204552433131353552656365697665722072656a6563746560448201527f6420746f6b656e730000000000000000000000000000000000000000000000006064820152608490fd5b61518991925060203d81116108a7576108988183613d81565b9038615085565b359060ff821682036104d257565b35907fffff000000000000000000000000000000000000000000000000000000000000821682036104d25756fea26469706673582212206e19dd24925805489c2fc69c6ab031d5d29196eb68632a2b7ca845533dfde52d64736f6c634300080f0033",
  "linkReferences": {},
  "deployedLinkReferences": {}
}