{
  "_format": "hh-sol-artifact-1",
  "contractName": "Removal",
  "sourceName": "contracts/Removal.sol",
  "abi": [
    {
      "anonymous": false,
      "inputs": [
        {
          "indexed": true,
          "internalType": "address",
          "name": "account",
          "type": "address"
        },
        {
          "indexed": true,
          "internalType": "address",
          "name": "operator",
          "type": "address"
        },
        {
          "indexed": false,
          "internalType": "bool",
          "name": "approved",
          "type": "bool"
        }
      ],
      "name": "ApprovalForAll",
      "type": "event"
    },
    {
      "anonymous": false,
      "inputs": [
        {
          "indexed": false,
          "internalType": "address",
          "name": "account",
          "type": "address"
        }
      ],
      "name": "Paused",
      "type": "event"
    },
    {
      "anonymous": false,
      "inputs": [
        {
          "indexed": true,
          "internalType": "bytes32",
          "name": "role",
          "type": "bytes32"
        },
        {
          "indexed": true,
          "internalType": "bytes32",
          "name": "previousAdminRole",
          "type": "bytes32"
        },
        {
          "indexed": true,
          "internalType": "bytes32",
          "name": "newAdminRole",
          "type": "bytes32"
        }
      ],
      "name": "RoleAdminChanged",
      "type": "event"
    },
    {
      "anonymous": false,
      "inputs": [
        {
          "indexed": true,
          "internalType": "bytes32",
          "name": "role",
          "type": "bytes32"
        },
        {
          "indexed": true,
          "internalType": "address",
          "name": "account",
          "type": "address"
        },
        {
          "indexed": true,
          "internalType": "address",
          "name": "sender",
          "type": "address"
        }
      ],
      "name": "RoleGranted",
      "type": "event"
    },
    {
      "anonymous": false,
      "inputs": [
        {
          "indexed": true,
          "internalType": "bytes32",
          "name": "role",
          "type": "bytes32"
        },
        {
          "indexed": true,
          "internalType": "address",
          "name": "account",
          "type": "address"
        },
        {
          "indexed": true,
          "internalType": "address",
          "name": "sender",
          "type": "address"
        }
      ],
      "name": "RoleRevoked",
      "type": "event"
    },
    {
      "anonymous": false,
      "inputs": [
        {
          "indexed": true,
          "internalType": "address",
          "name": "operator",
          "type": "address"
        },
        {
          "indexed": true,
          "internalType": "address",
          "name": "from",
          "type": "address"
        },
        {
          "indexed": true,
          "internalType": "address",
          "name": "to",
          "type": "address"
        },
        {
          "indexed": false,
          "internalType": "uint256[]",
          "name": "ids",
          "type": "uint256[]"
        },
        {
          "indexed": false,
          "internalType": "uint256[]",
          "name": "values",
          "type": "uint256[]"
        }
      ],
      "name": "TransferBatch",
      "type": "event"
    },
    {
      "anonymous": false,
      "inputs": [
        {
          "indexed": true,
          "internalType": "address",
          "name": "operator",
          "type": "address"
        },
        {
          "indexed": true,
          "internalType": "address",
          "name": "from",
          "type": "address"
        },
        {
          "indexed": true,
          "internalType": "address",
          "name": "to",
          "type": "address"
        },
        {
          "indexed": false,
          "internalType": "uint256",
          "name": "id",
          "type": "uint256"
        },
        {
          "indexed": false,
          "internalType": "uint256",
          "name": "value",
          "type": "uint256"
        }
      ],
      "name": "TransferSingle",
      "type": "event"
    },
    {
      "anonymous": false,
      "inputs": [
        {
          "indexed": false,
          "internalType": "string",
          "name": "value",
          "type": "string"
        },
        {
          "indexed": true,
          "internalType": "uint256",
          "name": "id",
          "type": "uint256"
        }
      ],
      "name": "URI",
      "type": "event"
    },
    {
      "anonymous": false,
      "inputs": [
        {
          "indexed": false,
          "internalType": "address",
          "name": "account",
          "type": "address"
        }
      ],
      "name": "Unpaused",
      "type": "event"
    },
    {
      "inputs": [],
      "name": "DEFAULT_ADMIN_ROLE",
      "outputs": [
        {
          "internalType": "bytes32",
          "name": "",
          "type": "bytes32"
        }
      ],
      "stateMutability": "view",
      "type": "function"
    },
    {
      "inputs": [],
      "name": "MINTER_ROLE",
      "outputs": [
        {
          "internalType": "bytes32",
          "name": "",
          "type": "bytes32"
        }
      ],
      "stateMutability": "view",
      "type": "function"
    },
    {
      "inputs": [],
      "name": "PAUSER_ROLE",
      "outputs": [
        {
          "internalType": "bytes32",
          "name": "",
          "type": "bytes32"
        }
      ],
      "stateMutability": "view",
      "type": "function"
    },
    {
      "inputs": [
        {
          "internalType": "address",
          "name": "account",
          "type": "address"
        },
        {
          "internalType": "uint256",
          "name": "id",
          "type": "uint256"
        }
      ],
      "name": "balanceOf",
      "outputs": [
        {
          "internalType": "uint256",
          "name": "",
          "type": "uint256"
        }
      ],
      "stateMutability": "view",
      "type": "function"
    },
    {
      "inputs": [
        {
          "internalType": "address[]",
          "name": "accounts",
          "type": "address[]"
        },
        {
          "internalType": "uint256[]",
          "name": "ids",
          "type": "uint256[]"
        }
      ],
      "name": "balanceOfBatch",
      "outputs": [
        {
          "internalType": "uint256[]",
          "name": "",
          "type": "uint256[]"
        }
      ],
      "stateMutability": "view",
      "type": "function"
    },
    {
      "inputs": [
        {
          "internalType": "address",
          "name": "account",
          "type": "address"
        },
        {
          "internalType": "uint256",
          "name": "id",
          "type": "uint256"
        },
        {
          "internalType": "uint256",
          "name": "value",
          "type": "uint256"
        }
      ],
      "name": "burn",
      "outputs": [],
      "stateMutability": "nonpayable",
      "type": "function"
    },
    {
      "inputs": [
        {
          "internalType": "address",
          "name": "account",
          "type": "address"
        },
        {
          "internalType": "uint256[]",
          "name": "ids",
          "type": "uint256[]"
        },
        {
          "internalType": "uint256[]",
          "name": "values",
          "type": "uint256[]"
        }
      ],
      "name": "burnBatch",
      "outputs": [],
      "stateMutability": "nonpayable",
      "type": "function"
    },
    {
      "inputs": [
        {
          "internalType": "bytes",
          "name": "removalData",
          "type": "bytes"
        }
      ],
      "name": "createRemovalId",
      "outputs": [
        {
          "internalType": "uint256",
          "name": "",
          "type": "uint256"
        }
      ],
      "stateMutability": "view",
      "type": "function"
    },
    {
      "inputs": [
        {
          "internalType": "uint256",
          "name": "id",
          "type": "uint256"
        }
      ],
      "name": "exists",
      "outputs": [
        {
          "internalType": "bool",
          "name": "",
          "type": "bool"
        }
      ],
      "stateMutability": "view",
      "type": "function"
    },
    {
      "inputs": [
        {
          "internalType": "bytes32",
          "name": "role",
          "type": "bytes32"
        }
      ],
      "name": "getRoleAdmin",
      "outputs": [
        {
          "internalType": "bytes32",
          "name": "",
          "type": "bytes32"
        }
      ],
      "stateMutability": "view",
      "type": "function"
    },
    {
      "inputs": [
        {
          "internalType": "bytes32",
          "name": "role",
          "type": "bytes32"
        },
        {
          "internalType": "uint256",
          "name": "index",
          "type": "uint256"
        }
      ],
      "name": "getRoleMember",
      "outputs": [
        {
          "internalType": "address",
          "name": "",
          "type": "address"
        }
      ],
      "stateMutability": "view",
      "type": "function"
    },
    {
      "inputs": [
        {
          "internalType": "bytes32",
          "name": "role",
          "type": "bytes32"
        }
      ],
      "name": "getRoleMemberCount",
      "outputs": [
        {
          "internalType": "uint256",
          "name": "",
          "type": "uint256"
        }
      ],
      "stateMutability": "view",
      "type": "function"
    },
    {
      "inputs": [
        {
          "internalType": "bytes32",
          "name": "role",
          "type": "bytes32"
        },
        {
          "internalType": "address",
          "name": "account",
          "type": "address"
        }
      ],
      "name": "grantRole",
      "outputs": [],
      "stateMutability": "nonpayable",
      "type": "function"
    },
    {
      "inputs": [
        {
          "internalType": "bytes32",
          "name": "role",
          "type": "bytes32"
        },
        {
          "internalType": "address",
          "name": "account",
          "type": "address"
        }
      ],
      "name": "hasRole",
      "outputs": [
        {
          "internalType": "bool",
          "name": "",
          "type": "bool"
        }
      ],
      "stateMutability": "view",
      "type": "function"
    },
    {
      "inputs": [
        {
          "internalType": "uint256",
          "name": "",
          "type": "uint256"
        }
      ],
      "name": "indexToTokenId",
      "outputs": [
        {
          "internalType": "uint256",
          "name": "",
          "type": "uint256"
        }
      ],
      "stateMutability": "view",
      "type": "function"
    },
    {
      "inputs": [],
      "name": "initialize",
      "outputs": [],
      "stateMutability": "nonpayable",
      "type": "function"
    },
    {
      "inputs": [
        {
          "internalType": "string",
          "name": "uri",
          "type": "string"
        }
      ],
      "name": "initialize",
      "outputs": [],
      "stateMutability": "nonpayable",
      "type": "function"
    },
    {
      "inputs": [
        {
          "internalType": "address",
          "name": "account",
          "type": "address"
        },
        {
          "internalType": "address",
          "name": "operator",
          "type": "address"
        }
      ],
      "name": "isApprovedForAll",
      "outputs": [
        {
          "internalType": "bool",
          "name": "",
          "type": "bool"
        }
      ],
      "stateMutability": "view",
      "type": "function"
    },
    {
      "inputs": [
        {
          "internalType": "address",
          "name": "to",
          "type": "address"
        },
        {
          "internalType": "uint256",
          "name": "id",
          "type": "uint256"
        },
        {
          "internalType": "uint256",
          "name": "amount",
          "type": "uint256"
        },
        {
          "internalType": "bytes",
          "name": "data",
          "type": "bytes"
        }
      ],
      "name": "mint",
      "outputs": [],
      "stateMutability": "nonpayable",
      "type": "function"
    },
    {
      "inputs": [
        {
          "internalType": "address",
          "name": "to",
          "type": "address"
        },
        {
          "internalType": "uint256[]",
          "name": "amounts",
          "type": "uint256[]"
        },
        {
          "internalType": "uint256[]",
          "name": "ids",
          "type": "uint256[]"
        },
        {
          "internalType": "bytes",
          "name": "data",
          "type": "bytes"
        }
      ],
      "name": "mintBatch",
      "outputs": [],
      "stateMutability": "nonpayable",
      "type": "function"
    },
    {
      "inputs": [],
      "name": "name",
      "outputs": [
        {
          "internalType": "string",
          "name": "",
          "type": "string"
        }
      ],
      "stateMutability": "view",
      "type": "function"
    },
    {
      "inputs": [],
      "name": "pause",
      "outputs": [],
      "stateMutability": "nonpayable",
      "type": "function"
    },
    {
      "inputs": [],
      "name": "paused",
      "outputs": [
        {
          "internalType": "bool",
          "name": "",
          "type": "bool"
        }
      ],
      "stateMutability": "view",
      "type": "function"
    },
    {
      "inputs": [
        {
          "internalType": "bytes32",
          "name": "role",
          "type": "bytes32"
        },
        {
          "internalType": "address",
          "name": "account",
          "type": "address"
        }
      ],
      "name": "renounceRole",
      "outputs": [],
      "stateMutability": "nonpayable",
      "type": "function"
    },
    {
      "inputs": [
        {
          "internalType": "bytes32",
          "name": "role",
          "type": "bytes32"
        },
        {
          "internalType": "address",
          "name": "account",
          "type": "address"
        }
      ],
      "name": "revokeRole",
      "outputs": [],
      "stateMutability": "nonpayable",
      "type": "function"
    },
    {
      "inputs": [
        {
          "internalType": "address",
          "name": "_from",
          "type": "address"
        },
        {
          "internalType": "address",
          "name": "_to",
          "type": "address"
        },
        {
          "internalType": "uint256[]",
          "name": "_ids",
          "type": "uint256[]"
        },
        {
          "internalType": "uint256[]",
          "name": "_amounts",
          "type": "uint256[]"
        },
        {
          "internalType": "bytes",
          "name": "_data",
          "type": "bytes"
        }
      ],
      "name": "safeBatchTransferFrom",
      "outputs": [],
      "stateMutability": "nonpayable",
      "type": "function"
    },
    {
      "inputs": [
        {
          "internalType": "address",
          "name": "from",
          "type": "address"
        },
        {
          "internalType": "address",
          "name": "to",
          "type": "address"
        },
        {
          "internalType": "uint256",
          "name": "id",
          "type": "uint256"
        },
        {
          "internalType": "uint256",
          "name": "amount",
          "type": "uint256"
        },
        {
          "internalType": "bytes",
          "name": "data",
          "type": "bytes"
        }
      ],
      "name": "safeTransferFrom",
      "outputs": [],
      "stateMutability": "nonpayable",
      "type": "function"
    },
    {
      "inputs": [
        {
          "internalType": "address",
          "name": "owner",
          "type": "address"
        },
        {
          "internalType": "address",
          "name": "operator",
          "type": "address"
        },
        {
          "internalType": "bool",
          "name": "approved",
          "type": "bool"
        }
      ],
      "name": "setApprovalForAll",
      "outputs": [],
      "stateMutability": "nonpayable",
      "type": "function"
    },
    {
      "inputs": [
        {
          "internalType": "address",
          "name": "operator",
          "type": "address"
        },
        {
          "internalType": "bool",
          "name": "approved",
          "type": "bool"
        }
      ],
      "name": "setApprovalForAll",
      "outputs": [],
      "stateMutability": "nonpayable",
      "type": "function"
    },
    {
      "inputs": [
        {
          "internalType": "bytes4",
          "name": "interfaceId",
          "type": "bytes4"
        }
      ],
      "name": "supportsInterface",
      "outputs": [
        {
          "internalType": "bool",
          "name": "",
          "type": "bool"
        }
      ],
      "stateMutability": "view",
      "type": "function"
    },
    {
      "inputs": [
        {
          "internalType": "uint256",
          "name": "id",
          "type": "uint256"
        }
      ],
      "name": "totalSupply",
      "outputs": [
        {
          "internalType": "uint256",
          "name": "",
          "type": "uint256"
        }
      ],
      "stateMutability": "view",
      "type": "function"
    },
    {
      "inputs": [
        {
          "internalType": "uint256",
          "name": "removalId",
          "type": "uint256"
        }
      ],
      "name": "unpackRemovalId",
      "outputs": [
        {
          "components": [
            {
              "internalType": "uint8",
              "name": "idVersion",
              "type": "uint8"
            },
            {
              "internalType": "uint8",
              "name": "methodology",
              "type": "uint8"
            },
            {
              "internalType": "uint8",
              "name": "methodologyVersion",
              "type": "uint8"
            },
            {
              "internalType": "uint16",
              "name": "vintage",
              "type": "uint16"
            },
            {
              "internalType": "bytes2",
              "name": "country",
              "type": "bytes2"
            },
            {
              "internalType": "bytes2",
              "name": "admin1",
              "type": "bytes2"
            },
            {
              "internalType": "address",
              "name": "supplierAddress",
              "type": "address"
            },
            {
              "internalType": "uint32",
              "name": "subIdentifier",
              "type": "uint32"
            }
          ],
          "internalType": "struct UnpackedRemovalIdV0",
          "name": "",
          "type": "tuple"
        }
      ],
      "stateMutability": "pure",
      "type": "function"
    },
    {
      "inputs": [],
      "name": "unpause",
      "outputs": [],
      "stateMutability": "nonpayable",
      "type": "function"
    },
    {
      "inputs": [
        {
          "internalType": "uint256",
          "name": "",
          "type": "uint256"
        }
      ],
      "name": "uri",
      "outputs": [
        {
          "internalType": "string",
          "name": "",
          "type": "string"
        }
      ],
      "stateMutability": "view",
      "type": "function"
    }
  ],
  "bytecode": "0x608060405234801561001057600080fd5b50613a8e806100206000396000f3fe608060405234801561001057600080fd5b50600436106102055760003560e01c8063731133e91161011a578063bd85b039116100ad578063e63ab1e91161007c578063e63ab1e914610495578063e985e9c5146104aa578063f242432a146104e6578063f5298aca146104f9578063f62d18881461050c57600080fd5b8063bd85b03914610439578063ca15c8731461045a578063d53913931461046d578063d547741f1461048257600080fd5b80639010d07c116100e95780639010d07c146103e057806391d148541461040b578063a217fddf1461041e578063a22cb4651461042657600080fd5b8063731133e91461039c5780637aef1164146103af5780638129fc1c146103d05780638456cb59146103d857600080fd5b80632f2ff15d1161019d57806348ec4c3b1161016c57806348ec4c3b146103275780634e1273f41461033a5780634f558e791461035a5780635c975abb1461037d5780636b20c4541461038957600080fd5b80632f2ff15d146102e657806336568abe146102f9578063367605ca1461030c5780633f4ba83a1461031f57600080fd5b80630e89341c116101d95780630e89341c146102885780631f7fdffa1461029b578063248a9ca3146102b05780632eb2c2d6146102d357600080fd5b8062fdd58e1461020a57806301ffc9a71461023057806305a396581461025357806306fdde0314610273575b600080fd5b61021d6102183660046128f0565b61051f565b6040519081526020015b60405180910390f35b61024361023e366004612932565b6105bb565b6040519015158152602001610227565b61026661026136600461294f565b6105c6565b6040516102279190612968565b61027b6105d7565b6040516102279190612a57565b61027b61029636600461294f565b610666565b6102ae6102a9366004612bbd565b6106fa565b005b61021d6102be36600461294f565b60009081526065602052604090206001015490565b6102ae6102e1366004612c57565b610882565b6102ae6102f4366004612d04565b61088f565b6102ae610307366004612d04565b6108ba565b6102ae61031a366004612d42565b610938565b6102ae61099c565b61021d610335366004612d8d565b610a30565b61034d610348366004612dfe565b610a43565b6040516102279190612f05565b61024361036836600461294f565b60009081526101c36020526040902054151590565b61012d5460ff16610243565b6102ae610397366004612f18565b610b6c565b6102ae6103aa366004612f8d565b610baf565b61021d6103bd36600461294f565b6101f76020526000908152604090205481565b6102ae610bef565b6102ae610cc0565b6103f36103ee366004612fe3565b610d52565b6040516001600160a01b039091168152602001610227565b610243610419366004612d04565b610d6a565b61021d600081565b6102ae610434366004613005565b610d95565b61021d61044736600461294f565b60009081526101c3602052604090205490565b61021d61046836600461294f565b610da0565b61021d600080516020613a1383398151915281565b6102ae610490366004612d04565b610db7565b61021d6000805160206139f383398151915281565b6102436104b8366004613033565b6001600160a01b03918216600090815260ca6020908152604080832093909416825291909152205460ff1690565b6102ae6104f4366004613061565b610ddd565b6102ae6105073660046130c9565b610e22565b6102ae61051a3660046130fe565b610e65565b60006001600160a01b0383166105905760405162461bcd60e51b815260206004820152602b60248201527f455243313135353a2062616c616e636520717565727920666f7220746865207a60448201526a65726f206164647265737360a81b60648201526084015b60405180910390fd5b50600081815260c9602090815260408083206001600160a01b03861684529091529020545b92915050565b60006105b582610ee0565b6105ce6127ee565b6105b582610eeb565b6101f680546105e59061314e565b80601f01602080910402602001604051908101604052809291908181526020018280546106119061314e565b801561065e5780601f106106335761010080835404028352916020019161065e565b820191906000526020600020905b81548152906001019060200180831161064157829003601f168201915b505050505081565b606060cb80546106759061314e565b80601f01602080910402602001604051908101604052809291908181526020018280546106a19061314e565b80156106ee5780601f106106c3576101008083540402835291602001916106ee565b820191906000526020600020905b8154815290600101906020018083116106d157829003601f168201915b50505050509050919050565b6000818060200190518101906107109190613188565b905060005b8351811015610847576101f86000858381518110610735576107356131e6565b60209081029190910181015182528101919091526040016000205460ff16156107a05760405162461bcd60e51b815260206004820152601760248201527f546f6b656e20696420616c7265616479206578697374730000000000000000006044820152606401610587565b60016101f860008684815181106107b9576107b96131e6565b6020026020010151815260200190815260200160002060006101000a81548160ff0219169083151502179055508381815181106107f8576107f86131e6565b60200260200101516101f760006101f55481526020019081526020016000208190555060016101f5600082825461082f9190613212565b9091555081905061083f8161322a565b915050610715565b5061085485848685610fa2565b61086085336001610938565b80602001511561087b5761087b858260000151858786610882565b5050505050565b61087b8585858585610fe2565b6000828152606560205260409020600101546108ab8133611072565b6108b583836110d6565b505050565b6001600160a01b038116331461092a5760405162461bcd60e51b815260206004820152602f60248201527f416363657373436f6e74726f6c3a2063616e206f6e6c792072656e6f756e636560448201526e103937b632b9903337b91039b2b63360891b6064820152608401610587565b61093482826110f8565b5050565b60006109448133611072565b61012d5460ff161561098b5760405162461bcd60e51b815260206004820152601060248201526f14185d5cd8589b194e881c185d5cd95960821b6044820152606401610587565b61099684848461111a565b50505050565b6109b46000805160206139f383398151915233610d6a565b610a265760405162461bcd60e51b815260206004820152603b60248201527f455243313135355072657365744d696e7465725061757365723a206d7573742060448201527f686176652070617573657220726f6c6520746f20756e706175736500000000006064820152608401610587565b610a2e6111fa565b565b6000610a3c838361128f565b9392505050565b60608151835114610aa85760405162461bcd60e51b815260206004820152602960248201527f455243313135353a206163636f756e747320616e6420696473206c656e677468604482015268040dad2e6dac2e8c6d60bb1b6064820152608401610587565b600083516001600160401b03811115610ac357610ac3612a6a565b604051908082528060200260200182016040528015610aec578160200160208202803683370190505b50905060005b8451811015610b6457610b37858281518110610b1057610b106131e6565b6020026020010151858381518110610b2a57610b2a6131e6565b602002602001015161051f565b828281518110610b4957610b496131e6565b6020908102919091010152610b5d8161322a565b9050610af2565b509392505050565b6001600160a01b038316331480610b885750610b8883336104b8565b610ba45760405162461bcd60e51b815260040161058790613243565b6108b58383836114dd565b610bc7600080516020613a1383398151915233610d6a565b610be35760405162461bcd60e51b81526004016105879061328c565b6109968484848461166e565b600054610100900460ff16610c0a5760005460ff1615610c0e565b303b155b610c2a5760405162461bcd60e51b8152600401610587906132e9565b600054610100900460ff16158015610c4c576000805461ffff19166101011790555b610c6d604051806060016040528060268152602001613a3360269139610e65565b610c75611746565b60006101f5556040805180820190915260078082526614995b5bdd985b60ca1b6020909201918252610caa916101f691612832565b508015610cbd576000805461ff00191690555b50565b610cd86000805160206139f383398151915233610d6a565b610d4a5760405162461bcd60e51b815260206004820152603960248201527f455243313135355072657365744d696e7465725061757365723a206d7573742060448201527f686176652070617573657220726f6c6520746f207061757365000000000000006064820152608401610587565b610a2e61176d565b6000828152609760205260408120610a3c90836117ea565b60009182526065602090815260408084206001600160a01b0393909316845291905290205460ff1690565b61093433838361111a565b60008181526097602052604081206105b5906117f6565b600082815260656020526040902060010154610dd38133611072565b6108b583836110f8565b6001600160a01b038516331480610df95750610df985336104b8565b610e155760405162461bcd60e51b815260040161058790613243565b61087b8585858585611800565b6001600160a01b038316331480610e3e5750610e3e83336104b8565b610e5a5760405162461bcd60e51b815260040161058790613243565b6108b5838383611921565b600054610100900460ff16610e805760005460ff1615610e84565b303b155b610ea05760405162461bcd60e51b8152600401610587906132e9565b600054610100900460ff16158015610ec2576000805461ffff19166101011790555b610ecb82611a26565b8015610934576000805461ff00191690555050565b60006105b582611a67565b610ef36127ee565b604051806101000160405280610f0884611aa7565b60ff168152602001610f1984611ab6565b60ff168152602001610f2a84611acf565b60ff168152602001610f3b84611ae7565b61ffff168152602001610f4d84611af6565b6001600160f01b0319168152602001610f6584611b0e565b6001600160f01b0319168152602001610f7d84611b1d565b6001600160a01b03168152602001610f9484611b2c565b63ffffffff16905292915050565b610fba600080516020613a1383398151915233610d6a565b610fd65760405162461bcd60e51b81526004016105879061328c565b61099684848484611b3b565b6001600160a01b038516331480610ffe5750610ffe85336104b8565b6110655760405162461bcd60e51b815260206004820152603260248201527f455243313135353a207472616e736665722063616c6c6572206973206e6f74206044820152711bdddb995c881b9bdc88185c1c1c9bdd995960721b6064820152608401610587565b61087b8585858585611c96565b61107c8282610d6a565b61093457611094816001600160a01b03166014611e43565b61109f836020611e43565b6040516020016110b0929190613337565b60408051601f198184030181529082905262461bcd60e51b825261058791600401612a57565b6110e08282611fde565b60008281526097602052604090206108b59082612064565b6111028282612079565b60008281526097602052604090206108b590826120e0565b816001600160a01b0316836001600160a01b03160361118d5760405162461bcd60e51b815260206004820152602960248201527f455243313135353a2073657474696e6720617070726f76616c20737461747573604482015268103337b91039b2b63360b91b6064820152608401610587565b6001600160a01b03838116600081815260ca6020908152604080832094871680845294825291829020805460ff191686151590811790915591519182527f17307eab39ab6107e8899845ad3d59bd9653f200f220920489ca2b5937696c31910160405180910390a3505050565b61012d5460ff166112445760405162461bcd60e51b815260206004820152601460248201527314185d5cd8589b194e881b9bdd081c185d5cd95960621b6044820152606401610587565b61012d805460ff191690557f5db9ee0a495bf2e6ff9c91a7834c1ba4fdd244a5e8aa4e537bd38aeae4b073aa335b6040516001600160a01b03909116815260200160405180910390a1565b60008061129e838501856133bd565b60ff16905080156112fd5760405162461bcd60e51b8152602060048201526024808201527f556e737570706f727465642072656d6f76616c20746f6b656e2069642076657260448201526339b4b7b760e11b6064820152608401610587565b61010083146113615760405162461bcd60e51b815260206004820152602a60248201527f72656d6f76616c4461746120636f6e7461696e732077726f6e67206e756d626560448201526972206f6620627974657360b01b6064820152608401610587565b600061136f84860186613416565b9050600f816020015160ff1611156113bc5760405162461bcd60e51b815260206004820152601060248201526f4d6574686f6c6f646f6779203e20313560801b6044820152606401610587565b600f816040015160ff1611156114145760405162461bcd60e51b815260206004820152601860248201527f4d6574686f6c6f646f67792076657273696f6e203e20313500000000000000006044820152606401610587565b600081604001516004836020015160ff16901b1760ff1690506008600061143b91906134da565b60e083015163ffffffff16901b611454600860046134da565b60c08401516001600160a01b0316901b611470600860186134da565b60a085015160f01c901b6114866008601a6134da565b608086015160f01c901b61149c6008601c6134da565b606087015161ffff16901b6114b36008601e6134da565b86901b6114c26008601f6134da565b886000015160ff16901b171717171717935050505092915050565b6001600160a01b0383166115035760405162461bcd60e51b8152600401610587906134f9565b80518251146115245760405162461bcd60e51b81526004016105879061353c565b6000339050611547818560008686604051806020016040528060008152506120f5565b60005b835181101561160f576000848281518110611567576115676131e6565b602002602001015190506000848381518110611585576115856131e6565b602090810291909101810151600084815260c9835260408082206001600160a01b038c1683529093529190912054909150818110156115d65760405162461bcd60e51b815260040161058790613584565b600092835260c9602090815260408085206001600160a01b038b16865290915290922091039055806116078161322a565b91505061154a565b5060006001600160a01b0316846001600160a01b0316826001600160a01b03167f4a39dc06d4c0dbc64b70af90fd698a233a518aa5d07e595d983b8c0526c8f7fb86866040516116609291906135c8565b60405180910390a450505050565b6001600160a01b0384166116945760405162461bcd60e51b8152600401610587906135f6565b336116b4816000876116a588612103565b6116ae88612103565b876120f5565b600084815260c9602090815260408083206001600160a01b0389168452909152812080548592906116e6908490613212565b909155505060408051858152602081018590526001600160a01b0380881692600092918516917fc3d58168c5ae7397731d063d5bbf3d657854427343f4c083240f7aacaa2d0f62910160405180910390a461087b8160008787878761214e565b600054610100900460ff16610a2e5760405162461bcd60e51b815260040161058790613637565b61012d5460ff16156117b45760405162461bcd60e51b815260206004820152601060248201526f14185d5cd8589b194e881c185d5cd95960821b6044820152606401610587565b61012d805460ff191660011790557f62e78cea01bee320cd4e420270b5ea74000d11b0c9f74754ebdbfc544b05a2586112723390565b6000610a3c83836122a9565b60006105b5825490565b6001600160a01b0384166118265760405162461bcd60e51b815260040161058790613682565b336118368187876116a588612103565b600084815260c9602090815260408083206001600160a01b038a168452909152902054838110156118795760405162461bcd60e51b8152600401610587906136c7565b600085815260c9602090815260408083206001600160a01b038b81168552925280832087850390559088168252812080548692906118b8908490613212565b909155505060408051868152602081018690526001600160a01b03808916928a821692918616917fc3d58168c5ae7397731d063d5bbf3d657854427343f4c083240f7aacaa2d0f62910160405180910390a461191882888888888861214e565b50505050505050565b6001600160a01b0383166119475760405162461bcd60e51b8152600401610587906134f9565b336119768185600061195887612103565b61196187612103565b604051806020016040528060008152506120f5565b600083815260c9602090815260408083206001600160a01b0388168452909152902054828110156119b95760405162461bcd60e51b815260040161058790613584565b600084815260c9602090815260408083206001600160a01b03898116808652918452828520888703905582518981529384018890529092908616917fc3d58168c5ae7397731d063d5bbf3d657854427343f4c083240f7aacaa2d0f62910160405180910390a45050505050565b600054610100900460ff16611a4d5760405162461bcd60e51b815260040161058790613637565b611a56816122d3565b611a5e612303565b610cbd81612337565b60006001600160e01b03198216636cdb3d1360e11b1480611a9857506001600160e01b031982166303a24d0760e21b145b806105b557506105b582612399565b60006105b5826001601f6123be565b60006004611ac7836001601e6123be565b901c92915050565b6000611ade826001601e6123be565b600f1692915050565b60006105b5826002601c6123be565b6000611b05826002601a6123be565b60f01b92915050565b6000611b0582600260186123be565b60006105b582601460046123be565b60006105b582600460006123be565b6001600160a01b038416611b615760405162461bcd60e51b8152600401610587906135f6565b8151835114611b825760405162461bcd60e51b81526004016105879061353c565b33611b92816000878787876120f5565b60005b8451811015611c2e57838181518110611bb057611bb06131e6565b602002602001015160c96000878481518110611bce57611bce6131e6565b602002602001015181526020019081526020016000206000886001600160a01b03166001600160a01b031681526020019081526020016000206000828254611c169190613212565b90915550819050611c268161322a565b915050611b95565b50846001600160a01b031660006001600160a01b0316826001600160a01b03167f4a39dc06d4c0dbc64b70af90fd698a233a518aa5d07e595d983b8c0526c8f7fb8787604051611c7f9291906135c8565b60405180910390a461087b8160008787878761240a565b8151835114611cb75760405162461bcd60e51b81526004016105879061353c565b6001600160a01b038416611cdd5760405162461bcd60e51b815260040161058790613682565b33611cec8187878787876120f5565b60005b8451811015611dd5576000858281518110611d0c57611d0c6131e6565b602002602001015190506000858381518110611d2a57611d2a6131e6565b602090810291909101810151600084815260c9835260408082206001600160a01b038e168352909352919091205490915081811015611d7b5760405162461bcd60e51b8152600401610587906136c7565b600083815260c9602090815260408083206001600160a01b038e8116855292528083208585039055908b16825281208054849290611dba908490613212565b9250508190555050505080611dce9061322a565b9050611cef565b50846001600160a01b0316866001600160a01b0316826001600160a01b03167f4a39dc06d4c0dbc64b70af90fd698a233a518aa5d07e595d983b8c0526c8f7fb8787604051611e259291906135c8565b60405180910390a4611e3b81878787878761240a565b505050505050565b60606000611e528360026134da565b611e5d906002613212565b6001600160401b03811115611e7457611e74612a6a565b6040519080825280601f01601f191660200182016040528015611e9e576020820181803683370190505b509050600360fc1b81600081518110611eb957611eb96131e6565b60200101906001600160f81b031916908160001a905350600f60fb1b81600181518110611ee857611ee86131e6565b60200101906001600160f81b031916908160001a9053506000611f0c8460026134da565b611f17906001613212565b90505b6001811115611f8f576f181899199a1a9b1b9c1cb0b131b232b360811b85600f1660108110611f4b57611f4b6131e6565b1a60f81b828281518110611f6157611f616131e6565b60200101906001600160f81b031916908160001a90535060049490941c93611f8881613711565b9050611f1a565b508315610a3c5760405162461bcd60e51b815260206004820181905260248201527f537472696e67733a20686578206c656e67746820696e73756666696369656e746044820152606401610587565b611fe88282610d6a565b6109345760008281526065602090815260408083206001600160a01b03851684529091529020805460ff191660011790556120203390565b6001600160a01b0316816001600160a01b0316837f2f8788117e7eff1d82e926ec794901d17c78024a50270940304540a733656f0d60405160405180910390a45050565b6000610a3c836001600160a01b0384166124c5565b6120838282610d6a565b156109345760008281526065602090815260408083206001600160a01b0385168085529252808320805460ff1916905551339285917ff6391f5c32d9c69d2a47ea670b442974b53935d1edc7fd64eb21e047a839171b9190a45050565b6000610a3c836001600160a01b038416612514565b611e3b86868686868661260e565b6040805160018082528183019092526060916000919060208083019080368337019050509050828160008151811061213d5761213d6131e6565b602090810291909101015292915050565b6001600160a01b0384163b15611e3b5760405163f23a6e6160e01b81526001600160a01b0385169063f23a6e61906121929089908990889088908890600401613728565b6020604051808303816000875af19250505080156121cd575060408051601f3d908101601f191682019092526121ca9181019061376d565b60015b612279576121d961378a565b806308c379a00361221257506121ed6137a6565b806121f85750612214565b8060405162461bcd60e51b81526004016105879190612a57565b505b60405162461bcd60e51b815260206004820152603460248201527f455243313135353a207472616e7366657220746f206e6f6e20455243313135356044820152732932b1b2b4bb32b91034b6b83632b6b2b73a32b960611b6064820152608401610587565b6001600160e01b0319811663f23a6e6160e01b146119185760405162461bcd60e51b81526004016105879061382f565b60008260000182815481106122c0576122c06131e6565b9060005260206000200154905092915050565b600054610100900460ff166122fa5760405162461bcd60e51b815260040161058790613637565b610cbd8161272a565b600054610100900460ff1661232a5760405162461bcd60e51b815260040161058790613637565b61012d805460ff19169055565b600054610100900460ff1661235e5760405162461bcd60e51b815260040161058790613637565b61236960003361273d565b612381600080516020613a138339815191523361273d565b610cbd6000805160206139f38339815191523361273d565b60006001600160e01b03198216635a05180f60e01b14806105b557506105b582612747565b6000806123cc6008846134da565b60016123d96008876134da565b6123e490600261395b565b6123ee9190613967565b901b90508481166124006008856134da565b1c95945050505050565b6001600160a01b0384163b15611e3b5760405163bc197c8160e01b81526001600160a01b0385169063bc197c819061244e908990899088908890889060040161397e565b6020604051808303816000875af1925050508015612489575060408051601f3d908101601f191682019092526124869181019061376d565b60015b612495576121d961378a565b6001600160e01b0319811663bc197c8160e01b146119185760405162461bcd60e51b81526004016105879061382f565b600081815260018301602052604081205461250c575081546001818101845560008481526020808220909301849055845484825282860190935260409020919091556105b5565b5060006105b5565b600081815260018301602052604081205480156125fd576000612538600183613967565b855490915060009061254c90600190613967565b90508181146125b157600086600001828154811061256c5761256c6131e6565b906000526020600020015490508087600001848154811061258f5761258f6131e6565b6000918252602080832090910192909255918252600188019052604090208390555b85548690806125c2576125c26139dc565b6001900381819060005260206000200160009055905585600101600086815260200190815260200160002060009055600193505050506105b5565b60009150506105b5565b5092915050565b61261c86868686868661277c565b6001600160a01b0385166126a45760005b83518110156126a257828181518110612648576126486131e6565b60200260200101516101c36000868481518110612667576126676131e6565b60200260200101518152602001908152602001600020600082825461268c9190613212565b9091555061269b90508161322a565b905061262d565b505b6001600160a01b038416611e3b5760005b8351811015611918578281815181106126d0576126d06131e6565b60200260200101516101c360008684815181106126ef576126ef6131e6565b6020026020010151815260200190815260200160002060008282546127149190613967565b9091555061272390508161322a565b90506126b5565b80516109349060cb906020840190612832565b61093482826110d6565b60006001600160e01b03198216637965db0b60e01b14806105b557506301ffc9a760e01b6001600160e01b03198316146105b5565b611e3b86868686868661012d5460ff1615611e3b5760405162461bcd60e51b815260206004820152602c60248201527f455243313135355061757361626c653a20746f6b656e207472616e736665722060448201526b1dda1a5b19481c185d5cd95960a21b6064820152608401610587565b6040805161010081018252600080825260208201819052918101829052606081018290526080810182905260a0810182905260c0810182905260e081019190915290565b82805461283e9061314e565b90600052602060002090601f01602090048101928261286057600085556128a6565b82601f1061287957805160ff19168380011785556128a6565b828001600101855582156128a6579182015b828111156128a657825182559160200191906001019061288b565b506128b29291506128b6565b5090565b5b808211156128b257600081556001016128b7565b6001600160a01b0381168114610cbd57600080fd5b80356128eb816128cb565b919050565b6000806040838503121561290357600080fd5b823561290e816128cb565b946020939093013593505050565b6001600160e01b031981168114610cbd57600080fd5b60006020828403121561294457600080fd5b8135610a3c8161291c565b60006020828403121561296157600080fd5b5035919050565b60006101008201905060ff835116825260ff602084015116602083015260ff604084015116604083015261ffff606084015116606083015261ffff60f01b608084015116608083015260a08301516129cc60a08401826001600160f01b0319169052565b5060c08301516129e760c08401826001600160a01b03169052565b5060e083015161260760e084018263ffffffff169052565b60005b83811015612a1a578181015183820152602001612a02565b838111156109965750506000910152565b60008151808452612a438160208601602086016129ff565b601f01601f19169290920160200192915050565b602081526000610a3c6020830184612a2b565b634e487b7160e01b600052604160045260246000fd5b601f8201601f191681016001600160401b0381118282101715612aa557612aa5612a6a565b6040525050565b60006001600160401b03821115612ac557612ac5612a6a565b5060051b60200190565b600082601f830112612ae057600080fd5b81356020612aed82612aac565b604051612afa8282612a80565b83815260059390931b8501820192828101915086841115612b1a57600080fd5b8286015b84811015612b355780358352918301918301612b1e565b509695505050505050565b60006001600160401b03831115612b5957612b59612a6a565b604051612b70601f8501601f191660200182612a80565b809150838152848484011115612b8557600080fd5b83836020830137600060208583010152509392505050565b600082601f830112612bae57600080fd5b610a3c83833560208501612b40565b60008060008060808587031215612bd357600080fd5b8435612bde816128cb565b935060208501356001600160401b0380821115612bfa57600080fd5b612c0688838901612acf565b94506040870135915080821115612c1c57600080fd5b612c2888838901612acf565b93506060870135915080821115612c3e57600080fd5b50612c4b87828801612b9d565b91505092959194509250565b600080600080600060a08688031215612c6f57600080fd5b8535612c7a816128cb565b94506020860135612c8a816128cb565b935060408601356001600160401b0380821115612ca657600080fd5b612cb289838a01612acf565b94506060880135915080821115612cc857600080fd5b612cd489838a01612acf565b93506080880135915080821115612cea57600080fd5b50612cf788828901612b9d565b9150509295509295909350565b60008060408385031215612d1757600080fd5b823591506020830135612d29816128cb565b809150509250929050565b8015158114610cbd57600080fd5b600080600060608486031215612d5757600080fd5b8335612d62816128cb565b92506020840135612d72816128cb565b91506040840135612d8281612d34565b809150509250925092565b60008060208385031215612da057600080fd5b82356001600160401b0380821115612db757600080fd5b818501915085601f830112612dcb57600080fd5b813581811115612dda57600080fd5b866020828501011115612dec57600080fd5b60209290920196919550909350505050565b60008060408385031215612e1157600080fd5b82356001600160401b0380821115612e2857600080fd5b818501915085601f830112612e3c57600080fd5b81356020612e4982612aac565b604051612e568282612a80565b83815260059390931b8501820192828101915089841115612e7657600080fd5b948201945b83861015612e9d578535612e8e816128cb565b82529482019490820190612e7b565b96505086013592505080821115612eb357600080fd5b50612ec085828601612acf565b9150509250929050565b600081518084526020808501945080840160005b83811015612efa57815187529582019590820190600101612ede565b509495945050505050565b602081526000610a3c6020830184612eca565b600080600060608486031215612f2d57600080fd5b8335612f38816128cb565b925060208401356001600160401b0380821115612f5457600080fd5b612f6087838801612acf565b93506040860135915080821115612f7657600080fd5b50612f8386828701612acf565b9150509250925092565b60008060008060808587031215612fa357600080fd5b8435612fae816128cb565b9350602085013592506040850135915060608501356001600160401b03811115612fd757600080fd5b612c4b87828801612b9d565b60008060408385031215612ff657600080fd5b50508035926020909101359150565b6000806040838503121561301857600080fd5b8235613023816128cb565b91506020830135612d2981612d34565b6000806040838503121561304657600080fd5b8235613051816128cb565b91506020830135612d29816128cb565b600080600080600060a0868803121561307957600080fd5b8535613084816128cb565b94506020860135613094816128cb565b9350604086013592506060860135915060808601356001600160401b038111156130bd57600080fd5b612cf788828901612b9d565b6000806000606084860312156130de57600080fd5b83356130e9816128cb565b95602085013595506040909401359392505050565b60006020828403121561311057600080fd5b81356001600160401b0381111561312657600080fd5b8201601f8101841361313757600080fd5b61314684823560208401612b40565b949350505050565b600181811c9082168061316257607f821691505b60208210810361318257634e487b7160e01b600052602260045260246000fd5b50919050565b60006040828403121561319a57600080fd5b604051604081018181106001600160401b03821117156131bc576131bc612a6a565b60405282516131ca816128cb565b815260208301516131da81612d34565b60208201529392505050565b634e487b7160e01b600052603260045260246000fd5b634e487b7160e01b600052601160045260246000fd5b60008219821115613225576132256131fc565b500190565b60006001820161323c5761323c6131fc565b5060010190565b60208082526029908201527f455243313135353a2063616c6c6572206973206e6f74206f776e6572206e6f7260408201526808185c1c1c9bdd995960ba1b606082015260800190565b60208082526038908201527f455243313135355072657365744d696e7465725061757365723a206d7573742060408201527f68617665206d696e74657220726f6c6520746f206d696e740000000000000000606082015260800190565b6020808252602e908201527f496e697469616c697a61626c653a20636f6e747261637420697320616c72656160408201526d191e481a5b9a5d1a585b1a5e995960921b606082015260800190565b7f416363657373436f6e74726f6c3a206163636f756e742000000000000000000081526000835161336f8160178501602088016129ff565b7001034b99036b4b9b9b4b733903937b6329607d1b60179184019182015283516133a08160288401602088016129ff565b01602801949350505050565b803560ff811681146128eb57600080fd5b6000602082840312156133cf57600080fd5b610a3c826133ac565b803561ffff811681146128eb57600080fd5b80356001600160f01b0319811681146128eb57600080fd5b803563ffffffff811681146128eb57600080fd5b600061010080838503121561342a57600080fd5b604051908101906001600160401b038211818310171561344c5761344c612a6a565b81604052613459846133ac565b8152613467602085016133ac565b6020820152613478604085016133ac565b6040820152613489606085016133d8565b606082015261349a608085016133ea565b60808201526134ab60a085016133ea565b60a08201526134bc60c085016128e0565b60c08201526134cd60e08501613402565b60e0820152949350505050565b60008160001904831182151516156134f4576134f46131fc565b500290565b60208082526023908201527f455243313135353a206275726e2066726f6d20746865207a65726f206164647260408201526265737360e81b606082015260800190565b60208082526028908201527f455243313135353a2069647320616e6420616d6f756e7473206c656e677468206040820152670dad2e6dac2e8c6d60c31b606082015260800190565b60208082526024908201527f455243313135353a206275726e20616d6f756e7420657863656564732062616c604082015263616e636560e01b606082015260800190565b6040815260006135db6040830185612eca565b82810360208401526135ed8185612eca565b95945050505050565b60208082526021908201527f455243313135353a206d696e7420746f20746865207a65726f206164647265736040820152607360f81b606082015260800190565b6020808252602b908201527f496e697469616c697a61626c653a20636f6e7472616374206973206e6f74206960408201526a6e697469616c697a696e6760a81b606082015260800190565b60208082526025908201527f455243313135353a207472616e7366657220746f20746865207a65726f206164604082015264647265737360d81b606082015260800190565b6020808252602a908201527f455243313135353a20696e73756666696369656e742062616c616e636520666f60408201526939103a3930b739b332b960b11b606082015260800190565b600081613720576137206131fc565b506000190190565b6001600160a01b03868116825285166020820152604081018490526060810183905260a06080820181905260009061376290830184612a2b565b979650505050505050565b60006020828403121561377f57600080fd5b8151610a3c8161291c565b600060033d11156137a35760046000803e5060005160e01c5b90565b600060443d10156137b45790565b6040516003193d81016004833e81513d6001600160401b0381602484011181841117156137e357505050505090565b82850191508151818111156137fb5750505050505090565b843d87010160208285010111156138155750505050505090565b61382460208286010187612a80565b509095945050505050565b60208082526028908201527f455243313135353a204552433131353552656365697665722072656a656374656040820152676420746f6b656e7360c01b606082015260800190565b600181815b808511156138b2578160001904821115613898576138986131fc565b808516156138a557918102915b93841c939080029061387c565b509250929050565b6000826138c9575060016105b5565b816138d6575060006105b5565b81600181146138ec57600281146138f657613912565b60019150506105b5565b60ff841115613907576139076131fc565b50506001821b6105b5565b5060208310610133831016604e8410600b8410161715613935575081810a6105b5565b61393f8383613877565b8060001904821115613953576139536131fc565b029392505050565b6000610a3c83836138ba565b600082821015613979576139796131fc565b500390565b6001600160a01b0386811682528516602082015260a0604082018190526000906139aa90830186612eca565b82810360608401526139bc8186612eca565b905082810360808401526139d08185612a2b565b98975050505050505050565b634e487b7160e01b600052603160045260246000fdfe65d7a28e3265b37a6474929f336521b332c1681b933f6cb9f3376673440d862a9f2df0fed2c77648de5860a4cc508cd0818c85b8b8a1ab4ceeef8d981c8956a668747470733a2f2f6e6f72692e636f6d2f6170692f72656d6f76616c2f7b69647d2e6a736f6ea26469706673582212206e520a9b64ca7581b5356108154510d7b9b9408038fb0ebef2402d1656763f1864736f6c634300080d0033",
  "linkReferences": {},
  "deployedLinkReferences": {}
}