{
  "_format": "hh-sol-artifact-1",
  "contractName": "Removal",
  "sourceName": "contracts/Removal.sol",
  "abi": [
    {
      "inputs": [],
      "stateMutability": "nonpayable",
      "type": "constructor"
    },
    {
      "inputs": [
        {
          "internalType": "string",
          "name": "array1Name",
          "type": "string"
        },
        {
          "internalType": "string",
          "name": "array2Name",
          "type": "string"
        }
      ],
      "name": "ArrayLengthMismatch",
      "type": "error"
    },
    {
      "inputs": [
        {
          "internalType": "uint256",
          "name": "projectId",
          "type": "uint256"
        }
      ],
      "name": "InvalidProjectId",
      "type": "error"
    },
    {
      "inputs": [
        {
          "internalType": "uint256",
          "name": "tokenId",
          "type": "uint256"
        }
      ],
      "name": "TokenIdDoesNotExist",
      "type": "error"
    },
    {
      "inputs": [
        {
          "internalType": "uint256",
          "name": "tokenId",
          "type": "uint256"
        }
      ],
      "name": "TokenIdExists",
      "type": "error"
    },
    {
      "anonymous": false,
      "inputs": [
        {
          "indexed": true,
          "internalType": "address",
          "name": "account",
          "type": "address"
        },
        {
          "indexed": true,
          "internalType": "address",
          "name": "operator",
          "type": "address"
        },
        {
          "indexed": false,
          "internalType": "bool",
          "name": "approved",
          "type": "bool"
        }
      ],
      "name": "ApprovalForAll",
      "type": "event"
    },
    {
      "anonymous": false,
      "inputs": [
        {
          "indexed": false,
          "internalType": "uint8",
          "name": "version",
          "type": "uint8"
        }
      ],
      "name": "Initialized",
      "type": "event"
    },
    {
      "anonymous": false,
      "inputs": [
        {
          "indexed": false,
          "internalType": "address",
          "name": "account",
          "type": "address"
        }
      ],
      "name": "Paused",
      "type": "event"
    },
    {
      "anonymous": false,
      "inputs": [
        {
          "indexed": true,
          "internalType": "bytes32",
          "name": "role",
          "type": "bytes32"
        },
        {
          "indexed": true,
          "internalType": "bytes32",
          "name": "previousAdminRole",
          "type": "bytes32"
        },
        {
          "indexed": true,
          "internalType": "bytes32",
          "name": "newAdminRole",
          "type": "bytes32"
        }
      ],
      "name": "RoleAdminChanged",
      "type": "event"
    },
    {
      "anonymous": false,
      "inputs": [
        {
          "indexed": true,
          "internalType": "bytes32",
          "name": "role",
          "type": "bytes32"
        },
        {
          "indexed": true,
          "internalType": "address",
          "name": "account",
          "type": "address"
        },
        {
          "indexed": true,
          "internalType": "address",
          "name": "sender",
          "type": "address"
        }
      ],
      "name": "RoleGranted",
      "type": "event"
    },
    {
      "anonymous": false,
      "inputs": [
        {
          "indexed": true,
          "internalType": "bytes32",
          "name": "role",
          "type": "bytes32"
        },
        {
          "indexed": true,
          "internalType": "address",
          "name": "account",
          "type": "address"
        },
        {
          "indexed": true,
          "internalType": "address",
          "name": "sender",
          "type": "address"
        }
      ],
      "name": "RoleRevoked",
      "type": "event"
    },
    {
      "anonymous": false,
      "inputs": [
        {
          "indexed": true,
          "internalType": "address",
          "name": "operator",
          "type": "address"
        },
        {
          "indexed": true,
          "internalType": "address",
          "name": "from",
          "type": "address"
        },
        {
          "indexed": true,
          "internalType": "address",
          "name": "to",
          "type": "address"
        },
        {
          "indexed": false,
          "internalType": "uint256[]",
          "name": "ids",
          "type": "uint256[]"
        },
        {
          "indexed": false,
          "internalType": "uint256[]",
          "name": "values",
          "type": "uint256[]"
        }
      ],
      "name": "TransferBatch",
      "type": "event"
    },
    {
      "anonymous": false,
      "inputs": [
        {
          "indexed": true,
          "internalType": "address",
          "name": "operator",
          "type": "address"
        },
        {
          "indexed": true,
          "internalType": "address",
          "name": "from",
          "type": "address"
        },
        {
          "indexed": true,
          "internalType": "address",
          "name": "to",
          "type": "address"
        },
        {
          "indexed": false,
          "internalType": "uint256",
          "name": "id",
          "type": "uint256"
        },
        {
          "indexed": false,
          "internalType": "uint256",
          "name": "value",
          "type": "uint256"
        }
      ],
      "name": "TransferSingle",
      "type": "event"
    },
    {
      "anonymous": false,
      "inputs": [
        {
          "indexed": false,
          "internalType": "string",
          "name": "value",
          "type": "string"
        },
        {
          "indexed": true,
          "internalType": "uint256",
          "name": "id",
          "type": "uint256"
        }
      ],
      "name": "URI",
      "type": "event"
    },
    {
      "anonymous": false,
      "inputs": [
        {
          "indexed": false,
          "internalType": "address",
          "name": "account",
          "type": "address"
        }
      ],
      "name": "Unpaused",
      "type": "event"
    },
    {
      "inputs": [],
      "name": "DEFAULT_ADMIN_ROLE",
      "outputs": [
        {
          "internalType": "bytes32",
          "name": "",
          "type": "bytes32"
        }
      ],
      "stateMutability": "view",
      "type": "function"
    },
    {
      "inputs": [],
      "name": "MINTER_ROLE",
      "outputs": [
        {
          "internalType": "bytes32",
          "name": "",
          "type": "bytes32"
        }
      ],
      "stateMutability": "view",
      "type": "function"
    },
    {
      "inputs": [],
      "name": "PAUSER_ROLE",
      "outputs": [
        {
          "internalType": "bytes32",
          "name": "",
          "type": "bytes32"
        }
      ],
      "stateMutability": "view",
      "type": "function"
    },
    {
      "inputs": [
        {
          "internalType": "address",
          "name": "account",
          "type": "address"
        },
        {
          "internalType": "uint256",
          "name": "id",
          "type": "uint256"
        }
      ],
      "name": "balanceOf",
      "outputs": [
        {
          "internalType": "uint256",
          "name": "",
          "type": "uint256"
        }
      ],
      "stateMutability": "view",
      "type": "function"
    },
    {
      "inputs": [
        {
          "internalType": "address[]",
          "name": "accounts",
          "type": "address[]"
        },
        {
          "internalType": "uint256[]",
          "name": "ids",
          "type": "uint256[]"
        }
      ],
      "name": "balanceOfBatch",
      "outputs": [
        {
          "internalType": "uint256[]",
          "name": "",
          "type": "uint256[]"
        }
      ],
      "stateMutability": "view",
      "type": "function"
    },
    {
      "inputs": [
        {
          "internalType": "address",
          "name": "account",
          "type": "address"
        },
        {
          "internalType": "uint256[]",
          "name": "ids",
          "type": "uint256[]"
        }
      ],
      "name": "balanceOfIds",
      "outputs": [
        {
          "internalType": "uint256[]",
          "name": "",
          "type": "uint256[]"
        }
      ],
      "stateMutability": "view",
      "type": "function"
    },
    {
      "inputs": [
        {
          "internalType": "uint256[]",
          "name": "removalIds",
          "type": "uint256[]"
        }
      ],
      "name": "batchGetHoldbackPercentages",
      "outputs": [
        {
          "internalType": "uint256[]",
          "name": "",
          "type": "uint256[]"
        }
      ],
      "stateMutability": "view",
      "type": "function"
    },
    {
      "inputs": [
        {
          "internalType": "uint256[]",
          "name": "removalIds",
          "type": "uint256[]"
        },
        {
          "internalType": "uint256",
          "name": "holdbackPercentage",
          "type": "uint256"
        }
      ],
      "name": "batchSetHoldbackPercentage",
      "outputs": [],
      "stateMutability": "nonpayable",
      "type": "function"
    },
    {
      "inputs": [
        {
          "internalType": "address",
          "name": "account",
          "type": "address"
        },
        {
          "internalType": "uint256",
          "name": "id",
          "type": "uint256"
        },
        {
          "internalType": "uint256",
          "name": "value",
          "type": "uint256"
        }
      ],
      "name": "burn",
      "outputs": [],
      "stateMutability": "nonpayable",
      "type": "function"
    },
    {
      "inputs": [
        {
          "internalType": "address",
          "name": "account",
          "type": "address"
        },
        {
          "internalType": "uint256[]",
          "name": "ids",
          "type": "uint256[]"
        },
        {
          "internalType": "uint256[]",
          "name": "values",
          "type": "uint256[]"
        }
      ],
      "name": "burnBatch",
      "outputs": [],
      "stateMutability": "nonpayable",
      "type": "function"
    },
    {
      "inputs": [
        {
          "internalType": "bytes",
          "name": "removalData",
          "type": "bytes"
        }
      ],
      "name": "createRemovalId",
      "outputs": [
        {
          "internalType": "uint256",
          "name": "",
          "type": "uint256"
        }
      ],
      "stateMutability": "pure",
      "type": "function"
    },
    {
      "inputs": [
        {
          "internalType": "uint256",
          "name": "id",
          "type": "uint256"
        }
      ],
      "name": "exists",
      "outputs": [
        {
          "internalType": "bool",
          "name": "",
          "type": "bool"
        }
      ],
      "stateMutability": "view",
      "type": "function"
    },
    {
      "inputs": [
        {
          "internalType": "uint256",
          "name": "removalId",
          "type": "uint256"
        }
      ],
      "name": "getProjectIdForRemoval",
      "outputs": [
        {
          "internalType": "uint256",
          "name": "",
          "type": "uint256"
        }
      ],
      "stateMutability": "view",
      "type": "function"
    },
    {
      "inputs": [
        {
          "internalType": "bytes32",
          "name": "role",
          "type": "bytes32"
        }
      ],
      "name": "getRoleAdmin",
      "outputs": [
        {
          "internalType": "bytes32",
          "name": "",
          "type": "bytes32"
        }
      ],
      "stateMutability": "view",
      "type": "function"
    },
    {
      "inputs": [
        {
          "internalType": "bytes32",
          "name": "role",
          "type": "bytes32"
        },
        {
          "internalType": "uint256",
          "name": "index",
          "type": "uint256"
        }
      ],
      "name": "getRoleMember",
      "outputs": [
        {
          "internalType": "address",
          "name": "",
          "type": "address"
        }
      ],
      "stateMutability": "view",
      "type": "function"
    },
    {
      "inputs": [
        {
          "internalType": "bytes32",
          "name": "role",
          "type": "bytes32"
        }
      ],
      "name": "getRoleMemberCount",
      "outputs": [
        {
          "internalType": "uint256",
          "name": "",
          "type": "uint256"
        }
      ],
      "stateMutability": "view",
      "type": "function"
    },
    {
      "inputs": [
        {
          "internalType": "uint256",
          "name": "projectId",
          "type": "uint256"
        }
      ],
      "name": "getScheduleDataForProjectId",
      "outputs": [
        {
          "components": [
            {
              "internalType": "uint256",
              "name": "startTime",
              "type": "uint256"
            },
            {
              "internalType": "address",
              "name": "supplierAddress",
              "type": "address"
            },
            {
              "internalType": "uint256",
              "name": "methodology",
              "type": "uint256"
            },
            {
              "internalType": "uint256",
              "name": "methodologyVersion",
              "type": "uint256"
            }
          ],
          "internalType": "struct Removal.ScheduleData",
          "name": "",
          "type": "tuple"
        }
      ],
      "stateMutability": "view",
      "type": "function"
    },
    {
      "inputs": [
        {
          "internalType": "uint256",
          "name": "removalId",
          "type": "uint256"
        }
      ],
      "name": "getScheduleDataForRemovalId",
      "outputs": [
        {
          "components": [
            {
              "internalType": "uint256",
              "name": "startTime",
              "type": "uint256"
            },
            {
              "internalType": "address",
              "name": "supplierAddress",
              "type": "address"
            },
            {
              "internalType": "uint256",
              "name": "methodology",
              "type": "uint256"
            },
            {
              "internalType": "uint256",
              "name": "methodologyVersion",
              "type": "uint256"
            }
          ],
          "internalType": "struct Removal.ScheduleData",
          "name": "",
          "type": "tuple"
        }
      ],
      "stateMutability": "view",
      "type": "function"
    },
    {
      "inputs": [
        {
          "internalType": "bytes32",
          "name": "role",
          "type": "bytes32"
        },
        {
          "internalType": "address",
          "name": "account",
          "type": "address"
        }
      ],
      "name": "grantRole",
      "outputs": [],
      "stateMutability": "nonpayable",
      "type": "function"
    },
    {
      "inputs": [
        {
          "internalType": "bytes32",
          "name": "role",
          "type": "bytes32"
        },
        {
          "internalType": "address",
          "name": "account",
          "type": "address"
        }
      ],
      "name": "hasRole",
      "outputs": [
        {
          "internalType": "bool",
          "name": "",
          "type": "bool"
        }
      ],
      "stateMutability": "view",
      "type": "function"
    },
    {
      "inputs": [
        {
          "internalType": "uint256",
          "name": "",
          "type": "uint256"
        }
      ],
      "name": "indexToTokenId",
      "outputs": [
        {
          "internalType": "uint256",
          "name": "",
          "type": "uint256"
        }
      ],
      "stateMutability": "view",
      "type": "function"
    },
    {
      "inputs": [],
      "name": "initialize",
      "outputs": [],
      "stateMutability": "nonpayable",
      "type": "function"
    },
    {
      "inputs": [
        {
          "internalType": "string",
          "name": "uri",
          "type": "string"
        }
      ],
      "name": "initialize",
      "outputs": [],
      "stateMutability": "nonpayable",
      "type": "function"
    },
    {
      "inputs": [
        {
          "internalType": "address",
          "name": "account",
          "type": "address"
        },
        {
          "internalType": "address",
          "name": "operator",
          "type": "address"
        }
      ],
      "name": "isApprovedForAll",
      "outputs": [
        {
          "internalType": "bool",
          "name": "",
          "type": "bool"
        }
      ],
      "stateMutability": "view",
      "type": "function"
    },
    {
      "inputs": [
        {
          "internalType": "address",
          "name": "",
          "type": "address"
        },
        {
          "internalType": "uint256",
          "name": "",
          "type": "uint256"
        },
        {
          "internalType": "uint256",
          "name": "",
          "type": "uint256"
        },
        {
          "internalType": "bytes",
          "name": "",
          "type": "bytes"
        }
      ],
      "name": "mint",
      "outputs": [],
      "stateMutability": "pure",
      "type": "function"
    },
    {
      "inputs": [
        {
          "internalType": "address",
          "name": "to",
          "type": "address"
        },
        {
          "internalType": "uint256[]",
          "name": "amounts",
          "type": "uint256[]"
        },
        {
          "internalType": "uint256[]",
          "name": "ids",
          "type": "uint256[]"
        },
        {
          "internalType": "bytes",
          "name": "data",
          "type": "bytes"
        }
      ],
      "name": "mintBatch",
      "outputs": [],
      "stateMutability": "nonpayable",
      "type": "function"
    },
    {
      "inputs": [],
      "name": "name",
      "outputs": [
        {
          "internalType": "string",
          "name": "",
          "type": "string"
        }
      ],
      "stateMutability": "view",
      "type": "function"
    },
    {
      "inputs": [],
      "name": "pause",
      "outputs": [],
      "stateMutability": "nonpayable",
      "type": "function"
    },
    {
      "inputs": [],
      "name": "paused",
      "outputs": [
        {
          "internalType": "bool",
          "name": "",
          "type": "bool"
        }
      ],
      "stateMutability": "view",
      "type": "function"
    },
    {
      "inputs": [
        {
          "internalType": "address",
          "name": "restrictedNORIAddress",
          "type": "address"
        }
      ],
      "name": "registerRestrictedNORIAddress",
      "outputs": [],
      "stateMutability": "nonpayable",
      "type": "function"
    },
    {
      "inputs": [
        {
          "internalType": "bytes32",
          "name": "role",
          "type": "bytes32"
        },
        {
          "internalType": "address",
          "name": "account",
          "type": "address"
        }
      ],
      "name": "renounceRole",
      "outputs": [],
      "stateMutability": "nonpayable",
      "type": "function"
    },
    {
      "inputs": [
        {
          "internalType": "bytes32",
          "name": "role",
          "type": "bytes32"
        },
        {
          "internalType": "address",
          "name": "account",
          "type": "address"
        }
      ],
      "name": "revokeRole",
      "outputs": [],
      "stateMutability": "nonpayable",
      "type": "function"
    },
    {
      "inputs": [
        {
          "internalType": "address",
          "name": "from",
          "type": "address"
        },
        {
          "internalType": "address",
          "name": "to",
          "type": "address"
        },
        {
          "internalType": "uint256[]",
          "name": "ids",
          "type": "uint256[]"
        },
        {
          "internalType": "uint256[]",
          "name": "amounts",
          "type": "uint256[]"
        },
        {
          "internalType": "bytes",
          "name": "",
          "type": "bytes"
        }
      ],
      "name": "safeBatchTransferFrom",
      "outputs": [],
      "stateMutability": "nonpayable",
      "type": "function"
    },
    {
      "inputs": [
        {
          "internalType": "address",
          "name": "from",
          "type": "address"
        },
        {
          "internalType": "address",
          "name": "to",
          "type": "address"
        },
        {
          "internalType": "uint256",
          "name": "id",
          "type": "uint256"
        },
        {
          "internalType": "uint256",
          "name": "amount",
          "type": "uint256"
        },
        {
          "internalType": "bytes",
          "name": "data",
          "type": "bytes"
        }
      ],
      "name": "safeTransferFrom",
      "outputs": [],
      "stateMutability": "nonpayable",
      "type": "function"
    },
    {
      "inputs": [
        {
          "internalType": "address",
          "name": "owner",
          "type": "address"
        },
        {
          "internalType": "address",
          "name": "operator",
          "type": "address"
        },
        {
          "internalType": "bool",
          "name": "approved",
          "type": "bool"
        }
      ],
      "name": "setApprovalForAll",
      "outputs": [],
      "stateMutability": "nonpayable",
      "type": "function"
    },
    {
      "inputs": [
        {
          "internalType": "address",
          "name": "operator",
          "type": "address"
        },
        {
          "internalType": "bool",
          "name": "approved",
          "type": "bool"
        }
      ],
      "name": "setApprovalForAll",
      "outputs": [],
      "stateMutability": "nonpayable",
      "type": "function"
    },
    {
      "inputs": [
        {
          "internalType": "bytes4",
          "name": "interfaceId",
          "type": "bytes4"
        }
      ],
      "name": "supportsInterface",
      "outputs": [
        {
          "internalType": "bool",
          "name": "",
          "type": "bool"
        }
      ],
      "stateMutability": "view",
      "type": "function"
    },
    {
      "inputs": [],
      "name": "tokenIdCounter",
      "outputs": [
        {
          "internalType": "uint256",
          "name": "",
          "type": "uint256"
        }
      ],
      "stateMutability": "view",
      "type": "function"
    },
    {
      "inputs": [
        {
          "internalType": "uint256",
          "name": "id",
          "type": "uint256"
        }
      ],
      "name": "totalSupply",
      "outputs": [
        {
          "internalType": "uint256",
          "name": "",
          "type": "uint256"
        }
      ],
      "stateMutability": "view",
      "type": "function"
    },
    {
      "inputs": [
        {
          "internalType": "uint256",
          "name": "removalId",
          "type": "uint256"
        }
      ],
      "name": "unpackRemovalIdV0",
      "outputs": [
        {
          "components": [
            {
              "internalType": "uint8",
              "name": "idVersion",
              "type": "uint8"
            },
            {
              "internalType": "uint8",
              "name": "methodology",
              "type": "uint8"
            },
            {
              "internalType": "uint8",
              "name": "methodologyVersion",
              "type": "uint8"
            },
            {
              "internalType": "uint16",
              "name": "vintage",
              "type": "uint16"
            },
            {
              "internalType": "bytes2",
              "name": "country",
              "type": "bytes2"
            },
            {
              "internalType": "bytes2",
              "name": "subdivision",
              "type": "bytes2"
            },
            {
              "internalType": "address",
              "name": "supplierAddress",
              "type": "address"
            },
            {
              "internalType": "uint32",
              "name": "subIdentifier",
              "type": "uint32"
            }
          ],
          "internalType": "struct UnpackedRemovalIdV0",
          "name": "",
          "type": "tuple"
        }
      ],
      "stateMutability": "pure",
      "type": "function"
    },
    {
      "inputs": [],
      "name": "unpause",
      "outputs": [],
      "stateMutability": "nonpayable",
      "type": "function"
    },
    {
      "inputs": [
        {
          "internalType": "uint256",
          "name": "",
          "type": "uint256"
        }
      ],
      "name": "uri",
      "outputs": [
        {
          "internalType": "string",
          "name": "",
          "type": "string"
        }
      ],
      "stateMutability": "view",
      "type": "function"
    }
  ],
  "bytecode": "0x60806040523480156200001157600080fd5b50620000467fa21759cd115c1f5760ee1042df9b1da0a96f1421f7ac322dcc058e84a7a4a20260001b620000c460201b60201c565b6200007a7fb65dda7f541aa7c0266adfcb89e6967a92e9e1cdfec77da0b4d9f12e044b3e7960001b620000c460201b60201c565b620000ae7f10c1198db2a7b880d950b2f719070e79614d1ccd1839ce89551772f79d44715060001b620000c460201b60201c565b620000be620000c760201b60201c565b62000206565b50565b600060019054906101000a900460ff16156200011a576040517f08c379a000000000000000000000000000000000000000000000000000000000815260040162000111906200018e565b60405180910390fd5b60ff801660008054906101000a900460ff1660ff1610156200018c5760ff6000806101000a81548160ff021916908360ff1602179055507f7f26b83ff96e1f2b6a682f133852f6798a09c465da95921460cefb384740249860ff604051620001839190620001f2565b60405180910390a15b565b60208152602760208201527f496e697469616c697a61626c653a20636f6e747261637420697320696e69746960408201527f616c697a696e670000000000000000000000000000000000000000000000000060608201526000608082019050919050565b600060208201905060ff8316825292915050565b6189ee80620002166000396000f3fe608060405234801561001057600080fd5b506004361061025d5760003560e01c80638129fc1c11610146578063bd85b039116100c3578063e0fc293811610087578063e0fc29381461077a578063e63ab1e9146107aa578063e985e9c5146107c8578063f242432a146107f8578063f5298aca14610814578063f62d1888146108305761025d565b8063bd85b039146106b0578063ca15c873146106e0578063d539139314610710578063d547741f1461072e578063d85a53e91461074a5761025d565b806399d5121b1161010a57806399d5121b146105fa578063a217fddf1461062a578063a22cb46514610648578063a53ba52714610664578063b6477cc0146106805761025d565b80638129fc1c146105685780638456cb59146105725780639010d07c1461057c57806391d14854146105ac57806398bdf6f5146105dc5761025d565b806336568abe116101df5780634f558e79116101a35780634f558e79146104965780635c975abb146104c65780635f830d77146104e45780636b20c45414610500578063731133e91461051c5780637aef1164146105385761025d565b806336568abe146103f4578063367605ca146104105780633f4ba83a1461042c57806348ec4c3b146104365780634e1273f4146104665761025d565b80631990ad05116102265780631990ad05146103405780631f7fdffa14610370578063248a9ca31461038c5780632eb2c2d6146103bc5780632f2ff15d146103d85761025d565b8062fdd58e14610262578063018e1c831461029257806301ffc9a7146102c257806306fdde03146102f25780630e89341c14610310575b600080fd5b61027c60048036038101906102779190616c22565b61084c565b6040516102899190616c52565b60405180910390f35b6102ac60048036038101906102a79190616d4c565b610915565b6040516102b99190616de0565b60405180910390f35b6102dc60048036038101906102d79190616e13565b610b5c565b6040516102e99190616e3a565b60405180910390f35b6102fa610bf2565b6040516103079190616eae565b60405180910390f35b61032a60048036038101906103259190616ec9565b610c81565b6040516103379190616eae565b60405180910390f35b61035a60048036038101906103559190616ec9565b610d15565b6040516103679190616ef4565b60405180910390f35b61038a60048036038101906103859190616fb3565b610e52565b005b6103a660048036038101906103a19190617050565b611c44565b6040516103b3919061706c565b60405180910390f35b6103d660048036038101906103d1919061707d565b611c64565b005b6103f260048036038101906103ed919061712f565b611dab565b005b61040e6004803603810190610409919061712f565b611dcc565b005b61042a60048036038101906104259190617170565b611e4f565b005b610434611ef9565b005b610450600480360381019061044b91906171bf565b611f73565b60405161045d9190616c52565b60405180910390f35b610480600480360381019061047b9190617232565b61200b565b60405161048d9190616de0565b60405180910390f35b6104b060048036038101906104ab9190616ec9565b612124565b6040516104bd9190616e3a565b60405180910390f35b6104ce612138565b6040516104db9190616e3a565b60405180910390f35b6104fe60048036038101906104f9919061730a565b612150565b005b61051a60048036038101906105159190617331565b612227565b005b610536600480360381019061053191906173a9565b6122c4565b005b610552600480360381019061054d9190616ec9565b612383565b60405161055f9190616c52565b60405180910390f35b61057061239c565b005b61057a6126d6565b005b6105966004803603810190610591919061740e565b612750565b6040516105a39190617433565b60405180910390f35b6105c660048036038101906105c1919061712f565b61277f565b6040516105d39190616e3a565b60405180910390f35b6105e46127ea565b6040516105f19190616c52565b60405180910390f35b610614600480360381019061060f9190616ec9565b6127f1565b6040516106219190616ef4565b60405180910390f35b610632612917565b60405161063f919061706c565b60405180910390f35b610662600480360381019061065d919061744c565b61291e565b005b61067e60048036038101906106799190617487565b612934565b005b61069a60048036038101906106959190617506565b612c09565b6040516106a79190616de0565b60405180910390f35b6106ca60048036038101906106c59190616ec9565b613016565b6040516106d79190616c52565b60405180910390f35b6106fa60048036038101906106f59190617050565b613034565b6040516107079190616c52565b60405180910390f35b610718613058565b604051610725919061706c565b60405180910390f35b6107486004803603810190610743919061712f565b61307c565b005b610764600480360381019061075f9190616ec9565b61309d565b604051610771919061755f565b60405180910390f35b610794600480360381019061078f9190616ec9565b613139565b6040516107a19190616c52565b60405180910390f35b6107b26131de565b6040516107bf919061706c565b60405180910390f35b6107e260048036038101906107dd91906175e7565b613202565b6040516107ef9190616e3a565b60405180910390f35b610812600480360381019061080d9190617622565b613296565b005b61082e6004803603810190610829919061769c565b613337565b005b61084a600480360381019061084591906176d5565b6133d4565b005b60008073ffffffffffffffffffffffffffffffffffffffff168373ffffffffffffffffffffffffffffffffffffffff16036108bc576040517f08c379a00000000000000000000000000000000000000000000000000000000081526004016108b39061772a565b60405180910390fd5b60c9600083815260200190815260200160002060008473ffffffffffffffffffffffffffffffffffffffff1673ffffffffffffffffffffffffffffffffffffffff16815260200190815260200160002054905092915050565b60606109437f0ad9592e7792cdd51312e9f39fad8344f230277326b5347d3310e76eab296fea60001b613514565b61096f7f271fd052f3b76cf5a1bb839ec993011a17699aa49f27f23746aadd04954079f660001b613514565b61099b7fb8551eebcf7f482ed8c3a48079ec41deb453e52be5808f7c9bfe2b513235605d60001b613514565b6000825167ffffffffffffffff8111156109b8576109b7616c63565b5b6040519080825280602002602001820160405280156109e65781602001602082028036833780820191505090505b509050610a157f33f800e2ea1a47f89e4751d998ca2d7b5bc04036754904025da198a55ad43ea360001b613514565b610a417fafaee746ee42d53fe2c927879ba149eeb8481da547614681a5640951f9b7acac60001b613514565b60005b8351811015610af957610a797f013c8a1e1bbf35e871ca512ade8c4abb866af7d22d6099a0564f0e63206daed960001b613514565b610aa57f2e7aba244b8df0459dcfebd7b2b8b0ede36415b4e82ac637688940e378a51af060001b613514565b610ac985858381518110610abc57610abb61778e565b5b602002602001015161084c565b828281518110610adc57610adb61778e565b5b60200260200101818152505080610af2906177ba565b9050610a44565b50610b267f06a9a8cdd0b061ac7b48d4368cc50da1afc41ab4a21e0caccb47620d4da8de3a60001b613514565b610b527fe9140ea5316e215abcea593febe78039abbbc8e734d021b20ade8f2cc6f4233b60001b613514565b8091505092915050565b6000610b8a7f220801b11a4a99820696160427418880abf57f10db7971273f29004566cf8abd60001b613514565b610bb67f2efa01fe3f00c8c44511d886b1905baca1a6aa14cb7b008264b713024dbf4da360001b613514565b610be27f23e163e32882ed11c93c21a36fbd02f2df6c37f571674aa19019e923e2f38c8f60001b613514565b610beb82613517565b9050919050565b6101f78054610c00906177d8565b80601f0160208091040260200160405190810160405280929190818152602001828054610c2c906177d8565b8015610c795780601f10610c4e57610100808354040283529160200191610c79565b820191906000526020600020905b815481529060010190602001808311610c5c57829003601f168201915b505050505081565b606060cb8054610c90906177d8565b80601f0160208091040260200160405190810160405280929190818152602001828054610cbc906177d8565b8015610d095780601f10610cde57610100808354040283529160200191610d09565b820191906000526020600020905b815481529060010190602001808311610cec57829003601f168201915b50505050509050919050565b610d1d616b09565b610d497f84f60edfc1e4c029b585d782802eec5709234be3c724fe98843214aca4fbe6bb60001b613514565b610d757f1c2fc6ea9025af14eea5f919852c75197433ace54d43999f467dc64899819b7b60001b613514565b610da17fcb2dee079c3c0d76c0ac88901846dfb164624001bdd4b836988991f1566d15f760001b613514565b6101fb60006101fa6000858152602001908152602001600020600001548152602001908152602001600020604051806080016040529081600082015481526020016001820160009054906101000a900473ffffffffffffffffffffffffffffffffffffffff1673ffffffffffffffffffffffffffffffffffffffff1673ffffffffffffffffffffffffffffffffffffffff168152602001600282015481526020016003820154815250509050919050565b610e7e7f19b5f6f8046f5508eb5d11ff1e03a6d010ba179fc276301ef7a46ab6f1b9595760001b613514565b610eaa7f194ab8e42cd381dd7652dd37867e604416bbf13c6787ffda9980d1cf57632e6960001b613514565b610ed67f332a4d49d1eca207f7bc5cf4bce38721f77da11dd9253bda4eabe1803ad92ded60001b613514565b600082519050610f087f3e4c97a12ca78a03ac2f2ec9ff8ef314eafaa7e34b1cfbae01eef8921e2f0ff160001b613514565b610f347fb4a10a24b5c0943d8e58c1b05c616a331f95cdecc3edbf5e6f7834260f4bd9ef60001b613514565b80845114610fcf57610f687f0e8bccec220219347e49fe66df962f0eb9c5b2fa0a927bd89f9688ad6161ab5960001b613514565b610f947f9d2fe6e69d26c1583d71d6ea6cb73f0e1405015f88957dcd28bac500ee694b3660001b613514565b6040517f616c4113000000000000000000000000000000000000000000000000000000008152600401610fc690617816565b60405180910390fd5b610ffb7f0f49b3e981e16f06fb714dd4cf070aa910950c33df2e6c807c2f7ae8eb341f6c60001b613514565b6110277fa1c4c890600d622cc2acb9f10f44028544c9b1127362fa56335d7b221abeb2c860001b613514565b6110537f0271391d2a7e0ace7c116ab96a04e452d5e7e7375255a9ffc34c7548f95d811c60001b613514565b6000828060200190518101906110699190617888565b90506110977f3ca883a53e97085ef62ed4bc0a7c93c465461684285e1c58d5c6c002e799f2c660001b613514565b6110c37fc8f2414157c220105bbd9e78b75eeaade40dc9796b856d94c13fec6a57787e0460001b613514565b6000816000015190506110f87f9c986d1ac02b926d90427fb371627b2ab5bf3149eb006c0f479e1e5ac93fa70460001b613514565b6111247fe4d74029e83288b4e0c83176aa8eaff3529417c48f13b4763771ef8df4a5dccd60001b613514565b6000826020015190506111597f429aac91808e3c2b3c0dc7843b231ed3e1f8f30c6020d95b1a076623ae0eb35960001b613514565b6111857fffdb6fe3b302c8a6d78d1914154a5e06cbb8febf58698d5740d3d008336e980460001b613514565b6000836040015190506111ba7f541de66bf349dfdf25b40597889645e2244df33d1b17ff725bb0daa708f80acc60001b613514565b6111e67f524f9fed423aba017e29b3b91acce9b79a90068d0082ea8bf4af2b334776c9ab60001b613514565b60008460800151905061121b7fa9a720a5f22c58ba3b0675f41893b95a3655433ede6e9308cbc4cd448bb9915360001b613514565b6112477f69b3fba266bb506f2ad0da4750a5a8eecff9629ec954aadfbd1057790881332b60001b613514565b60008560600151905061127c7fcd08ba83fa6986b4290e433ea204b5985ed3c4de6bb3955e47d13d018a90c29c60001b613514565b6112a87f87ec4b1f6899c513c2c31f4e728f76b5c5080e7a6415eccaa5e79d982f6bc22460001b613514565b60008503611345576112dc7f4c366892c92a6322067288e20a027f5f4e3d3885d1b07a7026b0f09de20583e860001b613514565b6113087f3485e8d671c80764b1d8719fcc29554b00c270b3b265ccc58917c9118c0e95e160001b613514565b846040517fc88f99b400000000000000000000000000000000000000000000000000000000815260040161133c9190616c52565b60405180910390fd5b6113717fc26912980fff39d547a292199d68bdc427f3c5e6fb3a233418e3493e05d80e4360001b613514565b61139d7f864fff119b638307b7bb8926c801e09fbd1a2e06f0317907ac9fea3efd619ed960001b613514565b6113c97f33fe45c86adf573b14c3fdc1e1ad2ae977a5d8c983a72a77d2f15b24d9aa6b3160001b613514565b60006101f65490506113fd7fd1425cd8c550a6e63c6b6e83eece98b63f6cf43697b9c6ce0f5b614d2b056ee860001b613514565b6114297f9cabc5659320674bb38d08ea6510dad14e1905e9cb08b7eaa849c734e4e18e9060001b613514565b60005b88811015611843576114607f3b111ec0d8318e5f09684bc6a3b225143661ad457bad8177bc4ac6021815659460001b613514565b61148c7f5f0b2561d8131f96f7af0d1ae0a209b4beaf201ce6258fdf12620caa7f3b745360001b613514565b60008b82815181106114a1576114a061778e565b5b602002602001015190506114d77f096388343c84a9e764d8cdc53c0cd2fb12e36bd02d72e166863a7600a1a8b7a960001b613514565b6115037fb2cebed39566cdefa0cfe51070872856e6b95475806779ce039d0ed3ee8323dd60001b613514565b6101f9600082815260200190815260200160002060009054906101000a900460ff16156115bf576115567f4c7e9724cad9c6b49a1ce7696661b3ca9c44b65f7536b109709ac227a7ee4fc460001b613514565b6115827febc24ee9f367dc72fd022553b538f23c63edfaddd1a964de2aef11bb45698ec760001b613514565b806040517f4acb9c290000000000000000000000000000000000000000000000000000000081526004016115b69190616c52565b60405180910390fd5b6115eb7f3baae82a7518ebd69a53f546cbbdb00e71143cd69e8acd3df9b9a8412624272160001b613514565b6116177fff98a210f51e21fbb75fd301b4fb0d58e9896f7362832580ea0761be367da38d60001b613514565b6116437fbce9befaadea216fa9697e6e471f02fc645dbd5e92fe811d8ee5ad6dd7fdef4860001b613514565b876101fa60008381526020019081526020016000206000018190555061168b7f944ffc81606728d93cb62d1a9d1a94c22e1fe733491a32dd2fdd753754cc4c3460001b613514565b6116b77fa707e39bc7108c8b7480b03afbeae5769959372df5b590616135bcc599c5d02c60001b613514565b856101fa6000838152602001908152602001600020600101819055506116ff7f9509741f6c98471b7984153046b89ef95c1e96fa334c8ae3971e9ebf51ee128d60001b613514565b61172a7e357c1c929dabf1bfe4d47b916134844278dcb893f8ccb253b59cc46b09134660001b613514565b60016101f9600083815260200190815260200160002060006101000a81548160ff0219169083151502179055506117837f549d0e939976e38cf9a8f19191352559585d2cbbcbaea36bc81a70eb324e62f260001b613514565b6117af7f8bc41c3ce05bba191a8b9033ff09540773bff94b198ad13c5dd6976d28483a3360001b613514565b806101f86000858152602001908152602001600020819055506117f47ff908f60c4c60c1193f51cac3a53d701e1aebed93a552095b1dc41de26265680360001b613514565b6118207f8687a652501aee2d40f3819e9e6019811d5c08465dba0e919583409ee5cbc97560001b613514565b60018361182d919061790f565b925050808061183b906177ba565b91505061142c565b506118707f0ef7d2fe1c3cf526804f86f583f0acac97d8ae91075d31f7c1a55a1908bca0e660001b613514565b61189c7f2c4854310bf675e57edd55df2c9769c8d730d44cb57effabfe106efa539ec8ca60001b613514565b60008a6000815181106118b2576118b161778e565b5b602002602001015190506118e87f5b770c3eb5b9b48a28f5a23f5ff21d35b3c6a04d171c8c3e3fee90be514047d160001b613514565b6119147fd56a32eadfed9529c8752b5f155cd5189ffea7d1777811af989505027859ab8e60001b613514565b816101f6819055506119487fa669d20494992c8324bd66408a8a0f124e6a88e783fc4a48441839b23d236e9d60001b613514565b6119747fd01aa8d02a7ae15eaf148fc36acd17c91a603a21258b83cfbbe2bf18171a66a260001b613514565b604051806080016040528087815260200161198e83613529565b73ffffffffffffffffffffffffffffffffffffffff1681526020016119b2836135c3565b60ff1681526020016119c383613661565b60ff168152506101fb60008981526020019081526020016000206000820151816000015560208201518160010160006101000a81548173ffffffffffffffffffffffffffffffffffffffff021916908373ffffffffffffffffffffffffffffffffffffffff1602179055506040820151816002015560608201518160030155905050611a717fcba4d0e3f86a892fe5f3c560a8e99c350081f0aa8dcee562ee30806a533ece4960001b613514565b611a9d7fd41aef863e62758d085e76effc9827d7358ff79936bbfd9c9a26331e22aec7b860001b613514565b611aa98d8c8e8d6136fe565b611ad57f112b92a8d4057bd16a564ea46c8d5399e15f2e99ebe510b1a8b2c978b7ce92ff60001b613514565b611b017f812879e81a8d2ef9459ce642db20f7b58b7f981969cb2bcca5094750bce1c99c60001b613514565b611b148d611b0d613780565b6001611e4f565b611b407f1caa92f1283789caebc4815414351f76c47450d984822c2eefa57bb3bfc4d2a760001b613514565b611b6c7f9b6bed306ed608fcc60ae5952eaf48285ad3b3cab7ed8aeab626e9dfb2372f7d60001b613514565b8315611c0857611b9e7fbecd8de40fb4c8ec2dc3b97b825bcf7ba979c47f9434b7f267b7e74dc69e9de960001b613514565b611bca7f0e4481f74519179ee60ad3b93643eb80b9606668e716df69fe270de2bbf8b38460001b613514565b611bf67f26c6156c563456b7c1139e5aba13c6baba95125fffc502670be263b19e95c39b60001b613514565b611c038d848d8f8e611c64565b611c35565b611c347f9d29c0f32f688b6b579853eb18f03657569c779e0a3a6763bc0f855b3e84f9db60001b613514565b5b50505050505050505050505050565b600060656000838152602001908152602001600020600101549050919050565b611c907faca7a5d4396a08098487572263f5f47cb9579bbb4ea06f5f54519f168f48697160001b613514565b611cbc7f1224f45e0c91b9f4ffe138ebcb1034910e99bf948d0d76498a6880845d7e738760001b613514565b611ce87f6d7e85ac59555878411ba8419c2475a093bf93acaaa368ea3d365e4759fb3e1260001b613514565b60006101fa600085600081518110611d0357611d0261778e565b5b6020026020010151815260200190815260200160002060000154604051602001611d2d9190616c52565b6040516020818303038152906040529050611d6a7f9585e84f7e78031762491a0e62a1d20fa1827e2a89c40fe52e794bf81ad13a9560001b613514565b611d967f8a75ac59e2a3e24eb58c45d68f73d5f029c5149a569d936407933019094b982060001b613514565b611da38686868685613788565b505050505050565b611db482611c44565b611dbd81613829565b611dc7838361383d565b505050565b611dd4613780565b73ffffffffffffffffffffffffffffffffffffffff168173ffffffffffffffffffffffffffffffffffffffff1614611e41576040517f08c379a0000000000000000000000000000000000000000000000000000000008152600401611e389061792e565b60405180910390fd5b611e4b8282613871565b5050565b6000801b611e5c81613829565b611e646138a5565b611e907f44607bca5e1267223d0cdab4eba7916d44dc8e2882bc95c45aadafa800830e3c60001b613514565b611ebc7fdac045a03fd633cb92f6496183c097da31e233af09653f8627bda92b91decf0860001b613514565b611ee87fab1a561a1a552cb9b3365b83772661d0f261d12539dadfeb976cb507ebf3962860001b613514565b611ef38484846138ef565b50505050565b611f2a7f65d7a28e3265b37a6474929f336521b332c1681b933f6cb9f3376673440d862a611f25613780565b61277f565b611f69576040517f08c379a0000000000000000000000000000000000000000000000000000000008152600401611f6090617992565b60405180910390fd5b611f71613a5b565b565b6000611fa17ff52bf4ff475ab6ea5141764b0f5c859724dfa8908cac99009d92034d61187ccc60001b613514565b611fcd7fe6ace62269ab6934ade80d7ab331602b7735c38e0c8012f215fe272a7f14a03a60001b613514565b611ff97fe5ff577d3220f2c93969f7c6e25a4e0c4d23fbeb6fbf3778266958c0ea000e2a60001b613514565b6120038383613abf565b905092915050565b60608151835114612051576040517f08c379a0000000000000000000000000000000000000000000000000000000008152600401612048906179f6565b60405180910390fd5b6000835167ffffffffffffffff81111561206e5761206d616c63565b5b60405190808252806020026020018201604052801561209c5781602001602082028036833780820191505090505b50905060005b8451811015612119576120e98582815181106120c1576120c061778e565b5b60200260200101518583815181106120dc576120db61778e565b5b602002602001015161084c565b8282815181106120fc576120fb61778e565b5b60200260200101818152505080612112906177ba565b90506120a2565b508091505092915050565b60008061213083613016565b119050919050565b600061012d60009054906101000a900460ff16905090565b6000801b61215d81613829565b6121897ff25ea4e44494e3b75d38226d9ee035092bb562708d74d7f2889f7f66a89f159e60001b613514565b6121b57f47364e00cdf9ba35ed6cec3e3152bdc1bfbd23ceaa5545fab617fdf9afdc222160001b613514565b6121e17ff364f9a8c95ff84b7c47e881427d360a141a6d1889ff32b9d8bbf0fd4832b08b60001b613514565b816101f560006101000a81548173ffffffffffffffffffffffffffffffffffffffff021916908373ffffffffffffffffffffffffffffffffffffffff1602179055505050565b61222f613780565b73ffffffffffffffffffffffffffffffffffffffff168373ffffffffffffffffffffffffffffffffffffffff16148061227557506122748361226f613780565b613202565b5b6122b4576040517f08c379a00000000000000000000000000000000000000000000000000000000081526004016122ab90617a5a565b60405180910390fd5b6122bf838383614441565b505050565b6122f07f391571d7536698a9c8714d053a0660515815b2ca8c70f0d8734a747232ace1a760001b613514565b61231c7fbf5616c1e562c9aa2af68d2aa4e576ccedd677b45408eb2cd51a68d00db97ccc60001b613514565b6123487fa8dc83f9158e1b8c50bea47da7f1940e7096b2dec71b462166876fb45971132860001b613514565b6040517f08c379a000000000000000000000000000000000000000000000000000000000815260040161237a90617abe565b60405180910390fd5b6101f86020528060005260406000206000915090505481565b60008060019054906101000a900460ff161590508080156123cd5750600160008054906101000a900460ff1660ff16105b806123fa57506123dc30614711565b1580156123f95750600160008054906101000a900460ff1660ff16145b5b612439576040517f08c379a000000000000000000000000000000000000000000000000000000000815260040161243090617afc565b60405180910390fd5b60016000806101000a81548160ff021916908360ff1602179055508015612476576001600060016101000a81548160ff0219169083151502179055505b6124a27fd6a88cb258e9a9baa16d98b2a7a74a60177a5a8abc298df839546c34aa1540ce60001b613514565b6124ce7f5a5dd86ca08ace64d053b8e986d7b351862b39bec10b93245f0659539fb7ce8060001b613514565b6124fa7fafc4829130bd9beb4f018989e193d3f0e54fbd914004a8004684194885c6151060001b613514565b61251b604051806060016040528060268152602001618993602691396133d4565b6125477f1cf0c3cbcbd07e4b9a0c4cad85b3a2de89bf36183986fafe752b5594a016d4d260001b613514565b6125737f384a31294db02943615d74fd1d5f3ad729fe6fae6142e47d7248e79b2a611d6b60001b613514565b61257b614734565b6125a77f817fef98d8af8e0f0704a7e0e5cb7d950c573bd810a903308d949ad2a077f54260001b613514565b6125d37f46ba60dbeb89df15ab6abd730e0adb4f522e3c570ccbe3a0a74d3ddb8fd2ffcc60001b613514565b60006101f6819055506126087f711320e7ed4ae0141a8ff805dd45ddc725b9a2a6384a991bc3912fcd1c13ec6a60001b613514565b6126347fa6e00baa9c47968ad9f59952b924f6f2688c0e6688de5d31fdf7fc32c5dd047c60001b613514565b6040518060400160405280600781526020017f52656d6f76616c000000000000000000000000000000000000000000000000008152506101f790816126799190617bde565b5080156126d35760008060016101000a81548160ff0219169083151502179055507f7f26b83ff96e1f2b6a682f133852f6798a09c465da95921460cefb384740249860016040516126ca9190617ca8565b60405180910390a15b50565b6127077f65d7a28e3265b37a6474929f336521b332c1681b933f6cb9f3376673440d862a612702613780565b61277f565b612746576040517f08c379a000000000000000000000000000000000000000000000000000000000815260040161273d90617cbc565b60405180910390fd5b61274e614785565b565b600061277782609760008681526020019081526020016000206147e990919063ffffffff16565b905092915050565b60006065600084815260200190815260200160002060000160008373ffffffffffffffffffffffffffffffffffffffff1673ffffffffffffffffffffffffffffffffffffffff16815260200190815260200160002060009054906101000a900460ff16905092915050565b6101f65481565b6127f9616b09565b6128257ff3036a5421c9ead8c7cdd77a98d484070a1f68cf71f7e2a251aced80f3586ea460001b613514565b6128517f1ca5e357406d4a02164d743f6564ac8592dfddb2a449c957ee68d7eded86b48360001b613514565b61287d7fda2dd4a4bc609f67d20104831df694c6e184cf38cc360403f9404440a868b8a260001b613514565b6101fb6000838152602001908152602001600020604051806080016040529081600082015481526020016001820160009054906101000a900473ffffffffffffffffffffffffffffffffffffffff1673ffffffffffffffffffffffffffffffffffffffff1673ffffffffffffffffffffffffffffffffffffffff168152602001600282015481526020016003820154815250509050919050565b6000801b81565b612930612929613780565b83836138ef565b5050565b6129607f46dea59112d6c66eadbeca2656065ba549430914e7881e56f831d889fc7df5a260001b613514565b61298c7f602706275ece4b032f9044bbb2163658c6cda5a40d591e3d80a69085185bf86460001b613514565b6129b87f7b575592310e994af0286e7e7bc27d941989a1dc6eb1d73a24c36c948026ab9f60001b613514565b60005b83839050811015612c03576129f27f138ff6e10feb8d4bcf525552fb61081065fbc5d6e6b33c1574f2afe9b10c7a5760001b613514565b612a1e7f33139d12d5d267ef2c7d59a070e95242e4e35f636fb20a8a4398de64dc75491260001b613514565b6000848483818110612a3357612a3261778e565b5b905060200201359050612a687fc599b55325746571d275e0c739c5b4239747db6aceaac4977c8cfb0164237f1b60001b613514565b612a947f266ce7ace3b8271f7acf68c57b90105e3d0ca2afb684ff48447069bf88e1d71260001b613514565b6101f9600082815260200190815260200160002060009054906101000a900460ff16612b4f57612ae67f3585ebae82f489a7e77aa304a5c7a27598321fbf82413a67bfe11347399e4a1360001b613514565b612b127f8b522fd6b4aba00ad0b41456853cccd88d4da94c309d90be497aad0c2406793660001b613514565b806040517f3374f12d000000000000000000000000000000000000000000000000000000008152600401612b469190616c52565b60405180910390fd5b612b7b7f64ce8c18229a8bd219d5c6e4032e128b9131531c7bb803a97c45a4788ea0828360001b613514565b612ba77fbb0b0c34286cc841d29e845a354af5b67fbb999cf2dc4f9db4e1e71e0f8e12ae60001b613514565b612bd37f705e2c508975d20f5bda89ee5ab491efb62ead9f8334285a3380d8477afe91a460001b613514565b826101fa600083815260200190815260200160002060010181905550508080612bfb906177ba565b9150506129bb565b50505050565b6060612c377fe49bf05f57df0820d861b7a45323ae72972ae1e0005e4f31ed0d17e1c52e7e2160001b613514565b612c637f8acce4416b32041f23b6a314527bae011c91675b15496fe003eb4683ff090f1c60001b613514565b612c8f7fddaa1757458e0ddbae0fed850e8226a19e00705bf16190efd1c36d5410e5fd2360001b613514565b6000825167ffffffffffffffff811115612cac57612cab616c63565b5b604051908082528060200260200182016040528015612cda5781602001602082028036833780820191505090505b509050612d097f15fa8e4c68bef33468b5e4b7b34251ef6a5e81c90f4421bd6ba886cdad8d179060001b613514565b612d357ffc55587637d37c5ce1785552da0b2de953fb5d79ca12fe00a05f2487f9fb14d560001b613514565b60005b8351811015612fb457612d6d7f411f2cfa3007884aeed6bd41d64ff763924b070b1203100af10d19e94a1f85fa60001b613514565b612d997f6ae71dfa81f1545a8c7d8d0f0ef30f3ff1b8dd201fced8a56a37e00498966e2460001b613514565b6000848281518110612dae57612dad61778e565b5b60200260200101519050612de47f6bd804c953a0f74e7a62d6295afb6f78a416f8e5eb9fe30e610072e3ee4958f560001b613514565b612e107fb2568544e669f5f4e6eacc96c25e3cf1ad4743021ff8f2fe0352235af0ef443260001b613514565b6101f9600082815260200190815260200160002060009054906101000a900460ff16612ecb57612e627f9edd63c2bd31fdf3615bfeb84e0174b469914326e4d36810719a922b0e3fdc9260001b613514565b612e8e7fd8d039647e2a47d5e8b93844a8fca59e080222b1f57a238736e685957767f92260001b613514565b806040517f3374f12d000000000000000000000000000000000000000000000000000000008152600401612ec29190616c52565b60405180910390fd5b612ef77f70fab267e8f4b024832be1c8d5e81c620f8eda9954c68a6643202820eaea678c60001b613514565b612f237ffb97529278e2d93b580603485d03d4ab1d2685f883c0e6b8d2de25c645d2bfd160001b613514565b612f4f7f1a522695774273f4410d22b5c647d72d6819509ca8ed5e2c6a0e80b9830a4d5460001b613514565b6101fa6000868481518110612f6757612f6661778e565b5b6020026020010151815260200190815260200160002060010154838381518110612f9457612f9361778e565b5b602002602001018181525050508080612fac906177ba565b915050612d38565b50612fe17f8a1a56f51a30baec3ba4e3014a2c017582f1235431399c6619f869b25aefe62760001b613514565b61300d7f0e996ac9cd9cf550bd1cafbe0a0193bacf7b0b4e2cd27714c9754f7aeebbe48e60001b613514565b80915050919050565b60006101c36000838152602001908152602001600020549050919050565b600061305160976000848152602001908152602001600020614803565b9050919050565b7f9f2df0fed2c77648de5860a4cc508cd0818c85b8b8a1ab4ceeef8d981c8956a681565b61308582611c44565b61308e81613829565b6130988383613871565b505050565b6130a5616b47565b6130d17f2260618e311c063002bd31790a29bd1b2af343af1cf9757412536e7a40ead4f760001b613514565b6130fd7fc38c2ab81f93110734476a5bca7edddbe3aaff94b3ef80a783d2fae3600fd98360001b613514565b6131297f9f7a9caafb8549cc83b56a7d63c5f0b0bb35888673e4db8283924753deb2ba4760001b613514565b61313282614818565b9050919050565b60006131677fbc6fcc10d61efa9edb000d0add1e23030ebb1889d8cae006151b5c2d7bbf98a060001b613514565b6131937f5a8d0a6ccd48af44c33f889922ab32cf35ee5e9c1e3e52705e60103ad090b85760001b613514565b6131bf7f9ce9ce068027890ff95b4c736866d188b040fe7fac4cab33319824a00b71362960001b613514565b6101fa6000838152602001908152602001600020600001549050919050565b7f65d7a28e3265b37a6474929f336521b332c1681b933f6cb9f3376673440d862a81565b600060ca60008473ffffffffffffffffffffffffffffffffffffffff1673ffffffffffffffffffffffffffffffffffffffff16815260200190815260200160002060008373ffffffffffffffffffffffffffffffffffffffff1673ffffffffffffffffffffffffffffffffffffffff16815260200190815260200160002060009054906101000a900460ff16905092915050565b61329e613780565b73ffffffffffffffffffffffffffffffffffffffff168573ffffffffffffffffffffffffffffffffffffffff1614806132e457506132e3856132de613780565b613202565b5b613323576040517f08c379a000000000000000000000000000000000000000000000000000000000815260040161331a90617a5a565b60405180910390fd5b6133308585858585614990565b5050505050565b61333f613780565b73ffffffffffffffffffffffffffffffffffffffff168373ffffffffffffffffffffffffffffffffffffffff16148061338557506133848361337f613780565b613202565b5b6133c4576040517f08c379a00000000000000000000000000000000000000000000000000000000081526004016133bb90617a5a565b60405180910390fd5b6133cf838383614c2e565b505050565b60008060019054906101000a900460ff161590508080156134055750600160008054906101000a900460ff1660ff16105b80613432575061341430614711565b1580156134315750600160008054906101000a900460ff1660ff16145b5b613471576040517f08c379a000000000000000000000000000000000000000000000000000000000815260040161346890617afc565b60405180910390fd5b60016000806101000a81548160ff021916908360ff16021790555080156134ae576001600060016101000a81548160ff0219169083151502179055505b6134b782614e76565b80156135105760008060016101000a81548160ff0219169083151502179055507f7f26b83ff96e1f2b6a682f133852f6798a09c465da95921460cefb384740249860016040516135079190617ca8565b60405180910390a15b5050565b50565b600061352282614ee2565b9050919050565b60006135577fa822aaeebbcf0e85f42aa3de9f6eb3b325eac42e986704cef805e540e8343a9b60001b614fc4565b6135837fd4a784c6848383c0635c031e014e9cd31b1aafe6dc104bfa1afaba84ae34772160001b614fc4565b6135af7f8ab6b34d043a53bfacbec7d8c7498b28b373bdbef97c51f384c383d1e67d2a8b60001b614fc4565b6135bc8260146004614fc7565b9050919050565b60006135f17ff33ca2d2b36dcc2e74d057cb7260ea96d635d5b65e40e82ae7885be7147385cc60001b614fc4565b61361d7f75a1687bcd76869a8e39b5274f128a24993cdcf934adf5e7b04a55d400c9f7df60001b614fc4565b6136497f85d892bfe36cc5efe43841b16dae817627cfa189831c62a95a0444f96d03725260001b614fc4565b6004613658836001601e614fc7565b901c9050919050565b600061368f7f6bcff8677322e278b43d76f75ee40f59dee38b58f7b94c7352b35dc9dcb5a20260001b614fc4565b6136bb7fe23d8f5dfd4747e7ad5b8c56fb64d6d000480adb67dd4f9ec6fd2b001fbf326b60001b614fc4565b6136e77f044a793bc0cf00d329e38b0008d5b646c44cd938593a15adc8ef0c42440d9cc460001b614fc4565b600f6136f6836001601e614fc7565b169050919050565b61372f7f9f2df0fed2c77648de5860a4cc508cd0818c85b8b8a1ab4ceeef8d981c8956a661372a613780565b61277f565b61376e576040517f08c379a000000000000000000000000000000000000000000000000000000000815260040161376590617d20565b60405180910390fd5b61377a84848484615160565b50505050565b600033905090565b613790613780565b73ffffffffffffffffffffffffffffffffffffffff168573ffffffffffffffffffffffffffffffffffffffff1614806137d657506137d5856137d0613780565b613202565b5b613815576040517f08c379a000000000000000000000000000000000000000000000000000000000815260040161380c90617a5a565b60405180910390fd5b613822858585858561538d565b5050505050565b61383a81613835613780565b6156b1565b50565b613847828261574e565b61386c816097600085815260200190815260200160002061582f90919063ffffffff16565b505050565b61387b828261585f565b6138a0816097600085815260200190815260200160002061594190919063ffffffff16565b505050565b6138ad612138565b156138ed576040517f08c379a00000000000000000000000000000000000000000000000000000000081526004016138e490617d84565b60405180910390fd5b565b8173ffffffffffffffffffffffffffffffffffffffff168373ffffffffffffffffffffffffffffffffffffffff160361395d576040517f08c379a000000000000000000000000000000000000000000000000000000000815260040161395490617dc2565b60405180910390fd5b8060ca60008573ffffffffffffffffffffffffffffffffffffffff1673ffffffffffffffffffffffffffffffffffffffff16815260200190815260200160002060008473ffffffffffffffffffffffffffffffffffffffff1673ffffffffffffffffffffffffffffffffffffffff16815260200190815260200160002060006101000a81548160ff0219169083151502179055508173ffffffffffffffffffffffffffffffffffffffff168373ffffffffffffffffffffffffffffffffffffffff167f17307eab39ab6107e8899845ad3d59bd9653f200f220920489ca2b5937696c3183604051613a4e9190616e3a565b60405180910390a3505050565b613a63615971565b600061012d60006101000a81548160ff0219169083151502179055507f5db9ee0a495bf2e6ff9c91a7834c1ba4fdd244a5e8aa4e537bd38aeae4b073aa613aa8613780565b604051613ab59190617433565b60405180910390a1565b6000613aed7f715f690e6549aea646a2716e49276326321e879787d62ebfc7fdbdfab1c3fb5a60001b614fc4565b613b197fc16ef91b7cdb7cd097ea548b9aff443e0b5acf02a6429876b4b3dd9d6b6594fa60001b614fc4565b613b457f50a77a031b309718e7c6591ae3ed2d4bc6b4a63ed1d3c6736d83cfb012cbc2b360001b614fc4565b60008383810190613b569190617e40565b60ff169050613b877fa7f06c4799cf47c55374353fabc80d590c77507c8c92b7cbd868fd839bc0e55960001b614fc4565b613bb37f019ed388ccb8d59d2246b44b526a3367dea947f5cd231062f67d5d178d16091a60001b614fc4565b613bdf7fe6501a865d8041546837c0d693d0633dcd8e5c853d8c6eed0bb7eab7a491292860001b614fc4565b60008114613c22576040517f08c379a0000000000000000000000000000000000000000000000000000000008152600401613c1990617e63565b60405180910390fd5b613c4e7f5298bb48ce0f4341eed584ea2c4d643aeb8e981cca0c9f893b26fbdcb4b1b9ec60001b614fc4565b613c7a7fd16e6dca5fd14d99b0cfe20b1f0d25a2c757a033c86a104ff93f2b17c962c13860001b614fc4565b613ca67f06b9dd4a867741bb6568de8116c2ec92d1a06a82e196513b65bd2272270aa9c260001b614fc4565b613cd27fe0fb68124f27020c0d0cbb61f36418799192eb6a65d6d954ac96208428a1e67860001b614fc4565b6101008484905014613d19576040517f08c379a0000000000000000000000000000000000000000000000000000000008152600401613d1090617ec7565b60405180910390fd5b613d457f51d0e4d08ece9310940fbc841e0c5b6f78905ba97a8596571d81cd8bc507efb460001b614fc4565b613d717f62b19bb27cfb5e6000771026f073362208d3b8b3831aefc927201228b2d8803960001b614fc4565b613d9d7f6e67d71b1fecb38bc1c8a5b0e60ab9e28d097f1cfe69c142bf8279fcde742cd560001b614fc4565b60008484810190613dae9190617f81565b9050613ddc7fcb7b2e81a1208c72d5f0f3858f87e34a30de4ea4f3eb6c2f0277631b6e6209f960001b614fc4565b613e087f81f82037116e32b6baa0d9a5541dd933c8254eac72e587c228264d07625acbd260001b614fc4565b613e347f957e4cff1b540a014dd8ab5c5424120565c1ae32fce7f7b8a18d1e48f59bd44760001b614fc4565b600f816020015160ff161115613e7f576040517f08c379a0000000000000000000000000000000000000000000000000000000008152600401613e769061804b565b60405180910390fd5b613eab7f8e11cfbe8cee47913aa1a9fa21223443509bcae55febe509cb0b188a8a24476960001b614fc4565b613ed77f5d7b804978c7d92e4b1c1e8fb5b3f67a8c9db06c0b98a2c12585a1d1ca2a2ba760001b614fc4565b613f037f42a40fee12cec104709c5c28850985bca565dacd1921aef6eecf3cb84ee6dc1560001b614fc4565b613f2f7f54c43ff889aa845ffdb553b07161d13d45e7b10d9b17a9cb4718a98afe2c228060001b614fc4565b600f816040015160ff161115613f7a576040517f08c379a0000000000000000000000000000000000000000000000000000000008152600401613f7190618089565b60405180910390fd5b613fa67f4ba5b6a17c2d838b5cc96e6cf77ad66d465cd452e13c3657dd4a8c7f0418491d60001b614fc4565b613fd27fb1f8598e136e34f1f6c2a00cbe89cf6155072368f958b8a18763dcde1a7c564560001b614fc4565b613ffe7facccd29c8c92ced49bd303d252d90a44d08aeefd3570378542e95c1d047da97d60001b614fc4565b60006008826080015160f01c61ffff16901c905061403e7ff4483360296d24b06e6073992bbe04a44fd627cd81fde3f3b8a6edfbc6208f3e60001b614fc4565b61406a7fa4adc0b0ea538d08961eb16ad24846ed07444412cb4911683a22aeb7be6db31560001b614fc4565b600060ff836080015160f01c61ffff161690506140a97f939bbb44e83fdb59f09d7aa2bfcb144bebc50e25a4e7ef02eef8e29bbf48bdaf60001b614fc4565b6140d57f7583bd29df808e60c80bc90761b54147b42c4088472521fc3548be3e357126f960001b614fc4565b600060088460a0015160f01c61ffff16901c90506141157fcc727e8b5a483b6189f29b79404c8a55d53137f02f4191b81d841ce5c72293d360001b614fc4565b6141417fa9ce6e2cd2e1b0ab986eb11feabd047868ec490c2bbf73a435a5a06cca2c308d60001b614fc4565b600060ff8560a0015160f01c61ffff161690506141807f206cd87dcf5cff3b5094e4ce61d5e5434351733a21f0fda4d7cffbbef2b17e1a60001b614fc4565b6141ac7f980f5028ea59ff01209d6a443c65d7b77745d6bfda7c6e107e6f52876fa8b25260001b614fc4565b6141d87f3048b4319dc051b2d4f42c707192a9f5af745f05f103f0a9847c816560926dfb60001b614fc4565b604184101580156141ea5750605a8411155b80156141f7575060418310155b80156142045750605a8311155b8015614211575060418210155b801561421e5750605a8211155b801561422b575060418110155b80156142385750605a8111155b614277576040517f08c379a000000000000000000000000000000000000000000000000000000000815260040161426e906180c7565b60405180910390fd5b6142a37f3d585f837d3511cd4130fb15fc1d1db963accfdb355664852e5472b2e7e6645760001b614fc4565b6142cf7fc929f45ba2ce166259621570861523a2a8ffd29c5d494ddb00953fc316e0fe1a60001b614fc4565b6142fb7f6104ac4fd5065d84ee1e411eea956e1d3aacc5e8fb8acc42058837b014c1c67960001b614fc4565b600085604001516004876020015160ff16901b1760ff1690506143407f2772b556a002c159b7428812c38236caf836f8dd0296405a957dbfd6ca5aa19260001b614fc4565b61436c7fede993d91e1a94b121634c16d3d3d15cb718f8527de392c9e59984e22c88583660001b614fc4565b6008600061437a9190618105565b8660e0015163ffffffff16901b600860046143959190618105565b8760c0015173ffffffffffffffffffffffffffffffffffffffff16901b600860186143c09190618105565b8860a0015160f01c61ffff16901b6008601a6143dc9190618105565b896080015160f01c61ffff16901b6008601c6143f89190618105565b8a6060015161ffff16901b6008601e6144119190618105565b86901b6008601f6144229190618105565b8c6000015160ff16901b17171717171797505050505050505092915050565b600073ffffffffffffffffffffffffffffffffffffffff168373ffffffffffffffffffffffffffffffffffffffff16036144b0576040517f08c379a00000000000000000000000000000000000000000000000000000000081526004016144a79061812b565b60405180910390fd5b80518251146144f4576040517f08c379a00000000000000000000000000000000000000000000000000000000081526004016144eb9061818f565b60405180910390fd5b60006144fe613780565b905061451e818560008686604051806020016040528060008152506159ba565b60005b835181101561466d57600084828151811061453f5761453e61778e565b5b60200260200101519050600084838151811061455e5761455d61778e565b5b60200260200101519050600060c9600084815260200190815260200160002060008973ffffffffffffffffffffffffffffffffffffffff1673ffffffffffffffffffffffffffffffffffffffff16815260200190815260200160002054905081811015614600576040517f08c379a00000000000000000000000000000000000000000000000000000000081526004016145f7906181f3565b60405180910390fd5b81810360c9600085815260200190815260200160002060008a73ffffffffffffffffffffffffffffffffffffffff1673ffffffffffffffffffffffffffffffffffffffff168152602001908152602001600020819055505050508080614665906177ba565b915050614521565b50600073ffffffffffffffffffffffffffffffffffffffff168473ffffffffffffffffffffffffffffffffffffffff168273ffffffffffffffffffffffffffffffffffffffff167f4a39dc06d4c0dbc64b70af90fd698a233a518aa5d07e595d983b8c0526c8f7fb86866040516146e5929190618257565b60405180910390a461470b81856000868660405180602001604052806000815250615a54565b50505050565b6000808273ffffffffffffffffffffffffffffffffffffffff163b119050919050565b600060019054906101000a900460ff16614783576040517f08c379a000000000000000000000000000000000000000000000000000000000815260040161477a90618286565b60405180910390fd5b565b61478d6138a5565b600161012d60006101000a81548160ff0219169083151502179055507f62e78cea01bee320cd4e420270b5ea74000d11b0c9f74754ebdbfc544b05a2586147d2613780565b6040516147df9190617433565b60405180910390a1565b60006147f88360000183615a5c565b60001c905092915050565b600061481182600001615a87565b9050919050565b614820616b47565b61484c7fbdbd54146a8aa313ea3afa6bd8eade33523cb0c38e0721b9e6a7542de7e8bc9860001b614fc4565b6148787f7518988816a237eb49360706200bb94090f766c2c486a6fc59337ed2b6715c9760001b614fc4565b6148a47fc16838d06f984c798f94aafbd0a8930ed1f51c6598338280205522510f4cbeb160001b614fc4565b6040518061010001604052806148b984615a98565b60ff1681526020016148ca846135c3565b60ff1681526020016148db84613661565b60ff1681526020016148ec84615b32565b61ffff1681526020016148fe84615bcc565b7dffffffffffffffffffffffffffffffffffffffffffffffffffffffffffff1916815260200161492d84615c69565b7dffffffffffffffffffffffffffffffffffffffffffffffffffffffffffff1916815260200161495c84613529565b73ffffffffffffffffffffffffffffffffffffffff16815260200161498084615d06565b63ffffffff168152509050919050565b600073ffffffffffffffffffffffffffffffffffffffff168473ffffffffffffffffffffffffffffffffffffffff16036149ff576040517f08c379a00000000000000000000000000000000000000000000000000000000081526004016149f6906182ea565b60405180910390fd5b6000614a09613780565b90506000614a1685615da0565b90506000614a2385615da0565b9050614a338389898585896159ba565b600060c9600088815260200190815260200160002060008a73ffffffffffffffffffffffffffffffffffffffff1673ffffffffffffffffffffffffffffffffffffffff16815260200190815260200160002054905085811015614acb576040517f08c379a0000000000000000000000000000000000000000000000000000000008152600401614ac29061834e565b60405180910390fd5b85810360c9600089815260200190815260200160002060008b73ffffffffffffffffffffffffffffffffffffffff1673ffffffffffffffffffffffffffffffffffffffff168152602001908152602001600020819055508560c9600089815260200190815260200160002060008a73ffffffffffffffffffffffffffffffffffffffff1673ffffffffffffffffffffffffffffffffffffffff1681526020019081526020016000206000828254614b82919061790f565b925050819055508773ffffffffffffffffffffffffffffffffffffffff168973ffffffffffffffffffffffffffffffffffffffff168573ffffffffffffffffffffffffffffffffffffffff167fc3d58168c5ae7397731d063d5bbf3d657854427343f4c083240f7aacaa2d0f628a8a604051614bff9291906183b2565b60405180910390a4614c15848a8a86868a615a54565b614c23848a8a8a8a8a615e1a565b505050505050505050565b600073ffffffffffffffffffffffffffffffffffffffff168373ffffffffffffffffffffffffffffffffffffffff1603614c9d576040517f08c379a0000000000000000000000000000000000000000000000000000000008152600401614c949061812b565b60405180910390fd5b6000614ca7613780565b90506000614cb484615da0565b90506000614cc184615da0565b9050614ce1838760008585604051806020016040528060008152506159ba565b600060c9600087815260200190815260200160002060008873ffffffffffffffffffffffffffffffffffffffff1673ffffffffffffffffffffffffffffffffffffffff16815260200190815260200160002054905084811015614d79576040517f08c379a0000000000000000000000000000000000000000000000000000000008152600401614d70906181f3565b60405180910390fd5b84810360c9600088815260200190815260200160002060008973ffffffffffffffffffffffffffffffffffffffff1673ffffffffffffffffffffffffffffffffffffffff16815260200190815260200160002081905550600073ffffffffffffffffffffffffffffffffffffffff168773ffffffffffffffffffffffffffffffffffffffff168573ffffffffffffffffffffffffffffffffffffffff167fc3d58168c5ae7397731d063d5bbf3d657854427343f4c083240f7aacaa2d0f628989604051614e479291906183b2565b60405180910390a4614e6d84886000868660405180602001604052806000815250615a54565b50505050505050565b600060019054906101000a900460ff16614ec5576040517f08c379a0000000000000000000000000000000000000000000000000000000008152600401614ebc90618286565b60405180910390fd5b614ece81615ff1565b614ed661604c565b614edf816160b9565b50565b60007fd9b67a26000000000000000000000000000000000000000000000000000000007bffffffffffffffffffffffffffffffffffffffffffffffffffffffff1916827bffffffffffffffffffffffffffffffffffffffffffffffffffffffff19161480614fad57507f0e89341c000000000000000000000000000000000000000000000000000000007bffffffffffffffffffffffffffffffffffffffffffffffffffffffff1916827bffffffffffffffffffffffffffffffffffffffffffffffffffffffff1916145b80614fbd5750614fbc82616181565b5b9050919050565b50565b6000614ff57f97a949f7cf753de2ab67f66199ee495c35eeac7287a2e36ae4cc4dff0760d29b60001b614fc4565b6150217fd8db074e3d9231e557f61b2fbdc655395d0aad8ece3d1360d7a3d7be38e6090660001b614fc4565b61504d7fe9e00c922cf43152c4da827f780b077489d6d4a2a0bb7ea4dd63c1ce49b3906560001b614fc4565b600060088361505c9190618105565b600160088661506b9190618105565b600261507791906184c5565b61508191906184d9565b60001b901b90506150b47f9e8e8773f2de27feb497ee8bf10260988387218c18185929fab030a1c976a7ce60001b614fc4565b6150e07fa7895881cfb3b0ce9006b8bbd4741f717601e372c84c941d8af787c312f3118860001b614fc4565b6000818660001b1690506151167fdba4163e34171110de5b9ee33846469f74f2a746d4153c8925c75c7b30ab794f60001b614fc4565b6151427f3419ff284efaf5e2681f81fcfd52f0e95e67d4e032ca48578d6f66ad5febb49f60001b614fc4565b60088461514f9190618105565b81901c60001c925050509392505050565b600073ffffffffffffffffffffffffffffffffffffffff168473ffffffffffffffffffffffffffffffffffffffff16036151cf576040517f08c379a00000000000000000000000000000000000000000000000000000000081526004016151c6906184f7565b60405180910390fd5b8151835114615213576040517f08c379a000000000000000000000000000000000000000000000000000000000815260040161520a9061818f565b60405180910390fd5b600061521d613780565b905061522e816000878787876159ba565b60005b84518110156152e85783818151811061524d5761524c61778e565b5b602002602001015160c9600087848151811061526c5761526b61778e565b5b6020026020010151815260200190815260200160002060008873ffffffffffffffffffffffffffffffffffffffff1673ffffffffffffffffffffffffffffffffffffffff16815260200190815260200160002060008282546152ce919061790f565b9250508190555080806152e0906177ba565b915050615231565b508473ffffffffffffffffffffffffffffffffffffffff16600073ffffffffffffffffffffffffffffffffffffffff168273ffffffffffffffffffffffffffffffffffffffff167f4a39dc06d4c0dbc64b70af90fd698a233a518aa5d07e595d983b8c0526c8f7fb8787604051615360929190618257565b60405180910390a461537781600087878787615a54565b615386816000878787876161fb565b5050505050565b81518351146153d1576040517f08c379a00000000000000000000000000000000000000000000000000000000081526004016153c89061818f565b60405180910390fd5b600073ffffffffffffffffffffffffffffffffffffffff168473ffffffffffffffffffffffffffffffffffffffff1603615440576040517f08c379a0000000000000000000000000000000000000000000000000000000008152600401615437906182ea565b60405180910390fd5b600061544a613780565b905061545a8187878787876159ba565b60005b845181101561560e57600085828151811061547b5761547a61778e565b5b60200260200101519050600085838151811061549a5761549961778e565b5b60200260200101519050600060c9600084815260200190815260200160002060008b73ffffffffffffffffffffffffffffffffffffffff1673ffffffffffffffffffffffffffffffffffffffff1681526020019081526020016000205490508181101561553c576040517f08c379a00000000000000000000000000000000000000000000000000000000081526004016155339061834e565b60405180910390fd5b81810360c9600085815260200190815260200160002060008c73ffffffffffffffffffffffffffffffffffffffff1673ffffffffffffffffffffffffffffffffffffffff168152602001908152602001600020819055508160c9600085815260200190815260200160002060008b73ffffffffffffffffffffffffffffffffffffffff1673ffffffffffffffffffffffffffffffffffffffff16815260200190815260200160002060008282546155f3919061790f565b9250508190555050505080615607906177ba565b905061545d565b508473ffffffffffffffffffffffffffffffffffffffff168673ffffffffffffffffffffffffffffffffffffffff168273ffffffffffffffffffffffffffffffffffffffff167f4a39dc06d4c0dbc64b70af90fd698a233a518aa5d07e595d983b8c0526c8f7fb8787604051615685929190618257565b60405180910390a461569b818787878787615a54565b6156a98187878787876161fb565b505050505050565b6156bb828261277f565b61574a576156e08173ffffffffffffffffffffffffffffffffffffffff1660146163d2565b6156ee8360001c60206163d2565b6040516020016156ff92919061855b565b6040516020818303038152906040526040517f08c379a00000000000000000000000000000000000000000000000000000000081526004016157419190616eae565b60405180910390fd5b5050565b615758828261277f565b61582b5760016065600084815260200190815260200160002060000160008373ffffffffffffffffffffffffffffffffffffffff1673ffffffffffffffffffffffffffffffffffffffff16815260200190815260200160002060006101000a81548160ff0219169083151502179055506157d0613780565b73ffffffffffffffffffffffffffffffffffffffff168173ffffffffffffffffffffffffffffffffffffffff16837f2f8788117e7eff1d82e926ec794901d17c78024a50270940304540a733656f0d60405160405180910390a45b5050565b6000615857836000018373ffffffffffffffffffffffffffffffffffffffff1660001b61660e565b905092915050565b615869828261277f565b1561593d5760006065600084815260200190815260200160002060000160008373ffffffffffffffffffffffffffffffffffffffff1673ffffffffffffffffffffffffffffffffffffffff16815260200190815260200160002060006101000a81548160ff0219169083151502179055506158e2613780565b73ffffffffffffffffffffffffffffffffffffffff168173ffffffffffffffffffffffffffffffffffffffff16837ff6391f5c32d9c69d2a47ea670b442974b53935d1edc7fd64eb21e047a839171b60405160405180910390a45b5050565b6000615969836000018373ffffffffffffffffffffffffffffffffffffffff1660001b61667e565b905092915050565b615979612138565b6159b8576040517f08c379a00000000000000000000000000000000000000000000000000000000081526004016159af906185e2565b60405180910390fd5b565b6159e67f87a84afe9aa26277d97ac63b5962429318acfc15bc9416053dcfeb1eef904ffe60001b613514565b615a127f255eca314d9717b876022a3e9d9cac89617123719c151c510b0720defb05b05660001b613514565b615a3e7fee2672dba045f4c661be2f01b4fbe673692762120a67da25b13c5d002ba0d01f60001b613514565b615a4c868686868686616792565b505050505050565b505050505050565b6000826000018281548110615a7457615a7361778e565b5b9060005260206000200154905092915050565b600081600001805490509050919050565b6000615ac67fa43d40037165ca5c8c25fc0064836ec850a0b7cb8149ae0dcdb624ca75c3cd8660001b614fc4565b615af27fd1b92d3b74a6c40ea7065e0de61782a2d83a9ba0295c8bdeab302663f64ae44f60001b614fc4565b615b1e7f20fb94335a417e7914b59bc9bfadb78349e6845103726f2e28b45150054ac6fc60001b614fc4565b615b2b826001601f614fc7565b9050919050565b6000615b607f7529bea20782c3cb5721dc5fee820d690122db2447a24130601229fa0b8a7a6360001b614fc4565b615b8c7fa58f57f4326cb1d5dc8ee2d3bfb5b79894c0679bf9bf47b59f7eb0c2f3c72cc060001b614fc4565b615bb87f9887d47ee679f1556bb34e0a9b193eb5412ae22a3cc28a2f70acafc4aab6e2d760001b614fc4565b615bc5826002601c614fc7565b9050919050565b6000615bfa7fa97722f34b6a52458f68c254ad6c778c3753ccf25e71ed335d992d30ba227ca760001b614fc4565b615c267f10517db53b8683c03d3d9210caf1b3e6dfdaff7352faa0352aaba8228ec0ae0d60001b614fc4565b615c527f8b5e055eec2fa9b28274faea962920a5e26204c671119adce85591ec10aa8cbc60001b614fc4565b615c5f826002601a614fc7565b60f01b9050919050565b6000615c977f3953c7f56ab5f21dee4b8901350aa6dbfc612b5125c1e67fefd1db53023e06c060001b614fc4565b615cc37f2e16bd454a4fde4059056dec5f1d7bea9d7d5d2138a7a3173908a43e759551e860001b614fc4565b615cef7fbccf382236166397fb2048ea63f5fe05e7df342d49653e2a625e777770afc5b660001b614fc4565b615cfc8260026018614fc7565b60f01b9050919050565b6000615d347fec470a8145bff8b54df859d76079146400709ef274da839f9becf0474f965e4060001b614fc4565b615d607f3922a6e75c9a47a37e978c89efbb90da1f937de44b102eb7a8cec953b470970f60001b614fc4565b615d8c7f17ec29bcfb14c68a09477f05ae80d3bb59364e243d10b9466e8a75dae88c01d760001b614fc4565b615d998260046000614fc7565b9050919050565b60606000600167ffffffffffffffff811115615dbf57615dbe616c63565b5b604051908082528060200260200182016040528015615ded5781602001602082028036833780820191505090505b5090508281600081518110615e0557615e0461778e565b5b60200260200101818152505080915050919050565b615e398473ffffffffffffffffffffffffffffffffffffffff16614711565b15615fe9578373ffffffffffffffffffffffffffffffffffffffff1663f23a6e6187878686866040518663ffffffff1660e01b8152600401615e7f959493929190618620565b6020604051808303816000875af1925050508015615ebb57506040513d601f19601f82011682018060405250810190615eb89190618663565b60015b615f6057615ec761868a565b806308c379a003615f235750615edb6186a7565b80615ee65750615f25565b806040517f08c379a0000000000000000000000000000000000000000000000000000000008152600401615f1a9190616eae565b60405180910390fd5b505b6040517f08c379a0000000000000000000000000000000000000000000000000000000008152600401615f5790618735565b60405180910390fd5b63f23a6e6160e01b7bffffffffffffffffffffffffffffffffffffffffffffffffffffffff1916817bffffffffffffffffffffffffffffffffffffffffffffffffffffffff191614615fe7576040517f08c379a0000000000000000000000000000000000000000000000000000000008152600401615fde90618799565b60405180910390fd5b505b505050505050565b600060019054906101000a900460ff16616040576040517f08c379a000000000000000000000000000000000000000000000000000000000815260040161603790618286565b60405180910390fd5b61604981616965565b50565b600060019054906101000a900460ff1661609b576040517f08c379a000000000000000000000000000000000000000000000000000000000815260040161609290618286565b60405180910390fd5b600061012d60006101000a81548160ff021916908315150217905550565b600060019054906101000a900460ff16616108576040517f08c379a00000000000000000000000000000000000000000000000000000000081526004016160ff90618286565b60405180910390fd5b61611c6000801b616117613780565b616978565b61614d7f9f2df0fed2c77648de5860a4cc508cd0818c85b8b8a1ab4ceeef8d981c8956a6616148613780565b616978565b61617e7f65d7a28e3265b37a6474929f336521b332c1681b933f6cb9f3376673440d862a616179613780565b616978565b50565b60007f5a05180f000000000000000000000000000000000000000000000000000000007bffffffffffffffffffffffffffffffffffffffffffffffffffffffff1916827bffffffffffffffffffffffffffffffffffffffffffffffffffffffff191614806161f457506161f382616986565b5b9050919050565b61621a8473ffffffffffffffffffffffffffffffffffffffff16614711565b156163ca578373ffffffffffffffffffffffffffffffffffffffff1663bc197c8187878686866040518663ffffffff1660e01b81526004016162609594939291906187fd565b6020604051808303816000875af192505050801561629c57506040513d601f19601f820116820180604052508101906162999190618663565b60015b616341576162a861868a565b806308c379a00361630457506162bc6186a7565b806162c75750616306565b806040517f08c379a00000000000000000000000000000000000000000000000000000000081526004016162fb9190616eae565b60405180910390fd5b505b6040517f08c379a000000000000000000000000000000000000000000000000000000000815260040161633890618735565b60405180910390fd5b63bc197c8160e01b7bffffffffffffffffffffffffffffffffffffffffffffffffffffffff1916817bffffffffffffffffffffffffffffffffffffffffffffffffffffffff1916146163c8576040517f08c379a00000000000000000000000000000000000000000000000000000000081526004016163bf90618799565b60405180910390fd5b505b505050505050565b6060600060028360026163e59190618105565b6163ef919061790f565b67ffffffffffffffff81111561640857616407616c63565b5b6040519080825280601f01601f19166020018201604052801561643a5781602001600182028036833780820191505090505b5090507f3000000000000000000000000000000000000000000000000000000000000000816000815181106164725761647161778e565b5b60200101907effffffffffffffffffffffffffffffffffffffffffffffffffffffffffffff1916908160001a9053507f7800000000000000000000000000000000000000000000000000000000000000816001815181106164d6576164d561778e565b5b60200101907effffffffffffffffffffffffffffffffffffffffffffffffffffffffffffff1916908160001a905350600060018460026165169190618105565b616520919061790f565b90505b60018111156165c0577f3031323334353637383961626364656600000000000000000000000000000000600f8616601081106165625761656161778e565b5b1a60f81b8282815181106165795761657861778e565b5b60200101907effffffffffffffffffffffffffffffffffffffffffffffffffffffffffffff1916908160001a905350600485901c9450806165b99061885b565b9050616523565b5060008414616604576040517f08c379a00000000000000000000000000000000000000000000000000000000081526004016165fb90618877565b60405180910390fd5b8091505092915050565b600061661a8383616a00565b616673578260000182908060018154018082558091505060019003906000526020600020016000909190919091505582600001805490508360010160008481526020019081526020016000208190555060019050616678565b600090505b92915050565b600080836001016000848152602001908152602001600020549050600081146167865760006001826166b091906184d9565b90506000600186600001805490506166c891906184d9565b90508181146167375760008660000182815481106166e9576166e861778e565b5b906000526020600020015490508087600001848154811061670d5761670c61778e565b5b90600052602060002001819055508387600101600083815260200190815260200160002081905550505b8560000180548061674b5761674a6188b4565b5b60019003818190600052602060002001600090559055856001016000868152602001908152602001600020600090556001935050505061678c565b60009150505b92915050565b6167a0868686868686616a23565b600073ffffffffffffffffffffffffffffffffffffffff168573ffffffffffffffffffffffffffffffffffffffff16036168525760005b8351811015616850578281815181106167f3576167f261778e565b5b60200260200101516101c360008684815181106168135761681261778e565b5b602002602001015181526020019081526020016000206000828254616838919061790f565b9250508190555080616849906177ba565b90506167d7565b505b600073ffffffffffffffffffffffffffffffffffffffff168473ffffffffffffffffffffffffffffffffffffffff160361695d5760005b835181101561695b5760008482815181106168a7576168a661778e565b5b6020026020010151905060008483815181106168c6576168c561778e565b5b6020026020010151905060006101c360008481526020019081526020016000205490508181101561692c576040517f08c379a0000000000000000000000000000000000000000000000000000000008152600401616923906188ca565b60405180910390fd5b8181036101c360008581526020019081526020016000208190555050505080616954906177ba565b9050616889565b505b505050505050565b8060cb90816169749190617bde565b5050565b616982828261383d565b5050565b60007f7965db0b000000000000000000000000000000000000000000000000000000007bffffffffffffffffffffffffffffffffffffffffffffffffffffffff1916827bffffffffffffffffffffffffffffffffffffffffffffffffffffffff191614806169f957506169f882616a39565b5b9050919050565b600080836001016000848152602001908152602001600020541415905092915050565b616a31868686868686616aa3565b505050505050565b60007f01ffc9a7000000000000000000000000000000000000000000000000000000007bffffffffffffffffffffffffffffffffffffffffffffffffffffffff1916827bffffffffffffffffffffffffffffffffffffffffffffffffffffffff1916149050919050565b616ab1868686868686616b01565b616ab9612138565b15616af9576040517f08c379a0000000000000000000000000000000000000000000000000000000008152600401616af09061892e565b60405180910390fd5b505050505050565b505050505050565b604051806080016040528060008152602001600073ffffffffffffffffffffffffffffffffffffffff16815260200160008152602001600081525090565b604051806101000160405280600060ff168152602001600060ff168152602001600060ff168152602001600061ffff16815260200160007dffffffffffffffffffffffffffffffffffffffffffffffffffffffffffff1916815260200160007dffffffffffffffffffffffffffffffffffffffffffffffffffffffffffff19168152602001600073ffffffffffffffffffffffffffffffffffffffff168152602001600063ffffffff1681525090565b60018060a01b0381168114616c0b57600080fd5b50565b600081359050616c1d81616bf7565b919050565b60008060408385031215616c3557600080fd5b8235616c4081616bf7565b80925050602083013590509250929050565b600060208201905082825292915050565b634e487b7160e01b600052604160045260246000fd5b601f19601f830116810181811067ffffffffffffffff82111715616ca057616c9f616c63565b5b80604052505050565b600067ffffffffffffffff821115616cc457616cc3616c63565b5b60208260051b019050919050565b600082601f830112616ce357600080fd5b81356020616cf082616ca9565b604051616cfd8282616c79565b8091508381528281019150828460051b870101935086841115616d1f57600080fd5b8286015b84811015616d3e578035835283830192508381019050616d23565b508094505050505092915050565b60008060408385031215616d5f57600080fd5b8235616d6a81616bf7565b80925050602083013567ffffffffffffffff811115616d8857600080fd5b616d9485828601616cd2565b9150509250929050565b600081518084526020808501945080840160005b83811015616dd3578151875282870196508282019150600181019050616db2565b5050505082905092915050565b602081526000616df36020830184616d9e565b905092915050565b63ffffffff60e01b81168114616e1057600080fd5b50565b600060208284031215616e2557600080fd5b8135616e3081616dfb565b8091505092915050565b6000602082019050821515825292915050565b60005b83811015616e6b578082015181840152602081019050616e50565b83811115616e7a576000848401525b50505050565b60008151808452616e98816020860160208601616e4d565b6020601f19601f83011685010191505092915050565b602081526000616ec16020830184616e80565b905092915050565b600060208284031215616edb57600080fd5b8135905092915050565b60018060a01b03811682525050565b60006080820190508251825260018060a01b036020840151166020830152604083015160408301526060830151606083015292915050565b600067ffffffffffffffff831115616f4757616f46616c63565b5b604051616f5e6020601f19601f8701160182616c79565b809150838152848484011115616f7357600080fd5b83836020830137600060208583010152509392505050565b600082601f830112616f9c57600080fd5b616fab83833560208501616f2c565b905092915050565b60008060008060808587031215616fc957600080fd5b8435616fd481616bf7565b80945050602085013567ffffffffffffffff80821115616ff357600080fd5b616fff88838901616cd2565b9450604087013591508082111561701557600080fd5b61702188838901616cd2565b9350606087013591508082111561703757600080fd5b5061704487828801616f8b565b91505092959194509250565b60006020828403121561706257600080fd5b8135905092915050565b600060208201905082825292915050565b600080600080600060a0868803121561709557600080fd5b85356170a081616bf7565b8095505060208601356170b281616bf7565b80945050604086013567ffffffffffffffff808211156170d157600080fd5b6170dd89838a01616cd2565b945060608801359150808211156170f357600080fd5b6170ff89838a01616cd2565b9350608088013591508082111561711557600080fd5b5061712288828901616f8b565b9150509295509295909350565b6000806040838503121561714257600080fd5b82359150602083013561715481616bf7565b809150509250929050565b801515811461716d57600080fd5b50565b60008060006060848603121561718557600080fd5b833561719081616bf7565b8093505060208401356171a281616bf7565b8092505060408401356171b48161715f565b809150509250925092565b600080602083850312156171d257600080fd5b823567ffffffffffffffff808211156171ea57600080fd5b818501915085601f8301126171fe57600080fd5b81358181111561720d57600080fd5b86602082850101111561721f57600080fd5b6020830194508093505050509250929050565b6000806040838503121561724557600080fd5b823567ffffffffffffffff8082111561725d57600080fd5b818501915085601f83011261727157600080fd5b8135602061727e82616ca9565b60405161728b8282616c79565b8091508381528281019150828460051b8701019350898411156172ad57600080fd5b82860195505b838610156172d95785356172c681616bf7565b80835250828201915082860195506172b3565b80975050508087013593505050808211156172f357600080fd5b5061730085828601616cd2565b9150509250929050565b60006020828403121561731c57600080fd5b813561732781616bf7565b8091505092915050565b60008060006060848603121561734657600080fd5b833561735181616bf7565b80935050602084013567ffffffffffffffff8082111561737057600080fd5b61737c87838801616cd2565b9350604086013591508082111561739257600080fd5b5061739f86828701616cd2565b9150509250925092565b600080600080608085870312156173bf57600080fd5b84356173ca81616bf7565b809450506020850135925060408501359150606085013567ffffffffffffffff8111156173f657600080fd5b61740287828801616f8b565b91505092959194509250565b6000806040838503121561742157600080fd5b82359150602083013590509250929050565b600060208201905060018060a01b038316825292915050565b6000806040838503121561745f57600080fd5b823561746a81616bf7565b80925050602083013561747c8161715f565b809150509250929050565b60008060006040848603121561749c57600080fd5b833567ffffffffffffffff808211156174b457600080fd5b818601915086601f8301126174c857600080fd5b8135818111156174d757600080fd5b8760208260051b85010111156174ec57600080fd5b602083019550809450505050602084013590509250925092565b60006020828403121561751857600080fd5b813567ffffffffffffffff81111561752f57600080fd5b61753b84828501616cd2565b91505092915050565b61ffff60f01b811682525050565b63ffffffff811682525050565b60006101008201905060ff835116825260ff602084015116602083015260ff604084015116604083015261ffff606084015116606083015261ffff60f01b608084015116608083015260a08301516175ba60a0840182617544565b5060c08301516175cd60c0840182616ee5565b5060e08301516175e060e0840182617552565b5092915050565b600080604083850312156175fa57600080fd5b823561760581616bf7565b80925050602083013561761781616bf7565b809150509250929050565b600080600080600060a0868803121561763a57600080fd5b853561764581616bf7565b80955050602086013561765781616bf7565b809450506040860135925060608601359150608086013567ffffffffffffffff81111561768357600080fd5b61768f88828901616f8b565b9150509295509295909350565b6000806000606084860312156176b157600080fd5b83356176bc81616bf7565b8093505060208401359150604084013590509250925092565b6000602082840312156176e757600080fd5b813567ffffffffffffffff8111156176fe57600080fd5b808301905083601f82011261771257600080fd5b61772184823560208401616f2c565b91505092915050565b60208152602a60208201527f455243313135353a2061646472657373207a65726f206973206e6f742061207660408201527f616c6964206f776e65720000000000000000000000000000000000000000000060608201526000608082019050919050565b634e487b7160e01b600052603260045260246000fd5b634e487b7160e01b600052601160045260246000fd5b6000801982036177cd576177cc6177a4565b5b600182019050919050565b60008160011c905060018216806177f057607f821691505b60208210810361781057634e487b7160e01b600052602260045260246000fd5b50919050565b60408152600760408201527f616d6f756e747300000000000000000000000000000000000000000000000000606082015260806020820152600360808201527f696473000000000000000000000000000000000000000000000000000000000060a0820152600060c082019050919050565b600060a0828403121561789a57600080fd5b60405160a0810181811067ffffffffffffffff821117156178be576178bd616c63565b5b806040525082518152602083015160208201526040830151604082015260608301516178e981616bf7565b8060608301525060808301516178fe8161715f565b806080830152508091505092915050565b60008219821115617923576179226177a4565b5b828201905092915050565b60208152602f60208201527f416363657373436f6e74726f6c3a2063616e206f6e6c792072656e6f756e636560408201527f20726f6c657320666f722073656c66000000000000000000000000000000000060608201526000608082019050919050565b60208152603b60208201527f455243313135355072657365744d696e7465725061757365723a206d7573742060408201527f686176652070617573657220726f6c6520746f20756e7061757365000000000060608201526000608082019050919050565b60208152602960208201527f455243313135353a206163636f756e747320616e6420696473206c656e67746860408201527f206d69736d61746368000000000000000000000000000000000000000000000060608201526000608082019050919050565b60208152602f60208201527f455243313135353a2063616c6c6572206973206e6f7420746f6b656e206f776e60408201527f6572206e6f7220617070726f766564000000000000000000000000000000000060608201526000608082019050919050565b60208152601f60208201527f52656d6f76616c3a204552432031313535206d696e742064697361626c65640060408201526000606082019050919050565b60208152602e60208201527f496e697469616c697a61626c653a20636f6e747261637420697320616c72656160408201527f647920696e697469616c697a656400000000000000000000000000000000000060608201526000608082019050919050565b806000525060006020600020905090565b601f821115617bbf57600081815260208120601f850160051c81016020861015617b99578190505b601f850160051c820191505b81811015617bbb57828155600181019050617ba5565b5050505b505050565b60008260011b6000198460031b1c19831617905092915050565b815167ffffffffffffffff811115617bf957617bf8616c63565b5b617c0d81617c0784546177d8565b84617b71565b60006020809150601f831160018114617c415760008415617c2f578387015190505b617c398582617bc4565b865550617ca0565b601f198416617c4f86617b60565b60005b82811015617c755785890151825560018201915084860195508481019050617c52565b5085821015617c94578488015160001960f88860031b161c1981168255505b505060018460011b0185555b505050505050565b600060208201905060ff8316825292915050565b60208152603960208201527f455243313135355072657365744d696e7465725061757365723a206d7573742060408201527f686176652070617573657220726f6c6520746f2070617573650000000000000060608201526000608082019050919050565b60208152603860208201527f455243313135355072657365744d696e7465725061757365723a206d7573742060408201527f68617665206d696e74657220726f6c6520746f206d696e74000000000000000060608201526000608082019050919050565b60208152601060208201527f5061757361626c653a207061757365640000000000000000000000000000000060408201526000606082019050919050565b60208152602960208201527f455243313135353a2073657474696e6720617070726f76616c2073746174757360408201527f20666f722073656c66000000000000000000000000000000000000000000000060608201526000608082019050919050565b60008135905060ff81168114617e3b57600080fd5b919050565b600060208284031215617e5257600080fd5b617e5b82617e26565b905092915050565b60208152602460208201527f556e737570706f727465642072656d6f76616c20746f6b656e2069642076657260408201527f73696f6e0000000000000000000000000000000000000000000000000000000060608201526000608082019050919050565b60208152602a60208201527f72656d6f76616c4461746120636f6e7461696e732077726f6e67206e756d626560408201527f72206f662062797465730000000000000000000000000000000000000000000060608201526000608082019050919050565b60008135905061ffff81168114617f4157600080fd5b919050565b60008135905061ffff60f01b81168114617f5f57600080fd5b919050565b60008135905063ffffffff81168114617f7c57600080fd5b919050565b6000610100808385031215617f9557600080fd5b604051818101915080821067ffffffffffffffff83111715617fba57617fb9616c63565b5b81604052617fc784617e26565b8152617fd560208501617e26565b6020820152617fe660408501617e26565b6040820152617ff760608501617f2b565b606082015261800860808501617f46565b608082015261801960a08501617f46565b60a082015261802a60c08501616c0e565b60c082015261803b60e08501617f64565b60e0820152809250505092915050565b60208152601560208201527f4d6574686f6c6f646f677920746f6f206c61726765000000000000000000000060408201526000606082019050919050565b60208152601d60208201527f4d6574686f6c6f646f67792076657273696f6e20746f6f206c6172676500000060408201526000606082019050919050565b60208152600d60208201527f496e76616c69642041534349490000000000000000000000000000000000000060408201526000606082019050919050565b60008160001904831182151516156181205761811f6177a4565b5b828202905092915050565b60208152602360208201527f455243313135353a206275726e2066726f6d20746865207a65726f206164647260408201527f657373000000000000000000000000000000000000000000000000000000000060608201526000608082019050919050565b60208152602860208201527f455243313135353a2069647320616e6420616d6f756e7473206c656e6774682060408201527f6d69736d6174636800000000000000000000000000000000000000000000000060608201526000608082019050919050565b60208152602460208201527f455243313135353a206275726e20616d6f756e7420657863656564732062616c60408201527f616e63650000000000000000000000000000000000000000000000000000000060608201526000608082019050919050565b60408152600061826a6040830185616d9e565b828103602084015261827c8185616d9e565b9150509392505050565b60208152602b60208201527f496e697469616c697a61626c653a20636f6e7472616374206973206e6f74206960408201527f6e697469616c697a696e6700000000000000000000000000000000000000000060608201526000608082019050919050565b60208152602560208201527f455243313135353a207472616e7366657220746f20746865207a65726f20616460408201527f647265737300000000000000000000000000000000000000000000000000000060608201526000608082019050919050565b60208152602a60208201527f455243313135353a20696e73756666696369656e742062616c616e636520666f60408201527f72207472616e736665720000000000000000000000000000000000000000000060608201526000608082019050919050565b60006040820190508382528260208301529392505050565b60008060018092508391505b808511156184105781600019048211156183f3576183f26177a4565b5b808516156184015781830292505b818202915084811c94506183d6565b509250929050565b60008261842857600190506184bf565b8161843657600090506184bf565b816001811461844c576002811461845657618474565b60019150506184bf565b60ff841115618468576184676177a4565b5b6001841b9150506184bf565b5060208310610133831016604e8410600b84101617156184985782820a90506184bf565b6184a283836183ca565b80600019048211156184b7576184b66177a4565b5b808202925050505b92915050565b60006184d18383618418565b905092915050565b6000828210156184ec576184eb6177a4565b5b828203905092915050565b60208152602160208201527f455243313135353a206d696e7420746f20746865207a65726f2061646472657360408201527f730000000000000000000000000000000000000000000000000000000000000060608201526000608082019050919050565b7f416363657373436f6e74726f6c3a206163636f756e7420000000000000000000815260008351618593816017850160208801616e4d565b80830190507f206973206d697373696e6720726f6c6520000000000000000000000000000000601782015283516185d1816028840160208801616e4d565b602881830101925050509392505050565b60208152601460208201527f5061757361626c653a206e6f742070617573656400000000000000000000000060408201526000606082019050919050565b600060018060a01b03808816835280871660208401525084604083015283606083015260a0608083015261865760a0830184616e80565b90509695505050505050565b60006020828403121561867557600080fd5b815161868081616dfb565b8091505092915050565b600060033d11156186a45760046000803e60005160e01c90505b90565b600060443d1061873257604051600319803d016004833e81513d67ffffffffffffffff81602484011181841117156186e3575050505050618732565b82850191508151818111156186fd57505050505050618732565b843d870101602082850101111561871957505050505050618732565b61872860208286010187616c79565b5050809450505050505b90565b60208152603460208201527f455243313135353a207472616e7366657220746f206e6f6e204552433131353560408201527f526563656976657220696d706c656d656e74657200000000000000000000000060608201526000608082019050919050565b60208152602860208201527f455243313135353a204552433131353552656365697665722072656a6563746560408201527f6420746f6b656e7300000000000000000000000000000000000000000000000060608201526000608082019050919050565b600060018060a01b03808816835280871660208401525060a0604083015261882860a0830186616d9e565b828103606084015261883a8186616d9e565b9050828103608084015261884e8185616e80565b9150509695505050505050565b60008161886b5761886a6177a4565b5b60001982019050919050565b602081526020808201527f537472696e67733a20686578206c656e67746820696e73756666696369656e7460408201526000606082019050919050565b634e487b7160e01b600052603160045260246000fd5b60208152602860208201527f455243313135353a206275726e20616d6f756e74206578636565647320746f7460408201527f616c537570706c7900000000000000000000000000000000000000000000000060608201526000608082019050919050565b60208152602c60208201527f455243313135355061757361626c653a20746f6b656e207472616e736665722060408201527f7768696c652070617573656400000000000000000000000000000000000000006060820152600060808201905091905056fe68747470733a2f2f6e6f72692e636f6d2f6170692f72656d6f76616c2f7b69647d2e6a736f6ea264697066735822122025a8ff6b9571d85fc0b014ab1934450af154a186bd910e910e35ac7f00e29a3e64736f6c634300080f0033",
  "linkReferences": {},
  "deployedLinkReferences": {}
}