{
  "_format": "hh-sol-artifact-1",
  "contractName": "Removal",
  "sourceName": "contracts/Removal.sol",
  "abi": [
    {
      "inputs": [],
      "stateMutability": "nonpayable",
      "type": "constructor"
    },
    {
      "inputs": [
        {
          "internalType": "string",
          "name": "array1Name",
          "type": "string"
        },
        {
          "internalType": "string",
          "name": "array2Name",
          "type": "string"
        }
      ],
      "name": "ArrayLengthMismatch",
      "type": "error"
    },
    {
      "inputs": [
        {
          "internalType": "uint256",
          "name": "removalId",
          "type": "uint256"
        }
      ],
      "name": "RemovalAmountZero",
      "type": "error"
    },
    {
      "inputs": [
        {
          "internalType": "uint256",
          "name": "tokenId",
          "type": "uint256"
        }
      ],
      "name": "TokenIdDoesNotExist",
      "type": "error"
    },
    {
      "inputs": [
        {
          "internalType": "uint256",
          "name": "tokenId",
          "type": "uint256"
        }
      ],
      "name": "TokenIdExists",
      "type": "error"
    },
    {
      "anonymous": false,
      "inputs": [
        {
          "indexed": true,
          "internalType": "address",
          "name": "account",
          "type": "address"
        },
        {
          "indexed": true,
          "internalType": "address",
          "name": "operator",
          "type": "address"
        },
        {
          "indexed": false,
          "internalType": "bool",
          "name": "approved",
          "type": "bool"
        }
      ],
      "name": "ApprovalForAll",
      "type": "event"
    },
    {
      "anonymous": false,
      "inputs": [
        {
          "indexed": false,
          "internalType": "uint8",
          "name": "version",
          "type": "uint8"
        }
      ],
      "name": "Initialized",
      "type": "event"
    },
    {
      "anonymous": false,
      "inputs": [
        {
          "indexed": false,
          "internalType": "address",
          "name": "account",
          "type": "address"
        }
      ],
      "name": "Paused",
      "type": "event"
    },
    {
      "anonymous": false,
      "inputs": [
        {
          "indexed": true,
          "internalType": "bytes32",
          "name": "role",
          "type": "bytes32"
        },
        {
          "indexed": true,
          "internalType": "bytes32",
          "name": "previousAdminRole",
          "type": "bytes32"
        },
        {
          "indexed": true,
          "internalType": "bytes32",
          "name": "newAdminRole",
          "type": "bytes32"
        }
      ],
      "name": "RoleAdminChanged",
      "type": "event"
    },
    {
      "anonymous": false,
      "inputs": [
        {
          "indexed": true,
          "internalType": "bytes32",
          "name": "role",
          "type": "bytes32"
        },
        {
          "indexed": true,
          "internalType": "address",
          "name": "account",
          "type": "address"
        },
        {
          "indexed": true,
          "internalType": "address",
          "name": "sender",
          "type": "address"
        }
      ],
      "name": "RoleGranted",
      "type": "event"
    },
    {
      "anonymous": false,
      "inputs": [
        {
          "indexed": true,
          "internalType": "bytes32",
          "name": "role",
          "type": "bytes32"
        },
        {
          "indexed": true,
          "internalType": "address",
          "name": "account",
          "type": "address"
        },
        {
          "indexed": true,
          "internalType": "address",
          "name": "sender",
          "type": "address"
        }
      ],
      "name": "RoleRevoked",
      "type": "event"
    },
    {
      "anonymous": false,
      "inputs": [
        {
          "indexed": true,
          "internalType": "address",
          "name": "operator",
          "type": "address"
        },
        {
          "indexed": true,
          "internalType": "address",
          "name": "from",
          "type": "address"
        },
        {
          "indexed": true,
          "internalType": "address",
          "name": "to",
          "type": "address"
        },
        {
          "indexed": false,
          "internalType": "uint256[]",
          "name": "ids",
          "type": "uint256[]"
        },
        {
          "indexed": false,
          "internalType": "uint256[]",
          "name": "values",
          "type": "uint256[]"
        }
      ],
      "name": "TransferBatch",
      "type": "event"
    },
    {
      "anonymous": false,
      "inputs": [
        {
          "indexed": true,
          "internalType": "address",
          "name": "operator",
          "type": "address"
        },
        {
          "indexed": true,
          "internalType": "address",
          "name": "from",
          "type": "address"
        },
        {
          "indexed": true,
          "internalType": "address",
          "name": "to",
          "type": "address"
        },
        {
          "indexed": false,
          "internalType": "uint256",
          "name": "id",
          "type": "uint256"
        },
        {
          "indexed": false,
          "internalType": "uint256",
          "name": "value",
          "type": "uint256"
        }
      ],
      "name": "TransferSingle",
      "type": "event"
    },
    {
      "anonymous": false,
      "inputs": [
        {
          "indexed": false,
          "internalType": "string",
          "name": "value",
          "type": "string"
        },
        {
          "indexed": true,
          "internalType": "uint256",
          "name": "id",
          "type": "uint256"
        }
      ],
      "name": "URI",
      "type": "event"
    },
    {
      "anonymous": false,
      "inputs": [
        {
          "indexed": false,
          "internalType": "address",
          "name": "account",
          "type": "address"
        }
      ],
      "name": "Unpaused",
      "type": "event"
    },
    {
      "inputs": [],
      "name": "DEFAULT_ADMIN_ROLE",
      "outputs": [
        {
          "internalType": "bytes32",
          "name": "",
          "type": "bytes32"
        }
      ],
      "stateMutability": "view",
      "type": "function"
    },
    {
      "inputs": [],
      "name": "MINTER_ROLE",
      "outputs": [
        {
          "internalType": "bytes32",
          "name": "",
          "type": "bytes32"
        }
      ],
      "stateMutability": "view",
      "type": "function"
    },
    {
      "inputs": [],
      "name": "PAUSER_ROLE",
      "outputs": [
        {
          "internalType": "bytes32",
          "name": "",
          "type": "bytes32"
        }
      ],
      "stateMutability": "view",
      "type": "function"
    },
    {
      "inputs": [],
      "name": "RELEASER_ROLE",
      "outputs": [
        {
          "internalType": "bytes32",
          "name": "",
          "type": "bytes32"
        }
      ],
      "stateMutability": "view",
      "type": "function"
    },
    {
      "inputs": [
        {
          "internalType": "address",
          "name": "account",
          "type": "address"
        },
        {
          "internalType": "uint256",
          "name": "id",
          "type": "uint256"
        }
      ],
      "name": "balanceOf",
      "outputs": [
        {
          "internalType": "uint256",
          "name": "",
          "type": "uint256"
        }
      ],
      "stateMutability": "view",
      "type": "function"
    },
    {
      "inputs": [
        {
          "internalType": "address[]",
          "name": "accounts",
          "type": "address[]"
        },
        {
          "internalType": "uint256[]",
          "name": "ids",
          "type": "uint256[]"
        }
      ],
      "name": "balanceOfBatch",
      "outputs": [
        {
          "internalType": "uint256[]",
          "name": "",
          "type": "uint256[]"
        }
      ],
      "stateMutability": "view",
      "type": "function"
    },
    {
      "inputs": [
        {
          "internalType": "address",
          "name": "account",
          "type": "address"
        },
        {
          "internalType": "uint256[]",
          "name": "ids",
          "type": "uint256[]"
        }
      ],
      "name": "balanceOfIds",
      "outputs": [
        {
          "internalType": "uint256[]",
          "name": "",
          "type": "uint256[]"
        }
      ],
      "stateMutability": "view",
      "type": "function"
    },
    {
      "inputs": [
        {
          "internalType": "uint256[]",
          "name": "removalIds",
          "type": "uint256[]"
        }
      ],
      "name": "batchGetHoldbackPercentages",
      "outputs": [
        {
          "internalType": "uint256[]",
          "name": "",
          "type": "uint256[]"
        }
      ],
      "stateMutability": "view",
      "type": "function"
    },
    {
      "inputs": [
        {
          "internalType": "uint256[]",
          "name": "removalIds",
          "type": "uint256[]"
        },
        {
          "internalType": "uint256",
          "name": "holdbackPercentage",
          "type": "uint256"
        }
      ],
      "name": "batchSetHoldbackPercentage",
      "outputs": [],
      "stateMutability": "nonpayable",
      "type": "function"
    },
    {
      "inputs": [
        {
          "internalType": "address",
          "name": "account",
          "type": "address"
        },
        {
          "internalType": "uint256",
          "name": "id",
          "type": "uint256"
        },
        {
          "internalType": "uint256",
          "name": "value",
          "type": "uint256"
        }
      ],
      "name": "burn",
      "outputs": [],
      "stateMutability": "nonpayable",
      "type": "function"
    },
    {
      "inputs": [
        {
          "internalType": "address",
          "name": "account",
          "type": "address"
        },
        {
          "internalType": "uint256[]",
          "name": "ids",
          "type": "uint256[]"
        },
        {
          "internalType": "uint256[]",
          "name": "values",
          "type": "uint256[]"
        }
      ],
      "name": "burnBatch",
      "outputs": [],
      "stateMutability": "nonpayable",
      "type": "function"
    },
    {
      "inputs": [
        {
          "internalType": "bytes",
          "name": "removalData",
          "type": "bytes"
        }
      ],
      "name": "createRemovalId",
      "outputs": [
        {
          "internalType": "uint256",
          "name": "",
          "type": "uint256"
        }
      ],
      "stateMutability": "pure",
      "type": "function"
    },
    {
      "inputs": [
        {
          "internalType": "address",
          "name": "owner",
          "type": "address"
        }
      ],
      "name": "cumulativeBalanceOf",
      "outputs": [
        {
          "internalType": "uint256",
          "name": "",
          "type": "uint256"
        }
      ],
      "stateMutability": "view",
      "type": "function"
    },
    {
      "inputs": [
        {
          "internalType": "address[]",
          "name": "accounts",
          "type": "address[]"
        }
      ],
      "name": "cumulativeBalanceOfBatch",
      "outputs": [
        {
          "internalType": "uint256[]",
          "name": "",
          "type": "uint256[]"
        }
      ],
      "stateMutability": "view",
      "type": "function"
    },
    {
      "inputs": [
        {
          "internalType": "uint256",
          "name": "id",
          "type": "uint256"
        }
      ],
      "name": "exists",
      "outputs": [
        {
          "internalType": "bool",
          "name": "",
          "type": "bool"
        }
      ],
      "stateMutability": "view",
      "type": "function"
    },
    {
      "inputs": [
        {
          "internalType": "uint256",
          "name": "removalId",
          "type": "uint256"
        }
      ],
      "name": "getProjectIdForRemoval",
      "outputs": [
        {
          "internalType": "uint256",
          "name": "",
          "type": "uint256"
        }
      ],
      "stateMutability": "view",
      "type": "function"
    },
    {
      "inputs": [
        {
          "internalType": "bytes32",
          "name": "role",
          "type": "bytes32"
        }
      ],
      "name": "getRoleAdmin",
      "outputs": [
        {
          "internalType": "bytes32",
          "name": "",
          "type": "bytes32"
        }
      ],
      "stateMutability": "view",
      "type": "function"
    },
    {
      "inputs": [
        {
          "internalType": "bytes32",
          "name": "role",
          "type": "bytes32"
        },
        {
          "internalType": "uint256",
          "name": "index",
          "type": "uint256"
        }
      ],
      "name": "getRoleMember",
      "outputs": [
        {
          "internalType": "address",
          "name": "",
          "type": "address"
        }
      ],
      "stateMutability": "view",
      "type": "function"
    },
    {
      "inputs": [
        {
          "internalType": "bytes32",
          "name": "role",
          "type": "bytes32"
        }
      ],
      "name": "getRoleMemberCount",
      "outputs": [
        {
          "internalType": "uint256",
          "name": "",
          "type": "uint256"
        }
      ],
      "stateMutability": "view",
      "type": "function"
    },
    {
      "inputs": [
        {
          "internalType": "uint256",
          "name": "projectId",
          "type": "uint256"
        }
      ],
      "name": "getScheduleDataForProjectId",
      "outputs": [
        {
          "components": [
            {
              "internalType": "uint256",
              "name": "startTime",
              "type": "uint256"
            },
            {
              "internalType": "address",
              "name": "supplierAddress",
              "type": "address"
            },
            {
              "internalType": "uint256",
              "name": "methodology",
              "type": "uint256"
            },
            {
              "internalType": "uint256",
              "name": "methodologyVersion",
              "type": "uint256"
            }
          ],
          "internalType": "struct Removal.ScheduleData",
          "name": "",
          "type": "tuple"
        }
      ],
      "stateMutability": "view",
      "type": "function"
    },
    {
      "inputs": [
        {
          "internalType": "uint256",
          "name": "removalId",
          "type": "uint256"
        }
      ],
      "name": "getScheduleDataForRemovalId",
      "outputs": [
        {
          "components": [
            {
              "internalType": "uint256",
              "name": "startTime",
              "type": "uint256"
            },
            {
              "internalType": "address",
              "name": "supplierAddress",
              "type": "address"
            },
            {
              "internalType": "uint256",
              "name": "methodology",
              "type": "uint256"
            },
            {
              "internalType": "uint256",
              "name": "methodologyVersion",
              "type": "uint256"
            }
          ],
          "internalType": "struct Removal.ScheduleData",
          "name": "",
          "type": "tuple"
        }
      ],
      "stateMutability": "view",
      "type": "function"
    },
    {
      "inputs": [
        {
          "internalType": "bytes32",
          "name": "role",
          "type": "bytes32"
        },
        {
          "internalType": "address",
          "name": "account",
          "type": "address"
        }
      ],
      "name": "grantRole",
      "outputs": [],
      "stateMutability": "nonpayable",
      "type": "function"
    },
    {
      "inputs": [
        {
          "internalType": "bytes32",
          "name": "role",
          "type": "bytes32"
        },
        {
          "internalType": "address",
          "name": "account",
          "type": "address"
        }
      ],
      "name": "hasRole",
      "outputs": [
        {
          "internalType": "bool",
          "name": "",
          "type": "bool"
        }
      ],
      "stateMutability": "view",
      "type": "function"
    },
    {
      "inputs": [],
      "name": "initialize",
      "outputs": [],
      "stateMutability": "nonpayable",
      "type": "function"
    },
    {
      "inputs": [
        {
          "internalType": "address",
          "name": "account",
          "type": "address"
        },
        {
          "internalType": "address",
          "name": "operator",
          "type": "address"
        }
      ],
      "name": "isApprovedForAll",
      "outputs": [
        {
          "internalType": "bool",
          "name": "",
          "type": "bool"
        }
      ],
      "stateMutability": "view",
      "type": "function"
    },
    {
      "inputs": [],
      "name": "marketAddress",
      "outputs": [
        {
          "internalType": "address",
          "name": "",
          "type": "address"
        }
      ],
      "stateMutability": "view",
      "type": "function"
    },
    {
      "inputs": [
        {
          "internalType": "address",
          "name": "to",
          "type": "address"
        },
        {
          "internalType": "uint256[]",
          "name": "amounts",
          "type": "uint256[]"
        },
        {
          "internalType": "uint256[]",
          "name": "ids",
          "type": "uint256[]"
        },
        {
          "components": [
            {
              "internalType": "uint256",
              "name": "projectId",
              "type": "uint256"
            },
            {
              "internalType": "uint256",
              "name": "scheduleStartTime",
              "type": "uint256"
            },
            {
              "internalType": "uint256",
              "name": "holdbackPercentage",
              "type": "uint256"
            },
            {
              "internalType": "bool",
              "name": "list",
              "type": "bool"
            }
          ],
          "internalType": "struct BatchMintRemovalsData",
          "name": "data",
          "type": "tuple"
        }
      ],
      "name": "mintBatch",
      "outputs": [],
      "stateMutability": "nonpayable",
      "type": "function"
    },
    {
      "inputs": [
        {
          "internalType": "address",
          "name": "account",
          "type": "address"
        }
      ],
      "name": "numberOfTokensOwnedByAddress",
      "outputs": [
        {
          "internalType": "uint256",
          "name": "",
          "type": "uint256"
        }
      ],
      "stateMutability": "view",
      "type": "function"
    },
    {
      "inputs": [],
      "name": "paused",
      "outputs": [
        {
          "internalType": "bool",
          "name": "",
          "type": "bool"
        }
      ],
      "stateMutability": "view",
      "type": "function"
    },
    {
      "inputs": [
        {
          "internalType": "contract RestrictedNORI",
          "name": "restrictedNoriAddress_",
          "type": "address"
        },
        {
          "internalType": "contract Market",
          "name": "marketAddress_",
          "type": "address"
        }
      ],
      "name": "registerContractAddresses",
      "outputs": [],
      "stateMutability": "nonpayable",
      "type": "function"
    },
    {
      "inputs": [
        {
          "internalType": "address",
          "name": "owner",
          "type": "address"
        },
        {
          "internalType": "uint256",
          "name": "removalId",
          "type": "uint256"
        },
        {
          "internalType": "uint256",
          "name": "amount",
          "type": "uint256"
        }
      ],
      "name": "release",
      "outputs": [],
      "stateMutability": "nonpayable",
      "type": "function"
    },
    {
      "inputs": [
        {
          "internalType": "bytes32",
          "name": "role",
          "type": "bytes32"
        },
        {
          "internalType": "address",
          "name": "account",
          "type": "address"
        }
      ],
      "name": "renounceRole",
      "outputs": [],
      "stateMutability": "nonpayable",
      "type": "function"
    },
    {
      "inputs": [],
      "name": "restrictedNoriAddress",
      "outputs": [
        {
          "internalType": "address",
          "name": "",
          "type": "address"
        }
      ],
      "stateMutability": "view",
      "type": "function"
    },
    {
      "inputs": [
        {
          "internalType": "bytes32",
          "name": "role",
          "type": "bytes32"
        },
        {
          "internalType": "address",
          "name": "account",
          "type": "address"
        }
      ],
      "name": "revokeRole",
      "outputs": [],
      "stateMutability": "nonpayable",
      "type": "function"
    },
    {
      "inputs": [
        {
          "internalType": "address",
          "name": "from",
          "type": "address"
        },
        {
          "internalType": "address",
          "name": "to",
          "type": "address"
        },
        {
          "internalType": "uint256[]",
          "name": "ids",
          "type": "uint256[]"
        },
        {
          "internalType": "uint256[]",
          "name": "amounts",
          "type": "uint256[]"
        },
        {
          "internalType": "bytes",
          "name": "",
          "type": "bytes"
        }
      ],
      "name": "safeBatchTransferFrom",
      "outputs": [],
      "stateMutability": "nonpayable",
      "type": "function"
    },
    {
      "inputs": [
        {
          "internalType": "address",
          "name": "from",
          "type": "address"
        },
        {
          "internalType": "address",
          "name": "to",
          "type": "address"
        },
        {
          "internalType": "uint256",
          "name": "id",
          "type": "uint256"
        },
        {
          "internalType": "uint256",
          "name": "amount",
          "type": "uint256"
        },
        {
          "internalType": "bytes",
          "name": "data",
          "type": "bytes"
        }
      ],
      "name": "safeTransferFrom",
      "outputs": [],
      "stateMutability": "nonpayable",
      "type": "function"
    },
    {
      "inputs": [
        {
          "internalType": "address",
          "name": "owner",
          "type": "address"
        },
        {
          "internalType": "address",
          "name": "operator",
          "type": "address"
        },
        {
          "internalType": "bool",
          "name": "approved",
          "type": "bool"
        }
      ],
      "name": "setApprovalForAll",
      "outputs": [],
      "stateMutability": "nonpayable",
      "type": "function"
    },
    {
      "inputs": [
        {
          "internalType": "address",
          "name": "operator",
          "type": "address"
        },
        {
          "internalType": "bool",
          "name": "approved",
          "type": "bool"
        }
      ],
      "name": "setApprovalForAll",
      "outputs": [],
      "stateMutability": "nonpayable",
      "type": "function"
    },
    {
      "inputs": [
        {
          "internalType": "bytes4",
          "name": "interfaceId",
          "type": "bytes4"
        }
      ],
      "name": "supportsInterface",
      "outputs": [
        {
          "internalType": "bool",
          "name": "",
          "type": "bool"
        }
      ],
      "stateMutability": "view",
      "type": "function"
    },
    {
      "inputs": [
        {
          "internalType": "address",
          "name": "owner",
          "type": "address"
        }
      ],
      "name": "tokensOfOwner",
      "outputs": [
        {
          "internalType": "uint256[]",
          "name": "",
          "type": "uint256[]"
        }
      ],
      "stateMutability": "view",
      "type": "function"
    },
    {
      "inputs": [
        {
          "internalType": "uint256",
          "name": "id",
          "type": "uint256"
        }
      ],
      "name": "totalSupply",
      "outputs": [
        {
          "internalType": "uint256",
          "name": "",
          "type": "uint256"
        }
      ],
      "stateMutability": "view",
      "type": "function"
    },
    {
      "inputs": [
        {
          "internalType": "uint256",
          "name": "removalId",
          "type": "uint256"
        }
      ],
      "name": "unpackRemovalIdV0",
      "outputs": [
        {
          "components": [
            {
              "internalType": "uint8",
              "name": "idVersion",
              "type": "uint8"
            },
            {
              "internalType": "uint8",
              "name": "methodology",
              "type": "uint8"
            },
            {
              "internalType": "uint8",
              "name": "methodologyVersion",
              "type": "uint8"
            },
            {
              "internalType": "uint16",
              "name": "vintage",
              "type": "uint16"
            },
            {
              "internalType": "bytes2",
              "name": "country",
              "type": "bytes2"
            },
            {
              "internalType": "bytes2",
              "name": "subdivision",
              "type": "bytes2"
            },
            {
              "internalType": "address",
              "name": "supplierAddress",
              "type": "address"
            },
            {
              "internalType": "uint32",
              "name": "subIdentifier",
              "type": "uint32"
            }
          ],
          "internalType": "struct UnpackedRemovalIdV0",
          "name": "",
          "type": "tuple"
        }
      ],
      "stateMutability": "pure",
      "type": "function"
    },
    {
      "inputs": [
        {
          "internalType": "uint256",
          "name": "",
          "type": "uint256"
        }
      ],
      "name": "uri",
      "outputs": [
        {
          "internalType": "string",
          "name": "",
          "type": "string"
        }
      ],
      "stateMutability": "view",
      "type": "function"
    }
  ],
  "bytecode": "0x60806040523480156200001157600080fd5b506200001c62000022565b620000e4565b600054610100900460ff16156200008f5760405162461bcd60e51b815260206004820152602760248201527f496e697469616c697a61626c653a20636f6e747261637420697320696e697469604482015266616c697a696e6760c81b606482015260840160405180910390fd5b60005460ff9081161015620000e2576000805460ff191660ff9081179091556040519081527f7f26b83ff96e1f2b6a682f133852f6798a09c465da95921460cefb38474024989060200160405180910390a15b565b61561d80620000f46000396000f3fe608060405234801561001057600080fd5b50600436106102e85760003560e01c806391d1485411610191578063c1b8ecdd116100e3578063e0fc293811610097578063f242432a11610071578063f242432a14610778578063f297be661461078b578063f5298aca1461079e57600080fd5b8063e0fc2938146106e7578063e63ab1e914610708578063e985e9c51461072f57600080fd5b8063d5391393116100c8578063d53913931461068d578063d547741f146106b4578063d85a53e9146106c757600080fd5b8063c1b8ecdd14610667578063ca15c8731461067a57600080fd5b8063a22cb46511610145578063ac28af241161011f578063ac28af241461060c578063b6477cc014610633578063bd85b0391461064657600080fd5b8063a22cb465146105d3578063a42f3061146105e6578063a53ba527146105f957600080fd5b80639562364111610176578063956236411461059957806399d5121b146105b8578063a217fddf146105cb57600080fd5b806391d148541461053f57806393ae796d1461058657600080fd5b806348ec4c3b1161024a578063789e8cdf116101fe5780638462151c116101d85780638462151c14610506578063854560a4146105195780639010d07c1461052c57600080fd5b8063789e8cdf146104ab5780637f7081fa146104be5780638129fc1c146104fe57600080fd5b80634f558e791161022f5780634f558e791461046a5780635c975abb1461048d5780636b20c4541461049857600080fd5b806348ec4c3b146104445780634e1273f41461045757600080fd5b8063248a9ca3116102a15780632f2ff15d116102865780632f2ff15d1461040b57806336568abe1461041e578063367605ca1461043157600080fd5b8063248a9ca3146103d25780632eb2c2d6146103f657600080fd5b806301ffc9a7116102d257806301ffc9a7146103335780630e89341c146103565780631990ad051461037657600080fd5b8062fdd58e146102ed578063018e1c8314610313575b600080fd5b6103006102fb3660046143a8565b6107b1565b6040519081526020015b60405180910390f35b6103266103213660046144fe565b610893565b60405161030a9190614589565b6103466103413660046145ca565b610941565b604051901515815260200161030a565b6103696103643660046145e7565b61094c565b60405161030a9190614676565b6103896103843660046145e7565b6109e0565b60405161030a91908151815260208083015173ffffffffffffffffffffffffffffffffffffffff1690820152604080830151908201526060918201519181019190915260800190565b6103006103e03660046145e7565b600090815261015f602052604090206001015490565b61040961040436600461471b565b610a88565b005b6104096104193660046147c9565b610b83565b61040961042c3660046147c9565b610bae565b61040961043f366004614809565b610c61565b610300610452366004614850565b610c6c565b610326610465366004614931565b610c7f565b6103466104783660046145e7565b600090815261012d6020526040902054151590565b60975460ff16610346565b6104096104a636600461498b565b610dc2565b6103006104b9366004614a01565b610e82565b6101c35473ffffffffffffffffffffffffffffffffffffffff165b60405173ffffffffffffffffffffffffffffffffffffffff909116815260200161030a565b610409610eb1565b610326610514366004614a01565b61110d565b610300610527366004614a01565b61113f565b6104d961053a366004614a1e565b61126b565b61034661054d3660046147c9565b600091825261015f6020908152604080842073ffffffffffffffffffffffffffffffffffffffff93909316845291905290205460ff1690565b610409610594366004614a40565b611284565b6101c45473ffffffffffffffffffffffffffffffffffffffff166104d9565b6103896105c63660046145e7565b6112e5565b610300600081565b6104096105e1366004614a6e565b611382565b6104096105f4366004614aa3565b61138d565b610409610607366004614b88565b61164f565b6103007f88f3509f0e42391f2d94ebfb2a37cbd0782b1b8f73715330017f4663290b811781565b610326610641366004614c03565b6116a5565b6103006106543660046145e7565b600090815261012d602052604090205490565b610326610675366004614c40565b611760565b6103006106883660046145e7565b611806565b6103007f9f2df0fed2c77648de5860a4cc508cd0818c85b8b8a1ab4ceeef8d981c8956a681565b6104096106c23660046147c9565b61181e565b6106da6106d53660046145e7565b611844565b60405161030a9190614c75565b6103006106f53660046145e7565b60009081526101c5602052604090205490565b6103007f65d7a28e3265b37a6474929f336521b332c1681b933f6cb9f3376673440d862a81565b61034661073d366004614a40565b73ffffffffffffffffffffffffffffffffffffffff918216600090815260666020908152604080832093909416825291909152205460ff1690565b610409610786366004614d4c565b61188e565b610409610799366004614db5565b611957565b6104096107ac366004614db5565b611a3d565b600073ffffffffffffffffffffffffffffffffffffffff831661085b576040517f08c379a000000000000000000000000000000000000000000000000000000000815260206004820152602a60248201527f455243313135353a2061646472657373207a65726f206973206e6f742061207660448201527f616c6964206f776e65720000000000000000000000000000000000000000000060648201526084015b60405180910390fd5b50600081815260656020908152604080832073ffffffffffffffffffffffffffffffffffffffff861684529091529020545b92915050565b60606000825167ffffffffffffffff8111156108b1576108b16143d4565b6040519080825280602002602001820160405280156108da578160200160208202803683370190505b50905060005b83518110156109395761090c858583815181106108ff576108ff614dea565b60200260200101516107b1565b82828151811061091e5761091e614dea565b602090810291909101015261093281614e48565b90506108e0565b509392505050565b600061088d82611afd565b60606067805461095b90614e80565b80601f016020809104026020016040519081016040528092919081815260200182805461098790614e80565b80156109d45780601f106109a9576101008083540402835291602001916109d4565b820191906000526020600020905b8154815290600101906020018083116109b757829003601f168201915b50505050509050919050565b610a21604051806080016040528060008152602001600073ffffffffffffffffffffffffffffffffffffffff16815260200160008152602001600081525090565b5060009081526101c5602090815260408083205483526101c6825291829020825160808101845281548152600182015473ffffffffffffffffffffffffffffffffffffffff1692810192909252600281015492820192909252600390910154606082015290565b60005b8251811015610b1657828181518110610aa657610aa6614dea565b6020026020010151600003610b0457838181518110610ac757610ac7614dea565b60200260200101516040517f863bda4f00000000000000000000000000000000000000000000000000000000815260040161085291815260200190565b80610b0e81614e48565b915050610a8b565b5060006101c5600085600081518110610b3157610b31614dea565b6020026020010151815260200190815260200160002060000154604051602001610b5d91815260200190565b6040516020818303038152906040529050610b7b8686868685611b53565b505050505050565b600082815261015f6020526040902060010154610b9f81611c15565b610ba98383611c1f565b505050565b73ffffffffffffffffffffffffffffffffffffffff81163314610c53576040517f08c379a000000000000000000000000000000000000000000000000000000000815260206004820152602f60248201527f416363657373436f6e74726f6c3a2063616e206f6e6c792072656e6f756e636560448201527f20726f6c657320666f722073656c6600000000000000000000000000000000006064820152608401610852565b610c5d8282611c42565b5050565b610ba9838383611c65565b6000610c788383611db8565b9392505050565b60608151835114610d12576040517f08c379a000000000000000000000000000000000000000000000000000000000815260206004820152602960248201527f455243313135353a206163636f756e747320616e6420696473206c656e67746860448201527f206d69736d6174636800000000000000000000000000000000000000000000006064820152608401610852565b6000835167ffffffffffffffff811115610d2e57610d2e6143d4565b604051908082528060200260200182016040528015610d57578160200160208202803683370190505b50905060005b845181101561093957610d95858281518110610d7b57610d7b614dea565b60200260200101518583815181106108ff576108ff614dea565b828281518110610da757610da7614dea565b6020908102919091010152610dbb81614e48565b9050610d5d565b73ffffffffffffffffffffffffffffffffffffffff8316331480610deb5750610deb833361073d565b610e77576040517f08c379a000000000000000000000000000000000000000000000000000000000815260206004820152602f60248201527f455243313135353a2063616c6c6572206973206e6f7420746f6b656e206f776e60448201527f6572206e6f7220617070726f76656400000000000000000000000000000000006064820152608401610852565b610ba98383836121a1565b73ffffffffffffffffffffffffffffffffffffffff811660009081526101c76020526040812061088d906124dd565b600054610100900460ff1615808015610ed15750600054600160ff909116105b80610eeb5750303b158015610eeb575060005460ff166001145b610f77576040517f08c379a000000000000000000000000000000000000000000000000000000000815260206004820152602e60248201527f496e697469616c697a61626c653a20636f6e747261637420697320616c72656160448201527f647920696e697469616c697a65640000000000000000000000000000000000006064820152608401610852565b600080547fffffffffffffffffffffffffffffffffffffffffffffffffffffffffffffff001660011790558015610fd557600080547fffffffffffffffffffffffffffffffffffffffffffffffffffffffffffff00ff166101001790555b610ff66040518060600160405280602681526020016155c2602691396124e7565b610ffe612587565b611006612648565b61100e612648565b611016612648565b61101e612648565b611029600033611c1f565b6110537f65d7a28e3265b37a6474929f336521b332c1681b933f6cb9f3376673440d862a33611c1f565b61107d7f9f2df0fed2c77648de5860a4cc508cd0818c85b8b8a1ab4ceeef8d981c8956a633611c1f565b6110a77f88f3509f0e42391f2d94ebfb2a37cbd0782b1b8f73715330017f4663290b811733611c1f565b801561110a57600080547fffffffffffffffffffffffffffffffffffffffffffffffffffffffffffff00ff169055604051600181527f7f26b83ff96e1f2b6a682f133852f6798a09c465da95921460cefb38474024989060200160405180910390a15b50565b73ffffffffffffffffffffffffffffffffffffffff811660009081526101c76020526040902060609061088d906126e1565b73ffffffffffffffffffffffffffffffffffffffff811660009081526101c7602052604081208161116f826124dd565b905060008167ffffffffffffffff81111561118c5761118c6143d4565b6040519080825280602002602001820160405280156111b5578160200160208202803683370190505b50905060005b8281101561120b57858282815181106111d6576111d6614dea565b73ffffffffffffffffffffffffffffffffffffffff9092166020928302919091019091015261120481614e48565b90506111bb565b50600061121b82610465866126e1565b90506000805b848110156112605782818151811061123b5761123b614dea565b60200260200101518261124e9190614ed3565b915061125981614e48565b9050611221565b509695505050505050565b600082815261019160205260408120610c7890836126ee565b600061128f81611c15565b506101c3805473ffffffffffffffffffffffffffffffffffffffff9384167fffffffffffffffffffffffff0000000000000000000000000000000000000000918216179091556101c48054929093169116179055565b611326604051806080016040528060008152602001600073ffffffffffffffffffffffffffffffffffffffff16815260200160008152602001600081525090565b5060009081526101c66020908152604091829020825160808101845281548152600182015473ffffffffffffffffffffffffffffffffffffffff1692810192909252600281015492820192909252600390910154606082015290565b610c5d338383611c65565b81518351811461142f57604080517f616c41130000000000000000000000000000000000000000000000000000000081526004810191909152600760448201527f616d6f756e747300000000000000000000000000000000000000000000000000606482015260806024820152600360848201527f696473000000000000000000000000000000000000000000000000000000000060a482015260c401610852565b8151604083015160005b838110156114d657600086828151811061145557611455614dea565b60200260200101519050611474816101c86126fa90919063ffffffff16565b156114ae576040517f4acb9c2900000000000000000000000000000000000000000000000000000000815260048101829052602401610852565b60009081526101c5602052604090208381556001018290556114cf81614e48565b9050611439565b506000856000815181106114ec576114ec614dea565b6020026020010151905060405180608001604052808660200151815260200161151483612712565b73ffffffffffffffffffffffffffffffffffffffff16815260200161153883612721565b60ff1681526020016115498361273a565b60ff16905260008481526101c66020908152604080832084518155848301516001820180547fffffffffffffffffffffffff00000000000000000000000000000000000000001673ffffffffffffffffffffffffffffffffffffffff909216919091179055848201516002820155606094850151600390910155805189518184015291890151828201528801518184015291870151151560808301529060a001604051602081830303815290604052905061160689888a84612752565b61161289336001610c61565b856060015115611644576101c454611644908a9073ffffffffffffffffffffffffffffffffffffffff16898b85610a88565b505050505050505050565b60005b8281101561169f57600084848381811061166e5761166e614dea565b6020908102929092013560009081526101c590925250604090206001018390555061169881614e48565b9050611652565b50505050565b805160609060008167ffffffffffffffff8111156116c5576116c56143d4565b6040519080825280602002602001820160405280156116ee578160200160208202803683370190505b50905060005b8281101561093957600085828151811061171057611710614dea565b602002602001015190506101c560008281526020019081526020016000206001015483838151811061174457611744614dea565b60209081029190910101525061175981614e48565b90506116f4565b805160609060008167ffffffffffffffff811115611780576117806143d4565b6040519080825280602002602001820160405280156117a9578160200160208202803683370190505b50905060005b82811015610939576117d98582815181106117cc576117cc614dea565b602002602001015161113f565b8282815181106117eb576117eb614dea565b60209081029190910101526117ff81614e48565b90506117af565b60008181526101916020526040812061088d906124dd565b600082815261015f602052604090206001015461183a81611c15565b610ba98383611c42565b6040805161010081018252600080825260208201819052918101829052606081018290526080810182905260a0810182905260c0810182905260e081019190915261088d826129db565b73ffffffffffffffffffffffffffffffffffffffff85163314806118b757506118b7853361073d565b611943576040517f08c379a000000000000000000000000000000000000000000000000000000000815260206004820152602f60248201527f455243313135353a2063616c6c6572206973206e6f7420746f6b656e206f776e60448201527f6572206e6f7220617070726f76656400000000000000000000000000000000006064820152608401610852565b6119508585858585612b08565b5050505050565b7f88f3509f0e42391f2d94ebfb2a37cbd0782b1b8f73715330017f4663290b811761198181611c15565b61198c848484611a3d565b6101c45473ffffffffffffffffffffffffffffffffffffffff9081169085160361169f576040517f366a4120000000000000000000000000000000000000000000000000000000008152600481018490526024810183905273ffffffffffffffffffffffffffffffffffffffff85169063366a412090604401600060405180830381600087803b158015611a1f57600080fd5b505af1158015611a33573d6000803e3d6000fd5b5050505050505050565b73ffffffffffffffffffffffffffffffffffffffff8316331480611a665750611a66833361073d565b611af2576040517f08c379a000000000000000000000000000000000000000000000000000000000815260206004820152602f60248201527f455243313135353a2063616c6c6572206973206e6f7420746f6b656e206f776e60448201527f6572206e6f7220617070726f76656400000000000000000000000000000000006064820152608401610852565b610ba9838383612d4d565b60007fffffffff0000000000000000000000000000000000000000000000000000000082167f5a05180f00000000000000000000000000000000000000000000000000000000148061088d575061088d82612f74565b73ffffffffffffffffffffffffffffffffffffffff8516331480611b7c5750611b7c853361073d565b611c08576040517f08c379a000000000000000000000000000000000000000000000000000000000815260206004820152602f60248201527f455243313135353a2063616c6c6572206973206e6f7420746f6b656e206f776e60448201527f6572206e6f7220617070726f76656400000000000000000000000000000000006064820152608401610852565b6119508585858585612fca565b61110a813361330d565b611c2982826133e0565b600082815261019160205260409020610ba990826134d6565b611c4c82826134f8565b600082815261019160205260409020610ba990826135b5565b8173ffffffffffffffffffffffffffffffffffffffff168373ffffffffffffffffffffffffffffffffffffffff1603611d20576040517f08c379a000000000000000000000000000000000000000000000000000000000815260206004820152602960248201527f455243313135353a2073657474696e6720617070726f76616c2073746174757360448201527f20666f722073656c6600000000000000000000000000000000000000000000006064820152608401610852565b73ffffffffffffffffffffffffffffffffffffffff83811660008181526066602090815260408083209487168084529482529182902080547fffffffffffffffffffffffffffffffffffffffffffffffffffffffffffffff001686151590811790915591519182527f17307eab39ab6107e8899845ad3d59bd9653f200f220920489ca2b5937696c31910160405180910390a3505050565b600080611dc783850185614efc565b60ff1690508015611e59576040517f08c379a0000000000000000000000000000000000000000000000000000000008152602060048201526024808201527f556e737570706f727465642072656d6f76616c20746f6b656e2069642076657260448201527f73696f6e000000000000000000000000000000000000000000000000000000006064820152608401610852565b6101008314611eea576040517f08c379a000000000000000000000000000000000000000000000000000000000815260206004820152602a60248201527f72656d6f76616c4461746120636f6e7461696e732077726f6e67206e756d626560448201527f72206f66206279746573000000000000000000000000000000000000000000006064820152608401610852565b6000611ef884860186614f6d565b9050600f816020015160ff161115611f6c576040517f08c379a000000000000000000000000000000000000000000000000000000000815260206004820152601560248201527f4d6574686f6c6f646f677920746f6f206c6172676500000000000000000000006044820152606401610852565b600f816040015160ff161115611fde576040517f08c379a000000000000000000000000000000000000000000000000000000000815260206004820152601d60248201527f4d6574686f6c6f646f67792076657273696f6e20746f6f206c617267650000006044820152606401610852565b608081015160a082015160f882811c9260ff60f091821c8116939283901c9290911c16604184108015906120135750605a8411155b8015612020575060418310155b801561202d5750605a8311155b801561203a575060418210155b80156120475750605a8211155b8015612054575060418110155b80156120615750605a8111155b6120c7576040517f08c379a000000000000000000000000000000000000000000000000000000000815260206004820152600d60248201527f496e76616c6964204153434949000000000000000000000000000000000000006044820152606401610852565b600085604001516004876020015160ff16901b1760ff169050600860006120ee9190615032565b60e087015163ffffffff16901b61210760086004615032565b60c088015173ffffffffffffffffffffffffffffffffffffffff16901b61213060086018615032565b60a089015160f01c901b6121466008601a615032565b60808a015160f01c901b61215c6008601c615032565b60608b015161ffff16901b6121736008601e615032565b86901b6121826008601f615032565b8c6000015160ff16901b17171717171797505050505050505092915050565b73ffffffffffffffffffffffffffffffffffffffff8316612244576040517f08c379a000000000000000000000000000000000000000000000000000000000815260206004820152602360248201527f455243313135353a206275726e2066726f6d20746865207a65726f206164647260448201527f65737300000000000000000000000000000000000000000000000000000000006064820152608401610852565b80518251146122d5576040517f08c379a000000000000000000000000000000000000000000000000000000000815260206004820152602860248201527f455243313135353a2069647320616e6420616d6f756e7473206c656e6774682060448201527f6d69736d617463680000000000000000000000000000000000000000000000006064820152608401610852565b60003390506122f8818560008686604051806020016040528060008152506135d7565b60005b835181101561244957600084828151811061231857612318614dea565b60200260200101519050600084838151811061233657612336614dea565b602090810291909101810151600084815260658352604080822073ffffffffffffffffffffffffffffffffffffffff8c168352909352919091205490915081811015612403576040517f08c379a0000000000000000000000000000000000000000000000000000000008152602060048201526024808201527f455243313135353a206275726e20616d6f756e7420657863656564732062616c60448201527f616e6365000000000000000000000000000000000000000000000000000000006064820152608401610852565b600092835260656020908152604080852073ffffffffffffffffffffffffffffffffffffffff8b168652909152909220910390558061244181614e48565b9150506122fb565b50600073ffffffffffffffffffffffffffffffffffffffff168473ffffffffffffffffffffffffffffffffffffffff168273ffffffffffffffffffffffffffffffffffffffff167f4a39dc06d4c0dbc64b70af90fd698a233a518aa5d07e595d983b8c0526c8f7fb86866040516124c192919061506f565b60405180910390a460408051602081019091526000905261169f565b600061088d825490565b600054610100900460ff1661257e576040517f08c379a000000000000000000000000000000000000000000000000000000000815260206004820152602b60248201527f496e697469616c697a61626c653a20636f6e7472616374206973206e6f74206960448201527f6e697469616c697a696e670000000000000000000000000000000000000000006064820152608401610852565b61110a816136d6565b600054610100900460ff1661261e576040517f08c379a000000000000000000000000000000000000000000000000000000000815260206004820152602b60248201527f496e697469616c697a61626c653a20636f6e7472616374206973206e6f74206960448201527f6e697469616c697a696e670000000000000000000000000000000000000000006064820152608401610852565b609780547fffffffffffffffffffffffffffffffffffffffffffffffffffffffffffffff00169055565b600054610100900460ff166126df576040517f08c379a000000000000000000000000000000000000000000000000000000000815260206004820152602b60248201527f496e697469616c697a61626c653a20636f6e7472616374206973206e6f74206960448201527f6e697469616c697a696e670000000000000000000000000000000000000000006064820152608401610852565b565b60606000610c78836136e2565b6000610c78838361373d565b60008181526001830160205260408120541515610c78565b600061088d8260146004613767565b60006004612732836001601e613767565b901c92915050565b6000612749826001601e613767565b600f1692915050565b73ffffffffffffffffffffffffffffffffffffffff84166127f5576040517f08c379a000000000000000000000000000000000000000000000000000000000815260206004820152602160248201527f455243313135353a206d696e7420746f20746865207a65726f2061646472657360448201527f73000000000000000000000000000000000000000000000000000000000000006064820152608401610852565b8151835114612886576040517f08c379a000000000000000000000000000000000000000000000000000000000815260206004820152602860248201527f455243313135353a2069647320616e6420616d6f756e7473206c656e6774682060448201527f6d69736d617463680000000000000000000000000000000000000000000000006064820152608401610852565b33612896816000878787876135d7565b60005b845181101561294c578381815181106128b4576128b4614dea565b6020026020010151606560008784815181106128d2576128d2614dea565b6020026020010151815260200190815260200160002060008873ffffffffffffffffffffffffffffffffffffffff1673ffffffffffffffffffffffffffffffffffffffff16815260200190815260200160002060008282546129349190614ed3565b9091555081905061294481614e48565b915050612899565b508473ffffffffffffffffffffffffffffffffffffffff16600073ffffffffffffffffffffffffffffffffffffffff168273ffffffffffffffffffffffffffffffffffffffff167f4a39dc06d4c0dbc64b70af90fd698a233a518aa5d07e595d983b8c0526c8f7fb87876040516129c492919061506f565b60405180910390a4611950816000878787876137b3565b6040805161010081018252600080825260208201819052918101829052606081018290526080810182905260a0810182905260c0810182905260e0810191909152604051806101000160405280612a3184613a3d565b60ff168152602001612a4284612721565b60ff168152602001612a538461273a565b60ff168152602001612a6484613a4c565b61ffff168152602001612a7684613a5b565b7fffff000000000000000000000000000000000000000000000000000000000000168152602001612aa684613a73565b7fffff000000000000000000000000000000000000000000000000000000000000168152602001612ad684612712565b73ffffffffffffffffffffffffffffffffffffffff168152602001612afa84613a82565b63ffffffff16905292915050565b73ffffffffffffffffffffffffffffffffffffffff8416612bab576040517f08c379a000000000000000000000000000000000000000000000000000000000815260206004820152602560248201527f455243313135353a207472616e7366657220746f20746865207a65726f20616460448201527f64726573730000000000000000000000000000000000000000000000000000006064820152608401610852565b336000612bb785613a91565b90506000612bc485613a91565b9050612bd48389898585896135d7565b600086815260656020908152604080832073ffffffffffffffffffffffffffffffffffffffff8c16845290915290205485811015612c94576040517f08c379a000000000000000000000000000000000000000000000000000000000815260206004820152602a60248201527f455243313135353a20696e73756666696369656e742062616c616e636520666f60448201527f72207472616e73666572000000000000000000000000000000000000000000006064820152608401610852565b600087815260656020908152604080832073ffffffffffffffffffffffffffffffffffffffff8d8116855292528083208985039055908a16825281208054889290612ce0908490614ed3565b9091555050604080518881526020810188905273ffffffffffffffffffffffffffffffffffffffff808b16928c821692918816917fc3d58168c5ae7397731d063d5bbf3d657854427343f4c083240f7aacaa2d0f62910160405180910390a4611644848a8a8a8a8a613adc565b73ffffffffffffffffffffffffffffffffffffffff8316612df0576040517f08c379a000000000000000000000000000000000000000000000000000000000815260206004820152602360248201527f455243313135353a206275726e2066726f6d20746865207a65726f206164647260448201527f65737300000000000000000000000000000000000000000000000000000000006064820152608401610852565b336000612dfc84613a91565b90506000612e0984613a91565b9050612e29838760008585604051806020016040528060008152506135d7565b600085815260656020908152604080832073ffffffffffffffffffffffffffffffffffffffff8a16845290915290205484811015612ee8576040517f08c379a0000000000000000000000000000000000000000000000000000000008152602060048201526024808201527f455243313135353a206275726e20616d6f756e7420657863656564732062616c60448201527f616e6365000000000000000000000000000000000000000000000000000000006064820152608401610852565b600086815260656020908152604080832073ffffffffffffffffffffffffffffffffffffffff8b81168086529184528285208a8703905582518b81529384018a90529092908816917fc3d58168c5ae7397731d063d5bbf3d657854427343f4c083240f7aacaa2d0f62910160405180910390a46040805160208101909152600090525b50505050505050565b60007fffffffff0000000000000000000000000000000000000000000000000000000082167f7965db0b00000000000000000000000000000000000000000000000000000000148061088d575061088d82613c89565b815183511461305b576040517f08c379a000000000000000000000000000000000000000000000000000000000815260206004820152602860248201527f455243313135353a2069647320616e6420616d6f756e7473206c656e6774682060448201527f6d69736d617463680000000000000000000000000000000000000000000000006064820152608401610852565b73ffffffffffffffffffffffffffffffffffffffff84166130fe576040517f08c379a000000000000000000000000000000000000000000000000000000000815260206004820152602560248201527f455243313135353a207472616e7366657220746f20746865207a65726f20616460448201527f64726573730000000000000000000000000000000000000000000000000000006064820152608401610852565b3361310d8187878787876135d7565b60005b845181101561328057600085828151811061312d5761312d614dea565b60200260200101519050600085838151811061314b5761314b614dea565b602090810291909101810151600084815260658352604080822073ffffffffffffffffffffffffffffffffffffffff8e168352909352919091205490915081811015613219576040517f08c379a000000000000000000000000000000000000000000000000000000000815260206004820152602a60248201527f455243313135353a20696e73756666696369656e742062616c616e636520666f60448201527f72207472616e73666572000000000000000000000000000000000000000000006064820152608401610852565b600083815260656020908152604080832073ffffffffffffffffffffffffffffffffffffffff8e8116855292528083208585039055908b16825281208054849290613265908490614ed3565b925050819055505050508061327990614e48565b9050613110565b508473ffffffffffffffffffffffffffffffffffffffff168673ffffffffffffffffffffffffffffffffffffffff168273ffffffffffffffffffffffffffffffffffffffff167f4a39dc06d4c0dbc64b70af90fd698a233a518aa5d07e595d983b8c0526c8f7fb87876040516132f792919061506f565b60405180910390a4610b7b8187878787876137b3565b600082815261015f6020908152604080832073ffffffffffffffffffffffffffffffffffffffff8516845290915290205460ff16610c5d576133668173ffffffffffffffffffffffffffffffffffffffff166014613d6c565b613371836020613d6c565b60405160200161338292919061509d565b604080517fffffffffffffffffffffffffffffffffffffffffffffffffffffffffffffffe0818403018152908290527f08c379a000000000000000000000000000000000000000000000000000000000825261085291600401614676565b600082815261015f6020908152604080832073ffffffffffffffffffffffffffffffffffffffff8516845290915290205460ff16610c5d57600082815261015f6020908152604080832073ffffffffffffffffffffffffffffffffffffffff85168452909152902080547fffffffffffffffffffffffffffffffffffffffffffffffffffffffffffffff001660011790556134783390565b73ffffffffffffffffffffffffffffffffffffffff168173ffffffffffffffffffffffffffffffffffffffff16837f2f8788117e7eff1d82e926ec794901d17c78024a50270940304540a733656f0d60405160405180910390a45050565b6000610c788373ffffffffffffffffffffffffffffffffffffffff8416613faf565b600082815261015f6020908152604080832073ffffffffffffffffffffffffffffffffffffffff8516845290915290205460ff1615610c5d57600082815261015f6020908152604080832073ffffffffffffffffffffffffffffffffffffffff8516808552925280832080547fffffffffffffffffffffffffffffffffffffffffffffffffffffffffffffff0016905551339285917ff6391f5c32d9c69d2a47ea670b442974b53935d1edc7fd64eb21e047a839171b9190a45050565b6000610c788373ffffffffffffffffffffffffffffffffffffffff8416613ffe565b815160005b818110156136c75760008582815181106135f8576135f8614dea565b60200260200101519050600073ffffffffffffffffffffffffffffffffffffffff168873ffffffffffffffffffffffffffffffffffffffff16146136685773ffffffffffffffffffffffffffffffffffffffff881660009081526101c76020526040902061366690826140f8565b505b73ffffffffffffffffffffffffffffffffffffffff8716156136b65773ffffffffffffffffffffffffffffffffffffffff871660009081526101c7602052604090206136b49082614104565b505b506136c081614e48565b90506135dc565b50612f6b878787878787614110565b6067610c5d8282615164565b6060816000018054806020026020016040519081016040528092919081815260200182805480156109d457602002820191906000526020600020905b81548152602001906001019080831161371e5750505050509050919050565b600082600001828154811061375457613754614dea565b9060005260206000200154905092915050565b600080613775600884615032565b6001613782600887615032565b61378d90600261539e565b61379791906153aa565b901b90508481166137a9600885615032565b1c95945050505050565b73ffffffffffffffffffffffffffffffffffffffff84163b15610b7b576040517fbc197c8100000000000000000000000000000000000000000000000000000000815273ffffffffffffffffffffffffffffffffffffffff85169063bc197c819061382a90899089908890889088906004016153c1565b6020604051808303816000875af1925050508015613883575060408051601f3d9081017fffffffffffffffffffffffffffffffffffffffffffffffffffffffffffffffe01682019092526138809181019061542c565b60015b61396c5761388f615449565b806308c379a0036138e257506138a3615465565b806138ae57506138e4565b806040517f08c379a00000000000000000000000000000000000000000000000000000000081526004016108529190614676565b505b6040517f08c379a000000000000000000000000000000000000000000000000000000000815260206004820152603460248201527f455243313135353a207472616e7366657220746f206e6f6e204552433131353560448201527f526563656976657220696d706c656d656e7465720000000000000000000000006064820152608401610852565b7fffffffff0000000000000000000000000000000000000000000000000000000081167fbc197c810000000000000000000000000000000000000000000000000000000014612f6b576040517f08c379a000000000000000000000000000000000000000000000000000000000815260206004820152602860248201527f455243313135353a204552433131353552656365697665722072656a6563746560448201527f6420746f6b656e730000000000000000000000000000000000000000000000006064820152608401610852565b600061088d826001601f613767565b600061088d826002601c613767565b6000613a6a826002601a613767565b60f01b92915050565b6000613a6a8260026018613767565b600061088d8260046000613767565b60408051600180825281830190925260609160009190602080830190803683370190505090508281600081518110613acb57613acb614dea565b602090810291909101015292915050565b73ffffffffffffffffffffffffffffffffffffffff84163b15610b7b576040517ff23a6e6100000000000000000000000000000000000000000000000000000000815273ffffffffffffffffffffffffffffffffffffffff85169063f23a6e6190613b53908990899088908890889060040161550d565b6020604051808303816000875af1925050508015613bac575060408051601f3d9081017fffffffffffffffffffffffffffffffffffffffffffffffffffffffffffffffe0168201909252613ba99181019061542c565b60015b613bb85761388f615449565b7fffffffff0000000000000000000000000000000000000000000000000000000081167ff23a6e610000000000000000000000000000000000000000000000000000000014612f6b576040517f08c379a000000000000000000000000000000000000000000000000000000000815260206004820152602860248201527f455243313135353a204552433131353552656365697665722072656a6563746560448201527f6420746f6b656e730000000000000000000000000000000000000000000000006064820152608401610852565b60007fffffffff0000000000000000000000000000000000000000000000000000000082167fd9b67a26000000000000000000000000000000000000000000000000000000001480613d1c57507fffffffff0000000000000000000000000000000000000000000000000000000082167f0e89341c00000000000000000000000000000000000000000000000000000000145b8061088d57507f01ffc9a7000000000000000000000000000000000000000000000000000000007fffffffff0000000000000000000000000000000000000000000000000000000083161461088d565b60606000613d7b836002615032565b613d86906002614ed3565b67ffffffffffffffff811115613d9e57613d9e6143d4565b6040519080825280601f01601f191660200182016040528015613dc8576020820181803683370190505b5090507f300000000000000000000000000000000000000000000000000000000000000081600081518110613dff57613dff614dea565b60200101907effffffffffffffffffffffffffffffffffffffffffffffffffffffffffffff1916908160001a9053507f780000000000000000000000000000000000000000000000000000000000000081600181518110613e6257613e62614dea565b60200101907effffffffffffffffffffffffffffffffffffffffffffffffffffffffffffff1916908160001a9053506000613e9e846002615032565b613ea9906001614ed3565b90505b6001811115613f46577f303132333435363738396162636465660000000000000000000000000000000085600f1660108110613eea57613eea614dea565b1a60f81b828281518110613f0057613f00614dea565b60200101907effffffffffffffffffffffffffffffffffffffffffffffffffffffffffffff1916908160001a90535060049490941c93613f3f8161555d565b9050613eac565b508315610c78576040517f08c379a000000000000000000000000000000000000000000000000000000000815260206004820181905260248201527f537472696e67733a20686578206c656e67746820696e73756666696369656e746044820152606401610852565b6000818152600183016020526040812054613ff65750815460018181018455600084815260208082209093018490558454848252828601909352604090209190915561088d565b50600061088d565b600081815260018301602052604081205480156140e75760006140226001836153aa565b8554909150600090614036906001906153aa565b905081811461409b57600086600001828154811061405657614056614dea565b906000526020600020015490508087600001848154811061407957614079614dea565b6000918252602080832090910192909255918252600188019052604090208390555b85548690806140ac576140ac615592565b60019003818190600052602060002001600090559055856001016000868152602001908152602001600020600090556001935050505061088d565b600091505061088d565b5092915050565b6000610c788383613ffe565b6000610c788383613faf565b61411e8686868686866142e3565b73ffffffffffffffffffffffffffffffffffffffff85166141b35760005b83518110156141b15782818151811061415757614157614dea565b602002602001015161012d600086848151811061417657614176614dea565b60200260200101518152602001908152602001600020600082825461419b9190614ed3565b909155506141aa905081614e48565b905061413c565b505b73ffffffffffffffffffffffffffffffffffffffff8416610b7b5760005b8351811015612f6b5760008482815181106141ee576141ee614dea565b60200260200101519050600084838151811061420c5761420c614dea565b60200260200101519050600061012d6000848152602001908152602001600020549050818110156142bf576040517f08c379a000000000000000000000000000000000000000000000000000000000815260206004820152602860248201527f455243313135353a206275726e20616d6f756e74206578636565647320746f7460448201527f616c537570706c790000000000000000000000000000000000000000000000006064820152608401610852565b600092835261012d6020526040909220910390556142dc81614e48565b90506141d1565b60975460ff1615610b7b576040517f08c379a000000000000000000000000000000000000000000000000000000000815260206004820152602c60248201527f455243313135355061757361626c653a20746f6b656e207472616e736665722060448201527f7768696c652070617573656400000000000000000000000000000000000000006064820152608401610852565b73ffffffffffffffffffffffffffffffffffffffff8116811461110a57600080fd5b80356143a381614376565b919050565b600080604083850312156143bb57600080fd5b82356143c681614376565b946020939093013593505050565b7f4e487b7100000000000000000000000000000000000000000000000000000000600052604160045260246000fd5b6080810181811067ffffffffffffffff82111715614423576144236143d4565b60405250565b7fffffffffffffffffffffffffffffffffffffffffffffffffffffffffffffffe0601f830116810181811067ffffffffffffffff8211171561446d5761446d6143d4565b6040525050565b600067ffffffffffffffff82111561448e5761448e6143d4565b5060051b60200190565b600082601f8301126144a957600080fd5b813560206144b682614474565b6040516144c38282614429565b83815260059390931b85018201928281019150868411156144e357600080fd5b8286015b8481101561126057803583529183019183016144e7565b6000806040838503121561451157600080fd5b823561451c81614376565b9150602083013567ffffffffffffffff81111561453857600080fd5b61454485828601614498565b9150509250929050565b600081518084526020808501945080840160005b8381101561457e57815187529582019590820190600101614562565b509495945050505050565b602081526000610c78602083018461454e565b7fffffffff000000000000000000000000000000000000000000000000000000008116811461110a57600080fd5b6000602082840312156145dc57600080fd5b8135610c788161459c565b6000602082840312156145f957600080fd5b5035919050565b60005b8381101561461b578181015183820152602001614603565b8381111561169f5750506000910152565b60008151808452614644816020860160208601614600565b601f017fffffffffffffffffffffffffffffffffffffffffffffffffffffffffffffffe0169290920160200192915050565b602081526000610c78602083018461462c565b600082601f83011261469a57600080fd5b813567ffffffffffffffff8111156146b4576146b46143d4565b6040516146e960207fffffffffffffffffffffffffffffffffffffffffffffffffffffffffffffffe0601f8501160182614429565b8181528460208386010111156146fe57600080fd5b816020850160208301376000918101602001919091529392505050565b600080600080600060a0868803121561473357600080fd5b853561473e81614376565b9450602086013561474e81614376565b9350604086013567ffffffffffffffff8082111561476b57600080fd5b61477789838a01614498565b9450606088013591508082111561478d57600080fd5b61479989838a01614498565b935060808801359150808211156147af57600080fd5b506147bc88828901614689565b9150509295509295909350565b600080604083850312156147dc57600080fd5b8235915060208301356147ee81614376565b809150509250929050565b803580151581146143a357600080fd5b60008060006060848603121561481e57600080fd5b833561482981614376565b9250602084013561483981614376565b9150614847604085016147f9565b90509250925092565b6000806020838503121561486357600080fd5b823567ffffffffffffffff8082111561487b57600080fd5b818501915085601f83011261488f57600080fd5b81358181111561489e57600080fd5b8660208285010111156148b057600080fd5b60209290920196919550909350505050565b600082601f8301126148d357600080fd5b813560206148e082614474565b6040516148ed8282614429565b83815260059390931b850182019282810191508684111561490d57600080fd5b8286015b8481101561126057803561492481614376565b8352918301918301614911565b6000806040838503121561494457600080fd5b823567ffffffffffffffff8082111561495c57600080fd5b614968868387016148c2565b9350602085013591508082111561497e57600080fd5b5061454485828601614498565b6000806000606084860312156149a057600080fd5b83356149ab81614376565b9250602084013567ffffffffffffffff808211156149c857600080fd5b6149d487838801614498565b935060408601359150808211156149ea57600080fd5b506149f786828701614498565b9150509250925092565b600060208284031215614a1357600080fd5b8135610c7881614376565b60008060408385031215614a3157600080fd5b50508035926020909101359150565b60008060408385031215614a5357600080fd5b8235614a5e81614376565b915060208301356147ee81614376565b60008060408385031215614a8157600080fd5b8235614a8c81614376565b9150614a9a602084016147f9565b90509250929050565b60008060008084860360e0811215614aba57600080fd5b8535614ac581614376565b9450602086013567ffffffffffffffff80821115614ae257600080fd5b614aee89838a01614498565b95506040880135915080821115614b0457600080fd5b50614b1188828901614498565b93505060807fffffffffffffffffffffffffffffffffffffffffffffffffffffffffffffffa082011215614b4457600080fd5b50604051614b5181614403565b606086013581526080860135602082015260a08601356040820152614b7860c087016147f9565b6060820152939692955090935050565b600080600060408486031215614b9d57600080fd5b833567ffffffffffffffff80821115614bb557600080fd5b818601915086601f830112614bc957600080fd5b813581811115614bd857600080fd5b8760208260051b8501011115614bed57600080fd5b6020928301989097509590910135949350505050565b600060208284031215614c1557600080fd5b813567ffffffffffffffff811115614c2c57600080fd5b614c3884828501614498565b949350505050565b600060208284031215614c5257600080fd5b813567ffffffffffffffff811115614c6957600080fd5b614c38848285016148c2565b60006101008201905060ff835116825260ff602084015116602083015260ff604084015116604083015261ffff60608401511660608301527fffff000000000000000000000000000000000000000000000000000000000000608084015116608083015260a0830151614d0c60a08401827fffff000000000000000000000000000000000000000000000000000000000000169052565b5060c0830151614d3460c084018273ffffffffffffffffffffffffffffffffffffffff169052565b5060e08301516140f160e084018263ffffffff169052565b600080600080600060a08688031215614d6457600080fd5b8535614d6f81614376565b94506020860135614d7f81614376565b93506040860135925060608601359150608086013567ffffffffffffffff811115614da957600080fd5b6147bc88828901614689565b600080600060608486031215614dca57600080fd5b8335614dd581614376565b95602085013595506040909401359392505050565b7f4e487b7100000000000000000000000000000000000000000000000000000000600052603260045260246000fd5b7f4e487b7100000000000000000000000000000000000000000000000000000000600052601160045260246000fd5b60007fffffffffffffffffffffffffffffffffffffffffffffffffffffffffffffffff8203614e7957614e79614e19565b5060010190565b600181811c90821680614e9457607f821691505b602082108103614ecd577f4e487b7100000000000000000000000000000000000000000000000000000000600052602260045260246000fd5b50919050565b60008219821115614ee657614ee6614e19565b500190565b803560ff811681146143a357600080fd5b600060208284031215614f0e57600080fd5b610c7882614eeb565b803561ffff811681146143a357600080fd5b80357fffff000000000000000000000000000000000000000000000000000000000000811681146143a357600080fd5b803563ffffffff811681146143a357600080fd5b6000610100808385031215614f8157600080fd5b6040519081019067ffffffffffffffff82118183101715614fa457614fa46143d4565b81604052614fb184614eeb565b8152614fbf60208501614eeb565b6020820152614fd060408501614eeb565b6040820152614fe160608501614f17565b6060820152614ff260808501614f29565b608082015261500360a08501614f29565b60a082015261501460c08501614398565b60c082015261502560e08501614f59565b60e0820152949350505050565b6000817fffffffffffffffffffffffffffffffffffffffffffffffffffffffffffffffff048311821515161561506a5761506a614e19565b500290565b604081526000615082604083018561454e565b8281036020840152615094818561454e565b95945050505050565b7f416363657373436f6e74726f6c3a206163636f756e74200000000000000000008152600083516150d5816017850160208801614600565b7f206973206d697373696e6720726f6c65200000000000000000000000000000006017918401918201528351615112816028840160208801614600565b01602801949350505050565b601f821115610ba957600081815260208120601f850160051c810160208610156151455750805b601f850160051c820191505b81811015610b7b57828155600101615151565b815167ffffffffffffffff81111561517e5761517e6143d4565b6151928161518c8454614e80565b8461511e565b602080601f8311600181146151e557600084156151af5750858301515b7fffffffffffffffffffffffffffffffffffffffffffffffffffffffffffffffff600386901b1c1916600185901b178555610b7b565b6000858152602081207fffffffffffffffffffffffffffffffffffffffffffffffffffffffffffffffe08616915b8281101561523257888601518255948401946001909101908401615213565b508582101561526e57878501517fffffffffffffffffffffffffffffffffffffffffffffffffffffffffffffffff600388901b60f8161c191681555b5050505050600190811b01905550565b600181815b808511156152d757817fffffffffffffffffffffffffffffffffffffffffffffffffffffffffffffffff048211156152bd576152bd614e19565b808516156152ca57918102915b93841c9390800290615283565b509250929050565b6000826152ee5750600161088d565b816152fb5750600061088d565b8160018114615311576002811461531b57615337565b600191505061088d565b60ff84111561532c5761532c614e19565b50506001821b61088d565b5060208310610133831016604e8410600b841016171561535a575081810a61088d565b615364838361527e565b807fffffffffffffffffffffffffffffffffffffffffffffffffffffffffffffffff0482111561539657615396614e19565b029392505050565b6000610c7883836152df565b6000828210156153bc576153bc614e19565b500390565b600073ffffffffffffffffffffffffffffffffffffffff808816835280871660208401525060a060408301526153fa60a083018661454e565b828103606084015261540c818661454e565b90508281036080840152615420818561462c565b98975050505050505050565b60006020828403121561543e57600080fd5b8151610c788161459c565b600060033d11156154625760046000803e5060005160e01c5b90565b600060443d10156154735790565b6040517ffffffffffffffffffffffffffffffffffffffffffffffffffffffffffffffffc803d016004833e81513d67ffffffffffffffff81602484011181841117156154c157505050505090565b82850191508151818111156154d95750505050505090565b843d87010160208285010111156154f35750505050505090565b61550260208286010187614429565b509095945050505050565b600073ffffffffffffffffffffffffffffffffffffffff808816835280871660208401525084604083015283606083015260a0608083015261555260a083018461462c565b979650505050505050565b60008161556c5761556c614e19565b507fffffffffffffffffffffffffffffffffffffffffffffffffffffffffffffffff0190565b7f4e487b7100000000000000000000000000000000000000000000000000000000600052603160045260246000fdfe68747470733a2f2f6e6f72692e636f6d2f6170692f72656d6f76616c2f7b69647d2e6a736f6ea264697066735822122097a9f73ba139171355c31c53e052eb8017efeb37675246eb7d5caa15a3af039e64736f6c634300080f0033",
  "linkReferences": {},
  "deployedLinkReferences": {}
}