{
  "_format": "hh-sol-artifact-1",
  "contractName": "Removal",
  "sourceName": "contracts/Removal.sol",
  "abi": [
    {
      "inputs": [],
      "stateMutability": "nonpayable",
      "type": "constructor"
    },
    {
      "inputs": [
        {
          "internalType": "string",
          "name": "array1Name",
          "type": "string"
        },
        {
          "internalType": "string",
          "name": "array2Name",
          "type": "string"
        }
      ],
      "name": "ArrayLengthMismatch",
      "type": "error"
    },
    {
      "inputs": [
        {
          "internalType": "uint256",
          "name": "tokenId",
          "type": "uint256"
        }
      ],
      "name": "TokenIdExists",
      "type": "error"
    },
    {
      "anonymous": false,
      "inputs": [
        {
          "indexed": true,
          "internalType": "address",
          "name": "account",
          "type": "address"
        },
        {
          "indexed": true,
          "internalType": "address",
          "name": "operator",
          "type": "address"
        },
        {
          "indexed": false,
          "internalType": "bool",
          "name": "approved",
          "type": "bool"
        }
      ],
      "name": "ApprovalForAll",
      "type": "event"
    },
    {
      "anonymous": false,
      "inputs": [
        {
          "indexed": false,
          "internalType": "uint8",
          "name": "version",
          "type": "uint8"
        }
      ],
      "name": "Initialized",
      "type": "event"
    },
    {
      "anonymous": false,
      "inputs": [
        {
          "indexed": false,
          "internalType": "address",
          "name": "account",
          "type": "address"
        }
      ],
      "name": "Paused",
      "type": "event"
    },
    {
      "anonymous": false,
      "inputs": [
        {
          "indexed": true,
          "internalType": "bytes32",
          "name": "role",
          "type": "bytes32"
        },
        {
          "indexed": true,
          "internalType": "bytes32",
          "name": "previousAdminRole",
          "type": "bytes32"
        },
        {
          "indexed": true,
          "internalType": "bytes32",
          "name": "newAdminRole",
          "type": "bytes32"
        }
      ],
      "name": "RoleAdminChanged",
      "type": "event"
    },
    {
      "anonymous": false,
      "inputs": [
        {
          "indexed": true,
          "internalType": "bytes32",
          "name": "role",
          "type": "bytes32"
        },
        {
          "indexed": true,
          "internalType": "address",
          "name": "account",
          "type": "address"
        },
        {
          "indexed": true,
          "internalType": "address",
          "name": "sender",
          "type": "address"
        }
      ],
      "name": "RoleGranted",
      "type": "event"
    },
    {
      "anonymous": false,
      "inputs": [
        {
          "indexed": true,
          "internalType": "bytes32",
          "name": "role",
          "type": "bytes32"
        },
        {
          "indexed": true,
          "internalType": "address",
          "name": "account",
          "type": "address"
        },
        {
          "indexed": true,
          "internalType": "address",
          "name": "sender",
          "type": "address"
        }
      ],
      "name": "RoleRevoked",
      "type": "event"
    },
    {
      "anonymous": false,
      "inputs": [
        {
          "indexed": true,
          "internalType": "address",
          "name": "operator",
          "type": "address"
        },
        {
          "indexed": true,
          "internalType": "address",
          "name": "from",
          "type": "address"
        },
        {
          "indexed": true,
          "internalType": "address",
          "name": "to",
          "type": "address"
        },
        {
          "indexed": false,
          "internalType": "uint256[]",
          "name": "ids",
          "type": "uint256[]"
        },
        {
          "indexed": false,
          "internalType": "uint256[]",
          "name": "values",
          "type": "uint256[]"
        }
      ],
      "name": "TransferBatch",
      "type": "event"
    },
    {
      "anonymous": false,
      "inputs": [
        {
          "indexed": true,
          "internalType": "address",
          "name": "operator",
          "type": "address"
        },
        {
          "indexed": true,
          "internalType": "address",
          "name": "from",
          "type": "address"
        },
        {
          "indexed": true,
          "internalType": "address",
          "name": "to",
          "type": "address"
        },
        {
          "indexed": false,
          "internalType": "uint256",
          "name": "id",
          "type": "uint256"
        },
        {
          "indexed": false,
          "internalType": "uint256",
          "name": "value",
          "type": "uint256"
        }
      ],
      "name": "TransferSingle",
      "type": "event"
    },
    {
      "anonymous": false,
      "inputs": [
        {
          "indexed": false,
          "internalType": "string",
          "name": "value",
          "type": "string"
        },
        {
          "indexed": true,
          "internalType": "uint256",
          "name": "id",
          "type": "uint256"
        }
      ],
      "name": "URI",
      "type": "event"
    },
    {
      "anonymous": false,
      "inputs": [
        {
          "indexed": false,
          "internalType": "address",
          "name": "account",
          "type": "address"
        }
      ],
      "name": "Unpaused",
      "type": "event"
    },
    {
      "inputs": [],
      "name": "DEFAULT_ADMIN_ROLE",
      "outputs": [
        {
          "internalType": "bytes32",
          "name": "",
          "type": "bytes32"
        }
      ],
      "stateMutability": "view",
      "type": "function"
    },
    {
      "inputs": [],
      "name": "MINTER_ROLE",
      "outputs": [
        {
          "internalType": "bytes32",
          "name": "",
          "type": "bytes32"
        }
      ],
      "stateMutability": "view",
      "type": "function"
    },
    {
      "inputs": [],
      "name": "PAUSER_ROLE",
      "outputs": [
        {
          "internalType": "bytes32",
          "name": "",
          "type": "bytes32"
        }
      ],
      "stateMutability": "view",
      "type": "function"
    },
    {
      "inputs": [],
      "name": "RELEASER_ROLE",
      "outputs": [
        {
          "internalType": "bytes32",
          "name": "",
          "type": "bytes32"
        }
      ],
      "stateMutability": "view",
      "type": "function"
    },
    {
      "inputs": [
        {
          "internalType": "address",
          "name": "account",
          "type": "address"
        },
        {
          "internalType": "uint256",
          "name": "id",
          "type": "uint256"
        }
      ],
      "name": "balanceOf",
      "outputs": [
        {
          "internalType": "uint256",
          "name": "",
          "type": "uint256"
        }
      ],
      "stateMutability": "view",
      "type": "function"
    },
    {
      "inputs": [
        {
          "internalType": "address[]",
          "name": "accounts",
          "type": "address[]"
        },
        {
          "internalType": "uint256[]",
          "name": "ids",
          "type": "uint256[]"
        }
      ],
      "name": "balanceOfBatch",
      "outputs": [
        {
          "internalType": "uint256[]",
          "name": "",
          "type": "uint256[]"
        }
      ],
      "stateMutability": "view",
      "type": "function"
    },
    {
      "inputs": [
        {
          "internalType": "address",
          "name": "account",
          "type": "address"
        },
        {
          "internalType": "uint256[]",
          "name": "ids",
          "type": "uint256[]"
        }
      ],
      "name": "balanceOfIds",
      "outputs": [
        {
          "internalType": "uint256[]",
          "name": "",
          "type": "uint256[]"
        }
      ],
      "stateMutability": "view",
      "type": "function"
    },
    {
      "inputs": [
        {
          "internalType": "uint256[]",
          "name": "removalIds",
          "type": "uint256[]"
        }
      ],
      "name": "batchGetHoldbackPercentages",
      "outputs": [
        {
          "internalType": "uint256[]",
          "name": "",
          "type": "uint256[]"
        }
      ],
      "stateMutability": "view",
      "type": "function"
    },
    {
      "inputs": [
        {
          "internalType": "address",
          "name": "account",
          "type": "address"
        },
        {
          "internalType": "uint256",
          "name": "id",
          "type": "uint256"
        },
        {
          "internalType": "uint256",
          "name": "value",
          "type": "uint256"
        }
      ],
      "name": "burn",
      "outputs": [],
      "stateMutability": "nonpayable",
      "type": "function"
    },
    {
      "inputs": [
        {
          "internalType": "address",
          "name": "account",
          "type": "address"
        },
        {
          "internalType": "uint256[]",
          "name": "ids",
          "type": "uint256[]"
        },
        {
          "internalType": "uint256[]",
          "name": "values",
          "type": "uint256[]"
        }
      ],
      "name": "burnBatch",
      "outputs": [],
      "stateMutability": "nonpayable",
      "type": "function"
    },
    {
      "inputs": [
        {
          "internalType": "bytes",
          "name": "removalData",
          "type": "bytes"
        }
      ],
      "name": "createRemovalId",
      "outputs": [
        {
          "internalType": "uint256",
          "name": "",
          "type": "uint256"
        }
      ],
      "stateMutability": "pure",
      "type": "function"
    },
    {
      "inputs": [
        {
          "internalType": "address",
          "name": "owner",
          "type": "address"
        }
      ],
      "name": "cumulativeBalanceOf",
      "outputs": [
        {
          "internalType": "uint256",
          "name": "",
          "type": "uint256"
        }
      ],
      "stateMutability": "view",
      "type": "function"
    },
    {
      "inputs": [
        {
          "internalType": "address[]",
          "name": "accounts",
          "type": "address[]"
        }
      ],
      "name": "cumulativeBalanceOfBatch",
      "outputs": [
        {
          "internalType": "uint256[]",
          "name": "",
          "type": "uint256[]"
        }
      ],
      "stateMutability": "view",
      "type": "function"
    },
    {
      "inputs": [
        {
          "internalType": "address",
          "name": "owner",
          "type": "address"
        },
        {
          "internalType": "uint256[]",
          "name": "ids",
          "type": "uint256[]"
        }
      ],
      "name": "cumulativeBalanceOfOwnerSubset",
      "outputs": [
        {
          "internalType": "uint256",
          "name": "",
          "type": "uint256"
        }
      ],
      "stateMutability": "view",
      "type": "function"
    },
    {
      "inputs": [
        {
          "internalType": "uint256",
          "name": "id",
          "type": "uint256"
        }
      ],
      "name": "exists",
      "outputs": [
        {
          "internalType": "bool",
          "name": "",
          "type": "bool"
        }
      ],
      "stateMutability": "view",
      "type": "function"
    },
    {
      "inputs": [
        {
          "internalType": "uint256",
          "name": "removalId",
          "type": "uint256"
        }
      ],
      "name": "getProjectIdForRemoval",
      "outputs": [
        {
          "internalType": "uint256",
          "name": "",
          "type": "uint256"
        }
      ],
      "stateMutability": "view",
      "type": "function"
    },
    {
      "inputs": [
        {
          "internalType": "bytes32",
          "name": "role",
          "type": "bytes32"
        }
      ],
      "name": "getRoleAdmin",
      "outputs": [
        {
          "internalType": "bytes32",
          "name": "",
          "type": "bytes32"
        }
      ],
      "stateMutability": "view",
      "type": "function"
    },
    {
      "inputs": [
        {
          "internalType": "bytes32",
          "name": "role",
          "type": "bytes32"
        },
        {
          "internalType": "uint256",
          "name": "index",
          "type": "uint256"
        }
      ],
      "name": "getRoleMember",
      "outputs": [
        {
          "internalType": "address",
          "name": "",
          "type": "address"
        }
      ],
      "stateMutability": "view",
      "type": "function"
    },
    {
      "inputs": [
        {
          "internalType": "bytes32",
          "name": "role",
          "type": "bytes32"
        }
      ],
      "name": "getRoleMemberCount",
      "outputs": [
        {
          "internalType": "uint256",
          "name": "",
          "type": "uint256"
        }
      ],
      "stateMutability": "view",
      "type": "function"
    },
    {
      "inputs": [
        {
          "internalType": "uint256",
          "name": "projectId",
          "type": "uint256"
        }
      ],
      "name": "getScheduleDataForProjectId",
      "outputs": [
        {
          "components": [
            {
              "internalType": "uint256",
              "name": "startTime",
              "type": "uint256"
            },
            {
              "internalType": "address",
              "name": "supplierAddress",
              "type": "address"
            },
            {
              "internalType": "uint256",
              "name": "methodology",
              "type": "uint256"
            },
            {
              "internalType": "uint256",
              "name": "methodologyVersion",
              "type": "uint256"
            }
          ],
          "internalType": "struct Removal.ScheduleData",
          "name": "",
          "type": "tuple"
        }
      ],
      "stateMutability": "view",
      "type": "function"
    },
    {
      "inputs": [
        {
          "internalType": "uint256",
          "name": "removalId",
          "type": "uint256"
        }
      ],
      "name": "getScheduleDataForRemovalId",
      "outputs": [
        {
          "components": [
            {
              "internalType": "uint256",
              "name": "startTime",
              "type": "uint256"
            },
            {
              "internalType": "address",
              "name": "supplierAddress",
              "type": "address"
            },
            {
              "internalType": "uint256",
              "name": "methodology",
              "type": "uint256"
            },
            {
              "internalType": "uint256",
              "name": "methodologyVersion",
              "type": "uint256"
            }
          ],
          "internalType": "struct Removal.ScheduleData",
          "name": "",
          "type": "tuple"
        }
      ],
      "stateMutability": "view",
      "type": "function"
    },
    {
      "inputs": [
        {
          "internalType": "bytes32",
          "name": "role",
          "type": "bytes32"
        },
        {
          "internalType": "address",
          "name": "account",
          "type": "address"
        }
      ],
      "name": "grantRole",
      "outputs": [],
      "stateMutability": "nonpayable",
      "type": "function"
    },
    {
      "inputs": [
        {
          "internalType": "bytes32",
          "name": "role",
          "type": "bytes32"
        },
        {
          "internalType": "address",
          "name": "account",
          "type": "address"
        }
      ],
      "name": "hasRole",
      "outputs": [
        {
          "internalType": "bool",
          "name": "",
          "type": "bool"
        }
      ],
      "stateMutability": "view",
      "type": "function"
    },
    {
      "inputs": [],
      "name": "initialize",
      "outputs": [],
      "stateMutability": "nonpayable",
      "type": "function"
    },
    {
      "inputs": [
        {
          "internalType": "address",
          "name": "account",
          "type": "address"
        },
        {
          "internalType": "address",
          "name": "operator",
          "type": "address"
        }
      ],
      "name": "isApprovedForAll",
      "outputs": [
        {
          "internalType": "bool",
          "name": "",
          "type": "bool"
        }
      ],
      "stateMutability": "view",
      "type": "function"
    },
    {
      "inputs": [],
      "name": "marketAddress",
      "outputs": [
        {
          "internalType": "address",
          "name": "",
          "type": "address"
        }
      ],
      "stateMutability": "view",
      "type": "function"
    },
    {
      "inputs": [
        {
          "internalType": "address",
          "name": "to",
          "type": "address"
        },
        {
          "internalType": "uint256[]",
          "name": "amounts",
          "type": "uint256[]"
        },
        {
          "internalType": "uint256[]",
          "name": "ids",
          "type": "uint256[]"
        },
        {
          "components": [
            {
              "internalType": "uint256",
              "name": "projectId",
              "type": "uint256"
            },
            {
              "internalType": "uint256",
              "name": "scheduleStartTime",
              "type": "uint256"
            },
            {
              "internalType": "uint256",
              "name": "holdbackPercentage",
              "type": "uint256"
            },
            {
              "internalType": "bool",
              "name": "list",
              "type": "bool"
            }
          ],
          "internalType": "struct BatchMintRemovalsData",
          "name": "data",
          "type": "tuple"
        }
      ],
      "name": "mintBatch",
      "outputs": [],
      "stateMutability": "nonpayable",
      "type": "function"
    },
    {
      "inputs": [
        {
          "internalType": "address",
          "name": "account",
          "type": "address"
        }
      ],
      "name": "numberOfTokensOwnedByAddress",
      "outputs": [
        {
          "internalType": "uint256",
          "name": "",
          "type": "uint256"
        }
      ],
      "stateMutability": "view",
      "type": "function"
    },
    {
      "inputs": [],
      "name": "paused",
      "outputs": [
        {
          "internalType": "bool",
          "name": "",
          "type": "bool"
        }
      ],
      "stateMutability": "view",
      "type": "function"
    },
    {
      "inputs": [
        {
          "internalType": "contract RestrictedNORI",
          "name": "restrictedNoriAddress_",
          "type": "address"
        },
        {
          "internalType": "contract Market",
          "name": "marketAddress_",
          "type": "address"
        }
      ],
      "name": "registerContractAddresses",
      "outputs": [],
      "stateMutability": "nonpayable",
      "type": "function"
    },
    {
      "inputs": [
        {
          "internalType": "address",
          "name": "owner",
          "type": "address"
        },
        {
          "internalType": "uint256",
          "name": "removalId",
          "type": "uint256"
        },
        {
          "internalType": "uint256",
          "name": "amount",
          "type": "uint256"
        }
      ],
      "name": "release",
      "outputs": [],
      "stateMutability": "nonpayable",
      "type": "function"
    },
    {
      "inputs": [
        {
          "internalType": "bytes32",
          "name": "role",
          "type": "bytes32"
        },
        {
          "internalType": "address",
          "name": "account",
          "type": "address"
        }
      ],
      "name": "renounceRole",
      "outputs": [],
      "stateMutability": "nonpayable",
      "type": "function"
    },
    {
      "inputs": [],
      "name": "restrictedNoriAddress",
      "outputs": [
        {
          "internalType": "address",
          "name": "",
          "type": "address"
        }
      ],
      "stateMutability": "view",
      "type": "function"
    },
    {
      "inputs": [
        {
          "internalType": "bytes32",
          "name": "role",
          "type": "bytes32"
        },
        {
          "internalType": "address",
          "name": "account",
          "type": "address"
        }
      ],
      "name": "revokeRole",
      "outputs": [],
      "stateMutability": "nonpayable",
      "type": "function"
    },
    {
      "inputs": [
        {
          "internalType": "address",
          "name": "from",
          "type": "address"
        },
        {
          "internalType": "address",
          "name": "to",
          "type": "address"
        },
        {
          "internalType": "uint256[]",
          "name": "ids",
          "type": "uint256[]"
        },
        {
          "internalType": "uint256[]",
          "name": "amounts",
          "type": "uint256[]"
        },
        {
          "internalType": "bytes",
          "name": "data",
          "type": "bytes"
        }
      ],
      "name": "safeBatchTransferFrom",
      "outputs": [],
      "stateMutability": "nonpayable",
      "type": "function"
    },
    {
      "inputs": [
        {
          "internalType": "address",
          "name": "from",
          "type": "address"
        },
        {
          "internalType": "address",
          "name": "to",
          "type": "address"
        },
        {
          "internalType": "uint256",
          "name": "id",
          "type": "uint256"
        },
        {
          "internalType": "uint256",
          "name": "amount",
          "type": "uint256"
        },
        {
          "internalType": "bytes",
          "name": "data",
          "type": "bytes"
        }
      ],
      "name": "safeTransferFrom",
      "outputs": [],
      "stateMutability": "nonpayable",
      "type": "function"
    },
    {
      "inputs": [
        {
          "internalType": "address",
          "name": "operator",
          "type": "address"
        },
        {
          "internalType": "bool",
          "name": "approved",
          "type": "bool"
        }
      ],
      "name": "setApprovalForAll",
      "outputs": [],
      "stateMutability": "nonpayable",
      "type": "function"
    },
    {
      "inputs": [
        {
          "internalType": "bytes4",
          "name": "interfaceId",
          "type": "bytes4"
        }
      ],
      "name": "supportsInterface",
      "outputs": [
        {
          "internalType": "bool",
          "name": "",
          "type": "bool"
        }
      ],
      "stateMutability": "view",
      "type": "function"
    },
    {
      "inputs": [
        {
          "internalType": "address",
          "name": "owner",
          "type": "address"
        }
      ],
      "name": "tokensOfOwner",
      "outputs": [
        {
          "internalType": "uint256[]",
          "name": "",
          "type": "uint256[]"
        }
      ],
      "stateMutability": "view",
      "type": "function"
    },
    {
      "inputs": [
        {
          "internalType": "uint256",
          "name": "id",
          "type": "uint256"
        }
      ],
      "name": "totalSupply",
      "outputs": [
        {
          "internalType": "uint256",
          "name": "",
          "type": "uint256"
        }
      ],
      "stateMutability": "view",
      "type": "function"
    },
    {
      "inputs": [
        {
          "internalType": "uint256",
          "name": "removalId",
          "type": "uint256"
        }
      ],
      "name": "unpackRemovalIdV0",
      "outputs": [
        {
          "components": [
            {
              "internalType": "uint8",
              "name": "idVersion",
              "type": "uint8"
            },
            {
              "internalType": "uint8",
              "name": "methodology",
              "type": "uint8"
            },
            {
              "internalType": "uint8",
              "name": "methodologyVersion",
              "type": "uint8"
            },
            {
              "internalType": "uint16",
              "name": "vintage",
              "type": "uint16"
            },
            {
              "internalType": "bytes2",
              "name": "country",
              "type": "bytes2"
            },
            {
              "internalType": "bytes2",
              "name": "subdivision",
              "type": "bytes2"
            },
            {
              "internalType": "address",
              "name": "supplierAddress",
              "type": "address"
            },
            {
              "internalType": "uint32",
              "name": "subIdentifier",
              "type": "uint32"
            }
          ],
          "internalType": "struct UnpackedRemovalIdV0",
          "name": "",
          "type": "tuple"
        }
      ],
      "stateMutability": "pure",
      "type": "function"
    },
    {
      "inputs": [
        {
          "internalType": "uint256",
          "name": "",
          "type": "uint256"
        }
      ],
      "name": "uri",
      "outputs": [
        {
          "internalType": "string",
          "name": "",
          "type": "string"
        }
      ],
      "stateMutability": "view",
      "type": "function"
    }
  ],
  "bytecode": "0x60806040523480156200001157600080fd5b506200001c62000022565b620000e4565b600054610100900460ff16156200008f5760405162461bcd60e51b815260206004820152602760248201527f496e697469616c697a61626c653a20636f6e747261637420697320696e697469604482015266616c697a696e6760c81b606482015260840160405180910390fd5b60005460ff9081161015620000e2576000805460ff191660ff9081179091556040519081527f7f26b83ff96e1f2b6a682f133852f6798a09c465da95921460cefb38474024989060200160405180910390a15b565b61561780620000f46000396000f3fe608060405234801561001057600080fd5b50600436106102dd5760003560e01c806391d1485411610186578063c1b8ecdd116100e3578063e0fc293811610097578063f242432a11610071578063f242432a1461075a578063f297be661461076d578063f5298aca1461078057600080fd5b8063e0fc2938146106c9578063e63ab1e9146106ea578063e985e9c51461071157600080fd5b8063d5391393116100c8578063d53913931461066f578063d547741f14610696578063d85a53e9146106a957600080fd5b8063c1b8ecdd14610649578063ca15c8731461065c57600080fd5b8063a22cb4651161013a578063ac28af241161011f578063ac28af24146105ee578063b6477cc014610615578063bd85b0391461062857600080fd5b8063a22cb465146105c8578063a42f3061146105db57600080fd5b8063956236411161016b578063956236411461058e57806399d5121b146105ad578063a217fddf146105c057600080fd5b806391d148541461053457806393ae796d1461057b57600080fd5b80634e1273f41161023f5780637f7081fa116101f3578063854560a4116101cd578063854560a4146104fb57806388c28f111461050e5780639010d07c1461052157600080fd5b80637f7081fa146104a05780638129fc1c146104e05780638462151c146104e857600080fd5b80635c975abb116102245780635c975abb1461046f5780636b20c4541461047a578063789e8cdf1461048d57600080fd5b80634e1273f4146104395780634f558e791461044c57600080fd5b8063248a9ca3116102965780632f2ff15d1161027b5780632f2ff15d1461040057806336568abe1461041357806348ec4c3b1461042657600080fd5b8063248a9ca3146103c75780632eb2c2d6146103eb57600080fd5b806301ffc9a7116102c757806301ffc9a7146103285780630e89341c1461034b5780631990ad051461036b57600080fd5b8062fdd58e146102e2578063018e1c8314610308575b600080fd5b6102f56102f036600461444b565b610793565b6040519081526020015b60405180910390f35b61031b6103163660046145a1565b610875565b6040516102ff919061462c565b61033b61033636600461466d565b610923565b60405190151581526020016102ff565b61035e61035936600461468a565b61092e565b6040516102ff9190614719565b61037e61037936600461468a565b6109c2565b6040516102ff91908151815260208083015173ffffffffffffffffffffffffffffffffffffffff1690820152604080830151908201526060918201519181019190915260800190565b6102f56103d536600461468a565b600090815261015f602052604090206001015490565b6103fe6103f93660046147be565b610a6a565b005b6103fe61040e36600461486c565b610b33565b6103fe61042136600461486c565b610b5e565b6102f561043436600461489c565b610c11565b61031b61044736600461497d565b610c24565b61033b61045a36600461468a565b600090815261012d6020526040902054151590565b60975460ff1661033b565b6103fe6104883660046149d7565b610d67565b6102f561049b366004614a4d565b610e27565b6101c35473ffffffffffffffffffffffffffffffffffffffff165b60405173ffffffffffffffffffffffffffffffffffffffff90911681526020016102ff565b6103fe610e56565b61031b6104f6366004614a4d565b6110b2565b6102f5610509366004614a4d565b6110e4565b6102f561051c3660046145a1565b611210565b6104bb61052f366004614a6a565b61130a565b61033b61054236600461486c565b600091825261015f6020908152604080842073ffffffffffffffffffffffffffffffffffffffff93909316845291905290205460ff1690565b6103fe610589366004614a8c565b611323565b6101c45473ffffffffffffffffffffffffffffffffffffffff166104bb565b61037e6105bb36600461468a565b61138c565b6102f5600081565b6103fe6105d6366004614aca565b611429565b6103fe6105e9366004614aff565b611434565b6102f57f88f3509f0e42391f2d94ebfb2a37cbd0782b1b8f73715330017f4663290b811781565b61031b610623366004614be4565b611702565b6102f561063636600461468a565b600090815261012d602052604090205490565b61031b610657366004614c21565b6117bd565b6102f561066a36600461468a565b6118f0565b6102f57f9f2df0fed2c77648de5860a4cc508cd0818c85b8b8a1ab4ceeef8d981c8956a681565b6103fe6106a436600461486c565b611908565b6106bc6106b736600461468a565b61192e565b6040516102ff9190614c56565b6102f56106d736600461468a565b60009081526101c5602052604090205490565b6102f57f65d7a28e3265b37a6474929f336521b332c1681b933f6cb9f3376673440d862a81565b61033b61071f366004614a8c565b73ffffffffffffffffffffffffffffffffffffffff918216600090815260666020908152604080832093909416825291909152205460ff1690565b6103fe610768366004614d2d565b611978565b6103fe61077b366004614d96565b611a3a565b6103fe61078e366004614d96565b611b1c565b600073ffffffffffffffffffffffffffffffffffffffff831661083d576040517f08c379a000000000000000000000000000000000000000000000000000000000815260206004820152602a60248201527f455243313135353a2061646472657373207a65726f206973206e6f742061207660448201527f616c6964206f776e65720000000000000000000000000000000000000000000060648201526084015b60405180910390fd5b50600081815260656020908152604080832073ffffffffffffffffffffffffffffffffffffffff861684529091529020545b92915050565b60606000825167ffffffffffffffff81111561089357610893614477565b6040519080825280602002602001820160405280156108bc578160200160208202803683370190505b50905060005b835181101561091b576108ee858583815181106108e1576108e1614dcb565b6020026020010151610793565b82828151811061090057610900614dcb565b602090810291909101015261091481614e29565b90506108c2565b509392505050565b600061086f82611bdc565b60606067805461093d90614e61565b80601f016020809104026020016040519081016040528092919081815260200182805461096990614e61565b80156109b65780601f1061098b576101008083540402835291602001916109b6565b820191906000526020600020905b81548152906001019060200180831161099957829003601f168201915b50505050509050919050565b610a03604051806080016040528060008152602001600073ffffffffffffffffffffffffffffffffffffffff16815260200160008152602001600081525090565b5060009081526101c5602090815260408083205483526101c6825291829020825160808101845281548152600182015473ffffffffffffffffffffffffffffffffffffffff1692810192909252600281015492820192909252600390910154606082015290565b73ffffffffffffffffffffffffffffffffffffffff8516331480610a935750610a93853361071f565b610b1f576040517f08c379a000000000000000000000000000000000000000000000000000000000815260206004820152602f60248201527f455243313135353a2063616c6c6572206973206e6f7420746f6b656e206f776e60448201527f6572206e6f7220617070726f76656400000000000000000000000000000000006064820152608401610834565b610b2c8585858585611c32565b5050505050565b600082815261015f6020526040902060010154610b4f81611f7d565b610b598383611f87565b505050565b73ffffffffffffffffffffffffffffffffffffffff81163314610c03576040517f08c379a000000000000000000000000000000000000000000000000000000000815260206004820152602f60248201527f416363657373436f6e74726f6c3a2063616e206f6e6c792072656e6f756e636560448201527f20726f6c657320666f722073656c6600000000000000000000000000000000006064820152608401610834565b610c0d8282611faa565b5050565b6000610c1d8383611fcd565b9392505050565b60608151835114610cb7576040517f08c379a000000000000000000000000000000000000000000000000000000000815260206004820152602960248201527f455243313135353a206163636f756e747320616e6420696473206c656e67746860448201527f206d69736d6174636800000000000000000000000000000000000000000000006064820152608401610834565b6000835167ffffffffffffffff811115610cd357610cd3614477565b604051908082528060200260200182016040528015610cfc578160200160208202803683370190505b50905060005b845181101561091b57610d3a858281518110610d2057610d20614dcb565b60200260200101518583815181106108e1576108e1614dcb565b828281518110610d4c57610d4c614dcb565b6020908102919091010152610d6081614e29565b9050610d02565b73ffffffffffffffffffffffffffffffffffffffff8316331480610d905750610d90833361071f565b610e1c576040517f08c379a000000000000000000000000000000000000000000000000000000000815260206004820152602f60248201527f455243313135353a2063616c6c6572206973206e6f7420746f6b656e206f776e60448201527f6572206e6f7220617070726f76656400000000000000000000000000000000006064820152608401610834565b610b598383836123b6565b73ffffffffffffffffffffffffffffffffffffffff811660009081526101c76020526040812061086f906126f2565b600054610100900460ff1615808015610e765750600054600160ff909116105b80610e905750303b158015610e90575060005460ff166001145b610f1c576040517f08c379a000000000000000000000000000000000000000000000000000000000815260206004820152602e60248201527f496e697469616c697a61626c653a20636f6e747261637420697320616c72656160448201527f647920696e697469616c697a65640000000000000000000000000000000000006064820152608401610834565b600080547fffffffffffffffffffffffffffffffffffffffffffffffffffffffffffffff001660011790558015610f7a57600080547fffffffffffffffffffffffffffffffffffffffffffffffffffffffffffff00ff166101001790555b610f9b6040518060600160405280602681526020016155bc602691396126fc565b610fa361279c565b610fab61285d565b610fb361285d565b610fbb61285d565b610fc361285d565b610fce600033611f87565b610ff87f65d7a28e3265b37a6474929f336521b332c1681b933f6cb9f3376673440d862a33611f87565b6110227f9f2df0fed2c77648de5860a4cc508cd0818c85b8b8a1ab4ceeef8d981c8956a633611f87565b61104c7f88f3509f0e42391f2d94ebfb2a37cbd0782b1b8f73715330017f4663290b811733611f87565b80156110af57600080547fffffffffffffffffffffffffffffffffffffffffffffffffffffffffffff00ff169055604051600181527f7f26b83ff96e1f2b6a682f133852f6798a09c465da95921460cefb38474024989060200160405180910390a15b50565b73ffffffffffffffffffffffffffffffffffffffff811660009081526101c76020526040902060609061086f906128f6565b73ffffffffffffffffffffffffffffffffffffffff811660009081526101c76020526040812081611114826126f2565b905060008167ffffffffffffffff81111561113157611131614477565b60405190808252806020026020018201604052801561115a578160200160208202803683370190505b50905060005b828110156111b0578582828151811061117b5761117b614dcb565b73ffffffffffffffffffffffffffffffffffffffff909216602092830291909101909101526111a981614e29565b9050611160565b5060006111c082610447866128f6565b90506000805b84811015611205578281815181106111e0576111e0614dcb565b6020026020010151826111f39190614eb4565b91506111fe81614e29565b90506111c6565b509695505050505050565b600080825167ffffffffffffffff81111561122d5761122d614477565b604051908082528060200260200182016040528015611256578160200160208202803683370190505b50905060005b83518110156112ad578482828151811061127857611278614dcb565b73ffffffffffffffffffffffffffffffffffffffff909216602092830291909101909101526112a681614e29565b905061125c565b5060006112ba8285610c24565b90506000805b8251811015611300578281815181106112db576112db614dcb565b6020026020010151826112ee9190614eb4565b91506112f981614e29565b90506112c0565b5095945050505050565b600082815261019160205260408120610c1d9083612903565b61132b61290f565b600061133681611f7d565b506101c3805473ffffffffffffffffffffffffffffffffffffffff9384167fffffffffffffffffffffffff0000000000000000000000000000000000000000918216179091556101c48054929093169116179055565b6113cd604051806080016040528060008152602001600073ffffffffffffffffffffffffffffffffffffffff16815260200160008152602001600081525090565b5060009081526101c66020908152604091829020825160808101845281548152600182015473ffffffffffffffffffffffffffffffffffffffff1692810192909252600281015492820192909252600390910154606082015290565b610c0d33838361297c565b8151835181146114d657604080517f616c41130000000000000000000000000000000000000000000000000000000081526004810191909152600760448201527f616d6f756e747300000000000000000000000000000000000000000000000000606482015260806024820152600360848201527f696473000000000000000000000000000000000000000000000000000000000060a482015260c401610834565b8151604083015160005b8381101561159a5760008682815181106114fc576114fc614dcb565b6020026020010151905061151f81600090815261012d6020526040902054151590565b80611538575060008181526101c5602052604090205415155b15611572576040517f4acb9c2900000000000000000000000000000000000000000000000000000000815260048101829052602401610834565b60009081526101c56020526040902083815560010182905561159381614e29565b90506114e0565b506000856000815181106115b0576115b0614dcb565b602002602001015190506040518060800160405280866020015181526020016115d883612992565b73ffffffffffffffffffffffffffffffffffffffff1681526020016115fc836129a1565b60ff16815260200161160d836129ba565b60ff16905260008481526101c66020908152604080832084518155848301516001820180547fffffffffffffffffffffffff00000000000000000000000000000000000000001673ffffffffffffffffffffffffffffffffffffffff909216919091179055848201516002820155606090940151600390940193909355825190810190925281526116a390899088908a906129d2565b6116af8833600161297c565b8460600151156116f8576116f8886101c460009054906101000a900473ffffffffffffffffffffffffffffffffffffffff16888a60405180602001604052806000815250610a6a565b5050505050505050565b805160609060008167ffffffffffffffff81111561172257611722614477565b60405190808252806020026020018201604052801561174b578160200160208202803683370190505b50905060005b8281101561091b57600085828151811061176d5761176d614dcb565b602002602001015190506101c56000828152602001908152602001600020600101548383815181106117a1576117a1614dcb565b6020908102919091010152506117b681614e29565b9050611751565b805160609060008167ffffffffffffffff8111156117dd576117dd614477565b604051908082528060200260200182016040528015611806578160200160208202803683370190505b50905060005b8281101561091b573073ffffffffffffffffffffffffffffffffffffffff1663854560a486838151811061184257611842614dcb565b60200260200101516040518263ffffffff1660e01b8152600401611882919073ffffffffffffffffffffffffffffffffffffffff91909116815260200190565b602060405180830381865afa15801561189f573d6000803e3d6000fd5b505050506040513d601f19601f820116820180604052508101906118c39190614ecc565b8282815181106118d5576118d5614dcb565b60209081029190910101526118e981614e29565b905061180c565b60008181526101916020526040812061086f906126f2565b600082815261015f602052604090206001015461192481611f7d565b610b598383611faa565b6040805161010081018252600080825260208201819052918101829052606081018290526080810182905260a0810182905260c0810182905260e081019190915261086f82612c5b565b73ffffffffffffffffffffffffffffffffffffffff85163314806119a157506119a1853361071f565b611a2d576040517f08c379a000000000000000000000000000000000000000000000000000000000815260206004820152602f60248201527f455243313135353a2063616c6c6572206973206e6f7420746f6b656e206f776e60448201527f6572206e6f7220617070726f76656400000000000000000000000000000000006064820152608401610834565b610b2c8585858585612d88565b7f88f3509f0e42391f2d94ebfb2a37cbd0782b1b8f73715330017f4663290b8117611a6481611f7d565b611a6f848484611b1c565b6101c45473ffffffffffffffffffffffffffffffffffffffff90811690851603611b16576040517f366a4120000000000000000000000000000000000000000000000000000000008152600481018490526024810183905273ffffffffffffffffffffffffffffffffffffffff85169063366a412090604401600060405180830381600087803b158015611b0257600080fd5b505af11580156116f8573d6000803e3d6000fd5b50505050565b73ffffffffffffffffffffffffffffffffffffffff8316331480611b455750611b45833361071f565b611bd1576040517f08c379a000000000000000000000000000000000000000000000000000000000815260206004820152602f60248201527f455243313135353a2063616c6c6572206973206e6f7420746f6b656e206f776e60448201527f6572206e6f7220617070726f76656400000000000000000000000000000000006064820152608401610834565b610b59838383612fd8565b60007fffffffff0000000000000000000000000000000000000000000000000000000082167f5a05180f00000000000000000000000000000000000000000000000000000000148061086f575061086f826131ff565b8151835114611cc3576040517f08c379a000000000000000000000000000000000000000000000000000000000815260206004820152602860248201527f455243313135353a2069647320616e6420616d6f756e7473206c656e6774682060448201527f6d69736d617463680000000000000000000000000000000000000000000000006064820152608401610834565b73ffffffffffffffffffffffffffffffffffffffff8416611d66576040517f08c379a000000000000000000000000000000000000000000000000000000000815260206004820152602560248201527f455243313135353a207472616e7366657220746f20746865207a65726f20616460448201527f64726573730000000000000000000000000000000000000000000000000000006064820152608401610834565b33611d75818787878787613255565b60005b8451811015611ee8576000858281518110611d9557611d95614dcb565b602002602001015190506000858381518110611db357611db3614dcb565b602090810291909101810151600084815260658352604080822073ffffffffffffffffffffffffffffffffffffffff8e168352909352919091205490915081811015611e81576040517f08c379a000000000000000000000000000000000000000000000000000000000815260206004820152602a60248201527f455243313135353a20696e73756666696369656e742062616c616e636520666f60448201527f72207472616e73666572000000000000000000000000000000000000000000006064820152608401610834565b600083815260656020908152604080832073ffffffffffffffffffffffffffffffffffffffff8e8116855292528083208585039055908b16825281208054849290611ecd908490614eb4565b9250508190555050505080611ee190614e29565b9050611d78565b508473ffffffffffffffffffffffffffffffffffffffff168673ffffffffffffffffffffffffffffffffffffffff168273ffffffffffffffffffffffffffffffffffffffff167f4a39dc06d4c0dbc64b70af90fd698a233a518aa5d07e595d983b8c0526c8f7fb8787604051611f5f929190614ee5565b60405180910390a4611f7581878787878761335c565b505050505050565b6110af81336135e6565b611f9182826136b9565b600082815261019160205260409020610b5990826137af565b611fb482826137d1565b600082815261019160205260409020610b59908261388e565b600080611fdc83850185614f24565b60ff169050801561206e576040517f08c379a0000000000000000000000000000000000000000000000000000000008152602060048201526024808201527f556e737570706f727465642072656d6f76616c20746f6b656e2069642076657260448201527f73696f6e000000000000000000000000000000000000000000000000000000006064820152608401610834565b61010083146120ff576040517f08c379a000000000000000000000000000000000000000000000000000000000815260206004820152602a60248201527f72656d6f76616c4461746120636f6e7461696e732077726f6e67206e756d626560448201527f72206f66206279746573000000000000000000000000000000000000000000006064820152608401610834565b600061210d84860186614f95565b9050600f816020015160ff161115612181576040517f08c379a000000000000000000000000000000000000000000000000000000000815260206004820152601560248201527f4d6574686f6c6f646f677920746f6f206c6172676500000000000000000000006044820152606401610834565b600f816040015160ff1611156121f3576040517f08c379a000000000000000000000000000000000000000000000000000000000815260206004820152601d60248201527f4d6574686f6c6f646f67792076657273696f6e20746f6f206c617267650000006044820152606401610834565b608081015160a082015160f882811c9260ff60f091821c8116939283901c9290911c16604184108015906122285750605a8411155b8015612235575060418310155b80156122425750605a8311155b801561224f575060418210155b801561225c5750605a8211155b8015612269575060418110155b80156122765750605a8111155b6122dc576040517f08c379a000000000000000000000000000000000000000000000000000000000815260206004820152600d60248201527f496e76616c6964204153434949000000000000000000000000000000000000006044820152606401610834565b600085604001516004876020015160ff16901b1760ff16905060086000612303919061505a565b60e087015163ffffffff16901b61231c6008600461505a565b60c088015173ffffffffffffffffffffffffffffffffffffffff16901b6123456008601861505a565b60a089015160f01c901b61235b6008601a61505a565b60808a015160f01c901b6123716008601c61505a565b60608b015161ffff16901b6123886008601e61505a565b86901b6123976008601f61505a565b8c6000015160ff16901b17171717171797505050505050505092915050565b73ffffffffffffffffffffffffffffffffffffffff8316612459576040517f08c379a000000000000000000000000000000000000000000000000000000000815260206004820152602360248201527f455243313135353a206275726e2066726f6d20746865207a65726f206164647260448201527f65737300000000000000000000000000000000000000000000000000000000006064820152608401610834565b80518251146124ea576040517f08c379a000000000000000000000000000000000000000000000000000000000815260206004820152602860248201527f455243313135353a2069647320616e6420616d6f756e7473206c656e6774682060448201527f6d69736d617463680000000000000000000000000000000000000000000000006064820152608401610834565b600033905061250d81856000868660405180602001604052806000815250613255565b60005b835181101561265e57600084828151811061252d5761252d614dcb565b60200260200101519050600084838151811061254b5761254b614dcb565b602090810291909101810151600084815260658352604080822073ffffffffffffffffffffffffffffffffffffffff8c168352909352919091205490915081811015612618576040517f08c379a0000000000000000000000000000000000000000000000000000000008152602060048201526024808201527f455243313135353a206275726e20616d6f756e7420657863656564732062616c60448201527f616e6365000000000000000000000000000000000000000000000000000000006064820152608401610834565b600092835260656020908152604080852073ffffffffffffffffffffffffffffffffffffffff8b168652909152909220910390558061265681614e29565b915050612510565b50600073ffffffffffffffffffffffffffffffffffffffff168473ffffffffffffffffffffffffffffffffffffffff168273ffffffffffffffffffffffffffffffffffffffff167f4a39dc06d4c0dbc64b70af90fd698a233a518aa5d07e595d983b8c0526c8f7fb86866040516126d6929190614ee5565b60405180910390a4604080516020810190915260009052611b16565b600061086f825490565b600054610100900460ff16612793576040517f08c379a000000000000000000000000000000000000000000000000000000000815260206004820152602b60248201527f496e697469616c697a61626c653a20636f6e7472616374206973206e6f74206960448201527f6e697469616c697a696e670000000000000000000000000000000000000000006064820152608401610834565b6110af816138b0565b600054610100900460ff16612833576040517f08c379a000000000000000000000000000000000000000000000000000000000815260206004820152602b60248201527f496e697469616c697a61626c653a20636f6e7472616374206973206e6f74206960448201527f6e697469616c697a696e670000000000000000000000000000000000000000006064820152608401610834565b609780547fffffffffffffffffffffffffffffffffffffffffffffffffffffffffffffff00169055565b600054610100900460ff166128f4576040517f08c379a000000000000000000000000000000000000000000000000000000000815260206004820152602b60248201527f496e697469616c697a61626c653a20636f6e7472616374206973206e6f74206960448201527f6e697469616c697a696e670000000000000000000000000000000000000000006064820152608401610834565b565b60606000610c1d836138bc565b6000610c1d8383613917565b60975460ff16156128f4576040517f08c379a000000000000000000000000000000000000000000000000000000000815260206004820152601060248201527f5061757361626c653a20706175736564000000000000000000000000000000006044820152606401610834565b600061298781611f7d565b611b16848484613941565b600061086f8260146004613a94565b600060046129b2836001601e613a94565b901c92915050565b60006129c9826001601e613a94565b600f1692915050565b73ffffffffffffffffffffffffffffffffffffffff8416612a75576040517f08c379a000000000000000000000000000000000000000000000000000000000815260206004820152602160248201527f455243313135353a206d696e7420746f20746865207a65726f2061646472657360448201527f73000000000000000000000000000000000000000000000000000000000000006064820152608401610834565b8151835114612b06576040517f08c379a000000000000000000000000000000000000000000000000000000000815260206004820152602860248201527f455243313135353a2069647320616e6420616d6f756e7473206c656e6774682060448201527f6d69736d617463680000000000000000000000000000000000000000000000006064820152608401610834565b33612b1681600087878787613255565b60005b8451811015612bcc57838181518110612b3457612b34614dcb565b602002602001015160656000878481518110612b5257612b52614dcb565b6020026020010151815260200190815260200160002060008873ffffffffffffffffffffffffffffffffffffffff1673ffffffffffffffffffffffffffffffffffffffff1681526020019081526020016000206000828254612bb49190614eb4565b90915550819050612bc481614e29565b915050612b19565b508473ffffffffffffffffffffffffffffffffffffffff16600073ffffffffffffffffffffffffffffffffffffffff168273ffffffffffffffffffffffffffffffffffffffff167f4a39dc06d4c0dbc64b70af90fd698a233a518aa5d07e595d983b8c0526c8f7fb8787604051612c44929190614ee5565b60405180910390a4610b2c8160008787878761335c565b6040805161010081018252600080825260208201819052918101829052606081018290526080810182905260a0810182905260c0810182905260e0810191909152604051806101000160405280612cb184613ae0565b60ff168152602001612cc2846129a1565b60ff168152602001612cd3846129ba565b60ff168152602001612ce484613aef565b61ffff168152602001612cf684613afe565b7fffff000000000000000000000000000000000000000000000000000000000000168152602001612d2684613b16565b7fffff000000000000000000000000000000000000000000000000000000000000168152602001612d5684612992565b73ffffffffffffffffffffffffffffffffffffffff168152602001612d7a84613b25565b63ffffffff16905292915050565b73ffffffffffffffffffffffffffffffffffffffff8416612e2b576040517f08c379a000000000000000000000000000000000000000000000000000000000815260206004820152602560248201527f455243313135353a207472616e7366657220746f20746865207a65726f20616460448201527f64726573730000000000000000000000000000000000000000000000000000006064820152608401610834565b336000612e3785613b34565b90506000612e4485613b34565b9050612e54838989858589613255565b600086815260656020908152604080832073ffffffffffffffffffffffffffffffffffffffff8c16845290915290205485811015612f14576040517f08c379a000000000000000000000000000000000000000000000000000000000815260206004820152602a60248201527f455243313135353a20696e73756666696369656e742062616c616e636520666f60448201527f72207472616e73666572000000000000000000000000000000000000000000006064820152608401610834565b600087815260656020908152604080832073ffffffffffffffffffffffffffffffffffffffff8d8116855292528083208985039055908a16825281208054889290612f60908490614eb4565b9091555050604080518881526020810188905273ffffffffffffffffffffffffffffffffffffffff808b16928c821692918816917fc3d58168c5ae7397731d063d5bbf3d657854427343f4c083240f7aacaa2d0f62910160405180910390a4612fcd848a8a8a8a8a613b7f565b505050505050505050565b73ffffffffffffffffffffffffffffffffffffffff831661307b576040517f08c379a000000000000000000000000000000000000000000000000000000000815260206004820152602360248201527f455243313135353a206275726e2066726f6d20746865207a65726f206164647260448201527f65737300000000000000000000000000000000000000000000000000000000006064820152608401610834565b33600061308784613b34565b9050600061309484613b34565b90506130b483876000858560405180602001604052806000815250613255565b600085815260656020908152604080832073ffffffffffffffffffffffffffffffffffffffff8a16845290915290205484811015613173576040517f08c379a0000000000000000000000000000000000000000000000000000000008152602060048201526024808201527f455243313135353a206275726e20616d6f756e7420657863656564732062616c60448201527f616e6365000000000000000000000000000000000000000000000000000000006064820152608401610834565b600086815260656020908152604080832073ffffffffffffffffffffffffffffffffffffffff8b81168086529184528285208a8703905582518b81529384018a90529092908816917fc3d58168c5ae7397731d063d5bbf3d657854427343f4c083240f7aacaa2d0f62910160405180910390a46040805160208101909152600090525b50505050505050565b60007fffffffff0000000000000000000000000000000000000000000000000000000082167f7965db0b00000000000000000000000000000000000000000000000000000000148061086f575061086f82613d2c565b61325d61290f565b815160005b8181101561334d57600085828151811061327e5761327e614dcb565b60200260200101519050600073ffffffffffffffffffffffffffffffffffffffff168873ffffffffffffffffffffffffffffffffffffffff16146132ee5773ffffffffffffffffffffffffffffffffffffffff881660009081526101c7602052604090206132ec9082613e0f565b505b73ffffffffffffffffffffffffffffffffffffffff87161561333c5773ffffffffffffffffffffffffffffffffffffffff871660009081526101c76020526040902061333a9082613e1b565b505b5061334681614e29565b9050613262565b506131f6878787878787613e27565b73ffffffffffffffffffffffffffffffffffffffff84163b15611f75576040517fbc197c8100000000000000000000000000000000000000000000000000000000815273ffffffffffffffffffffffffffffffffffffffff85169063bc197c81906133d39089908990889088908890600401615097565b6020604051808303816000875af192505050801561342c575060408051601f3d9081017fffffffffffffffffffffffffffffffffffffffffffffffffffffffffffffffe016820190925261342991810190615102565b60015b6135155761343861511f565b806308c379a00361348b575061344c61513b565b80613457575061348d565b806040517f08c379a00000000000000000000000000000000000000000000000000000000081526004016108349190614719565b505b6040517f08c379a000000000000000000000000000000000000000000000000000000000815260206004820152603460248201527f455243313135353a207472616e7366657220746f206e6f6e204552433131353560448201527f526563656976657220696d706c656d656e7465720000000000000000000000006064820152608401610834565b7fffffffff0000000000000000000000000000000000000000000000000000000081167fbc197c8100000000000000000000000000000000000000000000000000000000146131f6576040517f08c379a000000000000000000000000000000000000000000000000000000000815260206004820152602860248201527f455243313135353a204552433131353552656365697665722072656a6563746560448201527f6420746f6b656e730000000000000000000000000000000000000000000000006064820152608401610834565b600082815261015f6020908152604080832073ffffffffffffffffffffffffffffffffffffffff8516845290915290205460ff16610c0d5761363f8173ffffffffffffffffffffffffffffffffffffffff166014613ffa565b61364a836020613ffa565b60405160200161365b9291906151e3565b604080517fffffffffffffffffffffffffffffffffffffffffffffffffffffffffffffffe0818403018152908290527f08c379a000000000000000000000000000000000000000000000000000000000825261083491600401614719565b600082815261015f6020908152604080832073ffffffffffffffffffffffffffffffffffffffff8516845290915290205460ff16610c0d57600082815261015f6020908152604080832073ffffffffffffffffffffffffffffffffffffffff85168452909152902080547fffffffffffffffffffffffffffffffffffffffffffffffffffffffffffffff001660011790556137513390565b73ffffffffffffffffffffffffffffffffffffffff168173ffffffffffffffffffffffffffffffffffffffff16837f2f8788117e7eff1d82e926ec794901d17c78024a50270940304540a733656f0d60405160405180910390a45050565b6000610c1d8373ffffffffffffffffffffffffffffffffffffffff841661423d565b600082815261015f6020908152604080832073ffffffffffffffffffffffffffffffffffffffff8516845290915290205460ff1615610c0d57600082815261015f6020908152604080832073ffffffffffffffffffffffffffffffffffffffff8516808552925280832080547fffffffffffffffffffffffffffffffffffffffffffffffffffffffffffffff0016905551339285917ff6391f5c32d9c69d2a47ea670b442974b53935d1edc7fd64eb21e047a839171b9190a45050565b6000610c1d8373ffffffffffffffffffffffffffffffffffffffff841661428c565b6067610c0d82826152aa565b6060816000018054806020026020016040519081016040528092919081815260200182805480156109b657602002820191906000526020600020905b8154815260200190600101908083116138f85750505050509050919050565b600082600001828154811061392e5761392e614dcb565b9060005260206000200154905092915050565b8173ffffffffffffffffffffffffffffffffffffffff168373ffffffffffffffffffffffffffffffffffffffff16036139fc576040517f08c379a000000000000000000000000000000000000000000000000000000000815260206004820152602960248201527f455243313135353a2073657474696e6720617070726f76616c2073746174757360448201527f20666f722073656c6600000000000000000000000000000000000000000000006064820152608401610834565b73ffffffffffffffffffffffffffffffffffffffff83811660008181526066602090815260408083209487168084529482529182902080547fffffffffffffffffffffffffffffffffffffffffffffffffffffffffffffff001686151590811790915591519182527f17307eab39ab6107e8899845ad3d59bd9653f200f220920489ca2b5937696c31910160405180910390a3505050565b600080613aa260088461505a565b6001613aaf60088761505a565b613aba9060026154e4565b613ac491906154f0565b901b9050848116613ad660088561505a565b1c95945050505050565b600061086f826001601f613a94565b600061086f826002601c613a94565b6000613b0d826002601a613a94565b60f01b92915050565b6000613b0d8260026018613a94565b600061086f8260046000613a94565b60408051600180825281830190925260609160009190602080830190803683370190505090508281600081518110613b6e57613b6e614dcb565b602090810291909101015292915050565b73ffffffffffffffffffffffffffffffffffffffff84163b15611f75576040517ff23a6e6100000000000000000000000000000000000000000000000000000000815273ffffffffffffffffffffffffffffffffffffffff85169063f23a6e6190613bf69089908990889088908890600401615507565b6020604051808303816000875af1925050508015613c4f575060408051601f3d9081017fffffffffffffffffffffffffffffffffffffffffffffffffffffffffffffffe0168201909252613c4c91810190615102565b60015b613c5b5761343861511f565b7fffffffff0000000000000000000000000000000000000000000000000000000081167ff23a6e6100000000000000000000000000000000000000000000000000000000146131f6576040517f08c379a000000000000000000000000000000000000000000000000000000000815260206004820152602860248201527f455243313135353a204552433131353552656365697665722072656a6563746560448201527f6420746f6b656e730000000000000000000000000000000000000000000000006064820152608401610834565b60007fffffffff0000000000000000000000000000000000000000000000000000000082167fd9b67a26000000000000000000000000000000000000000000000000000000001480613dbf57507fffffffff0000000000000000000000000000000000000000000000000000000082167f0e89341c00000000000000000000000000000000000000000000000000000000145b8061086f57507f01ffc9a7000000000000000000000000000000000000000000000000000000007fffffffff0000000000000000000000000000000000000000000000000000000083161461086f565b6000610c1d838361428c565b6000610c1d838361423d565b613e35868686868686614386565b73ffffffffffffffffffffffffffffffffffffffff8516613eca5760005b8351811015613ec857828181518110613e6e57613e6e614dcb565b602002602001015161012d6000868481518110613e8d57613e8d614dcb565b602002602001015181526020019081526020016000206000828254613eb29190614eb4565b90915550613ec1905081614e29565b9050613e53565b505b73ffffffffffffffffffffffffffffffffffffffff8416611f755760005b83518110156131f6576000848281518110613f0557613f05614dcb565b602002602001015190506000848381518110613f2357613f23614dcb565b60200260200101519050600061012d600084815260200190815260200160002054905081811015613fd6576040517f08c379a000000000000000000000000000000000000000000000000000000000815260206004820152602860248201527f455243313135353a206275726e20616d6f756e74206578636565647320746f7460448201527f616c537570706c790000000000000000000000000000000000000000000000006064820152608401610834565b600092835261012d602052604090922091039055613ff381614e29565b9050613ee8565b6060600061400983600261505a565b614014906002614eb4565b67ffffffffffffffff81111561402c5761402c614477565b6040519080825280601f01601f191660200182016040528015614056576020820181803683370190505b5090507f30000000000000000000000000000000000000000000000000000000000000008160008151811061408d5761408d614dcb565b60200101907effffffffffffffffffffffffffffffffffffffffffffffffffffffffffffff1916908160001a9053507f7800000000000000000000000000000000000000000000000000000000000000816001815181106140f0576140f0614dcb565b60200101907effffffffffffffffffffffffffffffffffffffffffffffffffffffffffffff1916908160001a905350600061412c84600261505a565b614137906001614eb4565b90505b60018111156141d4577f303132333435363738396162636465660000000000000000000000000000000085600f166010811061417857614178614dcb565b1a60f81b82828151811061418e5761418e614dcb565b60200101907effffffffffffffffffffffffffffffffffffffffffffffffffffffffffffff1916908160001a90535060049490941c936141cd81615557565b905061413a565b508315610c1d576040517f08c379a000000000000000000000000000000000000000000000000000000000815260206004820181905260248201527f537472696e67733a20686578206c656e67746820696e73756666696369656e746044820152606401610834565b60008181526001830160205260408120546142845750815460018181018455600084815260208082209093018490558454848252828601909352604090209190915561086f565b50600061086f565b600081815260018301602052604081205480156143755760006142b06001836154f0565b85549091506000906142c4906001906154f0565b90508181146143295760008660000182815481106142e4576142e4614dcb565b906000526020600020015490508087600001848154811061430757614307614dcb565b6000918252602080832090910192909255918252600188019052604090208390555b855486908061433a5761433a61558c565b60019003818190600052602060002001600090559055856001016000868152602001908152602001600020600090556001935050505061086f565b600091505061086f565b5092915050565b60975460ff1615611f75576040517f08c379a000000000000000000000000000000000000000000000000000000000815260206004820152602c60248201527f455243313135355061757361626c653a20746f6b656e207472616e736665722060448201527f7768696c652070617573656400000000000000000000000000000000000000006064820152608401610834565b73ffffffffffffffffffffffffffffffffffffffff811681146110af57600080fd5b803561444681614419565b919050565b6000806040838503121561445e57600080fd5b823561446981614419565b946020939093013593505050565b7f4e487b7100000000000000000000000000000000000000000000000000000000600052604160045260246000fd5b6080810181811067ffffffffffffffff821117156144c6576144c6614477565b60405250565b7fffffffffffffffffffffffffffffffffffffffffffffffffffffffffffffffe0601f830116810181811067ffffffffffffffff8211171561451057614510614477565b6040525050565b600067ffffffffffffffff82111561453157614531614477565b5060051b60200190565b600082601f83011261454c57600080fd5b8135602061455982614517565b60405161456682826144cc565b83815260059390931b850182019282810191508684111561458657600080fd5b8286015b84811015611205578035835291830191830161458a565b600080604083850312156145b457600080fd5b82356145bf81614419565b9150602083013567ffffffffffffffff8111156145db57600080fd5b6145e78582860161453b565b9150509250929050565b600081518084526020808501945080840160005b8381101561462157815187529582019590820190600101614605565b509495945050505050565b602081526000610c1d60208301846145f1565b7fffffffff00000000000000000000000000000000000000000000000000000000811681146110af57600080fd5b60006020828403121561467f57600080fd5b8135610c1d8161463f565b60006020828403121561469c57600080fd5b5035919050565b60005b838110156146be5781810151838201526020016146a6565b83811115611b165750506000910152565b600081518084526146e78160208601602086016146a3565b601f017fffffffffffffffffffffffffffffffffffffffffffffffffffffffffffffffe0169290920160200192915050565b602081526000610c1d60208301846146cf565b600082601f83011261473d57600080fd5b813567ffffffffffffffff81111561475757614757614477565b60405161478c60207fffffffffffffffffffffffffffffffffffffffffffffffffffffffffffffffe0601f85011601826144cc565b8181528460208386010111156147a157600080fd5b816020850160208301376000918101602001919091529392505050565b600080600080600060a086880312156147d657600080fd5b85356147e181614419565b945060208601356147f181614419565b9350604086013567ffffffffffffffff8082111561480e57600080fd5b61481a89838a0161453b565b9450606088013591508082111561483057600080fd5b61483c89838a0161453b565b9350608088013591508082111561485257600080fd5b5061485f8882890161472c565b9150509295509295909350565b6000806040838503121561487f57600080fd5b82359150602083013561489181614419565b809150509250929050565b600080602083850312156148af57600080fd5b823567ffffffffffffffff808211156148c757600080fd5b818501915085601f8301126148db57600080fd5b8135818111156148ea57600080fd5b8660208285010111156148fc57600080fd5b60209290920196919550909350505050565b600082601f83011261491f57600080fd5b8135602061492c82614517565b60405161493982826144cc565b83815260059390931b850182019282810191508684111561495957600080fd5b8286015b8481101561120557803561497081614419565b835291830191830161495d565b6000806040838503121561499057600080fd5b823567ffffffffffffffff808211156149a857600080fd5b6149b48683870161490e565b935060208501359150808211156149ca57600080fd5b506145e78582860161453b565b6000806000606084860312156149ec57600080fd5b83356149f781614419565b9250602084013567ffffffffffffffff80821115614a1457600080fd5b614a208783880161453b565b93506040860135915080821115614a3657600080fd5b50614a438682870161453b565b9150509250925092565b600060208284031215614a5f57600080fd5b8135610c1d81614419565b60008060408385031215614a7d57600080fd5b50508035926020909101359150565b60008060408385031215614a9f57600080fd5b8235614aaa81614419565b9150602083013561489181614419565b8035801515811461444657600080fd5b60008060408385031215614add57600080fd5b8235614ae881614419565b9150614af660208401614aba565b90509250929050565b60008060008084860360e0811215614b1657600080fd5b8535614b2181614419565b9450602086013567ffffffffffffffff80821115614b3e57600080fd5b614b4a89838a0161453b565b95506040880135915080821115614b6057600080fd5b50614b6d8882890161453b565b93505060807fffffffffffffffffffffffffffffffffffffffffffffffffffffffffffffffa082011215614ba057600080fd5b50604051614bad816144a6565b606086013581526080860135602082015260a08601356040820152614bd460c08701614aba565b6060820152939692955090935050565b600060208284031215614bf657600080fd5b813567ffffffffffffffff811115614c0d57600080fd5b614c198482850161453b565b949350505050565b600060208284031215614c3357600080fd5b813567ffffffffffffffff811115614c4a57600080fd5b614c198482850161490e565b60006101008201905060ff835116825260ff602084015116602083015260ff604084015116604083015261ffff60608401511660608301527fffff000000000000000000000000000000000000000000000000000000000000608084015116608083015260a0830151614ced60a08401827fffff000000000000000000000000000000000000000000000000000000000000169052565b5060c0830151614d1560c084018273ffffffffffffffffffffffffffffffffffffffff169052565b5060e083015161437f60e084018263ffffffff169052565b600080600080600060a08688031215614d4557600080fd5b8535614d5081614419565b94506020860135614d6081614419565b93506040860135925060608601359150608086013567ffffffffffffffff811115614d8a57600080fd5b61485f8882890161472c565b600080600060608486031215614dab57600080fd5b8335614db681614419565b95602085013595506040909401359392505050565b7f4e487b7100000000000000000000000000000000000000000000000000000000600052603260045260246000fd5b7f4e487b7100000000000000000000000000000000000000000000000000000000600052601160045260246000fd5b60007fffffffffffffffffffffffffffffffffffffffffffffffffffffffffffffffff8203614e5a57614e5a614dfa565b5060010190565b600181811c90821680614e7557607f821691505b602082108103614eae577f4e487b7100000000000000000000000000000000000000000000000000000000600052602260045260246000fd5b50919050565b60008219821115614ec757614ec7614dfa565b500190565b600060208284031215614ede57600080fd5b5051919050565b604081526000614ef860408301856145f1565b8281036020840152614f0a81856145f1565b95945050505050565b803560ff8116811461444657600080fd5b600060208284031215614f3657600080fd5b610c1d82614f13565b803561ffff8116811461444657600080fd5b80357fffff0000000000000000000000000000000000000000000000000000000000008116811461444657600080fd5b803563ffffffff8116811461444657600080fd5b6000610100808385031215614fa957600080fd5b6040519081019067ffffffffffffffff82118183101715614fcc57614fcc614477565b81604052614fd984614f13565b8152614fe760208501614f13565b6020820152614ff860408501614f13565b604082015261500960608501614f3f565b606082015261501a60808501614f51565b608082015261502b60a08501614f51565b60a082015261503c60c0850161443b565b60c082015261504d60e08501614f81565b60e0820152949350505050565b6000817fffffffffffffffffffffffffffffffffffffffffffffffffffffffffffffffff048311821515161561509257615092614dfa565b500290565b600073ffffffffffffffffffffffffffffffffffffffff808816835280871660208401525060a060408301526150d060a08301866145f1565b82810360608401526150e281866145f1565b905082810360808401526150f681856146cf565b98975050505050505050565b60006020828403121561511457600080fd5b8151610c1d8161463f565b600060033d11156151385760046000803e5060005160e01c5b90565b600060443d10156151495790565b6040517ffffffffffffffffffffffffffffffffffffffffffffffffffffffffffffffffc803d016004833e81513d67ffffffffffffffff816024840111818411171561519757505050505090565b82850191508151818111156151af5750505050505090565b843d87010160208285010111156151c95750505050505090565b6151d8602082860101876144cc565b509095945050505050565b7f416363657373436f6e74726f6c3a206163636f756e742000000000000000000081526000835161521b8160178501602088016146a3565b7f206973206d697373696e6720726f6c652000000000000000000000000000000060179184019182015283516152588160288401602088016146a3565b01602801949350505050565b601f821115610b5957600081815260208120601f850160051c8101602086101561528b5750805b601f850160051c820191505b81811015611f7557828155600101615297565b815167ffffffffffffffff8111156152c4576152c4614477565b6152d8816152d28454614e61565b84615264565b602080601f83116001811461532b57600084156152f55750858301515b7fffffffffffffffffffffffffffffffffffffffffffffffffffffffffffffffff600386901b1c1916600185901b178555611f75565b6000858152602081207fffffffffffffffffffffffffffffffffffffffffffffffffffffffffffffffe08616915b8281101561537857888601518255948401946001909101908401615359565b50858210156153b457878501517fffffffffffffffffffffffffffffffffffffffffffffffffffffffffffffffff600388901b60f8161c191681555b5050505050600190811b01905550565b600181815b8085111561541d57817fffffffffffffffffffffffffffffffffffffffffffffffffffffffffffffffff0482111561540357615403614dfa565b8085161561541057918102915b93841c93908002906153c9565b509250929050565b6000826154345750600161086f565b816154415750600061086f565b816001811461545757600281146154615761547d565b600191505061086f565b60ff84111561547257615472614dfa565b50506001821b61086f565b5060208310610133831016604e8410600b84101617156154a0575081810a61086f565b6154aa83836153c4565b807fffffffffffffffffffffffffffffffffffffffffffffffffffffffffffffffff048211156154dc576154dc614dfa565b029392505050565b6000610c1d8383615425565b60008282101561550257615502614dfa565b500390565b600073ffffffffffffffffffffffffffffffffffffffff808816835280871660208401525084604083015283606083015260a0608083015261554c60a08301846146cf565b979650505050505050565b60008161556657615566614dfa565b507fffffffffffffffffffffffffffffffffffffffffffffffffffffffffffffffff0190565b7f4e487b7100000000000000000000000000000000000000000000000000000000600052603160045260246000fdfe68747470733a2f2f6e6f72692e636f6d2f6170692f72656d6f76616c2f7b69647d2e6a736f6ea2646970667358221220c06161902c03e81e2e2ff0a787b68ba9cbf509f4df2ce6187cd72ecab922571664736f6c634300080f0033",
  "linkReferences": {},
  "deployedLinkReferences": {}
}