{
  "_format": "hh-sol-artifact-1",
  "contractName": "Removal",
  "sourceName": "contracts/Removal.sol",
  "abi": [
    {
      "inputs": [
        {
          "internalType": "uint256",
          "name": "tokenId",
          "type": "uint256"
        }
      ],
      "name": "TokenIdExists",
      "type": "error"
    },
    {
      "anonymous": false,
      "inputs": [
        {
          "indexed": true,
          "internalType": "address",
          "name": "account",
          "type": "address"
        },
        {
          "indexed": true,
          "internalType": "address",
          "name": "operator",
          "type": "address"
        },
        {
          "indexed": false,
          "internalType": "bool",
          "name": "approved",
          "type": "bool"
        }
      ],
      "name": "ApprovalForAll",
      "type": "event"
    },
    {
      "anonymous": false,
      "inputs": [
        {
          "indexed": false,
          "internalType": "address",
          "name": "account",
          "type": "address"
        }
      ],
      "name": "Paused",
      "type": "event"
    },
    {
      "anonymous": false,
      "inputs": [
        {
          "indexed": true,
          "internalType": "bytes32",
          "name": "role",
          "type": "bytes32"
        },
        {
          "indexed": true,
          "internalType": "bytes32",
          "name": "previousAdminRole",
          "type": "bytes32"
        },
        {
          "indexed": true,
          "internalType": "bytes32",
          "name": "newAdminRole",
          "type": "bytes32"
        }
      ],
      "name": "RoleAdminChanged",
      "type": "event"
    },
    {
      "anonymous": false,
      "inputs": [
        {
          "indexed": true,
          "internalType": "bytes32",
          "name": "role",
          "type": "bytes32"
        },
        {
          "indexed": true,
          "internalType": "address",
          "name": "account",
          "type": "address"
        },
        {
          "indexed": true,
          "internalType": "address",
          "name": "sender",
          "type": "address"
        }
      ],
      "name": "RoleGranted",
      "type": "event"
    },
    {
      "anonymous": false,
      "inputs": [
        {
          "indexed": true,
          "internalType": "bytes32",
          "name": "role",
          "type": "bytes32"
        },
        {
          "indexed": true,
          "internalType": "address",
          "name": "account",
          "type": "address"
        },
        {
          "indexed": true,
          "internalType": "address",
          "name": "sender",
          "type": "address"
        }
      ],
      "name": "RoleRevoked",
      "type": "event"
    },
    {
      "anonymous": false,
      "inputs": [
        {
          "indexed": true,
          "internalType": "address",
          "name": "operator",
          "type": "address"
        },
        {
          "indexed": true,
          "internalType": "address",
          "name": "from",
          "type": "address"
        },
        {
          "indexed": true,
          "internalType": "address",
          "name": "to",
          "type": "address"
        },
        {
          "indexed": false,
          "internalType": "uint256[]",
          "name": "ids",
          "type": "uint256[]"
        },
        {
          "indexed": false,
          "internalType": "uint256[]",
          "name": "values",
          "type": "uint256[]"
        }
      ],
      "name": "TransferBatch",
      "type": "event"
    },
    {
      "anonymous": false,
      "inputs": [
        {
          "indexed": true,
          "internalType": "address",
          "name": "operator",
          "type": "address"
        },
        {
          "indexed": true,
          "internalType": "address",
          "name": "from",
          "type": "address"
        },
        {
          "indexed": true,
          "internalType": "address",
          "name": "to",
          "type": "address"
        },
        {
          "indexed": false,
          "internalType": "uint256",
          "name": "id",
          "type": "uint256"
        },
        {
          "indexed": false,
          "internalType": "uint256",
          "name": "value",
          "type": "uint256"
        }
      ],
      "name": "TransferSingle",
      "type": "event"
    },
    {
      "anonymous": false,
      "inputs": [
        {
          "indexed": false,
          "internalType": "string",
          "name": "value",
          "type": "string"
        },
        {
          "indexed": true,
          "internalType": "uint256",
          "name": "id",
          "type": "uint256"
        }
      ],
      "name": "URI",
      "type": "event"
    },
    {
      "anonymous": false,
      "inputs": [
        {
          "indexed": false,
          "internalType": "address",
          "name": "account",
          "type": "address"
        }
      ],
      "name": "Unpaused",
      "type": "event"
    },
    {
      "inputs": [],
      "name": "DEFAULT_ADMIN_ROLE",
      "outputs": [
        {
          "internalType": "bytes32",
          "name": "",
          "type": "bytes32"
        }
      ],
      "stateMutability": "view",
      "type": "function"
    },
    {
      "inputs": [],
      "name": "MINTER_ROLE",
      "outputs": [
        {
          "internalType": "bytes32",
          "name": "",
          "type": "bytes32"
        }
      ],
      "stateMutability": "view",
      "type": "function"
    },
    {
      "inputs": [],
      "name": "PAUSER_ROLE",
      "outputs": [
        {
          "internalType": "bytes32",
          "name": "",
          "type": "bytes32"
        }
      ],
      "stateMutability": "view",
      "type": "function"
    },
    {
      "inputs": [
        {
          "internalType": "address",
          "name": "account",
          "type": "address"
        },
        {
          "internalType": "uint256",
          "name": "id",
          "type": "uint256"
        }
      ],
      "name": "balanceOf",
      "outputs": [
        {
          "internalType": "uint256",
          "name": "",
          "type": "uint256"
        }
      ],
      "stateMutability": "view",
      "type": "function"
    },
    {
      "inputs": [
        {
          "internalType": "address[]",
          "name": "accounts",
          "type": "address[]"
        },
        {
          "internalType": "uint256[]",
          "name": "ids",
          "type": "uint256[]"
        }
      ],
      "name": "balanceOfBatch",
      "outputs": [
        {
          "internalType": "uint256[]",
          "name": "",
          "type": "uint256[]"
        }
      ],
      "stateMutability": "view",
      "type": "function"
    },
    {
      "inputs": [
        {
          "internalType": "address",
          "name": "account",
          "type": "address"
        },
        {
          "internalType": "uint256",
          "name": "id",
          "type": "uint256"
        },
        {
          "internalType": "uint256",
          "name": "value",
          "type": "uint256"
        }
      ],
      "name": "burn",
      "outputs": [],
      "stateMutability": "nonpayable",
      "type": "function"
    },
    {
      "inputs": [
        {
          "internalType": "address",
          "name": "account",
          "type": "address"
        },
        {
          "internalType": "uint256[]",
          "name": "ids",
          "type": "uint256[]"
        },
        {
          "internalType": "uint256[]",
          "name": "values",
          "type": "uint256[]"
        }
      ],
      "name": "burnBatch",
      "outputs": [],
      "stateMutability": "nonpayable",
      "type": "function"
    },
    {
      "inputs": [
        {
          "internalType": "bytes",
          "name": "removalData",
          "type": "bytes"
        }
      ],
      "name": "createRemovalId",
      "outputs": [
        {
          "internalType": "uint256",
          "name": "",
          "type": "uint256"
        }
      ],
      "stateMutability": "pure",
      "type": "function"
    },
    {
      "inputs": [
        {
          "internalType": "uint256",
          "name": "id",
          "type": "uint256"
        }
      ],
      "name": "exists",
      "outputs": [
        {
          "internalType": "bool",
          "name": "",
          "type": "bool"
        }
      ],
      "stateMutability": "view",
      "type": "function"
    },
    {
      "inputs": [
        {
          "internalType": "uint256",
          "name": "removalId",
          "type": "uint256"
        }
      ],
      "name": "getEscrowScheduleStartTimeForRemoval",
      "outputs": [
        {
          "internalType": "uint256",
          "name": "",
          "type": "uint256"
        }
      ],
      "stateMutability": "view",
      "type": "function"
    },
    {
      "inputs": [
        {
          "internalType": "bytes32",
          "name": "role",
          "type": "bytes32"
        }
      ],
      "name": "getRoleAdmin",
      "outputs": [
        {
          "internalType": "bytes32",
          "name": "",
          "type": "bytes32"
        }
      ],
      "stateMutability": "view",
      "type": "function"
    },
    {
      "inputs": [
        {
          "internalType": "bytes32",
          "name": "role",
          "type": "bytes32"
        },
        {
          "internalType": "uint256",
          "name": "index",
          "type": "uint256"
        }
      ],
      "name": "getRoleMember",
      "outputs": [
        {
          "internalType": "address",
          "name": "",
          "type": "address"
        }
      ],
      "stateMutability": "view",
      "type": "function"
    },
    {
      "inputs": [
        {
          "internalType": "bytes32",
          "name": "role",
          "type": "bytes32"
        }
      ],
      "name": "getRoleMemberCount",
      "outputs": [
        {
          "internalType": "uint256",
          "name": "",
          "type": "uint256"
        }
      ],
      "stateMutability": "view",
      "type": "function"
    },
    {
      "inputs": [
        {
          "internalType": "bytes32",
          "name": "role",
          "type": "bytes32"
        },
        {
          "internalType": "address",
          "name": "account",
          "type": "address"
        }
      ],
      "name": "grantRole",
      "outputs": [],
      "stateMutability": "nonpayable",
      "type": "function"
    },
    {
      "inputs": [
        {
          "internalType": "bytes32",
          "name": "role",
          "type": "bytes32"
        },
        {
          "internalType": "address",
          "name": "account",
          "type": "address"
        }
      ],
      "name": "hasRole",
      "outputs": [
        {
          "internalType": "bool",
          "name": "",
          "type": "bool"
        }
      ],
      "stateMutability": "view",
      "type": "function"
    },
    {
      "inputs": [
        {
          "internalType": "uint256",
          "name": "",
          "type": "uint256"
        }
      ],
      "name": "indexToTokenId",
      "outputs": [
        {
          "internalType": "uint256",
          "name": "",
          "type": "uint256"
        }
      ],
      "stateMutability": "view",
      "type": "function"
    },
    {
      "inputs": [],
      "name": "initialize",
      "outputs": [],
      "stateMutability": "nonpayable",
      "type": "function"
    },
    {
      "inputs": [
        {
          "internalType": "string",
          "name": "uri",
          "type": "string"
        }
      ],
      "name": "initialize",
      "outputs": [],
      "stateMutability": "nonpayable",
      "type": "function"
    },
    {
      "inputs": [
        {
          "internalType": "address",
          "name": "escrowedNORIAddress",
          "type": "address"
        }
      ],
      "name": "initializeEscrowedNORI",
      "outputs": [],
      "stateMutability": "nonpayable",
      "type": "function"
    },
    {
      "inputs": [
        {
          "internalType": "address",
          "name": "account",
          "type": "address"
        },
        {
          "internalType": "address",
          "name": "operator",
          "type": "address"
        }
      ],
      "name": "isApprovedForAll",
      "outputs": [
        {
          "internalType": "bool",
          "name": "",
          "type": "bool"
        }
      ],
      "stateMutability": "view",
      "type": "function"
    },
    {
      "inputs": [
        {
          "internalType": "address",
          "name": "",
          "type": "address"
        },
        {
          "internalType": "uint256",
          "name": "",
          "type": "uint256"
        },
        {
          "internalType": "uint256",
          "name": "",
          "type": "uint256"
        },
        {
          "internalType": "bytes",
          "name": "",
          "type": "bytes"
        }
      ],
      "name": "mint",
      "outputs": [],
      "stateMutability": "pure",
      "type": "function"
    },
    {
      "inputs": [
        {
          "internalType": "address",
          "name": "",
          "type": "address"
        },
        {
          "internalType": "uint256[]",
          "name": "",
          "type": "uint256[]"
        },
        {
          "internalType": "uint256[]",
          "name": "",
          "type": "uint256[]"
        },
        {
          "internalType": "bytes",
          "name": "",
          "type": "bytes"
        }
      ],
      "name": "mintBatch",
      "outputs": [],
      "stateMutability": "pure",
      "type": "function"
    },
    {
      "inputs": [
        {
          "internalType": "address",
          "name": "to",
          "type": "address"
        },
        {
          "internalType": "uint256[]",
          "name": "amounts",
          "type": "uint256[]"
        },
        {
          "internalType": "uint256[]",
          "name": "ids",
          "type": "uint256[]"
        },
        {
          "internalType": "uint256[]",
          "name": "escrowScheduleStartTimes",
          "type": "uint256[]"
        },
        {
          "internalType": "bytes",
          "name": "data",
          "type": "bytes"
        }
      ],
      "name": "mintRemovalBatch",
      "outputs": [],
      "stateMutability": "nonpayable",
      "type": "function"
    },
    {
      "inputs": [],
      "name": "name",
      "outputs": [
        {
          "internalType": "string",
          "name": "",
          "type": "string"
        }
      ],
      "stateMutability": "view",
      "type": "function"
    },
    {
      "inputs": [],
      "name": "pause",
      "outputs": [],
      "stateMutability": "nonpayable",
      "type": "function"
    },
    {
      "inputs": [],
      "name": "paused",
      "outputs": [
        {
          "internalType": "bool",
          "name": "",
          "type": "bool"
        }
      ],
      "stateMutability": "view",
      "type": "function"
    },
    {
      "inputs": [
        {
          "internalType": "bytes32",
          "name": "role",
          "type": "bytes32"
        },
        {
          "internalType": "address",
          "name": "account",
          "type": "address"
        }
      ],
      "name": "renounceRole",
      "outputs": [],
      "stateMutability": "nonpayable",
      "type": "function"
    },
    {
      "inputs": [
        {
          "internalType": "bytes32",
          "name": "role",
          "type": "bytes32"
        },
        {
          "internalType": "address",
          "name": "account",
          "type": "address"
        }
      ],
      "name": "revokeRole",
      "outputs": [],
      "stateMutability": "nonpayable",
      "type": "function"
    },
    {
      "inputs": [
        {
          "internalType": "address",
          "name": "_from",
          "type": "address"
        },
        {
          "internalType": "address",
          "name": "_to",
          "type": "address"
        },
        {
          "internalType": "uint256[]",
          "name": "_ids",
          "type": "uint256[]"
        },
        {
          "internalType": "uint256[]",
          "name": "_amounts",
          "type": "uint256[]"
        },
        {
          "internalType": "bytes",
          "name": "_data",
          "type": "bytes"
        }
      ],
      "name": "safeBatchTransferFrom",
      "outputs": [],
      "stateMutability": "nonpayable",
      "type": "function"
    },
    {
      "inputs": [
        {
          "internalType": "address",
          "name": "from",
          "type": "address"
        },
        {
          "internalType": "address",
          "name": "to",
          "type": "address"
        },
        {
          "internalType": "uint256",
          "name": "id",
          "type": "uint256"
        },
        {
          "internalType": "uint256",
          "name": "amount",
          "type": "uint256"
        },
        {
          "internalType": "bytes",
          "name": "data",
          "type": "bytes"
        }
      ],
      "name": "safeTransferFrom",
      "outputs": [],
      "stateMutability": "nonpayable",
      "type": "function"
    },
    {
      "inputs": [
        {
          "internalType": "address",
          "name": "owner",
          "type": "address"
        },
        {
          "internalType": "address",
          "name": "operator",
          "type": "address"
        },
        {
          "internalType": "bool",
          "name": "approved",
          "type": "bool"
        }
      ],
      "name": "setApprovalForAll",
      "outputs": [],
      "stateMutability": "nonpayable",
      "type": "function"
    },
    {
      "inputs": [
        {
          "internalType": "address",
          "name": "operator",
          "type": "address"
        },
        {
          "internalType": "bool",
          "name": "approved",
          "type": "bool"
        }
      ],
      "name": "setApprovalForAll",
      "outputs": [],
      "stateMutability": "nonpayable",
      "type": "function"
    },
    {
      "inputs": [
        {
          "internalType": "bytes4",
          "name": "interfaceId",
          "type": "bytes4"
        }
      ],
      "name": "supportsInterface",
      "outputs": [
        {
          "internalType": "bool",
          "name": "",
          "type": "bool"
        }
      ],
      "stateMutability": "view",
      "type": "function"
    },
    {
      "inputs": [],
      "name": "tokenIdCounter",
      "outputs": [
        {
          "internalType": "uint256",
          "name": "",
          "type": "uint256"
        }
      ],
      "stateMutability": "view",
      "type": "function"
    },
    {
      "inputs": [
        {
          "internalType": "uint256",
          "name": "id",
          "type": "uint256"
        }
      ],
      "name": "totalSupply",
      "outputs": [
        {
          "internalType": "uint256",
          "name": "",
          "type": "uint256"
        }
      ],
      "stateMutability": "view",
      "type": "function"
    },
    {
      "inputs": [
        {
          "internalType": "uint256",
          "name": "removalId",
          "type": "uint256"
        }
      ],
      "name": "unpackRemovalIdV0",
      "outputs": [
        {
          "components": [
            {
              "internalType": "uint8",
              "name": "idVersion",
              "type": "uint8"
            },
            {
              "internalType": "uint8",
              "name": "methodology",
              "type": "uint8"
            },
            {
              "internalType": "uint8",
              "name": "methodologyVersion",
              "type": "uint8"
            },
            {
              "internalType": "uint16",
              "name": "vintage",
              "type": "uint16"
            },
            {
              "internalType": "bytes2",
              "name": "country",
              "type": "bytes2"
            },
            {
              "internalType": "bytes2",
              "name": "subdivision",
              "type": "bytes2"
            },
            {
              "internalType": "address",
              "name": "supplierAddress",
              "type": "address"
            },
            {
              "internalType": "uint32",
              "name": "subIdentifier",
              "type": "uint32"
            }
          ],
          "internalType": "struct UnpackedRemovalIdV0",
          "name": "",
          "type": "tuple"
        }
      ],
      "stateMutability": "pure",
      "type": "function"
    },
    {
      "inputs": [],
      "name": "unpause",
      "outputs": [],
      "stateMutability": "nonpayable",
      "type": "function"
    },
    {
      "inputs": [
        {
          "internalType": "uint256",
          "name": "",
          "type": "uint256"
        }
      ],
      "name": "uri",
      "outputs": [
        {
          "internalType": "string",
          "name": "",
          "type": "string"
        }
      ],
      "stateMutability": "view",
      "type": "function"
    }
  ],
  "bytecode": "0x608060405234801561001057600080fd5b50613f45806100206000396000f3fe608060405234801561001057600080fd5b50600436106102315760003560e01c80637985f3a111610130578063bd85b039116100b8578063e63ab1e91161007c578063e63ab1e914610542578063e985e9c514610557578063f242432a14610593578063f5298aca146105a6578063f62d1888146105b957600080fd5b8063bd85b039146104b4578063ca15c873146104d5578063d5391393146104e8578063d547741f1461050f578063d85a53e91461052257600080fd5b80639010d07c116100ff5780639010d07c1461045157806391d148541461047c57806398bdf6f51461048f578063a217fddf14610499578063a22cb465146104a157600080fd5b80637985f3a11461040d5780637aef1164146104205780638129fc1c146104415780638456cb591461044957600080fd5b806336568abe116101be5780634f558e79116101825780634f558e79146103975780635c975abb146103ba5780636b20c454146103c6578063731133e9146103d957806374d03ff7146103ec57600080fd5b806336568abe14610336578063367605ca146103495780633f4ba83a1461035c57806348ec4c3b146103645780634e1273f41461037757600080fd5b80631f7fdffa116102055780631f7fdffa146102a7578063248a9ca3146102bc5780632c3a0728146102df5780632eb2c2d6146103105780632f2ff15d1461032357600080fd5b8062fdd58e1461023657806301ffc9a71461025c57806306fdde031461027f5780630e89341c14610294575b600080fd5b610249610244366004612d66565b6105cc565b6040519081526020015b60405180910390f35b61026f61026a366004612da8565b610668565b6040519015158152602001610253565b610287610673565b6040516102539190612e1d565b6102876102a2366004612e30565b610702565b6102ba6102b5366004612ed5565b610796565b005b6102496102ca366004612e30565b60009081526065602052604090206001015490565b6102ba6102ed366004612f81565b6101f580546001600160a01b0319166001600160a01b0392909216919091179055565b6102ba61031e3660046130f1565b6107ea565b6102ba61033136600461319e565b6109b1565b6102ba61034436600461319e565b6109dc565b6102ba6103573660046131dc565b610a5a565b6102ba610abe565b610249610372366004613227565b610b52565b61038a610385366004613268565b610b65565b604051610253919061336f565b61026f6103a5366004612e30565b60009081526101c36020526040902054151590565b61012d5460ff1661026f565b6102ba6103d4366004613382565b610c8e565b6102ba6103e73660046133f7565b610cd1565b6102496103fa366004612e30565b60009081526101fa602052604090205490565b6102ba61041b366004613460565b610d19565b61024961042e366004612e30565b6101f86020526000908152604090205481565b6102ba610fab565b6102ba61107c565b61046461045f3660046134c1565b61110e565b6040516001600160a01b039091168152602001610253565b61026f61048a36600461319e565b611126565b6102496101f65481565b610249600081565b6102ba6104af3660046134e3565b611151565b6102496104c2366004612e30565b60009081526101c3602052604090205490565b6102496104e3366004612e30565b61115c565b6102497f9f2df0fed2c77648de5860a4cc508cd0818c85b8b8a1ab4ceeef8d981c8956a681565b6102ba61051d36600461319e565b611173565b610535610530366004612e30565b611199565b6040516102539190613511565b610249600080516020613eca83398151915281565b61026f6105653660046135a8565b6001600160a01b03918216600090815260ca6020908152604080832093909416825291909152205460ff1690565b6102ba6105a13660046135d6565b6111aa565b6102ba6105b436600461363e565b6111f6565b6102ba6105c7366004613673565b611239565b60006001600160a01b03831661063d5760405162461bcd60e51b815260206004820152602b60248201527f455243313135353a2062616c616e636520717565727920666f7220746865207a60448201526a65726f206164647265737360a81b60648201526084015b60405180910390fd5b50600081815260c9602090815260408083206001600160a01b03861684529091529020545b92915050565b6000610662826112b4565b6101f78054610681906136c3565b80601f01602080910402602001604051908101604052809291908181526020018280546106ad906136c3565b80156106fa5780601f106106cf576101008083540402835291602001916106fa565b820191906000526020600020905b8154815290600101906020018083116106dd57829003601f168201915b505050505081565b606060cb8054610711906136c3565b80601f016020809104026020016040519081016040528092919081815260200182805461073d906136c3565b801561078a5780601f1061075f5761010080835404028352916020019161078a565b820191906000526020600020905b81548152906001019060200180831161076d57829003601f168201915b50505050509050919050565b60405162461bcd60e51b815260206004820152602360248201527f52656d6f76616c3a2045524331313535206d696e7442617463682064697361626044820152621b195960ea1b6064820152608401610634565b600083516001600160401b0381111561080557610805612f9e565b60405190808252806020026020018201604052801561082e578160200160208202803683370190505b509050600084516001600160401b0381111561084c5761084c612f9e565b604051908082528060200260200182016040528015610875578160200160208202803683370190505b50905060005b8551811015610937576108a6868281518110610899576108996136fd565b60200260200101516112bf565b8382815181106108b8576108b86136fd565b60200260200101906001600160a01b031690816001600160a01b0316815250506109088682815181106108ed576108ed6136fd565b602002602001015160009081526101fa602052604090205490565b82828151811061091a5761091a6136fd565b60209081029190910101528061092f81613729565b91505061087b565b506101f554604051638f9e8e4960e01b81526001600160a01b0390911690638f9e8e499061096990889060040161336f565b600060405180830381600087803b15801561098357600080fd5b505af1158015610997573d6000803e3d6000fd5b505050506109a887878787876112ce565b50505050505050565b6000828152606560205260409020600101546109cd813361135e565b6109d783836113c2565b505050565b6001600160a01b0381163314610a4c5760405162461bcd60e51b815260206004820152602f60248201527f416363657373436f6e74726f6c3a2063616e206f6e6c792072656e6f756e636560448201526e103937b632b9903337b91039b2b63360891b6064820152608401610634565b610a5682826113e4565b5050565b6000610a66813361135e565b61012d5460ff1615610aad5760405162461bcd60e51b815260206004820152601060248201526f14185d5cd8589b194e881c185d5cd95960821b6044820152606401610634565b610ab8848484611406565b50505050565b610ad6600080516020613eca83398151915233611126565b610b485760405162461bcd60e51b815260206004820152603b60248201527f455243313135355072657365744d696e7465725061757365723a206d7573742060448201527f686176652070617573657220726f6c6520746f20756e706175736500000000006064820152608401610634565b610b506114e6565b565b6000610b5e838361157b565b9392505050565b60608151835114610bca5760405162461bcd60e51b815260206004820152602960248201527f455243313135353a206163636f756e747320616e6420696473206c656e677468604482015268040dad2e6dac2e8c6d60bb1b6064820152608401610634565b600083516001600160401b03811115610be557610be5612f9e565b604051908082528060200260200182016040528015610c0e578160200160208202803683370190505b50905060005b8451811015610c8657610c59858281518110610c3257610c326136fd565b6020026020010151858381518110610c4c57610c4c6136fd565b60200260200101516105cc565b828281518110610c6b57610c6b6136fd565b6020908102919091010152610c7f81613729565b9050610c14565b509392505050565b6001600160a01b038316331480610caa5750610caa8333610565565b610cc65760405162461bcd60e51b815260040161063490613742565b6109d7838383611891565b60405162461bcd60e51b815260206004820152601f60248201527f52656d6f76616c3a204552432031313535206d696e742064697361626c6564006044820152606401610634565b8251845114610d7b5760405162461bcd60e51b815260206004820152602860248201527f52656d6f76616c3a20616d6f756e747320616e6420696473206c656e677468206044820152670dad2e6dac2e8c6d60c31b6064820152608401610634565b8151845114610de95760405162461bcd60e51b815260206004820152603460248201527f52656d6f76616c3a20616d6f756e747320616e6420657363726f7753636865646044820152730ead8caa6e8c2e4e8a8d2dacae65cd8cadccee8d60631b6064820152608401610634565b600081806020019051810190610dff919061378b565b905060005b8451811015610f6f576101f96000868381518110610e2457610e246136fd565b60209081029190910181015182528101919091526040016000205460ff1615610e7d57848181518110610e5957610e596136fd565b6020026020010151604051634acb9c2960e01b815260040161063491815260200190565b838181518110610e8f57610e8f6136fd565b60200260200101516101fa6000878481518110610eae57610eae6136fd565b602002602001015181526020019081526020016000208190555060016101f96000878481518110610ee157610ee16136fd565b6020026020010151815260200190815260200160002060006101000a81548160ff021916908315150217905550848181518110610f2057610f206136fd565b60200260200101516101f860006101f65481526020019081526020016000208190555060016101f66000828254610f5791906137e9565b90915550819050610f6781613729565b915050610e04565b50610f7c86858785611a22565b610f8886336001610a5a565b806020015115610fa357610fa38682600001518688866107ea565b505050505050565b600054610100900460ff16610fc65760005460ff1615610fca565b303b155b610fe65760405162461bcd60e51b815260040161063490613801565b600054610100900460ff16158015611008576000805461ffff19166101011790555b611029604051806060016040528060268152602001613eea60269139611239565b611031611aca565b60006101f6556040805180820190915260078082526614995b5bdd985b60ca1b6020909201918252611066916101f791612c64565b508015611079576000805461ff00191690555b50565b611094600080516020613eca83398151915233611126565b6111065760405162461bcd60e51b815260206004820152603960248201527f455243313135355072657365744d696e7465725061757365723a206d7573742060448201527f686176652070617573657220726f6c6520746f207061757365000000000000006064820152608401610634565b610b50611af1565b6000828152609760205260408120610b5e9083611b6e565b60009182526065602090815260408084206001600160a01b0393909316845291905290205460ff1690565b610a56338383611406565b600081815260976020526040812061066290611b7a565b60008281526065602052604090206001015461118f813361135e565b6109d783836113e4565b6111a1612ce8565b61066282611b84565b6001600160a01b0385163314806111c657506111c68533610565565b6111e25760405162461bcd60e51b815260040161063490613742565b6111ef8585858585611c3b565b5050505050565b6001600160a01b03831633148061121257506112128333610565565b61122e5760405162461bcd60e51b815260040161063490613742565b6109d7838383611d62565b600054610100900460ff166112545760005460ff1615611258565b303b155b6112745760405162461bcd60e51b815260040161063490613801565b600054610100900460ff16158015611296576000805461ffff19166101011790555b61129f82611e67565b8015610a56576000805461ff00191690555050565b600061066282611ea8565b60006106628260146004611ee8565b6001600160a01b0385163314806112ea57506112ea8533610565565b6113515760405162461bcd60e51b815260206004820152603260248201527f455243313135353a207472616e736665722063616c6c6572206973206e6f74206044820152711bdddb995c881b9bdc88185c1c1c9bdd995960721b6064820152608401610634565b6111ef8585858585611f34565b6113688282611126565b610a5657611380816001600160a01b031660146120d9565b61138b8360206120d9565b60405160200161139c92919061384f565b60408051601f198184030181529082905262461bcd60e51b825261063491600401612e1d565b6113cc8282612274565b60008281526097602052604090206109d790826122fa565b6113ee828261230f565b60008281526097602052604090206109d79082612376565b816001600160a01b0316836001600160a01b0316036114795760405162461bcd60e51b815260206004820152602960248201527f455243313135353a2073657474696e6720617070726f76616c20737461747573604482015268103337b91039b2b63360b91b6064820152608401610634565b6001600160a01b03838116600081815260ca6020908152604080832094871680845294825291829020805460ff191686151590811790915591519182527f17307eab39ab6107e8899845ad3d59bd9653f200f220920489ca2b5937696c31910160405180910390a3505050565b61012d5460ff166115305760405162461bcd60e51b815260206004820152601460248201527314185d5cd8589b194e881b9bdd081c185d5cd95960621b6044820152606401610634565b61012d805460ff191690557f5db9ee0a495bf2e6ff9c91a7834c1ba4fdd244a5e8aa4e537bd38aeae4b073aa335b6040516001600160a01b03909116815260200160405180910390a1565b60008061158a838501856138d5565b60ff16905080156115e95760405162461bcd60e51b8152602060048201526024808201527f556e737570706f727465642072656d6f76616c20746f6b656e2069642076657260448201526339b4b7b760e11b6064820152608401610634565b610100831461164d5760405162461bcd60e51b815260206004820152602a60248201527f72656d6f76616c4461746120636f6e7461696e732077726f6e67206e756d626560448201526972206f6620627974657360b01b6064820152608401610634565b600061165b8486018661392e565b9050600f816020015160ff1611156116ad5760405162461bcd60e51b81526020600482015260156024820152744d6574686f6c6f646f677920746f6f206c6172676560581b6044820152606401610634565b600f816040015160ff1611156117055760405162461bcd60e51b815260206004820152601d60248201527f4d6574686f6c6f646f67792076657273696f6e20746f6f206c617267650000006044820152606401610634565b608081015160a082015160f882811c9260ff60f091821c8116939283901c9290911c166041841080159061173a5750605a8411155b8015611747575060418310155b80156117545750605a8311155b8015611761575060418210155b801561176e5750605a8211155b801561177b575060418110155b80156117885750605a8111155b6117c45760405162461bcd60e51b815260206004820152600d60248201526c496e76616c696420415343494960981b6044820152606401610634565b600085604001516004876020015160ff16901b1760ff169050600860006117eb91906139f2565b60e087015163ffffffff16901b611804600860046139f2565b60c08801516001600160a01b0316901b611820600860186139f2565b60a089015160f01c901b6118366008601a6139f2565b60808a015160f01c901b61184c6008601c6139f2565b60608b015161ffff16901b6118636008601e6139f2565b86901b6118726008601f6139f2565b8c6000015160ff16901b17171717171797505050505050505092915050565b6001600160a01b0383166118b75760405162461bcd60e51b815260040161063490613a11565b80518251146118d85760405162461bcd60e51b815260040161063490613a54565b60003390506118fb8185600086866040518060200160405280600081525061238b565b60005b83518110156119c357600084828151811061191b5761191b6136fd565b602002602001015190506000848381518110611939576119396136fd565b602090810291909101810151600084815260c9835260408082206001600160a01b038c16835290935291909120549091508181101561198a5760405162461bcd60e51b815260040161063490613a9c565b600092835260c9602090815260408085206001600160a01b038b16865290915290922091039055806119bb81613729565b9150506118fe565b5060006001600160a01b0316846001600160a01b0316826001600160a01b03167f4a39dc06d4c0dbc64b70af90fd698a233a518aa5d07e595d983b8c0526c8f7fb8686604051611a14929190613ae0565b60405180910390a450505050565b611a4c7f9f2df0fed2c77648de5860a4cc508cd0818c85b8b8a1ab4ceeef8d981c8956a633611126565b611abe5760405162461bcd60e51b815260206004820152603860248201527f455243313135355072657365744d696e7465725061757365723a206d7573742060448201527f68617665206d696e74657220726f6c6520746f206d696e7400000000000000006064820152608401610634565b610ab884848484612399565b600054610100900460ff16610b505760405162461bcd60e51b815260040161063490613b0e565b61012d5460ff1615611b385760405162461bcd60e51b815260206004820152601060248201526f14185d5cd8589b194e881c185d5cd95960821b6044820152606401610634565b61012d805460ff191660011790557f62e78cea01bee320cd4e420270b5ea74000d11b0c9f74754ebdbfc544b05a25861155e3390565b6000610b5e838361252e565b6000610662825490565b611b8c612ce8565b604051806101000160405280611ba184612558565b60ff168152602001611bb284612567565b60ff168152602001611bc384612580565b60ff168152602001611bd484612598565b61ffff168152602001611be6846125a7565b6001600160f01b0319168152602001611bfe846125bf565b6001600160f01b0319168152602001611c16846112bf565b6001600160a01b03168152602001611c2d846125ce565b63ffffffff16905292915050565b6001600160a01b038416611c615760405162461bcd60e51b815260040161063490613b59565b33611c80818787611c71886125dd565b611c7a886125dd565b8761238b565b600084815260c9602090815260408083206001600160a01b038a16845290915290205483811015611cc35760405162461bcd60e51b815260040161063490613b9e565b600085815260c9602090815260408083206001600160a01b038b8116855292528083208785039055908816825281208054869290611d029084906137e9565b909155505060408051868152602081018690526001600160a01b03808916928a821692918616917fc3d58168c5ae7397731d063d5bbf3d657854427343f4c083240f7aacaa2d0f62910160405180910390a46109a8828888888888612628565b6001600160a01b038316611d885760405162461bcd60e51b815260040161063490613a11565b33611db781856000611d99876125dd565b611da2876125dd565b6040518060200160405280600081525061238b565b600083815260c9602090815260408083206001600160a01b038816845290915290205482811015611dfa5760405162461bcd60e51b815260040161063490613a9c565b600084815260c9602090815260408083206001600160a01b03898116808652918452828520888703905582518981529384018890529092908616917fc3d58168c5ae7397731d063d5bbf3d657854427343f4c083240f7aacaa2d0f62910160405180910390a45050505050565b600054610100900460ff16611e8e5760405162461bcd60e51b815260040161063490613b0e565b611e9781612783565b611e9f6127b3565b611079816127e7565b60006001600160e01b03198216636cdb3d1360e11b1480611ed957506001600160e01b031982166303a24d0760e21b145b8061066257506106628261285b565b600080611ef66008846139f2565b6001611f036008876139f2565b611f0e906002613ccc565b611f189190613cd8565b901b9050848116611f2a6008856139f2565b1c95945050505050565b8151835114611f555760405162461bcd60e51b815260040161063490613a54565b6001600160a01b038416611f7b5760405162461bcd60e51b815260040161063490613b59565b33611f8a81878787878761238b565b60005b8451811015612073576000858281518110611faa57611faa6136fd565b602002602001015190506000858381518110611fc857611fc86136fd565b602090810291909101810151600084815260c9835260408082206001600160a01b038e1683529093529190912054909150818110156120195760405162461bcd60e51b815260040161063490613b9e565b600083815260c9602090815260408083206001600160a01b038e8116855292528083208585039055908b168252812080548492906120589084906137e9565b925050819055505050508061206c90613729565b9050611f8d565b50846001600160a01b0316866001600160a01b0316826001600160a01b03167f4a39dc06d4c0dbc64b70af90fd698a233a518aa5d07e595d983b8c0526c8f7fb87876040516120c3929190613ae0565b60405180910390a4610fa3818787878787612880565b606060006120e88360026139f2565b6120f39060026137e9565b6001600160401b0381111561210a5761210a612f9e565b6040519080825280601f01601f191660200182016040528015612134576020820181803683370190505b509050600360fc1b8160008151811061214f5761214f6136fd565b60200101906001600160f81b031916908160001a905350600f60fb1b8160018151811061217e5761217e6136fd565b60200101906001600160f81b031916908160001a90535060006121a28460026139f2565b6121ad9060016137e9565b90505b6001811115612225576f181899199a1a9b1b9c1cb0b131b232b360811b85600f16601081106121e1576121e16136fd565b1a60f81b8282815181106121f7576121f76136fd565b60200101906001600160f81b031916908160001a90535060049490941c9361221e81613cef565b90506121b0565b508315610b5e5760405162461bcd60e51b815260206004820181905260248201527f537472696e67733a20686578206c656e67746820696e73756666696369656e746044820152606401610634565b61227e8282611126565b610a565760008281526065602090815260408083206001600160a01b03851684529091529020805460ff191660011790556122b63390565b6001600160a01b0316816001600160a01b0316837f2f8788117e7eff1d82e926ec794901d17c78024a50270940304540a733656f0d60405160405180910390a45050565b6000610b5e836001600160a01b03841661293b565b6123198282611126565b15610a565760008281526065602090815260408083206001600160a01b0385168085529252808320805460ff1916905551339285917ff6391f5c32d9c69d2a47ea670b442974b53935d1edc7fd64eb21e047a839171b9190a45050565b6000610b5e836001600160a01b03841661298a565b610fa3868686868686612a84565b6001600160a01b0384166123f95760405162461bcd60e51b815260206004820152602160248201527f455243313135353a206d696e7420746f20746865207a65726f206164647265736044820152607360f81b6064820152608401610634565b815183511461241a5760405162461bcd60e51b815260040161063490613a54565b3361242a8160008787878761238b565b60005b84518110156124c657838181518110612448576124486136fd565b602002602001015160c96000878481518110612466576124666136fd565b602002602001015181526020019081526020016000206000886001600160a01b03166001600160a01b0316815260200190815260200160002060008282546124ae91906137e9565b909155508190506124be81613729565b91505061242d565b50846001600160a01b031660006001600160a01b0316826001600160a01b03167f4a39dc06d4c0dbc64b70af90fd698a233a518aa5d07e595d983b8c0526c8f7fb8787604051612517929190613ae0565b60405180910390a46111ef81600087878787612880565b6000826000018281548110612545576125456136fd565b9060005260206000200154905092915050565b6000610662826001601f611ee8565b60006004612578836001601e611ee8565b901c92915050565b600061258f826001601e611ee8565b600f1692915050565b6000610662826002601c611ee8565b60006125b6826002601a611ee8565b60f01b92915050565b60006125b68260026018611ee8565b60006106628260046000611ee8565b60408051600180825281830190925260609160009190602080830190803683370190505090508281600081518110612617576126176136fd565b602090810291909101015292915050565b6001600160a01b0384163b15610fa35760405163f23a6e6160e01b81526001600160a01b0385169063f23a6e619061266c9089908990889088908890600401613d06565b6020604051808303816000875af19250505080156126a7575060408051601f3d908101601f191682019092526126a491810190613d4b565b60015b612753576126b3613d68565b806308c379a0036126ec57506126c7613d84565b806126d257506126ee565b8060405162461bcd60e51b81526004016106349190612e1d565b505b60405162461bcd60e51b815260206004820152603460248201527f455243313135353a207472616e7366657220746f206e6f6e20455243313135356044820152732932b1b2b4bb32b91034b6b83632b6b2b73a32b960611b6064820152608401610634565b6001600160e01b0319811663f23a6e6160e01b146109a85760405162461bcd60e51b815260040161063490613e0d565b600054610100900460ff166127aa5760405162461bcd60e51b815260040161063490613b0e565b61107981612ba0565b600054610100900460ff166127da5760405162461bcd60e51b815260040161063490613b0e565b61012d805460ff19169055565b600054610100900460ff1661280e5760405162461bcd60e51b815260040161063490613b0e565b612819600033612bb3565b6128437f9f2df0fed2c77648de5860a4cc508cd0818c85b8b8a1ab4ceeef8d981c8956a633612bb3565b611079600080516020613eca83398151915233612bb3565b60006001600160e01b03198216635a05180f60e01b1480610662575061066282612bbd565b6001600160a01b0384163b15610fa35760405163bc197c8160e01b81526001600160a01b0385169063bc197c81906128c49089908990889088908890600401613e55565b6020604051808303816000875af19250505080156128ff575060408051601f3d908101601f191682019092526128fc91810190613d4b565b60015b61290b576126b3613d68565b6001600160e01b0319811663bc197c8160e01b146109a85760405162461bcd60e51b815260040161063490613e0d565b600081815260018301602052604081205461298257508154600181810184556000848152602080822090930184905584548482528286019093526040902091909155610662565b506000610662565b60008181526001830160205260408120548015612a735760006129ae600183613cd8565b85549091506000906129c290600190613cd8565b9050818114612a275760008660000182815481106129e2576129e26136fd565b9060005260206000200154905080876000018481548110612a0557612a056136fd565b6000918252602080832090910192909255918252600188019052604090208390555b8554869080612a3857612a38613eb3565b600190038181906000526020600020016000905590558560010160008681526020019081526020016000206000905560019350505050610662565b6000915050610662565b5092915050565b612a92868686868686612bf2565b6001600160a01b038516612b1a5760005b8351811015612b1857828181518110612abe57612abe6136fd565b60200260200101516101c36000868481518110612add57612add6136fd565b602002602001015181526020019081526020016000206000828254612b0291906137e9565b90915550612b11905081613729565b9050612aa3565b505b6001600160a01b038416610fa35760005b83518110156109a857828181518110612b4657612b466136fd565b60200260200101516101c36000868481518110612b6557612b656136fd565b602002602001015181526020019081526020016000206000828254612b8a9190613cd8565b90915550612b99905081613729565b9050612b2b565b8051610a569060cb906020840190612c64565b610a5682826113c2565b60006001600160e01b03198216637965db0b60e01b148061066257506301ffc9a760e01b6001600160e01b0319831614610662565b610fa386868686868661012d5460ff1615610fa35760405162461bcd60e51b815260206004820152602c60248201527f455243313135355061757361626c653a20746f6b656e207472616e736665722060448201526b1dda1a5b19481c185d5cd95960a21b6064820152608401610634565b828054612c70906136c3565b90600052602060002090601f016020900481019282612c925760008555612cd8565b82601f10612cab57805160ff1916838001178555612cd8565b82800160010185558215612cd8579182015b82811115612cd8578251825591602001919060010190612cbd565b50612ce4929150612d2c565b5090565b6040805161010081018252600080825260208201819052918101829052606081018290526080810182905260a0810182905260c0810182905260e081019190915290565b5b80821115612ce45760008155600101612d2d565b6001600160a01b038116811461107957600080fd5b8035612d6181612d41565b919050565b60008060408385031215612d7957600080fd5b8235612d8481612d41565b946020939093013593505050565b6001600160e01b03198116811461107957600080fd5b600060208284031215612dba57600080fd5b8135610b5e81612d92565b60005b83811015612de0578181015183820152602001612dc8565b83811115610ab85750506000910152565b60008151808452612e09816020860160208601612dc5565b601f01601f19169290920160200192915050565b602081526000610b5e6020830184612df1565b600060208284031215612e4257600080fd5b5035919050565b60008083601f840112612e5b57600080fd5b5081356001600160401b03811115612e7257600080fd5b6020830191508360208260051b8501011115612e8d57600080fd5b9250929050565b60008083601f840112612ea657600080fd5b5081356001600160401b03811115612ebd57600080fd5b602083019150836020828501011115612e8d57600080fd5b60008060008060008060006080888a031215612ef057600080fd5b8735612efb81612d41565b965060208801356001600160401b0380821115612f1757600080fd5b612f238b838c01612e49565b909850965060408a0135915080821115612f3c57600080fd5b612f488b838c01612e49565b909650945060608a0135915080821115612f6157600080fd5b50612f6e8a828b01612e94565b989b979a50959850939692959293505050565b600060208284031215612f9357600080fd5b8135610b5e81612d41565b634e487b7160e01b600052604160045260246000fd5b601f8201601f191681016001600160401b0381118282101715612fd957612fd9612f9e565b6040525050565b60006001600160401b03821115612ff957612ff9612f9e565b5060051b60200190565b600082601f83011261301457600080fd5b8135602061302182612fe0565b60405161302e8282612fb4565b83815260059390931b850182019282810191508684111561304e57600080fd5b8286015b848110156130695780358352918301918301613052565b509695505050505050565b60006001600160401b0383111561308d5761308d612f9e565b6040516130a4601f8501601f191660200182612fb4565b8091508381528484840111156130b957600080fd5b83836020830137600060208583010152509392505050565b600082601f8301126130e257600080fd5b610b5e83833560208501613074565b600080600080600060a0868803121561310957600080fd5b853561311481612d41565b9450602086013561312481612d41565b935060408601356001600160401b038082111561314057600080fd5b61314c89838a01613003565b9450606088013591508082111561316257600080fd5b61316e89838a01613003565b9350608088013591508082111561318457600080fd5b50613191888289016130d1565b9150509295509295909350565b600080604083850312156131b157600080fd5b8235915060208301356131c381612d41565b809150509250929050565b801515811461107957600080fd5b6000806000606084860312156131f157600080fd5b83356131fc81612d41565b9250602084013561320c81612d41565b9150604084013561321c816131ce565b809150509250925092565b6000806020838503121561323a57600080fd5b82356001600160401b0381111561325057600080fd5b61325c85828601612e94565b90969095509350505050565b6000806040838503121561327b57600080fd5b82356001600160401b038082111561329257600080fd5b818501915085601f8301126132a657600080fd5b813560206132b382612fe0565b6040516132c08282612fb4565b83815260059390931b85018201928281019150898411156132e057600080fd5b948201945b838610156133075785356132f881612d41565b825294820194908201906132e5565b9650508601359250508082111561331d57600080fd5b5061332a85828601613003565b9150509250929050565b600081518084526020808501945080840160005b8381101561336457815187529582019590820190600101613348565b509495945050505050565b602081526000610b5e6020830184613334565b60008060006060848603121561339757600080fd5b83356133a281612d41565b925060208401356001600160401b03808211156133be57600080fd5b6133ca87838801613003565b935060408601359150808211156133e057600080fd5b506133ed86828701613003565b9150509250925092565b60008060008060006080868803121561340f57600080fd5b853561341a81612d41565b9450602086013593506040860135925060608601356001600160401b0381111561344357600080fd5b61344f88828901612e94565b969995985093965092949392505050565b600080600080600060a0868803121561347857600080fd5b853561348381612d41565b945060208601356001600160401b038082111561349f57600080fd5b6134ab89838a01613003565b9550604088013591508082111561314057600080fd5b600080604083850312156134d457600080fd5b50508035926020909101359150565b600080604083850312156134f657600080fd5b823561350181612d41565b915060208301356131c3816131ce565b60006101008201905060ff835116825260ff602084015116602083015260ff604084015116604083015261ffff606084015116606083015261ffff60f01b608084015116608083015260a083015161357560a08401826001600160f01b0319169052565b5060c083015161359060c08401826001600160a01b03169052565b5060e0830151612a7d60e084018263ffffffff169052565b600080604083850312156135bb57600080fd5b82356135c681612d41565b915060208301356131c381612d41565b600080600080600060a086880312156135ee57600080fd5b85356135f981612d41565b9450602086013561360981612d41565b9350604086013592506060860135915060808601356001600160401b0381111561363257600080fd5b613191888289016130d1565b60008060006060848603121561365357600080fd5b833561365e81612d41565b95602085013595506040909401359392505050565b60006020828403121561368557600080fd5b81356001600160401b0381111561369b57600080fd5b8201601f810184136136ac57600080fd5b6136bb84823560208401613074565b949350505050565b600181811c908216806136d757607f821691505b6020821081036136f757634e487b7160e01b600052602260045260246000fd5b50919050565b634e487b7160e01b600052603260045260246000fd5b634e487b7160e01b600052601160045260246000fd5b60006001820161373b5761373b613713565b5060010190565b60208082526029908201527f455243313135353a2063616c6c6572206973206e6f74206f776e6572206e6f7260408201526808185c1c1c9bdd995960ba1b606082015260800190565b60006040828403121561379d57600080fd5b604051604081018181106001600160401b03821117156137bf576137bf612f9e565b60405282516137cd81612d41565b815260208301516137dd816131ce565b60208201529392505050565b600082198211156137fc576137fc613713565b500190565b6020808252602e908201527f496e697469616c697a61626c653a20636f6e747261637420697320616c72656160408201526d191e481a5b9a5d1a585b1a5e995960921b606082015260800190565b7f416363657373436f6e74726f6c3a206163636f756e7420000000000000000000815260008351613887816017850160208801612dc5565b7001034b99036b4b9b9b4b733903937b6329607d1b60179184019182015283516138b8816028840160208801612dc5565b01602801949350505050565b803560ff81168114612d6157600080fd5b6000602082840312156138e757600080fd5b610b5e826138c4565b803561ffff81168114612d6157600080fd5b80356001600160f01b031981168114612d6157600080fd5b803563ffffffff81168114612d6157600080fd5b600061010080838503121561394257600080fd5b604051908101906001600160401b038211818310171561396457613964612f9e565b81604052613971846138c4565b815261397f602085016138c4565b6020820152613990604085016138c4565b60408201526139a1606085016138f0565b60608201526139b260808501613902565b60808201526139c360a08501613902565b60a08201526139d460c08501612d56565b60c08201526139e560e0850161391a565b60e0820152949350505050565b6000816000190483118215151615613a0c57613a0c613713565b500290565b60208082526023908201527f455243313135353a206275726e2066726f6d20746865207a65726f206164647260408201526265737360e81b606082015260800190565b60208082526028908201527f455243313135353a2069647320616e6420616d6f756e7473206c656e677468206040820152670dad2e6dac2e8c6d60c31b606082015260800190565b60208082526024908201527f455243313135353a206275726e20616d6f756e7420657863656564732062616c604082015263616e636560e01b606082015260800190565b604081526000613af36040830185613334565b8281036020840152613b058185613334565b95945050505050565b6020808252602b908201527f496e697469616c697a61626c653a20636f6e7472616374206973206e6f74206960408201526a6e697469616c697a696e6760a81b606082015260800190565b60208082526025908201527f455243313135353a207472616e7366657220746f20746865207a65726f206164604082015264647265737360d81b606082015260800190565b6020808252602a908201527f455243313135353a20696e73756666696369656e742062616c616e636520666f60408201526939103a3930b739b332b960b11b606082015260800190565b600181815b80851115613c23578160001904821115613c0957613c09613713565b80851615613c1657918102915b93841c9390800290613bed565b509250929050565b600082613c3a57506001610662565b81613c4757506000610662565b8160018114613c5d5760028114613c6757613c83565b6001915050610662565b60ff841115613c7857613c78613713565b50506001821b610662565b5060208310610133831016604e8410600b8410161715613ca6575081810a610662565b613cb08383613be8565b8060001904821115613cc457613cc4613713565b029392505050565b6000610b5e8383613c2b565b600082821015613cea57613cea613713565b500390565b600081613cfe57613cfe613713565b506000190190565b6001600160a01b03868116825285166020820152604081018490526060810183905260a060808201819052600090613d4090830184612df1565b979650505050505050565b600060208284031215613d5d57600080fd5b8151610b5e81612d92565b600060033d1115613d815760046000803e5060005160e01c5b90565b600060443d1015613d925790565b6040516003193d81016004833e81513d6001600160401b038160248401118184111715613dc157505050505090565b8285019150815181811115613dd95750505050505090565b843d8701016020828501011115613df35750505050505090565b613e0260208286010187612fb4565b509095945050505050565b60208082526028908201527f455243313135353a204552433131353552656365697665722072656a656374656040820152676420746f6b656e7360c01b606082015260800190565b6001600160a01b0386811682528516602082015260a060408201819052600090613e8190830186613334565b8281036060840152613e938186613334565b90508281036080840152613ea78185612df1565b98975050505050505050565b634e487b7160e01b600052603160045260246000fdfe65d7a28e3265b37a6474929f336521b332c1681b933f6cb9f3376673440d862a68747470733a2f2f6e6f72692e636f6d2f6170692f72656d6f76616c2f7b69647d2e6a736f6ea264697066735822122069b4f5b44978d21a813934326bbd198b8e6b63ab5d1a82c09a03eaaad6c9875264736f6c634300080d0033",
  "linkReferences": {},
  "deployedLinkReferences": {}
}