{
  "_format": "hh-sol-artifact-1",
  "contractName": "Removal",
  "sourceName": "contracts/Removal.sol",
  "abi": [
    {
      "inputs": [
        {
          "internalType": "address",
          "name": "account",
          "type": "address"
        },
        {
          "internalType": "string",
          "name": "role",
          "type": "string"
        }
      ],
      "name": "MissingRole",
      "type": "error"
    },
    {
      "inputs": [
        {
          "internalType": "uint256",
          "name": "tokenId",
          "type": "uint256"
        }
      ],
      "name": "TokenIdExists",
      "type": "error"
    },
    {
      "anonymous": false,
      "inputs": [
        {
          "indexed": true,
          "internalType": "address",
          "name": "account",
          "type": "address"
        },
        {
          "indexed": true,
          "internalType": "address",
          "name": "operator",
          "type": "address"
        },
        {
          "indexed": false,
          "internalType": "bool",
          "name": "approved",
          "type": "bool"
        }
      ],
      "name": "ApprovalForAll",
      "type": "event"
    },
    {
      "anonymous": false,
      "inputs": [
        {
          "indexed": false,
          "internalType": "address",
          "name": "account",
          "type": "address"
        }
      ],
      "name": "Paused",
      "type": "event"
    },
    {
      "anonymous": false,
      "inputs": [
        {
          "indexed": true,
          "internalType": "bytes32",
          "name": "role",
          "type": "bytes32"
        },
        {
          "indexed": true,
          "internalType": "bytes32",
          "name": "previousAdminRole",
          "type": "bytes32"
        },
        {
          "indexed": true,
          "internalType": "bytes32",
          "name": "newAdminRole",
          "type": "bytes32"
        }
      ],
      "name": "RoleAdminChanged",
      "type": "event"
    },
    {
      "anonymous": false,
      "inputs": [
        {
          "indexed": true,
          "internalType": "bytes32",
          "name": "role",
          "type": "bytes32"
        },
        {
          "indexed": true,
          "internalType": "address",
          "name": "account",
          "type": "address"
        },
        {
          "indexed": true,
          "internalType": "address",
          "name": "sender",
          "type": "address"
        }
      ],
      "name": "RoleGranted",
      "type": "event"
    },
    {
      "anonymous": false,
      "inputs": [
        {
          "indexed": true,
          "internalType": "bytes32",
          "name": "role",
          "type": "bytes32"
        },
        {
          "indexed": true,
          "internalType": "address",
          "name": "account",
          "type": "address"
        },
        {
          "indexed": true,
          "internalType": "address",
          "name": "sender",
          "type": "address"
        }
      ],
      "name": "RoleRevoked",
      "type": "event"
    },
    {
      "anonymous": false,
      "inputs": [
        {
          "indexed": true,
          "internalType": "address",
          "name": "operator",
          "type": "address"
        },
        {
          "indexed": true,
          "internalType": "address",
          "name": "from",
          "type": "address"
        },
        {
          "indexed": true,
          "internalType": "address",
          "name": "to",
          "type": "address"
        },
        {
          "indexed": false,
          "internalType": "uint256[]",
          "name": "ids",
          "type": "uint256[]"
        },
        {
          "indexed": false,
          "internalType": "uint256[]",
          "name": "values",
          "type": "uint256[]"
        }
      ],
      "name": "TransferBatch",
      "type": "event"
    },
    {
      "anonymous": false,
      "inputs": [
        {
          "indexed": true,
          "internalType": "address",
          "name": "operator",
          "type": "address"
        },
        {
          "indexed": true,
          "internalType": "address",
          "name": "from",
          "type": "address"
        },
        {
          "indexed": true,
          "internalType": "address",
          "name": "to",
          "type": "address"
        },
        {
          "indexed": false,
          "internalType": "uint256",
          "name": "id",
          "type": "uint256"
        },
        {
          "indexed": false,
          "internalType": "uint256",
          "name": "value",
          "type": "uint256"
        }
      ],
      "name": "TransferSingle",
      "type": "event"
    },
    {
      "anonymous": false,
      "inputs": [
        {
          "indexed": false,
          "internalType": "string",
          "name": "value",
          "type": "string"
        },
        {
          "indexed": true,
          "internalType": "uint256",
          "name": "id",
          "type": "uint256"
        }
      ],
      "name": "URI",
      "type": "event"
    },
    {
      "anonymous": false,
      "inputs": [
        {
          "indexed": false,
          "internalType": "address",
          "name": "account",
          "type": "address"
        }
      ],
      "name": "Unpaused",
      "type": "event"
    },
    {
      "inputs": [],
      "name": "CONTRACT_INITIALIZER_ROLE",
      "outputs": [
        {
          "internalType": "bytes32",
          "name": "",
          "type": "bytes32"
        }
      ],
      "stateMutability": "view",
      "type": "function"
    },
    {
      "inputs": [],
      "name": "DEFAULT_ADMIN_ROLE",
      "outputs": [
        {
          "internalType": "bytes32",
          "name": "",
          "type": "bytes32"
        }
      ],
      "stateMutability": "view",
      "type": "function"
    },
    {
      "inputs": [],
      "name": "MINTER_ROLE",
      "outputs": [
        {
          "internalType": "bytes32",
          "name": "",
          "type": "bytes32"
        }
      ],
      "stateMutability": "view",
      "type": "function"
    },
    {
      "inputs": [],
      "name": "PAUSER_ROLE",
      "outputs": [
        {
          "internalType": "bytes32",
          "name": "",
          "type": "bytes32"
        }
      ],
      "stateMutability": "view",
      "type": "function"
    },
    {
      "inputs": [
        {
          "internalType": "address",
          "name": "_contractInitializer",
          "type": "address"
        }
      ],
      "name": "addContractInitializer",
      "outputs": [],
      "stateMutability": "nonpayable",
      "type": "function"
    },
    {
      "inputs": [
        {
          "internalType": "address",
          "name": "account",
          "type": "address"
        },
        {
          "internalType": "uint256",
          "name": "id",
          "type": "uint256"
        }
      ],
      "name": "balanceOf",
      "outputs": [
        {
          "internalType": "uint256",
          "name": "",
          "type": "uint256"
        }
      ],
      "stateMutability": "view",
      "type": "function"
    },
    {
      "inputs": [
        {
          "internalType": "address[]",
          "name": "accounts",
          "type": "address[]"
        },
        {
          "internalType": "uint256[]",
          "name": "ids",
          "type": "uint256[]"
        }
      ],
      "name": "balanceOfBatch",
      "outputs": [
        {
          "internalType": "uint256[]",
          "name": "",
          "type": "uint256[]"
        }
      ],
      "stateMutability": "view",
      "type": "function"
    },
    {
      "inputs": [
        {
          "internalType": "address",
          "name": "account",
          "type": "address"
        },
        {
          "internalType": "uint256[]",
          "name": "ids",
          "type": "uint256[]"
        }
      ],
      "name": "balanceOfIds",
      "outputs": [
        {
          "internalType": "uint256[]",
          "name": "",
          "type": "uint256[]"
        }
      ],
      "stateMutability": "view",
      "type": "function"
    },
    {
      "inputs": [
        {
          "internalType": "address",
          "name": "account",
          "type": "address"
        },
        {
          "internalType": "uint256",
          "name": "id",
          "type": "uint256"
        },
        {
          "internalType": "uint256",
          "name": "value",
          "type": "uint256"
        }
      ],
      "name": "burn",
      "outputs": [],
      "stateMutability": "nonpayable",
      "type": "function"
    },
    {
      "inputs": [
        {
          "internalType": "address",
          "name": "account",
          "type": "address"
        },
        {
          "internalType": "uint256[]",
          "name": "ids",
          "type": "uint256[]"
        },
        {
          "internalType": "uint256[]",
          "name": "values",
          "type": "uint256[]"
        }
      ],
      "name": "burnBatch",
      "outputs": [],
      "stateMutability": "nonpayable",
      "type": "function"
    },
    {
      "inputs": [
        {
          "internalType": "bytes",
          "name": "removalData",
          "type": "bytes"
        }
      ],
      "name": "createRemovalId",
      "outputs": [
        {
          "internalType": "uint256",
          "name": "",
          "type": "uint256"
        }
      ],
      "stateMutability": "pure",
      "type": "function"
    },
    {
      "inputs": [
        {
          "internalType": "uint256",
          "name": "id",
          "type": "uint256"
        }
      ],
      "name": "exists",
      "outputs": [
        {
          "internalType": "bool",
          "name": "",
          "type": "bool"
        }
      ],
      "stateMutability": "view",
      "type": "function"
    },
    {
      "inputs": [
        {
          "internalType": "uint256",
          "name": "removalId",
          "type": "uint256"
        }
      ],
      "name": "getRestrictionScheduleStartTimeForRemoval",
      "outputs": [
        {
          "internalType": "uint256",
          "name": "",
          "type": "uint256"
        }
      ],
      "stateMutability": "view",
      "type": "function"
    },
    {
      "inputs": [
        {
          "internalType": "bytes32",
          "name": "role",
          "type": "bytes32"
        }
      ],
      "name": "getRoleAdmin",
      "outputs": [
        {
          "internalType": "bytes32",
          "name": "",
          "type": "bytes32"
        }
      ],
      "stateMutability": "view",
      "type": "function"
    },
    {
      "inputs": [
        {
          "internalType": "bytes32",
          "name": "role",
          "type": "bytes32"
        },
        {
          "internalType": "uint256",
          "name": "index",
          "type": "uint256"
        }
      ],
      "name": "getRoleMember",
      "outputs": [
        {
          "internalType": "address",
          "name": "",
          "type": "address"
        }
      ],
      "stateMutability": "view",
      "type": "function"
    },
    {
      "inputs": [
        {
          "internalType": "bytes32",
          "name": "role",
          "type": "bytes32"
        }
      ],
      "name": "getRoleMemberCount",
      "outputs": [
        {
          "internalType": "uint256",
          "name": "",
          "type": "uint256"
        }
      ],
      "stateMutability": "view",
      "type": "function"
    },
    {
      "inputs": [
        {
          "internalType": "bytes32",
          "name": "role",
          "type": "bytes32"
        },
        {
          "internalType": "address",
          "name": "account",
          "type": "address"
        }
      ],
      "name": "grantRole",
      "outputs": [],
      "stateMutability": "nonpayable",
      "type": "function"
    },
    {
      "inputs": [
        {
          "internalType": "bytes32",
          "name": "role",
          "type": "bytes32"
        },
        {
          "internalType": "address",
          "name": "account",
          "type": "address"
        }
      ],
      "name": "hasRole",
      "outputs": [
        {
          "internalType": "bool",
          "name": "",
          "type": "bool"
        }
      ],
      "stateMutability": "view",
      "type": "function"
    },
    {
      "inputs": [
        {
          "internalType": "uint256",
          "name": "",
          "type": "uint256"
        }
      ],
      "name": "indexToTokenId",
      "outputs": [
        {
          "internalType": "uint256",
          "name": "",
          "type": "uint256"
        }
      ],
      "stateMutability": "view",
      "type": "function"
    },
    {
      "inputs": [],
      "name": "initialize",
      "outputs": [],
      "stateMutability": "nonpayable",
      "type": "function"
    },
    {
      "inputs": [
        {
          "internalType": "string",
          "name": "uri",
          "type": "string"
        }
      ],
      "name": "initialize",
      "outputs": [],
      "stateMutability": "nonpayable",
      "type": "function"
    },
    {
      "inputs": [
        {
          "internalType": "address",
          "name": "restrictedNORIAddress",
          "type": "address"
        }
      ],
      "name": "initializeRestrictedNORI",
      "outputs": [],
      "stateMutability": "nonpayable",
      "type": "function"
    },
    {
      "inputs": [
        {
          "internalType": "address",
          "name": "account",
          "type": "address"
        },
        {
          "internalType": "address",
          "name": "operator",
          "type": "address"
        }
      ],
      "name": "isApprovedForAll",
      "outputs": [
        {
          "internalType": "bool",
          "name": "",
          "type": "bool"
        }
      ],
      "stateMutability": "view",
      "type": "function"
    },
    {
      "inputs": [
        {
          "internalType": "address",
          "name": "",
          "type": "address"
        },
        {
          "internalType": "uint256",
          "name": "",
          "type": "uint256"
        },
        {
          "internalType": "uint256",
          "name": "",
          "type": "uint256"
        },
        {
          "internalType": "bytes",
          "name": "",
          "type": "bytes"
        }
      ],
      "name": "mint",
      "outputs": [],
      "stateMutability": "pure",
      "type": "function"
    },
    {
      "inputs": [
        {
          "internalType": "address",
          "name": "",
          "type": "address"
        },
        {
          "internalType": "uint256[]",
          "name": "",
          "type": "uint256[]"
        },
        {
          "internalType": "uint256[]",
          "name": "",
          "type": "uint256[]"
        },
        {
          "internalType": "bytes",
          "name": "",
          "type": "bytes"
        }
      ],
      "name": "mintBatch",
      "outputs": [],
      "stateMutability": "pure",
      "type": "function"
    },
    {
      "inputs": [
        {
          "internalType": "address",
          "name": "to",
          "type": "address"
        },
        {
          "internalType": "uint256[]",
          "name": "amounts",
          "type": "uint256[]"
        },
        {
          "internalType": "uint256[]",
          "name": "ids",
          "type": "uint256[]"
        },
        {
          "internalType": "uint256[]",
          "name": "restrictionScheduleStartTimes",
          "type": "uint256[]"
        },
        {
          "internalType": "bytes",
          "name": "data",
          "type": "bytes"
        }
      ],
      "name": "mintRemovalBatch",
      "outputs": [],
      "stateMutability": "nonpayable",
      "type": "function"
    },
    {
      "inputs": [],
      "name": "name",
      "outputs": [
        {
          "internalType": "string",
          "name": "",
          "type": "string"
        }
      ],
      "stateMutability": "view",
      "type": "function"
    },
    {
      "inputs": [],
      "name": "pause",
      "outputs": [],
      "stateMutability": "nonpayable",
      "type": "function"
    },
    {
      "inputs": [],
      "name": "paused",
      "outputs": [
        {
          "internalType": "bool",
          "name": "",
          "type": "bool"
        }
      ],
      "stateMutability": "view",
      "type": "function"
    },
    {
      "inputs": [
        {
          "internalType": "bytes32",
          "name": "role",
          "type": "bytes32"
        },
        {
          "internalType": "address",
          "name": "account",
          "type": "address"
        }
      ],
      "name": "renounceRole",
      "outputs": [],
      "stateMutability": "nonpayable",
      "type": "function"
    },
    {
      "inputs": [
        {
          "internalType": "bytes32",
          "name": "role",
          "type": "bytes32"
        },
        {
          "internalType": "address",
          "name": "account",
          "type": "address"
        }
      ],
      "name": "revokeRole",
      "outputs": [],
      "stateMutability": "nonpayable",
      "type": "function"
    },
    {
      "inputs": [
        {
          "internalType": "address",
          "name": "_from",
          "type": "address"
        },
        {
          "internalType": "address",
          "name": "_to",
          "type": "address"
        },
        {
          "internalType": "uint256[]",
          "name": "_ids",
          "type": "uint256[]"
        },
        {
          "internalType": "uint256[]",
          "name": "_amounts",
          "type": "uint256[]"
        },
        {
          "internalType": "bytes",
          "name": "_data",
          "type": "bytes"
        }
      ],
      "name": "safeBatchTransferFrom",
      "outputs": [],
      "stateMutability": "nonpayable",
      "type": "function"
    },
    {
      "inputs": [
        {
          "internalType": "address",
          "name": "from",
          "type": "address"
        },
        {
          "internalType": "address",
          "name": "to",
          "type": "address"
        },
        {
          "internalType": "uint256",
          "name": "id",
          "type": "uint256"
        },
        {
          "internalType": "uint256",
          "name": "amount",
          "type": "uint256"
        },
        {
          "internalType": "bytes",
          "name": "data",
          "type": "bytes"
        }
      ],
      "name": "safeTransferFrom",
      "outputs": [],
      "stateMutability": "nonpayable",
      "type": "function"
    },
    {
      "inputs": [
        {
          "internalType": "address",
          "name": "owner",
          "type": "address"
        },
        {
          "internalType": "address",
          "name": "operator",
          "type": "address"
        },
        {
          "internalType": "bool",
          "name": "approved",
          "type": "bool"
        }
      ],
      "name": "setApprovalForAll",
      "outputs": [],
      "stateMutability": "nonpayable",
      "type": "function"
    },
    {
      "inputs": [
        {
          "internalType": "address",
          "name": "operator",
          "type": "address"
        },
        {
          "internalType": "bool",
          "name": "approved",
          "type": "bool"
        }
      ],
      "name": "setApprovalForAll",
      "outputs": [],
      "stateMutability": "nonpayable",
      "type": "function"
    },
    {
      "inputs": [
        {
          "internalType": "bytes4",
          "name": "interfaceId",
          "type": "bytes4"
        }
      ],
      "name": "supportsInterface",
      "outputs": [
        {
          "internalType": "bool",
          "name": "",
          "type": "bool"
        }
      ],
      "stateMutability": "view",
      "type": "function"
    },
    {
      "inputs": [],
      "name": "tokenIdCounter",
      "outputs": [
        {
          "internalType": "uint256",
          "name": "",
          "type": "uint256"
        }
      ],
      "stateMutability": "view",
      "type": "function"
    },
    {
      "inputs": [
        {
          "internalType": "uint256",
          "name": "id",
          "type": "uint256"
        }
      ],
      "name": "totalSupply",
      "outputs": [
        {
          "internalType": "uint256",
          "name": "",
          "type": "uint256"
        }
      ],
      "stateMutability": "view",
      "type": "function"
    },
    {
      "inputs": [
        {
          "internalType": "uint256",
          "name": "removalId",
          "type": "uint256"
        }
      ],
      "name": "unpackRemovalIdV0",
      "outputs": [
        {
          "components": [
            {
              "internalType": "uint8",
              "name": "idVersion",
              "type": "uint8"
            },
            {
              "internalType": "uint8",
              "name": "methodology",
              "type": "uint8"
            },
            {
              "internalType": "uint8",
              "name": "methodologyVersion",
              "type": "uint8"
            },
            {
              "internalType": "uint16",
              "name": "vintage",
              "type": "uint16"
            },
            {
              "internalType": "bytes2",
              "name": "country",
              "type": "bytes2"
            },
            {
              "internalType": "bytes2",
              "name": "subdivision",
              "type": "bytes2"
            },
            {
              "internalType": "address",
              "name": "supplierAddress",
              "type": "address"
            },
            {
              "internalType": "uint32",
              "name": "subIdentifier",
              "type": "uint32"
            }
          ],
          "internalType": "struct UnpackedRemovalIdV0",
          "name": "",
          "type": "tuple"
        }
      ],
      "stateMutability": "pure",
      "type": "function"
    },
    {
      "inputs": [],
      "name": "unpause",
      "outputs": [],
      "stateMutability": "nonpayable",
      "type": "function"
    },
    {
      "inputs": [
        {
          "internalType": "uint256",
          "name": "",
          "type": "uint256"
        }
      ],
      "name": "uri",
      "outputs": [
        {
          "internalType": "string",
          "name": "",
          "type": "string"
        }
      ],
      "stateMutability": "view",
      "type": "function"
    }
  ],
  "bytecode": "0x608060405234801561001057600080fd5b50613ffd806100206000396000f3fe608060405234801561001057600080fd5b50600436106102525760003560e01c80637985f3a111610146578063c0bdb886116100c3578063dc249ad111610087578063dc249ad11461056b578063e63ab1e914610592578063e985e9c5146105a7578063f242432a146105e3578063f5298aca146105f6578063f62d18881461060957600080fd5b8063c0bdb886146104eb578063ca15c873146104fe578063d539139314610511578063d547741f14610538578063d85a53e91461054b57600080fd5b806391d148541161010a57806391d148541461049257806398bdf6f5146104a5578063a217fddf146104af578063a22cb465146104b7578063bd85b039146104ca57600080fd5b80637985f3a1146104235780637aef1164146104365780638129fc1c146104575780638456cb591461045f5780639010d07c1461046757600080fd5b80632f2ff15d116101d45780634e1273f4116101985780634e1273f4146103bb5780634f558e79146103ce5780635c975abb146103f15780636b20c454146103fd578063731133e91461041057600080fd5b80632f2ff15d1461036757806336568abe1461037a578063367605ca1461038d5780633f4ba83a146103a057806348ec4c3b146103a857600080fd5b80630e89341c1161021b5780630e89341c146102ea57806312eac639146102fd5780631f7fdffa1461031e578063248a9ca3146103315780632eb2c2d61461035457600080fd5b8062fdd58e14610257578063018e1c831461027d57806301ffc9a71461029d57806306e16629146102c057806306fdde03146102d5575b600080fd5b61026a610265366004612dd9565b61061c565b6040519081526020015b60405180910390f35b61029061028b366004612edb565b6106b8565b6040516102749190612f65565b6102b06102ab366004612f8e565b610765565b6040519015158152602001610274565b6102d36102ce366004612fab565b610770565b005b6102dd6107f2565b6040516102749190613020565b6102dd6102f8366004613033565b610881565b61026a61030b366004613033565b60009081526101fa602052604090205490565b6102d361032c3660046130d8565b610915565b61026a61033f366004613033565b60009081526065602052604090206001015490565b6102d3610362366004613201565b610969565b6102d36103753660046132ae565b6109e0565b6102d36103883660046132ae565b610a0b565b6102d361039b3660046132ec565b610a89565b6102d3610aed565b61026a6103b6366004613337565b610b81565b6102906103c9366004613378565b610b94565b6102b06103dc366004613033565b60009081526101c36020526040902054151590565b61012d5460ff166102b0565b6102d361040b36600461343a565b610ca8565b6102d361041e3660046134af565b610ceb565b6102d3610431366004613518565b610d33565b61026a610444366004613033565b6101f86020526000908152604090205481565b6102d3610fce565b6102d361109e565b61047a610475366004613579565b611130565b6040516001600160a01b039091168152602001610274565b6102b06104a03660046132ae565b611148565b61026a6101f65481565b61026a600081565b6102d36104c536600461359b565b611173565b61026a6104d8366004613033565b60009081526101c3602052604090205490565b6102d36104f9366004612fab565b61117e565b61026a61050c366004613033565b6111cd565b61026a7f9f2df0fed2c77648de5860a4cc508cd0818c85b8b8a1ab4ceeef8d981c8956a681565b6102d36105463660046132ae565b6111e4565b61055e610559366004613033565b61120a565b60405161027491906135c9565b61026a7fedf0d2dc8bd3b7e07f15c51fa4fd8be7d8af13a6356f570751b55f526a97cfeb81565b61026a600080516020613f8283398151915281565b6102b06105b5366004613660565b6001600160a01b03918216600090815260ca6020908152604080832093909416825291909152205460ff1690565b6102d36105f136600461368e565b61121b565b6102d36106043660046136f6565b611260565b6102d361061736600461372b565b6112a3565b60006001600160a01b03831661068d5760405162461bcd60e51b815260206004820152602b60248201527f455243313135353a2062616c616e636520717565727920666f7220746865207a60448201526a65726f206164647265737360a81b60648201526084015b60405180910390fd5b50600081815260c9602090815260408083206001600160a01b03861684529091529020545b92915050565b6060600082516001600160401b038111156106d5576106d5612e05565b6040519080825280602002602001820160405280156106fe578160200160208202803683370190505b50905060005b835181101561075d57610730858583815181106107235761072361377b565b602002602001015161061c565b8282815181106107425761074261377b565b6020908102919091010152610756816137a7565b9050610704565b509392505050565b60006106b28261131e565b61077b600033611148565b6107c5576040805163e76ed20960e01b81523360048201526024810191909152601260448201527144454641554c545f41444d494e5f524f4c4560701b6064820152608401610684565b6107ef7fedf0d2dc8bd3b7e07f15c51fa4fd8be7d8af13a6356f570751b55f526a97cfeb82611329565b50565b6101f78054610800906137c0565b80601f016020809104026020016040519081016040528092919081815260200182805461082c906137c0565b80156108795780601f1061084e57610100808354040283529160200191610879565b820191906000526020600020905b81548152906001019060200180831161085c57829003601f168201915b505050505081565b606060cb8054610890906137c0565b80601f01602080910402602001604051908101604052809291908181526020018280546108bc906137c0565b80156109095780601f106108de57610100808354040283529160200191610909565b820191906000526020600020905b8154815290600101906020018083116108ec57829003601f168201915b50505050509050919050565b60405162461bcd60e51b815260206004820152602360248201527f52656d6f76616c3a2045524331313535206d696e7442617463682064697361626044820152621b195960ea1b6064820152608401610684565b6101f55460405163624bc12360e01b81526001600160a01b039091169063624bc1239061099a908690600401612f65565b600060405180830381600087803b1580156109b457600080fd5b505af11580156109c8573d6000803e3d6000fd5b505050506109d98585858585611333565b5050505050565b6000828152606560205260409020600101546109fc81336113c3565b610a068383611427565b505050565b6001600160a01b0381163314610a7b5760405162461bcd60e51b815260206004820152602f60248201527f416363657373436f6e74726f6c3a2063616e206f6e6c792072656e6f756e636560448201526e103937b632b9903337b91039b2b63360891b6064820152608401610684565b610a858282611449565b5050565b6000610a9581336113c3565b61012d5460ff1615610adc5760405162461bcd60e51b815260206004820152601060248201526f14185d5cd8589b194e881c185d5cd95960821b6044820152606401610684565b610ae784848461146b565b50505050565b610b05600080516020613f8283398151915233611148565b610b775760405162461bcd60e51b815260206004820152603b60248201527f455243313135355072657365744d696e7465725061757365723a206d7573742060448201527f686176652070617573657220726f6c6520746f20756e706175736500000000006064820152608401610684565b610b7f61154b565b565b6000610b8d83836115e0565b9392505050565b60608151835114610bf95760405162461bcd60e51b815260206004820152602960248201527f455243313135353a206163636f756e747320616e6420696473206c656e677468604482015268040dad2e6dac2e8c6d60bb1b6064820152608401610684565b600083516001600160401b03811115610c1457610c14612e05565b604051908082528060200260200182016040528015610c3d578160200160208202803683370190505b50905060005b845181101561075d57610c7b858281518110610c6157610c6161377b565b60200260200101518583815181106107235761072361377b565b828281518110610c8d57610c8d61377b565b6020908102919091010152610ca1816137a7565b9050610c43565b6001600160a01b038316331480610cc45750610cc483336105b5565b610ce05760405162461bcd60e51b8152600401610684906137fa565b610a068383836118f6565b60405162461bcd60e51b815260206004820152601f60248201527f52656d6f76616c3a204552432031313535206d696e742064697361626c6564006044820152606401610684565b8251845114610d955760405162461bcd60e51b815260206004820152602860248201527f52656d6f76616c3a20616d6f756e747320616e6420696473206c656e677468206044820152670dad2e6dac2e8c6d60c31b6064820152608401610684565b8151845114610e0c5760405162461bcd60e51b815260206004820152603960248201527f52656d6f76616c3a20616d6f756e747320616e64207265737472696374696f6e60448201527f5363686564756c65537461727454696d65732e6c656e677468000000000000006064820152608401610684565b600081806020019051810190610e229190613843565b905060005b8451811015610f92576101f96000868381518110610e4757610e4761377b565b60209081029190910181015182528101919091526040016000205460ff1615610ea057848181518110610e7c57610e7c61377b565b6020026020010151604051634acb9c2960e01b815260040161068491815260200190565b838181518110610eb257610eb261377b565b60200260200101516101fa6000878481518110610ed157610ed161377b565b602002602001015181526020019081526020016000208190555060016101f96000878481518110610f0457610f0461377b565b6020026020010151815260200190815260200160002060006101000a81548160ff021916908315150217905550848181518110610f4357610f4361377b565b60200260200101516101f860006101f65481526020019081526020016000208190555060016101f66000828254610f7a91906138a1565b90915550819050610f8a816137a7565b915050610e27565b50610f9f86858785611a87565b610fab86336001610a89565b806020015115610fc657610fc6868260000151868886610969565b505050505050565b600054610100900460ff16610fe95760005460ff1615610fed565b303b155b6110095760405162461bcd60e51b8152600401610684906138b9565b600054610100900460ff1615801561102b576000805461ffff19166101011790555b61104c604051806060016040528060268152602001613fa2602691396112a3565b611054611b2f565b60006101f6556040805180820190915260078082526614995b5bdd985b60ca1b6020909201918252611089916101f791612cd7565b5080156107ef576000805461ff001916905550565b6110b6600080516020613f8283398151915233611148565b6111285760405162461bcd60e51b815260206004820152603960248201527f455243313135355072657365744d696e7465725061757365723a206d7573742060448201527f686176652070617573657220726f6c6520746f207061757365000000000000006064820152608401610684565b610b7f611b56565b6000828152609760205260408120610b8d9083611bd3565b60009182526065602090815260408084206001600160a01b0393909316845291905290205460ff1690565b610a8533838361146b565b7fedf0d2dc8bd3b7e07f15c51fa4fd8be7d8af13a6356f570751b55f526a97cfeb6111a981336113c3565b506101f580546001600160a01b0319166001600160a01b0392909216919091179055565b60008181526097602052604081206106b290611bdf565b60008281526065602052604090206001015461120081336113c3565b610a068383611449565b611212612d5b565b6106b282611be9565b6001600160a01b038516331480611237575061123785336105b5565b6112535760405162461bcd60e51b8152600401610684906137fa565b6109d98585858585611ca0565b6001600160a01b03831633148061127c575061127c83336105b5565b6112985760405162461bcd60e51b8152600401610684906137fa565b610a06838383611dd0565b600054610100900460ff166112be5760005460ff16156112c2565b303b155b6112de5760405162461bcd60e51b8152600401610684906138b9565b600054610100900460ff16158015611300576000805461ffff19166101011790555b61130982611ed5565b8015610a85576000805461ff00191690555050565b60006106b282611f16565b610a858282611427565b6001600160a01b03851633148061134f575061134f85336105b5565b6113b65760405162461bcd60e51b815260206004820152603260248201527f455243313135353a207472616e736665722063616c6c6572206973206e6f74206044820152711bdddb995c881b9bdc88185c1c1c9bdd995960721b6064820152608401610684565b6109d98585858585611f56565b6113cd8282611148565b610a85576113e5816001600160a01b031660146120fb565b6113f08360206120fb565b604051602001611401929190613907565b60408051601f198184030181529082905262461bcd60e51b825261068491600401613020565b6114318282612296565b6000828152609760205260409020610a06908261231c565b6114538282612331565b6000828152609760205260409020610a069082612398565b816001600160a01b0316836001600160a01b0316036114de5760405162461bcd60e51b815260206004820152602960248201527f455243313135353a2073657474696e6720617070726f76616c20737461747573604482015268103337b91039b2b63360b91b6064820152608401610684565b6001600160a01b03838116600081815260ca6020908152604080832094871680845294825291829020805460ff191686151590811790915591519182527f17307eab39ab6107e8899845ad3d59bd9653f200f220920489ca2b5937696c31910160405180910390a3505050565b61012d5460ff166115955760405162461bcd60e51b815260206004820152601460248201527314185d5cd8589b194e881b9bdd081c185d5cd95960621b6044820152606401610684565b61012d805460ff191690557f5db9ee0a495bf2e6ff9c91a7834c1ba4fdd244a5e8aa4e537bd38aeae4b073aa335b6040516001600160a01b03909116815260200160405180910390a1565b6000806115ef8385018561398d565b60ff169050801561164e5760405162461bcd60e51b8152602060048201526024808201527f556e737570706f727465642072656d6f76616c20746f6b656e2069642076657260448201526339b4b7b760e11b6064820152608401610684565b61010083146116b25760405162461bcd60e51b815260206004820152602a60248201527f72656d6f76616c4461746120636f6e7461696e732077726f6e67206e756d626560448201526972206f6620627974657360b01b6064820152608401610684565b60006116c0848601866139e6565b9050600f816020015160ff1611156117125760405162461bcd60e51b81526020600482015260156024820152744d6574686f6c6f646f677920746f6f206c6172676560581b6044820152606401610684565b600f816040015160ff16111561176a5760405162461bcd60e51b815260206004820152601d60248201527f4d6574686f6c6f646f67792076657273696f6e20746f6f206c617267650000006044820152606401610684565b608081015160a082015160f882811c9260ff60f091821c8116939283901c9290911c166041841080159061179f5750605a8411155b80156117ac575060418310155b80156117b95750605a8311155b80156117c6575060418210155b80156117d35750605a8211155b80156117e0575060418110155b80156117ed5750605a8111155b6118295760405162461bcd60e51b815260206004820152600d60248201526c496e76616c696420415343494960981b6044820152606401610684565b600085604001516004876020015160ff16901b1760ff169050600860006118509190613aaa565b60e087015163ffffffff16901b61186960086004613aaa565b60c08801516001600160a01b0316901b61188560086018613aaa565b60a089015160f01c901b61189b6008601a613aaa565b60808a015160f01c901b6118b16008601c613aaa565b60608b015161ffff16901b6118c86008601e613aaa565b86901b6118d76008601f613aaa565b8c6000015160ff16901b17171717171797505050505050505092915050565b6001600160a01b03831661191c5760405162461bcd60e51b815260040161068490613ac9565b805182511461193d5760405162461bcd60e51b815260040161068490613b0c565b6000339050611960818560008686604051806020016040528060008152506123ad565b60005b8351811015611a285760008482815181106119805761198061377b565b60200260200101519050600084838151811061199e5761199e61377b565b602090810291909101810151600084815260c9835260408082206001600160a01b038c1683529093529190912054909150818110156119ef5760405162461bcd60e51b815260040161068490613b54565b600092835260c9602090815260408085206001600160a01b038b1686529091529092209103905580611a20816137a7565b915050611963565b5060006001600160a01b0316846001600160a01b0316826001600160a01b03167f4a39dc06d4c0dbc64b70af90fd698a233a518aa5d07e595d983b8c0526c8f7fb8686604051611a79929190613b98565b60405180910390a450505050565b611ab17f9f2df0fed2c77648de5860a4cc508cd0818c85b8b8a1ab4ceeef8d981c8956a633611148565b611b235760405162461bcd60e51b815260206004820152603860248201527f455243313135355072657365744d696e7465725061757365723a206d7573742060448201527f68617665206d696e74657220726f6c6520746f206d696e7400000000000000006064820152608401610684565b610ae7848484846123bb565b600054610100900460ff16610b7f5760405162461bcd60e51b815260040161068490613bc6565b61012d5460ff1615611b9d5760405162461bcd60e51b815260206004820152601060248201526f14185d5cd8589b194e881c185d5cd95960821b6044820152606401610684565b61012d805460ff191660011790557f62e78cea01bee320cd4e420270b5ea74000d11b0c9f74754ebdbfc544b05a2586115c33390565b6000610b8d8383612550565b60006106b2825490565b611bf1612d5b565b604051806101000160405280611c068461257a565b60ff168152602001611c1784612589565b60ff168152602001611c28846125a2565b60ff168152602001611c39846125ba565b61ffff168152602001611c4b846125c9565b6001600160f01b0319168152602001611c63846125e1565b6001600160f01b0319168152602001611c7b846125f0565b6001600160a01b03168152602001611c92846125ff565b63ffffffff16905292915050565b6001600160a01b038416611cc65760405162461bcd60e51b815260040161068490613c11565b33611ce5818787611cd68861260e565b611cdf8861260e565b876123ad565b600084815260c9602090815260408083206001600160a01b038a16845290915290205483811015611d285760405162461bcd60e51b815260040161068490613c56565b600085815260c9602090815260408083206001600160a01b038b8116855292528083208785039055908816825281208054869290611d679084906138a1565b909155505060408051868152602081018690526001600160a01b03808916928a821692918616917fc3d58168c5ae7397731d063d5bbf3d657854427343f4c083240f7aacaa2d0f62910160405180910390a4611dc7828888888888612659565b50505050505050565b6001600160a01b038316611df65760405162461bcd60e51b815260040161068490613ac9565b33611e2581856000611e078761260e565b611e108761260e565b604051806020016040528060008152506123ad565b600083815260c9602090815260408083206001600160a01b038816845290915290205482811015611e685760405162461bcd60e51b815260040161068490613b54565b600084815260c9602090815260408083206001600160a01b03898116808652918452828520888703905582518981529384018890529092908616917fc3d58168c5ae7397731d063d5bbf3d657854427343f4c083240f7aacaa2d0f62910160405180910390a45050505050565b600054610100900460ff16611efc5760405162461bcd60e51b815260040161068490613bc6565b611f05816127b4565b611f0d6127e4565b6107ef81612818565b60006001600160e01b03198216636cdb3d1360e11b1480611f4757506001600160e01b031982166303a24d0760e21b145b806106b257506106b28261288c565b8151835114611f775760405162461bcd60e51b815260040161068490613b0c565b6001600160a01b038416611f9d5760405162461bcd60e51b815260040161068490613c11565b33611fac8187878787876123ad565b60005b8451811015612095576000858281518110611fcc57611fcc61377b565b602002602001015190506000858381518110611fea57611fea61377b565b602090810291909101810151600084815260c9835260408082206001600160a01b038e16835290935291909120549091508181101561203b5760405162461bcd60e51b815260040161068490613c56565b600083815260c9602090815260408083206001600160a01b038e8116855292528083208585039055908b1682528120805484929061207a9084906138a1565b925050819055505050508061208e906137a7565b9050611faf565b50846001600160a01b0316866001600160a01b0316826001600160a01b03167f4a39dc06d4c0dbc64b70af90fd698a233a518aa5d07e595d983b8c0526c8f7fb87876040516120e5929190613b98565b60405180910390a4610fc68187878787876128b1565b6060600061210a836002613aaa565b6121159060026138a1565b6001600160401b0381111561212c5761212c612e05565b6040519080825280601f01601f191660200182016040528015612156576020820181803683370190505b509050600360fc1b816000815181106121715761217161377b565b60200101906001600160f81b031916908160001a905350600f60fb1b816001815181106121a0576121a061377b565b60200101906001600160f81b031916908160001a90535060006121c4846002613aaa565b6121cf9060016138a1565b90505b6001811115612247576f181899199a1a9b1b9c1cb0b131b232b360811b85600f16601081106122035761220361377b565b1a60f81b8282815181106122195761221961377b565b60200101906001600160f81b031916908160001a90535060049490941c9361224081613ca0565b90506121d2565b508315610b8d5760405162461bcd60e51b815260206004820181905260248201527f537472696e67733a20686578206c656e67746820696e73756666696369656e746044820152606401610684565b6122a08282611148565b610a855760008281526065602090815260408083206001600160a01b03851684529091529020805460ff191660011790556122d83390565b6001600160a01b0316816001600160a01b0316837f2f8788117e7eff1d82e926ec794901d17c78024a50270940304540a733656f0d60405160405180910390a45050565b6000610b8d836001600160a01b03841661296c565b61233b8282611148565b15610a855760008281526065602090815260408083206001600160a01b0385168085529252808320805460ff1916905551339285917ff6391f5c32d9c69d2a47ea670b442974b53935d1edc7fd64eb21e047a839171b9190a45050565b6000610b8d836001600160a01b0384166129bb565b610fc6868686868686612ab5565b6001600160a01b03841661241b5760405162461bcd60e51b815260206004820152602160248201527f455243313135353a206d696e7420746f20746865207a65726f206164647265736044820152607360f81b6064820152608401610684565b815183511461243c5760405162461bcd60e51b815260040161068490613b0c565b3361244c816000878787876123ad565b60005b84518110156124e85783818151811061246a5761246a61377b565b602002602001015160c960008784815181106124885761248861377b565b602002602001015181526020019081526020016000206000886001600160a01b03166001600160a01b0316815260200190815260200160002060008282546124d091906138a1565b909155508190506124e0816137a7565b91505061244f565b50846001600160a01b031660006001600160a01b0316826001600160a01b03167f4a39dc06d4c0dbc64b70af90fd698a233a518aa5d07e595d983b8c0526c8f7fb8787604051612539929190613b98565b60405180910390a46109d9816000878787876128b1565b60008260000182815481106125675761256761377b565b9060005260206000200154905092915050565b60006106b2826001601f612bd1565b6000600461259a836001601e612bd1565b901c92915050565b60006125b1826001601e612bd1565b600f1692915050565b60006106b2826002601c612bd1565b60006125d8826002601a612bd1565b60f01b92915050565b60006125d88260026018612bd1565b60006106b28260146004612bd1565b60006106b28260046000612bd1565b604080516001808252818301909252606091600091906020808301908036833701905050905082816000815181106126485761264861377b565b602090810291909101015292915050565b6001600160a01b0384163b15610fc65760405163f23a6e6160e01b81526001600160a01b0385169063f23a6e619061269d9089908990889088908890600401613cb7565b6020604051808303816000875af19250505080156126d8575060408051601f3d908101601f191682019092526126d591810190613cfc565b60015b612784576126e4613d19565b806308c379a00361271d57506126f8613d35565b80612703575061271f565b8060405162461bcd60e51b81526004016106849190613020565b505b60405162461bcd60e51b815260206004820152603460248201527f455243313135353a207472616e7366657220746f206e6f6e20455243313135356044820152732932b1b2b4bb32b91034b6b83632b6b2b73a32b960611b6064820152608401610684565b6001600160e01b0319811663f23a6e6160e01b14611dc75760405162461bcd60e51b815260040161068490613dbe565b600054610100900460ff166127db5760405162461bcd60e51b815260040161068490613bc6565b6107ef81612c1d565b600054610100900460ff1661280b5760405162461bcd60e51b815260040161068490613bc6565b61012d805460ff19169055565b600054610100900460ff1661283f5760405162461bcd60e51b815260040161068490613bc6565b61284a600033611329565b6128747f9f2df0fed2c77648de5860a4cc508cd0818c85b8b8a1ab4ceeef8d981c8956a633611329565b6107ef600080516020613f8283398151915233611329565b60006001600160e01b03198216635a05180f60e01b14806106b257506106b282612c30565b6001600160a01b0384163b15610fc65760405163bc197c8160e01b81526001600160a01b0385169063bc197c81906128f59089908990889088908890600401613e06565b6020604051808303816000875af1925050508015612930575060408051601f3d908101601f1916820190925261292d91810190613cfc565b60015b61293c576126e4613d19565b6001600160e01b0319811663bc197c8160e01b14611dc75760405162461bcd60e51b815260040161068490613dbe565b60008181526001830160205260408120546129b3575081546001818101845560008481526020808220909301849055845484825282860190935260409020919091556106b2565b5060006106b2565b60008181526001830160205260408120548015612aa45760006129df600183613e64565b85549091506000906129f390600190613e64565b9050818114612a58576000866000018281548110612a1357612a1361377b565b9060005260206000200154905080876000018481548110612a3657612a3661377b565b6000918252602080832090910192909255918252600188019052604090208390555b8554869080612a6957612a69613e7b565b6001900381819060005260206000200160009055905585600101600086815260200190815260200160002060009055600193505050506106b2565b60009150506106b2565b5092915050565b612ac3868686868686612c65565b6001600160a01b038516612b4b5760005b8351811015612b4957828181518110612aef57612aef61377b565b60200260200101516101c36000868481518110612b0e57612b0e61377b565b602002602001015181526020019081526020016000206000828254612b3391906138a1565b90915550612b429050816137a7565b9050612ad4565b505b6001600160a01b038416610fc65760005b8351811015611dc757828181518110612b7757612b7761377b565b60200260200101516101c36000868481518110612b9657612b9661377b565b602002602001015181526020019081526020016000206000828254612bbb9190613e64565b90915550612bca9050816137a7565b9050612b5c565b600080612bdf600884613aaa565b6001612bec600887613aaa565b612bf7906002613f75565b612c019190613e64565b901b9050848116612c13600885613aaa565b1c95945050505050565b8051610a859060cb906020840190612cd7565b60006001600160e01b03198216637965db0b60e01b14806106b257506301ffc9a760e01b6001600160e01b03198316146106b2565b610fc686868686868661012d5460ff1615610fc65760405162461bcd60e51b815260206004820152602c60248201527f455243313135355061757361626c653a20746f6b656e207472616e736665722060448201526b1dda1a5b19481c185d5cd95960a21b6064820152608401610684565b828054612ce3906137c0565b90600052602060002090601f016020900481019282612d055760008555612d4b565b82601f10612d1e57805160ff1916838001178555612d4b565b82800160010185558215612d4b579182015b82811115612d4b578251825591602001919060010190612d30565b50612d57929150612d9f565b5090565b6040805161010081018252600080825260208201819052918101829052606081018290526080810182905260a0810182905260c0810182905260e081019190915290565b5b80821115612d575760008155600101612da0565b6001600160a01b03811681146107ef57600080fd5b8035612dd481612db4565b919050565b60008060408385031215612dec57600080fd5b8235612df781612db4565b946020939093013593505050565b634e487b7160e01b600052604160045260246000fd5b601f8201601f191681016001600160401b0381118282101715612e4057612e40612e05565b6040525050565b60006001600160401b03821115612e6057612e60612e05565b5060051b60200190565b600082601f830112612e7b57600080fd5b81356020612e8882612e47565b604051612e958282612e1b565b83815260059390931b8501820192828101915086841115612eb557600080fd5b8286015b84811015612ed05780358352918301918301612eb9565b509695505050505050565b60008060408385031215612eee57600080fd5b8235612ef981612db4565b915060208301356001600160401b03811115612f1457600080fd5b612f2085828601612e6a565b9150509250929050565b600081518084526020808501945080840160005b83811015612f5a57815187529582019590820190600101612f3e565b509495945050505050565b602081526000610b8d6020830184612f2a565b6001600160e01b0319811681146107ef57600080fd5b600060208284031215612fa057600080fd5b8135610b8d81612f78565b600060208284031215612fbd57600080fd5b8135610b8d81612db4565b60005b83811015612fe3578181015183820152602001612fcb565b83811115610ae75750506000910152565b6000815180845261300c816020860160208601612fc8565b601f01601f19169290920160200192915050565b602081526000610b8d6020830184612ff4565b60006020828403121561304557600080fd5b5035919050565b60008083601f84011261305e57600080fd5b5081356001600160401b0381111561307557600080fd5b6020830191508360208260051b850101111561309057600080fd5b9250929050565b60008083601f8401126130a957600080fd5b5081356001600160401b038111156130c057600080fd5b60208301915083602082850101111561309057600080fd5b60008060008060008060006080888a0312156130f357600080fd5b87356130fe81612db4565b965060208801356001600160401b038082111561311a57600080fd5b6131268b838c0161304c565b909850965060408a013591508082111561313f57600080fd5b61314b8b838c0161304c565b909650945060608a013591508082111561316457600080fd5b506131718a828b01613097565b989b979a50959850939692959293505050565b60006001600160401b0383111561319d5761319d612e05565b6040516131b4601f8501601f191660200182612e1b565b8091508381528484840111156131c957600080fd5b83836020830137600060208583010152509392505050565b600082601f8301126131f257600080fd5b610b8d83833560208501613184565b600080600080600060a0868803121561321957600080fd5b853561322481612db4565b9450602086013561323481612db4565b935060408601356001600160401b038082111561325057600080fd5b61325c89838a01612e6a565b9450606088013591508082111561327257600080fd5b61327e89838a01612e6a565b9350608088013591508082111561329457600080fd5b506132a1888289016131e1565b9150509295509295909350565b600080604083850312156132c157600080fd5b8235915060208301356132d381612db4565b809150509250929050565b80151581146107ef57600080fd5b60008060006060848603121561330157600080fd5b833561330c81612db4565b9250602084013561331c81612db4565b9150604084013561332c816132de565b809150509250925092565b6000806020838503121561334a57600080fd5b82356001600160401b0381111561336057600080fd5b61336c85828601613097565b90969095509350505050565b6000806040838503121561338b57600080fd5b82356001600160401b03808211156133a257600080fd5b818501915085601f8301126133b657600080fd5b813560206133c382612e47565b6040516133d08282612e1b565b83815260059390931b85018201928281019150898411156133f057600080fd5b948201945b8386101561341757853561340881612db4565b825294820194908201906133f5565b9650508601359250508082111561342d57600080fd5b50612f2085828601612e6a565b60008060006060848603121561344f57600080fd5b833561345a81612db4565b925060208401356001600160401b038082111561347657600080fd5b61348287838801612e6a565b9350604086013591508082111561349857600080fd5b506134a586828701612e6a565b9150509250925092565b6000806000806000608086880312156134c757600080fd5b85356134d281612db4565b9450602086013593506040860135925060608601356001600160401b038111156134fb57600080fd5b61350788828901613097565b969995985093965092949392505050565b600080600080600060a0868803121561353057600080fd5b853561353b81612db4565b945060208601356001600160401b038082111561355757600080fd5b61356389838a01612e6a565b9550604088013591508082111561325057600080fd5b6000806040838503121561358c57600080fd5b50508035926020909101359150565b600080604083850312156135ae57600080fd5b82356135b981612db4565b915060208301356132d3816132de565b60006101008201905060ff835116825260ff602084015116602083015260ff604084015116604083015261ffff606084015116606083015261ffff60f01b608084015116608083015260a083015161362d60a08401826001600160f01b0319169052565b5060c083015161364860c08401826001600160a01b03169052565b5060e0830151612aae60e084018263ffffffff169052565b6000806040838503121561367357600080fd5b823561367e81612db4565b915060208301356132d381612db4565b600080600080600060a086880312156136a657600080fd5b85356136b181612db4565b945060208601356136c181612db4565b9350604086013592506060860135915060808601356001600160401b038111156136ea57600080fd5b6132a1888289016131e1565b60008060006060848603121561370b57600080fd5b833561371681612db4565b95602085013595506040909401359392505050565b60006020828403121561373d57600080fd5b81356001600160401b0381111561375357600080fd5b8201601f8101841361376457600080fd5b61377384823560208401613184565b949350505050565b634e487b7160e01b600052603260045260246000fd5b634e487b7160e01b600052601160045260246000fd5b6000600182016137b9576137b9613791565b5060010190565b600181811c908216806137d457607f821691505b6020821081036137f457634e487b7160e01b600052602260045260246000fd5b50919050565b60208082526029908201527f455243313135353a2063616c6c6572206973206e6f74206f776e6572206e6f7260408201526808185c1c1c9bdd995960ba1b606082015260800190565b60006040828403121561385557600080fd5b604051604081018181106001600160401b038211171561387757613877612e05565b604052825161388581612db4565b81526020830151613895816132de565b60208201529392505050565b600082198211156138b4576138b4613791565b500190565b6020808252602e908201527f496e697469616c697a61626c653a20636f6e747261637420697320616c72656160408201526d191e481a5b9a5d1a585b1a5e995960921b606082015260800190565b7f416363657373436f6e74726f6c3a206163636f756e742000000000000000000081526000835161393f816017850160208801612fc8565b7001034b99036b4b9b9b4b733903937b6329607d1b6017918401918201528351613970816028840160208801612fc8565b01602801949350505050565b803560ff81168114612dd457600080fd5b60006020828403121561399f57600080fd5b610b8d8261397c565b803561ffff81168114612dd457600080fd5b80356001600160f01b031981168114612dd457600080fd5b803563ffffffff81168114612dd457600080fd5b60006101008083850312156139fa57600080fd5b604051908101906001600160401b0382118183101715613a1c57613a1c612e05565b81604052613a298461397c565b8152613a376020850161397c565b6020820152613a486040850161397c565b6040820152613a59606085016139a8565b6060820152613a6a608085016139ba565b6080820152613a7b60a085016139ba565b60a0820152613a8c60c08501612dc9565b60c0820152613a9d60e085016139d2565b60e0820152949350505050565b6000816000190483118215151615613ac457613ac4613791565b500290565b60208082526023908201527f455243313135353a206275726e2066726f6d20746865207a65726f206164647260408201526265737360e81b606082015260800190565b60208082526028908201527f455243313135353a2069647320616e6420616d6f756e7473206c656e677468206040820152670dad2e6dac2e8c6d60c31b606082015260800190565b60208082526024908201527f455243313135353a206275726e20616d6f756e7420657863656564732062616c604082015263616e636560e01b606082015260800190565b604081526000613bab6040830185612f2a565b8281036020840152613bbd8185612f2a565b95945050505050565b6020808252602b908201527f496e697469616c697a61626c653a20636f6e7472616374206973206e6f74206960408201526a6e697469616c697a696e6760a81b606082015260800190565b60208082526025908201527f455243313135353a207472616e7366657220746f20746865207a65726f206164604082015264647265737360d81b606082015260800190565b6020808252602a908201527f455243313135353a20696e73756666696369656e742062616c616e636520666f60408201526939103a3930b739b332b960b11b606082015260800190565b600081613caf57613caf613791565b506000190190565b6001600160a01b03868116825285166020820152604081018490526060810183905260a060808201819052600090613cf190830184612ff4565b979650505050505050565b600060208284031215613d0e57600080fd5b8151610b8d81612f78565b600060033d1115613d325760046000803e5060005160e01c5b90565b600060443d1015613d435790565b6040516003193d81016004833e81513d6001600160401b038160248401118184111715613d7257505050505090565b8285019150815181811115613d8a5750505050505090565b843d8701016020828501011115613da45750505050505090565b613db360208286010187612e1b565b509095945050505050565b60208082526028908201527f455243313135353a204552433131353552656365697665722072656a656374656040820152676420746f6b656e7360c01b606082015260800190565b6001600160a01b0386811682528516602082015260a060408201819052600090613e3290830186612f2a565b8281036060840152613e448186612f2a565b90508281036080840152613e588185612ff4565b98975050505050505050565b600082821015613e7657613e76613791565b500390565b634e487b7160e01b600052603160045260246000fd5b600181815b80851115613ecc578160001904821115613eb257613eb2613791565b80851615613ebf57918102915b93841c9390800290613e96565b509250929050565b600082613ee3575060016106b2565b81613ef0575060006106b2565b8160018114613f065760028114613f1057613f2c565b60019150506106b2565b60ff841115613f2157613f21613791565b50506001821b6106b2565b5060208310610133831016604e8410600b8410161715613f4f575081810a6106b2565b613f598383613e91565b8060001904821115613f6d57613f6d613791565b029392505050565b6000610b8d8383613ed456fe65d7a28e3265b37a6474929f336521b332c1681b933f6cb9f3376673440d862a68747470733a2f2f6e6f72692e636f6d2f6170692f72656d6f76616c2f7b69647d2e6a736f6ea2646970667358221220adb1e7dc12063932cf8186eb7a7c0ce0b168e621d52fa75eb5bcf483df638f4e64736f6c634300080d0033",
  "linkReferences": {},
  "deployedLinkReferences": {}
}