{
  "_format": "hh-sol-artifact-1",
  "contractName": "Removal",
  "sourceName": "contracts/Removal.sol",
  "abi": [
    {
      "anonymous": false,
      "inputs": [
        {
          "indexed": true,
          "internalType": "address",
          "name": "account",
          "type": "address"
        },
        {
          "indexed": true,
          "internalType": "address",
          "name": "operator",
          "type": "address"
        },
        {
          "indexed": false,
          "internalType": "bool",
          "name": "approved",
          "type": "bool"
        }
      ],
      "name": "ApprovalForAll",
      "type": "event"
    },
    {
      "anonymous": false,
      "inputs": [
        {
          "indexed": false,
          "internalType": "address",
          "name": "account",
          "type": "address"
        }
      ],
      "name": "Paused",
      "type": "event"
    },
    {
      "anonymous": false,
      "inputs": [
        {
          "indexed": true,
          "internalType": "bytes32",
          "name": "role",
          "type": "bytes32"
        },
        {
          "indexed": true,
          "internalType": "bytes32",
          "name": "previousAdminRole",
          "type": "bytes32"
        },
        {
          "indexed": true,
          "internalType": "bytes32",
          "name": "newAdminRole",
          "type": "bytes32"
        }
      ],
      "name": "RoleAdminChanged",
      "type": "event"
    },
    {
      "anonymous": false,
      "inputs": [
        {
          "indexed": true,
          "internalType": "bytes32",
          "name": "role",
          "type": "bytes32"
        },
        {
          "indexed": true,
          "internalType": "address",
          "name": "account",
          "type": "address"
        },
        {
          "indexed": true,
          "internalType": "address",
          "name": "sender",
          "type": "address"
        }
      ],
      "name": "RoleGranted",
      "type": "event"
    },
    {
      "anonymous": false,
      "inputs": [
        {
          "indexed": true,
          "internalType": "bytes32",
          "name": "role",
          "type": "bytes32"
        },
        {
          "indexed": true,
          "internalType": "address",
          "name": "account",
          "type": "address"
        },
        {
          "indexed": true,
          "internalType": "address",
          "name": "sender",
          "type": "address"
        }
      ],
      "name": "RoleRevoked",
      "type": "event"
    },
    {
      "anonymous": false,
      "inputs": [
        {
          "indexed": true,
          "internalType": "address",
          "name": "operator",
          "type": "address"
        },
        {
          "indexed": true,
          "internalType": "address",
          "name": "from",
          "type": "address"
        },
        {
          "indexed": true,
          "internalType": "address",
          "name": "to",
          "type": "address"
        },
        {
          "indexed": false,
          "internalType": "uint256[]",
          "name": "ids",
          "type": "uint256[]"
        },
        {
          "indexed": false,
          "internalType": "uint256[]",
          "name": "values",
          "type": "uint256[]"
        }
      ],
      "name": "TransferBatch",
      "type": "event"
    },
    {
      "anonymous": false,
      "inputs": [
        {
          "indexed": true,
          "internalType": "address",
          "name": "operator",
          "type": "address"
        },
        {
          "indexed": true,
          "internalType": "address",
          "name": "from",
          "type": "address"
        },
        {
          "indexed": true,
          "internalType": "address",
          "name": "to",
          "type": "address"
        },
        {
          "indexed": false,
          "internalType": "uint256",
          "name": "id",
          "type": "uint256"
        },
        {
          "indexed": false,
          "internalType": "uint256",
          "name": "value",
          "type": "uint256"
        }
      ],
      "name": "TransferSingle",
      "type": "event"
    },
    {
      "anonymous": false,
      "inputs": [
        {
          "indexed": false,
          "internalType": "string",
          "name": "value",
          "type": "string"
        },
        {
          "indexed": true,
          "internalType": "uint256",
          "name": "id",
          "type": "uint256"
        }
      ],
      "name": "URI",
      "type": "event"
    },
    {
      "anonymous": false,
      "inputs": [
        {
          "indexed": false,
          "internalType": "address",
          "name": "account",
          "type": "address"
        }
      ],
      "name": "Unpaused",
      "type": "event"
    },
    {
      "inputs": [],
      "name": "DEFAULT_ADMIN_ROLE",
      "outputs": [
        {
          "internalType": "bytes32",
          "name": "",
          "type": "bytes32"
        }
      ],
      "stateMutability": "view",
      "type": "function"
    },
    {
      "inputs": [],
      "name": "MINTER_ROLE",
      "outputs": [
        {
          "internalType": "bytes32",
          "name": "",
          "type": "bytes32"
        }
      ],
      "stateMutability": "view",
      "type": "function"
    },
    {
      "inputs": [],
      "name": "PAUSER_ROLE",
      "outputs": [
        {
          "internalType": "bytes32",
          "name": "",
          "type": "bytes32"
        }
      ],
      "stateMutability": "view",
      "type": "function"
    },
    {
      "inputs": [
        {
          "internalType": "address",
          "name": "account",
          "type": "address"
        },
        {
          "internalType": "uint256",
          "name": "id",
          "type": "uint256"
        }
      ],
      "name": "balanceOf",
      "outputs": [
        {
          "internalType": "uint256",
          "name": "",
          "type": "uint256"
        }
      ],
      "stateMutability": "view",
      "type": "function"
    },
    {
      "inputs": [
        {
          "internalType": "address[]",
          "name": "accounts",
          "type": "address[]"
        },
        {
          "internalType": "uint256[]",
          "name": "ids",
          "type": "uint256[]"
        }
      ],
      "name": "balanceOfBatch",
      "outputs": [
        {
          "internalType": "uint256[]",
          "name": "",
          "type": "uint256[]"
        }
      ],
      "stateMutability": "view",
      "type": "function"
    },
    {
      "inputs": [
        {
          "internalType": "address",
          "name": "account",
          "type": "address"
        },
        {
          "internalType": "uint256",
          "name": "id",
          "type": "uint256"
        },
        {
          "internalType": "uint256",
          "name": "value",
          "type": "uint256"
        }
      ],
      "name": "burn",
      "outputs": [],
      "stateMutability": "nonpayable",
      "type": "function"
    },
    {
      "inputs": [
        {
          "internalType": "address",
          "name": "account",
          "type": "address"
        },
        {
          "internalType": "uint256[]",
          "name": "ids",
          "type": "uint256[]"
        },
        {
          "internalType": "uint256[]",
          "name": "values",
          "type": "uint256[]"
        }
      ],
      "name": "burnBatch",
      "outputs": [],
      "stateMutability": "nonpayable",
      "type": "function"
    },
    {
      "inputs": [
        {
          "internalType": "uint256",
          "name": "tokenId",
          "type": "uint256"
        }
      ],
      "name": "countryCodeFromTokenId",
      "outputs": [
        {
          "internalType": "string",
          "name": "",
          "type": "string"
        }
      ],
      "stateMutability": "view",
      "type": "function"
    },
    {
      "inputs": [
        {
          "internalType": "uint256",
          "name": "id",
          "type": "uint256"
        }
      ],
      "name": "exists",
      "outputs": [
        {
          "internalType": "bool",
          "name": "",
          "type": "bool"
        }
      ],
      "stateMutability": "view",
      "type": "function"
    },
    {
      "inputs": [
        {
          "internalType": "bytes32",
          "name": "role",
          "type": "bytes32"
        }
      ],
      "name": "getRoleAdmin",
      "outputs": [
        {
          "internalType": "bytes32",
          "name": "",
          "type": "bytes32"
        }
      ],
      "stateMutability": "view",
      "type": "function"
    },
    {
      "inputs": [
        {
          "internalType": "bytes32",
          "name": "role",
          "type": "bytes32"
        },
        {
          "internalType": "uint256",
          "name": "index",
          "type": "uint256"
        }
      ],
      "name": "getRoleMember",
      "outputs": [
        {
          "internalType": "address",
          "name": "",
          "type": "address"
        }
      ],
      "stateMutability": "view",
      "type": "function"
    },
    {
      "inputs": [
        {
          "internalType": "bytes32",
          "name": "role",
          "type": "bytes32"
        }
      ],
      "name": "getRoleMemberCount",
      "outputs": [
        {
          "internalType": "uint256",
          "name": "",
          "type": "uint256"
        }
      ],
      "stateMutability": "view",
      "type": "function"
    },
    {
      "inputs": [
        {
          "internalType": "bytes32",
          "name": "role",
          "type": "bytes32"
        },
        {
          "internalType": "address",
          "name": "account",
          "type": "address"
        }
      ],
      "name": "grantRole",
      "outputs": [],
      "stateMutability": "nonpayable",
      "type": "function"
    },
    {
      "inputs": [
        {
          "internalType": "bytes32",
          "name": "role",
          "type": "bytes32"
        },
        {
          "internalType": "address",
          "name": "account",
          "type": "address"
        }
      ],
      "name": "hasRole",
      "outputs": [
        {
          "internalType": "bool",
          "name": "",
          "type": "bool"
        }
      ],
      "stateMutability": "view",
      "type": "function"
    },
    {
      "inputs": [],
      "name": "initialize",
      "outputs": [],
      "stateMutability": "nonpayable",
      "type": "function"
    },
    {
      "inputs": [
        {
          "internalType": "string",
          "name": "uri",
          "type": "string"
        }
      ],
      "name": "initialize",
      "outputs": [],
      "stateMutability": "nonpayable",
      "type": "function"
    },
    {
      "inputs": [
        {
          "internalType": "address",
          "name": "account",
          "type": "address"
        },
        {
          "internalType": "address",
          "name": "operator",
          "type": "address"
        }
      ],
      "name": "isApprovedForAll",
      "outputs": [
        {
          "internalType": "bool",
          "name": "",
          "type": "bool"
        }
      ],
      "stateMutability": "view",
      "type": "function"
    },
    {
      "inputs": [
        {
          "internalType": "uint256",
          "name": "tokenId",
          "type": "uint256"
        }
      ],
      "name": "methodologyFromTokenId",
      "outputs": [
        {
          "internalType": "uint256",
          "name": "",
          "type": "uint256"
        }
      ],
      "stateMutability": "view",
      "type": "function"
    },
    {
      "inputs": [
        {
          "internalType": "uint256",
          "name": "tokenId",
          "type": "uint256"
        }
      ],
      "name": "methodologyVersionFromTokenId",
      "outputs": [
        {
          "internalType": "uint256",
          "name": "",
          "type": "uint256"
        }
      ],
      "stateMutability": "view",
      "type": "function"
    },
    {
      "inputs": [
        {
          "internalType": "address",
          "name": "to",
          "type": "address"
        },
        {
          "internalType": "uint256",
          "name": "id",
          "type": "uint256"
        },
        {
          "internalType": "uint256",
          "name": "amount",
          "type": "uint256"
        },
        {
          "internalType": "bytes",
          "name": "data",
          "type": "bytes"
        }
      ],
      "name": "mint",
      "outputs": [],
      "stateMutability": "nonpayable",
      "type": "function"
    },
    {
      "inputs": [
        {
          "internalType": "address",
          "name": "to",
          "type": "address"
        },
        {
          "internalType": "uint256[]",
          "name": "amounts",
          "type": "uint256[]"
        },
        {
          "internalType": "uint256[]",
          "name": "ids",
          "type": "uint256[]"
        },
        {
          "internalType": "bytes",
          "name": "data",
          "type": "bytes"
        }
      ],
      "name": "mintBatch",
      "outputs": [],
      "stateMutability": "nonpayable",
      "type": "function"
    },
    {
      "inputs": [],
      "name": "name",
      "outputs": [
        {
          "internalType": "string",
          "name": "",
          "type": "string"
        }
      ],
      "stateMutability": "view",
      "type": "function"
    },
    {
      "inputs": [
        {
          "internalType": "uint256",
          "name": "",
          "type": "uint256"
        }
      ],
      "name": "orderedTokenIds",
      "outputs": [
        {
          "internalType": "uint256",
          "name": "",
          "type": "uint256"
        }
      ],
      "stateMutability": "view",
      "type": "function"
    },
    {
      "inputs": [
        {
          "internalType": "uint256",
          "name": "tokenId",
          "type": "uint256"
        }
      ],
      "name": "parcelIdFromTokenId",
      "outputs": [
        {
          "internalType": "uint256",
          "name": "",
          "type": "uint256"
        }
      ],
      "stateMutability": "view",
      "type": "function"
    },
    {
      "inputs": [],
      "name": "pause",
      "outputs": [],
      "stateMutability": "nonpayable",
      "type": "function"
    },
    {
      "inputs": [],
      "name": "paused",
      "outputs": [
        {
          "internalType": "bool",
          "name": "",
          "type": "bool"
        }
      ],
      "stateMutability": "view",
      "type": "function"
    },
    {
      "inputs": [
        {
          "internalType": "bytes32",
          "name": "role",
          "type": "bytes32"
        },
        {
          "internalType": "address",
          "name": "account",
          "type": "address"
        }
      ],
      "name": "renounceRole",
      "outputs": [],
      "stateMutability": "nonpayable",
      "type": "function"
    },
    {
      "inputs": [
        {
          "internalType": "bytes32",
          "name": "role",
          "type": "bytes32"
        },
        {
          "internalType": "address",
          "name": "account",
          "type": "address"
        }
      ],
      "name": "revokeRole",
      "outputs": [],
      "stateMutability": "nonpayable",
      "type": "function"
    },
    {
      "inputs": [
        {
          "internalType": "address",
          "name": "_from",
          "type": "address"
        },
        {
          "internalType": "address",
          "name": "_to",
          "type": "address"
        },
        {
          "internalType": "uint256[]",
          "name": "_ids",
          "type": "uint256[]"
        },
        {
          "internalType": "uint256[]",
          "name": "_amounts",
          "type": "uint256[]"
        },
        {
          "internalType": "bytes",
          "name": "_data",
          "type": "bytes"
        }
      ],
      "name": "safeBatchTransferFrom",
      "outputs": [],
      "stateMutability": "nonpayable",
      "type": "function"
    },
    {
      "inputs": [
        {
          "internalType": "address",
          "name": "from",
          "type": "address"
        },
        {
          "internalType": "address",
          "name": "to",
          "type": "address"
        },
        {
          "internalType": "uint256",
          "name": "id",
          "type": "uint256"
        },
        {
          "internalType": "uint256",
          "name": "amount",
          "type": "uint256"
        },
        {
          "internalType": "bytes",
          "name": "data",
          "type": "bytes"
        }
      ],
      "name": "safeTransferFrom",
      "outputs": [],
      "stateMutability": "nonpayable",
      "type": "function"
    },
    {
      "inputs": [
        {
          "internalType": "address",
          "name": "owner",
          "type": "address"
        },
        {
          "internalType": "address",
          "name": "operator",
          "type": "address"
        },
        {
          "internalType": "bool",
          "name": "approved",
          "type": "bool"
        }
      ],
      "name": "setApprovalForAll",
      "outputs": [],
      "stateMutability": "nonpayable",
      "type": "function"
    },
    {
      "inputs": [
        {
          "internalType": "address",
          "name": "operator",
          "type": "address"
        },
        {
          "internalType": "bool",
          "name": "approved",
          "type": "bool"
        }
      ],
      "name": "setApprovalForAll",
      "outputs": [],
      "stateMutability": "nonpayable",
      "type": "function"
    },
    {
      "inputs": [
        {
          "internalType": "uint256",
          "name": "tokenId",
          "type": "uint256"
        }
      ],
      "name": "stateCodeFromTokenId",
      "outputs": [
        {
          "internalType": "string",
          "name": "",
          "type": "string"
        }
      ],
      "stateMutability": "view",
      "type": "function"
    },
    {
      "inputs": [
        {
          "internalType": "uint256",
          "name": "tokenId",
          "type": "uint256"
        }
      ],
      "name": "supplierAddressFromTokenId",
      "outputs": [
        {
          "internalType": "address",
          "name": "",
          "type": "address"
        }
      ],
      "stateMutability": "view",
      "type": "function"
    },
    {
      "inputs": [
        {
          "internalType": "bytes4",
          "name": "interfaceId",
          "type": "bytes4"
        }
      ],
      "name": "supportsInterface",
      "outputs": [
        {
          "internalType": "bool",
          "name": "",
          "type": "bool"
        }
      ],
      "stateMutability": "view",
      "type": "function"
    },
    {
      "inputs": [
        {
          "internalType": "uint256",
          "name": "id",
          "type": "uint256"
        }
      ],
      "name": "totalSupply",
      "outputs": [
        {
          "internalType": "uint256",
          "name": "",
          "type": "uint256"
        }
      ],
      "stateMutability": "view",
      "type": "function"
    },
    {
      "inputs": [],
      "name": "unpause",
      "outputs": [],
      "stateMutability": "nonpayable",
      "type": "function"
    },
    {
      "inputs": [
        {
          "internalType": "uint256",
          "name": "",
          "type": "uint256"
        }
      ],
      "name": "uri",
      "outputs": [
        {
          "internalType": "string",
          "name": "",
          "type": "string"
        }
      ],
      "stateMutability": "view",
      "type": "function"
    },
    {
      "inputs": [
        {
          "internalType": "uint256",
          "name": "tokenId",
          "type": "uint256"
        }
      ],
      "name": "vintageFromTokenId",
      "outputs": [
        {
          "internalType": "uint256",
          "name": "",
          "type": "uint256"
        }
      ],
      "stateMutability": "view",
      "type": "function"
    }
  ],
  "bytecode": "0x608060405234801561001057600080fd5b506135e3806100206000396000f3fe608060405234801561001057600080fd5b506004361061023c5760003560e01c80638456cb591161013b578063d5391393116100b8578063efd57a491161007c578063efd57a491461053b578063f242432a1461054e578063f5298aca14610561578063f5d29fbd14610574578063f62d18881461059557600080fd5b8063d5391393146104af578063d547741f146104c4578063e63ab1e9146104d7578063e63e5dba146104ec578063e985e9c5146104ff57600080fd5b8063b07fb900116100ff578063b07fb90014610442578063b2cfa72c14610455578063bd85b03914610468578063c2ef849814610489578063ca15c8731461049c57600080fd5b80638456cb59146103f95780639010d07c1461040157806391d1485414610414578063a217fddf14610427578063a22cb4651461042f57600080fd5b806336568abe116101c95780635c975abb1161018d5780635c975abb146103945780636b20c454146103a05780636dcfe50f146103b3578063731133e9146103de5780638129fc1c146103f157600080fd5b806336568abe14610323578063367605ca146103365780633f4ba83a146103495780634e1273f4146103515780634f558e791461037157600080fd5b8063115b709911610210578063115b7099146102b25780631f7fdffa146102c5578063248a9ca3146102da5780632eb2c2d6146102fd5780632f2ff15d1461031057600080fd5b8062fdd58e1461024157806301ffc9a71461026757806306fdde031461028a5780630e89341c1461029f575b600080fd5b61025461024f366004612678565b6105a8565b6040519081526020015b60405180910390f35b61027a6102753660046126ba565b610644565b604051901515815260200161025e565b61029261064f565b60405161025e919061272f565b6102926102ad366004612742565b6106de565b6102546102c0366004612742565b610772565b6102d86102d33660046128ae565b610781565b005b6102546102e8366004612742565b60009081526065602052604090206001015490565b6102d861030b366004612948565b610909565b6102d861031e3660046129f5565b610916565b6102d86103313660046129f5565b610941565b6102d8610344366004612a33565b6109bf565b6102d8610a23565b61036461035f366004612a7e565b610ab7565b60405161025e9190612b85565b61027a61037f366004612742565b60009081526101c36020526040902054151590565b61012d5460ff1661027a565b6102d86103ae366004612b98565b610be0565b6103c66103c1366004612742565b610c23565b6040516001600160a01b03909116815260200161025e565b6102d86103ec366004612c0d565b610c32565b6102d8610c72565b6102d8610d43565b6103c661040f366004612c63565b610dd5565b61027a6104223660046129f5565b610df4565b610254600081565b6102d861043d366004612c85565b610e1f565b610254610450366004612742565b610e2a565b610254610463366004612742565b610e43565b610254610476366004612742565b60009081526101c3602052604090205490565b610292610497366004612742565b610e52565b6102546104aa366004612742565b610ef1565b61025460008051602061356883398151915281565b6102d86104d23660046129f5565b610f08565b61025460008051602061354883398151915281565b6102546104fa366004612742565b610f2e565b61027a61050d366004612cb3565b6001600160a01b03918216600090815260ca6020908152604080832093909416825291909152205460ff1690565b610292610549366004612742565b610f46565b6102d861055c366004612ce1565b610f57565b6102d861056f366004612d49565b610f9c565b610254610582366004612742565b6101f76020526000908152604090205481565b6102d86105a3366004612d7e565b610fdf565b60006001600160a01b0383166106195760405162461bcd60e51b815260206004820152602b60248201527f455243313135353a2062616c616e636520717565727920666f7220746865207a60448201526a65726f206164647265737360a81b60648201526084015b60405180910390fd5b50600081815260c9602090815260408083206001600160a01b03861684529091529020545b92915050565b600061063e8261105a565b6101f6805461065d90612dce565b80601f016020809104026020016040519081016040528092919081815260200182805461068990612dce565b80156106d65780601f106106ab576101008083540402835291602001916106d6565b820191906000526020600020905b8154815290600101906020018083116106b957829003601f168201915b505050505081565b606060cb80546106ed90612dce565b80601f016020809104026020016040519081016040528092919081815260200182805461071990612dce565b80156107665780601f1061073b57610100808354040283529160200191610766565b820191906000526020600020905b81548152906001019060200180831161074957829003601f168201915b50505050509050919050565b600061063e8260056007611065565b6000818060200190518101906107979190612e09565b905060005b83518110156108ce576101f860008583815181106107bc576107bc612e67565b60209081029190910181015182528101919091526040016000205460ff16156108275760405162461bcd60e51b815260206004820152601760248201527f546f6b656e20696420616c7265616479206578697374730000000000000000006044820152606401610610565b60016101f8600086848151811061084057610840612e67565b6020026020010151815260200190815260200160002060006101000a81548160ff02191690831515021790555083818151811061087f5761087f612e67565b60200260200101516101f760006101f55481526020019081526020016000208190555060016101f560008282546108b69190612e93565b909155508190506108c681612eab565b91505061079c565b506108db858486856110b1565b6108e7853360016109bf565b80602001511561090257610902858260000151858786610909565b5050505050565b61090285858585856110f1565b6000828152606560205260409020600101546109328133611181565b61093c83836111e5565b505050565b6001600160a01b03811633146109b15760405162461bcd60e51b815260206004820152602f60248201527f416363657373436f6e74726f6c3a2063616e206f6e6c792072656e6f756e636560448201526e103937b632b9903337b91039b2b63360891b6064820152608401610610565b6109bb8282611207565b5050565b60006109cb8133611181565b61012d5460ff1615610a125760405162461bcd60e51b815260206004820152601060248201526f14185d5cd8589b194e881c185d5cd95960821b6044820152606401610610565b610a1d848484611229565b50505050565b610a3b60008051602061354883398151915233610df4565b610aad5760405162461bcd60e51b815260206004820152603b60248201527f455243313135355072657365744d696e7465725061757365723a206d7573742060448201527f686176652070617573657220726f6c6520746f20756e706175736500000000006064820152608401610610565b610ab561130a565b565b60608151835114610b1c5760405162461bcd60e51b815260206004820152602960248201527f455243313135353a206163636f756e747320616e6420696473206c656e677468604482015268040dad2e6dac2e8c6d60bb1b6064820152608401610610565b600083516001600160401b03811115610b3757610b3761275b565b604051908082528060200260200182016040528015610b60578160200160208202803683370190505b50905060005b8451811015610bd857610bab858281518110610b8457610b84612e67565b6020026020010151858381518110610b9e57610b9e612e67565b60200260200101516105a8565b828281518110610bbd57610bbd612e67565b6020908102919091010152610bd181612eab565b9050610b66565b509392505050565b6001600160a01b038316331480610bfc5750610bfc833361050d565b610c185760405162461bcd60e51b815260040161061090612ec6565b61093c83838361139f565b600061063e826014600c611065565b610c4a60008051602061356883398151915233610df4565b610c665760405162461bcd60e51b815260040161061090612f0f565b610a1d84848484611530565b600054610100900460ff16610c8d5760005460ff1615610c91565b303b155b610cad5760405162461bcd60e51b815260040161061090612f6c565b600054610100900460ff16158015610ccf576000805461ffff19166101011790555b610cf060405180606001604052806026815260200161358860269139610fdf565b610cf8611608565b60006101f5556040805180820190915260078082526614995b5bdd985b60ca1b6020909201918252610d2d916101f6916125ca565b508015610d40576000805461ff00191690555b50565b610d5b60008051602061354883398151915233610df4565b610dcd5760405162461bcd60e51b815260206004820152603960248201527f455243313135355072657365744d696e7465725061757365723a206d7573742060448201527f686176652070617573657220726f6c6520746f207061757365000000000000006064820152608401610610565b610ab561162f565b6000828152609760205260408120610ded90836116ac565b9392505050565b60009182526065602090815260408084206001600160a01b0393909316845291905290205460ff1690565b6109bb338383611229565b60006004610e3b8360016000611065565b901c92915050565b600061063e8260026005611065565b60606000610e638360026001611065565b6040805160028082528183019092529192506000919060208201818036833701905050905081601e1a60f81b81600081518110610ea257610ea2612e67565b60200101906001600160f81b031916908160001a90535081601f1a60f81b81600181518110610ed357610ed3612e67565b60200101906001600160f81b031916908160001a9053509392505050565b600081815260976020526040812061063e906116b8565b600082815260656020526040902060010154610f248133611181565b61093c8383611207565b6000610f3d8260016000611065565b60031692915050565b60606000610e638360026003611065565b6001600160a01b038516331480610f735750610f73853361050d565b610f8f5760405162461bcd60e51b815260040161061090612ec6565b61090285858585856116c2565b6001600160a01b038316331480610fb85750610fb8833361050d565b610fd45760405162461bcd60e51b815260040161061090612ec6565b61093c8383836117e3565b600054610100900460ff16610ffa5760005460ff1615610ffe565b303b155b61101a5760405162461bcd60e51b815260040161061090612f6c565b600054610100900460ff1615801561103c576000805461ffff19166101011790555b611045826118e8565b80156109bb576000805461ff00191690555050565b600061063e82611929565b600080611073600884612fba565b6001611080600887612fba565b61108b9060026130bd565b61109591906130c9565b901b90508481166110a7600885612fba565b1c95945050505050565b6110c960008051602061356883398151915233610df4565b6110e55760405162461bcd60e51b815260040161061090612f0f565b610a1d84848484611969565b6001600160a01b03851633148061110d575061110d853361050d565b6111745760405162461bcd60e51b815260206004820152603260248201527f455243313135353a207472616e736665722063616c6c6572206973206e6f74206044820152711bdddb995c881b9bdc88185c1c1c9bdd995960721b6064820152608401610610565b6109028585858585611ac4565b61118b8282610df4565b6109bb576111a3816001600160a01b03166014611c71565b6111ae836020611c71565b6040516020016111bf9291906130e0565b60408051601f198184030181529082905262461bcd60e51b82526106109160040161272f565b6111ef8282611e0c565b600082815260976020526040902061093c9082611e92565b6112118282611ea7565b600082815260976020526040902061093c9082611f0e565b816001600160a01b0316836001600160a01b0316141561129d5760405162461bcd60e51b815260206004820152602960248201527f455243313135353a2073657474696e6720617070726f76616c20737461747573604482015268103337b91039b2b63360b91b6064820152608401610610565b6001600160a01b03838116600081815260ca6020908152604080832094871680845294825291829020805460ff191686151590811790915591519182527f17307eab39ab6107e8899845ad3d59bd9653f200f220920489ca2b5937696c31910160405180910390a3505050565b61012d5460ff166113545760405162461bcd60e51b815260206004820152601460248201527314185d5cd8589b194e881b9bdd081c185d5cd95960621b6044820152606401610610565b61012d805460ff191690557f5db9ee0a495bf2e6ff9c91a7834c1ba4fdd244a5e8aa4e537bd38aeae4b073aa335b6040516001600160a01b03909116815260200160405180910390a1565b6001600160a01b0383166113c55760405162461bcd60e51b815260040161061090613155565b80518251146113e65760405162461bcd60e51b815260040161061090613198565b600033905061140981856000868660405180602001604052806000815250611f23565b60005b83518110156114d157600084828151811061142957611429612e67565b60200260200101519050600084838151811061144757611447612e67565b602090810291909101810151600084815260c9835260408082206001600160a01b038c1683529093529190912054909150818110156114985760405162461bcd60e51b8152600401610610906131e0565b600092835260c9602090815260408085206001600160a01b038b16865290915290922091039055806114c981612eab565b91505061140c565b5060006001600160a01b0316846001600160a01b0316826001600160a01b03167f4a39dc06d4c0dbc64b70af90fd698a233a518aa5d07e595d983b8c0526c8f7fb8686604051611522929190613224565b60405180910390a450505050565b6001600160a01b0384166115565760405162461bcd60e51b815260040161061090613252565b336115768160008761156788611f31565b61157088611f31565b87611f23565b600084815260c9602090815260408083206001600160a01b0389168452909152812080548592906115a8908490612e93565b909155505060408051858152602081018590526001600160a01b0380881692600092918516917fc3d58168c5ae7397731d063d5bbf3d657854427343f4c083240f7aacaa2d0f62910160405180910390a461090281600087878787611f7c565b600054610100900460ff16610ab55760405162461bcd60e51b815260040161061090613293565b61012d5460ff16156116765760405162461bcd60e51b815260206004820152601060248201526f14185d5cd8589b194e881c185d5cd95960821b6044820152606401610610565b61012d805460ff191660011790557f62e78cea01bee320cd4e420270b5ea74000d11b0c9f74754ebdbfc544b05a2586113823390565b6000610ded83836120d8565b600061063e825490565b6001600160a01b0384166116e85760405162461bcd60e51b8152600401610610906132de565b336116f881878761156788611f31565b600084815260c9602090815260408083206001600160a01b038a1684529091529020548381101561173b5760405162461bcd60e51b815260040161061090613323565b600085815260c9602090815260408083206001600160a01b038b811685529252808320878503905590881682528120805486929061177a908490612e93565b909155505060408051868152602081018690526001600160a01b03808916928a821692918616917fc3d58168c5ae7397731d063d5bbf3d657854427343f4c083240f7aacaa2d0f62910160405180910390a46117da828888888888611f7c565b50505050505050565b6001600160a01b0383166118095760405162461bcd60e51b815260040161061090613155565b336118388185600061181a87611f31565b61182387611f31565b60405180602001604052806000815250611f23565b600083815260c9602090815260408083206001600160a01b03881684529091529020548281101561187b5760405162461bcd60e51b8152600401610610906131e0565b600084815260c9602090815260408083206001600160a01b03898116808652918452828520888703905582518981529384018890529092908616917fc3d58168c5ae7397731d063d5bbf3d657854427343f4c083240f7aacaa2d0f62910160405180910390a45050505050565b600054610100900460ff1661190f5760405162461bcd60e51b815260040161061090613293565b61191881612102565b611920612132565b610d4081612166565b60006001600160e01b03198216636cdb3d1360e11b148061195a57506001600160e01b031982166303a24d0760e21b145b8061063e575061063e826121c8565b6001600160a01b03841661198f5760405162461bcd60e51b815260040161061090613252565b81518351146119b05760405162461bcd60e51b815260040161061090613198565b336119c081600087878787611f23565b60005b8451811015611a5c578381815181106119de576119de612e67565b602002602001015160c960008784815181106119fc576119fc612e67565b602002602001015181526020019081526020016000206000886001600160a01b03166001600160a01b031681526020019081526020016000206000828254611a449190612e93565b90915550819050611a5481612eab565b9150506119c3565b50846001600160a01b031660006001600160a01b0316826001600160a01b03167f4a39dc06d4c0dbc64b70af90fd698a233a518aa5d07e595d983b8c0526c8f7fb8787604051611aad929190613224565b60405180910390a4610902816000878787876121ed565b8151835114611ae55760405162461bcd60e51b815260040161061090613198565b6001600160a01b038416611b0b5760405162461bcd60e51b8152600401610610906132de565b33611b1a818787878787611f23565b60005b8451811015611c03576000858281518110611b3a57611b3a612e67565b602002602001015190506000858381518110611b5857611b58612e67565b602090810291909101810151600084815260c9835260408082206001600160a01b038e168352909352919091205490915081811015611ba95760405162461bcd60e51b815260040161061090613323565b600083815260c9602090815260408083206001600160a01b038e8116855292528083208585039055908b16825281208054849290611be8908490612e93565b9250508190555050505080611bfc90612eab565b9050611b1d565b50846001600160a01b0316866001600160a01b0316826001600160a01b03167f4a39dc06d4c0dbc64b70af90fd698a233a518aa5d07e595d983b8c0526c8f7fb8787604051611c53929190613224565b60405180910390a4611c698187878787876121ed565b505050505050565b60606000611c80836002612fba565b611c8b906002612e93565b6001600160401b03811115611ca257611ca261275b565b6040519080825280601f01601f191660200182016040528015611ccc576020820181803683370190505b509050600360fc1b81600081518110611ce757611ce7612e67565b60200101906001600160f81b031916908160001a905350600f60fb1b81600181518110611d1657611d16612e67565b60200101906001600160f81b031916908160001a9053506000611d3a846002612fba565b611d45906001612e93565b90505b6001811115611dbd576f181899199a1a9b1b9c1cb0b131b232b360811b85600f1660108110611d7957611d79612e67565b1a60f81b828281518110611d8f57611d8f612e67565b60200101906001600160f81b031916908160001a90535060049490941c93611db68161336d565b9050611d48565b508315610ded5760405162461bcd60e51b815260206004820181905260248201527f537472696e67733a20686578206c656e67746820696e73756666696369656e746044820152606401610610565b611e168282610df4565b6109bb5760008281526065602090815260408083206001600160a01b03851684529091529020805460ff19166001179055611e4e3390565b6001600160a01b0316816001600160a01b0316837f2f8788117e7eff1d82e926ec794901d17c78024a50270940304540a733656f0d60405160405180910390a45050565b6000610ded836001600160a01b0384166122a8565b611eb18282610df4565b156109bb5760008281526065602090815260408083206001600160a01b0385168085529252808320805460ff1916905551339285917ff6391f5c32d9c69d2a47ea670b442974b53935d1edc7fd64eb21e047a839171b9190a45050565b6000610ded836001600160a01b0384166122f7565b611c698686868686866123ea565b60408051600180825281830190925260609160009190602080830190803683370190505090508281600081518110611f6b57611f6b612e67565b602090810291909101015292915050565b6001600160a01b0384163b15611c695760405163f23a6e6160e01b81526001600160a01b0385169063f23a6e6190611fc09089908990889088908890600401613384565b6020604051808303816000875af1925050508015611ffb575060408051601f3d908101601f19168201909252611ff8918101906133c9565b60015b6120a8576120076133e6565b806308c379a01415612041575061201c613402565b806120275750612043565b8060405162461bcd60e51b8152600401610610919061272f565b505b60405162461bcd60e51b815260206004820152603460248201527f455243313135353a207472616e7366657220746f206e6f6e20455243313135356044820152732932b1b2b4bb32b91034b6b83632b6b2b73a32b960611b6064820152608401610610565b6001600160e01b0319811663f23a6e6160e01b146117da5760405162461bcd60e51b81526004016106109061348b565b60008260000182815481106120ef576120ef612e67565b9060005260206000200154905092915050565b600054610100900460ff166121295760405162461bcd60e51b815260040161061090613293565b610d4081612506565b600054610100900460ff166121595760405162461bcd60e51b815260040161061090613293565b61012d805460ff19169055565b600054610100900460ff1661218d5760405162461bcd60e51b815260040161061090613293565b612198600033612519565b6121b060008051602061356883398151915233612519565b610d4060008051602061354883398151915233612519565b60006001600160e01b03198216635a05180f60e01b148061063e575061063e82612523565b6001600160a01b0384163b15611c695760405163bc197c8160e01b81526001600160a01b0385169063bc197c819061223190899089908890889088906004016134d3565b6020604051808303816000875af192505050801561226c575060408051601f3d908101601f19168201909252612269918101906133c9565b60015b612278576120076133e6565b6001600160e01b0319811663bc197c8160e01b146117da5760405162461bcd60e51b81526004016106109061348b565b60008181526001830160205260408120546122ef5750815460018181018455600084815260208082209093018490558454848252828601909352604090209190915561063e565b50600061063e565b600081815260018301602052604081205480156123e057600061231b6001836130c9565b855490915060009061232f906001906130c9565b905081811461239457600086600001828154811061234f5761234f612e67565b906000526020600020015490508087600001848154811061237257612372612e67565b6000918252602080832090910192909255918252600188019052604090208390555b85548690806123a5576123a5613531565b60019003818190600052602060002001600090559055856001016000868152602001908152602001600020600090556001935050505061063e565b600091505061063e565b6123f8868686868686612558565b6001600160a01b0385166124805760005b835181101561247e5782818151811061242457612424612e67565b60200260200101516101c3600086848151811061244357612443612e67565b6020026020010151815260200190815260200160002060008282546124689190612e93565b90915550612477905081612eab565b9050612409565b505b6001600160a01b038416611c695760005b83518110156117da578281815181106124ac576124ac612e67565b60200260200101516101c360008684815181106124cb576124cb612e67565b6020026020010151815260200190815260200160002060008282546124f091906130c9565b909155506124ff905081612eab565b9050612491565b80516109bb9060cb9060208401906125ca565b6109bb82826111e5565b60006001600160e01b03198216637965db0b60e01b148061063e57506301ffc9a760e01b6001600160e01b031983161461063e565b611c6986868686868661012d5460ff1615611c695760405162461bcd60e51b815260206004820152602c60248201527f455243313135355061757361626c653a20746f6b656e207472616e736665722060448201526b1dda1a5b19481c185d5cd95960a21b6064820152608401610610565b8280546125d690612dce565b90600052602060002090601f0160209004810192826125f8576000855561263e565b82601f1061261157805160ff191683800117855561263e565b8280016001018555821561263e579182015b8281111561263e578251825591602001919060010190612623565b5061264a92915061264e565b5090565b5b8082111561264a576000815560010161264f565b6001600160a01b0381168114610d4057600080fd5b6000806040838503121561268b57600080fd5b823561269681612663565b946020939093013593505050565b6001600160e01b031981168114610d4057600080fd5b6000602082840312156126cc57600080fd5b8135610ded816126a4565b60005b838110156126f25781810151838201526020016126da565b83811115610a1d5750506000910152565b6000815180845261271b8160208601602086016126d7565b601f01601f19169290920160200192915050565b602081526000610ded6020830184612703565b60006020828403121561275457600080fd5b5035919050565b634e487b7160e01b600052604160045260246000fd5b601f8201601f191681016001600160401b03811182821017156127965761279661275b565b6040525050565b60006001600160401b038211156127b6576127b661275b565b5060051b60200190565b600082601f8301126127d157600080fd5b813560206127de8261279d565b6040516127eb8282612771565b83815260059390931b850182019282810191508684111561280b57600080fd5b8286015b84811015612826578035835291830191830161280f565b509695505050505050565b60006001600160401b0383111561284a5761284a61275b565b604051612861601f8501601f191660200182612771565b80915083815284848401111561287657600080fd5b83836020830137600060208583010152509392505050565b600082601f83011261289f57600080fd5b610ded83833560208501612831565b600080600080608085870312156128c457600080fd5b84356128cf81612663565b935060208501356001600160401b03808211156128eb57600080fd5b6128f7888389016127c0565b9450604087013591508082111561290d57600080fd5b612919888389016127c0565b9350606087013591508082111561292f57600080fd5b5061293c8782880161288e565b91505092959194509250565b600080600080600060a0868803121561296057600080fd5b853561296b81612663565b9450602086013561297b81612663565b935060408601356001600160401b038082111561299757600080fd5b6129a389838a016127c0565b945060608801359150808211156129b957600080fd5b6129c589838a016127c0565b935060808801359150808211156129db57600080fd5b506129e88882890161288e565b9150509295509295909350565b60008060408385031215612a0857600080fd5b823591506020830135612a1a81612663565b809150509250929050565b8015158114610d4057600080fd5b600080600060608486031215612a4857600080fd5b8335612a5381612663565b92506020840135612a6381612663565b91506040840135612a7381612a25565b809150509250925092565b60008060408385031215612a9157600080fd5b82356001600160401b0380821115612aa857600080fd5b818501915085601f830112612abc57600080fd5b81356020612ac98261279d565b604051612ad68282612771565b83815260059390931b8501820192828101915089841115612af657600080fd5b948201945b83861015612b1d578535612b0e81612663565b82529482019490820190612afb565b96505086013592505080821115612b3357600080fd5b50612b40858286016127c0565b9150509250929050565b600081518084526020808501945080840160005b83811015612b7a57815187529582019590820190600101612b5e565b509495945050505050565b602081526000610ded6020830184612b4a565b600080600060608486031215612bad57600080fd5b8335612bb881612663565b925060208401356001600160401b0380821115612bd457600080fd5b612be0878388016127c0565b93506040860135915080821115612bf657600080fd5b50612c03868287016127c0565b9150509250925092565b60008060008060808587031215612c2357600080fd5b8435612c2e81612663565b9350602085013592506040850135915060608501356001600160401b03811115612c5757600080fd5b61293c8782880161288e565b60008060408385031215612c7657600080fd5b50508035926020909101359150565b60008060408385031215612c9857600080fd5b8235612ca381612663565b91506020830135612a1a81612a25565b60008060408385031215612cc657600080fd5b8235612cd181612663565b91506020830135612a1a81612663565b600080600080600060a08688031215612cf957600080fd5b8535612d0481612663565b94506020860135612d1481612663565b9350604086013592506060860135915060808601356001600160401b03811115612d3d57600080fd5b6129e88882890161288e565b600080600060608486031215612d5e57600080fd5b8335612d6981612663565b95602085013595506040909401359392505050565b600060208284031215612d9057600080fd5b81356001600160401b03811115612da657600080fd5b8201601f81018413612db757600080fd5b612dc684823560208401612831565b949350505050565b600181811c90821680612de257607f821691505b60208210811415612e0357634e487b7160e01b600052602260045260246000fd5b50919050565b600060408284031215612e1b57600080fd5b604051604081018181106001600160401b0382111715612e3d57612e3d61275b565b6040528251612e4b81612663565b81526020830151612e5b81612a25565b60208201529392505050565b634e487b7160e01b600052603260045260246000fd5b634e487b7160e01b600052601160045260246000fd5b60008219821115612ea657612ea6612e7d565b500190565b6000600019821415612ebf57612ebf612e7d565b5060010190565b60208082526029908201527f455243313135353a2063616c6c6572206973206e6f74206f776e6572206e6f7260408201526808185c1c1c9bdd995960ba1b606082015260800190565b60208082526038908201527f455243313135355072657365744d696e7465725061757365723a206d7573742060408201527f68617665206d696e74657220726f6c6520746f206d696e740000000000000000606082015260800190565b6020808252602e908201527f496e697469616c697a61626c653a20636f6e747261637420697320616c72656160408201526d191e481a5b9a5d1a585b1a5e995960921b606082015260800190565b6000816000190483118215151615612fd457612fd4612e7d565b500290565b600181815b80851115613014578160001904821115612ffa57612ffa612e7d565b8085161561300757918102915b93841c9390800290612fde565b509250929050565b60008261302b5750600161063e565b816130385750600061063e565b816001811461304e576002811461305857613074565b600191505061063e565b60ff84111561306957613069612e7d565b50506001821b61063e565b5060208310610133831016604e8410600b8410161715613097575081810a61063e565b6130a18383612fd9565b80600019048211156130b5576130b5612e7d565b029392505050565b6000610ded838361301c565b6000828210156130db576130db612e7d565b500390565b7f416363657373436f6e74726f6c3a206163636f756e74200000000000000000008152600083516131188160178501602088016126d7565b7001034b99036b4b9b9b4b733903937b6329607d1b60179184019182015283516131498160288401602088016126d7565b01602801949350505050565b60208082526023908201527f455243313135353a206275726e2066726f6d20746865207a65726f206164647260408201526265737360e81b606082015260800190565b60208082526028908201527f455243313135353a2069647320616e6420616d6f756e7473206c656e677468206040820152670dad2e6dac2e8c6d60c31b606082015260800190565b60208082526024908201527f455243313135353a206275726e20616d6f756e7420657863656564732062616c604082015263616e636560e01b606082015260800190565b6040815260006132376040830185612b4a565b82810360208401526132498185612b4a565b95945050505050565b60208082526021908201527f455243313135353a206d696e7420746f20746865207a65726f206164647265736040820152607360f81b606082015260800190565b6020808252602b908201527f496e697469616c697a61626c653a20636f6e7472616374206973206e6f74206960408201526a6e697469616c697a696e6760a81b606082015260800190565b60208082526025908201527f455243313135353a207472616e7366657220746f20746865207a65726f206164604082015264647265737360d81b606082015260800190565b6020808252602a908201527f455243313135353a20696e73756666696369656e742062616c616e636520666f60408201526939103a3930b739b332b960b11b606082015260800190565b60008161337c5761337c612e7d565b506000190190565b6001600160a01b03868116825285166020820152604081018490526060810183905260a0608082018190526000906133be90830184612703565b979650505050505050565b6000602082840312156133db57600080fd5b8151610ded816126a4565b600060033d11156133ff5760046000803e5060005160e01c5b90565b600060443d10156134105790565b6040516003193d81016004833e81513d6001600160401b03816024840111818411171561343f57505050505090565b82850191508151818111156134575750505050505090565b843d87010160208285010111156134715750505050505090565b61348060208286010187612771565b509095945050505050565b60208082526028908201527f455243313135353a204552433131353552656365697665722072656a656374656040820152676420746f6b656e7360c01b606082015260800190565b6001600160a01b0386811682528516602082015260a0604082018190526000906134ff90830186612b4a565b82810360608401526135118186612b4a565b905082810360808401526135258185612703565b98975050505050505050565b634e487b7160e01b600052603160045260246000fdfe65d7a28e3265b37a6474929f336521b332c1681b933f6cb9f3376673440d862a9f2df0fed2c77648de5860a4cc508cd0818c85b8b8a1ab4ceeef8d981c8956a668747470733a2f2f6e6f72692e636f6d2f6170692f72656d6f76616c2f7b69647d2e6a736f6ea2646970667358221220b39a0f67802c02cf75d1c6a61b431cc5de90d7954ee60e8095bd705cc52f0bbf64736f6c634300080c0033",
  "linkReferences": {},
  "deployedLinkReferences": {}
}