{
  "_format": "hh-sol-artifact-1",
  "contractName": "Removal",
  "sourceName": "contracts/Removal.sol",
  "abi": [
    {
      "inputs": [
        {
          "internalType": "string",
          "name": "array1Name",
          "type": "string"
        },
        {
          "internalType": "string",
          "name": "array2Name",
          "type": "string"
        }
      ],
      "name": "ArrayLengthMismatch",
      "type": "error"
    },
    {
      "inputs": [
        {
          "internalType": "uint256",
          "name": "projectId",
          "type": "uint256"
        }
      ],
      "name": "InvalidProjectId",
      "type": "error"
    },
    {
      "inputs": [
        {
          "internalType": "uint256",
          "name": "tokenId",
          "type": "uint256"
        }
      ],
      "name": "TokenIdExists",
      "type": "error"
    },
    {
      "anonymous": false,
      "inputs": [
        {
          "indexed": true,
          "internalType": "address",
          "name": "account",
          "type": "address"
        },
        {
          "indexed": true,
          "internalType": "address",
          "name": "operator",
          "type": "address"
        },
        {
          "indexed": false,
          "internalType": "bool",
          "name": "approved",
          "type": "bool"
        }
      ],
      "name": "ApprovalForAll",
      "type": "event"
    },
    {
      "anonymous": false,
      "inputs": [
        {
          "indexed": false,
          "internalType": "uint8",
          "name": "version",
          "type": "uint8"
        }
      ],
      "name": "Initialized",
      "type": "event"
    },
    {
      "anonymous": false,
      "inputs": [
        {
          "indexed": false,
          "internalType": "address",
          "name": "account",
          "type": "address"
        }
      ],
      "name": "Paused",
      "type": "event"
    },
    {
      "anonymous": false,
      "inputs": [
        {
          "indexed": true,
          "internalType": "bytes32",
          "name": "role",
          "type": "bytes32"
        },
        {
          "indexed": true,
          "internalType": "bytes32",
          "name": "previousAdminRole",
          "type": "bytes32"
        },
        {
          "indexed": true,
          "internalType": "bytes32",
          "name": "newAdminRole",
          "type": "bytes32"
        }
      ],
      "name": "RoleAdminChanged",
      "type": "event"
    },
    {
      "anonymous": false,
      "inputs": [
        {
          "indexed": true,
          "internalType": "bytes32",
          "name": "role",
          "type": "bytes32"
        },
        {
          "indexed": true,
          "internalType": "address",
          "name": "account",
          "type": "address"
        },
        {
          "indexed": true,
          "internalType": "address",
          "name": "sender",
          "type": "address"
        }
      ],
      "name": "RoleGranted",
      "type": "event"
    },
    {
      "anonymous": false,
      "inputs": [
        {
          "indexed": true,
          "internalType": "bytes32",
          "name": "role",
          "type": "bytes32"
        },
        {
          "indexed": true,
          "internalType": "address",
          "name": "account",
          "type": "address"
        },
        {
          "indexed": true,
          "internalType": "address",
          "name": "sender",
          "type": "address"
        }
      ],
      "name": "RoleRevoked",
      "type": "event"
    },
    {
      "anonymous": false,
      "inputs": [
        {
          "indexed": true,
          "internalType": "address",
          "name": "operator",
          "type": "address"
        },
        {
          "indexed": true,
          "internalType": "address",
          "name": "from",
          "type": "address"
        },
        {
          "indexed": true,
          "internalType": "address",
          "name": "to",
          "type": "address"
        },
        {
          "indexed": false,
          "internalType": "uint256[]",
          "name": "ids",
          "type": "uint256[]"
        },
        {
          "indexed": false,
          "internalType": "uint256[]",
          "name": "values",
          "type": "uint256[]"
        }
      ],
      "name": "TransferBatch",
      "type": "event"
    },
    {
      "anonymous": false,
      "inputs": [
        {
          "indexed": true,
          "internalType": "address",
          "name": "operator",
          "type": "address"
        },
        {
          "indexed": true,
          "internalType": "address",
          "name": "from",
          "type": "address"
        },
        {
          "indexed": true,
          "internalType": "address",
          "name": "to",
          "type": "address"
        },
        {
          "indexed": false,
          "internalType": "uint256",
          "name": "id",
          "type": "uint256"
        },
        {
          "indexed": false,
          "internalType": "uint256",
          "name": "value",
          "type": "uint256"
        }
      ],
      "name": "TransferSingle",
      "type": "event"
    },
    {
      "anonymous": false,
      "inputs": [
        {
          "indexed": false,
          "internalType": "string",
          "name": "value",
          "type": "string"
        },
        {
          "indexed": true,
          "internalType": "uint256",
          "name": "id",
          "type": "uint256"
        }
      ],
      "name": "URI",
      "type": "event"
    },
    {
      "anonymous": false,
      "inputs": [
        {
          "indexed": false,
          "internalType": "address",
          "name": "account",
          "type": "address"
        }
      ],
      "name": "Unpaused",
      "type": "event"
    },
    {
      "inputs": [],
      "name": "DEFAULT_ADMIN_ROLE",
      "outputs": [
        {
          "internalType": "bytes32",
          "name": "",
          "type": "bytes32"
        }
      ],
      "stateMutability": "view",
      "type": "function"
    },
    {
      "inputs": [],
      "name": "MINTER_ROLE",
      "outputs": [
        {
          "internalType": "bytes32",
          "name": "",
          "type": "bytes32"
        }
      ],
      "stateMutability": "view",
      "type": "function"
    },
    {
      "inputs": [],
      "name": "PAUSER_ROLE",
      "outputs": [
        {
          "internalType": "bytes32",
          "name": "",
          "type": "bytes32"
        }
      ],
      "stateMutability": "view",
      "type": "function"
    },
    {
      "inputs": [
        {
          "internalType": "address",
          "name": "account",
          "type": "address"
        },
        {
          "internalType": "uint256",
          "name": "id",
          "type": "uint256"
        }
      ],
      "name": "balanceOf",
      "outputs": [
        {
          "internalType": "uint256",
          "name": "",
          "type": "uint256"
        }
      ],
      "stateMutability": "view",
      "type": "function"
    },
    {
      "inputs": [
        {
          "internalType": "address[]",
          "name": "accounts",
          "type": "address[]"
        },
        {
          "internalType": "uint256[]",
          "name": "ids",
          "type": "uint256[]"
        }
      ],
      "name": "balanceOfBatch",
      "outputs": [
        {
          "internalType": "uint256[]",
          "name": "",
          "type": "uint256[]"
        }
      ],
      "stateMutability": "view",
      "type": "function"
    },
    {
      "inputs": [
        {
          "internalType": "address",
          "name": "account",
          "type": "address"
        },
        {
          "internalType": "uint256[]",
          "name": "ids",
          "type": "uint256[]"
        }
      ],
      "name": "balanceOfIds",
      "outputs": [
        {
          "internalType": "uint256[]",
          "name": "",
          "type": "uint256[]"
        }
      ],
      "stateMutability": "view",
      "type": "function"
    },
    {
      "inputs": [
        {
          "internalType": "address",
          "name": "account",
          "type": "address"
        },
        {
          "internalType": "uint256",
          "name": "id",
          "type": "uint256"
        },
        {
          "internalType": "uint256",
          "name": "value",
          "type": "uint256"
        }
      ],
      "name": "burn",
      "outputs": [],
      "stateMutability": "nonpayable",
      "type": "function"
    },
    {
      "inputs": [
        {
          "internalType": "address",
          "name": "account",
          "type": "address"
        },
        {
          "internalType": "uint256[]",
          "name": "ids",
          "type": "uint256[]"
        },
        {
          "internalType": "uint256[]",
          "name": "values",
          "type": "uint256[]"
        }
      ],
      "name": "burnBatch",
      "outputs": [],
      "stateMutability": "nonpayable",
      "type": "function"
    },
    {
      "inputs": [
        {
          "internalType": "bytes",
          "name": "removalData",
          "type": "bytes"
        }
      ],
      "name": "createRemovalId",
      "outputs": [
        {
          "internalType": "uint256",
          "name": "",
          "type": "uint256"
        }
      ],
      "stateMutability": "pure",
      "type": "function"
    },
    {
      "inputs": [
        {
          "internalType": "uint256",
          "name": "id",
          "type": "uint256"
        }
      ],
      "name": "exists",
      "outputs": [
        {
          "internalType": "bool",
          "name": "",
          "type": "bool"
        }
      ],
      "stateMutability": "view",
      "type": "function"
    },
    {
      "inputs": [
        {
          "internalType": "uint256",
          "name": "removalId",
          "type": "uint256"
        }
      ],
      "name": "getProjectIdForRemoval",
      "outputs": [
        {
          "internalType": "uint256",
          "name": "",
          "type": "uint256"
        }
      ],
      "stateMutability": "view",
      "type": "function"
    },
    {
      "inputs": [
        {
          "internalType": "bytes32",
          "name": "role",
          "type": "bytes32"
        }
      ],
      "name": "getRoleAdmin",
      "outputs": [
        {
          "internalType": "bytes32",
          "name": "",
          "type": "bytes32"
        }
      ],
      "stateMutability": "view",
      "type": "function"
    },
    {
      "inputs": [
        {
          "internalType": "bytes32",
          "name": "role",
          "type": "bytes32"
        },
        {
          "internalType": "uint256",
          "name": "index",
          "type": "uint256"
        }
      ],
      "name": "getRoleMember",
      "outputs": [
        {
          "internalType": "address",
          "name": "",
          "type": "address"
        }
      ],
      "stateMutability": "view",
      "type": "function"
    },
    {
      "inputs": [
        {
          "internalType": "bytes32",
          "name": "role",
          "type": "bytes32"
        }
      ],
      "name": "getRoleMemberCount",
      "outputs": [
        {
          "internalType": "uint256",
          "name": "",
          "type": "uint256"
        }
      ],
      "stateMutability": "view",
      "type": "function"
    },
    {
      "inputs": [
        {
          "internalType": "uint256",
          "name": "projectId",
          "type": "uint256"
        }
      ],
      "name": "getScheduleDataForProjectId",
      "outputs": [
        {
          "components": [
            {
              "internalType": "uint256",
              "name": "startTime",
              "type": "uint256"
            },
            {
              "internalType": "address",
              "name": "supplierAddress",
              "type": "address"
            },
            {
              "internalType": "uint256",
              "name": "methodology",
              "type": "uint256"
            },
            {
              "internalType": "uint256",
              "name": "methodologyVersion",
              "type": "uint256"
            }
          ],
          "internalType": "struct Removal.ScheduleData",
          "name": "",
          "type": "tuple"
        }
      ],
      "stateMutability": "view",
      "type": "function"
    },
    {
      "inputs": [
        {
          "internalType": "uint256",
          "name": "removalId",
          "type": "uint256"
        }
      ],
      "name": "getScheduleDataForRemovalId",
      "outputs": [
        {
          "components": [
            {
              "internalType": "uint256",
              "name": "startTime",
              "type": "uint256"
            },
            {
              "internalType": "address",
              "name": "supplierAddress",
              "type": "address"
            },
            {
              "internalType": "uint256",
              "name": "methodology",
              "type": "uint256"
            },
            {
              "internalType": "uint256",
              "name": "methodologyVersion",
              "type": "uint256"
            }
          ],
          "internalType": "struct Removal.ScheduleData",
          "name": "",
          "type": "tuple"
        }
      ],
      "stateMutability": "view",
      "type": "function"
    },
    {
      "inputs": [
        {
          "internalType": "bytes32",
          "name": "role",
          "type": "bytes32"
        },
        {
          "internalType": "address",
          "name": "account",
          "type": "address"
        }
      ],
      "name": "grantRole",
      "outputs": [],
      "stateMutability": "nonpayable",
      "type": "function"
    },
    {
      "inputs": [
        {
          "internalType": "bytes32",
          "name": "role",
          "type": "bytes32"
        },
        {
          "internalType": "address",
          "name": "account",
          "type": "address"
        }
      ],
      "name": "hasRole",
      "outputs": [
        {
          "internalType": "bool",
          "name": "",
          "type": "bool"
        }
      ],
      "stateMutability": "view",
      "type": "function"
    },
    {
      "inputs": [
        {
          "internalType": "uint256",
          "name": "",
          "type": "uint256"
        }
      ],
      "name": "indexToTokenId",
      "outputs": [
        {
          "internalType": "uint256",
          "name": "",
          "type": "uint256"
        }
      ],
      "stateMutability": "view",
      "type": "function"
    },
    {
      "inputs": [],
      "name": "initialize",
      "outputs": [],
      "stateMutability": "nonpayable",
      "type": "function"
    },
    {
      "inputs": [
        {
          "internalType": "string",
          "name": "uri",
          "type": "string"
        }
      ],
      "name": "initialize",
      "outputs": [],
      "stateMutability": "nonpayable",
      "type": "function"
    },
    {
      "inputs": [
        {
          "internalType": "address",
          "name": "account",
          "type": "address"
        },
        {
          "internalType": "address",
          "name": "operator",
          "type": "address"
        }
      ],
      "name": "isApprovedForAll",
      "outputs": [
        {
          "internalType": "bool",
          "name": "",
          "type": "bool"
        }
      ],
      "stateMutability": "view",
      "type": "function"
    },
    {
      "inputs": [
        {
          "internalType": "address",
          "name": "",
          "type": "address"
        },
        {
          "internalType": "uint256",
          "name": "",
          "type": "uint256"
        },
        {
          "internalType": "uint256",
          "name": "",
          "type": "uint256"
        },
        {
          "internalType": "bytes",
          "name": "",
          "type": "bytes"
        }
      ],
      "name": "mint",
      "outputs": [],
      "stateMutability": "pure",
      "type": "function"
    },
    {
      "inputs": [
        {
          "internalType": "address",
          "name": "to",
          "type": "address"
        },
        {
          "internalType": "uint256[]",
          "name": "amounts",
          "type": "uint256[]"
        },
        {
          "internalType": "uint256[]",
          "name": "ids",
          "type": "uint256[]"
        },
        {
          "internalType": "bytes",
          "name": "data",
          "type": "bytes"
        }
      ],
      "name": "mintBatch",
      "outputs": [],
      "stateMutability": "nonpayable",
      "type": "function"
    },
    {
      "inputs": [],
      "name": "name",
      "outputs": [
        {
          "internalType": "string",
          "name": "",
          "type": "string"
        }
      ],
      "stateMutability": "view",
      "type": "function"
    },
    {
      "inputs": [],
      "name": "pause",
      "outputs": [],
      "stateMutability": "nonpayable",
      "type": "function"
    },
    {
      "inputs": [],
      "name": "paused",
      "outputs": [
        {
          "internalType": "bool",
          "name": "",
          "type": "bool"
        }
      ],
      "stateMutability": "view",
      "type": "function"
    },
    {
      "inputs": [
        {
          "internalType": "address",
          "name": "restrictedNORIAddress",
          "type": "address"
        }
      ],
      "name": "registerRestrictedNORIAddress",
      "outputs": [],
      "stateMutability": "nonpayable",
      "type": "function"
    },
    {
      "inputs": [
        {
          "internalType": "bytes32",
          "name": "role",
          "type": "bytes32"
        },
        {
          "internalType": "address",
          "name": "account",
          "type": "address"
        }
      ],
      "name": "renounceRole",
      "outputs": [],
      "stateMutability": "nonpayable",
      "type": "function"
    },
    {
      "inputs": [
        {
          "internalType": "bytes32",
          "name": "role",
          "type": "bytes32"
        },
        {
          "internalType": "address",
          "name": "account",
          "type": "address"
        }
      ],
      "name": "revokeRole",
      "outputs": [],
      "stateMutability": "nonpayable",
      "type": "function"
    },
    {
      "inputs": [
        {
          "internalType": "address",
          "name": "from",
          "type": "address"
        },
        {
          "internalType": "address",
          "name": "to",
          "type": "address"
        },
        {
          "internalType": "uint256[]",
          "name": "ids",
          "type": "uint256[]"
        },
        {
          "internalType": "uint256[]",
          "name": "amounts",
          "type": "uint256[]"
        },
        {
          "internalType": "bytes",
          "name": "data",
          "type": "bytes"
        }
      ],
      "name": "safeBatchTransferFrom",
      "outputs": [],
      "stateMutability": "nonpayable",
      "type": "function"
    },
    {
      "inputs": [
        {
          "internalType": "address",
          "name": "from",
          "type": "address"
        },
        {
          "internalType": "address",
          "name": "to",
          "type": "address"
        },
        {
          "internalType": "uint256",
          "name": "id",
          "type": "uint256"
        },
        {
          "internalType": "uint256",
          "name": "amount",
          "type": "uint256"
        },
        {
          "internalType": "bytes",
          "name": "data",
          "type": "bytes"
        }
      ],
      "name": "safeTransferFrom",
      "outputs": [],
      "stateMutability": "nonpayable",
      "type": "function"
    },
    {
      "inputs": [
        {
          "internalType": "address",
          "name": "owner",
          "type": "address"
        },
        {
          "internalType": "address",
          "name": "operator",
          "type": "address"
        },
        {
          "internalType": "bool",
          "name": "approved",
          "type": "bool"
        }
      ],
      "name": "setApprovalForAll",
      "outputs": [],
      "stateMutability": "nonpayable",
      "type": "function"
    },
    {
      "inputs": [
        {
          "internalType": "address",
          "name": "operator",
          "type": "address"
        },
        {
          "internalType": "bool",
          "name": "approved",
          "type": "bool"
        }
      ],
      "name": "setApprovalForAll",
      "outputs": [],
      "stateMutability": "nonpayable",
      "type": "function"
    },
    {
      "inputs": [
        {
          "internalType": "bytes4",
          "name": "interfaceId",
          "type": "bytes4"
        }
      ],
      "name": "supportsInterface",
      "outputs": [
        {
          "internalType": "bool",
          "name": "",
          "type": "bool"
        }
      ],
      "stateMutability": "view",
      "type": "function"
    },
    {
      "inputs": [],
      "name": "tokenIdCounter",
      "outputs": [
        {
          "internalType": "uint256",
          "name": "",
          "type": "uint256"
        }
      ],
      "stateMutability": "view",
      "type": "function"
    },
    {
      "inputs": [
        {
          "internalType": "uint256",
          "name": "id",
          "type": "uint256"
        }
      ],
      "name": "totalSupply",
      "outputs": [
        {
          "internalType": "uint256",
          "name": "",
          "type": "uint256"
        }
      ],
      "stateMutability": "view",
      "type": "function"
    },
    {
      "inputs": [
        {
          "internalType": "uint256",
          "name": "removalId",
          "type": "uint256"
        }
      ],
      "name": "unpackRemovalIdV0",
      "outputs": [
        {
          "components": [
            {
              "internalType": "uint8",
              "name": "idVersion",
              "type": "uint8"
            },
            {
              "internalType": "uint8",
              "name": "methodology",
              "type": "uint8"
            },
            {
              "internalType": "uint8",
              "name": "methodologyVersion",
              "type": "uint8"
            },
            {
              "internalType": "uint16",
              "name": "vintage",
              "type": "uint16"
            },
            {
              "internalType": "bytes2",
              "name": "country",
              "type": "bytes2"
            },
            {
              "internalType": "bytes2",
              "name": "subdivision",
              "type": "bytes2"
            },
            {
              "internalType": "address",
              "name": "supplierAddress",
              "type": "address"
            },
            {
              "internalType": "uint32",
              "name": "subIdentifier",
              "type": "uint32"
            }
          ],
          "internalType": "struct UnpackedRemovalIdV0",
          "name": "",
          "type": "tuple"
        }
      ],
      "stateMutability": "pure",
      "type": "function"
    },
    {
      "inputs": [],
      "name": "unpause",
      "outputs": [],
      "stateMutability": "nonpayable",
      "type": "function"
    },
    {
      "inputs": [
        {
          "internalType": "uint256",
          "name": "",
          "type": "uint256"
        }
      ],
      "name": "uri",
      "outputs": [
        {
          "internalType": "string",
          "name": "",
          "type": "string"
        }
      ],
      "stateMutability": "view",
      "type": "function"
    }
  ],
  "bytecode": "0x608060405234801561001057600080fd5b50614070806100206000396000f3fe608060405234801561001057600080fd5b50600436106102475760003560e01c80637aef11641161013b578063ca15c873116100b8578063e63ab1e91161007c578063e63ab1e91461059c578063e985e9c5146105b1578063f242432a146105ed578063f5298aca14610600578063f62d18881461061357600080fd5b8063ca15c8731461050e578063d539139314610521578063d547741f14610548578063d85a53e91461055b578063e0fc29381461057b57600080fd5b806398bdf6f5116100ff57806398bdf6f5146104b557806399d5121b146104bf578063a217fddf146104d2578063a22cb465146104da578063bd85b039146104ed57600080fd5b80637aef1164146104465780638129fc1c146104675780638456cb591461046f5780639010d07c1461047757806391d14854146104a257600080fd5b806336568abe116101c95780634f558e791161018d5780634f558e79146103de5780635c975abb146104015780635f830d771461040d5780636b20c45414610420578063731133e91461043357600080fd5b806336568abe1461038a578063367605ca1461039d5780633f4ba83a146103b057806348ec4c3b146103b85780634e1273f4146103cb57600080fd5b80631990ad05116102105780631990ad05146102dd5780631f7fdffa1461032c578063248a9ca3146103415780632eb2c2d6146103645780632f2ff15d1461037757600080fd5b8062fdd58e1461024c578063018e1c831461027257806301ffc9a71461029257806306fdde03146102b55780630e89341c146102ca575b600080fd5b61025f61025a366004612eed565b610626565b6040519081526020015b60405180910390f35b610285610280366004612fef565b6106c2565b6040516102699190613079565b6102a56102a03660046130a2565b61076f565b6040519015158152602001610269565b6102bd61077a565b6040516102699190613117565b6102bd6102d836600461312a565b610809565b6102f06102eb36600461312a565b61089d565b6040516102699190815181526020808301516001600160a01b031690820152604080830151908201526060918201519181019190915260800190565b61033f61033a3660046131c0565b61092b565b005b61025f61034f36600461312a565b60009081526065602052604090206001015490565b61033f61037236600461325a565b610b92565b61033f610385366004613307565b610bfb565b61033f610398366004613307565b610c25565b61033f6103ab366004613345565b610ca3565b61033f610d06565b61025f6103c63660046133d8565b610d9a565b6102856103d9366004613419565b610dad565b6102a56103ec36600461312a565b60009081526101c36020526040902054151590565b61012d5460ff166102a5565b61033f61041b3660046134db565b610ec1565b61033f61042e3660046134f8565b610ef0565b61033f61044136600461356d565b610f33565b61025f61045436600461312a565b6101f86020526000908152604090205481565b61033f610f7b565b61033f611047565b61048a6104853660046135d6565b6110d9565b6040516001600160a01b039091168152602001610269565b6102a56104b0366004613307565b6110f1565b61025f6101f65481565b6102f06104cd36600461312a565b61111c565b61025f600081565b61033f6104e83660046135f8565b61119f565b61025f6104fb36600461312a565b60009081526101c3602052604090205490565b61025f61051c36600461312a565b6111aa565b61025f7f9f2df0fed2c77648de5860a4cc508cd0818c85b8b8a1ab4ceeef8d981c8956a681565b61033f610556366004613307565b6111c1565b61056e61056936600461312a565b6111e6565b6040516102699190613626565b61025f61058936600461312a565b60009081526101fa602052604090205490565b61025f600080516020613ff583398151915281565b6102a56105bf3660046136bd565b6001600160a01b03918216600090815260ca6020908152604080832093909416825291909152205460ff1690565b61033f6105fb3660046136eb565b6111f7565b61033f61060e366004613753565b611243565b61033f610621366004613788565b611286565b60006001600160a01b0383166106975760405162461bcd60e51b815260206004820152602b60248201527f455243313135353a2062616c616e636520717565727920666f7220746865207a60448201526a65726f206164647265737360a81b60648201526084015b60405180910390fd5b50600081815260c9602090815260408083206001600160a01b03861684529091529020545b92915050565b6060600082516001600160401b038111156106df576106df612f19565b604051908082528060200260200182016040528015610708578160200160208202803683370190505b50905060005b83518110156107675761073a8585838151811061072d5761072d6137d8565b6020026020010151610626565b82828151811061074c5761074c6137d8565b602090810291909101015261076081613804565b905061070e565b509392505050565b60006106bc826112fc565b6101f780546107889061381d565b80601f01602080910402602001604051908101604052809291908181526020018280546107b49061381d565b80156108015780601f106107d657610100808354040283529160200191610801565b820191906000526020600020905b8154815290600101906020018083116107e457829003601f168201915b505050505081565b606060cb80546108189061381d565b80601f01602080910402602001604051908101604052809291908181526020018280546108449061381d565b80156108915780601f1061086657610100808354040283529160200191610891565b820191906000526020600020905b81548152906001019060200180831161087457829003601f168201915b50505050509050919050565b6108d160405180608001604052806000815260200160006001600160a01b0316815260200160008152602001600081525090565b5060009081526101fa602090815260408083205483526101fb82529182902082516080810184528154815260018201546001600160a01b031692810192909252600281015492820192909252600390910154606082015290565b815183518114610984576040805163616c411360e01b815260048101919091526007604482015266616d6f756e747360c81b606482015260806024820152600360848201526269647360e81b60a482015260c40161068e565b60008280602001905181019061099a9190613857565b8051602082015160608301516040840151939450919290919060008490036109d857604051633223e66d60e21b81526004810185905260240161068e565b6101f65460005b87811015610a995760008a82815181106109fb576109fb6137d8565b60209081029190910181015160008181526101f990925260409091205490915060ff1615610a3f57604051634acb9c2960e01b81526004810182905260240161068e565b60008181526101fa602090815260408083208a90556101f98252808320805460ff191660019081179091558684526101f8909252909120829055610a8390846138cb565b9250508080610a9190613804565b9150506109df565b50600089600081518110610aaf57610aaf6137d8565b60200260200101519050816101f6819055506040518060800160405280868152602001610adb83611307565b6001600160a01b03168152602001610af283611316565b60ff168152602001610b038361132f565b60ff16905260008781526101fb602090815260409182902083518155908301516001820180546001600160a01b0319166001600160a01b03909216919091179055908201516002820155606090910151600390910155610b658c8b8d8c611347565b610b718c336001610ca3565b8315610b8457610b848c848c8e8d610b92565b505050505050505050505050565b60006101fa600085600081518110610bac57610bac6137d8565b6020026020010151815260200190815260200160002054604051602001610bd591815260200190565b6040516020818303038152906040529050610bf386868686856113ef565b505050505050565b600082815260656020526040902060010154610c168161147f565b610c208383611489565b505050565b6001600160a01b0381163314610c955760405162461bcd60e51b815260206004820152602f60248201527f416363657373436f6e74726f6c3a2063616e206f6e6c792072656e6f756e636560448201526e103937b632b9903337b91039b2b63360891b606482015260840161068e565b610c9f82826114ab565b5050565b6000610cae8161147f565b61012d5460ff1615610cf55760405162461bcd60e51b815260206004820152601060248201526f14185d5cd8589b194e881c185d5cd95960821b604482015260640161068e565b610d008484846114cd565b50505050565b610d1e600080516020613ff5833981519152336110f1565b610d905760405162461bcd60e51b815260206004820152603b60248201527f455243313135355072657365744d696e7465725061757365723a206d7573742060448201527f686176652070617573657220726f6c6520746f20756e70617573650000000000606482015260840161068e565b610d986115ad565b565b6000610da68383611642565b9392505050565b60608151835114610e125760405162461bcd60e51b815260206004820152602960248201527f455243313135353a206163636f756e747320616e6420696473206c656e677468604482015268040dad2e6dac2e8c6d60bb1b606482015260840161068e565b600083516001600160401b03811115610e2d57610e2d612f19565b604051908082528060200260200182016040528015610e56578160200160208202803683370190505b50905060005b845181101561076757610e94858281518110610e7a57610e7a6137d8565b602002602001015185838151811061072d5761072d6137d8565b828281518110610ea657610ea66137d8565b6020908102919091010152610eba81613804565b9050610e5c565b6000610ecc8161147f565b506101f580546001600160a01b0319166001600160a01b0392909216919091179055565b6001600160a01b038316331480610f0c5750610f0c83336105bf565b610f285760405162461bcd60e51b815260040161068e906138e3565b610c20838383611958565b60405162461bcd60e51b815260206004820152601f60248201527f52656d6f76616c3a204552432031313535206d696e742064697361626c656400604482015260640161068e565b6000610f876001611af7565b90508015610f9f576000805461ff0019166101001790555b610fc060405180606001604052806026815260200161401560269139611286565b610fc8611b84565b60006101f6556040805180820190915260078082526614995b5bdd985b60ca1b6020909201918252610ffd916101f791612df0565b508015611044576000805461ff0019169055604051600181527f7f26b83ff96e1f2b6a682f133852f6798a09c465da95921460cefb38474024989060200160405180910390a15b50565b61105f600080516020613ff5833981519152336110f1565b6110d15760405162461bcd60e51b815260206004820152603960248201527f455243313135355072657365744d696e7465725061757365723a206d7573742060448201527f686176652070617573657220726f6c6520746f20706175736500000000000000606482015260840161068e565b610d98611bab565b6000828152609760205260408120610da69083611c28565b60009182526065602090815260408084206001600160a01b0393909316845291905290205460ff1690565b61115060405180608001604052806000815260200160006001600160a01b0316815260200160008152602001600081525090565b5060009081526101fb602090815260409182902082516080810184528154815260018201546001600160a01b031692810192909252600281015492820192909252600390910154606082015290565b610c9f3383836114cd565b60008181526097602052604081206106bc90611c34565b6000828152606560205260409020600101546111dc8161147f565b610c2083836114ab565b6111ee612e74565b6106bc82611c3e565b6001600160a01b038516331480611213575061121385336105bf565b61122f5760405162461bcd60e51b815260040161068e906138e3565b61123c8585858585611cf5565b5050505050565b6001600160a01b03831633148061125f575061125f83336105bf565b61127b5760405162461bcd60e51b815260040161068e906138e3565b610c20838383611e31565b60006112926001611af7565b905080156112aa576000805461ff0019166101001790555b6112b382611f52565b8015610c9f576000805461ff0019169055604051600181527f7f26b83ff96e1f2b6a682f133852f6798a09c465da95921460cefb38474024989060200160405180910390a15050565b60006106bc82611f93565b60006106bc8260146004611fd3565b60006004611327836001601e611fd3565b901c92915050565b600061133e826001601e611fd3565b600f1692915050565b6113717f9f2df0fed2c77648de5860a4cc508cd0818c85b8b8a1ab4ceeef8d981c8956a6336110f1565b6113e35760405162461bcd60e51b815260206004820152603860248201527f455243313135355072657365744d696e7465725061757365723a206d7573742060448201527f68617665206d696e74657220726f6c6520746f206d696e740000000000000000606482015260840161068e565b610d008484848461201f565b6001600160a01b03851633148061140b575061140b85336105bf565b6114725760405162461bcd60e51b815260206004820152603260248201527f455243313135353a207472616e736665722063616c6c6572206973206e6f74206044820152711bdddb995c881b9bdc88185c1c1c9bdd995960721b606482015260840161068e565b61123c85858585856121b4565b6110448133612359565b61149382826123bd565b6000828152609760205260409020610c209082612443565b6114b58282612458565b6000828152609760205260409020610c2090826124bf565b816001600160a01b0316836001600160a01b0316036115405760405162461bcd60e51b815260206004820152602960248201527f455243313135353a2073657474696e6720617070726f76616c20737461747573604482015268103337b91039b2b63360b91b606482015260840161068e565b6001600160a01b03838116600081815260ca6020908152604080832094871680845294825291829020805460ff191686151590811790915591519182527f17307eab39ab6107e8899845ad3d59bd9653f200f220920489ca2b5937696c31910160405180910390a3505050565b61012d5460ff166115f75760405162461bcd60e51b815260206004820152601460248201527314185d5cd8589b194e881b9bdd081c185d5cd95960621b604482015260640161068e565b61012d805460ff191690557f5db9ee0a495bf2e6ff9c91a7834c1ba4fdd244a5e8aa4e537bd38aeae4b073aa335b6040516001600160a01b03909116815260200160405180910390a1565b6000806116518385018561393d565b60ff16905080156116b05760405162461bcd60e51b8152602060048201526024808201527f556e737570706f727465642072656d6f76616c20746f6b656e2069642076657260448201526339b4b7b760e11b606482015260840161068e565b61010083146117145760405162461bcd60e51b815260206004820152602a60248201527f72656d6f76616c4461746120636f6e7461696e732077726f6e67206e756d626560448201526972206f6620627974657360b01b606482015260840161068e565b600061172284860186613996565b9050600f816020015160ff1611156117745760405162461bcd60e51b81526020600482015260156024820152744d6574686f6c6f646f677920746f6f206c6172676560581b604482015260640161068e565b600f816040015160ff1611156117cc5760405162461bcd60e51b815260206004820152601d60248201527f4d6574686f6c6f646f67792076657273696f6e20746f6f206c61726765000000604482015260640161068e565b608081015160a082015160f882811c9260ff60f091821c8116939283901c9290911c16604184108015906118015750605a8411155b801561180e575060418310155b801561181b5750605a8311155b8015611828575060418210155b80156118355750605a8211155b8015611842575060418110155b801561184f5750605a8111155b61188b5760405162461bcd60e51b815260206004820152600d60248201526c496e76616c696420415343494960981b604482015260640161068e565b600085604001516004876020015160ff16901b1760ff169050600860006118b29190613a5a565b60e087015163ffffffff16901b6118cb60086004613a5a565b60c08801516001600160a01b0316901b6118e760086018613a5a565b60a089015160f01c901b6118fd6008601a613a5a565b60808a015160f01c901b6119136008601c613a5a565b60608b015161ffff16901b61192a6008601e613a5a565b86901b6119396008601f613a5a565b8c6000015160ff16901b17171717171797505050505050505092915050565b6001600160a01b03831661197e5760405162461bcd60e51b815260040161068e90613a79565b805182511461199f5760405162461bcd60e51b815260040161068e90613abc565b60003390506119c2818560008686604051806020016040528060008152506124d4565b60005b8351811015611a8a5760008482815181106119e2576119e26137d8565b602002602001015190506000848381518110611a0057611a006137d8565b602090810291909101810151600084815260c9835260408082206001600160a01b038c168352909352919091205490915081811015611a515760405162461bcd60e51b815260040161068e90613b04565b600092835260c9602090815260408085206001600160a01b038b1686529091529092209103905580611a8281613804565b9150506119c5565b5060006001600160a01b0316846001600160a01b0316826001600160a01b03167f4a39dc06d4c0dbc64b70af90fd698a233a518aa5d07e595d983b8c0526c8f7fb8686604051611adb929190613b48565b60405180910390a4604080516020810190915260009052610d00565b60008054610100900460ff1615611b3e578160ff166001148015611b1a5750303b155b611b365760405162461bcd60e51b815260040161068e90613b76565b506000919050565b60005460ff808416911610611b655760405162461bcd60e51b815260040161068e90613b76565b506000805460ff191660ff92909216919091179055600190565b919050565b600054610100900460ff16610d985760405162461bcd60e51b815260040161068e90613bc4565b61012d5460ff1615611bf25760405162461bcd60e51b815260206004820152601060248201526f14185d5cd8589b194e881c185d5cd95960821b604482015260640161068e565b61012d805460ff191660011790557f62e78cea01bee320cd4e420270b5ea74000d11b0c9f74754ebdbfc544b05a2586116253390565b6000610da683836124e2565b60006106bc825490565b611c46612e74565b604051806101000160405280611c5b8461250c565b60ff168152602001611c6c84611316565b60ff168152602001611c7d8461132f565b60ff168152602001611c8e8461251b565b61ffff168152602001611ca08461252a565b6001600160f01b0319168152602001611cb884612542565b6001600160f01b0319168152602001611cd084611307565b6001600160a01b03168152602001611ce784612551565b63ffffffff16905292915050565b6001600160a01b038416611d1b5760405162461bcd60e51b815260040161068e90613c0f565b336000611d2785612560565b90506000611d3485612560565b9050611d448389898585896124d4565b600086815260c9602090815260408083206001600160a01b038c16845290915290205485811015611d875760405162461bcd60e51b815260040161068e90613c54565b600087815260c9602090815260408083206001600160a01b038d8116855292528083208985039055908a16825281208054889290611dc69084906138cb565b909155505060408051888152602081018890526001600160a01b03808b16928c821692918816917fc3d58168c5ae7397731d063d5bbf3d657854427343f4c083240f7aacaa2d0f62910160405180910390a4611e26848a8a8a8a8a6125ab565b505050505050505050565b6001600160a01b038316611e575760405162461bcd60e51b815260040161068e90613a79565b336000611e6384612560565b90506000611e7084612560565b9050611e90838760008585604051806020016040528060008152506124d4565b600085815260c9602090815260408083206001600160a01b038a16845290915290205484811015611ed35760405162461bcd60e51b815260040161068e90613b04565b600086815260c9602090815260408083206001600160a01b038b81168086529184528285208a8703905582518b81529384018a90529092908816917fc3d58168c5ae7397731d063d5bbf3d657854427343f4c083240f7aacaa2d0f62910160405180910390a46040805160208101909152600090525b50505050505050565b600054610100900460ff16611f795760405162461bcd60e51b815260040161068e90613bc4565b611f8281612706565b611f8a612736565b6110448161276a565b60006001600160e01b03198216636cdb3d1360e11b1480611fc457506001600160e01b031982166303a24d0760e21b145b806106bc57506106bc826127de565b600080611fe1600884613a5a565b6001611fee600887613a5a565b611ff9906002613d82565b6120039190613d8e565b901b9050848116612015600885613a5a565b1c95945050505050565b6001600160a01b03841661207f5760405162461bcd60e51b815260206004820152602160248201527f455243313135353a206d696e7420746f20746865207a65726f206164647265736044820152607360f81b606482015260840161068e565b81518351146120a05760405162461bcd60e51b815260040161068e90613abc565b336120b0816000878787876124d4565b60005b845181101561214c578381815181106120ce576120ce6137d8565b602002602001015160c960008784815181106120ec576120ec6137d8565b602002602001015181526020019081526020016000206000886001600160a01b03166001600160a01b03168152602001908152602001600020600082825461213491906138cb565b9091555081905061214481613804565b9150506120b3565b50846001600160a01b031660006001600160a01b0316826001600160a01b03167f4a39dc06d4c0dbc64b70af90fd698a233a518aa5d07e595d983b8c0526c8f7fb878760405161219d929190613b48565b60405180910390a461123c81600087878787612803565b81518351146121d55760405162461bcd60e51b815260040161068e90613abc565b6001600160a01b0384166121fb5760405162461bcd60e51b815260040161068e90613c0f565b3361220a8187878787876124d4565b60005b84518110156122f357600085828151811061222a5761222a6137d8565b602002602001015190506000858381518110612248576122486137d8565b602090810291909101810151600084815260c9835260408082206001600160a01b038e1683529093529190912054909150818110156122995760405162461bcd60e51b815260040161068e90613c54565b600083815260c9602090815260408083206001600160a01b038e8116855292528083208585039055908b168252812080548492906122d89084906138cb565b92505081905550505050806122ec90613804565b905061220d565b50846001600160a01b0316866001600160a01b0316826001600160a01b03167f4a39dc06d4c0dbc64b70af90fd698a233a518aa5d07e595d983b8c0526c8f7fb8787604051612343929190613b48565b60405180910390a4610bf3818787878787612803565b61236382826110f1565b610c9f5761237b816001600160a01b031660146128be565b6123868360206128be565b604051602001612397929190613da5565b60408051601f198184030181529082905262461bcd60e51b825261068e91600401613117565b6123c782826110f1565b610c9f5760008281526065602090815260408083206001600160a01b03851684529091529020805460ff191660011790556123ff3390565b6001600160a01b0316816001600160a01b0316837f2f8788117e7eff1d82e926ec794901d17c78024a50270940304540a733656f0d60405160405180910390a45050565b6000610da6836001600160a01b038416612a59565b61246282826110f1565b15610c9f5760008281526065602090815260408083206001600160a01b0385168085529252808320805460ff1916905551339285917ff6391f5c32d9c69d2a47ea670b442974b53935d1edc7fd64eb21e047a839171b9190a45050565b6000610da6836001600160a01b038416612aa8565b610bf3868686868686612ba2565b60008260000182815481106124f9576124f96137d8565b9060005260206000200154905092915050565b60006106bc826001601f611fd3565b60006106bc826002601c611fd3565b6000612539826002601a611fd3565b60f01b92915050565b60006125398260026018611fd3565b60006106bc8260046000611fd3565b6040805160018082528183019092526060916000919060208083019080368337019050509050828160008151811061259a5761259a6137d8565b602090810291909101015292915050565b6001600160a01b0384163b15610bf35760405163f23a6e6160e01b81526001600160a01b0385169063f23a6e61906125ef9089908990889088908890600401613e1a565b6020604051808303816000875af192505050801561262a575060408051601f3d908101601f1916820190925261262791810190613e5f565b60015b6126d657612636613e7c565b806308c379a00361266f575061264a613e98565b806126555750612671565b8060405162461bcd60e51b815260040161068e9190613117565b505b60405162461bcd60e51b815260206004820152603460248201527f455243313135353a207472616e7366657220746f206e6f6e20455243313135356044820152732932b1b2b4bb32b91034b6b83632b6b2b73a32b960611b606482015260840161068e565b6001600160e01b0319811663f23a6e6160e01b14611f495760405162461bcd60e51b815260040161068e90613f21565b600054610100900460ff1661272d5760405162461bcd60e51b815260040161068e90613bc4565b61104481612d2c565b600054610100900460ff1661275d5760405162461bcd60e51b815260040161068e90613bc4565b61012d805460ff19169055565b600054610100900460ff166127915760405162461bcd60e51b815260040161068e90613bc4565b61279c600033612d3f565b6127c67f9f2df0fed2c77648de5860a4cc508cd0818c85b8b8a1ab4ceeef8d981c8956a633612d3f565b611044600080516020613ff583398151915233612d3f565b60006001600160e01b03198216635a05180f60e01b14806106bc57506106bc82612d49565b6001600160a01b0384163b15610bf35760405163bc197c8160e01b81526001600160a01b0385169063bc197c81906128479089908990889088908890600401613f69565b6020604051808303816000875af1925050508015612882575060408051601f3d908101601f1916820190925261287f91810190613e5f565b60015b61288e57612636613e7c565b6001600160e01b0319811663bc197c8160e01b14611f495760405162461bcd60e51b815260040161068e90613f21565b606060006128cd836002613a5a565b6128d89060026138cb565b6001600160401b038111156128ef576128ef612f19565b6040519080825280601f01601f191660200182016040528015612919576020820181803683370190505b509050600360fc1b81600081518110612934576129346137d8565b60200101906001600160f81b031916908160001a905350600f60fb1b81600181518110612963576129636137d8565b60200101906001600160f81b031916908160001a9053506000612987846002613a5a565b6129929060016138cb565b90505b6001811115612a0a576f181899199a1a9b1b9c1cb0b131b232b360811b85600f16601081106129c6576129c66137d8565b1a60f81b8282815181106129dc576129dc6137d8565b60200101906001600160f81b031916908160001a90535060049490941c93612a0381613fc7565b9050612995565b508315610da65760405162461bcd60e51b815260206004820181905260248201527f537472696e67733a20686578206c656e67746820696e73756666696369656e74604482015260640161068e565b6000818152600183016020526040812054612aa0575081546001818101845560008481526020808220909301849055845484825282860190935260409020919091556106bc565b5060006106bc565b60008181526001830160205260408120548015612b91576000612acc600183613d8e565b8554909150600090612ae090600190613d8e565b9050818114612b45576000866000018281548110612b0057612b006137d8565b9060005260206000200154905080876000018481548110612b2357612b236137d8565b6000918252602080832090910192909255918252600188019052604090208390555b8554869080612b5657612b56613fde565b6001900381819060005260206000200160009055905585600101600086815260200190815260200160002060009055600193505050506106bc565b60009150506106bc565b5092915050565b612bb0868686868686612d7e565b6001600160a01b038516612c385760005b8351811015612c3657828181518110612bdc57612bdc6137d8565b60200260200101516101c36000868481518110612bfb57612bfb6137d8565b602002602001015181526020019081526020016000206000828254612c2091906138cb565b90915550612c2f905081613804565b9050612bc1565b505b6001600160a01b038416610bf35760005b8351811015611f49576000848281518110612c6657612c666137d8565b602002602001015190506000848381518110612c8457612c846137d8565b6020026020010151905060006101c3600084815260200190815260200160002054905081811015612d085760405162461bcd60e51b815260206004820152602860248201527f455243313135353a206275726e20616d6f756e74206578636565647320746f74604482015267616c537570706c7960c01b606482015260840161068e565b60009283526101c3602052604090922091039055612d2581613804565b9050612c49565b8051610c9f9060cb906020840190612df0565b610c9f8282611489565b60006001600160e01b03198216637965db0b60e01b14806106bc57506301ffc9a760e01b6001600160e01b03198316146106bc565b610bf386868686868661012d5460ff1615610bf35760405162461bcd60e51b815260206004820152602c60248201527f455243313135355061757361626c653a20746f6b656e207472616e736665722060448201526b1dda1a5b19481c185d5cd95960a21b606482015260840161068e565b828054612dfc9061381d565b90600052602060002090601f016020900481019282612e1e5760008555612e64565b82601f10612e3757805160ff1916838001178555612e64565b82800160010185558215612e64579182015b82811115612e64578251825591602001919060010190612e49565b50612e70929150612eb8565b5090565b6040805161010081018252600080825260208201819052918101829052606081018290526080810182905260a0810182905260c0810182905260e081019190915290565b5b80821115612e705760008155600101612eb9565b6001600160a01b038116811461104457600080fd5b8035611b7f81612ecd565b60008060408385031215612f0057600080fd5b8235612f0b81612ecd565b946020939093013593505050565b634e487b7160e01b600052604160045260246000fd5b601f8201601f191681016001600160401b0381118282101715612f5457612f54612f19565b6040525050565b60006001600160401b03821115612f7457612f74612f19565b5060051b60200190565b600082601f830112612f8f57600080fd5b81356020612f9c82612f5b565b604051612fa98282612f2f565b83815260059390931b8501820192828101915086841115612fc957600080fd5b8286015b84811015612fe45780358352918301918301612fcd565b509695505050505050565b6000806040838503121561300257600080fd5b823561300d81612ecd565b915060208301356001600160401b0381111561302857600080fd5b61303485828601612f7e565b9150509250929050565b600081518084526020808501945080840160005b8381101561306e57815187529582019590820190600101613052565b509495945050505050565b602081526000610da6602083018461303e565b6001600160e01b03198116811461104457600080fd5b6000602082840312156130b457600080fd5b8135610da68161308c565b60005b838110156130da5781810151838201526020016130c2565b83811115610d005750506000910152565b600081518084526131038160208601602086016130bf565b601f01601f19169290920160200192915050565b602081526000610da660208301846130eb565b60006020828403121561313c57600080fd5b5035919050565b60006001600160401b0383111561315c5761315c612f19565b604051613173601f8501601f191660200182612f2f565b80915083815284848401111561318857600080fd5b83836020830137600060208583010152509392505050565b600082601f8301126131b157600080fd5b610da683833560208501613143565b600080600080608085870312156131d657600080fd5b84356131e181612ecd565b935060208501356001600160401b03808211156131fd57600080fd5b61320988838901612f7e565b9450604087013591508082111561321f57600080fd5b61322b88838901612f7e565b9350606087013591508082111561324157600080fd5b5061324e878288016131a0565b91505092959194509250565b600080600080600060a0868803121561327257600080fd5b853561327d81612ecd565b9450602086013561328d81612ecd565b935060408601356001600160401b03808211156132a957600080fd5b6132b589838a01612f7e565b945060608801359150808211156132cb57600080fd5b6132d789838a01612f7e565b935060808801359150808211156132ed57600080fd5b506132fa888289016131a0565b9150509295509295909350565b6000806040838503121561331a57600080fd5b82359150602083013561332c81612ecd565b809150509250929050565b801515811461104457600080fd5b60008060006060848603121561335a57600080fd5b833561336581612ecd565b9250602084013561337581612ecd565b9150604084013561338581613337565b809150509250925092565b60008083601f8401126133a257600080fd5b5081356001600160401b038111156133b957600080fd5b6020830191508360208285010111156133d157600080fd5b9250929050565b600080602083850312156133eb57600080fd5b82356001600160401b0381111561340157600080fd5b61340d85828601613390565b90969095509350505050565b6000806040838503121561342c57600080fd5b82356001600160401b038082111561344357600080fd5b818501915085601f83011261345757600080fd5b8135602061346482612f5b565b6040516134718282612f2f565b83815260059390931b850182019282810191508984111561349157600080fd5b948201945b838610156134b85785356134a981612ecd565b82529482019490820190613496565b965050860135925050808211156134ce57600080fd5b5061303485828601612f7e565b6000602082840312156134ed57600080fd5b8135610da681612ecd565b60008060006060848603121561350d57600080fd5b833561351881612ecd565b925060208401356001600160401b038082111561353457600080fd5b61354087838801612f7e565b9350604086013591508082111561355657600080fd5b5061356386828701612f7e565b9150509250925092565b60008060008060006080868803121561358557600080fd5b853561359081612ecd565b9450602086013593506040860135925060608601356001600160401b038111156135b957600080fd5b6135c588828901613390565b969995985093965092949392505050565b600080604083850312156135e957600080fd5b50508035926020909101359150565b6000806040838503121561360b57600080fd5b823561361681612ecd565b9150602083013561332c81613337565b60006101008201905060ff835116825260ff602084015116602083015260ff604084015116604083015261ffff606084015116606083015261ffff60f01b608084015116608083015260a083015161368a60a08401826001600160f01b0319169052565b5060c08301516136a560c08401826001600160a01b03169052565b5060e0830151612b9b60e084018263ffffffff169052565b600080604083850312156136d057600080fd5b82356136db81612ecd565b9150602083013561332c81612ecd565b600080600080600060a0868803121561370357600080fd5b853561370e81612ecd565b9450602086013561371e81612ecd565b9350604086013592506060860135915060808601356001600160401b0381111561374757600080fd5b6132fa888289016131a0565b60008060006060848603121561376857600080fd5b833561377381612ecd565b95602085013595506040909401359392505050565b60006020828403121561379a57600080fd5b81356001600160401b038111156137b057600080fd5b8201601f810184136137c157600080fd5b6137d084823560208401613143565b949350505050565b634e487b7160e01b600052603260045260246000fd5b634e487b7160e01b600052601160045260246000fd5b600060018201613816576138166137ee565b5060010190565b600181811c9082168061383157607f821691505b60208210810361385157634e487b7160e01b600052602260045260246000fd5b50919050565b60006080828403121561386957600080fd5b604051608081018181106001600160401b038211171561388b5761388b612f19565b8060405250825181526020830151602082015260408301516138ac81612ecd565b604082015260608301516138bf81613337565b60608201529392505050565b600082198211156138de576138de6137ee565b500190565b60208082526029908201527f455243313135353a2063616c6c6572206973206e6f74206f776e6572206e6f7260408201526808185c1c1c9bdd995960ba1b606082015260800190565b803560ff81168114611b7f57600080fd5b60006020828403121561394f57600080fd5b610da68261392c565b803561ffff81168114611b7f57600080fd5b80356001600160f01b031981168114611b7f57600080fd5b803563ffffffff81168114611b7f57600080fd5b60006101008083850312156139aa57600080fd5b604051908101906001600160401b03821181831017156139cc576139cc612f19565b816040526139d98461392c565b81526139e76020850161392c565b60208201526139f86040850161392c565b6040820152613a0960608501613958565b6060820152613a1a6080850161396a565b6080820152613a2b60a0850161396a565b60a0820152613a3c60c08501612ee2565b60c0820152613a4d60e08501613982565b60e0820152949350505050565b6000816000190483118215151615613a7457613a746137ee565b500290565b60208082526023908201527f455243313135353a206275726e2066726f6d20746865207a65726f206164647260408201526265737360e81b606082015260800190565b60208082526028908201527f455243313135353a2069647320616e6420616d6f756e7473206c656e677468206040820152670dad2e6dac2e8c6d60c31b606082015260800190565b60208082526024908201527f455243313135353a206275726e20616d6f756e7420657863656564732062616c604082015263616e636560e01b606082015260800190565b604081526000613b5b604083018561303e565b8281036020840152613b6d818561303e565b95945050505050565b6020808252602e908201527f496e697469616c697a61626c653a20636f6e747261637420697320616c72656160408201526d191e481a5b9a5d1a585b1a5e995960921b606082015260800190565b6020808252602b908201527f496e697469616c697a61626c653a20636f6e7472616374206973206e6f74206960408201526a6e697469616c697a696e6760a81b606082015260800190565b60208082526025908201527f455243313135353a207472616e7366657220746f20746865207a65726f206164604082015264647265737360d81b606082015260800190565b6020808252602a908201527f455243313135353a20696e73756666696369656e742062616c616e636520666f60408201526939103a3930b739b332b960b11b606082015260800190565b600181815b80851115613cd9578160001904821115613cbf57613cbf6137ee565b80851615613ccc57918102915b93841c9390800290613ca3565b509250929050565b600082613cf0575060016106bc565b81613cfd575060006106bc565b8160018114613d135760028114613d1d57613d39565b60019150506106bc565b60ff841115613d2e57613d2e6137ee565b50506001821b6106bc565b5060208310610133831016604e8410600b8410161715613d5c575081810a6106bc565b613d668383613c9e565b8060001904821115613d7a57613d7a6137ee565b029392505050565b6000610da68383613ce1565b600082821015613da057613da06137ee565b500390565b7f416363657373436f6e74726f6c3a206163636f756e7420000000000000000000815260008351613ddd8160178501602088016130bf565b7001034b99036b4b9b9b4b733903937b6329607d1b6017918401918201528351613e0e8160288401602088016130bf565b01602801949350505050565b6001600160a01b03868116825285166020820152604081018490526060810183905260a060808201819052600090613e54908301846130eb565b979650505050505050565b600060208284031215613e7157600080fd5b8151610da68161308c565b600060033d1115613e955760046000803e5060005160e01c5b90565b600060443d1015613ea65790565b6040516003193d81016004833e81513d6001600160401b038160248401118184111715613ed557505050505090565b8285019150815181811115613eed5750505050505090565b843d8701016020828501011115613f075750505050505090565b613f1660208286010187612f2f565b509095945050505050565b60208082526028908201527f455243313135353a204552433131353552656365697665722072656a656374656040820152676420746f6b656e7360c01b606082015260800190565b6001600160a01b0386811682528516602082015260a060408201819052600090613f959083018661303e565b8281036060840152613fa7818661303e565b90508281036080840152613fbb81856130eb565b98975050505050505050565b600081613fd657613fd66137ee565b506000190190565b634e487b7160e01b600052603160045260246000fdfe65d7a28e3265b37a6474929f336521b332c1681b933f6cb9f3376673440d862a68747470733a2f2f6e6f72692e636f6d2f6170692f72656d6f76616c2f7b69647d2e6a736f6ea264697066735822122083c1ad1b84cfe67a61d00b04f444072b8a147eab7e3f7e5f4c148b12d3fe9c7c64736f6c634300080d0033",
  "linkReferences": {},
  "deployedLinkReferences": {}
}