{
  "_format": "hh-sol-artifact-1",
  "contractName": "Removal",
  "sourceName": "contracts/Removal.sol",
  "abi": [
    {
      "anonymous": false,
      "inputs": [
        {
          "indexed": true,
          "internalType": "address",
          "name": "account",
          "type": "address"
        },
        {
          "indexed": true,
          "internalType": "address",
          "name": "operator",
          "type": "address"
        },
        {
          "indexed": false,
          "internalType": "bool",
          "name": "approved",
          "type": "bool"
        }
      ],
      "name": "ApprovalForAll",
      "type": "event"
    },
    {
      "anonymous": false,
      "inputs": [
        {
          "indexed": false,
          "internalType": "address",
          "name": "account",
          "type": "address"
        }
      ],
      "name": "Paused",
      "type": "event"
    },
    {
      "anonymous": false,
      "inputs": [
        {
          "indexed": true,
          "internalType": "bytes32",
          "name": "role",
          "type": "bytes32"
        },
        {
          "indexed": true,
          "internalType": "bytes32",
          "name": "previousAdminRole",
          "type": "bytes32"
        },
        {
          "indexed": true,
          "internalType": "bytes32",
          "name": "newAdminRole",
          "type": "bytes32"
        }
      ],
      "name": "RoleAdminChanged",
      "type": "event"
    },
    {
      "anonymous": false,
      "inputs": [
        {
          "indexed": true,
          "internalType": "bytes32",
          "name": "role",
          "type": "bytes32"
        },
        {
          "indexed": true,
          "internalType": "address",
          "name": "account",
          "type": "address"
        },
        {
          "indexed": true,
          "internalType": "address",
          "name": "sender",
          "type": "address"
        }
      ],
      "name": "RoleGranted",
      "type": "event"
    },
    {
      "anonymous": false,
      "inputs": [
        {
          "indexed": true,
          "internalType": "bytes32",
          "name": "role",
          "type": "bytes32"
        },
        {
          "indexed": true,
          "internalType": "address",
          "name": "account",
          "type": "address"
        },
        {
          "indexed": true,
          "internalType": "address",
          "name": "sender",
          "type": "address"
        }
      ],
      "name": "RoleRevoked",
      "type": "event"
    },
    {
      "anonymous": false,
      "inputs": [
        {
          "indexed": true,
          "internalType": "address",
          "name": "operator",
          "type": "address"
        },
        {
          "indexed": true,
          "internalType": "address",
          "name": "from",
          "type": "address"
        },
        {
          "indexed": true,
          "internalType": "address",
          "name": "to",
          "type": "address"
        },
        {
          "indexed": false,
          "internalType": "uint256[]",
          "name": "ids",
          "type": "uint256[]"
        },
        {
          "indexed": false,
          "internalType": "uint256[]",
          "name": "values",
          "type": "uint256[]"
        }
      ],
      "name": "TransferBatch",
      "type": "event"
    },
    {
      "anonymous": false,
      "inputs": [
        {
          "indexed": true,
          "internalType": "address",
          "name": "operator",
          "type": "address"
        },
        {
          "indexed": true,
          "internalType": "address",
          "name": "from",
          "type": "address"
        },
        {
          "indexed": true,
          "internalType": "address",
          "name": "to",
          "type": "address"
        },
        {
          "indexed": false,
          "internalType": "uint256",
          "name": "id",
          "type": "uint256"
        },
        {
          "indexed": false,
          "internalType": "uint256",
          "name": "value",
          "type": "uint256"
        }
      ],
      "name": "TransferSingle",
      "type": "event"
    },
    {
      "anonymous": false,
      "inputs": [
        {
          "indexed": false,
          "internalType": "string",
          "name": "value",
          "type": "string"
        },
        {
          "indexed": true,
          "internalType": "uint256",
          "name": "id",
          "type": "uint256"
        }
      ],
      "name": "URI",
      "type": "event"
    },
    {
      "anonymous": false,
      "inputs": [
        {
          "indexed": false,
          "internalType": "address",
          "name": "account",
          "type": "address"
        }
      ],
      "name": "Unpaused",
      "type": "event"
    },
    {
      "inputs": [],
      "name": "DEFAULT_ADMIN_ROLE",
      "outputs": [
        {
          "internalType": "bytes32",
          "name": "",
          "type": "bytes32"
        }
      ],
      "stateMutability": "view",
      "type": "function"
    },
    {
      "inputs": [],
      "name": "MINTER_ROLE",
      "outputs": [
        {
          "internalType": "bytes32",
          "name": "",
          "type": "bytes32"
        }
      ],
      "stateMutability": "view",
      "type": "function"
    },
    {
      "inputs": [],
      "name": "PAUSER_ROLE",
      "outputs": [
        {
          "internalType": "bytes32",
          "name": "",
          "type": "bytes32"
        }
      ],
      "stateMutability": "view",
      "type": "function"
    },
    {
      "inputs": [
        {
          "internalType": "address",
          "name": "account",
          "type": "address"
        },
        {
          "internalType": "uint256",
          "name": "id",
          "type": "uint256"
        }
      ],
      "name": "balanceOf",
      "outputs": [
        {
          "internalType": "uint256",
          "name": "",
          "type": "uint256"
        }
      ],
      "stateMutability": "view",
      "type": "function"
    },
    {
      "inputs": [
        {
          "internalType": "address[]",
          "name": "accounts",
          "type": "address[]"
        },
        {
          "internalType": "uint256[]",
          "name": "ids",
          "type": "uint256[]"
        }
      ],
      "name": "balanceOfBatch",
      "outputs": [
        {
          "internalType": "uint256[]",
          "name": "",
          "type": "uint256[]"
        }
      ],
      "stateMutability": "view",
      "type": "function"
    },
    {
      "inputs": [
        {
          "internalType": "address",
          "name": "account",
          "type": "address"
        },
        {
          "internalType": "uint256",
          "name": "id",
          "type": "uint256"
        },
        {
          "internalType": "uint256",
          "name": "value",
          "type": "uint256"
        }
      ],
      "name": "burn",
      "outputs": [],
      "stateMutability": "nonpayable",
      "type": "function"
    },
    {
      "inputs": [
        {
          "internalType": "address",
          "name": "account",
          "type": "address"
        },
        {
          "internalType": "uint256[]",
          "name": "ids",
          "type": "uint256[]"
        },
        {
          "internalType": "uint256[]",
          "name": "values",
          "type": "uint256[]"
        }
      ],
      "name": "burnBatch",
      "outputs": [],
      "stateMutability": "nonpayable",
      "type": "function"
    },
    {
      "inputs": [
        {
          "internalType": "uint256",
          "name": "id",
          "type": "uint256"
        }
      ],
      "name": "exists",
      "outputs": [
        {
          "internalType": "bool",
          "name": "",
          "type": "bool"
        }
      ],
      "stateMutability": "view",
      "type": "function"
    },
    {
      "inputs": [
        {
          "internalType": "bytes32",
          "name": "role",
          "type": "bytes32"
        }
      ],
      "name": "getRoleAdmin",
      "outputs": [
        {
          "internalType": "bytes32",
          "name": "",
          "type": "bytes32"
        }
      ],
      "stateMutability": "view",
      "type": "function"
    },
    {
      "inputs": [
        {
          "internalType": "bytes32",
          "name": "role",
          "type": "bytes32"
        },
        {
          "internalType": "uint256",
          "name": "index",
          "type": "uint256"
        }
      ],
      "name": "getRoleMember",
      "outputs": [
        {
          "internalType": "address",
          "name": "",
          "type": "address"
        }
      ],
      "stateMutability": "view",
      "type": "function"
    },
    {
      "inputs": [
        {
          "internalType": "bytes32",
          "name": "role",
          "type": "bytes32"
        }
      ],
      "name": "getRoleMemberCount",
      "outputs": [
        {
          "internalType": "uint256",
          "name": "",
          "type": "uint256"
        }
      ],
      "stateMutability": "view",
      "type": "function"
    },
    {
      "inputs": [
        {
          "internalType": "bytes32",
          "name": "role",
          "type": "bytes32"
        },
        {
          "internalType": "address",
          "name": "account",
          "type": "address"
        }
      ],
      "name": "grantRole",
      "outputs": [],
      "stateMutability": "nonpayable",
      "type": "function"
    },
    {
      "inputs": [
        {
          "internalType": "bytes32",
          "name": "role",
          "type": "bytes32"
        },
        {
          "internalType": "address",
          "name": "account",
          "type": "address"
        }
      ],
      "name": "hasRole",
      "outputs": [
        {
          "internalType": "bool",
          "name": "",
          "type": "bool"
        }
      ],
      "stateMutability": "view",
      "type": "function"
    },
    {
      "inputs": [],
      "name": "initialize",
      "outputs": [],
      "stateMutability": "nonpayable",
      "type": "function"
    },
    {
      "inputs": [
        {
          "internalType": "string",
          "name": "uri",
          "type": "string"
        }
      ],
      "name": "initialize",
      "outputs": [],
      "stateMutability": "nonpayable",
      "type": "function"
    },
    {
      "inputs": [
        {
          "internalType": "address",
          "name": "account",
          "type": "address"
        },
        {
          "internalType": "address",
          "name": "operator",
          "type": "address"
        }
      ],
      "name": "isApprovedForAll",
      "outputs": [
        {
          "internalType": "bool",
          "name": "",
          "type": "bool"
        }
      ],
      "stateMutability": "view",
      "type": "function"
    },
    {
      "inputs": [
        {
          "internalType": "address",
          "name": "to",
          "type": "address"
        },
        {
          "internalType": "uint256",
          "name": "id",
          "type": "uint256"
        },
        {
          "internalType": "uint256",
          "name": "amount",
          "type": "uint256"
        },
        {
          "internalType": "bytes",
          "name": "data",
          "type": "bytes"
        }
      ],
      "name": "mint",
      "outputs": [],
      "stateMutability": "nonpayable",
      "type": "function"
    },
    {
      "inputs": [
        {
          "internalType": "address",
          "name": "to",
          "type": "address"
        },
        {
          "internalType": "uint256[]",
          "name": "amounts",
          "type": "uint256[]"
        },
        {
          "internalType": "uint256[]",
          "name": "vintages",
          "type": "uint256[]"
        },
        {
          "internalType": "bytes",
          "name": "data",
          "type": "bytes"
        }
      ],
      "name": "mintBatch",
      "outputs": [],
      "stateMutability": "nonpayable",
      "type": "function"
    },
    {
      "inputs": [],
      "name": "name",
      "outputs": [
        {
          "internalType": "string",
          "name": "",
          "type": "string"
        }
      ],
      "stateMutability": "view",
      "type": "function"
    },
    {
      "inputs": [],
      "name": "pause",
      "outputs": [],
      "stateMutability": "nonpayable",
      "type": "function"
    },
    {
      "inputs": [],
      "name": "paused",
      "outputs": [
        {
          "internalType": "bool",
          "name": "",
          "type": "bool"
        }
      ],
      "stateMutability": "view",
      "type": "function"
    },
    {
      "inputs": [
        {
          "internalType": "bytes32",
          "name": "role",
          "type": "bytes32"
        },
        {
          "internalType": "address",
          "name": "account",
          "type": "address"
        }
      ],
      "name": "renounceRole",
      "outputs": [],
      "stateMutability": "nonpayable",
      "type": "function"
    },
    {
      "inputs": [
        {
          "internalType": "bytes32",
          "name": "role",
          "type": "bytes32"
        },
        {
          "internalType": "address",
          "name": "account",
          "type": "address"
        }
      ],
      "name": "revokeRole",
      "outputs": [],
      "stateMutability": "nonpayable",
      "type": "function"
    },
    {
      "inputs": [
        {
          "internalType": "address",
          "name": "_from",
          "type": "address"
        },
        {
          "internalType": "address",
          "name": "_to",
          "type": "address"
        },
        {
          "internalType": "uint256[]",
          "name": "_ids",
          "type": "uint256[]"
        },
        {
          "internalType": "uint256[]",
          "name": "_amounts",
          "type": "uint256[]"
        },
        {
          "internalType": "bytes",
          "name": "_data",
          "type": "bytes"
        }
      ],
      "name": "safeBatchTransferFrom",
      "outputs": [],
      "stateMutability": "nonpayable",
      "type": "function"
    },
    {
      "inputs": [
        {
          "internalType": "address",
          "name": "from",
          "type": "address"
        },
        {
          "internalType": "address",
          "name": "to",
          "type": "address"
        },
        {
          "internalType": "uint256",
          "name": "id",
          "type": "uint256"
        },
        {
          "internalType": "uint256",
          "name": "amount",
          "type": "uint256"
        },
        {
          "internalType": "bytes",
          "name": "data",
          "type": "bytes"
        }
      ],
      "name": "safeTransferFrom",
      "outputs": [],
      "stateMutability": "nonpayable",
      "type": "function"
    },
    {
      "inputs": [
        {
          "internalType": "address",
          "name": "operator",
          "type": "address"
        },
        {
          "internalType": "bool",
          "name": "approved",
          "type": "bool"
        }
      ],
      "name": "setApprovalForAll",
      "outputs": [],
      "stateMutability": "nonpayable",
      "type": "function"
    },
    {
      "inputs": [
        {
          "internalType": "bytes4",
          "name": "interfaceId",
          "type": "bytes4"
        }
      ],
      "name": "supportsInterface",
      "outputs": [
        {
          "internalType": "bool",
          "name": "",
          "type": "bool"
        }
      ],
      "stateMutability": "view",
      "type": "function"
    },
    {
      "inputs": [
        {
          "internalType": "uint256",
          "name": "id",
          "type": "uint256"
        }
      ],
      "name": "totalSupply",
      "outputs": [
        {
          "internalType": "uint256",
          "name": "",
          "type": "uint256"
        }
      ],
      "stateMutability": "view",
      "type": "function"
    },
    {
      "inputs": [],
      "name": "unpause",
      "outputs": [],
      "stateMutability": "nonpayable",
      "type": "function"
    },
    {
      "inputs": [
        {
          "internalType": "uint256",
          "name": "",
          "type": "uint256"
        }
      ],
      "name": "uri",
      "outputs": [
        {
          "internalType": "string",
          "name": "",
          "type": "string"
        }
      ],
      "stateMutability": "view",
      "type": "function"
    },
    {
      "inputs": [
        {
          "internalType": "uint256",
          "name": "removalId",
          "type": "uint256"
        }
      ],
      "name": "vintage",
      "outputs": [
        {
          "components": [
            {
              "internalType": "address",
              "name": "supplier",
              "type": "address"
            },
            {
              "internalType": "uint16",
              "name": "vintage",
              "type": "uint16"
            }
          ],
          "internalType": "struct Removal.Vintage",
          "name": "",
          "type": "tuple"
        }
      ],
      "stateMutability": "view",
      "type": "function"
    }
  ],
  "bytecode": "0x608060405234801561001057600080fd5b5061320a806100206000396000f3fe608060405234801561001057600080fd5b50600436106101e45760003560e01c8063737fa5891161010f578063ca15c873116100a2578063e985e9c511610071578063e985e9c5146104a7578063f242432a146104e3578063f5298aca146104f6578063f62d18881461050957600080fd5b8063ca15c87314610457578063d53913931461046a578063d547741f1461047f578063e63ab1e91461049257600080fd5b806391d14854116100de57806391d1485414610408578063a217fddf1461041b578063a22cb46514610423578063bd85b0391461043657600080fd5b8063737fa589146103485780638129fc1c146103cd5780638456cb59146103d55780639010d07c146103dd57600080fd5b80632f2ff15d116101875780634f558e79116101565780634f558e79146102f35780635c975abb146103165780636b20c45414610322578063731133e91461033557600080fd5b80632f2ff15d146102a557806336568abe146102b85780633f4ba83a146102cb5780634e1273f4146102d357600080fd5b80630e89341c116101c35780630e89341c146102475780631f7fdffa1461025a578063248a9ca31461026f5780632eb2c2d61461029257600080fd5b8062fdd58e146101e957806301ffc9a71461020f57806306fdde0314610232575b600080fd5b6101fc6101f7366004612454565b61051c565b6040519081526020015b60405180910390f35b61022261021d366004612494565b6105b8565b6040519015158152602001610206565b61023a6105c3565b6040516102069190612509565b61023a61025536600461251c565b610652565b61026d610268366004612688565b6106e6565b005b6101fc61027d36600461251c565b60009081526065602052604090206001015490565b61026d6102a0366004612720565b610857565b61026d6102b33660046127c9565b610864565b61026d6102c63660046127c9565b61088f565b61026d61090d565b6102e66102e13660046127f5565b6109a1565b60405161020691906128fa565b61022261030136600461251c565b60009081526101c36020526040902054151590565b61012d5460ff16610222565b61026d61033036600461290d565b610aca565b61026d610343366004612980565b610b0d565b6103a561035636600461251c565b60408051808201909152600080825260208201525060009081526101f560209081526040918290208251808401909352546001600160a01b0381168352600160a01b900461ffff169082015290565b6040805182516001600160a01b0316815260209283015161ffff169281019290925201610206565b61026d610b53565b61026d610c24565b6103f06103eb3660046129d4565b610cb6565b6040516001600160a01b039091168152602001610206565b6102226104163660046127c9565b610cd5565b6101fc600081565b61026d6104313660046129f6565b610d00565b6101fc61044436600461251c565b60009081526101c3602052604090205490565b6101fc61046536600461251c565b610d0b565b6101fc60008051602061318f83398151915281565b61026d61048d3660046127c9565b610d22565b6101fc60008051602061316f83398151915281565b6102226104b5366004612a32565b6001600160a01b03918216600090815260ca6020908152604080832093909416825291909152205460ff1690565b61026d6104f1366004612a5c565b610d48565b61026d610504366004612ac0565b610d8d565b61026d610517366004612af3565b610dd0565b60006001600160a01b03831661058d5760405162461bcd60e51b815260206004820152602b60248201527f455243313135353a2062616c616e636520717565727920666f7220746865207a60448201526a65726f206164647265737360a81b60648201526084015b60405180910390fd5b50600081815260c9602090815260408083206001600160a01b03861684529091529020545b92915050565b60006105b282610e4b565b6101f780546105d190612b43565b80601f01602080910402602001604051908101604052809291908181526020018280546105fd90612b43565b801561064a5780601f1061061f5761010080835404028352916020019161064a565b820191906000526020600020905b81548152906001019060200180831161062d57829003601f168201915b505050505081565b606060cb805461066190612b43565b80601f016020809104026020016040519081016040528092919081815260200182805461068d90612b43565b80156106da5780601f106106af576101008083540402835291602001916106da565b820191906000526020600020905b8154815290600101906020018083116106bd57829003601f168201915b50505050509050919050565b600082516001600160401b0381111561070157610701612535565b60405190808252806020026020018201604052801561072a578160200160208202803683370190505b50905060005b835181101561080c57806101f6546107489190612b94565b82828151811061075a5761075a612bac565b6020026020010181815250506040518060400160405280876001600160a01b0316815260200185838151811061079257610792612bac565b602002602001015161ffff168152506101f56000836101f6546107b59190612b94565b815260208082019290925260400160002082518154939092015161ffff16600160a01b026001600160b01b03199093166001600160a01b03909216919091179190911790558061080481612bc2565b915050610730565b50806001825161081c9190612bdd565b8151811061082c5761082c612bac565b602002602001015160016108409190612b94565b6101f65561085085828685610e56565b5050505050565b6108508585858585610e96565b6000828152606560205260409020600101546108808133610f26565b61088a8383610f8a565b505050565b6001600160a01b03811633146108ff5760405162461bcd60e51b815260206004820152602f60248201527f416363657373436f6e74726f6c3a2063616e206f6e6c792072656e6f756e636560448201526e103937b632b9903337b91039b2b63360891b6064820152608401610584565b6109098282610fac565b5050565b61092560008051602061316f83398151915233610cd5565b6109975760405162461bcd60e51b815260206004820152603b60248201527f455243313135355072657365744d696e7465725061757365723a206d7573742060448201527f686176652070617573657220726f6c6520746f20756e706175736500000000006064820152608401610584565b61099f610fce565b565b60608151835114610a065760405162461bcd60e51b815260206004820152602960248201527f455243313135353a206163636f756e747320616e6420696473206c656e677468604482015268040dad2e6dac2e8c6d60bb1b6064820152608401610584565b600083516001600160401b03811115610a2157610a21612535565b604051908082528060200260200182016040528015610a4a578160200160208202803683370190505b50905060005b8451811015610ac257610a95858281518110610a6e57610a6e612bac565b6020026020010151858381518110610a8857610a88612bac565b602002602001015161051c565b828281518110610aa757610aa7612bac565b6020908102919091010152610abb81612bc2565b9050610a50565b509392505050565b6001600160a01b038316331480610ae65750610ae683336104b5565b610b025760405162461bcd60e51b815260040161058490612bf4565b61088a838383611063565b610b2560008051602061318f83398151915233610cd5565b610b415760405162461bcd60e51b815260040161058490612c3d565b610b4d848484846111f4565b50505050565b600054610100900460ff16610b6e5760005460ff1615610b72565b303b155b610b8e5760405162461bcd60e51b815260040161058490612c9a565b600054610100900460ff16158015610bb0576000805461ffff19166101011790555b610bd16040518060600160405280602681526020016131af60269139610dd0565b610bd96112cc565b60006101f6556040805180820190915260078082526614995b5bdd985b60ca1b6020909201918252610c0e916101f79161239f565b508015610c21576000805461ff00191690555b50565b610c3c60008051602061316f83398151915233610cd5565b610cae5760405162461bcd60e51b815260206004820152603960248201527f455243313135355072657365744d696e7465725061757365723a206d7573742060448201527f686176652070617573657220726f6c6520746f207061757365000000000000006064820152608401610584565b61099f6112f3565b6000828152609760205260408120610cce9083611370565b9392505050565b60009182526065602090815260408084206001600160a01b0393909316845291905290205460ff1690565b61090933838361137c565b60008181526097602052604081206105b29061145d565b600082815260656020526040902060010154610d3e8133610f26565b61088a8383610fac565b6001600160a01b038516331480610d645750610d6485336104b5565b610d805760405162461bcd60e51b815260040161058490612bf4565b6108508585858585611467565b6001600160a01b038316331480610da95750610da983336104b5565b610dc55760405162461bcd60e51b815260040161058490612bf4565b61088a838383611588565b600054610100900460ff16610deb5760005460ff1615610def565b303b155b610e0b5760405162461bcd60e51b815260040161058490612c9a565b600054610100900460ff16158015610e2d576000805461ffff19166101011790555b610e368261168d565b8015610909576000805461ff00191690555050565b60006105b2826116fe565b610e6e60008051602061318f83398151915233610cd5565b610e8a5760405162461bcd60e51b815260040161058490612c3d565b610b4d8484848461173e565b6001600160a01b038516331480610eb25750610eb285336104b5565b610f195760405162461bcd60e51b815260206004820152603260248201527f455243313135353a207472616e736665722063616c6c6572206973206e6f74206044820152711bdddb995c881b9bdc88185c1c1c9bdd995960721b6064820152608401610584565b6108508585858585611899565b610f308282610cd5565b61090957610f48816001600160a01b03166014611a46565b610f53836020611a46565b604051602001610f64929190612ce8565b60408051601f198184030181529082905262461bcd60e51b825261058491600401612509565b610f948282611be1565b600082815260976020526040902061088a9082611c67565b610fb68282611c7c565b600082815260976020526040902061088a9082611ce3565b61012d5460ff166110185760405162461bcd60e51b815260206004820152601460248201527314185d5cd8589b194e881b9bdd081c185d5cd95960621b6044820152606401610584565b61012d805460ff191690557f5db9ee0a495bf2e6ff9c91a7834c1ba4fdd244a5e8aa4e537bd38aeae4b073aa335b6040516001600160a01b03909116815260200160405180910390a1565b6001600160a01b0383166110895760405162461bcd60e51b815260040161058490612d5d565b80518251146110aa5760405162461bcd60e51b815260040161058490612da0565b60003390506110cd81856000868660405180602001604052806000815250611cf8565b60005b83518110156111955760008482815181106110ed576110ed612bac565b60200260200101519050600084838151811061110b5761110b612bac565b602090810291909101810151600084815260c9835260408082206001600160a01b038c16835290935291909120549091508181101561115c5760405162461bcd60e51b815260040161058490612de8565b600092835260c9602090815260408085206001600160a01b038b168652909152909220910390558061118d81612bc2565b9150506110d0565b5060006001600160a01b0316846001600160a01b0316826001600160a01b03167f4a39dc06d4c0dbc64b70af90fd698a233a518aa5d07e595d983b8c0526c8f7fb86866040516111e6929190612e2c565b60405180910390a450505050565b6001600160a01b03841661121a5760405162461bcd60e51b815260040161058490612e5a565b3361123a8160008761122b88611d06565b61123488611d06565b87611cf8565b600084815260c9602090815260408083206001600160a01b03891684529091528120805485929061126c908490612b94565b909155505060408051858152602081018590526001600160a01b0380881692600092918516917fc3d58168c5ae7397731d063d5bbf3d657854427343f4c083240f7aacaa2d0f62910160405180910390a461085081600087878787611d51565b600054610100900460ff1661099f5760405162461bcd60e51b815260040161058490612e9b565b61012d5460ff161561133a5760405162461bcd60e51b815260206004820152601060248201526f14185d5cd8589b194e881c185d5cd95960821b6044820152606401610584565b61012d805460ff191660011790557f62e78cea01bee320cd4e420270b5ea74000d11b0c9f74754ebdbfc544b05a2586110463390565b6000610cce8383611ead565b816001600160a01b0316836001600160a01b031614156113f05760405162461bcd60e51b815260206004820152602960248201527f455243313135353a2073657474696e6720617070726f76616c20737461747573604482015268103337b91039b2b63360b91b6064820152608401610584565b6001600160a01b03838116600081815260ca6020908152604080832094871680845294825291829020805460ff191686151590811790915591519182527f17307eab39ab6107e8899845ad3d59bd9653f200f220920489ca2b5937696c31910160405180910390a3505050565b60006105b2825490565b6001600160a01b03841661148d5760405162461bcd60e51b815260040161058490612ee6565b3361149d81878761122b88611d06565b600084815260c9602090815260408083206001600160a01b038a168452909152902054838110156114e05760405162461bcd60e51b815260040161058490612f2b565b600085815260c9602090815260408083206001600160a01b038b811685529252808320878503905590881682528120805486929061151f908490612b94565b909155505060408051868152602081018690526001600160a01b03808916928a821692918616917fc3d58168c5ae7397731d063d5bbf3d657854427343f4c083240f7aacaa2d0f62910160405180910390a461157f828888888888611d51565b50505050505050565b6001600160a01b0383166115ae5760405162461bcd60e51b815260040161058490612d5d565b336115dd818560006115bf87611d06565b6115c887611d06565b60405180602001604052806000815250611cf8565b600083815260c9602090815260408083206001600160a01b0388168452909152902054828110156116205760405162461bcd60e51b815260040161058490612de8565b600084815260c9602090815260408083206001600160a01b03898116808652918452828520888703905582518981529384018890529092908616917fc3d58168c5ae7397731d063d5bbf3d657854427343f4c083240f7aacaa2d0f62910160405180910390a45050505050565b600054610100900460ff166116b45760405162461bcd60e51b815260040161058490612e9b565b6116bc6112cc565b6116c46112cc565b6116cc6112cc565b6116d46112cc565b6116dd81611ed7565b6116e56112cc565b6116ed611f07565b6116f56112cc565b610c2181611f3b565b60006001600160e01b03198216636cdb3d1360e11b148061172f57506001600160e01b031982166303a24d0760e21b145b806105b257506105b282611f9d565b6001600160a01b0384166117645760405162461bcd60e51b815260040161058490612e5a565b81518351146117855760405162461bcd60e51b815260040161058490612da0565b3361179581600087878787611cf8565b60005b8451811015611831578381815181106117b3576117b3612bac565b602002602001015160c960008784815181106117d1576117d1612bac565b602002602001015181526020019081526020016000206000886001600160a01b03166001600160a01b0316815260200190815260200160002060008282546118199190612b94565b9091555081905061182981612bc2565b915050611798565b50846001600160a01b031660006001600160a01b0316826001600160a01b03167f4a39dc06d4c0dbc64b70af90fd698a233a518aa5d07e595d983b8c0526c8f7fb8787604051611882929190612e2c565b60405180910390a461085081600087878787611fc2565b81518351146118ba5760405162461bcd60e51b815260040161058490612da0565b6001600160a01b0384166118e05760405162461bcd60e51b815260040161058490612ee6565b336118ef818787878787611cf8565b60005b84518110156119d857600085828151811061190f5761190f612bac565b60200260200101519050600085838151811061192d5761192d612bac565b602090810291909101810151600084815260c9835260408082206001600160a01b038e16835290935291909120549091508181101561197e5760405162461bcd60e51b815260040161058490612f2b565b600083815260c9602090815260408083206001600160a01b038e8116855292528083208585039055908b168252812080548492906119bd908490612b94565b92505081905550505050806119d190612bc2565b90506118f2565b50846001600160a01b0316866001600160a01b0316826001600160a01b03167f4a39dc06d4c0dbc64b70af90fd698a233a518aa5d07e595d983b8c0526c8f7fb8787604051611a28929190612e2c565b60405180910390a4611a3e818787878787611fc2565b505050505050565b60606000611a55836002612f75565b611a60906002612b94565b6001600160401b03811115611a7757611a77612535565b6040519080825280601f01601f191660200182016040528015611aa1576020820181803683370190505b509050600360fc1b81600081518110611abc57611abc612bac565b60200101906001600160f81b031916908160001a905350600f60fb1b81600181518110611aeb57611aeb612bac565b60200101906001600160f81b031916908160001a9053506000611b0f846002612f75565b611b1a906001612b94565b90505b6001811115611b92576f181899199a1a9b1b9c1cb0b131b232b360811b85600f1660108110611b4e57611b4e612bac565b1a60f81b828281518110611b6457611b64612bac565b60200101906001600160f81b031916908160001a90535060049490941c93611b8b81612f94565b9050611b1d565b508315610cce5760405162461bcd60e51b815260206004820181905260248201527f537472696e67733a20686578206c656e67746820696e73756666696369656e746044820152606401610584565b611beb8282610cd5565b6109095760008281526065602090815260408083206001600160a01b03851684529091529020805460ff19166001179055611c233390565b6001600160a01b0316816001600160a01b0316837f2f8788117e7eff1d82e926ec794901d17c78024a50270940304540a733656f0d60405160405180910390a45050565b6000610cce836001600160a01b03841661207d565b611c868282610cd5565b156109095760008281526065602090815260408083206001600160a01b0385168085529252808320805460ff1916905551339285917ff6391f5c32d9c69d2a47ea670b442974b53935d1edc7fd64eb21e047a839171b9190a45050565b6000610cce836001600160a01b0384166120cc565b611a3e8686868686866121bf565b60408051600180825281830190925260609160009190602080830190803683370190505090508281600081518110611d4057611d40612bac565b602090810291909101015292915050565b6001600160a01b0384163b15611a3e5760405163f23a6e6160e01b81526001600160a01b0385169063f23a6e6190611d959089908990889088908890600401612fab565b6020604051808303816000875af1925050508015611dd0575060408051601f3d908101601f19168201909252611dcd91810190612ff0565b60015b611e7d57611ddc61300d565b806308c379a01415611e165750611df1613029565b80611dfc5750611e18565b8060405162461bcd60e51b81526004016105849190612509565b505b60405162461bcd60e51b815260206004820152603460248201527f455243313135353a207472616e7366657220746f206e6f6e20455243313135356044820152732932b1b2b4bb32b91034b6b83632b6b2b73a32b960611b6064820152608401610584565b6001600160e01b0319811663f23a6e6160e01b1461157f5760405162461bcd60e51b8152600401610584906130b2565b6000826000018281548110611ec457611ec4612bac565b9060005260206000200154905092915050565b600054610100900460ff16611efe5760405162461bcd60e51b815260040161058490612e9b565b610c21816122db565b600054610100900460ff16611f2e5760405162461bcd60e51b815260040161058490612e9b565b61012d805460ff19169055565b600054610100900460ff16611f625760405162461bcd60e51b815260040161058490612e9b565b611f6d6000336122ee565b611f8560008051602061318f833981519152336122ee565b610c2160008051602061316f833981519152336122ee565b60006001600160e01b03198216635a05180f60e01b14806105b257506105b2826122f8565b6001600160a01b0384163b15611a3e5760405163bc197c8160e01b81526001600160a01b0385169063bc197c819061200690899089908890889088906004016130fa565b6020604051808303816000875af1925050508015612041575060408051601f3d908101601f1916820190925261203e91810190612ff0565b60015b61204d57611ddc61300d565b6001600160e01b0319811663bc197c8160e01b1461157f5760405162461bcd60e51b8152600401610584906130b2565b60008181526001830160205260408120546120c4575081546001818101845560008481526020808220909301849055845484825282860190935260409020919091556105b2565b5060006105b2565b600081815260018301602052604081205480156121b55760006120f0600183612bdd565b855490915060009061210490600190612bdd565b905081811461216957600086600001828154811061212457612124612bac565b906000526020600020015490508087600001848154811061214757612147612bac565b6000918252602080832090910192909255918252600188019052604090208390555b855486908061217a5761217a613158565b6001900381819060005260206000200160009055905585600101600086815260200190815260200160002060009055600193505050506105b2565b60009150506105b2565b6121cd86868686868661232d565b6001600160a01b0385166122555760005b8351811015612253578281815181106121f9576121f9612bac565b60200260200101516101c3600086848151811061221857612218612bac565b60200260200101518152602001908152602001600020600082825461223d9190612b94565b9091555061224c905081612bc2565b90506121de565b505b6001600160a01b038416611a3e5760005b835181101561157f5782818151811061228157612281612bac565b60200260200101516101c360008684815181106122a0576122a0612bac565b6020026020010151815260200190815260200160002060008282546122c59190612bdd565b909155506122d4905081612bc2565b9050612266565b80516109099060cb90602084019061239f565b6109098282610f8a565b60006001600160e01b03198216637965db0b60e01b14806105b257506301ffc9a760e01b6001600160e01b03198316146105b2565b611a3e86868686868661012d5460ff1615611a3e5760405162461bcd60e51b815260206004820152602c60248201527f455243313135355061757361626c653a20746f6b656e207472616e736665722060448201526b1dda1a5b19481c185d5cd95960a21b6064820152608401610584565b8280546123ab90612b43565b90600052602060002090601f0160209004810192826123cd5760008555612413565b82601f106123e657805160ff1916838001178555612413565b82800160010185558215612413579182015b828111156124135782518255916020019190600101906123f8565b5061241f929150612423565b5090565b5b8082111561241f5760008155600101612424565b80356001600160a01b038116811461244f57600080fd5b919050565b6000806040838503121561246757600080fd5b61247083612438565b946020939093013593505050565b6001600160e01b031981168114610c2157600080fd5b6000602082840312156124a657600080fd5b8135610cce8161247e565b60005b838110156124cc5781810151838201526020016124b4565b83811115610b4d5750506000910152565b600081518084526124f58160208601602086016124b1565b601f01601f19169290920160200192915050565b602081526000610cce60208301846124dd565b60006020828403121561252e57600080fd5b5035919050565b634e487b7160e01b600052604160045260246000fd5b601f8201601f191681016001600160401b038111828210171561257057612570612535565b6040525050565b60006001600160401b0382111561259057612590612535565b5060051b60200190565b600082601f8301126125ab57600080fd5b813560206125b882612577565b6040516125c5828261254b565b83815260059390931b85018201928281019150868411156125e557600080fd5b8286015b8481101561260057803583529183019183016125e9565b509695505050505050565b60006001600160401b0383111561262457612624612535565b60405161263b601f8501601f19166020018261254b565b80915083815284848401111561265057600080fd5b83836020830137600060208583010152509392505050565b600082601f83011261267957600080fd5b610cce8383356020850161260b565b6000806000806080858703121561269e57600080fd5b6126a785612438565b935060208501356001600160401b03808211156126c357600080fd5b6126cf8883890161259a565b945060408701359150808211156126e557600080fd5b6126f18883890161259a565b9350606087013591508082111561270757600080fd5b5061271487828801612668565b91505092959194509250565b600080600080600060a0868803121561273857600080fd5b61274186612438565b945061274f60208701612438565b935060408601356001600160401b038082111561276b57600080fd5b61277789838a0161259a565b9450606088013591508082111561278d57600080fd5b61279989838a0161259a565b935060808801359150808211156127af57600080fd5b506127bc88828901612668565b9150509295509295909350565b600080604083850312156127dc57600080fd5b823591506127ec60208401612438565b90509250929050565b6000806040838503121561280857600080fd5b82356001600160401b038082111561281f57600080fd5b818501915085601f83011261283357600080fd5b8135602061284082612577565b60405161284d828261254b565b83815260059390931b850182019282810191508984111561286d57600080fd5b948201945b838610156128925761288386612438565b82529482019490820190612872565b965050860135925050808211156128a857600080fd5b506128b58582860161259a565b9150509250929050565b600081518084526020808501945080840160005b838110156128ef578151875295820195908201906001016128d3565b509495945050505050565b602081526000610cce60208301846128bf565b60008060006060848603121561292257600080fd5b61292b84612438565b925060208401356001600160401b038082111561294757600080fd5b6129538783880161259a565b9350604086013591508082111561296957600080fd5b506129768682870161259a565b9150509250925092565b6000806000806080858703121561299657600080fd5b61299f85612438565b9350602085013592506040850135915060608501356001600160401b038111156129c857600080fd5b61271487828801612668565b600080604083850312156129e757600080fd5b50508035926020909101359150565b60008060408385031215612a0957600080fd5b612a1283612438565b915060208301358015158114612a2757600080fd5b809150509250929050565b60008060408385031215612a4557600080fd5b612a4e83612438565b91506127ec60208401612438565b600080600080600060a08688031215612a7457600080fd5b612a7d86612438565b9450612a8b60208701612438565b9350604086013592506060860135915060808601356001600160401b03811115612ab457600080fd5b6127bc88828901612668565b600080600060608486031215612ad557600080fd5b612ade84612438565b95602085013595506040909401359392505050565b600060208284031215612b0557600080fd5b81356001600160401b03811115612b1b57600080fd5b8201601f81018413612b2c57600080fd5b612b3b8482356020840161260b565b949350505050565b600181811c90821680612b5757607f821691505b60208210811415612b7857634e487b7160e01b600052602260045260246000fd5b50919050565b634e487b7160e01b600052601160045260246000fd5b60008219821115612ba757612ba7612b7e565b500190565b634e487b7160e01b600052603260045260246000fd5b6000600019821415612bd657612bd6612b7e565b5060010190565b600082821015612bef57612bef612b7e565b500390565b60208082526029908201527f455243313135353a2063616c6c6572206973206e6f74206f776e6572206e6f7260408201526808185c1c1c9bdd995960ba1b606082015260800190565b60208082526038908201527f455243313135355072657365744d696e7465725061757365723a206d7573742060408201527f68617665206d696e74657220726f6c6520746f206d696e740000000000000000606082015260800190565b6020808252602e908201527f496e697469616c697a61626c653a20636f6e747261637420697320616c72656160408201526d191e481a5b9a5d1a585b1a5e995960921b606082015260800190565b7f416363657373436f6e74726f6c3a206163636f756e7420000000000000000000815260008351612d208160178501602088016124b1565b7001034b99036b4b9b9b4b733903937b6329607d1b6017918401918201528351612d518160288401602088016124b1565b01602801949350505050565b60208082526023908201527f455243313135353a206275726e2066726f6d20746865207a65726f206164647260408201526265737360e81b606082015260800190565b60208082526028908201527f455243313135353a2069647320616e6420616d6f756e7473206c656e677468206040820152670dad2e6dac2e8c6d60c31b606082015260800190565b60208082526024908201527f455243313135353a206275726e20616d6f756e7420657863656564732062616c604082015263616e636560e01b606082015260800190565b604081526000612e3f60408301856128bf565b8281036020840152612e5181856128bf565b95945050505050565b60208082526021908201527f455243313135353a206d696e7420746f20746865207a65726f206164647265736040820152607360f81b606082015260800190565b6020808252602b908201527f496e697469616c697a61626c653a20636f6e7472616374206973206e6f74206960408201526a6e697469616c697a696e6760a81b606082015260800190565b60208082526025908201527f455243313135353a207472616e7366657220746f20746865207a65726f206164604082015264647265737360d81b606082015260800190565b6020808252602a908201527f455243313135353a20696e73756666696369656e742062616c616e636520666f60408201526939103a3930b739b332b960b11b606082015260800190565b6000816000190483118215151615612f8f57612f8f612b7e565b500290565b600081612fa357612fa3612b7e565b506000190190565b6001600160a01b03868116825285166020820152604081018490526060810183905260a060808201819052600090612fe5908301846124dd565b979650505050505050565b60006020828403121561300257600080fd5b8151610cce8161247e565b600060033d11156130265760046000803e5060005160e01c5b90565b600060443d10156130375790565b6040516003193d81016004833e81513d6001600160401b03816024840111818411171561306657505050505090565b828501915081518181111561307e5750505050505090565b843d87010160208285010111156130985750505050505090565b6130a76020828601018761254b565b509095945050505050565b60208082526028908201527f455243313135353a204552433131353552656365697665722072656a656374656040820152676420746f6b656e7360c01b606082015260800190565b6001600160a01b0386811682528516602082015260a060408201819052600090613126908301866128bf565b828103606084015261313881866128bf565b9050828103608084015261314c81856124dd565b98975050505050505050565b634e487b7160e01b600052603160045260246000fdfe65d7a28e3265b37a6474929f336521b332c1681b933f6cb9f3376673440d862a9f2df0fed2c77648de5860a4cc508cd0818c85b8b8a1ab4ceeef8d981c8956a668747470733a2f2f6e6f72692e636f6d2f6170692f72656d6f76616c2f7b69647d2e6a736f6ea2646970667358221220843d043715bab666ed2861e93b250f1e60bcf0695824f465cf0ce4d1aebd1b8164736f6c634300080a0033",
  "linkReferences": {},
  "deployedLinkReferences": {}
}