{
  "_format": "hh-sol-artifact-1",
  "contractName": "NCCR_V0",
  "sourceName": "contracts/NCCR_V0.sol",
  "abi": [
    {
      "constant": true,
      "inputs": [
        {
          "internalType": "bytes4",
          "name": "interfaceId",
          "type": "bytes4"
        }
      ],
      "name": "supportsInterface",
      "outputs": [
        {
          "internalType": "bool",
          "name": "",
          "type": "bool"
        }
      ],
      "payable": false,
      "stateMutability": "view",
      "type": "function"
    },
    {
      "constant": true,
      "inputs": [],
      "name": "name",
      "outputs": [
        {
          "internalType": "string",
          "name": "",
          "type": "string"
        }
      ],
      "payable": false,
      "stateMutability": "view",
      "type": "function"
    },
    {
      "constant": true,
      "inputs": [
        {
          "internalType": "uint256",
          "name": "tokenId",
          "type": "uint256"
        }
      ],
      "name": "getApproved",
      "outputs": [
        {
          "internalType": "address",
          "name": "",
          "type": "address"
        }
      ],
      "payable": false,
      "stateMutability": "view",
      "type": "function"
    },
    {
      "constant": false,
      "inputs": [
        {
          "internalType": "address",
          "name": "",
          "type": "address"
        },
        {
          "internalType": "uint256",
          "name": "",
          "type": "uint256"
        }
      ],
      "name": "approve",
      "outputs": [],
      "payable": false,
      "stateMutability": "nonpayable",
      "type": "function"
    },
    {
      "constant": true,
      "inputs": [],
      "name": "totalSupply",
      "outputs": [
        {
          "internalType": "uint256",
          "name": "",
          "type": "uint256"
        }
      ],
      "payable": false,
      "stateMutability": "view",
      "type": "function"
    },
    {
      "constant": false,
      "inputs": [
        {
          "internalType": "address",
          "name": "",
          "type": "address"
        },
        {
          "internalType": "address",
          "name": "",
          "type": "address"
        },
        {
          "internalType": "uint256",
          "name": "",
          "type": "uint256"
        }
      ],
      "name": "transferFrom",
      "outputs": [],
      "payable": false,
      "stateMutability": "nonpayable",
      "type": "function"
    },
    {
      "constant": true,
      "inputs": [
        {
          "internalType": "address",
          "name": "owner",
          "type": "address"
        },
        {
          "internalType": "uint256",
          "name": "index",
          "type": "uint256"
        }
      ],
      "name": "tokenOfOwnerByIndex",
      "outputs": [
        {
          "internalType": "uint256",
          "name": "",
          "type": "uint256"
        }
      ],
      "payable": false,
      "stateMutability": "view",
      "type": "function"
    },
    {
      "constant": false,
      "inputs": [],
      "name": "unpause",
      "outputs": [],
      "payable": false,
      "stateMutability": "nonpayable",
      "type": "function"
    },
    {
      "constant": false,
      "inputs": [
        {
          "internalType": "address",
          "name": "",
          "type": "address"
        },
        {
          "internalType": "address",
          "name": "",
          "type": "address"
        },
        {
          "internalType": "uint256",
          "name": "",
          "type": "uint256"
        }
      ],
      "name": "safeTransferFrom",
      "outputs": [],
      "payable": false,
      "stateMutability": "nonpayable",
      "type": "function"
    },
    {
      "constant": true,
      "inputs": [
        {
          "internalType": "address",
          "name": "account",
          "type": "address"
        }
      ],
      "name": "isPauser",
      "outputs": [
        {
          "internalType": "bool",
          "name": "",
          "type": "bool"
        }
      ],
      "payable": false,
      "stateMutability": "view",
      "type": "function"
    },
    {
      "constant": false,
      "inputs": [
        {
          "internalType": "string",
          "name": "name",
          "type": "string"
        },
        {
          "internalType": "string",
          "name": "symbol",
          "type": "string"
        }
      ],
      "name": "initialize",
      "outputs": [],
      "payable": false,
      "stateMutability": "nonpayable",
      "type": "function"
    },
    {
      "constant": true,
      "inputs": [
        {
          "internalType": "uint256",
          "name": "index",
          "type": "uint256"
        }
      ],
      "name": "tokenByIndex",
      "outputs": [
        {
          "internalType": "uint256",
          "name": "",
          "type": "uint256"
        }
      ],
      "payable": false,
      "stateMutability": "view",
      "type": "function"
    },
    {
      "constant": false,
      "inputs": [
        {
          "internalType": "address",
          "name": "",
          "type": "address"
        },
        {
          "internalType": "uint256",
          "name": "",
          "type": "uint256"
        },
        {
          "internalType": "string",
          "name": "",
          "type": "string"
        }
      ],
      "name": "mintWithTokenURI",
      "outputs": [
        {
          "internalType": "bool",
          "name": "",
          "type": "bool"
        }
      ],
      "payable": false,
      "stateMutability": "nonpayable",
      "type": "function"
    },
    {
      "constant": true,
      "inputs": [],
      "name": "paused",
      "outputs": [
        {
          "internalType": "bool",
          "name": "",
          "type": "bool"
        }
      ],
      "payable": false,
      "stateMutability": "view",
      "type": "function"
    },
    {
      "constant": true,
      "inputs": [
        {
          "internalType": "uint256",
          "name": "tokenId",
          "type": "uint256"
        }
      ],
      "name": "ownerOf",
      "outputs": [
        {
          "internalType": "address",
          "name": "",
          "type": "address"
        }
      ],
      "payable": false,
      "stateMutability": "view",
      "type": "function"
    },
    {
      "constant": false,
      "inputs": [],
      "name": "renouncePauser",
      "outputs": [],
      "payable": false,
      "stateMutability": "nonpayable",
      "type": "function"
    },
    {
      "constant": true,
      "inputs": [
        {
          "internalType": "address",
          "name": "owner",
          "type": "address"
        }
      ],
      "name": "balanceOf",
      "outputs": [
        {
          "internalType": "uint256",
          "name": "",
          "type": "uint256"
        }
      ],
      "payable": false,
      "stateMutability": "view",
      "type": "function"
    },
    {
      "constant": false,
      "inputs": [],
      "name": "initialize",
      "outputs": [],
      "payable": false,
      "stateMutability": "nonpayable",
      "type": "function"
    },
    {
      "constant": false,
      "inputs": [
        {
          "internalType": "address",
          "name": "account",
          "type": "address"
        }
      ],
      "name": "addPauser",
      "outputs": [],
      "payable": false,
      "stateMutability": "nonpayable",
      "type": "function"
    },
    {
      "constant": false,
      "inputs": [],
      "name": "pause",
      "outputs": [],
      "payable": false,
      "stateMutability": "nonpayable",
      "type": "function"
    },
    {
      "constant": false,
      "inputs": [
        {
          "internalType": "address",
          "name": "to",
          "type": "address"
        },
        {
          "internalType": "uint256",
          "name": "tokenId",
          "type": "uint256"
        },
        {
          "internalType": "string",
          "name": "tokenURI",
          "type": "string"
        },
        {
          "internalType": "string",
          "name": "tokenData",
          "type": "string"
        }
      ],
      "name": "mintWithTokenURIAndData",
      "outputs": [
        {
          "internalType": "bool",
          "name": "",
          "type": "bool"
        }
      ],
      "payable": false,
      "stateMutability": "nonpayable",
      "type": "function"
    },
    {
      "constant": true,
      "inputs": [],
      "name": "symbol",
      "outputs": [
        {
          "internalType": "string",
          "name": "",
          "type": "string"
        }
      ],
      "payable": false,
      "stateMutability": "view",
      "type": "function"
    },
    {
      "constant": false,
      "inputs": [
        {
          "internalType": "address",
          "name": "account",
          "type": "address"
        }
      ],
      "name": "addMinter",
      "outputs": [],
      "payable": false,
      "stateMutability": "nonpayable",
      "type": "function"
    },
    {
      "constant": false,
      "inputs": [],
      "name": "renounceMinter",
      "outputs": [],
      "payable": false,
      "stateMutability": "nonpayable",
      "type": "function"
    },
    {
      "constant": false,
      "inputs": [
        {
          "internalType": "address",
          "name": "",
          "type": "address"
        },
        {
          "internalType": "bool",
          "name": "",
          "type": "bool"
        }
      ],
      "name": "setApprovalForAll",
      "outputs": [],
      "payable": false,
      "stateMutability": "nonpayable",
      "type": "function"
    },
    {
      "constant": true,
      "inputs": [
        {
          "internalType": "address",
          "name": "account",
          "type": "address"
        }
      ],
      "name": "isMinter",
      "outputs": [
        {
          "internalType": "bool",
          "name": "",
          "type": "bool"
        }
      ],
      "payable": false,
      "stateMutability": "view",
      "type": "function"
    },
    {
      "constant": true,
      "inputs": [
        {
          "internalType": "uint256",
          "name": "tokenId",
          "type": "uint256"
        }
      ],
      "name": "tokenData",
      "outputs": [
        {
          "internalType": "string",
          "name": "",
          "type": "string"
        }
      ],
      "payable": false,
      "stateMutability": "view",
      "type": "function"
    },
    {
      "constant": false,
      "inputs": [
        {
          "internalType": "address",
          "name": "",
          "type": "address"
        },
        {
          "internalType": "address",
          "name": "",
          "type": "address"
        },
        {
          "internalType": "uint256",
          "name": "",
          "type": "uint256"
        },
        {
          "internalType": "bytes",
          "name": "",
          "type": "bytes"
        }
      ],
      "name": "safeTransferFrom",
      "outputs": [],
      "payable": false,
      "stateMutability": "nonpayable",
      "type": "function"
    },
    {
      "constant": false,
      "inputs": [
        {
          "internalType": "address",
          "name": "sender",
          "type": "address"
        }
      ],
      "name": "initialize",
      "outputs": [],
      "payable": false,
      "stateMutability": "nonpayable",
      "type": "function"
    },
    {
      "constant": true,
      "inputs": [
        {
          "internalType": "uint256",
          "name": "tokenId",
          "type": "uint256"
        }
      ],
      "name": "tokenURI",
      "outputs": [
        {
          "internalType": "string",
          "name": "",
          "type": "string"
        }
      ],
      "payable": false,
      "stateMutability": "view",
      "type": "function"
    },
    {
      "constant": true,
      "inputs": [
        {
          "internalType": "address",
          "name": "owner",
          "type": "address"
        },
        {
          "internalType": "address",
          "name": "operator",
          "type": "address"
        }
      ],
      "name": "isApprovedForAll",
      "outputs": [
        {
          "internalType": "bool",
          "name": "",
          "type": "bool"
        }
      ],
      "payable": false,
      "stateMutability": "view",
      "type": "function"
    },
    {
      "anonymous": false,
      "inputs": [
        {
          "indexed": false,
          "internalType": "address",
          "name": "account",
          "type": "address"
        }
      ],
      "name": "Paused",
      "type": "event"
    },
    {
      "anonymous": false,
      "inputs": [
        {
          "indexed": false,
          "internalType": "address",
          "name": "account",
          "type": "address"
        }
      ],
      "name": "Unpaused",
      "type": "event"
    },
    {
      "anonymous": false,
      "inputs": [
        {
          "indexed": true,
          "internalType": "address",
          "name": "account",
          "type": "address"
        }
      ],
      "name": "PauserAdded",
      "type": "event"
    },
    {
      "anonymous": false,
      "inputs": [
        {
          "indexed": true,
          "internalType": "address",
          "name": "account",
          "type": "address"
        }
      ],
      "name": "PauserRemoved",
      "type": "event"
    },
    {
      "anonymous": false,
      "inputs": [
        {
          "indexed": true,
          "internalType": "address",
          "name": "account",
          "type": "address"
        }
      ],
      "name": "MinterAdded",
      "type": "event"
    },
    {
      "anonymous": false,
      "inputs": [
        {
          "indexed": true,
          "internalType": "address",
          "name": "account",
          "type": "address"
        }
      ],
      "name": "MinterRemoved",
      "type": "event"
    },
    {
      "anonymous": false,
      "inputs": [
        {
          "indexed": true,
          "internalType": "address",
          "name": "from",
          "type": "address"
        },
        {
          "indexed": true,
          "internalType": "address",
          "name": "to",
          "type": "address"
        },
        {
          "indexed": true,
          "internalType": "uint256",
          "name": "tokenId",
          "type": "uint256"
        }
      ],
      "name": "Transfer",
      "type": "event"
    },
    {
      "anonymous": false,
      "inputs": [
        {
          "indexed": true,
          "internalType": "address",
          "name": "owner",
          "type": "address"
        },
        {
          "indexed": true,
          "internalType": "address",
          "name": "approved",
          "type": "address"
        },
        {
          "indexed": true,
          "internalType": "uint256",
          "name": "tokenId",
          "type": "uint256"
        }
      ],
      "name": "Approval",
      "type": "event"
    },
    {
      "anonymous": false,
      "inputs": [
        {
          "indexed": true,
          "internalType": "address",
          "name": "owner",
          "type": "address"
        },
        {
          "indexed": true,
          "internalType": "address",
          "name": "operator",
          "type": "address"
        },
        {
          "indexed": false,
          "internalType": "bool",
          "name": "approved",
          "type": "bool"
        }
      ],
      "name": "ApprovalForAll",
      "type": "event"
    }
  ],
  "bytecode": "0x6080604052613aad806100136000396000f3fe608060405234801561001057600080fd5b50600436106101e55760003560e01c80636ef8d66d1161010f57806398650275116100a2578063b88d4fde11610071578063b88d4fde14610ce3578063c4d66de814610de8578063c87b56dd14610e2c578063e985e9c514610ed3576101e5565b80639865027514610b86578063a22cb46514610b90578063aa271e1a14610be0578063b4b5b48f14610c3c576101e5565b80638456cb59116100de5780638456cb5914610921578063864660a11461092b57806395d89b4114610abf578063983b2d5614610b42576101e5565b80636ef8d66d1461087157806370a082311461087b5780638129fc1c146108d357806382dc1ec4146108dd576101e5565b80633f4ba83a116101875780634f6ccce7116101565780634f6ccce7146106a257806350bb4e7f146106e45780635c975abb146107e15780636352211e14610803576101e5565b80633f4ba83a1461047c57806342842e0e1461048657806346fbf68e146104f45780634cd88b7614610550576101e5565b8063095ea7b3116101c3578063095ea7b31461034057806318160ddd1461038e57806323b872dd146103ac5780632f745c591461041a576101e5565b806301ffc9a7146101ea57806306fdde031461024f578063081812fc146102d2575b600080fd5b6102356004803603602081101561020057600080fd5b8101908080357bffffffffffffffffffffffffffffffffffffffffffffffffffffffff19169060200190929190505050610f4f565b604051808215151515815260200191505060405180910390f35b610257610fb7565b6040518080602001828103825283818151815260200191508051906020019080838360005b8381101561029757808201518184015260208101905061027c565b50505050905090810190601f1680156102c45780820380516001836020036101000a031916815260200191505b509250505060405180910390f35b6102fe600480360360208110156102e857600080fd5b8101908080359060200190929190505050611059565b604051808273ffffffffffffffffffffffffffffffffffffffff1673ffffffffffffffffffffffffffffffffffffffff16815260200191505060405180910390f35b61038c6004803603604081101561035657600080fd5b81019080803573ffffffffffffffffffffffffffffffffffffffff169060200190929190803590602001909291905050506110a8565b005b61039661117d565b6040518082815260200191505060405180910390f35b610418600480360360608110156103c257600080fd5b81019080803573ffffffffffffffffffffffffffffffffffffffff169060200190929190803573ffffffffffffffffffffffffffffffffffffffff1690602001909291908035906020019092919050505061118a565b005b6104666004803603604081101561043057600080fd5b81019080803573ffffffffffffffffffffffffffffffffffffffff1690602001909291908035906020019092919050505061125f565b6040518082815260200191505060405180910390f35b6104846112d2565b005b6104f26004803603606081101561049c57600080fd5b81019080803573ffffffffffffffffffffffffffffffffffffffff169060200190929190803573ffffffffffffffffffffffffffffffffffffffff169060200190929190803590602001909291905050506113d9565b005b6105366004803603602081101561050a57600080fd5b81019080803573ffffffffffffffffffffffffffffffffffffffff1690602001909291905050506114ae565b604051808215151515815260200191505060405180910390f35b6106a06004803603604081101561056657600080fd5b810190808035906020019064010000000081111561058357600080fd5b82018360208201111561059557600080fd5b803590602001918460018302840111640100000000831117156105b757600080fd5b91908080601f016020809104026020016040519081016040528093929190818152602001838380828437600081840152601f19601f8201169050808301925050505050505091929192908035906020019064010000000081111561061a57600080fd5b82018360208201111561062c57600080fd5b8035906020019184600183028401116401000000008311171561064e57600080fd5b91908080601f016020809104026020016040519081016040528093929190818152602001838380828437600081840152601f19601f8201169050808301925050505050505091929192905050506114cc565b005b6106ce600480360360208110156106b857600080fd5b810190808035906020019092919050505061161c565b6040518082815260200191505060405180910390f35b6107c7600480360360608110156106fa57600080fd5b81019080803573ffffffffffffffffffffffffffffffffffffffff169060200190929190803590602001909291908035906020019064010000000081111561074157600080fd5b82018360208201111561075357600080fd5b8035906020019184600183028401116401000000008311171561077557600080fd5b91908080601f016020809104026020016040519081016040528093929190818152602001838380828437600081840152601f19601f820116905080830192505050505050509192919290505050611650565b604051808215151515815260200191505060405180910390f35b6107e961178c565b604051808215151515815260200191505060405180910390f35b61082f6004803603602081101561081957600080fd5b81019080803590602001909291905050506117a4565b604051808273ffffffffffffffffffffffffffffffffffffffff1673ffffffffffffffffffffffffffffffffffffffff16815260200191505060405180910390f35b610879611820565b005b6108bd6004803603602081101561089157600080fd5b81019080803573ffffffffffffffffffffffffffffffffffffffff169060200190929190505050611832565b6040518082815260200191505060405180910390f35b6108db6118bb565b005b61091f600480360360208110156108f357600080fd5b81019080803573ffffffffffffffffffffffffffffffffffffffff169060200190929190505050611c17565b005b610929611c88565b005b610aa56004803603608081101561094157600080fd5b81019080803573ffffffffffffffffffffffffffffffffffffffff169060200190929190803590602001909291908035906020019064010000000081111561098857600080fd5b82018360208201111561099a57600080fd5b803590602001918460018302840111640100000000831117156109bc57600080fd5b91908080601f016020809104026020016040519081016040528093929190818152602001838380828437600081840152601f19601f82011690508083019250505050505050919291929080359060200190640100000000811115610a1f57600080fd5b820183602082011115610a3157600080fd5b80359060200191846001830284011164010000000083111715610a5357600080fd5b91908080601f016020809104026020016040519081016040528093929190818152602001838380828437600081840152601f19601f820116905080830192505050505050509192919290505050611d90565b604051808215151515815260200191505060405180910390f35b610ac7611fad565b6040518080602001828103825283818151815260200191508051906020019080838360005b83811015610b07578082015181840152602081019050610aec565b50505050905090810190601f168015610b345780820380516001836020036101000a031916815260200191505b509250505060405180910390f35b610b8460048036036020811015610b5857600080fd5b81019080803573ffffffffffffffffffffffffffffffffffffffff16906020019092919050505061204f565b005b610b8e6120c0565b005b610bde60048036036040811015610ba657600080fd5b81019080803573ffffffffffffffffffffffffffffffffffffffff1690602001909291908035151590602001909291905050506120d2565b005b610c2260048036036020811015610bf657600080fd5b81019080803573ffffffffffffffffffffffffffffffffffffffff1690602001909291905050506121a7565b604051808215151515815260200191505060405180910390f35b610c6860048036036020811015610c5257600080fd5b81019080803590602001909291905050506121c5565b6040518080602001828103825283818151815260200191508051906020019080838360005b83811015610ca8578082015181840152602081019050610c8d565b50505050905090810190601f168015610cd55780820380516001836020036101000a031916815260200191505b509250505060405180910390f35b610de660048036036080811015610cf957600080fd5b81019080803573ffffffffffffffffffffffffffffffffffffffff169060200190929190803573ffffffffffffffffffffffffffffffffffffffff1690602001909291908035906020019092919080359060200190640100000000811115610d6057600080fd5b820183602082011115610d7257600080fd5b80359060200191846001830284011164010000000083111715610d9457600080fd5b91908080601f016020809104026020016040519081016040528093929190818152602001838380828437600081840152601f19601f82011690508083019250505050505050919291929050505061242a565b005b610e2a60048036036020811015610dfe57600080fd5b81019080803573ffffffffffffffffffffffffffffffffffffffff1690602001909291905050506124ff565b005b610e5860048036036020811015610e4257600080fd5b8101908080359060200190929190505050612619565b6040518080602001828103825283818151815260200191508051906020019080838360005b83811015610e98578082015181840152602081019050610e7d565b50505050905090810190601f168015610ec55780820380516001836020036101000a031916815260200191505b509250505060405180910390f35b610f3560048036036040811015610ee957600080fd5b81019080803573ffffffffffffffffffffffffffffffffffffffff169060200190929190803573ffffffffffffffffffffffffffffffffffffffff1690602001909291905050506126e0565b604051808215151515815260200191505060405180910390f35b600060336000837bffffffffffffffffffffffffffffffffffffffffffffffffffffffff19167bffffffffffffffffffffffffffffffffffffffffffffffffffffffff1916815260200190815260200160002060009054906101000a900460ff169050919050565b606060d28054600181600116156101000203166002900480601f01602080910402602001604051908101604052809291908181526020018280546001816001161561010002031660029004801561104f5780601f106110245761010080835404028352916020019161104f565b820191906000526020600020905b81548152906001019060200180831161103257829003601f168201915b5050505050905090565b600061106482612774565b61106d57600080fd5b6067600083815260200190815260200160002060009054906101000a900473ffffffffffffffffffffffffffffffffffffffff169050919050565b6110d47f4fda0b5b3e0f0eea98b0f3af3ff14160e931f0ac55463bc408a130824eed293c60001b6127e6565b6111007fa4c2a1211ff3b167ce218a183e221e389445599643b04684a883f94db8a029f060001b6127e6565b61112c7f69d05ba3e4a2d96d2329d40b93b24628f13e4a7de37cc3ee21f560060bdb077a60001b6127e6565b6040517f08c379a00000000000000000000000000000000000000000000000000000000081526004018080602001828103825260298152602001806139ca6029913960400191505060405180910390fd5b6000609e80549050905090565b6111b67f05a688199902e36b902c6bef28495a1868e373967aa4c129be911b157c8f7ed660001b6127e6565b6111e27f3c66dbd192fd74e57394c171730687a556e976b7198433c51b41a4a7a827b98d60001b6127e6565b61120e7f56a54ebd75fd796a8683d60a78a611eb78fb26384a5d47e27bd8b89f3ae1350060001b6127e6565b6040517f08c379a0000000000000000000000000000000000000000000000000000000008152600401808060200182810382526028815260200180613a236028913960400191505060405180910390fd5b600061126a83611832565b821061127557600080fd5b609c60008473ffffffffffffffffffffffffffffffffffffffff1673ffffffffffffffffffffffffffffffffffffffff16815260200190815260200160002082815481106112bf57fe5b9060005260206000200154905092915050565b6112e26112dd6127e9565b6114ae565b611337576040517f08c379a000000000000000000000000000000000000000000000000000000000815260040180806020018281038252603081526020018061394d6030913960400191505060405180910390fd5b6101d160009054906101000a900460ff1661135157600080fd5b60006101d160006101000a81548160ff0219169083151502179055507f5db9ee0a495bf2e6ff9c91a7834c1ba4fdd244a5e8aa4e537bd38aeae4b073aa6113966127e9565b604051808273ffffffffffffffffffffffffffffffffffffffff1673ffffffffffffffffffffffffffffffffffffffff16815260200191505060405180910390a1565b6114057fb6e90297998dc3170750f64e75250c161e6bc073309538da2eca42f00b34c19160001b6127e6565b6114317f1713f5e18d8606a9331e6822b871643c866b91500a7a3d29fe1f01b8446b876960001b6127e6565b61145d7fc807546da934e7b92771fcc38f4e61b3e18ce8bf3a94cecf63b9e7b0c9b8824d60001b6127e6565b6040517f08c379a0000000000000000000000000000000000000000000000000000000008152600401808060200182810382526028815260200180613a236028913960400191505060405180910390fd5b60006114c58261019e6127f190919063ffffffff16565b9050919050565b600060019054906101000a900460ff16806114eb57506114ea612883565b5b8061150257506000809054906101000a900460ff16155b611557576040517f08c379a000000000000000000000000000000000000000000000000000000000815260040180806020018281038252602e815260200180613a4b602e913960400191505060405180910390fd5b60008060019054906101000a900460ff1615905080156115a7576001600060016101000a81548160ff02191690831515021790555060016000806101000a81548160ff0219169083151502179055505b6115af61289a565b6115b857600080fd5b8260d290805190602001906115ce9291906138a7565b508160d390805190602001906115e59291906138a7565b506115f6635b5e139f60e01b6128b1565b80156116175760008060016101000a81548160ff0219169083151502179055505b505050565b600061162661117d565b821061163157600080fd5b609e828154811061163e57fe5b90600052602060002001549050919050565b600061166261165d6127e9565b6121a7565b6116b7576040517f08c379a00000000000000000000000000000000000000000000000000000000081526004018080602001828103825260308152602001806139f36030913960400191505060405180910390fd5b6116e37fe66a0264cc8ef709517f5a4d99a137522812ada3c2fb0e3ec66ba0f9ff2785a860001b6127e6565b61170f7f20f5cb61ad8b9350c0b5f0f8d150840529e5c865454ba98ba9b9d55dd21ccb8860001b6127e6565b61173b7f37b55a54af8949d73c02cb204ef874610a00b85617d3a65dc38a081c8013367160001b6127e6565b6040517f08c379a000000000000000000000000000000000000000000000000000000000815260040180806020018281038252602b81526020018061397d602b913960400191505060405180910390fd5b60006101d160009054906101000a900460ff16905090565b6000806066600084815260200190815260200160002060009054906101000a900473ffffffffffffffffffffffffffffffffffffffff169050600073ffffffffffffffffffffffffffffffffffffffff168173ffffffffffffffffffffffffffffffffffffffff16141561181757600080fd5b80915050919050565b61183061182b6127e9565b612951565b565b60008073ffffffffffffffffffffffffffffffffffffffff168273ffffffffffffffffffffffffffffffffffffffff16141561186d57600080fd5b6118b4606860008473ffffffffffffffffffffffffffffffffffffffff1673ffffffffffffffffffffffffffffffffffffffff1681526020019081526020016000206129ac565b9050919050565b600060019054906101000a900460ff16806118da57506118d9612883565b5b806118f157506000809054906101000a900460ff16155b611946576040517f08c379a000000000000000000000000000000000000000000000000000000000815260040180806020018281038252602e815260200180613a4b602e913960400191505060405180910390fd5b60008060019054906101000a900460ff161590508015611996576001600060016101000a81548160ff02191690831515021790555060016000806101000a81548160ff0219169083151502179055505b6119c27fa02789737b507d4ec277266fb7ec3e4c11fdc3ed36adddfe5f2baa2814037c4660001b6127e6565b6119ee7f36984bafddd9170d9ae0001be10b6d7e0a1e65c295309c600b469a9586efbb8660001b6127e6565b611a1a7f2cf04d47d3274f7be8eb6929fbd739e32cf2fd910b28ba18c6fb9021ce779b2b60001b6127e6565b611a226129ba565b611a4e7fdd970ce7d38f797da04200cbd787ea981c0c3bac0013be096ece01782d4a062960001b6127e6565b611a7a7fca45edb9ca1f34af2148f0d73e40a5ac2b03a805d55e8c2a1cbff972d0ad088a60001b6127e6565b611a82612ad1565b611aae7f33f6b356b020fa3d345f1a6caeb2b9b52870b2010836cbeee48f5bee2b60d38e60001b6127e6565b611ada7f5e082a5002fa20172e4015770c19bd2f7823cce4a108cf76e632d7a936f17f6260001b6127e6565b611b316040518060600160405280602281526020016139a8602291396040518060400160405280600481526020017f4e434352000000000000000000000000000000000000000000000000000000008152506114cc565b611b5d7f0f43f79d321999f2ce5025dd1b63d54adeec3a789c3f2dfee6e906c3962c931360001b6127e6565b611b897f25f12daf2c36a94970af9435a43f4c1416ada96011e39f0135e0d21593e42d6960001b6127e6565b611b9233612bf1565b611bbe7f5cd41daa2ed1e1ec90eefabf35cc76f8f1126888a141a4821c624565c920b96a60001b6127e6565b611bea7f921e0d959004d734c69a8663d9ffa96f0135d1ba14859884c6ed8a99972d494b60001b6127e6565b611bf3336124ff565b8015611c145760008060016101000a81548160ff0219169083151502179055505b50565b611c27611c226127e9565b6114ae565b611c7c576040517f08c379a000000000000000000000000000000000000000000000000000000000815260040180806020018281038252603081526020018061394d6030913960400191505060405180910390fd5b611c8581612d1c565b50565b611c98611c936127e9565b6114ae565b611ced576040517f08c379a000000000000000000000000000000000000000000000000000000000815260040180806020018281038252603081526020018061394d6030913960400191505060405180910390fd5b6101d160009054906101000a900460ff1615611d0857600080fd5b60016101d160006101000a81548160ff0219169083151502179055507f62e78cea01bee320cd4e420270b5ea74000d11b0c9f74754ebdbfc544b05a258611d4d6127e9565b604051808273ffffffffffffffffffffffffffffffffffffffff1673ffffffffffffffffffffffffffffffffffffffff16815260200191505060405180910390a1565b6000611da2611d9d6127e9565b6121a7565b611df7576040517f08c379a00000000000000000000000000000000000000000000000000000000081526004018080602001828103825260308152602001806139f36030913960400191505060405180910390fd5b611e237f02cdc83e31123f9bc20e7d8423ffe6ffb7ccb54206a92c4831765ffe88cf8ba560001b6127e6565b611e4f7fcc1a245634774f6e6cd0e8a03b78b44234292f82d486470758f8d287d3fc248d60001b6127e6565b611e7b7f8749ea999452e627b0b1926f77ac65223edf62883e673ae93e8c59ad0df5762560001b6127e6565b611e858585612d77565b611eb17f33b0d2797132ed8d1b8a85dbf182bf33b9973261956bf30b9269973ab05b2b8060001b6127e6565b611edd7f5953ee4b39b421e3691e03b94ad4a550c9031cc0f3df422a46f9b424281643a960001b6127e6565b611ee78484612d98565b611f137f7bd18f40f4e99616264febda67b19b553ef5daaff240a4061e2a7d8fe55dd12860001b6127e6565b611f3f7faefb586a121f5b8387c4653742da5daa210ee77bb08738023b5c8587df1c632460001b6127e6565b611f498483612dd6565b611f757f4c36c5641b680cf8bb33a6330438dd330a3af4e4c655bd9749b7916245b1f65760001b6127e6565b611fa17fba22dfc7c9b8b1c845eabbf1d8941e37a114ca4e501b767f9d216a41fcee364d60001b6127e6565b60019050949350505050565b606060d38054600181600116156101000203166002900480601f0160208091040260200160405190810160405280929190818152602001828054600181600116156101000203166002900480156120455780601f1061201a57610100808354040283529160200191612045565b820191906000526020600020905b81548152906001019060200180831161202857829003601f168201915b5050505050905090565b61205f61205a6127e9565b6121a7565b6120b4576040517f08c379a00000000000000000000000000000000000000000000000000000000081526004018080602001828103825260308152602001806139f36030913960400191505060405180910390fd5b6120bd81612fb2565b50565b6120d06120cb6127e9565b61300d565b565b6120fe7f2b1dc933b45e17f1a57a66f26427879956a8801c1434e0e69261d101ae69335e60001b6127e6565b61212a7f7242d601d35f7df54b879f94842629bcac407016c023bd466b919e2aa57ccad860001b6127e6565b6121567f6a77a157d13efb72b31f321914e2cc3234941d85d7356aefe3a313b9ae5e845160001b6127e6565b6040517f08c379a0000000000000000000000000000000000000000000000000000000008152600401808060200182810382526028815260200180613a236028913960400191505060405180910390fd5b60006121be826101396127f190919063ffffffff16565b9050919050565b60606121f37f8ab7c7a3e0145531f53d97f2544f0b1c2fd5407c88b35a1a8fc3df2ffece795560001b6127e6565b61221f7f5c458d1131dede7106106e8dfb5b214d525cfeb0ca3d295d015f201cb8219a4660001b6127e6565b61224b7fca5a70303f086fc77cced70e2896afdd411ff113cec7388dce6cfaba1ba7eb2a60001b6127e6565b6122777f8ad4e0056dcba29b8a2079ec615b2c4bb8d86b39802da280cdde10610dd06c6560001b6127e6565b61228082612774565b6122f2576040517f08c379a00000000000000000000000000000000000000000000000000000000081526004018080602001828103825260168152602001807f54686520746f6b656e4964206d7573742065786973740000000000000000000081525060200191505060405180910390fd5b61231e7ff053f4d304e499c99b5dc05264c98b4a183276f185e923dee64aae26d27cf35c60001b6127e6565b61234a7f8a18f3cdc16f5f0246afa4935ade6cba1b3f25a45eeef0ab721915a8c70175e160001b6127e6565b6123767fcca566ddc647aaa97ae390807a474ba30f542fbba43758af4ad50402054925a260001b6127e6565b61023660008381526020019081526020016000208054600181600116156101000203166002900480601f01602080910402602001604051908101604052809291908181526020018280546001816001161561010002031660029004801561241e5780601f106123f35761010080835404028352916020019161241e565b820191906000526020600020905b81548152906001019060200180831161240157829003601f168201915b50505050509050919050565b6124567f696bfdbb3883ae87990f253b5ac2bf49be2d77de89ed217fbb38b49acaf12b0460001b6127e6565b6124827fed36f025e91cf3a2ee4cccbbb34c5db76f49f457fdcb8d973275d1e063d635ab60001b6127e6565b6124ae7f9c8909211c9fa0c3e5efda1ed218059e346415aa239e9c2992988e98abc700a560001b6127e6565b6040517f08c379a0000000000000000000000000000000000000000000000000000000008152600401808060200182810382526028815260200180613a236028913960400191505060405180910390fd5b600060019054906101000a900460ff168061251e575061251d612883565b5b8061253557506000809054906101000a900460ff16155b61258a576040517f08c379a000000000000000000000000000000000000000000000000000000000815260040180806020018281038252602e815260200180613a4b602e913960400191505060405180910390fd5b60008060019054906101000a900460ff1615905080156125da576001600060016101000a81548160ff02191690831515021790555060016000806101000a81548160ff0219169083151502179055505b6125e261289a565b6125eb57600080fd5b6125f482613068565b80156126155760008060016101000a81548160ff0219169083151502179055505b5050565b606061262482612774565b61262d57600080fd5b60d460008381526020019081526020016000208054600181600116156101000203166002900480601f0160208091040260200160405190810160405280929190818152602001828054600181600116156101000203166002900480156126d45780601f106126a9576101008083540402835291602001916126d4565b820191906000526020600020905b8154815290600101906020018083116126b757829003601f168201915b50505050509050919050565b6000606960008473ffffffffffffffffffffffffffffffffffffffff1673ffffffffffffffffffffffffffffffffffffffff16815260200190815260200160002060008373ffffffffffffffffffffffffffffffffffffffff1673ffffffffffffffffffffffffffffffffffffffff16815260200190815260200160002060009054906101000a900460ff16905092915050565b6000806066600084815260200190815260200160002060009054906101000a900473ffffffffffffffffffffffffffffffffffffffff169050600073ffffffffffffffffffffffffffffffffffffffff168173ffffffffffffffffffffffffffffffffffffffff161415915050919050565b50565b600033905090565b60008073ffffffffffffffffffffffffffffffffffffffff168273ffffffffffffffffffffffffffffffffffffffff16141561282c57600080fd5b8260000160008373ffffffffffffffffffffffffffffffffffffffff1673ffffffffffffffffffffffffffffffffffffffff16815260200190815260200160002060009054906101000a900460ff16905092915050565b6000803090506000813b9050600081149250505090565b60006128ac6380ac58cd60e01b610f4f565b905090565b63ffffffff60e01b817bffffffffffffffffffffffffffffffffffffffffffffffffffffffff191614156128e457600080fd5b600160336000837bffffffffffffffffffffffffffffffffffffffffffffffffffffffff19167bffffffffffffffffffffffffffffffffffffffffffffffffffffffff1916815260200190815260200160002060006101000a81548160ff02191690831515021790555050565b6129668161019e61318d90919063ffffffff16565b8073ffffffffffffffffffffffffffffffffffffffff167fcd265ebaf09df2871cc7bd4133404a235ba12eff2041bb89d9c714a2621c7c7e60405160405180910390a250565b600081600001549050919050565b600060019054906101000a900460ff16806129d957506129d8612883565b5b806129f057506000809054906101000a900460ff16155b612a45576040517f08c379a000000000000000000000000000000000000000000000000000000000815260040180806020018281038252602e815260200180613a4b602e913960400191505060405180910390fd5b60008060019054906101000a900460ff161590508015612a95576001600060016101000a81548160ff02191690831515021790555060016000806101000a81548160ff0219169083151502179055505b612a9d613238565b612aad6380ac58cd60e01b6128b1565b8015612ace5760008060016101000a81548160ff0219169083151502179055505b50565b600060019054906101000a900460ff1680612af05750612aef612883565b5b80612b0757506000809054906101000a900460ff16155b612b5c576040517f08c379a000000000000000000000000000000000000000000000000000000000815260040180806020018281038252602e815260200180613a4b602e913960400191505060405180910390fd5b60008060019054906101000a900460ff161590508015612bac576001600060016101000a81548160ff02191690831515021790555060016000806101000a81548160ff0219169083151502179055505b612bb461289a565b612bbd57600080fd5b612bcd63780e9d6360e01b6128b1565b8015612bee5760008060016101000a81548160ff0219169083151502179055505b50565b600060019054906101000a900460ff1680612c105750612c0f612883565b5b80612c2757506000809054906101000a900460ff16155b612c7c576040517f08c379a000000000000000000000000000000000000000000000000000000000815260040180806020018281038252602e815260200180613a4b602e913960400191505060405180910390fd5b60008060019054906101000a900460ff161590508015612ccc576001600060016101000a81548160ff02191690831515021790555060016000806101000a81548160ff0219169083151502179055505b612cd461289a565b612cdd57600080fd5b612ce5613347565b612cee57600080fd5b612cf78261335e565b8015612d185760008060016101000a81548160ff0219169083151502179055505b5050565b612d318161019e61347590919063ffffffff16565b8073ffffffffffffffffffffffffffffffffffffffff167f6719d08c1888103bea251a4ed56406bd0c3e69723c8a1686e017e7bbe159b6f860405160405180910390a250565b612d818282613521565b612d8b8282613667565b612d948161372e565b5050565b612da182612774565b612daa57600080fd5b8060d460008481526020019081526020016000209080519060200190612dd19291906138a7565b505050565b612e027feb7a94fb74a2179379bad0009b67658f37d453c459b9824bf542f1f97a8131a060001b6127e6565b612e2e7f1c5c7ba440cb565cbaf07dae5b573dc0c1fac02b163b01f9d673e70125f9b45860001b6127e6565b612e5a7f01136bccbe62b758b5a48f4cdee136bb0ff0fcd5bbafd77e2ac75b7c17d738dc60001b6127e6565b612e867fbcd3c5c7ce53b740d4c3491508ccd9497afb21493090b63f0121cba2f981831560001b6127e6565b612e8f82612774565b612f01576040517f08c379a00000000000000000000000000000000000000000000000000000000081526004018080602001828103825260168152602001807f54686520746f6b656e4964206d7573742065786973740000000000000000000081525060200191505060405180910390fd5b612f2d7f04673359eecc0b9ddc148dd88c433c2d4b8ad081223e1cef0bfd8c780dab88b860001b6127e6565b612f597f352e09ca6e98990bb5fb6162da05f2274d3ec7000c5a3511c327ecfa13aeecc560001b6127e6565b612f857fac5116372caf42d2f3dd3fdfd39854d70602c0363de0f1226c593a1407e2763f60001b6127e6565b8061023660008481526020019081526020016000209080519060200190612fad9291906138a7565b505050565b612fc78161013961347590919063ffffffff16565b8073ffffffffffffffffffffffffffffffffffffffff167f6ae172837ea30b801fbfcdd4108aa1d5bf8ff775444fd70256b44e6bf3dfc3f660405160405180910390a250565b6130228161013961318d90919063ffffffff16565b8073ffffffffffffffffffffffffffffffffffffffff167fe94479a9f7e1952cc78f2d6baab678adc1b772d936c6583def489e524cb6669260405160405180910390a250565b600060019054906101000a900460ff16806130875750613086612883565b5b8061309e57506000809054906101000a900460ff16155b6130f3576040517f08c379a000000000000000000000000000000000000000000000000000000000815260040180806020018281038252602e815260200180613a4b602e913960400191505060405180910390fd5b60008060019054906101000a900460ff161590508015613143576001600060016101000a81548160ff02191690831515021790555060016000806101000a81548160ff0219169083151502179055505b61314c8261377a565b60006101d160006101000a81548160ff02191690831515021790555080156131895760008060016101000a81548160ff0219169083151502179055505b5050565b600073ffffffffffffffffffffffffffffffffffffffff168173ffffffffffffffffffffffffffffffffffffffff1614156131c757600080fd5b6131d182826127f1565b6131da57600080fd5b60008260000160008373ffffffffffffffffffffffffffffffffffffffff1673ffffffffffffffffffffffffffffffffffffffff16815260200190815260200160002060006101000a81548160ff0219169083151502179055505050565b600060019054906101000a900460ff16806132575750613256612883565b5b8061326e57506000809054906101000a900460ff16155b6132c3576040517f08c379a000000000000000000000000000000000000000000000000000000000815260040180806020018281038252602e815260200180613a4b602e913960400191505060405180910390fd5b60008060019054906101000a900460ff161590508015613313576001600060016101000a81548160ff02191690831515021790555060016000806101000a81548160ff0219169083151502179055505b6133236301ffc9a760e01b6128b1565b80156133445760008060016101000a81548160ff0219169083151502179055505b50565b6000613359635b5e139f60e01b610f4f565b905090565b600060019054906101000a900460ff168061337d575061337c612883565b5b8061339457506000809054906101000a900460ff16155b6133e9576040517f08c379a000000000000000000000000000000000000000000000000000000000815260040180806020018281038252602e815260200180613a4b602e913960400191505060405180910390fd5b60008060019054906101000a900460ff161590508015613439576001600060016101000a81548160ff02191690831515021790555060016000806101000a81548160ff0219169083151502179055505b613442826121a7565b6134505761344f82612fb2565b5b80156134715760008060016101000a81548160ff0219169083151502179055505b5050565b600073ffffffffffffffffffffffffffffffffffffffff168173ffffffffffffffffffffffffffffffffffffffff1614156134af57600080fd5b6134b982826127f1565b156134c357600080fd5b60018260000160008373ffffffffffffffffffffffffffffffffffffffff1673ffffffffffffffffffffffffffffffffffffffff16815260200190815260200160002060006101000a81548160ff0219169083151502179055505050565b600073ffffffffffffffffffffffffffffffffffffffff168273ffffffffffffffffffffffffffffffffffffffff16141561355b57600080fd5b61356481612774565b1561356e57600080fd5b816066600083815260200190815260200160002060006101000a81548173ffffffffffffffffffffffffffffffffffffffff021916908373ffffffffffffffffffffffffffffffffffffffff160217905550613607606860008473ffffffffffffffffffffffffffffffffffffffff1673ffffffffffffffffffffffffffffffffffffffff168152602001908152602001600020613891565b808273ffffffffffffffffffffffffffffffffffffffff16600073ffffffffffffffffffffffffffffffffffffffff167fddf252ad1be2c89b69c2b068fc378daa952ba7f163c4a11628f55a4df523b3ef60405160405180910390a45050565b609c60008373ffffffffffffffffffffffffffffffffffffffff1673ffffffffffffffffffffffffffffffffffffffff16815260200190815260200160002080549050609d600083815260200190815260200160002081905550609c60008373ffffffffffffffffffffffffffffffffffffffff1673ffffffffffffffffffffffffffffffffffffffff1681526020019081526020016000208190806001815401808255809150509060018203906000526020600020016000909192909190915055505050565b609e80549050609f600083815260200190815260200160002081905550609e81908060018154018082558091505090600182039060005260206000200160009091929091909150555050565b600060019054906101000a900460ff16806137995750613798612883565b5b806137b057506000809054906101000a900460ff16155b613805576040517f08c379a000000000000000000000000000000000000000000000000000000000815260040180806020018281038252602e815260200180613a4b602e913960400191505060405180910390fd5b60008060019054906101000a900460ff161590508015613855576001600060016101000a81548160ff02191690831515021790555060016000806101000a81548160ff0219169083151502179055505b61385e826114ae565b61386c5761386b82612d1c565b5b801561388d5760008060016101000a81548160ff0219169083151502179055505b5050565b6001816000016000828254019250508190555050565b828054600181600116156101000203166002900490600052602060002090601f016020900481019282601f106138e857805160ff1916838001178555613916565b82800160010185558215613916579182015b828111156139155782518255916020019190600101906138fa565b5b5090506139239190613927565b5090565b61394991905b8082111561394557600081600090555060010161392d565b5090565b9056fe506175736572526f6c653a2063616c6c657220646f6573206e6f742068617665207468652050617573657220726f6c654e43435273206d757374206265206d696e746564207573696e672061206461746120706172616d657465724e6f7269204365727469666963617465206f6620436172626f6e2052656d6f76616c4e4e43435273206172652072657469726564206166746572207468657920617265206d696e7465642e4d696e746572526f6c653a2063616c6c657220646f6573206e6f74206861766520746865204d696e74657220726f6c654e43435273206172652072657469726564206166746572207468657920617265206d696e7465642e436f6e747261637420696e7374616e63652068617320616c7265616479206265656e20696e697469616c697a6564a265627a7a723158206cb80a8a49cf059adcadfe5ea87cfd04b163460f7a0d9fb4cdc0879cd616922b64736f6c634300050b0032",
  "linkReferences": {},
  "deployedLinkReferences": {}
}