{
  "_format": "hh-sol-artifact-1",
  "contractName": "ERC777PresetPausablePermissioned",
  "sourceName": "contracts/ERC777PresetPausablePermissioned.sol",
  "abi": [
    {
      "anonymous": false,
      "inputs": [
        {
          "indexed": true,
          "internalType": "address",
          "name": "owner",
          "type": "address"
        },
        {
          "indexed": true,
          "internalType": "address",
          "name": "spender",
          "type": "address"
        },
        {
          "indexed": false,
          "internalType": "uint256",
          "name": "value",
          "type": "uint256"
        }
      ],
      "name": "Approval",
      "type": "event"
    },
    {
      "anonymous": false,
      "inputs": [
        {
          "indexed": true,
          "internalType": "address",
          "name": "operator",
          "type": "address"
        },
        {
          "indexed": true,
          "internalType": "address",
          "name": "tokenHolder",
          "type": "address"
        }
      ],
      "name": "AuthorizedOperator",
      "type": "event"
    },
    {
      "anonymous": false,
      "inputs": [
        {
          "indexed": true,
          "internalType": "address",
          "name": "operator",
          "type": "address"
        },
        {
          "indexed": true,
          "internalType": "address",
          "name": "from",
          "type": "address"
        },
        {
          "indexed": false,
          "internalType": "uint256",
          "name": "amount",
          "type": "uint256"
        },
        {
          "indexed": false,
          "internalType": "bytes",
          "name": "data",
          "type": "bytes"
        },
        {
          "indexed": false,
          "internalType": "bytes",
          "name": "operatorData",
          "type": "bytes"
        }
      ],
      "name": "Burned",
      "type": "event"
    },
    {
      "anonymous": false,
      "inputs": [
        {
          "indexed": true,
          "internalType": "address",
          "name": "operator",
          "type": "address"
        },
        {
          "indexed": true,
          "internalType": "address",
          "name": "to",
          "type": "address"
        },
        {
          "indexed": false,
          "internalType": "uint256",
          "name": "amount",
          "type": "uint256"
        },
        {
          "indexed": false,
          "internalType": "bytes",
          "name": "data",
          "type": "bytes"
        },
        {
          "indexed": false,
          "internalType": "bytes",
          "name": "operatorData",
          "type": "bytes"
        }
      ],
      "name": "Minted",
      "type": "event"
    },
    {
      "anonymous": false,
      "inputs": [
        {
          "indexed": false,
          "internalType": "address",
          "name": "account",
          "type": "address"
        }
      ],
      "name": "Paused",
      "type": "event"
    },
    {
      "anonymous": false,
      "inputs": [
        {
          "indexed": true,
          "internalType": "address",
          "name": "operator",
          "type": "address"
        },
        {
          "indexed": true,
          "internalType": "address",
          "name": "tokenHolder",
          "type": "address"
        }
      ],
      "name": "RevokedOperator",
      "type": "event"
    },
    {
      "anonymous": false,
      "inputs": [
        {
          "indexed": true,
          "internalType": "bytes32",
          "name": "role",
          "type": "bytes32"
        },
        {
          "indexed": true,
          "internalType": "bytes32",
          "name": "previousAdminRole",
          "type": "bytes32"
        },
        {
          "indexed": true,
          "internalType": "bytes32",
          "name": "newAdminRole",
          "type": "bytes32"
        }
      ],
      "name": "RoleAdminChanged",
      "type": "event"
    },
    {
      "anonymous": false,
      "inputs": [
        {
          "indexed": true,
          "internalType": "bytes32",
          "name": "role",
          "type": "bytes32"
        },
        {
          "indexed": true,
          "internalType": "address",
          "name": "account",
          "type": "address"
        },
        {
          "indexed": true,
          "internalType": "address",
          "name": "sender",
          "type": "address"
        }
      ],
      "name": "RoleGranted",
      "type": "event"
    },
    {
      "anonymous": false,
      "inputs": [
        {
          "indexed": true,
          "internalType": "bytes32",
          "name": "role",
          "type": "bytes32"
        },
        {
          "indexed": true,
          "internalType": "address",
          "name": "account",
          "type": "address"
        },
        {
          "indexed": true,
          "internalType": "address",
          "name": "sender",
          "type": "address"
        }
      ],
      "name": "RoleRevoked",
      "type": "event"
    },
    {
      "anonymous": false,
      "inputs": [
        {
          "indexed": true,
          "internalType": "address",
          "name": "operator",
          "type": "address"
        },
        {
          "indexed": true,
          "internalType": "address",
          "name": "from",
          "type": "address"
        },
        {
          "indexed": true,
          "internalType": "address",
          "name": "to",
          "type": "address"
        },
        {
          "indexed": false,
          "internalType": "uint256",
          "name": "amount",
          "type": "uint256"
        },
        {
          "indexed": false,
          "internalType": "bytes",
          "name": "data",
          "type": "bytes"
        },
        {
          "indexed": false,
          "internalType": "bytes",
          "name": "operatorData",
          "type": "bytes"
        }
      ],
      "name": "Sent",
      "type": "event"
    },
    {
      "anonymous": false,
      "inputs": [
        {
          "indexed": true,
          "internalType": "address",
          "name": "from",
          "type": "address"
        },
        {
          "indexed": true,
          "internalType": "address",
          "name": "to",
          "type": "address"
        },
        {
          "indexed": false,
          "internalType": "uint256",
          "name": "value",
          "type": "uint256"
        }
      ],
      "name": "Transfer",
      "type": "event"
    },
    {
      "anonymous": false,
      "inputs": [
        {
          "indexed": false,
          "internalType": "address",
          "name": "account",
          "type": "address"
        }
      ],
      "name": "Unpaused",
      "type": "event"
    },
    {
      "inputs": [],
      "name": "DEFAULT_ADMIN_ROLE",
      "outputs": [
        {
          "internalType": "bytes32",
          "name": "",
          "type": "bytes32"
        }
      ],
      "stateMutability": "view",
      "type": "function"
    },
    {
      "inputs": [],
      "name": "PAUSER_ROLE",
      "outputs": [
        {
          "internalType": "bytes32",
          "name": "",
          "type": "bytes32"
        }
      ],
      "stateMutability": "view",
      "type": "function"
    },
    {
      "inputs": [
        {
          "internalType": "address",
          "name": "holder",
          "type": "address"
        },
        {
          "internalType": "address",
          "name": "spender",
          "type": "address"
        }
      ],
      "name": "allowance",
      "outputs": [
        {
          "internalType": "uint256",
          "name": "",
          "type": "uint256"
        }
      ],
      "stateMutability": "view",
      "type": "function"
    },
    {
      "inputs": [
        {
          "internalType": "address",
          "name": "spender",
          "type": "address"
        },
        {
          "internalType": "uint256",
          "name": "value",
          "type": "uint256"
        }
      ],
      "name": "approve",
      "outputs": [
        {
          "internalType": "bool",
          "name": "",
          "type": "bool"
        }
      ],
      "stateMutability": "nonpayable",
      "type": "function"
    },
    {
      "inputs": [
        {
          "internalType": "address",
          "name": "operator",
          "type": "address"
        }
      ],
      "name": "authorizeOperator",
      "outputs": [],
      "stateMutability": "nonpayable",
      "type": "function"
    },
    {
      "inputs": [
        {
          "internalType": "address",
          "name": "tokenHolder",
          "type": "address"
        }
      ],
      "name": "balanceOf",
      "outputs": [
        {
          "internalType": "uint256",
          "name": "",
          "type": "uint256"
        }
      ],
      "stateMutability": "view",
      "type": "function"
    },
    {
      "inputs": [
        {
          "internalType": "uint256",
          "name": "amount",
          "type": "uint256"
        },
        {
          "internalType": "bytes",
          "name": "data",
          "type": "bytes"
        }
      ],
      "name": "burn",
      "outputs": [],
      "stateMutability": "nonpayable",
      "type": "function"
    },
    {
      "inputs": [],
      "name": "decimals",
      "outputs": [
        {
          "internalType": "uint8",
          "name": "",
          "type": "uint8"
        }
      ],
      "stateMutability": "pure",
      "type": "function"
    },
    {
      "inputs": [],
      "name": "defaultOperators",
      "outputs": [
        {
          "internalType": "address[]",
          "name": "",
          "type": "address[]"
        }
      ],
      "stateMutability": "view",
      "type": "function"
    },
    {
      "inputs": [
        {
          "internalType": "bytes32",
          "name": "role",
          "type": "bytes32"
        }
      ],
      "name": "getRoleAdmin",
      "outputs": [
        {
          "internalType": "bytes32",
          "name": "",
          "type": "bytes32"
        }
      ],
      "stateMutability": "view",
      "type": "function"
    },
    {
      "inputs": [
        {
          "internalType": "bytes32",
          "name": "role",
          "type": "bytes32"
        },
        {
          "internalType": "uint256",
          "name": "index",
          "type": "uint256"
        }
      ],
      "name": "getRoleMember",
      "outputs": [
        {
          "internalType": "address",
          "name": "",
          "type": "address"
        }
      ],
      "stateMutability": "view",
      "type": "function"
    },
    {
      "inputs": [
        {
          "internalType": "bytes32",
          "name": "role",
          "type": "bytes32"
        }
      ],
      "name": "getRoleMemberCount",
      "outputs": [
        {
          "internalType": "uint256",
          "name": "",
          "type": "uint256"
        }
      ],
      "stateMutability": "view",
      "type": "function"
    },
    {
      "inputs": [
        {
          "internalType": "bytes32",
          "name": "role",
          "type": "bytes32"
        },
        {
          "internalType": "address",
          "name": "account",
          "type": "address"
        }
      ],
      "name": "grantRole",
      "outputs": [],
      "stateMutability": "nonpayable",
      "type": "function"
    },
    {
      "inputs": [],
      "name": "granularity",
      "outputs": [
        {
          "internalType": "uint256",
          "name": "",
          "type": "uint256"
        }
      ],
      "stateMutability": "view",
      "type": "function"
    },
    {
      "inputs": [
        {
          "internalType": "bytes32",
          "name": "role",
          "type": "bytes32"
        },
        {
          "internalType": "address",
          "name": "account",
          "type": "address"
        }
      ],
      "name": "hasRole",
      "outputs": [
        {
          "internalType": "bool",
          "name": "",
          "type": "bool"
        }
      ],
      "stateMutability": "view",
      "type": "function"
    },
    {
      "inputs": [
        {
          "internalType": "address",
          "name": "operator",
          "type": "address"
        },
        {
          "internalType": "address",
          "name": "tokenHolder",
          "type": "address"
        }
      ],
      "name": "isOperatorFor",
      "outputs": [
        {
          "internalType": "bool",
          "name": "",
          "type": "bool"
        }
      ],
      "stateMutability": "view",
      "type": "function"
    },
    {
      "inputs": [],
      "name": "name",
      "outputs": [
        {
          "internalType": "string",
          "name": "",
          "type": "string"
        }
      ],
      "stateMutability": "view",
      "type": "function"
    },
    {
      "inputs": [
        {
          "internalType": "address",
          "name": "account",
          "type": "address"
        },
        {
          "internalType": "uint256",
          "name": "amount",
          "type": "uint256"
        },
        {
          "internalType": "bytes",
          "name": "data",
          "type": "bytes"
        },
        {
          "internalType": "bytes",
          "name": "operatorData",
          "type": "bytes"
        }
      ],
      "name": "operatorBurn",
      "outputs": [],
      "stateMutability": "nonpayable",
      "type": "function"
    },
    {
      "inputs": [
        {
          "internalType": "address",
          "name": "sender",
          "type": "address"
        },
        {
          "internalType": "address",
          "name": "recipient",
          "type": "address"
        },
        {
          "internalType": "uint256",
          "name": "amount",
          "type": "uint256"
        },
        {
          "internalType": "bytes",
          "name": "data",
          "type": "bytes"
        },
        {
          "internalType": "bytes",
          "name": "operatorData",
          "type": "bytes"
        }
      ],
      "name": "operatorSend",
      "outputs": [],
      "stateMutability": "nonpayable",
      "type": "function"
    },
    {
      "inputs": [],
      "name": "pause",
      "outputs": [],
      "stateMutability": "nonpayable",
      "type": "function"
    },
    {
      "inputs": [],
      "name": "paused",
      "outputs": [
        {
          "internalType": "bool",
          "name": "",
          "type": "bool"
        }
      ],
      "stateMutability": "view",
      "type": "function"
    },
    {
      "inputs": [
        {
          "internalType": "bytes32",
          "name": "role",
          "type": "bytes32"
        },
        {
          "internalType": "address",
          "name": "account",
          "type": "address"
        }
      ],
      "name": "renounceRole",
      "outputs": [],
      "stateMutability": "nonpayable",
      "type": "function"
    },
    {
      "inputs": [
        {
          "internalType": "address",
          "name": "operator",
          "type": "address"
        }
      ],
      "name": "revokeOperator",
      "outputs": [],
      "stateMutability": "nonpayable",
      "type": "function"
    },
    {
      "inputs": [
        {
          "internalType": "bytes32",
          "name": "role",
          "type": "bytes32"
        },
        {
          "internalType": "address",
          "name": "account",
          "type": "address"
        }
      ],
      "name": "revokeRole",
      "outputs": [],
      "stateMutability": "nonpayable",
      "type": "function"
    },
    {
      "inputs": [
        {
          "internalType": "address",
          "name": "recipient",
          "type": "address"
        },
        {
          "internalType": "uint256",
          "name": "amount",
          "type": "uint256"
        },
        {
          "internalType": "bytes",
          "name": "data",
          "type": "bytes"
        }
      ],
      "name": "send",
      "outputs": [],
      "stateMutability": "nonpayable",
      "type": "function"
    },
    {
      "inputs": [
        {
          "internalType": "bytes4",
          "name": "interfaceId",
          "type": "bytes4"
        }
      ],
      "name": "supportsInterface",
      "outputs": [
        {
          "internalType": "bool",
          "name": "",
          "type": "bool"
        }
      ],
      "stateMutability": "view",
      "type": "function"
    },
    {
      "inputs": [],
      "name": "symbol",
      "outputs": [
        {
          "internalType": "string",
          "name": "",
          "type": "string"
        }
      ],
      "stateMutability": "view",
      "type": "function"
    },
    {
      "inputs": [],
      "name": "totalSupply",
      "outputs": [
        {
          "internalType": "uint256",
          "name": "",
          "type": "uint256"
        }
      ],
      "stateMutability": "view",
      "type": "function"
    },
    {
      "inputs": [
        {
          "internalType": "address",
          "name": "recipient",
          "type": "address"
        },
        {
          "internalType": "uint256",
          "name": "amount",
          "type": "uint256"
        }
      ],
      "name": "transfer",
      "outputs": [
        {
          "internalType": "bool",
          "name": "",
          "type": "bool"
        }
      ],
      "stateMutability": "nonpayable",
      "type": "function"
    },
    {
      "inputs": [
        {
          "internalType": "address",
          "name": "holder",
          "type": "address"
        },
        {
          "internalType": "address",
          "name": "recipient",
          "type": "address"
        },
        {
          "internalType": "uint256",
          "name": "amount",
          "type": "uint256"
        }
      ],
      "name": "transferFrom",
      "outputs": [
        {
          "internalType": "bool",
          "name": "",
          "type": "bool"
        }
      ],
      "stateMutability": "nonpayable",
      "type": "function"
    },
    {
      "inputs": [],
      "name": "unpause",
      "outputs": [],
      "stateMutability": "nonpayable",
      "type": "function"
    }
  ],
  "bytecode": "0x608060405234801561001057600080fd5b50614a08806100206000396000f3fe608060405234801561001057600080fd5b50600436106101e55760003560e01c80638456cb591161010f578063ca15c873116100a2578063e63ab1e911610071578063e63ab1e9146105a6578063fad8b32a146105c4578063fc673c4f146105e0578063fe9d9303146105fc576101e5565b8063ca15c873146104fa578063d547741f1461052a578063d95b637114610546578063dd62ed3e14610576576101e5565b806395d89b41116100de57806395d89b41146104725780639bd9bbc614610490578063a217fddf146104ac578063a9059cbb146104ca576101e5565b80638456cb59146103ec5780639010d07c146103f657806391d1485414610426578063959b8c3f14610456576101e5565b80632f2ff15d11610187578063556f0dc711610156578063556f0dc7146103645780635c975abb1461038257806362ad1b83146103a057806370a08231146103bc576101e5565b80632f2ff15d14610304578063313ce5671461032057806336568abe1461033e5780633f4ba83a1461035a576101e5565b8063095ea7b3116101c3578063095ea7b31461025657806318160ddd1461028657806323b872dd146102a4578063248a9ca3146102d4576101e5565b806301ffc9a7146101ea57806306e485381461021a57806306fdde0314610238575b600080fd5b61020460048036038101906101ff919061332c565b610618565b6040516102119190613374565b60405180910390f35b610222610692565b60405161022f919061347f565b60405180910390f35b610240610720565b60405161024d919061353a565b60405180910390f35b610270600480360381019061026b91906135be565b6107b2565b60405161027d9190613374565b60405180910390f35b61028e6108f4565b60405161029b919061360d565b60405180910390f35b6102be60048036038101906102b99190613628565b6108fe565b6040516102cb9190613374565b60405180910390f35b6102ee60048036038101906102e991906136b1565b610a88565b6040516102fb91906136ed565b60405180910390f35b61031e60048036038101906103199190613708565b610aa8565b005b610328610ad1565b6040516103359190613764565b60405180910390f35b61035860048036038101906103539190613708565b610ada565b005b610362610b5d565b005b61036c610c1e565b604051610379919061360d565b60405180910390f35b61038a610c27565b6040516103979190613374565b60405180910390f35b6103ba60048036038101906103b591906138b4565b610c3e565b005b6103d660048036038101906103d19190613967565b610ca4565b6040516103e3919061360d565b60405180910390f35b6103f4610ced565b005b610410600480360381019061040b9190613994565b610dae565b60405161041d91906139e3565b60405180910390f35b610440600480360381019061043b9190613708565b610ddd565b60405161044d9190613374565b60405180910390f35b610470600480360381019061046b9190613967565b610e48565b005b61047a610f3b565b604051610487919061353a565b60405180910390f35b6104aa60048036038101906104a591906139fe565b610fcd565b005b6104b4610ff7565b6040516104c191906136ed565b60405180910390f35b6104e460048036038101906104df91906135be565b610ffe565b6040516104f19190613374565b60405180910390f35b610514600480360381019061050f91906136b1565b61110c565b604051610521919061360d565b60405180910390f35b610544600480360381019061053f9190613708565b611130565b005b610560600480360381019061055b9190613a6d565b611159565b60405161056d9190613374565b60405180910390f35b610590600480360381019061058b9190613a6d565b61130a565b60405161059d919061360d565b60405180910390f35b6105ae611391565b6040516105bb91906136ed565b60405180910390f35b6105de60048036038101906105d99190613967565b6113b5565b005b6105fa60048036038101906105f59190613aad565b6114a8565b005b61061660048036038101906106119190613b4c565b61150a565b005b60007f5a05180f000000000000000000000000000000000000000000000000000000007bffffffffffffffffffffffffffffffffffffffffffffffffffffffff1916827bffffffffffffffffffffffffffffffffffffffffffffffffffffffff1916148061068b575061068a82611530565b5b9050919050565b6060603780548060200260200160405190810160405280929190818152602001828054801561071657602002820191906000526020600020905b8160009054906101000a900473ffffffffffffffffffffffffffffffffffffffff1673ffffffffffffffffffffffffffffffffffffffff16815260200190600101908083116106cc575b5050505050905090565b60606035805461072f90613bd7565b80601f016020809104026020016040519081016040528092919081815260200182805461075b90613bd7565b80156107a85780601f1061077d576101008083540402835291602001916107a8565b820191906000526020600020905b81548152906001019060200180831161078b57829003601f168201915b5050505050905090565b60006107bc610c27565b156107fc576040517f08c379a00000000000000000000000000000000000000000000000000000000081526004016107f390613c55565b60405180910390fd5b6108287f9af023a722a3324baa3960926649f372f48b6ebf0dfa38ed255f8679f773c64060001b6115aa565b6108547fd934e9cdff0e2d940d267e357d1ab2363a948ebc041102ae1e1f8580d44096d260001b6115aa565b6108807fea4d98d8be337e3e8f3d26862e321ccbfd6c3c9d57caeef8ef495499021c5c8660001b6115aa565b61088a83836115ad565b6108b67f29bc99e034351f9a896e88817d15309749e8a1ebc0f57926f41e30806e8edec060001b6115aa565b6108e27f8c1d61d66b8bf618df385426468b5fadcbe88a113a06da7fe94a9afbca52eb6e60001b6115aa565b6108ec8383611625565b905092915050565b6000603454905090565b60008073ffffffffffffffffffffffffffffffffffffffff168373ffffffffffffffffffffffffffffffffffffffff16141561096f576040517f08c379a000000000000000000000000000000000000000000000000000000000815260040161096690613ce7565b60405180910390fd5b600073ffffffffffffffffffffffffffffffffffffffff168473ffffffffffffffffffffffffffffffffffffffff1614156109df576040517f08c379a00000000000000000000000000000000000000000000000000000000081526004016109d690613d79565b60405180910390fd5b60006109e9611648565b9050610a17818686866040518060200160405280600081525060405180602001604052806000815250611650565b610a228582856117b7565b610a4e818686866040518060200160405280600081525060405180602001604052806000815250611843565b610a7c8186868660405180602001604052806000815250604051806020016040528060008152506000611a60565b60019150509392505050565b600060c96000838152602001908152602001600020600101549050919050565b610ab182610a88565b610ac281610abd611648565b611c32565b610acc8383611ccf565b505050565b60006012905090565b610ae2611648565b73ffffffffffffffffffffffffffffffffffffffff168173ffffffffffffffffffffffffffffffffffffffff1614610b4f576040517f08c379a0000000000000000000000000000000000000000000000000000000008152600401610b4690613e0b565b60405180910390fd5b610b598282611dc3565b5050565b7f65d7a28e3265b37a6474929f336521b332c1681b933f6cb9f3376673440d862a610b8f81610b8a611648565b611c32565b610bbb7f858f1fe6b51c9431ee88c94e20b07a978e9a50e5905bec5c8365be0c6f51182260001b6115aa565b610be77f4c64dd3a5b0919de4a31dc2a9d3c783632a3e794ff37610802898020969b667060001b6115aa565b610c137fda268e703cca39c7a22f03d8078484af01eff7a7c124ce93ede7dcf6be6f90e160001b6115aa565b610c1b611eb7565b50565b60006001905090565b6000606560009054906101000a900460ff16905090565b610c4f610c49611648565b86611159565b610c8e576040517f08c379a0000000000000000000000000000000000000000000000000000000008152600401610c8590613e9d565b60405180910390fd5b610c9d85858585856001611f59565b5050505050565b6000603360008373ffffffffffffffffffffffffffffffffffffffff1673ffffffffffffffffffffffffffffffffffffffff168152602001908152602001600020549050919050565b7f65d7a28e3265b37a6474929f336521b332c1681b933f6cb9f3376673440d862a610d1f81610d1a611648565b611c32565b610d4b7f1dc1229578640d35abe6159e5b134508e5f73f9d271af62b43c83bb0b415e3f760001b6115aa565b610d777f48247b3ae70c4de0db148f25d77fc886ed11dcd4e52b87d68fc70534f292c65460001b6115aa565b610da37f0561aede20a8824aac57a33c27c6cda531a77faba43dc7fe59ecc2accc90f76c60001b6115aa565b610dab612079565b50565b6000610dd58260fb600086815260200190815260200160002061211c90919063ffffffff16565b905092915050565b600060c9600084815260200190815260200160002060000160008373ffffffffffffffffffffffffffffffffffffffff1673ffffffffffffffffffffffffffffffffffffffff16815260200190815260200160002060009054906101000a900460ff16905092915050565b610e747fd6fcccedb488b0e090a5b764d7804c5153e1df31f9a51d697ee6507d176dbd0e60001b6115aa565b610ea07f13ca45f1cb740e78e100e996c2833e2da4dd2729c3c917a5d332c98f4849163660001b6115aa565b610ecc7f23042fa8f4766496f10713f0d7225112c53b680b5092dd9499ecf2a4d685fc5660001b6115aa565b610ed78160006115ad565b610f037fdec1d00af8bdd984201462f0240fa583467bfff0a6962f9c6447eb3c9e83e62e60001b6115aa565b610f2f7f892adf0d0395da01851f3c7ae547dcd3b45233a42d5f4a30ee5ee285592a705760001b6115aa565b610f3881612136565b50565b606060368054610f4a90613bd7565b80601f0160208091040260200160405190810160405280929190818152602001828054610f7690613bd7565b8015610fc35780601f10610f9857610100808354040283529160200191610fc3565b820191906000526020600020905b815481529060010190602001808311610fa657829003601f168201915b5050505050905090565b610ff2610fd8611648565b848484604051806020016040528060008152506001611f59565b505050565b6000801b81565b60008073ffffffffffffffffffffffffffffffffffffffff168373ffffffffffffffffffffffffffffffffffffffff16141561106f576040517f08c379a000000000000000000000000000000000000000000000000000000000815260040161106690613ce7565b60405180910390fd5b6000611079611648565b90506110a7818286866040518060200160405280600081525060405180602001604052806000815250611650565b6110d3818286866040518060200160405280600081525060405180602001604052806000815250611843565b6111018182868660405180602001604052806000815250604051806020016040528060008152506000611a60565b600191505092915050565b600061112960fb6000848152602001908152602001600020612397565b9050919050565b61113982610a88565b61114a81611145611648565b611c32565b6111548383611dc3565b505050565b60008173ffffffffffffffffffffffffffffffffffffffff168373ffffffffffffffffffffffffffffffffffffffff1614806112715750603860008473ffffffffffffffffffffffffffffffffffffffff1673ffffffffffffffffffffffffffffffffffffffff16815260200190815260200160002060009054906101000a900460ff1680156112705750603a60008373ffffffffffffffffffffffffffffffffffffffff1673ffffffffffffffffffffffffffffffffffffffff16815260200190815260200160002060008473ffffffffffffffffffffffffffffffffffffffff1673ffffffffffffffffffffffffffffffffffffffff16815260200190815260200160002060009054906101000a900460ff16155b5b806113025750603960008373ffffffffffffffffffffffffffffffffffffffff1673ffffffffffffffffffffffffffffffffffffffff16815260200190815260200160002060008473ffffffffffffffffffffffffffffffffffffffff1673ffffffffffffffffffffffffffffffffffffffff16815260200190815260200160002060009054906101000a900460ff165b905092915050565b6000603b60008473ffffffffffffffffffffffffffffffffffffffff1673ffffffffffffffffffffffffffffffffffffffff16815260200190815260200160002060008373ffffffffffffffffffffffffffffffffffffffff1673ffffffffffffffffffffffffffffffffffffffff16815260200190815260200160002054905092915050565b7f65d7a28e3265b37a6474929f336521b332c1681b933f6cb9f3376673440d862a81565b6113e17f95538af3c785155e180d92ceca8d59795a4c5465bee2075c086400d3fd65f5a160001b6115aa565b61140d7fc656d8489200a9065188cf410d3b90bad725f31d5c7732915fc7c62d1e5acbbd60001b6115aa565b6114397ff084490c9961a8ae2cd144e05be3621d74c43af138265f087e787624cdbc8a5b60001b6115aa565b6114448160006115ad565b6114707f72db53a16b4407b4c86154acb88ab13b2b34f201a75f206d6484e5c35fac524760001b6115aa565b61149c7fd1018423fc9eafc3d24d026213772380f953b96d3b0a514f7ae21a9ad8485c0d60001b6115aa565b6114a5816123ac565b50565b6114b96114b3611648565b85611159565b6114f8576040517f08c379a00000000000000000000000000000000000000000000000000000000081526004016114ef90613e9d565b60405180910390fd5b6115048484848461260d565b50505050565b61152c611515611648565b83836040518060200160405280600081525061260d565b5050565b60007f7965db0b000000000000000000000000000000000000000000000000000000007bffffffffffffffffffffffffffffffffffffffffffffffffffffffff1916827bffffffffffffffffffffffffffffffffffffffffffffffffffffffff191614806115a357506115a282612862565b5b9050919050565b50565b6115b5610c27565b156115f5576040517f08c379a00000000000000000000000000000000000000000000000000000000081526004016115ec90613c55565b60405180910390fd5b6116217f3dc828b94fc30f68e8088b1c7c25f0da9c7efbd101bb51eacd0bf30d4cf7a32360001b6115aa565b5050565b600080611630611648565b905061163d8185856128cc565b600191505092915050565b600033905090565b6000731820a4b7618bde71dce8cdc73aab6c95905fad2473ffffffffffffffffffffffffffffffffffffffff1663aabbb8ca877f29ddb589b1fb5fc7cf394961c1adf5f8c6454761adf795e67fe149f658abe8956040518363ffffffff1660e01b81526004016116c1929190613ebd565b602060405180830381865afa1580156116de573d6000803e3d6000fd5b505050506040513d601f19601f820116820180604052508101906117029190613efb565b9050600073ffffffffffffffffffffffffffffffffffffffff168173ffffffffffffffffffffffffffffffffffffffff16146117ae578073ffffffffffffffffffffffffffffffffffffffff166375ab97828888888888886040518763ffffffff1660e01b815260040161177b96959493929190613f7d565b600060405180830381600087803b15801561179557600080fd5b505af11580156117a9573d6000803e3d6000fd5b505050505b50505050505050565b60006117c3848461130a565b90507fffffffffffffffffffffffffffffffffffffffffffffffffffffffffffffffff811461183d578181101561182f576040517f08c379a000000000000000000000000000000000000000000000000000000000815260040161182690614038565b60405180910390fd5b61183c84848484036128cc565b5b50505050565b61184f86868686612a97565b6000603360008773ffffffffffffffffffffffffffffffffffffffff1673ffffffffffffffffffffffffffffffffffffffff168152602001908152602001600020549050838110156118d6576040517f08c379a00000000000000000000000000000000000000000000000000000000081526004016118cd906140ca565b60405180910390fd5b838103603360008873ffffffffffffffffffffffffffffffffffffffff1673ffffffffffffffffffffffffffffffffffffffff1681526020019081526020016000208190555083603360008773ffffffffffffffffffffffffffffffffffffffff1673ffffffffffffffffffffffffffffffffffffffff168152602001908152602001600020600082825461196b9190614119565b925050819055508473ffffffffffffffffffffffffffffffffffffffff168673ffffffffffffffffffffffffffffffffffffffff168873ffffffffffffffffffffffffffffffffffffffff167f06b541ddaa720db2b10a4d0cdac39b8d360425fc073085fac19bc826146779878787876040516119ea9392919061416f565b60405180910390a48473ffffffffffffffffffffffffffffffffffffffff168673ffffffffffffffffffffffffffffffffffffffff167fddf252ad1be2c89b69c2b068fc378daa952ba7f163c4a11628f55a4df523b3ef86604051611a4f919061360d565b60405180910390a350505050505050565b6000731820a4b7618bde71dce8cdc73aab6c95905fad2473ffffffffffffffffffffffffffffffffffffffff1663aabbb8ca877fb281fc8c12954d22544db45de3159a39272895b169a852b314f9cc762e44c53b6040518363ffffffff1660e01b8152600401611ad1929190613ebd565b602060405180830381865afa158015611aee573d6000803e3d6000fd5b505050506040513d601f19601f82011682018060405250810190611b129190613efb565b9050600073ffffffffffffffffffffffffffffffffffffffff168173ffffffffffffffffffffffffffffffffffffffff1614611bc1578073ffffffffffffffffffffffffffffffffffffffff166223de298989898989896040518763ffffffff1660e01b8152600401611b8a96959493929190613f7d565b600060405180830381600087803b158015611ba457600080fd5b505af1158015611bb8573d6000803e3d6000fd5b50505050611c28565b8115611c2757611be68673ffffffffffffffffffffffffffffffffffffffff16612b75565b15611c26576040517f08c379a0000000000000000000000000000000000000000000000000000000008152600401611c1d9061424c565b60405180910390fd5b5b5b5050505050505050565b611c3c8282610ddd565b611ccb57611c618173ffffffffffffffffffffffffffffffffffffffff166014612b98565b611c6f8360001c6020612b98565b604051602001611c80929190614340565b6040516020818303038152906040526040517f08c379a0000000000000000000000000000000000000000000000000000000008152600401611cc2919061353a565b60405180910390fd5b5050565b611cfb7f05cbb5feca251d52f1a29c6a211bbde3729a52b8fa2dd2c4e1645aa9fa3ed0b560001b6115aa565b611d277f802fc4f303bb0b2f30ea922ec62f4450d47b4a60e694aa35e61fdd627b2f859760001b6115aa565b611d537fe4a23ad5a9ec0fbeb2dfbd8645a3e0eb074c877d97ed9b5aa61466eca6a459f660001b6115aa565b611d5d8282612dd4565b611d897f2be797f2caf21c651eaaa7c97881efb8ed6e45299d1ac96e2e0cdb94073c281260001b6115aa565b611db57f369d5f6ca7b8cccb2224294246d5ec33a5434bce897ddbda845f6dbeb36dd34860001b6115aa565b611dbf8282612e4c565b5050565b611def7f379f49d583bef1f5aecb81442522cef570d0e36aded3bf34dbf53db61475cf9760001b6115aa565b611e1b7fd6b7c80eaa545c67a047e773519b27ebd003d9a935151b6597097ddd0f09806d60001b6115aa565b611e477f768541aa0932624007278fe078d1739144d823214f5c167518464a9ebc7d161360001b6115aa565b611e518282612dd4565b611e7d7f85a7e76419b539a1a172f47c3f5d8d82170c216c36fb3e83902eb1c7e3368c3260001b6115aa565b611ea97fb415bec63779f725a3d717d48649fa62ef8f760e924180e95b6dd29e7ccac59060001b6115aa565b611eb38282612e80565b5050565b611ebf610c27565b611efe576040517f08c379a0000000000000000000000000000000000000000000000000000000008152600401611ef5906143c6565b60405180910390fd5b6000606560006101000a81548160ff0219169083151502179055507f5db9ee0a495bf2e6ff9c91a7834c1ba4fdd244a5e8aa4e537bd38aeae4b073aa611f42611648565b604051611f4f91906139e3565b60405180910390a1565b600073ffffffffffffffffffffffffffffffffffffffff168673ffffffffffffffffffffffffffffffffffffffff161415611fc9576040517f08c379a0000000000000000000000000000000000000000000000000000000008152600401611fc090614458565b60405180910390fd5b600073ffffffffffffffffffffffffffffffffffffffff168573ffffffffffffffffffffffffffffffffffffffff161415612039576040517f08c379a0000000000000000000000000000000000000000000000000000000008152600401612030906144c4565b60405180910390fd5b6000612043611648565b9050612053818888888888611650565b612061818888888888611843565b61207081888888888888611a60565b50505050505050565b612081610c27565b156120c1576040517f08c379a00000000000000000000000000000000000000000000000000000000081526004016120b890613c55565b60405180910390fd5b6001606560006101000a81548160ff0219169083151502179055507f62e78cea01bee320cd4e420270b5ea74000d11b0c9f74754ebdbfc544b05a258612105611648565b60405161211291906139e3565b60405180910390a1565b600061212b8360000183612eb4565b60001c905092915050565b8073ffffffffffffffffffffffffffffffffffffffff16612155611648565b73ffffffffffffffffffffffffffffffffffffffff1614156121ac576040517f08c379a00000000000000000000000000000000000000000000000000000000081526004016121a390614556565b60405180910390fd5b603860008273ffffffffffffffffffffffffffffffffffffffff1673ffffffffffffffffffffffffffffffffffffffff16815260200190815260200160002060009054906101000a900460ff161561229657603a600061220a611648565b73ffffffffffffffffffffffffffffffffffffffff1673ffffffffffffffffffffffffffffffffffffffff16815260200190815260200160002060008273ffffffffffffffffffffffffffffffffffffffff1673ffffffffffffffffffffffffffffffffffffffff16815260200190815260200160002060006101000a81549060ff0219169055612333565b6001603960006122a4611648565b73ffffffffffffffffffffffffffffffffffffffff1673ffffffffffffffffffffffffffffffffffffffff16815260200190815260200160002060008373ffffffffffffffffffffffffffffffffffffffff1673ffffffffffffffffffffffffffffffffffffffff16815260200190815260200160002060006101000a81548160ff0219169083151502179055505b61233b611648565b73ffffffffffffffffffffffffffffffffffffffff168173ffffffffffffffffffffffffffffffffffffffff167ff4caeb2d6ca8932a215a353d0703c326ec2d81fc68170f320eb2ab49e9df61f960405160405180910390a350565b60006123a582600001612edf565b9050919050565b6123b4611648565b73ffffffffffffffffffffffffffffffffffffffff168173ffffffffffffffffffffffffffffffffffffffff161415612422576040517f08c379a0000000000000000000000000000000000000000000000000000000008152600401612419906145e8565b60405180910390fd5b603860008273ffffffffffffffffffffffffffffffffffffffff1673ffffffffffffffffffffffffffffffffffffffff16815260200190815260200160002060009054906101000a900460ff1615612515576001603a6000612482611648565b73ffffffffffffffffffffffffffffffffffffffff1673ffffffffffffffffffffffffffffffffffffffff16815260200190815260200160002060008373ffffffffffffffffffffffffffffffffffffffff1673ffffffffffffffffffffffffffffffffffffffff16815260200190815260200160002060006101000a81548160ff0219169083151502179055506125a9565b60396000612521611648565b73ffffffffffffffffffffffffffffffffffffffff1673ffffffffffffffffffffffffffffffffffffffff16815260200190815260200160002060008273ffffffffffffffffffffffffffffffffffffffff1673ffffffffffffffffffffffffffffffffffffffff16815260200190815260200160002060006101000a81549060ff02191690555b6125b1611648565b73ffffffffffffffffffffffffffffffffffffffff168173ffffffffffffffffffffffffffffffffffffffff167f50546e66e5f44d728365dc3908c63bc5cfeeab470722c1677e3073a6ac294aa160405160405180910390a350565b600073ffffffffffffffffffffffffffffffffffffffff168473ffffffffffffffffffffffffffffffffffffffff16141561267d576040517f08c379a00000000000000000000000000000000000000000000000000000000081526004016126749061467a565b60405180910390fd5b6000612687611648565b905061269881866000878787611650565b6126a58186600087612a97565b6000603360008773ffffffffffffffffffffffffffffffffffffffff1673ffffffffffffffffffffffffffffffffffffffff1681526020019081526020016000205490508481101561272c576040517f08c379a00000000000000000000000000000000000000000000000000000000081526004016127239061470c565b60405180910390fd5b848103603360008873ffffffffffffffffffffffffffffffffffffffff1673ffffffffffffffffffffffffffffffffffffffff168152602001908152602001600020819055508460346000828254612784919061472c565b925050819055508573ffffffffffffffffffffffffffffffffffffffff168273ffffffffffffffffffffffffffffffffffffffff167fa78a9be3a7b862d26933ad85fb11d80ef66b8f972d7cbba06621d583943a40988787876040516127ec9392919061416f565b60405180910390a3600073ffffffffffffffffffffffffffffffffffffffff168673ffffffffffffffffffffffffffffffffffffffff167fddf252ad1be2c89b69c2b068fc378daa952ba7f163c4a11628f55a4df523b3ef87604051612852919061360d565b60405180910390a3505050505050565b60007f01ffc9a7000000000000000000000000000000000000000000000000000000007bffffffffffffffffffffffffffffffffffffffffffffffffffffffff1916827bffffffffffffffffffffffffffffffffffffffffffffffffffffffff1916149050919050565b600073ffffffffffffffffffffffffffffffffffffffff168373ffffffffffffffffffffffffffffffffffffffff16141561293c576040517f08c379a0000000000000000000000000000000000000000000000000000000008152600401612933906147d2565b60405180910390fd5b600073ffffffffffffffffffffffffffffffffffffffff168273ffffffffffffffffffffffffffffffffffffffff1614156129ac576040517f08c379a00000000000000000000000000000000000000000000000000000000081526004016129a390614864565b60405180910390fd5b80603b60008573ffffffffffffffffffffffffffffffffffffffff1673ffffffffffffffffffffffffffffffffffffffff16815260200190815260200160002060008473ffffffffffffffffffffffffffffffffffffffff1673ffffffffffffffffffffffffffffffffffffffff168152602001908152602001600020819055508173ffffffffffffffffffffffffffffffffffffffff168373ffffffffffffffffffffffffffffffffffffffff167f8c5be1e5ebec7d5bd14f71427d1e84f3dd0314c0f7b2291e5b200ac8c7c3b92583604051612a8a919061360d565b60405180910390a3505050565b612a9f610c27565b15612adf576040517f08c379a0000000000000000000000000000000000000000000000000000000008152600401612ad690613c55565b60405180910390fd5b612b0b7fd762472bb467d9d91e54a575f797f84b188d0d9cae77e5b06adea344359acc3c60001b6115aa565b612b377f13d52f621fcd4c7d2b38513bd13cb31a5cb79abe61f54605ec34747f6d26e9c760001b6115aa565b612b637f43de5cffe9e75a5034b4b24d5beefdf893be7277ad832608b9bbc21fde3bcdad60001b6115aa565b612b6f84848484612ef0565b50505050565b6000808273ffffffffffffffffffffffffffffffffffffffff163b119050919050565b606060006002836002612bab9190614884565b612bb59190614119565b67ffffffffffffffff811115612bce57612bcd613789565b5b6040519080825280601f01601f191660200182016040528015612c005781602001600182028036833780820191505090505b5090507f300000000000000000000000000000000000000000000000000000000000000081600081518110612c3857612c376148de565b5b60200101907effffffffffffffffffffffffffffffffffffffffffffffffffffffffffffff1916908160001a9053507f780000000000000000000000000000000000000000000000000000000000000081600181518110612c9c57612c9b6148de565b5b60200101907effffffffffffffffffffffffffffffffffffffffffffffffffffffffffffff1916908160001a90535060006001846002612cdc9190614884565b612ce69190614119565b90505b6001811115612d86577f3031323334353637383961626364656600000000000000000000000000000000600f861660108110612d2857612d276148de565b5b1a60f81b828281518110612d3f57612d3e6148de565b5b60200101907effffffffffffffffffffffffffffffffffffffffffffffffffffffffffffff1916908160001a905350600485901c945080612d7f9061490d565b9050612ce9565b5060008414612dca576040517f08c379a0000000000000000000000000000000000000000000000000000000008152600401612dc190614983565b60405180910390fd5b8091505092915050565b612ddc610c27565b15612e1c576040517f08c379a0000000000000000000000000000000000000000000000000000000008152600401612e1390613c55565b60405180910390fd5b612e487f519a4ce5e96e965981f49420c5a5430c65ed62fe15b3161be925587163afae5260001b6115aa565b5050565b612e568282612ef6565b612e7b8160fb6000858152602001908152602001600020612fd790919063ffffffff16565b505050565b612e8a8282613007565b612eaf8160fb60008581526020019081526020016000206130e990919063ffffffff16565b505050565b6000826000018281548110612ecc57612ecb6148de565b5b9060005260206000200154905092915050565b600081600001805490509050919050565b50505050565b612f008282610ddd565b612fd357600160c9600084815260200190815260200160002060000160008373ffffffffffffffffffffffffffffffffffffffff1673ffffffffffffffffffffffffffffffffffffffff16815260200190815260200160002060006101000a81548160ff021916908315150217905550612f78611648565b73ffffffffffffffffffffffffffffffffffffffff168173ffffffffffffffffffffffffffffffffffffffff16837f2f8788117e7eff1d82e926ec794901d17c78024a50270940304540a733656f0d60405160405180910390a45b5050565b6000612fff836000018373ffffffffffffffffffffffffffffffffffffffff1660001b613119565b905092915050565b6130118282610ddd565b156130e557600060c9600084815260200190815260200160002060000160008373ffffffffffffffffffffffffffffffffffffffff1673ffffffffffffffffffffffffffffffffffffffff16815260200190815260200160002060006101000a81548160ff02191690831515021790555061308a611648565b73ffffffffffffffffffffffffffffffffffffffff168173ffffffffffffffffffffffffffffffffffffffff16837ff6391f5c32d9c69d2a47ea670b442974b53935d1edc7fd64eb21e047a839171b60405160405180910390a45b5050565b6000613111836000018373ffffffffffffffffffffffffffffffffffffffff1660001b613189565b905092915050565b6000613125838361329d565b61317e578260000182908060018154018082558091505060019003906000526020600020016000909190919091505582600001805490508360010160008481526020019081526020016000208190555060019050613183565b600090505b92915050565b600080836001016000848152602001908152602001600020549050600081146132915760006001826131bb919061472c565b90506000600186600001805490506131d3919061472c565b90508181146132425760008660000182815481106131f4576131f36148de565b5b9060005260206000200154905080876000018481548110613218576132176148de565b5b90600052602060002001819055508387600101600083815260200190815260200160002081905550505b85600001805480613256576132556149a3565b5b600190038181906000526020600020016000905590558560010160008681526020019081526020016000206000905560019350505050613297565b60009150505b92915050565b600080836001016000848152602001908152602001600020541415905092915050565b6000604051905090565b600080fd5b600080fd5b60007fffffffff0000000000000000000000000000000000000000000000000000000082169050919050565b613309816132d4565b811461331457600080fd5b50565b60008135905061332681613300565b92915050565b600060208284031215613342576133416132ca565b5b600061335084828501613317565b91505092915050565b60008115159050919050565b61336e81613359565b82525050565b60006020820190506133896000830184613365565b92915050565b600081519050919050565b600082825260208201905092915050565b6000819050602082019050919050565b600073ffffffffffffffffffffffffffffffffffffffff82169050919050565b60006133e6826133bb565b9050919050565b6133f6816133db565b82525050565b600061340883836133ed565b60208301905092915050565b6000602082019050919050565b600061342c8261338f565b613436818561339a565b9350613441836133ab565b8060005b8381101561347257815161345988826133fc565b975061346483613414565b925050600181019050613445565b5085935050505092915050565b600060208201905081810360008301526134998184613421565b905092915050565b600081519050919050565b600082825260208201905092915050565b60005b838110156134db5780820151818401526020810190506134c0565b838111156134ea576000848401525b50505050565b6000601f19601f8301169050919050565b600061350c826134a1565b61351681856134ac565b93506135268185602086016134bd565b61352f816134f0565b840191505092915050565b600060208201905081810360008301526135548184613501565b905092915050565b613565816133db565b811461357057600080fd5b50565b6000813590506135828161355c565b92915050565b6000819050919050565b61359b81613588565b81146135a657600080fd5b50565b6000813590506135b881613592565b92915050565b600080604083850312156135d5576135d46132ca565b5b60006135e385828601613573565b92505060206135f4858286016135a9565b9150509250929050565b61360781613588565b82525050565b600060208201905061362260008301846135fe565b92915050565b600080600060608486031215613641576136406132ca565b5b600061364f86828701613573565b935050602061366086828701613573565b9250506040613671868287016135a9565b9150509250925092565b6000819050919050565b61368e8161367b565b811461369957600080fd5b50565b6000813590506136ab81613685565b92915050565b6000602082840312156136c7576136c66132ca565b5b60006136d58482850161369c565b91505092915050565b6136e78161367b565b82525050565b600060208201905061370260008301846136de565b92915050565b6000806040838503121561371f5761371e6132ca565b5b600061372d8582860161369c565b925050602061373e85828601613573565b9150509250929050565b600060ff82169050919050565b61375e81613748565b82525050565b60006020820190506137796000830184613755565b92915050565b600080fd5b600080fd5b7f4e487b7100000000000000000000000000000000000000000000000000000000600052604160045260246000fd5b6137c1826134f0565b810181811067ffffffffffffffff821117156137e0576137df613789565b5b80604052505050565b60006137f36132c0565b90506137ff82826137b8565b919050565b600067ffffffffffffffff82111561381f5761381e613789565b5b613828826134f0565b9050602081019050919050565b82818337600083830152505050565b600061385761385284613804565b6137e9565b90508281526020810184848401111561387357613872613784565b5b61387e848285613835565b509392505050565b600082601f83011261389b5761389a61377f565b5b81356138ab848260208601613844565b91505092915050565b600080600080600060a086880312156138d0576138cf6132ca565b5b60006138de88828901613573565b95505060206138ef88828901613573565b9450506040613900888289016135a9565b935050606086013567ffffffffffffffff811115613921576139206132cf565b5b61392d88828901613886565b925050608086013567ffffffffffffffff81111561394e5761394d6132cf565b5b61395a88828901613886565b9150509295509295909350565b60006020828403121561397d5761397c6132ca565b5b600061398b84828501613573565b91505092915050565b600080604083850312156139ab576139aa6132ca565b5b60006139b98582860161369c565b92505060206139ca858286016135a9565b9150509250929050565b6139dd816133db565b82525050565b60006020820190506139f860008301846139d4565b92915050565b600080600060608486031215613a1757613a166132ca565b5b6000613a2586828701613573565b9350506020613a36868287016135a9565b925050604084013567ffffffffffffffff811115613a5757613a566132cf565b5b613a6386828701613886565b9150509250925092565b60008060408385031215613a8457613a836132ca565b5b6000613a9285828601613573565b9250506020613aa385828601613573565b9150509250929050565b60008060008060808587031215613ac757613ac66132ca565b5b6000613ad587828801613573565b9450506020613ae6878288016135a9565b935050604085013567ffffffffffffffff811115613b0757613b066132cf565b5b613b1387828801613886565b925050606085013567ffffffffffffffff811115613b3457613b336132cf565b5b613b4087828801613886565b91505092959194509250565b60008060408385031215613b6357613b626132ca565b5b6000613b71858286016135a9565b925050602083013567ffffffffffffffff811115613b9257613b916132cf565b5b613b9e85828601613886565b9150509250929050565b7f4e487b7100000000000000000000000000000000000000000000000000000000600052602260045260246000fd5b60006002820490506001821680613bef57607f821691505b60208210811415613c0357613c02613ba8565b5b50919050565b7f5061757361626c653a2070617573656400000000000000000000000000000000600082015250565b6000613c3f6010836134ac565b9150613c4a82613c09565b602082019050919050565b60006020820190508181036000830152613c6e81613c32565b9050919050565b7f4552433737373a207472616e7366657220746f20746865207a65726f2061646460008201527f7265737300000000000000000000000000000000000000000000000000000000602082015250565b6000613cd16024836134ac565b9150613cdc82613c75565b604082019050919050565b60006020820190508181036000830152613d0081613cc4565b9050919050565b7f4552433737373a207472616e736665722066726f6d20746865207a65726f206160008201527f6464726573730000000000000000000000000000000000000000000000000000602082015250565b6000613d636026836134ac565b9150613d6e82613d07565b604082019050919050565b60006020820190508181036000830152613d9281613d56565b9050919050565b7f416363657373436f6e74726f6c3a2063616e206f6e6c792072656e6f756e636560008201527f20726f6c657320666f722073656c660000000000000000000000000000000000602082015250565b6000613df5602f836134ac565b9150613e0082613d99565b604082019050919050565b60006020820190508181036000830152613e2481613de8565b9050919050565b7f4552433737373a2063616c6c6572206973206e6f7420616e206f70657261746f60008201527f7220666f7220686f6c6465720000000000000000000000000000000000000000602082015250565b6000613e87602c836134ac565b9150613e9282613e2b565b604082019050919050565b60006020820190508181036000830152613eb681613e7a565b9050919050565b6000604082019050613ed260008301856139d4565b613edf60208301846136de565b9392505050565b600081519050613ef58161355c565b92915050565b600060208284031215613f1157613f106132ca565b5b6000613f1f84828501613ee6565b91505092915050565b600081519050919050565b600082825260208201905092915050565b6000613f4f82613f28565b613f598185613f33565b9350613f698185602086016134bd565b613f72816134f0565b840191505092915050565b600060c082019050613f9260008301896139d4565b613f9f60208301886139d4565b613fac60408301876139d4565b613fb960608301866135fe565b8181036080830152613fcb8185613f44565b905081810360a0830152613fdf8184613f44565b9050979650505050505050565b7f4552433737373a20696e73756666696369656e7420616c6c6f77616e63650000600082015250565b6000614022601e836134ac565b915061402d82613fec565b602082019050919050565b6000602082019050818103600083015261405181614015565b9050919050565b7f4552433737373a207472616e7366657220616d6f756e7420657863656564732060008201527f62616c616e636500000000000000000000000000000000000000000000000000602082015250565b60006140b46027836134ac565b91506140bf82614058565b604082019050919050565b600060208201905081810360008301526140e3816140a7565b9050919050565b7f4e487b7100000000000000000000000000000000000000000000000000000000600052601160045260246000fd5b600061412482613588565b915061412f83613588565b9250827fffffffffffffffffffffffffffffffffffffffffffffffffffffffffffffffff03821115614164576141636140ea565b5b828201905092915050565b600060608201905061418460008301866135fe565b81810360208301526141968185613f44565b905081810360408301526141aa8184613f44565b9050949350505050565b7f4552433737373a20746f6b656e20726563697069656e7420636f6e747261637460008201527f20686173206e6f20696d706c656d656e74657220666f7220455243373737546f60208201527f6b656e73526563697069656e7400000000000000000000000000000000000000604082015250565b6000614236604d836134ac565b9150614241826141b4565b606082019050919050565b6000602082019050818103600083015261426581614229565b9050919050565b600081905092915050565b7f416363657373436f6e74726f6c3a206163636f756e7420000000000000000000600082015250565b60006142ad60178361426c565b91506142b882614277565b601782019050919050565b60006142ce826134a1565b6142d8818561426c565b93506142e88185602086016134bd565b80840191505092915050565b7f206973206d697373696e6720726f6c6520000000000000000000000000000000600082015250565b600061432a60118361426c565b9150614335826142f4565b601182019050919050565b600061434b826142a0565b915061435782856142c3565b91506143628261431d565b915061436e82846142c3565b91508190509392505050565b7f5061757361626c653a206e6f7420706175736564000000000000000000000000600082015250565b60006143b06014836134ac565b91506143bb8261437a565b602082019050919050565b600060208201905081810360008301526143df816143a3565b9050919050565b7f4552433737373a2073656e642066726f6d20746865207a65726f20616464726560008201527f7373000000000000000000000000000000000000000000000000000000000000602082015250565b60006144426022836134ac565b915061444d826143e6565b604082019050919050565b6000602082019050818103600083015261447181614435565b9050919050565b7f4552433737373a2073656e6420746f20746865207a65726f2061646472657373600082015250565b60006144ae6020836134ac565b91506144b982614478565b602082019050919050565b600060208201905081810360008301526144dd816144a1565b9050919050565b7f4552433737373a20617574686f72697a696e672073656c66206173206f70657260008201527f61746f7200000000000000000000000000000000000000000000000000000000602082015250565b60006145406024836134ac565b915061454b826144e4565b604082019050919050565b6000602082019050818103600083015261456f81614533565b9050919050565b7f4552433737373a207265766f6b696e672073656c66206173206f70657261746f60008201527f7200000000000000000000000000000000000000000000000000000000000000602082015250565b60006145d26021836134ac565b91506145dd82614576565b604082019050919050565b60006020820190508181036000830152614601816145c5565b9050919050565b7f4552433737373a206275726e2066726f6d20746865207a65726f20616464726560008201527f7373000000000000000000000000000000000000000000000000000000000000602082015250565b60006146646022836134ac565b915061466f82614608565b604082019050919050565b6000602082019050818103600083015261469381614657565b9050919050565b7f4552433737373a206275726e20616d6f756e7420657863656564732062616c6160008201527f6e63650000000000000000000000000000000000000000000000000000000000602082015250565b60006146f66023836134ac565b91506147018261469a565b604082019050919050565b60006020820190508181036000830152614725816146e9565b9050919050565b600061473782613588565b915061474283613588565b925082821015614755576147546140ea565b5b828203905092915050565b7f4552433737373a20617070726f76652066726f6d20746865207a65726f20616460008201527f6472657373000000000000000000000000000000000000000000000000000000602082015250565b60006147bc6025836134ac565b91506147c782614760565b604082019050919050565b600060208201905081810360008301526147eb816147af565b9050919050565b7f4552433737373a20617070726f766520746f20746865207a65726f206164647260008201527f6573730000000000000000000000000000000000000000000000000000000000602082015250565b600061484e6023836134ac565b9150614859826147f2565b604082019050919050565b6000602082019050818103600083015261487d81614841565b9050919050565b600061488f82613588565b915061489a83613588565b9250817fffffffffffffffffffffffffffffffffffffffffffffffffffffffffffffffff04831182151516156148d3576148d26140ea565b5b828202905092915050565b7f4e487b7100000000000000000000000000000000000000000000000000000000600052603260045260246000fd5b600061491882613588565b9150600082141561492c5761492b6140ea565b5b600182039050919050565b7f537472696e67733a20686578206c656e67746820696e73756666696369656e74600082015250565b600061496d6020836134ac565b915061497882614937565b602082019050919050565b6000602082019050818103600083015261499c81614960565b9050919050565b7f4e487b7100000000000000000000000000000000000000000000000000000000600052603160045260246000fdfea264697066735822122054d2b0820e21d96a5a7bcf5e12ec736bfc66ae7d5fa1e516c15a4cbf38a5b44764736f6c634300080a0033",
  "linkReferences": {},
  "deployedLinkReferences": {}
}