{
  "_format": "hh-sol-artifact-1",
  "contractName": "ERC777PresetPausablePermissioned",
  "sourceName": "contracts/ERC777PresetPausablePermissioned.sol",
  "abi": [
    {
      "anonymous": false,
      "inputs": [
        {
          "indexed": true,
          "internalType": "address",
          "name": "owner",
          "type": "address"
        },
        {
          "indexed": true,
          "internalType": "address",
          "name": "spender",
          "type": "address"
        },
        {
          "indexed": false,
          "internalType": "uint256",
          "name": "value",
          "type": "uint256"
        }
      ],
      "name": "Approval",
      "type": "event"
    },
    {
      "anonymous": false,
      "inputs": [
        {
          "indexed": true,
          "internalType": "address",
          "name": "operator",
          "type": "address"
        },
        {
          "indexed": true,
          "internalType": "address",
          "name": "tokenHolder",
          "type": "address"
        }
      ],
      "name": "AuthorizedOperator",
      "type": "event"
    },
    {
      "anonymous": false,
      "inputs": [
        {
          "indexed": true,
          "internalType": "address",
          "name": "operator",
          "type": "address"
        },
        {
          "indexed": true,
          "internalType": "address",
          "name": "from",
          "type": "address"
        },
        {
          "indexed": false,
          "internalType": "uint256",
          "name": "amount",
          "type": "uint256"
        },
        {
          "indexed": false,
          "internalType": "bytes",
          "name": "data",
          "type": "bytes"
        },
        {
          "indexed": false,
          "internalType": "bytes",
          "name": "operatorData",
          "type": "bytes"
        }
      ],
      "name": "Burned",
      "type": "event"
    },
    {
      "anonymous": false,
      "inputs": [
        {
          "indexed": true,
          "internalType": "address",
          "name": "operator",
          "type": "address"
        },
        {
          "indexed": true,
          "internalType": "address",
          "name": "to",
          "type": "address"
        },
        {
          "indexed": false,
          "internalType": "uint256",
          "name": "amount",
          "type": "uint256"
        },
        {
          "indexed": false,
          "internalType": "bytes",
          "name": "data",
          "type": "bytes"
        },
        {
          "indexed": false,
          "internalType": "bytes",
          "name": "operatorData",
          "type": "bytes"
        }
      ],
      "name": "Minted",
      "type": "event"
    },
    {
      "anonymous": false,
      "inputs": [
        {
          "indexed": false,
          "internalType": "address",
          "name": "account",
          "type": "address"
        }
      ],
      "name": "Paused",
      "type": "event"
    },
    {
      "anonymous": false,
      "inputs": [
        {
          "indexed": true,
          "internalType": "address",
          "name": "operator",
          "type": "address"
        },
        {
          "indexed": true,
          "internalType": "address",
          "name": "tokenHolder",
          "type": "address"
        }
      ],
      "name": "RevokedOperator",
      "type": "event"
    },
    {
      "anonymous": false,
      "inputs": [
        {
          "indexed": true,
          "internalType": "bytes32",
          "name": "role",
          "type": "bytes32"
        },
        {
          "indexed": true,
          "internalType": "bytes32",
          "name": "previousAdminRole",
          "type": "bytes32"
        },
        {
          "indexed": true,
          "internalType": "bytes32",
          "name": "newAdminRole",
          "type": "bytes32"
        }
      ],
      "name": "RoleAdminChanged",
      "type": "event"
    },
    {
      "anonymous": false,
      "inputs": [
        {
          "indexed": true,
          "internalType": "bytes32",
          "name": "role",
          "type": "bytes32"
        },
        {
          "indexed": true,
          "internalType": "address",
          "name": "account",
          "type": "address"
        },
        {
          "indexed": true,
          "internalType": "address",
          "name": "sender",
          "type": "address"
        }
      ],
      "name": "RoleGranted",
      "type": "event"
    },
    {
      "anonymous": false,
      "inputs": [
        {
          "indexed": true,
          "internalType": "bytes32",
          "name": "role",
          "type": "bytes32"
        },
        {
          "indexed": true,
          "internalType": "address",
          "name": "account",
          "type": "address"
        },
        {
          "indexed": true,
          "internalType": "address",
          "name": "sender",
          "type": "address"
        }
      ],
      "name": "RoleRevoked",
      "type": "event"
    },
    {
      "anonymous": false,
      "inputs": [
        {
          "indexed": true,
          "internalType": "address",
          "name": "operator",
          "type": "address"
        },
        {
          "indexed": true,
          "internalType": "address",
          "name": "from",
          "type": "address"
        },
        {
          "indexed": true,
          "internalType": "address",
          "name": "to",
          "type": "address"
        },
        {
          "indexed": false,
          "internalType": "uint256",
          "name": "amount",
          "type": "uint256"
        },
        {
          "indexed": false,
          "internalType": "bytes",
          "name": "data",
          "type": "bytes"
        },
        {
          "indexed": false,
          "internalType": "bytes",
          "name": "operatorData",
          "type": "bytes"
        }
      ],
      "name": "Sent",
      "type": "event"
    },
    {
      "anonymous": false,
      "inputs": [
        {
          "indexed": true,
          "internalType": "address",
          "name": "from",
          "type": "address"
        },
        {
          "indexed": true,
          "internalType": "address",
          "name": "to",
          "type": "address"
        },
        {
          "indexed": false,
          "internalType": "uint256",
          "name": "value",
          "type": "uint256"
        }
      ],
      "name": "Transfer",
      "type": "event"
    },
    {
      "anonymous": false,
      "inputs": [
        {
          "indexed": false,
          "internalType": "address",
          "name": "account",
          "type": "address"
        }
      ],
      "name": "Unpaused",
      "type": "event"
    },
    {
      "inputs": [],
      "name": "DEFAULT_ADMIN_ROLE",
      "outputs": [
        {
          "internalType": "bytes32",
          "name": "",
          "type": "bytes32"
        }
      ],
      "stateMutability": "view",
      "type": "function"
    },
    {
      "inputs": [],
      "name": "PAUSER_ROLE",
      "outputs": [
        {
          "internalType": "bytes32",
          "name": "",
          "type": "bytes32"
        }
      ],
      "stateMutability": "view",
      "type": "function"
    },
    {
      "inputs": [
        {
          "internalType": "address",
          "name": "holder",
          "type": "address"
        },
        {
          "internalType": "address",
          "name": "spender",
          "type": "address"
        }
      ],
      "name": "allowance",
      "outputs": [
        {
          "internalType": "uint256",
          "name": "",
          "type": "uint256"
        }
      ],
      "stateMutability": "view",
      "type": "function"
    },
    {
      "inputs": [
        {
          "internalType": "address",
          "name": "spender",
          "type": "address"
        },
        {
          "internalType": "uint256",
          "name": "value",
          "type": "uint256"
        }
      ],
      "name": "approve",
      "outputs": [
        {
          "internalType": "bool",
          "name": "",
          "type": "bool"
        }
      ],
      "stateMutability": "nonpayable",
      "type": "function"
    },
    {
      "inputs": [
        {
          "internalType": "address",
          "name": "operator",
          "type": "address"
        }
      ],
      "name": "authorizeOperator",
      "outputs": [],
      "stateMutability": "nonpayable",
      "type": "function"
    },
    {
      "inputs": [
        {
          "internalType": "address",
          "name": "tokenHolder",
          "type": "address"
        }
      ],
      "name": "balanceOf",
      "outputs": [
        {
          "internalType": "uint256",
          "name": "",
          "type": "uint256"
        }
      ],
      "stateMutability": "view",
      "type": "function"
    },
    {
      "inputs": [
        {
          "internalType": "uint256",
          "name": "amount",
          "type": "uint256"
        },
        {
          "internalType": "bytes",
          "name": "data",
          "type": "bytes"
        }
      ],
      "name": "burn",
      "outputs": [],
      "stateMutability": "nonpayable",
      "type": "function"
    },
    {
      "inputs": [],
      "name": "decimals",
      "outputs": [
        {
          "internalType": "uint8",
          "name": "",
          "type": "uint8"
        }
      ],
      "stateMutability": "pure",
      "type": "function"
    },
    {
      "inputs": [],
      "name": "defaultOperators",
      "outputs": [
        {
          "internalType": "address[]",
          "name": "",
          "type": "address[]"
        }
      ],
      "stateMutability": "view",
      "type": "function"
    },
    {
      "inputs": [
        {
          "internalType": "bytes32",
          "name": "role",
          "type": "bytes32"
        }
      ],
      "name": "getRoleAdmin",
      "outputs": [
        {
          "internalType": "bytes32",
          "name": "",
          "type": "bytes32"
        }
      ],
      "stateMutability": "view",
      "type": "function"
    },
    {
      "inputs": [
        {
          "internalType": "bytes32",
          "name": "role",
          "type": "bytes32"
        },
        {
          "internalType": "uint256",
          "name": "index",
          "type": "uint256"
        }
      ],
      "name": "getRoleMember",
      "outputs": [
        {
          "internalType": "address",
          "name": "",
          "type": "address"
        }
      ],
      "stateMutability": "view",
      "type": "function"
    },
    {
      "inputs": [
        {
          "internalType": "bytes32",
          "name": "role",
          "type": "bytes32"
        }
      ],
      "name": "getRoleMemberCount",
      "outputs": [
        {
          "internalType": "uint256",
          "name": "",
          "type": "uint256"
        }
      ],
      "stateMutability": "view",
      "type": "function"
    },
    {
      "inputs": [
        {
          "internalType": "bytes32",
          "name": "role",
          "type": "bytes32"
        },
        {
          "internalType": "address",
          "name": "account",
          "type": "address"
        }
      ],
      "name": "grantRole",
      "outputs": [],
      "stateMutability": "nonpayable",
      "type": "function"
    },
    {
      "inputs": [],
      "name": "granularity",
      "outputs": [
        {
          "internalType": "uint256",
          "name": "",
          "type": "uint256"
        }
      ],
      "stateMutability": "view",
      "type": "function"
    },
    {
      "inputs": [
        {
          "internalType": "bytes32",
          "name": "role",
          "type": "bytes32"
        },
        {
          "internalType": "address",
          "name": "account",
          "type": "address"
        }
      ],
      "name": "hasRole",
      "outputs": [
        {
          "internalType": "bool",
          "name": "",
          "type": "bool"
        }
      ],
      "stateMutability": "view",
      "type": "function"
    },
    {
      "inputs": [
        {
          "internalType": "address",
          "name": "operator",
          "type": "address"
        },
        {
          "internalType": "address",
          "name": "tokenHolder",
          "type": "address"
        }
      ],
      "name": "isOperatorFor",
      "outputs": [
        {
          "internalType": "bool",
          "name": "",
          "type": "bool"
        }
      ],
      "stateMutability": "view",
      "type": "function"
    },
    {
      "inputs": [],
      "name": "name",
      "outputs": [
        {
          "internalType": "string",
          "name": "",
          "type": "string"
        }
      ],
      "stateMutability": "view",
      "type": "function"
    },
    {
      "inputs": [
        {
          "internalType": "address",
          "name": "account",
          "type": "address"
        },
        {
          "internalType": "uint256",
          "name": "amount",
          "type": "uint256"
        },
        {
          "internalType": "bytes",
          "name": "data",
          "type": "bytes"
        },
        {
          "internalType": "bytes",
          "name": "operatorData",
          "type": "bytes"
        }
      ],
      "name": "operatorBurn",
      "outputs": [],
      "stateMutability": "nonpayable",
      "type": "function"
    },
    {
      "inputs": [
        {
          "internalType": "address",
          "name": "sender",
          "type": "address"
        },
        {
          "internalType": "address",
          "name": "recipient",
          "type": "address"
        },
        {
          "internalType": "uint256",
          "name": "amount",
          "type": "uint256"
        },
        {
          "internalType": "bytes",
          "name": "data",
          "type": "bytes"
        },
        {
          "internalType": "bytes",
          "name": "operatorData",
          "type": "bytes"
        }
      ],
      "name": "operatorSend",
      "outputs": [],
      "stateMutability": "nonpayable",
      "type": "function"
    },
    {
      "inputs": [],
      "name": "pause",
      "outputs": [],
      "stateMutability": "nonpayable",
      "type": "function"
    },
    {
      "inputs": [],
      "name": "paused",
      "outputs": [
        {
          "internalType": "bool",
          "name": "",
          "type": "bool"
        }
      ],
      "stateMutability": "view",
      "type": "function"
    },
    {
      "inputs": [
        {
          "internalType": "bytes32",
          "name": "role",
          "type": "bytes32"
        },
        {
          "internalType": "address",
          "name": "account",
          "type": "address"
        }
      ],
      "name": "renounceRole",
      "outputs": [],
      "stateMutability": "nonpayable",
      "type": "function"
    },
    {
      "inputs": [
        {
          "internalType": "address",
          "name": "operator",
          "type": "address"
        }
      ],
      "name": "revokeOperator",
      "outputs": [],
      "stateMutability": "nonpayable",
      "type": "function"
    },
    {
      "inputs": [
        {
          "internalType": "bytes32",
          "name": "role",
          "type": "bytes32"
        },
        {
          "internalType": "address",
          "name": "account",
          "type": "address"
        }
      ],
      "name": "revokeRole",
      "outputs": [],
      "stateMutability": "nonpayable",
      "type": "function"
    },
    {
      "inputs": [
        {
          "internalType": "address",
          "name": "recipient",
          "type": "address"
        },
        {
          "internalType": "uint256",
          "name": "amount",
          "type": "uint256"
        },
        {
          "internalType": "bytes",
          "name": "data",
          "type": "bytes"
        }
      ],
      "name": "send",
      "outputs": [],
      "stateMutability": "nonpayable",
      "type": "function"
    },
    {
      "inputs": [
        {
          "internalType": "bytes4",
          "name": "interfaceId",
          "type": "bytes4"
        }
      ],
      "name": "supportsInterface",
      "outputs": [
        {
          "internalType": "bool",
          "name": "",
          "type": "bool"
        }
      ],
      "stateMutability": "view",
      "type": "function"
    },
    {
      "inputs": [],
      "name": "symbol",
      "outputs": [
        {
          "internalType": "string",
          "name": "",
          "type": "string"
        }
      ],
      "stateMutability": "view",
      "type": "function"
    },
    {
      "inputs": [],
      "name": "totalSupply",
      "outputs": [
        {
          "internalType": "uint256",
          "name": "",
          "type": "uint256"
        }
      ],
      "stateMutability": "view",
      "type": "function"
    },
    {
      "inputs": [
        {
          "internalType": "address",
          "name": "recipient",
          "type": "address"
        },
        {
          "internalType": "uint256",
          "name": "amount",
          "type": "uint256"
        }
      ],
      "name": "transfer",
      "outputs": [
        {
          "internalType": "bool",
          "name": "",
          "type": "bool"
        }
      ],
      "stateMutability": "nonpayable",
      "type": "function"
    },
    {
      "inputs": [
        {
          "internalType": "address",
          "name": "holder",
          "type": "address"
        },
        {
          "internalType": "address",
          "name": "recipient",
          "type": "address"
        },
        {
          "internalType": "uint256",
          "name": "amount",
          "type": "uint256"
        }
      ],
      "name": "transferFrom",
      "outputs": [
        {
          "internalType": "bool",
          "name": "",
          "type": "bool"
        }
      ],
      "stateMutability": "nonpayable",
      "type": "function"
    },
    {
      "inputs": [],
      "name": "unpause",
      "outputs": [],
      "stateMutability": "nonpayable",
      "type": "function"
    }
  ],
  "bytecode": "0x608060405234801561001057600080fd5b5061221f806100206000396000f3fe608060405234801561001057600080fd5b50600436106101e55760003560e01c80638456cb591161010f578063ca15c873116100a2578063e63ab1e911610071578063e63ab1e914610425578063fad8b32a1461044c578063fc673c4f1461045f578063fe9d93031461047257600080fd5b8063ca15c873146103b3578063d547741f146103c6578063d95b6371146103d9578063dd62ed3e146103ec57600080fd5b806395d89b41116100de57806395d89b411461037d5780639bd9bbc614610385578063a217fddf14610398578063a9059cbb146103a057600080fd5b80638456cb59146103245780639010d07c1461032c57806391d1485414610357578063959b8c3f1461036a57600080fd5b80632f2ff15d11610187578063556f0dc711610156578063556f0dc7146102d65780635c975abb146102dd57806362ad1b83146102e857806370a08231146102fb57600080fd5b80632f2ff15d14610297578063313ce567146102ac57806336568abe146102bb5780633f4ba83a146102ce57600080fd5b8063095ea7b3116101c3578063095ea7b31461023c57806318160ddd1461024f57806323b872dd14610261578063248a9ca31461027457600080fd5b806301ffc9a7146101ea57806306e485381461021257806306fdde0314610227575b600080fd5b6101fd6101f8366004611ad2565b610485565b60405190151581526020015b60405180910390f35b61021a6104b0565b6040516102099190611afc565b61022f610512565b6040516102099190611ba1565b6101fd61024a366004611bc9565b61059b565b6034545b604051908152602001610209565b6101fd61026f366004611bf5565b6105ea565b610253610282366004611c36565b600090815260c9602052604090206001015490565b6102aa6102a5366004611c4f565b610718565b005b60405160128152602001610209565b6102aa6102c9366004611c4f565b610743565b6102aa6107c1565b6001610253565b60655460ff166101fd565b6102aa6102f6366004611d22565b6107f7565b610253610309366004611db5565b6001600160a01b031660009081526033602052604090205490565b6102aa610833565b61033f61033a366004611dd2565b610866565b6040516001600160a01b039091168152602001610209565b6101fd610365366004611c4f565b61087e565b6102aa610378366004611db5565b6108a9565b61022f6108bd565b6102aa610393366004611df4565b6108cc565b610253600081565b6101fd6103ae366004611bc9565b6108ea565b6102536103c1366004611c36565b6109a7565b6102aa6103d4366004611c4f565b6109be565b6101fd6103e7366004611e4d565b6109e4565b6102536103fa366004611e4d565b6001600160a01b039182166000908152603b6020908152604080832093909416825291909152205490565b6102537f65d7a28e3265b37a6474929f336521b332c1681b933f6cb9f3376673440d862a81565b6102aa61045a366004611db5565b610a85565b6102aa61046d366004611e7b565b610a99565b6102aa610480366004611efb565b610ad1565b60006001600160e01b03198216635a05180f60e01b14806104aa57506104aa82610aec565b92915050565b6060603780548060200260200160405190810160405280929190818152602001828054801561050857602002820191906000526020600020905b81546001600160a01b031681526001909101906020018083116104ea575b5050505050905090565b60606035805461052190611f42565b80601f016020809104026020016040519081016040528092919081815260200182805461054d90611f42565b80156105085780601f1061056f57610100808354040283529160200191610508565b820191906000526020600020905b81548152906001019060200180831161057d57509395945050505050565b60006105a960655460ff1690565b156105cf5760405162461bcd60e51b81526004016105c690611f7d565b60405180910390fd5b6105d98383610b21565b6105e38383610b44565b9392505050565b60006001600160a01b0383166106125760405162461bcd60e51b81526004016105c690611fa7565b6001600160a01b0384166106775760405162461bcd60e51b815260206004820152602660248201527f4552433737373a207472616e736665722066726f6d20746865207a65726f206160448201526564647265737360d01b60648201526084016105c6565b60003390506106a8818686866040518060200160405280600081525060405180602001604052806000815250610b52565b6106b3858285610c7a565b6106df818686866040518060200160405280600081525060405180602001604052806000815250610d06565b61070d8186868660405180602001604052806000815250604051806020016040528060008152506000610e78565b506001949350505050565b600082815260c96020526040902060010154610734813361103d565b61073e83836110a1565b505050565b6001600160a01b03811633146107b35760405162461bcd60e51b815260206004820152602f60248201527f416363657373436f6e74726f6c3a2063616e206f6e6c792072656e6f756e636560448201526e103937b632b9903337b91039b2b63360891b60648201526084016105c6565b6107bd82826110b5565b5050565b7f65d7a28e3265b37a6474929f336521b332c1681b933f6cb9f3376673440d862a6107ec813361103d565b6107f46110c9565b50565b61080133866109e4565b61081d5760405162461bcd60e51b81526004016105c690611feb565b61082c8585858585600161115c565b5050505050565b7f65d7a28e3265b37a6474929f336521b332c1681b933f6cb9f3376673440d862a61085e813361103d565b6107f461123f565b600082815260fb602052604081206105e39083611297565b600091825260c9602090815260408084206001600160a01b0393909316845291905290205460ff1690565b6108b4816000610b21565b6107f4816112a3565b60606036805461052190611f42565b61073e3384848460405180602001604052806000815250600161115c565b60006001600160a01b0383166109125760405162461bcd60e51b81526004016105c690611fa7565b6000339050610943818286866040518060200160405280600081525060405180602001604052806000815250610b52565b61096f818286866040518060200160405280600081525060405180602001604052806000815250610d06565b61099d8182868660405180602001604052806000815250604051806020016040528060008152506000610e78565b5060019392505050565b600081815260fb602052604081206104aa906113c1565b600082815260c960205260409020600101546109da813361103d565b61073e83836110b5565b6000816001600160a01b0316836001600160a01b03161480610a4f57506001600160a01b03831660009081526038602052604090205460ff168015610a4f57506001600160a01b038083166000908152603a602090815260408083209387168352929052205460ff16155b806105e35750506001600160a01b0390811660009081526039602090815260408083209490931682529290925290205460ff1690565b610a90816000610b21565b6107f4816113cb565b610aa333856109e4565b610abf5760405162461bcd60e51b81526004016105c690611feb565b610acb848484846114e7565b50505050565b6107bd338383604051806020016040528060008152506114e7565b60006001600160e01b03198216637965db0b60e01b14806104aa57506301ffc9a760e01b6001600160e01b03198316146104aa565b60655460ff16156107bd5760405162461bcd60e51b81526004016105c690611f7d565b60003361099d8185856116a8565b60405163555ddc6560e11b81526001600160a01b03861660048201527f29ddb589b1fb5fc7cf394961c1adf5f8c6454761adf795e67fe149f658abe8956024820152600090731820a4b7618bde71dce8cdc73aab6c95905fad249063aabbb8ca90604401602060405180830381865afa158015610bd3573d6000803e3d6000fd5b505050506040513d601f19601f82011682018060405250810190610bf79190612037565b90506001600160a01b03811615610c7157604051633ad5cbc160e11b81526001600160a01b038216906375ab978290610c3e908a908a908a908a908a908a90600401612054565b600060405180830381600087803b158015610c5857600080fd5b505af1158015610c6c573d6000803e3d6000fd5b505050505b50505050505050565b6001600160a01b038381166000908152603b60209081526040808320938616835292905220546000198114610acb5781811015610cf95760405162461bcd60e51b815260206004820152601e60248201527f4552433737373a20696e73756666696369656e7420616c6c6f77616e6365000060448201526064016105c6565b610acb84848484036116a8565b610d12868686866117cf565b6001600160a01b03851660009081526033602052604090205483811015610d8b5760405162461bcd60e51b815260206004820152602760248201527f4552433737373a207472616e7366657220616d6f756e7420657863656564732060448201526662616c616e636560c81b60648201526084016105c6565b6001600160a01b03808716600090815260336020526040808220878503905591871681529081208054869290610dc29084906120c4565b92505081905550846001600160a01b0316866001600160a01b0316886001600160a01b03167f06b541ddaa720db2b10a4d0cdac39b8d360425fc073085fac19bc82614677987878787604051610e1a939291906120dc565b60405180910390a4846001600160a01b0316866001600160a01b03167fddf252ad1be2c89b69c2b068fc378daa952ba7f163c4a11628f55a4df523b3ef86604051610e6791815260200190565b60405180910390a350505050505050565b60405163555ddc6560e11b81526001600160a01b03861660048201527fb281fc8c12954d22544db45de3159a39272895b169a852b314f9cc762e44c53b6024820152600090731820a4b7618bde71dce8cdc73aab6c95905fad249063aabbb8ca90604401602060405180830381865afa158015610ef9573d6000803e3d6000fd5b505050506040513d601f19601f82011682018060405250810190610f1d9190612037565b90506001600160a01b03811615610f99576040516223de2960e01b81526001600160a01b038216906223de2990610f62908b908b908b908b908b908b90600401612054565b600060405180830381600087803b158015610f7c57600080fd5b505af1158015610f90573d6000803e3d6000fd5b50505050611033565b8115611033576001600160a01b0386163b156110335760405162461bcd60e51b815260206004820152604d60248201527f4552433737373a20746f6b656e20726563697069656e7420636f6e747261637460448201527f20686173206e6f20696d706c656d656e74657220666f7220455243373737546f60648201526c1ad95b9cd49958da5c1a595b9d609a1b608482015260a4016105c6565b5050505050505050565b611047828261087e565b6107bd5761105f816001600160a01b031660146117f7565b61106a8360206117f7565b60405160200161107b929190612111565b60408051601f198184030181529082905262461bcd60e51b82526105c691600401611ba1565b6110ab8282610b21565b6107bd8282611993565b6110bf8282610b21565b6107bd82826109be565b60655460ff166111125760405162461bcd60e51b815260206004820152601460248201527314185d5cd8589b194e881b9bdd081c185d5cd95960621b60448201526064016105c6565b6065805460ff191690557f5db9ee0a495bf2e6ff9c91a7834c1ba4fdd244a5e8aa4e537bd38aeae4b073aa335b6040516001600160a01b03909116815260200160405180910390a1565b6001600160a01b0386166111bd5760405162461bcd60e51b815260206004820152602260248201527f4552433737373a2073656e642066726f6d20746865207a65726f206164647265604482015261737360f01b60648201526084016105c6565b6001600160a01b0385166112135760405162461bcd60e51b815260206004820181905260248201527f4552433737373a2073656e6420746f20746865207a65726f206164647265737360448201526064016105c6565b33611222818888888888610b52565b611230818888888888610d06565b610c7181888888888888610e78565b60655460ff16156112625760405162461bcd60e51b81526004016105c690611f7d565b6065805460ff191660011790557f62e78cea01bee320cd4e420270b5ea74000d11b0c9f74754ebdbfc544b05a25861113f3390565b60006105e383836119b5565b336001600160a01b03821614156113085760405162461bcd60e51b8152602060048201526024808201527f4552433737373a20617574686f72697a696e672073656c66206173206f70657260448201526330ba37b960e11b60648201526084016105c6565b6001600160a01b03811660009081526038602052604090205460ff161561135957336000908152603a602090815260408083206001600160a01b03851684529091529020805460ff19169055611388565b3360009081526039602090815260408083206001600160a01b03851684529091529020805460ff191660011790555b60405133906001600160a01b038316907ff4caeb2d6ca8932a215a353d0703c326ec2d81fc68170f320eb2ab49e9df61f990600090a350565b60006104aa825490565b6001600160a01b03811633141561142e5760405162461bcd60e51b815260206004820152602160248201527f4552433737373a207265766f6b696e672073656c66206173206f70657261746f6044820152603960f91b60648201526084016105c6565b6001600160a01b03811660009081526038602052604090205460ff161561148257336000908152603a602090815260408083206001600160a01b03851684529091529020805460ff191660011790556114ae565b3360009081526039602090815260408083206001600160a01b03851684529091529020805460ff191690555b60405133906001600160a01b038316907f50546e66e5f44d728365dc3908c63bc5cfeeab470722c1677e3073a6ac294aa190600090a350565b6001600160a01b0384166115485760405162461bcd60e51b815260206004820152602260248201527f4552433737373a206275726e2066726f6d20746865207a65726f206164647265604482015261737360f01b60648201526084016105c6565b3361155881866000878787610b52565b61156581866000876117cf565b6001600160a01b038516600090815260336020526040902054848110156115da5760405162461bcd60e51b815260206004820152602360248201527f4552433737373a206275726e20616d6f756e7420657863656564732062616c616044820152626e636560e81b60648201526084016105c6565b6001600160a01b0386166000908152603360205260408120868303905560348054879290611609908490612186565b92505081905550856001600160a01b0316826001600160a01b03167fa78a9be3a7b862d26933ad85fb11d80ef66b8f972d7cbba06621d583943a4098878787604051611657939291906120dc565b60405180910390a36040518581526000906001600160a01b038816907fddf252ad1be2c89b69c2b068fc378daa952ba7f163c4a11628f55a4df523b3ef9060200160405180910390a3505050505050565b6001600160a01b03831661170c5760405162461bcd60e51b815260206004820152602560248201527f4552433737373a20617070726f76652066726f6d20746865207a65726f206164604482015264647265737360d81b60648201526084016105c6565b6001600160a01b03821661176e5760405162461bcd60e51b815260206004820152602360248201527f4552433737373a20617070726f766520746f20746865207a65726f206164647260448201526265737360e81b60648201526084016105c6565b6001600160a01b038381166000818152603b602090815260408083209487168084529482529182902085905590518481527f8c5be1e5ebec7d5bd14f71427d1e84f3dd0314c0f7b2291e5b200ac8c7c3b925910160405180910390a3505050565b60655460ff16156117f25760405162461bcd60e51b81526004016105c690611f7d565b610acb565b6060600061180683600261219d565b6118119060026120c4565b67ffffffffffffffff81111561182957611829611c7f565b6040519080825280601f01601f191660200182016040528015611853576020820181803683370190505b509050600360fc1b8160008151811061186e5761186e6121bc565b60200101906001600160f81b031916908160001a905350600f60fb1b8160018151811061189d5761189d6121bc565b60200101906001600160f81b031916908160001a90535060006118c184600261219d565b6118cc9060016120c4565b90505b6001811115611944576f181899199a1a9b1b9c1cb0b131b232b360811b85600f1660108110611900576119006121bc565b1a60f81b828281518110611916576119166121bc565b60200101906001600160f81b031916908160001a90535060049490941c9361193d816121d2565b90506118cf565b5083156105e35760405162461bcd60e51b815260206004820181905260248201527f537472696e67733a20686578206c656e67746820696e73756666696369656e7460448201526064016105c6565b61199d82826119df565b600082815260fb6020526040902061073e9082611a65565b60008260000182815481106119cc576119cc6121bc565b9060005260206000200154905092915050565b6119e9828261087e565b6107bd57600082815260c9602090815260408083206001600160a01b03851684529091529020805460ff19166001179055611a213390565b6001600160a01b0316816001600160a01b0316837f2f8788117e7eff1d82e926ec794901d17c78024a50270940304540a733656f0d60405160405180910390a45050565b60006105e3836001600160a01b0384166000611a94838360009081526001919091016020526040902054151590565b611aca575081546001818101845560008481526020808220909301849055845484825282860190935260409020919091556104aa565b5060006104aa565b600060208284031215611ae457600080fd5b81356001600160e01b0319811681146105e357600080fd5b6020808252825182820181905260009190848201906040850190845b81811015611b3d5783516001600160a01b031683529284019291840191600101611b18565b50909695505050505050565b60005b83811015611b64578181015183820152602001611b4c565b83811115610acb5750506000910152565b60008151808452611b8d816020860160208601611b49565b601f01601f19169290920160200192915050565b6020815260006105e36020830184611b75565b6001600160a01b03811681146107f457600080fd5b60008060408385031215611bdc57600080fd5b8235611be781611bb4565b946020939093013593505050565b600080600060608486031215611c0a57600080fd5b8335611c1581611bb4565b92506020840135611c2581611bb4565b929592945050506040919091013590565b600060208284031215611c4857600080fd5b5035919050565b60008060408385031215611c6257600080fd5b823591506020830135611c7481611bb4565b809150509250929050565b634e487b7160e01b600052604160045260246000fd5b600082601f830112611ca657600080fd5b813567ffffffffffffffff80821115611cc157611cc1611c7f565b604051601f8301601f19908116603f01168101908282118183101715611ce957611ce9611c7f565b81604052838152866020858801011115611d0257600080fd5b836020870160208301376000602085830101528094505050505092915050565b600080600080600060a08688031215611d3a57600080fd5b8535611d4581611bb4565b94506020860135611d5581611bb4565b935060408601359250606086013567ffffffffffffffff80821115611d7957600080fd5b611d8589838a01611c95565b93506080880135915080821115611d9b57600080fd5b50611da888828901611c95565b9150509295509295909350565b600060208284031215611dc757600080fd5b81356105e381611bb4565b60008060408385031215611de557600080fd5b50508035926020909101359150565b600080600060608486031215611e0957600080fd5b8335611e1481611bb4565b925060208401359150604084013567ffffffffffffffff811115611e3757600080fd5b611e4386828701611c95565b9150509250925092565b60008060408385031215611e6057600080fd5b8235611e6b81611bb4565b91506020830135611c7481611bb4565b60008060008060808587031215611e9157600080fd5b8435611e9c81611bb4565b935060208501359250604085013567ffffffffffffffff80821115611ec057600080fd5b611ecc88838901611c95565b93506060870135915080821115611ee257600080fd5b50611eef87828801611c95565b91505092959194509250565b60008060408385031215611f0e57600080fd5b82359150602083013567ffffffffffffffff811115611f2c57600080fd5b611f3885828601611c95565b9150509250929050565b600181811c90821680611f5657607f821691505b60208210811415611f7757634e487b7160e01b600052602260045260246000fd5b50919050565b60208082526010908201526f14185d5cd8589b194e881c185d5cd95960821b604082015260600190565b60208082526024908201527f4552433737373a207472616e7366657220746f20746865207a65726f206164646040820152637265737360e01b606082015260800190565b6020808252602c908201527f4552433737373a2063616c6c6572206973206e6f7420616e206f70657261746f60408201526b39103337b9103437b63232b960a11b606082015260800190565b60006020828403121561204957600080fd5b81516105e381611bb4565b6001600160a01b0387811682528681166020830152851660408201526060810184905260c06080820181905260009061208f90830185611b75565b82810360a08401526120a18185611b75565b9998505050505050505050565b634e487b7160e01b600052601160045260246000fd5b600082198211156120d7576120d76120ae565b500190565b8381526060602082015260006120f56060830185611b75565b82810360408401526121078185611b75565b9695505050505050565b7f416363657373436f6e74726f6c3a206163636f756e7420000000000000000000815260008351612149816017850160208801611b49565b7001034b99036b4b9b9b4b733903937b6329607d1b601791840191820152835161217a816028840160208801611b49565b01602801949350505050565b600082821015612198576121986120ae565b500390565b60008160001904831182151516156121b7576121b76120ae565b500290565b634e487b7160e01b600052603260045260246000fd5b6000816121e1576121e16120ae565b50600019019056fea2646970667358221220ed5506968700f635b06562b1dc171ed64c15d062e012751a7d7b821283a0fb4964736f6c634300080a0033",
  "linkReferences": {},
  "deployedLinkReferences": {}
}