{
  "_format": "hh-sol-artifact-1",
  "contractName": "PermitSigner",
  "sourceName": "contracts/test/PermitSigner.sol",
  "abi": [
    {
      "inputs": [
        {
          "internalType": "address",
          "name": "token",
          "type": "address"
        },
        {
          "internalType": "address",
          "name": "spender",
          "type": "address"
        },
        {
          "internalType": "uint256",
          "name": "value",
          "type": "uint256"
        },
        {
          "internalType": "uint256",
          "name": "deadline",
          "type": "uint256"
        }
      ],
      "name": "digestPermitCall",
      "outputs": [
        {
          "internalType": "bytes32",
          "name": "digest",
          "type": "bytes32"
        }
      ],
      "stateMutability": "nonpayable",
      "type": "function"
    }
  ],
  "bytecode": "0x60808060405234610016576106c9908161001c8239f35b600080fdfe608060408181526004908136101561001657600080fd5b600091823560e01c6383c7219b1461002d57600080fd5b346102fe5760807ffffffffffffffffffffffffffffffffffffffffffffffffffffffffffffffffc3601126102fe5780359373ffffffffffffffffffffffffffffffffffffffff908186168096036102fa57602435958287168097036102f6577f3644e51500000000000000000000000000000000000000000000000000000000825260209687838681855afa92831561028d5787936102c3575b508551610321938482019067ffffffffffffffff9583831087841117610297579183918c936103738439815203019088f091821561028d57886024918851928380927f7ecebe00000000000000000000000000000000000000000000000000000000008252338b8301525afa908115610283578891610252575b5086519360a085019081118582101761022657928594928a969260a4958a5233855287850191825289850160443581526060860191825284608087019360643585528c519b8c9a8b997fba20b89d000000000000000000000000000000000000000000000000000000008b5251169089015251166024870152516044860152516064850152516084840152165afa92831561021b5780936101e6575b505051908152f35b909192508382813d8311610214575b6101ff8183610302565b810103126102115750519038806101de565b80fd5b503d6101f5565b8251903d90823e3d90fd5b6024896041897f4e487b7100000000000000000000000000000000000000000000000000000000835252fd5b90508881813d831161027c575b6102698183610302565b81010312610278575138610142565b8780fd5b503d61025f565b87513d8a823e3d90fd5b86513d89823e3d90fd5b60248b60418b7f4e487b7100000000000000000000000000000000000000000000000000000000835252fd5b9092508781813d83116102ef575b6102db8183610302565b810103126102eb575191386100c8565b8680fd5b503d6102d1565b8580fd5b8480fd5b8280fd5b90601f7fffffffffffffffffffffffffffffffffffffffffffffffffffffffffffffffe0910116810190811067ffffffffffffffff82111761034357604052565b7f4e487b7100000000000000000000000000000000000000000000000000000000600052604160045260246000fdfe60803461005157601f61032138819003918201601f19168301916001600160401b038311848410176100565780849260209460405283398101031261005157516000556040516102b4908161006d8239f35b600080fd5b634e487b7160e01b600052604160045260246000fdfe6080604090808252600436101561001557600080fd5b600090813560e01c90816330adf81f14610222575063ba20b89d1461003957600080fd5b3461021f5760a07ffffffffffffffffffffffffffffffffffffffffffffffffffffffffffffffffc36011261021f57815167ffffffffffffffff9160a08201838111838210176101f25784526004359073ffffffffffffffffffffffffffffffffffffffff808316928381036101ee578452602435908116908181036101ee576020850152608060443594858882015260643590816060820152608435928391015283549588519360208501967f6e71edae12b1b97f4d1f60370fef10105fa2faae0126114a169c64845d6126c988528a8601526060850152608084015260a083015260c082015260c0815260e0810192818410868511176101c1579061016091848852815190206101008201957f1901000000000000000000000000000000000000000000000000000000000000875261010283015261012282015260428452019382851090851117610194575082602094525190208152f35b807f4e487b7100000000000000000000000000000000000000000000000000000000602492526041600452fd5b6024837f4e487b710000000000000000000000000000000000000000000000000000000081526041600452fd5b8280fd5b6024827f4e487b710000000000000000000000000000000000000000000000000000000081526041600452fd5b80fd5b90503461027a57817ffffffffffffffffffffffffffffffffffffffffffffffffffffffffffffffffc36011261027a57807f6e71edae12b1b97f4d1f60370fef10105fa2faae0126114a169c64845d6126c960209252f35b5080fdfea2646970667358221220ebeea4cd29751bce55fd39a3e3c2fcf8b177dbe13c9743d1ff1c0fa2011225c964736f6c634300080f0033a26469706673582212205034267e08eab46f7cca5130cda1feaee8696e25eb4544a3a9004e7ff2df42c364736f6c634300080f0033",
  "linkReferences": {},
  "deployedLinkReferences": {}
}