{
  "address": "0x9A7833C90bB3577730Bbc5d5b669aF63bdB3cd46",
  "abi": [
    {
      "inputs": [],
      "stateMutability": "nonpayable",
      "type": "constructor"
    },
    {
      "inputs": [],
      "name": "ApprovalCallerNotOwnerNorApproved",
      "type": "error"
    },
    {
      "inputs": [],
      "name": "ApprovalQueryForNonexistentToken",
      "type": "error"
    },
    {
      "inputs": [],
      "name": "ApproveToCaller",
      "type": "error"
    },
    {
      "inputs": [
        {
          "internalType": "string",
          "name": "array1Name",
          "type": "string"
        },
        {
          "internalType": "string",
          "name": "array2Name",
          "type": "string"
        }
      ],
      "name": "ArrayLengthMismatch",
      "type": "error"
    },
    {
      "inputs": [],
      "name": "BalanceQueryForZeroAddress",
      "type": "error"
    },
    {
      "inputs": [],
      "name": "ForbiddenTransferAfterMinting",
      "type": "error"
    },
    {
      "inputs": [],
      "name": "FunctionDisabled",
      "type": "error"
    },
    {
      "inputs": [],
      "name": "InvalidQueryRange",
      "type": "error"
    },
    {
      "inputs": [],
      "name": "MintERC2309QuantityExceedsLimit",
      "type": "error"
    },
    {
      "inputs": [],
      "name": "MintToZeroAddress",
      "type": "error"
    },
    {
      "inputs": [],
      "name": "MintZeroQuantity",
      "type": "error"
    },
    {
      "inputs": [],
      "name": "OwnerQueryForNonexistentToken",
      "type": "error"
    },
    {
      "inputs": [],
      "name": "OwnershipNotInitializedForExtraData",
      "type": "error"
    },
    {
      "inputs": [],
      "name": "SenderNotRemovalContract",
      "type": "error"
    },
    {
      "inputs": [],
      "name": "TransferCallerNotOwnerNorApproved",
      "type": "error"
    },
    {
      "inputs": [],
      "name": "TransferFromIncorrectOwner",
      "type": "error"
    },
    {
      "inputs": [],
      "name": "TransferToNonERC721ReceiverImplementer",
      "type": "error"
    },
    {
      "inputs": [],
      "name": "TransferToZeroAddress",
      "type": "error"
    },
    {
      "inputs": [],
      "name": "URIQueryForNonexistentToken",
      "type": "error"
    },
    {
      "anonymous": false,
      "inputs": [
        {
          "indexed": true,
          "internalType": "address",
          "name": "owner",
          "type": "address"
        },
        {
          "indexed": true,
          "internalType": "address",
          "name": "approved",
          "type": "address"
        },
        {
          "indexed": true,
          "internalType": "uint256",
          "name": "tokenId",
          "type": "uint256"
        }
      ],
      "name": "Approval",
      "type": "event"
    },
    {
      "anonymous": false,
      "inputs": [
        {
          "indexed": true,
          "internalType": "address",
          "name": "owner",
          "type": "address"
        },
        {
          "indexed": true,
          "internalType": "address",
          "name": "operator",
          "type": "address"
        },
        {
          "indexed": false,
          "internalType": "bool",
          "name": "approved",
          "type": "bool"
        }
      ],
      "name": "ApprovalForAll",
      "type": "event"
    },
    {
      "anonymous": false,
      "inputs": [
        {
          "indexed": true,
          "internalType": "uint256",
          "name": "fromTokenId",
          "type": "uint256"
        },
        {
          "indexed": false,
          "internalType": "uint256",
          "name": "toTokenId",
          "type": "uint256"
        },
        {
          "indexed": true,
          "internalType": "address",
          "name": "from",
          "type": "address"
        },
        {
          "indexed": true,
          "internalType": "address",
          "name": "to",
          "type": "address"
        }
      ],
      "name": "ConsecutiveTransfer",
      "type": "event"
    },
    {
      "anonymous": false,
      "inputs": [
        {
          "indexed": false,
          "internalType": "address",
          "name": "from",
          "type": "address"
        },
        {
          "indexed": true,
          "internalType": "address",
          "name": "recipient",
          "type": "address"
        },
        {
          "indexed": true,
          "internalType": "uint256",
          "name": "certificateId",
          "type": "uint256"
        },
        {
          "indexed": false,
          "internalType": "uint256",
          "name": "certificateAmount",
          "type": "uint256"
        },
        {
          "indexed": false,
          "internalType": "uint256[]",
          "name": "removalIds",
          "type": "uint256[]"
        },
        {
          "indexed": false,
          "internalType": "uint256[]",
          "name": "removalAmounts",
          "type": "uint256[]"
        },
        {
          "indexed": true,
          "internalType": "address",
          "name": "purchasingTokenAddress",
          "type": "address"
        },
        {
          "indexed": false,
          "internalType": "uint256",
          "name": "priceMultiple",
          "type": "uint256"
        },
        {
          "indexed": false,
          "internalType": "uint256",
          "name": "noriFeePercentage",
          "type": "uint256"
        }
      ],
      "name": "CreateCertificate",
      "type": "event"
    },
    {
      "anonymous": false,
      "inputs": [
        {
          "indexed": false,
          "internalType": "uint8",
          "name": "version",
          "type": "uint8"
        }
      ],
      "name": "Initialized",
      "type": "event"
    },
    {
      "anonymous": false,
      "inputs": [
        {
          "indexed": false,
          "internalType": "address",
          "name": "account",
          "type": "address"
        }
      ],
      "name": "Paused",
      "type": "event"
    },
    {
      "anonymous": false,
      "inputs": [
        {
          "indexed": false,
          "internalType": "contract IRemoval",
          "name": "removal",
          "type": "address"
        }
      ],
      "name": "RegisterContractAddresses",
      "type": "event"
    },
    {
      "anonymous": false,
      "inputs": [
        {
          "indexed": true,
          "internalType": "bytes32",
          "name": "role",
          "type": "bytes32"
        },
        {
          "indexed": true,
          "internalType": "bytes32",
          "name": "previousAdminRole",
          "type": "bytes32"
        },
        {
          "indexed": true,
          "internalType": "bytes32",
          "name": "newAdminRole",
          "type": "bytes32"
        }
      ],
      "name": "RoleAdminChanged",
      "type": "event"
    },
    {
      "anonymous": false,
      "inputs": [
        {
          "indexed": true,
          "internalType": "bytes32",
          "name": "role",
          "type": "bytes32"
        },
        {
          "indexed": true,
          "internalType": "address",
          "name": "account",
          "type": "address"
        },
        {
          "indexed": true,
          "internalType": "address",
          "name": "sender",
          "type": "address"
        }
      ],
      "name": "RoleGranted",
      "type": "event"
    },
    {
      "anonymous": false,
      "inputs": [
        {
          "indexed": true,
          "internalType": "bytes32",
          "name": "role",
          "type": "bytes32"
        },
        {
          "indexed": true,
          "internalType": "address",
          "name": "account",
          "type": "address"
        },
        {
          "indexed": true,
          "internalType": "address",
          "name": "sender",
          "type": "address"
        }
      ],
      "name": "RoleRevoked",
      "type": "event"
    },
    {
      "anonymous": false,
      "inputs": [
        {
          "indexed": true,
          "internalType": "address",
          "name": "from",
          "type": "address"
        },
        {
          "indexed": true,
          "internalType": "address",
          "name": "to",
          "type": "address"
        },
        {
          "indexed": true,
          "internalType": "uint256",
          "name": "tokenId",
          "type": "uint256"
        }
      ],
      "name": "Transfer",
      "type": "event"
    },
    {
      "anonymous": false,
      "inputs": [
        {
          "indexed": false,
          "internalType": "address",
          "name": "account",
          "type": "address"
        }
      ],
      "name": "Unpaused",
      "type": "event"
    },
    {
      "inputs": [],
      "name": "CERTIFICATE_OPERATOR_ROLE",
      "outputs": [
        {
          "internalType": "bytes32",
          "name": "",
          "type": "bytes32"
        }
      ],
      "stateMutability": "view",
      "type": "function"
    },
    {
      "inputs": [],
      "name": "DEFAULT_ADMIN_ROLE",
      "outputs": [
        {
          "internalType": "bytes32",
          "name": "",
          "type": "bytes32"
        }
      ],
      "stateMutability": "view",
      "type": "function"
    },
    {
      "inputs": [],
      "name": "PAUSER_ROLE",
      "outputs": [
        {
          "internalType": "bytes32",
          "name": "",
          "type": "bytes32"
        }
      ],
      "stateMutability": "view",
      "type": "function"
    },
    {
      "inputs": [
        {
          "internalType": "address",
          "name": "",
          "type": "address"
        },
        {
          "internalType": "uint256",
          "name": "",
          "type": "uint256"
        }
      ],
      "name": "approve",
      "outputs": [],
      "stateMutability": "pure",
      "type": "function"
    },
    {
      "inputs": [
        {
          "internalType": "address",
          "name": "owner",
          "type": "address"
        }
      ],
      "name": "balanceOf",
      "outputs": [
        {
          "internalType": "uint256",
          "name": "",
          "type": "uint256"
        }
      ],
      "stateMutability": "view",
      "type": "function"
    },
    {
      "inputs": [
        {
          "internalType": "uint256",
          "name": "tokenId",
          "type": "uint256"
        }
      ],
      "name": "burn",
      "outputs": [],
      "stateMutability": "nonpayable",
      "type": "function"
    },
    {
      "inputs": [
        {
          "internalType": "uint256",
          "name": "tokenId",
          "type": "uint256"
        }
      ],
      "name": "explicitOwnershipOf",
      "outputs": [
        {
          "components": [
            {
              "internalType": "address",
              "name": "addr",
              "type": "address"
            },
            {
              "internalType": "uint64",
              "name": "startTimestamp",
              "type": "uint64"
            },
            {
              "internalType": "bool",
              "name": "burned",
              "type": "bool"
            },
            {
              "internalType": "uint24",
              "name": "extraData",
              "type": "uint24"
            }
          ],
          "internalType": "struct IERC721AUpgradeable.TokenOwnership",
          "name": "",
          "type": "tuple"
        }
      ],
      "stateMutability": "view",
      "type": "function"
    },
    {
      "inputs": [
        {
          "internalType": "uint256[]",
          "name": "tokenIds",
          "type": "uint256[]"
        }
      ],
      "name": "explicitOwnershipsOf",
      "outputs": [
        {
          "components": [
            {
              "internalType": "address",
              "name": "addr",
              "type": "address"
            },
            {
              "internalType": "uint64",
              "name": "startTimestamp",
              "type": "uint64"
            },
            {
              "internalType": "bool",
              "name": "burned",
              "type": "bool"
            },
            {
              "internalType": "uint24",
              "name": "extraData",
              "type": "uint24"
            }
          ],
          "internalType": "struct IERC721AUpgradeable.TokenOwnership[]",
          "name": "",
          "type": "tuple[]"
        }
      ],
      "stateMutability": "view",
      "type": "function"
    },
    {
      "inputs": [
        {
          "internalType": "uint256",
          "name": "tokenId",
          "type": "uint256"
        }
      ],
      "name": "getApproved",
      "outputs": [
        {
          "internalType": "address",
          "name": "",
          "type": "address"
        }
      ],
      "stateMutability": "view",
      "type": "function"
    },
    {
      "inputs": [],
      "name": "getNrtDeficit",
      "outputs": [
        {
          "internalType": "uint256",
          "name": "",
          "type": "uint256"
        }
      ],
      "stateMutability": "view",
      "type": "function"
    },
    {
      "inputs": [
        {
          "internalType": "uint256",
          "name": "certificateId",
          "type": "uint256"
        }
      ],
      "name": "getPurchaseAmount",
      "outputs": [
        {
          "internalType": "uint256",
          "name": "",
          "type": "uint256"
        }
      ],
      "stateMutability": "view",
      "type": "function"
    },
    {
      "inputs": [],
      "name": "getRemovalAddress",
      "outputs": [
        {
          "internalType": "address",
          "name": "",
          "type": "address"
        }
      ],
      "stateMutability": "view",
      "type": "function"
    },
    {
      "inputs": [
        {
          "internalType": "bytes32",
          "name": "role",
          "type": "bytes32"
        }
      ],
      "name": "getRoleAdmin",
      "outputs": [
        {
          "internalType": "bytes32",
          "name": "",
          "type": "bytes32"
        }
      ],
      "stateMutability": "view",
      "type": "function"
    },
    {
      "inputs": [
        {
          "internalType": "bytes32",
          "name": "role",
          "type": "bytes32"
        },
        {
          "internalType": "uint256",
          "name": "index",
          "type": "uint256"
        }
      ],
      "name": "getRoleMember",
      "outputs": [
        {
          "internalType": "address",
          "name": "",
          "type": "address"
        }
      ],
      "stateMutability": "view",
      "type": "function"
    },
    {
      "inputs": [
        {
          "internalType": "bytes32",
          "name": "role",
          "type": "bytes32"
        }
      ],
      "name": "getRoleMemberCount",
      "outputs": [
        {
          "internalType": "uint256",
          "name": "",
          "type": "uint256"
        }
      ],
      "stateMutability": "view",
      "type": "function"
    },
    {
      "inputs": [
        {
          "internalType": "bytes32",
          "name": "role",
          "type": "bytes32"
        },
        {
          "internalType": "address",
          "name": "account",
          "type": "address"
        }
      ],
      "name": "grantRole",
      "outputs": [],
      "stateMutability": "nonpayable",
      "type": "function"
    },
    {
      "inputs": [
        {
          "internalType": "bytes32",
          "name": "role",
          "type": "bytes32"
        },
        {
          "internalType": "address",
          "name": "account",
          "type": "address"
        }
      ],
      "name": "hasRole",
      "outputs": [
        {
          "internalType": "bool",
          "name": "",
          "type": "bool"
        }
      ],
      "stateMutability": "view",
      "type": "function"
    },
    {
      "inputs": [
        {
          "internalType": "uint256",
          "name": "amount",
          "type": "uint256"
        }
      ],
      "name": "incrementNrtDeficit",
      "outputs": [],
      "stateMutability": "nonpayable",
      "type": "function"
    },
    {
      "inputs": [
        {
          "internalType": "string",
          "name": "baseURI",
          "type": "string"
        }
      ],
      "name": "initialize",
      "outputs": [],
      "stateMutability": "nonpayable",
      "type": "function"
    },
    {
      "inputs": [
        {
          "internalType": "address",
          "name": "owner",
          "type": "address"
        },
        {
          "internalType": "address",
          "name": "operator",
          "type": "address"
        }
      ],
      "name": "isApprovedForAll",
      "outputs": [
        {
          "internalType": "bool",
          "name": "",
          "type": "bool"
        }
      ],
      "stateMutability": "view",
      "type": "function"
    },
    {
      "inputs": [
        {
          "internalType": "bytes[]",
          "name": "data",
          "type": "bytes[]"
        }
      ],
      "name": "multicall",
      "outputs": [
        {
          "internalType": "bytes[]",
          "name": "results",
          "type": "bytes[]"
        }
      ],
      "stateMutability": "nonpayable",
      "type": "function"
    },
    {
      "inputs": [],
      "name": "name",
      "outputs": [
        {
          "internalType": "string",
          "name": "",
          "type": "string"
        }
      ],
      "stateMutability": "view",
      "type": "function"
    },
    {
      "inputs": [
        {
          "internalType": "address",
          "name": "",
          "type": "address"
        },
        {
          "internalType": "address",
          "name": "",
          "type": "address"
        },
        {
          "internalType": "uint256[]",
          "name": "removalIds",
          "type": "uint256[]"
        },
        {
          "internalType": "uint256[]",
          "name": "removalAmounts",
          "type": "uint256[]"
        },
        {
          "internalType": "bytes",
          "name": "data",
          "type": "bytes"
        }
      ],
      "name": "onERC1155BatchReceived",
      "outputs": [
        {
          "internalType": "bytes4",
          "name": "",
          "type": "bytes4"
        }
      ],
      "stateMutability": "nonpayable",
      "type": "function"
    },
    {
      "inputs": [
        {
          "internalType": "uint256",
          "name": "tokenId",
          "type": "uint256"
        }
      ],
      "name": "ownerOf",
      "outputs": [
        {
          "internalType": "address",
          "name": "",
          "type": "address"
        }
      ],
      "stateMutability": "view",
      "type": "function"
    },
    {
      "inputs": [],
      "name": "pause",
      "outputs": [],
      "stateMutability": "nonpayable",
      "type": "function"
    },
    {
      "inputs": [],
      "name": "paused",
      "outputs": [
        {
          "internalType": "bool",
          "name": "",
          "type": "bool"
        }
      ],
      "stateMutability": "view",
      "type": "function"
    },
    {
      "inputs": [
        {
          "internalType": "contract IRemoval",
          "name": "removal",
          "type": "address"
        }
      ],
      "name": "registerContractAddresses",
      "outputs": [],
      "stateMutability": "nonpayable",
      "type": "function"
    },
    {
      "inputs": [
        {
          "internalType": "bytes32",
          "name": "role",
          "type": "bytes32"
        },
        {
          "internalType": "address",
          "name": "account",
          "type": "address"
        }
      ],
      "name": "renounceRole",
      "outputs": [],
      "stateMutability": "nonpayable",
      "type": "function"
    },
    {
      "inputs": [
        {
          "internalType": "bytes32",
          "name": "role",
          "type": "bytes32"
        },
        {
          "internalType": "address",
          "name": "account",
          "type": "address"
        }
      ],
      "name": "revokeRole",
      "outputs": [],
      "stateMutability": "nonpayable",
      "type": "function"
    },
    {
      "inputs": [
        {
          "internalType": "address",
          "name": "from",
          "type": "address"
        },
        {
          "internalType": "address",
          "name": "to",
          "type": "address"
        },
        {
          "internalType": "uint256",
          "name": "tokenId",
          "type": "uint256"
        }
      ],
      "name": "safeTransferFrom",
      "outputs": [],
      "stateMutability": "nonpayable",
      "type": "function"
    },
    {
      "inputs": [
        {
          "internalType": "address",
          "name": "from",
          "type": "address"
        },
        {
          "internalType": "address",
          "name": "to",
          "type": "address"
        },
        {
          "internalType": "uint256",
          "name": "tokenId",
          "type": "uint256"
        },
        {
          "internalType": "bytes",
          "name": "_data",
          "type": "bytes"
        }
      ],
      "name": "safeTransferFrom",
      "outputs": [],
      "stateMutability": "nonpayable",
      "type": "function"
    },
    {
      "inputs": [
        {
          "internalType": "address",
          "name": "",
          "type": "address"
        },
        {
          "internalType": "bool",
          "name": "",
          "type": "bool"
        }
      ],
      "name": "setApprovalForAll",
      "outputs": [],
      "stateMutability": "pure",
      "type": "function"
    },
    {
      "inputs": [
        {
          "internalType": "bytes4",
          "name": "interfaceId",
          "type": "bytes4"
        }
      ],
      "name": "supportsInterface",
      "outputs": [
        {
          "internalType": "bool",
          "name": "",
          "type": "bool"
        }
      ],
      "stateMutability": "view",
      "type": "function"
    },
    {
      "inputs": [],
      "name": "symbol",
      "outputs": [
        {
          "internalType": "string",
          "name": "",
          "type": "string"
        }
      ],
      "stateMutability": "view",
      "type": "function"
    },
    {
      "inputs": [
        {
          "internalType": "uint256",
          "name": "tokenId",
          "type": "uint256"
        }
      ],
      "name": "tokenURI",
      "outputs": [
        {
          "internalType": "string",
          "name": "",
          "type": "string"
        }
      ],
      "stateMutability": "view",
      "type": "function"
    },
    {
      "inputs": [
        {
          "internalType": "address",
          "name": "owner",
          "type": "address"
        }
      ],
      "name": "tokensOfOwner",
      "outputs": [
        {
          "internalType": "uint256[]",
          "name": "",
          "type": "uint256[]"
        }
      ],
      "stateMutability": "view",
      "type": "function"
    },
    {
      "inputs": [
        {
          "internalType": "address",
          "name": "owner",
          "type": "address"
        },
        {
          "internalType": "uint256",
          "name": "start",
          "type": "uint256"
        },
        {
          "internalType": "uint256",
          "name": "stop",
          "type": "uint256"
        }
      ],
      "name": "tokensOfOwnerIn",
      "outputs": [
        {
          "internalType": "uint256[]",
          "name": "",
          "type": "uint256[]"
        }
      ],
      "stateMutability": "view",
      "type": "function"
    },
    {
      "inputs": [],
      "name": "totalMinted",
      "outputs": [
        {
          "internalType": "uint256",
          "name": "",
          "type": "uint256"
        }
      ],
      "stateMutability": "view",
      "type": "function"
    },
    {
      "inputs": [],
      "name": "totalSupply",
      "outputs": [
        {
          "internalType": "uint256",
          "name": "",
          "type": "uint256"
        }
      ],
      "stateMutability": "view",
      "type": "function"
    },
    {
      "inputs": [
        {
          "internalType": "address",
          "name": "from",
          "type": "address"
        },
        {
          "internalType": "address",
          "name": "to",
          "type": "address"
        },
        {
          "internalType": "uint256",
          "name": "tokenId",
          "type": "uint256"
        }
      ],
      "name": "transferFrom",
      "outputs": [],
      "stateMutability": "nonpayable",
      "type": "function"
    },
    {
      "inputs": [],
      "name": "unpause",
      "outputs": [],
      "stateMutability": "nonpayable",
      "type": "function"
    }
  ],
  "numDeployments": 1,
  "bytecode": "0x60808060405234620000c6576000549060ff8260081c1662000074575060ff8082161062000038575b604051613e269081620000cc8239f35b60ff90811916176000557f7f26b83ff96e1f2b6a682f133852f6798a09c465da95921460cefb3847402498602060405160ff8152a13862000028565b62461bcd60e51b815260206004820152602760248201527f496e697469616c697a61626c653a20636f6e747261637420697320696e697469604482015266616c697a696e6760c81b6064820152608490fd5b600080fdfe60806040526004361015610013575b600080fd5b60003560e01c806301ffc9a71461034757806306fdde031461033e578063081812fc14610335578063095ea7b31461032c57806318160ddd1461032357806323b872dd1461031a578063248a9ca31461031157806326c6da4f146103085780632f2ff15d146102ff57806336568abe146102f65780633f4ba83a146102ed57806342842e0e146102e457806342966c68146102db5780634b66f665146102d25780635bbb2177146102c95780635c975abb146102c05780636352211e146102b757806370a08231146102ae57806379fcc08a146102a55780638456cb591461029c5780638462151c146102935780639010d07c1461028a57806391d148541461028157806395d89b411461027857806399a2557a1461026f578063a217fddf14610266578063a22cb4651461025d578063a2309ff814610254578063ac9650d81461024b578063b88d4fde14610242578063bc197c8114610239578063c23dc68f14610230578063c87b56dd14610227578063ca15c8731461021e578063d2f3ea4314610215578063d547741f1461020c578063dd39c75014610203578063e63ab1e9146101fa578063e985e9c5146101f1578063f62d1888146101e85763fc641373146101e057600080fd5b61000e611b2b565b5061000e6119c3565b5061000e611956565b5061000e61191a565b5061000e6118fa565b5061000e61180d565b5061000e6117df565b5061000e6117b2565b5061000e61166b565b5061000e611605565b5061000e611548565b5061000e6114df565b5061000e61136d565b5061000e6112df565b5061000e6112a5565b5061000e61127b565b5061000e61123e565b5061000e611175565b5061000e61111d565b5061000e6110d6565b5061000e611017565b5061000e610f81565b5061000e610f22565b5061000e610ef2565b5061000e610ec2565b5061000e610e9e565b5061000e610de9565b5061000e610ce0565b5061000e610a57565b5061000e610a0f565b5061000e610971565b5061000e610825565b5061000e61071e565b5061000e6106e2565b5061000e6106b2565b5061000e610698565b5061000e61061c565b5061000e6105ed565b5061000e610567565b5061000e61045d565b5061000e610362565b6001600160e01b031981160361000e57565b503461000e57602036600319011261000e57602060043561038281610350565b63ffffffff60e01b16635a05180f60e01b81149081156103d8575b81156103c7575b81156103b6575b506040519015158152f35b635b5e139f60e01b149050386103ab565b6380ac58cd60e01b811491506103a4565b9050637965db0b60e01b811480156103f1575b9061039d565b506301ffc9a760e01b81146103eb565b60005b8381106104145750506000910152565b8181015183820152602001610404565b9060209161043d81518092818552858086019101610401565b601f01601f1916010190565b90602061045a928181520190610424565b90565b503461000e576000806003193601126105645760405190807f2569078dfb4b0305704d3008e7403993ae9601b85f7ae5e742de3de8f8011c42908154906104a38261289a565b8086529260019280841690811561053757506001146104dd575b6104d9866104cd8188038261145b565b60405191829182610449565b0390f35b815292507f933ecf8acb7824b680a8d16f3ff3db8864228d986aa4c2ebab1eeb2703b4beb35b82841061051f5750505081016020016104cd826104d9386104bd565b80546020858701810191909152909301928101610503565b90508695506104d9969350602092506104cd94915060ff191682840152151560051b8201019293386104bd565b80fd5b503461000e57602036600319011261000e5760043561058581613500565b156105ca576000527f2569078dfb4b0305704d3008e7403993ae9601b85f7ae5e742de3de8f8011c4660205260206001600160a01b0360406000205416604051908152f35b6040516333d1c03960e21b8152600490fd5b6001600160a01b0381160361000e57565b503461000e57604036600319011261000e5761060a6004356105dc565b6040516317e4829160e31b8152600490fd5b503461000e57600036600319011261000e576020600080516020613db1833981519152547f2569078dfb4b0305704d3008e7403993ae9601b85f7ae5e742de3de8f8011c41549003604051908152f35b606090600319011261000e57600435610684816105dc565b90602435610691816105dc565b9060443590565b503461000e576106b06106aa3661066c565b91613543565b005b503461000e57602036600319011261000e5760043560005260c96020526020600160406000200154604051908152f35b503461000e57600036600319011261000e5760206040517fb6eeb50d1ea0d876d560efb18b8017323347ce323ef4b05d5a0322c9c7869f8f8152f35b503461000e57604036600319011261000e576004356107ae602435610742816105dc565b6107a960009380855260c96020526107606001604087200154611ce5565b610768612303565b80855260c960205260ff6107928460408820906001600160a01b0316600052602052604060002090565b5416156107b25760005260fb602052604060002090565b612572565b5080f35b80855260c96020526107da8360408720906001600160a01b0316600052602052604060002090565b805460ff19166001179055336001600160a01b038416827f2f8788117e7eff1d82e926ec794901d17c78024a50270940304540a733656f0d8880a460005260fb602052604060002090565b503461000e57604036600319011261000e57602435600435610846826105dc565b6001600160a01b03821691338303610906576107ae91610864612303565b60009381855260c960205260ff6108918460408820906001600160a01b0316600052602052604060002090565b54166108a9575b50835260fb6020526040832061262a565b81855260c96020526108d18360408720906001600160a01b0316600052602052604060002090565b805460ff191690553390827ff6391f5c32d9c69d2a47ea670b442974b53935d1edc7fd64eb21e047a839171b8780a438610898565b60405162461bcd60e51b815260206004820152602f60248201527f416363657373436f6e74726f6c3a2063616e206f6e6c792072656e6f756e636560448201527f20726f6c657320666f722073656c6600000000000000000000000000000000006064820152608490fd5b503461000e57600036600319011261000e5761098b611c90565b60655460ff8116156109ca5760ff19166065557f5db9ee0a495bf2e6ff9c91a7834c1ba4fdd244a5e8aa4e537bd38aeae4b073aa6020604051338152a1005b60405162461bcd60e51b815260206004820152601460248201527f5061757361626c653a206e6f74207061757365640000000000000000000000006044820152606490fd5b503461000e576106b0610a213661066c565b90604051926020840184811067ffffffffffffffff821117610a4a575b60405260008452613897565b610a5261141b565b610a3e565b503461000e57602036600319011261000e57600435610a7581613476565b6001600160a01b038116610ab5836000527f2569078dfb4b0305704d3008e7403993ae9601b85f7ae5e742de3de8f8011c46602052604060002090815490565b9290610ad46001600160a01b03841633908114908614171590565b1590565b610c64575b600093610ae5846137ab565b610c5b575b50610b27826001600160a01b03166000527f2569078dfb4b0305704d3008e7403993ae9601b85f7ae5e742de3de8f8011c45602052604060002090565b80546fffffffffffffffffffffffffffffffff0190556000848152600080516020613dd1833981519152602052604090204260a01b8317600360e01b179055600160e11b811615610bea575b507fddf252ad1be2c89b69c2b068fc378daa952ba7f163c4a11628f55a4df523b3ef8280a46106b0610bc67f2569078dfb4b0305704d3008e7403993ae9601b85f7ae5e742de3de8f8011c415460010190565b7f2569078dfb4b0305704d3008e7403993ae9601b85f7ae5e742de3de8f8011c4155565b60018401610c0f81600052600080516020613dd1833981519152602052604060002090565b5415610c1c575b50610b73565b600080516020613db1833981519152548114610c1657610c5390600052600080516020613dd1833981519152602052604060002090565b553880610c16565b83905538610aea565b610cc9610ad0610cc233610caa876001600160a01b03166000527f2569078dfb4b0305704d3008e7403993ae9601b85f7ae5e742de3de8f8011c47602052604060002090565b906001600160a01b0316600052602052604060002090565b5460ff1690565b15610ad957604051632ce44b5f60e11b8152600490fd5b503461000e57600036600319011261000e5760206001600160a01b0361012f5416604051908152f35b9181601f8401121561000e5782359167ffffffffffffffff831161000e576020808501948460051b01011161000e57565b602060031982011261000e576004359067ffffffffffffffff821161000e57610d6591600401610d09565b9091565b6020908160408183019282815285518094520193019160005b828110610d90575050505090565b9091929382608082610ddd600194895162ffffff606080926001600160a01b03815116855267ffffffffffffffff6020820151166020860152604081015115156040860152015116910152565b01950193929101610d82565b503461000e57610df836610d3a565b610e0181611dcd565b91610e0f604051938461145b565b818352601f19610e1e83611dcd565b0160005b818110610e8757505060005b828103610e4357604051806104d98682610d69565b80836001921015610e7a575b610e5e8160051b840135613b79565b610e688287611e8a565b52610e738186611e8a565b5001610e2e565b610e82611e23565b610e4f565b602090610e92613b35565b82828801015201610e22565b503461000e57600036600319011261000e57602060ff606554166040519015158152f35b503461000e57602036600319011261000e5760206001600160a01b03610ee9600435613476565b16604051908152f35b503461000e57602036600319011261000e576020610f1a600435610f15816105dc565b61340b565b604051908152f35b503461000e57602036600319011261000e57610f3c612303565b6001600160a01b0361012f54163303610f6f5761012e8054906004358201809211610f645755005b610f6c611df4565b55005b604051639a5ed74b60e01b8152600490fd5b503461000e57600036600319011261000e57610f9b611c90565b610fa3612303565b600160ff1960655416176065557f62e78cea01bee320cd4e420270b5ea74000d11b0c9f74754ebdbfc544b05a2586020604051338152a1005b6020908160408183019282815285518094520193019160005b828110611003575050505090565b835185529381019392810192600101610ff5565b503461000e57602036600319011261000e57600435611035816105dc565b6000806110418361340b565b9161104b83613c3d565b93611054613b35565b506001600160a01b0390811691835b85850361107857604051806104d98982610fdc565b61108181613bd4565b60408101516110cd57516001600160a01b03168381166110c4575b5060019084848416146110b0575b01611063565b806110be838801978a611e8a565b526110aa565b9150600161109c565b506001906110aa565b503461000e57604036600319011261000e5760043560005260fb60205260206001600160a01b0361110d60243560406000206122dd565b9190546040519260031b1c168152f35b503461000e57604036600319011261000e57602060ff611169602435611142816105dc565b60043560005260c984526040600020906001600160a01b0316600052602052604060002090565b54166040519015158152f35b503461000e576000806003193601126105645760405190807f2569078dfb4b0305704d3008e7403993ae9601b85f7ae5e742de3de8f8011c43908154906111bb8261289a565b8086529260019280841690811561053757506001146111e4576104d9866104cd8188038261145b565b815292507f617167b76dcc8247761fd21f427ad8ec3be6b3be203aed34e3aac08b4d31817c5b8284106112265750505081016020016104cd826104d9386104bd565b8054602085870181019190915290930192810161120a565b503461000e57606036600319011261000e576104d961126f600435611262816105dc565b6044359060243590613c6f565b60405191829182610fdc565b503461000e57600036600319011261000e57602060405160008152f35b3590811515820361000e57565b503461000e57604036600319011261000e576112c26004356105dc565b6024358015150361000e576040516317e4829160e31b8152600490fd5b503461000e57600036600319011261000e576020600080516020613db183398151915254604051908152f35b602080820190808352835180925260408301928160408460051b8301019501936000915b84831061133f5750505050505090565b909192939495848061135d600193603f198682030187528a51610424565b980193019301919493929061132f565b503461000e5761137c36610d3a565b9061138682611dcd565b91611394604051938461145b565b808352601f196113a382611dcd565b0160005b81811061140a57505060005b8181106113c857604051806104d9868261130b565b806113ea6113e46113dd611405948688611e3a565b36916114a8565b30611f0e565b6113f48287611e8a565b526113ff8186611e8a565b50611e0b565b6113b3565b8060606020809388010152016113a7565b50634e487b7160e01b600052604160045260246000fd5b6040810190811067ffffffffffffffff82111761144e57604052565b61145661141b565b604052565b90601f8019910116810190811067ffffffffffffffff82111761144e57604052565b60209067ffffffffffffffff811161149b575b601f01601f19160190565b6114a361141b565b611490565b9291926114b48261147d565b916114c2604051938461145b565b82948184528183011161000e578281602093846000960137010152565b503461000e57608036600319011261000e576004356114fd816105dc565b602435611509816105dc565b6064359167ffffffffffffffff831161000e573660238401121561000e5761153e6106b09336906024816004013591016114a8565b9160443591613897565b503461000e5760a036600319011261000e576115656004356105dc565b6115706024356105dc565b67ffffffffffffffff60443581811161000e57611591903690600401610d09565b9160643581811161000e576115aa903690600401610d09565b608435939183851161000e573660238601121561000e57846004013593841161000e57366024858701011161000e576104d99560246115ea960193612ef3565b6040516001600160e01b031990911681529081906020820190565b503461000e57602036600319011261000e576080611624600435613b79565b611669604051809262ffffff606080926001600160a01b03815116855267ffffffffffffffff6020820151166020860152604081015115156040860152015116910152565bf35b503461000e5760208060031936011261000e5760043561168a81613500565b156117a057604051908282600061013080546116a58161289a565b8085529160019180831690811561177d5750600114611720575b5050506116ce9250038361145b565b81511561170d576104d9926116ff6116e86104cd93613acd565b6116f9604051958694850190611db6565b90611db6565b03601f19810183528261145b565b5050506104d961171b611eac565b6104cd565b60009081527f2f605e086faac1d93117bbfbc18835d434e9405fadc1ca66faf4b864746daf3495935091905b8183106117655750879450508201016116ce38806116bf565b8554888401850152948501948794509183019161174c565b925050506116ce94925060ff191682840152151560051b820101859238806116bf565b604051630a14c4b560e41b8152600490fd5b503461000e57602036600319011261000e5760043560005260fb6020526020604060002054604051908152f35b503461000e57602036600319011261000e5760043560005261012d6020526020604060002054604051908152f35b503461000e57604036600319011261000e576004356107ae602435611831816105dc565b60009280845260c960205261184c6001604086200154611ce5565b611854612303565b80845260c960205260ff61187e8360408720906001600160a01b0316600052602052604060002090565b5416611895575b835260fb6020526040832061262a565b80845260c96020526118bd8260408620906001600160a01b0316600052602052604060002090565b805460ff19169055336001600160a01b038316827ff6391f5c32d9c69d2a47ea670b442974b53935d1edc7fd64eb21e047a839171b8780a4611885565b503461000e57600036600319011261000e57602061012e54604051908152f35b503461000e57600036600319011261000e5760206040517f65d7a28e3265b37a6474929f336521b332c1681b933f6cb9f3376673440d862a8152f35b503461000e57604036600319011261000e57602060ff61116960043561197b816105dc565b610caa6024359161198b836105dc565b6001600160a01b03166000527f2569078dfb4b0305704d3008e7403993ae9601b85f7ae5e742de3de8f8011c47602052604060002090565b503461000e57602036600319011261000e5760043567ffffffffffffffff811161000e573660238201121561000e57611a069036906024816004013591016114a8565b7fee151c8401928dc223602bb187aff91b9a56c7cae5476ef1b3287b085a16c85f5460ff8160081c169081600014611b225750303b155b15611ab757611a5290159182611a8457612761565b611a5857005b7fee151c8401928dc223602bb187aff91b9a56c7cae5476ef1b3287b085a16c85f805461ff0019169055005b7fee151c8401928dc223602bb187aff91b9a56c7cae5476ef1b3287b085a16c85f805461ffff1916610101179055612761565b60405162461bcd60e51b815260206004820152603760248201527f455243373231415f5f496e697469616c697a61626c653a20636f6e747261637460448201527f20697320616c726561647920696e697469616c697a65640000000000000000006064820152608490fd5b60ff1615611a3d565b503461000e57602036600319011261000e57600435611b49816105dc565b611b51612303565b3360009081527f81fe90a866a48a634a12852c1be675b683a22307409932a7443b8029347be756602052604090205460ff1615611be95760206001600160a01b037fb1baf34c07e5c91807f2e3dd3326873be3e2406ef6703ddb0946280f1b895f8b921661012f817fffffffffffffffffffffffff0000000000000000000000000000000000000000825416179055604051908152a1005b611c8c6048611c74611bfa33612141565b6116ff611c056121de565b6040519485937f416363657373436f6e74726f6c3a206163636f756e74200000000000000000006020860152611c45815180926020603789019101610401565b84017f206973206d697373696e6720726f6c652000000000000000000000000000000060378201520190611db6565b60405162461bcd60e51b815291829160048301610449565b0390fd5b3360009081527f69740cd0ab091be8193e004660c49ef128fdf47ef95c5cc8c747e37ac0379df8602052604090205460ff1615611cc957565b611c8c6048611c74611cda33612141565b6116ff611c0561224e565b8060005260c960205260ff611d11336040600020906001600160a01b0316600052602052604060002090565b541615611d1b5750565b611d2433612141565b90611d2d61205b565b906030611d3983612095565b536078611d45836120ab565b5360415b60018111611d6857611c8c6048611c74866116ff87611c0588156120f6565b90806f181899199a1a9b1b9c1cb0b131b232b360811b600f611da493166010811015611da9575b1a611d9a84866120bc565b5360041c916120db565b611d49565b611db1611e23565b611d8f565b90611dc960209282815194859201610401565b0190565b60209067ffffffffffffffff8111611de7575b60051b0190565b611def61141b565b611de0565b50634e487b7160e01b600052601160045260246000fd5b6001906000198114611e1b570190565b611dc9611df4565b50634e487b7160e01b600052603260045260246000fd5b9190811015611e7d575b60051b81013590601e198136030182121561000e57019081359167ffffffffffffffff831161000e57602001823603811361000e579190565b611e85611e23565b611e44565b6020918151811015611e9f575b60051b010190565b611ea7611e23565b611e97565b604051906020820182811067ffffffffffffffff821117611ed1575b60405260008252565b611ed961141b565b611ec8565b3d15611f09573d90611eef8261147d565b91611efd604051938461145b565b82523d6000602084013e565b606090565b90813b15611fb05760008161045a9360208394519201905af4611f2f611ede565b604051916060830183811067ffffffffffffffff821117611fa3575b604052602783527f416464726573733a206c6f772d6c6576656c2064656c65676174652063616c6c60208401527f206661696c656400000000000000000000000000000000000000000000000000604084015261201b565b611fab61141b565b611f4b565b60405162461bcd60e51b815260206004820152602660248201527f416464726573733a2064656c65676174652063616c6c20746f206e6f6e2d636f60448201527f6e747261637400000000000000000000000000000000000000000000000000006064820152608490fd5b90919015612027575090565b8151156120375750805190602001fd5b60405162461bcd60e51b815260206004820152908190611c8c906024830190610424565b604051906080820182811067ffffffffffffffff821117612088575b604052604282526060366020840137565b61209061141b565b612077565b6020908051156120a3570190565b611dc9611e23565b6021908051600110156120a3570190565b9060209180518210156120ce57010190565b6120d6611e23565b010190565b80156120e9575b6000190190565b6120f1611df4565b6120e2565b156120fd57565b606460405162461bcd60e51b815260206004820152602060248201527f537472696e67733a20686578206c656e67746820696e73756666696369656e746044820152fd5b604051906060820182811067ffffffffffffffff8211176121d1575b604052602a82526040366020840137603061217783612095565b536078612183836120ab565b536029905b6001821161219b5761045a9150156120f6565b806f181899199a1a9b1b9c1cb0b131b232b360811b600f6121cb93166010811015611da9571a611d9a84866120bc565b90612188565b6121d961141b565b61215d565b60006121e861205b565b9060306121f483612095565b536078612200836120ab565b536041905b600182116122185761045a9150156120f6565b806f181899199a1a9b1b9c1cb0b131b232b360811b600f61224893166010811015611da9571a611d9a84866120bc565b90612205565b7f65d7a28e3265b37a6474929f336521b332c1681b933f6cb9f3376673440d862a61227761205b565b90603061228383612095565b53607861228f836120ab565b536041905b600182116122a75761045a9150156120f6565b806f181899199a1a9b1b9c1cb0b131b232b360811b600f6122d793166010811015611da9571a611d9a84866120bc565b90612294565b80548210156122f6575b60005260206000200190600090565b6122fe611e23565b6122e7565b60ff6065541661230f57565b60405162461bcd60e51b815260206004820152601060248201527f5061757361626c653a20706175736564000000000000000000000000000000006044820152606490fd5b6123b790612360612303565b6001600160a01b0381811660009081527f81fe90a866a48a634a12852c1be675b683a22307409932a7443b8029347be75660205260408082205490919060ff16156123ba575b80805260fb602052209116906125a5565b50565b80805260c96020526123e184838320906001600160a01b0316600052602052604060002090565b805460ff1916600117905533848416827f2f8788117e7eff1d82e926ec794901d17c78024a50270940304540a733656f0d8180a46123a6565b6123b790612426612303565b6001600160a01b0381811660009081527f69740cd0ab091be8193e004660c49ef128fdf47ef95c5cc8c747e37ac0379df860205260408082209091907f65d7a28e3265b37a6474929f336521b332c1681b933f6cb9f3376673440d862a9060ff905b5416156124a0575b815260fb602052209116906125a5565b80825260c96020526124c785848420906001600160a01b0316600052602052604060002090565b805460ff1916600117905533858516827f2f8788117e7eff1d82e926ec794901d17c78024a50270940304540a733656f0d8580a4612490565b6123b79061250c612303565b6001600160a01b0381811660009081527fa65068d46483e09e8cfdb7d90215cca5eb137b30699be6445b5905c4a0f9730360205260408082209091907fb6eeb50d1ea0d876d560efb18b8017323347ce323ef4b05d5a0322c9c7869f8f9060ff90612488565b6001600160a01b0361045a9216906125a5565b916125a19183549060031b600019811b9283911b169119161790565b9055565b600181019082600052816020526040600020541560001461262257826126006125e7835468010000000000000000811015612615575b600181018555846122dd565b819391549060031b600019811b9283911b169119161790565b90555491600052602052604060002055600190565b61261d61141b565b6125db565b505050600090565b6001600160a01b0361045a921690612694565b9190820391821161264a57565b612652611df4565b565b805490811561267e576000199182019161266e83836122dd565b909182549160031b1b1916905555565b634e487b7160e01b600052603160045260246000fd5b6001810191806000528260205260406000205492831515600014612758576126e66126f593600095861980820182811161274b575b835491820191821161273e575b8082036126fb575b505050612654565b90600052602052604060002090565b55600190565b61272561271f9161270f61273594876122dd565b90549060031b1c928391876122dd565b90612585565b8590600052602052604060002090565b553880806126de565b612746611df4565b6126d6565b612753611df4565b6126c9565b50505050600090565b6000549060ff8260081c16158092819361288c575b811561286c575b5015612801576127a3908261279a600160ff196000541617600055565b6127e857612bf7565b6127a957565b6127b961ff001960005416600055565b604051600181527f7f26b83ff96e1f2b6a682f133852f6798a09c465da95921460cefb384740249890602090a1565b6127fc61010061ff00196000541617600055565b612bf7565b60405162461bcd60e51b815260206004820152602e60248201527f496e697469616c697a61626c653a20636f6e747261637420697320616c72656160448201527f647920696e697469616c697a65640000000000000000000000000000000000006064820152608490fd5b303b1591508161287e575b503861277d565b6001915060ff161438612877565b600160ff8216109150612776565b90600182811c921680156128ca575b60208310146128b457565b634e487b7160e01b600052602260045260246000fd5b91607f16916128a9565b601f81116128e0575050565b60009061013082527f2f605e086faac1d93117bbfbc18835d434e9405fadc1ca66faf4b864746daf34906020601f850160051c8301941061293c575b601f0160051c01915b82811061293157505050565b818155600101612925565b909250829061291c565b601f8111612952575050565b6000907f2569078dfb4b0305704d3008e7403993ae9601b85f7ae5e742de3de8f8011c4282527f933ecf8acb7824b680a8d16f3ff3db8864228d986aa4c2ebab1eeb2703b4beb3906020601f850160051c830194106129cc575b601f0160051c01915b8281106129c157505050565b8181556001016129b5565b90925082906129ac565b601f81116129e2575050565b6000907f2569078dfb4b0305704d3008e7403993ae9601b85f7ae5e742de3de8f8011c4382527f617167b76dcc8247761fd21f427ad8ec3be6b3be203aed34e3aac08b4d31817c906020601f850160051c83019410612a5c575b601f0160051c01915b828110612a5157505050565b818155600101612a45565b9092508290612a3c565b90815167ffffffffffffffff8111612b91575b7f2569078dfb4b0305704d3008e7403993ae9601b85f7ae5e742de3de8f8011c4390612aae81612aa9845461289a565b6129d6565b602080601f8311600114612aea575081929394600092612adf575b50508160011b916000199060031b1c1916179055565b015190503880612ac9565b90601f19831695612b3c7f2569078dfb4b0305704d3008e7403993ae9601b85f7ae5e742de3de8f8011c436000527f617167b76dcc8247761fd21f427ad8ec3be6b3be203aed34e3aac08b4d31817c90565b926000905b888210612b7957505083600195969710612b60575b505050811b019055565b015160001960f88460031b161c19169055388080612b56565b80600185968294968601518155019501930190612b41565b612b9961141b565b612a79565b60405190612bab82611432565b600b82527f43657274696669636174650000000000000000000000000000000000000000006020830152565b60405190612be482611432565b60048252632721a1a960e11b6020830152565b90815167ffffffffffffffff8111612d5c575b61013090612c2181612c1c845461289a565b6128d4565b602080601f8311600114612cd0575081929394600092612cc5575b50508160011b916000199060031b1c19161790555b612c59612ddb565b612c61612ddb565b612c7a612c6c612b9e565b612c74612bd7565b9061327c565b612c82613b05565b612c8a613b05565b612c92612dec565b612c9a612ddb565b612ca2612ddb565b612caa612ddb565b612cb333612354565b612cbc3361241a565b61265233612500565b015190503880612c3c565b90601f19831695612d046101306000527f2f605e086faac1d93117bbfbc18835d434e9405fadc1ca66faf4b864746daf3490565b926000905b888210612d4457505083600195969710612d2b575b505050811b019055612c51565b015160001960f88460031b161c19169055388080612d1e565b80600185968294968601518155019501930190612d09565b612d6461141b565b612c0a565b15612d7057565b60405162461bcd60e51b815260206004820152602b60248201527f496e697469616c697a61626c653a20636f6e7472616374206973206e6f74206960448201527f6e697469616c697a696e670000000000000000000000000000000000000000006064820152608490fd5b61265260ff60005460081c16612d69565b612dfd60ff60005460081c16612d69565b60ff1960655416606555565b9081602091031261000e5761045a90611298565b908160c091031261000e5760a06040519160c0830183811067ffffffffffffffff821117612e98575b604052612e5281611298565b83526020810135612e62816105dc565b6020840152604081013560408401526060810135612e7f816105dc565b606084015260808101356080840152013560a082015290565b612ea061141b565b612e46565b9291612eb082611dcd565b91612ebe604051938461145b565b829481845260208094019160051b810192831161000e57905b828210612ee45750505050565b81358152908301908301612ed7565b9194939092936001600160a01b0361012f54163303612fac57810190612f198282612e09565b15612f565750505050612f3c612f37612f4b93612f45933691612ea5565b612ff1565b61012e5461263d565b61012e55565b63bc197c8160e01b90565b612fa795939491612f6691612e1d565b92612f7b60208501516001600160a01b031690565b94604085015193612f9660608701516001600160a01b031690565b9460a06080880151970151976130b2565b612f4b565b60405162461bcd60e51b815260206004820152601f60248201527f43657274696669636174653a2053656e646572206e6f742052656d6f76616c006044820152606490fd5b80516000929160209160051b8101820190849083015b8281106130145750505050565b85815101958610613026578301613007565b5080fd5b90918281527f07ffffffffffffffffffffffffffffffffffffffffffffffffffffffffffffff831161000e5760209260051b809284830137010190565b94926130a89460a097936001600160a01b0361309a949c9b9a9c168852602088015260c0604088015260c087019161302a565b91848303606086015261302a565b9460808201520152565b9790959296939193866130c9612f37368987612ea5565b036131c55785880361314c577fc75c026f88960a2ba4c2eb0bad4326d77c1116b7e40c22b88077c38535a7982d9561314793600080516020613db18339815191525499896131228c60005261012d602052604060002090565b5561312c8c6139c8565b6040519788976001600160a01b038091169d169a3389613067565b0390a4565b60c460405163616c411360e01b815260406004820152600a60448201527f72656d6f76616c49647300000000000000000000000000000000000000000000606482015260806024820152600e60848201527f72656d6f76616c416d6f756e747300000000000000000000000000000000000060a4820152fd5b60405162461bcd60e51b815260206004820152601b60248201527f496e636f727265637420737570706c7920616c6c6f636174696f6e00000000006044820152606490fd5b1561321157565b60405162461bcd60e51b815260206004820152603460248201527f455243373231415f5f496e697469616c697a61626c653a20636f6e747261637460448201527f206973206e6f7420696e697469616c697a696e670000000000000000000000006064820152608490fd5b91906132ae60ff7fee151c8401928dc223602bb187aff91b9a56c7cae5476ef1b3287b085a16c85f5460081c1661320a565b825167ffffffffffffffff81116133fe575b7f2569078dfb4b0305704d3008e7403993ae9601b85f7ae5e742de3de8f8011c42906132f5816132f0845461289a565b612946565b602080601f831160011461334e5750819061332c9596600092613343575b50508160011b916000199060031b1c1916179055612a66565b6126526000600080516020613db183398151915255565b015190503880613313565b90601f198316966133a07f2569078dfb4b0305704d3008e7403993ae9601b85f7ae5e742de3de8f8011c426000527f933ecf8acb7824b680a8d16f3ff3db8864228d986aa4c2ebab1eeb2703b4beb390565b926000905b8982106133e65750509083929160019461332c9899106133cd575b505050811b019055612a66565b015160001960f88460031b161c191690553880806133c0565b806001859682949686015181550195019301906133a5565b61340661141b565b6132c0565b6001600160a01b038116156134645761345f67ffffffffffffffff916001600160a01b03166000527f2569078dfb4b0305704d3008e7403993ae9601b85f7ae5e742de3de8f8011c45602052604060002090565b541690565b6040516323d3ad8160e21b8152600490fd5b80600080516020613db18339815191525481106134a0575b604051636f96cda160e11b8152600490fd5b600052600080516020613dd183398151915260205260406000205490600160e01b821661348e575b81156134d2575090565b9050600019016134f981600052600080516020613dd1833981519152602052604060002090565b54906134c8565b600080516020613db1833981519152548110908161351c575090565b9050600052600080516020613dd1833981519152602052600160e01b604060002054161590565b9061354d83613476565b6001600160a01b0380841692838284160361379a5760008681527f2569078dfb4b0305704d3008e7403993ae9601b85f7ae5e742de3de8f8011c4660205260409020805490926135ac6001600160a01b03881633908114908414171590565b61373d575b821695861561372b5761364a9361360a926135cc858461382a565b613721575b506001600160a01b03166000527f2569078dfb4b0305704d3008e7403993ae9601b85f7ae5e742de3de8f8011c45602052604060002090565b80546000190190556001600160a01b03166000527f2569078dfb4b0305704d3008e7403993ae9601b85f7ae5e742de3de8f8011c45602052604060002090565b80546001019055600160e11b804260a01b85171761367f86600052600080516020613dd1833981519152602052604060002090565b558116156136b0575b507fddf252ad1be2c89b69c2b068fc378daa952ba7f163c4a11628f55a4df523b3ef600080a4565b600184016136d581600052600080516020613dd1833981519152602052604060002090565b54156136e2575b50613688565b600080516020613db18339815191525481146136dc5761371990600052600080516020613dd1833981519152602052604060002090565b5538806136dc565b60009055386135d1565b604051633a954ecd60e21b8152600490fd5b613783610ad0610cc233610caa8b6001600160a01b03166000527f2569078dfb4b0305704d3008e7403993ae9601b85f7ae5e742de3de8f8011c47602052604060002090565b156135b157604051632ce44b5f60e11b8152600490fd5b60405162a1148160e81b8152600490fd5b6001600160a01b03906137bc612303565b3360009081527fa65068d46483e09e8cfdb7d90215cca5eb137b30699be6445b5905c4a0f973036020526040902054911615159060ff161581613821575b81613819575b5061380757565b604051630175e5a960e41b8152600490fd5b905038613800565b600091506137fa565b90613833612303565b3360009081527fa65068d46483e09e8cfdb7d90215cca5eb137b30699be6445b5905c4a0f97303602052604090206001600160a01b039283161515929060ff90541615918361388b575b505081613819575061380757565b1615159150388061387d565b9291906138a5828286613543565b803b6138b2575b50505050565b6138bb9361391f565b156138c957388080806138ac565b6040516368d2bf6b60e11b8152600490fd5b9081602091031261000e575161045a81610350565b909261045a94936080936001600160a01b03809216845216602083015260408201528160608201520190610424565b926020916139509360006001600160a01b03604051809781968295630a85bd0160e11b9b8c855233600486016138f0565b0393165af160009181613998575b5061398a5761396b611ede565b80519081613985576040516368d2bf6b60e11b8152600490fd5b602001fd5b6001600160e01b0319161490565b6139ba91925060203d81116139c1575b6139b2818361145b565b8101906138db565b903861395e565b503d6139a8565b600080516020613db1833981519152546139e0612303565b6001600160a01b0380831660009081527f2569078dfb4b0305704d3008e7403993ae9601b85f7ae5e742de3de8f8011c45602052604081209093906801000000000000000181540190551690600160e11b4260a01b831717613a5982600052600080516020613dd1833981519152602052604060002090565b55600190818101937fddf252ad1be2c89b69c2b068fc378daa952ba7f163c4a11628f55a4df523b3ef918482848180a4845b858103613abe575050505015613aad57600080516020613db183398151915255565b604051622e076360e81b8152600490fd5b8084918684868180a401613a8b565b90604051608081019283604052925b6000190192600a906030828206018553049283613adc57809350608091030191601f1901918252565b61265260ff7fee151c8401928dc223602bb187aff91b9a56c7cae5476ef1b3287b085a16c85f5460081c1661320a565b604051906080820182811067ffffffffffffffff821117613b6c575b60405260006060838281528260208201528260408201520152565b613b7461141b565b613b51565b613b81613b35565b50613b8a613b35565b600080516020613db183398151915254821015613bcf5750613bab81613bd4565b6040810151613bcf5750613bca61045a91613bc4613b35565b50613476565b613bfc565b905090565b613bdc613b35565b50600052600080516020613dd183398151915260205261045a6040600020545b90613c05613b35565b916001600160a01b038116835267ffffffffffffffff8160a01c166020840152600160e01b81161515604084015260e81c6060830152565b90613c4782611dcd565b613c54604051918261145b565b8281528092613c65601f1991611dcd565b0190602036910137565b9082811015613d9e57600091600080516020613db183398151915254808511613d96575b50613c9d8161340b565b84831015613d8f57828503818110613d87575b505b613cbb81613c3d565b958115613d7f57613ccb84613b79565b918594604093613ce0610ad086830151151590565b613d6d575b505b8781141580613d63575b15613d5657613cff81613bd4565b80850151613d4d57516001600160a01b0390811680613d44575b509081600192871690881614613d30575b01613ce7565b80613d3e838a01998c611e8a565b52613d2a565b96506001613d19565b50600190613d2a565b5050959450505050815290565b5081871415613cf1565b516001600160a01b0316955038613ce5565b945050505050565b905038613cb0565b5082613cb2565b935038613c93565b604051631960ccad60e11b8152600490fdfe2569078dfb4b0305704d3008e7403993ae9601b85f7ae5e742de3de8f8011c402569078dfb4b0305704d3008e7403993ae9601b85f7ae5e742de3de8f8011c44a26469706673582212201f1f95efb2912fe80c53e8e2fbe9c4d408261276bca00a5b7545f16e314fef6364736f6c63430008110033"
}