{
  "_format": "hh-sol-artifact-1",
  "contractName": "TestToken777",
  "sourceName": "contracts/test/TestToken777.sol",
  "abi": [
    {
      "anonymous": false,
      "inputs": [
        {
          "indexed": true,
          "internalType": "address",
          "name": "owner",
          "type": "address"
        },
        {
          "indexed": true,
          "internalType": "address",
          "name": "spender",
          "type": "address"
        },
        {
          "indexed": false,
          "internalType": "uint256",
          "name": "value",
          "type": "uint256"
        }
      ],
      "name": "Approval",
      "type": "event"
    },
    {
      "anonymous": false,
      "inputs": [
        {
          "indexed": true,
          "internalType": "address",
          "name": "operator",
          "type": "address"
        },
        {
          "indexed": true,
          "internalType": "address",
          "name": "tokenHolder",
          "type": "address"
        }
      ],
      "name": "AuthorizedOperator",
      "type": "event"
    },
    {
      "anonymous": false,
      "inputs": [
        {
          "indexed": true,
          "internalType": "address",
          "name": "operator",
          "type": "address"
        },
        {
          "indexed": true,
          "internalType": "address",
          "name": "from",
          "type": "address"
        },
        {
          "indexed": false,
          "internalType": "uint256",
          "name": "amount",
          "type": "uint256"
        },
        {
          "indexed": false,
          "internalType": "bytes",
          "name": "data",
          "type": "bytes"
        },
        {
          "indexed": false,
          "internalType": "bytes",
          "name": "operatorData",
          "type": "bytes"
        }
      ],
      "name": "Burned",
      "type": "event"
    },
    {
      "anonymous": false,
      "inputs": [
        {
          "indexed": false,
          "internalType": "uint8",
          "name": "version",
          "type": "uint8"
        }
      ],
      "name": "Initialized",
      "type": "event"
    },
    {
      "anonymous": false,
      "inputs": [
        {
          "indexed": true,
          "internalType": "address",
          "name": "operator",
          "type": "address"
        },
        {
          "indexed": true,
          "internalType": "address",
          "name": "to",
          "type": "address"
        },
        {
          "indexed": false,
          "internalType": "uint256",
          "name": "amount",
          "type": "uint256"
        },
        {
          "indexed": false,
          "internalType": "bytes",
          "name": "data",
          "type": "bytes"
        },
        {
          "indexed": false,
          "internalType": "bytes",
          "name": "operatorData",
          "type": "bytes"
        }
      ],
      "name": "Minted",
      "type": "event"
    },
    {
      "anonymous": false,
      "inputs": [
        {
          "indexed": true,
          "internalType": "address",
          "name": "operator",
          "type": "address"
        },
        {
          "indexed": true,
          "internalType": "address",
          "name": "tokenHolder",
          "type": "address"
        }
      ],
      "name": "RevokedOperator",
      "type": "event"
    },
    {
      "anonymous": false,
      "inputs": [
        {
          "indexed": true,
          "internalType": "address",
          "name": "operator",
          "type": "address"
        },
        {
          "indexed": true,
          "internalType": "address",
          "name": "from",
          "type": "address"
        },
        {
          "indexed": true,
          "internalType": "address",
          "name": "to",
          "type": "address"
        },
        {
          "indexed": false,
          "internalType": "uint256",
          "name": "amount",
          "type": "uint256"
        },
        {
          "indexed": false,
          "internalType": "bytes",
          "name": "data",
          "type": "bytes"
        },
        {
          "indexed": false,
          "internalType": "bytes",
          "name": "operatorData",
          "type": "bytes"
        }
      ],
      "name": "Sent",
      "type": "event"
    },
    {
      "anonymous": false,
      "inputs": [
        {
          "indexed": true,
          "internalType": "address",
          "name": "from",
          "type": "address"
        },
        {
          "indexed": true,
          "internalType": "address",
          "name": "to",
          "type": "address"
        },
        {
          "indexed": false,
          "internalType": "uint256",
          "name": "value",
          "type": "uint256"
        }
      ],
      "name": "Transfer",
      "type": "event"
    },
    {
      "inputs": [
        {
          "internalType": "address",
          "name": "holder",
          "type": "address"
        },
        {
          "internalType": "address",
          "name": "spender",
          "type": "address"
        }
      ],
      "name": "allowance",
      "outputs": [
        {
          "internalType": "uint256",
          "name": "",
          "type": "uint256"
        }
      ],
      "stateMutability": "view",
      "type": "function"
    },
    {
      "inputs": [
        {
          "internalType": "address",
          "name": "spender",
          "type": "address"
        },
        {
          "internalType": "uint256",
          "name": "value",
          "type": "uint256"
        }
      ],
      "name": "approve",
      "outputs": [
        {
          "internalType": "bool",
          "name": "",
          "type": "bool"
        }
      ],
      "stateMutability": "nonpayable",
      "type": "function"
    },
    {
      "inputs": [
        {
          "internalType": "address",
          "name": "operator",
          "type": "address"
        }
      ],
      "name": "authorizeOperator",
      "outputs": [],
      "stateMutability": "nonpayable",
      "type": "function"
    },
    {
      "inputs": [
        {
          "internalType": "address",
          "name": "tokenHolder",
          "type": "address"
        }
      ],
      "name": "balanceOf",
      "outputs": [
        {
          "internalType": "uint256",
          "name": "",
          "type": "uint256"
        }
      ],
      "stateMutability": "view",
      "type": "function"
    },
    {
      "inputs": [
        {
          "internalType": "uint256",
          "name": "amount",
          "type": "uint256"
        },
        {
          "internalType": "bytes",
          "name": "data",
          "type": "bytes"
        }
      ],
      "name": "burn",
      "outputs": [],
      "stateMutability": "nonpayable",
      "type": "function"
    },
    {
      "inputs": [],
      "name": "decimals",
      "outputs": [
        {
          "internalType": "uint8",
          "name": "",
          "type": "uint8"
        }
      ],
      "stateMutability": "pure",
      "type": "function"
    },
    {
      "inputs": [],
      "name": "defaultOperators",
      "outputs": [
        {
          "internalType": "address[]",
          "name": "",
          "type": "address[]"
        }
      ],
      "stateMutability": "view",
      "type": "function"
    },
    {
      "inputs": [],
      "name": "granularity",
      "outputs": [
        {
          "internalType": "uint256",
          "name": "",
          "type": "uint256"
        }
      ],
      "stateMutability": "view",
      "type": "function"
    },
    {
      "inputs": [
        {
          "internalType": "string",
          "name": "name",
          "type": "string"
        },
        {
          "internalType": "string",
          "name": "symbol",
          "type": "string"
        },
        {
          "internalType": "address[]",
          "name": "defaultOperators",
          "type": "address[]"
        },
        {
          "internalType": "uint256",
          "name": "initialSupply",
          "type": "uint256"
        },
        {
          "internalType": "address",
          "name": "owner",
          "type": "address"
        }
      ],
      "name": "initialize",
      "outputs": [],
      "stateMutability": "nonpayable",
      "type": "function"
    },
    {
      "inputs": [],
      "name": "initialize",
      "outputs": [],
      "stateMutability": "nonpayable",
      "type": "function"
    },
    {
      "inputs": [
        {
          "internalType": "address",
          "name": "operator",
          "type": "address"
        },
        {
          "internalType": "address",
          "name": "tokenHolder",
          "type": "address"
        }
      ],
      "name": "isOperatorFor",
      "outputs": [
        {
          "internalType": "bool",
          "name": "",
          "type": "bool"
        }
      ],
      "stateMutability": "view",
      "type": "function"
    },
    {
      "inputs": [],
      "name": "name",
      "outputs": [
        {
          "internalType": "string",
          "name": "",
          "type": "string"
        }
      ],
      "stateMutability": "view",
      "type": "function"
    },
    {
      "inputs": [
        {
          "internalType": "address",
          "name": "account",
          "type": "address"
        },
        {
          "internalType": "uint256",
          "name": "amount",
          "type": "uint256"
        },
        {
          "internalType": "bytes",
          "name": "data",
          "type": "bytes"
        },
        {
          "internalType": "bytes",
          "name": "operatorData",
          "type": "bytes"
        }
      ],
      "name": "operatorBurn",
      "outputs": [],
      "stateMutability": "nonpayable",
      "type": "function"
    },
    {
      "inputs": [
        {
          "internalType": "address",
          "name": "sender",
          "type": "address"
        },
        {
          "internalType": "address",
          "name": "recipient",
          "type": "address"
        },
        {
          "internalType": "uint256",
          "name": "amount",
          "type": "uint256"
        },
        {
          "internalType": "bytes",
          "name": "data",
          "type": "bytes"
        },
        {
          "internalType": "bytes",
          "name": "operatorData",
          "type": "bytes"
        }
      ],
      "name": "operatorSend",
      "outputs": [],
      "stateMutability": "nonpayable",
      "type": "function"
    },
    {
      "inputs": [
        {
          "internalType": "address",
          "name": "operator",
          "type": "address"
        }
      ],
      "name": "revokeOperator",
      "outputs": [],
      "stateMutability": "nonpayable",
      "type": "function"
    },
    {
      "inputs": [
        {
          "internalType": "address",
          "name": "recipient",
          "type": "address"
        },
        {
          "internalType": "uint256",
          "name": "amount",
          "type": "uint256"
        },
        {
          "internalType": "bytes",
          "name": "data",
          "type": "bytes"
        }
      ],
      "name": "send",
      "outputs": [],
      "stateMutability": "nonpayable",
      "type": "function"
    },
    {
      "inputs": [],
      "name": "symbol",
      "outputs": [
        {
          "internalType": "string",
          "name": "",
          "type": "string"
        }
      ],
      "stateMutability": "view",
      "type": "function"
    },
    {
      "inputs": [],
      "name": "totalSupply",
      "outputs": [
        {
          "internalType": "uint256",
          "name": "",
          "type": "uint256"
        }
      ],
      "stateMutability": "view",
      "type": "function"
    },
    {
      "inputs": [
        {
          "internalType": "address",
          "name": "recipient",
          "type": "address"
        },
        {
          "internalType": "uint256",
          "name": "amount",
          "type": "uint256"
        }
      ],
      "name": "transfer",
      "outputs": [
        {
          "internalType": "bool",
          "name": "",
          "type": "bool"
        }
      ],
      "stateMutability": "nonpayable",
      "type": "function"
    },
    {
      "inputs": [
        {
          "internalType": "address",
          "name": "holder",
          "type": "address"
        },
        {
          "internalType": "address",
          "name": "recipient",
          "type": "address"
        },
        {
          "internalType": "uint256",
          "name": "amount",
          "type": "uint256"
        }
      ],
      "name": "transferFrom",
      "outputs": [
        {
          "internalType": "bool",
          "name": "",
          "type": "bool"
        }
      ],
      "stateMutability": "nonpayable",
      "type": "function"
    }
  ],
  "bytecode": "0x608080604052346100165761366e908161001c8239f35b600080fdfe608080604052600436101561001357600080fd5b600090813560e01c90816306e48538146122cb5750806306fdde0314612207578063095ea7b3146121c257806318160ddd1461218657806323b872dd14612048578063313ce5671461200e578063556f0dc714611fd457806362ad1b8314611f3f57806370a0823114611edc578063768f950a1461132b5780638129fc1c1461081f578063959b8c3f1461068457806395d89b411461055f5780639bd9bbc6146104e5578063a9059cbb14610475578063d95b637114610420578063dd62ed3e146103a5578063fad8b32a14610209578063fc673c4f146101745763fe9d9303146100fd57600080fd5b346101715760407ffffffffffffffffffffffffffffffffffffffffffffffffffffffffffffffffc3601126101715760243567ffffffffffffffff811161016d5761014f610168913690600401612537565b6040519061015c826124be565b83825260043533612dd7565b604051f35b5080fd5b80fd5b50346101715760807ffffffffffffffffffffffffffffffffffffffffffffffffffffffffffffffffc360112610171576101ac612435565b67ffffffffffffffff90604435828111610205576101ce903690600401612537565b606435928311610205576101e9610168933690600401612537565b916101fc6101f782336125ff565b612697565b60243590612dd7565b8380fd5b5034610171576020807ffffffffffffffffffffffffffffffffffffffffffffffffffffffffffffffffc36011261016d5773ffffffffffffffffffffffffffffffffffffffff610257612435565b16903382146103215781835260388152604083205460ff16156102e057338352603a815260408320908260005252604060002060017fffffffffffffffffffffffffffffffffffffffffffffffffffffffffffffff008254161790555b6040519033907f50546e66e5f44d728365dc3908c63bc5cfeeab470722c1677e3073a6ac294aa18484a3f35b338352603981526040832090826000525260406000207fffffffffffffffffffffffffffffffffffffffffffffffffffffffffffffff0081541690556102b4565b608490604051907f08c379a00000000000000000000000000000000000000000000000000000000082526004820152602160248201527f4552433737373a207265766f6b696e672073656c66206173206f70657261746f60448201527f72000000000000000000000000000000000000000000000000000000000000006064820152fd5b50346101715760407ffffffffffffffffffffffffffffffffffffffffffffffffffffffffffffffffc360112610171576103dd612435565b60406103e7612458565b9273ffffffffffffffffffffffffffffffffffffffff8093168152603b6020522091166000526020526020604060002054604051908152f35b50346101715760407ffffffffffffffffffffffffffffffffffffffffffffffffffffffffffffffffc36011261017157602061046b61045d612435565b610465612458565b906125ff565b6040519015158152f35b50346101715760407ffffffffffffffffffffffffffffffffffffffffffffffffffffffffffffffffc360112610171576104da906104b1612435565b604051906104be826124be565b828252604051926104ce846124be565b83526024359033612722565b602060405160018152f35b50346101715760607ffffffffffffffffffffffffffffffffffffffffffffffffffffffffffffffffc3601126101715761051d612435565b6044359067ffffffffffffffff821161055b57610541610168923690600401612537565b6040519161054e836124be565b8483526024359033612ab1565b8280fd5b503461017157807ffffffffffffffffffffffffffffffffffffffffffffffffffffffffffffffffc36011261017157604051908060365461059f816125ac565b8085529160019180831690811561063c57506001146105e1575b6105dd856105c9818703826124f6565b6040519182916020835260208301906123c6565b0390f35b9250603683527f4a11f94e20a93c79f6ec743a1954ec4fc2c08429ae2122118bf234b2185c81b85b8284106106245750505081016020016105c9826105dd6105b9565b80546020858701810191909152909301928101610609565b8695506105dd969350602092506105c99491507fffffffffffffffffffffffffffffffffffffffffffffffffffffffffffffff001682840152151560051b82010192936105b9565b5034610171576020807ffffffffffffffffffffffffffffffffffffffffffffffffffffffffffffffffc36011261016d5773ffffffffffffffffffffffffffffffffffffffff6106d2612435565b169081331461079c5781835260388152604083205460ff161561075857338352603a81526040832090826000525260406000207fffffffffffffffffffffffffffffffffffffffffffffffffffffffffffffff0081541690555b6040519033907ff4caeb2d6ca8932a215a353d0703c326ec2d81fc68170f320eb2ab49e9df61f98484a3f35b3383526039815260408320908260005252604060002060017fffffffffffffffffffffffffffffffffffffffffffffffffffffffffffffff0082541617905561072c565b608490604051907f08c379a000000000000000000000000000000000000000000000000000000000825260048201526024808201527f4552433737373a20617574686f72697a696e672073656c66206173206f70657260448201527f61746f72000000000000000000000000000000000000000000000000000000006064820152fd5b5034610171577ffffffffffffffffffffffffffffffffffffffffffffffffffffffffffffffffc90808236011261017157610858613538565b806112fc575b6040519061086b826124da565b600c82526020917f54657374546f6b656e373737000000000000000000000000000000000000000083820152604051906108a4826124da565b600382527f5437370000000000000000000000000000000000000000000000000000000000848301526108e660ff865460081c166108e181613596565b613596565b80519167ffffffffffffffff928381116112cf57806109066035546125ac565b93601f94858111611284575b5087908583116001146111c75789926111bc575b50507fffffffffffffffffffffffffffffffffffffffffffffffffffffffffffffffff8260011b9260031b1c1916176035555b805192831161118f579082916109706036546125ac565b82811161113a575b508591831160011461107d578692611072575b50507fffffffffffffffffffffffffffffffffffffffffffffffffffffffffffffffff8260011b9260031b1c1916176036555b606090815191680100000000000000008311611045576037548360375580841061100f575b5060378552608092857f42a7b7dd785cd69714a189dffb3fd7d7174edc9ece837694ce50f7078f7c31ae86865b848410610fbd575050505050845b8151811015610ad35773ffffffffffffffffffffffffffffffffffffffff848260051b0151168652603885526040862060017fffffffffffffffffffffffffffffffffffffffffffffffffffffffffffffff008254161790557fffffffffffffffffffffffffffffffffffffffffffffffffffffffffffffffff8114610aa657600101610a1e565b6024867f4e487b710000000000000000000000000000000000000000000000000000000081526011600452fd5b5090915084731820a4b7618bde71dce8cdc73aab6c95905fad24803b15610fb957604051917f29965a1d00000000000000000000000000000000000000000000000000000000808452306004850152876024917fac7fbab5f54a3ca8194167523c6753bfeb96a445279294b6125b68cce21770548387015260449530878201528281606481838a5af1908115610fae578391610f9a575b5050843b1561016d576040519081523060048201527faea199e31a596269b42cdafd93407f14436db6e4cad65417994c2eb37381e05a838201523086820152818160648183895af18015610f8f57610f77575b5060ff610bce915460081c16613596565b60405193610bdb856124be565b88855260405193610beb856124be565b8985523315610f1c57888291610c02603454613139565b603455338c526033825260408c20610c1a8154613139565b9055604051928380927faabbb8ca0000000000000000000000000000000000000000000000000000000082523360048301527fb281fc8c12954d22544db45de3159a39272895b169a852b314f9cc762e44c53b888301525afa8015610e265773ffffffffffffffffffffffffffffffffffffffff91600091610eef575b50168015610e3757803b15610e32576000808094610d1c604051978896879586947e23de29000000000000000000000000000000000000000000000000000000008652336004870152850152339084015269d3c21bcecceda1000000606484015260c06084840152610d0c60c484018c6123c6565b908382030160a4840152896123c6565b03925af18015610e2657610e17575b505b7f2fe5be0146f74c5bce36c0b80911af6c7d86ff27e89d5cfa61fc681327954e5d610d716040519369d3c21bcecceda10000009586865280898701528501906123c6565b92808403604082015280610d87339533956123c6565b0390a3604051908152837fddf252ad1be2c89b69c2b068fc378daa952ba7f163c4a11628f55a4df523b3ef843393a3610dc1575b50604051f35b7f7f26b83ff96e1f2b6a682f133852f6798a09c465da95921460cefb3847402498907fffffffffffffffffffffffffffffffffffffffffffffffffffffffffffff00ff835416835560405160018152a181610dbb565b610e209061247b565b86610d2b565b6040513d6000823e3d90fd5b600080fd5b509150333b610e47575050610d2d565b7f4552433737373a20746f6b656e20726563697069656e7420636f6e747261637460a492604d8993604051947f08c379a000000000000000000000000000000000000000000000000000000000865260048601528401528201527f20686173206e6f20696d706c656d656e74657220666f7220455243373737546f60648201527f6b656e73526563697069656e74000000000000000000000000000000000000006084820152fd5b610f0f91508a3d8c11610f15575b610f0781836124f6565b8101906132f1565b8b610c97565b503d610efd565b6064837f4552433737373a206d696e7420746f20746865207a65726f2061646472657373848c604051937f08c379a0000000000000000000000000000000000000000000000000000000008552816004860152840152820152fd5b610f809061247b565b610f8b578789610bbd565b8780fd5b6040513d84823e3d90fd5b610fa39061247b565b61016d57818b610b6a565b6040513d85823e3d90fd5b8580fd5b6001918173ffffffffffffffffffffffffffffffffffffffff849351167fffffffffffffffffffffffff0000000000000000000000000000000000000000865416178555019201920191908790610a10565b61103f90847f42a7b7dd785cd69714a189dffb3fd7d7174edc9ece837694ce50f7078f7c31ae9182019101613621565b386109e3565b6024857f4e487b710000000000000000000000000000000000000000000000000000000081526041600452fd5b01519050388061098b565b603687527f4a11f94e20a93c79f6ec743a1954ec4fc2c08429ae2122118bf234b2185c81b8927fffffffffffffffffffffffffffffffffffffffffffffffffffffffffffffffe016875b878282106111245750509084600195949392106110ed575b505050811b016036556109be565b01517fffffffffffffffffffffffffffffffffffffffffffffffffffffffffffffffff60f88460031b161c191690553880806110df565b60018596829396860151815501950193016110c7565b61118090603689527f4a11f94e20a93c79f6ec743a1954ec4fc2c08429ae2122118bf234b2185c81b88480870160051c8201928a8810611186575b0160051c0190613621565b38610978565b92508192611175565b6024867f4e487b710000000000000000000000000000000000000000000000000000000081526041600452fd5b015190503880610926565b60358a527fcfa4bec1d3298408bb5afcfcd9c430549c5b31f8aa5c5848151c0a55f473c34d927fffffffffffffffffffffffffffffffffffffffffffffffffffffffffffffffe0168a5b8a82821061126e575050908460019594939210611237575b505050811b01603555610959565b01517fffffffffffffffffffffffffffffffffffffffffffffffffffffffffffffffff60f88460031b161c19169055388080611229565b6001859682939686015181550195019301611211565b6112c99060358b527fcfa4bec1d3298408bb5afcfcd9c430549c5b31f8aa5c5848151c0a55f473c34d8780860160051c8201928c8710611186570160051c0190613621565b38610912565b6024877f4e487b710000000000000000000000000000000000000000000000000000000081526041600452fd5b6101007fffffffffffffffffffffffffffffffffffffffffffffffffffffffffffff00ff83541617825561085e565b50346101715760a07ffffffffffffffffffffffffffffffffffffffffffffffffffffffffffffffffc3601126101715767ffffffffffffffff9060043582811161016d5761137d903690600401612537565b60243583811161055b57611395903690600401612537565b9260443590808211610205573660238301121561020557816004013592818411611045578360051b92604051946113cf60208601876124f6565b855260208501906024829582010190368211610f8b57602401915b818310611eab5750505073ffffffffffffffffffffffffffffffffffffffff6084351660843503611ea75761141d613538565b9586611e78575b61143860ff875460081c166108e181613596565b81518381116112cf578061144d6035546125ac565b93601f94858111611e2c575b50602090858311600114611d6d578992611d62575b50507fffffffffffffffffffffffffffffffffffffffffffffffffffffffffffffffff8260011b9260031b1c1916176035555b805192831161118f579082916114b86036546125ac565b828111611d16575b506020918311600114611c57578692611c4c575b50507fffffffffffffffffffffffffffffffffffffffffffffffffffffffffffffffff8260011b9260031b1c1916176036555b815190680100000000000000008211611c1f5760375482603755808310611be9575b50603784527f42a7b7dd785cd69714a189dffb3fd7d7174edc9ece837694ce50f7078f7c31ae84915b838310611b985750505050815b81518110156116185773ffffffffffffffffffffffffffffffffffffffff60208260051b8401015116835260386020526040832060017fffffffffffffffffffffffffffffffffffffffffffffffffffffffffffffff008254161790557fffffffffffffffffffffffffffffffffffffffffffffffffffffffffffffffff81146115eb5760010161155f565b6024837f4e487b710000000000000000000000000000000000000000000000000000000081526011600452fd5b8284731820a4b7618bde71dce8cdc73aab6c95905fad243b1561016d576040517f29965a1d000000000000000000000000000000000000000000000000000000008082523060048301527fac7fbab5f54a3ca8194167523c6753bfeb96a445279294b6125b68cce217705460248301523060448301526064918481848183731820a4b7618bde71dce8cdc73aab6c95905fad245af18015611b8d57611b7a575b508390731820a4b7618bde71dce8cdc73aab6c95905fad243b1561016d576040519081523060048201527faea199e31a596269b42cdafd93407f14436db6e4cad65417994c2eb37381e05a60248201523060448201528181848183731820a4b7618bde71dce8cdc73aab6c95905fad245af18015610f8f57611b66575b5060ff611746915460081c16613596565b604051611752816124be565b83815260405190611762826124be565b84825273ffffffffffffffffffffffffffffffffffffffff6084351615611b0957611790833560345461316f565b60345573ffffffffffffffffffffffffffffffffffffffff6084351685526033602052604085206117c38435825461316f565b90556040517faabbb8ca00000000000000000000000000000000000000000000000000000000815273ffffffffffffffffffffffffffffffffffffffff6084351660048201527fb281fc8c12954d22544db45de3159a39272895b169a852b314f9cc762e44c53b6024820152602081604481731820a4b7618bde71dce8cdc73aab6c95905fad245afa8015610e265773ffffffffffffffffffffffffffffffffffffffff91600091611aea575b50168015611a3657803b15610e3257600060405180927e23de2900000000000000000000000000000000000000000000000000000000825233600483015282602483015273ffffffffffffffffffffffffffffffffffffffff60843516604483015286358783015260c060848301528183816119226118f260c483018a6123c6565b7ffffffffffffffffffffffffffffffffffffffffffffffffffffffffffffffffc8382030160a48401528a6123c6565b03925af18015610e2657611a27575b505b7f2fe5be0146f74c5bce36c0b80911af6c7d86ff27e89d5cfa61fc681327954e5d6040518061197f73ffffffffffffffffffffffffffffffffffffffff60843516953395883584612da9565b0390a360405190358152827fddf252ad1be2c89b69c2b068fc378daa952ba7f163c4a11628f55a4df523b3ef602073ffffffffffffffffffffffffffffffffffffffff6084351693a36119d157604051f35b7fffffffffffffffffffffffffffffffffffffffffffffffffffffffffffff00ff81541681557f7f26b83ff96e1f2b6a682f133852f6798a09c465da95921460cefb3847402498602060405160018152a1604051f35b611a309061247b565b85611931565b506084353b156119335760a4837f20686173206e6f20696d706c656d656e74657220666f7220455243373737546f604051917f08c379a000000000000000000000000000000000000000000000000000000000835260206004840152604d60248401527f4552433737373a20746f6b656e20726563697069656e7420636f6e747261637460448401528201527f6b656e73526563697069656e74000000000000000000000000000000000000006084820152fd5b611b03915060203d602011610f1557610f0781836124f6565b87611870565b826040517f08c379a000000000000000000000000000000000000000000000000000000000815260206004820152602060248201527f4552433737373a206d696e7420746f20746865207a65726f20616464726573736044820152fd5b611b6f9061247b565b61055b578284611735565b611b869094919461247b565b92846116b8565b6040513d87823e3d90fd5b600160208273ffffffffffffffffffffffffffffffffffffffff839451167fffffffffffffffffffffffff000000000000000000000000000000000000000086541617855501920192019190611552565b611c1990837f42a7b7dd785cd69714a189dffb3fd7d7174edc9ece837694ce50f7078f7c31ae9182019101613621565b38611529565b6024847f4e487b710000000000000000000000000000000000000000000000000000000081526041600452fd5b0151905038806114d4565b603687527f4a11f94e20a93c79f6ec743a1954ec4fc2c08429ae2122118bf234b2185c81b892507fffffffffffffffffffffffffffffffffffffffffffffffffffffffffffffffe08416875b818110611cfe5750908460019594939210611cc7575b505050811b01603655611507565b01517fffffffffffffffffffffffffffffffffffffffffffffffffffffffffffffffff60f88460031b161c19169055388080611cb9565b92936020600181928786015181550195019301611ca3565b611d5c90603689527f4a11f94e20a93c79f6ec743a1954ec4fc2c08429ae2122118bf234b2185c81b88480870160051c82019260208810611186570160051c0190613621565b386114c0565b01519050388061146e565b60358a527fcfa4bec1d3298408bb5afcfcd9c430549c5b31f8aa5c5848151c0a55f473c34d92507fffffffffffffffffffffffffffffffffffffffffffffffffffffffffffffffe084168a5b818110611e145750908460019594939210611ddd575b505050811b016035556114a1565b01517fffffffffffffffffffffffffffffffffffffffffffffffffffffffffffffffff60f88460031b161c19169055388080611dcf565b92936020600181928786015181550195019301611db9565b611e729060358b527fcfa4bec1d3298408bb5afcfcd9c430549c5b31f8aa5c5848151c0a55f473c34d8780860160051c82019260208710611186570160051c0190613621565b38611459565b6101007fffffffffffffffffffffffffffffffffffffffffffffffffffffffffffff00ff875416178655611424565b8480fd5b823573ffffffffffffffffffffffffffffffffffffffff81168103611ed8578152602092830192016113ea565b8880fd5b50346101715760207ffffffffffffffffffffffffffffffffffffffffffffffffffffffffffffffffc36011261017157604060209173ffffffffffffffffffffffffffffffffffffffff611f2e612435565b168152603383522054604051908152f35b50346101715760a07ffffffffffffffffffffffffffffffffffffffffffffffffffffffffffffffffc36011261017157611f77612435565b611f7f612458565b67ffffffffffffffff91606435838111611ea757611fa1903690600401612537565b90608435938411611ea757611fbd610168943690600401612537565b92611fcb6101f783336125ff565b60443591612ab1565b503461017157807ffffffffffffffffffffffffffffffffffffffffffffffffffffffffffffffffc36011261017157602060405160018152f35b503461017157807ffffffffffffffffffffffffffffffffffffffffffffffffffffffffffffffffc36011261017157602060405160128152f35b50346101715760607ffffffffffffffffffffffffffffffffffffffffffffffffffffffffffffffffc36011261017157612080612435565b90612089612458565b9160443573ffffffffffffffffffffffffffffffffffffffff82168352603b602052604083203384526020526040832054937fffffffffffffffffffffffffffffffffffffffffffffffffffffffffffffffff850361210c575b6104da9450604051926120f5846124be565b84845260405194612105866124be565b8552612722565b81851061212857612123826104da9603338561317b565b6120e3565b60646040517f08c379a000000000000000000000000000000000000000000000000000000000815260206004820152601e60248201527f4552433737373a20696e73756666696369656e7420616c6c6f77616e636500006044820152fd5b503461017157807ffffffffffffffffffffffffffffffffffffffffffffffffffffffffffffffffc360112610171576020603454604051908152f35b50346101715760407ffffffffffffffffffffffffffffffffffffffffffffffffffffffffffffffffc360112610171576104da6121fd612435565b602435903361317b565b503461017157807ffffffffffffffffffffffffffffffffffffffffffffffffffffffffffffffffc360112610171576040519080603554612247816125ac565b8085529160019180831690811561063c5750600114612270576105dd856105c9818703826124f6565b9250603583527fcfa4bec1d3298408bb5afcfcd9c430549c5b31f8aa5c5848151c0a55f473c34d5b8284106122b35750505081016020016105c9826105dd6105b9565b80546020858701810191909152909301928101612298565b90503461016d57817ffffffffffffffffffffffffffffffffffffffffffffffffffffffffffffffffc36011261016d57906037548083526020918284018092603783527f42a7b7dd785cd69714a189dffb3fd7d7174edc9ece837694ce50f7078f7c31ae90835b81811061239c57505050846123489103856124f6565b60405193838594850191818652518092526040850193925b82811061236f57505050500390f35b835173ffffffffffffffffffffffffffffffffffffffff1685528695509381019392810192600101612360565b825473ffffffffffffffffffffffffffffffffffffffff1684529286019260019283019201612332565b91908251928382526000905b84821061241d5750601f84602094957fffffffffffffffffffffffffffffffffffffffffffffffffffffffffffffffe09311612410575b0116010190565b6000858286010152612409565b906020908180828501015190828601015201906123d2565b6004359073ffffffffffffffffffffffffffffffffffffffff82168203610e3257565b6024359073ffffffffffffffffffffffffffffffffffffffff82168203610e3257565b67ffffffffffffffff811161248f57604052565b7f4e487b7100000000000000000000000000000000000000000000000000000000600052604160045260246000fd5b6020810190811067ffffffffffffffff82111761248f57604052565b6040810190811067ffffffffffffffff82111761248f57604052565b90601f7fffffffffffffffffffffffffffffffffffffffffffffffffffffffffffffffe0910116810190811067ffffffffffffffff82111761248f57604052565b81601f82011215610e325780359067ffffffffffffffff821161248f576040519261258a60207fffffffffffffffffffffffffffffffffffffffffffffffffffffffffffffffe0601f86011601856124f6565b82845260208383010111610e3257816000926020809301838601378301015290565b90600182811c921680156125f5575b60208310146125c657565b7f4e487b7100000000000000000000000000000000000000000000000000000000600052602260045260246000fd5b91607f16916125bb565b9073ffffffffffffffffffffffffffffffffffffffff8091169116818114918215612653575b821561263057505090565b909150600052603960205260406000209060005260205260ff6040600020541690565b91506000818152603860205260ff6040822054169081612675575b5091612625565b60ff9150808460409252603a602052818120848252602052205416153861266e565b1561269e57565b60846040517f08c379a000000000000000000000000000000000000000000000000000000000815260206004820152602c60248201527f4552433737373a2063616c6c6572206973206e6f7420616e206f70657261746f60448201527f7220666f7220686f6c64657200000000000000000000000000000000000000006064820152fd5b929391909173ffffffffffffffffffffffffffffffffffffffff92838516948515612a2d578482169485156129aa5761275f848987868633613375565b6000958787526020906033825260409889892054888110612927579082818a7f06b541ddaa720db2b10a4d0cdac39b8d360425fc073085fac19bc826146779878f8f908f828f9382878a9c8f6033908c6127d79852520382822055898152206127c987825461316f565b905551928392339684612da9565b0390a47fddf252ad1be2c89b69c2b068fc378daa952ba7f163c4a11628f55a4df523b3ef848c518b8152a38851907faabbb8ca00000000000000000000000000000000000000000000000000000000825260048201527fb281fc8c12954d22544db45de3159a39272895b169a852b314f9cc762e44c53b60248201528181604481731820a4b7618bde71dce8cdc73aab6c95905fad245afa91821561291d578892612900575b5050169283156128f657833b15610fb95785949392916128cd869289519a8b97889687957e23de29000000000000000000000000000000000000000000000000000000008752336004880161331d565b03925af19182156128ec5750506128e15750565b6128ea9061247b565b565b51903d90823e3d90fd5b5050505050505050565b6129169250803d10610f1557610f0781836124f6565b388061287d565b89513d8a823e3d90fd5b6084848c51907f08c379a00000000000000000000000000000000000000000000000000000000082526004820152602760248201527f4552433737373a207472616e7366657220616d6f756e7420657863656564732060448201527f62616c616e6365000000000000000000000000000000000000000000000000006064820152fd5b60846040517f08c379a0000000000000000000000000000000000000000000000000000000008152602060048201526024808201527f4552433737373a207472616e7366657220746f20746865207a65726f2061646460448201527f72657373000000000000000000000000000000000000000000000000000000006064820152fd5b60846040517f08c379a000000000000000000000000000000000000000000000000000000000815260206004820152602660248201527f4552433737373a207472616e736665722066726f6d20746865207a65726f206160448201527f64647265737300000000000000000000000000000000000000000000000000006064820152fd5b929391909173ffffffffffffffffffffffffffffffffffffffff92838516948515612a2d578482169283156129aa57612aee818987868633613375565b6000958787526020946033865260409889892054888110612d26579082818a7f06b541ddaa720db2b10a4d0cdac39b8d360425fc073085fac19bc826146779878f8f908f828f9382878f969c60338c9e8c612b599852520382822055898152206127c987825461316f565b0390a47fddf252ad1be2c89b69c2b068fc378daa952ba7f163c4a11628f55a4df523b3ef888c518b8152a38851907faabbb8ca00000000000000000000000000000000000000000000000000000000825260048201527fb281fc8c12954d22544db45de3159a39272895b169a852b314f9cc762e44c53b60248201528581604481731820a4b7618bde71dce8cdc73aab6c95905fad245afa90811561291d578891612d09575b5016938415612c4f5750833b15610fb95785949392916128cd869289519a8b97889687957e23de29000000000000000000000000000000000000000000000000000000008752336004880161331d565b97505050925050503b612c60575050565b60a4925051907f08c379a00000000000000000000000000000000000000000000000000000000082526004820152604d60248201527f4552433737373a20746f6b656e20726563697069656e7420636f6e747261637460448201527f20686173206e6f20696d706c656d656e74657220666f7220455243373737546f60648201527f6b656e73526563697069656e74000000000000000000000000000000000000006084820152fd5b612d209150863d8811610f1557610f0781836124f6565b38612bff565b6084888c51907f08c379a00000000000000000000000000000000000000000000000000000000082526004820152602760248201527f4552433737373a207472616e7366657220616d6f756e7420657863656564732060448201527f62616c616e6365000000000000000000000000000000000000000000000000006064820152fd5b91612dc690612dd4949284526060602085015260608401906123c6565b9160408184039101526123c6565b90565b9290919273ffffffffffffffffffffffffffffffffffffffff8091169283156130b55760408051927faabbb8ca0000000000000000000000000000000000000000000000000000000084528560048501527f29ddb589b1fb5fc7cf394961c1adf5f8c6454761adf795e67fe149f658abe89560248501526020938481604481731820a4b7618bde71dce8cdc73aab6c95905fad245afa9081156130aa5760009161308d575b501680612fcd575b5084600052603383528060002054828110612f4a5782908660005260338552038160002055603454828110612f1b576000967fa78a9be3a7b862d26933ad85fb11d80ef66b8f972d7cbba06621d583943a4098612f117fddf252ad1be2c89b69c2b068fc378daa952ba7f163c4a11628f55a4df523b3ef97868a9503603455855191829133958984612da9565b0390a351908152a3565b7f4e487b7100000000000000000000000000000000000000000000000000000000600052601160045260246000fd5b6084848351907f08c379a00000000000000000000000000000000000000000000000000000000082526004820152602360248201527f4552433737373a206275726e20616d6f756e7420657863656564732062616c6160448201527f6e636500000000000000000000000000000000000000000000000000000000006064820152fd5b803b15610e325760006130346130649289838a8751968795869485937f75ab978200000000000000000000000000000000000000000000000000000000855233600486015260248501528460448501528b606485015260c0608485015260c48401906123c6565b7ffffffffffffffffffffffffffffffffffffffffffffffffffffffffffffffffc8382030160a48401528c6123c6565b03925af180156130825715612e845761307c9061247b565b38612e84565b82513d6000823e3d90fd5b6130a49150853d8711610f1557610f0781836124f6565b38612e7c565b83513d6000823e3d90fd5b60846040517f08c379a000000000000000000000000000000000000000000000000000000000815260206004820152602260248201527f4552433737373a206275726e2066726f6d20746865207a65726f20616464726560448201527f73730000000000000000000000000000000000000000000000000000000000006064820152fd5b7fffffffffffffffffffffffffffffffffffffffffffff2c3de43133125effffff8111612f1b5769d3c21bcecceda10000000190565b81198111612f1b570190565b73ffffffffffffffffffffffffffffffffffffffff80911691821561326d57169182156131e95760207f8c5be1e5ebec7d5bd14f71427d1e84f3dd0314c0f7b2291e5b200ac8c7c3b9259183600052603b8252604060002085600052825280604060002055604051908152a3565b60846040517f08c379a000000000000000000000000000000000000000000000000000000000815260206004820152602360248201527f4552433737373a20617070726f766520746f20746865207a65726f206164647260448201527f65737300000000000000000000000000000000000000000000000000000000006064820152fd5b60846040517f08c379a000000000000000000000000000000000000000000000000000000000815260206004820152602560248201527f4552433737373a20617070726f76652066726f6d20746865207a65726f20616460448201527f64726573730000000000000000000000000000000000000000000000000000006064820152fd5b90816020910312610e32575173ffffffffffffffffffffffffffffffffffffffff81168103610e325790565b949161336793612dd497959273ffffffffffffffffffffffffffffffffffffffff92838092168952166020880152166040860152606085015260c0608085015260c08401906123c6565b9160a08184039101526123c6565b9192946040517faabbb8ca00000000000000000000000000000000000000000000000000000000815273ffffffffffffffffffffffffffffffffffffffff9081841660048201527f29ddb589b1fb5fc7cf394961c1adf5f8c6454761adf795e67fe149f658abe8956024820152602081604481731820a4b7618bde71dce8cdc73aab6c95905fad245afa908115610e265760009161348f575b50169283613420575b50505050505050565b833b15610e3257613466600096928793604051998a98899788967f75ab97820000000000000000000000000000000000000000000000000000000088526004880161331d565b03925af18015610e2657613480575b808080808080613417565b6134899061247b565b38613475565b6134a7915060203d8111610f1557610f0781836124f6565b3861340e565b156134b457565b60846040517f08c379a000000000000000000000000000000000000000000000000000000000815260206004820152602e60248201527f496e697469616c697a61626c653a20636f6e747261637420697320616c72656160448201527f647920696e697469616c697a65640000000000000000000000000000000000006064820152fd5b60005460ff8160081c1660001461355a5750613555303b156134ad565b600090565b7fffffffffffffffffffffffffffffffffffffffffffffffffffffffffffffff008161358c600160ff819516106134ad565b1617600055600190565b1561359d57565b60846040517f08c379a000000000000000000000000000000000000000000000000000000000815260206004820152602b60248201527f496e697469616c697a61626c653a20636f6e7472616374206973206e6f74206960448201527f6e697469616c697a696e670000000000000000000000000000000000000000006064820152fd5b81811061362c575050565b6000815560010161362156fea2646970667358221220e010d3345f47702a6394a9542548f94c541264dcfe6f6d105fdd12e4bd2f992364736f6c634300080f0033",
  "linkReferences": {},
  "deployedLinkReferences": {}
}