{
  "_format": "hh-sol-artifact-1",
  "contractName": "TestToken777",
  "sourceName": "contracts/test/TestToken777.sol",
  "abi": [
    {
      "anonymous": false,
      "inputs": [
        {
          "indexed": true,
          "internalType": "address",
          "name": "owner",
          "type": "address"
        },
        {
          "indexed": true,
          "internalType": "address",
          "name": "spender",
          "type": "address"
        },
        {
          "indexed": false,
          "internalType": "uint256",
          "name": "value",
          "type": "uint256"
        }
      ],
      "name": "Approval",
      "type": "event"
    },
    {
      "anonymous": false,
      "inputs": [
        {
          "indexed": true,
          "internalType": "address",
          "name": "operator",
          "type": "address"
        },
        {
          "indexed": true,
          "internalType": "address",
          "name": "tokenHolder",
          "type": "address"
        }
      ],
      "name": "AuthorizedOperator",
      "type": "event"
    },
    {
      "anonymous": false,
      "inputs": [
        {
          "indexed": true,
          "internalType": "address",
          "name": "operator",
          "type": "address"
        },
        {
          "indexed": true,
          "internalType": "address",
          "name": "from",
          "type": "address"
        },
        {
          "indexed": false,
          "internalType": "uint256",
          "name": "amount",
          "type": "uint256"
        },
        {
          "indexed": false,
          "internalType": "bytes",
          "name": "data",
          "type": "bytes"
        },
        {
          "indexed": false,
          "internalType": "bytes",
          "name": "operatorData",
          "type": "bytes"
        }
      ],
      "name": "Burned",
      "type": "event"
    },
    {
      "anonymous": false,
      "inputs": [
        {
          "indexed": false,
          "internalType": "uint8",
          "name": "version",
          "type": "uint8"
        }
      ],
      "name": "Initialized",
      "type": "event"
    },
    {
      "anonymous": false,
      "inputs": [
        {
          "indexed": true,
          "internalType": "address",
          "name": "operator",
          "type": "address"
        },
        {
          "indexed": true,
          "internalType": "address",
          "name": "to",
          "type": "address"
        },
        {
          "indexed": false,
          "internalType": "uint256",
          "name": "amount",
          "type": "uint256"
        },
        {
          "indexed": false,
          "internalType": "bytes",
          "name": "data",
          "type": "bytes"
        },
        {
          "indexed": false,
          "internalType": "bytes",
          "name": "operatorData",
          "type": "bytes"
        }
      ],
      "name": "Minted",
      "type": "event"
    },
    {
      "anonymous": false,
      "inputs": [
        {
          "indexed": true,
          "internalType": "address",
          "name": "operator",
          "type": "address"
        },
        {
          "indexed": true,
          "internalType": "address",
          "name": "tokenHolder",
          "type": "address"
        }
      ],
      "name": "RevokedOperator",
      "type": "event"
    },
    {
      "anonymous": false,
      "inputs": [
        {
          "indexed": true,
          "internalType": "address",
          "name": "operator",
          "type": "address"
        },
        {
          "indexed": true,
          "internalType": "address",
          "name": "from",
          "type": "address"
        },
        {
          "indexed": true,
          "internalType": "address",
          "name": "to",
          "type": "address"
        },
        {
          "indexed": false,
          "internalType": "uint256",
          "name": "amount",
          "type": "uint256"
        },
        {
          "indexed": false,
          "internalType": "bytes",
          "name": "data",
          "type": "bytes"
        },
        {
          "indexed": false,
          "internalType": "bytes",
          "name": "operatorData",
          "type": "bytes"
        }
      ],
      "name": "Sent",
      "type": "event"
    },
    {
      "anonymous": false,
      "inputs": [
        {
          "indexed": true,
          "internalType": "address",
          "name": "from",
          "type": "address"
        },
        {
          "indexed": true,
          "internalType": "address",
          "name": "to",
          "type": "address"
        },
        {
          "indexed": false,
          "internalType": "uint256",
          "name": "value",
          "type": "uint256"
        }
      ],
      "name": "Transfer",
      "type": "event"
    },
    {
      "inputs": [
        {
          "internalType": "address",
          "name": "holder",
          "type": "address"
        },
        {
          "internalType": "address",
          "name": "spender",
          "type": "address"
        }
      ],
      "name": "allowance",
      "outputs": [
        {
          "internalType": "uint256",
          "name": "",
          "type": "uint256"
        }
      ],
      "stateMutability": "view",
      "type": "function"
    },
    {
      "inputs": [
        {
          "internalType": "address",
          "name": "spender",
          "type": "address"
        },
        {
          "internalType": "uint256",
          "name": "value",
          "type": "uint256"
        }
      ],
      "name": "approve",
      "outputs": [
        {
          "internalType": "bool",
          "name": "",
          "type": "bool"
        }
      ],
      "stateMutability": "nonpayable",
      "type": "function"
    },
    {
      "inputs": [
        {
          "internalType": "address",
          "name": "operator",
          "type": "address"
        }
      ],
      "name": "authorizeOperator",
      "outputs": [],
      "stateMutability": "nonpayable",
      "type": "function"
    },
    {
      "inputs": [
        {
          "internalType": "address",
          "name": "tokenHolder",
          "type": "address"
        }
      ],
      "name": "balanceOf",
      "outputs": [
        {
          "internalType": "uint256",
          "name": "",
          "type": "uint256"
        }
      ],
      "stateMutability": "view",
      "type": "function"
    },
    {
      "inputs": [
        {
          "internalType": "uint256",
          "name": "amount",
          "type": "uint256"
        },
        {
          "internalType": "bytes",
          "name": "data",
          "type": "bytes"
        }
      ],
      "name": "burn",
      "outputs": [],
      "stateMutability": "nonpayable",
      "type": "function"
    },
    {
      "inputs": [],
      "name": "decimals",
      "outputs": [
        {
          "internalType": "uint8",
          "name": "",
          "type": "uint8"
        }
      ],
      "stateMutability": "pure",
      "type": "function"
    },
    {
      "inputs": [],
      "name": "defaultOperators",
      "outputs": [
        {
          "internalType": "address[]",
          "name": "",
          "type": "address[]"
        }
      ],
      "stateMutability": "view",
      "type": "function"
    },
    {
      "inputs": [],
      "name": "granularity",
      "outputs": [
        {
          "internalType": "uint256",
          "name": "",
          "type": "uint256"
        }
      ],
      "stateMutability": "view",
      "type": "function"
    },
    {
      "inputs": [
        {
          "internalType": "string",
          "name": "name",
          "type": "string"
        },
        {
          "internalType": "string",
          "name": "symbol",
          "type": "string"
        },
        {
          "internalType": "address[]",
          "name": "defaultOperators",
          "type": "address[]"
        },
        {
          "internalType": "uint256",
          "name": "initialSupply",
          "type": "uint256"
        },
        {
          "internalType": "address",
          "name": "owner",
          "type": "address"
        }
      ],
      "name": "initialize",
      "outputs": [],
      "stateMutability": "nonpayable",
      "type": "function"
    },
    {
      "inputs": [],
      "name": "initialize",
      "outputs": [],
      "stateMutability": "nonpayable",
      "type": "function"
    },
    {
      "inputs": [
        {
          "internalType": "address",
          "name": "operator",
          "type": "address"
        },
        {
          "internalType": "address",
          "name": "tokenHolder",
          "type": "address"
        }
      ],
      "name": "isOperatorFor",
      "outputs": [
        {
          "internalType": "bool",
          "name": "",
          "type": "bool"
        }
      ],
      "stateMutability": "view",
      "type": "function"
    },
    {
      "inputs": [],
      "name": "name",
      "outputs": [
        {
          "internalType": "string",
          "name": "",
          "type": "string"
        }
      ],
      "stateMutability": "view",
      "type": "function"
    },
    {
      "inputs": [
        {
          "internalType": "address",
          "name": "account",
          "type": "address"
        },
        {
          "internalType": "uint256",
          "name": "amount",
          "type": "uint256"
        },
        {
          "internalType": "bytes",
          "name": "data",
          "type": "bytes"
        },
        {
          "internalType": "bytes",
          "name": "operatorData",
          "type": "bytes"
        }
      ],
      "name": "operatorBurn",
      "outputs": [],
      "stateMutability": "nonpayable",
      "type": "function"
    },
    {
      "inputs": [
        {
          "internalType": "address",
          "name": "sender",
          "type": "address"
        },
        {
          "internalType": "address",
          "name": "recipient",
          "type": "address"
        },
        {
          "internalType": "uint256",
          "name": "amount",
          "type": "uint256"
        },
        {
          "internalType": "bytes",
          "name": "data",
          "type": "bytes"
        },
        {
          "internalType": "bytes",
          "name": "operatorData",
          "type": "bytes"
        }
      ],
      "name": "operatorSend",
      "outputs": [],
      "stateMutability": "nonpayable",
      "type": "function"
    },
    {
      "inputs": [
        {
          "internalType": "address",
          "name": "operator",
          "type": "address"
        }
      ],
      "name": "revokeOperator",
      "outputs": [],
      "stateMutability": "nonpayable",
      "type": "function"
    },
    {
      "inputs": [
        {
          "internalType": "address",
          "name": "recipient",
          "type": "address"
        },
        {
          "internalType": "uint256",
          "name": "amount",
          "type": "uint256"
        },
        {
          "internalType": "bytes",
          "name": "data",
          "type": "bytes"
        }
      ],
      "name": "send",
      "outputs": [],
      "stateMutability": "nonpayable",
      "type": "function"
    },
    {
      "inputs": [],
      "name": "symbol",
      "outputs": [
        {
          "internalType": "string",
          "name": "",
          "type": "string"
        }
      ],
      "stateMutability": "view",
      "type": "function"
    },
    {
      "inputs": [],
      "name": "totalSupply",
      "outputs": [
        {
          "internalType": "uint256",
          "name": "",
          "type": "uint256"
        }
      ],
      "stateMutability": "view",
      "type": "function"
    },
    {
      "inputs": [
        {
          "internalType": "address",
          "name": "recipient",
          "type": "address"
        },
        {
          "internalType": "uint256",
          "name": "amount",
          "type": "uint256"
        }
      ],
      "name": "transfer",
      "outputs": [
        {
          "internalType": "bool",
          "name": "",
          "type": "bool"
        }
      ],
      "stateMutability": "nonpayable",
      "type": "function"
    },
    {
      "inputs": [
        {
          "internalType": "address",
          "name": "holder",
          "type": "address"
        },
        {
          "internalType": "address",
          "name": "recipient",
          "type": "address"
        },
        {
          "internalType": "uint256",
          "name": "amount",
          "type": "uint256"
        }
      ],
      "name": "transferFrom",
      "outputs": [
        {
          "internalType": "bool",
          "name": "",
          "type": "bool"
        }
      ],
      "stateMutability": "nonpayable",
      "type": "function"
    }
  ],
  "bytecode": "0x60808060405234610016576137b5908161001c8239f35b600080fdfe608080604052600436101561001357600080fd5b600090813560e01c90816306e485381461246c5750806306fdde03146123a8578063095ea7b31461236357806318160ddd1461232757806323b872dd146121e9578063313ce567146121af578063556f0dc71461217557806362ad1b83146120dc57806370a0823114612079578063768f950a146113785780638129fc1c1461081f578063959b8c3f1461068457806395d89b411461055f5780639bd9bbc6146104e5578063a9059cbb14610475578063d95b637114610420578063dd62ed3e146103a5578063fad8b32a14610209578063fc673c4f146101745763fe9d9303146100fd57600080fd5b346101715760407ffffffffffffffffffffffffffffffffffffffffffffffffffffffffffffffffc3601126101715760243567ffffffffffffffff811161016d5761014f6101689136906004016126d8565b6040519061015c8261265f565b83825260043533612f7c565b604051f35b5080fd5b80fd5b50346101715760807ffffffffffffffffffffffffffffffffffffffffffffffffffffffffffffffffc360112610171576101ac6125d6565b67ffffffffffffffff90604435828111610205576101ce9036906004016126d8565b606435928311610205576101e96101689336906004016126d8565b916101fc6101f782336127a0565b612838565b60243590612f7c565b8380fd5b5034610171576020807ffffffffffffffffffffffffffffffffffffffffffffffffffffffffffffffffc36011261016d5773ffffffffffffffffffffffffffffffffffffffff6102576125d6565b16903382146103215781835260388152604083205460ff16156102e057338352603a815260408320908260005252604060002060017fffffffffffffffffffffffffffffffffffffffffffffffffffffffffffffff008254161790555b6040519033907f50546e66e5f44d728365dc3908c63bc5cfeeab470722c1677e3073a6ac294aa18484a3f35b338352603981526040832090826000525260406000207fffffffffffffffffffffffffffffffffffffffffffffffffffffffffffffff0081541690556102b4565b608490604051907f08c379a00000000000000000000000000000000000000000000000000000000082526004820152602160248201527f4552433737373a207265766f6b696e672073656c66206173206f70657261746f60448201527f72000000000000000000000000000000000000000000000000000000000000006064820152fd5b50346101715760407ffffffffffffffffffffffffffffffffffffffffffffffffffffffffffffffffc360112610171576103dd6125d6565b60406103e76125f9565b9273ffffffffffffffffffffffffffffffffffffffff8093168152603b6020522091166000526020526020604060002054604051908152f35b50346101715760407ffffffffffffffffffffffffffffffffffffffffffffffffffffffffffffffffc36011261017157602061046b61045d6125d6565b6104656125f9565b906127a0565b6040519015158152f35b50346101715760407ffffffffffffffffffffffffffffffffffffffffffffffffffffffffffffffffc360112610171576104da906104b16125d6565b604051906104be8261265f565b828252604051926104ce8461265f565b835260243590336128c3565b602060405160018152f35b50346101715760607ffffffffffffffffffffffffffffffffffffffffffffffffffffffffffffffffc3601126101715761051d6125d6565b6044359067ffffffffffffffff821161055b576105416101689236906004016126d8565b6040519161054e8361265f565b8483526024359033612c56565b8280fd5b503461017157807ffffffffffffffffffffffffffffffffffffffffffffffffffffffffffffffffc36011261017157604051908060365461059f8161274d565b8085529160019180831690811561063c57506001146105e1575b6105dd856105c981870382612697565b604051918291602083526020830190612567565b0390f35b9250603683527f4a11f94e20a93c79f6ec743a1954ec4fc2c08429ae2122118bf234b2185c81b85b8284106106245750505081016020016105c9826105dd6105b9565b80546020858701810191909152909301928101610609565b8695506105dd969350602092506105c99491507fffffffffffffffffffffffffffffffffffffffffffffffffffffffffffffff001682840152151560051b82010192936105b9565b5034610171576020807ffffffffffffffffffffffffffffffffffffffffffffffffffffffffffffffffc36011261016d5773ffffffffffffffffffffffffffffffffffffffff6106d26125d6565b169081331461079c5781835260388152604083205460ff161561075857338352603a81526040832090826000525260406000207fffffffffffffffffffffffffffffffffffffffffffffffffffffffffffffff0081541690555b6040519033907ff4caeb2d6ca8932a215a353d0703c326ec2d81fc68170f320eb2ab49e9df61f98484a3f35b3383526039815260408320908260005252604060002060017fffffffffffffffffffffffffffffffffffffffffffffffffffffffffffffff0082541617905561072c565b608490604051907f08c379a000000000000000000000000000000000000000000000000000000000825260048201526024808201527f4552433737373a20617574686f72697a696e672073656c66206173206f70657260448201527f61746f72000000000000000000000000000000000000000000000000000000006064820152fd5b5034610171577ffffffffffffffffffffffffffffffffffffffffffffffffffffffffffffffffc818136011261016d5781549060ff8260081c161580809161136b575b8015611354575b61087290613652565b6001927fffffffffffffffffffffffffffffffffffffffffffffffffffffffffffffff00908285838316178755611326575b50604051926108b28461267b565b600c84526020937f54657374546f6b656e373737000000000000000000000000000000000000000085820152604051906108eb8261267b565b600382527f54373700000000000000000000000000000000000000000000000000000000008683015261092d60ff895460081c16610928816136dd565b6136dd565b80519167ffffffffffffffff928381116112f9578061094d60355461274d565b938b8a601f968781116112ad575b50505089908583116001146111f3578c926111e8575b50507fffffffffffffffffffffffffffffffffffffffffffffffffffffffffffffffff828b1b9260031b1c1916176035555b80519283116111bb579082916109ba60365461274d565b828111611166575b50879183116001146110ac5789926110a1575b50507fffffffffffffffffffffffffffffffffffffffffffffffffffffffffffffffff82881b9260031b1c1916176036555b6060918251680100000000000000008111611074576037548160375580821061103e575b5060378852608090887f42a7b7dd785cd69714a189dffb3fd7d7174edc9ece837694ce50f7078f7c31ae89845b8a858510610fef5750509250505088905b610f56575b505050731820a4b7618bde71dce8cdc73aab6c95905fad24803b15610f5257604051917f29965a1d00000000000000000000000000000000000000000000000000000000808452306004850152886024917fac7fbab5f54a3ca8194167523c6753bfeb96a445279294b6125b68cce21770548387015260449530878201528281606481838a5af1908115610f47578391610f33575b5050843b1561016d576040519081523060048201527faea199e31a596269b42cdafd93407f14436db6e4cad65417994c2eb37381e05a838201523086820152818160648183895af18015610f2857610f10575b5060ff610b67915460081c166136dd565b60405193610b748561265f565b89855260405193610b848561265f565b8a85523315610eb557888291610b9b6034546132de565b603455338d526033825260408d20610bb381546132de565b9055604051928380927faabbb8ca0000000000000000000000000000000000000000000000000000000082523360048301527fb281fc8c12954d22544db45de3159a39272895b169a852b314f9cc762e44c53b888301525afa8015610dbf5773ffffffffffffffffffffffffffffffffffffffff91600091610e88575b50168015610dd057803b15610dcb576000808094610cb5604051978896879586947e23de29000000000000000000000000000000000000000000000000000000008652336004870152850152339084015269d3c21bcecceda1000000606484015260c06084840152610ca560c484018c612567565b908382030160a484015289612567565b03925af18015610dbf57610db0575b505b7f2fe5be0146f74c5bce36c0b80911af6c7d86ff27e89d5cfa61fc681327954e5d610d0a6040519369d3c21bcecceda1000000958686528089870152850190612567565b92808403604082015280610d2033953395612567565b0390a3604051908152847fddf252ad1be2c89b69c2b068fc378daa952ba7f163c4a11628f55a4df523b3ef843393a3610d5a575b82604051f35b7f7f26b83ff96e1f2b6a682f133852f6798a09c465da95921460cefb3847402498917fffffffffffffffffffffffffffffffffffffffffffffffffffffffffffff00ff8454168455604051908152a13880610d54565b610db99061261c565b38610cc4565b6040513d6000823e3d90fd5b600080fd5b509150333b610de0575050610cc6565b7f4552433737373a20746f6b656e20726563697069656e7420636f6e747261637460a492604d8993604051947f08c379a000000000000000000000000000000000000000000000000000000000865260048601528401528201527f20686173206e6f20696d706c656d656e74657220666f7220455243373737546f60648201527f6b656e73526563697069656e74000000000000000000000000000000000000006084820152fd5b610ea891508a3d8c11610eae575b610ea08183612697565b810190613496565b38610c30565b503d610e96565b6064837f4552433737373a206d696e7420746f20746865207a65726f2061646472657373848c604051937f08c379a0000000000000000000000000000000000000000000000000000000008552816004860152840152820152fd5b610f199061261c565b610f24578838610b56565b8880fd5b6040513d84823e3d90fd5b610f3c9061261c565b61016d578138610b03565b6040513d85823e3d90fd5b8680fd5b8451811015610fea5773ffffffffffffffffffffffffffffffffffffffff828260051b0151168952603887526040892088848254161790557fffffffffffffffffffffffffffffffffffffffffffffffffffffffffffffffff8114610fbd57870187610a69565b6024897f4e487b710000000000000000000000000000000000000000000000000000000081526011600452fd5b610a6e565b8173ffffffffffffffffffffffffffffffffffffffff849351167fffffffffffffffffffffffff0000000000000000000000000000000000000000865416178555019201920191908a90610a58565b61106e90827f42a7b7dd785cd69714a189dffb3fd7d7174edc9ece837694ce50f7078f7c31ae9182019101613768565b38610a2b565b6024887f4e487b710000000000000000000000000000000000000000000000000000000081526041600452fd5b0151905038806109d5565b907fffffffffffffffffffffffffffffffffffffffffffffffffffffffffffffffe08994169160368b527f4a11f94e20a93c79f6ec743a1954ec4fc2c08429ae2122118bf234b2185c81b8928b5b8a8282106111505750508411611119575b505050811b01603655610a07565b01517fffffffffffffffffffffffffffffffffffffffffffffffffffffffffffffffff60f88460031b161c1916905538808061110b565b8385015186558c979095019493840193016110fa565b6111ac9060368c527f4a11f94e20a93c79f6ec743a1954ec4fc2c08429ae2122118bf234b2185c81b88480870160051c8201928c88106111b2575b0160051c0190613768565b386109c2565b925081926111a1565b6024897f4e487b710000000000000000000000000000000000000000000000000000000081526041600452fd5b015190503880610971565b908c917fffffffffffffffffffffffffffffffffffffffffffffffffffffffffffffffe08d9516603584527fcfa4bec1d3298408bb5afcfcd9c430549c5b31f8aa5c5848151c0a55f473c34d935b8d8282106112975750508411611260575b505050811b016035556109a3565b01517fffffffffffffffffffffffffffffffffffffffffffffffffffffffffffffffff60f88460031b161c19169055388080611252565b8385015186558f97909501949384019301611241565b60356112f19352877fcfa4bec1d3298408bb5afcfcd9c430549c5b31f8aa5c5848151c0a55f473c34d9181870160051c83019387106111b2570160051c0190613768565b8b8a3861095b565b60248a7f4e487b710000000000000000000000000000000000000000000000000000000081526041600452fd5b7fffffffffffffffffffffffffffffffffffffffffffffffffffffffffffff000016610101178555386108a4565b50303b158015610869575060ff8316600114610869565b50600160ff841610610862565b50346101715760a07ffffffffffffffffffffffffffffffffffffffffffffffffffffffffffffffffc3601126101715760043567ffffffffffffffff811161016d576113c89036906004016126d8565b9060243567ffffffffffffffff811161016d576113e99036906004016126d8565b60443567ffffffffffffffff811161055b573660238201121561055b5780600401359167ffffffffffffffff8311611cee578260051b91604051936114316020850186612697565b845260208401906024829482010190368211610f5257602401915b8183106120485750505073ffffffffffffffffffffffffffffffffffffffff60843516608435036102055783549460ff8660081c16159586809761203b575b8015612024575b61149b90613652565b8660017fffffffffffffffffffffffffffffffffffffffffffffffffffffffffffffff008316178755611ff6575b506114de60ff865460081c16610928816136dd565b80519067ffffffffffffffff8211611fc95781906114fd60355461274d565b601f8111611f7b575b50602090601f8311600114611e99578792611e8e575b50507fffffffffffffffffffffffffffffffffffffffffffffffffffffffffffffffff8260011b9260031b1c1916176035555b80519067ffffffffffffffff8211611e6157819061156e60365461274d565b601f8111611e08575b50602090601f8311600114611d26578692611d1b575b50507fffffffffffffffffffffffffffffffffffffffffffffffffffffffffffffffff8260011b9260031b1c1916176036555b815190680100000000000000008211611cee5760375482603755808310611cb8575b50603784527f42a7b7dd785cd69714a189dffb3fd7d7174edc9ece837694ce50f7078f7c31ae84915b838310611c675750505050815b81518110156116d15773ffffffffffffffffffffffffffffffffffffffff60208260051b8401015116835260386020526040832060017fffffffffffffffffffffffffffffffffffffffffffffffffffffffffffffff008254161790557fffffffffffffffffffffffffffffffffffffffffffffffffffffffffffffffff81146116a457600101611618565b6024837f4e487b710000000000000000000000000000000000000000000000000000000081526011600452fd5b5050731820a4b7618bde71dce8cdc73aab6c95905fad243b15610171576040517f29965a1d0000000000000000000000000000000000000000000000000000000081523060048201527fac7fbab5f54a3ca8194167523c6753bfeb96a445279294b6125b68cce21770546024820152306044820152818160648183731820a4b7618bde71dce8cdc73aab6c95905fad245af18015610f2857611c58575b5090731820a4b7618bde71dce8cdc73aab6c95905fad243b1561016d57816040517f29965a1d0000000000000000000000000000000000000000000000000000000081523060048201527faea199e31a596269b42cdafd93407f14436db6e4cad65417994c2eb37381e05a6024820152306044820152818160648183731820a4b7618bde71dce8cdc73aab6c95905fad245af18015610f2857611c44575b5060ff61181d915460081c166136dd565b6040516118298161265f565b828152604051906118398261265f565b83825273ffffffffffffffffffffffffffffffffffffffff6084351615611be657611868606435603454613314565b60345573ffffffffffffffffffffffffffffffffffffffff60843516845260336020526040842061189c6064358254613314565b90556040517faabbb8ca00000000000000000000000000000000000000000000000000000000815273ffffffffffffffffffffffffffffffffffffffff6084351660048201527fb281fc8c12954d22544db45de3159a39272895b169a852b314f9cc762e44c53b6024820152602081604481731820a4b7618bde71dce8cdc73aab6c95905fad245afa8015610dbf5773ffffffffffffffffffffffffffffffffffffffff91600091611bc7575b50168015611b1357803b15610dcb57600060405180927e23de2900000000000000000000000000000000000000000000000000000000825233600483015282602483015273ffffffffffffffffffffffffffffffffffffffff608435166044830152606435606483015260c060848301528183816119fd6119cd60c483018a612567565b7ffffffffffffffffffffffffffffffffffffffffffffffffffffffffffffffffc8382030160a48401528a612567565b03925af18015610dbf57611b04575b505b7f2fe5be0146f74c5bce36c0b80911af6c7d86ff27e89d5cfa61fc681327954e5d60405180611a5b73ffffffffffffffffffffffffffffffffffffffff6084351695339560643584612f4e565b0390a36040516064358152827fddf252ad1be2c89b69c2b068fc378daa952ba7f163c4a11628f55a4df523b3ef602073ffffffffffffffffffffffffffffffffffffffff6084351693a3611aae57604051f35b7fffffffffffffffffffffffffffffffffffffffffffffffffffffffffffff00ff81541681557f7f26b83ff96e1f2b6a682f133852f6798a09c465da95921460cefb3847402498602060405160018152a1604051f35b611b0d9061261c565b38611a0c565b506084353b15611a0e5760a46040517f08c379a000000000000000000000000000000000000000000000000000000000815260206004820152604d60248201527f4552433737373a20746f6b656e20726563697069656e7420636f6e747261637460448201527f20686173206e6f20696d706c656d656e74657220666f7220455243373737546f60648201527f6b656e73526563697069656e74000000000000000000000000000000000000006084820152fd5b611be0915060203d602011610eae57610ea08183612697565b38611949565b60646040517f08c379a000000000000000000000000000000000000000000000000000000000815260206004820152602060248201527f4552433737373a206d696e7420746f20746865207a65726f20616464726573736044820152fd5b611c4d9061261c565b61016d57813861180c565b611c619061261c565b3861176e565b600160208273ffffffffffffffffffffffffffffffffffffffff839451167fffffffffffffffffffffffff00000000000000000000000000000000000000008654161785550192019201919061160b565b611ce890837f42a7b7dd785cd69714a189dffb3fd7d7174edc9ece837694ce50f7078f7c31ae9182019101613768565b386115e2565b6024847f4e487b710000000000000000000000000000000000000000000000000000000081526041600452fd5b01519050388061158d565b9250603686527f4a11f94e20a93c79f6ec743a1954ec4fc2c08429ae2122118bf234b2185c81b89086935b7fffffffffffffffffffffffffffffffffffffffffffffffffffffffffffffffe084168510611ded5760019450837fffffffffffffffffffffffffffffffffffffffffffffffffffffffffffffffe0811610611db6575b505050811b016036556115c0565b01517fffffffffffffffffffffffffffffffffffffffffffffffffffffffffffffffff60f88460031b161c19169055388080611da8565b81810151835560209485019460019093019290910190611d51565b611e5190603688527f4a11f94e20a93c79f6ec743a1954ec4fc2c08429ae2122118bf234b2185c81b8601f850160051c81019160208610611e57575b601f0160051c0190613768565b38611577565b9091508190611e44565b6024857f4e487b710000000000000000000000000000000000000000000000000000000081526041600452fd5b01519050388061151c565b9250603587527fcfa4bec1d3298408bb5afcfcd9c430549c5b31f8aa5c5848151c0a55f473c34d9087935b7fffffffffffffffffffffffffffffffffffffffffffffffffffffffffffffffe084168510611f605760019450837fffffffffffffffffffffffffffffffffffffffffffffffffffffffffffffffe0811610611f29575b505050811b0160355561154f565b01517fffffffffffffffffffffffffffffffffffffffffffffffffffffffffffffffff60f88460031b161c19169055388080611f1b565b81810151835560209485019460019093019290910190611ec4565b611fc390603589527fcfa4bec1d3298408bb5afcfcd9c430549c5b31f8aa5c5848151c0a55f473c34d601f850160051c81019160208610611e5757601f0160051c0190613768565b38611506565b6024867f4e487b710000000000000000000000000000000000000000000000000000000081526041600452fd5b7fffffffffffffffffffffffffffffffffffffffffffffffffffffffffffff000016610101178555386114c9565b50303b158015611492575060ff8116600114611492565b50600160ff82161061148b565b823573ffffffffffffffffffffffffffffffffffffffff811681036120755781526020928301920161144c565b8780fd5b50346101715760207ffffffffffffffffffffffffffffffffffffffffffffffffffffffffffffffffc36011261017157604060209173ffffffffffffffffffffffffffffffffffffffff6120cb6125d6565b168152603383522054604051908152f35b50346101715760a07ffffffffffffffffffffffffffffffffffffffffffffffffffffffffffffffffc360112610171576121146125d6565b61211c6125f9565b67ffffffffffffffff916064358381116121715761213e9036906004016126d8565b906084359384116121715761215a6101689436906004016126d8565b926121686101f783336127a0565b60443591612c56565b8480fd5b503461017157807ffffffffffffffffffffffffffffffffffffffffffffffffffffffffffffffffc36011261017157602060405160018152f35b503461017157807ffffffffffffffffffffffffffffffffffffffffffffffffffffffffffffffffc36011261017157602060405160128152f35b50346101715760607ffffffffffffffffffffffffffffffffffffffffffffffffffffffffffffffffc360112610171576122216125d6565b9061222a6125f9565b9160443573ffffffffffffffffffffffffffffffffffffffff82168352603b602052604083203384526020526040832054937fffffffffffffffffffffffffffffffffffffffffffffffffffffffffffffffff85036122ad575b6104da9450604051926122968461265f565b848452604051946122a68661265f565b85526128c3565b8185106122c9576122c4826104da96033385613320565b612284565b60646040517f08c379a000000000000000000000000000000000000000000000000000000000815260206004820152601e60248201527f4552433737373a20696e73756666696369656e7420616c6c6f77616e636500006044820152fd5b503461017157807ffffffffffffffffffffffffffffffffffffffffffffffffffffffffffffffffc360112610171576020603454604051908152f35b50346101715760407ffffffffffffffffffffffffffffffffffffffffffffffffffffffffffffffffc360112610171576104da61239e6125d6565b6024359033613320565b503461017157807ffffffffffffffffffffffffffffffffffffffffffffffffffffffffffffffffc3601126101715760405190806035546123e88161274d565b8085529160019180831690811561063c5750600114612411576105dd856105c981870382612697565b9250603583527fcfa4bec1d3298408bb5afcfcd9c430549c5b31f8aa5c5848151c0a55f473c34d5b8284106124545750505081016020016105c9826105dd6105b9565b80546020858701810191909152909301928101612439565b90503461016d57817ffffffffffffffffffffffffffffffffffffffffffffffffffffffffffffffffc36011261016d57906037548083526020918284018092603783527f42a7b7dd785cd69714a189dffb3fd7d7174edc9ece837694ce50f7078f7c31ae90835b81811061253d57505050846124e9910385612697565b60405193838594850191818652518092526040850193925b82811061251057505050500390f35b835173ffffffffffffffffffffffffffffffffffffffff1685528695509381019392810192600101612501565b825473ffffffffffffffffffffffffffffffffffffffff16845292860192600192830192016124d3565b91908251928382526000905b8482106125be5750601f84602094957fffffffffffffffffffffffffffffffffffffffffffffffffffffffffffffffe093116125b1575b0116010190565b60008582860101526125aa565b90602090818082850101519082860101520190612573565b6004359073ffffffffffffffffffffffffffffffffffffffff82168203610dcb57565b6024359073ffffffffffffffffffffffffffffffffffffffff82168203610dcb57565b67ffffffffffffffff811161263057604052565b7f4e487b7100000000000000000000000000000000000000000000000000000000600052604160045260246000fd5b6020810190811067ffffffffffffffff82111761263057604052565b6040810190811067ffffffffffffffff82111761263057604052565b90601f7fffffffffffffffffffffffffffffffffffffffffffffffffffffffffffffffe0910116810190811067ffffffffffffffff82111761263057604052565b81601f82011215610dcb5780359067ffffffffffffffff8211612630576040519261272b60207fffffffffffffffffffffffffffffffffffffffffffffffffffffffffffffffe0601f8601160185612697565b82845260208383010111610dcb57816000926020809301838601378301015290565b90600182811c92168015612796575b602083101461276757565b7f4e487b7100000000000000000000000000000000000000000000000000000000600052602260045260246000fd5b91607f169161275c565b9073ffffffffffffffffffffffffffffffffffffffff80911691168181149182156127f4575b82156127d157505090565b909150600052603960205260406000209060005260205260ff6040600020541690565b91506000818152603860205260ff6040822054169081612816575b50916127c6565b60ff9150808460409252603a602052818120848252602052205416153861280f565b1561283f57565b60846040517f08c379a000000000000000000000000000000000000000000000000000000000815260206004820152602c60248201527f4552433737373a2063616c6c6572206973206e6f7420616e206f70657261746f60448201527f7220666f7220686f6c64657200000000000000000000000000000000000000006064820152fd5b929391909173ffffffffffffffffffffffffffffffffffffffff92838516948515612bd257848216948515612b4f5761290084898786863361351a565b6000958787526020906033825260409889892054888110612acc579082818a7f06b541ddaa720db2b10a4d0cdac39b8d360425fc073085fac19bc826146779878f8f908f828f9382878a9c8f6033908c61297898525203828220558981522061296a878254613314565b905551928392339684612f4e565b0390a47fddf252ad1be2c89b69c2b068fc378daa952ba7f163c4a11628f55a4df523b3ef848c518b8152a38851907faabbb8ca00000000000000000000000000000000000000000000000000000000825260048201527fb281fc8c12954d22544db45de3159a39272895b169a852b314f9cc762e44c53b60248201528181604481731820a4b7618bde71dce8cdc73aab6c95905fad245afa918215612ac2578892612aa5575b505016928315612a9b57833b15612a97578594939291612a6e869289519a8b97889687957e23de2900000000000000000000000000000000000000000000000000000000875233600488016134c2565b03925af1918215612a8d575050612a825750565b612a8b9061261c565b565b51903d90823e3d90fd5b8580fd5b5050505050505050565b612abb9250803d10610eae57610ea08183612697565b3880612a1e565b89513d8a823e3d90fd5b6084848c51907f08c379a00000000000000000000000000000000000000000000000000000000082526004820152602760248201527f4552433737373a207472616e7366657220616d6f756e7420657863656564732060448201527f62616c616e6365000000000000000000000000000000000000000000000000006064820152fd5b60846040517f08c379a0000000000000000000000000000000000000000000000000000000008152602060048201526024808201527f4552433737373a207472616e7366657220746f20746865207a65726f2061646460448201527f72657373000000000000000000000000000000000000000000000000000000006064820152fd5b60846040517f08c379a000000000000000000000000000000000000000000000000000000000815260206004820152602660248201527f4552433737373a207472616e736665722066726f6d20746865207a65726f206160448201527f64647265737300000000000000000000000000000000000000000000000000006064820152fd5b929391909173ffffffffffffffffffffffffffffffffffffffff92838516948515612bd257848216928315612b4f57612c9381898786863361351a565b6000958787526020946033865260409889892054888110612ecb579082818a7f06b541ddaa720db2b10a4d0cdac39b8d360425fc073085fac19bc826146779878f8f908f828f9382878f969c60338c9e8c612cfe98525203828220558981522061296a878254613314565b0390a47fddf252ad1be2c89b69c2b068fc378daa952ba7f163c4a11628f55a4df523b3ef888c518b8152a38851907faabbb8ca00000000000000000000000000000000000000000000000000000000825260048201527fb281fc8c12954d22544db45de3159a39272895b169a852b314f9cc762e44c53b60248201528581604481731820a4b7618bde71dce8cdc73aab6c95905fad245afa908115612ac2578891612eae575b5016938415612df45750833b15612a97578594939291612a6e869289519a8b97889687957e23de2900000000000000000000000000000000000000000000000000000000875233600488016134c2565b97505050925050503b612e05575050565b60a4925051907f08c379a00000000000000000000000000000000000000000000000000000000082526004820152604d60248201527f4552433737373a20746f6b656e20726563697069656e7420636f6e747261637460448201527f20686173206e6f20696d706c656d656e74657220666f7220455243373737546f60648201527f6b656e73526563697069656e74000000000000000000000000000000000000006084820152fd5b612ec59150863d8811610eae57610ea08183612697565b38612da4565b6084888c51907f08c379a00000000000000000000000000000000000000000000000000000000082526004820152602760248201527f4552433737373a207472616e7366657220616d6f756e7420657863656564732060448201527f62616c616e6365000000000000000000000000000000000000000000000000006064820152fd5b91612f6b90612f7994928452606060208501526060840190612567565b916040818403910152612567565b90565b9290919273ffffffffffffffffffffffffffffffffffffffff80911692831561325a5760408051927faabbb8ca0000000000000000000000000000000000000000000000000000000084528560048501527f29ddb589b1fb5fc7cf394961c1adf5f8c6454761adf795e67fe149f658abe89560248501526020938481604481731820a4b7618bde71dce8cdc73aab6c95905fad245afa90811561324f57600091613232575b501680613172575b50846000526033835280600020548281106130ef57829086600052603385520381600020556034548281106130c0576000967fa78a9be3a7b862d26933ad85fb11d80ef66b8f972d7cbba06621d583943a40986130b67fddf252ad1be2c89b69c2b068fc378daa952ba7f163c4a11628f55a4df523b3ef97868a9503603455855191829133958984612f4e565b0390a351908152a3565b7f4e487b7100000000000000000000000000000000000000000000000000000000600052601160045260246000fd5b6084848351907f08c379a00000000000000000000000000000000000000000000000000000000082526004820152602360248201527f4552433737373a206275726e20616d6f756e7420657863656564732062616c6160448201527f6e636500000000000000000000000000000000000000000000000000000000006064820152fd5b803b15610dcb5760006131d96132099289838a8751968795869485937f75ab978200000000000000000000000000000000000000000000000000000000855233600486015260248501528460448501528b606485015260c0608485015260c4840190612567565b7ffffffffffffffffffffffffffffffffffffffffffffffffffffffffffffffffc8382030160a48401528c612567565b03925af180156132275715613029576132219061261c565b38613029565b82513d6000823e3d90fd5b6132499150853d8711610eae57610ea08183612697565b38613021565b83513d6000823e3d90fd5b60846040517f08c379a000000000000000000000000000000000000000000000000000000000815260206004820152602260248201527f4552433737373a206275726e2066726f6d20746865207a65726f20616464726560448201527f73730000000000000000000000000000000000000000000000000000000000006064820152fd5b7fffffffffffffffffffffffffffffffffffffffffffff2c3de43133125effffff81116130c05769d3c21bcecceda10000000190565b811981116130c0570190565b73ffffffffffffffffffffffffffffffffffffffff809116918215613412571691821561338e5760207f8c5be1e5ebec7d5bd14f71427d1e84f3dd0314c0f7b2291e5b200ac8c7c3b9259183600052603b8252604060002085600052825280604060002055604051908152a3565b60846040517f08c379a000000000000000000000000000000000000000000000000000000000815260206004820152602360248201527f4552433737373a20617070726f766520746f20746865207a65726f206164647260448201527f65737300000000000000000000000000000000000000000000000000000000006064820152fd5b60846040517f08c379a000000000000000000000000000000000000000000000000000000000815260206004820152602560248201527f4552433737373a20617070726f76652066726f6d20746865207a65726f20616460448201527f64726573730000000000000000000000000000000000000000000000000000006064820152fd5b90816020910312610dcb575173ffffffffffffffffffffffffffffffffffffffff81168103610dcb5790565b949161350c93612f7997959273ffffffffffffffffffffffffffffffffffffffff92838092168952166020880152166040860152606085015260c0608085015260c0840190612567565b9160a0818403910152612567565b9192946040517faabbb8ca00000000000000000000000000000000000000000000000000000000815273ffffffffffffffffffffffffffffffffffffffff9081841660048201527f29ddb589b1fb5fc7cf394961c1adf5f8c6454761adf795e67fe149f658abe8956024820152602081604481731820a4b7618bde71dce8cdc73aab6c95905fad245afa908115610dbf57600091613634575b501692836135c5575b50505050505050565b833b15610dcb5761360b600096928793604051998a98899788967f75ab9782000000000000000000000000000000000000000000000000000000008852600488016134c2565b03925af18015610dbf57613625575b8080808080806135bc565b61362e9061261c565b3861361a565b61364c915060203d8111610eae57610ea08183612697565b386135b3565b1561365957565b60846040517f08c379a000000000000000000000000000000000000000000000000000000000815260206004820152602e60248201527f496e697469616c697a61626c653a20636f6e747261637420697320616c72656160448201527f647920696e697469616c697a65640000000000000000000000000000000000006064820152fd5b156136e457565b60846040517f08c379a000000000000000000000000000000000000000000000000000000000815260206004820152602b60248201527f496e697469616c697a61626c653a20636f6e7472616374206973206e6f74206960448201527f6e697469616c697a696e670000000000000000000000000000000000000000006064820152fd5b818110613773575050565b6000815560010161376856fea2646970667358221220b2f41beed1e47d153f88f9bf4758b5272e7aa775e52464c52d2bff6dd7e07ca964736f6c634300080f0033",
  "linkReferences": {},
  "deployedLinkReferences": {}
}