{
  "_format": "hh-sol-artifact-1",
  "contractName": "Market",
  "sourceName": "contracts/Market.sol",
  "abi": [
    {
      "inputs": [],
      "stateMutability": "nonpayable",
      "type": "constructor"
    },
    {
      "inputs": [],
      "name": "InsufficientSupply",
      "type": "error"
    },
    {
      "inputs": [],
      "name": "LowSupplyAllowlistRequired",
      "type": "error"
    },
    {
      "inputs": [],
      "name": "OutOfStock",
      "type": "error"
    },
    {
      "inputs": [
        {
          "internalType": "uint256",
          "name": "removalId",
          "type": "uint256"
        },
        {
          "internalType": "uint256",
          "name": "queueVintage",
          "type": "uint256"
        }
      ],
      "name": "RemovalAlreadyInQueue",
      "type": "error"
    },
    {
      "inputs": [
        {
          "internalType": "uint256",
          "name": "removalId",
          "type": "uint256"
        }
      ],
      "name": "RemovalAlreadyReserved",
      "type": "error"
    },
    {
      "inputs": [
        {
          "internalType": "uint256",
          "name": "removalId",
          "type": "uint256"
        }
      ],
      "name": "RemovalNotInActiveSupply",
      "type": "error"
    },
    {
      "inputs": [
        {
          "internalType": "uint256",
          "name": "removalId",
          "type": "uint256"
        },
        {
          "internalType": "uint256",
          "name": "queueVintage",
          "type": "uint256"
        }
      ],
      "name": "RemovalNotInQueue",
      "type": "error"
    },
    {
      "inputs": [
        {
          "internalType": "uint256",
          "name": "removalId",
          "type": "uint256"
        }
      ],
      "name": "RemovalNotInReservedSupply",
      "type": "error"
    },
    {
      "anonymous": false,
      "inputs": [
        {
          "indexed": false,
          "internalType": "uint8",
          "name": "version",
          "type": "uint8"
        }
      ],
      "name": "Initialized",
      "type": "event"
    },
    {
      "anonymous": false,
      "inputs": [
        {
          "indexed": false,
          "internalType": "address",
          "name": "account",
          "type": "address"
        }
      ],
      "name": "Paused",
      "type": "event"
    },
    {
      "anonymous": false,
      "inputs": [
        {
          "indexed": false,
          "internalType": "uint256",
          "name": "threshold",
          "type": "uint256"
        }
      ],
      "name": "PriorityRestrictedThresholdSet",
      "type": "event"
    },
    {
      "anonymous": false,
      "inputs": [
        {
          "indexed": true,
          "internalType": "bytes32",
          "name": "role",
          "type": "bytes32"
        },
        {
          "indexed": true,
          "internalType": "bytes32",
          "name": "previousAdminRole",
          "type": "bytes32"
        },
        {
          "indexed": true,
          "internalType": "bytes32",
          "name": "newAdminRole",
          "type": "bytes32"
        }
      ],
      "name": "RoleAdminChanged",
      "type": "event"
    },
    {
      "anonymous": false,
      "inputs": [
        {
          "indexed": true,
          "internalType": "bytes32",
          "name": "role",
          "type": "bytes32"
        },
        {
          "indexed": true,
          "internalType": "address",
          "name": "account",
          "type": "address"
        },
        {
          "indexed": true,
          "internalType": "address",
          "name": "sender",
          "type": "address"
        }
      ],
      "name": "RoleGranted",
      "type": "event"
    },
    {
      "anonymous": false,
      "inputs": [
        {
          "indexed": true,
          "internalType": "bytes32",
          "name": "role",
          "type": "bytes32"
        },
        {
          "indexed": true,
          "internalType": "address",
          "name": "account",
          "type": "address"
        },
        {
          "indexed": true,
          "internalType": "address",
          "name": "sender",
          "type": "address"
        }
      ],
      "name": "RoleRevoked",
      "type": "event"
    },
    {
      "anonymous": false,
      "inputs": [
        {
          "indexed": false,
          "internalType": "address",
          "name": "account",
          "type": "address"
        }
      ],
      "name": "Unpaused",
      "type": "event"
    },
    {
      "inputs": [],
      "name": "ALLOWLIST_ROLE",
      "outputs": [
        {
          "internalType": "bytes32",
          "name": "",
          "type": "bytes32"
        }
      ],
      "stateMutability": "view",
      "type": "function"
    },
    {
      "inputs": [],
      "name": "DEFAULT_ADMIN_ROLE",
      "outputs": [
        {
          "internalType": "bytes32",
          "name": "",
          "type": "bytes32"
        }
      ],
      "stateMutability": "view",
      "type": "function"
    },
    {
      "inputs": [
        {
          "internalType": "bytes32",
          "name": "role",
          "type": "bytes32"
        }
      ],
      "name": "getRoleAdmin",
      "outputs": [
        {
          "internalType": "bytes32",
          "name": "",
          "type": "bytes32"
        }
      ],
      "stateMutability": "view",
      "type": "function"
    },
    {
      "inputs": [
        {
          "internalType": "bytes32",
          "name": "role",
          "type": "bytes32"
        },
        {
          "internalType": "uint256",
          "name": "index",
          "type": "uint256"
        }
      ],
      "name": "getRoleMember",
      "outputs": [
        {
          "internalType": "address",
          "name": "",
          "type": "address"
        }
      ],
      "stateMutability": "view",
      "type": "function"
    },
    {
      "inputs": [
        {
          "internalType": "bytes32",
          "name": "role",
          "type": "bytes32"
        }
      ],
      "name": "getRoleMemberCount",
      "outputs": [
        {
          "internalType": "uint256",
          "name": "",
          "type": "uint256"
        }
      ],
      "stateMutability": "view",
      "type": "function"
    },
    {
      "inputs": [
        {
          "internalType": "bytes32",
          "name": "role",
          "type": "bytes32"
        },
        {
          "internalType": "address",
          "name": "account",
          "type": "address"
        }
      ],
      "name": "grantRole",
      "outputs": [],
      "stateMutability": "nonpayable",
      "type": "function"
    },
    {
      "inputs": [
        {
          "internalType": "bytes32",
          "name": "role",
          "type": "bytes32"
        },
        {
          "internalType": "address",
          "name": "account",
          "type": "address"
        }
      ],
      "name": "hasRole",
      "outputs": [
        {
          "internalType": "bool",
          "name": "",
          "type": "bool"
        }
      ],
      "stateMutability": "view",
      "type": "function"
    },
    {
      "inputs": [
        {
          "internalType": "address",
          "name": "removalAddress",
          "type": "address"
        },
        {
          "internalType": "address",
          "name": "bridgedPolygonNoriAddress",
          "type": "address"
        },
        {
          "internalType": "address",
          "name": "certificateAddress",
          "type": "address"
        },
        {
          "internalType": "address",
          "name": "restrictedNoriAddress",
          "type": "address"
        },
        {
          "internalType": "address",
          "name": "noriFeeWalletAddress",
          "type": "address"
        },
        {
          "internalType": "uint256",
          "name": "noriFee",
          "type": "uint256"
        }
      ],
      "name": "initialize",
      "outputs": [],
      "stateMutability": "nonpayable",
      "type": "function"
    },
    {
      "inputs": [],
      "name": "numberOfActiveRemovals",
      "outputs": [
        {
          "internalType": "uint256",
          "name": "",
          "type": "uint256"
        }
      ],
      "stateMutability": "view",
      "type": "function"
    },
    {
      "inputs": [
        {
          "internalType": "address",
          "name": "",
          "type": "address"
        },
        {
          "internalType": "address",
          "name": "",
          "type": "address"
        },
        {
          "internalType": "uint256[]",
          "name": "ids",
          "type": "uint256[]"
        },
        {
          "internalType": "uint256[]",
          "name": "",
          "type": "uint256[]"
        },
        {
          "internalType": "bytes",
          "name": "data",
          "type": "bytes"
        }
      ],
      "name": "onERC1155BatchReceived",
      "outputs": [
        {
          "internalType": "bytes4",
          "name": "",
          "type": "bytes4"
        }
      ],
      "stateMutability": "nonpayable",
      "type": "function"
    },
    {
      "inputs": [
        {
          "internalType": "address",
          "name": "",
          "type": "address"
        },
        {
          "internalType": "address",
          "name": "",
          "type": "address"
        },
        {
          "internalType": "uint256",
          "name": "",
          "type": "uint256"
        },
        {
          "internalType": "uint256",
          "name": "",
          "type": "uint256"
        },
        {
          "internalType": "bytes",
          "name": "",
          "type": "bytes"
        }
      ],
      "name": "onERC1155Received",
      "outputs": [
        {
          "internalType": "bytes4",
          "name": "",
          "type": "bytes4"
        }
      ],
      "stateMutability": "nonpayable",
      "type": "function"
    },
    {
      "inputs": [],
      "name": "paused",
      "outputs": [
        {
          "internalType": "bool",
          "name": "",
          "type": "bool"
        }
      ],
      "stateMutability": "view",
      "type": "function"
    },
    {
      "inputs": [],
      "name": "priorityRestrictedThreshold",
      "outputs": [
        {
          "internalType": "uint256",
          "name": "",
          "type": "uint256"
        }
      ],
      "stateMutability": "view",
      "type": "function"
    },
    {
      "inputs": [
        {
          "internalType": "uint256",
          "name": "removalId",
          "type": "uint256"
        },
        {
          "internalType": "uint256",
          "name": "amount",
          "type": "uint256"
        }
      ],
      "name": "release",
      "outputs": [],
      "stateMutability": "nonpayable",
      "type": "function"
    },
    {
      "inputs": [
        {
          "internalType": "bytes32",
          "name": "role",
          "type": "bytes32"
        },
        {
          "internalType": "address",
          "name": "account",
          "type": "address"
        }
      ],
      "name": "renounceRole",
      "outputs": [],
      "stateMutability": "nonpayable",
      "type": "function"
    },
    {
      "inputs": [
        {
          "internalType": "uint256",
          "name": "removalId",
          "type": "uint256"
        }
      ],
      "name": "reserveRemoval",
      "outputs": [],
      "stateMutability": "nonpayable",
      "type": "function"
    },
    {
      "inputs": [
        {
          "internalType": "bytes32",
          "name": "role",
          "type": "bytes32"
        },
        {
          "internalType": "address",
          "name": "account",
          "type": "address"
        }
      ],
      "name": "revokeRole",
      "outputs": [],
      "stateMutability": "nonpayable",
      "type": "function"
    },
    {
      "inputs": [
        {
          "internalType": "uint256",
          "name": "threshold",
          "type": "uint256"
        }
      ],
      "name": "setPriorityRestrictedThreshold",
      "outputs": [],
      "stateMutability": "nonpayable",
      "type": "function"
    },
    {
      "inputs": [
        {
          "internalType": "bytes4",
          "name": "interfaceId",
          "type": "bytes4"
        }
      ],
      "name": "supportsInterface",
      "outputs": [
        {
          "internalType": "bool",
          "name": "",
          "type": "bool"
        }
      ],
      "stateMutability": "view",
      "type": "function"
    },
    {
      "inputs": [
        {
          "internalType": "address",
          "name": "recipient",
          "type": "address"
        },
        {
          "internalType": "uint256",
          "name": "amount",
          "type": "uint256"
        },
        {
          "internalType": "uint256",
          "name": "deadline",
          "type": "uint256"
        },
        {
          "internalType": "uint8",
          "name": "v",
          "type": "uint8"
        },
        {
          "internalType": "bytes32",
          "name": "r",
          "type": "bytes32"
        },
        {
          "internalType": "bytes32",
          "name": "s",
          "type": "bytes32"
        }
      ],
      "name": "swap",
      "outputs": [],
      "stateMutability": "nonpayable",
      "type": "function"
    },
    {
      "inputs": [
        {
          "internalType": "address",
          "name": "recipient",
          "type": "address"
        },
        {
          "internalType": "uint256",
          "name": "amount",
          "type": "uint256"
        },
        {
          "internalType": "address",
          "name": "supplierToBuyFrom",
          "type": "address"
        },
        {
          "internalType": "uint256",
          "name": "deadline",
          "type": "uint256"
        },
        {
          "internalType": "uint8",
          "name": "v",
          "type": "uint8"
        },
        {
          "internalType": "bytes32",
          "name": "r",
          "type": "bytes32"
        },
        {
          "internalType": "bytes32",
          "name": "s",
          "type": "bytes32"
        }
      ],
      "name": "swapFromSpecificSupplier",
      "outputs": [],
      "stateMutability": "nonpayable",
      "type": "function"
    },
    {
      "inputs": [],
      "name": "totalActiveSupply",
      "outputs": [
        {
          "internalType": "uint256",
          "name": "",
          "type": "uint256"
        }
      ],
      "stateMutability": "view",
      "type": "function"
    },
    {
      "inputs": [],
      "name": "totalReservedSupply",
      "outputs": [
        {
          "internalType": "uint256",
          "name": "",
          "type": "uint256"
        }
      ],
      "stateMutability": "view",
      "type": "function"
    },
    {
      "inputs": [],
      "name": "totalUnreservedSupply",
      "outputs": [
        {
          "internalType": "uint256",
          "name": "",
          "type": "uint256"
        }
      ],
      "stateMutability": "view",
      "type": "function"
    },
    {
      "inputs": [],
      "name": "totalUnrestrictedSupply",
      "outputs": [
        {
          "internalType": "uint256",
          "name": "",
          "type": "uint256"
        }
      ],
      "stateMutability": "view",
      "type": "function"
    },
    {
      "inputs": [
        {
          "internalType": "uint256",
          "name": "removalId",
          "type": "uint256"
        }
      ],
      "name": "unreserveRemoval",
      "outputs": [],
      "stateMutability": "nonpayable",
      "type": "function"
    }
  ],
  "bytecode": "0x60806040523480156200001157600080fd5b506200001c62000022565b620000e4565b600054610100900460ff16156200008f5760405162461bcd60e51b815260206004820152602760248201527f496e697469616c697a61626c653a20636f6e747261637420697320696e697469604482015266616c697a696e6760c81b606482015260840160405180910390fd5b60005460ff9081161015620000e2576000805460ff191660ff9081179091556040519081527f7f26b83ff96e1f2b6a682f133852f6798a09c465da95921460cefb38474024989060200160405180910390a15b565b6137ad80620000f46000396000f3fe608060405234801561001057600080fd5b50600436106101ae5760003560e01c80637530b450116100ee578063bc197c8111610097578063d547741f11610071578063d547741f146103d0578063d797462f146103e3578063da9d20e7146103f6578063f23a6e611461040957600080fd5b8063bc197c8114610366578063ca15c873146103aa578063ce0ec474146103bd57600080fd5b806395b6ef0c116100c857806395b6ef0c1461033857806397a11ee91461034b578063a217fddf1461035e57600080fd5b80637530b450146102b25780639010d07c146102ba57806391d14854146102f257600080fd5b8063331beb4a1161015b57806359e1a71c1161013557806359e1a71c146102835780635c975abb14610296578063674d13c8146102a257806372069264146102aa57600080fd5b8063331beb4a1461025557806336568abe1461025d578063366a41201461027057600080fd5b8063248a9ca31161018c578063248a9ca3146101f65780632f2ff15d146102195780633030b5321461022e57600080fd5b806301ffc9a7146101b357806312de2b05146101db57806321700561146101ee575b600080fd5b6101c66101c1366004612db1565b610441565b60405190151581526020015b60405180910390f35b610165545b6040519081526020016101d2565b6101e0610461565b6101e0610204366004612df3565b60009081526065602052604090206001015490565b61022c610227366004612e35565b610511565b005b6101e07f26a560d834a19637eccba4611bbc09fb32970bb627da0a70f14f83fdc9822cbc81565b6101e061053b565b61022c61026b366004612e35565b610603565b61022c61027e366004612e61565b6106bb565b61022c610291366004612df3565b61078e565b61012d5460ff166101c6565b6101e06107f2565b6101e061083e565b6101e06108d2565b6102cd6102c8366004612e61565b61096c565b60405173ffffffffffffffffffffffffffffffffffffffff90911681526020016101d2565b6101c6610300366004612e35565b600091825260656020908152604080842073ffffffffffffffffffffffffffffffffffffffff93909316845291905290205460ff1690565b61022c610346366004612e83565b61098b565b61022c610359366004612df3565b610c10565b6101e0600081565b61037961037436600461308b565b610c95565b6040517fffffffff0000000000000000000000000000000000000000000000000000000090911681526020016101d2565b6101e06103b8366004612df3565b610e16565b61022c6103cb366004613146565b610e2d565b61022c6103de366004612e35565b610e67565b61022c6103f1366004612df3565b610e8c565b61022c61040436600461319e565b610edc565b610379610417366004613208565b7ff23a6e610000000000000000000000000000000000000000000000000000000095945050505050565b600061044c82611083565b8061045b575061045b826110d9565b92915050565b600061046e61016961112f565b61015f546040517f789e8cdf00000000000000000000000000000000000000000000000000000000815230600482015273ffffffffffffffffffffffffffffffffffffffff9091169063789e8cdf906024015b602060405180830381865afa1580156104de573d6000803e3d6000fd5b505050506040513d601f19601f82011682018060405250810190610502919061326d565b61050c91906132b5565b905090565b60008281526065602052604090206001015461052c81611139565b6105368383611146565b505050565b60003073ffffffffffffffffffffffffffffffffffffffff1663674d13c86040518163ffffffff1660e01b8152600401602060405180830381865afa158015610588573d6000803e3d6000fd5b505050506040513d601f19601f820116820180604052508101906105ac919061326d565b61015f546040517f854560a400000000000000000000000000000000000000000000000000000000815230600482015273ffffffffffffffffffffffffffffffffffffffff9091169063854560a4906024016104c1565b73ffffffffffffffffffffffffffffffffffffffff811633146106ad576040517f08c379a000000000000000000000000000000000000000000000000000000000815260206004820152602f60248201527f416363657373436f6e74726f6c3a2063616e206f6e6c792072656e6f756e636560448201527f20726f6c657320666f722073656c66000000000000000000000000000000000060648201526084015b60405180910390fd5b6106b78282611168565b5050565b6106c361118a565b60006106ce836111fa565b61015f546040517efdd58e0000000000000000000000000000000000000000000000000000000081523060048201526024810186905291925060009173ffffffffffffffffffffffffffffffffffffffff9091169062fdd58e90604401602060405180830381865afa158015610748573d6000803e3d6000fd5b505050506040513d601f19601f8201168201806040525081019061076c919061326d565b90508083036107885761077e84611209565b610788828561124e565b50505050565b61079661118a565b60006107a1826111fa565b90506107ad818361124e565b6107b9610169836112b5565b6106b7576040517f91ae0525000000000000000000000000000000000000000000000000000000008152600481018390526024016106a4565b6000808061080161016961112f565b905060005b818110156108365761081a610169826112c1565b61082490846132cc565b925061082f816132e4565b9050610806565b509092915050565b61015f546040517f854560a400000000000000000000000000000000000000000000000000000000815230600482015260009173ffffffffffffffffffffffffffffffffffffffff169063854560a490602401602060405180830381865afa1580156108ae573d6000803e3d6000fd5b505050506040513d601f19601f8201168201806040525081019061050c919061326d565b6000803073ffffffffffffffffffffffffffffffffffffffff1663720692646040518163ffffffff1660e01b8152600401602060405180830381865afa158015610920573d6000803e3d6000fd5b505050506040513d601f19601f82011682018060405250810190610944919061326d565b9050610165548110610963576101655461095e90826132b5565b610966565b60005b91505090565b600082815260976020526040812061098490836112c1565b9392505050565b600054610100900460ff16158080156109ab5750600054600160ff909116105b806109c55750303b1580156109c5575060005460ff166001145b610a51576040517f08c379a000000000000000000000000000000000000000000000000000000000815260206004820152602e60248201527f496e697469616c697a61626c653a20636f6e747261637420697320616c72656160448201527f647920696e697469616c697a656400000000000000000000000000000000000060648201526084016106a4565b600080547fffffffffffffffffffffffffffffffffffffffffffffffffffffffffffffff001660011790558015610aaf57600080547fffffffffffffffffffffffffffffffffffffffffffffffffffffffffffff00ff166101001790555b610ab76112cd565b610abf6112cd565b610ac76112cd565b610acf6112cd565b610ad76112cd565b61015f80547fffffffffffffffffffffffff000000000000000000000000000000000000000090811673ffffffffffffffffffffffffffffffffffffffff8a811691909117909255610161805482168984161790556101608054821688841617905561016280548216878416179055610163805482169286169290921790915561016483905560006101658190556101668054909216909155610b7a9033611146565b610ba47f26a560d834a19637eccba4611bbc09fb32970bb627da0a70f14f83fdc9822cbc33611146565b8015610c0757600080547fffffffffffffffffffffffffffffffffffffffffffffffffffffffffffff00ff169055604051600181527f7f26b83ff96e1f2b6a682f133852f6798a09c465da95921460cefb38474024989060200160405180910390a15b50505050505050565b610c1861118a565b6000610c23826111fa565b9050610c2e82611209565b73ffffffffffffffffffffffffffffffffffffffff811660009081526101686020526040902060020154610c6557610c6581611364565b73ffffffffffffffffffffffffffffffffffffffff811660009081526101686020526040902061053690836114cd565b6000805b8451811015610d4d576000858281518110610cb657610cb661331c565b602002602001015190506000610ccb826111fa565b73ffffffffffffffffffffffffffffffffffffffff8116600090815261016860205260409020909150610cfe90836114cd565b5073ffffffffffffffffffffffffffffffffffffffff8181166000908152610167602052604090206001015416610d3857610d3881611364565b50508080610d45906132e4565b915050610c99565b50600082806020019051810190610d64919061326d565b610162546040517ff6f57a2e0000000000000000000000000000000000000000000000000000000081526004810183905291925073ffffffffffffffffffffffffffffffffffffffff169063f6f57a2e90602401600060405180830381600087803b158015610dd257600080fd5b505af1158015610de6573d6000803e3d6000fd5b507fbc197c81000000000000000000000000000000000000000000000000000000009a9950505050505050505050565b600081815260976020526040812061045b9061112f565b610e3561118a565b846000808080610e448561158e565b9350935093509350610e5a858c86868686611ac6565b5050505050505050505050565b600082815260656020526040902060010154610e8281611139565b6105368383611168565b610e9461118a565b6000610e9f81611139565b6101658290556040518281527f7ab6aa6547859e9ca74d567d44fefa0d63272ac019f4ebf9333032a62ea06fa59060200160405180910390a15050565b610ee461118a565b610eec611e5d565b8560008080610efb848a611f74565b92509250925060008367ffffffffffffffff811115610f1c57610f1c612ef0565b604051908082528060200260200182016040528015610f45578160200160208202803683370190505b50905060005b84811015610f9d578a828281518110610f6657610f6661331c565b73ffffffffffffffffffffffffffffffffffffffff9092166020928302919091019091015280610f95816132e4565b915050610f4b565b506101615473ffffffffffffffffffffffffffffffffffffffff1663d505accf336040517fffffffff0000000000000000000000000000000000000000000000000000000060e084901b16815273ffffffffffffffffffffffffffffffffffffffff9091166004820152306024820152604481018e9052606481018c905260ff8b16608482015260a481018a905260c4810189905260e401600060405180830381600087803b15801561104f57600080fd5b505af1158015611063573d6000803e3d6000fd5b50505050611075858d86868686611ac6565b505050505050505050505050565b60007fffffffff0000000000000000000000000000000000000000000000000000000082167f5a05180f00000000000000000000000000000000000000000000000000000000148061045b575061045b826122aa565b60007fffffffff0000000000000000000000000000000000000000000000000000000082167f4e2312e000000000000000000000000000000000000000000000000000000000148061045b575061045b82611083565b600061045b825490565b6111438133612341565b50565b6111508282612413565b60008281526097602052604090206105369082612507565b6111728282612529565b600082815260976020526040902061053690826125e4565b61012d5460ff16156111f8576040517f08c379a000000000000000000000000000000000000000000000000000000000815260206004820152601060248201527f5061757361626c653a207061757365640000000000000000000000000000000060448201526064016106a4565b565b600061045b8260146004612606565b611215610169826112b5565b611143576040517fbd5baa92000000000000000000000000000000000000000000000000000000008152600481018290526024016106a4565b73ffffffffffffffffffffffffffffffffffffffff821660009081526101686020526040902061127e9082612652565b73ffffffffffffffffffffffffffffffffffffffff8216600090815261016860205260409020600201546106b7576106b7826127da565b6000610984838361299f565b600061098483836129ee565b600054610100900460ff166111f8576040517f08c379a000000000000000000000000000000000000000000000000000000000815260206004820152602b60248201527f496e697469616c697a61626c653a20636f6e7472616374206973206e6f74206960448201527f6e697469616c697a696e6700000000000000000000000000000000000000000060648201526084016106a4565b6101665473ffffffffffffffffffffffffffffffffffffffff1661140c57610166805473ffffffffffffffffffffffffffffffffffffffff9283167fffffffffffffffffffffffff00000000000000000000000000000000000000009182168117909255604080518082018252838152602080820185815260009586526101679091529190932092518354908516908316178355516001929092018054929093169116179055565b604080518082018252610166805473ffffffffffffffffffffffffffffffffffffffff908116600081815261016760208181528783205485168752808701938452888516808452919052868220955186549085167fffffffffffffffffffffffff00000000000000000000000000000000000000009182161787559251600196870180549186169185169190911790558454841682528682205484168252868220909501805483168617905592549091168252929020805490921617905550565b6000806114d983612a18565b61ffff1690506114eb84600201541590565b1561150357600184018190556002840181905561152f565b836001015481101561151b576001840181905561152f565b836002015481111561152f57600284018190555b600081815260208590526040902061154790846112b5565b611587576040517fbd48f90e00000000000000000000000000000000000000000000000000000000815260048101849052602481018290526044016106a4565b5092915050565b60006060806060600085905060003073ffffffffffffffffffffffffffffffffffffffff1663217005616040518163ffffffff1660e01b8152600401602060405180830381865afa1580156115e7573d6000803e3d6000fd5b505050506040513d601f19601f8201168201806040525081019061160b919061326d565b905060008167ffffffffffffffff81111561162857611628612ef0565b604051908082528060200260200182016040528015611651578160200160208202803683370190505b50905060008267ffffffffffffffff81111561166f5761166f612ef0565b604051908082528060200260200182016040528015611698578160200160208202803683370190505b50905060008367ffffffffffffffff8111156116b6576116b6612ef0565b6040519080825280602002602001820160405280156116df578160200160208202803683370190505b5090506000805b85811015611ab5576101665473ffffffffffffffffffffffffffffffffffffffff1660009081526101686020526040812061172090612a27565b61015f546040517efdd58e0000000000000000000000000000000000000000000000000000000081523060048201526024810183905291925060009173ffffffffffffffffffffffffffffffffffffffff9091169062fdd58e90604401602060405180830381865afa15801561179a573d6000803e3d6000fd5b505050506040513d601f19601f820116820180604052508101906117be919061326d565b90508089101561187957818785815181106117db576117db61331c565b602002602001018181525050888685815181106117fa576117fa61331c565b602090810291909101015261016654855173ffffffffffffffffffffffffffffffffffffffff909116908690869081106118365761183661331c565b602002602001019073ffffffffffffffffffffffffffffffffffffffff16908173ffffffffffffffffffffffffffffffffffffffff168152505060009850611a84565b6118846001896132b5565b8314801561189157508089115b156118c8576040517f33aa101c00000000000000000000000000000000000000000000000000000000815260040160405180910390fd5b818785815181106118db576118db61331c565b602002602001018181525050808685815181106118fa576118fa61331c565b602090810291909101015261016654855173ffffffffffffffffffffffffffffffffffffffff909116908690869081106119365761193661331c565b73ffffffffffffffffffffffffffffffffffffffff90921660209283029190910190910152611965818a6132b5565b6101665473ffffffffffffffffffffffffffffffffffffffff1660009081526101686020526040902090995061199b9083612652565b6101665473ffffffffffffffffffffffffffffffffffffffff16600090815261016860205260409020600201546119f457610166546119ef9073ffffffffffffffffffffffffffffffffffffffff166127da565b611a84565b6101665473ffffffffffffffffffffffffffffffffffffffff9081166000818152610167602052604090206001015490911614611a8457610166805473ffffffffffffffffffffffffffffffffffffffff80821660009081526101676020526040902060010154167fffffffffffffffffffffffff00000000000000000000000000000000000000009091161790555b83611a8e816132e4565b94505088600003611aa0575050611ab5565b50508080611aad906132e4565b9150506116e6565b509a92995090975095509350505050565b60008467ffffffffffffffff811115611ae157611ae1612ef0565b604051908082528060200260200182016040528015611b0a578160200160208202803683370190505b50905060008567ffffffffffffffff811115611b2857611b28612ef0565b604051908082528060200260200182016040528015611b51578160200160208202803683370190505b50905060005b86811015611be057858181518110611b7157611b7161331c565b6020026020010151838281518110611b8b57611b8b61331c565b602002602001018181525050848181518110611ba957611ba961331c565b6020026020010151828281518110611bc357611bc361331c565b602090810291909101015280611bd8816132e4565b915050611b57565b5061015f546040517fb6477cc000000000000000000000000000000000000000000000000000000000815260009173ffffffffffffffffffffffffffffffffffffffff169063b6477cc090611c3990869060040161334b565b600060405180830381865afa158015611c56573d6000803e3d6000fd5b505050506040513d6000823e601f3d9081017fffffffffffffffffffffffffffffffffffffffffffffffffffffffffffffffe0168201604052611c9c919081019061338f565b90503060005b8451811015611d7a576000606461016454868481518110611cc557611cc561331c565b6020026020010151611cd79190613420565b611ce1919061345d565b9050600080868481518110611cf857611cf861331c565b602002602001015190506000868581518110611d1657611d1661331c565b60200260200101511115611d64576064868581518110611d3857611d3861331c565b602002602001015182611d4b9190613420565b611d55919061345d565b9150611d6182826132b5565b90505b5050508080611d72906132e4565b915050611ca2565b5061015f5461016054855173ffffffffffffffffffffffffffffffffffffffff9283169263f242432a9285929116908890600090611dba57611dba61331c565b60200260200101518e89600081518110611dd657611dd661331c565b6020026020010151604051602001611df091815260200190565b6040516020818303038152906040526040518663ffffffff1660e01b8152600401611e1f95949392919061350e565b600060405180830381600087803b158015611e3957600080fd5b505af1158015611e4d573d6000803e3d6000fd5b5050505050505050505050505050565b60003073ffffffffffffffffffffffffffffffffffffffff1663720692646040518163ffffffff1660e01b8152600401602060405180830381865afa158015611eaa573d6000803e3d6000fd5b505050506040513d601f19601f82011682018060405250810190611ece919061326d565b905080600003611f0a576040517fade1cb4100000000000000000000000000000000000000000000000000000000815260040160405180910390fd5b61016554811161114357611f3e7f26a560d834a19637eccba4611bbc09fb32970bb627da0a70f14f83fdc9822cbc33610300565b611143576040517f9ece8f2f00000000000000000000000000000000000000000000000000000000815260040160405180910390fd5b73ffffffffffffffffffffffffffffffffffffffff811660009081526101686020526040812060018101546002820154606092839290918591905b808211611fe4576000828152602085905260409020611fcd9061112f565b611fd790846132cc565b9250600190910190611faf565b8260000361201e576040517f33aa101c00000000000000000000000000000000000000000000000000000000815260040160405180910390fd5b8860008467ffffffffffffffff81111561203a5761203a612ef0565b604051908082528060200260200182016040528015612063578160200160208202803683370190505b50905060008567ffffffffffffffff81111561208157612081612ef0565b6040519080825280602002602001820160405280156120aa578160200160208202803683370190505b5090506000805b878110156122985760006120c48a612a27565b61015f546040517efdd58e0000000000000000000000000000000000000000000000000000000081523060048201526024810183905291925060009173ffffffffffffffffffffffffffffffffffffffff9091169062fdd58e90604401602060405180830381865afa15801561213e573d6000803e3d6000fd5b505050506040513d601f19601f82011682018060405250810190612162919061326d565b9050808710156121b3578186858151811061217f5761217f61331c565b6020026020010181815250508685858151811061219e5761219e61331c565b60200260200101818152505060009650612267565b6121be60018b6132b5565b841480156121cb57508087115b15612202576040517f33aa101c00000000000000000000000000000000000000000000000000000000815260040160405180910390fd5b818685815181106122155761221561331c565b602002602001018181525050808585815181106122345761223461331c565b602090810291909101015261224981886132b5565b96506122558b83612652565b60028b0154612267576122678f6127da565b83612271816132e4565b94505086600003612283575050612298565b50508080612290906132e4565b9150506120b1565b509c919b509950975050505050505050565b60007fffffffff0000000000000000000000000000000000000000000000000000000082167f7965db0b00000000000000000000000000000000000000000000000000000000148061045b57507f01ffc9a7000000000000000000000000000000000000000000000000000000007fffffffff0000000000000000000000000000000000000000000000000000000083161461045b565b600082815260656020908152604080832073ffffffffffffffffffffffffffffffffffffffff8516845290915290205460ff166106b7576123998173ffffffffffffffffffffffffffffffffffffffff166014612a44565b6123a4836020612a44565b6040516020016123b5929190613553565b604080517fffffffffffffffffffffffffffffffffffffffffffffffffffffffffffffffe0818403018152908290527f08c379a00000000000000000000000000000000000000000000000000000000082526106a4916004016135d4565b600082815260656020908152604080832073ffffffffffffffffffffffffffffffffffffffff8516845290915290205460ff166106b757600082815260656020908152604080832073ffffffffffffffffffffffffffffffffffffffff85168452909152902080547fffffffffffffffffffffffffffffffffffffffffffffffffffffffffffffff001660011790556124a93390565b73ffffffffffffffffffffffffffffffffffffffff168173ffffffffffffffffffffffffffffffffffffffff16837f2f8788117e7eff1d82e926ec794901d17c78024a50270940304540a733656f0d60405160405180910390a45050565b60006109848373ffffffffffffffffffffffffffffffffffffffff841661299f565b600082815260656020908152604080832073ffffffffffffffffffffffffffffffffffffffff8516845290915290205460ff16156106b757600082815260656020908152604080832073ffffffffffffffffffffffffffffffffffffffff8516808552925280832080547fffffffffffffffffffffffffffffffffffffffffffffffffffffffffffffff0016905551339285917ff6391f5c32d9c69d2a47ea670b442974b53935d1edc7fd64eb21e047a839171b9190a45050565b60006109848373ffffffffffffffffffffffffffffffffffffffff8416612c87565b600080612614600884613420565b6001612621600887613420565b61262c906002613707565b61263691906132b5565b901b9050848116612648600885613420565b1c95945050505050565b600061265d82612a18565b61ffff16600081815260208590526040902090915061267c9083612d7a565b6126bc576040517f78717f9900000000000000000000000000000000000000000000000000000000815260048101839052602481018290526044016106a4565b6126c68382612d86565b1561053657826002015483600101540361270c577fffffffffffffffffffffffffffffffffffffffffffffffffffffffffffffffff600184015560006002840155505050565b826001015481036127735760008360010154600161272a91906132cc565b90505b8360020154811161078857600081815260208590526040812061274f9061112f565b11156127615760018401819055610788565b8061276b816132e4565b91505061272d565b826002015481036105365760006001846002015461279191906132b5565b90505b836001015481106107885760008181526020859052604081206127b69061112f565b11156127c85760028401819055610788565b806127d281613713565b915050612794565b73ffffffffffffffffffffffffffffffffffffffff80821660008181526101676020526040902060010154909116900361283c5761016680547fffffffffffffffffffffffff0000000000000000000000000000000000000000169055612924565b73ffffffffffffffffffffffffffffffffffffffff818116600081815261016760205260408082206001808201805483548816865284862090920180549288167fffffffffffffffffffffffff000000000000000000000000000000000000000093841617905591549154861684529190922080549285169290911691909117905561016654909116900361292457610166805473ffffffffffffffffffffffffffffffffffffffff80821660009081526101676020526040902060010154167fffffffffffffffffffffffff00000000000000000000000000000000000000009091161790555b6040805180820182526000808252602080830182815273ffffffffffffffffffffffffffffffffffffffff9586168352610167909152929020905181549084167fffffffffffffffffffffffff0000000000000000000000000000000000000000918216178255915160019091018054919093169116179055565b60008181526001830160205260408120546129e65750815460018181018455600084815260208082209093018490558454848252828601909352604090209190915561045b565b50600061045b565b6000826000018281548110612a0557612a0561331c565b9060005260206000200154905092915050565b600061045b826002601c612606565b6001810154600090815260208290526040812061045b90826112c1565b60606000612a53836002613420565b612a5e9060026132cc565b67ffffffffffffffff811115612a7657612a76612ef0565b6040519080825280601f01601f191660200182016040528015612aa0576020820181803683370190505b5090507f300000000000000000000000000000000000000000000000000000000000000081600081518110612ad757612ad761331c565b60200101907effffffffffffffffffffffffffffffffffffffffffffffffffffffffffffff1916908160001a9053507f780000000000000000000000000000000000000000000000000000000000000081600181518110612b3a57612b3a61331c565b60200101907effffffffffffffffffffffffffffffffffffffffffffffffffffffffffffff1916908160001a9053506000612b76846002613420565b612b819060016132cc565b90505b6001811115612c1e577f303132333435363738396162636465660000000000000000000000000000000085600f1660108110612bc257612bc261331c565b1a60f81b828281518110612bd857612bd861331c565b60200101907effffffffffffffffffffffffffffffffffffffffffffffffffffffffffffff1916908160001a90535060049490941c93612c1781613713565b9050612b84565b508315610984576040517f08c379a000000000000000000000000000000000000000000000000000000000815260206004820181905260248201527f537472696e67733a20686578206c656e67746820696e73756666696369656e7460448201526064016106a4565b60008181526001830160205260408120548015612d70576000612cab6001836132b5565b8554909150600090612cbf906001906132b5565b9050818114612d24576000866000018281548110612cdf57612cdf61331c565b9060005260206000200154905080876000018481548110612d0257612d0261331c565b6000918252602080832090910192909255918252600188019052604090208390555b8554869080612d3557612d35613748565b60019003818190600052602060002001600090559055856001016000868152602001908152602001600020600090556001935050505061045b565b600091505061045b565b60006109848383612c87565b6000612d928383612d9a565b159392505050565b60008181526020839052604081206109849061112f565b600060208284031215612dc357600080fd5b81357fffffffff000000000000000000000000000000000000000000000000000000008116811461098457600080fd5b600060208284031215612e0557600080fd5b5035919050565b803573ffffffffffffffffffffffffffffffffffffffff81168114612e3057600080fd5b919050565b60008060408385031215612e4857600080fd5b82359150612e5860208401612e0c565b90509250929050565b60008060408385031215612e7457600080fd5b50508035926020909101359150565b60008060008060008060c08789031215612e9c57600080fd5b612ea587612e0c565b9550612eb360208801612e0c565b9450612ec160408801612e0c565b9350612ecf60608801612e0c565b9250612edd60808801612e0c565b915060a087013590509295509295509295565b7f4e487b7100000000000000000000000000000000000000000000000000000000600052604160045260246000fd5b604051601f82017fffffffffffffffffffffffffffffffffffffffffffffffffffffffffffffffe016810167ffffffffffffffff81118282101715612f6657612f66612ef0565b604052919050565b600067ffffffffffffffff821115612f8857612f88612ef0565b5060051b60200190565b600082601f830112612fa357600080fd5b81356020612fb8612fb383612f6e565b612f1f565b82815260059290921b84018101918181019086841115612fd757600080fd5b8286015b84811015612ff25780358352918301918301612fdb565b509695505050505050565b600082601f83011261300e57600080fd5b813567ffffffffffffffff81111561302857613028612ef0565b61305960207fffffffffffffffffffffffffffffffffffffffffffffffffffffffffffffffe0601f84011601612f1f565b81815284602083860101111561306e57600080fd5b816020850160208301376000918101602001919091529392505050565b600080600080600060a086880312156130a357600080fd5b6130ac86612e0c565b94506130ba60208701612e0c565b9350604086013567ffffffffffffffff808211156130d757600080fd5b6130e389838a01612f92565b945060608801359150808211156130f957600080fd5b61310589838a01612f92565b9350608088013591508082111561311b57600080fd5b5061312888828901612ffd565b9150509295509295909350565b803560ff81168114612e3057600080fd5b60008060008060008060c0878903121561315f57600080fd5b61316887612e0c565b9550602087013594506040870135935061318460608801613135565b92506080870135915060a087013590509295509295509295565b600080600080600080600060e0888a0312156131b957600080fd5b6131c288612e0c565b9650602088013595506131d760408901612e0c565b9450606088013593506131ec60808901613135565b925060a0880135915060c0880135905092959891949750929550565b600080600080600060a0868803121561322057600080fd5b61322986612e0c565b945061323760208701612e0c565b93506040860135925060608601359150608086013567ffffffffffffffff81111561326157600080fd5b61312888828901612ffd565b60006020828403121561327f57600080fd5b5051919050565b7f4e487b7100000000000000000000000000000000000000000000000000000000600052601160045260246000fd5b6000828210156132c7576132c7613286565b500390565b600082198211156132df576132df613286565b500190565b60007fffffffffffffffffffffffffffffffffffffffffffffffffffffffffffffffff820361331557613315613286565b5060010190565b7f4e487b7100000000000000000000000000000000000000000000000000000000600052603260045260246000fd5b6020808252825182820181905260009190848201906040850190845b8181101561338357835183529284019291840191600101613367565b50909695505050505050565b600060208083850312156133a257600080fd5b825167ffffffffffffffff8111156133b957600080fd5b8301601f810185136133ca57600080fd5b80516133d8612fb382612f6e565b81815260059190911b820183019083810190878311156133f757600080fd5b928401925b82841015613415578351825292840192908401906133fc565b979650505050505050565b6000817fffffffffffffffffffffffffffffffffffffffffffffffffffffffffffffffff048311821515161561345857613458613286565b500290565b600082613493577f4e487b7100000000000000000000000000000000000000000000000000000000600052601260045260246000fd5b500490565b60005b838110156134b357818101518382015260200161349b565b838111156107885750506000910152565b600081518084526134dc816020860160208601613498565b601f017fffffffffffffffffffffffffffffffffffffffffffffffffffffffffffffffe0169290920160200192915050565b600073ffffffffffffffffffffffffffffffffffffffff808816835280871660208401525084604083015283606083015260a0608083015261341560a08301846134c4565b7f416363657373436f6e74726f6c3a206163636f756e742000000000000000000081526000835161358b816017850160208801613498565b7f206973206d697373696e6720726f6c652000000000000000000000000000000060179184019182015283516135c8816028840160208801613498565b01602801949350505050565b60208152600061098460208301846134c4565b600181815b8085111561364057817fffffffffffffffffffffffffffffffffffffffffffffffffffffffffffffffff0482111561362657613626613286565b8085161561363357918102915b93841c93908002906135ec565b509250929050565b6000826136575750600161045b565b816136645750600061045b565b816001811461367a5760028114613684576136a0565b600191505061045b565b60ff84111561369557613695613286565b50506001821b61045b565b5060208310610133831016604e8410600b84101617156136c3575081810a61045b565b6136cd83836135e7565b807fffffffffffffffffffffffffffffffffffffffffffffffffffffffffffffffff048211156136ff576136ff613286565b029392505050565b60006109848383613648565b60008161372257613722613286565b507fffffffffffffffffffffffffffffffffffffffffffffffffffffffffffffffff0190565b7f4e487b7100000000000000000000000000000000000000000000000000000000600052603160045260246000fdfea26469706673582212202785efb8431c0eb38317dc70a6721b160fc05ab2292a2616a4c5379543dd1d8964736f6c634300080f0033",
  "linkReferences": {},
  "deployedLinkReferences": {}
}