{
  "_format": "hh-sol-artifact-1",
  "contractName": "Market",
  "sourceName": "contracts/Market.sol",
  "abi": [
    {
      "inputs": [],
      "stateMutability": "nonpayable",
      "type": "constructor"
    },
    {
      "inputs": [],
      "name": "InsufficientSupply",
      "type": "error"
    },
    {
      "inputs": [],
      "name": "LowSupplyAllowlistRequired",
      "type": "error"
    },
    {
      "inputs": [],
      "name": "OutOfStock",
      "type": "error"
    },
    {
      "inputs": [
        {
          "internalType": "uint256",
          "name": "removalId",
          "type": "uint256"
        },
        {
          "internalType": "uint256",
          "name": "queueVintage",
          "type": "uint256"
        }
      ],
      "name": "RemovalAlreadyInQueue",
      "type": "error"
    },
    {
      "inputs": [
        {
          "internalType": "uint256",
          "name": "removalId",
          "type": "uint256"
        }
      ],
      "name": "RemovalAlreadyReserved",
      "type": "error"
    },
    {
      "inputs": [
        {
          "internalType": "uint256",
          "name": "removalId",
          "type": "uint256"
        }
      ],
      "name": "RemovalNotInActiveSupply",
      "type": "error"
    },
    {
      "inputs": [
        {
          "internalType": "uint256",
          "name": "removalId",
          "type": "uint256"
        },
        {
          "internalType": "uint256",
          "name": "queueVintage",
          "type": "uint256"
        }
      ],
      "name": "RemovalNotInQueue",
      "type": "error"
    },
    {
      "inputs": [
        {
          "internalType": "uint256",
          "name": "removalId",
          "type": "uint256"
        }
      ],
      "name": "RemovalNotInReservedSupply",
      "type": "error"
    },
    {
      "inputs": [],
      "name": "SenderNotRemovalContract",
      "type": "error"
    },
    {
      "anonymous": false,
      "inputs": [
        {
          "indexed": false,
          "internalType": "uint8",
          "name": "version",
          "type": "uint8"
        }
      ],
      "name": "Initialized",
      "type": "event"
    },
    {
      "anonymous": false,
      "inputs": [
        {
          "indexed": false,
          "internalType": "address",
          "name": "account",
          "type": "address"
        }
      ],
      "name": "Paused",
      "type": "event"
    },
    {
      "anonymous": false,
      "inputs": [
        {
          "indexed": false,
          "internalType": "uint256",
          "name": "threshold",
          "type": "uint256"
        }
      ],
      "name": "PriorityRestrictedThresholdSet",
      "type": "event"
    },
    {
      "anonymous": false,
      "inputs": [
        {
          "indexed": true,
          "internalType": "bytes32",
          "name": "role",
          "type": "bytes32"
        },
        {
          "indexed": true,
          "internalType": "bytes32",
          "name": "previousAdminRole",
          "type": "bytes32"
        },
        {
          "indexed": true,
          "internalType": "bytes32",
          "name": "newAdminRole",
          "type": "bytes32"
        }
      ],
      "name": "RoleAdminChanged",
      "type": "event"
    },
    {
      "anonymous": false,
      "inputs": [
        {
          "indexed": true,
          "internalType": "bytes32",
          "name": "role",
          "type": "bytes32"
        },
        {
          "indexed": true,
          "internalType": "address",
          "name": "account",
          "type": "address"
        },
        {
          "indexed": true,
          "internalType": "address",
          "name": "sender",
          "type": "address"
        }
      ],
      "name": "RoleGranted",
      "type": "event"
    },
    {
      "anonymous": false,
      "inputs": [
        {
          "indexed": true,
          "internalType": "bytes32",
          "name": "role",
          "type": "bytes32"
        },
        {
          "indexed": true,
          "internalType": "address",
          "name": "account",
          "type": "address"
        },
        {
          "indexed": true,
          "internalType": "address",
          "name": "sender",
          "type": "address"
        }
      ],
      "name": "RoleRevoked",
      "type": "event"
    },
    {
      "anonymous": false,
      "inputs": [
        {
          "indexed": false,
          "internalType": "address",
          "name": "account",
          "type": "address"
        }
      ],
      "name": "Unpaused",
      "type": "event"
    },
    {
      "inputs": [],
      "name": "ALLOWLIST_ROLE",
      "outputs": [
        {
          "internalType": "bytes32",
          "name": "",
          "type": "bytes32"
        }
      ],
      "stateMutability": "view",
      "type": "function"
    },
    {
      "inputs": [],
      "name": "DEFAULT_ADMIN_ROLE",
      "outputs": [
        {
          "internalType": "bytes32",
          "name": "",
          "type": "bytes32"
        }
      ],
      "stateMutability": "view",
      "type": "function"
    },
    {
      "inputs": [],
      "name": "PAUSER_ROLE",
      "outputs": [
        {
          "internalType": "bytes32",
          "name": "",
          "type": "bytes32"
        }
      ],
      "stateMutability": "view",
      "type": "function"
    },
    {
      "inputs": [],
      "name": "RESERVER_ROLE",
      "outputs": [
        {
          "internalType": "bytes32",
          "name": "",
          "type": "bytes32"
        }
      ],
      "stateMutability": "view",
      "type": "function"
    },
    {
      "inputs": [
        {
          "internalType": "uint256",
          "name": "purchaseTotal",
          "type": "uint256"
        }
      ],
      "name": "certificateAmountFromPurchaseTotal",
      "outputs": [
        {
          "internalType": "uint256",
          "name": "",
          "type": "uint256"
        }
      ],
      "stateMutability": "view",
      "type": "function"
    },
    {
      "inputs": [
        {
          "internalType": "address",
          "name": "operator",
          "type": "address"
        },
        {
          "internalType": "address",
          "name": "recipient",
          "type": "address"
        },
        {
          "internalType": "uint256",
          "name": "numberOfRemovals",
          "type": "uint256"
        },
        {
          "internalType": "uint256[]",
          "name": "ids",
          "type": "uint256[]"
        },
        {
          "internalType": "uint256[]",
          "name": "amounts",
          "type": "uint256[]"
        },
        {
          "internalType": "address[]",
          "name": "suppliers",
          "type": "address[]"
        }
      ],
      "name": "fulfillOrder",
      "outputs": [],
      "stateMutability": "nonpayable",
      "type": "function"
    },
    {
      "inputs": [
        {
          "internalType": "uint256",
          "name": "amount",
          "type": "uint256"
        }
      ],
      "name": "getCheckoutTotal",
      "outputs": [
        {
          "internalType": "uint256",
          "name": "",
          "type": "uint256"
        }
      ],
      "stateMutability": "view",
      "type": "function"
    },
    {
      "inputs": [
        {
          "internalType": "uint256",
          "name": "amount",
          "type": "uint256"
        }
      ],
      "name": "getNoriFee",
      "outputs": [
        {
          "internalType": "uint256",
          "name": "",
          "type": "uint256"
        }
      ],
      "stateMutability": "view",
      "type": "function"
    },
    {
      "inputs": [],
      "name": "getNoriFeePercentage",
      "outputs": [
        {
          "internalType": "uint256",
          "name": "",
          "type": "uint256"
        }
      ],
      "stateMutability": "view",
      "type": "function"
    },
    {
      "inputs": [],
      "name": "getNoriFeeWallet",
      "outputs": [
        {
          "internalType": "address",
          "name": "",
          "type": "address"
        }
      ],
      "stateMutability": "view",
      "type": "function"
    },
    {
      "inputs": [
        {
          "internalType": "bytes32",
          "name": "role",
          "type": "bytes32"
        }
      ],
      "name": "getRoleAdmin",
      "outputs": [
        {
          "internalType": "bytes32",
          "name": "",
          "type": "bytes32"
        }
      ],
      "stateMutability": "view",
      "type": "function"
    },
    {
      "inputs": [
        {
          "internalType": "bytes32",
          "name": "role",
          "type": "bytes32"
        },
        {
          "internalType": "uint256",
          "name": "index",
          "type": "uint256"
        }
      ],
      "name": "getRoleMember",
      "outputs": [
        {
          "internalType": "address",
          "name": "",
          "type": "address"
        }
      ],
      "stateMutability": "view",
      "type": "function"
    },
    {
      "inputs": [
        {
          "internalType": "bytes32",
          "name": "role",
          "type": "bytes32"
        }
      ],
      "name": "getRoleMemberCount",
      "outputs": [
        {
          "internalType": "uint256",
          "name": "",
          "type": "uint256"
        }
      ],
      "stateMutability": "view",
      "type": "function"
    },
    {
      "inputs": [
        {
          "internalType": "bytes32",
          "name": "role",
          "type": "bytes32"
        },
        {
          "internalType": "address",
          "name": "account",
          "type": "address"
        }
      ],
      "name": "grantRole",
      "outputs": [],
      "stateMutability": "nonpayable",
      "type": "function"
    },
    {
      "inputs": [
        {
          "internalType": "bytes32",
          "name": "role",
          "type": "bytes32"
        },
        {
          "internalType": "address",
          "name": "account",
          "type": "address"
        }
      ],
      "name": "hasRole",
      "outputs": [
        {
          "internalType": "bool",
          "name": "",
          "type": "bool"
        }
      ],
      "stateMutability": "view",
      "type": "function"
    },
    {
      "inputs": [
        {
          "internalType": "contract Removal",
          "name": "removal",
          "type": "address"
        },
        {
          "internalType": "contract BridgedPolygonNORI",
          "name": "bridgedPolygonNori",
          "type": "address"
        },
        {
          "internalType": "contract Certificate",
          "name": "certificate",
          "type": "address"
        },
        {
          "internalType": "contract RestrictedNORI",
          "name": "restrictedNori",
          "type": "address"
        },
        {
          "internalType": "address",
          "name": "noriFeeWalletAddress",
          "type": "address"
        },
        {
          "internalType": "uint256",
          "name": "noriFeePercentage",
          "type": "uint256"
        }
      ],
      "name": "initialize",
      "outputs": [],
      "stateMutability": "nonpayable",
      "type": "function"
    },
    {
      "inputs": [],
      "name": "numberOfReservedRemovals",
      "outputs": [
        {
          "internalType": "uint256",
          "name": "",
          "type": "uint256"
        }
      ],
      "stateMutability": "view",
      "type": "function"
    },
    {
      "inputs": [],
      "name": "numberOfUnreservedRemovals",
      "outputs": [
        {
          "internalType": "uint256",
          "name": "",
          "type": "uint256"
        }
      ],
      "stateMutability": "view",
      "type": "function"
    },
    {
      "inputs": [
        {
          "internalType": "address",
          "name": "",
          "type": "address"
        },
        {
          "internalType": "address",
          "name": "",
          "type": "address"
        },
        {
          "internalType": "uint256[]",
          "name": "ids",
          "type": "uint256[]"
        },
        {
          "internalType": "uint256[]",
          "name": "",
          "type": "uint256[]"
        },
        {
          "internalType": "bytes",
          "name": "",
          "type": "bytes"
        }
      ],
      "name": "onERC1155BatchReceived",
      "outputs": [
        {
          "internalType": "bytes4",
          "name": "",
          "type": "bytes4"
        }
      ],
      "stateMutability": "nonpayable",
      "type": "function"
    },
    {
      "inputs": [],
      "name": "pause",
      "outputs": [],
      "stateMutability": "nonpayable",
      "type": "function"
    },
    {
      "inputs": [],
      "name": "paused",
      "outputs": [
        {
          "internalType": "bool",
          "name": "",
          "type": "bool"
        }
      ],
      "stateMutability": "view",
      "type": "function"
    },
    {
      "inputs": [],
      "name": "priorityRestrictedThreshold",
      "outputs": [
        {
          "internalType": "uint256",
          "name": "",
          "type": "uint256"
        }
      ],
      "stateMutability": "view",
      "type": "function"
    },
    {
      "inputs": [
        {
          "internalType": "uint256",
          "name": "removalId",
          "type": "uint256"
        },
        {
          "internalType": "uint256",
          "name": "amount",
          "type": "uint256"
        }
      ],
      "name": "release",
      "outputs": [],
      "stateMutability": "nonpayable",
      "type": "function"
    },
    {
      "inputs": [
        {
          "internalType": "bytes32",
          "name": "role",
          "type": "bytes32"
        },
        {
          "internalType": "address",
          "name": "account",
          "type": "address"
        }
      ],
      "name": "renounceRole",
      "outputs": [],
      "stateMutability": "nonpayable",
      "type": "function"
    },
    {
      "inputs": [
        {
          "internalType": "uint256",
          "name": "removalId",
          "type": "uint256"
        }
      ],
      "name": "reserveRemoval",
      "outputs": [],
      "stateMutability": "nonpayable",
      "type": "function"
    },
    {
      "inputs": [
        {
          "internalType": "bytes32",
          "name": "role",
          "type": "bytes32"
        },
        {
          "internalType": "address",
          "name": "account",
          "type": "address"
        }
      ],
      "name": "revokeRole",
      "outputs": [],
      "stateMutability": "nonpayable",
      "type": "function"
    },
    {
      "inputs": [
        {
          "internalType": "uint256",
          "name": "noriFeePercentage",
          "type": "uint256"
        }
      ],
      "name": "setNoriFeePercentage",
      "outputs": [],
      "stateMutability": "nonpayable",
      "type": "function"
    },
    {
      "inputs": [
        {
          "internalType": "address",
          "name": "noriFeeWalletAddress",
          "type": "address"
        }
      ],
      "name": "setNoriFeeWallet",
      "outputs": [],
      "stateMutability": "nonpayable",
      "type": "function"
    },
    {
      "inputs": [
        {
          "internalType": "uint256",
          "name": "threshold",
          "type": "uint256"
        }
      ],
      "name": "setPriorityRestrictedThreshold",
      "outputs": [],
      "stateMutability": "nonpayable",
      "type": "function"
    },
    {
      "inputs": [
        {
          "internalType": "bytes4",
          "name": "interfaceId",
          "type": "bytes4"
        }
      ],
      "name": "supportsInterface",
      "outputs": [
        {
          "internalType": "bool",
          "name": "",
          "type": "bool"
        }
      ],
      "stateMutability": "view",
      "type": "function"
    },
    {
      "inputs": [
        {
          "internalType": "address",
          "name": "recipient",
          "type": "address"
        },
        {
          "internalType": "uint256",
          "name": "amount",
          "type": "uint256"
        },
        {
          "internalType": "uint256",
          "name": "deadline",
          "type": "uint256"
        },
        {
          "internalType": "uint8",
          "name": "v",
          "type": "uint8"
        },
        {
          "internalType": "bytes32",
          "name": "r",
          "type": "bytes32"
        },
        {
          "internalType": "bytes32",
          "name": "s",
          "type": "bytes32"
        }
      ],
      "name": "swap",
      "outputs": [],
      "stateMutability": "nonpayable",
      "type": "function"
    },
    {
      "inputs": [
        {
          "internalType": "address",
          "name": "recipient",
          "type": "address"
        },
        {
          "internalType": "uint256",
          "name": "amount",
          "type": "uint256"
        },
        {
          "internalType": "address",
          "name": "supplierToBuyFrom",
          "type": "address"
        },
        {
          "internalType": "uint256",
          "name": "deadline",
          "type": "uint256"
        },
        {
          "internalType": "uint8",
          "name": "v",
          "type": "uint8"
        },
        {
          "internalType": "bytes32",
          "name": "r",
          "type": "bytes32"
        },
        {
          "internalType": "bytes32",
          "name": "s",
          "type": "bytes32"
        }
      ],
      "name": "swapFromSpecificSupplier",
      "outputs": [],
      "stateMutability": "nonpayable",
      "type": "function"
    },
    {
      "inputs": [],
      "name": "totalUnrestrictedSupply",
      "outputs": [
        {
          "internalType": "uint256",
          "name": "",
          "type": "uint256"
        }
      ],
      "stateMutability": "view",
      "type": "function"
    },
    {
      "inputs": [],
      "name": "unpause",
      "outputs": [],
      "stateMutability": "nonpayable",
      "type": "function"
    },
    {
      "inputs": [
        {
          "internalType": "uint256",
          "name": "removalId",
          "type": "uint256"
        }
      ],
      "name": "unreserveRemoval",
      "outputs": [],
      "stateMutability": "nonpayable",
      "type": "function"
    }
  ],
  "bytecode": "0x60808060405234620000c6576000549060ff8260081c1662000074575060ff8082161062000038575b6040516141db9081620000cc8239f35b60ff90811916176000557f7f26b83ff96e1f2b6a682f133852f6798a09c465da95921460cefb3847402498602060405160ff8152a13862000028565b62461bcd60e51b815260206004820152602760248201527f496e697469616c697a61626c653a20636f6e747261637420697320696e697469604482015266616c697a696e6760c81b6064820152608490fd5b600080fdfe608080604052600436101561001357600080fd5b60003560e01c90816301ffc9a7146128db575080630b91140f1461289057806312de2b0514612853578063248a9ca3146128065780632f2ff15d146126f25780633030b53214612699578063327860491461265157806336568abe1461256d578063366a41201461243b5780633f4ba83a146123495780634b26509d146122655780634cfea6be14611adb5780635819492514611a2957806359e1a71c146119835780635c975abb146119425780635d3f78f91461180c5780636cf250e2146117cf5780637530b450146116e35780637f49f738146116915780638456cb59146115fb5780639010d07c1461158a57806391d148541461151157806395b6ef0c1461114157806397a11ee91461105a5780639d398a881461101d578063a217fddf14610fe3578063bc197c8114610cf2578063ca15c87314610ca8578063ce0ec47414610802578063d547741f146107a5578063d797462f14610732578063da9d20e7146102e4578063e63ab1e91461028b578063efb37b37146102325763f9c28528146101a057600080fd5b3461022d5760207ffffffffffffffffffffffffffffffffffffffffffffffffffffffffffffffffc36011261022d5773ffffffffffffffffffffffffffffffffffffffff6101ec6129ed565b6101f4612b52565b6101fc6138a5565b167fffffffffffffffffffffffff000000000000000000000000000000000000000060ff54161760ff556000604051f35b600080fd5b3461022d5760007ffffffffffffffffffffffffffffffffffffffffffffffffffffffffffffffffc36011261022d5760206040517f166dd142f324932e2bb9b86545e760e8c544f1f10f7296e5bc613dfb913294b78152f35b3461022d5760007ffffffffffffffffffffffffffffffffffffffffffffffffffffffffffffffffc36011261022d5760206040517f65d7a28e3265b37a6474929f336521b332c1681b933f6cb9f3376673440d862a8152f35b3461022d5760e07ffffffffffffffffffffffffffffffffffffffffffffffffffffffffffffffffc36011261022d5761031b6129ed565b73ffffffffffffffffffffffffffffffffffffffff604435166044350361022d5760ff608435166084350361022d576103526138a5565b6040517f4b26509d0000000000000000000000000000000000000000000000000000000081526024356004820152602081602481305afa90811561052457600091610700575b506103a281613a64565b73ffffffffffffffffffffffffffffffffffffffff6044351660005261010460205260406000206000916001808301549060028401545b808311156106dc5750505082156106b25791926103f584613a15565b936103ff81613a15565b936000936000915b838310610571575b5050505061041c82613a15565b9260005b83811061053f575073ffffffffffffffffffffffffffffffffffffffff60fd5416803b1561022d576040517fd505accf0000000000000000000000000000000000000000000000000000000081523360048201523060248083019190915235604482015260648035908201526084803560ff169082015260a480359082015260c480359082015290600090829081838160e481015b03925af1801561052457610530575b50303b1561022d576000936105089160405196879586957f4cfea6be0000000000000000000000000000000000000000000000000000000087523360048801613984565b038183305af180156105245761051b575b005b61051990612a41565b6040513d6000823e3d90fd5b61053990612a41565b856104c4565b61056c9073ffffffffffffffffffffffffffffffffffffffff60443516610566828861393c565b5261390f565b610420565b61058082979693959497614182565b60fb546040517efdd58e00000000000000000000000000000000000000000000000000000000815230600482015260248101839052906020908290604490829073ffffffffffffffffffffffffffffffffffffffff165afa90811561052457600091610680575b50898184101561063a576105fd9150859061393c565b52610608838761393c565b526106156000925b61390f565b938215610630576106259061390f565b919592939495610407565b839495965061040f565b61066c91610615948461065389610665959a979a61393c565b528161065f868d61393c565b526135d4565b9484613fbd565b600283015461390f57610610604435613d8e565b90506020813d6020116106aa575b8161069b60209383612a8d565b8101031261022d57518a6105e7565b3d915061068e565b60046040517f33aa101c000000000000000000000000000000000000000000000000000000008152fd5b906106f78396829460005286602052604060002054906132f1565b950191906103d9565b90506020813d60201161072a575b8161071b60209383612a8d565b8101031261022d575182610398565b3d915061070e565b3461022d5760207ffffffffffffffffffffffffffffffffffffffffffffffffffffffffffffffffc36011261022d577f7ab6aa6547859e9ca74d567d44fefa0d63272ac019f4ebf9333032a62ea06fa5602060043561078f6138a5565b610797612b52565b8061010155604051908152a1005b3461022d5760407ffffffffffffffffffffffffffffffffffffffffffffffffffffffffffffffffc36011261022d576105196004356107e26129ca565b908060005260976020526107fd600160406000200154613080565b61320a565b3461022d5760c07ffffffffffffffffffffffffffffffffffffffffffffffffffffffffffffffffc36011261022d576108396129ed565b6064359060243560ff8316830361022d576108526138a5565b604051917f4b26509d000000000000000000000000000000000000000000000000000000008352816004840152602083602481305afa801561052457600090610c75575b602493506108a381613a64565b90602073ffffffffffffffffffffffffffffffffffffffff60fb5416604051958680927f789e8cdf0000000000000000000000000000000000000000000000000000000082523060048301525afa93841561052457600094610c41575b50909161090c84613a15565b9461091685613a15565b9161092086613a15565b956000956000905b8282106109c4575b50505073ffffffffffffffffffffffffffffffffffffffff60fd541691823b1561022d576040517fd505accf0000000000000000000000000000000000000000000000000000000081523360048201523060248201526044808201939093529135606483015260ff166084808301919091523560a4808301919091523560c482015290600090829081838160e481016104b5565b73ffffffffffffffffffffffffffffffffffffffff6101029998929796959493995416806000526101046020526109fe6040600020614182565b60fb546040517efdd58e00000000000000000000000000000000000000000000000000000000815230600482015260248101839052919291906020908290604490829073ffffffffffffffffffffffffffffffffffffffff165afa90811561052457888e8d92600094610c09575b5083871015610aec57915050610a85925085915061393c565b52610a90828661393c565b5273ffffffffffffffffffffffffffffffffffffffff6101025416610ab5828961393c565b52610ac160009161390f565b958115610adf57610ad19061390f565b909791929394959697610928565b8293949596979850610930565b958461065f89610b189587610b12838c9a98610b2c9c9f9d610ac19f83610b129161393c565b5261393c565b946000526101046020526040600020613fbd565b73ffffffffffffffffffffffffffffffffffffffff61010254168060005261010460205260026040600020015415600014610b84575061061073ffffffffffffffffffffffffffffffffffffffff6101025416613d8e565b61010360205260406000206001015473ffffffffffffffffffffffffffffffffffffffff16146106105761061061010280547fffffffffffffffffffffffff000000000000000000000000000000000000000073ffffffffffffffffffffffffffffffffffffffff808316600052610103602052600160406000200154169116179055565b93505050506020813d602011610c39575b81610c2760209383612a8d565b8101031261022d57518a888e38610a6c565b3d9150610c1a565b9093506020813d602011610c6d575b81610c5d60209383612a8d565b8101031261022d57519285610900565b3d9150610c50565b506020833d602011610ca0575b81610c8f60209383612a8d565b8101031261022d5760249251610896565b3d9150610c82565b3461022d5760207ffffffffffffffffffffffffffffffffffffffffffffffffffffffffffffffffc36011261022d5760043560005260c96020526020604060002054604051908152f35b3461022d5760a07ffffffffffffffffffffffffffffffffffffffffffffffffffffffffffffffffc36011261022d57610d296129ed565b50610d326129ca565b5067ffffffffffffffff60443581811161022d57610d54903690600401612b34565b60643582811161022d57610d6c903690600401612b34565b5060843582811161022d573660238201121561022d578060040135928311610fb45760405190602093610dc6857fffffffffffffffffffffffffffffffffffffffffffffffffffffffffffffffe0601f8401160184612a8d565b808352366024828401011161022d576000928160248794018483013701015260005b8151811015610e645780610dff610e50928461393c565b5173ffffffffffffffffffffffffffffffffffffffff610e318183881c16928360005261010488526040600020613f14565b8160005261010386526001604060002001541615610e55575b5061390f565b610de8565b610e5e90613c4a565b84610e4a565b5073ffffffffffffffffffffffffffffffffffffffff908160fe54169160fb541690805115610f855783809101516024604051809481937fe0fc293800000000000000000000000000000000000000000000000000000000835260048301525afa90811561052457600091610f58575b50813b1561022d576000916024839260405194859384927ff6f57a2e00000000000000000000000000000000000000000000000000000000845260048401525af1801561052457610f49575b506040517fbc197c81000000000000000000000000000000000000000000000000000000008152f35b610f5290612a41565b81610f20565b90508281813d8311610f7e575b610f6f8183612a8d565b8101031261022d575183610ed4565b503d610f65565b7f4e487b7100000000000000000000000000000000000000000000000000000000600052603260045260246000fd5b7f4e487b7100000000000000000000000000000000000000000000000000000000600052604160045260246000fd5b3461022d5760007ffffffffffffffffffffffffffffffffffffffffffffffffffffffffffffffffc36011261022d57602060405160008152f35b3461022d5760007ffffffffffffffffffffffffffffffffffffffffffffffffffffffffffffffffc36011261022d57602061010554604051908152f35b3461022d5760207ffffffffffffffffffffffffffffffffffffffffffffffffffffffffffffffffc36011261022d576004356110946138a5565b61109c612f34565b73ffffffffffffffffffffffffffffffffffffffff8160201c16906110c0816135df565b1580611139575b6111085781610519926000526101049081602052600260406000200154156110fa575b6000526020526040600020613f14565b61110381613c4a565b6110ea565b602490604051907fbd5baa920000000000000000000000000000000000000000000000000000000082526004820152fd5b5060016110c7565b3461022d5760c07ffffffffffffffffffffffffffffffffffffffffffffffffffffffffffffffffc36011261022d5760043573ffffffffffffffffffffffffffffffffffffffff9081811680910361022d576024359082821680920361022d576044359083821680920361022d576064359380851680950361022d5760843590811680910361022d576000549460ff93848760081c161595868097611505575b80156114ef575b1561146b577fffffffffffffffffffffffffffffffffffffffffffffffffffffffffffffff00978760018a83161760005561143c575b5061124a8660005460081c166112338161381a565b61123c8161381a565b6112458161381a565b61381a565b7fffffffffffffffffffffffff0000000000000000000000000000000000000000948560fb54161760fb558460fd54161760fd558360fc54161760fc558260fe54161760fe5560a4356101005581835416178255600061010155610102908154169055600080526020926097845260406000203360005284528160406000205416156113ec575b6000805260c984526112e7336040600020613585565b507f26a560d834a19637eccba4611bbc09fb32970bb627da0a70f14f83fdc9822cbc9182600052609785526040600020336000528552604060002054161561139b575b5060005260c98252611340336040600020613585565b5061134757005b7f7f26b83ff96e1f2b6a682f133852f6798a09c465da95921460cefb3847402498907fffffffffffffffffffffffffffffffffffffffffffffffffffffffffffff00ff6000541660005560405160018152a1005b8160005260978452604060002033600052845260016040600020918254161790553333827f2f8788117e7eff1d82e926ec794901d17c78024a50270940304540a733656f0d6000604051a48361132a565b600080526097845260406000203360005284526040600020600182825416179055333360007f2f8788117e7eff1d82e926ec794901d17c78024a50270940304540a733656f0d81604051a46112d1565b7fffffffffffffffffffffffffffffffffffffffffffffffffffffffffffff000016610101176000558861121e565b60846040517f08c379a000000000000000000000000000000000000000000000000000000000815260206004820152602e60248201527f496e697469616c697a61626c653a20636f6e747261637420697320616c72656160448201527f647920696e697469616c697a65640000000000000000000000000000000000006064820152fd5b50303b1580156111e857506001868916146111e8565b506001868916106111e1565b3461022d5760407ffffffffffffffffffffffffffffffffffffffffffffffffffffffffffffffffc36011261022d576115486129ca565b600435600052609760205273ffffffffffffffffffffffffffffffffffffffff60406000209116600052602052602060ff604060002054166040519015158152f35b3461022d5760407ffffffffffffffffffffffffffffffffffffffffffffffffffffffffffffffffc36011261022d5760043560005260c9602052602073ffffffffffffffffffffffffffffffffffffffff6115eb60243560406000206134a9565b9190546040519260031b1c168152f35b3461022d5760007ffffffffffffffffffffffffffffffffffffffffffffffffffffffffffffffffc36011261022d57611632612de8565b61163a6138a5565b60017fffffffffffffffffffffffffffffffffffffffffffffffffffffffffffffff0060335416176033557f62e78cea01bee320cd4e420270b5ea74000d11b0c9f74754ebdbfc544b05a2586020604051338152a1005b3461022d5760007ffffffffffffffffffffffffffffffffffffffffffffffffffffffffffffffffc36011261022d57602073ffffffffffffffffffffffffffffffffffffffff60ff5416604051908152f35b3461022d5760007ffffffffffffffffffffffffffffffffffffffffffffffffffffffffffffffffc36011261022d576024602073ffffffffffffffffffffffffffffffffffffffff60fb5416604051928380927f854560a40000000000000000000000000000000000000000000000000000000082523060048301525afa9081156105245760009161179e575b5061010154908181101561178d575050602060005b604051908152f35b602091611799916135d4565b611785565b90506020813d82116117c7575b816117b860209383612a8d565b8101031261022d575181611770565b3d91506117ab565b3461022d5760007ffffffffffffffffffffffffffffffffffffffffffffffffffffffffffffffffc36011261022d57602061010054604051908152f35b3461022d5760007ffffffffffffffffffffffffffffffffffffffffffffffffffffffffffffffffc36011261022d5773ffffffffffffffffffffffffffffffffffffffff60fb541660405180917f789e8cdf00000000000000000000000000000000000000000000000000000000825230600483015281602460209485935afa90811561052457600091611915575b50604051907f9d398a880000000000000000000000000000000000000000000000000000000082528282600481305afa908115610524576000916118e4575b61178592506135d4565b90508282813d831161190e575b6118fb8183612a8d565b8101031261022d576117859151906118da565b503d6118f1565b90508181813d831161193b575b61192c8183612a8d565b8101031261022d57518261189b565b503d611922565b3461022d5760007ffffffffffffffffffffffffffffffffffffffffffffffffffffffffffffffffc36011261022d57602060ff603354166040519015158152f35b3461022d5760207ffffffffffffffffffffffffffffffffffffffffffffffffffffffffffffffffc36011261022d576004356119bd6138a5565b6119c5612f34565b6119e88173ffffffffffffffffffffffffffffffffffffffff8160201c16613bf7565b6119f1816134c1565b156119f857005b602490604051907f91ae05250000000000000000000000000000000000000000000000000000000082526004820152fd5b3461022d576020807ffffffffffffffffffffffffffffffffffffffffffffffffffffffffffffffffc36011261022d57600435604051907f0b91140f0000000000000000000000000000000000000000000000000000000082528060048301528282602481305afa90811561052457600091611aaa575b61178592506132f1565b90508282813d8311611ad4575b611ac18183612a8d565b8101031261022d57611785915190611aa0565b503d611ab7565b3461022d5760c07ffffffffffffffffffffffffffffffffffffffffffffffffffffffffffffffffc36011261022d57611b126129ed565b611b1a6129ca565b60643567ffffffffffffffff811161022d57611b3a903690600401612a10565b60849291923567ffffffffffffffff811161022d57611b5d903690600401612a10565b9367ffffffffffffffff60a4351161022d5736602360a43501121561022d5760a4356004013592611b8d84612ace565b93611b9b6040519586612a8d565b80855260208501903660248260051b60a43501011161022d57602460a43501915b60248260051b60a43501018310612236575050506044351161022d57611be790369060443590612ae6565b936044351161022d57611bff90369060443590612ae6565b9373ffffffffffffffffffffffffffffffffffffffff60fb5416600060405180927fb6477cc0000000000000000000000000000000000000000000000000000000008252602060048301528180611c59602482018b613950565b03915afa9081156105245760009161218c575b5060005b6044358110611dbc575050505073ffffffffffffffffffffffffffffffffffffffff6040519116602082015260208152604081019281841067ffffffffffffffff851117610fb4578360405273ffffffffffffffffffffffffffffffffffffffff60fb54169073ffffffffffffffffffffffffffffffffffffffff60fc541690823b1561022d577fffffffffffffffffffffffffffffffffffffffffffffffffffffffffffffffc08694611dab60009793611d9b611d6a8a968a987f2eb2c2d6000000000000000000000000000000000000000000000000000000008a52306044880152606487015260a0608487015260e4860190613950565b7fffffffffffffffffffffffffffffffffffffffffffffffffffffffffffffffbc92838683030160a4870152613950565b908382030160c4840152826131c7565b0301925af180156105245761051b57005b611dc6818861393c565b5190611dd2818461393c565b51612013575b73ffffffffffffffffffffffffffffffffffffffff60fd54169173ffffffffffffffffffffffffffffffffffffffff60ff5416611e15838b61393c565b5190604051917f0b91140f0000000000000000000000000000000000000000000000000000000083526004830152602082602481305afa91821561052457600092611fdd575b506040517f23b872dd00000000000000000000000000000000000000000000000000000000815273ffffffffffffffffffffffffffffffffffffffff80891660048301529091166024820152604481019190915292602090849081600081606481015b03925af190811561052457611f7393602092611fc0575b5073ffffffffffffffffffffffffffffffffffffffff60fd541673ffffffffffffffffffffffffffffffffffffffff611f0e858a61393c565b511660006040518097819582947f23b872dd0000000000000000000000000000000000000000000000000000000084528c6004850160409194939294606082019573ffffffffffffffffffffffffffffffffffffffff80921683521660208201520152565b03925af191821561052457611f8c92611f91575061390f565b611c70565b611fb29060203d602011611fb9575b611faa8183612a8d565b810190613bdf565b5088610e4a565b503d611fa0565b611fd690833d8511611fb957611faa8183612a8d565b508a611ed5565b91506020823d60201161200b575b81611ff860209383612a8d565b8101031261022d57905190611ebe611e5b565b3d9150611feb565b612034606461202c612025848761393c565b51856132c0565b0480936135d4565b9173ffffffffffffffffffffffffffffffffffffffff60fe541690612059838a61393c565b51823b1561022d576000926044849260405195869384927f1b2ef1ca00000000000000000000000000000000000000000000000000000000845287600485015260248401525af1908115610524576121499260209261217d575b5073ffffffffffffffffffffffffffffffffffffffff60fd541673ffffffffffffffffffffffffffffffffffffffff60fe541660006040518096819582947f23b872dd0000000000000000000000000000000000000000000000000000000084528d6004850160409194939294606082019573ffffffffffffffffffffffffffffffffffffffff80921683521660208201520152565b03925af180156105245761215e575b50611dd8565b6121769060203d602011611fb957611faa8183612a8d565b5088612158565b61218690612a41565b8b6120b3565b90503d806000833e61219e8183612a8d565b810160208282031261022d5781519067ffffffffffffffff821161022d5780601f83850101121561022d5781830151916121d783612ace565b936121e56040519586612a8d565b838552602085019260208560051b84840101011161022d5780820160200192915b60208560051b8284010101841061222257505050505086611c6c565b602080809486518152019401939250612206565b82359073ffffffffffffffffffffffffffffffffffffffff8216820361022d5790815260209283019201611bbc565b3461022d5760207ffffffffffffffffffffffffffffffffffffffffffffffffffffffffffffffffc36011261022d57600435807fffffffffffffffffffffffffffffffffffffffffffffffffffffffffffffffff046064118115151661231a5761010054801960641161231a576064019081156122eb5760209160646040519202048152f35b7f4e487b7100000000000000000000000000000000000000000000000000000000600052601260045260246000fd5b7f4e487b7100000000000000000000000000000000000000000000000000000000600052601160045260246000fd5b3461022d5760007ffffffffffffffffffffffffffffffffffffffffffffffffffffffffffffffffc36011261022d57612380612de8565b60335460ff8116156123dd577fffffffffffffffffffffffffffffffffffffffffffffffffffffffffffffff00166033557f5db9ee0a495bf2e6ff9c91a7834c1ba4fdd244a5e8aa4e537bd38aeae4b073aa6020604051338152a1005b60646040517f08c379a000000000000000000000000000000000000000000000000000000000815260206004820152601460248201527f5061757361626c653a206e6f74207061757365640000000000000000000000006044820152fd5b3461022d5760407ffffffffffffffffffffffffffffffffffffffffffffffffffffffffffffffffc36011261022d5760043573ffffffffffffffffffffffffffffffffffffffff908160fb5416803303612543576040517efdd58e0000000000000000000000000000000000000000000000000000000081523060048201526024810183905290602090829060449082905afa90811561052457600091612512575b50602435146124e857005b6124f1816135df565b158061250a575b61110857610519918160201c16613bf7565b5060006124f8565b90506020813d821161253b575b8161252c60209383612a8d565b8101031261022d5751836124dd565b3d915061251f565b60046040517f9a5ed74b000000000000000000000000000000000000000000000000000000008152fd5b3461022d5760407ffffffffffffffffffffffffffffffffffffffffffffffffffffffffffffffffc36011261022d576125a46129ca565b3373ffffffffffffffffffffffffffffffffffffffff8216036125cd576105199060043561320a565b60846040517f08c379a000000000000000000000000000000000000000000000000000000000815260206004820152602f60248201527f416363657373436f6e74726f6c3a2063616e206f6e6c792072656e6f756e636560448201527f20726f6c657320666f722073656c6600000000000000000000000000000000006064820152fd5b3461022d5760207ffffffffffffffffffffffffffffffffffffffffffffffffffffffffffffffffc36011261022d57612688612b52565b6126906138a5565b60043561010055005b3461022d5760007ffffffffffffffffffffffffffffffffffffffffffffffffffffffffffffffffc36011261022d5760206040517f26a560d834a19637eccba4611bbc09fb32970bb627da0a70f14f83fdc9822cbc8152f35b3461022d5760407ffffffffffffffffffffffffffffffffffffffffffffffffffffffffffffffffc36011261022d5761051960043560c96127316129ca565b91806000526020906097825261274e600160406000200154613080565b806000526097825273ffffffffffffffffffffffffffffffffffffffff604060002094169384600052825260ff6040600020541615612796575b600052526040600020613585565b80600052609782526040600020846000528252604060002060017fffffffffffffffffffffffffffffffffffffffffffffffffffffffffffffff008254161790553384827f2f8788117e7eff1d82e926ec794901d17c78024a50270940304540a733656f0d6000604051a4612788565b3461022d5760207ffffffffffffffffffffffffffffffffffffffffffffffffffffffffffffffffc36011261022d5760043560005260976020526020600160406000200154604051908152f35b3461022d5760007ffffffffffffffffffffffffffffffffffffffffffffffffffffffffffffffffc36011261022d57602061010154604051908152f35b3461022d5760207ffffffffffffffffffffffffffffffffffffffffffffffffffffffffffffffffc36011261022d57602060646128d2610100546004356132c0565b04604051908152f35b3461022d5760207ffffffffffffffffffffffffffffffffffffffffffffffffffffffffffffffffc36011261022d57600435907fffffffff00000000000000000000000000000000000000000000000000000000821680920361022d57817f5a05180f000000000000000000000000000000000000000000000000000000006020931490811561296d575b5015158152f35b7f7965db0b000000000000000000000000000000000000000000000000000000008114915081156129a0575b5083612966565b7f01ffc9a70000000000000000000000000000000000000000000000000000000091501483612999565b6024359073ffffffffffffffffffffffffffffffffffffffff8216820361022d57565b6004359073ffffffffffffffffffffffffffffffffffffffff8216820361022d57565b9181601f8401121561022d5782359167ffffffffffffffff831161022d576020808501948460051b01011161022d57565b67ffffffffffffffff8111610fb457604052565b6040810190811067ffffffffffffffff821117610fb457604052565b6080810190811067ffffffffffffffff821117610fb457604052565b90601f7fffffffffffffffffffffffffffffffffffffffffffffffffffffffffffffffe0910116810190811067ffffffffffffffff821117610fb457604052565b67ffffffffffffffff8111610fb45760051b60200190565b9291612af182612ace565b91612aff6040519384612a8d565b829481845260208094019160051b810192831161022d57905b828210612b255750505050565b81358152908301908301612b18565b9080601f8301121561022d57816020612b4f93359101612ae6565b90565b3360009081527f683723e34a772b6e4f2c919bba7fa32ed8ea11a8325f54da7db716e9d9dd98c7602090815260408083205490929060ff1615612b9457505050565b612b9d33613339565b9080845190612bab82612a71565b60428252848201926060368537825115612dbb57603084538251600190811015612d8e5790607860218501536041915b808311612d0f57505050612cb3576048612caf938693612c7993612c6a98519889937f416363657373436f6e74726f6c3a206163636f756e74200000000000000000008a860152612c35815180928c603789019101613192565b8401917f206973206d697373696e6720726f6c6520000000000000000000000000000000603784015251809386840190613192565b01036028810187520185612a8d565b519283927f08c379a0000000000000000000000000000000000000000000000000000000008452600484015260248301906131c7565b0390fd5b6064848651907f08c379a000000000000000000000000000000000000000000000000000000000825280600483015260248201527f537472696e67733a20686578206c656e67746820696e73756666696369656e746044820152fd5b909192600f81166010811015612d6157907f3031323334353637383961626364656600000000000000000000000000000000612d5a921a612d5086886132fd565b5360041c9361330e565b9190612bdb565b6024847f4e487b710000000000000000000000000000000000000000000000000000000081526032600452fd5b6024827f4e487b710000000000000000000000000000000000000000000000000000000081526032600452fd5b807f4e487b7100000000000000000000000000000000000000000000000000000000602492526032600452fd5b3360009081527f793844da0378ca0230b21a4013ef02cf55735b90b39c85241478ff94b5eceb28602090815260408083205490927f65d7a28e3265b37a6474929f336521b332c1681b933f6cb9f3376673440d862a9160ff1615612e4c5750505050565b612e5533613339565b91845190612e6282612a71565b60428252848201926060368537825115612dbb57603084538251600190811015612d8e5790607860218501536041915b808311612eec57505050612cb3576048612caf938693612c7993612c6a98519889937f416363657373436f6e74726f6c3a206163636f756e74200000000000000000008a860152612c35815180928c603789019101613192565b909192600f81166010811015612d6157907f3031323334353637383961626364656600000000000000000000000000000000612f2d921a612d5086886132fd565b9190612e92565b3360009081527fb5f2163138415e0d9ff409bd91807317f188396e227f4336fe9ce6461f245197602090815260408083205490927f166dd142f324932e2bb9b86545e760e8c544f1f10f7296e5bc613dfb913294b79160ff1615612f985750505050565b612fa133613339565b91845190612fae82612a71565b60428252848201926060368537825115612dbb57603084538251600190811015612d8e5790607860218501536041915b80831161303857505050612cb3576048612caf938693612c7993612c6a98519889937f416363657373436f6e74726f6c3a206163636f756e74200000000000000000008a860152612c35815180928c603789019101613192565b909192600f81166010811015612d6157907f3031323334353637383961626364656600000000000000000000000000000000613079921a612d5086886132fd565b9190612fde565b60009080825260209060978252604092838120338252835260ff8482205416156130aa5750505050565b6130b333613339565b918451906130c082612a71565b60428252848201926060368537825115612dbb57603084538251600190811015612d8e5790607860218501536041915b80831161314a57505050612cb3576048612caf938693612c7993612c6a98519889937f416363657373436f6e74726f6c3a206163636f756e74200000000000000000008a860152612c35815180928c603789019101613192565b909192600f81166010811015612d6157907f303132333435363738396162636465660000000000000000000000000000000061318b921a612d5086886132fd565b91906130f0565b918091926000905b8282106131b25750116131ab575050565b6000910152565b9150806020918301518186015201829161319a565b907fffffffffffffffffffffffffffffffffffffffffffffffffffffffffffffffe0601f60209361320381518092818752878088019101613192565b0116010190565b90613256916000818152609760205260409173ffffffffffffffffffffffffffffffffffffffff83832094169384835260205260ff8383205416613259575b815260c960205220613737565b50565b80825260976020528282208483526020528282207fffffffffffffffffffffffffffffffffffffffffffffffffffffffffffffff0081541690553384827ff6391f5c32d9c69d2a47ea670b442974b53935d1edc7fd64eb21e047a839171b858751a4613249565b807fffffffffffffffffffffffffffffffffffffffffffffffffffffffffffffffff0482118115151661231a570290565b8119811161231a570190565b908151811015610f85570160200190565b801561231a577fffffffffffffffffffffffffffffffffffffffffffffffffffffffffffffffff0190565b604051906060820182811067ffffffffffffffff821117610fb457604052602a8252602082016040368237825115610f8557603090538151600190811015610f8557607860218401536029905b8082116133f45750506133965790565b60646040517f08c379a000000000000000000000000000000000000000000000000000000000815260206004820152602060248201527f537472696e67733a20686578206c656e67746820696e73756666696369656e746044820152fd5b9091600f8116906010821015613444577f303132333435363738396162636465660000000000000000000000000000000061343e921a61343485876132fd565b5360041c9261330e565b90613386565b602460007f4e487b710000000000000000000000000000000000000000000000000000000081526032600452fd5b6101058054821015610f85576000527ffc62abc8c0fc47c2d92f5aec99bf8b60f375828e14394d89345cae11a98673710190600090565b8054821015610f855760005260206000200190600090565b906000918083526101069283602052604081205415600014613580576101059384549468010000000000000000861015613553578361354361350c886001604098999a018555613472565b819391549060031b7fffffffffffffffffffffffffffffffffffffffffffffffffffffffffffffffff811b9283911b169119161790565b9055549382526020522055600190565b6024837f4e487b710000000000000000000000000000000000000000000000000000000081526041600452fd5b925050565b919060018301600090828252806020526040822054156000146135ce5784549468010000000000000000861015613553578361354361350c886001604098999a018555846134a9565b50925050565b81811061231a570390565b600090808252610106908160205260408320548015156000146137315760018110613704577fffffffffffffffffffffffffffffffffffffffffffffffffffffffffffffffff9081810190610105918254600181106136d7578401908082036136a4575b505050805480156136775782019161365a83613472565b909182549160031b1b191690555582526020526040812055600190565b6024867f4e487b710000000000000000000000000000000000000000000000000000000081526031600452fd5b6136c26136b361350c93613472565b90549060031b1c928392613472565b90558652846020526040862055388080613643565b6024887f4e487b710000000000000000000000000000000000000000000000000000000081526011600452fd5b6024847f4e487b710000000000000000000000000000000000000000000000000000000081526011600452fd5b50505090565b9060018201906000928184528260205260408420549081151560001461381357600182106137e6577fffffffffffffffffffffffffffffffffffffffffffffffffffffffffffffffff918281018254600181106136d7578401908082036137b1575b505050805480156136775782019161365a83836134a9565b6137d16137c161350c93866134a9565b90549060031b1c928392866134a9565b90558652846020526040862055388080613799565b6024857f4e487b710000000000000000000000000000000000000000000000000000000081526011600452fd5b5050505090565b1561382157565b60846040517f08c379a000000000000000000000000000000000000000000000000000000000815260206004820152602b60248201527f496e697469616c697a61626c653a20636f6e7472616374206973206e6f74206960448201527f6e697469616c697a696e670000000000000000000000000000000000000000006064820152fd5b60ff603354166138b157565b60646040517f08c379a000000000000000000000000000000000000000000000000000000000815260206004820152601060248201527f5061757361626c653a20706175736564000000000000000000000000000000006044820152fd5b7fffffffffffffffffffffffffffffffffffffffffffffffffffffffffffffffff811461231a5760010190565b8051821015610f855760209160051b010190565b90815180825260208080930193019160005b828110613970575050505090565b835185529381019392810192600101613962565b926139d892946139ca9196929673ffffffffffffffffffffffffffffffffffffffff8098168652876020971687870152604086015260c0606086015260c0850190613950565b908382036080850152613950565b9060a081830391015281808551928381520194019160005b8281106139ff57505050505090565b83518516865294810194928101926001016139f0565b90613a1f82612ace565b613a2c6040519182612a8d565b8281527fffffffffffffffffffffffffffffffffffffffffffffffffffffffffffffffe0613a5a8294612ace565b0190602036910137565b73ffffffffffffffffffffffffffffffffffffffff60fb5416604091825180927f854560a400000000000000000000000000000000000000000000000000000000825230600483015281602460209384935afa928315613bd457600093613ba2575b508215613b795761010154831115613b0b575b5011613ae25750565b600490517f33aa101c000000000000000000000000000000000000000000000000000000008152fd5b7f26a560d834a19637eccba4611bbc09fb32970bb627da0a70f14f83fdc9822cbc600052609781528360002090336000525260ff83600020541615613b505738613ad9565b600483517f9ece8f2f000000000000000000000000000000000000000000000000000000008152fd5b600484517fade1cb41000000000000000000000000000000000000000000000000000000008152fd5b90928382813d8311613bcd575b613bb98183612a8d565b81010312613bca5750519138613ac6565b80fd5b503d613baf565b84513d6000823e3d90fd5b9081602091031261022d5751801515810361022d5790565b9073ffffffffffffffffffffffffffffffffffffffff821680600052613c2861010492836020526040600020613fbd565b60005260205260026040600020015415613c3f5750565b613c4890613d8e565b565b610102805473ffffffffffffffffffffffffffffffffffffffff9290831680613ced57508216917fffffffffffffffffffffffff0000000000000000000000000000000000000000918383825416179055604051604081019080821067ffffffffffffffff831117610fb4576001916040528481526020810194808652600052610103602052826040600020915116848254161781550192511690825416179055565b909260009082825261010393846020526040938280868620541697865198613d148a612a55565b895260208901928352169586855260205282600181878720995116987fffffffffffffffffffffffff0000000000000000000000000000000000000000998a825416178155019151168782541617905581815416835281848420541683526001848420018587825416179055541681522091825416179055565b73ffffffffffffffffffffffffffffffffffffffff80911690600090828252600181610103938460205260409082848383200154168714600014613e4d576101027fffffffffffffffffffffffff000000000000000000000000000000000000000081541690555b815195613e0287612a55565b8187526020870197828952825260205220935116927fffffffffffffffffffffffff000000000000000000000000000000000000000093848254161781550192511690825416179055565b8284838320015416838383205416825284838320017fffffffffffffffffffffffff0000000000000000000000000000000000000000918282541617905587825283838320541684868585200154168352838320918254161790558261010254168703613df657613f0f61010280547fffffffffffffffffffffffff000000000000000000000000000000000000000073ffffffffffffffffffffffffffffffffffffffff808316600052610103602052600160406000200154169116179055565b613df6565b61ffff8260e01c1690816002820180548015600014613f8b5750816001840155555b81600052602052613f4b826040600020613585565b15613f54575050565b60449250604051917fbd48f90e00000000000000000000000000000000000000000000000000000000835260048301526024820152fd5b90600184019182548410600014613fa457505055613f36565b9091508211613fb5575b5050613f36565b558138613fae565b9061ffff8160e01c1690600092828452602091818352604090613fe281838820613737565b1561414d57508385528183528085205415613fff575b5050505050565b600191828101938454600283019687549182811460001461405057505050505050507fffffffffffffffffffffffffffffffffffffffffffffffffffffffffffffffff9055555b3880808080613ff8565b81999699989394959798146000146140e257505085547ffffffffffffffffffffffffffffffffffffffffffffffffffffffffffffffffe81116137e6578701875b6140a3575b5050505050505050614046565b815481116140dd57808552838352858520546140c8576140c29061390f565b87614091565b96505050505050553880808080808080614096565b614096565b91969181146140f8575050505050505050614046565b8781106137e6577fffffffffffffffffffffffffffffffffffffffffffffffffffffffffffffffff01875b1561409657815481106140dd57808552838352858520546140c8576141479061330e565b87614123565b8460449251917f78717f9900000000000000000000000000000000000000000000000000000000835260048301526024820152fd5b600181015490600091825260205260408120805415612d8e57815260209020549056fea26469706673582212209b820f1dcbec340c2d1e17a3149f740e116492d1459907b0c93c9984790c8aec64736f6c634300080f0033",
  "linkReferences": {},
  "deployedLinkReferences": {}
}