{
  "_format": "hh-sol-artifact-1",
  "contractName": "Market",
  "sourceName": "contracts/Market.sol",
  "abi": [
    {
      "inputs": [],
      "stateMutability": "nonpayable",
      "type": "constructor"
    },
    {
      "inputs": [],
      "name": "InsufficientSupply",
      "type": "error"
    },
    {
      "inputs": [],
      "name": "LowSupplyAllowlistRequired",
      "type": "error"
    },
    {
      "inputs": [],
      "name": "OutOfStock",
      "type": "error"
    },
    {
      "inputs": [
        {
          "internalType": "uint256",
          "name": "removalId",
          "type": "uint256"
        },
        {
          "internalType": "uint256",
          "name": "queueVintage",
          "type": "uint256"
        }
      ],
      "name": "RemovalAlreadyInQueue",
      "type": "error"
    },
    {
      "inputs": [
        {
          "internalType": "uint256",
          "name": "removalId",
          "type": "uint256"
        }
      ],
      "name": "RemovalAlreadyReserved",
      "type": "error"
    },
    {
      "inputs": [
        {
          "internalType": "uint256",
          "name": "removalId",
          "type": "uint256"
        }
      ],
      "name": "RemovalNotInActiveSupply",
      "type": "error"
    },
    {
      "inputs": [
        {
          "internalType": "uint256",
          "name": "removalId",
          "type": "uint256"
        },
        {
          "internalType": "uint256",
          "name": "queueVintage",
          "type": "uint256"
        }
      ],
      "name": "RemovalNotInQueue",
      "type": "error"
    },
    {
      "inputs": [
        {
          "internalType": "uint256",
          "name": "removalId",
          "type": "uint256"
        }
      ],
      "name": "RemovalNotInReservedSupply",
      "type": "error"
    },
    {
      "anonymous": false,
      "inputs": [
        {
          "indexed": false,
          "internalType": "uint8",
          "name": "version",
          "type": "uint8"
        }
      ],
      "name": "Initialized",
      "type": "event"
    },
    {
      "anonymous": false,
      "inputs": [
        {
          "indexed": false,
          "internalType": "uint256",
          "name": "threshold",
          "type": "uint256"
        }
      ],
      "name": "PriorityRestrictedThresholdSet",
      "type": "event"
    },
    {
      "anonymous": false,
      "inputs": [
        {
          "indexed": true,
          "internalType": "bytes32",
          "name": "role",
          "type": "bytes32"
        },
        {
          "indexed": true,
          "internalType": "bytes32",
          "name": "previousAdminRole",
          "type": "bytes32"
        },
        {
          "indexed": true,
          "internalType": "bytes32",
          "name": "newAdminRole",
          "type": "bytes32"
        }
      ],
      "name": "RoleAdminChanged",
      "type": "event"
    },
    {
      "anonymous": false,
      "inputs": [
        {
          "indexed": true,
          "internalType": "bytes32",
          "name": "role",
          "type": "bytes32"
        },
        {
          "indexed": true,
          "internalType": "address",
          "name": "account",
          "type": "address"
        },
        {
          "indexed": true,
          "internalType": "address",
          "name": "sender",
          "type": "address"
        }
      ],
      "name": "RoleGranted",
      "type": "event"
    },
    {
      "anonymous": false,
      "inputs": [
        {
          "indexed": true,
          "internalType": "bytes32",
          "name": "role",
          "type": "bytes32"
        },
        {
          "indexed": true,
          "internalType": "address",
          "name": "account",
          "type": "address"
        },
        {
          "indexed": true,
          "internalType": "address",
          "name": "sender",
          "type": "address"
        }
      ],
      "name": "RoleRevoked",
      "type": "event"
    },
    {
      "inputs": [],
      "name": "ALLOWLIST_ROLE",
      "outputs": [
        {
          "internalType": "bytes32",
          "name": "",
          "type": "bytes32"
        }
      ],
      "stateMutability": "view",
      "type": "function"
    },
    {
      "inputs": [],
      "name": "DEFAULT_ADMIN_ROLE",
      "outputs": [
        {
          "internalType": "bytes32",
          "name": "",
          "type": "bytes32"
        }
      ],
      "stateMutability": "view",
      "type": "function"
    },
    {
      "inputs": [
        {
          "internalType": "bytes32",
          "name": "role",
          "type": "bytes32"
        }
      ],
      "name": "getRoleAdmin",
      "outputs": [
        {
          "internalType": "bytes32",
          "name": "",
          "type": "bytes32"
        }
      ],
      "stateMutability": "view",
      "type": "function"
    },
    {
      "inputs": [
        {
          "internalType": "bytes32",
          "name": "role",
          "type": "bytes32"
        },
        {
          "internalType": "uint256",
          "name": "index",
          "type": "uint256"
        }
      ],
      "name": "getRoleMember",
      "outputs": [
        {
          "internalType": "address",
          "name": "",
          "type": "address"
        }
      ],
      "stateMutability": "view",
      "type": "function"
    },
    {
      "inputs": [
        {
          "internalType": "bytes32",
          "name": "role",
          "type": "bytes32"
        }
      ],
      "name": "getRoleMemberCount",
      "outputs": [
        {
          "internalType": "uint256",
          "name": "",
          "type": "uint256"
        }
      ],
      "stateMutability": "view",
      "type": "function"
    },
    {
      "inputs": [
        {
          "internalType": "bytes32",
          "name": "role",
          "type": "bytes32"
        },
        {
          "internalType": "address",
          "name": "account",
          "type": "address"
        }
      ],
      "name": "grantRole",
      "outputs": [],
      "stateMutability": "nonpayable",
      "type": "function"
    },
    {
      "inputs": [
        {
          "internalType": "bytes32",
          "name": "role",
          "type": "bytes32"
        },
        {
          "internalType": "address",
          "name": "account",
          "type": "address"
        }
      ],
      "name": "hasRole",
      "outputs": [
        {
          "internalType": "bool",
          "name": "",
          "type": "bool"
        }
      ],
      "stateMutability": "view",
      "type": "function"
    },
    {
      "inputs": [
        {
          "internalType": "address",
          "name": "removalAddress",
          "type": "address"
        },
        {
          "internalType": "address",
          "name": "bridgedPolygonNoriAddress",
          "type": "address"
        },
        {
          "internalType": "address",
          "name": "certificateAddress",
          "type": "address"
        },
        {
          "internalType": "address",
          "name": "restrictedNoriAddress",
          "type": "address"
        },
        {
          "internalType": "address",
          "name": "noriFeeWalletAddress",
          "type": "address"
        },
        {
          "internalType": "uint256",
          "name": "noriFee",
          "type": "uint256"
        }
      ],
      "name": "initialize",
      "outputs": [],
      "stateMutability": "nonpayable",
      "type": "function"
    },
    {
      "inputs": [],
      "name": "numberOfActiveRemovals",
      "outputs": [
        {
          "internalType": "uint256",
          "name": "",
          "type": "uint256"
        }
      ],
      "stateMutability": "view",
      "type": "function"
    },
    {
      "inputs": [
        {
          "internalType": "address",
          "name": "",
          "type": "address"
        },
        {
          "internalType": "address",
          "name": "",
          "type": "address"
        },
        {
          "internalType": "uint256[]",
          "name": "ids",
          "type": "uint256[]"
        },
        {
          "internalType": "uint256[]",
          "name": "",
          "type": "uint256[]"
        },
        {
          "internalType": "bytes",
          "name": "data",
          "type": "bytes"
        }
      ],
      "name": "onERC1155BatchReceived",
      "outputs": [
        {
          "internalType": "bytes4",
          "name": "",
          "type": "bytes4"
        }
      ],
      "stateMutability": "nonpayable",
      "type": "function"
    },
    {
      "inputs": [
        {
          "internalType": "address",
          "name": "",
          "type": "address"
        },
        {
          "internalType": "address",
          "name": "",
          "type": "address"
        },
        {
          "internalType": "uint256",
          "name": "",
          "type": "uint256"
        },
        {
          "internalType": "uint256",
          "name": "",
          "type": "uint256"
        },
        {
          "internalType": "bytes",
          "name": "",
          "type": "bytes"
        }
      ],
      "name": "onERC1155Received",
      "outputs": [
        {
          "internalType": "bytes4",
          "name": "",
          "type": "bytes4"
        }
      ],
      "stateMutability": "nonpayable",
      "type": "function"
    },
    {
      "inputs": [],
      "name": "priorityRestrictedThreshold",
      "outputs": [
        {
          "internalType": "uint256",
          "name": "",
          "type": "uint256"
        }
      ],
      "stateMutability": "view",
      "type": "function"
    },
    {
      "inputs": [
        {
          "internalType": "uint256",
          "name": "removalId",
          "type": "uint256"
        },
        {
          "internalType": "uint256",
          "name": "amount",
          "type": "uint256"
        }
      ],
      "name": "release",
      "outputs": [],
      "stateMutability": "nonpayable",
      "type": "function"
    },
    {
      "inputs": [
        {
          "internalType": "bytes32",
          "name": "role",
          "type": "bytes32"
        },
        {
          "internalType": "address",
          "name": "account",
          "type": "address"
        }
      ],
      "name": "renounceRole",
      "outputs": [],
      "stateMutability": "nonpayable",
      "type": "function"
    },
    {
      "inputs": [
        {
          "internalType": "uint256",
          "name": "removalId",
          "type": "uint256"
        }
      ],
      "name": "reserveRemoval",
      "outputs": [],
      "stateMutability": "nonpayable",
      "type": "function"
    },
    {
      "inputs": [
        {
          "internalType": "bytes32",
          "name": "role",
          "type": "bytes32"
        },
        {
          "internalType": "address",
          "name": "account",
          "type": "address"
        }
      ],
      "name": "revokeRole",
      "outputs": [],
      "stateMutability": "nonpayable",
      "type": "function"
    },
    {
      "inputs": [
        {
          "internalType": "uint256",
          "name": "threshold",
          "type": "uint256"
        }
      ],
      "name": "setPriorityRestrictedThreshold",
      "outputs": [],
      "stateMutability": "nonpayable",
      "type": "function"
    },
    {
      "inputs": [
        {
          "internalType": "bytes4",
          "name": "interfaceId",
          "type": "bytes4"
        }
      ],
      "name": "supportsInterface",
      "outputs": [
        {
          "internalType": "bool",
          "name": "",
          "type": "bool"
        }
      ],
      "stateMutability": "view",
      "type": "function"
    },
    {
      "inputs": [
        {
          "internalType": "address",
          "name": "recipient",
          "type": "address"
        },
        {
          "internalType": "uint256",
          "name": "amount",
          "type": "uint256"
        },
        {
          "internalType": "uint256",
          "name": "deadline",
          "type": "uint256"
        },
        {
          "internalType": "uint8",
          "name": "v",
          "type": "uint8"
        },
        {
          "internalType": "bytes32",
          "name": "r",
          "type": "bytes32"
        },
        {
          "internalType": "bytes32",
          "name": "s",
          "type": "bytes32"
        }
      ],
      "name": "swap",
      "outputs": [],
      "stateMutability": "nonpayable",
      "type": "function"
    },
    {
      "inputs": [
        {
          "internalType": "address",
          "name": "recipient",
          "type": "address"
        },
        {
          "internalType": "uint256",
          "name": "amount",
          "type": "uint256"
        },
        {
          "internalType": "address",
          "name": "supplierToBuyFrom",
          "type": "address"
        },
        {
          "internalType": "uint256",
          "name": "deadline",
          "type": "uint256"
        },
        {
          "internalType": "uint8",
          "name": "v",
          "type": "uint8"
        },
        {
          "internalType": "bytes32",
          "name": "r",
          "type": "bytes32"
        },
        {
          "internalType": "bytes32",
          "name": "s",
          "type": "bytes32"
        }
      ],
      "name": "swapFromSpecificSupplier",
      "outputs": [],
      "stateMutability": "nonpayable",
      "type": "function"
    },
    {
      "inputs": [],
      "name": "totalActiveSupply",
      "outputs": [
        {
          "internalType": "uint256",
          "name": "",
          "type": "uint256"
        }
      ],
      "stateMutability": "view",
      "type": "function"
    },
    {
      "inputs": [],
      "name": "totalReservedSupply",
      "outputs": [
        {
          "internalType": "uint256",
          "name": "",
          "type": "uint256"
        }
      ],
      "stateMutability": "view",
      "type": "function"
    },
    {
      "inputs": [],
      "name": "totalUnrestrictedSupply",
      "outputs": [
        {
          "internalType": "uint256",
          "name": "",
          "type": "uint256"
        }
      ],
      "stateMutability": "view",
      "type": "function"
    },
    {
      "inputs": [
        {
          "internalType": "uint256",
          "name": "removalId",
          "type": "uint256"
        }
      ],
      "name": "unreserveRemoval",
      "outputs": [],
      "stateMutability": "nonpayable",
      "type": "function"
    }
  ],
  "bytecode": "0x60806040523480156200001157600080fd5b506200001c62000022565b620000e4565b600054610100900460ff16156200008f5760405162461bcd60e51b815260206004820152602760248201527f496e697469616c697a61626c653a20636f6e747261637420697320696e697469604482015266616c697a696e6760c81b606482015260840160405180910390fd5b60005460ff9081161015620000e2576000805460ff191660ff9081179091556040519081527f7f26b83ff96e1f2b6a682f133852f6798a09c465da95921460cefb38474024989060200160405180910390a15b565b6136b580620000f46000396000f3fe608060405234801561001057600080fd5b50600436106101985760003560e01c80639010d07c116100e3578063ca15c8731161008c578063d797462f11610066578063d797462f146103b9578063da9d20e7146103cc578063f23a6e61146103df57600080fd5b8063ca15c87314610380578063ce0ec47414610393578063d547741f146103a657600080fd5b806397a11ee9116100bd57806397a11ee914610321578063a217fddf14610334578063bc197c811461033c57600080fd5b80639010d07c1461029057806391d14854146102c857806395b6ef0c1461030e57600080fd5b806336568abe11610145578063674d13c81161011f578063674d13c81461027857806372069264146102805780637530b4501461028857600080fd5b806336568abe1461023f578063366a41201461025257806359e1a71c1461026557600080fd5b8063248a9ca311610176578063248a9ca3146101e05780632f2ff15d146102035780633030b5321461021857600080fd5b806301ffc9a71461019d57806312de2b05146101c557806321700561146101d8575b600080fd5b6101b06101ab366004612cb9565b610417565b60405190151581526020015b60405180910390f35b610133545b6040519081526020016101bc565b6101ca610437565b6101ca6101ee366004612cfb565b60009081526065602052604090206001015490565b610216610211366004612d3d565b61054b565b005b6101ca7f26a560d834a19637eccba4611bbc09fb32970bb627da0a70f14f83fdc9822cbc81565b61021661024d366004612d3d565b610575565b610216610260366004612d69565b61062d565b610216610273366004612cfb565b6106f8565b6101ca610754565b6101ca6107a0565b6101ca610868565b6102a361029e366004612d69565b610902565b60405173ffffffffffffffffffffffffffffffffffffffff90911681526020016101bc565b6101b06102d6366004612d3d565b600091825260656020908152604080842073ffffffffffffffffffffffffffffffffffffffff93909316845291905290205460ff1690565b61021661031c366004612d8b565b610921565b61021661032f366004612cfb565b610ba6565b6101ca600081565b61034f61034a366004612f93565b610c23565b6040517fffffffff0000000000000000000000000000000000000000000000000000000090911681526020016101bc565b6101ca61038e366004612cfb565b610da4565b6102166103a136600461304e565b610dbb565b6102166103b4366004612d3d565b610ded565b6102166103c7366004612cfb565b610e12565b6102166103da3660046130a6565b610e5a565b61034f6103ed366004613110565b7ff23a6e610000000000000000000000000000000000000000000000000000000095945050505050565b600061042282610ff9565b8061043157506104318261104f565b92915050565b60003073ffffffffffffffffffffffffffffffffffffffff1663674d13c86040518163ffffffff1660e01b8152600401602060405180830381865afa158015610484573d6000803e3d6000fd5b505050506040513d601f19601f820116820180604052508101906104a89190613175565b61012d546040517f789e8cdf00000000000000000000000000000000000000000000000000000000815230600482015273ffffffffffffffffffffffffffffffffffffffff9091169063789e8cdf906024015b602060405180830381865afa158015610518573d6000803e3d6000fd5b505050506040513d601f19601f8201168201806040525081019061053c9190613175565b61054691906131bd565b905090565b600082815260656020526040902060010154610566816110a5565b61057083836110b2565b505050565b73ffffffffffffffffffffffffffffffffffffffff8116331461061f576040517f08c379a000000000000000000000000000000000000000000000000000000000815260206004820152602f60248201527f416363657373436f6e74726f6c3a2063616e206f6e6c792072656e6f756e636560448201527f20726f6c657320666f722073656c66000000000000000000000000000000000060648201526084015b60405180910390fd5b61062982826110d4565b5050565b6000610638836110f6565b61012d546040517efdd58e0000000000000000000000000000000000000000000000000000000081523060048201526024810186905291925060009173ffffffffffffffffffffffffffffffffffffffff9091169062fdd58e90604401602060405180830381865afa1580156106b2573d6000803e3d6000fd5b505050506040513d601f19601f820116820180604052508101906106d69190613175565b90508083036106f2576106e884611105565b6106f2828561114a565b50505050565b6000610703826110f6565b905061070f818361114a565b61071b610137836111b1565b610629576040517f91ae052500000000000000000000000000000000000000000000000000000000815260048101839052602401610616565b600080806107636101376111bd565b905060005b818110156107985761077c610137826111c7565b61078690846131d4565b9250610791816131ec565b9050610768565b509092915050565b60003073ffffffffffffffffffffffffffffffffffffffff1663674d13c86040518163ffffffff1660e01b8152600401602060405180830381865afa1580156107ed573d6000803e3d6000fd5b505050506040513d601f19601f820116820180604052508101906108119190613175565b61012d546040517f854560a400000000000000000000000000000000000000000000000000000000815230600482015273ffffffffffffffffffffffffffffffffffffffff9091169063854560a4906024016104fb565b6000803073ffffffffffffffffffffffffffffffffffffffff1663720692646040518163ffffffff1660e01b8152600401602060405180830381865afa1580156108b6573d6000803e3d6000fd5b505050506040513d601f19601f820116820180604052508101906108da9190613175565b90506101335481106108f957610133546108f490826131bd565b6108fc565b60005b91505090565b600082815260976020526040812061091a90836111c7565b9392505050565b600054610100900460ff16158080156109415750600054600160ff909116105b8061095b5750303b15801561095b575060005460ff166001145b6109e7576040517f08c379a000000000000000000000000000000000000000000000000000000000815260206004820152602e60248201527f496e697469616c697a61626c653a20636f6e747261637420697320616c72656160448201527f647920696e697469616c697a65640000000000000000000000000000000000006064820152608401610616565b600080547fffffffffffffffffffffffffffffffffffffffffffffffffffffffffffffff001660011790558015610a4557600080547fffffffffffffffffffffffffffffffffffffffffffffffffffffffffffff00ff166101001790555b610a4d6111d3565b610a556111d3565b610a5d6111d3565b610a656111d3565b610a6d6111d3565b61012d80547fffffffffffffffffffffffff000000000000000000000000000000000000000090811673ffffffffffffffffffffffffffffffffffffffff8a81169190911790925561012f8054821689841617905561012e8054821688841617905561013080548216878416179055610131805482169286169290921790915561013283905560006101338190556101348054909216909155610b1090336110b2565b610b3a7f26a560d834a19637eccba4611bbc09fb32970bb627da0a70f14f83fdc9822cbc336110b2565b8015610b9d57600080547fffffffffffffffffffffffffffffffffffffffffffffffffffffffffffff00ff169055604051600181527f7f26b83ff96e1f2b6a682f133852f6798a09c465da95921460cefb38474024989060200160405180910390a15b50505050505050565b6000610bb1826110f6565b9050610bbc82611105565b73ffffffffffffffffffffffffffffffffffffffff811660009081526101366020526040902060020154610bf357610bf38161126c565b73ffffffffffffffffffffffffffffffffffffffff811660009081526101366020526040902061057090836113d5565b6000805b8451811015610cdb576000858281518110610c4457610c44613224565b602002602001015190506000610c59826110f6565b73ffffffffffffffffffffffffffffffffffffffff8116600090815261013660205260409020909150610c8c90836113d5565b5073ffffffffffffffffffffffffffffffffffffffff8181166000908152610135602052604090206001015416610cc657610cc68161126c565b50508080610cd3906131ec565b915050610c27565b50600082806020019051810190610cf29190613175565b610130546040517ff6f57a2e0000000000000000000000000000000000000000000000000000000081526004810183905291925073ffffffffffffffffffffffffffffffffffffffff169063f6f57a2e90602401600060405180830381600087803b158015610d6057600080fd5b505af1158015610d74573d6000803e3d6000fd5b507fbc197c81000000000000000000000000000000000000000000000000000000009a9950505050505050505050565b6000818152609760205260408120610431906111bd565b846000808080610dca85611496565b9350935093509350610de0858c868686866119ce565b5050505050505050505050565b600082815260656020526040902060010154610e08816110a5565b61057083836110d4565b6000610e1d816110a5565b6101338290556040518281527f7ab6aa6547859e9ca74d567d44fefa0d63272ac019f4ebf9333032a62ea06fa59060200160405180910390a15050565b610e62611d65565b8560008080610e71848a611e7c565b92509250925060008367ffffffffffffffff811115610e9257610e92612df8565b604051908082528060200260200182016040528015610ebb578160200160208202803683370190505b50905060005b84811015610f13578a828281518110610edc57610edc613224565b73ffffffffffffffffffffffffffffffffffffffff9092166020928302919091019091015280610f0b816131ec565b915050610ec1565b5061012f5473ffffffffffffffffffffffffffffffffffffffff1663d505accf336040517fffffffff0000000000000000000000000000000000000000000000000000000060e084901b16815273ffffffffffffffffffffffffffffffffffffffff9091166004820152306024820152604481018e9052606481018c905260ff8b16608482015260a481018a905260c4810189905260e401600060405180830381600087803b158015610fc557600080fd5b505af1158015610fd9573d6000803e3d6000fd5b50505050610feb858d868686866119ce565b505050505050505050505050565b60007fffffffff0000000000000000000000000000000000000000000000000000000082167f5a05180f0000000000000000000000000000000000000000000000000000000014806104315750610431826121b2565b60007fffffffff0000000000000000000000000000000000000000000000000000000082167f4e2312e0000000000000000000000000000000000000000000000000000000001480610431575061043182610ff9565b6110af8133612249565b50565b6110bc828261231b565b6000828152609760205260409020610570908261240f565b6110de8282612431565b600082815260976020526040902061057090826124ec565b6000610431826014600461250e565b611111610137826111b1565b6110af576040517fbd5baa9200000000000000000000000000000000000000000000000000000000815260048101829052602401610616565b73ffffffffffffffffffffffffffffffffffffffff821660009081526101366020526040902061117a908261255a565b73ffffffffffffffffffffffffffffffffffffffff82166000908152610136602052604090206002015461062957610629826126e2565b600061091a83836128a7565b6000610431825490565b600061091a83836128f6565b600054610100900460ff1661126a576040517f08c379a000000000000000000000000000000000000000000000000000000000815260206004820152602b60248201527f496e697469616c697a61626c653a20636f6e7472616374206973206e6f74206960448201527f6e697469616c697a696e670000000000000000000000000000000000000000006064820152608401610616565b565b6101345473ffffffffffffffffffffffffffffffffffffffff1661131457610134805473ffffffffffffffffffffffffffffffffffffffff9283167fffffffffffffffffffffffff00000000000000000000000000000000000000009182168117909255604080518082018252838152602080820185815260009586526101359091529190932092518354908516908316178355516001929092018054929093169116179055565b604080518082018252610134805473ffffffffffffffffffffffffffffffffffffffff908116600081815261013560208181528783205485168752808701938452888516808452919052868220955186549085167fffffffffffffffffffffffff00000000000000000000000000000000000000009182161787559251600196870180549186169185169190911790558454841682528682205484168252868220909501805483168617905592549091168252929020805490921617905550565b6000806113e183612920565b61ffff1690506113f384600201541590565b1561140b576001840181905560028401819055611437565b83600101548110156114235760018401819055611437565b836002015481111561143757600284018190555b600081815260208590526040902061144f90846111b1565b61148f576040517fbd48f90e0000000000000000000000000000000000000000000000000000000081526004810184905260248101829052604401610616565b5092915050565b60006060806060600085905060003073ffffffffffffffffffffffffffffffffffffffff1663217005616040518163ffffffff1660e01b8152600401602060405180830381865afa1580156114ef573d6000803e3d6000fd5b505050506040513d601f19601f820116820180604052508101906115139190613175565b905060008167ffffffffffffffff81111561153057611530612df8565b604051908082528060200260200182016040528015611559578160200160208202803683370190505b50905060008267ffffffffffffffff81111561157757611577612df8565b6040519080825280602002602001820160405280156115a0578160200160208202803683370190505b50905060008367ffffffffffffffff8111156115be576115be612df8565b6040519080825280602002602001820160405280156115e7578160200160208202803683370190505b5090506000805b858110156119bd576101345473ffffffffffffffffffffffffffffffffffffffff166000908152610136602052604081206116289061292f565b61012d546040517efdd58e0000000000000000000000000000000000000000000000000000000081523060048201526024810183905291925060009173ffffffffffffffffffffffffffffffffffffffff9091169062fdd58e90604401602060405180830381865afa1580156116a2573d6000803e3d6000fd5b505050506040513d601f19601f820116820180604052508101906116c69190613175565b90508089101561178157818785815181106116e3576116e3613224565b6020026020010181815250508886858151811061170257611702613224565b602090810291909101015261013454855173ffffffffffffffffffffffffffffffffffffffff9091169086908690811061173e5761173e613224565b602002602001019073ffffffffffffffffffffffffffffffffffffffff16908173ffffffffffffffffffffffffffffffffffffffff16815250506000985061198c565b61178c6001896131bd565b8314801561179957508089115b156117d0576040517f33aa101c00000000000000000000000000000000000000000000000000000000815260040160405180910390fd5b818785815181106117e3576117e3613224565b6020026020010181815250508086858151811061180257611802613224565b602090810291909101015261013454855173ffffffffffffffffffffffffffffffffffffffff9091169086908690811061183e5761183e613224565b73ffffffffffffffffffffffffffffffffffffffff9092166020928302919091019091015261186d818a6131bd565b6101345473ffffffffffffffffffffffffffffffffffffffff166000908152610136602052604090209099506118a3908361255a565b6101345473ffffffffffffffffffffffffffffffffffffffff16600090815261013660205260409020600201546118fc57610134546118f79073ffffffffffffffffffffffffffffffffffffffff166126e2565b61198c565b6101345473ffffffffffffffffffffffffffffffffffffffff908116600081815261013560205260409020600101549091161461198c57610134805473ffffffffffffffffffffffffffffffffffffffff80821660009081526101356020526040902060010154167fffffffffffffffffffffffff00000000000000000000000000000000000000009091161790555b83611996816131ec565b945050886000036119a85750506119bd565b505080806119b5906131ec565b9150506115ee565b509a92995090975095509350505050565b60008467ffffffffffffffff8111156119e9576119e9612df8565b604051908082528060200260200182016040528015611a12578160200160208202803683370190505b50905060008567ffffffffffffffff811115611a3057611a30612df8565b604051908082528060200260200182016040528015611a59578160200160208202803683370190505b50905060005b86811015611ae857858181518110611a7957611a79613224565b6020026020010151838281518110611a9357611a93613224565b602002602001018181525050848181518110611ab157611ab1613224565b6020026020010151828281518110611acb57611acb613224565b602090810291909101015280611ae0816131ec565b915050611a5f565b5061012d546040517fb6477cc000000000000000000000000000000000000000000000000000000000815260009173ffffffffffffffffffffffffffffffffffffffff169063b6477cc090611b41908690600401613253565b600060405180830381865afa158015611b5e573d6000803e3d6000fd5b505050506040513d6000823e601f3d9081017fffffffffffffffffffffffffffffffffffffffffffffffffffffffffffffffe0168201604052611ba49190810190613297565b90503060005b8451811015611c82576000606461013254868481518110611bcd57611bcd613224565b6020026020010151611bdf9190613328565b611be99190613365565b9050600080868481518110611c0057611c00613224565b602002602001015190506000868581518110611c1e57611c1e613224565b60200260200101511115611c6c576064868581518110611c4057611c40613224565b602002602001015182611c539190613328565b611c5d9190613365565b9150611c6982826131bd565b90505b5050508080611c7a906131ec565b915050611baa565b5061012d5461012e54855173ffffffffffffffffffffffffffffffffffffffff9283169263f242432a9285929116908890600090611cc257611cc2613224565b60200260200101518e89600081518110611cde57611cde613224565b6020026020010151604051602001611cf891815260200190565b6040516020818303038152906040526040518663ffffffff1660e01b8152600401611d27959493929190613416565b600060405180830381600087803b158015611d4157600080fd5b505af1158015611d55573d6000803e3d6000fd5b5050505050505050505050505050565b60003073ffffffffffffffffffffffffffffffffffffffff1663720692646040518163ffffffff1660e01b8152600401602060405180830381865afa158015611db2573d6000803e3d6000fd5b505050506040513d601f19601f82011682018060405250810190611dd69190613175565b905080600003611e12576040517fade1cb4100000000000000000000000000000000000000000000000000000000815260040160405180910390fd5b6101335481116110af57611e467f26a560d834a19637eccba4611bbc09fb32970bb627da0a70f14f83fdc9822cbc336102d6565b6110af576040517f9ece8f2f00000000000000000000000000000000000000000000000000000000815260040160405180910390fd5b73ffffffffffffffffffffffffffffffffffffffff811660009081526101366020526040812060018101546002820154606092839290918591905b808211611eec576000828152602085905260409020611ed5906111bd565b611edf90846131d4565b9250600190910190611eb7565b82600003611f26576040517f33aa101c00000000000000000000000000000000000000000000000000000000815260040160405180910390fd5b8860008467ffffffffffffffff811115611f4257611f42612df8565b604051908082528060200260200182016040528015611f6b578160200160208202803683370190505b50905060008567ffffffffffffffff811115611f8957611f89612df8565b604051908082528060200260200182016040528015611fb2578160200160208202803683370190505b5090506000805b878110156121a0576000611fcc8a61292f565b61012d546040517efdd58e0000000000000000000000000000000000000000000000000000000081523060048201526024810183905291925060009173ffffffffffffffffffffffffffffffffffffffff9091169062fdd58e90604401602060405180830381865afa158015612046573d6000803e3d6000fd5b505050506040513d601f19601f8201168201806040525081019061206a9190613175565b9050808710156120bb578186858151811061208757612087613224565b602002602001018181525050868585815181106120a6576120a6613224565b6020026020010181815250506000965061216f565b6120c660018b6131bd565b841480156120d357508087115b1561210a576040517f33aa101c00000000000000000000000000000000000000000000000000000000815260040160405180910390fd5b8186858151811061211d5761211d613224565b6020026020010181815250508085858151811061213c5761213c613224565b602090810291909101015261215181886131bd565b965061215d8b8361255a565b60028b015461216f5761216f8f6126e2565b83612179816131ec565b9450508660000361218b5750506121a0565b50508080612198906131ec565b915050611fb9565b509c919b509950975050505050505050565b60007fffffffff0000000000000000000000000000000000000000000000000000000082167f7965db0b00000000000000000000000000000000000000000000000000000000148061043157507f01ffc9a7000000000000000000000000000000000000000000000000000000007fffffffff00000000000000000000000000000000000000000000000000000000831614610431565b600082815260656020908152604080832073ffffffffffffffffffffffffffffffffffffffff8516845290915290205460ff16610629576122a18173ffffffffffffffffffffffffffffffffffffffff16601461294c565b6122ac83602061294c565b6040516020016122bd92919061345b565b604080517fffffffffffffffffffffffffffffffffffffffffffffffffffffffffffffffe0818403018152908290527f08c379a0000000000000000000000000000000000000000000000000000000008252610616916004016134dc565b600082815260656020908152604080832073ffffffffffffffffffffffffffffffffffffffff8516845290915290205460ff1661062957600082815260656020908152604080832073ffffffffffffffffffffffffffffffffffffffff85168452909152902080547fffffffffffffffffffffffffffffffffffffffffffffffffffffffffffffff001660011790556123b13390565b73ffffffffffffffffffffffffffffffffffffffff168173ffffffffffffffffffffffffffffffffffffffff16837f2f8788117e7eff1d82e926ec794901d17c78024a50270940304540a733656f0d60405160405180910390a45050565b600061091a8373ffffffffffffffffffffffffffffffffffffffff84166128a7565b600082815260656020908152604080832073ffffffffffffffffffffffffffffffffffffffff8516845290915290205460ff161561062957600082815260656020908152604080832073ffffffffffffffffffffffffffffffffffffffff8516808552925280832080547fffffffffffffffffffffffffffffffffffffffffffffffffffffffffffffff0016905551339285917ff6391f5c32d9c69d2a47ea670b442974b53935d1edc7fd64eb21e047a839171b9190a45050565b600061091a8373ffffffffffffffffffffffffffffffffffffffff8416612b8f565b60008061251c600884613328565b6001612529600887613328565b61253490600261360f565b61253e91906131bd565b901b9050848116612550600885613328565b1c95945050505050565b600061256582612920565b61ffff1660008181526020859052604090209091506125849083612c82565b6125c4576040517f78717f990000000000000000000000000000000000000000000000000000000081526004810183905260248101829052604401610616565b6125ce8382612c8e565b15610570578260020154836001015403612614577fffffffffffffffffffffffffffffffffffffffffffffffffffffffffffffffff600184015560006002840155505050565b8260010154810361267b5760008360010154600161263291906131d4565b90505b836002015481116106f2576000818152602085905260408120612657906111bd565b111561266957600184018190556106f2565b80612673816131ec565b915050612635565b826002015481036105705760006001846002015461269991906131bd565b90505b836001015481106106f25760008181526020859052604081206126be906111bd565b11156126d057600284018190556106f2565b806126da8161361b565b91505061269c565b73ffffffffffffffffffffffffffffffffffffffff8082166000818152610135602052604090206001015490911690036127445761013480547fffffffffffffffffffffffff000000000000000000000000000000000000000016905561282c565b73ffffffffffffffffffffffffffffffffffffffff818116600081815261013560205260408082206001808201805483548816865284862090920180549288167fffffffffffffffffffffffff000000000000000000000000000000000000000093841617905591549154861684529190922080549285169290911691909117905561013454909116900361282c57610134805473ffffffffffffffffffffffffffffffffffffffff80821660009081526101356020526040902060010154167fffffffffffffffffffffffff00000000000000000000000000000000000000009091161790555b6040805180820182526000808252602080830182815273ffffffffffffffffffffffffffffffffffffffff9586168352610135909152929020905181549084167fffffffffffffffffffffffff0000000000000000000000000000000000000000918216178255915160019091018054919093169116179055565b60008181526001830160205260408120546128ee57508154600181810184556000848152602080822090930184905584548482528286019093526040902091909155610431565b506000610431565b600082600001828154811061290d5761290d613224565b9060005260206000200154905092915050565b6000610431826002601c61250e565b6001810154600090815260208290526040812061043190826111c7565b6060600061295b836002613328565b6129669060026131d4565b67ffffffffffffffff81111561297e5761297e612df8565b6040519080825280601f01601f1916602001820160405280156129a8576020820181803683370190505b5090507f3000000000000000000000000000000000000000000000000000000000000000816000815181106129df576129df613224565b60200101907effffffffffffffffffffffffffffffffffffffffffffffffffffffffffffff1916908160001a9053507f780000000000000000000000000000000000000000000000000000000000000081600181518110612a4257612a42613224565b60200101907effffffffffffffffffffffffffffffffffffffffffffffffffffffffffffff1916908160001a9053506000612a7e846002613328565b612a899060016131d4565b90505b6001811115612b26577f303132333435363738396162636465660000000000000000000000000000000085600f1660108110612aca57612aca613224565b1a60f81b828281518110612ae057612ae0613224565b60200101907effffffffffffffffffffffffffffffffffffffffffffffffffffffffffffff1916908160001a90535060049490941c93612b1f8161361b565b9050612a8c565b50831561091a576040517f08c379a000000000000000000000000000000000000000000000000000000000815260206004820181905260248201527f537472696e67733a20686578206c656e67746820696e73756666696369656e746044820152606401610616565b60008181526001830160205260408120548015612c78576000612bb36001836131bd565b8554909150600090612bc7906001906131bd565b9050818114612c2c576000866000018281548110612be757612be7613224565b9060005260206000200154905080876000018481548110612c0a57612c0a613224565b6000918252602080832090910192909255918252600188019052604090208390555b8554869080612c3d57612c3d613650565b600190038181906000526020600020016000905590558560010160008681526020019081526020016000206000905560019350505050610431565b6000915050610431565b600061091a8383612b8f565b6000612c9a8383612ca2565b159392505050565b600081815260208390526040812061091a906111bd565b600060208284031215612ccb57600080fd5b81357fffffffff000000000000000000000000000000000000000000000000000000008116811461091a57600080fd5b600060208284031215612d0d57600080fd5b5035919050565b803573ffffffffffffffffffffffffffffffffffffffff81168114612d3857600080fd5b919050565b60008060408385031215612d5057600080fd5b82359150612d6060208401612d14565b90509250929050565b60008060408385031215612d7c57600080fd5b50508035926020909101359150565b60008060008060008060c08789031215612da457600080fd5b612dad87612d14565b9550612dbb60208801612d14565b9450612dc960408801612d14565b9350612dd760608801612d14565b9250612de560808801612d14565b915060a087013590509295509295509295565b7f4e487b7100000000000000000000000000000000000000000000000000000000600052604160045260246000fd5b604051601f82017fffffffffffffffffffffffffffffffffffffffffffffffffffffffffffffffe016810167ffffffffffffffff81118282101715612e6e57612e6e612df8565b604052919050565b600067ffffffffffffffff821115612e9057612e90612df8565b5060051b60200190565b600082601f830112612eab57600080fd5b81356020612ec0612ebb83612e76565b612e27565b82815260059290921b84018101918181019086841115612edf57600080fd5b8286015b84811015612efa5780358352918301918301612ee3565b509695505050505050565b600082601f830112612f1657600080fd5b813567ffffffffffffffff811115612f3057612f30612df8565b612f6160207fffffffffffffffffffffffffffffffffffffffffffffffffffffffffffffffe0601f84011601612e27565b818152846020838601011115612f7657600080fd5b816020850160208301376000918101602001919091529392505050565b600080600080600060a08688031215612fab57600080fd5b612fb486612d14565b9450612fc260208701612d14565b9350604086013567ffffffffffffffff80821115612fdf57600080fd5b612feb89838a01612e9a565b9450606088013591508082111561300157600080fd5b61300d89838a01612e9a565b9350608088013591508082111561302357600080fd5b5061303088828901612f05565b9150509295509295909350565b803560ff81168114612d3857600080fd5b60008060008060008060c0878903121561306757600080fd5b61307087612d14565b9550602087013594506040870135935061308c6060880161303d565b92506080870135915060a087013590509295509295509295565b600080600080600080600060e0888a0312156130c157600080fd5b6130ca88612d14565b9650602088013595506130df60408901612d14565b9450606088013593506130f46080890161303d565b925060a0880135915060c0880135905092959891949750929550565b600080600080600060a0868803121561312857600080fd5b61313186612d14565b945061313f60208701612d14565b93506040860135925060608601359150608086013567ffffffffffffffff81111561316957600080fd5b61303088828901612f05565b60006020828403121561318757600080fd5b5051919050565b7f4e487b7100000000000000000000000000000000000000000000000000000000600052601160045260246000fd5b6000828210156131cf576131cf61318e565b500390565b600082198211156131e7576131e761318e565b500190565b60007fffffffffffffffffffffffffffffffffffffffffffffffffffffffffffffffff820361321d5761321d61318e565b5060010190565b7f4e487b7100000000000000000000000000000000000000000000000000000000600052603260045260246000fd5b6020808252825182820181905260009190848201906040850190845b8181101561328b5783518352928401929184019160010161326f565b50909695505050505050565b600060208083850312156132aa57600080fd5b825167ffffffffffffffff8111156132c157600080fd5b8301601f810185136132d257600080fd5b80516132e0612ebb82612e76565b81815260059190911b820183019083810190878311156132ff57600080fd5b928401925b8284101561331d57835182529284019290840190613304565b979650505050505050565b6000817fffffffffffffffffffffffffffffffffffffffffffffffffffffffffffffffff04831182151516156133605761336061318e565b500290565b60008261339b577f4e487b7100000000000000000000000000000000000000000000000000000000600052601260045260246000fd5b500490565b60005b838110156133bb5781810151838201526020016133a3565b838111156106f25750506000910152565b600081518084526133e48160208601602086016133a0565b601f017fffffffffffffffffffffffffffffffffffffffffffffffffffffffffffffffe0169290920160200192915050565b600073ffffffffffffffffffffffffffffffffffffffff808816835280871660208401525084604083015283606083015260a0608083015261331d60a08301846133cc565b7f416363657373436f6e74726f6c3a206163636f756e74200000000000000000008152600083516134938160178501602088016133a0565b7f206973206d697373696e6720726f6c652000000000000000000000000000000060179184019182015283516134d08160288401602088016133a0565b01602801949350505050565b60208152600061091a60208301846133cc565b600181815b8085111561354857817fffffffffffffffffffffffffffffffffffffffffffffffffffffffffffffffff0482111561352e5761352e61318e565b8085161561353b57918102915b93841c93908002906134f4565b509250929050565b60008261355f57506001610431565b8161356c57506000610431565b8160018114613582576002811461358c576135a8565b6001915050610431565b60ff84111561359d5761359d61318e565b50506001821b610431565b5060208310610133831016604e8410600b84101617156135cb575081810a610431565b6135d583836134ef565b807fffffffffffffffffffffffffffffffffffffffffffffffffffffffffffffffff048211156136075761360761318e565b029392505050565b600061091a8383613550565b60008161362a5761362a61318e565b507fffffffffffffffffffffffffffffffffffffffffffffffffffffffffffffffff0190565b7f4e487b7100000000000000000000000000000000000000000000000000000000600052603160045260246000fdfea26469706673582212202651affa47820ad2520962da4ce592b468d551829787449ae684390e200e81bb64736f6c634300080f0033",
  "linkReferences": {},
  "deployedLinkReferences": {}
}