{
  "_format": "hh-sol-artifact-1",
  "contractName": "Market",
  "sourceName": "contracts/Market.sol",
  "abi": [
    {
      "inputs": [],
      "stateMutability": "nonpayable",
      "type": "constructor"
    },
    {
      "inputs": [],
      "name": "InsufficientSupply",
      "type": "error"
    },
    {
      "inputs": [],
      "name": "LowSupplyAllowlistRequired",
      "type": "error"
    },
    {
      "inputs": [],
      "name": "OutOfStock",
      "type": "error"
    },
    {
      "inputs": [
        {
          "internalType": "uint256",
          "name": "removalId",
          "type": "uint256"
        },
        {
          "internalType": "uint256",
          "name": "queueVintage",
          "type": "uint256"
        }
      ],
      "name": "RemovalAlreadyInQueue",
      "type": "error"
    },
    {
      "inputs": [
        {
          "internalType": "uint256",
          "name": "removalId",
          "type": "uint256"
        }
      ],
      "name": "RemovalAlreadyReserved",
      "type": "error"
    },
    {
      "inputs": [
        {
          "internalType": "uint256",
          "name": "removalId",
          "type": "uint256"
        }
      ],
      "name": "RemovalNotInActiveSupply",
      "type": "error"
    },
    {
      "inputs": [
        {
          "internalType": "uint256",
          "name": "removalId",
          "type": "uint256"
        },
        {
          "internalType": "uint256",
          "name": "queueVintage",
          "type": "uint256"
        }
      ],
      "name": "RemovalNotInQueue",
      "type": "error"
    },
    {
      "inputs": [
        {
          "internalType": "uint256",
          "name": "removalId",
          "type": "uint256"
        }
      ],
      "name": "RemovalNotInReservedSupply",
      "type": "error"
    },
    {
      "anonymous": false,
      "inputs": [
        {
          "indexed": false,
          "internalType": "uint8",
          "name": "version",
          "type": "uint8"
        }
      ],
      "name": "Initialized",
      "type": "event"
    },
    {
      "anonymous": false,
      "inputs": [
        {
          "indexed": false,
          "internalType": "address",
          "name": "account",
          "type": "address"
        }
      ],
      "name": "Paused",
      "type": "event"
    },
    {
      "anonymous": false,
      "inputs": [
        {
          "indexed": false,
          "internalType": "uint256",
          "name": "threshold",
          "type": "uint256"
        }
      ],
      "name": "PriorityRestrictedThresholdSet",
      "type": "event"
    },
    {
      "anonymous": false,
      "inputs": [
        {
          "indexed": true,
          "internalType": "bytes32",
          "name": "role",
          "type": "bytes32"
        },
        {
          "indexed": true,
          "internalType": "bytes32",
          "name": "previousAdminRole",
          "type": "bytes32"
        },
        {
          "indexed": true,
          "internalType": "bytes32",
          "name": "newAdminRole",
          "type": "bytes32"
        }
      ],
      "name": "RoleAdminChanged",
      "type": "event"
    },
    {
      "anonymous": false,
      "inputs": [
        {
          "indexed": true,
          "internalType": "bytes32",
          "name": "role",
          "type": "bytes32"
        },
        {
          "indexed": true,
          "internalType": "address",
          "name": "account",
          "type": "address"
        },
        {
          "indexed": true,
          "internalType": "address",
          "name": "sender",
          "type": "address"
        }
      ],
      "name": "RoleGranted",
      "type": "event"
    },
    {
      "anonymous": false,
      "inputs": [
        {
          "indexed": true,
          "internalType": "bytes32",
          "name": "role",
          "type": "bytes32"
        },
        {
          "indexed": true,
          "internalType": "address",
          "name": "account",
          "type": "address"
        },
        {
          "indexed": true,
          "internalType": "address",
          "name": "sender",
          "type": "address"
        }
      ],
      "name": "RoleRevoked",
      "type": "event"
    },
    {
      "anonymous": false,
      "inputs": [
        {
          "indexed": false,
          "internalType": "address",
          "name": "account",
          "type": "address"
        }
      ],
      "name": "Unpaused",
      "type": "event"
    },
    {
      "inputs": [],
      "name": "ALLOWLIST_ROLE",
      "outputs": [
        {
          "internalType": "bytes32",
          "name": "",
          "type": "bytes32"
        }
      ],
      "stateMutability": "view",
      "type": "function"
    },
    {
      "inputs": [],
      "name": "DEFAULT_ADMIN_ROLE",
      "outputs": [
        {
          "internalType": "bytes32",
          "name": "",
          "type": "bytes32"
        }
      ],
      "stateMutability": "view",
      "type": "function"
    },
    {
      "inputs": [
        {
          "internalType": "uint256",
          "name": "purchaseTotal",
          "type": "uint256"
        }
      ],
      "name": "certificateAmountFromPurchaseTotal",
      "outputs": [
        {
          "internalType": "uint256",
          "name": "",
          "type": "uint256"
        }
      ],
      "stateMutability": "view",
      "type": "function"
    },
    {
      "inputs": [],
      "name": "getNoriFee",
      "outputs": [
        {
          "internalType": "uint256",
          "name": "",
          "type": "uint256"
        }
      ],
      "stateMutability": "view",
      "type": "function"
    },
    {
      "inputs": [
        {
          "internalType": "bytes32",
          "name": "role",
          "type": "bytes32"
        }
      ],
      "name": "getRoleAdmin",
      "outputs": [
        {
          "internalType": "bytes32",
          "name": "",
          "type": "bytes32"
        }
      ],
      "stateMutability": "view",
      "type": "function"
    },
    {
      "inputs": [
        {
          "internalType": "bytes32",
          "name": "role",
          "type": "bytes32"
        },
        {
          "internalType": "uint256",
          "name": "index",
          "type": "uint256"
        }
      ],
      "name": "getRoleMember",
      "outputs": [
        {
          "internalType": "address",
          "name": "",
          "type": "address"
        }
      ],
      "stateMutability": "view",
      "type": "function"
    },
    {
      "inputs": [
        {
          "internalType": "bytes32",
          "name": "role",
          "type": "bytes32"
        }
      ],
      "name": "getRoleMemberCount",
      "outputs": [
        {
          "internalType": "uint256",
          "name": "",
          "type": "uint256"
        }
      ],
      "stateMutability": "view",
      "type": "function"
    },
    {
      "inputs": [
        {
          "internalType": "bytes32",
          "name": "role",
          "type": "bytes32"
        },
        {
          "internalType": "address",
          "name": "account",
          "type": "address"
        }
      ],
      "name": "grantRole",
      "outputs": [],
      "stateMutability": "nonpayable",
      "type": "function"
    },
    {
      "inputs": [
        {
          "internalType": "bytes32",
          "name": "role",
          "type": "bytes32"
        },
        {
          "internalType": "address",
          "name": "account",
          "type": "address"
        }
      ],
      "name": "hasRole",
      "outputs": [
        {
          "internalType": "bool",
          "name": "",
          "type": "bool"
        }
      ],
      "stateMutability": "view",
      "type": "function"
    },
    {
      "inputs": [
        {
          "internalType": "address",
          "name": "removalAddress",
          "type": "address"
        },
        {
          "internalType": "address",
          "name": "bridgedPolygonNoriAddress",
          "type": "address"
        },
        {
          "internalType": "address",
          "name": "certificateAddress",
          "type": "address"
        },
        {
          "internalType": "address",
          "name": "restrictedNoriAddress",
          "type": "address"
        },
        {
          "internalType": "address",
          "name": "noriFeeWalletAddress",
          "type": "address"
        },
        {
          "internalType": "uint256",
          "name": "noriFee",
          "type": "uint256"
        }
      ],
      "name": "initialize",
      "outputs": [],
      "stateMutability": "nonpayable",
      "type": "function"
    },
    {
      "inputs": [],
      "name": "numberOfActiveRemovals",
      "outputs": [
        {
          "internalType": "uint256",
          "name": "",
          "type": "uint256"
        }
      ],
      "stateMutability": "view",
      "type": "function"
    },
    {
      "inputs": [
        {
          "internalType": "address",
          "name": "",
          "type": "address"
        },
        {
          "internalType": "address",
          "name": "",
          "type": "address"
        },
        {
          "internalType": "uint256[]",
          "name": "ids",
          "type": "uint256[]"
        },
        {
          "internalType": "uint256[]",
          "name": "",
          "type": "uint256[]"
        },
        {
          "internalType": "bytes",
          "name": "data",
          "type": "bytes"
        }
      ],
      "name": "onERC1155BatchReceived",
      "outputs": [
        {
          "internalType": "bytes4",
          "name": "",
          "type": "bytes4"
        }
      ],
      "stateMutability": "nonpayable",
      "type": "function"
    },
    {
      "inputs": [
        {
          "internalType": "address",
          "name": "",
          "type": "address"
        },
        {
          "internalType": "address",
          "name": "",
          "type": "address"
        },
        {
          "internalType": "uint256",
          "name": "",
          "type": "uint256"
        },
        {
          "internalType": "uint256",
          "name": "",
          "type": "uint256"
        },
        {
          "internalType": "bytes",
          "name": "",
          "type": "bytes"
        }
      ],
      "name": "onERC1155Received",
      "outputs": [
        {
          "internalType": "bytes4",
          "name": "",
          "type": "bytes4"
        }
      ],
      "stateMutability": "nonpayable",
      "type": "function"
    },
    {
      "inputs": [],
      "name": "paused",
      "outputs": [
        {
          "internalType": "bool",
          "name": "",
          "type": "bool"
        }
      ],
      "stateMutability": "view",
      "type": "function"
    },
    {
      "inputs": [],
      "name": "priorityRestrictedThreshold",
      "outputs": [
        {
          "internalType": "uint256",
          "name": "",
          "type": "uint256"
        }
      ],
      "stateMutability": "view",
      "type": "function"
    },
    {
      "inputs": [
        {
          "internalType": "uint256",
          "name": "removalId",
          "type": "uint256"
        },
        {
          "internalType": "uint256",
          "name": "amount",
          "type": "uint256"
        }
      ],
      "name": "release",
      "outputs": [],
      "stateMutability": "nonpayable",
      "type": "function"
    },
    {
      "inputs": [
        {
          "internalType": "bytes32",
          "name": "role",
          "type": "bytes32"
        },
        {
          "internalType": "address",
          "name": "account",
          "type": "address"
        }
      ],
      "name": "renounceRole",
      "outputs": [],
      "stateMutability": "nonpayable",
      "type": "function"
    },
    {
      "inputs": [
        {
          "internalType": "uint256",
          "name": "removalId",
          "type": "uint256"
        }
      ],
      "name": "reserveRemoval",
      "outputs": [],
      "stateMutability": "nonpayable",
      "type": "function"
    },
    {
      "inputs": [
        {
          "internalType": "bytes32",
          "name": "role",
          "type": "bytes32"
        },
        {
          "internalType": "address",
          "name": "account",
          "type": "address"
        }
      ],
      "name": "revokeRole",
      "outputs": [],
      "stateMutability": "nonpayable",
      "type": "function"
    },
    {
      "inputs": [
        {
          "internalType": "uint256",
          "name": "threshold",
          "type": "uint256"
        }
      ],
      "name": "setPriorityRestrictedThreshold",
      "outputs": [],
      "stateMutability": "nonpayable",
      "type": "function"
    },
    {
      "inputs": [
        {
          "internalType": "bytes4",
          "name": "interfaceId",
          "type": "bytes4"
        }
      ],
      "name": "supportsInterface",
      "outputs": [
        {
          "internalType": "bool",
          "name": "",
          "type": "bool"
        }
      ],
      "stateMutability": "view",
      "type": "function"
    },
    {
      "inputs": [
        {
          "internalType": "address",
          "name": "recipient",
          "type": "address"
        },
        {
          "internalType": "uint256",
          "name": "amount",
          "type": "uint256"
        },
        {
          "internalType": "uint256",
          "name": "deadline",
          "type": "uint256"
        },
        {
          "internalType": "uint8",
          "name": "v",
          "type": "uint8"
        },
        {
          "internalType": "bytes32",
          "name": "r",
          "type": "bytes32"
        },
        {
          "internalType": "bytes32",
          "name": "s",
          "type": "bytes32"
        }
      ],
      "name": "swap",
      "outputs": [],
      "stateMutability": "nonpayable",
      "type": "function"
    },
    {
      "inputs": [
        {
          "internalType": "address",
          "name": "recipient",
          "type": "address"
        },
        {
          "internalType": "uint256",
          "name": "amount",
          "type": "uint256"
        },
        {
          "internalType": "address",
          "name": "supplierToBuyFrom",
          "type": "address"
        },
        {
          "internalType": "uint256",
          "name": "deadline",
          "type": "uint256"
        },
        {
          "internalType": "uint8",
          "name": "v",
          "type": "uint8"
        },
        {
          "internalType": "bytes32",
          "name": "r",
          "type": "bytes32"
        },
        {
          "internalType": "bytes32",
          "name": "s",
          "type": "bytes32"
        }
      ],
      "name": "swapFromSpecificSupplier",
      "outputs": [],
      "stateMutability": "nonpayable",
      "type": "function"
    },
    {
      "inputs": [],
      "name": "totalActiveSupply",
      "outputs": [
        {
          "internalType": "uint256",
          "name": "",
          "type": "uint256"
        }
      ],
      "stateMutability": "view",
      "type": "function"
    },
    {
      "inputs": [],
      "name": "totalReservedSupply",
      "outputs": [
        {
          "internalType": "uint256",
          "name": "",
          "type": "uint256"
        }
      ],
      "stateMutability": "view",
      "type": "function"
    },
    {
      "inputs": [],
      "name": "totalUnreservedSupply",
      "outputs": [
        {
          "internalType": "uint256",
          "name": "",
          "type": "uint256"
        }
      ],
      "stateMutability": "view",
      "type": "function"
    },
    {
      "inputs": [],
      "name": "totalUnrestrictedSupply",
      "outputs": [
        {
          "internalType": "uint256",
          "name": "",
          "type": "uint256"
        }
      ],
      "stateMutability": "view",
      "type": "function"
    },
    {
      "inputs": [
        {
          "internalType": "uint256",
          "name": "removalId",
          "type": "uint256"
        }
      ],
      "name": "unreserveRemoval",
      "outputs": [],
      "stateMutability": "nonpayable",
      "type": "function"
    }
  ],
  "bytecode": "0x60806040523480156200001157600080fd5b506200001c62000022565b620000e4565b600054610100900460ff16156200008f5760405162461bcd60e51b815260206004820152602760248201527f496e697469616c697a61626c653a20636f6e747261637420697320696e697469604482015266616c697a696e6760c81b606482015260840160405180910390fd5b60005460ff9081161015620000e2576000805460ff191660ff9081179091556040519081527f7f26b83ff96e1f2b6a682f133852f6798a09c465da95921460cefb38474024989060200160405180910390a15b565b613e9a80620000f46000396000f3fe608060405234801561001057600080fd5b50600436106101c45760003560e01c806372069264116100f9578063bc197c8111610097578063d547741f11610071578063d547741f14610402578063d797462f14610415578063da9d20e714610428578063f23a6e611461043b57600080fd5b8063bc197c8114610398578063ca15c873146103dc578063ce0ec474146103ef57600080fd5b806391d14854116100d357806391d148541461032457806395b6ef0c1461036a57806397a11ee91461037d578063a217fddf1461039057600080fd5b806372069264146102dc5780637530b450146102e45780639010d07c146102ec57600080fd5b806336568abe116101665780634e2abc2d116101405780634e2abc2d146102ac57806359e1a71c146102b55780635c975abb146102c8578063674d13c8146102d457600080fd5b806336568abe14610273578063366a4120146102865780634b26509d1461029957600080fd5b8063248a9ca3116101a2578063248a9ca31461020c5780632f2ff15d1461022f5780633030b53214610244578063331beb4a1461026b57600080fd5b806301ffc9a7146101c957806312de2b05146101f15780632170056114610204575b600080fd5b6101dc6101d736600461342a565b610473565b60405190151581526020015b60405180910390f35b610165545b6040519081526020016101e8565b6101f6610484565b6101f661021a36600461346c565b60009081526065602052604090206001015490565b61024261023d3660046134ae565b610534565b005b6101f67f26a560d834a19637eccba4611bbc09fb32970bb627da0a70f14f83fdc9822cbc81565b6101f661055e565b6102426102813660046134ae565b610626565b6102426102943660046134da565b6106de565b6101f66102a736600461346c565b6107b1565b610164546101f6565b6102426102c336600461346c565b6107d8565b61012d5460ff166101dc565b6101f661083c565b6101f6610888565b6101f661091c565b6102ff6102fa3660046134da565b6109b6565b60405173ffffffffffffffffffffffffffffffffffffffff90911681526020016101e8565b6101dc6103323660046134ae565b600091825260656020908152604080842073ffffffffffffffffffffffffffffffffffffffff93909316845291905290205460ff1690565b6102426103783660046134fc565b6109d5565b61024261038b36600461346c565b610c5a565b6101f6600081565b6103ab6103a6366004613704565b610cdf565b6040517fffffffff0000000000000000000000000000000000000000000000000000000090911681526020016101e8565b6101f66103ea36600461346c565b610e60565b6102426103fd3660046137bf565b610e77565b6102426104103660046134ae565b611002565b61024261042336600461346c565b611027565b610242610436366004613817565b611077565b6103ab610449366004613881565b7ff23a6e610000000000000000000000000000000000000000000000000000000095945050505050565b600061047e8261129c565b92915050565b60006104916101696112f2565b61015f546040517f789e8cdf00000000000000000000000000000000000000000000000000000000815230600482015273ffffffffffffffffffffffffffffffffffffffff9091169063789e8cdf906024015b602060405180830381865afa158015610501573d6000803e3d6000fd5b505050506040513d601f19601f8201168201806040525081019061052591906138e6565b61052f919061392e565b905090565b60008281526065602052604090206001015461054f816112fc565b6105598383611309565b505050565b60003073ffffffffffffffffffffffffffffffffffffffff1663674d13c86040518163ffffffff1660e01b8152600401602060405180830381865afa1580156105ab573d6000803e3d6000fd5b505050506040513d601f19601f820116820180604052508101906105cf91906138e6565b61015f546040517f854560a400000000000000000000000000000000000000000000000000000000815230600482015273ffffffffffffffffffffffffffffffffffffffff9091169063854560a4906024016104e4565b73ffffffffffffffffffffffffffffffffffffffff811633146106d0576040517f08c379a000000000000000000000000000000000000000000000000000000000815260206004820152602f60248201527f416363657373436f6e74726f6c3a2063616e206f6e6c792072656e6f756e636560448201527f20726f6c657320666f722073656c66000000000000000000000000000000000060648201526084015b60405180910390fd5b6106da828261132b565b5050565b6106e661134d565b60006106f1836113bd565b61015f546040517efdd58e0000000000000000000000000000000000000000000000000000000081523060048201526024810186905291925060009173ffffffffffffffffffffffffffffffffffffffff9091169062fdd58e90604401602060405180830381865afa15801561076b573d6000803e3d6000fd5b505050506040513d601f19601f8201168201806040525081019061078f91906138e6565b90508083036107ab576107a1846113cc565b6107ab8285611411565b50505050565b60006101645460646107c39190613945565b6107ce83606461395d565b61047e919061399a565b6107e061134d565b60006107eb826113bd565b90506107f78183611411565b61080361016983611478565b6106da576040517f91ae0525000000000000000000000000000000000000000000000000000000008152600481018390526024016106c7565b6000808061084b6101696112f2565b905060005b818110156108805761086461016982611484565b61086e9084613945565b9250610879816139d5565b9050610850565b509092915050565b61015f546040517f854560a400000000000000000000000000000000000000000000000000000000815230600482015260009173ffffffffffffffffffffffffffffffffffffffff169063854560a490602401602060405180830381865afa1580156108f8573d6000803e3d6000fd5b505050506040513d601f19601f8201168201806040525081019061052f91906138e6565b6000803073ffffffffffffffffffffffffffffffffffffffff1663720692646040518163ffffffff1660e01b8152600401602060405180830381865afa15801561096a573d6000803e3d6000fd5b505050506040513d601f19601f8201168201806040525081019061098e91906138e6565b90506101655481106109ad57610165546109a8908261392e565b6109b0565b60005b91505090565b60008281526097602052604081206109ce9083611484565b9392505050565b600054610100900460ff16158080156109f55750600054600160ff909116105b80610a0f5750303b158015610a0f575060005460ff166001145b610a9b576040517f08c379a000000000000000000000000000000000000000000000000000000000815260206004820152602e60248201527f496e697469616c697a61626c653a20636f6e747261637420697320616c72656160448201527f647920696e697469616c697a656400000000000000000000000000000000000060648201526084016106c7565b600080547fffffffffffffffffffffffffffffffffffffffffffffffffffffffffffffff001660011790558015610af957600080547fffffffffffffffffffffffffffffffffffffffffffffffffffffffffffff00ff166101001790555b610b01611490565b610b09611490565b610b11611490565b610b19611490565b610b21611490565b61015f80547fffffffffffffffffffffffff000000000000000000000000000000000000000090811673ffffffffffffffffffffffffffffffffffffffff8a811691909117909255610161805482168984161790556101608054821688841617905561016280548216878416179055610163805482169286169290921790915561016483905560006101658190556101668054909216909155610bc49033611309565b610bee7f26a560d834a19637eccba4611bbc09fb32970bb627da0a70f14f83fdc9822cbc33611309565b8015610c5157600080547fffffffffffffffffffffffffffffffffffffffffffffffffffffffffffff00ff169055604051600181527f7f26b83ff96e1f2b6a682f133852f6798a09c465da95921460cefb38474024989060200160405180910390a15b50505050505050565b610c6261134d565b6000610c6d826113bd565b9050610c78826113cc565b73ffffffffffffffffffffffffffffffffffffffff811660009081526101686020526040902060020154610caf57610caf81611527565b73ffffffffffffffffffffffffffffffffffffffff81166000908152610168602052604090206105599083611690565b6000805b8451811015610d97576000858281518110610d0057610d00613a0d565b602002602001015190506000610d15826113bd565b73ffffffffffffffffffffffffffffffffffffffff8116600090815261016860205260409020909150610d489083611690565b5073ffffffffffffffffffffffffffffffffffffffff8181166000908152610167602052604090206001015416610d8257610d8281611527565b50508080610d8f906139d5565b915050610ce3565b50600082806020019051810190610dae91906138e6565b610162546040517ff6f57a2e0000000000000000000000000000000000000000000000000000000081526004810183905291925073ffffffffffffffffffffffffffffffffffffffff169063f6f57a2e90602401600060405180830381600087803b158015610e1c57600080fd5b505af1158015610e30573d6000803e3d6000fd5b507fbc197c81000000000000000000000000000000000000000000000000000000009a9950505050505050505050565b600081815260976020526040812061047e906112f2565b610e7f61134d565b610e87611751565b6040517f4b26509d000000000000000000000000000000000000000000000000000000008152600481018690526000903090634b26509d90602401602060405180830381865afa158015610edf573d6000803e3d6000fd5b505050506040513d601f19601f82011682018060405250810190610f0391906138e6565b9050600080600080610f1485611868565b610161549397509195509350915073ffffffffffffffffffffffffffffffffffffffff1663d505accf336040517fffffffff0000000000000000000000000000000000000000000000000000000060e084901b16815273ffffffffffffffffffffffffffffffffffffffff9091166004820152306024820152604481018d9052606481018c905260ff8b16608482015260a481018a905260c4810189905260e401600060405180830381600087803b158015610fcf57600080fd5b505af1158015610fe3573d6000803e3d6000fd5b50505050610ff5858c86868686611da0565b5050505050505050505050565b60008281526065602052604090206001015461101d816112fc565b610559838361132b565b61102f61134d565b600061103a816112fc565b6101658290556040518281527f7ab6aa6547859e9ca74d567d44fefa0d63272ac019f4ebf9333032a62ea06fa59060200160405180910390a15050565b61107f61134d565b611087611751565b6040517f4b26509d000000000000000000000000000000000000000000000000000000008152600481018790526000903090634b26509d90602401602060405180830381865afa1580156110df573d6000803e3d6000fd5b505050506040513d601f19601f8201168201806040525081019061110391906138e6565b90506000806000611114848a6124e5565b92509250925060008367ffffffffffffffff81111561113557611135613569565b60405190808252806020026020018201604052801561115e578160200160208202803683370190505b50905060005b848110156111b6578a82828151811061117f5761117f613a0d565b73ffffffffffffffffffffffffffffffffffffffff90921660209283029190910190910152806111ae816139d5565b915050611164565b506101615473ffffffffffffffffffffffffffffffffffffffff1663d505accf336040517fffffffff0000000000000000000000000000000000000000000000000000000060e084901b16815273ffffffffffffffffffffffffffffffffffffffff9091166004820152306024820152604481018e9052606481018c905260ff8b16608482015260a481018a905260c4810189905260e401600060405180830381600087803b15801561126857600080fd5b505af115801561127c573d6000803e3d6000fd5b5050505061128e858d86868686611da0565b505050505050505050505050565b60007fffffffff0000000000000000000000000000000000000000000000000000000082167f4e2312e000000000000000000000000000000000000000000000000000000000148061047e575061047e8261281b565b600061047e825490565b6113068133612871565b50565b6113138282612943565b60008281526097602052604090206105599082612a37565b6113358282612a59565b60008281526097602052604090206105599082612b14565b61012d5460ff16156113bb576040517f08c379a000000000000000000000000000000000000000000000000000000000815260206004820152601060248201527f5061757361626c653a207061757365640000000000000000000000000000000060448201526064016106c7565b565b600061047e8260146004612b36565b6113d861016982611478565b611306576040517fbd5baa92000000000000000000000000000000000000000000000000000000008152600481018290526024016106c7565b73ffffffffffffffffffffffffffffffffffffffff82166000908152610168602052604090206114419082612b82565b73ffffffffffffffffffffffffffffffffffffffff8216600090815261016860205260409020600201546106da576106da82612d0a565b60006109ce8383612ecf565b60006109ce8383612f1e565b600054610100900460ff166113bb576040517f08c379a000000000000000000000000000000000000000000000000000000000815260206004820152602b60248201527f496e697469616c697a61626c653a20636f6e7472616374206973206e6f74206960448201527f6e697469616c697a696e6700000000000000000000000000000000000000000060648201526084016106c7565b6101665473ffffffffffffffffffffffffffffffffffffffff166115cf57610166805473ffffffffffffffffffffffffffffffffffffffff9283167fffffffffffffffffffffffff00000000000000000000000000000000000000009182168117909255604080518082018252838152602080820185815260009586526101679091529190932092518354908516908316178355516001929092018054929093169116179055565b604080518082018252610166805473ffffffffffffffffffffffffffffffffffffffff908116600081815261016760208181528783205485168752808701938452888516808452919052868220955186549085167fffffffffffffffffffffffff00000000000000000000000000000000000000009182161787559251600196870180549186169185169190911790558454841682528682205484168252868220909501805483168617905592549091168252929020805490921617905550565b60008061169c83612f48565b61ffff1690506116ae84600201541590565b156116c65760018401819055600284018190556116f2565b83600101548110156116de57600184018190556116f2565b83600201548111156116f257600284018190555b600081815260208590526040902061170a9084611478565b61174a576040517fbd48f90e00000000000000000000000000000000000000000000000000000000815260048101849052602481018290526044016106c7565b5092915050565b60003073ffffffffffffffffffffffffffffffffffffffff1663720692646040518163ffffffff1660e01b8152600401602060405180830381865afa15801561179e573d6000803e3d6000fd5b505050506040513d601f19601f820116820180604052508101906117c291906138e6565b9050806000036117fe576040517fade1cb4100000000000000000000000000000000000000000000000000000000815260040160405180910390fd5b610165548111611306576118327f26a560d834a19637eccba4611bbc09fb32970bb627da0a70f14f83fdc9822cbc33610332565b611306576040517f9ece8f2f00000000000000000000000000000000000000000000000000000000815260040160405180910390fd5b60006060806060600085905060003073ffffffffffffffffffffffffffffffffffffffff1663217005616040518163ffffffff1660e01b8152600401602060405180830381865afa1580156118c1573d6000803e3d6000fd5b505050506040513d601f19601f820116820180604052508101906118e591906138e6565b905060008167ffffffffffffffff81111561190257611902613569565b60405190808252806020026020018201604052801561192b578160200160208202803683370190505b50905060008267ffffffffffffffff81111561194957611949613569565b604051908082528060200260200182016040528015611972578160200160208202803683370190505b50905060008367ffffffffffffffff81111561199057611990613569565b6040519080825280602002602001820160405280156119b9578160200160208202803683370190505b5090506000805b85811015611d8f576101665473ffffffffffffffffffffffffffffffffffffffff166000908152610168602052604081206119fa90612f57565b61015f546040517efdd58e0000000000000000000000000000000000000000000000000000000081523060048201526024810183905291925060009173ffffffffffffffffffffffffffffffffffffffff9091169062fdd58e90604401602060405180830381865afa158015611a74573d6000803e3d6000fd5b505050506040513d601f19601f82011682018060405250810190611a9891906138e6565b905080891015611b535781878581518110611ab557611ab5613a0d565b60200260200101818152505088868581518110611ad457611ad4613a0d565b602090810291909101015261016654855173ffffffffffffffffffffffffffffffffffffffff90911690869086908110611b1057611b10613a0d565b602002602001019073ffffffffffffffffffffffffffffffffffffffff16908173ffffffffffffffffffffffffffffffffffffffff168152505060009850611d5e565b611b5e60018961392e565b83148015611b6b57508089115b15611ba2576040517f33aa101c00000000000000000000000000000000000000000000000000000000815260040160405180910390fd5b81878581518110611bb557611bb5613a0d565b60200260200101818152505080868581518110611bd457611bd4613a0d565b602090810291909101015261016654855173ffffffffffffffffffffffffffffffffffffffff90911690869086908110611c1057611c10613a0d565b73ffffffffffffffffffffffffffffffffffffffff90921660209283029190910190910152611c3f818a61392e565b6101665473ffffffffffffffffffffffffffffffffffffffff16600090815261016860205260409020909950611c759083612b82565b6101665473ffffffffffffffffffffffffffffffffffffffff1660009081526101686020526040902060020154611cce5761016654611cc99073ffffffffffffffffffffffffffffffffffffffff16612d0a565b611d5e565b6101665473ffffffffffffffffffffffffffffffffffffffff9081166000818152610167602052604090206001015490911614611d5e57610166805473ffffffffffffffffffffffffffffffffffffffff80821660009081526101676020526040902060010154167fffffffffffffffffffffffff00000000000000000000000000000000000000009091161790555b83611d68816139d5565b94505088600003611d7a575050611d8f565b50508080611d87906139d5565b9150506119c0565b509a92995090975095509350505050565b60008467ffffffffffffffff811115611dbb57611dbb613569565b604051908082528060200260200182016040528015611de4578160200160208202803683370190505b50905060008567ffffffffffffffff811115611e0257611e02613569565b604051908082528060200260200182016040528015611e2b578160200160208202803683370190505b50905060005b86811015611eba57858181518110611e4b57611e4b613a0d565b6020026020010151838281518110611e6557611e65613a0d565b602002602001018181525050848181518110611e8357611e83613a0d565b6020026020010151828281518110611e9d57611e9d613a0d565b602090810291909101015280611eb2816139d5565b915050611e31565b5061015f546040517fb6477cc000000000000000000000000000000000000000000000000000000000815260009173ffffffffffffffffffffffffffffffffffffffff169063b6477cc090611f13908690600401613a77565b600060405180830381865afa158015611f30573d6000803e3d6000fd5b505050506040513d6000823e601f3d9081017fffffffffffffffffffffffffffffffffffffffffffffffffffffffffffffffe0168201604052611f769190810190613a8a565b905060005b8351811015612420576000606461016454858481518110611f9e57611f9e613a0d565b6020026020010151611fb0919061395d565b611fba919061399a565b9050600080858481518110611fd157611fd1613a0d565b602002602001015190506120336040518060400160405280600d81526020017f686f6c646261636b20693d3d3d0000000000000000000000000000000000000081525086868151811061202657612026613a0d565b6020026020010151612f74565b6120726040518060400160405280601c81526020017f756e72657374726963746564537570706c69657246656520693d3d3d0000000081525082612f74565b600085858151811061208657612086613a0d565b6020026020010151111561226d5760648585815181106120a8576120a8613a0d565b6020026020010151826120bb919061395d565b6120c5919061399a565b91506120d1828261392e565b61016254885191925073ffffffffffffffffffffffffffffffffffffffff1690631b2ef1ca9084908a908890811061210b5761210b613a0d565b60200260200101516040518363ffffffff1660e01b8152600401612139929190918252602082015260400190565b600060405180830381600087803b15801561215357600080fd5b505af1158015612167573d6000803e3d6000fd5b505050506121aa6040518060400160405280600f81526020017f686f6c646261636b206665653d3d3d000000000000000000000000000000000081525083612f74565b6101615473ffffffffffffffffffffffffffffffffffffffff166323b872dd336101625460405160e084901b7fffffffff0000000000000000000000000000000000000000000000000000000016815273ffffffffffffffffffffffffffffffffffffffff928316600482015291166024820152604481018590526064016020604051808303816000875af1158015612247573d6000803e3d6000fd5b505050506040513d601f19601f8201168201806040525081019061226b9190613b1b565b505b6101615473ffffffffffffffffffffffffffffffffffffffff166323b872dd336101635460405160e084901b7fffffffff0000000000000000000000000000000000000000000000000000000016815273ffffffffffffffffffffffffffffffffffffffff928316600482015291166024820152604481018690526064016020604051808303816000875af115801561230a573d6000803e3d6000fd5b505050506040513d601f19601f8201168201806040525081019061232e9190613b1b565b506101615473ffffffffffffffffffffffffffffffffffffffff166323b872dd338a878151811061236157612361613a0d565b60209081029190910101516040517fffffffff0000000000000000000000000000000000000000000000000000000060e085901b16815273ffffffffffffffffffffffffffffffffffffffff928316600482015291166024820152604481018490526064016020604051808303816000875af11580156123e5573d6000803e3d6000fd5b505050506040513d601f19601f820116820180604052508101906124099190613b1b565b505050508080612418906139d5565b915050611f7b565b5061015f546040805173ffffffffffffffffffffffffffffffffffffffff8b811660208301529283168183018190528251808303840181526060830193849052610160547f2eb2c2d600000000000000000000000000000000000000000000000000000000909452939092632eb2c2d6926124a79230921690899089908890606401613bb3565b600060405180830381600087803b1580156124c157600080fd5b505af11580156124d5573d6000803e3d6000fd5b5050505050505050505050505050565b73ffffffffffffffffffffffffffffffffffffffff811660009081526101686020526040812060018101546002820154606092839290918591905b80821161255557600082815260208590526040902061253e906112f2565b6125489084613945565b9250600190910190612520565b8260000361258f576040517f33aa101c00000000000000000000000000000000000000000000000000000000815260040160405180910390fd5b8860008467ffffffffffffffff8111156125ab576125ab613569565b6040519080825280602002602001820160405280156125d4578160200160208202803683370190505b50905060008567ffffffffffffffff8111156125f2576125f2613569565b60405190808252806020026020018201604052801561261b578160200160208202803683370190505b5090506000805b878110156128095760006126358a612f57565b61015f546040517efdd58e0000000000000000000000000000000000000000000000000000000081523060048201526024810183905291925060009173ffffffffffffffffffffffffffffffffffffffff9091169062fdd58e90604401602060405180830381865afa1580156126af573d6000803e3d6000fd5b505050506040513d601f19601f820116820180604052508101906126d391906138e6565b90508087101561272457818685815181106126f0576126f0613a0d565b6020026020010181815250508685858151811061270f5761270f613a0d565b602002602001018181525050600096506127d8565b61272f60018b61392e565b8414801561273c57508087115b15612773576040517f33aa101c00000000000000000000000000000000000000000000000000000000815260040160405180910390fd5b8186858151811061278657612786613a0d565b602002602001018181525050808585815181106127a5576127a5613a0d565b60209081029190910101526127ba818861392e565b96506127c68b83612b82565b60028b01546127d8576127d88f612d0a565b836127e2816139d5565b945050866000036127f4575050612809565b50508080612801906139d5565b915050612622565b509c919b509950975050505050505050565b60007fffffffff0000000000000000000000000000000000000000000000000000000082167f5a05180f00000000000000000000000000000000000000000000000000000000148061047e575061047e82613005565b600082815260656020908152604080832073ffffffffffffffffffffffffffffffffffffffff8516845290915290205460ff166106da576128c98173ffffffffffffffffffffffffffffffffffffffff16601461309c565b6128d483602061309c565b6040516020016128e5929190613c1e565b604080517fffffffffffffffffffffffffffffffffffffffffffffffffffffffffffffffe0818403018152908290527f08c379a00000000000000000000000000000000000000000000000000000000082526106c791600401613c9f565b600082815260656020908152604080832073ffffffffffffffffffffffffffffffffffffffff8516845290915290205460ff166106da57600082815260656020908152604080832073ffffffffffffffffffffffffffffffffffffffff85168452909152902080547fffffffffffffffffffffffffffffffffffffffffffffffffffffffffffffff001660011790556129d93390565b73ffffffffffffffffffffffffffffffffffffffff168173ffffffffffffffffffffffffffffffffffffffff16837f2f8788117e7eff1d82e926ec794901d17c78024a50270940304540a733656f0d60405160405180910390a45050565b60006109ce8373ffffffffffffffffffffffffffffffffffffffff8416612ecf565b600082815260656020908152604080832073ffffffffffffffffffffffffffffffffffffffff8516845290915290205460ff16156106da57600082815260656020908152604080832073ffffffffffffffffffffffffffffffffffffffff8516808552925280832080547fffffffffffffffffffffffffffffffffffffffffffffffffffffffffffffff0016905551339285917ff6391f5c32d9c69d2a47ea670b442974b53935d1edc7fd64eb21e047a839171b9190a45050565b60006109ce8373ffffffffffffffffffffffffffffffffffffffff84166132df565b600080612b4460088461395d565b6001612b5160088761395d565b612b5c906002613dd2565b612b66919061392e565b901b9050848116612b7860088561395d565b1c95945050505050565b6000612b8d82612f48565b61ffff166000818152602085905260409020909150612bac90836133d2565b612bec576040517f78717f9900000000000000000000000000000000000000000000000000000000815260048101839052602481018290526044016106c7565b612bf683826133de565b15610559578260020154836001015403612c3c577fffffffffffffffffffffffffffffffffffffffffffffffffffffffffffffffff600184015560006002840155505050565b82600101548103612ca357600083600101546001612c5a9190613945565b90505b836002015481116107ab576000818152602085905260408120612c7f906112f2565b1115612c9157600184018190556107ab565b80612c9b816139d5565b915050612c5d565b8260020154810361055957600060018460020154612cc1919061392e565b90505b836001015481106107ab576000818152602085905260408120612ce6906112f2565b1115612cf857600284018190556107ab565b80612d0281613dde565b915050612cc4565b73ffffffffffffffffffffffffffffffffffffffff808216600081815261016760205260409020600101549091169003612d6c5761016680547fffffffffffffffffffffffff0000000000000000000000000000000000000000169055612e54565b73ffffffffffffffffffffffffffffffffffffffff818116600081815261016760205260408082206001808201805483548816865284862090920180549288167fffffffffffffffffffffffff0000000000000000000000000000000000000000938416179055915491548616845291909220805492851692909116919091179055610166549091169003612e5457610166805473ffffffffffffffffffffffffffffffffffffffff80821660009081526101676020526040902060010154167fffffffffffffffffffffffff00000000000000000000000000000000000000009091161790555b6040805180820182526000808252602080830182815273ffffffffffffffffffffffffffffffffffffffff9586168352610167909152929020905181549084167fffffffffffffffffffffffff0000000000000000000000000000000000000000918216178255915160019091018054919093169116179055565b6000818152600183016020526040812054612f165750815460018181018455600084815260208082209093018490558454848252828601909352604090209190915561047e565b50600061047e565b6000826000018281548110612f3557612f35613a0d565b9060005260206000200154905092915050565b600061047e826002601c612b36565b6001810154600090815260208290526040812061047e9082611484565b6106da8282604051602401612f8a929190613e13565b604080517fffffffffffffffffffffffffffffffffffffffffffffffffffffffffffffffe08184030181529190526020810180517bffffffffffffffffffffffffffffffffffffffffffffffffffffffff167f9710a9d0000000000000000000000000000000000000000000000000000000001790526133f2565b60007fffffffff0000000000000000000000000000000000000000000000000000000082167f7965db0b00000000000000000000000000000000000000000000000000000000148061047e57507f01ffc9a7000000000000000000000000000000000000000000000000000000007fffffffff0000000000000000000000000000000000000000000000000000000083161461047e565b606060006130ab83600261395d565b6130b6906002613945565b67ffffffffffffffff8111156130ce576130ce613569565b6040519080825280601f01601f1916602001820160405280156130f8576020820181803683370190505b5090507f30000000000000000000000000000000000000000000000000000000000000008160008151811061312f5761312f613a0d565b60200101907effffffffffffffffffffffffffffffffffffffffffffffffffffffffffffff1916908160001a9053507f78000000000000000000000000000000000000000000000000000000000000008160018151811061319257613192613a0d565b60200101907effffffffffffffffffffffffffffffffffffffffffffffffffffffffffffff1916908160001a90535060006131ce84600261395d565b6131d9906001613945565b90505b6001811115613276577f303132333435363738396162636465660000000000000000000000000000000085600f166010811061321a5761321a613a0d565b1a60f81b82828151811061323057613230613a0d565b60200101907effffffffffffffffffffffffffffffffffffffffffffffffffffffffffffff1916908160001a90535060049490941c9361326f81613dde565b90506131dc565b5083156109ce576040517f08c379a000000000000000000000000000000000000000000000000000000000815260206004820181905260248201527f537472696e67733a20686578206c656e67746820696e73756666696369656e7460448201526064016106c7565b600081815260018301602052604081205480156133c857600061330360018361392e565b85549091506000906133179060019061392e565b905081811461337c57600086600001828154811061333757613337613a0d565b906000526020600020015490508087600001848154811061335a5761335a613a0d565b6000918252602080832090910192909255918252600188019052604090208390555b855486908061338d5761338d613e35565b60019003818190600052602060002001600090559055856001016000868152602001908152602001600020600090556001935050505061047e565b600091505061047e565b60006109ce83836132df565b60006133ea8383613413565b159392505050565b80516a636f6e736f6c652e6c6f67602083016000808483855afa5050505050565b60008181526020839052604081206109ce906112f2565b60006020828403121561343c57600080fd5b81357fffffffff00000000000000000000000000000000000000000000000000000000811681146109ce57600080fd5b60006020828403121561347e57600080fd5b5035919050565b803573ffffffffffffffffffffffffffffffffffffffff811681146134a957600080fd5b919050565b600080604083850312156134c157600080fd5b823591506134d160208401613485565b90509250929050565b600080604083850312156134ed57600080fd5b50508035926020909101359150565b60008060008060008060c0878903121561351557600080fd5b61351e87613485565b955061352c60208801613485565b945061353a60408801613485565b935061354860608801613485565b925061355660808801613485565b915060a087013590509295509295509295565b7f4e487b7100000000000000000000000000000000000000000000000000000000600052604160045260246000fd5b604051601f82017fffffffffffffffffffffffffffffffffffffffffffffffffffffffffffffffe016810167ffffffffffffffff811182821017156135df576135df613569565b604052919050565b600067ffffffffffffffff82111561360157613601613569565b5060051b60200190565b600082601f83011261361c57600080fd5b8135602061363161362c836135e7565b613598565b82815260059290921b8401810191818101908684111561365057600080fd5b8286015b8481101561366b5780358352918301918301613654565b509695505050505050565b600082601f83011261368757600080fd5b813567ffffffffffffffff8111156136a1576136a1613569565b6136d260207fffffffffffffffffffffffffffffffffffffffffffffffffffffffffffffffe0601f84011601613598565b8181528460208386010111156136e757600080fd5b816020850160208301376000918101602001919091529392505050565b600080600080600060a0868803121561371c57600080fd5b61372586613485565b945061373360208701613485565b9350604086013567ffffffffffffffff8082111561375057600080fd5b61375c89838a0161360b565b9450606088013591508082111561377257600080fd5b61377e89838a0161360b565b9350608088013591508082111561379457600080fd5b506137a188828901613676565b9150509295509295909350565b803560ff811681146134a957600080fd5b60008060008060008060c087890312156137d857600080fd5b6137e187613485565b955060208701359450604087013593506137fd606088016137ae565b92506080870135915060a087013590509295509295509295565b600080600080600080600060e0888a03121561383257600080fd5b61383b88613485565b96506020880135955061385060408901613485565b945060608801359350613865608089016137ae565b925060a0880135915060c0880135905092959891949750929550565b600080600080600060a0868803121561389957600080fd5b6138a286613485565b94506138b060208701613485565b93506040860135925060608601359150608086013567ffffffffffffffff8111156138da57600080fd5b6137a188828901613676565b6000602082840312156138f857600080fd5b5051919050565b7f4e487b7100000000000000000000000000000000000000000000000000000000600052601160045260246000fd5b600082821015613940576139406138ff565b500390565b60008219821115613958576139586138ff565b500190565b6000817fffffffffffffffffffffffffffffffffffffffffffffffffffffffffffffffff0483118215151615613995576139956138ff565b500290565b6000826139d0577f4e487b7100000000000000000000000000000000000000000000000000000000600052601260045260246000fd5b500490565b60007fffffffffffffffffffffffffffffffffffffffffffffffffffffffffffffffff8203613a0657613a066138ff565b5060010190565b7f4e487b7100000000000000000000000000000000000000000000000000000000600052603260045260246000fd5b600081518084526020808501945080840160005b83811015613a6c57815187529582019590820190600101613a50565b509495945050505050565b6020815260006109ce6020830184613a3c565b60006020808385031215613a9d57600080fd5b825167ffffffffffffffff811115613ab457600080fd5b8301601f81018513613ac557600080fd5b8051613ad361362c826135e7565b81815260059190911b82018301908381019087831115613af257600080fd5b928401925b82841015613b1057835182529284019290840190613af7565b979650505050505050565b600060208284031215613b2d57600080fd5b815180151581146109ce57600080fd5b60005b83811015613b58578181015183820152602001613b40565b838111156107ab5750506000910152565b60008151808452613b81816020860160208601613b3d565b601f017fffffffffffffffffffffffffffffffffffffffffffffffffffffffffffffffe0169290920160200192915050565b600073ffffffffffffffffffffffffffffffffffffffff808816835280871660208401525060a06040830152613bec60a0830186613a3c565b8281036060840152613bfe8186613a3c565b90508281036080840152613c128185613b69565b98975050505050505050565b7f416363657373436f6e74726f6c3a206163636f756e7420000000000000000000815260008351613c56816017850160208801613b3d565b7f206973206d697373696e6720726f6c65200000000000000000000000000000006017918401918201528351613c93816028840160208801613b3d565b01602801949350505050565b6020815260006109ce6020830184613b69565b600181815b80851115613d0b57817fffffffffffffffffffffffffffffffffffffffffffffffffffffffffffffffff04821115613cf157613cf16138ff565b80851615613cfe57918102915b93841c9390800290613cb7565b509250929050565b600082613d225750600161047e565b81613d2f5750600061047e565b8160018114613d455760028114613d4f57613d6b565b600191505061047e565b60ff841115613d6057613d606138ff565b50506001821b61047e565b5060208310610133831016604e8410600b8410161715613d8e575081810a61047e565b613d988383613cb2565b807fffffffffffffffffffffffffffffffffffffffffffffffffffffffffffffffff04821115613dca57613dca6138ff565b029392505050565b60006109ce8383613d13565b600081613ded57613ded6138ff565b507fffffffffffffffffffffffffffffffffffffffffffffffffffffffffffffffff0190565b604081526000613e266040830185613b69565b90508260208301529392505050565b7f4e487b7100000000000000000000000000000000000000000000000000000000600052603160045260246000fdfea2646970667358221220bb02343b958a80463be0dd9c5e9d1659bf42962c86a0308864f58bf8eec34aae64736f6c634300080f0033",
  "linkReferences": {},
  "deployedLinkReferences": {}
}