{
  "_format": "hh-sol-artifact-1",
  "contractName": "Market",
  "sourceName": "contracts/Market.sol",
  "abi": [
    {
      "inputs": [],
      "stateMutability": "nonpayable",
      "type": "constructor"
    },
    {
      "inputs": [],
      "name": "InsufficientSupply",
      "type": "error"
    },
    {
      "inputs": [],
      "name": "LowSupplyAllowlistRequired",
      "type": "error"
    },
    {
      "inputs": [],
      "name": "OutOfStock",
      "type": "error"
    },
    {
      "inputs": [
        {
          "internalType": "uint256",
          "name": "removalId",
          "type": "uint256"
        },
        {
          "internalType": "uint256",
          "name": "queueVintage",
          "type": "uint256"
        }
      ],
      "name": "RemovalAlreadyInQueue",
      "type": "error"
    },
    {
      "inputs": [
        {
          "internalType": "uint256",
          "name": "removalId",
          "type": "uint256"
        }
      ],
      "name": "RemovalAlreadyReserved",
      "type": "error"
    },
    {
      "inputs": [
        {
          "internalType": "uint256",
          "name": "removalId",
          "type": "uint256"
        }
      ],
      "name": "RemovalNotInActiveSupply",
      "type": "error"
    },
    {
      "inputs": [
        {
          "internalType": "uint256",
          "name": "removalId",
          "type": "uint256"
        },
        {
          "internalType": "uint256",
          "name": "queueVintage",
          "type": "uint256"
        }
      ],
      "name": "RemovalNotInQueue",
      "type": "error"
    },
    {
      "inputs": [
        {
          "internalType": "uint256",
          "name": "removalId",
          "type": "uint256"
        }
      ],
      "name": "RemovalNotInReservedSupply",
      "type": "error"
    },
    {
      "anonymous": false,
      "inputs": [
        {
          "indexed": false,
          "internalType": "uint8",
          "name": "version",
          "type": "uint8"
        }
      ],
      "name": "Initialized",
      "type": "event"
    },
    {
      "anonymous": false,
      "inputs": [
        {
          "indexed": false,
          "internalType": "uint256",
          "name": "threshold",
          "type": "uint256"
        }
      ],
      "name": "PriorityRestrictedThresholdSet",
      "type": "event"
    },
    {
      "anonymous": false,
      "inputs": [
        {
          "indexed": true,
          "internalType": "bytes32",
          "name": "role",
          "type": "bytes32"
        },
        {
          "indexed": true,
          "internalType": "bytes32",
          "name": "previousAdminRole",
          "type": "bytes32"
        },
        {
          "indexed": true,
          "internalType": "bytes32",
          "name": "newAdminRole",
          "type": "bytes32"
        }
      ],
      "name": "RoleAdminChanged",
      "type": "event"
    },
    {
      "anonymous": false,
      "inputs": [
        {
          "indexed": true,
          "internalType": "bytes32",
          "name": "role",
          "type": "bytes32"
        },
        {
          "indexed": true,
          "internalType": "address",
          "name": "account",
          "type": "address"
        },
        {
          "indexed": true,
          "internalType": "address",
          "name": "sender",
          "type": "address"
        }
      ],
      "name": "RoleGranted",
      "type": "event"
    },
    {
      "anonymous": false,
      "inputs": [
        {
          "indexed": true,
          "internalType": "bytes32",
          "name": "role",
          "type": "bytes32"
        },
        {
          "indexed": true,
          "internalType": "address",
          "name": "account",
          "type": "address"
        },
        {
          "indexed": true,
          "internalType": "address",
          "name": "sender",
          "type": "address"
        }
      ],
      "name": "RoleRevoked",
      "type": "event"
    },
    {
      "inputs": [],
      "name": "ALLOWLIST_ROLE",
      "outputs": [
        {
          "internalType": "bytes32",
          "name": "",
          "type": "bytes32"
        }
      ],
      "stateMutability": "view",
      "type": "function"
    },
    {
      "inputs": [],
      "name": "DEFAULT_ADMIN_ROLE",
      "outputs": [
        {
          "internalType": "bytes32",
          "name": "",
          "type": "bytes32"
        }
      ],
      "stateMutability": "view",
      "type": "function"
    },
    {
      "inputs": [
        {
          "internalType": "uint256",
          "name": "purchaseTotal",
          "type": "uint256"
        }
      ],
      "name": "certificateAmountFromPurchaseTotal",
      "outputs": [
        {
          "internalType": "uint256",
          "name": "",
          "type": "uint256"
        }
      ],
      "stateMutability": "view",
      "type": "function"
    },
    {
      "inputs": [],
      "name": "getNoriFee",
      "outputs": [
        {
          "internalType": "uint256",
          "name": "",
          "type": "uint256"
        }
      ],
      "stateMutability": "view",
      "type": "function"
    },
    {
      "inputs": [
        {
          "internalType": "bytes32",
          "name": "role",
          "type": "bytes32"
        }
      ],
      "name": "getRoleAdmin",
      "outputs": [
        {
          "internalType": "bytes32",
          "name": "",
          "type": "bytes32"
        }
      ],
      "stateMutability": "view",
      "type": "function"
    },
    {
      "inputs": [
        {
          "internalType": "bytes32",
          "name": "role",
          "type": "bytes32"
        },
        {
          "internalType": "uint256",
          "name": "index",
          "type": "uint256"
        }
      ],
      "name": "getRoleMember",
      "outputs": [
        {
          "internalType": "address",
          "name": "",
          "type": "address"
        }
      ],
      "stateMutability": "view",
      "type": "function"
    },
    {
      "inputs": [
        {
          "internalType": "bytes32",
          "name": "role",
          "type": "bytes32"
        }
      ],
      "name": "getRoleMemberCount",
      "outputs": [
        {
          "internalType": "uint256",
          "name": "",
          "type": "uint256"
        }
      ],
      "stateMutability": "view",
      "type": "function"
    },
    {
      "inputs": [
        {
          "internalType": "bytes32",
          "name": "role",
          "type": "bytes32"
        },
        {
          "internalType": "address",
          "name": "account",
          "type": "address"
        }
      ],
      "name": "grantRole",
      "outputs": [],
      "stateMutability": "nonpayable",
      "type": "function"
    },
    {
      "inputs": [
        {
          "internalType": "bytes32",
          "name": "role",
          "type": "bytes32"
        },
        {
          "internalType": "address",
          "name": "account",
          "type": "address"
        }
      ],
      "name": "hasRole",
      "outputs": [
        {
          "internalType": "bool",
          "name": "",
          "type": "bool"
        }
      ],
      "stateMutability": "view",
      "type": "function"
    },
    {
      "inputs": [
        {
          "internalType": "address",
          "name": "removalAddress",
          "type": "address"
        },
        {
          "internalType": "address",
          "name": "bridgedPolygonNoriAddress",
          "type": "address"
        },
        {
          "internalType": "address",
          "name": "certificateAddress",
          "type": "address"
        },
        {
          "internalType": "address",
          "name": "restrictedNoriAddress",
          "type": "address"
        },
        {
          "internalType": "address",
          "name": "noriFeeWalletAddress",
          "type": "address"
        },
        {
          "internalType": "uint256",
          "name": "noriFee",
          "type": "uint256"
        }
      ],
      "name": "initialize",
      "outputs": [],
      "stateMutability": "nonpayable",
      "type": "function"
    },
    {
      "inputs": [],
      "name": "numberOfActiveRemovals",
      "outputs": [
        {
          "internalType": "uint256",
          "name": "",
          "type": "uint256"
        }
      ],
      "stateMutability": "view",
      "type": "function"
    },
    {
      "inputs": [
        {
          "internalType": "address",
          "name": "",
          "type": "address"
        },
        {
          "internalType": "address",
          "name": "",
          "type": "address"
        },
        {
          "internalType": "uint256[]",
          "name": "ids",
          "type": "uint256[]"
        },
        {
          "internalType": "uint256[]",
          "name": "",
          "type": "uint256[]"
        },
        {
          "internalType": "bytes",
          "name": "data",
          "type": "bytes"
        }
      ],
      "name": "onERC1155BatchReceived",
      "outputs": [
        {
          "internalType": "bytes4",
          "name": "",
          "type": "bytes4"
        }
      ],
      "stateMutability": "nonpayable",
      "type": "function"
    },
    {
      "inputs": [
        {
          "internalType": "address",
          "name": "",
          "type": "address"
        },
        {
          "internalType": "address",
          "name": "",
          "type": "address"
        },
        {
          "internalType": "uint256",
          "name": "",
          "type": "uint256"
        },
        {
          "internalType": "uint256",
          "name": "",
          "type": "uint256"
        },
        {
          "internalType": "bytes",
          "name": "",
          "type": "bytes"
        }
      ],
      "name": "onERC1155Received",
      "outputs": [
        {
          "internalType": "bytes4",
          "name": "",
          "type": "bytes4"
        }
      ],
      "stateMutability": "nonpayable",
      "type": "function"
    },
    {
      "inputs": [],
      "name": "priorityRestrictedThreshold",
      "outputs": [
        {
          "internalType": "uint256",
          "name": "",
          "type": "uint256"
        }
      ],
      "stateMutability": "view",
      "type": "function"
    },
    {
      "inputs": [
        {
          "internalType": "uint256",
          "name": "removalId",
          "type": "uint256"
        },
        {
          "internalType": "uint256",
          "name": "amount",
          "type": "uint256"
        }
      ],
      "name": "release",
      "outputs": [],
      "stateMutability": "nonpayable",
      "type": "function"
    },
    {
      "inputs": [
        {
          "internalType": "bytes32",
          "name": "role",
          "type": "bytes32"
        },
        {
          "internalType": "address",
          "name": "account",
          "type": "address"
        }
      ],
      "name": "renounceRole",
      "outputs": [],
      "stateMutability": "nonpayable",
      "type": "function"
    },
    {
      "inputs": [
        {
          "internalType": "uint256",
          "name": "removalId",
          "type": "uint256"
        }
      ],
      "name": "reserveRemoval",
      "outputs": [],
      "stateMutability": "nonpayable",
      "type": "function"
    },
    {
      "inputs": [
        {
          "internalType": "bytes32",
          "name": "role",
          "type": "bytes32"
        },
        {
          "internalType": "address",
          "name": "account",
          "type": "address"
        }
      ],
      "name": "revokeRole",
      "outputs": [],
      "stateMutability": "nonpayable",
      "type": "function"
    },
    {
      "inputs": [
        {
          "internalType": "uint256",
          "name": "threshold",
          "type": "uint256"
        }
      ],
      "name": "setPriorityRestrictedThreshold",
      "outputs": [],
      "stateMutability": "nonpayable",
      "type": "function"
    },
    {
      "inputs": [
        {
          "internalType": "bytes4",
          "name": "interfaceId",
          "type": "bytes4"
        }
      ],
      "name": "supportsInterface",
      "outputs": [
        {
          "internalType": "bool",
          "name": "",
          "type": "bool"
        }
      ],
      "stateMutability": "view",
      "type": "function"
    },
    {
      "inputs": [
        {
          "internalType": "address",
          "name": "recipient",
          "type": "address"
        },
        {
          "internalType": "uint256",
          "name": "amount",
          "type": "uint256"
        },
        {
          "internalType": "uint256",
          "name": "deadline",
          "type": "uint256"
        },
        {
          "internalType": "uint8",
          "name": "v",
          "type": "uint8"
        },
        {
          "internalType": "bytes32",
          "name": "r",
          "type": "bytes32"
        },
        {
          "internalType": "bytes32",
          "name": "s",
          "type": "bytes32"
        }
      ],
      "name": "swap",
      "outputs": [],
      "stateMutability": "nonpayable",
      "type": "function"
    },
    {
      "inputs": [
        {
          "internalType": "address",
          "name": "recipient",
          "type": "address"
        },
        {
          "internalType": "uint256",
          "name": "amount",
          "type": "uint256"
        },
        {
          "internalType": "address",
          "name": "supplierToBuyFrom",
          "type": "address"
        },
        {
          "internalType": "uint256",
          "name": "deadline",
          "type": "uint256"
        },
        {
          "internalType": "uint8",
          "name": "v",
          "type": "uint8"
        },
        {
          "internalType": "bytes32",
          "name": "r",
          "type": "bytes32"
        },
        {
          "internalType": "bytes32",
          "name": "s",
          "type": "bytes32"
        }
      ],
      "name": "swapFromSpecificSupplier",
      "outputs": [],
      "stateMutability": "nonpayable",
      "type": "function"
    },
    {
      "inputs": [],
      "name": "totalActiveSupply",
      "outputs": [
        {
          "internalType": "uint256",
          "name": "",
          "type": "uint256"
        }
      ],
      "stateMutability": "view",
      "type": "function"
    },
    {
      "inputs": [],
      "name": "totalReservedSupply",
      "outputs": [
        {
          "internalType": "uint256",
          "name": "",
          "type": "uint256"
        }
      ],
      "stateMutability": "view",
      "type": "function"
    },
    {
      "inputs": [],
      "name": "totalUnrestrictedSupply",
      "outputs": [
        {
          "internalType": "uint256",
          "name": "",
          "type": "uint256"
        }
      ],
      "stateMutability": "view",
      "type": "function"
    },
    {
      "inputs": [
        {
          "internalType": "uint256",
          "name": "removalId",
          "type": "uint256"
        }
      ],
      "name": "unreserveRemoval",
      "outputs": [],
      "stateMutability": "nonpayable",
      "type": "function"
    }
  ],
  "bytecode": "0x60806040523480156200001157600080fd5b506200001c62000022565b620000e4565b600054610100900460ff16156200008f5760405162461bcd60e51b815260206004820152602760248201527f496e697469616c697a61626c653a20636f6e747261637420697320696e697469604482015266616c697a696e6760c81b606482015260840160405180910390fd5b60005460ff9081161015620000e2576000805460ff191660ff9081179091556040519081527f7f26b83ff96e1f2b6a682f133852f6798a09c465da95921460cefb38474024989060200160405180910390a15b565b613bfa80620000f46000396000f3fe608060405234801561001057600080fd5b50600436106101ae5760003560e01c80637530b450116100ee578063bc197c8111610097578063d547741f11610071578063d547741f146103d8578063d797462f146103eb578063da9d20e7146103fe578063f23a6e611461041157600080fd5b8063bc197c811461036e578063ca15c873146103b2578063ce0ec474146103c557600080fd5b806395b6ef0c116100c857806395b6ef0c1461034057806397a11ee914610353578063a217fddf1461036657600080fd5b80637530b450146102ba5780639010d07c146102c257806391d14854146102fa57600080fd5b806336568abe1161015b5780634e2abc2d116101355780634e2abc2d1461028e57806359e1a71c14610297578063674d13c8146102aa57806372069264146102b257600080fd5b806336568abe14610255578063366a4120146102685780634b26509d1461027b57600080fd5b8063248a9ca31161018c578063248a9ca3146101f65780632f2ff15d146102195780633030b5321461022e57600080fd5b806301ffc9a7146101b357806312de2b05146101db57806321700561146101ee575b600080fd5b6101c66101c13660046131ac565b610449565b60405190151581526020015b60405180910390f35b610133545b6040519081526020016101d2565b6101e061045a565b6101e06102043660046131ee565b60009081526065602052604090206001015490565b61022c610227366004613230565b61056e565b005b6101e07f26a560d834a19637eccba4611bbc09fb32970bb627da0a70f14f83fdc9822cbc81565b61022c610263366004613230565b610598565b61022c61027636600461325c565b610650565b6101e06102893660046131ee565b61071b565b610132546101e0565b61022c6102a53660046131ee565b610742565b6101e061079e565b6101e06107ea565b6101e06108b2565b6102d56102d036600461325c565b61094c565b60405173ffffffffffffffffffffffffffffffffffffffff90911681526020016101d2565b6101c6610308366004613230565b600091825260656020908152604080842073ffffffffffffffffffffffffffffffffffffffff93909316845291905290205460ff1690565b61022c61034e36600461327e565b61096b565b61022c6103613660046131ee565b610bf0565b6101e0600081565b61038161037c366004613486565b610c6d565b6040517fffffffff0000000000000000000000000000000000000000000000000000000090911681526020016101d2565b6101e06103c03660046131ee565b610dee565b61022c6103d3366004613541565b610e05565b61022c6103e6366004613230565b610f88565b61022c6103f93660046131ee565b610fad565b61022c61040c366004613599565b610ff5565b61038161041f366004613603565b7ff23a6e610000000000000000000000000000000000000000000000000000000095945050505050565b600061045482611212565b92915050565b60003073ffffffffffffffffffffffffffffffffffffffff1663674d13c86040518163ffffffff1660e01b8152600401602060405180830381865afa1580156104a7573d6000803e3d6000fd5b505050506040513d601f19601f820116820180604052508101906104cb9190613668565b61012d546040517f789e8cdf00000000000000000000000000000000000000000000000000000000815230600482015273ffffffffffffffffffffffffffffffffffffffff9091169063789e8cdf906024015b602060405180830381865afa15801561053b573d6000803e3d6000fd5b505050506040513d601f19601f8201168201806040525081019061055f9190613668565b61056991906136b0565b905090565b60008281526065602052604090206001015461058981611268565b6105938383611275565b505050565b73ffffffffffffffffffffffffffffffffffffffff81163314610642576040517f08c379a000000000000000000000000000000000000000000000000000000000815260206004820152602f60248201527f416363657373436f6e74726f6c3a2063616e206f6e6c792072656e6f756e636560448201527f20726f6c657320666f722073656c66000000000000000000000000000000000060648201526084015b60405180910390fd5b61064c8282611297565b5050565b600061065b836112b9565b61012d546040517efdd58e0000000000000000000000000000000000000000000000000000000081523060048201526024810186905291925060009173ffffffffffffffffffffffffffffffffffffffff9091169062fdd58e90604401602060405180830381865afa1580156106d5573d6000803e3d6000fd5b505050506040513d601f19601f820116820180604052508101906106f99190613668565b90508083036107155761070b846112c8565b610715828561130d565b50505050565b600061013254606461072d91906136c7565b6107388360646136df565b610454919061371c565b600061074d826112b9565b9050610759818361130d565b61076561013783611374565b61064c576040517f91ae052500000000000000000000000000000000000000000000000000000000815260048101839052602401610639565b600080806107ad610137611380565b905060005b818110156107e2576107c66101378261138a565b6107d090846136c7565b92506107db81613757565b90506107b2565b509092915050565b60003073ffffffffffffffffffffffffffffffffffffffff1663674d13c86040518163ffffffff1660e01b8152600401602060405180830381865afa158015610837573d6000803e3d6000fd5b505050506040513d601f19601f8201168201806040525081019061085b9190613668565b61012d546040517f854560a400000000000000000000000000000000000000000000000000000000815230600482015273ffffffffffffffffffffffffffffffffffffffff9091169063854560a49060240161051e565b6000803073ffffffffffffffffffffffffffffffffffffffff1663720692646040518163ffffffff1660e01b8152600401602060405180830381865afa158015610900573d6000803e3d6000fd5b505050506040513d601f19601f820116820180604052508101906109249190613668565b9050610133548110610943576101335461093e90826136b0565b610946565b60005b91505090565b6000828152609760205260408120610964908361138a565b9392505050565b600054610100900460ff161580801561098b5750600054600160ff909116105b806109a55750303b1580156109a5575060005460ff166001145b610a31576040517f08c379a000000000000000000000000000000000000000000000000000000000815260206004820152602e60248201527f496e697469616c697a61626c653a20636f6e747261637420697320616c72656160448201527f647920696e697469616c697a65640000000000000000000000000000000000006064820152608401610639565b600080547fffffffffffffffffffffffffffffffffffffffffffffffffffffffffffffff001660011790558015610a8f57600080547fffffffffffffffffffffffffffffffffffffffffffffffffffffffffffff00ff166101001790555b610a97611396565b610a9f611396565b610aa7611396565b610aaf611396565b610ab7611396565b61012d80547fffffffffffffffffffffffff000000000000000000000000000000000000000090811673ffffffffffffffffffffffffffffffffffffffff8a81169190911790925561012f8054821689841617905561012e8054821688841617905561013080548216878416179055610131805482169286169290921790915561013283905560006101338190556101348054909216909155610b5a9033611275565b610b847f26a560d834a19637eccba4611bbc09fb32970bb627da0a70f14f83fdc9822cbc33611275565b8015610be757600080547fffffffffffffffffffffffffffffffffffffffffffffffffffffffffffff00ff169055604051600181527f7f26b83ff96e1f2b6a682f133852f6798a09c465da95921460cefb38474024989060200160405180910390a15b50505050505050565b6000610bfb826112b9565b9050610c06826112c8565b73ffffffffffffffffffffffffffffffffffffffff811660009081526101366020526040902060020154610c3d57610c3d8161142f565b73ffffffffffffffffffffffffffffffffffffffff81166000908152610136602052604090206105939083611598565b6000805b8451811015610d25576000858281518110610c8e57610c8e61378f565b602002602001015190506000610ca3826112b9565b73ffffffffffffffffffffffffffffffffffffffff8116600090815261013660205260409020909150610cd69083611598565b5073ffffffffffffffffffffffffffffffffffffffff8181166000908152610135602052604090206001015416610d1057610d108161142f565b50508080610d1d90613757565b915050610c71565b50600082806020019051810190610d3c9190613668565b610130546040517ff6f57a2e0000000000000000000000000000000000000000000000000000000081526004810183905291925073ffffffffffffffffffffffffffffffffffffffff169063f6f57a2e90602401600060405180830381600087803b158015610daa57600080fd5b505af1158015610dbe573d6000803e3d6000fd5b507fbc197c81000000000000000000000000000000000000000000000000000000009a9950505050505050505050565b600081815260976020526040812061045490611380565b610e0d611659565b6040517f4b26509d000000000000000000000000000000000000000000000000000000008152600481018690526000903090634b26509d90602401602060405180830381865afa158015610e65573d6000803e3d6000fd5b505050506040513d601f19601f82011682018060405250810190610e899190613668565b9050600080600080610e9a85611770565b61012f549397509195509350915073ffffffffffffffffffffffffffffffffffffffff1663d505accf336040517fffffffff0000000000000000000000000000000000000000000000000000000060e084901b16815273ffffffffffffffffffffffffffffffffffffffff9091166004820152306024820152604481018d9052606481018c905260ff8b16608482015260a481018a905260c4810189905260e401600060405180830381600087803b158015610f5557600080fd5b505af1158015610f69573d6000803e3d6000fd5b50505050610f7b858c86868686611ca8565b5050505050505050505050565b600082815260656020526040902060010154610fa381611268565b6105938383611297565b6000610fb881611268565b6101338290556040518281527f7ab6aa6547859e9ca74d567d44fefa0d63272ac019f4ebf9333032a62ea06fa59060200160405180910390a15050565b610ffd611659565b6040517f4b26509d000000000000000000000000000000000000000000000000000000008152600481018790526000903090634b26509d90602401602060405180830381865afa158015611055573d6000803e3d6000fd5b505050506040513d601f19601f820116820180604052508101906110799190613668565b9050600080600061108a848a612319565b92509250925060008367ffffffffffffffff8111156110ab576110ab6132eb565b6040519080825280602002602001820160405280156110d4578160200160208202803683370190505b50905060005b8481101561112c578a8282815181106110f5576110f561378f565b73ffffffffffffffffffffffffffffffffffffffff909216602092830291909101909101528061112481613757565b9150506110da565b5061012f5473ffffffffffffffffffffffffffffffffffffffff1663d505accf336040517fffffffff0000000000000000000000000000000000000000000000000000000060e084901b16815273ffffffffffffffffffffffffffffffffffffffff9091166004820152306024820152604481018e9052606481018c905260ff8b16608482015260a481018a905260c4810189905260e401600060405180830381600087803b1580156111de57600080fd5b505af11580156111f2573d6000803e3d6000fd5b50505050611204858d86868686611ca8565b505050505050505050505050565b60007fffffffff0000000000000000000000000000000000000000000000000000000082167f4e2312e000000000000000000000000000000000000000000000000000000000148061045457506104548261264f565b61127281336126a5565b50565b61127f8282612777565b6000828152609760205260409020610593908261286b565b6112a1828261288d565b60008281526097602052604090206105939082612948565b6000610454826014600461296a565b6112d461013782611374565b611272576040517fbd5baa9200000000000000000000000000000000000000000000000000000000815260048101829052602401610639565b73ffffffffffffffffffffffffffffffffffffffff821660009081526101366020526040902061133d90826129b6565b73ffffffffffffffffffffffffffffffffffffffff82166000908152610136602052604090206002015461064c5761064c82612b3e565b60006109648383612d03565b6000610454825490565b60006109648383612d52565b600054610100900460ff1661142d576040517f08c379a000000000000000000000000000000000000000000000000000000000815260206004820152602b60248201527f496e697469616c697a61626c653a20636f6e7472616374206973206e6f74206960448201527f6e697469616c697a696e670000000000000000000000000000000000000000006064820152608401610639565b565b6101345473ffffffffffffffffffffffffffffffffffffffff166114d757610134805473ffffffffffffffffffffffffffffffffffffffff9283167fffffffffffffffffffffffff00000000000000000000000000000000000000009182168117909255604080518082018252838152602080820185815260009586526101359091529190932092518354908516908316178355516001929092018054929093169116179055565b604080518082018252610134805473ffffffffffffffffffffffffffffffffffffffff908116600081815261013560208181528783205485168752808701938452888516808452919052868220955186549085167fffffffffffffffffffffffff00000000000000000000000000000000000000009182161787559251600196870180549186169185169190911790558454841682528682205484168252868220909501805483168617905592549091168252929020805490921617905550565b6000806115a483612d7c565b61ffff1690506115b684600201541590565b156115ce5760018401819055600284018190556115fa565b83600101548110156115e657600184018190556115fa565b83600201548111156115fa57600284018190555b60008181526020859052604090206116129084611374565b611652576040517fbd48f90e0000000000000000000000000000000000000000000000000000000081526004810184905260248101829052604401610639565b5092915050565b60003073ffffffffffffffffffffffffffffffffffffffff1663720692646040518163ffffffff1660e01b8152600401602060405180830381865afa1580156116a6573d6000803e3d6000fd5b505050506040513d601f19601f820116820180604052508101906116ca9190613668565b905080600003611706576040517fade1cb4100000000000000000000000000000000000000000000000000000000815260040160405180910390fd5b6101335481116112725761173a7f26a560d834a19637eccba4611bbc09fb32970bb627da0a70f14f83fdc9822cbc33610308565b611272576040517f9ece8f2f00000000000000000000000000000000000000000000000000000000815260040160405180910390fd5b60006060806060600085905060003073ffffffffffffffffffffffffffffffffffffffff1663217005616040518163ffffffff1660e01b8152600401602060405180830381865afa1580156117c9573d6000803e3d6000fd5b505050506040513d601f19601f820116820180604052508101906117ed9190613668565b905060008167ffffffffffffffff81111561180a5761180a6132eb565b604051908082528060200260200182016040528015611833578160200160208202803683370190505b50905060008267ffffffffffffffff811115611851576118516132eb565b60405190808252806020026020018201604052801561187a578160200160208202803683370190505b50905060008367ffffffffffffffff811115611898576118986132eb565b6040519080825280602002602001820160405280156118c1578160200160208202803683370190505b5090506000805b85811015611c97576101345473ffffffffffffffffffffffffffffffffffffffff1660009081526101366020526040812061190290612d8b565b61012d546040517efdd58e0000000000000000000000000000000000000000000000000000000081523060048201526024810183905291925060009173ffffffffffffffffffffffffffffffffffffffff9091169062fdd58e90604401602060405180830381865afa15801561197c573d6000803e3d6000fd5b505050506040513d601f19601f820116820180604052508101906119a09190613668565b905080891015611a5b57818785815181106119bd576119bd61378f565b602002602001018181525050888685815181106119dc576119dc61378f565b602090810291909101015261013454855173ffffffffffffffffffffffffffffffffffffffff90911690869086908110611a1857611a1861378f565b602002602001019073ffffffffffffffffffffffffffffffffffffffff16908173ffffffffffffffffffffffffffffffffffffffff168152505060009850611c66565b611a666001896136b0565b83148015611a7357508089115b15611aaa576040517f33aa101c00000000000000000000000000000000000000000000000000000000815260040160405180910390fd5b81878581518110611abd57611abd61378f565b60200260200101818152505080868581518110611adc57611adc61378f565b602090810291909101015261013454855173ffffffffffffffffffffffffffffffffffffffff90911690869086908110611b1857611b1861378f565b73ffffffffffffffffffffffffffffffffffffffff90921660209283029190910190910152611b47818a6136b0565b6101345473ffffffffffffffffffffffffffffffffffffffff16600090815261013660205260409020909950611b7d90836129b6565b6101345473ffffffffffffffffffffffffffffffffffffffff1660009081526101366020526040902060020154611bd65761013454611bd19073ffffffffffffffffffffffffffffffffffffffff16612b3e565b611c66565b6101345473ffffffffffffffffffffffffffffffffffffffff9081166000818152610135602052604090206001015490911614611c6657610134805473ffffffffffffffffffffffffffffffffffffffff80821660009081526101356020526040902060010154167fffffffffffffffffffffffff00000000000000000000000000000000000000009091161790555b83611c7081613757565b94505088600003611c82575050611c97565b50508080611c8f90613757565b9150506118c8565b509a92995090975095509350505050565b60008467ffffffffffffffff811115611cc357611cc36132eb565b604051908082528060200260200182016040528015611cec578160200160208202803683370190505b50905060008567ffffffffffffffff811115611d0a57611d0a6132eb565b604051908082528060200260200182016040528015611d33578160200160208202803683370190505b50905060005b86811015611dc257858181518110611d5357611d5361378f565b6020026020010151838281518110611d6d57611d6d61378f565b602002602001018181525050848181518110611d8b57611d8b61378f565b6020026020010151828281518110611da557611da561378f565b602090810291909101015280611dba81613757565b915050611d39565b5061012d546040517fb6477cc000000000000000000000000000000000000000000000000000000000815260009173ffffffffffffffffffffffffffffffffffffffff169063b6477cc090611e1b9086906004016137f9565b600060405180830381865afa158015611e38573d6000803e3d6000fd5b505050506040513d6000823e601f3d9081017fffffffffffffffffffffffffffffffffffffffffffffffffffffffffffffffe0168201604052611e7e919081019061380c565b905060005b8351811015612254576000606461013254858481518110611ea657611ea661378f565b6020026020010151611eb891906136df565b611ec2919061371c565b9050600080858481518110611ed957611ed961378f565b602002602001015190506000858581518110611ef757611ef761378f565b602002602001015111156120a1576064858581518110611f1957611f1961378f565b602002602001015182611f2c91906136df565b611f36919061371c565b9150611f4282826136b0565b61013054885191925073ffffffffffffffffffffffffffffffffffffffff1690631b2ef1ca9084908a9088908110611f7c57611f7c61378f565b60200260200101516040518363ffffffff1660e01b8152600401611faa929190918252602082015260400190565b600060405180830381600087803b158015611fc457600080fd5b505af1158015611fd8573d6000803e3d6000fd5b505061012f5473ffffffffffffffffffffffffffffffffffffffff1691506323b872dd9050336101305460405160e084901b7fffffffff0000000000000000000000000000000000000000000000000000000016815273ffffffffffffffffffffffffffffffffffffffff928316600482015291166024820152604481018590526064016020604051808303816000875af115801561207b573d6000803e3d6000fd5b505050506040513d601f19601f8201168201806040525081019061209f919061389d565b505b61012f5473ffffffffffffffffffffffffffffffffffffffff166323b872dd336101315460405160e084901b7fffffffff0000000000000000000000000000000000000000000000000000000016815273ffffffffffffffffffffffffffffffffffffffff928316600482015291166024820152604481018690526064016020604051808303816000875af115801561213e573d6000803e3d6000fd5b505050506040513d601f19601f82011682018060405250810190612162919061389d565b5061012f5473ffffffffffffffffffffffffffffffffffffffff166323b872dd338a87815181106121955761219561378f565b60209081029190910101516040517fffffffff0000000000000000000000000000000000000000000000000000000060e085901b16815273ffffffffffffffffffffffffffffffffffffffff928316600482015291166024820152604481018490526064016020604051808303816000875af1158015612219573d6000803e3d6000fd5b505050506040513d601f19601f8201168201806040525081019061223d919061389d565b50505050808061224c90613757565b915050611e83565b5061012d546040805173ffffffffffffffffffffffffffffffffffffffff8b81166020830152928316818301819052825180830384018152606083019384905261012e547f2eb2c2d600000000000000000000000000000000000000000000000000000000909452939092632eb2c2d6926122db9230921690899089908890606401613935565b600060405180830381600087803b1580156122f557600080fd5b505af1158015612309573d6000803e3d6000fd5b5050505050505050505050505050565b73ffffffffffffffffffffffffffffffffffffffff811660009081526101366020526040812060018101546002820154606092839290918591905b80821161238957600082815260208590526040902061237290611380565b61237c90846136c7565b9250600190910190612354565b826000036123c3576040517f33aa101c00000000000000000000000000000000000000000000000000000000815260040160405180910390fd5b8860008467ffffffffffffffff8111156123df576123df6132eb565b604051908082528060200260200182016040528015612408578160200160208202803683370190505b50905060008567ffffffffffffffff811115612426576124266132eb565b60405190808252806020026020018201604052801561244f578160200160208202803683370190505b5090506000805b8781101561263d5760006124698a612d8b565b61012d546040517efdd58e0000000000000000000000000000000000000000000000000000000081523060048201526024810183905291925060009173ffffffffffffffffffffffffffffffffffffffff9091169062fdd58e90604401602060405180830381865afa1580156124e3573d6000803e3d6000fd5b505050506040513d601f19601f820116820180604052508101906125079190613668565b90508087101561255857818685815181106125245761252461378f565b602002602001018181525050868585815181106125435761254361378f565b6020026020010181815250506000965061260c565b61256360018b6136b0565b8414801561257057508087115b156125a7576040517f33aa101c00000000000000000000000000000000000000000000000000000000815260040160405180910390fd5b818685815181106125ba576125ba61378f565b602002602001018181525050808585815181106125d9576125d961378f565b60209081029190910101526125ee81886136b0565b96506125fa8b836129b6565b60028b015461260c5761260c8f612b3e565b8361261681613757565b9450508660000361262857505061263d565b5050808061263590613757565b915050612456565b509c919b509950975050505050505050565b60007fffffffff0000000000000000000000000000000000000000000000000000000082167f5a05180f000000000000000000000000000000000000000000000000000000001480610454575061045482612da8565b600082815260656020908152604080832073ffffffffffffffffffffffffffffffffffffffff8516845290915290205460ff1661064c576126fd8173ffffffffffffffffffffffffffffffffffffffff166014612e3f565b612708836020612e3f565b6040516020016127199291906139a0565b604080517fffffffffffffffffffffffffffffffffffffffffffffffffffffffffffffffe0818403018152908290527f08c379a000000000000000000000000000000000000000000000000000000000825261063991600401613a21565b600082815260656020908152604080832073ffffffffffffffffffffffffffffffffffffffff8516845290915290205460ff1661064c57600082815260656020908152604080832073ffffffffffffffffffffffffffffffffffffffff85168452909152902080547fffffffffffffffffffffffffffffffffffffffffffffffffffffffffffffff0016600117905561280d3390565b73ffffffffffffffffffffffffffffffffffffffff168173ffffffffffffffffffffffffffffffffffffffff16837f2f8788117e7eff1d82e926ec794901d17c78024a50270940304540a733656f0d60405160405180910390a45050565b60006109648373ffffffffffffffffffffffffffffffffffffffff8416612d03565b600082815260656020908152604080832073ffffffffffffffffffffffffffffffffffffffff8516845290915290205460ff161561064c57600082815260656020908152604080832073ffffffffffffffffffffffffffffffffffffffff8516808552925280832080547fffffffffffffffffffffffffffffffffffffffffffffffffffffffffffffff0016905551339285917ff6391f5c32d9c69d2a47ea670b442974b53935d1edc7fd64eb21e047a839171b9190a45050565b60006109648373ffffffffffffffffffffffffffffffffffffffff8416613082565b6000806129786008846136df565b60016129856008876136df565b612990906002613b54565b61299a91906136b0565b901b90508481166129ac6008856136df565b1c95945050505050565b60006129c182612d7c565b61ffff1660008181526020859052604090209091506129e09083613175565b612a20576040517f78717f990000000000000000000000000000000000000000000000000000000081526004810183905260248101829052604401610639565b612a2a8382613181565b15610593578260020154836001015403612a70577fffffffffffffffffffffffffffffffffffffffffffffffffffffffffffffffff600184015560006002840155505050565b82600101548103612ad757600083600101546001612a8e91906136c7565b90505b83600201548111610715576000818152602085905260408120612ab390611380565b1115612ac55760018401819055610715565b80612acf81613757565b915050612a91565b8260020154810361059357600060018460020154612af591906136b0565b90505b83600101548110610715576000818152602085905260408120612b1a90611380565b1115612b2c5760028401819055610715565b80612b3681613b60565b915050612af8565b73ffffffffffffffffffffffffffffffffffffffff808216600081815261013560205260409020600101549091169003612ba05761013480547fffffffffffffffffffffffff0000000000000000000000000000000000000000169055612c88565b73ffffffffffffffffffffffffffffffffffffffff818116600081815261013560205260408082206001808201805483548816865284862090920180549288167fffffffffffffffffffffffff0000000000000000000000000000000000000000938416179055915491548616845291909220805492851692909116919091179055610134549091169003612c8857610134805473ffffffffffffffffffffffffffffffffffffffff80821660009081526101356020526040902060010154167fffffffffffffffffffffffff00000000000000000000000000000000000000009091161790555b6040805180820182526000808252602080830182815273ffffffffffffffffffffffffffffffffffffffff9586168352610135909152929020905181549084167fffffffffffffffffffffffff0000000000000000000000000000000000000000918216178255915160019091018054919093169116179055565b6000818152600183016020526040812054612d4a57508154600181810184556000848152602080822090930184905584548482528286019093526040902091909155610454565b506000610454565b6000826000018281548110612d6957612d6961378f565b9060005260206000200154905092915050565b6000610454826002601c61296a565b60018101546000908152602082905260408120610454908261138a565b60007fffffffff0000000000000000000000000000000000000000000000000000000082167f7965db0b00000000000000000000000000000000000000000000000000000000148061045457507f01ffc9a7000000000000000000000000000000000000000000000000000000007fffffffff00000000000000000000000000000000000000000000000000000000831614610454565b60606000612e4e8360026136df565b612e599060026136c7565b67ffffffffffffffff811115612e7157612e716132eb565b6040519080825280601f01601f191660200182016040528015612e9b576020820181803683370190505b5090507f300000000000000000000000000000000000000000000000000000000000000081600081518110612ed257612ed261378f565b60200101907effffffffffffffffffffffffffffffffffffffffffffffffffffffffffffff1916908160001a9053507f780000000000000000000000000000000000000000000000000000000000000081600181518110612f3557612f3561378f565b60200101907effffffffffffffffffffffffffffffffffffffffffffffffffffffffffffff1916908160001a9053506000612f718460026136df565b612f7c9060016136c7565b90505b6001811115613019577f303132333435363738396162636465660000000000000000000000000000000085600f1660108110612fbd57612fbd61378f565b1a60f81b828281518110612fd357612fd361378f565b60200101907effffffffffffffffffffffffffffffffffffffffffffffffffffffffffffff1916908160001a90535060049490941c9361301281613b60565b9050612f7f565b508315610964576040517f08c379a000000000000000000000000000000000000000000000000000000000815260206004820181905260248201527f537472696e67733a20686578206c656e67746820696e73756666696369656e746044820152606401610639565b6000818152600183016020526040812054801561316b5760006130a66001836136b0565b85549091506000906130ba906001906136b0565b905081811461311f5760008660000182815481106130da576130da61378f565b90600052602060002001549050808760000184815481106130fd576130fd61378f565b6000918252602080832090910192909255918252600188019052604090208390555b855486908061313057613130613b95565b600190038181906000526020600020016000905590558560010160008681526020019081526020016000206000905560019350505050610454565b6000915050610454565b60006109648383613082565b600061318d8383613195565b159392505050565b600081815260208390526040812061096490611380565b6000602082840312156131be57600080fd5b81357fffffffff000000000000000000000000000000000000000000000000000000008116811461096457600080fd5b60006020828403121561320057600080fd5b5035919050565b803573ffffffffffffffffffffffffffffffffffffffff8116811461322b57600080fd5b919050565b6000806040838503121561324357600080fd5b8235915061325360208401613207565b90509250929050565b6000806040838503121561326f57600080fd5b50508035926020909101359150565b60008060008060008060c0878903121561329757600080fd5b6132a087613207565b95506132ae60208801613207565b94506132bc60408801613207565b93506132ca60608801613207565b92506132d860808801613207565b915060a087013590509295509295509295565b7f4e487b7100000000000000000000000000000000000000000000000000000000600052604160045260246000fd5b604051601f82017fffffffffffffffffffffffffffffffffffffffffffffffffffffffffffffffe016810167ffffffffffffffff81118282101715613361576133616132eb565b604052919050565b600067ffffffffffffffff821115613383576133836132eb565b5060051b60200190565b600082601f83011261339e57600080fd5b813560206133b36133ae83613369565b61331a565b82815260059290921b840181019181810190868411156133d257600080fd5b8286015b848110156133ed57803583529183019183016133d6565b509695505050505050565b600082601f83011261340957600080fd5b813567ffffffffffffffff811115613423576134236132eb565b61345460207fffffffffffffffffffffffffffffffffffffffffffffffffffffffffffffffe0601f8401160161331a565b81815284602083860101111561346957600080fd5b816020850160208301376000918101602001919091529392505050565b600080600080600060a0868803121561349e57600080fd5b6134a786613207565b94506134b560208701613207565b9350604086013567ffffffffffffffff808211156134d257600080fd5b6134de89838a0161338d565b945060608801359150808211156134f457600080fd5b61350089838a0161338d565b9350608088013591508082111561351657600080fd5b50613523888289016133f8565b9150509295509295909350565b803560ff8116811461322b57600080fd5b60008060008060008060c0878903121561355a57600080fd5b61356387613207565b9550602087013594506040870135935061357f60608801613530565b92506080870135915060a087013590509295509295509295565b600080600080600080600060e0888a0312156135b457600080fd5b6135bd88613207565b9650602088013595506135d260408901613207565b9450606088013593506135e760808901613530565b925060a0880135915060c0880135905092959891949750929550565b600080600080600060a0868803121561361b57600080fd5b61362486613207565b945061363260208701613207565b93506040860135925060608601359150608086013567ffffffffffffffff81111561365c57600080fd5b613523888289016133f8565b60006020828403121561367a57600080fd5b5051919050565b7f4e487b7100000000000000000000000000000000000000000000000000000000600052601160045260246000fd5b6000828210156136c2576136c2613681565b500390565b600082198211156136da576136da613681565b500190565b6000817fffffffffffffffffffffffffffffffffffffffffffffffffffffffffffffffff048311821515161561371757613717613681565b500290565b600082613752577f4e487b7100000000000000000000000000000000000000000000000000000000600052601260045260246000fd5b500490565b60007fffffffffffffffffffffffffffffffffffffffffffffffffffffffffffffffff820361378857613788613681565b5060010190565b7f4e487b7100000000000000000000000000000000000000000000000000000000600052603260045260246000fd5b600081518084526020808501945080840160005b838110156137ee578151875295820195908201906001016137d2565b509495945050505050565b60208152600061096460208301846137be565b6000602080838503121561381f57600080fd5b825167ffffffffffffffff81111561383657600080fd5b8301601f8101851361384757600080fd5b80516138556133ae82613369565b81815260059190911b8201830190838101908783111561387457600080fd5b928401925b8284101561389257835182529284019290840190613879565b979650505050505050565b6000602082840312156138af57600080fd5b8151801515811461096457600080fd5b60005b838110156138da5781810151838201526020016138c2565b838111156107155750506000910152565b600081518084526139038160208601602086016138bf565b601f017fffffffffffffffffffffffffffffffffffffffffffffffffffffffffffffffe0169290920160200192915050565b600073ffffffffffffffffffffffffffffffffffffffff808816835280871660208401525060a0604083015261396e60a08301866137be565b828103606084015261398081866137be565b9050828103608084015261399481856138eb565b98975050505050505050565b7f416363657373436f6e74726f6c3a206163636f756e74200000000000000000008152600083516139d88160178501602088016138bf565b7f206973206d697373696e6720726f6c65200000000000000000000000000000006017918401918201528351613a158160288401602088016138bf565b01602801949350505050565b60208152600061096460208301846138eb565b600181815b80851115613a8d57817fffffffffffffffffffffffffffffffffffffffffffffffffffffffffffffffff04821115613a7357613a73613681565b80851615613a8057918102915b93841c9390800290613a39565b509250929050565b600082613aa457506001610454565b81613ab157506000610454565b8160018114613ac75760028114613ad157613aed565b6001915050610454565b60ff841115613ae257613ae2613681565b50506001821b610454565b5060208310610133831016604e8410600b8410161715613b10575081810a610454565b613b1a8383613a34565b807fffffffffffffffffffffffffffffffffffffffffffffffffffffffffffffffff04821115613b4c57613b4c613681565b029392505050565b60006109648383613a95565b600081613b6f57613b6f613681565b507fffffffffffffffffffffffffffffffffffffffffffffffffffffffffffffffff0190565b7f4e487b7100000000000000000000000000000000000000000000000000000000600052603160045260246000fdfea2646970667358221220e25012b4561e870ac24c90fac36a1af39da50373b01a109148e923cb0b3f792364736f6c634300080f0033",
  "linkReferences": {},
  "deployedLinkReferences": {}
}