{
  "_format": "hh-sol-artifact-1",
  "contractName": "LockedNORI",
  "sourceName": "contracts/deprecated/LockedNORI.sol",
  "abi": [
    {
      "anonymous": false,
      "inputs": [
        {
          "indexed": true,
          "internalType": "address",
          "name": "owner",
          "type": "address"
        },
        {
          "indexed": true,
          "internalType": "address",
          "name": "spender",
          "type": "address"
        },
        {
          "indexed": false,
          "internalType": "uint256",
          "name": "value",
          "type": "uint256"
        }
      ],
      "name": "Approval",
      "type": "event"
    },
    {
      "anonymous": false,
      "inputs": [
        {
          "indexed": true,
          "internalType": "address",
          "name": "operator",
          "type": "address"
        },
        {
          "indexed": true,
          "internalType": "address",
          "name": "tokenHolder",
          "type": "address"
        }
      ],
      "name": "AuthorizedOperator",
      "type": "event"
    },
    {
      "anonymous": false,
      "inputs": [
        {
          "indexed": true,
          "internalType": "address",
          "name": "operator",
          "type": "address"
        },
        {
          "indexed": true,
          "internalType": "address",
          "name": "from",
          "type": "address"
        },
        {
          "indexed": false,
          "internalType": "uint256",
          "name": "amount",
          "type": "uint256"
        },
        {
          "indexed": false,
          "internalType": "bytes",
          "name": "data",
          "type": "bytes"
        },
        {
          "indexed": false,
          "internalType": "bytes",
          "name": "operatorData",
          "type": "bytes"
        }
      ],
      "name": "Burned",
      "type": "event"
    },
    {
      "anonymous": false,
      "inputs": [
        {
          "indexed": false,
          "internalType": "uint8",
          "name": "version",
          "type": "uint8"
        }
      ],
      "name": "Initialized",
      "type": "event"
    },
    {
      "anonymous": false,
      "inputs": [
        {
          "indexed": true,
          "internalType": "address",
          "name": "operator",
          "type": "address"
        },
        {
          "indexed": true,
          "internalType": "address",
          "name": "to",
          "type": "address"
        },
        {
          "indexed": false,
          "internalType": "uint256",
          "name": "amount",
          "type": "uint256"
        },
        {
          "indexed": false,
          "internalType": "bytes",
          "name": "data",
          "type": "bytes"
        },
        {
          "indexed": false,
          "internalType": "bytes",
          "name": "operatorData",
          "type": "bytes"
        }
      ],
      "name": "Minted",
      "type": "event"
    },
    {
      "anonymous": false,
      "inputs": [
        {
          "indexed": false,
          "internalType": "address",
          "name": "account",
          "type": "address"
        }
      ],
      "name": "Paused",
      "type": "event"
    },
    {
      "anonymous": false,
      "inputs": [
        {
          "indexed": true,
          "internalType": "address",
          "name": "operator",
          "type": "address"
        },
        {
          "indexed": true,
          "internalType": "address",
          "name": "tokenHolder",
          "type": "address"
        }
      ],
      "name": "RevokedOperator",
      "type": "event"
    },
    {
      "anonymous": false,
      "inputs": [
        {
          "indexed": true,
          "internalType": "bytes32",
          "name": "role",
          "type": "bytes32"
        },
        {
          "indexed": true,
          "internalType": "bytes32",
          "name": "previousAdminRole",
          "type": "bytes32"
        },
        {
          "indexed": true,
          "internalType": "bytes32",
          "name": "newAdminRole",
          "type": "bytes32"
        }
      ],
      "name": "RoleAdminChanged",
      "type": "event"
    },
    {
      "anonymous": false,
      "inputs": [
        {
          "indexed": true,
          "internalType": "bytes32",
          "name": "role",
          "type": "bytes32"
        },
        {
          "indexed": true,
          "internalType": "address",
          "name": "account",
          "type": "address"
        },
        {
          "indexed": true,
          "internalType": "address",
          "name": "sender",
          "type": "address"
        }
      ],
      "name": "RoleGranted",
      "type": "event"
    },
    {
      "anonymous": false,
      "inputs": [
        {
          "indexed": true,
          "internalType": "bytes32",
          "name": "role",
          "type": "bytes32"
        },
        {
          "indexed": true,
          "internalType": "address",
          "name": "account",
          "type": "address"
        },
        {
          "indexed": true,
          "internalType": "address",
          "name": "sender",
          "type": "address"
        }
      ],
      "name": "RoleRevoked",
      "type": "event"
    },
    {
      "anonymous": false,
      "inputs": [
        {
          "indexed": true,
          "internalType": "address",
          "name": "operator",
          "type": "address"
        },
        {
          "indexed": true,
          "internalType": "address",
          "name": "from",
          "type": "address"
        },
        {
          "indexed": true,
          "internalType": "address",
          "name": "to",
          "type": "address"
        },
        {
          "indexed": false,
          "internalType": "uint256",
          "name": "amount",
          "type": "uint256"
        },
        {
          "indexed": false,
          "internalType": "bytes",
          "name": "data",
          "type": "bytes"
        },
        {
          "indexed": false,
          "internalType": "bytes",
          "name": "operatorData",
          "type": "bytes"
        }
      ],
      "name": "Sent",
      "type": "event"
    },
    {
      "anonymous": false,
      "inputs": [
        {
          "indexed": true,
          "internalType": "address",
          "name": "from",
          "type": "address"
        },
        {
          "indexed": false,
          "internalType": "address[]",
          "name": "recipients",
          "type": "address[]"
        },
        {
          "indexed": false,
          "internalType": "uint256[]",
          "name": "amounts",
          "type": "uint256[]"
        },
        {
          "indexed": false,
          "internalType": "bytes[]",
          "name": "userData",
          "type": "bytes[]"
        },
        {
          "indexed": false,
          "internalType": "bytes[]",
          "name": "operatorData",
          "type": "bytes[]"
        },
        {
          "indexed": false,
          "internalType": "bool[]",
          "name": "requireReceptionAck",
          "type": "bool[]"
        }
      ],
      "name": "SentBatch",
      "type": "event"
    },
    {
      "anonymous": false,
      "inputs": [
        {
          "indexed": true,
          "internalType": "address",
          "name": "recipient",
          "type": "address"
        },
        {
          "indexed": true,
          "internalType": "uint256",
          "name": "amount",
          "type": "uint256"
        },
        {
          "indexed": true,
          "internalType": "uint256",
          "name": "startTime",
          "type": "uint256"
        },
        {
          "indexed": false,
          "internalType": "uint256",
          "name": "vestEndTime",
          "type": "uint256"
        },
        {
          "indexed": false,
          "internalType": "uint256",
          "name": "unlockEndTime",
          "type": "uint256"
        }
      ],
      "name": "TokenGrantCreated",
      "type": "event"
    },
    {
      "anonymous": false,
      "inputs": [
        {
          "indexed": true,
          "internalType": "address",
          "name": "from",
          "type": "address"
        },
        {
          "indexed": true,
          "internalType": "address",
          "name": "to",
          "type": "address"
        },
        {
          "indexed": false,
          "internalType": "uint256",
          "name": "quantity",
          "type": "uint256"
        }
      ],
      "name": "TokensClaimed",
      "type": "event"
    },
    {
      "anonymous": false,
      "inputs": [
        {
          "indexed": true,
          "internalType": "address",
          "name": "from",
          "type": "address"
        },
        {
          "indexed": true,
          "internalType": "address",
          "name": "to",
          "type": "address"
        },
        {
          "indexed": false,
          "internalType": "uint256",
          "name": "value",
          "type": "uint256"
        }
      ],
      "name": "Transfer",
      "type": "event"
    },
    {
      "anonymous": false,
      "inputs": [
        {
          "indexed": false,
          "internalType": "address",
          "name": "account",
          "type": "address"
        }
      ],
      "name": "Unpaused",
      "type": "event"
    },
    {
      "anonymous": false,
      "inputs": [
        {
          "indexed": true,
          "internalType": "uint256",
          "name": "atTime",
          "type": "uint256"
        },
        {
          "indexed": true,
          "internalType": "address",
          "name": "from",
          "type": "address"
        },
        {
          "indexed": true,
          "internalType": "uint256",
          "name": "quantity",
          "type": "uint256"
        }
      ],
      "name": "UnvestedTokensRevoked",
      "type": "event"
    },
    {
      "inputs": [],
      "name": "DEFAULT_ADMIN_ROLE",
      "outputs": [
        {
          "internalType": "bytes32",
          "name": "",
          "type": "bytes32"
        }
      ],
      "stateMutability": "view",
      "type": "function"
    },
    {
      "inputs": [],
      "name": "ERC777_TOKENS_RECIPIENT_HASH",
      "outputs": [
        {
          "internalType": "bytes32",
          "name": "",
          "type": "bytes32"
        }
      ],
      "stateMutability": "view",
      "type": "function"
    },
    {
      "inputs": [],
      "name": "PAUSER_ROLE",
      "outputs": [
        {
          "internalType": "bytes32",
          "name": "",
          "type": "bytes32"
        }
      ],
      "stateMutability": "view",
      "type": "function"
    },
    {
      "inputs": [],
      "name": "TOKEN_GRANTER_ROLE",
      "outputs": [
        {
          "internalType": "bytes32",
          "name": "",
          "type": "bytes32"
        }
      ],
      "stateMutability": "view",
      "type": "function"
    },
    {
      "inputs": [
        {
          "internalType": "address",
          "name": "holder",
          "type": "address"
        },
        {
          "internalType": "address",
          "name": "spender",
          "type": "address"
        }
      ],
      "name": "allowance",
      "outputs": [
        {
          "internalType": "uint256",
          "name": "",
          "type": "uint256"
        }
      ],
      "stateMutability": "view",
      "type": "function"
    },
    {
      "inputs": [
        {
          "internalType": "address",
          "name": "spender",
          "type": "address"
        },
        {
          "internalType": "uint256",
          "name": "value",
          "type": "uint256"
        }
      ],
      "name": "approve",
      "outputs": [
        {
          "internalType": "bool",
          "name": "",
          "type": "bool"
        }
      ],
      "stateMutability": "nonpayable",
      "type": "function"
    },
    {
      "inputs": [
        {
          "internalType": "address",
          "name": "operator",
          "type": "address"
        }
      ],
      "name": "authorizeOperator",
      "outputs": [],
      "stateMutability": "nonpayable",
      "type": "function"
    },
    {
      "inputs": [
        {
          "internalType": "address",
          "name": "tokenHolder",
          "type": "address"
        }
      ],
      "name": "balanceOf",
      "outputs": [
        {
          "internalType": "uint256",
          "name": "",
          "type": "uint256"
        }
      ],
      "stateMutability": "view",
      "type": "function"
    },
    {
      "inputs": [
        {
          "internalType": "address[]",
          "name": "accounts",
          "type": "address[]"
        }
      ],
      "name": "balanceOfBatch",
      "outputs": [
        {
          "internalType": "uint256[]",
          "name": "",
          "type": "uint256[]"
        }
      ],
      "stateMutability": "view",
      "type": "function"
    },
    {
      "inputs": [
        {
          "internalType": "address[]",
          "name": "accounts",
          "type": "address[]"
        }
      ],
      "name": "batchGetGrant",
      "outputs": [
        {
          "components": [
            {
              "internalType": "uint256",
              "name": "grantAmount",
              "type": "uint256"
            },
            {
              "internalType": "address",
              "name": "recipient",
              "type": "address"
            },
            {
              "internalType": "uint256",
              "name": "startTime",
              "type": "uint256"
            },
            {
              "internalType": "uint256",
              "name": "vestEndTime",
              "type": "uint256"
            },
            {
              "internalType": "uint256",
              "name": "unlockEndTime",
              "type": "uint256"
            },
            {
              "internalType": "uint256",
              "name": "cliff1Time",
              "type": "uint256"
            },
            {
              "internalType": "uint256",
              "name": "cliff2Time",
              "type": "uint256"
            },
            {
              "internalType": "uint256",
              "name": "vestCliff1Amount",
              "type": "uint256"
            },
            {
              "internalType": "uint256",
              "name": "vestCliff2Amount",
              "type": "uint256"
            },
            {
              "internalType": "uint256",
              "name": "unlockCliff1Amount",
              "type": "uint256"
            },
            {
              "internalType": "uint256",
              "name": "unlockCliff2Amount",
              "type": "uint256"
            },
            {
              "internalType": "uint256",
              "name": "claimedAmount",
              "type": "uint256"
            },
            {
              "internalType": "uint256",
              "name": "originalAmount",
              "type": "uint256"
            },
            {
              "internalType": "uint256",
              "name": "lastRevocationTime",
              "type": "uint256"
            },
            {
              "internalType": "uint256",
              "name": "lastQuantityRevoked",
              "type": "uint256"
            },
            {
              "internalType": "bool",
              "name": "exists",
              "type": "bool"
            }
          ],
          "internalType": "struct LockedNORI.TokenGrantDetail[]",
          "name": "",
          "type": "tuple[]"
        }
      ],
      "stateMutability": "view",
      "type": "function"
    },
    {
      "inputs": [
        {
          "internalType": "address[]",
          "name": "fromAccounts",
          "type": "address[]"
        },
        {
          "internalType": "address[]",
          "name": "toAccounts",
          "type": "address[]"
        },
        {
          "internalType": "uint256[]",
          "name": "atTimes",
          "type": "uint256[]"
        },
        {
          "internalType": "uint256[]",
          "name": "amounts",
          "type": "uint256[]"
        }
      ],
      "name": "batchRevokeUnvestedTokenAmounts",
      "outputs": [],
      "stateMutability": "nonpayable",
      "type": "function"
    },
    {
      "inputs": [
        {
          "internalType": "address[]",
          "name": "recipients",
          "type": "address[]"
        },
        {
          "internalType": "uint256[]",
          "name": "amounts",
          "type": "uint256[]"
        },
        {
          "internalType": "bytes[]",
          "name": "userData",
          "type": "bytes[]"
        },
        {
          "internalType": "bytes[]",
          "name": "operatorData",
          "type": "bytes[]"
        },
        {
          "internalType": "bool[]",
          "name": "requireReceptionAck",
          "type": "bool[]"
        }
      ],
      "name": "batchSend",
      "outputs": [],
      "stateMutability": "nonpayable",
      "type": "function"
    },
    {
      "inputs": [
        {
          "internalType": "uint256",
          "name": "",
          "type": "uint256"
        },
        {
          "internalType": "bytes",
          "name": "",
          "type": "bytes"
        }
      ],
      "name": "burn",
      "outputs": [],
      "stateMutability": "pure",
      "type": "function"
    },
    {
      "inputs": [
        {
          "internalType": "uint256",
          "name": "amount",
          "type": "uint256"
        },
        {
          "internalType": "address",
          "name": "recipient",
          "type": "address"
        },
        {
          "internalType": "uint256",
          "name": "startTime",
          "type": "uint256"
        },
        {
          "internalType": "uint256",
          "name": "vestEndTime",
          "type": "uint256"
        },
        {
          "internalType": "uint256",
          "name": "unlockEndTime",
          "type": "uint256"
        },
        {
          "internalType": "uint256",
          "name": "cliff1Time",
          "type": "uint256"
        },
        {
          "internalType": "uint256",
          "name": "cliff2Time",
          "type": "uint256"
        },
        {
          "internalType": "uint256",
          "name": "vestCliff1Amount",
          "type": "uint256"
        },
        {
          "internalType": "uint256",
          "name": "vestCliff2Amount",
          "type": "uint256"
        },
        {
          "internalType": "uint256",
          "name": "unlockCliff1Amount",
          "type": "uint256"
        },
        {
          "internalType": "uint256",
          "name": "unlockCliff2Amount",
          "type": "uint256"
        }
      ],
      "name": "createGrant",
      "outputs": [],
      "stateMutability": "nonpayable",
      "type": "function"
    },
    {
      "inputs": [],
      "name": "decimals",
      "outputs": [
        {
          "internalType": "uint8",
          "name": "",
          "type": "uint8"
        }
      ],
      "stateMutability": "pure",
      "type": "function"
    },
    {
      "inputs": [],
      "name": "defaultOperators",
      "outputs": [
        {
          "internalType": "address[]",
          "name": "",
          "type": "address[]"
        }
      ],
      "stateMutability": "view",
      "type": "function"
    },
    {
      "inputs": [
        {
          "internalType": "address",
          "name": "account",
          "type": "address"
        }
      ],
      "name": "getGrant",
      "outputs": [
        {
          "components": [
            {
              "internalType": "uint256",
              "name": "grantAmount",
              "type": "uint256"
            },
            {
              "internalType": "address",
              "name": "recipient",
              "type": "address"
            },
            {
              "internalType": "uint256",
              "name": "startTime",
              "type": "uint256"
            },
            {
              "internalType": "uint256",
              "name": "vestEndTime",
              "type": "uint256"
            },
            {
              "internalType": "uint256",
              "name": "unlockEndTime",
              "type": "uint256"
            },
            {
              "internalType": "uint256",
              "name": "cliff1Time",
              "type": "uint256"
            },
            {
              "internalType": "uint256",
              "name": "cliff2Time",
              "type": "uint256"
            },
            {
              "internalType": "uint256",
              "name": "vestCliff1Amount",
              "type": "uint256"
            },
            {
              "internalType": "uint256",
              "name": "vestCliff2Amount",
              "type": "uint256"
            },
            {
              "internalType": "uint256",
              "name": "unlockCliff1Amount",
              "type": "uint256"
            },
            {
              "internalType": "uint256",
              "name": "unlockCliff2Amount",
              "type": "uint256"
            },
            {
              "internalType": "uint256",
              "name": "claimedAmount",
              "type": "uint256"
            },
            {
              "internalType": "uint256",
              "name": "originalAmount",
              "type": "uint256"
            },
            {
              "internalType": "uint256",
              "name": "lastRevocationTime",
              "type": "uint256"
            },
            {
              "internalType": "uint256",
              "name": "lastQuantityRevoked",
              "type": "uint256"
            },
            {
              "internalType": "bool",
              "name": "exists",
              "type": "bool"
            }
          ],
          "internalType": "struct LockedNORI.TokenGrantDetail",
          "name": "",
          "type": "tuple"
        }
      ],
      "stateMutability": "view",
      "type": "function"
    },
    {
      "inputs": [
        {
          "internalType": "bytes32",
          "name": "role",
          "type": "bytes32"
        }
      ],
      "name": "getRoleAdmin",
      "outputs": [
        {
          "internalType": "bytes32",
          "name": "",
          "type": "bytes32"
        }
      ],
      "stateMutability": "view",
      "type": "function"
    },
    {
      "inputs": [
        {
          "internalType": "bytes32",
          "name": "role",
          "type": "bytes32"
        },
        {
          "internalType": "uint256",
          "name": "index",
          "type": "uint256"
        }
      ],
      "name": "getRoleMember",
      "outputs": [
        {
          "internalType": "address",
          "name": "",
          "type": "address"
        }
      ],
      "stateMutability": "view",
      "type": "function"
    },
    {
      "inputs": [
        {
          "internalType": "bytes32",
          "name": "role",
          "type": "bytes32"
        }
      ],
      "name": "getRoleMemberCount",
      "outputs": [
        {
          "internalType": "uint256",
          "name": "",
          "type": "uint256"
        }
      ],
      "stateMutability": "view",
      "type": "function"
    },
    {
      "inputs": [
        {
          "internalType": "bytes32",
          "name": "role",
          "type": "bytes32"
        },
        {
          "internalType": "address",
          "name": "account",
          "type": "address"
        }
      ],
      "name": "grantRole",
      "outputs": [],
      "stateMutability": "nonpayable",
      "type": "function"
    },
    {
      "inputs": [],
      "name": "granularity",
      "outputs": [
        {
          "internalType": "uint256",
          "name": "",
          "type": "uint256"
        }
      ],
      "stateMutability": "view",
      "type": "function"
    },
    {
      "inputs": [
        {
          "internalType": "bytes32",
          "name": "role",
          "type": "bytes32"
        },
        {
          "internalType": "address",
          "name": "account",
          "type": "address"
        }
      ],
      "name": "hasRole",
      "outputs": [
        {
          "internalType": "bool",
          "name": "",
          "type": "bool"
        }
      ],
      "stateMutability": "view",
      "type": "function"
    },
    {
      "inputs": [
        {
          "internalType": "contract IERC777Upgradeable",
          "name": "bridgedPolygonNoriAddress",
          "type": "address"
        }
      ],
      "name": "initialize",
      "outputs": [],
      "stateMutability": "nonpayable",
      "type": "function"
    },
    {
      "inputs": [
        {
          "internalType": "address",
          "name": "operator",
          "type": "address"
        },
        {
          "internalType": "address",
          "name": "tokenHolder",
          "type": "address"
        }
      ],
      "name": "isOperatorFor",
      "outputs": [
        {
          "internalType": "bool",
          "name": "",
          "type": "bool"
        }
      ],
      "stateMutability": "view",
      "type": "function"
    },
    {
      "inputs": [],
      "name": "name",
      "outputs": [
        {
          "internalType": "string",
          "name": "",
          "type": "string"
        }
      ],
      "stateMutability": "view",
      "type": "function"
    },
    {
      "inputs": [
        {
          "internalType": "address",
          "name": "",
          "type": "address"
        },
        {
          "internalType": "uint256",
          "name": "",
          "type": "uint256"
        },
        {
          "internalType": "bytes",
          "name": "",
          "type": "bytes"
        },
        {
          "internalType": "bytes",
          "name": "",
          "type": "bytes"
        }
      ],
      "name": "operatorBurn",
      "outputs": [],
      "stateMutability": "pure",
      "type": "function"
    },
    {
      "inputs": [
        {
          "internalType": "address",
          "name": "",
          "type": "address"
        },
        {
          "internalType": "address",
          "name": "",
          "type": "address"
        },
        {
          "internalType": "uint256",
          "name": "",
          "type": "uint256"
        },
        {
          "internalType": "bytes",
          "name": "",
          "type": "bytes"
        },
        {
          "internalType": "bytes",
          "name": "",
          "type": "bytes"
        }
      ],
      "name": "operatorSend",
      "outputs": [],
      "stateMutability": "pure",
      "type": "function"
    },
    {
      "inputs": [],
      "name": "pause",
      "outputs": [],
      "stateMutability": "nonpayable",
      "type": "function"
    },
    {
      "inputs": [],
      "name": "paused",
      "outputs": [
        {
          "internalType": "bool",
          "name": "",
          "type": "bool"
        }
      ],
      "stateMutability": "view",
      "type": "function"
    },
    {
      "inputs": [
        {
          "internalType": "address",
          "name": "account",
          "type": "address"
        }
      ],
      "name": "quantityRevokedFrom",
      "outputs": [
        {
          "internalType": "uint256",
          "name": "",
          "type": "uint256"
        }
      ],
      "stateMutability": "view",
      "type": "function"
    },
    {
      "inputs": [
        {
          "internalType": "bytes32",
          "name": "role",
          "type": "bytes32"
        },
        {
          "internalType": "address",
          "name": "account",
          "type": "address"
        }
      ],
      "name": "renounceRole",
      "outputs": [],
      "stateMutability": "nonpayable",
      "type": "function"
    },
    {
      "inputs": [
        {
          "internalType": "address",
          "name": "operator",
          "type": "address"
        }
      ],
      "name": "revokeOperator",
      "outputs": [],
      "stateMutability": "nonpayable",
      "type": "function"
    },
    {
      "inputs": [
        {
          "internalType": "bytes32",
          "name": "role",
          "type": "bytes32"
        },
        {
          "internalType": "address",
          "name": "account",
          "type": "address"
        }
      ],
      "name": "revokeRole",
      "outputs": [],
      "stateMutability": "nonpayable",
      "type": "function"
    },
    {
      "inputs": [
        {
          "internalType": "address",
          "name": "",
          "type": "address"
        },
        {
          "internalType": "uint256",
          "name": "",
          "type": "uint256"
        },
        {
          "internalType": "bytes",
          "name": "",
          "type": "bytes"
        }
      ],
      "name": "send",
      "outputs": [],
      "stateMutability": "pure",
      "type": "function"
    },
    {
      "inputs": [
        {
          "internalType": "bytes4",
          "name": "interfaceId",
          "type": "bytes4"
        }
      ],
      "name": "supportsInterface",
      "outputs": [
        {
          "internalType": "bool",
          "name": "",
          "type": "bool"
        }
      ],
      "stateMutability": "view",
      "type": "function"
    },
    {
      "inputs": [],
      "name": "symbol",
      "outputs": [
        {
          "internalType": "string",
          "name": "",
          "type": "string"
        }
      ],
      "stateMutability": "view",
      "type": "function"
    },
    {
      "inputs": [
        {
          "internalType": "address",
          "name": "sender",
          "type": "address"
        },
        {
          "internalType": "address",
          "name": "",
          "type": "address"
        },
        {
          "internalType": "address",
          "name": "",
          "type": "address"
        },
        {
          "internalType": "uint256",
          "name": "amount",
          "type": "uint256"
        },
        {
          "internalType": "bytes",
          "name": "userData",
          "type": "bytes"
        },
        {
          "internalType": "bytes",
          "name": "operatorData",
          "type": "bytes"
        }
      ],
      "name": "tokensReceived",
      "outputs": [],
      "stateMutability": "nonpayable",
      "type": "function"
    },
    {
      "inputs": [],
      "name": "totalSupply",
      "outputs": [
        {
          "internalType": "uint256",
          "name": "",
          "type": "uint256"
        }
      ],
      "stateMutability": "view",
      "type": "function"
    },
    {
      "inputs": [
        {
          "internalType": "address",
          "name": "",
          "type": "address"
        },
        {
          "internalType": "uint256",
          "name": "",
          "type": "uint256"
        }
      ],
      "name": "transfer",
      "outputs": [
        {
          "internalType": "bool",
          "name": "",
          "type": "bool"
        }
      ],
      "stateMutability": "pure",
      "type": "function"
    },
    {
      "inputs": [
        {
          "internalType": "address",
          "name": "",
          "type": "address"
        },
        {
          "internalType": "address",
          "name": "",
          "type": "address"
        },
        {
          "internalType": "uint256",
          "name": "",
          "type": "uint256"
        }
      ],
      "name": "transferFrom",
      "outputs": [
        {
          "internalType": "bool",
          "name": "",
          "type": "bool"
        }
      ],
      "stateMutability": "pure",
      "type": "function"
    },
    {
      "inputs": [
        {
          "internalType": "address",
          "name": "account",
          "type": "address"
        }
      ],
      "name": "unlockedBalanceOf",
      "outputs": [
        {
          "internalType": "uint256",
          "name": "",
          "type": "uint256"
        }
      ],
      "stateMutability": "view",
      "type": "function"
    },
    {
      "inputs": [],
      "name": "unpause",
      "outputs": [],
      "stateMutability": "nonpayable",
      "type": "function"
    },
    {
      "inputs": [
        {
          "internalType": "address",
          "name": "account",
          "type": "address"
        }
      ],
      "name": "vestedBalanceOf",
      "outputs": [
        {
          "internalType": "uint256",
          "name": "",
          "type": "uint256"
        }
      ],
      "stateMutability": "view",
      "type": "function"
    },
    {
      "inputs": [
        {
          "internalType": "address",
          "name": "recipient",
          "type": "address"
        },
        {
          "internalType": "uint256",
          "name": "amount",
          "type": "uint256"
        }
      ],
      "name": "withdrawTo",
      "outputs": [
        {
          "internalType": "bool",
          "name": "",
          "type": "bool"
        }
      ],
      "stateMutability": "nonpayable",
      "type": "function"
    }
  ],
  "bytecode": "0x608060405234801561001057600080fd5b506166f680620000216000396000f3fe608060405234801561001057600080fd5b50600436106102fe5760003560e01c806370a082311161019c578063a217fddf116100ee578063d95b637111610097578063fad8b32a11610071578063fad8b32a1461071c578063fc673c4f1461072f578063fe9d93031461074257600080fd5b8063d95b63711461069c578063dd62ed3e146106af578063e63ab1e9146106f557600080fd5b8063c4d66de8116100c8578063c4d66de814610663578063ca15c87314610676578063d547741f1461068957600080fd5b8063a217fddf14610628578063a9059cbb14610630578063bf31dbf41461064357600080fd5b8063959b8c3f116101505780639bd9bbc61161012a5780639bd9bbc6146105e25780639e3f3cac146105f55780639f916c211461060857600080fd5b8063959b8c3f146105b457806395d89b41146105c75780639952d6e4146105cf57600080fd5b806384955c881161018157806384955c88146105235780639010d07c1461053657806391d148541461056e57600080fd5b806370a08231146104e55780638456cb591461051b57600080fd5b80632f2ff15d11610255578063521189a91161020957806362ad1b83116101e357806362ad1b8314610498578063633d9be0146104ab57806366cf8bce146104d257600080fd5b8063521189a91461045f578063556f0dc7146104865780635c975abb1461048d57600080fd5b806336568abe1161023a57806336568abe146104245780633f4ba83a14610437578063458c738e1461043f57600080fd5b80632f2ff15d14610402578063313ce5671461041557600080fd5b80630e2d1a2a116102b757806323b872dd1161029157806323b872dd146103b9578063248a9ca3146103cc578063271c6e1a146103ef57600080fd5b80630e2d1a2a1461037d57806318160ddd1461039e578063205c2878146103a657600080fd5b806306e48538116102e857806306e485381461034057806306fdde0314610355578063095ea7b31461036a57600080fd5b806223de291461030357806301ffc9a714610318575b600080fd5b61031661031136600461545a565b610750565b005b61032b61032636600461550b565b61098d565b60405190151581526020015b60405180910390f35b6103486109e9565b604051610337919061559e565b61035d610a58565b6040516103379190615627565b61032b61037836600461563a565b610ae1565b61039061038b366004615666565b610b06565b604051908152602001610337565b603454610390565b61032b6103b436600461563a565b610b12565b61032b6103c7366004615683565b610c54565b6103906103da3660046156c4565b600090815260c9602052604090206001015490565b6103166103fd3660046156dd565b610cb9565b61031661041036600461575c565b610d7d565b60405160128152602001610337565b61031661043236600461575c565b610da7565b610316610e5a565b61045261044d3660046158cc565b610e8f565b6040516103379190615931565b6103907fb281fc8c12954d22544db45de3159a39272895b169a852b314f9cc762e44c53b81565b6001610390565b60655460ff1661032b565b6103166104a63660046159d2565b610f5e565b6103907fa52f07bb8dc8df886598eb50edeaba2b8e45715237ed244354b60ea04d0390b881565b6103166104e0366004615baa565b610fc0565b6103906104f3366004615666565b73ffffffffffffffffffffffffffffffffffffffff1660009081526033602052604090205490565b6103166113a3565b610390610531366004615666565b6113d5565b610549610544366004615c6f565b6113e1565b60405173ffffffffffffffffffffffffffffffffffffffff9091168152602001610337565b61032b61057c36600461575c565b600091825260c96020908152604080842073ffffffffffffffffffffffffffffffffffffffff93909316845291905290205460ff1690565b6103166105c2366004615666565b6113f9565b61035d61140d565b6103166105dd366004615cd6565b61141c565b6103166105f0366004615d86565b6116a0565b610390610603366004615666565b611702565b61061b610616366004615ddf565b61173c565b6040516103379190615ee9565b610390600081565b61032b61063e36600461563a565b611892565b610656610651366004615666565b6118f7565b6040516103379190615f38565b610316610671366004615666565b611a90565b6103906106843660046156c4565b611e4b565b61031661069736600461575c565b611e62565b61032b6106aa366004615f47565b611e87565b6103906106bd366004615f47565b73ffffffffffffffffffffffffffffffffffffffff9182166000908152603b6020908152604080832093909416825291909152205490565b6103907f65d7a28e3265b37a6474929f336521b332c1681b933f6cb9f3376673440d862a81565b61031661072a366004615666565b611f69565b61031661073d366004615f75565b611f7d565b61031661073d366004615ff5565b6101605473ffffffffffffffffffffffffffffffffffffffff163373ffffffffffffffffffffffffffffffffffffffff16146107ed576040517f08c379a000000000000000000000000000000000000000000000000000000000815260206004820152601d60248201527f6c4e4f52493a206e6f742042726964676564506f6c79676f6e4e4f524900000060448201526064015b60405180910390fd5b73ffffffffffffffffffffffffffffffffffffffff881660009081527f38e71761b954262a9560bd5d5724383b6db3c254761096eb4ce389ed02050c60602052604090205460ff166108c1576040517f08c379a000000000000000000000000000000000000000000000000000000000815260206004820152603060248201527f6c4e4f52493a2073656e646572206973206d697373696e6720726f6c6520544f60448201527f4b454e5f4752414e5445525f524f4c450000000000000000000000000000000060648201526084016107e4565b60006108cf84860186615666565b905073ffffffffffffffffffffffffffffffffffffffff8116610974576040517f08c379a000000000000000000000000000000000000000000000000000000000815260206004820152602b60248201527f6c4e4f52493a20746f6b656e2073656e64206d697373696e672072657175697260448201527f656420757365724461746100000000000000000000000000000000000000000060648201526084016107e4565b6109818686868686611fdf565b50505050505050505050565b60007fffffffff0000000000000000000000000000000000000000000000000000000082167f5a05180f0000000000000000000000000000000000000000000000000000000014806109e357506109e38261217b565b92915050565b60606037805480602002602001604051908101604052809291908181526020018280548015610a4e57602002820191906000526020600020905b815473ffffffffffffffffffffffffffffffffffffffff168152600190910190602001808311610a23575b5050505050905090565b606060358054610a679061603c565b80601f0160208091040260200160405190810160405280929190818152602001828054610a939061603c565b8015610a4e5780601f10610ab557610100808354040283529160200191610a4e565b820191906000526020600020905b815481529060010190602001808311610ac357509395945050505050565b6000610aeb612212565b610af58383612281565b610aff83836122e3565b9392505050565b60006109e382426122fb565b33600081815261015f602090815260408083208151808401835284815282519384019092528383529293610b499290918691612409565b610160546040517f9bd9bbc600000000000000000000000000000000000000000000000000000000815273ffffffffffffffffffffffffffffffffffffffff868116600483015260248201869052606060448301526000606483015290911690639bd9bbc690608401600060405180830381600087803b158015610bcc57600080fd5b505af1158015610be0573d6000803e3d6000fd5b505050508281600d016000828254610bf891906160be565b909155505060405183815273ffffffffffffffffffffffffffffffffffffffff85169033907fa86305abc2db271df4609aa86a8d044bc11fb36939841bfdad6c1ab2b26e94719060200160405180910390a35060019392505050565b6040517f08c379a000000000000000000000000000000000000000000000000000000000815260206004820152601c60248201527f6c4e4f52493a207472616e7366657246726f6d2064697361626c65640000000060448201526000906064016107e4565b610cc1612212565b7fa52f07bb8dc8df886598eb50edeaba2b8e45715237ed244354b60ea04d0390b8610ceb81612682565b6040805173ffffffffffffffffffffffffffffffffffffffff8d1660208201529081018b9052606081018a90526080810189905260a0810188905260c0810187905260e08101869052610100810185905261012081018490526101408101839052600090610160016040516020818303038152906040529050610d6e8d8261268c565b50505050505050505050505050565b600082815260c96020526040902060010154610d9881612682565b610da28383612dd6565b505050565b73ffffffffffffffffffffffffffffffffffffffff81163314610e4c576040517f08c379a000000000000000000000000000000000000000000000000000000000815260206004820152602f60248201527f416363657373436f6e74726f6c3a2063616e206f6e6c792072656e6f756e636560448201527f20726f6c657320666f722073656c66000000000000000000000000000000000060648201526084016107e4565b610e568282612dea565b5050565b7f65d7a28e3265b37a6474929f336521b332c1681b933f6cb9f3376673440d862a610e8481612682565b610e8c612dfe565b50565b60606000825167ffffffffffffffff811115610ead57610ead61578c565b604051908082528060200260200182016040528015610ed6578160200160208202803683370190505b50905060005b8351811015610f5757610f2a848281518110610efa57610efa6160d6565b602002602001015173ffffffffffffffffffffffffffffffffffffffff1660009081526033602052604090205490565b828281518110610f3c57610f3c6160d6565b6020908102919091010152610f5081616105565b9050610edc565b5092915050565b6040517f08c379a000000000000000000000000000000000000000000000000000000000815260206004820152601c60248201527f6c4e4f52493a206f70657261746f7253656e642064697361626c65640000000060448201526064016107e4565b8351855114611077576040517f08c379a000000000000000000000000000000000000000000000000000000000815260206004820152604660248201527f4552433737375072657365745061757361626c655065726d697373696f6e656460448201527f3a20726563697069656e7420616e6420616d6f756e74206c656e677468206d6960648201527f736d617463680000000000000000000000000000000000000000000000000000608482015260a4016107e4565b825184511461112e576040517f08c379a000000000000000000000000000000000000000000000000000000000815260206004820152604660248201527f4552433737375072657365745061757361626c655065726d697373696f6e656460448201527f3a20616d6f756e747320616e64207573657244617461206c656e677468206d6960648201527f736d617463680000000000000000000000000000000000000000000000000000608482015260a4016107e4565b81518351146111e5576040517f08c379a000000000000000000000000000000000000000000000000000000000815260206004820152604b60248201527f4552433737375072657365745061757361626c655065726d697373696f6e656460448201527f3a20757365724461746120616e64206f70657261746f7244617461206c656e6760648201527f7468206d69736d61746368000000000000000000000000000000000000000000608482015260a4016107e4565b805182511461129c576040517f08c379a000000000000000000000000000000000000000000000000000000000815260206004820152605660248201527f4552433737375072657365745061757361626c655065726d697373696f6e656460448201527f3a206f70657261746f724461746120616e64207265717569726552656365707460648201527f696f6e41636b206c656e677468206d69736d6174636800000000000000000000608482015260a4016107e4565b60005b855181101561134557611333338783815181106112be576112be6160d6565b60200260200101518784815181106112d8576112d86160d6565b60200260200101518785815181106112f2576112f26160d6565b602002602001015187868151811061130c5761130c6160d6565b6020026020010151878781518110611326576113266160d6565b6020026020010151612e7b565b8061133d81616105565b91505061129f565b503373ffffffffffffffffffffffffffffffffffffffff167fd5865ae34f92a2d6a803fa13140b8165046f54e61e68560b26950c62a668c6b68686868686604051611394959493929190616192565b60405180910390a25050505050565b7f65d7a28e3265b37a6474929f336521b332c1681b933f6cb9f3376673440d862a6113cd81612682565b610e8c612ff5565b60006109e38242613050565b600082815260fb60205260408120610aff9083613167565b611404816000612281565b610e8c81613173565b606060368054610a679061603c565b611424612212565b7fa52f07bb8dc8df886598eb50edeaba2b8e45715237ed244354b60ea04d0390b861144e81612682565b8786146114dd576040517f08c379a000000000000000000000000000000000000000000000000000000000815260206004820152603260248201527f6c4e4f52493a2066726f6d4163636f756e747320616e6420746f4163636f756e60448201527f7473206c656e677468206d69736d61746368000000000000000000000000000060648201526084016107e4565b85841461156c576040517f08c379a000000000000000000000000000000000000000000000000000000000815260206004820152602d60248201527f6c4e4f52493a20746f4163636f756e747320616e6420617454696d6573206c6560448201527f6e677468206d69736d617463680000000000000000000000000000000000000060648201526084016107e4565b8382146115fb576040517f08c379a000000000000000000000000000000000000000000000000000000000815260206004820152602a60248201527f6c4e4f52493a20617454696d657320616e6420616d6f756e7473206c656e677460448201527f68206d69736d617463680000000000000000000000000000000000000000000060648201526084016107e4565b60005b888110156109815761168e8a8a8381811061161b5761161b6160d6565b90506020020160208101906116309190615666565b898984818110611642576116426160d6565b90506020020160208101906116579190615666565b888885818110611669576116696160d6565b90506020020135878786818110611682576116826160d6565b90506020020135613340565b8061169881616105565b9150506115fe565b6040517f08c379a000000000000000000000000000000000000000000000000000000000815260206004820152601460248201527f6c4e4f52493a2073656e642064697361626c656400000000000000000000000060448201526064016107e4565b73ffffffffffffffffffffffffffffffffffffffff8116600090815261015f60205260408120600c810154600e820154610aff9190616227565b606060008267ffffffffffffffff8111156117595761175961578c565b60405190808252806020026020018201604052801561182257816020015b61180f60405180610200016040528060008152602001600073ffffffffffffffffffffffffffffffffffffffff168152602001600081526020016000815260200160008152602001600081526020016000815260200160008152602001600081526020016000815260200160008152602001600081526020016000815260200160008152602001600081526020016000151581525090565b8152602001906001900390816117775790505b50905060005b8381101561188a5761185a858583818110611845576118456160d6565b90506020020160208101906106519190615666565b82828151811061186c5761186c6160d6565b6020026020010181905250808061188290616105565b915050611828565b509392505050565b6040517f08c379a000000000000000000000000000000000000000000000000000000000815260206004820152601860248201527f6c4e4f52493a207472616e736665722064697361626c6564000000000000000060448201526000906064016107e4565b61198f60405180610200016040528060008152602001600073ffffffffffffffffffffffffffffffffffffffff168152602001600081526020016000815260200160008152602001600081526020016000815260200160008152602001600081526020016000815260200160008152602001600081526020016000815260200160008152602001600081526020016000151581525090565b5073ffffffffffffffffffffffffffffffffffffffff16600081815261015f60209081526040808320815161020081018352600c82015481528084019590955260068101548583015260018082015460608701526007820154608087015284805260098201808552838620805460a0890152828752818652848720805460c08a01528780526003850180885286892085015460e08b01528489528752948720830154610100890152820154610120880152948190529390925290910154610140830152600d810154610160830152600e81015461018083015260108101546101a083015260118101546101c0830152600f015460ff1615156101e082015290565b600054610100900460ff1615808015611ab05750600054600160ff909116105b80611aca5750303b158015611aca575060005460ff166001145b611b56576040517f08c379a000000000000000000000000000000000000000000000000000000000815260206004820152602e60248201527f496e697469616c697a61626c653a20636f6e747261637420697320616c72656160448201527f647920696e697469616c697a656400000000000000000000000000000000000060648201526084016107e4565b600080547fffffffffffffffffffffffffffffffffffffffffffffffffffffffffffffff001660011790558015611bb457600080547fffffffffffffffffffffffffffffffffffffffffffffffffffffffffffff00ff166101001790555b604080516001808252818301909252600091602080830190803683370190505090503381600081518110611bea57611bea6160d6565b602002602001019073ffffffffffffffffffffffffffffffffffffffff16908173ffffffffffffffffffffffffffffffffffffffff1681525050611c2c613806565b611c34613806565b611c3c613806565b611c44613806565b611c4c61389d565b611c5461395e565b611cc96040518060400160405280600b81526020017f4c6f636b6564204e4f52490000000000000000000000000000000000000000008152506040518060400160405280600581526020017f6c4e4f524900000000000000000000000000000000000000000000000000000081525083613a2a565b61016080547fffffffffffffffffffffffff00000000000000000000000000000000000000001673ffffffffffffffffffffffffffffffffffffffff85161790556040517f29965a1d00000000000000000000000000000000000000000000000000000000815230600482018190527fb281fc8c12954d22544db45de3159a39272895b169a852b314f9cc762e44c53b60248301526044820152731820a4b7618bde71dce8cdc73aab6c95905fad24906329965a1d90606401600060405180830381600087803b158015611d9c57600080fd5b505af1158015611db0573d6000803e3d6000fd5b50505050611de47fa52f07bb8dc8df886598eb50edeaba2b8e45715237ed244354b60ea04d0390b8611ddf3390565b612dd6565b508015610e5657600080547fffffffffffffffffffffffffffffffffffffffffffffffffffffffffffff00ff169055604051600181527f7f26b83ff96e1f2b6a682f133852f6798a09c465da95921460cefb38474024989060200160405180910390a15050565b600081815260fb602052604081206109e390613cd3565b600082815260c96020526040902060010154611e7d81612682565b610da28383612dea565b60008173ffffffffffffffffffffffffffffffffffffffff168373ffffffffffffffffffffffffffffffffffffffff161480611f26575073ffffffffffffffffffffffffffffffffffffffff831660009081526038602052604090205460ff168015611f26575073ffffffffffffffffffffffffffffffffffffffff8083166000908152603a602090815260408083209387168352929052205460ff16155b80610aff57505073ffffffffffffffffffffffffffffffffffffffff90811660009081526039602090815260408083209490931682529290925290205460ff1690565b611f74816000612281565b610e8c81613cdd565b6040517f08c379a000000000000000000000000000000000000000000000000000000000815260206004820152601c60248201527f6c4e4f52493a206275726e696e67206e6f7420737570706f727465640000000060448201526064016107e4565b600080611fee8587018761623e565b60208101519091501561203b5761203b8787878080601f01602080910402602001604051908101604052809392919081815260200183838082843760009201919091525061268c92505050565b805173ffffffffffffffffffffffffffffffffffffffff16600090815261015f60205260409020600f015460ff166120f5576040517f08c379a000000000000000000000000000000000000000000000000000000000815260206004820152602560248201527f6c4e4f52493a2043616e6e6f74206465706f73697420776974686f757420612060448201527f6772616e7400000000000000000000000000000000000000000000000000000060648201526084016107e4565b61216e81600001518888888080601f01602080910402602001604051908101604052809392919081815260200183838082843760009201919091525050604080516020601f8c018190048102820181019092528a815292508a9150899081908401838280828437600092019190915250613eab92505050565b5060019695505050505050565b60007fffffffff0000000000000000000000000000000000000000000000000000000082167f7965db0b0000000000000000000000000000000000000000000000000000000014806109e357507f01ffc9a7000000000000000000000000000000000000000000000000000000007fffffffff000000000000000000000000000000000000000000000000000000008316146109e3565b60655460ff161561227f576040517f08c379a000000000000000000000000000000000000000000000000000000000815260206004820152601060248201527f5061757361626c653a207061757365640000000000000000000000000000000060448201526064016107e4565b565b6040517f08c379a000000000000000000000000000000000000000000000000000000000815260206004820181905260248201527f6c4e4f52493a206f70657261746f7220616374696f6e732064697361626c656460448201526064016107e4565b6000336122f1818585613ebf565b5060019392505050565b73ffffffffffffffffffffffffffffffffffffffff8216600081815261015f602052604080822090517f70a0823100000000000000000000000000000000000000000000000000000000815260048101939093529091829030906370a0823190602401602060405180830381865afa15801561237b573d6000803e3d6000fd5b505050506040513d601f19601f8201168201806040525081019061239f9190616296565b600f83015490915060ff1615612401576123b885614073565b156123ea57600d8201546123d96123cf84876140b1565b84600c01546140d1565b6123e39190616227565b9050612401565b81600d015482600c01546123fe9190616227565b90505b949350505050565b73ffffffffffffffffffffffffffffffffffffffff84166124ac576040517f08c379a000000000000000000000000000000000000000000000000000000000815260206004820152602260248201527f4552433737373a206275726e2066726f6d20746865207a65726f20616464726560448201527f737300000000000000000000000000000000000000000000000000000000000060648201526084016107e4565b336124bc818660008787876140e7565b6124c98186600087614267565b73ffffffffffffffffffffffffffffffffffffffff85166000908152603360205260409020548481101561257f576040517f08c379a000000000000000000000000000000000000000000000000000000000815260206004820152602360248201527f4552433737373a206275726e20616d6f756e7420657863656564732062616c6160448201527f6e6365000000000000000000000000000000000000000000000000000000000060648201526084016107e4565b73ffffffffffffffffffffffffffffffffffffffff861660009081526033602052604081208683039055603480548792906125bb908490616227565b925050819055508573ffffffffffffffffffffffffffffffffffffffff168273ffffffffffffffffffffffffffffffffffffffff167fa78a9be3a7b862d26933ad85fb11d80ef66b8f972d7cbba06621d583943a4098878787604051612623939291906162af565b60405180910390a360405185815260009073ffffffffffffffffffffffffffffffffffffffff8816907fddf252ad1be2c89b69c2b068fc378daa952ba7f163c4a11628f55a4df523b3ef906020015b60405180910390a3505050505050565b610e8c8133614404565b6000818060200190518101906126a291906162ea565b805190915073ffffffffffffffffffffffffffffffffffffffff16612749576040517f08c379a000000000000000000000000000000000000000000000000000000000815260206004820152602760248201527f6c4e4f52493a20526563697069656e742063616e6e6f74206265207a65726f2060448201527f616464726573730000000000000000000000000000000000000000000000000060648201526084016107e4565b805173ffffffffffffffffffffffffffffffffffffffff1660009081527f38e71761b954262a9560bd5d5724383b6db3c254761096eb4ce389ed02050c60602052604090205460ff161561281f576040517f08c379a000000000000000000000000000000000000000000000000000000000815260206004820152602660248201527f6c4e4f52493a20526563697069656e742063616e6e6f74206265206772616e7460448201527f2061646d696e000000000000000000000000000000000000000000000000000060648201526084016107e4565b80606001518160200151106128b6576040517f08c379a000000000000000000000000000000000000000000000000000000000815260206004820152602f60248201527f6c4e4f52493a20756e6c6f636b456e6454696d652063616e6e6f74206265206260448201527f65666f726520737461727454696d65000000000000000000000000000000000060648201526084016107e4565b80606001514210612949576040517f08c379a000000000000000000000000000000000000000000000000000000000815260206004820152602a60248201527f6c4e4f52493a20756e6c6f636b456e6454696d652063616e6e6f74206265206960448201527f6e2074686520706173740000000000000000000000000000000000000000000060648201526084016107e4565b805173ffffffffffffffffffffffffffffffffffffffff16600090815261015f60205260409020600f015460ff16156129de576040517f08c379a000000000000000000000000000000000000000000000000000000000815260206004820152601b60248201527f6c4e4f52493a204772616e7420616c726561647920657869737473000000000060448201526064016107e4565b805173ffffffffffffffffffffffffffffffffffffffff16600090815261015f6020908152604091829020600c8101869055600e8101869055600f810180547fffffffffffffffffffffffffffffffffffffffffffffffffffffffffffffff00166001179055908301519183015190911015612c1d578161010001518260c00151101580612a7557508161012001518260e0015110155b612adb576040517f08c379a000000000000000000000000000000000000000000000000000000000815260206004820181905260248201527f6c4e4f52493a20756e6c6f636b20636c696666203e207665737420636c69666660448201526064016107e4565b60028101849055602082015181556040808301516001830155608083015160c084015191517fb3ad67d5000000000000000000000000000000000000000000000000000000008152600481018490526024810191909152604481019190915273__$30c4ed824eba57e39cf380aea5f7e56ed7$__9063b3ad67d59060640160006040518083038186803b158015612b7157600080fd5b505af4158015612b85573d6000803e3d6000fd5b5050505060a082015160e08301516040517fb3ad67d5000000000000000000000000000000000000000000000000000000008152600481018490526024810192909252604482015273__$30c4ed824eba57e39cf380aea5f7e56ed7$__9063b3ad67d59060640160006040518083038186803b158015612c0457600080fd5b505af4158015612c18573d6000803e3d6000fd5b505050505b600881018490556020820151600682019081556060830151600783015560808301516101008401516040517fb3ad67d500000000000000000000000000000000000000000000000000000000815260048101939093526024830191909152604482015273__$30c4ed824eba57e39cf380aea5f7e56ed7$__9063b3ad67d59060640160006040518083038186803b158015612cb757600080fd5b505af4158015612ccb573d6000803e3d6000fd5b5050505060a08201516101208301516040517fb3ad67d50000000000000000000000000000000000000000000000000000000081526006840160048201526024810192909252604482015273__$30c4ed824eba57e39cf380aea5f7e56ed7$__9063b3ad67d59060640160006040518083038186803b158015612d4d57600080fd5b505af4158015612d61573d6000803e3d6000fd5b50505050816020015184836000015173ffffffffffffffffffffffffffffffffffffffff167f17161516b6ce34594617177a800b150a86ddee02c06993a73ef000a02367d11985604001518660600151604051612dc8929190918252602082015260400190565b60405180910390a450505050565b612de082826144d6565b610e5682826145c1565b612df482826144d6565b610e5682826145e3565b612e06614605565b606580547fffffffffffffffffffffffffffffffffffffffffffffffffffffffffffffff001690557f5db9ee0a495bf2e6ff9c91a7834c1ba4fdd244a5e8aa4e537bd38aeae4b073aa335b60405173ffffffffffffffffffffffffffffffffffffffff909116815260200160405180910390a1565b73ffffffffffffffffffffffffffffffffffffffff8616612f1e576040517f08c379a000000000000000000000000000000000000000000000000000000000815260206004820152602660248201527f4552433737373a207472616e736665722066726f6d20746865207a65726f206160448201527f646472657373000000000000000000000000000000000000000000000000000060648201526084016107e4565b73ffffffffffffffffffffffffffffffffffffffff8516612fc0576040517f08c379a0000000000000000000000000000000000000000000000000000000008152602060048201526024808201527f4552433737373a207472616e7366657220746f20746865207a65726f2061646460448201527f726573730000000000000000000000000000000000000000000000000000000060648201526084016107e4565b33612fcf8188888888886140e7565b612fdd818888888888614671565b612fec8188888888888861486e565b50505050505050565b612ffd612212565b606580547fffffffffffffffffffffffffffffffffffffffffffffffffffffffffffffff001660011790557f62e78cea01bee320cd4e420270b5ea74000d11b0c9f74754ebdbfc544b05a258612e513390565b73ffffffffffffffffffffffffffffffffffffffff8216600081815261015f602052604080822090517f70a0823100000000000000000000000000000000000000000000000000000000815260048101939093529091829030906370a0823190602401602060405180830381865afa1580156130d0573d6000803e3d6000fd5b505050506040513d601f19601f820116820180604052508101906130f49190616296565b9050600061310186614073565b61310f5782600c0154613119565b61311983866140b1565b600f84015490915060ff161561315e57600d83015461315161314783613142600688018a6140b1565b6140d1565b85600c01546140d1565b61315b9190616227565b91505b50949350505050565b6000610aff8383614ac3565b73ffffffffffffffffffffffffffffffffffffffff81163303613217576040517f08c379a0000000000000000000000000000000000000000000000000000000008152602060048201526024808201527f4552433737373a20617574686f72697a696e672073656c66206173206f70657260448201527f61746f720000000000000000000000000000000000000000000000000000000060648201526084016107e4565b73ffffffffffffffffffffffffffffffffffffffff811660009081526038602052604090205460ff16156132a057336000908152603a6020908152604080832073ffffffffffffffffffffffffffffffffffffffff85168452909152902080547fffffffffffffffffffffffffffffffffffffffffffffffffffffffffffffff001690556132fa565b33600090815260396020908152604080832073ffffffffffffffffffffffffffffffffffffffff85168452909152902080547fffffffffffffffffffffffffffffffffffffffffffffffffffffffffffffff001660011790555b604051339073ffffffffffffffffffffffffffffffffffffffff8316907ff4caeb2d6ca8932a215a353d0703c326ec2d81fc68170f320eb2ab49e9df61f990600090a350565b8115801561334e5750600081115b806133625750600082118015613362575080155b6133ee576040517f08c379a000000000000000000000000000000000000000000000000000000000815260206004820152603b60248201527f6c4e4f52493a204d75737420737065636966792061207265766f636174696f6e60448201527f2074696d65206f7220616e20616d6f756e74206e6f7420626f7468000000000060648201526084016107e4565b73ffffffffffffffffffffffffffffffffffffffff8416600090815261015f60205260409020600f81015460ff16613482576040517f08c379a000000000000000000000000000000000000000000000000000000000815260206004820152601660248201527f6c4e4f52493a206e6f206772616e74206578697374730000000000000000000060448201526064016107e4565b61348b85614073565b613517576040517f08c379a000000000000000000000000000000000000000000000000000000000815260206004820152602960248201527f6c4e4f52493a206e6f2076657374696e67207363686564756c6520666f72207460448201527f686973206772616e74000000000000000000000000000000000000000000000060648201526084016107e4565b6000831580156135275750600083115b6135315783613533565b425b9050428110156135c5576040517f08c379a000000000000000000000000000000000000000000000000000000000815260206004820152602760248201527f6c4e4f52493a205265766f636174696f6e2063616e6e6f7420626520696e207460448201527f686520706173740000000000000000000000000000000000000000000000000060648201526084016107e4565b60006135d183836140b1565b905082600c01548110613640576040517f08c379a000000000000000000000000000000000000000000000000000000000815260206004820152601c60248201527f6c4e4f52493a20746f6b656e7320616c7265616479207665737465640000000060448201526064016107e4565b60008184600c01546136529190616227565b9050600085156136cd57818611156136c6576040517f08c379a000000000000000000000000000000000000000000000000000000000815260206004820152601e60248201527f6c4e4f52493a20746f6f2066657720756e76657374656420746f6b656e73000060448201526064016107e4565b50846136d0565b50805b8085600c01546136e09190616227565b600c860155601085018490556011850181905560408051602080820183526000808352835191820190935291825261371b918b918491612409565b610160546040517f9bd9bbc600000000000000000000000000000000000000000000000000000000815273ffffffffffffffffffffffffffffffffffffffff8a8116600483015260248201849052606060448301526000606483015290911690639bd9bbc690608401600060405180830381600087803b15801561379e57600080fd5b505af11580156137b2573d6000803e3d6000fd5b50505050808973ffffffffffffffffffffffffffffffffffffffff16857f0bbe3f9ae306d75ae6df08cd4a79ac5c6eae93ffae7d7e52f2859bf27592519d60405160405180910390a4505050505050505050565b600054610100900460ff1661227f576040517f08c379a000000000000000000000000000000000000000000000000000000000815260206004820152602b60248201527f496e697469616c697a61626c653a20636f6e7472616374206973206e6f74206960448201527f6e697469616c697a696e6700000000000000000000000000000000000000000060648201526084016107e4565b600054610100900460ff16613934576040517f08c379a000000000000000000000000000000000000000000000000000000000815260206004820152602b60248201527f496e697469616c697a61626c653a20636f6e7472616374206973206e6f74206960448201527f6e697469616c697a696e6700000000000000000000000000000000000000000060648201526084016107e4565b606580547fffffffffffffffffffffffffffffffffffffffffffffffffffffffffffffff00169055565b600054610100900460ff166139f5576040517f08c379a000000000000000000000000000000000000000000000000000000000815260206004820152602b60248201527f496e697469616c697a61626c653a20636f6e7472616374206973206e6f74206960448201527f6e697469616c697a696e6700000000000000000000000000000000000000000060648201526084016107e4565b613a00600033612dd6565b61227f7f65d7a28e3265b37a6474929f336521b332c1681b933f6cb9f3376673440d862a33612dd6565b600054610100900460ff16613ac1576040517f08c379a000000000000000000000000000000000000000000000000000000000815260206004820152602b60248201527f496e697469616c697a61626c653a20636f6e7472616374206973206e6f74206960448201527f6e697469616c697a696e6700000000000000000000000000000000000000000060648201526084016107e4565b6035613acd84826163c6565b506036613ada83826163c6565b508051613aee906037906020840190615350565b5060005b8151811015613b8257600160386000848481518110613b1357613b136160d6565b60209081029190910181015173ffffffffffffffffffffffffffffffffffffffff16825281019190915260400160002080547fffffffffffffffffffffffffffffffffffffffffffffffffffffffffffffff001691151591909117905580613b7a81616105565b915050613af2565b506040517f29965a1d00000000000000000000000000000000000000000000000000000000815230600482018190527fac7fbab5f54a3ca8194167523c6753bfeb96a445279294b6125b68cce217705460248301526044820152731820a4b7618bde71dce8cdc73aab6c95905fad24906329965a1d90606401600060405180830381600087803b158015613c1557600080fd5b505af1158015613c29573d6000803e3d6000fd5b50506040517f29965a1d00000000000000000000000000000000000000000000000000000000815230600482018190527faea199e31a596269b42cdafd93407f14436db6e4cad65417994c2eb37381e05a60248301526044820152731820a4b7618bde71dce8cdc73aab6c95905fad2492506329965a1d9150606401600060405180830381600087803b158015613cbf57600080fd5b505af1158015612fec573d6000803e3d6000fd5b60006109e3825490565b3373ffffffffffffffffffffffffffffffffffffffff821603613d82576040517f08c379a000000000000000000000000000000000000000000000000000000000815260206004820152602160248201527f4552433737373a207265766f6b696e672073656c66206173206f70657261746f60448201527f720000000000000000000000000000000000000000000000000000000000000060648201526084016107e4565b73ffffffffffffffffffffffffffffffffffffffff811660009081526038602052604090205460ff1615613e0e57336000908152603a6020908152604080832073ffffffffffffffffffffffffffffffffffffffff85168452909152902080547fffffffffffffffffffffffffffffffffffffffffffffffffffffffffffffff00166001179055613e65565b33600090815260396020908152604080832073ffffffffffffffffffffffffffffffffffffffff85168452909152902080547fffffffffffffffffffffffffffffffffffffffffffffffffffffffffffffff001690555b604051339073ffffffffffffffffffffffffffffffffffffffff8316907f50546e66e5f44d728365dc3908c63bc5cfeeab470722c1677e3073a6ac294aa190600090a350565b613eb9848484846001614aed565b50505050565b73ffffffffffffffffffffffffffffffffffffffff8316613f62576040517f08c379a000000000000000000000000000000000000000000000000000000000815260206004820152602560248201527f4552433737373a20617070726f76652066726f6d20746865207a65726f20616460448201527f647265737300000000000000000000000000000000000000000000000000000060648201526084016107e4565b73ffffffffffffffffffffffffffffffffffffffff8216614005576040517f08c379a000000000000000000000000000000000000000000000000000000000815260206004820152602360248201527f4552433737373a20617070726f766520746f20746865207a65726f206164647260448201527f657373000000000000000000000000000000000000000000000000000000000060648201526084016107e4565b73ffffffffffffffffffffffffffffffffffffffff8381166000818152603b602090815260408083209487168084529482529182902085905590518481527f8c5be1e5ebec7d5bd14f71427d1e84f3dd0314c0f7b2291e5b200ac8c7c3b925910160405180910390a3505050565b73ffffffffffffffffffffffffffffffffffffffff8116600090815261015f60205260408120600f81015460ff168015610aff575054151592915050565b60006140bd8383614c8e565b6140c78484614d4d565b610aff91906160be565b60008183106140e05781610aff565b5090919050565b6040517faabbb8ca00000000000000000000000000000000000000000000000000000000815273ffffffffffffffffffffffffffffffffffffffff861660048201527f29ddb589b1fb5fc7cf394961c1adf5f8c6454761adf795e67fe149f658abe8956024820152600090731820a4b7618bde71dce8cdc73aab6c95905fad249063aabbb8ca90604401602060405180830381865afa15801561418e573d6000803e3d6000fd5b505050506040513d601f19601f820116820180604052508101906141b291906164e0565b905073ffffffffffffffffffffffffffffffffffffffff811615612fec576040517f75ab978200000000000000000000000000000000000000000000000000000000815273ffffffffffffffffffffffffffffffffffffffff8216906375ab97829061422c908a908a908a908a908a908a906004016164fd565b600060405180830381600087803b15801561424657600080fd5b505af115801561425a573d6000803e3d6000fd5b5050505050505050505050565b73ffffffffffffffffffffffffffffffffffffffff84811660008181527f38e71761b954262a9560bd5d5724383b6db3c254761096eb4ce389ed02050c6060205260408120548684168015948716159360ff90921692911415906142ca886113d5565b86111590508380156142d95750815b80156142e25750825b1561438157856143148973ffffffffffffffffffffffffffffffffffffffff1660009081526033602052604090205490565b101561437c576040517f08c379a000000000000000000000000000000000000000000000000000000000815260206004820152601b60248201527f6c4e4f52493a20696e73756666696369656e742062616c616e6365000000000060448201526064016107e4565b6143ed565b846143ed57806143ed576040517f08c379a000000000000000000000000000000000000000000000000000000000815260206004820152601b60248201527f6c4e4f52493a20696e73756666696369656e742062616c616e6365000000000060448201526064016107e4565b6143f989898989614dc3565b505050505050505050565b600082815260c96020908152604080832073ffffffffffffffffffffffffffffffffffffffff8516845290915290205460ff16610e565761445c8173ffffffffffffffffffffffffffffffffffffffff166014614dd0565b614467836020614dd0565b604051602001614478929190616563565b604080517fffffffffffffffffffffffffffffffffffffffffffffffffffffffffffffffe0818403018152908290527f08c379a00000000000000000000000000000000000000000000000000000000082526107e491600401615627565b6144e08282615013565b7fa52f07bb8dc8df886598eb50edeaba2b8e45715237ed244354b60ea04d0390b88203610e565773ffffffffffffffffffffffffffffffffffffffff8116600090815261015f60205260409020600f015460ff1615610e56576040517f08c379a000000000000000000000000000000000000000000000000000000000815260206004820152603360248201527f6c4e4f52493a2043616e6e6f742061737369676e20726f6c6520746f2061206760448201527f72616e7420686f6c64657220616464726573730000000000000000000000000060648201526084016107e4565b6145cb828261501b565b600082815260fb60205260409020610da2908261510f565b6145ed8282615131565b600082815260fb60205260409020610da290826151ec565b60655460ff1661227f576040517f08c379a000000000000000000000000000000000000000000000000000000000815260206004820152601460248201527f5061757361626c653a206e6f742070617573656400000000000000000000000060448201526064016107e4565b61467d86868686614267565b73ffffffffffffffffffffffffffffffffffffffff851660009081526033602052604090205483811015614733576040517f08c379a000000000000000000000000000000000000000000000000000000000815260206004820152602760248201527f4552433737373a207472616e7366657220616d6f756e7420657863656564732060448201527f62616c616e63650000000000000000000000000000000000000000000000000060648201526084016107e4565b73ffffffffffffffffffffffffffffffffffffffff8087166000908152603360205260408082208785039055918716815290812080548692906147779084906160be565b925050819055508473ffffffffffffffffffffffffffffffffffffffff168673ffffffffffffffffffffffffffffffffffffffff168873ffffffffffffffffffffffffffffffffffffffff167f06b541ddaa720db2b10a4d0cdac39b8d360425fc073085fac19bc826146779878787876040516147f6939291906162af565b60405180910390a48473ffffffffffffffffffffffffffffffffffffffff168673ffffffffffffffffffffffffffffffffffffffff167fddf252ad1be2c89b69c2b068fc378daa952ba7f163c4a11628f55a4df523b3ef8660405161485d91815260200190565b60405180910390a350505050505050565b6040517faabbb8ca00000000000000000000000000000000000000000000000000000000815273ffffffffffffffffffffffffffffffffffffffff861660048201527fb281fc8c12954d22544db45de3159a39272895b169a852b314f9cc762e44c53b6024820152600090731820a4b7618bde71dce8cdc73aab6c95905fad249063aabbb8ca90604401602060405180830381865afa158015614915573d6000803e3d6000fd5b505050506040513d601f19601f8201168201806040525081019061493991906164e0565b905073ffffffffffffffffffffffffffffffffffffffff8116156149e8576040517e23de2900000000000000000000000000000000000000000000000000000000815273ffffffffffffffffffffffffffffffffffffffff8216906223de29906149b1908b908b908b908b908b908b906004016164fd565b600060405180830381600087803b1580156149cb57600080fd5b505af11580156149df573d6000803e3d6000fd5b50505050614ab9565b8115614ab95773ffffffffffffffffffffffffffffffffffffffff86163b15614ab9576040517f08c379a000000000000000000000000000000000000000000000000000000000815260206004820152604d60248201527f4552433737373a20746f6b656e20726563697069656e7420636f6e747261637460448201527f20686173206e6f20696d706c656d656e74657220666f7220455243373737546f60648201527f6b656e73526563697069656e7400000000000000000000000000000000000000608482015260a4016107e4565b5050505050505050565b6000826000018281548110614ada57614ada6160d6565b9060005260206000200154905092915050565b73ffffffffffffffffffffffffffffffffffffffff8516614b6a576040517f08c379a000000000000000000000000000000000000000000000000000000000815260206004820181905260248201527f4552433737373a206d696e7420746f20746865207a65726f206164647265737360448201526064016107e4565b33614b788160008888614267565b8460346000828254614b8a91906160be565b909155505073ffffffffffffffffffffffffffffffffffffffff861660009081526033602052604081208054879290614bc49084906160be565b90915550614bda9050816000888888888861486e565b8573ffffffffffffffffffffffffffffffffffffffff168173ffffffffffffffffffffffffffffffffffffffff167f2fe5be0146f74c5bce36c0b80911af6c7d86ff27e89d5cfa61fc681327954e5d878787604051614c3b939291906162af565b60405180910390a360405185815273ffffffffffffffffffffffffffffffffffffffff8716906000907fddf252ad1be2c89b69c2b068fc378daa952ba7f163c4a11628f55a4df523b3ef90602001612672565b6000808360050154846002015410614cb75783600501548460020154614cb49190616227565b90505b83600101548310614cc95790506109e3565b8354600485015415614d015784600301600060018760040154614cec9190616227565b81526020019081526020016000206000015490505b6000818660010154614d139190616227565b9050818510614d405780614d278387616227565b614d3190856165e4565b614d3b9190616621565b614d43565b60005b9695505050505050565b60048201546000908190815b81811015614dab5760008181526003870160205260409020548510614d99576000818152600387016020526040902060010154614d9690846160be565b92505b80614da381616105565b915050614d59565b50614dba8560020154836140d1565b95945050505050565b614dcb612212565b613eb9565b60606000614ddf8360026165e4565b614dea9060026160be565b67ffffffffffffffff811115614e0257614e0261578c565b6040519080825280601f01601f191660200182016040528015614e2c576020820181803683370190505b5090507f300000000000000000000000000000000000000000000000000000000000000081600081518110614e6357614e636160d6565b60200101907effffffffffffffffffffffffffffffffffffffffffffffffffffffffffffff1916908160001a9053507f780000000000000000000000000000000000000000000000000000000000000081600181518110614ec657614ec66160d6565b60200101907effffffffffffffffffffffffffffffffffffffffffffffffffffffffffffff1916908160001a9053506000614f028460026165e4565b614f0d9060016160be565b90505b6001811115614faa577f303132333435363738396162636465660000000000000000000000000000000085600f1660108110614f4e57614f4e6160d6565b1a60f81b828281518110614f6457614f646160d6565b60200101907effffffffffffffffffffffffffffffffffffffffffffffffffffffffffffff1916908160001a90535060049490941c93614fa38161665c565b9050614f10565b508315610aff576040517f08c379a000000000000000000000000000000000000000000000000000000000815260206004820181905260248201527f537472696e67733a20686578206c656e67746820696e73756666696369656e7460448201526064016107e4565b610e56612212565b600082815260c96020908152604080832073ffffffffffffffffffffffffffffffffffffffff8516845290915290205460ff16610e5657600082815260c96020908152604080832073ffffffffffffffffffffffffffffffffffffffff85168452909152902080547fffffffffffffffffffffffffffffffffffffffffffffffffffffffffffffff001660011790556150b13390565b73ffffffffffffffffffffffffffffffffffffffff168173ffffffffffffffffffffffffffffffffffffffff16837f2f8788117e7eff1d82e926ec794901d17c78024a50270940304540a733656f0d60405160405180910390a45050565b6000610aff8373ffffffffffffffffffffffffffffffffffffffff841661520e565b600082815260c96020908152604080832073ffffffffffffffffffffffffffffffffffffffff8516845290915290205460ff1615610e5657600082815260c96020908152604080832073ffffffffffffffffffffffffffffffffffffffff8516808552925280832080547fffffffffffffffffffffffffffffffffffffffffffffffffffffffffffffff0016905551339285917ff6391f5c32d9c69d2a47ea670b442974b53935d1edc7fd64eb21e047a839171b9190a45050565b6000610aff8373ffffffffffffffffffffffffffffffffffffffff841661525d565b6000818152600183016020526040812054615255575081546001818101845560008481526020808220909301849055845484825282860190935260409020919091556109e3565b5060006109e3565b60008181526001830160205260408120548015615346576000615281600183616227565b855490915060009061529590600190616227565b90508181146152fa5760008660000182815481106152b5576152b56160d6565b90600052602060002001549050808760000184815481106152d8576152d86160d6565b6000918252602080832090910192909255918252600188019052604090208390555b855486908061530b5761530b616691565b6001900381819060005260206000200160009055905585600101600086815260200190815260200160002060009055600193505050506109e3565b60009150506109e3565b8280548282559060005260206000209081019282156153ca579160200282015b828111156153ca57825182547fffffffffffffffffffffffff00000000000000000000000000000000000000001673ffffffffffffffffffffffffffffffffffffffff909116178255602090920191600190910190615370565b506153d69291506153da565b5090565b5b808211156153d657600081556001016153db565b73ffffffffffffffffffffffffffffffffffffffff81168114610e8c57600080fd5b60008083601f84011261542357600080fd5b50813567ffffffffffffffff81111561543b57600080fd5b60208301915083602082850101111561545357600080fd5b9250929050565b60008060008060008060008060c0898b03121561547657600080fd5b8835615481816153ef565b97506020890135615491816153ef565b965060408901356154a1816153ef565b955060608901359450608089013567ffffffffffffffff808211156154c557600080fd5b6154d18c838d01615411565b909650945060a08b01359150808211156154ea57600080fd5b506154f78b828c01615411565b999c989b5096995094979396929594505050565b60006020828403121561551d57600080fd5b81357fffffffff0000000000000000000000000000000000000000000000000000000081168114610aff57600080fd5b600081518084526020808501945080840160005b8381101561559357815173ffffffffffffffffffffffffffffffffffffffff1687529582019590820190600101615561565b509495945050505050565b602081526000610aff602083018461554d565b60005b838110156155cc5781810151838201526020016155b4565b83811115613eb95750506000910152565b600081518084526155f58160208601602086016155b1565b601f017fffffffffffffffffffffffffffffffffffffffffffffffffffffffffffffffe0169290920160200192915050565b602081526000610aff60208301846155dd565b6000806040838503121561564d57600080fd5b8235615658816153ef565b946020939093013593505050565b60006020828403121561567857600080fd5b8135610aff816153ef565b60008060006060848603121561569857600080fd5b83356156a3816153ef565b925060208401356156b3816153ef565b929592945050506040919091013590565b6000602082840312156156d657600080fd5b5035919050565b60008060008060008060008060008060006101608c8e0312156156ff57600080fd5b8b359a5060208c0135615711816153ef565b9a9d9a9c505050506040890135986060810135986080820135985060a0820135975060c0820135965060e0820135955061010082013594506101208201359350610140909101359150565b6000806040838503121561576f57600080fd5b823591506020830135615781816153ef565b809150509250929050565b7f4e487b7100000000000000000000000000000000000000000000000000000000600052604160045260246000fd5b604051610140810167ffffffffffffffff811182821017156157df576157df61578c565b60405290565b604051601f82017fffffffffffffffffffffffffffffffffffffffffffffffffffffffffffffffe016810167ffffffffffffffff8111828210171561582c5761582c61578c565b604052919050565b600067ffffffffffffffff82111561584e5761584e61578c565b5060051b60200190565b600082601f83011261586957600080fd5b8135602061587e61587983615834565b6157e5565b82815260059290921b8401810191818101908684111561589d57600080fd5b8286015b848110156158c15780356158b4816153ef565b83529183019183016158a1565b509695505050505050565b6000602082840312156158de57600080fd5b813567ffffffffffffffff8111156158f557600080fd5b61240184828501615858565b600081518084526020808501945080840160005b8381101561559357815187529582019590820190600101615915565b602081526000610aff6020830184615901565b600082601f83011261595557600080fd5b813567ffffffffffffffff81111561596f5761596f61578c565b6159a060207fffffffffffffffffffffffffffffffffffffffffffffffffffffffffffffffe0601f840116016157e5565b8181528460208386010111156159b557600080fd5b816020850160208301376000918101602001919091529392505050565b600080600080600060a086880312156159ea57600080fd5b85356159f5816153ef565b94506020860135615a05816153ef565b935060408601359250606086013567ffffffffffffffff80821115615a2957600080fd5b615a3589838a01615944565b93506080880135915080821115615a4b57600080fd5b50615a5888828901615944565b9150509295509295909350565b600082601f830112615a7657600080fd5b81356020615a8661587983615834565b82815260059290921b84018101918181019086841115615aa557600080fd5b8286015b848110156158c15780358352918301918301615aa9565b600082601f830112615ad157600080fd5b81356020615ae161587983615834565b82815260059290921b84018101918181019086841115615b0057600080fd5b8286015b848110156158c157803567ffffffffffffffff811115615b245760008081fd5b615b328986838b0101615944565b845250918301918301615b04565b600082601f830112615b5157600080fd5b81356020615b6161587983615834565b82815260059290921b84018101918181019086841115615b8057600080fd5b8286015b848110156158c15780358015158114615b9d5760008081fd5b8352918301918301615b84565b600080600080600060a08688031215615bc257600080fd5b853567ffffffffffffffff80821115615bda57600080fd5b615be689838a01615858565b96506020880135915080821115615bfc57600080fd5b615c0889838a01615a65565b95506040880135915080821115615c1e57600080fd5b615c2a89838a01615ac0565b94506060880135915080821115615c4057600080fd5b615c4c89838a01615ac0565b93506080880135915080821115615c6257600080fd5b50615a5888828901615b40565b60008060408385031215615c8257600080fd5b50508035926020909101359150565b60008083601f840112615ca357600080fd5b50813567ffffffffffffffff811115615cbb57600080fd5b6020830191508360208260051b850101111561545357600080fd5b6000806000806000806000806080898b031215615cf257600080fd5b883567ffffffffffffffff80821115615d0a57600080fd5b615d168c838d01615c91565b909a50985060208b0135915080821115615d2f57600080fd5b615d3b8c838d01615c91565b909850965060408b0135915080821115615d5457600080fd5b615d608c838d01615c91565b909650945060608b0135915080821115615d7957600080fd5b506154f78b828c01615c91565b600080600060608486031215615d9b57600080fd5b8335615da6816153ef565b925060208401359150604084013567ffffffffffffffff811115615dc957600080fd5b615dd586828701615944565b9150509250925092565b60008060208385031215615df257600080fd5b823567ffffffffffffffff811115615e0957600080fd5b615e1585828601615c91565b90969095509350505050565b805182526020810151615e4c602084018273ffffffffffffffffffffffffffffffffffffffff169052565b5060408181015190830152606080820151908301526080808201519083015260a0808201519083015260c0808201519083015260e08082015190830152610100808201519083015261012080820151908301526101408082015190830152610160808201519083015261018080820151908301526101a080820151908301526101c080820151908301526101e08082015180151582850152613eb9565b6020808252825182820181905260009190848201906040850190845b81811015615f2c57615f18838551615e21565b928401926102009290920191600101615f05565b50909695505050505050565b61020081016109e38284615e21565b60008060408385031215615f5a57600080fd5b8235615f65816153ef565b91506020830135615781816153ef565b60008060008060808587031215615f8b57600080fd5b8435615f96816153ef565b935060208501359250604085013567ffffffffffffffff80821115615fba57600080fd5b615fc688838901615944565b93506060870135915080821115615fdc57600080fd5b50615fe987828801615944565b91505092959194509250565b6000806040838503121561600857600080fd5b82359150602083013567ffffffffffffffff81111561602657600080fd5b61603285828601615944565b9150509250929050565b600181811c9082168061605057607f821691505b602082108103616089577f4e487b7100000000000000000000000000000000000000000000000000000000600052602260045260246000fd5b50919050565b7f4e487b7100000000000000000000000000000000000000000000000000000000600052601160045260246000fd5b600082198211156160d1576160d161608f565b500190565b7f4e487b7100000000000000000000000000000000000000000000000000000000600052603260045260246000fd5b60007fffffffffffffffffffffffffffffffffffffffffffffffffffffffffffffffff82036161365761613661608f565b5060010190565b600081518084526020808501808196508360051b8101915082860160005b858110156161855782840389526161738483516155dd565b9885019893509084019060010161615b565b5091979650505050505050565b60a0815260006161a560a083018861554d565b6020838203818501526161b88289615901565b915083820360408501526161cc828861613d565b915083820360608501526161e0828761613d565b8481036080860152855180825282870193509082019060005b818110156162175784511515835293830193918301916001016161f9565b50909a9950505050505050505050565b6000828210156162395761623961608f565b500390565b60006040828403121561625057600080fd5b6040516040810181811067ffffffffffffffff821117156162735761627361578c565b6040528235616281816153ef565b81526020928301359281019290925250919050565b6000602082840312156162a857600080fd5b5051919050565b8381526060602082015260006162c860608301856155dd565b8281036040840152614d4381856155dd565b80516162e5816153ef565b919050565b600061014082840312156162fd57600080fd5b6163056157bb565b61630e836162da565b81526020830151602082015260408301516040820152606083015160608201526080830151608082015260a083015160a082015260c083015160c082015260e083015160e08201526101008084015181830152506101208084015181830152508091505092915050565b601f821115610da257600081815260208120601f850160051c8101602086101561639f5750805b601f850160051c820191505b818110156163be578281556001016163ab565b505050505050565b815167ffffffffffffffff8111156163e0576163e061578c565b6163f4816163ee845461603c565b84616378565b602080601f83116001811461644757600084156164115750858301515b7fffffffffffffffffffffffffffffffffffffffffffffffffffffffffffffffff600386901b1c1916600185901b1785556163be565b6000858152602081207fffffffffffffffffffffffffffffffffffffffffffffffffffffffffffffffe08616915b8281101561649457888601518255948401946001909101908401616475565b50858210156164d057878501517fffffffffffffffffffffffffffffffffffffffffffffffffffffffffffffffff600388901b60f8161c191681555b5050505050600190811b01905550565b6000602082840312156164f257600080fd5b8151610aff816153ef565b600073ffffffffffffffffffffffffffffffffffffffff8089168352808816602084015280871660408401525084606083015260c0608083015261654460c08301856155dd565b82810360a084015261655681856155dd565b9998505050505050505050565b7f416363657373436f6e74726f6c3a206163636f756e742000000000000000000081526000835161659b8160178501602088016155b1565b7f206973206d697373696e6720726f6c652000000000000000000000000000000060179184019182015283516165d88160288401602088016155b1565b01602801949350505050565b6000817fffffffffffffffffffffffffffffffffffffffffffffffffffffffffffffffff048311821515161561661c5761661c61608f565b500290565b600082616657577f4e487b7100000000000000000000000000000000000000000000000000000000600052601260045260246000fd5b500490565b60008161666b5761666b61608f565b507fffffffffffffffffffffffffffffffffffffffffffffffffffffffffffffffff0190565b7f4e487b7100000000000000000000000000000000000000000000000000000000600052603160045260246000fdfea264697066735822122063821728228873bce5d9b447dec8d565bb8f66dd75b8c685d3d10d8e4194a19c64736f6c634300080f0033",
  "linkReferences": {
    "contracts/LockedNORILib.sol": {
      "LockedNORILib": [
        {
          "length": 20,
          "start": 11101
        },
        {
          "length": 20,
          "start": 11248
        },
        {
          "length": 20,
          "start": 11427
        },
        {
          "length": 20,
          "start": 11577
        }
      ]
    }
  },
  "deployedLinkReferences": {
    "contracts/LockedNORILib.sol": {
      "LockedNORILib": [
        {
          "length": 20,
          "start": 11068
        },
        {
          "length": 20,
          "start": 11215
        },
        {
          "length": 20,
          "start": 11394
        },
        {
          "length": 20,
          "start": 11544
        }
      ]
    }
  }
}