{
  "_format": "hh-sol-artifact-1",
  "contractName": "RestrictedNORI",
  "sourceName": "contracts/RestrictedNORI.sol",
  "abi": [
    {
      "inputs": [
        {
          "internalType": "string",
          "name": "array1Name",
          "type": "string"
        },
        {
          "internalType": "string",
          "name": "array2Name",
          "type": "string"
        }
      ],
      "name": "ArrayLengthMismatch",
      "type": "error"
    },
    {
      "inputs": [
        {
          "internalType": "address",
          "name": "account",
          "type": "address"
        },
        {
          "internalType": "uint256",
          "name": "scheduleId",
          "type": "uint256"
        }
      ],
      "name": "InsufficientClaimableBalance",
      "type": "error"
    },
    {
      "inputs": [
        {
          "internalType": "uint256",
          "name": "scheduleId",
          "type": "uint256"
        }
      ],
      "name": "InsufficientUnreleasedTokens",
      "type": "error"
    },
    {
      "inputs": [
        {
          "internalType": "address",
          "name": "account",
          "type": "address"
        }
      ],
      "name": "InvalidBpNoriSender",
      "type": "error"
    },
    {
      "inputs": [],
      "name": "InvalidZeroDuration",
      "type": "error"
    },
    {
      "inputs": [
        {
          "internalType": "uint256",
          "name": "scheduleId",
          "type": "uint256"
        }
      ],
      "name": "NonexistentSchedule",
      "type": "error"
    },
    {
      "inputs": [],
      "name": "RecipientCannotBeZeroAddress",
      "type": "error"
    },
    {
      "inputs": [],
      "name": "TokenSenderNotBPNORI",
      "type": "error"
    },
    {
      "anonymous": false,
      "inputs": [
        {
          "indexed": true,
          "internalType": "address",
          "name": "account",
          "type": "address"
        },
        {
          "indexed": true,
          "internalType": "address",
          "name": "operator",
          "type": "address"
        },
        {
          "indexed": false,
          "internalType": "bool",
          "name": "approved",
          "type": "bool"
        }
      ],
      "name": "ApprovalForAll",
      "type": "event"
    },
    {
      "anonymous": false,
      "inputs": [
        {
          "indexed": false,
          "internalType": "address",
          "name": "account",
          "type": "address"
        }
      ],
      "name": "Paused",
      "type": "event"
    },
    {
      "anonymous": false,
      "inputs": [
        {
          "indexed": true,
          "internalType": "bytes32",
          "name": "role",
          "type": "bytes32"
        },
        {
          "indexed": true,
          "internalType": "bytes32",
          "name": "previousAdminRole",
          "type": "bytes32"
        },
        {
          "indexed": true,
          "internalType": "bytes32",
          "name": "newAdminRole",
          "type": "bytes32"
        }
      ],
      "name": "RoleAdminChanged",
      "type": "event"
    },
    {
      "anonymous": false,
      "inputs": [
        {
          "indexed": true,
          "internalType": "bytes32",
          "name": "role",
          "type": "bytes32"
        },
        {
          "indexed": true,
          "internalType": "address",
          "name": "account",
          "type": "address"
        },
        {
          "indexed": true,
          "internalType": "address",
          "name": "sender",
          "type": "address"
        }
      ],
      "name": "RoleGranted",
      "type": "event"
    },
    {
      "anonymous": false,
      "inputs": [
        {
          "indexed": true,
          "internalType": "bytes32",
          "name": "role",
          "type": "bytes32"
        },
        {
          "indexed": true,
          "internalType": "address",
          "name": "account",
          "type": "address"
        },
        {
          "indexed": true,
          "internalType": "address",
          "name": "sender",
          "type": "address"
        }
      ],
      "name": "RoleRevoked",
      "type": "event"
    },
    {
      "anonymous": false,
      "inputs": [
        {
          "indexed": true,
          "internalType": "uint256",
          "name": "projectId",
          "type": "uint256"
        },
        {
          "indexed": false,
          "internalType": "uint256",
          "name": "startTime",
          "type": "uint256"
        },
        {
          "indexed": false,
          "internalType": "uint256",
          "name": "endTime",
          "type": "uint256"
        }
      ],
      "name": "ScheduleCreated",
      "type": "event"
    },
    {
      "anonymous": false,
      "inputs": [
        {
          "indexed": true,
          "internalType": "address",
          "name": "from",
          "type": "address"
        },
        {
          "indexed": true,
          "internalType": "address",
          "name": "to",
          "type": "address"
        },
        {
          "indexed": true,
          "internalType": "uint256",
          "name": "scheduleId",
          "type": "uint256"
        },
        {
          "indexed": false,
          "internalType": "uint256",
          "name": "quantity",
          "type": "uint256"
        }
      ],
      "name": "TokensClaimed",
      "type": "event"
    },
    {
      "anonymous": false,
      "inputs": [
        {
          "indexed": true,
          "internalType": "uint256",
          "name": "atTime",
          "type": "uint256"
        },
        {
          "indexed": true,
          "internalType": "uint256",
          "name": "removalId",
          "type": "uint256"
        },
        {
          "indexed": true,
          "internalType": "uint256",
          "name": "scheduleId",
          "type": "uint256"
        },
        {
          "indexed": false,
          "internalType": "uint256",
          "name": "quantity",
          "type": "uint256"
        }
      ],
      "name": "TokensRevoked",
      "type": "event"
    },
    {
      "anonymous": false,
      "inputs": [
        {
          "indexed": true,
          "internalType": "address",
          "name": "operator",
          "type": "address"
        },
        {
          "indexed": true,
          "internalType": "address",
          "name": "from",
          "type": "address"
        },
        {
          "indexed": true,
          "internalType": "address",
          "name": "to",
          "type": "address"
        },
        {
          "indexed": false,
          "internalType": "uint256[]",
          "name": "ids",
          "type": "uint256[]"
        },
        {
          "indexed": false,
          "internalType": "uint256[]",
          "name": "values",
          "type": "uint256[]"
        }
      ],
      "name": "TransferBatch",
      "type": "event"
    },
    {
      "anonymous": false,
      "inputs": [
        {
          "indexed": true,
          "internalType": "address",
          "name": "operator",
          "type": "address"
        },
        {
          "indexed": true,
          "internalType": "address",
          "name": "from",
          "type": "address"
        },
        {
          "indexed": true,
          "internalType": "address",
          "name": "to",
          "type": "address"
        },
        {
          "indexed": false,
          "internalType": "uint256",
          "name": "id",
          "type": "uint256"
        },
        {
          "indexed": false,
          "internalType": "uint256",
          "name": "value",
          "type": "uint256"
        }
      ],
      "name": "TransferSingle",
      "type": "event"
    },
    {
      "anonymous": false,
      "inputs": [
        {
          "indexed": false,
          "internalType": "string",
          "name": "value",
          "type": "string"
        },
        {
          "indexed": true,
          "internalType": "uint256",
          "name": "id",
          "type": "uint256"
        }
      ],
      "name": "URI",
      "type": "event"
    },
    {
      "anonymous": false,
      "inputs": [
        {
          "indexed": false,
          "internalType": "address",
          "name": "account",
          "type": "address"
        }
      ],
      "name": "Unpaused",
      "type": "event"
    },
    {
      "inputs": [],
      "name": "DEFAULT_ADMIN_ROLE",
      "outputs": [
        {
          "internalType": "bytes32",
          "name": "",
          "type": "bytes32"
        }
      ],
      "stateMutability": "view",
      "type": "function"
    },
    {
      "inputs": [],
      "name": "ERC777_TOKENS_RECIPIENT_HASH",
      "outputs": [
        {
          "internalType": "bytes32",
          "name": "",
          "type": "bytes32"
        }
      ],
      "stateMutability": "view",
      "type": "function"
    },
    {
      "inputs": [],
      "name": "PAUSER_ROLE",
      "outputs": [
        {
          "internalType": "bytes32",
          "name": "",
          "type": "bytes32"
        }
      ],
      "stateMutability": "view",
      "type": "function"
    },
    {
      "inputs": [],
      "name": "SCHEDULE_CREATOR_ROLE",
      "outputs": [
        {
          "internalType": "bytes32",
          "name": "",
          "type": "bytes32"
        }
      ],
      "stateMutability": "view",
      "type": "function"
    },
    {
      "inputs": [],
      "name": "TOKEN_DEPOSITOR_ROLE",
      "outputs": [
        {
          "internalType": "bytes32",
          "name": "",
          "type": "bytes32"
        }
      ],
      "stateMutability": "view",
      "type": "function"
    },
    {
      "inputs": [],
      "name": "TOKEN_REVOKER_ROLE",
      "outputs": [
        {
          "internalType": "bytes32",
          "name": "",
          "type": "bytes32"
        }
      ],
      "stateMutability": "view",
      "type": "function"
    },
    {
      "inputs": [
        {
          "internalType": "address",
          "name": "account",
          "type": "address"
        },
        {
          "internalType": "uint256",
          "name": "id",
          "type": "uint256"
        }
      ],
      "name": "balanceOf",
      "outputs": [
        {
          "internalType": "uint256",
          "name": "",
          "type": "uint256"
        }
      ],
      "stateMutability": "view",
      "type": "function"
    },
    {
      "inputs": [
        {
          "internalType": "address[]",
          "name": "accounts",
          "type": "address[]"
        },
        {
          "internalType": "uint256[]",
          "name": "ids",
          "type": "uint256[]"
        }
      ],
      "name": "balanceOfBatch",
      "outputs": [
        {
          "internalType": "uint256[]",
          "name": "",
          "type": "uint256[]"
        }
      ],
      "stateMutability": "view",
      "type": "function"
    },
    {
      "inputs": [
        {
          "internalType": "address",
          "name": "account",
          "type": "address"
        },
        {
          "internalType": "uint256[]",
          "name": "scheduleIds",
          "type": "uint256[]"
        }
      ],
      "name": "batchGetScheduleDetailsForAccount",
      "outputs": [
        {
          "components": [
            {
              "internalType": "address",
              "name": "tokenHolder",
              "type": "address"
            },
            {
              "internalType": "uint256",
              "name": "scheduleTokenId",
              "type": "uint256"
            },
            {
              "internalType": "uint256",
              "name": "balance",
              "type": "uint256"
            },
            {
              "internalType": "uint256",
              "name": "claimableAmount",
              "type": "uint256"
            },
            {
              "internalType": "uint256",
              "name": "claimedAmount",
              "type": "uint256"
            },
            {
              "internalType": "uint256",
              "name": "quantityRevoked",
              "type": "uint256"
            }
          ],
          "internalType": "struct RestrictedNORI.ScheduleDetailForAddress[]",
          "name": "",
          "type": "tuple[]"
        }
      ],
      "stateMutability": "view",
      "type": "function"
    },
    {
      "inputs": [
        {
          "internalType": "uint256[]",
          "name": "scheduleIds",
          "type": "uint256[]"
        }
      ],
      "name": "batchGetScheduleSummaries",
      "outputs": [
        {
          "components": [
            {
              "internalType": "uint256",
              "name": "scheduleTokenId",
              "type": "uint256"
            },
            {
              "internalType": "uint256",
              "name": "startTime",
              "type": "uint256"
            },
            {
              "internalType": "uint256",
              "name": "endTime",
              "type": "uint256"
            },
            {
              "internalType": "uint256",
              "name": "totalSupply",
              "type": "uint256"
            },
            {
              "internalType": "uint256",
              "name": "totalClaimableAmount",
              "type": "uint256"
            },
            {
              "internalType": "uint256",
              "name": "totalClaimedAmount",
              "type": "uint256"
            },
            {
              "internalType": "uint256",
              "name": "totalQuantityRevoked",
              "type": "uint256"
            },
            {
              "internalType": "address[]",
              "name": "tokenHolders",
              "type": "address[]"
            },
            {
              "internalType": "bool",
              "name": "exists",
              "type": "bool"
            }
          ],
          "internalType": "struct RestrictedNORI.ScheduleSummary[]",
          "name": "",
          "type": "tuple[]"
        }
      ],
      "stateMutability": "view",
      "type": "function"
    },
    {
      "inputs": [
        {
          "internalType": "address[]",
          "name": "toAccounts",
          "type": "address[]"
        },
        {
          "internalType": "uint256[]",
          "name": "removalIds",
          "type": "uint256[]"
        },
        {
          "internalType": "uint256[]",
          "name": "amounts",
          "type": "uint256[]"
        }
      ],
      "name": "batchRevokeUnreleasedTokenAmounts",
      "outputs": [],
      "stateMutability": "nonpayable",
      "type": "function"
    },
    {
      "inputs": [
        {
          "internalType": "uint256",
          "name": "scheduleId",
          "type": "uint256"
        }
      ],
      "name": "claimableBalanceForSchedule",
      "outputs": [
        {
          "internalType": "uint256",
          "name": "",
          "type": "uint256"
        }
      ],
      "stateMutability": "view",
      "type": "function"
    },
    {
      "inputs": [
        {
          "internalType": "uint256",
          "name": "scheduleId",
          "type": "uint256"
        },
        {
          "internalType": "address",
          "name": "account",
          "type": "address"
        }
      ],
      "name": "claimableBalanceForScheduleForAccount",
      "outputs": [
        {
          "internalType": "uint256",
          "name": "",
          "type": "uint256"
        }
      ],
      "stateMutability": "view",
      "type": "function"
    },
    {
      "inputs": [
        {
          "internalType": "uint256",
          "name": "projectId",
          "type": "uint256"
        }
      ],
      "name": "createSchedule",
      "outputs": [],
      "stateMutability": "nonpayable",
      "type": "function"
    },
    {
      "inputs": [
        {
          "internalType": "uint256",
          "name": "id",
          "type": "uint256"
        }
      ],
      "name": "exists",
      "outputs": [
        {
          "internalType": "bool",
          "name": "",
          "type": "bool"
        }
      ],
      "stateMutability": "view",
      "type": "function"
    },
    {
      "inputs": [],
      "name": "getAllScheduleIds",
      "outputs": [
        {
          "internalType": "uint256[]",
          "name": "",
          "type": "uint256[]"
        }
      ],
      "stateMutability": "view",
      "type": "function"
    },
    {
      "inputs": [
        {
          "internalType": "uint256",
          "name": "methodology",
          "type": "uint256"
        },
        {
          "internalType": "uint256",
          "name": "methodologyVersion",
          "type": "uint256"
        }
      ],
      "name": "getRestrictionDurationForMethodologyAndVersion",
      "outputs": [
        {
          "internalType": "uint256",
          "name": "",
          "type": "uint256"
        }
      ],
      "stateMutability": "view",
      "type": "function"
    },
    {
      "inputs": [
        {
          "internalType": "bytes32",
          "name": "role",
          "type": "bytes32"
        }
      ],
      "name": "getRoleAdmin",
      "outputs": [
        {
          "internalType": "bytes32",
          "name": "",
          "type": "bytes32"
        }
      ],
      "stateMutability": "view",
      "type": "function"
    },
    {
      "inputs": [
        {
          "internalType": "bytes32",
          "name": "role",
          "type": "bytes32"
        },
        {
          "internalType": "uint256",
          "name": "index",
          "type": "uint256"
        }
      ],
      "name": "getRoleMember",
      "outputs": [
        {
          "internalType": "address",
          "name": "",
          "type": "address"
        }
      ],
      "stateMutability": "view",
      "type": "function"
    },
    {
      "inputs": [
        {
          "internalType": "bytes32",
          "name": "role",
          "type": "bytes32"
        }
      ],
      "name": "getRoleMemberCount",
      "outputs": [
        {
          "internalType": "uint256",
          "name": "",
          "type": "uint256"
        }
      ],
      "stateMutability": "view",
      "type": "function"
    },
    {
      "inputs": [
        {
          "internalType": "address",
          "name": "account",
          "type": "address"
        },
        {
          "internalType": "uint256",
          "name": "scheduleId",
          "type": "uint256"
        }
      ],
      "name": "getScheduleDetailForAccount",
      "outputs": [
        {
          "components": [
            {
              "internalType": "address",
              "name": "tokenHolder",
              "type": "address"
            },
            {
              "internalType": "uint256",
              "name": "scheduleTokenId",
              "type": "uint256"
            },
            {
              "internalType": "uint256",
              "name": "balance",
              "type": "uint256"
            },
            {
              "internalType": "uint256",
              "name": "claimableAmount",
              "type": "uint256"
            },
            {
              "internalType": "uint256",
              "name": "claimedAmount",
              "type": "uint256"
            },
            {
              "internalType": "uint256",
              "name": "quantityRevoked",
              "type": "uint256"
            }
          ],
          "internalType": "struct RestrictedNORI.ScheduleDetailForAddress",
          "name": "",
          "type": "tuple"
        }
      ],
      "stateMutability": "view",
      "type": "function"
    },
    {
      "inputs": [
        {
          "internalType": "uint256",
          "name": "scheduleId",
          "type": "uint256"
        }
      ],
      "name": "getScheduleSummary",
      "outputs": [
        {
          "components": [
            {
              "internalType": "uint256",
              "name": "scheduleTokenId",
              "type": "uint256"
            },
            {
              "internalType": "uint256",
              "name": "startTime",
              "type": "uint256"
            },
            {
              "internalType": "uint256",
              "name": "endTime",
              "type": "uint256"
            },
            {
              "internalType": "uint256",
              "name": "totalSupply",
              "type": "uint256"
            },
            {
              "internalType": "uint256",
              "name": "totalClaimableAmount",
              "type": "uint256"
            },
            {
              "internalType": "uint256",
              "name": "totalClaimedAmount",
              "type": "uint256"
            },
            {
              "internalType": "uint256",
              "name": "totalQuantityRevoked",
              "type": "uint256"
            },
            {
              "internalType": "address[]",
              "name": "tokenHolders",
              "type": "address[]"
            },
            {
              "internalType": "bool",
              "name": "exists",
              "type": "bool"
            }
          ],
          "internalType": "struct RestrictedNORI.ScheduleSummary",
          "name": "",
          "type": "tuple"
        }
      ],
      "stateMutability": "view",
      "type": "function"
    },
    {
      "inputs": [
        {
          "internalType": "bytes32",
          "name": "role",
          "type": "bytes32"
        },
        {
          "internalType": "address",
          "name": "account",
          "type": "address"
        }
      ],
      "name": "grantRole",
      "outputs": [],
      "stateMutability": "nonpayable",
      "type": "function"
    },
    {
      "inputs": [
        {
          "internalType": "bytes32",
          "name": "role",
          "type": "bytes32"
        },
        {
          "internalType": "address",
          "name": "account",
          "type": "address"
        }
      ],
      "name": "hasRole",
      "outputs": [
        {
          "internalType": "bool",
          "name": "",
          "type": "bool"
        }
      ],
      "stateMutability": "view",
      "type": "function"
    },
    {
      "inputs": [],
      "name": "initialize",
      "outputs": [],
      "stateMutability": "nonpayable",
      "type": "function"
    },
    {
      "inputs": [
        {
          "internalType": "address",
          "name": "account",
          "type": "address"
        },
        {
          "internalType": "address",
          "name": "operator",
          "type": "address"
        }
      ],
      "name": "isApprovedForAll",
      "outputs": [
        {
          "internalType": "bool",
          "name": "",
          "type": "bool"
        }
      ],
      "stateMutability": "view",
      "type": "function"
    },
    {
      "inputs": [],
      "name": "pause",
      "outputs": [],
      "stateMutability": "nonpayable",
      "type": "function"
    },
    {
      "inputs": [],
      "name": "paused",
      "outputs": [
        {
          "internalType": "bool",
          "name": "",
          "type": "bool"
        }
      ],
      "stateMutability": "view",
      "type": "function"
    },
    {
      "inputs": [
        {
          "internalType": "address",
          "name": "bridgedPolygonNoriAddress",
          "type": "address"
        },
        {
          "internalType": "address",
          "name": "removalAddress",
          "type": "address"
        }
      ],
      "name": "registerContractAddresses",
      "outputs": [],
      "stateMutability": "nonpayable",
      "type": "function"
    },
    {
      "inputs": [
        {
          "internalType": "bytes32",
          "name": "role",
          "type": "bytes32"
        },
        {
          "internalType": "address",
          "name": "account",
          "type": "address"
        }
      ],
      "name": "renounceRole",
      "outputs": [],
      "stateMutability": "nonpayable",
      "type": "function"
    },
    {
      "inputs": [
        {
          "internalType": "uint256",
          "name": "scheduleId",
          "type": "uint256"
        }
      ],
      "name": "revocableQuantityForSchedule",
      "outputs": [
        {
          "internalType": "uint256",
          "name": "",
          "type": "uint256"
        }
      ],
      "stateMutability": "view",
      "type": "function"
    },
    {
      "inputs": [
        {
          "internalType": "bytes32",
          "name": "role",
          "type": "bytes32"
        },
        {
          "internalType": "address",
          "name": "account",
          "type": "address"
        }
      ],
      "name": "revokeRole",
      "outputs": [],
      "stateMutability": "nonpayable",
      "type": "function"
    },
    {
      "inputs": [
        {
          "internalType": "address",
          "name": "from",
          "type": "address"
        },
        {
          "internalType": "address",
          "name": "to",
          "type": "address"
        },
        {
          "internalType": "uint256[]",
          "name": "ids",
          "type": "uint256[]"
        },
        {
          "internalType": "uint256[]",
          "name": "amounts",
          "type": "uint256[]"
        },
        {
          "internalType": "bytes",
          "name": "data",
          "type": "bytes"
        }
      ],
      "name": "safeBatchTransferFrom",
      "outputs": [],
      "stateMutability": "nonpayable",
      "type": "function"
    },
    {
      "inputs": [
        {
          "internalType": "address",
          "name": "from",
          "type": "address"
        },
        {
          "internalType": "address",
          "name": "to",
          "type": "address"
        },
        {
          "internalType": "uint256",
          "name": "id",
          "type": "uint256"
        },
        {
          "internalType": "uint256",
          "name": "amount",
          "type": "uint256"
        },
        {
          "internalType": "bytes",
          "name": "data",
          "type": "bytes"
        }
      ],
      "name": "safeTransferFrom",
      "outputs": [],
      "stateMutability": "nonpayable",
      "type": "function"
    },
    {
      "inputs": [
        {
          "internalType": "address",
          "name": "operator",
          "type": "address"
        },
        {
          "internalType": "bool",
          "name": "approved",
          "type": "bool"
        }
      ],
      "name": "setApprovalForAll",
      "outputs": [],
      "stateMutability": "nonpayable",
      "type": "function"
    },
    {
      "inputs": [
        {
          "internalType": "uint256",
          "name": "methodology",
          "type": "uint256"
        },
        {
          "internalType": "uint256",
          "name": "methodologyVersion",
          "type": "uint256"
        },
        {
          "internalType": "uint256",
          "name": "durationInSeconds",
          "type": "uint256"
        }
      ],
      "name": "setRestrictionDurationForMethodologyAndVersion",
      "outputs": [],
      "stateMutability": "nonpayable",
      "type": "function"
    },
    {
      "inputs": [
        {
          "internalType": "bytes4",
          "name": "interfaceId",
          "type": "bytes4"
        }
      ],
      "name": "supportsInterface",
      "outputs": [
        {
          "internalType": "bool",
          "name": "",
          "type": "bool"
        }
      ],
      "stateMutability": "view",
      "type": "function"
    },
    {
      "inputs": [
        {
          "internalType": "address",
          "name": "",
          "type": "address"
        },
        {
          "internalType": "address",
          "name": "from",
          "type": "address"
        },
        {
          "internalType": "address",
          "name": "",
          "type": "address"
        },
        {
          "internalType": "uint256",
          "name": "amount",
          "type": "uint256"
        },
        {
          "internalType": "bytes",
          "name": "userData",
          "type": "bytes"
        },
        {
          "internalType": "bytes",
          "name": "operatorData",
          "type": "bytes"
        }
      ],
      "name": "tokensReceived",
      "outputs": [],
      "stateMutability": "nonpayable",
      "type": "function"
    },
    {
      "inputs": [
        {
          "internalType": "uint256",
          "name": "id",
          "type": "uint256"
        }
      ],
      "name": "totalSupply",
      "outputs": [
        {
          "internalType": "uint256",
          "name": "",
          "type": "uint256"
        }
      ],
      "stateMutability": "view",
      "type": "function"
    },
    {
      "inputs": [],
      "name": "unpause",
      "outputs": [],
      "stateMutability": "nonpayable",
      "type": "function"
    },
    {
      "inputs": [
        {
          "internalType": "uint256",
          "name": "",
          "type": "uint256"
        }
      ],
      "name": "uri",
      "outputs": [
        {
          "internalType": "string",
          "name": "",
          "type": "string"
        }
      ],
      "stateMutability": "view",
      "type": "function"
    },
    {
      "inputs": [
        {
          "internalType": "address",
          "name": "recipient",
          "type": "address"
        },
        {
          "internalType": "uint256",
          "name": "scheduleId",
          "type": "uint256"
        },
        {
          "internalType": "uint256",
          "name": "amount",
          "type": "uint256"
        }
      ],
      "name": "withdrawFromSchedule",
      "outputs": [
        {
          "internalType": "bool",
          "name": "",
          "type": "bool"
        }
      ],
      "stateMutability": "nonpayable",
      "type": "function"
    }
  ],
  "bytecode": "0x608060405234801561001057600080fd5b506146ed806100206000396000f3fe608060405234801561001057600080fd5b506004361061025c5760003560e01c8063639aa0ad11610146578063a22cb465116100c3578063d547741f11610087578063d547741f146105ef578063e01d739314610602578063e63ab1e914610615578063e985e9c51461062a578063f242432a14610666578063f6f57a2e1461067957600080fd5b8063a22cb4651461056f578063b8b4dbe014610582578063bd85b039146105a9578063c1499fa8146105c9578063ca15c873146105dc57600080fd5b80639010d07c1161010a5780639010d07c146104ea57806391d148541461051557806393ae796d146105285780639ac7b44d1461053b578063a217fddf1461056757600080fd5b8063639aa0ad146104875780636a00f9eb146104a7578063713279b1146104c75780638129fc1c146104da5780638456cb59146104e257600080fd5b80632eb2c2d6116101df5780634f558e79116101a35780634f558e7914610405578063521189a9146104275780635c975abb1461044e5780635d37165a146104595780636235a4e91461046c578063633433461461047f57600080fd5b80632eb2c2d6146103a45780632f2ff15d146103b757806336568abe146103ca5780633f4ba83a146103dd5780634e1273f4146103e557600080fd5b8063229afd6111610226578063229afd6114610306578063248a9ca31461032d57806327ca0c27146103515780632d9f0f16146103645780632e5e8d831461038457600080fd5b806223de2914610261578062fdd58e1461027657806301ffc9a71461029c5780630a517033146102bf5780630e89341c146102e6575b600080fd5b61027461026f366004613747565b61068c565b005b6102896102843660046137f7565b6107a9565b6040519081526020015b60405180910390f35b6102af6102aa366004613839565b610840565b6040519015158152602001610293565b6102897ff9a119238c936e6f3d82da4fb22453b193301ed5112da5462cc202e164e889fd81565b6102f96102f4366004613856565b61084b565b60405161029391906138cb565b6102897fb62aeb2ef35a3718e51a7e8b0b0d8e6fa690a4037bf45dad308976da469a861c81565b61028961033b366004613856565b600090815261012d602052604090206001015490565b6102af61035f3660046138de565b6108df565b610377610372366004613957565b6109fd565b6040516102939190613a47565b610397610392366004613856565b610ab9565b6040516102939190613aa9565b6102746103b2366004613c05565b610c76565b6102746103c5366004613cb2565b610d44565b6102746103d8366004613cb2565b610d70565b610274610dee565b6103f86103f3366004613ce2565b610e12565b6040516102939190613de9565b6102af610413366004613856565b600090815260fb6020526040902054151590565b6102897fb281fc8c12954d22544db45de3159a39272895b169a852b314f9cc762e44c53b81565b60975460ff166102af565b610289610467366004613cb2565b610f26565b61028961047a366004613856565b610fe0565b6103f861103b565b61049a6104953660046137f7565b6110da565b6040516102939190613e3c565b6104ba6104b5366004613e4a565b61116d565b6040516102939190613e8f565b6102896104d5366004613856565b611262565b6102746112b5565b6102746114d7565b6104fd6104f8366004613edd565b6114f8565b6040516001600160a01b039091168152602001610293565b6102af610523366004613cb2565b611511565b610274610536366004613eff565b61153d565b610289610549366004613edd565b60009182526101916020908152604080842092845291905290205490565b610289600081565b61027461057d366004613f2d565b61157a565b6102897f813b9efdf6afe6b57682eb1fb850711edc34da21ae7f7376cb7a391b1be3239f81565b6102896105b7366004613856565b600090815260fb602052604090205490565b6102746105d7366004613f60565b611585565b6102896105ea366004613856565b6115f3565b6102746105fd366004613cb2565b61160b565b610274610610366004613f8c565b611632565b61028960008051602061469883398151915281565b6102af610638366004613eff565b6001600160a01b03918216600090815260666020908152604080832093909416825291909152205460ff1690565b610274610674366004614025565b611748565b610274610687366004613856565b6117a0565b610195546001600160a01b0316336001600160a01b0316146106c157604051634628d20b60e01b815260040160405180910390fd5b6106eb7ff9a119238c936e6f3d82da4fb22453b193301ed5112da5462cc202e164e889fd88611511565b61071857604051630465c5db60e41b81526001600160a01b03881660048201526024015b60405180910390fd5b600061072684860186613856565b905061079d818787878080601f01602080910402602001604051908101604052809392919081815260200183838082843760009201919091525050604080516020601f8b01819004810282018101909252898152925089915088908190840183828082843760009201919091525061181192505050565b50505050505050505050565b60006001600160a01b0383166108155760405162461bcd60e51b815260206004820152602b60248201527f455243313135353a2062616c616e636520717565727920666f7220746865207a60448201526a65726f206164647265737360a81b606482015260840161070f565b5060008181526065602090815260408083206001600160a01b03861684529091529020545b92915050565b600061083a82611980565b60606067805461085a9061408d565b80601f01602080910402602001604051908101604052809291908181526020018280546108869061408d565b80156108d35780601f106108a8576101008083540402835291602001916108d3565b820191906000526020600020905b8154815290600101906020018083116108b657829003601f168201915b50505050509050919050565b60006108ec3384846119a5565b600083815261019260205260408120600281018054919285926109109084906140d7565b9091555050336000908152600882016020526040812080548592906109369084906140d7565b909155505060405183815284906001600160a01b0387169033907fff097c7d8b1957a4ff09ef1361b5fb54dcede3941ba836d0beb9d10bec725de69060200160405180910390a461019554604051634decdde360e11b81526001600160a01b03878116600483015260248201869052606060448301526000606483015290911690639bd9bbc690608401600060405180830381600087803b1580156109da57600080fd5b505af11580156109ee573d6000803e3d6000fd5b50600198975050505050505050565b60606000826001600160401b03811115610a1957610a19613abc565b604051908082528060200260200182016040528015610a5257816020015b610a3f6135c4565b815260200190600190039081610a375790505b50905060005b83811015610ab157610a81858583818110610a7557610a756140ef565b90506020020135610ab9565b828281518110610a9357610a936140ef565b60200260200101819052508080610aa990614105565b915050610a58565b509392505050565b610ac16135c4565b60008281526101926020526040812090610add60068301611b22565b90506000816001600160401b03811115610af957610af9613abc565b604051908082528060200260200182016040528015610b22578160200160208202803683370190505b5090506000826001600160401b03811115610b3f57610b3f613abc565b604051908082528060200260200182016040528015610b68578160200160208202803683370190505b50905060005b610b7a85600601611b22565b811015610bf057610b8e6006860182611b2c565b838281518110610ba057610ba06140ef565b60200260200101906001600160a01b031690816001600160a01b03168152505086828281518110610bd357610bd36140ef565b602090810291909101015280610be881614105565b915050610b6e565b506040518061012001604052808781526020018560000154815260200185600101548152602001610c2d88600090815260fb602052604090205490565b8152602001610c3b88610fe0565b81526002860154602082015260048601546040820152606081019390935260039094015460ff16151560809092019190915250909392505050565b610c838585858585611b38565b60005b8351811015610d3c5760006101926000868481518110610ca857610ca86140ef565b602002602001015181526020019081526020016000209050838281518110610cd257610cd26140ef565b6020026020010151600014610cf057610cee6006820187611bcf565b505b610d1387868481518110610d0657610d066140ef565b60200260200101516107a9565b600003610d2957610d276006820188611be4565b505b5080610d3481614105565b915050610c86565b505050505050565b600082815261012d6020526040902060010154610d618133611bf9565b610d6b8383611c5d565b505050565b6001600160a01b0381163314610de05760405162461bcd60e51b815260206004820152602f60248201527f416363657373436f6e74726f6c3a2063616e206f6e6c792072656e6f756e636560448201526e103937b632b9903337b91039b2b63360891b606482015260840161070f565b610dea8282611c80565b5050565b600080516020614698833981519152610e078133611bf9565b610e0f611ca3565b50565b60608151835114610e775760405162461bcd60e51b815260206004820152602960248201527f455243313135353a206163636f756e747320616e6420696473206c656e677468604482015268040dad2e6dac2e8c6d60bb1b606482015260840161070f565b600083516001600160401b03811115610e9257610e92613abc565b604051908082528060200260200182016040528015610ebb578160200160208202803683370190505b50905060005b8451811015610ab157610ef9858281518110610edf57610edf6140ef565b6020026020010151858381518110610d0657610d066140ef565b828281518110610f0b57610f0b6140ef565b6020908102919091010152610f1f81614105565b9050610ec1565b60008281526101926020526040812060028101548290610f469086611d36565b90506000610f5485876107a9565b90506000821580610f63575081155b15610f7057506000610fd6565b6001600160a01b038616600090815260088501602052604081205490610f9589610fe0565b90508185876002015483610fa991906140d7565b610fb387866140d7565b610fbd919061411e565b610fc7919061413d565b610fd1919061415f565b925050505b9695505050505050565b600081815261019260205260408120600381015460ff16611017576040516325f8781760e01b81526004810184905260240161070f565b806002015461102a848360050154611d4f565b611034919061415f565b9392505050565b6060600061104a610193611b22565b6001600160401b0381111561106157611061613abc565b60405190808252806020026020018201604052801561108a578160200160208202803683370190505b50905060005b81518110156110d4576110a561019382611b2c565b8282815181106110b7576110b76140ef565b6020908102919091010152806110cc81614105565b915050611090565b50919050565b6110e2613612565b60008281526101926020908152604091829020825160c0810184526001600160a01b038716815291820185905291810161111c86866107a9565b815260200161112b8587610f26565b81526001600160a01b03861660008181526008850160209081526040808320548286015292825260099095019094529283902054920191909152905092915050565b6060600082516001600160401b0381111561118a5761118a613abc565b6040519080825280602002602001820160405280156111c357816020015b6111b0613612565b8152602001906001900390816111a85790505b50905060005b8351811015610ab15761019260008583815181106111e9576111e96140ef565b60209081029190910181015182528101919091526040016000206003015460ff16156112505761123285858381518110611225576112256140ef565b60200260200101516110da565b828281518110611244576112446140ef565b60200260200101819052505b8061125a81614105565b9150506111c9565b600081815261019260205260408120600381015460ff16611299576040516325f8781760e01b81526004810184905260240161070f565b6112a7838260050154611d4f565b61102a826002015485611d36565b600054610100900460ff166112d05760005460ff16156112d4565b303b155b6113375760405162461bcd60e51b815260206004820152602e60248201527f496e697469616c697a61626c653a20636f6e747261637420697320616c72656160448201526d191e481a5b9a5d1a585b1a5e995960921b606482015260840161070f565b600054610100900460ff16158015611359576000805461ffff19166101011790555b61137a60405180606001604052806032815260200161462c60329139611d63565b611382611d93565b61138a611d93565b611392611d93565b61139a611d93565b6113a2611dbc565b6113aa611d93565b6113b5600033611def565b6113cd60008051602061469883398151915233611def565b6113f77fb62aeb2ef35a3718e51a7e8b0b0d8e6fa690a4037bf45dad308976da469a861c33611def565b6114217f813b9efdf6afe6b57682eb1fb850711edc34da21ae7f7376cb7a391b1be3239f33611def565b611432600160006312cf3570611585565b6040516329965a1d60e01b815230600482018190527fb281fc8c12954d22544db45de3159a39272895b169a852b314f9cc762e44c53b60248301526044820152731820a4b7618bde71dce8cdc73aab6c95905fad24906329965a1d90606401600060405180830381600087803b1580156114ab57600080fd5b505af11580156114bf573d6000803e3d6000fd5b505050508015610e0f576000805461ff001916905550565b6000805160206146988339815191526114f08133611bf9565b610e0f611df9565b600082815261015f602052604081206110349083611b2c565b600091825261012d602090815260408084206001600160a01b0393909316845291905290205460ff1690565b60006115498133611bf9565b5061019580546001600160a01b039384166001600160a01b0319918216179091556101968054929093169116179055565b610dea338383611e51565b60975460ff16156115a85760405162461bcd60e51b815260040161070f90614176565b60006115b48133611bf9565b816000036115d55760405163263ad04960e21b815260040160405180910390fd5b50600092835261019160209081526040808520938552929052912055565b600081815261015f6020526040812061083a90611b22565b600082815261012d60205260409020600101546116288133611bf9565b610d6b8383611c80565b60975460ff16156116555760405162461bcd60e51b815260040161070f90614176565b7f813b9efdf6afe6b57682eb1fb850711edc34da21ae7f7376cb7a391b1be3239f6116808133611bf9565b8584146116a05760405163616c411360e01b815260040161070f906141a0565b8582146116c05760405163616c411360e01b815260040161070f906141f5565b60005b8681101561173e5761172c8888838181106116e0576116e06140ef565b90506020020160208101906116f59190614247565b878784818110611707576117076140ef565b90506020020135868685818110611720576117206140ef565b90506020020135611f31565b8061173681614105565b9150506116c3565b5050505050505050565b611755858585858561237e565b6000838152610192602052604090208215611779576117776006820186611bcf565b505b61178386856107a9565b600003610d3c576117976006820187611be4565b50505050505050565b60975460ff16156117c35760405162461bcd60e51b815260040161070f90614176565b7fb62aeb2ef35a3718e51a7e8b0b0d8e6fa690a4037bf45dad308976da469a861c6117ee8133611bf9565b6000828152610192602052604090206003015460ff16610dea57610dea82612405565b61019654604051631c1f852760e31b81526004810186905260009182916001600160a01b039091169063e0fc293890602401602060405180830381865afa158015611860573d6000803e3d6000fd5b505050506040513d601f19601f820116820180604052508101906118849190614264565b610196546040516399d5121b60e01b8152600481018390529192506000916001600160a01b03909116906399d5121b90602401608060405180830381865afa1580156118d4573d6000803e3d6000fd5b505050506040513d601f19601f820116820180604052508101906118f8919061427d565b60208082015160008581526101929092526040909120600301549192509060ff16611939576040516325f8781760e01b81526004810184905260240161070f565b61195481848960405180602001604052806000815250612629565b6000838152610192602052604090206119706006820183611bcf565b5060019998505050505050505050565b60006001600160e01b03198216635a05180f60e01b148061083a575061083a82612760565b6001600160a01b038316611a075760405162461bcd60e51b815260206004820152602360248201527f455243313135353a206275726e2066726f6d20746865207a65726f206164647260448201526265737360e81b606482015260840161070f565b33611a3681856000611a1887612785565b611a2187612785565b604051806020016040528060008152506127d0565b60008381526065602090815260408083206001600160a01b038816845290915290205482811015611ab55760405162461bcd60e51b8152602060048201526024808201527f455243313135353a206275726e20616d6f756e7420657863656564732062616c604482015263616e636560e01b606482015260840161070f565b60008481526065602090815260408083206001600160a01b03898116808652918452828520888703905582518981529384018890529092908616917fc3d58168c5ae7397731d063d5bbf3d657854427343f4c083240f7aacaa2d0f62910160405180910390a45050505050565b600061083a825490565b600061103483836128d0565b6001600160a01b038516331480611b545750611b548533610638565b611bbb5760405162461bcd60e51b815260206004820152603260248201527f455243313135353a207472616e736665722063616c6c6572206973206e6f74206044820152711bdddb995c881b9bdc88185c1c1c9bdd995960721b606482015260840161070f565b611bc885858585856128fa565b5050505050565b6000611034836001600160a01b038416612ae0565b6000611034836001600160a01b038416612b2f565b611c038282611511565b610dea57611c1b816001600160a01b03166014612c22565b611c26836020612c22565b604051602001611c379291906142e8565b60408051601f198184030181529082905262461bcd60e51b825261070f916004016138cb565b611c678282612dbd565b600082815261015f60205260409020610d6b9082611bcf565b611c8a8282612e44565b600082815261015f60205260409020610d6b9082611be4565b60975460ff16611cec5760405162461bcd60e51b815260206004820152601460248201527314185d5cd8589b194e881b9bdd081c185d5cd95960621b604482015260640161070f565b6097805460ff191690557f5db9ee0a495bf2e6ff9c91a7834c1ba4fdd244a5e8aa4e537bd38aeae4b073aa335b6040516001600160a01b03909116815260200160405180910390a1565b600081815260fb602052604081205461103490846140d7565b6000611034611d5d84612eac565b83612f3c565b600054610100900460ff16611d8a5760405162461bcd60e51b815260040161070f9061435d565b610e0f81612f53565b600054610100900460ff16611dba5760405162461bcd60e51b815260040161070f9061435d565b565b600054610100900460ff16611de35760405162461bcd60e51b815260040161070f9061435d565b6097805460ff19169055565b610dea8282611c5d565b60975460ff1615611e1c5760405162461bcd60e51b815260040161070f90614176565b6097805460ff191660011790557f62e78cea01bee320cd4e420270b5ea74000d11b0c9f74754ebdbfc544b05a258611d193390565b816001600160a01b0316836001600160a01b031603611ec45760405162461bcd60e51b815260206004820152602960248201527f455243313135353a2073657474696e6720617070726f76616c20737461747573604482015268103337b91039b2b63360b91b606482015260840161070f565b6001600160a01b03838116600081815260666020908152604080832094871680845294825291829020805460ff191686151590811790915591519182527f17307eab39ab6107e8899845ad3d59bd9653f200f220920489ca2b5937696c31910160405180910390a3505050565b61019654604051631c1f852760e31b8152600481018490526000916001600160a01b03169063e0fc293890602401602060405180830381865afa158015611f7c573d6000803e3d6000fd5b505050506040513d601f19601f82011682018060405250810190611fa09190614264565b60008181526101926020526040902060038101549192509060ff16611fdb576040516325f8781760e01b81526004810183905260240161070f565b611fe482611262565b83111561200757604051630c21a50760e31b81526004810183905260240161070f565b600080841161201e5761201983611262565b612020565b835b9050600061203083600601612f66565b9050600081516001600160401b0381111561204d5761204d613abc565b604051908082528060200260200182016040528015612076578160200160208202803683370190505b50905060005b82518110156120b55785828281518110612098576120986140ef565b6020908102919091010152806120ad81614105565b91505061207c565b50600082516001600160401b038111156120d1576120d1613abc565b6040519080825280602002602001820160405280156120fa578160200160208202803683370190505b50905060006121098484610e12565b90506000805b6001865161211d919061415f565b8110156121a4576000612164888b89858151811061213d5761213d6140ef565b6020026020010151878681518110612157576121576140ef565b6020026020010151612f73565b905080858381518110612179576121796140ef565b602090810291909101015261218e81846140d7565b925050808061219c90614105565b91505061210f565b506121af818761415f565b83600187516121be919061415f565b815181106121ce576121ce6140ef565b60200260200101818152505060005b85518110156122a4576122238682815181106121fb576121fb6140ef565b60200260200101518a868481518110612216576122166140ef565b60200260200101516119a5565b838181518110612235576122356140ef565b6020026020010151886009016000888481518110612255576122556140ef565b60200260200101516001600160a01b03166001600160a01b03168152602001908152602001600020600082825461228c91906140d7565b9091555081905061229c81614105565b9150506121dd565b50858760040160008282546122b991906140d7565b92505081905550878a427f4b9948901911c14ff8b417db5004be639f92f11be671b8b85219c5ff809b71ba896040516122f491815260200190565b60405180910390a461019554604051634decdde360e11b81526001600160a01b038d8116600483015260248201899052606060448301526000606483015290911690639bd9bbc690608401600060405180830381600087803b15801561235957600080fd5b505af115801561236d573d6000803e3d6000fd5b505050505050505050505050505050565b6001600160a01b03851633148061239a575061239a8533610638565b6123f85760405162461bcd60e51b815260206004820152602960248201527f455243313135353a2063616c6c6572206973206e6f74206f776e6572206e6f7260448201526808185c1c1c9bdd995960ba1b606482015260840161070f565b611bc88585858585612ff9565b610196546040516399d5121b60e01b8152600481018390526000916001600160a01b0316906399d5121b90602401608060405180830381865afa158015612450573d6000803e3d6000fd5b505050506040513d601f19601f82011682018060405250810190612474919061427d565b80519091506000036124c85760405162461bcd60e51b815260206004820152601860248201527f496e76616c69645363686564756c65537461727454696d650000000000000000604482015260640161070f565b60208101516001600160a01b0381166124f457604051636c38382960e11b815260040160405180910390fd5b61250061019384613111565b61253e5760405162461bcd60e51b815260206004820152600f60248201526e5363686564756c652065786973747360881b604482015260640161070f565b600083815261019260209081526040808320858201516060870151908552610191845282852090855290925282205490918190036125be5760405162461bcd60e51b815260206004820152601c60248201527f5265737472696374696f6e206475726174696f6e206e6f742073657400000000604482015260640161070f565b60038201805460ff1916600117905583518083556125dd9082906140d7565b60018301819055825460408051918252602082019290925286917fc6bf85d136b95579125a47c9781847cacd55015777db8a853dd17946aed35fb2910160405180910390a25050505050565b6001600160a01b0384166126895760405162461bcd60e51b815260206004820152602160248201527f455243313135353a206d696e7420746f20746865207a65726f206164647265736044820152607360f81b606482015260840161070f565b60003390506126af6040518060600160405280603a815260200161465e603a913961311d565b6126ce816000876126bf88612785565b6126c888612785565b876127d0565b60008481526065602090815260408083206001600160a01b0389168452909152812080548592906127009084906140d7565b909155505060408051858152602081018590526001600160a01b0380881692600092918516917fc3d58168c5ae7397731d063d5bbf3d657854427343f4c083240f7aacaa2d0f62910160405180910390a4611bc881600087878787613160565b60006001600160e01b03198216637965db0b60e01b148061083a575061083a826132bb565b604080516001808252818301909252606091600091906020808301908036833701905050905082816000815181106127bf576127bf6140ef565b602090810291909101015292915050565b6001600160a01b0384161560008180156127fb5750876001600160a01b0316876001600160a01b0316145b905081156128c25760005b85518110156128c0576000868281518110612823576128236140ef565b6020026020010151905082156128885761283d818a610f26565b86838151811061284f5761284f6140ef565b602002602001015111156128885760405163e1b8b25f60e01b81526001600160a01b038a1660048201526024810182905260440161070f565b60008181526101926020526040902060058101546128a7908390611d4f565b60059091015550806128b881614105565b915050612806565b505b61173e88888888888861330b565b60008260000182815481106128e7576128e76140ef565b9060005260206000200154905092915050565b815183511461295c5760405162461bcd60e51b815260206004820152602860248201527f455243313135353a2069647320616e6420616d6f756e7473206c656e677468206044820152670dad2e6dac2e8c6d60c31b606482015260840161070f565b6001600160a01b0384166129825760405162461bcd60e51b815260040161070f906143a8565b336129918187878787876127d0565b60005b8451811015612a7a5760008582815181106129b1576129b16140ef565b6020026020010151905060008583815181106129cf576129cf6140ef565b60209081029190910181015160008481526065835260408082206001600160a01b038e168352909352919091205490915081811015612a205760405162461bcd60e51b815260040161070f906143ed565b60008381526065602090815260408083206001600160a01b038e8116855292528083208585039055908b16825281208054849290612a5f9084906140d7565b9250508190555050505080612a7390614105565b9050612994565b50846001600160a01b0316866001600160a01b0316826001600160a01b03167f4a39dc06d4c0dbc64b70af90fd698a233a518aa5d07e595d983b8c0526c8f7fb8787604051612aca929190614437565b60405180910390a4610d3c818787878787613425565b6000818152600183016020526040812054612b275750815460018181018455600084815260208082209093018490558454848252828601909352604090209190915561083a565b50600061083a565b60008181526001830160205260408120548015612c18576000612b5360018361415f565b8554909150600090612b679060019061415f565b9050818114612bcc576000866000018281548110612b8757612b876140ef565b9060005260206000200154905080876000018481548110612baa57612baa6140ef565b6000918252602080832090910192909255918252600188019052604090208390555b8554869080612bdd57612bdd61445c565b60019003818190600052602060002001600090559055856001016000868152602001908152602001600020600090556001935050505061083a565b600091505061083a565b60606000612c3183600261411e565b612c3c9060026140d7565b6001600160401b03811115612c5357612c53613abc565b6040519080825280601f01601f191660200182016040528015612c7d576020820181803683370190505b509050600360fc1b81600081518110612c9857612c986140ef565b60200101906001600160f81b031916908160001a905350600f60fb1b81600181518110612cc757612cc76140ef565b60200101906001600160f81b031916908160001a9053506000612ceb84600261411e565b612cf69060016140d7565b90505b6001811115612d6e576f181899199a1a9b1b9c1cb0b131b232b360811b85600f1660108110612d2a57612d2a6140ef565b1a60f81b828281518110612d4057612d406140ef565b60200101906001600160f81b031916908160001a90535060049490941c93612d6781614472565b9050612cf9565b5083156110345760405162461bcd60e51b815260206004820181905260248201527f537472696e67733a20686578206c656e67746820696e73756666696369656e74604482015260640161070f565b612dc78282611511565b610dea57600082815261012d602090815260408083206001600160a01b03851684529091529020805460ff19166001179055612e003390565b6001600160a01b0316816001600160a01b0316837f2f8788117e7eff1d82e926ec794901d17c78024a50270940304540a733656f0d60405160405180910390a45050565b612e4e8282611511565b15610dea57600082815261012d602090815260408083206001600160a01b0385168085529252808320805460ff1916905551339285917ff6391f5c32d9c69d2a47ea670b442974b53935d1edc7fd64eb21e047a839171b9190a45050565b600081815261019260205260408120600181015482904210612edd5750600083815260fb6020526040902054611034565b81546001830154600091612ef09161415f565b83549091504210612f305782548190612f09904261415f565b612f17856002015488611d36565b612f21919061411e565b612f2b919061413d565b612f33565b60005b95945050505050565b600081831015612f4c5781611034565b5090919050565b8051610dea906067906020840190613651565b60606000611034836134e0565b60008381526101926020526040812060028101548290612f939087611d36565b90506000811580612fa2575087155b15612faf57506000612fee565b6001600160a01b03861660009081526008840160205260409020548289612fd688846140d7565b612fe0919061411e565b612fea919061413d565b9150505b979650505050505050565b6001600160a01b03841661301f5760405162461bcd60e51b815260040161070f906143a8565b3361302f8187876126bf88612785565b60008481526065602090815260408083206001600160a01b038a168452909152902054838110156130725760405162461bcd60e51b815260040161070f906143ed565b60008581526065602090815260408083206001600160a01b038b81168552925280832087850390559088168252812080548692906130b19084906140d7565b909155505060408051868152602081018690526001600160a01b03808916928a821692918616917fc3d58168c5ae7397731d063d5bbf3d657854427343f4c083240f7aacaa2d0f62910160405180910390a4611797828888888888613160565b60006110348383612ae0565b610e0f8160405160240161313191906138cb565b60408051601f198184030181529190526020810180516001600160e01b031663104c13eb60e21b17905261353b565b6001600160a01b0384163b15610d3c5760405163f23a6e6160e01b81526001600160a01b0385169063f23a6e61906131a49089908990889088908890600401614489565b6020604051808303816000875af19250505080156131df575060408051601f3d908101601f191682019092526131dc918101906144c3565b60015b61328b576131eb6144e0565b806308c379a00361322457506131ff6144fc565b8061320a5750613226565b8060405162461bcd60e51b815260040161070f91906138cb565b505b60405162461bcd60e51b815260206004820152603460248201527f455243313135353a207472616e7366657220746f206e6f6e20455243313135356044820152732932b1b2b4bb32b91034b6b83632b6b2b73a32b960611b606482015260840161070f565b6001600160e01b0319811663f23a6e6160e01b146117975760405162461bcd60e51b815260040161070f90614585565b60006001600160e01b03198216636cdb3d1360e11b14806132ec57506001600160e01b031982166303a24d0760e21b145b8061083a57506301ffc9a760e01b6001600160e01b031983161461083a565b61331986868686868661355c565b6001600160a01b0385166133a05760005b835181101561339e57828181518110613345576133456140ef565b602002602001015160fb6000868481518110613363576133636140ef565b60200260200101518152602001908152602001600020600082825461338891906140d7565b90915550613397905081614105565b905061332a565b505b6001600160a01b038416610d3c5760005b8351811015611797578281815181106133cc576133cc6140ef565b602002602001015160fb60008684815181106133ea576133ea6140ef565b60200260200101518152602001908152602001600020600082825461340f919061415f565b9091555061341e905081614105565b90506133b1565b6001600160a01b0384163b15610d3c5760405163bc197c8160e01b81526001600160a01b0385169063bc197c819061346990899089908890889088906004016145cd565b6020604051808303816000875af19250505080156134a4575060408051601f3d908101601f191682019092526134a1918101906144c3565b60015b6134b0576131eb6144e0565b6001600160e01b0319811663bc197c8160e01b146117975760405162461bcd60e51b815260040161070f90614585565b6060816000018054806020026020016040519081016040528092919081815260200182805480156108d357602002820191906000526020600020905b81548152602001906001019080831161351c5750505050509050919050565b80516a636f6e736f6c652e6c6f67602083016000808483855afa5050505050565b60975460ff1615610d3c5760405162461bcd60e51b815260206004820152602c60248201527f455243313135355061757361626c653a20746f6b656e207472616e736665722060448201526b1dda1a5b19481c185d5cd95960a21b606482015260840161070f565b60405180610120016040528060008152602001600081526020016000815260200160008152602001600081526020016000815260200160008152602001606081526020016000151581525090565b6040518060c0016040528060006001600160a01b0316815260200160008152602001600081526020016000815260200160008152602001600081525090565b82805461365d9061408d565b90600052602060002090601f01602090048101928261367f57600085556136c5565b82601f1061369857805160ff19168380011785556136c5565b828001600101855582156136c5579182015b828111156136c55782518255916020019190600101906136aa565b506136d19291506136d5565b5090565b5b808211156136d157600081556001016136d6565b6001600160a01b0381168114610e0f57600080fd5b60008083601f84011261371157600080fd5b5081356001600160401b0381111561372857600080fd5b60208301915083602082850101111561374057600080fd5b9250929050565b60008060008060008060008060c0898b03121561376357600080fd5b883561376e816136ea565b9750602089013561377e816136ea565b9650604089013561378e816136ea565b95506060890135945060808901356001600160401b03808211156137b157600080fd5b6137bd8c838d016136ff565b909650945060a08b01359150808211156137d657600080fd5b506137e38b828c016136ff565b999c989b5096995094979396929594505050565b6000806040838503121561380a57600080fd5b8235613815816136ea565b946020939093013593505050565b6001600160e01b031981168114610e0f57600080fd5b60006020828403121561384b57600080fd5b813561103481613823565b60006020828403121561386857600080fd5b5035919050565b60005b8381101561388a578181015183820152602001613872565b83811115613899576000848401525b50505050565b600081518084526138b781602086016020860161386f565b601f01601f19169290920160200192915050565b602081526000611034602083018461389f565b6000806000606084860312156138f357600080fd5b83356138fe816136ea565b95602085013595506040909401359392505050565b60008083601f84011261392557600080fd5b5081356001600160401b0381111561393c57600080fd5b6020830191508360208260051b850101111561374057600080fd5b6000806020838503121561396a57600080fd5b82356001600160401b0381111561398057600080fd5b61398c85828601613913565b90969095509350505050565b6000610120808401835185526020808501518187015260408501516040870152606085015160608701526080850151608087015260a085015160a087015260c085015160c087015260e08501518360e08801528293508051808452610140880194508282019350600091505b80821015613a2d5783516001600160a01b03168552938201939282019260019190910190613a04565b505050506101009283015115159390920192909252919050565b6000602080830181845280855180835260408601915060408160051b870101925083870160005b82811015613a9c57603f19888603018452613a8a858351613998565b94509285019290850190600101613a6e565b5092979650505050505050565b6020815260006110346020830184613998565b634e487b7160e01b600052604160045260246000fd5b601f8201601f191681016001600160401b0381118282101715613af757613af7613abc565b6040525050565b60006001600160401b03821115613b1757613b17613abc565b5060051b60200190565b600082601f830112613b3257600080fd5b81356020613b3f82613afe565b604051613b4c8282613ad2565b83815260059390931b8501820192828101915086841115613b6c57600080fd5b8286015b84811015613b875780358352918301918301613b70565b509695505050505050565b600082601f830112613ba357600080fd5b81356001600160401b03811115613bbc57613bbc613abc565b604051613bd3601f8301601f191660200182613ad2565b818152846020838601011115613be857600080fd5b816020850160208301376000918101602001919091529392505050565b600080600080600060a08688031215613c1d57600080fd5b8535613c28816136ea565b94506020860135613c38816136ea565b935060408601356001600160401b0380821115613c5457600080fd5b613c6089838a01613b21565b94506060880135915080821115613c7657600080fd5b613c8289838a01613b21565b93506080880135915080821115613c9857600080fd5b50613ca588828901613b92565b9150509295509295909350565b60008060408385031215613cc557600080fd5b823591506020830135613cd7816136ea565b809150509250929050565b60008060408385031215613cf557600080fd5b82356001600160401b0380821115613d0c57600080fd5b818501915085601f830112613d2057600080fd5b81356020613d2d82613afe565b604051613d3a8282613ad2565b83815260059390931b8501820192828101915089841115613d5a57600080fd5b948201945b83861015613d81578535613d72816136ea565b82529482019490820190613d5f565b96505086013592505080821115613d9757600080fd5b50613da485828601613b21565b9150509250929050565b600081518084526020808501945080840160005b83811015613dde57815187529582019590820190600101613dc2565b509495945050505050565b6020815260006110346020830184613dae565b80516001600160a01b031682526020808201519083015260408082015190830152606080820151908301526080808201519083015260a090810151910152565b60c0810161083a8284613dfc565b60008060408385031215613e5d57600080fd5b8235613e68816136ea565b915060208301356001600160401b03811115613e8357600080fd5b613da485828601613b21565b6020808252825182820181905260009190848201906040850190845b81811015613ed157613ebe838551613dfc565b9284019260c09290920191600101613eab565b50909695505050505050565b60008060408385031215613ef057600080fd5b50508035926020909101359150565b60008060408385031215613f1257600080fd5b8235613f1d816136ea565b91506020830135613cd7816136ea565b60008060408385031215613f4057600080fd5b8235613f4b816136ea565b915060208301358015158114613cd757600080fd5b600080600060608486031215613f7557600080fd5b505081359360208301359350604090920135919050565b60008060008060008060608789031215613fa557600080fd5b86356001600160401b0380821115613fbc57600080fd5b613fc88a838b01613913565b90985096506020890135915080821115613fe157600080fd5b613fed8a838b01613913565b9096509450604089013591508082111561400657600080fd5b5061401389828a01613913565b979a9699509497509295939492505050565b600080600080600060a0868803121561403d57600080fd5b8535614048816136ea565b94506020860135614058816136ea565b9350604086013592506060860135915060808601356001600160401b0381111561408157600080fd5b613ca588828901613b92565b600181811c908216806140a157607f821691505b6020821081036110d457634e487b7160e01b600052602260045260246000fd5b634e487b7160e01b600052601160045260246000fd5b600082198211156140ea576140ea6140c1565b500190565b634e487b7160e01b600052603260045260246000fd5b600060018201614117576141176140c1565b5060010190565b6000816000190483118215151615614138576141386140c1565b500290565b60008261415a57634e487b7160e01b600052601260045260246000fd5b500490565b600082821015614171576141716140c1565b500390565b60208082526010908201526f14185d5cd8589b194e881c185d5cd95960821b604082015260600190565b6040815260006141cc60408301600c81526b66726f6d4163636f756e747360a01b602082015260400190565b828103602093840152600a81526972656d6f76616c49647360b01b928101929092525060400190565b60408152600061422160408301600c81526b66726f6d4163636f756e747360a01b602082015260400190565b8281036020938401526007815266616d6f756e747360c81b928101929092525060400190565b60006020828403121561425957600080fd5b8135611034816136ea565b60006020828403121561427657600080fd5b5051919050565b60006080828403121561428f57600080fd5b604051608081018181106001600160401b03821117156142b1576142b1613abc565b6040528251815260208301516142c6816136ea565b6020820152604083810151908201526060928301519281019290925250919050565b7f416363657373436f6e74726f6c3a206163636f756e742000000000000000000081526000835161432081601785016020880161386f565b7001034b99036b4b9b9b4b733903937b6329607d1b601791840191820152835161435181602884016020880161386f565b01602801949350505050565b6020808252602b908201527f496e697469616c697a61626c653a20636f6e7472616374206973206e6f74206960408201526a6e697469616c697a696e6760a81b606082015260800190565b60208082526025908201527f455243313135353a207472616e7366657220746f20746865207a65726f206164604082015264647265737360d81b606082015260800190565b6020808252602a908201527f455243313135353a20696e73756666696369656e742062616c616e636520666f60408201526939103a3930b739b332b960b11b606082015260800190565b60408152600061444a6040830185613dae565b8281036020840152612f338185613dae565b634e487b7160e01b600052603160045260246000fd5b600081614481576144816140c1565b506000190190565b6001600160a01b03868116825285166020820152604081018490526060810183905260a060808201819052600090612fee9083018461389f565b6000602082840312156144d557600080fd5b815161103481613823565b600060033d11156144f95760046000803e5060005160e01c5b90565b600060443d101561450a5790565b6040516003193d81016004833e81513d6001600160401b03816024840111818411171561453957505050505090565b82850191508151818111156145515750505050505090565b843d870101602082850101111561456b5750505050505090565b61457a60208286010187613ad2565b509095945050505050565b60208082526028908201527f455243313135353a204552433131353552656365697665722072656a656374656040820152676420746f6b656e7360c01b606082015260800190565b6001600160a01b0386811682528516602082015260a0604082018190526000906145f990830186613dae565b828103606084015261460b8186613dae565b9050828103608084015261461f818561389f565b9897505050505050505056fe68747470733a2f2f6e6f72692e636f6d2f6170692f7265737472696374696f6e7363686564756c652f7b69647d2e6a736f6e696e7369646520455243313135357570677261646561626c65205f6d696e74206265666f7265206265666f7265546f6b656e5472616e7366657265d7a28e3265b37a6474929f336521b332c1681b933f6cb9f3376673440d862aa26469706673582212201dde6ad4cd2caf5dfcd3ff650383ba37cf2ee86fd756968d88b00273e812f67164736f6c634300080d0033",
  "linkReferences": {},
  "deployedLinkReferences": {}
}