{
  "_format": "hh-sol-artifact-1",
  "contractName": "RestrictedNORI",
  "sourceName": "contracts/RestrictedNORI.sol",
  "abi": [
    {
      "inputs": [],
      "stateMutability": "nonpayable",
      "type": "constructor"
    },
    {
      "inputs": [
        {
          "internalType": "address",
          "name": "account",
          "type": "address"
        },
        {
          "internalType": "uint256",
          "name": "scheduleId",
          "type": "uint256"
        }
      ],
      "name": "InsufficientClaimableBalance",
      "type": "error"
    },
    {
      "inputs": [
        {
          "internalType": "uint256",
          "name": "scheduleId",
          "type": "uint256"
        }
      ],
      "name": "InsufficientUnreleasedTokens",
      "type": "error"
    },
    {
      "inputs": [
        {
          "internalType": "address",
          "name": "account",
          "type": "address"
        }
      ],
      "name": "InvalidMinter",
      "type": "error"
    },
    {
      "inputs": [],
      "name": "InvalidZeroDuration",
      "type": "error"
    },
    {
      "inputs": [
        {
          "internalType": "uint256",
          "name": "scheduleId",
          "type": "uint256"
        }
      ],
      "name": "NonexistentSchedule",
      "type": "error"
    },
    {
      "inputs": [],
      "name": "RecipientCannotBeZeroAddress",
      "type": "error"
    },
    {
      "inputs": [],
      "name": "TokenSenderNotBPNORI",
      "type": "error"
    },
    {
      "anonymous": false,
      "inputs": [
        {
          "indexed": true,
          "internalType": "address",
          "name": "account",
          "type": "address"
        },
        {
          "indexed": true,
          "internalType": "address",
          "name": "operator",
          "type": "address"
        },
        {
          "indexed": false,
          "internalType": "bool",
          "name": "approved",
          "type": "bool"
        }
      ],
      "name": "ApprovalForAll",
      "type": "event"
    },
    {
      "anonymous": false,
      "inputs": [
        {
          "indexed": false,
          "internalType": "uint8",
          "name": "version",
          "type": "uint8"
        }
      ],
      "name": "Initialized",
      "type": "event"
    },
    {
      "anonymous": false,
      "inputs": [
        {
          "indexed": false,
          "internalType": "address",
          "name": "account",
          "type": "address"
        }
      ],
      "name": "Paused",
      "type": "event"
    },
    {
      "anonymous": false,
      "inputs": [
        {
          "indexed": true,
          "internalType": "bytes32",
          "name": "role",
          "type": "bytes32"
        },
        {
          "indexed": true,
          "internalType": "bytes32",
          "name": "previousAdminRole",
          "type": "bytes32"
        },
        {
          "indexed": true,
          "internalType": "bytes32",
          "name": "newAdminRole",
          "type": "bytes32"
        }
      ],
      "name": "RoleAdminChanged",
      "type": "event"
    },
    {
      "anonymous": false,
      "inputs": [
        {
          "indexed": true,
          "internalType": "bytes32",
          "name": "role",
          "type": "bytes32"
        },
        {
          "indexed": true,
          "internalType": "address",
          "name": "account",
          "type": "address"
        },
        {
          "indexed": true,
          "internalType": "address",
          "name": "sender",
          "type": "address"
        }
      ],
      "name": "RoleGranted",
      "type": "event"
    },
    {
      "anonymous": false,
      "inputs": [
        {
          "indexed": true,
          "internalType": "bytes32",
          "name": "role",
          "type": "bytes32"
        },
        {
          "indexed": true,
          "internalType": "address",
          "name": "account",
          "type": "address"
        },
        {
          "indexed": true,
          "internalType": "address",
          "name": "sender",
          "type": "address"
        }
      ],
      "name": "RoleRevoked",
      "type": "event"
    },
    {
      "anonymous": false,
      "inputs": [
        {
          "indexed": true,
          "internalType": "uint256",
          "name": "projectId",
          "type": "uint256"
        },
        {
          "indexed": false,
          "internalType": "uint256",
          "name": "startTime",
          "type": "uint256"
        },
        {
          "indexed": false,
          "internalType": "uint256",
          "name": "endTime",
          "type": "uint256"
        }
      ],
      "name": "ScheduleCreated",
      "type": "event"
    },
    {
      "anonymous": false,
      "inputs": [
        {
          "indexed": true,
          "internalType": "address",
          "name": "from",
          "type": "address"
        },
        {
          "indexed": true,
          "internalType": "address",
          "name": "to",
          "type": "address"
        },
        {
          "indexed": true,
          "internalType": "uint256",
          "name": "scheduleId",
          "type": "uint256"
        },
        {
          "indexed": false,
          "internalType": "uint256",
          "name": "quantity",
          "type": "uint256"
        }
      ],
      "name": "TokensClaimed",
      "type": "event"
    },
    {
      "anonymous": false,
      "inputs": [
        {
          "indexed": true,
          "internalType": "uint256",
          "name": "atTime",
          "type": "uint256"
        },
        {
          "indexed": true,
          "internalType": "uint256",
          "name": "scheduleId",
          "type": "uint256"
        },
        {
          "indexed": false,
          "internalType": "uint256",
          "name": "quantity",
          "type": "uint256"
        },
        {
          "indexed": false,
          "internalType": "address[]",
          "name": "scheduleOwners",
          "type": "address[]"
        },
        {
          "indexed": false,
          "internalType": "uint256[]",
          "name": "quantitiesBurned",
          "type": "uint256[]"
        }
      ],
      "name": "TokensRevoked",
      "type": "event"
    },
    {
      "anonymous": false,
      "inputs": [
        {
          "indexed": true,
          "internalType": "address",
          "name": "operator",
          "type": "address"
        },
        {
          "indexed": true,
          "internalType": "address",
          "name": "from",
          "type": "address"
        },
        {
          "indexed": true,
          "internalType": "address",
          "name": "to",
          "type": "address"
        },
        {
          "indexed": false,
          "internalType": "uint256[]",
          "name": "ids",
          "type": "uint256[]"
        },
        {
          "indexed": false,
          "internalType": "uint256[]",
          "name": "values",
          "type": "uint256[]"
        }
      ],
      "name": "TransferBatch",
      "type": "event"
    },
    {
      "anonymous": false,
      "inputs": [
        {
          "indexed": true,
          "internalType": "address",
          "name": "operator",
          "type": "address"
        },
        {
          "indexed": true,
          "internalType": "address",
          "name": "from",
          "type": "address"
        },
        {
          "indexed": true,
          "internalType": "address",
          "name": "to",
          "type": "address"
        },
        {
          "indexed": false,
          "internalType": "uint256",
          "name": "id",
          "type": "uint256"
        },
        {
          "indexed": false,
          "internalType": "uint256",
          "name": "value",
          "type": "uint256"
        }
      ],
      "name": "TransferSingle",
      "type": "event"
    },
    {
      "anonymous": false,
      "inputs": [
        {
          "indexed": false,
          "internalType": "string",
          "name": "value",
          "type": "string"
        },
        {
          "indexed": true,
          "internalType": "uint256",
          "name": "id",
          "type": "uint256"
        }
      ],
      "name": "URI",
      "type": "event"
    },
    {
      "anonymous": false,
      "inputs": [
        {
          "indexed": false,
          "internalType": "address",
          "name": "account",
          "type": "address"
        }
      ],
      "name": "Unpaused",
      "type": "event"
    },
    {
      "inputs": [],
      "name": "DEFAULT_ADMIN_ROLE",
      "outputs": [
        {
          "internalType": "bytes32",
          "name": "",
          "type": "bytes32"
        }
      ],
      "stateMutability": "view",
      "type": "function"
    },
    {
      "inputs": [],
      "name": "MINTER_ROLE",
      "outputs": [
        {
          "internalType": "bytes32",
          "name": "",
          "type": "bytes32"
        }
      ],
      "stateMutability": "view",
      "type": "function"
    },
    {
      "inputs": [],
      "name": "PAUSER_ROLE",
      "outputs": [
        {
          "internalType": "bytes32",
          "name": "",
          "type": "bytes32"
        }
      ],
      "stateMutability": "view",
      "type": "function"
    },
    {
      "inputs": [],
      "name": "SCHEDULE_CREATOR_ROLE",
      "outputs": [
        {
          "internalType": "bytes32",
          "name": "",
          "type": "bytes32"
        }
      ],
      "stateMutability": "view",
      "type": "function"
    },
    {
      "inputs": [],
      "name": "TOKEN_REVOKER_ROLE",
      "outputs": [
        {
          "internalType": "bytes32",
          "name": "",
          "type": "bytes32"
        }
      ],
      "stateMutability": "view",
      "type": "function"
    },
    {
      "inputs": [
        {
          "internalType": "address",
          "name": "account",
          "type": "address"
        },
        {
          "internalType": "uint256",
          "name": "id",
          "type": "uint256"
        }
      ],
      "name": "balanceOf",
      "outputs": [
        {
          "internalType": "uint256",
          "name": "",
          "type": "uint256"
        }
      ],
      "stateMutability": "view",
      "type": "function"
    },
    {
      "inputs": [
        {
          "internalType": "address[]",
          "name": "accounts",
          "type": "address[]"
        },
        {
          "internalType": "uint256[]",
          "name": "ids",
          "type": "uint256[]"
        }
      ],
      "name": "balanceOfBatch",
      "outputs": [
        {
          "internalType": "uint256[]",
          "name": "",
          "type": "uint256[]"
        }
      ],
      "stateMutability": "view",
      "type": "function"
    },
    {
      "inputs": [
        {
          "internalType": "address",
          "name": "account",
          "type": "address"
        },
        {
          "internalType": "uint256[]",
          "name": "scheduleIds",
          "type": "uint256[]"
        }
      ],
      "name": "batchGetScheduleDetailsForAccount",
      "outputs": [
        {
          "components": [
            {
              "internalType": "address",
              "name": "tokenHolder",
              "type": "address"
            },
            {
              "internalType": "uint256",
              "name": "scheduleTokenId",
              "type": "uint256"
            },
            {
              "internalType": "uint256",
              "name": "balance",
              "type": "uint256"
            },
            {
              "internalType": "uint256",
              "name": "claimableAmount",
              "type": "uint256"
            },
            {
              "internalType": "uint256",
              "name": "claimedAmount",
              "type": "uint256"
            },
            {
              "internalType": "uint256",
              "name": "quantityRevoked",
              "type": "uint256"
            }
          ],
          "internalType": "struct RestrictedNORI.ScheduleDetailForAddress[]",
          "name": "",
          "type": "tuple[]"
        }
      ],
      "stateMutability": "view",
      "type": "function"
    },
    {
      "inputs": [
        {
          "internalType": "uint256[]",
          "name": "scheduleIds",
          "type": "uint256[]"
        }
      ],
      "name": "batchGetScheduleSummaries",
      "outputs": [
        {
          "components": [
            {
              "internalType": "uint256",
              "name": "scheduleTokenId",
              "type": "uint256"
            },
            {
              "internalType": "uint256",
              "name": "startTime",
              "type": "uint256"
            },
            {
              "internalType": "uint256",
              "name": "endTime",
              "type": "uint256"
            },
            {
              "internalType": "uint256",
              "name": "totalSupply",
              "type": "uint256"
            },
            {
              "internalType": "uint256",
              "name": "totalClaimableAmount",
              "type": "uint256"
            },
            {
              "internalType": "uint256",
              "name": "totalClaimedAmount",
              "type": "uint256"
            },
            {
              "internalType": "uint256",
              "name": "totalQuantityRevoked",
              "type": "uint256"
            },
            {
              "internalType": "address[]",
              "name": "tokenHolders",
              "type": "address[]"
            },
            {
              "internalType": "bool",
              "name": "exists",
              "type": "bool"
            }
          ],
          "internalType": "struct RestrictedNORI.ScheduleSummary[]",
          "name": "",
          "type": "tuple[]"
        }
      ],
      "stateMutability": "view",
      "type": "function"
    },
    {
      "inputs": [
        {
          "internalType": "uint256",
          "name": "scheduleId",
          "type": "uint256"
        }
      ],
      "name": "claimableBalanceForSchedule",
      "outputs": [
        {
          "internalType": "uint256",
          "name": "",
          "type": "uint256"
        }
      ],
      "stateMutability": "view",
      "type": "function"
    },
    {
      "inputs": [
        {
          "internalType": "uint256",
          "name": "scheduleId",
          "type": "uint256"
        },
        {
          "internalType": "address",
          "name": "account",
          "type": "address"
        }
      ],
      "name": "claimableBalanceForScheduleForAccount",
      "outputs": [
        {
          "internalType": "uint256",
          "name": "",
          "type": "uint256"
        }
      ],
      "stateMutability": "view",
      "type": "function"
    },
    {
      "inputs": [
        {
          "internalType": "uint256",
          "name": "projectId",
          "type": "uint256"
        }
      ],
      "name": "createSchedule",
      "outputs": [],
      "stateMutability": "nonpayable",
      "type": "function"
    },
    {
      "inputs": [
        {
          "internalType": "uint256",
          "name": "id",
          "type": "uint256"
        }
      ],
      "name": "exists",
      "outputs": [
        {
          "internalType": "bool",
          "name": "",
          "type": "bool"
        }
      ],
      "stateMutability": "view",
      "type": "function"
    },
    {
      "inputs": [],
      "name": "getAllScheduleIds",
      "outputs": [
        {
          "internalType": "uint256[]",
          "name": "",
          "type": "uint256[]"
        }
      ],
      "stateMutability": "view",
      "type": "function"
    },
    {
      "inputs": [
        {
          "internalType": "uint256",
          "name": "methodology",
          "type": "uint256"
        },
        {
          "internalType": "uint256",
          "name": "methodologyVersion",
          "type": "uint256"
        }
      ],
      "name": "getRestrictionDurationForMethodologyAndVersion",
      "outputs": [
        {
          "internalType": "uint256",
          "name": "",
          "type": "uint256"
        }
      ],
      "stateMutability": "view",
      "type": "function"
    },
    {
      "inputs": [
        {
          "internalType": "bytes32",
          "name": "role",
          "type": "bytes32"
        }
      ],
      "name": "getRoleAdmin",
      "outputs": [
        {
          "internalType": "bytes32",
          "name": "",
          "type": "bytes32"
        }
      ],
      "stateMutability": "view",
      "type": "function"
    },
    {
      "inputs": [
        {
          "internalType": "bytes32",
          "name": "role",
          "type": "bytes32"
        },
        {
          "internalType": "uint256",
          "name": "index",
          "type": "uint256"
        }
      ],
      "name": "getRoleMember",
      "outputs": [
        {
          "internalType": "address",
          "name": "",
          "type": "address"
        }
      ],
      "stateMutability": "view",
      "type": "function"
    },
    {
      "inputs": [
        {
          "internalType": "bytes32",
          "name": "role",
          "type": "bytes32"
        }
      ],
      "name": "getRoleMemberCount",
      "outputs": [
        {
          "internalType": "uint256",
          "name": "",
          "type": "uint256"
        }
      ],
      "stateMutability": "view",
      "type": "function"
    },
    {
      "inputs": [
        {
          "internalType": "address",
          "name": "account",
          "type": "address"
        },
        {
          "internalType": "uint256",
          "name": "scheduleId",
          "type": "uint256"
        }
      ],
      "name": "getScheduleDetailForAccount",
      "outputs": [
        {
          "components": [
            {
              "internalType": "address",
              "name": "tokenHolder",
              "type": "address"
            },
            {
              "internalType": "uint256",
              "name": "scheduleTokenId",
              "type": "uint256"
            },
            {
              "internalType": "uint256",
              "name": "balance",
              "type": "uint256"
            },
            {
              "internalType": "uint256",
              "name": "claimableAmount",
              "type": "uint256"
            },
            {
              "internalType": "uint256",
              "name": "claimedAmount",
              "type": "uint256"
            },
            {
              "internalType": "uint256",
              "name": "quantityRevoked",
              "type": "uint256"
            }
          ],
          "internalType": "struct RestrictedNORI.ScheduleDetailForAddress",
          "name": "",
          "type": "tuple"
        }
      ],
      "stateMutability": "view",
      "type": "function"
    },
    {
      "inputs": [
        {
          "internalType": "uint256",
          "name": "scheduleId",
          "type": "uint256"
        }
      ],
      "name": "getScheduleSummary",
      "outputs": [
        {
          "components": [
            {
              "internalType": "uint256",
              "name": "scheduleTokenId",
              "type": "uint256"
            },
            {
              "internalType": "uint256",
              "name": "startTime",
              "type": "uint256"
            },
            {
              "internalType": "uint256",
              "name": "endTime",
              "type": "uint256"
            },
            {
              "internalType": "uint256",
              "name": "totalSupply",
              "type": "uint256"
            },
            {
              "internalType": "uint256",
              "name": "totalClaimableAmount",
              "type": "uint256"
            },
            {
              "internalType": "uint256",
              "name": "totalClaimedAmount",
              "type": "uint256"
            },
            {
              "internalType": "uint256",
              "name": "totalQuantityRevoked",
              "type": "uint256"
            },
            {
              "internalType": "address[]",
              "name": "tokenHolders",
              "type": "address[]"
            },
            {
              "internalType": "bool",
              "name": "exists",
              "type": "bool"
            }
          ],
          "internalType": "struct RestrictedNORI.ScheduleSummary",
          "name": "",
          "type": "tuple"
        }
      ],
      "stateMutability": "view",
      "type": "function"
    },
    {
      "inputs": [
        {
          "internalType": "bytes32",
          "name": "role",
          "type": "bytes32"
        },
        {
          "internalType": "address",
          "name": "account",
          "type": "address"
        }
      ],
      "name": "grantRole",
      "outputs": [],
      "stateMutability": "nonpayable",
      "type": "function"
    },
    {
      "inputs": [
        {
          "internalType": "bytes32",
          "name": "role",
          "type": "bytes32"
        },
        {
          "internalType": "address",
          "name": "account",
          "type": "address"
        }
      ],
      "name": "hasRole",
      "outputs": [
        {
          "internalType": "bool",
          "name": "",
          "type": "bool"
        }
      ],
      "stateMutability": "view",
      "type": "function"
    },
    {
      "inputs": [],
      "name": "initialize",
      "outputs": [],
      "stateMutability": "nonpayable",
      "type": "function"
    },
    {
      "inputs": [
        {
          "internalType": "address",
          "name": "account",
          "type": "address"
        },
        {
          "internalType": "address",
          "name": "operator",
          "type": "address"
        }
      ],
      "name": "isApprovedForAll",
      "outputs": [
        {
          "internalType": "bool",
          "name": "",
          "type": "bool"
        }
      ],
      "stateMutability": "view",
      "type": "function"
    },
    {
      "inputs": [
        {
          "internalType": "uint256",
          "name": "amount",
          "type": "uint256"
        },
        {
          "internalType": "uint256",
          "name": "removalId",
          "type": "uint256"
        }
      ],
      "name": "mint",
      "outputs": [],
      "stateMutability": "nonpayable",
      "type": "function"
    },
    {
      "inputs": [],
      "name": "pause",
      "outputs": [],
      "stateMutability": "nonpayable",
      "type": "function"
    },
    {
      "inputs": [],
      "name": "paused",
      "outputs": [
        {
          "internalType": "bool",
          "name": "",
          "type": "bool"
        }
      ],
      "stateMutability": "view",
      "type": "function"
    },
    {
      "inputs": [
        {
          "internalType": "address",
          "name": "bridgedPolygonNoriAddress",
          "type": "address"
        },
        {
          "internalType": "address",
          "name": "removalAddress",
          "type": "address"
        }
      ],
      "name": "registerContractAddresses",
      "outputs": [],
      "stateMutability": "nonpayable",
      "type": "function"
    },
    {
      "inputs": [
        {
          "internalType": "bytes32",
          "name": "role",
          "type": "bytes32"
        },
        {
          "internalType": "address",
          "name": "account",
          "type": "address"
        }
      ],
      "name": "renounceRole",
      "outputs": [],
      "stateMutability": "nonpayable",
      "type": "function"
    },
    {
      "inputs": [
        {
          "internalType": "uint256",
          "name": "scheduleId",
          "type": "uint256"
        }
      ],
      "name": "revocableQuantityForSchedule",
      "outputs": [
        {
          "internalType": "uint256",
          "name": "",
          "type": "uint256"
        }
      ],
      "stateMutability": "view",
      "type": "function"
    },
    {
      "inputs": [
        {
          "internalType": "bytes32",
          "name": "role",
          "type": "bytes32"
        },
        {
          "internalType": "address",
          "name": "account",
          "type": "address"
        }
      ],
      "name": "revokeRole",
      "outputs": [],
      "stateMutability": "nonpayable",
      "type": "function"
    },
    {
      "inputs": [
        {
          "internalType": "uint256",
          "name": "projectId",
          "type": "uint256"
        },
        {
          "internalType": "uint256",
          "name": "amount",
          "type": "uint256"
        },
        {
          "internalType": "address",
          "name": "toAccount",
          "type": "address"
        }
      ],
      "name": "revokeUnreleasedTokens",
      "outputs": [],
      "stateMutability": "nonpayable",
      "type": "function"
    },
    {
      "inputs": [
        {
          "internalType": "address",
          "name": "from",
          "type": "address"
        },
        {
          "internalType": "address",
          "name": "to",
          "type": "address"
        },
        {
          "internalType": "uint256[]",
          "name": "ids",
          "type": "uint256[]"
        },
        {
          "internalType": "uint256[]",
          "name": "amounts",
          "type": "uint256[]"
        },
        {
          "internalType": "bytes",
          "name": "data",
          "type": "bytes"
        }
      ],
      "name": "safeBatchTransferFrom",
      "outputs": [],
      "stateMutability": "nonpayable",
      "type": "function"
    },
    {
      "inputs": [
        {
          "internalType": "address",
          "name": "from",
          "type": "address"
        },
        {
          "internalType": "address",
          "name": "to",
          "type": "address"
        },
        {
          "internalType": "uint256",
          "name": "id",
          "type": "uint256"
        },
        {
          "internalType": "uint256",
          "name": "amount",
          "type": "uint256"
        },
        {
          "internalType": "bytes",
          "name": "data",
          "type": "bytes"
        }
      ],
      "name": "safeTransferFrom",
      "outputs": [],
      "stateMutability": "nonpayable",
      "type": "function"
    },
    {
      "inputs": [
        {
          "internalType": "address",
          "name": "operator",
          "type": "address"
        },
        {
          "internalType": "bool",
          "name": "approved",
          "type": "bool"
        }
      ],
      "name": "setApprovalForAll",
      "outputs": [],
      "stateMutability": "nonpayable",
      "type": "function"
    },
    {
      "inputs": [
        {
          "internalType": "uint256",
          "name": "methodology",
          "type": "uint256"
        },
        {
          "internalType": "uint256",
          "name": "methodologyVersion",
          "type": "uint256"
        },
        {
          "internalType": "uint256",
          "name": "durationInSeconds",
          "type": "uint256"
        }
      ],
      "name": "setRestrictionDurationForMethodologyAndVersion",
      "outputs": [],
      "stateMutability": "nonpayable",
      "type": "function"
    },
    {
      "inputs": [
        {
          "internalType": "bytes4",
          "name": "interfaceId",
          "type": "bytes4"
        }
      ],
      "name": "supportsInterface",
      "outputs": [
        {
          "internalType": "bool",
          "name": "",
          "type": "bool"
        }
      ],
      "stateMutability": "view",
      "type": "function"
    },
    {
      "inputs": [
        {
          "internalType": "uint256",
          "name": "id",
          "type": "uint256"
        }
      ],
      "name": "totalSupply",
      "outputs": [
        {
          "internalType": "uint256",
          "name": "",
          "type": "uint256"
        }
      ],
      "stateMutability": "view",
      "type": "function"
    },
    {
      "inputs": [],
      "name": "unpause",
      "outputs": [],
      "stateMutability": "nonpayable",
      "type": "function"
    },
    {
      "inputs": [
        {
          "internalType": "uint256",
          "name": "",
          "type": "uint256"
        }
      ],
      "name": "uri",
      "outputs": [
        {
          "internalType": "string",
          "name": "",
          "type": "string"
        }
      ],
      "stateMutability": "view",
      "type": "function"
    },
    {
      "inputs": [
        {
          "internalType": "address",
          "name": "recipient",
          "type": "address"
        },
        {
          "internalType": "uint256",
          "name": "scheduleId",
          "type": "uint256"
        },
        {
          "internalType": "uint256",
          "name": "amount",
          "type": "uint256"
        }
      ],
      "name": "withdrawFromSchedule",
      "outputs": [
        {
          "internalType": "bool",
          "name": "",
          "type": "bool"
        }
      ],
      "stateMutability": "nonpayable",
      "type": "function"
    }
  ],
  "bytecode": "0x60808060405234620000c6576000549060ff8260081c1662000074575060ff8082161062000038575b604051615be99081620000cc8239f35b60ff90811916176000557f7f26b83ff96e1f2b6a682f133852f6798a09c465da95921460cefb3847402498602060405160ff8152a13862000028565b62461bcd60e51b815260206004820152602760248201527f496e697469616c697a61626c653a20636f6e747261637420697320696e697469604482015266616c697a696e6760c81b6064820152608490fd5b600080fdfe6080604052600436101561001257600080fd5b60003560e01c8062fdd58e14613ec857806301ffc9a714613d725780630e89341c14613c545780631b2ef1ca14613763578063229afd611461370a578063248a9ca3146136bc57806327ca0c27146135565780632d9f0f16146133cb5780632e5e8d831461337a5780632eb2c2d614612baa5780632f2ff15d14612a9357806336568abe146129af5780633f4ba83a146128bd57806346dbd535146121c95780634e1273f4146120d45780634f558e79146120885780635c975abb146120475780635d37165a146120035780636235a4e914611fc75780636334334614611f1b578063639aa0ad14611e7f5780636a00f9eb14611cbe578063713279b114611c7a5780638129fc1c1461158c5780638456cb59146114f65780639010d07c1461148457806391d148541461140a57806393ae796d1461136b5780639ac7b44d14611337578063a217fddf146112fd578063a22cb465146111a3578063b8b4dbe01461114a578063bd85b03914611100578063c1499fa814611067578063ca15c8731461101c578063d539139314610fc3578063d547741f14610f65578063e63ab1e914610f0c578063e985e9c514610e8a578063f242432a146107755763f6f57a2e146101de57600080fd5b34610770576020807ffffffffffffffffffffffffffffffffffffffffffffffffffffffffffffffffc360112610770576004359061021a615389565b7fb62aeb2ef35a3718e51a7e8b0b0d8e6fa690a4037bf45dad308976da469a861c8060005261012d8252604060002033600052825260ff60406000205416156105275750816000526101929081815260ff600360406000200154161561027d575b005b60249173ffffffffffffffffffffffffffffffffffffffff6080816101965416604051958680927f99d5121b0000000000000000000000000000000000000000000000000000000082528960048301525afa93841561051b576000946104eb575b5083511561048d57828401511615610463576102f984614c88565b156104055783600052815260406000206040830151606084015190600052610191835260406000209060005282526040600020549283156103a7576040928261039760019360037fc6bf85d136b95579125a47c9781847cacd55015777db8a853dd17946aed35fb2989601857fffffffffffffffffffffffffffffffffffffffffffffffffffffffffffffff00825416179055519485835585614b2b565b92839101558351928352820152a2005b606483604051907f08c379a00000000000000000000000000000000000000000000000000000000082526004820152601c60248201527f5265737472696374696f6e206475726174696f6e206e6f7420736574000000006044820152fd5b606482604051907f08c379a00000000000000000000000000000000000000000000000000000000082526004820152600f60248201527f5363686564756c652065786973747300000000000000000000000000000000006044820152fd5b60046040517fd8707052000000000000000000000000000000000000000000000000000000008152fd5b606483604051907f08c379a00000000000000000000000000000000000000000000000000000000082526004820152601860248201527f496e76616c69645363686564756c65537461727454696d6500000000000000006044820152fd5b61050d91945060803d8111610514575b6105058183614119565b8101906153f3565b92386102de565b503d6104fb565b6040513d6000823e3d90fd5b9061053133614b48565b9160405161053e816140fd565b604281528281019160603684378151156107415760308353815160019081101561074157607860218401536041905b8082116106a3575050610646576105f893610607926048926040519687937f416363657373436f6e74726f6c3a206163636f756e7420000000000000000000888601526105c3815180928a603789019101613f53565b8401917f206973206d697373696e6720726f6c6520000000000000000000000000000000603784015251809386840190613f53565b01036028810185520183614119565b6106426040519283927f08c379a000000000000000000000000000000000000000000000000000000000845260048401526024830190613f88565b0390fd5b606483604051907f08c379a000000000000000000000000000000000000000000000000000000000825280600483015260248201527f537472696e67733a20686578206c656e67746820696e73756666696369656e746044820152fd5b9091600f81166010811015610741577f3031323334353637383961626364656600000000000000000000000000000000901a6106df8486614b37565b5360041c918015610712577fffffffffffffffffffffffffffffffffffffffffffffffffffffffffffffffff019061056d565b7f4e487b7100000000000000000000000000000000000000000000000000000000600052601160045260246000fd5b7f4e487b7100000000000000000000000000000000000000000000000000000000600052603260045260246000fd5b600080fd5b346107705760a07ffffffffffffffffffffffffffffffffffffffffffffffffffffffffffffffffc360112610770576107ac613f0d565b6107b4613f30565b60843567ffffffffffffffff8111610770576107d49036906004016141d0565b9173ffffffffffffffffffffffffffffffffffffffff923384831614808015610e5f575b61080190615971565b61080e85851615156159fc565b610819604435615542565b610824606435615542565b91858716159081610e57575b5086861615610d8c575b5060ff60975416610d085785841615610cac575b85851615610bbe575b50506044356000526020906065825260406000208584166000528252604060002054610887606435821015615a87565b60443560005260658352604060002086851660005283526064359003604060002055604435600052606582526040600020858516600052825260406000206108d26064358254614b2b565b905560405160443581526064358382015285851690868516907fc3d58168c5ae7397731d063d5bbf3d657854427343f4c083240f7aacaa2d0f6260403392a4833b61096c575b50610192906044356000525260406000209183606435610956575b5050610941604435826148b6565b1561094857005b61027b921690600601614dd4565b610964911660068401614d33565b508383610933565b6040518281806109c97ff23a6e6100000000000000000000000000000000000000000000000000000000958683523360048401528a891660248401526044356044840152606435606484015260a0608484015260a4830190613f88565b038160008a8a165af160009181610b8f575b50610ada57505060016109ec615497565b6308c379a014610a8b575b610a0657610192905b90610918565b6040517f08c379a000000000000000000000000000000000000000000000000000000000815260206004820152603460248201527f455243313135353a207472616e7366657220746f206e6f6e204552433131353560448201527f526563656976657220696d706c656d656e7465720000000000000000000000006064820152608490fd5b610a936154b5565b80610a9e57506109f7565b826106426040519283927f08c379a000000000000000000000000000000000000000000000000000000000845260048401526024830190613f88565b7fffffffff000000000000000000000000000000000000000000000000000000001603610b0a5761019290610a00565b6040517f08c379a000000000000000000000000000000000000000000000000000000000815260206004820152602860248201527f455243313135353a204552433131353552656365697665722072656a6563746560448201527f6420746f6b656e730000000000000000000000000000000000000000000000006064820152608490fd5b610bb0919250843d8611610bb7575b610ba88183614119565b81019061545f565b90876109db565b503d610b9e565b92600095929491955b8451811015610c9e57610bda81866149f0565b5190610be681896149f0565b518260005260fb602052604060002054818110610c1a57610c159360005260fb602052036040600020556149c3565b610bc7565b60846040517f08c379a000000000000000000000000000000000000000000000000000000000815260206004820152602860248201527f455243313135353a206275726e20616d6f756e74206578636565647320746f7460448201527f616c537570706c790000000000000000000000000000000000000000000000006064820152fd5b509250929093508480610857565b92600095929491955b8451811015610cfc5780610ccc610cf792896149f0565b51610cd782886149f0565b5160005260fb602052610cf06040600020918254614b2b565b90556149c3565b610cb5565b5092949093919461084e565b60846040517f08c379a000000000000000000000000000000000000000000000000000000000815260206004820152602c60248201527f455243313135355061757361626c653a20746f6b656e207472616e736665722060448201527f7768696c652070617573656400000000000000000000000000000000000000006064820152fd5b959091929460005b8351811015610e4a5787610da882866149f0565b5190610de0575b600081815261019260205260409020600580820154610ddb9493610dd39190615b12565b9101556149c3565b610d94565b610dea82876149f0565b51610df588836152e6565b1015610daf576040517fe1b8b25f00000000000000000000000000000000000000000000000000000000815273ffffffffffffffffffffffffffffffffffffffff881660048201526024810191909152604490fd5b509492919095508661083a565b905087610830565b50848316600052606660205260406000203360005260205261080160ff6040600020541690506107f8565b346107705760407ffffffffffffffffffffffffffffffffffffffffffffffffffffffffffffffffc36011261077057610ec1613f0d565b610ec9613f30565b9073ffffffffffffffffffffffffffffffffffffffff809116600052606660205260406000209116600052602052602060ff604060002054166040519015158152f35b346107705760007ffffffffffffffffffffffffffffffffffffffffffffffffffffffffffffffffc3601126107705760206040517f65d7a28e3265b37a6474929f336521b332c1681b933f6cb9f3376673440d862a8152f35b346107705760407ffffffffffffffffffffffffffffffffffffffffffffffffffffffffffffffffc3601126107705761027b600435610fa2613f30565b908060005261012d602052610fbe60016040600020015461466c565b6147a9565b346107705760007ffffffffffffffffffffffffffffffffffffffffffffffffffffffffffffffffc3601126107705760206040517f9f2df0fed2c77648de5860a4cc508cd0818c85b8b8a1ab4ceeef8d981c8956a68152f35b346107705760207ffffffffffffffffffffffffffffffffffffffffffffffffffffffffffffffffc3601126107705760043560005261015f6020526020604060002054604051908152f35b346107705760607ffffffffffffffffffffffffffffffffffffffffffffffffffffffffffffffffc360112610770576044356110a1615389565b6110a9614517565b80156110d65760043560005261019160205260406000206024356000526020526040600020556000604051f35b60046040517f98eb4124000000000000000000000000000000000000000000000000000000008152fd5b346107705760207ffffffffffffffffffffffffffffffffffffffffffffffffffffffffffffffffc3601126107705760043560005260fb6020526020604060002054604051908152f35b346107705760007ffffffffffffffffffffffffffffffffffffffffffffffffffffffffffffffffc3601126107705760206040517f813b9efdf6afe6b57682eb1fb850711edc34da21ae7f7376cb7a391b1be3239f8152f35b346107705760407ffffffffffffffffffffffffffffffffffffffffffffffffffffffffffffffffc360112610770576111da613f0d565b602435908115158092036107705773ffffffffffffffffffffffffffffffffffffffff16908133146112795733600052606660205260406000208260005260205260406000207fffffffffffffffffffffffffffffffffffffffffffffffffffffffffffffff0081541660ff83161790556040519081527f17307eab39ab6107e8899845ad3d59bd9653f200f220920489ca2b5937696c3160203392a3005b60846040517f08c379a000000000000000000000000000000000000000000000000000000000815260206004820152602960248201527f455243313135353a2073657474696e6720617070726f76616c2073746174757360448201527f20666f722073656c6600000000000000000000000000000000000000000000006064820152fd5b346107705760007ffffffffffffffffffffffffffffffffffffffffffffffffffffffffffffffffc36011261077057602060405160008152f35b346107705761134536613fcb565b906000526101916020526040600020906000526020526020604060002054604051908152f35b346107705760407ffffffffffffffffffffffffffffffffffffffffffffffffffffffffffffffffc360112610770576113a2613f0d565b6113aa613f30565b906113b3614517565b73ffffffffffffffffffffffffffffffffffffffff7fffffffffffffffffffffffff000000000000000000000000000000000000000091816101959116838254161790556101969216908254161790556000604051f35b346107705760407ffffffffffffffffffffffffffffffffffffffffffffffffffffffffffffffffc36011261077057611441613f30565b60043560005261012d60205273ffffffffffffffffffffffffffffffffffffffff60406000209116600052602052602060ff604060002054166040519015158152f35b346107705760407ffffffffffffffffffffffffffffffffffffffffffffffffffffffffffffffffc3601126107705760043560005261015f602052602073ffffffffffffffffffffffffffffffffffffffff6114e66024356040600020614c70565b9190546040519260031b1c168152f35b346107705760007ffffffffffffffffffffffffffffffffffffffffffffffffffffffffffffffffc3601126107705761152d614279565b611535615389565b60017fffffffffffffffffffffffffffffffffffffffffffffffffffffffffffffff0060975416176097557f62e78cea01bee320cd4e420270b5ea74000d11b0c9f74754ebdbfc544b05a2586020604051338152a1005b346107705760007ffffffffffffffffffffffffffffffffffffffffffffffffffffffffffffffffc3601126107705760005460ff808260081c1615808091611c6e575b8015611c58575b15611bd4576001927fffffffffffffffffffffffffffffffffffffffffffffffffffffffffffffff0090828583831617600055611ba5575b506040519267ffffffffffffffff6060850181811186821017611b7657604052603285526020947f68747470733a2f2f6e6f72692e636f6d2f6170692f7265737472696374696f6e868201527f7363686564756c652f7b69647d2e6a736f6e000000000000000000000000000060408201526116908360005460081c16614f2e565b8051918211611b765781906116a6606754614863565b601f8111611b05575b508690601f8311600114611a4957600092611a3e575b50507fffffffffffffffffffffffffffffffffffffffffffffffffffffffffffffffff82881b9260031b1c1916176067555b61173c8160005460081c1661170b81614f2e565b61171481614f2e565b61171d81614f2e565b61172681614f2e565b61172f81614f2e565b8360975416609755614f2e565b6000805261012d9182855260406000203360005285528160406000205416156119f0575b6000805261015f92838652611779336040600020614d33565b507f65d7a28e3265b37a6474929f336521b332c1681b933f6cb9f3376673440d862a8060005281875260406000203360005287528360406000205416156119a2575b6000528386526117cf336040600020614d33565b507fb62aeb2ef35a3718e51a7e8b0b0d8e6fa690a4037bf45dad308976da469a861c806000528187526040600020336000528752836040600020541615611954575b600052838652611825336040600020614d33565b507f813b9efdf6afe6b57682eb1fb850711edc34da21ae7f7376cb7a391b1be3239f928360005281875260406000203360005287526040600020541615611905575b5050600052825261187c336040600020614d33565b50611885615389565b61188d614517565b82600052610191825260406000206000805282526312cf35706040600020556118b257005b7f7f26b83ff96e1f2b6a682f133852f6798a09c465da95921460cefb3847402498917fffffffffffffffffffffffffffffffffffffffffffffffffffffffffffff00ff60005416600055604051908152a1005b8260005285526040600020336000528552856040600020918254161790553333827f2f8788117e7eff1d82e926ec794901d17c78024a50270940304540a733656f0d6000604051a48580611867565b806000528187526040600020336000528752604060002088848254161790553333827f2f8788117e7eff1d82e926ec794901d17c78024a50270940304540a733656f0d6000604051a4611811565b806000528187526040600020336000528752604060002088848254161790553333827f2f8788117e7eff1d82e926ec794901d17c78024a50270940304540a733656f0d6000604051a46117bb565b60008052828552604060002033600052855260406000208682825416179055333360007f2f8788117e7eff1d82e926ec794901d17c78024a50270940304540a733656f0d81604051a4611760565b0151905087806116c5565b907fffffffffffffffffffffffffffffffffffffffffffffffffffffffffffffffe08994169160676000527f9787eeb91fe3101235e4a76063c7023ecb40f923f97916639c598592fa30d6ae9260005b8a828210611aef5750508411611ab8575b505050811b016067556116f7565b01517fffffffffffffffffffffffffffffffffffffffffffffffffffffffffffffffff60f88460031b161c19169055878080611aaa565b8385015186558c97909501949384019301611a99565b90915060676000527f9787eeb91fe3101235e4a76063c7023ecb40f923f97916639c598592fa30d6ae601f840160051c810191888510611b6c575b84939291601f8b920160051c01915b828110611b5d5750506116af565b600081558594508a9101611b4f565b9091508190611b40565b7f4e487b7100000000000000000000000000000000000000000000000000000000600052604160045260246000fd5b7fffffffffffffffffffffffffffffffffffffffffffffffffffffffffffff000016610101176000558461160e565b60846040517f08c379a000000000000000000000000000000000000000000000000000000000815260206004820152602e60248201527f496e697469616c697a61626c653a20636f6e747261637420697320616c72656160448201527f647920696e697469616c697a65640000000000000000000000000000000000006064820152fd5b50303b1580156115d657506001828416146115d6565b506001828416106115cf565b346107705760207ffffffffffffffffffffffffffffffffffffffffffffffffffffffffffffffffc360112610770576020611cb66004356151fa565b604051908152f35b346107705760407ffffffffffffffffffffffffffffffffffffffffffffffffffffffffffffffffc36011261077057611cf5613f0d565b60243567ffffffffffffffff811161077057611d15903690600401614172565b8051917fffffffffffffffffffffffffffffffffffffffffffffffffffffffffffffffe0611d5b611d458561415a565b94611d536040519687614119565b80865261415a565b0160005b818110611e6857505060005b8251811015611dd55780611d82611da192856149f0565b5160005261019260205260ff60036040600020015416611da6576149c3565b611d6b565b611dba611db382866149f0565b5184614feb565b611dc482876149f0565b52611dcf81866149f0565b506149c3565b60408051602080825286518183018190528188019383019160005b828110611dfd5784840385f35b9091928260c082611e596001948a5160a0809173ffffffffffffffffffffffffffffffffffffffff8151168452602081015160208501526040810151604085015260608101516060850152608081015160808501520151910152565b01960191019492919094611df0565b602090611e73614fb9565b82828801015201611d5f565b346107705760407ffffffffffffffffffffffffffffffffffffffffffffffffffffffffffffffffc3601126107705760c0611ec4611ebb613f0d565b60243590614feb565b611f19604051809260a0809173ffffffffffffffffffffffffffffffffffffffff8151168452602081015160208501526040810151604085015260608101516060850152608081015160808501520151910152565bf35b346107705760007ffffffffffffffffffffffffffffffffffffffffffffffffffffffffffffffffc360112610770576101938054611f5881614974565b60005b8151811015611fad578281101561074157611fa89084600052807ffc8af01f449989052b52093a58fc9f42d0b11f0c6dd5dca0463dab62346ccc680154611fa282856149f0565b526149c3565b611f5b565b60405160208082528190611fc390820185614245565b0390f35b346107705760207ffffffffffffffffffffffffffffffffffffffffffffffffffffffffffffffffc360112610770576020611cb6600435615272565b346107705760407ffffffffffffffffffffffffffffffffffffffffffffffffffffffffffffffffc360112610770576020611cb661203f613f30565b6004356152e6565b346107705760007ffffffffffffffffffffffffffffffffffffffffffffffffffffffffffffffffc36011261077057602060ff609754166040519015158152f35b346107705760207ffffffffffffffffffffffffffffffffffffffffffffffffffffffffffffffffc3601126107705760043560005260fb60205260206040600020541515604051908152f35b346107705760407ffffffffffffffffffffffffffffffffffffffffffffffffffffffffffffffffc3601126107705760043567ffffffffffffffff8082116107705736602383011215610770578160040135916121308361415a565b9061213e6040519283614119565b83825260209360248584019160051b8301019136831161077057602401905b82821061219d5750505060243591821161077057612182612188923690600401614172565b90614a04565b90611fc3604051928284938452830190614245565b813573ffffffffffffffffffffffffffffffffffffffff8116810361077057815290850190850161215d565b346107705760607ffffffffffffffffffffffffffffffffffffffffffffffffffffffffffffffffc3601126107705760243573ffffffffffffffffffffffffffffffffffffffff604435166044350361077057612224615389565b3360009081527fbb695756976789dbf69ac8506c5b1850deea10a5c59f066caca02188e267e39460205260409020547f813b9efdf6afe6b57682eb1fb850711edc34da21ae7f7376cb7a391b1be3239f9060ff1615612706575060043560005261019260205260406000209060ff600383015416156126d4576122a86004356151fa565b8082116126a257811561269b57505b6006820191604051928384602083549283815201809360005260206000209260005b8181106126825750506122ee92500385614119565b6122f88451614974565b9360005b815181101561231b5761231690600435611fa282896149f0565b6122fc565b50849361233261232b8351614974565b9583614a04565b916000936000945b825160018110610712577fffffffffffffffffffffffffffffffffffffffffffffffffffffffffffffffff01861015612431576123ed6123f39173ffffffffffffffffffffffffffffffffffffffff61239389876149f0565b511661239f89896149f0565b5190600435600052610192602052604060002090886123c46004356002850154615b9b565b9283158015612429575b156123f95750505050506000905b816123e78a8d6149f0565b52614b2b565b956149c3565b9461233a565b6124239460086124199261241e9560005201602052604060002054614b2b565b614afa565b6152ad565b906123dc565b5081156123ce565b918661243f89959485614dc9565b90825191600192838110610712577fffffffffffffffffffffffffffffffffffffffffffffffffffffffffffffffff61247c9195949501886149f0565b52600981016000845b6125e2575b505060040161249a858254614b2b565b9055604051916060830191858452606060208501525180925260808301939160005b8181106125b7576000602061257f89898c7f988d249f1e88aec58e18388b0911f4b82db7677c5928dc0f64a16598270f321b8b808403604082015280612506600435954295614245565b0390a373ffffffffffffffffffffffffffffffffffffffff6101955416906040519485809481937fa9059cbb000000000000000000000000000000000000000000000000000000008352604435600484016020909392919373ffffffffffffffffffffffffffffffffffffffff60408201951681520152565b03925af1801561051b5761258f57005b61027b9060203d6020116125b0575b6125a88183614119565b810190615578565b503d61259e565b835173ffffffffffffffffffffffffffffffffffffffff1686526020958601959093019282016124bc565b90849394918551811015612679578061262d73ffffffffffffffffffffffffffffffffffffffff612616612670948a6149f0565b5116612622838d6149f0565b519060043590615590565b612637818b6149f0565b5173ffffffffffffffffffffffffffffffffffffffff612657838a6149f0565b511660005283602052610cf06040600020918254614b2b565b90919493612485565b5093929361248a565b84548352600194850194899450602090930192016122d9565b90506122b7565b60246040517f610d28380000000000000000000000000000000000000000000000000000000081526004356004820152fd5b60246040517f25f878170000000000000000000000000000000000000000000000000000000081526004356004820152fd5b61270f33614b48565b6040519161271c836140fd565b60428352602083019060603683378351156107415760308253835160019081101561074157607860218601536041905b80821161284e5750506127f05760486127a7926127b692610642956040519586937f416363657373436f6e74726f6c3a206163636f756e742000000000000000000060208601526105c3815180926020603789019101613f53565b01036028810184520182614119565b6040519182917f08c379a0000000000000000000000000000000000000000000000000000000008352602060048401526024830190613f88565b60646040517f08c379a000000000000000000000000000000000000000000000000000000000815260206004820152602060248201527f537472696e67733a20686578206c656e67746820696e73756666696369656e746044820152fd5b9091600f81166010811015610741577f3031323334353637383961626364656600000000000000000000000000000000901a61288a8488614b37565b5360041c918015610712577fffffffffffffffffffffffffffffffffffffffffffffffffffffffffffffffff019061274c565b346107705760007ffffffffffffffffffffffffffffffffffffffffffffffffffffffffffffffffc360112610770576128f4614279565b60975460ff811615612951577fffffffffffffffffffffffffffffffffffffffffffffffffffffffffffffff00166097557f5db9ee0a495bf2e6ff9c91a7834c1ba4fdd244a5e8aa4e537bd38aeae4b073aa6020604051338152a1005b60646040517f08c379a000000000000000000000000000000000000000000000000000000000815260206004820152601460248201527f5061757361626c653a206e6f74207061757365640000000000000000000000006044820152fd5b346107705760407ffffffffffffffffffffffffffffffffffffffffffffffffffffffffffffffffc360112610770576129e6613f30565b3373ffffffffffffffffffffffffffffffffffffffff821603612a0f5761027b906004356147a9565b60846040517f08c379a000000000000000000000000000000000000000000000000000000000815260206004820152602f60248201527f416363657373436f6e74726f6c3a2063616e206f6e6c792072656e6f756e636560448201527f20726f6c657320666f722073656c6600000000000000000000000000000000006064820152fd5b346107705760407ffffffffffffffffffffffffffffffffffffffffffffffffffffffffffffffffc3601126107705761027b60043561015f612ad3613f30565b918060005261012d90602091808352612af360016040600020015461466c565b8160005280835273ffffffffffffffffffffffffffffffffffffffff604060002095169485600052835260ff6040600020541615612b3b575b50600052526040600020614d33565b8160005282526040600020846000528252604060002060017fffffffffffffffffffffffffffffffffffffffffffffffffffffffffffffff008254161790553384827f2f8788117e7eff1d82e926ec794901d17c78024a50270940304540a733656f0d6000604051a485612b2c565b346107705760a07ffffffffffffffffffffffffffffffffffffffffffffffffffffffffffffffffc36011261077057612be1613f0d565b612be9613f30565b9067ffffffffffffffff60443581811161077057612c0b903690600401614172565b9260643582811161077057612c24903690600401614172565b9160843590811161077057612c3d9036906004016141d0565b923373ffffffffffffffffffffffffffffffffffffffff82161480801561333b575b612c6890615971565b85518451036132b757612c9273ffffffffffffffffffffffffffffffffffffffff841615156159fc565b73ffffffffffffffffffffffffffffffffffffffff83161590816132af575b5073ffffffffffffffffffffffffffffffffffffffff8316156131ec575b5060ff60975416610d085773ffffffffffffffffffffffffffffffffffffffff8116156131b8575b73ffffffffffffffffffffffffffffffffffffffff821615613152575b60005b8551811015612de55780612d2e612de092886149f0565b51612d3982876149f0565b5190806000526065602091818352604060002073ffffffffffffffffffffffffffffffffffffffff8816600052835283604060002054612d7b82821015615a87565b82600052838552604060002073ffffffffffffffffffffffffffffffffffffffff8a16600052855203604060002055600052815260406000209073ffffffffffffffffffffffffffffffffffffffff871660005252610cf06040600020918254614b2b565b612d17565b5091909260405160408152612dfd6040820187614245565b90808203602082015273ffffffffffffffffffffffffffffffffffffffff8616917f4a39dc06d4c0dbc64b70af90fd698a233a518aa5d07e595d983b8c0526c8f7fb73ffffffffffffffffffffffffffffffffffffffff87169280612e63339489614245565b0390a4833b612f1f575b5060005b845181101561027b5780612e88612ec692876149f0565b516000526101926020526040600020612ea182856149f0565b51612ef6575b612ebb612eb483896149f0565b51866148b6565b15612ecb57506149c3565b612e71565b612eef90600673ffffffffffffffffffffffffffffffffffffffff87169101614dd4565b5086611dcf565b612f1973ffffffffffffffffffffffffffffffffffffffff871660068301614d33565b50612ea7565b60405160208180612fe77fbc197c81000000000000000000000000000000000000000000000000000000009586835233600484015273ffffffffffffffffffffffffffffffffffffffff8916602484015260a06044840152612fb7612f8760a485018d614245565b7ffffffffffffffffffffffffffffffffffffffffffffffffffffffffffffffffc85820301606486015289614245565b907ffffffffffffffffffffffffffffffffffffffffffffffffffffffffffffffffc848303016084850152613f88565b0381600073ffffffffffffffffffffffffffffffffffffffff8a165af160009181613131575b50613085575050600161301e615497565b6308c379a014613034575b610a06575b84612e6d565b61303c6154b5565b806130475750613029565b610642906040519182917f08c379a0000000000000000000000000000000000000000000000000000000008352602060048401526024830190613f88565b7fffffffff00000000000000000000000000000000000000000000000000000000161461302e576040517f08c379a000000000000000000000000000000000000000000000000000000000815260206004820152602860248201527f455243313135353a204552433131353552656365697665722072656a6563746560448201527f6420746f6b656e730000000000000000000000000000000000000000000000006064820152608490fd5b61314b91925060203d602011610bb757610ba88183614119565b908761300d565b929060009492945b83518110156131ad5761316d81856149f0565b519061317981886149f0565b518260005260fb602052604060002054818110610c1a576131a89360005260fb602052036040600020556149c3565b61315a565b509092939193612d14565b929060005b85518110156131e457806131d46131df92866149f0565b51610cd782896149f0565b6131bd565b509092612cf7565b949092919360005b82518110156132a2578661320882856149f0565b5190613238575b6000818152610192602052604090206005808201546132339493610dd39190615b12565b6131f4565b61324282866149f0565b5161324d87836152e6565b101561320f576040517fe1b8b25f00000000000000000000000000000000000000000000000000000000815273ffffffffffffffffffffffffffffffffffffffff871660048201526024810191909152604490fd5b5093919290945085612ccf565b905086612cb1565b60846040517f08c379a000000000000000000000000000000000000000000000000000000000815260206004820152602860248201527f455243313135353a2069647320616e6420616d6f756e7473206c656e6774682060448201527f6d69736d617463680000000000000000000000000000000000000000000000006064820152fd5b5073ffffffffffffffffffffffffffffffffffffffff82166000526066602052604060002033600052602052612c6860ff604060002054169050612c5f565b346107705760207ffffffffffffffffffffffffffffffffffffffffffffffffffffffffffffffffc36011261077057611fc36133b76004356150c1565b604051918291602083526020830190613fff565b34610770576020807ffffffffffffffffffffffffffffffffffffffffffffffffffffffffffffffffc3601126107705767ffffffffffffffff9060043582811161077057366023820112156107705780600401359283116107705760059260243682861b8401820111610770576134418261415a565b9261344f6040519485614119565b8284527fffffffffffffffffffffffffffffffffffffffffffffffffffffffffffffffe061347c8461415a565b018560005b8281106135405750505060005b838110613512575050505060405191808301818452825180915281604082818701971b8601019301916000955b8287106134c85785850386f35b909192938280613502837fffffffffffffffffffffffffffffffffffffffffffffffffffffffffffffffc08a600196030186528851613fff565b96019201960195929190926134bb565b806135268461353b938a1b850101356150c1565b61353082886149f0565b52611dcf81876149f0565b61348e565b61354861507b565b828289010152018690613481565b346107705760607ffffffffffffffffffffffffffffffffffffffffffffffffffffffffffffffffc3601126107705761358d613f0d565b6136866024356044356135a1818333615590565b816000526020938492610192845260086040600020600281016135c5868254614b2b565b90553360005201845260406000206135de848254614b2b565b90556040519083825273ffffffffffffffffffffffffffffffffffffffff91828416907fff097c7d8b1957a4ff09ef1361b5fb54dcede3941ba836d0beb9d10bec725de6873392a461019554169060006040518096819582947fa9059cbb000000000000000000000000000000000000000000000000000000008452600484016020909392919373ffffffffffffffffffffffffffffffffffffffff60408201951681520152565b03925af1801561051b5761369f575b5060405160018152f35b6136b590823d84116125b0576125a88183614119565b5081613695565b346107705760207ffffffffffffffffffffffffffffffffffffffffffffffffffffffffffffffffc3601126107705760043560005261012d6020526020600160406000200154604051908152f35b346107705760007ffffffffffffffffffffffffffffffffffffffffffffffffffffffffffffffffc3601126107705760206040517fb62aeb2ef35a3718e51a7e8b0b0d8e6fa690a4037bf45dad308976da469a861c8152f35b346107705761377136613fcb565b3360009081527fad02ca31225c1e77b97240fae26f6efe4c4dfc9dbe77f7a176ac7a45a4e1b805602090815260409091205460ff1615613c245773ffffffffffffffffffffffffffffffffffffffff9081610196541691604051937fe0fc2938000000000000000000000000000000000000000000000000000000008552600485015260249282858581845afa94851561051b57600095613bf4575b5060808491604051928380927f99d5121b0000000000000000000000000000000000000000000000000000000082528960048301525afa801561051b578391600091613bd6575b5001511692806000526101929384835260ff6003604060002001541615613ba65760405194613882866140e1565b600086528115613b235761389583615542565b9461389f88615542565b9760ff60975416613aa05760005b87518110156138ec57806138c46138e7928c6149f0565b516138cf828b6149f0565b5160005260fb8952610cf06040600020918254614b2b565b6138ad565b5090859188866000526065845260406000208660005284526040600020613914838254614b2b565b905585600060405189815284878201527fc3d58168c5ae7397731d063d5bbf3d657854427343f4c083240f7aacaa2d0f6260403392a4853b613969575b50505061027b93600052526006604060002001614d33565b836139c291604051809381927ff23a6e6100000000000000000000000000000000000000000000000000000000968784523360048501526000898501528c6044850152606484015260a0608484015260a4830190613f88565b038160008a5af160009181613a81575b50613a4f5750506001906139e4615497565b6308c379a014613a01575b50610a065761027b935b938580613951565b613a096154b5565b80613a1457506139ef565b61064284916040519384937f08c379a00000000000000000000000000000000000000000000000000000000085526004850152830190613f88565b7fffffffff0000000000000000000000000000000000000000000000000000000016039050610b0a5761027b936139f9565b613a99919250853d8711610bb757610ba88183614119565b90886139d2565b608486602c84604051927f08c379a000000000000000000000000000000000000000000000000000000000845260048401528201527f455243313135355061757361626c653a20746f6b656e207472616e736665722060448201527f7768696c652070617573656400000000000000000000000000000000000000006064820152fd5b608484602187604051927f08c379a000000000000000000000000000000000000000000000000000000000845260048401528201527f455243313135353a206d696e7420746f20746865207a65726f2061646472657360448201527f73000000000000000000000000000000000000000000000000000000000000006064820152fd5b8382604051907f25f878170000000000000000000000000000000000000000000000000000000082526004820152fd5b613bee915060803d8111610514576105058183614119565b87613854565b9094508281813d8311613c1d575b613c0c8183614119565b81010312610770575193608061380d565b503d613c02565b60246040517ff78d2300000000000000000000000000000000000000000000000000000000008152336004820152fd5b34610770576020807ffffffffffffffffffffffffffffffffffffffffffffffffffffffffffffffffc360112610770576040519060008260675491613c9883614863565b92838352600190858282169182600014613d34575050600114613cd7575b50613cc392500383614119565b611fc3604051928284938452830190613f88565b84915060676000527f9787eeb91fe3101235e4a76063c7023ecb40f923f97916639c598592fa30d6ae906000915b858310613d1c575050613cc3935082010185613cb6565b80548389018501528794508693909201918101613d05565b7fffffffffffffffffffffffffffffffffffffffffffffffffffffffffffffff001685820152613cc395151560051b8501019250879150613cb69050565b346107705760207ffffffffffffffffffffffffffffffffffffffffffffffffffffffffffffffffc360112610770576004357fffffffff00000000000000000000000000000000000000000000000000000000811680910361077057807f5a05180f0000000000000000000000000000000000000000000000000000000060209214908115613e07575b506040519015158152f35b7f7965db0b00000000000000000000000000000000000000000000000000000000811491508115613e3a575b5082613dfc565b7fd9b67a2600000000000000000000000000000000000000000000000000000000811491508115613e9e575b8115613e74575b5082613e33565b7f01ffc9a70000000000000000000000000000000000000000000000000000000091501482613e6d565b7f0e89341c0000000000000000000000000000000000000000000000000000000081149150613e66565b346107705760407ffffffffffffffffffffffffffffffffffffffffffffffffffffffffffffffffc360112610770576020611cb6613f04613f0d565b602435906148b6565b6004359073ffffffffffffffffffffffffffffffffffffffff8216820361077057565b6024359073ffffffffffffffffffffffffffffffffffffffff8216820361077057565b918091926000905b828210613f73575011613f6c575050565b6000910152565b91508060209183015181860152018291613f5b565b907fffffffffffffffffffffffffffffffffffffffffffffffffffffffffffffffe0601f602093613fc481518092818752878088019101613f53565b0116010190565b7ffffffffffffffffffffffffffffffffffffffffffffffffffffffffffffffffc6040910112610770576004359060243590565b906101209182820181518352602090818301518285015260408301516040850152606083015160608501526080830151608085015260a083015160a085015260c083015160c085015260e08301519460e0850152845180915281610140850195019160005b82811061407e575050505061010080910151151591015290565b835173ffffffffffffffffffffffffffffffffffffffff1687529581019592810192600101614064565b60c0810190811067ffffffffffffffff821117611b7657604052565b610120810190811067ffffffffffffffff821117611b7657604052565b6020810190811067ffffffffffffffff821117611b7657604052565b6080810190811067ffffffffffffffff821117611b7657604052565b90601f7fffffffffffffffffffffffffffffffffffffffffffffffffffffffffffffffe0910116810190811067ffffffffffffffff821117611b7657604052565b67ffffffffffffffff8111611b765760051b60200190565b81601f82011215610770578035916141898361415a565b926141976040519485614119565b808452602092838086019260051b820101928311610770578301905b8282106141c1575050505090565b813581529083019083016141b3565b81601f820112156107705780359067ffffffffffffffff8211611b76576040519261422360207fffffffffffffffffffffffffffffffffffffffffffffffffffffffffffffffe0601f8601160185614119565b8284526020838301011161077057816000926020809301838601378301015290565b90815180825260208080930193019160005b828110614265575050505090565b835185529381019392810192600101614257565b3360009081527f55486b541b787b137d2518cb415b5b8cdd60981a80e62dcbf2f89b19327ff457602090815260408083205490927f65d7a28e3265b37a6474929f336521b332c1681b933f6cb9f3376673440d862a9160ff16156142dd5750505050565b6142e633614b48565b918451906142f3826140fd565b604282528482019260603685378251156144ea57603084538251906001918210156144ea5790607860218501536041915b81831161441f575050506143c357604861064293869361438d9361437e98519889937f416363657373436f6e74726f6c3a206163636f756e74200000000000000000008a8601526105c3815180928c603789019101613f53565b01036028810187520185614119565b519283927f08c379a000000000000000000000000000000000000000000000000000000000845260048401526024830190613f88565b6064848651907f08c379a000000000000000000000000000000000000000000000000000000000825280600483015260248201527f537472696e67733a20686578206c656e67746820696e73756666696369656e746044820152fd5b909192600f811660108110156144bd577f3031323334353637383961626364656600000000000000000000000000000000901a61445c8587614b37565b5360041c928015614490577fffffffffffffffffffffffffffffffffffffffffffffffffffffffffffffffff019190614324565b6024827f4e487b710000000000000000000000000000000000000000000000000000000081526011600452fd5b6024837f4e487b710000000000000000000000000000000000000000000000000000000081526032600452fd5b807f4e487b7100000000000000000000000000000000000000000000000000000000602492526032600452fd5b3360009081527fa581b17bfc4d6578e300cafbf34fd2dc1fef0270d8c73f88a99dcde2859a6639602090815260408083205490929060ff161561455957505050565b61456233614b48565b9080845190614570826140fd565b604282528482019260603685378251156144ea57603084538251906001918210156144ea5790607860218501536041915b8183116145fb575050506143c357604861064293869361438d9361437e98519889937f416363657373436f6e74726f6c3a206163636f756e74200000000000000000008a8601526105c3815180928c603789019101613f53565b909192600f811660108110156144bd577f3031323334353637383961626364656600000000000000000000000000000000901a6146388587614b37565b5360041c928015614490577fffffffffffffffffffffffffffffffffffffffffffffffffffffffffffffffff0191906145a1565b60009080825260209061012d8252604092838120338252835260ff8482205416156146975750505050565b6146a033614b48565b918451906146ad826140fd565b604282528482019260603685378251156144ea57603084538251906001918210156144ea5790607860218501536041915b818311614738575050506143c357604861064293869361438d9361437e98519889937f416363657373436f6e74726f6c3a206163636f756e74200000000000000000008a8601526105c3815180928c603789019101613f53565b909192600f811660108110156144bd577f3031323334353637383961626364656600000000000000000000000000000000901a6147758587614b37565b5360041c928015614490577fffffffffffffffffffffffffffffffffffffffffffffffffffffffffffffffff0191906146de565b906147fa91600081815261012d918260205260409273ffffffffffffffffffffffffffffffffffffffff84842095169485845260205260ff84842054166147fd575b50815261015f60205220614dd4565b50565b8183526020528282208483526020528282207fffffffffffffffffffffffffffffffffffffffffffffffffffffffffffffff0081541690553384827ff6391f5c32d9c69d2a47ea670b442974b53935d1edc7fd64eb21e047a839171b858751a4386147eb565b90600182811c921680156148ac575b602083101461487d57565b7f4e487b7100000000000000000000000000000000000000000000000000000000600052602260045260246000fd5b91607f1691614872565b73ffffffffffffffffffffffffffffffffffffffff169081156148f057600052606560205260406000209060005260205260406000205490565b60846040517f08c379a000000000000000000000000000000000000000000000000000000000815260206004820152602a60248201527f455243313135353a2061646472657373207a65726f206973206e6f742061207660448201527f616c6964206f776e6572000000000000000000000000000000000000000000006064820152fd5b9061497e8261415a565b61498b6040519182614119565b8281527fffffffffffffffffffffffffffffffffffffffffffffffffffffffffffffffe06149b9829461415a565b0190602036910137565b7fffffffffffffffffffffffffffffffffffffffffffffffffffffffffffffffff81146107125760010190565b80518210156107415760209160051b010190565b9190918051835103614a7657614a1a8151614974565b9060005b8151811015614a6f5780614a6073ffffffffffffffffffffffffffffffffffffffff614a4d614a6a94866149f0565b5116614a5983896149f0565b51906148b6565b611fa282866149f0565b614a1e565b5090925050565b60846040517f08c379a000000000000000000000000000000000000000000000000000000000815260206004820152602960248201527f455243313135353a206163636f756e747320616e6420696473206c656e67746860448201527f206d69736d6174636800000000000000000000000000000000000000000000006064820152fd5b807fffffffffffffffffffffffffffffffffffffffffffffffffffffffffffffffff04821181151516610712570290565b81198111610712570190565b908151811015610741570160200190565b604051906060820182811067ffffffffffffffff821117611b7657604052602a82526020820160403682378251156107415760309053815160019081101561074157607860218401536029905b808211614ba55750506127f05790565b9091600f81166010811015614c42577f3031323334353637383961626364656600000000000000000000000000000000901a614be18486614b37565b5360041c918015614c14577fffffffffffffffffffffffffffffffffffffffffffffffffffffffffffffffff0190614b95565b602460007f4e487b710000000000000000000000000000000000000000000000000000000081526011600452fd5b602460007f4e487b710000000000000000000000000000000000000000000000000000000081526032600452fd5b80548210156107415760005260206000200190600090565b906000918083526101949283602052604081205415600014614d2e576101939384549468010000000000000000861015614d0157600186018082558610156144bd578360409495967ffc8af01f449989052b52093a58fc9f42d0b11f0c6dd5dca0463dab62346ccc680155549382526020522055600190565b6024837f4e487b710000000000000000000000000000000000000000000000000000000081526041600452fd5b925050565b91906001830160009082825280602052604082205415600014614dc35784549468010000000000000000861015614d015783614db3614d7c886001604098999a01855584614c70565b819391549060031b7fffffffffffffffffffffffffffffffffffffffffffffffffffffffffffffffff811b9283911b169119161790565b9055549382526020522055600190565b50925050565b818110610712570390565b90600182019060009281845282602052604084205490811515600014614f275760018210614efa577fffffffffffffffffffffffffffffffffffffffffffffffffffffffffffffffff91828101825460018110614ecd57840190808203614e98575b50505080548015614e6b57820191614e4e8383614c70565b909182549160031b1b191690555582526020526040812055600190565b6024867f4e487b710000000000000000000000000000000000000000000000000000000081526031600452fd5b614eb8614ea8614d7c9386614c70565b90549060031b1c92839286614c70565b90558652846020526040862055388080614e36565b6024887f4e487b710000000000000000000000000000000000000000000000000000000081526011600452fd5b6024857f4e487b710000000000000000000000000000000000000000000000000000000081526011600452fd5b5050505090565b15614f3557565b60846040517f08c379a000000000000000000000000000000000000000000000000000000000815260206004820152602b60248201527f496e697469616c697a61626c653a20636f6e7472616374206973206e6f74206960448201527f6e697469616c697a696e670000000000000000000000000000000000000000006064820152fd5b60405190614fc6826140a8565b8160a06000918281528260208201528260408201528260608201528260808201520152565b90614ff4614fb9565b5080600052610192602052604060002061500e82846148b6565b9273ffffffffffffffffffffffffffffffffffffffff61502e82856152e6565b911693846000526008830160205260096040600020549301602052604060002054936040519561505d876140a8565b8652602086015260408501526060840152608083015260a082015290565b60405190615088826140c4565b816101006000918281528260208201528260408201528260608201528260808201528260a08201528260c0820152606060e08201520152565b6150c961507b565b508060005261019260205260406000206006810180546150e88161415a565b916150f66040519384614119565b8183527fffffffffffffffffffffffffffffffffffffffffffffffffffffffffffffffe06151238361415a565b0136602085013761513382614974565b9060005b8381106151b4575050505081549160018101548460005260fb60205260406000205461516286615272565b9060028401549260ff600360048701549601541696604051986151848a6140c4565b8952602089015260408801526060870152608086015260a085015260c084015260e0830152151561010082015290565b8073ffffffffffffffffffffffffffffffffffffffff6151d76151f59385614c70565b90549060031b1c166151e982886149f0565b5287611fa282866149f0565b615137565b9081600052610192602052604060002060ff600382015416156152415761523883600561522f61523e95966002860154615b9b565b93015490615b12565b90614dc9565b90565b602483604051907f25f878170000000000000000000000000000000000000000000000000000000082526004820152fd5b9081600052610192602052604060002060ff600382015416156152415760026152a461523e9394600584015490615b12565b91015490614dc9565b81156152b7570490565b7f4e487b7100000000000000000000000000000000000000000000000000000000600052601260045260246000fd5b600091818352610192602052604083209060028201546153068482615b9b565b9261531185846148b6565b9284158015615381575b156153295750505050505090565b61241e92615370615369604061523e9a600861537c9a999773ffffffffffffffffffffffffffffffffffffffff6153769816835201602052205498615272565b9388614b2b565b92614b2b565b90614afa565b614dc9565b50831561531b565b60ff6097541661539557565b60646040517f08c379a000000000000000000000000000000000000000000000000000000000815260206004820152601060248201527f5061757361626c653a20706175736564000000000000000000000000000000006044820152fd5b9081608091031261077057604051906080820182811067ffffffffffffffff821117611b76576040528051825260208101519073ffffffffffffffffffffffffffffffffffffffff82168203610770576060916020840152604081015160408401520151606082015290565b9081602091031261077057517fffffffff00000000000000000000000000000000000000000000000000000000811681036107705790565b60009060033d116154a457565b905060046000803e60005160e01c90565b600060443d1061523e576040517ffffffffffffffffffffffffffffffffffffffffffffffffffffffffffffffffc91823d016004833e815167ffffffffffffffff918282113d60248401111761553157818401948551938411615539573d85010160208487010111615531575061523e92910160200190614119565b949350505050565b50949350505050565b604051906040820182811067ffffffffffffffff821117611b765760405260018252602082016020368237825115610741575290565b90816020910312610770575180151581036107705790565b92909173ffffffffffffffffffffffffffffffffffffffff84169384156158ed576155ba84615542565b6155c383615542565b906040938451956155d3876140e1565b600080975233891498875b8451811015615688578a6155f282876149f0565b519061561f575b808a52610192602052888a2060058082015461561a9493610dd39190615b12565b6155de565b61562982886149f0565b5161563489836152e6565b10156155f95788517fe1b8b25f00000000000000000000000000000000000000000000000000000000815273ffffffffffffffffffffffffffffffffffffffff891660048201526024810191909152604490fd5b509294509297509560ff6097541661586a57855b845181101561576e576156af81866149f0565b516156ba828b6149f0565b519080895260fb6020818152898b2054928484106156eb578b525287892091900390556156e6906149c3565b61569c565b6084828c51907f08c379a00000000000000000000000000000000000000000000000000000000082526004820152602860248201527f455243313135353a206275726e20616d6f756e74206578636565647320746f7460448201527f616c537570706c790000000000000000000000000000000000000000000000006064820152fd5b5092509293949095508185526020606581528486208487528152848620548281106157e85790828493928896958752606583528787208688528352038686205585519283528201527fc3d58168c5ae7397731d063d5bbf3d657854427343f4c083240f7aacaa2d0f62843392a4516157e5816140e1565b52565b6084828751907f08c379a000000000000000000000000000000000000000000000000000000000825260048201526024808201527f455243313135353a206275726e20616d6f756e7420657863656564732062616c60448201527f616e6365000000000000000000000000000000000000000000000000000000006064820152fd5b608485517f08c379a000000000000000000000000000000000000000000000000000000000815260206004820152602c60248201527f455243313135355061757361626c653a20746f6b656e207472616e736665722060448201527f7768696c652070617573656400000000000000000000000000000000000000006064820152fd5b60846040517f08c379a000000000000000000000000000000000000000000000000000000000815260206004820152602360248201527f455243313135353a206275726e2066726f6d20746865207a65726f206164647260448201527f65737300000000000000000000000000000000000000000000000000000000006064820152fd5b1561597857565b60846040517f08c379a000000000000000000000000000000000000000000000000000000000815260206004820152602f60248201527f455243313135353a2063616c6c6572206973206e6f7420746f6b656e206f776e60448201527f6572206e6f7220617070726f76656400000000000000000000000000000000006064820152fd5b15615a0357565b60846040517f08c379a000000000000000000000000000000000000000000000000000000000815260206004820152602560248201527f455243313135353a207472616e7366657220746f20746865207a65726f20616460448201527f64726573730000000000000000000000000000000000000000000000000000006064820152fd5b15615a8e57565b60846040517f08c379a000000000000000000000000000000000000000000000000000000000815260206004820152602a60248201527f455243313135353a20696e73756666696369656e742062616c616e636520666f60448201527f72207472616e73666572000000000000000000000000000000000000000000006064820152fd5b906000918083526101926020526040832060018101549081421015600014615b55575050825260fb6020526040822054915b50808210615b50575090565b905090565b615b6181548093614dc9565b91804210600014615b785750505050815b91615b44565b615376615b8f615b9695600261241e950154615b9b565b9142614dc9565b615b72565b61523e9160005260fb60205260406000205490614b2b56fea2646970667358221220e8ec93bdc99e840d2f9a9dd72fbaae7eff87ad69236cc5f592b60e70ae79b17564736f6c634300080f0033",
  "linkReferences": {},
  "deployedLinkReferences": {}
}