{
  "_format": "hh-sol-artifact-1",
  "contractName": "RestrictedNORI",
  "sourceName": "contracts/RestrictedNORI.sol",
  "abi": [
    {
      "inputs": [
        {
          "internalType": "string",
          "name": "array1Name",
          "type": "string"
        },
        {
          "internalType": "string",
          "name": "array2Name",
          "type": "string"
        }
      ],
      "name": "ArrayLengthMismatch",
      "type": "error"
    },
    {
      "inputs": [
        {
          "internalType": "address",
          "name": "account",
          "type": "address"
        },
        {
          "internalType": "uint256",
          "name": "scheduleId",
          "type": "uint256"
        }
      ],
      "name": "InsufficientClaimableBalance",
      "type": "error"
    },
    {
      "inputs": [
        {
          "internalType": "uint256",
          "name": "scheduleId",
          "type": "uint256"
        }
      ],
      "name": "InsufficientUnreleasedTokens",
      "type": "error"
    },
    {
      "inputs": [
        {
          "internalType": "address",
          "name": "account",
          "type": "address"
        }
      ],
      "name": "InvalidBpNoriSender",
      "type": "error"
    },
    {
      "inputs": [],
      "name": "InvalidZeroDuration",
      "type": "error"
    },
    {
      "inputs": [
        {
          "internalType": "uint256",
          "name": "scheduleId",
          "type": "uint256"
        }
      ],
      "name": "NonexistentSchedule",
      "type": "error"
    },
    {
      "inputs": [],
      "name": "RecipientCannotBeZeroAddress",
      "type": "error"
    },
    {
      "inputs": [],
      "name": "TokenSenderNotBPNORI",
      "type": "error"
    },
    {
      "anonymous": false,
      "inputs": [
        {
          "indexed": true,
          "internalType": "address",
          "name": "account",
          "type": "address"
        },
        {
          "indexed": true,
          "internalType": "address",
          "name": "operator",
          "type": "address"
        },
        {
          "indexed": false,
          "internalType": "bool",
          "name": "approved",
          "type": "bool"
        }
      ],
      "name": "ApprovalForAll",
      "type": "event"
    },
    {
      "anonymous": false,
      "inputs": [
        {
          "indexed": false,
          "internalType": "address",
          "name": "account",
          "type": "address"
        }
      ],
      "name": "Paused",
      "type": "event"
    },
    {
      "anonymous": false,
      "inputs": [
        {
          "indexed": true,
          "internalType": "bytes32",
          "name": "role",
          "type": "bytes32"
        },
        {
          "indexed": true,
          "internalType": "bytes32",
          "name": "previousAdminRole",
          "type": "bytes32"
        },
        {
          "indexed": true,
          "internalType": "bytes32",
          "name": "newAdminRole",
          "type": "bytes32"
        }
      ],
      "name": "RoleAdminChanged",
      "type": "event"
    },
    {
      "anonymous": false,
      "inputs": [
        {
          "indexed": true,
          "internalType": "bytes32",
          "name": "role",
          "type": "bytes32"
        },
        {
          "indexed": true,
          "internalType": "address",
          "name": "account",
          "type": "address"
        },
        {
          "indexed": true,
          "internalType": "address",
          "name": "sender",
          "type": "address"
        }
      ],
      "name": "RoleGranted",
      "type": "event"
    },
    {
      "anonymous": false,
      "inputs": [
        {
          "indexed": true,
          "internalType": "bytes32",
          "name": "role",
          "type": "bytes32"
        },
        {
          "indexed": true,
          "internalType": "address",
          "name": "account",
          "type": "address"
        },
        {
          "indexed": true,
          "internalType": "address",
          "name": "sender",
          "type": "address"
        }
      ],
      "name": "RoleRevoked",
      "type": "event"
    },
    {
      "anonymous": false,
      "inputs": [
        {
          "indexed": true,
          "internalType": "uint256",
          "name": "projectId",
          "type": "uint256"
        },
        {
          "indexed": false,
          "internalType": "uint256",
          "name": "startTime",
          "type": "uint256"
        },
        {
          "indexed": false,
          "internalType": "uint256",
          "name": "endTime",
          "type": "uint256"
        }
      ],
      "name": "ScheduleCreated",
      "type": "event"
    },
    {
      "anonymous": false,
      "inputs": [
        {
          "indexed": true,
          "internalType": "address",
          "name": "from",
          "type": "address"
        },
        {
          "indexed": true,
          "internalType": "address",
          "name": "to",
          "type": "address"
        },
        {
          "indexed": true,
          "internalType": "uint256",
          "name": "scheduleId",
          "type": "uint256"
        },
        {
          "indexed": false,
          "internalType": "uint256",
          "name": "quantity",
          "type": "uint256"
        }
      ],
      "name": "TokensClaimed",
      "type": "event"
    },
    {
      "anonymous": false,
      "inputs": [
        {
          "indexed": true,
          "internalType": "uint256",
          "name": "atTime",
          "type": "uint256"
        },
        {
          "indexed": true,
          "internalType": "uint256",
          "name": "removalId",
          "type": "uint256"
        },
        {
          "indexed": true,
          "internalType": "uint256",
          "name": "scheduleId",
          "type": "uint256"
        },
        {
          "indexed": false,
          "internalType": "uint256",
          "name": "quantity",
          "type": "uint256"
        }
      ],
      "name": "TokensRevoked",
      "type": "event"
    },
    {
      "anonymous": false,
      "inputs": [
        {
          "indexed": true,
          "internalType": "address",
          "name": "operator",
          "type": "address"
        },
        {
          "indexed": true,
          "internalType": "address",
          "name": "from",
          "type": "address"
        },
        {
          "indexed": true,
          "internalType": "address",
          "name": "to",
          "type": "address"
        },
        {
          "indexed": false,
          "internalType": "uint256[]",
          "name": "ids",
          "type": "uint256[]"
        },
        {
          "indexed": false,
          "internalType": "uint256[]",
          "name": "values",
          "type": "uint256[]"
        }
      ],
      "name": "TransferBatch",
      "type": "event"
    },
    {
      "anonymous": false,
      "inputs": [
        {
          "indexed": true,
          "internalType": "address",
          "name": "operator",
          "type": "address"
        },
        {
          "indexed": true,
          "internalType": "address",
          "name": "from",
          "type": "address"
        },
        {
          "indexed": true,
          "internalType": "address",
          "name": "to",
          "type": "address"
        },
        {
          "indexed": false,
          "internalType": "uint256",
          "name": "id",
          "type": "uint256"
        },
        {
          "indexed": false,
          "internalType": "uint256",
          "name": "value",
          "type": "uint256"
        }
      ],
      "name": "TransferSingle",
      "type": "event"
    },
    {
      "anonymous": false,
      "inputs": [
        {
          "indexed": false,
          "internalType": "string",
          "name": "value",
          "type": "string"
        },
        {
          "indexed": true,
          "internalType": "uint256",
          "name": "id",
          "type": "uint256"
        }
      ],
      "name": "URI",
      "type": "event"
    },
    {
      "anonymous": false,
      "inputs": [
        {
          "indexed": false,
          "internalType": "address",
          "name": "account",
          "type": "address"
        }
      ],
      "name": "Unpaused",
      "type": "event"
    },
    {
      "inputs": [],
      "name": "DEFAULT_ADMIN_ROLE",
      "outputs": [
        {
          "internalType": "bytes32",
          "name": "",
          "type": "bytes32"
        }
      ],
      "stateMutability": "view",
      "type": "function"
    },
    {
      "inputs": [],
      "name": "ERC777_TOKENS_RECIPIENT_HASH",
      "outputs": [
        {
          "internalType": "bytes32",
          "name": "",
          "type": "bytes32"
        }
      ],
      "stateMutability": "view",
      "type": "function"
    },
    {
      "inputs": [],
      "name": "PAUSER_ROLE",
      "outputs": [
        {
          "internalType": "bytes32",
          "name": "",
          "type": "bytes32"
        }
      ],
      "stateMutability": "view",
      "type": "function"
    },
    {
      "inputs": [],
      "name": "SCHEDULE_CREATOR_ROLE",
      "outputs": [
        {
          "internalType": "bytes32",
          "name": "",
          "type": "bytes32"
        }
      ],
      "stateMutability": "view",
      "type": "function"
    },
    {
      "inputs": [],
      "name": "TOKEN_DEPOSITOR_ROLE",
      "outputs": [
        {
          "internalType": "bytes32",
          "name": "",
          "type": "bytes32"
        }
      ],
      "stateMutability": "view",
      "type": "function"
    },
    {
      "inputs": [],
      "name": "TOKEN_REVOKER_ROLE",
      "outputs": [
        {
          "internalType": "bytes32",
          "name": "",
          "type": "bytes32"
        }
      ],
      "stateMutability": "view",
      "type": "function"
    },
    {
      "inputs": [
        {
          "internalType": "address",
          "name": "account",
          "type": "address"
        },
        {
          "internalType": "uint256",
          "name": "id",
          "type": "uint256"
        }
      ],
      "name": "balanceOf",
      "outputs": [
        {
          "internalType": "uint256",
          "name": "",
          "type": "uint256"
        }
      ],
      "stateMutability": "view",
      "type": "function"
    },
    {
      "inputs": [
        {
          "internalType": "address[]",
          "name": "accounts",
          "type": "address[]"
        },
        {
          "internalType": "uint256[]",
          "name": "ids",
          "type": "uint256[]"
        }
      ],
      "name": "balanceOfBatch",
      "outputs": [
        {
          "internalType": "uint256[]",
          "name": "",
          "type": "uint256[]"
        }
      ],
      "stateMutability": "view",
      "type": "function"
    },
    {
      "inputs": [
        {
          "internalType": "address",
          "name": "account",
          "type": "address"
        }
      ],
      "name": "batchGetScheduleDetailsForAccount",
      "outputs": [
        {
          "components": [
            {
              "internalType": "address",
              "name": "tokenHolder",
              "type": "address"
            },
            {
              "internalType": "uint256",
              "name": "scheduleTokenId",
              "type": "uint256"
            },
            {
              "internalType": "uint256",
              "name": "balance",
              "type": "uint256"
            },
            {
              "internalType": "uint256",
              "name": "claimableAmount",
              "type": "uint256"
            },
            {
              "internalType": "uint256",
              "name": "claimedAmount",
              "type": "uint256"
            },
            {
              "internalType": "uint256",
              "name": "quantityRevoked",
              "type": "uint256"
            },
            {
              "internalType": "bool",
              "name": "exists",
              "type": "bool"
            }
          ],
          "internalType": "struct RestrictedNORI.ScheduleDetailForAddress[]",
          "name": "",
          "type": "tuple[]"
        }
      ],
      "stateMutability": "view",
      "type": "function"
    },
    {
      "inputs": [
        {
          "internalType": "uint256[]",
          "name": "scheduleIds",
          "type": "uint256[]"
        }
      ],
      "name": "batchGetScheduleSummaries",
      "outputs": [
        {
          "components": [
            {
              "internalType": "uint256",
              "name": "scheduleTokenId",
              "type": "uint256"
            },
            {
              "internalType": "uint256",
              "name": "startTime",
              "type": "uint256"
            },
            {
              "internalType": "uint256",
              "name": "endTime",
              "type": "uint256"
            },
            {
              "internalType": "uint256",
              "name": "totalSupply",
              "type": "uint256"
            },
            {
              "internalType": "uint256",
              "name": "totalClaimableAmount",
              "type": "uint256"
            },
            {
              "internalType": "uint256",
              "name": "totalClaimedAmount",
              "type": "uint256"
            },
            {
              "internalType": "uint256",
              "name": "totalQuantityRevoked",
              "type": "uint256"
            },
            {
              "internalType": "address[]",
              "name": "tokenHolders",
              "type": "address[]"
            },
            {
              "internalType": "bool",
              "name": "exists",
              "type": "bool"
            }
          ],
          "internalType": "struct RestrictedNORI.ScheduleSummary[]",
          "name": "",
          "type": "tuple[]"
        }
      ],
      "stateMutability": "view",
      "type": "function"
    },
    {
      "inputs": [
        {
          "internalType": "address[]",
          "name": "toAccounts",
          "type": "address[]"
        },
        {
          "internalType": "uint256[]",
          "name": "removalIds",
          "type": "uint256[]"
        },
        {
          "internalType": "uint256[]",
          "name": "amounts",
          "type": "uint256[]"
        }
      ],
      "name": "batchRevokeUnreleasedTokenAmounts",
      "outputs": [],
      "stateMutability": "nonpayable",
      "type": "function"
    },
    {
      "inputs": [
        {
          "internalType": "uint256",
          "name": "scheduleId",
          "type": "uint256"
        }
      ],
      "name": "claimableBalanceForSchedule",
      "outputs": [
        {
          "internalType": "uint256",
          "name": "",
          "type": "uint256"
        }
      ],
      "stateMutability": "view",
      "type": "function"
    },
    {
      "inputs": [
        {
          "internalType": "uint256",
          "name": "scheduleId",
          "type": "uint256"
        },
        {
          "internalType": "address",
          "name": "account",
          "type": "address"
        }
      ],
      "name": "claimableBalanceForScheduleForAccount",
      "outputs": [
        {
          "internalType": "uint256",
          "name": "",
          "type": "uint256"
        }
      ],
      "stateMutability": "view",
      "type": "function"
    },
    {
      "inputs": [
        {
          "internalType": "uint256",
          "name": "projectId",
          "type": "uint256"
        }
      ],
      "name": "createSchedule",
      "outputs": [],
      "stateMutability": "nonpayable",
      "type": "function"
    },
    {
      "inputs": [
        {
          "internalType": "uint256",
          "name": "id",
          "type": "uint256"
        }
      ],
      "name": "exists",
      "outputs": [
        {
          "internalType": "bool",
          "name": "",
          "type": "bool"
        }
      ],
      "stateMutability": "view",
      "type": "function"
    },
    {
      "inputs": [],
      "name": "getAllScheduleIds",
      "outputs": [
        {
          "internalType": "uint256[]",
          "name": "",
          "type": "uint256[]"
        }
      ],
      "stateMutability": "view",
      "type": "function"
    },
    {
      "inputs": [
        {
          "internalType": "uint256",
          "name": "methodology",
          "type": "uint256"
        },
        {
          "internalType": "uint256",
          "name": "methodologyVersion",
          "type": "uint256"
        }
      ],
      "name": "getRestrictionDurationForMethodologyAndVersion",
      "outputs": [
        {
          "internalType": "uint256",
          "name": "",
          "type": "uint256"
        }
      ],
      "stateMutability": "view",
      "type": "function"
    },
    {
      "inputs": [
        {
          "internalType": "bytes32",
          "name": "role",
          "type": "bytes32"
        }
      ],
      "name": "getRoleAdmin",
      "outputs": [
        {
          "internalType": "bytes32",
          "name": "",
          "type": "bytes32"
        }
      ],
      "stateMutability": "view",
      "type": "function"
    },
    {
      "inputs": [
        {
          "internalType": "bytes32",
          "name": "role",
          "type": "bytes32"
        },
        {
          "internalType": "uint256",
          "name": "index",
          "type": "uint256"
        }
      ],
      "name": "getRoleMember",
      "outputs": [
        {
          "internalType": "address",
          "name": "",
          "type": "address"
        }
      ],
      "stateMutability": "view",
      "type": "function"
    },
    {
      "inputs": [
        {
          "internalType": "bytes32",
          "name": "role",
          "type": "bytes32"
        }
      ],
      "name": "getRoleMemberCount",
      "outputs": [
        {
          "internalType": "uint256",
          "name": "",
          "type": "uint256"
        }
      ],
      "stateMutability": "view",
      "type": "function"
    },
    {
      "inputs": [
        {
          "internalType": "address",
          "name": "account",
          "type": "address"
        },
        {
          "internalType": "uint256",
          "name": "scheduleId",
          "type": "uint256"
        }
      ],
      "name": "getScheduleDetailForAccount",
      "outputs": [
        {
          "components": [
            {
              "internalType": "address",
              "name": "tokenHolder",
              "type": "address"
            },
            {
              "internalType": "uint256",
              "name": "scheduleTokenId",
              "type": "uint256"
            },
            {
              "internalType": "uint256",
              "name": "balance",
              "type": "uint256"
            },
            {
              "internalType": "uint256",
              "name": "claimableAmount",
              "type": "uint256"
            },
            {
              "internalType": "uint256",
              "name": "claimedAmount",
              "type": "uint256"
            },
            {
              "internalType": "uint256",
              "name": "quantityRevoked",
              "type": "uint256"
            },
            {
              "internalType": "bool",
              "name": "exists",
              "type": "bool"
            }
          ],
          "internalType": "struct RestrictedNORI.ScheduleDetailForAddress",
          "name": "",
          "type": "tuple"
        }
      ],
      "stateMutability": "view",
      "type": "function"
    },
    {
      "inputs": [
        {
          "internalType": "address",
          "name": "account",
          "type": "address"
        }
      ],
      "name": "getScheduleIdsForAccount",
      "outputs": [
        {
          "internalType": "uint256[]",
          "name": "",
          "type": "uint256[]"
        }
      ],
      "stateMutability": "view",
      "type": "function"
    },
    {
      "inputs": [
        {
          "internalType": "uint256",
          "name": "scheduleId",
          "type": "uint256"
        }
      ],
      "name": "getScheduleSummary",
      "outputs": [
        {
          "components": [
            {
              "internalType": "uint256",
              "name": "scheduleTokenId",
              "type": "uint256"
            },
            {
              "internalType": "uint256",
              "name": "startTime",
              "type": "uint256"
            },
            {
              "internalType": "uint256",
              "name": "endTime",
              "type": "uint256"
            },
            {
              "internalType": "uint256",
              "name": "totalSupply",
              "type": "uint256"
            },
            {
              "internalType": "uint256",
              "name": "totalClaimableAmount",
              "type": "uint256"
            },
            {
              "internalType": "uint256",
              "name": "totalClaimedAmount",
              "type": "uint256"
            },
            {
              "internalType": "uint256",
              "name": "totalQuantityRevoked",
              "type": "uint256"
            },
            {
              "internalType": "address[]",
              "name": "tokenHolders",
              "type": "address[]"
            },
            {
              "internalType": "bool",
              "name": "exists",
              "type": "bool"
            }
          ],
          "internalType": "struct RestrictedNORI.ScheduleSummary",
          "name": "",
          "type": "tuple"
        }
      ],
      "stateMutability": "view",
      "type": "function"
    },
    {
      "inputs": [
        {
          "internalType": "bytes32",
          "name": "role",
          "type": "bytes32"
        },
        {
          "internalType": "address",
          "name": "account",
          "type": "address"
        }
      ],
      "name": "grantRole",
      "outputs": [],
      "stateMutability": "nonpayable",
      "type": "function"
    },
    {
      "inputs": [
        {
          "internalType": "bytes32",
          "name": "role",
          "type": "bytes32"
        },
        {
          "internalType": "address",
          "name": "account",
          "type": "address"
        }
      ],
      "name": "hasRole",
      "outputs": [
        {
          "internalType": "bool",
          "name": "",
          "type": "bool"
        }
      ],
      "stateMutability": "view",
      "type": "function"
    },
    {
      "inputs": [],
      "name": "initialize",
      "outputs": [],
      "stateMutability": "nonpayable",
      "type": "function"
    },
    {
      "inputs": [
        {
          "internalType": "address",
          "name": "account",
          "type": "address"
        },
        {
          "internalType": "address",
          "name": "operator",
          "type": "address"
        }
      ],
      "name": "isApprovedForAll",
      "outputs": [
        {
          "internalType": "bool",
          "name": "",
          "type": "bool"
        }
      ],
      "stateMutability": "view",
      "type": "function"
    },
    {
      "inputs": [],
      "name": "pause",
      "outputs": [],
      "stateMutability": "nonpayable",
      "type": "function"
    },
    {
      "inputs": [],
      "name": "paused",
      "outputs": [
        {
          "internalType": "bool",
          "name": "",
          "type": "bool"
        }
      ],
      "stateMutability": "view",
      "type": "function"
    },
    {
      "inputs": [
        {
          "internalType": "address",
          "name": "bridgedPolygonNoriAddress",
          "type": "address"
        },
        {
          "internalType": "address",
          "name": "removalAddress",
          "type": "address"
        }
      ],
      "name": "registerContractAddresses",
      "outputs": [],
      "stateMutability": "nonpayable",
      "type": "function"
    },
    {
      "inputs": [
        {
          "internalType": "bytes32",
          "name": "role",
          "type": "bytes32"
        },
        {
          "internalType": "address",
          "name": "account",
          "type": "address"
        }
      ],
      "name": "renounceRole",
      "outputs": [],
      "stateMutability": "nonpayable",
      "type": "function"
    },
    {
      "inputs": [
        {
          "internalType": "uint256",
          "name": "scheduleId",
          "type": "uint256"
        }
      ],
      "name": "revocableQuantityForSchedule",
      "outputs": [
        {
          "internalType": "uint256",
          "name": "",
          "type": "uint256"
        }
      ],
      "stateMutability": "view",
      "type": "function"
    },
    {
      "inputs": [
        {
          "internalType": "bytes32",
          "name": "role",
          "type": "bytes32"
        },
        {
          "internalType": "address",
          "name": "account",
          "type": "address"
        }
      ],
      "name": "revokeRole",
      "outputs": [],
      "stateMutability": "nonpayable",
      "type": "function"
    },
    {
      "inputs": [
        {
          "internalType": "address",
          "name": "from",
          "type": "address"
        },
        {
          "internalType": "address",
          "name": "to",
          "type": "address"
        },
        {
          "internalType": "uint256[]",
          "name": "ids",
          "type": "uint256[]"
        },
        {
          "internalType": "uint256[]",
          "name": "amounts",
          "type": "uint256[]"
        },
        {
          "internalType": "bytes",
          "name": "data",
          "type": "bytes"
        }
      ],
      "name": "safeBatchTransferFrom",
      "outputs": [],
      "stateMutability": "nonpayable",
      "type": "function"
    },
    {
      "inputs": [
        {
          "internalType": "address",
          "name": "from",
          "type": "address"
        },
        {
          "internalType": "address",
          "name": "to",
          "type": "address"
        },
        {
          "internalType": "uint256",
          "name": "id",
          "type": "uint256"
        },
        {
          "internalType": "uint256",
          "name": "amount",
          "type": "uint256"
        },
        {
          "internalType": "bytes",
          "name": "data",
          "type": "bytes"
        }
      ],
      "name": "safeTransferFrom",
      "outputs": [],
      "stateMutability": "nonpayable",
      "type": "function"
    },
    {
      "inputs": [
        {
          "internalType": "address",
          "name": "operator",
          "type": "address"
        },
        {
          "internalType": "bool",
          "name": "approved",
          "type": "bool"
        }
      ],
      "name": "setApprovalForAll",
      "outputs": [],
      "stateMutability": "nonpayable",
      "type": "function"
    },
    {
      "inputs": [
        {
          "internalType": "uint256",
          "name": "methodology",
          "type": "uint256"
        },
        {
          "internalType": "uint256",
          "name": "methodologyVersion",
          "type": "uint256"
        },
        {
          "internalType": "uint256",
          "name": "durationInSeconds",
          "type": "uint256"
        }
      ],
      "name": "setRestrictionDurationForMethodologyAndVersion",
      "outputs": [],
      "stateMutability": "nonpayable",
      "type": "function"
    },
    {
      "inputs": [
        {
          "internalType": "bytes4",
          "name": "interfaceId",
          "type": "bytes4"
        }
      ],
      "name": "supportsInterface",
      "outputs": [
        {
          "internalType": "bool",
          "name": "",
          "type": "bool"
        }
      ],
      "stateMutability": "view",
      "type": "function"
    },
    {
      "inputs": [
        {
          "internalType": "address",
          "name": "",
          "type": "address"
        },
        {
          "internalType": "address",
          "name": "from",
          "type": "address"
        },
        {
          "internalType": "address",
          "name": "",
          "type": "address"
        },
        {
          "internalType": "uint256",
          "name": "amount",
          "type": "uint256"
        },
        {
          "internalType": "bytes",
          "name": "userData",
          "type": "bytes"
        },
        {
          "internalType": "bytes",
          "name": "operatorData",
          "type": "bytes"
        }
      ],
      "name": "tokensReceived",
      "outputs": [],
      "stateMutability": "nonpayable",
      "type": "function"
    },
    {
      "inputs": [
        {
          "internalType": "uint256",
          "name": "id",
          "type": "uint256"
        }
      ],
      "name": "totalSupply",
      "outputs": [
        {
          "internalType": "uint256",
          "name": "",
          "type": "uint256"
        }
      ],
      "stateMutability": "view",
      "type": "function"
    },
    {
      "inputs": [],
      "name": "unpause",
      "outputs": [],
      "stateMutability": "nonpayable",
      "type": "function"
    },
    {
      "inputs": [
        {
          "internalType": "uint256",
          "name": "",
          "type": "uint256"
        }
      ],
      "name": "uri",
      "outputs": [
        {
          "internalType": "string",
          "name": "",
          "type": "string"
        }
      ],
      "stateMutability": "view",
      "type": "function"
    },
    {
      "inputs": [
        {
          "internalType": "address",
          "name": "recipient",
          "type": "address"
        },
        {
          "internalType": "uint256",
          "name": "scheduleId",
          "type": "uint256"
        },
        {
          "internalType": "uint256",
          "name": "amount",
          "type": "uint256"
        }
      ],
      "name": "withdrawFromSchedule",
      "outputs": [
        {
          "internalType": "bool",
          "name": "",
          "type": "bool"
        }
      ],
      "stateMutability": "nonpayable",
      "type": "function"
    }
  ],
  "bytecode": "0x608060405234801561001057600080fd5b5061483e806100206000396000f3fe608060405234801561001057600080fd5b50600436106102675760003560e01c80636334334611610151578063b8b4dbe0116100c3578063dfd2cdee11610087578063dfd2cdee1461060d578063e01d739314610620578063e63ab1e914610633578063e985e9c514610648578063f242432a14610684578063f6f57a2e1461069757600080fd5b8063b8b4dbe01461058d578063bd85b039146105b4578063c1499fa8146105d4578063ca15c873146105e7578063d547741f146105fa57600080fd5b80639010d07c116101155780639010d07c146104f557806391d148541461052057806393ae796d146105335780639ac7b44d14610546578063a217fddf14610572578063a22cb4651461057a57600080fd5b806363343346146104aa578063639aa0ad146104b2578063713279b1146104d25780638129fc1c146104e55780638456cb59146104ed57600080fd5b80632eb2c2d6116101ea5780634e1273f4116101ae5780634e1273f4146104105780634f558e7914610430578063521189a9146104525780635c975abb146104795780635d37165a146104845780636235a4e91461049757600080fd5b80632eb2c2d6146103af5780632f2ff15d146103c257806336568abe146103d557806336e4d3f0146103e85780633f4ba83a1461040857600080fd5b8063229afd6111610231578063229afd6114610311578063248a9ca31461033857806327ca0c271461035c5780632d9f0f161461036f5780632e5e8d831461038f57600080fd5b806223de291461026c578062fdd58e1461028157806301ffc9a7146102a75780630a517033146102ca5780630e89341c146102f1575b600080fd5b61027f61027a3660046138d1565b6106aa565b005b61029461028f366004613981565b6107c7565b6040519081526020015b60405180910390f35b6102ba6102b53660046139c3565b61085e565b604051901515815260200161029e565b6102947ff9a119238c936e6f3d82da4fb22453b193301ed5112da5462cc202e164e889fd81565b6103046102ff3660046139e0565b610869565b60405161029e9190613a55565b6102947fb62aeb2ef35a3718e51a7e8b0b0d8e6fa690a4037bf45dad308976da469a861c81565b6102946103463660046139e0565b600090815261012d602052604090206001015490565b6102ba61036a366004613a68565b6108fd565b61038261037d366004613ae1565b610a1b565b60405161029e9190613bd1565b6103a261039d3660046139e0565b610ad7565b60405161029e9190613c33565b61027f6103bd366004613d8f565b610c94565b61027f6103d0366004613e3c565b610e06565b61027f6103e3366004613e3c565b610e32565b6103fb6103f6366004613e6c565b610eb0565b60405161029e9190613ed5565b61027f610fa4565b61042361041e366004613f23565b610fc8565b60405161029e919061402a565b6102ba61043e3660046139e0565b600090815260fb6020526040902054151590565b6102947fb281fc8c12954d22544db45de3159a39272895b169a852b314f9cc762e44c53b81565b60975460ff166102ba565b610294610492366004613e3c565b6110dc565b6102946104a53660046139e0565b611196565b6104236111f1565b6104c56104c0366004613981565b611290565b60405161029e919061403d565b6102946104e03660046139e0565b611332565b61027f611385565b61027f6115a7565b61050861050336600461404b565b6115c8565b6040516001600160a01b03909116815260200161029e565b6102ba61052e366004613e3c565b6115e1565b61027f61054136600461406d565b61160d565b61029461055436600461404b565b60009182526101916020908152604080842092845291905290205490565b610294600081565b61027f61058836600461409b565b61164a565b6102947f813b9efdf6afe6b57682eb1fb850711edc34da21ae7f7376cb7a391b1be3239f81565b6102946105c23660046139e0565b600090815260fb602052604090205490565b61027f6105e23660046140ce565b611655565b6102946105f53660046139e0565b6116c3565b61027f610608366004613e3c565b6116db565b61042361061b366004613e6c565b611702565b61027f61062e3660046140fa565b611727565b6102946000805160206147e983398151915281565b6102ba61065636600461406d565b6001600160a01b03918216600090815260666020908152604080832093909416825291909152205460ff1690565b61027f610692366004614193565b61183d565b61027f6106a53660046139e0565b6118dd565b610196546001600160a01b0316336001600160a01b0316146106df57604051634628d20b60e01b815260040160405180910390fd5b6107097ff9a119238c936e6f3d82da4fb22453b193301ed5112da5462cc202e164e889fd886115e1565b61073657604051630465c5db60e41b81526001600160a01b03881660048201526024015b60405180910390fd5b6000610744848601866139e0565b90506107bb818787878080601f01602080910402602001604051908101604052809392919081815260200183838082843760009201919091525050604080516020601f8b01819004810282018101909252898152925089915088908190840183828082843760009201919091525061194e92505050565b50505050505050505050565b60006001600160a01b0383166108335760405162461bcd60e51b815260206004820152602b60248201527f455243313135353a2062616c616e636520717565727920666f7220746865207a60448201526a65726f206164647265737360a81b606482015260840161072d565b5060008181526065602090815260408083206001600160a01b03861684529091529020545b92915050565b600061085882611ace565b606060678054610878906141fb565b80601f01602080910402602001604051908101604052809291908181526020018280546108a4906141fb565b80156108f15780601f106108c6576101008083540402835291602001916108f1565b820191906000526020600020905b8154815290600101906020018083116108d457829003601f168201915b50505050509050919050565b600061090a338484611af3565b6000838152610193602052604081206002810180549192859261092e908490614245565b909155505033600090815260088201602052604081208054859290610954908490614245565b909155505060405183815284906001600160a01b0387169033907fff097c7d8b1957a4ff09ef1361b5fb54dcede3941ba836d0beb9d10bec725de69060200160405180910390a461019654604051634decdde360e11b81526001600160a01b03878116600483015260248201869052606060448301526000606483015290911690639bd9bbc690608401600060405180830381600087803b1580156109f857600080fd5b505af1158015610a0c573d6000803e3d6000fd5b50600198975050505050505050565b60606000826001600160401b03811115610a3757610a37613c46565b604051908082528060200260200182016040528015610a7057816020015b610a5d613745565b815260200190600190039081610a555790505b50905060005b83811015610acf57610a9f858583818110610a9357610a9361425d565b90506020020135610ad7565b828281518110610ab157610ab161425d565b60200260200101819052508080610ac790614273565b915050610a76565b509392505050565b610adf613745565b60008281526101936020526040812090610afb60068301611c70565b90506000816001600160401b03811115610b1757610b17613c46565b604051908082528060200260200182016040528015610b40578160200160208202803683370190505b5090506000826001600160401b03811115610b5d57610b5d613c46565b604051908082528060200260200182016040528015610b86578160200160208202803683370190505b50905060005b610b9885600601611c70565b811015610c0e57610bac6006860182611c7a565b838281518110610bbe57610bbe61425d565b60200260200101906001600160a01b031690816001600160a01b03168152505086828281518110610bf157610bf161425d565b602090810291909101015280610c0681614273565b915050610b8c565b506040518061012001604052808781526020018560000154815260200185600101548152602001610c4b88600090815260fb602052604090205490565b8152602001610c5988611196565b81526002860154602082015260048601546040820152606081019390935260039094015460ff16151560809092019190915250909392505050565b610ca18585858585611c86565b60005b8351811015610dfe5760006101936000868481518110610cc657610cc661425d565b602002602001015181526020019081526020016000209050838281518110610cf057610cf061425d565b6020026020010151600014610d6057610d50858381518110610d1457610d1461425d565b60200260200101516101926000896001600160a01b03166001600160a01b03168152602001908152602001600020611d1d90919063ffffffff16565b50610d5e6006820187611d29565b505b610d8387868481518110610d7657610d7661425d565b60200260200101516107c7565b600003610deb57610ddb858381518110610d9f57610d9f61425d565b602002602001015161019260008a6001600160a01b03166001600160a01b03168152602001908152602001600020611d3e90919063ffffffff16565b50610de96006820188611d4a565b505b5080610df681614273565b915050610ca4565b505050505050565b600082815261012d6020526040902060010154610e238133611d5f565b610e2d8383611dc3565b505050565b6001600160a01b0381163314610ea25760405162461bcd60e51b815260206004820152602f60248201527f416363657373436f6e74726f6c3a2063616e206f6e6c792072656e6f756e636560448201526e103937b632b9903337b91039b2b63360891b606482015260840161072d565b610eac8282611de6565b5050565b6001600160a01b038116600090815261019260205260408120606091610ed582611c70565b6001600160401b03811115610eec57610eec613c46565b604051908082528060200260200182016040528015610f2557816020015b610f12613793565b815260200190600190039081610f0a5790505b50905060005b610f3483611c70565b811015610acf576101936000610f4a8584611c7a565b815260208101919091526040016000206003015460ff1615610f9257610f74856104c08584611c7a565b828281518110610f8657610f8661425d565b60200260200101819052505b80610f9c81614273565b915050610f2b565b6000805160206147e9833981519152610fbd8133611d5f565b610fc5611e09565b50565b6060815183511461102d5760405162461bcd60e51b815260206004820152602960248201527f455243313135353a206163636f756e747320616e6420696473206c656e677468604482015268040dad2e6dac2e8c6d60bb1b606482015260840161072d565b600083516001600160401b0381111561104857611048613c46565b604051908082528060200260200182016040528015611071578160200160208202803683370190505b50905060005b8451811015610acf576110af8582815181106110955761109561425d565b6020026020010151858381518110610d7657610d7661425d565b8282815181106110c1576110c161425d565b60209081029190910101526110d581614273565b9050611077565b600082815261019360205260408120600281015482906110fc9086611e9c565b9050600061110a85876107c7565b90506000821580611119575081155b156111265750600061118c565b6001600160a01b03861660009081526008850160205260408120549061114b89611196565b9050818587600201548361115f9190614245565b6111698786614245565b611173919061428c565b61117d91906142ab565b61118791906142cd565b925050505b9695505050505050565b600081815261019360205260408120600381015460ff166111cd576040516325f8781760e01b81526004810184905260240161072d565b80600201546111e0848360050154611eb5565b6111ea91906142cd565b9392505050565b60606000611200610194611c70565b6001600160401b0381111561121757611217613c46565b604051908082528060200260200182016040528015611240578160200160208202803683370190505b50905060005b815181101561128a5761125b61019482611c7a565b82828151811061126d5761126d61425d565b60209081029190910101528061128281614273565b915050611246565b50919050565b611298613793565b60008281526101936020908152604091829020825160e0810184526001600160a01b03871681529182018590529181016112d286866107c7565b81526020016112e185876110dc565b81526001600160a01b038616600081815260088501602090815260408083205482860152928252600986019052819020549082015260039092015460ff161515606090920191909152905092915050565b600081815261019360205260408120600381015460ff16611369576040516325f8781760e01b81526004810184905260240161072d565b611377838260050154611eb5565b6111e0826002015485611e9c565b600054610100900460ff166113a05760005460ff16156113a4565b303b155b6114075760405162461bcd60e51b815260206004820152602e60248201527f496e697469616c697a61626c653a20636f6e747261637420697320616c72656160448201526d191e481a5b9a5d1a585b1a5e995960921b606482015260840161072d565b600054610100900460ff16158015611429576000805461ffff19166101011790555b61144a60405180606001604052806032815260200161477d60329139611ec9565b611452611ef9565b61145a611ef9565b611462611ef9565b61146a611ef9565b611472611f22565b61147a611ef9565b611485600033611f55565b61149d6000805160206147e983398151915233611f55565b6114c77fb62aeb2ef35a3718e51a7e8b0b0d8e6fa690a4037bf45dad308976da469a861c33611f55565b6114f17f813b9efdf6afe6b57682eb1fb850711edc34da21ae7f7376cb7a391b1be3239f33611f55565b611502600160006312cf3570611655565b6040516329965a1d60e01b815230600482018190527fb281fc8c12954d22544db45de3159a39272895b169a852b314f9cc762e44c53b60248301526044820152731820a4b7618bde71dce8cdc73aab6c95905fad24906329965a1d90606401600060405180830381600087803b15801561157b57600080fd5b505af115801561158f573d6000803e3d6000fd5b505050508015610fc5576000805461ff001916905550565b6000805160206147e98339815191526115c08133611d5f565b610fc5611f5f565b600082815261015f602052604081206111ea9083611c7a565b600091825261012d602090815260408084206001600160a01b0393909316845291905290205460ff1690565b60006116198133611d5f565b5061019680546001600160a01b039384166001600160a01b0319918216179091556101978054929093169116179055565b610eac338383611fb7565b60975460ff16156116785760405162461bcd60e51b815260040161072d906142e4565b60006116848133611d5f565b816000036116a55760405163263ad04960e21b815260040160405180910390fd5b50600092835261019160209081526040808520938552929052912055565b600081815261015f6020526040812061085890611c70565b600082815261012d60205260409020600101546116f88133611d5f565b610e2d8383611de6565b6001600160a01b03811660009081526101926020526040902060609061085890612097565b60975460ff161561174a5760405162461bcd60e51b815260040161072d906142e4565b7f813b9efdf6afe6b57682eb1fb850711edc34da21ae7f7376cb7a391b1be3239f6117758133611d5f565b8584146117955760405163616c411360e01b815260040161072d9061430e565b8582146117b55760405163616c411360e01b815260040161072d90614363565b60005b86811015611833576118218888838181106117d5576117d561425d565b90506020020160208101906117ea9190613e6c565b8787848181106117fc576117fc61425d565b905060200201358686858181106118155761181561425d565b905060200201356120a4565b8061182b81614273565b9150506117b8565b5050505050505050565b61184a85858585856124f1565b6000838152610193602052604090208215611892576001600160a01b0385166000908152610192602052604090206118829085611d1d565b506118906006820186611d29565b505b61189c86856107c7565b600003610dfe576001600160a01b0386166000908152610192602052604090206118c69085611d3e565b506118d46006820187611d4a565b50505050505050565b60975460ff16156119005760405162461bcd60e51b815260040161072d906142e4565b7fb62aeb2ef35a3718e51a7e8b0b0d8e6fa690a4037bf45dad308976da469a861c61192b8133611d5f565b6000828152610193602052604090206003015460ff16610eac57610eac82612578565b61019754604051631c1f852760e31b81526004810186905260009182916001600160a01b039091169063e0fc293890602401602060405180830381865afa15801561199d573d6000803e3d6000fd5b505050506040513d601f19601f820116820180604052508101906119c191906143b5565b610197546040516399d5121b60e01b8152600481018390529192506000916001600160a01b03909116906399d5121b90602401608060405180830381865afa158015611a11573d6000803e3d6000fd5b505050506040513d601f19601f82011682018060405250810190611a3591906143ce565b60208082015160008581526101939092526040909120600301549192509060ff16611a6357611a6383612578565b611a7e818489604051806020016040528060008152506127c3565b600083815261019360205260409020611a9a6006820183611d29565b506001600160a01b038216600090815261019260205260409020611abe9085611d1d565b5060019998505050505050505050565b60006001600160e01b03198216635a05180f60e01b14806108585750610858826128fa565b6001600160a01b038316611b555760405162461bcd60e51b815260206004820152602360248201527f455243313135353a206275726e2066726f6d20746865207a65726f206164647260448201526265737360e81b606482015260840161072d565b33611b8481856000611b668761291f565b611b6f8761291f565b6040518060200160405280600081525061296a565b60008381526065602090815260408083206001600160a01b038816845290915290205482811015611c035760405162461bcd60e51b8152602060048201526024808201527f455243313135353a206275726e20616d6f756e7420657863656564732062616c604482015263616e636560e01b606482015260840161072d565b60008481526065602090815260408083206001600160a01b03898116808652918452828520888703905582518981529384018890529092908616917fc3d58168c5ae7397731d063d5bbf3d657854427343f4c083240f7aacaa2d0f62910160405180910390a45050505050565b6000610858825490565b60006111ea8383612a6a565b6001600160a01b038516331480611ca25750611ca28533610656565b611d095760405162461bcd60e51b815260206004820152603260248201527f455243313135353a207472616e736665722063616c6c6572206973206e6f74206044820152711bdddb995c881b9bdc88185c1c1c9bdd995960721b606482015260840161072d565b611d168585858585612a94565b5050505050565b60006111ea8383612c7a565b60006111ea836001600160a01b038416612c7a565b60006111ea8383612cc9565b60006111ea836001600160a01b038416612cc9565b611d6982826115e1565b610eac57611d81816001600160a01b03166014612dbc565b611d8c836020612dbc565b604051602001611d9d929190614439565b60408051601f198184030181529082905262461bcd60e51b825261072d91600401613a55565b611dcd8282612f57565b600082815261015f60205260409020610e2d9082611d29565b611df08282612fde565b600082815261015f60205260409020610e2d9082611d4a565b60975460ff16611e525760405162461bcd60e51b815260206004820152601460248201527314185d5cd8589b194e881b9bdd081c185d5cd95960621b604482015260640161072d565b6097805460ff191690557f5db9ee0a495bf2e6ff9c91a7834c1ba4fdd244a5e8aa4e537bd38aeae4b073aa335b6040516001600160a01b03909116815260200160405180910390a1565b600081815260fb60205260408120546111ea9084614245565b60006111ea611ec384613046565b836130d6565b600054610100900460ff16611ef05760405162461bcd60e51b815260040161072d906144ae565b610fc5816130ed565b600054610100900460ff16611f205760405162461bcd60e51b815260040161072d906144ae565b565b600054610100900460ff16611f495760405162461bcd60e51b815260040161072d906144ae565b6097805460ff19169055565b610eac8282611dc3565b60975460ff1615611f825760405162461bcd60e51b815260040161072d906142e4565b6097805460ff191660011790557f62e78cea01bee320cd4e420270b5ea74000d11b0c9f74754ebdbfc544b05a258611e7f3390565b816001600160a01b0316836001600160a01b03160361202a5760405162461bcd60e51b815260206004820152602960248201527f455243313135353a2073657474696e6720617070726f76616c20737461747573604482015268103337b91039b2b63360b91b606482015260840161072d565b6001600160a01b03838116600081815260666020908152604080832094871680845294825291829020805460ff191686151590811790915591519182527f17307eab39ab6107e8899845ad3d59bd9653f200f220920489ca2b5937696c31910160405180910390a3505050565b606060006111ea83613100565b61019754604051631c1f852760e31b8152600481018490526000916001600160a01b03169063e0fc293890602401602060405180830381865afa1580156120ef573d6000803e3d6000fd5b505050506040513d601f19601f8201168201806040525081019061211391906143b5565b60008181526101936020526040902060038101549192509060ff1661214e576040516325f8781760e01b81526004810183905260240161072d565b61215782611332565b83111561217a57604051630c21a50760e31b81526004810183905260240161072d565b60008084116121915761218c83611332565b612193565b835b905060006121a383600601612097565b9050600081516001600160401b038111156121c0576121c0613c46565b6040519080825280602002602001820160405280156121e9578160200160208202803683370190505b50905060005b8251811015612228578582828151811061220b5761220b61425d565b60209081029190910101528061222081614273565b9150506121ef565b50600082516001600160401b0381111561224457612244613c46565b60405190808252806020026020018201604052801561226d578160200160208202803683370190505b509050600061227c8484610fc8565b90506000805b6001865161229091906142cd565b8110156123175760006122d7888b8985815181106122b0576122b061425d565b60200260200101518786815181106122ca576122ca61425d565b602002602001015161315b565b9050808583815181106122ec576122ec61425d565b60209081029190910101526123018184614245565b925050808061230f90614273565b915050612282565b5061232281876142cd565b836001875161233191906142cd565b815181106123415761234161425d565b60200260200101818152505060005b85518110156124175761239686828151811061236e5761236e61425d565b60200260200101518a8684815181106123895761238961425d565b6020026020010151611af3565b8381815181106123a8576123a861425d565b60200260200101518860090160008884815181106123c8576123c861425d565b60200260200101516001600160a01b03166001600160a01b0316815260200190815260200160002060008282546123ff9190614245565b9091555081905061240f81614273565b915050612350565b508587600401600082825461242c9190614245565b92505081905550878a427f4b9948901911c14ff8b417db5004be639f92f11be671b8b85219c5ff809b71ba8960405161246791815260200190565b60405180910390a461019654604051634decdde360e11b81526001600160a01b038d8116600483015260248201899052606060448301526000606483015290911690639bd9bbc690608401600060405180830381600087803b1580156124cc57600080fd5b505af11580156124e0573d6000803e3d6000fd5b505050505050505050505050505050565b6001600160a01b03851633148061250d575061250d8533610656565b61256b5760405162461bcd60e51b815260206004820152602960248201527f455243313135353a2063616c6c6572206973206e6f74206f776e6572206e6f7260448201526808185c1c1c9bdd995960ba1b606482015260840161072d565b611d1685858585856131e1565b610197546040516399d5121b60e01b8152600481018390526000916001600160a01b0316906399d5121b90602401608060405180830381865afa1580156125c3573d6000803e3d6000fd5b505050506040513d601f19601f820116820180604052508101906125e791906143ce565b805190915060000361263b5760405162461bcd60e51b815260206004820152601860248201527f496e76616c69645363686564756c65537461727454696d650000000000000000604482015260640161072d565b60208101516001600160a01b03811661266757604051636c38382960e11b815260040160405180910390fd5b61267361019484611d1d565b6126b15760405162461bcd60e51b815260206004820152600f60248201526e5363686564756c652065786973747360881b604482015260640161072d565b600083815261019360209081526040808320858201516060870151908552610191845282852090855290925282205490918190036127315760405162461bcd60e51b815260206004820152601c60248201527f5265737472696374696f6e206475726174696f6e206e6f742073657400000000604482015260640161072d565b6001600160a01b0383166000908152610192602052604090206127549086611d1d565b60038301805460ff19169115159190911790558351808355612777908290614245565b60018301819055825460408051918252602082019290925286917fc6bf85d136b95579125a47c9781847cacd55015777db8a853dd17946aed35fb2910160405180910390a25050505050565b6001600160a01b0384166128235760405162461bcd60e51b815260206004820152602160248201527f455243313135353a206d696e7420746f20746865207a65726f206164647265736044820152607360f81b606482015260840161072d565b60003390506128496040518060600160405280603a81526020016147af603a91396132f9565b612868816000876128598861291f565b6128628861291f565b8761296a565b60008481526065602090815260408083206001600160a01b03891684529091528120805485929061289a908490614245565b909155505060408051858152602081018590526001600160a01b0380881692600092918516917fc3d58168c5ae7397731d063d5bbf3d657854427343f4c083240f7aacaa2d0f62910160405180910390a4611d168160008787878761333c565b60006001600160e01b03198216637965db0b60e01b1480610858575061085882613497565b604080516001808252818301909252606091600091906020808301908036833701905050905082816000815181106129595761295961425d565b602090810291909101015292915050565b6001600160a01b0384161560008180156129955750876001600160a01b0316876001600160a01b0316145b90508115612a5c5760005b8551811015612a5a5760008682815181106129bd576129bd61425d565b602002602001015190508215612a22576129d7818a6110dc565b8683815181106129e9576129e961425d565b60200260200101511115612a225760405163e1b8b25f60e01b81526001600160a01b038a1660048201526024810182905260440161072d565b6000818152610193602052604090206005810154612a41908390611eb5565b6005909101555080612a5281614273565b9150506129a0565b505b6118338888888888886134e7565b6000826000018281548110612a8157612a8161425d565b9060005260206000200154905092915050565b8151835114612af65760405162461bcd60e51b815260206004820152602860248201527f455243313135353a2069647320616e6420616d6f756e7473206c656e677468206044820152670dad2e6dac2e8c6d60c31b606482015260840161072d565b6001600160a01b038416612b1c5760405162461bcd60e51b815260040161072d906144f9565b33612b2b81878787878761296a565b60005b8451811015612c14576000858281518110612b4b57612b4b61425d565b602002602001015190506000858381518110612b6957612b6961425d565b60209081029190910181015160008481526065835260408082206001600160a01b038e168352909352919091205490915081811015612bba5760405162461bcd60e51b815260040161072d9061453e565b60008381526065602090815260408083206001600160a01b038e8116855292528083208585039055908b16825281208054849290612bf9908490614245565b9250508190555050505080612c0d90614273565b9050612b2e565b50846001600160a01b0316866001600160a01b0316826001600160a01b03167f4a39dc06d4c0dbc64b70af90fd698a233a518aa5d07e595d983b8c0526c8f7fb8787604051612c64929190614588565b60405180910390a4610dfe818787878787613601565b6000818152600183016020526040812054612cc157508154600181810184556000848152602080822090930184905584548482528286019093526040902091909155610858565b506000610858565b60008181526001830160205260408120548015612db2576000612ced6001836142cd565b8554909150600090612d01906001906142cd565b9050818114612d66576000866000018281548110612d2157612d2161425d565b9060005260206000200154905080876000018481548110612d4457612d4461425d565b6000918252602080832090910192909255918252600188019052604090208390555b8554869080612d7757612d776145ad565b600190038181906000526020600020016000905590558560010160008681526020019081526020016000206000905560019350505050610858565b6000915050610858565b60606000612dcb83600261428c565b612dd6906002614245565b6001600160401b03811115612ded57612ded613c46565b6040519080825280601f01601f191660200182016040528015612e17576020820181803683370190505b509050600360fc1b81600081518110612e3257612e3261425d565b60200101906001600160f81b031916908160001a905350600f60fb1b81600181518110612e6157612e6161425d565b60200101906001600160f81b031916908160001a9053506000612e8584600261428c565b612e90906001614245565b90505b6001811115612f08576f181899199a1a9b1b9c1cb0b131b232b360811b85600f1660108110612ec457612ec461425d565b1a60f81b828281518110612eda57612eda61425d565b60200101906001600160f81b031916908160001a90535060049490941c93612f01816145c3565b9050612e93565b5083156111ea5760405162461bcd60e51b815260206004820181905260248201527f537472696e67733a20686578206c656e67746820696e73756666696369656e74604482015260640161072d565b612f6182826115e1565b610eac57600082815261012d602090815260408083206001600160a01b03851684529091529020805460ff19166001179055612f9a3390565b6001600160a01b0316816001600160a01b0316837f2f8788117e7eff1d82e926ec794901d17c78024a50270940304540a733656f0d60405160405180910390a45050565b612fe882826115e1565b15610eac57600082815261012d602090815260408083206001600160a01b0385168085529252808320805460ff1916905551339285917ff6391f5c32d9c69d2a47ea670b442974b53935d1edc7fd64eb21e047a839171b9190a45050565b6000818152610193602052604081206001810154829042106130775750600083815260fb60205260409020546111ea565b8154600183015460009161308a916142cd565b835490915042106130ca57825481906130a390426142cd565b6130b1856002015488611e9c565b6130bb919061428c565b6130c591906142ab565b6130cd565b60005b95945050505050565b6000818310156130e657816111ea565b5090919050565b8051610eac9060679060208401906137db565b6060816000018054806020026020016040519081016040528092919081815260200182805480156108f157602002820191906000526020600020905b81548152602001906001019080831161313c5750505050509050919050565b6000838152610193602052604081206002810154829061317b9087611e9c565b9050600081158061318a575087155b15613197575060006131d6565b6001600160a01b038616600090815260088401602052604090205482896131be8884614245565b6131c8919061428c565b6131d291906142ab565b9150505b979650505050505050565b6001600160a01b0384166132075760405162461bcd60e51b815260040161072d906144f9565b336132178187876128598861291f565b60008481526065602090815260408083206001600160a01b038a1684529091529020548381101561325a5760405162461bcd60e51b815260040161072d9061453e565b60008581526065602090815260408083206001600160a01b038b8116855292528083208785039055908816825281208054869290613299908490614245565b909155505060408051868152602081018690526001600160a01b03808916928a821692918616917fc3d58168c5ae7397731d063d5bbf3d657854427343f4c083240f7aacaa2d0f62910160405180910390a46118d482888888888861333c565b610fc58160405160240161330d9190613a55565b60408051601f198184030181529190526020810180516001600160e01b031663104c13eb60e21b1790526136bc565b6001600160a01b0384163b15610dfe5760405163f23a6e6160e01b81526001600160a01b0385169063f23a6e619061338090899089908890889088906004016145da565b6020604051808303816000875af19250505080156133bb575060408051601f3d908101601f191682019092526133b891810190614614565b60015b613467576133c7614631565b806308c379a00361340057506133db61464d565b806133e65750613402565b8060405162461bcd60e51b815260040161072d9190613a55565b505b60405162461bcd60e51b815260206004820152603460248201527f455243313135353a207472616e7366657220746f206e6f6e20455243313135356044820152732932b1b2b4bb32b91034b6b83632b6b2b73a32b960611b606482015260840161072d565b6001600160e01b0319811663f23a6e6160e01b146118d45760405162461bcd60e51b815260040161072d906146d6565b60006001600160e01b03198216636cdb3d1360e11b14806134c857506001600160e01b031982166303a24d0760e21b145b8061085857506301ffc9a760e01b6001600160e01b0319831614610858565b6134f58686868686866136dd565b6001600160a01b03851661357c5760005b835181101561357a578281815181106135215761352161425d565b602002602001015160fb600086848151811061353f5761353f61425d565b6020026020010151815260200190815260200160002060008282546135649190614245565b90915550613573905081614273565b9050613506565b505b6001600160a01b038416610dfe5760005b83518110156118d4578281815181106135a8576135a861425d565b602002602001015160fb60008684815181106135c6576135c661425d565b6020026020010151815260200190815260200160002060008282546135eb91906142cd565b909155506135fa905081614273565b905061358d565b6001600160a01b0384163b15610dfe5760405163bc197c8160e01b81526001600160a01b0385169063bc197c8190613645908990899088908890889060040161471e565b6020604051808303816000875af1925050508015613680575060408051601f3d908101601f1916820190925261367d91810190614614565b60015b61368c576133c7614631565b6001600160e01b0319811663bc197c8160e01b146118d45760405162461bcd60e51b815260040161072d906146d6565b80516a636f6e736f6c652e6c6f67602083016000808483855afa5050505050565b60975460ff1615610dfe5760405162461bcd60e51b815260206004820152602c60248201527f455243313135355061757361626c653a20746f6b656e207472616e736665722060448201526b1dda1a5b19481c185d5cd95960a21b606482015260840161072d565b60405180610120016040528060008152602001600081526020016000815260200160008152602001600081526020016000815260200160008152602001606081526020016000151581525090565b6040518060e0016040528060006001600160a01b0316815260200160008152602001600081526020016000815260200160008152602001600081526020016000151581525090565b8280546137e7906141fb565b90600052602060002090601f016020900481019282613809576000855561384f565b82601f1061382257805160ff191683800117855561384f565b8280016001018555821561384f579182015b8281111561384f578251825591602001919060010190613834565b5061385b92915061385f565b5090565b5b8082111561385b5760008155600101613860565b6001600160a01b0381168114610fc557600080fd5b60008083601f84011261389b57600080fd5b5081356001600160401b038111156138b257600080fd5b6020830191508360208285010111156138ca57600080fd5b9250929050565b60008060008060008060008060c0898b0312156138ed57600080fd5b88356138f881613874565b9750602089013561390881613874565b9650604089013561391881613874565b95506060890135945060808901356001600160401b038082111561393b57600080fd5b6139478c838d01613889565b909650945060a08b013591508082111561396057600080fd5b5061396d8b828c01613889565b999c989b5096995094979396929594505050565b6000806040838503121561399457600080fd5b823561399f81613874565b946020939093013593505050565b6001600160e01b031981168114610fc557600080fd5b6000602082840312156139d557600080fd5b81356111ea816139ad565b6000602082840312156139f257600080fd5b5035919050565b60005b83811015613a145781810151838201526020016139fc565b83811115613a23576000848401525b50505050565b60008151808452613a418160208601602086016139f9565b601f01601f19169290920160200192915050565b6020815260006111ea6020830184613a29565b600080600060608486031215613a7d57600080fd5b8335613a8881613874565b95602085013595506040909401359392505050565b60008083601f840112613aaf57600080fd5b5081356001600160401b03811115613ac657600080fd5b6020830191508360208260051b85010111156138ca57600080fd5b60008060208385031215613af457600080fd5b82356001600160401b03811115613b0a57600080fd5b613b1685828601613a9d565b90969095509350505050565b6000610120808401835185526020808501518187015260408501516040870152606085015160608701526080850151608087015260a085015160a087015260c085015160c087015260e08501518360e08801528293508051808452610140880194508282019350600091505b80821015613bb75783516001600160a01b03168552938201939282019260019190910190613b8e565b505050506101009283015115159390920192909252919050565b6000602080830181845280855180835260408601915060408160051b870101925083870160005b82811015613c2657603f19888603018452613c14858351613b22565b94509285019290850190600101613bf8565b5092979650505050505050565b6020815260006111ea6020830184613b22565b634e487b7160e01b600052604160045260246000fd5b601f8201601f191681016001600160401b0381118282101715613c8157613c81613c46565b6040525050565b60006001600160401b03821115613ca157613ca1613c46565b5060051b60200190565b600082601f830112613cbc57600080fd5b81356020613cc982613c88565b604051613cd68282613c5c565b83815260059390931b8501820192828101915086841115613cf657600080fd5b8286015b84811015613d115780358352918301918301613cfa565b509695505050505050565b600082601f830112613d2d57600080fd5b81356001600160401b03811115613d4657613d46613c46565b604051613d5d601f8301601f191660200182613c5c565b818152846020838601011115613d7257600080fd5b816020850160208301376000918101602001919091529392505050565b600080600080600060a08688031215613da757600080fd5b8535613db281613874565b94506020860135613dc281613874565b935060408601356001600160401b0380821115613dde57600080fd5b613dea89838a01613cab565b94506060880135915080821115613e0057600080fd5b613e0c89838a01613cab565b93506080880135915080821115613e2257600080fd5b50613e2f88828901613d1c565b9150509295509295909350565b60008060408385031215613e4f57600080fd5b823591506020830135613e6181613874565b809150509250929050565b600060208284031215613e7e57600080fd5b81356111ea81613874565b80516001600160a01b031682526020808201519083015260408082015190830152606080820151908301526080808201519083015260a0818101519083015260c0908101511515910152565b6020808252825182820181905260009190848201906040850190845b81811015613f1757613f04838551613e89565b9284019260e09290920191600101613ef1565b50909695505050505050565b60008060408385031215613f3657600080fd5b82356001600160401b0380821115613f4d57600080fd5b818501915085601f830112613f6157600080fd5b81356020613f6e82613c88565b604051613f7b8282613c5c565b83815260059390931b8501820192828101915089841115613f9b57600080fd5b948201945b83861015613fc2578535613fb381613874565b82529482019490820190613fa0565b96505086013592505080821115613fd857600080fd5b50613fe585828601613cab565b9150509250929050565b600081518084526020808501945080840160005b8381101561401f57815187529582019590820190600101614003565b509495945050505050565b6020815260006111ea6020830184613fef565b60e081016108588284613e89565b6000806040838503121561405e57600080fd5b50508035926020909101359150565b6000806040838503121561408057600080fd5b823561408b81613874565b91506020830135613e6181613874565b600080604083850312156140ae57600080fd5b82356140b981613874565b915060208301358015158114613e6157600080fd5b6000806000606084860312156140e357600080fd5b505081359360208301359350604090920135919050565b6000806000806000806060878903121561411357600080fd5b86356001600160401b038082111561412a57600080fd5b6141368a838b01613a9d565b9098509650602089013591508082111561414f57600080fd5b61415b8a838b01613a9d565b9096509450604089013591508082111561417457600080fd5b5061418189828a01613a9d565b979a9699509497509295939492505050565b600080600080600060a086880312156141ab57600080fd5b85356141b681613874565b945060208601356141c681613874565b9350604086013592506060860135915060808601356001600160401b038111156141ef57600080fd5b613e2f88828901613d1c565b600181811c9082168061420f57607f821691505b60208210810361128a57634e487b7160e01b600052602260045260246000fd5b634e487b7160e01b600052601160045260246000fd5b600082198211156142585761425861422f565b500190565b634e487b7160e01b600052603260045260246000fd5b6000600182016142855761428561422f565b5060010190565b60008160001904831182151516156142a6576142a661422f565b500290565b6000826142c857634e487b7160e01b600052601260045260246000fd5b500490565b6000828210156142df576142df61422f565b500390565b60208082526010908201526f14185d5cd8589b194e881c185d5cd95960821b604082015260600190565b60408152600061433a60408301600c81526b66726f6d4163636f756e747360a01b602082015260400190565b828103602093840152600a81526972656d6f76616c49647360b01b928101929092525060400190565b60408152600061438f60408301600c81526b66726f6d4163636f756e747360a01b602082015260400190565b8281036020938401526007815266616d6f756e747360c81b928101929092525060400190565b6000602082840312156143c757600080fd5b5051919050565b6000608082840312156143e057600080fd5b604051608081018181106001600160401b038211171561440257614402613c46565b60405282518152602083015161441781613874565b6020820152604083810151908201526060928301519281019290925250919050565b7f416363657373436f6e74726f6c3a206163636f756e74200000000000000000008152600083516144718160178501602088016139f9565b7001034b99036b4b9b9b4b733903937b6329607d1b60179184019182015283516144a28160288401602088016139f9565b01602801949350505050565b6020808252602b908201527f496e697469616c697a61626c653a20636f6e7472616374206973206e6f74206960408201526a6e697469616c697a696e6760a81b606082015260800190565b60208082526025908201527f455243313135353a207472616e7366657220746f20746865207a65726f206164604082015264647265737360d81b606082015260800190565b6020808252602a908201527f455243313135353a20696e73756666696369656e742062616c616e636520666f60408201526939103a3930b739b332b960b11b606082015260800190565b60408152600061459b6040830185613fef565b82810360208401526130cd8185613fef565b634e487b7160e01b600052603160045260246000fd5b6000816145d2576145d261422f565b506000190190565b6001600160a01b03868116825285166020820152604081018490526060810183905260a0608082018190526000906131d690830184613a29565b60006020828403121561462657600080fd5b81516111ea816139ad565b600060033d111561464a5760046000803e5060005160e01c5b90565b600060443d101561465b5790565b6040516003193d81016004833e81513d6001600160401b03816024840111818411171561468a57505050505090565b82850191508151818111156146a25750505050505090565b843d87010160208285010111156146bc5750505050505090565b6146cb60208286010187613c5c565b509095945050505050565b60208082526028908201527f455243313135353a204552433131353552656365697665722072656a656374656040820152676420746f6b656e7360c01b606082015260800190565b6001600160a01b0386811682528516602082015260a06040820181905260009061474a90830186613fef565b828103606084015261475c8186613fef565b905082810360808401526147708185613a29565b9897505050505050505056fe68747470733a2f2f6e6f72692e636f6d2f6170692f7265737472696374696f6e7363686564756c652f7b69647d2e6a736f6e696e7369646520455243313135357570677261646561626c65205f6d696e74206265666f7265206265666f7265546f6b656e5472616e7366657265d7a28e3265b37a6474929f336521b332c1681b933f6cb9f3376673440d862aa2646970667358221220f5f3d844068a3632dacb2b99b9591ab0b6c2730e67e145544bbcaee212f1179064736f6c634300080d0033",
  "linkReferences": {},
  "deployedLinkReferences": {}
}