{
  "_format": "hh-sol-artifact-1",
  "contractName": "RestrictedNORI",
  "sourceName": "contracts/RestrictedNORI.sol",
  "abi": [
    {
      "inputs": [
        {
          "internalType": "string",
          "name": "array1Name",
          "type": "string"
        },
        {
          "internalType": "string",
          "name": "array2Name",
          "type": "string"
        }
      ],
      "name": "ArrayLengthMismatch",
      "type": "error"
    },
    {
      "inputs": [],
      "name": "BurningNotSupported",
      "type": "error"
    },
    {
      "inputs": [
        {
          "internalType": "address",
          "name": "account",
          "type": "address"
        },
        {
          "internalType": "uint256",
          "name": "scheduleId",
          "type": "uint256"
        }
      ],
      "name": "InsufficientBalance",
      "type": "error"
    },
    {
      "inputs": [
        {
          "internalType": "address",
          "name": "account",
          "type": "address"
        },
        {
          "internalType": "uint256",
          "name": "scheduleId",
          "type": "uint256"
        }
      ],
      "name": "InsufficientClaimableBalance",
      "type": "error"
    },
    {
      "inputs": [
        {
          "internalType": "uint256",
          "name": "scheduleId",
          "type": "uint256"
        }
      ],
      "name": "InsufficientUnreleasedTokens",
      "type": "error"
    },
    {
      "inputs": [
        {
          "internalType": "address",
          "name": "account",
          "type": "address"
        }
      ],
      "name": "InvalidBpNoriSender",
      "type": "error"
    },
    {
      "inputs": [
        {
          "internalType": "address",
          "name": "account",
          "type": "address"
        },
        {
          "internalType": "string",
          "name": "role",
          "type": "string"
        }
      ],
      "name": "MissingRole",
      "type": "error"
    },
    {
      "inputs": [
        {
          "internalType": "uint256",
          "name": "scheduleId",
          "type": "uint256"
        }
      ],
      "name": "NonexistentSchedule",
      "type": "error"
    },
    {
      "inputs": [],
      "name": "OperatorActionsNotSupported",
      "type": "error"
    },
    {
      "inputs": [],
      "name": "RecipientCannotBeZeroAddress",
      "type": "error"
    },
    {
      "inputs": [
        {
          "internalType": "address",
          "name": "recipient",
          "type": "address"
        },
        {
          "internalType": "string",
          "name": "role",
          "type": "string"
        }
      ],
      "name": "RecipientCannotHaveRole",
      "type": "error"
    },
    {
      "inputs": [
        {
          "internalType": "uint256",
          "name": "removalId",
          "type": "uint256"
        }
      ],
      "name": "RestrictionDurationNotSet",
      "type": "error"
    },
    {
      "inputs": [
        {
          "internalType": "address",
          "name": "account",
          "type": "address"
        },
        {
          "internalType": "string",
          "name": "role",
          "type": "string"
        }
      ],
      "name": "RoleCannotTransfer",
      "type": "error"
    },
    {
      "inputs": [
        {
          "internalType": "address",
          "name": "account",
          "type": "address"
        },
        {
          "internalType": "string",
          "name": "role",
          "type": "string"
        }
      ],
      "name": "RoleUnassignableToScheduleHolder",
      "type": "error"
    },
    {
      "inputs": [
        {
          "internalType": "uint256",
          "name": "scheduleTokenId",
          "type": "uint256"
        },
        {
          "internalType": "uint256",
          "name": "removalIdTriggeredCreation",
          "type": "uint256"
        }
      ],
      "name": "ScheduleExists",
      "type": "error"
    },
    {
      "inputs": [],
      "name": "TokenSenderNotBPNORI",
      "type": "error"
    },
    {
      "anonymous": false,
      "inputs": [
        {
          "indexed": true,
          "internalType": "address",
          "name": "account",
          "type": "address"
        },
        {
          "indexed": true,
          "internalType": "address",
          "name": "operator",
          "type": "address"
        },
        {
          "indexed": false,
          "internalType": "bool",
          "name": "approved",
          "type": "bool"
        }
      ],
      "name": "ApprovalForAll",
      "type": "event"
    },
    {
      "anonymous": false,
      "inputs": [
        {
          "indexed": false,
          "internalType": "address",
          "name": "account",
          "type": "address"
        }
      ],
      "name": "Paused",
      "type": "event"
    },
    {
      "anonymous": false,
      "inputs": [
        {
          "indexed": true,
          "internalType": "bytes32",
          "name": "role",
          "type": "bytes32"
        },
        {
          "indexed": true,
          "internalType": "bytes32",
          "name": "previousAdminRole",
          "type": "bytes32"
        },
        {
          "indexed": true,
          "internalType": "bytes32",
          "name": "newAdminRole",
          "type": "bytes32"
        }
      ],
      "name": "RoleAdminChanged",
      "type": "event"
    },
    {
      "anonymous": false,
      "inputs": [
        {
          "indexed": true,
          "internalType": "bytes32",
          "name": "role",
          "type": "bytes32"
        },
        {
          "indexed": true,
          "internalType": "address",
          "name": "account",
          "type": "address"
        },
        {
          "indexed": true,
          "internalType": "address",
          "name": "sender",
          "type": "address"
        }
      ],
      "name": "RoleGranted",
      "type": "event"
    },
    {
      "anonymous": false,
      "inputs": [
        {
          "indexed": true,
          "internalType": "bytes32",
          "name": "role",
          "type": "bytes32"
        },
        {
          "indexed": true,
          "internalType": "address",
          "name": "account",
          "type": "address"
        },
        {
          "indexed": true,
          "internalType": "address",
          "name": "sender",
          "type": "address"
        }
      ],
      "name": "RoleRevoked",
      "type": "event"
    },
    {
      "anonymous": false,
      "inputs": [
        {
          "indexed": true,
          "internalType": "uint256",
          "name": "scheduleId",
          "type": "uint256"
        },
        {
          "indexed": true,
          "internalType": "uint256",
          "name": "removalIdTriggeredCreation",
          "type": "uint256"
        }
      ],
      "name": "ScheduleCreated",
      "type": "event"
    },
    {
      "anonymous": false,
      "inputs": [
        {
          "indexed": true,
          "internalType": "address",
          "name": "from",
          "type": "address"
        },
        {
          "indexed": true,
          "internalType": "address",
          "name": "to",
          "type": "address"
        },
        {
          "indexed": true,
          "internalType": "uint256",
          "name": "scheduleId",
          "type": "uint256"
        },
        {
          "indexed": false,
          "internalType": "uint256",
          "name": "quantity",
          "type": "uint256"
        }
      ],
      "name": "TokensClaimed",
      "type": "event"
    },
    {
      "anonymous": false,
      "inputs": [
        {
          "indexed": true,
          "internalType": "address",
          "name": "operator",
          "type": "address"
        },
        {
          "indexed": true,
          "internalType": "address",
          "name": "from",
          "type": "address"
        },
        {
          "indexed": true,
          "internalType": "address",
          "name": "to",
          "type": "address"
        },
        {
          "indexed": false,
          "internalType": "uint256[]",
          "name": "ids",
          "type": "uint256[]"
        },
        {
          "indexed": false,
          "internalType": "uint256[]",
          "name": "values",
          "type": "uint256[]"
        }
      ],
      "name": "TransferBatch",
      "type": "event"
    },
    {
      "anonymous": false,
      "inputs": [
        {
          "indexed": true,
          "internalType": "address",
          "name": "operator",
          "type": "address"
        },
        {
          "indexed": true,
          "internalType": "address",
          "name": "from",
          "type": "address"
        },
        {
          "indexed": true,
          "internalType": "address",
          "name": "to",
          "type": "address"
        },
        {
          "indexed": false,
          "internalType": "uint256",
          "name": "id",
          "type": "uint256"
        },
        {
          "indexed": false,
          "internalType": "uint256",
          "name": "value",
          "type": "uint256"
        }
      ],
      "name": "TransferSingle",
      "type": "event"
    },
    {
      "anonymous": false,
      "inputs": [
        {
          "indexed": false,
          "internalType": "string",
          "name": "value",
          "type": "string"
        },
        {
          "indexed": true,
          "internalType": "uint256",
          "name": "id",
          "type": "uint256"
        }
      ],
      "name": "URI",
      "type": "event"
    },
    {
      "anonymous": false,
      "inputs": [
        {
          "indexed": false,
          "internalType": "address",
          "name": "account",
          "type": "address"
        }
      ],
      "name": "Unpaused",
      "type": "event"
    },
    {
      "anonymous": false,
      "inputs": [
        {
          "indexed": true,
          "internalType": "uint256",
          "name": "atTime",
          "type": "uint256"
        },
        {
          "indexed": true,
          "internalType": "uint256",
          "name": "removalId",
          "type": "uint256"
        },
        {
          "indexed": true,
          "internalType": "uint256",
          "name": "scheduleId",
          "type": "uint256"
        },
        {
          "indexed": false,
          "internalType": "uint256",
          "name": "quantity",
          "type": "uint256"
        }
      ],
      "name": "UnreleasedTokensRevoked",
      "type": "event"
    },
    {
      "inputs": [],
      "name": "DEFAULT_ADMIN_ROLE",
      "outputs": [
        {
          "internalType": "bytes32",
          "name": "",
          "type": "bytes32"
        }
      ],
      "stateMutability": "view",
      "type": "function"
    },
    {
      "inputs": [],
      "name": "ERC777_TOKENS_RECIPIENT_HASH",
      "outputs": [
        {
          "internalType": "bytes32",
          "name": "",
          "type": "bytes32"
        }
      ],
      "stateMutability": "view",
      "type": "function"
    },
    {
      "inputs": [],
      "name": "MINTER_ROLE",
      "outputs": [
        {
          "internalType": "bytes32",
          "name": "",
          "type": "bytes32"
        }
      ],
      "stateMutability": "view",
      "type": "function"
    },
    {
      "inputs": [],
      "name": "PAUSER_ROLE",
      "outputs": [
        {
          "internalType": "bytes32",
          "name": "",
          "type": "bytes32"
        }
      ],
      "stateMutability": "view",
      "type": "function"
    },
    {
      "inputs": [],
      "name": "SCHEDULE_CREATOR_ROLE",
      "outputs": [
        {
          "internalType": "bytes32",
          "name": "",
          "type": "bytes32"
        }
      ],
      "stateMutability": "view",
      "type": "function"
    },
    {
      "inputs": [],
      "name": "TOKEN_REVOKER_ROLE",
      "outputs": [
        {
          "internalType": "bytes32",
          "name": "",
          "type": "bytes32"
        }
      ],
      "stateMutability": "view",
      "type": "function"
    },
    {
      "inputs": [
        {
          "internalType": "address",
          "name": "account",
          "type": "address"
        },
        {
          "internalType": "uint256",
          "name": "id",
          "type": "uint256"
        }
      ],
      "name": "balanceOf",
      "outputs": [
        {
          "internalType": "uint256",
          "name": "",
          "type": "uint256"
        }
      ],
      "stateMutability": "view",
      "type": "function"
    },
    {
      "inputs": [
        {
          "internalType": "address[]",
          "name": "accounts",
          "type": "address[]"
        },
        {
          "internalType": "uint256[]",
          "name": "ids",
          "type": "uint256[]"
        }
      ],
      "name": "balanceOfBatch",
      "outputs": [
        {
          "internalType": "uint256[]",
          "name": "",
          "type": "uint256[]"
        }
      ],
      "stateMutability": "view",
      "type": "function"
    },
    {
      "inputs": [
        {
          "internalType": "uint256[]",
          "name": "removalIds",
          "type": "uint256[]"
        }
      ],
      "name": "batchCreateSchedule",
      "outputs": [],
      "stateMutability": "nonpayable",
      "type": "function"
    },
    {
      "inputs": [
        {
          "internalType": "address",
          "name": "account",
          "type": "address"
        }
      ],
      "name": "batchGetScheduleDetailsForAccount",
      "outputs": [
        {
          "components": [
            {
              "internalType": "address",
              "name": "tokenHolder",
              "type": "address"
            },
            {
              "internalType": "uint256",
              "name": "scheduleTokenId",
              "type": "uint256"
            },
            {
              "internalType": "uint256",
              "name": "startTime",
              "type": "uint256"
            },
            {
              "internalType": "uint256",
              "name": "endTime",
              "type": "uint256"
            },
            {
              "internalType": "uint256",
              "name": "balance",
              "type": "uint256"
            },
            {
              "internalType": "uint256",
              "name": "claimableAmount",
              "type": "uint256"
            },
            {
              "internalType": "uint256",
              "name": "claimedAmount",
              "type": "uint256"
            },
            {
              "internalType": "uint256",
              "name": "quantityRevoked",
              "type": "uint256"
            },
            {
              "internalType": "bool",
              "name": "exists",
              "type": "bool"
            }
          ],
          "internalType": "struct RestrictedNORI.ScheduleDetailForAddress[]",
          "name": "",
          "type": "tuple[]"
        }
      ],
      "stateMutability": "view",
      "type": "function"
    },
    {
      "inputs": [
        {
          "internalType": "uint256[]",
          "name": "scheduleIds",
          "type": "uint256[]"
        }
      ],
      "name": "batchGetScheduleSummaries",
      "outputs": [
        {
          "components": [
            {
              "internalType": "uint256",
              "name": "scheduleTokenId",
              "type": "uint256"
            },
            {
              "internalType": "uint256",
              "name": "startTime",
              "type": "uint256"
            },
            {
              "internalType": "uint256",
              "name": "endTime",
              "type": "uint256"
            },
            {
              "internalType": "uint256",
              "name": "totalSupply",
              "type": "uint256"
            },
            {
              "internalType": "uint256",
              "name": "totalClaimableAmount",
              "type": "uint256"
            },
            {
              "internalType": "uint256",
              "name": "totalClaimedAmount",
              "type": "uint256"
            },
            {
              "internalType": "uint256",
              "name": "totalQuantityRevoked",
              "type": "uint256"
            },
            {
              "internalType": "address[]",
              "name": "tokenHolders",
              "type": "address[]"
            },
            {
              "internalType": "bool",
              "name": "exists",
              "type": "bool"
            }
          ],
          "internalType": "struct RestrictedNORI.ScheduleSummary[]",
          "name": "",
          "type": "tuple[]"
        }
      ],
      "stateMutability": "view",
      "type": "function"
    },
    {
      "inputs": [
        {
          "internalType": "address[]",
          "name": "toAccounts",
          "type": "address[]"
        },
        {
          "internalType": "uint256[]",
          "name": "removalIds",
          "type": "uint256[]"
        },
        {
          "internalType": "uint256[]",
          "name": "amounts",
          "type": "uint256[]"
        }
      ],
      "name": "batchRevokeUnreleasedTokenAmounts",
      "outputs": [],
      "stateMutability": "nonpayable",
      "type": "function"
    },
    {
      "inputs": [
        {
          "internalType": "address",
          "name": "",
          "type": "address"
        },
        {
          "internalType": "uint256",
          "name": "",
          "type": "uint256"
        },
        {
          "internalType": "uint256",
          "name": "",
          "type": "uint256"
        }
      ],
      "name": "burn",
      "outputs": [],
      "stateMutability": "pure",
      "type": "function"
    },
    {
      "inputs": [
        {
          "internalType": "address",
          "name": "",
          "type": "address"
        },
        {
          "internalType": "uint256[]",
          "name": "",
          "type": "uint256[]"
        },
        {
          "internalType": "uint256[]",
          "name": "",
          "type": "uint256[]"
        }
      ],
      "name": "burnBatch",
      "outputs": [],
      "stateMutability": "pure",
      "type": "function"
    },
    {
      "inputs": [
        {
          "internalType": "uint256",
          "name": "scheduleId",
          "type": "uint256"
        }
      ],
      "name": "claimableBalanceForSchedule",
      "outputs": [
        {
          "internalType": "uint256",
          "name": "",
          "type": "uint256"
        }
      ],
      "stateMutability": "view",
      "type": "function"
    },
    {
      "inputs": [
        {
          "internalType": "uint256",
          "name": "scheduleId",
          "type": "uint256"
        },
        {
          "internalType": "address",
          "name": "account",
          "type": "address"
        }
      ],
      "name": "claimableBalanceForScheduleForAccount",
      "outputs": [
        {
          "internalType": "uint256",
          "name": "",
          "type": "uint256"
        }
      ],
      "stateMutability": "view",
      "type": "function"
    },
    {
      "inputs": [
        {
          "internalType": "uint256",
          "name": "id",
          "type": "uint256"
        }
      ],
      "name": "exists",
      "outputs": [
        {
          "internalType": "bool",
          "name": "",
          "type": "bool"
        }
      ],
      "stateMutability": "view",
      "type": "function"
    },
    {
      "inputs": [],
      "name": "getAllScheduleIds",
      "outputs": [
        {
          "internalType": "uint256[]",
          "name": "",
          "type": "uint256[]"
        }
      ],
      "stateMutability": "view",
      "type": "function"
    },
    {
      "inputs": [
        {
          "internalType": "uint256",
          "name": "methodology",
          "type": "uint256"
        },
        {
          "internalType": "uint256",
          "name": "methodologyVersion",
          "type": "uint256"
        }
      ],
      "name": "getRestrictionDurationForMethodologyAndVersion",
      "outputs": [
        {
          "components": [
            {
              "internalType": "uint256",
              "name": "duration",
              "type": "uint256"
            },
            {
              "internalType": "bool",
              "name": "wasSet",
              "type": "bool"
            }
          ],
          "internalType": "struct RestrictedNORI.RestrictionDuration",
          "name": "",
          "type": "tuple"
        }
      ],
      "stateMutability": "view",
      "type": "function"
    },
    {
      "inputs": [
        {
          "internalType": "bytes32",
          "name": "role",
          "type": "bytes32"
        }
      ],
      "name": "getRoleAdmin",
      "outputs": [
        {
          "internalType": "bytes32",
          "name": "",
          "type": "bytes32"
        }
      ],
      "stateMutability": "view",
      "type": "function"
    },
    {
      "inputs": [
        {
          "internalType": "bytes32",
          "name": "role",
          "type": "bytes32"
        },
        {
          "internalType": "uint256",
          "name": "index",
          "type": "uint256"
        }
      ],
      "name": "getRoleMember",
      "outputs": [
        {
          "internalType": "address",
          "name": "",
          "type": "address"
        }
      ],
      "stateMutability": "view",
      "type": "function"
    },
    {
      "inputs": [
        {
          "internalType": "bytes32",
          "name": "role",
          "type": "bytes32"
        }
      ],
      "name": "getRoleMemberCount",
      "outputs": [
        {
          "internalType": "uint256",
          "name": "",
          "type": "uint256"
        }
      ],
      "stateMutability": "view",
      "type": "function"
    },
    {
      "inputs": [
        {
          "internalType": "address",
          "name": "account",
          "type": "address"
        },
        {
          "internalType": "uint256",
          "name": "scheduleId",
          "type": "uint256"
        }
      ],
      "name": "getScheduleDetailForAccount",
      "outputs": [
        {
          "components": [
            {
              "internalType": "address",
              "name": "tokenHolder",
              "type": "address"
            },
            {
              "internalType": "uint256",
              "name": "scheduleTokenId",
              "type": "uint256"
            },
            {
              "internalType": "uint256",
              "name": "startTime",
              "type": "uint256"
            },
            {
              "internalType": "uint256",
              "name": "endTime",
              "type": "uint256"
            },
            {
              "internalType": "uint256",
              "name": "balance",
              "type": "uint256"
            },
            {
              "internalType": "uint256",
              "name": "claimableAmount",
              "type": "uint256"
            },
            {
              "internalType": "uint256",
              "name": "claimedAmount",
              "type": "uint256"
            },
            {
              "internalType": "uint256",
              "name": "quantityRevoked",
              "type": "uint256"
            },
            {
              "internalType": "bool",
              "name": "exists",
              "type": "bool"
            }
          ],
          "internalType": "struct RestrictedNORI.ScheduleDetailForAddress",
          "name": "",
          "type": "tuple"
        }
      ],
      "stateMutability": "view",
      "type": "function"
    },
    {
      "inputs": [
        {
          "internalType": "address",
          "name": "account",
          "type": "address"
        }
      ],
      "name": "getScheduleIdsForAccount",
      "outputs": [
        {
          "internalType": "uint256[]",
          "name": "",
          "type": "uint256[]"
        }
      ],
      "stateMutability": "view",
      "type": "function"
    },
    {
      "inputs": [
        {
          "internalType": "uint256",
          "name": "scheduleId",
          "type": "uint256"
        }
      ],
      "name": "getScheduleSummary",
      "outputs": [
        {
          "components": [
            {
              "internalType": "uint256",
              "name": "scheduleTokenId",
              "type": "uint256"
            },
            {
              "internalType": "uint256",
              "name": "startTime",
              "type": "uint256"
            },
            {
              "internalType": "uint256",
              "name": "endTime",
              "type": "uint256"
            },
            {
              "internalType": "uint256",
              "name": "totalSupply",
              "type": "uint256"
            },
            {
              "internalType": "uint256",
              "name": "totalClaimableAmount",
              "type": "uint256"
            },
            {
              "internalType": "uint256",
              "name": "totalClaimedAmount",
              "type": "uint256"
            },
            {
              "internalType": "uint256",
              "name": "totalQuantityRevoked",
              "type": "uint256"
            },
            {
              "internalType": "address[]",
              "name": "tokenHolders",
              "type": "address[]"
            },
            {
              "internalType": "bool",
              "name": "exists",
              "type": "bool"
            }
          ],
          "internalType": "struct RestrictedNORI.ScheduleSummary",
          "name": "",
          "type": "tuple"
        }
      ],
      "stateMutability": "view",
      "type": "function"
    },
    {
      "inputs": [
        {
          "internalType": "bytes32",
          "name": "role",
          "type": "bytes32"
        },
        {
          "internalType": "address",
          "name": "account",
          "type": "address"
        }
      ],
      "name": "grantRole",
      "outputs": [],
      "stateMutability": "nonpayable",
      "type": "function"
    },
    {
      "inputs": [
        {
          "internalType": "bytes32",
          "name": "role",
          "type": "bytes32"
        },
        {
          "internalType": "address",
          "name": "account",
          "type": "address"
        }
      ],
      "name": "hasRole",
      "outputs": [
        {
          "internalType": "bool",
          "name": "",
          "type": "bool"
        }
      ],
      "stateMutability": "view",
      "type": "function"
    },
    {
      "inputs": [],
      "name": "initialize",
      "outputs": [],
      "stateMutability": "nonpayable",
      "type": "function"
    },
    {
      "inputs": [
        {
          "internalType": "string",
          "name": "uri",
          "type": "string"
        }
      ],
      "name": "initialize",
      "outputs": [],
      "stateMutability": "nonpayable",
      "type": "function"
    },
    {
      "inputs": [
        {
          "internalType": "address",
          "name": "marketAddress",
          "type": "address"
        },
        {
          "internalType": "address",
          "name": "bridgedPolygonNoriAddress",
          "type": "address"
        },
        {
          "internalType": "address",
          "name": "removalAddress",
          "type": "address"
        }
      ],
      "name": "initializeContractInstances",
      "outputs": [],
      "stateMutability": "nonpayable",
      "type": "function"
    },
    {
      "inputs": [
        {
          "internalType": "address",
          "name": "",
          "type": "address"
        },
        {
          "internalType": "address",
          "name": "",
          "type": "address"
        }
      ],
      "name": "isApprovedForAll",
      "outputs": [
        {
          "internalType": "bool",
          "name": "",
          "type": "bool"
        }
      ],
      "stateMutability": "pure",
      "type": "function"
    },
    {
      "inputs": [
        {
          "internalType": "address",
          "name": "to",
          "type": "address"
        },
        {
          "internalType": "uint256",
          "name": "id",
          "type": "uint256"
        },
        {
          "internalType": "uint256",
          "name": "amount",
          "type": "uint256"
        },
        {
          "internalType": "bytes",
          "name": "data",
          "type": "bytes"
        }
      ],
      "name": "mint",
      "outputs": [],
      "stateMutability": "nonpayable",
      "type": "function"
    },
    {
      "inputs": [
        {
          "internalType": "address",
          "name": "to",
          "type": "address"
        },
        {
          "internalType": "uint256[]",
          "name": "ids",
          "type": "uint256[]"
        },
        {
          "internalType": "uint256[]",
          "name": "amounts",
          "type": "uint256[]"
        },
        {
          "internalType": "bytes",
          "name": "data",
          "type": "bytes"
        }
      ],
      "name": "mintBatch",
      "outputs": [],
      "stateMutability": "nonpayable",
      "type": "function"
    },
    {
      "inputs": [],
      "name": "pause",
      "outputs": [],
      "stateMutability": "nonpayable",
      "type": "function"
    },
    {
      "inputs": [],
      "name": "paused",
      "outputs": [
        {
          "internalType": "bool",
          "name": "",
          "type": "bool"
        }
      ],
      "stateMutability": "view",
      "type": "function"
    },
    {
      "inputs": [
        {
          "internalType": "uint256",
          "name": "removalId",
          "type": "uint256"
        }
      ],
      "name": "removalIdToScheduleId",
      "outputs": [
        {
          "internalType": "uint256",
          "name": "",
          "type": "uint256"
        }
      ],
      "stateMutability": "view",
      "type": "function"
    },
    {
      "inputs": [
        {
          "internalType": "bytes32",
          "name": "role",
          "type": "bytes32"
        },
        {
          "internalType": "address",
          "name": "account",
          "type": "address"
        }
      ],
      "name": "renounceRole",
      "outputs": [],
      "stateMutability": "nonpayable",
      "type": "function"
    },
    {
      "inputs": [
        {
          "internalType": "uint256",
          "name": "scheduleId",
          "type": "uint256"
        }
      ],
      "name": "revocableQuantityForSchedule",
      "outputs": [
        {
          "internalType": "uint256",
          "name": "",
          "type": "uint256"
        }
      ],
      "stateMutability": "view",
      "type": "function"
    },
    {
      "inputs": [
        {
          "internalType": "bytes32",
          "name": "role",
          "type": "bytes32"
        },
        {
          "internalType": "address",
          "name": "account",
          "type": "address"
        }
      ],
      "name": "revokeRole",
      "outputs": [],
      "stateMutability": "nonpayable",
      "type": "function"
    },
    {
      "inputs": [
        {
          "internalType": "address",
          "name": "from",
          "type": "address"
        },
        {
          "internalType": "address",
          "name": "to",
          "type": "address"
        },
        {
          "internalType": "uint256[]",
          "name": "ids",
          "type": "uint256[]"
        },
        {
          "internalType": "uint256[]",
          "name": "amounts",
          "type": "uint256[]"
        },
        {
          "internalType": "bytes",
          "name": "data",
          "type": "bytes"
        }
      ],
      "name": "safeBatchTransferFrom",
      "outputs": [],
      "stateMutability": "nonpayable",
      "type": "function"
    },
    {
      "inputs": [
        {
          "internalType": "address",
          "name": "from",
          "type": "address"
        },
        {
          "internalType": "address",
          "name": "to",
          "type": "address"
        },
        {
          "internalType": "uint256",
          "name": "id",
          "type": "uint256"
        },
        {
          "internalType": "uint256",
          "name": "amount",
          "type": "uint256"
        },
        {
          "internalType": "bytes",
          "name": "data",
          "type": "bytes"
        }
      ],
      "name": "safeTransferFrom",
      "outputs": [],
      "stateMutability": "nonpayable",
      "type": "function"
    },
    {
      "inputs": [
        {
          "internalType": "address",
          "name": "",
          "type": "address"
        },
        {
          "internalType": "bool",
          "name": "",
          "type": "bool"
        }
      ],
      "name": "setApprovalForAll",
      "outputs": [],
      "stateMutability": "pure",
      "type": "function"
    },
    {
      "inputs": [
        {
          "internalType": "uint256",
          "name": "methodology",
          "type": "uint256"
        },
        {
          "internalType": "uint256",
          "name": "methodologyVersion",
          "type": "uint256"
        },
        {
          "internalType": "uint256",
          "name": "durationInSeconds",
          "type": "uint256"
        }
      ],
      "name": "setRestrictionDurationForMethodologyAndVersion",
      "outputs": [],
      "stateMutability": "nonpayable",
      "type": "function"
    },
    {
      "inputs": [
        {
          "internalType": "bytes4",
          "name": "interfaceId",
          "type": "bytes4"
        }
      ],
      "name": "supportsInterface",
      "outputs": [
        {
          "internalType": "bool",
          "name": "",
          "type": "bool"
        }
      ],
      "stateMutability": "view",
      "type": "function"
    },
    {
      "inputs": [
        {
          "internalType": "address",
          "name": "",
          "type": "address"
        },
        {
          "internalType": "address",
          "name": "from",
          "type": "address"
        },
        {
          "internalType": "address",
          "name": "",
          "type": "address"
        },
        {
          "internalType": "uint256",
          "name": "amount",
          "type": "uint256"
        },
        {
          "internalType": "bytes",
          "name": "userData",
          "type": "bytes"
        },
        {
          "internalType": "bytes",
          "name": "operatorData",
          "type": "bytes"
        }
      ],
      "name": "tokensReceived",
      "outputs": [],
      "stateMutability": "nonpayable",
      "type": "function"
    },
    {
      "inputs": [
        {
          "internalType": "uint256",
          "name": "id",
          "type": "uint256"
        }
      ],
      "name": "totalSupply",
      "outputs": [
        {
          "internalType": "uint256",
          "name": "",
          "type": "uint256"
        }
      ],
      "stateMutability": "view",
      "type": "function"
    },
    {
      "inputs": [],
      "name": "unpause",
      "outputs": [],
      "stateMutability": "nonpayable",
      "type": "function"
    },
    {
      "inputs": [
        {
          "internalType": "uint256",
          "name": "",
          "type": "uint256"
        }
      ],
      "name": "uri",
      "outputs": [
        {
          "internalType": "string",
          "name": "",
          "type": "string"
        }
      ],
      "stateMutability": "view",
      "type": "function"
    },
    {
      "inputs": [
        {
          "internalType": "address",
          "name": "recipient",
          "type": "address"
        },
        {
          "internalType": "uint256",
          "name": "scheduleId",
          "type": "uint256"
        },
        {
          "internalType": "uint256",
          "name": "amount",
          "type": "uint256"
        }
      ],
      "name": "withdrawFromSchedule",
      "outputs": [
        {
          "internalType": "bool",
          "name": "",
          "type": "bool"
        }
      ],
      "stateMutability": "nonpayable",
      "type": "function"
    }
  ],
  "bytecode": "0x608060405234801561001057600080fd5b50615052806100206000396000f3fe608060405234801561001057600080fd5b50600436106102b95760003560e01c8063713279b111610182578063ca15c873116100e9578063e5b6d2a9116100a2578063f242432a1161007c578063f242432a146106db578063f5298aca146106ee578063f62d1888146106fc578063faa3ab101461070f57600080fd5b8063e5b6d2a9146106a0578063e63ab1e9146106b3578063e985e9c5146106c857600080fd5b8063ca15c8731461062c578063d53913931461063f578063d547741f14610654578063d943dac714610667578063dfd2cdee1461067a578063e01d73931461068d57600080fd5b80639ac7b44d1161013b5780639ac7b44d14610586578063a217fddf146105b6578063a22cb465146105be578063b8b4dbe0146105d1578063bd85b039146105f8578063c1499fa81461061957600080fd5b8063713279b114610512578063731133e9146105255780638129fc1c146105385780638456cb59146105405780639010d07c1461054857806391d148541461057357600080fd5b806336568abe116102265780635c975abb116101df5780635c975abb146104a55780635d37165a146104b15780636235a4e9146104c457806363343346146104d7578063639aa0ad146104df5780636b20c454146104ff57600080fd5b806336568abe1461040057806336e4d3f0146104135780633f4ba83a146104335780634e1273f41461043b5780634f558e791461045b578063521189a91461047e57600080fd5b8063248a9ca311610278578063248a9ca31461036457806327ca0c27146103875780632d9f0f161461039a5780632e5e8d83146103ba5780632eb2c2d6146103da5780632f2ff15d146103ed57600080fd5b806223de29146102be578062fdd58e146102d357806301ffc9a7146102f95780630e89341c1461031c5780631f7fdffa1461033c578063229afd611461034f575b600080fd5b6102d16102cc366004613c98565b610722565b005b6102e66102e1366004613d42565b610838565b6040519081526020015b60405180910390f35b61030c610307366004613d82565b6108cf565b60405190151581526020016102f0565b61032f61032a366004613d9f565b6108da565b6040516102f09190613e10565b6102d161034a366004613f76565b61096e565b6102e6600080516020614ffd83398151915281565b6102e6610372366004613d9f565b60009081526065602052604090206001015490565b61030c61039536600461400e565b6109b4565b6103ad6103a8366004614085565b610ad6565b6040516102f09190614175565b6103cd6103c8366004613d9f565b610b92565b6040516102f091906141d7565b6102d16103e83660046141ea565b610d50565b6102d16103fb366004614293565b610ec2565b6102d161040e366004614293565b610eed565b6104266104213660046142bf565b610f6b565b6040516102f0919061433b565b6102d1611034565b61044e61044936600461438a565b6110c8565b6040516102f0919061448f565b61030c610469366004613d9f565b60009081526101c36020526040902054151590565b6102e67fb281fc8c12954d22544db45de3159a39272895b169a852b314f9cc762e44c53b81565b61012d5460ff1661030c565b6102e66104bf366004614293565b6111dc565b6102e66104d2366004613d9f565b61129a565b61044e6112e9565b6104f26104ed366004613d42565b611388565b6040516102f091906144a2565b6102d161050d3660046144b1565b61143f565b6102e6610520366004613d9f565b611458565b6102d1610533366004614531565b61148f565b6102d16114cf565b6102d161167c565b61055b610556366004614585565b61170e565b6040516001600160a01b0390911681526020016102f0565b61030c610581366004614293565b611726565b610599610594366004614585565b611751565b6040805182518152602092830151151592810192909252016102f0565b6102e6600081565b6102d16105cc3660046145a7565b611798565b6102e67f813b9efdf6afe6b57682eb1fb850711edc34da21ae7f7376cb7a391b1be3239f81565b6102e6610606366004613d9f565b60009081526101c3602052604090205490565b6102d16106273660046145e3565b6117b1565b6102e661063a366004613d9f565b611826565b6102e6600080516020614fdd83398151915281565b6102d1610662366004614293565b61183d565b6102e6610675366004613d9f565b611863565b61044e6106883660046142bf565b611959565b6102d161069b36600461460f565b611a06565b6102d16106ae3660046146a8565b611b1d565b6102e6600080516020614fbd83398151915281565b61030c6106d63660046146eb565b611b6c565b6102d16106e9366004614715565b611b87565b6102d161050d36600461400e565b6102d161070a366004614779565b611c27565b6102d161071d366004614085565b611ca2565b6101fb546001600160a01b0316336001600160a01b03161461075757604051634628d20b60e01b815260040160405180910390fd5b6101fa546001600160a01b038881169116148061077a575061077a600088611726565b6107a757604051630465c5db60e41b81526001600160a01b03881660048201526024015b60405180910390fd5b60006107b584860186613d9f565b905061082c818787878080601f01602080910402602001604051908101604052809392919081815260200183838082843760009201919091525050604080516020601f8b018190048102820181019092528981529250899150889081908401838280828437600092019190915250611d5e92505050565b50505050505050505050565b60006001600160a01b0383166108a45760405162461bcd60e51b815260206004820152602b60248201527f455243313135353a2062616c616e636520717565727920666f7220746865207a60448201526a65726f206164647265737360a81b606482015260840161079e565b50600081815260c9602090815260408083206001600160a01b03861684529091529020545b92915050565b60006108c982611e07565b606060cb80546108e9906147c1565b80601f0160208091040260200160405190810160405280929190818152602001828054610915906147c1565b80156109625780601f1061093757610100808354040283529160200191610962565b820191906000526020600020905b81548152906001019060200180831161094557829003601f168201915b50505050509050919050565b610986600080516020614fdd83398151915233611726565b6109a25760405162461bcd60e51b815260040161079e906147f5565b6109ae84848484611e12565b50505050565b60006109c1338484611f74565b6101fb54604051634decdde360e11b81526001600160a01b03868116600483015260248201859052606060448301526000606483015290911690639bd9bbc690608401600060405180830381600087803b158015610a1e57600080fd5b505af1158015610a32573d6000803e3d6000fd5b50505060008481526101f76020526040812060028101805491935085929091610a5c908490614868565b909155505033600090815260088201602052604081208054859290610a82908490614868565b909155505060405183815284906001600160a01b0387169033907fff097c7d8b1957a4ff09ef1361b5fb54dcede3941ba836d0beb9d10bec725de69060200160405180910390a460019150505b9392505050565b60606000826001600160401b03811115610af257610af2613e23565b604051908082528060200260200182016040528015610b2b57816020015b610b18613af6565b815260200190600190039081610b105790505b50905060005b83811015610b8a57610b5a858583818110610b4e57610b4e614880565b90506020020135610b92565b828281518110610b6c57610b6c614880565b60200260200101819052508080610b8290614896565b915050610b31565b509392505050565b610b9a613af6565b60008281526101f76020526040812090610bb6600683016120f1565b90506000816001600160401b03811115610bd257610bd2613e23565b604051908082528060200260200182016040528015610bfb578160200160208202803683370190505b5090506000826001600160401b03811115610c1857610c18613e23565b604051908082528060200260200182016040528015610c41578160200160208202803683370190505b50905060005b610c53856006016120f1565b811015610cc957610c6760068601826120fb565b838281518110610c7957610c79614880565b60200260200101906001600160a01b031690816001600160a01b03168152505086828281518110610cac57610cac614880565b602090810291909101015280610cc181614896565b915050610c47565b506040518061012001604052808781526020018560000154815260200185600101548152602001610d078860009081526101c3602052604090205490565b8152602001610d158861129a565b81526002860154602082015260048601546040820152606081019390935260039094015460ff16151560809092019190915250909392505050565b610d5d8585858585612107565b60005b8351811015610eba5760006101f76000868481518110610d8257610d82614880565b602002602001015181526020019081526020016000209050838281518110610dac57610dac614880565b6020026020010151600014610e1c57610e0c858381518110610dd057610dd0614880565b60200260200101516101f66000896001600160a01b03166001600160a01b0316815260200190815260200160002061219790919063ffffffff16565b50610e1a60068201876121a3565b505b610e3f87868481518110610e3257610e32614880565b6020026020010151610838565b600003610ea757610e97858381518110610e5b57610e5b614880565b60200260200101516101f660008a6001600160a01b03166001600160a01b031681526020019081526020016000206121b890919063ffffffff16565b50610ea560068201886121c4565b505b5080610eb281614896565b915050610d60565b505050505050565b600082815260656020526040902060010154610ede81336121d9565b610ee8838361223d565b505050565b6001600160a01b0381163314610f5d5760405162461bcd60e51b815260206004820152602f60248201527f416363657373436f6e74726f6c3a2063616e206f6e6c792072656e6f756e636560448201526e103937b632b9903337b91039b2b63360891b606482015260840161079e565b610f67828261229f565b5050565b6001600160a01b03811660009081526101f660205260408120606091610f90826120f1565b6001600160401b03811115610fa757610fa7613e23565b604051908082528060200260200182016040528015610fe057816020015b610fcd613b44565b815260200190600190039081610fc55790505b50905060005b610fef836120f1565b811015610b8a57611004856104ed85846120fb565b82828151811061101657611016614880565b6020026020010181905250808061102c90614896565b915050610fe6565b61104c600080516020614fbd83398151915233611726565b6110be5760405162461bcd60e51b815260206004820152603b60248201527f455243313135355072657365744d696e7465725061757365723a206d7573742060448201527f686176652070617573657220726f6c6520746f20756e70617573650000000000606482015260840161079e565b6110c66122c1565b565b6060815183511461112d5760405162461bcd60e51b815260206004820152602960248201527f455243313135353a206163636f756e747320616e6420696473206c656e677468604482015268040dad2e6dac2e8c6d60bb1b606482015260840161079e565b600083516001600160401b0381111561114857611148613e23565b604051908082528060200260200182016040528015611171578160200160208202803683370190505b50905060005b8451811015610b8a576111af85828151811061119557611195614880565b6020026020010151858381518110610e3257610e32614880565b8282815181106111c1576111c1614880565b60209081029190910101526111d581614896565b9050611177565b60008281526101f7602090815260408083206101c39092528220546002820154839161120791614868565b90508060000361121c576000925050506108c9565b60006112288587610838565b6001600160a01b038616600090815260088501602052604081205491925061124f8861129a565b9050600082858760020154846112659190614868565b61126f8787614868565b61127991906148af565b61128391906148ce565b61128d91906148f0565b9998505050505050505050565b60008181526101f760205260408120600381015460ff166112d1576040516325f8781760e01b81526004810184905260240161079e565b80600201546112df84612356565b610acf91906148f0565b606060006112f86101f86120f1565b6001600160401b0381111561130f5761130f613e23565b604051908082528060200260200182016040528015611338578160200160208202803683370190505b50905060005b8151811015611382576113536101f8826120fb565b82828151811061136557611365614880565b60209081029190910101528061137a81614896565b91505061133e565b50919050565b611390613b44565b60008281526101f760209081526040918290208251610120810184526001600160a01b038716815291820185905280549282019290925260018201546060820152608081016113df8686610838565b81526020016113ee85876111dc565b81526001600160a01b038616600081815260088501602090815260408083205482860152928252600986019052819020549082015260039092015460ff161515606090920191909152905092915050565b60405163fd647c0960e01b815260040160405180910390fd5b60008181526101f76020526040812061147083612356565b600282015460008581526101c360205260409020546112df9190614868565b6114a7600080516020614fdd83398151915233611726565b6114c35760405162461bcd60e51b815260040161079e906147f5565b6109ae8484848461237b565b600054610100900460ff166114ea5760005460ff16156114ee565b303b155b61150a5760405162461bcd60e51b815260040161079e90614907565b600054610100900460ff1615801561152c576000805461ffff19166101011790555b61154d604051806060016040528060328152602001614f5160329139611c27565b611555612478565b61155d612478565b611565612478565b61156d612478565b61157561249f565b61157d612478565b6040516329965a1d60e01b815230600482018190527fb281fc8c12954d22544db45de3159a39272895b169a852b314f9cc762e44c53b60248301526044820152731820a4b7618bde71dce8cdc73aab6c95905fad24906329965a1d90606401600060405180830381600087803b1580156115f657600080fd5b505af115801561160a573d6000803e3d6000fd5b5050505061162c600080516020614ffd8339815191526116273390565b6124d3565b6116567f813b9efdf6afe6b57682eb1fb850711edc34da21ae7f7376cb7a391b1be3239f336124d3565b611667600160006312cf35706117b1565b8015611679576000805461ff00191690555b50565b611694600080516020614fbd83398151915233611726565b6117065760405162461bcd60e51b815260206004820152603960248201527f455243313135355072657365744d696e7465725061757365723a206d7573742060448201527f686176652070617573657220726f6c6520746f20706175736500000000000000606482015260840161079e565b6110c66124dd565b6000828152609760205260408120610acf90836120fb565b60009182526065602090815260408084206001600160a01b0393909316845291905290205460ff1690565b604080518082018252600080825260209182018190529384526101f58152818420928452918252918290208251808401909352805483526001015460ff1615159082015290565b604051636461329360e01b815260040160405180910390fd5b61012d5460ff16156117d55760405162461bcd60e51b815260040161079e90614955565b60006117e181336121d9565b506040805180820182529182526001602080840182815260009687526101f5825283872095875294905293209051815590519101805460ff1916911515919091179055565b60008181526097602052604081206108c9906120f1565b60008281526065602052604090206001015461185981336121d9565b610ee8838361229f565b60008061186f83612537565b9050600061189361187f85612546565b60ff1661188b8661255f565b60ff16611751565b516101fc546040516312eac63960e01b8152600481018790529192506000916001600160a01b03909116906312eac63990602401602060405180830381865afa1580156118e4573d6000803e3d6000fd5b505050506040513d601f19601f82011682018060405250810190611908919061497f565b6040516bffffffffffffffffffffffff19606086901b166020820152603481018490526054810182905290915060740160408051601f19818403018152919052805160209091012095945050505050565b6001600160a01b03811660009081526101f66020526040812060609161197e826120f1565b6001600160401b0381111561199557611995613e23565b6040519080825280602002602001820160405280156119be578160200160208202803683370190505b50905060005b8151811015610b8a576119d783826120fb565b8282815181106119e9576119e9614880565b6020908102919091010152806119fe81614896565b9150506119c4565b61012d5460ff1615611a2a5760405162461bcd60e51b815260040161079e90614955565b7f813b9efdf6afe6b57682eb1fb850711edc34da21ae7f7376cb7a391b1be3239f611a5581336121d9565b858414611a755760405163616c411360e01b815260040161079e90614998565b858214611a955760405163616c411360e01b815260040161079e906149ed565b60005b86811015611b1357611b01888883818110611ab557611ab5614880565b9050602002016020810190611aca91906142bf565b878784818110611adc57611adc614880565b90506020020135868685818110611af557611af5614880565b90506020020135612577565b80611b0b81614896565b915050611a98565b5050505050505050565b6000611b2981336121d9565b506101fa80546001600160a01b039485166001600160a01b0319918216179091556101fb8054938516938216939093179092556101fc8054919093169116179055565b6000604051636461329360e01b815260040160405180910390fd5b611b9485858585856128a7565b60008381526101f7602052604090208215611bdc576001600160a01b03851660009081526101f660205260409020611bcc9085612197565b50611bda60068201866121a3565b505b611be68685610838565b600003610eba576001600160a01b03861660009081526101f660205260409020611c1090856121b8565b50611c1e60068201876121c4565b50505050505050565b600054610100900460ff16611c425760005460ff1615611c46565b303b155b611c625760405162461bcd60e51b815260040161079e90614907565b600054610100900460ff16158015611c84576000805461ffff19166101011790555b611c8d8261292e565b8015610f67576000805461ff00191690555050565b61012d5460ff1615611cc65760405162461bcd60e51b815260040161079e90614955565b600080516020614ffd833981519152611cdf81336121d9565b60005b828110156109ae576000611d0d858584818110611d0157611d01614880565b90506020020135611863565b60008181526101f7602052604090206003015490915060ff16611d4b57611d4b858584818110611d3f57611d3f614880565b9050602002013561296f565b5080611d5681614896565b915050611ce2565b600080611d6a86612537565b90506000611d7787611863565b60008181526101f7602052604090206003015490915060ff16611d9d57611d9d8761296f565b611db88282886040518060200160405280600081525061237b565b60008181526101f760205260409020611dd460068201846121a3565b506001600160a01b03831660009081526101f660205260409020611df89083612197565b50600198975050505050505050565b60006108c982612b7a565b6001600160a01b038416611e385760405162461bcd60e51b815260040161079e90614a3f565b8151835114611e595760405162461bcd60e51b815260040161079e90614a80565b33611e6981600087878787612bba565b60005b8451811015611f0557838181518110611e8757611e87614880565b602002602001015160c96000878481518110611ea557611ea5614880565b602002602001015181526020019081526020016000206000886001600160a01b03166001600160a01b031681526020019081526020016000206000828254611eed9190614868565b90915550819050611efd81614896565b915050611e6c565b50846001600160a01b031660006001600160a01b0316826001600160a01b03167f4a39dc06d4c0dbc64b70af90fd698a233a518aa5d07e595d983b8c0526c8f7fb8787604051611f56929190614ac8565b60405180910390a4611f6d81600087878787612d3a565b5050505050565b6001600160a01b038316611fd65760405162461bcd60e51b815260206004820152602360248201527f455243313135353a206275726e2066726f6d20746865207a65726f206164647260448201526265737360e81b606482015260840161079e565b3361200581856000611fe787612e95565b611ff087612e95565b60405180602001604052806000815250612bba565b600083815260c9602090815260408083206001600160a01b0388168452909152902054828110156120845760405162461bcd60e51b8152602060048201526024808201527f455243313135353a206275726e20616d6f756e7420657863656564732062616c604482015263616e636560e01b606482015260840161079e565b600084815260c9602090815260408083206001600160a01b03898116808652918452828520888703905582518981529384018890529092908616917fc3d58168c5ae7397731d063d5bbf3d657854427343f4c083240f7aacaa2d0f62910160405180910390a45050505050565b60006108c9825490565b6000610acf8383612ee0565b6001600160a01b03851633148061212357506121238533611b6c565b61218a5760405162461bcd60e51b815260206004820152603260248201527f455243313135353a207472616e736665722063616c6c6572206973206e6f74206044820152711bdddb995c881b9bdc88185c1c1c9bdd995960721b606482015260840161079e565b611f6d8585858585612f0a565b6000610acf83836130af565b6000610acf836001600160a01b0384166130af565b6000610acf83836130fe565b6000610acf836001600160a01b0384166130fe565b6121e38282611726565b610f67576121fb816001600160a01b031660146131f1565b6122068360206131f1565b604051602001612217929190614af6565b60408051601f198184030181529082905262461bcd60e51b825261079e91600401613e10565b600080516020614ffd8339815191528203612295576001600160a01b03811660009081526101f660205260408120612274906120f1565b11156122955780604051632b04dac760e01b815260040161079e9190614b6b565b610f67828261338c565b6122a982826133ae565b6000828152609760205260409020610ee890826121c4565b61012d5460ff1661230b5760405162461bcd60e51b815260206004820152601460248201527314185d5cd8589b194e881b9bdd081c185d5cd95960621b604482015260640161079e565b61012d805460ff191690557f5db9ee0a495bf2e6ff9c91a7834c1ba4fdd244a5e8aa4e537bd38aeae4b073aa335b6040516001600160a01b03909116815260200160405180910390a1565b60008181526101f760205260408120610acf61237184613415565b82600501546134a4565b6001600160a01b0384166123a15760405162461bcd60e51b815260040161079e90614a3f565b60003390506123c76040518060600160405280603a8152602001614f83603a91396134bb565b6123e6816000876123d788612e95565b6123e088612e95565b87612bba565b600084815260c9602090815260408083206001600160a01b038916845290915281208054859290612418908490614868565b909155505060408051858152602081018590526001600160a01b0380881692600092918516917fc3d58168c5ae7397731d063d5bbf3d657854427343f4c083240f7aacaa2d0f62910160405180910390a4611f6d816000878787876134fe565b600054610100900460ff166110c65760405162461bcd60e51b815260040161079e90614bac565b600054610100900460ff166124c65760405162461bcd60e51b815260040161079e90614bac565b61012d805460ff19169055565b610f67828261223d565b61012d5460ff16156125015760405162461bcd60e51b815260040161079e90614955565b61012d805460ff191660011790557f62e78cea01bee320cd4e420270b5ea74000d11b0c9f74754ebdbfc544b05a2586123393390565b60006108c982601460046135b9565b60006004612557836001601e6135b9565b901c92915050565b600061256e826001601e6135b9565b600f1692915050565b600061258283611863565b60008181526101f76020526040902060038101549192509060ff166125bd576040516325f8781760e01b81526004810183905260240161079e565b60006125c883612356565b905060008415612605576125db84611458565b8511156125fe57604051630c21a50760e31b81526004810185905260240161079e565b5083612611565b61260e84611458565b90505b600683016000612620826120f1565b6001600160401b0381111561263757612637613e23565b604051908082528060200260200182016040528015612660578160200160208202803683370190505b5090506000805b6001612672856120f1565b61267c91906148f0565b8110156126d9576000612699868a61269488866120fb565b613605565b9050808483815181106126ae576126ae614880565b60209081029190910101526126c38184614868565b92505080806126d190614896565b915050612667565b506126e481856148f0565b8260016126f0866120f1565b6126fa91906148f0565b8151811061270a5761270a614880565b60200260200101818152505060005b612722846120f1565b8110156127d05761275661273685836120fb565b8985848151811061274957612749614880565b6020026020010151611f74565b82818151811061276857612768614880565b602002602001015187600901600061278984886120fb90919063ffffffff16565b6001600160a01b03166001600160a01b0316815260200190815260200160002060008282546127b89190614868565b909155508190506127c881614896565b915050612719565b50838660040160008282546127e59190614868565b90915550506101fb54604051634decdde360e11b81526001600160a01b038c8116600483015260248201879052606060448301526000606483015290911690639bd9bbc690608401600060405180830381600087803b15801561284757600080fd5b505af115801561285b573d6000803e3d6000fd5b505050508689427f1c88d66daca38f6d7ea17e24dd97402f816c3970f697a9144270c923082bccb08760405161289391815260200190565b60405180910390a450505050505050505050565b6001600160a01b0385163314806128c357506128c38533611b6c565b6129215760405162461bcd60e51b815260206004820152602960248201527f455243313135353a2063616c6c6572206973206e6f74206f776e6572206e6f7260448201526808185c1c1c9bdd995960ba1b606482015260840161079e565b611f6d85858585856136aa565b600054610100900460ff166129555760405162461bcd60e51b815260040161079e90614bac565b61295e816137c2565b61296661249f565b611679816137f2565b600061297a82612537565b6101fc546040516312eac63960e01b8152600481018590529192506000916001600160a01b03909116906312eac63990602401602060405180830381865afa1580156129ca573d6000803e3d6000fd5b505050506040513d601f19601f820116820180604052508101906129ee919061497f565b905060006129fb84611863565b90506001600160a01b038316612a2457604051636c38382960e11b815260040160405180910390fd5b612a3c600080516020614ffd83398151915284611726565b15612a5c5782604051632486d30560e11b815260040161079e9190614b6b565b60008181526101f7602052604090206003015460ff1615612a9a576040516316485d9560e11b8152600481018290526024810185905260440161079e565b60008181526101f760205260409020612ab56101f883612197565b506000612ad0612ac487612546565b60ff1661188b8861255f565b90508060200151612af75760405163361ecb5560e01b81526004810187905260240161079e565b6001600160a01b03851660009081526101f660205260409020612b1a9084612197565b5060038201805460ff191660011790558382558051612b399085614868565b6001830155600060058301819055604051879185917f721ddaabe5cc50a5a5fdc5ce1e5636612da513f19115ed78a77b4e60665f07b49190a3505050505050565b60006001600160e01b03198216636cdb3d1360e11b1480612bab57506001600160e01b031982166303a24d0760e21b145b806108c957506108c982613854565b6001600160a01b0385811615908516156000818015612bea5750886001600160a01b0316886001600160a01b0316145b9050600083158015612bfa575082155b90508215612c7b5760005b8751811015612c795760006101f760008a8481518110612c2757612c27614880565b602002602001015181526020019081526020016000209050612c61898381518110612c5457612c54614880565b6020026020010151612356565b60059091015580612c7181614896565b915050612c05565b505b8115612d2c5760005b8751811015612d2a57612cb0888281518110612ca257612ca2614880565b60200260200101518b6111dc565b878281518110612cc257612cc2614880565b60200260200101511115612d185789888281518110612ce357612ce3614880565b602090810291909101015160405163e1b8b25f60e01b81526001600160a01b039092166004830152602482015260440161079e565b80612d2281614896565b915050612c84565b505b61082c8a8a8a8a8a8a613879565b6001600160a01b0384163b15610eba5760405163bc197c8160e01b81526001600160a01b0385169063bc197c8190612d7e9089908990889088908890600401614bf7565b6020604051808303816000875af1925050508015612db9575060408051601f3d908101601f19168201909252612db691810190614c55565b60015b612e6557612dc5614c72565b806308c379a003612dfe5750612dd9614c8e565b80612de45750612e00565b8060405162461bcd60e51b815260040161079e9190613e10565b505b60405162461bcd60e51b815260206004820152603460248201527f455243313135353a207472616e7366657220746f206e6f6e20455243313135356044820152732932b1b2b4bb32b91034b6b83632b6b2b73a32b960611b606482015260840161079e565b6001600160e01b0319811663bc197c8160e01b14611c1e5760405162461bcd60e51b815260040161079e90614d17565b60408051600180825281830190925260609160009190602080830190803683370190505090508281600081518110612ecf57612ecf614880565b602090810291909101015292915050565b6000826000018281548110612ef757612ef7614880565b9060005260206000200154905092915050565b8151835114612f2b5760405162461bcd60e51b815260040161079e90614a80565b6001600160a01b038416612f515760405162461bcd60e51b815260040161079e90614d5f565b33612f60818787878787612bba565b60005b8451811015613049576000858281518110612f8057612f80614880565b602002602001015190506000858381518110612f9e57612f9e614880565b602090810291909101810151600084815260c9835260408082206001600160a01b038e168352909352919091205490915081811015612fef5760405162461bcd60e51b815260040161079e90614da4565b600083815260c9602090815260408083206001600160a01b038e8116855292528083208585039055908b1682528120805484929061302e908490614868565b925050819055505050508061304290614896565b9050612f63565b50846001600160a01b0316866001600160a01b0316826001600160a01b03167f4a39dc06d4c0dbc64b70af90fd698a233a518aa5d07e595d983b8c0526c8f7fb8787604051613099929190614ac8565b60405180910390a4610eba818787878787612d3a565b60008181526001830160205260408120546130f6575081546001818101845560008481526020808220909301849055845484825282860190935260409020919091556108c9565b5060006108c9565b600081815260018301602052604081205480156131e75760006131226001836148f0565b8554909150600090613136906001906148f0565b905081811461319b57600086600001828154811061315657613156614880565b906000526020600020015490508087600001848154811061317957613179614880565b6000918252602080832090910192909255918252600188019052604090208390555b85548690806131ac576131ac614dee565b6001900381819060005260206000200160009055905585600101600086815260200190815260200160002060009055600193505050506108c9565b60009150506108c9565b606060006132008360026148af565b61320b906002614868565b6001600160401b0381111561322257613222613e23565b6040519080825280601f01601f19166020018201604052801561324c576020820181803683370190505b509050600360fc1b8160008151811061326757613267614880565b60200101906001600160f81b031916908160001a905350600f60fb1b8160018151811061329657613296614880565b60200101906001600160f81b031916908160001a90535060006132ba8460026148af565b6132c5906001614868565b90505b600181111561333d576f181899199a1a9b1b9c1cb0b131b232b360811b85600f16601081106132f9576132f9614880565b1a60f81b82828151811061330f5761330f614880565b60200101906001600160f81b031916908160001a90535060049490941c9361333681614e04565b90506132c8565b508315610acf5760405162461bcd60e51b815260206004820181905260248201527f537472696e67733a20686578206c656e67746820696e73756666696369656e74604482015260640161079e565b6133968282613995565b6000828152609760205260409020610ee890826121a3565b6133b88282611726565b15610f675760008281526065602090815260408083206001600160a01b0385168085529252808320805460ff1916905551339285917ff6391f5c32d9c69d2a47ea670b442974b53935d1edc7fd64eb21e047a839171b9190a45050565b60008181526101f760205260408120600181015442106134445760008381526101c36020526040902054610acf565b80546001820154600091613457916148f0565b82549091504210613499578154819061347090426148f0565b60008681526101c3602052604090205461348a91906148af565b61349491906148ce565b61349c565b60005b949350505050565b6000818310156134b45781610acf565b5090919050565b611679816040516024016134cf9190613e10565b60408051601f198184030181529190526020810180516001600160e01b031663104c13eb60e21b179052613a1b565b6001600160a01b0384163b15610eba5760405163f23a6e6160e01b81526001600160a01b0385169063f23a6e61906135429089908990889088908890600401614e1b565b6020604051808303816000875af192505050801561357d575060408051601f3d908101601f1916820190925261357a91810190614c55565b60015b61358957612dc5614c72565b6001600160e01b0319811663f23a6e6160e01b14611c1e5760405162461bcd60e51b815260040161079e90614d17565b6000806135c76008846148af565b60016135d46008876148af565b6135df906002614f44565b6135e991906148f0565b901b90508481166135fb6008856148af565b1c95945050505050565b60008281526101f7602090815260408083206101c39092528220546002820154839161363091614868565b90508060000361364557600092505050610acf565b60006136518587610838565b6001600160a01b03861660009081526008850160205260408120549192506136788861129a565b90506000848a6136888686614868565b61369291906148af565b61369c91906148ce565b9a9950505050505050505050565b6001600160a01b0384166136d05760405162461bcd60e51b815260040161079e90614d5f565b336136e08187876123d788612e95565b600084815260c9602090815260408083206001600160a01b038a168452909152902054838110156137235760405162461bcd60e51b815260040161079e90614da4565b600085815260c9602090815260408083206001600160a01b038b8116855292528083208785039055908816825281208054869290613762908490614868565b909155505060408051868152602081018690526001600160a01b03808916928a821692918616917fc3d58168c5ae7397731d063d5bbf3d657854427343f4c083240f7aacaa2d0f62910160405180910390a4611c1e8288888888886134fe565b600054610100900460ff166137e95760405162461bcd60e51b815260040161079e90614bac565b61167981613a3c565b600054610100900460ff166138195760405162461bcd60e51b815260040161079e90614bac565b6138246000336124d3565b61383c600080516020614fdd833981519152336124d3565b611679600080516020614fbd833981519152336124d3565b60006001600160e01b03198216635a05180f60e01b14806108c957506108c982613a4f565b613887868686868686613a84565b6001600160a01b03851661390f5760005b835181101561390d578281815181106138b3576138b3614880565b60200260200101516101c360008684815181106138d2576138d2614880565b6020026020010151815260200190815260200160002060008282546138f79190614868565b90915550613906905081614896565b9050613898565b505b6001600160a01b038416610eba5760005b8351811015611c1e5782818151811061393b5761393b614880565b60200260200101516101c3600086848151811061395a5761395a614880565b60200260200101518152602001908152602001600020600082825461397f91906148f0565b9091555061398e905081614896565b9050613920565b61399f8282611726565b610f675760008281526065602090815260408083206001600160a01b03851684529091529020805460ff191660011790556139d73390565b6001600160a01b0316816001600160a01b0316837f2f8788117e7eff1d82e926ec794901d17c78024a50270940304540a733656f0d60405160405180910390a45050565b80516a636f6e736f6c652e6c6f67602083016000808483855afa5050505050565b8051610f679060cb906020840190613b9b565b60006001600160e01b03198216637965db0b60e01b14806108c957506301ffc9a760e01b6001600160e01b03198316146108c9565b610eba86868686868661012d5460ff1615610eba5760405162461bcd60e51b815260206004820152602c60248201527f455243313135355061757361626c653a20746f6b656e207472616e736665722060448201526b1dda1a5b19481c185d5cd95960a21b606482015260840161079e565b60405180610120016040528060008152602001600081526020016000815260200160008152602001600081526020016000815260200160008152602001606081526020016000151581525090565b60405180610120016040528060006001600160a01b03168152602001600081526020016000815260200160008152602001600081526020016000815260200160008152602001600081526020016000151581525090565b828054613ba7906147c1565b90600052602060002090601f016020900481019282613bc95760008555613c0f565b82601f10613be257805160ff1916838001178555613c0f565b82800160010185558215613c0f579182015b82811115613c0f578251825591602001919060010190613bf4565b50613c1b929150613c1f565b5090565b5b80821115613c1b5760008155600101613c20565b80356001600160a01b0381168114613c4b57600080fd5b919050565b60008083601f840112613c6257600080fd5b5081356001600160401b03811115613c7957600080fd5b602083019150836020828501011115613c9157600080fd5b9250929050565b60008060008060008060008060c0898b031215613cb457600080fd5b613cbd89613c34565b9750613ccb60208a01613c34565b9650613cd960408a01613c34565b95506060890135945060808901356001600160401b0380821115613cfc57600080fd5b613d088c838d01613c50565b909650945060a08b0135915080821115613d2157600080fd5b50613d2e8b828c01613c50565b999c989b5096995094979396929594505050565b60008060408385031215613d5557600080fd5b613d5e83613c34565b946020939093013593505050565b6001600160e01b03198116811461167957600080fd5b600060208284031215613d9457600080fd5b8135610acf81613d6c565b600060208284031215613db157600080fd5b5035919050565b60005b83811015613dd3578181015183820152602001613dbb565b838111156109ae5750506000910152565b60008151808452613dfc816020860160208601613db8565b601f01601f19169290920160200192915050565b602081526000610acf6020830184613de4565b634e487b7160e01b600052604160045260246000fd5b601f8201601f191681016001600160401b0381118282101715613e5e57613e5e613e23565b6040525050565b60006001600160401b03821115613e7e57613e7e613e23565b5060051b60200190565b600082601f830112613e9957600080fd5b81356020613ea682613e65565b604051613eb38282613e39565b83815260059390931b8501820192828101915086841115613ed357600080fd5b8286015b84811015613eee5780358352918301918301613ed7565b509695505050505050565b60006001600160401b03831115613f1257613f12613e23565b604051613f29601f8501601f191660200182613e39565b809150838152848484011115613f3e57600080fd5b83836020830137600060208583010152509392505050565b600082601f830112613f6757600080fd5b610acf83833560208501613ef9565b60008060008060808587031215613f8c57600080fd5b613f9585613c34565b935060208501356001600160401b0380821115613fb157600080fd5b613fbd88838901613e88565b94506040870135915080821115613fd357600080fd5b613fdf88838901613e88565b93506060870135915080821115613ff557600080fd5b5061400287828801613f56565b91505092959194509250565b60008060006060848603121561402357600080fd5b61402c84613c34565b95602085013595506040909401359392505050565b60008083601f84011261405357600080fd5b5081356001600160401b0381111561406a57600080fd5b6020830191508360208260051b8501011115613c9157600080fd5b6000806020838503121561409857600080fd5b82356001600160401b038111156140ae57600080fd5b6140ba85828601614041565b90969095509350505050565b6000610120808401835185526020808501518187015260408501516040870152606085015160608701526080850151608087015260a085015160a087015260c085015160c087015260e08501518360e08801528293508051808452610140880194508282019350600091505b8082101561415b5783516001600160a01b03168552938201939282019260019190910190614132565b505050506101009283015115159390920192909252919050565b6000602080830181845280855180835260408601915060408160051b870101925083870160005b828110156141ca57603f198886030184526141b88583516140c6565b9450928501929085019060010161419c565b5092979650505050505050565b602081526000610acf60208301846140c6565b600080600080600060a0868803121561420257600080fd5b61420b86613c34565b945061421960208701613c34565b935060408601356001600160401b038082111561423557600080fd5b61424189838a01613e88565b9450606088013591508082111561425757600080fd5b61426389838a01613e88565b9350608088013591508082111561427957600080fd5b5061428688828901613f56565b9150509295509295909350565b600080604083850312156142a657600080fd5b823591506142b660208401613c34565b90509250929050565b6000602082840312156142d157600080fd5b610acf82613c34565b80516001600160a01b031682526020808201519083015260408082015190830152606080820151908301526080808201519083015260a0818101519083015260c0808201519083015260e08082015190830152610100908101511515910152565b6020808252825182820181905260009190848201906040850190845b8181101561437e5761436a8385516142da565b928401926101209290920191600101614357565b50909695505050505050565b6000806040838503121561439d57600080fd5b82356001600160401b03808211156143b457600080fd5b818501915085601f8301126143c857600080fd5b813560206143d582613e65565b6040516143e28282613e39565b83815260059390931b850182019282810191508984111561440257600080fd5b948201945b838610156144275761441886613c34565b82529482019490820190614407565b9650508601359250508082111561443d57600080fd5b5061444a85828601613e88565b9150509250929050565b600081518084526020808501945080840160005b8381101561448457815187529582019590820190600101614468565b509495945050505050565b602081526000610acf6020830184614454565b61012081016108c982846142da565b6000806000806000606086880312156144c957600080fd5b6144d286613c34565b945060208601356001600160401b03808211156144ee57600080fd5b6144fa89838a01614041565b9096509450604088013591508082111561451357600080fd5b5061452088828901614041565b969995985093965092949392505050565b6000806000806080858703121561454757600080fd5b61455085613c34565b9350602085013592506040850135915060608501356001600160401b0381111561457957600080fd5b61400287828801613f56565b6000806040838503121561459857600080fd5b50508035926020909101359150565b600080604083850312156145ba57600080fd5b6145c383613c34565b9150602083013580151581146145d857600080fd5b809150509250929050565b6000806000606084860312156145f857600080fd5b505081359360208301359350604090920135919050565b6000806000806000806060878903121561462857600080fd5b86356001600160401b038082111561463f57600080fd5b61464b8a838b01614041565b9098509650602089013591508082111561466457600080fd5b6146708a838b01614041565b9096509450604089013591508082111561468957600080fd5b5061469689828a01614041565b979a9699509497509295939492505050565b6000806000606084860312156146bd57600080fd5b6146c684613c34565b92506146d460208501613c34565b91506146e260408501613c34565b90509250925092565b600080604083850312156146fe57600080fd5b61470783613c34565b91506142b660208401613c34565b600080600080600060a0868803121561472d57600080fd5b61473686613c34565b945061474460208701613c34565b9350604086013592506060860135915060808601356001600160401b0381111561476d57600080fd5b61428688828901613f56565b60006020828403121561478b57600080fd5b81356001600160401b038111156147a157600080fd5b8201601f810184136147b257600080fd5b61349c84823560208401613ef9565b600181811c908216806147d557607f821691505b60208210810361138257634e487b7160e01b600052602260045260246000fd5b60208082526038908201527f455243313135355072657365744d696e7465725061757365723a206d7573742060408201527f68617665206d696e74657220726f6c6520746f206d696e740000000000000000606082015260800190565b634e487b7160e01b600052601160045260246000fd5b6000821982111561487b5761487b614852565b500190565b634e487b7160e01b600052603260045260246000fd5b6000600182016148a8576148a8614852565b5060010190565b60008160001904831182151516156148c9576148c9614852565b500290565b6000826148eb57634e487b7160e01b600052601260045260246000fd5b500490565b60008282101561490257614902614852565b500390565b6020808252602e908201527f496e697469616c697a61626c653a20636f6e747261637420697320616c72656160408201526d191e481a5b9a5d1a585b1a5e995960921b606082015260800190565b60208082526010908201526f14185d5cd8589b194e881c185d5cd95960821b604082015260600190565b60006020828403121561499157600080fd5b5051919050565b6040815260006149c460408301600c81526b66726f6d4163636f756e747360a01b602082015260400190565b828103602093840152600a81526972656d6f76616c49647360b01b928101929092525060400190565b604081526000614a1960408301600c81526b66726f6d4163636f756e747360a01b602082015260400190565b8281036020938401526007815266616d6f756e747360c81b928101929092525060400190565b60208082526021908201527f455243313135353a206d696e7420746f20746865207a65726f206164647265736040820152607360f81b606082015260800190565b60208082526028908201527f455243313135353a2069647320616e6420616d6f756e7473206c656e677468206040820152670dad2e6dac2e8c6d60c31b606082015260800190565b604081526000614adb6040830185614454565b8281036020840152614aed8185614454565b95945050505050565b7f416363657373436f6e74726f6c3a206163636f756e7420000000000000000000815260008351614b2e816017850160208801613db8565b7001034b99036b4b9b9b4b733903937b6329607d1b6017918401918201528351614b5f816028840160208801613db8565b01602801949350505050565b6001600160a01b03919091168152604060208201819052601590820152745343484544554c455f43524541544f525f524f4c4560581b606082015260800190565b6020808252602b908201527f496e697469616c697a61626c653a20636f6e7472616374206973206e6f74206960408201526a6e697469616c697a696e6760a81b606082015260800190565b6001600160a01b0386811682528516602082015260a060408201819052600090614c2390830186614454565b8281036060840152614c358186614454565b90508281036080840152614c498185613de4565b98975050505050505050565b600060208284031215614c6757600080fd5b8151610acf81613d6c565b600060033d1115614c8b5760046000803e5060005160e01c5b90565b600060443d1015614c9c5790565b6040516003193d81016004833e81513d6001600160401b038160248401118184111715614ccb57505050505090565b8285019150815181811115614ce35750505050505090565b843d8701016020828501011115614cfd5750505050505090565b614d0c60208286010187613e39565b509095945050505050565b60208082526028908201527f455243313135353a204552433131353552656365697665722072656a656374656040820152676420746f6b656e7360c01b606082015260800190565b60208082526025908201527f455243313135353a207472616e7366657220746f20746865207a65726f206164604082015264647265737360d81b606082015260800190565b6020808252602a908201527f455243313135353a20696e73756666696369656e742062616c616e636520666f60408201526939103a3930b739b332b960b11b606082015260800190565b634e487b7160e01b600052603160045260246000fd5b600081614e1357614e13614852565b506000190190565b6001600160a01b03868116825285166020820152604081018490526060810183905260a060808201819052600090614e5590830184613de4565b979650505050505050565b600181815b80851115614e9b578160001904821115614e8157614e81614852565b80851615614e8e57918102915b93841c9390800290614e65565b509250929050565b600082614eb2575060016108c9565b81614ebf575060006108c9565b8160018114614ed55760028114614edf57614efb565b60019150506108c9565b60ff841115614ef057614ef0614852565b50506001821b6108c9565b5060208310610133831016604e8410600b8410161715614f1e575081810a6108c9565b614f288383614e60565b8060001904821115614f3c57614f3c614852565b029392505050565b6000610acf8383614ea356fe68747470733a2f2f6e6f72692e636f6d2f6170692f7265737472696374696f6e7363686564756c652f7b69647d2e6a736f6e696e7369646520455243313135357570677261646561626c65205f6d696e74206265666f7265206265666f7265546f6b656e5472616e7366657265d7a28e3265b37a6474929f336521b332c1681b933f6cb9f3376673440d862a9f2df0fed2c77648de5860a4cc508cd0818c85b8b8a1ab4ceeef8d981c8956a6b62aeb2ef35a3718e51a7e8b0b0d8e6fa690a4037bf45dad308976da469a861ca2646970667358221220af31e9c363df127b6a7c147e1c6bdbe5fd67ca6e4669a2a3ba9282ec7bee601d64736f6c634300080d0033",
  "linkReferences": {},
  "deployedLinkReferences": {}
}