{
  "_format": "hh-sol-artifact-1",
  "contractName": "RestrictedNORI",
  "sourceName": "contracts/RestrictedNORI.sol",
  "abi": [
    {
      "inputs": [
        {
          "internalType": "string",
          "name": "array1Name",
          "type": "string"
        },
        {
          "internalType": "string",
          "name": "array2Name",
          "type": "string"
        }
      ],
      "name": "ArrayLengthMismatch",
      "type": "error"
    },
    {
      "inputs": [],
      "name": "BurningNotSupported",
      "type": "error"
    },
    {
      "inputs": [
        {
          "internalType": "address",
          "name": "account",
          "type": "address"
        },
        {
          "internalType": "uint256",
          "name": "scheduleId",
          "type": "uint256"
        }
      ],
      "name": "InsufficientBalance",
      "type": "error"
    },
    {
      "inputs": [
        {
          "internalType": "address",
          "name": "account",
          "type": "address"
        },
        {
          "internalType": "uint256",
          "name": "scheduleId",
          "type": "uint256"
        }
      ],
      "name": "InsufficientClaimableBalance",
      "type": "error"
    },
    {
      "inputs": [
        {
          "internalType": "uint256",
          "name": "scheduleId",
          "type": "uint256"
        }
      ],
      "name": "InsufficientUnreleasedTokens",
      "type": "error"
    },
    {
      "inputs": [
        {
          "internalType": "address",
          "name": "account",
          "type": "address"
        }
      ],
      "name": "InvalidBpNoriSender",
      "type": "error"
    },
    {
      "inputs": [
        {
          "internalType": "uint256",
          "name": "projectId",
          "type": "uint256"
        }
      ],
      "name": "InvalidScheduleStartTime",
      "type": "error"
    },
    {
      "inputs": [],
      "name": "MintingNotSupported",
      "type": "error"
    },
    {
      "inputs": [
        {
          "internalType": "address",
          "name": "account",
          "type": "address"
        },
        {
          "internalType": "string",
          "name": "role",
          "type": "string"
        }
      ],
      "name": "MissingRole",
      "type": "error"
    },
    {
      "inputs": [
        {
          "internalType": "uint256",
          "name": "scheduleId",
          "type": "uint256"
        }
      ],
      "name": "NonexistentSchedule",
      "type": "error"
    },
    {
      "inputs": [],
      "name": "OperatorActionsNotSupported",
      "type": "error"
    },
    {
      "inputs": [],
      "name": "RecipientCannotBeZeroAddress",
      "type": "error"
    },
    {
      "inputs": [
        {
          "internalType": "address",
          "name": "recipient",
          "type": "address"
        },
        {
          "internalType": "string",
          "name": "role",
          "type": "string"
        }
      ],
      "name": "RecipientCannotHaveRole",
      "type": "error"
    },
    {
      "inputs": [
        {
          "internalType": "uint256",
          "name": "projectId",
          "type": "uint256"
        }
      ],
      "name": "RestrictionDurationNotSet",
      "type": "error"
    },
    {
      "inputs": [
        {
          "internalType": "address",
          "name": "account",
          "type": "address"
        },
        {
          "internalType": "string",
          "name": "role",
          "type": "string"
        }
      ],
      "name": "RoleCannotTransfer",
      "type": "error"
    },
    {
      "inputs": [
        {
          "internalType": "address",
          "name": "account",
          "type": "address"
        },
        {
          "internalType": "string",
          "name": "role",
          "type": "string"
        }
      ],
      "name": "RoleUnassignableToScheduleHolder",
      "type": "error"
    },
    {
      "inputs": [
        {
          "internalType": "uint256",
          "name": "scheduleTokenId",
          "type": "uint256"
        }
      ],
      "name": "ScheduleExists",
      "type": "error"
    },
    {
      "inputs": [],
      "name": "TokenSenderNotBPNORI",
      "type": "error"
    },
    {
      "anonymous": false,
      "inputs": [
        {
          "indexed": true,
          "internalType": "address",
          "name": "account",
          "type": "address"
        },
        {
          "indexed": true,
          "internalType": "address",
          "name": "operator",
          "type": "address"
        },
        {
          "indexed": false,
          "internalType": "bool",
          "name": "approved",
          "type": "bool"
        }
      ],
      "name": "ApprovalForAll",
      "type": "event"
    },
    {
      "anonymous": false,
      "inputs": [
        {
          "indexed": false,
          "internalType": "address",
          "name": "account",
          "type": "address"
        }
      ],
      "name": "Paused",
      "type": "event"
    },
    {
      "anonymous": false,
      "inputs": [
        {
          "indexed": true,
          "internalType": "bytes32",
          "name": "role",
          "type": "bytes32"
        },
        {
          "indexed": true,
          "internalType": "bytes32",
          "name": "previousAdminRole",
          "type": "bytes32"
        },
        {
          "indexed": true,
          "internalType": "bytes32",
          "name": "newAdminRole",
          "type": "bytes32"
        }
      ],
      "name": "RoleAdminChanged",
      "type": "event"
    },
    {
      "anonymous": false,
      "inputs": [
        {
          "indexed": true,
          "internalType": "bytes32",
          "name": "role",
          "type": "bytes32"
        },
        {
          "indexed": true,
          "internalType": "address",
          "name": "account",
          "type": "address"
        },
        {
          "indexed": true,
          "internalType": "address",
          "name": "sender",
          "type": "address"
        }
      ],
      "name": "RoleGranted",
      "type": "event"
    },
    {
      "anonymous": false,
      "inputs": [
        {
          "indexed": true,
          "internalType": "bytes32",
          "name": "role",
          "type": "bytes32"
        },
        {
          "indexed": true,
          "internalType": "address",
          "name": "account",
          "type": "address"
        },
        {
          "indexed": true,
          "internalType": "address",
          "name": "sender",
          "type": "address"
        }
      ],
      "name": "RoleRevoked",
      "type": "event"
    },
    {
      "anonymous": false,
      "inputs": [
        {
          "indexed": true,
          "internalType": "uint256",
          "name": "projectId",
          "type": "uint256"
        }
      ],
      "name": "ScheduleCreated",
      "type": "event"
    },
    {
      "anonymous": false,
      "inputs": [
        {
          "indexed": true,
          "internalType": "address",
          "name": "from",
          "type": "address"
        },
        {
          "indexed": true,
          "internalType": "address",
          "name": "to",
          "type": "address"
        },
        {
          "indexed": true,
          "internalType": "uint256",
          "name": "scheduleId",
          "type": "uint256"
        },
        {
          "indexed": false,
          "internalType": "uint256",
          "name": "quantity",
          "type": "uint256"
        }
      ],
      "name": "TokensClaimed",
      "type": "event"
    },
    {
      "anonymous": false,
      "inputs": [
        {
          "indexed": true,
          "internalType": "uint256",
          "name": "atTime",
          "type": "uint256"
        },
        {
          "indexed": true,
          "internalType": "uint256",
          "name": "removalId",
          "type": "uint256"
        },
        {
          "indexed": true,
          "internalType": "uint256",
          "name": "scheduleId",
          "type": "uint256"
        },
        {
          "indexed": false,
          "internalType": "uint256",
          "name": "quantity",
          "type": "uint256"
        }
      ],
      "name": "TokensRevoked",
      "type": "event"
    },
    {
      "anonymous": false,
      "inputs": [
        {
          "indexed": true,
          "internalType": "address",
          "name": "operator",
          "type": "address"
        },
        {
          "indexed": true,
          "internalType": "address",
          "name": "from",
          "type": "address"
        },
        {
          "indexed": true,
          "internalType": "address",
          "name": "to",
          "type": "address"
        },
        {
          "indexed": false,
          "internalType": "uint256[]",
          "name": "ids",
          "type": "uint256[]"
        },
        {
          "indexed": false,
          "internalType": "uint256[]",
          "name": "values",
          "type": "uint256[]"
        }
      ],
      "name": "TransferBatch",
      "type": "event"
    },
    {
      "anonymous": false,
      "inputs": [
        {
          "indexed": true,
          "internalType": "address",
          "name": "operator",
          "type": "address"
        },
        {
          "indexed": true,
          "internalType": "address",
          "name": "from",
          "type": "address"
        },
        {
          "indexed": true,
          "internalType": "address",
          "name": "to",
          "type": "address"
        },
        {
          "indexed": false,
          "internalType": "uint256",
          "name": "id",
          "type": "uint256"
        },
        {
          "indexed": false,
          "internalType": "uint256",
          "name": "value",
          "type": "uint256"
        }
      ],
      "name": "TransferSingle",
      "type": "event"
    },
    {
      "anonymous": false,
      "inputs": [
        {
          "indexed": false,
          "internalType": "string",
          "name": "value",
          "type": "string"
        },
        {
          "indexed": true,
          "internalType": "uint256",
          "name": "id",
          "type": "uint256"
        }
      ],
      "name": "URI",
      "type": "event"
    },
    {
      "anonymous": false,
      "inputs": [
        {
          "indexed": false,
          "internalType": "address",
          "name": "account",
          "type": "address"
        }
      ],
      "name": "Unpaused",
      "type": "event"
    },
    {
      "inputs": [],
      "name": "DEFAULT_ADMIN_ROLE",
      "outputs": [
        {
          "internalType": "bytes32",
          "name": "",
          "type": "bytes32"
        }
      ],
      "stateMutability": "view",
      "type": "function"
    },
    {
      "inputs": [],
      "name": "ERC777_TOKENS_RECIPIENT_HASH",
      "outputs": [
        {
          "internalType": "bytes32",
          "name": "",
          "type": "bytes32"
        }
      ],
      "stateMutability": "view",
      "type": "function"
    },
    {
      "inputs": [],
      "name": "MINTER_ROLE",
      "outputs": [
        {
          "internalType": "bytes32",
          "name": "",
          "type": "bytes32"
        }
      ],
      "stateMutability": "view",
      "type": "function"
    },
    {
      "inputs": [],
      "name": "PAUSER_ROLE",
      "outputs": [
        {
          "internalType": "bytes32",
          "name": "",
          "type": "bytes32"
        }
      ],
      "stateMutability": "view",
      "type": "function"
    },
    {
      "inputs": [],
      "name": "SCHEDULE_CREATOR_ROLE",
      "outputs": [
        {
          "internalType": "bytes32",
          "name": "",
          "type": "bytes32"
        }
      ],
      "stateMutability": "view",
      "type": "function"
    },
    {
      "inputs": [],
      "name": "TOKEN_REVOKER_ROLE",
      "outputs": [
        {
          "internalType": "bytes32",
          "name": "",
          "type": "bytes32"
        }
      ],
      "stateMutability": "view",
      "type": "function"
    },
    {
      "inputs": [
        {
          "internalType": "address",
          "name": "account",
          "type": "address"
        },
        {
          "internalType": "uint256",
          "name": "id",
          "type": "uint256"
        }
      ],
      "name": "balanceOf",
      "outputs": [
        {
          "internalType": "uint256",
          "name": "",
          "type": "uint256"
        }
      ],
      "stateMutability": "view",
      "type": "function"
    },
    {
      "inputs": [
        {
          "internalType": "address[]",
          "name": "accounts",
          "type": "address[]"
        },
        {
          "internalType": "uint256[]",
          "name": "ids",
          "type": "uint256[]"
        }
      ],
      "name": "balanceOfBatch",
      "outputs": [
        {
          "internalType": "uint256[]",
          "name": "",
          "type": "uint256[]"
        }
      ],
      "stateMutability": "view",
      "type": "function"
    },
    {
      "inputs": [
        {
          "internalType": "address",
          "name": "account",
          "type": "address"
        }
      ],
      "name": "batchGetScheduleDetailsForAccount",
      "outputs": [
        {
          "components": [
            {
              "internalType": "address",
              "name": "tokenHolder",
              "type": "address"
            },
            {
              "internalType": "uint256",
              "name": "scheduleTokenId",
              "type": "uint256"
            },
            {
              "internalType": "uint256",
              "name": "startTime",
              "type": "uint256"
            },
            {
              "internalType": "uint256",
              "name": "endTime",
              "type": "uint256"
            },
            {
              "internalType": "uint256",
              "name": "balance",
              "type": "uint256"
            },
            {
              "internalType": "uint256",
              "name": "claimableAmount",
              "type": "uint256"
            },
            {
              "internalType": "uint256",
              "name": "claimedAmount",
              "type": "uint256"
            },
            {
              "internalType": "uint256",
              "name": "quantityRevoked",
              "type": "uint256"
            },
            {
              "internalType": "bool",
              "name": "exists",
              "type": "bool"
            }
          ],
          "internalType": "struct RestrictedNORI.ScheduleDetailForAddress[]",
          "name": "",
          "type": "tuple[]"
        }
      ],
      "stateMutability": "view",
      "type": "function"
    },
    {
      "inputs": [
        {
          "internalType": "uint256[]",
          "name": "scheduleIds",
          "type": "uint256[]"
        }
      ],
      "name": "batchGetScheduleSummaries",
      "outputs": [
        {
          "components": [
            {
              "internalType": "uint256",
              "name": "scheduleTokenId",
              "type": "uint256"
            },
            {
              "internalType": "uint256",
              "name": "startTime",
              "type": "uint256"
            },
            {
              "internalType": "uint256",
              "name": "endTime",
              "type": "uint256"
            },
            {
              "internalType": "uint256",
              "name": "totalSupply",
              "type": "uint256"
            },
            {
              "internalType": "uint256",
              "name": "totalClaimableAmount",
              "type": "uint256"
            },
            {
              "internalType": "uint256",
              "name": "totalClaimedAmount",
              "type": "uint256"
            },
            {
              "internalType": "uint256",
              "name": "totalQuantityRevoked",
              "type": "uint256"
            },
            {
              "internalType": "address[]",
              "name": "tokenHolders",
              "type": "address[]"
            },
            {
              "internalType": "bool",
              "name": "exists",
              "type": "bool"
            }
          ],
          "internalType": "struct RestrictedNORI.ScheduleSummary[]",
          "name": "",
          "type": "tuple[]"
        }
      ],
      "stateMutability": "view",
      "type": "function"
    },
    {
      "inputs": [
        {
          "internalType": "address[]",
          "name": "toAccounts",
          "type": "address[]"
        },
        {
          "internalType": "uint256[]",
          "name": "removalIds",
          "type": "uint256[]"
        },
        {
          "internalType": "uint256[]",
          "name": "amounts",
          "type": "uint256[]"
        }
      ],
      "name": "batchRevokeUnreleasedTokenAmounts",
      "outputs": [],
      "stateMutability": "nonpayable",
      "type": "function"
    },
    {
      "inputs": [
        {
          "internalType": "address",
          "name": "",
          "type": "address"
        },
        {
          "internalType": "uint256",
          "name": "",
          "type": "uint256"
        },
        {
          "internalType": "uint256",
          "name": "",
          "type": "uint256"
        }
      ],
      "name": "burn",
      "outputs": [],
      "stateMutability": "pure",
      "type": "function"
    },
    {
      "inputs": [
        {
          "internalType": "address",
          "name": "",
          "type": "address"
        },
        {
          "internalType": "uint256[]",
          "name": "",
          "type": "uint256[]"
        },
        {
          "internalType": "uint256[]",
          "name": "",
          "type": "uint256[]"
        }
      ],
      "name": "burnBatch",
      "outputs": [],
      "stateMutability": "pure",
      "type": "function"
    },
    {
      "inputs": [
        {
          "internalType": "uint256",
          "name": "scheduleId",
          "type": "uint256"
        }
      ],
      "name": "claimableBalanceForSchedule",
      "outputs": [
        {
          "internalType": "uint256",
          "name": "",
          "type": "uint256"
        }
      ],
      "stateMutability": "view",
      "type": "function"
    },
    {
      "inputs": [
        {
          "internalType": "uint256",
          "name": "scheduleId",
          "type": "uint256"
        },
        {
          "internalType": "address",
          "name": "account",
          "type": "address"
        }
      ],
      "name": "claimableBalanceForScheduleForAccount",
      "outputs": [
        {
          "internalType": "uint256",
          "name": "",
          "type": "uint256"
        }
      ],
      "stateMutability": "view",
      "type": "function"
    },
    {
      "inputs": [
        {
          "internalType": "uint256",
          "name": "projectId",
          "type": "uint256"
        }
      ],
      "name": "createSchedule",
      "outputs": [],
      "stateMutability": "nonpayable",
      "type": "function"
    },
    {
      "inputs": [
        {
          "internalType": "uint256",
          "name": "id",
          "type": "uint256"
        }
      ],
      "name": "exists",
      "outputs": [
        {
          "internalType": "bool",
          "name": "",
          "type": "bool"
        }
      ],
      "stateMutability": "view",
      "type": "function"
    },
    {
      "inputs": [],
      "name": "getAllScheduleIds",
      "outputs": [
        {
          "internalType": "uint256[]",
          "name": "",
          "type": "uint256[]"
        }
      ],
      "stateMutability": "view",
      "type": "function"
    },
    {
      "inputs": [
        {
          "internalType": "uint256",
          "name": "methodology",
          "type": "uint256"
        },
        {
          "internalType": "uint256",
          "name": "methodologyVersion",
          "type": "uint256"
        }
      ],
      "name": "getRestrictionDurationForMethodologyAndVersion",
      "outputs": [
        {
          "components": [
            {
              "internalType": "uint256",
              "name": "duration",
              "type": "uint256"
            },
            {
              "internalType": "bool",
              "name": "wasSet",
              "type": "bool"
            }
          ],
          "internalType": "struct RestrictedNORI.RestrictionDuration",
          "name": "",
          "type": "tuple"
        }
      ],
      "stateMutability": "view",
      "type": "function"
    },
    {
      "inputs": [
        {
          "internalType": "bytes32",
          "name": "role",
          "type": "bytes32"
        }
      ],
      "name": "getRoleAdmin",
      "outputs": [
        {
          "internalType": "bytes32",
          "name": "",
          "type": "bytes32"
        }
      ],
      "stateMutability": "view",
      "type": "function"
    },
    {
      "inputs": [
        {
          "internalType": "bytes32",
          "name": "role",
          "type": "bytes32"
        },
        {
          "internalType": "uint256",
          "name": "index",
          "type": "uint256"
        }
      ],
      "name": "getRoleMember",
      "outputs": [
        {
          "internalType": "address",
          "name": "",
          "type": "address"
        }
      ],
      "stateMutability": "view",
      "type": "function"
    },
    {
      "inputs": [
        {
          "internalType": "bytes32",
          "name": "role",
          "type": "bytes32"
        }
      ],
      "name": "getRoleMemberCount",
      "outputs": [
        {
          "internalType": "uint256",
          "name": "",
          "type": "uint256"
        }
      ],
      "stateMutability": "view",
      "type": "function"
    },
    {
      "inputs": [
        {
          "internalType": "address",
          "name": "account",
          "type": "address"
        },
        {
          "internalType": "uint256",
          "name": "scheduleId",
          "type": "uint256"
        }
      ],
      "name": "getScheduleDetailForAccount",
      "outputs": [
        {
          "components": [
            {
              "internalType": "address",
              "name": "tokenHolder",
              "type": "address"
            },
            {
              "internalType": "uint256",
              "name": "scheduleTokenId",
              "type": "uint256"
            },
            {
              "internalType": "uint256",
              "name": "startTime",
              "type": "uint256"
            },
            {
              "internalType": "uint256",
              "name": "endTime",
              "type": "uint256"
            },
            {
              "internalType": "uint256",
              "name": "balance",
              "type": "uint256"
            },
            {
              "internalType": "uint256",
              "name": "claimableAmount",
              "type": "uint256"
            },
            {
              "internalType": "uint256",
              "name": "claimedAmount",
              "type": "uint256"
            },
            {
              "internalType": "uint256",
              "name": "quantityRevoked",
              "type": "uint256"
            },
            {
              "internalType": "bool",
              "name": "exists",
              "type": "bool"
            }
          ],
          "internalType": "struct RestrictedNORI.ScheduleDetailForAddress",
          "name": "",
          "type": "tuple"
        }
      ],
      "stateMutability": "view",
      "type": "function"
    },
    {
      "inputs": [
        {
          "internalType": "address",
          "name": "account",
          "type": "address"
        }
      ],
      "name": "getScheduleIdsForAccount",
      "outputs": [
        {
          "internalType": "uint256[]",
          "name": "",
          "type": "uint256[]"
        }
      ],
      "stateMutability": "view",
      "type": "function"
    },
    {
      "inputs": [
        {
          "internalType": "uint256",
          "name": "scheduleId",
          "type": "uint256"
        }
      ],
      "name": "getScheduleSummary",
      "outputs": [
        {
          "components": [
            {
              "internalType": "uint256",
              "name": "scheduleTokenId",
              "type": "uint256"
            },
            {
              "internalType": "uint256",
              "name": "startTime",
              "type": "uint256"
            },
            {
              "internalType": "uint256",
              "name": "endTime",
              "type": "uint256"
            },
            {
              "internalType": "uint256",
              "name": "totalSupply",
              "type": "uint256"
            },
            {
              "internalType": "uint256",
              "name": "totalClaimableAmount",
              "type": "uint256"
            },
            {
              "internalType": "uint256",
              "name": "totalClaimedAmount",
              "type": "uint256"
            },
            {
              "internalType": "uint256",
              "name": "totalQuantityRevoked",
              "type": "uint256"
            },
            {
              "internalType": "address[]",
              "name": "tokenHolders",
              "type": "address[]"
            },
            {
              "internalType": "bool",
              "name": "exists",
              "type": "bool"
            }
          ],
          "internalType": "struct RestrictedNORI.ScheduleSummary",
          "name": "",
          "type": "tuple"
        }
      ],
      "stateMutability": "view",
      "type": "function"
    },
    {
      "inputs": [
        {
          "internalType": "bytes32",
          "name": "role",
          "type": "bytes32"
        },
        {
          "internalType": "address",
          "name": "account",
          "type": "address"
        }
      ],
      "name": "grantRole",
      "outputs": [],
      "stateMutability": "nonpayable",
      "type": "function"
    },
    {
      "inputs": [
        {
          "internalType": "bytes32",
          "name": "role",
          "type": "bytes32"
        },
        {
          "internalType": "address",
          "name": "account",
          "type": "address"
        }
      ],
      "name": "hasRole",
      "outputs": [
        {
          "internalType": "bool",
          "name": "",
          "type": "bool"
        }
      ],
      "stateMutability": "view",
      "type": "function"
    },
    {
      "inputs": [],
      "name": "initialize",
      "outputs": [],
      "stateMutability": "nonpayable",
      "type": "function"
    },
    {
      "inputs": [
        {
          "internalType": "string",
          "name": "uri",
          "type": "string"
        }
      ],
      "name": "initialize",
      "outputs": [],
      "stateMutability": "nonpayable",
      "type": "function"
    },
    {
      "inputs": [
        {
          "internalType": "address",
          "name": "",
          "type": "address"
        },
        {
          "internalType": "address",
          "name": "",
          "type": "address"
        }
      ],
      "name": "isApprovedForAll",
      "outputs": [
        {
          "internalType": "bool",
          "name": "",
          "type": "bool"
        }
      ],
      "stateMutability": "pure",
      "type": "function"
    },
    {
      "inputs": [
        {
          "internalType": "address",
          "name": "to",
          "type": "address"
        },
        {
          "internalType": "uint256",
          "name": "id",
          "type": "uint256"
        },
        {
          "internalType": "uint256",
          "name": "amount",
          "type": "uint256"
        },
        {
          "internalType": "bytes",
          "name": "data",
          "type": "bytes"
        }
      ],
      "name": "mint",
      "outputs": [],
      "stateMutability": "pure",
      "type": "function"
    },
    {
      "inputs": [
        {
          "internalType": "address",
          "name": "to",
          "type": "address"
        },
        {
          "internalType": "uint256[]",
          "name": "ids",
          "type": "uint256[]"
        },
        {
          "internalType": "uint256[]",
          "name": "amounts",
          "type": "uint256[]"
        },
        {
          "internalType": "bytes",
          "name": "data",
          "type": "bytes"
        }
      ],
      "name": "mintBatch",
      "outputs": [],
      "stateMutability": "pure",
      "type": "function"
    },
    {
      "inputs": [],
      "name": "pause",
      "outputs": [],
      "stateMutability": "nonpayable",
      "type": "function"
    },
    {
      "inputs": [],
      "name": "paused",
      "outputs": [
        {
          "internalType": "bool",
          "name": "",
          "type": "bool"
        }
      ],
      "stateMutability": "view",
      "type": "function"
    },
    {
      "inputs": [
        {
          "internalType": "address",
          "name": "marketAddress",
          "type": "address"
        },
        {
          "internalType": "address",
          "name": "bridgedPolygonNoriAddress",
          "type": "address"
        },
        {
          "internalType": "address",
          "name": "removalAddress",
          "type": "address"
        }
      ],
      "name": "registerContractAddresses",
      "outputs": [],
      "stateMutability": "nonpayable",
      "type": "function"
    },
    {
      "inputs": [
        {
          "internalType": "bytes32",
          "name": "role",
          "type": "bytes32"
        },
        {
          "internalType": "address",
          "name": "account",
          "type": "address"
        }
      ],
      "name": "renounceRole",
      "outputs": [],
      "stateMutability": "nonpayable",
      "type": "function"
    },
    {
      "inputs": [
        {
          "internalType": "uint256",
          "name": "scheduleId",
          "type": "uint256"
        }
      ],
      "name": "revocableQuantityForSchedule",
      "outputs": [
        {
          "internalType": "uint256",
          "name": "",
          "type": "uint256"
        }
      ],
      "stateMutability": "view",
      "type": "function"
    },
    {
      "inputs": [
        {
          "internalType": "bytes32",
          "name": "role",
          "type": "bytes32"
        },
        {
          "internalType": "address",
          "name": "account",
          "type": "address"
        }
      ],
      "name": "revokeRole",
      "outputs": [],
      "stateMutability": "nonpayable",
      "type": "function"
    },
    {
      "inputs": [
        {
          "internalType": "address",
          "name": "from",
          "type": "address"
        },
        {
          "internalType": "address",
          "name": "to",
          "type": "address"
        },
        {
          "internalType": "uint256[]",
          "name": "ids",
          "type": "uint256[]"
        },
        {
          "internalType": "uint256[]",
          "name": "amounts",
          "type": "uint256[]"
        },
        {
          "internalType": "bytes",
          "name": "data",
          "type": "bytes"
        }
      ],
      "name": "safeBatchTransferFrom",
      "outputs": [],
      "stateMutability": "nonpayable",
      "type": "function"
    },
    {
      "inputs": [
        {
          "internalType": "address",
          "name": "from",
          "type": "address"
        },
        {
          "internalType": "address",
          "name": "to",
          "type": "address"
        },
        {
          "internalType": "uint256",
          "name": "id",
          "type": "uint256"
        },
        {
          "internalType": "uint256",
          "name": "amount",
          "type": "uint256"
        },
        {
          "internalType": "bytes",
          "name": "data",
          "type": "bytes"
        }
      ],
      "name": "safeTransferFrom",
      "outputs": [],
      "stateMutability": "nonpayable",
      "type": "function"
    },
    {
      "inputs": [
        {
          "internalType": "address",
          "name": "",
          "type": "address"
        },
        {
          "internalType": "bool",
          "name": "",
          "type": "bool"
        }
      ],
      "name": "setApprovalForAll",
      "outputs": [],
      "stateMutability": "pure",
      "type": "function"
    },
    {
      "inputs": [
        {
          "internalType": "uint256",
          "name": "methodology",
          "type": "uint256"
        },
        {
          "internalType": "uint256",
          "name": "methodologyVersion",
          "type": "uint256"
        },
        {
          "internalType": "uint256",
          "name": "durationInSeconds",
          "type": "uint256"
        }
      ],
      "name": "setRestrictionDurationForMethodologyAndVersion",
      "outputs": [],
      "stateMutability": "nonpayable",
      "type": "function"
    },
    {
      "inputs": [
        {
          "internalType": "bytes4",
          "name": "interfaceId",
          "type": "bytes4"
        }
      ],
      "name": "supportsInterface",
      "outputs": [
        {
          "internalType": "bool",
          "name": "",
          "type": "bool"
        }
      ],
      "stateMutability": "view",
      "type": "function"
    },
    {
      "inputs": [
        {
          "internalType": "address",
          "name": "",
          "type": "address"
        },
        {
          "internalType": "address",
          "name": "from",
          "type": "address"
        },
        {
          "internalType": "address",
          "name": "",
          "type": "address"
        },
        {
          "internalType": "uint256",
          "name": "amount",
          "type": "uint256"
        },
        {
          "internalType": "bytes",
          "name": "userData",
          "type": "bytes"
        },
        {
          "internalType": "bytes",
          "name": "operatorData",
          "type": "bytes"
        }
      ],
      "name": "tokensReceived",
      "outputs": [],
      "stateMutability": "nonpayable",
      "type": "function"
    },
    {
      "inputs": [
        {
          "internalType": "uint256",
          "name": "id",
          "type": "uint256"
        }
      ],
      "name": "totalSupply",
      "outputs": [
        {
          "internalType": "uint256",
          "name": "",
          "type": "uint256"
        }
      ],
      "stateMutability": "view",
      "type": "function"
    },
    {
      "inputs": [],
      "name": "unpause",
      "outputs": [],
      "stateMutability": "nonpayable",
      "type": "function"
    },
    {
      "inputs": [
        {
          "internalType": "uint256",
          "name": "",
          "type": "uint256"
        }
      ],
      "name": "uri",
      "outputs": [
        {
          "internalType": "string",
          "name": "",
          "type": "string"
        }
      ],
      "stateMutability": "view",
      "type": "function"
    },
    {
      "inputs": [
        {
          "internalType": "address",
          "name": "recipient",
          "type": "address"
        },
        {
          "internalType": "uint256",
          "name": "scheduleId",
          "type": "uint256"
        },
        {
          "internalType": "uint256",
          "name": "amount",
          "type": "uint256"
        }
      ],
      "name": "withdrawFromSchedule",
      "outputs": [
        {
          "internalType": "bool",
          "name": "",
          "type": "bool"
        }
      ],
      "stateMutability": "nonpayable",
      "type": "function"
    }
  ],
  "bytecode": "0x608060405234801561001057600080fd5b50614ccb806100206000396000f3fe608060405234801561001057600080fd5b506004361061029e5760003560e01c8063713279b111610167578063ca15c873116100ce578063e6e0a03811610087578063e6e0a03814610694578063e985e9c5146106a7578063f242432a146106ba578063f5298aca146106cd578063f62d1888146106db578063f6f57a2e146106ee57600080fd5b8063ca15c8731461060c578063d53913931461061f578063d547741f14610646578063dfd2cdee14610659578063e01d73931461066c578063e63ab1e91461067f57600080fd5b80639ac7b44d116101205780639ac7b44d14610566578063a217fddf14610596578063a22cb4651461059e578063b8b4dbe0146105b1578063bd85b039146105d8578063c1499fa8146105f957600080fd5b8063713279b1146104f7578063731133e91461050a5780638129fc1c146105185780638456cb59146105205780639010d07c1461052857806391d148541461055357600080fd5b806336568abe1161020b5780635c975abb116101c45780635c975abb1461048a5780635d37165a146104965780636235a4e9146104a957806363343346146104bc578063639aa0ad146104c45780636b20c454146104e457600080fd5b806336568abe146103e557806336e4d3f0146103f85780633f4ba83a146104185780634e1273f4146104205780634f558e7914610440578063521189a91461046357600080fd5b8063248a9ca31161025d578063248a9ca31461034957806327ca0c271461036c5780632d9f0f161461037f5780632e5e8d831461039f5780632eb2c2d6146103bf5780632f2ff15d146103d257600080fd5b806223de29146102a3578062fdd58e146102b857806301ffc9a7146102de5780630e89341c146103015780631f7fdffa14610321578063229afd6114610334575b600080fd5b6102b66102b1366004613a75565b610701565b005b6102cb6102c6366004613b25565b610817565b6040519081526020015b60405180910390f35b6102f16102ec366004613b67565b6108ae565b60405190151581526020016102d5565b61031461030f366004613b84565b6108b9565b6040516102d59190613bf9565b6102b661032f366004613d5f565b61094d565b6102cb600080516020614c7683398151915281565b6102cb610357366004613b84565b60009081526065602052604090206001015490565b6102f161037a366004613df9565b610966565b61039261038d366004613e72565b610a88565b6040516102d59190613f62565b6103b26103ad366004613b84565b610b44565b6040516102d59190613fc4565b6102b66103cd366004613fd7565b610d02565b6102b66103e0366004614084565b610e74565b6102b66103f3366004614084565b610e9f565b61040b6104063660046140b4565b610f1d565b6040516102d59190614132565b6102b6610fe6565b61043361042e366004614181565b61107a565b6040516102d59190614288565b6102f161044e366004613b84565b60009081526101c36020526040902054151590565b6102cb7fb281fc8c12954d22544db45de3159a39272895b169a852b314f9cc762e44c53b81565b61012d5460ff166102f1565b6102cb6104a4366004614084565b61118e565b6102cb6104b7366004613b84565b61124c565b61043361129b565b6104d76104d2366004613b25565b61133a565b6040516102d5919061429b565b6102b66104f23660046142aa565b6113f1565b6102cb610505366004613b84565b61140a565b6102b661032f36600461432c565b6102b6611441565b6102b66115ee565b61053b610536366004614382565b611680565b6040516001600160a01b0390911681526020016102d5565b6102f1610561366004614084565b611698565b610579610574366004614382565b6116c3565b6040805182518152602092830151151592810192909252016102d5565b6102cb600081565b6102b66105ac3660046143a4565b61170a565b6102cb7f813b9efdf6afe6b57682eb1fb850711edc34da21ae7f7376cb7a391b1be3239f81565b6102cb6105e6366004613b84565b60009081526101c3602052604090205490565b6102b66106073660046143d7565b611723565b6102cb61061a366004613b84565b611798565b6102cb7f9f2df0fed2c77648de5860a4cc508cd0818c85b8b8a1ab4ceeef8d981c8956a681565b6102b6610654366004614084565b6117af565b6104336106673660046140b4565b6117d5565b6102b661067a366004614403565b611882565b6102cb600080516020614c5683398151915281565b6102b66106a236600461449c565b611999565b6102f16106b53660046144e7565b6119e8565b6102b66106c8366004614515565b611a03565b6102b66104f2366004613df9565b6102b66106e936600461457d565b611aa3565b6102b66106fc366004613b84565b611b1e565b6101fb546001600160a01b0316336001600160a01b03161461073657604051634628d20b60e01b815260040160405180910390fd5b6101fa546001600160a01b03888116911614806107595750610759600088611698565b61078657604051630465c5db60e41b81526001600160a01b03881660048201526024015b60405180910390fd5b600061079484860186613b84565b905061080b818787878080601f01602080910402602001604051908101604052809392919081815260200183838082843760009201919091525050604080516020601f8b018190048102820181019092528981529250899150889081908401838280828437600092019190915250611b7e92505050565b50505050505050505050565b60006001600160a01b0383166108835760405162461bcd60e51b815260206004820152602b60248201527f455243313135353a2062616c616e636520717565727920666f7220746865207a60448201526a65726f206164647265737360a81b606482015260840161077d565b50600081815260c9602090815260408083206001600160a01b03861684529091529020545b92915050565b60006108a882611cfe565b606060cb80546108c8906145c5565b80601f01602080910402602001604051908101604052809291908181526020018280546108f4906145c5565b80156109415780601f1061091657610100808354040283529160200191610941565b820191906000526020600020905b81548152906001019060200180831161092457829003601f168201915b50505050509050919050565b60405163fd34e50560e01b815260040160405180910390fd5b6000610973338484611d09565b6101fb54604051634decdde360e11b81526001600160a01b03868116600483015260248201859052606060448301526000606483015290911690639bd9bbc690608401600060405180830381600087803b1580156109d057600080fd5b505af11580156109e4573d6000803e3d6000fd5b50505060008481526101f76020526040812060028101805491935085929091610a0e90849061460f565b909155505033600090815260088201602052604081208054859290610a3490849061460f565b909155505060405183815284906001600160a01b0387169033907fff097c7d8b1957a4ff09ef1361b5fb54dcede3941ba836d0beb9d10bec725de69060200160405180910390a460019150505b9392505050565b60606000826001600160401b03811115610aa457610aa4613c0c565b604051908082528060200260200182016040528015610add57816020015b610aca6138da565b815260200190600190039081610ac25790505b50905060005b83811015610b3c57610b0c858583818110610b0057610b00614627565b90506020020135610b44565b828281518110610b1e57610b1e614627565b60200260200101819052508080610b349061463d565b915050610ae3565b509392505050565b610b4c6138da565b60008281526101f76020526040812090610b6860068301611e86565b90506000816001600160401b03811115610b8457610b84613c0c565b604051908082528060200260200182016040528015610bad578160200160208202803683370190505b5090506000826001600160401b03811115610bca57610bca613c0c565b604051908082528060200260200182016040528015610bf3578160200160208202803683370190505b50905060005b610c0585600601611e86565b811015610c7b57610c196006860182611e90565b838281518110610c2b57610c2b614627565b60200260200101906001600160a01b031690816001600160a01b03168152505086828281518110610c5e57610c5e614627565b602090810291909101015280610c738161463d565b915050610bf9565b506040518061012001604052808781526020018560000154815260200185600101548152602001610cb98860009081526101c3602052604090205490565b8152602001610cc78861124c565b81526002860154602082015260048601546040820152606081019390935260039094015460ff16151560809092019190915250909392505050565b610d0f8585858585611e9c565b60005b8351811015610e6c5760006101f76000868481518110610d3457610d34614627565b602002602001015181526020019081526020016000209050838281518110610d5e57610d5e614627565b6020026020010151600014610dce57610dbe858381518110610d8257610d82614627565b60200260200101516101f66000896001600160a01b03166001600160a01b03168152602001908152602001600020611f3390919063ffffffff16565b50610dcc6006820187611f3f565b505b610df187868481518110610de457610de4614627565b6020026020010151610817565b600003610e5957610e49858381518110610e0d57610e0d614627565b60200260200101516101f660008a6001600160a01b03166001600160a01b03168152602001908152602001600020611f5490919063ffffffff16565b50610e576006820188611f60565b505b5080610e648161463d565b915050610d12565b505050505050565b600082815260656020526040902060010154610e908133611f75565b610e9a8383611fd9565b505050565b6001600160a01b0381163314610f0f5760405162461bcd60e51b815260206004820152602f60248201527f416363657373436f6e74726f6c3a2063616e206f6e6c792072656e6f756e636560448201526e103937b632b9903337b91039b2b63360891b606482015260840161077d565b610f19828261203b565b5050565b6001600160a01b03811660009081526101f660205260408120606091610f4282611e86565b6001600160401b03811115610f5957610f59613c0c565b604051908082528060200260200182016040528015610f9257816020015b610f7f613928565b815260200190600190039081610f775790505b50905060005b610fa183611e86565b811015610b3c57610fb6856104d28584611e90565b828281518110610fc857610fc8614627565b60200260200101819052508080610fde9061463d565b915050610f98565b610ffe600080516020614c5683398151915233611698565b6110705760405162461bcd60e51b815260206004820152603b60248201527f455243313135355072657365744d696e7465725061757365723a206d7573742060448201527f686176652070617573657220726f6c6520746f20756e70617573650000000000606482015260840161077d565b61107861205d565b565b606081518351146110df5760405162461bcd60e51b815260206004820152602960248201527f455243313135353a206163636f756e747320616e6420696473206c656e677468604482015268040dad2e6dac2e8c6d60bb1b606482015260840161077d565b600083516001600160401b038111156110fa576110fa613c0c565b604051908082528060200260200182016040528015611123578160200160208202803683370190505b50905060005b8451811015610b3c5761116185828151811061114757611147614627565b6020026020010151858381518110610de457610de4614627565b82828151811061117357611173614627565b60209081029190910101526111878161463d565b9050611129565b60008281526101f7602090815260408083206101c3909252822054600282015483916111b99161460f565b9050806000036111ce576000925050506108a8565b60006111da8587610817565b6001600160a01b03861660009081526008850160205260408120549192506112018861124c565b905060008285876002015484611217919061460f565b611221878761460f565b61122b9190614656565b6112359190614675565b61123f9190614697565b9998505050505050505050565b60008181526101f760205260408120600381015460ff16611283576040516325f8781760e01b81526004810184905260240161077d565b8060020154611291846120f2565b610a819190614697565b606060006112aa6101f8611e86565b6001600160401b038111156112c1576112c1613c0c565b6040519080825280602002602001820160405280156112ea578160200160208202803683370190505b50905060005b8151811015611334576113056101f882611e90565b82828151811061131757611317614627565b60209081029190910101528061132c8161463d565b9150506112f0565b50919050565b611342613928565b60008281526101f760209081526040918290208251610120810184526001600160a01b038716815291820185905280549282019290925260018201546060820152608081016113918686610817565b81526020016113a0858761118e565b81526001600160a01b038616600081815260088501602090815260408083205482860152928252600986019052819020549082015260039092015460ff161515606090920191909152905092915050565b60405163fd647c0960e01b815260040160405180910390fd5b60008181526101f760205260408120611422836120f2565b600282015460008581526101c36020526040902054611291919061460f565b600054610100900460ff1661145c5760005460ff1615611460565b303b155b61147c5760405162461bcd60e51b815260040161077d906146ae565b600054610100900460ff1615801561149e576000805461ffff19166101011790555b6114bf604051806060016040528060328152602001614bea60329139611aa3565b6114c7612117565b6114cf612117565b6114d7612117565b6114df612117565b6114e761213e565b6114ef612117565b6040516329965a1d60e01b815230600482018190527fb281fc8c12954d22544db45de3159a39272895b169a852b314f9cc762e44c53b60248301526044820152731820a4b7618bde71dce8cdc73aab6c95905fad24906329965a1d90606401600060405180830381600087803b15801561156857600080fd5b505af115801561157c573d6000803e3d6000fd5b5050505061159e600080516020614c768339815191526115993390565b612172565b6115c87f813b9efdf6afe6b57682eb1fb850711edc34da21ae7f7376cb7a391b1be3239f33612172565b6115d9600160006312cf3570611723565b80156115eb576000805461ff00191690555b50565b611606600080516020614c5683398151915233611698565b6116785760405162461bcd60e51b815260206004820152603960248201527f455243313135355072657365744d696e7465725061757365723a206d7573742060448201527f686176652070617573657220726f6c6520746f20706175736500000000000000606482015260840161077d565b61107861217c565b6000828152609760205260408120610a819083611e90565b60009182526065602090815260408084206001600160a01b0393909316845291905290205460ff1690565b604080518082018252600080825260209182018190529384526101f58152818420928452918252918290208251808401909352805483526001015460ff1615159082015290565b604051636461329360e01b815260040160405180910390fd5b61012d5460ff16156117475760405162461bcd60e51b815260040161077d906146fc565b60006117538133611f75565b506040805180820182529182526001602080840182815260009687526101f5825283872095875294905293209051815590519101805460ff1916911515919091179055565b60008181526097602052604081206108a890611e86565b6000828152606560205260409020600101546117cb8133611f75565b610e9a838361203b565b6001600160a01b03811660009081526101f6602052604081206060916117fa82611e86565b6001600160401b0381111561181157611811613c0c565b60405190808252806020026020018201604052801561183a578160200160208202803683370190505b50905060005b8151811015610b3c576118538382611e90565b82828151811061186557611865614627565b60209081029190910101528061187a8161463d565b915050611840565b61012d5460ff16156118a65760405162461bcd60e51b815260040161077d906146fc565b7f813b9efdf6afe6b57682eb1fb850711edc34da21ae7f7376cb7a391b1be3239f6118d18133611f75565b8584146118f15760405163616c411360e01b815260040161077d90614726565b8582146119115760405163616c411360e01b815260040161077d9061477b565b60005b8681101561198f5761197d88888381811061193157611931614627565b905060200201602081019061194691906140b4565b87878481811061195857611958614627565b9050602002013586868581811061197157611971614627565b905060200201356121d6565b806119878161463d565b915050611914565b5050505050505050565b60006119a58133611f75565b506101fa80546001600160a01b039485166001600160a01b0319918216179091556101fb8054938516938216939093179092556101fc8054919093169116179055565b6000604051636461329360e01b815260040160405180910390fd5b611a10858585858561256a565b60008381526101f7602052604090208215611a58576001600160a01b03851660009081526101f660205260409020611a489085611f33565b50611a566006820186611f3f565b505b611a628685610817565b600003610e6c576001600160a01b03861660009081526101f660205260409020611a8c9085611f54565b50611a9a6006820187611f60565b50505050505050565b600054610100900460ff16611abe5760005460ff1615611ac2565b303b155b611ade5760405162461bcd60e51b815260040161077d906146ae565b600054610100900460ff16158015611b00576000805461ffff19166101011790555b611b09826125f1565b8015610f19576000805461ff00191690555050565b61012d5460ff1615611b425760405162461bcd60e51b815260040161077d906146fc565b600080516020614c76833981519152611b5b8133611f75565b60008281526101f7602052604090206003015460ff16610f1957610f1982612632565b6101fc54604051631c1f852760e31b81526004810186905260009182916001600160a01b039091169063e0fc293890602401602060405180830381865afa158015611bcd573d6000803e3d6000fd5b505050506040513d601f19601f82011682018060405250810190611bf191906147cd565b6101fc54604051630f7e520960e31b8152600481018390529192506000916001600160a01b0390911690637bf2904890602401608060405180830381865afa158015611c41573d6000803e3d6000fd5b505050506040513d601f19601f82011682018060405250810190611c6591906147e6565b60208082015160008581526101f79092526040909120600301549192509060ff16611c9357611c9383612632565b611cae8184896040518060200160405280600081525061283b565b60008381526101f760205260409020611cca6006820183611f3f565b506001600160a01b03821660009081526101f660205260409020611cee9085611f33565b5060019998505050505050505050565b60006108a882612972565b6001600160a01b038316611d6b5760405162461bcd60e51b815260206004820152602360248201527f455243313135353a206275726e2066726f6d20746865207a65726f206164647260448201526265737360e81b606482015260840161077d565b33611d9a81856000611d7c876129b2565b611d85876129b2565b604051806020016040528060008152506129fd565b600083815260c9602090815260408083206001600160a01b038816845290915290205482811015611e195760405162461bcd60e51b8152602060048201526024808201527f455243313135353a206275726e20616d6f756e7420657863656564732062616c604482015263616e636560e01b606482015260840161077d565b600084815260c9602090815260408083206001600160a01b03898116808652918452828520888703905582518981529384018890529092908616917fc3d58168c5ae7397731d063d5bbf3d657854427343f4c083240f7aacaa2d0f62910160405180910390a45050505050565b60006108a8825490565b6000610a818383612b7d565b6001600160a01b038516331480611eb85750611eb885336119e8565b611f1f5760405162461bcd60e51b815260206004820152603260248201527f455243313135353a207472616e736665722063616c6c6572206973206e6f74206044820152711bdddb995c881b9bdc88185c1c1c9bdd995960721b606482015260840161077d565b611f2c8585858585612ba7565b5050505050565b6000610a818383612d8d565b6000610a81836001600160a01b038416612d8d565b6000610a818383612ddc565b6000610a81836001600160a01b038416612ddc565b611f7f8282611698565b610f1957611f97816001600160a01b03166014612ecf565b611fa2836020612ecf565b604051602001611fb3929190614851565b60408051601f198184030181529082905262461bcd60e51b825261077d91600401613bf9565b600080516020614c768339815191528203612031576001600160a01b03811660009081526101f66020526040812061201090611e86565b11156120315780604051632b04dac760e01b815260040161077d91906148c6565b610f19828261306a565b612045828261308c565b6000828152609760205260409020610e9a9082611f60565b61012d5460ff166120a75760405162461bcd60e51b815260206004820152601460248201527314185d5cd8589b194e881b9bdd081c185d5cd95960621b604482015260640161077d565b61012d805460ff191690557f5db9ee0a495bf2e6ff9c91a7834c1ba4fdd244a5e8aa4e537bd38aeae4b073aa335b6040516001600160a01b03909116815260200160405180910390a1565b60008181526101f760205260408120610a8161210d846130f3565b8260050154613182565b600054610100900460ff166110785760405162461bcd60e51b815260040161077d90614907565b600054610100900460ff166121655760405162461bcd60e51b815260040161077d90614907565b61012d805460ff19169055565b610f198282611fd9565b61012d5460ff16156121a05760405162461bcd60e51b815260040161077d906146fc565b61012d805460ff191660011790557f62e78cea01bee320cd4e420270b5ea74000d11b0c9f74754ebdbfc544b05a2586120d53390565b6101fc54604051631c1f852760e31b8152600481018490526000916001600160a01b03169063e0fc293890602401602060405180830381865afa158015612221573d6000803e3d6000fd5b505050506040513d601f19601f8201168201806040525081019061224591906147cd565b60008181526101f76020526040902060038101549192509060ff16612280576040516325f8781760e01b81526004810183905260240161077d565b600061228b836120f2565b9050600084156122c85761229e8461140a565b8511156122c157604051630c21a50760e31b81526004810185905260240161077d565b50836122d4565b6122d18461140a565b90505b6006830160006122e382611e86565b6001600160401b038111156122fa576122fa613c0c565b604051908082528060200260200182016040528015612323578160200160208202803683370190505b5090506000805b600161233585611e86565b61233f9190614697565b81101561239c57600061235c868a6123578886611e90565b613199565b90508084838151811061237157612371614627565b6020908102919091010152612386818461460f565b92505080806123949061463d565b91505061232a565b506123a78185614697565b8260016123b386611e86565b6123bd9190614697565b815181106123cd576123cd614627565b60200260200101818152505060005b6123e584611e86565b811015612493576124196123f98583611e90565b8985848151811061240c5761240c614627565b6020026020010151611d09565b82818151811061242b5761242b614627565b602002602001015187600901600061244c8488611e9090919063ffffffff16565b6001600160a01b03166001600160a01b03168152602001908152602001600020600082825461247b919061460f565b9091555081905061248b8161463d565b9150506123dc565b50838660040160008282546124a8919061460f565b90915550506101fb54604051634decdde360e11b81526001600160a01b038c8116600483015260248201879052606060448301526000606483015290911690639bd9bbc690608401600060405180830381600087803b15801561250a57600080fd5b505af115801561251e573d6000803e3d6000fd5b505050508689427f4b9948901911c14ff8b417db5004be639f92f11be671b8b85219c5ff809b71ba8760405161255691815260200190565b60405180910390a450505050505050505050565b6001600160a01b038516331480612586575061258685336119e8565b6125e45760405162461bcd60e51b815260206004820152602960248201527f455243313135353a2063616c6c6572206973206e6f74206f776e6572206e6f7260448201526808185c1c1c9bdd995960ba1b606482015260840161077d565b611f2c8585858585613223565b600054610100900460ff166126185760405162461bcd60e51b815260040161077d90614907565b6126218161333b565b61262961213e565b6115eb8161336b565b6101fc54604051630f7e520960e31b8152600481018390526000916001600160a01b031690637bf2904890602401608060405180830381865afa15801561267d573d6000803e3d6000fd5b505050506040513d601f19601f820116820180604052508101906126a191906147e6565b80519091506000036126c95760405163a2037ed360e01b81526004810183905260240161077d565b60208101516001600160a01b0381166126f557604051636c38382960e11b815260040160405180910390fd5b61270d600080516020614c7683398151915282611698565b1561272d5780604051632486d30560e11b815260040161077d91906148c6565b60008381526101f7602052604090206003015460ff161561276457604051633788221760e21b81526004810184905260240161077d565b60008381526101f76020526040902061277f6101f885611f33565b506000612794846040015185606001516116c3565b905080602001516127bb5760405163361ecb5560e01b81526004810186905260240161077d565b6001600160a01b03831660009081526101f6602052604090206127de9086611f33565b5060038201805460ff19166001179055835180835581516127fe9161460f565b600183015560006005830181905560405186917fa845a9f6012186006a4e2f2e7335aa26cb8fc4035d385989bedadf1551b0a43391a25050505050565b6001600160a01b03841661289b5760405162461bcd60e51b815260206004820152602160248201527f455243313135353a206d696e7420746f20746865207a65726f206164647265736044820152607360f81b606482015260840161077d565b60003390506128c16040518060600160405280603a8152602001614c1c603a91396133df565b6128e0816000876128d1886129b2565b6128da886129b2565b876129fd565b600084815260c9602090815260408083206001600160a01b03891684529091528120805485929061291290849061460f565b909155505060408051858152602081018590526001600160a01b0380881692600092918516917fc3d58168c5ae7397731d063d5bbf3d657854427343f4c083240f7aacaa2d0f62910160405180910390a4611f2c81600087878787613422565b60006001600160e01b03198216636cdb3d1360e11b14806129a357506001600160e01b031982166303a24d0760e21b145b806108a857506108a88261357d565b604080516001808252818301909252606091600091906020808301908036833701905050905082816000815181106129ec576129ec614627565b602090810291909101015292915050565b6001600160a01b0385811615908516156000818015612a2d5750886001600160a01b0316886001600160a01b0316145b9050600083158015612a3d575082155b90508215612abe5760005b8751811015612abc5760006101f760008a8481518110612a6a57612a6a614627565b602002602001015181526020019081526020016000209050612aa4898381518110612a9757612a97614627565b60200260200101516120f2565b60059091015580612ab48161463d565b915050612a48565b505b8115612b6f5760005b8751811015612b6d57612af3888281518110612ae557612ae5614627565b60200260200101518b61118e565b878281518110612b0557612b05614627565b60200260200101511115612b5b5789888281518110612b2657612b26614627565b602090810291909101015160405163e1b8b25f60e01b81526001600160a01b039092166004830152602482015260440161077d565b80612b658161463d565b915050612ac7565b505b61080b8a8a8a8a8a8a6135a2565b6000826000018281548110612b9457612b94614627565b9060005260206000200154905092915050565b8151835114612c095760405162461bcd60e51b815260206004820152602860248201527f455243313135353a2069647320616e6420616d6f756e7473206c656e677468206044820152670dad2e6dac2e8c6d60c31b606482015260840161077d565b6001600160a01b038416612c2f5760405162461bcd60e51b815260040161077d90614952565b33612c3e8187878787876129fd565b60005b8451811015612d27576000858281518110612c5e57612c5e614627565b602002602001015190506000858381518110612c7c57612c7c614627565b602090810291909101810151600084815260c9835260408082206001600160a01b038e168352909352919091205490915081811015612ccd5760405162461bcd60e51b815260040161077d90614997565b600083815260c9602090815260408083206001600160a01b038e8116855292528083208585039055908b16825281208054849290612d0c90849061460f565b9250508190555050505080612d209061463d565b9050612c41565b50846001600160a01b0316866001600160a01b0316826001600160a01b03167f4a39dc06d4c0dbc64b70af90fd698a233a518aa5d07e595d983b8c0526c8f7fb8787604051612d779291906149e1565b60405180910390a4610e6c8187878787876136be565b6000818152600183016020526040812054612dd4575081546001818101845560008481526020808220909301849055845484825282860190935260409020919091556108a8565b5060006108a8565b60008181526001830160205260408120548015612ec5576000612e00600183614697565b8554909150600090612e1490600190614697565b9050818114612e79576000866000018281548110612e3457612e34614627565b9060005260206000200154905080876000018481548110612e5757612e57614627565b6000918252602080832090910192909255918252600188019052604090208390555b8554869080612e8a57612e8a614a0f565b6001900381819060005260206000200160009055905585600101600086815260200190815260200160002060009055600193505050506108a8565b60009150506108a8565b60606000612ede836002614656565b612ee990600261460f565b6001600160401b03811115612f0057612f00613c0c565b6040519080825280601f01601f191660200182016040528015612f2a576020820181803683370190505b509050600360fc1b81600081518110612f4557612f45614627565b60200101906001600160f81b031916908160001a905350600f60fb1b81600181518110612f7457612f74614627565b60200101906001600160f81b031916908160001a9053506000612f98846002614656565b612fa390600161460f565b90505b600181111561301b576f181899199a1a9b1b9c1cb0b131b232b360811b85600f1660108110612fd757612fd7614627565b1a60f81b828281518110612fed57612fed614627565b60200101906001600160f81b031916908160001a90535060049490941c9361301481614a25565b9050612fa6565b508315610a815760405162461bcd60e51b815260206004820181905260248201527f537472696e67733a20686578206c656e67746820696e73756666696369656e74604482015260640161077d565b6130748282613779565b6000828152609760205260409020610e9a9082611f3f565b6130968282611698565b15610f195760008281526065602090815260408083206001600160a01b0385168085529252808320805460ff1916905551339285917ff6391f5c32d9c69d2a47ea670b442974b53935d1edc7fd64eb21e047a839171b9190a45050565b60008181526101f760205260408120600181015442106131225760008381526101c36020526040902054610a81565b8054600182015460009161313591614697565b82549091504210613177578154819061314e9042614697565b60008681526101c360205260409020546131689190614656565b6131729190614675565b61317a565b60005b949350505050565b6000818310156131925781610a81565b5090919050565b60008281526101f7602090815260408083206101c3909252822054600282015483916131c49161460f565b9050806000036131d957600092505050610a81565b60006131e58587610817565b6001600160a01b0386166000908152600885016020526040812054919250838961320f858561460f565b6132199190614656565b61123f9190614675565b6001600160a01b0384166132495760405162461bcd60e51b815260040161077d90614952565b336132598187876128d1886129b2565b600084815260c9602090815260408083206001600160a01b038a1684529091529020548381101561329c5760405162461bcd60e51b815260040161077d90614997565b600085815260c9602090815260408083206001600160a01b038b81168552925280832087850390559088168252812080548692906132db90849061460f565b909155505060408051868152602081018690526001600160a01b03808916928a821692918616917fc3d58168c5ae7397731d063d5bbf3d657854427343f4c083240f7aacaa2d0f62910160405180910390a4611a9a828888888888613422565b600054610100900460ff166133625760405162461bcd60e51b815260040161077d90614907565b6115eb816137ff565b600054610100900460ff166133925760405162461bcd60e51b815260040161077d90614907565b61339d600033612172565b6133c77f9f2df0fed2c77648de5860a4cc508cd0818c85b8b8a1ab4ceeef8d981c8956a633612172565b6115eb600080516020614c5683398151915233612172565b6115eb816040516024016133f39190613bf9565b60408051601f198184030181529190526020810180516001600160e01b031663104c13eb60e21b179052613812565b6001600160a01b0384163b15610e6c5760405163f23a6e6160e01b81526001600160a01b0385169063f23a6e61906134669089908990889088908890600401614a3c565b6020604051808303816000875af19250505080156134a1575060408051601f3d908101601f1916820190925261349e91810190614a81565b60015b61354d576134ad614a9e565b806308c379a0036134e657506134c1614aba565b806134cc57506134e8565b8060405162461bcd60e51b815260040161077d9190613bf9565b505b60405162461bcd60e51b815260206004820152603460248201527f455243313135353a207472616e7366657220746f206e6f6e20455243313135356044820152732932b1b2b4bb32b91034b6b83632b6b2b73a32b960611b606482015260840161077d565b6001600160e01b0319811663f23a6e6160e01b14611a9a5760405162461bcd60e51b815260040161077d90614b43565b60006001600160e01b03198216635a05180f60e01b14806108a857506108a882613833565b6135b0868686868686613868565b6001600160a01b0385166136385760005b8351811015613636578281815181106135dc576135dc614627565b60200260200101516101c360008684815181106135fb576135fb614627565b602002602001015181526020019081526020016000206000828254613620919061460f565b9091555061362f90508161463d565b90506135c1565b505b6001600160a01b038416610e6c5760005b8351811015611a9a5782818151811061366457613664614627565b60200260200101516101c3600086848151811061368357613683614627565b6020026020010151815260200190815260200160002060008282546136a89190614697565b909155506136b790508161463d565b9050613649565b6001600160a01b0384163b15610e6c5760405163bc197c8160e01b81526001600160a01b0385169063bc197c81906137029089908990889088908890600401614b8b565b6020604051808303816000875af192505050801561373d575060408051601f3d908101601f1916820190925261373a91810190614a81565b60015b613749576134ad614a9e565b6001600160e01b0319811663bc197c8160e01b14611a9a5760405162461bcd60e51b815260040161077d90614b43565b6137838282611698565b610f195760008281526065602090815260408083206001600160a01b03851684529091529020805460ff191660011790556137bb3390565b6001600160a01b0316816001600160a01b0316837f2f8788117e7eff1d82e926ec794901d17c78024a50270940304540a733656f0d60405160405180910390a45050565b8051610f199060cb90602084019061397f565b80516a636f6e736f6c652e6c6f67602083016000808483855afa5050505050565b60006001600160e01b03198216637965db0b60e01b14806108a857506301ffc9a760e01b6001600160e01b03198316146108a8565b610e6c86868686868661012d5460ff1615610e6c5760405162461bcd60e51b815260206004820152602c60248201527f455243313135355061757361626c653a20746f6b656e207472616e736665722060448201526b1dda1a5b19481c185d5cd95960a21b606482015260840161077d565b60405180610120016040528060008152602001600081526020016000815260200160008152602001600081526020016000815260200160008152602001606081526020016000151581525090565b60405180610120016040528060006001600160a01b03168152602001600081526020016000815260200160008152602001600081526020016000815260200160008152602001600081526020016000151581525090565b82805461398b906145c5565b90600052602060002090601f0160209004810192826139ad57600085556139f3565b82601f106139c657805160ff19168380011785556139f3565b828001600101855582156139f3579182015b828111156139f35782518255916020019190600101906139d8565b506139ff929150613a03565b5090565b5b808211156139ff5760008155600101613a04565b6001600160a01b03811681146115eb57600080fd5b60008083601f840112613a3f57600080fd5b5081356001600160401b03811115613a5657600080fd5b602083019150836020828501011115613a6e57600080fd5b9250929050565b60008060008060008060008060c0898b031215613a9157600080fd5b8835613a9c81613a18565b97506020890135613aac81613a18565b96506040890135613abc81613a18565b95506060890135945060808901356001600160401b0380821115613adf57600080fd5b613aeb8c838d01613a2d565b909650945060a08b0135915080821115613b0457600080fd5b50613b118b828c01613a2d565b999c989b5096995094979396929594505050565b60008060408385031215613b3857600080fd5b8235613b4381613a18565b946020939093013593505050565b6001600160e01b0319811681146115eb57600080fd5b600060208284031215613b7957600080fd5b8135610a8181613b51565b600060208284031215613b9657600080fd5b5035919050565b60005b83811015613bb8578181015183820152602001613ba0565b83811115613bc7576000848401525b50505050565b60008151808452613be5816020860160208601613b9d565b601f01601f19169290920160200192915050565b602081526000610a816020830184613bcd565b634e487b7160e01b600052604160045260246000fd5b601f8201601f191681016001600160401b0381118282101715613c4757613c47613c0c565b6040525050565b60006001600160401b03821115613c6757613c67613c0c565b5060051b60200190565b600082601f830112613c8257600080fd5b81356020613c8f82613c4e565b604051613c9c8282613c22565b83815260059390931b8501820192828101915086841115613cbc57600080fd5b8286015b84811015613cd75780358352918301918301613cc0565b509695505050505050565b60006001600160401b03831115613cfb57613cfb613c0c565b604051613d12601f8501601f191660200182613c22565b809150838152848484011115613d2757600080fd5b83836020830137600060208583010152509392505050565b600082601f830112613d5057600080fd5b610a8183833560208501613ce2565b60008060008060808587031215613d7557600080fd5b8435613d8081613a18565b935060208501356001600160401b0380821115613d9c57600080fd5b613da888838901613c71565b94506040870135915080821115613dbe57600080fd5b613dca88838901613c71565b93506060870135915080821115613de057600080fd5b50613ded87828801613d3f565b91505092959194509250565b600080600060608486031215613e0e57600080fd5b8335613e1981613a18565b95602085013595506040909401359392505050565b60008083601f840112613e4057600080fd5b5081356001600160401b03811115613e5757600080fd5b6020830191508360208260051b8501011115613a6e57600080fd5b60008060208385031215613e8557600080fd5b82356001600160401b03811115613e9b57600080fd5b613ea785828601613e2e565b90969095509350505050565b6000610120808401835185526020808501518187015260408501516040870152606085015160608701526080850151608087015260a085015160a087015260c085015160c087015260e08501518360e08801528293508051808452610140880194508282019350600091505b80821015613f485783516001600160a01b03168552938201939282019260019190910190613f1f565b505050506101009283015115159390920192909252919050565b6000602080830181845280855180835260408601915060408160051b870101925083870160005b82811015613fb757603f19888603018452613fa5858351613eb3565b94509285019290850190600101613f89565b5092979650505050505050565b602081526000610a816020830184613eb3565b600080600080600060a08688031215613fef57600080fd5b8535613ffa81613a18565b9450602086013561400a81613a18565b935060408601356001600160401b038082111561402657600080fd5b61403289838a01613c71565b9450606088013591508082111561404857600080fd5b61405489838a01613c71565b9350608088013591508082111561406a57600080fd5b5061407788828901613d3f565b9150509295509295909350565b6000806040838503121561409757600080fd5b8235915060208301356140a981613a18565b809150509250929050565b6000602082840312156140c657600080fd5b8135610a8181613a18565b80516001600160a01b031682526020808201519083015260408082015190830152606080820151908301526080808201519083015260a0818101519083015260c0808201519083015260e08082015190830152610100908101511515910152565b6020808252825182820181905260009190848201906040850190845b81811015614175576141618385516140d1565b92840192610120929092019160010161414e565b50909695505050505050565b6000806040838503121561419457600080fd5b82356001600160401b03808211156141ab57600080fd5b818501915085601f8301126141bf57600080fd5b813560206141cc82613c4e565b6040516141d98282613c22565b83815260059390931b85018201928281019150898411156141f957600080fd5b948201945b8386101561422057853561421181613a18565b825294820194908201906141fe565b9650508601359250508082111561423657600080fd5b5061424385828601613c71565b9150509250929050565b600081518084526020808501945080840160005b8381101561427d57815187529582019590820190600101614261565b509495945050505050565b602081526000610a81602083018461424d565b61012081016108a882846140d1565b6000806000806000606086880312156142c257600080fd5b85356142cd81613a18565b945060208601356001600160401b03808211156142e957600080fd5b6142f589838a01613e2e565b9096509450604088013591508082111561430e57600080fd5b5061431b88828901613e2e565b969995985093965092949392505050565b6000806000806080858703121561434257600080fd5b843561434d81613a18565b9350602085013592506040850135915060608501356001600160401b0381111561437657600080fd5b613ded87828801613d3f565b6000806040838503121561439557600080fd5b50508035926020909101359150565b600080604083850312156143b757600080fd5b82356143c281613a18565b9150602083013580151581146140a957600080fd5b6000806000606084860312156143ec57600080fd5b505081359360208301359350604090920135919050565b6000806000806000806060878903121561441c57600080fd5b86356001600160401b038082111561443357600080fd5b61443f8a838b01613e2e565b9098509650602089013591508082111561445857600080fd5b6144648a838b01613e2e565b9096509450604089013591508082111561447d57600080fd5b5061448a89828a01613e2e565b979a9699509497509295939492505050565b6000806000606084860312156144b157600080fd5b83356144bc81613a18565b925060208401356144cc81613a18565b915060408401356144dc81613a18565b809150509250925092565b600080604083850312156144fa57600080fd5b823561450581613a18565b915060208301356140a981613a18565b600080600080600060a0868803121561452d57600080fd5b853561453881613a18565b9450602086013561454881613a18565b9350604086013592506060860135915060808601356001600160401b0381111561457157600080fd5b61407788828901613d3f565b60006020828403121561458f57600080fd5b81356001600160401b038111156145a557600080fd5b8201601f810184136145b657600080fd5b61317a84823560208401613ce2565b600181811c908216806145d957607f821691505b60208210810361133457634e487b7160e01b600052602260045260246000fd5b634e487b7160e01b600052601160045260246000fd5b60008219821115614622576146226145f9565b500190565b634e487b7160e01b600052603260045260246000fd5b60006001820161464f5761464f6145f9565b5060010190565b6000816000190483118215151615614670576146706145f9565b500290565b60008261469257634e487b7160e01b600052601260045260246000fd5b500490565b6000828210156146a9576146a96145f9565b500390565b6020808252602e908201527f496e697469616c697a61626c653a20636f6e747261637420697320616c72656160408201526d191e481a5b9a5d1a585b1a5e995960921b606082015260800190565b60208082526010908201526f14185d5cd8589b194e881c185d5cd95960821b604082015260600190565b60408152600061475260408301600c81526b66726f6d4163636f756e747360a01b602082015260400190565b828103602093840152600a81526972656d6f76616c49647360b01b928101929092525060400190565b6040815260006147a760408301600c81526b66726f6d4163636f756e747360a01b602082015260400190565b8281036020938401526007815266616d6f756e747360c81b928101929092525060400190565b6000602082840312156147df57600080fd5b5051919050565b6000608082840312156147f857600080fd5b604051608081018181106001600160401b038211171561481a5761481a613c0c565b60405282518152602083015161482f81613a18565b6020820152604083810151908201526060928301519281019290925250919050565b7f416363657373436f6e74726f6c3a206163636f756e7420000000000000000000815260008351614889816017850160208801613b9d565b7001034b99036b4b9b9b4b733903937b6329607d1b60179184019182015283516148ba816028840160208801613b9d565b01602801949350505050565b6001600160a01b03919091168152604060208201819052601590820152745343484544554c455f43524541544f525f524f4c4560581b606082015260800190565b6020808252602b908201527f496e697469616c697a61626c653a20636f6e7472616374206973206e6f74206960408201526a6e697469616c697a696e6760a81b606082015260800190565b60208082526025908201527f455243313135353a207472616e7366657220746f20746865207a65726f206164604082015264647265737360d81b606082015260800190565b6020808252602a908201527f455243313135353a20696e73756666696369656e742062616c616e636520666f60408201526939103a3930b739b332b960b11b606082015260800190565b6040815260006149f4604083018561424d565b8281036020840152614a06818561424d565b95945050505050565b634e487b7160e01b600052603160045260246000fd5b600081614a3457614a346145f9565b506000190190565b6001600160a01b03868116825285166020820152604081018490526060810183905260a060808201819052600090614a7690830184613bcd565b979650505050505050565b600060208284031215614a9357600080fd5b8151610a8181613b51565b600060033d1115614ab75760046000803e5060005160e01c5b90565b600060443d1015614ac85790565b6040516003193d81016004833e81513d6001600160401b038160248401118184111715614af757505050505090565b8285019150815181811115614b0f5750505050505090565b843d8701016020828501011115614b295750505050505090565b614b3860208286010187613c22565b509095945050505050565b60208082526028908201527f455243313135353a204552433131353552656365697665722072656a656374656040820152676420746f6b656e7360c01b606082015260800190565b6001600160a01b0386811682528516602082015260a060408201819052600090614bb79083018661424d565b8281036060840152614bc9818661424d565b90508281036080840152614bdd8185613bcd565b9897505050505050505056fe68747470733a2f2f6e6f72692e636f6d2f6170692f7265737472696374696f6e7363686564756c652f7b69647d2e6a736f6e696e7369646520455243313135357570677261646561626c65205f6d696e74206265666f7265206265666f7265546f6b656e5472616e7366657265d7a28e3265b37a6474929f336521b332c1681b933f6cb9f3376673440d862ab62aeb2ef35a3718e51a7e8b0b0d8e6fa690a4037bf45dad308976da469a861ca2646970667358221220969787af8365610057679181ad7c90d7693e891cf9ac8b25aeee96997aef5a9d64736f6c634300080d0033",
  "linkReferences": {},
  "deployedLinkReferences": {}
}