{
  "_format": "hh-sol-artifact-1",
  "contractName": "RestrictedNORI",
  "sourceName": "contracts/RestrictedNORI.sol",
  "abi": [
    {
      "inputs": [
        {
          "internalType": "string",
          "name": "array1Name",
          "type": "string"
        },
        {
          "internalType": "string",
          "name": "array2Name",
          "type": "string"
        }
      ],
      "name": "ArrayLengthMismatch",
      "type": "error"
    },
    {
      "inputs": [
        {
          "internalType": "address",
          "name": "account",
          "type": "address"
        },
        {
          "internalType": "uint256",
          "name": "scheduleId",
          "type": "uint256"
        }
      ],
      "name": "InsufficientClaimableBalance",
      "type": "error"
    },
    {
      "inputs": [
        {
          "internalType": "uint256",
          "name": "scheduleId",
          "type": "uint256"
        }
      ],
      "name": "InsufficientUnreleasedTokens",
      "type": "error"
    },
    {
      "inputs": [
        {
          "internalType": "address",
          "name": "account",
          "type": "address"
        }
      ],
      "name": "InvalidMinter",
      "type": "error"
    },
    {
      "inputs": [],
      "name": "InvalidZeroDuration",
      "type": "error"
    },
    {
      "inputs": [
        {
          "internalType": "uint256",
          "name": "scheduleId",
          "type": "uint256"
        }
      ],
      "name": "NonexistentSchedule",
      "type": "error"
    },
    {
      "inputs": [],
      "name": "RecipientCannotBeZeroAddress",
      "type": "error"
    },
    {
      "inputs": [],
      "name": "TokenSenderNotBPNORI",
      "type": "error"
    },
    {
      "anonymous": false,
      "inputs": [
        {
          "indexed": true,
          "internalType": "address",
          "name": "account",
          "type": "address"
        },
        {
          "indexed": true,
          "internalType": "address",
          "name": "operator",
          "type": "address"
        },
        {
          "indexed": false,
          "internalType": "bool",
          "name": "approved",
          "type": "bool"
        }
      ],
      "name": "ApprovalForAll",
      "type": "event"
    },
    {
      "anonymous": false,
      "inputs": [
        {
          "indexed": false,
          "internalType": "address",
          "name": "account",
          "type": "address"
        }
      ],
      "name": "Paused",
      "type": "event"
    },
    {
      "anonymous": false,
      "inputs": [
        {
          "indexed": true,
          "internalType": "bytes32",
          "name": "role",
          "type": "bytes32"
        },
        {
          "indexed": true,
          "internalType": "bytes32",
          "name": "previousAdminRole",
          "type": "bytes32"
        },
        {
          "indexed": true,
          "internalType": "bytes32",
          "name": "newAdminRole",
          "type": "bytes32"
        }
      ],
      "name": "RoleAdminChanged",
      "type": "event"
    },
    {
      "anonymous": false,
      "inputs": [
        {
          "indexed": true,
          "internalType": "bytes32",
          "name": "role",
          "type": "bytes32"
        },
        {
          "indexed": true,
          "internalType": "address",
          "name": "account",
          "type": "address"
        },
        {
          "indexed": true,
          "internalType": "address",
          "name": "sender",
          "type": "address"
        }
      ],
      "name": "RoleGranted",
      "type": "event"
    },
    {
      "anonymous": false,
      "inputs": [
        {
          "indexed": true,
          "internalType": "bytes32",
          "name": "role",
          "type": "bytes32"
        },
        {
          "indexed": true,
          "internalType": "address",
          "name": "account",
          "type": "address"
        },
        {
          "indexed": true,
          "internalType": "address",
          "name": "sender",
          "type": "address"
        }
      ],
      "name": "RoleRevoked",
      "type": "event"
    },
    {
      "anonymous": false,
      "inputs": [
        {
          "indexed": true,
          "internalType": "uint256",
          "name": "projectId",
          "type": "uint256"
        },
        {
          "indexed": false,
          "internalType": "uint256",
          "name": "startTime",
          "type": "uint256"
        },
        {
          "indexed": false,
          "internalType": "uint256",
          "name": "endTime",
          "type": "uint256"
        }
      ],
      "name": "ScheduleCreated",
      "type": "event"
    },
    {
      "anonymous": false,
      "inputs": [
        {
          "indexed": true,
          "internalType": "address",
          "name": "from",
          "type": "address"
        },
        {
          "indexed": true,
          "internalType": "address",
          "name": "to",
          "type": "address"
        },
        {
          "indexed": true,
          "internalType": "uint256",
          "name": "scheduleId",
          "type": "uint256"
        },
        {
          "indexed": false,
          "internalType": "uint256",
          "name": "quantity",
          "type": "uint256"
        }
      ],
      "name": "TokensClaimed",
      "type": "event"
    },
    {
      "anonymous": false,
      "inputs": [
        {
          "indexed": true,
          "internalType": "uint256",
          "name": "atTime",
          "type": "uint256"
        },
        {
          "indexed": true,
          "internalType": "uint256",
          "name": "removalId",
          "type": "uint256"
        },
        {
          "indexed": true,
          "internalType": "uint256",
          "name": "scheduleId",
          "type": "uint256"
        },
        {
          "indexed": false,
          "internalType": "uint256",
          "name": "quantity",
          "type": "uint256"
        }
      ],
      "name": "TokensRevoked",
      "type": "event"
    },
    {
      "anonymous": false,
      "inputs": [
        {
          "indexed": true,
          "internalType": "address",
          "name": "operator",
          "type": "address"
        },
        {
          "indexed": true,
          "internalType": "address",
          "name": "from",
          "type": "address"
        },
        {
          "indexed": true,
          "internalType": "address",
          "name": "to",
          "type": "address"
        },
        {
          "indexed": false,
          "internalType": "uint256[]",
          "name": "ids",
          "type": "uint256[]"
        },
        {
          "indexed": false,
          "internalType": "uint256[]",
          "name": "values",
          "type": "uint256[]"
        }
      ],
      "name": "TransferBatch",
      "type": "event"
    },
    {
      "anonymous": false,
      "inputs": [
        {
          "indexed": true,
          "internalType": "address",
          "name": "operator",
          "type": "address"
        },
        {
          "indexed": true,
          "internalType": "address",
          "name": "from",
          "type": "address"
        },
        {
          "indexed": true,
          "internalType": "address",
          "name": "to",
          "type": "address"
        },
        {
          "indexed": false,
          "internalType": "uint256",
          "name": "id",
          "type": "uint256"
        },
        {
          "indexed": false,
          "internalType": "uint256",
          "name": "value",
          "type": "uint256"
        }
      ],
      "name": "TransferSingle",
      "type": "event"
    },
    {
      "anonymous": false,
      "inputs": [
        {
          "indexed": false,
          "internalType": "string",
          "name": "value",
          "type": "string"
        },
        {
          "indexed": true,
          "internalType": "uint256",
          "name": "id",
          "type": "uint256"
        }
      ],
      "name": "URI",
      "type": "event"
    },
    {
      "anonymous": false,
      "inputs": [
        {
          "indexed": false,
          "internalType": "address",
          "name": "account",
          "type": "address"
        }
      ],
      "name": "Unpaused",
      "type": "event"
    },
    {
      "inputs": [],
      "name": "DEFAULT_ADMIN_ROLE",
      "outputs": [
        {
          "internalType": "bytes32",
          "name": "",
          "type": "bytes32"
        }
      ],
      "stateMutability": "view",
      "type": "function"
    },
    {
      "inputs": [],
      "name": "ERC777_TOKENS_RECIPIENT_HASH",
      "outputs": [
        {
          "internalType": "bytes32",
          "name": "",
          "type": "bytes32"
        }
      ],
      "stateMutability": "view",
      "type": "function"
    },
    {
      "inputs": [],
      "name": "MINTER_ROLE",
      "outputs": [
        {
          "internalType": "bytes32",
          "name": "",
          "type": "bytes32"
        }
      ],
      "stateMutability": "view",
      "type": "function"
    },
    {
      "inputs": [],
      "name": "PAUSER_ROLE",
      "outputs": [
        {
          "internalType": "bytes32",
          "name": "",
          "type": "bytes32"
        }
      ],
      "stateMutability": "view",
      "type": "function"
    },
    {
      "inputs": [],
      "name": "SCHEDULE_CREATOR_ROLE",
      "outputs": [
        {
          "internalType": "bytes32",
          "name": "",
          "type": "bytes32"
        }
      ],
      "stateMutability": "view",
      "type": "function"
    },
    {
      "inputs": [],
      "name": "TOKEN_REVOKER_ROLE",
      "outputs": [
        {
          "internalType": "bytes32",
          "name": "",
          "type": "bytes32"
        }
      ],
      "stateMutability": "view",
      "type": "function"
    },
    {
      "inputs": [
        {
          "internalType": "address",
          "name": "account",
          "type": "address"
        },
        {
          "internalType": "uint256",
          "name": "id",
          "type": "uint256"
        }
      ],
      "name": "balanceOf",
      "outputs": [
        {
          "internalType": "uint256",
          "name": "",
          "type": "uint256"
        }
      ],
      "stateMutability": "view",
      "type": "function"
    },
    {
      "inputs": [
        {
          "internalType": "address[]",
          "name": "accounts",
          "type": "address[]"
        },
        {
          "internalType": "uint256[]",
          "name": "ids",
          "type": "uint256[]"
        }
      ],
      "name": "balanceOfBatch",
      "outputs": [
        {
          "internalType": "uint256[]",
          "name": "",
          "type": "uint256[]"
        }
      ],
      "stateMutability": "view",
      "type": "function"
    },
    {
      "inputs": [
        {
          "internalType": "address",
          "name": "account",
          "type": "address"
        },
        {
          "internalType": "uint256[]",
          "name": "scheduleIds",
          "type": "uint256[]"
        }
      ],
      "name": "batchGetScheduleDetailsForAccount",
      "outputs": [
        {
          "components": [
            {
              "internalType": "address",
              "name": "tokenHolder",
              "type": "address"
            },
            {
              "internalType": "uint256",
              "name": "scheduleTokenId",
              "type": "uint256"
            },
            {
              "internalType": "uint256",
              "name": "balance",
              "type": "uint256"
            },
            {
              "internalType": "uint256",
              "name": "claimableAmount",
              "type": "uint256"
            },
            {
              "internalType": "uint256",
              "name": "claimedAmount",
              "type": "uint256"
            },
            {
              "internalType": "uint256",
              "name": "quantityRevoked",
              "type": "uint256"
            }
          ],
          "internalType": "struct RestrictedNORI.ScheduleDetailForAddress[]",
          "name": "",
          "type": "tuple[]"
        }
      ],
      "stateMutability": "view",
      "type": "function"
    },
    {
      "inputs": [
        {
          "internalType": "uint256[]",
          "name": "scheduleIds",
          "type": "uint256[]"
        }
      ],
      "name": "batchGetScheduleSummaries",
      "outputs": [
        {
          "components": [
            {
              "internalType": "uint256",
              "name": "scheduleTokenId",
              "type": "uint256"
            },
            {
              "internalType": "uint256",
              "name": "startTime",
              "type": "uint256"
            },
            {
              "internalType": "uint256",
              "name": "endTime",
              "type": "uint256"
            },
            {
              "internalType": "uint256",
              "name": "totalSupply",
              "type": "uint256"
            },
            {
              "internalType": "uint256",
              "name": "totalClaimableAmount",
              "type": "uint256"
            },
            {
              "internalType": "uint256",
              "name": "totalClaimedAmount",
              "type": "uint256"
            },
            {
              "internalType": "uint256",
              "name": "totalQuantityRevoked",
              "type": "uint256"
            },
            {
              "internalType": "address[]",
              "name": "tokenHolders",
              "type": "address[]"
            },
            {
              "internalType": "bool",
              "name": "exists",
              "type": "bool"
            }
          ],
          "internalType": "struct RestrictedNORI.ScheduleSummary[]",
          "name": "",
          "type": "tuple[]"
        }
      ],
      "stateMutability": "view",
      "type": "function"
    },
    {
      "inputs": [
        {
          "internalType": "address[]",
          "name": "toAccounts",
          "type": "address[]"
        },
        {
          "internalType": "uint256[]",
          "name": "removalIds",
          "type": "uint256[]"
        },
        {
          "internalType": "uint256[]",
          "name": "amounts",
          "type": "uint256[]"
        }
      ],
      "name": "batchRevokeUnreleasedTokenAmounts",
      "outputs": [],
      "stateMutability": "nonpayable",
      "type": "function"
    },
    {
      "inputs": [
        {
          "internalType": "uint256",
          "name": "scheduleId",
          "type": "uint256"
        }
      ],
      "name": "claimableBalanceForSchedule",
      "outputs": [
        {
          "internalType": "uint256",
          "name": "",
          "type": "uint256"
        }
      ],
      "stateMutability": "view",
      "type": "function"
    },
    {
      "inputs": [
        {
          "internalType": "uint256",
          "name": "scheduleId",
          "type": "uint256"
        },
        {
          "internalType": "address",
          "name": "account",
          "type": "address"
        }
      ],
      "name": "claimableBalanceForScheduleForAccount",
      "outputs": [
        {
          "internalType": "uint256",
          "name": "",
          "type": "uint256"
        }
      ],
      "stateMutability": "view",
      "type": "function"
    },
    {
      "inputs": [
        {
          "internalType": "uint256",
          "name": "projectId",
          "type": "uint256"
        }
      ],
      "name": "createSchedule",
      "outputs": [],
      "stateMutability": "nonpayable",
      "type": "function"
    },
    {
      "inputs": [
        {
          "internalType": "uint256",
          "name": "id",
          "type": "uint256"
        }
      ],
      "name": "exists",
      "outputs": [
        {
          "internalType": "bool",
          "name": "",
          "type": "bool"
        }
      ],
      "stateMutability": "view",
      "type": "function"
    },
    {
      "inputs": [],
      "name": "getAllScheduleIds",
      "outputs": [
        {
          "internalType": "uint256[]",
          "name": "",
          "type": "uint256[]"
        }
      ],
      "stateMutability": "view",
      "type": "function"
    },
    {
      "inputs": [
        {
          "internalType": "uint256",
          "name": "methodology",
          "type": "uint256"
        },
        {
          "internalType": "uint256",
          "name": "methodologyVersion",
          "type": "uint256"
        }
      ],
      "name": "getRestrictionDurationForMethodologyAndVersion",
      "outputs": [
        {
          "internalType": "uint256",
          "name": "",
          "type": "uint256"
        }
      ],
      "stateMutability": "view",
      "type": "function"
    },
    {
      "inputs": [
        {
          "internalType": "bytes32",
          "name": "role",
          "type": "bytes32"
        }
      ],
      "name": "getRoleAdmin",
      "outputs": [
        {
          "internalType": "bytes32",
          "name": "",
          "type": "bytes32"
        }
      ],
      "stateMutability": "view",
      "type": "function"
    },
    {
      "inputs": [
        {
          "internalType": "bytes32",
          "name": "role",
          "type": "bytes32"
        },
        {
          "internalType": "uint256",
          "name": "index",
          "type": "uint256"
        }
      ],
      "name": "getRoleMember",
      "outputs": [
        {
          "internalType": "address",
          "name": "",
          "type": "address"
        }
      ],
      "stateMutability": "view",
      "type": "function"
    },
    {
      "inputs": [
        {
          "internalType": "bytes32",
          "name": "role",
          "type": "bytes32"
        }
      ],
      "name": "getRoleMemberCount",
      "outputs": [
        {
          "internalType": "uint256",
          "name": "",
          "type": "uint256"
        }
      ],
      "stateMutability": "view",
      "type": "function"
    },
    {
      "inputs": [
        {
          "internalType": "address",
          "name": "account",
          "type": "address"
        },
        {
          "internalType": "uint256",
          "name": "scheduleId",
          "type": "uint256"
        }
      ],
      "name": "getScheduleDetailForAccount",
      "outputs": [
        {
          "components": [
            {
              "internalType": "address",
              "name": "tokenHolder",
              "type": "address"
            },
            {
              "internalType": "uint256",
              "name": "scheduleTokenId",
              "type": "uint256"
            },
            {
              "internalType": "uint256",
              "name": "balance",
              "type": "uint256"
            },
            {
              "internalType": "uint256",
              "name": "claimableAmount",
              "type": "uint256"
            },
            {
              "internalType": "uint256",
              "name": "claimedAmount",
              "type": "uint256"
            },
            {
              "internalType": "uint256",
              "name": "quantityRevoked",
              "type": "uint256"
            }
          ],
          "internalType": "struct RestrictedNORI.ScheduleDetailForAddress",
          "name": "",
          "type": "tuple"
        }
      ],
      "stateMutability": "view",
      "type": "function"
    },
    {
      "inputs": [
        {
          "internalType": "uint256",
          "name": "scheduleId",
          "type": "uint256"
        }
      ],
      "name": "getScheduleSummary",
      "outputs": [
        {
          "components": [
            {
              "internalType": "uint256",
              "name": "scheduleTokenId",
              "type": "uint256"
            },
            {
              "internalType": "uint256",
              "name": "startTime",
              "type": "uint256"
            },
            {
              "internalType": "uint256",
              "name": "endTime",
              "type": "uint256"
            },
            {
              "internalType": "uint256",
              "name": "totalSupply",
              "type": "uint256"
            },
            {
              "internalType": "uint256",
              "name": "totalClaimableAmount",
              "type": "uint256"
            },
            {
              "internalType": "uint256",
              "name": "totalClaimedAmount",
              "type": "uint256"
            },
            {
              "internalType": "uint256",
              "name": "totalQuantityRevoked",
              "type": "uint256"
            },
            {
              "internalType": "address[]",
              "name": "tokenHolders",
              "type": "address[]"
            },
            {
              "internalType": "bool",
              "name": "exists",
              "type": "bool"
            }
          ],
          "internalType": "struct RestrictedNORI.ScheduleSummary",
          "name": "",
          "type": "tuple"
        }
      ],
      "stateMutability": "view",
      "type": "function"
    },
    {
      "inputs": [
        {
          "internalType": "bytes32",
          "name": "role",
          "type": "bytes32"
        },
        {
          "internalType": "address",
          "name": "account",
          "type": "address"
        }
      ],
      "name": "grantRole",
      "outputs": [],
      "stateMutability": "nonpayable",
      "type": "function"
    },
    {
      "inputs": [
        {
          "internalType": "bytes32",
          "name": "role",
          "type": "bytes32"
        },
        {
          "internalType": "address",
          "name": "account",
          "type": "address"
        }
      ],
      "name": "hasRole",
      "outputs": [
        {
          "internalType": "bool",
          "name": "",
          "type": "bool"
        }
      ],
      "stateMutability": "view",
      "type": "function"
    },
    {
      "inputs": [],
      "name": "initialize",
      "outputs": [],
      "stateMutability": "nonpayable",
      "type": "function"
    },
    {
      "inputs": [
        {
          "internalType": "address",
          "name": "account",
          "type": "address"
        },
        {
          "internalType": "address",
          "name": "operator",
          "type": "address"
        }
      ],
      "name": "isApprovedForAll",
      "outputs": [
        {
          "internalType": "bool",
          "name": "",
          "type": "bool"
        }
      ],
      "stateMutability": "view",
      "type": "function"
    },
    {
      "inputs": [
        {
          "internalType": "uint256",
          "name": "amount",
          "type": "uint256"
        },
        {
          "internalType": "uint256",
          "name": "removalId",
          "type": "uint256"
        }
      ],
      "name": "mint",
      "outputs": [],
      "stateMutability": "nonpayable",
      "type": "function"
    },
    {
      "inputs": [],
      "name": "pause",
      "outputs": [],
      "stateMutability": "nonpayable",
      "type": "function"
    },
    {
      "inputs": [],
      "name": "paused",
      "outputs": [
        {
          "internalType": "bool",
          "name": "",
          "type": "bool"
        }
      ],
      "stateMutability": "view",
      "type": "function"
    },
    {
      "inputs": [
        {
          "internalType": "address",
          "name": "bridgedPolygonNoriAddress",
          "type": "address"
        },
        {
          "internalType": "address",
          "name": "removalAddress",
          "type": "address"
        }
      ],
      "name": "registerContractAddresses",
      "outputs": [],
      "stateMutability": "nonpayable",
      "type": "function"
    },
    {
      "inputs": [
        {
          "internalType": "bytes32",
          "name": "role",
          "type": "bytes32"
        },
        {
          "internalType": "address",
          "name": "account",
          "type": "address"
        }
      ],
      "name": "renounceRole",
      "outputs": [],
      "stateMutability": "nonpayable",
      "type": "function"
    },
    {
      "inputs": [
        {
          "internalType": "uint256",
          "name": "scheduleId",
          "type": "uint256"
        }
      ],
      "name": "revocableQuantityForSchedule",
      "outputs": [
        {
          "internalType": "uint256",
          "name": "",
          "type": "uint256"
        }
      ],
      "stateMutability": "view",
      "type": "function"
    },
    {
      "inputs": [
        {
          "internalType": "bytes32",
          "name": "role",
          "type": "bytes32"
        },
        {
          "internalType": "address",
          "name": "account",
          "type": "address"
        }
      ],
      "name": "revokeRole",
      "outputs": [],
      "stateMutability": "nonpayable",
      "type": "function"
    },
    {
      "inputs": [
        {
          "internalType": "address",
          "name": "from",
          "type": "address"
        },
        {
          "internalType": "address",
          "name": "to",
          "type": "address"
        },
        {
          "internalType": "uint256[]",
          "name": "ids",
          "type": "uint256[]"
        },
        {
          "internalType": "uint256[]",
          "name": "amounts",
          "type": "uint256[]"
        },
        {
          "internalType": "bytes",
          "name": "data",
          "type": "bytes"
        }
      ],
      "name": "safeBatchTransferFrom",
      "outputs": [],
      "stateMutability": "nonpayable",
      "type": "function"
    },
    {
      "inputs": [
        {
          "internalType": "address",
          "name": "from",
          "type": "address"
        },
        {
          "internalType": "address",
          "name": "to",
          "type": "address"
        },
        {
          "internalType": "uint256",
          "name": "id",
          "type": "uint256"
        },
        {
          "internalType": "uint256",
          "name": "amount",
          "type": "uint256"
        },
        {
          "internalType": "bytes",
          "name": "data",
          "type": "bytes"
        }
      ],
      "name": "safeTransferFrom",
      "outputs": [],
      "stateMutability": "nonpayable",
      "type": "function"
    },
    {
      "inputs": [
        {
          "internalType": "address",
          "name": "operator",
          "type": "address"
        },
        {
          "internalType": "bool",
          "name": "approved",
          "type": "bool"
        }
      ],
      "name": "setApprovalForAll",
      "outputs": [],
      "stateMutability": "nonpayable",
      "type": "function"
    },
    {
      "inputs": [
        {
          "internalType": "uint256",
          "name": "methodology",
          "type": "uint256"
        },
        {
          "internalType": "uint256",
          "name": "methodologyVersion",
          "type": "uint256"
        },
        {
          "internalType": "uint256",
          "name": "durationInSeconds",
          "type": "uint256"
        }
      ],
      "name": "setRestrictionDurationForMethodologyAndVersion",
      "outputs": [],
      "stateMutability": "nonpayable",
      "type": "function"
    },
    {
      "inputs": [
        {
          "internalType": "bytes4",
          "name": "interfaceId",
          "type": "bytes4"
        }
      ],
      "name": "supportsInterface",
      "outputs": [
        {
          "internalType": "bool",
          "name": "",
          "type": "bool"
        }
      ],
      "stateMutability": "view",
      "type": "function"
    },
    {
      "inputs": [
        {
          "internalType": "address",
          "name": "",
          "type": "address"
        },
        {
          "internalType": "address",
          "name": "from",
          "type": "address"
        },
        {
          "internalType": "address",
          "name": "",
          "type": "address"
        },
        {
          "internalType": "uint256",
          "name": "amount",
          "type": "uint256"
        },
        {
          "internalType": "bytes",
          "name": "userData",
          "type": "bytes"
        },
        {
          "internalType": "bytes",
          "name": "operatorData",
          "type": "bytes"
        }
      ],
      "name": "tokensReceived",
      "outputs": [],
      "stateMutability": "nonpayable",
      "type": "function"
    },
    {
      "inputs": [
        {
          "internalType": "uint256",
          "name": "id",
          "type": "uint256"
        }
      ],
      "name": "totalSupply",
      "outputs": [
        {
          "internalType": "uint256",
          "name": "",
          "type": "uint256"
        }
      ],
      "stateMutability": "view",
      "type": "function"
    },
    {
      "inputs": [],
      "name": "unpause",
      "outputs": [],
      "stateMutability": "nonpayable",
      "type": "function"
    },
    {
      "inputs": [
        {
          "internalType": "uint256",
          "name": "",
          "type": "uint256"
        }
      ],
      "name": "uri",
      "outputs": [
        {
          "internalType": "string",
          "name": "",
          "type": "string"
        }
      ],
      "stateMutability": "view",
      "type": "function"
    },
    {
      "inputs": [
        {
          "internalType": "address",
          "name": "recipient",
          "type": "address"
        },
        {
          "internalType": "uint256",
          "name": "scheduleId",
          "type": "uint256"
        },
        {
          "internalType": "uint256",
          "name": "amount",
          "type": "uint256"
        }
      ],
      "name": "withdrawFromSchedule",
      "outputs": [
        {
          "internalType": "bool",
          "name": "",
          "type": "bool"
        }
      ],
      "stateMutability": "nonpayable",
      "type": "function"
    }
  ],
  "bytecode": "0x608060405234801561001057600080fd5b50614650806100206000396000f3fe608060405234801561001057600080fd5b50600436106102675760003560e01c8063639aa0ad11610151578063b8b4dbe0116100c3578063d547741f11610087578063d547741f14610612578063e01d739314610625578063e63ab1e914610638578063e985e9c51461064d578063f242432a14610689578063f6f57a2e1461069c57600080fd5b8063b8b4dbe01461057e578063bd85b039146105a5578063c1499fa8146105c5578063ca15c873146105d8578063d5391393146105eb57600080fd5b80639010d07c116101155780639010d07c146104e657806391d148541461051157806393ae796d146105245780639ac7b44d14610537578063a217fddf14610563578063a22cb4651461056b57600080fd5b8063639aa0ad146104835780636a00f9eb146104a3578063713279b1146104c35780638129fc1c146104d65780638456cb59146104de57600080fd5b80632eb2c2d6116101ea5780634f558e79116101ae5780634f558e7914610401578063521189a9146104235780635c975abb1461044a5780635d37165a146104555780636235a4e914610468578063633433461461047b57600080fd5b80632eb2c2d6146103a05780632f2ff15d146103b357806336568abe146103c65780633f4ba83a146103d95780634e1273f4146103e157600080fd5b8063229afd6111610231578063229afd6114610302578063248a9ca31461032957806327ca0c271461034d5780632d9f0f16146103605780632e5e8d831461038057600080fd5b806223de291461026c578062fdd58e1461028657806301ffc9a7146102ac5780630e89341c146102cf5780631b2ef1ca146102ef575b600080fd5b61028461027a366004613684565b5050505050505050565b005b610299610294366004613734565b6106af565b6040519081526020015b60405180910390f35b6102bf6102ba366004613776565b61074b565b60405190151581526020016102a3565b6102e26102dd366004613793565b610756565b6040516102a39190613808565b6102846102fd36600461381b565b6107ea565b6102997fb62aeb2ef35a3718e51a7e8b0b0d8e6fa690a4037bf45dad308976da469a861c81565b610299610337366004613793565b600090815261012d602052604090206001015490565b6102bf61035b36600461383d565b610996565b61037361036e3660046138b6565b610ab8565b6040516102a391906139a6565b61039361038e366004613793565b610b74565b6040516102a39190613a08565b6102846103ae366004613b64565b610d31565b6102846103c1366004613c11565b610dff565b6102846103d4366004613c11565b610e2b565b610284610ea9565b6103f46103ef366004613c41565b610ecd565b6040516102a39190613d48565b6102bf61040f366004613793565b600090815260fb6020526040902054151590565b6102997fb281fc8c12954d22544db45de3159a39272895b169a852b314f9cc762e44c53b81565b60975460ff166102bf565b610299610463366004613c11565b610fe1565b610299610476366004613793565b61109b565b6103f46110f6565b610496610491366004613734565b611195565b6040516102a39190613d9b565b6104b66104b1366004613da9565b611228565b6040516102a39190613dee565b6102996104d1366004613793565b61131d565b610284611370565b610284611592565b6104f96104f436600461381b565b6115b3565b6040516001600160a01b0390911681526020016102a3565b6102bf61051f366004613c11565b6115cc565b610284610532366004613e3c565b6115f8565b61029961054536600461381b565b60009182526101916020908152604080842092845291905290205490565b610299600081565b610284610579366004613e78565b611635565b6102997f813b9efdf6afe6b57682eb1fb850711edc34da21ae7f7376cb7a391b1be3239f81565b6102996105b3366004613793565b600090815260fb602052604090205490565b6102846105d3366004613ea6565b611640565b6102996105e6366004613793565b6116ae565b6102997f9f2df0fed2c77648de5860a4cc508cd0818c85b8b8a1ab4ceeef8d981c8956a681565b610284610620366004613c11565b6116c6565b610284610633366004613ed2565b6116ed565b6102996000805160206145fb83398151915281565b6102bf61065b366004613e3c565b6001600160a01b03918216600090815260666020908152604080832093909416825291909152205460ff1690565b610284610697366004613f6b565b6117f9565b6102846106aa366004613793565b611848565b60006001600160a01b0383166107205760405162461bcd60e51b815260206004820152602b60248201527f455243313135353a2062616c616e636520717565727920666f7220746865207a60448201526a65726f206164647265737360a81b60648201526084015b60405180910390fd5b5060008181526065602090815260408083206001600160a01b03861684529091529020545b92915050565b6000610745826118b9565b60606067805461076590613fd3565b80601f016020809104026020016040519081016040528092919081815260200182805461079190613fd3565b80156107de5780601f106107b3576101008083540402835291602001916107de565b820191906000526020600020905b8154815290600101906020018083116107c157829003601f168201915b50505050509050919050565b6108147f9f2df0fed2c77648de5860a4cc508cd0818c85b8b8a1ab4ceeef8d981c8956a6336115cc565b6108325760405162f78d2360e81b8152336004820152602401610717565b61019654604051631c1f852760e31b8152600481018390526000916001600160a01b03169063e0fc293890602401602060405180830381865afa15801561087d573d6000803e3d6000fd5b505050506040513d601f19601f820116820180604052508101906108a19190614007565b610196546040516399d5121b60e01b8152600481018390529192506000916001600160a01b03909116906399d5121b90602401608060405180830381865afa1580156108f1573d6000803e3d6000fd5b505050506040513d601f19601f820116820180604052508101906109159190614020565b60208082015160008581526101929092526040909120600301549192509060ff16610956576040516325f8781760e01b815260048101849052602401610717565b610971818487604051806020016040528060008152506118de565b60008381526101926020526040902061098d6006820183611a1c565b50505050505050565b60006109a3338484611a31565b600083815261019260205260408120600281018054919285926109c79084906140a1565b9091555050336000908152600882016020526040812080548592906109ed9084906140a1565b909155505060405183815284906001600160a01b0387169033907fff097c7d8b1957a4ff09ef1361b5fb54dcede3941ba836d0beb9d10bec725de69060200160405180910390a46101955460405163a9059cbb60e01b81526001600160a01b038781166004830152602482018690529091169063a9059cbb906044016020604051808303816000875af1158015610a88573d6000803e3d6000fd5b505050506040513d601f19601f82011682018060405250810190610aac91906140b9565b50600195945050505050565b60606000826001600160401b03811115610ad457610ad4613a1b565b604051908082528060200260200182016040528015610b0d57816020015b610afa613501565b815260200190600190039081610af25790505b50905060005b83811015610b6c57610b3c858583818110610b3057610b306140d6565b90506020020135610b74565b828281518110610b4e57610b4e6140d6565b60200260200101819052508080610b64906140ec565b915050610b13565b509392505050565b610b7c613501565b60008281526101926020526040812090610b9860068301611bae565b90506000816001600160401b03811115610bb457610bb4613a1b565b604051908082528060200260200182016040528015610bdd578160200160208202803683370190505b5090506000826001600160401b03811115610bfa57610bfa613a1b565b604051908082528060200260200182016040528015610c23578160200160208202803683370190505b50905060005b610c3585600601611bae565b811015610cab57610c496006860182611bb8565b838281518110610c5b57610c5b6140d6565b60200260200101906001600160a01b031690816001600160a01b03168152505086828281518110610c8e57610c8e6140d6565b602090810291909101015280610ca3816140ec565b915050610c29565b506040518061012001604052808781526020018560000154815260200185600101548152602001610ce888600090815260fb602052604090205490565b8152602001610cf68861109b565b81526002860154602082015260048601546040820152606081019390935260039094015460ff16151560809092019190915250909392505050565b610d3e8585858585611bc4565b60005b8351811015610df75760006101926000868481518110610d6357610d636140d6565b602002602001015181526020019081526020016000209050838281518110610d8d57610d8d6140d6565b6020026020010151600014610dab57610da96006820187611a1c565b505b610dce87868481518110610dc157610dc16140d6565b60200260200101516106af565b600003610de457610de26006820188611c54565b505b5080610def816140ec565b915050610d41565b505050505050565b600082815261012d6020526040902060010154610e1c8133611c69565b610e268383611ccd565b505050565b6001600160a01b0381163314610e9b5760405162461bcd60e51b815260206004820152602f60248201527f416363657373436f6e74726f6c3a2063616e206f6e6c792072656e6f756e636560448201526e103937b632b9903337b91039b2b63360891b6064820152608401610717565b610ea58282611cf0565b5050565b6000805160206145fb833981519152610ec28133611c69565b610eca611d13565b50565b60608151835114610f325760405162461bcd60e51b815260206004820152602960248201527f455243313135353a206163636f756e747320616e6420696473206c656e677468604482015268040dad2e6dac2e8c6d60bb1b6064820152608401610717565b600083516001600160401b03811115610f4d57610f4d613a1b565b604051908082528060200260200182016040528015610f76578160200160208202803683370190505b50905060005b8451811015610b6c57610fb4858281518110610f9a57610f9a6140d6565b6020026020010151858381518110610dc157610dc16140d6565b828281518110610fc657610fc66140d6565b6020908102919091010152610fda816140ec565b9050610f7c565b600082815261019260205260408120600281015482906110019086611da6565b9050600061100f85876106af565b9050600082158061101e575081155b1561102b57506000611091565b6001600160a01b0386166000908152600885016020526040812054906110508961109b565b9050818587600201548361106491906140a1565b61106e87866140a1565b6110789190614105565b6110829190614124565b61108c9190614146565b925050505b9695505050505050565b600081815261019260205260408120600381015460ff166110d2576040516325f8781760e01b815260048101849052602401610717565b80600201546110e5848360050154611dbf565b6110ef9190614146565b9392505050565b60606000611105610193611bae565b6001600160401b0381111561111c5761111c613a1b565b604051908082528060200260200182016040528015611145578160200160208202803683370190505b50905060005b815181101561118f5761116061019382611bb8565b828281518110611172576111726140d6565b602090810291909101015280611187816140ec565b91505061114b565b50919050565b61119d61354f565b60008281526101926020908152604091829020825160c0810184526001600160a01b03871681529182018590529181016111d786866106af565b81526020016111e68587610fe1565b81526001600160a01b03861660008181526008850160209081526040808320548286015292825260099095019094529283902054920191909152905092915050565b6060600082516001600160401b0381111561124557611245613a1b565b60405190808252806020026020018201604052801561127e57816020015b61126b61354f565b8152602001906001900390816112635790505b50905060005b8351811015610b6c5761019260008583815181106112a4576112a46140d6565b60209081029190910181015182528101919091526040016000206003015460ff161561130b576112ed858583815181106112e0576112e06140d6565b6020026020010151611195565b8282815181106112ff576112ff6140d6565b60200260200101819052505b80611315816140ec565b915050611284565b600081815261019260205260408120600381015460ff16611354576040516325f8781760e01b815260048101849052602401610717565b611362838260050154611dbf565b6110e5826002015485611da6565b600054610100900460ff1661138b5760005460ff161561138f565b303b155b6113f25760405162461bcd60e51b815260206004820152602e60248201527f496e697469616c697a61626c653a20636f6e747261637420697320616c72656160448201526d191e481a5b9a5d1a585b1a5e995960921b6064820152608401610717565b600054610100900460ff16158015611414576000805461ffff19166101011790555b61143560405180606001604052806032815260200161458f60329139611dd3565b61143d611e03565b611445611e03565b61144d611e03565b611455611e03565b61145d611e2c565b611465611e03565b611470600033611e5f565b6114886000805160206145fb83398151915233611e5f565b6114b27fb62aeb2ef35a3718e51a7e8b0b0d8e6fa690a4037bf45dad308976da469a861c33611e5f565b6114dc7f813b9efdf6afe6b57682eb1fb850711edc34da21ae7f7376cb7a391b1be3239f33611e5f565b6114ed600160006312cf3570611640565b6040516329965a1d60e01b815230600482018190527fb281fc8c12954d22544db45de3159a39272895b169a852b314f9cc762e44c53b60248301526044820152731820a4b7618bde71dce8cdc73aab6c95905fad24906329965a1d90606401600060405180830381600087803b15801561156657600080fd5b505af115801561157a573d6000803e3d6000fd5b505050508015610eca576000805461ff001916905550565b6000805160206145fb8339815191526115ab8133611c69565b610eca611e69565b600082815261015f602052604081206110ef9083611bb8565b600091825261012d602090815260408084206001600160a01b0393909316845291905290205460ff1690565b60006116048133611c69565b5061019580546001600160a01b039384166001600160a01b0319918216179091556101968054929093169116179055565b610ea5338383611ec1565b60975460ff16156116635760405162461bcd60e51b81526004016107179061415d565b600061166f8133611c69565b816000036116905760405163263ad04960e21b815260040160405180910390fd5b50600092835261019160209081526040808520938552929052912055565b600081815261015f6020526040812061074590611bae565b600082815261012d60205260409020600101546116e38133611c69565b610e268383611cf0565b60975460ff16156117105760405162461bcd60e51b81526004016107179061415d565b7f813b9efdf6afe6b57682eb1fb850711edc34da21ae7f7376cb7a391b1be3239f61173b8133611c69565b85841461175b5760405163616c411360e01b815260040161071790614187565b85821461177b5760405163616c411360e01b8152600401610717906141dc565b60005b8681101561027a576117e788888381811061179b5761179b6140d6565b90506020020160208101906117b0919061422e565b8787848181106117c2576117c26140d6565b905060200201358686858181106117db576117db6140d6565b90506020020135611fa1565b806117f1816140ec565b91505061177e565b61180685858585856123f2565b600083815261019260205260409020821561182a576118286006820186611a1c565b505b61183486856106af565b600003610df75761098d6006820187611c54565b60975460ff161561186b5760405162461bcd60e51b81526004016107179061415d565b7fb62aeb2ef35a3718e51a7e8b0b0d8e6fa690a4037bf45dad308976da469a861c6118968133611c69565b6000828152610192602052604090206003015460ff16610ea557610ea582612479565b60006001600160e01b03198216635a05180f60e01b148061074557506107458261269d565b6001600160a01b03841661193e5760405162461bcd60e51b815260206004820152602160248201527f455243313135353a206d696e7420746f20746865207a65726f206164647265736044820152607360f81b6064820152608401610717565b60003390506119646040518060600160405280603a81526020016145c1603a91396126c2565b6119838160008761197488612705565b61197d88612705565b87612750565b60008481526065602090815260408083206001600160a01b0389168452909152812080548592906119b59084906140a1565b909155505060408051858152602081018590526001600160a01b0380881692600092918516917fc3d58168c5ae7397731d063d5bbf3d657854427343f4c083240f7aacaa2d0f62910160405180910390a4611a1581600087878787612850565b5050505050565b60006110ef836001600160a01b0384166129ab565b6001600160a01b038316611a935760405162461bcd60e51b815260206004820152602360248201527f455243313135353a206275726e2066726f6d20746865207a65726f206164647260448201526265737360e81b6064820152608401610717565b33611ac281856000611aa487612705565b611aad87612705565b60405180602001604052806000815250612750565b60008381526065602090815260408083206001600160a01b038816845290915290205482811015611b415760405162461bcd60e51b8152602060048201526024808201527f455243313135353a206275726e20616d6f756e7420657863656564732062616c604482015263616e636560e01b6064820152608401610717565b60008481526065602090815260408083206001600160a01b03898116808652918452828520888703905582518981529384018890529092908616917fc3d58168c5ae7397731d063d5bbf3d657854427343f4c083240f7aacaa2d0f62910160405180910390a45050505050565b6000610745825490565b60006110ef83836129fa565b6001600160a01b038516331480611be05750611be0853361065b565b611c475760405162461bcd60e51b815260206004820152603260248201527f455243313135353a207472616e736665722063616c6c6572206973206e6f74206044820152711bdddb995c881b9bdc88185c1c1c9bdd995960721b6064820152608401610717565b611a158585858585612a24565b60006110ef836001600160a01b038416612c0a565b611c7382826115cc565b610ea557611c8b816001600160a01b03166014612cfd565b611c96836020612cfd565b604051602001611ca792919061424b565b60408051601f198184030181529082905262461bcd60e51b825261071791600401613808565b611cd78282612e98565b600082815261015f60205260409020610e269082611a1c565b611cfa8282612f1f565b600082815261015f60205260409020610e269082611c54565b60975460ff16611d5c5760405162461bcd60e51b815260206004820152601460248201527314185d5cd8589b194e881b9bdd081c185d5cd95960621b6044820152606401610717565b6097805460ff191690557f5db9ee0a495bf2e6ff9c91a7834c1ba4fdd244a5e8aa4e537bd38aeae4b073aa335b6040516001600160a01b03909116815260200160405180910390a1565b600081815260fb60205260408120546110ef90846140a1565b60006110ef611dcd84612f87565b83613017565b600054610100900460ff16611dfa5760405162461bcd60e51b8152600401610717906142c0565b610eca8161302e565b600054610100900460ff16611e2a5760405162461bcd60e51b8152600401610717906142c0565b565b600054610100900460ff16611e535760405162461bcd60e51b8152600401610717906142c0565b6097805460ff19169055565b610ea58282611ccd565b60975460ff1615611e8c5760405162461bcd60e51b81526004016107179061415d565b6097805460ff191660011790557f62e78cea01bee320cd4e420270b5ea74000d11b0c9f74754ebdbfc544b05a258611d893390565b816001600160a01b0316836001600160a01b031603611f345760405162461bcd60e51b815260206004820152602960248201527f455243313135353a2073657474696e6720617070726f76616c20737461747573604482015268103337b91039b2b63360b91b6064820152608401610717565b6001600160a01b03838116600081815260666020908152604080832094871680845294825291829020805460ff191686151590811790915591519182527f17307eab39ab6107e8899845ad3d59bd9653f200f220920489ca2b5937696c31910160405180910390a3505050565b61019654604051631c1f852760e31b8152600481018490526000916001600160a01b03169063e0fc293890602401602060405180830381865afa158015611fec573d6000803e3d6000fd5b505050506040513d601f19601f820116820180604052508101906120109190614007565b60008181526101926020526040902060038101549192509060ff1661204b576040516325f8781760e01b815260048101839052602401610717565b6120548261131d565b83111561207757604051630c21a50760e31b815260048101839052602401610717565b600080841161208e576120898361131d565b612090565b835b905060006120a083600601613041565b9050600081516001600160401b038111156120bd576120bd613a1b565b6040519080825280602002602001820160405280156120e6578160200160208202803683370190505b50905060005b82518110156121255785828281518110612108576121086140d6565b60209081029190910101528061211d816140ec565b9150506120ec565b50600082516001600160401b0381111561214157612141613a1b565b60405190808252806020026020018201604052801561216a578160200160208202803683370190505b50905060006121798484610ecd565b90506000805b6001865161218d9190614146565b8110156122145760006121d4888b8985815181106121ad576121ad6140d6565b60200260200101518786815181106121c7576121c76140d6565b602002602001015161304e565b9050808583815181106121e9576121e96140d6565b60209081029190910101526121fe81846140a1565b925050808061220c906140ec565b91505061217f565b5061221f8187614146565b836001875161222e9190614146565b8151811061223e5761223e6140d6565b60200260200101818152505060005b85518110156123145761229386828151811061226b5761226b6140d6565b60200260200101518a868481518110612286576122866140d6565b6020026020010151611a31565b8381815181106122a5576122a56140d6565b60200260200101518860090160008884815181106122c5576122c56140d6565b60200260200101516001600160a01b03166001600160a01b0316815260200190815260200160002060008282546122fc91906140a1565b9091555081905061230c816140ec565b91505061224d565b508587600401600082825461232991906140a1565b92505081905550878a427f4b9948901911c14ff8b417db5004be639f92f11be671b8b85219c5ff809b71ba8960405161236491815260200190565b60405180910390a46101955460405163a9059cbb60e01b81526001600160a01b038d81166004830152602482018990529091169063a9059cbb906044016020604051808303816000875af11580156123c0573d6000803e3d6000fd5b505050506040513d601f19601f820116820180604052508101906123e491906140b9565b505050505050505050505050565b6001600160a01b03851633148061240e575061240e853361065b565b61246c5760405162461bcd60e51b815260206004820152602960248201527f455243313135353a2063616c6c6572206973206e6f74206f776e6572206e6f7260448201526808185c1c1c9bdd995960ba1b6064820152608401610717565b611a1585858585856130d4565b610196546040516399d5121b60e01b8152600481018390526000916001600160a01b0316906399d5121b90602401608060405180830381865afa1580156124c4573d6000803e3d6000fd5b505050506040513d601f19601f820116820180604052508101906124e89190614020565b805190915060000361253c5760405162461bcd60e51b815260206004820152601860248201527f496e76616c69645363686564756c65537461727454696d6500000000000000006044820152606401610717565b60208101516001600160a01b03811661256857604051636c38382960e11b815260040160405180910390fd5b612574610193846131ec565b6125b25760405162461bcd60e51b815260206004820152600f60248201526e5363686564756c652065786973747360881b6044820152606401610717565b600083815261019260209081526040808320858201516060870151908552610191845282852090855290925282205490918190036126325760405162461bcd60e51b815260206004820152601c60248201527f5265737472696374696f6e206475726174696f6e206e6f7420736574000000006044820152606401610717565b60038201805460ff1916600117905583518083556126519082906140a1565b60018301819055825460408051918252602082019290925286917fc6bf85d136b95579125a47c9781847cacd55015777db8a853dd17946aed35fb2910160405180910390a25050505050565b60006001600160e01b03198216637965db0b60e01b14806107455750610745826131f8565b610eca816040516024016126d69190613808565b60408051601f198184030181529190526020810180516001600160e01b031663104c13eb60e21b179052613248565b6040805160018082528183019092526060916000919060208083019080368337019050509050828160008151811061273f5761273f6140d6565b602090810291909101015292915050565b6001600160a01b03841615600081801561277b5750876001600160a01b0316876001600160a01b0316145b905081156128425760005b85518110156128405760008682815181106127a3576127a36140d6565b602002602001015190508215612808576127bd818a610fe1565b8683815181106127cf576127cf6140d6565b602002602001015111156128085760405163e1b8b25f60e01b81526001600160a01b038a16600482015260248101829052604401610717565b6000818152610192602052604090206005810154612827908390611dbf565b6005909101555080612838816140ec565b915050612786565b505b61027a888888888888613269565b6001600160a01b0384163b15610df75760405163f23a6e6160e01b81526001600160a01b0385169063f23a6e6190612894908990899088908890889060040161430b565b6020604051808303816000875af19250505080156128cf575060408051601f3d908101601f191682019092526128cc91810190614345565b60015b61297b576128db614362565b806308c379a00361291457506128ef61437e565b806128fa5750612916565b8060405162461bcd60e51b81526004016107179190613808565b505b60405162461bcd60e51b815260206004820152603460248201527f455243313135353a207472616e7366657220746f206e6f6e20455243313135356044820152732932b1b2b4bb32b91034b6b83632b6b2b73a32b960611b6064820152608401610717565b6001600160e01b0319811663f23a6e6160e01b1461098d5760405162461bcd60e51b815260040161071790614407565b60008181526001830160205260408120546129f257508154600181810184556000848152602080822090930184905584548482528286019093526040902091909155610745565b506000610745565b6000826000018281548110612a1157612a116140d6565b9060005260206000200154905092915050565b8151835114612a865760405162461bcd60e51b815260206004820152602860248201527f455243313135353a2069647320616e6420616d6f756e7473206c656e677468206044820152670dad2e6dac2e8c6d60c31b6064820152608401610717565b6001600160a01b038416612aac5760405162461bcd60e51b81526004016107179061444f565b33612abb818787878787612750565b60005b8451811015612ba4576000858281518110612adb57612adb6140d6565b602002602001015190506000858381518110612af957612af96140d6565b60209081029190910181015160008481526065835260408082206001600160a01b038e168352909352919091205490915081811015612b4a5760405162461bcd60e51b815260040161071790614494565b60008381526065602090815260408083206001600160a01b038e8116855292528083208585039055908b16825281208054849290612b899084906140a1565b9250508190555050505080612b9d906140ec565b9050612abe565b50846001600160a01b0316866001600160a01b0316826001600160a01b03167f4a39dc06d4c0dbc64b70af90fd698a233a518aa5d07e595d983b8c0526c8f7fb8787604051612bf49291906144de565b60405180910390a4610df7818787878787613383565b60008181526001830160205260408120548015612cf3576000612c2e600183614146565b8554909150600090612c4290600190614146565b9050818114612ca7576000866000018281548110612c6257612c626140d6565b9060005260206000200154905080876000018481548110612c8557612c856140d6565b6000918252602080832090910192909255918252600188019052604090208390555b8554869080612cb857612cb8614503565b600190038181906000526020600020016000905590558560010160008681526020019081526020016000206000905560019350505050610745565b6000915050610745565b60606000612d0c836002614105565b612d179060026140a1565b6001600160401b03811115612d2e57612d2e613a1b565b6040519080825280601f01601f191660200182016040528015612d58576020820181803683370190505b509050600360fc1b81600081518110612d7357612d736140d6565b60200101906001600160f81b031916908160001a905350600f60fb1b81600181518110612da257612da26140d6565b60200101906001600160f81b031916908160001a9053506000612dc6846002614105565b612dd19060016140a1565b90505b6001811115612e49576f181899199a1a9b1b9c1cb0b131b232b360811b85600f1660108110612e0557612e056140d6565b1a60f81b828281518110612e1b57612e1b6140d6565b60200101906001600160f81b031916908160001a90535060049490941c93612e4281614519565b9050612dd4565b5083156110ef5760405162461bcd60e51b815260206004820181905260248201527f537472696e67733a20686578206c656e67746820696e73756666696369656e746044820152606401610717565b612ea282826115cc565b610ea557600082815261012d602090815260408083206001600160a01b03851684529091529020805460ff19166001179055612edb3390565b6001600160a01b0316816001600160a01b0316837f2f8788117e7eff1d82e926ec794901d17c78024a50270940304540a733656f0d60405160405180910390a45050565b612f2982826115cc565b15610ea557600082815261012d602090815260408083206001600160a01b0385168085529252808320805460ff1916905551339285917ff6391f5c32d9c69d2a47ea670b442974b53935d1edc7fd64eb21e047a839171b9190a45050565b600081815261019260205260408120600181015482904210612fb85750600083815260fb60205260409020546110ef565b81546001830154600091612fcb91614146565b8354909150421061300b5782548190612fe49042614146565b612ff2856002015488611da6565b612ffc9190614105565b6130069190614124565b61300e565b60005b95945050505050565b60008183101561302757816110ef565b5090919050565b8051610ea590606790602084019061358e565b606060006110ef8361343e565b6000838152610192602052604081206002810154829061306e9087611da6565b9050600081158061307d575087155b1561308a575060006130c9565b6001600160a01b038616600090815260088401602052604090205482896130b188846140a1565b6130bb9190614105565b6130c59190614124565b9150505b979650505050505050565b6001600160a01b0384166130fa5760405162461bcd60e51b81526004016107179061444f565b3361310a81878761197488612705565b60008481526065602090815260408083206001600160a01b038a1684529091529020548381101561314d5760405162461bcd60e51b815260040161071790614494565b60008581526065602090815260408083206001600160a01b038b811685529252808320878503905590881682528120805486929061318c9084906140a1565b909155505060408051868152602081018690526001600160a01b03808916928a821692918616917fc3d58168c5ae7397731d063d5bbf3d657854427343f4c083240f7aacaa2d0f62910160405180910390a461098d828888888888612850565b60006110ef83836129ab565b60006001600160e01b03198216636cdb3d1360e11b148061322957506001600160e01b031982166303a24d0760e21b145b8061074557506301ffc9a760e01b6001600160e01b0319831614610745565b80516a636f6e736f6c652e6c6f67602083016000808483855afa5050505050565b613277868686868686613499565b6001600160a01b0385166132fe5760005b83518110156132fc578281815181106132a3576132a36140d6565b602002602001015160fb60008684815181106132c1576132c16140d6565b6020026020010151815260200190815260200160002060008282546132e691906140a1565b909155506132f59050816140ec565b9050613288565b505b6001600160a01b038416610df75760005b835181101561098d5782818151811061332a5761332a6140d6565b602002602001015160fb6000868481518110613348576133486140d6565b60200260200101518152602001908152602001600020600082825461336d9190614146565b9091555061337c9050816140ec565b905061330f565b6001600160a01b0384163b15610df75760405163bc197c8160e01b81526001600160a01b0385169063bc197c81906133c79089908990889088908890600401614530565b6020604051808303816000875af1925050508015613402575060408051601f3d908101601f191682019092526133ff91810190614345565b60015b61340e576128db614362565b6001600160e01b0319811663bc197c8160e01b1461098d5760405162461bcd60e51b815260040161071790614407565b6060816000018054806020026020016040519081016040528092919081815260200182805480156107de57602002820191906000526020600020905b81548152602001906001019080831161347a5750505050509050919050565b60975460ff1615610df75760405162461bcd60e51b815260206004820152602c60248201527f455243313135355061757361626c653a20746f6b656e207472616e736665722060448201526b1dda1a5b19481c185d5cd95960a21b6064820152608401610717565b60405180610120016040528060008152602001600081526020016000815260200160008152602001600081526020016000815260200160008152602001606081526020016000151581525090565b6040518060c0016040528060006001600160a01b0316815260200160008152602001600081526020016000815260200160008152602001600081525090565b82805461359a90613fd3565b90600052602060002090601f0160209004810192826135bc5760008555613602565b82601f106135d557805160ff1916838001178555613602565b82800160010185558215613602579182015b828111156136025782518255916020019190600101906135e7565b5061360e929150613612565b5090565b5b8082111561360e5760008155600101613613565b6001600160a01b0381168114610eca57600080fd5b60008083601f84011261364e57600080fd5b5081356001600160401b0381111561366557600080fd5b60208301915083602082850101111561367d57600080fd5b9250929050565b60008060008060008060008060c0898b0312156136a057600080fd5b88356136ab81613627565b975060208901356136bb81613627565b965060408901356136cb81613627565b95506060890135945060808901356001600160401b03808211156136ee57600080fd5b6136fa8c838d0161363c565b909650945060a08b013591508082111561371357600080fd5b506137208b828c0161363c565b999c989b5096995094979396929594505050565b6000806040838503121561374757600080fd5b823561375281613627565b946020939093013593505050565b6001600160e01b031981168114610eca57600080fd5b60006020828403121561378857600080fd5b81356110ef81613760565b6000602082840312156137a557600080fd5b5035919050565b60005b838110156137c75781810151838201526020016137af565b838111156137d6576000848401525b50505050565b600081518084526137f48160208601602086016137ac565b601f01601f19169290920160200192915050565b6020815260006110ef60208301846137dc565b6000806040838503121561382e57600080fd5b50508035926020909101359150565b60008060006060848603121561385257600080fd5b833561385d81613627565b95602085013595506040909401359392505050565b60008083601f84011261388457600080fd5b5081356001600160401b0381111561389b57600080fd5b6020830191508360208260051b850101111561367d57600080fd5b600080602083850312156138c957600080fd5b82356001600160401b038111156138df57600080fd5b6138eb85828601613872565b90969095509350505050565b6000610120808401835185526020808501518187015260408501516040870152606085015160608701526080850151608087015260a085015160a087015260c085015160c087015260e08501518360e08801528293508051808452610140880194508282019350600091505b8082101561398c5783516001600160a01b03168552938201939282019260019190910190613963565b505050506101009283015115159390920192909252919050565b6000602080830181845280855180835260408601915060408160051b870101925083870160005b828110156139fb57603f198886030184526139e98583516138f7565b945092850192908501906001016139cd565b5092979650505050505050565b6020815260006110ef60208301846138f7565b634e487b7160e01b600052604160045260246000fd5b601f8201601f191681016001600160401b0381118282101715613a5657613a56613a1b565b6040525050565b60006001600160401b03821115613a7657613a76613a1b565b5060051b60200190565b600082601f830112613a9157600080fd5b81356020613a9e82613a5d565b604051613aab8282613a31565b83815260059390931b8501820192828101915086841115613acb57600080fd5b8286015b84811015613ae65780358352918301918301613acf565b509695505050505050565b600082601f830112613b0257600080fd5b81356001600160401b03811115613b1b57613b1b613a1b565b604051613b32601f8301601f191660200182613a31565b818152846020838601011115613b4757600080fd5b816020850160208301376000918101602001919091529392505050565b600080600080600060a08688031215613b7c57600080fd5b8535613b8781613627565b94506020860135613b9781613627565b935060408601356001600160401b0380821115613bb357600080fd5b613bbf89838a01613a80565b94506060880135915080821115613bd557600080fd5b613be189838a01613a80565b93506080880135915080821115613bf757600080fd5b50613c0488828901613af1565b9150509295509295909350565b60008060408385031215613c2457600080fd5b823591506020830135613c3681613627565b809150509250929050565b60008060408385031215613c5457600080fd5b82356001600160401b0380821115613c6b57600080fd5b818501915085601f830112613c7f57600080fd5b81356020613c8c82613a5d565b604051613c998282613a31565b83815260059390931b8501820192828101915089841115613cb957600080fd5b948201945b83861015613ce0578535613cd181613627565b82529482019490820190613cbe565b96505086013592505080821115613cf657600080fd5b50613d0385828601613a80565b9150509250929050565b600081518084526020808501945080840160005b83811015613d3d57815187529582019590820190600101613d21565b509495945050505050565b6020815260006110ef6020830184613d0d565b80516001600160a01b031682526020808201519083015260408082015190830152606080820151908301526080808201519083015260a090810151910152565b60c081016107458284613d5b565b60008060408385031215613dbc57600080fd5b8235613dc781613627565b915060208301356001600160401b03811115613de257600080fd5b613d0385828601613a80565b6020808252825182820181905260009190848201906040850190845b81811015613e3057613e1d838551613d5b565b9284019260c09290920191600101613e0a565b50909695505050505050565b60008060408385031215613e4f57600080fd5b8235613e5a81613627565b91506020830135613c3681613627565b8015158114610eca57600080fd5b60008060408385031215613e8b57600080fd5b8235613e9681613627565b91506020830135613c3681613e6a565b600080600060608486031215613ebb57600080fd5b505081359360208301359350604090920135919050565b60008060008060008060608789031215613eeb57600080fd5b86356001600160401b0380821115613f0257600080fd5b613f0e8a838b01613872565b90985096506020890135915080821115613f2757600080fd5b613f338a838b01613872565b90965094506040890135915080821115613f4c57600080fd5b50613f5989828a01613872565b979a9699509497509295939492505050565b600080600080600060a08688031215613f8357600080fd5b8535613f8e81613627565b94506020860135613f9e81613627565b9350604086013592506060860135915060808601356001600160401b03811115613fc757600080fd5b613c0488828901613af1565b600181811c90821680613fe757607f821691505b60208210810361118f57634e487b7160e01b600052602260045260246000fd5b60006020828403121561401957600080fd5b5051919050565b60006080828403121561403257600080fd5b604051608081018181106001600160401b038211171561405457614054613a1b565b60405282518152602083015161406981613627565b6020820152604083810151908201526060928301519281019290925250919050565b634e487b7160e01b600052601160045260246000fd5b600082198211156140b4576140b461408b565b500190565b6000602082840312156140cb57600080fd5b81516110ef81613e6a565b634e487b7160e01b600052603260045260246000fd5b6000600182016140fe576140fe61408b565b5060010190565b600081600019048311821515161561411f5761411f61408b565b500290565b60008261414157634e487b7160e01b600052601260045260246000fd5b500490565b6000828210156141585761415861408b565b500390565b60208082526010908201526f14185d5cd8589b194e881c185d5cd95960821b604082015260600190565b6040815260006141b360408301600c81526b66726f6d4163636f756e747360a01b602082015260400190565b828103602093840152600a81526972656d6f76616c49647360b01b928101929092525060400190565b60408152600061420860408301600c81526b66726f6d4163636f756e747360a01b602082015260400190565b8281036020938401526007815266616d6f756e747360c81b928101929092525060400190565b60006020828403121561424057600080fd5b81356110ef81613627565b7f416363657373436f6e74726f6c3a206163636f756e74200000000000000000008152600083516142838160178501602088016137ac565b7001034b99036b4b9b9b4b733903937b6329607d1b60179184019182015283516142b48160288401602088016137ac565b01602801949350505050565b6020808252602b908201527f496e697469616c697a61626c653a20636f6e7472616374206973206e6f74206960408201526a6e697469616c697a696e6760a81b606082015260800190565b6001600160a01b03868116825285166020820152604081018490526060810183905260a0608082018190526000906130c9908301846137dc565b60006020828403121561435757600080fd5b81516110ef81613760565b600060033d111561437b5760046000803e5060005160e01c5b90565b600060443d101561438c5790565b6040516003193d81016004833e81513d6001600160401b0381602484011181841117156143bb57505050505090565b82850191508151818111156143d35750505050505090565b843d87010160208285010111156143ed5750505050505090565b6143fc60208286010187613a31565b509095945050505050565b60208082526028908201527f455243313135353a204552433131353552656365697665722072656a656374656040820152676420746f6b656e7360c01b606082015260800190565b60208082526025908201527f455243313135353a207472616e7366657220746f20746865207a65726f206164604082015264647265737360d81b606082015260800190565b6020808252602a908201527f455243313135353a20696e73756666696369656e742062616c616e636520666f60408201526939103a3930b739b332b960b11b606082015260800190565b6040815260006144f16040830185613d0d565b828103602084015261300e8185613d0d565b634e487b7160e01b600052603160045260246000fd5b6000816145285761452861408b565b506000190190565b6001600160a01b0386811682528516602082015260a06040820181905260009061455c90830186613d0d565b828103606084015261456e8186613d0d565b9050828103608084015261458281856137dc565b9897505050505050505056fe68747470733a2f2f6e6f72692e636f6d2f6170692f7265737472696374696f6e7363686564756c652f7b69647d2e6a736f6e696e7369646520455243313135357570677261646561626c65205f6d696e74206265666f7265206265666f7265546f6b656e5472616e7366657265d7a28e3265b37a6474929f336521b332c1681b933f6cb9f3376673440d862aa2646970667358221220192c55f105c8ec026159582d2f755c97b595700be45e34466e4bd0843b52c58064736f6c634300080d0033",
  "linkReferences": {},
  "deployedLinkReferences": {}
}