{
  "_format": "hh-sol-artifact-1",
  "contractName": "RestrictedNORI",
  "sourceName": "contracts/RestrictedNORI.sol",
  "abi": [
    {
      "inputs": [
        {
          "internalType": "uint256",
          "name": "scheduleId",
          "type": "uint256"
        }
      ],
      "name": "AllTokensAlreadyReleased",
      "type": "error"
    },
    {
      "inputs": [
        {
          "internalType": "string",
          "name": "array1Name",
          "type": "string"
        },
        {
          "internalType": "string",
          "name": "array2Name",
          "type": "string"
        }
      ],
      "name": "ArrayLengthMismatch",
      "type": "error"
    },
    {
      "inputs": [],
      "name": "BurningNotSupported",
      "type": "error"
    },
    {
      "inputs": [
        {
          "internalType": "address",
          "name": "account",
          "type": "address"
        },
        {
          "internalType": "uint256",
          "name": "scheduleId",
          "type": "uint256"
        }
      ],
      "name": "InsufficientBalance",
      "type": "error"
    },
    {
      "inputs": [
        {
          "internalType": "address",
          "name": "account",
          "type": "address"
        },
        {
          "internalType": "uint256",
          "name": "scheduleId",
          "type": "uint256"
        }
      ],
      "name": "InsufficientClaimableBalance",
      "type": "error"
    },
    {
      "inputs": [
        {
          "internalType": "uint256",
          "name": "scheduleId",
          "type": "uint256"
        }
      ],
      "name": "InsufficientUnreleasedTokens",
      "type": "error"
    },
    {
      "inputs": [
        {
          "internalType": "address",
          "name": "account",
          "type": "address"
        }
      ],
      "name": "InvalidBpNoriSender",
      "type": "error"
    },
    {
      "inputs": [
        {
          "internalType": "address",
          "name": "account",
          "type": "address"
        },
        {
          "internalType": "string",
          "name": "role",
          "type": "string"
        }
      ],
      "name": "MissingRole",
      "type": "error"
    },
    {
      "inputs": [
        {
          "internalType": "uint256",
          "name": "scheduleId",
          "type": "uint256"
        }
      ],
      "name": "NonexistentRestrictionSchedule",
      "type": "error"
    },
    {
      "inputs": [],
      "name": "OperatorActionsNotSupported",
      "type": "error"
    },
    {
      "inputs": [],
      "name": "RecipientCannotBeZeroAddress",
      "type": "error"
    },
    {
      "inputs": [
        {
          "internalType": "address",
          "name": "recipient",
          "type": "address"
        },
        {
          "internalType": "string",
          "name": "role",
          "type": "string"
        }
      ],
      "name": "RecipientCannotHaveRole",
      "type": "error"
    },
    {
      "inputs": [
        {
          "internalType": "uint256",
          "name": "removalId",
          "type": "uint256"
        }
      ],
      "name": "RestrictionDurationNotSet",
      "type": "error"
    },
    {
      "inputs": [
        {
          "internalType": "uint256",
          "name": "scheduleTokenId",
          "type": "uint256"
        },
        {
          "internalType": "uint256",
          "name": "removalIdTriggeredCreation",
          "type": "uint256"
        }
      ],
      "name": "RestrictionScheduleExists",
      "type": "error"
    },
    {
      "inputs": [
        {
          "internalType": "address",
          "name": "account",
          "type": "address"
        },
        {
          "internalType": "string",
          "name": "role",
          "type": "string"
        }
      ],
      "name": "RoleCannotTransfer",
      "type": "error"
    },
    {
      "inputs": [
        {
          "internalType": "address",
          "name": "account",
          "type": "address"
        },
        {
          "internalType": "string",
          "name": "role",
          "type": "string"
        }
      ],
      "name": "RoleUnassignableToScheduleHolder",
      "type": "error"
    },
    {
      "inputs": [],
      "name": "TokenSenderNotBPNORI",
      "type": "error"
    },
    {
      "anonymous": false,
      "inputs": [
        {
          "indexed": true,
          "internalType": "address",
          "name": "account",
          "type": "address"
        },
        {
          "indexed": true,
          "internalType": "address",
          "name": "operator",
          "type": "address"
        },
        {
          "indexed": false,
          "internalType": "bool",
          "name": "approved",
          "type": "bool"
        }
      ],
      "name": "ApprovalForAll",
      "type": "event"
    },
    {
      "anonymous": false,
      "inputs": [
        {
          "indexed": false,
          "internalType": "address",
          "name": "account",
          "type": "address"
        }
      ],
      "name": "Paused",
      "type": "event"
    },
    {
      "anonymous": false,
      "inputs": [
        {
          "indexed": true,
          "internalType": "uint256",
          "name": "scheduleId",
          "type": "uint256"
        },
        {
          "indexed": true,
          "internalType": "uint256",
          "name": "removalIdTriggeredCreation",
          "type": "uint256"
        }
      ],
      "name": "RestrictionScheduleCreated",
      "type": "event"
    },
    {
      "anonymous": false,
      "inputs": [
        {
          "indexed": true,
          "internalType": "bytes32",
          "name": "role",
          "type": "bytes32"
        },
        {
          "indexed": true,
          "internalType": "bytes32",
          "name": "previousAdminRole",
          "type": "bytes32"
        },
        {
          "indexed": true,
          "internalType": "bytes32",
          "name": "newAdminRole",
          "type": "bytes32"
        }
      ],
      "name": "RoleAdminChanged",
      "type": "event"
    },
    {
      "anonymous": false,
      "inputs": [
        {
          "indexed": true,
          "internalType": "bytes32",
          "name": "role",
          "type": "bytes32"
        },
        {
          "indexed": true,
          "internalType": "address",
          "name": "account",
          "type": "address"
        },
        {
          "indexed": true,
          "internalType": "address",
          "name": "sender",
          "type": "address"
        }
      ],
      "name": "RoleGranted",
      "type": "event"
    },
    {
      "anonymous": false,
      "inputs": [
        {
          "indexed": true,
          "internalType": "bytes32",
          "name": "role",
          "type": "bytes32"
        },
        {
          "indexed": true,
          "internalType": "address",
          "name": "account",
          "type": "address"
        },
        {
          "indexed": true,
          "internalType": "address",
          "name": "sender",
          "type": "address"
        }
      ],
      "name": "RoleRevoked",
      "type": "event"
    },
    {
      "anonymous": false,
      "inputs": [
        {
          "indexed": true,
          "internalType": "address",
          "name": "from",
          "type": "address"
        },
        {
          "indexed": true,
          "internalType": "address",
          "name": "to",
          "type": "address"
        },
        {
          "indexed": true,
          "internalType": "uint256",
          "name": "scheduleId",
          "type": "uint256"
        },
        {
          "indexed": false,
          "internalType": "uint256",
          "name": "quantity",
          "type": "uint256"
        }
      ],
      "name": "TokensClaimed",
      "type": "event"
    },
    {
      "anonymous": false,
      "inputs": [
        {
          "indexed": true,
          "internalType": "address",
          "name": "operator",
          "type": "address"
        },
        {
          "indexed": true,
          "internalType": "address",
          "name": "from",
          "type": "address"
        },
        {
          "indexed": true,
          "internalType": "address",
          "name": "to",
          "type": "address"
        },
        {
          "indexed": false,
          "internalType": "uint256[]",
          "name": "ids",
          "type": "uint256[]"
        },
        {
          "indexed": false,
          "internalType": "uint256[]",
          "name": "values",
          "type": "uint256[]"
        }
      ],
      "name": "TransferBatch",
      "type": "event"
    },
    {
      "anonymous": false,
      "inputs": [
        {
          "indexed": true,
          "internalType": "address",
          "name": "operator",
          "type": "address"
        },
        {
          "indexed": true,
          "internalType": "address",
          "name": "from",
          "type": "address"
        },
        {
          "indexed": true,
          "internalType": "address",
          "name": "to",
          "type": "address"
        },
        {
          "indexed": false,
          "internalType": "uint256",
          "name": "id",
          "type": "uint256"
        },
        {
          "indexed": false,
          "internalType": "uint256",
          "name": "value",
          "type": "uint256"
        }
      ],
      "name": "TransferSingle",
      "type": "event"
    },
    {
      "anonymous": false,
      "inputs": [
        {
          "indexed": false,
          "internalType": "string",
          "name": "value",
          "type": "string"
        },
        {
          "indexed": true,
          "internalType": "uint256",
          "name": "id",
          "type": "uint256"
        }
      ],
      "name": "URI",
      "type": "event"
    },
    {
      "anonymous": false,
      "inputs": [
        {
          "indexed": false,
          "internalType": "address",
          "name": "account",
          "type": "address"
        }
      ],
      "name": "Unpaused",
      "type": "event"
    },
    {
      "anonymous": false,
      "inputs": [
        {
          "indexed": true,
          "internalType": "uint256",
          "name": "atTime",
          "type": "uint256"
        },
        {
          "indexed": true,
          "internalType": "uint256",
          "name": "removalId",
          "type": "uint256"
        },
        {
          "indexed": true,
          "internalType": "uint256",
          "name": "scheduleId",
          "type": "uint256"
        },
        {
          "indexed": false,
          "internalType": "uint256",
          "name": "quantity",
          "type": "uint256"
        }
      ],
      "name": "UnreleasedTokensRevoked",
      "type": "event"
    },
    {
      "inputs": [],
      "name": "DEFAULT_ADMIN_ROLE",
      "outputs": [
        {
          "internalType": "bytes32",
          "name": "",
          "type": "bytes32"
        }
      ],
      "stateMutability": "view",
      "type": "function"
    },
    {
      "inputs": [],
      "name": "ERC777_TOKENS_RECIPIENT_HASH",
      "outputs": [
        {
          "internalType": "bytes32",
          "name": "",
          "type": "bytes32"
        }
      ],
      "stateMutability": "view",
      "type": "function"
    },
    {
      "inputs": [],
      "name": "MINTER_ROLE",
      "outputs": [
        {
          "internalType": "bytes32",
          "name": "",
          "type": "bytes32"
        }
      ],
      "stateMutability": "view",
      "type": "function"
    },
    {
      "inputs": [],
      "name": "PAUSER_ROLE",
      "outputs": [
        {
          "internalType": "bytes32",
          "name": "",
          "type": "bytes32"
        }
      ],
      "stateMutability": "view",
      "type": "function"
    },
    {
      "inputs": [],
      "name": "SCHEDULE_CREATOR_ROLE",
      "outputs": [
        {
          "internalType": "bytes32",
          "name": "",
          "type": "bytes32"
        }
      ],
      "stateMutability": "view",
      "type": "function"
    },
    {
      "inputs": [],
      "name": "TOKEN_REVOKER_ROLE",
      "outputs": [
        {
          "internalType": "bytes32",
          "name": "",
          "type": "bytes32"
        }
      ],
      "stateMutability": "view",
      "type": "function"
    },
    {
      "inputs": [
        {
          "internalType": "address",
          "name": "account",
          "type": "address"
        },
        {
          "internalType": "uint256",
          "name": "id",
          "type": "uint256"
        }
      ],
      "name": "balanceOf",
      "outputs": [
        {
          "internalType": "uint256",
          "name": "",
          "type": "uint256"
        }
      ],
      "stateMutability": "view",
      "type": "function"
    },
    {
      "inputs": [
        {
          "internalType": "address[]",
          "name": "accounts",
          "type": "address[]"
        },
        {
          "internalType": "uint256[]",
          "name": "ids",
          "type": "uint256[]"
        }
      ],
      "name": "balanceOfBatch",
      "outputs": [
        {
          "internalType": "uint256[]",
          "name": "",
          "type": "uint256[]"
        }
      ],
      "stateMutability": "view",
      "type": "function"
    },
    {
      "inputs": [
        {
          "internalType": "uint256[]",
          "name": "removalIds",
          "type": "uint256[]"
        }
      ],
      "name": "batchCreateRestrictionSchedule",
      "outputs": [],
      "stateMutability": "nonpayable",
      "type": "function"
    },
    {
      "inputs": [
        {
          "internalType": "address",
          "name": "account",
          "type": "address"
        }
      ],
      "name": "batchGetRestrictionScheduleDetailsForAccount",
      "outputs": [
        {
          "components": [
            {
              "internalType": "address",
              "name": "tokenHolder",
              "type": "address"
            },
            {
              "internalType": "uint256",
              "name": "scheduleTokenId",
              "type": "uint256"
            },
            {
              "internalType": "uint256",
              "name": "startTime",
              "type": "uint256"
            },
            {
              "internalType": "uint256",
              "name": "endTime",
              "type": "uint256"
            },
            {
              "internalType": "uint256",
              "name": "balance",
              "type": "uint256"
            },
            {
              "internalType": "uint256",
              "name": "claimableAmount",
              "type": "uint256"
            },
            {
              "internalType": "uint256",
              "name": "claimedAmount",
              "type": "uint256"
            },
            {
              "internalType": "uint256",
              "name": "quantityRevoked",
              "type": "uint256"
            },
            {
              "internalType": "bool",
              "name": "exists",
              "type": "bool"
            }
          ],
          "internalType": "struct RestrictedNORI.RestrictionScheduleDetailForAddress[]",
          "name": "",
          "type": "tuple[]"
        }
      ],
      "stateMutability": "view",
      "type": "function"
    },
    {
      "inputs": [
        {
          "internalType": "uint256[]",
          "name": "scheduleIds",
          "type": "uint256[]"
        }
      ],
      "name": "batchGetRestrictionScheduleSummaries",
      "outputs": [
        {
          "components": [
            {
              "internalType": "uint256",
              "name": "scheduleTokenId",
              "type": "uint256"
            },
            {
              "internalType": "uint256",
              "name": "startTime",
              "type": "uint256"
            },
            {
              "internalType": "uint256",
              "name": "endTime",
              "type": "uint256"
            },
            {
              "internalType": "uint256",
              "name": "totalSupply",
              "type": "uint256"
            },
            {
              "internalType": "uint256",
              "name": "totalClaimableAmount",
              "type": "uint256"
            },
            {
              "internalType": "uint256",
              "name": "totalClaimedAmount",
              "type": "uint256"
            },
            {
              "internalType": "uint256",
              "name": "totalQuantityRevoked",
              "type": "uint256"
            },
            {
              "internalType": "address[]",
              "name": "tokenHolders",
              "type": "address[]"
            },
            {
              "internalType": "bool",
              "name": "exists",
              "type": "bool"
            }
          ],
          "internalType": "struct RestrictedNORI.RestrictionScheduleSummary[]",
          "name": "",
          "type": "tuple[]"
        }
      ],
      "stateMutability": "view",
      "type": "function"
    },
    {
      "inputs": [
        {
          "internalType": "address[]",
          "name": "toAccounts",
          "type": "address[]"
        },
        {
          "internalType": "uint256[]",
          "name": "removalIds",
          "type": "uint256[]"
        },
        {
          "internalType": "uint256[]",
          "name": "amounts",
          "type": "uint256[]"
        }
      ],
      "name": "batchRevokeUnreleasedTokenAmounts",
      "outputs": [],
      "stateMutability": "nonpayable",
      "type": "function"
    },
    {
      "inputs": [
        {
          "internalType": "address",
          "name": "",
          "type": "address"
        },
        {
          "internalType": "uint256",
          "name": "",
          "type": "uint256"
        },
        {
          "internalType": "uint256",
          "name": "",
          "type": "uint256"
        }
      ],
      "name": "burn",
      "outputs": [],
      "stateMutability": "pure",
      "type": "function"
    },
    {
      "inputs": [
        {
          "internalType": "address",
          "name": "",
          "type": "address"
        },
        {
          "internalType": "uint256[]",
          "name": "",
          "type": "uint256[]"
        },
        {
          "internalType": "uint256[]",
          "name": "",
          "type": "uint256[]"
        }
      ],
      "name": "burnBatch",
      "outputs": [],
      "stateMutability": "pure",
      "type": "function"
    },
    {
      "inputs": [
        {
          "internalType": "uint256",
          "name": "scheduleId",
          "type": "uint256"
        }
      ],
      "name": "claimableBalanceForSchedule",
      "outputs": [
        {
          "internalType": "uint256",
          "name": "",
          "type": "uint256"
        }
      ],
      "stateMutability": "view",
      "type": "function"
    },
    {
      "inputs": [
        {
          "internalType": "uint256",
          "name": "scheduleId",
          "type": "uint256"
        },
        {
          "internalType": "address",
          "name": "account",
          "type": "address"
        }
      ],
      "name": "claimableBalanceForScheduleForAccount",
      "outputs": [
        {
          "internalType": "uint256",
          "name": "",
          "type": "uint256"
        }
      ],
      "stateMutability": "view",
      "type": "function"
    },
    {
      "inputs": [
        {
          "internalType": "uint256",
          "name": "id",
          "type": "uint256"
        }
      ],
      "name": "exists",
      "outputs": [
        {
          "internalType": "bool",
          "name": "",
          "type": "bool"
        }
      ],
      "stateMutability": "view",
      "type": "function"
    },
    {
      "inputs": [],
      "name": "getAllScheduleIds",
      "outputs": [
        {
          "internalType": "uint256[]",
          "name": "",
          "type": "uint256[]"
        }
      ],
      "stateMutability": "view",
      "type": "function"
    },
    {
      "inputs": [
        {
          "internalType": "uint256",
          "name": "methodology",
          "type": "uint256"
        },
        {
          "internalType": "uint256",
          "name": "methodologyVersion",
          "type": "uint256"
        }
      ],
      "name": "getRestrictionDurationForMethodologyAndVersion",
      "outputs": [
        {
          "internalType": "uint256",
          "name": "",
          "type": "uint256"
        }
      ],
      "stateMutability": "view",
      "type": "function"
    },
    {
      "inputs": [
        {
          "internalType": "address",
          "name": "account",
          "type": "address"
        },
        {
          "internalType": "uint256",
          "name": "scheduleId",
          "type": "uint256"
        }
      ],
      "name": "getRestrictionScheduleDetailForAccount",
      "outputs": [
        {
          "components": [
            {
              "internalType": "address",
              "name": "tokenHolder",
              "type": "address"
            },
            {
              "internalType": "uint256",
              "name": "scheduleTokenId",
              "type": "uint256"
            },
            {
              "internalType": "uint256",
              "name": "startTime",
              "type": "uint256"
            },
            {
              "internalType": "uint256",
              "name": "endTime",
              "type": "uint256"
            },
            {
              "internalType": "uint256",
              "name": "balance",
              "type": "uint256"
            },
            {
              "internalType": "uint256",
              "name": "claimableAmount",
              "type": "uint256"
            },
            {
              "internalType": "uint256",
              "name": "claimedAmount",
              "type": "uint256"
            },
            {
              "internalType": "uint256",
              "name": "quantityRevoked",
              "type": "uint256"
            },
            {
              "internalType": "bool",
              "name": "exists",
              "type": "bool"
            }
          ],
          "internalType": "struct RestrictedNORI.RestrictionScheduleDetailForAddress",
          "name": "",
          "type": "tuple"
        }
      ],
      "stateMutability": "view",
      "type": "function"
    },
    {
      "inputs": [
        {
          "internalType": "uint256",
          "name": "scheduleId",
          "type": "uint256"
        }
      ],
      "name": "getRestrictionScheduleSummary",
      "outputs": [
        {
          "components": [
            {
              "internalType": "uint256",
              "name": "scheduleTokenId",
              "type": "uint256"
            },
            {
              "internalType": "uint256",
              "name": "startTime",
              "type": "uint256"
            },
            {
              "internalType": "uint256",
              "name": "endTime",
              "type": "uint256"
            },
            {
              "internalType": "uint256",
              "name": "totalSupply",
              "type": "uint256"
            },
            {
              "internalType": "uint256",
              "name": "totalClaimableAmount",
              "type": "uint256"
            },
            {
              "internalType": "uint256",
              "name": "totalClaimedAmount",
              "type": "uint256"
            },
            {
              "internalType": "uint256",
              "name": "totalQuantityRevoked",
              "type": "uint256"
            },
            {
              "internalType": "address[]",
              "name": "tokenHolders",
              "type": "address[]"
            },
            {
              "internalType": "bool",
              "name": "exists",
              "type": "bool"
            }
          ],
          "internalType": "struct RestrictedNORI.RestrictionScheduleSummary",
          "name": "",
          "type": "tuple"
        }
      ],
      "stateMutability": "view",
      "type": "function"
    },
    {
      "inputs": [
        {
          "internalType": "bytes32",
          "name": "role",
          "type": "bytes32"
        }
      ],
      "name": "getRoleAdmin",
      "outputs": [
        {
          "internalType": "bytes32",
          "name": "",
          "type": "bytes32"
        }
      ],
      "stateMutability": "view",
      "type": "function"
    },
    {
      "inputs": [
        {
          "internalType": "bytes32",
          "name": "role",
          "type": "bytes32"
        },
        {
          "internalType": "uint256",
          "name": "index",
          "type": "uint256"
        }
      ],
      "name": "getRoleMember",
      "outputs": [
        {
          "internalType": "address",
          "name": "",
          "type": "address"
        }
      ],
      "stateMutability": "view",
      "type": "function"
    },
    {
      "inputs": [
        {
          "internalType": "bytes32",
          "name": "role",
          "type": "bytes32"
        }
      ],
      "name": "getRoleMemberCount",
      "outputs": [
        {
          "internalType": "uint256",
          "name": "",
          "type": "uint256"
        }
      ],
      "stateMutability": "view",
      "type": "function"
    },
    {
      "inputs": [
        {
          "internalType": "address",
          "name": "account",
          "type": "address"
        }
      ],
      "name": "getScheduleIdsForAccount",
      "outputs": [
        {
          "internalType": "uint256[]",
          "name": "",
          "type": "uint256[]"
        }
      ],
      "stateMutability": "view",
      "type": "function"
    },
    {
      "inputs": [
        {
          "internalType": "bytes32",
          "name": "role",
          "type": "bytes32"
        },
        {
          "internalType": "address",
          "name": "account",
          "type": "address"
        }
      ],
      "name": "grantRole",
      "outputs": [],
      "stateMutability": "nonpayable",
      "type": "function"
    },
    {
      "inputs": [
        {
          "internalType": "bytes32",
          "name": "role",
          "type": "bytes32"
        },
        {
          "internalType": "address",
          "name": "account",
          "type": "address"
        }
      ],
      "name": "hasRole",
      "outputs": [
        {
          "internalType": "bool",
          "name": "",
          "type": "bool"
        }
      ],
      "stateMutability": "view",
      "type": "function"
    },
    {
      "inputs": [],
      "name": "initialize",
      "outputs": [],
      "stateMutability": "nonpayable",
      "type": "function"
    },
    {
      "inputs": [
        {
          "internalType": "string",
          "name": "uri",
          "type": "string"
        }
      ],
      "name": "initialize",
      "outputs": [],
      "stateMutability": "nonpayable",
      "type": "function"
    },
    {
      "inputs": [
        {
          "internalType": "address",
          "name": "marketAddress",
          "type": "address"
        },
        {
          "internalType": "address",
          "name": "bridgedPolygonNoriAddress",
          "type": "address"
        },
        {
          "internalType": "address",
          "name": "removalAddress",
          "type": "address"
        }
      ],
      "name": "initializeContractInstances",
      "outputs": [],
      "stateMutability": "nonpayable",
      "type": "function"
    },
    {
      "inputs": [
        {
          "internalType": "address",
          "name": "",
          "type": "address"
        },
        {
          "internalType": "address",
          "name": "",
          "type": "address"
        }
      ],
      "name": "isApprovedForAll",
      "outputs": [
        {
          "internalType": "bool",
          "name": "",
          "type": "bool"
        }
      ],
      "stateMutability": "pure",
      "type": "function"
    },
    {
      "inputs": [
        {
          "internalType": "address",
          "name": "to",
          "type": "address"
        },
        {
          "internalType": "uint256",
          "name": "id",
          "type": "uint256"
        },
        {
          "internalType": "uint256",
          "name": "amount",
          "type": "uint256"
        },
        {
          "internalType": "bytes",
          "name": "data",
          "type": "bytes"
        }
      ],
      "name": "mint",
      "outputs": [],
      "stateMutability": "nonpayable",
      "type": "function"
    },
    {
      "inputs": [
        {
          "internalType": "address",
          "name": "to",
          "type": "address"
        },
        {
          "internalType": "uint256[]",
          "name": "ids",
          "type": "uint256[]"
        },
        {
          "internalType": "uint256[]",
          "name": "amounts",
          "type": "uint256[]"
        },
        {
          "internalType": "bytes",
          "name": "data",
          "type": "bytes"
        }
      ],
      "name": "mintBatch",
      "outputs": [],
      "stateMutability": "nonpayable",
      "type": "function"
    },
    {
      "inputs": [],
      "name": "pause",
      "outputs": [],
      "stateMutability": "nonpayable",
      "type": "function"
    },
    {
      "inputs": [],
      "name": "paused",
      "outputs": [
        {
          "internalType": "bool",
          "name": "",
          "type": "bool"
        }
      ],
      "stateMutability": "view",
      "type": "function"
    },
    {
      "inputs": [
        {
          "internalType": "uint256",
          "name": "removalId",
          "type": "uint256"
        }
      ],
      "name": "removalIdToScheduleId",
      "outputs": [
        {
          "internalType": "uint256",
          "name": "",
          "type": "uint256"
        }
      ],
      "stateMutability": "view",
      "type": "function"
    },
    {
      "inputs": [
        {
          "internalType": "bytes32",
          "name": "role",
          "type": "bytes32"
        },
        {
          "internalType": "address",
          "name": "account",
          "type": "address"
        }
      ],
      "name": "renounceRole",
      "outputs": [],
      "stateMutability": "nonpayable",
      "type": "function"
    },
    {
      "inputs": [
        {
          "internalType": "uint256",
          "name": "scheduleId",
          "type": "uint256"
        }
      ],
      "name": "revocableQuantityForSchedule",
      "outputs": [
        {
          "internalType": "uint256",
          "name": "",
          "type": "uint256"
        }
      ],
      "stateMutability": "view",
      "type": "function"
    },
    {
      "inputs": [
        {
          "internalType": "bytes32",
          "name": "role",
          "type": "bytes32"
        },
        {
          "internalType": "address",
          "name": "account",
          "type": "address"
        }
      ],
      "name": "revokeRole",
      "outputs": [],
      "stateMutability": "nonpayable",
      "type": "function"
    },
    {
      "inputs": [
        {
          "internalType": "address",
          "name": "from",
          "type": "address"
        },
        {
          "internalType": "address",
          "name": "to",
          "type": "address"
        },
        {
          "internalType": "uint256[]",
          "name": "ids",
          "type": "uint256[]"
        },
        {
          "internalType": "uint256[]",
          "name": "amounts",
          "type": "uint256[]"
        },
        {
          "internalType": "bytes",
          "name": "data",
          "type": "bytes"
        }
      ],
      "name": "safeBatchTransferFrom",
      "outputs": [],
      "stateMutability": "nonpayable",
      "type": "function"
    },
    {
      "inputs": [
        {
          "internalType": "address",
          "name": "from",
          "type": "address"
        },
        {
          "internalType": "address",
          "name": "to",
          "type": "address"
        },
        {
          "internalType": "uint256",
          "name": "id",
          "type": "uint256"
        },
        {
          "internalType": "uint256",
          "name": "amount",
          "type": "uint256"
        },
        {
          "internalType": "bytes",
          "name": "data",
          "type": "bytes"
        }
      ],
      "name": "safeTransferFrom",
      "outputs": [],
      "stateMutability": "nonpayable",
      "type": "function"
    },
    {
      "inputs": [
        {
          "internalType": "address",
          "name": "",
          "type": "address"
        },
        {
          "internalType": "bool",
          "name": "",
          "type": "bool"
        }
      ],
      "name": "setApprovalForAll",
      "outputs": [],
      "stateMutability": "pure",
      "type": "function"
    },
    {
      "inputs": [
        {
          "internalType": "uint256",
          "name": "methodology",
          "type": "uint256"
        },
        {
          "internalType": "uint256",
          "name": "methodologyVersion",
          "type": "uint256"
        },
        {
          "internalType": "uint256",
          "name": "durationInSeconds",
          "type": "uint256"
        }
      ],
      "name": "setRestrictionDurationForMethodologyAndVersion",
      "outputs": [
        {
          "internalType": "uint256",
          "name": "",
          "type": "uint256"
        }
      ],
      "stateMutability": "nonpayable",
      "type": "function"
    },
    {
      "inputs": [
        {
          "internalType": "bytes4",
          "name": "interfaceId",
          "type": "bytes4"
        }
      ],
      "name": "supportsInterface",
      "outputs": [
        {
          "internalType": "bool",
          "name": "",
          "type": "bool"
        }
      ],
      "stateMutability": "view",
      "type": "function"
    },
    {
      "inputs": [
        {
          "internalType": "address",
          "name": "",
          "type": "address"
        },
        {
          "internalType": "address",
          "name": "from",
          "type": "address"
        },
        {
          "internalType": "address",
          "name": "",
          "type": "address"
        },
        {
          "internalType": "uint256",
          "name": "amount",
          "type": "uint256"
        },
        {
          "internalType": "bytes",
          "name": "userData",
          "type": "bytes"
        },
        {
          "internalType": "bytes",
          "name": "operatorData",
          "type": "bytes"
        }
      ],
      "name": "tokensReceived",
      "outputs": [],
      "stateMutability": "nonpayable",
      "type": "function"
    },
    {
      "inputs": [
        {
          "internalType": "uint256",
          "name": "id",
          "type": "uint256"
        }
      ],
      "name": "totalSupply",
      "outputs": [
        {
          "internalType": "uint256",
          "name": "",
          "type": "uint256"
        }
      ],
      "stateMutability": "view",
      "type": "function"
    },
    {
      "inputs": [],
      "name": "unpause",
      "outputs": [],
      "stateMutability": "nonpayable",
      "type": "function"
    },
    {
      "inputs": [
        {
          "internalType": "uint256",
          "name": "",
          "type": "uint256"
        }
      ],
      "name": "uri",
      "outputs": [
        {
          "internalType": "string",
          "name": "",
          "type": "string"
        }
      ],
      "stateMutability": "view",
      "type": "function"
    },
    {
      "inputs": [
        {
          "internalType": "address",
          "name": "recipient",
          "type": "address"
        },
        {
          "internalType": "uint256",
          "name": "scheduleId",
          "type": "uint256"
        },
        {
          "internalType": "uint256",
          "name": "amount",
          "type": "uint256"
        }
      ],
      "name": "withdrawFromRestrictionSchedule",
      "outputs": [
        {
          "internalType": "bool",
          "name": "",
          "type": "bool"
        }
      ],
      "stateMutability": "nonpayable",
      "type": "function"
    }
  ],
  "bytecode": "0x608060405234801561001057600080fd5b50615031806100206000396000f3fe608060405234801561001057600080fd5b50600436106102b95760003560e01c80638129fc1c11610182578063d5391393116100e9578063e32c74b2116100a2578063e985e9c51161007c578063e985e9c5146106d7578063f242432a146106ea578063f5298aca146106fd578063f62d18881461070b57600080fd5b8063e32c74b21461068f578063e5b6d2a9146106af578063e63ab1e9146106c257600080fd5b8063d53913931461060e578063d547741f14610623578063d8e689ea14610636578063d943dac714610656578063dfd2cdee14610669578063e01d73931461067c57600080fd5b8063a217fddf1161013b578063a217fddf14610585578063a22cb4651461058d578063b8b4dbe0146105a0578063bd85b039146105c7578063c1499fa8146105e8578063ca15c873146105fb57600080fd5b80638129fc1c146104eb5780638456cb59146104f35780638f02c58d146104fb5780639010d07c1461051b57806391d14854146105465780639ac7b44d1461055957600080fd5b80633f4ba83a116102265780636235a4e9116101df5780636235a4e914610484578063624bc1231461049757806363343346146104aa5780636b20c454146104b2578063713279b1146104c5578063731133e9146104d857600080fd5b80633f4ba83a146103f35780634e1273f4146103fb5780634f558e791461041b578063521189a91461043e5780635c975abb146104655780635d37165a1461047157600080fd5b8063229afd6111610278578063229afd611461036f578063248a9ca31461038457806327df2cef146103a75780632eb2c2d6146103ba5780632f2ff15d146103cd57806336568abe146103e057600080fd5b806223de29146102be578062fdd58e146102d357806301ffc9a7146102f95780630e89341c1461031c5780631c8351a31461033c5780631f7fdffa1461035c575b600080fd5b6102d16102cc366004613c77565b61071e565b005b6102e66102e1366004613d21565b610834565b6040519081526020015b60405180910390f35b61030c610307366004613d61565b6108cb565b60405190151581526020016102f0565b61032f61032a366004613d7e565b6108d6565b6040516102f09190613def565b61034f61034a366004613d21565b61096a565b6040516102f09190613e63565b6102d161036a366004613fc5565b610a21565b6102e6600080516020614fdc83398151915281565b6102e6610392366004613d7e565b60009081526065602052604090206001015490565b61030c6103b536600461405d565b610a67565b6102d16103c8366004614090565b610b89565b6102d16103db366004614139565b610cfb565b6102d16103ee366004614139565b610d26565b6102d1610da4565b61040e610409366004614165565b610e38565b6040516102f0919061426a565b61030c610429366004613d7e565b60009081526101c36020526040902054151590565b6102e67fb281fc8c12954d22544db45de3159a39272895b169a852b314f9cc762e44c53b81565b61012d5460ff1661030c565b6102e661047f366004614139565b610f54565b6102e6610492366004613d7e565b611012565b6102d16104a53660046142c1565b611061565b61040e61111d565b6102d16104c0366004614302565b6111bc565b6102e66104d3366004613d7e565b6111d5565b6102d16104e6366004614382565b61120c565b6102d161124c565b6102d1611451565b61050e6105093660046142c1565b6114e3565b6040516102f09190614485565b61052e6105293660046144e7565b611597565b6040516001600160a01b0390911681526020016102f0565b61030c610554366004614139565b6115af565b6102e66105673660046144e7565b60009182526101f56020908152604080842092845291905290205490565b6102e6600081565b6102d161059b366004614509565b6115da565b6102e67f813b9efdf6afe6b57682eb1fb850711edc34da21ae7f7376cb7a391b1be3239f81565b6102e66105d5366004613d7e565b60009081526101c3602052604090205490565b6102e66105f6366004614545565b6115f3565b6102e6610609366004613d7e565b61164f565b6102e6600080516020614fbc83398151915281565b6102d1610631366004614139565b611666565b610649610644366004613d7e565b61168c565b6040516102f09190614571565b6102e6610664366004613d7e565b61184a565b61040e610677366004614584565b611958565b6102d161068a36600461459f565b611a05565b6106a261069d366004614584565b611b1c565b6040516102f09190614638565b6102d16106bd366004614687565b611be5565b6102e6600080516020614f9c83398151915281565b61030c6106e53660046146ca565b611c34565b6102d16106f83660046146f4565b611c4f565b6102d16104c036600461405d565b6102d1610719366004614758565b611cef565b6101fb546001600160a01b0316336001600160a01b03161461075357604051634628d20b60e01b815260040160405180910390fd5b6101fa546001600160a01b038881169116148061077657506107766000886115af565b6107a357604051630465c5db60e41b81526001600160a01b03881660048201526024015b60405180910390fd5b60006107b184860186613d7e565b9050610828818787878080601f01602080910402602001604051908101604052809392919081815260200183838082843760009201919091525050604080516020601f8b018190048102820181019092528981529250899150889081908401838280828437600092019190915250611d6a92505050565b50505050505050505050565b60006001600160a01b0383166108a05760405162461bcd60e51b815260206004820152602b60248201527f455243313135353a2062616c616e636520717565727920666f7220746865207a60448201526a65726f206164647265737360a81b606482015260840161079a565b50600081815260c9602090815260408083206001600160a01b03861684529091529020545b92915050565b60006108c582611e13565b606060cb80546108e5906147a0565b80601f0160208091040260200160405190810160405280929190818152602001828054610911906147a0565b801561095e5780601f106109335761010080835404028352916020019161095e565b820191906000526020600020905b81548152906001019060200180831161094157829003601f168201915b50505050509050919050565b610972613ad5565b60008281526101f760209081526040918290208251610120810184526001600160a01b038716815291820185905280549282019290925260018201546060820152608081016109c18686610834565b81526020016109d08587610f54565b81526001600160a01b038616600081815260088501602090815260408083205482860152928252600986019052819020549082015260039092015460ff161515606090920191909152905092915050565b610a39600080516020614fbc833981519152336115af565b610a555760405162461bcd60e51b815260040161079a906147d4565b610a6184848484611e1e565b50505050565b6000610a74338484611f80565b6101fb54604051634decdde360e11b81526001600160a01b03868116600483015260248201859052606060448301526000606483015290911690639bd9bbc690608401600060405180830381600087803b158015610ad157600080fd5b505af1158015610ae5573d6000803e3d6000fd5b50505060008481526101f76020526040812060028101805491935085929091610b0f908490614847565b909155505033600090815260088201602052604081208054859290610b35908490614847565b909155505060405183815284906001600160a01b0387169033907fff097c7d8b1957a4ff09ef1361b5fb54dcede3941ba836d0beb9d10bec725de69060200160405180910390a460019150505b9392505050565b610b9685858585856120fd565b60005b8351811015610cf35760006101f76000868481518110610bbb57610bbb61485f565b602002602001015181526020019081526020016000209050838281518110610be557610be561485f565b6020026020010151600014610c5557610c45858381518110610c0957610c0961485f565b60200260200101516101f66000896001600160a01b03166001600160a01b0316815260200190815260200160002061218d90919063ffffffff16565b50610c536006820187612199565b505b610c7887868481518110610c6b57610c6b61485f565b6020026020010151610834565b600003610ce057610cd0858381518110610c9457610c9461485f565b60200260200101516101f660008a6001600160a01b03166001600160a01b031681526020019081526020016000206121ae90919063ffffffff16565b50610cde60068201886121ba565b505b5080610ceb81614875565b915050610b99565b505050505050565b600082815260656020526040902060010154610d1781336121cf565b610d218383612233565b505050565b6001600160a01b0381163314610d965760405162461bcd60e51b815260206004820152602f60248201527f416363657373436f6e74726f6c3a2063616e206f6e6c792072656e6f756e636560448201526e103937b632b9903337b91039b2b63360891b606482015260840161079a565b610da08282612295565b5050565b610dbc600080516020614f9c833981519152336115af565b610e2e5760405162461bcd60e51b815260206004820152603b60248201527f455243313135355072657365744d696e7465725061757365723a206d7573742060448201527f686176652070617573657220726f6c6520746f20756e70617573650000000000606482015260840161079a565b610e366122b7565b565b60608151835114610e9d5760405162461bcd60e51b815260206004820152602960248201527f455243313135353a206163636f756e747320616e6420696473206c656e677468604482015268040dad2e6dac2e8c6d60bb1b606482015260840161079a565b600083516001600160401b03811115610eb857610eb8613e72565b604051908082528060200260200182016040528015610ee1578160200160208202803683370190505b50905060005b8451811015610f4c57610f1f858281518110610f0557610f0561485f565b6020026020010151858381518110610c6b57610c6b61485f565b828281518110610f3157610f3161485f565b6020908102919091010152610f4581614875565b9050610ee7565b509392505050565b60008281526101f7602090815260408083206101c390925282205460028201548391610f7f91614847565b905080600003610f94576000925050506108c5565b6000610fa08587610834565b6001600160a01b0386166000908152600885016020526040812054919250610fc788611012565b905060008285876002015484610fdd9190614847565b610fe78787614847565b610ff1919061488e565b610ffb91906148ad565b61100591906148cf565b9998505050505050505050565b60008181526101f760205260408120600381015460ff166110495760405163353ba3af60e21b81526004810184905260240161079a565b80600201546110578461234c565b610b8291906148cf565b61012d5460ff16156110855760405162461bcd60e51b815260040161079a906148e6565b600080516020614fdc83398151915261109e81336121cf565b60005b82811015610a615760006110cc8585848181106110c0576110c061485f565b9050602002013561184a565b60008181526101f7602052604090206003015490915060ff1661110a5761110a8585848181106110fe576110fe61485f565b90506020020135612371565b508061111581614875565b9150506110a1565b6060600061112c6101f8612579565b6001600160401b0381111561114357611143613e72565b60405190808252806020026020018201604052801561116c578160200160208202803683370190505b50905060005b81518110156111b6576111876101f882612583565b8282815181106111995761119961485f565b6020908102919091010152806111ae81614875565b915050611172565b50919050565b60405163fd647c0960e01b815260040160405180910390fd5b60008181526101f7602052604081206111ed8361234c565b600282015460008581526101c360205260409020546110579190614847565b611224600080516020614fbc833981519152336115af565b6112405760405162461bcd60e51b815260040161079a906147d4565b610a618484848461258f565b600054610100900460ff166112675760005460ff161561126b565b303b155b6112875760405162461bcd60e51b815260040161079a90614910565b600054610100900460ff161580156112a9576000805461ffff19166101011790555b6112ca604051806060016040528060328152602001614f3060329139611cef565b6040805160018082528183019092526000916020808301908036833701905050905033816000815181106113005761130061485f565b60200260200101906001600160a01b031690816001600160a01b03168152505061132861268c565b61133061268c565b61133861268c565b61134061268c565b6113486126b3565b61135061268c565b6040516329965a1d60e01b815230600482018190527fb281fc8c12954d22544db45de3159a39272895b169a852b314f9cc762e44c53b60248301526044820152731820a4b7618bde71dce8cdc73aab6c95905fad24906329965a1d90606401600060405180830381600087803b1580156113c957600080fd5b505af11580156113dd573d6000803e3d6000fd5b505050506113ff600080516020614fdc8339815191526113fa3390565b6126e7565b6114297f813b9efdf6afe6b57682eb1fb850711edc34da21ae7f7376cb7a391b1be3239f336126e7565b61143a600160006312cf35706115f3565b5050801561144e576000805461ff00191690555b50565b611469600080516020614f9c833981519152336115af565b6114db5760405162461bcd60e51b815260206004820152603960248201527f455243313135355072657365744d696e7465725061757365723a206d7573742060448201527f686176652070617573657220726f6c6520746f20706175736500000000000000606482015260840161079a565b610e366126f1565b60606000826001600160401b038111156114ff576114ff613e72565b60405190808252806020026020018201604052801561153857816020015b611525613b2c565b81526020019060019003908161151d5790505b50905060005b83811015610f4c5761156785858381811061155b5761155b61485f565b9050602002013561168c565b8282815181106115795761157961485f565b6020026020010181905250808061158f90614875565b91505061153e565b6000828152609760205260408120610b829083612583565b60009182526065602090815260408084206001600160a01b0393909316845291905290205460ff1690565b604051636461329360e01b815260040160405180910390fd5b600061160261012d5460ff1690565b1561161f5760405162461bcd60e51b815260040161079a906148e6565b600061162b81336121cf565b5060009384526101f560209081526040808620948652939052919092209190915590565b60008181526097602052604081206108c590612579565b60008281526065602052604090206001015461168281336121cf565b610d218383612295565b611694613b2c565b60008281526101f760205260408120906116b060068301612579565b90506000816001600160401b038111156116cc576116cc613e72565b6040519080825280602002602001820160405280156116f5578160200160208202803683370190505b5090506000826001600160401b0381111561171257611712613e72565b60405190808252806020026020018201604052801561173b578160200160208202803683370190505b50905060005b61174d85600601612579565b8110156117c3576117616006860182612583565b8382815181106117735761177361485f565b60200260200101906001600160a01b031690816001600160a01b031681525050868282815181106117a6576117a661485f565b6020908102919091010152806117bb81614875565b915050611741565b5060405180610120016040528087815260200185600001548152602001856001015481526020016118018860009081526101c3602052604090205490565b815260200161180f88611012565b81526002860154602082015260048601546040820152606081019390935260039094015460ff16151560809092019190915250909392505050565b6000806118568361274b565b905060006118936118668561275a565b60ff1661187286612773565b60ff1660009182526101f56020908152604080842092845291905290205490565b6101fc546040516312eac63960e01b8152600481018790529192506000916001600160a01b03909116906312eac63990602401602060405180830381865afa1580156118e3573d6000803e3d6000fd5b505050506040513d601f19601f82011682018060405250810190611907919061495e565b6040516bffffffffffffffffffffffff19606086901b166020820152603481018490526054810182905290915060740160408051601f19818403018152919052805160209091012095945050505050565b6001600160a01b03811660009081526101f66020526040812060609161197d82612579565b6001600160401b0381111561199457611994613e72565b6040519080825280602002602001820160405280156119bd578160200160208202803683370190505b50905060005b8151811015610f4c576119d68382612583565b8282815181106119e8576119e861485f565b6020908102919091010152806119fd81614875565b9150506119c3565b61012d5460ff1615611a295760405162461bcd60e51b815260040161079a906148e6565b7f813b9efdf6afe6b57682eb1fb850711edc34da21ae7f7376cb7a391b1be3239f611a5481336121cf565b858414611a745760405163616c411360e01b815260040161079a90614977565b858214611a945760405163616c411360e01b815260040161079a906149cc565b60005b86811015611b1257611b00888883818110611ab457611ab461485f565b9050602002016020810190611ac99190614584565b878784818110611adb57611adb61485f565b90506020020135868685818110611af457611af461485f565b9050602002013561278b565b80611b0a81614875565b915050611a97565b5050505050505050565b6001600160a01b03811660009081526101f660205260408120606091611b4182612579565b6001600160401b03811115611b5857611b58613e72565b604051908082528060200260200182016040528015611b9157816020015b611b7e613ad5565b815260200190600190039081611b765790505b50905060005b611ba083612579565b811015610f4c57611bb58561034a8584612583565b828281518110611bc757611bc761485f565b60200260200101819052508080611bdd90614875565b915050611b97565b6000611bf181336121cf565b506101fa80546001600160a01b039485166001600160a01b0319918216179091556101fb8054938516938216939093179092556101fc8054919093169116179055565b6000604051636461329360e01b815260040160405180910390fd5b611c5c8585858585612a91565b60008381526101f7602052604090208215611ca4576001600160a01b03851660009081526101f660205260409020611c94908561218d565b50611ca26006820186612199565b505b611cae8685610834565b600003610cf3576001600160a01b03861660009081526101f660205260409020611cd890856121ae565b50611ce660068201876121ba565b50505050505050565b600054610100900460ff16611d0a5760005460ff1615611d0e565b303b155b611d2a5760405162461bcd60e51b815260040161079a90614910565b600054610100900460ff16158015611d4c576000805461ffff19166101011790555b611d5582612b18565b8015610da0576000805461ff00191690555050565b600080611d768661274b565b90506000611d838761184a565b60008181526101f7602052604090206003015490915060ff16611da957611da987612371565b611dc48282886040518060200160405280600081525061258f565b60008181526101f760205260409020611de06006820184612199565b506001600160a01b03831660009081526101f660205260409020611e04908361218d565b50600198975050505050505050565b60006108c582612b59565b6001600160a01b038416611e445760405162461bcd60e51b815260040161079a90614a1e565b8151835114611e655760405162461bcd60e51b815260040161079a90614a5f565b33611e7581600087878787612b99565b60005b8451811015611f1157838181518110611e9357611e9361485f565b602002602001015160c96000878481518110611eb157611eb161485f565b602002602001015181526020019081526020016000206000886001600160a01b03166001600160a01b031681526020019081526020016000206000828254611ef99190614847565b90915550819050611f0981614875565b915050611e78565b50846001600160a01b031660006001600160a01b0316826001600160a01b03167f4a39dc06d4c0dbc64b70af90fd698a233a518aa5d07e595d983b8c0526c8f7fb8787604051611f62929190614aa7565b60405180910390a4611f7981600087878787612d19565b5050505050565b6001600160a01b038316611fe25760405162461bcd60e51b815260206004820152602360248201527f455243313135353a206275726e2066726f6d20746865207a65726f206164647260448201526265737360e81b606482015260840161079a565b3361201181856000611ff387612e74565b611ffc87612e74565b60405180602001604052806000815250612b99565b600083815260c9602090815260408083206001600160a01b0388168452909152902054828110156120905760405162461bcd60e51b8152602060048201526024808201527f455243313135353a206275726e20616d6f756e7420657863656564732062616c604482015263616e636560e01b606482015260840161079a565b600084815260c9602090815260408083206001600160a01b03898116808652918452828520888703905582518981529384018890529092908616917fc3d58168c5ae7397731d063d5bbf3d657854427343f4c083240f7aacaa2d0f62910160405180910390a45050505050565b6001600160a01b03851633148061211957506121198533611c34565b6121805760405162461bcd60e51b815260206004820152603260248201527f455243313135353a207472616e736665722063616c6c6572206973206e6f74206044820152711bdddb995c881b9bdc88185c1c1c9bdd995960721b606482015260840161079a565b611f798585858585612ebf565b6000610b828383613064565b6000610b82836001600160a01b038416613064565b6000610b8283836130b3565b6000610b82836001600160a01b0384166130b3565b6121d982826115af565b610da0576121f1816001600160a01b031660146131a6565b6121fc8360206131a6565b60405160200161220d929190614ad5565b60408051601f198184030181529082905262461bcd60e51b825261079a91600401613def565b600080516020614fdc833981519152820361228b576001600160a01b03811660009081526101f66020526040812061226a90612579565b111561228b5780604051632b04dac760e01b815260040161079a9190614b4a565b610da08282613341565b61229f8282613363565b6000828152609760205260409020610d2190826121ba565b61012d5460ff166123015760405162461bcd60e51b815260206004820152601460248201527314185d5cd8589b194e881b9bdd081c185d5cd95960621b604482015260640161079a565b61012d805460ff191690557f5db9ee0a495bf2e6ff9c91a7834c1ba4fdd244a5e8aa4e537bd38aeae4b073aa335b6040516001600160a01b03909116815260200160405180910390a1565b60008181526101f760205260408120610b82612367846133ca565b8260050154613459565b600061237c8261274b565b6101fc546040516312eac63960e01b8152600481018590529192506000916001600160a01b03909116906312eac63990602401602060405180830381865afa1580156123cc573d6000803e3d6000fd5b505050506040513d601f19601f820116820180604052508101906123f0919061495e565b905060006123fd8461184a565b90506001600160a01b03831661242657604051636c38382960e11b815260040160405180910390fd5b61243e600080516020614fdc833981519152846115af565b1561245e5782604051632486d30560e11b815260040161079a9190614b4a565b60008181526101f7602052604090206003015460ff161561249c5760405163da5ba21d60e01b8152600481018290526024810185905260440161079a565b60008181526101f7602052604090206124b76101f88361218d565b5060006124d26124c68761275a565b60ff1661187288612773565b9050806000036124f85760405163361ecb5560e01b81526004810187905260240161079a565b6001600160a01b03851660009081526101f66020526040902061251b908461218d565b5060038201805460ff191660011790558382556125388185614847565b6001830155600060058301819055604051879185917f2ed522ae70b40def2217fb94e6b02c9c20324c4f64e12292a926147ae5a6ae729190a3505050505050565b60006108c5825490565b6000610b828383613470565b6001600160a01b0384166125b55760405162461bcd60e51b815260040161079a90614a1e565b60003390506125db6040518060600160405280603a8152602001614f62603a913961349a565b6125fa816000876125eb88612e74565b6125f488612e74565b87612b99565b600084815260c9602090815260408083206001600160a01b03891684529091528120805485929061262c908490614847565b909155505060408051858152602081018590526001600160a01b0380881692600092918516917fc3d58168c5ae7397731d063d5bbf3d657854427343f4c083240f7aacaa2d0f62910160405180910390a4611f79816000878787876134dd565b600054610100900460ff16610e365760405162461bcd60e51b815260040161079a90614b8b565b600054610100900460ff166126da5760405162461bcd60e51b815260040161079a90614b8b565b61012d805460ff19169055565b610da08282612233565b61012d5460ff16156127155760405162461bcd60e51b815260040161079a906148e6565b61012d805460ff191660011790557f62e78cea01bee320cd4e420270b5ea74000d11b0c9f74754ebdbfc544b05a25861232f3390565b60006108c58260146004613598565b6000600461276b836001601e613598565b901c92915050565b6000612782826001601e613598565b600f1692915050565b60006127968361184a565b60008181526101f76020526040902060038101549192509060ff166127d15760405163353ba3af60e21b81526004810183905260240161079a565b60006127dc8361234c565b60008481526101c36020526040902054909150811061281157604051631a05723960e21b81526004810184905260240161079a565b6000841561284c57612822846111d5565b85111561284557604051630c21a50760e31b81526004810185905260240161079a565b5083612858565b612855846111d5565b90505b60068301600061286782612579565b6001600160401b0381111561287e5761287e613e72565b6040519080825280602002602001820160405280156128a7578160200160208202803683370190505b50905060005b6128b683612579565b811015612900576128d184886128cc8685612583565b6135e4565b8282815181106128e3576128e361485f565b6020908102919091010152806128f881614875565b9150506128ad565b5060005b61290d83612579565b8110156129bb576129416129218483612583565b888484815181106129345761293461485f565b6020026020010151611f80565b8181815181106129535761295361485f565b6020026020010151866009016000612974848761258390919063ffffffff16565b6001600160a01b03166001600160a01b0316815260200190815260200160002060008282546129a39190614847565b909155508190506129b381614875565b915050612904565b50828560040160008282546129d09190614847565b90915550506101fb54604051634decdde360e11b81526001600160a01b038b8116600483015260248201869052606060448301526000606483015290911690639bd9bbc690608401600060405180830381600087803b158015612a3257600080fd5b505af1158015612a46573d6000803e3d6000fd5b505050508588427f1c88d66daca38f6d7ea17e24dd97402f816c3970f697a9144270c923082bccb086604051612a7e91815260200190565b60405180910390a4505050505050505050565b6001600160a01b038516331480612aad5750612aad8533611c34565b612b0b5760405162461bcd60e51b815260206004820152602960248201527f455243313135353a2063616c6c6572206973206e6f74206f776e6572206e6f7260448201526808185c1c1c9bdd995960ba1b606482015260840161079a565b611f798585858585613689565b600054610100900460ff16612b3f5760405162461bcd60e51b815260040161079a90614b8b565b612b48816137a1565b612b506126b3565b61144e816137d1565b60006001600160e01b03198216636cdb3d1360e11b1480612b8a57506001600160e01b031982166303a24d0760e21b145b806108c557506108c582613833565b6001600160a01b0385811615908516156000818015612bc95750886001600160a01b0316886001600160a01b0316145b9050600083158015612bd9575082155b90508215612c5a5760005b8751811015612c585760006101f760008a8481518110612c0657612c0661485f565b602002602001015181526020019081526020016000209050612c40898381518110612c3357612c3361485f565b602002602001015161234c565b60059091015580612c5081614875565b915050612be4565b505b8115612d0b5760005b8751811015612d0957612c8f888281518110612c8157612c8161485f565b60200260200101518b610f54565b878281518110612ca157612ca161485f565b60200260200101511115612cf75789888281518110612cc257612cc261485f565b602090810291909101015160405163e1b8b25f60e01b81526001600160a01b039092166004830152602482015260440161079a565b80612d0181614875565b915050612c63565b505b6108288a8a8a8a8a8a613858565b6001600160a01b0384163b15610cf35760405163bc197c8160e01b81526001600160a01b0385169063bc197c8190612d5d9089908990889088908890600401614bd6565b6020604051808303816000875af1925050508015612d98575060408051601f3d908101601f19168201909252612d9591810190614c34565b60015b612e4457612da4614c51565b806308c379a003612ddd5750612db8614c6d565b80612dc35750612ddf565b8060405162461bcd60e51b815260040161079a9190613def565b505b60405162461bcd60e51b815260206004820152603460248201527f455243313135353a207472616e7366657220746f206e6f6e20455243313135356044820152732932b1b2b4bb32b91034b6b83632b6b2b73a32b960611b606482015260840161079a565b6001600160e01b0319811663bc197c8160e01b14611ce65760405162461bcd60e51b815260040161079a90614cf6565b60408051600180825281830190925260609160009190602080830190803683370190505090508281600081518110612eae57612eae61485f565b602090810291909101015292915050565b8151835114612ee05760405162461bcd60e51b815260040161079a90614a5f565b6001600160a01b038416612f065760405162461bcd60e51b815260040161079a90614d3e565b33612f15818787878787612b99565b60005b8451811015612ffe576000858281518110612f3557612f3561485f565b602002602001015190506000858381518110612f5357612f5361485f565b602090810291909101810151600084815260c9835260408082206001600160a01b038e168352909352919091205490915081811015612fa45760405162461bcd60e51b815260040161079a90614d83565b600083815260c9602090815260408083206001600160a01b038e8116855292528083208585039055908b16825281208054849290612fe3908490614847565b9250508190555050505080612ff790614875565b9050612f18565b50846001600160a01b0316866001600160a01b0316826001600160a01b03167f4a39dc06d4c0dbc64b70af90fd698a233a518aa5d07e595d983b8c0526c8f7fb878760405161304e929190614aa7565b60405180910390a4610cf3818787878787612d19565b60008181526001830160205260408120546130ab575081546001818101845560008481526020808220909301849055845484825282860190935260409020919091556108c5565b5060006108c5565b6000818152600183016020526040812054801561319c5760006130d76001836148cf565b85549091506000906130eb906001906148cf565b905081811461315057600086600001828154811061310b5761310b61485f565b906000526020600020015490508087600001848154811061312e5761312e61485f565b6000918252602080832090910192909255918252600188019052604090208390555b855486908061316157613161614dcd565b6001900381819060005260206000200160009055905585600101600086815260200190815260200160002060009055600193505050506108c5565b60009150506108c5565b606060006131b583600261488e565b6131c0906002614847565b6001600160401b038111156131d7576131d7613e72565b6040519080825280601f01601f191660200182016040528015613201576020820181803683370190505b509050600360fc1b8160008151811061321c5761321c61485f565b60200101906001600160f81b031916908160001a905350600f60fb1b8160018151811061324b5761324b61485f565b60200101906001600160f81b031916908160001a905350600061326f84600261488e565b61327a906001614847565b90505b60018111156132f2576f181899199a1a9b1b9c1cb0b131b232b360811b85600f16601081106132ae576132ae61485f565b1a60f81b8282815181106132c4576132c461485f565b60200101906001600160f81b031916908160001a90535060049490941c936132eb81614de3565b905061327d565b508315610b825760405162461bcd60e51b815260206004820181905260248201527f537472696e67733a20686578206c656e67746820696e73756666696369656e74604482015260640161079a565b61334b8282613974565b6000828152609760205260409020610d219082612199565b61336d82826115af565b15610da05760008281526065602090815260408083206001600160a01b0385168085529252808320805460ff1916905551339285917ff6391f5c32d9c69d2a47ea670b442974b53935d1edc7fd64eb21e047a839171b9190a45050565b60008181526101f760205260408120600181015442106133f95760008381526101c36020526040902054610b82565b8054600182015460009161340c916148cf565b8254909150421061344e578154819061342590426148cf565b60008681526101c3602052604090205461343f919061488e565b61344991906148ad565b613451565b60005b949350505050565b6000818310156134695781610b82565b5090919050565b60008260000182815481106134875761348761485f565b9060005260206000200154905092915050565b61144e816040516024016134ae9190613def565b60408051601f198184030181529190526020810180516001600160e01b031663104c13eb60e21b1790526139fa565b6001600160a01b0384163b15610cf35760405163f23a6e6160e01b81526001600160a01b0385169063f23a6e61906135219089908990889088908890600401614dfa565b6020604051808303816000875af192505050801561355c575060408051601f3d908101601f1916820190925261355991810190614c34565b60015b61356857612da4614c51565b6001600160e01b0319811663f23a6e6160e01b14611ce65760405162461bcd60e51b815260040161079a90614cf6565b6000806135a660088461488e565b60016135b360088761488e565b6135be906002614f23565b6135c891906148cf565b901b90508481166135da60088561488e565b1c95945050505050565b60008281526101f7602090815260408083206101c39092528220546002820154839161360f91614847565b90508060000361362457600092505050610b82565b60006136308587610834565b6001600160a01b038616600090815260088501602052604081205491925061365788611012565b90506000848a6136678686614847565b613671919061488e565b61367b91906148ad565b9a9950505050505050505050565b6001600160a01b0384166136af5760405162461bcd60e51b815260040161079a90614d3e565b336136bf8187876125eb88612e74565b600084815260c9602090815260408083206001600160a01b038a168452909152902054838110156137025760405162461bcd60e51b815260040161079a90614d83565b600085815260c9602090815260408083206001600160a01b038b8116855292528083208785039055908816825281208054869290613741908490614847565b909155505060408051868152602081018690526001600160a01b03808916928a821692918616917fc3d58168c5ae7397731d063d5bbf3d657854427343f4c083240f7aacaa2d0f62910160405180910390a4611ce68288888888886134dd565b600054610100900460ff166137c85760405162461bcd60e51b815260040161079a90614b8b565b61144e81613a1b565b600054610100900460ff166137f85760405162461bcd60e51b815260040161079a90614b8b565b6138036000336126e7565b61381b600080516020614fbc833981519152336126e7565b61144e600080516020614f9c833981519152336126e7565b60006001600160e01b03198216635a05180f60e01b14806108c557506108c582613a2e565b613866868686868686613a63565b6001600160a01b0385166138ee5760005b83518110156138ec578281815181106138925761389261485f565b60200260200101516101c360008684815181106138b1576138b161485f565b6020026020010151815260200190815260200160002060008282546138d69190614847565b909155506138e5905081614875565b9050613877565b505b6001600160a01b038416610cf35760005b8351811015611ce65782818151811061391a5761391a61485f565b60200260200101516101c360008684815181106139395761393961485f565b60200260200101518152602001908152602001600020600082825461395e91906148cf565b9091555061396d905081614875565b90506138ff565b61397e82826115af565b610da05760008281526065602090815260408083206001600160a01b03851684529091529020805460ff191660011790556139b63390565b6001600160a01b0316816001600160a01b0316837f2f8788117e7eff1d82e926ec794901d17c78024a50270940304540a733656f0d60405160405180910390a45050565b80516a636f6e736f6c652e6c6f67602083016000808483855afa5050505050565b8051610da09060cb906020840190613b7a565b60006001600160e01b03198216637965db0b60e01b14806108c557506301ffc9a760e01b6001600160e01b03198316146108c5565b610cf386868686868661012d5460ff1615610cf35760405162461bcd60e51b815260206004820152602c60248201527f455243313135355061757361626c653a20746f6b656e207472616e736665722060448201526b1dda1a5b19481c185d5cd95960a21b606482015260840161079a565b60405180610120016040528060006001600160a01b03168152602001600081526020016000815260200160008152602001600081526020016000815260200160008152602001600081526020016000151581525090565b60405180610120016040528060008152602001600081526020016000815260200160008152602001600081526020016000815260200160008152602001606081526020016000151581525090565b828054613b86906147a0565b90600052602060002090601f016020900481019282613ba85760008555613bee565b82601f10613bc157805160ff1916838001178555613bee565b82800160010185558215613bee579182015b82811115613bee578251825591602001919060010190613bd3565b50613bfa929150613bfe565b5090565b5b80821115613bfa5760008155600101613bff565b80356001600160a01b0381168114613c2a57600080fd5b919050565b60008083601f840112613c4157600080fd5b5081356001600160401b03811115613c5857600080fd5b602083019150836020828501011115613c7057600080fd5b9250929050565b60008060008060008060008060c0898b031215613c9357600080fd5b613c9c89613c13565b9750613caa60208a01613c13565b9650613cb860408a01613c13565b95506060890135945060808901356001600160401b0380821115613cdb57600080fd5b613ce78c838d01613c2f565b909650945060a08b0135915080821115613d0057600080fd5b50613d0d8b828c01613c2f565b999c989b5096995094979396929594505050565b60008060408385031215613d3457600080fd5b613d3d83613c13565b946020939093013593505050565b6001600160e01b03198116811461144e57600080fd5b600060208284031215613d7357600080fd5b8135610b8281613d4b565b600060208284031215613d9057600080fd5b5035919050565b60005b83811015613db2578181015183820152602001613d9a565b83811115610a615750506000910152565b60008151808452613ddb816020860160208601613d97565b601f01601f19169290920160200192915050565b602081526000610b826020830184613dc3565b80516001600160a01b031682526020808201519083015260408082015190830152606080820151908301526080808201519083015260a0818101519083015260c0808201519083015260e08082015190830152610100908101511515910152565b61012081016108c58284613e02565b634e487b7160e01b600052604160045260246000fd5b601f8201601f191681016001600160401b0381118282101715613ead57613ead613e72565b6040525050565b60006001600160401b03821115613ecd57613ecd613e72565b5060051b60200190565b600082601f830112613ee857600080fd5b81356020613ef582613eb4565b604051613f028282613e88565b83815260059390931b8501820192828101915086841115613f2257600080fd5b8286015b84811015613f3d5780358352918301918301613f26565b509695505050505050565b60006001600160401b03831115613f6157613f61613e72565b604051613f78601f8501601f191660200182613e88565b809150838152848484011115613f8d57600080fd5b83836020830137600060208583010152509392505050565b600082601f830112613fb657600080fd5b610b8283833560208501613f48565b60008060008060808587031215613fdb57600080fd5b613fe485613c13565b935060208501356001600160401b038082111561400057600080fd5b61400c88838901613ed7565b9450604087013591508082111561402257600080fd5b61402e88838901613ed7565b9350606087013591508082111561404457600080fd5b5061405187828801613fa5565b91505092959194509250565b60008060006060848603121561407257600080fd5b61407b84613c13565b95602085013595506040909401359392505050565b600080600080600060a086880312156140a857600080fd5b6140b186613c13565b94506140bf60208701613c13565b935060408601356001600160401b03808211156140db57600080fd5b6140e789838a01613ed7565b945060608801359150808211156140fd57600080fd5b61410989838a01613ed7565b9350608088013591508082111561411f57600080fd5b5061412c88828901613fa5565b9150509295509295909350565b6000806040838503121561414c57600080fd5b8235915061415c60208401613c13565b90509250929050565b6000806040838503121561417857600080fd5b82356001600160401b038082111561418f57600080fd5b818501915085601f8301126141a357600080fd5b813560206141b082613eb4565b6040516141bd8282613e88565b83815260059390931b85018201928281019150898411156141dd57600080fd5b948201945b83861015614202576141f386613c13565b825294820194908201906141e2565b9650508601359250508082111561421857600080fd5b5061422585828601613ed7565b9150509250929050565b600081518084526020808501945080840160005b8381101561425f57815187529582019590820190600101614243565b509495945050505050565b602081526000610b82602083018461422f565b60008083601f84011261428f57600080fd5b5081356001600160401b038111156142a657600080fd5b6020830191508360208260051b8501011115613c7057600080fd5b600080602083850312156142d457600080fd5b82356001600160401b038111156142ea57600080fd5b6142f68582860161427d565b90969095509350505050565b60008060008060006060868803121561431a57600080fd5b61432386613c13565b945060208601356001600160401b038082111561433f57600080fd5b61434b89838a0161427d565b9096509450604088013591508082111561436457600080fd5b506143718882890161427d565b969995985093965092949392505050565b6000806000806080858703121561439857600080fd5b6143a185613c13565b9350602085013592506040850135915060608501356001600160401b038111156143ca57600080fd5b61405187828801613fa5565b6000610120808401835185526020808501518187015260408501516040870152606085015160608701526080850151608087015260a085015160a087015260c085015160c087015260e08501518360e08801528293508051808452610140880194508282019350600091505b8082101561446b5783516001600160a01b03168552938201939282019260019190910190614442565b505050506101009283015115159390920192909252919050565b6000602080830181845280855180835260408601915060408160051b870101925083870160005b828110156144da57603f198886030184526144c88583516143d6565b945092850192908501906001016144ac565b5092979650505050505050565b600080604083850312156144fa57600080fd5b50508035926020909101359150565b6000806040838503121561451c57600080fd5b61452583613c13565b91506020830135801515811461453a57600080fd5b809150509250929050565b60008060006060848603121561455a57600080fd5b505081359360208301359350604090920135919050565b602081526000610b8260208301846143d6565b60006020828403121561459657600080fd5b610b8282613c13565b600080600080600080606087890312156145b857600080fd5b86356001600160401b03808211156145cf57600080fd5b6145db8a838b0161427d565b909850965060208901359150808211156145f457600080fd5b6146008a838b0161427d565b9096509450604089013591508082111561461957600080fd5b5061462689828a0161427d565b979a9699509497509295939492505050565b6020808252825182820181905260009190848201906040850190845b8181101561467b57614667838551613e02565b928401926101209290920191600101614654565b50909695505050505050565b60008060006060848603121561469c57600080fd5b6146a584613c13565b92506146b360208501613c13565b91506146c160408501613c13565b90509250925092565b600080604083850312156146dd57600080fd5b6146e683613c13565b915061415c60208401613c13565b600080600080600060a0868803121561470c57600080fd5b61471586613c13565b945061472360208701613c13565b9350604086013592506060860135915060808601356001600160401b0381111561474c57600080fd5b61412c88828901613fa5565b60006020828403121561476a57600080fd5b81356001600160401b0381111561478057600080fd5b8201601f8101841361479157600080fd5b61345184823560208401613f48565b600181811c908216806147b457607f821691505b6020821081036111b657634e487b7160e01b600052602260045260246000fd5b60208082526038908201527f455243313135355072657365744d696e7465725061757365723a206d7573742060408201527f68617665206d696e74657220726f6c6520746f206d696e740000000000000000606082015260800190565b634e487b7160e01b600052601160045260246000fd5b6000821982111561485a5761485a614831565b500190565b634e487b7160e01b600052603260045260246000fd5b60006001820161488757614887614831565b5060010190565b60008160001904831182151516156148a8576148a8614831565b500290565b6000826148ca57634e487b7160e01b600052601260045260246000fd5b500490565b6000828210156148e1576148e1614831565b500390565b60208082526010908201526f14185d5cd8589b194e881c185d5cd95960821b604082015260600190565b6020808252602e908201527f496e697469616c697a61626c653a20636f6e747261637420697320616c72656160408201526d191e481a5b9a5d1a585b1a5e995960921b606082015260800190565b60006020828403121561497057600080fd5b5051919050565b6040815260006149a360408301600c81526b66726f6d4163636f756e747360a01b602082015260400190565b828103602093840152600a81526972656d6f76616c49647360b01b928101929092525060400190565b6040815260006149f860408301600c81526b66726f6d4163636f756e747360a01b602082015260400190565b8281036020938401526007815266616d6f756e747360c81b928101929092525060400190565b60208082526021908201527f455243313135353a206d696e7420746f20746865207a65726f206164647265736040820152607360f81b606082015260800190565b60208082526028908201527f455243313135353a2069647320616e6420616d6f756e7473206c656e677468206040820152670dad2e6dac2e8c6d60c31b606082015260800190565b604081526000614aba604083018561422f565b8281036020840152614acc818561422f565b95945050505050565b7f416363657373436f6e74726f6c3a206163636f756e7420000000000000000000815260008351614b0d816017850160208801613d97565b7001034b99036b4b9b9b4b733903937b6329607d1b6017918401918201528351614b3e816028840160208801613d97565b01602801949350505050565b6001600160a01b03919091168152604060208201819052601590820152745343484544554c455f43524541544f525f524f4c4560581b606082015260800190565b6020808252602b908201527f496e697469616c697a61626c653a20636f6e7472616374206973206e6f74206960408201526a6e697469616c697a696e6760a81b606082015260800190565b6001600160a01b0386811682528516602082015260a060408201819052600090614c029083018661422f565b8281036060840152614c14818661422f565b90508281036080840152614c288185613dc3565b98975050505050505050565b600060208284031215614c4657600080fd5b8151610b8281613d4b565b600060033d1115614c6a5760046000803e5060005160e01c5b90565b600060443d1015614c7b5790565b6040516003193d81016004833e81513d6001600160401b038160248401118184111715614caa57505050505090565b8285019150815181811115614cc25750505050505090565b843d8701016020828501011115614cdc5750505050505090565b614ceb60208286010187613e88565b509095945050505050565b60208082526028908201527f455243313135353a204552433131353552656365697665722072656a656374656040820152676420746f6b656e7360c01b606082015260800190565b60208082526025908201527f455243313135353a207472616e7366657220746f20746865207a65726f206164604082015264647265737360d81b606082015260800190565b6020808252602a908201527f455243313135353a20696e73756666696369656e742062616c616e636520666f60408201526939103a3930b739b332b960b11b606082015260800190565b634e487b7160e01b600052603160045260246000fd5b600081614df257614df2614831565b506000190190565b6001600160a01b03868116825285166020820152604081018490526060810183905260a060808201819052600090614e3490830184613dc3565b979650505050505050565b600181815b80851115614e7a578160001904821115614e6057614e60614831565b80851615614e6d57918102915b93841c9390800290614e44565b509250929050565b600082614e91575060016108c5565b81614e9e575060006108c5565b8160018114614eb45760028114614ebe57614eda565b60019150506108c5565b60ff841115614ecf57614ecf614831565b50506001821b6108c5565b5060208310610133831016604e8410600b8410161715614efd575081810a6108c5565b614f078383614e3f565b8060001904821115614f1b57614f1b614831565b029392505050565b6000610b828383614e8256fe68747470733a2f2f6e6f72692e636f6d2f6170692f7265737472696374696f6e7363686564756c652f7b69647d2e6a736f6e696e7369646520455243313135357570677261646561626c65205f6d696e74206265666f7265206265666f7265546f6b656e5472616e7366657265d7a28e3265b37a6474929f336521b332c1681b933f6cb9f3376673440d862a9f2df0fed2c77648de5860a4cc508cd0818c85b8b8a1ab4ceeef8d981c8956a6b62aeb2ef35a3718e51a7e8b0b0d8e6fa690a4037bf45dad308976da469a861ca2646970667358221220cc7fd294dae51953f8b7a46e352eb26fa8c209845fabfa7672562f94522f197664736f6c634300080d0033",
  "linkReferences": {},
  "deployedLinkReferences": {}
}