{
  "_format": "hh-sol-artifact-1",
  "contractName": "RestrictedNORI",
  "sourceName": "contracts/RestrictedNORI.sol",
  "abi": [
    {
      "inputs": [],
      "stateMutability": "nonpayable",
      "type": "constructor"
    },
    {
      "inputs": [
        {
          "internalType": "string",
          "name": "array1Name",
          "type": "string"
        },
        {
          "internalType": "string",
          "name": "array2Name",
          "type": "string"
        }
      ],
      "name": "ArrayLengthMismatch",
      "type": "error"
    },
    {
      "inputs": [
        {
          "internalType": "address",
          "name": "account",
          "type": "address"
        },
        {
          "internalType": "uint256",
          "name": "scheduleId",
          "type": "uint256"
        }
      ],
      "name": "InsufficientClaimableBalance",
      "type": "error"
    },
    {
      "inputs": [
        {
          "internalType": "uint256",
          "name": "scheduleId",
          "type": "uint256"
        }
      ],
      "name": "InsufficientUnreleasedTokens",
      "type": "error"
    },
    {
      "inputs": [
        {
          "internalType": "address",
          "name": "account",
          "type": "address"
        }
      ],
      "name": "InvalidMinter",
      "type": "error"
    },
    {
      "inputs": [],
      "name": "InvalidZeroDuration",
      "type": "error"
    },
    {
      "inputs": [
        {
          "internalType": "uint256",
          "name": "scheduleId",
          "type": "uint256"
        }
      ],
      "name": "NonexistentSchedule",
      "type": "error"
    },
    {
      "inputs": [],
      "name": "RecipientCannotBeZeroAddress",
      "type": "error"
    },
    {
      "inputs": [],
      "name": "TokenSenderNotBPNORI",
      "type": "error"
    },
    {
      "anonymous": false,
      "inputs": [
        {
          "indexed": true,
          "internalType": "address",
          "name": "account",
          "type": "address"
        },
        {
          "indexed": true,
          "internalType": "address",
          "name": "operator",
          "type": "address"
        },
        {
          "indexed": false,
          "internalType": "bool",
          "name": "approved",
          "type": "bool"
        }
      ],
      "name": "ApprovalForAll",
      "type": "event"
    },
    {
      "anonymous": false,
      "inputs": [
        {
          "indexed": false,
          "internalType": "uint8",
          "name": "version",
          "type": "uint8"
        }
      ],
      "name": "Initialized",
      "type": "event"
    },
    {
      "anonymous": false,
      "inputs": [
        {
          "indexed": false,
          "internalType": "address",
          "name": "account",
          "type": "address"
        }
      ],
      "name": "Paused",
      "type": "event"
    },
    {
      "anonymous": false,
      "inputs": [
        {
          "indexed": true,
          "internalType": "bytes32",
          "name": "role",
          "type": "bytes32"
        },
        {
          "indexed": true,
          "internalType": "bytes32",
          "name": "previousAdminRole",
          "type": "bytes32"
        },
        {
          "indexed": true,
          "internalType": "bytes32",
          "name": "newAdminRole",
          "type": "bytes32"
        }
      ],
      "name": "RoleAdminChanged",
      "type": "event"
    },
    {
      "anonymous": false,
      "inputs": [
        {
          "indexed": true,
          "internalType": "bytes32",
          "name": "role",
          "type": "bytes32"
        },
        {
          "indexed": true,
          "internalType": "address",
          "name": "account",
          "type": "address"
        },
        {
          "indexed": true,
          "internalType": "address",
          "name": "sender",
          "type": "address"
        }
      ],
      "name": "RoleGranted",
      "type": "event"
    },
    {
      "anonymous": false,
      "inputs": [
        {
          "indexed": true,
          "internalType": "bytes32",
          "name": "role",
          "type": "bytes32"
        },
        {
          "indexed": true,
          "internalType": "address",
          "name": "account",
          "type": "address"
        },
        {
          "indexed": true,
          "internalType": "address",
          "name": "sender",
          "type": "address"
        }
      ],
      "name": "RoleRevoked",
      "type": "event"
    },
    {
      "anonymous": false,
      "inputs": [
        {
          "indexed": true,
          "internalType": "uint256",
          "name": "projectId",
          "type": "uint256"
        },
        {
          "indexed": false,
          "internalType": "uint256",
          "name": "startTime",
          "type": "uint256"
        },
        {
          "indexed": false,
          "internalType": "uint256",
          "name": "endTime",
          "type": "uint256"
        }
      ],
      "name": "ScheduleCreated",
      "type": "event"
    },
    {
      "anonymous": false,
      "inputs": [
        {
          "indexed": true,
          "internalType": "address",
          "name": "from",
          "type": "address"
        },
        {
          "indexed": true,
          "internalType": "address",
          "name": "to",
          "type": "address"
        },
        {
          "indexed": true,
          "internalType": "uint256",
          "name": "scheduleId",
          "type": "uint256"
        },
        {
          "indexed": false,
          "internalType": "uint256",
          "name": "quantity",
          "type": "uint256"
        }
      ],
      "name": "TokensClaimed",
      "type": "event"
    },
    {
      "anonymous": false,
      "inputs": [
        {
          "indexed": true,
          "internalType": "uint256",
          "name": "atTime",
          "type": "uint256"
        },
        {
          "indexed": true,
          "internalType": "uint256",
          "name": "removalId",
          "type": "uint256"
        },
        {
          "indexed": true,
          "internalType": "uint256",
          "name": "scheduleId",
          "type": "uint256"
        },
        {
          "indexed": false,
          "internalType": "uint256",
          "name": "quantity",
          "type": "uint256"
        }
      ],
      "name": "TokensRevoked",
      "type": "event"
    },
    {
      "anonymous": false,
      "inputs": [
        {
          "indexed": true,
          "internalType": "address",
          "name": "operator",
          "type": "address"
        },
        {
          "indexed": true,
          "internalType": "address",
          "name": "from",
          "type": "address"
        },
        {
          "indexed": true,
          "internalType": "address",
          "name": "to",
          "type": "address"
        },
        {
          "indexed": false,
          "internalType": "uint256[]",
          "name": "ids",
          "type": "uint256[]"
        },
        {
          "indexed": false,
          "internalType": "uint256[]",
          "name": "values",
          "type": "uint256[]"
        }
      ],
      "name": "TransferBatch",
      "type": "event"
    },
    {
      "anonymous": false,
      "inputs": [
        {
          "indexed": true,
          "internalType": "address",
          "name": "operator",
          "type": "address"
        },
        {
          "indexed": true,
          "internalType": "address",
          "name": "from",
          "type": "address"
        },
        {
          "indexed": true,
          "internalType": "address",
          "name": "to",
          "type": "address"
        },
        {
          "indexed": false,
          "internalType": "uint256",
          "name": "id",
          "type": "uint256"
        },
        {
          "indexed": false,
          "internalType": "uint256",
          "name": "value",
          "type": "uint256"
        }
      ],
      "name": "TransferSingle",
      "type": "event"
    },
    {
      "anonymous": false,
      "inputs": [
        {
          "indexed": false,
          "internalType": "string",
          "name": "value",
          "type": "string"
        },
        {
          "indexed": true,
          "internalType": "uint256",
          "name": "id",
          "type": "uint256"
        }
      ],
      "name": "URI",
      "type": "event"
    },
    {
      "anonymous": false,
      "inputs": [
        {
          "indexed": false,
          "internalType": "address",
          "name": "account",
          "type": "address"
        }
      ],
      "name": "Unpaused",
      "type": "event"
    },
    {
      "inputs": [],
      "name": "DEFAULT_ADMIN_ROLE",
      "outputs": [
        {
          "internalType": "bytes32",
          "name": "",
          "type": "bytes32"
        }
      ],
      "stateMutability": "view",
      "type": "function"
    },
    {
      "inputs": [],
      "name": "MINTER_ROLE",
      "outputs": [
        {
          "internalType": "bytes32",
          "name": "",
          "type": "bytes32"
        }
      ],
      "stateMutability": "view",
      "type": "function"
    },
    {
      "inputs": [],
      "name": "PAUSER_ROLE",
      "outputs": [
        {
          "internalType": "bytes32",
          "name": "",
          "type": "bytes32"
        }
      ],
      "stateMutability": "view",
      "type": "function"
    },
    {
      "inputs": [],
      "name": "SCHEDULE_CREATOR_ROLE",
      "outputs": [
        {
          "internalType": "bytes32",
          "name": "",
          "type": "bytes32"
        }
      ],
      "stateMutability": "view",
      "type": "function"
    },
    {
      "inputs": [],
      "name": "TOKEN_REVOKER_ROLE",
      "outputs": [
        {
          "internalType": "bytes32",
          "name": "",
          "type": "bytes32"
        }
      ],
      "stateMutability": "view",
      "type": "function"
    },
    {
      "inputs": [
        {
          "internalType": "address",
          "name": "account",
          "type": "address"
        },
        {
          "internalType": "uint256",
          "name": "id",
          "type": "uint256"
        }
      ],
      "name": "balanceOf",
      "outputs": [
        {
          "internalType": "uint256",
          "name": "",
          "type": "uint256"
        }
      ],
      "stateMutability": "view",
      "type": "function"
    },
    {
      "inputs": [
        {
          "internalType": "address[]",
          "name": "accounts",
          "type": "address[]"
        },
        {
          "internalType": "uint256[]",
          "name": "ids",
          "type": "uint256[]"
        }
      ],
      "name": "balanceOfBatch",
      "outputs": [
        {
          "internalType": "uint256[]",
          "name": "",
          "type": "uint256[]"
        }
      ],
      "stateMutability": "view",
      "type": "function"
    },
    {
      "inputs": [
        {
          "internalType": "address",
          "name": "account",
          "type": "address"
        },
        {
          "internalType": "uint256[]",
          "name": "scheduleIds",
          "type": "uint256[]"
        }
      ],
      "name": "batchGetScheduleDetailsForAccount",
      "outputs": [
        {
          "components": [
            {
              "internalType": "address",
              "name": "tokenHolder",
              "type": "address"
            },
            {
              "internalType": "uint256",
              "name": "scheduleTokenId",
              "type": "uint256"
            },
            {
              "internalType": "uint256",
              "name": "balance",
              "type": "uint256"
            },
            {
              "internalType": "uint256",
              "name": "claimableAmount",
              "type": "uint256"
            },
            {
              "internalType": "uint256",
              "name": "claimedAmount",
              "type": "uint256"
            },
            {
              "internalType": "uint256",
              "name": "quantityRevoked",
              "type": "uint256"
            }
          ],
          "internalType": "struct RestrictedNORI.ScheduleDetailForAddress[]",
          "name": "",
          "type": "tuple[]"
        }
      ],
      "stateMutability": "view",
      "type": "function"
    },
    {
      "inputs": [
        {
          "internalType": "uint256[]",
          "name": "scheduleIds",
          "type": "uint256[]"
        }
      ],
      "name": "batchGetScheduleSummaries",
      "outputs": [
        {
          "components": [
            {
              "internalType": "uint256",
              "name": "scheduleTokenId",
              "type": "uint256"
            },
            {
              "internalType": "uint256",
              "name": "startTime",
              "type": "uint256"
            },
            {
              "internalType": "uint256",
              "name": "endTime",
              "type": "uint256"
            },
            {
              "internalType": "uint256",
              "name": "totalSupply",
              "type": "uint256"
            },
            {
              "internalType": "uint256",
              "name": "totalClaimableAmount",
              "type": "uint256"
            },
            {
              "internalType": "uint256",
              "name": "totalClaimedAmount",
              "type": "uint256"
            },
            {
              "internalType": "uint256",
              "name": "totalQuantityRevoked",
              "type": "uint256"
            },
            {
              "internalType": "address[]",
              "name": "tokenHolders",
              "type": "address[]"
            },
            {
              "internalType": "bool",
              "name": "exists",
              "type": "bool"
            }
          ],
          "internalType": "struct RestrictedNORI.ScheduleSummary[]",
          "name": "",
          "type": "tuple[]"
        }
      ],
      "stateMutability": "view",
      "type": "function"
    },
    {
      "inputs": [
        {
          "internalType": "address[]",
          "name": "toAccounts",
          "type": "address[]"
        },
        {
          "internalType": "uint256[]",
          "name": "removalIds",
          "type": "uint256[]"
        },
        {
          "internalType": "uint256[]",
          "name": "amounts",
          "type": "uint256[]"
        }
      ],
      "name": "batchRevokeUnreleasedTokenAmounts",
      "outputs": [],
      "stateMutability": "nonpayable",
      "type": "function"
    },
    {
      "inputs": [
        {
          "internalType": "uint256",
          "name": "scheduleId",
          "type": "uint256"
        }
      ],
      "name": "claimableBalanceForSchedule",
      "outputs": [
        {
          "internalType": "uint256",
          "name": "",
          "type": "uint256"
        }
      ],
      "stateMutability": "view",
      "type": "function"
    },
    {
      "inputs": [
        {
          "internalType": "uint256",
          "name": "scheduleId",
          "type": "uint256"
        },
        {
          "internalType": "address",
          "name": "account",
          "type": "address"
        }
      ],
      "name": "claimableBalanceForScheduleForAccount",
      "outputs": [
        {
          "internalType": "uint256",
          "name": "",
          "type": "uint256"
        }
      ],
      "stateMutability": "view",
      "type": "function"
    },
    {
      "inputs": [
        {
          "internalType": "uint256",
          "name": "projectId",
          "type": "uint256"
        }
      ],
      "name": "createSchedule",
      "outputs": [],
      "stateMutability": "nonpayable",
      "type": "function"
    },
    {
      "inputs": [
        {
          "internalType": "uint256",
          "name": "id",
          "type": "uint256"
        }
      ],
      "name": "exists",
      "outputs": [
        {
          "internalType": "bool",
          "name": "",
          "type": "bool"
        }
      ],
      "stateMutability": "view",
      "type": "function"
    },
    {
      "inputs": [],
      "name": "getAllScheduleIds",
      "outputs": [
        {
          "internalType": "uint256[]",
          "name": "",
          "type": "uint256[]"
        }
      ],
      "stateMutability": "view",
      "type": "function"
    },
    {
      "inputs": [
        {
          "internalType": "uint256",
          "name": "methodology",
          "type": "uint256"
        },
        {
          "internalType": "uint256",
          "name": "methodologyVersion",
          "type": "uint256"
        }
      ],
      "name": "getRestrictionDurationForMethodologyAndVersion",
      "outputs": [
        {
          "internalType": "uint256",
          "name": "",
          "type": "uint256"
        }
      ],
      "stateMutability": "view",
      "type": "function"
    },
    {
      "inputs": [
        {
          "internalType": "bytes32",
          "name": "role",
          "type": "bytes32"
        }
      ],
      "name": "getRoleAdmin",
      "outputs": [
        {
          "internalType": "bytes32",
          "name": "",
          "type": "bytes32"
        }
      ],
      "stateMutability": "view",
      "type": "function"
    },
    {
      "inputs": [
        {
          "internalType": "bytes32",
          "name": "role",
          "type": "bytes32"
        },
        {
          "internalType": "uint256",
          "name": "index",
          "type": "uint256"
        }
      ],
      "name": "getRoleMember",
      "outputs": [
        {
          "internalType": "address",
          "name": "",
          "type": "address"
        }
      ],
      "stateMutability": "view",
      "type": "function"
    },
    {
      "inputs": [
        {
          "internalType": "bytes32",
          "name": "role",
          "type": "bytes32"
        }
      ],
      "name": "getRoleMemberCount",
      "outputs": [
        {
          "internalType": "uint256",
          "name": "",
          "type": "uint256"
        }
      ],
      "stateMutability": "view",
      "type": "function"
    },
    {
      "inputs": [
        {
          "internalType": "address",
          "name": "account",
          "type": "address"
        },
        {
          "internalType": "uint256",
          "name": "scheduleId",
          "type": "uint256"
        }
      ],
      "name": "getScheduleDetailForAccount",
      "outputs": [
        {
          "components": [
            {
              "internalType": "address",
              "name": "tokenHolder",
              "type": "address"
            },
            {
              "internalType": "uint256",
              "name": "scheduleTokenId",
              "type": "uint256"
            },
            {
              "internalType": "uint256",
              "name": "balance",
              "type": "uint256"
            },
            {
              "internalType": "uint256",
              "name": "claimableAmount",
              "type": "uint256"
            },
            {
              "internalType": "uint256",
              "name": "claimedAmount",
              "type": "uint256"
            },
            {
              "internalType": "uint256",
              "name": "quantityRevoked",
              "type": "uint256"
            }
          ],
          "internalType": "struct RestrictedNORI.ScheduleDetailForAddress",
          "name": "",
          "type": "tuple"
        }
      ],
      "stateMutability": "view",
      "type": "function"
    },
    {
      "inputs": [
        {
          "internalType": "uint256",
          "name": "scheduleId",
          "type": "uint256"
        }
      ],
      "name": "getScheduleSummary",
      "outputs": [
        {
          "components": [
            {
              "internalType": "uint256",
              "name": "scheduleTokenId",
              "type": "uint256"
            },
            {
              "internalType": "uint256",
              "name": "startTime",
              "type": "uint256"
            },
            {
              "internalType": "uint256",
              "name": "endTime",
              "type": "uint256"
            },
            {
              "internalType": "uint256",
              "name": "totalSupply",
              "type": "uint256"
            },
            {
              "internalType": "uint256",
              "name": "totalClaimableAmount",
              "type": "uint256"
            },
            {
              "internalType": "uint256",
              "name": "totalClaimedAmount",
              "type": "uint256"
            },
            {
              "internalType": "uint256",
              "name": "totalQuantityRevoked",
              "type": "uint256"
            },
            {
              "internalType": "address[]",
              "name": "tokenHolders",
              "type": "address[]"
            },
            {
              "internalType": "bool",
              "name": "exists",
              "type": "bool"
            }
          ],
          "internalType": "struct RestrictedNORI.ScheduleSummary",
          "name": "",
          "type": "tuple"
        }
      ],
      "stateMutability": "view",
      "type": "function"
    },
    {
      "inputs": [
        {
          "internalType": "bytes32",
          "name": "role",
          "type": "bytes32"
        },
        {
          "internalType": "address",
          "name": "account",
          "type": "address"
        }
      ],
      "name": "grantRole",
      "outputs": [],
      "stateMutability": "nonpayable",
      "type": "function"
    },
    {
      "inputs": [
        {
          "internalType": "bytes32",
          "name": "role",
          "type": "bytes32"
        },
        {
          "internalType": "address",
          "name": "account",
          "type": "address"
        }
      ],
      "name": "hasRole",
      "outputs": [
        {
          "internalType": "bool",
          "name": "",
          "type": "bool"
        }
      ],
      "stateMutability": "view",
      "type": "function"
    },
    {
      "inputs": [],
      "name": "initialize",
      "outputs": [],
      "stateMutability": "nonpayable",
      "type": "function"
    },
    {
      "inputs": [
        {
          "internalType": "address",
          "name": "account",
          "type": "address"
        },
        {
          "internalType": "address",
          "name": "operator",
          "type": "address"
        }
      ],
      "name": "isApprovedForAll",
      "outputs": [
        {
          "internalType": "bool",
          "name": "",
          "type": "bool"
        }
      ],
      "stateMutability": "view",
      "type": "function"
    },
    {
      "inputs": [
        {
          "internalType": "uint256",
          "name": "amount",
          "type": "uint256"
        },
        {
          "internalType": "uint256",
          "name": "removalId",
          "type": "uint256"
        }
      ],
      "name": "mint",
      "outputs": [],
      "stateMutability": "nonpayable",
      "type": "function"
    },
    {
      "inputs": [],
      "name": "pause",
      "outputs": [],
      "stateMutability": "nonpayable",
      "type": "function"
    },
    {
      "inputs": [],
      "name": "paused",
      "outputs": [
        {
          "internalType": "bool",
          "name": "",
          "type": "bool"
        }
      ],
      "stateMutability": "view",
      "type": "function"
    },
    {
      "inputs": [
        {
          "internalType": "address",
          "name": "bridgedPolygonNoriAddress",
          "type": "address"
        },
        {
          "internalType": "address",
          "name": "removalAddress",
          "type": "address"
        }
      ],
      "name": "registerContractAddresses",
      "outputs": [],
      "stateMutability": "nonpayable",
      "type": "function"
    },
    {
      "inputs": [
        {
          "internalType": "bytes32",
          "name": "role",
          "type": "bytes32"
        },
        {
          "internalType": "address",
          "name": "account",
          "type": "address"
        }
      ],
      "name": "renounceRole",
      "outputs": [],
      "stateMutability": "nonpayable",
      "type": "function"
    },
    {
      "inputs": [
        {
          "internalType": "uint256",
          "name": "scheduleId",
          "type": "uint256"
        }
      ],
      "name": "revocableQuantityForSchedule",
      "outputs": [
        {
          "internalType": "uint256",
          "name": "",
          "type": "uint256"
        }
      ],
      "stateMutability": "view",
      "type": "function"
    },
    {
      "inputs": [
        {
          "internalType": "bytes32",
          "name": "role",
          "type": "bytes32"
        },
        {
          "internalType": "address",
          "name": "account",
          "type": "address"
        }
      ],
      "name": "revokeRole",
      "outputs": [],
      "stateMutability": "nonpayable",
      "type": "function"
    },
    {
      "inputs": [
        {
          "internalType": "address",
          "name": "from",
          "type": "address"
        },
        {
          "internalType": "address",
          "name": "to",
          "type": "address"
        },
        {
          "internalType": "uint256[]",
          "name": "ids",
          "type": "uint256[]"
        },
        {
          "internalType": "uint256[]",
          "name": "amounts",
          "type": "uint256[]"
        },
        {
          "internalType": "bytes",
          "name": "data",
          "type": "bytes"
        }
      ],
      "name": "safeBatchTransferFrom",
      "outputs": [],
      "stateMutability": "nonpayable",
      "type": "function"
    },
    {
      "inputs": [
        {
          "internalType": "address",
          "name": "from",
          "type": "address"
        },
        {
          "internalType": "address",
          "name": "to",
          "type": "address"
        },
        {
          "internalType": "uint256",
          "name": "id",
          "type": "uint256"
        },
        {
          "internalType": "uint256",
          "name": "amount",
          "type": "uint256"
        },
        {
          "internalType": "bytes",
          "name": "data",
          "type": "bytes"
        }
      ],
      "name": "safeTransferFrom",
      "outputs": [],
      "stateMutability": "nonpayable",
      "type": "function"
    },
    {
      "inputs": [
        {
          "internalType": "address",
          "name": "operator",
          "type": "address"
        },
        {
          "internalType": "bool",
          "name": "approved",
          "type": "bool"
        }
      ],
      "name": "setApprovalForAll",
      "outputs": [],
      "stateMutability": "nonpayable",
      "type": "function"
    },
    {
      "inputs": [
        {
          "internalType": "uint256",
          "name": "methodology",
          "type": "uint256"
        },
        {
          "internalType": "uint256",
          "name": "methodologyVersion",
          "type": "uint256"
        },
        {
          "internalType": "uint256",
          "name": "durationInSeconds",
          "type": "uint256"
        }
      ],
      "name": "setRestrictionDurationForMethodologyAndVersion",
      "outputs": [],
      "stateMutability": "nonpayable",
      "type": "function"
    },
    {
      "inputs": [
        {
          "internalType": "bytes4",
          "name": "interfaceId",
          "type": "bytes4"
        }
      ],
      "name": "supportsInterface",
      "outputs": [
        {
          "internalType": "bool",
          "name": "",
          "type": "bool"
        }
      ],
      "stateMutability": "view",
      "type": "function"
    },
    {
      "inputs": [
        {
          "internalType": "uint256",
          "name": "id",
          "type": "uint256"
        }
      ],
      "name": "totalSupply",
      "outputs": [
        {
          "internalType": "uint256",
          "name": "",
          "type": "uint256"
        }
      ],
      "stateMutability": "view",
      "type": "function"
    },
    {
      "inputs": [],
      "name": "unpause",
      "outputs": [],
      "stateMutability": "nonpayable",
      "type": "function"
    },
    {
      "inputs": [
        {
          "internalType": "uint256",
          "name": "",
          "type": "uint256"
        }
      ],
      "name": "uri",
      "outputs": [
        {
          "internalType": "string",
          "name": "",
          "type": "string"
        }
      ],
      "stateMutability": "view",
      "type": "function"
    },
    {
      "inputs": [
        {
          "internalType": "address",
          "name": "recipient",
          "type": "address"
        },
        {
          "internalType": "uint256",
          "name": "scheduleId",
          "type": "uint256"
        },
        {
          "internalType": "uint256",
          "name": "amount",
          "type": "uint256"
        }
      ],
      "name": "withdrawFromSchedule",
      "outputs": [
        {
          "internalType": "bool",
          "name": "",
          "type": "bool"
        }
      ],
      "stateMutability": "nonpayable",
      "type": "function"
    }
  ],
  "bytecode": "0x60806040523480156200001157600080fd5b50620000467f40b07b13585997aad8d63e2beb5aa949117bc9fd9eb22d80ba5250f23b45947c60001b620000c460201b60201c565b6200007a7f5518b0a625fc38d17bf0c44c8c4b0c68183f09e760dd099930a493ce1ee1292660001b620000c460201b60201c565b620000ae7fbcc56694742cac9db80e8b4df29784ed081a5ded94ff8b57ae1b95c99cd4362d60001b620000c460201b60201c565b620000be620000c760201b60201c565b62000206565b50565b600060019054906101000a900460ff16156200011a576040517f08c379a000000000000000000000000000000000000000000000000000000000815260040162000111906200018e565b60405180910390fd5b60ff801660008054906101000a900460ff1660ff1610156200018c5760ff6000806101000a81548160ff021916908360ff1602179055507f7f26b83ff96e1f2b6a682f133852f6798a09c465da95921460cefb384740249860ff604051620001839190620001f2565b60405180910390a15b565b60208152602760208201527f496e697469616c697a61626c653a20636f6e747261637420697320696e69746960408201527f616c697a696e670000000000000000000000000000000000000000000000000060608201526000608082019050919050565b600060208201905060ff8316825292915050565b61ac9680620002166000396000f3fe608060405234801561001057600080fd5b50600436106102525760003560e01c80636a00f9eb11610146578063b8b4dbe0116100c3578063d547741f11610087578063d547741f1461077d578063e01d739314610799578063e63ab1e9146107b5578063e985e9c5146107d3578063f242432a14610803578063f6f57a2e1461081f57610252565b8063b8b4dbe0146106c5578063bd85b039146106e3578063c1499fa814610713578063ca15c8731461072f578063d53913931461075f57610252565b806391d148541161010a57806391d148541461060f57806393ae796d1461063f5780639ac7b44d1461065b578063a217fddf1461068b578063a22cb465146106a957610252565b80636a00f9eb1461056b578063713279b11461059b5780638129fc1c146105cb5780638456cb59146105d55780639010d07c146105df57610252565b80632f2ff15d116101d45780635c975abb116101985780635c975abb1461049f5780635d37165a146104bd5780636235a4e9146104ed578063633433461461051d578063639aa0ad1461053b57610252565b80632f2ff15d146103fd57806336568abe146104195780633f4ba83a146104355780634e1273f41461043f5780634f558e791461046f57610252565b8063248a9ca31161021b578063248a9ca31461032157806327ca0c27146103515780632d9f0f16146103815780632e5e8d83146103b15780632eb2c2d6146103e157610252565b8062fdd58e1461025757806301ffc9a7146102875780630e89341c146102b75780631b2ef1ca146102e7578063229afd6114610303575b600080fd5b610271600480360381019061026c919061931b565b61083b565b60405161027e919061934b565b60405180910390f35b6102a1600480360381019061029c9190619374565b610904565b6040516102ae91906193a4565b60405180910390f35b6102d160048036038101906102cc91906193b7565b61099a565b6040516102de9190619434565b60405180910390f35b61030160048036038101906102fc919061944f565b610a2e565b005b61030b61109e565b6040516103189190619474565b60405180910390f35b61033b60048036038101906103369190619485565b6110c2565b6040516103489190619474565b60405180910390f35b61036b600480360381019061036691906194a1565b6110e3565b60405161037891906193a4565b60405180910390f35b61039b60048036038101906103969190619527565b611538565b6040516103a89190619626565b60405180910390f35b6103cb60048036038101906103c691906193b7565b61178d565b6040516103d8919061968f565b60405180910390f35b6103fb60048036038101906103f69190619809565b611c6e565b005b610417600480360381019061041291906198bb565b6120a0565b005b610433600480360381019061042e91906198bb565b6120c1565b005b61043d612144565b005b610459600480360381019061045491906198eb565b6121fd565b6040516104669190619a05565b60405180910390f35b610489600480360381019061048491906193b7565b612316565b60405161049691906193a4565b60405180910390f35b6104a761232a565b6040516104b491906193a4565b60405180910390f35b6104d760048036038101906104d29190619a20565b612341565b6040516104e4919061934b565b60405180910390f35b610507600480360381019061050291906193b7565b61282f565b604051610514919061934b565b60405180910390f35b610525612a79565b6040516105329190619a05565b60405180910390f35b6105556004803603810190610550919061931b565b612cb9565b6040516105629190619a92565b60405180910390f35b61058560048036038101906105809190619aaa565b612e95565b6040516105929190619afc565b60405180910390f35b6105b560048036038101906105b091906193b7565b6131e2565b6040516105c2919061934b565b60405180910390f35b6105d3613435565b005b6105dd613ac0565b005b6105f960048036038101906105f49190619b51565b613b79565b6040516106069190619b76565b60405180910390f35b610629600480360381019061062491906198bb565b613ba9565b60405161063691906193a4565b60405180910390f35b61065960048036038101906106549190619b8f565b613c15565b005b6106756004803603810190610670919061944f565b613d87565b604051610682919061934b565b60405180910390f35b610693613e3b565b6040516106a09190619474565b60405180910390f35b6106c360048036038101906106be9190619bdb565b613e42565b005b6106cd613e58565b6040516106da9190619474565b60405180910390f35b6106fd60048036038101906106f891906193b7565b613e7c565b60405161070a919061934b565b60405180910390f35b61072d60048036038101906107289190619c16565b613e99565b005b61074960048036038101906107449190619485565b614078565b604051610756919061934b565b60405180910390f35b61076761409d565b6040516107749190619474565b60405180910390f35b610797600480360381019061079291906198bb565b6140c1565b005b6107b360048036038101906107ae9190619c44565b6140e2565b005b6107bd6144c7565b6040516107ca9190619474565b60405180910390f35b6107ed60048036038101906107e89190619b8f565b6144eb565b6040516107fa91906193a4565b60405180910390f35b61081d60048036038101906108189190619ce8565b61457f565b005b610839600480360381019061083491906193b7565b6148eb565b005b60008073ffffffffffffffffffffffffffffffffffffffff168373ffffffffffffffffffffffffffffffffffffffff16036108ab576040517f08c379a00000000000000000000000000000000000000000000000000000000081526004016108a290619d62565b60405180910390fd5b6065600083815260200190815260200160002060008473ffffffffffffffffffffffffffffffffffffffff1673ffffffffffffffffffffffffffffffffffffffff16815260200190815260200160002054905092915050565b60006109327ff94cd5966e48db4e77e0b78c3af141be1e734454c609c1a4c084719d4e0db8b560001b614a8d565b61095e7f12dc872fab6a7ea1c8ba40c40490711a81fe86f4ffb95041ad6dc00f1b366f3c60001b614a8d565b61098a7f877b14ca1f906ef06a7363a1b72580770253d83bf426ec449312ca310ffecb4560001b614a8d565b61099382614a90565b9050919050565b6060606780546109a990619dc6565b80601f01602080910402602001604051908101604052809291908181526020018280546109d590619dc6565b8015610a225780601f106109f757610100808354040283529160200191610a22565b820191906000526020600020905b815481529060010190602001808311610a0557829003601f168201915b50505050509050919050565b610a5a7f0136d5e0ee61e95fc7f0cc4c46ddf7776ef7ca845dc82fec9d6961f272a8a7d960001b614a8d565b610a867fd7e8a0dbdc7fc54fa913fc5fe7dbc1cff6c288b058f682bf2808c2dbd0de2ec860001b614a8d565b610ab27f219679118898637f95efd3b751cd82dd0e0985e28d713a0ce222645a1f26473460001b614a8d565b610ae37f9f2df0fed2c77648de5860a4cc508cd0818c85b8b8a1ab4ceeef8d981c8956a6610ade614b0a565b613ba9565b610b8357610b137ff9d2aaec6942f9a8360b1b73f99caa1f6f9aa7e0f697cb2bd3ded272088c806860001b614a8d565b610b3f7f1432150fb747cdcf6f108a82015ad9056d043ad6de9319a6c7f8d68c0777746860001b614a8d565b610b47614b0a565b6040517ff78d2300000000000000000000000000000000000000000000000000000000008152600401610b7a9190619b76565b60405180910390fd5b610baf7f54d257044f03ae79e613168ca47e4e6928f08246cb50e3d7099fe0e7be00d53360001b614a8d565b610bdb7f05f74cf9b90e989180750736476864ae005e720a197ec5d6cda0f6d70a9daff160001b614a8d565b610c077f087513ce1a83506f34918587b04c2c85548ad6f357be145811d7653f2ba3d15f60001b614a8d565b600061019660009054906101000a900473ffffffffffffffffffffffffffffffffffffffff1673ffffffffffffffffffffffffffffffffffffffff1663e0fc2938836040518263ffffffff1660e01b8152600401610c65919061934b565b602060405180830381865afa158015610c82573d6000803e3d6000fd5b505050506040513d601f19601f82011682018060405250810190610ca69190619e04565b9050610cd47f050b63d336c705d580cb1aab48fbb0bcd877bae55aaf1d48e5655aa441b4bf6d60001b614a8d565b610d007fcb08096175effda904d2f3a3f94d7d62e53512895de3138de78991f01baa3b4f60001b614a8d565b600061019660009054906101000a900473ffffffffffffffffffffffffffffffffffffffff1673ffffffffffffffffffffffffffffffffffffffff166399d5121b836040518263ffffffff1660e01b8152600401610d5e919061934b565b608060405180830381865afa158015610d7b573d6000803e3d6000fd5b505050506040513d601f19601f82011682018060405250810190610d9f9190619e20565b9050610dcd7fe6a01adc6ae19efac9e99bc1945ba3737d10cd7c857c39723b75695df7eaa16660001b614a8d565b610df97fa2e7a8cb02b925f942eb7f99ec7c24dbd6a17620333c0b759906ceadce3f646b60001b614a8d565b600081602001519050610e2e7ffa3f2430d3cc6ebd94999e8bcb786f8ee109e8a83299346eb82edd66d2c6aede60001b614a8d565b610e5a7f56e586bc9490d8c49d963b500fc32eae8eeda70c0d621526f98713b406bda71360001b614a8d565b610192600084815260200190815260200160002060030160009054906101000a900460ff16610f1857610eaf7fb73d361af931c73c891bb0c8a7a8e56d0722e2726d274f22172f6a97fe4556ea60001b614a8d565b610edb7f6131671a20cb57ac56fa3d613f2d5e111d3c05823295d9cbe013f8b301609ac160001b614a8d565b826040517f25f87817000000000000000000000000000000000000000000000000000000008152600401610f0f919061934b565b60405180910390fd5b610f447f9819d160cf7178451a2af5a45aa3995ca6c4fda0baeafe48b40cac1e25959bd960001b614a8d565b610f707f170e23516add2d9efa51afef90d093622559641a4898fd7097b50fcefea33b5d60001b614a8d565b610f9c7f412f0fd83ffc7c1c8d6201be324dc53ec8b69129c4913dc6b70d70621b7dfd7460001b614a8d565b610fb781848760405180602001604052806000815250614b12565b610fe37f87c8a4ba423b2ce50a32f1806d19323a41d115417f86e583856cb127a9dfa86e60001b614a8d565b61100f7f5e075d0a2fdda6fb5e5f9a8093b4876a31e34f3f61da3d8178675b292b9cde6860001b614a8d565b6000610192600085815260200190815260200160002090506110537fd0aa407f5ae69678a35f485dc2be8f02fd3aa392b94dea07dc416315e896b28760001b614a8d565b61107f7ffb83c89d78e72839f6497d5cb86f4836f8207f60906753c72ffa589722d8e3de60001b614a8d565b6110958282600601614cc390919063ffffffff16565b50505050505050565b7fb62aeb2ef35a3718e51a7e8b0b0d8e6fa690a4037bf45dad308976da469a861c81565b600061012d6000838152602001908152602001600020600101549050919050565b60006111117fca83c3c11306fb45d355f6319108aac6fc2e4ac8d52385af06df7287bbe663ed60001b614a8d565b61113d7fd017cda44a5a186292604bfe2a1e9c2ae47657af4a2c42958ccac50327dc941660001b614a8d565b6111697f4a791ae97553868d8866988625db247241b2237fc03d40d75bd66a5c4b72d82e60001b614a8d565b61117b611174614b0a565b8484614cf3565b6111a77f4f9ed2784e550f766a9e9d0b19e3b98bb22383bb7c32406b5880bc9bf894c56460001b614a8d565b6111d37f870f0cffc6e6270209ad6e45dbd19a27103cdce5ed465ca791452884eed2d45460001b614a8d565b6000610192600085815260200190815260200160002090506112177fb6e9765c4c38f593329735d15dad605af05c59b35fc2dadb2a04750b82acadaf60001b614a8d565b6112437f46dbd2ce9dcfa558f5b473ba84fbdf693f1125270a3c26458bd61ce362f61a3f60001b614a8d565b828160020160008282546112579190619ea8565b9250508190555061128a7fa2a181e2a55d4edc92bed34f7dbf2a08507c961aa45e67f4169fc29b757a899360001b614a8d565b6112b67fbf2e118e0efeca2b699a57693be338f6746cd5513d9c91a0a1b86a3796d9eda060001b614a8d565b828160080160006112c5614b0a565b73ffffffffffffffffffffffffffffffffffffffff1673ffffffffffffffffffffffffffffffffffffffff168152602001908152602001600020600082825461130e9190619ea8565b925050819055506113417fd9ab6622822ee2c52ac39bf84bb44630df8df3f61e94a329bf5f2370f9651b3060001b614a8d565b61136d7fe84e714902fa5c4e6548a72a6d4eae8b98f294f666d9b21ef99da23b7b43f19d60001b614a8d565b838573ffffffffffffffffffffffffffffffffffffffff1661138d614b0a565b73ffffffffffffffffffffffffffffffffffffffff167fff097c7d8b1957a4ff09ef1361b5fb54dcede3941ba836d0beb9d10bec725de6866040516113d2919061934b565b60405180910390a46114067fde6b11ded52f742d87bab329a5a63e7ef28b954f44d0ee4f0e75243c46e87d6c60001b614a8d565b6114327f1cbb8772072af39c5edb98a7941a6c6addced06f4674639f95163f6eb083ad7760001b614a8d565b61019560009054906101000a900473ffffffffffffffffffffffffffffffffffffffff1673ffffffffffffffffffffffffffffffffffffffff1663a9059cbb86856040518363ffffffff1660e01b8152600401611490929190619ec7565b6020604051808303816000875af11580156114af573d6000803e3d6000fd5b505050506040513d601f19601f820116820180604052508101906114d39190619ee7565b506115007faabf708fd439835a1be9a254a040a4a9a53a90a014f512e3ab9efd5f2147edba60001b614a8d565b61152c7fc18184303e0c6b9c8a5a5940b9178d0f286c3d48e319b6857f0d26d3ab43e0e560001b614a8d565b60019150509392505050565b60606115667fbbe163d4dbb2115eb39ffdf553c0d0c0f4fda79d74e376d39a4f1287c8c035c160001b614a8d565b6115927ff67e0c6c44eaee6c635d78d1d43d2703856b2e414808f6dcc473ae755f644b7a60001b614a8d565b6115be7f5afe7037579f8918567b6b2dd8c734a8d3fb870a59f9238808660c78a4b74b8660001b614a8d565b60008383905067ffffffffffffffff8111156115dd576115dc6196aa565b5b60405190808252806020026020018201604052801561161657816020015b61160361926a565b8152602001906001900390816115fb5790505b5090506116457fb382eaff5b8095edb155be113adc37d300d15cb7d129726873fdc771633ffe4460001b614a8d565b6116717f53ca0d912a917d236860c728314bec796b1fd4049c5226ec9e855a11988e86e560001b614a8d565b60005b8484905081101561172a576116ab7fb1aa79ad4e2cedebd26225b555286c931919780c70a67e1a0b14696bbc044b3c60001b614a8d565b6116d77ffc64b6c5099da8b4698efe585c8e9934c13fd94e33b9925345798822d1140afa60001b614a8d565b6116f98585838181106116ed576116ec619f0e565b5b9050602002013561178d565b82828151811061170c5761170b619f0e565b5b6020026020010181905250808061172290619f24565b915050611674565b506117577f0c2c27930710dde1147b1c83507e3fc9cd3b492689efe8f6832cb3563dac7b9660001b614a8d565b6117837fbb9a5e63436c35fb2f99ce7313edbb8c4576803206ee130563b3072d09d3697560001b614a8d565b8091505092915050565b61179561926a565b6117c17f1635e8803921dae477574fb41bd008ff4bb643df610b4ccc173740fb0707614160001b614a8d565b6117ed7ff01b932c68851b364e3f754e488dd6f1f16da15d5e8eb61be771e76af94ad2c360001b614a8d565b6118197f41c499a8ed6051c517962d0fac23e244ed081340330ace1e8d22982cf25087d260001b614a8d565b60006101926000848152602001908152602001600020905061185d7f476545c4c348d71ae915f48d583d9e776578f6acb0d8560b7a7fcbb6e30d9cdc60001b614a8d565b6118897f6e5b1d3fa8507602dabf4af0616aa8b5fd6a2f86ada49d01597ba75ac1e6708060001b614a8d565b600061189782600601614f3b565b90506118c57f60ed083f5cef4309cd10eecb642a8214185512f79287a98c1b0fde816f750a1460001b614a8d565b6118f17f0c06b703739535e5d2ee09a7271d6141accebf09160c6fc2c85a99f58ee7595a60001b614a8d565b60008167ffffffffffffffff81111561190d5761190c6196aa565b5b60405190808252806020026020018201604052801561193b5781602001602082028036833780820191505090505b50905061196a7f196ac9998d8b898c71840579c04c94f8a8065f5d10efdd204c926656783e11f360001b614a8d565b6119967f606f7dfb453280a99f6dc25a2ded6986b567e4c15817fe931de97c8058ae31ac60001b614a8d565b60008267ffffffffffffffff8111156119b2576119b16196aa565b5b6040519080825280602002602001820160405280156119e05781602001602082028036833780820191505090505b509050611a0f7fe4e6fc2d2eaa9e56ab241acb796a776260345079f5a0f1bedc886b04c303744760001b614a8d565b611a3b7f12abc8382edec09a79a375387d6d3f2d73887c9f2baf245989c6d1fdc1390f6060001b614a8d565b60005b611a4a85600601614f3b565b811015611b9757611a7d7fa58898721714535c9f104d184b3912912bfdbffa9fc903ee4f512bf347c627c260001b614a8d565b611aa97f27a4f99d1b1efed6c0b323525f5362c25f91083a9ad4794dc8929fa8cdf4824360001b614a8d565b611abf8186600601614f5090919063ffffffff16565b838281518110611ad257611ad1619f0e565b5b602002602001019073ffffffffffffffffffffffffffffffffffffffff16908173ffffffffffffffffffffffffffffffffffffffff1681525050611b387fa629ae1c65d2c80f7bb3f145094db2070ee588bc19d7448db17ccfcc59f86e0d60001b614a8d565b611b647fbc1ddbc5d3b4d3fb2abc91b29746b3d7c9bf76311f1ea6f198e55766a2a2067960001b614a8d565b86828281518110611b7857611b77619f0e565b5b6020026020010181815250508080611b8f90619f24565b915050611a3e565b50611bc47f51c79414cca9dac09153348e8da25c37ee0df1913734128ca453895dd45966b960001b614a8d565b611bf07f6a3393707679bc5aab63a6a9588c8576bb00eeb558f9ecb9026044e8061038f260001b614a8d565b6040518061012001604052808781526020018560000154815260200185600101548152602001611c1f88613e7c565b8152602001611c2d8861282f565b815260200185600201548152602001856004015481526020018381526020018560030160009054906101000a900460ff161515815250945050505050919050565b611c9a7f9d2672d5a88cfaa07ba82e88eacde73ea8bc7c659405ccd92f3c3b2bcdbca1ca60001b614a8d565b611cc67f66913813e5e9b928e9876a0de1a015eb59eae4d2bc59d3a0ea1adf1392fb142160001b614a8d565b611cf27fa98bbf99a59419c5f21787ef52db92b1624eb731953f9bf9c5d212011f9d71ea60001b614a8d565b611cff8585858585614f6a565b611d2b7f69e8935b082982b9adfa56e591b60dfe6cecc623587d8c330f48e11ca148fa9e60001b614a8d565b611d577f2952eca602cb7e3f1b4ff29057fc6f437539156f425108588143e1e0a832fc0c60001b614a8d565b60005b835181101561209857611d8f7faad80feee3b108dcbd40a32f246b85e7ce20c9aaea22396def2ffe4da0d8953e60001b614a8d565b611dbb7ff7ebd29c913eb601db3bc3cf8125cfa1a730c44d927ff301c2ba8fc14acd30ce60001b614a8d565b60006101926000868481518110611dd557611dd4619f0e565b5b602002602001015181526020019081526020016000209050611e197f599dd555323ae70dd634502b8cee3bf2d2e2f679d3359b8e94036759d28a859a60001b614a8d565b611e457f0f558929f7d3adb3da4c0496a0e0a85a04b6eb446e3ee1d21e5fefad5ba3fa9360001b614a8d565b6000848381518110611e5a57611e59619f0e565b5b602002602001015114611f0757611e937fab11d831ce046931dd369d3d525aa38bef04a57f34b106d5dcab3b8ac7c602d660001b614a8d565b611ebf7f19e68bfe8c1cbb9d13922eaca87dc03eec193484f5772528ef7a8b1b53c0137560001b614a8d565b611eeb7f868a716cddac9334627f10695954f4208dfaa32464bbeada50757fc0516e4b0460001b614a8d565b611f018682600601614cc390919063ffffffff16565b50611f34565b611f337f572aba4d49392b1a655c323406426b54c3661898b12d069d4eff20309eeff6c060001b614a8d565b5b611f607f5c5bb83f0215add78a4996d1de321e51764a0106c0a8dfd689dff65e5835e31760001b614a8d565b611f8c7f818ad9210ae0f3976c1a0cf6227145a318b5dae28a4da8a47a98d5b6240fe18460001b614a8d565b6000611fb288878581518110611fa557611fa4619f0e565b5b602002602001015161083b565b0361205757611fe37f98cac60805d1455472529947d42a941f2d094ac12adc956127ecd625ad9db3ec60001b614a8d565b61200f7f3f6d4fd4bb122ac3b986225dcf02b38da9a363e38cd2e10f9333d4470091538860001b614a8d565b61203b7fe5bfb9b535ec9026d40538f54a3e181f0b4da77d6664306b35b138babf0a722560001b614a8d565b612051878260060161500b90919063ffffffff16565b50612084565b6120837fb8484bc43eb16916ce4d63021138748fa2646bf0809e4ef521464af4db7634ef60001b614a8d565b5b50808061209090619f24565b915050611d5a565b505050505050565b6120a9826110c2565b6120b28161503b565b6120bc838361504f565b505050565b6120c9614b0a565b73ffffffffffffffffffffffffffffffffffffffff168173ffffffffffffffffffffffffffffffffffffffff1614612136576040517f08c379a000000000000000000000000000000000000000000000000000000000815260040161212d90619f42565b60405180910390fd5b6121408282615084565b5050565b7f65d7a28e3265b37a6474929f336521b332c1681b933f6cb9f3376673440d862a61216e8161503b565b61219a7f591a703010e6e1e24b2d4ff3c672077cb451fafc9b91efe9af3f850776642f6860001b614a8d565b6121c67f582c75ebfc6fd84dc1ea95cc5003bac5c16c7fb6347c6126cd36279fb256047f60001b614a8d565b6121f27f9d96eaf1b94a5da9035c44d1d4e3437ab5d9237a8e99016d097a87bbc7625b8760001b614a8d565b6121fa6150b9565b50565b60608151835114612243576040517f08c379a000000000000000000000000000000000000000000000000000000000815260040161223a90619fa6565b60405180910390fd5b6000835167ffffffffffffffff8111156122605761225f6196aa565b5b60405190808252806020026020018201604052801561228e5781602001602082028036833780820191505090505b50905060005b845181101561230b576122db8582815181106122b3576122b2619f0e565b5b60200260200101518583815181106122ce576122cd619f0e565b5b602002602001015161083b565b8282815181106122ee576122ed619f0e565b5b6020026020010181815250508061230490619f24565b9050612294565b508091505092915050565b60008061232283613e7c565b119050919050565b6000609760009054906101000a900460ff16905090565b600061236f7fe2c1bdffa3ee4e6d006aca3ed3698f09f901b56c2db1c267326c4e5f8836c7c360001b614a8d565b61239b7ffbfd764b3c2cab4ca466b928424f686bde7cbf2004eb30faa52e3e2d3fa6630860001b614a8d565b6123c77ff36bd1726f8fed0049a89597c5809888fe87df5612d7462df8e4b4209bb6c28560001b614a8d565b60006101926000858152602001908152602001600020905061240b7f70692d2d9317e5bee8d6d54887f678921b468dfc4e95f71bd0d7164aec681b9e60001b614a8d565b6124377f5cf4870a7fba044352ba9954b6356ae471702d00b8531cc5e4b3f9e00d1f073260001b614a8d565b600061244782600201548661511c565b90506124757f197cacafc153aac605fa2ab080ed939cb61dc187285cb47558fdb5a8f5ecb07660001b614a8d565b6124a17f3847a21d59f873cc3108e262376cb3fa4ba8e9dc3a1f5ff1b0bb1c956428d18060001b614a8d565b60006124ad858761083b565b90506124db7fc679fa9617912c956d3aef34ec345714c184312212c94e7e25622f55266a8a0c60001b614a8d565b6125077fa095041139dc2b794511e1ff113f1f220b808bb369eae998a5ab064bea7ba90660001b614a8d565b60006125357f9427e3b897afb7c85066263ff2b8405d96f47462a1c98b9298b09b8f9cc1740c60001b614a8d565b6125617fd10f3ffa64012f5d76cefa503d56a1b8016313d9deb7f712fdf192e5384610c760001b614a8d565b60008314806125705750600082145b15612602576125a17fdc2769b6d0adff91cb5129f457ce537c68f4e1575d065baaf20cc5603018ed2b60001b614a8d565b6125cd7ff1ef7b1c7c50e791f8b0847b7c8959c90eae2120a971a378e760b21a62d9900c60001b614a8d565b6125f97fb0479a6f5a1ffcae685d61972174a4dab43206fb96e8a7220b434c3dbc0c4d7460001b614a8d565b600090506127ca565b61262e7f7e3eec488f4698f33c58fd4520d28d096c11aeb1f0cfca75280a224c40fb962560001b614a8d565b61265a7fea312ab5d3d7384683372b34253ef971156bec241e9467b45d9874027ad626aa60001b614a8d565b6126867fa976562f792e9d27f41a80b0ea2a1552fb0a78e6469cb2d0239cf088ec1a18a060001b614a8d565b60008460080160008873ffffffffffffffffffffffffffffffffffffffff1673ffffffffffffffffffffffffffffffffffffffff1681526020019081526020016000205490506126f87f35c16f60808f0452a564df4675cd8a06712860295a3c0bb3fa0f30276d70e09b60001b614a8d565b6127247f19dbb176e1b05bfcdba67cdc4ec55b504af7736e2db27b17e69139172fc63acf60001b614a8d565b600061272f8961282f565b905061275d7f88f909957291944594451c9691417d18b33329321bee7220e5d2c50f8d8b0dd260001b614a8d565b6127897fc5d8213f418e316f253c9f3c6184ea0f3fab3bb28b0043a837d8cbd26dae7f8c60001b614a8d565b818587600201548361279b9190619ea8565b86856127a79190619ea8565b6127b1919061a00a565b6127bb919061a030565b6127c5919061a058565b925050505b6127f67f5b3521503efbb50f2d57cc44e34230aa975c2ce3e230e7c013798bb8a655af6560001b614a8d565b6128227f6ec39cd1262a576458da7b435f9fd0826c7e8fffc1b579e5dd4051996456d3d760001b614a8d565b8094505050505092915050565b600061285d7f8f46ff6bd2b1b65e1bf4ef6b93910be26d2407c509988def2ba42ecd2c91e8ee60001b614a8d565b6128897fd223245fd407ac8e33904d951dcc54f67cc78f2b57a0e17895eb240134ecfaca60001b614a8d565b6128b57fc5fb0744d6fd9e69c8843fdb00645ce3fefc8cd895c12e5528e11292061447c260001b614a8d565b6000610192600084815260200190815260200160002090506128f97f13d02fd63aec0a159507cae9c4644f0f7c7ca6d41389da0db1e384b014ae25a460001b614a8d565b6129257f961679a54f7d9db683c63c1cca6d23be4e0b46b504e78bee11ee44cb15190a8460001b614a8d565b8060030160009054906101000a900460ff166129d0576129677f745522d0bb5be9adc1a074f8dbecbd9401dff346c3abaad48e17bdba137d880360001b614a8d565b6129937fffe7aee22e4f7920270ecc73819b0ea1ffcaf9db88001393e708f03c97b8b55b60001b614a8d565b826040517f25f878170000000000000000000000000000000000000000000000000000000081526004016129c7919061934b565b60405180910390fd5b6129fc7f24c8e48d9e17a57c246126293cb38c12e27ce9d62ea125d88625ff4f575c2b3f60001b614a8d565b612a287f189a37ef6e17cee20ec9fd6f694e0e9dc32732716a1263720002d019cd3a329a60001b614a8d565b612a547ff9092657c4f2600f440a56e5486880fb0f29e26cb390690ba1c39798b771e33660001b614a8d565b8060020154612a678483600501546151be565b612a71919061a058565b915050919050565b6060612aa77feefd2a81970a669de69273271625807923259fc4d2ddacd0d7c3177342870d5960001b614a8d565b612ad37f51d4ff940f17ec0cbde50ce80a2ce35bdf9f78dcb6e0730e5aca85cf8be3fd8460001b614a8d565b612aff7f0ef8559e0f03a59636106061599a4d90b1e48fad6632fbe1094666fc00dd873c60001b614a8d565b6000612b0c61019361525e565b67ffffffffffffffff811115612b2557612b246196aa565b5b604051908082528060200260200182016040528015612b535781602001602082028036833780820191505090505b509050612b827f69feef10d8f98ecdca3d0d692d5242b685714d2617b914e94e51bcf41bbf78a960001b614a8d565b612bae7f1bff34c49b4eb9e21bb26550a976fe0e96ef6c817faf57f8b87edf8a84bfbe1260001b614a8d565b60005b8151811015612c5957612be67ff985d3e593969c82e5c518b6f54b82b6c3fd3ed2d722c496bf07b1a89e7bd35a60001b614a8d565b612c127f31d2ea41fb2f30a96f5a062179084279b7cc3a0c4607411385d26b97924dc70760001b614a8d565b612c278161019361527390919063ffffffff16565b828281518110612c3a57612c39619f0e565b5b6020026020010181815250508080612c5190619f24565b915050612bb1565b50612c867f39a2a226eca3ed7b2b8a11bc74ffa9544eaccc2a393e283612e3e0a3800dc16a60001b614a8d565b612cb27f024135879f92899ac861cbdb4d6f6169e8fd6d29838c0ff813825662753b8c4060001b614a8d565b8091505090565b612cc16192b8565b612ced7fceb6e02d08d2fac5893ea46497ef3e1089010a45284ec8f152cd3588344995e260001b614a8d565b612d197f9b6c5415e8a5db37707bd578dfc0841952e0408b6ac4348a5d5889034524145360001b614a8d565b612d457f2a97feff6796bda3e40da9094ac2e81589f3651e3da6f0a37a1b96d03065986860001b614a8d565b600061019260008481526020019081526020016000209050612d897ffc5d844772b0d3d578fa9b5de6a09da6154316ed7ec048e04de4490f2741fd2360001b614a8d565b612db57fd60d045fac3acdccb373741baf0953c43721439baf7e9b0a19a4e30ad1808fab60001b614a8d565b6040518060c001604052808573ffffffffffffffffffffffffffffffffffffffff168152602001848152602001612dec868661083b565b8152602001612dfb8587612341565b81526020018260080160008773ffffffffffffffffffffffffffffffffffffffff1673ffffffffffffffffffffffffffffffffffffffff1681526020019081526020016000205481526020018260090160008773ffffffffffffffffffffffffffffffffffffffff1673ffffffffffffffffffffffffffffffffffffffff1681526020019081526020016000205481525091505092915050565b6060612ec37f754c26f299a302fe12bfa9d0355d8cee891d490f850dcabac2b4168fe41df23a60001b614a8d565b612eef7f9aa53280ae0c64fc9f55427bd0e8d437792f19dc055bc94772dc2539e082513960001b614a8d565b612f1b7fdbbc6b80d7835b32166f3a759ef989b626b1b704020b750b9c691bd36710526960001b614a8d565b6000825167ffffffffffffffff811115612f3857612f376196aa565b5b604051908082528060200260200182016040528015612f7157816020015b612f5e6192b8565b815260200190600190039081612f565790505b509050612fa07fae88499e64f2ee43fb10cc97eafef566f93011fe4eeded6f858408389a719c5a60001b614a8d565b612fcc7fa58a3620f90241d00e1014d86675c3855e9e2afe17f1ba586b603e422fb0de3260001b614a8d565b60005b835181101561317f576130047f2a1c8e251019f10d0d8983c1ab1f583eeb71ccd40f4ee4a92ab966a0b6cc9b7860001b614a8d565b6130307f2572903f5b2adee47bf64d22fdae99f8cb015a389812ee3fece34f2ffda3a17260001b614a8d565b610192600085838151811061304857613047619f0e565b5b6020026020010151815260200190815260200160002060030160009054906101000a900460ff161561313f576130a07f27928089f5dbaeb5a3506b496637b68dc6071c89d4228fd2d24eda77eb9d653060001b614a8d565b6130cc7fdd10db354299185a277ca91b8ec213f7e2deb050df511218144c541ceca49b8060001b614a8d565b6130f87f0b903b57046eabf77fe8c20087134d9718df4c707b077c1a4760bc9ec1c40de560001b614a8d565b61311c8585838151811061310f5761310e619f0e565b5b6020026020010151612cb9565b82828151811061312f5761312e619f0e565b5b602002602001018190525061316c565b61316b7ff0653d2003f9fb4316bfec7d3a898844ebaa742f110ce5ec84a37ccee4c23ccd60001b614a8d565b5b808061317790619f24565b915050612fcf565b506131ac7f86219495e5082a77501bd943a0d750c0ea64ea25ef0cf042a907216e0d243e4e60001b614a8d565b6131d87fa07674ce0b1f1d9eeb986a46f87f5d1aa0f759c742b12419816d5ae79d1f0efb60001b614a8d565b8091505092915050565b60006132107ffbf741583ba966f96d73e92fc162b21d1359a28a25636f7f19fe1d8d7d09fd3360001b614a8d565b61323c7f97a754fac376b411a3d291948c0f5e3632813fa62bd7e14c611b92e96c01ee9660001b614a8d565b6132687fd21937ca2c51d53133712c5755164ae379135095e37ebaa09b36a7847705df8360001b614a8d565b6000610192600084815260200190815260200160002090506132ac7f2632d2f76738a05f80f0d413a33bb02ba8d803bda00216948f27e8f9c5b719ab60001b614a8d565b6132d87f389a0d35ceb0ce7751fa4aaafea7cd62fd0588d3d7d9c7d59d35fa784bc16a5360001b614a8d565b8060030160009054906101000a900460ff166133835761331a7f8156ec14fabfb45b6ceb9f766656b4e51c99ea71ee7dff63b3ed6932136f1efa60001b614a8d565b6133467fab661ed8e18502bbcc453c122af965a71fd0070af159335fe6557e3a8cb94d6660001b614a8d565b826040517f25f8781700000000000000000000000000000000000000000000000000000000815260040161337a919061934b565b60405180910390fd5b6133af7f354708e24f7314a1aee64687d4abf0a0216f250fdf93260672c30755ae4be12360001b614a8d565b6133db7fe6f47ad28ef66a6b64544eaf6febfa914aa7b9f10f937a0950de712d11f646f860001b614a8d565b6134077f9510c13fbfcd52c94913265111c783bd45a592b2af9f4e43c9ca6c08231bd80e60001b614a8d565b6134158382600501546151be565b61342382600201548561511c565b61342d919061a058565b915050919050565b60008060019054906101000a900460ff161590508080156134665750600160008054906101000a900460ff1660ff16105b8061349357506134753061528d565b1580156134925750600160008054906101000a900460ff1660ff16145b5b6134d2576040517f08c379a00000000000000000000000000000000000000000000000000000000081526004016134c99061a076565b60405180910390fd5b60016000806101000a81548160ff021916908360ff160217905550801561350f576001600060016101000a81548160ff0219169083151502179055505b61353b7fc399bfce08c14c171b5d77dab855412578a2f1e3b2d51e0b52f87a86f98d33a660001b614a8d565b6135677fd48546fc026600bbd28cdbaff3150f1b7cc28057f5b659f5ee989ea632a20aff60001b614a8d565b6135937fba6b775c41ec53e8227acc45e910d8102ec47da893540aa60e800fd14e9f920560001b614a8d565b6135b460405180606001604052806032815260200161ac2f603291396152b0565b6135e07f4bf3d95e4f51037393da8d1b4587658511c9c21bdb99cce66191e7d374eacd5260001b614a8d565b61360c7ff1b56fcd1275135e25e28ee400ebd076fd40698ec187a91ca9cc50a5f012853060001b614a8d565b61361461530b565b6136407f0b7911fbb5f55503fa5d25344bd1cb46bcbae863c988132cc8fc444decffed0360001b614a8d565b61366c7f953b8e2ccfdc05a4b02a3749274db96f52628b9141644df543212646f0acf22b60001b614a8d565b61367461535c565b6136a07f6bf39cfc843f89540f9d537ae1e93b0fce65ea6142af77c32c915b50c5e61b6360001b614a8d565b6136cc7f0ac3a84279087dce1804fc362943b319ef900fa1817fb0b15b08309de184035460001b614a8d565b6136d46153ad565b6137007f5390b5c791331cfbc79ff0839a69b745f768636a4b5e6cf74ef406de92ddbb5460001b614a8d565b61372c7f8f0dd6e6126d3e4aa1ff080f50c8a496ae02a81b586ea843d1ca11af9db19d8660001b614a8d565b6137346153fe565b6137607f5c82e2a372f799d5aaa0e8cce1ac736579fad1c79647ecbad48879acdb70e85860001b614a8d565b61378c7fb7f1af6bb123f2621a39c63e488c9464eb7c1a7b7e72937835e8422427abd4ce60001b614a8d565b61379461544f565b6137c07fe9f0d9683a9e06960a45b56a189556bb061524f147a17f1e20a2a69e11f3518660001b614a8d565b6137ec7fe69acb095aae4f0137f1d9ae8ae1da1b9cdb8714f32e2c9adfe5aba9340ea5d360001b614a8d565b6137f46154bb565b6138207fe6cfe59d4049620448aeeb3c97797db7c8753b8438f07f82f355667bf53d898560001b614a8d565b61384c7f96da455d2851075e32245c7fb71c000aa2893eaeab947326107b46350f3df42060001b614a8d565b6138606000801b61385b614b0a565b61550c565b61388c7f6e4347e21d2c0544b5e46137a3ff37f14ae34b8953684c2e6ae31131164210ad60001b614a8d565b6138b87f472d68817aad4013522f017c259748d0a7d70ed874e6ca4a9d1187c7d3c3cc4c60001b614a8d565b6138e97f65d7a28e3265b37a6474929f336521b332c1681b933f6cb9f3376673440d862a6138e4614b0a565b61550c565b6139157f423cad0331de39712f31860f9ea86da9179c9f610cf5b28411d9bd48cf0d9b4160001b614a8d565b6139417f0bc415d5197160314f19b851f585e861948d26c3aef3d41a58b10fa66f79241560001b614a8d565b6139727fb62aeb2ef35a3718e51a7e8b0b0d8e6fa690a4037bf45dad308976da469a861c61396d614b0a565b61550c565b61399e7fb70fe70fa29fd8677b5b61f536635233b04c6e5c57afdfd7f5d09eff3ba880b060001b614a8d565b6139ca7f524fe7289bcc4ad55142069964ac5bebcdac853b4bcf81ec596938f89693417c60001b614a8d565b6139fb7f813b9efdf6afe6b57682eb1fb850711edc34da21ae7f7376cb7a391b1be3239f6139f6614b0a565b61550c565b613a277f6db962a36ff0d90f030c9a48c26fa969cb2f1c32e8375e47032bc956ee84cb9e60001b614a8d565b613a537fa05c68bf1d215665bd25e4a7921b3cd32b0da6b3430111f4b9e7cff3e757ecbc60001b614a8d565b613a64600160006312cf3570613e99565b8015613abd5760008060016101000a81548160ff0219169083151502179055507f7f26b83ff96e1f2b6a682f133852f6798a09c465da95921460cefb38474024986001604051613ab4919061a0da565b60405180910390a15b50565b7f65d7a28e3265b37a6474929f336521b332c1681b933f6cb9f3376673440d862a613aea8161503b565b613b167f7be6fcff752b9a525c95e65ca7851016a854bb943c3563bed23c48e7360a72b660001b614a8d565b613b427f5f1cc6b9ad238d761c006905797a31c787aebb38c4b3c20459b9f03414da77fb60001b614a8d565b613b6e7f34b76a0105855a802f2b547f10ac4ae22dc702aa9cad4deea2c7f04cd16b919460001b614a8d565b613b7661551a565b50565b6000613ba18261015f6000868152602001908152602001600020614f5090919063ffffffff16565b905092915050565b600061012d600084815260200190815260200160002060000160008373ffffffffffffffffffffffffffffffffffffffff1673ffffffffffffffffffffffffffffffffffffffff16815260200190815260200160002060009054906101000a900460ff16905092915050565b6000801b613c228161503b565b613c4e7f92c9d5c1c659d687c90cd5b2fc75a795ffa6c83fd7af1cfa6a5c9dd73a49925060001b614a8d565b613c7a7ff2686f0ac9d6079d1137475683e41e190532d9458b115a2b0af7045459a618ec60001b614a8d565b613ca67ff780a1a1408a15fb42a0127c9e885ab061a3503e7ca6bad2860c3c419820d23d60001b614a8d565b8261019560006101000a81548173ffffffffffffffffffffffffffffffffffffffff021916908373ffffffffffffffffffffffffffffffffffffffff160217905550613d147f616054dabb1beb911db4bd3671c4b6cdbe2dd12512f72021305aa5aa7572625060001b614a8d565b613d407f7a4a8a8e10563509be63440514b87a8e34be715483ffdfcbc3720def9f38365960001b614a8d565b8161019660006101000a81548173ffffffffffffffffffffffffffffffffffffffff021916908373ffffffffffffffffffffffffffffffffffffffff160217905550505050565b6000613db57f7cb8ed9cebda7960bb65028ba56b596bdfebe0f7f099da3dbd216650aaaeac2260001b614a8d565b613de17f9a032ebf757550d93f0904bb60131b2c68bbff3050c49717f02514c35c01797060001b614a8d565b613e0d7f72d7e623bcb50496695570de8994c00f0d262a564258672d52f09f95db6c68ce60001b614a8d565b6101916000848152602001908152602001600020600083815260200190815260200160002054905092915050565b6000801b81565b613e54613e4d614b0a565b838361557d565b5050565b7f813b9efdf6afe6b57682eb1fb850711edc34da21ae7f7376cb7a391b1be3239f81565b600060fb6000838152602001908152602001600020549050919050565b613ea16156e9565b6000801b613eae8161503b565b613eda7f8163c5b3edb1df0b0e54021319403ce1043cc2b515c453c5ce2bd1ba2a7d256160001b614a8d565b613f067f1124e6a6f6513fd2f2c845a2b43c7ebae973d2425c129205629c589b1a912ff160001b614a8d565b613f327fa7b00de22d7b5a8439ac70b2e2886cb69b3a1d6142437a4312686b60dd855f8f60001b614a8d565b60008203613fc457613f667fd7bbded3a304bd6dab69cecc04ddf380b5d31f9f3a3e3119eaa31ad8676f0d9b60001b614a8d565b613f927f4962f8d38dcfb220fde86df88702b11352110351306130312d3c8c9ad1bf198460001b614a8d565b6040517f98eb412400000000000000000000000000000000000000000000000000000000815260040160405180910390fd5b613ff07fe4024cb4379f467b14714e1cf04ec7375a8d908dae7f06170e73ac4675cbd06a60001b614a8d565b61401c7f5fb9fbd646b36fbcf7646ead9c146edd7becb66b25d04ef1757ecba6b054eef360001b614a8d565b6140487fb7efd851e505f8c6830e1f0dc201b68b9ecf3489bc9a358c7c7c7e97f006a42660001b614a8d565b81610191600086815260200190815260200160002060008581526020019081526020016000208190555050505050565b600061409661015f6000848152602001908152602001600020614f3b565b9050919050565b7f9f2df0fed2c77648de5860a4cc508cd0818c85b8b8a1ab4ceeef8d981c8956a681565b6140ca826110c2565b6140d38161503b565b6140dd8383615084565b505050565b6140ea6156e9565b7f813b9efdf6afe6b57682eb1fb850711edc34da21ae7f7376cb7a391b1be3239f6141148161503b565b6141407f5dc3b89385a52cda3fc6c5c89c26650437fdd7a4e588ce880db8cd186bf9da3e60001b614a8d565b61416c7f783976a187ffccadf69c2d5c940da1bbb913abf95aaf4dd9c8ad17842c37270360001b614a8d565b6141987f7eb49ec0056a4d9769c7129c733330e33ae6599962bb6ba0c8a58651a7e6b14b60001b614a8d565b848490508787905014614238576141d17f8a404a1b0ab56c43a025ecca09413f503985137b1cd122a857d016f303a4c3f160001b614a8d565b6141fd7f880c3099e6c0ae4c61d3f78463edec733cc0cacf80e30be982f101565fd8fb2560001b614a8d565b6040517f616c411300000000000000000000000000000000000000000000000000000000815260040161422f9061a125565b60405180910390fd5b6142647f8d676c79d1d5d72a38406198a83493054b31cbfb86dc014d34ec7d6f4ea0088260001b614a8d565b6142907fe0449fcb245d901fc7d32ae90722c81e1007774feaef85267522c9aba6e60dad60001b614a8d565b6142bc7f306a15e2c5a4108321a1cc6c23c45f5fdb7a1ee703a01923a514a1ceb644030560001b614a8d565b82829050878790501461435c576142f57fc2eeb98cb704b408e141bd7c49546c3fc56fbf9d96f103e7a7d830f17f16ebe160001b614a8d565b6143217fe0ae96284fe98cd7dbdd897026639a049a275de99287cc30914a1cc0ce917b3960001b614a8d565b6040517f616c41130000000000000000000000000000000000000000000000000000000081526004016143539061a175565b60405180910390fd5b6143887f741f97d2d9726a6c7fc83dc1be945d0d00a61f52148a321c2dd6ed1705f8778660001b614a8d565b6143b47ff7c18d6d96ce8d219d27915da12e8f50477cb705efb3649c1b520bba0cb8546f60001b614a8d565b6143e07f8b38f65a222279941d8fdf213800a7ebfed8636301859f867b314b228612fe4660001b614a8d565b60005b878790508110156144bd5761441a7f2f21a5302a388e55576a7d661bd5c6fbcc46d97904404588ce71898ba02b391b60001b614a8d565b6144467f328ded0d18e9d5d88854eaa8c6f1b3ec17090ed8fdef33349ff44d9421cfbe7660001b614a8d565b6144aa88888381811061445c5761445b619f0e565b5b9050602002016020810190614471919061a1c5565b87878481811061448457614483619f0e565b5b9050602002013586868581811061449e5761449d619f0e565b5b90506020020135615733565b80806144b590619f24565b9150506143e3565b5050505050505050565b7f65d7a28e3265b37a6474929f336521b332c1681b933f6cb9f3376673440d862a81565b6000606660008473ffffffffffffffffffffffffffffffffffffffff1673ffffffffffffffffffffffffffffffffffffffff16815260200190815260200160002060008373ffffffffffffffffffffffffffffffffffffffff1673ffffffffffffffffffffffffffffffffffffffff16815260200190815260200160002060009054906101000a900460ff16905092915050565b6145ab7f583cb577ee688c09fa72cd36d8c0bfa3d3ed3ab2053d43c0af54150b57d3bac660001b614a8d565b6145d77f1a963f1a5c35d401fa98159259b5d33f1be78ffd0f5aa04f73014d998d452d8860001b614a8d565b6146037f0c162ee88845f8d6c24e45881074e4784ad0ad2c86395a40729f3f903f1622ec60001b614a8d565b61461085858585856165db565b61463c7fce5847bb0d27052e8e925bb21fa3374931d72d60508fa4d7050872eb4e81d8ad60001b614a8d565b6146687f6f7e38383d934ac2ef24e5ab4946b4ff35cd2080a8575b84b7314c846d4ad3cd60001b614a8d565b6000610192600085815260200190815260200160002090506146ac7f809b8f070bbfabbd9ef8960304cfd05c07c0818e00bf72b9e7dbf3f8bcea567760001b614a8d565b6146d87f6a1f651b4896bfd8918950267024f4cb9aa8caeab3688b638a6f48320ddee30960001b614a8d565b600083146147805761470c7f7ee145fa51c540c591c63c4fd166a36dc3078b33483613ff3986f12dd2c6f3c260001b614a8d565b6147387fee00eb3b3823b4ec7c57a217e8924c4afff0415a5afa6321f18ab13cdd8cf1d460001b614a8d565b6147647ffda66a812e306d394b4789db57b6fa7d48816ae781662e81f4f78680b5cd1bab60001b614a8d565b61477a8582600601614cc390919063ffffffff16565b506147ad565b6147ac7f5e07b0d9e013f1f3e0fd070b9c6f6f88cba3db62d260887d0399eaec60dc3bd760001b614a8d565b5b6147d97f1fc8b520378537252465402af35686e49c588db6a49b9d6dfd820509491b712d60001b614a8d565b6148057f608261177d377bcdc92121e5360fc078139a7cbbc836a2ac5c837f5e7360453360001b614a8d565b6000614811878661083b565b036148b6576148427fa71cad1cb081b0244c6dcd411015571b868305aca342a5286e7db2a7ce0667d460001b614a8d565b61486e7f43a6e6968fff27f0bf4d784fe11ae0f843401d7c1a4e0e80e037ae31dab0e76a60001b614a8d565b61489a7f57647f340a6dd1d9d01452ee4c589ada014711cd4536dfb4bfc0aa7eb609f14260001b614a8d565b6148b0868260060161500b90919063ffffffff16565b506148e3565b6148e27fb17654f80b656c3ff5c91dc89df4dbccb57722b63813e6ab988fa99537ff4edb60001b614a8d565b5b505050505050565b6148f36156e9565b7fb62aeb2ef35a3718e51a7e8b0b0d8e6fa690a4037bf45dad308976da469a861c61491d8161503b565b6149497fc5c45745ea93212ea8b01468d59a39ec41ddbb5a5794ee5c8fe60a4aa4572c5060001b614a8d565b6149757fc6bd2bfbda3b98c188b707eb9d8e9362340e1b554107c68998d18396e4ca585860001b614a8d565b6149a17f16ae93f2bfdbe9ffcdbb7b0718ad2cb090a3306df380210acdd509521d475d7760001b614a8d565b610192600083815260200190815260200160002060030160009054906101000a900460ff16614a5c576149f67f775f3226299278587b6f4e1fa6b5a95cbd84b56a111268705a81e58365ba5ae160001b614a8d565b614a227fc02fd41430b9a511d64fe2d3c8a9b09293e93528b1561ca99f1b1fed5dbb548460001b614a8d565b614a4e7f9ae2d704af5c40384ceee109a0d62a8449dd21f338819b7cb3ac6268b2d48a7b60001b614a8d565b614a578261667c565b614a89565b614a887feb28a6862658170f86588d83a6e0db534617515762156720b5cc711e5004bdb360001b614a8d565b5b5050565b50565b60007f5a05180f000000000000000000000000000000000000000000000000000000007bffffffffffffffffffffffffffffffffffffffffffffffffffffffff1916827bffffffffffffffffffffffffffffffffffffffffffffffffffffffff19161480614b035750614b0282616efb565b5b9050919050565b600033905090565b600073ffffffffffffffffffffffffffffffffffffffff168473ffffffffffffffffffffffffffffffffffffffff1603614b81576040517f08c379a0000000000000000000000000000000000000000000000000000000008152600401614b789061a1ec565b60405180910390fd5b6000614b8b614b0a565b90506000614b9885616f75565b90506000614ba585616f75565b9050614bb683600089858589616fef565b846065600088815260200190815260200160002060008973ffffffffffffffffffffffffffffffffffffffff1673ffffffffffffffffffffffffffffffffffffffff1681526020019081526020016000206000828254614c169190619ea8565b925050819055508673ffffffffffffffffffffffffffffffffffffffff16600073ffffffffffffffffffffffffffffffffffffffff168473ffffffffffffffffffffffffffffffffffffffff167fc3d58168c5ae7397731d063d5bbf3d657854427343f4c083240f7aacaa2d0f628989604051614c9492919061a250565b60405180910390a4614cab8360008985858961764a565b614cba83600089898989617652565b50505050505050565b6000614ceb836000018373ffffffffffffffffffffffffffffffffffffffff1660001b617829565b905092915050565b600073ffffffffffffffffffffffffffffffffffffffff168373ffffffffffffffffffffffffffffffffffffffff1603614d62576040517f08c379a0000000000000000000000000000000000000000000000000000000008152600401614d599061a268565b60405180910390fd5b6000614d6c614b0a565b90506000614d7984616f75565b90506000614d8684616f75565b9050614da683876000858560405180602001604052806000815250616fef565b60006065600087815260200190815260200160002060008873ffffffffffffffffffffffffffffffffffffffff1673ffffffffffffffffffffffffffffffffffffffff16815260200190815260200160002054905084811015614e3e576040517f08c379a0000000000000000000000000000000000000000000000000000000008152600401614e359061a2cc565b60405180910390fd5b8481036065600088815260200190815260200160002060008973ffffffffffffffffffffffffffffffffffffffff1673ffffffffffffffffffffffffffffffffffffffff16815260200190815260200160002081905550600073ffffffffffffffffffffffffffffffffffffffff168773ffffffffffffffffffffffffffffffffffffffff168573ffffffffffffffffffffffffffffffffffffffff167fc3d58168c5ae7397731d063d5bbf3d657854427343f4c083240f7aacaa2d0f628989604051614f0c92919061a250565b60405180910390a4614f328488600086866040518060200160405280600081525061764a565b50505050505050565b6000614f4982600001617899565b9050919050565b6000614f5f83600001836178aa565b60001c905092915050565b614f72614b0a565b73ffffffffffffffffffffffffffffffffffffffff168573ffffffffffffffffffffffffffffffffffffffff161480614fb85750614fb785614fb2614b0a565b6144eb565b5b614ff7576040517f08c379a0000000000000000000000000000000000000000000000000000000008152600401614fee9061a330565b60405180910390fd5b61500485858585856178d5565b5050505050565b6000615033836000018373ffffffffffffffffffffffffffffffffffffffff1660001b617bf9565b905092915050565b61504c81615047614b0a565b617d0d565b50565b6150598282617daa565b61507f8161015f6000858152602001908152602001600020614cc390919063ffffffff16565b505050565b61508e8282617e8c565b6150b48161015f600085815260200190815260200160002061500b90919063ffffffff16565b505050565b6150c1617f6f565b6000609760006101000a81548160ff0219169083151502179055507f5db9ee0a495bf2e6ff9c91a7834c1ba4fdd244a5e8aa4e537bd38aeae4b073aa615105614b0a565b6040516151129190619b76565b60405180910390a1565b600061514a7f6543aa896906a9c95bdaee82726c4156f497bab3c388b28e8cb06f661657fa0f60001b614a8d565b6151767fde9a294cc6861213786da7557f0d41e210d3e196e559d4b13ed65c3b5425095c60001b614a8d565b6151a27fceeb5231974117a2bc9a8227973db963f2448614f55b87e9d7bd7f75a6662e1860001b614a8d565b6151ab82613e7c565b836151b69190619ea8565b905092915050565b60006151ec7f872cc321901d72f72c389e8079deb38eb864965913181aab3203858a2c167a3260001b614a8d565b6152187fb559ae0d01ec3b294da635e852d9969f56eaea582fbaf93b48c8100b4b06d40c60001b614a8d565b6152447f1ddca724e8e6bf7ef6b1734b398f10f97547b667289ffee4845856d24cd3f15960001b614a8d565b61525661525084617fb8565b83618347565b905092915050565b600061526c82600001617899565b9050919050565b600061528283600001836178aa565b60001c905092915050565b6000808273ffffffffffffffffffffffffffffffffffffffff163b119050919050565b600060019054906101000a900460ff166152ff576040517f08c379a00000000000000000000000000000000000000000000000000000000081526004016152f69061a394565b60405180910390fd5b61530881618361565b50565b600060019054906101000a900460ff1661535a576040517f08c379a00000000000000000000000000000000000000000000000000000000081526004016153519061a394565b60405180910390fd5b565b600060019054906101000a900460ff166153ab576040517f08c379a00000000000000000000000000000000000000000000000000000000081526004016153a29061a394565b60405180910390fd5b565b600060019054906101000a900460ff166153fc576040517f08c379a00000000000000000000000000000000000000000000000000000000081526004016153f39061a394565b60405180910390fd5b565b600060019054906101000a900460ff1661544d576040517f08c379a00000000000000000000000000000000000000000000000000000000081526004016154449061a394565b60405180910390fd5b565b600060019054906101000a900460ff1661549e576040517f08c379a00000000000000000000000000000000000000000000000000000000081526004016154959061a394565b60405180910390fd5b6000609760006101000a81548160ff021916908315150217905550565b600060019054906101000a900460ff1661550a576040517f08c379a00000000000000000000000000000000000000000000000000000000081526004016155019061a394565b60405180910390fd5b565b615516828261504f565b5050565b6155226156e9565b6001609760006101000a81548160ff0219169083151502179055507f62e78cea01bee320cd4e420270b5ea74000d11b0c9f74754ebdbfc544b05a258615566614b0a565b6040516155739190619b76565b60405180910390a1565b8173ffffffffffffffffffffffffffffffffffffffff168373ffffffffffffffffffffffffffffffffffffffff16036155eb576040517f08c379a00000000000000000000000000000000000000000000000000000000081526004016155e29061a3f8565b60405180910390fd5b80606660008573ffffffffffffffffffffffffffffffffffffffff1673ffffffffffffffffffffffffffffffffffffffff16815260200190815260200160002060008473ffffffffffffffffffffffffffffffffffffffff1673ffffffffffffffffffffffffffffffffffffffff16815260200190815260200160002060006101000a81548160ff0219169083151502179055508173ffffffffffffffffffffffffffffffffffffffff168373ffffffffffffffffffffffffffffffffffffffff167f17307eab39ab6107e8899845ad3d59bd9653f200f220920489ca2b5937696c31836040516156dc91906193a4565b60405180910390a3505050565b6156f161232a565b15615731576040517f08c379a00000000000000000000000000000000000000000000000000000000081526004016157289061a45c565b60405180910390fd5b565b61575f7f828d9f8ce1252f61cb7c65546729bd2c04d2e461285a64dd7fc0edd9b67446bd60001b614a8d565b61578b7f7ab828627d15b94b1ff9accccb6bad0bf90230f5131304d1433832946138d4bd60001b614a8d565b6157b77f9f69cdd8078a370fcbf5acde9099dfa2faee3584f18a3759c9b449bee8196f3a60001b614a8d565b600061019660009054906101000a900473ffffffffffffffffffffffffffffffffffffffff1673ffffffffffffffffffffffffffffffffffffffff1663e0fc2938846040518263ffffffff1660e01b8152600401615815919061934b565b602060405180830381865afa158015615832573d6000803e3d6000fd5b505050506040513d601f19601f820116820180604052508101906158569190619e04565b90506158847fb80ce005903cf29fbf1b8a41807fc07c94801aa4fc6dd0b02d4e3daf8972944b60001b614a8d565b6158b07f5bd0c8f0c5ec781863cc6879e00919eba212eb8783f18aff43572995bc5811fc60001b614a8d565b6000610192600083815260200190815260200160002090506158f47f3c904824ed93ad59e6563f97fb5cb2663fc8978f1961a1d774d61b1bdbde971260001b614a8d565b6159207f4111b7042a9fe091467c03b6b53cfba8d49c6a3850b8c1647cd4f0344328da5c60001b614a8d565b8060030160009054906101000a900460ff166159cb576159627f7f36c2e74d1b127977124820ba3ffce858084540a5afbfe3f9b6251361d5121360001b614a8d565b61598e7f7fe3fd8c8219817e4c7b0116d2f293304b1bf3f157a393424510b3c91806a82b60001b614a8d565b816040517f25f878170000000000000000000000000000000000000000000000000000000081526004016159c2919061934b565b60405180910390fd5b6159f77fe7b2bf7a83d32fab7e117a6833fdc3775bdd2b3d4477cdbb2c79e670a8ab69cf60001b614a8d565b615a237f038f06ecd1f8720c2f3db75215617a37e08c01550e57aa168acf75f872ea474e60001b614a8d565b615a4f7fcc69bd30241e8bdc85b58ba7a2cce414a2ad65207797f19d1c94b6360837bd4660001b614a8d565b6000615a5a836131e2565b9050615a887f22eed01fa13c6c3a32268c2e5ec753af2606f808eb3f1392c9828e505ec3180560001b614a8d565b615ab47f32aa34a6bec8fb86dc45ce27676a084cada3bbc11cd562577607c549e9262f0060001b614a8d565b80841115615b5157615ae87fba409fe1ec3848a0a1a635f1548c00ba6c94bb1b90db92460c4599f716f7703160001b614a8d565b615b147f76e50a4533f33ba5c8a59c1c7bbd6b1911797de8cd1f4a5cfa8303eecdc8b2de60001b614a8d565b826040517f610d2838000000000000000000000000000000000000000000000000000000008152600401615b48919061934b565b60405180910390fd5b615b7d7f7a7ce1e07a91a3435dc19df8e543f4c03172d7b9133495d179c85d268df17bc360001b614a8d565b615ba97f78e716cd512f94ce1ded5313539084c66a0884bc51095794606fab547f9645df60001b614a8d565b615bd57f9a35ea1438d734768686865a00d2f4d1fbce970284747cba8c580464fbc76f7b60001b614a8d565b6000808511615be45781615be6565b845b9050615c147f33cd09e470182cbbd170ac0bb1a336e156dc999fc6971f4af672a948a719c11c60001b614a8d565b615c407f7796de0f3796d2cbb3122ffa936986f0e4d39408414a6ec3033c62710bed074860001b614a8d565b6000615c4e84600601618374565b9050615c7c7f88026a0f70c71a9733caf8ab4630d81af1ea2625bceb965111103e1f56ae49c360001b614a8d565b615ca87f04aee80af69d244d380c315a77b9eed45822d6040218daf06f5501c98398982a60001b614a8d565b6000815167ffffffffffffffff811115615cc557615cc46196aa565b5b604051908082528060200260200182016040528015615cf35781602001602082028036833780820191505090505b509050615d227f2e3b71df74c84d9a29167d860fa38ae0b7c9f474c35f98a9a5edc1376eca174060001b614a8d565b615d4e7fc3fc07ef531f05e8a0e4c5adcf27a5ff957fce8e15ed38bf2672206838d09dd960001b614a8d565b60005b8251811015615de557615d867f2d1707eb18cfd724b6571945219256a5b674b49fadc533d2a8f8eb692ddad36f60001b614a8d565b615db27fae50ebf336ce1d043cccc77faecca96a53f7cfcc23b32165ed7d56b217cdc2e760001b614a8d565b86828281518110615dc657615dc5619f0e565b5b6020026020010181815250508080615ddd90619f24565b915050615d51565b50615e127fb74932d68f4fcc4d529aed57edbf9b451568a1bfb082a18cbd989e877cd5433c60001b614a8d565b615e3e7f2090a62741d827385660c993289f624d950a90eda45e599a7301d129dae3101260001b614a8d565b6000825167ffffffffffffffff811115615e5b57615e5a6196aa565b5b604051908082528060200260200182016040528015615e895781602001602082028036833780820191505090505b509050615eb87ff9816b23b400c18a0541ccbb57570e017b698e5c7417bbd6b5055c52d7c66ec660001b614a8d565b615ee47ffbc20419f2144ca5cecae63bbbda61728a9fb61c37c2db91ca02da9c2318406e60001b614a8d565b6000615ef084846121fd565b9050615f1e7f0ff8833ccb329ab83af472150c3ba642fb3d6df39e18f8f669679a84bbf03c8760001b614a8d565b615f4a7f54e268b62fe3e13d34a26a015fd273f783aeb4d09c6a6e1e4ec4f39e9192749360001b614a8d565b6000615f787fbd8c402f4ed51938e09648a6ec13f4d0ec9faa331c6d84ccbc651af71db37d0460001b614a8d565b615fa47f9e22387d6fc8cdac91e8f2c9c8bbd29643eb3bdeb9695d2b9c59b833430e4ed160001b614a8d565b60005b60018651615fb5919061a058565b81101561614a57615fe87fd5f94be13fad78bc4c1ac314b332dfc66515036b3543d61d2e0cfdb369c1d41a60001b614a8d565b6160147f09998a53805944f33c82891959f81ecd76ec59cb423817d0f50da332892e84ee60001b614a8d565b6000616056888c89858151811061602e5761602d619f0e565b5b602002602001015187868151811061604957616048619f0e565b5b6020026020010151618395565b90506160847fb97a367a2e5942801577ff56322c00a908c2b92cf669abbe4daccc4beda044fe60001b614a8d565b6160b07fb2b49069b5842d160b0048c85dd1064dc4c3f46c34ab32e868d00fb931d220f960001b614a8d565b808583815181106160c4576160c3619f0e565b5b6020026020010181815250506160fc7fb775ceed2b42ff50e9ad195bebfefe0bc58d4044bd6a1ffaa969953c8c4c754c60001b614a8d565b6161287fb25cc99c1a2ab48b93d9c20bbfd86b8e59846ad30c12fe31db59bb90979afd5360001b614a8d565b80836161349190619ea8565b925050808061614290619f24565b915050615fa7565b506161777f559da2f1a3623f8c03f004a71d70e2fa0364d34a700b6d3780dd87d068fe180160001b614a8d565b6161a37f198f93f81af096ec6ec66b54b8763204da7fe7f5adabbd1a9fbeb304b3cea36160001b614a8d565b80866161af919061a058565b83600187516161be919061a058565b815181106161cf576161ce619f0e565b5b6020026020010181815250506162077f8c6fadb970b87c509da2ceea52aeb8c443aff6d1d7ead2c3218e9eaf924049e260001b614a8d565b6162337fba7967499e82c0a09a9a23dacf2cdd1a38dacf1f929aac812ed494cfc175ebd860001b614a8d565b60005b85518110156163cd5761626b7f247582c513e3cef007d434c9560e37b188ee8c8e05ca0c07436cdd5a9934c42760001b614a8d565b6162977f678d9ee55bb43a3e88ccf7b1efba9f45b5b210841f5a54f6f0926d94c6ded10d60001b614a8d565b6162d68682815181106162ad576162ac619f0e565b5b60200260200101518b8684815181106162c9576162c8619f0e565b5b6020026020010151614cf3565b6163027f14e20af0fe7f74b4365099005dd10ef11e9b40daadaebf06dc9ea85a530d571d60001b614a8d565b61632e7f14e8858a02d0fd7aea920e7961c71eea6e3b7153ed960db09d181012f8ebd78760001b614a8d565b83818151811061634157616340619f0e565b5b602002602001015189600901600088848151811061636257616361619f0e565b5b602002602001015173ffffffffffffffffffffffffffffffffffffffff1673ffffffffffffffffffffffffffffffffffffffff16815260200190815260200160002060008282546163b39190619ea8565b9250508190555080806163c590619f24565b915050616236565b506163fa7f1c03f67878699eba2c9d341d2c6d2e555cdac9798e7d64612efe5bf44a6ec89160001b614a8d565b6164267f3023d2a3d633a8b868524b987584a765d8bac413eea931c072563f4fca24614360001b614a8d565b8588600401600082825461643a9190619ea8565b9250508190555061646d7f8d455216a51600685eafbcbd68c2b30457fb90f0eb77f3084f5a7f0ea525aeb660001b614a8d565b6164997fd2a0f0bb9223e880c1a266f6fd4b716092a6162b0fcce87dffce422fd44f3a6260001b614a8d565b888b427f4b9948901911c14ff8b417db5004be639f92f11be671b8b85219c5ff809b71ba896040516164cb919061934b565b60405180910390a46164ff7ff0a4fb16f7ada600cc094aa7dadc5dc75cafb1da38832dbd3a3063725ec5338860001b614a8d565b61652b7f3445c600f114eb7463bc6d6af2046e891797586cdf12f996080e46d302fe8af660001b614a8d565b61019560009054906101000a900473ffffffffffffffffffffffffffffffffffffffff1673ffffffffffffffffffffffffffffffffffffffff1663a9059cbb8d886040518363ffffffff1660e01b8152600401616589929190619ec7565b6020604051808303816000875af11580156165a8573d6000803e3d6000fd5b505050506040513d601f19601f820116820180604052508101906165cc9190619ee7565b50505050505050505050505050565b6165e3614b0a565b73ffffffffffffffffffffffffffffffffffffffff168573ffffffffffffffffffffffffffffffffffffffff161480616629575061662885616623614b0a565b6144eb565b5b616668576040517f08c379a000000000000000000000000000000000000000000000000000000000815260040161665f9061a330565b60405180910390fd5b616675858585858561879e565b5050505050565b6166a87f39956b7c3389ccaf0bb740101a210b85800de8876d5a625c92cc1e1b40da7e8e60001b614a8d565b6166d47f483c31992dad804ea35dcdfbedb5e0453673e7e0afc19d9bdf1d427ca15bc8a560001b614a8d565b6167007f8cbf7a6bc50d591945297b4f4500efe916448caeb1d1c26a26b40f728a99f1ae60001b614a8d565b600061019660009054906101000a900473ffffffffffffffffffffffffffffffffffffffff1673ffffffffffffffffffffffffffffffffffffffff166399d5121b836040518263ffffffff1660e01b815260040161675e919061934b565b608060405180830381865afa15801561677b573d6000803e3d6000fd5b505050506040513d601f19601f8201168201806040525081019061679f9190619e20565b90506167cd7f5842b24c8e641fafb070da70ebc32cabd89937dd0b68379a4c776005aa893a7460001b614a8d565b6167f97f38b7545cbccf28307268fd7d70fa797ceb26d4f890e0ff9cc4d313d0583aae2c60001b614a8d565b6168257f0b2a31d52d40b1b2d5101ed07986b110b76c8b67824169ebe74d1f5a59a9568e60001b614a8d565b600081600001510361686c576040517f08c379a00000000000000000000000000000000000000000000000000000000081526004016168639061a49a565b60405180910390fd5b6168987f02885c9b14d261c1850e71aa90b069d6217870d38bbbdcfb38442065cf34901e60001b614a8d565b6168c47f01afa290818e0df5fc2c52cf666141d029238837d9999ea8c40d161582b9846c60001b614a8d565b6168f07f2b9ccb73d88a382c3e35063df02c08bd52d2715db2840754a935ab209f2cd49d60001b614a8d565b6000816020015190506169257f4601a45a05b0e1a17ccccc70b4cf4c823f3fea7be7aeb1f88c2434c726efa22a60001b614a8d565b6169517fd1faf8f25d403f3bdc1c866f9ac540fc1e83b1ba817b5bb3d2cdbc471fa2615460001b614a8d565b600073ffffffffffffffffffffffffffffffffffffffff168173ffffffffffffffffffffffffffffffffffffffff1603616a0f576169b17f9d26118c7d2fab0ffc04cba2bc5aed589bfce94991ce9d35a62ce116ec09fd0e60001b614a8d565b6169dd7f84e5101bab850bb914295403fc524bdb2d68f50d7c4a9b50be1dc9a345c30bf560001b614a8d565b6040517fd870705200000000000000000000000000000000000000000000000000000000815260040160405180910390fd5b616a3b7fc9643817ef9a8ac1b675f9f3b4825b1e8eb6b43c527e00d5d5b43ee43518f2b560001b614a8d565b616a677f726c02911774b5878f76ed5d85c1a394432434836974d776a5e76621f762ba8b60001b614a8d565b616a937f4d6d0150be8e16a3f8e6e5862eb37278b7a6072f79a33f9cc65c209c1a7bc4c960001b614a8d565b616abf7f91f1d3cd139d5ada793a4dffed9ea31cef5e3f1eab2b4308edce174f6408c2a260001b614a8d565b616ad483610193618a3c90919063ffffffff16565b616b13576040517f08c379a0000000000000000000000000000000000000000000000000000000008152600401616b0a9061a4d8565b60405180910390fd5b616b3f7f35ab2937180063c64066182042c6d9705fefda112f546092701b30d14b14cede60001b614a8d565b616b6b7f3c71ff2dcc862989903386fe61fae853e419930647bbceb88bc8aadf150bd51d60001b614a8d565b616b977f2942c61c72c3256d94cd1385c96a1f1da6c2a97631775b98095f55b856bfe75460001b614a8d565b600061019260008581526020019081526020016000209050616bdb7f0ea25c03af9d0bc8e168bfce39824413753cc7dd7911851c841d21ba62426beb60001b614a8d565b616c077f359798dbd001d35b8f4fd062109dba00fbe28cb5b4b71a2f4eb99e79cb65dabf60001b614a8d565b6000616c1b84604001518560600151613d87565b9050616c497ff0834fda2633160efff80651d1a58c40f948f516f0ec4463e8b8f3ce582407e060001b614a8d565b616c757f4918f60966ce619b3517656a2e8c1345a460d1d94f386963a423a1755850ae2160001b614a8d565b616ca17fa0e8759e19950686d3f63247c259e748f6b9c96de8a9220140f7f2ce3f7945bb60001b614a8d565b60008103616ce4576040517f08c379a0000000000000000000000000000000000000000000000000000000008152600401616cdb9061a516565b60405180910390fd5b616d107fea39852ceedf275301fce799920daeb4b0c253e74edac3c44157076ffa34d11b60001b614a8d565b616d3c7f1d702d74001c6a0f5f9ebb2843e00a3815a2649af4fe901a2600bd62220c0a8360001b614a8d565b616d687fcdd7d017b8cd65a6e0d7dfd3fbfd0affa5eff52e09f39ec7bd62afb42a038c8760001b614a8d565b60018260030160006101000a81548160ff021916908315150217905550616db17f266af32c3ab5605adf0863dd3820cd4d87ca6c467099c6e7739b573b4015fb2b60001b614a8d565b616ddd7f63d198d96ce31a1322042d43d4e4b4bb454e71b60317b45cccb4a2500a18064260001b614a8d565b83600001518260000181905550616e167f87e5c783a19317b327d9c2b149f498f72006b7c0087a610a43e88c420385b72a60001b614a8d565b616e427f6dc73e9724c6eae5641b273454a54c039bb476053de6ac5721323a63d1c63d5c60001b614a8d565b808460000151616e529190619ea8565b8260010181905550616e867fb75c60f2127e9d6bc3fca76d459275c3b59349814d2a42232f9894dd7d63342e60001b614a8d565b616eb27f04089ec55946dcef530abcaa5282102d3306a98bb32e0f85554df338ca604a9a60001b614a8d565b847fc6bf85d136b95579125a47c9781847cacd55015777db8a853dd17946aed35fb283600001548460010154604051616eec92919061a250565b60405180910390a25050505050565b60007f7965db0b000000000000000000000000000000000000000000000000000000007bffffffffffffffffffffffffffffffffffffffffffffffffffffffff1916827bffffffffffffffffffffffffffffffffffffffffffffffffffffffff19161480616f6e5750616f6d82618a56565b5b9050919050565b60606000600167ffffffffffffffff811115616f9457616f936196aa565b5b604051908082528060200260200182016040528015616fc25781602001602082028036833780820191505090505b5090508281600081518110616fda57616fd9619f0e565b5b60200260200101818152505080915050919050565b61701b7ffbf0c7debb84032b98af989d1487dc3cc0e5bfbcd652df0a3ccf41968d5842ef60001b614a8d565b6170477f0789edb57729808526cfc49eeb84e9e718972783acc7345fcb81134337bcacf260001b614a8d565b6170737f87387f484ecfc49c6dd30f86c02648239b745e3571eaf9e5c79d62695ed6e6fb60001b614a8d565b60008073ffffffffffffffffffffffffffffffffffffffff168573ffffffffffffffffffffffffffffffffffffffff161490506170d27fc7179a5237de2796890eda3d1e1308e537a83292557308d471dd6a078da0e5ff60001b614a8d565b6170fe7f8812bd889abfb0fc470796e41ea75632c03c1a5ac9954052248b70ff4e4f546c60001b614a8d565b600081801561713857508773ffffffffffffffffffffffffffffffffffffffff168773ffffffffffffffffffffffffffffffffffffffff16145b90506171667f50a418839c87ed9b5253de927e88542162b93f26760fcc82097025b238c5f32060001b614a8d565b6171927fd52baef41f1e38bfbe8fd088da2f1dbdb53d620a8519d445110bb1606fe6658960001b614a8d565b81156175ad576171c47f5c3768b3dac53c87d6a3acd9b98b102d41de621fbb709319a9b7197b10887ffb60001b614a8d565b6171f07f3640c1ce019509d965f8e731527199381c279d14bb3295ddd75f8ce3b9d9629260001b614a8d565b61721c7f989b649993a9710f485e898ae5fcbaa1872f60416d5b0938f924f10a8bbf880360001b614a8d565b60005b85518110156175a7576172547f6f1891f2e44f7426e2fb738b02c33897b3251c58b026cf46a0b1fa7ac5387ccd60001b614a8d565b6172807f4d0d34f2170d6f9e4f7265366037292bec0e6c9cadd75da32c3354dd328ae04960001b614a8d565b600086828151811061729557617294619f0e565b5b602002602001015190506172cb7f46607a63181ccfa64a433a6f6b941093207aa21c639c6fcc77abe0f2da6510f560001b614a8d565b6172f77f15d5257480b607078b212c63fc21e51c881ce0e3a2387900522aaaa412834f6b60001b614a8d565b8215617474576173297fae2a6983bff32193f48be0acb83d9ad0d1584492850ea72176742c1ca4a4366060001b614a8d565b6173557fb0bf761fb7a9028b546e77da9e4141f4af99f9731166bc7694ce0634fb79250460001b614a8d565b6173817f44cdd2b642c815c699c29b8c77178a1cf0598b7a1d0fc94e5c6553c01332ff6360001b614a8d565b61738b818a612341565b86838151811061739e5761739d619f0e565b5b60200260200101511115617443576173d87f0e7ec4da751d4842915eb921340dcd809578f357d5ea5f299a6f190d46cfbf6d60001b614a8d565b6174047f5ed9b1ee2edbcd769bd3500e050c224910f03d5ce2f4f6927feb4d8b9c66500d60001b614a8d565b88816040517fe1b8b25f00000000000000000000000000000000000000000000000000000000815260040161743a929190619ec7565b60405180910390fd5b61746f7fd4ced378949fd021f26d238f9cc9cb1de1f8400c891380964bc908026c10114d60001b614a8d565b6174a1565b6174a07fdd1e06b2b7a8b626ba9654e07d15c784edce826481b2363d02ce2da28b4726c160001b614a8d565b5b6174cd7fa9e05060d9754f2f6e5e728d7a5d7da8388eb257b5b9696655a67a08e66224f760001b614a8d565b6174f97f339d622a9727ea04de4f310fac4870259394f77cf1625eabd981f2711114e41460001b614a8d565b60006101926000838152602001908152602001600020905061753d7fd881c9b16d4dbd81c3816b6a7ffbeb6195d5bdc937b5d3d55baa4e2f19d6610260001b614a8d565b6175697f687f71cd18e2f67248a0acaf3ada1c48c4594ce45de52839b2ede4aeb8008e5460001b614a8d565b61758a826101926000858152602001908152602001600020600501546151be565b81600501819055505050808061759f90619f24565b91505061721f565b506175da565b6175d97f671b83046effde0a52ce4372c758650d6d00c59e0f79fbbff8aa667f57885c1c60001b614a8d565b5b6176067f635116d6a35ac95f1a659098874b3327b062e09160c429b68ac204ef3704d77360001b614a8d565b6176327f426be393ad151d8af3f78859fbce1605ac7853dd44c1b01249ff4de1a5fd3ff960001b614a8d565b617640888888888888618b38565b5050505050505050565b505050505050565b6176718473ffffffffffffffffffffffffffffffffffffffff1661528d565b15617821578373ffffffffffffffffffffffffffffffffffffffff1663f23a6e6187878686866040518663ffffffff1660e01b81526004016176b795949392919061a554565b6020604051808303816000875af19250505080156176f357506040513d601f19601f820116820180604052508101906176f0919061a597565b60015b617798576176ff61a5be565b806308c379a00361775b575061771361a5db565b8061771e575061775d565b806040517f08c379a00000000000000000000000000000000000000000000000000000000081526004016177529190619434565b60405180910390fd5b505b6040517f08c379a000000000000000000000000000000000000000000000000000000000815260040161778f9061a669565b60405180910390fd5b63f23a6e6160e01b7bffffffffffffffffffffffffffffffffffffffffffffffffffffffff1916817bffffffffffffffffffffffffffffffffffffffffffffffffffffffff19161461781f576040517f08c379a00000000000000000000000000000000000000000000000000000000081526004016178169061a6cd565b60405180910390fd5b505b505050505050565b60006178358383618d08565b61788e578260000182908060018154018082558091505060019003906000526020600020016000909190919091505582600001805490508360010160008481526020019081526020016000208190555060019050617893565b600090505b92915050565b600081600001805490509050919050565b60008260000182815481106178c2576178c1619f0e565b5b9060005260206000200154905092915050565b8151835114617919576040517f08c379a00000000000000000000000000000000000000000000000000000000081526004016179109061a731565b60405180910390fd5b600073ffffffffffffffffffffffffffffffffffffffff168473ffffffffffffffffffffffffffffffffffffffff1603617988576040517f08c379a000000000000000000000000000000000000000000000000000000000815260040161797f9061a795565b60405180910390fd5b6000617992614b0a565b90506179a2818787878787616fef565b60005b8451811015617b565760008582815181106179c3576179c2619f0e565b5b6020026020010151905060008583815181106179e2576179e1619f0e565b5b6020026020010151905060006065600084815260200190815260200160002060008b73ffffffffffffffffffffffffffffffffffffffff1673ffffffffffffffffffffffffffffffffffffffff16815260200190815260200160002054905081811015617a84576040517f08c379a0000000000000000000000000000000000000000000000000000000008152600401617a7b9061a7f9565b60405180910390fd5b8181036065600085815260200190815260200160002060008c73ffffffffffffffffffffffffffffffffffffffff1673ffffffffffffffffffffffffffffffffffffffff16815260200190815260200160002081905550816065600085815260200190815260200160002060008b73ffffffffffffffffffffffffffffffffffffffff1673ffffffffffffffffffffffffffffffffffffffff1681526020019081526020016000206000828254617b3b9190619ea8565b9250508190555050505080617b4f90619f24565b90506179a5565b508473ffffffffffffffffffffffffffffffffffffffff168673ffffffffffffffffffffffffffffffffffffffff168273ffffffffffffffffffffffffffffffffffffffff167f4a39dc06d4c0dbc64b70af90fd698a233a518aa5d07e595d983b8c0526c8f7fb8787604051617bcd92919061a85d565b60405180910390a4617be381878787878761764a565b617bf1818787878787618d2b565b505050505050565b60008083600101600084815260200190815260200160002054905060008114617d01576000600182617c2b919061a058565b9050600060018660000180549050617c43919061a058565b9050818114617cb2576000866000018281548110617c6457617c63619f0e565b5b9060005260206000200154905080876000018481548110617c8857617c87619f0e565b5b90600052602060002001819055508387600101600083815260200190815260200160002081905550505b85600001805480617cc657617cc561a88c565b5b600190038181906000526020600020016000905590558560010160008681526020019081526020016000206000905560019350505050617d07565b60009150505b92915050565b617d178282613ba9565b617da657617d3c8173ffffffffffffffffffffffffffffffffffffffff166014618f02565b617d4a8360001c6020618f02565b604051602001617d5b92919061a8a2565b6040516020818303038152906040526040517f08c379a0000000000000000000000000000000000000000000000000000000008152600401617d9d9190619434565b60405180910390fd5b5050565b617db48282613ba9565b617e8857600161012d600084815260200190815260200160002060000160008373ffffffffffffffffffffffffffffffffffffffff1673ffffffffffffffffffffffffffffffffffffffff16815260200190815260200160002060006101000a81548160ff021916908315150217905550617e2d614b0a565b73ffffffffffffffffffffffffffffffffffffffff168173ffffffffffffffffffffffffffffffffffffffff16837f2f8788117e7eff1d82e926ec794901d17c78024a50270940304540a733656f0d60405160405180910390a45b5050565b617e968282613ba9565b15617f6b57600061012d600084815260200190815260200160002060000160008373ffffffffffffffffffffffffffffffffffffffff1673ffffffffffffffffffffffffffffffffffffffff16815260200190815260200160002060006101000a81548160ff021916908315150217905550617f10614b0a565b73ffffffffffffffffffffffffffffffffffffffff168173ffffffffffffffffffffffffffffffffffffffff16837ff6391f5c32d9c69d2a47ea670b442974b53935d1edc7fd64eb21e047a839171b60405160405180910390a45b5050565b617f7761232a565b617fb6576040517f08c379a0000000000000000000000000000000000000000000000000000000008152600401617fad9061a929565b60405180910390fd5b565b6000617fe67f4498d9627ea582c9420cf26c7684d80920de03fc38ecafc1da1112fa40f5f7c260001b614a8d565b6180127fcd767486a2106e8024b0136bbf475dd0ebd77ea39affc6ef3e4b8ec4b101b7d360001b614a8d565b61803e7fe5fdac11e5a028c003de6115d6644f779e6ac31ef90d1de25a5414641d897b5260001b614a8d565b6000610192600084815260200190815260200160002090506180827f932b074dc4e9ae0a563cb3d70b75f19e51c271b8e6a0eec624e5e4888b58e51260001b614a8d565b6180ae7f27e9a8323300abd53af6f4f993954ebacbc0e5f75299ba61dd3e64e69371453160001b614a8d565b60006180dc7f8eeda944e92dc6cc203fe0ef022758d1a369b44dc4be0de09450d570f801423060001b614a8d565b6181087fc6a75046b342374cd8a5c9d603ed6f0564a68f2f538247b48bf006d9688674a760001b614a8d565b816001015442106181a75761813f7f0626df6dd3e7f52c8915a3761f236e9bd0fe36536623fec15300d23261ad27e160001b614a8d565b61816b7f59d69c0e861f1340476ab36e00f0654045b04761e0e94ada2aca67478cd3d1ea60001b614a8d565b6181977fb95e216b5d438dd49e20bbaee0d81d20970c1404a5cdb2c6f3178d8b2a3055bf60001b614a8d565b6181a084613e7c565b90506182e5565b6181d37f305048be1a3f4a1a1681f6d98643d18d345661c762cd05f69de631d7c188577c60001b614a8d565b6181ff7fd30b2212d6142cb341dadb43b1152eeef3cfee663734bbd28eced2cffc000bce60001b614a8d565b61822b7fc2a26ddaac41dea20d7c7efe2d68d10c6046f5c8d44667f30959076903176e1560001b614a8d565b600082600001548360010154618241919061a058565b905061826f7f99376eafd761381e3631f1e4b6a34d878335cc43c0e2bb12833a99fc3b5585b760001b614a8d565b61829b7ffc97d2ba2d279c75b2e725302026aee6ebe8ff5c13462ea983b49acba7f702d560001b614a8d565b826000015442106182de57808360000154426182b7919061a058565b6182c585600201548861511c565b6182cf919061a00a565b6182d9919061a030565b6182e1565b60005b9150505b6183117f9580e6b0b664c5a2841de695d07ddc31d37f47f40ae513c2911f445292d3227a60001b614a8d565b61833d7fd7213c1cac2ef96f0c14b8db70e9c855f1417ca2c5f3be541f4decea50edcce960001b614a8d565b8092505050919050565b6000818310156183575781618359565b825b905092915050565b8060679081618370919061a9e5565b5050565b606060006183848360000161913e565b905060608190508092505050919050565b60006183c37fbc6439708ff20671e2592e82a30fd8d18acdb16d06cdaa6fd6b9c83366d2d1b260001b614a8d565b6183ef7fdfc1d3781283fe89abe22e20df2228865a06069914f8aa25da7b475c7b730a1e60001b614a8d565b61841b7fddb0d32eda89be3ee103947bb18328b85386e11040ef546892cdbe383f5299b160001b614a8d565b60006101926000868152602001908152602001600020905061845f7f744d63771c884eda3c2f5cf2b6bb668fa13acaa8eecdd49d29645cc1abf4f3cb60001b614a8d565b61848b7f50d3f6eb7aa8895a1b8ca2e0669b8573fe99decd2bb944415ea48e93ebed669360001b614a8d565b600061849b82600201548761511c565b90506184c97f83131133194ae069a154a204837535053a198dd2b929b758c6fe4413b254808460001b614a8d565b6184f57f182288308c8c4d72ad9926c74e57710ad66bd9bdbf4468f69c7d042ca727ec0c60001b614a8d565b60006185237fd1e2c45dbc4169fcefb10c1766ca107639b4e6ee265dabe9d29af4ffaff0e64f60001b614a8d565b61854f7ffb718a07a71386f18252e2c6bf1d8fa044800f41d3d91404bad41fef50e4923760001b614a8d565b600082148061855e5750600088145b156185f05761858f7fb7b87df77ff14d99519597bb18e82ecd222bf745c4886d1bfcb32567eb1abaec60001b614a8d565b6185bb7f11677f9741de7d8f8f5dde9664873cf7f9baf3fe87ccbcbc793f3441b4fc523a60001b614a8d565b6185e77f2dc5f057d2d3ddab4b759e2aec734c28128968ad1a14bb3ca395063b43509fbd60001b614a8d565b60009050618738565b61861c7fb9a6217bbcaf3d25640fb23337c2cd0a18e7698cbbda1e9b78140eb63e29e73e60001b614a8d565b6186487f6667507d160fee82d59489d28e5a7f7b11ef569ff319d588545735cf60dcd94d60001b614a8d565b6186747fef4d35c42611f222142af5b8b5693f612f5a6fba8ae763f6cf05d296b54ecab860001b614a8d565b60008360080160008873ffffffffffffffffffffffffffffffffffffffff1673ffffffffffffffffffffffffffffffffffffffff1681526020019081526020016000205490506186e67f04a6ca54ced53d1e9f19c42b250751ad4743f8fdde27988993b0dce99cb648b260001b614a8d565b6187127f1e4c7c92b3e0169af4fb06fe8df29e5032f1a10422c944f882da82a0bfdde31f60001b614a8d565b828987836187209190619ea8565b61872a919061a00a565b618734919061a030565b9150505b6187647f68abe101d18d149c832962b02c6a5511956990b499ee8f6977f7e6898c4d638260001b614a8d565b6187907fff5a581867bed1aa2d90bb8df4c34013279504703d204df4ad0399598ac1105360001b614a8d565b809350505050949350505050565b600073ffffffffffffffffffffffffffffffffffffffff168473ffffffffffffffffffffffffffffffffffffffff160361880d576040517f08c379a00000000000000000000000000000000000000000000000000000000081526004016188049061a795565b60405180910390fd5b6000618817614b0a565b9050600061882485616f75565b9050600061883185616f75565b9050618841838989858589616fef565b60006065600088815260200190815260200160002060008a73ffffffffffffffffffffffffffffffffffffffff1673ffffffffffffffffffffffffffffffffffffffff168152602001908152602001600020549050858110156188d9576040517f08c379a00000000000000000000000000000000000000000000000000000000081526004016188d09061a7f9565b60405180910390fd5b8581036065600089815260200190815260200160002060008b73ffffffffffffffffffffffffffffffffffffffff1673ffffffffffffffffffffffffffffffffffffffff16815260200190815260200160002081905550856065600089815260200190815260200160002060008a73ffffffffffffffffffffffffffffffffffffffff1673ffffffffffffffffffffffffffffffffffffffff16815260200190815260200160002060008282546189909190619ea8565b925050819055508773ffffffffffffffffffffffffffffffffffffffff168973ffffffffffffffffffffffffffffffffffffffff168573ffffffffffffffffffffffffffffffffffffffff167fc3d58168c5ae7397731d063d5bbf3d657854427343f4c083240f7aacaa2d0f628a8a604051618a0d92919061a250565b60405180910390a4618a23848a8a86868a61764a565b618a31848a8a8a8a8a617652565b505050505050505050565b6000618a4e836000018360001b617829565b905092915050565b60007fd9b67a26000000000000000000000000000000000000000000000000000000007bffffffffffffffffffffffffffffffffffffffffffffffffffffffff1916827bffffffffffffffffffffffffffffffffffffffffffffffffffffffff19161480618b2157507f0e89341c000000000000000000000000000000000000000000000000000000007bffffffffffffffffffffffffffffffffffffffffffffffffffffffff1916827bffffffffffffffffffffffffffffffffffffffffffffffffffffffff1916145b80618b315750618b308261919a565b5b9050919050565b618b46868686868686619204565b600073ffffffffffffffffffffffffffffffffffffffff168573ffffffffffffffffffffffffffffffffffffffff1603618bf75760005b8351811015618bf557828181518110618b9957618b98619f0e565b5b602002602001015160fb6000868481518110618bb857618bb7619f0e565b5b602002602001015181526020019081526020016000206000828254618bdd9190619ea8565b9250508190555080618bee90619f24565b9050618b7d565b505b600073ffffffffffffffffffffffffffffffffffffffff168473ffffffffffffffffffffffffffffffffffffffff1603618d005760005b8351811015618cfe576000848281518110618c4c57618c4b619f0e565b5b602002602001015190506000848381518110618c6b57618c6a619f0e565b5b60200260200101519050600060fb600084815260200190815260200160002054905081811015618cd0576040517f08c379a0000000000000000000000000000000000000000000000000000000008152600401618cc79061aaaf565b60405180910390fd5b81810360fb60008581526020019081526020016000208190555050505080618cf790619f24565b9050618c2e565b505b505050505050565b600080836001016000848152602001908152602001600020541415905092915050565b618d4a8473ffffffffffffffffffffffffffffffffffffffff1661528d565b15618efa578373ffffffffffffffffffffffffffffffffffffffff1663bc197c8187878686866040518663ffffffff1660e01b8152600401618d9095949392919061ab13565b6020604051808303816000875af1925050508015618dcc57506040513d601f19601f82011682018060405250810190618dc9919061a597565b60015b618e7157618dd861a5be565b806308c379a003618e345750618dec61a5db565b80618df75750618e36565b806040517f08c379a0000000000000000000000000000000000000000000000000000000008152600401618e2b9190619434565b60405180910390fd5b505b6040517f08c379a0000000000000000000000000000000000000000000000000000000008152600401618e689061a669565b60405180910390fd5b63bc197c8160e01b7bffffffffffffffffffffffffffffffffffffffffffffffffffffffff1916817bffffffffffffffffffffffffffffffffffffffffffffffffffffffff191614618ef8576040517f08c379a0000000000000000000000000000000000000000000000000000000008152600401618eef9061a6cd565b60405180910390fd5b505b505050505050565b606060006002836002618f15919061a00a565b618f1f9190619ea8565b67ffffffffffffffff811115618f3857618f376196aa565b5b6040519080825280601f01601f191660200182016040528015618f6a5781602001600182028036833780820191505090505b5090507f300000000000000000000000000000000000000000000000000000000000000081600081518110618fa257618fa1619f0e565b5b60200101907effffffffffffffffffffffffffffffffffffffffffffffffffffffffffffff1916908160001a9053507f78000000000000000000000000000000000000000000000000000000000000008160018151811061900657619005619f0e565b5b60200101907effffffffffffffffffffffffffffffffffffffffffffffffffffffffffffff1916908160001a90535060006001846002619046919061a00a565b6190509190619ea8565b90505b60018111156190f0577f3031323334353637383961626364656600000000000000000000000000000000600f86166010811061909257619091619f0e565b5b1a60f81b8282815181106190a9576190a8619f0e565b5b60200101907effffffffffffffffffffffffffffffffffffffffffffffffffffffffffffff1916908160001a905350600485901c9450806190e99061ab71565b9050619053565b5060008414619134576040517f08c379a000000000000000000000000000000000000000000000000000000000815260040161912b9061ab8d565b60405180910390fd5b8091505092915050565b60608160000180548060200260200160405190810160405280929190818152602001828054801561918e57602002820191906000526020600020905b81548152602001906001019080831161917a575b50505050509050919050565b60007f01ffc9a7000000000000000000000000000000000000000000000000000000007bffffffffffffffffffffffffffffffffffffffffffffffffffffffff1916827bffffffffffffffffffffffffffffffffffffffffffffffffffffffff1916149050919050565b619212868686868686619262565b61921a61232a565b1561925a576040517f08c379a00000000000000000000000000000000000000000000000000000000081526004016192519061abca565b60405180910390fd5b505050505050565b505050505050565b60405180610120016040528060008152602001600081526020016000815260200160008152602001600081526020016000815260200160008152602001606081526020016000151581525090565b6040518060c00160405280600073ffffffffffffffffffffffffffffffffffffffff16815260200160008152602001600081526020016000815260200160008152602001600081525090565b60018060a01b038116811461931857600080fd5b50565b6000806040838503121561932e57600080fd5b823561933981619304565b80925050602083013590509250929050565b600060208201905082825292915050565b63ffffffff60e01b8116811461937157600080fd5b50565b60006020828403121561938657600080fd5b81356193918161935c565b8091505092915050565b80151582525050565b6000602082019050821515825292915050565b6000602082840312156193c957600080fd5b8135905092915050565b60005b838110156193f15780820151818401526020810190506193d6565b83811115619400576000848401525b50505050565b6000815180845261941e8160208601602086016193d3565b6020601f19601f83011685010191505092915050565b6020815260006194476020830184619406565b905092915050565b6000806040838503121561946257600080fd5b82359150602083013590509250929050565b600060208201905082825292915050565b60006020828403121561949757600080fd5b8135905092915050565b6000806000606084860312156194b657600080fd5b83356194c181619304565b8093505060208401359150604084013590509250925092565b60008083601f8401126194ec57600080fd5b8235905067ffffffffffffffff81111561950557600080fd5b6020830191508360208260051b850101111561952057600080fd5b9250929050565b6000806020838503121561953a57600080fd5b823567ffffffffffffffff81111561955157600080fd5b61955d858286016194da565b915080935050809150509250929050565b6000610120808401835185526020808501518187015260408501516040870152606085015160608701526080850151608087015260a085015160a087015260c085015160c087015260e08501518360e08801528293508051808452610140880194508282019350600091505b808210156196035760018060a01b038451168552828501945082840193506001820191506195da565b505050506101008084015161961a8287018261939b565b50508091505092915050565b6000602080830181845280855180835260408601915060408160051b870101925083870160005b8281101561968057603f1988860301845261966985835161956e565b94508582019150858401935060018101905061964d565b50505050809250505092915050565b6020815260006196a2602083018461956e565b905092915050565b634e487b7160e01b600052604160045260246000fd5b601f19601f830116810181811067ffffffffffffffff821117156196e7576196e66196aa565b5b80604052505050565b600067ffffffffffffffff82111561970b5761970a6196aa565b5b60208260051b019050919050565b600082601f83011261972a57600080fd5b81356020619737826196f0565b60405161974482826196c0565b8091508381528281019150828460051b87010193508684111561976657600080fd5b8286015b8481101561978557803583528383019250838101905061976a565b508094505050505092915050565b600082601f8301126197a457600080fd5b813567ffffffffffffffff8111156197bf576197be6196aa565b5b6040516197d66020601f19601f85011601826196c0565b8181528460208386010111156197eb57600080fd5b81602085016020830137600060208383010152809250505092915050565b600080600080600060a0868803121561982157600080fd5b853561982c81619304565b80955050602086013561983e81619304565b80945050604086013567ffffffffffffffff8082111561985d57600080fd5b61986989838a01619719565b9450606088013591508082111561987f57600080fd5b61988b89838a01619719565b935060808801359150808211156198a157600080fd5b506198ae88828901619793565b9150509295509295909350565b600080604083850312156198ce57600080fd5b8235915060208301356198e081619304565b809150509250929050565b600080604083850312156198fe57600080fd5b823567ffffffffffffffff8082111561991657600080fd5b818501915085601f83011261992a57600080fd5b81356020619937826196f0565b60405161994482826196c0565b8091508381528281019150828460051b87010193508984111561996657600080fd5b82860195505b8386101561999257853561997f81619304565b808352508282019150828601955061996c565b80975050508087013593505050808211156199ac57600080fd5b506199b985828601619719565b9150509250929050565b600081518084526020808501945080840160005b838110156199f85781518752828701965082820191506001810190506199d7565b5050505082905092915050565b602081526000619a1860208301846199c3565b905092915050565b60008060408385031215619a3357600080fd5b823591506020830135619a4581619304565b809150509250929050565b60018060a01b0381511682526020810151602083015260408101516040830152606081015160608301526080810151608083015260a081015160a08301525050565b600060c082019050619aa48284619a50565b92915050565b60008060408385031215619abd57600080fd5b8235619ac881619304565b80925050602083013567ffffffffffffffff811115619ae657600080fd5b619af285828601619719565b9150509250929050565b60006020808301818452808551808352604086019150838701925060005b81811015619b4357619b2d838551619a50565b60c0830192508484019350600181019050619b1a565b505080935050505092915050565b60008060408385031215619b6457600080fd5b82359150602083013590509250929050565b600060208201905060018060a01b038316825292915050565b60008060408385031215619ba257600080fd5b8235619bad81619304565b809250506020830135619bbf81619304565b809150509250929050565b8015158114619bd857600080fd5b50565b60008060408385031215619bee57600080fd5b8235619bf981619304565b809250506020830135619c0b81619bca565b809150509250929050565b600080600060608486031215619c2b57600080fd5b8335925060208401359150604084013590509250925092565b60008060008060008060608789031215619c5d57600080fd5b863567ffffffffffffffff80821115619c7557600080fd5b619c818a838b016194da565b9250809850508196506020890135915080821115619c9e57600080fd5b619caa8a838b016194da565b9250809650508194506040890135915080821115619cc757600080fd5b50619cd489828a016194da565b915080935050809150509295509295509295565b600080600080600060a08688031215619d0057600080fd5b8535619d0b81619304565b809550506020860135619d1d81619304565b809450506040860135925060608601359150608086013567ffffffffffffffff811115619d4957600080fd5b619d5588828901619793565b9150509295509295909350565b60208152602a60208201527f455243313135353a2061646472657373207a65726f206973206e6f742061207660408201527f616c6964206f776e65720000000000000000000000000000000000000000000060608201526000608082019050919050565b60008160011c90506001821680619dde57607f821691505b602082108103619dfe57634e487b7160e01b600052602260045260246000fd5b50919050565b600060208284031215619e1657600080fd5b8151905092915050565b600060808284031215619e3257600080fd5b6040516080810181811067ffffffffffffffff82111715619e5657619e556196aa565b5b8060405250825181526020830151619e6d81619304565b8060208301525060408301516040820152606083015160608201528091505092915050565b634e487b7160e01b600052601160045260246000fd5b60008219821115619ebc57619ebb619e92565b5b828201905092915050565b600060408201905060018060a01b03841682528260208301529392505050565b600060208284031215619ef957600080fd5b8151619f0481619bca565b8091505092915050565b634e487b7160e01b600052603260045260246000fd5b600080198203619f3757619f36619e92565b5b600182019050919050565b60208152602f60208201527f416363657373436f6e74726f6c3a2063616e206f6e6c792072656e6f756e636560408201527f20726f6c657320666f722073656c66000000000000000000000000000000000060608201526000608082019050919050565b60208152602960208201527f455243313135353a206163636f756e747320616e6420696473206c656e67746860408201527f206d69736d61746368000000000000000000000000000000000000000000000060608201526000608082019050919050565b600081600019048311821515161561a0255761a024619e92565b5b828202905092915050565b60008261a04d57634e487b7160e01b600052601260045260246000fd5b828204905092915050565b60008282101561a06b5761a06a619e92565b5b828203905092915050565b60208152602e60208201527f496e697469616c697a61626c653a20636f6e747261637420697320616c72656160408201527f647920696e697469616c697a656400000000000000000000000000000000000060608201526000608082019050919050565b600060208201905060ff8316825292915050565b600c81527f66726f6d4163636f756e7473000000000000000000000000000000000000000060208201526000604082019050919050565b60408152600061a1376040830161a0ee565b8281036020840152600a81527f72656d6f76616c49647300000000000000000000000000000000000000000000602082015260408101915050919050565b60408152600061a1876040830161a0ee565b8281036020840152600781527f616d6f756e747300000000000000000000000000000000000000000000000000602082015260408101915050919050565b60006020828403121561a1d757600080fd5b813561a1e281619304565b8091505092915050565b60208152602160208201527f455243313135353a206d696e7420746f20746865207a65726f2061646472657360408201527f730000000000000000000000000000000000000000000000000000000000000060608201526000608082019050919050565b60006040820190508382528260208301529392505050565b60208152602360208201527f455243313135353a206275726e2066726f6d20746865207a65726f206164647260408201527f657373000000000000000000000000000000000000000000000000000000000060608201526000608082019050919050565b60208152602460208201527f455243313135353a206275726e20616d6f756e7420657863656564732062616c60408201527f616e63650000000000000000000000000000000000000000000000000000000060608201526000608082019050919050565b60208152602f60208201527f455243313135353a2063616c6c6572206973206e6f7420746f6b656e206f776e60408201527f6572206e6f7220617070726f766564000000000000000000000000000000000060608201526000608082019050919050565b60208152602b60208201527f496e697469616c697a61626c653a20636f6e7472616374206973206e6f74206960408201527f6e697469616c697a696e6700000000000000000000000000000000000000000060608201526000608082019050919050565b60208152602960208201527f455243313135353a2073657474696e6720617070726f76616c2073746174757360408201527f20666f722073656c66000000000000000000000000000000000000000000000060608201526000608082019050919050565b60208152601060208201527f5061757361626c653a207061757365640000000000000000000000000000000060408201526000606082019050919050565b60208152601860208201527f496e76616c69645363686564756c65537461727454696d65000000000000000060408201526000606082019050919050565b60208152600f60208201527f5363686564756c6520657869737473000000000000000000000000000000000060408201526000606082019050919050565b60208152601c60208201527f5265737472696374696f6e206475726174696f6e206e6f74207365740000000060408201526000606082019050919050565b600060018060a01b03808816835280871660208401525084604083015283606083015260a0608083015261a58b60a0830184619406565b90509695505050505050565b60006020828403121561a5a957600080fd5b815161a5b48161935c565b8091505092915050565b600060033d111561a5d85760046000803e60005160e01c90505b90565b600060443d1061a66657604051600319803d016004833e81513d67ffffffffffffffff816024840111818411171561a61757505050505061a666565b828501915081518181111561a6315750505050505061a666565b843d870101602082850101111561a64d5750505050505061a666565b61a65c602082860101876196c0565b5050809450505050505b90565b60208152603460208201527f455243313135353a207472616e7366657220746f206e6f6e204552433131353560408201527f526563656976657220696d706c656d656e74657200000000000000000000000060608201526000608082019050919050565b60208152602860208201527f455243313135353a204552433131353552656365697665722072656a6563746560408201527f6420746f6b656e7300000000000000000000000000000000000000000000000060608201526000608082019050919050565b60208152602860208201527f455243313135353a2069647320616e6420616d6f756e7473206c656e6774682060408201527f6d69736d6174636800000000000000000000000000000000000000000000000060608201526000608082019050919050565b60208152602560208201527f455243313135353a207472616e7366657220746f20746865207a65726f20616460408201527f647265737300000000000000000000000000000000000000000000000000000060608201526000608082019050919050565b60208152602a60208201527f455243313135353a20696e73756666696369656e742062616c616e636520666f60408201527f72207472616e736665720000000000000000000000000000000000000000000060608201526000608082019050919050565b60408152600061a87060408301856199c3565b828103602084015261a88281856199c3565b9150509392505050565b634e487b7160e01b600052603160045260246000fd5b7f416363657373436f6e74726f6c3a206163636f756e742000000000000000000081526000835161a8da8160178501602088016193d3565b80830190507f206973206d697373696e6720726f6c65200000000000000000000000000000006017820152835161a9188160288401602088016193d3565b602881830101925050509392505050565b60208152601460208201527f5061757361626c653a206e6f742070617573656400000000000000000000000060408201526000606082019050919050565b806000525060006020600020905090565b601f82111561a9c657600081815260208120601f850160051c8101602086101561a9a0578190505b601f850160051c820191505b8181101561a9c25782815560018101905061a9ac565b5050505b505050565b60008260011b6000198460031b1c19831617905092915050565b815167ffffffffffffffff81111561aa005761a9ff6196aa565b5b61aa148161aa0e8454619dc6565b8461a978565b60006020809150601f83116001811461aa48576000841561aa36578387015190505b61aa40858261a9cb565b86555061aaa7565b601f19841661aa568661a967565b60005b8281101561aa7c578589015182556001820191508486019550848101905061aa59565b508582101561aa9b578488015160001960f88860031b161c1981168255505b505060018460011b0185555b505050505050565b60208152602860208201527f455243313135353a206275726e20616d6f756e74206578636565647320746f7460408201527f616c537570706c7900000000000000000000000000000000000000000000000060608201526000608082019050919050565b600060018060a01b03808816835280871660208401525060a0604083015261ab3e60a08301866199c3565b828103606084015261ab5081866199c3565b9050828103608084015261ab648185619406565b9150509695505050505050565b60008161ab815761ab80619e92565b5b60001982019050919050565b602081526020808201527f537472696e67733a20686578206c656e67746820696e73756666696369656e7460408201526000606082019050919050565b60208152602c60208201527f455243313135355061757361626c653a20746f6b656e207472616e736665722060408201527f7768696c652070617573656400000000000000000000000000000000000000006060820152600060808201905091905056fe68747470733a2f2f6e6f72692e636f6d2f6170692f7265737472696374696f6e7363686564756c652f7b69647d2e6a736f6ea26469706673582212204d2d1fd1765c526818cdd4594395d05eadb2f6377bab51254c1baf72de36db0364736f6c634300080f0033",
  "linkReferences": {},
  "deployedLinkReferences": {}
}