{
  "_format": "hh-sol-artifact-1",
  "contractName": "RestrictedNORI",
  "sourceName": "contracts/RestrictedNORI.sol",
  "abi": [
    {
      "inputs": [
        {
          "internalType": "string",
          "name": "array1Name",
          "type": "string"
        },
        {
          "internalType": "string",
          "name": "array2Name",
          "type": "string"
        }
      ],
      "name": "ArrayLengthMismatch",
      "type": "error"
    },
    {
      "inputs": [],
      "name": "BurningNotSupported",
      "type": "error"
    },
    {
      "inputs": [
        {
          "internalType": "address",
          "name": "account",
          "type": "address"
        },
        {
          "internalType": "uint256",
          "name": "scheduleId",
          "type": "uint256"
        }
      ],
      "name": "InsufficientBalance",
      "type": "error"
    },
    {
      "inputs": [
        {
          "internalType": "address",
          "name": "account",
          "type": "address"
        },
        {
          "internalType": "uint256",
          "name": "scheduleId",
          "type": "uint256"
        }
      ],
      "name": "InsufficientClaimableBalance",
      "type": "error"
    },
    {
      "inputs": [
        {
          "internalType": "uint256",
          "name": "scheduleId",
          "type": "uint256"
        }
      ],
      "name": "InsufficientUnreleasedTokens",
      "type": "error"
    },
    {
      "inputs": [
        {
          "internalType": "address",
          "name": "account",
          "type": "address"
        }
      ],
      "name": "InvalidBpNoriSender",
      "type": "error"
    },
    {
      "inputs": [
        {
          "internalType": "uint256",
          "name": "projectId",
          "type": "uint256"
        }
      ],
      "name": "InvalidScheduleStartTime",
      "type": "error"
    },
    {
      "inputs": [],
      "name": "MintingNotSupported",
      "type": "error"
    },
    {
      "inputs": [
        {
          "internalType": "address",
          "name": "account",
          "type": "address"
        },
        {
          "internalType": "string",
          "name": "role",
          "type": "string"
        }
      ],
      "name": "MissingRole",
      "type": "error"
    },
    {
      "inputs": [
        {
          "internalType": "uint256",
          "name": "scheduleId",
          "type": "uint256"
        }
      ],
      "name": "NonexistentSchedule",
      "type": "error"
    },
    {
      "inputs": [],
      "name": "OperatorActionsNotSupported",
      "type": "error"
    },
    {
      "inputs": [],
      "name": "RecipientCannotBeZeroAddress",
      "type": "error"
    },
    {
      "inputs": [
        {
          "internalType": "address",
          "name": "recipient",
          "type": "address"
        },
        {
          "internalType": "string",
          "name": "role",
          "type": "string"
        }
      ],
      "name": "RecipientCannotHaveRole",
      "type": "error"
    },
    {
      "inputs": [
        {
          "internalType": "uint256",
          "name": "projectId",
          "type": "uint256"
        }
      ],
      "name": "RestrictionDurationNotSet",
      "type": "error"
    },
    {
      "inputs": [
        {
          "internalType": "address",
          "name": "account",
          "type": "address"
        },
        {
          "internalType": "string",
          "name": "role",
          "type": "string"
        }
      ],
      "name": "RoleCannotTransfer",
      "type": "error"
    },
    {
      "inputs": [
        {
          "internalType": "address",
          "name": "account",
          "type": "address"
        },
        {
          "internalType": "string",
          "name": "role",
          "type": "string"
        }
      ],
      "name": "RoleUnassignableToScheduleHolder",
      "type": "error"
    },
    {
      "inputs": [
        {
          "internalType": "uint256",
          "name": "scheduleTokenId",
          "type": "uint256"
        }
      ],
      "name": "ScheduleExists",
      "type": "error"
    },
    {
      "inputs": [],
      "name": "TokenSenderNotBPNORI",
      "type": "error"
    },
    {
      "anonymous": false,
      "inputs": [
        {
          "indexed": true,
          "internalType": "address",
          "name": "account",
          "type": "address"
        },
        {
          "indexed": true,
          "internalType": "address",
          "name": "operator",
          "type": "address"
        },
        {
          "indexed": false,
          "internalType": "bool",
          "name": "approved",
          "type": "bool"
        }
      ],
      "name": "ApprovalForAll",
      "type": "event"
    },
    {
      "anonymous": false,
      "inputs": [
        {
          "indexed": false,
          "internalType": "address",
          "name": "account",
          "type": "address"
        }
      ],
      "name": "Paused",
      "type": "event"
    },
    {
      "anonymous": false,
      "inputs": [
        {
          "indexed": true,
          "internalType": "bytes32",
          "name": "role",
          "type": "bytes32"
        },
        {
          "indexed": true,
          "internalType": "bytes32",
          "name": "previousAdminRole",
          "type": "bytes32"
        },
        {
          "indexed": true,
          "internalType": "bytes32",
          "name": "newAdminRole",
          "type": "bytes32"
        }
      ],
      "name": "RoleAdminChanged",
      "type": "event"
    },
    {
      "anonymous": false,
      "inputs": [
        {
          "indexed": true,
          "internalType": "bytes32",
          "name": "role",
          "type": "bytes32"
        },
        {
          "indexed": true,
          "internalType": "address",
          "name": "account",
          "type": "address"
        },
        {
          "indexed": true,
          "internalType": "address",
          "name": "sender",
          "type": "address"
        }
      ],
      "name": "RoleGranted",
      "type": "event"
    },
    {
      "anonymous": false,
      "inputs": [
        {
          "indexed": true,
          "internalType": "bytes32",
          "name": "role",
          "type": "bytes32"
        },
        {
          "indexed": true,
          "internalType": "address",
          "name": "account",
          "type": "address"
        },
        {
          "indexed": true,
          "internalType": "address",
          "name": "sender",
          "type": "address"
        }
      ],
      "name": "RoleRevoked",
      "type": "event"
    },
    {
      "anonymous": false,
      "inputs": [
        {
          "indexed": true,
          "internalType": "uint256",
          "name": "projectId",
          "type": "uint256"
        }
      ],
      "name": "ScheduleCreated",
      "type": "event"
    },
    {
      "anonymous": false,
      "inputs": [
        {
          "indexed": true,
          "internalType": "address",
          "name": "from",
          "type": "address"
        },
        {
          "indexed": true,
          "internalType": "address",
          "name": "to",
          "type": "address"
        },
        {
          "indexed": true,
          "internalType": "uint256",
          "name": "scheduleId",
          "type": "uint256"
        },
        {
          "indexed": false,
          "internalType": "uint256",
          "name": "quantity",
          "type": "uint256"
        }
      ],
      "name": "TokensClaimed",
      "type": "event"
    },
    {
      "anonymous": false,
      "inputs": [
        {
          "indexed": true,
          "internalType": "uint256",
          "name": "atTime",
          "type": "uint256"
        },
        {
          "indexed": true,
          "internalType": "uint256",
          "name": "removalId",
          "type": "uint256"
        },
        {
          "indexed": true,
          "internalType": "uint256",
          "name": "scheduleId",
          "type": "uint256"
        },
        {
          "indexed": false,
          "internalType": "uint256",
          "name": "quantity",
          "type": "uint256"
        }
      ],
      "name": "TokensRevoked",
      "type": "event"
    },
    {
      "anonymous": false,
      "inputs": [
        {
          "indexed": true,
          "internalType": "address",
          "name": "operator",
          "type": "address"
        },
        {
          "indexed": true,
          "internalType": "address",
          "name": "from",
          "type": "address"
        },
        {
          "indexed": true,
          "internalType": "address",
          "name": "to",
          "type": "address"
        },
        {
          "indexed": false,
          "internalType": "uint256[]",
          "name": "ids",
          "type": "uint256[]"
        },
        {
          "indexed": false,
          "internalType": "uint256[]",
          "name": "values",
          "type": "uint256[]"
        }
      ],
      "name": "TransferBatch",
      "type": "event"
    },
    {
      "anonymous": false,
      "inputs": [
        {
          "indexed": true,
          "internalType": "address",
          "name": "operator",
          "type": "address"
        },
        {
          "indexed": true,
          "internalType": "address",
          "name": "from",
          "type": "address"
        },
        {
          "indexed": true,
          "internalType": "address",
          "name": "to",
          "type": "address"
        },
        {
          "indexed": false,
          "internalType": "uint256",
          "name": "id",
          "type": "uint256"
        },
        {
          "indexed": false,
          "internalType": "uint256",
          "name": "value",
          "type": "uint256"
        }
      ],
      "name": "TransferSingle",
      "type": "event"
    },
    {
      "anonymous": false,
      "inputs": [
        {
          "indexed": false,
          "internalType": "string",
          "name": "value",
          "type": "string"
        },
        {
          "indexed": true,
          "internalType": "uint256",
          "name": "id",
          "type": "uint256"
        }
      ],
      "name": "URI",
      "type": "event"
    },
    {
      "anonymous": false,
      "inputs": [
        {
          "indexed": false,
          "internalType": "address",
          "name": "account",
          "type": "address"
        }
      ],
      "name": "Unpaused",
      "type": "event"
    },
    {
      "inputs": [],
      "name": "DEFAULT_ADMIN_ROLE",
      "outputs": [
        {
          "internalType": "bytes32",
          "name": "",
          "type": "bytes32"
        }
      ],
      "stateMutability": "view",
      "type": "function"
    },
    {
      "inputs": [],
      "name": "ERC777_TOKENS_RECIPIENT_HASH",
      "outputs": [
        {
          "internalType": "bytes32",
          "name": "",
          "type": "bytes32"
        }
      ],
      "stateMutability": "view",
      "type": "function"
    },
    {
      "inputs": [],
      "name": "MINTER_ROLE",
      "outputs": [
        {
          "internalType": "bytes32",
          "name": "",
          "type": "bytes32"
        }
      ],
      "stateMutability": "view",
      "type": "function"
    },
    {
      "inputs": [],
      "name": "PAUSER_ROLE",
      "outputs": [
        {
          "internalType": "bytes32",
          "name": "",
          "type": "bytes32"
        }
      ],
      "stateMutability": "view",
      "type": "function"
    },
    {
      "inputs": [],
      "name": "SCHEDULE_CREATOR_ROLE",
      "outputs": [
        {
          "internalType": "bytes32",
          "name": "",
          "type": "bytes32"
        }
      ],
      "stateMutability": "view",
      "type": "function"
    },
    {
      "inputs": [],
      "name": "TOKEN_REVOKER_ROLE",
      "outputs": [
        {
          "internalType": "bytes32",
          "name": "",
          "type": "bytes32"
        }
      ],
      "stateMutability": "view",
      "type": "function"
    },
    {
      "inputs": [
        {
          "internalType": "address",
          "name": "account",
          "type": "address"
        },
        {
          "internalType": "uint256",
          "name": "id",
          "type": "uint256"
        }
      ],
      "name": "balanceOf",
      "outputs": [
        {
          "internalType": "uint256",
          "name": "",
          "type": "uint256"
        }
      ],
      "stateMutability": "view",
      "type": "function"
    },
    {
      "inputs": [
        {
          "internalType": "address[]",
          "name": "accounts",
          "type": "address[]"
        },
        {
          "internalType": "uint256[]",
          "name": "ids",
          "type": "uint256[]"
        }
      ],
      "name": "balanceOfBatch",
      "outputs": [
        {
          "internalType": "uint256[]",
          "name": "",
          "type": "uint256[]"
        }
      ],
      "stateMutability": "view",
      "type": "function"
    },
    {
      "inputs": [
        {
          "internalType": "address",
          "name": "account",
          "type": "address"
        }
      ],
      "name": "batchGetScheduleDetailsForAccount",
      "outputs": [
        {
          "components": [
            {
              "internalType": "address",
              "name": "tokenHolder",
              "type": "address"
            },
            {
              "internalType": "uint256",
              "name": "scheduleTokenId",
              "type": "uint256"
            },
            {
              "internalType": "uint256",
              "name": "startTime",
              "type": "uint256"
            },
            {
              "internalType": "uint256",
              "name": "endTime",
              "type": "uint256"
            },
            {
              "internalType": "uint256",
              "name": "balance",
              "type": "uint256"
            },
            {
              "internalType": "uint256",
              "name": "claimableAmount",
              "type": "uint256"
            },
            {
              "internalType": "uint256",
              "name": "claimedAmount",
              "type": "uint256"
            },
            {
              "internalType": "uint256",
              "name": "quantityRevoked",
              "type": "uint256"
            },
            {
              "internalType": "bool",
              "name": "exists",
              "type": "bool"
            }
          ],
          "internalType": "struct RestrictedNORI.ScheduleDetailForAddress[]",
          "name": "",
          "type": "tuple[]"
        }
      ],
      "stateMutability": "view",
      "type": "function"
    },
    {
      "inputs": [
        {
          "internalType": "uint256[]",
          "name": "scheduleIds",
          "type": "uint256[]"
        }
      ],
      "name": "batchGetScheduleSummaries",
      "outputs": [
        {
          "components": [
            {
              "internalType": "uint256",
              "name": "scheduleTokenId",
              "type": "uint256"
            },
            {
              "internalType": "uint256",
              "name": "startTime",
              "type": "uint256"
            },
            {
              "internalType": "uint256",
              "name": "endTime",
              "type": "uint256"
            },
            {
              "internalType": "uint256",
              "name": "totalSupply",
              "type": "uint256"
            },
            {
              "internalType": "uint256",
              "name": "totalClaimableAmount",
              "type": "uint256"
            },
            {
              "internalType": "uint256",
              "name": "totalClaimedAmount",
              "type": "uint256"
            },
            {
              "internalType": "uint256",
              "name": "totalQuantityRevoked",
              "type": "uint256"
            },
            {
              "internalType": "address[]",
              "name": "tokenHolders",
              "type": "address[]"
            },
            {
              "internalType": "bool",
              "name": "exists",
              "type": "bool"
            }
          ],
          "internalType": "struct RestrictedNORI.ScheduleSummary[]",
          "name": "",
          "type": "tuple[]"
        }
      ],
      "stateMutability": "view",
      "type": "function"
    },
    {
      "inputs": [
        {
          "internalType": "address[]",
          "name": "toAccounts",
          "type": "address[]"
        },
        {
          "internalType": "uint256[]",
          "name": "removalIds",
          "type": "uint256[]"
        },
        {
          "internalType": "uint256[]",
          "name": "amounts",
          "type": "uint256[]"
        }
      ],
      "name": "batchRevokeUnreleasedTokenAmounts",
      "outputs": [],
      "stateMutability": "nonpayable",
      "type": "function"
    },
    {
      "inputs": [
        {
          "internalType": "address",
          "name": "",
          "type": "address"
        },
        {
          "internalType": "uint256",
          "name": "",
          "type": "uint256"
        },
        {
          "internalType": "uint256",
          "name": "",
          "type": "uint256"
        }
      ],
      "name": "burn",
      "outputs": [],
      "stateMutability": "pure",
      "type": "function"
    },
    {
      "inputs": [
        {
          "internalType": "address",
          "name": "",
          "type": "address"
        },
        {
          "internalType": "uint256[]",
          "name": "",
          "type": "uint256[]"
        },
        {
          "internalType": "uint256[]",
          "name": "",
          "type": "uint256[]"
        }
      ],
      "name": "burnBatch",
      "outputs": [],
      "stateMutability": "pure",
      "type": "function"
    },
    {
      "inputs": [
        {
          "internalType": "uint256",
          "name": "scheduleId",
          "type": "uint256"
        }
      ],
      "name": "claimableBalanceForSchedule",
      "outputs": [
        {
          "internalType": "uint256",
          "name": "",
          "type": "uint256"
        }
      ],
      "stateMutability": "view",
      "type": "function"
    },
    {
      "inputs": [
        {
          "internalType": "uint256",
          "name": "scheduleId",
          "type": "uint256"
        },
        {
          "internalType": "address",
          "name": "account",
          "type": "address"
        }
      ],
      "name": "claimableBalanceForScheduleForAccount",
      "outputs": [
        {
          "internalType": "uint256",
          "name": "",
          "type": "uint256"
        }
      ],
      "stateMutability": "view",
      "type": "function"
    },
    {
      "inputs": [
        {
          "internalType": "uint256",
          "name": "projectId",
          "type": "uint256"
        }
      ],
      "name": "createSchedule",
      "outputs": [],
      "stateMutability": "nonpayable",
      "type": "function"
    },
    {
      "inputs": [
        {
          "internalType": "uint256",
          "name": "id",
          "type": "uint256"
        }
      ],
      "name": "exists",
      "outputs": [
        {
          "internalType": "bool",
          "name": "",
          "type": "bool"
        }
      ],
      "stateMutability": "view",
      "type": "function"
    },
    {
      "inputs": [],
      "name": "getAllScheduleIds",
      "outputs": [
        {
          "internalType": "uint256[]",
          "name": "",
          "type": "uint256[]"
        }
      ],
      "stateMutability": "view",
      "type": "function"
    },
    {
      "inputs": [
        {
          "internalType": "uint256",
          "name": "methodology",
          "type": "uint256"
        },
        {
          "internalType": "uint256",
          "name": "methodologyVersion",
          "type": "uint256"
        }
      ],
      "name": "getRestrictionDurationForMethodologyAndVersion",
      "outputs": [
        {
          "components": [
            {
              "internalType": "uint256",
              "name": "duration",
              "type": "uint256"
            },
            {
              "internalType": "bool",
              "name": "wasSet",
              "type": "bool"
            }
          ],
          "internalType": "struct RestrictedNORI.RestrictionDuration",
          "name": "",
          "type": "tuple"
        }
      ],
      "stateMutability": "view",
      "type": "function"
    },
    {
      "inputs": [
        {
          "internalType": "bytes32",
          "name": "role",
          "type": "bytes32"
        }
      ],
      "name": "getRoleAdmin",
      "outputs": [
        {
          "internalType": "bytes32",
          "name": "",
          "type": "bytes32"
        }
      ],
      "stateMutability": "view",
      "type": "function"
    },
    {
      "inputs": [
        {
          "internalType": "bytes32",
          "name": "role",
          "type": "bytes32"
        },
        {
          "internalType": "uint256",
          "name": "index",
          "type": "uint256"
        }
      ],
      "name": "getRoleMember",
      "outputs": [
        {
          "internalType": "address",
          "name": "",
          "type": "address"
        }
      ],
      "stateMutability": "view",
      "type": "function"
    },
    {
      "inputs": [
        {
          "internalType": "bytes32",
          "name": "role",
          "type": "bytes32"
        }
      ],
      "name": "getRoleMemberCount",
      "outputs": [
        {
          "internalType": "uint256",
          "name": "",
          "type": "uint256"
        }
      ],
      "stateMutability": "view",
      "type": "function"
    },
    {
      "inputs": [
        {
          "internalType": "address",
          "name": "account",
          "type": "address"
        },
        {
          "internalType": "uint256",
          "name": "scheduleId",
          "type": "uint256"
        }
      ],
      "name": "getScheduleDetailForAccount",
      "outputs": [
        {
          "components": [
            {
              "internalType": "address",
              "name": "tokenHolder",
              "type": "address"
            },
            {
              "internalType": "uint256",
              "name": "scheduleTokenId",
              "type": "uint256"
            },
            {
              "internalType": "uint256",
              "name": "startTime",
              "type": "uint256"
            },
            {
              "internalType": "uint256",
              "name": "endTime",
              "type": "uint256"
            },
            {
              "internalType": "uint256",
              "name": "balance",
              "type": "uint256"
            },
            {
              "internalType": "uint256",
              "name": "claimableAmount",
              "type": "uint256"
            },
            {
              "internalType": "uint256",
              "name": "claimedAmount",
              "type": "uint256"
            },
            {
              "internalType": "uint256",
              "name": "quantityRevoked",
              "type": "uint256"
            },
            {
              "internalType": "bool",
              "name": "exists",
              "type": "bool"
            }
          ],
          "internalType": "struct RestrictedNORI.ScheduleDetailForAddress",
          "name": "",
          "type": "tuple"
        }
      ],
      "stateMutability": "view",
      "type": "function"
    },
    {
      "inputs": [
        {
          "internalType": "address",
          "name": "account",
          "type": "address"
        }
      ],
      "name": "getScheduleIdsForAccount",
      "outputs": [
        {
          "internalType": "uint256[]",
          "name": "",
          "type": "uint256[]"
        }
      ],
      "stateMutability": "view",
      "type": "function"
    },
    {
      "inputs": [
        {
          "internalType": "uint256",
          "name": "scheduleId",
          "type": "uint256"
        }
      ],
      "name": "getScheduleSummary",
      "outputs": [
        {
          "components": [
            {
              "internalType": "uint256",
              "name": "scheduleTokenId",
              "type": "uint256"
            },
            {
              "internalType": "uint256",
              "name": "startTime",
              "type": "uint256"
            },
            {
              "internalType": "uint256",
              "name": "endTime",
              "type": "uint256"
            },
            {
              "internalType": "uint256",
              "name": "totalSupply",
              "type": "uint256"
            },
            {
              "internalType": "uint256",
              "name": "totalClaimableAmount",
              "type": "uint256"
            },
            {
              "internalType": "uint256",
              "name": "totalClaimedAmount",
              "type": "uint256"
            },
            {
              "internalType": "uint256",
              "name": "totalQuantityRevoked",
              "type": "uint256"
            },
            {
              "internalType": "address[]",
              "name": "tokenHolders",
              "type": "address[]"
            },
            {
              "internalType": "bool",
              "name": "exists",
              "type": "bool"
            }
          ],
          "internalType": "struct RestrictedNORI.ScheduleSummary",
          "name": "",
          "type": "tuple"
        }
      ],
      "stateMutability": "view",
      "type": "function"
    },
    {
      "inputs": [
        {
          "internalType": "bytes32",
          "name": "role",
          "type": "bytes32"
        },
        {
          "internalType": "address",
          "name": "account",
          "type": "address"
        }
      ],
      "name": "grantRole",
      "outputs": [],
      "stateMutability": "nonpayable",
      "type": "function"
    },
    {
      "inputs": [
        {
          "internalType": "bytes32",
          "name": "role",
          "type": "bytes32"
        },
        {
          "internalType": "address",
          "name": "account",
          "type": "address"
        }
      ],
      "name": "hasRole",
      "outputs": [
        {
          "internalType": "bool",
          "name": "",
          "type": "bool"
        }
      ],
      "stateMutability": "view",
      "type": "function"
    },
    {
      "inputs": [],
      "name": "initialize",
      "outputs": [],
      "stateMutability": "nonpayable",
      "type": "function"
    },
    {
      "inputs": [
        {
          "internalType": "string",
          "name": "uri",
          "type": "string"
        }
      ],
      "name": "initialize",
      "outputs": [],
      "stateMutability": "nonpayable",
      "type": "function"
    },
    {
      "inputs": [
        {
          "internalType": "address",
          "name": "",
          "type": "address"
        },
        {
          "internalType": "address",
          "name": "",
          "type": "address"
        }
      ],
      "name": "isApprovedForAll",
      "outputs": [
        {
          "internalType": "bool",
          "name": "",
          "type": "bool"
        }
      ],
      "stateMutability": "pure",
      "type": "function"
    },
    {
      "inputs": [
        {
          "internalType": "address",
          "name": "to",
          "type": "address"
        },
        {
          "internalType": "uint256",
          "name": "id",
          "type": "uint256"
        },
        {
          "internalType": "uint256",
          "name": "amount",
          "type": "uint256"
        },
        {
          "internalType": "bytes",
          "name": "data",
          "type": "bytes"
        }
      ],
      "name": "mint",
      "outputs": [],
      "stateMutability": "pure",
      "type": "function"
    },
    {
      "inputs": [
        {
          "internalType": "address",
          "name": "to",
          "type": "address"
        },
        {
          "internalType": "uint256[]",
          "name": "ids",
          "type": "uint256[]"
        },
        {
          "internalType": "uint256[]",
          "name": "amounts",
          "type": "uint256[]"
        },
        {
          "internalType": "bytes",
          "name": "data",
          "type": "bytes"
        }
      ],
      "name": "mintBatch",
      "outputs": [],
      "stateMutability": "pure",
      "type": "function"
    },
    {
      "inputs": [],
      "name": "pause",
      "outputs": [],
      "stateMutability": "nonpayable",
      "type": "function"
    },
    {
      "inputs": [],
      "name": "paused",
      "outputs": [
        {
          "internalType": "bool",
          "name": "",
          "type": "bool"
        }
      ],
      "stateMutability": "view",
      "type": "function"
    },
    {
      "inputs": [
        {
          "internalType": "address",
          "name": "marketAddress",
          "type": "address"
        },
        {
          "internalType": "address",
          "name": "bridgedPolygonNoriAddress",
          "type": "address"
        },
        {
          "internalType": "address",
          "name": "removalAddress",
          "type": "address"
        }
      ],
      "name": "registerContractAddresses",
      "outputs": [],
      "stateMutability": "nonpayable",
      "type": "function"
    },
    {
      "inputs": [
        {
          "internalType": "bytes32",
          "name": "role",
          "type": "bytes32"
        },
        {
          "internalType": "address",
          "name": "account",
          "type": "address"
        }
      ],
      "name": "renounceRole",
      "outputs": [],
      "stateMutability": "nonpayable",
      "type": "function"
    },
    {
      "inputs": [
        {
          "internalType": "uint256",
          "name": "scheduleId",
          "type": "uint256"
        }
      ],
      "name": "revocableQuantityForSchedule",
      "outputs": [
        {
          "internalType": "uint256",
          "name": "",
          "type": "uint256"
        }
      ],
      "stateMutability": "view",
      "type": "function"
    },
    {
      "inputs": [
        {
          "internalType": "bytes32",
          "name": "role",
          "type": "bytes32"
        },
        {
          "internalType": "address",
          "name": "account",
          "type": "address"
        }
      ],
      "name": "revokeRole",
      "outputs": [],
      "stateMutability": "nonpayable",
      "type": "function"
    },
    {
      "inputs": [
        {
          "internalType": "address",
          "name": "from",
          "type": "address"
        },
        {
          "internalType": "address",
          "name": "to",
          "type": "address"
        },
        {
          "internalType": "uint256[]",
          "name": "ids",
          "type": "uint256[]"
        },
        {
          "internalType": "uint256[]",
          "name": "amounts",
          "type": "uint256[]"
        },
        {
          "internalType": "bytes",
          "name": "data",
          "type": "bytes"
        }
      ],
      "name": "safeBatchTransferFrom",
      "outputs": [],
      "stateMutability": "nonpayable",
      "type": "function"
    },
    {
      "inputs": [
        {
          "internalType": "address",
          "name": "from",
          "type": "address"
        },
        {
          "internalType": "address",
          "name": "to",
          "type": "address"
        },
        {
          "internalType": "uint256",
          "name": "id",
          "type": "uint256"
        },
        {
          "internalType": "uint256",
          "name": "amount",
          "type": "uint256"
        },
        {
          "internalType": "bytes",
          "name": "data",
          "type": "bytes"
        }
      ],
      "name": "safeTransferFrom",
      "outputs": [],
      "stateMutability": "nonpayable",
      "type": "function"
    },
    {
      "inputs": [
        {
          "internalType": "address",
          "name": "",
          "type": "address"
        },
        {
          "internalType": "bool",
          "name": "",
          "type": "bool"
        }
      ],
      "name": "setApprovalForAll",
      "outputs": [],
      "stateMutability": "pure",
      "type": "function"
    },
    {
      "inputs": [
        {
          "internalType": "uint256",
          "name": "methodology",
          "type": "uint256"
        },
        {
          "internalType": "uint256",
          "name": "methodologyVersion",
          "type": "uint256"
        },
        {
          "internalType": "uint256",
          "name": "durationInSeconds",
          "type": "uint256"
        }
      ],
      "name": "setRestrictionDurationForMethodologyAndVersion",
      "outputs": [],
      "stateMutability": "nonpayable",
      "type": "function"
    },
    {
      "inputs": [
        {
          "internalType": "bytes4",
          "name": "interfaceId",
          "type": "bytes4"
        }
      ],
      "name": "supportsInterface",
      "outputs": [
        {
          "internalType": "bool",
          "name": "",
          "type": "bool"
        }
      ],
      "stateMutability": "view",
      "type": "function"
    },
    {
      "inputs": [
        {
          "internalType": "address",
          "name": "",
          "type": "address"
        },
        {
          "internalType": "address",
          "name": "from",
          "type": "address"
        },
        {
          "internalType": "address",
          "name": "",
          "type": "address"
        },
        {
          "internalType": "uint256",
          "name": "amount",
          "type": "uint256"
        },
        {
          "internalType": "bytes",
          "name": "userData",
          "type": "bytes"
        },
        {
          "internalType": "bytes",
          "name": "operatorData",
          "type": "bytes"
        }
      ],
      "name": "tokensReceived",
      "outputs": [],
      "stateMutability": "nonpayable",
      "type": "function"
    },
    {
      "inputs": [
        {
          "internalType": "uint256",
          "name": "id",
          "type": "uint256"
        }
      ],
      "name": "totalSupply",
      "outputs": [
        {
          "internalType": "uint256",
          "name": "",
          "type": "uint256"
        }
      ],
      "stateMutability": "view",
      "type": "function"
    },
    {
      "inputs": [],
      "name": "unpause",
      "outputs": [],
      "stateMutability": "nonpayable",
      "type": "function"
    },
    {
      "inputs": [
        {
          "internalType": "uint256",
          "name": "",
          "type": "uint256"
        }
      ],
      "name": "uri",
      "outputs": [
        {
          "internalType": "string",
          "name": "",
          "type": "string"
        }
      ],
      "stateMutability": "view",
      "type": "function"
    },
    {
      "inputs": [
        {
          "internalType": "address",
          "name": "recipient",
          "type": "address"
        },
        {
          "internalType": "uint256",
          "name": "scheduleId",
          "type": "uint256"
        },
        {
          "internalType": "uint256",
          "name": "amount",
          "type": "uint256"
        }
      ],
      "name": "withdrawFromSchedule",
      "outputs": [
        {
          "internalType": "bool",
          "name": "",
          "type": "bool"
        }
      ],
      "stateMutability": "nonpayable",
      "type": "function"
    }
  ],
  "bytecode": "0x608060405234801561001057600080fd5b50614c49806100206000396000f3fe608060405234801561001057600080fd5b506004361061029e5760003560e01c8063713279b111610167578063ca15c873116100ce578063e6e0a03811610087578063e6e0a03814610694578063e985e9c5146106a7578063f242432a146106ba578063f5298aca146106cd578063f62d1888146106db578063f6f57a2e146106ee57600080fd5b8063ca15c8731461060c578063d53913931461061f578063d547741f14610646578063dfd2cdee14610659578063e01d73931461066c578063e63ab1e91461067f57600080fd5b80639ac7b44d116101205780639ac7b44d14610566578063a217fddf14610596578063a22cb4651461059e578063b8b4dbe0146105b1578063bd85b039146105d8578063c1499fa8146105f957600080fd5b8063713279b1146104f7578063731133e91461050a5780638129fc1c146105185780638456cb59146105205780639010d07c1461052857806391d148541461055357600080fd5b806336568abe1161020b5780635c975abb116101c45780635c975abb1461048a5780635d37165a146104965780636235a4e9146104a957806363343346146104bc578063639aa0ad146104c45780636b20c454146104e457600080fd5b806336568abe146103e557806336e4d3f0146103f85780633f4ba83a146104185780634e1273f4146104205780634f558e7914610440578063521189a91461046357600080fd5b8063248a9ca31161025d578063248a9ca31461034957806327ca0c271461036c5780632d9f0f161461037f5780632e5e8d831461039f5780632eb2c2d6146103bf5780632f2ff15d146103d257600080fd5b806223de29146102a3578062fdd58e146102b857806301ffc9a7146102de5780630e89341c146103015780631f7fdffa14610321578063229afd6114610334575b600080fd5b6102b66102b1366004613a35565b610701565b005b6102cb6102c6366004613ae5565b610817565b6040519081526020015b60405180910390f35b6102f16102ec366004613b27565b6108ae565b60405190151581526020016102d5565b61031461030f366004613b44565b6108b9565b6040516102d59190613bb9565b6102b661032f366004613d1f565b61094d565b6102cb600080516020614bf483398151915281565b6102cb610357366004613b44565b60009081526065602052604090206001015490565b6102f161037a366004613db9565b610966565b61039261038d366004613e32565b610a86565b6040516102d59190613f22565b6103b26103ad366004613b44565b610b42565b6040516102d59190613f84565b6102b66103cd366004613f97565b610d00565b6102b66103e0366004614044565b610e72565b6102b66103f3366004614044565b610e9d565b61040b610406366004614074565b610f1b565b6040516102d591906140f2565b6102b6610fe4565b61043361042e366004614141565b611078565b6040516102d59190614248565b6102f161044e366004613b44565b60009081526101c36020526040902054151590565b6102cb7fb281fc8c12954d22544db45de3159a39272895b169a852b314f9cc762e44c53b81565b61012d5460ff166102f1565b6102cb6104a4366004614044565b61118c565b6102cb6104b7366004613b44565b611249565b61043361129f565b6104d76104d2366004613ae5565b61133e565b6040516102d5919061425b565b6102b66104f236600461426a565b6113f5565b6102cb610505366004613b44565b61140e565b6102b661032f3660046142ec565b6102b6611445565b6102b66115f2565b61053b610536366004614342565b611684565b6040516001600160a01b0390911681526020016102d5565b6102f1610561366004614044565b61169c565b610579610574366004614342565b6116c7565b6040805182518152602092830151151592810192909252016102d5565b6102cb600081565b6102b66105ac366004614364565b61170e565b6102cb7f813b9efdf6afe6b57682eb1fb850711edc34da21ae7f7376cb7a391b1be3239f81565b6102cb6105e6366004613b44565b60009081526101c3602052604090205490565b6102b6610607366004614397565b611727565b6102cb61061a366004613b44565b61179c565b6102cb7f9f2df0fed2c77648de5860a4cc508cd0818c85b8b8a1ab4ceeef8d981c8956a681565b6102b6610654366004614044565b6117b3565b610433610667366004614074565b6117d9565b6102b661067a3660046143c3565b611886565b6102cb600080516020614bd483398151915281565b6102b66106a236600461445c565b61199d565b6102f16106b53660046144a7565b6119ec565b6102b66106c83660046144d5565b611a07565b6102b66104f2366004613db9565b6102b66106e936600461453d565b611aa7565b6102b66106fc366004613b44565b611b22565b6101fb546001600160a01b0316336001600160a01b03161461073657604051634628d20b60e01b815260040160405180910390fd5b6101fa546001600160a01b0388811691161480610759575061075960008861169c565b61078657604051630465c5db60e41b81526001600160a01b03881660048201526024015b60405180910390fd5b600061079484860186613b44565b905061080b818787878080601f01602080910402602001604051908101604052809392919081815260200183838082843760009201919091525050604080516020601f8b018190048102820181019092528981529250899150889081908401838280828437600092019190915250611b8292505050565b50505050505050505050565b60006001600160a01b0383166108835760405162461bcd60e51b815260206004820152602b60248201527f455243313135353a2062616c616e636520717565727920666f7220746865207a60448201526a65726f206164647265737360a81b606482015260840161077d565b50600081815260c9602090815260408083206001600160a01b03861684529091529020545b92915050565b60006108a882611d02565b606060cb80546108c89061458d565b80601f01602080910402602001604051908101604052809291908181526020018280546108f49061458d565b80156109415780601f1061091657610100808354040283529160200191610941565b820191906000526020600020905b81548152906001019060200180831161092457829003601f168201915b50505050509050919050565b60405163fd34e50560e01b815260040160405180910390fd5b6000610973338484611d0d565b6101fb54604051634decdde360e11b81526001600160a01b03868116600483015260248201859052606060448301526000606483015290911690639bd9bbc690608401600060405180830381600087803b1580156109d057600080fd5b505af11580156109e4573d6000803e3d6000fd5b50505060008481526101f76020526040812060028101805491935085929091610a0e9084906145d7565b909155505033600090815260088201602052604081208054859290610a349084906145d7565b909155505060405183815284906001600160a01b0387169033907fff097c7d8b1957a4ff09ef1361b5fb54dcede3941ba836d0beb9d10bec725de69060200160405180910390a4506001949350505050565b60606000826001600160401b03811115610aa257610aa2613bcc565b604051908082528060200260200182016040528015610adb57816020015b610ac861389a565b815260200190600190039081610ac05790505b50905060005b83811015610b3a57610b0a858583818110610afe57610afe6145ef565b90506020020135610b42565b828281518110610b1c57610b1c6145ef565b60200260200101819052508080610b3290614605565b915050610ae1565b509392505050565b610b4a61389a565b60008281526101f76020526040812090610b6660068301611e8a565b90506000816001600160401b03811115610b8257610b82613bcc565b604051908082528060200260200182016040528015610bab578160200160208202803683370190505b5090506000826001600160401b03811115610bc857610bc8613bcc565b604051908082528060200260200182016040528015610bf1578160200160208202803683370190505b50905060005b610c0385600601611e8a565b811015610c7957610c176006860182611e94565b838281518110610c2957610c296145ef565b60200260200101906001600160a01b031690816001600160a01b03168152505086828281518110610c5c57610c5c6145ef565b602090810291909101015280610c7181614605565b915050610bf7565b506040518061012001604052808781526020018560000154815260200185600101548152602001610cb78860009081526101c3602052604090205490565b8152602001610cc588611249565b81526002860154602082015260048601546040820152606081019390935260039094015460ff16151560809092019190915250909392505050565b610d0d8585858585611ea0565b60005b8351811015610e6a5760006101f76000868481518110610d3257610d326145ef565b602002602001015181526020019081526020016000209050838281518110610d5c57610d5c6145ef565b6020026020010151600014610dcc57610dbc858381518110610d8057610d806145ef565b60200260200101516101f66000896001600160a01b03166001600160a01b03168152602001908152602001600020611f3790919063ffffffff16565b50610dca6006820187611f43565b505b610def87868481518110610de257610de26145ef565b6020026020010151610817565b600003610e5757610e47858381518110610e0b57610e0b6145ef565b60200260200101516101f660008a6001600160a01b03166001600160a01b03168152602001908152602001600020611f5890919063ffffffff16565b50610e556006820188611f64565b505b5080610e6281614605565b915050610d10565b505050505050565b600082815260656020526040902060010154610e8e8133611f79565b610e988383611fdd565b505050565b6001600160a01b0381163314610f0d5760405162461bcd60e51b815260206004820152602f60248201527f416363657373436f6e74726f6c3a2063616e206f6e6c792072656e6f756e636560448201526e103937b632b9903337b91039b2b63360891b606482015260840161077d565b610f178282611fff565b5050565b6001600160a01b03811660009081526101f660205260408120606091610f4082611e8a565b6001600160401b03811115610f5757610f57613bcc565b604051908082528060200260200182016040528015610f9057816020015b610f7d6138e8565b815260200190600190039081610f755790505b50905060005b610f9f83611e8a565b811015610b3a57610fb4856104d28584611e94565b828281518110610fc657610fc66145ef565b60200260200101819052508080610fdc90614605565b915050610f96565b610ffc600080516020614bd48339815191523361169c565b61106e5760405162461bcd60e51b815260206004820152603b60248201527f455243313135355072657365744d696e7465725061757365723a206d7573742060448201527f686176652070617573657220726f6c6520746f20756e70617573650000000000606482015260840161077d565b611076612021565b565b606081518351146110dd5760405162461bcd60e51b815260206004820152602960248201527f455243313135353a206163636f756e747320616e6420696473206c656e677468604482015268040dad2e6dac2e8c6d60bb1b606482015260840161077d565b600083516001600160401b038111156110f8576110f8613bcc565b604051908082528060200260200182016040528015611121578160200160208202803683370190505b50905060005b8451811015610b3a5761115f858281518110611145576111456145ef565b6020026020010151858381518110610de257610de26145ef565b828281518110611171576111716145ef565b602090810291909101015261118581614605565b9050611127565b60008281526101f7602090815260408083206101c3909252822054600282015483916111b7916145d7565b90506000816000036111cb57506000611240565b60006111d78688610817565b6001600160a01b03871660009081526008860160205260408120549192506111fe89611249565b9050818587600201548361121291906145d7565b61121c86866145d7565b611226919061461e565b611230919061463d565b61123a919061465f565b93505050505b95945050505050565b60008181526101f760205260408120600381015460ff16611280576040516325f8781760e01b81526004810184905260240161077d565b806002015461128e846120b6565b611298919061465f565b9392505050565b606060006112ae6101f8611e8a565b6001600160401b038111156112c5576112c5613bcc565b6040519080825280602002602001820160405280156112ee578160200160208202803683370190505b50905060005b8151811015611338576113096101f882611e94565b82828151811061131b5761131b6145ef565b60209081029190910101528061133081614605565b9150506112f4565b50919050565b6113466138e8565b60008281526101f760209081526040918290208251610120810184526001600160a01b038716815291820185905280549282019290925260018201546060820152608081016113958686610817565b81526020016113a4858761118c565b81526001600160a01b038616600081815260088501602090815260408083205482860152928252600986019052819020549082015260039092015460ff161515606090920191909152905092915050565b60405163fd647c0960e01b815260040160405180910390fd5b60008181526101f760205260408120611426836120b6565b600282015460008581526101c3602052604090205461128e91906145d7565b600054610100900460ff166114605760005460ff1615611464565b303b155b6114805760405162461bcd60e51b815260040161077d90614676565b600054610100900460ff161580156114a2576000805461ffff19166101011790555b6114c3604051806060016040528060328152602001614b6860329139611aa7565b6114cb6120db565b6114d36120db565b6114db6120db565b6114e36120db565b6114eb612102565b6114f36120db565b6040516329965a1d60e01b815230600482018190527fb281fc8c12954d22544db45de3159a39272895b169a852b314f9cc762e44c53b60248301526044820152731820a4b7618bde71dce8cdc73aab6c95905fad24906329965a1d90606401600060405180830381600087803b15801561156c57600080fd5b505af1158015611580573d6000803e3d6000fd5b505050506115a2600080516020614bf483398151915261159d3390565b612136565b6115cc7f813b9efdf6afe6b57682eb1fb850711edc34da21ae7f7376cb7a391b1be3239f33612136565b6115dd600160006312cf3570611727565b80156115ef576000805461ff00191690555b50565b61160a600080516020614bd48339815191523361169c565b61167c5760405162461bcd60e51b815260206004820152603960248201527f455243313135355072657365744d696e7465725061757365723a206d7573742060448201527f686176652070617573657220726f6c6520746f20706175736500000000000000606482015260840161077d565b611076612140565b60008281526097602052604081206112989083611e94565b60009182526065602090815260408084206001600160a01b0393909316845291905290205460ff1690565b604080518082018252600080825260209182018190529384526101f58152818420928452918252918290208251808401909352805483526001015460ff1615159082015290565b604051636461329360e01b815260040160405180910390fd5b61012d5460ff161561174b5760405162461bcd60e51b815260040161077d906146c4565b60006117578133611f79565b506040805180820182529182526001602080840182815260009687526101f5825283872095875294905293209051815590519101805460ff1916911515919091179055565b60008181526097602052604081206108a890611e8a565b6000828152606560205260409020600101546117cf8133611f79565b610e988383611fff565b6001600160a01b03811660009081526101f6602052604081206060916117fe82611e8a565b6001600160401b0381111561181557611815613bcc565b60405190808252806020026020018201604052801561183e578160200160208202803683370190505b50905060005b8151811015610b3a576118578382611e94565b828281518110611869576118696145ef565b60209081029190910101528061187e81614605565b915050611844565b61012d5460ff16156118aa5760405162461bcd60e51b815260040161077d906146c4565b7f813b9efdf6afe6b57682eb1fb850711edc34da21ae7f7376cb7a391b1be3239f6118d58133611f79565b8584146118f55760405163616c411360e01b815260040161077d906146ee565b8582146119155760405163616c411360e01b815260040161077d90614743565b60005b8681101561199357611981888883818110611935576119356145ef565b905060200201602081019061194a9190614074565b87878481811061195c5761195c6145ef565b90506020020135868685818110611975576119756145ef565b9050602002013561219a565b8061198b81614605565b915050611918565b5050505050505050565b60006119a98133611f79565b506101fa80546001600160a01b039485166001600160a01b0319918216179091556101fb8054938516938216939093179092556101fc8054919093169116179055565b6000604051636461329360e01b815260040160405180910390fd5b611a14858585858561252e565b60008381526101f7602052604090208215611a5c576001600160a01b03851660009081526101f660205260409020611a4c9085611f37565b50611a5a6006820186611f43565b505b611a668685610817565b600003610e6a576001600160a01b03861660009081526101f660205260409020611a909085611f58565b50611a9e6006820187611f64565b50505050505050565b600054610100900460ff16611ac25760005460ff1615611ac6565b303b155b611ae25760405162461bcd60e51b815260040161077d90614676565b600054610100900460ff16158015611b04576000805461ffff19166101011790555b611b0d826125b5565b8015610f17576000805461ff00191690555050565b61012d5460ff1615611b465760405162461bcd60e51b815260040161077d906146c4565b600080516020614bf4833981519152611b5f8133611f79565b60008281526101f7602052604090206003015460ff16610f1757610f17826125f6565b6101fc54604051631c1f852760e31b81526004810186905260009182916001600160a01b039091169063e0fc293890602401602060405180830381865afa158015611bd1573d6000803e3d6000fd5b505050506040513d601f19601f82011682018060405250810190611bf59190614795565b6101fc546040516399d5121b60e01b8152600481018390529192506000916001600160a01b03909116906399d5121b90602401608060405180830381865afa158015611c45573d6000803e3d6000fd5b505050506040513d601f19601f82011682018060405250810190611c6991906147ae565b60208082015160008581526101f79092526040909120600301549192509060ff16611c9757611c97836125f6565b611cb281848960405180602001604052806000815250612836565b60008381526101f760205260409020611cce6006820183611f43565b506001600160a01b03821660009081526101f660205260409020611cf29085611f37565b5060019998505050505050505050565b60006108a88261296d565b6001600160a01b038316611d6f5760405162461bcd60e51b815260206004820152602360248201527f455243313135353a206275726e2066726f6d20746865207a65726f206164647260448201526265737360e81b606482015260840161077d565b33611d9e81856000611d80876129ad565b611d89876129ad565b604051806020016040528060008152506129f8565b600083815260c9602090815260408083206001600160a01b038816845290915290205482811015611e1d5760405162461bcd60e51b8152602060048201526024808201527f455243313135353a206275726e20616d6f756e7420657863656564732062616c604482015263616e636560e01b606482015260840161077d565b600084815260c9602090815260408083206001600160a01b03898116808652918452828520888703905582518981529384018890529092908616917fc3d58168c5ae7397731d063d5bbf3d657854427343f4c083240f7aacaa2d0f62910160405180910390a45050505050565b60006108a8825490565b60006112988383612b4e565b6001600160a01b038516331480611ebc5750611ebc85336119ec565b611f235760405162461bcd60e51b815260206004820152603260248201527f455243313135353a207472616e736665722063616c6c6572206973206e6f74206044820152711bdddb995c881b9bdc88185c1c1c9bdd995960721b606482015260840161077d565b611f308585858585612b78565b5050505050565b60006112988383612d5e565b6000611298836001600160a01b038416612d5e565b60006112988383612dad565b6000611298836001600160a01b038416612dad565b611f83828261169c565b610f1757611f9b816001600160a01b03166014612ea0565b611fa6836020612ea0565b604051602001611fb7929190614819565b60408051601f198184030181529082905262461bcd60e51b825261077d91600401613bb9565b611fe7828261303b565b6000828152609760205260409020610e989082611f43565b61200982826130c1565b6000828152609760205260409020610e989082611f64565b61012d5460ff1661206b5760405162461bcd60e51b815260206004820152601460248201527314185d5cd8589b194e881b9bdd081c185d5cd95960621b604482015260640161077d565b61012d805460ff191690557f5db9ee0a495bf2e6ff9c91a7834c1ba4fdd244a5e8aa4e537bd38aeae4b073aa335b6040516001600160a01b03909116815260200160405180910390a1565b60008181526101f7602052604081206112986120d184613128565b82600501546131ba565b600054610100900460ff166110765760405162461bcd60e51b815260040161077d9061488e565b600054610100900460ff166121295760405162461bcd60e51b815260040161077d9061488e565b61012d805460ff19169055565b610f178282611fdd565b61012d5460ff16156121645760405162461bcd60e51b815260040161077d906146c4565b61012d805460ff191660011790557f62e78cea01bee320cd4e420270b5ea74000d11b0c9f74754ebdbfc544b05a2586120993390565b6101fc54604051631c1f852760e31b8152600481018490526000916001600160a01b03169063e0fc293890602401602060405180830381865afa1580156121e5573d6000803e3d6000fd5b505050506040513d601f19601f820116820180604052508101906122099190614795565b60008181526101f76020526040902060038101549192509060ff16612244576040516325f8781760e01b81526004810183905260240161077d565b600061224f836120b6565b90506000841561228c576122628461140e565b85111561228557604051630c21a50760e31b81526004810185905260240161077d565b5083612298565b6122958461140e565b90505b6006830160006122a782611e8a565b6001600160401b038111156122be576122be613bcc565b6040519080825280602002602001820160405280156122e7578160200160208202803683370190505b5090506000805b60016122f985611e8a565b612303919061465f565b811015612360576000612320868a61231b8886611e94565b6131d1565b905080848381518110612335576123356145ef565b602090810291909101015261234a81846145d7565b925050808061235890614605565b9150506122ee565b5061236b818561465f565b82600161237786611e8a565b612381919061465f565b81518110612391576123916145ef565b60200260200101818152505060005b6123a984611e8a565b811015612457576123dd6123bd8583611e94565b898584815181106123d0576123d06145ef565b6020026020010151611d0d565b8281815181106123ef576123ef6145ef565b60200260200101518760090160006124108488611e9490919063ffffffff16565b6001600160a01b03166001600160a01b03168152602001908152602001600020600082825461243f91906145d7565b9091555081905061244f81614605565b9150506123a0565b508386600401600082825461246c91906145d7565b90915550506101fb54604051634decdde360e11b81526001600160a01b038c8116600483015260248201879052606060448301526000606483015290911690639bd9bbc690608401600060405180830381600087803b1580156124ce57600080fd5b505af11580156124e2573d6000803e3d6000fd5b505050508689427f4b9948901911c14ff8b417db5004be639f92f11be671b8b85219c5ff809b71ba8760405161251a91815260200190565b60405180910390a450505050505050505050565b6001600160a01b03851633148061254a575061254a85336119ec565b6125a85760405162461bcd60e51b815260206004820152602960248201527f455243313135353a2063616c6c6572206973206e6f74206f776e6572206e6f7260448201526808185c1c1c9bdd995960ba1b606482015260840161077d565b611f308585858585613269565b600054610100900460ff166125dc5760405162461bcd60e51b815260040161077d9061488e565b6125e581613381565b6125ed612102565b6115ef816133b1565b6101fc546040516399d5121b60e01b8152600481018390526000916001600160a01b0316906399d5121b90602401608060405180830381865afa158015612641573d6000803e3d6000fd5b505050506040513d601f19601f8201168201806040525081019061266591906147ae565b805190915060000361268d5760405163a2037ed360e01b81526004810183905260240161077d565b60208101516001600160a01b0381166126b957604051636c38382960e11b815260040160405180910390fd5b6126d1600080516020614bf48339815191528261169c565b156127285760408051632486d30560e11b81526001600160a01b0383166004820152602481019190915260156044820152745343484544554c455f43524541544f525f524f4c4560581b606482015260840161077d565b60008381526101f7602052604090206003015460ff161561275f57604051633788221760e21b81526004810184905260240161077d565b60008381526101f76020526040902061277a6101f885611f37565b50600061278f846040015185606001516116c7565b905080602001516127b65760405163361ecb5560e01b81526004810186905260240161077d565b6001600160a01b03831660009081526101f6602052604090206127d99086611f37565b5060038201805460ff19166001179055835180835581516127f9916145d7565b600183015560006005830181905560405186917fa845a9f6012186006a4e2f2e7335aa26cb8fc4035d385989bedadf1551b0a43391a25050505050565b6001600160a01b0384166128965760405162461bcd60e51b815260206004820152602160248201527f455243313135353a206d696e7420746f20746865207a65726f206164647265736044820152607360f81b606482015260840161077d565b60003390506128bc6040518060600160405280603a8152602001614b9a603a9139613425565b6128db816000876128cc886129ad565b6128d5886129ad565b876129f8565b600084815260c9602090815260408083206001600160a01b03891684529091528120805485929061290d9084906145d7565b909155505060408051858152602081018590526001600160a01b0380881692600092918516917fc3d58168c5ae7397731d063d5bbf3d657854427343f4c083240f7aacaa2d0f62910160405180910390a4611f3081600087878787613468565b60006001600160e01b03198216636cdb3d1360e11b148061299e57506001600160e01b031982166303a24d0760e21b145b806108a857506108a8826135c3565b604080516001808252818301909252606091600091906020808301908036833701905050905082816000815181106129e7576129e76145ef565b602090810291909101015292915050565b6001600160a01b0385811615908516156000818015612a285750886001600160a01b0316886001600160a01b0316145b9050600083158015612a38575082155b90508215612aa65760005b8751811015612aa4576000888281518110612a6057612a606145ef565b6020026020010151905060006101f760008381526020019081526020016000209050612a8b826120b6565b6005909101555080612a9c81614605565b915050612a43565b505b8115612b405760005b8751811015612b3e576000888281518110612acc57612acc6145ef565b60200260200101519050612ae0818c61118c565b888381518110612af257612af26145ef565b60200260200101511115612b2b5760405163e1b8b25f60e01b81526001600160a01b038c1660048201526024810182905260440161077d565b5080612b3681614605565b915050612aaf565b505b61080b8a8a8a8a8a8a6135e8565b6000826000018281548110612b6557612b656145ef565b9060005260206000200154905092915050565b8151835114612bda5760405162461bcd60e51b815260206004820152602860248201527f455243313135353a2069647320616e6420616d6f756e7473206c656e677468206044820152670dad2e6dac2e8c6d60c31b606482015260840161077d565b6001600160a01b038416612c005760405162461bcd60e51b815260040161077d906148d9565b33612c0f8187878787876129f8565b60005b8451811015612cf8576000858281518110612c2f57612c2f6145ef565b602002602001015190506000858381518110612c4d57612c4d6145ef565b602090810291909101810151600084815260c9835260408082206001600160a01b038e168352909352919091205490915081811015612c9e5760405162461bcd60e51b815260040161077d9061491e565b600083815260c9602090815260408083206001600160a01b038e8116855292528083208585039055908b16825281208054849290612cdd9084906145d7565b9250508190555050505080612cf190614605565b9050612c12565b50846001600160a01b0316866001600160a01b0316826001600160a01b03167f4a39dc06d4c0dbc64b70af90fd698a233a518aa5d07e595d983b8c0526c8f7fb8787604051612d48929190614968565b60405180910390a4610e6a818787878787613704565b6000818152600183016020526040812054612da5575081546001818101845560008481526020808220909301849055845484825282860190935260409020919091556108a8565b5060006108a8565b60008181526001830160205260408120548015612e96576000612dd160018361465f565b8554909150600090612de59060019061465f565b9050818114612e4a576000866000018281548110612e0557612e056145ef565b9060005260206000200154905080876000018481548110612e2857612e286145ef565b6000918252602080832090910192909255918252600188019052604090208390555b8554869080612e5b57612e5b61498d565b6001900381819060005260206000200160009055905585600101600086815260200190815260200160002060009055600193505050506108a8565b60009150506108a8565b60606000612eaf83600261461e565b612eba9060026145d7565b6001600160401b03811115612ed157612ed1613bcc565b6040519080825280601f01601f191660200182016040528015612efb576020820181803683370190505b509050600360fc1b81600081518110612f1657612f166145ef565b60200101906001600160f81b031916908160001a905350600f60fb1b81600181518110612f4557612f456145ef565b60200101906001600160f81b031916908160001a9053506000612f6984600261461e565b612f749060016145d7565b90505b6001811115612fec576f181899199a1a9b1b9c1cb0b131b232b360811b85600f1660108110612fa857612fa86145ef565b1a60f81b828281518110612fbe57612fbe6145ef565b60200101906001600160f81b031916908160001a90535060049490941c93612fe5816149a3565b9050612f77565b5083156112985760405162461bcd60e51b815260206004820181905260248201527f537472696e67733a20686578206c656e67746820696e73756666696369656e74604482015260640161077d565b613045828261169c565b610f175760008281526065602090815260408083206001600160a01b03851684529091529020805460ff1916600117905561307d3390565b6001600160a01b0316816001600160a01b0316837f2f8788117e7eff1d82e926ec794901d17c78024a50270940304540a733656f0d60405160405180910390a45050565b6130cb828261169c565b15610f175760008281526065602090815260408083206001600160a01b0385168085529252808320805460ff1916905551339285917ff6391f5c32d9c69d2a47ea670b442974b53935d1edc7fd64eb21e047a839171b9190a45050565b60008181526101f76020526040812060018101548290421061315a575060008381526101c36020526040902054611298565b8154600183015460009161316d9161465f565b835490915042106131af5782548190613186904261465f565b60008781526101c360205260409020546131a0919061461e565b6131aa919061463d565b611240565b600095945050505050565b6000818310156131ca5781611298565b5090919050565b60008281526101f7602090815260408083206101c3909252822054600282015483916131fc916145d7565b90506000816000036132105750600061325f565b600061321c8688610817565b6001600160a01b0387166000908152600886016020526040902054909150838961324684846145d7565b613250919061461e565b61325a919061463d565b925050505b9695505050505050565b6001600160a01b03841661328f5760405162461bcd60e51b815260040161077d906148d9565b3361329f8187876128cc886129ad565b600084815260c9602090815260408083206001600160a01b038a168452909152902054838110156132e25760405162461bcd60e51b815260040161077d9061491e565b600085815260c9602090815260408083206001600160a01b038b81168552925280832087850390559088168252812080548692906133219084906145d7565b909155505060408051868152602081018690526001600160a01b03808916928a821692918616917fc3d58168c5ae7397731d063d5bbf3d657854427343f4c083240f7aacaa2d0f62910160405180910390a4611a9e828888888888613468565b600054610100900460ff166133a85760405162461bcd60e51b815260040161077d9061488e565b6115ef816137bf565b600054610100900460ff166133d85760405162461bcd60e51b815260040161077d9061488e565b6133e3600033612136565b61340d7f9f2df0fed2c77648de5860a4cc508cd0818c85b8b8a1ab4ceeef8d981c8956a633612136565b6115ef600080516020614bd483398151915233612136565b6115ef816040516024016134399190613bb9565b60408051601f198184030181529190526020810180516001600160e01b031663104c13eb60e21b1790526137d2565b6001600160a01b0384163b15610e6a5760405163f23a6e6160e01b81526001600160a01b0385169063f23a6e61906134ac90899089908890889088906004016149ba565b6020604051808303816000875af19250505080156134e7575060408051601f3d908101601f191682019092526134e4918101906149ff565b60015b613593576134f3614a1c565b806308c379a00361352c5750613507614a38565b80613512575061352e565b8060405162461bcd60e51b815260040161077d9190613bb9565b505b60405162461bcd60e51b815260206004820152603460248201527f455243313135353a207472616e7366657220746f206e6f6e20455243313135356044820152732932b1b2b4bb32b91034b6b83632b6b2b73a32b960611b606482015260840161077d565b6001600160e01b0319811663f23a6e6160e01b14611a9e5760405162461bcd60e51b815260040161077d90614ac1565b60006001600160e01b03198216635a05180f60e01b14806108a857506108a8826137f3565b6135f6868686868686613828565b6001600160a01b03851661367e5760005b835181101561367c57828181518110613622576136226145ef565b60200260200101516101c36000868481518110613641576136416145ef565b60200260200101518152602001908152602001600020600082825461366691906145d7565b90915550613675905081614605565b9050613607565b505b6001600160a01b038416610e6a5760005b8351811015611a9e578281815181106136aa576136aa6145ef565b60200260200101516101c360008684815181106136c9576136c96145ef565b6020026020010151815260200190815260200160002060008282546136ee919061465f565b909155506136fd905081614605565b905061368f565b6001600160a01b0384163b15610e6a5760405163bc197c8160e01b81526001600160a01b0385169063bc197c81906137489089908990889088908890600401614b09565b6020604051808303816000875af1925050508015613783575060408051601f3d908101601f19168201909252613780918101906149ff565b60015b61378f576134f3614a1c565b6001600160e01b0319811663bc197c8160e01b14611a9e5760405162461bcd60e51b815260040161077d90614ac1565b8051610f179060cb90602084019061393f565b80516a636f6e736f6c652e6c6f67602083016000808483855afa5050505050565b60006001600160e01b03198216637965db0b60e01b14806108a857506301ffc9a760e01b6001600160e01b03198316146108a8565b610e6a86868686868661012d5460ff1615610e6a5760405162461bcd60e51b815260206004820152602c60248201527f455243313135355061757361626c653a20746f6b656e207472616e736665722060448201526b1dda1a5b19481c185d5cd95960a21b606482015260840161077d565b60405180610120016040528060008152602001600081526020016000815260200160008152602001600081526020016000815260200160008152602001606081526020016000151581525090565b60405180610120016040528060006001600160a01b03168152602001600081526020016000815260200160008152602001600081526020016000815260200160008152602001600081526020016000151581525090565b82805461394b9061458d565b90600052602060002090601f01602090048101928261396d57600085556139b3565b82601f1061398657805160ff19168380011785556139b3565b828001600101855582156139b3579182015b828111156139b3578251825591602001919060010190613998565b506139bf9291506139c3565b5090565b5b808211156139bf57600081556001016139c4565b6001600160a01b03811681146115ef57600080fd5b60008083601f8401126139ff57600080fd5b5081356001600160401b03811115613a1657600080fd5b602083019150836020828501011115613a2e57600080fd5b9250929050565b60008060008060008060008060c0898b031215613a5157600080fd5b8835613a5c816139d8565b97506020890135613a6c816139d8565b96506040890135613a7c816139d8565b95506060890135945060808901356001600160401b0380821115613a9f57600080fd5b613aab8c838d016139ed565b909650945060a08b0135915080821115613ac457600080fd5b50613ad18b828c016139ed565b999c989b5096995094979396929594505050565b60008060408385031215613af857600080fd5b8235613b03816139d8565b946020939093013593505050565b6001600160e01b0319811681146115ef57600080fd5b600060208284031215613b3957600080fd5b813561129881613b11565b600060208284031215613b5657600080fd5b5035919050565b60005b83811015613b78578181015183820152602001613b60565b83811115613b87576000848401525b50505050565b60008151808452613ba5816020860160208601613b5d565b601f01601f19169290920160200192915050565b6020815260006112986020830184613b8d565b634e487b7160e01b600052604160045260246000fd5b601f8201601f191681016001600160401b0381118282101715613c0757613c07613bcc565b6040525050565b60006001600160401b03821115613c2757613c27613bcc565b5060051b60200190565b600082601f830112613c4257600080fd5b81356020613c4f82613c0e565b604051613c5c8282613be2565b83815260059390931b8501820192828101915086841115613c7c57600080fd5b8286015b84811015613c975780358352918301918301613c80565b509695505050505050565b60006001600160401b03831115613cbb57613cbb613bcc565b604051613cd2601f8501601f191660200182613be2565b809150838152848484011115613ce757600080fd5b83836020830137600060208583010152509392505050565b600082601f830112613d1057600080fd5b61129883833560208501613ca2565b60008060008060808587031215613d3557600080fd5b8435613d40816139d8565b935060208501356001600160401b0380821115613d5c57600080fd5b613d6888838901613c31565b94506040870135915080821115613d7e57600080fd5b613d8a88838901613c31565b93506060870135915080821115613da057600080fd5b50613dad87828801613cff565b91505092959194509250565b600080600060608486031215613dce57600080fd5b8335613dd9816139d8565b95602085013595506040909401359392505050565b60008083601f840112613e0057600080fd5b5081356001600160401b03811115613e1757600080fd5b6020830191508360208260051b8501011115613a2e57600080fd5b60008060208385031215613e4557600080fd5b82356001600160401b03811115613e5b57600080fd5b613e6785828601613dee565b90969095509350505050565b6000610120808401835185526020808501518187015260408501516040870152606085015160608701526080850151608087015260a085015160a087015260c085015160c087015260e08501518360e08801528293508051808452610140880194508282019350600091505b80821015613f085783516001600160a01b03168552938201939282019260019190910190613edf565b505050506101009283015115159390920192909252919050565b6000602080830181845280855180835260408601915060408160051b870101925083870160005b82811015613f7757603f19888603018452613f65858351613e73565b94509285019290850190600101613f49565b5092979650505050505050565b6020815260006112986020830184613e73565b600080600080600060a08688031215613faf57600080fd5b8535613fba816139d8565b94506020860135613fca816139d8565b935060408601356001600160401b0380821115613fe657600080fd5b613ff289838a01613c31565b9450606088013591508082111561400857600080fd5b61401489838a01613c31565b9350608088013591508082111561402a57600080fd5b5061403788828901613cff565b9150509295509295909350565b6000806040838503121561405757600080fd5b823591506020830135614069816139d8565b809150509250929050565b60006020828403121561408657600080fd5b8135611298816139d8565b80516001600160a01b031682526020808201519083015260408082015190830152606080820151908301526080808201519083015260a0818101519083015260c0808201519083015260e08082015190830152610100908101511515910152565b6020808252825182820181905260009190848201906040850190845b8181101561413557614121838551614091565b92840192610120929092019160010161410e565b50909695505050505050565b6000806040838503121561415457600080fd5b82356001600160401b038082111561416b57600080fd5b818501915085601f83011261417f57600080fd5b8135602061418c82613c0e565b6040516141998282613be2565b83815260059390931b85018201928281019150898411156141b957600080fd5b948201945b838610156141e05785356141d1816139d8565b825294820194908201906141be565b965050860135925050808211156141f657600080fd5b5061420385828601613c31565b9150509250929050565b600081518084526020808501945080840160005b8381101561423d57815187529582019590820190600101614221565b509495945050505050565b602081526000611298602083018461420d565b61012081016108a88284614091565b60008060008060006060868803121561428257600080fd5b853561428d816139d8565b945060208601356001600160401b03808211156142a957600080fd5b6142b589838a01613dee565b909650945060408801359150808211156142ce57600080fd5b506142db88828901613dee565b969995985093965092949392505050565b6000806000806080858703121561430257600080fd5b843561430d816139d8565b9350602085013592506040850135915060608501356001600160401b0381111561433657600080fd5b613dad87828801613cff565b6000806040838503121561435557600080fd5b50508035926020909101359150565b6000806040838503121561437757600080fd5b8235614382816139d8565b91506020830135801515811461406957600080fd5b6000806000606084860312156143ac57600080fd5b505081359360208301359350604090920135919050565b600080600080600080606087890312156143dc57600080fd5b86356001600160401b03808211156143f357600080fd5b6143ff8a838b01613dee565b9098509650602089013591508082111561441857600080fd5b6144248a838b01613dee565b9096509450604089013591508082111561443d57600080fd5b5061444a89828a01613dee565b979a9699509497509295939492505050565b60008060006060848603121561447157600080fd5b833561447c816139d8565b9250602084013561448c816139d8565b9150604084013561449c816139d8565b809150509250925092565b600080604083850312156144ba57600080fd5b82356144c5816139d8565b91506020830135614069816139d8565b600080600080600060a086880312156144ed57600080fd5b85356144f8816139d8565b94506020860135614508816139d8565b9350604086013592506060860135915060808601356001600160401b0381111561453157600080fd5b61403788828901613cff565b60006020828403121561454f57600080fd5b81356001600160401b0381111561456557600080fd5b8201601f8101841361457657600080fd5b61458584823560208401613ca2565b949350505050565b600181811c908216806145a157607f821691505b60208210810361133857634e487b7160e01b600052602260045260246000fd5b634e487b7160e01b600052601160045260246000fd5b600082198211156145ea576145ea6145c1565b500190565b634e487b7160e01b600052603260045260246000fd5b600060018201614617576146176145c1565b5060010190565b6000816000190483118215151615614638576146386145c1565b500290565b60008261465a57634e487b7160e01b600052601260045260246000fd5b500490565b600082821015614671576146716145c1565b500390565b6020808252602e908201527f496e697469616c697a61626c653a20636f6e747261637420697320616c72656160408201526d191e481a5b9a5d1a585b1a5e995960921b606082015260800190565b60208082526010908201526f14185d5cd8589b194e881c185d5cd95960821b604082015260600190565b60408152600061471a60408301600c81526b66726f6d4163636f756e747360a01b602082015260400190565b828103602093840152600a81526972656d6f76616c49647360b01b928101929092525060400190565b60408152600061476f60408301600c81526b66726f6d4163636f756e747360a01b602082015260400190565b8281036020938401526007815266616d6f756e747360c81b928101929092525060400190565b6000602082840312156147a757600080fd5b5051919050565b6000608082840312156147c057600080fd5b604051608081018181106001600160401b03821117156147e2576147e2613bcc565b6040528251815260208301516147f7816139d8565b6020820152604083810151908201526060928301519281019290925250919050565b7f416363657373436f6e74726f6c3a206163636f756e7420000000000000000000815260008351614851816017850160208801613b5d565b7001034b99036b4b9b9b4b733903937b6329607d1b6017918401918201528351614882816028840160208801613b5d565b01602801949350505050565b6020808252602b908201527f496e697469616c697a61626c653a20636f6e7472616374206973206e6f74206960408201526a6e697469616c697a696e6760a81b606082015260800190565b60208082526025908201527f455243313135353a207472616e7366657220746f20746865207a65726f206164604082015264647265737360d81b606082015260800190565b6020808252602a908201527f455243313135353a20696e73756666696369656e742062616c616e636520666f60408201526939103a3930b739b332b960b11b606082015260800190565b60408152600061497b604083018561420d565b8281036020840152611240818561420d565b634e487b7160e01b600052603160045260246000fd5b6000816149b2576149b26145c1565b506000190190565b6001600160a01b03868116825285166020820152604081018490526060810183905260a0608082018190526000906149f490830184613b8d565b979650505050505050565b600060208284031215614a1157600080fd5b815161129881613b11565b600060033d1115614a355760046000803e5060005160e01c5b90565b600060443d1015614a465790565b6040516003193d81016004833e81513d6001600160401b038160248401118184111715614a7557505050505090565b8285019150815181811115614a8d5750505050505090565b843d8701016020828501011115614aa75750505050505090565b614ab660208286010187613be2565b509095945050505050565b60208082526028908201527f455243313135353a204552433131353552656365697665722072656a656374656040820152676420746f6b656e7360c01b606082015260800190565b6001600160a01b0386811682528516602082015260a060408201819052600090614b359083018661420d565b8281036060840152614b47818661420d565b90508281036080840152614b5b8185613b8d565b9897505050505050505056fe68747470733a2f2f6e6f72692e636f6d2f6170692f7265737472696374696f6e7363686564756c652f7b69647d2e6a736f6e696e7369646520455243313135357570677261646561626c65205f6d696e74206265666f7265206265666f7265546f6b656e5472616e7366657265d7a28e3265b37a6474929f336521b332c1681b933f6cb9f3376673440d862ab62aeb2ef35a3718e51a7e8b0b0d8e6fa690a4037bf45dad308976da469a861ca2646970667358221220b37997e4e9a442f3687e6d1870f14c74b8b7c6991a8a64a9c954849940b73ed164736f6c634300080d0033",
  "linkReferences": {},
  "deployedLinkReferences": {}
}