{
  "_format": "hh-sol-artifact-1",
  "contractName": "RestrictedNORI",
  "sourceName": "contracts/RestrictedNORI.sol",
  "abi": [
    {
      "inputs": [
        {
          "internalType": "string",
          "name": "array1Name",
          "type": "string"
        },
        {
          "internalType": "string",
          "name": "array2Name",
          "type": "string"
        }
      ],
      "name": "ArrayLengthMismatch",
      "type": "error"
    },
    {
      "inputs": [
        {
          "internalType": "address",
          "name": "account",
          "type": "address"
        },
        {
          "internalType": "uint256",
          "name": "scheduleId",
          "type": "uint256"
        }
      ],
      "name": "InsufficientClaimableBalance",
      "type": "error"
    },
    {
      "inputs": [
        {
          "internalType": "uint256",
          "name": "scheduleId",
          "type": "uint256"
        }
      ],
      "name": "InsufficientUnreleasedTokens",
      "type": "error"
    },
    {
      "inputs": [
        {
          "internalType": "address",
          "name": "account",
          "type": "address"
        }
      ],
      "name": "InvalidBpNoriSender",
      "type": "error"
    },
    {
      "inputs": [
        {
          "internalType": "uint256",
          "name": "projectId",
          "type": "uint256"
        }
      ],
      "name": "InvalidScheduleStartTime",
      "type": "error"
    },
    {
      "inputs": [
        {
          "internalType": "uint256",
          "name": "scheduleId",
          "type": "uint256"
        }
      ],
      "name": "NonexistentSchedule",
      "type": "error"
    },
    {
      "inputs": [],
      "name": "RecipientCannotBeZeroAddress",
      "type": "error"
    },
    {
      "inputs": [
        {
          "internalType": "address",
          "name": "recipient",
          "type": "address"
        },
        {
          "internalType": "string",
          "name": "role",
          "type": "string"
        }
      ],
      "name": "RecipientCannotHaveRole",
      "type": "error"
    },
    {
      "inputs": [
        {
          "internalType": "uint256",
          "name": "projectId",
          "type": "uint256"
        }
      ],
      "name": "RestrictionDurationNotSet",
      "type": "error"
    },
    {
      "inputs": [
        {
          "internalType": "uint256",
          "name": "scheduleTokenId",
          "type": "uint256"
        }
      ],
      "name": "ScheduleExists",
      "type": "error"
    },
    {
      "inputs": [],
      "name": "TokenSenderNotBPNORI",
      "type": "error"
    },
    {
      "anonymous": false,
      "inputs": [
        {
          "indexed": true,
          "internalType": "address",
          "name": "account",
          "type": "address"
        },
        {
          "indexed": true,
          "internalType": "address",
          "name": "operator",
          "type": "address"
        },
        {
          "indexed": false,
          "internalType": "bool",
          "name": "approved",
          "type": "bool"
        }
      ],
      "name": "ApprovalForAll",
      "type": "event"
    },
    {
      "anonymous": false,
      "inputs": [
        {
          "indexed": false,
          "internalType": "address",
          "name": "account",
          "type": "address"
        }
      ],
      "name": "Paused",
      "type": "event"
    },
    {
      "anonymous": false,
      "inputs": [
        {
          "indexed": true,
          "internalType": "bytes32",
          "name": "role",
          "type": "bytes32"
        },
        {
          "indexed": true,
          "internalType": "bytes32",
          "name": "previousAdminRole",
          "type": "bytes32"
        },
        {
          "indexed": true,
          "internalType": "bytes32",
          "name": "newAdminRole",
          "type": "bytes32"
        }
      ],
      "name": "RoleAdminChanged",
      "type": "event"
    },
    {
      "anonymous": false,
      "inputs": [
        {
          "indexed": true,
          "internalType": "bytes32",
          "name": "role",
          "type": "bytes32"
        },
        {
          "indexed": true,
          "internalType": "address",
          "name": "account",
          "type": "address"
        },
        {
          "indexed": true,
          "internalType": "address",
          "name": "sender",
          "type": "address"
        }
      ],
      "name": "RoleGranted",
      "type": "event"
    },
    {
      "anonymous": false,
      "inputs": [
        {
          "indexed": true,
          "internalType": "bytes32",
          "name": "role",
          "type": "bytes32"
        },
        {
          "indexed": true,
          "internalType": "address",
          "name": "account",
          "type": "address"
        },
        {
          "indexed": true,
          "internalType": "address",
          "name": "sender",
          "type": "address"
        }
      ],
      "name": "RoleRevoked",
      "type": "event"
    },
    {
      "anonymous": false,
      "inputs": [
        {
          "indexed": true,
          "internalType": "uint256",
          "name": "projectId",
          "type": "uint256"
        },
        {
          "indexed": false,
          "internalType": "uint256",
          "name": "startTime",
          "type": "uint256"
        },
        {
          "indexed": false,
          "internalType": "uint256",
          "name": "endTime",
          "type": "uint256"
        }
      ],
      "name": "ScheduleCreated",
      "type": "event"
    },
    {
      "anonymous": false,
      "inputs": [
        {
          "indexed": true,
          "internalType": "address",
          "name": "from",
          "type": "address"
        },
        {
          "indexed": true,
          "internalType": "address",
          "name": "to",
          "type": "address"
        },
        {
          "indexed": true,
          "internalType": "uint256",
          "name": "scheduleId",
          "type": "uint256"
        },
        {
          "indexed": false,
          "internalType": "uint256",
          "name": "quantity",
          "type": "uint256"
        }
      ],
      "name": "TokensClaimed",
      "type": "event"
    },
    {
      "anonymous": false,
      "inputs": [
        {
          "indexed": true,
          "internalType": "uint256",
          "name": "atTime",
          "type": "uint256"
        },
        {
          "indexed": true,
          "internalType": "uint256",
          "name": "removalId",
          "type": "uint256"
        },
        {
          "indexed": true,
          "internalType": "uint256",
          "name": "scheduleId",
          "type": "uint256"
        },
        {
          "indexed": false,
          "internalType": "uint256",
          "name": "quantity",
          "type": "uint256"
        }
      ],
      "name": "TokensRevoked",
      "type": "event"
    },
    {
      "anonymous": false,
      "inputs": [
        {
          "indexed": true,
          "internalType": "address",
          "name": "operator",
          "type": "address"
        },
        {
          "indexed": true,
          "internalType": "address",
          "name": "from",
          "type": "address"
        },
        {
          "indexed": true,
          "internalType": "address",
          "name": "to",
          "type": "address"
        },
        {
          "indexed": false,
          "internalType": "uint256[]",
          "name": "ids",
          "type": "uint256[]"
        },
        {
          "indexed": false,
          "internalType": "uint256[]",
          "name": "values",
          "type": "uint256[]"
        }
      ],
      "name": "TransferBatch",
      "type": "event"
    },
    {
      "anonymous": false,
      "inputs": [
        {
          "indexed": true,
          "internalType": "address",
          "name": "operator",
          "type": "address"
        },
        {
          "indexed": true,
          "internalType": "address",
          "name": "from",
          "type": "address"
        },
        {
          "indexed": true,
          "internalType": "address",
          "name": "to",
          "type": "address"
        },
        {
          "indexed": false,
          "internalType": "uint256",
          "name": "id",
          "type": "uint256"
        },
        {
          "indexed": false,
          "internalType": "uint256",
          "name": "value",
          "type": "uint256"
        }
      ],
      "name": "TransferSingle",
      "type": "event"
    },
    {
      "anonymous": false,
      "inputs": [
        {
          "indexed": false,
          "internalType": "string",
          "name": "value",
          "type": "string"
        },
        {
          "indexed": true,
          "internalType": "uint256",
          "name": "id",
          "type": "uint256"
        }
      ],
      "name": "URI",
      "type": "event"
    },
    {
      "anonymous": false,
      "inputs": [
        {
          "indexed": false,
          "internalType": "address",
          "name": "account",
          "type": "address"
        }
      ],
      "name": "Unpaused",
      "type": "event"
    },
    {
      "inputs": [],
      "name": "DEFAULT_ADMIN_ROLE",
      "outputs": [
        {
          "internalType": "bytes32",
          "name": "",
          "type": "bytes32"
        }
      ],
      "stateMutability": "view",
      "type": "function"
    },
    {
      "inputs": [],
      "name": "ERC777_TOKENS_RECIPIENT_HASH",
      "outputs": [
        {
          "internalType": "bytes32",
          "name": "",
          "type": "bytes32"
        }
      ],
      "stateMutability": "view",
      "type": "function"
    },
    {
      "inputs": [],
      "name": "PAUSER_ROLE",
      "outputs": [
        {
          "internalType": "bytes32",
          "name": "",
          "type": "bytes32"
        }
      ],
      "stateMutability": "view",
      "type": "function"
    },
    {
      "inputs": [],
      "name": "SCHEDULE_CREATOR_ROLE",
      "outputs": [
        {
          "internalType": "bytes32",
          "name": "",
          "type": "bytes32"
        }
      ],
      "stateMutability": "view",
      "type": "function"
    },
    {
      "inputs": [],
      "name": "TOKEN_DEPOSITOR_ROLE",
      "outputs": [
        {
          "internalType": "bytes32",
          "name": "",
          "type": "bytes32"
        }
      ],
      "stateMutability": "view",
      "type": "function"
    },
    {
      "inputs": [],
      "name": "TOKEN_REVOKER_ROLE",
      "outputs": [
        {
          "internalType": "bytes32",
          "name": "",
          "type": "bytes32"
        }
      ],
      "stateMutability": "view",
      "type": "function"
    },
    {
      "inputs": [
        {
          "internalType": "address",
          "name": "account",
          "type": "address"
        },
        {
          "internalType": "uint256",
          "name": "id",
          "type": "uint256"
        }
      ],
      "name": "balanceOf",
      "outputs": [
        {
          "internalType": "uint256",
          "name": "",
          "type": "uint256"
        }
      ],
      "stateMutability": "view",
      "type": "function"
    },
    {
      "inputs": [
        {
          "internalType": "address[]",
          "name": "accounts",
          "type": "address[]"
        },
        {
          "internalType": "uint256[]",
          "name": "ids",
          "type": "uint256[]"
        }
      ],
      "name": "balanceOfBatch",
      "outputs": [
        {
          "internalType": "uint256[]",
          "name": "",
          "type": "uint256[]"
        }
      ],
      "stateMutability": "view",
      "type": "function"
    },
    {
      "inputs": [
        {
          "internalType": "address",
          "name": "account",
          "type": "address"
        }
      ],
      "name": "batchGetScheduleDetailsForAccount",
      "outputs": [
        {
          "components": [
            {
              "internalType": "address",
              "name": "tokenHolder",
              "type": "address"
            },
            {
              "internalType": "uint256",
              "name": "scheduleTokenId",
              "type": "uint256"
            },
            {
              "internalType": "uint256",
              "name": "startTime",
              "type": "uint256"
            },
            {
              "internalType": "uint256",
              "name": "endTime",
              "type": "uint256"
            },
            {
              "internalType": "uint256",
              "name": "balance",
              "type": "uint256"
            },
            {
              "internalType": "uint256",
              "name": "claimableAmount",
              "type": "uint256"
            },
            {
              "internalType": "uint256",
              "name": "claimedAmount",
              "type": "uint256"
            },
            {
              "internalType": "uint256",
              "name": "quantityRevoked",
              "type": "uint256"
            },
            {
              "internalType": "bool",
              "name": "exists",
              "type": "bool"
            }
          ],
          "internalType": "struct RestrictedNORI.ScheduleDetailForAddress[]",
          "name": "",
          "type": "tuple[]"
        }
      ],
      "stateMutability": "view",
      "type": "function"
    },
    {
      "inputs": [
        {
          "internalType": "uint256[]",
          "name": "scheduleIds",
          "type": "uint256[]"
        }
      ],
      "name": "batchGetScheduleSummaries",
      "outputs": [
        {
          "components": [
            {
              "internalType": "uint256",
              "name": "scheduleTokenId",
              "type": "uint256"
            },
            {
              "internalType": "uint256",
              "name": "startTime",
              "type": "uint256"
            },
            {
              "internalType": "uint256",
              "name": "endTime",
              "type": "uint256"
            },
            {
              "internalType": "uint256",
              "name": "totalSupply",
              "type": "uint256"
            },
            {
              "internalType": "uint256",
              "name": "totalClaimableAmount",
              "type": "uint256"
            },
            {
              "internalType": "uint256",
              "name": "totalClaimedAmount",
              "type": "uint256"
            },
            {
              "internalType": "uint256",
              "name": "totalQuantityRevoked",
              "type": "uint256"
            },
            {
              "internalType": "address[]",
              "name": "tokenHolders",
              "type": "address[]"
            },
            {
              "internalType": "bool",
              "name": "exists",
              "type": "bool"
            }
          ],
          "internalType": "struct RestrictedNORI.ScheduleSummary[]",
          "name": "",
          "type": "tuple[]"
        }
      ],
      "stateMutability": "view",
      "type": "function"
    },
    {
      "inputs": [
        {
          "internalType": "address[]",
          "name": "toAccounts",
          "type": "address[]"
        },
        {
          "internalType": "uint256[]",
          "name": "removalIds",
          "type": "uint256[]"
        },
        {
          "internalType": "uint256[]",
          "name": "amounts",
          "type": "uint256[]"
        }
      ],
      "name": "batchRevokeUnreleasedTokenAmounts",
      "outputs": [],
      "stateMutability": "nonpayable",
      "type": "function"
    },
    {
      "inputs": [
        {
          "internalType": "uint256",
          "name": "scheduleId",
          "type": "uint256"
        }
      ],
      "name": "claimableBalanceForSchedule",
      "outputs": [
        {
          "internalType": "uint256",
          "name": "",
          "type": "uint256"
        }
      ],
      "stateMutability": "view",
      "type": "function"
    },
    {
      "inputs": [
        {
          "internalType": "uint256",
          "name": "scheduleId",
          "type": "uint256"
        },
        {
          "internalType": "address",
          "name": "account",
          "type": "address"
        }
      ],
      "name": "claimableBalanceForScheduleForAccount",
      "outputs": [
        {
          "internalType": "uint256",
          "name": "",
          "type": "uint256"
        }
      ],
      "stateMutability": "view",
      "type": "function"
    },
    {
      "inputs": [
        {
          "internalType": "uint256",
          "name": "projectId",
          "type": "uint256"
        }
      ],
      "name": "createSchedule",
      "outputs": [],
      "stateMutability": "nonpayable",
      "type": "function"
    },
    {
      "inputs": [
        {
          "internalType": "uint256",
          "name": "id",
          "type": "uint256"
        }
      ],
      "name": "exists",
      "outputs": [
        {
          "internalType": "bool",
          "name": "",
          "type": "bool"
        }
      ],
      "stateMutability": "view",
      "type": "function"
    },
    {
      "inputs": [],
      "name": "getAllScheduleIds",
      "outputs": [
        {
          "internalType": "uint256[]",
          "name": "",
          "type": "uint256[]"
        }
      ],
      "stateMutability": "view",
      "type": "function"
    },
    {
      "inputs": [
        {
          "internalType": "uint256",
          "name": "methodology",
          "type": "uint256"
        },
        {
          "internalType": "uint256",
          "name": "methodologyVersion",
          "type": "uint256"
        }
      ],
      "name": "getRestrictionDurationForMethodologyAndVersion",
      "outputs": [
        {
          "components": [
            {
              "internalType": "uint256",
              "name": "duration",
              "type": "uint256"
            },
            {
              "internalType": "bool",
              "name": "wasSet",
              "type": "bool"
            }
          ],
          "internalType": "struct RestrictedNORI.RestrictionDuration",
          "name": "",
          "type": "tuple"
        }
      ],
      "stateMutability": "view",
      "type": "function"
    },
    {
      "inputs": [
        {
          "internalType": "bytes32",
          "name": "role",
          "type": "bytes32"
        }
      ],
      "name": "getRoleAdmin",
      "outputs": [
        {
          "internalType": "bytes32",
          "name": "",
          "type": "bytes32"
        }
      ],
      "stateMutability": "view",
      "type": "function"
    },
    {
      "inputs": [
        {
          "internalType": "bytes32",
          "name": "role",
          "type": "bytes32"
        },
        {
          "internalType": "uint256",
          "name": "index",
          "type": "uint256"
        }
      ],
      "name": "getRoleMember",
      "outputs": [
        {
          "internalType": "address",
          "name": "",
          "type": "address"
        }
      ],
      "stateMutability": "view",
      "type": "function"
    },
    {
      "inputs": [
        {
          "internalType": "bytes32",
          "name": "role",
          "type": "bytes32"
        }
      ],
      "name": "getRoleMemberCount",
      "outputs": [
        {
          "internalType": "uint256",
          "name": "",
          "type": "uint256"
        }
      ],
      "stateMutability": "view",
      "type": "function"
    },
    {
      "inputs": [
        {
          "internalType": "address",
          "name": "account",
          "type": "address"
        },
        {
          "internalType": "uint256",
          "name": "scheduleId",
          "type": "uint256"
        }
      ],
      "name": "getScheduleDetailForAccount",
      "outputs": [
        {
          "components": [
            {
              "internalType": "address",
              "name": "tokenHolder",
              "type": "address"
            },
            {
              "internalType": "uint256",
              "name": "scheduleTokenId",
              "type": "uint256"
            },
            {
              "internalType": "uint256",
              "name": "startTime",
              "type": "uint256"
            },
            {
              "internalType": "uint256",
              "name": "endTime",
              "type": "uint256"
            },
            {
              "internalType": "uint256",
              "name": "balance",
              "type": "uint256"
            },
            {
              "internalType": "uint256",
              "name": "claimableAmount",
              "type": "uint256"
            },
            {
              "internalType": "uint256",
              "name": "claimedAmount",
              "type": "uint256"
            },
            {
              "internalType": "uint256",
              "name": "quantityRevoked",
              "type": "uint256"
            },
            {
              "internalType": "bool",
              "name": "exists",
              "type": "bool"
            }
          ],
          "internalType": "struct RestrictedNORI.ScheduleDetailForAddress",
          "name": "",
          "type": "tuple"
        }
      ],
      "stateMutability": "view",
      "type": "function"
    },
    {
      "inputs": [
        {
          "internalType": "address",
          "name": "account",
          "type": "address"
        }
      ],
      "name": "getScheduleIdsForAccount",
      "outputs": [
        {
          "internalType": "uint256[]",
          "name": "",
          "type": "uint256[]"
        }
      ],
      "stateMutability": "view",
      "type": "function"
    },
    {
      "inputs": [
        {
          "internalType": "uint256",
          "name": "scheduleId",
          "type": "uint256"
        }
      ],
      "name": "getScheduleSummary",
      "outputs": [
        {
          "components": [
            {
              "internalType": "uint256",
              "name": "scheduleTokenId",
              "type": "uint256"
            },
            {
              "internalType": "uint256",
              "name": "startTime",
              "type": "uint256"
            },
            {
              "internalType": "uint256",
              "name": "endTime",
              "type": "uint256"
            },
            {
              "internalType": "uint256",
              "name": "totalSupply",
              "type": "uint256"
            },
            {
              "internalType": "uint256",
              "name": "totalClaimableAmount",
              "type": "uint256"
            },
            {
              "internalType": "uint256",
              "name": "totalClaimedAmount",
              "type": "uint256"
            },
            {
              "internalType": "uint256",
              "name": "totalQuantityRevoked",
              "type": "uint256"
            },
            {
              "internalType": "address[]",
              "name": "tokenHolders",
              "type": "address[]"
            },
            {
              "internalType": "bool",
              "name": "exists",
              "type": "bool"
            }
          ],
          "internalType": "struct RestrictedNORI.ScheduleSummary",
          "name": "",
          "type": "tuple"
        }
      ],
      "stateMutability": "view",
      "type": "function"
    },
    {
      "inputs": [
        {
          "internalType": "bytes32",
          "name": "role",
          "type": "bytes32"
        },
        {
          "internalType": "address",
          "name": "account",
          "type": "address"
        }
      ],
      "name": "grantRole",
      "outputs": [],
      "stateMutability": "nonpayable",
      "type": "function"
    },
    {
      "inputs": [
        {
          "internalType": "bytes32",
          "name": "role",
          "type": "bytes32"
        },
        {
          "internalType": "address",
          "name": "account",
          "type": "address"
        }
      ],
      "name": "hasRole",
      "outputs": [
        {
          "internalType": "bool",
          "name": "",
          "type": "bool"
        }
      ],
      "stateMutability": "view",
      "type": "function"
    },
    {
      "inputs": [],
      "name": "initialize",
      "outputs": [],
      "stateMutability": "nonpayable",
      "type": "function"
    },
    {
      "inputs": [
        {
          "internalType": "address",
          "name": "account",
          "type": "address"
        },
        {
          "internalType": "address",
          "name": "operator",
          "type": "address"
        }
      ],
      "name": "isApprovedForAll",
      "outputs": [
        {
          "internalType": "bool",
          "name": "",
          "type": "bool"
        }
      ],
      "stateMutability": "view",
      "type": "function"
    },
    {
      "inputs": [],
      "name": "pause",
      "outputs": [],
      "stateMutability": "nonpayable",
      "type": "function"
    },
    {
      "inputs": [],
      "name": "paused",
      "outputs": [
        {
          "internalType": "bool",
          "name": "",
          "type": "bool"
        }
      ],
      "stateMutability": "view",
      "type": "function"
    },
    {
      "inputs": [
        {
          "internalType": "address",
          "name": "bridgedPolygonNoriAddress",
          "type": "address"
        },
        {
          "internalType": "address",
          "name": "removalAddress",
          "type": "address"
        }
      ],
      "name": "registerContractAddresses",
      "outputs": [],
      "stateMutability": "nonpayable",
      "type": "function"
    },
    {
      "inputs": [
        {
          "internalType": "bytes32",
          "name": "role",
          "type": "bytes32"
        },
        {
          "internalType": "address",
          "name": "account",
          "type": "address"
        }
      ],
      "name": "renounceRole",
      "outputs": [],
      "stateMutability": "nonpayable",
      "type": "function"
    },
    {
      "inputs": [
        {
          "internalType": "uint256",
          "name": "scheduleId",
          "type": "uint256"
        }
      ],
      "name": "revocableQuantityForSchedule",
      "outputs": [
        {
          "internalType": "uint256",
          "name": "",
          "type": "uint256"
        }
      ],
      "stateMutability": "view",
      "type": "function"
    },
    {
      "inputs": [
        {
          "internalType": "bytes32",
          "name": "role",
          "type": "bytes32"
        },
        {
          "internalType": "address",
          "name": "account",
          "type": "address"
        }
      ],
      "name": "revokeRole",
      "outputs": [],
      "stateMutability": "nonpayable",
      "type": "function"
    },
    {
      "inputs": [
        {
          "internalType": "address",
          "name": "from",
          "type": "address"
        },
        {
          "internalType": "address",
          "name": "to",
          "type": "address"
        },
        {
          "internalType": "uint256[]",
          "name": "ids",
          "type": "uint256[]"
        },
        {
          "internalType": "uint256[]",
          "name": "amounts",
          "type": "uint256[]"
        },
        {
          "internalType": "bytes",
          "name": "data",
          "type": "bytes"
        }
      ],
      "name": "safeBatchTransferFrom",
      "outputs": [],
      "stateMutability": "nonpayable",
      "type": "function"
    },
    {
      "inputs": [
        {
          "internalType": "address",
          "name": "from",
          "type": "address"
        },
        {
          "internalType": "address",
          "name": "to",
          "type": "address"
        },
        {
          "internalType": "uint256",
          "name": "id",
          "type": "uint256"
        },
        {
          "internalType": "uint256",
          "name": "amount",
          "type": "uint256"
        },
        {
          "internalType": "bytes",
          "name": "data",
          "type": "bytes"
        }
      ],
      "name": "safeTransferFrom",
      "outputs": [],
      "stateMutability": "nonpayable",
      "type": "function"
    },
    {
      "inputs": [
        {
          "internalType": "address",
          "name": "operator",
          "type": "address"
        },
        {
          "internalType": "bool",
          "name": "approved",
          "type": "bool"
        }
      ],
      "name": "setApprovalForAll",
      "outputs": [],
      "stateMutability": "nonpayable",
      "type": "function"
    },
    {
      "inputs": [
        {
          "internalType": "uint256",
          "name": "methodology",
          "type": "uint256"
        },
        {
          "internalType": "uint256",
          "name": "methodologyVersion",
          "type": "uint256"
        },
        {
          "internalType": "uint256",
          "name": "durationInSeconds",
          "type": "uint256"
        }
      ],
      "name": "setRestrictionDurationForMethodologyAndVersion",
      "outputs": [],
      "stateMutability": "nonpayable",
      "type": "function"
    },
    {
      "inputs": [
        {
          "internalType": "bytes4",
          "name": "interfaceId",
          "type": "bytes4"
        }
      ],
      "name": "supportsInterface",
      "outputs": [
        {
          "internalType": "bool",
          "name": "",
          "type": "bool"
        }
      ],
      "stateMutability": "view",
      "type": "function"
    },
    {
      "inputs": [
        {
          "internalType": "address",
          "name": "",
          "type": "address"
        },
        {
          "internalType": "address",
          "name": "from",
          "type": "address"
        },
        {
          "internalType": "address",
          "name": "",
          "type": "address"
        },
        {
          "internalType": "uint256",
          "name": "amount",
          "type": "uint256"
        },
        {
          "internalType": "bytes",
          "name": "userData",
          "type": "bytes"
        },
        {
          "internalType": "bytes",
          "name": "operatorData",
          "type": "bytes"
        }
      ],
      "name": "tokensReceived",
      "outputs": [],
      "stateMutability": "nonpayable",
      "type": "function"
    },
    {
      "inputs": [
        {
          "internalType": "uint256",
          "name": "id",
          "type": "uint256"
        }
      ],
      "name": "totalSupply",
      "outputs": [
        {
          "internalType": "uint256",
          "name": "",
          "type": "uint256"
        }
      ],
      "stateMutability": "view",
      "type": "function"
    },
    {
      "inputs": [],
      "name": "unpause",
      "outputs": [],
      "stateMutability": "nonpayable",
      "type": "function"
    },
    {
      "inputs": [
        {
          "internalType": "uint256",
          "name": "",
          "type": "uint256"
        }
      ],
      "name": "uri",
      "outputs": [
        {
          "internalType": "string",
          "name": "",
          "type": "string"
        }
      ],
      "stateMutability": "view",
      "type": "function"
    },
    {
      "inputs": [
        {
          "internalType": "address",
          "name": "recipient",
          "type": "address"
        },
        {
          "internalType": "uint256",
          "name": "scheduleId",
          "type": "uint256"
        },
        {
          "internalType": "uint256",
          "name": "amount",
          "type": "uint256"
        }
      ],
      "name": "withdrawFromSchedule",
      "outputs": [
        {
          "internalType": "bool",
          "name": "",
          "type": "bool"
        }
      ],
      "stateMutability": "nonpayable",
      "type": "function"
    }
  ],
  "bytecode": "0x608060405234801561001057600080fd5b50614845806100206000396000f3fe608060405234801561001057600080fd5b50600436106102675760003560e01c80636334334611610151578063b8b4dbe0116100c3578063dfd2cdee11610087578063dfd2cdee146105ff578063e01d739314610612578063e63ab1e914610625578063e985e9c51461063a578063f242432a14610676578063f6f57a2e1461068957600080fd5b8063b8b4dbe01461057f578063bd85b039146105a6578063c1499fa8146105c6578063ca15c873146105d9578063d547741f146105ec57600080fd5b80639010d07c116101155780639010d07c146104e357806391d148541461050e57806393ae796d146105215780639ac7b44d14610534578063a217fddf14610564578063a22cb4651461056c57600080fd5b80636334334614610498578063639aa0ad146104a0578063713279b1146104c05780638129fc1c146104d35780638456cb59146104db57600080fd5b80632eb2c2d6116101ea5780634e1273f4116101ae5780634e1273f4146103fe5780634f558e791461041e578063521189a9146104405780635c975abb146104675780635d37165a146104725780636235a4e91461048557600080fd5b80632eb2c2d61461039d5780632f2ff15d146103b057806336568abe146103c357806336e4d3f0146103d65780633f4ba83a146103f657600080fd5b8063229afd6111610231578063229afd6114610311578063248a9ca31461032657806327ca0c271461034a5780632d9f0f161461035d5780632e5e8d831461037d57600080fd5b806223de291461026c578062fdd58e1461028157806301ffc9a7146102a75780630a517033146102ca5780630e89341c146102f1575b600080fd5b61027f61027a366004613896565b61069c565b005b61029461028f366004613946565b6107b9565b6040519081526020015b60405180910390f35b6102ba6102b5366004613988565b610850565b604051901515815260200161029e565b6102947ff9a119238c936e6f3d82da4fb22453b193301ed5112da5462cc202e164e889fd81565b6103046102ff3660046139a5565b61085b565b60405161029e9190613a1a565b6102946000805160206147f083398151915281565b6102946103343660046139a5565b600090815261012d602052604090206001015490565b6102ba610358366004613a2d565b6108ef565b61037061036b366004613aa6565b610a0d565b60405161029e9190613b96565b61039061038b3660046139a5565b610ac9565b60405161029e9190613bf8565b61027f6103ab366004613d54565b610c86565b61027f6103be366004613e01565b610df8565b61027f6103d1366004613e01565b610e24565b6103e96103e4366004613e31565b610ea2565b60405161029e9190613eaf565b61027f610f6b565b61041161040c366004613efe565b610f8f565b60405161029e9190614005565b6102ba61042c3660046139a5565b600090815260fb6020526040902054151590565b6102947fb281fc8c12954d22544db45de3159a39272895b169a852b314f9cc762e44c53b81565b60975460ff166102ba565b610294610480366004613e01565b6110a3565b6102946104933660046139a5565b61114f565b6104116111a5565b6104b36104ae366004613946565b611244565b60405161029e9190614018565b6102946104ce3660046139a5565b6112fb565b61027f611345565b61027f611555565b6104f66104f1366004614027565b611576565b6040516001600160a01b03909116815260200161029e565b6102ba61051c366004613e01565b61158f565b61027f61052f366004614049565b6115bb565b610547610542366004614027565b6115f8565b60408051825181526020928301511515928101929092520161029e565b610294600081565b61027f61057a366004614077565b61163f565b6102947f813b9efdf6afe6b57682eb1fb850711edc34da21ae7f7376cb7a391b1be3239f81565b6102946105b43660046139a5565b600090815260fb602052604090205490565b61027f6105d43660046140aa565b61164a565b6102946105e73660046139a5565b6116be565b61027f6105fa366004613e01565b6116d6565b61041161060d366004613e31565b6116fd565b61027f6106203660046140d6565b611722565b6102946000805160206147d083398151915281565b6102ba610648366004614049565b6001600160a01b03918216600090815260666020908152604080832093909416825291909152205460ff1690565b61027f61068436600461416f565b611838565b61027f6106973660046139a5565b6118d8565b610196546001600160a01b0316336001600160a01b0316146106d157604051634628d20b60e01b815260040160405180910390fd5b6106fb7ff9a119238c936e6f3d82da4fb22453b193301ed5112da5462cc202e164e889fd8861158f565b61072857604051630465c5db60e41b81526001600160a01b03881660048201526024015b60405180910390fd5b6000610736848601866139a5565b90506107ad818787878080601f01602080910402602001604051908101604052809392919081815260200183838082843760009201919091525050604080516020601f8b01819004810282018101909252898152925089915088908190840183828082843760009201919091525061193792505050565b50505050505050505050565b60006001600160a01b0383166108255760405162461bcd60e51b815260206004820152602b60248201527f455243313135353a2062616c616e636520717565727920666f7220746865207a60448201526a65726f206164647265737360a81b606482015260840161071f565b5060008181526065602090815260408083206001600160a01b03861684529091529020545b92915050565b600061084a82611ab7565b60606067805461086a906141d7565b80601f0160208091040260200160405190810160405280929190818152602001828054610896906141d7565b80156108e35780601f106108b8576101008083540402835291602001916108e3565b820191906000526020600020905b8154815290600101906020018083116108c657829003601f168201915b50505050509050919050565b60006108fc338484611adc565b60008381526101936020526040812060028101805491928592610920908490614221565b909155505033600090815260088201602052604081208054859290610946908490614221565b909155505060405183815284906001600160a01b0387169033907fff097c7d8b1957a4ff09ef1361b5fb54dcede3941ba836d0beb9d10bec725de69060200160405180910390a461019654604051634decdde360e11b81526001600160a01b03878116600483015260248201869052606060448301526000606483015290911690639bd9bbc690608401600060405180830381600087803b1580156109ea57600080fd5b505af11580156109fe573d6000803e3d6000fd5b50600198975050505050505050565b60606000826001600160401b03811115610a2957610a29613c0b565b604051908082528060200260200182016040528015610a6257816020015b610a4f6136fb565b815260200190600190039081610a475790505b50905060005b83811015610ac157610a91858583818110610a8557610a85614239565b90506020020135610ac9565b828281518110610aa357610aa3614239565b60200260200101819052508080610ab99061424f565b915050610a68565b509392505050565b610ad16136fb565b60008281526101936020526040812090610aed60068301611c59565b90506000816001600160401b03811115610b0957610b09613c0b565b604051908082528060200260200182016040528015610b32578160200160208202803683370190505b5090506000826001600160401b03811115610b4f57610b4f613c0b565b604051908082528060200260200182016040528015610b78578160200160208202803683370190505b50905060005b610b8a85600601611c59565b811015610c0057610b9e6006860182611c63565b838281518110610bb057610bb0614239565b60200260200101906001600160a01b031690816001600160a01b03168152505086828281518110610be357610be3614239565b602090810291909101015280610bf88161424f565b915050610b7e565b506040518061012001604052808781526020018560000154815260200185600101548152602001610c3d88600090815260fb602052604090205490565b8152602001610c4b8861114f565b81526002860154602082015260048601546040820152606081019390935260039094015460ff16151560809092019190915250909392505050565b610c938585858585611c6f565b60005b8351811015610df05760006101936000868481518110610cb857610cb8614239565b602002602001015181526020019081526020016000209050838281518110610ce257610ce2614239565b6020026020010151600014610d5257610d42858381518110610d0657610d06614239565b60200260200101516101926000896001600160a01b03166001600160a01b03168152602001908152602001600020611d0690919063ffffffff16565b50610d506006820187611d12565b505b610d7587868481518110610d6857610d68614239565b60200260200101516107b9565b600003610ddd57610dcd858381518110610d9157610d91614239565b602002602001015161019260008a6001600160a01b03166001600160a01b03168152602001908152602001600020611d2790919063ffffffff16565b50610ddb6006820188611d33565b505b5080610de88161424f565b915050610c96565b505050505050565b600082815261012d6020526040902060010154610e158133611d48565b610e1f8383611dac565b505050565b6001600160a01b0381163314610e945760405162461bcd60e51b815260206004820152602f60248201527f416363657373436f6e74726f6c3a2063616e206f6e6c792072656e6f756e636560448201526e103937b632b9903337b91039b2b63360891b606482015260840161071f565b610e9e8282611dcf565b5050565b6001600160a01b038116600090815261019260205260408120606091610ec782611c59565b6001600160401b03811115610ede57610ede613c0b565b604051908082528060200260200182016040528015610f1757816020015b610f04613749565b815260200190600190039081610efc5790505b50905060005b610f2683611c59565b811015610ac157610f3b856104ae8584611c63565b828281518110610f4d57610f4d614239565b60200260200101819052508080610f639061424f565b915050610f1d565b6000805160206147d0833981519152610f848133611d48565b610f8c611df2565b50565b60608151835114610ff45760405162461bcd60e51b815260206004820152602960248201527f455243313135353a206163636f756e747320616e6420696473206c656e677468604482015268040dad2e6dac2e8c6d60bb1b606482015260840161071f565b600083516001600160401b0381111561100f5761100f613c0b565b604051908082528060200260200182016040528015611038578160200160208202803683370190505b50905060005b8451811015610ac15761107685828151811061105c5761105c614239565b6020026020010151858381518110610d6857610d68614239565b82828151811061108857611088614239565b602090810291909101015261109c8161424f565b905061103e565b600082815261019360205260408120816110bd8286611e85565b90506000816000036110d157506000611146565b60006110dd86886107b9565b6001600160a01b03871660009081526008860160205260408120549192506111048961114f565b905081858760020154836111189190614221565b6111228686614221565b61112c9190614268565b6111369190614287565b61114091906142a9565b93505050505b95945050505050565b600081815261019360205260408120600381015460ff16611186576040516325f8781760e01b81526004810184905260240161071f565b806002015461119484611ea3565b61119e91906142a9565b9392505050565b606060006111b4610194611c59565b6001600160401b038111156111cb576111cb613c0b565b6040519080825280602002602001820160405280156111f4578160200160208202803683370190505b50905060005b815181101561123e5761120f61019482611c63565b82828151811061122157611221614239565b6020908102919091010152806112368161424f565b9150506111fa565b50919050565b61124c613749565b600082815261019360209081526040918290208251610120810184526001600160a01b0387168152918201859052805492820192909252600182015460608201526080810161129b86866107b9565b81526020016112aa85876110a3565b81526001600160a01b038616600081815260088501602090815260408083205482860152928252600986019052819020549082015260039092015460ff161515606090920191909152905092915050565b600081815261019360205260408120600381015460ff16611332576040516325f8781760e01b81526004810184905260240161071f565b61133b83611ea3565b6111948285611e85565b600054610100900460ff166113605760005460ff1615611364565b303b155b6113c75760405162461bcd60e51b815260206004820152602e60248201527f496e697469616c697a61626c653a20636f6e747261637420697320616c72656160448201526d191e481a5b9a5d1a585b1a5e995960921b606482015260840161071f565b600054610100900460ff161580156113e9576000805461ffff19166101011790555b61140a60405180606001604052806032815260200161476460329139611ec8565b611412611ef8565b61141a611ef8565b611422611ef8565b61142a611ef8565b611432611f21565b61143a611ef8565b611445600033611f54565b61145d6000805160206147d083398151915233611f54565b6114756000805160206147f083398151915233611f54565b61149f7f813b9efdf6afe6b57682eb1fb850711edc34da21ae7f7376cb7a391b1be3239f33611f54565b6114b0600160006312cf357061164a565b6040516329965a1d60e01b815230600482018190527fb281fc8c12954d22544db45de3159a39272895b169a852b314f9cc762e44c53b60248301526044820152731820a4b7618bde71dce8cdc73aab6c95905fad24906329965a1d90606401600060405180830381600087803b15801561152957600080fd5b505af115801561153d573d6000803e3d6000fd5b505050508015610f8c576000805461ff001916905550565b6000805160206147d083398151915261156e8133611d48565b610f8c611f5e565b600082815261015f6020526040812061119e9083611c63565b600091825261012d602090815260408084206001600160a01b0393909316845291905290205460ff1690565b60006115c78133611d48565b5061019680546001600160a01b039384166001600160a01b0319918216179091556101978054929093169116179055565b604080518082018252600080825260209182018190529384526101918152818420928452918252918290208251808401909352805483526001015460ff1615159082015290565b610e9e338383611fb6565b60975460ff161561166d5760405162461bcd60e51b815260040161071f906142c0565b60006116798133611d48565b50604080518082018252918252600160208084018281526000968752610191825283872095875294905293209051815590519101805460ff1916911515919091179055565b600081815261015f6020526040812061084a90611c59565b600082815261012d60205260409020600101546116f38133611d48565b610e1f8383611dcf565b6001600160a01b03811660009081526101926020526040902060609061119e81612096565b60975460ff16156117455760405162461bcd60e51b815260040161071f906142c0565b7f813b9efdf6afe6b57682eb1fb850711edc34da21ae7f7376cb7a391b1be3239f6117708133611d48565b8584146117905760405163616c411360e01b815260040161071f906142ea565b8582146117b05760405163616c411360e01b815260040161071f9061433f565b60005b8681101561182e5761181c8888838181106117d0576117d0614239565b90506020020160208101906117e59190613e31565b8787848181106117f7576117f7614239565b9050602002013586868581811061181057611810614239565b90506020020135612132565b806118268161424f565b9150506117b3565b5050505050505050565b61184585858585856124ba565b600083815261019360205260409020821561188d576001600160a01b03851660009081526101926020526040902061187d9085611d06565b5061188b6006820186611d12565b505b61189786856107b9565b600003610df0576001600160a01b0386166000908152610192602052604090206118c19085611d27565b506118cf6006820187611d33565b50505050505050565b60975460ff16156118fb5760405162461bcd60e51b815260040161071f906142c0565b6000805160206147f08339815191526119148133611d48565b6000828152610193602052604090206003015460ff16610e9e57610e9e82612541565b61019754604051631c1f852760e31b81526004810186905260009182916001600160a01b039091169063e0fc293890602401602060405180830381865afa158015611986573d6000803e3d6000fd5b505050506040513d601f19601f820116820180604052508101906119aa9190614391565b610197546040516399d5121b60e01b8152600481018390529192506000916001600160a01b03909116906399d5121b90602401608060405180830381865afa1580156119fa573d6000803e3d6000fd5b505050506040513d601f19601f82011682018060405250810190611a1e91906143aa565b60208082015160008581526101939092526040909120600301549192509060ff16611a4c57611a4c83612541565b611a6781848960405180602001604052806000815250612797565b600083815261019360205260409020611a836006820183611d12565b506001600160a01b038216600090815261019260205260409020611aa79085611d06565b5060019998505050505050505050565b60006001600160e01b03198216635a05180f60e01b148061084a575061084a826128ce565b6001600160a01b038316611b3e5760405162461bcd60e51b815260206004820152602360248201527f455243313135353a206275726e2066726f6d20746865207a65726f206164647260448201526265737360e81b606482015260840161071f565b33611b6d81856000611b4f876128f3565b611b58876128f3565b6040518060200160405280600081525061293e565b60008381526065602090815260408083206001600160a01b038816845290915290205482811015611bec5760405162461bcd60e51b8152602060048201526024808201527f455243313135353a206275726e20616d6f756e7420657863656564732062616c604482015263616e636560e01b606482015260840161071f565b60008481526065602090815260408083206001600160a01b03898116808652918452828520888703905582518981529384018890529092908616917fc3d58168c5ae7397731d063d5bbf3d657854427343f4c083240f7aacaa2d0f62910160405180910390a45050505050565b600061084a825490565b600061119e8383612a7f565b6001600160a01b038516331480611c8b5750611c8b8533610648565b611cf25760405162461bcd60e51b815260206004820152603260248201527f455243313135353a207472616e736665722063616c6c6572206973206e6f74206044820152711bdddb995c881b9bdc88185c1c1c9bdd995960721b606482015260840161071f565b611cff8585858585612aa9565b5050505050565b600061119e8383612c8f565b600061119e836001600160a01b038416612c8f565b600061119e8383612cde565b600061119e836001600160a01b038416612cde565b611d52828261158f565b610e9e57611d6a816001600160a01b03166014612dd1565b611d75836020612dd1565b604051602001611d86929190614415565b60408051601f198184030181529082905262461bcd60e51b825261071f91600401613a1a565b611db68282612f6c565b600082815261015f60205260409020610e1f9082611d12565b611dd98282612ff3565b600082815261015f60205260409020610e1f9082611d33565b60975460ff16611e3b5760405162461bcd60e51b815260206004820152601460248201527314185d5cd8589b194e881b9bdd081c185d5cd95960621b604482015260640161071f565b6097805460ff191690557f5db9ee0a495bf2e6ff9c91a7834c1ba4fdd244a5e8aa4e537bd38aeae4b073aa335b6040516001600160a01b03909116815260200160405180910390a1565b600081815260fb6020526040812054836002015461119e9190614221565b60008181526101936020526040812061119e611ebe8461305b565b82600501546130e6565b600054610100900460ff16611eef5760405162461bcd60e51b815260040161071f9061448a565b610f8c816130fd565b600054610100900460ff16611f1f5760405162461bcd60e51b815260040161071f9061448a565b565b600054610100900460ff16611f485760405162461bcd60e51b815260040161071f9061448a565b6097805460ff19169055565b610e9e8282611dac565b60975460ff1615611f815760405162461bcd60e51b815260040161071f906142c0565b6097805460ff191660011790557f62e78cea01bee320cd4e420270b5ea74000d11b0c9f74754ebdbfc544b05a258611e683390565b816001600160a01b0316836001600160a01b0316036120295760405162461bcd60e51b815260206004820152602960248201527f455243313135353a2073657474696e6720617070726f76616c20737461747573604482015268103337b91039b2b63360b91b606482015260840161071f565b6001600160a01b03838116600081815260666020908152604080832094871680845294825291829020805460ff191686151590811790915591519182527f17307eab39ab6107e8899845ad3d59bd9653f200f220920489ca2b5937696c31910160405180910390a3505050565b606060006120a383611c59565b6001600160401b038111156120ba576120ba613c0b565b6040519080825280602002602001820160405280156120e3578160200160208202803683370190505b50905060005b815181101561212b576120fc8482611c63565b82828151811061210e5761210e614239565b6020908102919091010152806121238161424f565b9150506120e9565b5092915050565b61019754604051631c1f852760e31b8152600481018490526000916001600160a01b03169063e0fc293890602401602060405180830381865afa15801561217d573d6000803e3d6000fd5b505050506040513d601f19601f820116820180604052508101906121a19190614391565b60008181526101936020526040902060038101549192509060ff166121dc576040516325f8781760e01b81526004810183905260240161071f565b60008315612217576121ed836112fb565b84111561221057604051630c21a50760e31b81526004810184905260240161071f565b5082612223565b612220836112fb565b90505b60068201600061223282611c59565b6001600160401b0381111561224957612249613c0b565b604051908082528060200260200182016040528015612272578160200160208202803683370190505b5090506000805b600161228485611c59565b61228e91906142a9565b8110156122eb5760006122ab86896122a68886611c63565b613110565b9050808483815181106122c0576122c0614239565b60209081029190910101526122d58184614221565b92505080806122e39061424f565b915050612279565b506122f681856142a9565b82600161230286611c59565b61230c91906142a9565b8151811061231c5761231c614239565b60200260200101818152505060005b61233484611c59565b8110156123e2576123686123488583611c63565b8885848151811061235b5761235b614239565b6020026020010151611adc565b82818151811061237a5761237a614239565b602002602001015186600901600061239b8488611c6390919063ffffffff16565b6001600160a01b03166001600160a01b0316815260200190815260200160002060008282546123ca9190614221565b909155508190506123da8161424f565b91505061232b565b50838560040160008282546123f79190614221565b925050819055508588427f4b9948901911c14ff8b417db5004be639f92f11be671b8b85219c5ff809b71ba8760405161243291815260200190565b60405180910390a461019654604051634decdde360e11b81526001600160a01b038b8116600483015260248201879052606060448301526000606483015290911690639bd9bbc690608401600060405180830381600087803b15801561249757600080fd5b505af11580156124ab573d6000803e3d6000fd5b50505050505050505050505050565b6001600160a01b0385163314806124d657506124d68533610648565b6125345760405162461bcd60e51b815260206004820152602960248201527f455243313135353a2063616c6c6572206973206e6f74206f776e6572206e6f7260448201526808185c1c1c9bdd995960ba1b606482015260840161071f565b611cff8585858585613197565b610197546040516399d5121b60e01b8152600481018390526000916001600160a01b0316906399d5121b90602401608060405180830381865afa15801561258c573d6000803e3d6000fd5b505050506040513d601f19601f820116820180604052508101906125b091906143aa565b80519091506000036125d85760405163a2037ed360e01b81526004810183905260240161071f565b60208101516001600160a01b03811661260457604051636c38382960e11b815260040160405180910390fd5b61261c6000805160206147f08339815191528261158f565b156126735760408051632486d30560e11b81526001600160a01b0383166004820152602481019190915260156044820152745343484544554c455f43524541544f525f524f4c4560581b606482015260840161071f565b6000838152610193602052604090206003015460ff16156126aa57604051633788221760e21b81526004810184905260240161071f565b6000838152610193602052604090206126c561019485611d06565b5060006126da846040015185606001516115f8565b905080602001516127015760405163361ecb5560e01b81526004810186905260240161071f565b6001600160a01b0383166000908152610192602052604090206127249086611d06565b5060038201805460ff191660011790558351808355815161274491614221565b6001830181905560006005840155825460408051918252602082019290925286917fc6bf85d136b95579125a47c9781847cacd55015777db8a853dd17946aed35fb2910160405180910390a25050505050565b6001600160a01b0384166127f75760405162461bcd60e51b815260206004820152602160248201527f455243313135353a206d696e7420746f20746865207a65726f206164647265736044820152607360f81b606482015260840161071f565b600033905061281d6040518060600160405280603a8152602001614796603a91396132af565b61283c8160008761282d886128f3565b612836886128f3565b8761293e565b60008481526065602090815260408083206001600160a01b03891684529091528120805485929061286e908490614221565b909155505060408051858152602081018590526001600160a01b0380881692600092918516917fc3d58168c5ae7397731d063d5bbf3d657854427343f4c083240f7aacaa2d0f62910160405180910390a4611cff816000878787876132f2565b60006001600160e01b03198216637965db0b60e01b148061084a575061084a8261344d565b6040805160018082528183019092526060916000919060208083019080368337019050509050828160008151811061292d5761292d614239565b602090810291909101015292915050565b6001600160a01b0384161560008180156129695750876001600160a01b0316876001600160a01b0316145b905081156129d75760005b85518110156129d557600086828151811061299157612991614239565b602002602001015190506000610193600083815260200190815260200160002090506129bc82611ea3565b60059091015550806129cd8161424f565b915050612974565b505b8015612a715760005b8551811015612a6f5760008682815181106129fd576129fd614239565b60200260200101519050612a11818a6110a3565b868381518110612a2357612a23614239565b60200260200101511115612a5c5760405163e1b8b25f60e01b81526001600160a01b038a1660048201526024810182905260440161071f565b5080612a678161424f565b9150506129e0565b505b61182e88888888888861349d565b6000826000018281548110612a9657612a96614239565b9060005260206000200154905092915050565b8151835114612b0b5760405162461bcd60e51b815260206004820152602860248201527f455243313135353a2069647320616e6420616d6f756e7473206c656e677468206044820152670dad2e6dac2e8c6d60c31b606482015260840161071f565b6001600160a01b038416612b315760405162461bcd60e51b815260040161071f906144d5565b33612b4081878787878761293e565b60005b8451811015612c29576000858281518110612b6057612b60614239565b602002602001015190506000858381518110612b7e57612b7e614239565b60209081029190910181015160008481526065835260408082206001600160a01b038e168352909352919091205490915081811015612bcf5760405162461bcd60e51b815260040161071f9061451a565b60008381526065602090815260408083206001600160a01b038e8116855292528083208585039055908b16825281208054849290612c0e908490614221565b9250508190555050505080612c229061424f565b9050612b43565b50846001600160a01b0316866001600160a01b0316826001600160a01b03167f4a39dc06d4c0dbc64b70af90fd698a233a518aa5d07e595d983b8c0526c8f7fb8787604051612c79929190614564565b60405180910390a4610df08187878787876135b7565b6000818152600183016020526040812054612cd65750815460018181018455600084815260208082209093018490558454848252828601909352604090209190915561084a565b50600061084a565b60008181526001830160205260408120548015612dc7576000612d026001836142a9565b8554909150600090612d16906001906142a9565b9050818114612d7b576000866000018281548110612d3657612d36614239565b9060005260206000200154905080876000018481548110612d5957612d59614239565b6000918252602080832090910192909255918252600188019052604090208390555b8554869080612d8c57612d8c614589565b60019003818190600052602060002001600090559055856001016000868152602001908152602001600020600090556001935050505061084a565b600091505061084a565b60606000612de0836002614268565b612deb906002614221565b6001600160401b03811115612e0257612e02613c0b565b6040519080825280601f01601f191660200182016040528015612e2c576020820181803683370190505b509050600360fc1b81600081518110612e4757612e47614239565b60200101906001600160f81b031916908160001a905350600f60fb1b81600181518110612e7657612e76614239565b60200101906001600160f81b031916908160001a9053506000612e9a846002614268565b612ea5906001614221565b90505b6001811115612f1d576f181899199a1a9b1b9c1cb0b131b232b360811b85600f1660108110612ed957612ed9614239565b1a60f81b828281518110612eef57612eef614239565b60200101906001600160f81b031916908160001a90535060049490941c93612f168161459f565b9050612ea8565b50831561119e5760405162461bcd60e51b815260206004820181905260248201527f537472696e67733a20686578206c656e67746820696e73756666696369656e74604482015260640161071f565b612f76828261158f565b610e9e57600082815261012d602090815260408083206001600160a01b03851684529091529020805460ff19166001179055612faf3390565b6001600160a01b0316816001600160a01b0316837f2f8788117e7eff1d82e926ec794901d17c78024a50270940304540a733656f0d60405160405180910390a45050565b612ffd828261158f565b15610e9e57600082815261012d602090815260408083206001600160a01b0385168085529252808320805460ff1916905551339285917ff6391f5c32d9c69d2a47ea670b442974b53935d1edc7fd64eb21e047a839171b9190a45050565b60008181526101936020526040812060018101548290421061308c5750600083815260fb602052604090205461119e565b8154600183015460009161309f916142a9565b835490915042106130db57825481906130b890426142a9565b6130c28588611e85565b6130cc9190614268565b6130d69190614287565b611146565b600095945050505050565b6000818310156130f6578161119e565b5090919050565b8051610e9e9060679060208401906137a0565b6000828152610193602052604081208161312a8286611e85565b905060008160000361313e5750600061318d565b600061314a86886107b9565b6001600160a01b038716600090815260088601602052604090205490915083896131748484614221565b61317e9190614268565b6131889190614287565b925050505b9695505050505050565b6001600160a01b0384166131bd5760405162461bcd60e51b815260040161071f906144d5565b336131cd81878761282d886128f3565b60008481526065602090815260408083206001600160a01b038a168452909152902054838110156132105760405162461bcd60e51b815260040161071f9061451a565b60008581526065602090815260408083206001600160a01b038b811685529252808320878503905590881682528120805486929061324f908490614221565b909155505060408051868152602081018690526001600160a01b03808916928a821692918616917fc3d58168c5ae7397731d063d5bbf3d657854427343f4c083240f7aacaa2d0f62910160405180910390a46118cf8288888888886132f2565b610f8c816040516024016132c39190613a1a565b60408051601f198184030181529190526020810180516001600160e01b031663104c13eb60e21b179052613672565b6001600160a01b0384163b15610df05760405163f23a6e6160e01b81526001600160a01b0385169063f23a6e619061333690899089908890889088906004016145b6565b6020604051808303816000875af1925050508015613371575060408051601f3d908101601f1916820190925261336e918101906145fb565b60015b61341d5761337d614618565b806308c379a0036133b65750613391614634565b8061339c57506133b8565b8060405162461bcd60e51b815260040161071f9190613a1a565b505b60405162461bcd60e51b815260206004820152603460248201527f455243313135353a207472616e7366657220746f206e6f6e20455243313135356044820152732932b1b2b4bb32b91034b6b83632b6b2b73a32b960611b606482015260840161071f565b6001600160e01b0319811663f23a6e6160e01b146118cf5760405162461bcd60e51b815260040161071f906146bd565b60006001600160e01b03198216636cdb3d1360e11b148061347e57506001600160e01b031982166303a24d0760e21b145b8061084a57506301ffc9a760e01b6001600160e01b031983161461084a565b6134ab868686868686613693565b6001600160a01b0385166135325760005b8351811015613530578281815181106134d7576134d7614239565b602002602001015160fb60008684815181106134f5576134f5614239565b60200260200101518152602001908152602001600020600082825461351a9190614221565b9091555061352990508161424f565b90506134bc565b505b6001600160a01b038416610df05760005b83518110156118cf5782818151811061355e5761355e614239565b602002602001015160fb600086848151811061357c5761357c614239565b6020026020010151815260200190815260200160002060008282546135a191906142a9565b909155506135b090508161424f565b9050613543565b6001600160a01b0384163b15610df05760405163bc197c8160e01b81526001600160a01b0385169063bc197c81906135fb9089908990889088908890600401614705565b6020604051808303816000875af1925050508015613636575060408051601f3d908101601f19168201909252613633918101906145fb565b60015b6136425761337d614618565b6001600160e01b0319811663bc197c8160e01b146118cf5760405162461bcd60e51b815260040161071f906146bd565b80516a636f6e736f6c652e6c6f67602083016000808483855afa5050505050565b60975460ff1615610df05760405162461bcd60e51b815260206004820152602c60248201527f455243313135355061757361626c653a20746f6b656e207472616e736665722060448201526b1dda1a5b19481c185d5cd95960a21b606482015260840161071f565b60405180610120016040528060008152602001600081526020016000815260200160008152602001600081526020016000815260200160008152602001606081526020016000151581525090565b60405180610120016040528060006001600160a01b03168152602001600081526020016000815260200160008152602001600081526020016000815260200160008152602001600081526020016000151581525090565b8280546137ac906141d7565b90600052602060002090601f0160209004810192826137ce5760008555613814565b82601f106137e757805160ff1916838001178555613814565b82800160010185558215613814579182015b828111156138145782518255916020019190600101906137f9565b50613820929150613824565b5090565b5b808211156138205760008155600101613825565b6001600160a01b0381168114610f8c57600080fd5b60008083601f84011261386057600080fd5b5081356001600160401b0381111561387757600080fd5b60208301915083602082850101111561388f57600080fd5b9250929050565b60008060008060008060008060c0898b0312156138b257600080fd5b88356138bd81613839565b975060208901356138cd81613839565b965060408901356138dd81613839565b95506060890135945060808901356001600160401b038082111561390057600080fd5b61390c8c838d0161384e565b909650945060a08b013591508082111561392557600080fd5b506139328b828c0161384e565b999c989b5096995094979396929594505050565b6000806040838503121561395957600080fd5b823561396481613839565b946020939093013593505050565b6001600160e01b031981168114610f8c57600080fd5b60006020828403121561399a57600080fd5b813561119e81613972565b6000602082840312156139b757600080fd5b5035919050565b60005b838110156139d95781810151838201526020016139c1565b838111156139e8576000848401525b50505050565b60008151808452613a068160208601602086016139be565b601f01601f19169290920160200192915050565b60208152600061119e60208301846139ee565b600080600060608486031215613a4257600080fd5b8335613a4d81613839565b95602085013595506040909401359392505050565b60008083601f840112613a7457600080fd5b5081356001600160401b03811115613a8b57600080fd5b6020830191508360208260051b850101111561388f57600080fd5b60008060208385031215613ab957600080fd5b82356001600160401b03811115613acf57600080fd5b613adb85828601613a62565b90969095509350505050565b6000610120808401835185526020808501518187015260408501516040870152606085015160608701526080850151608087015260a085015160a087015260c085015160c087015260e08501518360e08801528293508051808452610140880194508282019350600091505b80821015613b7c5783516001600160a01b03168552938201939282019260019190910190613b53565b505050506101009283015115159390920192909252919050565b6000602080830181845280855180835260408601915060408160051b870101925083870160005b82811015613beb57603f19888603018452613bd9858351613ae7565b94509285019290850190600101613bbd565b5092979650505050505050565b60208152600061119e6020830184613ae7565b634e487b7160e01b600052604160045260246000fd5b601f8201601f191681016001600160401b0381118282101715613c4657613c46613c0b565b6040525050565b60006001600160401b03821115613c6657613c66613c0b565b5060051b60200190565b600082601f830112613c8157600080fd5b81356020613c8e82613c4d565b604051613c9b8282613c21565b83815260059390931b8501820192828101915086841115613cbb57600080fd5b8286015b84811015613cd65780358352918301918301613cbf565b509695505050505050565b600082601f830112613cf257600080fd5b81356001600160401b03811115613d0b57613d0b613c0b565b604051613d22601f8301601f191660200182613c21565b818152846020838601011115613d3757600080fd5b816020850160208301376000918101602001919091529392505050565b600080600080600060a08688031215613d6c57600080fd5b8535613d7781613839565b94506020860135613d8781613839565b935060408601356001600160401b0380821115613da357600080fd5b613daf89838a01613c70565b94506060880135915080821115613dc557600080fd5b613dd189838a01613c70565b93506080880135915080821115613de757600080fd5b50613df488828901613ce1565b9150509295509295909350565b60008060408385031215613e1457600080fd5b823591506020830135613e2681613839565b809150509250929050565b600060208284031215613e4357600080fd5b813561119e81613839565b80516001600160a01b031682526020808201519083015260408082015190830152606080820151908301526080808201519083015260a0818101519083015260c0808201519083015260e08082015190830152610100908101511515910152565b6020808252825182820181905260009190848201906040850190845b81811015613ef257613ede838551613e4e565b928401926101209290920191600101613ecb565b50909695505050505050565b60008060408385031215613f1157600080fd5b82356001600160401b0380821115613f2857600080fd5b818501915085601f830112613f3c57600080fd5b81356020613f4982613c4d565b604051613f568282613c21565b83815260059390931b8501820192828101915089841115613f7657600080fd5b948201945b83861015613f9d578535613f8e81613839565b82529482019490820190613f7b565b96505086013592505080821115613fb357600080fd5b50613fc085828601613c70565b9150509250929050565b600081518084526020808501945080840160005b83811015613ffa57815187529582019590820190600101613fde565b509495945050505050565b60208152600061119e6020830184613fca565b610120810161084a8284613e4e565b6000806040838503121561403a57600080fd5b50508035926020909101359150565b6000806040838503121561405c57600080fd5b823561406781613839565b91506020830135613e2681613839565b6000806040838503121561408a57600080fd5b823561409581613839565b915060208301358015158114613e2657600080fd5b6000806000606084860312156140bf57600080fd5b505081359360208301359350604090920135919050565b600080600080600080606087890312156140ef57600080fd5b86356001600160401b038082111561410657600080fd5b6141128a838b01613a62565b9098509650602089013591508082111561412b57600080fd5b6141378a838b01613a62565b9096509450604089013591508082111561415057600080fd5b5061415d89828a01613a62565b979a9699509497509295939492505050565b600080600080600060a0868803121561418757600080fd5b853561419281613839565b945060208601356141a281613839565b9350604086013592506060860135915060808601356001600160401b038111156141cb57600080fd5b613df488828901613ce1565b600181811c908216806141eb57607f821691505b60208210810361123e57634e487b7160e01b600052602260045260246000fd5b634e487b7160e01b600052601160045260246000fd5b600082198211156142345761423461420b565b500190565b634e487b7160e01b600052603260045260246000fd5b6000600182016142615761426161420b565b5060010190565b60008160001904831182151516156142825761428261420b565b500290565b6000826142a457634e487b7160e01b600052601260045260246000fd5b500490565b6000828210156142bb576142bb61420b565b500390565b60208082526010908201526f14185d5cd8589b194e881c185d5cd95960821b604082015260600190565b60408152600061431660408301600c81526b66726f6d4163636f756e747360a01b602082015260400190565b828103602093840152600a81526972656d6f76616c49647360b01b928101929092525060400190565b60408152600061436b60408301600c81526b66726f6d4163636f756e747360a01b602082015260400190565b8281036020938401526007815266616d6f756e747360c81b928101929092525060400190565b6000602082840312156143a357600080fd5b5051919050565b6000608082840312156143bc57600080fd5b604051608081018181106001600160401b03821117156143de576143de613c0b565b6040528251815260208301516143f381613839565b6020820152604083810151908201526060928301519281019290925250919050565b7f416363657373436f6e74726f6c3a206163636f756e742000000000000000000081526000835161444d8160178501602088016139be565b7001034b99036b4b9b9b4b733903937b6329607d1b601791840191820152835161447e8160288401602088016139be565b01602801949350505050565b6020808252602b908201527f496e697469616c697a61626c653a20636f6e7472616374206973206e6f74206960408201526a6e697469616c697a696e6760a81b606082015260800190565b60208082526025908201527f455243313135353a207472616e7366657220746f20746865207a65726f206164604082015264647265737360d81b606082015260800190565b6020808252602a908201527f455243313135353a20696e73756666696369656e742062616c616e636520666f60408201526939103a3930b739b332b960b11b606082015260800190565b6040815260006145776040830185613fca565b82810360208401526111468185613fca565b634e487b7160e01b600052603160045260246000fd5b6000816145ae576145ae61420b565b506000190190565b6001600160a01b03868116825285166020820152604081018490526060810183905260a0608082018190526000906145f0908301846139ee565b979650505050505050565b60006020828403121561460d57600080fd5b815161119e81613972565b600060033d11156146315760046000803e5060005160e01c5b90565b600060443d10156146425790565b6040516003193d81016004833e81513d6001600160401b03816024840111818411171561467157505050505090565b82850191508151818111156146895750505050505090565b843d87010160208285010111156146a35750505050505090565b6146b260208286010187613c21565b509095945050505050565b60208082526028908201527f455243313135353a204552433131353552656365697665722072656a656374656040820152676420746f6b656e7360c01b606082015260800190565b6001600160a01b0386811682528516602082015260a06040820181905260009061473190830186613fca565b82810360608401526147438186613fca565b9050828103608084015261475781856139ee565b9897505050505050505056fe68747470733a2f2f6e6f72692e636f6d2f6170692f7265737472696374696f6e7363686564756c652f7b69647d2e6a736f6e696e7369646520455243313135357570677261646561626c65205f6d696e74206265666f7265206265666f7265546f6b656e5472616e7366657265d7a28e3265b37a6474929f336521b332c1681b933f6cb9f3376673440d862ab62aeb2ef35a3718e51a7e8b0b0d8e6fa690a4037bf45dad308976da469a861ca2646970667358221220ecd189b71702a6b25a46085080e746c6aa9ebc7c6a55da1cdb7288773802481d64736f6c634300080d0033",
  "linkReferences": {},
  "deployedLinkReferences": {}
}