{
  "_format": "hh-sol-artifact-1",
  "contractName": "RestrictedNORI",
  "sourceName": "contracts/RestrictedNORI.sol",
  "abi": [
    {
      "inputs": [],
      "stateMutability": "nonpayable",
      "type": "constructor"
    },
    {
      "inputs": [
        {
          "internalType": "address",
          "name": "account",
          "type": "address"
        },
        {
          "internalType": "uint256",
          "name": "scheduleId",
          "type": "uint256"
        }
      ],
      "name": "InsufficientClaimableBalance",
      "type": "error"
    },
    {
      "inputs": [
        {
          "internalType": "uint256",
          "name": "scheduleId",
          "type": "uint256"
        }
      ],
      "name": "InsufficientUnreleasedTokens",
      "type": "error"
    },
    {
      "inputs": [
        {
          "internalType": "address",
          "name": "account",
          "type": "address"
        }
      ],
      "name": "InvalidMinter",
      "type": "error"
    },
    {
      "inputs": [],
      "name": "InvalidZeroDuration",
      "type": "error"
    },
    {
      "inputs": [
        {
          "internalType": "uint256",
          "name": "scheduleId",
          "type": "uint256"
        }
      ],
      "name": "NonexistentSchedule",
      "type": "error"
    },
    {
      "inputs": [],
      "name": "RecipientCannotBeZeroAddress",
      "type": "error"
    },
    {
      "inputs": [],
      "name": "TokenSenderNotBPNORI",
      "type": "error"
    },
    {
      "anonymous": false,
      "inputs": [
        {
          "indexed": true,
          "internalType": "address",
          "name": "account",
          "type": "address"
        },
        {
          "indexed": true,
          "internalType": "address",
          "name": "operator",
          "type": "address"
        },
        {
          "indexed": false,
          "internalType": "bool",
          "name": "approved",
          "type": "bool"
        }
      ],
      "name": "ApprovalForAll",
      "type": "event"
    },
    {
      "anonymous": false,
      "inputs": [
        {
          "indexed": false,
          "internalType": "uint8",
          "name": "version",
          "type": "uint8"
        }
      ],
      "name": "Initialized",
      "type": "event"
    },
    {
      "anonymous": false,
      "inputs": [
        {
          "indexed": false,
          "internalType": "address",
          "name": "account",
          "type": "address"
        }
      ],
      "name": "Paused",
      "type": "event"
    },
    {
      "anonymous": false,
      "inputs": [
        {
          "indexed": true,
          "internalType": "bytes32",
          "name": "role",
          "type": "bytes32"
        },
        {
          "indexed": true,
          "internalType": "bytes32",
          "name": "previousAdminRole",
          "type": "bytes32"
        },
        {
          "indexed": true,
          "internalType": "bytes32",
          "name": "newAdminRole",
          "type": "bytes32"
        }
      ],
      "name": "RoleAdminChanged",
      "type": "event"
    },
    {
      "anonymous": false,
      "inputs": [
        {
          "indexed": true,
          "internalType": "bytes32",
          "name": "role",
          "type": "bytes32"
        },
        {
          "indexed": true,
          "internalType": "address",
          "name": "account",
          "type": "address"
        },
        {
          "indexed": true,
          "internalType": "address",
          "name": "sender",
          "type": "address"
        }
      ],
      "name": "RoleGranted",
      "type": "event"
    },
    {
      "anonymous": false,
      "inputs": [
        {
          "indexed": true,
          "internalType": "bytes32",
          "name": "role",
          "type": "bytes32"
        },
        {
          "indexed": true,
          "internalType": "address",
          "name": "account",
          "type": "address"
        },
        {
          "indexed": true,
          "internalType": "address",
          "name": "sender",
          "type": "address"
        }
      ],
      "name": "RoleRevoked",
      "type": "event"
    },
    {
      "anonymous": false,
      "inputs": [
        {
          "indexed": true,
          "internalType": "uint256",
          "name": "projectId",
          "type": "uint256"
        },
        {
          "indexed": false,
          "internalType": "uint256",
          "name": "startTime",
          "type": "uint256"
        },
        {
          "indexed": false,
          "internalType": "uint256",
          "name": "endTime",
          "type": "uint256"
        }
      ],
      "name": "ScheduleCreated",
      "type": "event"
    },
    {
      "anonymous": false,
      "inputs": [
        {
          "indexed": true,
          "internalType": "address",
          "name": "from",
          "type": "address"
        },
        {
          "indexed": true,
          "internalType": "address",
          "name": "to",
          "type": "address"
        },
        {
          "indexed": true,
          "internalType": "uint256",
          "name": "scheduleId",
          "type": "uint256"
        },
        {
          "indexed": false,
          "internalType": "uint256",
          "name": "quantity",
          "type": "uint256"
        }
      ],
      "name": "TokensClaimed",
      "type": "event"
    },
    {
      "anonymous": false,
      "inputs": [
        {
          "indexed": true,
          "internalType": "uint256",
          "name": "atTime",
          "type": "uint256"
        },
        {
          "indexed": true,
          "internalType": "uint256",
          "name": "scheduleId",
          "type": "uint256"
        },
        {
          "indexed": false,
          "internalType": "uint256",
          "name": "quantity",
          "type": "uint256"
        },
        {
          "indexed": false,
          "internalType": "address[]",
          "name": "scheduleOwners",
          "type": "address[]"
        },
        {
          "indexed": false,
          "internalType": "uint256[]",
          "name": "quantitiesBurned",
          "type": "uint256[]"
        }
      ],
      "name": "TokensRevoked",
      "type": "event"
    },
    {
      "anonymous": false,
      "inputs": [
        {
          "indexed": true,
          "internalType": "address",
          "name": "operator",
          "type": "address"
        },
        {
          "indexed": true,
          "internalType": "address",
          "name": "from",
          "type": "address"
        },
        {
          "indexed": true,
          "internalType": "address",
          "name": "to",
          "type": "address"
        },
        {
          "indexed": false,
          "internalType": "uint256[]",
          "name": "ids",
          "type": "uint256[]"
        },
        {
          "indexed": false,
          "internalType": "uint256[]",
          "name": "values",
          "type": "uint256[]"
        }
      ],
      "name": "TransferBatch",
      "type": "event"
    },
    {
      "anonymous": false,
      "inputs": [
        {
          "indexed": true,
          "internalType": "address",
          "name": "operator",
          "type": "address"
        },
        {
          "indexed": true,
          "internalType": "address",
          "name": "from",
          "type": "address"
        },
        {
          "indexed": true,
          "internalType": "address",
          "name": "to",
          "type": "address"
        },
        {
          "indexed": false,
          "internalType": "uint256",
          "name": "id",
          "type": "uint256"
        },
        {
          "indexed": false,
          "internalType": "uint256",
          "name": "value",
          "type": "uint256"
        }
      ],
      "name": "TransferSingle",
      "type": "event"
    },
    {
      "anonymous": false,
      "inputs": [
        {
          "indexed": false,
          "internalType": "string",
          "name": "value",
          "type": "string"
        },
        {
          "indexed": true,
          "internalType": "uint256",
          "name": "id",
          "type": "uint256"
        }
      ],
      "name": "URI",
      "type": "event"
    },
    {
      "anonymous": false,
      "inputs": [
        {
          "indexed": false,
          "internalType": "address",
          "name": "account",
          "type": "address"
        }
      ],
      "name": "Unpaused",
      "type": "event"
    },
    {
      "inputs": [],
      "name": "DEFAULT_ADMIN_ROLE",
      "outputs": [
        {
          "internalType": "bytes32",
          "name": "",
          "type": "bytes32"
        }
      ],
      "stateMutability": "view",
      "type": "function"
    },
    {
      "inputs": [],
      "name": "MINTER_ROLE",
      "outputs": [
        {
          "internalType": "bytes32",
          "name": "",
          "type": "bytes32"
        }
      ],
      "stateMutability": "view",
      "type": "function"
    },
    {
      "inputs": [],
      "name": "PAUSER_ROLE",
      "outputs": [
        {
          "internalType": "bytes32",
          "name": "",
          "type": "bytes32"
        }
      ],
      "stateMutability": "view",
      "type": "function"
    },
    {
      "inputs": [],
      "name": "SCHEDULE_CREATOR_ROLE",
      "outputs": [
        {
          "internalType": "bytes32",
          "name": "",
          "type": "bytes32"
        }
      ],
      "stateMutability": "view",
      "type": "function"
    },
    {
      "inputs": [],
      "name": "TOKEN_REVOKER_ROLE",
      "outputs": [
        {
          "internalType": "bytes32",
          "name": "",
          "type": "bytes32"
        }
      ],
      "stateMutability": "view",
      "type": "function"
    },
    {
      "inputs": [
        {
          "internalType": "address",
          "name": "account",
          "type": "address"
        },
        {
          "internalType": "uint256",
          "name": "id",
          "type": "uint256"
        }
      ],
      "name": "balanceOf",
      "outputs": [
        {
          "internalType": "uint256",
          "name": "",
          "type": "uint256"
        }
      ],
      "stateMutability": "view",
      "type": "function"
    },
    {
      "inputs": [
        {
          "internalType": "address[]",
          "name": "accounts",
          "type": "address[]"
        },
        {
          "internalType": "uint256[]",
          "name": "ids",
          "type": "uint256[]"
        }
      ],
      "name": "balanceOfBatch",
      "outputs": [
        {
          "internalType": "uint256[]",
          "name": "",
          "type": "uint256[]"
        }
      ],
      "stateMutability": "view",
      "type": "function"
    },
    {
      "inputs": [
        {
          "internalType": "address",
          "name": "account",
          "type": "address"
        },
        {
          "internalType": "uint256[]",
          "name": "scheduleIds",
          "type": "uint256[]"
        }
      ],
      "name": "batchGetScheduleDetailsForAccount",
      "outputs": [
        {
          "components": [
            {
              "internalType": "address",
              "name": "tokenHolder",
              "type": "address"
            },
            {
              "internalType": "uint256",
              "name": "scheduleTokenId",
              "type": "uint256"
            },
            {
              "internalType": "uint256",
              "name": "balance",
              "type": "uint256"
            },
            {
              "internalType": "uint256",
              "name": "claimableAmount",
              "type": "uint256"
            },
            {
              "internalType": "uint256",
              "name": "claimedAmount",
              "type": "uint256"
            },
            {
              "internalType": "uint256",
              "name": "quantityRevoked",
              "type": "uint256"
            }
          ],
          "internalType": "struct RestrictedNORI.ScheduleDetailForAddress[]",
          "name": "",
          "type": "tuple[]"
        }
      ],
      "stateMutability": "view",
      "type": "function"
    },
    {
      "inputs": [
        {
          "internalType": "uint256[]",
          "name": "scheduleIds",
          "type": "uint256[]"
        }
      ],
      "name": "batchGetScheduleSummaries",
      "outputs": [
        {
          "components": [
            {
              "internalType": "uint256",
              "name": "scheduleTokenId",
              "type": "uint256"
            },
            {
              "internalType": "uint256",
              "name": "startTime",
              "type": "uint256"
            },
            {
              "internalType": "uint256",
              "name": "endTime",
              "type": "uint256"
            },
            {
              "internalType": "uint256",
              "name": "totalSupply",
              "type": "uint256"
            },
            {
              "internalType": "uint256",
              "name": "totalClaimableAmount",
              "type": "uint256"
            },
            {
              "internalType": "uint256",
              "name": "totalClaimedAmount",
              "type": "uint256"
            },
            {
              "internalType": "uint256",
              "name": "totalQuantityRevoked",
              "type": "uint256"
            },
            {
              "internalType": "address[]",
              "name": "tokenHolders",
              "type": "address[]"
            },
            {
              "internalType": "bool",
              "name": "exists",
              "type": "bool"
            }
          ],
          "internalType": "struct RestrictedNORI.ScheduleSummary[]",
          "name": "",
          "type": "tuple[]"
        }
      ],
      "stateMutability": "view",
      "type": "function"
    },
    {
      "inputs": [
        {
          "internalType": "uint256",
          "name": "scheduleId",
          "type": "uint256"
        }
      ],
      "name": "claimableBalanceForSchedule",
      "outputs": [
        {
          "internalType": "uint256",
          "name": "",
          "type": "uint256"
        }
      ],
      "stateMutability": "view",
      "type": "function"
    },
    {
      "inputs": [
        {
          "internalType": "uint256",
          "name": "scheduleId",
          "type": "uint256"
        },
        {
          "internalType": "address",
          "name": "account",
          "type": "address"
        }
      ],
      "name": "claimableBalanceForScheduleForAccount",
      "outputs": [
        {
          "internalType": "uint256",
          "name": "",
          "type": "uint256"
        }
      ],
      "stateMutability": "view",
      "type": "function"
    },
    {
      "inputs": [
        {
          "internalType": "uint256",
          "name": "projectId",
          "type": "uint256"
        }
      ],
      "name": "createSchedule",
      "outputs": [],
      "stateMutability": "nonpayable",
      "type": "function"
    },
    {
      "inputs": [
        {
          "internalType": "uint256",
          "name": "id",
          "type": "uint256"
        }
      ],
      "name": "exists",
      "outputs": [
        {
          "internalType": "bool",
          "name": "",
          "type": "bool"
        }
      ],
      "stateMutability": "view",
      "type": "function"
    },
    {
      "inputs": [],
      "name": "getAllScheduleIds",
      "outputs": [
        {
          "internalType": "uint256[]",
          "name": "",
          "type": "uint256[]"
        }
      ],
      "stateMutability": "view",
      "type": "function"
    },
    {
      "inputs": [
        {
          "internalType": "uint256",
          "name": "methodology",
          "type": "uint256"
        },
        {
          "internalType": "uint256",
          "name": "methodologyVersion",
          "type": "uint256"
        }
      ],
      "name": "getRestrictionDurationForMethodologyAndVersion",
      "outputs": [
        {
          "internalType": "uint256",
          "name": "",
          "type": "uint256"
        }
      ],
      "stateMutability": "view",
      "type": "function"
    },
    {
      "inputs": [
        {
          "internalType": "bytes32",
          "name": "role",
          "type": "bytes32"
        }
      ],
      "name": "getRoleAdmin",
      "outputs": [
        {
          "internalType": "bytes32",
          "name": "",
          "type": "bytes32"
        }
      ],
      "stateMutability": "view",
      "type": "function"
    },
    {
      "inputs": [
        {
          "internalType": "bytes32",
          "name": "role",
          "type": "bytes32"
        },
        {
          "internalType": "uint256",
          "name": "index",
          "type": "uint256"
        }
      ],
      "name": "getRoleMember",
      "outputs": [
        {
          "internalType": "address",
          "name": "",
          "type": "address"
        }
      ],
      "stateMutability": "view",
      "type": "function"
    },
    {
      "inputs": [
        {
          "internalType": "bytes32",
          "name": "role",
          "type": "bytes32"
        }
      ],
      "name": "getRoleMemberCount",
      "outputs": [
        {
          "internalType": "uint256",
          "name": "",
          "type": "uint256"
        }
      ],
      "stateMutability": "view",
      "type": "function"
    },
    {
      "inputs": [
        {
          "internalType": "address",
          "name": "account",
          "type": "address"
        },
        {
          "internalType": "uint256",
          "name": "scheduleId",
          "type": "uint256"
        }
      ],
      "name": "getScheduleDetailForAccount",
      "outputs": [
        {
          "components": [
            {
              "internalType": "address",
              "name": "tokenHolder",
              "type": "address"
            },
            {
              "internalType": "uint256",
              "name": "scheduleTokenId",
              "type": "uint256"
            },
            {
              "internalType": "uint256",
              "name": "balance",
              "type": "uint256"
            },
            {
              "internalType": "uint256",
              "name": "claimableAmount",
              "type": "uint256"
            },
            {
              "internalType": "uint256",
              "name": "claimedAmount",
              "type": "uint256"
            },
            {
              "internalType": "uint256",
              "name": "quantityRevoked",
              "type": "uint256"
            }
          ],
          "internalType": "struct RestrictedNORI.ScheduleDetailForAddress",
          "name": "",
          "type": "tuple"
        }
      ],
      "stateMutability": "view",
      "type": "function"
    },
    {
      "inputs": [
        {
          "internalType": "uint256",
          "name": "scheduleId",
          "type": "uint256"
        }
      ],
      "name": "getScheduleSummary",
      "outputs": [
        {
          "components": [
            {
              "internalType": "uint256",
              "name": "scheduleTokenId",
              "type": "uint256"
            },
            {
              "internalType": "uint256",
              "name": "startTime",
              "type": "uint256"
            },
            {
              "internalType": "uint256",
              "name": "endTime",
              "type": "uint256"
            },
            {
              "internalType": "uint256",
              "name": "totalSupply",
              "type": "uint256"
            },
            {
              "internalType": "uint256",
              "name": "totalClaimableAmount",
              "type": "uint256"
            },
            {
              "internalType": "uint256",
              "name": "totalClaimedAmount",
              "type": "uint256"
            },
            {
              "internalType": "uint256",
              "name": "totalQuantityRevoked",
              "type": "uint256"
            },
            {
              "internalType": "address[]",
              "name": "tokenHolders",
              "type": "address[]"
            },
            {
              "internalType": "bool",
              "name": "exists",
              "type": "bool"
            }
          ],
          "internalType": "struct RestrictedNORI.ScheduleSummary",
          "name": "",
          "type": "tuple"
        }
      ],
      "stateMutability": "view",
      "type": "function"
    },
    {
      "inputs": [
        {
          "internalType": "bytes32",
          "name": "role",
          "type": "bytes32"
        },
        {
          "internalType": "address",
          "name": "account",
          "type": "address"
        }
      ],
      "name": "grantRole",
      "outputs": [],
      "stateMutability": "nonpayable",
      "type": "function"
    },
    {
      "inputs": [
        {
          "internalType": "bytes32",
          "name": "role",
          "type": "bytes32"
        },
        {
          "internalType": "address",
          "name": "account",
          "type": "address"
        }
      ],
      "name": "hasRole",
      "outputs": [
        {
          "internalType": "bool",
          "name": "",
          "type": "bool"
        }
      ],
      "stateMutability": "view",
      "type": "function"
    },
    {
      "inputs": [],
      "name": "initialize",
      "outputs": [],
      "stateMutability": "nonpayable",
      "type": "function"
    },
    {
      "inputs": [
        {
          "internalType": "address",
          "name": "account",
          "type": "address"
        },
        {
          "internalType": "address",
          "name": "operator",
          "type": "address"
        }
      ],
      "name": "isApprovedForAll",
      "outputs": [
        {
          "internalType": "bool",
          "name": "",
          "type": "bool"
        }
      ],
      "stateMutability": "view",
      "type": "function"
    },
    {
      "inputs": [
        {
          "internalType": "uint256",
          "name": "amount",
          "type": "uint256"
        },
        {
          "internalType": "uint256",
          "name": "removalId",
          "type": "uint256"
        }
      ],
      "name": "mint",
      "outputs": [],
      "stateMutability": "nonpayable",
      "type": "function"
    },
    {
      "inputs": [],
      "name": "pause",
      "outputs": [],
      "stateMutability": "nonpayable",
      "type": "function"
    },
    {
      "inputs": [],
      "name": "paused",
      "outputs": [
        {
          "internalType": "bool",
          "name": "",
          "type": "bool"
        }
      ],
      "stateMutability": "view",
      "type": "function"
    },
    {
      "inputs": [
        {
          "internalType": "contract BridgedPolygonNORI",
          "name": "bpNori",
          "type": "address"
        },
        {
          "internalType": "contract Removal",
          "name": "removal",
          "type": "address"
        }
      ],
      "name": "registerContractAddresses",
      "outputs": [],
      "stateMutability": "nonpayable",
      "type": "function"
    },
    {
      "inputs": [
        {
          "internalType": "bytes32",
          "name": "role",
          "type": "bytes32"
        },
        {
          "internalType": "address",
          "name": "account",
          "type": "address"
        }
      ],
      "name": "renounceRole",
      "outputs": [],
      "stateMutability": "nonpayable",
      "type": "function"
    },
    {
      "inputs": [
        {
          "internalType": "uint256",
          "name": "scheduleId",
          "type": "uint256"
        }
      ],
      "name": "revocableQuantityForSchedule",
      "outputs": [
        {
          "internalType": "uint256",
          "name": "",
          "type": "uint256"
        }
      ],
      "stateMutability": "view",
      "type": "function"
    },
    {
      "inputs": [
        {
          "internalType": "bytes32",
          "name": "role",
          "type": "bytes32"
        },
        {
          "internalType": "address",
          "name": "account",
          "type": "address"
        }
      ],
      "name": "revokeRole",
      "outputs": [],
      "stateMutability": "nonpayable",
      "type": "function"
    },
    {
      "inputs": [
        {
          "internalType": "uint256",
          "name": "projectId",
          "type": "uint256"
        },
        {
          "internalType": "uint256",
          "name": "amount",
          "type": "uint256"
        },
        {
          "internalType": "address",
          "name": "toAccount",
          "type": "address"
        }
      ],
      "name": "revokeUnreleasedTokens",
      "outputs": [],
      "stateMutability": "nonpayable",
      "type": "function"
    },
    {
      "inputs": [
        {
          "internalType": "address",
          "name": "from",
          "type": "address"
        },
        {
          "internalType": "address",
          "name": "to",
          "type": "address"
        },
        {
          "internalType": "uint256[]",
          "name": "ids",
          "type": "uint256[]"
        },
        {
          "internalType": "uint256[]",
          "name": "amounts",
          "type": "uint256[]"
        },
        {
          "internalType": "bytes",
          "name": "data",
          "type": "bytes"
        }
      ],
      "name": "safeBatchTransferFrom",
      "outputs": [],
      "stateMutability": "nonpayable",
      "type": "function"
    },
    {
      "inputs": [
        {
          "internalType": "address",
          "name": "from",
          "type": "address"
        },
        {
          "internalType": "address",
          "name": "to",
          "type": "address"
        },
        {
          "internalType": "uint256",
          "name": "id",
          "type": "uint256"
        },
        {
          "internalType": "uint256",
          "name": "amount",
          "type": "uint256"
        },
        {
          "internalType": "bytes",
          "name": "data",
          "type": "bytes"
        }
      ],
      "name": "safeTransferFrom",
      "outputs": [],
      "stateMutability": "nonpayable",
      "type": "function"
    },
    {
      "inputs": [
        {
          "internalType": "address",
          "name": "operator",
          "type": "address"
        },
        {
          "internalType": "bool",
          "name": "approved",
          "type": "bool"
        }
      ],
      "name": "setApprovalForAll",
      "outputs": [],
      "stateMutability": "nonpayable",
      "type": "function"
    },
    {
      "inputs": [
        {
          "internalType": "uint256",
          "name": "methodology",
          "type": "uint256"
        },
        {
          "internalType": "uint256",
          "name": "methodologyVersion",
          "type": "uint256"
        },
        {
          "internalType": "uint256",
          "name": "durationInSeconds",
          "type": "uint256"
        }
      ],
      "name": "setRestrictionDurationForMethodologyAndVersion",
      "outputs": [],
      "stateMutability": "nonpayable",
      "type": "function"
    },
    {
      "inputs": [
        {
          "internalType": "bytes4",
          "name": "interfaceId",
          "type": "bytes4"
        }
      ],
      "name": "supportsInterface",
      "outputs": [
        {
          "internalType": "bool",
          "name": "",
          "type": "bool"
        }
      ],
      "stateMutability": "view",
      "type": "function"
    },
    {
      "inputs": [
        {
          "internalType": "uint256",
          "name": "id",
          "type": "uint256"
        }
      ],
      "name": "totalSupply",
      "outputs": [
        {
          "internalType": "uint256",
          "name": "",
          "type": "uint256"
        }
      ],
      "stateMutability": "view",
      "type": "function"
    },
    {
      "inputs": [],
      "name": "unpause",
      "outputs": [],
      "stateMutability": "nonpayable",
      "type": "function"
    },
    {
      "inputs": [
        {
          "internalType": "uint256",
          "name": "",
          "type": "uint256"
        }
      ],
      "name": "uri",
      "outputs": [
        {
          "internalType": "string",
          "name": "",
          "type": "string"
        }
      ],
      "stateMutability": "view",
      "type": "function"
    },
    {
      "inputs": [
        {
          "internalType": "address",
          "name": "recipient",
          "type": "address"
        },
        {
          "internalType": "uint256",
          "name": "scheduleId",
          "type": "uint256"
        },
        {
          "internalType": "uint256",
          "name": "amount",
          "type": "uint256"
        }
      ],
      "name": "withdrawFromSchedule",
      "outputs": [
        {
          "internalType": "bool",
          "name": "",
          "type": "bool"
        }
      ],
      "stateMutability": "nonpayable",
      "type": "function"
    }
  ],
  "bytecode": "0x60806040523480156200001157600080fd5b506200001c62000022565b620000e4565b600054610100900460ff16156200008f5760405162461bcd60e51b815260206004820152602760248201527f496e697469616c697a61626c653a20636f6e747261637420697320696e697469604482015266616c697a696e6760c81b606482015260840160405180910390fd5b60005460ff9081161015620000e2576000805460ff191660ff9081179091556040519081527f7f26b83ff96e1f2b6a682f133852f6798a09c465da95921460cefb38474024989060200160405180910390a15b565b61561b80620000f46000396000f3fe608060405234801561001057600080fd5b50600436106102d25760003560e01c8063639aa0ad11610186578063a22cb465116100e3578063d539139311610097578063e985e9c511610071578063e985e9c5146106cc578063f242432a14610715578063f6f57a2e1461072857600080fd5b8063d53913931461066b578063d547741f14610692578063e63ab1e9146106a557600080fd5b8063bd85b039116100c8578063bd85b03914610625578063c1499fa814610645578063ca15c8731461065857600080fd5b8063a22cb465146105eb578063b8b4dbe0146105fe57600080fd5b80639010d07c1161013a57806393ae796d1161011f57806393ae796d146105a45780639ac7b44d146105b7578063a217fddf146105e357600080fd5b80639010d07c1461052557806391d148541461055d57600080fd5b8063713279b11161016b578063713279b1146105025780638129fc1c146105155780638456cb591461051d57600080fd5b8063639aa0ad146104c25780636a00f9eb146104e257600080fd5b80632f2ff15d116102345780634f558e79116101e85780635d37165a116101cd5780635d37165a146104945780636235a4e9146104a757806363343346146104ba57600080fd5b80634f558e79146104675780635c975abb1461048957600080fd5b80633f4ba83a116102195780633f4ba83a1461042c57806346dbd535146104345780634e1273f41461044757600080fd5b80632f2ff15d1461040657806336568abe1461041957600080fd5b8063248a9ca31161028b5780632d9f0f16116102705780632d9f0f16146103b35780632e5e8d83146103d35780632eb2c2d6146103f357600080fd5b8063248a9ca31461037c57806327ca0c27146103a057600080fd5b80630e89341c116102bc5780630e89341c146103205780631b2ef1ca14610340578063229afd611461035557600080fd5b8062fdd58e146102d757806301ffc9a7146102fd575b600080fd5b6102ea6102e5366004614603565b61073b565b6040519081526020015b60405180910390f35b61031061030b36600461465d565b61081d565b60405190151581526020016102f4565b61033361032e36600461467a565b610828565b6040516102f4919061470d565b61035361034e366004614720565b6108bc565b005b6102ea7fb62aeb2ef35a3718e51a7e8b0b0d8e6fa690a4037bf45dad308976da469a861c81565b6102ea61038a36600461467a565b600090815261012d602052604090206001015490565b6103106103ae366004614742565b610ae7565b6103c66103c1366004614777565b610c3c565b6040516102f491906148b2565b6103e66103e136600461467a565b610d42565b6040516102f49190614932565b610353610401366004614ae6565b610f64565b610353610414366004614b94565b611032565b610353610427366004614b94565b61105d565b610353611110565b610353610442366004614bc4565b611145565b61045a610455366004614bfd565b6115c8565b6040516102f49190614cfa565b61031061047536600461467a565b600090815260fb6020526040902054151590565b60975460ff16610310565b6102ea6104a2366004614b94565b61170b565b6102ea6104b536600461467a565b6117d2565b61045a611846565b6104d56104d0366004614603565b6118e6565b6040516102f49190614d0d565b6104f56104f0366004614d66565b6119da565b6040516102f49190614dac565b6102ea61051036600461467a565b611b17565b610353611b83565b610353611dfc565b610538610533366004614720565b611e2e565b60405173ffffffffffffffffffffffffffffffffffffffff90911681526020016102f4565b61031061056b366004614b94565b600091825261012d6020908152604080842073ffffffffffffffffffffffffffffffffffffffff93909316845291905290205460ff1690565b6103536105b2366004614e45565b611e47565b6102ea6105c5366004614720565b60009182526101916020908152604080842092845291905290205490565b6102ea600081565b6103536105f9366004614e81565b611f4f565b6102ea7f813b9efdf6afe6b57682eb1fb850711edc34da21ae7f7376cb7a391b1be3239f81565b6102ea61063336600461467a565b600090815260fb602052604090205490565b610353610653366004614eaf565b611f5a565b6102ea61066636600461467a565b611fc5565b6102ea7f9f2df0fed2c77648de5860a4cc508cd0818c85b8b8a1ab4ceeef8d981c8956a681565b6103536106a0366004614b94565b611fdd565b6102ea7f65d7a28e3265b37a6474929f336521b332c1681b933f6cb9f3376673440d862a81565b6103106106da366004614e45565b73ffffffffffffffffffffffffffffffffffffffff918216600090815260666020908152604080832093909416825291909152205460ff1690565b610353610723366004614edb565b612003565b61035361073636600461467a565b612052565b600073ffffffffffffffffffffffffffffffffffffffff83166107e5576040517f08c379a000000000000000000000000000000000000000000000000000000000815260206004820152602a60248201527f455243313135353a2061646472657373207a65726f206973206e6f742061207660448201527f616c6964206f776e65720000000000000000000000000000000000000000000060648201526084015b60405180910390fd5b50600081815260656020908152604080832073ffffffffffffffffffffffffffffffffffffffff861684529091529020545b92915050565b6000610817826120a7565b60606067805461083790614f44565b80601f016020809104026020016040519081016040528092919081815260200182805461086390614f44565b80156108b05780601f10610885576101008083540402835291602001916108b0565b820191906000526020600020905b81548152906001019060200180831161089357829003601f168201915b50505050509050919050565b6108e67f9f2df0fed2c77648de5860a4cc508cd0818c85b8b8a1ab4ceeef8d981c8956a63361056b565b61091e576040517ff78d23000000000000000000000000000000000000000000000000000000000081523360048201526024016107dc565b610196546040517fe0fc29380000000000000000000000000000000000000000000000000000000081526004810183905260009173ffffffffffffffffffffffffffffffffffffffff169063e0fc293890602401602060405180830381865afa15801561098f573d6000803e3d6000fd5b505050506040513d601f19601f820116820180604052508101906109b39190614f91565b610196546040517f99d5121b0000000000000000000000000000000000000000000000000000000081526004810183905291925060009173ffffffffffffffffffffffffffffffffffffffff909116906399d5121b90602401608060405180830381865afa158015610a29573d6000803e3d6000fd5b505050506040513d601f19601f82011682018060405250810190610a4d9190614faa565b60208082015160008581526101929092526040909120600301549192509060ff16610aa7576040517f25f87817000000000000000000000000000000000000000000000000000000008152600481018490526024016107dc565b610ac2818487604051806020016040528060008152506120fd565b600083815261019260205260409020610ade6006820183612276565b50505050505050565b6000610af4338484612298565b60008381526101926020526040812060028101805491928592610b18908490615045565b909155505033600090815260088201602052604081208054859290610b3e908490615045565b9091555050604051838152849073ffffffffffffffffffffffffffffffffffffffff87169033907fff097c7d8b1957a4ff09ef1361b5fb54dcede3941ba836d0beb9d10bec725de69060200160405180910390a4610195546040517fa9059cbb00000000000000000000000000000000000000000000000000000000815273ffffffffffffffffffffffffffffffffffffffff8781166004830152602482018690529091169063a9059cbb906044016020604051808303816000875af1158015610c0c573d6000803e3d6000fd5b505050506040513d601f19601f82011682018060405250810190610c30919061505d565b50600195945050505050565b606060008267ffffffffffffffff811115610c5957610c59614945565b604051908082528060200260200182016040528015610cdb57816020015b610cc860405180610120016040528060008152602001600081526020016000815260200160008152602001600081526020016000815260200160008152602001606081526020016000151581525090565b815260200190600190039081610c775790505b50905060005b83811015610d3a57610d0a858583818110610cfe57610cfe61507a565b90506020020135610d42565b828281518110610d1c57610d1c61507a565b60200260200101819052508080610d32906150a9565b915050610ce1565b509392505050565b610d9360405180610120016040528060008152602001600081526020016000815260200160008152602001600081526020016000815260200160008152602001606081526020016000151581525090565b60008281526101926020526040812090610daf600683016124ba565b905060008167ffffffffffffffff811115610dcc57610dcc614945565b604051908082528060200260200182016040528015610df5578160200160208202803683370190505b50905060008267ffffffffffffffff811115610e1357610e13614945565b604051908082528060200260200182016040528015610e3c578160200160208202803683370190505b50905060005b610e4e856006016124ba565b811015610ede57610e6260068601826124c4565b838281518110610e7457610e7461507a565b602002602001019073ffffffffffffffffffffffffffffffffffffffff16908173ffffffffffffffffffffffffffffffffffffffff168152505086828281518110610ec157610ec161507a565b602090810291909101015280610ed6816150a9565b915050610e42565b506040518061012001604052808781526020018560000154815260200185600101548152602001610f1b88600090815260fb602052604090205490565b8152602001610f29886117d2565b81526002860154602082015260048601546040820152606081019390935260039094015460ff16151560809092019190915250909392505050565b610f7185858585856124d0565b60005b835181101561102a5760006101926000868481518110610f9657610f9661507a565b602002602001015181526020019081526020016000209050838281518110610fc057610fc061507a565b6020026020010151600014610fde57610fdc6006820187612276565b505b61100187868481518110610ff457610ff461507a565b602002602001015161073b565b600003611017576110156006820188612599565b505b5080611022816150a9565b915050610f74565b505050505050565b600082815261012d602052604090206001015461104e816125bb565b61105883836125c5565b505050565b73ffffffffffffffffffffffffffffffffffffffff81163314611102576040517f08c379a000000000000000000000000000000000000000000000000000000000815260206004820152602f60248201527f416363657373436f6e74726f6c3a2063616e206f6e6c792072656e6f756e636560448201527f20726f6c657320666f722073656c66000000000000000000000000000000000060648201526084016107dc565b61110c82826125e8565b5050565b7f65d7a28e3265b37a6474929f336521b332c1681b933f6cb9f3376673440d862a61113a816125bb565b61114261260b565b50565b61114d612688565b7f813b9efdf6afe6b57682eb1fb850711edc34da21ae7f7376cb7a391b1be3239f611177816125bb565b600084815261019260205260409020600381015460ff166111c7576040517f25f87817000000000000000000000000000000000000000000000000000000008152600481018690526024016107dc565b60006111d286611b17565b905080851115611211576040517f610d2838000000000000000000000000000000000000000000000000000000008152600481018790526024016107dc565b60008086116112205781611222565b855b90506000611232846006016126f7565b90506000815167ffffffffffffffff81111561125057611250614945565b604051908082528060200260200182016040528015611279578160200160208202803683370190505b50905060005b82518110156112b8578982828151811061129b5761129b61507a565b6020908102919091010152806112b0816150a9565b91505061127f565b506000825167ffffffffffffffff8111156112d5576112d5614945565b6040519080825280602002602001820160405280156112fe578160200160208202803683370190505b509050600061130d84846115c8565b90506000805b6001865161132191906150e1565b8110156113a8576000611368888f8985815181106113415761134161507a565b602002602001015187868151811061135b5761135b61507a565b6020026020010151612704565b90508085838151811061137d5761137d61507a565b60209081029190910101526113928184615045565b92505080806113a0906150a9565b915050611313565b506113b381876150e1565b83600187516113c291906150e1565b815181106113d2576113d261507a565b60200260200101818152505060005b85518110156114c2576114278682815181106113ff576113ff61507a565b60200260200101518e86848151811061141a5761141a61507a565b6020026020010151612298565b8381815181106114395761143961507a565b60200260200101518960090160008884815181106114595761145961507a565b602002602001015173ffffffffffffffffffffffffffffffffffffffff1673ffffffffffffffffffffffffffffffffffffffff16815260200190815260200160002060008282546114aa9190615045565b909155508190506114ba816150a9565b9150506113e1565b50858860040160008282546114d79190615045565b925050819055508b427f988d249f1e88aec58e18388b0911f4b82db7677c5928dc0f64a16598270f321b888887604051611513939291906150f8565b60405180910390a3610195546040517fa9059cbb00000000000000000000000000000000000000000000000000000000815273ffffffffffffffffffffffffffffffffffffffff8c81166004830152602482018990529091169063a9059cbb906044016020604051808303816000875af1158015611595573d6000803e3d6000fd5b505050506040513d601f19601f820116820180604052508101906115b9919061505d565b50505050505050505050505050565b6060815183511461165b576040517f08c379a000000000000000000000000000000000000000000000000000000000815260206004820152602960248201527f455243313135353a206163636f756e747320616e6420696473206c656e67746860448201527f206d69736d61746368000000000000000000000000000000000000000000000060648201526084016107dc565b6000835167ffffffffffffffff81111561167757611677614945565b6040519080825280602002602001820160405280156116a0578160200160208202803683370190505b50905060005b8451811015610d3a576116de8582815181106116c4576116c461507a565b6020026020010151858381518110610ff457610ff461507a565b8282815181106116f0576116f061507a565b6020908102919091010152611704816150a9565b90506116a6565b6000828152610192602052604081206002810154829061172b9086612797565b90506000611739858761073b565b90506000821580611748575081155b15611755575060006117c8565b73ffffffffffffffffffffffffffffffffffffffff8616600090815260088501602052604081205490611787896117d2565b9050818587600201548361179b9190615045565b6117a58786615045565b6117af9190615123565b6117b99190615160565b6117c391906150e1565b925050505b9695505050505050565b600081815261019260205260408120600381015460ff16611822576040517f25f87817000000000000000000000000000000000000000000000000000000008152600481018490526024016107dc565b80600201546118358483600501546127b0565b61183f91906150e1565b9392505050565b606060006118556101936124ba565b67ffffffffffffffff81111561186d5761186d614945565b604051908082528060200260200182016040528015611896578160200160208202803683370190505b50905060005b81518110156118e0576118b1610193826124c4565b8282815181106118c3576118c361507a565b6020908102919091010152806118d8816150a9565b91505061189c565b50919050565b6119356040518060c00160405280600073ffffffffffffffffffffffffffffffffffffffff16815260200160008152602001600081526020016000815260200160008152602001600081525090565b60008281526101926020908152604091829020825160c08101845273ffffffffffffffffffffffffffffffffffffffff8716815291820185905291810161197c868661073b565b815260200161198b858761170b565b815273ffffffffffffffffffffffffffffffffffffffff861660008181526008850160209081526040808320548286015292825260099095019094529283902054920191909152905092915050565b60606000825167ffffffffffffffff8111156119f8576119f8614945565b604051908082528060200260200182016040528015611a7857816020015b611a656040518060c00160405280600073ffffffffffffffffffffffffffffffffffffffff16815260200160008152602001600081526020016000815260200160008152602001600081525090565b815260200190600190039081611a165790505b50905060005b8351811015610d3a576101926000858381518110611a9e57611a9e61507a565b60209081029190910181015182528101919091526040016000206003015460ff1615611b0557611ae785858381518110611ada57611ada61507a565b60200260200101516118e6565b828281518110611af957611af961507a565b60200260200101819052505b80611b0f816150a9565b915050611a7e565b600081815261019260205260408120600381015460ff16611b67576040517f25f87817000000000000000000000000000000000000000000000000000000008152600481018490526024016107dc565b611b758382600501546127b0565b611835826002015485612797565b600054610100900460ff1615808015611ba35750600054600160ff909116105b80611bbd5750303b158015611bbd575060005460ff166001145b611c49576040517f08c379a000000000000000000000000000000000000000000000000000000000815260206004820152602e60248201527f496e697469616c697a61626c653a20636f6e747261637420697320616c72656160448201527f647920696e697469616c697a656400000000000000000000000000000000000060648201526084016107dc565b600080547fffffffffffffffffffffffffffffffffffffffffffffffffffffffffffffff001660011790558015611ca757600080547fffffffffffffffffffffffffffffffffffffffffffffffffffffffffffff00ff166101001790555b611cc86040518060600160405280603281526020016155b4603291396127c4565b611cd0612864565b611cd8612864565b611ce0612864565b611ce8612864565b611cf06128fb565b611cf8612864565b611d086000336125c5565b6125c5565b611d327f65d7a28e3265b37a6474929f336521b332c1681b933f6cb9f3376673440d862a336125c5565b611d5c7fb62aeb2ef35a3718e51a7e8b0b0d8e6fa690a4037bf45dad308976da469a861c336125c5565b611d867f813b9efdf6afe6b57682eb1fb850711edc34da21ae7f7376cb7a391b1be3239f336125c5565b611d97600160006312cf3570611f5a565b801561114257600080547fffffffffffffffffffffffffffffffffffffffffffffffffffffffffffff00ff169055604051600181527f7f26b83ff96e1f2b6a682f133852f6798a09c465da95921460cefb38474024989060200160405180910390a150565b7f65d7a28e3265b37a6474929f336521b332c1681b933f6cb9f3376673440d862a611e26816125bb565b6111426129bc565b600082815261015f6020526040812061183f90836124c4565b611e4f612688565b6000611e5a816125bb565b610195805473ffffffffffffffffffffffffffffffffffffffff8086167fffffffffffffffffffffffff00000000000000000000000000000000000000009283161790925561019680549285169290911682179055604080517f956236410000000000000000000000000000000000000000000000000000000081529051611058927fb62aeb2ef35a3718e51a7e8b0b0d8e6fa690a4037bf45dad308976da469a861c9290916395623641916004808201926020929091908290030181865afa158015611f2b573d6000803e3d6000fd5b505050506040513d601f19601f82011682018060405250810190611d03919061519b565b61110c338383612a17565b611f62612688565b6000611f6d816125bb565b81600003611fa7576040517f98eb412400000000000000000000000000000000000000000000000000000000815260040160405180910390fd5b50600092835261019160209081526040808520938552929052912055565b600081815261015f60205260408120610817906124ba565b600082815261012d6020526040902060010154611ff9816125bb565b61105883836125e8565b6120108585858585612b6a565b6000838152610192602052604090208215612034576120326006820186612276565b505b61203e868561073b565b60000361102a57610ade6006820187612599565b61205a612688565b7fb62aeb2ef35a3718e51a7e8b0b0d8e6fa690a4037bf45dad308976da469a861c612084816125bb565b6000828152610192602052604090206003015460ff1661110c5761110c82612c2c565b60007fffffffff0000000000000000000000000000000000000000000000000000000082167f5a05180f000000000000000000000000000000000000000000000000000000001480610817575061081782612f16565b73ffffffffffffffffffffffffffffffffffffffff84166121a0576040517f08c379a000000000000000000000000000000000000000000000000000000000815260206004820152602160248201527f455243313135353a206d696e7420746f20746865207a65726f2061646472657360448201527f730000000000000000000000000000000000000000000000000000000000000060648201526084016107dc565b3360006121ac85612f6c565b905060006121b985612f6c565b90506121ca83600089858589612fb7565b600086815260656020908152604080832073ffffffffffffffffffffffffffffffffffffffff8b16845290915281208054879290612209908490615045565b9091555050604080518781526020810187905273ffffffffffffffffffffffffffffffffffffffff808a1692600092918716917fc3d58168c5ae7397731d063d5bbf3d657854427343f4c083240f7aacaa2d0f62910160405180910390a4610ade83600089898989613116565b600061183f8373ffffffffffffffffffffffffffffffffffffffff84166133a0565b73ffffffffffffffffffffffffffffffffffffffff831661233b576040517f08c379a000000000000000000000000000000000000000000000000000000000815260206004820152602360248201527f455243313135353a206275726e2066726f6d20746865207a65726f206164647260448201527f657373000000000000000000000000000000000000000000000000000000000060648201526084016107dc565b33600061234784612f6c565b9050600061235484612f6c565b905061237483876000858560405180602001604052806000815250612fb7565b600085815260656020908152604080832073ffffffffffffffffffffffffffffffffffffffff8a16845290915290205484811015612433576040517f08c379a0000000000000000000000000000000000000000000000000000000008152602060048201526024808201527f455243313135353a206275726e20616d6f756e7420657863656564732062616c60448201527f616e63650000000000000000000000000000000000000000000000000000000060648201526084016107dc565b600086815260656020908152604080832073ffffffffffffffffffffffffffffffffffffffff8b81168086529184528285208a8703905582518b81529384018a90529092908816917fc3d58168c5ae7397731d063d5bbf3d657854427343f4c083240f7aacaa2d0f62910160405180910390a4604080516020810190915260009052610ade565b6000610817825490565b600061183f83836133ef565b73ffffffffffffffffffffffffffffffffffffffff85163314806124f957506124f985336106da565b612585576040517f08c379a000000000000000000000000000000000000000000000000000000000815260206004820152602f60248201527f455243313135353a2063616c6c6572206973206e6f7420746f6b656e206f776e60448201527f6572206e6f7220617070726f766564000000000000000000000000000000000060648201526084016107dc565b6125928585858585613419565b5050505050565b600061183f8373ffffffffffffffffffffffffffffffffffffffff841661375c565b611142813361384f565b6125cf8282613922565b600082815261015f602052604090206110589082612276565b6125f28282613a18565b600082815261015f602052604090206110589082612599565b612613613ad5565b609780547fffffffffffffffffffffffffffffffffffffffffffffffffffffffffffffff001690557f5db9ee0a495bf2e6ff9c91a7834c1ba4fdd244a5e8aa4e537bd38aeae4b073aa335b60405173ffffffffffffffffffffffffffffffffffffffff909116815260200160405180910390a1565b60975460ff16156126f5576040517f08c379a000000000000000000000000000000000000000000000000000000000815260206004820152601060248201527f5061757361626c653a207061757365640000000000000000000000000000000060448201526064016107dc565b565b6060600061183f83613b41565b600083815261019260205260408120600281015482906127249087612797565b90506000811580612733575087155b156127405750600061278c565b73ffffffffffffffffffffffffffffffffffffffff8616600090815260088401602052604090205482896127748884615045565b61277e9190615123565b6127889190615160565b9150505b979650505050505050565b600081815260fb602052604081205461183f9084615045565b600061183f6127be84613b9c565b83613c2c565b600054610100900460ff1661285b576040517f08c379a000000000000000000000000000000000000000000000000000000000815260206004820152602b60248201527f496e697469616c697a61626c653a20636f6e7472616374206973206e6f74206960448201527f6e697469616c697a696e6700000000000000000000000000000000000000000060648201526084016107dc565b61114281613c43565b600054610100900460ff166126f5576040517f08c379a000000000000000000000000000000000000000000000000000000000815260206004820152602b60248201527f496e697469616c697a61626c653a20636f6e7472616374206973206e6f74206960448201527f6e697469616c697a696e6700000000000000000000000000000000000000000060648201526084016107dc565b600054610100900460ff16612992576040517f08c379a000000000000000000000000000000000000000000000000000000000815260206004820152602b60248201527f496e697469616c697a61626c653a20636f6e7472616374206973206e6f74206960448201527f6e697469616c697a696e6700000000000000000000000000000000000000000060648201526084016107dc565b609780547fffffffffffffffffffffffffffffffffffffffffffffffffffffffffffffff00169055565b6129c4612688565b609780547fffffffffffffffffffffffffffffffffffffffffffffffffffffffffffffff001660011790557f62e78cea01bee320cd4e420270b5ea74000d11b0c9f74754ebdbfc544b05a25861265e3390565b8173ffffffffffffffffffffffffffffffffffffffff168373ffffffffffffffffffffffffffffffffffffffff1603612ad2576040517f08c379a000000000000000000000000000000000000000000000000000000000815260206004820152602960248201527f455243313135353a2073657474696e6720617070726f76616c2073746174757360448201527f20666f722073656c66000000000000000000000000000000000000000000000060648201526084016107dc565b73ffffffffffffffffffffffffffffffffffffffff83811660008181526066602090815260408083209487168084529482529182902080547fffffffffffffffffffffffffffffffffffffffffffffffffffffffffffffff001686151590811790915591519182527f17307eab39ab6107e8899845ad3d59bd9653f200f220920489ca2b5937696c31910160405180910390a3505050565b73ffffffffffffffffffffffffffffffffffffffff8516331480612b935750612b9385336106da565b612c1f576040517f08c379a000000000000000000000000000000000000000000000000000000000815260206004820152602f60248201527f455243313135353a2063616c6c6572206973206e6f7420746f6b656e206f776e60448201527f6572206e6f7220617070726f766564000000000000000000000000000000000060648201526084016107dc565b6125928585858585613c4f565b610196546040517f99d5121b0000000000000000000000000000000000000000000000000000000081526004810183905260009173ffffffffffffffffffffffffffffffffffffffff16906399d5121b90602401608060405180830381865afa158015612c9d573d6000803e3d6000fd5b505050506040513d601f19601f82011682018060405250810190612cc19190614faa565b8051909150600003612d2f576040517f08c379a000000000000000000000000000000000000000000000000000000000815260206004820152601860248201527f496e76616c69645363686564756c65537461727454696d65000000000000000060448201526064016107dc565b602081015173ffffffffffffffffffffffffffffffffffffffff8116612d81576040517fd870705200000000000000000000000000000000000000000000000000000000815260040160405180910390fd5b612d8d61019384613e9f565b612df3576040517f08c379a000000000000000000000000000000000000000000000000000000000815260206004820152600f60248201527f5363686564756c6520657869737473000000000000000000000000000000000060448201526064016107dc565b60008381526101926020908152604080832085820151606087015190855261019184528285209085529092528220549091819003612e8d576040517f08c379a000000000000000000000000000000000000000000000000000000000815260206004820152601c60248201527f5265737472696374696f6e206475726174696f6e206e6f74207365740000000060448201526064016107dc565b6003820180547fffffffffffffffffffffffffffffffffffffffffffffffffffffffffffffff001660011790558351808355612eca908290615045565b60018301819055825460408051918252602082019290925286917fc6bf85d136b95579125a47c9781847cacd55015777db8a853dd17946aed35fb2910160405180910390a25050505050565b60007fffffffff0000000000000000000000000000000000000000000000000000000082167f7965db0b000000000000000000000000000000000000000000000000000000001480610817575061081782613eab565b60408051600180825281830190925260609160009190602080830190803683370190505090508281600081518110612fa657612fa661507a565b602090810291909101015292915050565b612fbf612688565b73ffffffffffffffffffffffffffffffffffffffff841615600081801561301157508773ffffffffffffffffffffffffffffffffffffffff168773ffffffffffffffffffffffffffffffffffffffff16145b905081156130fe5760005b85518110156130fc5760008682815181106130395761303961507a565b6020026020010151905082156130c457613053818a61170b565b8683815181106130655761306561507a565b602002602001015111156130c4576040517fe1b8b25f00000000000000000000000000000000000000000000000000000000815273ffffffffffffffffffffffffffffffffffffffff8a166004820152602481018290526044016107dc565b60008181526101926020526040902060058101546130e39083906127b0565b60059091015550806130f4816150a9565b91505061301c565b505b61310c888888888888613f8e565b5050505050505050565b73ffffffffffffffffffffffffffffffffffffffff84163b1561102a576040517ff23a6e6100000000000000000000000000000000000000000000000000000000815273ffffffffffffffffffffffffffffffffffffffff85169063f23a6e619061318d90899089908890889088906004016151b8565b6020604051808303816000875af19250505080156131e6575060408051601f3d9081017fffffffffffffffffffffffffffffffffffffffffffffffffffffffffffffffe01682019092526131e3918101906151fd565b60015b6132cf576131f261521a565b806308c379a0036132455750613206615236565b806132115750613247565b806040517f08c379a00000000000000000000000000000000000000000000000000000000081526004016107dc919061470d565b505b6040517f08c379a000000000000000000000000000000000000000000000000000000000815260206004820152603460248201527f455243313135353a207472616e7366657220746f206e6f6e204552433131353560448201527f526563656976657220696d706c656d656e74657200000000000000000000000060648201526084016107dc565b7fffffffff0000000000000000000000000000000000000000000000000000000081167ff23a6e610000000000000000000000000000000000000000000000000000000014610ade576040517f08c379a000000000000000000000000000000000000000000000000000000000815260206004820152602860248201527f455243313135353a204552433131353552656365697665722072656a6563746560448201527f6420746f6b656e7300000000000000000000000000000000000000000000000060648201526084016107dc565b60008181526001830160205260408120546133e757508154600181810184556000848152602080822090930184905584548482528286019093526040902091909155610817565b506000610817565b60008260000182815481106134065761340661507a565b9060005260206000200154905092915050565b81518351146134aa576040517f08c379a000000000000000000000000000000000000000000000000000000000815260206004820152602860248201527f455243313135353a2069647320616e6420616d6f756e7473206c656e6774682060448201527f6d69736d6174636800000000000000000000000000000000000000000000000060648201526084016107dc565b73ffffffffffffffffffffffffffffffffffffffff841661354d576040517f08c379a000000000000000000000000000000000000000000000000000000000815260206004820152602560248201527f455243313135353a207472616e7366657220746f20746865207a65726f20616460448201527f647265737300000000000000000000000000000000000000000000000000000060648201526084016107dc565b3361355c818787878787612fb7565b60005b84518110156136cf57600085828151811061357c5761357c61507a565b60200260200101519050600085838151811061359a5761359a61507a565b602090810291909101810151600084815260658352604080822073ffffffffffffffffffffffffffffffffffffffff8e168352909352919091205490915081811015613668576040517f08c379a000000000000000000000000000000000000000000000000000000000815260206004820152602a60248201527f455243313135353a20696e73756666696369656e742062616c616e636520666f60448201527f72207472616e736665720000000000000000000000000000000000000000000060648201526084016107dc565b600083815260656020908152604080832073ffffffffffffffffffffffffffffffffffffffff8e8116855292528083208585039055908b168252812080548492906136b4908490615045565b92505081905550505050806136c8906150a9565b905061355f565b508473ffffffffffffffffffffffffffffffffffffffff168673ffffffffffffffffffffffffffffffffffffffff168273ffffffffffffffffffffffffffffffffffffffff167f4a39dc06d4c0dbc64b70af90fd698a233a518aa5d07e595d983b8c0526c8f7fb87876040516137469291906152de565b60405180910390a461102a81878787878761415e565b600081815260018301602052604081205480156138455760006137806001836150e1565b8554909150600090613794906001906150e1565b90508181146137f95760008660000182815481106137b4576137b461507a565b90600052602060002001549050808760000184815481106137d7576137d761507a565b6000918252602080832090910192909255918252600188019052604090208390555b855486908061380a5761380a615303565b600190038181906000526020600020016000905590558560010160008681526020019081526020016000206000905560019350505050610817565b6000915050610817565b600082815261012d6020908152604080832073ffffffffffffffffffffffffffffffffffffffff8516845290915290205460ff1661110c576138a88173ffffffffffffffffffffffffffffffffffffffff16601461430b565b6138b383602061430b565b6040516020016138c4929190615332565b604080517fffffffffffffffffffffffffffffffffffffffffffffffffffffffffffffffe0818403018152908290527f08c379a00000000000000000000000000000000000000000000000000000000082526107dc9160040161470d565b600082815261012d6020908152604080832073ffffffffffffffffffffffffffffffffffffffff8516845290915290205460ff1661110c57600082815261012d6020908152604080832073ffffffffffffffffffffffffffffffffffffffff85168452909152902080547fffffffffffffffffffffffffffffffffffffffffffffffffffffffffffffff001660011790556139ba3390565b73ffffffffffffffffffffffffffffffffffffffff168173ffffffffffffffffffffffffffffffffffffffff16837f2f8788117e7eff1d82e926ec794901d17c78024a50270940304540a733656f0d60405160405180910390a45050565b600082815261012d6020908152604080832073ffffffffffffffffffffffffffffffffffffffff8516845290915290205460ff161561110c57600082815261012d6020908152604080832073ffffffffffffffffffffffffffffffffffffffff8516808552925280832080547fffffffffffffffffffffffffffffffffffffffffffffffffffffffffffffff0016905551339285917ff6391f5c32d9c69d2a47ea670b442974b53935d1edc7fd64eb21e047a839171b9190a45050565b60975460ff166126f5576040517f08c379a000000000000000000000000000000000000000000000000000000000815260206004820152601460248201527f5061757361626c653a206e6f742070617573656400000000000000000000000060448201526064016107dc565b6060816000018054806020026020016040519081016040528092919081815260200182805480156108b057602002820191906000526020600020905b815481526020019060010190808311613b7d5750505050509050919050565b600081815261019260205260408120600181015482904210613bcd5750600083815260fb602052604090205461183f565b81546001830154600091613be0916150e1565b83549091504210613c205782548190613bf990426150e1565b613c07856002015488612797565b613c119190615123565b613c1b9190615160565b613c23565b60005b95945050505050565b600081831015613c3c578161183f565b5090919050565b606761110c82826153f9565b73ffffffffffffffffffffffffffffffffffffffff8416613cf2576040517f08c379a000000000000000000000000000000000000000000000000000000000815260206004820152602560248201527f455243313135353a207472616e7366657220746f20746865207a65726f20616460448201527f647265737300000000000000000000000000000000000000000000000000000060648201526084016107dc565b336000613cfe85612f6c565b90506000613d0b85612f6c565b9050613d1b838989858589612fb7565b600086815260656020908152604080832073ffffffffffffffffffffffffffffffffffffffff8c16845290915290205485811015613ddb576040517f08c379a000000000000000000000000000000000000000000000000000000000815260206004820152602a60248201527f455243313135353a20696e73756666696369656e742062616c616e636520666f60448201527f72207472616e736665720000000000000000000000000000000000000000000060648201526084016107dc565b600087815260656020908152604080832073ffffffffffffffffffffffffffffffffffffffff8d8116855292528083208985039055908a16825281208054889290613e27908490615045565b9091555050604080518881526020810188905273ffffffffffffffffffffffffffffffffffffffff808b16928c821692918816917fc3d58168c5ae7397731d063d5bbf3d657854427343f4c083240f7aacaa2d0f62910160405180910390a4613e94848a8a8a8a8a613116565b505050505050505050565b600061183f83836133a0565b60007fffffffff0000000000000000000000000000000000000000000000000000000082167fd9b67a26000000000000000000000000000000000000000000000000000000001480613f3e57507fffffffff0000000000000000000000000000000000000000000000000000000082167f0e89341c00000000000000000000000000000000000000000000000000000000145b8061081757507f01ffc9a7000000000000000000000000000000000000000000000000000000007fffffffff00000000000000000000000000000000000000000000000000000000831614610817565b613f9c86868686868661454e565b73ffffffffffffffffffffffffffffffffffffffff85166140305760005b835181101561402e57828181518110613fd557613fd561507a565b602002602001015160fb6000868481518110613ff357613ff361507a565b6020026020010151815260200190815260200160002060008282546140189190615045565b909155506140279050816150a9565b9050613fba565b505b73ffffffffffffffffffffffffffffffffffffffff841661102a5760005b8351811015610ade57600084828151811061406b5761406b61507a565b6020026020010151905060008483815181106140895761408961507a565b60200260200101519050600060fb60008481526020019081526020016000205490508181101561413b576040517f08c379a000000000000000000000000000000000000000000000000000000000815260206004820152602860248201527f455243313135353a206275726e20616d6f756e74206578636565647320746f7460448201527f616c537570706c7900000000000000000000000000000000000000000000000060648201526084016107dc565b600092835260fb602052604090922091039055614157816150a9565b905061404e565b73ffffffffffffffffffffffffffffffffffffffff84163b1561102a576040517fbc197c8100000000000000000000000000000000000000000000000000000000815273ffffffffffffffffffffffffffffffffffffffff85169063bc197c81906141d59089908990889088908890600401615513565b6020604051808303816000875af192505050801561422e575060408051601f3d9081017fffffffffffffffffffffffffffffffffffffffffffffffffffffffffffffffe016820190925261422b918101906151fd565b60015b61423a576131f261521a565b7fffffffff0000000000000000000000000000000000000000000000000000000081167fbc197c810000000000000000000000000000000000000000000000000000000014610ade576040517f08c379a000000000000000000000000000000000000000000000000000000000815260206004820152602860248201527f455243313135353a204552433131353552656365697665722072656a6563746560448201527f6420746f6b656e7300000000000000000000000000000000000000000000000060648201526084016107dc565b6060600061431a836002615123565b614325906002615045565b67ffffffffffffffff81111561433d5761433d614945565b6040519080825280601f01601f191660200182016040528015614367576020820181803683370190505b5090507f30000000000000000000000000000000000000000000000000000000000000008160008151811061439e5761439e61507a565b60200101907effffffffffffffffffffffffffffffffffffffffffffffffffffffffffffff1916908160001a9053507f7800000000000000000000000000000000000000000000000000000000000000816001815181106144015761440161507a565b60200101907effffffffffffffffffffffffffffffffffffffffffffffffffffffffffffff1916908160001a905350600061443d846002615123565b614448906001615045565b90505b60018111156144e5577f303132333435363738396162636465660000000000000000000000000000000085600f16601081106144895761448961507a565b1a60f81b82828151811061449f5761449f61507a565b60200101907effffffffffffffffffffffffffffffffffffffffffffffffffffffffffffff1916908160001a90535060049490941c936144de8161557e565b905061444b565b50831561183f576040517f08c379a000000000000000000000000000000000000000000000000000000000815260206004820181905260248201527f537472696e67733a20686578206c656e67746820696e73756666696369656e7460448201526064016107dc565b60975460ff161561102a576040517f08c379a000000000000000000000000000000000000000000000000000000000815260206004820152602c60248201527f455243313135355061757361626c653a20746f6b656e207472616e736665722060448201527f7768696c6520706175736564000000000000000000000000000000000000000060648201526084016107dc565b73ffffffffffffffffffffffffffffffffffffffff8116811461114257600080fd5b6000806040838503121561461657600080fd5b8235614621816145e1565b946020939093013593505050565b7fffffffff000000000000000000000000000000000000000000000000000000008116811461114257600080fd5b60006020828403121561466f57600080fd5b813561183f8161462f565b60006020828403121561468c57600080fd5b5035919050565b60005b838110156146ae578181015183820152602001614696565b838111156146bd576000848401525b50505050565b600081518084526146db816020860160208601614693565b601f017fffffffffffffffffffffffffffffffffffffffffffffffffffffffffffffffe0169290920160200192915050565b60208152600061183f60208301846146c3565b6000806040838503121561473357600080fd5b50508035926020909101359150565b60008060006060848603121561475757600080fd5b8335614762816145e1565b95602085013595506040909401359392505050565b6000806020838503121561478a57600080fd5b823567ffffffffffffffff808211156147a257600080fd5b818501915085601f8301126147b657600080fd5b8135818111156147c557600080fd5b8660208260051b85010111156147da57600080fd5b60209290920196919550909350505050565b600081518084526020808501945080840160005b8381101561483257815173ffffffffffffffffffffffffffffffffffffffff1687529582019590820190600101614800565b509495945050505050565b6000610120825184526020830151602085015260408301516040850152606083015160608501526080830151608085015260a083015160a085015260c083015160c085015260e08301518160e0860152614899828601826147ec565b6101009485015115159590940194909452509092915050565b6000602080830181845280855180835260408601915060408160051b870101925083870160005b82811015614925577fffffffffffffffffffffffffffffffffffffffffffffffffffffffffffffffc088860301845261491385835161483d565b945092850192908501906001016148d9565b5092979650505050505050565b60208152600061183f602083018461483d565b7f4e487b7100000000000000000000000000000000000000000000000000000000600052604160045260246000fd5b7fffffffffffffffffffffffffffffffffffffffffffffffffffffffffffffffe0601f830116810181811067ffffffffffffffff821117156149b8576149b8614945565b6040525050565b600067ffffffffffffffff8211156149d9576149d9614945565b5060051b60200190565b600082601f8301126149f457600080fd5b81356020614a01826149bf565b604051614a0e8282614974565b83815260059390931b8501820192828101915086841115614a2e57600080fd5b8286015b84811015614a495780358352918301918301614a32565b509695505050505050565b600082601f830112614a6557600080fd5b813567ffffffffffffffff811115614a7f57614a7f614945565b604051614ab460207fffffffffffffffffffffffffffffffffffffffffffffffffffffffffffffffe0601f8501160182614974565b818152846020838601011115614ac957600080fd5b816020850160208301376000918101602001919091529392505050565b600080600080600060a08688031215614afe57600080fd5b8535614b09816145e1565b94506020860135614b19816145e1565b9350604086013567ffffffffffffffff80821115614b3657600080fd5b614b4289838a016149e3565b94506060880135915080821115614b5857600080fd5b614b6489838a016149e3565b93506080880135915080821115614b7a57600080fd5b50614b8788828901614a54565b9150509295509295909350565b60008060408385031215614ba757600080fd5b823591506020830135614bb9816145e1565b809150509250929050565b600080600060608486031215614bd957600080fd5b83359250602084013591506040840135614bf2816145e1565b809150509250925092565b60008060408385031215614c1057600080fd5b823567ffffffffffffffff80821115614c2857600080fd5b818501915085601f830112614c3c57600080fd5b81356020614c49826149bf565b604051614c568282614974565b83815260059390931b8501820192828101915089841115614c7657600080fd5b948201945b83861015614c9d578535614c8e816145e1565b82529482019490820190614c7b565b96505086013592505080821115614cb357600080fd5b50614cc0858286016149e3565b9150509250929050565b600081518084526020808501945080840160005b8381101561483257815187529582019590820190600101614cde565b60208152600061183f6020830184614cca565b60c08101610817828473ffffffffffffffffffffffffffffffffffffffff81511682526020810151602083015260408101516040830152606081015160608301526080810151608083015260a081015160a08301525050565b60008060408385031215614d7957600080fd5b8235614d84816145e1565b9150602083013567ffffffffffffffff811115614da057600080fd5b614cc0858286016149e3565b6020808252825182820181905260009190848201906040850190845b81811015614e3957614e2683855173ffffffffffffffffffffffffffffffffffffffff81511682526020810151602083015260408101516040830152606081015160608301526080810151608083015260a081015160a08301525050565b9284019260c09290920191600101614dc8565b50909695505050505050565b60008060408385031215614e5857600080fd5b8235614e63816145e1565b91506020830135614bb9816145e1565b801515811461114257600080fd5b60008060408385031215614e9457600080fd5b8235614e9f816145e1565b91506020830135614bb981614e73565b600080600060608486031215614ec457600080fd5b505081359360208301359350604090920135919050565b600080600080600060a08688031215614ef357600080fd5b8535614efe816145e1565b94506020860135614f0e816145e1565b93506040860135925060608601359150608086013567ffffffffffffffff811115614f3857600080fd5b614b8788828901614a54565b600181811c90821680614f5857607f821691505b6020821081036118e0577f4e487b7100000000000000000000000000000000000000000000000000000000600052602260045260246000fd5b600060208284031215614fa357600080fd5b5051919050565b600060808284031215614fbc57600080fd5b6040516080810181811067ffffffffffffffff82111715614fdf57614fdf614945565b604052825181526020830151614ff4816145e1565b6020820152604083810151908201526060928301519281019290925250919050565b7f4e487b7100000000000000000000000000000000000000000000000000000000600052601160045260246000fd5b6000821982111561505857615058615016565b500190565b60006020828403121561506f57600080fd5b815161183f81614e73565b7f4e487b7100000000000000000000000000000000000000000000000000000000600052603260045260246000fd5b60007fffffffffffffffffffffffffffffffffffffffffffffffffffffffffffffffff82036150da576150da615016565b5060010190565b6000828210156150f3576150f3615016565b500390565b83815260606020820152600061511160608301856147ec565b82810360408401526117c88185614cca565b6000817fffffffffffffffffffffffffffffffffffffffffffffffffffffffffffffffff048311821515161561515b5761515b615016565b500290565b600082615196577f4e487b7100000000000000000000000000000000000000000000000000000000600052601260045260246000fd5b500490565b6000602082840312156151ad57600080fd5b815161183f816145e1565b600073ffffffffffffffffffffffffffffffffffffffff808816835280871660208401525084604083015283606083015260a0608083015261278c60a08301846146c3565b60006020828403121561520f57600080fd5b815161183f8161462f565b600060033d11156152335760046000803e5060005160e01c5b90565b600060443d10156152445790565b6040517ffffffffffffffffffffffffffffffffffffffffffffffffffffffffffffffffc803d016004833e81513d67ffffffffffffffff816024840111818411171561529257505050505090565b82850191508151818111156152aa5750505050505090565b843d87010160208285010111156152c45750505050505090565b6152d360208286010187614974565b509095945050505050565b6040815260006152f16040830185614cca565b8281036020840152613c238185614cca565b7f4e487b7100000000000000000000000000000000000000000000000000000000600052603160045260246000fd5b7f416363657373436f6e74726f6c3a206163636f756e742000000000000000000081526000835161536a816017850160208801614693565b7f206973206d697373696e6720726f6c652000000000000000000000000000000060179184019182015283516153a7816028840160208801614693565b01602801949350505050565b601f82111561105857600081815260208120601f850160051c810160208610156153da5750805b601f850160051c820191505b8181101561102a578281556001016153e6565b815167ffffffffffffffff81111561541357615413614945565b615427816154218454614f44565b846153b3565b602080601f83116001811461547a57600084156154445750858301515b7fffffffffffffffffffffffffffffffffffffffffffffffffffffffffffffffff600386901b1c1916600185901b17855561102a565b6000858152602081207fffffffffffffffffffffffffffffffffffffffffffffffffffffffffffffffe08616915b828110156154c7578886015182559484019460019091019084016154a8565b508582101561550357878501517fffffffffffffffffffffffffffffffffffffffffffffffffffffffffffffffff600388901b60f8161c191681555b5050505050600190811b01905550565b600073ffffffffffffffffffffffffffffffffffffffff808816835280871660208401525060a0604083015261554c60a0830186614cca565b828103606084015261555e8186614cca565b9050828103608084015261557281856146c3565b98975050505050505050565b60008161558d5761558d615016565b507fffffffffffffffffffffffffffffffffffffffffffffffffffffffffffffffff019056fe68747470733a2f2f6e6f72692e636f6d2f6170692f7265737472696374696f6e7363686564756c652f7b69647d2e6a736f6ea2646970667358221220030665d23652a55d66f7a670d2a840f4797bcdb8888bb2d0085928d51d90fd4764736f6c634300080f0033",
  "linkReferences": {},
  "deployedLinkReferences": {}
}