{
  "_format": "hh-sol-artifact-1",
  "contractName": "RestrictedNORI",
  "sourceName": "contracts/RestrictedNORI.sol",
  "abi": [
    {
      "inputs": [],
      "stateMutability": "nonpayable",
      "type": "constructor"
    },
    {
      "inputs": [
        {
          "internalType": "string",
          "name": "array1Name",
          "type": "string"
        },
        {
          "internalType": "string",
          "name": "array2Name",
          "type": "string"
        }
      ],
      "name": "ArrayLengthMismatch",
      "type": "error"
    },
    {
      "inputs": [
        {
          "internalType": "address",
          "name": "account",
          "type": "address"
        },
        {
          "internalType": "uint256",
          "name": "scheduleId",
          "type": "uint256"
        }
      ],
      "name": "InsufficientClaimableBalance",
      "type": "error"
    },
    {
      "inputs": [
        {
          "internalType": "uint256",
          "name": "scheduleId",
          "type": "uint256"
        }
      ],
      "name": "InsufficientUnreleasedTokens",
      "type": "error"
    },
    {
      "inputs": [
        {
          "internalType": "address",
          "name": "account",
          "type": "address"
        }
      ],
      "name": "InvalidMinter",
      "type": "error"
    },
    {
      "inputs": [],
      "name": "InvalidZeroDuration",
      "type": "error"
    },
    {
      "inputs": [
        {
          "internalType": "uint256",
          "name": "scheduleId",
          "type": "uint256"
        }
      ],
      "name": "NonexistentSchedule",
      "type": "error"
    },
    {
      "inputs": [],
      "name": "RecipientCannotBeZeroAddress",
      "type": "error"
    },
    {
      "inputs": [],
      "name": "TokenSenderNotBPNORI",
      "type": "error"
    },
    {
      "anonymous": false,
      "inputs": [
        {
          "indexed": true,
          "internalType": "address",
          "name": "account",
          "type": "address"
        },
        {
          "indexed": true,
          "internalType": "address",
          "name": "operator",
          "type": "address"
        },
        {
          "indexed": false,
          "internalType": "bool",
          "name": "approved",
          "type": "bool"
        }
      ],
      "name": "ApprovalForAll",
      "type": "event"
    },
    {
      "anonymous": false,
      "inputs": [
        {
          "indexed": false,
          "internalType": "uint8",
          "name": "version",
          "type": "uint8"
        }
      ],
      "name": "Initialized",
      "type": "event"
    },
    {
      "anonymous": false,
      "inputs": [
        {
          "indexed": false,
          "internalType": "address",
          "name": "account",
          "type": "address"
        }
      ],
      "name": "Paused",
      "type": "event"
    },
    {
      "anonymous": false,
      "inputs": [
        {
          "indexed": true,
          "internalType": "bytes32",
          "name": "role",
          "type": "bytes32"
        },
        {
          "indexed": true,
          "internalType": "bytes32",
          "name": "previousAdminRole",
          "type": "bytes32"
        },
        {
          "indexed": true,
          "internalType": "bytes32",
          "name": "newAdminRole",
          "type": "bytes32"
        }
      ],
      "name": "RoleAdminChanged",
      "type": "event"
    },
    {
      "anonymous": false,
      "inputs": [
        {
          "indexed": true,
          "internalType": "bytes32",
          "name": "role",
          "type": "bytes32"
        },
        {
          "indexed": true,
          "internalType": "address",
          "name": "account",
          "type": "address"
        },
        {
          "indexed": true,
          "internalType": "address",
          "name": "sender",
          "type": "address"
        }
      ],
      "name": "RoleGranted",
      "type": "event"
    },
    {
      "anonymous": false,
      "inputs": [
        {
          "indexed": true,
          "internalType": "bytes32",
          "name": "role",
          "type": "bytes32"
        },
        {
          "indexed": true,
          "internalType": "address",
          "name": "account",
          "type": "address"
        },
        {
          "indexed": true,
          "internalType": "address",
          "name": "sender",
          "type": "address"
        }
      ],
      "name": "RoleRevoked",
      "type": "event"
    },
    {
      "anonymous": false,
      "inputs": [
        {
          "indexed": true,
          "internalType": "uint256",
          "name": "projectId",
          "type": "uint256"
        },
        {
          "indexed": false,
          "internalType": "uint256",
          "name": "startTime",
          "type": "uint256"
        },
        {
          "indexed": false,
          "internalType": "uint256",
          "name": "endTime",
          "type": "uint256"
        }
      ],
      "name": "ScheduleCreated",
      "type": "event"
    },
    {
      "anonymous": false,
      "inputs": [
        {
          "indexed": true,
          "internalType": "address",
          "name": "from",
          "type": "address"
        },
        {
          "indexed": true,
          "internalType": "address",
          "name": "to",
          "type": "address"
        },
        {
          "indexed": true,
          "internalType": "uint256",
          "name": "scheduleId",
          "type": "uint256"
        },
        {
          "indexed": false,
          "internalType": "uint256",
          "name": "quantity",
          "type": "uint256"
        }
      ],
      "name": "TokensClaimed",
      "type": "event"
    },
    {
      "anonymous": false,
      "inputs": [
        {
          "indexed": true,
          "internalType": "uint256",
          "name": "atTime",
          "type": "uint256"
        },
        {
          "indexed": true,
          "internalType": "uint256",
          "name": "removalId",
          "type": "uint256"
        },
        {
          "indexed": true,
          "internalType": "uint256",
          "name": "scheduleId",
          "type": "uint256"
        },
        {
          "indexed": false,
          "internalType": "uint256",
          "name": "quantity",
          "type": "uint256"
        }
      ],
      "name": "TokensRevoked",
      "type": "event"
    },
    {
      "anonymous": false,
      "inputs": [
        {
          "indexed": true,
          "internalType": "address",
          "name": "operator",
          "type": "address"
        },
        {
          "indexed": true,
          "internalType": "address",
          "name": "from",
          "type": "address"
        },
        {
          "indexed": true,
          "internalType": "address",
          "name": "to",
          "type": "address"
        },
        {
          "indexed": false,
          "internalType": "uint256[]",
          "name": "ids",
          "type": "uint256[]"
        },
        {
          "indexed": false,
          "internalType": "uint256[]",
          "name": "values",
          "type": "uint256[]"
        }
      ],
      "name": "TransferBatch",
      "type": "event"
    },
    {
      "anonymous": false,
      "inputs": [
        {
          "indexed": true,
          "internalType": "address",
          "name": "operator",
          "type": "address"
        },
        {
          "indexed": true,
          "internalType": "address",
          "name": "from",
          "type": "address"
        },
        {
          "indexed": true,
          "internalType": "address",
          "name": "to",
          "type": "address"
        },
        {
          "indexed": false,
          "internalType": "uint256",
          "name": "id",
          "type": "uint256"
        },
        {
          "indexed": false,
          "internalType": "uint256",
          "name": "value",
          "type": "uint256"
        }
      ],
      "name": "TransferSingle",
      "type": "event"
    },
    {
      "anonymous": false,
      "inputs": [
        {
          "indexed": false,
          "internalType": "string",
          "name": "value",
          "type": "string"
        },
        {
          "indexed": true,
          "internalType": "uint256",
          "name": "id",
          "type": "uint256"
        }
      ],
      "name": "URI",
      "type": "event"
    },
    {
      "anonymous": false,
      "inputs": [
        {
          "indexed": false,
          "internalType": "address",
          "name": "account",
          "type": "address"
        }
      ],
      "name": "Unpaused",
      "type": "event"
    },
    {
      "inputs": [],
      "name": "DEFAULT_ADMIN_ROLE",
      "outputs": [
        {
          "internalType": "bytes32",
          "name": "",
          "type": "bytes32"
        }
      ],
      "stateMutability": "view",
      "type": "function"
    },
    {
      "inputs": [],
      "name": "MINTER_ROLE",
      "outputs": [
        {
          "internalType": "bytes32",
          "name": "",
          "type": "bytes32"
        }
      ],
      "stateMutability": "view",
      "type": "function"
    },
    {
      "inputs": [],
      "name": "PAUSER_ROLE",
      "outputs": [
        {
          "internalType": "bytes32",
          "name": "",
          "type": "bytes32"
        }
      ],
      "stateMutability": "view",
      "type": "function"
    },
    {
      "inputs": [],
      "name": "SCHEDULE_CREATOR_ROLE",
      "outputs": [
        {
          "internalType": "bytes32",
          "name": "",
          "type": "bytes32"
        }
      ],
      "stateMutability": "view",
      "type": "function"
    },
    {
      "inputs": [],
      "name": "TOKEN_REVOKER_ROLE",
      "outputs": [
        {
          "internalType": "bytes32",
          "name": "",
          "type": "bytes32"
        }
      ],
      "stateMutability": "view",
      "type": "function"
    },
    {
      "inputs": [
        {
          "internalType": "address",
          "name": "account",
          "type": "address"
        },
        {
          "internalType": "uint256",
          "name": "id",
          "type": "uint256"
        }
      ],
      "name": "balanceOf",
      "outputs": [
        {
          "internalType": "uint256",
          "name": "",
          "type": "uint256"
        }
      ],
      "stateMutability": "view",
      "type": "function"
    },
    {
      "inputs": [
        {
          "internalType": "address[]",
          "name": "accounts",
          "type": "address[]"
        },
        {
          "internalType": "uint256[]",
          "name": "ids",
          "type": "uint256[]"
        }
      ],
      "name": "balanceOfBatch",
      "outputs": [
        {
          "internalType": "uint256[]",
          "name": "",
          "type": "uint256[]"
        }
      ],
      "stateMutability": "view",
      "type": "function"
    },
    {
      "inputs": [
        {
          "internalType": "address",
          "name": "account",
          "type": "address"
        },
        {
          "internalType": "uint256[]",
          "name": "scheduleIds",
          "type": "uint256[]"
        }
      ],
      "name": "batchGetScheduleDetailsForAccount",
      "outputs": [
        {
          "components": [
            {
              "internalType": "address",
              "name": "tokenHolder",
              "type": "address"
            },
            {
              "internalType": "uint256",
              "name": "scheduleTokenId",
              "type": "uint256"
            },
            {
              "internalType": "uint256",
              "name": "balance",
              "type": "uint256"
            },
            {
              "internalType": "uint256",
              "name": "claimableAmount",
              "type": "uint256"
            },
            {
              "internalType": "uint256",
              "name": "claimedAmount",
              "type": "uint256"
            },
            {
              "internalType": "uint256",
              "name": "quantityRevoked",
              "type": "uint256"
            }
          ],
          "internalType": "struct RestrictedNORI.ScheduleDetailForAddress[]",
          "name": "",
          "type": "tuple[]"
        }
      ],
      "stateMutability": "view",
      "type": "function"
    },
    {
      "inputs": [
        {
          "internalType": "uint256[]",
          "name": "scheduleIds",
          "type": "uint256[]"
        }
      ],
      "name": "batchGetScheduleSummaries",
      "outputs": [
        {
          "components": [
            {
              "internalType": "uint256",
              "name": "scheduleTokenId",
              "type": "uint256"
            },
            {
              "internalType": "uint256",
              "name": "startTime",
              "type": "uint256"
            },
            {
              "internalType": "uint256",
              "name": "endTime",
              "type": "uint256"
            },
            {
              "internalType": "uint256",
              "name": "totalSupply",
              "type": "uint256"
            },
            {
              "internalType": "uint256",
              "name": "totalClaimableAmount",
              "type": "uint256"
            },
            {
              "internalType": "uint256",
              "name": "totalClaimedAmount",
              "type": "uint256"
            },
            {
              "internalType": "uint256",
              "name": "totalQuantityRevoked",
              "type": "uint256"
            },
            {
              "internalType": "address[]",
              "name": "tokenHolders",
              "type": "address[]"
            },
            {
              "internalType": "bool",
              "name": "exists",
              "type": "bool"
            }
          ],
          "internalType": "struct RestrictedNORI.ScheduleSummary[]",
          "name": "",
          "type": "tuple[]"
        }
      ],
      "stateMutability": "view",
      "type": "function"
    },
    {
      "inputs": [
        {
          "internalType": "address[]",
          "name": "toAccounts",
          "type": "address[]"
        },
        {
          "internalType": "uint256[]",
          "name": "removalIds",
          "type": "uint256[]"
        },
        {
          "internalType": "uint256[]",
          "name": "amounts",
          "type": "uint256[]"
        }
      ],
      "name": "batchRevokeUnreleasedTokenAmounts",
      "outputs": [],
      "stateMutability": "nonpayable",
      "type": "function"
    },
    {
      "inputs": [
        {
          "internalType": "uint256",
          "name": "scheduleId",
          "type": "uint256"
        }
      ],
      "name": "claimableBalanceForSchedule",
      "outputs": [
        {
          "internalType": "uint256",
          "name": "",
          "type": "uint256"
        }
      ],
      "stateMutability": "view",
      "type": "function"
    },
    {
      "inputs": [
        {
          "internalType": "uint256",
          "name": "scheduleId",
          "type": "uint256"
        },
        {
          "internalType": "address",
          "name": "account",
          "type": "address"
        }
      ],
      "name": "claimableBalanceForScheduleForAccount",
      "outputs": [
        {
          "internalType": "uint256",
          "name": "",
          "type": "uint256"
        }
      ],
      "stateMutability": "view",
      "type": "function"
    },
    {
      "inputs": [
        {
          "internalType": "uint256",
          "name": "projectId",
          "type": "uint256"
        }
      ],
      "name": "createSchedule",
      "outputs": [],
      "stateMutability": "nonpayable",
      "type": "function"
    },
    {
      "inputs": [
        {
          "internalType": "uint256",
          "name": "id",
          "type": "uint256"
        }
      ],
      "name": "exists",
      "outputs": [
        {
          "internalType": "bool",
          "name": "",
          "type": "bool"
        }
      ],
      "stateMutability": "view",
      "type": "function"
    },
    {
      "inputs": [],
      "name": "getAllScheduleIds",
      "outputs": [
        {
          "internalType": "uint256[]",
          "name": "",
          "type": "uint256[]"
        }
      ],
      "stateMutability": "view",
      "type": "function"
    },
    {
      "inputs": [
        {
          "internalType": "uint256",
          "name": "methodology",
          "type": "uint256"
        },
        {
          "internalType": "uint256",
          "name": "methodologyVersion",
          "type": "uint256"
        }
      ],
      "name": "getRestrictionDurationForMethodologyAndVersion",
      "outputs": [
        {
          "internalType": "uint256",
          "name": "",
          "type": "uint256"
        }
      ],
      "stateMutability": "view",
      "type": "function"
    },
    {
      "inputs": [
        {
          "internalType": "bytes32",
          "name": "role",
          "type": "bytes32"
        }
      ],
      "name": "getRoleAdmin",
      "outputs": [
        {
          "internalType": "bytes32",
          "name": "",
          "type": "bytes32"
        }
      ],
      "stateMutability": "view",
      "type": "function"
    },
    {
      "inputs": [
        {
          "internalType": "bytes32",
          "name": "role",
          "type": "bytes32"
        },
        {
          "internalType": "uint256",
          "name": "index",
          "type": "uint256"
        }
      ],
      "name": "getRoleMember",
      "outputs": [
        {
          "internalType": "address",
          "name": "",
          "type": "address"
        }
      ],
      "stateMutability": "view",
      "type": "function"
    },
    {
      "inputs": [
        {
          "internalType": "bytes32",
          "name": "role",
          "type": "bytes32"
        }
      ],
      "name": "getRoleMemberCount",
      "outputs": [
        {
          "internalType": "uint256",
          "name": "",
          "type": "uint256"
        }
      ],
      "stateMutability": "view",
      "type": "function"
    },
    {
      "inputs": [
        {
          "internalType": "address",
          "name": "account",
          "type": "address"
        },
        {
          "internalType": "uint256",
          "name": "scheduleId",
          "type": "uint256"
        }
      ],
      "name": "getScheduleDetailForAccount",
      "outputs": [
        {
          "components": [
            {
              "internalType": "address",
              "name": "tokenHolder",
              "type": "address"
            },
            {
              "internalType": "uint256",
              "name": "scheduleTokenId",
              "type": "uint256"
            },
            {
              "internalType": "uint256",
              "name": "balance",
              "type": "uint256"
            },
            {
              "internalType": "uint256",
              "name": "claimableAmount",
              "type": "uint256"
            },
            {
              "internalType": "uint256",
              "name": "claimedAmount",
              "type": "uint256"
            },
            {
              "internalType": "uint256",
              "name": "quantityRevoked",
              "type": "uint256"
            }
          ],
          "internalType": "struct RestrictedNORI.ScheduleDetailForAddress",
          "name": "",
          "type": "tuple"
        }
      ],
      "stateMutability": "view",
      "type": "function"
    },
    {
      "inputs": [
        {
          "internalType": "uint256",
          "name": "scheduleId",
          "type": "uint256"
        }
      ],
      "name": "getScheduleSummary",
      "outputs": [
        {
          "components": [
            {
              "internalType": "uint256",
              "name": "scheduleTokenId",
              "type": "uint256"
            },
            {
              "internalType": "uint256",
              "name": "startTime",
              "type": "uint256"
            },
            {
              "internalType": "uint256",
              "name": "endTime",
              "type": "uint256"
            },
            {
              "internalType": "uint256",
              "name": "totalSupply",
              "type": "uint256"
            },
            {
              "internalType": "uint256",
              "name": "totalClaimableAmount",
              "type": "uint256"
            },
            {
              "internalType": "uint256",
              "name": "totalClaimedAmount",
              "type": "uint256"
            },
            {
              "internalType": "uint256",
              "name": "totalQuantityRevoked",
              "type": "uint256"
            },
            {
              "internalType": "address[]",
              "name": "tokenHolders",
              "type": "address[]"
            },
            {
              "internalType": "bool",
              "name": "exists",
              "type": "bool"
            }
          ],
          "internalType": "struct RestrictedNORI.ScheduleSummary",
          "name": "",
          "type": "tuple"
        }
      ],
      "stateMutability": "view",
      "type": "function"
    },
    {
      "inputs": [
        {
          "internalType": "bytes32",
          "name": "role",
          "type": "bytes32"
        },
        {
          "internalType": "address",
          "name": "account",
          "type": "address"
        }
      ],
      "name": "grantRole",
      "outputs": [],
      "stateMutability": "nonpayable",
      "type": "function"
    },
    {
      "inputs": [
        {
          "internalType": "bytes32",
          "name": "role",
          "type": "bytes32"
        },
        {
          "internalType": "address",
          "name": "account",
          "type": "address"
        }
      ],
      "name": "hasRole",
      "outputs": [
        {
          "internalType": "bool",
          "name": "",
          "type": "bool"
        }
      ],
      "stateMutability": "view",
      "type": "function"
    },
    {
      "inputs": [],
      "name": "initialize",
      "outputs": [],
      "stateMutability": "nonpayable",
      "type": "function"
    },
    {
      "inputs": [
        {
          "internalType": "address",
          "name": "account",
          "type": "address"
        },
        {
          "internalType": "address",
          "name": "operator",
          "type": "address"
        }
      ],
      "name": "isApprovedForAll",
      "outputs": [
        {
          "internalType": "bool",
          "name": "",
          "type": "bool"
        }
      ],
      "stateMutability": "view",
      "type": "function"
    },
    {
      "inputs": [
        {
          "internalType": "uint256",
          "name": "amount",
          "type": "uint256"
        },
        {
          "internalType": "uint256",
          "name": "removalId",
          "type": "uint256"
        }
      ],
      "name": "mint",
      "outputs": [],
      "stateMutability": "nonpayable",
      "type": "function"
    },
    {
      "inputs": [],
      "name": "pause",
      "outputs": [],
      "stateMutability": "nonpayable",
      "type": "function"
    },
    {
      "inputs": [],
      "name": "paused",
      "outputs": [
        {
          "internalType": "bool",
          "name": "",
          "type": "bool"
        }
      ],
      "stateMutability": "view",
      "type": "function"
    },
    {
      "inputs": [
        {
          "internalType": "address",
          "name": "bridgedPolygonNoriAddress",
          "type": "address"
        },
        {
          "internalType": "address",
          "name": "removalAddress",
          "type": "address"
        }
      ],
      "name": "registerContractAddresses",
      "outputs": [],
      "stateMutability": "nonpayable",
      "type": "function"
    },
    {
      "inputs": [
        {
          "internalType": "bytes32",
          "name": "role",
          "type": "bytes32"
        },
        {
          "internalType": "address",
          "name": "account",
          "type": "address"
        }
      ],
      "name": "renounceRole",
      "outputs": [],
      "stateMutability": "nonpayable",
      "type": "function"
    },
    {
      "inputs": [
        {
          "internalType": "uint256",
          "name": "scheduleId",
          "type": "uint256"
        }
      ],
      "name": "revocableQuantityForSchedule",
      "outputs": [
        {
          "internalType": "uint256",
          "name": "",
          "type": "uint256"
        }
      ],
      "stateMutability": "view",
      "type": "function"
    },
    {
      "inputs": [
        {
          "internalType": "bytes32",
          "name": "role",
          "type": "bytes32"
        },
        {
          "internalType": "address",
          "name": "account",
          "type": "address"
        }
      ],
      "name": "revokeRole",
      "outputs": [],
      "stateMutability": "nonpayable",
      "type": "function"
    },
    {
      "inputs": [
        {
          "internalType": "address",
          "name": "from",
          "type": "address"
        },
        {
          "internalType": "address",
          "name": "to",
          "type": "address"
        },
        {
          "internalType": "uint256[]",
          "name": "ids",
          "type": "uint256[]"
        },
        {
          "internalType": "uint256[]",
          "name": "amounts",
          "type": "uint256[]"
        },
        {
          "internalType": "bytes",
          "name": "data",
          "type": "bytes"
        }
      ],
      "name": "safeBatchTransferFrom",
      "outputs": [],
      "stateMutability": "nonpayable",
      "type": "function"
    },
    {
      "inputs": [
        {
          "internalType": "address",
          "name": "from",
          "type": "address"
        },
        {
          "internalType": "address",
          "name": "to",
          "type": "address"
        },
        {
          "internalType": "uint256",
          "name": "id",
          "type": "uint256"
        },
        {
          "internalType": "uint256",
          "name": "amount",
          "type": "uint256"
        },
        {
          "internalType": "bytes",
          "name": "data",
          "type": "bytes"
        }
      ],
      "name": "safeTransferFrom",
      "outputs": [],
      "stateMutability": "nonpayable",
      "type": "function"
    },
    {
      "inputs": [
        {
          "internalType": "address",
          "name": "operator",
          "type": "address"
        },
        {
          "internalType": "bool",
          "name": "approved",
          "type": "bool"
        }
      ],
      "name": "setApprovalForAll",
      "outputs": [],
      "stateMutability": "nonpayable",
      "type": "function"
    },
    {
      "inputs": [
        {
          "internalType": "uint256",
          "name": "methodology",
          "type": "uint256"
        },
        {
          "internalType": "uint256",
          "name": "methodologyVersion",
          "type": "uint256"
        },
        {
          "internalType": "uint256",
          "name": "durationInSeconds",
          "type": "uint256"
        }
      ],
      "name": "setRestrictionDurationForMethodologyAndVersion",
      "outputs": [],
      "stateMutability": "nonpayable",
      "type": "function"
    },
    {
      "inputs": [
        {
          "internalType": "bytes4",
          "name": "interfaceId",
          "type": "bytes4"
        }
      ],
      "name": "supportsInterface",
      "outputs": [
        {
          "internalType": "bool",
          "name": "",
          "type": "bool"
        }
      ],
      "stateMutability": "view",
      "type": "function"
    },
    {
      "inputs": [
        {
          "internalType": "uint256",
          "name": "id",
          "type": "uint256"
        }
      ],
      "name": "totalSupply",
      "outputs": [
        {
          "internalType": "uint256",
          "name": "",
          "type": "uint256"
        }
      ],
      "stateMutability": "view",
      "type": "function"
    },
    {
      "inputs": [],
      "name": "unpause",
      "outputs": [],
      "stateMutability": "nonpayable",
      "type": "function"
    },
    {
      "inputs": [
        {
          "internalType": "uint256",
          "name": "",
          "type": "uint256"
        }
      ],
      "name": "uri",
      "outputs": [
        {
          "internalType": "string",
          "name": "",
          "type": "string"
        }
      ],
      "stateMutability": "view",
      "type": "function"
    },
    {
      "inputs": [
        {
          "internalType": "address",
          "name": "recipient",
          "type": "address"
        },
        {
          "internalType": "uint256",
          "name": "scheduleId",
          "type": "uint256"
        },
        {
          "internalType": "uint256",
          "name": "amount",
          "type": "uint256"
        }
      ],
      "name": "withdrawFromSchedule",
      "outputs": [
        {
          "internalType": "bool",
          "name": "",
          "type": "bool"
        }
      ],
      "stateMutability": "nonpayable",
      "type": "function"
    }
  ],
  "bytecode": "0x60806040523480156200001157600080fd5b50620000226200002860201b60201c565b620001d3565b600060019054906101000a900460ff16156200007b576040517f08c379a0000000000000000000000000000000000000000000000000000000008152600401620000729062000176565b60405180910390fd5b60ff801660008054906101000a900460ff1660ff161015620000ed5760ff6000806101000a81548160ff021916908360ff1602179055507f7f26b83ff96e1f2b6a682f133852f6798a09c465da95921460cefb384740249860ff604051620000e49190620001b6565b60405180910390a15b565b600082825260208201905092915050565b7f496e697469616c697a61626c653a20636f6e747261637420697320696e69746960008201527f616c697a696e6700000000000000000000000000000000000000000000000000602082015250565b60006200015e602783620000ef565b91506200016b8262000100565b604082019050919050565b6000602082019050818103600083015262000191816200014f565b9050919050565b600060ff82169050919050565b620001b08162000198565b82525050565b6000602082019050620001cd6000830184620001a5565b92915050565b61788c80620001e36000396000f3fe608060405234801561001057600080fd5b50600436106101e25760003560e01c8062fdd58e146101e757806301ffc9a7146102175780630e89341c146102475780631b2ef1ca14610277578063229afd6114610293578063248a9ca3146102b157806327ca0c27146102e15780632d9f0f16146103115780632e5e8d83146103415780632eb2c2d6146103715780632f2ff15d1461038d57806336568abe146103a95780633f4ba83a146103c55780634e1273f4146103cf5780634f558e79146103ff5780635c975abb1461042f5780635d37165a1461044d5780636235a4e91461047d57806363343346146104ad578063639aa0ad146104cb5780636a00f9eb146104fb578063713279b11461052b5780638129fc1c1461055b5780638456cb59146105655780639010d07c1461056f57806391d148541461059f57806393ae796d146105cf5780639ac7b44d146105eb578063a217fddf1461061b578063a22cb46514610639578063b8b4dbe014610655578063bd85b03914610673578063c1499fa8146106a3578063ca15c873146106bf578063d5391393146106ef578063d547741f1461070d578063e01d739314610729578063e63ab1e914610745578063e985e9c514610763578063f242432a14610793578063f6f57a2e146107af575b600080fd5b61020160048036038101906101fc9190614e1d565b6107cb565b60405161020e9190614e6c565b60405180910390f35b610231600480360381019061022c9190614edf565b610894565b60405161023e9190614f27565b60405180910390f35b610261600480360381019061025c9190614f42565b6108a6565b60405161026e9190615008565b60405180910390f35b610291600480360381019061028c919061502a565b61093a565b005b61029b610bb6565b6040516102a89190615083565b60405180910390f35b6102cb60048036038101906102c691906150ca565b610bda565b6040516102d89190615083565b60405180910390f35b6102fb60048036038101906102f691906150f7565b610bfb565b6040516103089190614f27565b60405180910390f35b61032b600480360381019061032691906151af565b610dbc565b604051610338919061545f565b60405180910390f35b61035b60048036038101906103569190614f42565b610e85565b6040516103689190615546565b60405180910390f35b61038b6004803603810190610386919061575b565b61107a565b005b6103a760048036038101906103a2919061582a565b61115e565b005b6103c360048036038101906103be919061582a565b61117f565b005b6103cd611202565b005b6103e960048036038101906103e4919061592d565b611237565b6040516103f69190615a54565b60405180910390f35b61041960048036038101906104149190614f42565b611350565b6040516104269190614f27565b60405180910390f35b610437611364565b6040516104449190614f27565b60405180910390f35b61046760048036038101906104629190615a76565b61137b565b6040516104749190614e6c565b60405180910390f35b61049760048036038101906104929190614f42565b611473565b6040516104a49190614e6c565b60405180910390f35b6104b5611504565b6040516104c29190615a54565b60405180910390f35b6104e560048036038101906104e09190614e1d565b6115b8565b6040516104f29190615b31565b60405180910390f35b61051560048036038101906105109190615b4c565b6116b8565b6040516105229190615cd2565b60405180910390f35b61054560048036038101906105409190614f42565b6117c4565b6040516105529190614e6c565b60405180910390f35b61056361185e565b005b61056d611a9d565b005b61058960048036038101906105849190615cf4565b611ad2565b6040516105969190615d43565b60405180910390f35b6105b960048036038101906105b4919061582a565b611b02565b6040516105c69190614f27565b60405180910390f35b6105e960048036038101906105e49190615d5e565b611b6e565b005b6106056004803603810190610600919061502a565b611c04565b6040516106129190614e6c565b60405180910390f35b610623611c34565b6040516106309190615083565b60405180910390f35b610653600480360381019061064e9190615dca565b611c3b565b005b61065d611c51565b60405161066a9190615083565b60405180910390f35b61068d60048036038101906106889190614f42565b611c75565b60405161069a9190614e6c565b60405180910390f35b6106bd60048036038101906106b89190615e0a565b611c92565b005b6106d960048036038101906106d491906150ca565b611d11565b6040516106e69190614e6c565b60405180910390f35b6106f7611d36565b6040516107049190615083565b60405180910390f35b6107276004803603810190610722919061582a565b611d5a565b005b610743600480360381019061073e9190615eb3565b611d7b565b005b61074d611ecc565b60405161075a9190615083565b60405180910390f35b61077d60048036038101906107789190615d5e565b611ef0565b60405161078a9190614f27565b60405180910390f35b6107ad60048036038101906107a89190615f67565b611f84565b005b6107c960048036038101906107c49190614f42565b611ffa565b005b60008073ffffffffffffffffffffffffffffffffffffffff168373ffffffffffffffffffffffffffffffffffffffff160361083b576040517f08c379a000000000000000000000000000000000000000000000000000000000815260040161083290616070565b60405180910390fd5b6065600083815260200190815260200160002060008473ffffffffffffffffffffffffffffffffffffffff1673ffffffffffffffffffffffffffffffffffffffff16815260200190815260200160002054905092915050565b600061089f82612063565b9050919050565b6060606780546108b5906160bf565b80601f01602080910402602001604051908101604052809291908181526020018280546108e1906160bf565b801561092e5780601f106109035761010080835404028352916020019161092e565b820191906000526020600020905b81548152906001019060200180831161091157829003601f168201915b50505050509050919050565b61096b7f9f2df0fed2c77648de5860a4cc508cd0818c85b8b8a1ab4ceeef8d981c8956a66109666120dd565b611b02565b6109b3576109776120dd565b6040517ff78d23000000000000000000000000000000000000000000000000000000000081526004016109aa9190615d43565b60405180910390fd5b600061019660009054906101000a900473ffffffffffffffffffffffffffffffffffffffff1673ffffffffffffffffffffffffffffffffffffffff1663e0fc2938836040518263ffffffff1660e01b8152600401610a119190614e6c565b602060405180830381865afa158015610a2e573d6000803e3d6000fd5b505050506040513d601f19601f82011682018060405250810190610a529190616105565b9050600061019660009054906101000a900473ffffffffffffffffffffffffffffffffffffffff1673ffffffffffffffffffffffffffffffffffffffff166399d5121b836040518263ffffffff1660e01b8152600401610ab29190614e6c565b608060405180830381865afa158015610acf573d6000803e3d6000fd5b505050506040513d601f19601f82011682018060405250810190610af391906161c4565b9050600081602001519050610192600084815260200190815260200160002060030160009054906101000a900460ff16610b6457826040517f25f87817000000000000000000000000000000000000000000000000000000008152600401610b5b9190614e6c565b60405180910390fd5b610b7f818487604051806020016040528060008152506120e5565b600061019260008581526020019081526020016000209050610bad828260060161229690919063ffffffff16565b50505050505050565b7fb62aeb2ef35a3718e51a7e8b0b0d8e6fa690a4037bf45dad308976da469a861c81565b600061012d6000838152602001908152602001600020600101549050919050565b6000610c0f610c086120dd565b84846122c6565b60006101926000858152602001908152602001600020905082816002016000828254610c3b9190616220565b9250508190555082816008016000610c516120dd565b73ffffffffffffffffffffffffffffffffffffffff1673ffffffffffffffffffffffffffffffffffffffff1681526020019081526020016000206000828254610c9a9190616220565b92505081905550838573ffffffffffffffffffffffffffffffffffffffff16610cc16120dd565b73ffffffffffffffffffffffffffffffffffffffff167fff097c7d8b1957a4ff09ef1361b5fb54dcede3941ba836d0beb9d10bec725de686604051610d069190614e6c565b60405180910390a461019560009054906101000a900473ffffffffffffffffffffffffffffffffffffffff1673ffffffffffffffffffffffffffffffffffffffff1663a9059cbb86856040518363ffffffff1660e01b8152600401610d6c929190616276565b6020604051808303816000875af1158015610d8b573d6000803e3d6000fd5b505050506040513d601f19601f82011682018060405250810190610daf91906162b4565b5060019150509392505050565b606060008383905067ffffffffffffffff811115610ddd57610ddc615568565b5b604051908082528060200260200182016040528015610e1657816020015b610e03614cdb565b815260200190600190039081610dfb5790505b50905060005b84849050811015610e7a57610e49858583818110610e3d57610e3c6162e1565b5b90506020020135610e85565b828281518110610e5c57610e5b6162e1565b5b60200260200101819052508080610e7290616310565b915050610e1c565b508091505092915050565b610e8d614cdb565b6000610192600084815260200190815260200160002090506000610eb38260060161250e565b905060008167ffffffffffffffff811115610ed157610ed0615568565b5b604051908082528060200260200182016040528015610eff5781602001602082028036833780820191505090505b50905060008267ffffffffffffffff811115610f1e57610f1d615568565b5b604051908082528060200260200182016040528015610f4c5781602001602082028036833780820191505090505b50905060005b610f5e8560060161250e565b811015610ffb57610f7b818660060161252390919063ffffffff16565b838281518110610f8e57610f8d6162e1565b5b602002602001019073ffffffffffffffffffffffffffffffffffffffff16908173ffffffffffffffffffffffffffffffffffffffff168152505086828281518110610fdc57610fdb6162e1565b5b6020026020010181815250508080610ff390616310565b915050610f52565b50604051806101200160405280878152602001856000015481526020018560010154815260200161102b88611c75565b815260200161103988611473565b815260200185600201548152602001856004015481526020018381526020018560030160009054906101000a900460ff161515815250945050505050919050565b611087858585858561253d565b60005b835181101561115657600061019260008684815181106110ad576110ac6162e1565b5b60200260200101518152602001908152602001600020905060008483815181106110da576110d96162e1565b5b6020026020010151146110ff576110fd868260060161229690919063ffffffff16565b505b600061112588878581518110611118576111176162e1565b5b60200260200101516107cb565b036111425761114087826006016125de90919063ffffffff16565b505b50808061114e90616310565b91505061108a565b505050505050565b61116782610bda565b6111708161260e565b61117a8383612622565b505050565b6111876120dd565b73ffffffffffffffffffffffffffffffffffffffff168173ffffffffffffffffffffffffffffffffffffffff16146111f4576040517f08c379a00000000000000000000000000000000000000000000000000000000081526004016111eb906163ca565b60405180910390fd5b6111fe8282612657565b5050565b7f65d7a28e3265b37a6474929f336521b332c1681b933f6cb9f3376673440d862a61122c8161260e565b61123461268c565b50565b6060815183511461127d576040517f08c379a00000000000000000000000000000000000000000000000000000000081526004016112749061645c565b60405180910390fd5b6000835167ffffffffffffffff81111561129a57611299615568565b5b6040519080825280602002602001820160405280156112c85781602001602082028036833780820191505090505b50905060005b8451811015611345576113158582815181106112ed576112ec6162e1565b5b6020026020010151858381518110611308576113076162e1565b5b60200260200101516107cb565b828281518110611328576113276162e1565b5b6020026020010181815250508061133e90616310565b90506112ce565b508091505092915050565b60008061135c83611c75565b119050919050565b6000609760009054906101000a900460ff16905090565b6000806101926000858152602001908152602001600020905060006113a48260020154866126ef565b905060006113b285876107cb565b90506000808314806113c45750600082145b156113d25760009050611466565b60008460080160008873ffffffffffffffffffffffffffffffffffffffff1673ffffffffffffffffffffffffffffffffffffffff168152602001908152602001600020549050600061142389611473565b905081858760020154836114379190616220565b86856114439190616220565b61144d919061647c565b6114579190616505565b6114619190616536565b925050505b8094505050505092915050565b600080610192600084815260200190815260200160002090508060030160009054906101000a900460ff166114df57826040517f25f878170000000000000000000000000000000000000000000000000000000081526004016114d69190614e6c565b60405180910390fd5b80600201546114f284836005015461270d565b6114fc9190616536565b915050919050565b60606000611513610193612729565b67ffffffffffffffff81111561152c5761152b615568565b5b60405190808252806020026020018201604052801561155a5781602001602082028036833780820191505090505b50905060005b81518110156115b05761157e8161019361273e90919063ffffffff16565b828281518110611591576115906162e1565b5b60200260200101818152505080806115a890616310565b915050611560565b508091505090565b6115c0614d29565b6000610192600084815260200190815260200160002090506040518060c001604052808573ffffffffffffffffffffffffffffffffffffffff16815260200184815260200161160f86866107cb565b815260200161161e858761137b565b81526020018260080160008773ffffffffffffffffffffffffffffffffffffffff1673ffffffffffffffffffffffffffffffffffffffff1681526020019081526020016000205481526020018260090160008773ffffffffffffffffffffffffffffffffffffffff1673ffffffffffffffffffffffffffffffffffffffff1681526020019081526020016000205481525091505092915050565b60606000825167ffffffffffffffff8111156116d7576116d6615568565b5b60405190808252806020026020018201604052801561171057816020015b6116fd614d29565b8152602001906001900390816116f55790505b50905060005b83518110156117b9576101926000858381518110611737576117366162e1565b5b6020026020010151815260200190815260200160002060030160009054906101000a900460ff16156117a6576117878585838151811061177a576117796162e1565b5b60200260200101516115b8565b82828151811061179a576117996162e1565b5b60200260200101819052505b80806117b190616310565b915050611716565b508091505092915050565b600080610192600084815260200190815260200160002090508060030160009054906101000a900460ff1661183057826040517f25f878170000000000000000000000000000000000000000000000000000000081526004016118279190614e6c565b60405180910390fd5b61183e83826005015461270d565b61184c8260020154856126ef565b6118569190616536565b915050919050565b60008060019054906101000a900460ff1615905080801561188f5750600160008054906101000a900460ff1660ff16105b806118bc575061189e30612758565b1580156118bb5750600160008054906101000a900460ff1660ff16145b5b6118fb576040517f08c379a00000000000000000000000000000000000000000000000000000000081526004016118f2906165dc565b60405180910390fd5b60016000806101000a81548160ff021916908360ff1602179055508015611938576001600060016101000a81548160ff0219169083151502179055505b6119596040518060600160405280603281526020016178256032913961277b565b6119616127d6565b611969612827565b611971612878565b6119796128c9565b61198161291a565b611989612986565b61199d6000801b6119986120dd565b6129d7565b6119ce7f65d7a28e3265b37a6474929f336521b332c1681b933f6cb9f3376673440d862a6119c96120dd565b6129d7565b6119ff7fb62aeb2ef35a3718e51a7e8b0b0d8e6fa690a4037bf45dad308976da469a861c6119fa6120dd565b6129d7565b611a307f813b9efdf6afe6b57682eb1fb850711edc34da21ae7f7376cb7a391b1be3239f611a2b6120dd565b6129d7565b611a41600160006312cf3570611c92565b8015611a9a5760008060016101000a81548160ff0219169083151502179055507f7f26b83ff96e1f2b6a682f133852f6798a09c465da95921460cefb38474024986001604051611a91919061664e565b60405180910390a15b50565b7f65d7a28e3265b37a6474929f336521b332c1681b933f6cb9f3376673440d862a611ac78161260e565b611acf6129e5565b50565b6000611afa8261015f600086815260200190815260200160002061252390919063ffffffff16565b905092915050565b600061012d600084815260200190815260200160002060000160008373ffffffffffffffffffffffffffffffffffffffff1673ffffffffffffffffffffffffffffffffffffffff16815260200190815260200160002060009054906101000a900460ff16905092915050565b6000801b611b7b8161260e565b8261019560006101000a81548173ffffffffffffffffffffffffffffffffffffffff021916908373ffffffffffffffffffffffffffffffffffffffff1602179055508161019660006101000a81548173ffffffffffffffffffffffffffffffffffffffff021916908373ffffffffffffffffffffffffffffffffffffffff160217905550505050565b60006101916000848152602001908152602001600020600083815260200190815260200160002054905092915050565b6000801b81565b611c4d611c466120dd565b8383612a48565b5050565b7f813b9efdf6afe6b57682eb1fb850711edc34da21ae7f7376cb7a391b1be3239f81565b600060fb6000838152602001908152602001600020549050919050565b611c9a612bb4565b6000801b611ca78161260e565b60008203611ce1576040517f98eb412400000000000000000000000000000000000000000000000000000000815260040160405180910390fd5b81610191600086815260200190815260200160002060008581526020019081526020016000208190555050505050565b6000611d2f61015f600084815260200190815260200160002061250e565b9050919050565b7f9f2df0fed2c77648de5860a4cc508cd0818c85b8b8a1ab4ceeef8d981c8956a681565b611d6382610bda565b611d6c8161260e565b611d768383612657565b505050565b611d83612bb4565b7f813b9efdf6afe6b57682eb1fb850711edc34da21ae7f7376cb7a391b1be3239f611dad8161260e565b848490508787905014611df5576040517f616c4113000000000000000000000000000000000000000000000000000000008152600401611dec90616701565b60405180910390fd5b828290508787905014611e3d576040517f616c4113000000000000000000000000000000000000000000000000000000008152600401611e3490616780565b60405180910390fd5b60005b87879050811015611ec257611eaf888883818110611e6157611e606162e1565b5b9050602002016020810190611e7691906167b3565b878784818110611e8957611e886162e1565b5b90506020020135868685818110611ea357611ea26162e1565b5b90506020020135612bfe565b8080611eba90616310565b915050611e40565b5050505050505050565b7f65d7a28e3265b37a6474929f336521b332c1681b933f6cb9f3376673440d862a81565b6000606660008473ffffffffffffffffffffffffffffffffffffffff1673ffffffffffffffffffffffffffffffffffffffff16815260200190815260200160002060008373ffffffffffffffffffffffffffffffffffffffff1673ffffffffffffffffffffffffffffffffffffffff16815260200190815260200160002060009054906101000a900460ff16905092915050565b611f918585858585613131565b60006101926000858152602001908152602001600020905060008314611fc957611fc7858260060161229690919063ffffffff16565b505b6000611fd587866107cb565b03611ff257611ff086826006016125de90919063ffffffff16565b505b505050505050565b612002612bb4565b7fb62aeb2ef35a3718e51a7e8b0b0d8e6fa690a4037bf45dad308976da469a861c61202c8161260e565b610192600083815260200190815260200160002060030160009054906101000a900460ff1661205f5761205e826131d2565b5b5050565b60007f5a05180f000000000000000000000000000000000000000000000000000000007bffffffffffffffffffffffffffffffffffffffffffffffffffffffff1916827bffffffffffffffffffffffffffffffffffffffffffffffffffffffff191614806120d657506120d582613479565b5b9050919050565b600033905090565b600073ffffffffffffffffffffffffffffffffffffffff168473ffffffffffffffffffffffffffffffffffffffff1603612154576040517f08c379a000000000000000000000000000000000000000000000000000000000815260040161214b90616852565b60405180910390fd5b600061215e6120dd565b9050600061216b856134f3565b90506000612178856134f3565b90506121898360008985858961356d565b846065600088815260200190815260200160002060008973ffffffffffffffffffffffffffffffffffffffff1673ffffffffffffffffffffffffffffffffffffffff16815260200190815260200160002060008282546121e99190616220565b925050819055508673ffffffffffffffffffffffffffffffffffffffff16600073ffffffffffffffffffffffffffffffffffffffff168473ffffffffffffffffffffffffffffffffffffffff167fc3d58168c5ae7397731d063d5bbf3d657854427343f4c083240f7aacaa2d0f628989604051612267929190616872565b60405180910390a461227e836000898585896136ee565b61228d836000898989896136f6565b50505050505050565b60006122be836000018373ffffffffffffffffffffffffffffffffffffffff1660001b6138cd565b905092915050565b600073ffffffffffffffffffffffffffffffffffffffff168373ffffffffffffffffffffffffffffffffffffffff1603612335576040517f08c379a000000000000000000000000000000000000000000000000000000000815260040161232c9061690d565b60405180910390fd5b600061233f6120dd565b9050600061234c846134f3565b90506000612359846134f3565b90506123798387600085856040518060200160405280600081525061356d565b60006065600087815260200190815260200160002060008873ffffffffffffffffffffffffffffffffffffffff1673ffffffffffffffffffffffffffffffffffffffff16815260200190815260200160002054905084811015612411576040517f08c379a00000000000000000000000000000000000000000000000000000000081526004016124089061699f565b60405180910390fd5b8481036065600088815260200190815260200160002060008973ffffffffffffffffffffffffffffffffffffffff1673ffffffffffffffffffffffffffffffffffffffff16815260200190815260200160002081905550600073ffffffffffffffffffffffffffffffffffffffff168773ffffffffffffffffffffffffffffffffffffffff168573ffffffffffffffffffffffffffffffffffffffff167fc3d58168c5ae7397731d063d5bbf3d657854427343f4c083240f7aacaa2d0f6289896040516124df929190616872565b60405180910390a4612505848860008686604051806020016040528060008152506136ee565b50505050505050565b600061251c8260000161393d565b9050919050565b6000612532836000018361394e565b60001c905092915050565b6125456120dd565b73ffffffffffffffffffffffffffffffffffffffff168573ffffffffffffffffffffffffffffffffffffffff16148061258b575061258a856125856120dd565b611ef0565b5b6125ca576040517f08c379a00000000000000000000000000000000000000000000000000000000081526004016125c190616a31565b60405180910390fd5b6125d78585858585613979565b5050505050565b6000612606836000018373ffffffffffffffffffffffffffffffffffffffff1660001b613c9d565b905092915050565b61261f8161261a6120dd565b613db1565b50565b61262c8282613e4e565b6126528161015f600085815260200190815260200160002061229690919063ffffffff16565b505050565b6126618282613f30565b6126878161015f60008581526020019081526020016000206125de90919063ffffffff16565b505050565b612694614013565b6000609760006101000a81548160ff0219169083151502179055507f5db9ee0a495bf2e6ff9c91a7834c1ba4fdd244a5e8aa4e537bd38aeae4b073aa6126d86120dd565b6040516126e59190615d43565b60405180910390a1565b60006126fa82611c75565b836127059190616220565b905092915050565b600061272161271b8461405c565b836140fe565b905092915050565b60006127378260000161393d565b9050919050565b600061274d836000018361394e565b60001c905092915050565b6000808273ffffffffffffffffffffffffffffffffffffffff163b119050919050565b600060019054906101000a900460ff166127ca576040517f08c379a00000000000000000000000000000000000000000000000000000000081526004016127c190616ac3565b60405180910390fd5b6127d381614118565b50565b600060019054906101000a900460ff16612825576040517f08c379a000000000000000000000000000000000000000000000000000000000815260040161281c90616ac3565b60405180910390fd5b565b600060019054906101000a900460ff16612876576040517f08c379a000000000000000000000000000000000000000000000000000000000815260040161286d90616ac3565b60405180910390fd5b565b600060019054906101000a900460ff166128c7576040517f08c379a00000000000000000000000000000000000000000000000000000000081526004016128be90616ac3565b60405180910390fd5b565b600060019054906101000a900460ff16612918576040517f08c379a000000000000000000000000000000000000000000000000000000000815260040161290f90616ac3565b60405180910390fd5b565b600060019054906101000a900460ff16612969576040517f08c379a000000000000000000000000000000000000000000000000000000000815260040161296090616ac3565b60405180910390fd5b6000609760006101000a81548160ff021916908315150217905550565b600060019054906101000a900460ff166129d5576040517f08c379a00000000000000000000000000000000000000000000000000000000081526004016129cc90616ac3565b60405180910390fd5b565b6129e18282612622565b5050565b6129ed612bb4565b6001609760006101000a81548160ff0219169083151502179055507f62e78cea01bee320cd4e420270b5ea74000d11b0c9f74754ebdbfc544b05a258612a316120dd565b604051612a3e9190615d43565b60405180910390a1565b8173ffffffffffffffffffffffffffffffffffffffff168373ffffffffffffffffffffffffffffffffffffffff1603612ab6576040517f08c379a0000000000000000000000000000000000000000000000000000000008152600401612aad90616b55565b60405180910390fd5b80606660008573ffffffffffffffffffffffffffffffffffffffff1673ffffffffffffffffffffffffffffffffffffffff16815260200190815260200160002060008473ffffffffffffffffffffffffffffffffffffffff1673ffffffffffffffffffffffffffffffffffffffff16815260200190815260200160002060006101000a81548160ff0219169083151502179055508173ffffffffffffffffffffffffffffffffffffffff168373ffffffffffffffffffffffffffffffffffffffff167f17307eab39ab6107e8899845ad3d59bd9653f200f220920489ca2b5937696c3183604051612ba79190614f27565b60405180910390a3505050565b612bbc611364565b15612bfc576040517f08c379a0000000000000000000000000000000000000000000000000000000008152600401612bf390616bc1565b60405180910390fd5b565b600061019660009054906101000a900473ffffffffffffffffffffffffffffffffffffffff1673ffffffffffffffffffffffffffffffffffffffff1663e0fc2938846040518263ffffffff1660e01b8152600401612c5c9190614e6c565b602060405180830381865afa158015612c79573d6000803e3d6000fd5b505050506040513d601f19601f82011682018060405250810190612c9d9190616105565b90506000610192600083815260200190815260200160002090508060030160009054906101000a900460ff16612d0a57816040517f25f87817000000000000000000000000000000000000000000000000000000008152600401612d019190614e6c565b60405180910390fd5b6000612d15836117c4565b905080841115612d5c57826040517f610d2838000000000000000000000000000000000000000000000000000000008152600401612d539190614e6c565b60405180910390fd5b6000808511612d6b5781612d6d565b845b90506000612d7d8460060161412b565b90506000815167ffffffffffffffff811115612d9c57612d9b615568565b5b604051908082528060200260200182016040528015612dca5781602001602082028036833780820191505090505b50905060005b8251811015612e0c5786828281518110612ded57612dec6162e1565b5b6020026020010181815250508080612e0490616310565b915050612dd0565b506000825167ffffffffffffffff811115612e2a57612e29615568565b5b604051908082528060200260200182016040528015612e585781602001602082028036833780820191505090505b5090506000612e678484611237565b90506000805b60018651612e7b9190616536565b811015612f08576000612ec4888c898581518110612e9c57612e9b6162e1565b5b6020026020010151878681518110612eb757612eb66162e1565b5b602002602001015161414c565b905080858381518110612eda57612ed96162e1565b5b6020026020010181815250508083612ef29190616220565b9250508080612f0090616310565b915050612e6d565b508086612f159190616536565b8360018751612f249190616536565b81518110612f3557612f346162e1565b5b60200260200101818152505060005b855181101561302b57612f8c868281518110612f6357612f626162e1565b5b60200260200101518b868481518110612f7f57612f7e6162e1565b5b60200260200101516122c6565b838181518110612f9f57612f9e6162e1565b5b6020026020010151896009016000888481518110612fc057612fbf6162e1565b5b602002602001015173ffffffffffffffffffffffffffffffffffffffff1673ffffffffffffffffffffffffffffffffffffffff16815260200190815260200160002060008282546130119190616220565b92505081905550808061302390616310565b915050612f44565b50858860040160008282546130409190616220565b92505081905550888b427f4b9948901911c14ff8b417db5004be639f92f11be671b8b85219c5ff809b71ba896040516130799190614e6c565b60405180910390a461019560009054906101000a900473ffffffffffffffffffffffffffffffffffffffff1673ffffffffffffffffffffffffffffffffffffffff1663a9059cbb8d886040518363ffffffff1660e01b81526004016130df929190616276565b6020604051808303816000875af11580156130fe573d6000803e3d6000fd5b505050506040513d601f19601f8201168201806040525081019061312291906162b4565b50505050505050505050505050565b6131396120dd565b73ffffffffffffffffffffffffffffffffffffffff168573ffffffffffffffffffffffffffffffffffffffff16148061317f575061317e856131796120dd565b611ef0565b5b6131be576040517f08c379a00000000000000000000000000000000000000000000000000000000081526004016131b590616a31565b60405180910390fd5b6131cb858585858561420f565b5050505050565b600061019660009054906101000a900473ffffffffffffffffffffffffffffffffffffffff1673ffffffffffffffffffffffffffffffffffffffff166399d5121b836040518263ffffffff1660e01b81526004016132309190614e6c565b608060405180830381865afa15801561324d573d6000803e3d6000fd5b505050506040513d601f19601f8201168201806040525081019061327191906161c4565b905060008160000151036132ba576040517f08c379a00000000000000000000000000000000000000000000000000000000081526004016132b190616c2d565b60405180910390fd5b600081602001519050600073ffffffffffffffffffffffffffffffffffffffff168173ffffffffffffffffffffffffffffffffffffffff1603613329576040517fd870705200000000000000000000000000000000000000000000000000000000815260040160405180910390fd5b61333e836101936144ad90919063ffffffff16565b61337d576040517f08c379a000000000000000000000000000000000000000000000000000000000815260040161337490616c99565b60405180910390fd5b60006101926000858152602001908152602001600020905060006133a984604001518560600151611c04565b9050600081036133ee576040517f08c379a00000000000000000000000000000000000000000000000000000000081526004016133e590616d05565b60405180910390fd5b60018260030160006101000a81548160ff021916908315150217905550836000015182600001819055508084600001516134289190616220565b8260010181905550847fc6bf85d136b95579125a47c9781847cacd55015777db8a853dd17946aed35fb28360000154846001015460405161346a929190616872565b60405180910390a25050505050565b60007f7965db0b000000000000000000000000000000000000000000000000000000007bffffffffffffffffffffffffffffffffffffffffffffffffffffffff1916827bffffffffffffffffffffffffffffffffffffffffffffffffffffffff191614806134ec57506134eb826144c7565b5b9050919050565b60606000600167ffffffffffffffff81111561351257613511615568565b5b6040519080825280602002602001820160405280156135405781602001602082028036833780820191505090505b5090508281600081518110613558576135576162e1565b5b60200260200101818152505080915050919050565b60008073ffffffffffffffffffffffffffffffffffffffff168573ffffffffffffffffffffffffffffffffffffffff1614905060008180156135da57508773ffffffffffffffffffffffffffffffffffffffff168773ffffffffffffffffffffffffffffffffffffffff16145b905081156136d65760005b85518110156136d4576000868281518110613603576136026162e1565b5b60200260200101519050821561367e5761361d818a61137b565b8683815181106136305761362f6162e1565b5b6020026020010151111561367d5788816040517fe1b8b25f000000000000000000000000000000000000000000000000000000008152600401613674929190616276565b60405180910390fd5b5b6000610192600083815260200190815260200160002090506136b78261019260008581526020019081526020016000206005015461270d565b8160050181905550505080806136cc90616310565b9150506135e5565b505b6136e48888888888886145a9565b5050505050505050565b505050505050565b6137158473ffffffffffffffffffffffffffffffffffffffff16612758565b156138c5578373ffffffffffffffffffffffffffffffffffffffff1663f23a6e6187878686866040518663ffffffff1660e01b815260040161375b959493929190616d7a565b6020604051808303816000875af192505050801561379757506040513d601f19601f820116820180604052508101906137949190616de9565b60015b61383c576137a3616e23565b806308c379a0036137ff57506137b7616e45565b806137c25750613801565b806040517f08c379a00000000000000000000000000000000000000000000000000000000081526004016137f69190615008565b60405180910390fd5b505b6040517f08c379a000000000000000000000000000000000000000000000000000000000815260040161383390616f47565b60405180910390fd5b63f23a6e6160e01b7bffffffffffffffffffffffffffffffffffffffffffffffffffffffff1916817bffffffffffffffffffffffffffffffffffffffffffffffffffffffff1916146138c3576040517f08c379a00000000000000000000000000000000000000000000000000000000081526004016138ba90616fd9565b60405180910390fd5b505b505050505050565b60006138d98383614779565b613932578260000182908060018154018082558091505060019003906000526020600020016000909190919091505582600001805490508360010160008481526020019081526020016000208190555060019050613937565b600090505b92915050565b600081600001805490509050919050565b6000826000018281548110613966576139656162e1565b5b9060005260206000200154905092915050565b81518351146139bd576040517f08c379a00000000000000000000000000000000000000000000000000000000081526004016139b49061706b565b60405180910390fd5b600073ffffffffffffffffffffffffffffffffffffffff168473ffffffffffffffffffffffffffffffffffffffff1603613a2c576040517f08c379a0000000000000000000000000000000000000000000000000000000008152600401613a23906170fd565b60405180910390fd5b6000613a366120dd565b9050613a4681878787878761356d565b60005b8451811015613bfa576000858281518110613a6757613a666162e1565b5b602002602001015190506000858381518110613a8657613a856162e1565b5b6020026020010151905060006065600084815260200190815260200160002060008b73ffffffffffffffffffffffffffffffffffffffff1673ffffffffffffffffffffffffffffffffffffffff16815260200190815260200160002054905081811015613b28576040517f08c379a0000000000000000000000000000000000000000000000000000000008152600401613b1f9061718f565b60405180910390fd5b8181036065600085815260200190815260200160002060008c73ffffffffffffffffffffffffffffffffffffffff1673ffffffffffffffffffffffffffffffffffffffff16815260200190815260200160002081905550816065600085815260200190815260200160002060008b73ffffffffffffffffffffffffffffffffffffffff1673ffffffffffffffffffffffffffffffffffffffff1681526020019081526020016000206000828254613bdf9190616220565b9250508190555050505080613bf390616310565b9050613a49565b508473ffffffffffffffffffffffffffffffffffffffff168673ffffffffffffffffffffffffffffffffffffffff168273ffffffffffffffffffffffffffffffffffffffff167f4a39dc06d4c0dbc64b70af90fd698a233a518aa5d07e595d983b8c0526c8f7fb8787604051613c719291906171af565b60405180910390a4613c878187878787876136ee565b613c9581878787878761479c565b505050505050565b60008083600101600084815260200190815260200160002054905060008114613da5576000600182613ccf9190616536565b9050600060018660000180549050613ce79190616536565b9050818114613d56576000866000018281548110613d0857613d076162e1565b5b9060005260206000200154905080876000018481548110613d2c57613d2b6162e1565b5b90600052602060002001819055508387600101600083815260200190815260200160002081905550505b85600001805480613d6a57613d696171e6565b5b600190038181906000526020600020016000905590558560010160008681526020019081526020016000206000905560019350505050613dab565b60009150505b92915050565b613dbb8282611b02565b613e4a57613de08173ffffffffffffffffffffffffffffffffffffffff166014614973565b613dee8360001c6020614973565b604051602001613dff9291906172e9565b6040516020818303038152906040526040517f08c379a0000000000000000000000000000000000000000000000000000000008152600401613e419190615008565b60405180910390fd5b5050565b613e588282611b02565b613f2c57600161012d600084815260200190815260200160002060000160008373ffffffffffffffffffffffffffffffffffffffff1673ffffffffffffffffffffffffffffffffffffffff16815260200190815260200160002060006101000a81548160ff021916908315150217905550613ed16120dd565b73ffffffffffffffffffffffffffffffffffffffff168173ffffffffffffffffffffffffffffffffffffffff16837f2f8788117e7eff1d82e926ec794901d17c78024a50270940304540a733656f0d60405160405180910390a45b5050565b613f3a8282611b02565b1561400f57600061012d600084815260200190815260200160002060000160008373ffffffffffffffffffffffffffffffffffffffff1673ffffffffffffffffffffffffffffffffffffffff16815260200190815260200160002060006101000a81548160ff021916908315150217905550613fb46120dd565b73ffffffffffffffffffffffffffffffffffffffff168173ffffffffffffffffffffffffffffffffffffffff16837ff6391f5c32d9c69d2a47ea670b442974b53935d1edc7fd64eb21e047a839171b60405160405180910390a45b5050565b61401b611364565b61405a576040517f08c379a00000000000000000000000000000000000000000000000000000000081526004016140519061736f565b60405180910390fd5b565b600080610192600084815260200190815260200160002090506000816001015442106140925761408b84611c75565b90506140f4565b6000826000015483600101546140a89190616536565b9050826000015442106140ed57808360000154426140c69190616536565b6140d48560020154886126ef565b6140de919061647c565b6140e89190616505565b6140f0565b60005b9150505b8092505050919050565b60008183101561410e5781614110565b825b905092915050565b80606790816141279190617531565b5050565b6060600061413b83600001614baf565b905060608190508092505050919050565b6000806101926000868152602001908152602001600020905060006141758260020154876126ef565b90506000808214806141875750600088145b156141955760009050614201565b60008360080160008873ffffffffffffffffffffffffffffffffffffffff1673ffffffffffffffffffffffffffffffffffffffff168152602001908152602001600020549050828987836141e99190616220565b6141f3919061647c565b6141fd9190616505565b9150505b809350505050949350505050565b600073ffffffffffffffffffffffffffffffffffffffff168473ffffffffffffffffffffffffffffffffffffffff160361427e576040517f08c379a0000000000000000000000000000000000000000000000000000000008152600401614275906170fd565b60405180910390fd5b60006142886120dd565b90506000614295856134f3565b905060006142a2856134f3565b90506142b283898985858961356d565b60006065600088815260200190815260200160002060008a73ffffffffffffffffffffffffffffffffffffffff1673ffffffffffffffffffffffffffffffffffffffff1681526020019081526020016000205490508581101561434a576040517f08c379a00000000000000000000000000000000000000000000000000000000081526004016143419061718f565b60405180910390fd5b8581036065600089815260200190815260200160002060008b73ffffffffffffffffffffffffffffffffffffffff1673ffffffffffffffffffffffffffffffffffffffff16815260200190815260200160002081905550856065600089815260200190815260200160002060008a73ffffffffffffffffffffffffffffffffffffffff1673ffffffffffffffffffffffffffffffffffffffff16815260200190815260200160002060008282546144019190616220565b925050819055508773ffffffffffffffffffffffffffffffffffffffff168973ffffffffffffffffffffffffffffffffffffffff168573ffffffffffffffffffffffffffffffffffffffff167fc3d58168c5ae7397731d063d5bbf3d657854427343f4c083240f7aacaa2d0f628a8a60405161447e929190616872565b60405180910390a4614494848a8a86868a6136ee565b6144a2848a8a8a8a8a6136f6565b505050505050505050565b60006144bf836000018360001b6138cd565b905092915050565b60007fd9b67a26000000000000000000000000000000000000000000000000000000007bffffffffffffffffffffffffffffffffffffffffffffffffffffffff1916827bffffffffffffffffffffffffffffffffffffffffffffffffffffffff1916148061459257507f0e89341c000000000000000000000000000000000000000000000000000000007bffffffffffffffffffffffffffffffffffffffffffffffffffffffff1916827bffffffffffffffffffffffffffffffffffffffffffffffffffffffff1916145b806145a257506145a182614c0b565b5b9050919050565b6145b7868686868686614c75565b600073ffffffffffffffffffffffffffffffffffffffff168573ffffffffffffffffffffffffffffffffffffffff16036146685760005b83518110156146665782818151811061460a576146096162e1565b5b602002602001015160fb6000868481518110614629576146286162e1565b5b60200260200101518152602001908152602001600020600082825461464e9190616220565b925050819055508061465f90616310565b90506145ee565b505b600073ffffffffffffffffffffffffffffffffffffffff168473ffffffffffffffffffffffffffffffffffffffff16036147715760005b835181101561476f5760008482815181106146bd576146bc6162e1565b5b6020026020010151905060008483815181106146dc576146db6162e1565b5b60200260200101519050600060fb600084815260200190815260200160002054905081811015614741576040517f08c379a000000000000000000000000000000000000000000000000000000000815260040161473890617675565b60405180910390fd5b81810360fb6000858152602001908152602001600020819055505050508061476890616310565b905061469f565b505b505050505050565b600080836001016000848152602001908152602001600020541415905092915050565b6147bb8473ffffffffffffffffffffffffffffffffffffffff16612758565b1561496b578373ffffffffffffffffffffffffffffffffffffffff1663bc197c8187878686866040518663ffffffff1660e01b8152600401614801959493929190617695565b6020604051808303816000875af192505050801561483d57506040513d601f19601f8201168201806040525081019061483a9190616de9565b60015b6148e257614849616e23565b806308c379a0036148a5575061485d616e45565b8061486857506148a7565b806040517f08c379a000000000000000000000000000000000000000000000000000000000815260040161489c9190615008565b60405180910390fd5b505b6040517f08c379a00000000000000000000000000000000000000000000000000000000081526004016148d990616f47565b60405180910390fd5b63bc197c8160e01b7bffffffffffffffffffffffffffffffffffffffffffffffffffffffff1916817bffffffffffffffffffffffffffffffffffffffffffffffffffffffff191614614969576040517f08c379a000000000000000000000000000000000000000000000000000000000815260040161496090616fd9565b60405180910390fd5b505b505050505050565b606060006002836002614986919061647c565b6149909190616220565b67ffffffffffffffff8111156149a9576149a8615568565b5b6040519080825280601f01601f1916602001820160405280156149db5781602001600182028036833780820191505090505b5090507f300000000000000000000000000000000000000000000000000000000000000081600081518110614a1357614a126162e1565b5b60200101907effffffffffffffffffffffffffffffffffffffffffffffffffffffffffffff1916908160001a9053507f780000000000000000000000000000000000000000000000000000000000000081600181518110614a7757614a766162e1565b5b60200101907effffffffffffffffffffffffffffffffffffffffffffffffffffffffffffff1916908160001a90535060006001846002614ab7919061647c565b614ac19190616220565b90505b6001811115614b61577f3031323334353637383961626364656600000000000000000000000000000000600f861660108110614b0357614b026162e1565b5b1a60f81b828281518110614b1a57614b196162e1565b5b60200101907effffffffffffffffffffffffffffffffffffffffffffffffffffffffffffff1916908160001a905350600485901c945080614b5a906176fd565b9050614ac4565b5060008414614ba5576040517f08c379a0000000000000000000000000000000000000000000000000000000008152600401614b9c90617772565b60405180910390fd5b8091505092915050565b606081600001805480602002602001604051908101604052809291908181526020018280548015614bff57602002820191906000526020600020905b815481526020019060010190808311614beb575b50505050509050919050565b60007f01ffc9a7000000000000000000000000000000000000000000000000000000007bffffffffffffffffffffffffffffffffffffffffffffffffffffffff1916827bffffffffffffffffffffffffffffffffffffffffffffffffffffffff1916149050919050565b614c83868686868686614cd3565b614c8b611364565b15614ccb576040517f08c379a0000000000000000000000000000000000000000000000000000000008152600401614cc290617804565b60405180910390fd5b505050505050565b505050505050565b60405180610120016040528060008152602001600081526020016000815260200160008152602001600081526020016000815260200160008152602001606081526020016000151581525090565b6040518060c00160405280600073ffffffffffffffffffffffffffffffffffffffff16815260200160008152602001600081526020016000815260200160008152602001600081525090565b6000604051905090565b600080fd5b600080fd5b600073ffffffffffffffffffffffffffffffffffffffff82169050919050565b6000614db482614d89565b9050919050565b614dc481614da9565b8114614dcf57600080fd5b50565b600081359050614de181614dbb565b92915050565b6000819050919050565b614dfa81614de7565b8114614e0557600080fd5b50565b600081359050614e1781614df1565b92915050565b60008060408385031215614e3457614e33614d7f565b5b6000614e4285828601614dd2565b9250506020614e5385828601614e08565b9150509250929050565b614e6681614de7565b82525050565b6000602082019050614e816000830184614e5d565b92915050565b60007fffffffff0000000000000000000000000000000000000000000000000000000082169050919050565b614ebc81614e87565b8114614ec757600080fd5b50565b600081359050614ed981614eb3565b92915050565b600060208284031215614ef557614ef4614d7f565b5b6000614f0384828501614eca565b91505092915050565b60008115159050919050565b614f2181614f0c565b82525050565b6000602082019050614f3c6000830184614f18565b92915050565b600060208284031215614f5857614f57614d7f565b5b6000614f6684828501614e08565b91505092915050565b600081519050919050565b600082825260208201905092915050565b60005b83811015614fa9578082015181840152602081019050614f8e565b83811115614fb8576000848401525b50505050565b6000601f19601f8301169050919050565b6000614fda82614f6f565b614fe48185614f7a565b9350614ff4818560208601614f8b565b614ffd81614fbe565b840191505092915050565b600060208201905081810360008301526150228184614fcf565b905092915050565b6000806040838503121561504157615040614d7f565b5b600061504f85828601614e08565b925050602061506085828601614e08565b9150509250929050565b6000819050919050565b61507d8161506a565b82525050565b60006020820190506150986000830184615074565b92915050565b6150a78161506a565b81146150b257600080fd5b50565b6000813590506150c48161509e565b92915050565b6000602082840312156150e0576150df614d7f565b5b60006150ee848285016150b5565b91505092915050565b6000806000606084860312156151105761510f614d7f565b5b600061511e86828701614dd2565b935050602061512f86828701614e08565b925050604061514086828701614e08565b9150509250925092565b600080fd5b600080fd5b600080fd5b60008083601f84011261516f5761516e61514a565b5b8235905067ffffffffffffffff81111561518c5761518b61514f565b5b6020830191508360208202830111156151a8576151a7615154565b5b9250929050565b600080602083850312156151c6576151c5614d7f565b5b600083013567ffffffffffffffff8111156151e4576151e3614d84565b5b6151f085828601615159565b92509250509250929050565b600081519050919050565b600082825260208201905092915050565b6000819050602082019050919050565b61523181614de7565b82525050565b600081519050919050565b600082825260208201905092915050565b6000819050602082019050919050565b61526c81614da9565b82525050565b600061527e8383615263565b60208301905092915050565b6000602082019050919050565b60006152a282615237565b6152ac8185615242565b93506152b783615253565b8060005b838110156152e85781516152cf8882615272565b97506152da8361528a565b9250506001810190506152bb565b5085935050505092915050565b6152fe81614f0c565b82525050565b60006101208301600083015161531d6000860182615228565b5060208301516153306020860182615228565b5060408301516153436040860182615228565b5060608301516153566060860182615228565b5060808301516153696080860182615228565b5060a083015161537c60a0860182615228565b5060c083015161538f60c0860182615228565b5060e083015184820360e08601526153a78282615297565b9150506101008301516153be6101008601826152f5565b508091505092915050565b60006153d58383615304565b905092915050565b6000602082019050919050565b60006153f5826151fc565b6153ff8185615207565b93508360208202850161541185615218565b8060005b8581101561544d578484038952815161542e85826153c9565b9450615439836153dd565b925060208a01995050600181019050615415565b50829750879550505050505092915050565b6000602082019050818103600083015261547981846153ea565b905092915050565b60006101208301600083015161549a6000860182615228565b5060208301516154ad6020860182615228565b5060408301516154c06040860182615228565b5060608301516154d36060860182615228565b5060808301516154e66080860182615228565b5060a08301516154f960a0860182615228565b5060c083015161550c60c0860182615228565b5060e083015184820360e08601526155248282615297565b91505061010083015161553b6101008601826152f5565b508091505092915050565b600060208201905081810360008301526155608184615481565b905092915050565b7f4e487b7100000000000000000000000000000000000000000000000000000000600052604160045260246000fd5b6155a082614fbe565b810181811067ffffffffffffffff821117156155bf576155be615568565b5b80604052505050565b60006155d2614d75565b90506155de8282615597565b919050565b600067ffffffffffffffff8211156155fe576155fd615568565b5b602082029050602081019050919050565b600061562261561d846155e3565b6155c8565b9050808382526020820190506020840283018581111561564557615644615154565b5b835b8181101561566e578061565a8882614e08565b845260208401935050602081019050615647565b5050509392505050565b600082601f83011261568d5761568c61514a565b5b813561569d84826020860161560f565b91505092915050565b600080fd5b600067ffffffffffffffff8211156156c6576156c5615568565b5b6156cf82614fbe565b9050602081019050919050565b82818337600083830152505050565b60006156fe6156f9846156ab565b6155c8565b90508281526020810184848401111561571a576157196156a6565b5b6157258482856156dc565b509392505050565b600082601f8301126157425761574161514a565b5b81356157528482602086016156eb565b91505092915050565b600080600080600060a0868803121561577757615776614d7f565b5b600061578588828901614dd2565b955050602061579688828901614dd2565b945050604086013567ffffffffffffffff8111156157b7576157b6614d84565b5b6157c388828901615678565b935050606086013567ffffffffffffffff8111156157e4576157e3614d84565b5b6157f088828901615678565b925050608086013567ffffffffffffffff81111561581157615810614d84565b5b61581d8882890161572d565b9150509295509295909350565b6000806040838503121561584157615840614d7f565b5b600061584f858286016150b5565b925050602061586085828601614dd2565b9150509250929050565b600067ffffffffffffffff82111561588557615884615568565b5b602082029050602081019050919050565b60006158a96158a48461586a565b6155c8565b905080838252602082019050602084028301858111156158cc576158cb615154565b5b835b818110156158f557806158e18882614dd2565b8452602084019350506020810190506158ce565b5050509392505050565b600082601f8301126159145761591361514a565b5b8135615924848260208601615896565b91505092915050565b6000806040838503121561594457615943614d7f565b5b600083013567ffffffffffffffff81111561596257615961614d84565b5b61596e858286016158ff565b925050602083013567ffffffffffffffff81111561598f5761598e614d84565b5b61599b85828601615678565b9150509250929050565b600081519050919050565b600082825260208201905092915050565b6000819050602082019050919050565b60006159dd8383615228565b60208301905092915050565b6000602082019050919050565b6000615a01826159a5565b615a0b81856159b0565b9350615a16836159c1565b8060005b83811015615a47578151615a2e88826159d1565b9750615a39836159e9565b925050600181019050615a1a565b5085935050505092915050565b60006020820190508181036000830152615a6e81846159f6565b905092915050565b60008060408385031215615a8d57615a8c614d7f565b5b6000615a9b85828601614e08565b9250506020615aac85828601614dd2565b9150509250929050565b60c082016000820151615acc6000850182615263565b506020820151615adf6020850182615228565b506040820151615af26040850182615228565b506060820151615b056060850182615228565b506080820151615b186080850182615228565b5060a0820151615b2b60a0850182615228565b50505050565b600060c082019050615b466000830184615ab6565b92915050565b60008060408385031215615b6357615b62614d7f565b5b6000615b7185828601614dd2565b925050602083013567ffffffffffffffff811115615b9257615b91614d84565b5b615b9e85828601615678565b9150509250929050565b600081519050919050565b600082825260208201905092915050565b6000819050602082019050919050565b60c082016000820151615bea6000850182615263565b506020820151615bfd6020850182615228565b506040820151615c106040850182615228565b506060820151615c236060850182615228565b506080820151615c366080850182615228565b5060a0820151615c4960a0850182615228565b50505050565b6000615c5b8383615bd4565b60c08301905092915050565b6000602082019050919050565b6000615c7f82615ba8565b615c898185615bb3565b9350615c9483615bc4565b8060005b83811015615cc5578151615cac8882615c4f565b9750615cb783615c67565b925050600181019050615c98565b5085935050505092915050565b60006020820190508181036000830152615cec8184615c74565b905092915050565b60008060408385031215615d0b57615d0a614d7f565b5b6000615d19858286016150b5565b9250506020615d2a85828601614e08565b9150509250929050565b615d3d81614da9565b82525050565b6000602082019050615d586000830184615d34565b92915050565b60008060408385031215615d7557615d74614d7f565b5b6000615d8385828601614dd2565b9250506020615d9485828601614dd2565b9150509250929050565b615da781614f0c565b8114615db257600080fd5b50565b600081359050615dc481615d9e565b92915050565b60008060408385031215615de157615de0614d7f565b5b6000615def85828601614dd2565b9250506020615e0085828601615db5565b9150509250929050565b600080600060608486031215615e2357615e22614d7f565b5b6000615e3186828701614e08565b9350506020615e4286828701614e08565b9250506040615e5386828701614e08565b9150509250925092565b60008083601f840112615e7357615e7261514a565b5b8235905067ffffffffffffffff811115615e9057615e8f61514f565b5b602083019150836020820283011115615eac57615eab615154565b5b9250929050565b60008060008060008060608789031215615ed057615ecf614d7f565b5b600087013567ffffffffffffffff811115615eee57615eed614d84565b5b615efa89828a01615e5d565b9650965050602087013567ffffffffffffffff811115615f1d57615f1c614d84565b5b615f2989828a01615159565b9450945050604087013567ffffffffffffffff811115615f4c57615f4b614d84565b5b615f5889828a01615159565b92509250509295509295509295565b600080600080600060a08688031215615f8357615f82614d7f565b5b6000615f9188828901614dd2565b9550506020615fa288828901614dd2565b9450506040615fb388828901614e08565b9350506060615fc488828901614e08565b925050608086013567ffffffffffffffff811115615fe557615fe4614d84565b5b615ff18882890161572d565b9150509295509295909350565b7f455243313135353a2061646472657373207a65726f206973206e6f742061207660008201527f616c6964206f776e657200000000000000000000000000000000000000000000602082015250565b600061605a602a83614f7a565b915061606582615ffe565b604082019050919050565b600060208201905081810360008301526160898161604d565b9050919050565b7f4e487b7100000000000000000000000000000000000000000000000000000000600052602260045260246000fd5b600060028204905060018216806160d757607f821691505b6020821081036160ea576160e9616090565b5b50919050565b6000815190506160ff81614df1565b92915050565b60006020828403121561611b5761611a614d7f565b5b6000616129848285016160f0565b91505092915050565b600080fd5b60008151905061614681614dbb565b92915050565b60006080828403121561616257616161616132565b5b61616c60806155c8565b9050600061617c848285016160f0565b600083015250602061619084828501616137565b60208301525060406161a4848285016160f0565b60408301525060606161b8848285016160f0565b60608301525092915050565b6000608082840312156161da576161d9614d7f565b5b60006161e88482850161614c565b91505092915050565b7f4e487b7100000000000000000000000000000000000000000000000000000000600052601160045260246000fd5b600061622b82614de7565b915061623683614de7565b9250827fffffffffffffffffffffffffffffffffffffffffffffffffffffffffffffffff0382111561626b5761626a6161f1565b5b828201905092915050565b600060408201905061628b6000830185615d34565b6162986020830184614e5d565b9392505050565b6000815190506162ae81615d9e565b92915050565b6000602082840312156162ca576162c9614d7f565b5b60006162d88482850161629f565b91505092915050565b7f4e487b7100000000000000000000000000000000000000000000000000000000600052603260045260246000fd5b600061631b82614de7565b91507fffffffffffffffffffffffffffffffffffffffffffffffffffffffffffffffff820361634d5761634c6161f1565b5b600182019050919050565b7f416363657373436f6e74726f6c3a2063616e206f6e6c792072656e6f756e636560008201527f20726f6c657320666f722073656c660000000000000000000000000000000000602082015250565b60006163b4602f83614f7a565b91506163bf82616358565b604082019050919050565b600060208201905081810360008301526163e3816163a7565b9050919050565b7f455243313135353a206163636f756e747320616e6420696473206c656e67746860008201527f206d69736d617463680000000000000000000000000000000000000000000000602082015250565b6000616446602983614f7a565b9150616451826163ea565b604082019050919050565b6000602082019050818103600083015261647581616439565b9050919050565b600061648782614de7565b915061649283614de7565b9250817fffffffffffffffffffffffffffffffffffffffffffffffffffffffffffffffff04831182151516156164cb576164ca6161f1565b5b828202905092915050565b7f4e487b7100000000000000000000000000000000000000000000000000000000600052601260045260246000fd5b600061651082614de7565b915061651b83614de7565b92508261652b5761652a6164d6565b5b828204905092915050565b600061654182614de7565b915061654c83614de7565b92508282101561655f5761655e6161f1565b5b828203905092915050565b7f496e697469616c697a61626c653a20636f6e747261637420697320616c72656160008201527f647920696e697469616c697a6564000000000000000000000000000000000000602082015250565b60006165c6602e83614f7a565b91506165d18261656a565b604082019050919050565b600060208201905081810360008301526165f5816165b9565b9050919050565b6000819050919050565b600060ff82169050919050565b6000819050919050565b600061663861663361662e846165fc565b616613565b616606565b9050919050565b6166488161661d565b82525050565b6000602082019050616663600083018461663f565b92915050565b7f66726f6d4163636f756e74730000000000000000000000000000000000000000600082015250565b600061669f600c83614f7a565b91506166aa82616669565b602082019050919050565b7f72656d6f76616c49647300000000000000000000000000000000000000000000600082015250565b60006166eb600a83614f7a565b91506166f6826166b5565b602082019050919050565b6000604082019050818103600083015261671a81616692565b9050818103602083015261672d816166de565b9050919050565b7f616d6f756e747300000000000000000000000000000000000000000000000000600082015250565b600061676a600783614f7a565b915061677582616734565b602082019050919050565b6000604082019050818103600083015261679981616692565b905081810360208301526167ac8161675d565b9050919050565b6000602082840312156167c9576167c8614d7f565b5b60006167d784828501614dd2565b91505092915050565b7f455243313135353a206d696e7420746f20746865207a65726f2061646472657360008201527f7300000000000000000000000000000000000000000000000000000000000000602082015250565b600061683c602183614f7a565b9150616847826167e0565b604082019050919050565b6000602082019050818103600083015261686b8161682f565b9050919050565b60006040820190506168876000830185614e5d565b6168946020830184614e5d565b9392505050565b7f455243313135353a206275726e2066726f6d20746865207a65726f206164647260008201527f6573730000000000000000000000000000000000000000000000000000000000602082015250565b60006168f7602383614f7a565b91506169028261689b565b604082019050919050565b60006020820190508181036000830152616926816168ea565b9050919050565b7f455243313135353a206275726e20616d6f756e7420657863656564732062616c60008201527f616e636500000000000000000000000000000000000000000000000000000000602082015250565b6000616989602483614f7a565b91506169948261692d565b604082019050919050565b600060208201905081810360008301526169b88161697c565b9050919050565b7f455243313135353a2063616c6c6572206973206e6f7420746f6b656e206f776e60008201527f6572206e6f7220617070726f7665640000000000000000000000000000000000602082015250565b6000616a1b602f83614f7a565b9150616a26826169bf565b604082019050919050565b60006020820190508181036000830152616a4a81616a0e565b9050919050565b7f496e697469616c697a61626c653a20636f6e7472616374206973206e6f74206960008201527f6e697469616c697a696e67000000000000000000000000000000000000000000602082015250565b6000616aad602b83614f7a565b9150616ab882616a51565b604082019050919050565b60006020820190508181036000830152616adc81616aa0565b9050919050565b7f455243313135353a2073657474696e6720617070726f76616c2073746174757360008201527f20666f722073656c660000000000000000000000000000000000000000000000602082015250565b6000616b3f602983614f7a565b9150616b4a82616ae3565b604082019050919050565b60006020820190508181036000830152616b6e81616b32565b9050919050565b7f5061757361626c653a2070617573656400000000000000000000000000000000600082015250565b6000616bab601083614f7a565b9150616bb682616b75565b602082019050919050565b60006020820190508181036000830152616bda81616b9e565b9050919050565b7f496e76616c69645363686564756c65537461727454696d650000000000000000600082015250565b6000616c17601883614f7a565b9150616c2282616be1565b602082019050919050565b60006020820190508181036000830152616c4681616c0a565b9050919050565b7f5363686564756c65206578697374730000000000000000000000000000000000600082015250565b6000616c83600f83614f7a565b9150616c8e82616c4d565b602082019050919050565b60006020820190508181036000830152616cb281616c76565b9050919050565b7f5265737472696374696f6e206475726174696f6e206e6f742073657400000000600082015250565b6000616cef601c83614f7a565b9150616cfa82616cb9565b602082019050919050565b60006020820190508181036000830152616d1e81616ce2565b9050919050565b600081519050919050565b600082825260208201905092915050565b6000616d4c82616d25565b616d568185616d30565b9350616d66818560208601614f8b565b616d6f81614fbe565b840191505092915050565b600060a082019050616d8f6000830188615d34565b616d9c6020830187615d34565b616da96040830186614e5d565b616db66060830185614e5d565b8181036080830152616dc88184616d41565b90509695505050505050565b600081519050616de381614eb3565b92915050565b600060208284031215616dff57616dfe614d7f565b5b6000616e0d84828501616dd4565b91505092915050565b60008160e01c9050919050565b600060033d1115616e425760046000803e616e3f600051616e16565b90505b90565b600060443d10616ed257616e57614d75565b60043d036004823e80513d602482011167ffffffffffffffff82111715616e7f575050616ed2565b808201805167ffffffffffffffff811115616e9d5750505050616ed2565b80602083010160043d038501811115616eba575050505050616ed2565b616ec982602001850186615597565b82955050505050505b90565b7f455243313135353a207472616e7366657220746f206e6f6e204552433131353560008201527f526563656976657220696d706c656d656e746572000000000000000000000000602082015250565b6000616f31603483614f7a565b9150616f3c82616ed5565b604082019050919050565b60006020820190508181036000830152616f6081616f24565b9050919050565b7f455243313135353a204552433131353552656365697665722072656a6563746560008201527f6420746f6b656e73000000000000000000000000000000000000000000000000602082015250565b6000616fc3602883614f7a565b9150616fce82616f67565b604082019050919050565b60006020820190508181036000830152616ff281616fb6565b9050919050565b7f455243313135353a2069647320616e6420616d6f756e7473206c656e6774682060008201527f6d69736d61746368000000000000000000000000000000000000000000000000602082015250565b6000617055602883614f7a565b915061706082616ff9565b604082019050919050565b6000602082019050818103600083015261708481617048565b9050919050565b7f455243313135353a207472616e7366657220746f20746865207a65726f20616460008201527f6472657373000000000000000000000000000000000000000000000000000000602082015250565b60006170e7602583614f7a565b91506170f28261708b565b604082019050919050565b60006020820190508181036000830152617116816170da565b9050919050565b7f455243313135353a20696e73756666696369656e742062616c616e636520666f60008201527f72207472616e7366657200000000000000000000000000000000000000000000602082015250565b6000617179602a83614f7a565b91506171848261711d565b604082019050919050565b600060208201905081810360008301526171a88161716c565b9050919050565b600060408201905081810360008301526171c981856159f6565b905081810360208301526171dd81846159f6565b90509392505050565b7f4e487b7100000000000000000000000000000000000000000000000000000000600052603160045260246000fd5b600081905092915050565b7f416363657373436f6e74726f6c3a206163636f756e7420000000000000000000600082015250565b6000617256601783617215565b915061726182617220565b601782019050919050565b600061727782614f6f565b6172818185617215565b9350617291818560208601614f8b565b80840191505092915050565b7f206973206d697373696e6720726f6c6520000000000000000000000000000000600082015250565b60006172d3601183617215565b91506172de8261729d565b601182019050919050565b60006172f482617249565b9150617300828561726c565b915061730b826172c6565b9150617317828461726c565b91508190509392505050565b7f5061757361626c653a206e6f7420706175736564000000000000000000000000600082015250565b6000617359601483614f7a565b915061736482617323565b602082019050919050565b600060208201905081810360008301526173888161734c565b9050919050565b60008190508160005260206000209050919050565b60006020601f8301049050919050565b600082821b905092915050565b6000600883026173f17fffffffffffffffffffffffffffffffffffffffffffffffffffffffffffffffff826173b4565b6173fb86836173b4565b95508019841693508086168417925050509392505050565b600061742e61742961742484614de7565b616613565b614de7565b9050919050565b6000819050919050565b61744883617413565b61745c61745482617435565b8484546173c1565b825550505050565b600090565b617471617464565b61747c81848461743f565b505050565b5b818110156174a057617495600082617469565b600181019050617482565b5050565b601f8211156174e5576174b68161738f565b6174bf846173a4565b810160208510156174ce578190505b6174e26174da856173a4565b830182617481565b50505b505050565b600082821c905092915050565b6000617508600019846008026174ea565b1980831691505092915050565b600061752183836174f7565b9150826002028217905092915050565b61753a82614f6f565b67ffffffffffffffff81111561755357617552615568565b5b61755d82546160bf565b6175688282856174a4565b600060209050601f83116001811461759b5760008415617589578287015190505b6175938582617515565b8655506175fb565b601f1984166175a98661738f565b60005b828110156175d1578489015182556001820191506020850194506020810190506175ac565b868310156175ee57848901516175ea601f8916826174f7565b8355505b6001600288020188555050505b505050505050565b7f455243313135353a206275726e20616d6f756e74206578636565647320746f7460008201527f616c537570706c79000000000000000000000000000000000000000000000000602082015250565b600061765f602883614f7a565b915061766a82617603565b604082019050919050565b6000602082019050818103600083015261768e81617652565b9050919050565b600060a0820190506176aa6000830188615d34565b6176b76020830187615d34565b81810360408301526176c981866159f6565b905081810360608301526176dd81856159f6565b905081810360808301526176f18184616d41565b90509695505050505050565b600061770882614de7565b91506000820361771b5761771a6161f1565b5b600182039050919050565b7f537472696e67733a20686578206c656e67746820696e73756666696369656e74600082015250565b600061775c602083614f7a565b915061776782617726565b602082019050919050565b6000602082019050818103600083015261778b8161774f565b9050919050565b7f455243313135355061757361626c653a20746f6b656e207472616e736665722060008201527f7768696c65207061757365640000000000000000000000000000000000000000602082015250565b60006177ee602c83614f7a565b91506177f982617792565b604082019050919050565b6000602082019050818103600083015261781d816177e1565b905091905056fe68747470733a2f2f6e6f72692e636f6d2f6170692f7265737472696374696f6e7363686564756c652f7b69647d2e6a736f6ea26469706673582212209718da56ddd79b461c6a1ff3d80b430601bdf76fbebc3082a53bad0965cc7ed464736f6c634300080f0033",
  "linkReferences": {},
  "deployedLinkReferences": {}
}