{
  "_format": "hh-sol-artifact-1",
  "contractName": "RestrictedNORI",
  "sourceName": "contracts/RestrictedNORI.sol",
  "abi": [
    {
      "inputs": [],
      "stateMutability": "nonpayable",
      "type": "constructor"
    },
    {
      "inputs": [
        {
          "internalType": "string",
          "name": "array1Name",
          "type": "string"
        },
        {
          "internalType": "string",
          "name": "array2Name",
          "type": "string"
        }
      ],
      "name": "ArrayLengthMismatch",
      "type": "error"
    },
    {
      "inputs": [
        {
          "internalType": "address",
          "name": "account",
          "type": "address"
        },
        {
          "internalType": "uint256",
          "name": "scheduleId",
          "type": "uint256"
        }
      ],
      "name": "InsufficientClaimableBalance",
      "type": "error"
    },
    {
      "inputs": [
        {
          "internalType": "uint256",
          "name": "scheduleId",
          "type": "uint256"
        }
      ],
      "name": "InsufficientUnreleasedTokens",
      "type": "error"
    },
    {
      "inputs": [
        {
          "internalType": "address",
          "name": "account",
          "type": "address"
        }
      ],
      "name": "InvalidBpNoriSender",
      "type": "error"
    },
    {
      "inputs": [],
      "name": "InvalidZeroDuration",
      "type": "error"
    },
    {
      "inputs": [
        {
          "internalType": "uint256",
          "name": "scheduleId",
          "type": "uint256"
        }
      ],
      "name": "NonexistentSchedule",
      "type": "error"
    },
    {
      "inputs": [],
      "name": "RecipientCannotBeZeroAddress",
      "type": "error"
    },
    {
      "inputs": [],
      "name": "TokenSenderNotBPNORI",
      "type": "error"
    },
    {
      "anonymous": false,
      "inputs": [
        {
          "indexed": true,
          "internalType": "address",
          "name": "account",
          "type": "address"
        },
        {
          "indexed": true,
          "internalType": "address",
          "name": "operator",
          "type": "address"
        },
        {
          "indexed": false,
          "internalType": "bool",
          "name": "approved",
          "type": "bool"
        }
      ],
      "name": "ApprovalForAll",
      "type": "event"
    },
    {
      "anonymous": false,
      "inputs": [
        {
          "indexed": false,
          "internalType": "uint8",
          "name": "version",
          "type": "uint8"
        }
      ],
      "name": "Initialized",
      "type": "event"
    },
    {
      "anonymous": false,
      "inputs": [
        {
          "indexed": false,
          "internalType": "address",
          "name": "account",
          "type": "address"
        }
      ],
      "name": "Paused",
      "type": "event"
    },
    {
      "anonymous": false,
      "inputs": [
        {
          "indexed": true,
          "internalType": "bytes32",
          "name": "role",
          "type": "bytes32"
        },
        {
          "indexed": true,
          "internalType": "bytes32",
          "name": "previousAdminRole",
          "type": "bytes32"
        },
        {
          "indexed": true,
          "internalType": "bytes32",
          "name": "newAdminRole",
          "type": "bytes32"
        }
      ],
      "name": "RoleAdminChanged",
      "type": "event"
    },
    {
      "anonymous": false,
      "inputs": [
        {
          "indexed": true,
          "internalType": "bytes32",
          "name": "role",
          "type": "bytes32"
        },
        {
          "indexed": true,
          "internalType": "address",
          "name": "account",
          "type": "address"
        },
        {
          "indexed": true,
          "internalType": "address",
          "name": "sender",
          "type": "address"
        }
      ],
      "name": "RoleGranted",
      "type": "event"
    },
    {
      "anonymous": false,
      "inputs": [
        {
          "indexed": true,
          "internalType": "bytes32",
          "name": "role",
          "type": "bytes32"
        },
        {
          "indexed": true,
          "internalType": "address",
          "name": "account",
          "type": "address"
        },
        {
          "indexed": true,
          "internalType": "address",
          "name": "sender",
          "type": "address"
        }
      ],
      "name": "RoleRevoked",
      "type": "event"
    },
    {
      "anonymous": false,
      "inputs": [
        {
          "indexed": true,
          "internalType": "uint256",
          "name": "projectId",
          "type": "uint256"
        },
        {
          "indexed": false,
          "internalType": "uint256",
          "name": "startTime",
          "type": "uint256"
        },
        {
          "indexed": false,
          "internalType": "uint256",
          "name": "endTime",
          "type": "uint256"
        }
      ],
      "name": "ScheduleCreated",
      "type": "event"
    },
    {
      "anonymous": false,
      "inputs": [
        {
          "indexed": true,
          "internalType": "address",
          "name": "from",
          "type": "address"
        },
        {
          "indexed": true,
          "internalType": "address",
          "name": "to",
          "type": "address"
        },
        {
          "indexed": true,
          "internalType": "uint256",
          "name": "scheduleId",
          "type": "uint256"
        },
        {
          "indexed": false,
          "internalType": "uint256",
          "name": "quantity",
          "type": "uint256"
        }
      ],
      "name": "TokensClaimed",
      "type": "event"
    },
    {
      "anonymous": false,
      "inputs": [
        {
          "indexed": true,
          "internalType": "uint256",
          "name": "atTime",
          "type": "uint256"
        },
        {
          "indexed": true,
          "internalType": "uint256",
          "name": "removalId",
          "type": "uint256"
        },
        {
          "indexed": true,
          "internalType": "uint256",
          "name": "scheduleId",
          "type": "uint256"
        },
        {
          "indexed": false,
          "internalType": "uint256",
          "name": "quantity",
          "type": "uint256"
        }
      ],
      "name": "TokensRevoked",
      "type": "event"
    },
    {
      "anonymous": false,
      "inputs": [
        {
          "indexed": true,
          "internalType": "address",
          "name": "operator",
          "type": "address"
        },
        {
          "indexed": true,
          "internalType": "address",
          "name": "from",
          "type": "address"
        },
        {
          "indexed": true,
          "internalType": "address",
          "name": "to",
          "type": "address"
        },
        {
          "indexed": false,
          "internalType": "uint256[]",
          "name": "ids",
          "type": "uint256[]"
        },
        {
          "indexed": false,
          "internalType": "uint256[]",
          "name": "values",
          "type": "uint256[]"
        }
      ],
      "name": "TransferBatch",
      "type": "event"
    },
    {
      "anonymous": false,
      "inputs": [
        {
          "indexed": true,
          "internalType": "address",
          "name": "operator",
          "type": "address"
        },
        {
          "indexed": true,
          "internalType": "address",
          "name": "from",
          "type": "address"
        },
        {
          "indexed": true,
          "internalType": "address",
          "name": "to",
          "type": "address"
        },
        {
          "indexed": false,
          "internalType": "uint256",
          "name": "id",
          "type": "uint256"
        },
        {
          "indexed": false,
          "internalType": "uint256",
          "name": "value",
          "type": "uint256"
        }
      ],
      "name": "TransferSingle",
      "type": "event"
    },
    {
      "anonymous": false,
      "inputs": [
        {
          "indexed": false,
          "internalType": "string",
          "name": "value",
          "type": "string"
        },
        {
          "indexed": true,
          "internalType": "uint256",
          "name": "id",
          "type": "uint256"
        }
      ],
      "name": "URI",
      "type": "event"
    },
    {
      "anonymous": false,
      "inputs": [
        {
          "indexed": false,
          "internalType": "address",
          "name": "account",
          "type": "address"
        }
      ],
      "name": "Unpaused",
      "type": "event"
    },
    {
      "inputs": [],
      "name": "DEFAULT_ADMIN_ROLE",
      "outputs": [
        {
          "internalType": "bytes32",
          "name": "",
          "type": "bytes32"
        }
      ],
      "stateMutability": "view",
      "type": "function"
    },
    {
      "inputs": [],
      "name": "ERC777_TOKENS_RECIPIENT_HASH",
      "outputs": [
        {
          "internalType": "bytes32",
          "name": "",
          "type": "bytes32"
        }
      ],
      "stateMutability": "view",
      "type": "function"
    },
    {
      "inputs": [],
      "name": "PAUSER_ROLE",
      "outputs": [
        {
          "internalType": "bytes32",
          "name": "",
          "type": "bytes32"
        }
      ],
      "stateMutability": "view",
      "type": "function"
    },
    {
      "inputs": [],
      "name": "SCHEDULE_CREATOR_ROLE",
      "outputs": [
        {
          "internalType": "bytes32",
          "name": "",
          "type": "bytes32"
        }
      ],
      "stateMutability": "view",
      "type": "function"
    },
    {
      "inputs": [],
      "name": "TOKEN_DEPOSITOR_ROLE",
      "outputs": [
        {
          "internalType": "bytes32",
          "name": "",
          "type": "bytes32"
        }
      ],
      "stateMutability": "view",
      "type": "function"
    },
    {
      "inputs": [],
      "name": "TOKEN_REVOKER_ROLE",
      "outputs": [
        {
          "internalType": "bytes32",
          "name": "",
          "type": "bytes32"
        }
      ],
      "stateMutability": "view",
      "type": "function"
    },
    {
      "inputs": [
        {
          "internalType": "address",
          "name": "account",
          "type": "address"
        },
        {
          "internalType": "uint256",
          "name": "id",
          "type": "uint256"
        }
      ],
      "name": "balanceOf",
      "outputs": [
        {
          "internalType": "uint256",
          "name": "",
          "type": "uint256"
        }
      ],
      "stateMutability": "view",
      "type": "function"
    },
    {
      "inputs": [
        {
          "internalType": "address[]",
          "name": "accounts",
          "type": "address[]"
        },
        {
          "internalType": "uint256[]",
          "name": "ids",
          "type": "uint256[]"
        }
      ],
      "name": "balanceOfBatch",
      "outputs": [
        {
          "internalType": "uint256[]",
          "name": "",
          "type": "uint256[]"
        }
      ],
      "stateMutability": "view",
      "type": "function"
    },
    {
      "inputs": [
        {
          "internalType": "address",
          "name": "account",
          "type": "address"
        },
        {
          "internalType": "uint256[]",
          "name": "scheduleIds",
          "type": "uint256[]"
        }
      ],
      "name": "batchGetScheduleDetailsForAccount",
      "outputs": [
        {
          "components": [
            {
              "internalType": "address",
              "name": "tokenHolder",
              "type": "address"
            },
            {
              "internalType": "uint256",
              "name": "scheduleTokenId",
              "type": "uint256"
            },
            {
              "internalType": "uint256",
              "name": "balance",
              "type": "uint256"
            },
            {
              "internalType": "uint256",
              "name": "claimableAmount",
              "type": "uint256"
            },
            {
              "internalType": "uint256",
              "name": "claimedAmount",
              "type": "uint256"
            },
            {
              "internalType": "uint256",
              "name": "quantityRevoked",
              "type": "uint256"
            }
          ],
          "internalType": "struct RestrictedNORI.ScheduleDetailForAddress[]",
          "name": "",
          "type": "tuple[]"
        }
      ],
      "stateMutability": "view",
      "type": "function"
    },
    {
      "inputs": [
        {
          "internalType": "uint256[]",
          "name": "scheduleIds",
          "type": "uint256[]"
        }
      ],
      "name": "batchGetScheduleSummaries",
      "outputs": [
        {
          "components": [
            {
              "internalType": "uint256",
              "name": "scheduleTokenId",
              "type": "uint256"
            },
            {
              "internalType": "uint256",
              "name": "startTime",
              "type": "uint256"
            },
            {
              "internalType": "uint256",
              "name": "endTime",
              "type": "uint256"
            },
            {
              "internalType": "uint256",
              "name": "totalSupply",
              "type": "uint256"
            },
            {
              "internalType": "uint256",
              "name": "totalClaimableAmount",
              "type": "uint256"
            },
            {
              "internalType": "uint256",
              "name": "totalClaimedAmount",
              "type": "uint256"
            },
            {
              "internalType": "uint256",
              "name": "totalQuantityRevoked",
              "type": "uint256"
            },
            {
              "internalType": "address[]",
              "name": "tokenHolders",
              "type": "address[]"
            },
            {
              "internalType": "bool",
              "name": "exists",
              "type": "bool"
            }
          ],
          "internalType": "struct RestrictedNORI.ScheduleSummary[]",
          "name": "",
          "type": "tuple[]"
        }
      ],
      "stateMutability": "view",
      "type": "function"
    },
    {
      "inputs": [
        {
          "internalType": "address[]",
          "name": "toAccounts",
          "type": "address[]"
        },
        {
          "internalType": "uint256[]",
          "name": "removalIds",
          "type": "uint256[]"
        },
        {
          "internalType": "uint256[]",
          "name": "amounts",
          "type": "uint256[]"
        }
      ],
      "name": "batchRevokeUnreleasedTokenAmounts",
      "outputs": [],
      "stateMutability": "nonpayable",
      "type": "function"
    },
    {
      "inputs": [
        {
          "internalType": "uint256",
          "name": "scheduleId",
          "type": "uint256"
        }
      ],
      "name": "claimableBalanceForSchedule",
      "outputs": [
        {
          "internalType": "uint256",
          "name": "",
          "type": "uint256"
        }
      ],
      "stateMutability": "view",
      "type": "function"
    },
    {
      "inputs": [
        {
          "internalType": "uint256",
          "name": "scheduleId",
          "type": "uint256"
        },
        {
          "internalType": "address",
          "name": "account",
          "type": "address"
        }
      ],
      "name": "claimableBalanceForScheduleForAccount",
      "outputs": [
        {
          "internalType": "uint256",
          "name": "",
          "type": "uint256"
        }
      ],
      "stateMutability": "view",
      "type": "function"
    },
    {
      "inputs": [
        {
          "internalType": "uint256",
          "name": "projectId",
          "type": "uint256"
        }
      ],
      "name": "createSchedule",
      "outputs": [],
      "stateMutability": "nonpayable",
      "type": "function"
    },
    {
      "inputs": [
        {
          "internalType": "uint256",
          "name": "id",
          "type": "uint256"
        }
      ],
      "name": "exists",
      "outputs": [
        {
          "internalType": "bool",
          "name": "",
          "type": "bool"
        }
      ],
      "stateMutability": "view",
      "type": "function"
    },
    {
      "inputs": [],
      "name": "getAllScheduleIds",
      "outputs": [
        {
          "internalType": "uint256[]",
          "name": "",
          "type": "uint256[]"
        }
      ],
      "stateMutability": "view",
      "type": "function"
    },
    {
      "inputs": [
        {
          "internalType": "uint256",
          "name": "methodology",
          "type": "uint256"
        },
        {
          "internalType": "uint256",
          "name": "methodologyVersion",
          "type": "uint256"
        }
      ],
      "name": "getRestrictionDurationForMethodologyAndVersion",
      "outputs": [
        {
          "internalType": "uint256",
          "name": "",
          "type": "uint256"
        }
      ],
      "stateMutability": "view",
      "type": "function"
    },
    {
      "inputs": [
        {
          "internalType": "bytes32",
          "name": "role",
          "type": "bytes32"
        }
      ],
      "name": "getRoleAdmin",
      "outputs": [
        {
          "internalType": "bytes32",
          "name": "",
          "type": "bytes32"
        }
      ],
      "stateMutability": "view",
      "type": "function"
    },
    {
      "inputs": [
        {
          "internalType": "bytes32",
          "name": "role",
          "type": "bytes32"
        },
        {
          "internalType": "uint256",
          "name": "index",
          "type": "uint256"
        }
      ],
      "name": "getRoleMember",
      "outputs": [
        {
          "internalType": "address",
          "name": "",
          "type": "address"
        }
      ],
      "stateMutability": "view",
      "type": "function"
    },
    {
      "inputs": [
        {
          "internalType": "bytes32",
          "name": "role",
          "type": "bytes32"
        }
      ],
      "name": "getRoleMemberCount",
      "outputs": [
        {
          "internalType": "uint256",
          "name": "",
          "type": "uint256"
        }
      ],
      "stateMutability": "view",
      "type": "function"
    },
    {
      "inputs": [
        {
          "internalType": "address",
          "name": "account",
          "type": "address"
        },
        {
          "internalType": "uint256",
          "name": "scheduleId",
          "type": "uint256"
        }
      ],
      "name": "getScheduleDetailForAccount",
      "outputs": [
        {
          "components": [
            {
              "internalType": "address",
              "name": "tokenHolder",
              "type": "address"
            },
            {
              "internalType": "uint256",
              "name": "scheduleTokenId",
              "type": "uint256"
            },
            {
              "internalType": "uint256",
              "name": "balance",
              "type": "uint256"
            },
            {
              "internalType": "uint256",
              "name": "claimableAmount",
              "type": "uint256"
            },
            {
              "internalType": "uint256",
              "name": "claimedAmount",
              "type": "uint256"
            },
            {
              "internalType": "uint256",
              "name": "quantityRevoked",
              "type": "uint256"
            }
          ],
          "internalType": "struct RestrictedNORI.ScheduleDetailForAddress",
          "name": "",
          "type": "tuple"
        }
      ],
      "stateMutability": "view",
      "type": "function"
    },
    {
      "inputs": [
        {
          "internalType": "uint256",
          "name": "scheduleId",
          "type": "uint256"
        }
      ],
      "name": "getScheduleSummary",
      "outputs": [
        {
          "components": [
            {
              "internalType": "uint256",
              "name": "scheduleTokenId",
              "type": "uint256"
            },
            {
              "internalType": "uint256",
              "name": "startTime",
              "type": "uint256"
            },
            {
              "internalType": "uint256",
              "name": "endTime",
              "type": "uint256"
            },
            {
              "internalType": "uint256",
              "name": "totalSupply",
              "type": "uint256"
            },
            {
              "internalType": "uint256",
              "name": "totalClaimableAmount",
              "type": "uint256"
            },
            {
              "internalType": "uint256",
              "name": "totalClaimedAmount",
              "type": "uint256"
            },
            {
              "internalType": "uint256",
              "name": "totalQuantityRevoked",
              "type": "uint256"
            },
            {
              "internalType": "address[]",
              "name": "tokenHolders",
              "type": "address[]"
            },
            {
              "internalType": "bool",
              "name": "exists",
              "type": "bool"
            }
          ],
          "internalType": "struct RestrictedNORI.ScheduleSummary",
          "name": "",
          "type": "tuple"
        }
      ],
      "stateMutability": "view",
      "type": "function"
    },
    {
      "inputs": [
        {
          "internalType": "bytes32",
          "name": "role",
          "type": "bytes32"
        },
        {
          "internalType": "address",
          "name": "account",
          "type": "address"
        }
      ],
      "name": "grantRole",
      "outputs": [],
      "stateMutability": "nonpayable",
      "type": "function"
    },
    {
      "inputs": [
        {
          "internalType": "bytes32",
          "name": "role",
          "type": "bytes32"
        },
        {
          "internalType": "address",
          "name": "account",
          "type": "address"
        }
      ],
      "name": "hasRole",
      "outputs": [
        {
          "internalType": "bool",
          "name": "",
          "type": "bool"
        }
      ],
      "stateMutability": "view",
      "type": "function"
    },
    {
      "inputs": [],
      "name": "initialize",
      "outputs": [],
      "stateMutability": "nonpayable",
      "type": "function"
    },
    {
      "inputs": [
        {
          "internalType": "address",
          "name": "account",
          "type": "address"
        },
        {
          "internalType": "address",
          "name": "operator",
          "type": "address"
        }
      ],
      "name": "isApprovedForAll",
      "outputs": [
        {
          "internalType": "bool",
          "name": "",
          "type": "bool"
        }
      ],
      "stateMutability": "view",
      "type": "function"
    },
    {
      "inputs": [],
      "name": "pause",
      "outputs": [],
      "stateMutability": "nonpayable",
      "type": "function"
    },
    {
      "inputs": [],
      "name": "paused",
      "outputs": [
        {
          "internalType": "bool",
          "name": "",
          "type": "bool"
        }
      ],
      "stateMutability": "view",
      "type": "function"
    },
    {
      "inputs": [
        {
          "internalType": "address",
          "name": "bridgedPolygonNoriAddress",
          "type": "address"
        },
        {
          "internalType": "address",
          "name": "removalAddress",
          "type": "address"
        }
      ],
      "name": "registerContractAddresses",
      "outputs": [],
      "stateMutability": "nonpayable",
      "type": "function"
    },
    {
      "inputs": [
        {
          "internalType": "bytes32",
          "name": "role",
          "type": "bytes32"
        },
        {
          "internalType": "address",
          "name": "account",
          "type": "address"
        }
      ],
      "name": "renounceRole",
      "outputs": [],
      "stateMutability": "nonpayable",
      "type": "function"
    },
    {
      "inputs": [
        {
          "internalType": "uint256",
          "name": "scheduleId",
          "type": "uint256"
        }
      ],
      "name": "revocableQuantityForSchedule",
      "outputs": [
        {
          "internalType": "uint256",
          "name": "",
          "type": "uint256"
        }
      ],
      "stateMutability": "view",
      "type": "function"
    },
    {
      "inputs": [
        {
          "internalType": "bytes32",
          "name": "role",
          "type": "bytes32"
        },
        {
          "internalType": "address",
          "name": "account",
          "type": "address"
        }
      ],
      "name": "revokeRole",
      "outputs": [],
      "stateMutability": "nonpayable",
      "type": "function"
    },
    {
      "inputs": [
        {
          "internalType": "address",
          "name": "from",
          "type": "address"
        },
        {
          "internalType": "address",
          "name": "to",
          "type": "address"
        },
        {
          "internalType": "uint256[]",
          "name": "ids",
          "type": "uint256[]"
        },
        {
          "internalType": "uint256[]",
          "name": "amounts",
          "type": "uint256[]"
        },
        {
          "internalType": "bytes",
          "name": "data",
          "type": "bytes"
        }
      ],
      "name": "safeBatchTransferFrom",
      "outputs": [],
      "stateMutability": "nonpayable",
      "type": "function"
    },
    {
      "inputs": [
        {
          "internalType": "address",
          "name": "from",
          "type": "address"
        },
        {
          "internalType": "address",
          "name": "to",
          "type": "address"
        },
        {
          "internalType": "uint256",
          "name": "id",
          "type": "uint256"
        },
        {
          "internalType": "uint256",
          "name": "amount",
          "type": "uint256"
        },
        {
          "internalType": "bytes",
          "name": "data",
          "type": "bytes"
        }
      ],
      "name": "safeTransferFrom",
      "outputs": [],
      "stateMutability": "nonpayable",
      "type": "function"
    },
    {
      "inputs": [
        {
          "internalType": "address",
          "name": "operator",
          "type": "address"
        },
        {
          "internalType": "bool",
          "name": "approved",
          "type": "bool"
        }
      ],
      "name": "setApprovalForAll",
      "outputs": [],
      "stateMutability": "nonpayable",
      "type": "function"
    },
    {
      "inputs": [
        {
          "internalType": "uint256",
          "name": "methodology",
          "type": "uint256"
        },
        {
          "internalType": "uint256",
          "name": "methodologyVersion",
          "type": "uint256"
        },
        {
          "internalType": "uint256",
          "name": "durationInSeconds",
          "type": "uint256"
        }
      ],
      "name": "setRestrictionDurationForMethodologyAndVersion",
      "outputs": [],
      "stateMutability": "nonpayable",
      "type": "function"
    },
    {
      "inputs": [
        {
          "internalType": "bytes4",
          "name": "interfaceId",
          "type": "bytes4"
        }
      ],
      "name": "supportsInterface",
      "outputs": [
        {
          "internalType": "bool",
          "name": "",
          "type": "bool"
        }
      ],
      "stateMutability": "view",
      "type": "function"
    },
    {
      "inputs": [
        {
          "internalType": "address",
          "name": "",
          "type": "address"
        },
        {
          "internalType": "address",
          "name": "from",
          "type": "address"
        },
        {
          "internalType": "address",
          "name": "",
          "type": "address"
        },
        {
          "internalType": "uint256",
          "name": "amount",
          "type": "uint256"
        },
        {
          "internalType": "bytes",
          "name": "userData",
          "type": "bytes"
        },
        {
          "internalType": "bytes",
          "name": "operatorData",
          "type": "bytes"
        }
      ],
      "name": "tokensReceived",
      "outputs": [],
      "stateMutability": "nonpayable",
      "type": "function"
    },
    {
      "inputs": [
        {
          "internalType": "uint256",
          "name": "id",
          "type": "uint256"
        }
      ],
      "name": "totalSupply",
      "outputs": [
        {
          "internalType": "uint256",
          "name": "",
          "type": "uint256"
        }
      ],
      "stateMutability": "view",
      "type": "function"
    },
    {
      "inputs": [],
      "name": "unpause",
      "outputs": [],
      "stateMutability": "nonpayable",
      "type": "function"
    },
    {
      "inputs": [
        {
          "internalType": "uint256",
          "name": "",
          "type": "uint256"
        }
      ],
      "name": "uri",
      "outputs": [
        {
          "internalType": "string",
          "name": "",
          "type": "string"
        }
      ],
      "stateMutability": "view",
      "type": "function"
    },
    {
      "inputs": [
        {
          "internalType": "address",
          "name": "recipient",
          "type": "address"
        },
        {
          "internalType": "uint256",
          "name": "scheduleId",
          "type": "uint256"
        },
        {
          "internalType": "uint256",
          "name": "amount",
          "type": "uint256"
        }
      ],
      "name": "withdrawFromSchedule",
      "outputs": [
        {
          "internalType": "bool",
          "name": "",
          "type": "bool"
        }
      ],
      "stateMutability": "nonpayable",
      "type": "function"
    }
  ],
  "bytecode": "0x6080604052346200002557620000146200002a565b506040516163139081620000ee8239f35b600080fd5b60005460ff8160081c16600014620000875760405162461bcd60e51b815260206004820152602e60248201526000805160206200640183398151915260448201526d191e481a5b9a5d1a585b1a5e995960921b6064820152608490fd5b60ff8082161015620000a25760ff191660ff17600055600190565b60405162461bcd60e51b815260206004820152602e60248201526000805160206200640183398151915260448201526d191e481a5b9a5d1a585b1a5e995960921b6064820152608490fdfe60806040526004361015610013575b600080fd5b60003560e01c806223de2914610359578062fdd58e1461035057806301ffc9a7146103475780630a5170331461033e5780630e89341c14610335578063229afd611461032c578063248a9ca31461032357806327ca0c271461031a5780632d9f0f16146103115780632e5e8d83146103085780632eb2c2d6146102ff5780632f2ff15d146102f657806336568abe146102ed5780633f4ba83a146102e45780634e1273f4146102db5780634f558e79146102d2578063521189a9146102c95780635c975abb146102c05780635d37165a146102b75780636235a4e9146102ae57806363343346146102a5578063639aa0ad1461029c5780636a00f9eb14610293578063713279b11461028a5780638129fc1c146102815780638456cb59146102785780639010d07c1461026f57806391d148541461026657806393ae796d1461025d5780639ac7b44d14610254578063a217fddf1461024b578063a22cb46514610242578063b8b4dbe014610239578063bd85b03914610230578063c1499fa814610227578063ca15c8731461021e578063d547741f14610215578063e01d73931461020c578063e63ab1e914610203578063e985e9c5146101fa578063f242432a146101f15763f6f57a2e146101e957600080fd5b61000e6127a1565b5061000e6125e8565b5061000e61258a565b5061000e612530565b5061000e612300565b5061000e61229e565b5061000e612252565b5061000e6121b1565b5061000e612166565b5061000e61210c565b5061000e611f8d565b5061000e611f48565b5061000e611eee565b5061000e611e7f565b5061000e611db8565b5061000e611d45565b5061000e611ca9565b5061000e611aad565b5061000e611a70565b5061000e61193e565b5061000e61180d565b5061000e611751565b5061000e611714565b5061000e6116cb565b5061000e611689565b5061000e61162f565b5061000e6115e2565b5061000e611507565b5061000e6113cf565b5061000e6112e6565b5061000e61118c565b5061000e6110e7565b5061000e610e97565b5061000e610d8e565b5061000e610a48565b5061000e6109f9565b5061000e61099f565b5061000e610889565b5061000e610794565b5061000e610632565b5061000e6105b6565b5061000e6103ae565b73ffffffffffffffffffffffffffffffffffffffff81160361000e57565b9181601f8401121561000e5782359167ffffffffffffffff831161000e576020838186019501011161000e57565b503461000e5760c07ffffffffffffffffffffffffffffffffffffffffffffffffffffffffffffffffc36011261000e576103e9600435610362565b6024356103f581610362565b610400604435610362565b67ffffffffffffffff60843581811161000e57610421903690600401610380565b9160a43590811161000e5761043a903690600401610380565b91909361047c61047673ffffffffffffffffffffffffffffffffffffffff610195541673ffffffffffffffffffffffffffffffffffffffff1690565b33141590565b61058c577ff9a119238c936e6f3d82da4fb22453b193301ed5112da5462cc202e164e889fd60005261012d6020526105066105026104fb837f63d142b26fb6a33d374627875201ab189f741b01354b3f76264767df89cf85625b9073ffffffffffffffffffffffffffffffffffffffff16600052602052604060002090565b5460ff1690565b1590565b61053f5750926105339161052b856105238661053d9801826107ee565b953691611059565b503691611059565b5060643590615533565b005b6040517f465c5db000000000000000000000000000000000000000000000000000000000815273ffffffffffffffffffffffffffffffffffffffff919091166004820152602490fd5b0390fd5b60046040517f4628d20b000000000000000000000000000000000000000000000000000000008152fd5b503461000e5760407ffffffffffffffffffffffffffffffffffffffffffffffffffffffffffffffffc36011261000e5760206106006004356105f781610362565b602435906131fa565b604051908152f35b7fffffffff0000000000000000000000000000000000000000000000000000000081160361000e57565b503461000e5760207ffffffffffffffffffffffffffffffffffffffffffffffffffffffffffffffffc36011261000e5760207fffffffff0000000000000000000000000000000000000000000000000000000060043561069181610608565b167f5a05180f0000000000000000000000000000000000000000000000000000000081149081156106c8575b506040519015158152f35b7f7965db0b000000000000000000000000000000000000000000000000000000008114915081156106fb575b50386106bd565b7fd9b67a260000000000000000000000000000000000000000000000000000000081149150811561075f575b8115610735575b50386106f4565b7f01ffc9a7000000000000000000000000000000000000000000000000000000009150143861072e565b7f0e89341c0000000000000000000000000000000000000000000000000000000081149150610727565b600091031261000e57565b503461000e5760007ffffffffffffffffffffffffffffffffffffffffffffffffffffffffffffffffc36011261000e5760206040517ff9a119238c936e6f3d82da4fb22453b193301ed5112da5462cc202e164e889fd8152f35b9081602091031261000e573590565b918091926000905b82821061081d575011610816575050565b6000910152565b91508060209183015181860152018291610805565b907fffffffffffffffffffffffffffffffffffffffffffffffffffffffffffffffe0601f60209361086e815180928187528780880191016107fd565b0116010190565b906020610886928181520190610832565b90565b503461000e576020807ffffffffffffffffffffffffffffffffffffffffffffffffffffffffffffffffc36011261000e576040516000916067546108cc816131a7565b808452906001908181169081156109615750600114610906575b610902846108f681880382610f72565b60405191829182610875565b0390f35b606760009081529294507f9787eeb91fe3101235e4a76063c7023ecb40f923f97916639c598592fa30d6ae5b82841061094e5750505081610902936108f692820101936108e6565b8054858501870152928501928101610932565b7fffffffffffffffffffffffffffffffffffffffffffffffffffffffffffffff0016858501525050151560051b82010191506108f6816109026108e6565b503461000e5760007ffffffffffffffffffffffffffffffffffffffffffffffffffffffffffffffffc36011261000e5760206040517fb62aeb2ef35a3718e51a7e8b0b0d8e6fa690a4037bf45dad308976da469a861c8152f35b503461000e5760207ffffffffffffffffffffffffffffffffffffffffffffffffffffffffffffffffc36011261000e5760043560005261012d6020526020600160406000200154604051908152f35b503461000e5760607ffffffffffffffffffffffffffffffffffffffffffffffffffffffffffffffffc36011261000e57610bdd6020600435610a8981610362565b60443590602435610a9b8382336145ed565b610aee610ab382600052610192602052604060002090565b60028101610ac2868254613514565b905560083391019073ffffffffffffffffffffffffffffffffffffffff16600052602052604060002090565b610af9848254613514565b905560405183815273ffffffffffffffffffffffffffffffffffffffff83169033907fff097c7d8b1957a4ff09ef1361b5fb54dcede3941ba836d0beb9d10bec725de69080602081015b0390a4610b82610b696101955473ffffffffffffffffffffffffffffffffffffffff1690565b73ffffffffffffffffffffffffffffffffffffffff1690565b9060006040518096819582947fa9059cbb000000000000000000000000000000000000000000000000000000008452600484016020909392919373ffffffffffffffffffffffffffffffffffffffff60408201951681520152565b03925af18015610c27575b610bf9575b60405160018152602090f35b610c199060203d8111610c20575b610c118183610f72565b81019061454e565b5038610bed565b503d610c07565b610c2f613cbc565b610be8565b9181601f8401121561000e5782359167ffffffffffffffff831161000e576020808501948460051b01011161000e57565b906101209182820181518352602090818301518285015260408301516040850152606083015160608501526080830151608085015260a083015160a085015260c083015160c085015260e08301519460e0850152845180915281610140850195019160005b828110610ce4575050505061010090810151151591015290565b835173ffffffffffffffffffffffffffffffffffffffff1687529581019592810192600101610cca565b602080820190808352835180925260408301928160408460051b8301019501936000915b848310610d425750505050505090565b9091929394958480610d7e837fffffffffffffffffffffffffffffffffffffffffffffffffffffffffffffffc086600196030187528a51610c65565b9801930193019194939290610d32565b503461000e576020807ffffffffffffffffffffffffffffffffffffffffffffffffffffffffffffffffc36011261000e5760043567ffffffffffffffff811161000e57610ddf903690600401610c34565b610de881610fd4565b92610df66040519485610f72565b8184527fffffffffffffffffffffffffffffffffffffffffffffffffffffffffffffffe0610e2383610fd4565b0160005b818110610e815750505060005b818110610e4957604051806109028682610d0e565b80610e61610e5b610e7c9385876142d2565b356141c2565b610e6b82876133b9565b52610e7681866133b9565b50613353565b610e34565b8290610e8b61415c565b82828901015201610e27565b503461000e5760207ffffffffffffffffffffffffffffffffffffffffffffffffffffffffffffffffc36011261000e57610902610ed56004356141c2565b604051918291602083526020830190610c65565b507f4e487b7100000000000000000000000000000000000000000000000000000000600052604160045260246000fd5b67ffffffffffffffff8111610f2d57604052565b610f35610ee9565b604052565b60c0810190811067ffffffffffffffff821117610f2d57604052565b6020810190811067ffffffffffffffff821117610f2d57604052565b90601f7fffffffffffffffffffffffffffffffffffffffffffffffffffffffffffffffe0910116810190811067ffffffffffffffff821117610f2d57604052565b60405190610120820182811067ffffffffffffffff821117610f2d57604052565b60209067ffffffffffffffff8111610fee575b60051b0190565b610ff6610ee9565b610fe7565b81601f8201121561000e5780359161101283610fd4565b926110206040519485610f72565b808452602092838086019260051b82010192831161000e578301905b82821061104a575050505090565b8135815290830190830161103c565b92919267ffffffffffffffff82116110bf575b604051916110a260207fffffffffffffffffffffffffffffffffffffffffffffffffffffffffffffffe0601f8401160184610f72565b82948184528183011161000e578281602093846000960137010152565b6110c7610ee9565b61106c565b9080601f8301121561000e5781602061088693359101611059565b503461000e5760a07ffffffffffffffffffffffffffffffffffffffffffffffffffffffffffffffffc36011261000e5760043561112381610362565b6024359061113082610362565b67ffffffffffffffff9160443583811161000e57611152903690600401610ffb565b60643584811161000e5761116a903690600401610ffb565b9160843594851161000e5761118661053d9536906004016110cc565b93614f80565b503461000e576040807ffffffffffffffffffffffffffffffffffffffffffffffffffffffffffffffffc36011261000e57600435906112436024356111d081610362565b61123e60009480865261012d806020526111ef60018789200154612fc4565b8187528060205260ff61122485888a209073ffffffffffffffffffffffffffffffffffffffff16600052602052604060002090565b541615611247575b5060005261015f602052604060002090565b6138c2565b5051f35b818752602052611279838688209073ffffffffffffffffffffffffffffffffffffffff16600052602052604060002090565b60017fffffffffffffffffffffffffffffffffffffffffffffffffffffffffffffff008254161790553373ffffffffffffffffffffffffffffffffffffffff8416827f2f8788117e7eff1d82e926ec794901d17c78024a50270940304540a733656f0d898951a43861122c565b503461000e5760407ffffffffffffffffffffffffffffffffffffffffffffffffffffffffffffffffc36011261000e5760243561132281610362565b3373ffffffffffffffffffffffffffffffffffffffff82160361134b5761053d906004356130af565b60846040517f08c379a000000000000000000000000000000000000000000000000000000000815260206004820152602f60248201527f416363657373436f6e74726f6c3a2063616e206f6e6c792072656e6f756e636560448201527f20726f6c657320666f722073656c6600000000000000000000000000000000006064820152fd5b503461000e5760007ffffffffffffffffffffffffffffffffffffffffffffffffffffffffffffffffc36011261000e57611407612d16565b60975460ff811615611464577fffffffffffffffffffffffffffffffffffffffffffffffffffffffffffffff00166097557f5db9ee0a495bf2e6ff9c91a7834c1ba4fdd244a5e8aa4e537bd38aeae4b073aa6020604051338152a1005b60646040517f08c379a000000000000000000000000000000000000000000000000000000000815260206004820152601460248201527f5061757361626c653a206e6f74207061757365640000000000000000000000006044820152fd5b90815180825260208080930193019160005b8281106114e2575050505090565b8351855293810193928101926001016114d4565b9060206108869281815201906114c2565b503461000e5760407ffffffffffffffffffffffffffffffffffffffffffffffffffffffffffffffffc36011261000e5760043567ffffffffffffffff80821161000e573660238301121561000e57816004013561156381610fd4565b926115716040519485610f72565b81845260209160248386019160051b8301019136831161000e57602401905b8282106115c9578560243586811161000e57610902916115b76115bd923690600401610ffb565b906133db565b604051918291826114f6565b83809183356115d781610362565b815201910190611590565b503461000e5760207ffffffffffffffffffffffffffffffffffffffffffffffffffffffffffffffffc36011261000e5760043560005260fb60205260206040600020541515604051908152f35b503461000e5760007ffffffffffffffffffffffffffffffffffffffffffffffffffffffffffffffffc36011261000e5760206040517fb281fc8c12954d22544db45de3159a39272895b169a852b314f9cc762e44c53b8152f35b503461000e5760007ffffffffffffffffffffffffffffffffffffffffffffffffffffffffffffffffc36011261000e57602060ff609754166040519015158152f35b503461000e5760407ffffffffffffffffffffffffffffffffffffffffffffffffffffffffffffffffc36011261000e57602061060060243561170c81610362565b6004356143d7565b503461000e5760207ffffffffffffffffffffffffffffffffffffffffffffffffffffffffffffffffc36011261000e576020610600600435614361565b503461000e576000807ffffffffffffffffffffffffffffffffffffffffffffffffffffffffffffffffc36011261180a5761019390815491611792836132d4565b90825b82518110156117f45780856117e29210156117e7575b828552807ffc8af01f449989052b52093a58fc9f42d0b11f0c6dd5dca0463dab62346ccc6801546117dc82866133b9565b52613353565b611795565b6117ef613389565b6117ab565b60405160208082528190610902908201866114c2565b80fd5b503461000e5760407ffffffffffffffffffffffffffffffffffffffffffffffffffffffffffffffffc36011261000e5760c061185760043561184e81610362565b60243590614090565b6118ac604051809260a0809173ffffffffffffffffffffffffffffffffffffffff8151168452602081015160208501526040810151604085015260608101516060850152608081015160808501520151910152565bf35b6020908160408183019282815285518094520193019160005b8281106118d5575050505090565b909192938260c082611932600194895160a0809173ffffffffffffffffffffffffffffffffffffffff8151168452602081015160208501526040810151604085015260608101516060850152608081015160808501520151910152565b019501939291016118c7565b503461000e5760407ffffffffffffffffffffffffffffffffffffffffffffffffffffffffffffffffc36011261000e5760043561197a81610362565b60243567ffffffffffffffff811161000e5761199a903690600401610ffb565b8051917fffffffffffffffffffffffffffffffffffffffffffffffffffffffffffffffe06119e06119ca85610fd4565b946119d86040519687610f72565b808652610fd4565b0160005b818110611a5957505060005b8251811015611a4b5780611a296003611a21611a0f611a3295886133b9565b51600052610192602052604060002090565b015460ff1690565b611a3757613353565b6119f0565b610e61611a4482866133b9565b5184614090565b6040518061090286826118ae565b602090611a6461405e565b828288010152016119e4565b503461000e5760207ffffffffffffffffffffffffffffffffffffffffffffffffffffffffffffffffc36011261000e5760206106006004356142ea565b503461000e576000807ffffffffffffffffffffffffffffffffffffffffffffffffffffffffffffffffc36011261180a57611ae6613df2565b80611c7a575b611afc611af7613c3e565b613e8b565b611b04613d54565b611b0c613d54565b611b14613d54565b611b1c613d54565b611b24613e50565b611b2c613d54565b611b3533612a08565b611b3e33612b04565b611b4733612c20565b611b5033612c9b565b611b586144e6565b731820a4b7618bde71dce8cdc73aab6c95905fad24803b15611c76576040517f29965a1d00000000000000000000000000000000000000000000000000000000815230600482018190527fb281fc8c12954d22544db45de3159a39272895b169a852b314f9cc762e44c53b602483015260448201529083908290606490829084905af18015611c69575b611c50575b50611bf157604051f35b611c1e7fffffffffffffffffffffffffffffffffffffffffffffffffffffffffffff00ff60005416600055565b604051600181527f7f26b83ff96e1f2b6a682f133852f6798a09c465da95921460cefb384740249890602090a1604051f35b80611c5d611c6392610f19565b80610789565b38611be7565b611c71613cbc565b611be2565b8280fd5b6101007fffffffffffffffffffffffffffffffffffffffffffffffffffffffffffff00ff835416178255611aec565b503461000e5760007ffffffffffffffffffffffffffffffffffffffffffffffffffffffffffffffffc36011261000e57611ce1612d16565b60017fffffffffffffffffffffffffffffffffffffffffffffffffffffffffffffff00609754611d1460ff821615614481565b16176097557f62e78cea01bee320cd4e420270b5ea74000d11b0c9f74754ebdbfc544b05a2586020604051338152a1005b503461000e5760407ffffffffffffffffffffffffffffffffffffffffffffffffffffffffffffffffc36011261000e5760043560005261015f602052602073ffffffffffffffffffffffffffffffffffffffff611da860243560406000206138e2565b9190546040519260031b1c168152f35b503461000e5760407ffffffffffffffffffffffffffffffffffffffffffffffffffffffffffffffffc36011261000e57602060ff611e30602435611dfb81610362565b60043560005261012d845260406000209073ffffffffffffffffffffffffffffffffffffffff16600052602052604060002090565b54166040519015158152f35b7ffffffffffffffffffffffffffffffffffffffffffffffffffffffffffffffffc604091011261000e57600435611e7281610362565b9060243561088681610362565b503461000e57611e8e36611e3c565b90611e97612e38565b73ffffffffffffffffffffffffffffffffffffffff7fffffffffffffffffffffffff000000000000000000000000000000000000000091816101959116838254161790556101969216908254161790556000604051f35b503461000e5760407ffffffffffffffffffffffffffffffffffffffffffffffffffffffffffffffffc36011261000e5760043560005261019160205260406000206024356000526020526020604060002054604051908152f35b503461000e5760007ffffffffffffffffffffffffffffffffffffffffffffffffffffffffffffffffc36011261000e57602060405160008152f35b8015150361000e57565b503461000e5760407ffffffffffffffffffffffffffffffffffffffffffffffffffffffffffffffffc36011261000e57600435611fc981610362565b602435611fd581611f83565b73ffffffffffffffffffffffffffffffffffffffff8216918233146120885781612026612056926104d63373ffffffffffffffffffffffffffffffffffffffff166000526066602052604060002090565b9060ff7fffffffffffffffffffffffffffffffffffffffffffffffffffffffffffffff0083541691151516179055565b604051901515815233907f17307eab39ab6107e8899845ad3d59bd9653f200f220920489ca2b5937696c3190602090a3005b60846040517f08c379a000000000000000000000000000000000000000000000000000000000815260206004820152602960248201527f455243313135353a2073657474696e6720617070726f76616c2073746174757360448201527f20666f722073656c6600000000000000000000000000000000000000000000006064820152fd5b503461000e5760007ffffffffffffffffffffffffffffffffffffffffffffffffffffffffffffffffc36011261000e5760206040517f813b9efdf6afe6b57682eb1fb850711edc34da21ae7f7376cb7a391b1be3239f8152f35b503461000e5760207ffffffffffffffffffffffffffffffffffffffffffffffffffffffffffffffffc36011261000e5760043560005260fb6020526020604060002054604051908152f35b503461000e5760607ffffffffffffffffffffffffffffffffffffffffffffffffffffffffffffffffc36011261000e576044356121f360ff6097541615614481565b6121fb612e38565b80156122285760043560005261019160205260406000206024356000526020526040600020556000604051f35b60046040517f98eb4124000000000000000000000000000000000000000000000000000000008152fd5b503461000e5760207ffffffffffffffffffffffffffffffffffffffffffffffffffffffffffffffffc36011261000e5760043560005261015f6020526020604060002054604051908152f35b503461000e5760407ffffffffffffffffffffffffffffffffffffffffffffffffffffffffffffffffc36011261000e5761053d6024356004356122e082610362565b8060005261012d6020526122fb600160406000200154612fc4565b6130af565b503461000e5760607ffffffffffffffffffffffffffffffffffffffffffffffffffffffffffffffffc36011261000e5767ffffffffffffffff6004803582811161000e576123519036908301610c34565b9260243581811161000e576123699036908501610c34565b93909160443590811161000e576123839036908301610c34565b95909161239560ff6097541615614481565b61239d612f1a565b858203612495578682036123fa575060005b8181106123b857005b806123f06123d26123cd6123f594868a6142d2565b6154b6565b6123dd838a896142d2565b356123e9848c896142d2565b35916159be565b613353565b6123af565b610588906040519182917f616c411300000000000000000000000000000000000000000000000000000000835282016040808252600c908201527f66726f6d4163636f756e7473000000000000000000000000000000000000000060608201526080602082018190526007908201527f616d6f756e74730000000000000000000000000000000000000000000000000060a082015260c00190565b610588906040519182917f616c411300000000000000000000000000000000000000000000000000000000835282016040808252600c908201527f66726f6d4163636f756e747300000000000000000000000000000000000000006060820152608060208201819052600a908201527f72656d6f76616c4964730000000000000000000000000000000000000000000060a082015260c00190565b503461000e5760007ffffffffffffffffffffffffffffffffffffffffffffffffffffffffffffffffc36011261000e5760206040517f65d7a28e3265b37a6474929f336521b332c1681b933f6cb9f3376673440d862a8152f35b503461000e57602060ff611e3073ffffffffffffffffffffffffffffffffffffffff6125b536611e3c565b91166000526066845260406000209073ffffffffffffffffffffffffffffffffffffffff16600052602052604060002090565b503461000e5760a07ffffffffffffffffffffffffffffffffffffffffffffffffffffffffffffffffc36011261000e5760043561262481610362565b60243561263081610362565b6064359160443560843567ffffffffffffffff811161000e576126579036906004016110cc565b9173ffffffffffffffffffffffffffffffffffffffff93848216943386148015612760575b156126dc576126916126b395888685876148a9565b6126a684600052610192602052604060002090565b966126c6575b50506131fa565b156126ba57005b600661053d9201613b3c565b6126d49116600687016139dd565b5038806126ac565b60846040517f08c379a000000000000000000000000000000000000000000000000000000000815260206004820152602960248201527f455243313135353a2063616c6c6572206973206e6f74206f776e6572206e6f7260448201527f20617070726f76656400000000000000000000000000000000000000000000006064820152fd5b5085600052606660205260ff61279a3360406000209073ffffffffffffffffffffffffffffffffffffffff16600052602052604060002090565b541661267c565b503461000e5760207ffffffffffffffffffffffffffffffffffffffffffffffffffffffffffffffffc36011261000e576004356127e360ff6097541615614481565b6127eb612f6f565b80600052610192602052604060ff6003826000200154161561280957005b61282c610b696101965473ffffffffffffffffffffffffffffffffffffffff1690565b916080825180947f99d5121b000000000000000000000000000000000000000000000000000000008252818061286a86600483019190602083019252565b03915afa9283156129fb575b6000936129cb575b5061288b8351151561588f565b73ffffffffffffffffffffffffffffffffffffffff6128c1602085015173ffffffffffffffffffffffffffffffffffffffff1690565b16156129a2577fc6bf85d136b95579125a47c9781847cacd55015777db8a853dd17946aed35fb260016000946128fe6128f985613946565b6158f4565b61291384600052610192602052604060002090565b61298a6129418784015160608501519060005261019160205260406000209060005260205260406000205490565b9261294d841515615959565b61297f6003840160017fffffffffffffffffffffffffffffffffffffffffffffffffffffffffffffff00825416179055565b519283835583613514565b920182905584519081526020810191909152604090a2005b600482517fd8707052000000000000000000000000000000000000000000000000000000008152fd5b6129ed91935060803d81116129f4575b6129e58183610f72565b8101906154cf565b913861287e565b503d6129db565b612a03613cbc565b612876565b73ffffffffffffffffffffffffffffffffffffffff81811660009081527fa581b17bfc4d6578e300cafbf34fd2dc1fef0270d8c73f88a99dcde2859a6639602052604080822054612a769493929061012d9060ff1615612a79575b5080805261015f602052209116906139dd565b50565b818052602052612aab848383209073ffffffffffffffffffffffffffffffffffffffff16600052602052604060002090565b60017fffffffffffffffffffffffffffffffffffffffffffffffffffffffffffffff0082541617905533838516827f2f8788117e7eff1d82e926ec794901d17c78024a50270940304540a733656f0d818651a438612a63565b73ffffffffffffffffffffffffffffffffffffffff80821660009081527f55486b541b787b137d2518cb415b5b8cdd60981a80e62dcbf2f89b19327ff4576020526040808220612a76949392907f65d7a28e3265b37a6474929f336521b332c1681b933f6cb9f3376673440d862a9061012d9060ff905b541615612b95575b50815261015f602052209116906139dd565b818352602052612bc7858484209073ffffffffffffffffffffffffffffffffffffffff16600052602052604060002090565b60017fffffffffffffffffffffffffffffffffffffffffffffffffffffffffffffff0082541617905533848616827f2f8788117e7eff1d82e926ec794901d17c78024a50270940304540a733656f0d858751a438612b83565b73ffffffffffffffffffffffffffffffffffffffff80821660009081527fa7e0e921240e801e52929eec8f96d273bce3c8afd31cfd6928968687038202ef6020526040808220612a76949392907fb62aeb2ef35a3718e51a7e8b0b0d8e6fa690a4037bf45dad308976da469a861c9061012d9060ff90612b7b565b73ffffffffffffffffffffffffffffffffffffffff80821660009081527fbb695756976789dbf69ac8506c5b1850deea10a5c59f066caca02188e267e3946020526040808220612a76949392907f813b9efdf6afe6b57682eb1fb850711edc34da21ae7f7376cb7a391b1be3239f9061012d9060ff90612b7b565b3360009081527f55486b541b787b137d2518cb415b5b8cdd60981a80e62dcbf2f89b19327ff457602052604090205460ff1615612d4f57565b6105886048612e06612d6033613644565b612dda612d6b6136ee565b6040519485937f416363657373436f6e74726f6c3a206163636f756e74200000000000000000006020860152612dab8151809260206037890191016107fd565b84017f206973206d697373696e6720726f6c652000000000000000000000000000000060378201520190613098565b037fffffffffffffffffffffffffffffffffffffffffffffffffffffffffffffffe08101835282610f72565b6040519182917f08c379a000000000000000000000000000000000000000000000000000000000835260048301610875565b3360009081527fa581b17bfc4d6578e300cafbf34fd2dc1fef0270d8c73f88a99dcde2859a6639602052604090205460ff1615612e7157565b612e7a33613644565b6000612e84613533565b906030612e908361356d565b536078612e9c83613583565b5360415b60018111612ebf576105886048612e0686612dda87612d6b88156135df565b90807f3031323334353637383961626364656600000000000000000000000000000000600f612f0893166010811015612f0d575b1a612efe8486613594565b5360041c916135b3565b612ea0565b612f15613389565b612ef3565b3360009081527fbb695756976789dbf69ac8506c5b1850deea10a5c59f066caca02188e267e394602052604090205460ff1615612f5357565b6105886048612e06612f6433613644565b612dda612d6b61378a565b3360009081527fa7e0e921240e801e52929eec8f96d273bce3c8afd31cfd6928968687038202ef602052604090205460ff1615612fa857565b6105886048612e06612fb933613644565b612dda612d6b613826565b8060005261012d60205260ff612ffe3360406000209073ffffffffffffffffffffffffffffffffffffffff16600052602052604060002090565b5416156130085750565b61301133613644565b9061301a613533565b9060306130268361356d565b53607861303283613583565b5360415b60018111613055576105886048612e0686612dda87612d6b88156135df565b90807f3031323334353637383961626364656600000000000000000000000000000000600f61309393166010811015612f0d571a612efe8486613594565b613036565b906130ab602092828151948592016107fd565b0190565b9073ffffffffffffffffffffffffffffffffffffffff6040612a769360009080825261012d8060205260ff613106878686209073ffffffffffffffffffffffffffffffffffffffff16600052602052604060002090565b541661311f575b50815261015f60205220911690613b3c565b818352602052613151858484209073ffffffffffffffffffffffffffffffffffffffff16600052602052604060002090565b7fffffffffffffffffffffffffffffffffffffffffffffffffffffffffffffff00815416905533848616827ff6391f5c32d9c69d2a47ea670b442974b53935d1edc7fd64eb21e047a839171b858751a43861310d565b90600182811c921680156131f0575b60208310146131c157565b7f4e487b7100000000000000000000000000000000000000000000000000000000600052602260045260246000fd5b91607f16916131b6565b73ffffffffffffffffffffffffffffffffffffffff8116156132505761324c91600052606560205260406000209073ffffffffffffffffffffffffffffffffffffffff16600052602052604060002090565b5490565b60846040517f08c379a000000000000000000000000000000000000000000000000000000000815260206004820152602b60248201527f455243313135353a2062616c616e636520717565727920666f7220746865207a60448201527f65726f20616464726573730000000000000000000000000000000000000000006064820152fd5b906132de82610fd4565b6132eb6040519182610f72565b8281527fffffffffffffffffffffffffffffffffffffffffffffffffffffffffffffffe06133198294610fd4565b0190602036910137565b507f4e487b7100000000000000000000000000000000000000000000000000000000600052601160045260246000fd5b6001907fffffffffffffffffffffffffffffffffffffffffffffffffffffffffffffffff8114613381570190565b6130ab613323565b507f4e487b7100000000000000000000000000000000000000000000000000000000600052603260045260246000fd5b60209181518110156133ce575b60051b010190565b6133d6613389565b6133c6565b9190918051835103613453576133f181516132d4565b9060005b815181101561344c578061343d61342c61341261344794866133b9565b5173ffffffffffffffffffffffffffffffffffffffff1690565b61343683896133b9565b51906131fa565b6117dc82866133b9565b6133f5565b5090925050565b60846040517f08c379a000000000000000000000000000000000000000000000000000000000815260206004820152602960248201527f455243313135353a206163636f756e747320616e6420696473206c656e67746860448201527f206d69736d6174636800000000000000000000000000000000000000000000006064820152fd5b807fffffffffffffffffffffffffffffffffffffffffffffffffffffffffffffffff04821181151516613508570290565b613510613323565b0290565b81198111613381570190565b6040519061352d82610f56565b60008252565b604051906080820182811067ffffffffffffffff821117613560575b604052604282526060366020840137565b613568610ee9565b61354f565b60209080511561357b570190565b6130ab613389565b60219080516001101561357b570190565b9060209180518210156135a657010190565b6135ae613389565b010190565b7fffffffffffffffffffffffffffffffffffffffffffffffffffffffffffffffff908015613381570190565b156135e657565b60646040517f08c379a000000000000000000000000000000000000000000000000000000000815260206004820152602060248201527f537472696e67733a20686578206c656e67746820696e73756666696369656e746044820152fd5b604051906060820182811067ffffffffffffffff8211176136e1575b604052602a82526040366020840137603061367a8361356d565b53607861368683613583565b536029905b6001821161369e576108869150156135df565b807f3031323334353637383961626364656600000000000000000000000000000000600f6136db93166010811015612f0d571a612efe8486613594565b9061368b565b6136e9610ee9565b613660565b7f65d7a28e3265b37a6474929f336521b332c1681b933f6cb9f3376673440d862a613717613533565b9060306137238361356d565b53607861372f83613583565b536041905b60018211613747576108869150156135df565b807f3031323334353637383961626364656600000000000000000000000000000000600f61378493166010811015612f0d571a612efe8486613594565b90613734565b7f813b9efdf6afe6b57682eb1fb850711edc34da21ae7f7376cb7a391b1be3239f6137b3613533565b9060306137bf8361356d565b5360786137cb83613583565b536041905b600182116137e3576108869150156135df565b807f3031323334353637383961626364656600000000000000000000000000000000600f61382093166010811015612f0d571a612efe8486613594565b906137d0565b7fb62aeb2ef35a3718e51a7e8b0b0d8e6fa690a4037bf45dad308976da469a861c61384f613533565b90603061385b8361356d565b53607861386783613583565b536041905b6001821161387f576108869150156135df565b807f3031323334353637383961626364656600000000000000000000000000000000600f6138bc93166010811015612f0d571a612efe8486613594565b9061386c565b73ffffffffffffffffffffffffffffffffffffffff6108869216906139dd565b80548210156138fb575b60005260206000200190600090565b613903613389565b6138ec565b916139429183549060031b7fffffffffffffffffffffffffffffffffffffffffffffffffffffffffffffffff811b9283911b169119161790565b9055565b8060005261019480602052604060002054156000146139d657610193828154680100000000000000008110156139c9575b600181018084558110156139bc575b7ffc8af01f449989052b52093a58fc9f42d0b11f0c6dd5dca0463dab62346ccc6801555491600052602052604060002055600190565b6139c4613389565b613986565b6139d1610ee9565b613977565b5050600090565b6001810190826000528160205260406000205415600014613a785782613a56613a1f835468010000000000000000811015613a6b575b600181018555846138e2565b819391549060031b7fffffffffffffffffffffffffffffffffffffffffffffffffffffffffffffffff811b9283911b169119161790565b90555491600052602052604060002055600190565b613a73610ee9565b613a13565b505050600090565b7fffffffffffffffffffffffffffffffffffffffffffffffffffffffffffffffff9060018110613381570190565b818110613ab9570390565b613ac1613323565b0390565b8054908115613b0d577fffffffffffffffffffffffffffffffffffffffffffffffffffffffffffffffff80920191613afd83836138e2565b909182549160031b1b1916905555565b7f4e487b7100000000000000000000000000000000000000000000000000000000600052603160045260246000fd5b6001810191806000528260205260406000205492831515600014613c2157613baf613bbe9385600160009710613c14575b7fffffffffffffffffffffffffffffffffffffffffffffffffffffffffffffffff80820190835460018110613c07575b0190808203613bc4575b505050613ac5565b90600052602052604060002090565b55600190565b613bee613be891613bd8613bfe94876138e2565b90549060031b1c928391876138e2565b90613908565b8590600052602052604060002090565b55388080613ba7565b613c0f613323565b613b9d565b613c1c613323565b613b6d565b50505050600090565b90613c34916138e2565b90549060031b1c90565b604051906060820182811067ffffffffffffffff821117613caf575b604052603282527f7363686564756c652f7b69647d2e6a736f6e00000000000000000000000000006040837f68747470733a2f2f6e6f72692e636f6d2f6170692f7265737472696374696f6e60208201520152565b613cb7610ee9565b613c5a565b506040513d6000823e3d90fd5b15613cd057565b60846040517f08c379a000000000000000000000000000000000000000000000000000000000815260206004820152602b60248201527f496e697469616c697a61626c653a20636f6e7472616374206973206e6f74206960448201527f6e697469616c697a696e670000000000000000000000000000000000000000006064820152fd5b613d6560ff60005460081c16613cc9565b565b15613d6e57565b60846040517f08c379a000000000000000000000000000000000000000000000000000000000815260206004820152602e60248201527f496e697469616c697a61626c653a20636f6e747261637420697320616c72656160448201527f647920696e697469616c697a65640000000000000000000000000000000000006064820152fd5b60005460ff8160081c16600014613e145750613e0f303b15613d67565b600090565b7fffffffffffffffffffffffffffffffffffffffffffffffffffffffffffffff0081613e46600160ff81951610613d67565b1617600055600190565b613e6160ff60005460081c16613cc9565b7fffffffffffffffffffffffffffffffffffffffffffffffffffffffffffffff0060975416609755565b90613e9d60ff60005460081c16613cc9565b815167ffffffffffffffff8111613fe0575b613ec381613ebe6067546131a7565b613fed565b602080601f8311600114613f1c5750819293600092613f11575b50507fffffffffffffffffffffffffffffffffffffffffffffffffffffffffffffffff8260011b9260031b1c191617606755565b015190503880613edd565b907fffffffffffffffffffffffffffffffffffffffffffffffffffffffffffffffe0831694613f6d60676000527f9787eeb91fe3101235e4a76063c7023ecb40f923f97916639c598592fa30d6ae90565b926000905b878210613fc8575050836001959610613f91575b505050811b01606755565b01517fffffffffffffffffffffffffffffffffffffffffffffffffffffffffffffffff60f88460031b161c19169055388080613f86565b80600185968294968601518155019501930190613f72565b613fe8610ee9565b613eaf565b601f8111613ff9575050565b600090606782527f9787eeb91fe3101235e4a76063c7023ecb40f923f97916639c598592fa30d6ae906020601f850160051c83019410614054575b601f0160051c01915b82811061404957505050565b81815560010161403d565b9092508290614034565b6040519061406b82610f3a565b8160a06000918281528260208201528260408201528260608201528260808201520152565b9061409961405e565b508060005261019260205260406000206140b382846131fa565b6140bd84846143d7565b906141198560096140f182600888019073ffffffffffffffffffffffffffffffffffffffff16600052602052604060002090565b5495019073ffffffffffffffffffffffffffffffffffffffff16600052602052604060002090565b549373ffffffffffffffffffffffffffffffffffffffff6040519661413d88610f3a565b168652602086015260408501526060840152608083015260a082015290565b60405190610120820182811067ffffffffffffffff8211176141b5575b604052816101006000918281528260208201528260408201528260608201528260808201528260a08201528260c0820152606060e08201520152565b6141bd610ee9565b614179565b6141ca61415c565b506141e081600052610192602052604060002090565b6006810180546141ef816132d4565b916141f9826132d4565b9060005b8381106142865750505050906108869181549160018101546142298660005260fb602052604060002090565b5461423387614361565b9060028401549261424d6003600487015496015460ff1690565b96614256610fb3565b998a5260208a015260408901526060880152608087015260a086015260c085015260e08401521515610100830152565b806142c261429d610b69610b696142cd9587613c2a565b6142a783896133b9565b9073ffffffffffffffffffffffffffffffffffffffff169052565b876117dc82866133b9565b6141fd565b91908110156142e25760051b0190565b610ff6613389565b8060005261019260205260406000209060ff600383015416156143305780600561431b6143249360028601546162c5565b93015490616226565b90818110613ab9570390565b602490604051907f25f878170000000000000000000000000000000000000000000000000000000082526004820152fd5b8060005261019260205260406000209060ff600383015416156143305761438f600291600584015490616226565b91015490818110613ab9570390565b81156143a8570490565b7f4e487b7100000000000000000000000000000000000000000000000000000000600052601260045260246000fd5b90816000526101926020526040600020906002820154916143f884846162c5565b9161440385826131fa565b9083158015614479575b1561441d57505050505050600090565b613aae9461446861446161445a61446e94600861447498019073ffffffffffffffffffffffffffffffffffffffff16600052602052604060002090565b5498614361565b9388613514565b92613514565b906134d7565b61439e565b50811561440d565b1561448857565b60646040517f08c379a000000000000000000000000000000000000000000000000000000000815260206004820152601060248201527f5061757361626c653a20706175736564000000000000000000000000000000006044820152fd5b6144f560ff6097541615614481565b6144fd612e38565b600080527f49aa398779aece700a6e74ca97831c5307f698773f06898c0bb99bd02acc46e26020526312cf35707f40d4194f43de61e2c4a50a5fd419319106139f7f895a8f41ee1e09971f71d76755565b9081602091031261000e575161088681611f83565b1561456a57565b60846040517f08c379a0000000000000000000000000000000000000000000000000000000008152602060048201526024808201527f455243313135353a206275726e20616d6f756e7420657863656564732062616c60448201527f616e6365000000000000000000000000000000000000000000000000000000006064820152fd5b919073ffffffffffffffffffffffffffffffffffffffff83169182156146bf576146b47fc3d58168c5ae7397731d063d5bbf3d657854427343f4c083240f7aacaa2d0f629160009561465b61464186614743565b61464a84614743565b90614653613520565b508333615d4d565b61469a82614677836104d6896000526065602052604060002090565b5461468482821015614563565b03916104d6876000526065602052604060002090565b556040805194855260208501919091523393918291820190565b0390a4612a76613520565b60846040517f08c379a000000000000000000000000000000000000000000000000000000000815260206004820152602360248201527f455243313135353a206275726e2066726f6d20746865207a65726f206164647260448201527f65737300000000000000000000000000000000000000000000000000000000006064820152fd5b604051906040820182811067ffffffffffffffff821117614786575b6040526001825260208201602036823782511561477a575290565b614782613389565b5290565b61478e610ee9565b61475f565b1561479a57565b60846040517f08c379a000000000000000000000000000000000000000000000000000000000815260206004820152602560248201527f455243313135353a207472616e7366657220746f20746865207a65726f20616460448201527f64726573730000000000000000000000000000000000000000000000000000006064820152fd5b1561482557565b60846040517f08c379a000000000000000000000000000000000000000000000000000000000815260206004820152602a60248201527f455243313135353a20696e73756666696369656e742062616c616e636520666f60448201527f72207472616e73666572000000000000000000000000000000000000000000006064820152fd5b9192909273ffffffffffffffffffffffffffffffffffffffff948585166148d1811515614793565b6148ef6148dd84614743565b6148e686614743565b90888833615ef9565b6000958387526065602052816040988661492b898c8c209073ffffffffffffffffffffffffffffffffffffffff16600052602052604060002090565b546149388282101561481e565b878b5260656020520361496d898c8c209073ffffffffffffffffffffffffffffffffffffffff16600052602052604060002090565b55614986836104d6886000526065602052604060002090565b614991888254613514565b90558951868152602081018890529088169033907fc3d58168c5ae7397731d063d5bbf3d657854427343f4c083240f7aacaa2d0f6290604090a43b6149da575b50505050505050565b614a1a93866020948951968795869485937ff23a6e61000000000000000000000000000000000000000000000000000000009b8c86523360048701614c5a565b03925af1839181614bd5575b50614b23575050600190614a38614c9c565b6308c379a014614ad9575b50614a5657505b388080808080806149d1565b517f08c379a000000000000000000000000000000000000000000000000000000000815260206004820152603460248201527f455243313135353a207472616e7366657220746f206e6f6e204552433131353560448201527f526563656976657220696d706c656d656e7465720000000000000000000000006064820152608490fd5b614ae1614cba565b9081614aed5750614a43565b5082517f08c379a00000000000000000000000000000000000000000000000000000000081529081906105889060048301610875565b7fffffffff0000000000000000000000000000000000000000000000000000000016039050614b525750614a4a565b517f08c379a000000000000000000000000000000000000000000000000000000000815260206004820152602860248201527f455243313135353a204552433131353552656365697665722072656a6563746560448201527f6420746f6b656e730000000000000000000000000000000000000000000000006064820152608490fd5b614bf791925060203d8111614bfe575b614bef8183610f72565b810190614c05565b9038614a26565b503d614be5565b9081602091031261000e575161088681610608565b909260a09273ffffffffffffffffffffffffffffffffffffffff610886969516835260006020840152604083015260608201528160808201520190610832565b919261088695949160a09473ffffffffffffffffffffffffffffffffffffffff8092168552166020840152604083015260608201528160808201520190610832565b60009060033d11614ca957565b905060046000803e60005160e01c90565b600060443d10610886576040517ffffffffffffffffffffffffffffffffffffffffffffffffffffffffffffffffc91823d016004833e815167ffffffffffffffff918282113d602484011117614d3657818401948551938411614d3e573d85010160208487010111614d36575061088692910160200190610f72565b949350505050565b50949350505050565b9390803b614d57575b5050505050565b614dad93600073ffffffffffffffffffffffffffffffffffffffff602095604051978896879586937ff23a6e61000000000000000000000000000000000000000000000000000000009c8d865260048601614c1a565b0393165af160009181614f60575b50614eb45750506001614dcc614c9c565b6308c379a014614e6b575b614de6575b3880808080614d50565b6040517f08c379a000000000000000000000000000000000000000000000000000000000815260206004820152603460248201527f455243313135353a207472616e7366657220746f206e6f6e204552433131353560448201527f526563656976657220696d706c656d656e7465720000000000000000000000006064820152608490fd5b614e73614cba565b80614e7e5750614dd7565b610588906040519182917f08c379a000000000000000000000000000000000000000000000000000000000835260048301610875565b7fffffffff000000000000000000000000000000000000000000000000000000001614614ddc576040517f08c379a000000000000000000000000000000000000000000000000000000000815260206004820152602860248201527f455243313135353a204552433131353552656365697665722072656a6563746560448201527f6420746f6b656e730000000000000000000000000000000000000000000000006064820152608490fd5b614f7991925060203d8111614bfe57614bef8183610f72565b9038614dbb565b9493919073ffffffffffffffffffffffffffffffffffffffff8087169333851480156150c4575b1561504057614fb9908685858b6151b5565b60005b83518110156150365780614fd6611a0f61500893876133b9565b614fe082896133b9565b51615021575b86614ffb614ff484896133b9565b518c6131fa565b1561500d575b5050613353565b614fbc565b60066150199201613b3c565b503886615001565b615030848616600683016139dd565b50614fe6565b5050505050509050565b60846040517f08c379a000000000000000000000000000000000000000000000000000000000815260206004820152603260248201527f455243313135353a207472616e736665722063616c6c6572206973206e6f742060448201527f6f776e6572206e6f7220617070726f76656400000000000000000000000000006064820152fd5b5084600052606660205260ff6150fe3360406000209073ffffffffffffffffffffffffffffffffffffffff16600052602052604060002090565b5416614fa7565b1561510c57565b60846040517f08c379a000000000000000000000000000000000000000000000000000000000815260206004820152602860248201527f455243313135353a2069647320616e6420616d6f756e7473206c656e6774682060448201527f6d69736d617463680000000000000000000000000000000000000000000000006064820152fd5b90916151a7610886936040845260408401906114c2565b9160208184039101526114c2565b9394929190926151c88251845114615105565b73ffffffffffffffffffffffffffffffffffffffff958685166151ec811515614793565b6151f98585888a33615ef9565b60005b845181101561529057808861528461527c8a6104d68b61522a8761522361528b9a8f6133b9565b51926133b9565b519561526b87615248836104d6866000526065602052604060002090565b546152558282101561481e565b03916104d6846000526065602052604060002090565b556000526065602052604060002090565b918254613514565b9055613353565b6151fc565b50613d659691959297604051908316907f4a39dc06d4c0dbc64b70af90fd698a233a518aa5d07e595d983b8c0526c8f7fb3391806152cf8a8a83615190565b0390a433615334565b93906108869593615318916153269473ffffffffffffffffffffffffffffffffffffffff809216885216602087015260a0604087015260a08601906114c2565b9084820360608601526114c2565b916080818403910152610832565b9493919092813b615348575b505050505050565b600073ffffffffffffffffffffffffffffffffffffffff60209561539d604051988997889687947fbc197c81000000000000000000000000000000000000000000000000000000009d8e8752600487016152d8565b0393165af160009181615496575b506153ea57505060016153bc614c9c565b6308c379a0146153d7575b614de6575b388080808080615340565b6153df614cba565b80614e7e57506153c7565b7fffffffff0000000000000000000000000000000000000000000000000000000016146153cc576040517f08c379a000000000000000000000000000000000000000000000000000000000815260206004820152602860248201527f455243313135353a204552433131353552656365697665722072656a6563746560448201527f6420746f6b656e730000000000000000000000000000000000000000000000006064820152608490fd5b6154af91925060203d8111614bfe57614bef8183610f72565b90386153ab565b3561088681610362565b9081602091031261000e575190565b9081608091031261000e576060604051916080830183811067ffffffffffffffff821117615526575b60405280518352602081015161550d81610362565b6020840152604081015160408401520151606082015290565b61552e610ee9565b6154f8565b906155979291602061555e610b696101965473ffffffffffffffffffffffffffffffffffffffff1690565b91604051809681927fe0fc2938000000000000000000000000000000000000000000000000000000008352600483019190602083019252565b0381845afa938415615711575b6000946156db575b50602061562191608060405180927f99d5121b00000000000000000000000000000000000000000000000000000000825281806155f18b600483019190602083019252565b03915afa9081156156ce575b6000916156b0575b50015173ffffffffffffffffffffffffffffffffffffffff1690565b9061563f6105026003611a2187600052610192602052604060002090565b61567e576156726156789394615661600693615659613520565b90838761571e565b600052610192602052604060002090565b016138c2565b50600190565b6040517f25f8781700000000000000000000000000000000000000000000000000000000815260048101859052602490fd5b6156c8915060803d81116129f4576129e58183610f72565b38615605565b6156d6613cbc565b6155fd565b615621919450615702602091823d811161570a575b6156fa8183610f72565b8101906154c0565b9491506155ac565b503d6156f0565b615719613cbc565b6155a4565b9390919273ffffffffffffffffffffffffffffffffffffffff851693841561580b5761574984614743565b9361575382614743565b9661575c616116565b60005b865181101561579d5780615776615798928b6133b9565b5161528461527c615787848c6133b9565b5160005260fb602052604060002090565b61575f565b5091939650919350613d65946157c1826104d6856000526065602052604060002090565b6157cc858254613514565b9055604080518481526020810186905260009133917fc3d58168c5ae7397731d063d5bbf3d657854427343f4c083240f7aacaa2d0f629190a433614d47565b60846040517f08c379a000000000000000000000000000000000000000000000000000000000815260206004820152602160248201527f455243313135353a206d696e7420746f20746865207a65726f2061646472657360448201527f73000000000000000000000000000000000000000000000000000000000000006064820152fd5b1561589657565b60646040517f08c379a000000000000000000000000000000000000000000000000000000000815260206004820152601860248201527f496e76616c69645363686564756c65537461727454696d6500000000000000006044820152fd5b156158fb57565b60646040517f08c379a000000000000000000000000000000000000000000000000000000000815260206004820152600f60248201527f5363686564756c652065786973747300000000000000000000000000000000006044820152fd5b1561596057565b60646040517f08c379a000000000000000000000000000000000000000000000000000000000815260206004820152601c60248201527f5265737472696374696f6e206475726174696f6e206e6f7420736574000000006044820152fd5b90916159e3610b696101965473ffffffffffffffffffffffffffffffffffffffff1690565b6040517fe0fc29380000000000000000000000000000000000000000000000000000000081526004810185905292906020908190859060249082905afa938415615cf1575b600094615cd2575b50615a4684600052610192602052604060002090565b92615a58610502600386015460ff1690565b615ca057615a65856142ea565b8111615c6e578015615c5f575b615a7e60068501615cfe565b615a8881516132d4565b9460005b8251811015615aa95780886117dc615aa4938a6133b9565b615a8c565b5090919396959295615ac5615abe84516132d4565b96846133db565b98600097885b615ad58651613a80565b8a1015615b2857615b1c8a615b22928b8f615b0e8d615b16928e615b078f615b016134128b80936133b9565b936133b9565b51926161a6565b9384926133b9565b52613514565b99613353565b98615acb565b90949850615b3d9195969399929a5083613aae565b615b50615b4a8951613a80565b886133b9565b52600988019860005b8851811015615bd457808961528461527c8e615bab613412868f8f99615ba491615b9f615bcf9c615b8d613412858e6133b9565b90615b9885856133b9565b51916145ed565b6133b9565b51966133b9565b73ffffffffffffffffffffffffffffffffffffffff16600052602052604060002090565b615b59565b5091949297600491949950615c29975088965001615bf3858254613514565b905560405184815242907f4b9948901911c14ff8b417db5004be639f92f11be671b8b85219c5ff809b71ba908060208101610b43565b03925af18015615c52575b615c3c575050565b81612a7692903d10610c2057610c118183610f72565b615c5a613cbc565b615c34565b50615c69846142ea565b615a72565b6040517f610d283800000000000000000000000000000000000000000000000000000000815260048101869052602490fd5b6040517f25f8781700000000000000000000000000000000000000000000000000000000815260048101869052602490fd5b81615cea9295503d861161570a576156fa8183610f72565b9238615a30565b615cf9613cbc565b615a28565b9060405191828154918282526020928383019160005283600020936000905b828210615d3357505050613d6592500383610f72565b855484526001958601958895509381019390910190615d1d565b92909173ffffffffffffffffffffffffffffffffffffffff808416941684149460005b8251811015615e415786615d8482856133b9565b5190615dd7575b9081615da5615dd293600052610192602052604060002090565b90615dca60059182615dc282600052610192602052604060002090565b015490616226565b910155613353565b615d70565b615de182866133b9565b51615dec87836143d7565b1015615d8b576040517fe1b8b25f00000000000000000000000000000000000000000000000000000000815273ffffffffffffffffffffffffffffffffffffffff871660048201526024810191909152604490fd5b50939192509350615e50616116565b15615ec3575b60005b8351811015615ebd5780615e70615eb892866133b9565b51615eb2615e7e83866133b9565b51615e938360005260fb602052604060002090565b54615ea082821015615ffc565b039160005260fb602052604060002090565b55613353565b615e59565b50509050565b60005b8351811015615ef35780615edd615eee92846133b9565b5161528461527c61578784896133b9565b615ec6565b50615e56565b949392919073ffffffffffffffffffffffffffffffffffffffff958683161596879182615fed575b5050615f33575b613d65949550616087565b9291909360005b8251811015615fde5786615f4e82856133b9565b5190615f74575b9081615da5615f6f93600052610192602052604060002090565b615f3a565b615f7e82866133b9565b51615f8987836143d7565b1015615f55576040517fe1b8b25f00000000000000000000000000000000000000000000000000000000815273ffffffffffffffffffffffffffffffffffffffff871660048201526024810191909152604490fd5b50945084939192909190615f28565b83821691161496503880615f21565b1561600357565b60846040517f08c379a000000000000000000000000000000000000000000000000000000000815260206004820152602860248201527f455243313135353a206275726e20616d6f756e74206578636565647320746f7460448201527f616c537570706c790000000000000000000000000000000000000000000000006064820152fd5b9093929193616094616116565b73ffffffffffffffffffffffffffffffffffffffff809216156160dc575b16156160bd57509050565b60005b8351811015615ebd5780615e706160d792866133b9565b6160c0565b929060005b855181101561610e57806160f861610992866133b9565b5161528461527c615787848b6133b9565b6160e1565b5090926160b2565b60ff6097541661612257565b60846040517f08c379a000000000000000000000000000000000000000000000000000000000815260206004820152602c60248201527f455243313135355061757361626c653a20746f6b656e207472616e736665722060448201527f7768696c652070617573656400000000000000000000000000000000000000006064820152fd5b816000526101926020526161c360406000209260028401546162c5565b928315801561621e575b156161dc575050505050600090565b6108869461621361621992600861447496019073ffffffffffffffffffffffffffffffffffffffff16600052602052604060002090565b54613514565b6134d7565b5081156161cd565b90600091808352610192602052604083206001810154908142101560001461627257505061625e9060005260fb602052604060002090565b54915b5080821061626d575090565b905090565b8054918281106162b8575b8242106000146162935750505050815b91616261565b826162a86162b39560026144749501546162c5565b9103924203906134d7565b61628d565b6162c0613323565b61627d565b6108869160005260fb6020526040600020549061351456fea26469706673582212203bfbb78e0dfea7c1dc171dacc0e5f1231fedb7ceac9df6395aeb99774668c18664736f6c634300080f0033496e697469616c697a61626c653a20636f6e747261637420697320616c726561",
  "linkReferences": {},
  "deployedLinkReferences": {}
}