{
  "_format": "hh-sol-artifact-1",
  "contractName": "ERC777PresetPausablePermissioned",
  "sourceName": "contracts/deprecated/ERC777PresetPausablePermissioned.sol",
  "abi": [
    {
      "anonymous": false,
      "inputs": [
        {
          "indexed": true,
          "internalType": "address",
          "name": "owner",
          "type": "address"
        },
        {
          "indexed": true,
          "internalType": "address",
          "name": "spender",
          "type": "address"
        },
        {
          "indexed": false,
          "internalType": "uint256",
          "name": "value",
          "type": "uint256"
        }
      ],
      "name": "Approval",
      "type": "event"
    },
    {
      "anonymous": false,
      "inputs": [
        {
          "indexed": true,
          "internalType": "address",
          "name": "operator",
          "type": "address"
        },
        {
          "indexed": true,
          "internalType": "address",
          "name": "tokenHolder",
          "type": "address"
        }
      ],
      "name": "AuthorizedOperator",
      "type": "event"
    },
    {
      "anonymous": false,
      "inputs": [
        {
          "indexed": true,
          "internalType": "address",
          "name": "operator",
          "type": "address"
        },
        {
          "indexed": true,
          "internalType": "address",
          "name": "from",
          "type": "address"
        },
        {
          "indexed": false,
          "internalType": "uint256",
          "name": "amount",
          "type": "uint256"
        },
        {
          "indexed": false,
          "internalType": "bytes",
          "name": "data",
          "type": "bytes"
        },
        {
          "indexed": false,
          "internalType": "bytes",
          "name": "operatorData",
          "type": "bytes"
        }
      ],
      "name": "Burned",
      "type": "event"
    },
    {
      "anonymous": false,
      "inputs": [
        {
          "indexed": false,
          "internalType": "uint8",
          "name": "version",
          "type": "uint8"
        }
      ],
      "name": "Initialized",
      "type": "event"
    },
    {
      "anonymous": false,
      "inputs": [
        {
          "indexed": true,
          "internalType": "address",
          "name": "operator",
          "type": "address"
        },
        {
          "indexed": true,
          "internalType": "address",
          "name": "to",
          "type": "address"
        },
        {
          "indexed": false,
          "internalType": "uint256",
          "name": "amount",
          "type": "uint256"
        },
        {
          "indexed": false,
          "internalType": "bytes",
          "name": "data",
          "type": "bytes"
        },
        {
          "indexed": false,
          "internalType": "bytes",
          "name": "operatorData",
          "type": "bytes"
        }
      ],
      "name": "Minted",
      "type": "event"
    },
    {
      "anonymous": false,
      "inputs": [
        {
          "indexed": false,
          "internalType": "address",
          "name": "account",
          "type": "address"
        }
      ],
      "name": "Paused",
      "type": "event"
    },
    {
      "anonymous": false,
      "inputs": [
        {
          "indexed": true,
          "internalType": "address",
          "name": "operator",
          "type": "address"
        },
        {
          "indexed": true,
          "internalType": "address",
          "name": "tokenHolder",
          "type": "address"
        }
      ],
      "name": "RevokedOperator",
      "type": "event"
    },
    {
      "anonymous": false,
      "inputs": [
        {
          "indexed": true,
          "internalType": "bytes32",
          "name": "role",
          "type": "bytes32"
        },
        {
          "indexed": true,
          "internalType": "bytes32",
          "name": "previousAdminRole",
          "type": "bytes32"
        },
        {
          "indexed": true,
          "internalType": "bytes32",
          "name": "newAdminRole",
          "type": "bytes32"
        }
      ],
      "name": "RoleAdminChanged",
      "type": "event"
    },
    {
      "anonymous": false,
      "inputs": [
        {
          "indexed": true,
          "internalType": "bytes32",
          "name": "role",
          "type": "bytes32"
        },
        {
          "indexed": true,
          "internalType": "address",
          "name": "account",
          "type": "address"
        },
        {
          "indexed": true,
          "internalType": "address",
          "name": "sender",
          "type": "address"
        }
      ],
      "name": "RoleGranted",
      "type": "event"
    },
    {
      "anonymous": false,
      "inputs": [
        {
          "indexed": true,
          "internalType": "bytes32",
          "name": "role",
          "type": "bytes32"
        },
        {
          "indexed": true,
          "internalType": "address",
          "name": "account",
          "type": "address"
        },
        {
          "indexed": true,
          "internalType": "address",
          "name": "sender",
          "type": "address"
        }
      ],
      "name": "RoleRevoked",
      "type": "event"
    },
    {
      "anonymous": false,
      "inputs": [
        {
          "indexed": true,
          "internalType": "address",
          "name": "operator",
          "type": "address"
        },
        {
          "indexed": true,
          "internalType": "address",
          "name": "from",
          "type": "address"
        },
        {
          "indexed": true,
          "internalType": "address",
          "name": "to",
          "type": "address"
        },
        {
          "indexed": false,
          "internalType": "uint256",
          "name": "amount",
          "type": "uint256"
        },
        {
          "indexed": false,
          "internalType": "bytes",
          "name": "data",
          "type": "bytes"
        },
        {
          "indexed": false,
          "internalType": "bytes",
          "name": "operatorData",
          "type": "bytes"
        }
      ],
      "name": "Sent",
      "type": "event"
    },
    {
      "anonymous": false,
      "inputs": [
        {
          "indexed": true,
          "internalType": "address",
          "name": "from",
          "type": "address"
        },
        {
          "indexed": false,
          "internalType": "address[]",
          "name": "recipients",
          "type": "address[]"
        },
        {
          "indexed": false,
          "internalType": "uint256[]",
          "name": "amounts",
          "type": "uint256[]"
        },
        {
          "indexed": false,
          "internalType": "bytes[]",
          "name": "userData",
          "type": "bytes[]"
        },
        {
          "indexed": false,
          "internalType": "bytes[]",
          "name": "operatorData",
          "type": "bytes[]"
        },
        {
          "indexed": false,
          "internalType": "bool[]",
          "name": "requireReceptionAck",
          "type": "bool[]"
        }
      ],
      "name": "SentBatch",
      "type": "event"
    },
    {
      "anonymous": false,
      "inputs": [
        {
          "indexed": true,
          "internalType": "address",
          "name": "from",
          "type": "address"
        },
        {
          "indexed": true,
          "internalType": "address",
          "name": "to",
          "type": "address"
        },
        {
          "indexed": false,
          "internalType": "uint256",
          "name": "value",
          "type": "uint256"
        }
      ],
      "name": "Transfer",
      "type": "event"
    },
    {
      "anonymous": false,
      "inputs": [
        {
          "indexed": false,
          "internalType": "address",
          "name": "account",
          "type": "address"
        }
      ],
      "name": "Unpaused",
      "type": "event"
    },
    {
      "inputs": [],
      "name": "DEFAULT_ADMIN_ROLE",
      "outputs": [
        {
          "internalType": "bytes32",
          "name": "",
          "type": "bytes32"
        }
      ],
      "stateMutability": "view",
      "type": "function"
    },
    {
      "inputs": [],
      "name": "PAUSER_ROLE",
      "outputs": [
        {
          "internalType": "bytes32",
          "name": "",
          "type": "bytes32"
        }
      ],
      "stateMutability": "view",
      "type": "function"
    },
    {
      "inputs": [
        {
          "internalType": "address",
          "name": "holder",
          "type": "address"
        },
        {
          "internalType": "address",
          "name": "spender",
          "type": "address"
        }
      ],
      "name": "allowance",
      "outputs": [
        {
          "internalType": "uint256",
          "name": "",
          "type": "uint256"
        }
      ],
      "stateMutability": "view",
      "type": "function"
    },
    {
      "inputs": [
        {
          "internalType": "address",
          "name": "spender",
          "type": "address"
        },
        {
          "internalType": "uint256",
          "name": "value",
          "type": "uint256"
        }
      ],
      "name": "approve",
      "outputs": [
        {
          "internalType": "bool",
          "name": "",
          "type": "bool"
        }
      ],
      "stateMutability": "nonpayable",
      "type": "function"
    },
    {
      "inputs": [
        {
          "internalType": "address",
          "name": "operator",
          "type": "address"
        }
      ],
      "name": "authorizeOperator",
      "outputs": [],
      "stateMutability": "nonpayable",
      "type": "function"
    },
    {
      "inputs": [
        {
          "internalType": "address",
          "name": "tokenHolder",
          "type": "address"
        }
      ],
      "name": "balanceOf",
      "outputs": [
        {
          "internalType": "uint256",
          "name": "",
          "type": "uint256"
        }
      ],
      "stateMutability": "view",
      "type": "function"
    },
    {
      "inputs": [
        {
          "internalType": "address[]",
          "name": "accounts",
          "type": "address[]"
        }
      ],
      "name": "balanceOfBatch",
      "outputs": [
        {
          "internalType": "uint256[]",
          "name": "",
          "type": "uint256[]"
        }
      ],
      "stateMutability": "view",
      "type": "function"
    },
    {
      "inputs": [
        {
          "internalType": "address[]",
          "name": "recipients",
          "type": "address[]"
        },
        {
          "internalType": "uint256[]",
          "name": "amounts",
          "type": "uint256[]"
        },
        {
          "internalType": "bytes[]",
          "name": "userData",
          "type": "bytes[]"
        },
        {
          "internalType": "bytes[]",
          "name": "operatorData",
          "type": "bytes[]"
        },
        {
          "internalType": "bool[]",
          "name": "requireReceptionAck",
          "type": "bool[]"
        }
      ],
      "name": "batchSend",
      "outputs": [],
      "stateMutability": "nonpayable",
      "type": "function"
    },
    {
      "inputs": [
        {
          "internalType": "uint256",
          "name": "amount",
          "type": "uint256"
        },
        {
          "internalType": "bytes",
          "name": "data",
          "type": "bytes"
        }
      ],
      "name": "burn",
      "outputs": [],
      "stateMutability": "nonpayable",
      "type": "function"
    },
    {
      "inputs": [],
      "name": "decimals",
      "outputs": [
        {
          "internalType": "uint8",
          "name": "",
          "type": "uint8"
        }
      ],
      "stateMutability": "pure",
      "type": "function"
    },
    {
      "inputs": [],
      "name": "defaultOperators",
      "outputs": [
        {
          "internalType": "address[]",
          "name": "",
          "type": "address[]"
        }
      ],
      "stateMutability": "view",
      "type": "function"
    },
    {
      "inputs": [
        {
          "internalType": "bytes32",
          "name": "role",
          "type": "bytes32"
        }
      ],
      "name": "getRoleAdmin",
      "outputs": [
        {
          "internalType": "bytes32",
          "name": "",
          "type": "bytes32"
        }
      ],
      "stateMutability": "view",
      "type": "function"
    },
    {
      "inputs": [
        {
          "internalType": "bytes32",
          "name": "role",
          "type": "bytes32"
        },
        {
          "internalType": "uint256",
          "name": "index",
          "type": "uint256"
        }
      ],
      "name": "getRoleMember",
      "outputs": [
        {
          "internalType": "address",
          "name": "",
          "type": "address"
        }
      ],
      "stateMutability": "view",
      "type": "function"
    },
    {
      "inputs": [
        {
          "internalType": "bytes32",
          "name": "role",
          "type": "bytes32"
        }
      ],
      "name": "getRoleMemberCount",
      "outputs": [
        {
          "internalType": "uint256",
          "name": "",
          "type": "uint256"
        }
      ],
      "stateMutability": "view",
      "type": "function"
    },
    {
      "inputs": [
        {
          "internalType": "bytes32",
          "name": "role",
          "type": "bytes32"
        },
        {
          "internalType": "address",
          "name": "account",
          "type": "address"
        }
      ],
      "name": "grantRole",
      "outputs": [],
      "stateMutability": "nonpayable",
      "type": "function"
    },
    {
      "inputs": [],
      "name": "granularity",
      "outputs": [
        {
          "internalType": "uint256",
          "name": "",
          "type": "uint256"
        }
      ],
      "stateMutability": "view",
      "type": "function"
    },
    {
      "inputs": [
        {
          "internalType": "bytes32",
          "name": "role",
          "type": "bytes32"
        },
        {
          "internalType": "address",
          "name": "account",
          "type": "address"
        }
      ],
      "name": "hasRole",
      "outputs": [
        {
          "internalType": "bool",
          "name": "",
          "type": "bool"
        }
      ],
      "stateMutability": "view",
      "type": "function"
    },
    {
      "inputs": [
        {
          "internalType": "address",
          "name": "operator",
          "type": "address"
        },
        {
          "internalType": "address",
          "name": "tokenHolder",
          "type": "address"
        }
      ],
      "name": "isOperatorFor",
      "outputs": [
        {
          "internalType": "bool",
          "name": "",
          "type": "bool"
        }
      ],
      "stateMutability": "view",
      "type": "function"
    },
    {
      "inputs": [],
      "name": "name",
      "outputs": [
        {
          "internalType": "string",
          "name": "",
          "type": "string"
        }
      ],
      "stateMutability": "view",
      "type": "function"
    },
    {
      "inputs": [
        {
          "internalType": "address",
          "name": "account",
          "type": "address"
        },
        {
          "internalType": "uint256",
          "name": "amount",
          "type": "uint256"
        },
        {
          "internalType": "bytes",
          "name": "data",
          "type": "bytes"
        },
        {
          "internalType": "bytes",
          "name": "operatorData",
          "type": "bytes"
        }
      ],
      "name": "operatorBurn",
      "outputs": [],
      "stateMutability": "nonpayable",
      "type": "function"
    },
    {
      "inputs": [
        {
          "internalType": "address",
          "name": "sender",
          "type": "address"
        },
        {
          "internalType": "address",
          "name": "recipient",
          "type": "address"
        },
        {
          "internalType": "uint256",
          "name": "amount",
          "type": "uint256"
        },
        {
          "internalType": "bytes",
          "name": "data",
          "type": "bytes"
        },
        {
          "internalType": "bytes",
          "name": "operatorData",
          "type": "bytes"
        }
      ],
      "name": "operatorSend",
      "outputs": [],
      "stateMutability": "nonpayable",
      "type": "function"
    },
    {
      "inputs": [],
      "name": "pause",
      "outputs": [],
      "stateMutability": "nonpayable",
      "type": "function"
    },
    {
      "inputs": [],
      "name": "paused",
      "outputs": [
        {
          "internalType": "bool",
          "name": "",
          "type": "bool"
        }
      ],
      "stateMutability": "view",
      "type": "function"
    },
    {
      "inputs": [
        {
          "internalType": "bytes32",
          "name": "role",
          "type": "bytes32"
        },
        {
          "internalType": "address",
          "name": "account",
          "type": "address"
        }
      ],
      "name": "renounceRole",
      "outputs": [],
      "stateMutability": "nonpayable",
      "type": "function"
    },
    {
      "inputs": [
        {
          "internalType": "address",
          "name": "operator",
          "type": "address"
        }
      ],
      "name": "revokeOperator",
      "outputs": [],
      "stateMutability": "nonpayable",
      "type": "function"
    },
    {
      "inputs": [
        {
          "internalType": "bytes32",
          "name": "role",
          "type": "bytes32"
        },
        {
          "internalType": "address",
          "name": "account",
          "type": "address"
        }
      ],
      "name": "revokeRole",
      "outputs": [],
      "stateMutability": "nonpayable",
      "type": "function"
    },
    {
      "inputs": [
        {
          "internalType": "address",
          "name": "recipient",
          "type": "address"
        },
        {
          "internalType": "uint256",
          "name": "amount",
          "type": "uint256"
        },
        {
          "internalType": "bytes",
          "name": "data",
          "type": "bytes"
        }
      ],
      "name": "send",
      "outputs": [],
      "stateMutability": "nonpayable",
      "type": "function"
    },
    {
      "inputs": [
        {
          "internalType": "bytes4",
          "name": "interfaceId",
          "type": "bytes4"
        }
      ],
      "name": "supportsInterface",
      "outputs": [
        {
          "internalType": "bool",
          "name": "",
          "type": "bool"
        }
      ],
      "stateMutability": "view",
      "type": "function"
    },
    {
      "inputs": [],
      "name": "symbol",
      "outputs": [
        {
          "internalType": "string",
          "name": "",
          "type": "string"
        }
      ],
      "stateMutability": "view",
      "type": "function"
    },
    {
      "inputs": [],
      "name": "totalSupply",
      "outputs": [
        {
          "internalType": "uint256",
          "name": "",
          "type": "uint256"
        }
      ],
      "stateMutability": "view",
      "type": "function"
    },
    {
      "inputs": [
        {
          "internalType": "address",
          "name": "recipient",
          "type": "address"
        },
        {
          "internalType": "uint256",
          "name": "amount",
          "type": "uint256"
        }
      ],
      "name": "transfer",
      "outputs": [
        {
          "internalType": "bool",
          "name": "",
          "type": "bool"
        }
      ],
      "stateMutability": "nonpayable",
      "type": "function"
    },
    {
      "inputs": [
        {
          "internalType": "address",
          "name": "holder",
          "type": "address"
        },
        {
          "internalType": "address",
          "name": "recipient",
          "type": "address"
        },
        {
          "internalType": "uint256",
          "name": "amount",
          "type": "uint256"
        }
      ],
      "name": "transferFrom",
      "outputs": [
        {
          "internalType": "bool",
          "name": "",
          "type": "bool"
        }
      ],
      "stateMutability": "nonpayable",
      "type": "function"
    },
    {
      "inputs": [],
      "name": "unpause",
      "outputs": [],
      "stateMutability": "nonpayable",
      "type": "function"
    }
  ],
  "bytecode": "0x608060405234801561001057600080fd5b50614d13806100206000396000f3fe608060405234801561001057600080fd5b50600436106101fb5760003560e01c806370a082311161011a578063a9059cbb116100ad578063dd62ed3e1161007c578063dd62ed3e146105d8578063e63ab1e914610608578063fad8b32a14610626578063fc673c4f14610642578063fe9d93031461065e576101fb565b8063a9059cbb1461052c578063ca15c8731461055c578063d547741f1461058c578063d95b6371146105a8576101fb565b8063959b8c3f116100e9578063959b8c3f146104b857806395d89b41146104d45780639bd9bbc6146104f2578063a217fddf1461050e576101fb565b806370a082311461041e5780638456cb591461044e5780639010d07c1461045857806391d1485414610488576101fb565b8063313ce56711610192578063556f0dc711610161578063556f0dc7146103aa5780635c975abb146103c857806362ad1b83146103e657806366cf8bce14610402576101fb565b8063313ce5671461033657806336568abe146103545780633f4ba83a14610370578063458c738e1461037a576101fb565b806318160ddd116101ce57806318160ddd1461029c57806323b872dd146102ba578063248a9ca3146102ea5780632f2ff15d1461031a576101fb565b806301ffc9a71461020057806306e485381461023057806306fdde031461024e578063095ea7b31461026c575b600080fd5b61021a60048036038101906102159190613880565b61067a565b60405161022791906138b3565b60405180910390f35b6102386106f4565b6040516102459190613910565b60405180910390f35b610256610782565b604051610263919061398c565b60405180910390f35b610286600480360381019061028191906139be565b610814565b60405161029391906138b3565b60405180910390f35b6102a4610916565b6040516102b191906139ee565b60405180910390f35b6102d460048036038101906102cf91906139ff565b610920565b6040516102e191906138b3565b60405180910390f35b61030460048036038101906102ff9190613a43565b610971565b6040516103119190613a5f565b60405180910390f35b610334600480360381019061032f9190613a70565b610991565b005b61033e6109b2565b60405161034b9190613aa0565b60405180910390f35b61036e60048036038101906103699190613a70565b6109bb565b005b610378610a3e565b005b610394600480360381019061038f9190613ba9565b610af7565b6040516103a19190613c29565b60405180910390f35b6103b2610d3c565b6040516103bf91906139ee565b60405180910390f35b6103d0610d45565b6040516103dd91906138b3565b60405180910390f35b61040060048036038101906103fb9190613cb6565b610d5c565b005b61041c60048036038101906104179190613edc565b610dc2565b005b61043860048036038101906104339190613fae565b6113e1565b60405161044591906139ee565b60405180910390f35b61045661142a565b005b610472600480360381019061046d9190613fd5565b6114e3565b60405161047f9190613ffa565b60405180910390f35b6104a2600480360381019061049d9190613a70565b611512565b6040516104af91906138b3565b60405180910390f35b6104d260048036038101906104cd9190613fae565b61157d565b005b6104dc611670565b6040516104e9919061398c565b60405180910390f35b61050c60048036038101906105079190614013565b611702565b005b61051661172c565b6040516105239190613a5f565b60405180910390f35b610546600480360381019061054191906139be565b611733565b60405161055391906138b3565b60405180910390f35b61057660048036038101906105719190613a43565b611773565b60405161058391906139ee565b60405180910390f35b6105a660048036038101906105a19190613a70565b611797565b005b6105c260048036038101906105bd919061406e565b6117b8565b6040516105cf91906138b3565b60405180910390f35b6105f260048036038101906105ed919061406e565b611969565b6040516105ff91906139ee565b60405180910390f35b6106106119f0565b60405161061d9190613a5f565b60405180910390f35b610640600480360381019061063b9190613fae565b611a14565b005b61065c600480360381019061065791906140a9565b611b07565b005b6106786004803603810190610673919061412b565b611b69565b005b60007f5a05180f000000000000000000000000000000000000000000000000000000007bffffffffffffffffffffffffffffffffffffffffffffffffffffffff1916827bffffffffffffffffffffffffffffffffffffffffffffffffffffffff191614806106ed57506106ec82611b8f565b5b9050919050565b6060603780548060200260200160405190810160405280929190818152602001828054801561077857602002820191906000526020600020905b8160009054906101000a900473ffffffffffffffffffffffffffffffffffffffff1673ffffffffffffffffffffffffffffffffffffffff168152602001906001019080831161072e575b5050505050905090565b60606035805461079190614172565b80601f01602080910402602001604051908101604052809291908181526020018280546107bd90614172565b801561080a5780601f106107df5761010080835404028352916020019161080a565b820191906000526020600020905b8154815290600101906020018083116107ed57829003601f168201915b5050505050905090565b600061081e611c09565b61084a7f7d8cd8960ccc6c9ec8690b002bc799717620455cc8fd180afbefe81ec026681660001b611c53565b6108767f25bc6b9eba8b70cfe1c51703fe8bc446bb1b05aae658c02bb6f9965c636b15ca60001b611c53565b6108a27f9f9eca8fd0accd93632d8efbf2f5e69c3da6f1830dd1d393ef68b4cd29f1f27460001b611c53565b6108ac8383611c56565b6108d87f32f150475478bd481d60c0d9d42815be5bface209b096169563f4c748473410d60001b611c53565b6109047fd6f20286832ac547f9df4c6b931ae56140aaf69aaa20cc537abb044759f3c13460001b611c53565b61090e8383611c8e565b905092915050565b6000603454905090565b60008061092b611cb1565b9050610938858285611cb9565b61096585858560405180602001604052806000815250604051806020016040528060008152506000611d45565b60019150509392505050565b600060c96000838152602001908152602001600020600101549050919050565b61099a82610971565b6109a381611e63565b6109ad8383611e77565b505050565b60006012905090565b6109c3611cb1565b73ffffffffffffffffffffffffffffffffffffffff168173ffffffffffffffffffffffffffffffffffffffff1614610a30576040517f08c379a0000000000000000000000000000000000000000000000000000000008152600401610a27906141b0565b60405180910390fd5b610a3a8282611f6b565b5050565b7f65d7a28e3265b37a6474929f336521b332c1681b933f6cb9f3376673440d862a610a6881611e63565b610a947f44262764d8ab3f1b603a58c3cc78eb908d69b3bb810089904e9941f3a1bdc1e560001b611c53565b610ac07f4a9a7aaf6887f7bbea01736ef1d737153f88ae541e279f1f939732a86e11a41e60001b611c53565b610aec7f7572c67ecf0557bc45bdfa7591e88350ef05ad695991e1499d9d0e5dc0baaaf160001b611c53565b610af461205f565b50565b6060610b257f0f77950df0478016c6fb3d6e3ba96238b40cb0213a682f408f4bc90d9f46002260001b611c53565b610b517fb391f227530eb714fde77d0c3705329463e2be61443ba4641c07cf277a07585760001b611c53565b610b7d7fc9bd3bae4e1e1d06a3d0918270a6e9e42c7e99d9c60a5590278ee697f6c25d6060001b611c53565b6000825167ffffffffffffffff811115610b9a57610b99613ab4565b5b604051908082528060200260200182016040528015610bc85781602001602082028036833780820191505090505b509050610bf77f5ea382f80deec8f934a19826ec1cb4cb44b9e854f5df18d3af0486f13b76792b60001b611c53565b610c237f381004d665f02913b31eebaa430547db81f49505930ae386ddf7cc475f9448ae60001b611c53565b60005b8351811015610cda57610c5b7f2a8b9ef78efdcd2d52b30ff321b9ce8b5423fb05bcffb6c269359a83857531cc60001b611c53565b610c877f8aa7114089d98f6777ceef8ed408b7bea28690d23d03ab17874ddc540b5f673860001b611c53565b610caa848281518110610c9d57610c9c614214565b5b60200260200101516113e1565b828281518110610cbd57610cbc614214565b5b60200260200101818152505080610cd390614240565b9050610c26565b50610d077fcfd4b19343e9906b77aa350e3808f4395b652ac5018e1edcbc1ba872450222c260001b611c53565b610d337f4468edbedffed03dc3dd8825899523fad657a9a4014d06891c3752ce4e4769d060001b611c53565b80915050919050565b60006001905090565b6000606560009054906101000a900460ff16905090565b610d6d610d67611cb1565b866117b8565b610dac576040517f08c379a0000000000000000000000000000000000000000000000000000000008152600401610da39061425e565b60405180910390fd5b610dbb85858585856001611d45565b5050505050565b610dee7f9703455f71c047ef738a798ce1a2cd41868dc31fba2f43747dce90a161d39a7960001b611c53565b610e1a7f7cef4579b7d5d0b9fb03b322ce4f51e0e6cb6e2cf0a6ac20ec7959c9f06fc95260001b611c53565b610e467f1749bff97d1b9c8caef38dce73bd663ba9e90384328d103266035ba71f5dcdd760001b611c53565b610e727f2f09035b8321949295275ae4df85c110a00e3e6ed1362461ddbc898b5125c65260001b611c53565b8351855114610eb6576040517f08c379a0000000000000000000000000000000000000000000000000000000008152600401610ead906142c2565b60405180910390fd5b610ee27f047dc5e604e3ab0bd90a94daaffd2640df83cb99185ff3e06cb42e721f5e94fc60001b611c53565b610f0e7f3f52f68a8fcfca7144b33a078dac731e18fbe24ce02c8a0174159c536915e40260001b611c53565b610f3a7f937b33d62ec85525723ce3465df5f286022b2f3d4fe6da82a1882fb6c46c3cc460001b611c53565b610f667f033b46c7b794f41fe723a0e4bcf25529257e3a891e3e8f806460ed5ba2fdb6e760001b611c53565b8251845114610faa576040517f08c379a0000000000000000000000000000000000000000000000000000000008152600401610fa19061434c565b60405180910390fd5b610fd67f6e206d9157238830a3555a5b35a32bfce42b2a5f4bb3194ed76a11fcba4c093a60001b611c53565b6110027ff89714f82877d76a36414588c1eed155a44c780af72656b6ab42be1ddbbd304e60001b611c53565b61102e7f898e6290417b17ec37454f8cf008fd866cadd50fb9e8b99488298d08749e25af60001b611c53565b61105a7f3bdcbf36d6ba7deee54cebfcf3ae50de5d186cf44ddcb5921645d1c10488a51460001b611c53565b815183511461109e576040517f08c379a0000000000000000000000000000000000000000000000000000000008152600401611095906143d6565b60405180910390fd5b6110ca7f1c20cbc0ca1a08041f7606c892b54167699b35ce6212df328ffa9bd2474ceded60001b611c53565b6110f67fb931c646af2504615eae781f3134bdc6e8d8dbe63773d69816f3a3d8208802bf60001b611c53565b6111227f71d00d6d847a9afe37a6c452b6938f8fbb14385c7c1ef33a2c1a6002d686dced60001b611c53565b61114e7f86ce0f1d038ea96b559c2947e14dc6ba974744b17b9f295784f350009c3c657e60001b611c53565b8051825114611192576040517f08c379a000000000000000000000000000000000000000000000000000000000815260040161118990614460565b60405180910390fd5b6111be7f93873d33e6f12979a4ab5b88c8dde1c2c6716925a1d51c7d8ef1b7dbda3e09a760001b611c53565b6111ea7f8a21af67301c08de39a7183d87fa7abd6ea93d893c5b23981c8488a0b44017a160001b611c53565b6112167fe5b833580274f7a655acffd0292acb947d86d473cb6328ce9290706120a929df60001b611c53565b60005b85518110156113245761124e7f95b8a75877c042fce14ce4dbad4e3d94831f7194fa4067eff016ed83e3096c7b60001b611c53565b61127a7fe7e72b8351588fef7065519eeef9d75652488491a1caafb510b37e5c3b84640560001b611c53565b611311611285611cb1565b87838151811061129857611297614214565b5b60200260200101518784815181106112b3576112b2614214565b5b60200260200101518785815181106112ce576112cd614214565b5b60200260200101518786815181106112e9576112e8614214565b5b602002602001015187878151811061130457611303614214565b5b6020026020010151611d45565b808061131c90614240565b915050611219565b506113517f8e0017d86e72fc5661955651d82d6f479426025e40b22d837ed842a1ca8ef2d660001b611c53565b61137d7feba8c77291f2fe65c5c4a6c73d917750a257bc1372005d8e343e22ec12c93a3160001b611c53565b611385611cb1565b73ffffffffffffffffffffffffffffffffffffffff167fd5865ae34f92a2d6a803fa13140b8165046f54e61e68560b26950c62a668c6b686868686866040516113d2959493929190614546565b60405180910390a25050505050565b6000603360008373ffffffffffffffffffffffffffffffffffffffff1673ffffffffffffffffffffffffffffffffffffffff168152602001908152602001600020549050919050565b7f65d7a28e3265b37a6474929f336521b332c1681b933f6cb9f3376673440d862a61145481611e63565b6114807f2dbb98108b8a83b7950ff29a7ab9132993c5cd4eba64e6efeed71b85550dc3da60001b611c53565b6114ac7f280ab5c8ac197398a31d703010a7a0c87ad13e9d6be598afa4f0b13638eecd1b60001b611c53565b6114d87f2a2d71b2331d27ae9b353e086aad11732ce87d8ad51ddc45e13f04e7be734ed860001b611c53565b6114e06120c2565b50565b600061150a8260fb600086815260200190815260200160002061212590919063ffffffff16565b905092915050565b600060c9600084815260200190815260200160002060000160008373ffffffffffffffffffffffffffffffffffffffff1673ffffffffffffffffffffffffffffffffffffffff16815260200190815260200160002060009054906101000a900460ff16905092915050565b6115a97f268f75b3f486b206baf6b4e84e3378d81a948da9825e9806bc21a1bd4002324f60001b611c53565b6115d57f80a77ecde0665654ca482f35663fc152a5348c8f7eccfe818d452e9268a39f5560001b611c53565b6116017faa42c486c0f0653e738e5ef220b44529d5432ab7a0bf339624fbc41355d5c40660001b611c53565b61160c816000611c56565b6116387f42114b69b75fabb33312bd63862edb877b79ec00397acadf409117586450e63a60001b611c53565b6116647f5310d3f56a9d9456e733bf8b30f7c449619274327a80d3af4098ec0c89f7105d60001b611c53565b61166d8161213f565b50565b60606036805461167f90614172565b80601f01602080910402602001604051908101604052809291908181526020018280546116ab90614172565b80156116f85780601f106116cd576101008083540402835291602001916116f8565b820191906000526020600020905b8154815290600101906020018083116116db57829003601f168201915b5050505050905090565b61172761170d611cb1565b848484604051806020016040528060008152506001611d45565b505050565b6000801b81565b6000611769611740611cb1565b848460405180602001604052806000815250604051806020016040528060008152506000611d45565b6001905092915050565b600061179060fb600084815260200190815260200160002061239f565b9050919050565b6117a082610971565b6117a981611e63565b6117b38383611f6b565b505050565b60008173ffffffffffffffffffffffffffffffffffffffff168373ffffffffffffffffffffffffffffffffffffffff1614806118d05750603860008473ffffffffffffffffffffffffffffffffffffffff1673ffffffffffffffffffffffffffffffffffffffff16815260200190815260200160002060009054906101000a900460ff1680156118cf5750603a60008373ffffffffffffffffffffffffffffffffffffffff1673ffffffffffffffffffffffffffffffffffffffff16815260200190815260200160002060008473ffffffffffffffffffffffffffffffffffffffff1673ffffffffffffffffffffffffffffffffffffffff16815260200190815260200160002060009054906101000a900460ff16155b5b806119615750603960008373ffffffffffffffffffffffffffffffffffffffff1673ffffffffffffffffffffffffffffffffffffffff16815260200190815260200160002060008473ffffffffffffffffffffffffffffffffffffffff1673ffffffffffffffffffffffffffffffffffffffff16815260200190815260200160002060009054906101000a900460ff165b905092915050565b6000603b60008473ffffffffffffffffffffffffffffffffffffffff1673ffffffffffffffffffffffffffffffffffffffff16815260200190815260200160002060008373ffffffffffffffffffffffffffffffffffffffff1673ffffffffffffffffffffffffffffffffffffffff16815260200190815260200160002054905092915050565b7f65d7a28e3265b37a6474929f336521b332c1681b933f6cb9f3376673440d862a81565b611a407fd248d4df303d3ef4df39d753f222a602bc2f78edb47c9ac7ca9a9fd438e4a62460001b611c53565b611a6c7faa526d1c469fd543c8d32d69c18c886a00d4fcd19cc3915c586d92fa8cdc773b60001b611c53565b611a987f63e573bed4a8383fb367945237d21a7b5580ae54634703c4e26dd17079d8de0f60001b611c53565b611aa3816000611c56565b611acf7f0220752359935cb493d712672625b70023d2829fbf5169bdb5b1970a1986961960001b611c53565b611afb7fbf85da80d0b000f9e71932794d4185ea118b30bec8ec6c2f10f915fe6aca38e860001b611c53565b611b04816123b4565b50565b611b18611b12611cb1565b856117b8565b611b57576040517f08c379a0000000000000000000000000000000000000000000000000000000008152600401611b4e9061425e565b60405180910390fd5b611b6384848484612614565b50505050565b611b8b611b74611cb1565b838360405180602001604052806000815250612614565b5050565b60007f7965db0b000000000000000000000000000000000000000000000000000000007bffffffffffffffffffffffffffffffffffffffffffffffffffffffff1916827bffffffffffffffffffffffffffffffffffffffffffffffffffffffff19161480611c025750611c0182612868565b5b9050919050565b611c11610d45565b15611c51576040517f08c379a0000000000000000000000000000000000000000000000000000000008152600401611c48906145e6565b60405180910390fd5b565b50565b611c5e611c09565b611c8a7f98267a7d560d84e874765a859c10d093f11a3a22a0103af43ea9445569fed27660001b611c53565b5050565b600080611c99611cb1565b9050611ca68185856128d2565b600191505092915050565b600033905090565b6000611cc58484611969565b90507fffffffffffffffffffffffffffffffffffffffffffffffffffffffffffffffff8114611d3f5781811015611d31576040517f08c379a0000000000000000000000000000000000000000000000000000000008152600401611d2890614624565b60405180910390fd5b611d3e84848484036128d2565b5b50505050565b600073ffffffffffffffffffffffffffffffffffffffff168673ffffffffffffffffffffffffffffffffffffffff1603611db4576040517f08c379a0000000000000000000000000000000000000000000000000000000008152600401611dab90614662565b60405180910390fd5b600073ffffffffffffffffffffffffffffffffffffffff168573ffffffffffffffffffffffffffffffffffffffff1603611e23576040517f08c379a0000000000000000000000000000000000000000000000000000000008152600401611e1a906146c6565b60405180910390fd5b6000611e2d611cb1565b9050611e3d818888888888612a9b565b611e4b818888888888612c02565b611e5a81888888888888612e1f565b50505050505050565b611e7481611e6f611cb1565b612ff1565b50565b611ea37fa387f7cc253c0328859e67eb2cce180f0de94026bb52d27bb07c11dd579f2dd560001b611c53565b611ecf7f9878208916697ad6effeab811140f7c13af902a1732c8d15010e5c67aaec1d1c60001b611c53565b611efb7f913922b296c906337be21a09f18eda1eea5aeb94db0ee795a0c42f693052e2b860001b611c53565b611f05828261308e565b611f317fc2dda0496312be5f8f013d9f51631a87c30272719865516b30507389f28493a460001b611c53565b611f5d7f3f813c509e335cdbec1169e2f05d43059806b5e522ee4d801aa4e55670b46eac60001b611c53565b611f6782826130c6565b5050565b611f977f1de7165b3e5949620639f990ca2368c833de6523f069dd779a4ac99a43c66e5260001b611c53565b611fc37f774c5e4f5610d0e4076fdc3abc02b58d0b782aa9cdd67dd811d1377a334c15e560001b611c53565b611fef7fdb8aabd4cce77432d4c217089676c8fde9afa29dc6196b6d5305b31f3f53bae960001b611c53565b611ff9828261308e565b6120257f67acd3e641a8bcc15be35e5bd2632568cc6732474e2062064447ac424cad654760001b611c53565b6120517f89186e16eb0585fd74910de29fe8aaec0ed3ce68f3e8d0b246096a8d6b7ece3e60001b611c53565b61205b82826130fa565b5050565b61206761312e565b6000606560006101000a81548160ff0219169083151502179055507f5db9ee0a495bf2e6ff9c91a7834c1ba4fdd244a5e8aa4e537bd38aeae4b073aa6120ab611cb1565b6040516120b89190613ffa565b60405180910390a1565b6120ca611c09565b6001606560006101000a81548160ff0219169083151502179055507f62e78cea01bee320cd4e420270b5ea74000d11b0c9f74754ebdbfc544b05a25861210e611cb1565b60405161211b9190613ffa565b60405180910390a1565b60006121348360000183613177565b60001c905092915050565b8073ffffffffffffffffffffffffffffffffffffffff1661215e611cb1565b73ffffffffffffffffffffffffffffffffffffffff16036121b4576040517f08c379a00000000000000000000000000000000000000000000000000000000081526004016121ab9061472a565b60405180910390fd5b603860008273ffffffffffffffffffffffffffffffffffffffff1673ffffffffffffffffffffffffffffffffffffffff16815260200190815260200160002060009054906101000a900460ff161561229e57603a6000612212611cb1565b73ffffffffffffffffffffffffffffffffffffffff1673ffffffffffffffffffffffffffffffffffffffff16815260200190815260200160002060008273ffffffffffffffffffffffffffffffffffffffff1673ffffffffffffffffffffffffffffffffffffffff16815260200190815260200160002060006101000a81549060ff021916905561233b565b6001603960006122ac611cb1565b73ffffffffffffffffffffffffffffffffffffffff1673ffffffffffffffffffffffffffffffffffffffff16815260200190815260200160002060008373ffffffffffffffffffffffffffffffffffffffff1673ffffffffffffffffffffffffffffffffffffffff16815260200190815260200160002060006101000a81548160ff0219169083151502179055505b612343611cb1565b73ffffffffffffffffffffffffffffffffffffffff168173ffffffffffffffffffffffffffffffffffffffff167ff4caeb2d6ca8932a215a353d0703c326ec2d81fc68170f320eb2ab49e9df61f960405160405180910390a350565b60006123ad826000016131a2565b9050919050565b6123bc611cb1565b73ffffffffffffffffffffffffffffffffffffffff168173ffffffffffffffffffffffffffffffffffffffff1603612429576040517f08c379a00000000000000000000000000000000000000000000000000000000081526004016124209061478e565b60405180910390fd5b603860008273ffffffffffffffffffffffffffffffffffffffff1673ffffffffffffffffffffffffffffffffffffffff16815260200190815260200160002060009054906101000a900460ff161561251c576001603a6000612489611cb1565b73ffffffffffffffffffffffffffffffffffffffff1673ffffffffffffffffffffffffffffffffffffffff16815260200190815260200160002060008373ffffffffffffffffffffffffffffffffffffffff1673ffffffffffffffffffffffffffffffffffffffff16815260200190815260200160002060006101000a81548160ff0219169083151502179055506125b0565b60396000612528611cb1565b73ffffffffffffffffffffffffffffffffffffffff1673ffffffffffffffffffffffffffffffffffffffff16815260200190815260200160002060008273ffffffffffffffffffffffffffffffffffffffff1673ffffffffffffffffffffffffffffffffffffffff16815260200190815260200160002060006101000a81549060ff02191690555b6125b8611cb1565b73ffffffffffffffffffffffffffffffffffffffff168173ffffffffffffffffffffffffffffffffffffffff167f50546e66e5f44d728365dc3908c63bc5cfeeab470722c1677e3073a6ac294aa160405160405180910390a350565b600073ffffffffffffffffffffffffffffffffffffffff168473ffffffffffffffffffffffffffffffffffffffff1603612683576040517f08c379a000000000000000000000000000000000000000000000000000000000815260040161267a906147f2565b60405180910390fd5b600061268d611cb1565b905061269e81866000878787612a9b565b6126ab81866000876131b3565b6000603360008773ffffffffffffffffffffffffffffffffffffffff1673ffffffffffffffffffffffffffffffffffffffff16815260200190815260200160002054905084811015612732576040517f08c379a000000000000000000000000000000000000000000000000000000000815260040161272990614856565b60405180910390fd5b848103603360008873ffffffffffffffffffffffffffffffffffffffff1673ffffffffffffffffffffffffffffffffffffffff16815260200190815260200160002081905550846034600082825461278a91906148ba565b925050819055508573ffffffffffffffffffffffffffffffffffffffff168273ffffffffffffffffffffffffffffffffffffffff167fa78a9be3a7b862d26933ad85fb11d80ef66b8f972d7cbba06621d583943a40988787876040516127f2939291906148d8565b60405180910390a3600073ffffffffffffffffffffffffffffffffffffffff168673ffffffffffffffffffffffffffffffffffffffff167fddf252ad1be2c89b69c2b068fc378daa952ba7f163c4a11628f55a4df523b3ef8760405161285891906139ee565b60405180910390a3505050505050565b60007f01ffc9a7000000000000000000000000000000000000000000000000000000007bffffffffffffffffffffffffffffffffffffffffffffffffffffffff1916827bffffffffffffffffffffffffffffffffffffffffffffffffffffffff1916149050919050565b600073ffffffffffffffffffffffffffffffffffffffff168373ffffffffffffffffffffffffffffffffffffffff1603612941576040517f08c379a00000000000000000000000000000000000000000000000000000000081526004016129389061490e565b60405180910390fd5b600073ffffffffffffffffffffffffffffffffffffffff168273ffffffffffffffffffffffffffffffffffffffff16036129b0576040517f08c379a00000000000000000000000000000000000000000000000000000000081526004016129a790614972565b60405180910390fd5b80603b60008573ffffffffffffffffffffffffffffffffffffffff1673ffffffffffffffffffffffffffffffffffffffff16815260200190815260200160002060008473ffffffffffffffffffffffffffffffffffffffff1673ffffffffffffffffffffffffffffffffffffffff168152602001908152602001600020819055508173ffffffffffffffffffffffffffffffffffffffff168373ffffffffffffffffffffffffffffffffffffffff167f8c5be1e5ebec7d5bd14f71427d1e84f3dd0314c0f7b2291e5b200ac8c7c3b92583604051612a8e91906139ee565b60405180910390a3505050565b6000731820a4b7618bde71dce8cdc73aab6c95905fad2473ffffffffffffffffffffffffffffffffffffffff1663aabbb8ca877f29ddb589b1fb5fc7cf394961c1adf5f8c6454761adf795e67fe149f658abe8956040518363ffffffff1660e01b8152600401612b0c9291906149d6565b602060405180830381865afa158015612b29573d6000803e3d6000fd5b505050506040513d601f19601f82011682018060405250810190612b4d91906149f6565b9050600073ffffffffffffffffffffffffffffffffffffffff168173ffffffffffffffffffffffffffffffffffffffff1614612bf9578073ffffffffffffffffffffffffffffffffffffffff166375ab97828888888888886040518763ffffffff1660e01b8152600401612bc696959493929190614a1d565b600060405180830381600087803b158015612be057600080fd5b505af1158015612bf4573d6000803e3d6000fd5b505050505b50505050505050565b612c0e868686866131b3565b6000603360008773ffffffffffffffffffffffffffffffffffffffff1673ffffffffffffffffffffffffffffffffffffffff16815260200190815260200160002054905083811015612c95576040517f08c379a0000000000000000000000000000000000000000000000000000000008152600401612c8c90614a76565b60405180910390fd5b838103603360008873ffffffffffffffffffffffffffffffffffffffff1673ffffffffffffffffffffffffffffffffffffffff1681526020019081526020016000208190555083603360008773ffffffffffffffffffffffffffffffffffffffff1673ffffffffffffffffffffffffffffffffffffffff1681526020019081526020016000206000828254612d2a9190614ada565b925050819055508473ffffffffffffffffffffffffffffffffffffffff168673ffffffffffffffffffffffffffffffffffffffff168873ffffffffffffffffffffffffffffffffffffffff167f06b541ddaa720db2b10a4d0cdac39b8d360425fc073085fac19bc82614677987878787604051612da9939291906148d8565b60405180910390a48473ffffffffffffffffffffffffffffffffffffffff168673ffffffffffffffffffffffffffffffffffffffff167fddf252ad1be2c89b69c2b068fc378daa952ba7f163c4a11628f55a4df523b3ef86604051612e0e91906139ee565b60405180910390a350505050505050565b6000731820a4b7618bde71dce8cdc73aab6c95905fad2473ffffffffffffffffffffffffffffffffffffffff1663aabbb8ca877fb281fc8c12954d22544db45de3159a39272895b169a852b314f9cc762e44c53b6040518363ffffffff1660e01b8152600401612e909291906149d6565b602060405180830381865afa158015612ead573d6000803e3d6000fd5b505050506040513d601f19601f82011682018060405250810190612ed191906149f6565b9050600073ffffffffffffffffffffffffffffffffffffffff168173ffffffffffffffffffffffffffffffffffffffff1614612f80578073ffffffffffffffffffffffffffffffffffffffff166223de298989898989896040518763ffffffff1660e01b8152600401612f4996959493929190614a1d565b600060405180830381600087803b158015612f6357600080fd5b505af1158015612f77573d6000803e3d6000fd5b50505050612fe7565b8115612fe657612fa58673ffffffffffffffffffffffffffffffffffffffff16613251565b15612fe5576040517f08c379a0000000000000000000000000000000000000000000000000000000008152600401612fdc90614af9565b60405180910390fd5b5b5b5050505050505050565b612ffb8282611512565b61308a576130208173ffffffffffffffffffffffffffffffffffffffff166014613274565b61302e8360001c6020613274565b60405160200161303f929190614b83565b6040516020818303038152906040526040517f08c379a0000000000000000000000000000000000000000000000000000000008152600401613081919061398c565b60405180910390fd5b5050565b613096611c09565b6130c27f2296ddf1c575eba3b0d761fbf3b49941215eab8309aa02c89f48646d55a2aa2760001b611c53565b5050565b6130d082826134b0565b6130f58160fb600085815260200190815260200160002061359190919063ffffffff16565b505050565b61310482826135c1565b6131298160fb60008581526020019081526020016000206136a390919063ffffffff16565b505050565b613136610d45565b613175576040517f08c379a000000000000000000000000000000000000000000000000000000000815260040161316c90614c0a565b60405180910390fd5b565b600082600001828154811061318f5761318e614214565b5b9060005260206000200154905092915050565b600081600001805490509050919050565b6131bb611c09565b6131e77f6932310e8053471fade5528d5c5e30ca20bcaf3f477ce05c54376f70d4cf54ee60001b611c53565b6132137f14706b7bf402e384ab344d3a3f5528ccf66fad15631c5f6600a3069bb2c6ef9760001b611c53565b61323f7f05e124ff540c62a5877da4b0fb251678460f1ead24425a204998a1b5e5cbd50960001b611c53565b61324b848484846136d3565b50505050565b6000808273ffffffffffffffffffffffffffffffffffffffff163b119050919050565b6060600060028360026132879190614c48565b6132919190614ada565b67ffffffffffffffff8111156132aa576132a9613ab4565b5b6040519080825280601f01601f1916602001820160405280156132dc5781602001600182028036833780820191505090505b5090507f30000000000000000000000000000000000000000000000000000000000000008160008151811061331457613313614214565b5b60200101907effffffffffffffffffffffffffffffffffffffffffffffffffffffffffffff1916908160001a9053507f78000000000000000000000000000000000000000000000000000000000000008160018151811061337857613377614214565b5b60200101907effffffffffffffffffffffffffffffffffffffffffffffffffffffffffffff1916908160001a905350600060018460026133b89190614c48565b6133c29190614ada565b90505b6001811115613462577f3031323334353637383961626364656600000000000000000000000000000000600f86166010811061340457613403614214565b5b1a60f81b82828151811061341b5761341a614214565b5b60200101907effffffffffffffffffffffffffffffffffffffffffffffffffffffffffffff1916908160001a905350600485901c94508061345b90614c6e565b90506133c5565b50600084146134a6576040517f08c379a000000000000000000000000000000000000000000000000000000000815260040161349d90614c8a565b60405180910390fd5b8091505092915050565b6134ba8282611512565b61358d57600160c9600084815260200190815260200160002060000160008373ffffffffffffffffffffffffffffffffffffffff1673ffffffffffffffffffffffffffffffffffffffff16815260200190815260200160002060006101000a81548160ff021916908315150217905550613532611cb1565b73ffffffffffffffffffffffffffffffffffffffff168173ffffffffffffffffffffffffffffffffffffffff16837f2f8788117e7eff1d82e926ec794901d17c78024a50270940304540a733656f0d60405160405180910390a45b5050565b60006135b9836000018373ffffffffffffffffffffffffffffffffffffffff1660001b6136d9565b905092915050565b6135cb8282611512565b1561369f57600060c9600084815260200190815260200160002060000160008373ffffffffffffffffffffffffffffffffffffffff1673ffffffffffffffffffffffffffffffffffffffff16815260200190815260200160002060006101000a81548160ff021916908315150217905550613644611cb1565b73ffffffffffffffffffffffffffffffffffffffff168173ffffffffffffffffffffffffffffffffffffffff16837ff6391f5c32d9c69d2a47ea670b442974b53935d1edc7fd64eb21e047a839171b60405160405180910390a45b5050565b60006136cb836000018373ffffffffffffffffffffffffffffffffffffffff1660001b613749565b905092915050565b50505050565b60006136e5838361385d565b61373e578260000182908060018154018082558091505060019003906000526020600020016000909190919091505582600001805490508360010160008481526020019081526020016000208190555060019050613743565b600090505b92915050565b6000808360010160008481526020019081526020016000205490506000811461385157600060018261377b91906148ba565b905060006001866000018054905061379391906148ba565b90508181146138025760008660000182815481106137b4576137b3614214565b5b90600052602060002001549050808760000184815481106137d8576137d7614214565b5b90600052602060002001819055508387600101600083815260200190815260200160002081905550505b8560000180548061381657613815614cc7565b5b600190038181906000526020600020016000905590558560010160008681526020019081526020016000206000905560019350505050613857565b60009150505b92915050565b600080836001016000848152602001908152602001600020541415905092915050565b60006020828403121561389257600080fd5b813563ffffffff60e01b811681146138a957600080fd5b8091505092915050565b6000602082019050821515825292915050565b600081518084526020808501945080840160005b838110156139035760018060a01b038251168752828701965082820191506001810190506138da565b5050505082905092915050565b60208152600061392360208301846138c6565b905092915050565b60005b8381101561394957808201518184015260208101905061392e565b83811115613958576000848401525b50505050565b6000815180845261397681602086016020860161392b565b6020601f19601f83011685010191505092915050565b60208152600061399f602083018461395e565b905092915050565b60018060a01b03811681146139bb57600080fd5b50565b600080604083850312156139d157600080fd5b82356139dc816139a7565b80925050602083013590509250929050565b600060208201905082825292915050565b600080600060608486031215613a1457600080fd5b8335613a1f816139a7565b809350506020840135613a31816139a7565b80925050604084013590509250925092565b600060208284031215613a5557600080fd5b8135905092915050565b600060208201905082825292915050565b60008060408385031215613a8357600080fd5b823591506020830135613a95816139a7565b809150509250929050565b600060208201905060ff8316825292915050565b634e487b7160e01b600052604160045260246000fd5b60006040519050601f19601f830116810181811067ffffffffffffffff82111715613af857613af7613ab4565b5b8060405250919050565b600067ffffffffffffffff821115613b1d57613b1c613ab4565b5b60208260051b019050919050565b600082601f830112613b3c57600080fd5b81356020613b51613b4c83613b02565b613aca565b808382528282019150828460051b870101935086841115613b7157600080fd5b8286015b84811015613b9b578035613b88816139a7565b8084525083830192508381019050613b75565b508094505050505092915050565b600060208284031215613bbb57600080fd5b813567ffffffffffffffff811115613bd257600080fd5b613bde84828501613b2b565b91505092915050565b600081518084526020808501945080840160005b83811015613c1c578151875282870196508282019150600181019050613bfb565b5050505082905092915050565b602081526000613c3c6020830184613be7565b905092915050565b600082601f830112613c5557600080fd5b813567ffffffffffffffff811115613c7057613c6f613ab4565b5b613c836020601f19601f84011601613aca565b818152846020838601011115613c9857600080fd5b81602085016020830137600060208383010152809250505092915050565b600080600080600060a08688031215613cce57600080fd5b8535613cd9816139a7565b809550506020860135613ceb816139a7565b8094505060408601359250606086013567ffffffffffffffff80821115613d1157600080fd5b613d1d89838a01613c44565b93506080880135915080821115613d3357600080fd5b50613d4088828901613c44565b9150509295509295909350565b600082601f830112613d5e57600080fd5b81356020613d73613d6e83613b02565b613aca565b808382528282019150828460051b870101935086841115613d9357600080fd5b8286015b84811015613db2578035835283830192508381019050613d97565b508094505050505092915050565b600082601f830112613dd157600080fd5b81356020613de6613de183613b02565b613aca565b808382528282019150828460051b870101935086841115613e0657600080fd5b8286015b84811015613e4a57803567ffffffffffffffff811115613e2a5760008081fd5b613e388986838b0101613c44565b84525083830192508381019050613e0a565b508094505050505092915050565b600082601f830112613e6957600080fd5b81356020613e7e613e7983613b02565b613aca565b808382528282019150828460051b870101935086841115613e9e57600080fd5b8286015b84811015613ece5780358015158114613ebb5760008081fd5b8084525083830192508381019050613ea2565b508094505050505092915050565b600080600080600060a08688031215613ef457600080fd5b853567ffffffffffffffff80821115613f0c57600080fd5b613f1889838a01613b2b565b96506020880135915080821115613f2e57600080fd5b613f3a89838a01613d4d565b95506040880135915080821115613f5057600080fd5b613f5c89838a01613dc0565b94506060880135915080821115613f7257600080fd5b613f7e89838a01613dc0565b93506080880135915080821115613f9457600080fd5b50613fa188828901613e58565b9150509295509295909350565b600060208284031215613fc057600080fd5b8135613fcb816139a7565b8091505092915050565b60008060408385031215613fe857600080fd5b82359150602083013590509250929050565b600060208201905060018060a01b038316825292915050565b60008060006060848603121561402857600080fd5b8335614033816139a7565b8093505060208401359150604084013567ffffffffffffffff81111561405857600080fd5b61406486828701613c44565b9150509250925092565b6000806040838503121561408157600080fd5b823561408c816139a7565b80925050602083013561409e816139a7565b809150509250929050565b600080600080608085870312156140bf57600080fd5b84356140ca816139a7565b8094505060208501359250604085013567ffffffffffffffff808211156140f057600080fd5b6140fc88838901613c44565b9350606087013591508082111561411257600080fd5b5061411f87828801613c44565b91505092959194509250565b6000806040838503121561413e57600080fd5b82359150602083013567ffffffffffffffff81111561415c57600080fd5b61416885828601613c44565b9150509250929050565b60008160011c9050600182168061418a57607f821691505b6020821081036141aa57634e487b7160e01b600052602260045260246000fd5b50919050565b60208152602f60208201527f416363657373436f6e74726f6c3a2063616e206f6e6c792072656e6f756e636560408201527f20726f6c657320666f722073656c66000000000000000000000000000000000060608201526000608082019050919050565b634e487b7160e01b600052603260045260246000fd5b634e487b7160e01b600052601160045260246000fd5b6000801982036142535761425261422a565b5b600182019050919050565b60208152602c60208201527f4552433737373a2063616c6c6572206973206e6f7420616e206f70657261746f60408201527f7220666f7220686f6c646572000000000000000000000000000000000000000060608201526000608082019050919050565b60208152604660208201527f4552433737375072657365745061757361626c655065726d697373696f6e656460408201527f3a20726563697069656e7420616e6420616d6f756e74206c656e677468206d6960608201527f736d6174636800000000000000000000000000000000000000000000000000006080820152600060a082019050919050565b60208152604660208201527f4552433737375072657365745061757361626c655065726d697373696f6e656460408201527f3a20616d6f756e747320616e64207573657244617461206c656e677468206d6960608201527f736d6174636800000000000000000000000000000000000000000000000000006080820152600060a082019050919050565b60208152604b60208201527f4552433737375072657365745061757361626c655065726d697373696f6e656460408201527f3a20757365724461746120616e64206f70657261746f7244617461206c656e6760608201527f7468206d69736d617463680000000000000000000000000000000000000000006080820152600060a082019050919050565b60208152605660208201527f4552433737375072657365745061757361626c655065726d697373696f6e656460408201527f3a206f70657261746f724461746120616e64207265717569726552656365707460608201527f696f6e41636b206c656e677468206d69736d61746368000000000000000000006080820152600060a082019050919050565b600081518084526020808501808196508360051b8101915082860160005b8581101561453757828403895261452084835161395e565b935084820191508489019850600181019050614508565b50505080935050505092915050565b60a08152600061455960a08301886138c6565b60208382038185015261456c8289613be7565b9150838203604085015261458082886144ea565b9150838203606085015261459482876144ea565b915083820360808501528185518084528284019150828701935060005b818110156145d457845115158352838301925083850194506001810190506145b1565b50508093505050509695505050505050565b60208152601060208201527f5061757361626c653a207061757365640000000000000000000000000000000060408201526000606082019050919050565b60208152601e60208201527f4552433737373a20696e73756666696369656e7420616c6c6f77616e6365000060408201526000606082019050919050565b60208152602660208201527f4552433737373a207472616e736665722066726f6d20746865207a65726f206160408201527f646472657373000000000000000000000000000000000000000000000000000060608201526000608082019050919050565b60208152602460208201527f4552433737373a207472616e7366657220746f20746865207a65726f2061646460408201527f726573730000000000000000000000000000000000000000000000000000000060608201526000608082019050919050565b60208152602460208201527f4552433737373a20617574686f72697a696e672073656c66206173206f70657260408201527f61746f720000000000000000000000000000000000000000000000000000000060608201526000608082019050919050565b60208152602160208201527f4552433737373a207265766f6b696e672073656c66206173206f70657261746f60408201527f720000000000000000000000000000000000000000000000000000000000000060608201526000608082019050919050565b60208152602260208201527f4552433737373a206275726e2066726f6d20746865207a65726f20616464726560408201527f737300000000000000000000000000000000000000000000000000000000000060608201526000608082019050919050565b60208152602360208201527f4552433737373a206275726e20616d6f756e7420657863656564732062616c6160408201527f6e6365000000000000000000000000000000000000000000000000000000000060608201526000608082019050919050565b6000828210156148cd576148cc61422a565b5b828203905092915050565b8381526060602082015260006148f1606083018561395e565b8281036040840152614903818561395e565b915050949350505050565b60208152602560208201527f4552433737373a20617070726f76652066726f6d20746865207a65726f20616460408201527f647265737300000000000000000000000000000000000000000000000000000060608201526000608082019050919050565b60208152602360208201527f4552433737373a20617070726f766520746f20746865207a65726f206164647260408201527f657373000000000000000000000000000000000000000000000000000000000060608201526000608082019050919050565b600060408201905060018060a01b03841682528260208301529392505050565b600060208284031215614a0857600080fd5b8151614a13816139a7565b8091505092915050565b600060018060a01b038089168352808816602084015280871660408401525084606083015260c06080830152614a5660c083018561395e565b82810360a0840152614a68818561395e565b915050979650505050505050565b60208152602760208201527f4552433737373a207472616e7366657220616d6f756e7420657863656564732060408201527f62616c616e63650000000000000000000000000000000000000000000000000060608201526000608082019050919050565b60008219821115614aee57614aed61422a565b5b828201905092915050565b60208152604d60208201527f4552433737373a20746f6b656e20726563697069656e7420636f6e747261637460408201527f20686173206e6f20696d706c656d656e74657220666f7220455243373737546f60608201527f6b656e73526563697069656e74000000000000000000000000000000000000006080820152600060a082019050919050565b7f416363657373436f6e74726f6c3a206163636f756e7420000000000000000000815260008351614bbb81601785016020880161392b565b80830190507f206973206d697373696e6720726f6c652000000000000000000000000000000060178201528351614bf981602884016020880161392b565b602881830101925050509392505050565b60208152601460208201527f5061757361626c653a206e6f742070617573656400000000000000000000000060408201526000606082019050919050565b6000816000190483118215151615614c6357614c6261422a565b5b828202905092915050565b600081614c7e57614c7d61422a565b5b60001982019050919050565b602081526020808201527f537472696e67733a20686578206c656e67746820696e73756666696369656e7460408201526000606082019050919050565b634e487b7160e01b600052603160045260246000fdfea2646970667358221220894df39fed4ea5dcbc5eb2ff47f8647b8056ca54d8a6b6622a181f302bd7d5e864736f6c634300080f0033",
  "linkReferences": {},
  "deployedLinkReferences": {}
}