{
  "_format": "hh-sol-artifact-1",
  "contractName": "ERC777PresetPausablePermissioned",
  "sourceName": "contracts/deprecated/ERC777PresetPausablePermissioned.sol",
  "abi": [
    {
      "anonymous": false,
      "inputs": [
        {
          "indexed": true,
          "internalType": "address",
          "name": "owner",
          "type": "address"
        },
        {
          "indexed": true,
          "internalType": "address",
          "name": "spender",
          "type": "address"
        },
        {
          "indexed": false,
          "internalType": "uint256",
          "name": "value",
          "type": "uint256"
        }
      ],
      "name": "Approval",
      "type": "event"
    },
    {
      "anonymous": false,
      "inputs": [
        {
          "indexed": true,
          "internalType": "address",
          "name": "operator",
          "type": "address"
        },
        {
          "indexed": true,
          "internalType": "address",
          "name": "tokenHolder",
          "type": "address"
        }
      ],
      "name": "AuthorizedOperator",
      "type": "event"
    },
    {
      "anonymous": false,
      "inputs": [
        {
          "indexed": true,
          "internalType": "address",
          "name": "operator",
          "type": "address"
        },
        {
          "indexed": true,
          "internalType": "address",
          "name": "from",
          "type": "address"
        },
        {
          "indexed": false,
          "internalType": "uint256",
          "name": "amount",
          "type": "uint256"
        },
        {
          "indexed": false,
          "internalType": "bytes",
          "name": "data",
          "type": "bytes"
        },
        {
          "indexed": false,
          "internalType": "bytes",
          "name": "operatorData",
          "type": "bytes"
        }
      ],
      "name": "Burned",
      "type": "event"
    },
    {
      "anonymous": false,
      "inputs": [
        {
          "indexed": false,
          "internalType": "uint8",
          "name": "version",
          "type": "uint8"
        }
      ],
      "name": "Initialized",
      "type": "event"
    },
    {
      "anonymous": false,
      "inputs": [
        {
          "indexed": true,
          "internalType": "address",
          "name": "operator",
          "type": "address"
        },
        {
          "indexed": true,
          "internalType": "address",
          "name": "to",
          "type": "address"
        },
        {
          "indexed": false,
          "internalType": "uint256",
          "name": "amount",
          "type": "uint256"
        },
        {
          "indexed": false,
          "internalType": "bytes",
          "name": "data",
          "type": "bytes"
        },
        {
          "indexed": false,
          "internalType": "bytes",
          "name": "operatorData",
          "type": "bytes"
        }
      ],
      "name": "Minted",
      "type": "event"
    },
    {
      "anonymous": false,
      "inputs": [
        {
          "indexed": false,
          "internalType": "address",
          "name": "account",
          "type": "address"
        }
      ],
      "name": "Paused",
      "type": "event"
    },
    {
      "anonymous": false,
      "inputs": [
        {
          "indexed": true,
          "internalType": "address",
          "name": "operator",
          "type": "address"
        },
        {
          "indexed": true,
          "internalType": "address",
          "name": "tokenHolder",
          "type": "address"
        }
      ],
      "name": "RevokedOperator",
      "type": "event"
    },
    {
      "anonymous": false,
      "inputs": [
        {
          "indexed": true,
          "internalType": "bytes32",
          "name": "role",
          "type": "bytes32"
        },
        {
          "indexed": true,
          "internalType": "bytes32",
          "name": "previousAdminRole",
          "type": "bytes32"
        },
        {
          "indexed": true,
          "internalType": "bytes32",
          "name": "newAdminRole",
          "type": "bytes32"
        }
      ],
      "name": "RoleAdminChanged",
      "type": "event"
    },
    {
      "anonymous": false,
      "inputs": [
        {
          "indexed": true,
          "internalType": "bytes32",
          "name": "role",
          "type": "bytes32"
        },
        {
          "indexed": true,
          "internalType": "address",
          "name": "account",
          "type": "address"
        },
        {
          "indexed": true,
          "internalType": "address",
          "name": "sender",
          "type": "address"
        }
      ],
      "name": "RoleGranted",
      "type": "event"
    },
    {
      "anonymous": false,
      "inputs": [
        {
          "indexed": true,
          "internalType": "bytes32",
          "name": "role",
          "type": "bytes32"
        },
        {
          "indexed": true,
          "internalType": "address",
          "name": "account",
          "type": "address"
        },
        {
          "indexed": true,
          "internalType": "address",
          "name": "sender",
          "type": "address"
        }
      ],
      "name": "RoleRevoked",
      "type": "event"
    },
    {
      "anonymous": false,
      "inputs": [
        {
          "indexed": true,
          "internalType": "address",
          "name": "operator",
          "type": "address"
        },
        {
          "indexed": true,
          "internalType": "address",
          "name": "from",
          "type": "address"
        },
        {
          "indexed": true,
          "internalType": "address",
          "name": "to",
          "type": "address"
        },
        {
          "indexed": false,
          "internalType": "uint256",
          "name": "amount",
          "type": "uint256"
        },
        {
          "indexed": false,
          "internalType": "bytes",
          "name": "data",
          "type": "bytes"
        },
        {
          "indexed": false,
          "internalType": "bytes",
          "name": "operatorData",
          "type": "bytes"
        }
      ],
      "name": "Sent",
      "type": "event"
    },
    {
      "anonymous": false,
      "inputs": [
        {
          "indexed": true,
          "internalType": "address",
          "name": "from",
          "type": "address"
        },
        {
          "indexed": false,
          "internalType": "address[]",
          "name": "recipients",
          "type": "address[]"
        },
        {
          "indexed": false,
          "internalType": "uint256[]",
          "name": "amounts",
          "type": "uint256[]"
        },
        {
          "indexed": false,
          "internalType": "bytes[]",
          "name": "userData",
          "type": "bytes[]"
        },
        {
          "indexed": false,
          "internalType": "bytes[]",
          "name": "operatorData",
          "type": "bytes[]"
        },
        {
          "indexed": false,
          "internalType": "bool[]",
          "name": "requireReceptionAck",
          "type": "bool[]"
        }
      ],
      "name": "SentBatch",
      "type": "event"
    },
    {
      "anonymous": false,
      "inputs": [
        {
          "indexed": true,
          "internalType": "address",
          "name": "from",
          "type": "address"
        },
        {
          "indexed": true,
          "internalType": "address",
          "name": "to",
          "type": "address"
        },
        {
          "indexed": false,
          "internalType": "uint256",
          "name": "value",
          "type": "uint256"
        }
      ],
      "name": "Transfer",
      "type": "event"
    },
    {
      "anonymous": false,
      "inputs": [
        {
          "indexed": false,
          "internalType": "address",
          "name": "account",
          "type": "address"
        }
      ],
      "name": "Unpaused",
      "type": "event"
    },
    {
      "inputs": [],
      "name": "DEFAULT_ADMIN_ROLE",
      "outputs": [
        {
          "internalType": "bytes32",
          "name": "",
          "type": "bytes32"
        }
      ],
      "stateMutability": "view",
      "type": "function"
    },
    {
      "inputs": [],
      "name": "PAUSER_ROLE",
      "outputs": [
        {
          "internalType": "bytes32",
          "name": "",
          "type": "bytes32"
        }
      ],
      "stateMutability": "view",
      "type": "function"
    },
    {
      "inputs": [
        {
          "internalType": "address",
          "name": "holder",
          "type": "address"
        },
        {
          "internalType": "address",
          "name": "spender",
          "type": "address"
        }
      ],
      "name": "allowance",
      "outputs": [
        {
          "internalType": "uint256",
          "name": "",
          "type": "uint256"
        }
      ],
      "stateMutability": "view",
      "type": "function"
    },
    {
      "inputs": [
        {
          "internalType": "address",
          "name": "spender",
          "type": "address"
        },
        {
          "internalType": "uint256",
          "name": "value",
          "type": "uint256"
        }
      ],
      "name": "approve",
      "outputs": [
        {
          "internalType": "bool",
          "name": "",
          "type": "bool"
        }
      ],
      "stateMutability": "nonpayable",
      "type": "function"
    },
    {
      "inputs": [
        {
          "internalType": "address",
          "name": "operator",
          "type": "address"
        }
      ],
      "name": "authorizeOperator",
      "outputs": [],
      "stateMutability": "nonpayable",
      "type": "function"
    },
    {
      "inputs": [
        {
          "internalType": "address",
          "name": "tokenHolder",
          "type": "address"
        }
      ],
      "name": "balanceOf",
      "outputs": [
        {
          "internalType": "uint256",
          "name": "",
          "type": "uint256"
        }
      ],
      "stateMutability": "view",
      "type": "function"
    },
    {
      "inputs": [
        {
          "internalType": "address[]",
          "name": "accounts",
          "type": "address[]"
        }
      ],
      "name": "balanceOfBatch",
      "outputs": [
        {
          "internalType": "uint256[]",
          "name": "",
          "type": "uint256[]"
        }
      ],
      "stateMutability": "view",
      "type": "function"
    },
    {
      "inputs": [
        {
          "internalType": "address[]",
          "name": "recipients",
          "type": "address[]"
        },
        {
          "internalType": "uint256[]",
          "name": "amounts",
          "type": "uint256[]"
        },
        {
          "internalType": "bytes[]",
          "name": "userData",
          "type": "bytes[]"
        },
        {
          "internalType": "bytes[]",
          "name": "operatorData",
          "type": "bytes[]"
        },
        {
          "internalType": "bool[]",
          "name": "requireReceptionAck",
          "type": "bool[]"
        }
      ],
      "name": "batchSend",
      "outputs": [],
      "stateMutability": "nonpayable",
      "type": "function"
    },
    {
      "inputs": [
        {
          "internalType": "uint256",
          "name": "amount",
          "type": "uint256"
        },
        {
          "internalType": "bytes",
          "name": "data",
          "type": "bytes"
        }
      ],
      "name": "burn",
      "outputs": [],
      "stateMutability": "nonpayable",
      "type": "function"
    },
    {
      "inputs": [],
      "name": "decimals",
      "outputs": [
        {
          "internalType": "uint8",
          "name": "",
          "type": "uint8"
        }
      ],
      "stateMutability": "pure",
      "type": "function"
    },
    {
      "inputs": [],
      "name": "defaultOperators",
      "outputs": [
        {
          "internalType": "address[]",
          "name": "",
          "type": "address[]"
        }
      ],
      "stateMutability": "view",
      "type": "function"
    },
    {
      "inputs": [
        {
          "internalType": "bytes32",
          "name": "role",
          "type": "bytes32"
        }
      ],
      "name": "getRoleAdmin",
      "outputs": [
        {
          "internalType": "bytes32",
          "name": "",
          "type": "bytes32"
        }
      ],
      "stateMutability": "view",
      "type": "function"
    },
    {
      "inputs": [
        {
          "internalType": "bytes32",
          "name": "role",
          "type": "bytes32"
        },
        {
          "internalType": "uint256",
          "name": "index",
          "type": "uint256"
        }
      ],
      "name": "getRoleMember",
      "outputs": [
        {
          "internalType": "address",
          "name": "",
          "type": "address"
        }
      ],
      "stateMutability": "view",
      "type": "function"
    },
    {
      "inputs": [
        {
          "internalType": "bytes32",
          "name": "role",
          "type": "bytes32"
        }
      ],
      "name": "getRoleMemberCount",
      "outputs": [
        {
          "internalType": "uint256",
          "name": "",
          "type": "uint256"
        }
      ],
      "stateMutability": "view",
      "type": "function"
    },
    {
      "inputs": [
        {
          "internalType": "bytes32",
          "name": "role",
          "type": "bytes32"
        },
        {
          "internalType": "address",
          "name": "account",
          "type": "address"
        }
      ],
      "name": "grantRole",
      "outputs": [],
      "stateMutability": "nonpayable",
      "type": "function"
    },
    {
      "inputs": [],
      "name": "granularity",
      "outputs": [
        {
          "internalType": "uint256",
          "name": "",
          "type": "uint256"
        }
      ],
      "stateMutability": "view",
      "type": "function"
    },
    {
      "inputs": [
        {
          "internalType": "bytes32",
          "name": "role",
          "type": "bytes32"
        },
        {
          "internalType": "address",
          "name": "account",
          "type": "address"
        }
      ],
      "name": "hasRole",
      "outputs": [
        {
          "internalType": "bool",
          "name": "",
          "type": "bool"
        }
      ],
      "stateMutability": "view",
      "type": "function"
    },
    {
      "inputs": [
        {
          "internalType": "address",
          "name": "operator",
          "type": "address"
        },
        {
          "internalType": "address",
          "name": "tokenHolder",
          "type": "address"
        }
      ],
      "name": "isOperatorFor",
      "outputs": [
        {
          "internalType": "bool",
          "name": "",
          "type": "bool"
        }
      ],
      "stateMutability": "view",
      "type": "function"
    },
    {
      "inputs": [],
      "name": "name",
      "outputs": [
        {
          "internalType": "string",
          "name": "",
          "type": "string"
        }
      ],
      "stateMutability": "view",
      "type": "function"
    },
    {
      "inputs": [
        {
          "internalType": "address",
          "name": "account",
          "type": "address"
        },
        {
          "internalType": "uint256",
          "name": "amount",
          "type": "uint256"
        },
        {
          "internalType": "bytes",
          "name": "data",
          "type": "bytes"
        },
        {
          "internalType": "bytes",
          "name": "operatorData",
          "type": "bytes"
        }
      ],
      "name": "operatorBurn",
      "outputs": [],
      "stateMutability": "nonpayable",
      "type": "function"
    },
    {
      "inputs": [
        {
          "internalType": "address",
          "name": "sender",
          "type": "address"
        },
        {
          "internalType": "address",
          "name": "recipient",
          "type": "address"
        },
        {
          "internalType": "uint256",
          "name": "amount",
          "type": "uint256"
        },
        {
          "internalType": "bytes",
          "name": "data",
          "type": "bytes"
        },
        {
          "internalType": "bytes",
          "name": "operatorData",
          "type": "bytes"
        }
      ],
      "name": "operatorSend",
      "outputs": [],
      "stateMutability": "nonpayable",
      "type": "function"
    },
    {
      "inputs": [],
      "name": "pause",
      "outputs": [],
      "stateMutability": "nonpayable",
      "type": "function"
    },
    {
      "inputs": [],
      "name": "paused",
      "outputs": [
        {
          "internalType": "bool",
          "name": "",
          "type": "bool"
        }
      ],
      "stateMutability": "view",
      "type": "function"
    },
    {
      "inputs": [
        {
          "internalType": "bytes32",
          "name": "role",
          "type": "bytes32"
        },
        {
          "internalType": "address",
          "name": "account",
          "type": "address"
        }
      ],
      "name": "renounceRole",
      "outputs": [],
      "stateMutability": "nonpayable",
      "type": "function"
    },
    {
      "inputs": [
        {
          "internalType": "address",
          "name": "operator",
          "type": "address"
        }
      ],
      "name": "revokeOperator",
      "outputs": [],
      "stateMutability": "nonpayable",
      "type": "function"
    },
    {
      "inputs": [
        {
          "internalType": "bytes32",
          "name": "role",
          "type": "bytes32"
        },
        {
          "internalType": "address",
          "name": "account",
          "type": "address"
        }
      ],
      "name": "revokeRole",
      "outputs": [],
      "stateMutability": "nonpayable",
      "type": "function"
    },
    {
      "inputs": [
        {
          "internalType": "address",
          "name": "recipient",
          "type": "address"
        },
        {
          "internalType": "uint256",
          "name": "amount",
          "type": "uint256"
        },
        {
          "internalType": "bytes",
          "name": "data",
          "type": "bytes"
        }
      ],
      "name": "send",
      "outputs": [],
      "stateMutability": "nonpayable",
      "type": "function"
    },
    {
      "inputs": [
        {
          "internalType": "bytes4",
          "name": "interfaceId",
          "type": "bytes4"
        }
      ],
      "name": "supportsInterface",
      "outputs": [
        {
          "internalType": "bool",
          "name": "",
          "type": "bool"
        }
      ],
      "stateMutability": "view",
      "type": "function"
    },
    {
      "inputs": [],
      "name": "symbol",
      "outputs": [
        {
          "internalType": "string",
          "name": "",
          "type": "string"
        }
      ],
      "stateMutability": "view",
      "type": "function"
    },
    {
      "inputs": [],
      "name": "totalSupply",
      "outputs": [
        {
          "internalType": "uint256",
          "name": "",
          "type": "uint256"
        }
      ],
      "stateMutability": "view",
      "type": "function"
    },
    {
      "inputs": [
        {
          "internalType": "address",
          "name": "recipient",
          "type": "address"
        },
        {
          "internalType": "uint256",
          "name": "amount",
          "type": "uint256"
        }
      ],
      "name": "transfer",
      "outputs": [
        {
          "internalType": "bool",
          "name": "",
          "type": "bool"
        }
      ],
      "stateMutability": "nonpayable",
      "type": "function"
    },
    {
      "inputs": [
        {
          "internalType": "address",
          "name": "holder",
          "type": "address"
        },
        {
          "internalType": "address",
          "name": "recipient",
          "type": "address"
        },
        {
          "internalType": "uint256",
          "name": "amount",
          "type": "uint256"
        }
      ],
      "name": "transferFrom",
      "outputs": [
        {
          "internalType": "bool",
          "name": "",
          "type": "bool"
        }
      ],
      "stateMutability": "nonpayable",
      "type": "function"
    },
    {
      "inputs": [],
      "name": "unpause",
      "outputs": [],
      "stateMutability": "nonpayable",
      "type": "function"
    }
  ],
  "bytecode": "0x608060405234801561001057600080fd5b50614160806100206000396000f3fe608060405234801561001057600080fd5b50600436106101fb5760003560e01c806370a082311161011a578063a9059cbb116100ad578063dd62ed3e1161007c578063dd62ed3e146105d8578063e63ab1e914610608578063fad8b32a14610626578063fc673c4f14610642578063fe9d93031461065e576101fb565b8063a9059cbb1461052c578063ca15c8731461055c578063d547741f1461058c578063d95b6371146105a8576101fb565b8063959b8c3f116100e9578063959b8c3f146104b857806395d89b41146104d45780639bd9bbc6146104f2578063a217fddf1461050e576101fb565b806370a082311461041e5780638456cb591461044e5780639010d07c1461045857806391d1485414610488576101fb565b8063313ce56711610192578063556f0dc711610161578063556f0dc7146103aa5780635c975abb146103c857806362ad1b83146103e657806366cf8bce14610402576101fb565b8063313ce5671461033657806336568abe146103545780633f4ba83a14610370578063458c738e1461037a576101fb565b806318160ddd116101ce57806318160ddd1461029c57806323b872dd146102ba578063248a9ca3146102ea5780632f2ff15d1461031a576101fb565b806301ffc9a71461020057806306e485381461023057806306fdde031461024e578063095ea7b31461026c575b600080fd5b61021a60048036038101906102159190612ccd565b61067a565b6040516102279190612d00565b60405180910390f35b6102386106f4565b6040516102459190612d5d565b60405180910390f35b610256610782565b6040516102639190612dd9565b60405180910390f35b61028660048036038101906102819190612e0b565b610814565b6040516102939190612d00565b60405180910390f35b6102a461083a565b6040516102b19190612e3b565b60405180910390f35b6102d460048036038101906102cf9190612e4c565b610844565b6040516102e19190612d00565b60405180910390f35b61030460048036038101906102ff9190612e90565b610895565b6040516103119190612eac565b60405180910390f35b610334600480360381019061032f9190612ebd565b6108b5565b005b61033e6108d6565b60405161034b9190612eed565b60405180910390f35b61036e60048036038101906103699190612ebd565b6108df565b005b610378610962565b005b610394600480360381019061038f9190612ff6565b610997565b6040516103a19190613076565b60405180910390f35b6103b2610a50565b6040516103bf9190612e3b565b60405180910390f35b6103d0610a59565b6040516103dd9190612d00565b60405180910390f35b61040060048036038101906103fb9190613103565b610a70565b005b61041c60048036038101906104179190613329565b610ad6565b005b610438600480360381019061043391906133fb565b610d01565b6040516104459190612e3b565b60405180910390f35b610456610d4a565b005b610472600480360381019061046d9190613422565b610d7f565b60405161047f9190613447565b60405180910390f35b6104a2600480360381019061049d9190612ebd565b610dae565b6040516104af9190612d00565b60405180910390f35b6104d260048036038101906104cd91906133fb565b610e19565b005b6104dc610e30565b6040516104e99190612dd9565b60405180910390f35b61050c60048036038101906105079190613460565b610ec2565b005b610516610eec565b6040516105239190612eac565b60405180910390f35b61054660048036038101906105419190612e0b565b610ef3565b6040516105539190612d00565b60405180910390f35b61057660048036038101906105719190612e90565b610f33565b6040516105839190612e3b565b60405180910390f35b6105a660048036038101906105a19190612ebd565b610f57565b005b6105c260048036038101906105bd91906134bb565b610f78565b6040516105cf9190612d00565b60405180910390f35b6105f260048036038101906105ed91906134bb565b611129565b6040516105ff9190612e3b565b60405180910390f35b6106106111b0565b60405161061d9190612eac565b60405180910390f35b610640600480360381019061063b91906133fb565b6111d4565b005b61065c600480360381019061065791906134f6565b6111eb565b005b61067860048036038101906106739190613578565b61124d565b005b60007f5a05180f000000000000000000000000000000000000000000000000000000007bffffffffffffffffffffffffffffffffffffffffffffffffffffffff1916827bffffffffffffffffffffffffffffffffffffffffffffffffffffffff191614806106ed57506106ec82611273565b5b9050919050565b6060603780548060200260200160405190810160405280929190818152602001828054801561077857602002820191906000526020600020905b8160009054906101000a900473ffffffffffffffffffffffffffffffffffffffff1673ffffffffffffffffffffffffffffffffffffffff168152602001906001019080831161072e575b5050505050905090565b606060358054610791906135bf565b80601f01602080910402602001604051908101604052809291908181526020018280546107bd906135bf565b801561080a5780601f106107df5761010080835404028352916020019161080a565b820191906000526020600020905b8154815290600101906020018083116107ed57829003601f168201915b5050505050905090565b600061081e6112ed565b6108288383611337565b6108328383611343565b905092915050565b6000603454905090565b60008061084f611366565b905061085c85828561136e565b610889858585604051806020016040528060008152506040518060200160405280600081525060006113fa565b60019150509392505050565b600060c96000838152602001908152602001600020600101549050919050565b6108be82610895565b6108c781611518565b6108d1838361152c565b505050565b60006012905090565b6108e7611366565b73ffffffffffffffffffffffffffffffffffffffff168173ffffffffffffffffffffffffffffffffffffffff1614610954576040517f08c379a000000000000000000000000000000000000000000000000000000000815260040161094b906135fd565b60405180910390fd5b61095e8282611544565b5050565b7f65d7a28e3265b37a6474929f336521b332c1681b933f6cb9f3376673440d862a61098c81611518565b61099461155c565b50565b60606000825167ffffffffffffffff8111156109b6576109b5612f01565b5b6040519080825280602002602001820160405280156109e45781602001602082028036833780820191505090505b50905060005b8351811015610a4657610a16848281518110610a0957610a08613661565b5b6020026020010151610d01565b828281518110610a2957610a28613661565b5b60200260200101818152505080610a3f9061368d565b90506109ea565b5080915050919050565b60006001905090565b6000606560009054906101000a900460ff16905090565b610a81610a7b611366565b86610f78565b610ac0576040517f08c379a0000000000000000000000000000000000000000000000000000000008152600401610ab7906136ab565b60405180910390fd5b610acf858585858560016113fa565b5050505050565b8351855114610b1a576040517f08c379a0000000000000000000000000000000000000000000000000000000008152600401610b119061370f565b60405180910390fd5b8251845114610b5e576040517f08c379a0000000000000000000000000000000000000000000000000000000008152600401610b5590613799565b60405180910390fd5b8151835114610ba2576040517f08c379a0000000000000000000000000000000000000000000000000000000008152600401610b9990613823565b60405180910390fd5b8051825114610be6576040517f08c379a0000000000000000000000000000000000000000000000000000000008152600401610bdd906138ad565b60405180910390fd5b60005b8551811015610c9c57610c89610bfd611366565b878381518110610c1057610c0f613661565b5b6020026020010151878481518110610c2b57610c2a613661565b5b6020026020010151878581518110610c4657610c45613661565b5b6020026020010151878681518110610c6157610c60613661565b5b6020026020010151878781518110610c7c57610c7b613661565b5b60200260200101516113fa565b8080610c949061368d565b915050610be9565b50610ca5611366565b73ffffffffffffffffffffffffffffffffffffffff167fd5865ae34f92a2d6a803fa13140b8165046f54e61e68560b26950c62a668c6b68686868686604051610cf2959493929190613993565b60405180910390a25050505050565b6000603360008373ffffffffffffffffffffffffffffffffffffffff1673ffffffffffffffffffffffffffffffffffffffff168152602001908152602001600020549050919050565b7f65d7a28e3265b37a6474929f336521b332c1681b933f6cb9f3376673440d862a610d7481611518565b610d7c6115bf565b50565b6000610da68260fb600086815260200190815260200160002061162290919063ffffffff16565b905092915050565b600060c9600084815260200190815260200160002060000160008373ffffffffffffffffffffffffffffffffffffffff1673ffffffffffffffffffffffffffffffffffffffff16815260200190815260200160002060009054906101000a900460ff16905092915050565b610e24816000611337565b610e2d8161163c565b50565b606060368054610e3f906135bf565b80601f0160208091040260200160405190810160405280929190818152602001828054610e6b906135bf565b8015610eb85780601f10610e8d57610100808354040283529160200191610eb8565b820191906000526020600020905b815481529060010190602001808311610e9b57829003601f168201915b5050505050905090565b610ee7610ecd611366565b8484846040518060200160405280600081525060016113fa565b505050565b6000801b81565b6000610f29610f00611366565b8484604051806020016040528060008152506040518060200160405280600081525060006113fa565b6001905092915050565b6000610f5060fb600084815260200190815260200160002061189c565b9050919050565b610f6082610895565b610f6981611518565b610f738383611544565b505050565b60008173ffffffffffffffffffffffffffffffffffffffff168373ffffffffffffffffffffffffffffffffffffffff1614806110905750603860008473ffffffffffffffffffffffffffffffffffffffff1673ffffffffffffffffffffffffffffffffffffffff16815260200190815260200160002060009054906101000a900460ff16801561108f5750603a60008373ffffffffffffffffffffffffffffffffffffffff1673ffffffffffffffffffffffffffffffffffffffff16815260200190815260200160002060008473ffffffffffffffffffffffffffffffffffffffff1673ffffffffffffffffffffffffffffffffffffffff16815260200190815260200160002060009054906101000a900460ff16155b5b806111215750603960008373ffffffffffffffffffffffffffffffffffffffff1673ffffffffffffffffffffffffffffffffffffffff16815260200190815260200160002060008473ffffffffffffffffffffffffffffffffffffffff1673ffffffffffffffffffffffffffffffffffffffff16815260200190815260200160002060009054906101000a900460ff165b905092915050565b6000603b60008473ffffffffffffffffffffffffffffffffffffffff1673ffffffffffffffffffffffffffffffffffffffff16815260200190815260200160002060008373ffffffffffffffffffffffffffffffffffffffff1673ffffffffffffffffffffffffffffffffffffffff16815260200190815260200160002054905092915050565b7f65d7a28e3265b37a6474929f336521b332c1681b933f6cb9f3376673440d862a81565b6111df816000611337565b6111e8816118b1565b50565b6111fc6111f6611366565b85610f78565b61123b576040517f08c379a0000000000000000000000000000000000000000000000000000000008152600401611232906136ab565b60405180910390fd5b61124784848484611b11565b50505050565b61126f611258611366565b838360405180602001604052806000815250611b11565b5050565b60007f7965db0b000000000000000000000000000000000000000000000000000000007bffffffffffffffffffffffffffffffffffffffffffffffffffffffff1916827bffffffffffffffffffffffffffffffffffffffffffffffffffffffff191614806112e657506112e582611d65565b5b9050919050565b6112f5610a59565b15611335576040517f08c379a000000000000000000000000000000000000000000000000000000000815260040161132c90613a33565b60405180910390fd5b565b61133f6112ed565b5050565b60008061134e611366565b905061135b818585611dcf565b600191505092915050565b600033905090565b600061137a8484611129565b90507fffffffffffffffffffffffffffffffffffffffffffffffffffffffffffffffff81146113f457818110156113e6576040517f08c379a00000000000000000000000000000000000000000000000000000000081526004016113dd90613a71565b60405180910390fd5b6113f38484848403611dcf565b5b50505050565b600073ffffffffffffffffffffffffffffffffffffffff168673ffffffffffffffffffffffffffffffffffffffff1603611469576040517f08c379a000000000000000000000000000000000000000000000000000000000815260040161146090613aaf565b60405180910390fd5b600073ffffffffffffffffffffffffffffffffffffffff168573ffffffffffffffffffffffffffffffffffffffff16036114d8576040517f08c379a00000000000000000000000000000000000000000000000000000000081526004016114cf90613b13565b60405180910390fd5b60006114e2611366565b90506114f2818888888888611f98565b6115008188888888886120ff565b61150f8188888888888861231c565b50505050505050565b61152981611524611366565b6124ee565b50565b611536828261258b565b6115408282612597565b5050565b61154e828261258b565b61155882826125cb565b5050565b6115646125ff565b6000606560006101000a81548160ff0219169083151502179055507f5db9ee0a495bf2e6ff9c91a7834c1ba4fdd244a5e8aa4e537bd38aeae4b073aa6115a8611366565b6040516115b59190613447565b60405180910390a1565b6115c76112ed565b6001606560006101000a81548160ff0219169083151502179055507f62e78cea01bee320cd4e420270b5ea74000d11b0c9f74754ebdbfc544b05a25861160b611366565b6040516116189190613447565b60405180910390a1565b60006116318360000183612648565b60001c905092915050565b8073ffffffffffffffffffffffffffffffffffffffff1661165b611366565b73ffffffffffffffffffffffffffffffffffffffff16036116b1576040517f08c379a00000000000000000000000000000000000000000000000000000000081526004016116a890613b77565b60405180910390fd5b603860008273ffffffffffffffffffffffffffffffffffffffff1673ffffffffffffffffffffffffffffffffffffffff16815260200190815260200160002060009054906101000a900460ff161561179b57603a600061170f611366565b73ffffffffffffffffffffffffffffffffffffffff1673ffffffffffffffffffffffffffffffffffffffff16815260200190815260200160002060008273ffffffffffffffffffffffffffffffffffffffff1673ffffffffffffffffffffffffffffffffffffffff16815260200190815260200160002060006101000a81549060ff0219169055611838565b6001603960006117a9611366565b73ffffffffffffffffffffffffffffffffffffffff1673ffffffffffffffffffffffffffffffffffffffff16815260200190815260200160002060008373ffffffffffffffffffffffffffffffffffffffff1673ffffffffffffffffffffffffffffffffffffffff16815260200190815260200160002060006101000a81548160ff0219169083151502179055505b611840611366565b73ffffffffffffffffffffffffffffffffffffffff168173ffffffffffffffffffffffffffffffffffffffff167ff4caeb2d6ca8932a215a353d0703c326ec2d81fc68170f320eb2ab49e9df61f960405160405180910390a350565b60006118aa82600001612673565b9050919050565b6118b9611366565b73ffffffffffffffffffffffffffffffffffffffff168173ffffffffffffffffffffffffffffffffffffffff1603611926576040517f08c379a000000000000000000000000000000000000000000000000000000000815260040161191d90613bdb565b60405180910390fd5b603860008273ffffffffffffffffffffffffffffffffffffffff1673ffffffffffffffffffffffffffffffffffffffff16815260200190815260200160002060009054906101000a900460ff1615611a19576001603a6000611986611366565b73ffffffffffffffffffffffffffffffffffffffff1673ffffffffffffffffffffffffffffffffffffffff16815260200190815260200160002060008373ffffffffffffffffffffffffffffffffffffffff1673ffffffffffffffffffffffffffffffffffffffff16815260200190815260200160002060006101000a81548160ff021916908315150217905550611aad565b60396000611a25611366565b73ffffffffffffffffffffffffffffffffffffffff1673ffffffffffffffffffffffffffffffffffffffff16815260200190815260200160002060008273ffffffffffffffffffffffffffffffffffffffff1673ffffffffffffffffffffffffffffffffffffffff16815260200190815260200160002060006101000a81549060ff02191690555b611ab5611366565b73ffffffffffffffffffffffffffffffffffffffff168173ffffffffffffffffffffffffffffffffffffffff167f50546e66e5f44d728365dc3908c63bc5cfeeab470722c1677e3073a6ac294aa160405160405180910390a350565b600073ffffffffffffffffffffffffffffffffffffffff168473ffffffffffffffffffffffffffffffffffffffff1603611b80576040517f08c379a0000000000000000000000000000000000000000000000000000000008152600401611b7790613c3f565b60405180910390fd5b6000611b8a611366565b9050611b9b81866000878787611f98565b611ba88186600087612684565b6000603360008773ffffffffffffffffffffffffffffffffffffffff1673ffffffffffffffffffffffffffffffffffffffff16815260200190815260200160002054905084811015611c2f576040517f08c379a0000000000000000000000000000000000000000000000000000000008152600401611c2690613ca3565b60405180910390fd5b848103603360008873ffffffffffffffffffffffffffffffffffffffff1673ffffffffffffffffffffffffffffffffffffffff168152602001908152602001600020819055508460346000828254611c879190613d07565b925050819055508573ffffffffffffffffffffffffffffffffffffffff168273ffffffffffffffffffffffffffffffffffffffff167fa78a9be3a7b862d26933ad85fb11d80ef66b8f972d7cbba06621d583943a4098878787604051611cef93929190613d25565b60405180910390a3600073ffffffffffffffffffffffffffffffffffffffff168673ffffffffffffffffffffffffffffffffffffffff167fddf252ad1be2c89b69c2b068fc378daa952ba7f163c4a11628f55a4df523b3ef87604051611d559190612e3b565b60405180910390a3505050505050565b60007f01ffc9a7000000000000000000000000000000000000000000000000000000007bffffffffffffffffffffffffffffffffffffffffffffffffffffffff1916827bffffffffffffffffffffffffffffffffffffffffffffffffffffffff1916149050919050565b600073ffffffffffffffffffffffffffffffffffffffff168373ffffffffffffffffffffffffffffffffffffffff1603611e3e576040517f08c379a0000000000000000000000000000000000000000000000000000000008152600401611e3590613d5b565b60405180910390fd5b600073ffffffffffffffffffffffffffffffffffffffff168273ffffffffffffffffffffffffffffffffffffffff1603611ead576040517f08c379a0000000000000000000000000000000000000000000000000000000008152600401611ea490613dbf565b60405180910390fd5b80603b60008573ffffffffffffffffffffffffffffffffffffffff1673ffffffffffffffffffffffffffffffffffffffff16815260200190815260200160002060008473ffffffffffffffffffffffffffffffffffffffff1673ffffffffffffffffffffffffffffffffffffffff168152602001908152602001600020819055508173ffffffffffffffffffffffffffffffffffffffff168373ffffffffffffffffffffffffffffffffffffffff167f8c5be1e5ebec7d5bd14f71427d1e84f3dd0314c0f7b2291e5b200ac8c7c3b92583604051611f8b9190612e3b565b60405180910390a3505050565b6000731820a4b7618bde71dce8cdc73aab6c95905fad2473ffffffffffffffffffffffffffffffffffffffff1663aabbb8ca877f29ddb589b1fb5fc7cf394961c1adf5f8c6454761adf795e67fe149f658abe8956040518363ffffffff1660e01b8152600401612009929190613e23565b602060405180830381865afa158015612026573d6000803e3d6000fd5b505050506040513d601f19601f8201168201806040525081019061204a9190613e43565b9050600073ffffffffffffffffffffffffffffffffffffffff168173ffffffffffffffffffffffffffffffffffffffff16146120f6578073ffffffffffffffffffffffffffffffffffffffff166375ab97828888888888886040518763ffffffff1660e01b81526004016120c396959493929190613e6a565b600060405180830381600087803b1580156120dd57600080fd5b505af11580156120f1573d6000803e3d6000fd5b505050505b50505050505050565b61210b86868686612684565b6000603360008773ffffffffffffffffffffffffffffffffffffffff1673ffffffffffffffffffffffffffffffffffffffff16815260200190815260200160002054905083811015612192576040517f08c379a000000000000000000000000000000000000000000000000000000000815260040161218990613ec3565b60405180910390fd5b838103603360008873ffffffffffffffffffffffffffffffffffffffff1673ffffffffffffffffffffffffffffffffffffffff1681526020019081526020016000208190555083603360008773ffffffffffffffffffffffffffffffffffffffff1673ffffffffffffffffffffffffffffffffffffffff16815260200190815260200160002060008282546122279190613f27565b925050819055508473ffffffffffffffffffffffffffffffffffffffff168673ffffffffffffffffffffffffffffffffffffffff168873ffffffffffffffffffffffffffffffffffffffff167f06b541ddaa720db2b10a4d0cdac39b8d360425fc073085fac19bc826146779878787876040516122a693929190613d25565b60405180910390a48473ffffffffffffffffffffffffffffffffffffffff168673ffffffffffffffffffffffffffffffffffffffff167fddf252ad1be2c89b69c2b068fc378daa952ba7f163c4a11628f55a4df523b3ef8660405161230b9190612e3b565b60405180910390a350505050505050565b6000731820a4b7618bde71dce8cdc73aab6c95905fad2473ffffffffffffffffffffffffffffffffffffffff1663aabbb8ca877fb281fc8c12954d22544db45de3159a39272895b169a852b314f9cc762e44c53b6040518363ffffffff1660e01b815260040161238d929190613e23565b602060405180830381865afa1580156123aa573d6000803e3d6000fd5b505050506040513d601f19601f820116820180604052508101906123ce9190613e43565b9050600073ffffffffffffffffffffffffffffffffffffffff168173ffffffffffffffffffffffffffffffffffffffff161461247d578073ffffffffffffffffffffffffffffffffffffffff166223de298989898989896040518763ffffffff1660e01b815260040161244696959493929190613e6a565b600060405180830381600087803b15801561246057600080fd5b505af1158015612474573d6000803e3d6000fd5b505050506124e4565b81156124e3576124a28673ffffffffffffffffffffffffffffffffffffffff1661269e565b156124e2576040517f08c379a00000000000000000000000000000000000000000000000000000000081526004016124d990613f46565b60405180910390fd5b5b5b5050505050505050565b6124f88282610dae565b6125875761251d8173ffffffffffffffffffffffffffffffffffffffff1660146126c1565b61252b8360001c60206126c1565b60405160200161253c929190613fd0565b6040516020818303038152906040526040517f08c379a000000000000000000000000000000000000000000000000000000000815260040161257e9190612dd9565b60405180910390fd5b5050565b6125936112ed565b5050565b6125a182826128fd565b6125c68160fb60008581526020019081526020016000206129de90919063ffffffff16565b505050565b6125d58282612a0e565b6125fa8160fb6000858152602001908152602001600020612af090919063ffffffff16565b505050565b612607610a59565b612646576040517f08c379a000000000000000000000000000000000000000000000000000000000815260040161263d90614057565b60405180910390fd5b565b60008260000182815481106126605761265f613661565b5b9060005260206000200154905092915050565b600081600001805490509050919050565b61268c6112ed565b61269884848484612b20565b50505050565b6000808273ffffffffffffffffffffffffffffffffffffffff163b119050919050565b6060600060028360026126d49190614095565b6126de9190613f27565b67ffffffffffffffff8111156126f7576126f6612f01565b5b6040519080825280601f01601f1916602001820160405280156127295781602001600182028036833780820191505090505b5090507f30000000000000000000000000000000000000000000000000000000000000008160008151811061276157612760613661565b5b60200101907effffffffffffffffffffffffffffffffffffffffffffffffffffffffffffff1916908160001a9053507f7800000000000000000000000000000000000000000000000000000000000000816001815181106127c5576127c4613661565b5b60200101907effffffffffffffffffffffffffffffffffffffffffffffffffffffffffffff1916908160001a905350600060018460026128059190614095565b61280f9190613f27565b90505b60018111156128af577f3031323334353637383961626364656600000000000000000000000000000000600f86166010811061285157612850613661565b5b1a60f81b82828151811061286857612867613661565b5b60200101907effffffffffffffffffffffffffffffffffffffffffffffffffffffffffffff1916908160001a905350600485901c9450806128a8906140bb565b9050612812565b50600084146128f3576040517f08c379a00000000000000000000000000000000000000000000000000000000081526004016128ea906140d7565b60405180910390fd5b8091505092915050565b6129078282610dae565b6129da57600160c9600084815260200190815260200160002060000160008373ffffffffffffffffffffffffffffffffffffffff1673ffffffffffffffffffffffffffffffffffffffff16815260200190815260200160002060006101000a81548160ff02191690831515021790555061297f611366565b73ffffffffffffffffffffffffffffffffffffffff168173ffffffffffffffffffffffffffffffffffffffff16837f2f8788117e7eff1d82e926ec794901d17c78024a50270940304540a733656f0d60405160405180910390a45b5050565b6000612a06836000018373ffffffffffffffffffffffffffffffffffffffff1660001b612b26565b905092915050565b612a188282610dae565b15612aec57600060c9600084815260200190815260200160002060000160008373ffffffffffffffffffffffffffffffffffffffff1673ffffffffffffffffffffffffffffffffffffffff16815260200190815260200160002060006101000a81548160ff021916908315150217905550612a91611366565b73ffffffffffffffffffffffffffffffffffffffff168173ffffffffffffffffffffffffffffffffffffffff16837ff6391f5c32d9c69d2a47ea670b442974b53935d1edc7fd64eb21e047a839171b60405160405180910390a45b5050565b6000612b18836000018373ffffffffffffffffffffffffffffffffffffffff1660001b612b96565b905092915050565b50505050565b6000612b328383612caa565b612b8b578260000182908060018154018082558091505060019003906000526020600020016000909190919091505582600001805490508360010160008481526020019081526020016000208190555060019050612b90565b600090505b92915050565b60008083600101600084815260200190815260200160002054905060008114612c9e576000600182612bc89190613d07565b9050600060018660000180549050612be09190613d07565b9050818114612c4f576000866000018281548110612c0157612c00613661565b5b9060005260206000200154905080876000018481548110612c2557612c24613661565b5b90600052602060002001819055508387600101600083815260200190815260200160002081905550505b85600001805480612c6357612c62614114565b5b600190038181906000526020600020016000905590558560010160008681526020019081526020016000206000905560019350505050612ca4565b60009150505b92915050565b600080836001016000848152602001908152602001600020541415905092915050565b600060208284031215612cdf57600080fd5b813563ffffffff60e01b81168114612cf657600080fd5b8091505092915050565b6000602082019050821515825292915050565b600081518084526020808501945080840160005b83811015612d505760018060a01b03825116875282870196508282019150600181019050612d27565b5050505082905092915050565b602081526000612d706020830184612d13565b905092915050565b60005b83811015612d96578082015181840152602081019050612d7b565b83811115612da5576000848401525b50505050565b60008151808452612dc3816020860160208601612d78565b6020601f19601f83011685010191505092915050565b602081526000612dec6020830184612dab565b905092915050565b60018060a01b0381168114612e0857600080fd5b50565b60008060408385031215612e1e57600080fd5b8235612e2981612df4565b80925050602083013590509250929050565b600060208201905082825292915050565b600080600060608486031215612e6157600080fd5b8335612e6c81612df4565b809350506020840135612e7e81612df4565b80925050604084013590509250925092565b600060208284031215612ea257600080fd5b8135905092915050565b600060208201905082825292915050565b60008060408385031215612ed057600080fd5b823591506020830135612ee281612df4565b809150509250929050565b600060208201905060ff8316825292915050565b634e487b7160e01b600052604160045260246000fd5b60006040519050601f19601f830116810181811067ffffffffffffffff82111715612f4557612f44612f01565b5b8060405250919050565b600067ffffffffffffffff821115612f6a57612f69612f01565b5b60208260051b019050919050565b600082601f830112612f8957600080fd5b81356020612f9e612f9983612f4f565b612f17565b808382528282019150828460051b870101935086841115612fbe57600080fd5b8286015b84811015612fe8578035612fd581612df4565b8084525083830192508381019050612fc2565b508094505050505092915050565b60006020828403121561300857600080fd5b813567ffffffffffffffff81111561301f57600080fd5b61302b84828501612f78565b91505092915050565b600081518084526020808501945080840160005b83811015613069578151875282870196508282019150600181019050613048565b5050505082905092915050565b6020815260006130896020830184613034565b905092915050565b600082601f8301126130a257600080fd5b813567ffffffffffffffff8111156130bd576130bc612f01565b5b6130d06020601f19601f84011601612f17565b8181528460208386010111156130e557600080fd5b81602085016020830137600060208383010152809250505092915050565b600080600080600060a0868803121561311b57600080fd5b853561312681612df4565b80955050602086013561313881612df4565b8094505060408601359250606086013567ffffffffffffffff8082111561315e57600080fd5b61316a89838a01613091565b9350608088013591508082111561318057600080fd5b5061318d88828901613091565b9150509295509295909350565b600082601f8301126131ab57600080fd5b813560206131c06131bb83612f4f565b612f17565b808382528282019150828460051b8701019350868411156131e057600080fd5b8286015b848110156131ff5780358352838301925083810190506131e4565b508094505050505092915050565b600082601f83011261321e57600080fd5b8135602061323361322e83612f4f565b612f17565b808382528282019150828460051b87010193508684111561325357600080fd5b8286015b8481101561329757803567ffffffffffffffff8111156132775760008081fd5b6132858986838b0101613091565b84525083830192508381019050613257565b508094505050505092915050565b600082601f8301126132b657600080fd5b813560206132cb6132c683612f4f565b612f17565b808382528282019150828460051b8701019350868411156132eb57600080fd5b8286015b8481101561331b57803580151581146133085760008081fd5b80845250838301925083810190506132ef565b508094505050505092915050565b600080600080600060a0868803121561334157600080fd5b853567ffffffffffffffff8082111561335957600080fd5b61336589838a01612f78565b9650602088013591508082111561337b57600080fd5b61338789838a0161319a565b9550604088013591508082111561339d57600080fd5b6133a989838a0161320d565b945060608801359150808211156133bf57600080fd5b6133cb89838a0161320d565b935060808801359150808211156133e157600080fd5b506133ee888289016132a5565b9150509295509295909350565b60006020828403121561340d57600080fd5b813561341881612df4565b8091505092915050565b6000806040838503121561343557600080fd5b82359150602083013590509250929050565b600060208201905060018060a01b038316825292915050565b60008060006060848603121561347557600080fd5b833561348081612df4565b8093505060208401359150604084013567ffffffffffffffff8111156134a557600080fd5b6134b186828701613091565b9150509250925092565b600080604083850312156134ce57600080fd5b82356134d981612df4565b8092505060208301356134eb81612df4565b809150509250929050565b6000806000806080858703121561350c57600080fd5b843561351781612df4565b8094505060208501359250604085013567ffffffffffffffff8082111561353d57600080fd5b61354988838901613091565b9350606087013591508082111561355f57600080fd5b5061356c87828801613091565b91505092959194509250565b6000806040838503121561358b57600080fd5b82359150602083013567ffffffffffffffff8111156135a957600080fd5b6135b585828601613091565b9150509250929050565b60008160011c905060018216806135d757607f821691505b6020821081036135f757634e487b7160e01b600052602260045260246000fd5b50919050565b60208152602f60208201527f416363657373436f6e74726f6c3a2063616e206f6e6c792072656e6f756e636560408201527f20726f6c657320666f722073656c66000000000000000000000000000000000060608201526000608082019050919050565b634e487b7160e01b600052603260045260246000fd5b634e487b7160e01b600052601160045260246000fd5b6000801982036136a05761369f613677565b5b600182019050919050565b60208152602c60208201527f4552433737373a2063616c6c6572206973206e6f7420616e206f70657261746f60408201527f7220666f7220686f6c646572000000000000000000000000000000000000000060608201526000608082019050919050565b60208152604660208201527f4552433737375072657365745061757361626c655065726d697373696f6e656460408201527f3a20726563697069656e7420616e6420616d6f756e74206c656e677468206d6960608201527f736d6174636800000000000000000000000000000000000000000000000000006080820152600060a082019050919050565b60208152604660208201527f4552433737375072657365745061757361626c655065726d697373696f6e656460408201527f3a20616d6f756e747320616e64207573657244617461206c656e677468206d6960608201527f736d6174636800000000000000000000000000000000000000000000000000006080820152600060a082019050919050565b60208152604b60208201527f4552433737375072657365745061757361626c655065726d697373696f6e656460408201527f3a20757365724461746120616e64206f70657261746f7244617461206c656e6760608201527f7468206d69736d617463680000000000000000000000000000000000000000006080820152600060a082019050919050565b60208152605660208201527f4552433737375072657365745061757361626c655065726d697373696f6e656460408201527f3a206f70657261746f724461746120616e64207265717569726552656365707460608201527f696f6e41636b206c656e677468206d69736d61746368000000000000000000006080820152600060a082019050919050565b600081518084526020808501808196508360051b8101915082860160005b8581101561398457828403895261396d848351612dab565b935084820191508489019850600181019050613955565b50505080935050505092915050565b60a0815260006139a660a0830188612d13565b6020838203818501526139b98289613034565b915083820360408501526139cd8288613937565b915083820360608501526139e18287613937565b915083820360808501528185518084528284019150828701935060005b81811015613a2157845115158352838301925083850194506001810190506139fe565b50508093505050509695505050505050565b60208152601060208201527f5061757361626c653a207061757365640000000000000000000000000000000060408201526000606082019050919050565b60208152601e60208201527f4552433737373a20696e73756666696369656e7420616c6c6f77616e6365000060408201526000606082019050919050565b60208152602660208201527f4552433737373a207472616e736665722066726f6d20746865207a65726f206160408201527f646472657373000000000000000000000000000000000000000000000000000060608201526000608082019050919050565b60208152602460208201527f4552433737373a207472616e7366657220746f20746865207a65726f2061646460408201527f726573730000000000000000000000000000000000000000000000000000000060608201526000608082019050919050565b60208152602460208201527f4552433737373a20617574686f72697a696e672073656c66206173206f70657260408201527f61746f720000000000000000000000000000000000000000000000000000000060608201526000608082019050919050565b60208152602160208201527f4552433737373a207265766f6b696e672073656c66206173206f70657261746f60408201527f720000000000000000000000000000000000000000000000000000000000000060608201526000608082019050919050565b60208152602260208201527f4552433737373a206275726e2066726f6d20746865207a65726f20616464726560408201527f737300000000000000000000000000000000000000000000000000000000000060608201526000608082019050919050565b60208152602360208201527f4552433737373a206275726e20616d6f756e7420657863656564732062616c6160408201527f6e6365000000000000000000000000000000000000000000000000000000000060608201526000608082019050919050565b600082821015613d1a57613d19613677565b5b828203905092915050565b838152606060208201526000613d3e6060830185612dab565b8281036040840152613d508185612dab565b915050949350505050565b60208152602560208201527f4552433737373a20617070726f76652066726f6d20746865207a65726f20616460408201527f647265737300000000000000000000000000000000000000000000000000000060608201526000608082019050919050565b60208152602360208201527f4552433737373a20617070726f766520746f20746865207a65726f206164647260408201527f657373000000000000000000000000000000000000000000000000000000000060608201526000608082019050919050565b600060408201905060018060a01b03841682528260208301529392505050565b600060208284031215613e5557600080fd5b8151613e6081612df4565b8091505092915050565b600060018060a01b038089168352808816602084015280871660408401525084606083015260c06080830152613ea360c0830185612dab565b82810360a0840152613eb58185612dab565b915050979650505050505050565b60208152602760208201527f4552433737373a207472616e7366657220616d6f756e7420657863656564732060408201527f62616c616e63650000000000000000000000000000000000000000000000000060608201526000608082019050919050565b60008219821115613f3b57613f3a613677565b5b828201905092915050565b60208152604d60208201527f4552433737373a20746f6b656e20726563697069656e7420636f6e747261637460408201527f20686173206e6f20696d706c656d656e74657220666f7220455243373737546f60608201527f6b656e73526563697069656e74000000000000000000000000000000000000006080820152600060a082019050919050565b7f416363657373436f6e74726f6c3a206163636f756e7420000000000000000000815260008351614008816017850160208801612d78565b80830190507f206973206d697373696e6720726f6c652000000000000000000000000000000060178201528351614046816028840160208801612d78565b602881830101925050509392505050565b60208152601460208201527f5061757361626c653a206e6f742070617573656400000000000000000000000060408201526000606082019050919050565b60008160001904831182151516156140b0576140af613677565b5b828202905092915050565b6000816140cb576140ca613677565b5b60001982019050919050565b602081526020808201527f537472696e67733a20686578206c656e67746820696e73756666696369656e7460408201526000606082019050919050565b634e487b7160e01b600052603160045260246000fdfea26469706673582212204e251c6b043eccc953577d9254c2f67a23b729a00f16a382518b08f6e215708b64736f6c634300080f0033",
  "linkReferences": {},
  "deployedLinkReferences": {}
}