{
  "address": "0x6079d507AA53BdF8090307cBBb448A30B746C8b1",
  "abi": [
    {
      "inputs": [],
      "stateMutability": "nonpayable",
      "type": "constructor"
    },
    {
      "inputs": [],
      "name": "ApprovalCallerNotOwnerNorApproved",
      "type": "error"
    },
    {
      "inputs": [],
      "name": "ApprovalQueryForNonexistentToken",
      "type": "error"
    },
    {
      "inputs": [],
      "name": "ApproveToCaller",
      "type": "error"
    },
    {
      "inputs": [
        {
          "internalType": "string",
          "name": "array1Name",
          "type": "string"
        },
        {
          "internalType": "string",
          "name": "array2Name",
          "type": "string"
        }
      ],
      "name": "ArrayLengthMismatch",
      "type": "error"
    },
    {
      "inputs": [],
      "name": "BalanceQueryForZeroAddress",
      "type": "error"
    },
    {
      "inputs": [],
      "name": "ForbiddenTransferAfterMinting",
      "type": "error"
    },
    {
      "inputs": [],
      "name": "FunctionDisabled",
      "type": "error"
    },
    {
      "inputs": [],
      "name": "InvalidQueryRange",
      "type": "error"
    },
    {
      "inputs": [],
      "name": "MintERC2309QuantityExceedsLimit",
      "type": "error"
    },
    {
      "inputs": [],
      "name": "MintToZeroAddress",
      "type": "error"
    },
    {
      "inputs": [],
      "name": "MintZeroQuantity",
      "type": "error"
    },
    {
      "inputs": [],
      "name": "OwnerQueryForNonexistentToken",
      "type": "error"
    },
    {
      "inputs": [],
      "name": "OwnershipNotInitializedForExtraData",
      "type": "error"
    },
    {
      "inputs": [],
      "name": "SenderNotRemovalContract",
      "type": "error"
    },
    {
      "inputs": [],
      "name": "TransferCallerNotOwnerNorApproved",
      "type": "error"
    },
    {
      "inputs": [],
      "name": "TransferFromIncorrectOwner",
      "type": "error"
    },
    {
      "inputs": [],
      "name": "TransferToNonERC721ReceiverImplementer",
      "type": "error"
    },
    {
      "inputs": [],
      "name": "TransferToZeroAddress",
      "type": "error"
    },
    {
      "inputs": [],
      "name": "URIQueryForNonexistentToken",
      "type": "error"
    },
    {
      "anonymous": false,
      "inputs": [
        {
          "indexed": true,
          "internalType": "address",
          "name": "owner",
          "type": "address"
        },
        {
          "indexed": true,
          "internalType": "address",
          "name": "approved",
          "type": "address"
        },
        {
          "indexed": true,
          "internalType": "uint256",
          "name": "tokenId",
          "type": "uint256"
        }
      ],
      "name": "Approval",
      "type": "event"
    },
    {
      "anonymous": false,
      "inputs": [
        {
          "indexed": true,
          "internalType": "address",
          "name": "owner",
          "type": "address"
        },
        {
          "indexed": true,
          "internalType": "address",
          "name": "operator",
          "type": "address"
        },
        {
          "indexed": false,
          "internalType": "bool",
          "name": "approved",
          "type": "bool"
        }
      ],
      "name": "ApprovalForAll",
      "type": "event"
    },
    {
      "anonymous": false,
      "inputs": [
        {
          "indexed": true,
          "internalType": "uint256",
          "name": "fromTokenId",
          "type": "uint256"
        },
        {
          "indexed": false,
          "internalType": "uint256",
          "name": "toTokenId",
          "type": "uint256"
        },
        {
          "indexed": true,
          "internalType": "address",
          "name": "from",
          "type": "address"
        },
        {
          "indexed": true,
          "internalType": "address",
          "name": "to",
          "type": "address"
        }
      ],
      "name": "ConsecutiveTransfer",
      "type": "event"
    },
    {
      "anonymous": false,
      "inputs": [
        {
          "indexed": false,
          "internalType": "contract IRemoval",
          "name": "removal",
          "type": "address"
        }
      ],
      "name": "ContractAddressesRegistered",
      "type": "event"
    },
    {
      "anonymous": false,
      "inputs": [
        {
          "indexed": false,
          "internalType": "uint8",
          "name": "version",
          "type": "uint8"
        }
      ],
      "name": "Initialized",
      "type": "event"
    },
    {
      "anonymous": false,
      "inputs": [
        {
          "indexed": false,
          "internalType": "address",
          "name": "account",
          "type": "address"
        }
      ],
      "name": "Paused",
      "type": "event"
    },
    {
      "anonymous": false,
      "inputs": [
        {
          "indexed": false,
          "internalType": "address",
          "name": "from",
          "type": "address"
        },
        {
          "indexed": true,
          "internalType": "address",
          "name": "recipient",
          "type": "address"
        },
        {
          "indexed": true,
          "internalType": "uint256",
          "name": "certificateId",
          "type": "uint256"
        },
        {
          "indexed": false,
          "internalType": "uint256",
          "name": "certificateAmount",
          "type": "uint256"
        },
        {
          "indexed": false,
          "internalType": "uint256[]",
          "name": "removalIds",
          "type": "uint256[]"
        },
        {
          "indexed": false,
          "internalType": "uint256[]",
          "name": "removalAmounts",
          "type": "uint256[]"
        }
      ],
      "name": "ReceiveRemovalBatch",
      "type": "event"
    },
    {
      "anonymous": false,
      "inputs": [
        {
          "indexed": true,
          "internalType": "bytes32",
          "name": "role",
          "type": "bytes32"
        },
        {
          "indexed": true,
          "internalType": "bytes32",
          "name": "previousAdminRole",
          "type": "bytes32"
        },
        {
          "indexed": true,
          "internalType": "bytes32",
          "name": "newAdminRole",
          "type": "bytes32"
        }
      ],
      "name": "RoleAdminChanged",
      "type": "event"
    },
    {
      "anonymous": false,
      "inputs": [
        {
          "indexed": true,
          "internalType": "bytes32",
          "name": "role",
          "type": "bytes32"
        },
        {
          "indexed": true,
          "internalType": "address",
          "name": "account",
          "type": "address"
        },
        {
          "indexed": true,
          "internalType": "address",
          "name": "sender",
          "type": "address"
        }
      ],
      "name": "RoleGranted",
      "type": "event"
    },
    {
      "anonymous": false,
      "inputs": [
        {
          "indexed": true,
          "internalType": "bytes32",
          "name": "role",
          "type": "bytes32"
        },
        {
          "indexed": true,
          "internalType": "address",
          "name": "account",
          "type": "address"
        },
        {
          "indexed": true,
          "internalType": "address",
          "name": "sender",
          "type": "address"
        }
      ],
      "name": "RoleRevoked",
      "type": "event"
    },
    {
      "anonymous": false,
      "inputs": [
        {
          "indexed": true,
          "internalType": "address",
          "name": "from",
          "type": "address"
        },
        {
          "indexed": true,
          "internalType": "address",
          "name": "to",
          "type": "address"
        },
        {
          "indexed": true,
          "internalType": "uint256",
          "name": "tokenId",
          "type": "uint256"
        }
      ],
      "name": "Transfer",
      "type": "event"
    },
    {
      "anonymous": false,
      "inputs": [
        {
          "indexed": false,
          "internalType": "address",
          "name": "account",
          "type": "address"
        }
      ],
      "name": "Unpaused",
      "type": "event"
    },
    {
      "inputs": [],
      "name": "CERTIFICATE_OPERATOR_ROLE",
      "outputs": [
        {
          "internalType": "bytes32",
          "name": "",
          "type": "bytes32"
        }
      ],
      "stateMutability": "view",
      "type": "function"
    },
    {
      "inputs": [],
      "name": "DEFAULT_ADMIN_ROLE",
      "outputs": [
        {
          "internalType": "bytes32",
          "name": "",
          "type": "bytes32"
        }
      ],
      "stateMutability": "view",
      "type": "function"
    },
    {
      "inputs": [],
      "name": "PAUSER_ROLE",
      "outputs": [
        {
          "internalType": "bytes32",
          "name": "",
          "type": "bytes32"
        }
      ],
      "stateMutability": "view",
      "type": "function"
    },
    {
      "inputs": [
        {
          "internalType": "address",
          "name": "",
          "type": "address"
        },
        {
          "internalType": "uint256",
          "name": "",
          "type": "uint256"
        }
      ],
      "name": "approve",
      "outputs": [],
      "stateMutability": "pure",
      "type": "function"
    },
    {
      "inputs": [
        {
          "internalType": "address",
          "name": "owner",
          "type": "address"
        }
      ],
      "name": "balanceOf",
      "outputs": [
        {
          "internalType": "uint256",
          "name": "",
          "type": "uint256"
        }
      ],
      "stateMutability": "view",
      "type": "function"
    },
    {
      "inputs": [
        {
          "internalType": "uint256",
          "name": "tokenId",
          "type": "uint256"
        }
      ],
      "name": "burn",
      "outputs": [],
      "stateMutability": "nonpayable",
      "type": "function"
    },
    {
      "inputs": [
        {
          "internalType": "uint256",
          "name": "tokenId",
          "type": "uint256"
        }
      ],
      "name": "explicitOwnershipOf",
      "outputs": [
        {
          "components": [
            {
              "internalType": "address",
              "name": "addr",
              "type": "address"
            },
            {
              "internalType": "uint64",
              "name": "startTimestamp",
              "type": "uint64"
            },
            {
              "internalType": "bool",
              "name": "burned",
              "type": "bool"
            },
            {
              "internalType": "uint24",
              "name": "extraData",
              "type": "uint24"
            }
          ],
          "internalType": "struct IERC721AUpgradeable.TokenOwnership",
          "name": "",
          "type": "tuple"
        }
      ],
      "stateMutability": "view",
      "type": "function"
    },
    {
      "inputs": [
        {
          "internalType": "uint256[]",
          "name": "tokenIds",
          "type": "uint256[]"
        }
      ],
      "name": "explicitOwnershipsOf",
      "outputs": [
        {
          "components": [
            {
              "internalType": "address",
              "name": "addr",
              "type": "address"
            },
            {
              "internalType": "uint64",
              "name": "startTimestamp",
              "type": "uint64"
            },
            {
              "internalType": "bool",
              "name": "burned",
              "type": "bool"
            },
            {
              "internalType": "uint24",
              "name": "extraData",
              "type": "uint24"
            }
          ],
          "internalType": "struct IERC721AUpgradeable.TokenOwnership[]",
          "name": "",
          "type": "tuple[]"
        }
      ],
      "stateMutability": "view",
      "type": "function"
    },
    {
      "inputs": [
        {
          "internalType": "uint256",
          "name": "tokenId",
          "type": "uint256"
        }
      ],
      "name": "getApproved",
      "outputs": [
        {
          "internalType": "address",
          "name": "",
          "type": "address"
        }
      ],
      "stateMutability": "view",
      "type": "function"
    },
    {
      "inputs": [
        {
          "internalType": "bytes32",
          "name": "role",
          "type": "bytes32"
        }
      ],
      "name": "getRoleAdmin",
      "outputs": [
        {
          "internalType": "bytes32",
          "name": "",
          "type": "bytes32"
        }
      ],
      "stateMutability": "view",
      "type": "function"
    },
    {
      "inputs": [
        {
          "internalType": "bytes32",
          "name": "role",
          "type": "bytes32"
        },
        {
          "internalType": "uint256",
          "name": "index",
          "type": "uint256"
        }
      ],
      "name": "getRoleMember",
      "outputs": [
        {
          "internalType": "address",
          "name": "",
          "type": "address"
        }
      ],
      "stateMutability": "view",
      "type": "function"
    },
    {
      "inputs": [
        {
          "internalType": "bytes32",
          "name": "role",
          "type": "bytes32"
        }
      ],
      "name": "getRoleMemberCount",
      "outputs": [
        {
          "internalType": "uint256",
          "name": "",
          "type": "uint256"
        }
      ],
      "stateMutability": "view",
      "type": "function"
    },
    {
      "inputs": [
        {
          "internalType": "bytes32",
          "name": "role",
          "type": "bytes32"
        },
        {
          "internalType": "address",
          "name": "account",
          "type": "address"
        }
      ],
      "name": "grantRole",
      "outputs": [],
      "stateMutability": "nonpayable",
      "type": "function"
    },
    {
      "inputs": [
        {
          "internalType": "bytes32",
          "name": "role",
          "type": "bytes32"
        },
        {
          "internalType": "address",
          "name": "account",
          "type": "address"
        }
      ],
      "name": "hasRole",
      "outputs": [
        {
          "internalType": "bool",
          "name": "",
          "type": "bool"
        }
      ],
      "stateMutability": "view",
      "type": "function"
    },
    {
      "inputs": [
        {
          "internalType": "string",
          "name": "baseURI",
          "type": "string"
        }
      ],
      "name": "initialize",
      "outputs": [],
      "stateMutability": "nonpayable",
      "type": "function"
    },
    {
      "inputs": [
        {
          "internalType": "address",
          "name": "owner",
          "type": "address"
        },
        {
          "internalType": "address",
          "name": "operator",
          "type": "address"
        }
      ],
      "name": "isApprovedForAll",
      "outputs": [
        {
          "internalType": "bool",
          "name": "",
          "type": "bool"
        }
      ],
      "stateMutability": "view",
      "type": "function"
    },
    {
      "inputs": [
        {
          "internalType": "bytes[]",
          "name": "data",
          "type": "bytes[]"
        }
      ],
      "name": "multicall",
      "outputs": [
        {
          "internalType": "bytes[]",
          "name": "results",
          "type": "bytes[]"
        }
      ],
      "stateMutability": "nonpayable",
      "type": "function"
    },
    {
      "inputs": [],
      "name": "name",
      "outputs": [
        {
          "internalType": "string",
          "name": "",
          "type": "string"
        }
      ],
      "stateMutability": "view",
      "type": "function"
    },
    {
      "inputs": [
        {
          "internalType": "address",
          "name": "",
          "type": "address"
        },
        {
          "internalType": "address",
          "name": "",
          "type": "address"
        },
        {
          "internalType": "uint256[]",
          "name": "removalIds",
          "type": "uint256[]"
        },
        {
          "internalType": "uint256[]",
          "name": "removalAmounts",
          "type": "uint256[]"
        },
        {
          "internalType": "bytes",
          "name": "data",
          "type": "bytes"
        }
      ],
      "name": "onERC1155BatchReceived",
      "outputs": [
        {
          "internalType": "bytes4",
          "name": "",
          "type": "bytes4"
        }
      ],
      "stateMutability": "nonpayable",
      "type": "function"
    },
    {
      "inputs": [
        {
          "internalType": "uint256",
          "name": "tokenId",
          "type": "uint256"
        }
      ],
      "name": "ownerOf",
      "outputs": [
        {
          "internalType": "address",
          "name": "",
          "type": "address"
        }
      ],
      "stateMutability": "view",
      "type": "function"
    },
    {
      "inputs": [],
      "name": "pause",
      "outputs": [],
      "stateMutability": "nonpayable",
      "type": "function"
    },
    {
      "inputs": [],
      "name": "paused",
      "outputs": [
        {
          "internalType": "bool",
          "name": "",
          "type": "bool"
        }
      ],
      "stateMutability": "view",
      "type": "function"
    },
    {
      "inputs": [
        {
          "internalType": "uint256",
          "name": "certificateId",
          "type": "uint256"
        }
      ],
      "name": "purchaseAmount",
      "outputs": [
        {
          "internalType": "uint256",
          "name": "",
          "type": "uint256"
        }
      ],
      "stateMutability": "view",
      "type": "function"
    },
    {
      "inputs": [
        {
          "internalType": "contract IRemoval",
          "name": "removal",
          "type": "address"
        }
      ],
      "name": "registerContractAddresses",
      "outputs": [],
      "stateMutability": "nonpayable",
      "type": "function"
    },
    {
      "inputs": [],
      "name": "removalAddress",
      "outputs": [
        {
          "internalType": "address",
          "name": "",
          "type": "address"
        }
      ],
      "stateMutability": "view",
      "type": "function"
    },
    {
      "inputs": [
        {
          "internalType": "bytes32",
          "name": "role",
          "type": "bytes32"
        },
        {
          "internalType": "address",
          "name": "account",
          "type": "address"
        }
      ],
      "name": "renounceRole",
      "outputs": [],
      "stateMutability": "nonpayable",
      "type": "function"
    },
    {
      "inputs": [
        {
          "internalType": "bytes32",
          "name": "role",
          "type": "bytes32"
        },
        {
          "internalType": "address",
          "name": "account",
          "type": "address"
        }
      ],
      "name": "revokeRole",
      "outputs": [],
      "stateMutability": "nonpayable",
      "type": "function"
    },
    {
      "inputs": [
        {
          "internalType": "address",
          "name": "from",
          "type": "address"
        },
        {
          "internalType": "address",
          "name": "to",
          "type": "address"
        },
        {
          "internalType": "uint256",
          "name": "tokenId",
          "type": "uint256"
        }
      ],
      "name": "safeTransferFrom",
      "outputs": [],
      "stateMutability": "nonpayable",
      "type": "function"
    },
    {
      "inputs": [
        {
          "internalType": "address",
          "name": "from",
          "type": "address"
        },
        {
          "internalType": "address",
          "name": "to",
          "type": "address"
        },
        {
          "internalType": "uint256",
          "name": "tokenId",
          "type": "uint256"
        },
        {
          "internalType": "bytes",
          "name": "_data",
          "type": "bytes"
        }
      ],
      "name": "safeTransferFrom",
      "outputs": [],
      "stateMutability": "nonpayable",
      "type": "function"
    },
    {
      "inputs": [
        {
          "internalType": "address",
          "name": "",
          "type": "address"
        },
        {
          "internalType": "bool",
          "name": "",
          "type": "bool"
        }
      ],
      "name": "setApprovalForAll",
      "outputs": [],
      "stateMutability": "pure",
      "type": "function"
    },
    {
      "inputs": [
        {
          "internalType": "bytes4",
          "name": "interfaceId",
          "type": "bytes4"
        }
      ],
      "name": "supportsInterface",
      "outputs": [
        {
          "internalType": "bool",
          "name": "",
          "type": "bool"
        }
      ],
      "stateMutability": "view",
      "type": "function"
    },
    {
      "inputs": [],
      "name": "symbol",
      "outputs": [
        {
          "internalType": "string",
          "name": "",
          "type": "string"
        }
      ],
      "stateMutability": "view",
      "type": "function"
    },
    {
      "inputs": [
        {
          "internalType": "uint256",
          "name": "tokenId",
          "type": "uint256"
        }
      ],
      "name": "tokenURI",
      "outputs": [
        {
          "internalType": "string",
          "name": "",
          "type": "string"
        }
      ],
      "stateMutability": "view",
      "type": "function"
    },
    {
      "inputs": [
        {
          "internalType": "address",
          "name": "owner",
          "type": "address"
        }
      ],
      "name": "tokensOfOwner",
      "outputs": [
        {
          "internalType": "uint256[]",
          "name": "",
          "type": "uint256[]"
        }
      ],
      "stateMutability": "view",
      "type": "function"
    },
    {
      "inputs": [
        {
          "internalType": "address",
          "name": "owner",
          "type": "address"
        },
        {
          "internalType": "uint256",
          "name": "start",
          "type": "uint256"
        },
        {
          "internalType": "uint256",
          "name": "stop",
          "type": "uint256"
        }
      ],
      "name": "tokensOfOwnerIn",
      "outputs": [
        {
          "internalType": "uint256[]",
          "name": "",
          "type": "uint256[]"
        }
      ],
      "stateMutability": "view",
      "type": "function"
    },
    {
      "inputs": [],
      "name": "totalMinted",
      "outputs": [
        {
          "internalType": "uint256",
          "name": "",
          "type": "uint256"
        }
      ],
      "stateMutability": "view",
      "type": "function"
    },
    {
      "inputs": [],
      "name": "totalSupply",
      "outputs": [
        {
          "internalType": "uint256",
          "name": "",
          "type": "uint256"
        }
      ],
      "stateMutability": "view",
      "type": "function"
    },
    {
      "inputs": [
        {
          "internalType": "address",
          "name": "from",
          "type": "address"
        },
        {
          "internalType": "address",
          "name": "to",
          "type": "address"
        },
        {
          "internalType": "uint256",
          "name": "tokenId",
          "type": "uint256"
        }
      ],
      "name": "transferFrom",
      "outputs": [],
      "stateMutability": "nonpayable",
      "type": "function"
    },
    {
      "inputs": [],
      "name": "unpause",
      "outputs": [],
      "stateMutability": "nonpayable",
      "type": "function"
    }
  ],
  "numDeployments": 3,
  "bytecode": "0x60808060405234620000c6576000549060ff8260081c1662000074575060ff8082161062000038575b6040516146329081620000cc8239f35b60ff90811916176000557f7f26b83ff96e1f2b6a682f133852f6798a09c465da95921460cefb3847402498602060405160ff8152a13862000028565b62461bcd60e51b815260206004820152602760248201527f496e697469616c697a61626c653a20636f6e747261637420697320696e697469604482015266616c697a696e6760c81b6064820152608490fd5b600080fdfe60806040526004361015610013575b600080fd5b60003560e01c806301ffc9a71461031f57806306fdde0314610316578063081812fc1461030d578063095ea7b3146103045780630ac2a321146102fb57806318160ddd146102f257806323b872dd146102e9578063248a9ca3146102e057806326c6da4f146102d75780632f2ff15d146102ce57806336568abe146102c55780633f4ba83a146102bc57806342842e0e146102b357806342966c68146102aa5780635bbb2177146102a15780635c975abb146102985780636352211e1461028f57806370a08231146102865780638456cb591461027d5780638462151c146102745780639010d07c1461026b57806391d148541461026257806395d89b411461025957806399a2557a14610250578063a217fddf14610247578063a22cb4651461023e578063a2309ff814610235578063ac9650d81461022c578063b88d4fde14610223578063bc197c811461021a578063c23dc68f14610211578063c87b56dd14610208578063ca15c873146101ff578063cc8f0708146101f6578063d547741f146101ed578063e63ab1e9146101e4578063e985e9c5146101db578063f62d1888146101d25763fc641373146101ca57600080fd5b61000e611e94565b5061000e611ca0565b5061000e611c26565b5061000e611bea565b5061000e611ad6565b5061000e611aa8565b5061000e611a7b565b5061000e61191b565b5061000e6118a8565b5061000e6117d3565b5061000e61176a565b5061000e6115de565b5061000e611520565b5061000e6114ce565b5061000e6114b1565b5061000e611474565b5061000e6113ab565b5061000e611346565b5061000e6112f2565b5061000e611219565b5061000e611183565b5061000e611153565b5061000e611116565b5061000e6110f2565b5061000e61103d565b5061000e610bef565b5061000e610ba7565b5061000e610af0565b5061000e610964565b5061000e610836565b5061000e6107fa565b5061000e6107ca565b5061000e6107b0565b5061000e610722565b5061000e6106ec565b5061000e6106a5565b5061000e6105ed565b5061000e6104e3565b5061000e610352565b7fffffffff0000000000000000000000000000000000000000000000000000000081160361000e57565b503461000e57602060031936011261000e5760207fffffffff0000000000000000000000000000000000000000000000000000000060043561039381610328565b167f5a05180f00000000000000000000000000000000000000000000000000000000811490811561042c575b8115610402575b81156103d8575b506040519015158152f35b7f5b5e139f00000000000000000000000000000000000000000000000000000000915014386103cd565b7f80ac58cd00000000000000000000000000000000000000000000000000000000811491506103c6565b90507f7965db0b000000000000000000000000000000000000000000000000000000008114801561045e575b906103bf565b507f01ffc9a7000000000000000000000000000000000000000000000000000000008114610458565b60005b83811061049a5750506000910152565b818101518382015260200161048a565b90601f19601f6020936104c881518092818752878088019101610487565b0116010190565b9060206104e09281815201906104aa565b90565b503461000e576000806003193601126105ea5760405190807f2569078dfb4b0305704d3008e7403993ae9601b85f7ae5e742de3de8f8011c429081549061052982612dc5565b808652926001928084169081156105bd5750600114610563575b61055f86610553818803826116e5565b604051918291826104cf565b0390f35b815292507f933ecf8acb7824b680a8d16f3ff3db8864228d986aa4c2ebab1eeb2703b4beb35b8284106105a55750505081016020016105538261055f38610543565b80546020858701810191909152909301928101610589565b87965061055f9794506020935061055395925060ff1991501682840152151560051b820101929338610543565b80fd5b503461000e57602060031936011261000e5760043561060b81613a6b565b1561065d576000527f2569078dfb4b0305704d3008e7403993ae9601b85f7ae5e742de3de8f8011c46602052602073ffffffffffffffffffffffffffffffffffffffff60406000205416604051908152f35b60046040517fcf4700e4000000000000000000000000000000000000000000000000000000008152fd5b73ffffffffffffffffffffffffffffffffffffffff81160361000e57565b503461000e57604060031936011261000e576106c2600435610687565b60046040517fbf241488000000000000000000000000000000000000000000000000000000008152fd5b503461000e57600060031936011261000e57602073ffffffffffffffffffffffffffffffffffffffff61012e5416604051908152f35b503461000e57600060031936011261000e5760207f2569078dfb4b0305704d3008e7403993ae9601b85f7ae5e742de3de8f8011c40547f2569078dfb4b0305704d3008e7403993ae9601b85f7ae5e742de3de8f8011c41549003604051908152f35b600319606091011261000e5760043561079c81610687565b906024356107a981610687565b9060443590565b503461000e576107c86107c236610784565b91613aeb565b005b503461000e57602060031936011261000e5760043560005260c96020526020600160406000200154604051908152f35b503461000e57600060031936011261000e5760206040517fb6eeb50d1ea0d876d560efb18b8017323347ce323ef4b05d5a0322c9c7869f8f8152f35b503461000e57604060031936011261000e576004356108d360243561085a81610687565b6108ce60009380855260c96020526108786001604087200154612075565b610880612764565b80855260c960205260ff6108b784604088209073ffffffffffffffffffffffffffffffffffffffff16600052602052604060002090565b5416156108d75760005260fb602052604060002090565b612a2d565b5080f35b80855260c960205261090c83604087209073ffffffffffffffffffffffffffffffffffffffff16600052602052604060002090565b600160ff198254161790553373ffffffffffffffffffffffffffffffffffffffff8416827f2f8788117e7eff1d82e926ec794901d17c78024a50270940304540a733656f0d8880a460005260fb602052604060002090565b503461000e57604060031936011261000e5760243560043561098582610687565b73ffffffffffffffffffffffffffffffffffffffff821691338303610a6c576108d3916109b0612764565b60009381855260c960205260ff6109ea84604088209073ffffffffffffffffffffffffffffffffffffffff16600052602052604060002090565b5416610a02575b50835260fb60205260408320612af2565b81855260c9602052610a3783604087209073ffffffffffffffffffffffffffffffffffffffff16600052602052604060002090565b60ff1981541690553390827ff6391f5c32d9c69d2a47ea670b442974b53935d1edc7fd64eb21e047a839171b8780a4386109f1565b60846040517f08c379a000000000000000000000000000000000000000000000000000000000815260206004820152602f60248201527f416363657373436f6e74726f6c3a2063616e206f6e6c792072656e6f756e636560448201527f20726f6c657320666f722073656c6600000000000000000000000000000000006064820152fd5b503461000e57600060031936011261000e57610b0a612020565b60655460ff811615610b495760ff19166065557f5db9ee0a495bf2e6ff9c91a7834c1ba4fdd244a5e8aa4e537bd38aeae4b073aa6020604051338152a1005b60646040517f08c379a000000000000000000000000000000000000000000000000000000000815260206004820152601460248201527f5061757361626c653a206e6f74207061757365640000000000000000000000006044820152fd5b503461000e576107c8610bb936610784565b90604051926020840184811067ffffffffffffffff821117610be2575b60405260008452613f5c565b610bea61168c565b610bd6565b503461000e57602060031936011261000e57600435610c0d8161397a565b73ffffffffffffffffffffffffffffffffffffffff8116610c5a836000527f2569078dfb4b0305704d3008e7403993ae9601b85f7ae5e742de3de8f8011c46602052604060002090815490565b9290610c8673ffffffffffffffffffffffffffffffffffffffff841633908114908614171590565b1590565b610ea2575b600093610c9784613e3e565b610e99575b50610ce68273ffffffffffffffffffffffffffffffffffffffff166000527f2569078dfb4b0305704d3008e7403993ae9601b85f7ae5e742de3de8f8011c45602052604060002090565b6fffffffffffffffffffffffffffffffff81540190557c03000000000000000000000000000000000000000000000000000000004260a01b831717610d54856000527f2569078dfb4b0305704d3008e7403993ae9601b85f7ae5e742de3de8f8011c44602052604060002090565b557c0200000000000000000000000000000000000000000000000000000000811615610df2575b507fddf252ad1be2c89b69c2b068fc378daa952ba7f163c4a11628f55a4df523b3ef8280a46107c8610dce7f2569078dfb4b0305704d3008e7403993ae9601b85f7ae5e742de3de8f8011c415460010190565b7f2569078dfb4b0305704d3008e7403993ae9601b85f7ae5e742de3de8f8011c4155565b60018401610e29816000527f2569078dfb4b0305704d3008e7403993ae9601b85f7ae5e742de3de8f8011c44602052604060002090565b5415610e36575b50610d7b565b7f2569078dfb4b0305704d3008e7403993ae9601b85f7ae5e742de3de8f8011c40548114610e3057610e91906000527f2569078dfb4b0305704d3008e7403993ae9601b85f7ae5e742de3de8f8011c44602052604060002090565b553880610e30565b83905538610c9c565b610f21610c82610f1a33610ef58773ffffffffffffffffffffffffffffffffffffffff166000527f2569078dfb4b0305704d3008e7403993ae9601b85f7ae5e742de3de8f8011c47602052604060002090565b9073ffffffffffffffffffffffffffffffffffffffff16600052602052604060002090565b5460ff1690565b15610c8b5760046040517f59c896be000000000000000000000000000000000000000000000000000000008152fd5b9181601f8401121561000e5782359167ffffffffffffffff831161000e576020808501948460051b01011161000e57565b602060031982011261000e576004359067ffffffffffffffff821161000e57610fac91600401610f50565b9091565b6020908160408183019282815285518094520193019160005b828110610fd7575050505090565b9091929382608082611031600194895162ffffff6060809273ffffffffffffffffffffffffffffffffffffffff815116855267ffffffffffffffff6020820151166020860152604081015115156040860152015116910152565b01950193929101610fc9565b503461000e5761104c36610f81565b61105581612177565b9161106360405193846116e5565b818352601f1961107283612177565b0160005b8181106110db57505060005b828103611097576040518061055f8682610fb0565b808360019210156110ce575b6110b28160051b840135614338565b6110bc8287612284565b526110c78186612284565b5001611082565b6110d66121e6565b6110a3565b6020906110e66142f4565b82828801015201611076565b503461000e57600060031936011261000e57602060ff606554166040519015158152f35b503461000e57602060031936011261000e57602073ffffffffffffffffffffffffffffffffffffffff61114a60043561397a565b16604051908152f35b503461000e57602060031936011261000e57602061117b60043561117681610687565b6138dd565b604051908152f35b503461000e57600060031936011261000e5761119d612020565b6111a5612764565b600160ff1960655416176065557f62e78cea01bee320cd4e420270b5ea74000d11b0c9f74754ebdbfc544b05a2586020604051338152a1005b6020908160408183019282815285518094520193019160005b828110611205575050505090565b8351855293810193928101926001016111f7565b503461000e57602060031936011261000e5760043561123781610687565b600080611243836138dd565b9161124d83614446565b936112566142f4565b5073ffffffffffffffffffffffffffffffffffffffff90811691835b858503611287576040518061055f89826111de565b611290816143a5565b60408101516112e9575173ffffffffffffffffffffffffffffffffffffffff168381166112e0575b5060019084848416146112cc575b01611272565b806112da838801978a612284565b526112c6565b915060016112b8565b506001906112c6565b503461000e57604060031936011261000e5760043560005260fb602052602073ffffffffffffffffffffffffffffffffffffffff611336602435604060002061273e565b9190546040519260031b1c168152f35b503461000e57604060031936011261000e57602060ff61139f60243561136b81610687565b60043560005260c9845260406000209073ffffffffffffffffffffffffffffffffffffffff16600052602052604060002090565b54166040519015158152f35b503461000e576000806003193601126105ea5760405190807f2569078dfb4b0305704d3008e7403993ae9601b85f7ae5e742de3de8f8011c43908154906113f182612dc5565b808652926001928084169081156105bd575060011461141a5761055f86610553818803826116e5565b815292507f617167b76dcc8247761fd21f427ad8ec3be6b3be203aed34e3aac08b4d31817c5b82841061145c5750505081016020016105538261055f38610543565b80546020858701810191909152909301928101611440565b503461000e57606060031936011261000e5761055f6114a560043561149881610687565b6044359060243590614477565b604051918291826111de565b503461000e57600060031936011261000e57602060405160008152f35b503461000e57604060031936011261000e576114eb600435610687565b6024358015150361000e5760046040517fbf241488000000000000000000000000000000000000000000000000000000008152fd5b503461000e57600060031936011261000e5760207f2569078dfb4b0305704d3008e7403993ae9601b85f7ae5e742de3de8f8011c4054604051908152f35b602080820190808352835180925260408301928160408460051b8301019501936000915b8483106115925750505050505090565b90919293949584806115ce837fffffffffffffffffffffffffffffffffffffffffffffffffffffffffffffffc086600196030187528a516104aa565b9801930193019194939290611582565b503461000e576115ed36610f81565b906115f782612177565b9161160560405193846116e5565b808352601f1961161482612177565b0160005b81811061167b57505060005b818110611639576040518061055f868261155e565b8061165b61165561164e611676948688612216565b3691611733565b30612308565b6116658287612284565b526116708186612284565b506121ce565b611624565b806060602080938801015201611618565b507f4e487b7100000000000000000000000000000000000000000000000000000000600052604160045260246000fd5b6040810190811067ffffffffffffffff8211176116d857604052565b6116e061168c565b604052565b90601f601f19910116810190811067ffffffffffffffff8211176116d857604052565b601f19601f60209267ffffffffffffffff8111611726575b01160190565b61172e61168c565b611720565b92919261173f82611708565b9161174d60405193846116e5565b82948184528183011161000e578281602093846000960137010152565b503461000e57608060031936011261000e5760043561178881610687565b60243561179481610687565b6064359167ffffffffffffffff831161000e573660238401121561000e576117c96107c8933690602481600401359101611733565b9160443591613f5c565b503461000e5760a060031936011261000e576117f0600435610687565b6117fb602435610687565b67ffffffffffffffff60443581811161000e5761181c903690600401610f50565b9160643581811161000e57611835903690600401610f50565b608435939183851161000e573660238601121561000e57846004013593841161000e57366024858701011161000e5761055f95602461187596019361337f565b6040517fffffffff0000000000000000000000000000000000000000000000000000000090911681529081906020820190565b503461000e57602060031936011261000e5760806118c7600435614338565b611919604051809262ffffff6060809273ffffffffffffffffffffffffffffffffffffffff815116855267ffffffffffffffff6020820151166020860152604081015115156040860152015116910152565bf35b503461000e5760208060031936011261000e5760043561193a81613a6b565b15611a5157604051908282600061012f805461195581612dc5565b80855291600191808316908115611a2d57506001146119d0575b50505061197e925003836116e5565b8151156119bd5761055f926119af61199861055393614282565b6119a9604051958694850190612160565b90612160565b03601f1981018352826116e5565b50505061055f6119cb6122a6565b610553565b60009081527f232da9e50dad2971456a78fb5cd6ff6b75019984d6e918139ce990999420f97995935091905b818310611a1557508794505082010161197e388061196f565b855488840185015294850194879450918301916119fc565b91505061197e95935060ff1991501682840152151560051b8201018592388061196f565b60046040517fa14c4b50000000000000000000000000000000000000000000000000000000008152fd5b503461000e57602060031936011261000e5760043560005260fb6020526020604060002054604051908152f35b503461000e57602060031936011261000e5760043560005261012d6020526020604060002054604051908152f35b503461000e57604060031936011261000e576004356108d3602435611afa81610687565b60009280845260c9602052611b156001604086200154612075565b611b1d612764565b80845260c960205260ff611b5483604087209073ffffffffffffffffffffffffffffffffffffffff16600052602052604060002090565b5416611b6b575b835260fb60205260408320612af2565b80845260c9602052611ba082604086209073ffffffffffffffffffffffffffffffffffffffff16600052602052604060002090565b60ff1981541690553373ffffffffffffffffffffffffffffffffffffffff8316827ff6391f5c32d9c69d2a47ea670b442974b53935d1edc7fd64eb21e047a839171b8780a4611b5b565b503461000e57600060031936011261000e5760206040517f65d7a28e3265b37a6474929f336521b332c1681b933f6cb9f3376673440d862a8152f35b503461000e57604060031936011261000e57602060ff61139f600435611c4b81610687565b610ef560243591611c5b83610687565b73ffffffffffffffffffffffffffffffffffffffff166000527f2569078dfb4b0305704d3008e7403993ae9601b85f7ae5e742de3de8f8011c47602052604060002090565b503461000e57602060031936011261000e5760043567ffffffffffffffff811161000e573660238201121561000e57611ce3903690602481600401359101611733565b7fee151c8401928dc223602bb187aff91b9a56c7cae5476ef1b3287b085a16c85f5460ff8160081c169081600014611e8b5750303b155b15611e0757611d2f90159182611d8157612c39565b611d3557005b6107c87fee151c8401928dc223602bb187aff91b9a56c7cae5476ef1b3287b085a16c85f7fffffffffffffffffffffffffffffffffffffffffffffffffffffffffffff00ff8154169055565b611dd17fee151c8401928dc223602bb187aff91b9a56c7cae5476ef1b3287b085a16c85f6101007fffffffffffffffffffffffffffffffffffffffffffffffffffffffffffff00ff825416179055565b611e027fee151c8401928dc223602bb187aff91b9a56c7cae5476ef1b3287b085a16c85f600160ff19825416179055565b612c39565b60846040517f08c379a000000000000000000000000000000000000000000000000000000000815260206004820152603760248201527f455243373231415f5f496e697469616c697a61626c653a20636f6e747261637460448201527f20697320616c726561647920696e697469616c697a65640000000000000000006064820152fd5b60ff1615611d1a565b503461000e57602060031936011261000e57600435611eb281610687565b611eba612764565b3360009081527f81fe90a866a48a634a12852c1be675b683a22307409932a7443b8029347be756602052604090205460ff1615611f5f57602073ffffffffffffffffffffffffffffffffffffffff7ff00e83656faa79cb981135ee7cd6b2b8f837ce8c06ad2137de0ca94005d808e1921661012e817fffffffffffffffffffffffff0000000000000000000000000000000000000000825416179055604051908152a1005b61201c6048611fea611f703361257b565b6119af611f7b612625565b6040519485937f416363657373436f6e74726f6c3a206163636f756e74200000000000000000006020860152611fbb815180926020603789019101610487565b84017f206973206d697373696e6720726f6c652000000000000000000000000000000060378201520190612160565b6040519182917f08c379a0000000000000000000000000000000000000000000000000000000008352600483016104cf565b0390fd5b3360009081527f69740cd0ab091be8193e004660c49ef128fdf47ef95c5cc8c747e37ac0379df8602052604090205460ff161561205957565b61201c6048611fea61206a3361257b565b6119af611f7b6126a2565b8060005260c960205260ff6120ae3360406000209073ffffffffffffffffffffffffffffffffffffffff16600052602052604060002090565b5416156120b85750565b6120c13361257b565b906120ca612488565b9060306120d6836124c2565b5360786120e2836124d8565b5360415b600181116121055761201c6048611fea866119af87611f7b8815612516565b90807f3031323334353637383961626364656600000000000000000000000000000000600f61214e93166010811015612153575b1a61214484866124e9565b5360041c91612508565b6120e6565b61215b6121e6565b612139565b9061217360209282815194859201610487565b0190565b60209067ffffffffffffffff8111612191575b60051b0190565b61219961168c565b61218a565b507f4e487b7100000000000000000000000000000000000000000000000000000000600052601160045260246000fd5b60019060001981146121de570190565b61217361219e565b507f4e487b7100000000000000000000000000000000000000000000000000000000600052603260045260246000fd5b9190811015612277575b60051b810135907fffffffffffffffffffffffffffffffffffffffffffffffffffffffffffffffe18136030182121561000e57019081359167ffffffffffffffff831161000e57602001823603811361000e579190565b61227f6121e6565b612220565b6020918151811015612299575b60051b010190565b6122a16121e6565b612291565b604051906020820182811067ffffffffffffffff8211176122cb575b60405260008252565b6122d361168c565b6122c2565b3d15612303573d906122e982611708565b916122f760405193846116e5565b82523d6000602084013e565b606090565b90813b156123aa576000816104e09360208394519201905af46123296122d8565b604051916060830183811067ffffffffffffffff82111761239d575b604052602783527f416464726573733a206c6f772d6c6576656c2064656c65676174652063616c6c60208401527f206661696c656400000000000000000000000000000000000000000000000000604084015261242e565b6123a561168c565b612345565b60846040517f08c379a000000000000000000000000000000000000000000000000000000000815260206004820152602660248201527f416464726573733a2064656c65676174652063616c6c20746f206e6f6e2d636f60448201527f6e747261637400000000000000000000000000000000000000000000000000006064820152fd5b9091901561243a575090565b81511561244a5750805190602001fd5b61201c906040519182917f08c379a00000000000000000000000000000000000000000000000000000000083526020600484015260248301906104aa565b604051906080820182811067ffffffffffffffff8211176124b5575b604052604282526060366020840137565b6124bd61168c565b6124a4565b6020908051156124d0570190565b6121736121e6565b6021908051600110156124d0570190565b9060209180518210156124fb57010190565b6125036121e6565b010190565b6000199080156121de570190565b1561251d57565b60646040517f08c379a000000000000000000000000000000000000000000000000000000000815260206004820152602060248201527f537472696e67733a20686578206c656e67746820696e73756666696369656e746044820152fd5b604051906060820182811067ffffffffffffffff821117612618575b604052602a8252604036602084013760306125b1836124c2565b5360786125bd836124d8565b536029905b600182116125d5576104e0915015612516565b807f3031323334353637383961626364656600000000000000000000000000000000600f61261293166010811015612153571a61214484866124e9565b906125c2565b61262061168c565b612597565b600061262f612488565b90603061263b836124c2565b536078612647836124d8565b536041905b6001821161265f576104e0915015612516565b807f3031323334353637383961626364656600000000000000000000000000000000600f61269c93166010811015612153571a61214484866124e9565b9061264c565b7f65d7a28e3265b37a6474929f336521b332c1681b933f6cb9f3376673440d862a6126cb612488565b9060306126d7836124c2565b5360786126e3836124d8565b536041905b600182116126fb576104e0915015612516565b807f3031323334353637383961626364656600000000000000000000000000000000600f61273893166010811015612153571a61214484866124e9565b906126e8565b8054821015612757575b60005260206000200190600090565b61275f6121e6565b612748565b60ff6065541661277057565b60646040517f08c379a000000000000000000000000000000000000000000000000000000000815260206004820152601060248201527f5061757361626c653a20706175736564000000000000000000000000000000006044820152fd5b61283e906127da612764565b73ffffffffffffffffffffffffffffffffffffffff81811660009081527f81fe90a866a48a634a12852c1be675b683a22307409932a7443b8029347be75660205260408082205490919060ff1615612841575b80805260fb60205220911690612a6d565b50565b80805260c9602052612875848383209073ffffffffffffffffffffffffffffffffffffffff16600052602052604060002090565b600160ff1982541617905533838516827f2f8788117e7eff1d82e926ec794901d17c78024a50270940304540a733656f0d8180a461282d565b61283e906128ba612764565b73ffffffffffffffffffffffffffffffffffffffff81811660009081527f69740cd0ab091be8193e004660c49ef128fdf47ef95c5cc8c747e37ac0379df860205260408082209091907f65d7a28e3265b37a6474929f336521b332c1681b933f6cb9f3376673440d862a9060ff905b541615612941575b815260fb60205220911690612a6d565b80825260c9602052612975858484209073ffffffffffffffffffffffffffffffffffffffff16600052602052604060002090565b600160ff1982541617905533848616827f2f8788117e7eff1d82e926ec794901d17c78024a50270940304540a733656f0d8580a4612931565b61283e906129ba612764565b73ffffffffffffffffffffffffffffffffffffffff81811660009081527fa65068d46483e09e8cfdb7d90215cca5eb137b30699be6445b5905c4a0f9730360205260408082209091907fb6eeb50d1ea0d876d560efb18b8017323347ce323ef4b05d5a0322c9c7869f8f9060ff90612929565b73ffffffffffffffffffffffffffffffffffffffff6104e0921690612a6d565b91612a699183549060031b600019811b9283911b169119161790565b9055565b6001810190826000528160205260406000205415600014612aea5782612ac8612aaf835468010000000000000000811015612add575b6001810185558461273e565b819391549060031b600019811b9283911b169119161790565b90555491600052602052604060002055600190565b612ae561168c565b612aa3565b505050600090565b73ffffffffffffffffffffffffffffffffffffffff6104e0921690612b6b565b8054908115612b3c5760001980920191612b2c838361273e565b909182549160031b1b1916905555565b7f4e487b7100000000000000000000000000000000000000000000000000000000600052603160045260246000fd5b6001810191806000528260205260406000205492831515600014612c3057612bbe612bcd93600095600019808201828111612c23575b8354918201918211612c16575b808203612bd3575b505050612b12565b90600052602052604060002090565b55600190565b612bfd612bf791612be7612c0d948761273e565b90549060031b1c9283918761273e565b90612a4d565b8590600052602052604060002090565b55388080612bb6565b612c1e61219e565b612bae565b612c2b61219e565b612ba1565b50505050600090565b6000549060ff8260081c161580928193612db7575b8115612d97575b5015612d1357612c7b9082612c72600160ff196000541617600055565b612cdd57613153565b612c8157565b612cae7fffffffffffffffffffffffffffffffffffffffffffffffffffffffffffff00ff60005416600055565b604051600181527f7f26b83ff96e1f2b6a682f133852f6798a09c465da95921460cefb384740249890602090a1565b612d0e6101007fffffffffffffffffffffffffffffffffffffffffffffffffffffffffffff00ff6000541617600055565b613153565b60846040517f08c379a000000000000000000000000000000000000000000000000000000000815260206004820152602e60248201527f496e697469616c697a61626c653a20636f6e747261637420697320616c72656160448201527f647920696e697469616c697a65640000000000000000000000000000000000006064820152fd5b303b15915081612da9575b5038612c55565b6001915060ff161438612da2565b600160ff8216109150612c4e565b90600182811c92168015612e0e575b6020831014612ddf57565b7f4e487b7100000000000000000000000000000000000000000000000000000000600052602260045260246000fd5b91607f1691612dd4565b601f8111612e24575050565b60009061012f82527f232da9e50dad2971456a78fb5cd6ff6b75019984d6e918139ce990999420f979906020601f850160051c83019410612e80575b601f0160051c01915b828110612e7557505050565b818155600101612e69565b9092508290612e60565b601f8111612e96575050565b6000907f2569078dfb4b0305704d3008e7403993ae9601b85f7ae5e742de3de8f8011c4282527f933ecf8acb7824b680a8d16f3ff3db8864228d986aa4c2ebab1eeb2703b4beb3906020601f850160051c83019410612f10575b601f0160051c01915b828110612f0557505050565b818155600101612ef9565b9092508290612ef0565b601f8111612f26575050565b6000907f2569078dfb4b0305704d3008e7403993ae9601b85f7ae5e742de3de8f8011c4382527f617167b76dcc8247761fd21f427ad8ec3be6b3be203aed34e3aac08b4d31817c906020601f850160051c83019410612fa0575b601f0160051c01915b828110612f9557505050565b818155600101612f89565b9092508290612f80565b90815167ffffffffffffffff81116130d4575b7f2569078dfb4b0305704d3008e7403993ae9601b85f7ae5e742de3de8f8011c4390612ff281612fed8454612dc5565b612f1a565b602080601f831160011461302d575081929394600092613022575b50506000198260011b9260031b1c1916179055565b01519050388061300d565b90601f1983169561307f7f2569078dfb4b0305704d3008e7403993ae9601b85f7ae5e742de3de8f8011c436000527f617167b76dcc8247761fd21f427ad8ec3be6b3be203aed34e3aac08b4d31817c90565b926000905b8882106130bc575050836001959697106130a3575b505050811b019055565b015160001960f88460031b161c19169055388080613099565b80600185968294968601518155019501930190613084565b6130dc61168c565b612fbd565b604051906130ee826116bc565b600b82527f43657274696669636174650000000000000000000000000000000000000000006020830152565b60405190613127826116bc565b600482527f4e434352000000000000000000000000000000000000000000000000000000006020830152565b90815167ffffffffffffffff81116132b9575b61012f9061317d816131788454612dc5565b612e18565b602080601f831160011461322d575081929394600092613222575b50506000198260011b9260031b1c19161790555b6131b4613351565b6131bc613351565b6131d56131c76130e1565b6131cf61311a565b9061373d565b6131dd6142c4565b6131e56142c4565b6131ed613362565b6131f5613351565b6131fd613351565b613205613351565b61320e336127ce565b613217336128ae565b613220336129ae565b565b015190503880613198565b90601f1983169561326161012f6000527f232da9e50dad2971456a78fb5cd6ff6b75019984d6e918139ce990999420f97990565b926000905b8882106132a157505083600195969710613288575b505050811b0190556131ac565b015160001960f88460031b161c1916905538808061327b565b80600185968294968601518155019501930190613266565b6132c161168c565b613166565b156132cd57565b60846040517f08c379a000000000000000000000000000000000000000000000000000000000815260206004820152602b60248201527f496e697469616c697a61626c653a20636f6e7472616374206973206e6f74206960448201527f6e697469616c697a696e670000000000000000000000000000000000000000006064820152fd5b61322060ff60005460081c166132c6565b61337360ff60005460081c166132c6565b60ff1960655416606555565b9194909461338b612764565b73ffffffffffffffffffffffffffffffffffffffff918261012e541633036135c957856040918101031261000e578435916133c583610687565b6020809601359216946133d785612177565b906133e560405192836116e5565b8582528082018660051b84019036821161000e57908593929185905b8282106135b7575050505061341590613679565b03613558578386036134be577f8183ff349f85df4f716566e6bf63f46e696a59378575a60a113cf9e4eca542f293613497917f2569078dfb4b0305704d3008e7403993ae9601b85f7ae5e742de3de8f8011c405497846134808a60005261012d602052604060002090565b5561348a88614108565b6040519586953387613630565b0390a37fbc197c810000000000000000000000000000000000000000000000000000000090565b6040517f616c41130000000000000000000000000000000000000000000000000000000081528061201c6004820160c09060408152600a60408201527f72656d6f76616c49647300000000000000000000000000000000000000000000606082015260806020820152600e60808201527f72656d6f76616c416d6f756e747300000000000000000000000000000000000060a08201520190565b6040517f08c379a000000000000000000000000000000000000000000000000000000000815260206004820152601b60248201527f496e636f727265637420737570706c7920616c6c6f636174696f6e00000000006044820152606490fd5b81358152879550908301908301613401565b60046040517f9a5ed74b000000000000000000000000000000000000000000000000000000008152fd5b90918281527f07ffffffffffffffffffffffffffffffffffffffffffffffffffffffffffffff831161000e5760209260051b809284830137010190565b9492909361366b9273ffffffffffffffffffffffffffffffffffffffff6104e0989616875260208701526080604087015260808601916135f3565b9260608185039101526135f3565b80516000929160209160051b8101820190849083015b82811061369c5750505050565b858151019586106136ae57830161368f565b5080fd5b156136b957565b60846040517f08c379a000000000000000000000000000000000000000000000000000000000815260206004820152603460248201527f455243373231415f5f496e697469616c697a61626c653a20636f6e747261637460448201527f206973206e6f7420696e697469616c697a696e670000000000000000000000006064820152fd5b919061376f60ff7fee151c8401928dc223602bb187aff91b9a56c7cae5476ef1b3287b085a16c85f5460081c166136b2565b825167ffffffffffffffff81116138d0575b7f2569078dfb4b0305704d3008e7403993ae9601b85f7ae5e742de3de8f8011c42906137b6816137b18454612dc5565b612e8a565b602080601f8311600114613820575081906137ec9596600092613815575b50506000198260011b9260031b1c1916179055612faa565b61322060007f2569078dfb4b0305704d3008e7403993ae9601b85f7ae5e742de3de8f8011c4055565b0151905038806137d4565b90601f198316966138727f2569078dfb4b0305704d3008e7403993ae9601b85f7ae5e742de3de8f8011c426000527f933ecf8acb7824b680a8d16f3ff3db8864228d986aa4c2ebab1eeb2703b4beb390565b926000905b8982106138b8575050908392916001946137ec98991061389f575b505050811b019055612faa565b015160001960f88460031b161c19169055388080613892565b80600185968294968601518155019501930190613877565b6138d861168c565b613781565b73ffffffffffffffffffffffffffffffffffffffff8116156139505761394b67ffffffffffffffff9173ffffffffffffffffffffffffffffffffffffffff166000527f2569078dfb4b0305704d3008e7403993ae9601b85f7ae5e742de3de8f8011c45602052604060002090565b541690565b60046040517f8f4eb604000000000000000000000000000000000000000000000000000000008152fd5b807f2569078dfb4b0305704d3008e7403993ae9601b85f7ae5e742de3de8f8011c405481106139ce575b60046040517fdf2d9b42000000000000000000000000000000000000000000000000000000008152fd5b6000527f2569078dfb4b0305704d3008e7403993ae9601b85f7ae5e742de3de8f8011c44602052604060002054907c010000000000000000000000000000000000000000000000000000000082166139a4575b8115613a2b575090565b600019915001613a64816000527f2569078dfb4b0305704d3008e7403993ae9601b85f7ae5e742de3de8f8011c44602052604060002090565b5490613a21565b7f2569078dfb4b0305704d3008e7403993ae9601b85f7ae5e742de3de8f8011c405481109081613a99575090565b90506000527f2569078dfb4b0305704d3008e7403993ae9601b85f7ae5e742de3de8f8011c446020527c0100000000000000000000000000000000000000000000000000000000604060002054161590565b90613af58361397a565b73ffffffffffffffffffffffffffffffffffffffff808416928382841603613e145760008681527f2569078dfb4b0305704d3008e7403993ae9601b85f7ae5e742de3de8f8011c466020526040902080549092613b6e73ffffffffffffffffffffffffffffffffffffffff881633908114908414171590565b613d92575b8216958615613d6857613c2693613bd992613b8e8584613ee2565b613d5e575b5073ffffffffffffffffffffffffffffffffffffffff166000527f2569078dfb4b0305704d3008e7403993ae9601b85f7ae5e742de3de8f8011c45602052604060002090565b805460001901905573ffffffffffffffffffffffffffffffffffffffff166000527f2569078dfb4b0305704d3008e7403993ae9601b85f7ae5e742de3de8f8011c45602052604060002090565b805460010190557c0200000000000000000000000000000000000000000000000000000000804260a01b851717613c86866000527f2569078dfb4b0305704d3008e7403993ae9601b85f7ae5e742de3de8f8011c44602052604060002090565b55811615613cb7575b507fddf252ad1be2c89b69c2b068fc378daa952ba7f163c4a11628f55a4df523b3ef600080a4565b60018401613cee816000527f2569078dfb4b0305704d3008e7403993ae9601b85f7ae5e742de3de8f8011c44602052604060002090565b5415613cfb575b50613c8f565b7f2569078dfb4b0305704d3008e7403993ae9601b85f7ae5e742de3de8f8011c40548114613cf557613d56906000527f2569078dfb4b0305704d3008e7403993ae9601b85f7ae5e742de3de8f8011c44602052604060002090565b553880613cf5565b6000905538613b93565b60046040517fea553b34000000000000000000000000000000000000000000000000000000008152fd5b613de5610c82610f1a33610ef58b73ffffffffffffffffffffffffffffffffffffffff166000527f2569078dfb4b0305704d3008e7403993ae9601b85f7ae5e742de3de8f8011c47602052604060002090565b15613b735760046040517f59c896be000000000000000000000000000000000000000000000000000000008152fd5b60046040517fa1148100000000000000000000000000000000000000000000000000000000008152fd5b73ffffffffffffffffffffffffffffffffffffffff90613e5c612764565b3360009081527fa65068d46483e09e8cfdb7d90215cca5eb137b30699be6445b5905c4a0f973036020526040902054911615159060ff161581613ed9575b81613ed1575b50613ea757565b60046040517f175e5a90000000000000000000000000000000000000000000000000000000008152fd5b905038613ea0565b60009150613e9a565b90613eeb612764565b3360009081527fa65068d46483e09e8cfdb7d90215cca5eb137b30699be6445b5905c4a0f973036020526040902073ffffffffffffffffffffffffffffffffffffffff9283161515929060ff905416159183613f50575b505081613ed15750613ea757565b16151591503880613f42565b929190613f6a828286613aeb565b803b613f77575b50505050565b613f8093614009565b15613f8e5738808080613f71565b60046040517fd1a57ed6000000000000000000000000000000000000000000000000000000008152fd5b9081602091031261000e57516104e081610328565b90926104e0949360809373ffffffffffffffffffffffffffffffffffffffff8092168452166020830152604082015281606082015201906104aa565b9260209161406093600073ffffffffffffffffffffffffffffffffffffffff6040518097819682957f150b7a02000000000000000000000000000000000000000000000000000000009b8c85523360048601613fcd565b0393165af1600091816140d8575b506140b25761407b6122d8565b805190816140ad5760046040517fd1a57ed6000000000000000000000000000000000000000000000000000000008152fd5b602001fd5b7fffffffff00000000000000000000000000000000000000000000000000000000161490565b6140fa91925060203d8111614101575b6140f281836116e5565b810190613fb8565b903861406e565b503d6140e8565b7f2569078dfb4b0305704d3008e7403993ae9601b85f7ae5e742de3de8f8011c4054614132612764565b73ffffffffffffffffffffffffffffffffffffffff80831660009081527f2569078dfb4b0305704d3008e7403993ae9601b85f7ae5e742de3de8f8011c456020526040812090939068010000000000000001815401905516907c02000000000000000000000000000000000000000000000000000000004260a01b8317176141e3826000527f2569078dfb4b0305704d3008e7403993ae9601b85f7ae5e742de3de8f8011c44602052604060002090565b55600190818101937fddf252ad1be2c89b69c2b068fc378daa952ba7f163c4a11628f55a4df523b3ef918482848180a4845b858103614273575050505015614249577f2569078dfb4b0305704d3008e7403993ae9601b85f7ae5e742de3de8f8011c4055565b60046040517f2e076300000000000000000000000000000000000000000000000000000000008152fd5b8084918684868180a401614215565b90604051600019608082019384604052935b0192600a908181066030018553049283156142b25760001990614294565b9250608083601f199203019201918252565b61322060ff7fee151c8401928dc223602bb187aff91b9a56c7cae5476ef1b3287b085a16c85f5460081c166136b2565b604051906080820182811067ffffffffffffffff82111761432b575b60405260006060838281528260208201528260408201520152565b61433361168c565b614310565b6143406142f4565b506143496142f4565b7f2569078dfb4b0305704d3008e7403993ae9601b85f7ae5e742de3de8f8011c40548210156143a0575061437c816143a5565b60408101516143a0575061439b6104e0916143956142f4565b5061397a565b6143df565b905090565b6143ad6142f4565b506000527f2569078dfb4b0305704d3008e7403993ae9601b85f7ae5e742de3de8f8011c446020526104e06040600020545b906143e86142f4565b9173ffffffffffffffffffffffffffffffffffffffff8116835267ffffffffffffffff8160a01c1660208401527c010000000000000000000000000000000000000000000000000000000081161515604084015260e81c6060830152565b9061445082612177565b61445d60405191826116e5565b828152601f1961446d8294612177565b0190602036910137565b90828110156145d2576000917f2569078dfb4b0305704d3008e7403993ae9601b85f7ae5e742de3de8f8011c40548085116145ca575b506144b7816138dd565b848310156145c3578285038181106145bb575b505b6144d581614446565b9581156145b3576144e584614338565b9185946040936144fa610c8286830151151590565b614594575b505b878114158061458a575b1561457d57614519816143a5565b80850151614574575173ffffffffffffffffffffffffffffffffffffffff9081168061456b575b509081600192871690881614614557575b01614501565b80614565838a01998c612284565b52614551565b96506001614540565b50600190614551565b5050959450505050815290565b508187141561450b565b5173ffffffffffffffffffffffffffffffffffffffff169550386144ff565b945050505050565b9050386144ca565b50826144cc565b9350386144ad565b60046040517f32c1995a000000000000000000000000000000000000000000000000000000008152fdfea2646970667358221220227db3c62d5bf92c5a0d0f946047f70421187024d339628280f39215bebe754164736f6c63430008110033"
}