{
  "address": "0xCdcB43CB7B668F0C1cA04FE4b60DA7F8C62Be393",
  "abi": [
    {
      "inputs": [],
      "stateMutability": "nonpayable",
      "type": "constructor"
    },
    {
      "anonymous": false,
      "inputs": [
        {
          "indexed": true,
          "internalType": "address",
          "name": "owner",
          "type": "address"
        },
        {
          "indexed": true,
          "internalType": "address",
          "name": "spender",
          "type": "address"
        },
        {
          "indexed": false,
          "internalType": "uint256",
          "name": "value",
          "type": "uint256"
        }
      ],
      "name": "Approval",
      "type": "event"
    },
    {
      "anonymous": false,
      "inputs": [
        {
          "indexed": true,
          "internalType": "address",
          "name": "operator",
          "type": "address"
        },
        {
          "indexed": true,
          "internalType": "address",
          "name": "tokenHolder",
          "type": "address"
        }
      ],
      "name": "AuthorizedOperator",
      "type": "event"
    },
    {
      "anonymous": false,
      "inputs": [
        {
          "indexed": true,
          "internalType": "address",
          "name": "operator",
          "type": "address"
        },
        {
          "indexed": true,
          "internalType": "address",
          "name": "from",
          "type": "address"
        },
        {
          "indexed": false,
          "internalType": "uint256",
          "name": "amount",
          "type": "uint256"
        },
        {
          "indexed": false,
          "internalType": "bytes",
          "name": "data",
          "type": "bytes"
        },
        {
          "indexed": false,
          "internalType": "bytes",
          "name": "operatorData",
          "type": "bytes"
        }
      ],
      "name": "Burned",
      "type": "event"
    },
    {
      "anonymous": false,
      "inputs": [
        {
          "indexed": false,
          "internalType": "uint8",
          "name": "version",
          "type": "uint8"
        }
      ],
      "name": "Initialized",
      "type": "event"
    },
    {
      "anonymous": false,
      "inputs": [
        {
          "indexed": true,
          "internalType": "address",
          "name": "operator",
          "type": "address"
        },
        {
          "indexed": true,
          "internalType": "address",
          "name": "to",
          "type": "address"
        },
        {
          "indexed": false,
          "internalType": "uint256",
          "name": "amount",
          "type": "uint256"
        },
        {
          "indexed": false,
          "internalType": "bytes",
          "name": "data",
          "type": "bytes"
        },
        {
          "indexed": false,
          "internalType": "bytes",
          "name": "operatorData",
          "type": "bytes"
        }
      ],
      "name": "Minted",
      "type": "event"
    },
    {
      "anonymous": false,
      "inputs": [
        {
          "indexed": false,
          "internalType": "address",
          "name": "account",
          "type": "address"
        }
      ],
      "name": "Paused",
      "type": "event"
    },
    {
      "anonymous": false,
      "inputs": [
        {
          "indexed": true,
          "internalType": "address",
          "name": "operator",
          "type": "address"
        },
        {
          "indexed": true,
          "internalType": "address",
          "name": "tokenHolder",
          "type": "address"
        }
      ],
      "name": "RevokedOperator",
      "type": "event"
    },
    {
      "anonymous": false,
      "inputs": [
        {
          "indexed": true,
          "internalType": "bytes32",
          "name": "role",
          "type": "bytes32"
        },
        {
          "indexed": true,
          "internalType": "bytes32",
          "name": "previousAdminRole",
          "type": "bytes32"
        },
        {
          "indexed": true,
          "internalType": "bytes32",
          "name": "newAdminRole",
          "type": "bytes32"
        }
      ],
      "name": "RoleAdminChanged",
      "type": "event"
    },
    {
      "anonymous": false,
      "inputs": [
        {
          "indexed": true,
          "internalType": "bytes32",
          "name": "role",
          "type": "bytes32"
        },
        {
          "indexed": true,
          "internalType": "address",
          "name": "account",
          "type": "address"
        },
        {
          "indexed": true,
          "internalType": "address",
          "name": "sender",
          "type": "address"
        }
      ],
      "name": "RoleGranted",
      "type": "event"
    },
    {
      "anonymous": false,
      "inputs": [
        {
          "indexed": true,
          "internalType": "bytes32",
          "name": "role",
          "type": "bytes32"
        },
        {
          "indexed": true,
          "internalType": "address",
          "name": "account",
          "type": "address"
        },
        {
          "indexed": true,
          "internalType": "address",
          "name": "sender",
          "type": "address"
        }
      ],
      "name": "RoleRevoked",
      "type": "event"
    },
    {
      "anonymous": false,
      "inputs": [
        {
          "indexed": true,
          "internalType": "address",
          "name": "operator",
          "type": "address"
        },
        {
          "indexed": true,
          "internalType": "address",
          "name": "from",
          "type": "address"
        },
        {
          "indexed": true,
          "internalType": "address",
          "name": "to",
          "type": "address"
        },
        {
          "indexed": false,
          "internalType": "uint256",
          "name": "amount",
          "type": "uint256"
        },
        {
          "indexed": false,
          "internalType": "bytes",
          "name": "data",
          "type": "bytes"
        },
        {
          "indexed": false,
          "internalType": "bytes",
          "name": "operatorData",
          "type": "bytes"
        }
      ],
      "name": "Sent",
      "type": "event"
    },
    {
      "anonymous": false,
      "inputs": [
        {
          "indexed": true,
          "internalType": "address",
          "name": "from",
          "type": "address"
        },
        {
          "indexed": false,
          "internalType": "address[]",
          "name": "recipients",
          "type": "address[]"
        },
        {
          "indexed": false,
          "internalType": "uint256[]",
          "name": "amounts",
          "type": "uint256[]"
        },
        {
          "indexed": false,
          "internalType": "bytes[]",
          "name": "userData",
          "type": "bytes[]"
        },
        {
          "indexed": false,
          "internalType": "bytes[]",
          "name": "operatorData",
          "type": "bytes[]"
        },
        {
          "indexed": false,
          "internalType": "bool[]",
          "name": "requireReceptionAck",
          "type": "bool[]"
        }
      ],
      "name": "SentBatch",
      "type": "event"
    },
    {
      "anonymous": false,
      "inputs": [
        {
          "indexed": true,
          "internalType": "address",
          "name": "recipient",
          "type": "address"
        },
        {
          "indexed": true,
          "internalType": "uint256",
          "name": "amount",
          "type": "uint256"
        },
        {
          "indexed": true,
          "internalType": "uint256",
          "name": "startTime",
          "type": "uint256"
        },
        {
          "indexed": false,
          "internalType": "uint256",
          "name": "vestEndTime",
          "type": "uint256"
        },
        {
          "indexed": false,
          "internalType": "uint256",
          "name": "unlockEndTime",
          "type": "uint256"
        }
      ],
      "name": "TokenGrantCreated",
      "type": "event"
    },
    {
      "anonymous": false,
      "inputs": [
        {
          "indexed": false,
          "internalType": "uint256",
          "name": "totalAmount",
          "type": "uint256"
        }
      ],
      "name": "TokenGrantCreatedBatch",
      "type": "event"
    },
    {
      "anonymous": false,
      "inputs": [
        {
          "indexed": true,
          "internalType": "address",
          "name": "from",
          "type": "address"
        },
        {
          "indexed": true,
          "internalType": "address",
          "name": "to",
          "type": "address"
        },
        {
          "indexed": false,
          "internalType": "uint256",
          "name": "quantity",
          "type": "uint256"
        }
      ],
      "name": "TokensClaimed",
      "type": "event"
    },
    {
      "anonymous": false,
      "inputs": [
        {
          "indexed": true,
          "internalType": "address",
          "name": "from",
          "type": "address"
        },
        {
          "indexed": true,
          "internalType": "address",
          "name": "to",
          "type": "address"
        },
        {
          "indexed": false,
          "internalType": "uint256",
          "name": "value",
          "type": "uint256"
        }
      ],
      "name": "Transfer",
      "type": "event"
    },
    {
      "anonymous": false,
      "inputs": [
        {
          "indexed": false,
          "internalType": "address",
          "name": "from",
          "type": "address"
        },
        {
          "indexed": false,
          "internalType": "address",
          "name": "to",
          "type": "address"
        }
      ],
      "name": "UnderlyingTokenAddressUpdated",
      "type": "event"
    },
    {
      "anonymous": false,
      "inputs": [
        {
          "indexed": false,
          "internalType": "address",
          "name": "account",
          "type": "address"
        }
      ],
      "name": "Unpaused",
      "type": "event"
    },
    {
      "anonymous": false,
      "inputs": [
        {
          "indexed": true,
          "internalType": "uint256",
          "name": "atTime",
          "type": "uint256"
        },
        {
          "indexed": true,
          "internalType": "address",
          "name": "from",
          "type": "address"
        },
        {
          "indexed": true,
          "internalType": "uint256",
          "name": "quantity",
          "type": "uint256"
        }
      ],
      "name": "UnvestedTokensRevoked",
      "type": "event"
    },
    {
      "inputs": [],
      "name": "DEFAULT_ADMIN_ROLE",
      "outputs": [
        {
          "internalType": "bytes32",
          "name": "",
          "type": "bytes32"
        }
      ],
      "stateMutability": "view",
      "type": "function"
    },
    {
      "inputs": [],
      "name": "ERC777_TOKENS_RECIPIENT_HASH",
      "outputs": [
        {
          "internalType": "bytes32",
          "name": "",
          "type": "bytes32"
        }
      ],
      "stateMutability": "view",
      "type": "function"
    },
    {
      "inputs": [],
      "name": "PAUSER_ROLE",
      "outputs": [
        {
          "internalType": "bytes32",
          "name": "",
          "type": "bytes32"
        }
      ],
      "stateMutability": "view",
      "type": "function"
    },
    {
      "inputs": [],
      "name": "TOKEN_GRANTER_ROLE",
      "outputs": [
        {
          "internalType": "bytes32",
          "name": "",
          "type": "bytes32"
        }
      ],
      "stateMutability": "view",
      "type": "function"
    },
    {
      "inputs": [
        {
          "internalType": "address",
          "name": "holder",
          "type": "address"
        },
        {
          "internalType": "address",
          "name": "spender",
          "type": "address"
        }
      ],
      "name": "allowance",
      "outputs": [
        {
          "internalType": "uint256",
          "name": "",
          "type": "uint256"
        }
      ],
      "stateMutability": "view",
      "type": "function"
    },
    {
      "inputs": [
        {
          "internalType": "address",
          "name": "spender",
          "type": "address"
        },
        {
          "internalType": "uint256",
          "name": "value",
          "type": "uint256"
        }
      ],
      "name": "approve",
      "outputs": [
        {
          "internalType": "bool",
          "name": "",
          "type": "bool"
        }
      ],
      "stateMutability": "nonpayable",
      "type": "function"
    },
    {
      "inputs": [
        {
          "internalType": "address",
          "name": "operator",
          "type": "address"
        }
      ],
      "name": "authorizeOperator",
      "outputs": [],
      "stateMutability": "nonpayable",
      "type": "function"
    },
    {
      "inputs": [
        {
          "internalType": "address",
          "name": "tokenHolder",
          "type": "address"
        }
      ],
      "name": "balanceOf",
      "outputs": [
        {
          "internalType": "uint256",
          "name": "",
          "type": "uint256"
        }
      ],
      "stateMutability": "view",
      "type": "function"
    },
    {
      "inputs": [
        {
          "internalType": "address[]",
          "name": "accounts",
          "type": "address[]"
        }
      ],
      "name": "balanceOfBatch",
      "outputs": [
        {
          "internalType": "uint256[]",
          "name": "",
          "type": "uint256[]"
        }
      ],
      "stateMutability": "view",
      "type": "function"
    },
    {
      "inputs": [
        {
          "internalType": "uint256[]",
          "name": "amounts",
          "type": "uint256[]"
        },
        {
          "internalType": "bytes[]",
          "name": "grantParams",
          "type": "bytes[]"
        },
        {
          "internalType": "uint256",
          "name": "deadline",
          "type": "uint256"
        },
        {
          "internalType": "uint8",
          "name": "v",
          "type": "uint8"
        },
        {
          "internalType": "bytes32",
          "name": "r",
          "type": "bytes32"
        },
        {
          "internalType": "bytes32",
          "name": "s",
          "type": "bytes32"
        }
      ],
      "name": "batchCreateGrants",
      "outputs": [],
      "stateMutability": "nonpayable",
      "type": "function"
    },
    {
      "inputs": [
        {
          "internalType": "address[]",
          "name": "accounts",
          "type": "address[]"
        }
      ],
      "name": "batchGetGrant",
      "outputs": [
        {
          "components": [
            {
              "internalType": "uint256",
              "name": "grantAmount",
              "type": "uint256"
            },
            {
              "internalType": "address",
              "name": "recipient",
              "type": "address"
            },
            {
              "internalType": "uint256",
              "name": "startTime",
              "type": "uint256"
            },
            {
              "internalType": "uint256",
              "name": "vestEndTime",
              "type": "uint256"
            },
            {
              "internalType": "uint256",
              "name": "unlockEndTime",
              "type": "uint256"
            },
            {
              "internalType": "uint256",
              "name": "cliff1Time",
              "type": "uint256"
            },
            {
              "internalType": "uint256",
              "name": "cliff2Time",
              "type": "uint256"
            },
            {
              "internalType": "uint256",
              "name": "vestCliff1Amount",
              "type": "uint256"
            },
            {
              "internalType": "uint256",
              "name": "vestCliff2Amount",
              "type": "uint256"
            },
            {
              "internalType": "uint256",
              "name": "unlockCliff1Amount",
              "type": "uint256"
            },
            {
              "internalType": "uint256",
              "name": "unlockCliff2Amount",
              "type": "uint256"
            },
            {
              "internalType": "uint256",
              "name": "claimedAmount",
              "type": "uint256"
            },
            {
              "internalType": "uint256",
              "name": "originalAmount",
              "type": "uint256"
            },
            {
              "internalType": "uint256",
              "name": "lastRevocationTime",
              "type": "uint256"
            },
            {
              "internalType": "uint256",
              "name": "lastQuantityRevoked",
              "type": "uint256"
            },
            {
              "internalType": "bool",
              "name": "exists",
              "type": "bool"
            }
          ],
          "internalType": "struct LockedNORI.TokenGrantDetail[]",
          "name": "",
          "type": "tuple[]"
        }
      ],
      "stateMutability": "view",
      "type": "function"
    },
    {
      "inputs": [
        {
          "internalType": "address[]",
          "name": "fromAccounts",
          "type": "address[]"
        },
        {
          "internalType": "address[]",
          "name": "toAccounts",
          "type": "address[]"
        },
        {
          "internalType": "uint256[]",
          "name": "atTimes",
          "type": "uint256[]"
        },
        {
          "internalType": "uint256[]",
          "name": "amounts",
          "type": "uint256[]"
        }
      ],
      "name": "batchRevokeUnvestedTokenAmounts",
      "outputs": [],
      "stateMutability": "nonpayable",
      "type": "function"
    },
    {
      "inputs": [
        {
          "internalType": "uint256",
          "name": "",
          "type": "uint256"
        },
        {
          "internalType": "bytes",
          "name": "",
          "type": "bytes"
        }
      ],
      "name": "burn",
      "outputs": [],
      "stateMutability": "pure",
      "type": "function"
    },
    {
      "inputs": [
        {
          "internalType": "uint256",
          "name": "amount",
          "type": "uint256"
        },
        {
          "internalType": "address",
          "name": "recipient",
          "type": "address"
        },
        {
          "internalType": "uint256",
          "name": "startTime",
          "type": "uint256"
        },
        {
          "internalType": "uint256",
          "name": "vestEndTime",
          "type": "uint256"
        },
        {
          "internalType": "uint256",
          "name": "unlockEndTime",
          "type": "uint256"
        },
        {
          "internalType": "uint256",
          "name": "cliff1Time",
          "type": "uint256"
        },
        {
          "internalType": "uint256",
          "name": "cliff2Time",
          "type": "uint256"
        },
        {
          "internalType": "uint256",
          "name": "vestCliff1Amount",
          "type": "uint256"
        },
        {
          "internalType": "uint256",
          "name": "vestCliff2Amount",
          "type": "uint256"
        },
        {
          "internalType": "uint256",
          "name": "unlockCliff1Amount",
          "type": "uint256"
        },
        {
          "internalType": "uint256",
          "name": "unlockCliff2Amount",
          "type": "uint256"
        }
      ],
      "name": "createGrant",
      "outputs": [],
      "stateMutability": "nonpayable",
      "type": "function"
    },
    {
      "inputs": [],
      "name": "decimals",
      "outputs": [
        {
          "internalType": "uint8",
          "name": "",
          "type": "uint8"
        }
      ],
      "stateMutability": "pure",
      "type": "function"
    },
    {
      "inputs": [],
      "name": "defaultOperators",
      "outputs": [
        {
          "internalType": "address[]",
          "name": "",
          "type": "address[]"
        }
      ],
      "stateMutability": "view",
      "type": "function"
    },
    {
      "inputs": [
        {
          "internalType": "address",
          "name": "recipient",
          "type": "address"
        },
        {
          "internalType": "uint256",
          "name": "amount",
          "type": "uint256"
        }
      ],
      "name": "depositFor",
      "outputs": [
        {
          "internalType": "bool",
          "name": "",
          "type": "bool"
        }
      ],
      "stateMutability": "nonpayable",
      "type": "function"
    },
    {
      "inputs": [
        {
          "internalType": "address",
          "name": "account",
          "type": "address"
        }
      ],
      "name": "getGrant",
      "outputs": [
        {
          "components": [
            {
              "internalType": "uint256",
              "name": "grantAmount",
              "type": "uint256"
            },
            {
              "internalType": "address",
              "name": "recipient",
              "type": "address"
            },
            {
              "internalType": "uint256",
              "name": "startTime",
              "type": "uint256"
            },
            {
              "internalType": "uint256",
              "name": "vestEndTime",
              "type": "uint256"
            },
            {
              "internalType": "uint256",
              "name": "unlockEndTime",
              "type": "uint256"
            },
            {
              "internalType": "uint256",
              "name": "cliff1Time",
              "type": "uint256"
            },
            {
              "internalType": "uint256",
              "name": "cliff2Time",
              "type": "uint256"
            },
            {
              "internalType": "uint256",
              "name": "vestCliff1Amount",
              "type": "uint256"
            },
            {
              "internalType": "uint256",
              "name": "vestCliff2Amount",
              "type": "uint256"
            },
            {
              "internalType": "uint256",
              "name": "unlockCliff1Amount",
              "type": "uint256"
            },
            {
              "internalType": "uint256",
              "name": "unlockCliff2Amount",
              "type": "uint256"
            },
            {
              "internalType": "uint256",
              "name": "claimedAmount",
              "type": "uint256"
            },
            {
              "internalType": "uint256",
              "name": "originalAmount",
              "type": "uint256"
            },
            {
              "internalType": "uint256",
              "name": "lastRevocationTime",
              "type": "uint256"
            },
            {
              "internalType": "uint256",
              "name": "lastQuantityRevoked",
              "type": "uint256"
            },
            {
              "internalType": "bool",
              "name": "exists",
              "type": "bool"
            }
          ],
          "internalType": "struct LockedNORI.TokenGrantDetail",
          "name": "",
          "type": "tuple"
        }
      ],
      "stateMutability": "view",
      "type": "function"
    },
    {
      "inputs": [
        {
          "internalType": "bytes32",
          "name": "role",
          "type": "bytes32"
        }
      ],
      "name": "getRoleAdmin",
      "outputs": [
        {
          "internalType": "bytes32",
          "name": "",
          "type": "bytes32"
        }
      ],
      "stateMutability": "view",
      "type": "function"
    },
    {
      "inputs": [
        {
          "internalType": "bytes32",
          "name": "role",
          "type": "bytes32"
        },
        {
          "internalType": "uint256",
          "name": "index",
          "type": "uint256"
        }
      ],
      "name": "getRoleMember",
      "outputs": [
        {
          "internalType": "address",
          "name": "",
          "type": "address"
        }
      ],
      "stateMutability": "view",
      "type": "function"
    },
    {
      "inputs": [
        {
          "internalType": "bytes32",
          "name": "role",
          "type": "bytes32"
        }
      ],
      "name": "getRoleMemberCount",
      "outputs": [
        {
          "internalType": "uint256",
          "name": "",
          "type": "uint256"
        }
      ],
      "stateMutability": "view",
      "type": "function"
    },
    {
      "inputs": [
        {
          "internalType": "bytes32",
          "name": "role",
          "type": "bytes32"
        },
        {
          "internalType": "address",
          "name": "account",
          "type": "address"
        }
      ],
      "name": "grantRole",
      "outputs": [],
      "stateMutability": "nonpayable",
      "type": "function"
    },
    {
      "inputs": [],
      "name": "granularity",
      "outputs": [
        {
          "internalType": "uint256",
          "name": "",
          "type": "uint256"
        }
      ],
      "stateMutability": "view",
      "type": "function"
    },
    {
      "inputs": [
        {
          "internalType": "bytes32",
          "name": "role",
          "type": "bytes32"
        },
        {
          "internalType": "address",
          "name": "account",
          "type": "address"
        }
      ],
      "name": "hasRole",
      "outputs": [
        {
          "internalType": "bool",
          "name": "",
          "type": "bool"
        }
      ],
      "stateMutability": "view",
      "type": "function"
    },
    {
      "inputs": [
        {
          "internalType": "contract BridgedPolygonNORI",
          "name": "bridgedPolygonNoriAddress",
          "type": "address"
        }
      ],
      "name": "initialize",
      "outputs": [],
      "stateMutability": "nonpayable",
      "type": "function"
    },
    {
      "inputs": [
        {
          "internalType": "address",
          "name": "operator",
          "type": "address"
        },
        {
          "internalType": "address",
          "name": "tokenHolder",
          "type": "address"
        }
      ],
      "name": "isOperatorFor",
      "outputs": [
        {
          "internalType": "bool",
          "name": "",
          "type": "bool"
        }
      ],
      "stateMutability": "view",
      "type": "function"
    },
    {
      "inputs": [],
      "name": "name",
      "outputs": [
        {
          "internalType": "string",
          "name": "",
          "type": "string"
        }
      ],
      "stateMutability": "view",
      "type": "function"
    },
    {
      "inputs": [
        {
          "internalType": "address",
          "name": "",
          "type": "address"
        },
        {
          "internalType": "uint256",
          "name": "",
          "type": "uint256"
        },
        {
          "internalType": "bytes",
          "name": "",
          "type": "bytes"
        },
        {
          "internalType": "bytes",
          "name": "",
          "type": "bytes"
        }
      ],
      "name": "operatorBurn",
      "outputs": [],
      "stateMutability": "pure",
      "type": "function"
    },
    {
      "inputs": [
        {
          "internalType": "address",
          "name": "",
          "type": "address"
        },
        {
          "internalType": "address",
          "name": "",
          "type": "address"
        },
        {
          "internalType": "uint256",
          "name": "",
          "type": "uint256"
        },
        {
          "internalType": "bytes",
          "name": "",
          "type": "bytes"
        },
        {
          "internalType": "bytes",
          "name": "",
          "type": "bytes"
        }
      ],
      "name": "operatorSend",
      "outputs": [],
      "stateMutability": "pure",
      "type": "function"
    },
    {
      "inputs": [],
      "name": "pause",
      "outputs": [],
      "stateMutability": "nonpayable",
      "type": "function"
    },
    {
      "inputs": [],
      "name": "paused",
      "outputs": [
        {
          "internalType": "bool",
          "name": "",
          "type": "bool"
        }
      ],
      "stateMutability": "view",
      "type": "function"
    },
    {
      "inputs": [
        {
          "internalType": "address",
          "name": "account",
          "type": "address"
        }
      ],
      "name": "quantityRevokedFrom",
      "outputs": [
        {
          "internalType": "uint256",
          "name": "",
          "type": "uint256"
        }
      ],
      "stateMutability": "view",
      "type": "function"
    },
    {
      "inputs": [
        {
          "internalType": "bytes32",
          "name": "role",
          "type": "bytes32"
        },
        {
          "internalType": "address",
          "name": "account",
          "type": "address"
        }
      ],
      "name": "renounceRole",
      "outputs": [],
      "stateMutability": "nonpayable",
      "type": "function"
    },
    {
      "inputs": [
        {
          "internalType": "address",
          "name": "operator",
          "type": "address"
        }
      ],
      "name": "revokeOperator",
      "outputs": [],
      "stateMutability": "nonpayable",
      "type": "function"
    },
    {
      "inputs": [
        {
          "internalType": "bytes32",
          "name": "role",
          "type": "bytes32"
        },
        {
          "internalType": "address",
          "name": "account",
          "type": "address"
        }
      ],
      "name": "revokeRole",
      "outputs": [],
      "stateMutability": "nonpayable",
      "type": "function"
    },
    {
      "inputs": [
        {
          "internalType": "address",
          "name": "",
          "type": "address"
        },
        {
          "internalType": "uint256",
          "name": "",
          "type": "uint256"
        },
        {
          "internalType": "bytes",
          "name": "",
          "type": "bytes"
        }
      ],
      "name": "send",
      "outputs": [],
      "stateMutability": "pure",
      "type": "function"
    },
    {
      "inputs": [
        {
          "internalType": "bytes4",
          "name": "interfaceId",
          "type": "bytes4"
        }
      ],
      "name": "supportsInterface",
      "outputs": [
        {
          "internalType": "bool",
          "name": "",
          "type": "bool"
        }
      ],
      "stateMutability": "view",
      "type": "function"
    },
    {
      "inputs": [],
      "name": "symbol",
      "outputs": [
        {
          "internalType": "string",
          "name": "",
          "type": "string"
        }
      ],
      "stateMutability": "view",
      "type": "function"
    },
    {
      "inputs": [],
      "name": "totalSupply",
      "outputs": [
        {
          "internalType": "uint256",
          "name": "",
          "type": "uint256"
        }
      ],
      "stateMutability": "view",
      "type": "function"
    },
    {
      "inputs": [
        {
          "internalType": "address",
          "name": "",
          "type": "address"
        },
        {
          "internalType": "uint256",
          "name": "",
          "type": "uint256"
        }
      ],
      "name": "transfer",
      "outputs": [
        {
          "internalType": "bool",
          "name": "",
          "type": "bool"
        }
      ],
      "stateMutability": "pure",
      "type": "function"
    },
    {
      "inputs": [
        {
          "internalType": "address",
          "name": "",
          "type": "address"
        },
        {
          "internalType": "address",
          "name": "",
          "type": "address"
        },
        {
          "internalType": "uint256",
          "name": "",
          "type": "uint256"
        }
      ],
      "name": "transferFrom",
      "outputs": [
        {
          "internalType": "bool",
          "name": "",
          "type": "bool"
        }
      ],
      "stateMutability": "pure",
      "type": "function"
    },
    {
      "inputs": [
        {
          "internalType": "address",
          "name": "account",
          "type": "address"
        }
      ],
      "name": "unlockedBalanceOf",
      "outputs": [
        {
          "internalType": "uint256",
          "name": "",
          "type": "uint256"
        }
      ],
      "stateMutability": "view",
      "type": "function"
    },
    {
      "inputs": [],
      "name": "unpause",
      "outputs": [],
      "stateMutability": "nonpayable",
      "type": "function"
    },
    {
      "inputs": [
        {
          "internalType": "contract BridgedPolygonNORI",
          "name": "newUnderlying",
          "type": "address"
        }
      ],
      "name": "updateUnderlying",
      "outputs": [],
      "stateMutability": "nonpayable",
      "type": "function"
    },
    {
      "inputs": [
        {
          "internalType": "address",
          "name": "account",
          "type": "address"
        }
      ],
      "name": "vestedBalanceOf",
      "outputs": [
        {
          "internalType": "uint256",
          "name": "",
          "type": "uint256"
        }
      ],
      "stateMutability": "view",
      "type": "function"
    },
    {
      "inputs": [
        {
          "internalType": "address",
          "name": "recipient",
          "type": "address"
        },
        {
          "internalType": "uint256",
          "name": "amount",
          "type": "uint256"
        }
      ],
      "name": "withdrawTo",
      "outputs": [
        {
          "internalType": "bool",
          "name": "",
          "type": "bool"
        }
      ],
      "stateMutability": "nonpayable",
      "type": "function"
    }
  ],
  "numDeployments": 5,
  "bytecode": "0x60808060405234620000c6576000549060ff8260081c1662000074575060ff8082161062000038575b60405161522b9081620000cc8239f35b60ff90811916176000557f7f26b83ff96e1f2b6a682f133852f6798a09c465da95921460cefb3847402498602060405160ff8152a13862000028565b62461bcd60e51b815260206004820152602760248201527f496e697469616c697a61626c653a20636f6e747261637420697320696e697469604482015266616c697a696e6760c81b6064820152608490fd5b600080fdfe60c080604052600436101561001357600080fd5b600060805260003560e01c90816301ffc9a714612dd95750806306e4853814612cf257806306fdde0314612c49578063095ea7b314612be35780630e2d1a2a14612ab757806318160ddd14612a97578063205c287814612a6857806323b872dd14612a01578063248a9ca3146129d0578063271c6e1a1461290f5780632f2ff15d1461281c5780632f4f21e2146127e3578063313ce567146127c557806336568abe146127195780633f4ba83a1461267757806342f822601461238c578063458c738e146121e9578063521189a9146121ac578063556f0dc71461218e5780635c975abb1461216957806362ad1b83146120c7578063633d9be01461208a57806370a08231146120455780638456cb5914611fe557806384955c8814611fc05780639010d07c14611f6b57806391d1485414611f0d578063959b8c3f146102b457806395d89b4114611e245780639952d6e4146117555780639bd9bbc6146116d65780639e3f3cac1461167a5780639f916c2114611493578063a217fddf14611475578063a9059cbb14611417578063bf31dbf41461132e578063c4d66de81461080c578063c884aa58146104a4578063ca15c87314610476578063d547741f1461042f578063d95b63711461035e578063dd62ed3e146102fd578063e63ab1e9146102bd578063fad8b32a146102b4578063fc673c4f1461025f5763fe9d93031461021f575b600080fd5b346102595760406003193601126102595760243567ffffffffffffffff8111610259576102509036906004016130af565b5061021a613d96565b60805180fd5b503461025957608060031936011261025957610279612f10565b5067ffffffffffffffff6044358181116102595761029b9036906004016130af565b50606435908111610259576102509036906004016130af565b5061021a6130cd565b3461025957608051806003193601126102fa5760206040517f65d7a28e3265b37a6474929f336521b332c1681b933f6cb9f3376673440d862a8152f35b80fd5b3461025957604060031936011261025957610316612f10565b61031e612f33565b9073ffffffffffffffffffffffffffffffffffffffff80911660805152603b60205260406080512091166000526020526020604060002054604051908152f35b3461025957604060031936011261025957610377612f10565b73ffffffffffffffffffffffffffffffffffffffff80610395612f33565b169116908082149081156103e1575b81156103b8575b6020826040519015158152f35b905060805152603960205260406080512090600052602052602060ff60406000205416826103ab565b9050816080515260386020526080518160ff6040832054169182610408575b5050906103a4565b90915052603a6020526040608051208260005260205260ff60406000205416158184610400565b346102595760406003193601126102595761047060043561044e612f33565b90806080515260c960205261046b600160406080512001546134b6565b6148d8565b60805180f35b34610259576020600319360112610259576004356080515260fb602052602060406080512054604051908152f35b346102595760c06003193601126102595767ffffffffffffffff600435818111610259576104d690369060040161312c565b602492918335838111610259576104f190369060040161312c565b90916064359460ff958681168091036102595761050c613925565b61051461315d565b8386036107a25760805194855b8887169088821015610637576105439061053c838b89613af2565b35906135d4565b9661054f828a88613af2565b358783101561062057611fe08260051b168401357fffffffffffffffffffffffffffffffffffffffffffffffffffffffffffffffe1853603018112156102595784019283359387851161025957602001938036038513610259576105c66105f8936105c08f976105ce94369161304a565b90613dfc565b918c8a613af2565b35604051906105dc82612f9d565b6080518252604051926105ee84612f9d565b6080518452614ab3565b168881146106095760010195610521565b89634e487b7160e01b608051526011600452608051fd5b8b634e487b7160e01b608051526032600452608051fd5b8a847f1c033d59d233682f5cd21bc9a14d4934157a93bb4e87b1aa1f3ac4394af8a8146020604051858152a173ffffffffffffffffffffffffffffffffffffffff91610160918383541690813b1561025957604051927fd505accf00000000000000000000000000000000000000000000000000000000845233600485015230908401528560448401526044356064840152608483015260843560a483015260a43560c48301528160e48160805180945af180156107805761078d575b50546040517f23b872dd0000000000000000000000000000000000000000000000000000000081523360048201523060248201526044810193909352608051602092849260649284929091165af18015610780576107525760805180f35b6107729060203d8111610779575b61076a8183612ff1565b810190613752565b5080610470565b503d610760565b6040513d608051823e3d90fd5b61079690612f56565b60805180156106f45780fd5b608488602b6040519162461bcd60e51b8352602060048401528201527f6c4e4f52493a205265717569726573206f6e6520616d6f756e7420706572206760448201527f72616e742064657461696c0000000000000000000000000000000000000000006064820152fd5b346102595760206003193601126102595760043573ffffffffffffffffffffffffffffffffffffffff8116810361025957608051549060ff8260081c161591828093611321575b801561130a575b156112a0576080519083600160ff198316178355611271575b50506040519061088282612fb9565b6001825260203681840137815115611259573360208301526108e360ff6080515460081c166108b081613d25565b6108b981613d25565b6108c281613d25565b6108cb81613d25565b6108d481613d25565b60ff1960655416606555613d25565b6108eb613925565b608051805260c9602052608051604081209033905260205260805160ff60408220541615611204575b50608051805260fb60205261092e336040608051206147e9565b50610937613925565b7f65d7a28e3265b37a6474929f336521b332c1681b933f6cb9f3376673440d862a6080515260c9602052608051604081209033905260205260805160ff6040822054161561116e575b507f65d7a28e3265b37a6474929f336521b332c1681b933f6cb9f3376673440d862a6080515260fb6020526109ba336040608051206147e9565b50604051926109c884612fb9565b600b84527f4c6f636b6564204e4f52490000000000000000000000000000000000000000006020850152604051936109ff85612fb9565b600585527f6c4e4f52490000000000000000000000000000000000000000000000000000006020860152610a3b60ff6080515460081c16613d25565b80519067ffffffffffffffff8211610f0c578190610a5a603554614a62565b601f811161111e575b5060805190602091601f841160011461105857506080519261104d575b50506000198260011b9260031b1c1916176035555b835167ffffffffffffffff8111610f0c57610ab1603654614a62565b601f8111610ff2575b50608051602090601f8311600114610f2f5750819293949560805192610f24575b50506000198260011b9260031b1c1916176036555b825167ffffffffffffffff8111610f0c57680100000000000000008111610f0c5760375481603755808210610ed6575b50602084019060376080515260805191825b828110610e8c575050505b8351811015610b8f578073ffffffffffffffffffffffffffffffffffffffff610b69610b8a9387613bb5565b5116608051526038602052604060805120600160ff19825416179055613b02565b610b3d565b5090731820a4b7618bde71dce8cdc73aab6c95905fad24803b1561025957604051907f29965a1d00000000000000000000000000000000000000000000000000000000918281523060048201527fac7fbab5f54a3ca8194167523c6753bfeb96a445279294b6125b68cce217705460248201523060448201526080518160648183865af1801561078057610e7d575b50803b15610259576040519182523060048301527faea199e31a596269b42cdafd93407f14436db6e4cad65417994c2eb37381e05a60248301523060448301528160648160805180945af1801561078057610e68575b5073ffffffffffffffffffffffffffffffffffffffff61016091167fffffffffffffffffffffffff0000000000000000000000000000000000000000825416179055610cbe613925565b3360005261015f60205260ff600f6040600020015416610dfe573360009081527f38e71761b954262a9560bd5d5724383b6db3c254761096eb4ce389ed02050c6060205260409020547fa52f07bb8dc8df886598eb50edeaba2b8e45715237ed244354b60ea04d0390b89060ff1615610dac575b60005260fb602052610d483360406000206147e9565b50610d535760805180f35b6080517fffffffffffffffffffffffffffffffffffffffffffffffffffffffffffff00ff81541690557f7f26b83ff96e1f2b6a682f133852f6798a09c465da95921460cefb3847402498602060405160018152a1610470565b8060005260c96020526040600020336000526020526040600020600160ff198254161790553333827f2f8788117e7eff1d82e926ec794901d17c78024a50270940304540a733656f0d600080a4610d32565b608460405162461bcd60e51b815260206004820152603360248201527f6c4e4f52493a2043616e6e6f742061737369676e20726f6c6520746f2061206760448201527f72616e7420686f6c6465722061646472657373000000000000000000000000006064820152fd5b610e7190612f56565b6080518015610c745780fd5b610e8690612f56565b84610c1e565b600190602073ffffffffffffffffffffffffffffffffffffffff845116930192817f42a7b7dd785cd69714a189dffb3fd7d7174edc9ece837694ce50f7078f7c31ae015501610b32565b610f0690827f42a7b7dd785cd69714a189dffb3fd7d7174edc9ece837694ce50f7078f7c31ae9182019101614a9c565b84610b20565b634e487b7160e01b6080515260416004526024608051fd5b015190508580610adb565b603690527f4a11f94e20a93c79f6ec743a1954ec4fc2c08429ae2122118bf234b2185c81b8906080515b7fffffffffffffffffffffffffffffffffffffffffffffffffffffffffffffffe084168110610fda5750600193949596837fffffffffffffffffffffffffffffffffffffffffffffffffffffffffffffffe0811610610fc1575b505050811b01603655610af0565b015160001960f88460031b161c19169055858080610fb3565b9091602060018192858b015181550193019101610f59565b61103d906036608051527f4a11f94e20a93c79f6ec743a1954ec4fc2c08429ae2122118bf234b2185c81b8601f840160051c81019160208510611043575b601f0160051c0190614a9c565b85610aba565b9091508190611030565b015190508680610a80565b6035919450527fcfa4bec1d3298408bb5afcfcd9c430549c5b31f8aa5c5848151c0a55f473c34d90608051935b7fffffffffffffffffffffffffffffffffffffffffffffffffffffffffffffffe0841685106111035760019450837fffffffffffffffffffffffffffffffffffffffffffffffffffffffffffffffe08116106110ea575b505050811b01603555610a95565b015160001960f88460031b161c191690558680806110dc565b81810151835560209485019460019093019290910190611085565b611168906035608051527fcfa4bec1d3298408bb5afcfcd9c430549c5b31f8aa5c5848151c0a55f473c34d601f850160051c8101916020861061104357601f0160051c0190614a9c565b87610a63565b7f65d7a28e3265b37a6474929f336521b332c1681b933f6cb9f3376673440d862a905260c9602052608051604081209033905260205260805160408120600160ff1982541617905533907f65d7a28e3265b37a6474929f336521b332c1681b933f6cb9f3376673440d862a7f2f8788117e7eff1d82e926ec794901d17c78024a50270940304540a733656f0d339280a483610980565b805260c9602052608051604081209033905260205260805160408120600160ff19825416179055339033907f2f8788117e7eff1d82e926ec794901d17c78024a50270940304540a733656f0d8180a483610914565b634e487b7160e01b6080515260326004526024608051fd5b7fffffffffffffffffffffffffffffffffffffffffffffffffffffffffffff0000166101011790558280610873565b608460405162461bcd60e51b815260206004820152602e60248201527f496e697469616c697a61626c653a20636f6e747261637420697320616c72656160448201527f647920696e697469616c697a65640000000000000000000000000000000000006064820152fd5b50303b15801561085a5750600160ff82161461085a565b50600160ff821610610853565b346102595760206003193601126102595761020061135261134d612f10565b613bc9565b61141560405180928051825273ffffffffffffffffffffffffffffffffffffffff602082015116602083015260408101516040830152606081015160608301526080810151608083015260a081015160a083015260c081015160c083015260e081015160e0830152610100808201519083015261012080820151908301526101408082015190830152610160808201519083015261018080820151908301526101a080820151908301526101c080820151908301526101e0809101511515910152565bf35b3461025957604060031936011261025957611430612f10565b50606460405162461bcd60e51b815260206004820152601860248201527f6c4e4f52493a207472616e736665722064697361626c656400000000000000006044820152fd5b3461025957608051806003193601126102fa57602090604051908152f35b34610259576020806003193601126102595760043567ffffffffffffffff8111610259576114c590369060040161312c565b91906114d083613032565b926114de6040519485612ff1565b8084527fffffffffffffffffffffffffffffffffffffffffffffffffffffffffffffffe061150b82613032565b01836080515b828110611664575050506080515b81811061162a57838560405190828201838352815180915283604084019201936080515b8281106115505784840385f35b909192826102008261161b6001948a518051825273ffffffffffffffffffffffffffffffffffffffff602082015116602083015260408101516040830152606081015160608301526080810151608083015260a081015160a083015260c081015160c083015260e081015160e0830152610100808201519083015261012080820151908301526101408082015190830152610160808201519083015261018080820151908301526101a080820151908301526101c080820151908301526101e0809101511515910152565b01960191019492919094611543565b8061164461134d61163f61165f948688613af2565b613b11565b61164e8288613bb5565b526116598187613bb5565b50613b02565b61151f565b61166c613b3f565b828289010152018490611511565b346102595760206003193601126102595773ffffffffffffffffffffffffffffffffffffffff6116a8612f10565b166080515261015f60205260206116ce604060805120600c600e82015491015490613b32565b604051908152f35b34610259576060600319360112610259576116ef612f10565b5060443567ffffffffffffffff8111610259576117109036906004016130af565b50606460405162461bcd60e51b815260206004820152601460248201527f6c4e4f52493a2073656e642064697361626c65640000000000000000000000006044820152fd5b346102595760806003193601126102595767ffffffffffffffff6004358181116102595761178790369060040161312c565b90602435838111610259576117a090369060040161312c565b604435858111610259576117b890369060040161312c565b919095606435908111610259576117d390369060040161312c565b90946117dd613925565b6117e561315d565b828703611dba57838303611d5057818403611ce6576080515b87811061180b5760805180f35b61181961163f828a85613af2565b9061182861163f82878a613af2565b9161183482888d613af2565b359061184183878c613af2565b35938215928380611cdd575b8015611ccc575b15611c625773ffffffffffffffffffffffffffffffffffffffff83166080515261015f6020526040608051209360ff600f8601541615611c1e5761189784614295565b15611bb45780611bab575b15611ba5575042945b428610611b3b576118bc8685614679565b90600c8501549182811015611af7576118d59083613b32565b8115611add578111611a99576119a69260209260116118f993978894858094613b32565b600c8201558a6010820155015561193360405161191581612f9d565b60805181526040519061192782612f9d565b60805182528488614fc6565b73ffffffffffffffffffffffffffffffffffffffff6101605416906040518095819482937fa9059cbb000000000000000000000000000000000000000000000000000000008452600484016020909392919373ffffffffffffffffffffffffffffffffffffffff60408201951681520152565b0391608051905af19081156107805760805191611a7a575b5015611a1057611a0b937f0bbe3f9ae306d75ae6df08cd4a79ac5c6eae93ffae7d7e52f2859bf27592519d73ffffffffffffffffffffffffffffffffffffffff60805193169280a4613b02565b6117fe565b608460405162461bcd60e51b815260206004820152602b60248201527f6c4e4f52493a207472616e73666572206f6620756e6465726c79696e6720617360448201527f736574206661696c65642e0000000000000000000000000000000000000000006064820152fd5b611a93915060203d6020116107795761076a8183612ff1565b8d6119be565b606460405162461bcd60e51b815260206004820152601e60248201527f6c4e4f52493a20746f6f2066657720756e76657374656420746f6b656e7300006044820152fd5b6118f991509260209260116119a695978894858094613b32565b606460405162461bcd60e51b815260206004820152601c60248201527f6c4e4f52493a20746f6b656e7320616c726561647920766573746564000000006044820152fd5b608460405162461bcd60e51b815260206004820152602760248201527f6c4e4f52493a205265766f636174696f6e2063616e6e6f7420626520696e207460448201527f68652070617374000000000000000000000000000000000000000000000000006064820152fd5b946118ab565b508515156118a2565b608460405162461bcd60e51b815260206004820152602960248201527f6c4e4f52493a206e6f2076657374696e67207363686564756c6520666f72207460448201527f686973206772616e7400000000000000000000000000000000000000000000006064820152fd5b606460405162461bcd60e51b815260206004820152601660248201527f6c4e4f52493a206e6f206772616e7420657869737473000000000000000000006044820152fd5b608460405162461bcd60e51b815260206004820152603b60248201527f6c4e4f52493a204d75737420737065636966792061207265766f636174696f6e60448201527f2074696d65206f7220616e20616d6f756e74206e6f7420626f746800000000006064820152fd5b508315801561185457508515611854565b5085151561184d565b608460405162461bcd60e51b815260206004820152602a60248201527f6c4e4f52493a20617454696d657320616e6420616d6f756e7473206c656e677460448201527f68206d69736d61746368000000000000000000000000000000000000000000006064820152fd5b608460405162461bcd60e51b815260206004820152602d60248201527f6c4e4f52493a20746f4163636f756e747320616e6420617454696d6573206c6560448201527f6e677468206d69736d61746368000000000000000000000000000000000000006064820152fd5b608460405162461bcd60e51b815260206004820152603260248201527f6c4e4f52493a2066726f6d4163636f756e747320616e6420746f4163636f756e60448201527f7473206c656e677468206d69736d6174636800000000000000000000000000006064820152fd5b3461025957608051806003193601126102fa5760405190603654611e4781614a62565b80845290600190818116908115611ee65750600114611e89575b611e8584611e7181860382612ff1565b604051918291602083526020830190612ecd565b0390f35b60808051603690525192507f4a11f94e20a93c79f6ec743a1954ec4fc2c08429ae2122118bf234b2185c81b85b828410611ece575050508101602001611e7182611e61565b80546020858701810191909152909301928101611eb6565b60ff191660208087019190915292151560051b85019092019250611e719150839050611e61565b3461025957604060031936011261025957611f26612f33565b6004356080515260c960205260805173ffffffffffffffffffffffffffffffffffffffff6040822092169052602052602060ff60406080512054166040519015158152f35b34610259576040600319360112610259576004356080515260fb602052602073ffffffffffffffffffffffffffffffffffffffff611fb060243560406080512061373a565b9190546040519260031b1c168152f35b346102595760206003193601126102595760206116ce611fde612f10565b42906142d3565b3461025957608051806003193601126102fa5761200061335e565b612008613925565b600160ff1960655416176065557f62e78cea01bee320cd4e420270b5ea74000d11b0c9f74754ebdbfc544b05a2586020604051338152a160805180f35b346102595760206003193601126102595760206116ce612063612f10565b73ffffffffffffffffffffffffffffffffffffffff16600052603360205260406000205490565b3461025957608051806003193601126102fa5760206040517fa52f07bb8dc8df886598eb50edeaba2b8e45715237ed244354b60ea04d0390b88152f35b346102595760a0600319360112610259576120e0612f10565b506120e9612f33565b5067ffffffffffffffff6064358181116102595761210b9036906004016130af565b50608435908111610259576121249036906004016130af565b50606460405162461bcd60e51b815260206004820152601c60248201527f6c4e4f52493a206f70657261746f7253656e642064697361626c6564000000006044820152fd5b3461025957608051806003193601126102fa57602060ff606554166040519015158152f35b3461025957608051806003193601126102fa57602060405160018152f35b3461025957608051806003193601126102fa5760206040517fb281fc8c12954d22544db45de3159a39272895b169a852b314f9cc762e44c53b8152f35b3461025957602080600319360112610259576004359067ffffffffffffffff821161025957366023830112156102595781600401359161222883613032565b926122366040519485612ff1565b80845260248385019160051b8301019136831161025957602401905b82821061236057505050815161228061226a82613032565b916122786040519384612ff1565b808352613032565b917fffffffffffffffffffffffffffffffffffffffffffffffffffffffffffffffe081830193013684376080515b845181101561231b578061230673ffffffffffffffffffffffffffffffffffffffff6122dd6123169489613bb5565b511673ffffffffffffffffffffffffffffffffffffffff16600052603360205260406000205490565b6123108286613bb5565b52613b02565b6122ae565b5092509060405192839281840190828552518091526040840192916080515b82811061234957505050500390f35b83518552869550938101939281019260010161233a565b813573ffffffffffffffffffffffffffffffffffffffff81168103610259578152908301908301612252565b34610259576020806003193601126102595760043573ffffffffffffffffffffffffffffffffffffffff90818116809103610259576123c9613925565b608051805260c983526080516040812090339052835260ff6040608051205416156124c357610160805492831692828414612459577fffffffffffffffffffffffff0000000000000000000000000000000000000000168217905560408051928352928201527f1fc9b2467a9c193cab5b6f03eefe74f1e3140becc7ff93728101335e77fef6799190a160805180f35b6084856040519062461bcd60e51b82526004820152603660248201527f6c4e4f52493a207570646174696e6720756e6465726c79696e6720616464726560448201527f737320746f206578697374696e672061646472657373000000000000000000006064820152fd5b826124cd3361361e565b906080516040516124dd81612fd5565b604281528281019160603684378151156112595760308353815160019081101561125957607860218401536041905b80821161260e5750506125cb57612597936125a6926048926040519687937f416363657373436f6e74726f6c3a206163636f756e742000000000000000000088860152612562815180928a603789019101612eaa565b8401917f206973206d697373696e6720726f6c6520000000000000000000000000000000603784015251809386840190612eaa565b01036028810185520183612ff1565b6125c760405192839262461bcd60e51b845260048401526024830190612ecd565b0390fd5b6064836040519062461bcd60e51b825280600483015260248201527f537472696e67733a20686578206c656e67746820696e73756666696369656e746044820152fd5b9091600f81166010811015611259577f3031323334353637383961626364656600000000000000000000000000000000901a61264a84866135f7565b5360041c91801561265f57600019019061250c565b634e487b7160e01b6080515260116004526024608051fd5b3461025957608051806003193601126102fa5761269261335e565b60655460ff8116156126d55760ff19166065557f5db9ee0a495bf2e6ff9c91a7834c1ba4fdd244a5e8aa4e537bd38aeae4b073aa6020604051338152a160805180f35b606460405162461bcd60e51b815260206004820152601460248201527f5061757361626c653a206e6f74207061757365640000000000000000000000006044820152fd5b3461025957604060031936011261025957612732612f33565b3373ffffffffffffffffffffffffffffffffffffffff82160361275b57610470906004356148d8565b608460405162461bcd60e51b815260206004820152602f60248201527f416363657373436f6e74726f6c3a2063616e206f6e6c792072656e6f756e636560448201527f20726f6c657320666f722073656c6600000000000000000000000000000000006064820152fd5b3461025957608051806003193601126102fa57602060405160128152f35b34610259576040600319360112610259576020612812612801612f10565b612809613925565b6024359061376a565b6040519015158152f35b34610259576040600319360112610259576128b760043560fb61283d612f33565b91806080515260209060c9825261285c600160406080512001546134b6565b6128668482614875565b806080515260c982526080519373ffffffffffffffffffffffffffffffffffffffff60408620911680955282528060805160ff604082205416156128be575b505060805152526040608051206147e9565b5060805180f35b5260c9825260805184604082209152825260805160408120600160ff1982541617905584827f2f8788117e7eff1d82e926ec794901d17c78024a50270940304540a733656f0d339380a480866128a5565b3461025957610160806003193601126102595761292a612f33565b90612933613925565b61293b61315d565b73ffffffffffffffffffffffffffffffffffffffff6040519216602083015260443560408301526064356060830152608435608083015260a43560a083015260c43560c083015260e43560e083015261010435610100830152610124356101208301526101406101443581840152825281019080821067ffffffffffffffff831117610f0c576128b791604052600435613dfc565b34610259576020600319360112610259576004356080515260c9602052602060016040608051200154604051908152f35b3461025957606060031936011261025957612a1a612f10565b50612a23612f33565b50606460405162461bcd60e51b815260206004820152601c60248201527f6c4e4f52493a207472616e7366657246726f6d2064697361626c6564000000006044820152fd5b34610259576040600319360112610259576020612812612a86612f10565b612a8e613925565b60243590613975565b3461025957608051806003193601126102fa576020603454604051908152f35b346102595760208060031936011261025957612ad1612f10565b73ffffffffffffffffffffffffffffffffffffffff8116806080515261015f835260406080512090604051907f70a0823100000000000000000000000000000000000000000000000000000000825260048201528381602481305afa9081156107805760805191612bb6575b509160ff600f83015416612b56575b5050604051908152f35b612b61919250614295565b15612b9d57612b8e90600d612b764283614679565b600c83015480821015612b955750915b015490613b32565b8280612b4c565b905091612b86565b80600d600c612bb193015491015490613b32565b612b8e565b90508381813d8311612bdc575b612bcd8183612ff1565b81010312610259575184612b3d565b503d612bc3565b3461025957604060031936011261025957612bfc612f10565b50612c05613925565b606460405162461bcd60e51b815260206004820152602060248201527f6c4e4f52493a206f70657261746f7220616374696f6e732064697361626c65646044820152fd5b3461025957608051806003193601126102fa5760405190603554612c6c81614a62565b80845290600190818116908115611ee65750600114612c9557611e8584611e7181860382612ff1565b60808051603590525192507fcfa4bec1d3298408bb5afcfcd9c430549c5b31f8aa5c5848151c0a55f473c34d5b828410612cda575050508101602001611e7182611e61565b80546020858701810191909152909301928101612cc2565b3461025957608051806003193601126102fa5760405180603754808352602080930180916037608051527f42a7b7dd785cd69714a189dffb3fd7d7174edc9ece837694ce50f7078f7c31ae906080515b86828210612daf578686612d5882880383612ff1565b60405192839281840190828552518091526040840192916080515b828110612d8257505050500390f35b835173ffffffffffffffffffffffffffffffffffffffff1685528695509381019392810192600101612d73565b835473ffffffffffffffffffffffffffffffffffffffff1685529093019260019283019201612d42565b3461021a57602060031936011261021a57600435907fffffffff00000000000000000000000000000000000000000000000000000000821680920361021a57817f5a05180f0000000000000000000000000000000000000000000000000000000060209314908115612e4d575b5015158152f35b7f7965db0b00000000000000000000000000000000000000000000000000000000811491508115612e80575b5083612e46565b7f01ffc9a70000000000000000000000000000000000000000000000000000000091501483612e79565b60005b838110612ebd5750506000910152565b8181015183820152602001612ead565b907fffffffffffffffffffffffffffffffffffffffffffffffffffffffffffffffe0601f602093612f0981518092818752878088019101612eaa565b0116010190565b6004359073ffffffffffffffffffffffffffffffffffffffff8216820361021a57565b6024359073ffffffffffffffffffffffffffffffffffffffff8216820361021a57565b67ffffffffffffffff8111612f6a57604052565b634e487b7160e01b600052604160045260246000fd5b610200810190811067ffffffffffffffff821117612f6a57604052565b6020810190811067ffffffffffffffff821117612f6a57604052565b6040810190811067ffffffffffffffff821117612f6a57604052565b6080810190811067ffffffffffffffff821117612f6a57604052565b90601f7fffffffffffffffffffffffffffffffffffffffffffffffffffffffffffffffe0910116810190811067ffffffffffffffff821117612f6a57604052565b67ffffffffffffffff8111612f6a5760051b60200190565b92919267ffffffffffffffff8211612f6a576040519161309260207fffffffffffffffffffffffffffffffffffffffffffffffffffffffffffffffe0601f8401160184612ff1565b82948184528183011161021a578281602093846000960137010152565b9080601f8301121561021a578160206130ca9335910161304a565b90565b503461021a57602060031936011261021a576130e7612f10565b50606460405162461bcd60e51b815260206004820152602060248201527f6c4e4f52493a206f70657261746f7220616374696f6e732064697361626c65646044820152fd5b9181601f8401121561021a5782359167ffffffffffffffff831161021a576020808501948460051b01011161021a57565b3360009081527f38e71761b954262a9560bd5d5724383b6db3c254761096eb4ce389ed02050c60602090815260408083205490927fa52f07bb8dc8df886598eb50edeaba2b8e45715237ed244354b60ea04d0390b89160ff16156131c15750505050565b6131ca3361361e565b918451906131d782612fd5565b6042825284820192606036853782511561334a576030845382519060019182101561334a5790607860218501536041915b8183116132cf5750505061328d5760486125c79386936132719361326298519889937f416363657373436f6e74726f6c3a206163636f756e74200000000000000000008a860152612562815180928c603789019101612eaa565b01036028810187520185612ff1565b5192839262461bcd60e51b845260048401526024830190612ecd565b60648486519062461bcd60e51b825280600483015260248201527f537472696e67733a20686578206c656e67746820696e73756666696369656e746044820152fd5b909192600f81166010811015613336577f3031323334353637383961626364656600000000000000000000000000000000901a61330c85876135f7565b5360041c92801561332257600019019190613208565b602482634e487b7160e01b81526011600452fd5b602483634e487b7160e01b81526032600452fd5b80634e487b7160e01b602492526032600452fd5b3360009081527f69740cd0ab091be8193e004660c49ef128fdf47ef95c5cc8c747e37ac0379df8602090815260408083205490927f65d7a28e3265b37a6474929f336521b332c1681b933f6cb9f3376673440d862a9160ff16156133c25750505050565b6133cb3361361e565b918451906133d882612fd5565b6042825284820192606036853782511561334a576030845382519060019182101561334a5790607860218501536041915b8183116134635750505061328d5760486125c79386936132719361326298519889937f416363657373436f6e74726f6c3a206163636f756e74200000000000000000008a860152612562815180928c603789019101612eaa565b909192600f81166010811015613336577f3031323334353637383961626364656600000000000000000000000000000000901a6134a085876135f7565b5360041c92801561332257600019019190613409565b60009080825260209060c98252604092838120338252835260ff8482205416156134e05750505050565b6134e93361361e565b918451906134f682612fd5565b6042825284820192606036853782511561334a576030845382519060019182101561334a5790607860218501536041915b8183116135815750505061328d5760486125c79386936132719361326298519889937f416363657373436f6e74726f6c3a206163636f756e74200000000000000000008a860152612562815180928c603789019101612eaa565b909192600f81166010811015613336577f3031323334353637383961626364656600000000000000000000000000000000901a6135be85876135f7565b5360041c92801561332257600019019190613527565b919082018092116135e157565b634e487b7160e01b600052601160045260246000fd5b908151811015613608570160200190565b634e487b7160e01b600052603260045260246000fd5b604051906060820182811067ffffffffffffffff821117612f6a57604052602a82526020820160403682378251156136085760309053815160019081101561360857607860218401536029905b8082116136bf57505061367b5790565b606460405162461bcd60e51b815260206004820152602060248201527f537472696e67733a20686578206c656e67746820696e73756666696369656e746044820152fd5b9091600f81166010811015613725577f3031323334353637383961626364656600000000000000000000000000000000901a6136fb84866135f7565b5360041c91801561371057600019019061366b565b60246000634e487b7160e01b81526011600452fd5b60246000634e487b7160e01b81526032600452fd5b80548210156136085760005260206000200190600090565b9081602091031261021a5751801515810361021a5790565b90600073ffffffffffffffffffffffffffffffffffffffff91828416825260209361015f855260409360ff600f868620015416156138bc576101605485517f23b872dd00000000000000000000000000000000000000000000000000000000815233600482015230602482015260448101859052918791839160649183918991165af19081156138b2578491613895575b506138695760848585519062461bcd60e51b82526004820152602b60248201527f6c4e4f52493a207472616e7366657246726f6d20756e6465726c79696e67206160448201527f73736574206661696c65640000000000000000000000000000000000000000006064820152fd5b83516138909550929361387b84612f9d565b848452519361388985612f9d565b8452614ab3565b600190565b6138ac9150863d88116107795761076a8183612ff1565b386137fb565b85513d86823e3d90fd5b60848686519062461bcd60e51b82526004820152602560248201527f6c4e4f52493a2043616e6e6f74206465706f73697420776974686f757420612060448201527f6772616e740000000000000000000000000000000000000000000000000000006064820152fd5b60ff6065541661393157565b606460405162461bcd60e51b815260206004820152601060248201527f5061757361626c653a20706175736564000000000000000000000000000000006044820152fd5b60009133835260209261015f8452604092600d8483206139b2865161399981612f9d565b8581528751906139a882612f9d565b8682528733614fc6565b016139be8482546135d4565b90556101605484517fa9059cbb00000000000000000000000000000000000000000000000000000000815273ffffffffffffffffffffffffffffffffffffffff8381166004830152602482018690529391879082906044908290869089165af1918215613ae75791613aca575b50613a995760848585519062461bcd60e51b82526004820152602a60248201527f6c4e4f52493a205472616e7366657220746f20756e6465726c79696e6720617360448201527f736574206661696c6564000000000000000000000000000000000000000000006064820152fd5b7fa86305abc2db271df4609aa86a8d044bc11fb36939841bfdad6c1ab2b26e947192935193845216923392a3600190565b613ae19150863d88116107795761076a8183612ff1565b38613a2b565b8651903d90823e3d90fd5b91908110156136085760051b0190565b60001981146135e15760010190565b3573ffffffffffffffffffffffffffffffffffffffff8116810361021a5790565b919082039182116135e157565b60405190613b4c82612f80565b816101e06000918281528260208201528260408201528260608201528260808201528260a08201528260c08201528260e08201528261010082015282610120820152826101408201528261016082015282610180820152826101a0820152826101c08201520152565b80518210156136085760209160051b010190565b613bd1613b3f565b5060009073ffffffffffffffffffffffffffffffffffffffff8116825261015f602052604082208091600c820154936006830154906001908185015491600786015490600987019183805282602052604084205482855260408520549185805260038a0160205283604087200154938087528060408820015495878052602052806040882001549681815260409020015496600d8b015498600e8c01549a60108d01549c601101549d600f015460ff169e6040518060a052613c9290612f80565b60a0515273ffffffffffffffffffffffffffffffffffffffff1660a0516020015260a0516040015260a0516060015260a0516080015260a05160a0015260a05160c0015260a05160e0015260a051610100015260a051610120015260a051610140015260a051610160015260a051610180015260a0516101a0015260a0516101c00152151560a0516101e0015260a05190565b15613d2c57565b608460405162461bcd60e51b815260206004820152602b60248201527f496e697469616c697a61626c653a20636f6e7472616374206973206e6f74206960448201527f6e697469616c697a696e670000000000000000000000000000000000000000006064820152fd5b50606460405162461bcd60e51b815260206004820152601c60248201527f6c4e4f52493a206275726e696e67206e6f7420737570706f72746564000000006044820152fd5b519073ffffffffffffffffffffffffffffffffffffffff8216820361021a57565b61014091828180518101031261021a5760409182519284840184811067ffffffffffffffff821117612f6a578152602090613e38828501613ddb565b9586865281850151928087019384526060860151958388019687526080810151926060890193845260a082015160808a019081528960c08401519160a0820192835260e08501519460c0830195865261010094858201519160e08501928352610120968782015195019485520151948d0194855273ffffffffffffffffffffffffffffffffffffffff809e161561422c578d8d51166000907fa52f07bb8dc8df886598eb50edeaba2b8e45715237ed244354b60ea04d0390b8825260c989528a8220908252885260ff8a822054166141c3578a518951111561415a5788514210156140f1578e8e5116815261015f80895260ff600f8c84200154166140ae57908f918f928c9351168252895220958b600c8801558b600e880155600f8701600160ff198254161790558c518b5110613fde575b505091613fbc613fc59492869460067f17161516b6ce34594617177a800b150a86ddee02c06993a73ef000a02367d1199b9a999801958d60088201558c51875560078a519101555190519085614406565b51905191614406565b88885116945196519151908351928352820152a4511690565b80518451118015906140a2575b156140605792869492614052613fbc938f8f978f917f17161516b6ce34594617177a800b150a86ddee02c06993a73ef000a02367d1199f9e9d9c92613fc59c9a6002614047950155518b555160018b015584519051908a614406565b855190519088614406565b929496979899509294613f6b565b6064888b519062461bcd60e51b825280600483015260248201527f6c4e4f52493a20756e6c6f636b20636c696666203e207665737420636c6966666044820152fd5b50815186511115613feb565b6064898c519062461bcd60e51b82526004820152601b60248201527f6c4e4f52493a204772616e7420616c72656164792065786973747300000000006044820152fd5b6084888b519062461bcd60e51b82526004820152602a60248201527f6c4e4f52493a20756e6c6f636b456e6454696d652063616e6e6f74206265206960448201527f6e207468652070617374000000000000000000000000000000000000000000006064820152fd5b6084888b519062461bcd60e51b82526004820152602f60248201527f6c4e4f52493a20756e6c6f636b456e6454696d652063616e6e6f74206265206260448201527f65666f726520737461727454696d6500000000000000000000000000000000006064820152fd5b6084888b519062461bcd60e51b82526004820152602660248201527f6c4e4f52493a20526563697069656e742063616e6e6f74206265206772616e7460448201527f2061646d696e00000000000000000000000000000000000000000000000000006064820152fd5b6084878a519062461bcd60e51b82526004820152602760248201527f6c4e4f52493a20526563697069656e742063616e6e6f74206265207a65726f2060448201527f61646472657373000000000000000000000000000000000000000000000000006064820152fd5b73ffffffffffffffffffffffffffffffffffffffff1660005261015f602052604060002060ff600f8201541690816142cb575090565b905054151590565b9073ffffffffffffffffffffffffffffffffffffffff82169060009082825261015f6020526040822092604051907f70a082310000000000000000000000000000000000000000000000000000000082526004820152602081602481305afa80156143fb5783906143c4575b61434a915094614295565b156143b9576143598184614679565b905b60ff600f8501541661436f575b5050505090565b6143a8945090614385600d939260068601614679565b808210156143b15750905b50600c83015480821015612b95575091015490613b32565b38808080614368565b905090614390565b600c8301549061435b565b506020813d82116143f3575b816143dd60209383612ff1565b810103126143ef5761434a905161433f565b8280fd5b3d91506143d0565b6040513d85823e3d90fd5b9092916004938483019081549384156000146145d7578054821061456d575b600181015482116145035760058101946144408587546135d4565b60028301541061449957916003600192869460005201602052604060002090815501558054906001820180921161448457614480939495505582546135d4565b9055565b601186634e487b7160e01b6000525260246000fd5b60848860206040519162461bcd60e51b8352820152602960248201527f4c6f636b65644e4f52494c69623a20436c69666620616d6f756e74732065786360448201527f65656420746f74616c00000000000000000000000000000000000000000000006064820152fd5b60848760206040519162461bcd60e51b8352820152602f60248201527f4c6f636b65644e4f52494c69623a20436c696666732063616e6e6f7420656e6460448201527f206166746572207363686564756c6500000000000000000000000000000000006064820152fd5b60848760206040519162461bcd60e51b8352820152602a60248201527f4c6f636b65644e4f52494c69623a20436c696666206265666f7265207363686560448201527f64756c65207374617274000000000000000000000000000000000000000000006064820152fd5b600019850185811161466457600052600381016020526040600020548210156144255760848760206040519162461bcd60e51b8352820152602760248201527f4c6f636b65644e4f52494c69623a20436c69666673206e6f74206368726f6e6f60448201527f6c6f676963616c000000000000000000000000000000000000000000000000006064820152fd5b601188634e487b7160e01b6000525260246000fd5b9060006004830154815b8181106146ba57505082916146ac9160026130ca950154908082106000146146b2575092614700565b906135d4565b905092614700565b8060005260038501602052604080600020548510156146e3575b506146de90613b02565b614683565b6146de919360016146f9926000200154906135d4565b92906146d4565b6000906002810154600582015490818110156147d6575b50506001810154808410156147cf57815491600481015490816147a4575b50508161474191613b32565b9260009180821015614757575050505050600090565b61476091613b32565b9182810292818404149015171561479057821561477c57500490565b80634e487b7160e01b602492526012600452fd5b80634e487b7160e01b602492526011600452fd5b9091925060001982019182116135e15760039160005201602052614741604060002054919038614735565b5050905090565b6147e1929350613b32565b903880614717565b9190600183016000908282528060205260408220541560001461486f578454946801000000000000000086101561485b578361484b614832886001604098999a0185558461373a565b819391549060031b600019811b9283911b169119161790565b9055549382526020522055600190565b602483634e487b7160e01b81526041600452fd5b50925050565b7fa52f07bb8dc8df886598eb50edeaba2b8e45715237ed244354b60ea04d0390b89061489f613925565b146148a75750565b73ffffffffffffffffffffffffffffffffffffffff1660005261015f60205260ff600f6040600020015416610dfe57565b90604061492e926148e98382614875565b60009080825260c960205273ffffffffffffffffffffffffffffffffffffffff83832094169384835260205260ff8383205416614931575b815260fb60205220614979565b50565b80825260c960205282822084835260205282822060ff1981541690553384827ff6391f5c32d9c69d2a47ea670b442974b53935d1edc7fd64eb21e047a839171b8580a4614921565b906001820190600092818452826020526040842054908115156000146143685760001991828101818111614a4e57825490848201918211614a3a57808203614a05575b505050805480156149f1578201916149d4838361373a565b909182549160031b1b191690555582526020526040812055600190565b602486634e487b7160e01b81526031600452fd5b614a25614a15614832938661373a565b90549060031b1c9283928661373a565b905586528460205260408620553880806149bc565b602488634e487b7160e01b81526011600452fd5b602487634e487b7160e01b81526011600452fd5b90600182811c92168015614a92575b6020831014614a7c57565b634e487b7160e01b600052602260045260246000fd5b91607f1691614a71565b818110614aa7575050565b60008155600101614a9c565b93929360009173ffffffffffffffffffffffffffffffffffffffff91828116948515614f0c5784805261015f916020948386526040938488209085517f70a082310000000000000000000000000000000000000000000000000000000081528960048201528881602481305afa8015614f0257908991614ed5575b5050888052875284882060ff600f820154169081614eca575b5015614ebf57614b574282614679565b905b60ff600f82015416614e7d575b505086805260338652614b77613925565b614b83856034546135d4565b60345587875260338652838720614b9b8682546135d4565b905583517faabbb8ca0000000000000000000000000000000000000000000000000000000081528860048201527fb281fc8c12954d22544db45de3159a39272895b169a852b314f9cc762e44c53b60248201528681604481731820a4b7618bde71dce8cdc73aab6c95905fad245afa908115614e73578891614e3a575b5016908115614d4b5750803b15614d47578589614c9892898387518096819582947e23de2900000000000000000000000000000000000000000000000000000000845233600485015284602485015260448401528b606484015260c06084840152614c8660c484018b612ecd565b906003198483030160a4850152612ecd565b03925af18015614d3d57614d0c575b50947fddf252ad1be2c89b69c2b068fc378daa952ba7f163c4a11628f55a4df523b3ef94957f2fe5be0146f74c5bce36c0b80911af6c7d86ff27e89d5cfa61fc681327954e5d614d0283999a5b855191829133958984614f50565b0390a351908152a3565b67ffffffffffffffff8199969911614d2957825293969385614ca7565b602489634e487b7160e01b81526041600452fd5b83513d88823e3d90fd5b8580fd5b90509790919293949596973b614dab577fddf252ad1be2c89b69c2b068fc378daa952ba7f163c4a11628f55a4df523b3ef949392917f2fe5be0146f74c5bce36c0b80911af6c7d86ff27e89d5cfa61fc681327954e5d614d028993614cf4565b60a48584519062461bcd60e51b82526004820152604d60248201527f4552433737373a20746f6b656e20726563697069656e7420636f6e747261637460448201527f20686173206e6f20696d706c656d656e74657220666f7220455243373737546f60648201527f6b656e73526563697069656e74000000000000000000000000000000000000006084820152fd5b90508681813d8311614e6c575b614e518183612ff1565b81010312614e6857614e6290613ddb565b38614c18565b8780fd5b503d614e47565b85513d8a823e3d90fd5b600d614eb092614e904260068501614679565b80821015614eb85750600c83015480821015612b95575091015490613b32565b503880614b66565b9050612b76565b600c81015490614b59565b905054151538614b47565b813d8311614efb575b614ee88183612ff1565b81010312614ef7578738614b2e565b8880fd5b503d614ede565b87513d8c823e3d90fd5b606460405162461bcd60e51b815260206004820152602060248201527f4552433737373a206d696e7420746f20746865207a65726f20616464726573736044820152fd5b91614f6d906130ca94928452606060208501526060840190612ecd565b916040818403910152612ecd565b15614f8257565b606460405162461bcd60e51b815260206004820152601b60248201527f6c4e4f52493a20696e73756666696369656e742062616c616e636500000000006044820152fd5b91929073ffffffffffffffffffffffffffffffffffffffff831692831561518b576000947fa52f07bb8dc8df886598eb50edeaba2b8e45715237ed244354b60ea04d0390b8865260209360c98552604092838820338952865260ff848920541690615036883314159142906142d3565b86111590888a5260338852858a20548711159281615183575b50156151665750508587526033855261506d84848920541015614f7b565b615075613925565b85875260338552828720548481106150fd57917fa78a9be3a7b862d26933ad85fb11d80ef66b8f972d7cbba06621d583943a4098614d028893877fddf252ad1be2c89b69c2b068fc378daa952ba7f163c4a11628f55a4df523b3ef99989796868d5260338a5203868c20556150ec87603454613b32565b603455855191829133958984614f50565b60848685519062461bcd60e51b82526004820152602360248201527f4552433737373a206275726e20616d6f756e7420657863656564732062616c6160448201527f6e636500000000000000000000000000000000000000000000000000000000006064820152fd5b615176918161517b575b50614f7b565b61506d565b905038615170565b90503861504f565b608460405162461bcd60e51b815260206004820152602260248201527f4552433737373a206275726e2066726f6d20746865207a65726f20616464726560448201527f73730000000000000000000000000000000000000000000000000000000000006064820152fdfea264697066735822122019af1362ff251902552bc2bc0186c595e611bac30eac729b2502d0c89600819e64736f6c63430008110033"
}