{
  "address": "0xCdcB43CB7B668F0C1cA04FE4b60DA7F8C62Be393",
  "abi": [
    {
      "inputs": [],
      "stateMutability": "nonpayable",
      "type": "constructor"
    },
    {
      "anonymous": false,
      "inputs": [
        {
          "indexed": true,
          "internalType": "address",
          "name": "owner",
          "type": "address"
        },
        {
          "indexed": true,
          "internalType": "address",
          "name": "spender",
          "type": "address"
        },
        {
          "indexed": false,
          "internalType": "uint256",
          "name": "value",
          "type": "uint256"
        }
      ],
      "name": "Approval",
      "type": "event"
    },
    {
      "anonymous": false,
      "inputs": [
        {
          "indexed": true,
          "internalType": "address",
          "name": "operator",
          "type": "address"
        },
        {
          "indexed": true,
          "internalType": "address",
          "name": "tokenHolder",
          "type": "address"
        }
      ],
      "name": "AuthorizedOperator",
      "type": "event"
    },
    {
      "anonymous": false,
      "inputs": [
        {
          "indexed": true,
          "internalType": "address",
          "name": "operator",
          "type": "address"
        },
        {
          "indexed": true,
          "internalType": "address",
          "name": "from",
          "type": "address"
        },
        {
          "indexed": false,
          "internalType": "uint256",
          "name": "amount",
          "type": "uint256"
        },
        {
          "indexed": false,
          "internalType": "bytes",
          "name": "data",
          "type": "bytes"
        },
        {
          "indexed": false,
          "internalType": "bytes",
          "name": "operatorData",
          "type": "bytes"
        }
      ],
      "name": "Burned",
      "type": "event"
    },
    {
      "anonymous": false,
      "inputs": [
        {
          "indexed": false,
          "internalType": "uint8",
          "name": "version",
          "type": "uint8"
        }
      ],
      "name": "Initialized",
      "type": "event"
    },
    {
      "anonymous": false,
      "inputs": [
        {
          "indexed": true,
          "internalType": "address",
          "name": "operator",
          "type": "address"
        },
        {
          "indexed": true,
          "internalType": "address",
          "name": "to",
          "type": "address"
        },
        {
          "indexed": false,
          "internalType": "uint256",
          "name": "amount",
          "type": "uint256"
        },
        {
          "indexed": false,
          "internalType": "bytes",
          "name": "data",
          "type": "bytes"
        },
        {
          "indexed": false,
          "internalType": "bytes",
          "name": "operatorData",
          "type": "bytes"
        }
      ],
      "name": "Minted",
      "type": "event"
    },
    {
      "anonymous": false,
      "inputs": [
        {
          "indexed": false,
          "internalType": "address",
          "name": "account",
          "type": "address"
        }
      ],
      "name": "Paused",
      "type": "event"
    },
    {
      "anonymous": false,
      "inputs": [
        {
          "indexed": true,
          "internalType": "address",
          "name": "operator",
          "type": "address"
        },
        {
          "indexed": true,
          "internalType": "address",
          "name": "tokenHolder",
          "type": "address"
        }
      ],
      "name": "RevokedOperator",
      "type": "event"
    },
    {
      "anonymous": false,
      "inputs": [
        {
          "indexed": true,
          "internalType": "bytes32",
          "name": "role",
          "type": "bytes32"
        },
        {
          "indexed": true,
          "internalType": "bytes32",
          "name": "previousAdminRole",
          "type": "bytes32"
        },
        {
          "indexed": true,
          "internalType": "bytes32",
          "name": "newAdminRole",
          "type": "bytes32"
        }
      ],
      "name": "RoleAdminChanged",
      "type": "event"
    },
    {
      "anonymous": false,
      "inputs": [
        {
          "indexed": true,
          "internalType": "bytes32",
          "name": "role",
          "type": "bytes32"
        },
        {
          "indexed": true,
          "internalType": "address",
          "name": "account",
          "type": "address"
        },
        {
          "indexed": true,
          "internalType": "address",
          "name": "sender",
          "type": "address"
        }
      ],
      "name": "RoleGranted",
      "type": "event"
    },
    {
      "anonymous": false,
      "inputs": [
        {
          "indexed": true,
          "internalType": "bytes32",
          "name": "role",
          "type": "bytes32"
        },
        {
          "indexed": true,
          "internalType": "address",
          "name": "account",
          "type": "address"
        },
        {
          "indexed": true,
          "internalType": "address",
          "name": "sender",
          "type": "address"
        }
      ],
      "name": "RoleRevoked",
      "type": "event"
    },
    {
      "anonymous": false,
      "inputs": [
        {
          "indexed": true,
          "internalType": "address",
          "name": "operator",
          "type": "address"
        },
        {
          "indexed": true,
          "internalType": "address",
          "name": "from",
          "type": "address"
        },
        {
          "indexed": true,
          "internalType": "address",
          "name": "to",
          "type": "address"
        },
        {
          "indexed": false,
          "internalType": "uint256",
          "name": "amount",
          "type": "uint256"
        },
        {
          "indexed": false,
          "internalType": "bytes",
          "name": "data",
          "type": "bytes"
        },
        {
          "indexed": false,
          "internalType": "bytes",
          "name": "operatorData",
          "type": "bytes"
        }
      ],
      "name": "Sent",
      "type": "event"
    },
    {
      "anonymous": false,
      "inputs": [
        {
          "indexed": true,
          "internalType": "address",
          "name": "from",
          "type": "address"
        },
        {
          "indexed": false,
          "internalType": "address[]",
          "name": "recipients",
          "type": "address[]"
        },
        {
          "indexed": false,
          "internalType": "uint256[]",
          "name": "amounts",
          "type": "uint256[]"
        },
        {
          "indexed": false,
          "internalType": "bytes[]",
          "name": "userData",
          "type": "bytes[]"
        },
        {
          "indexed": false,
          "internalType": "bytes[]",
          "name": "operatorData",
          "type": "bytes[]"
        },
        {
          "indexed": false,
          "internalType": "bool[]",
          "name": "requireReceptionAck",
          "type": "bool[]"
        }
      ],
      "name": "SentBatch",
      "type": "event"
    },
    {
      "anonymous": false,
      "inputs": [
        {
          "indexed": true,
          "internalType": "address",
          "name": "recipient",
          "type": "address"
        },
        {
          "indexed": true,
          "internalType": "uint256",
          "name": "amount",
          "type": "uint256"
        },
        {
          "indexed": true,
          "internalType": "uint256",
          "name": "startTime",
          "type": "uint256"
        },
        {
          "indexed": false,
          "internalType": "uint256",
          "name": "vestEndTime",
          "type": "uint256"
        },
        {
          "indexed": false,
          "internalType": "uint256",
          "name": "unlockEndTime",
          "type": "uint256"
        }
      ],
      "name": "TokenGrantCreated",
      "type": "event"
    },
    {
      "anonymous": false,
      "inputs": [
        {
          "indexed": false,
          "internalType": "uint256",
          "name": "totalAmount",
          "type": "uint256"
        }
      ],
      "name": "TokenGrantCreatedBatch",
      "type": "event"
    },
    {
      "anonymous": false,
      "inputs": [
        {
          "indexed": true,
          "internalType": "address",
          "name": "from",
          "type": "address"
        },
        {
          "indexed": true,
          "internalType": "address",
          "name": "to",
          "type": "address"
        },
        {
          "indexed": false,
          "internalType": "uint256",
          "name": "quantity",
          "type": "uint256"
        }
      ],
      "name": "TokensClaimed",
      "type": "event"
    },
    {
      "anonymous": false,
      "inputs": [
        {
          "indexed": true,
          "internalType": "address",
          "name": "from",
          "type": "address"
        },
        {
          "indexed": true,
          "internalType": "address",
          "name": "to",
          "type": "address"
        },
        {
          "indexed": false,
          "internalType": "uint256",
          "name": "value",
          "type": "uint256"
        }
      ],
      "name": "Transfer",
      "type": "event"
    },
    {
      "anonymous": false,
      "inputs": [
        {
          "indexed": false,
          "internalType": "address",
          "name": "from",
          "type": "address"
        },
        {
          "indexed": false,
          "internalType": "address",
          "name": "to",
          "type": "address"
        }
      ],
      "name": "UnderlyingTokenAddressUpdated",
      "type": "event"
    },
    {
      "anonymous": false,
      "inputs": [
        {
          "indexed": false,
          "internalType": "address",
          "name": "account",
          "type": "address"
        }
      ],
      "name": "Unpaused",
      "type": "event"
    },
    {
      "anonymous": false,
      "inputs": [
        {
          "indexed": true,
          "internalType": "uint256",
          "name": "atTime",
          "type": "uint256"
        },
        {
          "indexed": true,
          "internalType": "address",
          "name": "from",
          "type": "address"
        },
        {
          "indexed": true,
          "internalType": "uint256",
          "name": "quantity",
          "type": "uint256"
        }
      ],
      "name": "UnvestedTokensRevoked",
      "type": "event"
    },
    {
      "inputs": [],
      "name": "DEFAULT_ADMIN_ROLE",
      "outputs": [
        {
          "internalType": "bytes32",
          "name": "",
          "type": "bytes32"
        }
      ],
      "stateMutability": "view",
      "type": "function"
    },
    {
      "inputs": [],
      "name": "ERC777_TOKENS_RECIPIENT_HASH",
      "outputs": [
        {
          "internalType": "bytes32",
          "name": "",
          "type": "bytes32"
        }
      ],
      "stateMutability": "view",
      "type": "function"
    },
    {
      "inputs": [],
      "name": "PAUSER_ROLE",
      "outputs": [
        {
          "internalType": "bytes32",
          "name": "",
          "type": "bytes32"
        }
      ],
      "stateMutability": "view",
      "type": "function"
    },
    {
      "inputs": [],
      "name": "TOKEN_GRANTER_ROLE",
      "outputs": [
        {
          "internalType": "bytes32",
          "name": "",
          "type": "bytes32"
        }
      ],
      "stateMutability": "view",
      "type": "function"
    },
    {
      "inputs": [
        {
          "internalType": "address",
          "name": "holder",
          "type": "address"
        },
        {
          "internalType": "address",
          "name": "spender",
          "type": "address"
        }
      ],
      "name": "allowance",
      "outputs": [
        {
          "internalType": "uint256",
          "name": "",
          "type": "uint256"
        }
      ],
      "stateMutability": "view",
      "type": "function"
    },
    {
      "inputs": [
        {
          "internalType": "address",
          "name": "spender",
          "type": "address"
        },
        {
          "internalType": "uint256",
          "name": "value",
          "type": "uint256"
        }
      ],
      "name": "approve",
      "outputs": [
        {
          "internalType": "bool",
          "name": "",
          "type": "bool"
        }
      ],
      "stateMutability": "nonpayable",
      "type": "function"
    },
    {
      "inputs": [
        {
          "internalType": "address",
          "name": "operator",
          "type": "address"
        }
      ],
      "name": "authorizeOperator",
      "outputs": [],
      "stateMutability": "nonpayable",
      "type": "function"
    },
    {
      "inputs": [
        {
          "internalType": "address",
          "name": "tokenHolder",
          "type": "address"
        }
      ],
      "name": "balanceOf",
      "outputs": [
        {
          "internalType": "uint256",
          "name": "",
          "type": "uint256"
        }
      ],
      "stateMutability": "view",
      "type": "function"
    },
    {
      "inputs": [
        {
          "internalType": "address[]",
          "name": "accounts",
          "type": "address[]"
        }
      ],
      "name": "balanceOfBatch",
      "outputs": [
        {
          "internalType": "uint256[]",
          "name": "",
          "type": "uint256[]"
        }
      ],
      "stateMutability": "view",
      "type": "function"
    },
    {
      "inputs": [
        {
          "internalType": "uint256[]",
          "name": "amounts",
          "type": "uint256[]"
        },
        {
          "internalType": "bytes[]",
          "name": "grantParams",
          "type": "bytes[]"
        },
        {
          "internalType": "uint256",
          "name": "deadline",
          "type": "uint256"
        },
        {
          "internalType": "uint8",
          "name": "v",
          "type": "uint8"
        },
        {
          "internalType": "bytes32",
          "name": "r",
          "type": "bytes32"
        },
        {
          "internalType": "bytes32",
          "name": "s",
          "type": "bytes32"
        }
      ],
      "name": "batchCreateGrants",
      "outputs": [],
      "stateMutability": "nonpayable",
      "type": "function"
    },
    {
      "inputs": [
        {
          "internalType": "address[]",
          "name": "accounts",
          "type": "address[]"
        }
      ],
      "name": "batchGetGrant",
      "outputs": [
        {
          "components": [
            {
              "internalType": "uint256",
              "name": "grantAmount",
              "type": "uint256"
            },
            {
              "internalType": "address",
              "name": "recipient",
              "type": "address"
            },
            {
              "internalType": "uint256",
              "name": "startTime",
              "type": "uint256"
            },
            {
              "internalType": "uint256",
              "name": "vestEndTime",
              "type": "uint256"
            },
            {
              "internalType": "uint256",
              "name": "unlockEndTime",
              "type": "uint256"
            },
            {
              "internalType": "uint256",
              "name": "cliff1Time",
              "type": "uint256"
            },
            {
              "internalType": "uint256",
              "name": "cliff2Time",
              "type": "uint256"
            },
            {
              "internalType": "uint256",
              "name": "vestCliff1Amount",
              "type": "uint256"
            },
            {
              "internalType": "uint256",
              "name": "vestCliff2Amount",
              "type": "uint256"
            },
            {
              "internalType": "uint256",
              "name": "unlockCliff1Amount",
              "type": "uint256"
            },
            {
              "internalType": "uint256",
              "name": "unlockCliff2Amount",
              "type": "uint256"
            },
            {
              "internalType": "uint256",
              "name": "claimedAmount",
              "type": "uint256"
            },
            {
              "internalType": "uint256",
              "name": "originalAmount",
              "type": "uint256"
            },
            {
              "internalType": "uint256",
              "name": "lastRevocationTime",
              "type": "uint256"
            },
            {
              "internalType": "uint256",
              "name": "lastQuantityRevoked",
              "type": "uint256"
            },
            {
              "internalType": "bool",
              "name": "exists",
              "type": "bool"
            }
          ],
          "internalType": "struct LockedNORI.TokenGrantDetail[]",
          "name": "",
          "type": "tuple[]"
        }
      ],
      "stateMutability": "view",
      "type": "function"
    },
    {
      "inputs": [
        {
          "internalType": "address[]",
          "name": "fromAccounts",
          "type": "address[]"
        },
        {
          "internalType": "address[]",
          "name": "toAccounts",
          "type": "address[]"
        },
        {
          "internalType": "uint256[]",
          "name": "atTimes",
          "type": "uint256[]"
        },
        {
          "internalType": "uint256[]",
          "name": "amounts",
          "type": "uint256[]"
        }
      ],
      "name": "batchRevokeUnvestedTokenAmounts",
      "outputs": [],
      "stateMutability": "nonpayable",
      "type": "function"
    },
    {
      "inputs": [
        {
          "internalType": "address[]",
          "name": "recipients",
          "type": "address[]"
        },
        {
          "internalType": "uint256[]",
          "name": "amounts",
          "type": "uint256[]"
        },
        {
          "internalType": "bytes[]",
          "name": "userData",
          "type": "bytes[]"
        },
        {
          "internalType": "bytes[]",
          "name": "operatorData",
          "type": "bytes[]"
        },
        {
          "internalType": "bool[]",
          "name": "requireReceptionAck",
          "type": "bool[]"
        }
      ],
      "name": "batchSend",
      "outputs": [],
      "stateMutability": "nonpayable",
      "type": "function"
    },
    {
      "inputs": [
        {
          "internalType": "uint256",
          "name": "",
          "type": "uint256"
        },
        {
          "internalType": "bytes",
          "name": "",
          "type": "bytes"
        }
      ],
      "name": "burn",
      "outputs": [],
      "stateMutability": "pure",
      "type": "function"
    },
    {
      "inputs": [
        {
          "internalType": "uint256",
          "name": "amount",
          "type": "uint256"
        },
        {
          "internalType": "address",
          "name": "recipient",
          "type": "address"
        },
        {
          "internalType": "uint256",
          "name": "startTime",
          "type": "uint256"
        },
        {
          "internalType": "uint256",
          "name": "vestEndTime",
          "type": "uint256"
        },
        {
          "internalType": "uint256",
          "name": "unlockEndTime",
          "type": "uint256"
        },
        {
          "internalType": "uint256",
          "name": "cliff1Time",
          "type": "uint256"
        },
        {
          "internalType": "uint256",
          "name": "cliff2Time",
          "type": "uint256"
        },
        {
          "internalType": "uint256",
          "name": "vestCliff1Amount",
          "type": "uint256"
        },
        {
          "internalType": "uint256",
          "name": "vestCliff2Amount",
          "type": "uint256"
        },
        {
          "internalType": "uint256",
          "name": "unlockCliff1Amount",
          "type": "uint256"
        },
        {
          "internalType": "uint256",
          "name": "unlockCliff2Amount",
          "type": "uint256"
        }
      ],
      "name": "createGrant",
      "outputs": [],
      "stateMutability": "nonpayable",
      "type": "function"
    },
    {
      "inputs": [],
      "name": "decimals",
      "outputs": [
        {
          "internalType": "uint8",
          "name": "",
          "type": "uint8"
        }
      ],
      "stateMutability": "pure",
      "type": "function"
    },
    {
      "inputs": [],
      "name": "defaultOperators",
      "outputs": [
        {
          "internalType": "address[]",
          "name": "",
          "type": "address[]"
        }
      ],
      "stateMutability": "view",
      "type": "function"
    },
    {
      "inputs": [
        {
          "internalType": "address",
          "name": "recipient",
          "type": "address"
        },
        {
          "internalType": "uint256",
          "name": "amount",
          "type": "uint256"
        }
      ],
      "name": "depositFor",
      "outputs": [
        {
          "internalType": "bool",
          "name": "",
          "type": "bool"
        }
      ],
      "stateMutability": "nonpayable",
      "type": "function"
    },
    {
      "inputs": [
        {
          "internalType": "address",
          "name": "account",
          "type": "address"
        }
      ],
      "name": "getGrant",
      "outputs": [
        {
          "components": [
            {
              "internalType": "uint256",
              "name": "grantAmount",
              "type": "uint256"
            },
            {
              "internalType": "address",
              "name": "recipient",
              "type": "address"
            },
            {
              "internalType": "uint256",
              "name": "startTime",
              "type": "uint256"
            },
            {
              "internalType": "uint256",
              "name": "vestEndTime",
              "type": "uint256"
            },
            {
              "internalType": "uint256",
              "name": "unlockEndTime",
              "type": "uint256"
            },
            {
              "internalType": "uint256",
              "name": "cliff1Time",
              "type": "uint256"
            },
            {
              "internalType": "uint256",
              "name": "cliff2Time",
              "type": "uint256"
            },
            {
              "internalType": "uint256",
              "name": "vestCliff1Amount",
              "type": "uint256"
            },
            {
              "internalType": "uint256",
              "name": "vestCliff2Amount",
              "type": "uint256"
            },
            {
              "internalType": "uint256",
              "name": "unlockCliff1Amount",
              "type": "uint256"
            },
            {
              "internalType": "uint256",
              "name": "unlockCliff2Amount",
              "type": "uint256"
            },
            {
              "internalType": "uint256",
              "name": "claimedAmount",
              "type": "uint256"
            },
            {
              "internalType": "uint256",
              "name": "originalAmount",
              "type": "uint256"
            },
            {
              "internalType": "uint256",
              "name": "lastRevocationTime",
              "type": "uint256"
            },
            {
              "internalType": "uint256",
              "name": "lastQuantityRevoked",
              "type": "uint256"
            },
            {
              "internalType": "bool",
              "name": "exists",
              "type": "bool"
            }
          ],
          "internalType": "struct LockedNORI.TokenGrantDetail",
          "name": "",
          "type": "tuple"
        }
      ],
      "stateMutability": "view",
      "type": "function"
    },
    {
      "inputs": [
        {
          "internalType": "bytes32",
          "name": "role",
          "type": "bytes32"
        }
      ],
      "name": "getRoleAdmin",
      "outputs": [
        {
          "internalType": "bytes32",
          "name": "",
          "type": "bytes32"
        }
      ],
      "stateMutability": "view",
      "type": "function"
    },
    {
      "inputs": [
        {
          "internalType": "bytes32",
          "name": "role",
          "type": "bytes32"
        },
        {
          "internalType": "uint256",
          "name": "index",
          "type": "uint256"
        }
      ],
      "name": "getRoleMember",
      "outputs": [
        {
          "internalType": "address",
          "name": "",
          "type": "address"
        }
      ],
      "stateMutability": "view",
      "type": "function"
    },
    {
      "inputs": [
        {
          "internalType": "bytes32",
          "name": "role",
          "type": "bytes32"
        }
      ],
      "name": "getRoleMemberCount",
      "outputs": [
        {
          "internalType": "uint256",
          "name": "",
          "type": "uint256"
        }
      ],
      "stateMutability": "view",
      "type": "function"
    },
    {
      "inputs": [
        {
          "internalType": "bytes32",
          "name": "role",
          "type": "bytes32"
        },
        {
          "internalType": "address",
          "name": "account",
          "type": "address"
        }
      ],
      "name": "grantRole",
      "outputs": [],
      "stateMutability": "nonpayable",
      "type": "function"
    },
    {
      "inputs": [],
      "name": "granularity",
      "outputs": [
        {
          "internalType": "uint256",
          "name": "",
          "type": "uint256"
        }
      ],
      "stateMutability": "view",
      "type": "function"
    },
    {
      "inputs": [
        {
          "internalType": "bytes32",
          "name": "role",
          "type": "bytes32"
        },
        {
          "internalType": "address",
          "name": "account",
          "type": "address"
        }
      ],
      "name": "hasRole",
      "outputs": [
        {
          "internalType": "bool",
          "name": "",
          "type": "bool"
        }
      ],
      "stateMutability": "view",
      "type": "function"
    },
    {
      "inputs": [
        {
          "internalType": "contract BridgedPolygonNORI",
          "name": "bridgedPolygonNoriAddress",
          "type": "address"
        }
      ],
      "name": "initialize",
      "outputs": [],
      "stateMutability": "nonpayable",
      "type": "function"
    },
    {
      "inputs": [
        {
          "internalType": "address",
          "name": "operator",
          "type": "address"
        },
        {
          "internalType": "address",
          "name": "tokenHolder",
          "type": "address"
        }
      ],
      "name": "isOperatorFor",
      "outputs": [
        {
          "internalType": "bool",
          "name": "",
          "type": "bool"
        }
      ],
      "stateMutability": "view",
      "type": "function"
    },
    {
      "inputs": [],
      "name": "name",
      "outputs": [
        {
          "internalType": "string",
          "name": "",
          "type": "string"
        }
      ],
      "stateMutability": "view",
      "type": "function"
    },
    {
      "inputs": [
        {
          "internalType": "address",
          "name": "",
          "type": "address"
        },
        {
          "internalType": "uint256",
          "name": "",
          "type": "uint256"
        },
        {
          "internalType": "bytes",
          "name": "",
          "type": "bytes"
        },
        {
          "internalType": "bytes",
          "name": "",
          "type": "bytes"
        }
      ],
      "name": "operatorBurn",
      "outputs": [],
      "stateMutability": "pure",
      "type": "function"
    },
    {
      "inputs": [
        {
          "internalType": "address",
          "name": "",
          "type": "address"
        },
        {
          "internalType": "address",
          "name": "",
          "type": "address"
        },
        {
          "internalType": "uint256",
          "name": "",
          "type": "uint256"
        },
        {
          "internalType": "bytes",
          "name": "",
          "type": "bytes"
        },
        {
          "internalType": "bytes",
          "name": "",
          "type": "bytes"
        }
      ],
      "name": "operatorSend",
      "outputs": [],
      "stateMutability": "pure",
      "type": "function"
    },
    {
      "inputs": [],
      "name": "pause",
      "outputs": [],
      "stateMutability": "nonpayable",
      "type": "function"
    },
    {
      "inputs": [],
      "name": "paused",
      "outputs": [
        {
          "internalType": "bool",
          "name": "",
          "type": "bool"
        }
      ],
      "stateMutability": "view",
      "type": "function"
    },
    {
      "inputs": [
        {
          "internalType": "address",
          "name": "account",
          "type": "address"
        }
      ],
      "name": "quantityRevokedFrom",
      "outputs": [
        {
          "internalType": "uint256",
          "name": "",
          "type": "uint256"
        }
      ],
      "stateMutability": "view",
      "type": "function"
    },
    {
      "inputs": [
        {
          "internalType": "bytes32",
          "name": "role",
          "type": "bytes32"
        },
        {
          "internalType": "address",
          "name": "account",
          "type": "address"
        }
      ],
      "name": "renounceRole",
      "outputs": [],
      "stateMutability": "nonpayable",
      "type": "function"
    },
    {
      "inputs": [
        {
          "internalType": "address",
          "name": "operator",
          "type": "address"
        }
      ],
      "name": "revokeOperator",
      "outputs": [],
      "stateMutability": "nonpayable",
      "type": "function"
    },
    {
      "inputs": [
        {
          "internalType": "bytes32",
          "name": "role",
          "type": "bytes32"
        },
        {
          "internalType": "address",
          "name": "account",
          "type": "address"
        }
      ],
      "name": "revokeRole",
      "outputs": [],
      "stateMutability": "nonpayable",
      "type": "function"
    },
    {
      "inputs": [
        {
          "internalType": "address",
          "name": "",
          "type": "address"
        },
        {
          "internalType": "uint256",
          "name": "",
          "type": "uint256"
        },
        {
          "internalType": "bytes",
          "name": "",
          "type": "bytes"
        }
      ],
      "name": "send",
      "outputs": [],
      "stateMutability": "pure",
      "type": "function"
    },
    {
      "inputs": [
        {
          "internalType": "bytes4",
          "name": "interfaceId",
          "type": "bytes4"
        }
      ],
      "name": "supportsInterface",
      "outputs": [
        {
          "internalType": "bool",
          "name": "",
          "type": "bool"
        }
      ],
      "stateMutability": "view",
      "type": "function"
    },
    {
      "inputs": [],
      "name": "symbol",
      "outputs": [
        {
          "internalType": "string",
          "name": "",
          "type": "string"
        }
      ],
      "stateMutability": "view",
      "type": "function"
    },
    {
      "inputs": [],
      "name": "totalSupply",
      "outputs": [
        {
          "internalType": "uint256",
          "name": "",
          "type": "uint256"
        }
      ],
      "stateMutability": "view",
      "type": "function"
    },
    {
      "inputs": [
        {
          "internalType": "address",
          "name": "",
          "type": "address"
        },
        {
          "internalType": "uint256",
          "name": "",
          "type": "uint256"
        }
      ],
      "name": "transfer",
      "outputs": [
        {
          "internalType": "bool",
          "name": "",
          "type": "bool"
        }
      ],
      "stateMutability": "pure",
      "type": "function"
    },
    {
      "inputs": [
        {
          "internalType": "address",
          "name": "",
          "type": "address"
        },
        {
          "internalType": "address",
          "name": "",
          "type": "address"
        },
        {
          "internalType": "uint256",
          "name": "",
          "type": "uint256"
        }
      ],
      "name": "transferFrom",
      "outputs": [
        {
          "internalType": "bool",
          "name": "",
          "type": "bool"
        }
      ],
      "stateMutability": "pure",
      "type": "function"
    },
    {
      "inputs": [
        {
          "internalType": "address",
          "name": "account",
          "type": "address"
        }
      ],
      "name": "unlockedBalanceOf",
      "outputs": [
        {
          "internalType": "uint256",
          "name": "",
          "type": "uint256"
        }
      ],
      "stateMutability": "view",
      "type": "function"
    },
    {
      "inputs": [],
      "name": "unpause",
      "outputs": [],
      "stateMutability": "nonpayable",
      "type": "function"
    },
    {
      "inputs": [
        {
          "internalType": "contract BridgedPolygonNORI",
          "name": "newUnderlying",
          "type": "address"
        }
      ],
      "name": "updateUnderlying",
      "outputs": [],
      "stateMutability": "nonpayable",
      "type": "function"
    },
    {
      "inputs": [
        {
          "internalType": "address",
          "name": "account",
          "type": "address"
        }
      ],
      "name": "vestedBalanceOf",
      "outputs": [
        {
          "internalType": "uint256",
          "name": "",
          "type": "uint256"
        }
      ],
      "stateMutability": "view",
      "type": "function"
    },
    {
      "inputs": [
        {
          "internalType": "address",
          "name": "recipient",
          "type": "address"
        },
        {
          "internalType": "uint256",
          "name": "amount",
          "type": "uint256"
        }
      ],
      "name": "withdrawTo",
      "outputs": [
        {
          "internalType": "bool",
          "name": "",
          "type": "bool"
        }
      ],
      "stateMutability": "nonpayable",
      "type": "function"
    }
  ],
  "numDeployments": 4,
  "bytecode": "0x60808060405234620000c6576000549060ff8260081c1662000074575060ff8082161062000038575b604051615f449081620000cc8239f35b60ff90811916176000557f7f26b83ff96e1f2b6a682f133852f6798a09c465da95921460cefb3847402498602060405160ff8152a13862000028565b62461bcd60e51b815260206004820152602760248201527f496e697469616c697a61626c653a20636f6e747261637420697320696e697469604482015266616c697a696e6760c81b6064820152608490fd5b600080fdfe60c080604052600436101561001357600080fd5b600060805260003560e01c90816301ffc9a7146137885750806306e48538146136e257806306fdde0314613639578063095ea7b3146135d35780630e2d1a2a146134a757806318160ddd14613487578063205c28781461345857806323b872dd146133f1578063248a9ca3146133c0578063271c6e1a146132ff5780632f2ff15d1461320c5780632f4f21e2146131d3578063313ce567146131b557806336568abe146131095780633f4ba83a1461306757806342f8226014612d7c578063458c738e14612c77578063521189a914612c3a578063556f0dc714612c1c5780635c975abb14612bf757806362ad1b8314612b55578063633d9be014612b1857806366cf8bce1461209557806370a08231146120505780638456cb5914611ff057806384955c8814611fcb5780639010d07c14611f7657806391d1485414611f18578063959b8c3f146102bf57806395d89b4114611e2f5780639952d6e4146117605780639bd9bbc6146116e15780639e3f3cac146116855780639f916c211461149e578063a217fddf14611480578063a9059cbb14611422578063bf31dbf414611339578063c4d66de814610817578063c884aa58146104af578063ca15c87314610481578063d547741f1461043a578063d95b637114610369578063dd62ed3e14610308578063e63ab1e9146102c8578063fad8b32a146102bf578063fc673c4f1461026a5763fe9d93031461022a575b600080fd5b346102645760406003193601126102645760243567ffffffffffffffff81116102645761025b903690600401613b57565b506102256151c3565b60805180fd5b503461026457608060031936011261026457610284613909565b5067ffffffffffffffff604435818111610264576102a6903690600401613b57565b506064359081116102645761025b903690600401613b57565b50610225613bf6565b3461026457608051806003193601126103055760206040517f65d7a28e3265b37a6474929f336521b332c1681b933f6cb9f3376673440d862a8152f35b80fd5b3461026457604060031936011261026457610321613909565b61032961392c565b9073ffffffffffffffffffffffffffffffffffffffff80911660805152603b60205260406080512091166000526020526020604060002054604051908152f35b3461026457604060031936011261026457610382613909565b73ffffffffffffffffffffffffffffffffffffffff806103a061392c565b169116908082149081156103ec575b81156103c3575b6020826040519015158152f35b905060805152603960205260406080512090600052602052602060ff60406000205416826103b6565b9050816080515260386020526080518160ff6040832054169182610413575b5050906103af565b90915052603a6020526040608051208260005260205260ff6040600020541615818461040b565b346102645760406003193601126102645761047b60043561045961392c565b90806080515260c960205261047660016040608051200154613fdf565b615d84565b60805180f35b34610264576020600319360112610264576004356080515260fb602052602060406080512054604051908152f35b346102645760c06003193601126102645767ffffffffffffffff600435818111610264576104e1903690600401613c55565b602492918335838111610264576104fc903690600401613c55565b90916064359460ff9586811680910361026457610517614488565b61051f613c86565b8386036107ad5760805194855b88871690888210156106425761054e90610547838b89614f15565b3590614137565b9661055a828a88614f15565b358783101561062b57611fe08260051b168401357fffffffffffffffffffffffffffffffffffffffffffffffffffffffffffffffe1853603018112156102645784019283359387851161026457602001938036038513610264576105d1610603936105cb8f976105d9943691613af2565b90615208565b918c8a614f15565b35604051906105e782613996565b6080518252604051926105f984613996565b60805184526144d8565b16888114610614576001019561052c565b89634e487b7160e01b608051526011600452608051fd5b8b634e487b7160e01b608051526032600452608051fd5b8a847f1c033d59d233682f5cd21bc9a14d4934157a93bb4e87b1aa1f3ac4394af8a8146020604051858152a173ffffffffffffffffffffffffffffffffffffffff91610160918383541690813b1561026457604051927fd505accf00000000000000000000000000000000000000000000000000000000845233600485015230908401528560448401526044356064840152608483015260843560a483015260a43560c48301528160e48160805180945af1801561078b57610798575b50546040517f23b872dd0000000000000000000000000000000000000000000000000000000081523360048201523060248201526044810193909352608051602092849260649284929091165af1801561078b5761075d5760805180f35b61077d9060203d8111610784575b61077581836139ea565b8101906142b5565b508061047b565b503d61076b565b6040513d608051823e3d90fd5b6107a19061394f565b60805180156106ff5780fd5b608488602b6040519162461bcd60e51b8352602060048401528201527f6c4e4f52493a205265717569726573206f6e6520616d6f756e7420706572206760448201527f72616e742064657461696c0000000000000000000000000000000000000000006064820152fd5b346102645760206003193601126102645760043573ffffffffffffffffffffffffffffffffffffffff8116810361026457608051549060ff8260081c16159182809361132c575b8015611315575b156112ab576080519083600160ff19831617835561127c575b50506040519061088d826139b2565b6001825260203681840137815115611264573360208301526108ee60ff6080515460081c166108bb8161513b565b6108c48161513b565b6108cd8161513b565b6108d68161513b565b6108df8161513b565b60ff196065541660655561513b565b6108f6614488565b608051805260c9602052608051604081209033905260205260805160ff6040822054161561120f575b50608051805260fb60205261093933604060805120615c95565b50610942614488565b7f65d7a28e3265b37a6474929f336521b332c1681b933f6cb9f3376673440d862a6080515260c9602052608051604081209033905260205260805160ff60408220541615611179575b507f65d7a28e3265b37a6474929f336521b332c1681b933f6cb9f3376673440d862a6080515260fb6020526109c533604060805120615c95565b50604051926109d3846139b2565b600b84527f4c6f636b6564204e4f5249000000000000000000000000000000000000000000602085015260405193610a0a856139b2565b600585527f6c4e4f52490000000000000000000000000000000000000000000000000000006020860152610a4660ff6080515460081c1661513b565b80519067ffffffffffffffff8211610f17578190610a656035546140fd565b601f8111611129575b5060805190602091601f8411600114611063575060805192611058575b50506000198260011b9260031b1c1916176035555b835167ffffffffffffffff8111610f1757610abc6036546140fd565b601f8111610ffd575b50608051602090601f8311600114610f3a5750819293949560805192610f2f575b50506000198260011b9260031b1c1916176036555b825167ffffffffffffffff8111610f1757680100000000000000008111610f175760375481603755808210610ee1575b50602084019060376080515260805191825b828110610e97575050505b8351811015610b9a578073ffffffffffffffffffffffffffffffffffffffff610b74610b959387614fcb565b5116608051526038602052604060805120600160ff19825416179055614f25565b610b48565b5090731820a4b7618bde71dce8cdc73aab6c95905fad24803b1561026457604051907f29965a1d00000000000000000000000000000000000000000000000000000000918281523060048201527fac7fbab5f54a3ca8194167523c6753bfeb96a445279294b6125b68cce217705460248201523060448201526080518160648183865af1801561078b57610e88575b50803b15610264576040519182523060048301527faea199e31a596269b42cdafd93407f14436db6e4cad65417994c2eb37381e05a60248301523060448301528160648160805180945af1801561078b57610e73575b5073ffffffffffffffffffffffffffffffffffffffff61016091167fffffffffffffffffffffffff0000000000000000000000000000000000000000825416179055610cc9614488565b3360005261015f60205260ff600f6040600020015416610e09573360009081527f38e71761b954262a9560bd5d5724383b6db3c254761096eb4ce389ed02050c6060205260409020547fa52f07bb8dc8df886598eb50edeaba2b8e45715237ed244354b60ea04d0390b89060ff1615610db7575b60005260fb602052610d53336040600020615c95565b50610d5e5760805180f35b6080517fffffffffffffffffffffffffffffffffffffffffffffffffffffffffffff00ff81541690557f7f26b83ff96e1f2b6a682f133852f6798a09c465da95921460cefb3847402498602060405160018152a161047b565b8060005260c96020526040600020336000526020526040600020600160ff198254161790553333827f2f8788117e7eff1d82e926ec794901d17c78024a50270940304540a733656f0d600080a4610d3d565b608460405162461bcd60e51b815260206004820152603360248201527f6c4e4f52493a2043616e6e6f742061737369676e20726f6c6520746f2061206760448201527f72616e7420686f6c6465722061646472657373000000000000000000000000006064820152fd5b610e7c9061394f565b6080518015610c7f5780fd5b610e919061394f565b84610c29565b600190602073ffffffffffffffffffffffffffffffffffffffff845116930192817f42a7b7dd785cd69714a189dffb3fd7d7174edc9ece837694ce50f7078f7c31ae015501610b3d565b610f1190827f42a7b7dd785cd69714a189dffb3fd7d7174edc9ece837694ce50f7078f7c31ae91820191016151ac565b84610b2b565b634e487b7160e01b6080515260416004526024608051fd5b015190508580610ae6565b603690527f4a11f94e20a93c79f6ec743a1954ec4fc2c08429ae2122118bf234b2185c81b8906080515b7fffffffffffffffffffffffffffffffffffffffffffffffffffffffffffffffe084168110610fe55750600193949596837fffffffffffffffffffffffffffffffffffffffffffffffffffffffffffffffe0811610610fcc575b505050811b01603655610afb565b015160001960f88460031b161c19169055858080610fbe565b9091602060018192858b015181550193019101610f64565b611048906036608051527f4a11f94e20a93c79f6ec743a1954ec4fc2c08429ae2122118bf234b2185c81b8601f840160051c8101916020851061104e575b601f0160051c01906151ac565b85610ac5565b909150819061103b565b015190508680610a8b565b6035919450527fcfa4bec1d3298408bb5afcfcd9c430549c5b31f8aa5c5848151c0a55f473c34d90608051935b7fffffffffffffffffffffffffffffffffffffffffffffffffffffffffffffffe08416851061110e5760019450837fffffffffffffffffffffffffffffffffffffffffffffffffffffffffffffffe08116106110f5575b505050811b01603555610aa0565b015160001960f88460031b161c191690558680806110e7565b81810151835560209485019460019093019290910190611090565b611173906035608051527fcfa4bec1d3298408bb5afcfcd9c430549c5b31f8aa5c5848151c0a55f473c34d601f850160051c8101916020861061104e57601f0160051c01906151ac565b87610a6e565b7f65d7a28e3265b37a6474929f336521b332c1681b933f6cb9f3376673440d862a905260c9602052608051604081209033905260205260805160408120600160ff1982541617905533907f65d7a28e3265b37a6474929f336521b332c1681b933f6cb9f3376673440d862a7f2f8788117e7eff1d82e926ec794901d17c78024a50270940304540a733656f0d339280a48361098b565b805260c9602052608051604081209033905260205260805160408120600160ff19825416179055339033907f2f8788117e7eff1d82e926ec794901d17c78024a50270940304540a733656f0d8180a48361091f565b634e487b7160e01b6080515260326004526024608051fd5b7fffffffffffffffffffffffffffffffffffffffffffffffffffffffffffff000016610101179055828061087e565b608460405162461bcd60e51b815260206004820152602e60248201527f496e697469616c697a61626c653a20636f6e747261637420697320616c72656160448201527f647920696e697469616c697a65640000000000000000000000000000000000006064820152fd5b50303b1580156108655750600160ff821614610865565b50600160ff82161061085e565b346102645760206003193601126102645761020061135d611358613909565b614fdf565b61142060405180928051825273ffffffffffffffffffffffffffffffffffffffff602082015116602083015260408101516040830152606081015160608301526080810151608083015260a081015160a083015260c081015160c083015260e081015160e0830152610100808201519083015261012080820151908301526101408082015190830152610160808201519083015261018080820151908301526101a080820151908301526101c080820151908301526101e0809101511515910152565bf35b346102645760406003193601126102645761143b613909565b50606460405162461bcd60e51b815260206004820152601860248201527f6c4e4f52493a207472616e736665722064697361626c656400000000000000006044820152fd5b34610264576080518060031936011261030557602090604051908152f35b34610264576020806003193601126102645760043567ffffffffffffffff8111610264576114d0903690600401613c55565b91906114db83613a2b565b926114e960405194856139ea565b8084527fffffffffffffffffffffffffffffffffffffffffffffffffffffffffffffffe061151682613a2b565b01836080515b82811061166f575050506080515b81811061163557838560405190828201838352815180915283604084019201936080515b82811061155b5784840385f35b90919282610200826116266001948a518051825273ffffffffffffffffffffffffffffffffffffffff602082015116602083015260408101516040830152606081015160608301526080810151608083015260a081015160a083015260c081015160c083015260e081015160e0830152610100808201519083015261012080820151908301526101408082015190830152610160808201519083015261018080820151908301526101a080820151908301526101c080820151908301526101e0809101511515910152565b0196019101949291909461154e565b8061164f61135861164a61166a948688614f15565b614f34565b6116598288614fcb565b526116648187614fcb565b50614f25565b61152a565b611677614f55565b82828901015201849061151c565b346102645760206003193601126102645773ffffffffffffffffffffffffffffffffffffffff6116b3613909565b166080515261015f60205260206116d9604060805120600c600e82015491015490614b6a565b604051908152f35b34610264576060600319360112610264576116fa613909565b5060443567ffffffffffffffff81116102645761171b903690600401613b57565b50606460405162461bcd60e51b815260206004820152601460248201527f6c4e4f52493a2073656e642064697361626c65640000000000000000000000006044820152fd5b346102645760806003193601126102645767ffffffffffffffff60043581811161026457611792903690600401613c55565b90602435838111610264576117ab903690600401613c55565b604435858111610264576117c3903690600401613c55565b919095606435908111610264576117de903690600401613c55565b90946117e8614488565b6117f0613c86565b828703611dc557838303611d5b57818403611cf1576080515b8781106118165760805180f35b61182461164a828a85614f15565b9061183361164a82878a614f15565b9161183f82888d614f15565b359061184c83878c614f15565b35938215928380611ce8575b8015611cd7575b15611c6d5773ffffffffffffffffffffffffffffffffffffffff83166080515261015f6020526040608051209360ff600f8601541615611c29576118a2846156ec565b15611bbf5780611bb6575b15611bb0575042945b428610611b46576118c78685615ad0565b90600c8501549182811015611b02576118e09083614b6a565b8115611ae8578111611aa4576119b192602092601161190493978894858094614b6a565b600c8201558a6010820155015561193e60405161192081613996565b60805181526040519061193282613996565b60805182528488614b77565b73ffffffffffffffffffffffffffffffffffffffff6101605416906040518095819482937fa9059cbb000000000000000000000000000000000000000000000000000000008452600484016020909392919373ffffffffffffffffffffffffffffffffffffffff60408201951681520152565b0391608051905af190811561078b5760805191611a85575b5015611a1b57611a16937f0bbe3f9ae306d75ae6df08cd4a79ac5c6eae93ffae7d7e52f2859bf27592519d73ffffffffffffffffffffffffffffffffffffffff60805193169280a4614f25565b611809565b608460405162461bcd60e51b815260206004820152602b60248201527f6c4e4f52493a207472616e73666572206f6620756e6465726c79696e6720617360448201527f736574206661696c65642e0000000000000000000000000000000000000000006064820152fd5b611a9e915060203d6020116107845761077581836139ea565b8d6119c9565b606460405162461bcd60e51b815260206004820152601e60248201527f6c4e4f52493a20746f6f2066657720756e76657374656420746f6b656e7300006044820152fd5b61190491509260209260116119b195978894858094614b6a565b606460405162461bcd60e51b815260206004820152601c60248201527f6c4e4f52493a20746f6b656e7320616c726561647920766573746564000000006044820152fd5b608460405162461bcd60e51b815260206004820152602760248201527f6c4e4f52493a205265766f636174696f6e2063616e6e6f7420626520696e207460448201527f68652070617374000000000000000000000000000000000000000000000000006064820152fd5b946118b6565b508515156118ad565b608460405162461bcd60e51b815260206004820152602960248201527f6c4e4f52493a206e6f2076657374696e67207363686564756c6520666f72207460448201527f686973206772616e7400000000000000000000000000000000000000000000006064820152fd5b606460405162461bcd60e51b815260206004820152601660248201527f6c4e4f52493a206e6f206772616e7420657869737473000000000000000000006044820152fd5b608460405162461bcd60e51b815260206004820152603b60248201527f6c4e4f52493a204d75737420737065636966792061207265766f636174696f6e60448201527f2074696d65206f7220616e20616d6f756e74206e6f7420626f746800000000006064820152fd5b508315801561185f5750851561185f565b50851515611858565b608460405162461bcd60e51b815260206004820152602a60248201527f6c4e4f52493a20617454696d657320616e6420616d6f756e7473206c656e677460448201527f68206d69736d61746368000000000000000000000000000000000000000000006064820152fd5b608460405162461bcd60e51b815260206004820152602d60248201527f6c4e4f52493a20746f4163636f756e747320616e6420617454696d6573206c6560448201527f6e677468206d69736d61746368000000000000000000000000000000000000006064820152fd5b608460405162461bcd60e51b815260206004820152603260248201527f6c4e4f52493a2066726f6d4163636f756e747320616e6420746f4163636f756e60448201527f7473206c656e677468206d69736d6174636800000000000000000000000000006064820152fd5b3461026457608051806003193601126103055760405190603654611e52816140fd565b80845290600190818116908115611ef15750600114611e94575b611e9084611e7c818603826139ea565b6040519182916020835260208301906138c6565b0390f35b60808051603690525192507f4a11f94e20a93c79f6ec743a1954ec4fc2c08429ae2122118bf234b2185c81b85b828410611ed9575050508101602001611e7c82611e6c565b80546020858701810191909152909301928101611ec1565b60ff191660208087019190915292151560051b85019092019250611e7c9150839050611e6c565b3461026457604060031936011261026457611f3161392c565b6004356080515260c960205260805173ffffffffffffffffffffffffffffffffffffffff6040822092169052602052602060ff60406080512054166040519015158152f35b34610264576040600319360112610264576004356080515260fb602052602073ffffffffffffffffffffffffffffffffffffffff611fbb60243560406080512061429d565b9190546040519260031b1c168152f35b346102645760206003193601126102645760206116d9611fe9613909565b429061572a565b3461026457608051806003193601126103055761200b613e87565b612013614488565b600160ff1960655416176065557f62e78cea01bee320cd4e420270b5ea74000d11b0c9f74754ebdbfc544b05a2586020604051338152a160805180f35b346102645760206003193601126102645760206116d961206e613909565b73ffffffffffffffffffffffffffffffffffffffff16600052603360205260406000205490565b346102645760a06003193601126102645767ffffffffffffffff600435818111610264576120c7903690600401613a43565b6024358281116102645736602382011215610264578060040135906120eb82613a2b565b916120f960405193846139ea565b8083526024602084019160051b8301019136831161026457602401905b828210612b085750505060443583811161026457612138903690600401613b75565b9260643581811161026457612151903690600401613b75565b60843591821161026457366023830112156102645781600401359361217585613a2b565b9261218360405194856139ea565b85845260208401906024829760051b8201019036821161026457602401915b818310612aef575050508051845103612a5f5783518651036129cf57855182510361293f5781518351036128af576080515b81518110156128005773ffffffffffffffffffffffffffffffffffffffff6121fc8284614fcb565b5116906122098187614fcb565b5191612215828a614fcb565b516122208387614fcb565b519061222c8489614fcb565b51151590331561279657831561272d576040517faabbb8ca0000000000000000000000000000000000000000000000000000000081523360048201527f29ddb589b1fb5fc7cf394961c1adf5f8c6454761adf795e67fe149f658abe8956024820152602081604481731820a4b7618bde71dce8cdc73aab6c95905fad245afa801561078b57608051906126e0575b73ffffffffffffffffffffffffffffffffffffffff91501680612677575b507fa52f07bb8dc8df886598eb50edeaba2b8e45715237ed244354b60ea04d0390b86080515260c9602052608051604081209033905260205261234161231e423361572a565b87111533608051526033602052604060805120548811158161266f575b506156a1565b612349614488565b33608051526033602052604060805120548681106126055784903360805152603360205287608051910360408220555260406080512061238a878254614137565b905583604051877f06b541ddaa720db2b10a4d0cdac39b8d360425fc073085fac19bc826146779873392806123c28988339684614949565b0390a4836040518781527fddf252ad1be2c89b69c2b068fc378daa952ba7f163c4a11628f55a4df523b3ef60203392a36040517faabbb8ca0000000000000000000000000000000000000000000000000000000081528460048201527fb281fc8c12954d22544db45de3159a39272895b169a852b314f9cc762e44c53b6024820152602081604481731820a4b7618bde71dce8cdc73aab6c95905fad245afa801561078b57608051906125b8575b73ffffffffffffffffffffffffffffffffffffffff1692905082156125075750813b15610264576124d695604051968794859384937e23de2900000000000000000000000000000000000000000000000000000000855260805198333360048801614995565b0391608051905af191821561078b576124f3926124f85750614f25565b6121d4565b6125019061394f565b88611664565b9394955050505061251d575b506124f390614f25565b3b6125285787612513565b60a460405162461bcd60e51b815260206004820152604d60248201527f4552433737373a20746f6b656e20726563697069656e7420636f6e747261637460448201527f20686173206e6f20696d706c656d656e74657220666f7220455243373737546f60648201527f6b656e73526563697069656e74000000000000000000000000000000000000006084820152fd5b506020813d6020116125fd575b816125d2602093836139ea565b81010312610264576125f873ffffffffffffffffffffffffffffffffffffffff91614974565b612470565b3d91506125c5565b608460405162461bcd60e51b815260206004820152602760248201527f4552433737373a207472616e7366657220616d6f756e7420657863656564732060448201527f62616c616e6365000000000000000000000000000000000000000000000000006064820152fd5b90508e61233b565b803b15610264578660405180927f75ab978200000000000000000000000000000000000000000000000000000000825281806126be8988608051978d333360048801614995565b0391608051905af1801561078b57156122d8576126da9061394f565b8c6122d8565b506020813d602011612725575b816126fa602093836139ea565b810103126102645761272073ffffffffffffffffffffffffffffffffffffffff91614974565b6122ba565b3d91506126ed565b608460405162461bcd60e51b8152602060048201526024808201527f4552433737373a207472616e7366657220746f20746865207a65726f2061646460448201527f72657373000000000000000000000000000000000000000000000000000000006064820152fd5b608460405162461bcd60e51b815260206004820152602660248201527f4552433737373a207472616e736665722066726f6d20746865207a65726f206160448201527f64647265737300000000000000000000000000000000000000000000000000006064820152fd5b50926020916128408761283261284e946128256040519960a08b5260a08b0190613859565b90898203888b0152613abe565b908782036040890152615c40565b908582036060870152615c40565b91838303608085015251918281520192906080515b81811061289757337fd5865ae34f92a2d6a803fa13140b8165046f54e61e68560b26950c62a668c6b685870386a260805180f35b82511515855260209485019490920191600101612863565b60a460405162461bcd60e51b815260206004820152605660248201527f4552433737375072657365745061757361626c655065726d697373696f6e656460448201527f3a206f70657261746f724461746120616e64207265717569726552656365707460648201527f696f6e41636b206c656e677468206d69736d61746368000000000000000000006084820152fd5b60a460405162461bcd60e51b815260206004820152604b60248201527f4552433737375072657365745061757361626c655065726d697373696f6e656460448201527f3a20757365724461746120616e64206f70657261746f7244617461206c656e6760648201527f7468206d69736d617463680000000000000000000000000000000000000000006084820152fd5b60a460405162461bcd60e51b815260206004820152604660248201527f4552433737375072657365745061757361626c655065726d697373696f6e656460448201527f3a20616d6f756e747320616e64207573657244617461206c656e677468206d6960648201527f736d6174636800000000000000000000000000000000000000000000000000006084820152fd5b60a460405162461bcd60e51b815260206004820152604660248201527f4552433737375072657365745061757361626c655065726d697373696f6e656460448201527f3a20726563697069656e7420616e6420616d6f756e74206c656e677468206d6960648201527f736d6174636800000000000000000000000000000000000000000000000000006084820152fd5b82358015158103610264578152602092830192016121a2565b8135815260209182019101612116565b3461026457608051806003193601126103055760206040517fa52f07bb8dc8df886598eb50edeaba2b8e45715237ed244354b60ea04d0390b88152f35b346102645760a060031936011261026457612b6e613909565b50612b7761392c565b5067ffffffffffffffff60643581811161026457612b99903690600401613b57565b5060843590811161026457612bb2903690600401613b57565b50606460405162461bcd60e51b815260206004820152601c60248201527f6c4e4f52493a206f70657261746f7253656e642064697361626c6564000000006044820152fd5b34610264576080518060031936011261030557602060ff606554166040519015158152f35b34610264576080518060031936011261030557602060405160018152f35b3461026457608051806003193601126103055760206040517fb281fc8c12954d22544db45de3159a39272895b169a852b314f9cc762e44c53b8152f35b346102645760206003193601126102645760043567ffffffffffffffff811161026457612ca8903690600401613a43565b8051907fffffffffffffffffffffffffffffffffffffffffffffffffffffffffffffffe0612cee612cd884613a2b565b93612ce660405195866139ea565b808552613a2b565b013660208401376080515b8151811015612d665780612d5173ffffffffffffffffffffffffffffffffffffffff612d28612d619486614fcb565b511673ffffffffffffffffffffffffffffffffffffffff16600052603360205260406000205490565b612d5b8286614fcb565b52614f25565b612cf9565b60405160208082528190611e9090820186613abe565b34610264576020806003193601126102645760043573ffffffffffffffffffffffffffffffffffffffff9081811680910361026457612db9614488565b608051805260c983526080516040812090339052835260ff604060805120541615612eb357610160805492831692828414612e49577fffffffffffffffffffffffff0000000000000000000000000000000000000000168217905560408051928352928201527f1fc9b2467a9c193cab5b6f03eefe74f1e3140becc7ff93728101335e77fef6799190a160805180f35b6084856040519062461bcd60e51b82526004820152603660248201527f6c4e4f52493a207570646174696e6720756e6465726c79696e6720616464726560448201527f737320746f206578697374696e672061646472657373000000000000000000006064820152fd5b82612ebd33614181565b90608051604051612ecd816139ce565b604281528281019160603684378151156112645760308353815160019081101561126457607860218401536041905b808211612ffe575050612fbb57612f8793612f96926048926040519687937f416363657373436f6e74726f6c3a206163636f756e742000000000000000000088860152612f52815180928a6037890191016138a3565b8401917f206973206d697373696e6720726f6c65200000000000000000000000000000006037840152518093868401906138a3565b010360288101855201836139ea565b612fb760405192839262461bcd60e51b8452600484015260248301906138c6565b0390fd5b6064836040519062461bcd60e51b825280600483015260248201527f537472696e67733a20686578206c656e67746820696e73756666696369656e746044820152fd5b9091600f81166010811015611264577f3031323334353637383961626364656600000000000000000000000000000000901a61303a848661415a565b5360041c91801561304f576000190190612efc565b634e487b7160e01b6080515260116004526024608051fd5b34610264576080518060031936011261030557613082613e87565b60655460ff8116156130c55760ff19166065557f5db9ee0a495bf2e6ff9c91a7834c1ba4fdd244a5e8aa4e537bd38aeae4b073aa6020604051338152a160805180f35b606460405162461bcd60e51b815260206004820152601460248201527f5061757361626c653a206e6f74207061757365640000000000000000000000006044820152fd5b346102645760406003193601126102645761312261392c565b3373ffffffffffffffffffffffffffffffffffffffff82160361314b5761047b90600435615d84565b608460405162461bcd60e51b815260206004820152602f60248201527f416363657373436f6e74726f6c3a2063616e206f6e6c792072656e6f756e636560448201527f20726f6c657320666f722073656c6600000000000000000000000000000000006064820152fd5b34610264576080518060031936011261030557602060405160128152f35b346102645760406003193601126102645760206132026131f1613909565b6131f9614488565b602435906142cd565b6040519015158152f35b34610264576040600319360112610264576132a760043560fb61322d61392c565b91806080515260209060c9825261324c60016040608051200154613fdf565b6132568482615d21565b806080515260c982526080519373ffffffffffffffffffffffffffffffffffffffff60408620911680955282528060805160ff604082205416156132ae575b50506080515252604060805120615c95565b5060805180f35b5260c9825260805184604082209152825260805160408120600160ff1982541617905584827f2f8788117e7eff1d82e926ec794901d17c78024a50270940304540a733656f0d339380a48086613295565b3461026457610160806003193601126102645761331a61392c565b90613323614488565b61332b613c86565b73ffffffffffffffffffffffffffffffffffffffff6040519216602083015260443560408301526064356060830152608435608083015260a43560a083015260c43560c083015260e43560e083015261010435610100830152610124356101208301526101406101443581840152825281019080821067ffffffffffffffff831117610f17576132a791604052600435615208565b34610264576020600319360112610264576004356080515260c9602052602060016040608051200154604051908152f35b346102645760606003193601126102645761340a613909565b5061341361392c565b50606460405162461bcd60e51b815260206004820152601c60248201527f6c4e4f52493a207472616e7366657246726f6d2064697361626c6564000000006044820152fd5b34610264576040600319360112610264576020613202613476613909565b61347e614488565b602435906149ed565b346102645760805180600319360112610305576020603454604051908152f35b3461026457602080600319360112610264576134c1613909565b73ffffffffffffffffffffffffffffffffffffffff8116806080515261015f835260406080512090604051907f70a0823100000000000000000000000000000000000000000000000000000000825260048201528381602481305afa90811561078b57608051916135a6575b509160ff600f83015416613546575b5050604051908152f35b6135519192506156ec565b1561358d5761357e90600d6135664283615ad0565b600c830154808210156135855750915b015490614b6a565b828061353c565b905091613576565b80600d600c6135a193015491015490614b6a565b61357e565b90508381813d83116135cc575b6135bd81836139ea565b8101031261026457518461352d565b503d6135b3565b34610264576040600319360112610264576135ec613909565b506135f5614488565b606460405162461bcd60e51b815260206004820152602060248201527f6c4e4f52493a206f70657261746f7220616374696f6e732064697361626c65646044820152fd5b346102645760805180600319360112610305576040519060355461365c816140fd565b80845290600190818116908115611ef1575060011461368557611e9084611e7c818603826139ea565b60808051603590525192507fcfa4bec1d3298408bb5afcfcd9c430549c5b31f8aa5c5848151c0a55f473c34d5b8284106136ca575050508101602001611e7c82611e6c565b805460208587018101919091529093019281016136b2565b34610264576080518060031936011261030557604051806037548082528260208093016037608051527f42a7b7dd785cd69714a189dffb3fd7d7174edc9ece837694ce50f7078f7c31ae926080515b8582821061375c57505050613748925003836139ea565b611e90604051928284938452830190613859565b855473ffffffffffffffffffffffffffffffffffffffff16845260019586019588955093019201613731565b3461022557602060031936011261022557600435907fffffffff00000000000000000000000000000000000000000000000000000000821680920361022557817f5a05180f00000000000000000000000000000000000000000000000000000000602093149081156137fc575b5015158152f35b7f7965db0b0000000000000000000000000000000000000000000000000000000081149150811561382f575b50836137f5565b7f01ffc9a70000000000000000000000000000000000000000000000000000000091501483613828565b90815180825260208080930193019160005b828110613879575050505090565b835173ffffffffffffffffffffffffffffffffffffffff168552938101939281019260010161386b565b60005b8381106138b65750506000910152565b81810151838201526020016138a6565b907fffffffffffffffffffffffffffffffffffffffffffffffffffffffffffffffe0601f602093613902815180928187528780880191016138a3565b0116010190565b6004359073ffffffffffffffffffffffffffffffffffffffff8216820361022557565b6024359073ffffffffffffffffffffffffffffffffffffffff8216820361022557565b67ffffffffffffffff811161396357604052565b634e487b7160e01b600052604160045260246000fd5b610200810190811067ffffffffffffffff82111761396357604052565b6020810190811067ffffffffffffffff82111761396357604052565b6040810190811067ffffffffffffffff82111761396357604052565b6080810190811067ffffffffffffffff82111761396357604052565b90601f7fffffffffffffffffffffffffffffffffffffffffffffffffffffffffffffffe0910116810190811067ffffffffffffffff82111761396357604052565b67ffffffffffffffff81116139635760051b60200190565b81601f8201121561022557803591613a5a83613a2b565b92613a6860405194856139ea565b808452602092838086019260051b820101928311610225578301905b828210613a92575050505090565b813573ffffffffffffffffffffffffffffffffffffffff81168103610225578152908301908301613a84565b90815180825260208080930193019160005b828110613ade575050505090565b835185529381019392810192600101613ad0565b92919267ffffffffffffffff82116139635760405191613b3a60207fffffffffffffffffffffffffffffffffffffffffffffffffffffffffffffffe0601f84011601846139ea565b829481845281830111610225578281602093846000960137010152565b9080601f8301121561022557816020613b7293359101613af2565b90565b9080601f8301121561022557813590613b8d82613a2b565b92613b9b60405194856139ea565b828452602092838086019160051b8301019280841161022557848301915b848310613bc95750505050505090565b823567ffffffffffffffff8111610225578691613beb84848094890101613b57565b815201920191613bb9565b503461022557602060031936011261022557613c10613909565b50606460405162461bcd60e51b815260206004820152602060248201527f6c4e4f52493a206f70657261746f7220616374696f6e732064697361626c65646044820152fd5b9181601f840112156102255782359167ffffffffffffffff8311610225576020808501948460051b01011161022557565b3360009081527f38e71761b954262a9560bd5d5724383b6db3c254761096eb4ce389ed02050c60602090815260408083205490927fa52f07bb8dc8df886598eb50edeaba2b8e45715237ed244354b60ea04d0390b89160ff1615613cea5750505050565b613cf333614181565b91845190613d00826139ce565b60428252848201926060368537825115613e735760308453825190600191821015613e735790607860218501536041915b818311613df857505050613db6576048612fb7938693613d9a93613d8b98519889937f416363657373436f6e74726f6c3a206163636f756e74200000000000000000008a860152612f52815180928c6037890191016138a3565b010360288101875201856139ea565b5192839262461bcd60e51b8452600484015260248301906138c6565b60648486519062461bcd60e51b825280600483015260248201527f537472696e67733a20686578206c656e67746820696e73756666696369656e746044820152fd5b909192600f81166010811015613e5f577f3031323334353637383961626364656600000000000000000000000000000000901a613e35858761415a565b5360041c928015613e4b57600019019190613d31565b602482634e487b7160e01b81526011600452fd5b602483634e487b7160e01b81526032600452fd5b80634e487b7160e01b602492526032600452fd5b3360009081527f69740cd0ab091be8193e004660c49ef128fdf47ef95c5cc8c747e37ac0379df8602090815260408083205490927f65d7a28e3265b37a6474929f336521b332c1681b933f6cb9f3376673440d862a9160ff1615613eeb5750505050565b613ef433614181565b91845190613f01826139ce565b60428252848201926060368537825115613e735760308453825190600191821015613e735790607860218501536041915b818311613f8c57505050613db6576048612fb7938693613d9a93613d8b98519889937f416363657373436f6e74726f6c3a206163636f756e74200000000000000000008a860152612f52815180928c6037890191016138a3565b909192600f81166010811015613e5f577f3031323334353637383961626364656600000000000000000000000000000000901a613fc9858761415a565b5360041c928015613e4b57600019019190613f32565b60009080825260209060c98252604092838120338252835260ff8482205416156140095750505050565b61401233614181565b9184519061401f826139ce565b60428252848201926060368537825115613e735760308453825190600191821015613e735790607860218501536041915b8183116140aa57505050613db6576048612fb7938693613d9a93613d8b98519889937f416363657373436f6e74726f6c3a206163636f756e74200000000000000000008a860152612f52815180928c6037890191016138a3565b909192600f81166010811015613e5f577f3031323334353637383961626364656600000000000000000000000000000000901a6140e7858761415a565b5360041c928015613e4b57600019019190614050565b90600182811c9216801561412d575b602083101461411757565b634e487b7160e01b600052602260045260246000fd5b91607f169161410c565b9190820180921161414457565b634e487b7160e01b600052601160045260246000fd5b90815181101561416b570160200190565b634e487b7160e01b600052603260045260246000fd5b604051906060820182811067ffffffffffffffff82111761396357604052602a825260208201604036823782511561416b5760309053815160019081101561416b57607860218401536029905b8082116142225750506141de5790565b606460405162461bcd60e51b815260206004820152602060248201527f537472696e67733a20686578206c656e67746820696e73756666696369656e746044820152fd5b9091600f81166010811015614288577f3031323334353637383961626364656600000000000000000000000000000000901a61425e848661415a565b5360041c9180156142735760001901906141ce565b60246000634e487b7160e01b81526011600452fd5b60246000634e487b7160e01b81526032600452fd5b805482101561416b5760005260206000200190600090565b90816020910312610225575180151581036102255790565b90600073ffffffffffffffffffffffffffffffffffffffff91828416825260209361015f855260409360ff600f8686200154161561441f576101605485517f23b872dd00000000000000000000000000000000000000000000000000000000815233600482015230602482015260448101859052918791839160649183918991165af19081156144155784916143f8575b506143cc5760848585519062461bcd60e51b82526004820152602b60248201527f6c4e4f52493a207472616e7366657246726f6d20756e6465726c79696e67206160448201527f73736574206661696c65640000000000000000000000000000000000000000006064820152fd5b83516143f3955092936143de84613996565b84845251936143ec85613996565b84526144d8565b600190565b61440f9150863d88116107845761077581836139ea565b3861435e565b85513d86823e3d90fd5b60848686519062461bcd60e51b82526004820152602560248201527f6c4e4f52493a2043616e6e6f74206465706f73697420776974686f757420612060448201527f6772616e740000000000000000000000000000000000000000000000000000006064820152fd5b60ff6065541661449457565b606460405162461bcd60e51b815260206004820152601060248201527f5061757361626c653a20706175736564000000000000000000000000000000006044820152fd5b9092919273ffffffffffffffffffffffffffffffffffffffff918281169485156149055760009485805261015f926020958487526040948589209086517f70a082310000000000000000000000000000000000000000000000000000000081528a60048201528981602481305afa80156148fb57908a916148ce575b5050898052885285892060ff600f8201541690816148c3575b50156148b85761457d4282615ad0565b905b60ff600f82015416614876575b50508780526033875261459d614488565b6145a986603454614137565b603455888852603387528488206145c1878254614137565b905584517faabbb8ca0000000000000000000000000000000000000000000000000000000081528960048201527fb281fc8c12954d22544db45de3159a39272895b169a852b314f9cc762e44c53b60248201528781604481731820a4b7618bde71dce8cdc73aab6c95905fad245afa90811561486c578991614833575b501690811561474d5750803b156147495786845180927e23de290000000000000000000000000000000000000000000000000000000082523360048301528260248301528a604483015287606483015260c060848301528183816146ba6146a860c483018b6138c6565b6003198382030160a4840152896138c6565b03925af1801561473f5761472689937fddf252ad1be2c89b69c2b068fc378daa952ba7f163c4a11628f55a4df523b3ef98979695937f2fe5be0146f74c5bce36c0b80911af6c7d86ff27e89d5cfa61fc681327954e5d93614730575b505b855191829133958984614949565b0390a351908152a3565b6147399061394f565b38614716565b84513d89823e3d90fd5b8680fd5b90503b6147a4577fddf252ad1be2c89b69c2b068fc378daa952ba7f163c4a11628f55a4df523b3ef949392917f2fe5be0146f74c5bce36c0b80911af6c7d86ff27e89d5cfa61fc681327954e5d6147268993614718565b60a48584519062461bcd60e51b82526004820152604d60248201527f4552433737373a20746f6b656e20726563697069656e7420636f6e747261637460448201527f20686173206e6f20696d706c656d656e74657220666f7220455243373737546f60648201527f6b656e73526563697069656e74000000000000000000000000000000000000006084820152fd5b90508781813d8311614865575b61484a81836139ea565b810103126148615761485b90614974565b3861463e565b8880fd5b503d614840565b86513d8b823e3d90fd5b600d6148a9926148894260068501615ad0565b808210156148b15750600c83015480821015613585575091015490614b6a565b50388061458c565b9050613566565b600c8101549061457f565b90505415153861456d565b813d83116148f4575b6148e181836139ea565b810103126148f0578838614554565b8980fd5b503d6148d7565b88513d8d823e3d90fd5b606460405162461bcd60e51b815260206004820152602060248201527f4552433737373a206d696e7420746f20746865207a65726f20616464726573736044820152fd5b9161496690613b72949284526060602085015260608401906138c6565b9160408184039101526138c6565b519073ffffffffffffffffffffffffffffffffffffffff8216820361022557565b94916149df93613b7297959273ffffffffffffffffffffffffffffffffffffffff92838092168952166020880152166040860152606085015260c0608085015260c08401906138c6565b9160a08184039101526138c6565b60009133835260209261015f8452604092600d848320614a2a8651614a1181613996565b858152875190614a2082613996565b8682528733614b77565b01614a36848254614137565b90556101605484517fa9059cbb00000000000000000000000000000000000000000000000000000000815273ffffffffffffffffffffffffffffffffffffffff8381166004830152602482018690529391879082906044908290869089165af1918215614b5f5791614b42575b50614b115760848585519062461bcd60e51b82526004820152602a60248201527f6c4e4f52493a205472616e7366657220746f20756e6465726c79696e6720617360448201527f736574206661696c6564000000000000000000000000000000000000000000006064820152fd5b7fa86305abc2db271df4609aa86a8d044bc11fb36939841bfdad6c1ab2b26e947192935193845216923392a3600190565b614b599150863d88116107845761077581836139ea565b38614aa3565b8651903d90823e3d90fd5b9190820391821161414457565b9392919073ffffffffffffffffffffffffffffffffffffffff91828616938415614eab576040968751947faabbb8ca0000000000000000000000000000000000000000000000000000000086528660048701527f29ddb589b1fb5fc7cf394961c1adf5f8c6454761adf795e67fe149f658abe89560248701526020958681604481731820a4b7618bde71dce8cdc73aab6c95905fad245afa908115614ea057600091614e6b575b501680614dce575b507fa52f07bb8dc8df886598eb50edeaba2b8e45715237ed244354b60ea04d0390b860005260c985528760002033600052855260ff88600020541690614c718733141591429061572a565b85111590876000526033875289600020548611159281614dc6575b5015614daa5750508460005260338452614cac83886000205410156156a1565b614cb4614488565b84600052603384528660002054838110614d415783927fa78a9be3a7b862d26933ad85fb11d80ef66b8f972d7cbba06621d583943a40986147266000999a947fddf252ad1be2c89b69c2b068fc378daa952ba7f163c4a11628f55a4df523b3ef98978a95868d5260338a5203868c2055614d3087603454614b6a565b603455855191829133958984614949565b60848589519062461bcd60e51b82526004820152602360248201527f4552433737373a206275726e20616d6f756e7420657863656564732062616c6160448201527f6e636500000000000000000000000000000000000000000000000000000000006064820152fd5b614db99181614dbe57506156a1565b614cac565b90503861233b565b905038614c8c565b803b15610225576000895180927f75ab978200000000000000000000000000000000000000000000000000000000825233600483015289602483015282604483015287606483015260c06084830152818381614e42614e3060c483018c6138c6565b6003198382030160a48401528a6138c6565b03925af18015614e605715614c2657614e5a9061394f565b38614c26565b89513d6000823e3d90fd5b908782813d8311614e99575b614e8181836139ea565b810103126103055750614e9390614974565b38614c1e565b503d614e77565b8a513d6000823e3d90fd5b608460405162461bcd60e51b815260206004820152602260248201527f4552433737373a206275726e2066726f6d20746865207a65726f20616464726560448201527f73730000000000000000000000000000000000000000000000000000000000006064820152fd5b919081101561416b5760051b0190565b60001981146141445760010190565b3573ffffffffffffffffffffffffffffffffffffffff811681036102255790565b60405190614f6282613979565b816101e06000918281528260208201528260408201528260608201528260808201528260a08201528260c08201528260e08201528261010082015282610120820152826101408201528261016082015282610180820152826101a0820152826101c08201520152565b805182101561416b5760209160051b010190565b614fe7614f55565b5060009073ffffffffffffffffffffffffffffffffffffffff8116825261015f602052604082208091600c820154936006830154906001908185015491600786015490600987019183805282602052604084205482855260408520549185805260038a0160205283604087200154938087528060408820015495878052602052806040882001549681815260409020015496600d8b015498600e8c01549a60108d01549c601101549d600f015460ff169e6040518060a0526150a890613979565b60a0515273ffffffffffffffffffffffffffffffffffffffff1660a0516020015260a0516040015260a0516060015260a0516080015260a05160a0015260a05160c0015260a05160e0015260a051610100015260a051610120015260a051610140015260a051610160015260a051610180015260a0516101a0015260a0516101c00152151560a0516101e0015260a05190565b1561514257565b608460405162461bcd60e51b815260206004820152602b60248201527f496e697469616c697a61626c653a20636f6e7472616374206973206e6f74206960448201527f6e697469616c697a696e670000000000000000000000000000000000000000006064820152fd5b8181106151b7575050565b600081556001016151ac565b50606460405162461bcd60e51b815260206004820152601c60248201527f6c4e4f52493a206275726e696e67206e6f7420737570706f72746564000000006044820152fd5b6101409182818051810103126102255760409182519284840184811067ffffffffffffffff821117613963578152602090615244828501614974565b9586865281850151928087019384526060860151958388019687526080810151926060890193845260a082015160808a019081528960c08401519160a0820192835260e08501519460c0830195865261010094858201519160e08501928352610120968782015195019485520151948d0194855273ffffffffffffffffffffffffffffffffffffffff809e1615615638578d8d51166000907fa52f07bb8dc8df886598eb50edeaba2b8e45715237ed244354b60ea04d0390b8825260c989528a8220908252885260ff8a822054166155cf578a51895111156155665788514210156154fd578e8e5116815261015f80895260ff600f8c84200154166154ba57908f918f928c9351168252895220958b600c8801558b600e880155600f8701600160ff198254161790558c518b51106153ea575b5050916153c86153d19492869460067f17161516b6ce34594617177a800b150a86ddee02c06993a73ef000a02367d1199b9a999801958d60088201558c51875560078a51910155519051908561585d565b5190519161585d565b88885116945196519151908351928352820152a4511690565b80518451118015906154ae575b1561546c579286949261545e6153c8938f8f978f917f17161516b6ce34594617177a800b150a86ddee02c06993a73ef000a02367d1199f9e9d9c926153d19c9a6002615453950155518b555160018b015584519051908a61585d565b85519051908861585d565b929496979899509294615377565b6064888b519062461bcd60e51b825280600483015260248201527f6c4e4f52493a20756e6c6f636b20636c696666203e207665737420636c6966666044820152fd5b508151865111156153f7565b6064898c519062461bcd60e51b82526004820152601b60248201527f6c4e4f52493a204772616e7420616c72656164792065786973747300000000006044820152fd5b6084888b519062461bcd60e51b82526004820152602a60248201527f6c4e4f52493a20756e6c6f636b456e6454696d652063616e6e6f74206265206960448201527f6e207468652070617374000000000000000000000000000000000000000000006064820152fd5b6084888b519062461bcd60e51b82526004820152602f60248201527f6c4e4f52493a20756e6c6f636b456e6454696d652063616e6e6f74206265206260448201527f65666f726520737461727454696d6500000000000000000000000000000000006064820152fd5b6084888b519062461bcd60e51b82526004820152602660248201527f6c4e4f52493a20526563697069656e742063616e6e6f74206265206772616e7460448201527f2061646d696e00000000000000000000000000000000000000000000000000006064820152fd5b6084878a519062461bcd60e51b82526004820152602760248201527f6c4e4f52493a20526563697069656e742063616e6e6f74206265207a65726f2060448201527f61646472657373000000000000000000000000000000000000000000000000006064820152fd5b156156a857565b606460405162461bcd60e51b815260206004820152601b60248201527f6c4e4f52493a20696e73756666696369656e742062616c616e636500000000006044820152fd5b73ffffffffffffffffffffffffffffffffffffffff1660005261015f602052604060002060ff600f820154169081615722575090565b905054151590565b9073ffffffffffffffffffffffffffffffffffffffff82169060009082825261015f6020526040822092604051907f70a082310000000000000000000000000000000000000000000000000000000082526004820152602081602481305afa801561585257839061581b575b6157a19150946156ec565b15615810576157b08184615ad0565b905b60ff600f850154166157c6575b5050505090565b6157ff9450906157dc600d939260068601615ad0565b808210156158085750905b50600c83015480821015613585575091015490614b6a565b388080806157bf565b9050906157e7565b600c830154906157b2565b506020813d821161584a575b81615834602093836139ea565b81010312615846576157a19051615796565b8280fd5b3d9150615827565b6040513d85823e3d90fd5b909291600493848301908154938415600014615a2e57805482106159c4575b6001810154821161595a576005810194615897858754614137565b6002830154106158f05791600360019286946000520160205260406000209081550155805490600182018092116158db576158d793949550558254614137565b9055565b601186634e487b7160e01b6000525260246000fd5b60848860206040519162461bcd60e51b8352820152602960248201527f4c6f636b65644e4f52494c69623a20436c69666620616d6f756e74732065786360448201527f65656420746f74616c00000000000000000000000000000000000000000000006064820152fd5b60848760206040519162461bcd60e51b8352820152602f60248201527f4c6f636b65644e4f52494c69623a20436c696666732063616e6e6f7420656e6460448201527f206166746572207363686564756c6500000000000000000000000000000000006064820152fd5b60848760206040519162461bcd60e51b8352820152602a60248201527f4c6f636b65644e4f52494c69623a20436c696666206265666f7265207363686560448201527f64756c65207374617274000000000000000000000000000000000000000000006064820152fd5b6000198501858111615abb576000526003810160205260406000205482101561587c5760848760206040519162461bcd60e51b8352820152602760248201527f4c6f636b65644e4f52494c69623a20436c69666673206e6f74206368726f6e6f60448201527f6c6f676963616c000000000000000000000000000000000000000000000000006064820152fd5b601188634e487b7160e01b6000525260246000fd5b9060006004830154815b818110615b115750508291615b03916002613b7295015490808210600014615b09575092615b57565b90614137565b905092615b57565b806000526003850160205260408060002054851015615b3a575b50615b3590614f25565b615ada565b615b3591936001615b5092600020015490614137565b9290615b2b565b600090600281015460058201549081811015615c2d575b5050600181015480841015615c265781549160048101549081615bfb575b505081615b9891614b6a565b9260009180821015615bae575050505050600090565b615bb791614b6a565b91828102928184041490151715615be7578215615bd357500490565b80634e487b7160e01b602492526012600452fd5b80634e487b7160e01b602492526011600452fd5b9091925060001982019182116141445760039160005201602052615b98604060002054919038615b8c565b5050905090565b615c38929350614b6a565b903880615b6e565b90815180825260208092019182818360051b85019501936000915b848310615c6b5750505050505090565b9091929394958480615c8583856001950387528a516138c6565b9801930193019194939290615c5b565b91906001830160009082825280602052604082205415600014615d1b5784549468010000000000000000861015615d075783615cf7615cde886001604098999a0185558461429d565b819391549060031b600019811b9283911b169119161790565b9055549382526020522055600190565b602483634e487b7160e01b81526041600452fd5b50925050565b7fa52f07bb8dc8df886598eb50edeaba2b8e45715237ed244354b60ea04d0390b890615d4b614488565b14615d535750565b73ffffffffffffffffffffffffffffffffffffffff1660005261015f60205260ff600f6040600020015416610e0957565b906040615dda92615d958382615d21565b60009080825260c960205273ffffffffffffffffffffffffffffffffffffffff83832094169384835260205260ff8383205416615ddd575b815260fb60205220615e25565b50565b80825260c960205282822084835260205282822060ff1981541690553384827ff6391f5c32d9c69d2a47ea670b442974b53935d1edc7fd64eb21e047a839171b8580a4615dcd565b906001820190600092818452826020526040842054908115156000146157bf5760001991828101818111615efa57825490848201918211615ee657808203615eb1575b50505080548015615e9d57820191615e80838361429d565b909182549160031b1b191690555582526020526040812055600190565b602486634e487b7160e01b81526031600452fd5b615ed1615ec1615cde938661429d565b90549060031b1c9283928661429d565b90558652846020526040862055388080615e68565b602488634e487b7160e01b81526011600452fd5b602487634e487b7160e01b81526011600452fdfea2646970667358221220653c411324c634dde481e791a381998ed7fa7af8d54710237c5d6303e3c8585e64736f6c63430008110033"
}