{
  "address": "0x3036949EaFeF8190b565035736b546bCEA1Fa56d",
  "abi": [
    {
      "inputs": [],
      "stateMutability": "nonpayable",
      "type": "constructor"
    },
    {
      "inputs": [
        {
          "internalType": "uint256",
          "name": "tokenId",
          "type": "uint256"
        }
      ],
      "name": "CertificateNotYetMinted",
      "type": "error"
    },
    {
      "inputs": [],
      "name": "ERC20TransferFailed",
      "type": "error"
    },
    {
      "inputs": [],
      "name": "InsufficientSupply",
      "type": "error"
    },
    {
      "inputs": [
        {
          "internalType": "uint256",
          "name": "amount",
          "type": "uint256"
        }
      ],
      "name": "InvalidCertificateAmount",
      "type": "error"
    },
    {
      "inputs": [],
      "name": "InvalidNoriFeePercentage",
      "type": "error"
    },
    {
      "inputs": [
        {
          "internalType": "uint256",
          "name": "decimals",
          "type": "uint256"
        }
      ],
      "name": "InvalidPurchasingTokenDecimals",
      "type": "error"
    },
    {
      "inputs": [],
      "name": "LowSupplyAllowlistRequired",
      "type": "error"
    },
    {
      "inputs": [],
      "name": "NoriFeeWalletZeroAddress",
      "type": "error"
    },
    {
      "inputs": [
        {
          "internalType": "uint256",
          "name": "removalId",
          "type": "uint256"
        },
        {
          "internalType": "uint256",
          "name": "year",
          "type": "uint256"
        }
      ],
      "name": "RemovalNotFoundInYear",
      "type": "error"
    },
    {
      "inputs": [],
      "name": "ReplacementAmountExceedsNrtDeficit",
      "type": "error"
    },
    {
      "inputs": [],
      "name": "ReplacementAmountMismatch",
      "type": "error"
    },
    {
      "inputs": [],
      "name": "SenderNotRemovalContract",
      "type": "error"
    },
    {
      "inputs": [],
      "name": "UnauthorizedWithdrawal",
      "type": "error"
    },
    {
      "anonymous": false,
      "inputs": [
        {
          "indexed": true,
          "internalType": "uint256",
          "name": "id",
          "type": "uint256"
        },
        {
          "indexed": true,
          "internalType": "address",
          "name": "supplierAddress",
          "type": "address"
        }
      ],
      "name": "AddRemoval",
      "type": "event"
    },
    {
      "anonymous": false,
      "inputs": [
        {
          "indexed": true,
          "internalType": "address",
          "name": "added",
          "type": "address"
        },
        {
          "indexed": true,
          "internalType": "address",
          "name": "next",
          "type": "address"
        },
        {
          "indexed": true,
          "internalType": "address",
          "name": "previous",
          "type": "address"
        }
      ],
      "name": "AddSupplier",
      "type": "event"
    },
    {
      "anonymous": false,
      "inputs": [
        {
          "indexed": false,
          "internalType": "uint8",
          "name": "version",
          "type": "uint8"
        }
      ],
      "name": "Initialized",
      "type": "event"
    },
    {
      "anonymous": false,
      "inputs": [
        {
          "indexed": false,
          "internalType": "address",
          "name": "account",
          "type": "address"
        }
      ],
      "name": "Paused",
      "type": "event"
    },
    {
      "anonymous": false,
      "inputs": [
        {
          "indexed": false,
          "internalType": "contract Removal",
          "name": "removal",
          "type": "address"
        },
        {
          "indexed": false,
          "internalType": "contract Certificate",
          "name": "certificate",
          "type": "address"
        },
        {
          "indexed": false,
          "internalType": "contract IERC20WithPermit",
          "name": "purchasingToken",
          "type": "address"
        },
        {
          "indexed": false,
          "internalType": "contract RestrictedNORI",
          "name": "restrictedNORI",
          "type": "address"
        }
      ],
      "name": "RegisterContractAddresses",
      "type": "event"
    },
    {
      "anonymous": false,
      "inputs": [
        {
          "indexed": true,
          "internalType": "address",
          "name": "removed",
          "type": "address"
        },
        {
          "indexed": true,
          "internalType": "address",
          "name": "next",
          "type": "address"
        },
        {
          "indexed": true,
          "internalType": "address",
          "name": "previous",
          "type": "address"
        }
      ],
      "name": "RemoveSupplier",
      "type": "event"
    },
    {
      "anonymous": false,
      "inputs": [
        {
          "indexed": true,
          "internalType": "uint256",
          "name": "amount",
          "type": "uint256"
        },
        {
          "indexed": true,
          "internalType": "uint256",
          "name": "removalId",
          "type": "uint256"
        }
      ],
      "name": "RestrictedNORIMintFailure",
      "type": "event"
    },
    {
      "anonymous": false,
      "inputs": [
        {
          "indexed": true,
          "internalType": "bytes32",
          "name": "role",
          "type": "bytes32"
        },
        {
          "indexed": true,
          "internalType": "bytes32",
          "name": "previousAdminRole",
          "type": "bytes32"
        },
        {
          "indexed": true,
          "internalType": "bytes32",
          "name": "newAdminRole",
          "type": "bytes32"
        }
      ],
      "name": "RoleAdminChanged",
      "type": "event"
    },
    {
      "anonymous": false,
      "inputs": [
        {
          "indexed": true,
          "internalType": "bytes32",
          "name": "role",
          "type": "bytes32"
        },
        {
          "indexed": true,
          "internalType": "address",
          "name": "account",
          "type": "address"
        },
        {
          "indexed": true,
          "internalType": "address",
          "name": "sender",
          "type": "address"
        }
      ],
      "name": "RoleGranted",
      "type": "event"
    },
    {
      "anonymous": false,
      "inputs": [
        {
          "indexed": true,
          "internalType": "bytes32",
          "name": "role",
          "type": "bytes32"
        },
        {
          "indexed": true,
          "internalType": "address",
          "name": "account",
          "type": "address"
        },
        {
          "indexed": true,
          "internalType": "address",
          "name": "sender",
          "type": "address"
        }
      ],
      "name": "RoleRevoked",
      "type": "event"
    },
    {
      "anonymous": false,
      "inputs": [
        {
          "indexed": false,
          "internalType": "uint256",
          "name": "priceMultiple",
          "type": "uint256"
        }
      ],
      "name": "SetPriceMultiple",
      "type": "event"
    },
    {
      "anonymous": false,
      "inputs": [
        {
          "indexed": false,
          "internalType": "uint256",
          "name": "threshold",
          "type": "uint256"
        }
      ],
      "name": "SetPriorityRestrictedThreshold",
      "type": "event"
    },
    {
      "anonymous": false,
      "inputs": [
        {
          "indexed": false,
          "internalType": "contract IERC20WithPermit",
          "name": "purchasingToken",
          "type": "address"
        }
      ],
      "name": "SetPurchasingToken",
      "type": "event"
    },
    {
      "anonymous": false,
      "inputs": [
        {
          "indexed": true,
          "internalType": "uint256",
          "name": "amount",
          "type": "uint256"
        },
        {
          "indexed": true,
          "internalType": "uint256",
          "name": "removalId",
          "type": "uint256"
        },
        {
          "indexed": false,
          "internalType": "uint256",
          "name": "currentHoldbackPercentage",
          "type": "uint256"
        },
        {
          "indexed": false,
          "internalType": "address",
          "name": "rNoriUnderlyingToken",
          "type": "address"
        },
        {
          "indexed": false,
          "internalType": "address",
          "name": "purchasingTokenAddress",
          "type": "address"
        }
      ],
      "name": "SkipRestrictedNORIERC20Transfer",
      "type": "event"
    },
    {
      "anonymous": false,
      "inputs": [
        {
          "indexed": false,
          "internalType": "address",
          "name": "account",
          "type": "address"
        }
      ],
      "name": "Unpaused",
      "type": "event"
    },
    {
      "anonymous": false,
      "inputs": [
        {
          "indexed": true,
          "internalType": "uint256",
          "name": "certificateId",
          "type": "uint256"
        },
        {
          "indexed": false,
          "internalType": "uint256[]",
          "name": "removalIds",
          "type": "uint256[]"
        },
        {
          "indexed": false,
          "internalType": "uint256[]",
          "name": "amounts",
          "type": "uint256[]"
        },
        {
          "indexed": false,
          "internalType": "uint256[]",
          "name": "removalIdsBeingReplaced",
          "type": "uint256[]"
        },
        {
          "indexed": false,
          "internalType": "uint256[]",
          "name": "amountsBeingReplaced",
          "type": "uint256[]"
        },
        {
          "indexed": true,
          "internalType": "address",
          "name": "purchasingTokenAddress",
          "type": "address"
        },
        {
          "indexed": false,
          "internalType": "uint256",
          "name": "priceMultiple",
          "type": "uint256"
        }
      ],
      "name": "UpdateCertificate",
      "type": "event"
    },
    {
      "anonymous": false,
      "inputs": [
        {
          "indexed": false,
          "internalType": "uint256",
          "name": "updatedFeePercentage",
          "type": "uint256"
        }
      ],
      "name": "UpdateNoriFeePercentage",
      "type": "event"
    },
    {
      "anonymous": false,
      "inputs": [
        {
          "indexed": false,
          "internalType": "address",
          "name": "updatedWalletAddress",
          "type": "address"
        }
      ],
      "name": "UpdateNoriFeeWalletAddress",
      "type": "event"
    },
    {
      "inputs": [],
      "name": "ALLOWLIST_ROLE",
      "outputs": [
        {
          "internalType": "bytes32",
          "name": "",
          "type": "bytes32"
        }
      ],
      "stateMutability": "view",
      "type": "function"
    },
    {
      "inputs": [],
      "name": "DEFAULT_ADMIN_ROLE",
      "outputs": [
        {
          "internalType": "bytes32",
          "name": "",
          "type": "bytes32"
        }
      ],
      "stateMutability": "view",
      "type": "function"
    },
    {
      "inputs": [],
      "name": "MARKET_ADMIN_ROLE",
      "outputs": [
        {
          "internalType": "bytes32",
          "name": "",
          "type": "bytes32"
        }
      ],
      "stateMutability": "view",
      "type": "function"
    },
    {
      "inputs": [],
      "name": "PAUSER_ROLE",
      "outputs": [
        {
          "internalType": "bytes32",
          "name": "",
          "type": "bytes32"
        }
      ],
      "stateMutability": "view",
      "type": "function"
    },
    {
      "inputs": [
        {
          "internalType": "uint256",
          "name": "purchaseTotal",
          "type": "uint256"
        }
      ],
      "name": "calculateCertificateAmountFromPurchaseTotal",
      "outputs": [
        {
          "internalType": "uint256",
          "name": "",
          "type": "uint256"
        }
      ],
      "stateMutability": "view",
      "type": "function"
    },
    {
      "inputs": [
        {
          "internalType": "uint256",
          "name": "purchaseTotal",
          "type": "uint256"
        }
      ],
      "name": "calculateCertificateAmountFromPurchaseTotalWithoutFee",
      "outputs": [
        {
          "internalType": "uint256",
          "name": "",
          "type": "uint256"
        }
      ],
      "stateMutability": "view",
      "type": "function"
    },
    {
      "inputs": [
        {
          "internalType": "uint256",
          "name": "amount",
          "type": "uint256"
        }
      ],
      "name": "calculateCheckoutTotal",
      "outputs": [
        {
          "internalType": "uint256",
          "name": "",
          "type": "uint256"
        }
      ],
      "stateMutability": "view",
      "type": "function"
    },
    {
      "inputs": [
        {
          "internalType": "uint256",
          "name": "amount",
          "type": "uint256"
        }
      ],
      "name": "calculateCheckoutTotalWithoutFee",
      "outputs": [
        {
          "internalType": "uint256",
          "name": "",
          "type": "uint256"
        }
      ],
      "stateMutability": "view",
      "type": "function"
    },
    {
      "inputs": [
        {
          "internalType": "uint256",
          "name": "amount",
          "type": "uint256"
        }
      ],
      "name": "calculateNoriFee",
      "outputs": [
        {
          "internalType": "uint256",
          "name": "",
          "type": "uint256"
        }
      ],
      "stateMutability": "view",
      "type": "function"
    },
    {
      "inputs": [
        {
          "internalType": "uint256",
          "name": "purchasingTokenAmount",
          "type": "uint256"
        }
      ],
      "name": "convertPurchasingTokenDecimalsToRemovalDecimals",
      "outputs": [
        {
          "internalType": "uint256",
          "name": "",
          "type": "uint256"
        }
      ],
      "stateMutability": "view",
      "type": "function"
    },
    {
      "inputs": [
        {
          "internalType": "uint256",
          "name": "removalAmount",
          "type": "uint256"
        }
      ],
      "name": "convertRemovalDecimalsToPurchasingTokenDecimals",
      "outputs": [
        {
          "internalType": "uint256",
          "name": "",
          "type": "uint256"
        }
      ],
      "stateMutability": "view",
      "type": "function"
    },
    {
      "inputs": [],
      "name": "getActiveSuppliers",
      "outputs": [
        {
          "internalType": "address[]",
          "name": "suppliers",
          "type": "address[]"
        }
      ],
      "stateMutability": "view",
      "type": "function"
    },
    {
      "inputs": [],
      "name": "getCertificateAddress",
      "outputs": [
        {
          "internalType": "address",
          "name": "",
          "type": "address"
        }
      ],
      "stateMutability": "view",
      "type": "function"
    },
    {
      "inputs": [],
      "name": "getNoriFeePercentage",
      "outputs": [
        {
          "internalType": "uint256",
          "name": "",
          "type": "uint256"
        }
      ],
      "stateMutability": "view",
      "type": "function"
    },
    {
      "inputs": [],
      "name": "getNoriFeeWallet",
      "outputs": [
        {
          "internalType": "address",
          "name": "",
          "type": "address"
        }
      ],
      "stateMutability": "view",
      "type": "function"
    },
    {
      "inputs": [],
      "name": "getPriceMultiple",
      "outputs": [
        {
          "internalType": "uint256",
          "name": "",
          "type": "uint256"
        }
      ],
      "stateMutability": "view",
      "type": "function"
    },
    {
      "inputs": [],
      "name": "getPriorityRestrictedThreshold",
      "outputs": [
        {
          "internalType": "uint256",
          "name": "",
          "type": "uint256"
        }
      ],
      "stateMutability": "view",
      "type": "function"
    },
    {
      "inputs": [],
      "name": "getPurchasingTokenAddress",
      "outputs": [
        {
          "internalType": "address",
          "name": "",
          "type": "address"
        }
      ],
      "stateMutability": "view",
      "type": "function"
    },
    {
      "inputs": [],
      "name": "getRemovalAddress",
      "outputs": [
        {
          "internalType": "address",
          "name": "",
          "type": "address"
        }
      ],
      "stateMutability": "view",
      "type": "function"
    },
    {
      "inputs": [
        {
          "internalType": "address",
          "name": "supplier",
          "type": "address"
        }
      ],
      "name": "getRemovalIdsForSupplier",
      "outputs": [
        {
          "internalType": "uint256[]",
          "name": "removalIds",
          "type": "uint256[]"
        }
      ],
      "stateMutability": "view",
      "type": "function"
    },
    {
      "inputs": [],
      "name": "getRestrictedNoriAddress",
      "outputs": [
        {
          "internalType": "address",
          "name": "",
          "type": "address"
        }
      ],
      "stateMutability": "view",
      "type": "function"
    },
    {
      "inputs": [
        {
          "internalType": "bytes32",
          "name": "role",
          "type": "bytes32"
        }
      ],
      "name": "getRoleAdmin",
      "outputs": [
        {
          "internalType": "bytes32",
          "name": "",
          "type": "bytes32"
        }
      ],
      "stateMutability": "view",
      "type": "function"
    },
    {
      "inputs": [
        {
          "internalType": "bytes32",
          "name": "role",
          "type": "bytes32"
        },
        {
          "internalType": "uint256",
          "name": "index",
          "type": "uint256"
        }
      ],
      "name": "getRoleMember",
      "outputs": [
        {
          "internalType": "address",
          "name": "",
          "type": "address"
        }
      ],
      "stateMutability": "view",
      "type": "function"
    },
    {
      "inputs": [
        {
          "internalType": "bytes32",
          "name": "role",
          "type": "bytes32"
        }
      ],
      "name": "getRoleMemberCount",
      "outputs": [
        {
          "internalType": "uint256",
          "name": "",
          "type": "uint256"
        }
      ],
      "stateMutability": "view",
      "type": "function"
    },
    {
      "inputs": [
        {
          "internalType": "bytes32",
          "name": "role",
          "type": "bytes32"
        },
        {
          "internalType": "address",
          "name": "account",
          "type": "address"
        }
      ],
      "name": "grantRole",
      "outputs": [],
      "stateMutability": "nonpayable",
      "type": "function"
    },
    {
      "inputs": [
        {
          "internalType": "bytes32",
          "name": "role",
          "type": "bytes32"
        },
        {
          "internalType": "address",
          "name": "account",
          "type": "address"
        }
      ],
      "name": "hasRole",
      "outputs": [
        {
          "internalType": "bool",
          "name": "",
          "type": "bool"
        }
      ],
      "stateMutability": "view",
      "type": "function"
    },
    {
      "inputs": [
        {
          "internalType": "contract Removal",
          "name": "removal",
          "type": "address"
        },
        {
          "internalType": "contract IERC20WithPermit",
          "name": "purchasingToken",
          "type": "address"
        },
        {
          "internalType": "contract Certificate",
          "name": "certificate",
          "type": "address"
        },
        {
          "internalType": "contract RestrictedNORI",
          "name": "restrictedNori",
          "type": "address"
        },
        {
          "internalType": "address",
          "name": "noriFeeWalletAddress",
          "type": "address"
        },
        {
          "internalType": "uint256",
          "name": "noriFeePercentage_",
          "type": "uint256"
        },
        {
          "internalType": "uint256",
          "name": "priceMultiple_",
          "type": "uint256"
        }
      ],
      "name": "initialize",
      "outputs": [],
      "stateMutability": "nonpayable",
      "type": "function"
    },
    {
      "inputs": [
        {
          "internalType": "bytes[]",
          "name": "data",
          "type": "bytes[]"
        }
      ],
      "name": "multicall",
      "outputs": [
        {
          "internalType": "bytes[]",
          "name": "results",
          "type": "bytes[]"
        }
      ],
      "stateMutability": "nonpayable",
      "type": "function"
    },
    {
      "inputs": [
        {
          "internalType": "address",
          "name": "",
          "type": "address"
        },
        {
          "internalType": "address",
          "name": "",
          "type": "address"
        },
        {
          "internalType": "uint256[]",
          "name": "ids",
          "type": "uint256[]"
        },
        {
          "internalType": "uint256[]",
          "name": "",
          "type": "uint256[]"
        },
        {
          "internalType": "bytes",
          "name": "",
          "type": "bytes"
        }
      ],
      "name": "onERC1155BatchReceived",
      "outputs": [
        {
          "internalType": "bytes4",
          "name": "",
          "type": "bytes4"
        }
      ],
      "stateMutability": "nonpayable",
      "type": "function"
    },
    {
      "inputs": [
        {
          "internalType": "address",
          "name": "",
          "type": "address"
        },
        {
          "internalType": "address",
          "name": "",
          "type": "address"
        },
        {
          "internalType": "uint256",
          "name": "id",
          "type": "uint256"
        },
        {
          "internalType": "uint256",
          "name": "",
          "type": "uint256"
        },
        {
          "internalType": "bytes",
          "name": "",
          "type": "bytes"
        }
      ],
      "name": "onERC1155Received",
      "outputs": [
        {
          "internalType": "bytes4",
          "name": "",
          "type": "bytes4"
        }
      ],
      "stateMutability": "nonpayable",
      "type": "function"
    },
    {
      "inputs": [],
      "name": "pause",
      "outputs": [],
      "stateMutability": "nonpayable",
      "type": "function"
    },
    {
      "inputs": [],
      "name": "paused",
      "outputs": [
        {
          "internalType": "bool",
          "name": "",
          "type": "bool"
        }
      ],
      "stateMutability": "view",
      "type": "function"
    },
    {
      "inputs": [
        {
          "internalType": "contract Removal",
          "name": "removal",
          "type": "address"
        },
        {
          "internalType": "contract Certificate",
          "name": "certificate",
          "type": "address"
        },
        {
          "internalType": "contract IERC20WithPermit",
          "name": "purchasingToken",
          "type": "address"
        },
        {
          "internalType": "contract RestrictedNORI",
          "name": "restrictedNORI",
          "type": "address"
        }
      ],
      "name": "registerContractAddresses",
      "outputs": [],
      "stateMutability": "nonpayable",
      "type": "function"
    },
    {
      "inputs": [
        {
          "internalType": "uint256",
          "name": "removalId",
          "type": "uint256"
        }
      ],
      "name": "release",
      "outputs": [],
      "stateMutability": "nonpayable",
      "type": "function"
    },
    {
      "inputs": [
        {
          "internalType": "bytes32",
          "name": "role",
          "type": "bytes32"
        },
        {
          "internalType": "address",
          "name": "account",
          "type": "address"
        }
      ],
      "name": "renounceRole",
      "outputs": [],
      "stateMutability": "nonpayable",
      "type": "function"
    },
    {
      "inputs": [
        {
          "internalType": "address",
          "name": "treasury",
          "type": "address"
        },
        {
          "internalType": "uint256",
          "name": "certificateId",
          "type": "uint256"
        },
        {
          "internalType": "uint256",
          "name": "totalAmountToReplace",
          "type": "uint256"
        },
        {
          "internalType": "uint256[]",
          "name": "removalIdsBeingReplaced",
          "type": "uint256[]"
        },
        {
          "internalType": "uint256[]",
          "name": "amountsBeingReplaced",
          "type": "uint256[]"
        }
      ],
      "name": "replace",
      "outputs": [],
      "stateMutability": "nonpayable",
      "type": "function"
    },
    {
      "inputs": [
        {
          "internalType": "bytes32",
          "name": "role",
          "type": "bytes32"
        },
        {
          "internalType": "address",
          "name": "account",
          "type": "address"
        }
      ],
      "name": "revokeRole",
      "outputs": [],
      "stateMutability": "nonpayable",
      "type": "function"
    },
    {
      "inputs": [
        {
          "internalType": "uint256",
          "name": "noriFeePercentage_",
          "type": "uint256"
        }
      ],
      "name": "setNoriFeePercentage",
      "outputs": [],
      "stateMutability": "nonpayable",
      "type": "function"
    },
    {
      "inputs": [
        {
          "internalType": "address",
          "name": "noriFeeWalletAddress",
          "type": "address"
        }
      ],
      "name": "setNoriFeeWallet",
      "outputs": [],
      "stateMutability": "nonpayable",
      "type": "function"
    },
    {
      "inputs": [
        {
          "internalType": "uint256",
          "name": "threshold",
          "type": "uint256"
        }
      ],
      "name": "setPriorityRestrictedThreshold",
      "outputs": [],
      "stateMutability": "nonpayable",
      "type": "function"
    },
    {
      "inputs": [
        {
          "internalType": "contract IERC20WithPermit",
          "name": "purchasingToken",
          "type": "address"
        },
        {
          "internalType": "uint256",
          "name": "priceMultiple",
          "type": "uint256"
        }
      ],
      "name": "setPurchasingTokenAndPriceMultiple",
      "outputs": [],
      "stateMutability": "nonpayable",
      "type": "function"
    },
    {
      "inputs": [
        {
          "internalType": "bytes4",
          "name": "interfaceId",
          "type": "bytes4"
        }
      ],
      "name": "supportsInterface",
      "outputs": [
        {
          "internalType": "bool",
          "name": "",
          "type": "bool"
        }
      ],
      "stateMutability": "view",
      "type": "function"
    },
    {
      "inputs": [
        {
          "internalType": "address",
          "name": "recipient",
          "type": "address"
        },
        {
          "internalType": "address",
          "name": "permitOwner",
          "type": "address"
        },
        {
          "internalType": "uint256",
          "name": "amount",
          "type": "uint256"
        },
        {
          "internalType": "uint256",
          "name": "deadline",
          "type": "uint256"
        },
        {
          "internalType": "uint8",
          "name": "v",
          "type": "uint8"
        },
        {
          "internalType": "bytes32",
          "name": "r",
          "type": "bytes32"
        },
        {
          "internalType": "bytes32",
          "name": "s",
          "type": "bytes32"
        }
      ],
      "name": "swap",
      "outputs": [],
      "stateMutability": "nonpayable",
      "type": "function"
    },
    {
      "inputs": [
        {
          "internalType": "address",
          "name": "recipient",
          "type": "address"
        },
        {
          "internalType": "uint256",
          "name": "amount",
          "type": "uint256"
        }
      ],
      "name": "swap",
      "outputs": [],
      "stateMutability": "nonpayable",
      "type": "function"
    },
    {
      "inputs": [
        {
          "internalType": "address",
          "name": "recipient",
          "type": "address"
        },
        {
          "internalType": "uint256",
          "name": "amount",
          "type": "uint256"
        },
        {
          "internalType": "address",
          "name": "supplier",
          "type": "address"
        }
      ],
      "name": "swapFromSupplier",
      "outputs": [],
      "stateMutability": "nonpayable",
      "type": "function"
    },
    {
      "inputs": [
        {
          "internalType": "address",
          "name": "recipient",
          "type": "address"
        },
        {
          "internalType": "address",
          "name": "permitOwner",
          "type": "address"
        },
        {
          "internalType": "uint256",
          "name": "amount",
          "type": "uint256"
        },
        {
          "internalType": "address",
          "name": "supplier",
          "type": "address"
        },
        {
          "internalType": "uint256",
          "name": "deadline",
          "type": "uint256"
        },
        {
          "internalType": "uint8",
          "name": "v",
          "type": "uint8"
        },
        {
          "internalType": "bytes32",
          "name": "r",
          "type": "bytes32"
        },
        {
          "internalType": "bytes32",
          "name": "s",
          "type": "bytes32"
        }
      ],
      "name": "swapFromSupplier",
      "outputs": [],
      "stateMutability": "nonpayable",
      "type": "function"
    },
    {
      "inputs": [
        {
          "internalType": "address",
          "name": "recipient",
          "type": "address"
        },
        {
          "internalType": "address",
          "name": "purchaser",
          "type": "address"
        },
        {
          "internalType": "uint256",
          "name": "amount",
          "type": "uint256"
        },
        {
          "internalType": "address",
          "name": "supplier",
          "type": "address"
        }
      ],
      "name": "swapFromSupplierWithoutFee",
      "outputs": [],
      "stateMutability": "nonpayable",
      "type": "function"
    },
    {
      "inputs": [
        {
          "internalType": "address",
          "name": "recipient",
          "type": "address"
        },
        {
          "internalType": "address",
          "name": "purchaser",
          "type": "address"
        },
        {
          "internalType": "uint256",
          "name": "amount",
          "type": "uint256"
        }
      ],
      "name": "swapWithoutFee",
      "outputs": [],
      "stateMutability": "nonpayable",
      "type": "function"
    },
    {
      "inputs": [],
      "name": "unpause",
      "outputs": [],
      "stateMutability": "nonpayable",
      "type": "function"
    },
    {
      "inputs": [
        {
          "internalType": "uint256",
          "name": "removalId",
          "type": "uint256"
        }
      ],
      "name": "withdraw",
      "outputs": [],
      "stateMutability": "nonpayable",
      "type": "function"
    }
  ],
  "numDeployments": 11,
  "bytecode": "0x60808060405234620000c6576000549060ff8260081c1662000074575060ff8082161062000038575b604051615f539081620000cc8239f35b60ff90811916176000557f7f26b83ff96e1f2b6a682f133852f6798a09c465da95921460cefb3847402498602060405160ff8152a13862000028565b62461bcd60e51b815260206004820152602760248201527f496e697469616c697a61626c653a20636f6e747261637420697320696e697469604482015266616c697a696e6760c81b6064820152608490fd5b600080fdfe60806040526004361015610013575b600080fd5b60003560e01c806301ffc9a7146103fb57806302e0affa146103f25780631ce08c0b146103e9578063248a9ca3146103e057806325fbff7a146103d75780632c9fcbd7146103ce5780632e1a7d4d146103c55780632f2ff15d146103bc5780633030b532146103b357806332786049146103aa57806336568abe146103a157806337bdc99b146103985780633f4ba83a1461038f578063453aabc31461038657806346e738f31461037d57806347883bce146103745780634b66f6651461036b578063596abe94146103625780635c975abb146103595780636cf250e21461035057806374d3627b146103475780637f49f7381461033e5780638456cb591461033557806384e043221461032c578063856e115a1461032357806385d3d64b1461031a5780638c6b8d98146103115780639010d07c1461030857806391d14854146102ff5780639d1fbcf5146102f6578063a12d6874146102ed578063a217fddf146102e4578063a5758566146102db578063a8f881c0146102d2578063ac9650d8146102c9578063b33f9527146102c0578063b9054257146102b7578063bc197c81146102ae578063c0c7028c146102a5578063ca15c8731461029c578063d004f0f714610293578063d41436ce1461028a578063d547741f14610281578063d6f0d39f14610278578063d797462f1461026f578063dfa4bb0f14610266578063e63ab1e91461025d578063e7f78c7214610254578063f23a6e611461024b5763f9c285281461024357600080fd5b61000e612621565b5061000e612583565b5061000e61255a565b5061000e61251e565b5061000e6124ed565b5061000e612497565b5061000e61245b565b5061000e61236e565b5061000e61231a565b5061000e6122d2565b5061000e6122a5565b5061000e6121ea565b5061000e61212b565b5061000e6120dd565b5061000e611f76565b5061000e611ea6565b5061000e611d8d565b5061000e611c59565b5061000e611c3c565b5061000e611afd565b5061000e611ade565b5061000e611a86565b5061000e611a3f565b5061000e61166a565b5061000e611515565b5061000e61140c565b5061000e6113cb565b5061000e611370565b5061000e611347565b5061000e61129c565b5061000e61127c565b5061000e611258565b5061000e6110dd565b5061000e611070565b5061000e610fdb565b5061000e610f2c565b5061000e610de6565b5061000e610d3e565b5061000e610c3d565b5061000e610af2565b5061000e610a69565b5061000e610a2d565b5061000e610926565b5061000e610782565b5061000e610759565b5061000e610654565b5061000e6105cb565b5061000e6105a4565b5061000e6104d0565b503461000e57602060031936011261000e576004357fffffffff00000000000000000000000000000000000000000000000000000000811680910361000e57807f5a05180f0000000000000000000000000000000000000000000000000000000060209214908115610473575b506040519015158152f35b7f7965db0b000000000000000000000000000000000000000000000000000000008114915081156104a6575b5038610468565b7f01ffc9a7000000000000000000000000000000000000000000000000000000009150143861049f565b503461000e57602060031936011261000e576105586105486040517f9d1fbcf50000000000000000000000000000000000000000000000000000000081526004356004820152602081602481305afa908115610597575b600091610569575b5061013154908160640291606483040361055c576138ce565b6040519081529081906020820190565b0390f35b6105646129f3565b6138ce565b61058a915060203d8111610590575b6105828183611593565b81019061369f565b3861052f565b503d610578565b61059f6136ae565b610527565b503461000e57602060031936011261000e5760206105c3600435613a57565b604051908152f35b503461000e57602060031936011261000e5760043560005260976020526020600160406000200154604051908152f35b6001600160a01b0381160361000e57565b90815180825260208080930193019160005b82811061062c575050505090565b83518552938101939281019260010161061e565b90602061065192818152019061060c565b90565b503461000e5760208060031936011261000e5760043590610674826105fb565b6001600160a01b03600092168252610137815260408083209260028401549080948190600196878201549081975b8683111561072957506106b5915061375c565b955b848111156106cc578551806105588982610640565b866106e1828490600052602052604060002090565b8054908a875b8381106107015750505050506106fc90612a0a565b6106b7565b8293949761071d610713838596612fcf565b918481019a612b09565b5201908a9392916106e7565b90610741610747918488528584528988205490612ce1565b92612a0a565b91906106a2565b600091031261000e57565b503461000e57600060031936011261000e5760206001600160a01b0361012f5416604051908152f35b503461000e57602060031936011261000e5760043561079f612fe3565b6001600160a01b038160201c166107b5816154dd565b156108fc576107c481836152da565b6107e66107da61012d546001600160a01b031690565b6001600160a01b031690565b6040517efdd58e0000000000000000000000000000000000000000000000000000000081523060048201526024810184905290602082604481845afa9182156108ef575b6000926108cf575b50803b1561000e576040517ff242432a0000000000000000000000000000000000000000000000000000000081523060048201526001600160a01b039390931660248401526044830193909352606482015260a06084820152600060a482018190529091829060c490829084905af180156108c2575b6108af575b005b806108bc6108ad92611555565b8061074e565b6108ca6136ae565b6108a8565b6108e891925060203d8111610590576105828183611593565b9038610832565b6108f76136ae565b61082a565b60046040517f60b39bc5000000000000000000000000000000000000000000000000000000008152fd5b503461000e57604060031936011261000e576004356109b660243561094a816105fb565b6109b160009380855260976020526109686001604087200154612905565b610970612fe3565b808552609760205260ff61099a8460408820906001600160a01b0316600052602052604060002090565b5416156109ba5760005260c9602052604060002090565b613251565b5080f35b80855260976020526109e28360408720906001600160a01b0316600052602052604060002090565b600160ff19825416179055336001600160a01b038416827f2f8788117e7eff1d82e926ec794901d17c78024a50270940304540a733656f0d8880a460005260c9602052604060002090565b503461000e57600060031936011261000e5760206040517f26a560d834a19637eccba4611bbc09fb32970bb627da0a70f14f83fdc9822cbc8152f35b503461000e57602060031936011261000e57600435610a866126e4565b610a8e612fe3565b60648111610ac8576020817fb9768ed0b3c8d7421842f14094358b08617bad6081b469cd89de35a8d46678589261013355604051908152a1005b60046040517fedb73407000000000000000000000000000000000000000000000000000000008152fd5b503461000e57604060031936011261000e57602435600435610b13826105fb565b6001600160a01b03821691338303610bd3576109b691610b31612fe3565b600093818552609760205260ff610b5e8460408820906001600160a01b0316600052602052604060002090565b5416610b76575b50835260c960205260408320613309565b8185526097602052610b9e8360408720906001600160a01b0316600052602052604060002090565b60ff1981541690553390827ff6391f5c32d9c69d2a47ea670b442974b53935d1edc7fd64eb21e047a839171b8780a438610b65565b608460405162461bcd60e51b815260206004820152602f60248201527f416363657373436f6e74726f6c3a2063616e206f6e6c792072656e6f756e636560448201527f20726f6c657320666f722073656c6600000000000000000000000000000000006064820152fd5b503461000e57602060031936011261000e57600435610c5a612fe3565b610c706107da61012d546001600160a01b031690565b906001600160a01b03918281163303610d14576040517efdd58e0000000000000000000000000000000000000000000000000000000081523060048201526024810183905290602090829060449082905afa908115610d07575b600091610ce9575b5015610cda57005b6108ad918160201c16906152da565b610d01915060203d8111610590576105828183611593565b38610cd2565b610d0f6136ae565b610cca565b60046040517f9a5ed74b000000000000000000000000000000000000000000000000000000008152fd5b503461000e57600060031936011261000e57610d586127ce565b60335460ff811615610d975760ff19166033557f5db9ee0a495bf2e6ff9c91a7834c1ba4fdd244a5e8aa4e537bd38aeae4b073aa6020604051338152a1005b606460405162461bcd60e51b815260206004820152601460248201527f5061757361626c653a206e6f74207061757365640000000000000000000000006044820152fd5b60ff81160361000e57565b503461000e5760e060031936011261000e576108ad600435610e07816105fb565b610ed860243591610e17836105fb565b610eb660443593610ee860843593610e2e85610ddb565b610e36612fe3565b610e3f87615344565b610e498733614d8b565b98929591969097610e8e60208c604051809381927fa5758566000000000000000000000000000000000000000000000000000000008352600483019190602083019252565b0381305afa908115610f1f575b600091610f01575b5060c4359160a43591606435908661515f565b610ebe6115b6565b600181529860208a01526001600160a01b03166040890152565b6001600160a01b03166060870152565b608085015260a084015260c083015260e0820152614c08565b610f19915060203d8111610590576105828183611593565b38610ea3565b610f276136ae565b610e9b565b503461000e57602060031936011261000e57610558610f5a600435610f5081615344565b6101315490613958565b604051907f1ce08c0b0000000000000000000000000000000000000000000000000000000082526004820152602081602481305afa908115610fce575b600091610fb0575b506040519081529081906020820190565b610fc8915060203d8111610590576105828183611593565b38610f9f565b610fd66136ae565b610f97565b503461000e57606060031936011261000e576108ad600435610ffc816105fb565b6001600160a01b036024359161102f604435611017816105fb565b61101f612fe3565b61102885615344565b8433614e2b565b9490936040939293519661104288611576565b600188526020880152336040880152166060860152608085015260a084015260c083015260e0820152614c08565b503461000e57600060031936011261000e5760206001600160a01b0361012d5416604051908152f35b6020908160408183019282815285518094520193019160005b8281106110c0575050505090565b83516001600160a01b0316855293810193928101926001016110b2565b503461000e57600060031936011261000e576000611104610135546001600160a01b031690565b906001600160a01b0360018161114082611132876001600160a01b0316600052610136602052604060002090565b01546001600160a01b031690565b166111ec575b50506111518161375c565b91611178611173826001600160a01b0316600052610136602052604060002090565b613ba5565b6000915b83831061119157604051806105588782611099565b6111c1916111b36020926111a58689612b09565b906001600160a01b03169052565b01516001600160a01b031690565b6111e5610741611173836001600160a01b0316600052610136602052604060002090565b919061117c565b8092509161121281611132866001600160a01b0316600052610136602052604060002090565b828516905b8184821603611227575050611146565b6107418361113261125093979596976001600160a01b0316600052610136602052604060002090565b939291611217565b503461000e57600060031936011261000e57602060ff603354166040519015158152f35b503461000e57600060031936011261000e57602061013354604051908152f35b503461000e57608060031936011261000e576108ad6004356112bd816105fb565b6024356112c9816105fb565b604435916112fc6064356112dc816105fb565b6112e4612fe3565b6112ec6126e4565b6112f585615344565b8484614e2b565b9490936040939293519661130f88611576565b6000885260208801526001600160a01b038092166040880152166060860152608085015260a084015260c083015260e0820152614c08565b503461000e57600060031936011261000e5760206001600160a01b036101325416604051908152f35b503461000e57600060031936011261000e5761138a6127ce565b611392612fe3565b600160ff1960335416176033557f62e78cea01bee320cd4e420270b5ea74000d11b0c9f74754ebdbfc544b05a2586020604051338152a1005b503461000e57604060031936011261000e576114016004356113ec816105fb565b6113f4612fe3565b6113fc6126e4565b613bee565b6108ad602435613d2c565b503461000e5761010060031936011261000e576108ad60043561142e816105fb565b610ed86024359161143e836105fb565b610eb660443593610ee860643593611455856105fb565b61147d60a4359561146587610ddb565b61146d612fe3565b61147689615344565b8885614e2b565b989295919690976114c260208c604051809381927fa5758566000000000000000000000000000000000000000000000000000000008352600483019190602083019252565b0381305afa908115611508575b6000916114ea575b5060e4359160c43591608435908661515f565b611502915060203d8111610590576105828183611593565b386114d7565b6115106136ae565b6114cf565b503461000e57600060031936011261000e5760206001600160a01b036101305416604051908152f35b50634e487b7160e01b600052604160045260246000fd5b67ffffffffffffffff811161156957604052565b61157161153e565b604052565b610100810190811067ffffffffffffffff82111761156957604052565b90601f601f19910116810190811067ffffffffffffffff82111761156957604052565b604051906115c382611576565b565b604051906040820182811067ffffffffffffffff82111761156957604052565b60209067ffffffffffffffff81116115ff575b60051b0190565b61160761153e565b6115f8565b81601f8201121561000e57803591611623836115e5565b926116316040519485611593565b808452602092838086019260051b82010192831161000e578301905b82821061165b575050505090565b8135815290830190830161164d565b503461000e5760a060031936011261000e576116876004356105fb565b67ffffffffffffffff60643581811161000e576116a890369060040161160c565b9060843590811161000e576116c190369060040161160c565b6116c9612fe3565b6116d16126e4565b6116e76107da61012e546001600160a01b031690565b6040517fd2f3ea4300000000000000000000000000000000000000000000000000000000815260208180611725602435600483019190602083019252565b0381855afa908115611a32575b600091611a13575b50156119dd576020600491604051928380927fdd39c7500000000000000000000000000000000000000000000000000000000082525afa9081156119d0575b6000916119b1575b5060443511611987576118169161181e916118436107da61012d6117fb600460206117b66107da85546001600160a01b031690565b604051928380927f964eec700000000000000000000000000000000000000000000000000000000082525afa90811561197a575b60009161195b575b5060443561566e565b61183661180960443561569f565b929a8b80939b929b61378d565b9a8b9a61378d565b998a9161182e89846044356155da565b600435613d8b565b546001600160a01b031690565b9061185a6107da61012e546001600160a01b031690565b604051936118828561187460208201906001602083019252565b03601f198101875286611593565b833b1561000e577f40a27cbb002b48214250b00c6c1b15ff8276b363217ca42c7b1720bcf269a76c946000886001600160a01b03968983611936976118f7604051978896879586947f2eb2c2d600000000000000000000000000000000000000000000000000000000865230600487016136bb565b03925af1801561194e575b61193b575b5061191e6107da61012f546001600160a01b031690565b9261013154916040519586951698602435988661370a565b0390a3005b806108bc61194892611555565b38611907565b6119566136ae565b611902565b611974915060203d602011610590576105828183611593565b386117f2565b6119826136ae565b6117ea565b60046040517fb106efdf000000000000000000000000000000000000000000000000000000008152fd5b6119ca915060203d602011610590576105828183611593565b38611781565b6119d86136ae565b611779565b6040517fb281ad8000000000000000000000000000000000000000000000000000000000815260248035600483015290fd5b0390fd5b611a2c915060203d602011610590576105828183611593565b3861173a565b611a3a6136ae565b611732565b503461000e57604060031936011261000e5760043560005260c960205260206001600160a01b03611a766024356040600020612fa9565b9190546040519260031b1c168152f35b503461000e57604060031936011261000e57602060ff611ad2602435611aab816105fb565b600435600052609784526040600020906001600160a01b0316600052602052604060002090565b54166040519015158152f35b503461000e57602060031936011261000e5760206105c3600435613b0b565b503461000e57608060031936011261000e577f99ad00cf49121d7da2a94fdef5f9ef6c736c933295dcb1cfdfc509905fd89f31600435611b3c816105fb565b602435611b48816105fb565b611c37611bfe611bf0611bf060443595611b61876105fb565b611836606435611b70816105fb565b611b78612823565b611b80612fe3565b6001600160a01b0373ffffffffffffffffffffffffffffffffffffffff19908061012d9516828654161785558061012e9a16828b5416178a5561012f9a16908a54161789556001600160a01b03610130911673ffffffffffffffffffffffffffffffffffffffff19825416179055565b93546001600160a01b031690565b61013054604080516001600160a01b03958616815295851660208701529184169185019190915291909116606083015281906080820190565b0390a1005b503461000e57600060031936011261000e57602060405160008152f35b503461000e5760208060031936011261000e5761054861055891600435611c7f81615344565b611cc98280611c916101315485613958565b604051809481927f1ce08c0b000000000000000000000000000000000000000000000000000000008352600483019190602083019252565b0381305afa918215611d80575b600092611d5f575b506040517fdfa4bb0f00000000000000000000000000000000000000000000000000000000815260048101939093529091908180602481015b0381305afa928315611d52575b600093611d33575b5050612ce1565b611d4a929350803d10610590576105828183611593565b903880611d2c565b611d5a6136ae565b611d24565b611d179250611d7a90823d8411610590576105828183611593565b91611cde565b611d886136ae565b611cd6565b503461000e57600060031936011261000e57602061013154604051908152f35b9181601f8401121561000e5782359167ffffffffffffffff831161000e576020808501948460051b01011161000e57565b60005b838110611df15750506000910152565b8181015183820152602001611de1565b90601f19601f602093611e1f81518092818752878088019101611dde565b0116010190565b602080820190808352835180925260408301928160408460051b8301019501936000915b848310611e5a5750505050505090565b9091929394958480611e96837fffffffffffffffffffffffffffffffffffffffffffffffffffffffffffffffc086600196030187528a51611e01565b9801930193019194939290611e4a565b503461000e5760208060031936011261000e5760043567ffffffffffffffff811161000e57611ed9903690600401611dad565b611ee2816115e5565b92611ef06040519485611593565b818452601f19611eff836115e5565b0160005b818110611f675750505060005b818110611f2557604051806105588682611e26565b80611f47611f41611f3a611f62948688612a39565b3691612ad2565b30612ba9565b611f518287612b09565b52611f5c8186612b09565b50612a0a565b611f10565b60608682018401528201611f03565b503461000e5760e060031936011261000e57600435611f94816105fb565b612013602435611fa3816105fb565b60443592611fb0846105fb565b606435611fbc816105fb565b60843590611fc9826105fb565b60005495611fee60ff8860081c1615809881996120cf575b81156120af575b50613445565b86612001600160ff196000541617600055565b612079575b60c4359460a435946134b6565b61201957005b6120467fffffffffffffffffffffffffffffffffffffffffffffffffffffffffffff00ff60005416600055565b604051600181527f7f26b83ff96e1f2b6a682f133852f6798a09c465da95921460cefb3847402498908060208101611c37565b6120aa6101007fffffffffffffffffffffffffffffffffffffffffffffffffffffffffffff00ff6000541617600055565b612006565b303b159150816120c1575b5038611fe8565b6001915060ff1614386120ba565b600160ff8216109150611fe1565b503461000e57600060031936011261000e57602061013454604051908152f35b9181601f8401121561000e5782359167ffffffffffffffff831161000e576020838186019501011161000e57565b503461000e5760a060031936011261000e576121486004356105fb565b6121536024356105fb565b67ffffffffffffffff60443581811161000e57612174903690600401611dad565b60649291923582811161000e5761218f903690600401611dad565b505060843591821161000e57610558926121b06121b79336906004016120fd565b50506137e2565b6040517fffffffff0000000000000000000000000000000000000000000000000000000090911681529081906020820190565b503461000e57602060031936011261000e576105586105486040517f9d1fbcf50000000000000000000000000000000000000000000000000000000081526004356004820152602081602481305afa908115612298575b60009161227a575b50612267610133546064018060641161226d575b6101315490612caa565b906138ce565b6122756129f3565b61225d565b612292915060203d8111610590576105828183611593565b38612249565b6122a06136ae565b612241565b503461000e57602060031936011261000e5760043560005260c96020526020604060002054604051908152f35b503461000e57604060031936011261000e576108ad6004356122f3816105fb565b6001600160a01b0360243591612307612fe3565b61231083615344565b61102f8333614d8b565b503461000e57606060031936011261000e576108ad60043561233b816105fb565b602435612347816105fb565b60443591612353612fe3565b61235b6126e4565b61236483615344565b6112fc8383614d8b565b503461000e57604060031936011261000e576004356109b6602435612392816105fb565b60009280845260976020526123ad6001604086200154612905565b6123b5612fe3565b808452609760205260ff6123df8360408720906001600160a01b0316600052602052604060002090565b54166123f6575b835260c960205260408320613309565b808452609760205261241e8260408620906001600160a01b0316600052602052604060002090565b60ff198154169055336001600160a01b038316827ff6391f5c32d9c69d2a47ea670b442974b53935d1edc7fd64eb21e047a839171b8780a46123e6565b503461000e57600060031936011261000e5760206040517f3fb0aaa9e8051cfc6c234a5d843bed33910f70c647055f27247c10144c7552e18152f35b503461000e57602060031936011261000e577fa01a3b548ccd65893a6acee4ea0da2602fbd2aef7e3040483b026d9544d8074c60206004356124d7612fe3565b6124df6126e4565b8061013455604051908152a1005b503461000e57602060031936011261000e57610558610f5a612516610131546101335490612caa565b6004356139be565b503461000e57600060031936011261000e5760206040517f65d7a28e3265b37a6474929f336521b332c1681b933f6cb9f3376673440d862a8152f35b503461000e57600060031936011261000e5760206001600160a01b0361012e5416604051908152f35b503461000e5760a060031936011261000e576125a06004356105fb565b6125ab6024356105fb565b60843567ffffffffffffffff811161000e576125cb9036906004016120fd565b50506125d5612fe3565b6125ec6001600160a01b0361012d5416331461384f565b6125f76044356151e3565b60206040517ff23a6e61000000000000000000000000000000000000000000000000000000008152f35b503461000e57602060031936011261000e576001600160a01b03600435612647816105fb565b61264f6126e4565b612657612fe3565b1680156126ab5760207fe846164b6756d387276a93f2200cfd28f5792fffe3530e65d95d7535cd43dab4916101328173ffffffffffffffffffffffffffffffffffffffff19825416179055604051908152a1005b60046040517fb79b5914000000000000000000000000000000000000000000000000000000008152fd5b90600052602052604060002090565b3360009081527fb34b648d285118a9ee5f8cc4675698367f99ed092c20555b8b9380d41d2fafb5602052604090205460ff161561271d57565b611a0f60486127b661272e33612dc7565b6127a8612739612e71565b6040519485937f416363657373436f6e74726f6c3a206163636f756e74200000000000000000006020860152612779815180926020603789019101611dde565b84017f206973206d697373696e6720726f6c6520000000000000000000000000000000603782015201906129cb565b03601f198101835282611593565b60405191829162461bcd60e51b8352600483016129e2565b3360009081527f793844da0378ca0230b21a4013ef02cf55735b90b39c85241478ff94b5eceb28602052604090205460ff161561280757565b611a0f60486127b661281833612dc7565b6127a8612739612f0d565b3360009081527f683723e34a772b6e4f2c919bba7fa32ed8ea11a8325f54da7db716e9d9dd98c7602052604090205460ff161561285c57565b61286533612dc7565b600061286f612cee565b90603061287b83612d28565b53607861288783612d3e565b5360415b600181116128aa57611a0f60486127b6866127a8876127398815612d7c565b90807f3031323334353637383961626364656600000000000000000000000000000000600f6128f3931660108110156128f8575b1a6128e98486612d4f565b5360041c91612d6e565b61288b565b612900612a22565b6128de565b80600052609760205260ff612931336040600020906001600160a01b0316600052602052604060002090565b54161561293b5750565b61294433612dc7565b9061294d612cee565b90603061295983612d28565b53607861296583612d3e565b5360415b6001811161298857611a0f60486127b6866127a8876127398815612d7c565b90807f3031323334353637383961626364656600000000000000000000000000000000600f6129c6931660108110156128f8571a6128e98486612d4f565b612969565b906129de60209282815194859201611dde565b0190565b906020610651928181520190611e01565b50634e487b7160e01b600052601160045260246000fd5b6001906000198114612a1a570190565b6129de6129f3565b50634e487b7160e01b600052603260045260246000fd5b9190811015612a9a575b60051b810135907fffffffffffffffffffffffffffffffffffffffffffffffffffffffffffffffe18136030182121561000e57019081359167ffffffffffffffff831161000e57602001823603811361000e579190565b612aa2612a22565b612a43565b601f19601f60209267ffffffffffffffff8111612ac5575b01160190565b612acd61153e565b612abf565b929192612ade82612aa7565b91612aec6040519384611593565b82948184528183011161000e578281602093846000960137010152565b6020918151811015612b1e575b60051b010190565b612b26612a22565b612b16565b604051906060820182811067ffffffffffffffff821117612b9c575b604052602782527f206661696c6564000000000000000000000000000000000000000000000000006040837f416464726573733a206c6f772d6c6576656c2064656c65676174652063616c6c60208201520152565b612ba461153e565b612b47565b90813b15612c00576000816106519360208394519201905af43d15612bf9573d612bd281612aa7565b90612be06040519283611593565b81523d6000602083013e5b612bf3612b2b565b91612c6a565b6060612beb565b608460405162461bcd60e51b815260206004820152602660248201527f416464726573733a2064656c65676174652063616c6c20746f206e6f6e2d636f60448201527f6e747261637400000000000000000000000000000000000000000000000000006064820152fd5b90919015612c76575090565b815115612c865750805190602001fd5b611a0f9060405191829162461bcd60e51b8352602060048401526024830190611e01565b81810292918115918404141715612cbd57565b6115c36129f3565b9060028201809211612cbd57565b9060018201809211612cbd57565b91908201809211612cbd57565b604051906080820182811067ffffffffffffffff821117612d1b575b604052604282526060366020840137565b612d2361153e565b612d0a565b602090805115612d36570190565b6129de612a22565b602190805160011015612d36570190565b906020918051821015612d6157010190565b612d69612a22565b010190565b600019908015612a1a570190565b15612d8357565b606460405162461bcd60e51b815260206004820152602060248201527f537472696e67733a20686578206c656e67746820696e73756666696369656e746044820152fd5b604051906060820182811067ffffffffffffffff821117612e64575b604052602a825260403660208401376030612dfd83612d28565b536078612e0983612d3e565b536029905b60018211612e2157610651915015612d7c565b807f3031323334353637383961626364656600000000000000000000000000000000600f612e5e931660108110156128f8571a6128e98486612d4f565b90612e0e565b612e6c61153e565b612de3565b7f3fb0aaa9e8051cfc6c234a5d843bed33910f70c647055f27247c10144c7552e1612e9a612cee565b906030612ea683612d28565b536078612eb283612d3e565b536041905b60018211612eca57610651915015612d7c565b807f3031323334353637383961626364656600000000000000000000000000000000600f612f07931660108110156128f8571a6128e98486612d4f565b90612eb7565b7f65d7a28e3265b37a6474929f336521b332c1681b933f6cb9f3376673440d862a612f36612cee565b906030612f4283612d28565b536078612f4e83612d3e565b536041905b60018211612f6657610651915015612d7c565b807f3031323334353637383961626364656600000000000000000000000000000000600f612fa3931660108110156128f8571a6128e98486612d4f565b90612f53565b8054821015612fc2575b60005260206000200190600090565b612fca612a22565b612fb3565b90612fd991612fa9565b90549060031b1c90565b60ff60335416612fef57565b606460405162461bcd60e51b815260206004820152601060248201527f5061757361626c653a20706175736564000000000000000000000000000000006044820152fd5b6130969061303f612fe3565b6001600160a01b0381811660009081527f683723e34a772b6e4f2c919bba7fa32ed8ea11a8325f54da7db716e9d9dd98c760205260408082205490919060ff1615613099575b80805260c960205220911690613284565b50565b80805260976020526130c084838320906001600160a01b0316600052602052604060002090565b600160ff1982541617905533838516827f2f8788117e7eff1d82e926ec794901d17c78024a50270940304540a733656f0d8180a4613085565b61309690613105612fe3565b6001600160a01b0381811660009081527f1993b25aada9b83773e0286f0950968fd5c4a170648b02185e5fc22cc12f52dd60205260408082209091907f26a560d834a19637eccba4611bbc09fb32970bb627da0a70f14f83fdc9822cbc9060ff905b54161561317f575b815260c960205220911690613284565b80825260976020526131a685848420906001600160a01b0316600052602052604060002090565b600160ff1982541617905533848616827f2f8788117e7eff1d82e926ec794901d17c78024a50270940304540a733656f0d8580a461316f565b613096906131eb612fe3565b6001600160a01b0381811660009081527fb34b648d285118a9ee5f8cc4675698367f99ed092c20555b8b9380d41d2fafb560205260408082209091907f3fb0aaa9e8051cfc6c234a5d843bed33910f70c647055f27247c10144c7552e19060ff90613167565b6001600160a01b03610651921690613284565b916132809183549060031b600019811b9283911b169119161790565b9055565b600181019082600052816020526040600020541560001461330157826132df6132c68354680100000000000000008110156132f4575b60018101855584612fa9565b819391549060031b600019811b9283911b169119161790565b90555491600052602052604060002055600190565b6132fc61153e565b6132ba565b505050600090565b6001600160a01b03610651921690613386565b6012039060128211612cbd57565b906000198201918211612cbd57565b91908203918211612cbd57565b805490811561337057600019809201916133608383612fa9565b909182549160031b1b1916905555565b634e487b7160e01b600052603160045260246000fd5b600181019180600052826020526040600020549283151560001461343c576126d56133d99360009560001980820182811161342f575b8354918201918211613422575b8082036133df575b505050613346565b55600190565b613409613403916133f36134199487612fa9565b90549060031b1c92839187612fa9565b90613264565b8590600052602052604060002090565b553880806133d1565b61342a6129f3565b6133c9565b6134376129f3565b6133bc565b50505050600090565b1561344c57565b608460405162461bcd60e51b815260206004820152602e60248201527f496e697469616c697a61626c653a20636f6e747261637420697320616c72656160448201527f647920696e697469616c697a65640000000000000000000000000000000000006064820152fd5b959491939092936001600160a01b0392838316156126ab5761359e6135fd966135736135a4946136029b6135cf986134ec61368e565b6134f461368e565b61350560ff60005460081c1661361d565b60ff196033541660335561351761368e565b61351f61368e565b61352761368e565b61012d911673ffffffffffffffffffffffffffffffffffffffff198254161790556001600160a01b0361012e911673ffffffffffffffffffffffffffffffffffffffff19825416179055565b6001600160a01b03610130911673ffffffffffffffffffffffffffffffffffffffff19825416179055565b61013355565b6001600160a01b03610132911673ffffffffffffffffffffffffffffffffffffffff19825416179055565b6135da600061013455565b6113fc61013573ffffffffffffffffffffffffffffffffffffffff198154169055565b613d2c565b61360b33613033565b613614336130f9565b6115c3336131df565b1561362457565b608460405162461bcd60e51b815260206004820152602b60248201527f496e697469616c697a61626c653a20636f6e7472616374206973206e6f74206960448201527f6e697469616c697a696e670000000000000000000000000000000000000000006064820152fd5b6115c360ff60005460081c1661361d565b9081602091031261000e575190565b506040513d6000823e3d90fd5b939061065195936136ee916136fc946001600160a01b03809216885216602087015260a0604087015260a086019061060c565b90848203606086015261060c565b916080818403910152611e01565b9594939060809361373b6137579461372d6137499460a08c5260a08c019061060c565b908a820360208c015261060c565b9088820360408a015261060c565b90868203606088015261060c565b930152565b90613766826115e5565b6137736040519182611593565b828152601f1961378382946115e5565b0190602036910137565b919091805183116137cc576137a18361375c565b9260019182809201915b8281106137b85750505050565b80849160051b8084015190880152016137ab565b634e487b7160e01b600052600160045260246000fd5b6137ea612fe3565b6138016001600160a01b0361012d5416331461384f565b60005b828110613832575050507fbc197c810000000000000000000000000000000000000000000000000000000090565b8061384561384a9260051b8401356151e3565b612a0a565b613804565b1561385657565b606460405162461bcd60e51b815260206004820152601a60248201527f4d61726b65743a2053656e646572206e6f742052656d6f76616c0000000000006044820152fd5b50634e487b7160e01b600052601260045260246000fd5b81156138bb570490565b6138c361389a565b0490565b1561000e57565b61271091600019838309928083029283808610950394808603951461394b579082916138fb8684116138c7565b096001821901821680920460028082600302188083028203028083028203028083028203028083028203028083028203028092029003029360018380600003040190848311900302920304170290565b50509061065192506138b1565b600019828209828202918280831092039180830392146139b457816064111561000e577f5c28f5c28f5c28f5c28f5c28f5c28f5c28f5c28f5c28f5c28f5c28f5c28f5c29936064910990828211900360fe1b910360021c170290565b5050606491500490565b9060001981830981830291828083109203918083039214613a1b57612710908282111561000e577fbc01a36e2eb1c432ca57a786c226809d495182a9930be0ded288ce703afb7e91940990828211900360fc1b910360041c170290565b505061271091500490565b9081602091031261000e575161065181610ddb565b604d8111613a4a575b600a0a90565b613a526129f3565b613a44565b60ff600460206001600160a01b0361012f5416604051928380927f313ce5670000000000000000000000000000000000000000000000000000000082525afa908115613afe575b600091613ad0575b501660128114613acc57613abc613ac19161331c565b613a3b565b9081156138bb570490565b5090565b613af1915060203d8111613af7575b613ae98183611593565b810190613a26565b38613aa6565b503d613adf565b613b066136ae565b613a9e565b60ff600460206001600160a01b0361012f5416604051928380927f313ce5670000000000000000000000000000000000000000000000000000000082525afa908115613b98575b600091613b7a575b501660128114613acc5790613b74613abc6106519361331c565b90612caa565b613b92915060203d8111613af757613ae98183611593565b38613b5a565b613ba06136ae565b613b52565b906040516040810181811067ffffffffffffffff821117613be1575b6040526020819360016001600160a01b0391828154168552015416910152565b613be961153e565b613bc1565b6040517f313ce5670000000000000000000000000000000000000000000000000000000081526020816004816001600160a01b0386165afa908115613d1f575b600091613d01575b5060ff811660128111908115613cf6575b50613cc05750613cbb81613ca17f94e2ca3c006ff5152db658db7f198e3606e0c8584958dbb13538cdd9b30ccb72936001600160a01b0361012f911673ffffffffffffffffffffffffffffffffffffffff19825416179055565b6040516001600160a01b0390911681529081906020820190565b0390a1565b6040517f094d18ae00000000000000000000000000000000000000000000000000000000815260ff919091166004820152602490fd5b600691501038613c47565b613d19915060203d8111613af757613ae98183611593565b38613c36565b613d276136ae565b613c2e565b60207f36a09eaea278b547d70faf65508009f5a7d32dfd33d27131e792f7e78bb42158918061013155604051908152a1565b9081602091031261000e5751610651816105fb565b9081602091031261000e5751801515810361000e5790565b919293909360005b858110613da257505050505050565b613db86107da61012d546001600160a01b031690565b613e06613dc58388612b09565b5191604092835180927fb776d33300000000000000000000000000000000000000000000000000000000825281806020968795600483019190602083019252565b03915afa9081156144aa575b60009161448d575b5081613e268587612b09565b51613e35610131548092613958565b928551838180613e717f1ce08c0b0000000000000000000000000000000000000000000000000000000098898352600483019190602083019252565b0381305afa908115614480575b600091614463575b50809260ff8316898b82613fb3575b505050505050613f269250613eb66107da61012f546001600160a01b031690565b613ed0613ec3888b612b09565b516001600160a01b031690565b60008b8851968795869485937f23b872dd000000000000000000000000000000000000000000000000000000008552600485016040919493929460608201956001600160a01b0380921683521660208201520152565b03925af1918215613fa6575b600092613f79575b505015613f505750613f4b90612a0a565b613d93565b600490517ff27f64e4000000000000000000000000000000000000000000000000000000008152fd5b613f989250803d10613f9f575b613f908183611593565b810190613d73565b3880613f3a565b503d613f86565b613fae6136ae565b613f32565b613ff2965092613fd66107da9993613fcf613fdc948b97612b09565b5192612caa565b906139be565b8951918252600482015293849081906024820190565b0381305afa928315614456575b600093614433575b508261401291613339565b9086610130918d8a61402e6107da86546001600160a01b031690565b918451927f440f5fd200000000000000000000000000000000000000000000000000000000938481528a81600481855afa908115614426575b600091614409575b506001600160a01b036140906107da61012f9e8f546001600160a01b031690565b9116146141a2575092613f2699897ff13b9ad9c5cff251c7890be98dd7159a5dde3f28cba336aeaaf551d9da06e7e09460046140e96107da6140da8e9d9c9b9861414f9f9b612b09565b519a546001600160a01b031690565b95518096819382525afa928315614195575b60009361415a575b5061411b6107da61414792546001600160a01b031690565b8d519384938491604091949360ff60608501961684526001600160a01b03809216602085015216910152565b0390a3612ce1565b38808080898b613e95565b6141479193506107da61418561411b928d803d1061418e575b61417d8183611593565b810190613d5e565b94925050614103565b503d614173565b61419d6136ae565b6140fb565b959796999850915091506141b69250612b09565b51813b1561000e5787517f1b2ef1ca00000000000000000000000000000000000000000000000000000000815260048101849052602481019190915286916000908290604490829084905af190816143f6575b506143e05750614219878c612b09565b51817fc63600d29a0ef31fe04e22e26a10c75787f6f15d8a95f6b340b232481bf6d696600080a36142546107da83546001600160a01b031690565b91614262613ec3898c612b09565b92803b1561000e5787517fc309f8e10000000000000000000000000000000000000000000000000000000081526001600160a01b039094166004850152602484018390526143499487946142f3926107da926142e59284926000908290818381604481015b03925af180156143d3575b6143c0575b50546001600160a01b031690565b92546001600160a01b031690565b60008c8951968795869485937f23b872dd000000000000000000000000000000000000000000000000000000008552600485016040919493929460608201956001600160a01b0380921683521660208201520152565b03925af19081156143b3575b600091614396575b501561436d5781613f269161414f565b600483517ff27f64e4000000000000000000000000000000000000000000000000000000008152fd5b6143ad9150833d8511613f9f57613f908183611593565b3861435d565b6143bb6136ae565b614355565b806108bc6143cd92611555565b386142d7565b6143db6136ae565b6142d2565b916142f36107da6142e56107da61434997611836565b806108bc61440392611555565b38614209565b61442091508b3d8d1161418e5761417d8183611593565b3861406f565b61442e6136ae565b614067565b61401291935061444f90853d8711610590576105828183611593565b9290614007565b61445e6136ae565b613fff565b61447a9150843d8611610590576105828183611593565b38613e86565b6144886136ae565b613e7e565b6144a49150823d8411613af757613ae98183611593565b38613e1a565b6144b26136ae565b613e12565b9193929060005b8581106144ce5750505050505050565b6144e46107da61012d546001600160a01b031690565b6144ee8285612b09565b5190604090878251917fb776d33300000000000000000000000000000000000000000000000000000000835288848460208181979581839761453960049d8e83019190602083019252565b03915afa908115614bfb575b600091614bde575b506145a38861455c8b88612b09565b518661456c610131548093613958565b8651809581927f1ce08c0b000000000000000000000000000000000000000000000000000000009687845283019190602083019252565b0381305afa928315614bd1575b600093614bb2575b5082978c60ff86169182614841575b50505050505050506146cc575b614651918c6145fc613ec3896145f66107da61012f546001600160a01b031690565b93612b09565b60008a8851968795869485937f23b872dd0000000000000000000000000000000000000000000000000000000085528d85016040919493929460608201956001600160a01b0380921683521660208201520152565b03925af19182156146bf575b6000926146a2575b50501561467c57505061467790612a0a565b6144be565b517ff27f64e4000000000000000000000000000000000000000000000000000000008152fd5b6146b89250803d10613f9f57613f908183611593565b3880614665565b6146c76136ae565b61465d565b61473c908a6146e76107da61012f546001600160a01b031690565b826147058a6146ff610132546001600160a01b031690565b94612b09565b518851809681927fdfa4bb0f0000000000000000000000000000000000000000000000000000000083528c83019190602083019252565b0381305afa938415614834575b600094614815575b5086517f23b872dd0000000000000000000000000000000000000000000000000000000081526001600160a01b03808c16828b0190815293166020840152604083019490945283918290600090829060600103925af1908115614808575b6000916147eb575b50156147c357816145d4565b5050517ff27f64e4000000000000000000000000000000000000000000000000000000008152fd5b6148029150833d8511613f9f57613f908183611593565b386147b7565b6148106136ae565b6147af565b61482d919450833d8511610590576105828183611593565b9238614751565b61483c6136ae565b614749565b614874979a5061485d92613fcf8b9a9b969593613fd693612b09565b908851958692839283528d83019190602083019252565b0381305afa928315614ba5575b600093614b82575b508261489491613339565b90610130908c6148ae6107da84546001600160a01b031690565b8b8d8a51937f440f5fd200000000000000000000000000000000000000000000000000000000938486528a868581845afa958615614b75575b600096614b56575b5061012f956001600160a01b036149136107da6107da8a546001600160a01b031690565b911614614967575098809a9b938996936140e96107da6140da7ff13b9ad9c5cff251c7890be98dd7159a5dde3f28cba336aeaaf551d9da06e7e099966149589f612b09565b915b84388080808f8c816145c7565b979b509398509350505061497d92949650612b09565b51813b1561000e5787517f1b2ef1ca000000000000000000000000000000000000000000000000000000008152808a01868152602081019290925287929091600091839182908490829060400103925af19081614b43575b50614b3057506149e5888b612b09565b51837fc63600d29a0ef31fe04e22e26a10c75787f6f15d8a95f6b340b232481bf6d696600080a38d614a28613ec38a6145f66107da86546001600160a01b031690565b92813b1561000e576142e56107da6107da926142c7600089614a93978f9a8f8f9c859151968795869485937fc309f8e10000000000000000000000000000000000000000000000000000000085528401602090939291936001600160a01b0360408201951681520152565b86517f23b872dd0000000000000000000000000000000000000000000000000000000081526001600160a01b03808c16828b019081529216602083015260408201949094528391908290600090829060600103925af1908115614b23575b600091614b06575b50156147c357818861495a565b614b1d9150833d8511613f9f57613f908183611593565b38614af9565b614b2b6136ae565b614af1565b916107da6142e56107da614a9393611836565b806108bc614b5092611555565b386149d5565b614b6e9196508b3d8d1161418e5761417d8183611593565b94386148ef565b614b7d6136ae565b6148e7565b614894919350614b9e90853d8711610590576105828183611593565b9290614889565b614bad6136ae565b614881565b614bca919350873d8911610590576105828183611593565b91386145b8565b614bd96136ae565b6145b0565b614bf59150843d8611613af757613ae98183611593565b3861454d565b614c036136ae565b614545565b60a0810151614c1d608083019182519061378d565b90614c61614c3160c085015183519061378d565b918284614c3e8751151590565b92614c5360408901516001600160a01b031690565b90519060e0890151946144b7565b614ced6020614c7a60608601516001600160a01b031690565b94015193614cdf614c976107da61012f546001600160a01b031690565b61013154610133549160405198899560208701919594939060a09360c0840197600085526001600160a01b038093166020860152604085015216606083015260808201520152565b03601f198101855284611593565b614d036107da61012d546001600160a01b031690565b614d196107da61012e546001600160a01b031690565b92813b1561000e5760008094614d5f604051978896879586947f2eb2c2d600000000000000000000000000000000000000000000000000000000865230600487016136bb565b03925af18015614d7e575b614d715750565b806108bc6115c392611555565b614d866136ae565b614d6a565b90614df1600482614df69460206001600160a01b0361012d5416604051948580927f964eec700000000000000000000000000000000000000000000000000000000082525afa928315614e1e575b600093614dfe575b50614dec838361566e565b615440565b61569f565b929391929091565b614e1791935060203d8111610590576105828183611593565b9138614de1565b614e266136ae565b614dd9565b819392919261012d926001600160a01b0384541692614e92604094855198899384927f964eec70000000000000000000000000000000000000000000000000000000008452602095869160049d8e915afa92831561511f575b600093615100575b50615440565b600094614eb3836001600160a01b0316600052610137602052604060002090565b8697600282019081546001840154905b808211156150d057505089156150a85798949596979893614ee38661375c565b9a614eed8761375c565b9a996000965b8d898910614f1f575b50505050505050505050614f1890614f138461375c565b61512c565b9193929190565b98809d9c989b9a99614f3088615eec565b91614f456107da8b546001600160a01b031690565b85517efdd58e000000000000000000000000000000000000000000000000000000008152308882019081526020810186905290929189918491908290819060400103915afa91821561509b575b60009261507c575b5081851015614fee57505089614faf91612b09565b52614fba888d612b09565b52614fc6600097612a0a565b998715614fe257614fd690612a0a565b969b9798999a9b614ef3565b88999a9b9c508d614efc565b614ffc91939b94925061332a565b831480615073575b61504a578f828f92859461502e868f9661503b97615028614fc69b61503499612b09565b52612b09565b52613339565b9988615d76565b8554612a0a576138458a615c07565b505050517f33aa101c000000000000000000000000000000000000000000000000000000008152fd5b50818111615004565b615094919250883d8a11610590576105828183611593565b9038614f9a565b6150a36136ae565b614f92565b8a88517f33aa101c000000000000000000000000000000000000000000000000000000008152fd5b909a6150f46150fa916150ed8e8890600052602052604060002090565b5490612ce1565b9b612a0a565b90614ec3565b615118919350853d8711610590576105828183611593565b9138614e8c565b6151276136ae565b614e84565b5191906151388361375c565b9260019182809201915b82811061514f5750505050565b8082859260051b88015201615142565b9094926001600160a01b03938461012f541690813b1561000e5760009660ff889460e4976040519b8c9a8b997fd505accf000000000000000000000000000000000000000000000000000000008b521660048a01523060248a01526044890152606488015216608486015260a485015260c48401525af18015614d7e57614d715750565b6001600160a01b0390818160201c16918260005261013760205261523e82615239604060002061ffff8360e01c169081600282018054801560001461529e57508160018401555590600052602052604060002090565b613284565b506152626001611132856001600160a01b0316600052610136602052604060002090565b1615615290575b7f3f2e35daa045b6aa1cc1d76e5337f2bce6985b354b49e998d4ce29d683190d15600080a3565b61529982615a0e565b615269565b906001840191825484106000146152c15750505590600052602052604060002090565b90915082116152d2575b50506126d5565b5581386152cb565b6001600160a01b038216806000526152fd61013792836020526040600020615d76565b600052602052600260406000200154156153145750565b6115c390615c07565b60ff166012039060ff8211612cbd57565b8115615338570690565b61534061389a565b0690565b6153b46153af6153a9600460206153676107da61012f546001600160a01b031690565b604051928380927f313ce5670000000000000000000000000000000000000000000000000000000082525afa908115615433575b600091615415575b5061531d565b60ff1690565b612cc5565b81159081156153f9575b506153c65750565b6040517f277f4c270000000000000000000000000000000000000000000000000000000081526004810191909152602490fd5b61540d915061540790613a3b565b8261532e565b1515386153be565b61542d915060203d8111613af757613ae98183611593565b386153a3565b61543b6136ae565b61539b565b919061544b916154c4565b905061013454116154595750565b6001600160a01b031660009081527f1993b25aada9b83773e0286f0950968fd5c4a170648b02185e5fc22cc12f52dd602052604090205460ff161561549a57565b60046040517f9ece8f2f000000000000000000000000000000000000000000000000000000008152fd5b91908281116154d4576001920390565b50600091508190565b6001600160a01b03811633149081156155a1575b81156154fb575090565b61556591506020906155196107da61012d546001600160a01b031690565b6040517fe985e9c50000000000000000000000000000000000000000000000000000000081526001600160a01b0390921660048301523360248301529092839190829081906044820190565b03915afa908115615594575b60009161557c575090565b610651915060203d8111613f9f57613f908183611593565b61559c6136ae565b615571565b3360009081527fb34b648d285118a9ee5f8cc4675698367f99ed092c20555b8b9380d41d2fafb5602052604090205460ff1691506154f1565b906155e76155ed91615635565b92615635565b82149182159261562a575b505061560057565b60046040517f49f82da6000000000000000000000000000000000000000000000000000000008152fd5b1415905038806155f8565b80516000929160209160051b8101820190849083015b8281106156585750505050565b8581510195861061566a57830161564b565b5080fd5b1161567557565b60046040517f33aa101c000000000000000000000000000000000000000000000000000000008152fd5b61012d906156b76107da83546001600160a01b031690565b60409384517f789e8cdf00000000000000000000000000000000000000000000000000000000815260209081816004958180615705308a83019190916001600160a01b036020820193169052565b03915afa9081156159a1575b600091615984575b509594909192936157298761375c565b966157338161375c565b9661573d8261375c565b966000956000945b8b85871061575c575b505050505050505093929190565b908b6107da8c9b9a969798999d9c938e615802610135968861578589546001600160a01b031690565b938d8c6157c16157b16157ac896001600160a01b0316600052610137602052604060002090565b615eec565b998a94546001600160a01b031690565b91517efdd58e000000000000000000000000000000000000000000000000000000008152309181019182526020820193909352919485928391829160400190565b03915afa918215615977575b600092615958575b50818710156158875750505087615852959361584895936150288361583a95612b09565b52546001600160a01b031690565b6111a5858b612b09565b61585d600093612a0a565b95831561587b5761586d90612a0a565b949392999596979899615745565b869798999a508b61574e565b818b976158b6856111a5899f6158bb96839c9861585d9f9b836118369c9b6158c19f6150288361502895612b09565b613339565b996152da565b906001600160a01b03809181841692839116149283615926575b50505015612a0a57613845610135805473ffffffffffffffffffffffffffffffffffffffff196001600160a01b03808316600052610136602052600160406000200154169116179055565b61594d919293506111326001916001600160a01b0316600052610136602052604060002090565b1614153880806158db565b615970919250893d8b11610590576105828183611593565b9038615816565b61597f6136ae565b61580e565b61599b9150823d8411610590576105828183611593565b38615719565b6159a96136ae565b615711565b8151815473ffffffffffffffffffffffffffffffffffffffff19166001600160a01b039182161782556115c3926001919060200151169101906001600160a01b031673ffffffffffffffffffffffffffffffffffffffff19825416179055565b61013590615a2382546001600160a01b031690565b6001600160a01b0392818416615ac0575050610135805473ffffffffffffffffffffffffffffffffffffffff19166001600160a01b038316179055615a96615a696115c5565b6001600160a01b038316808252602080830182905260009182526101369052604090206159ae565b6159ae565b1680807f3a35d42f4bce14f93a24ab2ec3c4dc4cd013e5f16abcd79d5c93afa2cebc0c72600080a4565b9280615bda8395615b33615aec61183685976001600160a01b0316600052610136602052604060002090565b97615b15615af86115c5565b6001600160a01b038b168152916001600160a01b03166020830152565b615a91886001600160a01b0316600052610136602052604060002090565b615b80866001615b578a6001600160a01b0316600052610136602052604060002090565b01906001600160a01b031673ffffffffffffffffffffffffffffffffffffffff19825416179055565b61183686615bb2615b9884546001600160a01b031690565b6001600160a01b0316600052610136602052604060002090565b906001600160a01b031673ffffffffffffffffffffffffffffffffffffffff19825416179055565b9416931691167f3a35d42f4bce14f93a24ab2ec3c4dc4cd013e5f16abcd79d5c93afa2cebc0c72600080a4565b6001600160a01b039081615c2f826001600160a01b0316600052610136602052604060002090565b541691615cb6816001615c56856001600160a01b0316600052610136602052604060002090565b0154169282811692838503615cdd575061013573ffffffffffffffffffffffffffffffffffffffff1981541690555b615a91615c906115c5565b9160008352600060208401526001600160a01b0316600052610136602052604060002090565b7fd853f0403f99e88d186f52744de8bd40a17410e4d2206e25ac3750410aa19737600080a4565b615d01856001615b57896001600160a01b0316600052610136602052604060002090565b615d2386615bb2876001600160a01b0316600052610136602052604060002090565b61013554168303615c8557615d71610135805473ffffffffffffffffffffffffffffffffffffffff196001600160a01b03808316600052610136602052600160406000200154169116179055565b615c85565b61ffff8260e01c1691615da3615d9f82615d9a868690600052602052604060002090565b613386565b1590565b615eb05750615dbe8282906000526020526040600020541590565b615dc6575050565b60018082019182546002820194855491828114600014615df657505050505090615df36000926000199055565b55565b939592938103615e5f57505083615e0d8454612cd3565b905b615e1b575b5050505050565b81548111615e5a57615e37818490600052602052604060002090565b54615e4b57615e4590612a0a565b84615e0f565b93505050553880808080615e14565b615e14565b9193918114615e6f575050505050565b615e79859161332a565b905b15615e145781548110615e5a57615e9c818490600052602052604060002090565b54615e4b57615eaa90612d6e565b84615e7b565b6040517fb524f6fe0000000000000000000000000000000000000000000000000000000081526004810191909152602481019290925250604490fd5b60018101546000526020526040600020805415615f10575b60005260206000205490565b615f18612a22565b615f0456fea2646970667358221220524d744a359f6db5543b565d25d4fbb0ac22779c2fc3bb174d7072b1cd46e06b64736f6c63430008110033"
}