{
  "address": "0xB93DB3fc550343235Bf595FCF2b6786017f82f47",
  "abi": [
    {
      "inputs": [],
      "stateMutability": "nonpayable",
      "type": "constructor"
    },
    {
      "inputs": [],
      "name": "InsufficientSupply",
      "type": "error"
    },
    {
      "inputs": [],
      "name": "InvalidNoriFeePercentage",
      "type": "error"
    },
    {
      "inputs": [],
      "name": "LowSupplyAllowlistRequired",
      "type": "error"
    },
    {
      "inputs": [],
      "name": "NoriFeeWalletZeroAddress",
      "type": "error"
    },
    {
      "inputs": [
        {
          "internalType": "uint256",
          "name": "removalId",
          "type": "uint256"
        },
        {
          "internalType": "uint256",
          "name": "year",
          "type": "uint256"
        }
      ],
      "name": "RemovalNotFoundInYear",
      "type": "error"
    },
    {
      "inputs": [],
      "name": "SenderNotRemovalContract",
      "type": "error"
    },
    {
      "inputs": [],
      "name": "UnauthorizedWithdrawal",
      "type": "error"
    },
    {
      "anonymous": false,
      "inputs": [
        {
          "indexed": false,
          "internalType": "contract Removal",
          "name": "removal",
          "type": "address"
        },
        {
          "indexed": false,
          "internalType": "contract Certificate",
          "name": "certificate",
          "type": "address"
        },
        {
          "indexed": false,
          "internalType": "contract IERC20WithPermit",
          "name": "bridgedPolygonNORI",
          "type": "address"
        },
        {
          "indexed": false,
          "internalType": "contract RestrictedNORI",
          "name": "restrictedNORI",
          "type": "address"
        }
      ],
      "name": "ContractAddressesRegistered",
      "type": "event"
    },
    {
      "anonymous": false,
      "inputs": [
        {
          "indexed": false,
          "internalType": "uint8",
          "name": "version",
          "type": "uint8"
        }
      ],
      "name": "Initialized",
      "type": "event"
    },
    {
      "anonymous": false,
      "inputs": [
        {
          "indexed": false,
          "internalType": "uint256",
          "name": "updatedFeePercentage",
          "type": "uint256"
        }
      ],
      "name": "NoriFeePercentageUpdated",
      "type": "event"
    },
    {
      "anonymous": false,
      "inputs": [
        {
          "indexed": false,
          "internalType": "address",
          "name": "updatedWalletAddress",
          "type": "address"
        }
      ],
      "name": "NoriFeeWalletAddressUpdated",
      "type": "event"
    },
    {
      "anonymous": false,
      "inputs": [
        {
          "indexed": false,
          "internalType": "address",
          "name": "account",
          "type": "address"
        }
      ],
      "name": "Paused",
      "type": "event"
    },
    {
      "anonymous": false,
      "inputs": [
        {
          "indexed": false,
          "internalType": "uint256",
          "name": "threshold",
          "type": "uint256"
        }
      ],
      "name": "PriorityRestrictedThresholdSet",
      "type": "event"
    },
    {
      "anonymous": false,
      "inputs": [
        {
          "indexed": true,
          "internalType": "uint256",
          "name": "id",
          "type": "uint256"
        },
        {
          "indexed": true,
          "internalType": "address",
          "name": "supplierAddress",
          "type": "address"
        }
      ],
      "name": "RemovalAdded",
      "type": "event"
    },
    {
      "anonymous": false,
      "inputs": [
        {
          "indexed": true,
          "internalType": "uint256",
          "name": "amount",
          "type": "uint256"
        },
        {
          "indexed": true,
          "internalType": "uint256",
          "name": "removalId",
          "type": "uint256"
        }
      ],
      "name": "RestrictedNORIMintFailed",
      "type": "event"
    },
    {
      "anonymous": false,
      "inputs": [
        {
          "indexed": true,
          "internalType": "bytes32",
          "name": "role",
          "type": "bytes32"
        },
        {
          "indexed": true,
          "internalType": "bytes32",
          "name": "previousAdminRole",
          "type": "bytes32"
        },
        {
          "indexed": true,
          "internalType": "bytes32",
          "name": "newAdminRole",
          "type": "bytes32"
        }
      ],
      "name": "RoleAdminChanged",
      "type": "event"
    },
    {
      "anonymous": false,
      "inputs": [
        {
          "indexed": true,
          "internalType": "bytes32",
          "name": "role",
          "type": "bytes32"
        },
        {
          "indexed": true,
          "internalType": "address",
          "name": "account",
          "type": "address"
        },
        {
          "indexed": true,
          "internalType": "address",
          "name": "sender",
          "type": "address"
        }
      ],
      "name": "RoleGranted",
      "type": "event"
    },
    {
      "anonymous": false,
      "inputs": [
        {
          "indexed": true,
          "internalType": "bytes32",
          "name": "role",
          "type": "bytes32"
        },
        {
          "indexed": true,
          "internalType": "address",
          "name": "account",
          "type": "address"
        },
        {
          "indexed": true,
          "internalType": "address",
          "name": "sender",
          "type": "address"
        }
      ],
      "name": "RoleRevoked",
      "type": "event"
    },
    {
      "anonymous": false,
      "inputs": [
        {
          "indexed": true,
          "internalType": "address",
          "name": "added",
          "type": "address"
        },
        {
          "indexed": true,
          "internalType": "address",
          "name": "next",
          "type": "address"
        },
        {
          "indexed": true,
          "internalType": "address",
          "name": "previous",
          "type": "address"
        }
      ],
      "name": "SupplierAdded",
      "type": "event"
    },
    {
      "anonymous": false,
      "inputs": [
        {
          "indexed": true,
          "internalType": "address",
          "name": "removed",
          "type": "address"
        },
        {
          "indexed": true,
          "internalType": "address",
          "name": "next",
          "type": "address"
        },
        {
          "indexed": true,
          "internalType": "address",
          "name": "previous",
          "type": "address"
        }
      ],
      "name": "SupplierRemoved",
      "type": "event"
    },
    {
      "anonymous": false,
      "inputs": [
        {
          "indexed": false,
          "internalType": "address",
          "name": "account",
          "type": "address"
        }
      ],
      "name": "Unpaused",
      "type": "event"
    },
    {
      "inputs": [],
      "name": "ALLOWLIST_ROLE",
      "outputs": [
        {
          "internalType": "bytes32",
          "name": "",
          "type": "bytes32"
        }
      ],
      "stateMutability": "view",
      "type": "function"
    },
    {
      "inputs": [],
      "name": "DEFAULT_ADMIN_ROLE",
      "outputs": [
        {
          "internalType": "bytes32",
          "name": "",
          "type": "bytes32"
        }
      ],
      "stateMutability": "view",
      "type": "function"
    },
    {
      "inputs": [],
      "name": "MARKET_ADMIN_ROLE",
      "outputs": [
        {
          "internalType": "bytes32",
          "name": "",
          "type": "bytes32"
        }
      ],
      "stateMutability": "view",
      "type": "function"
    },
    {
      "inputs": [],
      "name": "PAUSER_ROLE",
      "outputs": [
        {
          "internalType": "bytes32",
          "name": "",
          "type": "bytes32"
        }
      ],
      "stateMutability": "view",
      "type": "function"
    },
    {
      "inputs": [],
      "name": "bridgedPolygonNoriAddress",
      "outputs": [
        {
          "internalType": "address",
          "name": "",
          "type": "address"
        }
      ],
      "stateMutability": "view",
      "type": "function"
    },
    {
      "inputs": [
        {
          "internalType": "uint256",
          "name": "purchaseTotal",
          "type": "uint256"
        }
      ],
      "name": "calculateCertificateAmountFromPurchaseTotal",
      "outputs": [
        {
          "internalType": "uint256",
          "name": "",
          "type": "uint256"
        }
      ],
      "stateMutability": "view",
      "type": "function"
    },
    {
      "inputs": [
        {
          "internalType": "uint256",
          "name": "amount",
          "type": "uint256"
        }
      ],
      "name": "calculateCheckoutTotal",
      "outputs": [
        {
          "internalType": "uint256",
          "name": "",
          "type": "uint256"
        }
      ],
      "stateMutability": "view",
      "type": "function"
    },
    {
      "inputs": [
        {
          "internalType": "uint256",
          "name": "amount",
          "type": "uint256"
        }
      ],
      "name": "calculateNoriFee",
      "outputs": [
        {
          "internalType": "uint256",
          "name": "",
          "type": "uint256"
        }
      ],
      "stateMutability": "view",
      "type": "function"
    },
    {
      "inputs": [],
      "name": "certificateAddress",
      "outputs": [
        {
          "internalType": "address",
          "name": "",
          "type": "address"
        }
      ],
      "stateMutability": "view",
      "type": "function"
    },
    {
      "inputs": [],
      "name": "getActiveSuppliers",
      "outputs": [
        {
          "internalType": "address[]",
          "name": "suppliers",
          "type": "address[]"
        }
      ],
      "stateMutability": "view",
      "type": "function"
    },
    {
      "inputs": [
        {
          "internalType": "address",
          "name": "supplier",
          "type": "address"
        }
      ],
      "name": "getRemovalIdsForSupplier",
      "outputs": [
        {
          "internalType": "uint256[]",
          "name": "removalIds",
          "type": "uint256[]"
        }
      ],
      "stateMutability": "view",
      "type": "function"
    },
    {
      "inputs": [
        {
          "internalType": "bytes32",
          "name": "role",
          "type": "bytes32"
        }
      ],
      "name": "getRoleAdmin",
      "outputs": [
        {
          "internalType": "bytes32",
          "name": "",
          "type": "bytes32"
        }
      ],
      "stateMutability": "view",
      "type": "function"
    },
    {
      "inputs": [
        {
          "internalType": "bytes32",
          "name": "role",
          "type": "bytes32"
        },
        {
          "internalType": "uint256",
          "name": "index",
          "type": "uint256"
        }
      ],
      "name": "getRoleMember",
      "outputs": [
        {
          "internalType": "address",
          "name": "",
          "type": "address"
        }
      ],
      "stateMutability": "view",
      "type": "function"
    },
    {
      "inputs": [
        {
          "internalType": "bytes32",
          "name": "role",
          "type": "bytes32"
        }
      ],
      "name": "getRoleMemberCount",
      "outputs": [
        {
          "internalType": "uint256",
          "name": "",
          "type": "uint256"
        }
      ],
      "stateMutability": "view",
      "type": "function"
    },
    {
      "inputs": [
        {
          "internalType": "bytes32",
          "name": "role",
          "type": "bytes32"
        },
        {
          "internalType": "address",
          "name": "account",
          "type": "address"
        }
      ],
      "name": "grantRole",
      "outputs": [],
      "stateMutability": "nonpayable",
      "type": "function"
    },
    {
      "inputs": [
        {
          "internalType": "bytes32",
          "name": "role",
          "type": "bytes32"
        },
        {
          "internalType": "address",
          "name": "account",
          "type": "address"
        }
      ],
      "name": "hasRole",
      "outputs": [
        {
          "internalType": "bool",
          "name": "",
          "type": "bool"
        }
      ],
      "stateMutability": "view",
      "type": "function"
    },
    {
      "inputs": [
        {
          "internalType": "contract Removal",
          "name": "removal",
          "type": "address"
        },
        {
          "internalType": "contract IERC20WithPermit",
          "name": "bridgedPolygonNori",
          "type": "address"
        },
        {
          "internalType": "contract Certificate",
          "name": "certificate",
          "type": "address"
        },
        {
          "internalType": "contract RestrictedNORI",
          "name": "restrictedNori",
          "type": "address"
        },
        {
          "internalType": "address",
          "name": "noriFeeWalletAddress",
          "type": "address"
        },
        {
          "internalType": "uint256",
          "name": "noriFeePercentage_",
          "type": "uint256"
        }
      ],
      "name": "initialize",
      "outputs": [],
      "stateMutability": "nonpayable",
      "type": "function"
    },
    {
      "inputs": [
        {
          "internalType": "bytes[]",
          "name": "data",
          "type": "bytes[]"
        }
      ],
      "name": "multicall",
      "outputs": [
        {
          "internalType": "bytes[]",
          "name": "results",
          "type": "bytes[]"
        }
      ],
      "stateMutability": "nonpayable",
      "type": "function"
    },
    {
      "inputs": [],
      "name": "noriFeePercentage",
      "outputs": [
        {
          "internalType": "uint256",
          "name": "",
          "type": "uint256"
        }
      ],
      "stateMutability": "view",
      "type": "function"
    },
    {
      "inputs": [],
      "name": "noriFeeWallet",
      "outputs": [
        {
          "internalType": "address",
          "name": "",
          "type": "address"
        }
      ],
      "stateMutability": "view",
      "type": "function"
    },
    {
      "inputs": [
        {
          "internalType": "address",
          "name": "",
          "type": "address"
        },
        {
          "internalType": "address",
          "name": "",
          "type": "address"
        },
        {
          "internalType": "uint256[]",
          "name": "ids",
          "type": "uint256[]"
        },
        {
          "internalType": "uint256[]",
          "name": "",
          "type": "uint256[]"
        },
        {
          "internalType": "bytes",
          "name": "",
          "type": "bytes"
        }
      ],
      "name": "onERC1155BatchReceived",
      "outputs": [
        {
          "internalType": "bytes4",
          "name": "",
          "type": "bytes4"
        }
      ],
      "stateMutability": "nonpayable",
      "type": "function"
    },
    {
      "inputs": [
        {
          "internalType": "address",
          "name": "",
          "type": "address"
        },
        {
          "internalType": "address",
          "name": "",
          "type": "address"
        },
        {
          "internalType": "uint256",
          "name": "id",
          "type": "uint256"
        },
        {
          "internalType": "uint256",
          "name": "",
          "type": "uint256"
        },
        {
          "internalType": "bytes",
          "name": "",
          "type": "bytes"
        }
      ],
      "name": "onERC1155Received",
      "outputs": [
        {
          "internalType": "bytes4",
          "name": "",
          "type": "bytes4"
        }
      ],
      "stateMutability": "nonpayable",
      "type": "function"
    },
    {
      "inputs": [],
      "name": "pause",
      "outputs": [],
      "stateMutability": "nonpayable",
      "type": "function"
    },
    {
      "inputs": [],
      "name": "paused",
      "outputs": [
        {
          "internalType": "bool",
          "name": "",
          "type": "bool"
        }
      ],
      "stateMutability": "view",
      "type": "function"
    },
    {
      "inputs": [],
      "name": "priorityRestrictedThreshold",
      "outputs": [
        {
          "internalType": "uint256",
          "name": "",
          "type": "uint256"
        }
      ],
      "stateMutability": "view",
      "type": "function"
    },
    {
      "inputs": [
        {
          "internalType": "contract Removal",
          "name": "removal",
          "type": "address"
        },
        {
          "internalType": "contract Certificate",
          "name": "certificate",
          "type": "address"
        },
        {
          "internalType": "contract IERC20WithPermit",
          "name": "bridgedPolygonNORI",
          "type": "address"
        },
        {
          "internalType": "contract RestrictedNORI",
          "name": "restrictedNORI",
          "type": "address"
        }
      ],
      "name": "registerContractAddresses",
      "outputs": [],
      "stateMutability": "nonpayable",
      "type": "function"
    },
    {
      "inputs": [
        {
          "internalType": "uint256",
          "name": "removalId",
          "type": "uint256"
        },
        {
          "internalType": "uint256",
          "name": "amount",
          "type": "uint256"
        }
      ],
      "name": "release",
      "outputs": [],
      "stateMutability": "nonpayable",
      "type": "function"
    },
    {
      "inputs": [],
      "name": "removalAddress",
      "outputs": [
        {
          "internalType": "address",
          "name": "",
          "type": "address"
        }
      ],
      "stateMutability": "view",
      "type": "function"
    },
    {
      "inputs": [
        {
          "internalType": "bytes32",
          "name": "role",
          "type": "bytes32"
        },
        {
          "internalType": "address",
          "name": "account",
          "type": "address"
        }
      ],
      "name": "renounceRole",
      "outputs": [],
      "stateMutability": "nonpayable",
      "type": "function"
    },
    {
      "inputs": [],
      "name": "restrictedNoriAddress",
      "outputs": [
        {
          "internalType": "address",
          "name": "",
          "type": "address"
        }
      ],
      "stateMutability": "view",
      "type": "function"
    },
    {
      "inputs": [
        {
          "internalType": "bytes32",
          "name": "role",
          "type": "bytes32"
        },
        {
          "internalType": "address",
          "name": "account",
          "type": "address"
        }
      ],
      "name": "revokeRole",
      "outputs": [],
      "stateMutability": "nonpayable",
      "type": "function"
    },
    {
      "inputs": [
        {
          "internalType": "uint256",
          "name": "noriFeePercentage_",
          "type": "uint256"
        }
      ],
      "name": "setNoriFeePercentage",
      "outputs": [],
      "stateMutability": "nonpayable",
      "type": "function"
    },
    {
      "inputs": [
        {
          "internalType": "address",
          "name": "noriFeeWalletAddress",
          "type": "address"
        }
      ],
      "name": "setNoriFeeWallet",
      "outputs": [],
      "stateMutability": "nonpayable",
      "type": "function"
    },
    {
      "inputs": [
        {
          "internalType": "uint256",
          "name": "threshold",
          "type": "uint256"
        }
      ],
      "name": "setPriorityRestrictedThreshold",
      "outputs": [],
      "stateMutability": "nonpayable",
      "type": "function"
    },
    {
      "inputs": [
        {
          "internalType": "bytes4",
          "name": "interfaceId",
          "type": "bytes4"
        }
      ],
      "name": "supportsInterface",
      "outputs": [
        {
          "internalType": "bool",
          "name": "",
          "type": "bool"
        }
      ],
      "stateMutability": "view",
      "type": "function"
    },
    {
      "inputs": [
        {
          "internalType": "address",
          "name": "recipient",
          "type": "address"
        },
        {
          "internalType": "uint256",
          "name": "amount",
          "type": "uint256"
        },
        {
          "internalType": "uint256",
          "name": "deadline",
          "type": "uint256"
        },
        {
          "internalType": "uint8",
          "name": "v",
          "type": "uint8"
        },
        {
          "internalType": "bytes32",
          "name": "r",
          "type": "bytes32"
        },
        {
          "internalType": "bytes32",
          "name": "s",
          "type": "bytes32"
        }
      ],
      "name": "swap",
      "outputs": [],
      "stateMutability": "nonpayable",
      "type": "function"
    },
    {
      "inputs": [
        {
          "internalType": "address",
          "name": "recipient",
          "type": "address"
        },
        {
          "internalType": "uint256",
          "name": "amount",
          "type": "uint256"
        },
        {
          "internalType": "address",
          "name": "supplier",
          "type": "address"
        },
        {
          "internalType": "uint256",
          "name": "deadline",
          "type": "uint256"
        },
        {
          "internalType": "uint8",
          "name": "v",
          "type": "uint8"
        },
        {
          "internalType": "bytes32",
          "name": "r",
          "type": "bytes32"
        },
        {
          "internalType": "bytes32",
          "name": "s",
          "type": "bytes32"
        }
      ],
      "name": "swapFromSupplier",
      "outputs": [],
      "stateMutability": "nonpayable",
      "type": "function"
    },
    {
      "inputs": [],
      "name": "unpause",
      "outputs": [],
      "stateMutability": "nonpayable",
      "type": "function"
    },
    {
      "inputs": [
        {
          "internalType": "uint256",
          "name": "removalId",
          "type": "uint256"
        }
      ],
      "name": "withdraw",
      "outputs": [],
      "stateMutability": "nonpayable",
      "type": "function"
    }
  ],
  "numDeployments": 3,
  "bytecode": "0x60808060405234620000c6576000549060ff8260081c1662000074575060ff8082161062000038575b6040516148dc9081620000cc8239f35b60ff90811916176000557f7f26b83ff96e1f2b6a682f133852f6798a09c465da95921460cefb3847402498602060405160ff8152a13862000028565b62461bcd60e51b815260206004820152602760248201527f496e697469616c697a61626c653a20636f6e747261637420697320696e697469604482015266616c697a696e6760c81b6064820152608490fd5b600080fdfe60806040526004361015610013575b600080fd5b60003560e01c806301ffc9a71461031f5780630ac2a3211461031657806312de2b051461030d578063248a9ca31461030457806325fbff7a146102fb5780632707193b146102f25780632928d4cd146102e95780632e1a7d4d146102e05780632f2ff15d146102d75780633030b532146102ce57806332786049146102c557806336568abe146102bc578063366a4120146102b35780633f4ba83a146102aa57806354c30270146102a1578063596abe94146102985780635c975abb1461028f5780637f7081fa146102865780638456cb591461027d5780639010d07c1461027457806391d148541461026b57806395b6ef0c14610262578063a12d687414610259578063a217fddf14610250578063a575856614610247578063ac9650d81461023e578063ba40fcab14610235578063bc197c811461022c578063c0c7028c14610223578063ca15c8731461021a578063ce0ec47414610211578063d547741f14610208578063d6f0d39f146101ff578063d797462f146101f6578063dfa4bb0f146101ed578063e0751b1d146101e4578063e63ab1e9146101db578063f23a6e61146101d25763f9c28528146101ca57600080fd5b61000e611ead565b5061000e611e0f565b5061000e611dd3565b5061000e611bd4565b5061000e611ba6565b5061000e611b50565b5061000e611b14565b5061000e611a09565b5061000e6117f0565b5061000e6117b8565b5061000e611723565b5061000e611664565b5061000e61160d565b5061000e61151f565b5061000e611358565b5061000e61133b565b5061000e6111de565b5061000e61105c565b5061000e611004565b5061000e610fbd565b5061000e610f44565b5061000e610f1b565b5061000e610ef7565b5061000e610d7c565b5061000e610d18565b5061000e610c43565b5061000e610b42565b5061000e6109bf565b5061000e610936565b5061000e6108fa565b5061000e6107d5565b5061000e610621565b5061000e6105f8565b5061000e6105cf565b5061000e6104d1565b5061000e610448565b5061000e610428565b5061000e6103ff565b503461000e57602060031936011261000e576004357fffffffff00000000000000000000000000000000000000000000000000000000811680910361000e57807f5a05180f0000000000000000000000000000000000000000000000000000000060209214908115610397575b506040519015158152f35b7f7965db0b000000000000000000000000000000000000000000000000000000008114915081156103ca575b503861038c565b7f01ffc9a700000000000000000000000000000000000000000000000000000000915014386103c3565b600091031261000e57565b503461000e57600060031936011261000e5760206001600160a01b0361012d5416604051908152f35b503461000e57600060031936011261000e57602061013354604051908152f35b503461000e57602060031936011261000e5760043560005260976020526020600160406000200154604051908152f35b6001600160a01b0381160361000e57565b90815180825260208080930193019160005b8281106104a9575050505090565b83518552938101939281019260010161049b565b9060206104ce928181520190610489565b90565b503461000e5760208060031936011261000e57600435906104f182610478565b6001600160a01b03600092168252610136815260408083209260028401549080948190600196878201549081975b868311156105aa57506105329150613388565b955b8481111561054d5785518061054989826104bd565b0390f35b86610562828490600052602052604060002090565b8054908a875b83811061058257505050505061057d906123cf565b610534565b8293949761059e610594838596612a49565b918481019a612523565b5201908a939291610568565b906105c26105c8918488528584528988205490612723565b926123cf565b919061051f565b503461000e57600060031936011261000e5760206001600160a01b0361012e5416604051908152f35b503461000e57600060031936011261000e5760206001600160a01b0361012f5416604051908152f35b503461000e57602060031936011261000e5760043561063e612a5d565b6001600160a01b038160201c1661065481613c77565b156107ab576106638183613ba2565b61068561067961012d546001600160a01b031690565b6001600160a01b031690565b6040517efdd58e0000000000000000000000000000000000000000000000000000000081523060048201526024810184905290602082604481845afa91821561079e575b60009261076e575b50803b1561000e576040517ff242432a0000000000000000000000000000000000000000000000000000000081523060048201526001600160a01b039390931660248401526044830193909352606482015260a06084820152600060a482018190529091829060c490829084905af18015610761575b61074e575b005b8061075b61074c926122e5565b806103f4565b6107696132a9565b610747565b61079091925060203d8111610797575b6107888183612306565b81019061329a565b90386106d1565b503d61077e565b6107a66132a9565b6106c9565b60046040517f60b39bc5000000000000000000000000000000000000000000000000000000008152fd5b503461000e57604060031936011261000e576004356108656024356107f981610478565b610860600093808552609760205261081760016040872001546121d8565b61081f612a5d565b808552609760205260ff6108498460408820906001600160a01b0316600052602052604060002090565b5416156108695760005260c9602052604060002090565b612d21565b5080f35b80855260976020526108918360408720906001600160a01b0316600052602052604060002090565b60017fffffffffffffffffffffffffffffffffffffffffffffffffffffffffffffff00825416179055336001600160a01b038416827f2f8788117e7eff1d82e926ec794901d17c78024a50270940304540a733656f0d8880a460005260c9602052604060002090565b503461000e57600060031936011261000e5760206040517f26a560d834a19637eccba4611bbc09fb32970bb627da0a70f14f83fdc9822cbc8152f35b503461000e57602060031936011261000e57600435610953611f7b565b61095b612a5d565b60648111610995576020817fd59bb01c34021659e0e3b75a738380fb053aa487902b1df9a0a0d0e30e4c7bb79261013255604051908152a1005b60046040517fedb73407000000000000000000000000000000000000000000000000000000008152fd5b503461000e57604060031936011261000e576024356004356109e082610478565b6001600160a01b03821691338303610abe57610865916109fe612a5d565b600093818552609760205260ff610a2b8460408820906001600160a01b0316600052602052604060002090565b5416610a43575b50835260c960205260408320612e15565b8185526097602052610a6b8360408720906001600160a01b0316600052602052604060002090565b7fffffffffffffffffffffffffffffffffffffffffffffffffffffffffffffff0081541690553390827ff6391f5c32d9c69d2a47ea670b442974b53935d1edc7fd64eb21e047a839171b8780a438610a32565b60846040517f08c379a000000000000000000000000000000000000000000000000000000000815260206004820152602f60248201527f416363657373436f6e74726f6c3a2063616e206f6e6c792072656e6f756e636560448201527f20726f6c657320666f722073656c6600000000000000000000000000000000006064820152fd5b503461000e57604060031936011261000e57600435610b5f612a5d565b610b7561067961012d546001600160a01b031690565b906001600160a01b03918281163303610c19576040517efdd58e0000000000000000000000000000000000000000000000000000000081523060048201526024810183905290602090829060449082905afa908115610c0c575b600091610bee575b5015610bdf57005b61074c918160201c1690613ba2565b610c06915060203d8111610797576107888183612306565b38610bd7565b610c146132a9565b610bcf565b60046040517f9a5ed74b000000000000000000000000000000000000000000000000000000008152fd5b503461000e57600060031936011261000e57610c5d6120a1565b60335460ff811615610cba577fffffffffffffffffffffffffffffffffffffffffffffffffffffffffffffff00166033557f5db9ee0a495bf2e6ff9c91a7834c1ba4fdd244a5e8aa4e537bd38aeae4b073aa6020604051338152a1005b60646040517f08c379a000000000000000000000000000000000000000000000000000000000815260206004820152601460248201527f5061757361626c653a206e6f74207061757365640000000000000000000000006044820152fd5b503461000e57600060031936011261000e57602061013254604051908152f35b6020908160408183019282815285518094520193019160005b828110610d5f575050505090565b83516001600160a01b031685529381019392810192600101610d51565b503461000e57600060031936011261000e576000610da3610134546001600160a01b031690565b906001600160a01b03600181610ddf82610dd1876001600160a01b0316600052610135602052604060002090565b01546001600160a01b031690565b16610e8b575b5050610df081613388565b91610e17610e12826001600160a01b0316600052610135602052604060002090565b61340a565b6000915b838310610e3057604051806105498782610d38565b610e6091610e52602092610e448689612523565b906001600160a01b03169052565b01516001600160a01b031690565b610e846105c2610e12836001600160a01b0316600052610135602052604060002090565b9190610e1b565b80925091610eb181610dd1866001600160a01b0316600052610135602052604060002090565b828516905b8184821603610ec6575050610de5565b6105c283610dd1610eef93979596976001600160a01b0316600052610135602052604060002090565b939291610eb6565b503461000e57600060031936011261000e57602060ff603354166040519015158152f35b503461000e57600060031936011261000e5760206001600160a01b036101305416604051908152f35b503461000e57600060031936011261000e57610f5e6120a1565b610f66612a5d565b60017fffffffffffffffffffffffffffffffffffffffffffffffffffffffffffffff0060335416176033557f62e78cea01bee320cd4e420270b5ea74000d11b0c9f74754ebdbfc544b05a2586020604051338152a1005b503461000e57604060031936011261000e5760043560005260c960205260206001600160a01b03610ff46024356040600020612a23565b9190546040519260031b1c168152f35b503461000e57604060031936011261000e57602060ff61105060243561102981610478565b600435600052609784526040600020906001600160a01b0316600052602052604060002090565b54166040519015158152f35b503461000e5760c060031936011261000e5760043561107a81610478565b6111136024359161108a83610478565b60443561109681610478565b6064356110a281610478565b608435916110af83610478565b600054956110d460ff8860081c1615809881996111d0575b81156111b0575b50612fb6565b8661110560017fffffffffffffffffffffffffffffffffffffffffffffffffffffffffffffff006000541617600055565b61117a575b60a43594613041565b61111957005b6111467fffffffffffffffffffffffffffffffffffffffffffffffffffffffffffff00ff60005416600055565b604051600181527f7f26b83ff96e1f2b6a682f133852f6798a09c465da95921460cefb38474024989080602081015b0390a1005b6111ab6101007fffffffffffffffffffffffffffffffffffffffffffffffffffffffffffff00ff6000541617600055565b61110a565b303b159150816111c2575b50386110ce565b6001915060ff1614386111bb565b600160ff82161091506110c7565b503461000e57608060031936011261000e577fc78deb3162d413ca188c49b26907bb9e129618887c22ebe689d74b54c5d7277460043561121d81610478565b60243561122981610478565b6111756113026112f46112f46044359561124287610478565b6112e760643561125181610478565b6112596120f6565b611261612a5d565b6001600160a01b037fffffffffffffffffffffffff0000000000000000000000000000000000000000908061012d9516828654161785558061012e9a16828b5416178a5561012f9a16908a54161789556001600160a01b0361013091167fffffffffffffffffffffffff0000000000000000000000000000000000000000825416179055565b546001600160a01b031690565b93546001600160a01b031690565b61013054604080516001600160a01b03958616815295851660208701529184169185019190915291909116606083015281906080820190565b503461000e57600060031936011261000e57602060405160008152f35b503461000e57602060031936011261000e576105496004356040517fdfa4bb0f000000000000000000000000000000000000000000000000000000008152816004820152602081602481305afa9081156113fb575b6000916113dd575b5081018091116113d0575b6040519081529081906020820190565b6113d861239f565b6113c0565b6113f5915060203d8111610797576107888183612306565b386113b5565b6114036132a9565b6113ad565b9181601f8401121561000e5782359167ffffffffffffffff831161000e576020808501948460051b01011161000e57565b60005b83811061144c5750506000910152565b818101518382015260200161143c565b907fffffffffffffffffffffffffffffffffffffffffffffffffffffffffffffffe0601f60209361149881518092818752878088019101611439565b0116010190565b602080820190808352835180925260408301928160408460051b8301019501936000915b8483106114d35750505050505090565b909192939495848061150f837fffffffffffffffffffffffffffffffffffffffffffffffffffffffffffffffc086600196030187528a5161145c565b98019301930191949392906114c3565b503461000e5760208060031936011261000e5760043567ffffffffffffffff811161000e57611552903690600401611408565b61155b81612378565b926115696040519485612306565b8184527fffffffffffffffffffffffffffffffffffffffffffffffffffffffffffffffe061159683612378565b0160005b8181106115fe5750505060005b8181106115bc5760405180610549868261149f565b806115de6115d86115d16115f9948688612435565b36916124ec565b306125c3565b6115e88287612523565b526115f38186612523565b506123cf565b6115a7565b6060868201840152820161159a565b503461000e57600060031936011261000e5760206001600160a01b036101315416604051908152f35b9181601f8401121561000e5782359167ffffffffffffffff831161000e576020838186019501011161000e57565b503461000e5760a060031936011261000e57611681600435610478565b61168c602435610478565b67ffffffffffffffff60443581811161000e576116ad903690600401611408565b60649291923582811161000e576116c8903690600401611408565b505060843591821161000e57610549926116e96116f0933690600401611636565b50506132b6565b6040517fffffffff0000000000000000000000000000000000000000000000000000000090911681529081906020820190565b503461000e57602060031936011261000e576004356064810290808204606414901517156117ab575b61013254606401908160641161179e575b811561176f5760209160405191048152f35b7f4e487b7100000000000000000000000000000000000000000000000000000000600052601260045260246000fd5b6117a661239f565b61175d565b6117b361239f565b61174c565b503461000e57602060031936011261000e5760043560005260c96020526020604060002054604051908152f35b60ff81160361000e57565b503461000e5760c060031936011261000e5760043561180e81610478565b6064359060243561181e836117e5565b611826612a5d565b6040517fc0c7028c0000000000000000000000000000000000000000000000000000000081526004810182905260208082602481305afa9182156119fc575b6000926119d9575b508060046118d99261188b61067961012d546001600160a01b031690565b604051928380927f964eec700000000000000000000000000000000000000000000000000000000082525afa9182156119cc575b6000926119af575b50506118d38184613d74565b82613be5565b6118e281613da5565b95919390946118fd61067961012f546001600160a01b031690565b90813b1561000e576040517fd505accf0000000000000000000000000000000000000000000000000000000081523360048201523060248201526044808201929092529035606482015260ff9098166084808a01919091523560a4808a01919091523560c489015261074c9790600090829081838160e481015b03925af180156119a2575b61198f575b5033906134cf565b8061075b61199c926122e5565b38611987565b6119aa6132a9565b611982565b6119c59250803d10610797576107888183612306565b38806118c7565b6119d46132a9565b6118bf565b8192506119f5906118d9923d8511610797576107888183612306565b919061186d565b611a046132a9565b611865565b503461000e57604060031936011261000e57600435610865602435611a2d81610478565b6000928084526097602052611a4860016040862001546121d8565b611a50612a5d565b808452609760205260ff611a7a8360408720906001600160a01b0316600052602052604060002090565b5416611a91575b835260c960205260408320612e15565b8084526097602052611ab98260408620906001600160a01b0316600052602052604060002090565b7fffffffffffffffffffffffffffffffffffffffffffffffffffffffffffffff008154169055336001600160a01b038316827ff6391f5c32d9c69d2a47ea670b442974b53935d1edc7fd64eb21e047a839171b8780a4611a81565b503461000e57600060031936011261000e5760206040517f3fb0aaa9e8051cfc6c234a5d843bed33910f70c647055f27247c10144c7552e18152f35b503461000e57602060031936011261000e577f7ab6aa6547859e9ca74d567d44fefa0d63272ac019f4ebf9333032a62ea06fa56020600435611b90612a5d565b611b98611f7b565b8061013355604051908152a1005b503461000e57602060031936011261000e5760206064611bcb610132546004356126f8565b04604051908152f35b503461000e5760e060031936011261000e57600435611bf281610478565b60243560443591611c0283610478565b60843592611c0f846117e5565b611c17612a5d565b6040517fc0c7028c000000000000000000000000000000000000000000000000000000008152600481018490529160208084602481305afa938415611dc6575b600094611d9d575b5090611cc5826004611ce294611c8161067961012d546001600160a01b031690565b604051928380927f964eec700000000000000000000000000000000000000000000000000000000082525afa918215611d90575b600092611d73575b505085613be5565b611ccf83856140a6565b9591939094611cdd85613388565b6133d7565b95611cf961067961012f546001600160a01b031690565b90813b1561000e576040517fd505accf0000000000000000000000000000000000000000000000000000000081523360048201523060248201526044810191909152606480359082015260ff909816608489015260a480359089015260c480359089015261074c9790600090829081838160e48101611977565b611d899250803d10610797576107888183612306565b3880611cbd565b611d986132a9565b611cb5565b819450611dbd611cc591611ce294933d8811610797576107888183612306565b94919250611c5f565b611dce6132a9565b611c57565b503461000e57600060031936011261000e5760206040517f65d7a28e3265b37a6474929f336521b332c1681b933f6cb9f3376673440d862a8152f35b503461000e5760a060031936011261000e57611e2c600435610478565b611e37602435610478565b60843567ffffffffffffffff811161000e57611e57903690600401611636565b5050611e61612a5d565b611e786001600160a01b0361012d54163314613323565b611e83604435613aab565b60206040517ff23a6e61000000000000000000000000000000000000000000000000000000008152f35b503461000e57602060031936011261000e576001600160a01b03600435611ed381610478565b611edb611f7b565b611ee3612a5d565b168015611f425760207f7402811ec5c6ac0812f87b424c701061494fd424fdb0695cd14623cc65a8f2a591610131817fffffffffffffffffffffffff0000000000000000000000000000000000000000825416179055604051908152a1005b60046040517fb79b5914000000000000000000000000000000000000000000000000000000008152fd5b90600052602052604060002090565b3360009081527fb34b648d285118a9ee5f8cc4675698367f99ed092c20555b8b9380d41d2fafb5602052604090205460ff1615611fb457565b61209d604861206b611fc533612841565b61203f611fd06128eb565b6040519485937f416363657373436f6e74726f6c3a206163636f756e74200000000000000000006020860152612010815180926020603789019101611439565b84017f206973206d697373696e6720726f6c65200000000000000000000000000000006037820152019061229e565b037fffffffffffffffffffffffffffffffffffffffffffffffffffffffffffffffe08101835282612306565b6040519182917f08c379a000000000000000000000000000000000000000000000000000000000835260048301612347565b0390fd5b3360009081527f793844da0378ca0230b21a4013ef02cf55735b90b39c85241478ff94b5eceb28602052604090205460ff16156120da57565b61209d604861206b6120eb33612841565b61203f611fd0612987565b3360009081527f683723e34a772b6e4f2c919bba7fa32ed8ea11a8325f54da7db716e9d9dd98c7602052604090205460ff161561212f57565b61213833612841565b6000612142612730565b90603061214e8361276a565b53607861215a83612780565b5360415b6001811161217d5761209d604861206b8661203f87611fd088156127dc565b90807f3031323334353637383961626364656600000000000000000000000000000000600f6121c6931660108110156121cb575b1a6121bc8486612791565b5360041c916127b0565b61215e565b6121d3612405565b6121b1565b80600052609760205260ff612204336040600020906001600160a01b0316600052602052604060002090565b54161561220e5750565b61221733612841565b90612220612730565b90603061222c8361276a565b53607861223883612780565b5360415b6001811161225b5761209d604861206b8661203f87611fd088156127dc565b90807f3031323334353637383961626364656600000000000000000000000000000000600f612299931660108110156121cb571a6121bc8486612791565b61223c565b906122b160209282815194859201611439565b0190565b507f4e487b7100000000000000000000000000000000000000000000000000000000600052604160045260246000fd5b67ffffffffffffffff81116122f957604052565b6123016122b5565b604052565b90601f7fffffffffffffffffffffffffffffffffffffffffffffffffffffffffffffffe0910116810190811067ffffffffffffffff8211176122f957604052565b9060206104ce92818152019061145c565b604051906040820182811067ffffffffffffffff8211176122f957604052565b60209067ffffffffffffffff8111612392575b60051b0190565b61239a6122b5565b61238b565b507f4e487b7100000000000000000000000000000000000000000000000000000000600052601160045260246000fd5b6001907fffffffffffffffffffffffffffffffffffffffffffffffffffffffffffffffff81146123fd570190565b6122b161239f565b507f4e487b7100000000000000000000000000000000000000000000000000000000600052603260045260246000fd5b9190811015612496575b60051b810135907fffffffffffffffffffffffffffffffffffffffffffffffffffffffffffffffe18136030182121561000e57019081359167ffffffffffffffff831161000e57602001823603811361000e579190565b61249e612405565b61243f565b7fffffffffffffffffffffffffffffffffffffffffffffffffffffffffffffffe0601f60209267ffffffffffffffff81116124df575b01160190565b6124e76122b5565b6124d9565b9291926124f8826124a3565b916125066040519384612306565b82948184528183011161000e578281602093846000960137010152565b6020918151811015612538575b60051b010190565b612540612405565b612530565b604051906060820182811067ffffffffffffffff8211176125b6575b604052602782527f206661696c6564000000000000000000000000000000000000000000000000006040837f416464726573733a206c6f772d6c6576656c2064656c65676174652063616c6c60208201520152565b6125be6122b5565b612561565b90813b1561261a576000816104ce9360208394519201905af43d15612613573d6125ec816124a3565b906125fa6040519283612306565b81523d6000602083013e5b61260d612545565b9161269e565b6060612605565b60846040517f08c379a000000000000000000000000000000000000000000000000000000000815260206004820152602660248201527f416464726573733a2064656c65676174652063616c6c20746f206e6f6e2d636f60448201527f6e747261637400000000000000000000000000000000000000000000000000006064820152fd5b909190156126aa575090565b8151156126ba5750805190602001fd5b61209d906040519182917f08c379a000000000000000000000000000000000000000000000000000000000835260206004840152602483019061145c565b8181029291811591840414171561270b57565b61271361239f565b565b906001820180921161270b57565b9190820180921161270b57565b604051906080820182811067ffffffffffffffff82111761275d575b604052604282526060366020840137565b6127656122b5565b61274c565b602090805115612778570190565b6122b1612405565b602190805160011015612778570190565b9060209180518210156127a357010190565b6127ab612405565b010190565b7fffffffffffffffffffffffffffffffffffffffffffffffffffffffffffffffff9080156123fd570190565b156127e357565b60646040517f08c379a000000000000000000000000000000000000000000000000000000000815260206004820152602060248201527f537472696e67733a20686578206c656e67746820696e73756666696369656e746044820152fd5b604051906060820182811067ffffffffffffffff8211176128de575b604052602a8252604036602084013760306128778361276a565b53607861288383612780565b536029905b6001821161289b576104ce9150156127dc565b807f3031323334353637383961626364656600000000000000000000000000000000600f6128d8931660108110156121cb571a6121bc8486612791565b90612888565b6128e66122b5565b61285d565b7f3fb0aaa9e8051cfc6c234a5d843bed33910f70c647055f27247c10144c7552e1612914612730565b9060306129208361276a565b53607861292c83612780565b536041905b60018211612944576104ce9150156127dc565b807f3031323334353637383961626364656600000000000000000000000000000000600f612981931660108110156121cb571a6121bc8486612791565b90612931565b7f65d7a28e3265b37a6474929f336521b332c1681b933f6cb9f3376673440d862a6129b0612730565b9060306129bc8361276a565b5360786129c883612780565b536041905b600182116129e0576104ce9150156127dc565b807f3031323334353637383961626364656600000000000000000000000000000000600f612a1d931660108110156121cb571a6121bc8486612791565b906129cd565b8054821015612a3c575b60005260206000200190600090565b612a44612405565b612a2d565b90612a5391612a23565b90549060031b1c90565b60ff60335416612a6957565b60646040517f08c379a000000000000000000000000000000000000000000000000000000000815260206004820152601060248201527f5061757361626c653a20706175736564000000000000000000000000000000006044820152fd5b612b2a90612ad3612a5d565b6001600160a01b0381811660009081527f683723e34a772b6e4f2c919bba7fa32ed8ea11a8325f54da7db716e9d9dd98c760205260408082205490919060ff1615612b2d575b80805260c960205220911690612d72565b50565b8080526097602052612b5484838320906001600160a01b0316600052602052604060002090565b60017fffffffffffffffffffffffffffffffffffffffffffffffffffffffffffffff0082541617905533838516827f2f8788117e7eff1d82e926ec794901d17c78024a50270940304540a733656f0d8180a4612b19565b612b2a90612bb7612a5d565b6001600160a01b0381811660009081527f1993b25aada9b83773e0286f0950968fd5c4a170648b02185e5fc22cc12f52dd60205260408082209091907f26a560d834a19637eccba4611bbc09fb32970bb627da0a70f14f83fdc9822cbc9060ff905b541615612c31575b815260c960205220911690612d72565b8082526097602052612c5885848420906001600160a01b0316600052602052604060002090565b60017fffffffffffffffffffffffffffffffffffffffffffffffffffffffffffffff0082541617905533848616827f2f8788117e7eff1d82e926ec794901d17c78024a50270940304540a733656f0d8580a4612c21565b612b2a90612cbb612a5d565b6001600160a01b0381811660009081527fb34b648d285118a9ee5f8cc4675698367f99ed092c20555b8b9380d41d2fafb560205260408082209091907f3fb0aaa9e8051cfc6c234a5d843bed33910f70c647055f27247c10144c7552e19060ff90612c19565b6001600160a01b036104ce921690612d72565b91612d6e9183549060031b7fffffffffffffffffffffffffffffffffffffffffffffffffffffffffffffffff811b9283911b169119161790565b9055565b6001810190826000528160205260406000205415600014612e0d5782612deb612db4835468010000000000000000811015612e00575b60018101855584612a23565b819391549060031b7fffffffffffffffffffffffffffffffffffffffffffffffffffffffffffffffff811b9283911b169119161790565b90555491600052602052604060002055600190565b612e086122b5565b612da8565b505050600090565b6001600160a01b036104ce921690612ed9565b907fffffffffffffffffffffffffffffffffffffffffffffffffffffffffffffffff820191821161270b57565b9190820391821161270b57565b8054908115612eaa577fffffffffffffffffffffffffffffffffffffffffffffffffffffffffffffffff80920191612e9a8383612a23565b909182549160031b1b1916905555565b7f4e487b7100000000000000000000000000000000000000000000000000000000600052603160045260246000fd5b6001810191806000528260205260406000205492831515600014612fad57611f6c612f4a936000957fffffffffffffffffffffffffffffffffffffffffffffffffffffffffffffffff808201828111612fa0575b8354918201918211612f93575b808203612f50575b505050612e62565b55600190565b612f7a612f7491612f64612f8a9487612a23565b90549060031b1c92839187612a23565b90612d34565b8590600052602052604060002090565b55388080612f42565b612f9b61239f565b612f3a565b612fa861239f565b612f2d565b50505050600090565b15612fbd57565b60846040517f08c379a000000000000000000000000000000000000000000000000000000000815260206004820152602e60248201527f496e697469616c697a61626c653a20636f6e747261637420697320616c72656160448201527f647920696e697469616c697a65640000000000000000000000000000000000006064820152fd5b90929491946001600160a01b0380861615611f42576131aa966131749561316e946131389361306e613289565b613076613289565b61308760ff60005460081c166131fe565b7fffffffffffffffffffffffffffffffffffffffffffffffffffffffffffffff00603354166033556130b7613289565b6130bf613289565b6130c7613289565b7fffffffffffffffffffffffff0000000000000000000000000000000000000000918161012d91168382541617905561012f9216908254161790556001600160a01b0361012e91167fffffffffffffffffffffffff0000000000000000000000000000000000000000825416179055565b6001600160a01b0361013091167fffffffffffffffffffffffff0000000000000000000000000000000000000000825416179055565b61013255565b6001600160a01b0361013191167fffffffffffffffffffffffff0000000000000000000000000000000000000000825416179055565b6131b5600061013355565b6131e36101347fffffffffffffffffffffffff00000000000000000000000000000000000000008154169055565b6131ec33612ac7565b6131f533612bab565b61271333612caf565b1561320557565b60846040517f08c379a000000000000000000000000000000000000000000000000000000000815260206004820152602b60248201527f496e697469616c697a61626c653a20636f6e7472616374206973206e6f74206960448201527f6e697469616c697a696e670000000000000000000000000000000000000000006064820152fd5b61271360ff60005460081c166131fe565b9081602091031261000e575190565b506040513d6000823e3d90fd5b6132be612a5d565b6132d56001600160a01b0361012d54163314613323565b60005b828110613306575050507fbc197c810000000000000000000000000000000000000000000000000000000090565b8061331961331e9260051b840135613aab565b6123cf565b6132d8565b1561332a57565b60646040517f08c379a000000000000000000000000000000000000000000000000000000000815260206004820152601a60248201527f4d61726b65743a2053656e646572206e6f742052656d6f76616c0000000000006044820152fd5b9061339282612378565b61339f6040519182612306565b8281527fffffffffffffffffffffffffffffffffffffffffffffffffffffffffffffffe06133cd8294612378565b0190602036910137565b5191906133e383613388565b9260019182809201915b8281106133fa5750505050565b8082859260051b880152016133ed565b906040516040810181811067ffffffffffffffff821117613446575b6040526020819360016001600160a01b0391828154168552015416910152565b61344e6122b5565b613426565b9081602091031261000e57516104ce816117e5565b9081602091031261000e5751801515810361000e5790565b93906104ce95936134b3916134c1946001600160a01b03809216885216602087015260a0604087015260a0860190610489565b908482036060860152610489565b91608081840391015261145c565b959093836134e3816134e993969596613a6e565b96613a6e565b9360005b8381106135c0575050604080516001600160a01b03949094166020850152838101969096525050928352613522606084612306565b61353861067961012d546001600160a01b031690565b61354e61067961012e546001600160a01b031690565b92813b1561000e5760008094613594604051978896879586947f2eb2c2d60000000000000000000000000000000000000000000000000000000086523060048701613480565b03925af180156135b3575b6135a65750565b8061075b612713926122e5565b6135bb6132a9565b61359f565b806135cb8188612523565b516135e261067961012d546001600160a01b031690565b9084866135ef858d612523565b516040938d60ff865180987fb776d3330000000000000000000000000000000000000000000000000000000082526020998a91818061363760049a8b83019190602083019252565b03915afa908115613a61575b600091613a34575b50168061386c575b505090859392918d8561012f9286826136d08d828d61369961367f6106798c546001600160a01b031690565b93613693610131546001600160a01b031690565b9a612523565b519051809481927fdfa4bb0f0000000000000000000000000000000000000000000000000000000083528d83019190602083019252565b0381305afa91821561385f575b600092613840575b508c5180809581947f23b872dd000000000000000000000000000000000000000000000000000000009a8b84528d84019261373d936040919493929460608201956001600160a01b0380921683521660208201520152565b03915a90600091f180159d61377b6137d59f6000986137be9761378e966137819661067994613833575b613815575b5050546001600160a01b031690565b98612523565b516001600160a01b031690565b985198899788968795865285016040919493929460608201956001600160a01b0380921683521660208201520152565b03925af18015613808575b6137da575b50506123cf565b6134ed565b816137f992903d10613801575b6137f18183612306565b810190613468565b5038806137ce565b503d6137e7565b6138106132a9565b6137c9565b8161382b92903d10613801576137f18183612306565b508d3861376c565b61383b6132a9565b613767565b613858919250833d8511610797576107888183612306565b90386136e5565b6138676132a9565b6136dd565b6138849198508261388b9396506138929495506126f8565b6064900490565b8093612e55565b91610130916138af8861377b61067986546001600160a01b031690565b5193873b1561000e576139d48f848c968a98928f976139158f9e8f92966000918f988f998d859151968795869485937f1b2ef1ca000000000000000000000000000000000000000000000000000000008552840160209093929193604081019481520152565b03925af19081613a21575b50613a1a5761392e91612523565b51827f8525ff287f90f6d8fe751c65183a177c9dc43ba1ca8c7c479d475307782affd3600080a35b61398061067961397261067961012f546001600160a01b031690565b92546001600160a01b031690565b60008b518096819582947f23b872dd0000000000000000000000000000000000000000000000000000000084528d8c85016040919493929460608201956001600160a01b0380921683521660208201520152565b03925af18015613a0d575b6139f0575b8f919293949550613653565b613a0690863d8811613801576137f18183612306565b50386139e4565b613a156132a9565b6139df565b5050613956565b8061075b613a2e926122e5565b38613920565b613a549150893d8b11613a5a575b613a4c8183612306565b810190613453565b3861364b565b503d613a42565b613a696132a9565b613643565b919082518111613a7c578252565b7f4e487b7100000000000000000000000000000000000000000000000000000000600052600160045260246000fd5b6001600160a01b0390818160201c169182600052610136602052613b0682613b01604060002061ffff8360e01c1690816002820180548015600014613b6657508160018401555590600052602052604060002090565b612d72565b50613b2a6001610dd1856001600160a01b0316600052610135602052604060002090565b1615613b58575b7f66b629ea1d6139d2235af17d85b735aa8c672844f70628e4873054785daa06bd600080a3565b613b6182614342565b613b31565b90600184019182548410600014613b895750505590600052602052604060002090565b9091508211613b9a575b5050611f6c565b558138613b93565b6001600160a01b03821680600052613bc5610136928360205260406000206146e1565b60005260205260026040600020015415613bdc5750565b6127139061455c565b613bee91613c5e565b90506101335411613bfb57565b3360009081527f1993b25aada9b83773e0286f0950968fd5c4a170648b02185e5fc22cc12f52dd602052604090205460ff1615613c3457565b60046040517f9ece8f2f000000000000000000000000000000000000000000000000000000008152fd5b9190828111613c6e576001920390565b50600091508190565b6001600160a01b0381163314908115613d3b575b8115613c95575090565b613cff9150602090613cb361067961012d546001600160a01b031690565b6040517fe985e9c50000000000000000000000000000000000000000000000000000000081526001600160a01b0390921660048301523360248301529092839190829081906044820190565b03915afa908115613d2e575b600091613d16575090565b6104ce915060203d8111613801576137f18183612306565b613d366132a9565b613d0b565b3360009081527fb34b648d285118a9ee5f8cc4675698367f99ed092c20555b8b9380d41d2fafb5602052604090205460ff169150613c8b565b11613d7b57565b60046040517f33aa101c000000000000000000000000000000000000000000000000000000008152fd5b9061012d90613dbe61067983546001600160a01b031690565b906040908151937f789e8cdf00000000000000000000000000000000000000000000000000000000855260209283866004968180613e0e308b83019190916001600160a01b036020820193169052565b03915afa958615614099575b60009661407a575b5095613e32869293949596613388565b96613e3c83613388565b96613e4684613388565b9660009586945b8b878710613e64575b505050505050505093929190565b908b6106798c9b9a9798999d9c9389613f09610134968989613e8d8a546001600160a01b031690565b948d613ec8613eb8613eb3896001600160a01b0316600052610136602052604060002090565b614875565b998a94546001600160a01b031690565b91517efdd58e000000000000000000000000000000000000000000000000000000008152309181019182526020820193909352919485928391829160400190565b03915afa91821561406d575b60009261404e575b5081871015613f935750505088613f5f9593613f559593613f4183613f4795612523565b52612523565b52546001600160a01b031690565b610e44868b612523565b613f6a6000946123cf565b958415613f8757613f7a906123cf565b9493999596979899613e4d565b869798999a508b613e56565b908b96613fc084610e44889f613fc59686613f41613f6a9f9c613fcb9e8591613f416112e79f8490612523565b612e55565b99613ba2565b613fee6001610dd1836001600160a01b0316600052610135602052604060002090565b6001600160a01b039081169116146123cf5761331961013480547fffffffffffffffffffffffff00000000000000000000000000000000000000006001600160a01b03808316600052610135602052600160406000200154169116179055565b6140669192508a3d8c11610797576107888183612306565b9038613f1d565b6140756132a9565b613f15565b614092919650843d8611610797576107888183612306565b9438613e22565b6140a16132a9565b613e1a565b90916140c6836001600160a01b0316600052610136602052604060002090565b90600093600283019384546001850154905b8082111561429c5750508515613d7b5793909192936140f686613388565b9561410081613388565b9560009485935b83851061411a575b505050505050929190565b61412983999897959699614875565b61413f61067961012d546001600160a01b031690565b604080517efdd58e0000000000000000000000000000000000000000000000000000000081523060048083019190915260248201859052602093909291908490829060449082905afa93841561428f575b600094614270575b5050828510156141eb575050506141af868c612523565b526141ba8589612523565b526141c66000946123cf565b9484156141e1576141d6906123cf565b939794959697614107565b859697985061410f565b6141f9889995939499612e28565b851480614267575b61424157505061422b826142329285948f868f8d613f416141c69b61422595612523565b52612e55565b96856146e1565b89546123cf576133198361455c565b517f33aa101c000000000000000000000000000000000000000000000000000000008152fd5b50838311614201565b614287929450803d10610797576107888183612306565b913880614198565b6142976132a9565b614190565b90966142c06142c6916142b98a8990600052602052604060002090565b5490612723565b976123cf565b906140d8565b815181547fffffffffffffffffffffffff0000000000000000000000000000000000000000166001600160a01b03918216178255612713926001919060200151169101906001600160a01b03167fffffffffffffffffffffffff0000000000000000000000000000000000000000825416179055565b6101349061435782546001600160a01b031690565b6001600160a01b03928184166143ff57505061013480547fffffffffffffffffffffffff0000000000000000000000000000000000000000166001600160a01b0383161790556143d56143a8612358565b6001600160a01b038316808252602080830182905260009182526101359052604090206142cc565b6142cc565b1680807f4514cfa2dddfc0c95fbbe6daf05b1b5363a1dcce031beaaf21a4aef88854d43b600080a4565b928061452f839561447261442b6112e785976001600160a01b0316600052610135602052604060002090565b97614454614437612358565b6001600160a01b038b168152916001600160a01b03166020830152565b6143d0886001600160a01b0316600052610135602052604060002090565b6144ca8660016144968a6001600160a01b0316600052610135602052604060002090565b01906001600160a01b03167fffffffffffffffffffffffff0000000000000000000000000000000000000000825416179055565b6112e7866144fc6144e284546001600160a01b031690565b6001600160a01b0316600052610135602052604060002090565b906001600160a01b03167fffffffffffffffffffffffff0000000000000000000000000000000000000000825416179055565b9416931691167f4514cfa2dddfc0c95fbbe6daf05b1b5363a1dcce031beaaf21a4aef88854d43b600080a4565b6001600160a01b039081614584826001600160a01b0316600052610135602052604060002090565b5416916146168160016145ab856001600160a01b0316600052610135602052604060002090565b015416928281169283850361463d57506101347fffffffffffffffffffffffff000000000000000000000000000000000000000081541690555b6143d06145f0612358565b9160008352600060208401526001600160a01b0316600052610135602052604060002090565b7f09bf71858fe1201df1c9aa532d62109ec42599145cc7afd14a18b0ef00ce44b4600080a4565b614661856001614496896001600160a01b0316600052610135602052604060002090565b614683866144fc876001600160a01b0316600052610135602052604060002090565b610134541683036145e5576146dc61013480547fffffffffffffffffffffffff00000000000000000000000000000000000000006001600160a01b03808316600052610135602052600160406000200154169116179055565b6145e5565b61ffff8260e01c169161470e61470a82614705868690600052602052604060002090565b612ed9565b1590565b61483957506147298282906000526020526040600020541590565b614731575050565b6001808201918254600282019485549182811460001461477f5750505050509061477c6000927fffffffffffffffffffffffffffffffffffffffffffffffffffffffffffffffff9055565b55565b9395929381036147e8575050836147968454612715565b905b6147a4575b5050505050565b815481116147e3576147c0818490600052602052604060002090565b546147d4576147ce906123cf565b84614798565b9350505055388080808061479d565b61479d565b91939181146147f8575050505050565b6148028591612e28565b905b1561479d57815481106147e357614825818490600052602052604060002090565b546147d457614833906127b0565b84614804565b6040517fb524f6fe0000000000000000000000000000000000000000000000000000000081526004810191909152602481019290925250604490fd5b60018101546000526020526040600020805415614899575b60005260206000205490565b6148a1612405565b61488d56fea26469706673582212203ecba2834d3ebc1da25d5dae124602d47fdc78846d62c75a4df5eb4572835ed864736f6c63430008110033"
}