{
  "address": "0x88299f0dAc24f1D21e2a9d543761e8267427b3b4",
  "abi": [
    {
      "inputs": [],
      "stateMutability": "nonpayable",
      "type": "constructor"
    },
    {
      "inputs": [
        {
          "internalType": "uint256",
          "name": "tokenId",
          "type": "uint256"
        }
      ],
      "name": "CertificateNotYetMinted",
      "type": "error"
    },
    {
      "inputs": [],
      "name": "ERC20TransferFailed",
      "type": "error"
    },
    {
      "inputs": [],
      "name": "InsufficientSupply",
      "type": "error"
    },
    {
      "inputs": [],
      "name": "InvalidNoriFeePercentage",
      "type": "error"
    },
    {
      "inputs": [],
      "name": "LowSupplyAllowlistRequired",
      "type": "error"
    },
    {
      "inputs": [],
      "name": "NoriFeeWalletZeroAddress",
      "type": "error"
    },
    {
      "inputs": [
        {
          "internalType": "uint256",
          "name": "removalId",
          "type": "uint256"
        },
        {
          "internalType": "uint256",
          "name": "year",
          "type": "uint256"
        }
      ],
      "name": "RemovalNotFoundInYear",
      "type": "error"
    },
    {
      "inputs": [],
      "name": "ReplacementAmountExceedsNrtDeficit",
      "type": "error"
    },
    {
      "inputs": [],
      "name": "ReplacementAmountMismatch",
      "type": "error"
    },
    {
      "inputs": [],
      "name": "SenderNotRemovalContract",
      "type": "error"
    },
    {
      "inputs": [],
      "name": "UnauthorizedWithdrawal",
      "type": "error"
    },
    {
      "anonymous": false,
      "inputs": [
        {
          "indexed": true,
          "internalType": "uint256",
          "name": "id",
          "type": "uint256"
        },
        {
          "indexed": true,
          "internalType": "address",
          "name": "supplierAddress",
          "type": "address"
        }
      ],
      "name": "AddRemoval",
      "type": "event"
    },
    {
      "anonymous": false,
      "inputs": [
        {
          "indexed": true,
          "internalType": "address",
          "name": "added",
          "type": "address"
        },
        {
          "indexed": true,
          "internalType": "address",
          "name": "next",
          "type": "address"
        },
        {
          "indexed": true,
          "internalType": "address",
          "name": "previous",
          "type": "address"
        }
      ],
      "name": "AddSupplier",
      "type": "event"
    },
    {
      "anonymous": false,
      "inputs": [
        {
          "indexed": false,
          "internalType": "uint8",
          "name": "version",
          "type": "uint8"
        }
      ],
      "name": "Initialized",
      "type": "event"
    },
    {
      "anonymous": false,
      "inputs": [
        {
          "indexed": false,
          "internalType": "address",
          "name": "account",
          "type": "address"
        }
      ],
      "name": "Paused",
      "type": "event"
    },
    {
      "anonymous": false,
      "inputs": [
        {
          "indexed": false,
          "internalType": "contract Removal",
          "name": "removal",
          "type": "address"
        },
        {
          "indexed": false,
          "internalType": "contract Certificate",
          "name": "certificate",
          "type": "address"
        },
        {
          "indexed": false,
          "internalType": "contract IERC20WithPermit",
          "name": "purchasingToken",
          "type": "address"
        },
        {
          "indexed": false,
          "internalType": "contract RestrictedNORI",
          "name": "restrictedNORI",
          "type": "address"
        }
      ],
      "name": "RegisterContractAddresses",
      "type": "event"
    },
    {
      "anonymous": false,
      "inputs": [
        {
          "indexed": true,
          "internalType": "address",
          "name": "removed",
          "type": "address"
        },
        {
          "indexed": true,
          "internalType": "address",
          "name": "next",
          "type": "address"
        },
        {
          "indexed": true,
          "internalType": "address",
          "name": "previous",
          "type": "address"
        }
      ],
      "name": "RemoveSupplier",
      "type": "event"
    },
    {
      "anonymous": false,
      "inputs": [
        {
          "indexed": true,
          "internalType": "uint256",
          "name": "amount",
          "type": "uint256"
        },
        {
          "indexed": true,
          "internalType": "uint256",
          "name": "removalId",
          "type": "uint256"
        }
      ],
      "name": "RestrictedNORIMintFailure",
      "type": "event"
    },
    {
      "anonymous": false,
      "inputs": [
        {
          "indexed": true,
          "internalType": "bytes32",
          "name": "role",
          "type": "bytes32"
        },
        {
          "indexed": true,
          "internalType": "bytes32",
          "name": "previousAdminRole",
          "type": "bytes32"
        },
        {
          "indexed": true,
          "internalType": "bytes32",
          "name": "newAdminRole",
          "type": "bytes32"
        }
      ],
      "name": "RoleAdminChanged",
      "type": "event"
    },
    {
      "anonymous": false,
      "inputs": [
        {
          "indexed": true,
          "internalType": "bytes32",
          "name": "role",
          "type": "bytes32"
        },
        {
          "indexed": true,
          "internalType": "address",
          "name": "account",
          "type": "address"
        },
        {
          "indexed": true,
          "internalType": "address",
          "name": "sender",
          "type": "address"
        }
      ],
      "name": "RoleGranted",
      "type": "event"
    },
    {
      "anonymous": false,
      "inputs": [
        {
          "indexed": true,
          "internalType": "bytes32",
          "name": "role",
          "type": "bytes32"
        },
        {
          "indexed": true,
          "internalType": "address",
          "name": "account",
          "type": "address"
        },
        {
          "indexed": true,
          "internalType": "address",
          "name": "sender",
          "type": "address"
        }
      ],
      "name": "RoleRevoked",
      "type": "event"
    },
    {
      "anonymous": false,
      "inputs": [
        {
          "indexed": false,
          "internalType": "uint256",
          "name": "priceMultiple",
          "type": "uint256"
        }
      ],
      "name": "SetPriceMultiple",
      "type": "event"
    },
    {
      "anonymous": false,
      "inputs": [
        {
          "indexed": false,
          "internalType": "uint256",
          "name": "threshold",
          "type": "uint256"
        }
      ],
      "name": "SetPriorityRestrictedThreshold",
      "type": "event"
    },
    {
      "anonymous": false,
      "inputs": [
        {
          "indexed": false,
          "internalType": "contract IERC20WithPermit",
          "name": "purchasingToken",
          "type": "address"
        }
      ],
      "name": "SetPurchasingToken",
      "type": "event"
    },
    {
      "anonymous": false,
      "inputs": [
        {
          "indexed": true,
          "internalType": "uint256",
          "name": "amount",
          "type": "uint256"
        },
        {
          "indexed": true,
          "internalType": "uint256",
          "name": "removalId",
          "type": "uint256"
        },
        {
          "indexed": false,
          "internalType": "uint256",
          "name": "currentHoldbackPercentage",
          "type": "uint256"
        },
        {
          "indexed": false,
          "internalType": "address",
          "name": "rNoriUnderlyingToken",
          "type": "address"
        },
        {
          "indexed": false,
          "internalType": "address",
          "name": "purchasingTokenAddress",
          "type": "address"
        }
      ],
      "name": "SkipRestrictedNORIERC20Transfer",
      "type": "event"
    },
    {
      "anonymous": false,
      "inputs": [
        {
          "indexed": false,
          "internalType": "address",
          "name": "account",
          "type": "address"
        }
      ],
      "name": "Unpaused",
      "type": "event"
    },
    {
      "anonymous": false,
      "inputs": [
        {
          "indexed": true,
          "internalType": "uint256",
          "name": "certificateId",
          "type": "uint256"
        },
        {
          "indexed": false,
          "internalType": "uint256[]",
          "name": "removalIds",
          "type": "uint256[]"
        },
        {
          "indexed": false,
          "internalType": "uint256[]",
          "name": "amounts",
          "type": "uint256[]"
        },
        {
          "indexed": false,
          "internalType": "uint256[]",
          "name": "removalIdsBeingReplaced",
          "type": "uint256[]"
        },
        {
          "indexed": false,
          "internalType": "uint256[]",
          "name": "amountsBeingReplaced",
          "type": "uint256[]"
        },
        {
          "indexed": false,
          "internalType": "address",
          "name": "purchasingTokenAddress",
          "type": "address"
        },
        {
          "indexed": false,
          "internalType": "uint256",
          "name": "priceMultiple",
          "type": "uint256"
        }
      ],
      "name": "UpdateCertificate",
      "type": "event"
    },
    {
      "anonymous": false,
      "inputs": [
        {
          "indexed": false,
          "internalType": "uint256",
          "name": "updatedFeePercentage",
          "type": "uint256"
        }
      ],
      "name": "UpdateNoriFeePercentage",
      "type": "event"
    },
    {
      "anonymous": false,
      "inputs": [
        {
          "indexed": false,
          "internalType": "address",
          "name": "updatedWalletAddress",
          "type": "address"
        }
      ],
      "name": "UpdateNoriFeeWalletAddress",
      "type": "event"
    },
    {
      "inputs": [],
      "name": "ALLOWLIST_ROLE",
      "outputs": [
        {
          "internalType": "bytes32",
          "name": "",
          "type": "bytes32"
        }
      ],
      "stateMutability": "view",
      "type": "function"
    },
    {
      "inputs": [],
      "name": "DEFAULT_ADMIN_ROLE",
      "outputs": [
        {
          "internalType": "bytes32",
          "name": "",
          "type": "bytes32"
        }
      ],
      "stateMutability": "view",
      "type": "function"
    },
    {
      "inputs": [],
      "name": "MARKET_ADMIN_ROLE",
      "outputs": [
        {
          "internalType": "bytes32",
          "name": "",
          "type": "bytes32"
        }
      ],
      "stateMutability": "view",
      "type": "function"
    },
    {
      "inputs": [],
      "name": "PAUSER_ROLE",
      "outputs": [
        {
          "internalType": "bytes32",
          "name": "",
          "type": "bytes32"
        }
      ],
      "stateMutability": "view",
      "type": "function"
    },
    {
      "inputs": [
        {
          "internalType": "uint256",
          "name": "purchaseTotal",
          "type": "uint256"
        }
      ],
      "name": "calculateCertificateAmountFromPurchaseTotal",
      "outputs": [
        {
          "internalType": "uint256",
          "name": "",
          "type": "uint256"
        }
      ],
      "stateMutability": "view",
      "type": "function"
    },
    {
      "inputs": [
        {
          "internalType": "uint256",
          "name": "purchaseTotal",
          "type": "uint256"
        }
      ],
      "name": "calculateCertificateAmountFromPurchaseTotalWithoutFee",
      "outputs": [
        {
          "internalType": "uint256",
          "name": "",
          "type": "uint256"
        }
      ],
      "stateMutability": "view",
      "type": "function"
    },
    {
      "inputs": [
        {
          "internalType": "uint256",
          "name": "amount",
          "type": "uint256"
        }
      ],
      "name": "calculateCheckoutTotal",
      "outputs": [
        {
          "internalType": "uint256",
          "name": "",
          "type": "uint256"
        }
      ],
      "stateMutability": "view",
      "type": "function"
    },
    {
      "inputs": [
        {
          "internalType": "uint256",
          "name": "amount",
          "type": "uint256"
        }
      ],
      "name": "calculateCheckoutTotalWithoutFee",
      "outputs": [
        {
          "internalType": "uint256",
          "name": "",
          "type": "uint256"
        }
      ],
      "stateMutability": "view",
      "type": "function"
    },
    {
      "inputs": [
        {
          "internalType": "uint256",
          "name": "amount",
          "type": "uint256"
        }
      ],
      "name": "calculateNoriFee",
      "outputs": [
        {
          "internalType": "uint256",
          "name": "",
          "type": "uint256"
        }
      ],
      "stateMutability": "view",
      "type": "function"
    },
    {
      "inputs": [],
      "name": "getActiveSuppliers",
      "outputs": [
        {
          "internalType": "address[]",
          "name": "suppliers",
          "type": "address[]"
        }
      ],
      "stateMutability": "view",
      "type": "function"
    },
    {
      "inputs": [],
      "name": "getCertificateAddress",
      "outputs": [
        {
          "internalType": "address",
          "name": "",
          "type": "address"
        }
      ],
      "stateMutability": "view",
      "type": "function"
    },
    {
      "inputs": [],
      "name": "getNoriFeePercentage",
      "outputs": [
        {
          "internalType": "uint256",
          "name": "",
          "type": "uint256"
        }
      ],
      "stateMutability": "view",
      "type": "function"
    },
    {
      "inputs": [],
      "name": "getNoriFeeWallet",
      "outputs": [
        {
          "internalType": "address",
          "name": "",
          "type": "address"
        }
      ],
      "stateMutability": "view",
      "type": "function"
    },
    {
      "inputs": [],
      "name": "getPriceMultiple",
      "outputs": [
        {
          "internalType": "uint256",
          "name": "",
          "type": "uint256"
        }
      ],
      "stateMutability": "view",
      "type": "function"
    },
    {
      "inputs": [],
      "name": "getPriorityRestrictedThreshold",
      "outputs": [
        {
          "internalType": "uint256",
          "name": "",
          "type": "uint256"
        }
      ],
      "stateMutability": "view",
      "type": "function"
    },
    {
      "inputs": [],
      "name": "getPurchasingTokenAddress",
      "outputs": [
        {
          "internalType": "address",
          "name": "",
          "type": "address"
        }
      ],
      "stateMutability": "view",
      "type": "function"
    },
    {
      "inputs": [],
      "name": "getRemovalAddress",
      "outputs": [
        {
          "internalType": "address",
          "name": "",
          "type": "address"
        }
      ],
      "stateMutability": "view",
      "type": "function"
    },
    {
      "inputs": [
        {
          "internalType": "address",
          "name": "supplier",
          "type": "address"
        }
      ],
      "name": "getRemovalIdsForSupplier",
      "outputs": [
        {
          "internalType": "uint256[]",
          "name": "removalIds",
          "type": "uint256[]"
        }
      ],
      "stateMutability": "view",
      "type": "function"
    },
    {
      "inputs": [],
      "name": "getRestrictedNoriAddress",
      "outputs": [
        {
          "internalType": "address",
          "name": "",
          "type": "address"
        }
      ],
      "stateMutability": "view",
      "type": "function"
    },
    {
      "inputs": [
        {
          "internalType": "bytes32",
          "name": "role",
          "type": "bytes32"
        }
      ],
      "name": "getRoleAdmin",
      "outputs": [
        {
          "internalType": "bytes32",
          "name": "",
          "type": "bytes32"
        }
      ],
      "stateMutability": "view",
      "type": "function"
    },
    {
      "inputs": [
        {
          "internalType": "bytes32",
          "name": "role",
          "type": "bytes32"
        },
        {
          "internalType": "uint256",
          "name": "index",
          "type": "uint256"
        }
      ],
      "name": "getRoleMember",
      "outputs": [
        {
          "internalType": "address",
          "name": "",
          "type": "address"
        }
      ],
      "stateMutability": "view",
      "type": "function"
    },
    {
      "inputs": [
        {
          "internalType": "bytes32",
          "name": "role",
          "type": "bytes32"
        }
      ],
      "name": "getRoleMemberCount",
      "outputs": [
        {
          "internalType": "uint256",
          "name": "",
          "type": "uint256"
        }
      ],
      "stateMutability": "view",
      "type": "function"
    },
    {
      "inputs": [
        {
          "internalType": "bytes32",
          "name": "role",
          "type": "bytes32"
        },
        {
          "internalType": "address",
          "name": "account",
          "type": "address"
        }
      ],
      "name": "grantRole",
      "outputs": [],
      "stateMutability": "nonpayable",
      "type": "function"
    },
    {
      "inputs": [
        {
          "internalType": "bytes32",
          "name": "role",
          "type": "bytes32"
        },
        {
          "internalType": "address",
          "name": "account",
          "type": "address"
        }
      ],
      "name": "hasRole",
      "outputs": [
        {
          "internalType": "bool",
          "name": "",
          "type": "bool"
        }
      ],
      "stateMutability": "view",
      "type": "function"
    },
    {
      "inputs": [
        {
          "internalType": "contract Removal",
          "name": "removal",
          "type": "address"
        },
        {
          "internalType": "contract IERC20WithPermit",
          "name": "purchasingToken",
          "type": "address"
        },
        {
          "internalType": "contract Certificate",
          "name": "certificate",
          "type": "address"
        },
        {
          "internalType": "contract RestrictedNORI",
          "name": "restrictedNori",
          "type": "address"
        },
        {
          "internalType": "address",
          "name": "noriFeeWalletAddress",
          "type": "address"
        },
        {
          "internalType": "uint256",
          "name": "noriFeePercentage_",
          "type": "uint256"
        },
        {
          "internalType": "uint256",
          "name": "priceMultiple_",
          "type": "uint256"
        }
      ],
      "name": "initialize",
      "outputs": [],
      "stateMutability": "nonpayable",
      "type": "function"
    },
    {
      "inputs": [
        {
          "internalType": "bytes[]",
          "name": "data",
          "type": "bytes[]"
        }
      ],
      "name": "multicall",
      "outputs": [
        {
          "internalType": "bytes[]",
          "name": "results",
          "type": "bytes[]"
        }
      ],
      "stateMutability": "nonpayable",
      "type": "function"
    },
    {
      "inputs": [
        {
          "internalType": "address",
          "name": "",
          "type": "address"
        },
        {
          "internalType": "address",
          "name": "",
          "type": "address"
        },
        {
          "internalType": "uint256[]",
          "name": "ids",
          "type": "uint256[]"
        },
        {
          "internalType": "uint256[]",
          "name": "",
          "type": "uint256[]"
        },
        {
          "internalType": "bytes",
          "name": "",
          "type": "bytes"
        }
      ],
      "name": "onERC1155BatchReceived",
      "outputs": [
        {
          "internalType": "bytes4",
          "name": "",
          "type": "bytes4"
        }
      ],
      "stateMutability": "nonpayable",
      "type": "function"
    },
    {
      "inputs": [
        {
          "internalType": "address",
          "name": "",
          "type": "address"
        },
        {
          "internalType": "address",
          "name": "",
          "type": "address"
        },
        {
          "internalType": "uint256",
          "name": "id",
          "type": "uint256"
        },
        {
          "internalType": "uint256",
          "name": "",
          "type": "uint256"
        },
        {
          "internalType": "bytes",
          "name": "",
          "type": "bytes"
        }
      ],
      "name": "onERC1155Received",
      "outputs": [
        {
          "internalType": "bytes4",
          "name": "",
          "type": "bytes4"
        }
      ],
      "stateMutability": "nonpayable",
      "type": "function"
    },
    {
      "inputs": [],
      "name": "pause",
      "outputs": [],
      "stateMutability": "nonpayable",
      "type": "function"
    },
    {
      "inputs": [],
      "name": "paused",
      "outputs": [
        {
          "internalType": "bool",
          "name": "",
          "type": "bool"
        }
      ],
      "stateMutability": "view",
      "type": "function"
    },
    {
      "inputs": [
        {
          "internalType": "contract Removal",
          "name": "removal",
          "type": "address"
        },
        {
          "internalType": "contract Certificate",
          "name": "certificate",
          "type": "address"
        },
        {
          "internalType": "contract IERC20WithPermit",
          "name": "purchasingToken",
          "type": "address"
        },
        {
          "internalType": "contract RestrictedNORI",
          "name": "restrictedNORI",
          "type": "address"
        }
      ],
      "name": "registerContractAddresses",
      "outputs": [],
      "stateMutability": "nonpayable",
      "type": "function"
    },
    {
      "inputs": [
        {
          "internalType": "uint256",
          "name": "removalId",
          "type": "uint256"
        }
      ],
      "name": "release",
      "outputs": [],
      "stateMutability": "nonpayable",
      "type": "function"
    },
    {
      "inputs": [
        {
          "internalType": "bytes32",
          "name": "role",
          "type": "bytes32"
        },
        {
          "internalType": "address",
          "name": "account",
          "type": "address"
        }
      ],
      "name": "renounceRole",
      "outputs": [],
      "stateMutability": "nonpayable",
      "type": "function"
    },
    {
      "inputs": [
        {
          "internalType": "address",
          "name": "treasury",
          "type": "address"
        },
        {
          "internalType": "uint256",
          "name": "certificateId",
          "type": "uint256"
        },
        {
          "internalType": "uint256",
          "name": "totalAmountToReplace",
          "type": "uint256"
        },
        {
          "internalType": "uint256[]",
          "name": "removalIdsBeingReplaced",
          "type": "uint256[]"
        },
        {
          "internalType": "uint256[]",
          "name": "amountsBeingReplaced",
          "type": "uint256[]"
        }
      ],
      "name": "replace",
      "outputs": [],
      "stateMutability": "nonpayable",
      "type": "function"
    },
    {
      "inputs": [
        {
          "internalType": "bytes32",
          "name": "role",
          "type": "bytes32"
        },
        {
          "internalType": "address",
          "name": "account",
          "type": "address"
        }
      ],
      "name": "revokeRole",
      "outputs": [],
      "stateMutability": "nonpayable",
      "type": "function"
    },
    {
      "inputs": [
        {
          "internalType": "uint256",
          "name": "noriFeePercentage_",
          "type": "uint256"
        }
      ],
      "name": "setNoriFeePercentage",
      "outputs": [],
      "stateMutability": "nonpayable",
      "type": "function"
    },
    {
      "inputs": [
        {
          "internalType": "address",
          "name": "noriFeeWalletAddress",
          "type": "address"
        }
      ],
      "name": "setNoriFeeWallet",
      "outputs": [],
      "stateMutability": "nonpayable",
      "type": "function"
    },
    {
      "inputs": [
        {
          "internalType": "uint256",
          "name": "threshold",
          "type": "uint256"
        }
      ],
      "name": "setPriorityRestrictedThreshold",
      "outputs": [],
      "stateMutability": "nonpayable",
      "type": "function"
    },
    {
      "inputs": [
        {
          "internalType": "contract IERC20WithPermit",
          "name": "purchasingToken",
          "type": "address"
        },
        {
          "internalType": "uint256",
          "name": "priceMultiple",
          "type": "uint256"
        }
      ],
      "name": "setPurchasingTokenAndPriceMultiple",
      "outputs": [],
      "stateMutability": "nonpayable",
      "type": "function"
    },
    {
      "inputs": [
        {
          "internalType": "bytes4",
          "name": "interfaceId",
          "type": "bytes4"
        }
      ],
      "name": "supportsInterface",
      "outputs": [
        {
          "internalType": "bool",
          "name": "",
          "type": "bool"
        }
      ],
      "stateMutability": "view",
      "type": "function"
    },
    {
      "inputs": [
        {
          "internalType": "address",
          "name": "recipient",
          "type": "address"
        },
        {
          "internalType": "address",
          "name": "permitOwner",
          "type": "address"
        },
        {
          "internalType": "uint256",
          "name": "amount",
          "type": "uint256"
        },
        {
          "internalType": "uint256",
          "name": "deadline",
          "type": "uint256"
        },
        {
          "internalType": "uint8",
          "name": "v",
          "type": "uint8"
        },
        {
          "internalType": "bytes32",
          "name": "r",
          "type": "bytes32"
        },
        {
          "internalType": "bytes32",
          "name": "s",
          "type": "bytes32"
        }
      ],
      "name": "swap",
      "outputs": [],
      "stateMutability": "nonpayable",
      "type": "function"
    },
    {
      "inputs": [
        {
          "internalType": "address",
          "name": "recipient",
          "type": "address"
        },
        {
          "internalType": "uint256",
          "name": "amount",
          "type": "uint256"
        }
      ],
      "name": "swap",
      "outputs": [],
      "stateMutability": "nonpayable",
      "type": "function"
    },
    {
      "inputs": [
        {
          "internalType": "address",
          "name": "recipient",
          "type": "address"
        },
        {
          "internalType": "uint256",
          "name": "amount",
          "type": "uint256"
        },
        {
          "internalType": "address",
          "name": "supplier",
          "type": "address"
        }
      ],
      "name": "swapFromSupplier",
      "outputs": [],
      "stateMutability": "nonpayable",
      "type": "function"
    },
    {
      "inputs": [
        {
          "internalType": "address",
          "name": "recipient",
          "type": "address"
        },
        {
          "internalType": "address",
          "name": "permitOwner",
          "type": "address"
        },
        {
          "internalType": "uint256",
          "name": "amount",
          "type": "uint256"
        },
        {
          "internalType": "address",
          "name": "supplier",
          "type": "address"
        },
        {
          "internalType": "uint256",
          "name": "deadline",
          "type": "uint256"
        },
        {
          "internalType": "uint8",
          "name": "v",
          "type": "uint8"
        },
        {
          "internalType": "bytes32",
          "name": "r",
          "type": "bytes32"
        },
        {
          "internalType": "bytes32",
          "name": "s",
          "type": "bytes32"
        }
      ],
      "name": "swapFromSupplier",
      "outputs": [],
      "stateMutability": "nonpayable",
      "type": "function"
    },
    {
      "inputs": [
        {
          "internalType": "address",
          "name": "recipient",
          "type": "address"
        },
        {
          "internalType": "address",
          "name": "purchaser",
          "type": "address"
        },
        {
          "internalType": "uint256",
          "name": "amount",
          "type": "uint256"
        },
        {
          "internalType": "address",
          "name": "supplier",
          "type": "address"
        }
      ],
      "name": "swapFromSupplierWithoutFee",
      "outputs": [],
      "stateMutability": "nonpayable",
      "type": "function"
    },
    {
      "inputs": [
        {
          "internalType": "address",
          "name": "recipient",
          "type": "address"
        },
        {
          "internalType": "address",
          "name": "purchaser",
          "type": "address"
        },
        {
          "internalType": "uint256",
          "name": "amount",
          "type": "uint256"
        }
      ],
      "name": "swapWithoutFee",
      "outputs": [],
      "stateMutability": "nonpayable",
      "type": "function"
    },
    {
      "inputs": [],
      "name": "unpause",
      "outputs": [],
      "stateMutability": "nonpayable",
      "type": "function"
    },
    {
      "inputs": [
        {
          "internalType": "uint256",
          "name": "removalId",
          "type": "uint256"
        }
      ],
      "name": "withdraw",
      "outputs": [],
      "stateMutability": "nonpayable",
      "type": "function"
    }
  ],
  "numDeployments": 6,
  "bytecode": "0x60808060405234620000c6576000549060ff8260081c1662000074575060ff8082161062000038575b604051615bad9081620000cc8239f35b60ff90811916176000557f7f26b83ff96e1f2b6a682f133852f6798a09c465da95921460cefb3847402498602060405160ff8152a13862000028565b62461bcd60e51b815260206004820152602760248201527f496e697469616c697a61626c653a20636f6e747261637420697320696e697469604482015266616c697a696e6760c81b6064820152608490fd5b600080fdfe60806040526004361015610013575b600080fd5b60003560e01c806301ffc9a7146103d357806302e0affa146103ca578063248a9ca3146103c157806325fbff7a146103b85780632c9fcbd7146103af5780632e1a7d4d146103a65780632f2ff15d1461039d5780633030b53214610394578063327860491461038b57806336568abe1461038257806337bdc99b146103795780633f4ba83a14610370578063453aabc31461036757806346e738f31461035e57806347883bce146103555780634b66f6651461034c578063596abe94146103435780635c975abb1461033a5780636cf250e21461033157806374d3627b146103285780637f49f7381461031f5780638456cb591461031657806384e043221461030d578063856e115a1461030457806385d3d64b146102fb5780638c6b8d98146102f25780639010d07c146102e957806391d14854146102e0578063a12d6874146102d7578063a217fddf146102ce578063a5758566146102c5578063a8f881c0146102bc578063ac9650d8146102b3578063b33f9527146102aa578063b9054257146102a1578063bc197c8114610298578063c0c7028c1461028f578063ca15c87314610286578063d004f0f71461027d578063d41436ce14610274578063d547741f1461026b578063d6f0d39f14610262578063d797462f14610259578063dfa4bb0f14610250578063e63ab1e914610247578063e7f78c721461023e578063f23a6e61146102355763f9c285281461022d57600080fd5b61000e6126b3565b5061000e612615565b5061000e6125ec565b5061000e6125b0565b5061000e612580565b5061000e61252a565b5061000e6124ee565b5061000e6123e3565b5061000e612318565b5061000e61225b565b5061000e61222e565b5061000e6121ed565b5061000e61212e565b5061000e6120e0565b5061000e611f5b565b5061000e611e6d565b5061000e611d36565b5061000e611c78565b5061000e611c5b565b5061000e611af9565b5061000e611aa1565b5061000e611a5a565b5061000e61169b565b5061000e61151a565b5061000e611412565b5061000e6113d1565b5061000e611358565b5061000e61132f565b5061000e611224565b5061000e611204565b5061000e6111e0565b5061000e611065565b5061000e610ff8565b5061000e610f08565b5061000e610ee5565b5061000e610dac565b5061000e610ccc565b5061000e610bcb565b5061000e610a48565b5061000e6109bf565b5061000e610983565b5061000e61085e565b5061000e6106aa565b5061000e610681565b5061000e610578565b5061000e6104ef565b5061000e6104a8565b503461000e57602060031936011261000e576004357fffffffff00000000000000000000000000000000000000000000000000000000811680910361000e57807f5a05180f000000000000000000000000000000000000000000000000000000006020921490811561044b575b506040519015158152f35b7f7965db0b0000000000000000000000000000000000000000000000000000000081149150811561047e575b5038610440565b7f01ffc9a70000000000000000000000000000000000000000000000000000000091501438610477565b503461000e57602060031936011261000e5760206104da61013154806064029060648204036104e2575b600435613b7e565b604051908152f35b6104ea612ac8565b6104d2565b503461000e57602060031936011261000e5760043560005260976020526020600160406000200154604051908152f35b6001600160a01b0381160361000e57565b90815180825260208080930193019160005b828110610550575050505090565b835185529381019392810192600101610542565b906020610575928181520190610530565b90565b503461000e5760208060031936011261000e57600435906105988261051f565b6001600160a01b03600092168252610137815260408083209260028401549080948190600196878201549081975b8683111561065157506105d991506139af565b955b848111156105f4578551806105f08982610564565b0390f35b86610609828490600052602052604060002090565b8054908a875b83811061062957505050505061062490612af8565b6105db565b8293949761064561063b838596613136565b918481019a612c2e565b5201908a93929161060f565b9061066961066f918488528584528988205490612e2e565b92612af8565b91906105c6565b600091031261000e57565b503461000e57600060031936011261000e5760206001600160a01b0361012f5416604051908152f35b503461000e57602060031936011261000e576004356106c761314a565b6001600160a01b038160201c166106dd816150df565b15610834576106ec8183614fff565b61070e61070261012d546001600160a01b031690565b6001600160a01b031690565b6040517efdd58e0000000000000000000000000000000000000000000000000000000081523060048201526024810184905290602082604481845afa918215610827575b6000926107f7575b50803b1561000e576040517ff242432a0000000000000000000000000000000000000000000000000000000081523060048201526001600160a01b039390931660248401526044830193909352606482015260a06084820152600060a482018190529091829060c490829084905af180156107ea575b6107d7575b005b806107e46107d592611573565b80610676565b6107f26138ff565b6107d0565b61081991925060203d8111610820575b6108118183611594565b8101906138f0565b903861075a565b503d610807565b61082f6138ff565b610752565b60046040517f60b39bc5000000000000000000000000000000000000000000000000000000008152fd5b503461000e57604060031936011261000e576004356108ee6024356108828161051f565b6108e960009380855260976020526108a060016040872001546129da565b6108a861314a565b808552609760205260ff6108d28460408820906001600160a01b0316600052602052604060002090565b5416156108f25760005260c9602052604060002090565b61340e565b5080f35b808552609760205261091a8360408720906001600160a01b0316600052602052604060002090565b60017fffffffffffffffffffffffffffffffffffffffffffffffffffffffffffffff00825416179055336001600160a01b038416827f2f8788117e7eff1d82e926ec794901d17c78024a50270940304540a733656f0d8880a460005260c9602052604060002090565b503461000e57600060031936011261000e5760206040517f26a560d834a19637eccba4611bbc09fb32970bb627da0a70f14f83fdc9822cbc8152f35b503461000e57602060031936011261000e576004356109dc612781565b6109e461314a565b60648111610a1e576020817fb9768ed0b3c8d7421842f14094358b08617bad6081b469cd89de35a8d46678589261013355604051908152a1005b60046040517fedb73407000000000000000000000000000000000000000000000000000000008152fd5b503461000e57604060031936011261000e57602435600435610a698261051f565b6001600160a01b03821691338303610b47576108ee91610a8761314a565b600093818552609760205260ff610ab48460408820906001600160a01b0316600052602052604060002090565b5416610acc575b50835260c9602052604083206134c6565b8185526097602052610af48360408720906001600160a01b0316600052602052604060002090565b7fffffffffffffffffffffffffffffffffffffffffffffffffffffffffffffff0081541690553390827ff6391f5c32d9c69d2a47ea670b442974b53935d1edc7fd64eb21e047a839171b8780a438610abb565b60846040517f08c379a000000000000000000000000000000000000000000000000000000000815260206004820152602f60248201527f416363657373436f6e74726f6c3a2063616e206f6e6c792072656e6f756e636560448201527f20726f6c657320666f722073656c6600000000000000000000000000000000006064820152fd5b503461000e57602060031936011261000e57600435610be861314a565b610bfe61070261012d546001600160a01b031690565b906001600160a01b03918281163303610ca2576040517efdd58e0000000000000000000000000000000000000000000000000000000081523060048201526024810183905290602090829060449082905afa908115610c95575b600091610c77575b5015610c6857005b6107d5918160201c1690614fff565b610c8f915060203d8111610820576108118183611594565b38610c60565b610c9d6138ff565b610c58565b60046040517f9a5ed74b000000000000000000000000000000000000000000000000000000008152fd5b503461000e57600060031936011261000e57610ce66128a3565b60335460ff811615610d43577fffffffffffffffffffffffffffffffffffffffffffffffffffffffffffffff00166033557f5db9ee0a495bf2e6ff9c91a7834c1ba4fdd244a5e8aa4e537bd38aeae4b073aa6020604051338152a1005b60646040517f08c379a000000000000000000000000000000000000000000000000000000000815260206004820152601460248201527f5061757361626c653a206e6f74207061757365640000000000000000000000006044820152fd5b60ff81160361000e57565b503461000e5760e060031936011261000e576107d5600435610dcd8161051f565b602435610dd98161051f565b604435608435610de881610da1565b610df061314a565b6040517fc0c7028c0000000000000000000000000000000000000000000000000000000081526004810183905293602085602481305afa948515610ed8575b600095610eb0575b50610e97610e6591610e87610e4c8833614ab0565b9992969197909860c4359160a435916064359086614e84565b610e6d6115d5565b600181529860208a01526001600160a01b03166040890152565b6001600160a01b03166060870152565b608085015260a084015260c083015260e082015261490f565b610e65919550610ed0610e979160203d8111610820576108118183611594565b959150610e37565b610ee06138ff565b610e2f565b503461000e57602060031936011261000e5760206104da61013154600435613c08565b503461000e57606060031936011261000e576107d5600435610f298161051f565b60443590610f368261051f565b610f3e61314a565b604051907fc0c7028c00000000000000000000000000000000000000000000000000000000825260208280610f7d602435600483019190602083019252565b0381305afa918215610feb575b600092610fc5575b50610fa28293610e979333614b50565b949093610fb09392936115d5565b60018152966020880152336040880152610e87565b610e979250610fe4610fa29160203d8111610820576108118183611594565b9250610f92565b610ff36138ff565b610f8a565b503461000e57600060031936011261000e5760206001600160a01b0361012d5416604051908152f35b6020908160408183019282815285518094520193019160005b828110611048575050505090565b83516001600160a01b03168552938101939281019260010161103a565b503461000e57600060031936011261000e57600061108c610135546001600160a01b031690565b906001600160a01b036001816110c8826110ba876001600160a01b0316600052610136602052604060002090565b01546001600160a01b031690565b16611174575b50506110d9816139af565b916111006110fb826001600160a01b0316600052610136602052604060002090565b613cd6565b6000915b83831061111957604051806105f08782611021565b6111499161113b60209261112d8689612c2e565b906001600160a01b03169052565b01516001600160a01b031690565b61116d6106696110fb836001600160a01b0316600052610136602052604060002090565b9190611104565b8092509161119a816110ba866001600160a01b0316600052610136602052604060002090565b828516905b81848216036111af5750506110ce565b610669836110ba6111d893979596976001600160a01b0316600052610136602052604060002090565b93929161119f565b503461000e57600060031936011261000e57602060ff603354166040519015158152f35b503461000e57600060031936011261000e57602061013354604051908152f35b503461000e57608060031936011261000e576107d56004356112458161051f565b602435906112528261051f565b6064359161125f8361051f565b61126761314a565b61126f612781565b6040517f02e0affa000000000000000000000000000000000000000000000000000000008152604435600482015291602083602481305afa928315611322575b6000936112f6575b50610e87906112cb8495610e979585614b50565b969293919490956112da6115d5565b9860008a5260208a015260408901906001600160a01b03169052565b610e979350906112cb611319610e879360203d8111610820576108118183611594565b945050906112b7565b61132a6138ff565b6112af565b503461000e57600060031936011261000e5760206001600160a01b036101325416604051908152f35b503461000e57600060031936011261000e576113726128a3565b61137a61314a565b60017fffffffffffffffffffffffffffffffffffffffffffffffffffffffffffffff0060335416176033557f62e78cea01bee320cd4e420270b5ea74000d11b0c9f74754ebdbfc544b05a2586020604051338152a1005b503461000e57604060031936011261000e576114076004356113f28161051f565b6113fa61314a565b611402612781565b613d1f565b6107d5602435613d80565b503461000e5761010060031936011261000e576107d56004356114348161051f565b6024356114408161051f565b604435606435926114508461051f565b60a4359061145d82610da1565b61146561314a565b6040517fc0c7028c0000000000000000000000000000000000000000000000000000000081526004810184905294602086602481305afa95861561150d575b6000966114db575b50610e6591610e876114c2610e97938989614b50565b9992969197909860e4359160c435916084359086614e84565b610e9791965091610e876114c2611502610e659560203d8111610820576108118183611594565b9893505050916114ac565b6115156138ff565b6114a4565b503461000e57600060031936011261000e5760206001600160a01b036101305416604051908152f35b507f4e487b7100000000000000000000000000000000000000000000000000000000600052604160045260246000fd5b67ffffffffffffffff811161158757604052565b61158f611543565b604052565b90601f7fffffffffffffffffffffffffffffffffffffffffffffffffffffffffffffffe0910116810190811067ffffffffffffffff82111761158757604052565b60405190610100820182811067ffffffffffffffff82111761158757604052565b604051906040820182811067ffffffffffffffff82111761158757604052565b60209067ffffffffffffffff8111611630575b60051b0190565b611638611543565b611629565b81601f8201121561000e5780359161165483611616565b926116626040519485611594565b808452602092838086019260051b82010192831161000e578301905b82821061168c575050505090565b8135815290830190830161167e565b503461000e5760a060031936011261000e5760048035906116bb8261051f565b602435916044359067ffffffffffffffff60643581811161000e576116e3903690860161163d565b9060843590811161000e576116fb903690860161163d565b9161170461314a565b61170c612781565b61012e9161176661172761070285546001600160a01b031690565b928760409485517fd2f3ea430000000000000000000000000000000000000000000000000000000081528b818060209788938783019190602083019252565b0381855afa908115611a4d575b600091611a30575b50156119f85783908651928380927fdd39c7500000000000000000000000000000000000000000000000000000000082525afa9081156119eb575b6000916119ce575b5087116119a65790859161012d906118278a846117e561070286546001600160a01b031690565b8951928380927f964eec700000000000000000000000000000000000000000000000000000000082525afa908115611999575b60009161197c575b508a615270565b611830896152a1565b9261183e8180939d946139fe565b9b8c9261184a916139fe565b9c8d9384611857926151dc565b61186094613df4565b8451809281016118736001602083019252565b037fffffffffffffffffffffffffffffffffffffffffffffffffffffffffffffffe0810183526118a39083611594565b5494546001600160a01b03958616951690853b1561000e578661195796899360007f40a27cbb002b48214250b00c6c1b15ff8276b363217ca42c7b1720bcf269a76c9c61192082968b51988997889687957f2eb2c2d60000000000000000000000000000000000000000000000000000000087523090870161390c565b03925af1801561196f575b61195c575b5061194761070261012f546001600160a01b031690565b916101315493519687968761395b565b0390a2005b806107e461196992611573565b38611930565b6119776138ff565b61192b565b6119939150853d8711610820576108118183611594565b38611820565b6119a16138ff565b611818565b8784517fb106efdf000000000000000000000000000000000000000000000000000000008152fd5b6119e59150833d8511610820576108118183611594565b386117be565b6119f36138ff565b6117b6565b85517fb281ad800000000000000000000000000000000000000000000000000000000081528083018c815281906020010390fd5b0390fd5b611a479150853d8711610820576108118183611594565b3861177b565b611a556138ff565b611773565b503461000e57604060031936011261000e5760043560005260c960205260206001600160a01b03611a916024356040600020613110565b9190546040519260031b1c168152f35b503461000e57604060031936011261000e57602060ff611aed602435611ac68161051f565b600435600052609784526040600020906001600160a01b0316600052602052604060002090565b54166040519015158152f35b503461000e57608060031936011261000e577f99ad00cf49121d7da2a94fdef5f9ef6c736c933295dcb1cfdfc509905fd89f31600435611b388161051f565b602435611b448161051f565b611c56611c1d611c0f611c0f60443595611b5d8761051f565b611c02606435611b6c8161051f565b611b746128f8565b611b7c61314a565b6001600160a01b037fffffffffffffffffffffffff0000000000000000000000000000000000000000908061012d9516828654161785558061012e9a16828b5416178a5561012f9a16908a54161789556001600160a01b0361013091167fffffffffffffffffffffffff0000000000000000000000000000000000000000825416179055565b546001600160a01b031690565b93546001600160a01b031690565b61013054604080516001600160a01b03958616815295851660208701529184169185019190915291909116606083015281906080820190565b0390a1005b503461000e57600060031936011261000e57602060405160008152f35b503461000e57602060031936011261000e576105f0600435611c9d6101315482613c08565b90604051907fdfa4bb0f0000000000000000000000000000000000000000000000000000000082526004820152602081602481305afa908115611d29575b600091611d0b575b508101809111611cfe575b6040519081529081906020820190565b611d06612ac8565b611cee565b611d23915060203d8111610820576108118183611594565b38611ce3565b611d316138ff565b611cdb565b503461000e57600060031936011261000e57602061013154604051908152f35b9181601f8401121561000e5782359167ffffffffffffffff831161000e576020808501948460051b01011161000e57565b60005b838110611d9a5750506000910152565b8181015183820152602001611d8a565b907fffffffffffffffffffffffffffffffffffffffffffffffffffffffffffffffe0601f602093611de681518092818752878088019101611d87565b0116010190565b602080820190808352835180925260408301928160408460051b8301019501936000915b848310611e215750505050505090565b9091929394958480611e5d837fffffffffffffffffffffffffffffffffffffffffffffffffffffffffffffffc086600196030187528a51611daa565b9801930193019194939290611e11565b503461000e5760208060031936011261000e5760043567ffffffffffffffff811161000e57611ea0903690600401611d56565b611ea981611616565b92611eb76040519485611594565b8184527fffffffffffffffffffffffffffffffffffffffffffffffffffffffffffffffe0611ee483611616565b0160005b818110611f4c5750505060005b818110611f0a57604051806105f08682611ded565b80611f2c611f26611f1f611f47948688612b40565b3691612bf7565b30612cce565b611f368287612c2e565b52611f418186612c2e565b50612af8565b611ef5565b60608682018401528201611ee8565b503461000e5760e060031936011261000e57600435611f798161051f565b612016602435611f888161051f565b60443592611f958461051f565b606435611fa18161051f565b60843590611fae8261051f565b60005495611fd360ff8860081c1615809881996120d2575b81156120b2575b5061360d565b8661200460017fffffffffffffffffffffffffffffffffffffffffffffffffffffffffffffff006000541617600055565b61207c575b60c4359460a43594613698565b61201c57005b6120497fffffffffffffffffffffffffffffffffffffffffffffffffffffffffffff00ff60005416600055565b604051600181527f7f26b83ff96e1f2b6a682f133852f6798a09c465da95921460cefb3847402498908060208101611c56565b6120ad6101007fffffffffffffffffffffffffffffffffffffffffffffffffffffffffffff00ff6000541617600055565b612009565b303b159150816120c4575b5038611fcd565b6001915060ff1614386120bd565b600160ff8216109150611fc6565b503461000e57600060031936011261000e57602061013454604051908152f35b9181601f8401121561000e5782359167ffffffffffffffff831161000e576020838186019501011161000e57565b503461000e5760a060031936011261000e5761214b60043561051f565b61215660243561051f565b67ffffffffffffffff60443581811161000e57612177903690600401611d56565b60649291923582811161000e57612192903690600401611d56565b505060843591821161000e576105f0926121b36121ba933690600401612100565b5050613a6c565b6040517fffffffff0000000000000000000000000000000000000000000000000000000090911681529081906020820190565b503461000e57602060031936011261000e5760206104da6104d26101335460640180606411612221575b6101315490612e03565b612229612ac8565b612217565b503461000e57602060031936011261000e5760043560005260c96020526020604060002054604051908152f35b503461000e57604060031936011261000e576107d560043561227c8161051f565b61228461314a565b604051907fc0c7028c000000000000000000000000000000000000000000000000000000008252602082806122c3602435600483019190602083019252565b0381305afa91821561230b575b6000926122e7575b50610e9790610fa28333614ab0565b610e979192506123049060203d8111610820576108118183611594565b91906122d8565b6123136138ff565b6122d0565b503461000e57606060031936011261000e576107d56004356123398161051f565b6024356123458161051f565b61234d61314a565b612355612781565b6040517f02e0affa000000000000000000000000000000000000000000000000000000008152604435600482015290602082602481305afa9182156123d6575b6000926123b0575b50610e8782936112cb610e979484614ab0565b610e9792506123cf610e879160203d8111610820576108118183611594565b925061239d565b6123de6138ff565b612395565b503461000e57604060031936011261000e576004356108ee6024356124078161051f565b600092808452609760205261242260016040862001546129da565b61242a61314a565b808452609760205260ff6124548360408720906001600160a01b0316600052602052604060002090565b541661246b575b835260c9602052604083206134c6565b80845260976020526124938260408620906001600160a01b0316600052602052604060002090565b7fffffffffffffffffffffffffffffffffffffffffffffffffffffffffffffff008154169055336001600160a01b038316827ff6391f5c32d9c69d2a47ea670b442974b53935d1edc7fd64eb21e047a839171b8780a461245b565b503461000e57600060031936011261000e5760206040517f3fb0aaa9e8051cfc6c234a5d843bed33910f70c647055f27247c10144c7552e18152f35b503461000e57602060031936011261000e577fa01a3b548ccd65893a6acee4ea0da2602fbd2aef7e3040483b026d9544d8074c602060043561256a61314a565b612572612781565b8061013455604051908152a1005b503461000e57602060031936011261000e5760206104da6125a8610131546101335490612e03565b600435613c6e565b503461000e57600060031936011261000e5760206040517f65d7a28e3265b37a6474929f336521b332c1681b933f6cb9f3376673440d862a8152f35b503461000e57600060031936011261000e5760206001600160a01b0361012e5416604051908152f35b503461000e5760a060031936011261000e5761263260043561051f565b61263d60243561051f565b60843567ffffffffffffffff811161000e5761265d903690600401612100565b505061266761314a565b61267e6001600160a01b0361012d54163314613ad9565b612689604435614f08565b60206040517ff23a6e61000000000000000000000000000000000000000000000000000000008152f35b503461000e57602060031936011261000e576001600160a01b036004356126d98161051f565b6126e1612781565b6126e961314a565b1680156127485760207fe846164b6756d387276a93f2200cfd28f5792fffe3530e65d95d7535cd43dab491610132817fffffffffffffffffffffffff0000000000000000000000000000000000000000825416179055604051908152a1005b60046040517fb79b5914000000000000000000000000000000000000000000000000000000008152fd5b90600052602052604060002090565b3360009081527fb34b648d285118a9ee5f8cc4675698367f99ed092c20555b8b9380d41d2fafb5602052604090205460ff16156127ba57565b611a2c60486128716127cb33612f2e565b6128456127d6612fd8565b6040519485937f416363657373436f6e74726f6c3a206163636f756e74200000000000000000006020860152612816815180926020603789019101611d87565b84017f206973206d697373696e6720726f6c652000000000000000000000000000000060378201520190612aa0565b037fffffffffffffffffffffffffffffffffffffffffffffffffffffffffffffffe08101835282611594565b6040519182917f08c379a000000000000000000000000000000000000000000000000000000000835260048301612ab7565b3360009081527f793844da0378ca0230b21a4013ef02cf55735b90b39c85241478ff94b5eceb28602052604090205460ff16156128dc57565b611a2c60486128716128ed33612f2e565b6128456127d6613074565b3360009081527f683723e34a772b6e4f2c919bba7fa32ed8ea11a8325f54da7db716e9d9dd98c7602052604090205460ff161561293157565b61293a33612f2e565b6000612944612e3b565b90603061295083612e75565b53607861295c83612e8b565b5360415b6001811161297f57611a2c604861287186612845876127d68815612ec9565b90807f3031323334353637383961626364656600000000000000000000000000000000600f6129c8931660108110156129cd575b1a6129be8486612e9c565b5360041c91612ebb565b612960565b6129d5612b10565b6129b3565b80600052609760205260ff612a06336040600020906001600160a01b0316600052602052604060002090565b541615612a105750565b612a1933612f2e565b90612a22612e3b565b906030612a2e83612e75565b536078612a3a83612e8b565b5360415b60018111612a5d57611a2c604861287186612845876127d68815612ec9565b90807f3031323334353637383961626364656600000000000000000000000000000000600f612a9b931660108110156129cd571a6129be8486612e9c565b612a3e565b90612ab360209282815194859201611d87565b0190565b906020610575928181520190611daa565b507f4e487b7100000000000000000000000000000000000000000000000000000000600052601160045260246000fd5b6001906000198114612b08570190565b612ab3612ac8565b507f4e487b7100000000000000000000000000000000000000000000000000000000600052603260045260246000fd5b9190811015612ba1575b60051b810135907fffffffffffffffffffffffffffffffffffffffffffffffffffffffffffffffe18136030182121561000e57019081359167ffffffffffffffff831161000e57602001823603811361000e579190565b612ba9612b10565b612b4a565b7fffffffffffffffffffffffffffffffffffffffffffffffffffffffffffffffe0601f60209267ffffffffffffffff8111612bea575b01160190565b612bf2611543565b612be4565b929192612c0382612bae565b91612c116040519384611594565b82948184528183011161000e578281602093846000960137010152565b6020918151811015612c43575b60051b010190565b612c4b612b10565b612c3b565b604051906060820182811067ffffffffffffffff821117612cc1575b604052602782527f206661696c6564000000000000000000000000000000000000000000000000006040837f416464726573733a206c6f772d6c6576656c2064656c65676174652063616c6c60208201520152565b612cc9611543565b612c6c565b90813b15612d25576000816105759360208394519201905af43d15612d1e573d612cf781612bae565b90612d056040519283611594565b81523d6000602083013e5b612d18612c50565b91612da9565b6060612d10565b60846040517f08c379a000000000000000000000000000000000000000000000000000000000815260206004820152602660248201527f416464726573733a2064656c65676174652063616c6c20746f206e6f6e2d636f60448201527f6e747261637400000000000000000000000000000000000000000000000000006064820152fd5b90919015612db5575090565b815115612dc55750805190602001fd5b611a2c906040519182917f08c379a0000000000000000000000000000000000000000000000000000000008352602060048401526024830190611daa565b81810292918115918404141715612e1657565b612e1e612ac8565b565b9060018201809211612e1657565b91908201809211612e1657565b604051906080820182811067ffffffffffffffff821117612e68575b604052604282526060366020840137565b612e70611543565b612e57565b602090805115612e83570190565b612ab3612b10565b602190805160011015612e83570190565b906020918051821015612eae57010190565b612eb6612b10565b010190565b600019908015612b08570190565b15612ed057565b60646040517f08c379a000000000000000000000000000000000000000000000000000000000815260206004820152602060248201527f537472696e67733a20686578206c656e67746820696e73756666696369656e746044820152fd5b604051906060820182811067ffffffffffffffff821117612fcb575b604052602a825260403660208401376030612f6483612e75565b536078612f7083612e8b565b536029905b60018211612f8857610575915015612ec9565b807f3031323334353637383961626364656600000000000000000000000000000000600f612fc5931660108110156129cd571a6129be8486612e9c565b90612f75565b612fd3611543565b612f4a565b7f3fb0aaa9e8051cfc6c234a5d843bed33910f70c647055f27247c10144c7552e1613001612e3b565b90603061300d83612e75565b53607861301983612e8b565b536041905b6001821161303157610575915015612ec9565b807f3031323334353637383961626364656600000000000000000000000000000000600f61306e931660108110156129cd571a6129be8486612e9c565b9061301e565b7f65d7a28e3265b37a6474929f336521b332c1681b933f6cb9f3376673440d862a61309d612e3b565b9060306130a983612e75565b5360786130b583612e8b565b536041905b600182116130cd57610575915015612ec9565b807f3031323334353637383961626364656600000000000000000000000000000000600f61310a931660108110156129cd571a6129be8486612e9c565b906130ba565b8054821015613129575b60005260206000200190600090565b613131612b10565b61311a565b9061314091613110565b90549060031b1c90565b60ff6033541661315657565b60646040517f08c379a000000000000000000000000000000000000000000000000000000000815260206004820152601060248201527f5061757361626c653a20706175736564000000000000000000000000000000006044820152fd5b613217906131c061314a565b6001600160a01b0381811660009081527f683723e34a772b6e4f2c919bba7fa32ed8ea11a8325f54da7db716e9d9dd98c760205260408082205490919060ff161561321a575b80805260c960205220911690613441565b50565b808052609760205261324184838320906001600160a01b0316600052602052604060002090565b60017fffffffffffffffffffffffffffffffffffffffffffffffffffffffffffffff0082541617905533838516827f2f8788117e7eff1d82e926ec794901d17c78024a50270940304540a733656f0d8180a4613206565b613217906132a461314a565b6001600160a01b0381811660009081527f1993b25aada9b83773e0286f0950968fd5c4a170648b02185e5fc22cc12f52dd60205260408082209091907f26a560d834a19637eccba4611bbc09fb32970bb627da0a70f14f83fdc9822cbc9060ff905b54161561331e575b815260c960205220911690613441565b808252609760205261334585848420906001600160a01b0316600052602052604060002090565b60017fffffffffffffffffffffffffffffffffffffffffffffffffffffffffffffff0082541617905533848616827f2f8788117e7eff1d82e926ec794901d17c78024a50270940304540a733656f0d8580a461330e565b613217906133a861314a565b6001600160a01b0381811660009081527fb34b648d285118a9ee5f8cc4675698367f99ed092c20555b8b9380d41d2fafb560205260408082209091907f3fb0aaa9e8051cfc6c234a5d843bed33910f70c647055f27247c10144c7552e19060ff90613306565b6001600160a01b03610575921690613441565b9161343d9183549060031b600019811b9283911b169119161790565b9055565b60018101908260005281602052604060002054156000146134be578261349c6134838354680100000000000000008110156134b1575b60018101855584613110565b819391549060031b600019811b9283911b169119161790565b90555491600052602052604060002055600190565b6134b9611543565b613477565b505050600090565b6001600160a01b0361057592169061354e565b906000198201918211612e1657565b91908203918211612e1657565b805490811561351f576000198092019161350f8383613110565b909182549160031b1b1916905555565b7f4e487b7100000000000000000000000000000000000000000000000000000000600052603160045260246000fd5b6001810191806000528260205260406000205492831515600014613604576127726135a1936000956000198082018281116135f7575b83549182019182116135ea575b8082036135a7575b5050506134f5565b55600190565b6135d16135cb916135bb6135e19487613110565b90549060031b1c92839187613110565b90613421565b8590600052602052604060002090565b55388080613599565b6135f2612ac8565b613591565b6135ff612ac8565b613584565b50505050600090565b1561361457565b60846040517f08c379a000000000000000000000000000000000000000000000000000000000815260206004820152602e60248201527f496e697469616c697a61626c653a20636f6e747261637420697320616c72656160448201527f647920696e697469616c697a65640000000000000000000000000000000000006064820152fd5b959491939092936001600160a01b039283831615612748576137bf613834966137896137c5946138399b6137fb986136ce6138df565b6136d66138df565b6136e760ff60005460081c16613854565b7fffffffffffffffffffffffffffffffffffffffffffffffffffffffffffffff00603354166033556137176138df565b61371f6138df565b6137276138df565b61012d91167fffffffffffffffffffffffff00000000000000000000000000000000000000008254161790556001600160a01b0361012e91167fffffffffffffffffffffffff0000000000000000000000000000000000000000825416179055565b6001600160a01b0361013091167fffffffffffffffffffffffff0000000000000000000000000000000000000000825416179055565b61013355565b6001600160a01b0361013291167fffffffffffffffffffffffff0000000000000000000000000000000000000000825416179055565b613806600061013455565b6114026101357fffffffffffffffffffffffff00000000000000000000000000000000000000008154169055565b613d80565b613842336131b4565b61384b33613298565b612e1e3361339c565b1561385b57565b60846040517f08c379a000000000000000000000000000000000000000000000000000000000815260206004820152602b60248201527f496e697469616c697a61626c653a20636f6e7472616374206973206e6f74206960448201527f6e697469616c697a696e670000000000000000000000000000000000000000006064820152fd5b612e1e60ff60005460081c16613854565b9081602091031261000e575190565b506040513d6000823e3d90fd5b9390610575959361393f9161394d946001600160a01b03809216885216602087015260a0604087015260a0860190610530565b908482036060860152610530565b916080818403910152611daa565b929361393f60a0956139966001600160a01b03956139886139a4969c9b9a9c60c08a5260c08a0190610530565b9088820360208a0152610530565b908682036040880152610530565b951660808201520152565b906139b982611616565b6139c66040519182611594565b8281527fffffffffffffffffffffffffffffffffffffffffffffffffffffffffffffffe06139f48294611616565b0190602036910137565b91909180518311613a3d57613a12836139af565b9260019182809201915b828110613a295750505050565b80849160051b808401519088015201613a1c565b7f4e487b7100000000000000000000000000000000000000000000000000000000600052600160045260246000fd5b613a7461314a565b613a8b6001600160a01b0361012d54163314613ad9565b60005b828110613abc575050507fbc197c810000000000000000000000000000000000000000000000000000000090565b80613acf613ad49260051b840135614f08565b612af8565b613a8e565b15613ae057565b60646040517f08c379a000000000000000000000000000000000000000000000000000000000815260206004820152601a60248201527f4d61726b65743a2053656e646572206e6f742052656d6f76616c0000000000006044820152fd5b8115613b48570490565b7f4e487b7100000000000000000000000000000000000000000000000000000000600052601260045260246000fd5b1561000e57565b612710916000198383099280830292838086109503948086039514613bfb57908291613bab868411613b77565b096001821901821680920460028082600302188083028203028083028203028083028203028083028203028083028203028092029003029360018380600003040190848311900302920304170290565b5050906105759250613b3e565b60001982820982820291828083109203918083039214613c6457816064111561000e577f5c28f5c28f5c28f5c28f5c28f5c28f5c28f5c28f5c28f5c28f5c28f5c28f5c29936064910990828211900360fe1b910360021c170290565b5050606491500490565b9060001981830981830291828083109203918083039214613ccb57612710908282111561000e577fbc01a36e2eb1c432ca57a786c226809d495182a9930be0ded288ce703afb7e91940990828211900360fc1b910360041c170290565b505061271091500490565b906040516040810181811067ffffffffffffffff821117613d12575b6040526020819360016001600160a01b0391828154168552015416910152565b613d1a611543565b613cf2565b60206001600160a01b037f94e2ca3c006ff5152db658db7f198e3606e0c8584958dbb13538cdd9b30ccb72921661012f817fffffffffffffffffffffffff0000000000000000000000000000000000000000825416179055604051908152a1565b60207f36a09eaea278b547d70faf65508009f5a7d32dfd33d27131e792f7e78bb42158918061013155604051908152a1565b9081602091031261000e575161057581610da1565b9081602091031261000e57516105758161051f565b9081602091031261000e5751801515810361000e5790565b939181613e0781613e0d939694966139fe565b926139fe565b60005b848110613e1f57505050505050565b613e3561070261012d546001600160a01b031690565b613e3f8285612c2e565b5190604090815180917fb776d33300000000000000000000000000000000000000000000000000000000825260209283918180613e856004998a83019190602083019252565b03915afa9081156143ab575b60009161437e575b5081613ea58688612c2e565b51613eb4610131548092613c08565b9060ff8416888a82613fdd575b50613f5295508c92508e9150613eff613ef2600092613eec61070261012f546001600160a01b031690565b95612c2e565b516001600160a01b031690565b918851968795869485937f23b872dd0000000000000000000000000000000000000000000000000000000085528d85016040919493929460608201956001600160a01b0380921683521660208201520152565b03925af1918215613fd0575b600092613fa3575b505015613f7d575050613f7890612af8565b613e10565b517ff27f64e4000000000000000000000000000000000000000000000000000000008152fd5b613fc29250803d10613fc9575b613fba8183611594565b810190613ddc565b3880613f66565b503d613fb0565b613fd86138ff565b613f5e565b613fff92613ff26140069593613ff993612c2e565b5192612e03565b90613c6e565b80926134e8565b9285610130918b61402161070285546001600160a01b031690565b8a8c8551937f440f5fd200000000000000000000000000000000000000000000000000000000938486528a868581845afa958615614371575b600096614352575b5061012f956001600160a01b036140866107026107028a546001600160a01b031690565b911614614195575093897ff13b9ad9c5cff251c7890be98dd7159a5dde3f28cba336aeaaf551d9da06e7e094613f529c98946140de6107026140cf8e9d9b976141449f9b612c2e565b519a546001600160a01b031690565b95518096819382525afa928315614188575b60009361414d575b5061411061070261413c92546001600160a01b031690565b8d519384938491604091949360ff60608501961684526001600160a01b03809216602085015216910152565b0390a3612e2e565b3880888a613ec1565b61413c919350610702614178614110928d803d10614181575b6141708183611594565b810190613dc7565b949250506140f8565b503d614166565b6141906138ff565b6140f0565b9650925092969750506141a89250612c2e565b5192813b1561000e5761425b610702610702928e8d61420e60008f9a8f998f9c838f916142699d51968795869485937f1b2ef1ca000000000000000000000000000000000000000000000000000000008552840160209093929193604081019481520152565b03925af1908161433f575b506143385761422791612c2e565b51887fc63600d29a0ef31fe04e22e26a10c75787f6f15d8a95f6b340b232481bf6d696600080a3546001600160a01b031690565b92546001600160a01b031690565b908d6000896142c28a51978896879586947f23b872dd00000000000000000000000000000000000000000000000000000000865285016040919493929460608201956001600160a01b0380921683521660208201520152565b03925af190811561432b575b60009161430e575b50156142e65781613f5291614144565b5050517ff27f64e4000000000000000000000000000000000000000000000000000000008152fd5b6143259150833d8511613fc957613fba8183611594565b386142d6565b6143336138ff565b6142ce565b5050611c02565b806107e461434c92611573565b38614219565b61436a9196508b3d8d11614181576141708183611594565b9438614062565b6143796138ff565b61405a565b61439e9150823d84116143a4575b6143968183611594565b810190613db2565b38613e99565b503d61438c565b6143b36138ff565b613e91565b9193909284613e07816143ca936139fe565b9260005b8581106143de5750505050505050565b6143f461070261012d546001600160a01b031690565b6143fe8285612c2e565b5190604090815180917fb776d333000000000000000000000000000000000000000000000000000000008252602092839181806144446004998a83019190602083019252565b03915afa908115614902575b6000916148e5575b50818884614466888d612c2e565b5193614476610131548096613c08565b9460ff82168a8f826146ad575b505050505050614560575b61450b918c6144b6613ef2896144b061070261012f546001600160a01b031690565b93612c2e565b60008a8851968795869485937f23b872dd0000000000000000000000000000000000000000000000000000000085528d85016040919493929460608201956001600160a01b0380921683521660208201520152565b03925af1918215614553575b600092614536575b505015613f7d57505061453190612af8565b6143ce565b61454c9250803d10613fc957613fba8183611594565b388061451f565b61455b6138ff565b614517565b6145d0908a61457b61070261012f546001600160a01b031690565b826145998a614593610132546001600160a01b031690565b94612c2e565b518851809681927fdfa4bb0f0000000000000000000000000000000000000000000000000000000083528c83019190602083019252565b0381305afa9384156146a0575b600094614681575b5086517f23b872dd0000000000000000000000000000000000000000000000000000000081526001600160a01b03808c16828b0190815293166020840152604083019490945283918290600090829060600103925af1908115614674575b600091614657575b50156142e6578161448e565b61466e9150833d8511613fc957613fba8183611594565b3861464b565b61467c6138ff565b614643565b614699919450833d8511610820576108118183611594565b92386145e5565b6146a86138ff565b6145dd565b6146c892613ff26146cf9593613ff9939b989b9a999a612c2e565b80936134e8565b90610130908c6146e961070284546001600160a01b031690565b8b8d8a51937f440f5fd200000000000000000000000000000000000000000000000000000000938486528a868581845afa9586156148d8575b6000966148b9575b5061012f956001600160a01b0361474e6107026107028a546001600160a01b031690565b9116146147a0575098809a9b938996936140de6107026140cf7ff13b9ad9c5cff251c7890be98dd7159a5dde3f28cba336aeaaf551d9da06e7e099966147939f612c2e565b915b843880808a8f614483565b979b50939850935050506147b692949650612c2e565b5192813b1561000e5761425b610702610702928e8d61420e60008f9a8f998f9c838f9161481c9d51968795869485937f1b2ef1ca000000000000000000000000000000000000000000000000000000008552840160209093929193604081019481520152565b86517f23b872dd0000000000000000000000000000000000000000000000000000000081526001600160a01b03808c16828b019081529216602083015260408201949094528391908290600090829060600103925af19081156148ac575b60009161488f575b50156142e6578188614795565b6148a69150833d8511613fc957613fba8183611594565b38614882565b6148b46138ff565b61487a565b6148d19196508b3d8d11614181576141708183611594565b943861472a565b6148e06138ff565b614722565b6148fc9150823d84116143a4576143968183611594565b38614458565b61490a6138ff565b614450565b60a081015161492460808301918251906139fe565b9061496861493860c08501518351906139fe565b9182846149458751151590565b9261495a60408901516001600160a01b031690565b90519060e0890151946143b8565b614a12602061498160608601516001600160a01b031690565b940151936149e661499e61070261012f546001600160a01b031690565b61013154610133549160405198899560208701919594939060a09360c0840197600085526001600160a01b038093166020860152604085015216606083015260808201520152565b037fffffffffffffffffffffffffffffffffffffffffffffffffffffffffffffffe08101855284611594565b614a2861070261012d546001600160a01b031690565b614a3e61070261012e546001600160a01b031690565b92813b1561000e5760008094614a84604051978896879586947f2eb2c2d6000000000000000000000000000000000000000000000000000000008652306004870161390c565b03925af18015614aa3575b614a965750565b806107e4612e1e92611573565b614aab6138ff565b614a8f565b90614b16600482614b1b9460206001600160a01b0361012d5416604051948580927f964eec700000000000000000000000000000000000000000000000000000000082525afa928315614b43575b600093614b23575b50614b118383615270565b615042565b6152a1565b929391929091565b614b3c91935060203d8111610820576108118183611594565b9138614b06565b614b4b6138ff565b614afe565b819392919261012d926001600160a01b0384541692614bb7604094855198899384927f964eec70000000000000000000000000000000000000000000000000000000008452602095869160049d8e915afa928315614e44575b600093614e25575b50615042565b600094614bd8836001600160a01b0316600052610137602052604060002090565b8697600282019081546001840154905b80821115614df55750508915614dcd5798949596979893614c08866139af565b9a614c12876139af565b9a996000965b8d898910614c44575b50505050505050505050614c3d90614c38846139af565b614e51565b9193929190565b98809d9c989b9a99614c5588615b46565b91614c6a6107028b546001600160a01b031690565b85517efdd58e000000000000000000000000000000000000000000000000000000008152308882019081526020810186905290929189918491908290819060400103915afa918215614dc0575b600092614da1575b5081851015614d1357505089614cd491612c2e565b52614cdf888d612c2e565b52614ceb600097612af8565b998715614d0757614cfb90612af8565b969b9798999a9b614c18565b88999a9b9c508d614c21565b614d2191939b9492506134d9565b831480614d98575b614d6f578f828f928594614d53868f96614d6097614d4d614ceb9b614d5999612c2e565b52612c2e565b526134e8565b99886159d0565b8554612af857613acf8a61584b565b505050517f33aa101c000000000000000000000000000000000000000000000000000000008152fd5b50818111614d29565b614db9919250883d8a11610820576108118183611594565b9038614cbf565b614dc86138ff565b614cb7565b8a88517f33aa101c000000000000000000000000000000000000000000000000000000008152fd5b909a614e19614e1f91614e128e8890600052602052604060002090565b5490612e2e565b9b612af8565b90614be8565b614e3d919350853d8711610820576108118183611594565b9138614bb1565b614e4c6138ff565b614ba9565b519190614e5d836139af565b9260019182809201915b828110614e745750505050565b8082859260051b88015201614e67565b9094926001600160a01b03938461012f541690813b1561000e5760009660ff889460e4976040519b8c9a8b997fd505accf000000000000000000000000000000000000000000000000000000008b521660048a01523060248a01526044890152606488015216608486015260a485015260c48401525af18015614aa357614a965750565b6001600160a01b0390818160201c169182600052610137602052614f6382614f5e604060002061ffff8360e01c1690816002820180548015600014614fc357508160018401555590600052602052604060002090565b613441565b50614f8760016110ba856001600160a01b0316600052610136602052604060002090565b1615614fb5575b7f3f2e35daa045b6aa1cc1d76e5337f2bce6985b354b49e998d4ce29d683190d15600080a3565b614fbe82615631565b614f8e565b90600184019182548410600014614fe65750505590600052602052604060002090565b9091508211614ff7575b5050612772565b558138614ff0565b6001600160a01b03821680600052615022610137928360205260406000206159d0565b600052602052600260406000200154156150395750565b612e1e9061584b565b919061504d916150c6565b9050610134541161505b5750565b6001600160a01b031660009081527f1993b25aada9b83773e0286f0950968fd5c4a170648b02185e5fc22cc12f52dd602052604090205460ff161561509c57565b60046040517f9ece8f2f000000000000000000000000000000000000000000000000000000008152fd5b91908281116150d6576001920390565b50600091508190565b6001600160a01b03811633149081156151a3575b81156150fd575090565b615167915060209061511b61070261012d546001600160a01b031690565b6040517fe985e9c50000000000000000000000000000000000000000000000000000000081526001600160a01b0390921660048301523360248301529092839190829081906044820190565b03915afa908115615196575b60009161517e575090565b610575915060203d8111613fc957613fba8183611594565b61519e6138ff565b615173565b3360009081527fb34b648d285118a9ee5f8cc4675698367f99ed092c20555b8b9380d41d2fafb5602052604090205460ff1691506150f3565b906151e96151ef91615237565b92615237565b82149182159261522c575b505061520257565b60046040517f49f82da6000000000000000000000000000000000000000000000000000000008152fd5b1415905038806151fa565b80516000929160209160051b8101820190849083015b82811061525a5750505050565b8581510195861061526c57830161524d565b5080fd5b1161527757565b60046040517f33aa101c000000000000000000000000000000000000000000000000000000008152fd5b61012d906152b961070283546001600160a01b031690565b60409384517f789e8cdf00000000000000000000000000000000000000000000000000000000815260209081816004958180615307308a83019190916001600160a01b036020820193169052565b03915afa9081156155ae575b600091615591575b5095949091929361532b876139af565b96615335816139af565b9661533f826139af565b966000956000945b8b85871061535e575b505050505050505093929190565b908b6107028c9b9a969798999d9c938e615404610135968861538789546001600160a01b031690565b938d8c6153c36153b36153ae896001600160a01b0316600052610137602052604060002090565b615b46565b998a94546001600160a01b031690565b91517efdd58e000000000000000000000000000000000000000000000000000000008152309181019182526020820193909352919485928391829160400190565b03915afa918215615584575b600092615565575b50818710156154895750505087615454959361544a9593614d4d8361543c95612c2e565b52546001600160a01b031690565b61112d858b612c2e565b61545f600093612af8565b95831561547d5761546f90612af8565b949392999596979899615347565b869798999a508b615350565b818b976154b88561112d899f6154bd96839c9861545f9f9b83611c029c9b6154c39f614d4d83614d4d95612c2e565b6134e8565b99614fff565b906001600160a01b03809181841692839116149283615533575b50505015612af857613acf61013580547fffffffffffffffffffffffff00000000000000000000000000000000000000006001600160a01b03808316600052610136602052600160406000200154169116179055565b61555a919293506110ba6001916001600160a01b0316600052610136602052604060002090565b1614153880806154dd565b61557d919250893d8b11610820576108118183611594565b9038615418565b61558c6138ff565b615410565b6155a89150823d8411610820576108118183611594565b3861531b565b6155b66138ff565b615313565b815181547fffffffffffffffffffffffff0000000000000000000000000000000000000000166001600160a01b03918216178255612e1e926001919060200151169101906001600160a01b03167fffffffffffffffffffffffff0000000000000000000000000000000000000000825416179055565b6101359061564682546001600160a01b031690565b6001600160a01b03928184166156ee57505061013580547fffffffffffffffffffffffff0000000000000000000000000000000000000000166001600160a01b0383161790556156c46156976115f6565b6001600160a01b038316808252602080830182905260009182526101369052604090206155bb565b6155bb565b1680807f3a35d42f4bce14f93a24ab2ec3c4dc4cd013e5f16abcd79d5c93afa2cebc0c72600080a4565b928061581e839561576161571a611c0285976001600160a01b0316600052610136602052604060002090565b976157436157266115f6565b6001600160a01b038b168152916001600160a01b03166020830152565b6156bf886001600160a01b0316600052610136602052604060002090565b6157b98660016157858a6001600160a01b0316600052610136602052604060002090565b01906001600160a01b03167fffffffffffffffffffffffff0000000000000000000000000000000000000000825416179055565b611c02866157eb6157d184546001600160a01b031690565b6001600160a01b0316600052610136602052604060002090565b906001600160a01b03167fffffffffffffffffffffffff0000000000000000000000000000000000000000825416179055565b9416931691167f3a35d42f4bce14f93a24ab2ec3c4dc4cd013e5f16abcd79d5c93afa2cebc0c72600080a4565b6001600160a01b039081615873826001600160a01b0316600052610136602052604060002090565b54169161590581600161589a856001600160a01b0316600052610136602052604060002090565b015416928281169283850361592c57506101357fffffffffffffffffffffffff000000000000000000000000000000000000000081541690555b6156bf6158df6115f6565b9160008352600060208401526001600160a01b0316600052610136602052604060002090565b7fd853f0403f99e88d186f52744de8bd40a17410e4d2206e25ac3750410aa19737600080a4565b615950856001615785896001600160a01b0316600052610136602052604060002090565b615972866157eb876001600160a01b0316600052610136602052604060002090565b610135541683036158d4576159cb61013580547fffffffffffffffffffffffff00000000000000000000000000000000000000006001600160a01b03808316600052610136602052600160406000200154169116179055565b6158d4565b61ffff8260e01c16916159fd6159f9826159f4868690600052602052604060002090565b61354e565b1590565b615b0a5750615a188282906000526020526040600020541590565b615a20575050565b60018082019182546002820194855491828114600014615a5057505050505090615a4d6000926000199055565b55565b939592938103615ab957505083615a678454612e20565b905b615a75575b5050505050565b81548111615ab457615a91818490600052602052604060002090565b54615aa557615a9f90612af8565b84615a69565b93505050553880808080615a6e565b615a6e565b9193918114615ac9575050505050565b615ad385916134d9565b905b15615a6e5781548110615ab457615af6818490600052602052604060002090565b54615aa557615b0490612ebb565b84615ad5565b6040517fb524f6fe0000000000000000000000000000000000000000000000000000000081526004810191909152602481019290925250604490fd5b60018101546000526020526040600020805415615b6a575b60005260206000205490565b615b72612b10565b615b5e56fea26469706673582212206dd063a5d626a20ff71dbc657516e3823b51c3251c100238edf31276f86ccf4d64736f6c63430008110033"
}