{
  "address": "0x3036949EaFeF8190b565035736b546bCEA1Fa56d",
  "abi": [
    {
      "inputs": [],
      "stateMutability": "nonpayable",
      "type": "constructor"
    },
    {
      "inputs": [
        {
          "internalType": "uint256",
          "name": "tokenId",
          "type": "uint256"
        }
      ],
      "name": "CertificateNotYetMinted",
      "type": "error"
    },
    {
      "inputs": [],
      "name": "ERC20TransferFailed",
      "type": "error"
    },
    {
      "inputs": [],
      "name": "InsufficientSupply",
      "type": "error"
    },
    {
      "inputs": [
        {
          "internalType": "uint256",
          "name": "amount",
          "type": "uint256"
        }
      ],
      "name": "InvalidCertificateAmount",
      "type": "error"
    },
    {
      "inputs": [],
      "name": "InvalidNoriFeePercentage",
      "type": "error"
    },
    {
      "inputs": [
        {
          "internalType": "uint256",
          "name": "decimals",
          "type": "uint256"
        }
      ],
      "name": "InvalidPurchasingTokenDecimals",
      "type": "error"
    },
    {
      "inputs": [],
      "name": "LowSupplyAllowlistRequired",
      "type": "error"
    },
    {
      "inputs": [],
      "name": "NoriFeeWalletZeroAddress",
      "type": "error"
    },
    {
      "inputs": [
        {
          "internalType": "uint256",
          "name": "removalId",
          "type": "uint256"
        },
        {
          "internalType": "uint256",
          "name": "year",
          "type": "uint256"
        }
      ],
      "name": "RemovalNotFoundInYear",
      "type": "error"
    },
    {
      "inputs": [],
      "name": "ReplacementAmountExceedsNrtDeficit",
      "type": "error"
    },
    {
      "inputs": [],
      "name": "ReplacementAmountMismatch",
      "type": "error"
    },
    {
      "inputs": [],
      "name": "SenderNotRemovalContract",
      "type": "error"
    },
    {
      "inputs": [],
      "name": "UnauthorizedWithdrawal",
      "type": "error"
    },
    {
      "anonymous": false,
      "inputs": [
        {
          "indexed": true,
          "internalType": "uint256",
          "name": "id",
          "type": "uint256"
        },
        {
          "indexed": true,
          "internalType": "address",
          "name": "supplierAddress",
          "type": "address"
        }
      ],
      "name": "AddRemoval",
      "type": "event"
    },
    {
      "anonymous": false,
      "inputs": [
        {
          "indexed": true,
          "internalType": "address",
          "name": "added",
          "type": "address"
        },
        {
          "indexed": true,
          "internalType": "address",
          "name": "next",
          "type": "address"
        },
        {
          "indexed": true,
          "internalType": "address",
          "name": "previous",
          "type": "address"
        }
      ],
      "name": "AddSupplier",
      "type": "event"
    },
    {
      "anonymous": false,
      "inputs": [
        {
          "indexed": false,
          "internalType": "uint8",
          "name": "version",
          "type": "uint8"
        }
      ],
      "name": "Initialized",
      "type": "event"
    },
    {
      "anonymous": false,
      "inputs": [
        {
          "indexed": false,
          "internalType": "address",
          "name": "account",
          "type": "address"
        }
      ],
      "name": "Paused",
      "type": "event"
    },
    {
      "anonymous": false,
      "inputs": [
        {
          "indexed": false,
          "internalType": "contract Removal",
          "name": "removal",
          "type": "address"
        },
        {
          "indexed": false,
          "internalType": "contract Certificate",
          "name": "certificate",
          "type": "address"
        },
        {
          "indexed": false,
          "internalType": "contract IERC20WithPermit",
          "name": "purchasingToken",
          "type": "address"
        },
        {
          "indexed": false,
          "internalType": "contract RestrictedNORI",
          "name": "restrictedNORI",
          "type": "address"
        }
      ],
      "name": "RegisterContractAddresses",
      "type": "event"
    },
    {
      "anonymous": false,
      "inputs": [
        {
          "indexed": true,
          "internalType": "address",
          "name": "removed",
          "type": "address"
        },
        {
          "indexed": true,
          "internalType": "address",
          "name": "next",
          "type": "address"
        },
        {
          "indexed": true,
          "internalType": "address",
          "name": "previous",
          "type": "address"
        }
      ],
      "name": "RemoveSupplier",
      "type": "event"
    },
    {
      "anonymous": false,
      "inputs": [
        {
          "indexed": true,
          "internalType": "uint256",
          "name": "amount",
          "type": "uint256"
        },
        {
          "indexed": true,
          "internalType": "uint256",
          "name": "removalId",
          "type": "uint256"
        }
      ],
      "name": "RestrictedNORIMintFailure",
      "type": "event"
    },
    {
      "anonymous": false,
      "inputs": [
        {
          "indexed": true,
          "internalType": "bytes32",
          "name": "role",
          "type": "bytes32"
        },
        {
          "indexed": true,
          "internalType": "bytes32",
          "name": "previousAdminRole",
          "type": "bytes32"
        },
        {
          "indexed": true,
          "internalType": "bytes32",
          "name": "newAdminRole",
          "type": "bytes32"
        }
      ],
      "name": "RoleAdminChanged",
      "type": "event"
    },
    {
      "anonymous": false,
      "inputs": [
        {
          "indexed": true,
          "internalType": "bytes32",
          "name": "role",
          "type": "bytes32"
        },
        {
          "indexed": true,
          "internalType": "address",
          "name": "account",
          "type": "address"
        },
        {
          "indexed": true,
          "internalType": "address",
          "name": "sender",
          "type": "address"
        }
      ],
      "name": "RoleGranted",
      "type": "event"
    },
    {
      "anonymous": false,
      "inputs": [
        {
          "indexed": true,
          "internalType": "bytes32",
          "name": "role",
          "type": "bytes32"
        },
        {
          "indexed": true,
          "internalType": "address",
          "name": "account",
          "type": "address"
        },
        {
          "indexed": true,
          "internalType": "address",
          "name": "sender",
          "type": "address"
        }
      ],
      "name": "RoleRevoked",
      "type": "event"
    },
    {
      "anonymous": false,
      "inputs": [
        {
          "indexed": false,
          "internalType": "uint256",
          "name": "priceMultiple",
          "type": "uint256"
        }
      ],
      "name": "SetPriceMultiple",
      "type": "event"
    },
    {
      "anonymous": false,
      "inputs": [
        {
          "indexed": false,
          "internalType": "uint256",
          "name": "threshold",
          "type": "uint256"
        }
      ],
      "name": "SetPriorityRestrictedThreshold",
      "type": "event"
    },
    {
      "anonymous": false,
      "inputs": [
        {
          "indexed": false,
          "internalType": "contract IERC20WithPermit",
          "name": "purchasingToken",
          "type": "address"
        }
      ],
      "name": "SetPurchasingToken",
      "type": "event"
    },
    {
      "anonymous": false,
      "inputs": [
        {
          "indexed": true,
          "internalType": "uint256",
          "name": "amount",
          "type": "uint256"
        },
        {
          "indexed": true,
          "internalType": "uint256",
          "name": "removalId",
          "type": "uint256"
        },
        {
          "indexed": false,
          "internalType": "uint256",
          "name": "currentHoldbackPercentage",
          "type": "uint256"
        },
        {
          "indexed": false,
          "internalType": "address",
          "name": "rNoriUnderlyingToken",
          "type": "address"
        },
        {
          "indexed": false,
          "internalType": "address",
          "name": "purchasingTokenAddress",
          "type": "address"
        }
      ],
      "name": "SkipRestrictedNORIERC20Transfer",
      "type": "event"
    },
    {
      "anonymous": false,
      "inputs": [
        {
          "indexed": false,
          "internalType": "address",
          "name": "account",
          "type": "address"
        }
      ],
      "name": "Unpaused",
      "type": "event"
    },
    {
      "anonymous": false,
      "inputs": [
        {
          "indexed": true,
          "internalType": "uint256",
          "name": "certificateId",
          "type": "uint256"
        },
        {
          "indexed": false,
          "internalType": "uint256[]",
          "name": "removalIds",
          "type": "uint256[]"
        },
        {
          "indexed": false,
          "internalType": "uint256[]",
          "name": "amounts",
          "type": "uint256[]"
        },
        {
          "indexed": false,
          "internalType": "uint256[]",
          "name": "removalIdsBeingReplaced",
          "type": "uint256[]"
        },
        {
          "indexed": false,
          "internalType": "uint256[]",
          "name": "amountsBeingReplaced",
          "type": "uint256[]"
        },
        {
          "indexed": true,
          "internalType": "address",
          "name": "purchasingTokenAddress",
          "type": "address"
        },
        {
          "indexed": false,
          "internalType": "uint256",
          "name": "priceMultiple",
          "type": "uint256"
        }
      ],
      "name": "UpdateCertificate",
      "type": "event"
    },
    {
      "anonymous": false,
      "inputs": [
        {
          "indexed": false,
          "internalType": "uint256",
          "name": "updatedFeePercentage",
          "type": "uint256"
        }
      ],
      "name": "UpdateNoriFeePercentage",
      "type": "event"
    },
    {
      "anonymous": false,
      "inputs": [
        {
          "indexed": false,
          "internalType": "address",
          "name": "updatedWalletAddress",
          "type": "address"
        }
      ],
      "name": "UpdateNoriFeeWalletAddress",
      "type": "event"
    },
    {
      "inputs": [],
      "name": "ALLOWLIST_ROLE",
      "outputs": [
        {
          "internalType": "bytes32",
          "name": "",
          "type": "bytes32"
        }
      ],
      "stateMutability": "view",
      "type": "function"
    },
    {
      "inputs": [],
      "name": "DEFAULT_ADMIN_ROLE",
      "outputs": [
        {
          "internalType": "bytes32",
          "name": "",
          "type": "bytes32"
        }
      ],
      "stateMutability": "view",
      "type": "function"
    },
    {
      "inputs": [],
      "name": "MARKET_ADMIN_ROLE",
      "outputs": [
        {
          "internalType": "bytes32",
          "name": "",
          "type": "bytes32"
        }
      ],
      "stateMutability": "view",
      "type": "function"
    },
    {
      "inputs": [],
      "name": "PAUSER_ROLE",
      "outputs": [
        {
          "internalType": "bytes32",
          "name": "",
          "type": "bytes32"
        }
      ],
      "stateMutability": "view",
      "type": "function"
    },
    {
      "inputs": [
        {
          "internalType": "uint256",
          "name": "purchaseTotal",
          "type": "uint256"
        }
      ],
      "name": "calculateCertificateAmountFromPurchaseTotal",
      "outputs": [
        {
          "internalType": "uint256",
          "name": "",
          "type": "uint256"
        }
      ],
      "stateMutability": "view",
      "type": "function"
    },
    {
      "inputs": [
        {
          "internalType": "uint256",
          "name": "purchaseTotal",
          "type": "uint256"
        }
      ],
      "name": "calculateCertificateAmountFromPurchaseTotalWithoutFee",
      "outputs": [
        {
          "internalType": "uint256",
          "name": "",
          "type": "uint256"
        }
      ],
      "stateMutability": "view",
      "type": "function"
    },
    {
      "inputs": [
        {
          "internalType": "uint256",
          "name": "amount",
          "type": "uint256"
        }
      ],
      "name": "calculateCheckoutTotal",
      "outputs": [
        {
          "internalType": "uint256",
          "name": "",
          "type": "uint256"
        }
      ],
      "stateMutability": "view",
      "type": "function"
    },
    {
      "inputs": [
        {
          "internalType": "uint256",
          "name": "amount",
          "type": "uint256"
        }
      ],
      "name": "calculateCheckoutTotalWithoutFee",
      "outputs": [
        {
          "internalType": "uint256",
          "name": "",
          "type": "uint256"
        }
      ],
      "stateMutability": "view",
      "type": "function"
    },
    {
      "inputs": [
        {
          "internalType": "uint256",
          "name": "amount",
          "type": "uint256"
        }
      ],
      "name": "calculateNoriFee",
      "outputs": [
        {
          "internalType": "uint256",
          "name": "",
          "type": "uint256"
        }
      ],
      "stateMutability": "view",
      "type": "function"
    },
    {
      "inputs": [
        {
          "internalType": "uint256",
          "name": "purchasingTokenAmount",
          "type": "uint256"
        }
      ],
      "name": "convertPurchasingTokenDecimalsToRemovalDecimals",
      "outputs": [
        {
          "internalType": "uint256",
          "name": "",
          "type": "uint256"
        }
      ],
      "stateMutability": "view",
      "type": "function"
    },
    {
      "inputs": [
        {
          "internalType": "uint256",
          "name": "removalAmount",
          "type": "uint256"
        }
      ],
      "name": "convertRemovalDecimalsToPurchasingTokenDecimals",
      "outputs": [
        {
          "internalType": "uint256",
          "name": "",
          "type": "uint256"
        }
      ],
      "stateMutability": "view",
      "type": "function"
    },
    {
      "inputs": [],
      "name": "getActiveSuppliers",
      "outputs": [
        {
          "internalType": "address[]",
          "name": "suppliers",
          "type": "address[]"
        }
      ],
      "stateMutability": "view",
      "type": "function"
    },
    {
      "inputs": [],
      "name": "getCertificateAddress",
      "outputs": [
        {
          "internalType": "address",
          "name": "",
          "type": "address"
        }
      ],
      "stateMutability": "view",
      "type": "function"
    },
    {
      "inputs": [],
      "name": "getNoriFeePercentage",
      "outputs": [
        {
          "internalType": "uint256",
          "name": "",
          "type": "uint256"
        }
      ],
      "stateMutability": "view",
      "type": "function"
    },
    {
      "inputs": [],
      "name": "getNoriFeeWallet",
      "outputs": [
        {
          "internalType": "address",
          "name": "",
          "type": "address"
        }
      ],
      "stateMutability": "view",
      "type": "function"
    },
    {
      "inputs": [],
      "name": "getPriceMultiple",
      "outputs": [
        {
          "internalType": "uint256",
          "name": "",
          "type": "uint256"
        }
      ],
      "stateMutability": "view",
      "type": "function"
    },
    {
      "inputs": [],
      "name": "getPriorityRestrictedThreshold",
      "outputs": [
        {
          "internalType": "uint256",
          "name": "",
          "type": "uint256"
        }
      ],
      "stateMutability": "view",
      "type": "function"
    },
    {
      "inputs": [],
      "name": "getPurchasingTokenAddress",
      "outputs": [
        {
          "internalType": "address",
          "name": "",
          "type": "address"
        }
      ],
      "stateMutability": "view",
      "type": "function"
    },
    {
      "inputs": [],
      "name": "getRemovalAddress",
      "outputs": [
        {
          "internalType": "address",
          "name": "",
          "type": "address"
        }
      ],
      "stateMutability": "view",
      "type": "function"
    },
    {
      "inputs": [
        {
          "internalType": "address",
          "name": "supplier",
          "type": "address"
        }
      ],
      "name": "getRemovalIdsForSupplier",
      "outputs": [
        {
          "internalType": "uint256[]",
          "name": "removalIds",
          "type": "uint256[]"
        }
      ],
      "stateMutability": "view",
      "type": "function"
    },
    {
      "inputs": [],
      "name": "getRestrictedNoriAddress",
      "outputs": [
        {
          "internalType": "address",
          "name": "",
          "type": "address"
        }
      ],
      "stateMutability": "view",
      "type": "function"
    },
    {
      "inputs": [
        {
          "internalType": "bytes32",
          "name": "role",
          "type": "bytes32"
        }
      ],
      "name": "getRoleAdmin",
      "outputs": [
        {
          "internalType": "bytes32",
          "name": "",
          "type": "bytes32"
        }
      ],
      "stateMutability": "view",
      "type": "function"
    },
    {
      "inputs": [
        {
          "internalType": "bytes32",
          "name": "role",
          "type": "bytes32"
        },
        {
          "internalType": "uint256",
          "name": "index",
          "type": "uint256"
        }
      ],
      "name": "getRoleMember",
      "outputs": [
        {
          "internalType": "address",
          "name": "",
          "type": "address"
        }
      ],
      "stateMutability": "view",
      "type": "function"
    },
    {
      "inputs": [
        {
          "internalType": "bytes32",
          "name": "role",
          "type": "bytes32"
        }
      ],
      "name": "getRoleMemberCount",
      "outputs": [
        {
          "internalType": "uint256",
          "name": "",
          "type": "uint256"
        }
      ],
      "stateMutability": "view",
      "type": "function"
    },
    {
      "inputs": [
        {
          "internalType": "bytes32",
          "name": "role",
          "type": "bytes32"
        },
        {
          "internalType": "address",
          "name": "account",
          "type": "address"
        }
      ],
      "name": "grantRole",
      "outputs": [],
      "stateMutability": "nonpayable",
      "type": "function"
    },
    {
      "inputs": [
        {
          "internalType": "bytes32",
          "name": "role",
          "type": "bytes32"
        },
        {
          "internalType": "address",
          "name": "account",
          "type": "address"
        }
      ],
      "name": "hasRole",
      "outputs": [
        {
          "internalType": "bool",
          "name": "",
          "type": "bool"
        }
      ],
      "stateMutability": "view",
      "type": "function"
    },
    {
      "inputs": [
        {
          "internalType": "contract Removal",
          "name": "removal",
          "type": "address"
        },
        {
          "internalType": "contract IERC20WithPermit",
          "name": "purchasingToken",
          "type": "address"
        },
        {
          "internalType": "contract Certificate",
          "name": "certificate",
          "type": "address"
        },
        {
          "internalType": "contract RestrictedNORI",
          "name": "restrictedNori",
          "type": "address"
        },
        {
          "internalType": "address",
          "name": "noriFeeWalletAddress",
          "type": "address"
        },
        {
          "internalType": "uint256",
          "name": "noriFeePercentage_",
          "type": "uint256"
        },
        {
          "internalType": "uint256",
          "name": "priceMultiple_",
          "type": "uint256"
        }
      ],
      "name": "initialize",
      "outputs": [],
      "stateMutability": "nonpayable",
      "type": "function"
    },
    {
      "inputs": [
        {
          "internalType": "bytes[]",
          "name": "data",
          "type": "bytes[]"
        }
      ],
      "name": "multicall",
      "outputs": [
        {
          "internalType": "bytes[]",
          "name": "results",
          "type": "bytes[]"
        }
      ],
      "stateMutability": "nonpayable",
      "type": "function"
    },
    {
      "inputs": [
        {
          "internalType": "address",
          "name": "",
          "type": "address"
        },
        {
          "internalType": "address",
          "name": "",
          "type": "address"
        },
        {
          "internalType": "uint256[]",
          "name": "ids",
          "type": "uint256[]"
        },
        {
          "internalType": "uint256[]",
          "name": "",
          "type": "uint256[]"
        },
        {
          "internalType": "bytes",
          "name": "",
          "type": "bytes"
        }
      ],
      "name": "onERC1155BatchReceived",
      "outputs": [
        {
          "internalType": "bytes4",
          "name": "",
          "type": "bytes4"
        }
      ],
      "stateMutability": "nonpayable",
      "type": "function"
    },
    {
      "inputs": [
        {
          "internalType": "address",
          "name": "",
          "type": "address"
        },
        {
          "internalType": "address",
          "name": "",
          "type": "address"
        },
        {
          "internalType": "uint256",
          "name": "id",
          "type": "uint256"
        },
        {
          "internalType": "uint256",
          "name": "",
          "type": "uint256"
        },
        {
          "internalType": "bytes",
          "name": "",
          "type": "bytes"
        }
      ],
      "name": "onERC1155Received",
      "outputs": [
        {
          "internalType": "bytes4",
          "name": "",
          "type": "bytes4"
        }
      ],
      "stateMutability": "nonpayable",
      "type": "function"
    },
    {
      "inputs": [],
      "name": "pause",
      "outputs": [],
      "stateMutability": "nonpayable",
      "type": "function"
    },
    {
      "inputs": [],
      "name": "paused",
      "outputs": [
        {
          "internalType": "bool",
          "name": "",
          "type": "bool"
        }
      ],
      "stateMutability": "view",
      "type": "function"
    },
    {
      "inputs": [
        {
          "internalType": "contract Removal",
          "name": "removal",
          "type": "address"
        },
        {
          "internalType": "contract Certificate",
          "name": "certificate",
          "type": "address"
        },
        {
          "internalType": "contract IERC20WithPermit",
          "name": "purchasingToken",
          "type": "address"
        },
        {
          "internalType": "contract RestrictedNORI",
          "name": "restrictedNORI",
          "type": "address"
        }
      ],
      "name": "registerContractAddresses",
      "outputs": [],
      "stateMutability": "nonpayable",
      "type": "function"
    },
    {
      "inputs": [
        {
          "internalType": "uint256",
          "name": "removalId",
          "type": "uint256"
        }
      ],
      "name": "release",
      "outputs": [],
      "stateMutability": "nonpayable",
      "type": "function"
    },
    {
      "inputs": [
        {
          "internalType": "bytes32",
          "name": "role",
          "type": "bytes32"
        },
        {
          "internalType": "address",
          "name": "account",
          "type": "address"
        }
      ],
      "name": "renounceRole",
      "outputs": [],
      "stateMutability": "nonpayable",
      "type": "function"
    },
    {
      "inputs": [
        {
          "internalType": "address",
          "name": "treasury",
          "type": "address"
        },
        {
          "internalType": "uint256",
          "name": "certificateId",
          "type": "uint256"
        },
        {
          "internalType": "uint256",
          "name": "totalAmountToReplace",
          "type": "uint256"
        },
        {
          "internalType": "uint256[]",
          "name": "removalIdsBeingReplaced",
          "type": "uint256[]"
        },
        {
          "internalType": "uint256[]",
          "name": "amountsBeingReplaced",
          "type": "uint256[]"
        }
      ],
      "name": "replace",
      "outputs": [],
      "stateMutability": "nonpayable",
      "type": "function"
    },
    {
      "inputs": [
        {
          "internalType": "bytes32",
          "name": "role",
          "type": "bytes32"
        },
        {
          "internalType": "address",
          "name": "account",
          "type": "address"
        }
      ],
      "name": "revokeRole",
      "outputs": [],
      "stateMutability": "nonpayable",
      "type": "function"
    },
    {
      "inputs": [
        {
          "internalType": "uint256",
          "name": "noriFeePercentage_",
          "type": "uint256"
        }
      ],
      "name": "setNoriFeePercentage",
      "outputs": [],
      "stateMutability": "nonpayable",
      "type": "function"
    },
    {
      "inputs": [
        {
          "internalType": "address",
          "name": "noriFeeWalletAddress",
          "type": "address"
        }
      ],
      "name": "setNoriFeeWallet",
      "outputs": [],
      "stateMutability": "nonpayable",
      "type": "function"
    },
    {
      "inputs": [
        {
          "internalType": "uint256",
          "name": "threshold",
          "type": "uint256"
        }
      ],
      "name": "setPriorityRestrictedThreshold",
      "outputs": [],
      "stateMutability": "nonpayable",
      "type": "function"
    },
    {
      "inputs": [
        {
          "internalType": "contract IERC20WithPermit",
          "name": "purchasingToken",
          "type": "address"
        },
        {
          "internalType": "uint256",
          "name": "priceMultiple",
          "type": "uint256"
        }
      ],
      "name": "setPurchasingTokenAndPriceMultiple",
      "outputs": [],
      "stateMutability": "nonpayable",
      "type": "function"
    },
    {
      "inputs": [
        {
          "internalType": "bytes4",
          "name": "interfaceId",
          "type": "bytes4"
        }
      ],
      "name": "supportsInterface",
      "outputs": [
        {
          "internalType": "bool",
          "name": "",
          "type": "bool"
        }
      ],
      "stateMutability": "view",
      "type": "function"
    },
    {
      "inputs": [
        {
          "internalType": "address",
          "name": "recipient",
          "type": "address"
        },
        {
          "internalType": "address",
          "name": "permitOwner",
          "type": "address"
        },
        {
          "internalType": "uint256",
          "name": "amount",
          "type": "uint256"
        },
        {
          "internalType": "uint256",
          "name": "deadline",
          "type": "uint256"
        },
        {
          "internalType": "uint8",
          "name": "v",
          "type": "uint8"
        },
        {
          "internalType": "bytes32",
          "name": "r",
          "type": "bytes32"
        },
        {
          "internalType": "bytes32",
          "name": "s",
          "type": "bytes32"
        }
      ],
      "name": "swap",
      "outputs": [],
      "stateMutability": "nonpayable",
      "type": "function"
    },
    {
      "inputs": [
        {
          "internalType": "address",
          "name": "recipient",
          "type": "address"
        },
        {
          "internalType": "uint256",
          "name": "amount",
          "type": "uint256"
        }
      ],
      "name": "swap",
      "outputs": [],
      "stateMutability": "nonpayable",
      "type": "function"
    },
    {
      "inputs": [
        {
          "internalType": "address",
          "name": "recipient",
          "type": "address"
        },
        {
          "internalType": "uint256",
          "name": "amount",
          "type": "uint256"
        },
        {
          "internalType": "address",
          "name": "supplier",
          "type": "address"
        }
      ],
      "name": "swapFromSupplier",
      "outputs": [],
      "stateMutability": "nonpayable",
      "type": "function"
    },
    {
      "inputs": [
        {
          "internalType": "address",
          "name": "recipient",
          "type": "address"
        },
        {
          "internalType": "address",
          "name": "permitOwner",
          "type": "address"
        },
        {
          "internalType": "uint256",
          "name": "amount",
          "type": "uint256"
        },
        {
          "internalType": "address",
          "name": "supplier",
          "type": "address"
        },
        {
          "internalType": "uint256",
          "name": "deadline",
          "type": "uint256"
        },
        {
          "internalType": "uint8",
          "name": "v",
          "type": "uint8"
        },
        {
          "internalType": "bytes32",
          "name": "r",
          "type": "bytes32"
        },
        {
          "internalType": "bytes32",
          "name": "s",
          "type": "bytes32"
        }
      ],
      "name": "swapFromSupplier",
      "outputs": [],
      "stateMutability": "nonpayable",
      "type": "function"
    },
    {
      "inputs": [
        {
          "internalType": "address",
          "name": "recipient",
          "type": "address"
        },
        {
          "internalType": "address",
          "name": "purchaser",
          "type": "address"
        },
        {
          "internalType": "uint256",
          "name": "amount",
          "type": "uint256"
        },
        {
          "internalType": "address",
          "name": "supplier",
          "type": "address"
        }
      ],
      "name": "swapFromSupplierWithoutFee",
      "outputs": [],
      "stateMutability": "nonpayable",
      "type": "function"
    },
    {
      "inputs": [
        {
          "internalType": "address",
          "name": "recipient",
          "type": "address"
        },
        {
          "internalType": "address",
          "name": "purchaser",
          "type": "address"
        },
        {
          "internalType": "uint256",
          "name": "amount",
          "type": "uint256"
        },
        {
          "internalType": "address",
          "name": "supplier",
          "type": "address"
        },
        {
          "internalType": "uint256",
          "name": "customFee",
          "type": "uint256"
        }
      ],
      "name": "swapFromSupplierWithoutFeeSpecialOrder",
      "outputs": [],
      "stateMutability": "nonpayable",
      "type": "function"
    },
    {
      "inputs": [
        {
          "internalType": "address",
          "name": "recipient",
          "type": "address"
        },
        {
          "internalType": "address",
          "name": "purchaser",
          "type": "address"
        },
        {
          "internalType": "uint256",
          "name": "amount",
          "type": "uint256"
        }
      ],
      "name": "swapWithoutFee",
      "outputs": [],
      "stateMutability": "nonpayable",
      "type": "function"
    },
    {
      "inputs": [
        {
          "internalType": "address",
          "name": "recipient",
          "type": "address"
        },
        {
          "internalType": "address",
          "name": "purchaser",
          "type": "address"
        },
        {
          "internalType": "uint256",
          "name": "amount",
          "type": "uint256"
        },
        {
          "internalType": "uint256",
          "name": "customFee",
          "type": "uint256"
        }
      ],
      "name": "swapWithoutFeeSpecialOrder",
      "outputs": [],
      "stateMutability": "nonpayable",
      "type": "function"
    },
    {
      "inputs": [],
      "name": "unpause",
      "outputs": [],
      "stateMutability": "nonpayable",
      "type": "function"
    },
    {
      "inputs": [
        {
          "internalType": "uint256",
          "name": "removalId",
          "type": "uint256"
        }
      ],
      "name": "withdraw",
      "outputs": [],
      "stateMutability": "nonpayable",
      "type": "function"
    }
  ],
  "numDeployments": 16,
  "bytecode": "0x60808060405234620000c6576000549060ff8260081c1662000074575060ff8082161062000038575b604051615e0e9081620000cc8239f35b60ff90811916176000557f7f26b83ff96e1f2b6a682f133852f6798a09c465da95921460cefb3847402498602060405160ff8152a13862000028565b62461bcd60e51b815260206004820152602760248201527f496e697469616c697a61626c653a20636f6e747261637420697320696e697469604482015266616c697a696e6760c81b6064820152608490fd5b600080fdfe60806040526004361015610013575b600080fd5b60003560e01c806301ffc9a71461042357806302e0affa1461041a578063069a9e4f146104115780630ed1f1eb146104085780631ce08c0b146103ff578063248a9ca3146103f657806325fbff7a146103ed5780632c9fcbd7146103e45780632e1a7d4d146103db5780632f2ff15d146103d25780633030b532146103c957806332786049146103c057806336568abe146103b757806337bdc99b146103ae5780633f4ba83a146103a5578063453aabc31461039c57806346e738f31461039357806347883bce1461038a5780634b66f66514610381578063596abe94146103785780635c975abb1461036f5780636cf250e21461036657806374d3627b1461035d5780637f49f738146103545780638456cb591461034b57806384e0432214610342578063856e115a1461033957806385d3d64b146103305780638c6b8d98146103275780639010d07c1461031e57806391d14854146103155780639d1fbcf51461030c578063a12d687414610303578063a217fddf146102fa578063a5758566146102f1578063a8f881c0146102e8578063ac9650d8146102df578063b33f9527146102d6578063b9054257146102cd578063bc197c81146102c4578063c0c7028c146102bb578063ca15c873146102b2578063d004f0f7146102a9578063d41436ce146102a0578063d547741f14610297578063d6f0d39f1461028e578063d797462f14610285578063dfa4bb0f1461027c578063e63ab1e914610273578063e7f78c721461026a578063f23a6e61146102615763f9c285281461025957600080fd5b61000e612745565b5061000e6126a7565b5061000e61267e565b5061000e612642565b5061000e612611565b5061000e6125bb565b5061000e61257f565b5061000e612492565b5061000e61243e565b5061000e6123f6565b5061000e6123c9565b5061000e61230e565b5061000e61224f565b5061000e612201565b5061000e6120d4565b5061000e612004565b5061000e611eeb565b5061000e611dd0565b5061000e611db3565b5061000e611c8e565b5061000e611c6f565b5061000e611c17565b5061000e611bd0565b5061000e6117fb565b5061000e6116a6565b5061000e611547565b5061000e611506565b5061000e6114ab565b5061000e611482565b5061000e6113ec565b5061000e6113cc565b5061000e6113a8565b5061000e61122d565b5061000e6111c0565b5061000e611120565b5061000e61108a565b5061000e610f39565b5061000e610e91565b5061000e610da9565b5061000e610c5e565b5061000e610bd5565b5061000e610b99565b5061000e610a92565b5061000e610908565b5061000e6108df565b5061000e6107da565b5061000e610762565b5061000e61073b565b5061000e610693565b5061000e6105dd565b5061000e6104f8565b503461000e57602060031936011261000e576004357fffffffff00000000000000000000000000000000000000000000000000000000811680910361000e57807f5a05180f000000000000000000000000000000000000000000000000000000006020921490811561049b575b506040519015158152f35b7f7965db0b000000000000000000000000000000000000000000000000000000008114915081156104ce575b5038610490565b7f01ffc9a700000000000000000000000000000000000000000000000000000000915014386104c7565b503461000e57602060031936011261000e576105806105706040517f9d1fbcf50000000000000000000000000000000000000000000000000000000081526004356004820152602081602481305afa9081156105bf575b600091610591575b50610131549081606402916064830403610584576139a4565b6040519081529081906020820190565b0390f35b61058c612b0a565b6139a4565b6105b2915060203d81116105b8575b6105aa8183611724565b810190613775565b38610557565b503d6105a0565b6105c7613784565b61054f565b6001600160a01b0381160361000e57565b503461000e5760a060031936011261000e576106916004356105fe816105cc565b60243561060a816105cc565b6044359161063d60643561061d816105cc565b6106256130fa565b61062d6127fb565b61063685615299565b8484614d99565b94909360409392935196610650886116e6565b60008852608435602089015260408801526001600160a01b03809216606088015216608086015260a085015260c084015260e0830152610100820152614b73565b005b503461000e57608060031936011261000e576106916004356106b4816105cc565b6024356106c0816105cc565b604435916106cc6130fa565b6106d46127fb565b6106dd83615299565b6106e78383614cf9565b949093604093929351966106fa886116e6565b60008852606435602089015260408801526001600160a01b03809216606088015216608086015260a085015260c084015260e0830152610100820152614b73565b503461000e57602060031936011261000e57602061075a600435613b2d565b604051908152f35b503461000e57602060031936011261000e5760043560005260976020526020600160406000200154604051908152f35b90815180825260208080930193019160005b8281106107b2575050505090565b8351855293810193928101926001016107a4565b9060206107d7928181520190610792565b90565b503461000e5760208060031936011261000e57600435906107fa826105cc565b6001600160a01b03600092168252610137815260408083209260028401549080948190600196878201549081975b868311156108af575061083b9150613832565b955b848111156108525785518061058089826107c6565b86610867828490600052602052604060002090565b8054908a875b83811061088757505050505061088290612b21565b61083d565b829394976108a36108998385966130e6565b918481019a612c20565b5201908a93929161086d565b906108c76108cd918488528584528988205490612df8565b92612b21565b9190610828565b600091031261000e57565b503461000e57600060031936011261000e5760206001600160a01b0361012f5416604051908152f35b503461000e57602060031936011261000e576004356109256130fa565b6001600160a01b038160201c1661093b81615419565b15610a685761094a818361522f565b61096c61096061012d546001600160a01b031690565b6001600160a01b031690565b604051627eeac760e11b81523060048201526024810184905290602082604481845afa918215610a5b575b600092610a3b575b50803b1561000e576040517ff242432a0000000000000000000000000000000000000000000000000000000081523060048201526001600160a01b039390931660248401526044830193909352606482015260a06084820152600060a482018190529091829060c490829084905af18015610a2e575b610a1b57005b80610a2861069192611710565b806108d4565b610a36613784565b610a15565b610a5491925060203d81116105b8576105aa8183611724565b903861099f565b610a63613784565b610997565b60046040517f60b39bc5000000000000000000000000000000000000000000000000000000008152fd5b503461000e57604060031936011261000e57600435610b22602435610ab6816105cc565b610b1d6000938085526097602052610ad46001604087200154612a1c565b610adc6130fa565b808552609760205260ff610b068460408820906001600160a01b0316600052602052604060002090565b541615610b265760005260c9602052604060002090565b613368565b5080f35b8085526097602052610b4e8360408720906001600160a01b0316600052602052604060002090565b600160ff19825416179055336001600160a01b038416827f2f8788117e7eff1d82e926ec794901d17c78024a50270940304540a733656f0d8880a460005260c9602052604060002090565b503461000e57600060031936011261000e5760206040517f26a560d834a19637eccba4611bbc09fb32970bb627da0a70f14f83fdc9822cbc8152f35b503461000e57602060031936011261000e57600435610bf26127fb565b610bfa6130fa565b60648111610c34576020817fb9768ed0b3c8d7421842f14094358b08617bad6081b469cd89de35a8d46678589261013355604051908152a1005b60046040517fedb73407000000000000000000000000000000000000000000000000000000008152fd5b503461000e57604060031936011261000e57602435600435610c7f826105cc565b6001600160a01b03821691338303610d3f57610b2291610c9d6130fa565b600093818552609760205260ff610cca8460408820906001600160a01b0316600052602052604060002090565b5416610ce2575b50835260c960205260408320613420565b8185526097602052610d0a8360408720906001600160a01b0316600052602052604060002090565b60ff1981541690553390827ff6391f5c32d9c69d2a47ea670b442974b53935d1edc7fd64eb21e047a839171b8780a438610cd1565b608460405162461bcd60e51b815260206004820152602f60248201527f416363657373436f6e74726f6c3a2063616e206f6e6c792072656e6f756e636560448201527f20726f6c657320666f722073656c6600000000000000000000000000000000006064820152fd5b503461000e57602060031936011261000e57600435610dc66130fa565b610ddc61096061012d546001600160a01b031690565b906001600160a01b03918281163303610e6757604051627eeac760e11b81523060048201526024810183905290602090829060449082905afa908115610e5a575b600091610e3c575b5015610e2d57005b610691918160201c169061522f565b610e54915060203d81116105b8576105aa8183611724565b38610e25565b610e62613784565b610e1d565b60046040517f9a5ed74b000000000000000000000000000000000000000000000000000000008152fd5b503461000e57600060031936011261000e57610eab6128e5565b60335460ff811615610eea5760ff19166033557f5db9ee0a495bf2e6ff9c91a7834c1ba4fdd244a5e8aa4e537bd38aeae4b073aa6020604051338152a1005b606460405162461bcd60e51b815260206004820152601460248201527f5061757361626c653a206e6f74207061757365640000000000000000000000006044820152fd5b60ff81160361000e57565b503461000e5760e060031936011261000e57610691600435610f5a816105cc565b61103560243591610f6a836105cc565b6110096044359361104560843593610f8185610f2e565b610f896130fa565b610f9287615299565b610f9c8733614cf9565b98929591969097610fe160208c604051809381927fa5758566000000000000000000000000000000000000000000000000000000008352600483019190602083019252565b0381305afa90811561107d575b60009161105f575b5060c4359160a4359160643590866150b4565b6101335498611016611747565b600181529960208b015260408a01526001600160a01b03166060890152565b6001600160a01b03166080870152565b60a085015260c084015260e0830152610100820152614b73565b611077915060203d81116105b8576105aa8183611724565b38610ff6565b611085613784565b610fee565b503461000e57602060031936011261000e576105806110b86004356110ae81615299565b6101315490613a2e565b60405190631ce08c0b60e01b82526004820152602081602481305afa908115611113575b6000916110f5575b506040519081529081906020820190565b61110d915060203d81116105b8576105aa8183611724565b386110e4565b61111b613784565b6110dc565b503461000e57606060031936011261000e57610691600435611141816105cc565b6001600160a01b036024359161117460443561115c816105cc565b6111646130fa565b61116d85615299565b8433614d99565b94909361013393929354966040519761118c896116e6565b600189526020890152604088015233606088015216608086015260a085015260c084015260e0830152610100820152614b73565b503461000e57600060031936011261000e5760206001600160a01b0361012d5416604051908152f35b6020908160408183019282815285518094520193019160005b828110611210575050505090565b83516001600160a01b031685529381019392810192600101611202565b503461000e57600060031936011261000e576000611254610135546001600160a01b031690565b906001600160a01b0360018161129082611282876001600160a01b0316600052610136602052604060002090565b01546001600160a01b031690565b1661133c575b50506112a181613832565b916112c86112c3826001600160a01b0316600052610136602052604060002090565b613c49565b6000915b8383106112e1576040518061058087826111e9565b611311916113036020926112f58689612c20565b906001600160a01b03169052565b01516001600160a01b031690565b6113356108c76112c3836001600160a01b0316600052610136602052604060002090565b91906112cc565b8092509161136281611282866001600160a01b0316600052610136602052604060002090565b828516905b8184821603611377575050611296565b6108c7836112826113a093979596976001600160a01b0316600052610136602052604060002090565b939291611367565b503461000e57600060031936011261000e57602060ff603354166040519015158152f35b503461000e57600060031936011261000e57602061013354604051908152f35b503461000e57608060031936011261000e5761069160043561140d816105cc565b602435611419816105cc565b6044359161142c60643561061d816105cc565b949093610133939293549660405197611444896116e6565b60008952602089015260408801526001600160a01b03809216606088015216608086015260a085015260c084015260e0830152610100820152614b73565b503461000e57600060031936011261000e5760206001600160a01b036101325416604051908152f35b503461000e57600060031936011261000e576114c56128e5565b6114cd6130fa565b600160ff1960335416176033557f62e78cea01bee320cd4e420270b5ea74000d11b0c9f74754ebdbfc544b05a2586020604051338152a1005b503461000e57604060031936011261000e5761153c600435611527816105cc565b61152f6130fa565b6115376127fb565b613c92565b610691602435613daa565b503461000e576101008060031936011261000e57610691906116546004359161156f836105cc565b6024359261157c846105cc565b6116286044359461166460643593611593856105cc565b6115bb60a435956115a387610f2e565b6115ab6130fa565b6115b48a615299565b8985614d99565b9992959196909761160060208d604051809381927fa5758566000000000000000000000000000000000000000000000000000000008352600483019190602083019252565b0381305afa908115611699575b60009161167b575b5060e4359160c4359160843590866150b4565b6101335499611635611747565b600181529a60208c015260408b01526001600160a01b031660608a0152565b6001600160a01b03166080880152565b60a086015260c085015260e0840152820152614b73565b611693915060203d81116105b8576105aa8183611724565b38611615565b6116a1613784565b61160d565b503461000e57600060031936011261000e5760206001600160a01b036101305416604051908152f35b50634e487b7160e01b600052604160045260246000fd5b610120810190811067ffffffffffffffff82111761170357604052565b61170b6116cf565b604052565b67ffffffffffffffff811161170357604052565b90601f601f19910116810190811067ffffffffffffffff82111761170357604052565b60405190611754826116e6565b565b604051906040820182811067ffffffffffffffff82111761170357604052565b60209067ffffffffffffffff8111611790575b60051b0190565b6117986116cf565b611789565b81601f8201121561000e578035916117b483611776565b926117c26040519485611724565b808452602092838086019260051b82010192831161000e578301905b8282106117ec575050505090565b813581529083019083016117de565b503461000e5760a060031936011261000e576118186004356105cc565b67ffffffffffffffff60643581811161000e5761183990369060040161179d565b9060843590811161000e5761185290369060040161179d565b61185a6130fa565b6118626127fb565b61187861096061012e546001600160a01b031690565b6040517fd2f3ea43000000000000000000000000000000000000000000000000000000008152602081806118b6602435600483019190602083019252565b0381855afa908115611bc3575b600091611ba4575b5015611b6e576020600491604051928380927fdd39c7500000000000000000000000000000000000000000000000000000000082525afa908115611b61575b600091611b42575b5060443511611b18576119a7916119af916119d461096061012d61198c6004602061194761096085546001600160a01b031690565b604051928380927f964eec700000000000000000000000000000000000000000000000000000000082525afa908115611b0b575b600091611aec575b506044356155aa565b6119c761199a6044356155db565b929a8b80939b929b613863565b9a8b9a613863565b998a916119bf8984604435615516565b600435613e09565b546001600160a01b031690565b906119eb61096061012e546001600160a01b031690565b60405193611a1385611a0560208201906001602083019252565b03601f198101875286611724565b833b1561000e577f40a27cbb002b48214250b00c6c1b15ff8276b363217ca42c7b1720bcf269a76c946000886001600160a01b03968983611ac797611a88604051978896879586947f2eb2c2d60000000000000000000000000000000000000000000000000000000086523060048701613791565b03925af18015611adf575b611acc575b50611aaf61096061012f546001600160a01b031690565b926101315491604051958695169860243598866137e0565b0390a3005b80610a28611ad992611710565b38611a98565b611ae7613784565b611a93565b611b05915060203d6020116105b8576105aa8183611724565b38611983565b611b13613784565b61197b565b60046040517fb106efdf000000000000000000000000000000000000000000000000000000008152fd5b611b5b915060203d6020116105b8576105aa8183611724565b38611912565b611b69613784565b61190a565b6040517fb281ad8000000000000000000000000000000000000000000000000000000000815260248035600483015290fd5b0390fd5b611bbd915060203d6020116105b8576105aa8183611724565b386118cb565b611bcb613784565b6118c3565b503461000e57604060031936011261000e5760043560005260c960205260206001600160a01b03611c0760243560406000206130c0565b9190546040519260031b1c168152f35b503461000e57604060031936011261000e57602060ff611c63602435611c3c816105cc565b600435600052609784526040600020906001600160a01b0316600052602052604060002090565b54166040519015158152f35b503461000e57602060031936011261000e57602061075a600435613bc8565b503461000e57608060031936011261000e577f99ad00cf49121d7da2a94fdef5f9ef6c736c933295dcb1cfdfc509905fd89f31600435611ccd816105cc565b602435611cd9816105cc565b611dae611d75611d67611d6760443595611cf2876105cc565b6119c7606435611d01816105cc565b611d0961293a565b611d116130fa565b6001600160a01b036001600160a01b0319908061012d9516828654161785558061012e9a16828b5416178a5561012f9a16908a54161789556001600160a01b0361013091166001600160a01b0319825416179055565b93546001600160a01b031690565b61013054604080516001600160a01b03958616815295851660208701529184169185019190915291909116606083015281906080820190565b0390a1005b503461000e57600060031936011261000e57602060405160008152f35b503461000e5760208060031936011261000e5761057061058091600435611df681615299565b611e278280611e086101315485613a2e565b60405180948192631ce08c0b60e01b8352600483019190602083019252565b0381305afa918215611ede575b600092611ebd575b506040517fdfa4bb0f00000000000000000000000000000000000000000000000000000000815260048101939093529091908180602481015b0381305afa928315611eb0575b600093611e91575b5050612df8565b611ea8929350803d106105b8576105aa8183611724565b903880611e8a565b611eb8613784565b611e82565b611e759250611ed890823d84116105b8576105aa8183611724565b91611e3c565b611ee6613784565b611e34565b503461000e57600060031936011261000e57602061013154604051908152f35b9181601f8401121561000e5782359167ffffffffffffffff831161000e576020808501948460051b01011161000e57565b60005b838110611f4f5750506000910152565b8181015183820152602001611f3f565b90601f19601f602093611f7d81518092818752878088019101611f3c565b0116010190565b602080820190808352835180925260408301928160408460051b8301019501936000915b848310611fb85750505050505090565b9091929394958480611ff4837fffffffffffffffffffffffffffffffffffffffffffffffffffffffffffffffc086600196030187528a51611f5f565b9801930193019194939290611fa8565b503461000e5760208060031936011261000e5760043567ffffffffffffffff811161000e57612037903690600401611f0b565b61204081611776565b9261204e6040519485611724565b818452601f1961205d83611776565b0160005b8181106120c55750505060005b81811061208357604051806105808682611f84565b806120a561209f6120986120c0948688612b50565b3691612be9565b30612cc0565b6120af8287612c20565b526120ba8186612c20565b50612b21565b61206e565b60608682018401528201612061565b503461000e5760e060031936011261000e576004356120f2816105cc565b612171602435612101816105cc565b6044359261210e846105cc565b60643561211a816105cc565b60843590612127826105cc565b6000549561214c60ff8860081c1615809881996121f3575b81156121d3575b5061355c565b8661215f600160ff196000541617600055565b6121ba575b60c4359460a435946135cd565b61217757005b61218761ff001960005416600055565b604051600181527f7f26b83ff96e1f2b6a682f133852f6798a09c465da95921460cefb3847402498908060208101611dae565b6121ce61010061ff00196000541617600055565b612164565b303b159150816121e5575b5038612146565b6001915060ff1614386121de565b600160ff821610915061213f565b503461000e57600060031936011261000e57602061013454604051908152f35b9181601f8401121561000e5782359167ffffffffffffffff831161000e576020838186019501011161000e57565b503461000e5760a060031936011261000e5761226c6004356105cc565b6122776024356105cc565b67ffffffffffffffff60443581811161000e57612298903690600401611f0b565b60649291923582811161000e576122b3903690600401611f0b565b505060843591821161000e57610580926122d46122db933690600401612221565b50506138b8565b6040517fffffffff0000000000000000000000000000000000000000000000000000000090911681529081906020820190565b503461000e57602060031936011261000e576105806105706040517f9d1fbcf50000000000000000000000000000000000000000000000000000000081526004356004820152602081602481305afa9081156123bc575b60009161239e575b5061238b6101335460640180606411612391575b6101315490612dc1565b906139a4565b612399612b0a565b612381565b6123b6915060203d81116105b8576105aa8183611724565b3861236d565b6123c4613784565b612365565b503461000e57602060031936011261000e5760043560005260c96020526020604060002054604051908152f35b503461000e57604060031936011261000e57610691600435612417816105cc565b6001600160a01b036024359161242b6130fa565b61243483615299565b6111748333614cf9565b503461000e57606060031936011261000e5761069160043561245f816105cc565b60243561246b816105cc565b604435916124776130fa565b61247f6127fb565b61248883615299565b61142c8383614cf9565b503461000e57604060031936011261000e57600435610b226024356124b6816105cc565b60009280845260976020526124d16001604086200154612a1c565b6124d96130fa565b808452609760205260ff6125038360408720906001600160a01b0316600052602052604060002090565b541661251a575b835260c960205260408320613420565b80845260976020526125428260408620906001600160a01b0316600052602052604060002090565b60ff198154169055336001600160a01b038316827ff6391f5c32d9c69d2a47ea670b442974b53935d1edc7fd64eb21e047a839171b8780a461250a565b503461000e57600060031936011261000e5760206040517f3fb0aaa9e8051cfc6c234a5d843bed33910f70c647055f27247c10144c7552e18152f35b503461000e57602060031936011261000e577fa01a3b548ccd65893a6acee4ea0da2602fbd2aef7e3040483b026d9544d8074c60206004356125fb6130fa565b6126036127fb565b8061013455604051908152a1005b503461000e57602060031936011261000e576105806110b861263a610131546101335490612dc1565b600435613a94565b503461000e57600060031936011261000e5760206040517f65d7a28e3265b37a6474929f336521b332c1681b933f6cb9f3376673440d862a8152f35b503461000e57600060031936011261000e5760206001600160a01b0361012e5416604051908152f35b503461000e5760a060031936011261000e576126c46004356105cc565b6126cf6024356105cc565b60843567ffffffffffffffff811161000e576126ef903690600401612221565b50506126f96130fa565b6127106001600160a01b0361012d54163314613925565b61271b604435615138565b60206040517ff23a6e61000000000000000000000000000000000000000000000000000000008152f35b503461000e57602060031936011261000e576001600160a01b0360043561276b816105cc565b6127736127fb565b61277b6130fa565b1680156127c25760207fe846164b6756d387276a93f2200cfd28f5792fffe3530e65d95d7535cd43dab491610132816001600160a01b0319825416179055604051908152a1005b60046040517fb79b5914000000000000000000000000000000000000000000000000000000008152fd5b90600052602052604060002090565b3360009081527fb34b648d285118a9ee5f8cc4675698367f99ed092c20555b8b9380d41d2fafb5602052604090205460ff161561283457565b611ba060486128cd61284533612ede565b6128bf612850612f88565b6040519485937f416363657373436f6e74726f6c3a206163636f756e74200000000000000000006020860152612890815180926020603789019101611f3c565b84017f206973206d697373696e6720726f6c652000000000000000000000000000000060378201520190612ae2565b03601f198101835282611724565b60405191829162461bcd60e51b835260048301612af9565b3360009081527f793844da0378ca0230b21a4013ef02cf55735b90b39c85241478ff94b5eceb28602052604090205460ff161561291e57565b611ba060486128cd61292f33612ede565b6128bf612850613024565b3360009081527f683723e34a772b6e4f2c919bba7fa32ed8ea11a8325f54da7db716e9d9dd98c7602052604090205460ff161561297357565b61297c33612ede565b6000612986612e05565b90603061299283612e3f565b53607861299e83612e55565b5360415b600181116129c157611ba060486128cd866128bf876128508815612e93565b90807f3031323334353637383961626364656600000000000000000000000000000000600f612a0a93166010811015612a0f575b1a612a008486612e66565b5360041c91612e85565b6129a2565b612a17612b39565b6129f5565b80600052609760205260ff612a48336040600020906001600160a01b0316600052602052604060002090565b541615612a525750565b612a5b33612ede565b90612a64612e05565b906030612a7083612e3f565b536078612a7c83612e55565b5360415b60018111612a9f57611ba060486128cd866128bf876128508815612e93565b90807f3031323334353637383961626364656600000000000000000000000000000000600f612add93166010811015612a0f571a612a008486612e66565b612a80565b90612af560209282815194859201611f3c565b0190565b9060206107d7928181520190611f5f565b50634e487b7160e01b600052601160045260246000fd5b6001906000198114612b31570190565b612af5612b0a565b50634e487b7160e01b600052603260045260246000fd5b9190811015612bb1575b60051b810135907fffffffffffffffffffffffffffffffffffffffffffffffffffffffffffffffe18136030182121561000e57019081359167ffffffffffffffff831161000e57602001823603811361000e579190565b612bb9612b39565b612b5a565b601f19601f60209267ffffffffffffffff8111612bdc575b01160190565b612be46116cf565b612bd6565b929192612bf582612bbe565b91612c036040519384611724565b82948184528183011161000e578281602093846000960137010152565b6020918151811015612c35575b60051b010190565b612c3d612b39565b612c2d565b604051906060820182811067ffffffffffffffff821117612cb3575b604052602782527f206661696c6564000000000000000000000000000000000000000000000000006040837f416464726573733a206c6f772d6c6576656c2064656c65676174652063616c6c60208201520152565b612cbb6116cf565b612c5e565b90813b15612d17576000816107d79360208394519201905af43d15612d10573d612ce981612bbe565b90612cf76040519283611724565b81523d6000602083013e5b612d0a612c42565b91612d81565b6060612d02565b608460405162461bcd60e51b815260206004820152602660248201527f416464726573733a2064656c65676174652063616c6c20746f206e6f6e2d636f60448201527f6e747261637400000000000000000000000000000000000000000000000000006064820152fd5b90919015612d8d575090565b815115612d9d5750805190602001fd5b611ba09060405191829162461bcd60e51b8352602060048401526024830190611f5f565b81810292918115918404141715612dd457565b611754612b0a565b9060028201809211612dd457565b9060018201809211612dd457565b91908201809211612dd457565b604051906080820182811067ffffffffffffffff821117612e32575b604052604282526060366020840137565b612e3a6116cf565b612e21565b602090805115612e4d570190565b612af5612b39565b602190805160011015612e4d570190565b906020918051821015612e7857010190565b612e80612b39565b010190565b600019908015612b31570190565b15612e9a57565b606460405162461bcd60e51b815260206004820152602060248201527f537472696e67733a20686578206c656e67746820696e73756666696369656e746044820152fd5b604051906060820182811067ffffffffffffffff821117612f7b575b604052602a825260403660208401376030612f1483612e3f565b536078612f2083612e55565b536029905b60018211612f38576107d7915015612e93565b807f3031323334353637383961626364656600000000000000000000000000000000600f612f7593166010811015612a0f571a612a008486612e66565b90612f25565b612f836116cf565b612efa565b7f3fb0aaa9e8051cfc6c234a5d843bed33910f70c647055f27247c10144c7552e1612fb1612e05565b906030612fbd83612e3f565b536078612fc983612e55565b536041905b60018211612fe1576107d7915015612e93565b807f3031323334353637383961626364656600000000000000000000000000000000600f61301e93166010811015612a0f571a612a008486612e66565b90612fce565b7f65d7a28e3265b37a6474929f336521b332c1681b933f6cb9f3376673440d862a61304d612e05565b90603061305983612e3f565b53607861306583612e55565b536041905b6001821161307d576107d7915015612e93565b807f3031323334353637383961626364656600000000000000000000000000000000600f6130ba93166010811015612a0f571a612a008486612e66565b9061306a565b80548210156130d9575b60005260206000200190600090565b6130e1612b39565b6130ca565b906130f0916130c0565b90549060031b1c90565b60ff6033541661310657565b606460405162461bcd60e51b815260206004820152601060248201527f5061757361626c653a20706175736564000000000000000000000000000000006044820152fd5b6131ad906131566130fa565b6001600160a01b0381811660009081527f683723e34a772b6e4f2c919bba7fa32ed8ea11a8325f54da7db716e9d9dd98c760205260408082205490919060ff16156131b0575b80805260c96020522091169061339b565b50565b80805260976020526131d784838320906001600160a01b0316600052602052604060002090565b600160ff1982541617905533838516827f2f8788117e7eff1d82e926ec794901d17c78024a50270940304540a733656f0d8180a461319c565b6131ad9061321c6130fa565b6001600160a01b0381811660009081527f1993b25aada9b83773e0286f0950968fd5c4a170648b02185e5fc22cc12f52dd60205260408082209091907f26a560d834a19637eccba4611bbc09fb32970bb627da0a70f14f83fdc9822cbc9060ff905b541615613296575b815260c96020522091169061339b565b80825260976020526132bd85848420906001600160a01b0316600052602052604060002090565b600160ff1982541617905533848616827f2f8788117e7eff1d82e926ec794901d17c78024a50270940304540a733656f0d8580a4613286565b6131ad906133026130fa565b6001600160a01b0381811660009081527fb34b648d285118a9ee5f8cc4675698367f99ed092c20555b8b9380d41d2fafb560205260408082209091907f3fb0aaa9e8051cfc6c234a5d843bed33910f70c647055f27247c10144c7552e19060ff9061327e565b6001600160a01b036107d792169061339b565b916133979183549060031b600019811b9283911b169119161790565b9055565b600181019082600052816020526040600020541560001461341857826133f66133dd83546801000000000000000081101561340b575b600181018555846130c0565b819391549060031b600019811b9283911b169119161790565b90555491600052602052604060002055600190565b6134136116cf565b6133d1565b505050600090565b6001600160a01b036107d792169061349d565b6012039060128211612dd457565b906000198201918211612dd457565b91908203918211612dd457565b8054908115613487576000198092019161347783836130c0565b909182549160031b1b1916905555565b634e487b7160e01b600052603160045260246000fd5b6001810191806000528260205260406000205492831515600014613553576127ec6134f093600095600019808201828111613546575b8354918201918211613539575b8082036134f6575b50505061345d565b55600190565b61352061351a9161350a61353094876130c0565b90549060031b1c928391876130c0565b9061337b565b8590600052602052604060002090565b553880806134e8565b613541612b0a565b6134e0565b61354e612b0a565b6134d3565b50505050600090565b1561356357565b608460405162461bcd60e51b815260206004820152602e60248201527f496e697469616c697a61626c653a20636f6e747261637420697320616c72656160448201527f647920696e697469616c697a65640000000000000000000000000000000000006064820152fd5b959491939092936001600160a01b0392838316156127c25761368e6136d396613670613694946136d89b6136b298613603613764565b61360b613764565b61361c60ff60005460081c166136f3565b60ff196033541660335561362e613764565b613636613764565b61363e613764565b61012d91166001600160a01b03198254161790556001600160a01b0361012e91166001600160a01b0319825416179055565b6001600160a01b0361013091166001600160a01b0319825416179055565b61013355565b6001600160a01b0361013291166001600160a01b0319825416179055565b6136bd600061013455565b6115376101356001600160a01b03198154169055565b613daa565b6136e13361314a565b6136ea33613210565b611754336132f6565b156136fa57565b608460405162461bcd60e51b815260206004820152602b60248201527f496e697469616c697a61626c653a20636f6e7472616374206973206e6f74206960448201527f6e697469616c697a696e670000000000000000000000000000000000000000006064820152fd5b61175460ff60005460081c166136f3565b9081602091031261000e575190565b506040513d6000823e3d90fd5b93906107d795936137c4916137d2946001600160a01b03809216885216602087015260a0604087015260a0860190610792565b908482036060860152610792565b916080818403910152611f5f565b9594939060809361381161382d9461380361381f9460a08c5260a08c0190610792565b908a820360208c0152610792565b9088820360408a0152610792565b908682036060880152610792565b930152565b9061383c82611776565b6138496040519182611724565b828152601f196138598294611776565b0190602036910137565b919091805183116138a25761387783613832565b9260019182809201915b82811061388e5750505050565b80849160051b808401519088015201613881565b634e487b7160e01b600052600160045260246000fd5b6138c06130fa565b6138d76001600160a01b0361012d54163314613925565b60005b828110613908575050507fbc197c810000000000000000000000000000000000000000000000000000000090565b8061391b6139209260051b840135615138565b612b21565b6138da565b1561392c57565b606460405162461bcd60e51b815260206004820152601a60248201527f4d61726b65743a2053656e646572206e6f742052656d6f76616c0000000000006044820152fd5b50634e487b7160e01b600052601260045260246000fd5b8115613991570490565b613999613970565b0490565b1561000e57565b612710916000198383099280830292838086109503948086039514613a21579082916139d186841161399d565b096001821901821680920460028082600302188083028203028083028203028083028203028083028203028083028203028092029003029360018380600003040190848311900302920304170290565b5050906107d79250613987565b60001982820982820291828083109203918083039214613a8a57816064111561000e577f5c28f5c28f5c28f5c28f5c28f5c28f5c28f5c28f5c28f5c28f5c28f5c28f5c29936064910990828211900360fe1b910360021c170290565b5050606491500490565b9060001981830981830291828083109203918083039214613af157612710908282111561000e577fbc01a36e2eb1c432ca57a786c226809d495182a9930be0ded288ce703afb7e91940990828211900360fc1b910360041c170290565b505061271091500490565b9081602091031261000e57516107d781610f2e565b604d8111613b20575b600a0a90565b613b28612b0a565b613b1a565b60ff600460206001600160a01b0361012f54166040519283809263313ce56760e01b82525afa908115613bbb575b600091613b8d575b501660128114613b8957613b79613b7e91613433565b613b11565b908115613991570490565b5090565b613bae915060203d8111613bb4575b613ba68183611724565b810190613afc565b38613b63565b503d613b9c565b613bc3613784565b613b5b565b60ff600460206001600160a01b0361012f54166040519283809263313ce56760e01b82525afa908115613c3c575b600091613c1e575b501660128114613b895790613c18613b796107d793613433565b90612dc1565b613c36915060203d8111613bb457613ba68183611724565b38613bfe565b613c44613784565b613bf6565b906040516040810181811067ffffffffffffffff821117613c85575b6040526020819360016001600160a01b0391828154168552015416910152565b613c8d6116cf565b613c65565b60405163313ce56760e01b81526020816004816001600160a01b0386165afa908115613d9d575b600091613d7f575b5060ff811660128111908115613d74575b50613d3e5750613d3981613d1f7f94e2ca3c006ff5152db658db7f198e3606e0c8584958dbb13538cdd9b30ccb72936001600160a01b0361012f91166001600160a01b0319825416179055565b6040516001600160a01b0390911681529081906020820190565b0390a1565b6040517f094d18ae00000000000000000000000000000000000000000000000000000000815260ff919091166004820152602490fd5b600691501038613cd2565b613d97915060203d8111613bb457613ba68183611724565b38613cc1565b613da5613784565b613cb9565b60207f36a09eaea278b547d70faf65508009f5a7d32dfd33d27131e792f7e78bb42158918061013155604051908152a1565b9081602091031261000e57516107d7816105cc565b9081602091031261000e5751801515810361000e5790565b919293909360005b858110613e2057505050505050565b613e3661096061012d546001600160a01b031690565b613e84613e438388612c20565b5191604092835180927fb776d33300000000000000000000000000000000000000000000000000000000825281806020968795600483019190602083019252565b03915afa9081156144ab575b60009161448e575b5081613ea48587612c20565b51613eb3610131548092613a2e565b928551838180613ed6631ce08c0b60e01b98898352600483019190602083019252565b0381305afa908115614481575b600091614464575b50809260ff8316898b82613fe6575b505050505050613f729250613f1b61096061012f546001600160a01b031690565b613f35613f28888b612c20565b516001600160a01b031690565b60008b8851968795869485936323b872dd60e01b8552600485016040919493929460608201956001600160a01b0380921683521660208201520152565b03925af1918215613fd9575b600092613fac575b505015613f9c5750613f9790612b21565b613e11565b60049051633c9fd93960e21b8152fd5b613fcb9250803d10613fd2575b613fc38183611724565b810190613df1565b3880613f86565b503d613fb9565b613fe1613784565b613f7e565b614025965092614009610960999361400261400f948b97612c20565b5192612dc1565b90613a94565b8951918252600482015293849081906024820190565b0381305afa928315614457575b600093614434575b508261404591613450565b9086610130918d8a61406161096086546001600160a01b031690565b918451927f440f5fd200000000000000000000000000000000000000000000000000000000938481528a81600481855afa908115614427575b60009161440a575b506001600160a01b036140c361096061012f9e8f546001600160a01b031690565b9116146141d5575092613f7299897ff13b9ad9c5cff251c7890be98dd7159a5dde3f28cba336aeaaf551d9da06e7e094600461411c61096061410d8e9d9c9b986141829f9b612c20565b519a546001600160a01b031690565b95518096819382525afa9283156141c8575b60009361418d575b5061414e61096061417a92546001600160a01b031690565b8d519384938491604091949360ff60608501961684526001600160a01b03809216602085015216910152565b0390a3612df8565b38808080898b613efa565b61417a9193506109606141b861414e928d803d106141c1575b6141b08183611724565b810190613ddc565b94925050614136565b503d6141a6565b6141d0613784565b61412e565b959796999850915091506141e99250612c20565b51813b1561000e5787517f1b2ef1ca00000000000000000000000000000000000000000000000000000000815260048101849052602481019190915286916000908290604490829084905af190816143f7575b506143e1575061424c878c612c20565b51817fc63600d29a0ef31fe04e22e26a10c75787f6f15d8a95f6b340b232481bf6d696600080a361428761096083546001600160a01b031690565b91614295613f28898c612c20565b92803b1561000e5787517fc309f8e10000000000000000000000000000000000000000000000000000000081526001600160a01b0390941660048501526024840183905261436394879461432692610960926143189284926000908290818381604481015b03925af180156143d4575b6143c1575b50546001600160a01b031690565b92546001600160a01b031690565b60008c8951968795869485936323b872dd60e01b8552600485016040919493929460608201956001600160a01b0380921683521660208201520152565b03925af19081156143b4575b600091614397575b50156143875781613f7291614182565b60048351633c9fd93960e21b8152fd5b6143ae9150833d8511613fd257613fc38183611724565b38614377565b6143bc613784565b61436f565b80610a286143ce92611710565b3861430a565b6143dc613784565b614305565b91614326610960614318610960614363976119c7565b80610a2861440492611710565b3861423c565b61442191508b3d8d116141c1576141b08183611724565b386140a2565b61442f613784565b61409a565b61404591935061445090853d87116105b8576105aa8183611724565b929061403a565b61445f613784565b614032565b61447b9150843d86116105b8576105aa8183611724565b38613eeb565b614489613784565b613ee3565b6144a59150823d8411613bb457613ba68183611724565b38613e98565b6144b3613784565b613e90565b9193929060005b8581106144cf5750505050505050565b6144e561096061012d546001600160a01b031690565b6144ef8285612c20565b5190604090878251917fb776d33300000000000000000000000000000000000000000000000000000000835288848460208181979581839761453a60049d8e83019190602083019252565b03915afa908115614b66575b600091614b49575b5061458b8861455d8b88612c20565b518661456d610131548093613a2e565b865180958192631ce08c0b60e01b9687845283019190602083019252565b0381305afa928315614b3c575b600093614b1d575b5082978c60ff861691826147c5575b5050505050505050614682575b614620918c6145e4613f28896145de61096061012f546001600160a01b031690565b93612c20565b60008a8851968795869485936323b872dd60e01b85528d85016040919493929460608201956001600160a01b0380921683521660208201520152565b03925af1918215614675575b600092614658575b50501561464b57505061464690612b21565b6144bf565b51633c9fd93960e21b8152fd5b61466e9250803d10613fd257613fc38183611724565b3880614634565b61467d613784565b61462c565b6146f2908a61469d61096061012f546001600160a01b031690565b826146bb8a6146b5610132546001600160a01b031690565b94612c20565b518851809681927fdfa4bb0f0000000000000000000000000000000000000000000000000000000083528c83019190602083019252565b0381305afa9384156147b8575b600094614799575b5086516323b872dd60e01b81526001600160a01b03808c16828b0190815293166020840152604083019490945283918290600090829060600103925af190811561478c575b60009161476f575b501561476057816145bc565b505051633c9fd93960e21b8152fd5b6147869150833d8511613fd257613fc38183611724565b38614754565b614794613784565b61474c565b6147b1919450833d85116105b8576105aa8183611724565b9238614707565b6147c0613784565b6146ff565b6147f8979a506147e1926140028b9a9b96959361400993612c20565b908851958692839283528d83019190602083019252565b0381305afa928315614b10575b600093614aed575b508261481891613450565b90610130908c61483261096084546001600160a01b031690565b8b8d8a51937f440f5fd200000000000000000000000000000000000000000000000000000000938486528a868581845afa958615614ae0575b600096614ac1575b5061012f956001600160a01b036148976109606109608a546001600160a01b031690565b9116146148eb575098809a9b9389969361411c61096061410d7ff13b9ad9c5cff251c7890be98dd7159a5dde3f28cba336aeaaf551d9da06e7e099966148dc9f612c20565b915b84388080808f8c816145af565b979b509398509350505061490192949650612c20565b51813b1561000e5787517f1b2ef1ca000000000000000000000000000000000000000000000000000000008152808a01868152602081019290925287929091600091839182908490829060400103925af19081614aae575b50614a9b5750614969888b612c20565b51837fc63600d29a0ef31fe04e22e26a10c75787f6f15d8a95f6b340b232481bf6d696600080a38d6149ac613f288a6145de61096086546001600160a01b031690565b92813b1561000e57614318610960610960926142fa600089614a17978f9a8f8f9c859151968795869485937fc309f8e10000000000000000000000000000000000000000000000000000000085528401602090939291936001600160a01b0360408201951681520152565b86516323b872dd60e01b81526001600160a01b03808c16828b019081529216602083015260408201949094528391908290600090829060600103925af1908115614a8e575b600091614a71575b50156147605781886148de565b614a889150833d8511613fd257613fc38183611724565b38614a64565b614a96613784565b614a5c565b91610960614318610960614a17936119c7565b80610a28614abb92611710565b38614959565b614ad99196508b3d8d116141c1576141b08183611724565b9438614873565b614ae8613784565b61486b565b614818919350614b0990853d87116105b8576105aa8183611724565b929061480d565b614b18613784565b614805565b614b35919350873d89116105b8576105aa8183611724565b91386145a0565b614b44613784565b614598565b614b609150843d8611613bb457613ba68183611724565b3861454e565b614b6e613784565b614546565b60c0810151614b8860a0830191825190613863565b90614bcd614b9c60e0850151835190613863565b918284614ba98751151590565b92614bbe60608901516001600160a01b031690565b905190610100890151946144b8565b614c5b614be460808501516001600160a01b031690565b614c4d604086015195614c0361096061012f546001600160a01b031690565b906020610131549101519160405198899560208701919594939060a09360c0840197600085526001600160a01b038093166020860152604085015216606083015260808201520152565b03601f198101855284611724565b614c7161096061012d546001600160a01b031690565b614c8761096061012e546001600160a01b031690565b92813b1561000e5760008094614ccd604051978896879586947f2eb2c2d60000000000000000000000000000000000000000000000000000000086523060048701613791565b03925af18015614cec575b614cdf5750565b80610a2861175492611710565b614cf4613784565b614cd8565b90614d5f600482614d649460206001600160a01b0361012d5416604051948580927f964eec700000000000000000000000000000000000000000000000000000000082525afa928315614d8c575b600093614d6c575b50614d5a83836155aa565b61537c565b6155db565b929391929091565b614d8591935060203d81116105b8576105aa8183611724565b9138614d4f565b614d94613784565b614d47565b819392919261012d926001600160a01b0384541692614e00604094855198899384927f964eec70000000000000000000000000000000000000000000000000000000008452602095869160049d8e915afa928315615074575b600093615055575b5061537c565b600094614e21836001600160a01b0316600052610137602052604060002090565b8697600282019081546001840154905b808211156150255750508915614ffd5798949596979893614e5186613832565b9a614e5b87613832565b9a996000965b8d898910614e8d575b50505050505050505050614e8690614e8184613832565b615081565b9193929190565b98809d9c989b9a99614e9e88615da7565b91614eb36109608b546001600160a01b031690565b8551627eeac760e11b8152308882019081526020810186905290929189918491908290819060400103915afa918215614ff0575b600092614fd1575b5081851015614f4357505089614f0491612c20565b52614f0f888d612c20565b52614f1b600097612b21565b998715614f3757614f2b90612b21565b969b9798999a9b614e61565b88999a9b9c508d614e6a565b614f5191939b949250613441565b831480614fc8575b614f9f578f828f928594614f83868f96614f9097614f7d614f1b9b614f8999612c20565b52612c20565b52613450565b9988615c31565b8554612b215761391b8a615adc565b505050517f33aa101c000000000000000000000000000000000000000000000000000000008152fd5b50818111614f59565b614fe9919250883d8a116105b8576105aa8183611724565b9038614eef565b614ff8613784565b614ee7565b8a88517f33aa101c000000000000000000000000000000000000000000000000000000008152fd5b909a61504961504f916150428e8890600052602052604060002090565b5490612df8565b9b612b21565b90614e31565b61506d919350853d87116105b8576105aa8183611724565b9138614dfa565b61507c613784565b614df2565b51919061508d83613832565b9260019182809201915b8281106150a45750505050565b8082859260051b88015201615097565b9094926001600160a01b03938461012f541690813b1561000e5760009660ff889460e4976040519b8c9a8b997fd505accf000000000000000000000000000000000000000000000000000000008b521660048a01523060248a01526044890152606488015216608486015260a485015260c48401525af18015614cec57614cdf5750565b6001600160a01b0390818160201c1691826000526101376020526151938261518e604060002061ffff8360e01c16908160028201805480156000146151f357508160018401555590600052602052604060002090565b61339b565b506151b76001611282856001600160a01b0316600052610136602052604060002090565b16156151e5575b7f3f2e35daa045b6aa1cc1d76e5337f2bce6985b354b49e998d4ce29d683190d15600080a3565b6151ee8261590a565b6151be565b906001840191825484106000146152165750505590600052602052604060002090565b9091508211615227575b50506127ec565b558138615220565b6001600160a01b0382168060005261525261013792836020526040600020615c31565b600052602052600260406000200154156152695750565b61175490615adc565b60ff166012039060ff8211612dd457565b811561528d570690565b615295613970565b0690565b6152f06152eb6152e5600460206152bc61096061012f546001600160a01b031690565b6040519283809263313ce56760e01b82525afa90811561536f575b600091615351575b50615272565b60ff1690565b612ddc565b8115908115615335575b506153025750565b6040517f277f4c270000000000000000000000000000000000000000000000000000000081526004810191909152602490fd5b615349915061534390613b11565b82615283565b1515386152fa565b615369915060203d8111613bb457613ba68183611724565b386152df565b615377613784565b6152d7565b919061538791615400565b905061013454116153955750565b6001600160a01b031660009081527f1993b25aada9b83773e0286f0950968fd5c4a170648b02185e5fc22cc12f52dd602052604090205460ff16156153d657565b60046040517f9ece8f2f000000000000000000000000000000000000000000000000000000008152fd5b9190828111615410576001920390565b50600091508190565b6001600160a01b03811633149081156154dd575b8115615437575090565b6154a1915060209061545561096061012d546001600160a01b031690565b6040517fe985e9c50000000000000000000000000000000000000000000000000000000081526001600160a01b0390921660048301523360248301529092839190829081906044820190565b03915afa9081156154d0575b6000916154b8575090565b6107d7915060203d8111613fd257613fc38183611724565b6154d8613784565b6154ad565b3360009081527fb34b648d285118a9ee5f8cc4675698367f99ed092c20555b8b9380d41d2fafb5602052604090205460ff16915061542d565b9061552361552991615571565b92615571565b821491821592615566575b505061553c57565b60046040517f49f82da6000000000000000000000000000000000000000000000000000000008152fd5b141590503880615534565b80516000929160209160051b8101820190849083015b8281106155945750505050565b858151019586106155a6578301615587565b5080fd5b116155b157565b60046040517f33aa101c000000000000000000000000000000000000000000000000000000008152fd5b61012d906155f361096083546001600160a01b031690565b60409384517f789e8cdf00000000000000000000000000000000000000000000000000000000815260209081816004958180615641308a83019190916001600160a01b036020820193169052565b03915afa9081156158b7575b60009161589a575b5095949091929361566587613832565b9661566f81613832565b9661567982613832565b966000956000945b8b858710615698575b505050505050505093929190565b908b6109608c9b9a969798999d9c938e61572561013596886156c189546001600160a01b031690565b938d8c6156fd6156ed6156e8896001600160a01b0316600052610137602052604060002090565b615da7565b998a94546001600160a01b031690565b9151627eeac760e11b8152309181019182526020820193909352919485928391829160400190565b03915afa91821561588d575b60009261586e575b50818710156157aa5750505087615775959361576b9593614f7d8361575d95612c20565b52546001600160a01b031690565b6112f5858b612c20565b615780600093612b21565b95831561579e5761579090612b21565b949392999596979899615681565b869798999a508b61568a565b818b976157d9856112f5899f6157de96839c986157809f9b836119c79c9b6157e49f614f7d83614f7d95612c20565b613450565b9961522f565b906001600160a01b0380918184169283911614928361583c575b50505015612b215761391b61013580546001600160a01b03196001600160a01b03808316600052610136602052600160406000200154169116179055565b615863919293506112826001916001600160a01b0316600052610136602052604060002090565b1614153880806157fe565b615886919250893d8b116105b8576105aa8183611724565b9038615739565b615895613784565b615731565b6158b19150823d84116105b8576105aa8183611724565b38615655565b6158bf613784565b61564d565b815181546001600160a01b0319166001600160a01b03918216178255611754926001919060200151169101906001600160a01b03166001600160a01b0319825416179055565b6101359061591f82546001600160a01b031690565b6001600160a01b03928184166159af57505061013580546001600160a01b0319166001600160a01b038316179055615985615958611756565b6001600160a01b038316808252602080830182905260009182526101369052604090206158c4565b6158c4565b1680807f3a35d42f4bce14f93a24ab2ec3c4dc4cd013e5f16abcd79d5c93afa2cebc0c72600080a4565b9280615aaf8395615a226159db6119c785976001600160a01b0316600052610136602052604060002090565b97615a046159e7611756565b6001600160a01b038b168152916001600160a01b03166020830152565b615980886001600160a01b0316600052610136602052604060002090565b615a62866001615a468a6001600160a01b0316600052610136602052604060002090565b01906001600160a01b03166001600160a01b0319825416179055565b6119c786615a94615a7a84546001600160a01b031690565b6001600160a01b0316600052610136602052604060002090565b906001600160a01b03166001600160a01b0319825416179055565b9416931691167f3a35d42f4bce14f93a24ab2ec3c4dc4cd013e5f16abcd79d5c93afa2cebc0c72600080a4565b6001600160a01b039081615b04826001600160a01b0316600052610136602052604060002090565b541691615b7e816001615b2b856001600160a01b0316600052610136602052604060002090565b0154169282811692838503615ba557506101356001600160a01b031981541690555b615980615b58611756565b9160008352600060208401526001600160a01b0316600052610136602052604060002090565b7fd853f0403f99e88d186f52744de8bd40a17410e4d2206e25ac3750410aa19737600080a4565b615bc9856001615a46896001600160a01b0316600052610136602052604060002090565b615beb86615a94876001600160a01b0316600052610136602052604060002090565b61013554168303615b4d57615c2c61013580546001600160a01b03196001600160a01b03808316600052610136602052600160406000200154169116179055565b615b4d565b61ffff8260e01c1691615c5e615c5a82615c55868690600052602052604060002090565b61349d565b1590565b615d6b5750615c798282906000526020526040600020541590565b615c81575050565b60018082019182546002820194855491828114600014615cb157505050505090615cae6000926000199055565b55565b939592938103615d1a57505083615cc88454612dea565b905b615cd6575b5050505050565b81548111615d1557615cf2818490600052602052604060002090565b54615d0657615d0090612b21565b84615cca565b93505050553880808080615ccf565b615ccf565b9193918114615d2a575050505050565b615d348591613441565b905b15615ccf5781548110615d1557615d57818490600052602052604060002090565b54615d0657615d6590612e85565b84615d36565b6040517fb524f6fe0000000000000000000000000000000000000000000000000000000081526004810191909152602481019290925250604490fd5b60018101546000526020526040600020805415615dcb575b60005260206000205490565b615dd3612b39565b615dbf56fea2646970667358221220235795810aaf4459a217eab15782ef88ce7791e6247a4449e1dcf7fc0e9c30ca64736f6c63430008110033"
}