{
  "address": "0xF2Cf51E3Fd4b3834b9DA0EEAdF529F4334625D3B",
  "abi": [
    {
      "anonymous": false,
      "inputs": [
        {
          "indexed": true,
          "internalType": "address",
          "name": "owner",
          "type": "address"
        },
        {
          "indexed": true,
          "internalType": "address",
          "name": "spender",
          "type": "address"
        },
        {
          "indexed": false,
          "internalType": "uint256",
          "name": "value",
          "type": "uint256"
        }
      ],
      "name": "Approval",
      "type": "event"
    },
    {
      "anonymous": false,
      "inputs": [
        {
          "indexed": false,
          "internalType": "uint8",
          "name": "version",
          "type": "uint8"
        }
      ],
      "name": "Initialized",
      "type": "event"
    },
    {
      "anonymous": false,
      "inputs": [
        {
          "indexed": true,
          "internalType": "address",
          "name": "from",
          "type": "address"
        },
        {
          "indexed": true,
          "internalType": "address",
          "name": "to",
          "type": "address"
        },
        {
          "indexed": false,
          "internalType": "uint256",
          "name": "value",
          "type": "uint256"
        }
      ],
      "name": "Transfer",
      "type": "event"
    },
    {
      "inputs": [],
      "name": "DOMAIN_SEPARATOR",
      "outputs": [
        {
          "internalType": "bytes32",
          "name": "",
          "type": "bytes32"
        }
      ],
      "stateMutability": "view",
      "type": "function"
    },
    {
      "inputs": [
        {
          "internalType": "address",
          "name": "owner",
          "type": "address"
        },
        {
          "internalType": "address",
          "name": "spender",
          "type": "address"
        }
      ],
      "name": "allowance",
      "outputs": [
        {
          "internalType": "uint256",
          "name": "",
          "type": "uint256"
        }
      ],
      "stateMutability": "view",
      "type": "function"
    },
    {
      "inputs": [
        {
          "internalType": "address",
          "name": "spender",
          "type": "address"
        },
        {
          "internalType": "uint256",
          "name": "amount",
          "type": "uint256"
        }
      ],
      "name": "approve",
      "outputs": [
        {
          "internalType": "bool",
          "name": "",
          "type": "bool"
        }
      ],
      "stateMutability": "nonpayable",
      "type": "function"
    },
    {
      "inputs": [
        {
          "internalType": "address",
          "name": "account",
          "type": "address"
        }
      ],
      "name": "balanceOf",
      "outputs": [
        {
          "internalType": "uint256",
          "name": "",
          "type": "uint256"
        }
      ],
      "stateMutability": "view",
      "type": "function"
    },
    {
      "inputs": [],
      "name": "decimals",
      "outputs": [
        {
          "internalType": "uint8",
          "name": "",
          "type": "uint8"
        }
      ],
      "stateMutability": "view",
      "type": "function"
    },
    {
      "inputs": [
        {
          "internalType": "address",
          "name": "spender",
          "type": "address"
        },
        {
          "internalType": "uint256",
          "name": "subtractedValue",
          "type": "uint256"
        }
      ],
      "name": "decreaseAllowance",
      "outputs": [
        {
          "internalType": "bool",
          "name": "",
          "type": "bool"
        }
      ],
      "stateMutability": "nonpayable",
      "type": "function"
    },
    {
      "inputs": [
        {
          "internalType": "address",
          "name": "spender",
          "type": "address"
        },
        {
          "internalType": "uint256",
          "name": "addedValue",
          "type": "uint256"
        }
      ],
      "name": "increaseAllowance",
      "outputs": [
        {
          "internalType": "bool",
          "name": "",
          "type": "bool"
        }
      ],
      "stateMutability": "nonpayable",
      "type": "function"
    },
    {
      "inputs": [],
      "name": "initialize",
      "outputs": [],
      "stateMutability": "nonpayable",
      "type": "function"
    },
    {
      "inputs": [],
      "name": "name",
      "outputs": [
        {
          "internalType": "string",
          "name": "",
          "type": "string"
        }
      ],
      "stateMutability": "view",
      "type": "function"
    },
    {
      "inputs": [
        {
          "internalType": "address",
          "name": "owner",
          "type": "address"
        }
      ],
      "name": "nonces",
      "outputs": [
        {
          "internalType": "uint256",
          "name": "",
          "type": "uint256"
        }
      ],
      "stateMutability": "view",
      "type": "function"
    },
    {
      "inputs": [
        {
          "internalType": "address",
          "name": "owner",
          "type": "address"
        },
        {
          "internalType": "address",
          "name": "spender",
          "type": "address"
        },
        {
          "internalType": "uint256",
          "name": "value",
          "type": "uint256"
        },
        {
          "internalType": "uint256",
          "name": "deadline",
          "type": "uint256"
        },
        {
          "internalType": "uint8",
          "name": "v",
          "type": "uint8"
        },
        {
          "internalType": "bytes32",
          "name": "r",
          "type": "bytes32"
        },
        {
          "internalType": "bytes32",
          "name": "s",
          "type": "bytes32"
        }
      ],
      "name": "permit",
      "outputs": [],
      "stateMutability": "nonpayable",
      "type": "function"
    },
    {
      "inputs": [],
      "name": "symbol",
      "outputs": [
        {
          "internalType": "string",
          "name": "",
          "type": "string"
        }
      ],
      "stateMutability": "view",
      "type": "function"
    },
    {
      "inputs": [],
      "name": "totalSupply",
      "outputs": [
        {
          "internalType": "uint256",
          "name": "",
          "type": "uint256"
        }
      ],
      "stateMutability": "view",
      "type": "function"
    },
    {
      "inputs": [
        {
          "internalType": "address",
          "name": "to",
          "type": "address"
        },
        {
          "internalType": "uint256",
          "name": "amount",
          "type": "uint256"
        }
      ],
      "name": "transfer",
      "outputs": [
        {
          "internalType": "bool",
          "name": "",
          "type": "bool"
        }
      ],
      "stateMutability": "nonpayable",
      "type": "function"
    },
    {
      "inputs": [
        {
          "internalType": "address",
          "name": "from",
          "type": "address"
        },
        {
          "internalType": "address",
          "name": "to",
          "type": "address"
        },
        {
          "internalType": "uint256",
          "name": "amount",
          "type": "uint256"
        }
      ],
      "name": "transferFrom",
      "outputs": [
        {
          "internalType": "bool",
          "name": "",
          "type": "bool"
        }
      ],
      "stateMutability": "nonpayable",
      "type": "function"
    }
  ],
  "numDeployments": 1,
  "bytecode": "0x6080806040523461001657611912908161001c8239f35b600080fdfe608060408181526004918236101561001657600080fd5b600092833560e01c91826306fdde0314610ee457508163095ea7b314610eba57816318160ddd14610e9b57816323b872dd14610d8b578163313ce56714610d6f5781633644e51514610d4b5781633950935114610cef57816370a0823114610cab5781637ecebe0014610c675781638129fc1c146105b657816395d89b41146104b7578163a457c2d7146103cf578163a9059cbb1461039e578163d505accf14610122575063dd62ed3e146100ca57600080fd5b3461011e578060031936011261011e57806020926100e6610ff2565b6100ee61101a565b73ffffffffffffffffffffffffffffffffffffffff91821683526034865283832091168252845220549051908152f35b5080fd5b8391503461011e5760e060031936011261011e5761013e610ff2565b61014661101a565b90604435926064356084359060ff8216820361039a5780421161033d5773ffffffffffffffffffffffffffffffffffffffff908185169283895260996020528989208054906001820190558a519260208401917f6e71edae12b1b97f4d1f60370fef10105fa2faae0126114a169c64845d6126c98352868d860152858a1660608601528a608086015260a085015260c084015260c0835260e083019267ffffffffffffffff9381811085821117610311578c52519020906102056117e5565b928b519260208401947f1901000000000000000000000000000000000000000000000000000000000000865260228501526042840152604283526080830190838210908211176102e55791610273939161026b938d5260c4359260a43592519020611723565b9190916114fe565b16036102885750610285939450611389565b80f35b60649060208751917f08c379a0000000000000000000000000000000000000000000000000000000008352820152601e60248201527f45524332305065726d69743a20696e76616c6964207369676e617475726500006044820152fd5b60248b6041897f4e487b7100000000000000000000000000000000000000000000000000000000835252fd5b60248c60418a7f4e487b7100000000000000000000000000000000000000000000000000000000835252fd5b60648360208a51917f08c379a0000000000000000000000000000000000000000000000000000000008352820152601d60248201527f45524332305065726d69743a206578706972656420646561646c696e650000006044820152fd5b8680fd5b50503461011e578060031936011261011e576020906103c86103be610ff2565b6024359033611171565b5160018152f35b905082346104b457826003193601126104b4576103ea610ff2565b918360243592338152603460205281812073ffffffffffffffffffffffffffffffffffffffff86168252602052205490828210610431576020856103c88585038733611389565b60849060208651917f08c379a0000000000000000000000000000000000000000000000000000000008352820152602560248201527f45524332303a2064656372656173656420616c6c6f77616e63652062656c6f7760448201527f207a65726f0000000000000000000000000000000000000000000000000000006064820152fd5b80fd5b50503461011e578160031936011261011e57805190826037546104d98161103d565b808552916001918083169081156105705750600114610513575b5050506105058261050f9403836110db565b5191829182610f8c565b0390f35b9450603785527f42a7b7dd785cd69714a189dffb3fd7d7174edc9ece837694ce50f7078f7c31ae5b8286106105585750505061050582602061050f95820101946104f3565b8054602087870181019190915290950194810161053b565b61050f9750869350602092506105059491507fffffffffffffffffffffffffffffffffffffffffffffffffffffffffffffff001682840152151560051b820101946104f3565b905034610c635782600319360112610c6357825460ff8160081c1615808091610c56575b8015610c3f575b15610bbc5760019181837fffffffffffffffffffffffffffffffffffffffffffffffffffffffffffffff008316178755610b8e575b5083519261062384611090565b600884526020938481017f4e6f7269555344430000000000000000000000000000000000000000000000009081815260ff895460081c169261066484611851565b88519161067083611090565b878352888301917f310000000000000000000000000000000000000000000000000000000000000083526106a386611851565b51902091519020906065556066556106e28751926106c084611090565b6008845282888501528851926106d584611090565b6008845288840152611851565b81519067ffffffffffffffff91828111610b62578061070260365461103d565b94601f95868111610af5575b508990868311600114610a3b578c92610a30575b50507fffffffffffffffffffffffffffffffffffffffffffffffffffffffffffffffff82891b9260031b1c1916176036555b8051918211610a0457819061076a60375461103d565b848111610997575b5087908483116001146108dd578a926108d2575b50507fffffffffffffffffffffffffffffffffffffffffffffffffffffffffffffffff82871b9260031b1c1916176037555b33156108775750506107cb60355461111c565b603555338552603383528385206107e2815461111c565b905583516b1027e72f1f128130880000008152857fddf252ad1be2c89b69c2b068fc378daa952ba7f163c4a11628f55a4df523b3ef853393a3610823578380f35b7f7f26b83ff96e1f2b6a682f133852f6798a09c465da95921460cefb3847402498927fffffffffffffffffffffffffffffffffffffffffffffffffffffffffffff00ff855416855551908152a13880808380f35b60649250848651927f08c379a000000000000000000000000000000000000000000000000000000000845283015260248201527f45524332303a206d696e7420746f20746865207a65726f2061646472657373006044820152fd5b015190503880610786565b907fffffffffffffffffffffffffffffffffffffffffffffffffffffffffffffffe08894169160378c527f42a7b7dd785cd69714a189dffb3fd7d7174edc9ece837694ce50f7078f7c31ae928c5b8b828210610981575050841161094a575b505050811b016037556107b8565b01517fffffffffffffffffffffffffffffffffffffffffffffffffffffffffffffffff60f88460031b161c1916905538808061093c565b8385015186558b9790950194938401930161092b565b90915060378a527f42a7b7dd785cd69714a189dffb3fd7d7174edc9ece837694ce50f7078f7c31ae8480850160051c8201928a86106109fb575b918991869594930160051c01915b8281106109ed575050610772565b8c81558594508991016109df565b925081926109d1565b6024896041867f4e487b7100000000000000000000000000000000000000000000000000000000835252fd5b015190503880610722565b908c917fffffffffffffffffffffffffffffffffffffffffffffffffffffffffffffffe08b9516603684527f4a11f94e20a93c79f6ec743a1954ec4fc2c08429ae2122118bf234b2185c81b8935b8d828210610adf5750508411610aa8575b505050811b01603655610754565b01517fffffffffffffffffffffffffffffffffffffffffffffffffffffffffffffffff60f88460031b161c19169055388080610a9a565b8385015186558d97909501949384019301610a89565b90915060368c527f4a11f94e20a93c79f6ec743a1954ec4fc2c08429ae2122118bf234b2185c81b88680850160051c8201928c8610610b59575b918b91869594930160051c01915b828110610b4b57505061070e565b8e81558594508b9101610b3d565b92508192610b2f565b60248a6041877f4e487b7100000000000000000000000000000000000000000000000000000000835252fd5b7fffffffffffffffffffffffffffffffffffffffffffffffffffffffffffff00001661010117855538610616565b60848360208651917f08c379a0000000000000000000000000000000000000000000000000000000008352820152602e60248201527f496e697469616c697a61626c653a20636f6e747261637420697320616c72656160448201527f647920696e697469616c697a65640000000000000000000000000000000000006064820152fd5b50303b1580156105e15750600160ff8316146105e1565b50600160ff8316106105da565b8280fd5b50503461011e57602060031936011261011e578060209273ffffffffffffffffffffffffffffffffffffffff610c9b610ff2565b1681526099845220549051908152f35b50503461011e57602060031936011261011e578060209273ffffffffffffffffffffffffffffffffffffffff610cdf610ff2565b1681526033845220549051908152f35b50503461011e578060031936011261011e576103c8602092610d44610d12610ff2565b913381526034865284812073ffffffffffffffffffffffffffffffffffffffff84168252865284602435912054611164565b9033611389565b50503461011e578160031936011261011e57602090610d686117e5565b9051908152f35b50503461011e578160031936011261011e576020905160128152f35b8391503461011e57606060031936011261011e57610da7610ff2565b610daf61101a565b91846044359473ffffffffffffffffffffffffffffffffffffffff8416815260346020528181203382526020522054907fffffffffffffffffffffffffffffffffffffffffffffffffffffffffffffffff8203610e15575b6020866103c8878787611171565b848210610e3e5750918391610e33602096956103c895033383611389565b919394819350610e07565b60649060208751917f08c379a0000000000000000000000000000000000000000000000000000000008352820152601d60248201527f45524332303a20696e73756666696369656e7420616c6c6f77616e63650000006044820152fd5b50503461011e578160031936011261011e576020906035549051908152f35b50503461011e578060031936011261011e576020906103c8610eda610ff2565b6024359033611389565b84908434610c635782600319360112610c635782603654610f048161103d565b808552916001918083169081156105705750600114610f2f575050506105058261050f9403836110db565b9450603685527f4a11f94e20a93c79f6ec743a1954ec4fc2c08429ae2122118bf234b2185c81b85b828610610f745750505061050582602061050f95820101946104f3565b80546020878701810191909152909501948101610f57565b60208082528251818301819052939260005b858110610fde575050507fffffffffffffffffffffffffffffffffffffffffffffffffffffffffffffffe0601f8460006040809697860101520116010190565b818101830151848201604001528201610f9e565b6004359073ffffffffffffffffffffffffffffffffffffffff8216820361101557565b600080fd5b6024359073ffffffffffffffffffffffffffffffffffffffff8216820361101557565b90600182811c92168015611086575b602083101461105757565b7f4e487b7100000000000000000000000000000000000000000000000000000000600052602260045260246000fd5b91607f169161104c565b6040810190811067ffffffffffffffff8211176110ac57604052565b7f4e487b7100000000000000000000000000000000000000000000000000000000600052604160045260246000fd5b90601f7fffffffffffffffffffffffffffffffffffffffffffffffffffffffffffffffe0910116810190811067ffffffffffffffff8211176110ac57604052565b906b1027e72f1f12813088000000820180921161113557565b7f4e487b7100000000000000000000000000000000000000000000000000000000600052601160045260246000fd5b9190820180921161113557565b73ffffffffffffffffffffffffffffffffffffffff809116918215611305571691821561128157600082815260336020526040812054918083106111fd57604082827fddf252ad1be2c89b69c2b068fc378daa952ba7f163c4a11628f55a4df523b3ef958760209652603386520382822055868152206111f2828254611164565b9055604051908152a3565b60846040517f08c379a000000000000000000000000000000000000000000000000000000000815260206004820152602660248201527f45524332303a207472616e7366657220616d6f756e742065786365656473206260448201527f616c616e636500000000000000000000000000000000000000000000000000006064820152fd5b60846040517f08c379a000000000000000000000000000000000000000000000000000000000815260206004820152602360248201527f45524332303a207472616e7366657220746f20746865207a65726f206164647260448201527f65737300000000000000000000000000000000000000000000000000000000006064820152fd5b60846040517f08c379a000000000000000000000000000000000000000000000000000000000815260206004820152602560248201527f45524332303a207472616e736665722066726f6d20746865207a65726f20616460448201527f64726573730000000000000000000000000000000000000000000000000000006064820152fd5b73ffffffffffffffffffffffffffffffffffffffff80911691821561147b57169182156113f75760207f8c5be1e5ebec7d5bd14f71427d1e84f3dd0314c0f7b2291e5b200ac8c7c3b925918360005260348252604060002085600052825280604060002055604051908152a3565b60846040517f08c379a000000000000000000000000000000000000000000000000000000000815260206004820152602260248201527f45524332303a20617070726f766520746f20746865207a65726f20616464726560448201527f73730000000000000000000000000000000000000000000000000000000000006064820152fd5b60846040517f08c379a0000000000000000000000000000000000000000000000000000000008152602060048201526024808201527f45524332303a20617070726f76652066726f6d20746865207a65726f2061646460448201527f72657373000000000000000000000000000000000000000000000000000000006064820152fd5b60058110156116f4578061150f5750565b600181036115755760646040517f08c379a000000000000000000000000000000000000000000000000000000000815260206004820152601860248201527f45434453413a20696e76616c6964207369676e617475726500000000000000006044820152fd5b600281036115db5760646040517f08c379a000000000000000000000000000000000000000000000000000000000815260206004820152601f60248201527f45434453413a20696e76616c6964207369676e6174757265206c656e677468006044820152fd5b600381036116675760846040517f08c379a000000000000000000000000000000000000000000000000000000000815260206004820152602260248201527f45434453413a20696e76616c6964207369676e6174757265202773272076616c60448201527f75650000000000000000000000000000000000000000000000000000000000006064820152fd5b60041461167057565b60846040517f08c379a000000000000000000000000000000000000000000000000000000000815260206004820152602260248201527f45434453413a20696e76616c6964207369676e6174757265202776272076616c60448201527f75650000000000000000000000000000000000000000000000000000000000006064820152fd5b7f4e487b7100000000000000000000000000000000000000000000000000000000600052602160045260246000fd5b9291907f7fffffffffffffffffffffffffffffff5d576e7357a4501ddfe92f46681b20a083116117d95760ff16601b811415806117ce575b6117c2579160809493916020936040519384528484015260408301526060820152600093849182805260015afa156117b557815173ffffffffffffffffffffffffffffffffffffffff8116156117af579190565b50600190565b50604051903d90823e3d90fd5b50505050600090600490565b50601c81141561175b565b50505050600090600390565b6065546066546040519060208201927f8b73c3c69bb8fe3d512ecc4cf759cc79239f7b179b0ffacaa9a75d522b39400f8452604083015260608201524660808201523060a082015260a0815260c0810181811067ffffffffffffffff8211176110ac5760405251902090565b1561185857565b60846040517f08c379a000000000000000000000000000000000000000000000000000000000815260206004820152602b60248201527f496e697469616c697a61626c653a20636f6e7472616374206973206e6f74206960448201527f6e697469616c697a696e670000000000000000000000000000000000000000006064820152fdfea264697066735822122066d6d5a18b916ae91b21d3219ec38cfb98c5fd583647c980d318939e7ab151b064736f6c63430008110033"
}