{
  "address": "0xb5ea4cCdd74B07Fc5D645Fd4bb6C932b1b2CFdD8",
  "abi": [
    {
      "inputs": [],
      "stateMutability": "nonpayable",
      "type": "constructor"
    },
    {
      "anonymous": false,
      "inputs": [
        {
          "indexed": true,
          "internalType": "address",
          "name": "owner",
          "type": "address"
        },
        {
          "indexed": true,
          "internalType": "address",
          "name": "spender",
          "type": "address"
        },
        {
          "indexed": false,
          "internalType": "uint256",
          "name": "value",
          "type": "uint256"
        }
      ],
      "name": "Approval",
      "type": "event"
    },
    {
      "anonymous": false,
      "inputs": [
        {
          "indexed": false,
          "internalType": "uint8",
          "name": "version",
          "type": "uint8"
        }
      ],
      "name": "Initialized",
      "type": "event"
    },
    {
      "anonymous": false,
      "inputs": [
        {
          "indexed": false,
          "internalType": "address",
          "name": "account",
          "type": "address"
        }
      ],
      "name": "Paused",
      "type": "event"
    },
    {
      "anonymous": false,
      "inputs": [
        {
          "indexed": true,
          "internalType": "bytes32",
          "name": "role",
          "type": "bytes32"
        },
        {
          "indexed": true,
          "internalType": "bytes32",
          "name": "previousAdminRole",
          "type": "bytes32"
        },
        {
          "indexed": true,
          "internalType": "bytes32",
          "name": "newAdminRole",
          "type": "bytes32"
        }
      ],
      "name": "RoleAdminChanged",
      "type": "event"
    },
    {
      "anonymous": false,
      "inputs": [
        {
          "indexed": true,
          "internalType": "bytes32",
          "name": "role",
          "type": "bytes32"
        },
        {
          "indexed": true,
          "internalType": "address",
          "name": "account",
          "type": "address"
        },
        {
          "indexed": true,
          "internalType": "address",
          "name": "sender",
          "type": "address"
        }
      ],
      "name": "RoleGranted",
      "type": "event"
    },
    {
      "anonymous": false,
      "inputs": [
        {
          "indexed": true,
          "internalType": "bytes32",
          "name": "role",
          "type": "bytes32"
        },
        {
          "indexed": true,
          "internalType": "address",
          "name": "account",
          "type": "address"
        },
        {
          "indexed": true,
          "internalType": "address",
          "name": "sender",
          "type": "address"
        }
      ],
      "name": "RoleRevoked",
      "type": "event"
    },
    {
      "anonymous": false,
      "inputs": [
        {
          "indexed": true,
          "internalType": "address",
          "name": "from",
          "type": "address"
        },
        {
          "indexed": true,
          "internalType": "address",
          "name": "to",
          "type": "address"
        },
        {
          "indexed": false,
          "internalType": "uint256",
          "name": "value",
          "type": "uint256"
        }
      ],
      "name": "Transfer",
      "type": "event"
    },
    {
      "anonymous": false,
      "inputs": [
        {
          "indexed": false,
          "internalType": "address",
          "name": "account",
          "type": "address"
        }
      ],
      "name": "Unpaused",
      "type": "event"
    },
    {
      "inputs": [],
      "name": "DEFAULT_ADMIN_ROLE",
      "outputs": [
        {
          "internalType": "bytes32",
          "name": "",
          "type": "bytes32"
        }
      ],
      "stateMutability": "view",
      "type": "function"
    },
    {
      "inputs": [],
      "name": "DOMAIN_SEPARATOR",
      "outputs": [
        {
          "internalType": "bytes32",
          "name": "",
          "type": "bytes32"
        }
      ],
      "stateMutability": "view",
      "type": "function"
    },
    {
      "inputs": [],
      "name": "PAUSER_ROLE",
      "outputs": [
        {
          "internalType": "bytes32",
          "name": "",
          "type": "bytes32"
        }
      ],
      "stateMutability": "view",
      "type": "function"
    },
    {
      "inputs": [
        {
          "internalType": "address",
          "name": "owner",
          "type": "address"
        },
        {
          "internalType": "address",
          "name": "spender",
          "type": "address"
        }
      ],
      "name": "allowance",
      "outputs": [
        {
          "internalType": "uint256",
          "name": "",
          "type": "uint256"
        }
      ],
      "stateMutability": "view",
      "type": "function"
    },
    {
      "inputs": [
        {
          "internalType": "address",
          "name": "spender",
          "type": "address"
        },
        {
          "internalType": "uint256",
          "name": "amount",
          "type": "uint256"
        }
      ],
      "name": "approve",
      "outputs": [
        {
          "internalType": "bool",
          "name": "",
          "type": "bool"
        }
      ],
      "stateMutability": "nonpayable",
      "type": "function"
    },
    {
      "inputs": [
        {
          "internalType": "address",
          "name": "account",
          "type": "address"
        }
      ],
      "name": "balanceOf",
      "outputs": [
        {
          "internalType": "uint256",
          "name": "",
          "type": "uint256"
        }
      ],
      "stateMutability": "view",
      "type": "function"
    },
    {
      "inputs": [
        {
          "internalType": "uint256",
          "name": "amount",
          "type": "uint256"
        }
      ],
      "name": "burn",
      "outputs": [],
      "stateMutability": "nonpayable",
      "type": "function"
    },
    {
      "inputs": [
        {
          "internalType": "address",
          "name": "account",
          "type": "address"
        },
        {
          "internalType": "uint256",
          "name": "amount",
          "type": "uint256"
        }
      ],
      "name": "burnFrom",
      "outputs": [],
      "stateMutability": "nonpayable",
      "type": "function"
    },
    {
      "inputs": [],
      "name": "decimals",
      "outputs": [
        {
          "internalType": "uint8",
          "name": "",
          "type": "uint8"
        }
      ],
      "stateMutability": "view",
      "type": "function"
    },
    {
      "inputs": [
        {
          "internalType": "address",
          "name": "spender",
          "type": "address"
        },
        {
          "internalType": "uint256",
          "name": "subtractedValue",
          "type": "uint256"
        }
      ],
      "name": "decreaseAllowance",
      "outputs": [
        {
          "internalType": "bool",
          "name": "",
          "type": "bool"
        }
      ],
      "stateMutability": "nonpayable",
      "type": "function"
    },
    {
      "inputs": [
        {
          "internalType": "bytes32",
          "name": "role",
          "type": "bytes32"
        }
      ],
      "name": "getRoleAdmin",
      "outputs": [
        {
          "internalType": "bytes32",
          "name": "",
          "type": "bytes32"
        }
      ],
      "stateMutability": "view",
      "type": "function"
    },
    {
      "inputs": [
        {
          "internalType": "bytes32",
          "name": "role",
          "type": "bytes32"
        },
        {
          "internalType": "uint256",
          "name": "index",
          "type": "uint256"
        }
      ],
      "name": "getRoleMember",
      "outputs": [
        {
          "internalType": "address",
          "name": "",
          "type": "address"
        }
      ],
      "stateMutability": "view",
      "type": "function"
    },
    {
      "inputs": [
        {
          "internalType": "bytes32",
          "name": "role",
          "type": "bytes32"
        }
      ],
      "name": "getRoleMemberCount",
      "outputs": [
        {
          "internalType": "uint256",
          "name": "",
          "type": "uint256"
        }
      ],
      "stateMutability": "view",
      "type": "function"
    },
    {
      "inputs": [
        {
          "internalType": "bytes32",
          "name": "role",
          "type": "bytes32"
        },
        {
          "internalType": "address",
          "name": "account",
          "type": "address"
        }
      ],
      "name": "grantRole",
      "outputs": [],
      "stateMutability": "nonpayable",
      "type": "function"
    },
    {
      "inputs": [
        {
          "internalType": "bytes32",
          "name": "role",
          "type": "bytes32"
        },
        {
          "internalType": "address",
          "name": "account",
          "type": "address"
        }
      ],
      "name": "hasRole",
      "outputs": [
        {
          "internalType": "bool",
          "name": "",
          "type": "bool"
        }
      ],
      "stateMutability": "view",
      "type": "function"
    },
    {
      "inputs": [
        {
          "internalType": "address",
          "name": "spender",
          "type": "address"
        },
        {
          "internalType": "uint256",
          "name": "addedValue",
          "type": "uint256"
        }
      ],
      "name": "increaseAllowance",
      "outputs": [
        {
          "internalType": "bool",
          "name": "",
          "type": "bool"
        }
      ],
      "stateMutability": "nonpayable",
      "type": "function"
    },
    {
      "inputs": [],
      "name": "initialize",
      "outputs": [],
      "stateMutability": "nonpayable",
      "type": "function"
    },
    {
      "inputs": [
        {
          "internalType": "bytes[]",
          "name": "data",
          "type": "bytes[]"
        }
      ],
      "name": "multicall",
      "outputs": [
        {
          "internalType": "bytes[]",
          "name": "results",
          "type": "bytes[]"
        }
      ],
      "stateMutability": "nonpayable",
      "type": "function"
    },
    {
      "inputs": [],
      "name": "name",
      "outputs": [
        {
          "internalType": "string",
          "name": "",
          "type": "string"
        }
      ],
      "stateMutability": "view",
      "type": "function"
    },
    {
      "inputs": [
        {
          "internalType": "address",
          "name": "owner",
          "type": "address"
        }
      ],
      "name": "nonces",
      "outputs": [
        {
          "internalType": "uint256",
          "name": "",
          "type": "uint256"
        }
      ],
      "stateMutability": "view",
      "type": "function"
    },
    {
      "inputs": [],
      "name": "pause",
      "outputs": [],
      "stateMutability": "nonpayable",
      "type": "function"
    },
    {
      "inputs": [],
      "name": "paused",
      "outputs": [
        {
          "internalType": "bool",
          "name": "",
          "type": "bool"
        }
      ],
      "stateMutability": "view",
      "type": "function"
    },
    {
      "inputs": [
        {
          "internalType": "address",
          "name": "owner",
          "type": "address"
        },
        {
          "internalType": "address",
          "name": "spender",
          "type": "address"
        },
        {
          "internalType": "uint256",
          "name": "value",
          "type": "uint256"
        },
        {
          "internalType": "uint256",
          "name": "deadline",
          "type": "uint256"
        },
        {
          "internalType": "uint8",
          "name": "v",
          "type": "uint8"
        },
        {
          "internalType": "bytes32",
          "name": "r",
          "type": "bytes32"
        },
        {
          "internalType": "bytes32",
          "name": "s",
          "type": "bytes32"
        }
      ],
      "name": "permit",
      "outputs": [],
      "stateMutability": "nonpayable",
      "type": "function"
    },
    {
      "inputs": [
        {
          "internalType": "bytes32",
          "name": "role",
          "type": "bytes32"
        },
        {
          "internalType": "address",
          "name": "account",
          "type": "address"
        }
      ],
      "name": "renounceRole",
      "outputs": [],
      "stateMutability": "nonpayable",
      "type": "function"
    },
    {
      "inputs": [
        {
          "internalType": "bytes32",
          "name": "role",
          "type": "bytes32"
        },
        {
          "internalType": "address",
          "name": "account",
          "type": "address"
        }
      ],
      "name": "revokeRole",
      "outputs": [],
      "stateMutability": "nonpayable",
      "type": "function"
    },
    {
      "inputs": [
        {
          "internalType": "bytes4",
          "name": "interfaceId",
          "type": "bytes4"
        }
      ],
      "name": "supportsInterface",
      "outputs": [
        {
          "internalType": "bool",
          "name": "",
          "type": "bool"
        }
      ],
      "stateMutability": "view",
      "type": "function"
    },
    {
      "inputs": [],
      "name": "symbol",
      "outputs": [
        {
          "internalType": "string",
          "name": "",
          "type": "string"
        }
      ],
      "stateMutability": "view",
      "type": "function"
    },
    {
      "inputs": [],
      "name": "totalSupply",
      "outputs": [
        {
          "internalType": "uint256",
          "name": "",
          "type": "uint256"
        }
      ],
      "stateMutability": "view",
      "type": "function"
    },
    {
      "inputs": [
        {
          "internalType": "address",
          "name": "to",
          "type": "address"
        },
        {
          "internalType": "uint256",
          "name": "amount",
          "type": "uint256"
        }
      ],
      "name": "transfer",
      "outputs": [
        {
          "internalType": "bool",
          "name": "",
          "type": "bool"
        }
      ],
      "stateMutability": "nonpayable",
      "type": "function"
    },
    {
      "inputs": [
        {
          "internalType": "address",
          "name": "from",
          "type": "address"
        },
        {
          "internalType": "address",
          "name": "to",
          "type": "address"
        },
        {
          "internalType": "uint256",
          "name": "amount",
          "type": "uint256"
        }
      ],
      "name": "transferFrom",
      "outputs": [
        {
          "internalType": "bool",
          "name": "",
          "type": "bool"
        }
      ],
      "stateMutability": "nonpayable",
      "type": "function"
    },
    {
      "inputs": [],
      "name": "unpause",
      "outputs": [],
      "stateMutability": "nonpayable",
      "type": "function"
    }
  ],
  "numDeployments": 1,
  "bytecode": "0x608080604052346100c1576000549060ff8260081c1661006f575060ff80821610610034575b60405161287090816100c78239f35b60ff90811916176000557f7f26b83ff96e1f2b6a682f133852f6798a09c465da95921460cefb3847402498602060405160ff8152a138610025565b62461bcd60e51b815260206004820152602760248201527f496e697469616c697a61626c653a20636f6e747261637420697320696e697469604482015266616c697a696e6760c81b6064820152608490fd5b600080fdfe608060408181526004918236101561001657600080fd5b600092833560e01c91826301ffc9a7146118205750816306fdde0314611776578163095ea7b31461168757816318160ddd1461166857816323b872dd1461162b578163248a9ca3146115ff5781632f2ff15d1461153c578163313ce567146115205781633644e515146114fc57816336568abe146113ee578163395093511461139f5781633f4ba83a1461130857816342966c68146112ea5781635c975abb146112c557816370a082311461128d57816379cc6790146112595781637ecebe00146112215781638129fc1c14610bbc5781638456cb5914610b605781639010d07c14610b1e57816391d1485414610ad657816395d89b41146109ed578163a217fddf146109d2578163a457c2d714610878578163a9059cbb14610847578163ac9650d81461058c578163ca15c87314610563578163d505accf146102c6578163d547741f146101ff57508063dd62ed3e146101b75763e63ab1e91461017a57600080fd5b346101b357816003193601126101b357602090517f65d7a28e3265b37a6474929f336521b332c1681b933f6cb9f3376673440d862a8152f35b5080fd5b50346101b357806003193601126101b357806020926101d46118e7565b6101dc611902565b6001600160a01b0391821683526034865283832091168252845220549051908152f35b9050346102c257816003193601126102c25761027890356101c6610221611902565b918086526101949060209180835261023e6001888a200154611b33565b610246612598565b8188528083528688206001600160a01b039095168089529483528688205460ff1661027c575b50865252828420612669565b5051f35b8188528252858720848852825285872060ff1981541690553384827ff6391f5c32d9c69d2a47ea670b442974b53935d1edc7fd64eb21e047a839171b8a8a51a43861026c565b8280fd5b9050346102c25760e03660031901126102c2576102e16118e7565b906102ea611902565b91604435606435926084359260ff8416840361055f5784421161051c5760018060a01b038091169485895260209460cb8652888a209788549860018a01905589519284888501927f6e71edae12b1b97f4d1f60370fef10105fa2faae0126114a169c64845d6126c984528a8d87015216998a606086015287608086015260a085015260c084015260c0835260e083019267ffffffffffffffff9381811085821117610509578b525190209061039d612514565b928a51928884019461190160f01b865260228501526042840152604283526080830190838210908211176104f657926103f1926103e9928a96958d5260c4359260a4359251902061245f565b9190916122ed565b16036104b3576103ff612598565b831561047657841561043a57509060008051602061281b8339815191529183875260348252858720858852825280868820558551908152a351f35b855162461bcd60e51b8152908101839052602260248201526000805160206127fb833981519152604482015261737360f01b6064820152608490fd5b855162461bcd60e51b81529081018390526024808201526000805160206127db8339815191526044820152637265737360e01b6064820152608490fd5b855162461bcd60e51b8152908101839052601e60248201527f45524332305065726d69743a20696e76616c6964207369676e617475726500006044820152606490fd5b634e487b7160e01b8c526041865260248cfd5b634e487b7160e01b8d526041875260248dfd5b865162461bcd60e51b8152602081840152601d60248201527f45524332305065726d69743a206578706972656420646561646c696e650000006044820152606490fd5b8780fd5b9050346102c25760203660031901126102c25760209282913581526101c6845220549051908152f35b8383346101b357602090816003193601126102c25783359167ffffffffffffffff94858411610843573660238501121561084357838101359386851161083f576024916005973684888b1b8501011161055f576105ee8793979896959861212f565b966105fb86519889611c8d565b838852601f1961060a8561212f565b01875b818110610830575050368190036042190190875b85811061068657505050505050508051938080860192818752855180945283818801981b870101940192955b82871061065a5785850386f35b909192938280610676600193603f198a820301865288516118c2565b960192019601959291909261064d565b86818d9c999a9c1b830101358381121561082c5782018781013585811161082857604490818301813603811361082457908c92916106cf6106c683612147565b94519485611c8d565b8184528c84019483833692010111610820578f91808e92873784010152303b156107d057508c9182915190305af43d156107c9573d61070d81612147565b9061071a8c519283611c8d565b81523d8d8b83013e5b8a519160608301838110888211176107b7578c52602783527f416464726573733a206c6f772d6c6576656c2064656c65676174652063616c6c8b840152660819985a5b195960ca1b8c84015261077a92919061218d565b610784828c612163565b5261078f818b612163565b5060001981146107a55760010199979699610621565b634e487b7160e01b8b5260118552868bfd5b634e487b7160e01b8f52604189528a8ffd5b6060610723565b877f416464726573733a2064656c65676174652063616c6c20746f206e6f6e2d636f60849260268f8f8f91519562461bcd60e51b8752860152840152820152651b9d1c9858dd60d21b6064820152fd5b8f80fd5b8e80fd5b8c80fd5b8b80fd5b60608a82018c01528a0161060d565b8580fd5b8480fd5b5050346101b357806003193601126101b3576020906108716108676118e7565b6024359033611d30565b5160018152f35b9050346102c257816003193601126102c2576108926118e7565b9060243593338152602094603486528482209360018060a01b0316938483528652848220548181106109815703916108c8612598565b331561094457831561090857508382913381526034875281812085825287522055825190815260008051602061281b833981519152843392a35160018152f35b845162461bcd60e51b8152908101869052602260248201526000805160206127fb833981519152604482015261737360f01b6064820152608490fd5b845162461bcd60e51b81529081018690526024808201526000805160206127db8339815191526044820152637265737360e01b6064820152608490fd5b855162461bcd60e51b8152808501889052602560248201527f45524332303a2064656372656173656420616c6c6f77616e63652062656c6f77604482015264207a65726f60d81b6064820152608490fd5b5050346101b357816003193601126101b35751908152602090f35b5050346101b357816003193601126101b35780519082603754610a0f81611caf565b80855291600191808316908115610aae5750600114610a51575b505050610a3b82610a4d940383611c8d565b519182916020835260208301906118c2565b0390f35b9450603785527f42a7b7dd785cd69714a189dffb3fd7d7174edc9ece837694ce50f7078f7c31ae5b828610610a9657505050610a3b826020610a4d9582010194610a29565b80546020878701810191909152909501948101610a79565b610a4d975086935060209250610a3b94915060ff191682840152151560051b82010194610a29565b9050346102c257816003193601126102c2578160209360ff92610af7611902565b9035825261019486528282206001600160a01b039091168252855220549151911615158152f35b9050346102c257816003193601126102c257602092610b4a913581526101c68452826024359120612580565b905491519160018060a01b039160031b1c168152f35b5050346101b357816003193601126101b357610b7a611918565b610b82612598565b610130600160ff198254161790557f62e78cea01bee320cd4e420270b5ea74000d11b0c9f74754ebdbfc544b05a25860208251338152a151f35b9050346102c257826003193601126102c257825460ff8160081c1615808091611214575b80156111fd575b156111a35760019260ff19928285858316178855611192575b5060ff865460081c16610c128161277a565b610c1b8161277a565b610c248161277a565b610c2d8161277a565b610c368161277a565b610130848154169055610c4761275a565b938651610c5381611c3f565b86815260209586820190603160f81b8252610c6d8561277a565b8781519101209151902090609755609855610c8661275a565b91610c98610c9261275a565b9161277a565b82519067ffffffffffffffff9182811161117f5780610cb8603654611caf565b95601f9687811161110f575b5089908d8884116001146110905792611085575b5050600019600383901b1c191690891b176036555b8051918211611072578190610d03603754611caf565b858111611005575b508790858311600114610f86578b92610f7b575b5050600019600383901b1c191690871b176037555b610d3c61275a565b50610d5f60ff895460081c16610d518161277a565b610d5a8161277a565b61277a565b610d67612598565b878052610194808652878920338a52865260ff888a20541615610f35575b8880526101c691828752610d9b338a8c206125dd565b50610da4612598565b7f65d7a28e3265b37a6474929f336521b332c1681b933f6cb9f3376673440d862a91828b52808852898b20338c52885260ff8a8c20541615610eee575b505088528452610df3338789206125dd565b50610e0460ff885460081c1661277a565b3315610eac575050610e14612598565b610e1f603554611ce9565b60355533855260338252838520610e368154611ce9565b905583516b019d971e4fe8401e740000008152857fddf252ad1be2c89b69c2b068fc378daa952ba7f163c4a11628f55a4df523b3ef843393a3610e7857505051f35b835461ff001916845582519182527f7f26b83ff96e1f2b6a682f133852f6798a09c465da95921460cefb384740249891a151f35b855162461bcd60e51b815291820184905260248201527f45524332303a206d696e7420746f20746865207a65726f206164647265737300604482015260649150fd5b828b528752888a20338b52875287898b20918254161790553333827f2f8788117e7eff1d82e926ec794901d17c78024a50270940304540a733656f0d8c8c51a43880610de1565b888052808652878920338a528652878920878382541617905533338a7f2f8788117e7eff1d82e926ec794901d17c78024a50270940304540a733656f0d818c51a4610d85565b015190503880610d1f565b60378c528993507f42a7b7dd785cd69714a189dffb3fd7d7174edc9ece837694ce50f7078f7c31ae9190601f1984168d5b8b828210610fef5750508411610fd6575b505050811b01603755610d34565b015160001960f88460031b161c19169055388080610fc8565b8385015186558d97909501949384019301610fb7565b90915060378b527f42a7b7dd785cd69714a189dffb3fd7d7174edc9ece837694ce50f7078f7c31ae8580850160051c8201928a8610611069575b918b91869594930160051c01915b82811061105b575050610d0b565b8d81558594508b910161104d565b9250819261103f565b634e487b7160e01b8a526041855260248afd5b015190503880610cd8565b91908c9450601f198416603684527f4a11f94e20a93c79f6ec743a1954ec4fc2c08429ae2122118bf234b2185c81b8935b8d8282106110f957505084116110e0575b505050811b01603655610ced565b015160001960f88460031b161c191690553880806110d2565b8385015186558f979095019493840193016110c1565b90915060368d527f4a11f94e20a93c79f6ec743a1954ec4fc2c08429ae2122118bf234b2185c81b88780850160051c8201928c8610611176575b859493910160051c909101908c908f5b83821061116857505050610cc4565b81558594508d91018f611159565b92508192611149565b634e487b7160e01b8b526041865260248bfd5b61ffff191661010117865538610c00565b835162461bcd60e51b8152602081850152602e60248201527f496e697469616c697a61626c653a20636f6e747261637420697320616c72656160448201526d191e481a5b9a5d1a585b1a5e995960921b6064820152608490fd5b50303b158015610be75750600160ff831614610be7565b50600160ff831610610be0565b5050346101b35760203660031901126101b35760209181906001600160a01b036112496118e7565b16815260cb845220549051908152f35b5050346101b357806003193601126101b35761128a6112766118e7565b60243590611285823383611eaf565b612001565b51f35b5050346101b35760203660031901126101b35760209181906001600160a01b036112b56118e7565b1681526033845220549051908152f35b5050346101b357816003193601126101b35760209060ff610130541690519015158152f35b9050346102c25760203660031901126102c25761128a903533612001565b9050346102c257826003193601126102c257611322611918565b6101309081549060ff821615611365575060ff191690557f5db9ee0a495bf2e6ff9c91a7834c1ba4fdd244a5e8aa4e537bd38aeae4b073aa60208251338152a151f35b606490602085519162461bcd60e51b8352820152601460248201527314185d5cd8589b194e881b9bdd081c185d5cd95960621b6044820152fd5b9050346102c257816003193601126102c2576113b96118e7565b90338452602093603485528381209260018060a01b03169283825285526113e560243585832054611d24565b916108c8612598565b9050346102c257816003193601126102c25780356001600160a01b03611412611902565b16913383036114a157509061027891611429612598565b8085526101948060205284862083875260205260ff8587205416611459575b5084526101c6602052828420612669565b81865260205283852082865260205283852060ff1981541690553382827ff6391f5c32d9c69d2a47ea670b442974b53935d1edc7fd64eb21e047a839171b888851a438611448565b608490602085519162461bcd60e51b8352820152602f60248201527f416363657373436f6e74726f6c3a2063616e206f6e6c792072656e6f756e636560448201526e103937b632b9903337b91039b2b63360891b6064820152fd5b5050346101b357816003193601126101b357602090611519612514565b9051908152f35b5050346101b357816003193601126101b3576020905160128152f35b9050346102c257816003193601126102c25761027890356101c661155e611902565b918086526101949060209180835261157b6001888a200154611b33565b611583612598565b8188528083528688206001600160a01b039095168089529483528688205460ff16156115b6575b508652528284206125dd565b81885282528587208488528252858720600160ff198254161790553384827f2f8788117e7eff1d82e926ec794901d17c78024a50270940304540a733656f0d8a8a51a4386115aa565b9050346102c25760203660031901126102c2578160209360019235815261019485522001549051908152f35b5050346101b35760603660031901126101b35760209061087161164c6118e7565b611654611902565b60443591611663833383611eaf565b611d30565b5050346101b357816003193601126101b3576020906035549051908152f35b8284346117735781600319360112611773576116a16118e7565b602435906116ad612598565b3315611736576001600160a01b03169182156116fa57602094508382913381526034875281812085825287522055825190815260008051602061281b833981519152843392a35160018152f35b835162461bcd60e51b8152602081870152602260248201526000805160206127fb833981519152604482015261737360f01b6064820152608490fd5b835162461bcd60e51b81526020818701526024808201526000805160206127db8339815191526044820152637265737360e01b6064820152608490fd5b80fd5b5050346101b357816003193601126101b3578051908260365461179881611caf565b80855291600191808316908115610aae57506001146117c357505050610a3b82610a4d940383611c8d565b9450603685527f4a11f94e20a93c79f6ec743a1954ec4fc2c08429ae2122118bf234b2185c81b85b82861061180857505050610a3b826020610a4d9582010194610a29565b805460208787018101919091529095019481016117eb565b8491346102c25760203660031901126102c2573563ffffffff60e01b81168091036102c25760209250635a05180f60e01b8114908115611862575b5015158152f35b637965db0b60e01b81149150811561187c575b508361185b565b6301ffc9a760e01b14905083611875565b918091926000905b8282106118ad5750116118a6575050565b6000910152565b91508060209183015181860152018291611895565b906020916118db8151809281855285808601910161188d565b601f01601f1916010190565b600435906001600160a01b03821682036118fd57565b600080fd5b602435906001600160a01b03821682036118fd57565b3360009081527f412e7e500d019dabc6dc47c877d526993730edaac2dbc56d1f358eb6078745a0602090815260408083205490927f65d7a28e3265b37a6474929f336521b332c1681b933f6cb9f3376673440d862a9160ff161561197c5750505050565b611985336121de565b9184519061199282611c71565b60428252848201926060368537825115611b1f5760308453825190600191821015611b1f5790607860218501536041915b818311611ab157505050611a6f576048611a6b938693611a4f93611a40985198899376020b1b1b2b9b9a1b7b73a3937b61d1030b1b1b7bab73a1604d1b8a860152611a17815180928c60378901910161188d565b8401917001034b99036b4b9b9b4b733903937b6329607d1b60378401525180938684019061188d565b01036028810187520185611c8d565b5192839262461bcd60e51b8452600484015260248301906118c2565b0390fd5b60648486519062461bcd60e51b825280600483015260248201527f537472696e67733a20686578206c656e67746820696e73756666696369656e746044820152fd5b909192600f81166010811015611b0b576f181899199a1a9b1b9c1cb0b131b232b360811b901a611ae185876121cd565b5360041c928015611af7576000190191906119c3565b634e487b7160e01b82526011600452602482fd5b634e487b7160e01b83526032600452602483fd5b634e487b7160e01b81526032600452602490fd5b6000908082526020906101948252604092838120338252835260ff848220541615611b5e5750505050565b611b67336121de565b91845190611b7482611c71565b60428252848201926060368537825115611b1f5760308453825190600191821015611b1f5790607860218501536041915b818311611bf957505050611a6f576048611a6b938693611a4f93611a40985198899376020b1b1b2b9b9a1b7b73a3937b61d1030b1b1b7bab73a1604d1b8a860152611a17815180928c60378901910161188d565b909192600f81166010811015611b0b576f181899199a1a9b1b9c1cb0b131b232b360811b901a611c2985876121cd565b5360041c928015611af757600019019190611ba5565b6040810190811067ffffffffffffffff821117611c5b57604052565b634e487b7160e01b600052604160045260246000fd5b6080810190811067ffffffffffffffff821117611c5b57604052565b90601f8019910116810190811067ffffffffffffffff821117611c5b57604052565b90600182811c92168015611cdf575b6020831014611cc957565b634e487b7160e01b600052602260045260246000fd5b91607f1691611cbe565b6b019d971e4fe8401e74000000198111611d0e576b019d971e4fe8401e740000000190565b634e487b7160e01b600052601160045260246000fd5b81198111611d0e570190565b6001600160a01b03908116918215611e5c5716918215611e0b57611d52612598565b60008281526033602052604081205491808310611db757604082827fddf252ad1be2c89b69c2b068fc378daa952ba7f163c4a11628f55a4df523b3ef95876020965260338652038282205586815220611dac828254611d24565b9055604051908152a3565b60405162461bcd60e51b815260206004820152602660248201527f45524332303a207472616e7366657220616d6f756e7420657863656564732062604482015265616c616e636560d01b6064820152608490fd5b60405162461bcd60e51b815260206004820152602360248201527f45524332303a207472616e7366657220746f20746865207a65726f206164647260448201526265737360e81b6064820152608490fd5b60405162461bcd60e51b815260206004820152602560248201527f45524332303a207472616e736665722066726f6d20746865207a65726f206164604482015264647265737360d81b6064820152608490fd5b909160018060a01b0380921691600090838252602092603484526040918284209616958684528452818320546000198103611eee575b50505050505050565b818110611fbd570391611eff612598565b8415611f7f578515611f4257908281838760008051602061281b83398151915297969552603486528181208982528652205551908152a338808080808080611ee5565b815162461bcd60e51b815260048101859052602260248201526000805160206127fb833981519152604482015261737360f01b6064820152608490fd5b815162461bcd60e51b8152600481018590526024808201526000805160206127db8339815191526044820152637265737360e01b6064820152608490fd5b825162461bcd60e51b815260048101869052601d60248201527f45524332303a20696e73756666696369656e7420616c6c6f77616e63650000006044820152606490fd5b6001600160a01b031680156120e057612018612598565b60009181835260336020526040832054818110612090578190838552603360205203604084205560355481811061207c57817fddf252ad1be2c89b69c2b068fc378daa952ba7f163c4a11628f55a4df523b3ef9260209203603555604051908152a3565b634e487b7160e01b84526011600452602484fd5b60405162461bcd60e51b815260206004820152602260248201527f45524332303a206275726e20616d6f756e7420657863656564732062616c616e604482015261636560f01b6064820152608490fd5b60405162461bcd60e51b815260206004820152602160248201527f45524332303a206275726e2066726f6d20746865207a65726f206164647265736044820152607360f81b6064820152608490fd5b67ffffffffffffffff8111611c5b5760051b60200190565b67ffffffffffffffff8111611c5b57601f01601f191660200190565b80518210156121775760209160051b010190565b634e487b7160e01b600052603260045260246000fd5b90919015612199575090565b8151156121a95750805190602001fd5b60405162461bcd60e51b815260206004820152908190611a6b9060248301906118c2565b908151811015612177570160200190565b604051906060820182811067ffffffffffffffff821117611c5b57604052602a82526020820160403682378251156121775760309053815160019081101561217757607860218401536029905b80821161227f57505061223b5790565b606460405162461bcd60e51b815260206004820152602060248201527f537472696e67733a20686578206c656e67746820696e73756666696369656e746044820152fd5b9091600f811660108110156122d8576f181899199a1a9b1b9c1cb0b131b232b360811b901a6122ae84866121cd565b5360041c9180156122c357600019019061222b565b60246000634e487b7160e01b81526011600452fd5b60246000634e487b7160e01b81526032600452fd5b600581101561244957806122fe5750565b6001810361234b5760405162461bcd60e51b815260206004820152601860248201527f45434453413a20696e76616c6964207369676e617475726500000000000000006044820152606490fd5b600281036123985760405162461bcd60e51b815260206004820152601f60248201527f45434453413a20696e76616c6964207369676e6174757265206c656e677468006044820152606490fd5b600381036123f05760405162461bcd60e51b815260206004820152602260248201527f45434453413a20696e76616c6964207369676e6174757265202773272076616c604482015261756560f01b6064820152608490fd5b6004146123f957565b60405162461bcd60e51b815260206004820152602260248201527f45434453413a20696e76616c6964207369676e6174757265202776272076616c604482015261756560f01b6064820152608490fd5b634e487b7160e01b600052602160045260246000fd5b9291907f7fffffffffffffffffffffffffffffff5d576e7357a4501ddfe92f46681b20a083116125085760ff16601b811415806124fd575b6124f1579160809493916020936040519384528484015260408301526060820152600093849182805260015afa156124e45781516001600160a01b038116156124de579190565b50600190565b50604051903d90823e3d90fd5b50505050600090600490565b50601c811415612497565b50505050600090600390565b6097546098546040519060208201927f8b73c3c69bb8fe3d512ecc4cf759cc79239f7b179b0ffacaa9a75d522b39400f8452604083015260608201524660808201523060a082015260a0815260c0810181811067ffffffffffffffff821117611c5b5760405251902090565b80548210156121775760005260206000200190600090565b60ff61013054166125a557565b60405162461bcd60e51b815260206004820152601060248201526f14185d5cd8589b194e881c185d5cd95960821b6044820152606490fd5b91906001830160009082825280602052604082205415600014612663578454946801000000000000000086101561264f578361263f612626886001604098999a01855584612580565b819391549060031b600019811b9283911b169119161790565b9055549382526020522055600190565b634e487b7160e01b83526041600452602483fd5b50925050565b90600182019060009281845282602052604084205490811515600014612753576001821061273f576000199182810182546001811061272b578401908082036126f6575b505050805480156126e2578201916126c58383612580565b909182549160031b1b191690555582526020526040812055600190565b634e487b7160e01b86526031600452602486fd5b6127166127066126269386612580565b90549060031b1c92839286612580565b905586528460205260408620553880806126ad565b634e487b7160e01b88526011600452602488fd5b634e487b7160e01b85526011600452602485fd5b5050505090565b6040519061276782611c3f565b60048252634e4f524960e01b6020830152565b1561278157565b60405162461bcd60e51b815260206004820152602b60248201527f496e697469616c697a61626c653a20636f6e7472616374206973206e6f74206960448201526a6e697469616c697a696e6760a81b6064820152608490fdfe45524332303a20617070726f76652066726f6d20746865207a65726f2061646445524332303a20617070726f766520746f20746865207a65726f2061646472658c5be1e5ebec7d5bd14f71427d1e84f3dd0314c0f7b2291e5b200ac8c7c3b925a2646970667358221220133b91ed0957d845ad743f2c09b31726a32afaa98cba192cb5287073602bfab264736f6c634300080f0033"
}