{
  "address": "0x8a696730b53925d4118D96C45d53BC1Cf6925bB5",
  "abi": [
    {
      "inputs": [],
      "stateMutability": "nonpayable",
      "type": "constructor"
    },
    {
      "inputs": [],
      "name": "ForbiddenTransfer",
      "type": "error"
    },
    {
      "inputs": [],
      "name": "InvalidData",
      "type": "error"
    },
    {
      "inputs": [
        {
          "internalType": "uint8",
          "name": "holdbackPercentage",
          "type": "uint8"
        }
      ],
      "name": "InvalidHoldbackPercentage",
      "type": "error"
    },
    {
      "inputs": [
        {
          "internalType": "uint8",
          "name": "methodology",
          "type": "uint8"
        }
      ],
      "name": "MethodologyTooLarge",
      "type": "error"
    },
    {
      "inputs": [
        {
          "internalType": "uint8",
          "name": "methodologyVersion",
          "type": "uint8"
        }
      ],
      "name": "MethodologyVersionTooLarge",
      "type": "error"
    },
    {
      "inputs": [
        {
          "internalType": "uint256",
          "name": "tokenId",
          "type": "uint256"
        }
      ],
      "name": "RemovalAlreadySoldOrConsigned",
      "type": "error"
    },
    {
      "inputs": [
        {
          "internalType": "uint256",
          "name": "tokenId",
          "type": "uint256"
        }
      ],
      "name": "RemovalNotYetMinted",
      "type": "error"
    },
    {
      "inputs": [
        {
          "internalType": "bytes2",
          "name": "country",
          "type": "bytes2"
        },
        {
          "internalType": "bytes2",
          "name": "subdivision",
          "type": "bytes2"
        }
      ],
      "name": "UncapitalizedString",
      "type": "error"
    },
    {
      "inputs": [
        {
          "internalType": "uint8",
          "name": "idVersion",
          "type": "uint8"
        }
      ],
      "name": "UnsupportedIdVersion",
      "type": "error"
    },
    {
      "anonymous": false,
      "inputs": [
        {
          "indexed": true,
          "internalType": "address",
          "name": "account",
          "type": "address"
        },
        {
          "indexed": true,
          "internalType": "address",
          "name": "operator",
          "type": "address"
        },
        {
          "indexed": false,
          "internalType": "bool",
          "name": "approved",
          "type": "bool"
        }
      ],
      "name": "ApprovalForAll",
      "type": "event"
    },
    {
      "anonymous": false,
      "inputs": [
        {
          "indexed": false,
          "internalType": "uint8",
          "name": "version",
          "type": "uint8"
        }
      ],
      "name": "Initialized",
      "type": "event"
    },
    {
      "anonymous": false,
      "inputs": [
        {
          "indexed": true,
          "internalType": "address",
          "name": "certificateRecipient",
          "type": "address"
        },
        {
          "indexed": true,
          "internalType": "uint256",
          "name": "certificateAmount",
          "type": "uint256"
        },
        {
          "indexed": true,
          "internalType": "uint256",
          "name": "certificateId",
          "type": "uint256"
        },
        {
          "indexed": false,
          "internalType": "uint256[]",
          "name": "removalIds",
          "type": "uint256[]"
        },
        {
          "indexed": false,
          "internalType": "uint256[]",
          "name": "removalAmounts",
          "type": "uint256[]"
        }
      ],
      "name": "Migrate",
      "type": "event"
    },
    {
      "anonymous": false,
      "inputs": [
        {
          "indexed": false,
          "internalType": "address",
          "name": "account",
          "type": "address"
        }
      ],
      "name": "Paused",
      "type": "event"
    },
    {
      "anonymous": false,
      "inputs": [
        {
          "indexed": false,
          "internalType": "contract IMarket",
          "name": "market",
          "type": "address"
        },
        {
          "indexed": false,
          "internalType": "contract ICertificate",
          "name": "certificate",
          "type": "address"
        }
      ],
      "name": "RegisterContractAddresses",
      "type": "event"
    },
    {
      "anonymous": false,
      "inputs": [
        {
          "indexed": true,
          "internalType": "uint256",
          "name": "id",
          "type": "uint256"
        },
        {
          "indexed": true,
          "internalType": "address",
          "name": "fromAddress",
          "type": "address"
        },
        {
          "indexed": false,
          "internalType": "uint256",
          "name": "amount",
          "type": "uint256"
        }
      ],
      "name": "ReleaseRemoval",
      "type": "event"
    },
    {
      "anonymous": false,
      "inputs": [
        {
          "indexed": true,
          "internalType": "bytes32",
          "name": "role",
          "type": "bytes32"
        },
        {
          "indexed": true,
          "internalType": "bytes32",
          "name": "previousAdminRole",
          "type": "bytes32"
        },
        {
          "indexed": true,
          "internalType": "bytes32",
          "name": "newAdminRole",
          "type": "bytes32"
        }
      ],
      "name": "RoleAdminChanged",
      "type": "event"
    },
    {
      "anonymous": false,
      "inputs": [
        {
          "indexed": true,
          "internalType": "bytes32",
          "name": "role",
          "type": "bytes32"
        },
        {
          "indexed": true,
          "internalType": "address",
          "name": "account",
          "type": "address"
        },
        {
          "indexed": true,
          "internalType": "address",
          "name": "sender",
          "type": "address"
        }
      ],
      "name": "RoleGranted",
      "type": "event"
    },
    {
      "anonymous": false,
      "inputs": [
        {
          "indexed": true,
          "internalType": "bytes32",
          "name": "role",
          "type": "bytes32"
        },
        {
          "indexed": true,
          "internalType": "address",
          "name": "account",
          "type": "address"
        },
        {
          "indexed": true,
          "internalType": "address",
          "name": "sender",
          "type": "address"
        }
      ],
      "name": "RoleRevoked",
      "type": "event"
    },
    {
      "anonymous": false,
      "inputs": [
        {
          "indexed": false,
          "internalType": "uint256",
          "name": "projectId",
          "type": "uint256"
        },
        {
          "indexed": false,
          "internalType": "uint8",
          "name": "holdbackPercentage",
          "type": "uint8"
        }
      ],
      "name": "SetHoldbackPercentage",
      "type": "event"
    },
    {
      "anonymous": false,
      "inputs": [
        {
          "indexed": true,
          "internalType": "address",
          "name": "operator",
          "type": "address"
        },
        {
          "indexed": true,
          "internalType": "address",
          "name": "from",
          "type": "address"
        },
        {
          "indexed": true,
          "internalType": "address",
          "name": "to",
          "type": "address"
        },
        {
          "indexed": false,
          "internalType": "uint256[]",
          "name": "ids",
          "type": "uint256[]"
        },
        {
          "indexed": false,
          "internalType": "uint256[]",
          "name": "values",
          "type": "uint256[]"
        }
      ],
      "name": "TransferBatch",
      "type": "event"
    },
    {
      "anonymous": false,
      "inputs": [
        {
          "indexed": true,
          "internalType": "address",
          "name": "operator",
          "type": "address"
        },
        {
          "indexed": true,
          "internalType": "address",
          "name": "from",
          "type": "address"
        },
        {
          "indexed": true,
          "internalType": "address",
          "name": "to",
          "type": "address"
        },
        {
          "indexed": false,
          "internalType": "uint256",
          "name": "id",
          "type": "uint256"
        },
        {
          "indexed": false,
          "internalType": "uint256",
          "name": "value",
          "type": "uint256"
        }
      ],
      "name": "TransferSingle",
      "type": "event"
    },
    {
      "anonymous": false,
      "inputs": [
        {
          "indexed": false,
          "internalType": "string",
          "name": "value",
          "type": "string"
        },
        {
          "indexed": true,
          "internalType": "uint256",
          "name": "id",
          "type": "uint256"
        }
      ],
      "name": "URI",
      "type": "event"
    },
    {
      "anonymous": false,
      "inputs": [
        {
          "indexed": false,
          "internalType": "address",
          "name": "account",
          "type": "address"
        }
      ],
      "name": "Unpaused",
      "type": "event"
    },
    {
      "inputs": [],
      "name": "CONSIGNOR_ROLE",
      "outputs": [
        {
          "internalType": "bytes32",
          "name": "",
          "type": "bytes32"
        }
      ],
      "stateMutability": "view",
      "type": "function"
    },
    {
      "inputs": [],
      "name": "DEFAULT_ADMIN_ROLE",
      "outputs": [
        {
          "internalType": "bytes32",
          "name": "",
          "type": "bytes32"
        }
      ],
      "stateMutability": "view",
      "type": "function"
    },
    {
      "inputs": [],
      "name": "PAUSER_ROLE",
      "outputs": [
        {
          "internalType": "bytes32",
          "name": "",
          "type": "bytes32"
        }
      ],
      "stateMutability": "view",
      "type": "function"
    },
    {
      "inputs": [],
      "name": "RELEASER_ROLE",
      "outputs": [
        {
          "internalType": "bytes32",
          "name": "",
          "type": "bytes32"
        }
      ],
      "stateMutability": "view",
      "type": "function"
    },
    {
      "inputs": [
        {
          "internalType": "address",
          "name": "to",
          "type": "address"
        },
        {
          "internalType": "uint256[]",
          "name": "amounts",
          "type": "uint256[]"
        },
        {
          "internalType": "uint256[]",
          "name": "ids",
          "type": "uint256[]"
        }
      ],
      "name": "addBalance",
      "outputs": [],
      "stateMutability": "nonpayable",
      "type": "function"
    },
    {
      "inputs": [
        {
          "internalType": "address",
          "name": "account",
          "type": "address"
        },
        {
          "internalType": "uint256",
          "name": "id",
          "type": "uint256"
        }
      ],
      "name": "balanceOf",
      "outputs": [
        {
          "internalType": "uint256",
          "name": "",
          "type": "uint256"
        }
      ],
      "stateMutability": "view",
      "type": "function"
    },
    {
      "inputs": [
        {
          "internalType": "address[]",
          "name": "accounts",
          "type": "address[]"
        },
        {
          "internalType": "uint256[]",
          "name": "ids",
          "type": "uint256[]"
        }
      ],
      "name": "balanceOfBatch",
      "outputs": [
        {
          "internalType": "uint256[]",
          "name": "",
          "type": "uint256[]"
        }
      ],
      "stateMutability": "view",
      "type": "function"
    },
    {
      "inputs": [
        {
          "internalType": "address",
          "name": "from",
          "type": "address"
        },
        {
          "internalType": "uint256",
          "name": "id",
          "type": "uint256"
        },
        {
          "internalType": "uint256",
          "name": "amount",
          "type": "uint256"
        }
      ],
      "name": "consign",
      "outputs": [],
      "stateMutability": "nonpayable",
      "type": "function"
    },
    {
      "inputs": [
        {
          "internalType": "uint256",
          "name": "id",
          "type": "uint256"
        }
      ],
      "name": "decodeRemovalIdV0",
      "outputs": [
        {
          "components": [
            {
              "internalType": "uint8",
              "name": "idVersion",
              "type": "uint8"
            },
            {
              "internalType": "uint8",
              "name": "methodology",
              "type": "uint8"
            },
            {
              "internalType": "uint8",
              "name": "methodologyVersion",
              "type": "uint8"
            },
            {
              "internalType": "uint16",
              "name": "vintage",
              "type": "uint16"
            },
            {
              "internalType": "bytes2",
              "name": "country",
              "type": "bytes2"
            },
            {
              "internalType": "bytes2",
              "name": "subdivision",
              "type": "bytes2"
            },
            {
              "internalType": "address",
              "name": "supplierAddress",
              "type": "address"
            },
            {
              "internalType": "uint32",
              "name": "subIdentifier",
              "type": "uint32"
            }
          ],
          "internalType": "struct DecodedRemovalIdV0",
          "name": "",
          "type": "tuple"
        }
      ],
      "stateMutability": "pure",
      "type": "function"
    },
    {
      "inputs": [
        {
          "internalType": "uint256",
          "name": "id",
          "type": "uint256"
        }
      ],
      "name": "exists",
      "outputs": [
        {
          "internalType": "bool",
          "name": "",
          "type": "bool"
        }
      ],
      "stateMutability": "view",
      "type": "function"
    },
    {
      "inputs": [],
      "name": "getCertificateAddress",
      "outputs": [
        {
          "internalType": "address",
          "name": "",
          "type": "address"
        }
      ],
      "stateMutability": "view",
      "type": "function"
    },
    {
      "inputs": [
        {
          "internalType": "uint256",
          "name": "id",
          "type": "uint256"
        }
      ],
      "name": "getHoldbackPercentage",
      "outputs": [
        {
          "internalType": "uint8",
          "name": "",
          "type": "uint8"
        }
      ],
      "stateMutability": "view",
      "type": "function"
    },
    {
      "inputs": [],
      "name": "getMarketAddress",
      "outputs": [
        {
          "internalType": "address",
          "name": "",
          "type": "address"
        }
      ],
      "stateMutability": "view",
      "type": "function"
    },
    {
      "inputs": [],
      "name": "getMarketBalance",
      "outputs": [
        {
          "internalType": "uint256",
          "name": "",
          "type": "uint256"
        }
      ],
      "stateMutability": "view",
      "type": "function"
    },
    {
      "inputs": [
        {
          "internalType": "address",
          "name": "owner",
          "type": "address"
        }
      ],
      "name": "getOwnedTokenIds",
      "outputs": [
        {
          "internalType": "uint256[]",
          "name": "",
          "type": "uint256[]"
        }
      ],
      "stateMutability": "view",
      "type": "function"
    },
    {
      "inputs": [
        {
          "internalType": "uint256",
          "name": "id",
          "type": "uint256"
        }
      ],
      "name": "getProjectId",
      "outputs": [
        {
          "internalType": "uint256",
          "name": "",
          "type": "uint256"
        }
      ],
      "stateMutability": "view",
      "type": "function"
    },
    {
      "inputs": [
        {
          "internalType": "bytes32",
          "name": "role",
          "type": "bytes32"
        }
      ],
      "name": "getRoleAdmin",
      "outputs": [
        {
          "internalType": "bytes32",
          "name": "",
          "type": "bytes32"
        }
      ],
      "stateMutability": "view",
      "type": "function"
    },
    {
      "inputs": [
        {
          "internalType": "bytes32",
          "name": "role",
          "type": "bytes32"
        },
        {
          "internalType": "uint256",
          "name": "index",
          "type": "uint256"
        }
      ],
      "name": "getRoleMember",
      "outputs": [
        {
          "internalType": "address",
          "name": "",
          "type": "address"
        }
      ],
      "stateMutability": "view",
      "type": "function"
    },
    {
      "inputs": [
        {
          "internalType": "bytes32",
          "name": "role",
          "type": "bytes32"
        }
      ],
      "name": "getRoleMemberCount",
      "outputs": [
        {
          "internalType": "uint256",
          "name": "",
          "type": "uint256"
        }
      ],
      "stateMutability": "view",
      "type": "function"
    },
    {
      "inputs": [
        {
          "internalType": "bytes32",
          "name": "role",
          "type": "bytes32"
        },
        {
          "internalType": "address",
          "name": "account",
          "type": "address"
        }
      ],
      "name": "grantRole",
      "outputs": [],
      "stateMutability": "nonpayable",
      "type": "function"
    },
    {
      "inputs": [
        {
          "internalType": "bytes32",
          "name": "role",
          "type": "bytes32"
        },
        {
          "internalType": "address",
          "name": "account",
          "type": "address"
        }
      ],
      "name": "hasRole",
      "outputs": [
        {
          "internalType": "bool",
          "name": "",
          "type": "bool"
        }
      ],
      "stateMutability": "view",
      "type": "function"
    },
    {
      "inputs": [
        {
          "internalType": "string",
          "name": "baseURI",
          "type": "string"
        }
      ],
      "name": "initialize",
      "outputs": [],
      "stateMutability": "nonpayable",
      "type": "function"
    },
    {
      "inputs": [
        {
          "internalType": "address",
          "name": "account",
          "type": "address"
        },
        {
          "internalType": "address",
          "name": "operator",
          "type": "address"
        }
      ],
      "name": "isApprovedForAll",
      "outputs": [
        {
          "internalType": "bool",
          "name": "",
          "type": "bool"
        }
      ],
      "stateMutability": "view",
      "type": "function"
    },
    {
      "inputs": [
        {
          "internalType": "uint256[]",
          "name": "ids",
          "type": "uint256[]"
        },
        {
          "internalType": "uint256[]",
          "name": "amounts",
          "type": "uint256[]"
        },
        {
          "internalType": "address",
          "name": "certificateRecipient",
          "type": "address"
        },
        {
          "internalType": "uint256",
          "name": "certificateAmount",
          "type": "uint256"
        }
      ],
      "name": "migrate",
      "outputs": [],
      "stateMutability": "nonpayable",
      "type": "function"
    },
    {
      "inputs": [
        {
          "internalType": "address",
          "name": "to",
          "type": "address"
        },
        {
          "internalType": "uint256[]",
          "name": "amounts",
          "type": "uint256[]"
        },
        {
          "components": [
            {
              "internalType": "uint8",
              "name": "idVersion",
              "type": "uint8"
            },
            {
              "internalType": "uint8",
              "name": "methodology",
              "type": "uint8"
            },
            {
              "internalType": "uint8",
              "name": "methodologyVersion",
              "type": "uint8"
            },
            {
              "internalType": "uint16",
              "name": "vintage",
              "type": "uint16"
            },
            {
              "internalType": "bytes2",
              "name": "country",
              "type": "bytes2"
            },
            {
              "internalType": "bytes2",
              "name": "subdivision",
              "type": "bytes2"
            },
            {
              "internalType": "address",
              "name": "supplierAddress",
              "type": "address"
            },
            {
              "internalType": "uint32",
              "name": "subIdentifier",
              "type": "uint32"
            }
          ],
          "internalType": "struct DecodedRemovalIdV0[]",
          "name": "removals",
          "type": "tuple[]"
        },
        {
          "internalType": "uint256",
          "name": "projectId",
          "type": "uint256"
        },
        {
          "internalType": "uint256",
          "name": "scheduleStartTime",
          "type": "uint256"
        },
        {
          "internalType": "uint8",
          "name": "holdbackPercentage",
          "type": "uint8"
        }
      ],
      "name": "mintBatch",
      "outputs": [],
      "stateMutability": "nonpayable",
      "type": "function"
    },
    {
      "inputs": [
        {
          "internalType": "bytes[]",
          "name": "data",
          "type": "bytes[]"
        }
      ],
      "name": "multicall",
      "outputs": [
        {
          "internalType": "bytes[]",
          "name": "results",
          "type": "bytes[]"
        }
      ],
      "stateMutability": "nonpayable",
      "type": "function"
    },
    {
      "inputs": [
        {
          "internalType": "address",
          "name": "account",
          "type": "address"
        }
      ],
      "name": "numberOfTokensOwnedByAddress",
      "outputs": [
        {
          "internalType": "uint256",
          "name": "",
          "type": "uint256"
        }
      ],
      "stateMutability": "view",
      "type": "function"
    },
    {
      "inputs": [],
      "name": "pause",
      "outputs": [],
      "stateMutability": "nonpayable",
      "type": "function"
    },
    {
      "inputs": [],
      "name": "paused",
      "outputs": [
        {
          "internalType": "bool",
          "name": "",
          "type": "bool"
        }
      ],
      "stateMutability": "view",
      "type": "function"
    },
    {
      "inputs": [
        {
          "internalType": "contract IMarket",
          "name": "market",
          "type": "address"
        },
        {
          "internalType": "contract ICertificate",
          "name": "certificate",
          "type": "address"
        }
      ],
      "name": "registerContractAddresses",
      "outputs": [],
      "stateMutability": "nonpayable",
      "type": "function"
    },
    {
      "inputs": [
        {
          "internalType": "uint256",
          "name": "id",
          "type": "uint256"
        },
        {
          "internalType": "uint256",
          "name": "amount",
          "type": "uint256"
        }
      ],
      "name": "release",
      "outputs": [],
      "stateMutability": "nonpayable",
      "type": "function"
    },
    {
      "inputs": [
        {
          "internalType": "bytes32",
          "name": "role",
          "type": "bytes32"
        },
        {
          "internalType": "address",
          "name": "account",
          "type": "address"
        }
      ],
      "name": "renounceRole",
      "outputs": [],
      "stateMutability": "nonpayable",
      "type": "function"
    },
    {
      "inputs": [
        {
          "internalType": "bytes32",
          "name": "role",
          "type": "bytes32"
        },
        {
          "internalType": "address",
          "name": "account",
          "type": "address"
        }
      ],
      "name": "revokeRole",
      "outputs": [],
      "stateMutability": "nonpayable",
      "type": "function"
    },
    {
      "inputs": [
        {
          "internalType": "address",
          "name": "from",
          "type": "address"
        },
        {
          "internalType": "address",
          "name": "to",
          "type": "address"
        },
        {
          "internalType": "uint256[]",
          "name": "ids",
          "type": "uint256[]"
        },
        {
          "internalType": "uint256[]",
          "name": "amounts",
          "type": "uint256[]"
        },
        {
          "internalType": "bytes",
          "name": "data",
          "type": "bytes"
        }
      ],
      "name": "safeBatchTransferFrom",
      "outputs": [],
      "stateMutability": "nonpayable",
      "type": "function"
    },
    {
      "inputs": [
        {
          "internalType": "address",
          "name": "from",
          "type": "address"
        },
        {
          "internalType": "address",
          "name": "to",
          "type": "address"
        },
        {
          "internalType": "uint256",
          "name": "id",
          "type": "uint256"
        },
        {
          "internalType": "uint256",
          "name": "amount",
          "type": "uint256"
        },
        {
          "internalType": "bytes",
          "name": "data",
          "type": "bytes"
        }
      ],
      "name": "safeTransferFrom",
      "outputs": [],
      "stateMutability": "nonpayable",
      "type": "function"
    },
    {
      "inputs": [
        {
          "internalType": "address",
          "name": "operator",
          "type": "address"
        },
        {
          "internalType": "bool",
          "name": "approved",
          "type": "bool"
        }
      ],
      "name": "setApprovalForAll",
      "outputs": [],
      "stateMutability": "nonpayable",
      "type": "function"
    },
    {
      "inputs": [
        {
          "internalType": "uint256",
          "name": "projectId",
          "type": "uint256"
        },
        {
          "internalType": "uint8",
          "name": "holdbackPercentage",
          "type": "uint8"
        }
      ],
      "name": "setHoldbackPercentage",
      "outputs": [],
      "stateMutability": "nonpayable",
      "type": "function"
    },
    {
      "inputs": [
        {
          "internalType": "bytes4",
          "name": "interfaceId",
          "type": "bytes4"
        }
      ],
      "name": "supportsInterface",
      "outputs": [
        {
          "internalType": "bool",
          "name": "",
          "type": "bool"
        }
      ],
      "stateMutability": "view",
      "type": "function"
    },
    {
      "inputs": [
        {
          "internalType": "uint256",
          "name": "id",
          "type": "uint256"
        }
      ],
      "name": "totalSupply",
      "outputs": [
        {
          "internalType": "uint256",
          "name": "",
          "type": "uint256"
        }
      ],
      "stateMutability": "view",
      "type": "function"
    },
    {
      "inputs": [],
      "name": "unpause",
      "outputs": [],
      "stateMutability": "nonpayable",
      "type": "function"
    },
    {
      "inputs": [
        {
          "internalType": "uint256",
          "name": "",
          "type": "uint256"
        }
      ],
      "name": "uri",
      "outputs": [
        {
          "internalType": "string",
          "name": "",
          "type": "string"
        }
      ],
      "stateMutability": "view",
      "type": "function"
    }
  ],
  "numDeployments": 17,
  "bytecode": "0x60808060405234620000c6576000549060ff8260081c1662000074575060ff8082161062000038575b604051614e399081620000cc8239f35b60ff90811916176000557f7f26b83ff96e1f2b6a682f133852f6798a09c465da95921460cefb3847402498602060405160ff8152a13862000028565b62461bcd60e51b815260206004820152602760248201527f496e697469616c697a61626c653a20636f6e747261637420697320696e697469604482015266616c697a696e6760c81b6064820152608490fd5b600080fdfe6080604052600436101561001257600080fd5b6000803560e01c8062fdd58e1461279957806301ffc9a7146126f657806304bcaa68146125265780630e89341c14612445578063248a9ca3146124185780632eb2c2d61461234d5780632f2ff15d1461228857806334697f45146121ad57806336568abe1461208f578063366a412014611b155780633d932dfb14611aea5780633f4ba83a14611a4c57806342c6281d1461195e5780634e1273f4146117cf5780634f558e79146117a35780634fac7e41146117175780635c975abb146116f45780636b425fc814611660578063789e8cdf146116275780638456cb59146115cc5780639010d07c1461158657806391d148541461153957806393ae796d1461148b578063964eec701461146c578063a217fddf14611450578063a22cb4651461134f578063ac28af2414611314578063ac9650d8146110b7578063b3eeaf361461107c578063b776d33314611043578063bd85b03914611019578063c48c010514610fde578063ca15c87314610fb3578063ca96535714610a01578063d547741f14610937578063e63ab1e9146108fc578063e7334fe5146108d4578063e7f78c72146108ac578063e985e9c514610857578063f242432a1461079f5763f62d1888146101df57600080fd5b3461079c576020806003193601126107985767ffffffffffffffff906004358281116107945736602382011215610794576102249036906024816004013591016129ad565b91835460ff808260081c161592838094610788575b8015610772575b156107075760019560ff19938588868316178a556106f6575b506102b483895460081c1661026d81613455565b61027681613455565b6102af6024604051856102938c839851928184928601910161283a565b8101637b69647d60e01b8c8201520360048101865201846128eb565b613455565b80519182116106e25781906102ca609954612fa3565b601f8111610672575b508690601f83116001146105f35789926105e8575b5050600019600383901b1c191690861b176099555b61033381875460081c1661031081613455565b836033541660335561032181613455565b61032a81613455565b6102af81613455565b61033b61327b565b85805260fb918285526040872033600052855281604060002054161561059f575b86805261012d928386526103733360408a206132cc565b5061037c61327b565b7f65d7a28e3265b37a6474929f336521b332c1681b933f6cb9f3376673440d862a80895281875260408920336000528752836040600020541615610556575b88528386526103cd3360408a206132cc565b506103d661327b565b7fa269776b75ac4c5fa422bb11bec3ed3cee626848d07687372583174b209261fb8089528187526040892033600052875283604060002054161561050d575b88528386526104273360408a206132cc565b5061043061327b565b7f88f3509f0e42391f2d94ebfb2a37cbd0782b1b8f73715330017f4663290b8117928389528187526040892033600052875260406000205416156104c3575b50508552825261048233604086206132cc565b5061048b578280f35b825461ff00191683556040519182527f7f26b83ff96e1f2b6a682f133852f6798a09c465da95921460cefb384740249891a138808280f35b828852855260408720336000528552856040600020918254161790553333827f2f8788117e7eff1d82e926ec794901d17c78024a50270940304540a733656f0d8980a4388061046f565b80895281875260408920336000528752604060002088848254161790553333827f2f8788117e7eff1d82e926ec794901d17c78024a50270940304540a733656f0d8c80a4610415565b80895281875260408920336000528752604060002088848254161790553333827f2f8788117e7eff1d82e926ec794901d17c78024a50270940304540a733656f0d8c80a46103bb565b86805282855260408720336000528552604060002086828254161790553333887f2f8788117e7eff1d82e926ec794901d17c78024a50270940304540a733656f0d8180a461035c565b0151905038806102e8565b60998a528893507f72a152ddfb8e864297c917af52ea6c1c68aead0fee1a62673fcc7e0c94979d009190601f1984168b5b8a82821061065c5750508411610643575b505050811b016099556102fd565b015160001960f88460031b161c19169055388080610635565b8385015186558c97909501949384019301610624565b909150609989527f72a152ddfb8e864297c917af52ea6c1c68aead0fee1a62673fcc7e0c94979d00601f840160051c8101918885106106d8575b84939291601f8b920160051c01915b8281106106c95750506102d3565b600081558594508a91016106bb565b90915081906106ac565b634e487b7160e01b88526041600452602488fd5b61ffff191661010117885538610259565b60405162461bcd60e51b815260048101869052602e60248201527f496e697469616c697a61626c653a20636f6e747261637420697320616c72656160448201527f647920696e697469616c697a65640000000000000000000000000000000000006064820152608490fd5b50303b1580156102405750600182841614610240565b50600182841610610239565b8380fd5b5080fd5b80fd5b503461079c5760a036600319011261079c576107b96127c9565b6107c16127df565b60843567ffffffffffffffff8111610794576107e19036906004016129e4565b906001600160a01b039283610191541633036108455761081e9381163381148015610821575b6108119150614886565b6064359160443591613c92565b80f35b5085526098602052604085203360005260205261081160ff60406000205416610807565b604051631d9d0a4f60e31b8152600490fd5b503461079c57604036600319011261079c576108716127c9565b604061087b6127df565b926001600160a01b0380931681526098602052209116600052602052602060ff604060002054166040519015158152f35b503461079c578060031936011261079c5760206001600160a01b036101925416604051908152f35b503461079c578060031936011261079c5760206001600160a01b036101915416604051908152f35b503461079c578060031936011261079c5760206040517f65d7a28e3265b37a6474929f336521b332c1681b933f6cb9f3376673440d862a8152f35b503461079c57604036600319011261079c576109b360043561012d61095a6127df565b9180855260209060fb82526109756001604088200154612e98565b61097d61327b565b80865260fb82526001600160a01b036040872094169384600052825260ff604060002054166109b7575b85525260408320613365565b5080f35b80865260fb825260408620846000528252604060002060ff1981541690553384827ff6391f5c32d9c69d2a47ea670b442974b53935d1edc7fd64eb21e047a839171b8980a46109a7565b503461079c5760c036600319011261079c57610a1b6127c9565b60243567ffffffffffffffff8111610c3d57610a3b903690600401612809565b67ffffffffffffffff60449392933511610794573660236044350112156107945767ffffffffffffffff6044356004013511610794573660246044356004013560081b6044350101116107945760ff60a4351660a43503610fae57610a9e612a41565b610aad60443560040135613075565b90845b604435600401358110610c805750610af193610adb91610ad460a4356064356148f8565b3691612925565b9060405192610ae9846128b3565b85845261358b565b6001600160a01b038061019154169060405180926385d3d64b60e01b825281600460209586935afa908115610c48578491610c53575b50169060405163149630df60e31b815260643560048201528181602481865afa918215610c48578492610c0d575b505015610b60575080f35b6044356004013515610bf9578190610b7b60448035016134e6565b90610b8a6064604435016134e6565b91813b15610bf457608460ff918580948460405197889687956355135b6760e01b87526064356004880152873560248801521660448601521660648401525af18015610be957610bd957505080f35b610be290612882565b61079c5780f35b6040513d84823e3d90fd5b505050fd5b634e487b7160e01b82526032600452602482fd5b90809250813d8311610c41575b610c2481836128eb565b81010312610c3d57518015158103610c3d573880610b55565b8280fd5b503d610c1a565b6040513d86823e3d90fd5b610c739150833d8511610c79575b610c6b81836128eb565b8101906134c7565b38610b27565b503d610c61565b6101006023198260081b6044350136030112610faa576040518061010081011067ffffffffffffffff61010083011117610f94576101008101604052610ccf60248360081b6044350101612a33565b808252610ce460448460081b81350101612a33565b6020830152610cfc60648460081b6044350101612a33565b604083015260848360081b60443501013561ffff81168103610f90576060830152610d3060a48460081b6044350101614966565b6080830152610d4860c48460081b6044350101614966565b60a0830152610d6060e48460081b60443501016127f5565b60c0830152604435600884901b01610104013563ffffffff81169003610f8c5760ff906101048460081b60443501013560e08401521680610f74575060ff604082015116600f8111610f5c575060ff602082015116600f8111610f44575061ffff60f01b8060808301511690610def828060001a9060011a605b6040821191101690605b604082119110161690565b80610f15575b15610ef357505063ffffffff60e060f080602085015160041b1660ff6040860151161760ff60f81b855160f81b1661ffff841b6060870151851b16917bffff0000000000000000000000000000000000000000000000000000608088015160201c16931b17171779ffff00000000000000000000000000000000000000000000000060a085015160301c161777ffffffffffffffffffffffffffffffffffffffff0000000060c085015160201b16179201511617908187526101946020526040872054610ee1578160019288526101946020526064356040892055610eda82866130cc565b5201610ab0565b604051635cb045db60e01b8152600490fd5b60a0604493015116604051916381036ebb60e01b835260048301526024820152fd5b50610f3f8160a0850151168060001a9060011a605b6040821191101690605b604082119110161690565b610df5565b602490604051906346ac6e0f60e01b82526004820152fd5b602490604051906324b1529d60e11b82526004820152fd5b60249060405190633e60769b60e21b82526004820152fd5b8780fd5b8880fd5b634e487b7160e01b600052604160045260246000fd5b8580fd5b600080fd5b503461079c57602036600319011261079c576040602091600435815261012d83522054604051908152f35b503461079c578060031936011261079c5760206040517fa269776b75ac4c5fa422bb11bec3ed3cee626848d07687372583174b209261fb8152f35b503461079c57602036600319011261079c576040602091600435815260c983522054604051908152f35b503461079c57602036600319011261079c5760ff6040602092600435815261019484528181205481526101938452205416604051908152f35b503461079c57604036600319011261079c5760243560ff81168103610fae5761081e906110a761327b565b6110af612d74565b6004356148f8565b503461079c576020806003193601126107985767ffffffffffffffff60043581811161079457906110ed84923690600401612809565b90916110f88261290d565b9261110660405194856128eb565b828452601f196111158461290d565b01855b818110611305575050845b83811061118a575050505060405191838301848452825180915260408401948060408360051b870101940192955b82871061115e5785850386f35b90919293828061117a600193603f198a8203018652885161285d565b9601920196019592919092611151565b8060059796971b820135601e1983360301811215610f8c578201803590848211610f905787018136038113610f90576111c49136916129ad565b303b1561129a578781888293519101305af4903d15611293573d6111e781612991565b906111f560405192836128eb565b81523d898983013e5b604051606081019181831087841117610f945761128b9461127093604052602783527f416464726573733a206c6f772d6c6576656c2064656c65676174652063616c6c8b8401527f206661696c65640000000000000000000000000000000000000000000000000060408401526130f6565b61127a82886130cc565b5261128581876130cc565b506130a7565b959495611123565b60606111fe565b60405162461bcd60e51b815260048101889052602660248201527f416464726573733a2064656c65676174652063616c6c20746f206e6f6e2d636f60448201527f6e747261637400000000000000000000000000000000000000000000000000006064820152608490fd5b60608682018901528701611118565b503461079c578060031936011261079c5760206040517f88f3509f0e42391f2d94ebfb2a37cbd0782b1b8f73715330017f4663290b81178152f35b503461079c57604036600319011261079c576113696127c9565b60243590811515809203610c3d576001600160a01b039061138861327b565b16908133146113e55733835260986020526040832082600052602052604060002060ff1981541660ff83161790556040519081527f17307eab39ab6107e8899845ad3d59bd9653f200f220920489ca2b5937696c3160203392a380f35b60405162461bcd60e51b815260206004820152602960248201527f455243313135353a2073657474696e6720617070726f76616c2073746174757360448201527f20666f722073656c6600000000000000000000000000000000000000000000006064820152608490fd5b503461079c578060031936011261079c57602090604051908152f35b503461079c578060031936011261079c57602061019654604051908152f35b503461079c57604036600319011261079c576004356001600160a01b03808216809203610c3d57602435908116809103610c3d577fa948457069516ab10917665b0b5d6b8043d77b39f57ca760ef0d3d4104277547916040916114ec61327b565b6114f4612d74565b7fffffffffffffffffffffffff00000000000000000000000000000000000000006101918382825416179055816101929182541617905582519182526020820152a180f35b503461079c57604036600319011261079c576001600160a01b03604061155d6127df565b92600435815260fb602052209116600052602052602060ff604060002054166040519015158152f35b503461079c57604036600319011261079c576001600160a01b036115bc602092600435815261012d845260406024359120613263565b9190546040519260031b1c168152f35b503461079c578060031936011261079c576115e5612c2f565b6115ed61327b565b600160ff1960335416176033557f62e78cea01bee320cd4e420270b5ea74000d11b0c9f74754ebdbfc544b05a2586020604051338152a180f35b503461079c57602036600319011261079c5760406020916001600160a01b0361164e6127c9565b16815261019583522054604051908152f35b503461079c57606036600319011261079c5761167a6127c9565b60243590611686612a41565b6001600160a01b038061019254168183169081149081156116e5575b506116cc579061081e9291610191541691604051926116c0846128b3565b85845260443592613c92565b60405163094f4a6b60e31b815260048101849052602490fd5b905081610191541614386116a2565b503461079c578060031936011261079c57602060ff603354166040519015158152f35b503461079c57602080600319360112610798576001600160a01b0361173a6127c9565b16825261019581526040822091604051809384918482549182815201918452848420935b8582821061178d57505050611775925003836128eb565b6117896040519282849384528301906129ff565b0390f35b855484526001958601958895509301920161175e565b503461079c57602036600319011261079c576040602091600435815260c9835220541515604051908152f35b503461079c57604036600319011261079c5767ffffffffffffffff600435818111610c3d5736602382011215610c3d5780600401359161180e8361290d565b9161181c60405193846128eb565b83835260209360248585019160051b8301019136831161195a576024869101915b838310611942575050505060243590811161079457611860903690600401612973565b9080518251036118d7576118748151613075565b935b81518110156118c057806118ab6001600160a01b036118986118bb94866130cc565b51166118a483876130cc565b5190612fdd565b6118b582886130cc565b526130a7565b611876565b5050506117896040519282849384528301906129ff565b60405162461bcd60e51b815260048101849052602960248201527f455243313135353a206163636f756e747320616e6420696473206c656e67746860448201527f206d69736d6174636800000000000000000000000000000000000000000000006064820152608490fd5b819061194d846127f5565b815201910190859061183d565b8680fd5b503461079c57602036600319011261079c5760043561197b614848565b50611984614848565b508060f81c9060405161199681612896565b82815260208101908260f41c600f168252604081018360f01c600f1681526060820161ffff90818660e01c168152608084019161ffff60f01b928391828960201b16825260a0870193838a60301b16855260c08801966001600160a01b0398898c60201c16895260e0019963ffffffff809c168b526040519c8d525160ff1660208d01525160ff1660408c0152511660608a015251166080880152511660a0860152511660c0840152511660e082015261010090f35b503461079c578060031936011261079c57611a65612c2f565b60335460ff811615611aa55760ff19166033557f5db9ee0a495bf2e6ff9c91a7834c1ba4fdd244a5e8aa4e537bd38aeae4b073aa6020604051338152a180f35b60405162461bcd60e51b815260206004820152601460248201527f5061757361626c653a206e6f74207061757365640000000000000000000000006044820152606490fd5b503461079c57602036600319011261079c576040602091600435815261019483522054604051908152f35b503461079c57604036600319011261079c576004356024908135907f88f3509f0e42391f2d94ebfb2a37cbd0782b1b8f73715330017f4663290b81179283855260209360fb855260408620338752855260ff60408720541615611eb8575084916001600160a01b03948582821c16611b8d8382612fdd565b80611e65575b5050848410611ba0578680f35b60405163e7334fe560e01b808252908281600481305afa908115611d2757611bd19185918b91611d0a575b50612fdd565b80611d32575b5050848410611be4578680f35b6040516373fbc63960e11b808252908281600481305afa908115611d2757611c149185918b91611d0a5750612fdd565b611c1d57508680f35b87611c3286611c2c818a613358565b98613358565b946040519283528383600481305afa928315610be9578293611ceb575b50611c5b868685614993565b88610192541690813b15610c3d578291829160405180948193633cfe604560e11b83528b60048401525af18015610be957611cd3575b505090611cc8967fa76ba9683000f0598aec5ed73132d1bdb673107c3e609fcbff0dfb9296467c43926040519586521693a3613136565b503880808080808680f35b611cdf90939293612882565b610f8c57908738611c91565b611d03919350843d8611610c7957610c6b81836128eb565b9138611c4f565b611d219150853d8711610c7957610c6b81836128eb565b38611bcb565b6040513d8b823e3d90fd5b611d40868897939497613358565b9080821015611e5d5750905b6040518381528681600481305afa8015611e3557858491611d74938d91611e40575b50614993565b88886101915416803b1561079857819087604051809481936337bdc99b60e01b83528a60048401525af18015611e3557611e22575b506040519283528583600481305afa8015611d2757611dfd938a91611e05575b50847fa76ba9683000f0598aec5ed73132d1bdb673107c3e609fcbff0dfb9296467c43888b604051948786521693a3613136565b923880611bd7565b611e1c9150873d8911610c7957610c6b81836128eb565b38611dc9565b611e2e90999199612882565b9738611da9565b6040513d8c823e3d90fd5b611e5791508a3d8c11610c7957610c6b81836128eb565b38611d6e565b905090611d4c565b9194509080861015611eb2575084905b611e80828483614993565b827fa76ba9683000f0598aec5ed73132d1bdb673107c3e609fcbff0dfb9296467c4386604051858152a3923880611b93565b90611e75565b849086611ec433613154565b9160405190611ed2826128cf565b6042825284820192606036853782511561207c57603084538251906001918210156120695790607860218501536041915b818311611ffd57505050611fbb576048611fb793611f8c93611f9b9360405195869376020b1b1b2b9b9a1b7b73a3937b61d1030b1b1b7bab73a1604d1b8a860152611f57815180928c60378901910161283a565b8401917f206973206d697373696e6720726f6c652000000000000000000000000000000060378401525180938684019061283a565b010360288101845201826128eb565b60405193849362461bcd60e51b8552600485015283019061285d565b0390fd5b606485856040519162461bcd60e51b83528160048401528201527f537472696e67733a20686578206c656e67746820696e73756666696369656e746044820152fd5b909192600f81166010811015612056576f181899199a1a9b1b9c1cb0b131b232b360811b901a61202d8587613143565b5360041c92801561204357600019019190611f03565b634e487b7160e01b825260116004528882fd5b634e487b7160e01b835260326004528983fd5b634e487b7160e01b815260326004528790fd5b634e487b7160e01b815260326004528690fd5b503461079c57604036600319011261079c576004356001600160a01b036120b46127df565b16338103612142576109b3916120c861327b565b80845260fb6020526040842082855260205260ff6040852054166120f8575b835261012d60205260408320613365565b80845260fb602052604084208285526020526040842060ff1981541690553382827ff6391f5c32d9c69d2a47ea670b442974b53935d1edc7fd64eb21e047a839171b8780a46120e7565b60405162461bcd60e51b815260206004820152602f60248201527f416363657373436f6e74726f6c3a2063616e206f6e6c792072656e6f756e636560448201527f20726f6c657320666f722073656c6600000000000000000000000000000000006064820152608490fd5b503461079c57606036600319011261079c576121c76127c9565b67ffffffffffffffff919060248035848111610794576121eb903690600401612809565b91909460443590811161228457612206903690600401612809565b9091612210612a41565b855b8281106122375750509461222f610adb9261081e96973691612925565b923691612925565b612242818486613b9e565b3587526101946020526040872054156122635761225e906130a7565b612212565b61226e919284613b9e565b60405163ac0522ad60e01b815290356004820152fd5b8480fd5b503461079c57604036600319011261079c576109b360043561012d6122ab6127df565b9180855260209060fb82526122c66001604088200154612e98565b6122ce61327b565b80865260fb82526001600160a01b0360408720941693848752825260ff60408720541615612303575b855252604083206132cc565b80865260fb8252604080872085885283528620805460ff191660011790553384827f2f8788117e7eff1d82e926ec794901d17c78024a50270940304540a733656f0d8980a46122f7565b503461079c5760a036600319011261079c576123676127c9565b61236f6127df565b67ffffffffffffffff60443581811161228457612390903690600401612973565b606435828111610faa576123a8903690600401612973565b91608435908111610faa576123c19036906004016129e4565b926001600160a01b039485610191541633036108455761081e95811633811480156123f6575b6123f19150614886565b6142cf565b5087526098602052604087203388526020526123f160ff6040892054166123e7565b503461079c57602036600319011261079c5760016040602092600435815260fb8452200154604051908152f35b503461079c576020806003193601126107985760405191828160995461246a81612fa3565b938484526001918683821691826000146125045750506001146124aa575b5050612496925003836128eb565b61178960405192828493845283019061285d565b90859250609982527f72a152ddfb8e864297c917af52ea6c1c68aead0fee1a62673fcc7e0c94979d005b8583106124ec57505061249693508201013880612488565b805483890185015287945086939092019181016124d4565b925093505061249694915060ff191682840152151560051b8201013880612488565b503461079c57608036600319011261079c5767ffffffffffffffff906004358281116107985761255a903690600401612809565b909260243581811161079457612574903690600401612809565b9094604435936001600160a01b039384861680960361195a5760643594612599612a41565b6101925416946040519663144613ff60e31b885260209788816004818b5afa908115611e35578287878c8f8f9089968e929861268c575b509161261e917fdac31445436d97d820b8ffd065c1e725892600c2407efafdfeea08b5ea4b1ed8959493612611604051968796604088526040880191614292565b9285840390860152614292565b0390a48860405198890152604088015260608701528660808701528660a08701528660c087015260c0865260e086019086821090821117612678576126719261081e97989261222f926040523691612925565b91336142cf565b634e487b7160e01b87526041600452602487fd5b97505050935050505081813d83116126ef575b6126a981836128eb565b810103126126eb5782827fdac31445436d97d820b8ffd065c1e725892600c2407efafdfeea08b5ea4b1ed888888f958e8d61261e9251989193949550916125d0565b8980fd5b503d61269f565b503461079c57602036600319011261079c5760043563ffffffff60e01b811680910361079857602090635a05180f60e01b811490811561273c575b506040519015158152f35b637965db0b60e01b811491508115612756575b5082612731565b636cdb3d1360e11b811491508115612788575b8115612777575b508261274f565b6301ffc9a760e01b14905082612770565b6303a24d0760e21b81149150612769565b503461079c57604036600319011261079c5760206127c16127b86127c9565b60243590612fdd565b604051908152f35b600435906001600160a01b0382168203610fae57565b602435906001600160a01b0382168203610fae57565b35906001600160a01b0382168203610fae57565b9181601f84011215610fae5782359167ffffffffffffffff8311610fae576020808501948460051b010111610fae57565b60005b83811061284d5750506000910152565b818101518382015260200161283d565b906020916128768151809281855285808601910161283a565b601f01601f1916010190565b67ffffffffffffffff8111610f9457604052565b610100810190811067ffffffffffffffff821117610f9457604052565b6020810190811067ffffffffffffffff821117610f9457604052565b6080810190811067ffffffffffffffff821117610f9457604052565b90601f8019910116810190811067ffffffffffffffff821117610f9457604052565b67ffffffffffffffff8111610f945760051b60200190565b92916129308261290d565b9161293e60405193846128eb565b829481845260208094019160051b8101928311610fae57905b8282106129645750505050565b81358152908301908301612957565b9080601f83011215610fae5781602061298e93359101612925565b90565b67ffffffffffffffff8111610f9457601f01601f191660200190565b9291926129b982612991565b916129c760405193846128eb565b829481845281830111610fae578281602093846000960137010152565b9080601f83011215610fae5781602061298e933591016129ad565b90815180825260208080930193019160005b828110612a1f575050505090565b835185529381019392810192600101612a11565b359060ff82168203610fae57565b3360009081527fba06a78ec98734fb5637b51b6458f4ba0a229fe2bbc86ce5d18073647cb408f3602090815260408083205490927fa269776b75ac4c5fa422bb11bec3ed3cee626848d07687372583174b209261fb9160ff1615612aa55750505050565b612aae33613154565b91845190612abb826128cf565b60428252848201926060368537825115612c1b5760308453825190600191821015612c1b5790607860218501536041915b818311612bad57505050612b6b576048611fb7938693612b4f93612b40985198899376020b1b1b2b9b9a1b7b73a3937b61d1030b1b1b7bab73a1604d1b8a860152611f57815180928c60378901910161283a565b010360288101875201856128eb565b5192839262461bcd60e51b84526004840152602483019061285d565b60648486519062461bcd60e51b825280600483015260248201527f537472696e67733a20686578206c656e67746820696e73756666696369656e746044820152fd5b909192600f81166010811015612c07576f181899199a1a9b1b9c1cb0b131b232b360811b901a612bdd8587613143565b5360041c928015612bf357600019019190612aec565b634e487b7160e01b82526011600452602482fd5b634e487b7160e01b83526032600452602483fd5b634e487b7160e01b81526032600452602490fd5b3360009081527fc81858b0fc5e8d7d2c7a341b4e13a62a27b51e1da1072bf5f7fee8fdef673e94602090815260408083205490927f65d7a28e3265b37a6474929f336521b332c1681b933f6cb9f3376673440d862a9160ff1615612c935750505050565b612c9c33613154565b91845190612ca9826128cf565b60428252848201926060368537825115612c1b5760308453825190600191821015612c1b5790607860218501536041915b818311612d2e57505050612b6b576048611fb7938693612b4f93612b40985198899376020b1b1b2b9b9a1b7b73a3937b61d1030b1b1b7bab73a1604d1b8a860152611f57815180928c60378901910161283a565b909192600f81166010811015612c07576f181899199a1a9b1b9c1cb0b131b232b360811b901a612d5e8587613143565b5360041c928015612bf357600019019190612cda565b3360009081527fc88390e7e62175be0932452175b6a7222b6b094ab0ef984a5153c620345d8975602090815260408083205490929060ff1615612db657505050565b612dbf33613154565b9080845190612dcd826128cf565b60428252848201926060368537825115612c1b5760308453825190600191821015612c1b5790607860218501536041915b818311612e5257505050612b6b576048611fb7938693612b4f93612b40985198899376020b1b1b2b9b9a1b7b73a3937b61d1030b1b1b7bab73a1604d1b8a860152611f57815180928c60378901910161283a565b909192600f81166010811015612c07576f181899199a1a9b1b9c1cb0b131b232b360811b901a612e828587613143565b5360041c928015612bf357600019019190612dfe565b60009080825260209060fb8252604092838120338252835260ff848220541615612ec25750505050565b612ecb33613154565b91845190612ed8826128cf565b60428252848201926060368537825115612c1b5760308453825190600191821015612c1b5790607860218501536041915b818311612f5d57505050612b6b576048611fb7938693612b4f93612b40985198899376020b1b1b2b9b9a1b7b73a3937b61d1030b1b1b7bab73a1604d1b8a860152611f57815180928c60378901910161283a565b909192600f81166010811015612c07576f181899199a1a9b1b9c1cb0b131b232b360811b901a612f8d8587613143565b5360041c928015612bf357600019019190612f09565b90600182811c92168015612fd3575b6020831014612fbd57565b634e487b7160e01b600052602260045260246000fd5b91607f1691612fb2565b6001600160a01b031690811561300a57600052609760205260406000209060005260205260406000205490565b60405162461bcd60e51b815260206004820152602a60248201527f455243313135353a2061646472657373207a65726f206973206e6f742061207660448201527f616c6964206f776e6572000000000000000000000000000000000000000000006064820152608490fd5b9061307f8261290d565b61308c60405191826128eb565b828152809261309d601f199161290d565b0190602036910137565b60001981146130b65760010190565b634e487b7160e01b600052601160045260246000fd5b80518210156130e05760209160051b010190565b634e487b7160e01b600052603260045260246000fd5b90919015613102575090565b8151156131125750805190602001fd5b60405162461bcd60e51b815260206004820152908190611fb790602483019061285d565b919082018092116130b657565b9081518110156130e0570160200190565b604051906060820182811067ffffffffffffffff821117610f9457604052602a82526020820160403682378251156130e0576030905381516001908110156130e057607860218401536029905b8082116131f55750506131b15790565b606460405162461bcd60e51b815260206004820152602060248201527f537472696e67733a20686578206c656e67746820696e73756666696369656e746044820152fd5b9091600f8116601081101561324e576f181899199a1a9b1b9c1cb0b131b232b360811b901a6132248486613143565b5360041c9180156132395760001901906131a1565b60246000634e487b7160e01b81526011600452fd5b60246000634e487b7160e01b81526032600452fd5b80548210156130e05760005260206000200190600090565b60ff6033541661328757565b60405162461bcd60e51b815260206004820152601060248201527f5061757361626c653a20706175736564000000000000000000000000000000006044820152606490fd5b91906001830160009082825280602052604082205415600014613352578454946801000000000000000086101561333e578361332e613315886001604098999a01855584613263565b819391549060031b600019811b9283911b169119161790565b9055549382526020522055600190565b634e487b7160e01b83526041600452602483fd5b50925050565b919082039182116130b657565b9060018201906000928184528260205260408420549081151560001461344e576000199180830181811161343a57825490848201918211613426578082036133f1575b505050805480156133dd578201916133c08383613263565b909182549160031b1b191690555582526020526040812055600190565b634e487b7160e01b86526031600452602486fd5b6134116134016133159386613263565b90549060031b1c92839286613263565b905586528460205260408620553880806133a8565b634e487b7160e01b88526011600452602488fd5b634e487b7160e01b87526011600452602487fd5b5050505090565b1561345c57565b60405162461bcd60e51b815260206004820152602b60248201527f496e697469616c697a61626c653a20636f6e7472616374206973206e6f74206960448201527f6e697469616c697a696e670000000000000000000000000000000000000000006064820152608490fd5b90816020910312610fae57516001600160a01b0381168103610fae5790565b3560ff81168103610fae5790565b156134fb57565b60405162461bcd60e51b815260206004820152602860248201527f455243313135353a2069647320616e6420616d6f756e7473206c656e6774682060448201527f6d69736d617463680000000000000000000000000000000000000000000000006064820152608490fd5b909161357d61298e936040845260408401906129ff565b9160208184039101526129ff565b9091936001600160a01b039081831691821590811591613aa2576135b286518951146134f4565b6135ba61327b565b6101919080825416916101929082825416918488149283908415613a98575b8415613a8f575b84156139ed575b508a5195159160008e5b8d898310613925575050505050505050505060005b855181101561364d578061361d613648928a6130cc565b5161362882896130cc565b5160005260c96020526136416040600020918254613136565b90556130a7565b613606565b509091929460005b85518110156136a1578061366c61369c928a6130cc565b5161367782896130cc565b5160005261364160206097815260409081600020908a60005252600020918254613136565b613655565b509195909460409584600088517f4a39dc06d4c0dbc64b70af90fd698a233a518aa5d07e595d983b8c0526c8f7fb3391806136dd898d83613566565b0390a484600052610195602052866000206000805286519160005b8381106138f857505050503b613710575b5050505050565b613772926020926000875180968195829461376361375063bc197c8160e01b9c8d875233600488015287602488015260a0604488015260a48701906129ff565b60031993848783030160648801526129ff565b9184830301608485015261285d565b03925af1600091816138c8575b5061384a5750506001613790613b11565b6308c379a014613814575b6137ab57505b3880808080613709565b5162461bcd60e51b815260206004820152603460248201527f455243313135353a207472616e7366657220746f206e6f6e2d4552433131353560448201527f526563656976657220696d706c656d656e7465720000000000000000000000006064820152608490fd5b61381c613b2f565b80613827575061379b565b825162461bcd60e51b815260206004820152908190611fb790602483019061285d565b6001600160e01b0319160361385f57506137a1565b5162461bcd60e51b815260206004820152602860248201527f455243313135353a204552433131353552656365697665722072656a6563746560448201527f6420746f6b656e730000000000000000000000000000000000000000000000006064820152608490fd5b6138ea91925060203d81116138f1575b6138e281836128eb565b810190613af1565b903861377f565b503d6138d8565b80826139066001938c6130cc565b5190613914575b50016136f8565b61391e90856132cc565b503861390d565b826139338161393a936130cc565b51926130cc565b51888754168d1480156139e1575b156139d257801515806139c2575b156108455785856139ad575b613997575b508787159182613987575b505061084557613981906130a7565b8e6135f1565b60201c168c141590508738613972565b6139a5610196918254613358565b905538613967565b6101966139bb838254613136565b9055613962565b50655af3107a4000810615613956565b655af3107a4000810615613956565b50888454168d14613948565b3360009081527fba06a78ec98734fb5637b51b6458f4ba0a229fe2bbc86ce5d18073647cb408f3602052604081205492955060ff909216917fa269776b75ac4c5fa422bb11bec3ed3cee626848d07687372583174b209261fb9183613a57575b50505092386135e7565b8b149250908215613a6d575b5050388080613a4d565b60ff925090604091815260fb6020528181208b82526020522054163880613a63565b600094506135e0565b89811494506135d9565b60405162461bcd60e51b815260206004820152602160248201527f455243313135353a206d696e7420746f20746865207a65726f206164647265736044820152607360f81b6064820152608490fd5b90816020910312610fae57516001600160e01b031981168103610fae5790565b60009060033d11613b1e57565b905060046000803e60005160e01c90565b600060443d1061298e57604051600319913d83016004833e815167ffffffffffffffff918282113d602484011117613b8d57818401948551938411613b95573d85010160208487010111613b8d575061298e929101602001906128eb565b949350505050565b50949350505050565b91908110156130e05760051b0190565b15613bb557565b60405162461bcd60e51b815260206004820152602560248201527f455243313135353a207472616e7366657220746f20746865207a65726f20616460448201527f64726573730000000000000000000000000000000000000000000000000000006064820152608490fd5b15613c2757565b60405162461bcd60e51b815260206004820152602a60248201527f455243313135353a20696e73756666696369656e742062616c616e636520666f60448201527f72207472616e73666572000000000000000000000000000000000000000000006064820152608490fd5b9290916001600160a01b038316151594613cab86613bae565b613cb48261425c565b93613cbe8461425c565b613cc661327b565b6001600160a01b0361019154166001600160a01b03610192541690806001600160a01b038516149081928215614249575b8215614237575b8215614183575b5088519260005b84811061407f5750505050506001600160a01b038716958615918261403b575b6001600160a01b03841615613f73575b509084600052602097609789526040998a600020896000528a52878b60002054613d6882821015613c20565b8860005260978c528c6000208b6000528c52038b600020558660005260978a528a6000206001600160a01b0386166000528a528a600020613daa898254613136565b90558a8981518981528a8d8201527fc3d58168c5ae7397731d063d5bbf3d657854427343f4c083240f7aacaa2d0f626001600160a01b038916933392a46001600160a01b0385166000526101958a528a60002092896000528b6000209085519560009115915b878110613f22575050505050505050803b613e2f575b50505050505050565b613e7a9360006001600160a01b0388958a519788968795869363f23a6e6160e01b9c8d865233600487015260248601526044850152606484015260a0608484015260a483019061285d565b0393165af160009181613f03575b50613eec575050600190613e9a613b11565b6308c379a014613eb8575b506137ab57505b38808080808080613e26565b613ec0613b2f565b9081613ecc5750613ea5565b611fb7845192839262461bcd60e51b84526004840152602483019061285d565b6001600160e01b03191603905061385f5750613eac565b613f1b919250843d86116138f1576138e281836128eb565b9038613e88565b808386613f31600194866130cc565b5191613f55575b613f44575b5001613e10565b613f4e90896132cc565b5038613f3d565b613f5f828a612fdd565b613f3857613f6d8288613365565b50613f38565b9996939097949198959260005b8951811015614029578b613f9882613933818e6130cc565b518160005260c991602092808452604093846000205492848410613fd45790613fcf969594939291600052520390600020556130a7565b613f80565b855162461bcd60e51b815260048101839052602860248201527f455243313135353a206275726e20616d6f756e74206578636565647320746f74604482015267616c537570706c7960c01b6064820152608490fd5b50929598919497909396995038613d3c565b9996939097949198959260005b895181101561406f578061405f61406a928e6130cc565b51613628828d6130cc565b614048565b5092959891949790939699613d2c565b614089818c6130cc565b5161409482886130cc565b516001600160a01b0361019154166001600160a01b038a16148015614165575b156141565780151580614146575b1561084557846001600160a01b038f86614131575b161461411b575b50841590816140fb575b50610845576140f6906130a7565b613d0c565b6001600160a01b03915060201c166001600160a01b0388161415386140e8565b614129610196918254613358565b9055386140de565b61019661413f858254613136565b90556140d7565b50655af3107a40008106156140c2565b655af3107a40008106156140c2565b506001600160a01b0361019254166001600160a01b038a16146140b4565b3360009081527fba06a78ec98734fb5637b51b6458f4ba0a229fe2bbc86ce5d18073647cb408f3602052604081205492935060ff909216917fa269776b75ac4c5fa422bb11bec3ed3cee626848d07687372583174b209261fb91836141ed575b5050509038613d05565b6001600160a01b03881614925090821561420c575b50503880806141e3565b60ff925090604091815260fb6020528181206001600160a01b03881682526020522054163880614202565b6001600160a01b038616159250613cfe565b6001600160a01b03861681149250613cf7565b604051906040820182811067ffffffffffffffff821117610f9457604052600182526020820160203682378251156130e0575290565b90918281527f07ffffffffffffffffffffffffffffffffffffffffffffffffffffffffffffff8311610fae5760209260051b809284830137010190565b916142dd81518551146134f4565b6142f16001600160a01b0383161515613bae565b6142f961327b565b6001600160a01b0361019154166001600160a01b03610192541690806001600160a01b038516149081928215614835575b8215614823575b821561476f575b5083519260005b84811061466b5750505050506001600160a01b038316928315958661462b575b6001600160a01b038416156145b8575b60005b8351811015614405578061438961440092866130cc565b51613641614397838b6130cc565b5191806000526097602090808252604092836000208d6000528352858d8560002054906143c683831015613c20565b8360005284865286600020906000528552038460002055600052815281600020906001600160a01b038b1660005252600020918254613136565b614372565b5093949290956040968751876001600160a01b038516917f4a39dc06d4c0dbc64b70af90fd698a233a518aa5d07e595d983b8c0526c8f7fb33918061444b8b8b83613566565b0390a46001600160a01b0383166000526101956020528760002090876000528860002085519360009015905b85811061455e57505050505050803b614493575b505050505050565b61375060006001600160a01b03613763946144db6020978b51998a988997889563bc197c8160e01b9e8f8852336004890152602488015260a0604488015260a48701906129ff565b0393165af16000918161453e575b5061452957505060016144fa613b11565b6308c379a014614516575b6137ab57505b38808080808061448b565b61451e613b2f565b806138275750614505565b6001600160e01b0319160361385f575061450b565b61455791925060203d81116138f1576138e281836128eb565b90386144e9565b808261456c6001938b6130cc565b519061459a575b6001600160a01b038916614589575b5001614477565b61459390876132cc565b5038614582565b6145a48187612fdd565b614573576145b28186613365565b50614573565b959290600097949295975b865181101561461d576145d681886130cc565b516145e1828b6130cc565b518160005260c991602092808452604093846000205492848410613fd45790614618969594939291600052520390600020556130a7565b6145c3565b50909295969491939661436f565b969260009692959491965b865181101561465d578061464d61465892886130cc565b51613628828a6130cc565b614636565b50929695909394919561435f565b61467581876130cc565b51614680828b6130cc565b516001600160a01b0361019154166001600160a01b038a16148015614751575b156147425780151580614732575b15610845578361471d575b846001600160a01b038b1614614707575b50841590816146e7575b50610845576146e2906130a7565b61433f565b6001600160a01b03915060201c166001600160a01b0388161415386146d4565b614715610196918254613358565b9055386146ca565b61019661472b828254613136565b90556146b9565b50655af3107a40008106156146ae565b655af3107a40008106156146ae565b506001600160a01b0361019254166001600160a01b038a16146146a0565b3360009081527fba06a78ec98734fb5637b51b6458f4ba0a229fe2bbc86ce5d18073647cb408f3602052604081205492935060ff909216917fa269776b75ac4c5fa422bb11bec3ed3cee626848d07687372583174b209261fb91836147d9575b5050509038614338565b6001600160a01b0388161492509082156147f8575b50503880806147cf565b60ff925090604091815260fb6020528181206001600160a01b038816825260205220541638806147ee565b6001600160a01b038616159250614331565b6001600160a01b0386168114925061432a565b6040519061485582612896565b8160e06000918281528260208201528260408201528260608201528260808201528260a08201528260c08201520152565b1561488d57565b60405162461bcd60e51b815260206004820152602e60248201527f455243313135353a2063616c6c6572206973206e6f7420746f6b656e206f776e60448201527f6572206f7220617070726f7665640000000000000000000000000000000000006064820152608490fd5b9060ff166064811161494e57816040917fa08477ae79c0fbe93cf684988c5b96bfec3bf0e18cba76ebdaa7074eaf8be74793600052610193602052826000208160ff1982541617905582519182526020820152a1565b602490604051906374e79ff560e11b82526004820152fd5b35907fffff00000000000000000000000000000000000000000000000000000000000082168203610fae57565b9091926001600160a01b03821615614db2576149ae8361425c565b916149b88561425c565b9460006040516149c7816128b3565b526149d061327b565b6001600160a01b0361019154166101926001600160a01b038154169082159182908315614da9575b8315614da0575b8315614d00575b508751936001600160a01b038716149060005b8b8a878310614c2e57505050505050505060005b8451811015614ada57614a4081866130cc565b51614a4b82896130cc565b51908060005260c9602081815260406000205492848410614a845790614a7f959493929160005252036040600020556130a7565b614a2d565b60405162461bcd60e51b815260048101839052602860248201527f455243313135353a206275726e20616d6f756e74206578636565647320746f74604482015267616c537570706c7960c01b6064820152608490fd5b509194509192806000526020916097835260406000206001600160a01b0385166000528352604060002054818110614bdd579181600092610195959483855260978652604085206001600160a01b03891686528652036040842055604051918252838201526001600160a01b038516907fc3d58168c5ae7397731d063d5bbf3d657854427343f4c083240f7aacaa2d0f6260403392a46000604051614b7e816128b3565b52526001600160a01b03811660005260406000209082519260005b848110614ba7575050505050565b80614bb4600192846130cc565b51614bbf8186612fdd565b15614bcc575b5001614b99565b614bd69086613365565b5038614bc5565b60405162461bcd60e51b8152600481018590526024808201527f455243313135353a206275726e20616d6f756e7420657863656564732062616c604482015263616e636560e01b6064820152608490fd5b8261393381614c3c936130cc565b516001600160a01b036101915416158015614cee575b15614cdf5780151580614ccf575b15610845578484614cba575b614ca4575b5085159081614c8e575b5061084557614c89906130a7565b614a19565b6001600160a01b03915060201c16151538614c7b565b614cb2610196918254613358565b905538614c71565b610196614cc8838254613136565b9055614c6c565b50655af3107a4000810615614c60565b655af3107a4000810615614c60565b506001600160a01b0386541615614c52565b3360009081527fba06a78ec98734fb5637b51b6458f4ba0a229fe2bbc86ce5d18073647cb408f3602052604090205491935060ff909116907fa269776b75ac4c5fa422bb11bec3ed3cee626848d07687372583174b209261fb9082614d69575b50509138614a06565b1591508115614d7b575b503880614d60565b905060005260fb60205260406000206000805260205260ff6040600020541638614d73565b600193506149ff565b801593506149f8565b60405162461bcd60e51b815260206004820152602360248201527f455243313135353a206275726e2066726f6d20746865207a65726f206164647260448201526265737360e81b6064820152608490fdfea2646970667358221220e1572e94a9a9dd0176c4136a483ec02f61665c2d7535233738ebb5f676222a7864736f6c63430008110033"
}