{
  "address": "0x8d1fd3bDF29B5F5A98b196725ef0D00DD45eFa5a",
  "abi": [
    {
      "inputs": [],
      "stateMutability": "nonpayable",
      "type": "constructor"
    },
    {
      "inputs": [],
      "name": "ForbiddenTransfer",
      "type": "error"
    },
    {
      "inputs": [],
      "name": "InvalidData",
      "type": "error"
    },
    {
      "inputs": [
        {
          "internalType": "uint256",
          "name": "tokenId",
          "type": "uint256"
        }
      ],
      "name": "InvalidTokenTransfer",
      "type": "error"
    },
    {
      "inputs": [
        {
          "internalType": "uint8",
          "name": "methodology",
          "type": "uint8"
        }
      ],
      "name": "MethodologyTooLarge",
      "type": "error"
    },
    {
      "inputs": [
        {
          "internalType": "uint8",
          "name": "methodologyVersion",
          "type": "uint8"
        }
      ],
      "name": "MethodologyVersionTooLarge",
      "type": "error"
    },
    {
      "inputs": [
        {
          "internalType": "uint256",
          "name": "tokenId",
          "type": "uint256"
        }
      ],
      "name": "RemovalNotYetMinted",
      "type": "error"
    },
    {
      "inputs": [
        {
          "internalType": "bytes2",
          "name": "country",
          "type": "bytes2"
        },
        {
          "internalType": "bytes2",
          "name": "subdivision",
          "type": "bytes2"
        }
      ],
      "name": "UncapitalizedString",
      "type": "error"
    },
    {
      "inputs": [
        {
          "internalType": "uint8",
          "name": "idVersion",
          "type": "uint8"
        }
      ],
      "name": "UnsupportedIdVersion",
      "type": "error"
    },
    {
      "anonymous": false,
      "inputs": [
        {
          "indexed": true,
          "internalType": "address",
          "name": "account",
          "type": "address"
        },
        {
          "indexed": true,
          "internalType": "address",
          "name": "operator",
          "type": "address"
        },
        {
          "indexed": false,
          "internalType": "bool",
          "name": "approved",
          "type": "bool"
        }
      ],
      "name": "ApprovalForAll",
      "type": "event"
    },
    {
      "anonymous": false,
      "inputs": [
        {
          "indexed": false,
          "internalType": "contract Market",
          "name": "market",
          "type": "address"
        },
        {
          "indexed": false,
          "internalType": "contract Certificate",
          "name": "certificate",
          "type": "address"
        }
      ],
      "name": "ContractAddressesRegistered",
      "type": "event"
    },
    {
      "anonymous": false,
      "inputs": [
        {
          "indexed": false,
          "internalType": "uint8",
          "name": "version",
          "type": "uint8"
        }
      ],
      "name": "Initialized",
      "type": "event"
    },
    {
      "anonymous": false,
      "inputs": [
        {
          "indexed": true,
          "internalType": "address",
          "name": "certificateRecipient",
          "type": "address"
        },
        {
          "indexed": true,
          "internalType": "uint256",
          "name": "certificateAmount",
          "type": "uint256"
        },
        {
          "indexed": true,
          "internalType": "uint256",
          "name": "certificateId",
          "type": "uint256"
        },
        {
          "indexed": false,
          "internalType": "uint256[]",
          "name": "removalIds",
          "type": "uint256[]"
        },
        {
          "indexed": false,
          "internalType": "uint256[]",
          "name": "removalAmounts",
          "type": "uint256[]"
        }
      ],
      "name": "Migrate",
      "type": "event"
    },
    {
      "anonymous": false,
      "inputs": [
        {
          "indexed": false,
          "internalType": "address",
          "name": "account",
          "type": "address"
        }
      ],
      "name": "Paused",
      "type": "event"
    },
    {
      "anonymous": false,
      "inputs": [
        {
          "indexed": true,
          "internalType": "uint256",
          "name": "id",
          "type": "uint256"
        },
        {
          "indexed": true,
          "internalType": "address",
          "name": "fromAddress",
          "type": "address"
        },
        {
          "indexed": false,
          "internalType": "uint256",
          "name": "amount",
          "type": "uint256"
        }
      ],
      "name": "RemovalReleased",
      "type": "event"
    },
    {
      "anonymous": false,
      "inputs": [
        {
          "indexed": true,
          "internalType": "bytes32",
          "name": "role",
          "type": "bytes32"
        },
        {
          "indexed": true,
          "internalType": "bytes32",
          "name": "previousAdminRole",
          "type": "bytes32"
        },
        {
          "indexed": true,
          "internalType": "bytes32",
          "name": "newAdminRole",
          "type": "bytes32"
        }
      ],
      "name": "RoleAdminChanged",
      "type": "event"
    },
    {
      "anonymous": false,
      "inputs": [
        {
          "indexed": true,
          "internalType": "bytes32",
          "name": "role",
          "type": "bytes32"
        },
        {
          "indexed": true,
          "internalType": "address",
          "name": "account",
          "type": "address"
        },
        {
          "indexed": true,
          "internalType": "address",
          "name": "sender",
          "type": "address"
        }
      ],
      "name": "RoleGranted",
      "type": "event"
    },
    {
      "anonymous": false,
      "inputs": [
        {
          "indexed": true,
          "internalType": "bytes32",
          "name": "role",
          "type": "bytes32"
        },
        {
          "indexed": true,
          "internalType": "address",
          "name": "account",
          "type": "address"
        },
        {
          "indexed": true,
          "internalType": "address",
          "name": "sender",
          "type": "address"
        }
      ],
      "name": "RoleRevoked",
      "type": "event"
    },
    {
      "anonymous": false,
      "inputs": [
        {
          "indexed": true,
          "internalType": "address",
          "name": "operator",
          "type": "address"
        },
        {
          "indexed": true,
          "internalType": "address",
          "name": "from",
          "type": "address"
        },
        {
          "indexed": true,
          "internalType": "address",
          "name": "to",
          "type": "address"
        },
        {
          "indexed": false,
          "internalType": "uint256[]",
          "name": "ids",
          "type": "uint256[]"
        },
        {
          "indexed": false,
          "internalType": "uint256[]",
          "name": "values",
          "type": "uint256[]"
        }
      ],
      "name": "TransferBatch",
      "type": "event"
    },
    {
      "anonymous": false,
      "inputs": [
        {
          "indexed": true,
          "internalType": "address",
          "name": "operator",
          "type": "address"
        },
        {
          "indexed": true,
          "internalType": "address",
          "name": "from",
          "type": "address"
        },
        {
          "indexed": true,
          "internalType": "address",
          "name": "to",
          "type": "address"
        },
        {
          "indexed": false,
          "internalType": "uint256",
          "name": "id",
          "type": "uint256"
        },
        {
          "indexed": false,
          "internalType": "uint256",
          "name": "value",
          "type": "uint256"
        }
      ],
      "name": "TransferSingle",
      "type": "event"
    },
    {
      "anonymous": false,
      "inputs": [
        {
          "indexed": false,
          "internalType": "string",
          "name": "value",
          "type": "string"
        },
        {
          "indexed": true,
          "internalType": "uint256",
          "name": "id",
          "type": "uint256"
        }
      ],
      "name": "URI",
      "type": "event"
    },
    {
      "anonymous": false,
      "inputs": [
        {
          "indexed": false,
          "internalType": "address",
          "name": "account",
          "type": "address"
        }
      ],
      "name": "Unpaused",
      "type": "event"
    },
    {
      "inputs": [],
      "name": "CONSIGNOR_ROLE",
      "outputs": [
        {
          "internalType": "bytes32",
          "name": "",
          "type": "bytes32"
        }
      ],
      "stateMutability": "view",
      "type": "function"
    },
    {
      "inputs": [],
      "name": "DEFAULT_ADMIN_ROLE",
      "outputs": [
        {
          "internalType": "bytes32",
          "name": "",
          "type": "bytes32"
        }
      ],
      "stateMutability": "view",
      "type": "function"
    },
    {
      "inputs": [],
      "name": "PAUSER_ROLE",
      "outputs": [
        {
          "internalType": "bytes32",
          "name": "",
          "type": "bytes32"
        }
      ],
      "stateMutability": "view",
      "type": "function"
    },
    {
      "inputs": [],
      "name": "RELEASER_ROLE",
      "outputs": [
        {
          "internalType": "bytes32",
          "name": "",
          "type": "bytes32"
        }
      ],
      "stateMutability": "view",
      "type": "function"
    },
    {
      "inputs": [
        {
          "internalType": "address",
          "name": "to",
          "type": "address"
        },
        {
          "internalType": "uint256[]",
          "name": "amounts",
          "type": "uint256[]"
        },
        {
          "internalType": "uint256[]",
          "name": "ids",
          "type": "uint256[]"
        }
      ],
      "name": "addBalance",
      "outputs": [],
      "stateMutability": "nonpayable",
      "type": "function"
    },
    {
      "inputs": [
        {
          "internalType": "address",
          "name": "account",
          "type": "address"
        },
        {
          "internalType": "uint256",
          "name": "id",
          "type": "uint256"
        }
      ],
      "name": "balanceOf",
      "outputs": [
        {
          "internalType": "uint256",
          "name": "",
          "type": "uint256"
        }
      ],
      "stateMutability": "view",
      "type": "function"
    },
    {
      "inputs": [
        {
          "internalType": "address[]",
          "name": "accounts",
          "type": "address[]"
        },
        {
          "internalType": "uint256[]",
          "name": "ids",
          "type": "uint256[]"
        }
      ],
      "name": "balanceOfBatch",
      "outputs": [
        {
          "internalType": "uint256[]",
          "name": "",
          "type": "uint256[]"
        }
      ],
      "stateMutability": "view",
      "type": "function"
    },
    {
      "inputs": [],
      "name": "certificateAddress",
      "outputs": [
        {
          "internalType": "address",
          "name": "",
          "type": "address"
        }
      ],
      "stateMutability": "view",
      "type": "function"
    },
    {
      "inputs": [
        {
          "internalType": "address",
          "name": "from",
          "type": "address"
        },
        {
          "internalType": "uint256",
          "name": "id",
          "type": "uint256"
        },
        {
          "internalType": "uint256",
          "name": "amount",
          "type": "uint256"
        }
      ],
      "name": "consign",
      "outputs": [],
      "stateMutability": "nonpayable",
      "type": "function"
    },
    {
      "inputs": [
        {
          "internalType": "uint256",
          "name": "id",
          "type": "uint256"
        }
      ],
      "name": "decodeRemovalIdV0",
      "outputs": [
        {
          "components": [
            {
              "internalType": "uint8",
              "name": "idVersion",
              "type": "uint8"
            },
            {
              "internalType": "uint8",
              "name": "methodology",
              "type": "uint8"
            },
            {
              "internalType": "uint8",
              "name": "methodologyVersion",
              "type": "uint8"
            },
            {
              "internalType": "uint16",
              "name": "vintage",
              "type": "uint16"
            },
            {
              "internalType": "bytes2",
              "name": "country",
              "type": "bytes2"
            },
            {
              "internalType": "bytes2",
              "name": "subdivision",
              "type": "bytes2"
            },
            {
              "internalType": "address",
              "name": "supplierAddress",
              "type": "address"
            },
            {
              "internalType": "uint32",
              "name": "subIdentifier",
              "type": "uint32"
            }
          ],
          "internalType": "struct DecodedRemovalIdV0",
          "name": "",
          "type": "tuple"
        }
      ],
      "stateMutability": "pure",
      "type": "function"
    },
    {
      "inputs": [
        {
          "internalType": "uint256",
          "name": "id",
          "type": "uint256"
        }
      ],
      "name": "exists",
      "outputs": [
        {
          "internalType": "bool",
          "name": "",
          "type": "bool"
        }
      ],
      "stateMutability": "view",
      "type": "function"
    },
    {
      "inputs": [
        {
          "internalType": "uint256",
          "name": "id",
          "type": "uint256"
        }
      ],
      "name": "getHoldbackPercentage",
      "outputs": [
        {
          "internalType": "uint8",
          "name": "",
          "type": "uint8"
        }
      ],
      "stateMutability": "view",
      "type": "function"
    },
    {
      "inputs": [],
      "name": "getMarketBalance",
      "outputs": [
        {
          "internalType": "uint256",
          "name": "",
          "type": "uint256"
        }
      ],
      "stateMutability": "view",
      "type": "function"
    },
    {
      "inputs": [
        {
          "internalType": "address",
          "name": "owner",
          "type": "address"
        }
      ],
      "name": "getOwnedTokenIds",
      "outputs": [
        {
          "internalType": "uint256[]",
          "name": "",
          "type": "uint256[]"
        }
      ],
      "stateMutability": "view",
      "type": "function"
    },
    {
      "inputs": [
        {
          "internalType": "uint256",
          "name": "id",
          "type": "uint256"
        }
      ],
      "name": "getProjectId",
      "outputs": [
        {
          "internalType": "uint256",
          "name": "",
          "type": "uint256"
        }
      ],
      "stateMutability": "view",
      "type": "function"
    },
    {
      "inputs": [
        {
          "internalType": "bytes32",
          "name": "role",
          "type": "bytes32"
        }
      ],
      "name": "getRoleAdmin",
      "outputs": [
        {
          "internalType": "bytes32",
          "name": "",
          "type": "bytes32"
        }
      ],
      "stateMutability": "view",
      "type": "function"
    },
    {
      "inputs": [
        {
          "internalType": "bytes32",
          "name": "role",
          "type": "bytes32"
        },
        {
          "internalType": "uint256",
          "name": "index",
          "type": "uint256"
        }
      ],
      "name": "getRoleMember",
      "outputs": [
        {
          "internalType": "address",
          "name": "",
          "type": "address"
        }
      ],
      "stateMutability": "view",
      "type": "function"
    },
    {
      "inputs": [
        {
          "internalType": "bytes32",
          "name": "role",
          "type": "bytes32"
        }
      ],
      "name": "getRoleMemberCount",
      "outputs": [
        {
          "internalType": "uint256",
          "name": "",
          "type": "uint256"
        }
      ],
      "stateMutability": "view",
      "type": "function"
    },
    {
      "inputs": [
        {
          "internalType": "bytes32",
          "name": "role",
          "type": "bytes32"
        },
        {
          "internalType": "address",
          "name": "account",
          "type": "address"
        }
      ],
      "name": "grantRole",
      "outputs": [],
      "stateMutability": "nonpayable",
      "type": "function"
    },
    {
      "inputs": [
        {
          "internalType": "bytes32",
          "name": "role",
          "type": "bytes32"
        },
        {
          "internalType": "address",
          "name": "account",
          "type": "address"
        }
      ],
      "name": "hasRole",
      "outputs": [
        {
          "internalType": "bool",
          "name": "",
          "type": "bool"
        }
      ],
      "stateMutability": "view",
      "type": "function"
    },
    {
      "inputs": [
        {
          "internalType": "string",
          "name": "baseURI",
          "type": "string"
        }
      ],
      "name": "initialize",
      "outputs": [],
      "stateMutability": "nonpayable",
      "type": "function"
    },
    {
      "inputs": [
        {
          "internalType": "address",
          "name": "account",
          "type": "address"
        },
        {
          "internalType": "address",
          "name": "operator",
          "type": "address"
        }
      ],
      "name": "isApprovedForAll",
      "outputs": [
        {
          "internalType": "bool",
          "name": "",
          "type": "bool"
        }
      ],
      "stateMutability": "view",
      "type": "function"
    },
    {
      "inputs": [],
      "name": "marketAddress",
      "outputs": [
        {
          "internalType": "address",
          "name": "",
          "type": "address"
        }
      ],
      "stateMutability": "view",
      "type": "function"
    },
    {
      "inputs": [
        {
          "internalType": "uint256[]",
          "name": "ids",
          "type": "uint256[]"
        },
        {
          "internalType": "uint256[]",
          "name": "amounts",
          "type": "uint256[]"
        },
        {
          "internalType": "address",
          "name": "certificateRecipient",
          "type": "address"
        },
        {
          "internalType": "uint256",
          "name": "certificateAmount",
          "type": "uint256"
        }
      ],
      "name": "migrate",
      "outputs": [],
      "stateMutability": "nonpayable",
      "type": "function"
    },
    {
      "inputs": [
        {
          "internalType": "address",
          "name": "to",
          "type": "address"
        },
        {
          "internalType": "uint256[]",
          "name": "amounts",
          "type": "uint256[]"
        },
        {
          "components": [
            {
              "internalType": "uint8",
              "name": "idVersion",
              "type": "uint8"
            },
            {
              "internalType": "uint8",
              "name": "methodology",
              "type": "uint8"
            },
            {
              "internalType": "uint8",
              "name": "methodologyVersion",
              "type": "uint8"
            },
            {
              "internalType": "uint16",
              "name": "vintage",
              "type": "uint16"
            },
            {
              "internalType": "bytes2",
              "name": "country",
              "type": "bytes2"
            },
            {
              "internalType": "bytes2",
              "name": "subdivision",
              "type": "bytes2"
            },
            {
              "internalType": "address",
              "name": "supplierAddress",
              "type": "address"
            },
            {
              "internalType": "uint32",
              "name": "subIdentifier",
              "type": "uint32"
            }
          ],
          "internalType": "struct DecodedRemovalIdV0[]",
          "name": "removals",
          "type": "tuple[]"
        },
        {
          "internalType": "uint256",
          "name": "projectId",
          "type": "uint256"
        },
        {
          "internalType": "uint256",
          "name": "scheduleStartTime",
          "type": "uint256"
        },
        {
          "internalType": "uint8",
          "name": "holdbackPercentage",
          "type": "uint8"
        }
      ],
      "name": "mintBatch",
      "outputs": [],
      "stateMutability": "nonpayable",
      "type": "function"
    },
    {
      "inputs": [
        {
          "internalType": "bytes[]",
          "name": "data",
          "type": "bytes[]"
        }
      ],
      "name": "multicall",
      "outputs": [
        {
          "internalType": "bytes[]",
          "name": "results",
          "type": "bytes[]"
        }
      ],
      "stateMutability": "nonpayable",
      "type": "function"
    },
    {
      "inputs": [
        {
          "internalType": "address",
          "name": "account",
          "type": "address"
        }
      ],
      "name": "numberOfTokensOwnedByAddress",
      "outputs": [
        {
          "internalType": "uint256",
          "name": "",
          "type": "uint256"
        }
      ],
      "stateMutability": "view",
      "type": "function"
    },
    {
      "inputs": [],
      "name": "pause",
      "outputs": [],
      "stateMutability": "nonpayable",
      "type": "function"
    },
    {
      "inputs": [],
      "name": "paused",
      "outputs": [
        {
          "internalType": "bool",
          "name": "",
          "type": "bool"
        }
      ],
      "stateMutability": "view",
      "type": "function"
    },
    {
      "inputs": [
        {
          "internalType": "contract Market",
          "name": "market",
          "type": "address"
        },
        {
          "internalType": "contract Certificate",
          "name": "certificate",
          "type": "address"
        }
      ],
      "name": "registerContractAddresses",
      "outputs": [],
      "stateMutability": "nonpayable",
      "type": "function"
    },
    {
      "inputs": [
        {
          "internalType": "uint256",
          "name": "id",
          "type": "uint256"
        },
        {
          "internalType": "uint256",
          "name": "amount",
          "type": "uint256"
        }
      ],
      "name": "release",
      "outputs": [],
      "stateMutability": "nonpayable",
      "type": "function"
    },
    {
      "inputs": [
        {
          "internalType": "bytes32",
          "name": "role",
          "type": "bytes32"
        },
        {
          "internalType": "address",
          "name": "account",
          "type": "address"
        }
      ],
      "name": "renounceRole",
      "outputs": [],
      "stateMutability": "nonpayable",
      "type": "function"
    },
    {
      "inputs": [
        {
          "internalType": "bytes32",
          "name": "role",
          "type": "bytes32"
        },
        {
          "internalType": "address",
          "name": "account",
          "type": "address"
        }
      ],
      "name": "revokeRole",
      "outputs": [],
      "stateMutability": "nonpayable",
      "type": "function"
    },
    {
      "inputs": [
        {
          "internalType": "address",
          "name": "from",
          "type": "address"
        },
        {
          "internalType": "address",
          "name": "to",
          "type": "address"
        },
        {
          "internalType": "uint256[]",
          "name": "ids",
          "type": "uint256[]"
        },
        {
          "internalType": "uint256[]",
          "name": "amounts",
          "type": "uint256[]"
        },
        {
          "internalType": "bytes",
          "name": "data",
          "type": "bytes"
        }
      ],
      "name": "safeBatchTransferFrom",
      "outputs": [],
      "stateMutability": "nonpayable",
      "type": "function"
    },
    {
      "inputs": [
        {
          "internalType": "address",
          "name": "from",
          "type": "address"
        },
        {
          "internalType": "address",
          "name": "to",
          "type": "address"
        },
        {
          "internalType": "uint256",
          "name": "id",
          "type": "uint256"
        },
        {
          "internalType": "uint256",
          "name": "amount",
          "type": "uint256"
        },
        {
          "internalType": "bytes",
          "name": "data",
          "type": "bytes"
        }
      ],
      "name": "safeTransferFrom",
      "outputs": [],
      "stateMutability": "nonpayable",
      "type": "function"
    },
    {
      "inputs": [
        {
          "internalType": "address",
          "name": "operator",
          "type": "address"
        },
        {
          "internalType": "bool",
          "name": "approved",
          "type": "bool"
        }
      ],
      "name": "setApprovalForAll",
      "outputs": [],
      "stateMutability": "nonpayable",
      "type": "function"
    },
    {
      "inputs": [
        {
          "internalType": "bytes4",
          "name": "interfaceId",
          "type": "bytes4"
        }
      ],
      "name": "supportsInterface",
      "outputs": [
        {
          "internalType": "bool",
          "name": "",
          "type": "bool"
        }
      ],
      "stateMutability": "view",
      "type": "function"
    },
    {
      "inputs": [
        {
          "internalType": "uint256",
          "name": "id",
          "type": "uint256"
        }
      ],
      "name": "totalSupply",
      "outputs": [
        {
          "internalType": "uint256",
          "name": "",
          "type": "uint256"
        }
      ],
      "stateMutability": "view",
      "type": "function"
    },
    {
      "inputs": [],
      "name": "unpause",
      "outputs": [],
      "stateMutability": "nonpayable",
      "type": "function"
    },
    {
      "inputs": [
        {
          "internalType": "uint256",
          "name": "",
          "type": "uint256"
        }
      ],
      "name": "uri",
      "outputs": [
        {
          "internalType": "string",
          "name": "",
          "type": "string"
        }
      ],
      "stateMutability": "view",
      "type": "function"
    }
  ],
  "numDeployments": 2,
  "bytecode": "0x60808060405234620000c6576000549060ff8260081c1662000074575060ff8082161062000038575b60405161535b9081620000cc8239f35b60ff90811916176000557f7f26b83ff96e1f2b6a682f133852f6798a09c465da95921460cefb3847402498602060405160ff8152a13862000028565b62461bcd60e51b815260206004820152602760248201527f496e697469616c697a61626c653a20636f6e747261637420697320696e697469604482015266616c697a696e6760c81b6064820152608490fd5b600080fdfe6080604052600436101561001257600080fd5b6000803560e01c8062fdd58e14612dbf57806301ffc9a714612c8657806304bcaa6814612af35780630e89341c146129f3578063248a9ca3146129c65780632707193b146129915780632eb2c2d6146128ad5780632f2ff15d146127bc57806334697f45146126aa57806336568abe14612562578063366a4120146120405780633d932dfb146120155780633f4ba83a14611f5a57806342c6281d14611e445780634e1273f414611cad5780634f558e7914611c815780634fac7e4114611be85780635c975abb14611bc55780636b425fc814611b61578063789e8cdf14611b1b5780638456cb5914611aa25780639010d07c14611a4f57806391d14854146119f557806393ae796d1461171d57806395623641146116e8578063964eec70146116c9578063a217fddf146116ad578063a22cb46514611582578063ac28af2414611547578063ac9650d814611298578063b776d3331461125f578063bd85b03914611235578063c48c0105146111fa578063ca15c873146111cf578063ca96535714610a97578063d547741f146109a2578063e63ab1e914610967578063e985e9c514610905578063f242432a146108205763f62d1888146101d457600080fd5b3461081d576020806003193601126108195767ffffffffffffffff90600435828111610815573660238201121561081557610219903690602481600401359101613071565b91835460ff808260081c161592838094610809575b80156107f3575b15610789576001957fffffffffffffffffffffffffffffffffffffffffffffffffffffffffffffff00938588868316178a5561075b575b506102e083895460081c1661028081613a52565b61028981613a52565b6102db6024604051856102a68c8398519281849286019101612e87565b81017f7b69647d000000000000000000000000000000000000000000000000000000008c820152036004810186520184612f72565b613a52565b80519182116107475781906102f660995461357c565b601f81116106d7575b508690601f831160011461063b578992610630575b505060001982881b9260031b1c1916176099555b61035e81875460081c1661033b81613a52565b836033541660335561034c81613a52565b61035581613a52565b6102db81613a52565b610366613879565b85805260fb91828552604087203360005285528160406000205416156105e7575b86805261012d9283865261039e3360408a206138c9565b506103a7613879565b7f65d7a28e3265b37a6474929f336521b332c1681b933f6cb9f3376673440d862a8089528187526040892033600052875283604060002054161561059e575b88528386526103f83360408a206138c9565b50610401613879565b7fa269776b75ac4c5fa422bb11bec3ed3cee626848d07687372583174b209261fb80895281875260408920336000528752836040600020541615610555575b88528386526104523360408a206138c9565b5061045b613879565b7f88f3509f0e42391f2d94ebfb2a37cbd0782b1b8f73715330017f4663290b81179283895281875260408920336000528752604060002054161561050b575b5050855282526104ad33604086206138c9565b506104b6578280f35b7f7f26b83ff96e1f2b6a682f133852f6798a09c465da95921460cefb3847402498917fffffffffffffffffffffffffffffffffffffffffffffffffffffffffffff00ff8454168455604051908152a138808280f35b828852855260408720336000528552856040600020918254161790553333827f2f8788117e7eff1d82e926ec794901d17c78024a50270940304540a733656f0d8980a4388061049a565b80895281875260408920336000528752604060002088848254161790553333827f2f8788117e7eff1d82e926ec794901d17c78024a50270940304540a733656f0d8c80a4610440565b80895281875260408920336000528752604060002088848254161790553333827f2f8788117e7eff1d82e926ec794901d17c78024a50270940304540a733656f0d8c80a46103e6565b86805282855260408720336000528552604060002086828254161790553333887f2f8788117e7eff1d82e926ec794901d17c78024a50270940304540a733656f0d8180a4610387565b015190503880610314565b907fffffffffffffffffffffffffffffffffffffffffffffffffffffffffffffffe08994169160998b527f72a152ddfb8e864297c917af52ea6c1c68aead0fee1a62673fcc7e0c94979d00928b5b8a8282106106c157505084116106a8575b505050811b01609955610328565b015160001960f88460031b161c1916905538808061069a565b8385015186558c97909501949384019301610689565b909150609989527f72a152ddfb8e864297c917af52ea6c1c68aead0fee1a62673fcc7e0c94979d00601f840160051c81019188851061073d575b84939291601f8b920160051c01915b82811061072e5750506102ff565b600081558594508a9101610720565b9091508190610711565b602488634e487b7160e01b81526041600452fd5b7fffffffffffffffffffffffffffffffffffffffffffffffffffffffffffff0000166101011788553861026c565b6084856040519062461bcd60e51b82526004820152602e60248201527f496e697469616c697a61626c653a20636f6e747261637420697320616c72656160448201527f647920696e697469616c697a65640000000000000000000000000000000000006064820152fd5b50303b1580156102355750600182841614610235565b5060018284161061022e565b8380fd5b5080fd5b80fd5b503461081d5760a060031936011261081d5761083a612def565b610842612e12565b60843567ffffffffffffffff8111610815576108629036906004016130a8565b9061086b613879565b73ffffffffffffffffffffffffffffffffffffffff9283610191541633036108db576108b493811633811480156108b7575b6108a79150614e17565b6064359160443591614302565b80f35b508552609860205260408520336000526020526108a760ff6040600020541661089d565b60046040517fece85278000000000000000000000000000000000000000000000000000000008152fd5b503461081d57604060031936011261081d5761091f612def565b6040610929612e12565b9273ffffffffffffffffffffffffffffffffffffffff80931681526098602052209116600052602052602060ff604060002054166040519015158152f35b503461081d578060031936011261081d5760206040517f65d7a28e3265b37a6474929f336521b332c1681b933f6cb9f3376673440d862a8152f35b503461081d57604060031936011261081d57610a2b60043561012d6109c5612e12565b9180855260209060fb82526109e0600160408820015461345e565b6109e8613879565b80865260fb825273ffffffffffffffffffffffffffffffffffffffff6040872094169384600052825260ff60406000205416610a2f575b85525260408320613962565b5080f35b80865260fb82526040862084600052825260406000207fffffffffffffffffffffffffffffffffffffffffffffffffffffffffffffff0081541690553384827ff6391f5c32d9c69d2a47ea670b442974b53935d1edc7fd64eb21e047a839171b8980a4610a1f565b503461081d5760c060031936011261081d57610ab1612def565b60243567ffffffffffffffff8111610d6e57610ad1903690600401612e56565b67ffffffffffffffff60449392933511610815573660236044350112156108155767ffffffffffffffff6044356004013511610815573660246044356004013560081b6044350101116108155760a4359260ff841684036111ca57610b34613879565b610b3c613105565b610b4b6044356004013561365a565b91855b604435600401358110610dc7575090610ba4916064358752602095610193875260ff6040892091167fffffffffffffffffffffffffffffffffffffffffffffffffffffffffffffff008254161790553691612fcb565b604051918483019383851067ffffffffffffffff861117610db157610bce94604052868452613b93565b73ffffffffffffffffffffffffffffffffffffffff600482826101915416604051928380927f7f7081fa0000000000000000000000000000000000000000000000000000000082525afa908115610d79578491610d84575b5016906040517fa4b186f800000000000000000000000000000000000000000000000000000000815260643560048201528181602481865afa918215610d79578492610d3e575b505015610c78575080f35b6044356004013515610d2a578190610c936044803501613aef565b90610ca2606460443501613aef565b91813b15610d2557608460ff918580948460405197889687957f55135b670000000000000000000000000000000000000000000000000000000087526064356004880152873560248801521660448601521660648401525af18015610d1a57610d0a57505080f35b610d1390612eed565b61081d5780f35b6040513d84823e3d90fd5b505050fd5b602482634e487b7160e01b81526032600452fd5b90809250813d8311610d72575b610d558183612f72565b81010312610d6e57518015158103610d6e573880610c6d565b8280fd5b503d610d4b565b6040513d86823e3d90fd5b610da49150833d8511610daa575b610d9c8183612f72565b810190613ac3565b38610c26565b503d610d92565b634e487b7160e01b600052604160045260246000fd5b6101007fffffffffffffffffffffffffffffffffffffffffffffffffffffffffffffffdc8260081b60443501360301126111c6576040518061010081011067ffffffffffffffff61010083011117610db1576101008101604052610e3460248360081b60443501016130f7565b808252610e4960448460081b813501016130f7565b6020830152610e6160648460081b60443501016130f7565b604083015260848360081b60443501013561ffff811681036111c2576060830152610e9560a48460081b6044350101614e88565b6080830152610ead60c48460081b6044350101614e88565b60a0830152610ec560e48460081b6044350101612e35565b60c0830152604435600884901b01610104013563ffffffff811690036111be5760ff906101048460081b60443501013560e0840152168061118d575060ff604082015116600f811161115c575060ff602082015116600f811161112b57507fffff0000000000000000000000000000000000000000000000000000000000008060808301511690610f6f828060001a9060011a605b6040821191101690605b604082119110161690565b806110fc575b156110c157505063ffffffff60e060f080602085015160041b1660ff604086015116177fff00000000000000000000000000000000000000000000000000000000000000855160f81b167dffff000000000000000000000000000000000000000000000000000000006060870151851b16917bffff0000000000000000000000000000000000000000000000000000608088015160201c16931b17171779ffff00000000000000000000000000000000000000000000000060a085015160301c161777ffffffffffffffffffffffffffffffffffffffff0000000060c085015160201b161792015116179081885261019460205260408820546110975781600192895261019460205260643560408a205561109082876136ce565b5201610b4e565b60046040517f5cb045db000000000000000000000000000000000000000000000000000000008152fd5b60a0604493015116604051917f81036ebb00000000000000000000000000000000000000000000000000000000835260048301526024820152fd5b506111268160a0850151168060001a9060011a605b6040821191101690605b604082119110161690565b610f75565b602490604051907f46ac6e0f0000000000000000000000000000000000000000000000000000000082526004820152fd5b602490604051907f4962a53a0000000000000000000000000000000000000000000000000000000082526004820152fd5b602490604051907ff981da6c0000000000000000000000000000000000000000000000000000000082526004820152fd5b8880fd5b8980fd5b8680fd5b600080fd5b503461081d57602060031936011261081d576040602091600435815261012d83522054604051908152f35b503461081d578060031936011261081d5760206040517fa269776b75ac4c5fa422bb11bec3ed3cee626848d07687372583174b209261fb8152f35b503461081d57602060031936011261081d576040602091600435815260c983522054604051908152f35b503461081d57602060031936011261081d5760ff6040602092600435815261019484528181205481526101938452205416604051908152f35b503461081d576020806003193601126108195767ffffffffffffffff60043581811161081557906112ce84923690600401612e56565b90916112d982612fb3565b926112e76040519485612f72565b8284527fffffffffffffffffffffffffffffffffffffffffffffffffffffffffffffffe061131484612fb3565b01855b818110611538575050845b8381106113a7575050505060405191838301848452825180915260408401948060408360051b870101940192955b82871061135d5785850386f35b909192938280611397837fffffffffffffffffffffffffffffffffffffffffffffffffffffffffffffffc08a600196030186528851612eaa565b9601920196019592919092611350565b8060059796971b8201357fffffffffffffffffffffffffffffffffffffffffffffffffffffffffffffffe1833603018112156115345782018035908482116111be57870181360381136111be576113ff913691613071565b303b156114ca57906114a08880848a6114bb96519101305af43d156114c3573d61142881613037565b906114366040519283612f72565b81523d8b8b83013e5b6040519161144c83612f1e565b602783527f416464726573733a206c6f772d6c6576656c2064656c65676174652063616c6c8b8401527f206661696c65640000000000000000000000000000000000000000000000000060408401526136f8565b6114aa82886136ce565b526114b581876136ce565b506136a9565b959495611322565b606061143f565b6084876040519062461bcd60e51b82526004820152602660248201527f416464726573733a2064656c65676174652063616c6c20746f206e6f6e2d636f60448201527f6e747261637400000000000000000000000000000000000000000000000000006064820152fd5b8780fd5b60608682018901528701611317565b503461081d578060031936011261081d5760206040517f88f3509f0e42391f2d94ebfb2a37cbd0782b1b8f73715330017f4663290b81178152f35b503461081d57604060031936011261081d5761159c612def565b60243590811515809203610d6e5773ffffffffffffffffffffffffffffffffffffffff906115c8613879565b1690813314611643573383526098602052604083208260005260205260406000207fffffffffffffffffffffffffffffffffffffffffffffffffffffffffffffff0081541660ff83161790556040519081527f17307eab39ab6107e8899845ad3d59bd9653f200f220920489ca2b5937696c3160203392a380f35b608460405162461bcd60e51b815260206004820152602960248201527f455243313135353a2073657474696e6720617070726f76616c2073746174757360448201527f20666f722073656c6600000000000000000000000000000000000000000000006064820152fd5b503461081d578060031936011261081d57602090604051908152f35b503461081d578060031936011261081d57602061019654604051908152f35b503461081d578060031936011261081d57602073ffffffffffffffffffffffffffffffffffffffff6101915416604051908152f35b503461081d57604060031936011261081d5760043573ffffffffffffffffffffffffffffffffffffffff808216809203610d6e576024803591821680920361081557611767613879565b3360009081527fc88390e7e62175be0932452175b6a7222b6b094ab0ef984a5153c620345d8975602090815260409091205490919060ff161561180e5750916040917f0198d6608a90ff596ba478bf534811a35b9874efc28048e4565488991c137715937fffffffffffffffffffffffff0000000000000000000000000000000000000000610191848282541617905582610192918254161790558351928352820152a180f35b9061181833613756565b600060405161182681612f56565b604281528381019160603684378151156119e2576030835381516001908110156119cf57607860218401536041905b80821161195457505061191257604861190e936118e3936118f2936040519586937f416363657373436f6e74726f6c3a206163636f756e74200000000000000000008a8601526118ae815180928c603789019101612e87565b8401917f206973206d697373696e6720726f6c6520000000000000000000000000000000603784015251809386840190612e87565b01036028810184520182612f72565b60405193849362461bcd60e51b85526004850152830190612eaa565b0390fd5b606485856040519162461bcd60e51b83528160048401528201527f537472696e67733a20686578206c656e67746820696e73756666696369656e746044820152fd5b9091600f811660108110156119ba577f3031323334353637383961626364656600000000000000000000000000000000901a6119908486613745565b5360041c9180156119a5576000190190611855565b87634e487b7160e01b60005260116004526000fd5b88634e487b7160e01b60005260326004526000fd5b8682634e487b7160e01b81526032600452fd5b80634e487b7160e01b8792526032600452fd5b503461081d57604060031936011261081d5773ffffffffffffffffffffffffffffffffffffffff6040611a26612e12565b92600435815260fb602052209116600052602052602060ff604060002054166040519015158152f35b503461081d57604060031936011261081d5773ffffffffffffffffffffffffffffffffffffffff611a92602092600435815261012d845260406024359120613861565b9190546040519260031b1c168152f35b503461081d578060031936011261081d57611abb613306565b611ac3613879565b60017fffffffffffffffffffffffffffffffffffffffffffffffffffffffffffffff0060335416176033557f62e78cea01bee320cd4e420270b5ea74000d11b0c9f74754ebdbfc544b05a2586020604051338152a180f35b503461081d57602060031936011261081d57604060209173ffffffffffffffffffffffffffffffffffffffff611b4f612def565b16815261019583522054604051908152f35b503461081d57606060031936011261081d576108b4611b7e612def565b611b86613879565b611b8e613105565b73ffffffffffffffffffffffffffffffffffffffff610191541660405191611bb583612f3a565b8483526044359160243591614302565b503461081d578060031936011261081d57602060ff603354166040519015158152f35b503461081d576020806003193601126108195773ffffffffffffffffffffffffffffffffffffffff611c18612def565b16825261019581526040822091604051809384918482549182815201918452848420935b85828210611c6b57505050611c5392500383612f72565b611c676040519282849384528301906130c3565b0390f35b8554845260019586019588955093019201611c3c565b503461081d57602060031936011261081d576040602091600435815260c9835220541515604051908152f35b503461081d57604060031936011261081d5767ffffffffffffffff600435818111610d6e5736602382011215610d6e57806004013591611cec83612fb3565b91611cfa6040519384612f72565b83835260209360248585019160051b830101913683116111c6576024869101915b838310611e2c575050505060243590811161081557611d3e903690600401613019565b908051825103611dc257611d52815161365a565b935b8151811015611dab5780611d9673ffffffffffffffffffffffffffffffffffffffff611d83611da694866136ce565b5116611d8f83876136ce565b51906135b6565b611da082886136ce565b526136a9565b611d54565b505050611c676040519282849384528301906130c3565b6084836040519062461bcd60e51b82526004820152602960248201527f455243313135353a206163636f756e747320616e6420696473206c656e67746860448201527f206d69736d6174636800000000000000000000000000000000000000000000006064820152fd5b8190611e3784612e35565b8152019101908590611d1b565b503461081d57602060031936011261081d57600435611e61614dd9565b50611e6a614dd9565b508060f81c90604051611e7c81612f01565b82815260208101908260f41c600f168252604081018360f01c600f1681526060820161ffff90818660e01c16815260808401917fffff000000000000000000000000000000000000000000000000000000000000928391828960201b16825260a0870193838a60301b16855260c088019673ffffffffffffffffffffffffffffffffffffffff98898c60201c16895260e0019963ffffffff809c168b526040519c8d525160ff1660208d01525160ff1660408c0152511660608a015251166080880152511660a0860152511660c0840152511660e082015261010090f35b503461081d578060031936011261081d57611f73613306565b60335460ff811615611fd1577fffffffffffffffffffffffffffffffffffffffffffffffffffffffffffffff00166033557f5db9ee0a495bf2e6ff9c91a7834c1ba4fdd244a5e8aa4e537bd38aeae4b073aa6020604051338152a180f35b606460405162461bcd60e51b815260206004820152601460248201527f5061757361626c653a206e6f74207061757365640000000000000000000000006044820152fd5b503461081d57602060031936011261081d576040602091600435815261019483522054604051908152f35b503461081d57604060031936011261081d5760248035600435612061613879565b7f88f3509f0e42391f2d94ebfb2a37cbd0782b1b8f73715330017f4663290b811780855260209060fb825260408620338752825260ff6040872054161561241d5750849173ffffffffffffffffffffffffffffffffffffffff948582841c166120ca83826135b6565b806123ca575b50508484106120dd578680f35b604051907f9562364100000000000000000000000000000000000000000000000000000000918281528481600481305afa908115612378576121289185918b916123b3575b506135b6565b80612253575b50505083831061213d57808680f35b6040517f2707193b00000000000000000000000000000000000000000000000000000000908181528381600481305afa90811561222b576121869184918a9161223657506135b6565b612191575b50808680f35b6121a58461219f8188613955565b96613955565b926040519182528082600481305afa96871561222b57612202977fa3e3305406da7d3ab7958c0d4f44dd038bf894f9f78fef266ecec276b483b5df938a9161220e575b506121f4868683614eb5565b6040519586521693a3613738565b5038808080808061218b565b6122259150833d8511610daa57610d9c8183612f72565b386121e8565b6040513d8a823e3d90fd5b61224d9150863d8811610daa57610d9c8183612f72565b38612122565b61226286889793949597613955565b90808210156123ab5750915b6040518481528581600481305afa80156123a057878591612296938d91612383575b50614eb5565b8888610191541691823b1561081957604485918360405195869485937f366a41200000000000000000000000000000000000000000000000000000000085528d60048601528401525af1801561237857612365575b506040519283528383600481305afa801561222b5761233f938991612348575b50857fa3e3305406da7d3ab7958c0d4f44dd038bf894f9f78fef266ecec276b483b5df868a604051948786521693a3613738565b9138808061212e565b61235f9150853d8711610daa57610d9c8183612f72565b3861230b565b61237190989198612eed565b96386122eb565b6040513d8b823e3d90fd5b61239a9150893d8b11610daa57610d9c8183612f72565b38612290565b6040513d8c823e3d90fd5b90509161226e565b61224d9150873d8911610daa57610d9c8183612f72565b9194509080861015612417575084905b6123e5828483614eb5565b827fa3e3305406da7d3ab7958c0d4f44dd038bf894f9f78fef266ecec276b483b5df85604051858152a39238806120d0565b906123da565b8492508561242a33613756565b916040519061243882612f56565b6042825284820192606036853782511561254f576030845382519060019182101561253c5790607860218501536041915b8183116124c35750505061191257604861190e936118e3936118f2936040519586937f416363657373436f6e74726f6c3a206163636f756e74200000000000000000008a8601526118ae815180928c603789019101612e87565b909192600f81166010811015612529577f3031323334353637383961626364656600000000000000000000000000000000901a6125008587613745565b5360041c92801561251657600019019190612469565b8882634e487b7160e01b81526011600452fd5b8983634e487b7160e01b81526032600452fd5b80634e487b7160e01b8992526032600452fd5b80634e487b7160e01b8892526032600452fd5b503461081d57604060031936011261081d5760043573ffffffffffffffffffffffffffffffffffffffff612594612e12565b1633810361264057610a2b916125a8613879565b80845260fb6020526040842082855260205260ff6040852054166125d8575b835261012d60205260408320613962565b80845260fb60205260408420828552602052604084207fffffffffffffffffffffffffffffffffffffffffffffffffffffffffffffff0081541690553382827ff6391f5c32d9c69d2a47ea670b442974b53935d1edc7fd64eb21e047a839171b8780a46125c7565b608460405162461bcd60e51b815260206004820152602f60248201527f416363657373436f6e74726f6c3a2063616e206f6e6c792072656e6f756e636560448201527f20726f6c657320666f722073656c6600000000000000000000000000000000006064820152fd5b503461081d57606060031936011261081d576126c4612def565b67ffffffffffffffff919060248035848111610815576126e8903690600401612e56565b9190946044359081116127b857612703903690600401612e56565b909161270d613879565b612715613105565b855b8281106127525750509461273461273c926108b496973691612fcb565b923691612fcb565b906040519261274a84612f3a565b858452613b93565b61275d818486614210565b35875261019460205260408720541561277e57612779906136a9565b612717565b612789919284614210565b35604051907fac0522ad0000000000000000000000000000000000000000000000000000000082526004820152fd5b8480fd5b503461081d57604060031936011261081d57610a2b60043561012d6127df612e12565b9180855260209060fb82526127fa600160408820015461345e565b612802613879565b80865260fb825273ffffffffffffffffffffffffffffffffffffffff60408720941693848752825260ff60408720541615612844575b855252604083206138c9565b80865260fb82526040862084875282526040862060017fffffffffffffffffffffffffffffffffffffffffffffffffffffffffffffff008254161790553384827f2f8788117e7eff1d82e926ec794901d17c78024a50270940304540a733656f0d8980a4612838565b503461081d5760a060031936011261081d576128c7612def565b6128cf612e12565b67ffffffffffffffff6044358181116127b8576128f0903690600401613019565b60643582811161298d57612908903690600401613019565b9160843590811161298d576129219036906004016130a8565b9261292a613879565b73ffffffffffffffffffffffffffffffffffffffff9485610191541633036108db576108b4958116338114801561296b575b6129669150614e17565b6148d8565b50875260986020526040872033885260205261296660ff60408920541661295c565b8580fd5b503461081d578060031936011261081d57602073ffffffffffffffffffffffffffffffffffffffff6101925416604051908152f35b503461081d57602060031936011261081d5760016040602092600435815260fb8452200154604051908152f35b503461081d5760208060031936011261081957604051918281609954612a188161357c565b93848452600191868382169182600014612ab2575050600114612a58575b5050612a4492500383612f72565b611c67604051928284938452830190612eaa565b90859250609982527f72a152ddfb8e864297c917af52ea6c1c68aead0fee1a62673fcc7e0c94979d005b858310612a9a575050612a4493508201013880612a36565b80548389018501528794508693909201918101612a82565b91509350612a449592507fffffffffffffffffffffffffffffffffffffffffffffffffffffffffffffff0091501682840152151560051b8201013880612a36565b503461081d57608060031936011261081d5767ffffffffffffffff600435818111610d6e57612b26903690600401612e56565b909160243590811161081557612b40903690600401612e56565b6044929192359273ffffffffffffffffffffffffffffffffffffffff928385168095036111c65760643593612b73613879565b612b7b613105565b610192541693604051957fa2309ff800000000000000000000000000000000000000000000000000000000875260209687816004818a5afa9081156123a0578a91612c4b575b509282828695612734958c957fdac31445436d97d820b8ffd065c1e725892600c2407efafdfeea08b5ea4b1ed86108b49e878f612c21908f612c449f612c1460405196879660408852604088019161489b565b928584039086015261489b565b0390a4604051998a0152604089015260408852612c3d88612f1e565b3691612fcb565b91336148d8565b929891949390508783813d8311612c7f575b612c678183612f72565b810103126111c2579151909792939192919082612bc1565b503d612c5d565b503461081d57602060031936011261081d576004357fffffffff00000000000000000000000000000000000000000000000000000000811680910361081957807f5a05180f0000000000000000000000000000000000000000000000000000000060209214908115612cfe575b506040519015158152f35b7f7965db0b00000000000000000000000000000000000000000000000000000000811491508115612d31575b5082612cf3565b7fd9b67a2600000000000000000000000000000000000000000000000000000000811491508115612d95575b8115612d6b575b5082612d2a565b7f01ffc9a70000000000000000000000000000000000000000000000000000000091501482612d64565b7f0e89341c0000000000000000000000000000000000000000000000000000000081149150612d5d565b503461081d57604060031936011261081d576020612de7612dde612def565b602435906135b6565b604051908152f35b6004359073ffffffffffffffffffffffffffffffffffffffff821682036111ca57565b6024359073ffffffffffffffffffffffffffffffffffffffff821682036111ca57565b359073ffffffffffffffffffffffffffffffffffffffff821682036111ca57565b9181601f840112156111ca5782359167ffffffffffffffff83116111ca576020808501948460051b0101116111ca57565b60005b838110612e9a5750506000910152565b8181015183820152602001612e8a565b907fffffffffffffffffffffffffffffffffffffffffffffffffffffffffffffffe0601f602093612ee681518092818752878088019101612e87565b0116010190565b67ffffffffffffffff8111610db157604052565b610100810190811067ffffffffffffffff821117610db157604052565b6060810190811067ffffffffffffffff821117610db157604052565b6020810190811067ffffffffffffffff821117610db157604052565b6080810190811067ffffffffffffffff821117610db157604052565b90601f7fffffffffffffffffffffffffffffffffffffffffffffffffffffffffffffffe0910116810190811067ffffffffffffffff821117610db157604052565b67ffffffffffffffff8111610db15760051b60200190565b9291612fd682612fb3565b91612fe46040519384612f72565b829481845260208094019160051b81019283116111ca57905b82821061300a5750505050565b81358152908301908301612ffd565b9080601f830112156111ca5781602061303493359101612fcb565b90565b67ffffffffffffffff8111610db157601f017fffffffffffffffffffffffffffffffffffffffffffffffffffffffffffffffe01660200190565b92919261307d82613037565b9161308b6040519384612f72565b8294818452818301116111ca578281602093846000960137010152565b9080601f830112156111ca5781602061303493359101613071565b90815180825260208080930193019160005b8281106130e3575050505090565b8351855293810193928101926001016130d5565b359060ff821682036111ca57565b3360009081527fba06a78ec98734fb5637b51b6458f4ba0a229fe2bbc86ce5d18073647cb408f3602090815260408083205490927fa269776b75ac4c5fa422bb11bec3ed3cee626848d07687372583174b209261fb9160ff16156131695750505050565b61317233613756565b9184519061317f82612f56565b604282528482019260603685378251156132f257603084538251906001918210156132f25790607860218501536041915b8183116132775750505061323557604861190e9386936132199361320a98519889937f416363657373436f6e74726f6c3a206163636f756e74200000000000000000008a8601526118ae815180928c603789019101612e87565b01036028810187520185612f72565b5192839262461bcd60e51b845260048401526024830190612eaa565b60648486519062461bcd60e51b825280600483015260248201527f537472696e67733a20686578206c656e67746820696e73756666696369656e746044820152fd5b909192600f811660108110156132de577f3031323334353637383961626364656600000000000000000000000000000000901a6132b48587613745565b5360041c9280156132ca576000190191906131b0565b602482634e487b7160e01b81526011600452fd5b602483634e487b7160e01b81526032600452fd5b80634e487b7160e01b602492526032600452fd5b3360009081527fc81858b0fc5e8d7d2c7a341b4e13a62a27b51e1da1072bf5f7fee8fdef673e94602090815260408083205490927f65d7a28e3265b37a6474929f336521b332c1681b933f6cb9f3376673440d862a9160ff161561336a5750505050565b61337333613756565b9184519061338082612f56565b604282528482019260603685378251156132f257603084538251906001918210156132f25790607860218501536041915b81831161340b5750505061323557604861190e9386936132199361320a98519889937f416363657373436f6e74726f6c3a206163636f756e74200000000000000000008a8601526118ae815180928c603789019101612e87565b909192600f811660108110156132de577f3031323334353637383961626364656600000000000000000000000000000000901a6134488587613745565b5360041c9280156132ca576000190191906133b1565b60009080825260209060fb8252604092838120338252835260ff8482205416156134885750505050565b61349133613756565b9184519061349e82612f56565b604282528482019260603685378251156132f257603084538251906001918210156132f25790607860218501536041915b8183116135295750505061323557604861190e9386936132199361320a98519889937f416363657373436f6e74726f6c3a206163636f756e74200000000000000000008a8601526118ae815180928c603789019101612e87565b909192600f811660108110156132de577f3031323334353637383961626364656600000000000000000000000000000000901a6135668587613745565b5360041c9280156132ca576000190191906134cf565b90600182811c921680156135ac575b602083101461359657565b634e487b7160e01b600052602260045260246000fd5b91607f169161358b565b73ffffffffffffffffffffffffffffffffffffffff169081156135f057600052609760205260406000209060005260205260406000205490565b608460405162461bcd60e51b815260206004820152602a60248201527f455243313135353a2061646472657373207a65726f206973206e6f742061207660448201527f616c6964206f776e6572000000000000000000000000000000000000000000006064820152fd5b9061366482612fb3565b6136716040519182612f72565b8281527fffffffffffffffffffffffffffffffffffffffffffffffffffffffffffffffe061369f8294612fb3565b0190602036910137565b60001981146136b85760010190565b634e487b7160e01b600052601160045260246000fd5b80518210156136e25760209160051b010190565b634e487b7160e01b600052603260045260246000fd5b90919015613704575090565b8151156137145750805190602001fd5b61190e9060405191829162461bcd60e51b8352602060048401526024830190612eaa565b919082018092116136b857565b9081518110156136e2570160200190565b6040519061376382612f1e565b602a82526020820160403682378251156136e2576030905381516001908110156136e257607860218401536029905b8082116137e65750506137a25790565b606460405162461bcd60e51b815260206004820152602060248201527f537472696e67733a20686578206c656e67746820696e73756666696369656e746044820152fd5b9091600f8116601081101561384c577f3031323334353637383961626364656600000000000000000000000000000000901a6138228486613745565b5360041c918015613837576000190190613792565b60246000634e487b7160e01b81526011600452fd5b60246000634e487b7160e01b81526032600452fd5b80548210156136e25760005260206000200190600090565b60ff6033541661388557565b606460405162461bcd60e51b815260206004820152601060248201527f5061757361626c653a20706175736564000000000000000000000000000000006044820152fd5b9190600183016000908282528060205260408220541560001461394f578454946801000000000000000086101561393b578361392b613912886001604098999a01855584613861565b819391549060031b600019811b9283911b169119161790565b9055549382526020522055600190565b602483634e487b7160e01b81526041600452fd5b50925050565b919082039182116136b857565b90600182019060009281845282602052604084205490811515600014613a4b5760001991828101818111613a3757825490848201918211613a23578082036139ee575b505050805480156139da578201916139bd8383613861565b909182549160031b1b191690555582526020526040812055600190565b602486634e487b7160e01b81526031600452fd5b613a0e6139fe6139129386613861565b90549060031b1c92839286613861565b905586528460205260408620553880806139a5565b602488634e487b7160e01b81526011600452fd5b602487634e487b7160e01b81526011600452fd5b5050505090565b15613a5957565b608460405162461bcd60e51b815260206004820152602b60248201527f496e697469616c697a61626c653a20636f6e7472616374206973206e6f74206960448201527f6e697469616c697a696e670000000000000000000000000000000000000000006064820152fd5b908160209103126111ca575173ffffffffffffffffffffffffffffffffffffffff811681036111ca5790565b3560ff811681036111ca5790565b15613b0457565b608460405162461bcd60e51b815260206004820152602860248201527f455243313135353a2069647320616e6420616d6f756e7473206c656e6774682060448201527f6d69736d617463680000000000000000000000000000000000000000000000006064820152fd5b9091613b85613034936040845260408401906130c3565b9160208184039101526130c3565b90919373ffffffffffffffffffffffffffffffffffffffff90818316918215908115916140e157613bc78651895114613afd565b613bcf613879565b8061019154169080610192541690828614809281156140d7575b81156140ce575b8115614031575b508851931560005b8a8d878310613f6357505050505050505060005b8551811015613c5a5780613c2a613c55928a6136ce565b51613c3582896136ce565b5160005260c9602052613c4e6040600020918254613738565b90556136a9565b613c13565b509091929460005b8551811015613cae5780613c79613ca9928a6136ce565b51613c8482896136ce565b51600052613c4e60206097815260409081600020908a60005252600020918254613738565b613c62565b509195909460409584600088517f4a39dc06d4c0dbc64b70af90fd698a233a518aa5d07e595d983b8c0526c8f7fb339180613cea898d83613b6e565b0390a484600052610195602052866000206000805286519160005b838110613f3657505050503b613d1d575b5050505050565b613d989260209260008751809681958294613d89613d767fbc197c81000000000000000000000000000000000000000000000000000000009c8d875233600488015287602488015260a0604488015260a48701906130c3565b60031993848783030160648801526130c3565b91848303016084850152612eaa565b03925af160009181613f06575b50613e705750506001613db6614183565b6308c379a014613e3a575b613dd157505b3880808080613d16565b5162461bcd60e51b815260206004820152603460248201527f455243313135353a207472616e7366657220746f206e6f6e204552433131353560448201527f526563656976657220696d706c656d656e7465720000000000000000000000006064820152608490fd5b613e426141a1565b80613e4d5750613dc1565b61190e90835191829162461bcd60e51b8352602060048401526024830190612eaa565b7fffffffff000000000000000000000000000000000000000000000000000000001603613e9d5750613dc7565b5162461bcd60e51b815260206004820152602860248201527f455243313135353a204552433131353552656365697665722072656a6563746560448201527f6420746f6b656e730000000000000000000000000000000000000000000000006064820152608490fd5b613f2891925060203d8111613f2f575b613f208183612f72565b81019061414b565b9038613da5565b503d613f16565b8082613f446001938c6136ce565b5190613f52575b5001613d05565b613f5c90856138c9565b5038613f4b565b8284613f70828a956136ce565b5193613fcd575b613fac575b50508484159182613f9c575b50506108db57613f97906136a9565b613bff565b60201c168a141590508438613f88565b613fb5916136ce565b51613fc4610196918254613955565b90558d82613f7c565b50613fd7916136ce565b5115614000578d8284613fea82846136ce565b51613ff9610196918254613738565b9055613f77565b602490604051907fd2a758110000000000000000000000000000000000000000000000000000000082526004820152fd5b3360009081527fba06a78ec98734fb5637b51b6458f4ba0a229fe2bbc86ce5d18073647cb408f3602052604081205460ff1692507fa269776b75ac4c5fa422bb11bec3ed3cee626848d07687372583174b209261fb9183614096575b50505038613bf7565b891492509082156140ac575b505038808061408d565b60ff925090604091815260fb60205281812089825260205220541638806140a2565b60009150613bf0565b8781149150613be9565b608460405162461bcd60e51b815260206004820152602160248201527f455243313135353a206d696e7420746f20746865207a65726f2061646472657360448201527f73000000000000000000000000000000000000000000000000000000000000006064820152fd5b908160209103126111ca57517fffffffff00000000000000000000000000000000000000000000000000000000811681036111ca5790565b60009060033d1161419057565b905060046000803e60005160e01c90565b600060443d106130345760405160031991823d016004833e815167ffffffffffffffff918282113d6024840111176141ff57818401948551938411614207573d850101602084870101116141ff575061303492910160200190612f72565b949350505050565b50949350505050565b91908110156136e25760051b0190565b1561422757565b608460405162461bcd60e51b815260206004820152602560248201527f455243313135353a207472616e7366657220746f20746865207a65726f20616460448201527f64726573730000000000000000000000000000000000000000000000000000006064820152fd5b1561429857565b608460405162461bcd60e51b815260206004820152602a60248201527f455243313135353a20696e73756666696369656e742062616c616e636520666f60448201527f72207472616e73666572000000000000000000000000000000000000000000006064820152fd5b9290939173ffffffffffffffffffffffffffffffffffffffff9283861680159687159761432e89614220565b61433785614865565b61434087614865565b97614349613879565b8061019154168161019254168187148091811561485b575b8115614853575b81156147b6575b508b928d858751956000925b8988851061470b575096505050505050501697881592836146c8575b6145e3575b50908560005260209860978a5260409a8b6000208a6000528b52888c60002054818110156143c990614291565b8960005260978d528d6000208c6000528d52038c600020558760005260978b528b600020866000528b528b6000208981549061440491613738565b9055858a8d8d8c8251918d835282015233917fc3d58168c5ae7397731d063d5bbf3d657854427343f4c083240f7aacaa2d0f6291a4856000526101958b528b600020928a6000528c6000209085519560009115915b8781106145925750505050505050503b614477575b50505050505050565b6144d393600087948951968795869485937ff23a6e61000000000000000000000000000000000000000000000000000000009b8c865233600487015260248601526044850152606484015260a0608484015260a4830190612eaa565b03925af160009181614573575b506145445750506001906144f2614183565b6308c379a014614510575b50613dd157505b3880808080808061446e565b6145186141a1565b908161452457506144fd565b61190e845192839262461bcd60e51b845260048401526024830190612eaa565b7fffffffff0000000000000000000000000000000000000000000000000000000016039050613e9d5750614504565b61458b919250843d8611613f2f57613f208183612f72565b90386144e0565b8083866145a1600194866136ce565b51916145c5575b6145b4575b5001614459565b6145be90896138c9565b50386145ad565b6145cf828a6135b6565b6145a8576145dd8288613962565b506145a8565b9a9794919996939098959260005b8a518110156146b5578c61461082614609818f6136ce565b51926136ce565b518160005260c99160209280845260409384600020549284841061464c5790614647969594939291600052520390600020556136a9565b6145f1565b60848287519062461bcd60e51b82526004820152602860248201527f455243313135353a206275726e20616d6f756e74206578636565647320746f7460448201527f616c537570706c790000000000000000000000000000000000000000000000006064820152fd5b50929598909396999194979a503861439c565b9a979491999693909b98959260005b8b518110156146f957808c8f826146096146f495613c35936136ce565b6146d7565b509295989b909396999194979a614397565b8793859261471a8489946136ce565b519561477d575b161461475c575b5050868415918261474c575b50506108db57614743906136a9565b858f8f9061437b565b60201c168b141590508638614734565b614765916136ce565b51614774610196918254613955565b90558e82614728565b505050614789916136ce565b5115614000578f8f90848985926147a084866136ce565b516147af610196918254613738565b9055614721565b3360009081527fba06a78ec98734fb5637b51b6458f4ba0a229fe2bbc86ce5d18073647cb408f3602052604081205460ff1692507fa269776b75ac4c5fa422bb11bec3ed3cee626848d07687372583174b209261fb918361481b575b5050503861436f565b8a149250908215614831575b5050388080614812565b60ff925090604091815260fb6020528181208a82526020522054163880614827565b869150614368565b8881149150614361565b604051906040820182811067ffffffffffffffff821117610db157604052600182526020820160203682378251156136e2575290565b90918281527f07ffffffffffffffffffffffffffffffffffffffffffffffffffffffffffffff83116111ca5760209260051b809284830137010190565b93949190916148ea8251855114613afd565b73ffffffffffffffffffffffffffffffffffffffff948584169687159485159761491389614220565b61491b613879565b806101915416816101925416818c1480918115614dcf575b8115614dc7575b8115614d20575b508851926000858f8e8b8e5b898610614c725750975050505050505050169586159081614c36575b614bc1575b60005b86518110156149fc578089613c4e8a8e614999856149926149f7988f6136ce565b51956136ce565b519380600052609760209181835286604095866000208160005285528660002054906149c783831015614291565b83600052848652876000209060005285520385600020556000528152826000209160005252600020918254613738565b614971565b5090919596939892976040988489887f4a39dc06d4c0dbc64b70af90fd698a233a518aa5d07e595d983b8c0526c8f7fb8d5180614a3b8c339583613b6e565b0390a4846000526101956020528960002091896000528a6000208851948960009115915b878110614b6f5750505050505050503b614a7c575b505050505050565b613d766000602094614ad5613d89958a51988997889687957fbc197c81000000000000000000000000000000000000000000000000000000009d8e8852336004890152602488015260a0604488015260a48701906130c3565b03925af160009181614b4f575b50614b225750506001614af3614183565b6308c379a014614b0f575b613dd157505b388080808080614a74565b614b176141a1565b80613e4d5750614afe565b7fffffffff000000000000000000000000000000000000000000000000000000001603613e9d5750614b04565b614b6891925060203d8111613f2f57613f208183612f72565b9038614ae2565b8285614b7d836001956136ce565b5191614ba3575b614b92575b50018a90614a5f565b614b9c90886138c9565b5038614b89565b614bad82896135b6565b614b8457614bbb8287613962565b50614b84565b97949698959392919060005b8851811015614c2757614be0818a6136ce565b51614beb828d6136ce565b518160005260c99160209280845260409384600020549284841061464c5790614c22969594939291600052520390600020556136a9565b614bcd565b5090919293959896949761496e565b98959996949392919060005b8b51811015614c6357808c613c3582614609614c5e958f6136ce565b614c42565b50909192939496999598614969565b88948692614c81848a946136ce565b5196614ce6575b1614614cc5575b50508785159283614cb5575b5050506108db57614cab906136a9565b858f8e8b8e61494d565b60201c16141590508f8738614c9b565b614cce916136ce565b51614cdd610196918254613955565b90558e83614c8f565b50505090614cf492506136ce565b5115614000578f8e83858a8e614d0a84866136ce565b51614d19610196918254613738565b9055614c88565b3360009081527fba06a78ec98734fb5637b51b6458f4ba0a229fe2bbc86ce5d18073647cb408f3602052604081205460ff1692507fa269776b75ac4c5fa422bb11bec3ed3cee626848d07687372583174b209261fb918f919084614d89575b5050505038614941565b90918093945014918215614da5575b50509050388d8180614d7f565b6040925060ff93825260fb60205282822090825260205220541680388e614d98565b8a915061493a565b8d81149150614933565b60405190614de682612f01565b8160e06000918281528260208201528260408201528260608201528260808201528260a08201528260c08201520152565b15614e1e57565b608460405162461bcd60e51b815260206004820152602f60248201527f455243313135353a2063616c6c6572206973206e6f7420746f6b656e206f776e60448201527f6572206e6f7220617070726f76656400000000000000000000000000000000006064820152fd5b35907fffff000000000000000000000000000000000000000000000000000000000000821682036111ca57565b909173ffffffffffffffffffffffffffffffffffffffff918281169485156152bb57614ee085614865565b91614eea84614865565b96604094855196614efa88612f3a565b6000809852614f07613879565b80610191541690806101925416908215809281156152b2575b81156152a9575b811561522e575b5088519386148b8a8f5b878310615137575050505050505050865b855181101561500157614f5c81876136ce565b51614f67828c6136ce565b5190808a5260c960208181528a8c205492848410614f98578c5252888a209190039055614f93906136a9565b614f49565b6084828d519062461bcd60e51b82526004820152602860248201527f455243313135353a206275726e20616d6f756e74206578636565647320746f7460448201527f616c537570706c790000000000000000000000000000000000000000000000006064820152fd5b50919493959690929750808752602091609783528488208489528352848820548181106150cf5782828a9387936101959796865260978752898620858752875203888520558751918252848201527fc3d58168c5ae7397731d063d5bbf3d657854427343f4c083240f7aacaa2d0f62873392a486845161508081612f3a565b525284528320918051935b848110615099575050505050565b806150a6600192846136ce565b516150b181866135b6565b156150be575b500161508b565b6150c89086613962565b50386150b7565b60848487519062461bcd60e51b825260048201526024808201527f455243313135353a206275726e20616d6f756e7420657863656564732062616c60448201527f616e6365000000000000000000000000000000000000000000000000000000006064820152fd5b8284615144828a956136ce565b51936151cb575b6151aa575b5050848415918261519b575b50506151725761516b906136a9565b8a8f614f38565b60048c517fece85278000000000000000000000000000000000000000000000000000000008152fd5b60201c1615159050843861515c565b6151b3916136ce565b516151c2610196918254613955565b90558f82615150565b506151d5916136ce565b51156151fe578f82846151e882846136ce565b516151f7610196918254613738565b905561514b565b6024908d51907fd2a758110000000000000000000000000000000000000000000000000000000082526004820152fd5b90507fa269776b75ac4c5fa422bb11bec3ed3cee626848d07687372583174b209261fb808c5260fb6020528a8c20338d5260205260ff8b8d2054169182615278575b505038614f2e565b159150811561528a575b503880615270565b90508a5260fb602052888a208a805260205260ff898b20541638615282565b60019150614f27565b80159150614f20565b608460405162461bcd60e51b815260206004820152602360248201527f455243313135353a206275726e2066726f6d20746865207a65726f206164647260448201527f65737300000000000000000000000000000000000000000000000000000000006064820152fdfea26469706673582212204a719058479e445f99484a8ea8fa3709df9735a5c5456439aa22ff2d3444ba3264736f6c63430008110033"
}