{
  "address": "0xa051E9EeaC803d2fCA1DbF415b78AD9BfEB723b0",
  "abi": [
    {
      "inputs": [],
      "stateMutability": "nonpayable",
      "type": "constructor"
    },
    {
      "inputs": [],
      "name": "ForbiddenTransfer",
      "type": "error"
    },
    {
      "inputs": [],
      "name": "InvalidData",
      "type": "error"
    },
    {
      "inputs": [
        {
          "internalType": "uint256",
          "name": "tokenId",
          "type": "uint256"
        }
      ],
      "name": "InvalidTokenTransfer",
      "type": "error"
    },
    {
      "inputs": [
        {
          "internalType": "uint8",
          "name": "methodologyVersion",
          "type": "uint8"
        }
      ],
      "name": "MethodologyVersionTooLarge",
      "type": "error"
    },
    {
      "inputs": [
        {
          "internalType": "uint256",
          "name": "tokenId",
          "type": "uint256"
        }
      ],
      "name": "RemovalNotYetMinted",
      "type": "error"
    },
    {
      "inputs": [
        {
          "internalType": "bytes2",
          "name": "country",
          "type": "bytes2"
        },
        {
          "internalType": "bytes2",
          "name": "subdivision",
          "type": "bytes2"
        }
      ],
      "name": "UncapitalizedString",
      "type": "error"
    },
    {
      "inputs": [
        {
          "internalType": "uint8",
          "name": "idVersion",
          "type": "uint8"
        }
      ],
      "name": "UnsupportedIdVersion",
      "type": "error"
    },
    {
      "anonymous": false,
      "inputs": [
        {
          "indexed": true,
          "internalType": "address",
          "name": "account",
          "type": "address"
        },
        {
          "indexed": true,
          "internalType": "address",
          "name": "operator",
          "type": "address"
        },
        {
          "indexed": false,
          "internalType": "bool",
          "name": "approved",
          "type": "bool"
        }
      ],
      "name": "ApprovalForAll",
      "type": "event"
    },
    {
      "anonymous": false,
      "inputs": [
        {
          "indexed": false,
          "internalType": "contract Market",
          "name": "market",
          "type": "address"
        },
        {
          "indexed": false,
          "internalType": "contract Certificate",
          "name": "certificate",
          "type": "address"
        }
      ],
      "name": "ContractAddressesRegistered",
      "type": "event"
    },
    {
      "anonymous": false,
      "inputs": [
        {
          "indexed": false,
          "internalType": "uint8",
          "name": "version",
          "type": "uint8"
        }
      ],
      "name": "Initialized",
      "type": "event"
    },
    {
      "anonymous": false,
      "inputs": [
        {
          "indexed": false,
          "internalType": "address",
          "name": "account",
          "type": "address"
        }
      ],
      "name": "Paused",
      "type": "event"
    },
    {
      "anonymous": false,
      "inputs": [
        {
          "indexed": true,
          "internalType": "uint256",
          "name": "id",
          "type": "uint256"
        },
        {
          "indexed": true,
          "internalType": "address",
          "name": "fromAddress",
          "type": "address"
        },
        {
          "indexed": false,
          "internalType": "uint256",
          "name": "amount",
          "type": "uint256"
        }
      ],
      "name": "RemovalReleased",
      "type": "event"
    },
    {
      "anonymous": false,
      "inputs": [
        {
          "indexed": true,
          "internalType": "bytes32",
          "name": "role",
          "type": "bytes32"
        },
        {
          "indexed": true,
          "internalType": "bytes32",
          "name": "previousAdminRole",
          "type": "bytes32"
        },
        {
          "indexed": true,
          "internalType": "bytes32",
          "name": "newAdminRole",
          "type": "bytes32"
        }
      ],
      "name": "RoleAdminChanged",
      "type": "event"
    },
    {
      "anonymous": false,
      "inputs": [
        {
          "indexed": true,
          "internalType": "bytes32",
          "name": "role",
          "type": "bytes32"
        },
        {
          "indexed": true,
          "internalType": "address",
          "name": "account",
          "type": "address"
        },
        {
          "indexed": true,
          "internalType": "address",
          "name": "sender",
          "type": "address"
        }
      ],
      "name": "RoleGranted",
      "type": "event"
    },
    {
      "anonymous": false,
      "inputs": [
        {
          "indexed": true,
          "internalType": "bytes32",
          "name": "role",
          "type": "bytes32"
        },
        {
          "indexed": true,
          "internalType": "address",
          "name": "account",
          "type": "address"
        },
        {
          "indexed": true,
          "internalType": "address",
          "name": "sender",
          "type": "address"
        }
      ],
      "name": "RoleRevoked",
      "type": "event"
    },
    {
      "anonymous": false,
      "inputs": [
        {
          "indexed": true,
          "internalType": "address",
          "name": "operator",
          "type": "address"
        },
        {
          "indexed": true,
          "internalType": "address",
          "name": "from",
          "type": "address"
        },
        {
          "indexed": true,
          "internalType": "address",
          "name": "to",
          "type": "address"
        },
        {
          "indexed": false,
          "internalType": "uint256[]",
          "name": "ids",
          "type": "uint256[]"
        },
        {
          "indexed": false,
          "internalType": "uint256[]",
          "name": "values",
          "type": "uint256[]"
        }
      ],
      "name": "TransferBatch",
      "type": "event"
    },
    {
      "anonymous": false,
      "inputs": [
        {
          "indexed": true,
          "internalType": "address",
          "name": "operator",
          "type": "address"
        },
        {
          "indexed": true,
          "internalType": "address",
          "name": "from",
          "type": "address"
        },
        {
          "indexed": true,
          "internalType": "address",
          "name": "to",
          "type": "address"
        },
        {
          "indexed": false,
          "internalType": "uint256",
          "name": "id",
          "type": "uint256"
        },
        {
          "indexed": false,
          "internalType": "uint256",
          "name": "value",
          "type": "uint256"
        }
      ],
      "name": "TransferSingle",
      "type": "event"
    },
    {
      "anonymous": false,
      "inputs": [
        {
          "indexed": false,
          "internalType": "string",
          "name": "value",
          "type": "string"
        },
        {
          "indexed": true,
          "internalType": "uint256",
          "name": "id",
          "type": "uint256"
        }
      ],
      "name": "URI",
      "type": "event"
    },
    {
      "anonymous": false,
      "inputs": [
        {
          "indexed": false,
          "internalType": "address",
          "name": "account",
          "type": "address"
        }
      ],
      "name": "Unpaused",
      "type": "event"
    },
    {
      "inputs": [],
      "name": "CONSIGNOR_ROLE",
      "outputs": [
        {
          "internalType": "bytes32",
          "name": "",
          "type": "bytes32"
        }
      ],
      "stateMutability": "view",
      "type": "function"
    },
    {
      "inputs": [],
      "name": "DEFAULT_ADMIN_ROLE",
      "outputs": [
        {
          "internalType": "bytes32",
          "name": "",
          "type": "bytes32"
        }
      ],
      "stateMutability": "view",
      "type": "function"
    },
    {
      "inputs": [],
      "name": "PAUSER_ROLE",
      "outputs": [
        {
          "internalType": "bytes32",
          "name": "",
          "type": "bytes32"
        }
      ],
      "stateMutability": "view",
      "type": "function"
    },
    {
      "inputs": [],
      "name": "RELEASER_ROLE",
      "outputs": [
        {
          "internalType": "bytes32",
          "name": "",
          "type": "bytes32"
        }
      ],
      "stateMutability": "view",
      "type": "function"
    },
    {
      "inputs": [
        {
          "internalType": "address",
          "name": "to",
          "type": "address"
        },
        {
          "internalType": "uint256[]",
          "name": "amounts",
          "type": "uint256[]"
        },
        {
          "internalType": "uint256[]",
          "name": "ids",
          "type": "uint256[]"
        }
      ],
      "name": "addBalance",
      "outputs": [],
      "stateMutability": "nonpayable",
      "type": "function"
    },
    {
      "inputs": [
        {
          "internalType": "address",
          "name": "account",
          "type": "address"
        },
        {
          "internalType": "uint256",
          "name": "id",
          "type": "uint256"
        }
      ],
      "name": "balanceOf",
      "outputs": [
        {
          "internalType": "uint256",
          "name": "",
          "type": "uint256"
        }
      ],
      "stateMutability": "view",
      "type": "function"
    },
    {
      "inputs": [
        {
          "internalType": "address[]",
          "name": "accounts",
          "type": "address[]"
        },
        {
          "internalType": "uint256[]",
          "name": "ids",
          "type": "uint256[]"
        }
      ],
      "name": "balanceOfBatch",
      "outputs": [
        {
          "internalType": "uint256[]",
          "name": "",
          "type": "uint256[]"
        }
      ],
      "stateMutability": "view",
      "type": "function"
    },
    {
      "inputs": [],
      "name": "certificateAddress",
      "outputs": [
        {
          "internalType": "address",
          "name": "",
          "type": "address"
        }
      ],
      "stateMutability": "view",
      "type": "function"
    },
    {
      "inputs": [
        {
          "internalType": "address",
          "name": "from",
          "type": "address"
        },
        {
          "internalType": "uint256",
          "name": "id",
          "type": "uint256"
        },
        {
          "internalType": "uint256",
          "name": "amount",
          "type": "uint256"
        }
      ],
      "name": "consign",
      "outputs": [],
      "stateMutability": "nonpayable",
      "type": "function"
    },
    {
      "inputs": [
        {
          "internalType": "uint256",
          "name": "id",
          "type": "uint256"
        }
      ],
      "name": "decodeRemovalIdV0",
      "outputs": [
        {
          "components": [
            {
              "internalType": "uint8",
              "name": "idVersion",
              "type": "uint8"
            },
            {
              "internalType": "uint8",
              "name": "methodology",
              "type": "uint8"
            },
            {
              "internalType": "uint8",
              "name": "methodologyVersion",
              "type": "uint8"
            },
            {
              "internalType": "uint16",
              "name": "vintage",
              "type": "uint16"
            },
            {
              "internalType": "bytes2",
              "name": "country",
              "type": "bytes2"
            },
            {
              "internalType": "bytes2",
              "name": "subdivision",
              "type": "bytes2"
            },
            {
              "internalType": "address",
              "name": "supplierAddress",
              "type": "address"
            },
            {
              "internalType": "uint32",
              "name": "subIdentifier",
              "type": "uint32"
            }
          ],
          "internalType": "struct DecodedRemovalIdV0",
          "name": "",
          "type": "tuple"
        }
      ],
      "stateMutability": "pure",
      "type": "function"
    },
    {
      "inputs": [
        {
          "internalType": "uint256",
          "name": "id",
          "type": "uint256"
        }
      ],
      "name": "exists",
      "outputs": [
        {
          "internalType": "bool",
          "name": "",
          "type": "bool"
        }
      ],
      "stateMutability": "view",
      "type": "function"
    },
    {
      "inputs": [
        {
          "internalType": "uint256",
          "name": "id",
          "type": "uint256"
        }
      ],
      "name": "getHoldbackPercentage",
      "outputs": [
        {
          "internalType": "uint8",
          "name": "",
          "type": "uint8"
        }
      ],
      "stateMutability": "view",
      "type": "function"
    },
    {
      "inputs": [],
      "name": "getMarketBalance",
      "outputs": [
        {
          "internalType": "uint256",
          "name": "",
          "type": "uint256"
        }
      ],
      "stateMutability": "view",
      "type": "function"
    },
    {
      "inputs": [
        {
          "internalType": "address",
          "name": "owner",
          "type": "address"
        }
      ],
      "name": "getOwnedTokenIds",
      "outputs": [
        {
          "internalType": "uint256[]",
          "name": "",
          "type": "uint256[]"
        }
      ],
      "stateMutability": "view",
      "type": "function"
    },
    {
      "inputs": [
        {
          "internalType": "uint256",
          "name": "id",
          "type": "uint256"
        }
      ],
      "name": "getProjectId",
      "outputs": [
        {
          "internalType": "uint256",
          "name": "",
          "type": "uint256"
        }
      ],
      "stateMutability": "view",
      "type": "function"
    },
    {
      "inputs": [
        {
          "internalType": "bytes32",
          "name": "role",
          "type": "bytes32"
        }
      ],
      "name": "getRoleAdmin",
      "outputs": [
        {
          "internalType": "bytes32",
          "name": "",
          "type": "bytes32"
        }
      ],
      "stateMutability": "view",
      "type": "function"
    },
    {
      "inputs": [
        {
          "internalType": "bytes32",
          "name": "role",
          "type": "bytes32"
        },
        {
          "internalType": "uint256",
          "name": "index",
          "type": "uint256"
        }
      ],
      "name": "getRoleMember",
      "outputs": [
        {
          "internalType": "address",
          "name": "",
          "type": "address"
        }
      ],
      "stateMutability": "view",
      "type": "function"
    },
    {
      "inputs": [
        {
          "internalType": "bytes32",
          "name": "role",
          "type": "bytes32"
        }
      ],
      "name": "getRoleMemberCount",
      "outputs": [
        {
          "internalType": "uint256",
          "name": "",
          "type": "uint256"
        }
      ],
      "stateMutability": "view",
      "type": "function"
    },
    {
      "inputs": [
        {
          "internalType": "bytes32",
          "name": "role",
          "type": "bytes32"
        },
        {
          "internalType": "address",
          "name": "account",
          "type": "address"
        }
      ],
      "name": "grantRole",
      "outputs": [],
      "stateMutability": "nonpayable",
      "type": "function"
    },
    {
      "inputs": [
        {
          "internalType": "bytes32",
          "name": "role",
          "type": "bytes32"
        },
        {
          "internalType": "address",
          "name": "account",
          "type": "address"
        }
      ],
      "name": "hasRole",
      "outputs": [
        {
          "internalType": "bool",
          "name": "",
          "type": "bool"
        }
      ],
      "stateMutability": "view",
      "type": "function"
    },
    {
      "inputs": [
        {
          "internalType": "string",
          "name": "baseURI",
          "type": "string"
        }
      ],
      "name": "initialize",
      "outputs": [],
      "stateMutability": "nonpayable",
      "type": "function"
    },
    {
      "inputs": [
        {
          "internalType": "address",
          "name": "account",
          "type": "address"
        },
        {
          "internalType": "address",
          "name": "operator",
          "type": "address"
        }
      ],
      "name": "isApprovedForAll",
      "outputs": [
        {
          "internalType": "bool",
          "name": "",
          "type": "bool"
        }
      ],
      "stateMutability": "view",
      "type": "function"
    },
    {
      "inputs": [],
      "name": "marketAddress",
      "outputs": [
        {
          "internalType": "address",
          "name": "",
          "type": "address"
        }
      ],
      "stateMutability": "view",
      "type": "function"
    },
    {
      "inputs": [
        {
          "internalType": "address",
          "name": "to",
          "type": "address"
        },
        {
          "internalType": "uint256[]",
          "name": "amounts",
          "type": "uint256[]"
        },
        {
          "components": [
            {
              "internalType": "uint8",
              "name": "idVersion",
              "type": "uint8"
            },
            {
              "internalType": "uint8",
              "name": "methodology",
              "type": "uint8"
            },
            {
              "internalType": "uint8",
              "name": "methodologyVersion",
              "type": "uint8"
            },
            {
              "internalType": "uint16",
              "name": "vintage",
              "type": "uint16"
            },
            {
              "internalType": "bytes2",
              "name": "country",
              "type": "bytes2"
            },
            {
              "internalType": "bytes2",
              "name": "subdivision",
              "type": "bytes2"
            },
            {
              "internalType": "address",
              "name": "supplierAddress",
              "type": "address"
            },
            {
              "internalType": "uint32",
              "name": "subIdentifier",
              "type": "uint32"
            }
          ],
          "internalType": "struct DecodedRemovalIdV0[]",
          "name": "removals",
          "type": "tuple[]"
        },
        {
          "internalType": "uint256",
          "name": "projectId",
          "type": "uint256"
        },
        {
          "internalType": "uint256",
          "name": "scheduleStartTime",
          "type": "uint256"
        },
        {
          "internalType": "uint8",
          "name": "holdbackPercentage",
          "type": "uint8"
        }
      ],
      "name": "mintBatch",
      "outputs": [],
      "stateMutability": "nonpayable",
      "type": "function"
    },
    {
      "inputs": [
        {
          "internalType": "bytes[]",
          "name": "data",
          "type": "bytes[]"
        }
      ],
      "name": "multicall",
      "outputs": [
        {
          "internalType": "bytes[]",
          "name": "results",
          "type": "bytes[]"
        }
      ],
      "stateMutability": "nonpayable",
      "type": "function"
    },
    {
      "inputs": [
        {
          "internalType": "address",
          "name": "account",
          "type": "address"
        }
      ],
      "name": "numberOfTokensOwnedByAddress",
      "outputs": [
        {
          "internalType": "uint256",
          "name": "",
          "type": "uint256"
        }
      ],
      "stateMutability": "view",
      "type": "function"
    },
    {
      "inputs": [],
      "name": "pause",
      "outputs": [],
      "stateMutability": "nonpayable",
      "type": "function"
    },
    {
      "inputs": [],
      "name": "paused",
      "outputs": [
        {
          "internalType": "bool",
          "name": "",
          "type": "bool"
        }
      ],
      "stateMutability": "view",
      "type": "function"
    },
    {
      "inputs": [
        {
          "internalType": "contract Market",
          "name": "market",
          "type": "address"
        },
        {
          "internalType": "contract Certificate",
          "name": "certificate",
          "type": "address"
        }
      ],
      "name": "registerContractAddresses",
      "outputs": [],
      "stateMutability": "nonpayable",
      "type": "function"
    },
    {
      "inputs": [
        {
          "internalType": "uint256",
          "name": "id",
          "type": "uint256"
        },
        {
          "internalType": "uint256",
          "name": "amount",
          "type": "uint256"
        }
      ],
      "name": "release",
      "outputs": [],
      "stateMutability": "nonpayable",
      "type": "function"
    },
    {
      "inputs": [
        {
          "internalType": "bytes32",
          "name": "role",
          "type": "bytes32"
        },
        {
          "internalType": "address",
          "name": "account",
          "type": "address"
        }
      ],
      "name": "renounceRole",
      "outputs": [],
      "stateMutability": "nonpayable",
      "type": "function"
    },
    {
      "inputs": [
        {
          "internalType": "bytes32",
          "name": "role",
          "type": "bytes32"
        },
        {
          "internalType": "address",
          "name": "account",
          "type": "address"
        }
      ],
      "name": "revokeRole",
      "outputs": [],
      "stateMutability": "nonpayable",
      "type": "function"
    },
    {
      "inputs": [
        {
          "internalType": "address",
          "name": "from",
          "type": "address"
        },
        {
          "internalType": "address",
          "name": "to",
          "type": "address"
        },
        {
          "internalType": "uint256[]",
          "name": "ids",
          "type": "uint256[]"
        },
        {
          "internalType": "uint256[]",
          "name": "amounts",
          "type": "uint256[]"
        },
        {
          "internalType": "bytes",
          "name": "data",
          "type": "bytes"
        }
      ],
      "name": "safeBatchTransferFrom",
      "outputs": [],
      "stateMutability": "nonpayable",
      "type": "function"
    },
    {
      "inputs": [
        {
          "internalType": "address",
          "name": "from",
          "type": "address"
        },
        {
          "internalType": "address",
          "name": "to",
          "type": "address"
        },
        {
          "internalType": "uint256",
          "name": "id",
          "type": "uint256"
        },
        {
          "internalType": "uint256",
          "name": "amount",
          "type": "uint256"
        },
        {
          "internalType": "bytes",
          "name": "data",
          "type": "bytes"
        }
      ],
      "name": "safeTransferFrom",
      "outputs": [],
      "stateMutability": "nonpayable",
      "type": "function"
    },
    {
      "inputs": [
        {
          "internalType": "address",
          "name": "operator",
          "type": "address"
        },
        {
          "internalType": "bool",
          "name": "approved",
          "type": "bool"
        }
      ],
      "name": "setApprovalForAll",
      "outputs": [],
      "stateMutability": "nonpayable",
      "type": "function"
    },
    {
      "inputs": [
        {
          "internalType": "bytes4",
          "name": "interfaceId",
          "type": "bytes4"
        }
      ],
      "name": "supportsInterface",
      "outputs": [
        {
          "internalType": "bool",
          "name": "",
          "type": "bool"
        }
      ],
      "stateMutability": "view",
      "type": "function"
    },
    {
      "inputs": [
        {
          "internalType": "uint256",
          "name": "id",
          "type": "uint256"
        }
      ],
      "name": "totalSupply",
      "outputs": [
        {
          "internalType": "uint256",
          "name": "",
          "type": "uint256"
        }
      ],
      "stateMutability": "view",
      "type": "function"
    },
    {
      "inputs": [],
      "name": "unpause",
      "outputs": [],
      "stateMutability": "nonpayable",
      "type": "function"
    },
    {
      "inputs": [
        {
          "internalType": "uint256",
          "name": "",
          "type": "uint256"
        }
      ],
      "name": "uri",
      "outputs": [
        {
          "internalType": "string",
          "name": "",
          "type": "string"
        }
      ],
      "stateMutability": "view",
      "type": "function"
    }
  ],
  "numDeployments": 4,
  "bytecode": "0x60808060405234620000c6576000549060ff8260081c1662000074575060ff8082161062000038575b6040516148a29081620000cc8239f35b60ff90811916176000557f7f26b83ff96e1f2b6a682f133852f6798a09c465da95921460cefb3847402498602060405160ff8152a13862000028565b62461bcd60e51b815260206004820152602760248201527f496e697469616c697a61626c653a20636f6e747261637420697320696e697469604482015266616c697a696e6760c81b6064820152608490fd5b600080fdfe6080604052600436101561001257600080fd5b6000803560e01c8062fdd58e14612da857806301ffc9a714612d055780630e89341c14612c24578063248a9ca314612bf75780632707193b14612bcd5780632eb2c2d61461259a5780632f2ff15d146124e457806334697f45146123ec57806336568abe146122da578063366a412014611b815780633d932dfb14611b565780633f4ba83a14611abf57806342c6281d146119d05780634e1273f41461185a5780634f558e791461182e5780634fac7e41146117a25780635c975abb1461177f5780636b425fc814611729578063789e8cdf146116ef5780638456cb59146116925780639010d07c1461164b57806391d14854146115ff57806393ae796d146113615780639562364114611337578063964eec7014611318578063a217fddf146112fc578063a22cb4651461120e578063ac28af24146111d3578063ac9650d814610fa0578063b776d33314610f67578063bd85b03914610f3d578063c48c010514610f02578063ca15c87314610ed7578063ca9653571461095c578063d547741f1461088e578063e63ab1e914610853578063e985e9c5146107ff578063f242432a1461073d5763f62d1888146101c957600080fd5b3461073a57602080600319360112610736576001600160401b039060043582811161073257366023820112156107325761020d903690602481600401359101612f96565b91835460ff808260081c161592838094610726575b8015610710575b156106b45760019560ff19938588868316178a556106a3575b5061029d83895460081c1661025681613883565b61025f81613883565b61029860246040518561027c8c8398519281849286019101612e18565b8101637b69647d60e01b8c820152036004810186520184612ed7565b613883565b805191821161068f5781906102b360995461345c565b601f811161061f575b508690601f83116001146105a0578992610595575b5050600019600383901b1c191690861b176099555b61031c81875460081c166102f981613883565b836033541660335561030a81613883565b61031381613883565b61029881613883565b6103246136b7565b85805260fb918285526040872033600052855281604060002054161561055c575b86805261012d9283865261035c3360408a206136fb565b506103656136b7565b7f65d7a28e3265b37a6474929f336521b332c1681b933f6cb9f3376673440d862a80895281875260408920336000528752836040600020541615610523575b88528386526103b63360408a206136fb565b506103bf6136b7565b7fa269776b75ac4c5fa422bb11bec3ed3cee626848d07687372583174b209261fb808952818752604089203360005287528360406000205416156104ea575b88528386526104103360408a206136fb565b506104196136b7565b7f88f3509f0e42391f2d94ebfb2a37cbd0782b1b8f73715330017f4663290b8117928389528187526040892033600052875260406000205416156104b0575b50508552825261046b33604086206136fb565b50610477575b82604051f35b825461ff00191683556040519182527f7f26b83ff96e1f2b6a682f133852f6798a09c465da95921460cefb384740249891a13880610471565b8288528552604087203360005285528560406000209182541617905533338260008051602061484d83398151915289604051a43880610458565b808952818752604089203360005287526040600020888482541617905533338260008051602061484d8339815191528c604051a46103fe565b808952818752604089203360005287526040600020888482541617905533338260008051602061484d8339815191528c604051a46103a4565b868052828552604087203360005285526040600020868282541617905533338860008051602061484d83398151915281604051a4610345565b0151905038806102d1565b60998a528893507f72a152ddfb8e864297c917af52ea6c1c68aead0fee1a62673fcc7e0c94979d009190601f1984168b5b8a82821061060957505084116105f0575b505050811b016099556102e6565b015160001960f88460031b161c191690553880806105e2565b8385015186558c979095019493840193016105d1565b909150609989527f72a152ddfb8e864297c917af52ea6c1c68aead0fee1a62673fcc7e0c94979d00601f840160051c810191888510610685575b84939291601f8b920160051c01915b8281106106765750506102bc565b600081558594508a9101610668565b9091508190610659565b634e487b7160e01b88526041600452602488fd5b61ffff191661010117885538610242565b60405162461bcd60e51b815260048101869052602e60248201527f496e697469616c697a61626c653a20636f6e747261637420697320616c72656160448201526d191e481a5b9a5d1a585b1a5e995960921b6064820152608490fd5b50303b1580156102295750600182841614610229565b50600182841610610222565b8380fd5b5080fd5b80fd5b503461073a5760a036600319011261073a57610757612dd8565b61075f612dee565b6084356001600160401b0381116107325761077e903690600401612fcd565b906107876136b7565b610191546001600160a01b039390841633036107ed576107c493811633811480156107c9575b6107b79150614460565b6064359160443591613f6c565b604051f35b508552609860205260408520336000526020526107b760ff604060002054166107ad565b604051631d9d0a4f60e31b8152600490fd5b503461073a57604036600319011261073a57610819612dd8565b6040610823612dee565b9260018060a01b0380931681526098602052209116600052602052602060ff604060002054166040519015158152f35b503461073a578060031936011261073a5760206040517f65d7a28e3265b37a6474929f336521b332c1681b933f6cb9f3376673440d862a8152f35b503461073a57604036600319011261073a5761090a60043561012d6108b1612dee565b9180855260209060fb82526108cc6001604088200154613351565b6108d46136b7565b80865260fb825260408087206001600160a01b03909516600081815295845294205460ff16610910575b85525260408320613792565b50604051f35b80865260fb825260408620846000528252604060002060ff1981541690553384827ff6391f5c32d9c69d2a47ea670b442974b53935d1edc7fd64eb21e047a839171b89604051a46108fe565b503461073a5760c036600319011261073a57610976612dd8565b6024356001600160401b038111610bc457610995903690600401612fe8565b6001600160401b036044939293351161073257366023604435011215610732576001600160401b036044356004013511610732573660246044356004013560081b6044350101116107325760a4359260ff84168403610ed2576109f66136b7565b6109fe61305a565b610a0d6044356004013561351b565b91855b604435600401358110610c1d575090610a48916064358752602095610193875260ff60408920911660ff198254161790553691612f0f565b60405191848301938385106001600160401b03861117610c0757610a7194604052868452613992565b61019154604051633fb840fd60e11b81526001600160a01b039183908290600490829086165afa908115610bcf578491610bda575b50169060405163149630df60e31b815260643560048201528181602481865afa918215610bcf578492610b94575b505015610ae15750604051f35b6044356004013515610b80578190610afc6044803501613902565b90610b0b606460443501613902565b91813b15610b7b57608460ff918580948460405197889687956355135b6760e01b87526064356004880152873560248801521660448601521660648401525af18015610b7057610b5c575b5061090a565b610b6590612e72565b61073a578038610b56565b6040513d84823e3d90fd5b505050fd5b634e487b7160e01b82526032600452602482fd5b90809250813d8311610bc8575b610bab8183612ed7565b81010312610bc457518015158103610bc4573880610ad4565b8280fd5b503d610ba1565b6040513d86823e3d90fd5b610bfa9150833d8511610c00575b610bf28183612ed7565b8101906138e3565b38610aa6565b503d610be8565b634e487b7160e01b600052604160045260246000fd5b6101006023198260081b6044350136030112610ece57604051806101008101106001600160401b0361010083011117610c07576101008101604052610c6b60248360081b604435010161304c565b808252610c8060448460081b8135010161304c565b6020830152610c9860648460081b604435010161304c565b604083015260848360081b60443501013561ffff81168103610eca576060830152610ccc60a48460081b60443501016144c4565b6080830152610ce460c48460081b60443501016144c4565b60a0830152610cfc60e48460081b6044350101612e04565b60c0830152604435600884901b01610104013563ffffffff81169003610ec65760ff906101048460081b60443501013560e08401521680610eae575060ff604082015116600f8111610e96575061ffff60f01b8060808301511690610d7a828060001a9060011a605b6040821191101690605b604082119110161690565b80610e67575b15610e4557505063ffffffff60e060f080602085015160041b1660ff6040860151161760ff60f81b855160f81b1661ffff841b6060870151851b169161ffff60d01b608088015160201c16931b17171761ffff60c01b60a085015160301c1617640100000000600160c01b0360c085015160201b16179201511617908188526101946020526040882054610e335781600192895261019460205260643560408a2055610e2c8287613572565b5201610a10565b604051635cb045db60e01b8152600490fd5b60a0604493015116604051916381036ebb60e01b835260048301526024820152fd5b50610e918160a0850151168060001a9060011a605b6040821191101690605b604082119110161690565b610d80565b602490604051906324b1529d60e11b82526004820152fd5b60249060405190633e60769b60e21b82526004820152fd5b8880fd5b8980fd5b8680fd5b600080fd5b503461073a57602036600319011261073a576040602091600435815261012d83522054604051908152f35b503461073a578060031936011261073a5760206040517fa269776b75ac4c5fa422bb11bec3ed3cee626848d07687372583174b209261fb8152f35b503461073a57602036600319011261073a576040602091600435815260c983522054604051908152f35b503461073a57602036600319011261073a5760ff6040602092600435815261019484528181205481526101938452205416604051908152f35b503461073a57602080600319360112610736576001600160401b036004358181116107325790610fd584923690600401612fe8565b9091610fe082612ef8565b92610fee6040519485612ed7565b828452601f19610ffd84612ef8565b01855b8181106111c4575050845b838110611072575050505060405191838301848452825180915260408401948060408360051b870101940192955b8287106110465785850386f35b909192938280611062600193603f198a82030186528851612e4d565b9601920196019592919092611039565b8060059796971b820135601e19833603018112156111c0578201803590848211610ec65787018136038113610ec6576110ac913691612f96565b303b1561116c578781888293519101305af4903d15611165573d6110cf81612f7b565b906110dd6040519283612ed7565b81523d898983013e5b604051606081019181831087841117610c075761115d9461114293604052602783527f416464726573733a206c6f772d6c6576656c2064656c65676174652063616c6c8b840152660819985a5b195960ca1b604084015261359c565b61114c8288613572565b526111578187613572565b5061354d565b95949561100b565b60606110e6565b60405162461bcd60e51b815260048101889052602660248201527f416464726573733a2064656c65676174652063616c6c20746f206e6f6e2d636f6044820152651b9d1c9858dd60d21b6064820152608490fd5b8780fd5b60608682018901528701611000565b503461073a578060031936011261073a5760206040517f88f3509f0e42391f2d94ebfb2a37cbd0782b1b8f73715330017f4663290b81178152f35b503461073a57604036600319011261073a57611228612dd8565b60243590811515809203610bc45761123e6136b7565b6001600160a01b0316903382146112a55733835260986020526040832082600052602052604060002060ff1981541660ff83161790556040519081527f17307eab39ab6107e8899845ad3d59bd9653f200f220920489ca2b5937696c3160203392a3604051f35b60405162461bcd60e51b815260206004820152602960248201527f455243313135353a2073657474696e6720617070726f76616c20737461747573604482015268103337b91039b2b63360b91b6064820152608490fd5b503461073a578060031936011261073a57602090604051908152f35b503461073a578060031936011261073a57602061019654604051908152f35b503461073a578060031936011261073a57610191546040516001600160a01b039091168152602090f35b503461073a57604036600319011261073a576004356001600160a01b0381811691829003610bc457602480359182168092036107325761139f6136b7565b3360009081527fc88390e7e62175be0932452175b6a7222b6b094ab0ef984a5153c620345d8975602090815260409091205490919060ff16156114375750916040917f0198d6608a90ff596ba478bf534811a35b9874efc28048e4565488991c137715936bffffffffffffffffffffffff60a01b610191848282541617905582610192918254161790558351928352820152a1604051f35b90611441336135d5565b600060405161144f81612ebc565b604281528381019160603684378151156115ec576030835381516001908110156115d957607860218401536041905b80821161156b575050611529576048611525936114fa936115099360405195869376020b1b1b2b9b9a1b7b73a3937b61d1030b1b1b7bab73a1604d1b8a8601526114d1815180928c603789019101612e18565b8401917001034b99036b4b9b9b4b733903937b6329607d1b603784015251809386840190612e18565b01036028810184520182612ed7565b60405193849362461bcd60e51b85526004850152830190612e4d565b0390fd5b606485856040519162461bcd60e51b83528160048401528201527f537472696e67733a20686578206c656e67746820696e73756666696369656e746044820152fd5b9091600f811660108110156115c4576f181899199a1a9b1b9c1cb0b131b232b360811b901a61159a84866135c4565b5360041c9180156115af57600019019061147e565b87634e487b7160e01b60005260116004526000fd5b88634e487b7160e01b60005260326004526000fd5b634e487b7160e01b825260326004528682fd5b634e487b7160e01b815260326004528590fd5b503461073a57604036600319011261073a57604061161b612dee565b91600435815260fb602052209060018060a01b0316600052602052602060ff604060002054166040519015158152f35b503461073a57604036600319011261073a57611679602091600435815261012d83526040602435912061369f565b905460405160039290921b1c6001600160a01b03168152f35b503461073a578060031936011261073a576116ab61320c565b6116b36136b7565b600160ff1960335416176033557f62e78cea01bee320cd4e420270b5ea74000d11b0c9f74754ebdbfc544b05a2586020604051338152a1604051f35b503461073a57602036600319011261073a576020906040906001600160a01b03611717612dd8565b16815261019583522054604051908152f35b503461073a57606036600319011261073a576107c4611746612dd8565b61174e6136b7565b61175661305a565b60018060a01b0361019154166040519161176f83612ea1565b8483526044359160243591613f6c565b503461073a578060031936011261073a57602060ff603354166040519015158152f35b503461073a57602080600319360112610736576001600160a01b036117c5612dd8565b16825261019581526040822091604051809384918482549182815201918452848420935b858282106118185750505061180092500383612ed7565b611814604051928284938452830190613018565b0390f35b85548452600195860195889550930192016117e9565b503461073a57602036600319011261073a576040602091600435815260c9835220541515604051908152f35b503461073a57604036600319011261073a576001600160401b03600435818111610bc45736602382011215610bc45780600401359161189883612ef8565b916118a66040519384612ed7565b83835260209360248585019160051b83010191368311610ece576024869101915b8383106119b85750505050602435908111610732576118ea903690600401612f5d565b908051825103611961576118fe815161351b565b935b815181101561194a57611945906119356001600160a01b036119228386613572565b511661192e8387613572565b5190613496565b61193f8288613572565b5261354d565b611900565b505050611814604051928284938452830190613018565b60405162461bcd60e51b815260048101849052602960248201527f455243313135353a206163636f756e747320616e6420696473206c656e677468604482015268040dad2e6dac2e8c6d60bb1b6064820152608490fd5b81906119c384612e04565b81520191019085906118c7565b503461073a57602036600319011261073a576004356119ed614422565b506119f6614422565b508060f81c90604051611a0881612e85565b82815260208101908260f41c600f168252604081018360f01c600f1681526060820161ffff90818660e01c168152608084019161ffff60f01b928391828960201b16825260a0870193838a60301b16855260c0880196600160a01b6001900398898c60201c16895260e0019963ffffffff809c168b526040519c8d525160ff1660208d01525160ff1660408c0152511660608a015251166080880152511660a0860152511660c0840152511660e082015261010090f35b503461073a578060031936011261073a57611ad861320c565b60335460ff811615611b1a5760ff19166033557f5db9ee0a495bf2e6ff9c91a7834c1ba4fdd244a5e8aa4e537bd38aeae4b073aa6020604051338152a1604051f35b60405162461bcd60e51b815260206004820152601460248201527314185d5cd8589b194e881b9bdd081c185d5cd95960621b6044820152606490fd5b503461073a57602036600319011261073a576040602091600435815261019483522054604051908152f35b503461073a57604036600319011261073a57602435611b9e6136b7565b7f88f3509f0e42391f2d94ebfb2a37cbd0782b1b8f73715330017f4663290b811780835260fb6020526040832033845260205260ff6040842054161561215257508190600435602081901c6001600160a01b031690611bfd9082613496565b806120f3575b5050808210611c125782604051f35b604051639562364160e01b80825290602081600481305afa80156120cd57611c45918691611f99575b5060043590613496565b80611fb8575b50508082101561047157604051632707193b60e01b8152602081600481305afa8015610bcf57611c85918591611f99575060043590613496565b156104715781611ca181611c9b60249585613787565b93613787565b6101925460405163bfdecc6760e01b815260048035908201529486918291879182906001600160a01b03165afa948515611f8e578695611e9d575b50845194865b868110611d00575b50505050611cf892506135b8565b503880610471565b611d0a8183613572565b519288611d2f611d1a8388613787565b602087015180821015611e94575080936135b8565b94604051632707193b60e01b8152602081600481305afa908115611e8957611d649185918591611e6a575b50600435906144d9565b60018060a01b0361019254169051813b15610bc4578291606483926040519485938492638e104d5760e01b8452600484015260043560248401528860448401525af18015610b7057611e56575b5050604051632707193b60e01b8152602081600481305afa908115611e4b578a91611e2c575b506040519182526001600160a01b031690600435907fa3e3305406da7d3ab7958c0d4f44dd038bf894f9f78fef266ecec276b483b5df90602090a3838314611e2757611e229061354d565b611ce2565b611cea565b611e45915060203d602011610c0057610bf28183612ed7565b38611dd7565b6040513d8c823e3d90fd5b611e5f90612e72565b610ec6578838611db1565b611e83915060203d602011610c0057610bf28183612ed7565b38611d5a565b6040513d85823e3d90fd5b905080936135b8565b9094503d8087833e611eaf8183612ed7565b6020828281010312610ece578151906001600160401b0382116111c057808301601f8385010112156111c0578183015190611ee982612ef8565b93611ef76040519586612ed7565b828552602085019382820160208560061b838501010111611f8a5793602085830101945b60208560061b82850101018610611f39575050505050509338611cdc565b6040868585010312611f8657604051918260408101106001600160401b03604085011117610c075760206040918483839601845289518152828a0151838201528152019601959150611f1b565b8b80fd5b8a80fd5b6040513d88823e3d90fd5b611fb2915060203d602011610c0057610bf28183612ed7565b38611c3b565b611fc58484959394613787565b90808210156120eb5750905b604051838152602081600481305afa908115611f8e57611ffd9184918891611e6a5750600435906144d9565b6101915485906001600160a01b0316803b156107365781906044604051809481936301b3520960e51b835260043560048401528860248401525af18015611f8e576120d8575b50604051928352602083600481305afa80156120cd576120a69386916120ae575b506040518381526001600160a01b0390911690600435907fa3e3305406da7d3ab7958c0d4f44dd038bf894f9f78fef266ecec276b483b5df90602090a36135b8565b903880611c4b565b6120c7915060203d602011610c0057610bf28183612ed7565b38612064565b6040513d87823e3d90fd5b6120e490959195612e72565b9338612043565b905090611fd1565b9192509080831015612147575061213f8280925b806040518381527fa3e3305406da7d3ab7958c0d4f44dd038bf894f9f78fef266ecec276b483b5df602060043592a3600435906144d9565b903880611c03565b61213f908092612107565b905061215d336135d5565b90916040519261216c84612ebc565b60428452602084019160603684378451156122c657603083538451906001918210156122c65790607860218701536041915b818311612258575050506122145760486114fa926121f4926115259560405195869376020b1b1b2b9b9a1b7b73a3937b61d1030b1b1b7bab73a1604d1b60208601526114d1815180926020603789019101612e18565b60405162461bcd60e51b8152602060048201529182916024830190612e4d565b606460405162461bcd60e51b815260206004820152602060248201527f537472696e67733a20686578206c656e67746820696e73756666696369656e746044820152fd5b909192600f811660108110156122b2576f181899199a1a9b1b9c1cb0b131b232b360811b901a61228885896135c4565b5360041c92801561229e5760001901919061219e565b634e487b7160e01b82526011600452602482fd5b634e487b7160e01b83526032600452602483fd5b634e487b7160e01b81526032600452602490fd5b503461073a57604036600319011261073a576004356001600160a01b036122ff612dee565b1633810361238f5761090a916123136136b7565b80845260fb6020526040842082855260205260ff604085205416612343575b835261012d60205260408320613792565b80845260fb602052604084208285526020526040842060ff1981541690553382827ff6391f5c32d9c69d2a47ea670b442974b53935d1edc7fd64eb21e047a839171b87604051a4612332565b60405162461bcd60e51b815260206004820152602f60248201527f416363657373436f6e74726f6c3a2063616e206f6e6c792072656e6f756e636560448201526e103937b632b9903337b91039b2b63360891b6064820152608490fd5b503461073a57606036600319011261073a57612406612dd8565b6001600160401b0391906024803584811161073257612429903690600401612fe8565b9190946044359081116124e057612444903690600401612fe8565b909161244e6136b7565b61245661305a565b855b8281106124935750509461247561247d926107c496973691612f0f565b923691612f0f565b906040519261248b84612ea1565b858452613992565b61249e818486613ea3565b3587526101946020526040872054156124bf576124ba9061354d565b612458565b6124ca919284613ea3565b60405163ac0522ad60e01b815290356004820152fd5b8480fd5b503461073a57604036600319011261073a5761090a60043561012d612507612dee565b9180855260209060fb82526125226001604088200154613351565b61252a6136b7565b80865260fb825260408087206001600160a01b0390951680885294835286205460ff161561255f575b855252604083206136fb565b80865260fb825260408620848752825260408620600160ff1982541617905533848260008051602061484d83398151915289604051a4612553565b503461073a5760a036600319011261073a576125b4612dd8565b6125bc612dee565b6001600160401b036044358181116124e0576125dc903690600401612f5d565b90606435818111612bc9576125f5903690600401612f5d565b90608435908111612bc95761260e903690600401612fcd565b936126176136b7565b610191546001600160a01b031690338290036107ed576001600160a01b03811633148015612b9f575b61264990614460565b6126568451845114613910565b61266a6001600160a01b0386161515613eb3565b6126726136b7565b6001600160a01b0385168214958694908515612b6c575b885b82518110156127555761269e8184613572565b516126a98288613572565b511561273d578961271d575b6001600160a01b03851686146126fd575b871590816126e2575b506107ed576126dd9061354d565b61268b565b60201c6001600160a01b03908116908a1614159050386126cf565b6127078288613572565b51612716610196918254613787565b90556126c6565b6127278288613572565b516127366101969182546135b8565b90556126b5565b6024906040519063d2a7581160e01b82526004820152fd5b5094508792506001600160a01b03821615612b1e575b6001600160a01b03861615612a67575b825b815181101561281f578061279461281a9284613572565b5161279f8288613572565b51818752609760208181526040808a206001600160a01b038a168b5282528920549293909284906127d282821015613f0d565b828b5283855260408b2060018060a01b038b168c5285520360408a205588528152604087209060018060a01b038b16885252612813604087209182546135b8565b905561354d565b61277d565b50604051929391929091906001600160a01b03878116919085169033907f4a39dc06d4c0dbc64b70af90fd698a233a518aa5d07e595d983b8c0526c8f7fb908061286a87898361396d565b0390a4835b82518110156128fc578061288560019285613572565b51828060a01b0386166128cb575b828060a01b0389166128a7575b500161286f565b6128c490838060a01b038a168852610195602052604088206136fb565b50886128a0565b6128d58187613496565b61289357828060a01b03861687526101956020526128f68160408920613792565b50612893565b509083918686813b61290f575b84604051f35b60405163bc197c8160e01b8082523360048301526001600160a01b03909716602482015260a060448201529460209486948593849261297e9261296c9161295a9060a4870190613018565b85810360031901606487015290613018565b83810360031901608485015290612e4d565b03926001600160a01b03165af1839181612a37575b50612a0f57505060016129a4613dc2565b6308c379a0146129d8575b6129bf575b818181808080612909565b60405162461bcd60e51b81528061152560048201613e4e565b6129e0613de0565b806129eb57506129af565b60405162461bcd60e51b815260206004820152908190611525906024830190612e4d565b6001600160e01b031916146129b45760405162461bcd60e51b81528061152560048201613d79565b612a5991925060203d8111612a60575b612a518183612ed7565b810190613d59565b9084612993565b503d612a47565b9192949093835b8351811015612b1357612a818185613572565b5190612a8d8189613572565b5182875260c96020526040872054818110612abd57612ab893885260c960205203604087205561354d565b612a6e565b60405162461bcd60e51b815260206004820152602860248201527f455243313135353a206275726e20616d6f756e74206578636565647320746f74604482015267616c537570706c7960c01b6064820152608490fd5b50939094929161277b565b92949093825b8451811015612b625780612b3b612b5d9289613572565b51612b468288613572565b51865260c9602052612813604087209182546135b8565b612b24565b509390949261276b565b610192549095506001600160a01b038781169116148015612b8e575b94612689565b506001600160a01b03861615612b88565b506001600160a01b0381168752609860209081526040808920338a5290915287205460ff16612640565b8580fd5b503461073a578060031936011261073a57610192546040516001600160a01b039091168152602090f35b503461073a57602036600319011261073a5760016040602092600435815260fb8452200154604051908152f35b503461073a5760208060031936011261073657604051918281609954612c498161345c565b93848452600191868382169182600014612ce3575050600114612c89575b5050612c7592500383612ed7565b611814604051928284938452830190612e4d565b90859250609982527f72a152ddfb8e864297c917af52ea6c1c68aead0fee1a62673fcc7e0c94979d005b858310612ccb575050612c7593508201013880612c67565b80548389018501528794508693909201918101612cb3565b9250935050612c7594915060ff191682840152151560051b8201013880612c67565b503461073a57602036600319011261073a5760043563ffffffff60e01b811680910361073657602090635a05180f60e01b8114908115612d4b575b506040519015158152f35b637965db0b60e01b811491508115612d65575b5082612d40565b636cdb3d1360e11b811491508115612d97575b8115612d86575b5082612d5e565b6301ffc9a760e01b14905082612d7f565b6303a24d0760e21b81149150612d78565b503461073a57604036600319011261073a576020612dd0612dc7612dd8565b60243590613496565b604051908152f35b600435906001600160a01b0382168203610ed257565b602435906001600160a01b0382168203610ed257565b35906001600160a01b0382168203610ed257565b918091926000905b828210612e38575011612e31575050565b6000910152565b91508060209183015181860152018291612e20565b90602091612e6681518092818552858086019101612e18565b601f01601f1916010190565b6001600160401b038111610c0757604052565b61010081019081106001600160401b03821117610c0757604052565b602081019081106001600160401b03821117610c0757604052565b608081019081106001600160401b03821117610c0757604052565b90601f801991011681019081106001600160401b03821117610c0757604052565b6001600160401b038111610c075760051b60200190565b9291612f1a82612ef8565b91612f286040519384612ed7565b829481845260208094019160051b8101928311610ed257905b828210612f4e5750505050565b81358152908301908301612f41565b9080601f83011215610ed257816020612f7893359101612f0f565b90565b6001600160401b038111610c0757601f01601f191660200190565b929192612fa282612f7b565b91612fb06040519384612ed7565b829481845281830111610ed2578281602093846000960137010152565b9080601f83011215610ed257816020612f7893359101612f96565b9181601f84011215610ed2578235916001600160401b038311610ed2576020808501948460051b010111610ed257565b90815180825260208080930193019160005b828110613038575050505090565b83518552938101939281019260010161302a565b359060ff82168203610ed257565b3360009081527fba06a78ec98734fb5637b51b6458f4ba0a229fe2bbc86ce5d18073647cb408f3602090815260408083205490927fa269776b75ac4c5fa422bb11bec3ed3cee626848d07687372583174b209261fb9160ff16156130be5750505050565b6130c7336135d5565b918451906130d482612ebc565b604282528482019260603685378251156122c657603084538251906001918210156122c65790607860218501536041915b8183116131c65750505061318457604861152593869361316893613159985198899376020b1b1b2b9b9a1b7b73a3937b61d1030b1b1b7bab73a1604d1b8a8601526114d1815180928c603789019101612e18565b01036028810187520185612ed7565b5192839262461bcd60e51b845260048401526024830190612e4d565b60648486519062461bcd60e51b825280600483015260248201527f537472696e67733a20686578206c656e67746820696e73756666696369656e746044820152fd5b909192600f811660108110156122b2576f181899199a1a9b1b9c1cb0b131b232b360811b901a6131f685876135c4565b5360041c92801561229e57600019019190613105565b3360009081527fc81858b0fc5e8d7d2c7a341b4e13a62a27b51e1da1072bf5f7fee8fdef673e94602090815260408083205490927f65d7a28e3265b37a6474929f336521b332c1681b933f6cb9f3376673440d862a9160ff16156132705750505050565b613279336135d5565b9184519061328682612ebc565b604282528482019260603685378251156122c657603084538251906001918210156122c65790607860218501536041915b81831161330b5750505061318457604861152593869361316893613159985198899376020b1b1b2b9b9a1b7b73a3937b61d1030b1b1b7bab73a1604d1b8a8601526114d1815180928c603789019101612e18565b909192600f811660108110156122b2576f181899199a1a9b1b9c1cb0b131b232b360811b901a61333b85876135c4565b5360041c92801561229e576000190191906132b7565b60009080825260209060fb8252604092838120338252835260ff84822054161561337b5750505050565b613384336135d5565b9184519061339182612ebc565b604282528482019260603685378251156122c657603084538251906001918210156122c65790607860218501536041915b8183116134165750505061318457604861152593869361316893613159985198899376020b1b1b2b9b9a1b7b73a3937b61d1030b1b1b7bab73a1604d1b8a8601526114d1815180928c603789019101612e18565b909192600f811660108110156122b2576f181899199a1a9b1b9c1cb0b131b232b360811b901a61344685876135c4565b5360041c92801561229e576000190191906133c2565b90600182811c9216801561348c575b602083101461347657565b634e487b7160e01b600052602260045260246000fd5b91607f169161346b565b6001600160a01b03169081156134c357600052609760205260406000209060005260205260406000205490565b60405162461bcd60e51b815260206004820152602a60248201527f455243313135353a2061646472657373207a65726f206973206e6f742061207660448201526930b634b21037bbb732b960b11b6064820152608490fd5b9061352582612ef8565b6135326040519182612ed7565b8281528092613543601f1991612ef8565b0190602036910137565b600019811461355c5760010190565b634e487b7160e01b600052601160045260246000fd5b80518210156135865760209160051b010190565b634e487b7160e01b600052603260045260246000fd5b909190156135a8575090565b8151156129eb5750805190602001fd5b8119811161355c570190565b908151811015613586570160200190565b60405190606082018281106001600160401b03821117610c0757604052602a82526020820160403682378251156135865760309053815160019081101561358657607860218401536029905b8082116136315750506122145790565b9091600f8116601081101561368a576f181899199a1a9b1b9c1cb0b131b232b360811b901a61366084866135c4565b5360041c918015613675576000190190613621565b60246000634e487b7160e01b81526011600452fd5b60246000634e487b7160e01b81526032600452fd5b80548210156135865760005260206000200190600090565b60ff603354166136c357565b60405162461bcd60e51b815260206004820152601060248201526f14185d5cd8589b194e881c185d5cd95960821b6044820152606490fd5b91906001830160009082825280602052604082205415600014613781578454946801000000000000000086101561376d578361375d613744886001604098999a0185558461369f565b819391549060031b600019811b9283911b169119161790565b9055549382526020522055600190565b634e487b7160e01b83526041600452602483fd5b50925050565b81811061355c570390565b9060018201906000928184528260205260408420549081151560001461387c576001821061386857600019918281018254600181106138545784019080820361381f575b5050508054801561380b578201916137ee838361369f565b909182549160031b1b191690555582526020526040812055600190565b634e487b7160e01b86526031600452602486fd5b61383f61382f613744938661369f565b90549060031b1c9283928661369f565b905586528460205260408620553880806137d6565b634e487b7160e01b88526011600452602488fd5b634e487b7160e01b85526011600452602485fd5b5050505090565b1561388a57565b60405162461bcd60e51b815260206004820152602b60248201527f496e697469616c697a61626c653a20636f6e7472616374206973206e6f74206960448201526a6e697469616c697a696e6760a81b6064820152608490fd5b90816020910312610ed257516001600160a01b0381168103610ed25790565b3560ff81168103610ed25790565b1561391757565b60405162461bcd60e51b815260206004820152602860248201527f455243313135353a2069647320616e6420616d6f756e7473206c656e677468206044820152670dad2e6dac2e8c6d60c31b6064820152608490fd5b9091613984612f7893604084526040840190613018565b916020818403910152613018565b926001600160a01b03808516939092841580159190613d0a576139b88151845114613910565b6139c06136b7565b846101915416978887149485988615613ceb575b9399159360005b8451811015613a79576139ee8186613572565b516139f98289613572565b511561273d57868c613a59575b613a39575b8989159182613a29575b50506107ed57613a249061354d565b6139db565b60201c168b141590508938613a15565b613a438289613572565b51613a52610196918254613787565b9055613a0b565b613a63838a613572565b51613a726101969182546135b8565b9055613a06565b50949795509550965096905060005b8751811015613ac85780613a9f613ac39288613572565b51613aaa828b613572565b5160005260c960205261281360406000209182546135b8565b613a88565b50909193929460005b8751811015613b1d5780613ae8613b189287613572565b51613af3828b613572565b5160005261281360206097815260409081600020908b600052526000209182546135b8565b613ad1565b5090929194604092856000897f4a39dc06d4c0dbc64b70af90fd698a233a518aa5d07e595d983b8c0526c8f7fb875180613b598733958361396d565b0390a460005b8851811015613ba2578086613b766001938c613572565b5190613b84575b5001613b5f565b613b9b9089600052610195602052876000206136fb565b5038613b7d565b50919694935091943b613bb7575b5050505050565b613c199260209260008751809681958294613c0a613bf763bc197c8160e01b9c8d875233600488015287602488015260a0604488015260a4870190613018565b6003199384878303016064880152613018565b91848303016084850152612e4d565b03925af160009181613ccb575b50613c9f5750506001613c37613dc2565b6308c379a014613c69575b613c5257505b3880808080613bb0565b5162461bcd60e51b81528061152560048201613e4e565b613c71613de0565b80613c7c5750613c42565b825162461bcd60e51b815260206004820152908190611525906024830190612e4d565b6001600160e01b03191603613cb45750613c48565b5162461bcd60e51b81528061152560048201613d79565b613ce491925060203d8111612a6057612a518183612ed7565b9038613c26565b955086610192541688148015613d02575b956139d4565b506000613cfc565b60405162461bcd60e51b815260206004820152602160248201527f455243313135353a206d696e7420746f20746865207a65726f206164647265736044820152607360f81b6064820152608490fd5b90816020910312610ed257516001600160e01b031981168103610ed25790565b60809060208152602860208201527f455243313135353a204552433131353552656365697665722072656a656374656040820152676420746f6b656e7360c01b60608201520190565b60009060033d11613dcf57565b905060046000803e60005160e01c90565b600060443d10612f7857604051600319913d83016004833e81516001600160401b03918282113d602484011117613e3d57818401948551938411613e45573d85010160208487010111613e3d5750612f7892910160200190612ed7565b949350505050565b50949350505050565b60809060208152603460208201527f455243313135353a207472616e7366657220746f206e6f6e20455243313135356040820152732932b1b2b4bb32b91034b6b83632b6b2b73a32b960611b60608201520190565b91908110156135865760051b0190565b15613eba57565b60405162461bcd60e51b815260206004820152602560248201527f455243313135353a207472616e7366657220746f20746865207a65726f206164604482015264647265737360d81b6064820152608490fd5b15613f1457565b60405162461bcd60e51b815260206004820152602a60248201527f455243313135353a20696e73756666696369656e742062616c616e636520666f60448201526939103a3930b739b332b960b11b6064820152608490fd5b9294936001600160a01b03808316949093851580159493929190613f8f86613eb3565b613f98826143ed565b91613fa28b6143ed565b95613fab6136b7565b88610191541695868b1498899c8a156143cf575b60005b875181101561407157613fd58189613572565b51613fe0828d613572565b511561273d578f8f908f908f908f908f8f85908993614051575b1614614030575b5050159283614020575b5050506107ed5761401b9061354d565b613fc2565b60201c16141590508e8e3861400b565b61403991613572565b51614048610196918254613787565b90558e85614001565b61405b8486613572565b5161406a6101969182546135b8565b9055613ffa565b50949c5096509750979a90989593929a83169384159a8b61438c575b6142bb575b508860009a989a5260209860978a5260409788600020866000528b528289600020546140c082821015613f0d565b8360005260978d528a600020886000528d520389600020558160005260978b5288600020886000528b52886000206140f98482546135b8565b905587868c858c51918683528201527fc3d58168c5ae7397731d063d5bbf3d657854427343f4c083240f7aacaa2d0f628c3392a460009915995b8d518110156141b557808c8f8a61414e8f9295600196613572565b519161417f575b614162575b505001614133565b610195614177928d600052528c6000206136fb565b508c3861415a565b8d8261418b818d613496565b15614198575b5050614155565b6141ad918d6000526101958652600020613792565b508d82614191565b509550959397509598915098503b6141d1575b50505050505050565b614214936000879489519687958694859363f23a6e6160e01b9b8c865233600487015260248601526044850152606484015260a0608484015260a4830190612e4d565b03925af16000918161429c575b50614285575050600190614233613dc2565b6308c379a014614251575b50613c5257505b388080808080806141c8565b614259613de0565b9081614265575061423e565b611525845192839262461bcd60e51b845260048401526024830190612e4d565b6001600160e01b031916039050613cb45750614245565b6142b4919250843d8611612a6057612a518183612ed7565b9038614221565b9a9896949290999795939160005b8a51811015614379578c6142e8826142e1818f613572565b5192613572565b518160005260c991602092808452604093846000205492848410614324579061431f9695949392916000525203906000205561354d565b6142c9565b855162461bcd60e51b815260048101839052602860248201527f455243313135353a206275726e20616d6f756e74206578636565647320746f74604482015267616c537570706c7960c01b6064820152608490fd5b50919395979990929496989a5038614092565b9a9896949290999795939160005b8d80518210156143bd57906143b891613aaa828f816142e191613572565b61439a565b5050919395979990929496989a61408d565b99508a61019254168c1480156143e6575b99613fbf565b50846143e0565b60405190604082018281106001600160401b03821117610c075760405260018252602082016020368237825115613586575290565b6040519061442f82612e85565b8160e06000918281528260208201528260408201528260608201528260808201528260a08201528260c08201520152565b1561446757565b60405162461bcd60e51b815260206004820152602f60248201527f455243313135353a2063616c6c6572206973206e6f7420746f6b656e206f776e60448201526e195c881b9bdc88185c1c1c9bdd9959608a1b6064820152608490fd5b35906001600160f01b031982168203610ed257565b92916001600160a01b03808516929091831580159291906147fb576144fd826143ed565b614506826143ed565b9260409788519061451682612ea1565b60008092526145236136b7565b87610191541694851597889a89156147dd575b84978114975b87518110156146015761454f8189613572565b5161455a828c613572565b51156145ea57898e6145ca575b6145aa575b8c8c15918261459b575b505061458a576145859061354d565b61453c565b8d51631d9d0a4f60e31b8152600490fd5b60201c16151590508c38614576565b6145b4828c613572565b516145c3610196918254613787565b905561456c565b6145d4838d613572565b516145e36101969182546135b8565b9055614567565b6024908f519063d2a7581160e01b82526004820152fd5b50949b995094975094509499909750875b86518110156146b6576146258188613572565b51614630828d613572565b5190808b5260c960208181528b8d205492848410614661578d5252898b20919003905561465c9061354d565b614612565b8c5162461bcd60e51b815260048101839052602860248201527f455243313135353a206275726e20616d6f756e74206578636565647320746f74604482015267616c537570706c7960c01b6064820152608490fd5b509195949850919592968084526020966097885285852084865288528585205481811061478d5791818592879483865260978c528986208587528c5203888520558751918252898201527fc3d58168c5ae7397731d063d5bbf3d657854427343f4c083240f7aacaa2d0f62873392a482845161473181612ea1565b52825b885181101561478257808661474b6001938c613572565b5190614759575b5001614734565b6147638185613496565b6147525761477b908587526101958a52878720613792565b5038614752565b505050505050509050565b865162461bcd60e51b8152600481018a90526024808201527f455243313135353a206275726e20616d6f756e7420657863656564732062616c604482015263616e636560e01b6064820152608490fd5b98508961019254161580156147f3575b98614536565b5060016147ed565b60405162461bcd60e51b815260206004820152602360248201527f455243313135353a206275726e2066726f6d20746865207a65726f206164647260448201526265737360e81b6064820152608490fdfe2f8788117e7eff1d82e926ec794901d17c78024a50270940304540a733656f0da2646970667358221220826a963cd8a6f3208f2ce88d9aa2c086f0b0eb86cdfea2a3589d174a710dd01264736f6c634300080f0033"
}