{
  "address": "0x0924196d683daBe242216Eb3e27bcf8FccCeCaD1",
  "abi": [
    {
      "inputs": [],
      "stateMutability": "nonpayable",
      "type": "constructor"
    },
    {
      "inputs": [
        {
          "internalType": "address",
          "name": "account",
          "type": "address"
        },
        {
          "internalType": "uint256",
          "name": "scheduleId",
          "type": "uint256"
        }
      ],
      "name": "InsufficientClaimableBalance",
      "type": "error"
    },
    {
      "inputs": [
        {
          "internalType": "uint256",
          "name": "scheduleId",
          "type": "uint256"
        }
      ],
      "name": "InsufficientUnreleasedTokens",
      "type": "error"
    },
    {
      "inputs": [
        {
          "internalType": "address",
          "name": "account",
          "type": "address"
        }
      ],
      "name": "InvalidMinter",
      "type": "error"
    },
    {
      "inputs": [],
      "name": "InvalidZeroDuration",
      "type": "error"
    },
    {
      "inputs": [
        {
          "internalType": "uint256",
          "name": "scheduleId",
          "type": "uint256"
        }
      ],
      "name": "NonexistentSchedule",
      "type": "error"
    },
    {
      "anonymous": false,
      "inputs": [
        {
          "indexed": true,
          "internalType": "address",
          "name": "account",
          "type": "address"
        },
        {
          "indexed": true,
          "internalType": "address",
          "name": "operator",
          "type": "address"
        },
        {
          "indexed": false,
          "internalType": "bool",
          "name": "approved",
          "type": "bool"
        }
      ],
      "name": "ApprovalForAll",
      "type": "event"
    },
    {
      "anonymous": false,
      "inputs": [
        {
          "indexed": false,
          "internalType": "uint8",
          "name": "version",
          "type": "uint8"
        }
      ],
      "name": "Initialized",
      "type": "event"
    },
    {
      "anonymous": false,
      "inputs": [
        {
          "indexed": false,
          "internalType": "address",
          "name": "account",
          "type": "address"
        }
      ],
      "name": "Paused",
      "type": "event"
    },
    {
      "anonymous": false,
      "inputs": [
        {
          "indexed": true,
          "internalType": "bytes32",
          "name": "role",
          "type": "bytes32"
        },
        {
          "indexed": true,
          "internalType": "bytes32",
          "name": "previousAdminRole",
          "type": "bytes32"
        },
        {
          "indexed": true,
          "internalType": "bytes32",
          "name": "newAdminRole",
          "type": "bytes32"
        }
      ],
      "name": "RoleAdminChanged",
      "type": "event"
    },
    {
      "anonymous": false,
      "inputs": [
        {
          "indexed": true,
          "internalType": "bytes32",
          "name": "role",
          "type": "bytes32"
        },
        {
          "indexed": true,
          "internalType": "address",
          "name": "account",
          "type": "address"
        },
        {
          "indexed": true,
          "internalType": "address",
          "name": "sender",
          "type": "address"
        }
      ],
      "name": "RoleGranted",
      "type": "event"
    },
    {
      "anonymous": false,
      "inputs": [
        {
          "indexed": true,
          "internalType": "bytes32",
          "name": "role",
          "type": "bytes32"
        },
        {
          "indexed": true,
          "internalType": "address",
          "name": "account",
          "type": "address"
        },
        {
          "indexed": true,
          "internalType": "address",
          "name": "sender",
          "type": "address"
        }
      ],
      "name": "RoleRevoked",
      "type": "event"
    },
    {
      "anonymous": false,
      "inputs": [
        {
          "indexed": true,
          "internalType": "uint256",
          "name": "projectId",
          "type": "uint256"
        },
        {
          "indexed": false,
          "internalType": "uint256",
          "name": "startTime",
          "type": "uint256"
        },
        {
          "indexed": false,
          "internalType": "uint256",
          "name": "endTime",
          "type": "uint256"
        }
      ],
      "name": "ScheduleCreated",
      "type": "event"
    },
    {
      "anonymous": false,
      "inputs": [
        {
          "indexed": true,
          "internalType": "address",
          "name": "from",
          "type": "address"
        },
        {
          "indexed": true,
          "internalType": "address",
          "name": "to",
          "type": "address"
        },
        {
          "indexed": true,
          "internalType": "uint256",
          "name": "scheduleId",
          "type": "uint256"
        },
        {
          "indexed": false,
          "internalType": "uint256",
          "name": "quantity",
          "type": "uint256"
        }
      ],
      "name": "TokensClaimed",
      "type": "event"
    },
    {
      "anonymous": false,
      "inputs": [
        {
          "indexed": true,
          "internalType": "uint256",
          "name": "atTime",
          "type": "uint256"
        },
        {
          "indexed": true,
          "internalType": "uint256",
          "name": "scheduleId",
          "type": "uint256"
        },
        {
          "indexed": false,
          "internalType": "uint256",
          "name": "quantity",
          "type": "uint256"
        },
        {
          "indexed": false,
          "internalType": "address[]",
          "name": "scheduleOwners",
          "type": "address[]"
        },
        {
          "indexed": false,
          "internalType": "uint256[]",
          "name": "quantitiesBurned",
          "type": "uint256[]"
        }
      ],
      "name": "TokensRevoked",
      "type": "event"
    },
    {
      "anonymous": false,
      "inputs": [
        {
          "indexed": true,
          "internalType": "address",
          "name": "operator",
          "type": "address"
        },
        {
          "indexed": true,
          "internalType": "address",
          "name": "from",
          "type": "address"
        },
        {
          "indexed": true,
          "internalType": "address",
          "name": "to",
          "type": "address"
        },
        {
          "indexed": false,
          "internalType": "uint256[]",
          "name": "ids",
          "type": "uint256[]"
        },
        {
          "indexed": false,
          "internalType": "uint256[]",
          "name": "values",
          "type": "uint256[]"
        }
      ],
      "name": "TransferBatch",
      "type": "event"
    },
    {
      "anonymous": false,
      "inputs": [
        {
          "indexed": true,
          "internalType": "address",
          "name": "operator",
          "type": "address"
        },
        {
          "indexed": true,
          "internalType": "address",
          "name": "from",
          "type": "address"
        },
        {
          "indexed": true,
          "internalType": "address",
          "name": "to",
          "type": "address"
        },
        {
          "indexed": false,
          "internalType": "uint256",
          "name": "id",
          "type": "uint256"
        },
        {
          "indexed": false,
          "internalType": "uint256",
          "name": "value",
          "type": "uint256"
        }
      ],
      "name": "TransferSingle",
      "type": "event"
    },
    {
      "anonymous": false,
      "inputs": [
        {
          "indexed": false,
          "internalType": "string",
          "name": "value",
          "type": "string"
        },
        {
          "indexed": true,
          "internalType": "uint256",
          "name": "id",
          "type": "uint256"
        }
      ],
      "name": "URI",
      "type": "event"
    },
    {
      "anonymous": false,
      "inputs": [
        {
          "indexed": false,
          "internalType": "address",
          "name": "account",
          "type": "address"
        }
      ],
      "name": "Unpaused",
      "type": "event"
    },
    {
      "inputs": [],
      "name": "DEFAULT_ADMIN_ROLE",
      "outputs": [
        {
          "internalType": "bytes32",
          "name": "",
          "type": "bytes32"
        }
      ],
      "stateMutability": "view",
      "type": "function"
    },
    {
      "inputs": [],
      "name": "MINTER_ROLE",
      "outputs": [
        {
          "internalType": "bytes32",
          "name": "",
          "type": "bytes32"
        }
      ],
      "stateMutability": "view",
      "type": "function"
    },
    {
      "inputs": [],
      "name": "PAUSER_ROLE",
      "outputs": [
        {
          "internalType": "bytes32",
          "name": "",
          "type": "bytes32"
        }
      ],
      "stateMutability": "view",
      "type": "function"
    },
    {
      "inputs": [],
      "name": "SCHEDULE_CREATOR_ROLE",
      "outputs": [
        {
          "internalType": "bytes32",
          "name": "",
          "type": "bytes32"
        }
      ],
      "stateMutability": "view",
      "type": "function"
    },
    {
      "inputs": [],
      "name": "TOKEN_REVOKER_ROLE",
      "outputs": [
        {
          "internalType": "bytes32",
          "name": "",
          "type": "bytes32"
        }
      ],
      "stateMutability": "view",
      "type": "function"
    },
    {
      "inputs": [
        {
          "internalType": "address",
          "name": "account",
          "type": "address"
        },
        {
          "internalType": "uint256",
          "name": "id",
          "type": "uint256"
        }
      ],
      "name": "balanceOf",
      "outputs": [
        {
          "internalType": "uint256",
          "name": "",
          "type": "uint256"
        }
      ],
      "stateMutability": "view",
      "type": "function"
    },
    {
      "inputs": [
        {
          "internalType": "address[]",
          "name": "accounts",
          "type": "address[]"
        },
        {
          "internalType": "uint256[]",
          "name": "ids",
          "type": "uint256[]"
        }
      ],
      "name": "balanceOfBatch",
      "outputs": [
        {
          "internalType": "uint256[]",
          "name": "",
          "type": "uint256[]"
        }
      ],
      "stateMutability": "view",
      "type": "function"
    },
    {
      "inputs": [
        {
          "internalType": "address",
          "name": "account",
          "type": "address"
        },
        {
          "internalType": "uint256[]",
          "name": "scheduleIds",
          "type": "uint256[]"
        }
      ],
      "name": "batchGetScheduleDetailsForAccount",
      "outputs": [
        {
          "components": [
            {
              "internalType": "address",
              "name": "tokenHolder",
              "type": "address"
            },
            {
              "internalType": "uint256",
              "name": "scheduleTokenId",
              "type": "uint256"
            },
            {
              "internalType": "uint256",
              "name": "balance",
              "type": "uint256"
            },
            {
              "internalType": "uint256",
              "name": "claimableAmount",
              "type": "uint256"
            },
            {
              "internalType": "uint256",
              "name": "claimedAmount",
              "type": "uint256"
            },
            {
              "internalType": "uint256",
              "name": "quantityRevoked",
              "type": "uint256"
            }
          ],
          "internalType": "struct ScheduleDetailForAddress[]",
          "name": "",
          "type": "tuple[]"
        }
      ],
      "stateMutability": "view",
      "type": "function"
    },
    {
      "inputs": [
        {
          "internalType": "uint256[]",
          "name": "scheduleIds",
          "type": "uint256[]"
        }
      ],
      "name": "batchGetScheduleSummaries",
      "outputs": [
        {
          "components": [
            {
              "internalType": "uint256",
              "name": "scheduleTokenId",
              "type": "uint256"
            },
            {
              "internalType": "uint256",
              "name": "startTime",
              "type": "uint256"
            },
            {
              "internalType": "uint256",
              "name": "endTime",
              "type": "uint256"
            },
            {
              "internalType": "uint256",
              "name": "totalSupply",
              "type": "uint256"
            },
            {
              "internalType": "uint256",
              "name": "totalClaimableAmount",
              "type": "uint256"
            },
            {
              "internalType": "uint256",
              "name": "totalClaimedAmount",
              "type": "uint256"
            },
            {
              "internalType": "uint256",
              "name": "totalQuantityRevoked",
              "type": "uint256"
            },
            {
              "internalType": "address[]",
              "name": "tokenHolders",
              "type": "address[]"
            }
          ],
          "internalType": "struct ScheduleSummary[]",
          "name": "",
          "type": "tuple[]"
        }
      ],
      "stateMutability": "view",
      "type": "function"
    },
    {
      "inputs": [
        {
          "internalType": "uint256",
          "name": "scheduleId",
          "type": "uint256"
        }
      ],
      "name": "claimableBalanceForSchedule",
      "outputs": [
        {
          "internalType": "uint256",
          "name": "",
          "type": "uint256"
        }
      ],
      "stateMutability": "view",
      "type": "function"
    },
    {
      "inputs": [
        {
          "internalType": "uint256",
          "name": "scheduleId",
          "type": "uint256"
        },
        {
          "internalType": "address",
          "name": "account",
          "type": "address"
        }
      ],
      "name": "claimableBalanceForScheduleForAccount",
      "outputs": [
        {
          "internalType": "uint256",
          "name": "",
          "type": "uint256"
        }
      ],
      "stateMutability": "view",
      "type": "function"
    },
    {
      "inputs": [
        {
          "internalType": "uint256",
          "name": "projectId",
          "type": "uint256"
        },
        {
          "internalType": "uint256",
          "name": "startTime",
          "type": "uint256"
        },
        {
          "internalType": "uint8",
          "name": "methodology",
          "type": "uint8"
        },
        {
          "internalType": "uint8",
          "name": "methodologyVersion",
          "type": "uint8"
        }
      ],
      "name": "createSchedule",
      "outputs": [],
      "stateMutability": "nonpayable",
      "type": "function"
    },
    {
      "inputs": [
        {
          "internalType": "uint256",
          "name": "id",
          "type": "uint256"
        }
      ],
      "name": "exists",
      "outputs": [
        {
          "internalType": "bool",
          "name": "",
          "type": "bool"
        }
      ],
      "stateMutability": "view",
      "type": "function"
    },
    {
      "inputs": [],
      "name": "getAllScheduleIds",
      "outputs": [
        {
          "internalType": "uint256[]",
          "name": "",
          "type": "uint256[]"
        }
      ],
      "stateMutability": "view",
      "type": "function"
    },
    {
      "inputs": [
        {
          "internalType": "uint256",
          "name": "methodology",
          "type": "uint256"
        },
        {
          "internalType": "uint256",
          "name": "methodologyVersion",
          "type": "uint256"
        }
      ],
      "name": "getRestrictionDurationForMethodologyAndVersion",
      "outputs": [
        {
          "internalType": "uint256",
          "name": "",
          "type": "uint256"
        }
      ],
      "stateMutability": "view",
      "type": "function"
    },
    {
      "inputs": [
        {
          "internalType": "bytes32",
          "name": "role",
          "type": "bytes32"
        }
      ],
      "name": "getRoleAdmin",
      "outputs": [
        {
          "internalType": "bytes32",
          "name": "",
          "type": "bytes32"
        }
      ],
      "stateMutability": "view",
      "type": "function"
    },
    {
      "inputs": [
        {
          "internalType": "bytes32",
          "name": "role",
          "type": "bytes32"
        },
        {
          "internalType": "uint256",
          "name": "index",
          "type": "uint256"
        }
      ],
      "name": "getRoleMember",
      "outputs": [
        {
          "internalType": "address",
          "name": "",
          "type": "address"
        }
      ],
      "stateMutability": "view",
      "type": "function"
    },
    {
      "inputs": [
        {
          "internalType": "bytes32",
          "name": "role",
          "type": "bytes32"
        }
      ],
      "name": "getRoleMemberCount",
      "outputs": [
        {
          "internalType": "uint256",
          "name": "",
          "type": "uint256"
        }
      ],
      "stateMutability": "view",
      "type": "function"
    },
    {
      "inputs": [
        {
          "internalType": "address",
          "name": "account",
          "type": "address"
        },
        {
          "internalType": "uint256",
          "name": "scheduleId",
          "type": "uint256"
        }
      ],
      "name": "getScheduleDetailForAccount",
      "outputs": [
        {
          "components": [
            {
              "internalType": "address",
              "name": "tokenHolder",
              "type": "address"
            },
            {
              "internalType": "uint256",
              "name": "scheduleTokenId",
              "type": "uint256"
            },
            {
              "internalType": "uint256",
              "name": "balance",
              "type": "uint256"
            },
            {
              "internalType": "uint256",
              "name": "claimableAmount",
              "type": "uint256"
            },
            {
              "internalType": "uint256",
              "name": "claimedAmount",
              "type": "uint256"
            },
            {
              "internalType": "uint256",
              "name": "quantityRevoked",
              "type": "uint256"
            }
          ],
          "internalType": "struct ScheduleDetailForAddress",
          "name": "",
          "type": "tuple"
        }
      ],
      "stateMutability": "view",
      "type": "function"
    },
    {
      "inputs": [
        {
          "internalType": "uint256",
          "name": "scheduleId",
          "type": "uint256"
        }
      ],
      "name": "getScheduleSummary",
      "outputs": [
        {
          "components": [
            {
              "internalType": "uint256",
              "name": "scheduleTokenId",
              "type": "uint256"
            },
            {
              "internalType": "uint256",
              "name": "startTime",
              "type": "uint256"
            },
            {
              "internalType": "uint256",
              "name": "endTime",
              "type": "uint256"
            },
            {
              "internalType": "uint256",
              "name": "totalSupply",
              "type": "uint256"
            },
            {
              "internalType": "uint256",
              "name": "totalClaimableAmount",
              "type": "uint256"
            },
            {
              "internalType": "uint256",
              "name": "totalClaimedAmount",
              "type": "uint256"
            },
            {
              "internalType": "uint256",
              "name": "totalQuantityRevoked",
              "type": "uint256"
            },
            {
              "internalType": "address[]",
              "name": "tokenHolders",
              "type": "address[]"
            }
          ],
          "internalType": "struct ScheduleSummary",
          "name": "",
          "type": "tuple"
        }
      ],
      "stateMutability": "view",
      "type": "function"
    },
    {
      "inputs": [
        {
          "internalType": "bytes32",
          "name": "role",
          "type": "bytes32"
        },
        {
          "internalType": "address",
          "name": "account",
          "type": "address"
        }
      ],
      "name": "grantRole",
      "outputs": [],
      "stateMutability": "nonpayable",
      "type": "function"
    },
    {
      "inputs": [
        {
          "internalType": "bytes32",
          "name": "role",
          "type": "bytes32"
        },
        {
          "internalType": "address",
          "name": "account",
          "type": "address"
        }
      ],
      "name": "hasRole",
      "outputs": [
        {
          "internalType": "bool",
          "name": "",
          "type": "bool"
        }
      ],
      "stateMutability": "view",
      "type": "function"
    },
    {
      "inputs": [],
      "name": "initialize",
      "outputs": [],
      "stateMutability": "nonpayable",
      "type": "function"
    },
    {
      "inputs": [
        {
          "internalType": "address",
          "name": "account",
          "type": "address"
        },
        {
          "internalType": "address",
          "name": "operator",
          "type": "address"
        }
      ],
      "name": "isApprovedForAll",
      "outputs": [
        {
          "internalType": "bool",
          "name": "",
          "type": "bool"
        }
      ],
      "stateMutability": "view",
      "type": "function"
    },
    {
      "inputs": [
        {
          "internalType": "uint256",
          "name": "amount",
          "type": "uint256"
        },
        {
          "internalType": "uint256",
          "name": "removalId",
          "type": "uint256"
        }
      ],
      "name": "mint",
      "outputs": [],
      "stateMutability": "nonpayable",
      "type": "function"
    },
    {
      "inputs": [
        {
          "internalType": "bytes[]",
          "name": "data",
          "type": "bytes[]"
        }
      ],
      "name": "multicall",
      "outputs": [
        {
          "internalType": "bytes[]",
          "name": "results",
          "type": "bytes[]"
        }
      ],
      "stateMutability": "nonpayable",
      "type": "function"
    },
    {
      "inputs": [],
      "name": "pause",
      "outputs": [],
      "stateMutability": "nonpayable",
      "type": "function"
    },
    {
      "inputs": [],
      "name": "paused",
      "outputs": [
        {
          "internalType": "bool",
          "name": "",
          "type": "bool"
        }
      ],
      "stateMutability": "view",
      "type": "function"
    },
    {
      "inputs": [
        {
          "internalType": "contract BridgedPolygonNORI",
          "name": "bridgedPolygonNORI",
          "type": "address"
        },
        {
          "internalType": "contract Removal",
          "name": "removal",
          "type": "address"
        }
      ],
      "name": "registerContractAddresses",
      "outputs": [],
      "stateMutability": "nonpayable",
      "type": "function"
    },
    {
      "inputs": [
        {
          "internalType": "bytes32",
          "name": "role",
          "type": "bytes32"
        },
        {
          "internalType": "address",
          "name": "account",
          "type": "address"
        }
      ],
      "name": "renounceRole",
      "outputs": [],
      "stateMutability": "nonpayable",
      "type": "function"
    },
    {
      "inputs": [
        {
          "internalType": "uint256",
          "name": "scheduleId",
          "type": "uint256"
        }
      ],
      "name": "revocableQuantityForSchedule",
      "outputs": [
        {
          "internalType": "uint256",
          "name": "",
          "type": "uint256"
        }
      ],
      "stateMutability": "view",
      "type": "function"
    },
    {
      "inputs": [
        {
          "internalType": "bytes32",
          "name": "role",
          "type": "bytes32"
        },
        {
          "internalType": "address",
          "name": "account",
          "type": "address"
        }
      ],
      "name": "revokeRole",
      "outputs": [],
      "stateMutability": "nonpayable",
      "type": "function"
    },
    {
      "inputs": [
        {
          "internalType": "uint256",
          "name": "projectId",
          "type": "uint256"
        },
        {
          "internalType": "uint256",
          "name": "amount",
          "type": "uint256"
        },
        {
          "internalType": "address",
          "name": "toAccount",
          "type": "address"
        }
      ],
      "name": "revokeUnreleasedTokens",
      "outputs": [],
      "stateMutability": "nonpayable",
      "type": "function"
    },
    {
      "inputs": [
        {
          "internalType": "address",
          "name": "from",
          "type": "address"
        },
        {
          "internalType": "address",
          "name": "to",
          "type": "address"
        },
        {
          "internalType": "uint256[]",
          "name": "ids",
          "type": "uint256[]"
        },
        {
          "internalType": "uint256[]",
          "name": "amounts",
          "type": "uint256[]"
        },
        {
          "internalType": "bytes",
          "name": "data",
          "type": "bytes"
        }
      ],
      "name": "safeBatchTransferFrom",
      "outputs": [],
      "stateMutability": "nonpayable",
      "type": "function"
    },
    {
      "inputs": [
        {
          "internalType": "address",
          "name": "from",
          "type": "address"
        },
        {
          "internalType": "address",
          "name": "to",
          "type": "address"
        },
        {
          "internalType": "uint256",
          "name": "id",
          "type": "uint256"
        },
        {
          "internalType": "uint256",
          "name": "amount",
          "type": "uint256"
        },
        {
          "internalType": "bytes",
          "name": "data",
          "type": "bytes"
        }
      ],
      "name": "safeTransferFrom",
      "outputs": [],
      "stateMutability": "nonpayable",
      "type": "function"
    },
    {
      "inputs": [
        {
          "internalType": "uint256",
          "name": "scheduleId",
          "type": "uint256"
        }
      ],
      "name": "scheduleExists",
      "outputs": [
        {
          "internalType": "bool",
          "name": "",
          "type": "bool"
        }
      ],
      "stateMutability": "view",
      "type": "function"
    },
    {
      "inputs": [
        {
          "internalType": "address",
          "name": "operator",
          "type": "address"
        },
        {
          "internalType": "bool",
          "name": "approved",
          "type": "bool"
        }
      ],
      "name": "setApprovalForAll",
      "outputs": [],
      "stateMutability": "nonpayable",
      "type": "function"
    },
    {
      "inputs": [
        {
          "internalType": "uint256",
          "name": "methodology",
          "type": "uint256"
        },
        {
          "internalType": "uint256",
          "name": "methodologyVersion",
          "type": "uint256"
        },
        {
          "internalType": "uint256",
          "name": "durationInSeconds",
          "type": "uint256"
        }
      ],
      "name": "setRestrictionDurationForMethodologyAndVersion",
      "outputs": [],
      "stateMutability": "nonpayable",
      "type": "function"
    },
    {
      "inputs": [
        {
          "internalType": "bytes4",
          "name": "interfaceId",
          "type": "bytes4"
        }
      ],
      "name": "supportsInterface",
      "outputs": [
        {
          "internalType": "bool",
          "name": "",
          "type": "bool"
        }
      ],
      "stateMutability": "view",
      "type": "function"
    },
    {
      "inputs": [
        {
          "internalType": "uint256",
          "name": "id",
          "type": "uint256"
        }
      ],
      "name": "totalSupply",
      "outputs": [
        {
          "internalType": "uint256",
          "name": "",
          "type": "uint256"
        }
      ],
      "stateMutability": "view",
      "type": "function"
    },
    {
      "inputs": [],
      "name": "unpause",
      "outputs": [],
      "stateMutability": "nonpayable",
      "type": "function"
    },
    {
      "inputs": [
        {
          "internalType": "uint256",
          "name": "",
          "type": "uint256"
        }
      ],
      "name": "uri",
      "outputs": [
        {
          "internalType": "string",
          "name": "",
          "type": "string"
        }
      ],
      "stateMutability": "view",
      "type": "function"
    },
    {
      "inputs": [
        {
          "internalType": "address",
          "name": "recipient",
          "type": "address"
        },
        {
          "internalType": "uint256",
          "name": "scheduleId",
          "type": "uint256"
        },
        {
          "internalType": "uint256",
          "name": "amount",
          "type": "uint256"
        }
      ],
      "name": "withdrawFromSchedule",
      "outputs": [
        {
          "internalType": "bool",
          "name": "",
          "type": "bool"
        }
      ],
      "stateMutability": "nonpayable",
      "type": "function"
    }
  ],
  "numDeployments": 2,
  "bytecode": "0x60808060405234620000c6576000549060ff8260081c1662000074575060ff8082161062000038575b60405161479d9081620000cc8239f35b60ff90811916176000557f7f26b83ff96e1f2b6a682f133852f6798a09c465da95921460cefb3847402498602060405160ff8152a13862000028565b62461bcd60e51b815260206004820152602760248201527f496e697469616c697a61626c653a20636f6e747261637420697320696e697469604482015266616c697a696e6760c81b6064820152608490fd5b600080fdfe6080604052600436101561001257600080fd5b60003560e01c8062fdd58e1461330857806301ffc9a7146132665780630e89341c146131845780631b2ef1ca14612e79578063229afd6114612e3e578063248a9ca314612e0f57806327ca0c2714612cf95780632d9f0f1614612bf95780632e5e8d8314612bc65780632eb2c2d6146126735780632f2ff15d146125b357806336568abe146124975780633f4ba83a1461240357806346dbd53514611e5f5780634e1273f414611ceb5780634f558e7914611cbd57806355135b671461194b5780635c975abb146119285780635d37165a146118dc5780636235a4e9146118a45780636334334614611800578063639aa0ad146117015780636a00f9eb146114b0578063713279b1146114705780638129fc1c14610ec55780638456cb5914610e6b5780639010d07c14610e2357806391d1485414610dd657806393ae796d14610d6f5780639ac7b44d14610d3b578063a217fddf14610d1f578063a22cb46514610c3b578063a4b186f814610c09578063ac9650d8146109eb578063b8b4dbe0146109b0578063bd85b03914610984578063c1499fa814610921578063ca15c873146108f4578063d5391393146108b9578063d547741f146107eb578063e63ab1e9146107b0578063e985e9c51461075a5763f242432a146101f457600080fd5b346107555760a03660031901126107555761020d61332f565b610215613345565b6084356001600160401b038111610755576102349036906004016135fc565b6001600160a01b039290838216331480801561072a575b610254906144a4565b6102618585161515614508565b61026c6044356141a0565b6102776064356141a0565b91610280613c9d565b858716159081610722575b5086861615610656575b50858416156105fa575b8585161561053a575b505060443560005260209060978252604060002085841660005282526040600020546102d8606435821015614562565b60443560005260978352604060002086851660005283526064359003604060002055604435600052609782526040600020858516600052825260406000206103236064358254613bae565b905560405160443581526064358382015285851690868516907fc3d58168c5ae7397731d063d5bbf3d657854427343f4c083240f7aacaa2d0f6260403392a4833b6103be575b506101929060443560005252604060002091836064356103a8575b505061039260443582613aa5565b1561039a575b005b610398921690600501613dec565b6103b6911660058401613d6e565b503883610384565b60405182818061040263f23a6e6160e01b958683523360048401528a891660248401526044356044840152606435606484015260a0608484015260a4830190613390565b038160008a8a165af16000918161050b575b506104da5750506001610425614114565b6308c379a0146104a5575b61043f57610192905b90610369565b60405162461bcd60e51b815260206004820152603460248201527f455243313135353a207472616e7366657220746f206e6f6e20455243313135356044820152732932b1b2b4bb32b91034b6b83632b6b2b73a32b960611b6064820152608490fd5b0390fd5b6104ad614132565b806104b85750610430565b826104a160405192839262461bcd60e51b845260048401526024830190613390565b6001600160e01b031916036104f25761019290610439565b60405162461bcd60e51b8152806104a1600482016140cb565b61052c919250843d8611610533575b6105248183613514565b8101906140ab565b9038610414565b503d61051a565b92600095929491955b84518110156105ec576105568186613b6b565b51906105628189613b6b565b518260005260c9602052604060002054818110610596576105919360005260c960205203604060002055613b5c565b610543565b60405162461bcd60e51b815260206004820152602860248201527f455243313135353a206275726e20616d6f756e74206578636565647320746f74604482015267616c537570706c7960c01b6064820152608490fd5b5092509290935038806102a8565b92600095929491955b845181101561064a578061061a6106459289613b6b565b516106258288613b6b565b5160005260c960205261063e6040600020918254613bae565b9055613b5c565b610603565b5092949093919461029f565b9392946000969192965b835181101561071557856106748286613b6b565b51806000526101926020526040600020916106b6575b906106b1929160005260c960205260046106a9604060002054836145e1565b910155613b5c565b610660565b6106c0838b613b6b565b518160005260c96020526106e66040600020546106dd848b613aa5565b908a858761469a565b101561068a5760405163e1b8b25f60e01b81526001600160a01b03881660048201526024810191909152604490fd5b5094929350949038610295565b90503861028b565b50848316600052609860205260406000203360005260205261025460ff60406000205416905061024b565b600080fd5b346107555760403660031901126107555761077361332f565b61077b613345565b9060018060a01b03809116600052609860205260406000209116600052602052602060ff604060002054166040519015158152f35b346107555760003660031901126107555760206040517f65d7a28e3265b37a6474929f336521b332c1681b933f6cb9f3376673440d862a8152f35b346107555760403660031901126107555761039860043561012d61080d613345565b918060005260209060fb825261082a600160406000200154613960565b610832613c9d565b600081815260fb835260408082206001600160a01b0390961680835295845290205460ff1661086a575b600052526040600020613dec565b8060005260fb82526040600020846000528252604060002060ff1981541690553384827ff6391f5c32d9c69d2a47ea670b442974b53935d1edc7fd64eb21e047a839171b6000604051a461085c565b346107555760003660031901126107555760206040517f9f2df0fed2c77648de5860a4cc508cd0818c85b8b8a1ab4ceeef8d981c8956a68152f35b346107555760203660031901126107555760043560005261012d6020526020604060002054604051908152f35b346107555760603660031901126107555760443561093d613c9d565b61094561383c565b80156109725760043560005261019160205260406000206024356000526020526040600020556000604051f35b60405163263ad04960e21b8152600490fd5b346107555760203660031901126107555760043560005260c96020526020604060002054604051908152f35b346107555760003660031901126107555760206040517f813b9efdf6afe6b57682eb1fb850711edc34da21ae7f7376cb7a391b1be3239f8152f35b3461075557602080600319360112610755576001600160401b0360043581811161075557610a1d9036906004016133cb565b91610a2783613535565b91610a356040519384613514565b838352601f19610a4485613535565b018560005b828110610bfa5750505060005b848110610abb57604080518781528551818901819052600092600582901b8301810191888b01918b9085015b828710610a8f5785850386f35b909192938280610aab600193603f198a82030186528851613390565b9601920196019592919092610a82565b8060051b820135601e1983360301811215610755578201803590848211610755578701813603811361075557610af29136916135c5565b303b15610ba65790610b7f600080848a610b9a96519101305af43d15610b9f573d610b1c816135aa565b90610b2a6040519283613514565b81523d60008b83013e5b60405191610b41836134de565b602783527f416464726573733a206c6f772d6c6576656c2064656c65676174652063616c6c8b840152660819985a5b195960ca1b6040840152613b7f565b610b898287613b6b565b52610b948186613b6b565b50613b5c565b610a56565b6060610b34565b60405162461bcd60e51b815260048101889052602660248201527f416464726573733a2064656c65676174652063616c6c20746f206e6f6e2d636f6044820152651b9d1c9858dd60d21b6064820152608490fd5b60608682018301528101610a49565b346107555760203660031901126107555760043560005261019260205260206001604060002001541515604051908152f35b3461075557604036600319011261075557610c5461332f565b60243590811515809203610755576001600160a01b031690338214610cc857336000526098602052604060002082600052602052604060002060ff1981541660ff83161790556040519081527f17307eab39ab6107e8899845ad3d59bd9653f200f220920489ca2b5937696c3160203392a3005b60405162461bcd60e51b815260206004820152602960248201527f455243313135353a2073657474696e6720617070726f76616c20737461747573604482015268103337b91039b2b63360b91b6064820152608490fd5b3461075557600036600319011261075557602060405160008152f35b3461075557610d49366133b5565b906000526101916020526040600020906000526020526020604060002054604051908152f35b34610755576040366003190112610755576004356001600160a01b03818116918290036107555760243590811680910361075557610dab613c9d565b610db361383c565b61019580546001600160a01b031990811690931790556101968054909216179055005b3461075557604036600319011261075557610def613345565b60043560005260fb60205260406000209060018060a01b0316600052602052602060ff604060002054166040519015158152f35b346107555760403660031901126107555760043560005261012d6020526020610e526024356040600020613c85565b905460405160039290921b1c6001600160a01b03168152f35b3461075557600036600319011261075557610e8461364e565b610e8c613c9d565b600160ff1960335416176033557f62e78cea01bee320cd4e420270b5ea74000d11b0c9f74754ebdbfc544b05a2586020604051338152a1005b346107555760003660031901126107555760005460ff808260081c1615808091611464575b801561144e575b156113f25760ff19808416600190811760005593826113e0575b5060405192610f19846134de565b603284526020937f68747470733a2f2f6e6f72692e636f6d2f6170692f7265737472696374696f6e858201527139b1b432b23ab63297bdb4b23e973539b7b760711b6040820152610f708260005460081c16613edd565b8051906001600160401b0382116113ca578190610f8e609954613a6b565b601f8111611359575b508690601f83116001146112d7576000926112cc575b5050600019600383901b1c191690861b176099555b6110108160005460081c16610fd681613edd565b610fdf81613edd565b610fe881613edd565b610ff181613edd565b610ffa81613edd565b836033541660335561100b81613edd565b613edd565b611018613c9d565b6000805260fb918285526040600020336000528552816040600020541615611290575b6000805261012d92838652611054336040600020613d6e565b5061105d613c9d565b7f65d7a28e3265b37a6474929f336521b332c1681b933f6cb9f3376673440d862a806000528187526040600020336000528752836040600020541615611254575b6000528386526110b2336040600020613d6e565b506110bb613c9d565b7fb62aeb2ef35a3718e51a7e8b0b0d8e6fa690a4037bf45dad308976da469a861c806000528187526040600020336000528752836040600020541615611218575b600052838652611110336040600020613d6e565b50611119613c9d565b7f813b9efdf6afe6b57682eb1fb850711edc34da21ae7f7376cb7a391b1be3239f9283600052818752604060002033600052875260406000205416156111db575b5050600052825261116f336040600020613d6e565b50611178613c9d565b61118061383c565b82600052610191825260406000206000805282526312cf35706040600020556111a557005b7f7f26b83ff96e1f2b6a682f133852f6798a09c465da95921460cefb38474024989161ff001960005416600055604051908152a1005b8260005285526040600020336000528552856040600020918254161790553333826000805160206147488339815191526000604051a4858061115a565b806000528187526040600020336000528752604060002088848254161790553333826000805160206147488339815191526000604051a46110fc565b806000528187526040600020336000528752604060002088848254161790553333826000805160206147488339815191526000604051a461109e565b600080528285526040600020336000528552604060002086828254161790553333600060008051602061474883398151915281604051a461103b565b015190508780610fad565b90889350601f1983169160996000527f72a152ddfb8e864297c917af52ea6c1c68aead0fee1a62673fcc7e0c94979d009260005b8a828210611343575050841161132a575b505050811b01609955610fc2565b015160001960f88460031b161c1916905587808061131c565b8385015186558c9790950194938401930161130b565b90915060996000527f72a152ddfb8e864297c917af52ea6c1c68aead0fee1a62673fcc7e0c94979d00601f840160051c8101918885106113c0575b84939291601f8b920160051c01915b8281106113b1575050610f97565b600081558594508a91016113a3565b9091508190611394565b634e487b7160e01b600052604160045260246000fd5b61ffff19166101011760005584610f0b565b60405162461bcd60e51b815260206004820152602e60248201527f496e697469616c697a61626c653a20636f6e747261637420697320616c72656160448201526d191e481a5b9a5d1a585b1a5e995960921b6064820152608490fd5b50303b158015610ef15750600182841614610ef1565b50600182841610610eea565b346107555760203660031901126107555760206114a860043580600052610192835260406000209060c9845260406000205491614718565b604051908152f35b34610755576040366003190112610755576114c961332f565b6024356001600160401b038111610755576114e890369060040161354c565b9081516114f481613535565b906115026040519283613514565b808252611511601f1991613535565b0160005b8181106116ea57505060005b8351811015611664576115348185613b6b565b51600052602090610192825260016040600020015461155d575b6115589150613b5c565b611521565b61159f61156a8287613b6b565b5160405163639aa0ad60e01b81526001600160a01b0387166004820152602481019190915260c0918290829081906044820190565b0381305afa918215611658576000926115d5575b505061155892506115c48285613b6b565b526115cf8184613b6b565b5061154e565b90809250813d8311611651575b6115ec8183613514565b8101031261075557604051906116018261348c565b8051936001600160a01b038516850361075557611558948352808201519083015260408101516040830152606080820151908301526080808201519083015260a0809101519082015286806115b3565b503d6115e2565b6040513d6000823e3d90fd5b506040516020918282018383528151809152836040840192019360005b82811061168e5784840385f35b9091928260c0826116db6001948a5160a08091600180831b038151168452602081015160208501526040810151604085015260608101516060850152608081015160808501520151910152565b01960191019492919094611681565b6020906116f5613f3d565b82828601015201611515565b346107555760403660031901126107555760c061171c61332f565b602435611727613f3d565b508060005261019260205260406000206117418284613aa5565b928260005260c960205261176760406000205461175e8584613aa5565b9083868661469a565b9060018060a01b031693846000526007830160205260086040600020549301602052604060002054936040519561179d8761348c565b8652602086015260408501526060840152608083015260a08201526117fe604051809260a08091600180831b038151168452602081015160208501526040810151604085015260608101516060850152608081015160808501520151910152565bf35b3461075557600036600319011261075557610193805461181f81613b2a565b60005b815181101561188a57828110156118745761186f9084600052807ffc8af01f449989052b52093a58fc9f42d0b11f0c6dd5dca0463dab62346ccc6801546118698285613b6b565b52613b5c565b611822565b634e487b7160e01b600052603260045260246000fd5b604051602080825281906118a09082018561361a565b0390f35b346107555760203660031901126107555760206114a860043580600052610192835260406000209060c984526040600020549161465c565b346107555760403660031901126107555760206114a86004356118fd613345565b9080600052610192845260406000209160c98552604060002054916119228183613aa5565b9361469a565b3461075557600036600319011261075557602060ff603354166040519015158152f35b346107555760803660031901126107555760043560248035906044359060ff82168092036107555760643560ff811680910361075557611989613c9d565b3360009081527fbc1f75e4c102f53298af8243d58783a2b220b757debb73933def796fbf8619ef60209081526040909120549093907fb62aeb2ef35a3718e51a7e8b0b0d8e6fa690a4037bf45dad308976da469a861c9060ff1615611af4575060005261019183526040600020906000528252604060002054908315611ab1578115611a6e5750916040917fc6bf85d136b95579125a47c9781847cacd55015777db8a853dd17946aed35fb2938560005261019282526001611a52856000209285845585613bae565b9101908155611a6086613ce1565b5054908351928352820152a2005b8260176064926040519262461bcd60e51b845260048401528201527f724e4f52493a206475726174696f6e206e6f74207365740000000000000000006044820152fd5b8260196064926040519262461bcd60e51b845260048401528201527f724e4f52493a20496e76616c69642073746172742074696d65000000000000006044820152fd5b848491611b0033613bcb565b90604051611b0d816134f9565b60428152838101916060368437815115611ca857603083538151600190811015611c9357607860218401536041905b808211611c25575050611be35760486104a193611bb893611bc79360405195869376020b1b1b2b9b9a1b7b73a3937b61d1030b1b1b7bab73a1604d1b8a860152611b8f815180928c60378901910161335b565b8401917001034b99036b4b9b9b4b733903937b6329607d1b60378401525180938684019061335b565b01036028810184520182613514565b60405193849362461bcd60e51b85526004850152830190613390565b606485856040519162461bcd60e51b83528160048401528201527f537472696e67733a20686578206c656e67746820696e73756666696369656e746044820152fd5b9091600f81166010811015611c7e576f181899199a1a9b1b9c1cb0b131b232b360811b901a611c548486613bba565b5360041c918015611c69576000190190611b3c565b87634e487b7160e01b60005260116004526000fd5b88634e487b7160e01b60005260326004526000fd5b86634e487b7160e01b60005260326004526000fd5b85634e487b7160e01b60005260326004526000fd5b346107555760203660031901126107555760043560005260c960205260206040600020541515604051908152f35b34610755576040366003190112610755576004356001600160401b03808211610755573660238301121561075557816004013590611d2882613535565b92611d366040519485613514565b82845260209260248486019160051b8301019136831161075557602401905b828210611e405750505060243590811161075557611d7790369060040161354c565b8251815103611de957611d8a8351613b2a565b9260005b8151811015611dd257611dcd90611dc36001600160a01b03611db08386613b6b565b5116611dbc8387613b6b565b5190613aa5565b6118698288613b6b565b611d8e565b5050506118a060405192828493845283019061361a565b60405162461bcd60e51b815260048101839052602960248201527f455243313135353a206163636f756e747320616e6420696473206c656e677468604482015268040dad2e6dac2e8c6d60bb1b6064820152608490fd5b81356001600160a01b0381168103610755578152908401908401611d55565b34610755576060366003190112610755576024356044356001600160a01b038116900361075557611e8e613c9d565b3360009081527f99141412ed334650e7ddced338199a5e4a820639cb8ffe2e1add19b576f2108160205260409020547f813b9efdf6afe6b57682eb1fb850711edc34da21ae7f7376cb7a391b1be3239f9060ff16156122c057506004356000526101926020526040600020906001820154156122a75760043560005260c9602052611f2160406000205460043584614718565b80821161228e5781156122865750905b6005810190604051928384602085549283815201809560005260206000209260005b81811061226d575050611f6892500385613514565b611f728451613b2a565b9160005b8551811015611fb157611fac90611fa26004356001600160a01b03611f9b848b613b6b565b5116613aa5565b6118698287613b6b565b611f76565b50909391611fbf8351613b2a565b946000916000946002850154935b815160018110612257576000190187101561209957612056906120509088908b896001600160a01b036120008589613b6b565b511661200c858a613b6b565b519060043560005260c96020526120286040600020548d613bae565b908b82158015612091575b1561205c57505050505061204a6000938492613b6b565b52613bae565b96613b5c565b95611fcd565b61207f61208994600761204a976120849560005201602052604060002054613bae565b613b9b565b6145c1565b938492613b6b565b508015612033565b889186896120a8879485613de1565b835160018110612257579294926120c3906000190187613b6b565b52600884019160005b84518110156121405761213b906121056001600160a01b036120ee8389613b6b565b51166120fa838b613b6b565b5190600435906141ed565b61210f8189613b6b565b516001600160a01b036121228389613b6b565b51166000528560205261063e6040600020918254613bae565b6120cc565b50858460038701612152848254613bae565b9055604051906060820190848352606060208401525180915260808201949060005b8181106122385760006020612200888a897f988d249f1e88aec58e18388b0911f4b82db7677c5928dc0f64a16598270f321b8a8084036040820152806121be60043595429561361a565b0390a36101955460405163a9059cbb60e01b81526001600160a01b03604480358216600484015260248301949094529095869491909216928492918391820190565b03925af180156116585761221057005b6103989060203d602011612231575b6122298183613514565b8101906141d5565b503d61221f565b82516001600160a01b0316875260209687019690920191600101612174565b634e487b7160e01b600052601160045260246000fd5b8454835260019485019489945060209093019201611f53565b905090611f31565b6024604051630c21a50760e31b81526004356004820152fd5b60246040516325f8781760e01b81526004356004820152fd5b6122c933613bcb565b604051916122d6836134f9565b60428352602083019060603683378351156118745760308253835160019081101561187457607860218601536041905b8082116123bf57505061237b576048611bb89261235b926104a19560405195869376020b1b1b2b9b9a1b7b73a3937b61d1030b1b1b7bab73a1604d1b6020860152611b8f81518092602060378901910161335b565b60405162461bcd60e51b8152602060048201529182916024830190613390565b606460405162461bcd60e51b815260206004820152602060248201527f537472696e67733a20686578206c656e67746820696e73756666696369656e746044820152fd5b9091600f81166010811015611874576f181899199a1a9b1b9c1cb0b131b232b360811b901a6123ee8488613bba565b5360041c918015612257576000190190612306565b346107555760003660031901126107555761241c61364e565b60335460ff81161561245b5760ff19166033557f5db9ee0a495bf2e6ff9c91a7834c1ba4fdd244a5e8aa4e537bd38aeae4b073aa6020604051338152a1005b60405162461bcd60e51b815260206004820152601460248201527314185d5cd8589b194e881b9bdd081c185d5cd95960621b6044820152606490fd5b34610755576040366003190112610755576004356001600160a01b036124bb613345565b1633810361255657610398916124cf613c9d565b8060005260fb60205260406000208260005260205260ff60406000205416612505575b60005261012d6020526040600020613dec565b8060005260fb602052604060002082600052602052604060002060ff1981541690553382827ff6391f5c32d9c69d2a47ea670b442974b53935d1edc7fd64eb21e047a839171b6000604051a46124f2565b60405162461bcd60e51b815260206004820152602f60248201527f416363657373436f6e74726f6c3a2063616e206f6e6c792072656e6f756e636560448201526e103937b632b9903337b91039b2b63360891b6064820152608490fd5b346107555760403660031901126107555761039860043561012d6125d5613345565b918060005260209060fb82526125f2600160406000200154613960565b6125fa613c9d565b600081815260fb835260408082206001600160a01b0390961680835295845290205460ff1615612633575b600052526040600020613d6e565b8060005260fb825260406000208460005282526040600020600160ff198254161790553384826000805160206147488339815191526000604051a4612625565b346107555760a03660031901126107555761268c61332f565b612694613345565b906001600160401b03604435818111610755576126b590369060040161354c565b92606435828111610755576126ce90369060040161354c565b91608435908111610755576126e79036906004016135fc565b926001600160a01b038082163314808015612b9b575b612706906144a4565b8651855103612b455761271c8285161515614508565b612724613c9d565b838216159081612b3d575b5081841615612a82575b5080821615612a4c575b808316156129e4575b60005b86518110156127e157806127666127dc9289613b6b565b516127718288613b6b565b5190806000526097602091818352604060002087891660005283528360406000205461279f82821015614562565b826000528385526040600020898b1660005285520360406000205560005281526040600020908588166000525261063e6040600020918254613bae565b61274f565b50929193604051604081526127f9604082018861361a565b908082036020820152858716917f4a39dc06d4c0dbc64b70af90fd698a233a518aa5d07e595d983b8c0526c8f7fb878616928061283733948a61361a565b0390a4843b6128cb575b5060005b8551811015610398578061285c61289a9288613b6b565b5160005261019260205260406000206128758286613b6b565b516128b6575b61288f612888838a613b6b565b5185613aa5565b1561289f5750613b5c565b612845565b6128af9060058786169101613dec565b5087610b94565b6128c586881660058301613d6e565b5061287b565b6040516020818061292b63bc197c8160e01b95868352336004840152898816602484015260a060448401526129196129078d60a486019061361a565b8481036003190160648601528a61361a565b83810360031901608485015290613390565b03816000898b165af1600091816129c3575b5061299b575050600161294e614114565b6308c379a014612964575b61043f575b85612841565b61296c614132565b806129775750612959565b60405162461bcd60e51b8152602060048201529081906104a1906024830190613390565b6001600160e01b0319161461295e5760405162461bcd60e51b8152806104a1600482016140cb565b6129dd91925060203d602011610533576105248183613514565b908861293d565b93919060009593955b8451811015612a4057612a008186613b6b565b5190612a0c8189613b6b565b518260005260c960205260406000205481811061059657612a3b9360005260c960205203604060002055613b5c565b6129ed565b5090919394929461274c565b93919060005b8651811015612a795780612a69612a749287613b6b565b51610625828a613b6b565b612a52565b50909193612743565b9395919260009591955b8351811015612b305785612aa08286613b6b565b5180600052610192602052604060002091612ada575b90612ad5929160005260c960205260046106a9604060002054836145e1565b612a8c565b612ae4838b613b6b565b518160005260c9602052612b016040600020546106dd848b613aa5565b1015612ab65760405163e1b8b25f60e01b81526001600160a01b03881660048201526024810191909152604490fd5b5092919593509386612739565b90508761272f565b60405162461bcd60e51b815260206004820152602860248201527f455243313135353a2069647320616e6420616d6f756e7473206c656e677468206044820152670dad2e6dac2e8c6d60c31b6064820152608490fd5b50818316600052609860205260406000203360005260205261270660ff6040600020541690506126fd565b34610755576020366003190112610755576118a0612be5600435613fac565b6040519182916020835260208301906133fb565b3461075557602080600319360112610755576004356001600160401b03811161075557612c2a9036906004016133cb565b612c3381613535565b91612c416040519384613514565b818352601f19612c5083613535565b018460005b828110612ce35750505060005b828110612ccb575050506040519082820192808352815180945260408301938160408260051b8601019301916000955b828710612c9f5785850386f35b909192938280612cbb600193603f198a820301865288516133fb565b9601920196019592919092612c92565b80610b7f612cde9260051b840135613fac565b612c62565b612ceb613f6f565b828288010152018590612c55565b3461075557606036600319011261075557612d1261332f565b612dd9602435604435612d268183336141ed565b81600052602093849261019284526007604060002060028101612d4a868254613bae565b9055336000520184526040600020612d63848254613bae565b90556040518381526001600160a01b0391908383169033907fff097c7d8b1957a4ff09ef1361b5fb54dcede3941ba836d0beb9d10bec725de6908890a4610195541690600060405180968195829463a9059cbb60e01b84526004840160209093929193604081019460018060a01b031681520152565b03925af1801561165857612df2575b5060405160018152f35b612e0890823d8411612231576122298183613514565b5081612de8565b346107555760203660031901126107555760043560005260fb6020526020600160406000200154604051908152f35b346107555760003660031901126107555760206040517fb62aeb2ef35a3718e51a7e8b0b0d8e6fa690a4037bf45dad308976da469a861c8152f35b3461075557612e87366133b5565b3360009081527f72f2994cda805697ff5940dc92bd4118d9d7058b657a897ee8a2023e4f67343460209081526040909120549092919060ff161561316d5761019654604051633d932dfb60e01b815260048101839052916001600160a01b039185908490602490829086165afa9283156116585760009361313e575b50841c169160405192612f15846134c3565b6000845280156130ef57612f28836141a0565b92612f32836141a0565b92612f3b613c9d565b60005b8551811015612f7d5780612f55612f789287613b6b565b51612f608289613b6b565b5160005260c98a5261063e6040600020918254613bae565b612f3e565b5086935085826000526097855260406000208460005285526040600020612fa5838254613bae565b905583600060405185815284888201527fc3d58168c5ae7397731d063d5bbf3d657854427343f4c083240f7aacaa2d0f6260403392a4833b612ffc575b610398846101928786600052526005604060002001613d6e565b8461303d916040518093819263f23a6e6160e01b9687845233600485015260006024850152886044850152606484015260a0608484015260a4830190613390565b03816000885af1600091816130d0575b506130b4575050600161305e614114565b6308c379a01461307f575b61043f5761039892610192915b91819450612fe2565b613087614132565b806130925750613069565b846104a160405192839262461bcd60e51b845260048401526024830190613390565b6001600160e01b031916036104f2576103989261019291613076565b6130e8919250863d8811610533576105248183613514565b908661304d565b60405162461bcd60e51b815260048101869052602160248201527f455243313135353a206d696e7420746f20746865207a65726f206164647265736044820152607360f81b6064820152608490fd5b9092508481813d8311613166575b6131568183613514565b8101031261075557519185612f03565b503d61314c565b60405162f78d2360e81b8152336004820152602490fd5b34610755576020806003193601126107555760405190600082609954916131aa83613a6b565b928383526001908582821691826000146132465750506001146131e9575b506131d592500383613514565b6118a0604051928284938452830190613390565b84915060996000527f72a152ddfb8e864297c917af52ea6c1c68aead0fee1a62673fcc7e0c94979d00906000915b85831061322e5750506131d59350820101856131c8565b80548389018501528794508693909201918101613217565b60ff1916858201526131d595151560051b85010192508791506131c89050565b346107555760203660031901126107555760043563ffffffff60e01b811680910361075557602090635a05180f60e01b81149081156132ab575b506040519015158152f35b637965db0b60e01b8114915081156132c5575b50826132a0565b636cdb3d1360e11b8114915081156132f7575b81156132e6575b50826132be565b6301ffc9a760e01b149050826132df565b6303a24d0760e21b811491506132d8565b346107555760403660031901126107555760206114a861332661332f565b60243590613aa5565b600435906001600160a01b038216820361075557565b602435906001600160a01b038216820361075557565b918091926000905b82821061337b575011613374575050565b6000910152565b91508060209183015181860152018291613363565b906020916133a98151809281855285808601910161335b565b601f01601f1916010190565b6040906003190112610755576004359060243590565b9181601f84011215610755578235916001600160401b038311610755576020808501948460051b01011161075557565b9060e0906101009261012084830192825181526020948386809501518584015260408101516040840152606081015160608401526080810151608084015260a081015160a084015260c081015160c084015201519560e082015285518094520193019160005b82811061346f575050505090565b83516001600160a01b031685529381019392810192600101613461565b60c081019081106001600160401b038211176113ca57604052565b61010081019081106001600160401b038211176113ca57604052565b602081019081106001600160401b038211176113ca57604052565b606081019081106001600160401b038211176113ca57604052565b608081019081106001600160401b038211176113ca57604052565b90601f801991011681019081106001600160401b038211176113ca57604052565b6001600160401b0381116113ca5760051b60200190565b81601f820112156107555780359161356383613535565b926135716040519485613514565b808452602092838086019260051b820101928311610755578301905b82821061359b575050505090565b8135815290830190830161358d565b6001600160401b0381116113ca57601f01601f191660200190565b9291926135d1826135aa565b916135df6040519384613514565b829481845281830111610755578281602093846000960137010152565b9080601f8301121561075557816020613617933591016135c5565b90565b90815180825260208080930193019160005b82811061363a575050505090565b83518552938101939281019260010161362c565b3360009081527fc81858b0fc5e8d7d2c7a341b4e13a62a27b51e1da1072bf5f7fee8fdef673e94602090815260408083205490927f65d7a28e3265b37a6474929f336521b332c1681b933f6cb9f3376673440d862a9160ff16156136b25750505050565b6136bb33613bcb565b918451906136c8826134f9565b6042825284820192606036853782511561382857603084538251906001918210156138285790607860218501536041915b8183116137ba575050506137785760486104a193869361375c9361374d985198899376020b1b1b2b9b9a1b7b73a3937b61d1030b1b1b7bab73a1604d1b8a860152611b8f815180928c60378901910161335b565b01036028810187520185613514565b5192839262461bcd60e51b845260048401526024830190613390565b60648486519062461bcd60e51b825280600483015260248201527f537472696e67733a20686578206c656e67746820696e73756666696369656e746044820152fd5b909192600f81166010811015613814576f181899199a1a9b1b9c1cb0b131b232b360811b901a6137ea8587613bba565b5360041c928015613800576000190191906136f9565b634e487b7160e01b82526011600452602482fd5b634e487b7160e01b83526032600452602483fd5b634e487b7160e01b81526032600452602490fd5b3360009081527fc88390e7e62175be0932452175b6a7222b6b094ab0ef984a5153c620345d8975602090815260408083205490929060ff161561387e57505050565b61388733613bcb565b9080845190613895826134f9565b6042825284820192606036853782511561382857603084538251906001918210156138285790607860218501536041915b81831161391a575050506137785760486104a193869361375c9361374d985198899376020b1b1b2b9b9a1b7b73a3937b61d1030b1b1b7bab73a1604d1b8a860152611b8f815180928c60378901910161335b565b909192600f81166010811015613814576f181899199a1a9b1b9c1cb0b131b232b360811b901a61394a8587613bba565b5360041c928015613800576000190191906138c6565b60009080825260209060fb8252604092838120338252835260ff84822054161561398a5750505050565b61399333613bcb565b918451906139a0826134f9565b6042825284820192606036853782511561382857603084538251906001918210156138285790607860218501536041915b818311613a25575050506137785760486104a193869361375c9361374d985198899376020b1b1b2b9b9a1b7b73a3937b61d1030b1b1b7bab73a1604d1b8a860152611b8f815180928c60378901910161335b565b909192600f81166010811015613814576f181899199a1a9b1b9c1cb0b131b232b360811b901a613a558587613bba565b5360041c928015613800576000190191906139d1565b90600182811c92168015613a9b575b6020831014613a8557565b634e487b7160e01b600052602260045260246000fd5b91607f1691613a7a565b6001600160a01b0316908115613ad257600052609760205260406000209060005260205260406000205490565b60405162461bcd60e51b815260206004820152602a60248201527f455243313135353a2061646472657373207a65726f206973206e6f742061207660448201526930b634b21037bbb732b960b11b6064820152608490fd5b90613b3482613535565b613b416040519182613514565b8281528092613b52601f1991613535565b0190602036910137565b60001981146122575760010190565b80518210156118745760209160051b010190565b90919015613b8b575090565b8151156129775750805190602001fd5b8060001904821181151516612257570290565b81198111612257570190565b908151811015611874570160200190565b60405190613bd8826134de565b602a82526020820160403682378251156118745760309053815160019081101561187457607860218401536029905b808211613c1757505061237b5790565b9091600f81166010811015613c70576f181899199a1a9b1b9c1cb0b131b232b360811b901a613c468486613bba565b5360041c918015613c5b576000190190613c07565b60246000634e487b7160e01b81526011600452fd5b60246000634e487b7160e01b81526032600452fd5b80548210156118745760005260206000200190600090565b60ff60335416613ca957565b60405162461bcd60e51b815260206004820152601060248201526f14185d5cd8589b194e881c185d5cd95960821b6044820152606490fd5b906000918083526101949283602052604081205415600014613d695761019393845494600160401b861015613d555760018601808255861015613814578360409495967ffc8af01f449989052b52093a58fc9f42d0b11f0c6dd5dca0463dab62346ccc680155549382526020522055600190565b634e487b7160e01b83526041600452602483fd5b925050565b91906001830160009082825280602052604082205415600014613ddb57845494600160401b861015613d555783613dcb613db2886001604098999a01855584613c85565b819391549060031b600019811b9283911b169119161790565b9055549382526020522055600190565b50925050565b818110612257570390565b90600182019060009281845282602052604084205490811515600014613ed65760018210613ec25760001991828101825460018110613eae57840190808203613e79575b50505080548015613e6557820191613e488383613c85565b909182549160031b1b191690555582526020526040812055600190565b634e487b7160e01b86526031600452602486fd5b613e99613e89613db29386613c85565b90549060031b1c92839286613c85565b90558652846020526040862055388080613e30565b634e487b7160e01b88526011600452602488fd5b634e487b7160e01b85526011600452602485fd5b5050505090565b15613ee457565b60405162461bcd60e51b815260206004820152602b60248201527f496e697469616c697a61626c653a20636f6e7472616374206973206e6f74206960448201526a6e697469616c697a696e6760a81b6064820152608490fd5b60405190613f4a8261348c565b8160a06000918281528260208201528260408201528260608201528260808201520152565b60405190613f7c826134a7565b606060e083600080825280602083015280604083015280848301528060808301528060a083015260c08201520152565b613fb4613f6f565b50600081815261019260205260409081812060058101928354613fd681613535565b94613fe383519687613514565b818652601f19613ff283613535565b0136602088013761400282613b2a565b90855b8381106140705750505050815492600183015486825260c96020526140328380842054932054888661465c565b92600360028601549501549581519861404a8a6134a7565b895260208901528701526060860152608085015260a084015260c083015260e082015290565b8061407e6140a69284613c85565b905460039190911b1c6001600160a01b031661409a828b613b6b565b52896118698286613b6b565b614005565b9081602091031261075557516001600160e01b0319811681036107555790565b60809060208152602860208201527f455243313135353a204552433131353552656365697665722072656a656374656040820152676420746f6b656e7360c01b60608201520190565b60009060033d1161412157565b905060046000803e60005160e01c90565b600060443d1061361757604051600319913d83016004833e81516001600160401b03918282113d60248401111761418f57818401948551938411614197573d8501016020848701011161418f575061361792910160200190613514565b949350505050565b50949350505050565b60405190604082018281106001600160401b038211176113ca5760405260018252602082016020368237825115611874575290565b90816020910312610755575180151581036107555790565b9290916001600160a01b0384169182156144535761420a846141a0565b614213836141a0565b90604093845193614223856134c3565b6000809552614230613c9d565b33871496855b84518110156142da578861424a8287613b6b565b5180895260209061019282528a8a209261427f575b61427a93929160c9918b525260046106a98b8b2054836145e1565b614236565b8d6142ac61428d868c613b6b565b5191838d5260c985528d8d20546142a48583613aa5565b91858861469a565b101561425f578a5163e1b8b25f60e01b81526001600160a01b038f1660048201526024810191909152604490fd5b509294965092975095855b8451811015614389576142f88186613b6b565b51614303828b613b6b565b519080895260c96020818152898b205492848410614334578b5252878920919003905561432f90613b5c565b6142e5565b8a5162461bcd60e51b815260048101839052602860248201527f455243313135353a206275726e20616d6f756e74206578636565647320746f74604482015267616c537570706c7960c01b6064820152608490fd5b5092509293949095508185526020609781528486208487528152848620548281106144035790828493928896958752609783528787208688528352038686205585519283528201527fc3d58168c5ae7397731d063d5bbf3d657854427343f4c083240f7aacaa2d0f62843392a451614400816134c3565b52565b855162461bcd60e51b8152600481018390526024808201527f455243313135353a206275726e20616d6f756e7420657863656564732062616c604482015263616e636560e01b6064820152608490fd5b60405162461bcd60e51b815260206004820152602360248201527f455243313135353a206275726e2066726f6d20746865207a65726f206164647260448201526265737360e81b6064820152608490fd5b156144ab57565b60405162461bcd60e51b815260206004820152602f60248201527f455243313135353a2063616c6c6572206973206e6f7420746f6b656e206f776e60448201526e195c881b9bdc88185c1c1c9bdd9959608a1b6064820152608490fd5b1561450f57565b60405162461bcd60e51b815260206004820152602560248201527f455243313135353a207472616e7366657220746f20746865207a65726f206164604482015264647265737360d81b6064820152608490fd5b1561456957565b60405162461bcd60e51b815260206004820152602a60248201527f455243313135353a20696e73756666696369656e742062616c616e636520666f60448201526939103a3930b739b332b960b11b6064820152608490fd5b81156145cb570490565b634e487b7160e01b600052601260045260246000fd5b9060049060009060018401548042101560001461460f57509050915b015480821061460a575090565b905090565b61461b85548092613de1565b91814210600014614630575050505b916145fd565b61465793509061465161464a612084936002890154613bae565b9142613de1565b90613b9b565b61462a565b9190600183015415614682575090600261467961361793836145e1565b91015490613de1565b602490604051906325f8781760e01b82526004820152fd5b929391936002840154926146ae8285613bae565b9260009484158015614710575b156146cd575050505050505050600090565b6147056146fe6120849561465194604061470b9a6136179d60018060a01b0316815260078d0160205220549a61465c565b9388613bae565b92613bae565b613de1565b5082156146bb565b91906001830154156146825750906147418261473b613617946002850154613bae565b926145e1565b90613de156fe2f8788117e7eff1d82e926ec794901d17c78024a50270940304540a733656f0da264697066735822122032c5ecb02a68eddb858e09306054bf810db94ed40d8f756abd2a08fa1f1550fc64736f6c634300080f0033"
}