{
  "address": "0x44AD2d93B6790c750FD171Cb2872cC12cE025eBd",
  "abi": [
    {
      "inputs": [],
      "stateMutability": "nonpayable",
      "type": "constructor"
    },
    {
      "inputs": [],
      "name": "FunctionDisabled",
      "type": "error"
    },
    {
      "inputs": [
        {
          "internalType": "address",
          "name": "account",
          "type": "address"
        },
        {
          "internalType": "uint256",
          "name": "scheduleId",
          "type": "uint256"
        }
      ],
      "name": "InsufficientClaimableBalance",
      "type": "error"
    },
    {
      "inputs": [
        {
          "internalType": "uint256",
          "name": "scheduleId",
          "type": "uint256"
        }
      ],
      "name": "InsufficientUnreleasedTokens",
      "type": "error"
    },
    {
      "inputs": [
        {
          "internalType": "address",
          "name": "account",
          "type": "address"
        }
      ],
      "name": "InvalidMinter",
      "type": "error"
    },
    {
      "inputs": [],
      "name": "InvalidZeroDuration",
      "type": "error"
    },
    {
      "inputs": [
        {
          "internalType": "uint256",
          "name": "scheduleId",
          "type": "uint256"
        }
      ],
      "name": "NonexistentSchedule",
      "type": "error"
    },
    {
      "inputs": [
        {
          "internalType": "uint256",
          "name": "scheduleId",
          "type": "uint256"
        }
      ],
      "name": "ScheduleExists",
      "type": "error"
    },
    {
      "inputs": [],
      "name": "SenderNotMarketContract",
      "type": "error"
    },
    {
      "anonymous": false,
      "inputs": [
        {
          "indexed": true,
          "internalType": "address",
          "name": "account",
          "type": "address"
        },
        {
          "indexed": true,
          "internalType": "address",
          "name": "operator",
          "type": "address"
        },
        {
          "indexed": false,
          "internalType": "bool",
          "name": "approved",
          "type": "bool"
        }
      ],
      "name": "ApprovalForAll",
      "type": "event"
    },
    {
      "anonymous": false,
      "inputs": [
        {
          "indexed": true,
          "internalType": "address",
          "name": "from",
          "type": "address"
        },
        {
          "indexed": true,
          "internalType": "address",
          "name": "to",
          "type": "address"
        },
        {
          "indexed": true,
          "internalType": "uint256",
          "name": "scheduleId",
          "type": "uint256"
        },
        {
          "indexed": false,
          "internalType": "uint256",
          "name": "quantity",
          "type": "uint256"
        }
      ],
      "name": "ClaimTokens",
      "type": "event"
    },
    {
      "anonymous": false,
      "inputs": [
        {
          "indexed": false,
          "internalType": "uint8",
          "name": "version",
          "type": "uint8"
        }
      ],
      "name": "Initialized",
      "type": "event"
    },
    {
      "anonymous": false,
      "inputs": [
        {
          "indexed": false,
          "internalType": "address",
          "name": "account",
          "type": "address"
        }
      ],
      "name": "Paused",
      "type": "event"
    },
    {
      "anonymous": false,
      "inputs": [
        {
          "indexed": true,
          "internalType": "uint256",
          "name": "atTime",
          "type": "uint256"
        },
        {
          "indexed": true,
          "internalType": "uint256",
          "name": "scheduleId",
          "type": "uint256"
        },
        {
          "indexed": true,
          "internalType": "uint256",
          "name": "removalId",
          "type": "uint256"
        },
        {
          "indexed": false,
          "internalType": "uint256",
          "name": "quantity",
          "type": "uint256"
        },
        {
          "indexed": false,
          "internalType": "address[]",
          "name": "scheduleOwners",
          "type": "address[]"
        },
        {
          "indexed": false,
          "internalType": "uint256[]",
          "name": "quantitiesBurned",
          "type": "uint256[]"
        }
      ],
      "name": "RevokeTokens",
      "type": "event"
    },
    {
      "anonymous": false,
      "inputs": [
        {
          "indexed": true,
          "internalType": "bytes32",
          "name": "role",
          "type": "bytes32"
        },
        {
          "indexed": true,
          "internalType": "bytes32",
          "name": "previousAdminRole",
          "type": "bytes32"
        },
        {
          "indexed": true,
          "internalType": "bytes32",
          "name": "newAdminRole",
          "type": "bytes32"
        }
      ],
      "name": "RoleAdminChanged",
      "type": "event"
    },
    {
      "anonymous": false,
      "inputs": [
        {
          "indexed": true,
          "internalType": "bytes32",
          "name": "role",
          "type": "bytes32"
        },
        {
          "indexed": true,
          "internalType": "address",
          "name": "account",
          "type": "address"
        },
        {
          "indexed": true,
          "internalType": "address",
          "name": "sender",
          "type": "address"
        }
      ],
      "name": "RoleGranted",
      "type": "event"
    },
    {
      "anonymous": false,
      "inputs": [
        {
          "indexed": true,
          "internalType": "bytes32",
          "name": "role",
          "type": "bytes32"
        },
        {
          "indexed": true,
          "internalType": "address",
          "name": "account",
          "type": "address"
        },
        {
          "indexed": true,
          "internalType": "address",
          "name": "sender",
          "type": "address"
        }
      ],
      "name": "RoleRevoked",
      "type": "event"
    },
    {
      "anonymous": false,
      "inputs": [
        {
          "indexed": true,
          "internalType": "uint256",
          "name": "projectId",
          "type": "uint256"
        },
        {
          "indexed": false,
          "internalType": "uint256",
          "name": "startTime",
          "type": "uint256"
        },
        {
          "indexed": false,
          "internalType": "uint256",
          "name": "endTime",
          "type": "uint256"
        }
      ],
      "name": "ScheduleCreated",
      "type": "event"
    },
    {
      "anonymous": false,
      "inputs": [
        {
          "indexed": true,
          "internalType": "address",
          "name": "operator",
          "type": "address"
        },
        {
          "indexed": true,
          "internalType": "address",
          "name": "from",
          "type": "address"
        },
        {
          "indexed": true,
          "internalType": "address",
          "name": "to",
          "type": "address"
        },
        {
          "indexed": false,
          "internalType": "uint256[]",
          "name": "ids",
          "type": "uint256[]"
        },
        {
          "indexed": false,
          "internalType": "uint256[]",
          "name": "values",
          "type": "uint256[]"
        }
      ],
      "name": "TransferBatch",
      "type": "event"
    },
    {
      "anonymous": false,
      "inputs": [
        {
          "indexed": true,
          "internalType": "address",
          "name": "operator",
          "type": "address"
        },
        {
          "indexed": true,
          "internalType": "address",
          "name": "from",
          "type": "address"
        },
        {
          "indexed": true,
          "internalType": "address",
          "name": "to",
          "type": "address"
        },
        {
          "indexed": false,
          "internalType": "uint256",
          "name": "id",
          "type": "uint256"
        },
        {
          "indexed": false,
          "internalType": "uint256",
          "name": "value",
          "type": "uint256"
        }
      ],
      "name": "TransferSingle",
      "type": "event"
    },
    {
      "anonymous": false,
      "inputs": [
        {
          "indexed": false,
          "internalType": "string",
          "name": "value",
          "type": "string"
        },
        {
          "indexed": true,
          "internalType": "uint256",
          "name": "id",
          "type": "uint256"
        }
      ],
      "name": "URI",
      "type": "event"
    },
    {
      "anonymous": false,
      "inputs": [
        {
          "indexed": false,
          "internalType": "address",
          "name": "account",
          "type": "address"
        }
      ],
      "name": "Unpaused",
      "type": "event"
    },
    {
      "inputs": [],
      "name": "DEFAULT_ADMIN_ROLE",
      "outputs": [
        {
          "internalType": "bytes32",
          "name": "",
          "type": "bytes32"
        }
      ],
      "stateMutability": "view",
      "type": "function"
    },
    {
      "inputs": [],
      "name": "MINTER_ROLE",
      "outputs": [
        {
          "internalType": "bytes32",
          "name": "",
          "type": "bytes32"
        }
      ],
      "stateMutability": "view",
      "type": "function"
    },
    {
      "inputs": [],
      "name": "PAUSER_ROLE",
      "outputs": [
        {
          "internalType": "bytes32",
          "name": "",
          "type": "bytes32"
        }
      ],
      "stateMutability": "view",
      "type": "function"
    },
    {
      "inputs": [],
      "name": "SCHEDULE_CREATOR_ROLE",
      "outputs": [
        {
          "internalType": "bytes32",
          "name": "",
          "type": "bytes32"
        }
      ],
      "stateMutability": "view",
      "type": "function"
    },
    {
      "inputs": [],
      "name": "TOKEN_REVOKER_ROLE",
      "outputs": [
        {
          "internalType": "bytes32",
          "name": "",
          "type": "bytes32"
        }
      ],
      "stateMutability": "view",
      "type": "function"
    },
    {
      "inputs": [
        {
          "internalType": "address",
          "name": "account",
          "type": "address"
        },
        {
          "internalType": "uint256",
          "name": "id",
          "type": "uint256"
        }
      ],
      "name": "balanceOf",
      "outputs": [
        {
          "internalType": "uint256",
          "name": "",
          "type": "uint256"
        }
      ],
      "stateMutability": "view",
      "type": "function"
    },
    {
      "inputs": [
        {
          "internalType": "address[]",
          "name": "accounts",
          "type": "address[]"
        },
        {
          "internalType": "uint256[]",
          "name": "ids",
          "type": "uint256[]"
        }
      ],
      "name": "balanceOfBatch",
      "outputs": [
        {
          "internalType": "uint256[]",
          "name": "",
          "type": "uint256[]"
        }
      ],
      "stateMutability": "view",
      "type": "function"
    },
    {
      "inputs": [
        {
          "internalType": "address",
          "name": "account",
          "type": "address"
        },
        {
          "internalType": "uint256[]",
          "name": "scheduleIds",
          "type": "uint256[]"
        }
      ],
      "name": "batchGetScheduleDetailsForAccount",
      "outputs": [
        {
          "components": [
            {
              "internalType": "address",
              "name": "tokenHolder",
              "type": "address"
            },
            {
              "internalType": "uint256",
              "name": "scheduleTokenId",
              "type": "uint256"
            },
            {
              "internalType": "uint256",
              "name": "balance",
              "type": "uint256"
            },
            {
              "internalType": "uint256",
              "name": "claimableAmount",
              "type": "uint256"
            },
            {
              "internalType": "uint256",
              "name": "claimedAmount",
              "type": "uint256"
            },
            {
              "internalType": "uint256",
              "name": "quantityRevoked",
              "type": "uint256"
            }
          ],
          "internalType": "struct ScheduleDetailForAddress[]",
          "name": "",
          "type": "tuple[]"
        }
      ],
      "stateMutability": "view",
      "type": "function"
    },
    {
      "inputs": [
        {
          "internalType": "uint256[]",
          "name": "scheduleIds",
          "type": "uint256[]"
        }
      ],
      "name": "batchGetScheduleSummaries",
      "outputs": [
        {
          "components": [
            {
              "internalType": "uint256",
              "name": "scheduleTokenId",
              "type": "uint256"
            },
            {
              "internalType": "uint256",
              "name": "startTime",
              "type": "uint256"
            },
            {
              "internalType": "uint256",
              "name": "endTime",
              "type": "uint256"
            },
            {
              "internalType": "uint256",
              "name": "totalSupply",
              "type": "uint256"
            },
            {
              "internalType": "uint256",
              "name": "totalClaimableAmount",
              "type": "uint256"
            },
            {
              "internalType": "uint256",
              "name": "totalClaimedAmount",
              "type": "uint256"
            },
            {
              "internalType": "uint256",
              "name": "totalQuantityRevoked",
              "type": "uint256"
            },
            {
              "internalType": "address[]",
              "name": "tokenHolders",
              "type": "address[]"
            }
          ],
          "internalType": "struct ScheduleSummary[]",
          "name": "",
          "type": "tuple[]"
        }
      ],
      "stateMutability": "view",
      "type": "function"
    },
    {
      "inputs": [
        {
          "internalType": "uint256",
          "name": "scheduleId",
          "type": "uint256"
        }
      ],
      "name": "claimableBalanceForSchedule",
      "outputs": [
        {
          "internalType": "uint256",
          "name": "",
          "type": "uint256"
        }
      ],
      "stateMutability": "view",
      "type": "function"
    },
    {
      "inputs": [
        {
          "internalType": "uint256",
          "name": "scheduleId",
          "type": "uint256"
        },
        {
          "internalType": "address",
          "name": "account",
          "type": "address"
        }
      ],
      "name": "claimableBalanceForScheduleForAccount",
      "outputs": [
        {
          "internalType": "uint256",
          "name": "",
          "type": "uint256"
        }
      ],
      "stateMutability": "view",
      "type": "function"
    },
    {
      "inputs": [
        {
          "internalType": "uint256",
          "name": "projectId",
          "type": "uint256"
        },
        {
          "internalType": "uint256",
          "name": "startTime",
          "type": "uint256"
        },
        {
          "internalType": "uint8",
          "name": "methodology",
          "type": "uint8"
        },
        {
          "internalType": "uint8",
          "name": "methodologyVersion",
          "type": "uint8"
        }
      ],
      "name": "createSchedule",
      "outputs": [],
      "stateMutability": "nonpayable",
      "type": "function"
    },
    {
      "inputs": [
        {
          "internalType": "uint256",
          "name": "id",
          "type": "uint256"
        }
      ],
      "name": "exists",
      "outputs": [
        {
          "internalType": "bool",
          "name": "",
          "type": "bool"
        }
      ],
      "stateMutability": "view",
      "type": "function"
    },
    {
      "inputs": [],
      "name": "getAllScheduleIds",
      "outputs": [
        {
          "internalType": "uint256[]",
          "name": "",
          "type": "uint256[]"
        }
      ],
      "stateMutability": "view",
      "type": "function"
    },
    {
      "inputs": [
        {
          "internalType": "address",
          "name": "originalSupplier",
          "type": "address"
        }
      ],
      "name": "getDeficitForAddress",
      "outputs": [
        {
          "internalType": "uint256",
          "name": "",
          "type": "uint256"
        }
      ],
      "stateMutability": "view",
      "type": "function"
    },
    {
      "inputs": [
        {
          "internalType": "uint256",
          "name": "methodology",
          "type": "uint256"
        },
        {
          "internalType": "uint256",
          "name": "methodologyVersion",
          "type": "uint256"
        }
      ],
      "name": "getRestrictionDurationForMethodologyAndVersion",
      "outputs": [
        {
          "internalType": "uint256",
          "name": "",
          "type": "uint256"
        }
      ],
      "stateMutability": "view",
      "type": "function"
    },
    {
      "inputs": [
        {
          "internalType": "bytes32",
          "name": "role",
          "type": "bytes32"
        }
      ],
      "name": "getRoleAdmin",
      "outputs": [
        {
          "internalType": "bytes32",
          "name": "",
          "type": "bytes32"
        }
      ],
      "stateMutability": "view",
      "type": "function"
    },
    {
      "inputs": [
        {
          "internalType": "bytes32",
          "name": "role",
          "type": "bytes32"
        },
        {
          "internalType": "uint256",
          "name": "index",
          "type": "uint256"
        }
      ],
      "name": "getRoleMember",
      "outputs": [
        {
          "internalType": "address",
          "name": "",
          "type": "address"
        }
      ],
      "stateMutability": "view",
      "type": "function"
    },
    {
      "inputs": [
        {
          "internalType": "bytes32",
          "name": "role",
          "type": "bytes32"
        }
      ],
      "name": "getRoleMemberCount",
      "outputs": [
        {
          "internalType": "uint256",
          "name": "",
          "type": "uint256"
        }
      ],
      "stateMutability": "view",
      "type": "function"
    },
    {
      "inputs": [
        {
          "internalType": "address",
          "name": "account",
          "type": "address"
        },
        {
          "internalType": "uint256",
          "name": "scheduleId",
          "type": "uint256"
        }
      ],
      "name": "getScheduleDetailForAccount",
      "outputs": [
        {
          "components": [
            {
              "internalType": "address",
              "name": "tokenHolder",
              "type": "address"
            },
            {
              "internalType": "uint256",
              "name": "scheduleTokenId",
              "type": "uint256"
            },
            {
              "internalType": "uint256",
              "name": "balance",
              "type": "uint256"
            },
            {
              "internalType": "uint256",
              "name": "claimableAmount",
              "type": "uint256"
            },
            {
              "internalType": "uint256",
              "name": "claimedAmount",
              "type": "uint256"
            },
            {
              "internalType": "uint256",
              "name": "quantityRevoked",
              "type": "uint256"
            }
          ],
          "internalType": "struct ScheduleDetailForAddress",
          "name": "",
          "type": "tuple"
        }
      ],
      "stateMutability": "view",
      "type": "function"
    },
    {
      "inputs": [
        {
          "internalType": "uint256",
          "name": "scheduleId",
          "type": "uint256"
        }
      ],
      "name": "getScheduleSummary",
      "outputs": [
        {
          "components": [
            {
              "internalType": "uint256",
              "name": "scheduleTokenId",
              "type": "uint256"
            },
            {
              "internalType": "uint256",
              "name": "startTime",
              "type": "uint256"
            },
            {
              "internalType": "uint256",
              "name": "endTime",
              "type": "uint256"
            },
            {
              "internalType": "uint256",
              "name": "totalSupply",
              "type": "uint256"
            },
            {
              "internalType": "uint256",
              "name": "totalClaimableAmount",
              "type": "uint256"
            },
            {
              "internalType": "uint256",
              "name": "totalClaimedAmount",
              "type": "uint256"
            },
            {
              "internalType": "uint256",
              "name": "totalQuantityRevoked",
              "type": "uint256"
            },
            {
              "internalType": "address[]",
              "name": "tokenHolders",
              "type": "address[]"
            }
          ],
          "internalType": "struct ScheduleSummary",
          "name": "",
          "type": "tuple"
        }
      ],
      "stateMutability": "view",
      "type": "function"
    },
    {
      "inputs": [],
      "name": "getUnderlyingTokenAddress",
      "outputs": [
        {
          "internalType": "address",
          "name": "",
          "type": "address"
        }
      ],
      "stateMutability": "view",
      "type": "function"
    },
    {
      "inputs": [
        {
          "internalType": "bytes32",
          "name": "role",
          "type": "bytes32"
        },
        {
          "internalType": "address",
          "name": "account",
          "type": "address"
        }
      ],
      "name": "grantRole",
      "outputs": [],
      "stateMutability": "nonpayable",
      "type": "function"
    },
    {
      "inputs": [
        {
          "internalType": "bytes32",
          "name": "role",
          "type": "bytes32"
        },
        {
          "internalType": "address",
          "name": "account",
          "type": "address"
        }
      ],
      "name": "hasRole",
      "outputs": [
        {
          "internalType": "bool",
          "name": "",
          "type": "bool"
        }
      ],
      "stateMutability": "view",
      "type": "function"
    },
    {
      "inputs": [
        {
          "internalType": "address",
          "name": "originalSupplier",
          "type": "address"
        },
        {
          "internalType": "uint256",
          "name": "amount",
          "type": "uint256"
        }
      ],
      "name": "incrementDeficitForSupplier",
      "outputs": [],
      "stateMutability": "nonpayable",
      "type": "function"
    },
    {
      "inputs": [],
      "name": "initialize",
      "outputs": [],
      "stateMutability": "nonpayable",
      "type": "function"
    },
    {
      "inputs": [
        {
          "internalType": "address",
          "name": "account",
          "type": "address"
        },
        {
          "internalType": "address",
          "name": "operator",
          "type": "address"
        }
      ],
      "name": "isApprovedForAll",
      "outputs": [
        {
          "internalType": "bool",
          "name": "",
          "type": "bool"
        }
      ],
      "stateMutability": "view",
      "type": "function"
    },
    {
      "inputs": [
        {
          "internalType": "uint256",
          "name": "amount",
          "type": "uint256"
        },
        {
          "internalType": "uint256",
          "name": "removalId",
          "type": "uint256"
        }
      ],
      "name": "mint",
      "outputs": [],
      "stateMutability": "nonpayable",
      "type": "function"
    },
    {
      "inputs": [
        {
          "internalType": "bytes[]",
          "name": "data",
          "type": "bytes[]"
        }
      ],
      "name": "multicall",
      "outputs": [
        {
          "internalType": "bytes[]",
          "name": "results",
          "type": "bytes[]"
        }
      ],
      "stateMutability": "nonpayable",
      "type": "function"
    },
    {
      "inputs": [],
      "name": "pause",
      "outputs": [],
      "stateMutability": "nonpayable",
      "type": "function"
    },
    {
      "inputs": [],
      "name": "paused",
      "outputs": [
        {
          "internalType": "bool",
          "name": "",
          "type": "bool"
        }
      ],
      "stateMutability": "view",
      "type": "function"
    },
    {
      "inputs": [
        {
          "internalType": "contract IERC20WithPermit",
          "name": "wrappedToken",
          "type": "address"
        },
        {
          "internalType": "contract IRemoval",
          "name": "removal",
          "type": "address"
        },
        {
          "internalType": "contract IMarket",
          "name": "market",
          "type": "address"
        }
      ],
      "name": "registerContractAddresses",
      "outputs": [],
      "stateMutability": "nonpayable",
      "type": "function"
    },
    {
      "inputs": [
        {
          "internalType": "bytes32",
          "name": "role",
          "type": "bytes32"
        },
        {
          "internalType": "address",
          "name": "account",
          "type": "address"
        }
      ],
      "name": "renounceRole",
      "outputs": [],
      "stateMutability": "nonpayable",
      "type": "function"
    },
    {
      "inputs": [
        {
          "internalType": "uint256",
          "name": "scheduleId",
          "type": "uint256"
        }
      ],
      "name": "revocableQuantityForSchedule",
      "outputs": [
        {
          "internalType": "uint256",
          "name": "",
          "type": "uint256"
        }
      ],
      "stateMutability": "view",
      "type": "function"
    },
    {
      "inputs": [
        {
          "internalType": "bytes32",
          "name": "role",
          "type": "bytes32"
        },
        {
          "internalType": "address",
          "name": "account",
          "type": "address"
        }
      ],
      "name": "revokeRole",
      "outputs": [],
      "stateMutability": "nonpayable",
      "type": "function"
    },
    {
      "inputs": [
        {
          "internalType": "uint256",
          "name": "removalId",
          "type": "uint256"
        },
        {
          "internalType": "uint256",
          "name": "amount",
          "type": "uint256"
        },
        {
          "internalType": "address",
          "name": "toAccount",
          "type": "address"
        }
      ],
      "name": "revokeUnreleasedTokens",
      "outputs": [],
      "stateMutability": "nonpayable",
      "type": "function"
    },
    {
      "inputs": [
        {
          "internalType": "address",
          "name": "",
          "type": "address"
        },
        {
          "internalType": "address",
          "name": "",
          "type": "address"
        },
        {
          "internalType": "uint256[]",
          "name": "",
          "type": "uint256[]"
        },
        {
          "internalType": "uint256[]",
          "name": "",
          "type": "uint256[]"
        },
        {
          "internalType": "bytes",
          "name": "",
          "type": "bytes"
        }
      ],
      "name": "safeBatchTransferFrom",
      "outputs": [],
      "stateMutability": "pure",
      "type": "function"
    },
    {
      "inputs": [
        {
          "internalType": "address",
          "name": "",
          "type": "address"
        },
        {
          "internalType": "address",
          "name": "",
          "type": "address"
        },
        {
          "internalType": "uint256",
          "name": "",
          "type": "uint256"
        },
        {
          "internalType": "uint256",
          "name": "",
          "type": "uint256"
        },
        {
          "internalType": "bytes",
          "name": "",
          "type": "bytes"
        }
      ],
      "name": "safeTransferFrom",
      "outputs": [],
      "stateMutability": "pure",
      "type": "function"
    },
    {
      "inputs": [
        {
          "internalType": "uint256",
          "name": "scheduleId",
          "type": "uint256"
        }
      ],
      "name": "scheduleExists",
      "outputs": [
        {
          "internalType": "bool",
          "name": "",
          "type": "bool"
        }
      ],
      "stateMutability": "view",
      "type": "function"
    },
    {
      "inputs": [
        {
          "internalType": "address",
          "name": "operator",
          "type": "address"
        },
        {
          "internalType": "bool",
          "name": "approved",
          "type": "bool"
        }
      ],
      "name": "setApprovalForAll",
      "outputs": [],
      "stateMutability": "nonpayable",
      "type": "function"
    },
    {
      "inputs": [
        {
          "internalType": "uint256",
          "name": "methodology",
          "type": "uint256"
        },
        {
          "internalType": "uint256",
          "name": "methodologyVersion",
          "type": "uint256"
        },
        {
          "internalType": "uint256",
          "name": "durationInSeconds",
          "type": "uint256"
        }
      ],
      "name": "setRestrictionDurationForMethodologyAndVersion",
      "outputs": [],
      "stateMutability": "nonpayable",
      "type": "function"
    },
    {
      "inputs": [
        {
          "internalType": "bytes4",
          "name": "interfaceId",
          "type": "bytes4"
        }
      ],
      "name": "supportsInterface",
      "outputs": [
        {
          "internalType": "bool",
          "name": "",
          "type": "bool"
        }
      ],
      "stateMutability": "view",
      "type": "function"
    },
    {
      "inputs": [
        {
          "internalType": "uint256",
          "name": "id",
          "type": "uint256"
        }
      ],
      "name": "totalSupply",
      "outputs": [
        {
          "internalType": "uint256",
          "name": "",
          "type": "uint256"
        }
      ],
      "stateMutability": "view",
      "type": "function"
    },
    {
      "inputs": [],
      "name": "unpause",
      "outputs": [],
      "stateMutability": "nonpayable",
      "type": "function"
    },
    {
      "inputs": [
        {
          "internalType": "uint256",
          "name": "",
          "type": "uint256"
        }
      ],
      "name": "uri",
      "outputs": [
        {
          "internalType": "string",
          "name": "",
          "type": "string"
        }
      ],
      "stateMutability": "view",
      "type": "function"
    },
    {
      "inputs": [
        {
          "internalType": "address",
          "name": "recipient",
          "type": "address"
        },
        {
          "internalType": "uint256",
          "name": "scheduleId",
          "type": "uint256"
        },
        {
          "internalType": "uint256",
          "name": "amount",
          "type": "uint256"
        }
      ],
      "name": "withdrawFromSchedule",
      "outputs": [
        {
          "internalType": "bool",
          "name": "",
          "type": "bool"
        }
      ],
      "stateMutability": "nonpayable",
      "type": "function"
    }
  ],
  "numDeployments": 13,
  "bytecode": "0x60808060405234620000c6576000549060ff8260081c1662000074575060ff8082161062000038575b60405161425f9081620000cc8239f35b60ff90811916176000557f7f26b83ff96e1f2b6a682f133852f6798a09c465da95921460cefb3847402498602060405160ff8152a13862000028565b62461bcd60e51b815260206004820152602760248201527f496e697469616c697a61626c653a20636f6e747261637420697320696e697469604482015266616c697a696e6760c81b6064820152608490fd5b600080fdfe6080604052600436101561001257600080fd5b60003560e01c8062fdd58e14612ec057806301ffc9a714612d885780630e89341c14612ca65780631b2ef1ca14612814578063229afd61146127d9578063248a9ca3146127aa57806327ca0c27146126955780632d9f0f161461257e5780632e5e8d831461254b5780632eb2c2d6146124d55780632f2ff15d1461240357806336568abe146122dc5780633f4ba83a14612240578063440f5fd21461221857806346dbd53514611c085780634e1273f414611a7a5780634f558e7914611a4c57806355135b67146116205780635c975abb146115fd5780635d37165a146115b25780636235a4e91461157a57806363343346146114db578063639aa0ad146113da5780636a00f9eb14611174578063713279b1146111345780638129fc1c14610b2f5780638456cb5914610ad55780639010d07c14610a8e57806391d1485414610a405780639ac7b44d14610a0c578063a217fddf146109f0578063a22cb465146108f9578063a4b186f8146108c7578063ac9650d81461067c578063b886fa7314610641578063b8b4dbe014610606578063bd85b039146105da578063c1499fa814610561578063c309f8e1146104e9578063ca15c873146104bc578063d539139314610481578063d547741f146103b1578063e63ab1e914610376578063e6e0a038146102df578063e985e9c5146102885763f242432a1461021557600080fd5b346102835760a03660031901126102835761022e612ee7565b50610237612efd565b5060843567ffffffffffffffff8111610283576102589036906004016131ab565b5060046040517fbf241488000000000000000000000000000000000000000000000000000000008152fd5b600080fd5b34610283576040366003190112610283576102a1612ee7565b6102a9612efd565b906001600160a01b03809116600052609860205260406000209116600052602052602060ff604060002054166040519015158152f35b34610283576060366003190112610283576004356001600160a01b03808216809203610283576024358181168091036102835760443591821680920361028357610327613895565b61032f6133f1565b7fffffffffffffffffffffffff0000000000000000000000000000000000000000926101969084825416179055610197908382541617905561019891825416179055600080f35b346102835760003660031901126102835760206040517f65d7a28e3265b37a6474929f336521b332c1681b933f6cb9f3376673440d862a8152f35b346102835760403660031901126102835761043260043561012d6103d3612efd565b918060005260209060fb82526103f060016040600020015461351b565b6103f8613895565b8060005260fb82526001600160a01b03604060002094169384600052825260ff60406000205416610434575b6000525260406000206139fc565b005b8060005260fb82526040600020846000528252604060002060ff1981541690553384827ff6391f5c32d9c69d2a47ea670b442974b53935d1edc7fd64eb21e047a839171b600080a4610424565b346102835760003660031901126102835760206040517f9f2df0fed2c77648de5860a4cc508cd0818c85b8b8a1ab4ceeef8d981c8956a68152f35b346102835760203660031901126102835760043560005261012d6020526020604060002054604051908152f35b3461028357604036600319011261028357610502612ee7565b6001600160a01b039081610198541633036105375716600052610191602052604060002061053360243582546137a5565b9055005b60046040517f9cd03492000000000000000000000000000000000000000000000000000000008152fd5b346102835760603660031901126102835760443561057d613895565b6105856133f1565b80156105b0576004356000526101926020526040600020602435600052602052604060002055600080f35b60046040517f98eb4124000000000000000000000000000000000000000000000000000000008152fd5b346102835760203660031901126102835760043560005260c96020526020604060002054604051908152f35b346102835760003660031901126102835760206040517f813b9efdf6afe6b57682eb1fb850711edc34da21ae7f7376cb7a391b1be3239f8152f35b34610283576020366003190112610283576001600160a01b03610662612ee7565b166000526101916020526020604060002054604051908152f35b34610283576020806003193601126102835767ffffffffffffffff600435818111610283576106af903690600401612f71565b916106b9836130e2565b916106c760405193846130c0565b838352601f196106d6856130e2565b018560005b8281106108b85750505060005b84811061074d57604080518781528551818901819052600092600582901b8301810191888b01918b9085015b8287106107215785850386f35b90919293828061073d600193603f198a82030186528851612f36565b9601920196019592919092610714565b8060051b820135601e1983360301811215610283578201803590848211610283578701813603811361028357610784913691613174565b303b1561084e5790610827600080848a61084296519101305af43d15610847573d6107ae81613158565b906107bc60405192836130c0565b81523d60008b83013e5b604051916107d383613088565b602783527f416464726573733a206c6f772d6c6576656c2064656c65676174652063616c6c8b8401527f206661696c6564000000000000000000000000000000000000000000000000006040840152613752565b610831828761373e565b5261083c818661373e565b5061372f565b6106e8565b60606107c6565b6084876040519062461bcd60e51b82526004820152602660248201527f416464726573733a2064656c65676174652063616c6c20746f206e6f6e2d636f60448201527f6e747261637400000000000000000000000000000000000000000000000000006064820152fd5b606086820183015281016106db565b346102835760203660031901126102835760043560005261019360205260206001604060002001541515604051908152f35b3461028357604036600319011261028357610912612ee7565b60243590811515809203610283576001600160a01b03169081331461098657336000526098602052604060002082600052602052604060002060ff1981541660ff83161790556040519081527f17307eab39ab6107e8899845ad3d59bd9653f200f220920489ca2b5937696c3160203392a3005b608460405162461bcd60e51b815260206004820152602960248201527f455243313135353a2073657474696e6720617070726f76616c2073746174757360448201527f20666f722073656c6600000000000000000000000000000000000000000000006064820152fd5b3461028357600036600319011261028357602060405160008152f35b3461028357610a1a36612f5b565b906000526101926020526040600020906000526020526020604060002054604051908152f35b3461028357604036600319011261028357610a59612efd565b60043560005260fb6020526001600160a01b0360406000209116600052602052602060ff604060002054166040519015158152f35b346102835760403660031901126102835760043560005261012d60205260206001600160a01b03610ac5602435604060002061387d565b9190546040519260031b1c168152f35b3461028357600036600319011261028357610aee6131fd565b610af6613895565b600160ff1960335416176033557f62e78cea01bee320cd4e420270b5ea74000d11b0c9f74754ebdbfc544b05a2586020604051338152a1005b346102835760003660031901126102835760005460ff808260081c1615808091611128575b8015611112575b156110a85760ff1980841660019081176000559382611096575b5060405192610b8384613088565b603284526020937f68747470733a2f2f6e6f72692e636f6d2f6170692f7265737472696374696f6e858201527f7363686564756c652f7b69647d2e6a736f6e00000000000000000000000000006040820152610be58260005460081c16613aec565b80519067ffffffffffffffff8211611080578190610c0460995461362c565b601f811161100f575b508690601f8311600114610f8d57600092610f82575b5050600019600383901b1c191690861b176099555b610c868160005460081c16610c4c81613aec565b610c5581613aec565b610c5e81613aec565b610c6781613aec565b610c7081613aec565b8360335416603355610c8181613aec565b613aec565b610c8e613895565b6000805260fb918285526040600020336000528552816040600020541615610f36575b6000805261012d92838652610cca336040600020613977565b50610cd3613895565b7f65d7a28e3265b37a6474929f336521b332c1681b933f6cb9f3376673440d862a806000528187526040600020336000528752836040600020541615610eea575b600052838652610d28336040600020613977565b50610d31613895565b7fb62aeb2ef35a3718e51a7e8b0b0d8e6fa690a4037bf45dad308976da469a861c806000528187526040600020336000528752836040600020541615610e9e575b600052838652610d86336040600020613977565b50610d8f613895565b7f813b9efdf6afe6b57682eb1fb850711edc34da21ae7f7376cb7a391b1be3239f928360005281875260406000203360005287526040600020541615610e51575b50506000528252610de5336040600020613977565b50610dee613895565b610df66133f1565b82600052610192825260406000206000805282526312cf3570604060002055610e1b57005b7f7f26b83ff96e1f2b6a682f133852f6798a09c465da95921460cefb38474024989161ff001960005416600055604051908152a1005b8260005285526040600020336000528552856040600020918254161790553333827f2f8788117e7eff1d82e926ec794901d17c78024a50270940304540a733656f0d600080a48580610dd0565b806000528187526040600020336000528752604060002088848254161790553333827f2f8788117e7eff1d82e926ec794901d17c78024a50270940304540a733656f0d600080a4610d72565b806000528187526040600020336000528752604060002088848254161790553333827f2f8788117e7eff1d82e926ec794901d17c78024a50270940304540a733656f0d600080a4610d14565b60008052828552604060002033600052855260406000208682825416179055333360007f2f8788117e7eff1d82e926ec794901d17c78024a50270940304540a733656f0d8180a4610cb1565b015190508780610c23565b90889350601f1983169160996000527f72a152ddfb8e864297c917af52ea6c1c68aead0fee1a62673fcc7e0c94979d009260005b8a828210610ff95750508411610fe0575b505050811b01609955610c38565b015160001960f88460031b161c19169055878080610fd2565b8385015186558c97909501949384019301610fc1565b90915060996000527f72a152ddfb8e864297c917af52ea6c1c68aead0fee1a62673fcc7e0c94979d00601f840160051c810191888510611076575b84939291601f8b920160051c01915b828110611067575050610c0d565b600081558594508a9101611059565b909150819061104a565b634e487b7160e01b600052604160045260246000fd5b61ffff19166101011760005584610b75565b608460405162461bcd60e51b815260206004820152602e60248201527f496e697469616c697a61626c653a20636f6e747261637420697320616c72656160448201527f647920696e697469616c697a65640000000000000000000000000000000000006064820152fd5b50303b158015610b5b5750600182841614610b5b565b50600182841610610b54565b3461028357602036600319011261028357602061116c60043580600052610193835260406000209060c98452604060002054916141fa565b604051908152f35b346102835760403660031901126102835761118d612ee7565b60243567ffffffffffffffff8111610283576111ad9036906004016130fa565b9081516111b9816130e2565b906111c760405192836130c0565b8082526111d6601f19916130e2565b0160005b8181106113c357505060005b835181101561133b576111f9818561373e565b51600052602090610193825260016040600020015461121d575b60019150016111e6565b61127861122a828761373e565b516040517f639aa0ad0000000000000000000000000000000000000000000000000000000081526001600160a01b0387166004820152602481019190915260c0918290829081906044820190565b0381305afa91821561132f576000926112ad575b50506001925061129c828561373e565b526112a7818461373e565b50611213565b90809250813d8311611328575b6112c481836130c0565b8101031261028357604051906112d982613033565b8051936001600160a01b0385168503610283576001948352808201519083015260408101516040830152606080820151908301526080808201519083015260a08091015190820152868061128c565b503d6112ba565b6040513d6000823e3d90fd5b506040516020918282018383528151809152836040840192019360005b8281106113655784840385f35b9091928260c0826113b46001948a5160a080916001600160a01b038151168452602081015160208501526040810151604085015260608101516060850152608081015160808501520151910152565b01960191019492919094611358565b6020906113ce613f31565b828286010152016111da565b346102835760403660031901126102835760c06113f5612ee7565b602435611400613f31565b5080600052610193602052604060002061141a8284613666565b928260005260c96020526001600160a01b0361144760406000205461143f8685613666565b90848661418a565b911693846000526007830160205260086040600020549301602052604060002054936040519561147687613033565b8652602086015260408501526060840152608083015260a08201526114d9604051809260a080916001600160a01b038151168452602081015160208501526040810151604085015260608101516060850152608081015160808501520151910152565bf35b346102835760003660031901126102835761019480546114fa816136fd565b60005b8151811015611560578281101561154a5760019084600052807fa6f1ac7ad7b125ba5a5e1c96b00ad6914f90a503b1ac3d85a9dadbb4c639df920154611543828561373e565b52016114fd565b634e487b7160e01b600052603260045260246000fd5b60405160208082528190611576908201856131c9565b0390f35b3461028357602036600319011261028357602061116c60043580600052610193835260406000209060c984526040600020549161414c565b3461028357604036600319011261028357602061116c6004356115d3612efd565b9080600052610193845260406000209160c985526115f76040600020549282613666565b9261418a565b3461028357600036600319011261028357602060ff603354166040519015158152f35b346102835760803660031901126102835760043560248035906044359060ff82168092036102835760643560ff81168091036102835761165e613895565b3360009081527fbc1f75e4c102f53298af8243d58783a2b220b757debb73933def796fbf8619ef60209081526040909120549093907fb62aeb2ef35a3718e51a7e8b0b0d8e6fa690a4037bf45dad308976da469a861c9060ff161561186d57506040517fa4b186f800000000000000000000000000000000000000000000000000000000815286600482015284818581305afa90811561132f57600091611840575b5061181057600052610192835260406000209060005282526040600020549083156117cd57811561178a5750916040917fc6bf85d136b95579125a47c9781847cacd55015777db8a853dd17946aed35fb293856000526101938252600161176e8560002092858455856137a5565b910190815561177c866138e5565b5054908351928352820152a2005b8260176064926040519262461bcd60e51b845260048401528201527f724e4f52493a206475726174696f6e206e6f74207365740000000000000000006044820152fd5b8260196064926040519262461bcd60e51b845260048401528201527f724e4f52493a20496e76616c69642073746172742074696d65000000000000006044820152fd5b8286604051907fde20885c0000000000000000000000000000000000000000000000000000000082526004820152fd5b6118609150853d8711611866575b61185881836130c0565b810190613b5d565b87611700565b503d61184e565b848491611879336137c3565b90604051611886816130a4565b60428152838101916060368437815115611a3757603083538151600190811015611a2257607860218401536041905b8082116119b457505061197257604861196e9361194393611952936040519586937f416363657373436f6e74726f6c3a206163636f756e74200000000000000000008a86015261190e815180928c603789019101612f13565b8401917f206973206d697373696e6720726f6c6520000000000000000000000000000000603784015251809386840190612f13565b010360288101845201826130c0565b60405193849362461bcd60e51b85526004850152830190612f36565b0390fd5b606485856040519162461bcd60e51b83528160048401528201527f537472696e67733a20686578206c656e67746820696e73756666696369656e746044820152fd5b9091600f81166010811015611a0d576f181899199a1a9b1b9c1cb0b131b232b360811b901a6119e384866137b2565b5360041c9180156119f85760001901906118b5565b87634e487b7160e01b60005260116004526000fd5b88634e487b7160e01b60005260326004526000fd5b86634e487b7160e01b60005260326004526000fd5b85634e487b7160e01b60005260326004526000fd5b346102835760203660031901126102835760043560005260c960205260206040600020541515604051908152f35b346102835760403660031901126102835760043567ffffffffffffffff808211610283573660238301121561028357816004013590611ab8826130e2565b92611ac660405194856130c0565b82845260209260248486019160051b8301019136831161028357602401905b828210611be95750505060243590811161028357611b079036906004016130fa565b8251815103611b7f57611b1a83516136fd565b9260005b8151811015611b685780611b536001600160a01b03611b40611b63948661373e565b5116611b4c838761373e565b5190613666565b611b5d828861373e565b5261372f565b611b1e565b5050506115766040519282849384528301906131c9565b6084826040519062461bcd60e51b82526004820152602960248201527f455243313135353a206163636f756e747320616e6420696473206c656e67746860448201527f206d69736d6174636800000000000000000000000000000000000000000000006064820152fd5b81356001600160a01b0381168103610283578152908401908401611ae5565b34610283576060366003190112610283576024356001600160a01b036044351660443503610283573360009081527f99141412ed334650e7ddced338199a5e4a820639cb8ffe2e1add19b576f2108160205260409020547f813b9efdf6afe6b57682eb1fb850711edc34da21ae7f7376cb7a391b1be3239f9060ff16156120cf5750602460206001600160a01b03610197541660405192838092633d932dfb60e01b825260043560048301525afa90811561132f5760009161209d575b5080600052610193602052604060002091600183015415612085578160005260c9602052611cf960406000205483856141fa565b80821161205457811561204c5750905b6005830190604051938485602085549283815201809560005260206000209260005b818110612033575050611d40925003866130c0565b611d4a85516136fd565b9260005b8651811015611d885780611d77856001600160a01b03611d706001958c61373e565b5116613666565b611d81828861373e565b5201611d4e565b50939492919094611d9984516136fd565b92600080956002890154915b81518060001981011161201d5760001901881015611e6b57611e27611e2d916001600160a01b03611dd68b8661373e565b51168c611de38c8961373e565b51918a60005260c960205289611dfe6040600020548a6137a5565b9283158015611e63575b15611e335750505050506000905b81611e218c8c61373e565b526137a5565b9761372f565b96611da5565b611e5d946007611e5392611e5895600052016020526040600020546137a5565b613792565b6140a3565b90611e16565b508115611e08565b8987878b611e7a8995866139ef565b8651600019810190811161201d57611e92908561373e565b5260005b8651811015611f115780611ecc6001600160a01b03611eb8611f0c948b61373e565b511685611ec5848961373e565b5191613b75565b611ed6818661373e565b516001600160a01b03611ee9838b61373e565b511660005260088701602052611f0560406000209182546137a5565b905561372f565b611e96565b50949092600301611f238582546137a5565b9055604051906060820190858352606060208401525180915260808201959060005b818110611ffe5760006020611fd6898b8a8a7f4d641c2ca9261584e3de048c803a63d133b28387ab704ace681fd7b220094b528b808503604082015280611f906004359642956131c9565b0390a46001600160a01b0361019654169060405194858094819363a9059cbb60e01b835260443560048401602090939291936001600160a01b0360408201951681520152565b03925af1801561132f57611fe657005b6104329060203d6020116118665761185881836130c0565b82516001600160a01b0316885260209788019790920191600101611f45565b634e487b7160e01b600052601160045260246000fd5b845483526001948501948a945060209093019201611d2b565b905090611d09565b602483604051907f610d28380000000000000000000000000000000000000000000000000000000082526004820152fd5b602482604051906325f8781760e01b82526004820152fd5b90506020813d6020116120c7575b816120b8602093836130c0565b81010312610283575182611cc5565b3d91506120ab565b6120d8336137c3565b604051916120e5836130a4565b604283526020830190606036833783511561154a5760308253835160019081101561154a57607860218601536041905b8082116121d4575050612190576048611943926121709261196e956040519586937f416363657373436f6e74726f6c3a206163636f756e7420000000000000000000602086015261190e815180926020603789019101612f13565b60405191829162461bcd60e51b8352602060048401526024830190612f36565b606460405162461bcd60e51b815260206004820152602060248201527f537472696e67733a20686578206c656e67746820696e73756666696369656e746044820152fd5b9091600f8116601081101561154a576f181899199a1a9b1b9c1cb0b131b232b360811b901a61220384886137b2565b5360041c91801561201d576000190190612115565b346102835760003660031901126102835760206001600160a01b036101965416604051908152f35b34610283576000366003190112610283576122596131fd565b60335460ff8116156122985760ff19166033557f5db9ee0a495bf2e6ff9c91a7834c1ba4fdd244a5e8aa4e537bd38aeae4b073aa6020604051338152a1005b606460405162461bcd60e51b815260206004820152601460248201527f5061757361626c653a206e6f74207061757365640000000000000000000000006044820152fd5b34610283576040366003190112610283576004356001600160a01b03612300612efd565b163381036123995761043291612314613895565b8060005260fb60205260406000208260005260205260ff6040600020541661234a575b60005261012d60205260406000206139fc565b8060005260fb602052604060002082600052602052604060002060ff1981541690553382827ff6391f5c32d9c69d2a47ea670b442974b53935d1edc7fd64eb21e047a839171b600080a4612337565b608460405162461bcd60e51b815260206004820152602f60248201527f416363657373436f6e74726f6c3a2063616e206f6e6c792072656e6f756e636560448201527f20726f6c657320666f722073656c6600000000000000000000000000000000006064820152fd5b346102835760403660031901126102835761043260043561012d612425612efd565b918060005260209060fb825261244260016040600020015461351b565b61244a613895565b8060005260fb82526001600160a01b03604060002094169384600052825260ff6040600020541615612485575b600052526040600020613977565b8060005260fb825260406000208460005282526040600020600160ff198254161790553384827f2f8788117e7eff1d82e926ec794901d17c78024a50270940304540a733656f0d600080a4612477565b346102835760a0366003190112610283576124ee612ee7565b506124f7612efd565b5067ffffffffffffffff604435818111610283576125199036906004016130fa565b50606435818111610283576125329036906004016130fa565b50608435908111610283576102589036906004016131ab565b346102835760203660031901126102835761157661256a600435613fa0565b604051918291602083526020830190612fa2565b34610283576020806003193601126102835760043567ffffffffffffffff8111610283576125b0903690600401612f71565b6125b9816130e2565b916125c760405193846130c0565b818352601f196125d6836130e2565b018460005b82811061267f5750505060005b828110612651575050506040519082820192808352815180945260408301938160408260051b8601019301916000955b8287106126255785850386f35b909192938280612641600193603f198a82030186528851612fa2565b9601920196019592919092612618565b8061266360019260051b840135613fa0565b61266d828761373e565b52612678818661373e565b50016125e8565b612687613f63565b8282880101520185906125db565b34610283576060366003190112610283576126ae612ee7565b6127746024356044356126c2818333613b75565b816000526020938492610193845260076040600020600281016126e68682546137a5565b90553360005201845260406000206126ff8482546137a5565b9055604051908382526001600160a01b0391828416907f8ac34c3804c4564545d611b14933b1585e198f9a8ce80f3d817a733ca7f87d37873392a4610196541690600060405180968195829463a9059cbb60e01b845260048401602090939291936001600160a01b0360408201951681520152565b03925af1801561132f5761278d575b5060405160018152f35b6127a390823d84116118665761185881836130c0565b5081612783565b346102835760203660031901126102835760043560005260fb6020526020600160406000200154604051908152f35b346102835760003660031901126102835760206040517fb62aeb2ef35a3718e51a7e8b0b0d8e6fa690a4037bf45dad308976da469a861c8152f35b346102835761282236612f5b565b3360009081527f72f2994cda805697ff5940dc92bd4118d9d7058b657a897ee8a2023e4f67343460209081526040909120549092919060ff1615612c765782916001600160a01b038061019754169260405194858095633d932dfb60e01b825283600483015260249687915afa94851561132f57600095612c47575b50851c16604051936128af8561306c565b600085528115612bde576128c281613e8c565b936128cc84613e8c565b936128d5613895565b60005b865181101561291757806128ef612912928861373e565b516128fa828a61373e565b5160005260c98b52611f0560406000209182546137a5565b6128d8565b5087939450868360005260978552604060002086600052855260406000206129408382546137a5565b905585600060405186815284888201527fc3d58168c5ae7397731d063d5bbf3d657854427343f4c083240f7aacaa2d0f6260403392a4853b612997575b610432866101938787600052526005604060002001613977565b846129f091604051809381927ff23a6e610000000000000000000000000000000000000000000000000000000096878452336004850152600089850152896044850152606484015260a0608484015260a4830190612f36565b038160008a5af160009181612b86575b50612ae75750506001600060033d11612ad5575b6308c379a014612aa0575b612a3757506104329291610193915b9181939461297d565b8260346084926040519262461bcd60e51b845260048401528201527f455243313135353a207472616e7366657220746f206e6f6e2d4552433131353560448201527f526563656976657220696d706c656d656e7465720000000000000000000000006064820152fd5b612aa8613ec2565b80612ab35750612a1f565b8461196e849260405193849362461bcd60e51b85526004850152830190612f36565b5060046000803e60005160e01c612a14565b7fffffffff000000000000000000000000000000000000000000000000000000001603612b1d5750610432929161019391612a2e565b8260286084926040519262461bcd60e51b845260048401528201527f455243313135353a204552433131353552656365697665722072656a6563746560448201527f6420746f6b656e730000000000000000000000000000000000000000000000006064820152fd5b9091508581813d8311612bd7575b612b9e81836130c0565b8101031261028357517fffffffff0000000000000000000000000000000000000000000000000000000081168103610283579087612a00565b503d612b94565b6084866021866040519262461bcd60e51b845260048401528201527f455243313135353a206d696e7420746f20746865207a65726f2061646472657360448201527f73000000000000000000000000000000000000000000000000000000000000006064820152fd5b9094508581813d8311612c6f575b612c5f81836130c0565b810103126102835751938661289e565b503d612c55565b60246040517ff78d2300000000000000000000000000000000000000000000000000000000008152336004820152fd5b3461028357602080600319360112610283576040519060008260995491612ccc8361362c565b92838352600190858282169182600014612d68575050600114612d0b575b50612cf7925003836130c0565b611576604051928284938452830190612f36565b84915060996000527f72a152ddfb8e864297c917af52ea6c1c68aead0fee1a62673fcc7e0c94979d00906000915b858310612d50575050612cf7935082010185612cea565b80548389018501528794508693909201918101612d39565b60ff191685820152612cf795151560051b8501019250879150612cea9050565b34610283576020366003190112610283576004357fffffffff00000000000000000000000000000000000000000000000000000000811680910361028357807f5a05180f0000000000000000000000000000000000000000000000000000000060209214908115612dff575b506040519015158152f35b7f7965db0b00000000000000000000000000000000000000000000000000000000811491508115612e32575b5082612df4565b7fd9b67a2600000000000000000000000000000000000000000000000000000000811491508115612e96575b8115612e6c575b5082612e2b565b7f01ffc9a70000000000000000000000000000000000000000000000000000000091501482612e65565b7f0e89341c0000000000000000000000000000000000000000000000000000000081149150612e5e565b3461028357604036600319011261028357602061116c612ede612ee7565b60243590613666565b600435906001600160a01b038216820361028357565b602435906001600160a01b038216820361028357565b60005b838110612f265750506000910152565b8181015183820152602001612f16565b90602091612f4f81518092818552858086019101612f13565b601f01601f1916010190565b6040906003190112610283576004359060243590565b9181601f840112156102835782359167ffffffffffffffff8311610283576020808501948460051b01011161028357565b9060e0906101009261012084830192825181526020948386809501518584015260408101516040840152606081015160608401526080810151608084015260a081015160a084015260c081015160c084015201519560e082015285518094520193019160005b828110613016575050505090565b83516001600160a01b031685529381019392810192600101613008565b60c0810190811067ffffffffffffffff82111761108057604052565b610100810190811067ffffffffffffffff82111761108057604052565b6020810190811067ffffffffffffffff82111761108057604052565b6060810190811067ffffffffffffffff82111761108057604052565b6080810190811067ffffffffffffffff82111761108057604052565b90601f8019910116810190811067ffffffffffffffff82111761108057604052565b67ffffffffffffffff81116110805760051b60200190565b81601f8201121561028357803591613111836130e2565b9261311f60405194856130c0565b808452602092838086019260051b820101928311610283578301905b828210613149575050505090565b8135815290830190830161313b565b67ffffffffffffffff811161108057601f01601f191660200190565b92919261318082613158565b9161318e60405193846130c0565b829481845281830111610283578281602093846000960137010152565b9080601f83011215610283578160206131c693359101613174565b90565b90815180825260208080930193019160005b8281106131e9575050505090565b8351855293810193928101926001016131db565b3360009081527fc81858b0fc5e8d7d2c7a341b4e13a62a27b51e1da1072bf5f7fee8fdef673e94602090815260408083205490927f65d7a28e3265b37a6474929f336521b332c1681b933f6cb9f3376673440d862a9160ff16156132615750505050565b61326a336137c3565b91845190613277826130a4565b604282528482019260603685378251156133dd57603084538251906001918210156133dd5790607860218501536041915b81831161336f5750505061332d57604861196e9386936133119361330298519889937f416363657373436f6e74726f6c3a206163636f756e74200000000000000000008a86015261190e815180928c603789019101612f13565b010360288101875201856130c0565b5192839262461bcd60e51b845260048401526024830190612f36565b60648486519062461bcd60e51b825280600483015260248201527f537472696e67733a20686578206c656e67746820696e73756666696369656e746044820152fd5b909192600f811660108110156133c9576f181899199a1a9b1b9c1cb0b131b232b360811b901a61339f85876137b2565b5360041c9280156133b5576000190191906132a8565b602482634e487b7160e01b81526011600452fd5b602483634e487b7160e01b81526032600452fd5b80634e487b7160e01b602492526032600452fd5b3360009081527fc88390e7e62175be0932452175b6a7222b6b094ab0ef984a5153c620345d8975602090815260408083205490929060ff161561343357505050565b61343c336137c3565b908084519061344a826130a4565b604282528482019260603685378251156133dd57603084538251906001918210156133dd5790607860218501536041915b8183116134d55750505061332d57604861196e9386936133119361330298519889937f416363657373436f6e74726f6c3a206163636f756e74200000000000000000008a86015261190e815180928c603789019101612f13565b909192600f811660108110156133c9576f181899199a1a9b1b9c1cb0b131b232b360811b901a61350585876137b2565b5360041c9280156133b55760001901919061347b565b60009080825260209060fb8252604092838120338252835260ff8482205416156135455750505050565b61354e336137c3565b9184519061355b826130a4565b604282528482019260603685378251156133dd57603084538251906001918210156133dd5790607860218501536041915b8183116135e65750505061332d57604861196e9386936133119361330298519889937f416363657373436f6e74726f6c3a206163636f756e74200000000000000000008a86015261190e815180928c603789019101612f13565b909192600f811660108110156133c9576f181899199a1a9b1b9c1cb0b131b232b360811b901a61361685876137b2565b5360041c9280156133b55760001901919061358c565b90600182811c9216801561365c575b602083101461364657565b634e487b7160e01b600052602260045260246000fd5b91607f169161363b565b6001600160a01b031690811561369357600052609760205260406000209060005260205260406000205490565b608460405162461bcd60e51b815260206004820152602a60248201527f455243313135353a2061646472657373207a65726f206973206e6f742061207660448201527f616c6964206f776e6572000000000000000000000000000000000000000000006064820152fd5b90613707826130e2565b61371460405191826130c0565b8281528092613725601f19916130e2565b0190602036910137565b600019811461201d5760010190565b805182101561154a5760209160051b010190565b9091901561375e575090565b81511561376e5750805190602001fd5b61196e9060405191829162461bcd60e51b8352602060048401526024830190612f36565b8181029291811591840414171561201d57565b9190820180921161201d57565b90815181101561154a570160200190565b604051906137d082613088565b602a825260208201604036823782511561154a5760309053815160019081101561154a57607860218401536029905b80821161380f5750506121905790565b9091600f81166010811015613868576f181899199a1a9b1b9c1cb0b131b232b360811b901a61383e84866137b2565b5360041c9180156138535760001901906137ff565b60246000634e487b7160e01b81526011600452fd5b60246000634e487b7160e01b81526032600452fd5b805482101561154a5760005260206000200190600090565b60ff603354166138a157565b606460405162461bcd60e51b815260206004820152601060248201527f5061757361626c653a20706175736564000000000000000000000000000000006044820152fd5b90600091808352610195928360205260408120541560001461397257610194938454946801000000000000000086101561395e57600186018082558610156133c9578360409495967fa6f1ac7ad7b125ba5a5e1c96b00ad6914f90a503b1ac3d85a9dadbb4c639df920155549382526020522055600190565b602483634e487b7160e01b81526041600452fd5b925050565b919060018301600090828252806020526040822054156000146139e9578454946801000000000000000086101561395e57836139d96139c0886001604098999a0185558461387d565b819391549060031b600019811b9283911b169119161790565b9055549382526020522055600190565b50925050565b9190820391821161201d57565b90600182019060009281845282602052604084205490811515600014613ae55760001991808301818111613ad157825490848201918211613abd57808203613a88575b50505080548015613a7457820191613a57838361387d565b909182549160031b1b191690555582526020526040812055600190565b602486634e487b7160e01b81526031600452fd5b613aa8613a986139c0938661387d565b90549060031b1c9283928661387d565b90558652846020526040862055388080613a3f565b602488634e487b7160e01b81526011600452fd5b602487634e487b7160e01b81526011600452fd5b5050505090565b15613af357565b608460405162461bcd60e51b815260206004820152602b60248201527f496e697469616c697a61626c653a20636f6e7472616374206973206e6f74206960448201527f6e697469616c697a696e670000000000000000000000000000000000000000006064820152fd5b90816020910312610283575180151581036102835790565b9290916001600160a01b038416918215613e2257613b9284613e8c565b613b9b83613e8c565b90604093845193613bab8561306c565b6000809552613bb8613895565b33871496855b8451811015613c7d5788613bd2828761373e565b5180895260209061019382528a8a2092613c0a575b600193929160c9918b52526004613c018b8b2054836140c3565b91015501613bbe565b8d613c36613c18868c61373e565b5191838d5260c985528d8d2054613c2f8583613666565b918761418a565b1015613be7578a517fe1b8b25f0000000000000000000000000000000000000000000000000000000081526001600160a01b038f1660048201526024810191909152604490fd5b509294965092975095855b8451811015613d4057613c9b818661373e565b51613ca6828b61373e565b519080895260c96020818152898b205492848410613cd7578b52528789209190039055613cd29061372f565b613c88565b6084828c519062461bcd60e51b82526004820152602860248201527f455243313135353a206275726e20616d6f756e74206578636565647320746f7460448201527f616c537570706c790000000000000000000000000000000000000000000000006064820152fd5b509250929394909550818552602060978152848620848752815284862054828110613dba5790828493928896958752609783528787208688528352038686205585519283528201527fc3d58168c5ae7397731d063d5bbf3d657854427343f4c083240f7aacaa2d0f62843392a451613db78161306c565b52565b60848287519062461bcd60e51b825260048201526024808201527f455243313135353a206275726e20616d6f756e7420657863656564732062616c60448201527f616e6365000000000000000000000000000000000000000000000000000000006064820152fd5b608460405162461bcd60e51b815260206004820152602360248201527f455243313135353a206275726e2066726f6d20746865207a65726f206164647260448201527f65737300000000000000000000000000000000000000000000000000000000006064820152fd5b604051906040820182811067ffffffffffffffff821117611080576040526001825260208201602036823782511561154a575290565b600060443d106131c657604051600319913d83016004833e815167ffffffffffffffff918282113d602484011117613f2057818401948551938411613f28573d85010160208487010111613f2057506131c6929101602001906130c0565b949350505050565b50949350505050565b60405190613f3e82613033565b8160a06000918281528260208201528260408201528260608201528260808201520152565b60405190613f708261304f565b606060e083600080825280602083015280604083015280848301528060808301528060a083015260c08201520152565b613fa8613f63565b5080600052610193602052604060002060058101908154613fc8816130e2565b92613fd660405194856130c0565b818452601f19613fe5836130e2565b01366020860137613ff5826136fd565b9060005b83811061406957505050508260005260c96020526040600020549080549160018201549061402881878561414c565b916003600285015494015494604051976140418961304f565b8852602088015260408701526060860152608085015260a084015260c083015260e082015290565b806001600160a01b0361407e6001938561387d565b90549060031b1c16614090828961373e565b528761409c828661373e565b5201613ff9565b81156140ad570490565b634e487b7160e01b600052601260045260246000fd5b906004906000906001840154804210156000146140ff57506140ea915060028401546137a5565b915b0154808211156140fa575090565b905090565b61410b855480926139ef565b91814210600014614120575050505b916140ec565b61414793509061414161413a611e589360028901546137a5565b91426139ef565b90613792565b61411a565b919060018301541561417257509060026141696131c693836140c3565b910154906139ef565b602490604051906325f8781760e01b82526004820152fd5b909261419a8360028401546137a5565b90600090821580156141f2575b156141b757505050505050600090565b6141416141ed946141e76040611e58956001600160a01b036131c69b1681526007840160205220549788926140c3565b926137a5565b6139ef565b5080156141a7565b91906001830154156141725750906142238261421d6131c69460028501546137a5565b926140c3565b906139ef56fea2646970667358221220d372ad3ea5ef0ce69af9f7bccfb7717af9bc70dbd25153d3409937e07e695bc264736f6c63430008110033"
}