{
  "address": "0x7a177C928bcD09eCDDfC7c3C04f48e888dA754b6",
  "abi": [
    {
      "inputs": [],
      "stateMutability": "nonpayable",
      "type": "constructor"
    },
    {
      "inputs": [],
      "name": "FunctionDisabled",
      "type": "error"
    },
    {
      "inputs": [
        {
          "internalType": "address",
          "name": "account",
          "type": "address"
        },
        {
          "internalType": "uint256",
          "name": "scheduleId",
          "type": "uint256"
        }
      ],
      "name": "InsufficientClaimableBalance",
      "type": "error"
    },
    {
      "inputs": [
        {
          "internalType": "uint256",
          "name": "scheduleId",
          "type": "uint256"
        }
      ],
      "name": "InsufficientUnreleasedTokens",
      "type": "error"
    },
    {
      "inputs": [
        {
          "internalType": "address",
          "name": "account",
          "type": "address"
        }
      ],
      "name": "InvalidMinter",
      "type": "error"
    },
    {
      "inputs": [],
      "name": "InvalidZeroDuration",
      "type": "error"
    },
    {
      "inputs": [
        {
          "internalType": "uint256",
          "name": "scheduleId",
          "type": "uint256"
        }
      ],
      "name": "NonexistentSchedule",
      "type": "error"
    },
    {
      "inputs": [
        {
          "internalType": "uint256",
          "name": "scheduleId",
          "type": "uint256"
        }
      ],
      "name": "ScheduleExists",
      "type": "error"
    },
    {
      "anonymous": false,
      "inputs": [
        {
          "indexed": true,
          "internalType": "address",
          "name": "account",
          "type": "address"
        },
        {
          "indexed": true,
          "internalType": "address",
          "name": "operator",
          "type": "address"
        },
        {
          "indexed": false,
          "internalType": "bool",
          "name": "approved",
          "type": "bool"
        }
      ],
      "name": "ApprovalForAll",
      "type": "event"
    },
    {
      "anonymous": false,
      "inputs": [
        {
          "indexed": true,
          "internalType": "address",
          "name": "from",
          "type": "address"
        },
        {
          "indexed": true,
          "internalType": "address",
          "name": "to",
          "type": "address"
        },
        {
          "indexed": true,
          "internalType": "uint256",
          "name": "scheduleId",
          "type": "uint256"
        },
        {
          "indexed": false,
          "internalType": "uint256",
          "name": "quantity",
          "type": "uint256"
        }
      ],
      "name": "ClaimTokens",
      "type": "event"
    },
    {
      "anonymous": false,
      "inputs": [
        {
          "indexed": false,
          "internalType": "uint8",
          "name": "version",
          "type": "uint8"
        }
      ],
      "name": "Initialized",
      "type": "event"
    },
    {
      "anonymous": false,
      "inputs": [
        {
          "indexed": false,
          "internalType": "address",
          "name": "account",
          "type": "address"
        }
      ],
      "name": "Paused",
      "type": "event"
    },
    {
      "anonymous": false,
      "inputs": [
        {
          "indexed": true,
          "internalType": "uint256",
          "name": "atTime",
          "type": "uint256"
        },
        {
          "indexed": true,
          "internalType": "uint256",
          "name": "scheduleId",
          "type": "uint256"
        },
        {
          "indexed": true,
          "internalType": "uint256",
          "name": "removalId",
          "type": "uint256"
        },
        {
          "indexed": false,
          "internalType": "uint256",
          "name": "quantity",
          "type": "uint256"
        },
        {
          "indexed": false,
          "internalType": "address[]",
          "name": "scheduleOwners",
          "type": "address[]"
        },
        {
          "indexed": false,
          "internalType": "uint256[]",
          "name": "quantitiesBurned",
          "type": "uint256[]"
        }
      ],
      "name": "RevokeTokens",
      "type": "event"
    },
    {
      "anonymous": false,
      "inputs": [
        {
          "indexed": true,
          "internalType": "bytes32",
          "name": "role",
          "type": "bytes32"
        },
        {
          "indexed": true,
          "internalType": "bytes32",
          "name": "previousAdminRole",
          "type": "bytes32"
        },
        {
          "indexed": true,
          "internalType": "bytes32",
          "name": "newAdminRole",
          "type": "bytes32"
        }
      ],
      "name": "RoleAdminChanged",
      "type": "event"
    },
    {
      "anonymous": false,
      "inputs": [
        {
          "indexed": true,
          "internalType": "bytes32",
          "name": "role",
          "type": "bytes32"
        },
        {
          "indexed": true,
          "internalType": "address",
          "name": "account",
          "type": "address"
        },
        {
          "indexed": true,
          "internalType": "address",
          "name": "sender",
          "type": "address"
        }
      ],
      "name": "RoleGranted",
      "type": "event"
    },
    {
      "anonymous": false,
      "inputs": [
        {
          "indexed": true,
          "internalType": "bytes32",
          "name": "role",
          "type": "bytes32"
        },
        {
          "indexed": true,
          "internalType": "address",
          "name": "account",
          "type": "address"
        },
        {
          "indexed": true,
          "internalType": "address",
          "name": "sender",
          "type": "address"
        }
      ],
      "name": "RoleRevoked",
      "type": "event"
    },
    {
      "anonymous": false,
      "inputs": [
        {
          "indexed": true,
          "internalType": "uint256",
          "name": "projectId",
          "type": "uint256"
        },
        {
          "indexed": false,
          "internalType": "uint256",
          "name": "startTime",
          "type": "uint256"
        },
        {
          "indexed": false,
          "internalType": "uint256",
          "name": "endTime",
          "type": "uint256"
        }
      ],
      "name": "ScheduleCreated",
      "type": "event"
    },
    {
      "anonymous": false,
      "inputs": [
        {
          "indexed": true,
          "internalType": "address",
          "name": "operator",
          "type": "address"
        },
        {
          "indexed": true,
          "internalType": "address",
          "name": "from",
          "type": "address"
        },
        {
          "indexed": true,
          "internalType": "address",
          "name": "to",
          "type": "address"
        },
        {
          "indexed": false,
          "internalType": "uint256[]",
          "name": "ids",
          "type": "uint256[]"
        },
        {
          "indexed": false,
          "internalType": "uint256[]",
          "name": "values",
          "type": "uint256[]"
        }
      ],
      "name": "TransferBatch",
      "type": "event"
    },
    {
      "anonymous": false,
      "inputs": [
        {
          "indexed": true,
          "internalType": "address",
          "name": "operator",
          "type": "address"
        },
        {
          "indexed": true,
          "internalType": "address",
          "name": "from",
          "type": "address"
        },
        {
          "indexed": true,
          "internalType": "address",
          "name": "to",
          "type": "address"
        },
        {
          "indexed": false,
          "internalType": "uint256",
          "name": "id",
          "type": "uint256"
        },
        {
          "indexed": false,
          "internalType": "uint256",
          "name": "value",
          "type": "uint256"
        }
      ],
      "name": "TransferSingle",
      "type": "event"
    },
    {
      "anonymous": false,
      "inputs": [
        {
          "indexed": false,
          "internalType": "string",
          "name": "value",
          "type": "string"
        },
        {
          "indexed": true,
          "internalType": "uint256",
          "name": "id",
          "type": "uint256"
        }
      ],
      "name": "URI",
      "type": "event"
    },
    {
      "anonymous": false,
      "inputs": [
        {
          "indexed": false,
          "internalType": "address",
          "name": "account",
          "type": "address"
        }
      ],
      "name": "Unpaused",
      "type": "event"
    },
    {
      "inputs": [],
      "name": "DEFAULT_ADMIN_ROLE",
      "outputs": [
        {
          "internalType": "bytes32",
          "name": "",
          "type": "bytes32"
        }
      ],
      "stateMutability": "view",
      "type": "function"
    },
    {
      "inputs": [],
      "name": "MINTER_ROLE",
      "outputs": [
        {
          "internalType": "bytes32",
          "name": "",
          "type": "bytes32"
        }
      ],
      "stateMutability": "view",
      "type": "function"
    },
    {
      "inputs": [],
      "name": "PAUSER_ROLE",
      "outputs": [
        {
          "internalType": "bytes32",
          "name": "",
          "type": "bytes32"
        }
      ],
      "stateMutability": "view",
      "type": "function"
    },
    {
      "inputs": [],
      "name": "SCHEDULE_CREATOR_ROLE",
      "outputs": [
        {
          "internalType": "bytes32",
          "name": "",
          "type": "bytes32"
        }
      ],
      "stateMutability": "view",
      "type": "function"
    },
    {
      "inputs": [],
      "name": "TOKEN_REVOKER_ROLE",
      "outputs": [
        {
          "internalType": "bytes32",
          "name": "",
          "type": "bytes32"
        }
      ],
      "stateMutability": "view",
      "type": "function"
    },
    {
      "inputs": [
        {
          "internalType": "address",
          "name": "account",
          "type": "address"
        },
        {
          "internalType": "uint256",
          "name": "id",
          "type": "uint256"
        }
      ],
      "name": "balanceOf",
      "outputs": [
        {
          "internalType": "uint256",
          "name": "",
          "type": "uint256"
        }
      ],
      "stateMutability": "view",
      "type": "function"
    },
    {
      "inputs": [
        {
          "internalType": "address[]",
          "name": "accounts",
          "type": "address[]"
        },
        {
          "internalType": "uint256[]",
          "name": "ids",
          "type": "uint256[]"
        }
      ],
      "name": "balanceOfBatch",
      "outputs": [
        {
          "internalType": "uint256[]",
          "name": "",
          "type": "uint256[]"
        }
      ],
      "stateMutability": "view",
      "type": "function"
    },
    {
      "inputs": [
        {
          "internalType": "address",
          "name": "account",
          "type": "address"
        },
        {
          "internalType": "uint256[]",
          "name": "scheduleIds",
          "type": "uint256[]"
        }
      ],
      "name": "batchGetScheduleDetailsForAccount",
      "outputs": [
        {
          "components": [
            {
              "internalType": "address",
              "name": "tokenHolder",
              "type": "address"
            },
            {
              "internalType": "uint256",
              "name": "scheduleTokenId",
              "type": "uint256"
            },
            {
              "internalType": "uint256",
              "name": "balance",
              "type": "uint256"
            },
            {
              "internalType": "uint256",
              "name": "claimableAmount",
              "type": "uint256"
            },
            {
              "internalType": "uint256",
              "name": "claimedAmount",
              "type": "uint256"
            },
            {
              "internalType": "uint256",
              "name": "quantityRevoked",
              "type": "uint256"
            }
          ],
          "internalType": "struct ScheduleDetailForAddress[]",
          "name": "",
          "type": "tuple[]"
        }
      ],
      "stateMutability": "view",
      "type": "function"
    },
    {
      "inputs": [
        {
          "internalType": "uint256[]",
          "name": "scheduleIds",
          "type": "uint256[]"
        }
      ],
      "name": "batchGetScheduleSummaries",
      "outputs": [
        {
          "components": [
            {
              "internalType": "uint256",
              "name": "scheduleTokenId",
              "type": "uint256"
            },
            {
              "internalType": "uint256",
              "name": "startTime",
              "type": "uint256"
            },
            {
              "internalType": "uint256",
              "name": "endTime",
              "type": "uint256"
            },
            {
              "internalType": "uint256",
              "name": "totalSupply",
              "type": "uint256"
            },
            {
              "internalType": "uint256",
              "name": "totalClaimableAmount",
              "type": "uint256"
            },
            {
              "internalType": "uint256",
              "name": "totalClaimedAmount",
              "type": "uint256"
            },
            {
              "internalType": "uint256",
              "name": "totalQuantityRevoked",
              "type": "uint256"
            },
            {
              "internalType": "address[]",
              "name": "tokenHolders",
              "type": "address[]"
            }
          ],
          "internalType": "struct ScheduleSummary[]",
          "name": "",
          "type": "tuple[]"
        }
      ],
      "stateMutability": "view",
      "type": "function"
    },
    {
      "inputs": [
        {
          "internalType": "uint256",
          "name": "scheduleId",
          "type": "uint256"
        }
      ],
      "name": "claimableBalanceForSchedule",
      "outputs": [
        {
          "internalType": "uint256",
          "name": "",
          "type": "uint256"
        }
      ],
      "stateMutability": "view",
      "type": "function"
    },
    {
      "inputs": [
        {
          "internalType": "uint256",
          "name": "scheduleId",
          "type": "uint256"
        },
        {
          "internalType": "address",
          "name": "account",
          "type": "address"
        }
      ],
      "name": "claimableBalanceForScheduleForAccount",
      "outputs": [
        {
          "internalType": "uint256",
          "name": "",
          "type": "uint256"
        }
      ],
      "stateMutability": "view",
      "type": "function"
    },
    {
      "inputs": [
        {
          "internalType": "uint256",
          "name": "projectId",
          "type": "uint256"
        },
        {
          "internalType": "uint256",
          "name": "startTime",
          "type": "uint256"
        },
        {
          "internalType": "uint8",
          "name": "methodology",
          "type": "uint8"
        },
        {
          "internalType": "uint8",
          "name": "methodologyVersion",
          "type": "uint8"
        }
      ],
      "name": "createSchedule",
      "outputs": [],
      "stateMutability": "nonpayable",
      "type": "function"
    },
    {
      "inputs": [
        {
          "internalType": "uint256",
          "name": "id",
          "type": "uint256"
        }
      ],
      "name": "exists",
      "outputs": [
        {
          "internalType": "bool",
          "name": "",
          "type": "bool"
        }
      ],
      "stateMutability": "view",
      "type": "function"
    },
    {
      "inputs": [],
      "name": "getAllScheduleIds",
      "outputs": [
        {
          "internalType": "uint256[]",
          "name": "",
          "type": "uint256[]"
        }
      ],
      "stateMutability": "view",
      "type": "function"
    },
    {
      "inputs": [
        {
          "internalType": "uint256",
          "name": "methodology",
          "type": "uint256"
        },
        {
          "internalType": "uint256",
          "name": "methodologyVersion",
          "type": "uint256"
        }
      ],
      "name": "getRestrictionDurationForMethodologyAndVersion",
      "outputs": [
        {
          "internalType": "uint256",
          "name": "",
          "type": "uint256"
        }
      ],
      "stateMutability": "view",
      "type": "function"
    },
    {
      "inputs": [
        {
          "internalType": "bytes32",
          "name": "role",
          "type": "bytes32"
        }
      ],
      "name": "getRoleAdmin",
      "outputs": [
        {
          "internalType": "bytes32",
          "name": "",
          "type": "bytes32"
        }
      ],
      "stateMutability": "view",
      "type": "function"
    },
    {
      "inputs": [
        {
          "internalType": "bytes32",
          "name": "role",
          "type": "bytes32"
        },
        {
          "internalType": "uint256",
          "name": "index",
          "type": "uint256"
        }
      ],
      "name": "getRoleMember",
      "outputs": [
        {
          "internalType": "address",
          "name": "",
          "type": "address"
        }
      ],
      "stateMutability": "view",
      "type": "function"
    },
    {
      "inputs": [
        {
          "internalType": "bytes32",
          "name": "role",
          "type": "bytes32"
        }
      ],
      "name": "getRoleMemberCount",
      "outputs": [
        {
          "internalType": "uint256",
          "name": "",
          "type": "uint256"
        }
      ],
      "stateMutability": "view",
      "type": "function"
    },
    {
      "inputs": [
        {
          "internalType": "address",
          "name": "account",
          "type": "address"
        },
        {
          "internalType": "uint256",
          "name": "scheduleId",
          "type": "uint256"
        }
      ],
      "name": "getScheduleDetailForAccount",
      "outputs": [
        {
          "components": [
            {
              "internalType": "address",
              "name": "tokenHolder",
              "type": "address"
            },
            {
              "internalType": "uint256",
              "name": "scheduleTokenId",
              "type": "uint256"
            },
            {
              "internalType": "uint256",
              "name": "balance",
              "type": "uint256"
            },
            {
              "internalType": "uint256",
              "name": "claimableAmount",
              "type": "uint256"
            },
            {
              "internalType": "uint256",
              "name": "claimedAmount",
              "type": "uint256"
            },
            {
              "internalType": "uint256",
              "name": "quantityRevoked",
              "type": "uint256"
            }
          ],
          "internalType": "struct ScheduleDetailForAddress",
          "name": "",
          "type": "tuple"
        }
      ],
      "stateMutability": "view",
      "type": "function"
    },
    {
      "inputs": [
        {
          "internalType": "uint256",
          "name": "scheduleId",
          "type": "uint256"
        }
      ],
      "name": "getScheduleSummary",
      "outputs": [
        {
          "components": [
            {
              "internalType": "uint256",
              "name": "scheduleTokenId",
              "type": "uint256"
            },
            {
              "internalType": "uint256",
              "name": "startTime",
              "type": "uint256"
            },
            {
              "internalType": "uint256",
              "name": "endTime",
              "type": "uint256"
            },
            {
              "internalType": "uint256",
              "name": "totalSupply",
              "type": "uint256"
            },
            {
              "internalType": "uint256",
              "name": "totalClaimableAmount",
              "type": "uint256"
            },
            {
              "internalType": "uint256",
              "name": "totalClaimedAmount",
              "type": "uint256"
            },
            {
              "internalType": "uint256",
              "name": "totalQuantityRevoked",
              "type": "uint256"
            },
            {
              "internalType": "address[]",
              "name": "tokenHolders",
              "type": "address[]"
            }
          ],
          "internalType": "struct ScheduleSummary",
          "name": "",
          "type": "tuple"
        }
      ],
      "stateMutability": "view",
      "type": "function"
    },
    {
      "inputs": [],
      "name": "getUnderlyingTokenAddress",
      "outputs": [
        {
          "internalType": "address",
          "name": "",
          "type": "address"
        }
      ],
      "stateMutability": "view",
      "type": "function"
    },
    {
      "inputs": [
        {
          "internalType": "bytes32",
          "name": "role",
          "type": "bytes32"
        },
        {
          "internalType": "address",
          "name": "account",
          "type": "address"
        }
      ],
      "name": "grantRole",
      "outputs": [],
      "stateMutability": "nonpayable",
      "type": "function"
    },
    {
      "inputs": [
        {
          "internalType": "bytes32",
          "name": "role",
          "type": "bytes32"
        },
        {
          "internalType": "address",
          "name": "account",
          "type": "address"
        }
      ],
      "name": "hasRole",
      "outputs": [
        {
          "internalType": "bool",
          "name": "",
          "type": "bool"
        }
      ],
      "stateMutability": "view",
      "type": "function"
    },
    {
      "inputs": [],
      "name": "initialize",
      "outputs": [],
      "stateMutability": "nonpayable",
      "type": "function"
    },
    {
      "inputs": [
        {
          "internalType": "address",
          "name": "account",
          "type": "address"
        },
        {
          "internalType": "address",
          "name": "operator",
          "type": "address"
        }
      ],
      "name": "isApprovedForAll",
      "outputs": [
        {
          "internalType": "bool",
          "name": "",
          "type": "bool"
        }
      ],
      "stateMutability": "view",
      "type": "function"
    },
    {
      "inputs": [
        {
          "internalType": "uint256",
          "name": "amount",
          "type": "uint256"
        },
        {
          "internalType": "uint256",
          "name": "removalId",
          "type": "uint256"
        }
      ],
      "name": "mint",
      "outputs": [],
      "stateMutability": "nonpayable",
      "type": "function"
    },
    {
      "inputs": [
        {
          "internalType": "bytes[]",
          "name": "data",
          "type": "bytes[]"
        }
      ],
      "name": "multicall",
      "outputs": [
        {
          "internalType": "bytes[]",
          "name": "results",
          "type": "bytes[]"
        }
      ],
      "stateMutability": "nonpayable",
      "type": "function"
    },
    {
      "inputs": [],
      "name": "pause",
      "outputs": [],
      "stateMutability": "nonpayable",
      "type": "function"
    },
    {
      "inputs": [],
      "name": "paused",
      "outputs": [
        {
          "internalType": "bool",
          "name": "",
          "type": "bool"
        }
      ],
      "stateMutability": "view",
      "type": "function"
    },
    {
      "inputs": [
        {
          "internalType": "contract IERC20WithPermit",
          "name": "wrappedToken",
          "type": "address"
        },
        {
          "internalType": "contract IRemoval",
          "name": "removal",
          "type": "address"
        }
      ],
      "name": "registerContractAddresses",
      "outputs": [],
      "stateMutability": "nonpayable",
      "type": "function"
    },
    {
      "inputs": [
        {
          "internalType": "bytes32",
          "name": "role",
          "type": "bytes32"
        },
        {
          "internalType": "address",
          "name": "account",
          "type": "address"
        }
      ],
      "name": "renounceRole",
      "outputs": [],
      "stateMutability": "nonpayable",
      "type": "function"
    },
    {
      "inputs": [
        {
          "internalType": "uint256",
          "name": "scheduleId",
          "type": "uint256"
        }
      ],
      "name": "revocableQuantityForSchedule",
      "outputs": [
        {
          "internalType": "uint256",
          "name": "",
          "type": "uint256"
        }
      ],
      "stateMutability": "view",
      "type": "function"
    },
    {
      "inputs": [
        {
          "internalType": "bytes32",
          "name": "role",
          "type": "bytes32"
        },
        {
          "internalType": "address",
          "name": "account",
          "type": "address"
        }
      ],
      "name": "revokeRole",
      "outputs": [],
      "stateMutability": "nonpayable",
      "type": "function"
    },
    {
      "inputs": [
        {
          "internalType": "uint256",
          "name": "removalId",
          "type": "uint256"
        },
        {
          "internalType": "uint256",
          "name": "amount",
          "type": "uint256"
        },
        {
          "internalType": "address",
          "name": "toAccount",
          "type": "address"
        }
      ],
      "name": "revokeUnreleasedTokens",
      "outputs": [],
      "stateMutability": "nonpayable",
      "type": "function"
    },
    {
      "inputs": [
        {
          "internalType": "address",
          "name": "",
          "type": "address"
        },
        {
          "internalType": "address",
          "name": "",
          "type": "address"
        },
        {
          "internalType": "uint256[]",
          "name": "",
          "type": "uint256[]"
        },
        {
          "internalType": "uint256[]",
          "name": "",
          "type": "uint256[]"
        },
        {
          "internalType": "bytes",
          "name": "",
          "type": "bytes"
        }
      ],
      "name": "safeBatchTransferFrom",
      "outputs": [],
      "stateMutability": "pure",
      "type": "function"
    },
    {
      "inputs": [
        {
          "internalType": "address",
          "name": "",
          "type": "address"
        },
        {
          "internalType": "address",
          "name": "",
          "type": "address"
        },
        {
          "internalType": "uint256",
          "name": "",
          "type": "uint256"
        },
        {
          "internalType": "uint256",
          "name": "",
          "type": "uint256"
        },
        {
          "internalType": "bytes",
          "name": "",
          "type": "bytes"
        }
      ],
      "name": "safeTransferFrom",
      "outputs": [],
      "stateMutability": "pure",
      "type": "function"
    },
    {
      "inputs": [
        {
          "internalType": "uint256",
          "name": "scheduleId",
          "type": "uint256"
        }
      ],
      "name": "scheduleExists",
      "outputs": [
        {
          "internalType": "bool",
          "name": "",
          "type": "bool"
        }
      ],
      "stateMutability": "view",
      "type": "function"
    },
    {
      "inputs": [
        {
          "internalType": "address",
          "name": "operator",
          "type": "address"
        },
        {
          "internalType": "bool",
          "name": "approved",
          "type": "bool"
        }
      ],
      "name": "setApprovalForAll",
      "outputs": [],
      "stateMutability": "nonpayable",
      "type": "function"
    },
    {
      "inputs": [
        {
          "internalType": "uint256",
          "name": "methodology",
          "type": "uint256"
        },
        {
          "internalType": "uint256",
          "name": "methodologyVersion",
          "type": "uint256"
        },
        {
          "internalType": "uint256",
          "name": "durationInSeconds",
          "type": "uint256"
        }
      ],
      "name": "setRestrictionDurationForMethodologyAndVersion",
      "outputs": [],
      "stateMutability": "nonpayable",
      "type": "function"
    },
    {
      "inputs": [
        {
          "internalType": "bytes4",
          "name": "interfaceId",
          "type": "bytes4"
        }
      ],
      "name": "supportsInterface",
      "outputs": [
        {
          "internalType": "bool",
          "name": "",
          "type": "bool"
        }
      ],
      "stateMutability": "view",
      "type": "function"
    },
    {
      "inputs": [
        {
          "internalType": "uint256",
          "name": "id",
          "type": "uint256"
        }
      ],
      "name": "totalSupply",
      "outputs": [
        {
          "internalType": "uint256",
          "name": "",
          "type": "uint256"
        }
      ],
      "stateMutability": "view",
      "type": "function"
    },
    {
      "inputs": [],
      "name": "unpause",
      "outputs": [],
      "stateMutability": "nonpayable",
      "type": "function"
    },
    {
      "inputs": [
        {
          "internalType": "uint256",
          "name": "",
          "type": "uint256"
        }
      ],
      "name": "uri",
      "outputs": [
        {
          "internalType": "string",
          "name": "",
          "type": "string"
        }
      ],
      "stateMutability": "view",
      "type": "function"
    },
    {
      "inputs": [
        {
          "internalType": "address",
          "name": "recipient",
          "type": "address"
        },
        {
          "internalType": "uint256",
          "name": "scheduleId",
          "type": "uint256"
        },
        {
          "internalType": "uint256",
          "name": "amount",
          "type": "uint256"
        }
      ],
      "name": "withdrawFromSchedule",
      "outputs": [
        {
          "internalType": "bool",
          "name": "",
          "type": "bool"
        }
      ],
      "stateMutability": "nonpayable",
      "type": "function"
    }
  ],
  "numDeployments": 3,
  "bytecode": "0x60808060405234620000c6576000549060ff8260081c1662000074575060ff8082161062000038575b6040516148859081620000cc8239f35b60ff90811916176000557f7f26b83ff96e1f2b6a682f133852f6798a09c465da95921460cefb3847402498602060405160ff8152a13862000028565b62461bcd60e51b815260206004820152602760248201527f496e697469616c697a61626c653a20636f6e747261637420697320696e697469604482015266616c697a696e6760c81b6064820152608490fd5b600080fdfe6080604052600436101561001257600080fd5b60003560e01c8062fdd58e1461328957806301ffc9a7146131515780630e89341c146130515780631b2ef1ca14612b99578063229afd6114612b5e578063248a9ca314612b2f57806327ca0c27146129e75780632d9f0f16146128945780632e5e8d83146128615780632eb2c2d6146127eb5780632f2ff15d146126ee57806336568abe1461259c5780633f4ba83a146124e2578063440f5fd2146124ad57806346dbd53514611db75780634e1273f414611c0f5780634f558e7914611be157806355135b67146117445780635c975abb146117215780635d37165a146116d65780636235a4e91461169e57806363343346146115e6578063639aa0ad146114cb5780636a00f9eb14611221578063713279b1146111e15780638129fc1c14610b505780638456cb5914610ad85780639010d07c14610a8457806391d1485414610a2957806393ae796d1461099d5780639ac7b44d14610969578063a217fddf1461094d578063a22cb4651461082b578063a4b186f8146107f9578063ac9650d814610554578063b8b4dbe014610519578063bd85b039146104ed578063c1499fa814610474578063ca15c87314610447578063d53913931461040c578063d547741f14610311578063e63ab1e9146102d6578063e985e9c5146102725763f242432a146101ff57600080fd5b3461026d5760a060031936011261026d576102186132b0565b506102216132d3565b5060843567ffffffffffffffff811161026d576102429036906004016135f6565b5060046040517fbf241488000000000000000000000000000000000000000000000000000000008152fd5b600080fd5b3461026d57604060031936011261026d5761028b6132b0565b6102936132d3565b9073ffffffffffffffffffffffffffffffffffffffff809116600052609860205260406000209116600052602052602060ff604060002054166040519015158152f35b3461026d57600060031936011261026d5760206040517f65d7a28e3265b37a6474929f336521b332c1681b933f6cb9f3376673440d862a8152f35b3461026d57604060031936011261026d5761039f60043561012d6103336132d3565b918060005260209060fb82526103506001604060002001546139cb565b610358613dd4565b8060005260fb825273ffffffffffffffffffffffffffffffffffffffff604060002094169384600052825260ff604060002054166103a1575b600052526040600020613f54565b005b8060005260fb8252604060002084600052825260406000207fffffffffffffffffffffffffffffffffffffffffffffffffffffffffffffff0081541690553384827ff6391f5c32d9c69d2a47ea670b442974b53935d1edc7fd64eb21e047a839171b600080a4610391565b3461026d57600060031936011261026d5760206040517f9f2df0fed2c77648de5860a4cc508cd0818c85b8b8a1ab4ceeef8d981c8956a68152f35b3461026d57602060031936011261026d5760043560005261012d6020526020604060002054604051908152f35b3461026d57606060031936011261026d57604435610490613dd4565b610498613894565b80156104c3576004356000526101916020526040600020602435600052602052604060002055600080f35b60046040517f98eb4124000000000000000000000000000000000000000000000000000000008152fd5b3461026d57602060031936011261026d5760043560005260c96020526020604060002054604051908152f35b3461026d57600060031936011261026d5760206040517f813b9efdf6afe6b57682eb1fb850711edc34da21ae7f7376cb7a391b1be3239f8152f35b3461026d5760208060031936011261026d5767ffffffffffffffff60043581811161026d57610587903690600401613372565b916105918361350f565b9161059f60405193846134ce565b8383527fffffffffffffffffffffffffffffffffffffffffffffffffffffffffffffffe06105cc8561350f565b018560005b8281106107ea5750505060005b84811061066157604080518781528551818901819052600092600582901b8301810191888b01918b9085015b8287106106175785850386f35b909192938280610651837fffffffffffffffffffffffffffffffffffffffffffffffffffffffffffffffc08a600196030186528851613319565b960192019601959291909261060a565b8060051b8201357fffffffffffffffffffffffffffffffffffffffffffffffffffffffffffffffe18336030181121561026d57820180359084821161026d578701813603811361026d576106b69136916135bf565b303b156107805790610759600080848a61077496519101305af43d15610779573d6106e081613585565b906106ee60405192836134ce565b81523d60008b83013e5b6040519161070583613496565b602783527f416464726573733a206c6f772d6c6576656c2064656c65676174652063616c6c8b8401527f206661696c6564000000000000000000000000000000000000000000000000006040840152613c52565b6107638287613c3e565b5261076e8186613c3e565b50613c2f565b6105de565b60606106f8565b6084876040519062461bcd60e51b82526004820152602660248201527f416464726573733a2064656c65676174652063616c6c20746f206e6f6e2d636f60448201527f6e747261637400000000000000000000000000000000000000000000000000006064820152fd5b606086820183015281016105d1565b3461026d57602060031936011261026d5760043560005261019260205260206001604060002001541515604051908152f35b3461026d57604060031936011261026d576108446132b0565b6024359081151580920361026d5773ffffffffffffffffffffffffffffffffffffffff16908133146108e35733600052609860205260406000208260005260205260406000207fffffffffffffffffffffffffffffffffffffffffffffffffffffffffffffff0081541660ff83161790556040519081527f17307eab39ab6107e8899845ad3d59bd9653f200f220920489ca2b5937696c3160203392a3005b608460405162461bcd60e51b815260206004820152602960248201527f455243313135353a2073657474696e6720617070726f76616c2073746174757360448201527f20666f722073656c6600000000000000000000000000000000000000000000006064820152fd5b3461026d57600060031936011261026d57602060405160008152f35b3461026d576109773661335c565b906000526101916020526040600020906000526020526020604060002054604051908152f35b3461026d57604060031936011261026d5760043573ffffffffffffffffffffffffffffffffffffffff80821680920361026d5760243590811680910361026d576109e5613dd4565b6109ed613894565b7fffffffffffffffffffffffff000000000000000000000000000000000000000091610195908382541617905561019691825416179055600080f35b3461026d57604060031936011261026d57610a426132d3565b60043560005260fb60205273ffffffffffffffffffffffffffffffffffffffff60406000209116600052602052602060ff604060002054166040519015158152f35b3461026d57604060031936011261026d5760043560005261012d602052602073ffffffffffffffffffffffffffffffffffffffff610ac86024356040600020613dbc565b9190546040519260031b1c168152f35b3461026d57600060031936011261026d57610af1613648565b610af9613dd4565b60017fffffffffffffffffffffffffffffffffffffffffffffffffffffffffffffff0060335416176033557f62e78cea01bee320cd4e420270b5ea74000d11b0c9f74754ebdbfc544b05a2586020604051338152a1005b3461026d57600060031936011261026d5760005460ff808260081c16158080916111d5575b80156111bf575b15611155576001927fffffffffffffffffffffffffffffffffffffffffffffffffffffffffffffff0090828583831617600055611126575b5060405192610bc284613496565b603284526020937f68747470733a2f2f6e6f72692e636f6d2f6170692f7265737472696374696f6e858201527f7363686564756c652f7b69647d2e6a736f6e00000000000000000000000000006040820152610c248260005460081c1661408f565b80519067ffffffffffffffff82116110f7578190610c43609954613ae9565b601f8111611086575b508690601f8311600114610fe857600092610fdd575b505060001982881b9260031b1c1916176099555b610cc48160005460081c16610c8a8161408f565b610c938161408f565b610c9c8161408f565b610ca58161408f565b610cae8161408f565b8360335416603355610cbf8161408f565b61408f565b610ccc613dd4565b6000805260fb918285526040600020336000528552816040600020541615610f91575b6000805261012d92838652610d08336040600020613ecf565b50610d11613dd4565b7f65d7a28e3265b37a6474929f336521b332c1681b933f6cb9f3376673440d862a806000528187526040600020336000528752836040600020541615610f45575b600052838652610d66336040600020613ecf565b50610d6f613dd4565b7fb62aeb2ef35a3718e51a7e8b0b0d8e6fa690a4037bf45dad308976da469a861c806000528187526040600020336000528752836040600020541615610ef9575b600052838652610dc4336040600020613ecf565b50610dcd613dd4565b7f813b9efdf6afe6b57682eb1fb850711edc34da21ae7f7376cb7a391b1be3239f928360005281875260406000203360005287526040600020541615610eac575b50506000528252610e23336040600020613ecf565b50610e2c613dd4565b610e34613894565b82600052610191825260406000206000805282526312cf3570604060002055610e5957005b7f7f26b83ff96e1f2b6a682f133852f6798a09c465da95921460cefb3847402498917fffffffffffffffffffffffffffffffffffffffffffffffffffffffffffff00ff60005416600055604051908152a1005b8260005285526040600020336000528552856040600020918254161790553333827f2f8788117e7eff1d82e926ec794901d17c78024a50270940304540a733656f0d600080a48580610e0e565b806000528187526040600020336000528752604060002088848254161790553333827f2f8788117e7eff1d82e926ec794901d17c78024a50270940304540a733656f0d600080a4610db0565b806000528187526040600020336000528752604060002088848254161790553333827f2f8788117e7eff1d82e926ec794901d17c78024a50270940304540a733656f0d600080a4610d52565b60008052828552604060002033600052855260406000208682825416179055333360007f2f8788117e7eff1d82e926ec794901d17c78024a50270940304540a733656f0d8180a4610cef565b015190508780610c62565b907fffffffffffffffffffffffffffffffffffffffffffffffffffffffffffffffe08994169160996000527f72a152ddfb8e864297c917af52ea6c1c68aead0fee1a62673fcc7e0c94979d009260005b8a8282106110705750508411611057575b505050811b01609955610c76565b015160001960f88460031b161c19169055878080611049565b8385015186558c97909501949384019301611038565b90915060996000527f72a152ddfb8e864297c917af52ea6c1c68aead0fee1a62673fcc7e0c94979d00601f840160051c8101918885106110ed575b84939291601f8b920160051c01915b8281106110de575050610c4c565b600081558594508a91016110d0565b90915081906110c1565b7f4e487b7100000000000000000000000000000000000000000000000000000000600052604160045260246000fd5b7fffffffffffffffffffffffffffffffffffffffffffffffffffffffffffff0000166101011760005584610bb4565b608460405162461bcd60e51b815260206004820152602e60248201527f496e697469616c697a61626c653a20636f6e747261637420697320616c72656160448201527f647920696e697469616c697a65640000000000000000000000000000000000006064820152fd5b50303b158015610b7c5750600182841614610b7c565b50600182841610610b75565b3461026d57602060031936011261026d57602061121960043580600052610192835260406000209060c9845260406000205491614820565b604051908152f35b3461026d57604060031936011261026d5761123a6132b0565b60243567ffffffffffffffff811161026d5761125a903690600401613527565b9081517fffffffffffffffffffffffffffffffffffffffffffffffffffffffffffffffe06112a061128a8361350f565b9261129860405194856134ce565b80845261350f565b0160005b8181106114b457505060005b835181101561141f576112c38185613c3e565b5160005260209061019282526001604060002001546112e7575b60019150016112b0565b61134f6112f48287613c3e565b516040517f639aa0ad00000000000000000000000000000000000000000000000000000000815273ffffffffffffffffffffffffffffffffffffffff87166004820152602481019190915260c0918290829081906044820190565b0381305afa91821561141357600092611384575b5050600192506113738285613c3e565b5261137e8184613c3e565b506112dd565b90809250813d831161140c575b61139b81836134ce565b8101031261026d57604051906113b082613441565b80519373ffffffffffffffffffffffffffffffffffffffff8516850361026d576001948352808201519083015260408101516040830152606080820151908301526080808201519083015260a080910151908201528680611363565b503d611391565b6040513d6000823e3d90fd5b506040516020918282018383528151809152836040840192019360005b8281106114495784840385f35b9091928260c0826114a56001948a5160a0809173ffffffffffffffffffffffffffffffffffffffff8151168452602081015160208501526040810151604085015260608101516060850152608081015160808501520151910152565b0196019101949291909461143c565b6020906114bf6144ee565b828286010152016112a4565b3461026d57604060031936011261026d5760c06114e66132b0565b6024356114f16144ee565b5080600052610192602052604060002061150b8284613b3c565b928260005260c960205273ffffffffffffffffffffffffffffffffffffffff61154560406000205461153d8685613b3c565b9084866147a3565b911693846000526007830160205260086040600020549301602052604060002054936040519561157487613441565b8652602086015260408501526060840152608083015260a08201526115e4604051809260a0809173ffffffffffffffffffffffffffffffffffffffff8151168452602081015160208501526040810151604085015260608101516060850152608081015160808501520151910152565bf35b3461026d57600060031936011261026d57610193805461160581613be0565b60005b815181101561168457828110156116555760019084600052807ffc8af01f449989052b52093a58fc9f42d0b11f0c6dd5dca0463dab62346ccc68015461164e8285613c3e565b5201611608565b7f4e487b7100000000000000000000000000000000000000000000000000000000600052603260045260246000fd5b6040516020808252819061169a90820185613614565b0390f35b3461026d57602060031936011261026d57602061121960043580600052610192835260406000209060c984526040600020549161474c565b3461026d57604060031936011261026d5760206112196004356116f76132d3565b9080600052610192845260406000209160c9855261171b6040600020549282613b3c565b926147a3565b3461026d57600060031936011261026d57602060ff603354166040519015158152f35b3461026d57608060031936011261026d5760043560248035906044359060ff821680920361026d5760643560ff811680910361026d57611782613dd4565b3360009081527fbc1f75e4c102f53298af8243d58783a2b220b757debb73933def796fbf8619ef60209081526040909120549093907fb62aeb2ef35a3718e51a7e8b0b0d8e6fa690a4037bf45dad308976da469a861c9060ff161561199157506040517fa4b186f800000000000000000000000000000000000000000000000000000000815286600482015284818581305afa90811561141357600091611964575b5061193457600052610191835260406000209060005282526040600020549083156118f15781156118ae5750916040917fc6bf85d136b95579125a47c9781847cacd55015777db8a853dd17946aed35fb2938560005261019282526001611892856000209285845585613ca5565b91019081556118a086613e24565b5054908351928352820152a2005b8260176064926040519262461bcd60e51b845260048401528201527f724e4f52493a206475726174696f6e206e6f74207365740000000000000000006044820152fd5b8260196064926040519262461bcd60e51b845260048401528201527f724e4f52493a20496e76616c69642073746172742074696d65000000000000006044820152fd5b8286604051907fde20885c0000000000000000000000000000000000000000000000000000000082526004820152fd5b6119849150853d871161198a575b61197c81836134ce565b810190614100565b87611824565b503d611972565b84849161199d33613cc3565b906040516119aa816134b2565b60428152838101916060368437815115611bb357603083538151600190811015611b8557607860218401536041905b808211611ad8575050611a96576048611a9293611a6793611a76936040519586937f416363657373436f6e74726f6c3a206163636f756e74200000000000000000008a860152611a32815180928c6037890191016132f6565b8401917f206973206d697373696e6720726f6c65200000000000000000000000000000006037840152518093868401906132f6565b010360288101845201826134ce565b60405193849362461bcd60e51b85526004850152830190613319565b0390fd5b606485856040519162461bcd60e51b83528160048401528201527f537472696e67733a20686578206c656e67746820696e73756666696369656e746044820152fd5b9091600f81166010811015611b57577f3031323334353637383961626364656600000000000000000000000000000000901a611b148486613cb2565b5360041c918015611b295760001901906119d9565b877f4e487b710000000000000000000000000000000000000000000000000000000060005260116004526000fd5b887f4e487b710000000000000000000000000000000000000000000000000000000060005260326004526000fd5b867f4e487b710000000000000000000000000000000000000000000000000000000060005260326004526000fd5b857f4e487b710000000000000000000000000000000000000000000000000000000060005260326004526000fd5b3461026d57602060031936011261026d5760043560005260c960205260206040600020541515604051908152f35b3461026d57604060031936011261026d5760043567ffffffffffffffff80821161026d573660238301121561026d57816004013590611c4d8261350f565b92611c5b60405194856134ce565b82845260209260248486019160051b8301019136831161026d57602401905b828210611d8b5750505060243590811161026d57611c9c903690600401613527565b8251815103611d2157611caf8351613be0565b9260005b8151811015611d0a5780611cf573ffffffffffffffffffffffffffffffffffffffff611ce2611d059486613c3e565b5116611cee8387613c3e565b5190613b3c565b611cff8288613c3e565b52613c2f565b611cb3565b50505061169a604051928284938452830190613614565b6084826040519062461bcd60e51b82526004820152602960248201527f455243313135353a206163636f756e747320616e6420696473206c656e67746860448201527f206d69736d6174636800000000000000000000000000000000000000000000006064820152fd5b813573ffffffffffffffffffffffffffffffffffffffff8116810361026d578152908401908401611c7a565b3461026d57606060031936011261026d5760243573ffffffffffffffffffffffffffffffffffffffff604435166044350361026d573360009081527f99141412ed334650e7ddced338199a5e4a820639cb8ffe2e1add19b576f2108160205260409020547f813b9efdf6afe6b57682eb1fb850711edc34da21ae7f7376cb7a391b1be3239f9060ff161561235757506024602073ffffffffffffffffffffffffffffffffffffffff6101965416604051928380927f3d932dfb00000000000000000000000000000000000000000000000000000000825260043560048301525afa90811561141357600091612325575b50806000526101926020526040600020916001830154156122f4578160005260c9602052611edb6040600020548385614820565b8082116122c35781156122bb5750905b6005830190604051938485602085549283815201809560005260206000209260005b8181106122a2575050611f22925003866134ce565b611f2c8551613be0565b9260005b8651811015611f775780611f668573ffffffffffffffffffffffffffffffffffffffff611f5f6001958c613c3e565b5116613b3c565b611f708288613c3e565b5201611f30565b50939492919094611f888451613be0565b92600080956002890154915b8151806000198101116122735760001901881015612067576120236120299173ffffffffffffffffffffffffffffffffffffffff611fd28b86613c3e565b51168c611fdf8c89613c3e565b51918a60005260c960205289611ffa6040600020548a613ca5565b928315801561205f575b1561202f5750505050506000905b8161201d8c8c613c3e565b52613ca5565b97613c2f565b96611f94565b61205994600761204f926120549560005201602052604060002054613ca5565b613c92565b61468b565b90612012565b508115612004565b8987878b612076899586613f47565b865160001981019081116122735761208e9085613c3e565b5260005b865181101561212757806120d573ffffffffffffffffffffffffffffffffffffffff6120c1612122948b613c3e565b5116856120ce8489613c3e565b5191614118565b6120df8186613c3e565b5173ffffffffffffffffffffffffffffffffffffffff6120ff838b613c3e565b51166000526008870160205261211b6040600020918254613ca5565b9055613c2f565b612092565b50949092600301612139858254613ca5565b9055604051906060820190858352606060208401525180915260808201959060005b818110612247576000602061221f898b8a8a7f4d641c2ca9261584e3de048c803a63d133b28387ab704ace681fd7b220094b528b8085036040820152806121a6600435964295613614565b0390a473ffffffffffffffffffffffffffffffffffffffff6101955416906040519485809481937fa9059cbb000000000000000000000000000000000000000000000000000000008352604435600484016020909392919373ffffffffffffffffffffffffffffffffffffffff60408201951681520152565b03925af180156114135761222f57005b61039f9060203d60201161198a5761197c81836134ce565b825173ffffffffffffffffffffffffffffffffffffffff1688526020978801979092019160010161215b565b7f4e487b7100000000000000000000000000000000000000000000000000000000600052601160045260246000fd5b845483526001948501948a945060209093019201611f0d565b905090611eeb565b602483604051907f610d28380000000000000000000000000000000000000000000000000000000082526004820152fd5b602482604051907f25f878170000000000000000000000000000000000000000000000000000000082526004820152fd5b90506020813d60201161234f575b81612340602093836134ce565b8101031261026d575182611ea7565b3d9150612333565b61236033613cc3565b6040519161236d836134b2565b60428352602083019060603683378351156116555760308253835160019081101561165557607860218601536041905b80821161245c575050612418576048611a67926123f892611a92956040519586937f416363657373436f6e74726f6c3a206163636f756e74200000000000000000006020860152611a328151809260206037890191016132f6565b60405191829162461bcd60e51b8352602060048401526024830190613319565b606460405162461bcd60e51b815260206004820152602060248201527f537472696e67733a20686578206c656e67746820696e73756666696369656e746044820152fd5b9091600f81166010811015611655577f3031323334353637383961626364656600000000000000000000000000000000901a6124988488613cb2565b5360041c91801561227357600019019061239d565b3461026d57600060031936011261026d57602073ffffffffffffffffffffffffffffffffffffffff6101955416604051908152f35b3461026d57600060031936011261026d576124fb613648565b60335460ff811615612558577fffffffffffffffffffffffffffffffffffffffffffffffffffffffffffffff00166033557f5db9ee0a495bf2e6ff9c91a7834c1ba4fdd244a5e8aa4e537bd38aeae4b073aa6020604051338152a1005b606460405162461bcd60e51b815260206004820152601460248201527f5061757361626c653a206e6f74207061757365640000000000000000000000006044820152fd5b3461026d57604060031936011261026d5760043573ffffffffffffffffffffffffffffffffffffffff6125cd6132d3565b163381036126845761039f916125e1613dd4565b8060005260fb60205260406000208260005260205260ff60406000205416612617575b60005261012d6020526040600020613f54565b8060005260fb60205260406000208260005260205260406000207fffffffffffffffffffffffffffffffffffffffffffffffffffffffffffffff0081541690553382827ff6391f5c32d9c69d2a47ea670b442974b53935d1edc7fd64eb21e047a839171b600080a4612604565b608460405162461bcd60e51b815260206004820152602f60248201527f416363657373436f6e74726f6c3a2063616e206f6e6c792072656e6f756e636560448201527f20726f6c657320666f722073656c6600000000000000000000000000000000006064820152fd5b3461026d57604060031936011261026d5761039f60043561012d6127106132d3565b918060005260209060fb825261272d6001604060002001546139cb565b612735613dd4565b8060005260fb825273ffffffffffffffffffffffffffffffffffffffff604060002094169384600052825260ff604060002054161561277d575b600052526040600020613ecf565b8060005260fb82526040600020846000528252604060002060017fffffffffffffffffffffffffffffffffffffffffffffffffffffffffffffff008254161790553384827f2f8788117e7eff1d82e926ec794901d17c78024a50270940304540a733656f0d600080a461276f565b3461026d5760a060031936011261026d576128046132b0565b5061280d6132d3565b5067ffffffffffffffff60443581811161026d5761282f903690600401613527565b5060643581811161026d57612848903690600401613527565b5060843590811161026d576102429036906004016135f6565b3461026d57602060031936011261026d5761169a61288060043561455d565b6040519182916020835260208301906133a3565b3461026d5760208060031936011261026d5760043567ffffffffffffffff811161026d576128c6903690600401613372565b6128cf8161350f565b916128dd60405193846134ce565b8183527fffffffffffffffffffffffffffffffffffffffffffffffffffffffffffffffe061290a8361350f565b018460005b8281106129d15750505060005b8281106129a3575050506040519082820192808352815180945260408301938160408260051b8601019301916000955b8287106129595785850386f35b909192938280612993837fffffffffffffffffffffffffffffffffffffffffffffffffffffffffffffffc08a6001960301865288516133a3565b960192019601959291909261294c565b806129b560019260051b84013561455d565b6129bf8287613c3e565b526129ca8186613c3e565b500161291c565b6129d9614520565b82828801015201859061290f565b3461026d57606060031936011261026d57612a006132b0565b612af9602435604435612a14818333614118565b81600052602093849261019284526007604060002060028101612a38868254613ca5565b9055336000520184526040600020612a51848254613ca5565b90556040519083825273ffffffffffffffffffffffffffffffffffffffff91828416907f8ac34c3804c4564545d611b14933b1585e198f9a8ce80f3d817a733ca7f87d37873392a461019554169060006040518096819582947fa9059cbb000000000000000000000000000000000000000000000000000000008452600484016020909392919373ffffffffffffffffffffffffffffffffffffffff60408201951681520152565b03925af1801561141357612b12575b5060405160018152f35b612b2890823d841161198a5761197c81836134ce565b5081612b08565b3461026d57602060031936011261026d5760043560005260fb6020526020600160406000200154604051908152f35b3461026d57600060031936011261026d5760206040517fb62aeb2ef35a3718e51a7e8b0b0d8e6fa690a4037bf45dad308976da469a861c8152f35b3461026d57612ba73661335c565b3360009081527f72f2994cda805697ff5940dc92bd4118d9d7058b657a897ee8a2023e4f67343460209081526040909120549092919060ff161561302157829173ffffffffffffffffffffffffffffffffffffffff80610196541692604051948580957f3d932dfb00000000000000000000000000000000000000000000000000000000825283600483015260249687915afa94851561141357600095612ff2575b50851c1660405193612c5a8561347a565b600085528115612f8957612c6d81614449565b93612c7784614449565b93612c80613dd4565b60005b8651811015612cc25780612c9a612cbd9288613c3e565b51612ca5828a613c3e565b5160005260c98b5261211b6040600020918254613ca5565b612c83565b508793945086836000526097855260406000208660005285526040600020612ceb838254613ca5565b905585600060405186815284888201527fc3d58168c5ae7397731d063d5bbf3d657854427343f4c083240f7aacaa2d0f6260403392a4853b612d42575b61039f866101928787600052526005604060002001613ecf565b84612d9b91604051809381927ff23a6e610000000000000000000000000000000000000000000000000000000096878452336004850152600089850152896044850152606484015260a0608484015260a4830190613319565b038160008a5af160009181612f31575b50612e925750506001600060033d11612e80575b6308c379a014612e4b575b612de2575061039f9291610192915b91819394612d28565b8260346084926040519262461bcd60e51b845260048401528201527f455243313135353a207472616e7366657220746f206e6f6e204552433131353560448201527f526563656976657220696d706c656d656e7465720000000000000000000000006064820152fd5b612e5361447f565b80612e5e5750612dca565b84611a92849260405193849362461bcd60e51b85526004850152830190613319565b5060046000803e60005160e01c612dbf565b7fffffffff000000000000000000000000000000000000000000000000000000001603612ec8575061039f929161019291612dd9565b8260286084926040519262461bcd60e51b845260048401528201527f455243313135353a204552433131353552656365697665722072656a6563746560448201527f6420746f6b656e730000000000000000000000000000000000000000000000006064820152fd5b9091508581813d8311612f82575b612f4981836134ce565b8101031261026d57517fffffffff000000000000000000000000000000000000000000000000000000008116810361026d579087612dab565b503d612f3f565b6084866021866040519262461bcd60e51b845260048401528201527f455243313135353a206d696e7420746f20746865207a65726f2061646472657360448201527f73000000000000000000000000000000000000000000000000000000000000006064820152fd5b9094508581813d831161301a575b61300a81836134ce565b8101031261026d57519386612c49565b503d613000565b60246040517ff78d2300000000000000000000000000000000000000000000000000000000008152336004820152fd5b3461026d5760208060031936011261026d57604051906000826099549161307783613ae9565b928383526001908582821691826000146131135750506001146130b6575b506130a2925003836134ce565b61169a604051928284938452830190613319565b84915060996000527f72a152ddfb8e864297c917af52ea6c1c68aead0fee1a62673fcc7e0c94979d00906000915b8583106130fb5750506130a2935082010185613095565b805483890185015287945086939092019181016130e4565b7fffffffffffffffffffffffffffffffffffffffffffffffffffffffffffffff0016858201526130a295151560051b85010192508791506130959050565b3461026d57602060031936011261026d576004357fffffffff00000000000000000000000000000000000000000000000000000000811680910361026d57807f5a05180f00000000000000000000000000000000000000000000000000000000602092149081156131c8575b506040519015158152f35b7f7965db0b000000000000000000000000000000000000000000000000000000008114915081156131fb575b50826131bd565b7fd9b67a260000000000000000000000000000000000000000000000000000000081149150811561325f575b8115613235575b50826131f4565b7f01ffc9a7000000000000000000000000000000000000000000000000000000009150148261322e565b7f0e89341c0000000000000000000000000000000000000000000000000000000081149150613227565b3461026d57604060031936011261026d5760206112196132a76132b0565b60243590613b3c565b6004359073ffffffffffffffffffffffffffffffffffffffff8216820361026d57565b6024359073ffffffffffffffffffffffffffffffffffffffff8216820361026d57565b60005b8381106133095750506000910152565b81810151838201526020016132f9565b907fffffffffffffffffffffffffffffffffffffffffffffffffffffffffffffffe0601f602093613355815180928187528780880191016132f6565b0116010190565b600319604091011261026d576004359060243590565b9181601f8401121561026d5782359167ffffffffffffffff831161026d576020808501948460051b01011161026d57565b9060e0906101009261012084830192825181526020948386809501518584015260408101516040840152606081015160608401526080810151608084015260a081015160a084015260c081015160c084015201519560e082015285518094520193019160005b828110613417575050505090565b835173ffffffffffffffffffffffffffffffffffffffff1685529381019392810192600101613409565b60c0810190811067ffffffffffffffff8211176110f757604052565b610100810190811067ffffffffffffffff8211176110f757604052565b6020810190811067ffffffffffffffff8211176110f757604052565b6060810190811067ffffffffffffffff8211176110f757604052565b6080810190811067ffffffffffffffff8211176110f757604052565b90601f7fffffffffffffffffffffffffffffffffffffffffffffffffffffffffffffffe0910116810190811067ffffffffffffffff8211176110f757604052565b67ffffffffffffffff81116110f75760051b60200190565b81601f8201121561026d5780359161353e8361350f565b9261354c60405194856134ce565b808452602092838086019260051b82010192831161026d578301905b828210613576575050505090565b81358152908301908301613568565b67ffffffffffffffff81116110f757601f017fffffffffffffffffffffffffffffffffffffffffffffffffffffffffffffffe01660200190565b9291926135cb82613585565b916135d960405193846134ce565b82948184528183011161026d578281602093846000960137010152565b9080601f8301121561026d57816020613611933591016135bf565b90565b90815180825260208080930193019160005b828110613634575050505090565b835185529381019392810192600101613626565b3360009081527fc81858b0fc5e8d7d2c7a341b4e13a62a27b51e1da1072bf5f7fee8fdef673e94602090815260408083205490927f65d7a28e3265b37a6474929f336521b332c1681b933f6cb9f3376673440d862a9160ff16156136ac5750505050565b6136b533613cc3565b918451906136c2826134b2565b6042825284820192606036853782511561386757603084538251906001918210156138675790607860218501536041915b8183116137ba57505050613778576048611a9293869361375c9361374d98519889937f416363657373436f6e74726f6c3a206163636f756e74200000000000000000008a860152611a32815180928c6037890191016132f6565b010360288101875201856134ce565b5192839262461bcd60e51b845260048401526024830190613319565b60648486519062461bcd60e51b825280600483015260248201527f537472696e67733a20686578206c656e67746820696e73756666696369656e746044820152fd5b909192600f8116601081101561383a577f3031323334353637383961626364656600000000000000000000000000000000901a6137f78587613cb2565b5360041c92801561380d576000190191906136f3565b6024827f4e487b710000000000000000000000000000000000000000000000000000000081526011600452fd5b6024837f4e487b710000000000000000000000000000000000000000000000000000000081526032600452fd5b807f4e487b7100000000000000000000000000000000000000000000000000000000602492526032600452fd5b3360009081527fc88390e7e62175be0932452175b6a7222b6b094ab0ef984a5153c620345d8975602090815260408083205490929060ff16156138d657505050565b6138df33613cc3565b90808451906138ed826134b2565b6042825284820192606036853782511561386757603084538251906001918210156138675790607860218501536041915b81831161397857505050613778576048611a9293869361375c9361374d98519889937f416363657373436f6e74726f6c3a206163636f756e74200000000000000000008a860152611a32815180928c6037890191016132f6565b909192600f8116601081101561383a577f3031323334353637383961626364656600000000000000000000000000000000901a6139b58587613cb2565b5360041c92801561380d5760001901919061391e565b60009080825260209060fb8252604092838120338252835260ff8482205416156139f55750505050565b6139fe33613cc3565b91845190613a0b826134b2565b6042825284820192606036853782511561386757603084538251906001918210156138675790607860218501536041915b818311613a9657505050613778576048611a9293869361375c9361374d98519889937f416363657373436f6e74726f6c3a206163636f756e74200000000000000000008a860152611a32815180928c6037890191016132f6565b909192600f8116601081101561383a577f3031323334353637383961626364656600000000000000000000000000000000901a613ad38587613cb2565b5360041c92801561380d57600019019190613a3c565b90600182811c92168015613b32575b6020831014613b0357565b7f4e487b7100000000000000000000000000000000000000000000000000000000600052602260045260246000fd5b91607f1691613af8565b73ffffffffffffffffffffffffffffffffffffffff16908115613b7657600052609760205260406000209060005260205260406000205490565b608460405162461bcd60e51b815260206004820152602a60248201527f455243313135353a2061646472657373207a65726f206973206e6f742061207660448201527f616c6964206f776e6572000000000000000000000000000000000000000000006064820152fd5b90613bea8261350f565b613bf760405191826134ce565b8281527fffffffffffffffffffffffffffffffffffffffffffffffffffffffffffffffe0613c25829461350f565b0190602036910137565b60001981146122735760010190565b80518210156116555760209160051b010190565b90919015613c5e575090565b815115613c6e5750805190602001fd5b611a929060405191829162461bcd60e51b8352602060048401526024830190613319565b8181029291811591840414171561227357565b9190820180921161227357565b908151811015611655570160200190565b60405190613cd082613496565b602a82526020820160403682378251156116555760309053815160019081101561165557607860218401536029905b808211613d0f5750506124185790565b9091600f81166010811015613d8e577f3031323334353637383961626364656600000000000000000000000000000000901a613d4b8486613cb2565b5360041c918015613d60576000190190613cff565b602460007f4e487b710000000000000000000000000000000000000000000000000000000081526011600452fd5b602460007f4e487b710000000000000000000000000000000000000000000000000000000081526032600452fd5b80548210156116555760005260206000200190600090565b60ff60335416613de057565b606460405162461bcd60e51b815260206004820152601060248201527f5061757361626c653a20706175736564000000000000000000000000000000006044820152fd5b906000918083526101949283602052604081205415600014613eca576101939384549468010000000000000000861015613e9d576001860180825586101561383a578360409495967ffc8af01f449989052b52093a58fc9f42d0b11f0c6dd5dca0463dab62346ccc680155549382526020522055600190565b6024837f4e487b710000000000000000000000000000000000000000000000000000000081526041600452fd5b925050565b91906001830160009082825280602052604082205415600014613f415784549468010000000000000000861015613e9d5783613f31613f18886001604098999a01855584613dbc565b819391549060031b600019811b9283911b169119161790565b9055549382526020522055600190565b50925050565b9190820391821161227357565b90600182019060009281845282602052604084205490811515600014614088576000199182810181811161405b5782549084820191821161402e57808203613ff9575b50505080548015613fcc57820191613faf8383613dbc565b909182549160031b1b191690555582526020526040812055600190565b6024867f4e487b710000000000000000000000000000000000000000000000000000000081526031600452fd5b614019614009613f189386613dbc565b90549060031b1c92839286613dbc565b90558652846020526040862055388080613f97565b6024887f4e487b710000000000000000000000000000000000000000000000000000000081526011600452fd5b6024877f4e487b710000000000000000000000000000000000000000000000000000000081526011600452fd5b5050505090565b1561409657565b608460405162461bcd60e51b815260206004820152602b60248201527f496e697469616c697a61626c653a20636f6e7472616374206973206e6f74206960448201527f6e697469616c697a696e670000000000000000000000000000000000000000006064820152fd5b9081602091031261026d5751801515810361026d5790565b92909173ffffffffffffffffffffffffffffffffffffffff84169182156143df5761414284614449565b61414b83614449565b9060409384519361415b8561347a565b6000809552614168613dd4565b33871496855b845181101561423a57886141828287613c3e565b5180895260209061019282528a8a20926141ba575b600193929160c9918b525260046141b18b8b2054836146c4565b9101550161416e565b8d6141e66141c8868c613c3e565b5191838d5260c985528d8d20546141df8583613b3c565b91876147a3565b1015614197578a517fe1b8b25f00000000000000000000000000000000000000000000000000000000815273ffffffffffffffffffffffffffffffffffffffff8f1660048201526024810191909152604490fd5b509294965092975095855b84518110156142fd576142588186613c3e565b51614263828b613c3e565b519080895260c96020818152898b205492848410614294578b5252878920919003905561428f90613c2f565b614245565b6084828c519062461bcd60e51b82526004820152602860248201527f455243313135353a206275726e20616d6f756e74206578636565647320746f7460448201527f616c537570706c790000000000000000000000000000000000000000000000006064820152fd5b5092509293949095508185526020609781528486208487528152848620548281106143775790828493928896958752609783528787208688528352038686205585519283528201527fc3d58168c5ae7397731d063d5bbf3d657854427343f4c083240f7aacaa2d0f62843392a4516143748161347a565b52565b60848287519062461bcd60e51b825260048201526024808201527f455243313135353a206275726e20616d6f756e7420657863656564732062616c60448201527f616e6365000000000000000000000000000000000000000000000000000000006064820152fd5b608460405162461bcd60e51b815260206004820152602360248201527f455243313135353a206275726e2066726f6d20746865207a65726f206164647260448201527f65737300000000000000000000000000000000000000000000000000000000006064820152fd5b604051906040820182811067ffffffffffffffff8211176110f75760405260018252602082016020368237825115611655575290565b600060443d106136115760405160031991823d016004833e815167ffffffffffffffff918282113d6024840111176144dd578184019485519384116144e5573d850101602084870101116144dd5750613611929101602001906134ce565b949350505050565b50949350505050565b604051906144fb82613441565b8160a06000918281528260208201528260408201528260608201528260808201520152565b6040519061452d8261345d565b606060e083600080825280602083015280604083015280848301528060808301528060a083015260c08201520152565b614565614520565b50806000526101926020526040600020600581019081546145858161350f565b9261459360405194856134ce565b8184527fffffffffffffffffffffffffffffffffffffffffffffffffffffffffffffffe06145c08361350f565b013660208601376145d082613be0565b9060005b83811061464457505050508260005260c96020526040600020549080549160018201549061460381878561474c565b9160036002850154940154946040519761461c8961345d565b8852602088015260408701526060860152608085015260a084015260c083015260e082015290565b8073ffffffffffffffffffffffffffffffffffffffff61466660019385613dbc565b90549060031b1c166146788289613c3e565b52876146848286613c3e565b52016145d4565b8115614695570490565b7f4e487b7100000000000000000000000000000000000000000000000000000000600052601260045260246000fd5b906004906000906001840154804210156000146146ff57506146eb91506002840154613ca5565b915b01548082106146fa575090565b905090565b61470b85548092613f47565b91814210600014614720575050505b916146ed565b61474793509061474161473a612054936002890154613ca5565b9142613f47565b90613c92565b61471a565b9190600183015415614772575090600261476961361193836146c4565b91015490613f47565b602490604051907f25f878170000000000000000000000000000000000000000000000000000000082526004820152fd5b90926147b3836002840154613ca5565b9060009082158015614818575b156147d057505050505050600090565b6147416148139461480d60406120549573ffffffffffffffffffffffffffffffffffffffff6136119b1681526007840160205220549788926146c4565b92613ca5565b613f47565b5080156147c0565b919060018301541561477257509061484982614843613611946002850154613ca5565b926146c4565b90613f4756fea26469706673582212204a9371090117935da92a3d4dd9f8c7801c784db84b3a71c603d50ca271b6c17c64736f6c63430008110033"
}