{
  "address": "0xA0AA8F34F39FaD26507187F43519de16a79A2040",
  "abi": [
    {
      "inputs": [],
      "stateMutability": "nonpayable",
      "type": "constructor"
    },
    {
      "inputs": [],
      "name": "FunctionDisabled",
      "type": "error"
    },
    {
      "inputs": [
        {
          "internalType": "address",
          "name": "account",
          "type": "address"
        },
        {
          "internalType": "uint256",
          "name": "scheduleId",
          "type": "uint256"
        }
      ],
      "name": "InsufficientClaimableBalance",
      "type": "error"
    },
    {
      "inputs": [
        {
          "internalType": "uint256",
          "name": "scheduleId",
          "type": "uint256"
        }
      ],
      "name": "InsufficientUnreleasedTokens",
      "type": "error"
    },
    {
      "inputs": [
        {
          "internalType": "address",
          "name": "account",
          "type": "address"
        }
      ],
      "name": "InvalidMinter",
      "type": "error"
    },
    {
      "inputs": [],
      "name": "InvalidZeroDuration",
      "type": "error"
    },
    {
      "inputs": [
        {
          "internalType": "uint256",
          "name": "scheduleId",
          "type": "uint256"
        }
      ],
      "name": "NonexistentSchedule",
      "type": "error"
    },
    {
      "inputs": [
        {
          "internalType": "uint256",
          "name": "scheduleId",
          "type": "uint256"
        }
      ],
      "name": "ScheduleExists",
      "type": "error"
    },
    {
      "inputs": [],
      "name": "SenderNotMarketContract",
      "type": "error"
    },
    {
      "anonymous": false,
      "inputs": [
        {
          "indexed": true,
          "internalType": "address",
          "name": "account",
          "type": "address"
        },
        {
          "indexed": true,
          "internalType": "address",
          "name": "operator",
          "type": "address"
        },
        {
          "indexed": false,
          "internalType": "bool",
          "name": "approved",
          "type": "bool"
        }
      ],
      "name": "ApprovalForAll",
      "type": "event"
    },
    {
      "anonymous": false,
      "inputs": [
        {
          "indexed": true,
          "internalType": "address",
          "name": "from",
          "type": "address"
        },
        {
          "indexed": true,
          "internalType": "address",
          "name": "to",
          "type": "address"
        },
        {
          "indexed": true,
          "internalType": "uint256",
          "name": "scheduleId",
          "type": "uint256"
        },
        {
          "indexed": false,
          "internalType": "uint256",
          "name": "quantity",
          "type": "uint256"
        }
      ],
      "name": "ClaimTokens",
      "type": "event"
    },
    {
      "anonymous": false,
      "inputs": [
        {
          "indexed": false,
          "internalType": "uint8",
          "name": "version",
          "type": "uint8"
        }
      ],
      "name": "Initialized",
      "type": "event"
    },
    {
      "anonymous": false,
      "inputs": [
        {
          "indexed": false,
          "internalType": "address",
          "name": "account",
          "type": "address"
        }
      ],
      "name": "Paused",
      "type": "event"
    },
    {
      "anonymous": false,
      "inputs": [
        {
          "indexed": true,
          "internalType": "uint256",
          "name": "atTime",
          "type": "uint256"
        },
        {
          "indexed": true,
          "internalType": "uint256",
          "name": "scheduleId",
          "type": "uint256"
        },
        {
          "indexed": true,
          "internalType": "uint256",
          "name": "removalId",
          "type": "uint256"
        },
        {
          "indexed": false,
          "internalType": "uint256",
          "name": "quantity",
          "type": "uint256"
        },
        {
          "indexed": false,
          "internalType": "address[]",
          "name": "scheduleOwners",
          "type": "address[]"
        },
        {
          "indexed": false,
          "internalType": "uint256[]",
          "name": "quantitiesBurned",
          "type": "uint256[]"
        }
      ],
      "name": "RevokeTokens",
      "type": "event"
    },
    {
      "anonymous": false,
      "inputs": [
        {
          "indexed": true,
          "internalType": "bytes32",
          "name": "role",
          "type": "bytes32"
        },
        {
          "indexed": true,
          "internalType": "bytes32",
          "name": "previousAdminRole",
          "type": "bytes32"
        },
        {
          "indexed": true,
          "internalType": "bytes32",
          "name": "newAdminRole",
          "type": "bytes32"
        }
      ],
      "name": "RoleAdminChanged",
      "type": "event"
    },
    {
      "anonymous": false,
      "inputs": [
        {
          "indexed": true,
          "internalType": "bytes32",
          "name": "role",
          "type": "bytes32"
        },
        {
          "indexed": true,
          "internalType": "address",
          "name": "account",
          "type": "address"
        },
        {
          "indexed": true,
          "internalType": "address",
          "name": "sender",
          "type": "address"
        }
      ],
      "name": "RoleGranted",
      "type": "event"
    },
    {
      "anonymous": false,
      "inputs": [
        {
          "indexed": true,
          "internalType": "bytes32",
          "name": "role",
          "type": "bytes32"
        },
        {
          "indexed": true,
          "internalType": "address",
          "name": "account",
          "type": "address"
        },
        {
          "indexed": true,
          "internalType": "address",
          "name": "sender",
          "type": "address"
        }
      ],
      "name": "RoleRevoked",
      "type": "event"
    },
    {
      "anonymous": false,
      "inputs": [
        {
          "indexed": true,
          "internalType": "uint256",
          "name": "projectId",
          "type": "uint256"
        },
        {
          "indexed": false,
          "internalType": "uint256",
          "name": "startTime",
          "type": "uint256"
        },
        {
          "indexed": false,
          "internalType": "uint256",
          "name": "endTime",
          "type": "uint256"
        }
      ],
      "name": "ScheduleCreated",
      "type": "event"
    },
    {
      "anonymous": false,
      "inputs": [
        {
          "indexed": true,
          "internalType": "address",
          "name": "operator",
          "type": "address"
        },
        {
          "indexed": true,
          "internalType": "address",
          "name": "from",
          "type": "address"
        },
        {
          "indexed": true,
          "internalType": "address",
          "name": "to",
          "type": "address"
        },
        {
          "indexed": false,
          "internalType": "uint256[]",
          "name": "ids",
          "type": "uint256[]"
        },
        {
          "indexed": false,
          "internalType": "uint256[]",
          "name": "values",
          "type": "uint256[]"
        }
      ],
      "name": "TransferBatch",
      "type": "event"
    },
    {
      "anonymous": false,
      "inputs": [
        {
          "indexed": true,
          "internalType": "address",
          "name": "operator",
          "type": "address"
        },
        {
          "indexed": true,
          "internalType": "address",
          "name": "from",
          "type": "address"
        },
        {
          "indexed": true,
          "internalType": "address",
          "name": "to",
          "type": "address"
        },
        {
          "indexed": false,
          "internalType": "uint256",
          "name": "id",
          "type": "uint256"
        },
        {
          "indexed": false,
          "internalType": "uint256",
          "name": "value",
          "type": "uint256"
        }
      ],
      "name": "TransferSingle",
      "type": "event"
    },
    {
      "anonymous": false,
      "inputs": [
        {
          "indexed": false,
          "internalType": "string",
          "name": "value",
          "type": "string"
        },
        {
          "indexed": true,
          "internalType": "uint256",
          "name": "id",
          "type": "uint256"
        }
      ],
      "name": "URI",
      "type": "event"
    },
    {
      "anonymous": false,
      "inputs": [
        {
          "indexed": false,
          "internalType": "address",
          "name": "account",
          "type": "address"
        }
      ],
      "name": "Unpaused",
      "type": "event"
    },
    {
      "inputs": [],
      "name": "DEFAULT_ADMIN_ROLE",
      "outputs": [
        {
          "internalType": "bytes32",
          "name": "",
          "type": "bytes32"
        }
      ],
      "stateMutability": "view",
      "type": "function"
    },
    {
      "inputs": [],
      "name": "MINTER_ROLE",
      "outputs": [
        {
          "internalType": "bytes32",
          "name": "",
          "type": "bytes32"
        }
      ],
      "stateMutability": "view",
      "type": "function"
    },
    {
      "inputs": [],
      "name": "PAUSER_ROLE",
      "outputs": [
        {
          "internalType": "bytes32",
          "name": "",
          "type": "bytes32"
        }
      ],
      "stateMutability": "view",
      "type": "function"
    },
    {
      "inputs": [],
      "name": "SCHEDULE_CREATOR_ROLE",
      "outputs": [
        {
          "internalType": "bytes32",
          "name": "",
          "type": "bytes32"
        }
      ],
      "stateMutability": "view",
      "type": "function"
    },
    {
      "inputs": [],
      "name": "TOKEN_REVOKER_ROLE",
      "outputs": [
        {
          "internalType": "bytes32",
          "name": "",
          "type": "bytes32"
        }
      ],
      "stateMutability": "view",
      "type": "function"
    },
    {
      "inputs": [
        {
          "internalType": "address",
          "name": "account",
          "type": "address"
        },
        {
          "internalType": "uint256",
          "name": "id",
          "type": "uint256"
        }
      ],
      "name": "balanceOf",
      "outputs": [
        {
          "internalType": "uint256",
          "name": "",
          "type": "uint256"
        }
      ],
      "stateMutability": "view",
      "type": "function"
    },
    {
      "inputs": [
        {
          "internalType": "address[]",
          "name": "accounts",
          "type": "address[]"
        },
        {
          "internalType": "uint256[]",
          "name": "ids",
          "type": "uint256[]"
        }
      ],
      "name": "balanceOfBatch",
      "outputs": [
        {
          "internalType": "uint256[]",
          "name": "",
          "type": "uint256[]"
        }
      ],
      "stateMutability": "view",
      "type": "function"
    },
    {
      "inputs": [
        {
          "internalType": "address",
          "name": "account",
          "type": "address"
        },
        {
          "internalType": "uint256[]",
          "name": "scheduleIds",
          "type": "uint256[]"
        }
      ],
      "name": "batchGetScheduleDetailsForAccount",
      "outputs": [
        {
          "components": [
            {
              "internalType": "address",
              "name": "tokenHolder",
              "type": "address"
            },
            {
              "internalType": "uint256",
              "name": "scheduleTokenId",
              "type": "uint256"
            },
            {
              "internalType": "uint256",
              "name": "balance",
              "type": "uint256"
            },
            {
              "internalType": "uint256",
              "name": "claimableAmount",
              "type": "uint256"
            },
            {
              "internalType": "uint256",
              "name": "claimedAmount",
              "type": "uint256"
            },
            {
              "internalType": "uint256",
              "name": "quantityRevoked",
              "type": "uint256"
            }
          ],
          "internalType": "struct ScheduleDetailForAddress[]",
          "name": "",
          "type": "tuple[]"
        }
      ],
      "stateMutability": "view",
      "type": "function"
    },
    {
      "inputs": [
        {
          "internalType": "uint256[]",
          "name": "scheduleIds",
          "type": "uint256[]"
        }
      ],
      "name": "batchGetScheduleSummaries",
      "outputs": [
        {
          "components": [
            {
              "internalType": "uint256",
              "name": "scheduleTokenId",
              "type": "uint256"
            },
            {
              "internalType": "uint256",
              "name": "startTime",
              "type": "uint256"
            },
            {
              "internalType": "uint256",
              "name": "endTime",
              "type": "uint256"
            },
            {
              "internalType": "uint256",
              "name": "totalSupply",
              "type": "uint256"
            },
            {
              "internalType": "uint256",
              "name": "totalClaimableAmount",
              "type": "uint256"
            },
            {
              "internalType": "uint256",
              "name": "totalClaimedAmount",
              "type": "uint256"
            },
            {
              "internalType": "uint256",
              "name": "totalQuantityRevoked",
              "type": "uint256"
            },
            {
              "internalType": "address[]",
              "name": "tokenHolders",
              "type": "address[]"
            }
          ],
          "internalType": "struct ScheduleSummary[]",
          "name": "",
          "type": "tuple[]"
        }
      ],
      "stateMutability": "view",
      "type": "function"
    },
    {
      "inputs": [
        {
          "internalType": "uint256",
          "name": "scheduleId",
          "type": "uint256"
        }
      ],
      "name": "claimableBalanceForSchedule",
      "outputs": [
        {
          "internalType": "uint256",
          "name": "",
          "type": "uint256"
        }
      ],
      "stateMutability": "view",
      "type": "function"
    },
    {
      "inputs": [
        {
          "internalType": "uint256",
          "name": "scheduleId",
          "type": "uint256"
        },
        {
          "internalType": "address",
          "name": "account",
          "type": "address"
        }
      ],
      "name": "claimableBalanceForScheduleForAccount",
      "outputs": [
        {
          "internalType": "uint256",
          "name": "",
          "type": "uint256"
        }
      ],
      "stateMutability": "view",
      "type": "function"
    },
    {
      "inputs": [
        {
          "internalType": "uint256",
          "name": "projectId",
          "type": "uint256"
        },
        {
          "internalType": "uint256",
          "name": "startTime",
          "type": "uint256"
        },
        {
          "internalType": "uint8",
          "name": "methodology",
          "type": "uint8"
        },
        {
          "internalType": "uint8",
          "name": "methodologyVersion",
          "type": "uint8"
        }
      ],
      "name": "createSchedule",
      "outputs": [],
      "stateMutability": "nonpayable",
      "type": "function"
    },
    {
      "inputs": [
        {
          "internalType": "uint256",
          "name": "id",
          "type": "uint256"
        }
      ],
      "name": "exists",
      "outputs": [
        {
          "internalType": "bool",
          "name": "",
          "type": "bool"
        }
      ],
      "stateMutability": "view",
      "type": "function"
    },
    {
      "inputs": [],
      "name": "getAllScheduleIds",
      "outputs": [
        {
          "internalType": "uint256[]",
          "name": "",
          "type": "uint256[]"
        }
      ],
      "stateMutability": "view",
      "type": "function"
    },
    {
      "inputs": [
        {
          "internalType": "address",
          "name": "originalSupplier",
          "type": "address"
        }
      ],
      "name": "getDeficitForAddress",
      "outputs": [
        {
          "internalType": "uint256",
          "name": "",
          "type": "uint256"
        }
      ],
      "stateMutability": "view",
      "type": "function"
    },
    {
      "inputs": [
        {
          "internalType": "uint256",
          "name": "methodology",
          "type": "uint256"
        },
        {
          "internalType": "uint256",
          "name": "methodologyVersion",
          "type": "uint256"
        }
      ],
      "name": "getRestrictionDurationForMethodologyAndVersion",
      "outputs": [
        {
          "internalType": "uint256",
          "name": "",
          "type": "uint256"
        }
      ],
      "stateMutability": "view",
      "type": "function"
    },
    {
      "inputs": [
        {
          "internalType": "bytes32",
          "name": "role",
          "type": "bytes32"
        }
      ],
      "name": "getRoleAdmin",
      "outputs": [
        {
          "internalType": "bytes32",
          "name": "",
          "type": "bytes32"
        }
      ],
      "stateMutability": "view",
      "type": "function"
    },
    {
      "inputs": [
        {
          "internalType": "bytes32",
          "name": "role",
          "type": "bytes32"
        },
        {
          "internalType": "uint256",
          "name": "index",
          "type": "uint256"
        }
      ],
      "name": "getRoleMember",
      "outputs": [
        {
          "internalType": "address",
          "name": "",
          "type": "address"
        }
      ],
      "stateMutability": "view",
      "type": "function"
    },
    {
      "inputs": [
        {
          "internalType": "bytes32",
          "name": "role",
          "type": "bytes32"
        }
      ],
      "name": "getRoleMemberCount",
      "outputs": [
        {
          "internalType": "uint256",
          "name": "",
          "type": "uint256"
        }
      ],
      "stateMutability": "view",
      "type": "function"
    },
    {
      "inputs": [
        {
          "internalType": "address",
          "name": "account",
          "type": "address"
        },
        {
          "internalType": "uint256",
          "name": "scheduleId",
          "type": "uint256"
        }
      ],
      "name": "getScheduleDetailForAccount",
      "outputs": [
        {
          "components": [
            {
              "internalType": "address",
              "name": "tokenHolder",
              "type": "address"
            },
            {
              "internalType": "uint256",
              "name": "scheduleTokenId",
              "type": "uint256"
            },
            {
              "internalType": "uint256",
              "name": "balance",
              "type": "uint256"
            },
            {
              "internalType": "uint256",
              "name": "claimableAmount",
              "type": "uint256"
            },
            {
              "internalType": "uint256",
              "name": "claimedAmount",
              "type": "uint256"
            },
            {
              "internalType": "uint256",
              "name": "quantityRevoked",
              "type": "uint256"
            }
          ],
          "internalType": "struct ScheduleDetailForAddress",
          "name": "",
          "type": "tuple"
        }
      ],
      "stateMutability": "view",
      "type": "function"
    },
    {
      "inputs": [
        {
          "internalType": "uint256",
          "name": "scheduleId",
          "type": "uint256"
        }
      ],
      "name": "getScheduleSummary",
      "outputs": [
        {
          "components": [
            {
              "internalType": "uint256",
              "name": "scheduleTokenId",
              "type": "uint256"
            },
            {
              "internalType": "uint256",
              "name": "startTime",
              "type": "uint256"
            },
            {
              "internalType": "uint256",
              "name": "endTime",
              "type": "uint256"
            },
            {
              "internalType": "uint256",
              "name": "totalSupply",
              "type": "uint256"
            },
            {
              "internalType": "uint256",
              "name": "totalClaimableAmount",
              "type": "uint256"
            },
            {
              "internalType": "uint256",
              "name": "totalClaimedAmount",
              "type": "uint256"
            },
            {
              "internalType": "uint256",
              "name": "totalQuantityRevoked",
              "type": "uint256"
            },
            {
              "internalType": "address[]",
              "name": "tokenHolders",
              "type": "address[]"
            }
          ],
          "internalType": "struct ScheduleSummary",
          "name": "",
          "type": "tuple"
        }
      ],
      "stateMutability": "view",
      "type": "function"
    },
    {
      "inputs": [],
      "name": "getUnderlyingTokenAddress",
      "outputs": [
        {
          "internalType": "address",
          "name": "",
          "type": "address"
        }
      ],
      "stateMutability": "view",
      "type": "function"
    },
    {
      "inputs": [
        {
          "internalType": "bytes32",
          "name": "role",
          "type": "bytes32"
        },
        {
          "internalType": "address",
          "name": "account",
          "type": "address"
        }
      ],
      "name": "grantRole",
      "outputs": [],
      "stateMutability": "nonpayable",
      "type": "function"
    },
    {
      "inputs": [
        {
          "internalType": "bytes32",
          "name": "role",
          "type": "bytes32"
        },
        {
          "internalType": "address",
          "name": "account",
          "type": "address"
        }
      ],
      "name": "hasRole",
      "outputs": [
        {
          "internalType": "bool",
          "name": "",
          "type": "bool"
        }
      ],
      "stateMutability": "view",
      "type": "function"
    },
    {
      "inputs": [
        {
          "internalType": "address",
          "name": "originalSupplier",
          "type": "address"
        },
        {
          "internalType": "uint256",
          "name": "amount",
          "type": "uint256"
        }
      ],
      "name": "incrementDeficitForSupplier",
      "outputs": [],
      "stateMutability": "nonpayable",
      "type": "function"
    },
    {
      "inputs": [],
      "name": "initialize",
      "outputs": [],
      "stateMutability": "nonpayable",
      "type": "function"
    },
    {
      "inputs": [
        {
          "internalType": "address",
          "name": "account",
          "type": "address"
        },
        {
          "internalType": "address",
          "name": "operator",
          "type": "address"
        }
      ],
      "name": "isApprovedForAll",
      "outputs": [
        {
          "internalType": "bool",
          "name": "",
          "type": "bool"
        }
      ],
      "stateMutability": "view",
      "type": "function"
    },
    {
      "inputs": [
        {
          "internalType": "uint256",
          "name": "amount",
          "type": "uint256"
        },
        {
          "internalType": "uint256",
          "name": "removalId",
          "type": "uint256"
        }
      ],
      "name": "mint",
      "outputs": [],
      "stateMutability": "nonpayable",
      "type": "function"
    },
    {
      "inputs": [
        {
          "internalType": "bytes[]",
          "name": "data",
          "type": "bytes[]"
        }
      ],
      "name": "multicall",
      "outputs": [
        {
          "internalType": "bytes[]",
          "name": "results",
          "type": "bytes[]"
        }
      ],
      "stateMutability": "nonpayable",
      "type": "function"
    },
    {
      "inputs": [],
      "name": "pause",
      "outputs": [],
      "stateMutability": "nonpayable",
      "type": "function"
    },
    {
      "inputs": [],
      "name": "paused",
      "outputs": [
        {
          "internalType": "bool",
          "name": "",
          "type": "bool"
        }
      ],
      "stateMutability": "view",
      "type": "function"
    },
    {
      "inputs": [
        {
          "internalType": "contract IERC20WithPermit",
          "name": "wrappedToken",
          "type": "address"
        },
        {
          "internalType": "contract IRemoval",
          "name": "removal",
          "type": "address"
        },
        {
          "internalType": "contract IMarket",
          "name": "market",
          "type": "address"
        }
      ],
      "name": "registerContractAddresses",
      "outputs": [],
      "stateMutability": "nonpayable",
      "type": "function"
    },
    {
      "inputs": [
        {
          "internalType": "bytes32",
          "name": "role",
          "type": "bytes32"
        },
        {
          "internalType": "address",
          "name": "account",
          "type": "address"
        }
      ],
      "name": "renounceRole",
      "outputs": [],
      "stateMutability": "nonpayable",
      "type": "function"
    },
    {
      "inputs": [
        {
          "internalType": "uint256",
          "name": "scheduleId",
          "type": "uint256"
        }
      ],
      "name": "revocableQuantityForSchedule",
      "outputs": [
        {
          "internalType": "uint256",
          "name": "",
          "type": "uint256"
        }
      ],
      "stateMutability": "view",
      "type": "function"
    },
    {
      "inputs": [
        {
          "internalType": "bytes32",
          "name": "role",
          "type": "bytes32"
        },
        {
          "internalType": "address",
          "name": "account",
          "type": "address"
        }
      ],
      "name": "revokeRole",
      "outputs": [],
      "stateMutability": "nonpayable",
      "type": "function"
    },
    {
      "inputs": [
        {
          "internalType": "uint256",
          "name": "removalId",
          "type": "uint256"
        },
        {
          "internalType": "uint256",
          "name": "amount",
          "type": "uint256"
        },
        {
          "internalType": "address",
          "name": "toAccount",
          "type": "address"
        }
      ],
      "name": "revokeUnreleasedTokens",
      "outputs": [],
      "stateMutability": "nonpayable",
      "type": "function"
    },
    {
      "inputs": [
        {
          "internalType": "address",
          "name": "",
          "type": "address"
        },
        {
          "internalType": "address",
          "name": "",
          "type": "address"
        },
        {
          "internalType": "uint256[]",
          "name": "",
          "type": "uint256[]"
        },
        {
          "internalType": "uint256[]",
          "name": "",
          "type": "uint256[]"
        },
        {
          "internalType": "bytes",
          "name": "",
          "type": "bytes"
        }
      ],
      "name": "safeBatchTransferFrom",
      "outputs": [],
      "stateMutability": "pure",
      "type": "function"
    },
    {
      "inputs": [
        {
          "internalType": "address",
          "name": "",
          "type": "address"
        },
        {
          "internalType": "address",
          "name": "",
          "type": "address"
        },
        {
          "internalType": "uint256",
          "name": "",
          "type": "uint256"
        },
        {
          "internalType": "uint256",
          "name": "",
          "type": "uint256"
        },
        {
          "internalType": "bytes",
          "name": "",
          "type": "bytes"
        }
      ],
      "name": "safeTransferFrom",
      "outputs": [],
      "stateMutability": "pure",
      "type": "function"
    },
    {
      "inputs": [
        {
          "internalType": "uint256",
          "name": "scheduleId",
          "type": "uint256"
        }
      ],
      "name": "scheduleExists",
      "outputs": [
        {
          "internalType": "bool",
          "name": "",
          "type": "bool"
        }
      ],
      "stateMutability": "view",
      "type": "function"
    },
    {
      "inputs": [
        {
          "internalType": "address",
          "name": "operator",
          "type": "address"
        },
        {
          "internalType": "bool",
          "name": "approved",
          "type": "bool"
        }
      ],
      "name": "setApprovalForAll",
      "outputs": [],
      "stateMutability": "nonpayable",
      "type": "function"
    },
    {
      "inputs": [
        {
          "internalType": "uint256",
          "name": "methodology",
          "type": "uint256"
        },
        {
          "internalType": "uint256",
          "name": "methodologyVersion",
          "type": "uint256"
        },
        {
          "internalType": "uint256",
          "name": "durationInSeconds",
          "type": "uint256"
        }
      ],
      "name": "setRestrictionDurationForMethodologyAndVersion",
      "outputs": [],
      "stateMutability": "nonpayable",
      "type": "function"
    },
    {
      "inputs": [
        {
          "internalType": "bytes4",
          "name": "interfaceId",
          "type": "bytes4"
        }
      ],
      "name": "supportsInterface",
      "outputs": [
        {
          "internalType": "bool",
          "name": "",
          "type": "bool"
        }
      ],
      "stateMutability": "view",
      "type": "function"
    },
    {
      "inputs": [
        {
          "internalType": "uint256",
          "name": "id",
          "type": "uint256"
        }
      ],
      "name": "totalSupply",
      "outputs": [
        {
          "internalType": "uint256",
          "name": "",
          "type": "uint256"
        }
      ],
      "stateMutability": "view",
      "type": "function"
    },
    {
      "inputs": [],
      "name": "unpause",
      "outputs": [],
      "stateMutability": "nonpayable",
      "type": "function"
    },
    {
      "inputs": [
        {
          "internalType": "uint256",
          "name": "",
          "type": "uint256"
        }
      ],
      "name": "uri",
      "outputs": [
        {
          "internalType": "string",
          "name": "",
          "type": "string"
        }
      ],
      "stateMutability": "view",
      "type": "function"
    },
    {
      "inputs": [
        {
          "internalType": "address",
          "name": "recipient",
          "type": "address"
        },
        {
          "internalType": "uint256",
          "name": "scheduleId",
          "type": "uint256"
        },
        {
          "internalType": "uint256",
          "name": "amount",
          "type": "uint256"
        }
      ],
      "name": "withdrawFromSchedule",
      "outputs": [
        {
          "internalType": "bool",
          "name": "",
          "type": "bool"
        }
      ],
      "stateMutability": "nonpayable",
      "type": "function"
    }
  ],
  "numDeployments": 8,
  "bytecode": "0x60808060405234620000c6576000549060ff8260081c1662000074575060ff8082161062000038575b6040516149809081620000cc8239f35b60ff90811916176000557f7f26b83ff96e1f2b6a682f133852f6798a09c465da95921460cefb3847402498602060405160ff8152a13862000028565b62461bcd60e51b815260206004820152602760248201527f496e697469616c697a61626c653a20636f6e747261637420697320696e697469604482015266616c697a696e6760c81b6064820152608490fd5b600080fdfe6080604052600436101561001257600080fd5b60003560e01c8062fdd58e1461338457806301ffc9a71461324c5780630e89341c1461314c5780631b2ef1ca14612c94578063229afd6114612c59578063248a9ca314612c2a57806327ca0c2714612ae25780632d9f0f161461298f5780632e5e8d831461295c5780632eb2c2d6146128e65780632f2ff15d146127e957806336568abe146126975780633f4ba83a146125dd578063440f5fd2146125a857806346dbd53514611eb25780634e1273f414611d0a5780634f558e7914611cdc57806355135b671461183f5780635c975abb1461181c5780635d37165a146117d15780636235a4e91461179957806363343346146116e1578063639aa0ad146115c65780636a00f9eb1461131c578063713279b1146112dc5780638129fc1c14610c4b5780638456cb5914610bd35780639010d07c14610b7f57806391d1485414610b245780639ac7b44d14610af0578063a217fddf14610ad4578063a22cb465146109b2578063a4b186f814610980578063ac9650d8146106db578063b886fa7314610693578063b8b4dbe014610658578063bd85b0391461062c578063c1499fa8146105b3578063c309f8e11461052e578063ca15c87314610501578063d5391393146104c6578063d547741f146103cb578063e63ab1e914610390578063e6e0a038146102ec578063e985e9c5146102885763f242432a1461021557600080fd5b346102835760a06003193601126102835761022e6133ab565b506102376133ce565b5060843567ffffffffffffffff8111610283576102589036906004016136f1565b5060046040517fbf241488000000000000000000000000000000000000000000000000000000008152fd5b600080fd5b34610283576040600319360112610283576102a16133ab565b6102a96133ce565b9073ffffffffffffffffffffffffffffffffffffffff809116600052609860205260406000209116600052602052602060ff604060002054166040519015158152f35b346102835760606003193601126102835760043573ffffffffffffffffffffffffffffffffffffffff808216809203610283576024358181168091036102835760443591821680920361028357610341613ecf565b61034961398f565b7fffffffffffffffffffffffff0000000000000000000000000000000000000000926101969084825416179055610197908382541617905561019891825416179055600080f35b346102835760006003193601126102835760206040517f65d7a28e3265b37a6474929f336521b332c1681b933f6cb9f3376673440d862a8152f35b346102835760406003193601126102835761045960043561012d6103ed6133ce565b918060005260209060fb825261040a600160406000200154613ac6565b610412613ecf565b8060005260fb825273ffffffffffffffffffffffffffffffffffffffff604060002094169384600052825260ff6040600020541661045b575b60005252604060002061404f565b005b8060005260fb8252604060002084600052825260406000207fffffffffffffffffffffffffffffffffffffffffffffffffffffffffffffff0081541690553384827ff6391f5c32d9c69d2a47ea670b442974b53935d1edc7fd64eb21e047a839171b600080a461044b565b346102835760006003193601126102835760206040517f9f2df0fed2c77648de5860a4cc508cd0818c85b8b8a1ab4ceeef8d981c8956a68152f35b346102835760206003193601126102835760043560005261012d6020526020604060002054604051908152f35b34610283576040600319360112610283576105476133ab565b73ffffffffffffffffffffffffffffffffffffffff908161019854163303610589571660005261019160205260406000206105856024358254613da0565b9055005b60046040517f9cd03492000000000000000000000000000000000000000000000000000000008152fd5b34610283576060600319360112610283576044356105cf613ecf565b6105d761398f565b8015610602576004356000526101926020526040600020602435600052602052604060002055600080f35b60046040517f98eb4124000000000000000000000000000000000000000000000000000000008152fd5b346102835760206003193601126102835760043560005260c96020526020604060002054604051908152f35b346102835760006003193601126102835760206040517f813b9efdf6afe6b57682eb1fb850711edc34da21ae7f7376cb7a391b1be3239f8152f35b346102835760206003193601126102835773ffffffffffffffffffffffffffffffffffffffff6106c16133ab565b166000526101916020526020604060002054604051908152f35b34610283576020806003193601126102835767ffffffffffffffff6004358181116102835761070e90369060040161346d565b916107188361360a565b9161072660405193846135c9565b8383527fffffffffffffffffffffffffffffffffffffffffffffffffffffffffffffffe06107538561360a565b018560005b8281106109715750505060005b8481106107e857604080518781528551818901819052600092600582901b8301810191888b01918b9085015b82871061079e5785850386f35b9091929382806107d8837fffffffffffffffffffffffffffffffffffffffffffffffffffffffffffffffc08a600196030186528851613414565b9601920196019592919092610791565b8060051b8201357fffffffffffffffffffffffffffffffffffffffffffffffffffffffffffffffe18336030181121561028357820180359084821161028357870181360381136102835761083d9136916136ba565b303b1561090757906108e0600080848a6108fb96519101305af43d15610900573d61086781613680565b9061087560405192836135c9565b81523d60008b83013e5b6040519161088c83613591565b602783527f416464726573733a206c6f772d6c6576656c2064656c65676174652063616c6c8b8401527f206661696c6564000000000000000000000000000000000000000000000000006040840152613d4d565b6108ea8287613d39565b526108f58186613d39565b50613d2a565b610765565b606061087f565b6084876040519062461bcd60e51b82526004820152602660248201527f416464726573733a2064656c65676174652063616c6c20746f206e6f6e2d636f60448201527f6e747261637400000000000000000000000000000000000000000000000000006064820152fd5b60608682018301528101610758565b346102835760206003193601126102835760043560005261019360205260206001604060002001541515604051908152f35b34610283576040600319360112610283576109cb6133ab565b602435908115158092036102835773ffffffffffffffffffffffffffffffffffffffff1690813314610a6a5733600052609860205260406000208260005260205260406000207fffffffffffffffffffffffffffffffffffffffffffffffffffffffffffffff0081541660ff83161790556040519081527f17307eab39ab6107e8899845ad3d59bd9653f200f220920489ca2b5937696c3160203392a3005b608460405162461bcd60e51b815260206004820152602960248201527f455243313135353a2073657474696e6720617070726f76616c2073746174757360448201527f20666f722073656c6600000000000000000000000000000000000000000000006064820152fd5b3461028357600060031936011261028357602060405160008152f35b3461028357610afe36613457565b906000526101926020526040600020906000526020526020604060002054604051908152f35b3461028357604060031936011261028357610b3d6133ce565b60043560005260fb60205273ffffffffffffffffffffffffffffffffffffffff60406000209116600052602052602060ff604060002054166040519015158152f35b346102835760406003193601126102835760043560005261012d602052602073ffffffffffffffffffffffffffffffffffffffff610bc36024356040600020613eb7565b9190546040519260031b1c168152f35b3461028357600060031936011261028357610bec613743565b610bf4613ecf565b60017fffffffffffffffffffffffffffffffffffffffffffffffffffffffffffffff0060335416176033557f62e78cea01bee320cd4e420270b5ea74000d11b0c9f74754ebdbfc544b05a2586020604051338152a1005b346102835760006003193601126102835760005460ff808260081c16158080916112d0575b80156112ba575b15611250576001927fffffffffffffffffffffffffffffffffffffffffffffffffffffffffffffff0090828583831617600055611221575b5060405192610cbd84613591565b603284526020937f68747470733a2f2f6e6f72692e636f6d2f6170692f7265737472696374696f6e858201527f7363686564756c652f7b69647d2e6a736f6e00000000000000000000000000006040820152610d1f8260005460081c1661418a565b80519067ffffffffffffffff82116111f2578190610d3e609954613be4565b601f8111611181575b508690601f83116001146110e3576000926110d8575b505060001982881b9260031b1c1916176099555b610dbf8160005460081c16610d858161418a565b610d8e8161418a565b610d978161418a565b610da08161418a565b610da98161418a565b8360335416603355610dba8161418a565b61418a565b610dc7613ecf565b6000805260fb91828552604060002033600052855281604060002054161561108c575b6000805261012d92838652610e03336040600020613fca565b50610e0c613ecf565b7f65d7a28e3265b37a6474929f336521b332c1681b933f6cb9f3376673440d862a806000528187526040600020336000528752836040600020541615611040575b600052838652610e61336040600020613fca565b50610e6a613ecf565b7fb62aeb2ef35a3718e51a7e8b0b0d8e6fa690a4037bf45dad308976da469a861c806000528187526040600020336000528752836040600020541615610ff4575b600052838652610ebf336040600020613fca565b50610ec8613ecf565b7f813b9efdf6afe6b57682eb1fb850711edc34da21ae7f7376cb7a391b1be3239f928360005281875260406000203360005287526040600020541615610fa7575b50506000528252610f1e336040600020613fca565b50610f27613ecf565b610f2f61398f565b82600052610192825260406000206000805282526312cf3570604060002055610f5457005b7f7f26b83ff96e1f2b6a682f133852f6798a09c465da95921460cefb3847402498917fffffffffffffffffffffffffffffffffffffffffffffffffffffffffffff00ff60005416600055604051908152a1005b8260005285526040600020336000528552856040600020918254161790553333827f2f8788117e7eff1d82e926ec794901d17c78024a50270940304540a733656f0d600080a48580610f09565b806000528187526040600020336000528752604060002088848254161790553333827f2f8788117e7eff1d82e926ec794901d17c78024a50270940304540a733656f0d600080a4610eab565b806000528187526040600020336000528752604060002088848254161790553333827f2f8788117e7eff1d82e926ec794901d17c78024a50270940304540a733656f0d600080a4610e4d565b60008052828552604060002033600052855260406000208682825416179055333360007f2f8788117e7eff1d82e926ec794901d17c78024a50270940304540a733656f0d8180a4610dea565b015190508780610d5d565b907fffffffffffffffffffffffffffffffffffffffffffffffffffffffffffffffe08994169160996000527f72a152ddfb8e864297c917af52ea6c1c68aead0fee1a62673fcc7e0c94979d009260005b8a82821061116b5750508411611152575b505050811b01609955610d71565b015160001960f88460031b161c19169055878080611144565b8385015186558c97909501949384019301611133565b90915060996000527f72a152ddfb8e864297c917af52ea6c1c68aead0fee1a62673fcc7e0c94979d00601f840160051c8101918885106111e8575b84939291601f8b920160051c01915b8281106111d9575050610d47565b600081558594508a91016111cb565b90915081906111bc565b7f4e487b7100000000000000000000000000000000000000000000000000000000600052604160045260246000fd5b7fffffffffffffffffffffffffffffffffffffffffffffffffffffffffffff0000166101011760005584610caf565b608460405162461bcd60e51b815260206004820152602e60248201527f496e697469616c697a61626c653a20636f6e747261637420697320616c72656160448201527f647920696e697469616c697a65640000000000000000000000000000000000006064820152fd5b50303b158015610c775750600182841614610c77565b50600182841610610c70565b3461028357602060031936011261028357602061131460043580600052610193835260406000209060c984526040600020549161491b565b604051908152f35b34610283576040600319360112610283576113356133ab565b60243567ffffffffffffffff811161028357611355903690600401613622565b9081517fffffffffffffffffffffffffffffffffffffffffffffffffffffffffffffffe061139b6113858361360a565b9261139360405194856135c9565b80845261360a565b0160005b8181106115af57505060005b835181101561151a576113be8185613d39565b5160005260209061019382526001604060002001546113e2575b60019150016113ab565b61144a6113ef8287613d39565b516040517f639aa0ad00000000000000000000000000000000000000000000000000000000815273ffffffffffffffffffffffffffffffffffffffff87166004820152602481019190915260c0918290829081906044820190565b0381305afa91821561150e5760009261147f575b50506001925061146e8285613d39565b526114798184613d39565b506113d8565b90809250813d8311611507575b61149681836135c9565b8101031261028357604051906114ab8261353c565b80519373ffffffffffffffffffffffffffffffffffffffff85168503610283576001948352808201519083015260408101516040830152606080820151908301526080808201519083015260a08091015190820152868061145e565b503d61148c565b6040513d6000823e3d90fd5b506040516020918282018383528151809152836040840192019360005b8281106115445784840385f35b9091928260c0826115a06001948a5160a0809173ffffffffffffffffffffffffffffffffffffffff8151168452602081015160208501526040810151604085015260608101516060850152608081015160808501520151910152565b01960191019492919094611537565b6020906115ba6145e9565b8282860101520161139f565b346102835760406003193601126102835760c06115e16133ab565b6024356115ec6145e9565b508060005261019360205260406000206116068284613c37565b928260005260c960205273ffffffffffffffffffffffffffffffffffffffff6116406040600020546116388685613c37565b90848661489e565b911693846000526007830160205260086040600020549301602052604060002054936040519561166f8761353c565b8652602086015260408501526060840152608083015260a08201526116df604051809260a0809173ffffffffffffffffffffffffffffffffffffffff8151168452602081015160208501526040810151604085015260608101516060850152608081015160808501520151910152565bf35b3461028357600060031936011261028357610194805461170081613cdb565b60005b815181101561177f57828110156117505760019084600052807fa6f1ac7ad7b125ba5a5e1c96b00ad6914f90a503b1ac3d85a9dadbb4c639df9201546117498285613d39565b5201611703565b7f4e487b7100000000000000000000000000000000000000000000000000000000600052603260045260246000fd5b604051602080825281906117959082018561370f565b0390f35b3461028357602060031936011261028357602061131460043580600052610193835260406000209060c9845260406000205491614847565b346102835760406003193601126102835760206113146004356117f26133ce565b9080600052610193845260406000209160c985526118166040600020549282613c37565b9261489e565b3461028357600060031936011261028357602060ff603354166040519015158152f35b346102835760806003193601126102835760043560248035906044359060ff82168092036102835760643560ff81168091036102835761187d613ecf565b3360009081527fbc1f75e4c102f53298af8243d58783a2b220b757debb73933def796fbf8619ef60209081526040909120549093907fb62aeb2ef35a3718e51a7e8b0b0d8e6fa690a4037bf45dad308976da469a861c9060ff1615611a8c57506040517fa4b186f800000000000000000000000000000000000000000000000000000000815286600482015284818581305afa90811561150e57600091611a5f575b50611a2f57600052610192835260406000209060005282526040600020549083156119ec5781156119a95750916040917fc6bf85d136b95579125a47c9781847cacd55015777db8a853dd17946aed35fb293856000526101938252600161198d856000209285845585613da0565b910190815561199b86613f1f565b5054908351928352820152a2005b8260176064926040519262461bcd60e51b845260048401528201527f724e4f52493a206475726174696f6e206e6f74207365740000000000000000006044820152fd5b8260196064926040519262461bcd60e51b845260048401528201527f724e4f52493a20496e76616c69642073746172742074696d65000000000000006044820152fd5b8286604051907fde20885c0000000000000000000000000000000000000000000000000000000082526004820152fd5b611a7f9150853d8711611a85575b611a7781836135c9565b8101906141fb565b8761191f565b503d611a6d565b848491611a9833613dbe565b90604051611aa5816135ad565b60428152838101916060368437815115611cae57603083538151600190811015611c8057607860218401536041905b808211611bd3575050611b91576048611b8d93611b6293611b71936040519586937f416363657373436f6e74726f6c3a206163636f756e74200000000000000000008a860152611b2d815180928c6037890191016133f1565b8401917f206973206d697373696e6720726f6c65200000000000000000000000000000006037840152518093868401906133f1565b010360288101845201826135c9565b60405193849362461bcd60e51b85526004850152830190613414565b0390fd5b606485856040519162461bcd60e51b83528160048401528201527f537472696e67733a20686578206c656e67746820696e73756666696369656e746044820152fd5b9091600f81166010811015611c52577f3031323334353637383961626364656600000000000000000000000000000000901a611c0f8486613dad565b5360041c918015611c24576000190190611ad4565b877f4e487b710000000000000000000000000000000000000000000000000000000060005260116004526000fd5b887f4e487b710000000000000000000000000000000000000000000000000000000060005260326004526000fd5b867f4e487b710000000000000000000000000000000000000000000000000000000060005260326004526000fd5b857f4e487b710000000000000000000000000000000000000000000000000000000060005260326004526000fd5b346102835760206003193601126102835760043560005260c960205260206040600020541515604051908152f35b346102835760406003193601126102835760043567ffffffffffffffff808211610283573660238301121561028357816004013590611d488261360a565b92611d5660405194856135c9565b82845260209260248486019160051b8301019136831161028357602401905b828210611e865750505060243590811161028357611d97903690600401613622565b8251815103611e1c57611daa8351613cdb565b9260005b8151811015611e055780611df073ffffffffffffffffffffffffffffffffffffffff611ddd611e009486613d39565b5116611de98387613d39565b5190613c37565b611dfa8288613d39565b52613d2a565b611dae565b50505061179560405192828493845283019061370f565b6084826040519062461bcd60e51b82526004820152602960248201527f455243313135353a206163636f756e747320616e6420696473206c656e67746860448201527f206d69736d6174636800000000000000000000000000000000000000000000006064820152fd5b813573ffffffffffffffffffffffffffffffffffffffff81168103610283578152908401908401611d75565b346102835760606003193601126102835760243573ffffffffffffffffffffffffffffffffffffffff6044351660443503610283573360009081527f99141412ed334650e7ddced338199a5e4a820639cb8ffe2e1add19b576f2108160205260409020547f813b9efdf6afe6b57682eb1fb850711edc34da21ae7f7376cb7a391b1be3239f9060ff161561245257506024602073ffffffffffffffffffffffffffffffffffffffff6101975416604051928380927f3d932dfb00000000000000000000000000000000000000000000000000000000825260043560048301525afa90811561150e57600091612420575b50806000526101936020526040600020916001830154156123ef578160005260c9602052611fd6604060002054838561491b565b8082116123be5781156123b65750905b6005830190604051938485602085549283815201809560005260206000209260005b81811061239d57505061201d925003866135c9565b6120278551613cdb565b9260005b865181101561207257806120618573ffffffffffffffffffffffffffffffffffffffff61205a6001958c613d39565b5116613c37565b61206b8288613d39565b520161202b565b509394929190946120838451613cdb565b92600080956002890154915b81518060001981011161236e57600019018810156121625761211e6121249173ffffffffffffffffffffffffffffffffffffffff6120cd8b86613d39565b51168c6120da8c89613d39565b51918a60005260c9602052896120f56040600020548a613da0565b928315801561215a575b1561212a5750505050506000905b816121188c8c613d39565b52613da0565b97613d2a565b9661208f565b61215494600761214a9261214f9560005201602052604060002054613da0565b613d8d565b614786565b9061210d565b5081156120ff565b8987878b612171899586614042565b8651600019810190811161236e576121899085613d39565b5260005b865181101561222257806121d073ffffffffffffffffffffffffffffffffffffffff6121bc61221d948b613d39565b5116856121c98489613d39565b5191614213565b6121da8186613d39565b5173ffffffffffffffffffffffffffffffffffffffff6121fa838b613d39565b5116600052600887016020526122166040600020918254613da0565b9055613d2a565b61218d565b50949092600301612234858254613da0565b9055604051906060820190858352606060208401525180915260808201959060005b818110612342576000602061231a898b8a8a7f4d641c2ca9261584e3de048c803a63d133b28387ab704ace681fd7b220094b528b8085036040820152806122a160043596429561370f565b0390a473ffffffffffffffffffffffffffffffffffffffff6101965416906040519485809481937fa9059cbb000000000000000000000000000000000000000000000000000000008352604435600484016020909392919373ffffffffffffffffffffffffffffffffffffffff60408201951681520152565b03925af1801561150e5761232a57005b6104599060203d602011611a8557611a7781836135c9565b825173ffffffffffffffffffffffffffffffffffffffff16885260209788019790920191600101612256565b7f4e487b7100000000000000000000000000000000000000000000000000000000600052601160045260246000fd5b845483526001948501948a945060209093019201612008565b905090611fe6565b602483604051907f610d28380000000000000000000000000000000000000000000000000000000082526004820152fd5b602482604051907f25f878170000000000000000000000000000000000000000000000000000000082526004820152fd5b90506020813d60201161244a575b8161243b602093836135c9565b81010312610283575182611fa2565b3d915061242e565b61245b33613dbe565b60405191612468836135ad565b60428352602083019060603683378351156117505760308253835160019081101561175057607860218601536041905b808211612557575050612513576048611b62926124f392611b8d956040519586937f416363657373436f6e74726f6c3a206163636f756e74200000000000000000006020860152611b2d8151809260206037890191016133f1565b60405191829162461bcd60e51b8352602060048401526024830190613414565b606460405162461bcd60e51b815260206004820152602060248201527f537472696e67733a20686578206c656e67746820696e73756666696369656e746044820152fd5b9091600f81166010811015611750577f3031323334353637383961626364656600000000000000000000000000000000901a6125938488613dad565b5360041c91801561236e576000190190612498565b3461028357600060031936011261028357602073ffffffffffffffffffffffffffffffffffffffff6101965416604051908152f35b34610283576000600319360112610283576125f6613743565b60335460ff811615612653577fffffffffffffffffffffffffffffffffffffffffffffffffffffffffffffff00166033557f5db9ee0a495bf2e6ff9c91a7834c1ba4fdd244a5e8aa4e537bd38aeae4b073aa6020604051338152a1005b606460405162461bcd60e51b815260206004820152601460248201527f5061757361626c653a206e6f74207061757365640000000000000000000000006044820152fd5b346102835760406003193601126102835760043573ffffffffffffffffffffffffffffffffffffffff6126c86133ce565b1633810361277f57610459916126dc613ecf565b8060005260fb60205260406000208260005260205260ff60406000205416612712575b60005261012d602052604060002061404f565b8060005260fb60205260406000208260005260205260406000207fffffffffffffffffffffffffffffffffffffffffffffffffffffffffffffff0081541690553382827ff6391f5c32d9c69d2a47ea670b442974b53935d1edc7fd64eb21e047a839171b600080a46126ff565b608460405162461bcd60e51b815260206004820152602f60248201527f416363657373436f6e74726f6c3a2063616e206f6e6c792072656e6f756e636560448201527f20726f6c657320666f722073656c6600000000000000000000000000000000006064820152fd5b346102835760406003193601126102835761045960043561012d61280b6133ce565b918060005260209060fb8252612828600160406000200154613ac6565b612830613ecf565b8060005260fb825273ffffffffffffffffffffffffffffffffffffffff604060002094169384600052825260ff6040600020541615612878575b600052526040600020613fca565b8060005260fb82526040600020846000528252604060002060017fffffffffffffffffffffffffffffffffffffffffffffffffffffffffffffff008254161790553384827f2f8788117e7eff1d82e926ec794901d17c78024a50270940304540a733656f0d600080a461286a565b346102835760a0600319360112610283576128ff6133ab565b506129086133ce565b5067ffffffffffffffff6044358181116102835761292a903690600401613622565b5060643581811161028357612943903690600401613622565b50608435908111610283576102589036906004016136f1565b346102835760206003193601126102835761179561297b600435614658565b60405191829160208352602083019061349e565b34610283576020806003193601126102835760043567ffffffffffffffff8111610283576129c190369060040161346d565b6129ca8161360a565b916129d860405193846135c9565b8183527fffffffffffffffffffffffffffffffffffffffffffffffffffffffffffffffe0612a058361360a565b018460005b828110612acc5750505060005b828110612a9e575050506040519082820192808352815180945260408301938160408260051b8601019301916000955b828710612a545785850386f35b909192938280612a8e837fffffffffffffffffffffffffffffffffffffffffffffffffffffffffffffffc08a60019603018652885161349e565b9601920196019592919092612a47565b80612ab060019260051b840135614658565b612aba8287613d39565b52612ac58186613d39565b5001612a17565b612ad461461b565b828288010152018590612a0a565b3461028357606060031936011261028357612afb6133ab565b612bf4602435604435612b0f818333614213565b81600052602093849261019384526007604060002060028101612b33868254613da0565b9055336000520184526040600020612b4c848254613da0565b90556040519083825273ffffffffffffffffffffffffffffffffffffffff91828416907f8ac34c3804c4564545d611b14933b1585e198f9a8ce80f3d817a733ca7f87d37873392a461019654169060006040518096819582947fa9059cbb000000000000000000000000000000000000000000000000000000008452600484016020909392919373ffffffffffffffffffffffffffffffffffffffff60408201951681520152565b03925af1801561150e57612c0d575b5060405160018152f35b612c2390823d8411611a8557611a7781836135c9565b5081612c03565b346102835760206003193601126102835760043560005260fb6020526020600160406000200154604051908152f35b346102835760006003193601126102835760206040517fb62aeb2ef35a3718e51a7e8b0b0d8e6fa690a4037bf45dad308976da469a861c8152f35b3461028357612ca236613457565b3360009081527f72f2994cda805697ff5940dc92bd4118d9d7058b657a897ee8a2023e4f67343460209081526040909120549092919060ff161561311c57829173ffffffffffffffffffffffffffffffffffffffff80610197541692604051948580957f3d932dfb00000000000000000000000000000000000000000000000000000000825283600483015260249687915afa94851561150e576000956130ed575b50851c1660405193612d5585613575565b60008552811561308457612d6881614544565b93612d7284614544565b93612d7b613ecf565b60005b8651811015612dbd5780612d95612db89288613d39565b51612da0828a613d39565b5160005260c98b526122166040600020918254613da0565b612d7e565b508793945086836000526097855260406000208660005285526040600020612de6838254613da0565b905585600060405186815284888201527fc3d58168c5ae7397731d063d5bbf3d657854427343f4c083240f7aacaa2d0f6260403392a4853b612e3d575b610459866101938787600052526005604060002001613fca565b84612e9691604051809381927ff23a6e610000000000000000000000000000000000000000000000000000000096878452336004850152600089850152896044850152606484015260a0608484015260a4830190613414565b038160008a5af16000918161302c575b50612f8d5750506001600060033d11612f7b575b6308c379a014612f46575b612edd57506104599291610193915b91819394612e23565b8260346084926040519262461bcd60e51b845260048401528201527f455243313135353a207472616e7366657220746f206e6f6e204552433131353560448201527f526563656976657220696d706c656d656e7465720000000000000000000000006064820152fd5b612f4e61457a565b80612f595750612ec5565b84611b8d849260405193849362461bcd60e51b85526004850152830190613414565b5060046000803e60005160e01c612eba565b7fffffffff000000000000000000000000000000000000000000000000000000001603612fc35750610459929161019391612ed4565b8260286084926040519262461bcd60e51b845260048401528201527f455243313135353a204552433131353552656365697665722072656a6563746560448201527f6420746f6b656e730000000000000000000000000000000000000000000000006064820152fd5b9091508581813d831161307d575b61304481836135c9565b8101031261028357517fffffffff0000000000000000000000000000000000000000000000000000000081168103610283579087612ea6565b503d61303a565b6084866021866040519262461bcd60e51b845260048401528201527f455243313135353a206d696e7420746f20746865207a65726f2061646472657360448201527f73000000000000000000000000000000000000000000000000000000000000006064820152fd5b9094508581813d8311613115575b61310581836135c9565b8101031261028357519386612d44565b503d6130fb565b60246040517ff78d2300000000000000000000000000000000000000000000000000000000008152336004820152fd5b346102835760208060031936011261028357604051906000826099549161317283613be4565b9283835260019085828216918260001461320e5750506001146131b1575b5061319d925003836135c9565b611795604051928284938452830190613414565b84915060996000527f72a152ddfb8e864297c917af52ea6c1c68aead0fee1a62673fcc7e0c94979d00906000915b8583106131f657505061319d935082010185613190565b805483890185015287945086939092019181016131df565b7fffffffffffffffffffffffffffffffffffffffffffffffffffffffffffffff00168582015261319d95151560051b85010192508791506131909050565b34610283576020600319360112610283576004357fffffffff00000000000000000000000000000000000000000000000000000000811680910361028357807f5a05180f00000000000000000000000000000000000000000000000000000000602092149081156132c3575b506040519015158152f35b7f7965db0b000000000000000000000000000000000000000000000000000000008114915081156132f6575b50826132b8565b7fd9b67a260000000000000000000000000000000000000000000000000000000081149150811561335a575b8115613330575b50826132ef565b7f01ffc9a70000000000000000000000000000000000000000000000000000000091501482613329565b7f0e89341c0000000000000000000000000000000000000000000000000000000081149150613322565b346102835760406003193601126102835760206113146133a26133ab565b60243590613c37565b6004359073ffffffffffffffffffffffffffffffffffffffff8216820361028357565b6024359073ffffffffffffffffffffffffffffffffffffffff8216820361028357565b60005b8381106134045750506000910152565b81810151838201526020016133f4565b907fffffffffffffffffffffffffffffffffffffffffffffffffffffffffffffffe0601f602093613450815180928187528780880191016133f1565b0116010190565b6003196040910112610283576004359060243590565b9181601f840112156102835782359167ffffffffffffffff8311610283576020808501948460051b01011161028357565b9060e0906101009261012084830192825181526020948386809501518584015260408101516040840152606081015160608401526080810151608084015260a081015160a084015260c081015160c084015201519560e082015285518094520193019160005b828110613512575050505090565b835173ffffffffffffffffffffffffffffffffffffffff1685529381019392810192600101613504565b60c0810190811067ffffffffffffffff8211176111f257604052565b610100810190811067ffffffffffffffff8211176111f257604052565b6020810190811067ffffffffffffffff8211176111f257604052565b6060810190811067ffffffffffffffff8211176111f257604052565b6080810190811067ffffffffffffffff8211176111f257604052565b90601f7fffffffffffffffffffffffffffffffffffffffffffffffffffffffffffffffe0910116810190811067ffffffffffffffff8211176111f257604052565b67ffffffffffffffff81116111f25760051b60200190565b81601f82011215610283578035916136398361360a565b9261364760405194856135c9565b808452602092838086019260051b820101928311610283578301905b828210613671575050505090565b81358152908301908301613663565b67ffffffffffffffff81116111f257601f017fffffffffffffffffffffffffffffffffffffffffffffffffffffffffffffffe01660200190565b9291926136c682613680565b916136d460405193846135c9565b829481845281830111610283578281602093846000960137010152565b9080601f830112156102835781602061370c933591016136ba565b90565b90815180825260208080930193019160005b82811061372f575050505090565b835185529381019392810192600101613721565b3360009081527fc81858b0fc5e8d7d2c7a341b4e13a62a27b51e1da1072bf5f7fee8fdef673e94602090815260408083205490927f65d7a28e3265b37a6474929f336521b332c1681b933f6cb9f3376673440d862a9160ff16156137a75750505050565b6137b033613dbe565b918451906137bd826135ad565b6042825284820192606036853782511561396257603084538251906001918210156139625790607860218501536041915b8183116138b557505050613873576048611b8d9386936138579361384898519889937f416363657373436f6e74726f6c3a206163636f756e74200000000000000000008a860152611b2d815180928c6037890191016133f1565b010360288101875201856135c9565b5192839262461bcd60e51b845260048401526024830190613414565b60648486519062461bcd60e51b825280600483015260248201527f537472696e67733a20686578206c656e67746820696e73756666696369656e746044820152fd5b909192600f81166010811015613935577f3031323334353637383961626364656600000000000000000000000000000000901a6138f28587613dad565b5360041c928015613908576000190191906137ee565b6024827f4e487b710000000000000000000000000000000000000000000000000000000081526011600452fd5b6024837f4e487b710000000000000000000000000000000000000000000000000000000081526032600452fd5b807f4e487b7100000000000000000000000000000000000000000000000000000000602492526032600452fd5b3360009081527fc88390e7e62175be0932452175b6a7222b6b094ab0ef984a5153c620345d8975602090815260408083205490929060ff16156139d157505050565b6139da33613dbe565b90808451906139e8826135ad565b6042825284820192606036853782511561396257603084538251906001918210156139625790607860218501536041915b818311613a7357505050613873576048611b8d9386936138579361384898519889937f416363657373436f6e74726f6c3a206163636f756e74200000000000000000008a860152611b2d815180928c6037890191016133f1565b909192600f81166010811015613935577f3031323334353637383961626364656600000000000000000000000000000000901a613ab08587613dad565b5360041c92801561390857600019019190613a19565b60009080825260209060fb8252604092838120338252835260ff848220541615613af05750505050565b613af933613dbe565b91845190613b06826135ad565b6042825284820192606036853782511561396257603084538251906001918210156139625790607860218501536041915b818311613b9157505050613873576048611b8d9386936138579361384898519889937f416363657373436f6e74726f6c3a206163636f756e74200000000000000000008a860152611b2d815180928c6037890191016133f1565b909192600f81166010811015613935577f3031323334353637383961626364656600000000000000000000000000000000901a613bce8587613dad565b5360041c92801561390857600019019190613b37565b90600182811c92168015613c2d575b6020831014613bfe57565b7f4e487b7100000000000000000000000000000000000000000000000000000000600052602260045260246000fd5b91607f1691613bf3565b73ffffffffffffffffffffffffffffffffffffffff16908115613c7157600052609760205260406000209060005260205260406000205490565b608460405162461bcd60e51b815260206004820152602a60248201527f455243313135353a2061646472657373207a65726f206973206e6f742061207660448201527f616c6964206f776e6572000000000000000000000000000000000000000000006064820152fd5b90613ce58261360a565b613cf260405191826135c9565b8281527fffffffffffffffffffffffffffffffffffffffffffffffffffffffffffffffe0613d20829461360a565b0190602036910137565b600019811461236e5760010190565b80518210156117505760209160051b010190565b90919015613d59575090565b815115613d695750805190602001fd5b611b8d9060405191829162461bcd60e51b8352602060048401526024830190613414565b8181029291811591840414171561236e57565b9190820180921161236e57565b908151811015611750570160200190565b60405190613dcb82613591565b602a82526020820160403682378251156117505760309053815160019081101561175057607860218401536029905b808211613e0a5750506125135790565b9091600f81166010811015613e89577f3031323334353637383961626364656600000000000000000000000000000000901a613e468486613dad565b5360041c918015613e5b576000190190613dfa565b602460007f4e487b710000000000000000000000000000000000000000000000000000000081526011600452fd5b602460007f4e487b710000000000000000000000000000000000000000000000000000000081526032600452fd5b80548210156117505760005260206000200190600090565b60ff60335416613edb57565b606460405162461bcd60e51b815260206004820152601060248201527f5061757361626c653a20706175736564000000000000000000000000000000006044820152fd5b906000918083526101959283602052604081205415600014613fc5576101949384549468010000000000000000861015613f985760018601808255861015613935578360409495967fa6f1ac7ad7b125ba5a5e1c96b00ad6914f90a503b1ac3d85a9dadbb4c639df920155549382526020522055600190565b6024837f4e487b710000000000000000000000000000000000000000000000000000000081526041600452fd5b925050565b9190600183016000908282528060205260408220541560001461403c5784549468010000000000000000861015613f98578361402c614013886001604098999a01855584613eb7565b819391549060031b600019811b9283911b169119161790565b9055549382526020522055600190565b50925050565b9190820391821161236e57565b90600182019060009281845282602052604084205490811515600014614183576000199182810181811161415657825490848201918211614129578082036140f4575b505050805480156140c7578201916140aa8383613eb7565b909182549160031b1b191690555582526020526040812055600190565b6024867f4e487b710000000000000000000000000000000000000000000000000000000081526031600452fd5b6141146141046140139386613eb7565b90549060031b1c92839286613eb7565b90558652846020526040862055388080614092565b6024887f4e487b710000000000000000000000000000000000000000000000000000000081526011600452fd5b6024877f4e487b710000000000000000000000000000000000000000000000000000000081526011600452fd5b5050505090565b1561419157565b608460405162461bcd60e51b815260206004820152602b60248201527f496e697469616c697a61626c653a20636f6e7472616374206973206e6f74206960448201527f6e697469616c697a696e670000000000000000000000000000000000000000006064820152fd5b90816020910312610283575180151581036102835790565b92909173ffffffffffffffffffffffffffffffffffffffff84169182156144da5761423d84614544565b61424683614544565b9060409384519361425685613575565b6000809552614263613ecf565b33871496855b8451811015614335578861427d8287613d39565b5180895260209061019382528a8a20926142b5575b600193929160c9918b525260046142ac8b8b2054836147bf565b91015501614269565b8d6142e16142c3868c613d39565b5191838d5260c985528d8d20546142da8583613c37565b918761489e565b1015614292578a517fe1b8b25f00000000000000000000000000000000000000000000000000000000815273ffffffffffffffffffffffffffffffffffffffff8f1660048201526024810191909152604490fd5b509294965092975095855b84518110156143f8576143538186613d39565b5161435e828b613d39565b519080895260c96020818152898b20549284841061438f578b5252878920919003905561438a90613d2a565b614340565b6084828c519062461bcd60e51b82526004820152602860248201527f455243313135353a206275726e20616d6f756e74206578636565647320746f7460448201527f616c537570706c790000000000000000000000000000000000000000000000006064820152fd5b5092509293949095508185526020609781528486208487528152848620548281106144725790828493928896958752609783528787208688528352038686205585519283528201527fc3d58168c5ae7397731d063d5bbf3d657854427343f4c083240f7aacaa2d0f62843392a45161446f81613575565b52565b60848287519062461bcd60e51b825260048201526024808201527f455243313135353a206275726e20616d6f756e7420657863656564732062616c60448201527f616e6365000000000000000000000000000000000000000000000000000000006064820152fd5b608460405162461bcd60e51b815260206004820152602360248201527f455243313135353a206275726e2066726f6d20746865207a65726f206164647260448201527f65737300000000000000000000000000000000000000000000000000000000006064820152fd5b604051906040820182811067ffffffffffffffff8211176111f25760405260018252602082016020368237825115611750575290565b600060443d1061370c5760405160031991823d016004833e815167ffffffffffffffff918282113d6024840111176145d8578184019485519384116145e0573d850101602084870101116145d8575061370c929101602001906135c9565b949350505050565b50949350505050565b604051906145f68261353c565b8160a06000918281528260208201528260408201528260608201528260808201520152565b6040519061462882613558565b606060e083600080825280602083015280604083015280848301528060808301528060a083015260c08201520152565b61466061461b565b50806000526101936020526040600020600581019081546146808161360a565b9261468e60405194856135c9565b8184527fffffffffffffffffffffffffffffffffffffffffffffffffffffffffffffffe06146bb8361360a565b013660208601376146cb82613cdb565b9060005b83811061473f57505050508260005260c9602052604060002054908054916001820154906146fe818785614847565b9160036002850154940154946040519761471789613558565b8852602088015260408701526060860152608085015260a084015260c083015260e082015290565b8073ffffffffffffffffffffffffffffffffffffffff61476160019385613eb7565b90549060031b1c166147738289613d39565b528761477f8286613d39565b52016146cf565b8115614790570490565b7f4e487b7100000000000000000000000000000000000000000000000000000000600052601260045260246000fd5b906004906000906001840154804210156000146147fa57506147e691506002840154613da0565b915b01548082106147f5575090565b905090565b61480685548092614042565b9181421060001461481b575050505b916147e8565b61484293509061483c61483561214f936002890154613da0565b9142614042565b90613d8d565b614815565b919060018301541561486d575090600261486461370c93836147bf565b91015490614042565b602490604051907f25f878170000000000000000000000000000000000000000000000000000000082526004820152fd5b90926148ae836002840154613da0565b9060009082158015614913575b156148cb57505050505050600090565b61483c61490e94614908604061214f9573ffffffffffffffffffffffffffffffffffffffff61370c9b1681526007840160205220549788926147bf565b92613da0565b614042565b5080156148bb565b919060018301541561486d5750906149448261493e61370c946002850154613da0565b926147bf565b9061404256fea2646970667358221220d5fff2adfd1e45a1ca912458cfde4a2ca955d7ef8e99b3149f27e62038c5025664736f6c63430008110033"
}