{
  "_format": "hh-sol-artifact-1",
  "contractName": "LockedNORIV2",
  "sourceName": "contracts/LockedNORIV2.sol",
  "abi": [
    {
      "inputs": [],
      "stateMutability": "nonpayable",
      "type": "constructor"
    },
    {
      "anonymous": false,
      "inputs": [
        {
          "indexed": true,
          "internalType": "address",
          "name": "owner",
          "type": "address"
        },
        {
          "indexed": true,
          "internalType": "address",
          "name": "spender",
          "type": "address"
        },
        {
          "indexed": false,
          "internalType": "uint256",
          "name": "value",
          "type": "uint256"
        }
      ],
      "name": "Approval",
      "type": "event"
    },
    {
      "anonymous": false,
      "inputs": [
        {
          "indexed": true,
          "internalType": "address",
          "name": "operator",
          "type": "address"
        },
        {
          "indexed": true,
          "internalType": "address",
          "name": "tokenHolder",
          "type": "address"
        }
      ],
      "name": "AuthorizedOperator",
      "type": "event"
    },
    {
      "anonymous": false,
      "inputs": [
        {
          "indexed": true,
          "internalType": "address",
          "name": "operator",
          "type": "address"
        },
        {
          "indexed": true,
          "internalType": "address",
          "name": "from",
          "type": "address"
        },
        {
          "indexed": false,
          "internalType": "uint256",
          "name": "amount",
          "type": "uint256"
        },
        {
          "indexed": false,
          "internalType": "bytes",
          "name": "data",
          "type": "bytes"
        },
        {
          "indexed": false,
          "internalType": "bytes",
          "name": "operatorData",
          "type": "bytes"
        }
      ],
      "name": "Burned",
      "type": "event"
    },
    {
      "anonymous": false,
      "inputs": [
        {
          "indexed": false,
          "internalType": "uint8",
          "name": "version",
          "type": "uint8"
        }
      ],
      "name": "Initialized",
      "type": "event"
    },
    {
      "anonymous": false,
      "inputs": [
        {
          "indexed": true,
          "internalType": "address",
          "name": "operator",
          "type": "address"
        },
        {
          "indexed": true,
          "internalType": "address",
          "name": "to",
          "type": "address"
        },
        {
          "indexed": false,
          "internalType": "uint256",
          "name": "amount",
          "type": "uint256"
        },
        {
          "indexed": false,
          "internalType": "bytes",
          "name": "data",
          "type": "bytes"
        },
        {
          "indexed": false,
          "internalType": "bytes",
          "name": "operatorData",
          "type": "bytes"
        }
      ],
      "name": "Minted",
      "type": "event"
    },
    {
      "anonymous": false,
      "inputs": [
        {
          "indexed": false,
          "internalType": "address",
          "name": "account",
          "type": "address"
        }
      ],
      "name": "Paused",
      "type": "event"
    },
    {
      "anonymous": false,
      "inputs": [
        {
          "indexed": true,
          "internalType": "address",
          "name": "operator",
          "type": "address"
        },
        {
          "indexed": true,
          "internalType": "address",
          "name": "tokenHolder",
          "type": "address"
        }
      ],
      "name": "RevokedOperator",
      "type": "event"
    },
    {
      "anonymous": false,
      "inputs": [
        {
          "indexed": true,
          "internalType": "bytes32",
          "name": "role",
          "type": "bytes32"
        },
        {
          "indexed": true,
          "internalType": "bytes32",
          "name": "previousAdminRole",
          "type": "bytes32"
        },
        {
          "indexed": true,
          "internalType": "bytes32",
          "name": "newAdminRole",
          "type": "bytes32"
        }
      ],
      "name": "RoleAdminChanged",
      "type": "event"
    },
    {
      "anonymous": false,
      "inputs": [
        {
          "indexed": true,
          "internalType": "bytes32",
          "name": "role",
          "type": "bytes32"
        },
        {
          "indexed": true,
          "internalType": "address",
          "name": "account",
          "type": "address"
        },
        {
          "indexed": true,
          "internalType": "address",
          "name": "sender",
          "type": "address"
        }
      ],
      "name": "RoleGranted",
      "type": "event"
    },
    {
      "anonymous": false,
      "inputs": [
        {
          "indexed": true,
          "internalType": "bytes32",
          "name": "role",
          "type": "bytes32"
        },
        {
          "indexed": true,
          "internalType": "address",
          "name": "account",
          "type": "address"
        },
        {
          "indexed": true,
          "internalType": "address",
          "name": "sender",
          "type": "address"
        }
      ],
      "name": "RoleRevoked",
      "type": "event"
    },
    {
      "anonymous": false,
      "inputs": [
        {
          "indexed": true,
          "internalType": "address",
          "name": "operator",
          "type": "address"
        },
        {
          "indexed": true,
          "internalType": "address",
          "name": "from",
          "type": "address"
        },
        {
          "indexed": true,
          "internalType": "address",
          "name": "to",
          "type": "address"
        },
        {
          "indexed": false,
          "internalType": "uint256",
          "name": "amount",
          "type": "uint256"
        },
        {
          "indexed": false,
          "internalType": "bytes",
          "name": "data",
          "type": "bytes"
        },
        {
          "indexed": false,
          "internalType": "bytes",
          "name": "operatorData",
          "type": "bytes"
        }
      ],
      "name": "Sent",
      "type": "event"
    },
    {
      "anonymous": false,
      "inputs": [
        {
          "indexed": true,
          "internalType": "address",
          "name": "from",
          "type": "address"
        },
        {
          "indexed": false,
          "internalType": "address[]",
          "name": "recipients",
          "type": "address[]"
        },
        {
          "indexed": false,
          "internalType": "uint256[]",
          "name": "amounts",
          "type": "uint256[]"
        },
        {
          "indexed": false,
          "internalType": "bytes[]",
          "name": "userData",
          "type": "bytes[]"
        },
        {
          "indexed": false,
          "internalType": "bytes[]",
          "name": "operatorData",
          "type": "bytes[]"
        },
        {
          "indexed": false,
          "internalType": "bool[]",
          "name": "requireReceptionAck",
          "type": "bool[]"
        }
      ],
      "name": "SentBatch",
      "type": "event"
    },
    {
      "anonymous": false,
      "inputs": [
        {
          "indexed": true,
          "internalType": "address",
          "name": "recipient",
          "type": "address"
        },
        {
          "indexed": true,
          "internalType": "uint256",
          "name": "amount",
          "type": "uint256"
        },
        {
          "indexed": true,
          "internalType": "uint256",
          "name": "startTime",
          "type": "uint256"
        },
        {
          "indexed": false,
          "internalType": "uint256",
          "name": "vestEndTime",
          "type": "uint256"
        },
        {
          "indexed": false,
          "internalType": "uint256",
          "name": "unlockEndTime",
          "type": "uint256"
        }
      ],
      "name": "TokenGrantCreated",
      "type": "event"
    },
    {
      "anonymous": false,
      "inputs": [
        {
          "indexed": true,
          "internalType": "address",
          "name": "from",
          "type": "address"
        },
        {
          "indexed": true,
          "internalType": "address",
          "name": "to",
          "type": "address"
        },
        {
          "indexed": false,
          "internalType": "uint256",
          "name": "quantity",
          "type": "uint256"
        }
      ],
      "name": "TokensClaimed",
      "type": "event"
    },
    {
      "anonymous": false,
      "inputs": [
        {
          "indexed": true,
          "internalType": "address",
          "name": "from",
          "type": "address"
        },
        {
          "indexed": true,
          "internalType": "address",
          "name": "to",
          "type": "address"
        },
        {
          "indexed": false,
          "internalType": "uint256",
          "name": "value",
          "type": "uint256"
        }
      ],
      "name": "Transfer",
      "type": "event"
    },
    {
      "anonymous": false,
      "inputs": [
        {
          "indexed": false,
          "internalType": "address",
          "name": "from",
          "type": "address"
        },
        {
          "indexed": false,
          "internalType": "address",
          "name": "to",
          "type": "address"
        }
      ],
      "name": "UnderlyingTokenAddressUpdated",
      "type": "event"
    },
    {
      "anonymous": false,
      "inputs": [
        {
          "indexed": false,
          "internalType": "address",
          "name": "account",
          "type": "address"
        }
      ],
      "name": "Unpaused",
      "type": "event"
    },
    {
      "anonymous": false,
      "inputs": [
        {
          "indexed": true,
          "internalType": "uint256",
          "name": "atTime",
          "type": "uint256"
        },
        {
          "indexed": true,
          "internalType": "address",
          "name": "from",
          "type": "address"
        },
        {
          "indexed": true,
          "internalType": "uint256",
          "name": "quantity",
          "type": "uint256"
        }
      ],
      "name": "UnvestedTokensRevoked",
      "type": "event"
    },
    {
      "inputs": [],
      "name": "DEFAULT_ADMIN_ROLE",
      "outputs": [
        {
          "internalType": "bytes32",
          "name": "",
          "type": "bytes32"
        }
      ],
      "stateMutability": "view",
      "type": "function"
    },
    {
      "inputs": [],
      "name": "ERC777_TOKENS_RECIPIENT_HASH",
      "outputs": [
        {
          "internalType": "bytes32",
          "name": "",
          "type": "bytes32"
        }
      ],
      "stateMutability": "view",
      "type": "function"
    },
    {
      "inputs": [],
      "name": "PAUSER_ROLE",
      "outputs": [
        {
          "internalType": "bytes32",
          "name": "",
          "type": "bytes32"
        }
      ],
      "stateMutability": "view",
      "type": "function"
    },
    {
      "inputs": [],
      "name": "TOKEN_GRANTER_ROLE",
      "outputs": [
        {
          "internalType": "bytes32",
          "name": "",
          "type": "bytes32"
        }
      ],
      "stateMutability": "view",
      "type": "function"
    },
    {
      "inputs": [
        {
          "internalType": "address",
          "name": "holder",
          "type": "address"
        },
        {
          "internalType": "address",
          "name": "spender",
          "type": "address"
        }
      ],
      "name": "allowance",
      "outputs": [
        {
          "internalType": "uint256",
          "name": "",
          "type": "uint256"
        }
      ],
      "stateMutability": "view",
      "type": "function"
    },
    {
      "inputs": [
        {
          "internalType": "address",
          "name": "spender",
          "type": "address"
        },
        {
          "internalType": "uint256",
          "name": "value",
          "type": "uint256"
        }
      ],
      "name": "approve",
      "outputs": [
        {
          "internalType": "bool",
          "name": "",
          "type": "bool"
        }
      ],
      "stateMutability": "nonpayable",
      "type": "function"
    },
    {
      "inputs": [
        {
          "internalType": "address",
          "name": "operator",
          "type": "address"
        }
      ],
      "name": "authorizeOperator",
      "outputs": [],
      "stateMutability": "nonpayable",
      "type": "function"
    },
    {
      "inputs": [
        {
          "internalType": "address",
          "name": "tokenHolder",
          "type": "address"
        }
      ],
      "name": "balanceOf",
      "outputs": [
        {
          "internalType": "uint256",
          "name": "",
          "type": "uint256"
        }
      ],
      "stateMutability": "view",
      "type": "function"
    },
    {
      "inputs": [
        {
          "internalType": "address[]",
          "name": "accounts",
          "type": "address[]"
        }
      ],
      "name": "balanceOfBatch",
      "outputs": [
        {
          "internalType": "uint256[]",
          "name": "",
          "type": "uint256[]"
        }
      ],
      "stateMutability": "view",
      "type": "function"
    },
    {
      "inputs": [
        {
          "internalType": "address[]",
          "name": "accounts",
          "type": "address[]"
        }
      ],
      "name": "batchGetGrant",
      "outputs": [
        {
          "components": [
            {
              "internalType": "uint256",
              "name": "grantAmount",
              "type": "uint256"
            },
            {
              "internalType": "address",
              "name": "recipient",
              "type": "address"
            },
            {
              "internalType": "uint256",
              "name": "startTime",
              "type": "uint256"
            },
            {
              "internalType": "uint256",
              "name": "vestEndTime",
              "type": "uint256"
            },
            {
              "internalType": "uint256",
              "name": "unlockEndTime",
              "type": "uint256"
            },
            {
              "internalType": "uint256",
              "name": "cliff1Time",
              "type": "uint256"
            },
            {
              "internalType": "uint256",
              "name": "cliff2Time",
              "type": "uint256"
            },
            {
              "internalType": "uint256",
              "name": "vestCliff1Amount",
              "type": "uint256"
            },
            {
              "internalType": "uint256",
              "name": "vestCliff2Amount",
              "type": "uint256"
            },
            {
              "internalType": "uint256",
              "name": "unlockCliff1Amount",
              "type": "uint256"
            },
            {
              "internalType": "uint256",
              "name": "unlockCliff2Amount",
              "type": "uint256"
            },
            {
              "internalType": "uint256",
              "name": "claimedAmount",
              "type": "uint256"
            },
            {
              "internalType": "uint256",
              "name": "originalAmount",
              "type": "uint256"
            },
            {
              "internalType": "uint256",
              "name": "lastRevocationTime",
              "type": "uint256"
            },
            {
              "internalType": "uint256",
              "name": "lastQuantityRevoked",
              "type": "uint256"
            },
            {
              "internalType": "bool",
              "name": "exists",
              "type": "bool"
            }
          ],
          "internalType": "struct LockedNORIV2.TokenGrantDetail[]",
          "name": "",
          "type": "tuple[]"
        }
      ],
      "stateMutability": "view",
      "type": "function"
    },
    {
      "inputs": [
        {
          "internalType": "address[]",
          "name": "fromAccounts",
          "type": "address[]"
        },
        {
          "internalType": "address[]",
          "name": "toAccounts",
          "type": "address[]"
        },
        {
          "internalType": "uint256[]",
          "name": "atTimes",
          "type": "uint256[]"
        },
        {
          "internalType": "uint256[]",
          "name": "amounts",
          "type": "uint256[]"
        }
      ],
      "name": "batchRevokeUnvestedTokenAmounts",
      "outputs": [],
      "stateMutability": "nonpayable",
      "type": "function"
    },
    {
      "inputs": [
        {
          "internalType": "address[]",
          "name": "recipients",
          "type": "address[]"
        },
        {
          "internalType": "uint256[]",
          "name": "amounts",
          "type": "uint256[]"
        },
        {
          "internalType": "bytes[]",
          "name": "userData",
          "type": "bytes[]"
        },
        {
          "internalType": "bytes[]",
          "name": "operatorData",
          "type": "bytes[]"
        },
        {
          "internalType": "bool[]",
          "name": "requireReceptionAck",
          "type": "bool[]"
        }
      ],
      "name": "batchSend",
      "outputs": [],
      "stateMutability": "nonpayable",
      "type": "function"
    },
    {
      "inputs": [
        {
          "internalType": "uint256",
          "name": "",
          "type": "uint256"
        },
        {
          "internalType": "bytes",
          "name": "",
          "type": "bytes"
        }
      ],
      "name": "burn",
      "outputs": [],
      "stateMutability": "pure",
      "type": "function"
    },
    {
      "inputs": [
        {
          "internalType": "uint256",
          "name": "amount",
          "type": "uint256"
        },
        {
          "internalType": "address",
          "name": "recipient",
          "type": "address"
        },
        {
          "internalType": "uint256",
          "name": "startTime",
          "type": "uint256"
        },
        {
          "internalType": "uint256",
          "name": "vestEndTime",
          "type": "uint256"
        },
        {
          "internalType": "uint256",
          "name": "unlockEndTime",
          "type": "uint256"
        },
        {
          "internalType": "uint256",
          "name": "cliff1Time",
          "type": "uint256"
        },
        {
          "internalType": "uint256",
          "name": "cliff2Time",
          "type": "uint256"
        },
        {
          "internalType": "uint256",
          "name": "vestCliff1Amount",
          "type": "uint256"
        },
        {
          "internalType": "uint256",
          "name": "vestCliff2Amount",
          "type": "uint256"
        },
        {
          "internalType": "uint256",
          "name": "unlockCliff1Amount",
          "type": "uint256"
        },
        {
          "internalType": "uint256",
          "name": "unlockCliff2Amount",
          "type": "uint256"
        }
      ],
      "name": "createGrant",
      "outputs": [],
      "stateMutability": "nonpayable",
      "type": "function"
    },
    {
      "inputs": [],
      "name": "decimals",
      "outputs": [
        {
          "internalType": "uint8",
          "name": "",
          "type": "uint8"
        }
      ],
      "stateMutability": "pure",
      "type": "function"
    },
    {
      "inputs": [],
      "name": "defaultOperators",
      "outputs": [
        {
          "internalType": "address[]",
          "name": "",
          "type": "address[]"
        }
      ],
      "stateMutability": "view",
      "type": "function"
    },
    {
      "inputs": [
        {
          "internalType": "address",
          "name": "recipient",
          "type": "address"
        },
        {
          "internalType": "uint256",
          "name": "amount",
          "type": "uint256"
        }
      ],
      "name": "depositFor",
      "outputs": [
        {
          "internalType": "bool",
          "name": "",
          "type": "bool"
        }
      ],
      "stateMutability": "nonpayable",
      "type": "function"
    },
    {
      "inputs": [
        {
          "internalType": "address",
          "name": "account",
          "type": "address"
        }
      ],
      "name": "getGrant",
      "outputs": [
        {
          "components": [
            {
              "internalType": "uint256",
              "name": "grantAmount",
              "type": "uint256"
            },
            {
              "internalType": "address",
              "name": "recipient",
              "type": "address"
            },
            {
              "internalType": "uint256",
              "name": "startTime",
              "type": "uint256"
            },
            {
              "internalType": "uint256",
              "name": "vestEndTime",
              "type": "uint256"
            },
            {
              "internalType": "uint256",
              "name": "unlockEndTime",
              "type": "uint256"
            },
            {
              "internalType": "uint256",
              "name": "cliff1Time",
              "type": "uint256"
            },
            {
              "internalType": "uint256",
              "name": "cliff2Time",
              "type": "uint256"
            },
            {
              "internalType": "uint256",
              "name": "vestCliff1Amount",
              "type": "uint256"
            },
            {
              "internalType": "uint256",
              "name": "vestCliff2Amount",
              "type": "uint256"
            },
            {
              "internalType": "uint256",
              "name": "unlockCliff1Amount",
              "type": "uint256"
            },
            {
              "internalType": "uint256",
              "name": "unlockCliff2Amount",
              "type": "uint256"
            },
            {
              "internalType": "uint256",
              "name": "claimedAmount",
              "type": "uint256"
            },
            {
              "internalType": "uint256",
              "name": "originalAmount",
              "type": "uint256"
            },
            {
              "internalType": "uint256",
              "name": "lastRevocationTime",
              "type": "uint256"
            },
            {
              "internalType": "uint256",
              "name": "lastQuantityRevoked",
              "type": "uint256"
            },
            {
              "internalType": "bool",
              "name": "exists",
              "type": "bool"
            }
          ],
          "internalType": "struct LockedNORIV2.TokenGrantDetail",
          "name": "",
          "type": "tuple"
        }
      ],
      "stateMutability": "view",
      "type": "function"
    },
    {
      "inputs": [
        {
          "internalType": "bytes32",
          "name": "role",
          "type": "bytes32"
        }
      ],
      "name": "getRoleAdmin",
      "outputs": [
        {
          "internalType": "bytes32",
          "name": "",
          "type": "bytes32"
        }
      ],
      "stateMutability": "view",
      "type": "function"
    },
    {
      "inputs": [
        {
          "internalType": "bytes32",
          "name": "role",
          "type": "bytes32"
        },
        {
          "internalType": "uint256",
          "name": "index",
          "type": "uint256"
        }
      ],
      "name": "getRoleMember",
      "outputs": [
        {
          "internalType": "address",
          "name": "",
          "type": "address"
        }
      ],
      "stateMutability": "view",
      "type": "function"
    },
    {
      "inputs": [
        {
          "internalType": "bytes32",
          "name": "role",
          "type": "bytes32"
        }
      ],
      "name": "getRoleMemberCount",
      "outputs": [
        {
          "internalType": "uint256",
          "name": "",
          "type": "uint256"
        }
      ],
      "stateMutability": "view",
      "type": "function"
    },
    {
      "inputs": [
        {
          "internalType": "bytes32",
          "name": "role",
          "type": "bytes32"
        },
        {
          "internalType": "address",
          "name": "account",
          "type": "address"
        }
      ],
      "name": "grantRole",
      "outputs": [],
      "stateMutability": "nonpayable",
      "type": "function"
    },
    {
      "inputs": [],
      "name": "granularity",
      "outputs": [
        {
          "internalType": "uint256",
          "name": "",
          "type": "uint256"
        }
      ],
      "stateMutability": "view",
      "type": "function"
    },
    {
      "inputs": [
        {
          "internalType": "bytes32",
          "name": "role",
          "type": "bytes32"
        },
        {
          "internalType": "address",
          "name": "account",
          "type": "address"
        }
      ],
      "name": "hasRole",
      "outputs": [
        {
          "internalType": "bool",
          "name": "",
          "type": "bool"
        }
      ],
      "stateMutability": "view",
      "type": "function"
    },
    {
      "inputs": [
        {
          "internalType": "contract BridgedPolygonNORI",
          "name": "bridgedPolygonNoriAddress",
          "type": "address"
        }
      ],
      "name": "initialize",
      "outputs": [],
      "stateMutability": "nonpayable",
      "type": "function"
    },
    {
      "inputs": [
        {
          "internalType": "address",
          "name": "operator",
          "type": "address"
        },
        {
          "internalType": "address",
          "name": "tokenHolder",
          "type": "address"
        }
      ],
      "name": "isOperatorFor",
      "outputs": [
        {
          "internalType": "bool",
          "name": "",
          "type": "bool"
        }
      ],
      "stateMutability": "view",
      "type": "function"
    },
    {
      "inputs": [],
      "name": "name",
      "outputs": [
        {
          "internalType": "string",
          "name": "",
          "type": "string"
        }
      ],
      "stateMutability": "view",
      "type": "function"
    },
    {
      "inputs": [
        {
          "internalType": "address",
          "name": "",
          "type": "address"
        },
        {
          "internalType": "uint256",
          "name": "",
          "type": "uint256"
        },
        {
          "internalType": "bytes",
          "name": "",
          "type": "bytes"
        },
        {
          "internalType": "bytes",
          "name": "",
          "type": "bytes"
        }
      ],
      "name": "operatorBurn",
      "outputs": [],
      "stateMutability": "pure",
      "type": "function"
    },
    {
      "inputs": [
        {
          "internalType": "address",
          "name": "",
          "type": "address"
        },
        {
          "internalType": "address",
          "name": "",
          "type": "address"
        },
        {
          "internalType": "uint256",
          "name": "",
          "type": "uint256"
        },
        {
          "internalType": "bytes",
          "name": "",
          "type": "bytes"
        },
        {
          "internalType": "bytes",
          "name": "",
          "type": "bytes"
        }
      ],
      "name": "operatorSend",
      "outputs": [],
      "stateMutability": "pure",
      "type": "function"
    },
    {
      "inputs": [],
      "name": "pause",
      "outputs": [],
      "stateMutability": "nonpayable",
      "type": "function"
    },
    {
      "inputs": [],
      "name": "paused",
      "outputs": [
        {
          "internalType": "bool",
          "name": "",
          "type": "bool"
        }
      ],
      "stateMutability": "view",
      "type": "function"
    },
    {
      "inputs": [
        {
          "internalType": "address",
          "name": "account",
          "type": "address"
        }
      ],
      "name": "quantityRevokedFrom",
      "outputs": [
        {
          "internalType": "uint256",
          "name": "",
          "type": "uint256"
        }
      ],
      "stateMutability": "view",
      "type": "function"
    },
    {
      "inputs": [
        {
          "internalType": "bytes32",
          "name": "role",
          "type": "bytes32"
        },
        {
          "internalType": "address",
          "name": "account",
          "type": "address"
        }
      ],
      "name": "renounceRole",
      "outputs": [],
      "stateMutability": "nonpayable",
      "type": "function"
    },
    {
      "inputs": [
        {
          "internalType": "address",
          "name": "operator",
          "type": "address"
        }
      ],
      "name": "revokeOperator",
      "outputs": [],
      "stateMutability": "nonpayable",
      "type": "function"
    },
    {
      "inputs": [
        {
          "internalType": "bytes32",
          "name": "role",
          "type": "bytes32"
        },
        {
          "internalType": "address",
          "name": "account",
          "type": "address"
        }
      ],
      "name": "revokeRole",
      "outputs": [],
      "stateMutability": "nonpayable",
      "type": "function"
    },
    {
      "inputs": [
        {
          "internalType": "address",
          "name": "",
          "type": "address"
        },
        {
          "internalType": "uint256",
          "name": "",
          "type": "uint256"
        },
        {
          "internalType": "bytes",
          "name": "",
          "type": "bytes"
        }
      ],
      "name": "send",
      "outputs": [],
      "stateMutability": "pure",
      "type": "function"
    },
    {
      "inputs": [
        {
          "internalType": "bytes4",
          "name": "interfaceId",
          "type": "bytes4"
        }
      ],
      "name": "supportsInterface",
      "outputs": [
        {
          "internalType": "bool",
          "name": "",
          "type": "bool"
        }
      ],
      "stateMutability": "view",
      "type": "function"
    },
    {
      "inputs": [],
      "name": "symbol",
      "outputs": [
        {
          "internalType": "string",
          "name": "",
          "type": "string"
        }
      ],
      "stateMutability": "view",
      "type": "function"
    },
    {
      "inputs": [],
      "name": "totalSupply",
      "outputs": [
        {
          "internalType": "uint256",
          "name": "",
          "type": "uint256"
        }
      ],
      "stateMutability": "view",
      "type": "function"
    },
    {
      "inputs": [
        {
          "internalType": "address",
          "name": "",
          "type": "address"
        },
        {
          "internalType": "uint256",
          "name": "",
          "type": "uint256"
        }
      ],
      "name": "transfer",
      "outputs": [
        {
          "internalType": "bool",
          "name": "",
          "type": "bool"
        }
      ],
      "stateMutability": "pure",
      "type": "function"
    },
    {
      "inputs": [
        {
          "internalType": "address",
          "name": "",
          "type": "address"
        },
        {
          "internalType": "address",
          "name": "",
          "type": "address"
        },
        {
          "internalType": "uint256",
          "name": "",
          "type": "uint256"
        }
      ],
      "name": "transferFrom",
      "outputs": [
        {
          "internalType": "bool",
          "name": "",
          "type": "bool"
        }
      ],
      "stateMutability": "pure",
      "type": "function"
    },
    {
      "inputs": [
        {
          "internalType": "address",
          "name": "account",
          "type": "address"
        }
      ],
      "name": "unlockedBalanceOf",
      "outputs": [
        {
          "internalType": "uint256",
          "name": "",
          "type": "uint256"
        }
      ],
      "stateMutability": "view",
      "type": "function"
    },
    {
      "inputs": [],
      "name": "unpause",
      "outputs": [],
      "stateMutability": "nonpayable",
      "type": "function"
    },
    {
      "inputs": [
        {
          "internalType": "contract BridgedPolygonNORI",
          "name": "newUnderlying",
          "type": "address"
        }
      ],
      "name": "updateUnderlying",
      "outputs": [],
      "stateMutability": "nonpayable",
      "type": "function"
    },
    {
      "inputs": [
        {
          "internalType": "address",
          "name": "account",
          "type": "address"
        }
      ],
      "name": "vestedBalanceOf",
      "outputs": [
        {
          "internalType": "uint256",
          "name": "",
          "type": "uint256"
        }
      ],
      "stateMutability": "view",
      "type": "function"
    },
    {
      "inputs": [
        {
          "internalType": "address",
          "name": "recipient",
          "type": "address"
        },
        {
          "internalType": "uint256",
          "name": "amount",
          "type": "uint256"
        }
      ],
      "name": "withdrawTo",
      "outputs": [
        {
          "internalType": "bool",
          "name": "",
          "type": "bool"
        }
      ],
      "stateMutability": "nonpayable",
      "type": "function"
    }
  ],
  "bytecode": "0x60806040523480156200001157600080fd5b506200001c62000022565b620000e4565b600054610100900460ff16156200008f5760405162461bcd60e51b815260206004820152602760248201527f496e697469616c697a61626c653a20636f6e747261637420697320696e697469604482015266616c697a696e6760c81b606482015260840160405180910390fd5b60005460ff9081161015620000e2576000805460ff191660ff9081179091556040519081527f7f26b83ff96e1f2b6a682f133852f6798a09c465da95921460cefb38474024989060200160405180910390a15b565b614f6f80620000f46000396000f3fe608060405234801561001057600080fd5b506004361061021a5760003560e01c806301ffc9a71461021f57806306e485381461024757806306fdde031461025c578063095ea7b3146102715780630e2d1a2a1461028457806318160ddd146102a5578063205c2878146102ad57806323b872dd146102c0578063248a9ca3146102d3578063271c6e1a146102e65780632f2ff15d146102fb5780632f4f21e21461030e578063313ce5671461032157806336568abe146103305780633f4ba83a1461034357806342f822601461034b578063458c738e1461035e578063521189a91461037e578063556f0dc7146103935780635c975abb1461039a57806362ad1b83146103a5578063633d9be0146103b857806366cf8bce146103cd57806370a08231146103e05780638456cb59146103f357806384955c88146103fb5780639010d07c1461040e57806391d148541461042e578063959b8c3f1461044157806395d89b41146104545780639952d6e41461045c5780639bd9bbc61461046f5780639e3f3cac146104825780639f916c2114610495578063a217fddf146104b5578063a9059cbb146104bd578063bf31dbf4146104d0578063c4d66de8146104f0578063ca15c87314610503578063d547741f14610516578063d95b637114610529578063dd62ed3e1461053c578063e63ab1e914610575578063fad8b32a1461058a578063fc673c4f1461059d578063fe9d9303146105b0575b600080fd5b61023261022d366004613e1b565b6105be565b60405190151581526020015b60405180910390f35b61024f6105e9565b60405161023e9190613e89565b61026461064b565b60405161023e9190613ef4565b61023261027f366004613f1c565b6106d4565b610297610292366004613f48565b6106f9565b60405190815260200161023e565b603454610297565b6102326102bb366004613f1c565b610705565b6102326102ce366004613f65565b610885565b6102976102e1366004613fa6565b6108cf565b6102f96102f4366004613fbf565b6108e4565b005b6102f961030936600461403e565b610989565b61023261031c366004613f1c565b6109aa565b6040516012815260200161023e565b6102f961033e36600461403e565b610b4b565b6102f9610bc9565b6102f9610359366004613f48565b610bec565b61037161036c366004614174565b610cdf565b60405161023e91906141d8565b610297600080516020614eba83398151915281565b6001610297565b60655460ff16610232565b6102f96103b336600461425a565b610d8a565b610297600080516020614eda83398151915281565b6102f96103db366004614438565b610dd1565b6102976103ee366004613f48565b6110b0565b6102f96110cb565b610297610409366004613f48565b6110eb565b61042161041c3660046144fc565b6110f7565b60405161023e919061451e565b61023261043c36600461403e565b61110f565b6102f961044f366004613f48565b61113a565b61026461114e565b6102f961046a36600461457d565b61115d565b6102f961047d366004614640565b61135f565b610297610490366004613f48565b61139e565b6104a86104a3366004614698565b6113cb565b60405161023e9190614794565b610297600081565b6102326104cb366004613f1c565b611490565b6104e36104de366004613f48565b6114d6565b60405161023e91906147e3565b6102f96104fe366004613f48565b6115d2565b610297610511366004613fa6565b6117e8565b6102f961052436600461403e565b6117ff565b6102326105373660046147f2565b61181b565b61029761054a3660046147f2565b6001600160a01b039182166000908152603b6020908152604080832093909416825291909152205490565b610297600080516020614efa83398151915281565b6102f9610598366004613f48565b6118bc565b6102f96105ab366004614820565b6118d0565b6102f96105ab36600461489f565b60006001600160e01b03198216635a05180f60e01b14806105e357506105e382611917565b92915050565b6060603780548060200260200160405190810160405280929190818152602001828054801561064157602002820191906000526020600020905b81546001600160a01b03168152600190910190602001808311610623575b5050505050905090565b60606035805461065a906148e5565b80601f0160208091040260200160405190810160405280929190818152602001828054610686906148e5565b80156106415780601f106106a857610100808354040283529160200191610641565b820191906000526020600020905b8154815290600101906020018083116106b657509395945050505050565b60006106de61194c565b6106e88383611994565b6106f283836119dc565b9392505050565b60006105e382426119f4565b600061070f61194c565b33600081815261015f602090815260408083208151808401835284815282519384019092529282529192610747929091869190611add565b8281600d01600082825461075b9190614935565b90915550506101605460405163a9059cbb60e01b81526001600160a01b039091169063a9059cbb90610793908790879060040161494d565b6020604051808303816000875af11580156107b2573d6000803e3d6000fd5b505050506040513d601f19601f820116820180604052508101906107d69190614966565b15610825576040518381526001600160a01b0385169033907fa86305abc2db271df4609aa86a8d044bc11fb36939841bfdad6c1ab2b26e94719060200160405180910390a360019150506105e3565b60405162461bcd60e51b815260206004820152602a60248201527f6c4e6f72693a205472616e7366657220746f20756e6465726c79696e672061736044820152691cd95d0819985a5b195960b21b60648201526084015b60405180910390fd5b60405162461bcd60e51b815260206004820152601c60248201527b1b1393d4924e881d1c985b9cd9995c919c9bdb48191a5cd8589b195960221b604482015260009060640161087c565b600090815260c9602052604090206001015490565b6108ec61194c565b600080516020614eda83398151915261090481611c8d565b604080516001600160a01b038d1660208201529081018b9052606081018a90526080810189905260a0810188905260c0810187905260e0810186905261010081018590526101208101849052610140810183905260009061016001604051602081830303815290604052905061097a8d82611c97565b50505050505050505050505050565b610992826108cf565b61099b81611c8d565b6109a5838361207a565b505050565b60006109b461194c565b6001600160a01b038316600090815261015f60205260409020600f015460ff16610a2e5760405162461bcd60e51b815260206004820152602560248201527f6c4e4f52493a2043616e6e6f74206465706f73697420776974686f757420612060448201526419dc985b9d60da1b606482015260840161087c565b610160546001600160a01b03166323b872dd336040516001600160e01b031960e084901b1681526001600160a01b039091166004820152306024820152604481018590526064016020604051808303816000875af1158015610a94573d6000803e3d6000fd5b505050506040513d601f19601f82011682018060405250810190610ab89190614966565b15610aef57610ae78383604051806020016040528060008152506040518060200160405280600081525061208e565b5060016105e3565b60405162461bcd60e51b815260206004820152602b60248201527f6c4e6f72693a207472616e7366657246726f6d20756e6465726c79696e67206160448201526a1cdcd95d0819985a5b195960aa1b606482015260840161087c565b6001600160a01b0381163314610bbb5760405162461bcd60e51b815260206004820152602f60248201527f416363657373436f6e74726f6c3a2063616e206f6e6c792072656e6f756e636560448201526e103937b632b9903337b91039b2b63360891b606482015260840161087c565b610bc582826120a2565b5050565b600080516020614efa833981519152610be181611c8d565b610be96120b6565b50565b610bf461194c565b6000610bff81611c8d565b610160546001600160a01b039081169083168103610c7e5760405162461bcd60e51b815260206004820152603660248201527f6c4e6f72693a207570646174696e6720756e6465726c79696e67206164647265604482015275737320746f206578697374696e67206164647265737360501b606482015260840161087c565b61016080546001600160a01b0319166001600160a01b0385811691821790925560408051928416835260208301919091527f1fc9b2467a9c193cab5b6f03eefe74f1e3140becc7ff93728101335e77fef679910160405180910390a1505050565b6060600082516001600160401b03811115610cfc57610cfc61406e565b604051908082528060200260200182016040528015610d25578160200160208202803683370190505b50905060005b8351811015610d8357610d56848281518110610d4957610d49614983565b60200260200101516110b0565b828281518110610d6857610d68614983565b6020908102919091010152610d7c81614999565b9050610d2b565b5092915050565b60405162461bcd60e51b815260206004820152601c60248201527b1b1393d4924e881bdc195c985d1bdc94d95b9908191a5cd8589b195960221b604482015260640161087c565b8351855114610e455760405162461bcd60e51b81526020600482015260466024820152600080516020614e9a83398151915260448201527f3a20726563697069656e7420616e6420616d6f756e74206c656e677468206d696064820152650e6dac2e8c6d60d31b608482015260a40161087c565b8251845114610eb95760405162461bcd60e51b81526020600482015260466024820152600080516020614e9a83398151915260448201527f3a20616d6f756e747320616e64207573657244617461206c656e677468206d696064820152650e6dac2e8c6d60d31b608482015260a40161087c565b8151835114610f325760405162461bcd60e51b815260206004820152604b6024820152600080516020614e9a83398151915260448201527f3a20757365724461746120616e64206f70657261746f7244617461206c656e6760648201526a0e8d040dad2e6dac2e8c6d60ab1b608482015260a40161087c565b8051825114610fb65760405162461bcd60e51b81526020600482015260566024820152600080516020614e9a83398151915260448201527f3a206f70657261746f724461746120616e6420726571756972655265636570746064820152750d2dedc82c6d640d8cadccee8d040dad2e6dac2e8c6d60531b608482015260a40161087c565b60005b855181101561105f5761104d33878381518110610fd857610fd8614983565b6020026020010151878481518110610ff257610ff2614983565b602002602001015187858151811061100c5761100c614983565b602002602001015187868151811061102657611026614983565b602002602001015187878151811061104057611040614983565b6020026020010151612102565b8061105781614999565b915050610fb9565b50336001600160a01b03167fd5865ae34f92a2d6a803fa13140b8165046f54e61e68560b26950c62a668c6b686868686866040516110a1959493929190614a07565b60405180910390a25050505050565b6001600160a01b031660009081526033602052604090205490565b600080516020614efa8339815191526110e381611c8d565b610be96121fe565b60006105e3824261223b565b600082815260fb602052604081206106f2908361232d565b600091825260c9602090815260408084206001600160a01b0393909316845291905290205460ff1690565b611145816000611994565b610be981612339565b60606036805461065a906148e5565b61116561194c565b600080516020614eda83398151915261117d81611c8d565b8786146111e75760405162461bcd60e51b815260206004820152603260248201527f6c4e4f52493a2066726f6d4163636f756e747320616e6420746f4163636f756e6044820152710e8e640d8cadccee8d040dad2e6dac2e8c6d60731b606482015260840161087c565b85841461124c5760405162461bcd60e51b815260206004820152602d60248201527f6c4e4f52493a20746f4163636f756e747320616e6420617454696d6573206c6560448201526c0dccee8d040dad2e6dac2e8c6d609b1b606482015260840161087c565b8382146112ae5760405162461bcd60e51b815260206004820152602a60248201527f6c4e4f52493a20617454696d657320616e6420616d6f756e7473206c656e67746044820152690d040dad2e6dac2e8c6d60b31b606482015260840161087c565b60005b88811015611353576113418a8a838181106112ce576112ce614983565b90506020020160208101906112e39190613f48565b8989848181106112f5576112f5614983565b905060200201602081019061130a9190613f48565b88888581811061131c5761131c614983565b9050602002013587878681811061133557611335614983565b90506020020135612456565b8061134b81614999565b9150506112b1565b50505050505050505050565b60405162461bcd60e51b81526020600482015260146024820152731b1393d4924e881cd95b9908191a5cd8589b195960621b604482015260640161087c565b6001600160a01b038116600090815261015f60205260408120600c810154600e8201546106f29190614a9c565b60606000826001600160401b038111156113e7576113e761406e565b60405190808252806020026020018201604052801561142057816020015b61140d613d19565b8152602001906001900390816114055790505b50905060005b838110156114885761145885858381811061144357611443614983565b90506020020160208101906104de9190613f48565b82828151811061146a5761146a614983565b6020026020010181905250808061148090614999565b915050611426565b509392505050565b60405162461bcd60e51b81526020600482015260186024820152771b1393d4924e881d1c985b9cd9995c88191a5cd8589b195960421b604482015260009060640161087c565b6114de613d19565b506001600160a01b0316600081815261015f60209081526040808320815161020081018352600c82015481528084019590955260068101548583015260018082015460608701526007820154608087015284805260098201808552838620805460a0890152828752818652848720805460c08a01528780526003850180885286892085015460e08b01528489528752948720830154610100890152820154610120880152948190529390925290910154610140830152600d810154610160830152600e81015461018083015260108101546101a083015260118101546101c0830152600f015460ff1615156101e082015290565b600054610100900460ff16158080156115f25750600054600160ff909116105b8061161357506116013061286d565b158015611613575060005460ff166001145b6116765760405162461bcd60e51b815260206004820152602e60248201527f496e697469616c697a61626c653a20636f6e747261637420697320616c72656160448201526d191e481a5b9a5d1a585b1a5e995960921b606482015260840161087c565b6000805460ff191660011790558015611699576000805461ff0019166101001790555b6040805160018082528183019092526000916020808301908036833701905050905033816000815181106116cf576116cf614983565b60200260200101906001600160a01b031690816001600160a01b0316815250506116f761287c565b6116ff61287c565b61170761287c565b61170f61287c565b6117176128a3565b61171f6128d6565b61176a6040518060400160405280600b81526020016a4c6f636b6564204e4f524960a81b815250604051806040016040528060058152602001646c4e4f524960d81b81525083612920565b61016080546001600160a01b0319166001600160a01b03851617905561179e600080516020614eda8339815191523361207a565b508015610bc5576000805461ff0019169055604051600181527f7f26b83ff96e1f2b6a682f133852f6798a09c465da95921460cefb38474024989060200160405180910390a15050565b600081815260fb602052604081206105e390612af4565b611808826108cf565b61181181611c8d565b6109a583836120a2565b6000816001600160a01b0316836001600160a01b0316148061188657506001600160a01b03831660009081526038602052604090205460ff16801561188657506001600160a01b038083166000908152603a602090815260408083209387168352929052205460ff16155b806106f25750506001600160a01b0390811660009081526039602090815260408083209490931682529290925290205460ff1690565b6118c7816000611994565b610be981612afe565b60405162461bcd60e51b815260206004820152601c60248201527b1b1393d4924e88189d5c9b9a5b99c81b9bdd081cdd5c1c1bdc9d195960221b604482015260640161087c565b60006001600160e01b03198216637965db0b60e01b14806105e357506301ffc9a760e01b6001600160e01b03198316146105e3565b60655460ff16156119925760405162461bcd60e51b815260206004820152601060248201526f14185d5cd8589b194e881c185d5cd95960821b604482015260640161087c565b565b60405162461bcd60e51b815260206004820181905260248201527f6c4e4f52493a206f70657261746f7220616374696f6e732064697361626c6564604482015260640161087c565b6000336119ea818585612c19565b5060019392505050565b6001600160a01b038216600090815261015f602052604080822090516370a0823160e01b8152829030906370a0823190611a3290889060040161451e565b602060405180830381865afa158015611a4f573d6000803e3d6000fd5b505050506040513d601f19601f82011682018060405250810190611a739190614ab3565b600f83015490915060ff1615611ad557611a8c85612d40565b15611abe57600d820154611aad611aa38487612d71565b84600c0154612d91565b611ab79190614a9c565b9050611ad5565b81600d015482600c0154611ad29190614a9c565b90505b949350505050565b6001600160a01b038416611b3e5760405162461bcd60e51b815260206004820152602260248201527f4552433737373a206275726e2066726f6d20746865207a65726f206164647265604482015261737360f01b606482015260840161087c565b33611b4e81866000878787612da7565b611b5b8186600087612ec6565b6001600160a01b03851660009081526033602052604090205484811015611bd05760405162461bcd60e51b815260206004820152602360248201527f4552433737373a206275726e20616d6f756e7420657863656564732062616c616044820152626e636560e81b606482015260840161087c565b6001600160a01b0386166000908152603360205260408120868303905560348054879290611bff908490614a9c565b92505081905550856001600160a01b0316826001600160a01b03167fa78a9be3a7b862d26933ad85fb11d80ef66b8f972d7cbba06621d583943a4098878787604051611c4d93929190614acc565b60405180910390a36040518581526000906001600160a01b03881690600080516020614f1a833981519152906020015b60405180910390a3505050505050565b610be98133612f9e565b600081806020019051810190611cad9190614b07565b80519091506001600160a01b0316611d175760405162461bcd60e51b815260206004820152602760248201527f6c4e4f52493a20526563697069656e742063616e6e6f74206265207a65726f206044820152666164647265737360c81b606482015260840161087c565b611d33600080516020614eda833981519152826000015161110f565b15611d8f5760405162461bcd60e51b815260206004820152602660248201527f6c4e4f52493a20526563697069656e742063616e6e6f74206265206772616e746044820152651030b236b4b760d11b606482015260840161087c565b8060600151816020015110611dfe5760405162461bcd60e51b815260206004820152602f60248201527f6c4e4f52493a20756e6c6f636b456e6454696d652063616e6e6f74206265206260448201526e65666f726520737461727454696d6560881b606482015260840161087c565b80606001514210611e645760405162461bcd60e51b815260206004820152602a60248201527f6c4e4f52493a20756e6c6f636b456e6454696d652063616e6e6f7420626520696044820152691b881d1a19481c185cdd60b21b606482015260840161087c565b80516001600160a01b0316600090815261015f60205260409020600f015460ff1615611ed05760405162461bcd60e51b815260206004820152601b60248201527a6c4e4f52493a204772616e7420616c72656164792065786973747360281b604482015260640161087c565b80516001600160a01b0316600090815261015f6020908152604091829020600c8101869055600e8101869055600f8101805460ff19166001179055908301519183015190911015611fca578161010001518260c00151101580611f3c57508161012001518260e0015110155b611f885760405162461bcd60e51b815260206004820181905260248201527f6c4e4f52493a20756e6c6f636b20636c696666203e207665737420636c696666604482015260640161087c565b600281018490556020820151815560408201516001820155608082015160c0830151611fb5918391613002565b60a082015160e0830151611fca918391613002565b60088101849055602082015160068201908155606083015160078301556080830151610100840151611ffd929190613002565b60a0820151610120830151612016916006840191613002565b81602001518483600001516001600160a01b03167f17161516b6ce34594617177a800b150a86ddee02c06993a73ef000a02367d1198560400151866060015160405161206c929190918252602082015260400190565b60405180910390a450505050565b6120848282613236565b610bc582826132de565b61209c848484846001613300565b50505050565b6120ac8282613236565b610bc58282613434565b6120be613456565b6065805460ff191690557f5db9ee0a495bf2e6ff9c91a7834c1ba4fdd244a5e8aa4e537bd38aeae4b073aa335b6040516120f8919061451e565b60405180910390a1565b6001600160a01b0386166121675760405162461bcd60e51b815260206004820152602660248201527f4552433737373a207472616e736665722066726f6d20746865207a65726f206160448201526564647265737360d01b606482015260840161087c565b6001600160a01b0385166121c95760405162461bcd60e51b8152602060048201526024808201527f4552433737373a207472616e7366657220746f20746865207a65726f206164646044820152637265737360e01b606482015260840161087c565b336121d8818888888888612da7565b6121e681888888888861349f565b6121f5818888888888886135ff565b50505050505050565b61220661194c565b6065805460ff191660011790557f62e78cea01bee320cd4e420270b5ea74000d11b0c9f74754ebdbfc544b05a2586120eb3390565b6001600160a01b038216600090815261015f602052604080822090516370a0823160e01b8152829030906370a082319061227990889060040161451e565b602060405180830381865afa158015612296573d6000803e3d6000fd5b505050506040513d601f19601f820116820180604052508101906122ba9190614ab3565b905060006122c786612d40565b6122d55782600c01546122df565b6122df8386612d71565b600f84015490915060ff161561232457600d83015461231761230d83612308600688018a612d71565b612d91565b85600c0154612d91565b6123219190614a9c565b91505b50949350505050565b60006106f283836137b1565b6001600160a01b038116330361239d5760405162461bcd60e51b8152602060048201526024808201527f4552433737373a20617574686f72697a696e672073656c66206173206f70657260448201526330ba37b960e11b606482015260840161087c565b6001600160a01b03811660009081526038602052604090205460ff16156123ee57336000908152603a602090815260408083206001600160a01b03851684529091529020805460ff1916905561241d565b3360009081526039602090815260408083206001600160a01b03851684529091529020805460ff191660011790555b60405133906001600160a01b038316907ff4caeb2d6ca8932a215a353d0703c326ec2d81fc68170f320eb2ab49e9df61f990600090a350565b811580156124645750600081115b806124785750600082118015612478575080155b6124e85760405162461bcd60e51b815260206004820152603b60248201527f6c4e4f52493a204d75737420737065636966792061207265766f636174696f6e60448201527a040e8d2daca40dee440c2dc40c2dadeeadce840dcdee840c4dee8d602b1b606482015260840161087c565b6001600160a01b038416600090815261015f60205260409020600f81015460ff1661254e5760405162461bcd60e51b81526020600482015260166024820152756c4e4f52493a206e6f206772616e742065786973747360501b604482015260640161087c565b61255785612d40565b6125b55760405162461bcd60e51b815260206004820152602960248201527f6c4e4f52493a206e6f2076657374696e67207363686564756c6520666f7220746044820152681a1a5cc819dc985b9d60ba1b606482015260840161087c565b6000831580156125c55750600083115b6125cf57836125d1565b425b9050428110156126335760405162461bcd60e51b815260206004820152602760248201527f6c4e4f52493a205265766f636174696f6e2063616e6e6f7420626520696e20746044820152661a19481c185cdd60ca1b606482015260840161087c565b600061263f8383612d71565b905082600c015481106126935760405162461bcd60e51b815260206004820152601c60248201527b1b1393d4924e881d1bdad95b9cc8185b1c9958591e481d995cdd195960221b604482015260640161087c565b60008184600c01546126a59190614a9c565b90506000851561270657818611156126ff5760405162461bcd60e51b815260206004820152601e60248201527f6c4e4f52493a20746f6f2066657720756e76657374656420746f6b656e730000604482015260640161087c565b5084612709565b50805b8085600c01546127199190614a9c565b600c8601556010850184905560118501819055604080516020808201835260008083528351918201909352918252612754918b918491611add565b6101605460405163a9059cbb60e01b81526001600160a01b039091169063a9059cbb90612787908b90859060040161494d565b6020604051808303816000875af11580156127a6573d6000803e3d6000fd5b505050506040513d601f19601f820116820180604052508101906127ca9190614966565b61282a5760405162461bcd60e51b815260206004820152602b60248201527f6c4e6f72693a207472616e73666572206f6620756e6465726c79696e6720617360448201526a39b2ba103330b4b632b21760a91b606482015260840161087c565b80896001600160a01b0316857f0bbe3f9ae306d75ae6df08cd4a79ac5c6eae93ffae7d7e52f2859bf27592519d60405160405180910390a4505050505050505050565b6001600160a01b03163b151590565b600054610100900460ff166119925760405162461bcd60e51b815260040161087c90614b95565b600054610100900460ff166128ca5760405162461bcd60e51b815260040161087c90614b95565b6065805460ff19169055565b600054610100900460ff166128fd5760405162461bcd60e51b815260040161087c90614b95565b61290860003361207a565b611992600080516020614efa8339815191523361207a565b600054610100900460ff166129475760405162461bcd60e51b815260040161087c90614b95565b60356129538482614c2e565b5060366129608382614c2e565b508051612974906037906020840190613da1565b5060005b81518110156129dd5760016038600084848151811061299957612999614983565b6020908102919091018101516001600160a01b03168252810191909152604001600020805460ff1916911515919091179055806129d581614999565b915050612978565b506040516329965a1d60e01b8152731820a4b7618bde71dce8cdc73aab6c95905fad24906329965a1d90612a399030907fac7fbab5f54a3ca8194167523c6753bfeb96a445279294b6125b68cce2177054908290600401614ced565b600060405180830381600087803b158015612a5357600080fd5b505af1158015612a67573d6000803e3d6000fd5b50506040516329965a1d60e01b8152731820a4b7618bde71dce8cdc73aab6c95905fad2492506329965a1d9150612ac69030907faea199e31a596269b42cdafd93407f14436db6e4cad65417994c2eb37381e05a908290600401614ced565b600060405180830381600087803b158015612ae057600080fd5b505af11580156121f5573d6000803e3d6000fd5b60006105e3825490565b336001600160a01b03821603612b605760405162461bcd60e51b815260206004820152602160248201527f4552433737373a207265766f6b696e672073656c66206173206f70657261746f6044820152603960f91b606482015260840161087c565b6001600160a01b03811660009081526038602052604090205460ff1615612bb457336000908152603a602090815260408083206001600160a01b03851684529091529020805460ff19166001179055612be0565b3360009081526039602090815260408083206001600160a01b03851684529091529020805460ff191690555b60405133906001600160a01b038316907f50546e66e5f44d728365dc3908c63bc5cfeeab470722c1677e3073a6ac294aa190600090a350565b6001600160a01b038316612c7d5760405162461bcd60e51b815260206004820152602560248201527f4552433737373a20617070726f76652066726f6d20746865207a65726f206164604482015264647265737360d81b606482015260840161087c565b6001600160a01b038216612cdf5760405162461bcd60e51b815260206004820152602360248201527f4552433737373a20617070726f766520746f20746865207a65726f206164647260448201526265737360e81b606482015260840161087c565b6001600160a01b038381166000818152603b602090815260408083209487168084529482529182902085905590518481527f8c5be1e5ebec7d5bd14f71427d1e84f3dd0314c0f7b2291e5b200ac8c7c3b925910160405180910390a3505050565b6001600160a01b038116600090815261015f60205260408120600f81015460ff1680156106f2575054151592915050565b6000612d7d83836137db565b612d87848461389a565b6106f29190614935565b6000818310612da057816106f2565b5090919050565b60405163555ddc6560e11b8152600090731820a4b7618bde71dce8cdc73aab6c95905fad249063aabbb8ca90612e039089907f29ddb589b1fb5fc7cf394961c1adf5f8c6454761adf795e67fe149f658abe8959060040161494d565b602060405180830381865afa158015612e20573d6000803e3d6000fd5b505050506040513d601f19601f82011682018060405250810190612e449190614d10565b90506001600160a01b038116156121f557604051633ad5cbc160e11b81526001600160a01b038216906375ab978290612e8b908a908a908a908a908a908a90600401614d2d565b600060405180830381600087803b158015612ea557600080fd5b505af1158015612eb9573d6000803e3d6000fd5b5050505050505050505050565b6001600160a01b0383811615908316156000612ef0600080516020614eda8339815191528861110f565b90506001600160a01b0387811690871614156000612f0d886110eb565b86111590506000612f1d896110b0565b8711159050848015612f2c5750825b8015612f355750835b15612f675786612f448a6110b0565b1015612f625760405162461bcd60e51b815260040161087c90614d87565b612f92565b85612f9257818015612f765750805b612f925760405162461bcd60e51b815260040161087c90614d87565b6113538a8a8a8a613910565b612fa8828261110f565b610bc557612fc0816001600160a01b0316601461391d565b612fcb83602061391d565b604051602001612fdc929190614dbc565b60408051601f198184030181529082905262461bcd60e51b825261087c91600401613ef4565b600483015460008190036130795783548310156130745760405162461bcd60e51b815260206004820152602a60248201527f5363686564756c655574696c733a20436c696666206265666f72652073636865604482015269191d5b19481cdd185c9d60b21b606482015260840161087c565b6130fb565b60038401600061308a600184614a9c565b8152602001908152602001600020600001548310156130fb5760405162461bcd60e51b815260206004820152602760248201527f5363686564756c655574696c733a20436c69666673206e6f74206368726f6e6f6044820152661b1bd9da58d85b60ca1b606482015260840161087c565b83600101548311156131675760405162461bcd60e51b815260206004820152602f60248201527f5363686564756c655574696c733a20436c696666732063616e6e6f7420656e6460448201526e206166746572207363686564756c6560881b606482015260840161087c565b836002015482856005015461317c9190614935565b11156131dc5760405162461bcd60e51b815260206004820152602960248201527f5363686564756c655574696c733a20436c69666620616d6f756e747320657863604482015268195959081d1bdd185b60ba1b606482015260840161087c565b6000818152600385016020526040812084815560018082018590556004870180549293919290919061320f908490614935565b925050819055508285600501600082825461322a9190614935565b90915550505050505050565b6132408282613ab8565b600080516020614eda8339815191528203610bc5576001600160a01b038116600090815261015f60205260409020600f015460ff1615610bc55760405162461bcd60e51b815260206004820152603360248201527f6c4e4f52493a2043616e6e6f742061737369676e20726f6c6520746f2061206760448201527272616e7420686f6c646572206164647265737360681b606482015260840161087c565b6132e88282613ac0565b600082815260fb602052604090206109a59082613b46565b6001600160a01b0385166133565760405162461bcd60e51b815260206004820181905260248201527f4552433737373a206d696e7420746f20746865207a65726f2061646472657373604482015260640161087c565b336133648160008888612ec6565b84603460008282546133769190614935565b90915550506001600160a01b038616600090815260336020526040812080548792906133a3908490614935565b909155506133b9905081600088888888886135ff565b856001600160a01b0316816001600160a01b03167f2fe5be0146f74c5bce36c0b80911af6c7d86ff27e89d5cfa61fc681327954e5d87878760405161340093929190614acc565b60405180910390a36040518581526001600160a01b03871690600090600080516020614f1a83398151915290602001611c7d565b61343e8282613b5b565b600082815260fb602052604090206109a59082613bc2565b60655460ff166119925760405162461bcd60e51b815260206004820152601460248201527314185d5cd8589b194e881b9bdd081c185d5cd95960621b604482015260640161087c565b6134ab86868686612ec6565b6001600160a01b038516600090815260336020526040902054838110156135245760405162461bcd60e51b815260206004820152602760248201527f4552433737373a207472616e7366657220616d6f756e7420657863656564732060448201526662616c616e636560c81b606482015260840161087c565b6001600160a01b0380871660009081526033602052604080822087850390559187168152908120805486929061355b908490614935565b92505081905550846001600160a01b0316866001600160a01b0316886001600160a01b03167f06b541ddaa720db2b10a4d0cdac39b8d360425fc073085fac19bc826146779878787876040516135b393929190614acc565b60405180910390a4846001600160a01b0316866001600160a01b0316600080516020614f1a833981519152866040516135ee91815260200190565b60405180910390a350505050505050565b60405163555ddc6560e11b8152600090731820a4b7618bde71dce8cdc73aab6c95905fad249063aabbb8ca90613649908990600080516020614eba8339815191529060040161494d565b602060405180830381865afa158015613666573d6000803e3d6000fd5b505050506040513d601f19601f8201168201806040525081019061368a9190614d10565b90506001600160a01b03811615613706576040516223de2960e01b81526001600160a01b038216906223de29906136cf908b908b908b908b908b908b90600401614d2d565b600060405180830381600087803b1580156136e957600080fd5b505af11580156136fd573d6000803e3d6000fd5b505050506137a7565b81156137a75761371e866001600160a01b031661286d565b156137a75760405162461bcd60e51b815260206004820152604d60248201527f4552433737373a20746f6b656e20726563697069656e7420636f6e747261637460448201527f20686173206e6f20696d706c656d656e74657220666f7220455243373737546f60648201526c1ad95b9cd49958da5c1a595b9d609a1b608482015260a40161087c565b5050505050505050565b60008260000182815481106137c8576137c8614983565b9060005260206000200154905092915050565b600080836005015484600201541061380457836005015484600201546138019190614a9c565b90505b836001015483106138165790506105e3565b835460048501541561384e57846003016000600187600401546138399190614a9c565b81526020019081526020016000206000015490505b60008186600101546138609190614a9c565b905081851061388d57806138748387614a9c565b61387e9085614e2b565b6138889190614e4a565b613890565b60005b9695505050505050565b60048201546000908190815b818110156138f857600081815260038701602052604090205485106138e65760008181526003870160205260409020600101546138e39084614935565b92505b806138f081614999565b9150506138a6565b50613907856002015483612d91565b95945050505050565b61391861194c565b61209c565b6060600061392c836002614e2b565b613937906002614935565b6001600160401b0381111561394e5761394e61406e565b6040519080825280601f01601f191660200182016040528015613978576020820181803683370190505b509050600360fc1b8160008151811061399357613993614983565b60200101906001600160f81b031916908160001a905350600f60fb1b816001815181106139c2576139c2614983565b60200101906001600160f81b031916908160001a90535060006139e6846002614e2b565b6139f1906001614935565b90505b6001811115613a69576f181899199a1a9b1b9c1cb0b131b232b360811b85600f1660108110613a2557613a25614983565b1a60f81b828281518110613a3b57613a3b614983565b60200101906001600160f81b031916908160001a90535060049490941c93613a6281614e6c565b90506139f4565b5083156106f25760405162461bcd60e51b815260206004820181905260248201527f537472696e67733a20686578206c656e67746820696e73756666696369656e74604482015260640161087c565b610bc561194c565b613aca828261110f565b610bc557600082815260c9602090815260408083206001600160a01b03851684529091529020805460ff19166001179055613b023390565b6001600160a01b0316816001600160a01b0316837f2f8788117e7eff1d82e926ec794901d17c78024a50270940304540a733656f0d60405160405180910390a45050565b60006106f2836001600160a01b038416613bd7565b613b65828261110f565b15610bc557600082815260c9602090815260408083206001600160a01b0385168085529252808320805460ff1916905551339285917ff6391f5c32d9c69d2a47ea670b442974b53935d1edc7fd64eb21e047a839171b9190a45050565b60006106f2836001600160a01b038416613c26565b6000818152600183016020526040812054613c1e575081546001818101845560008481526020808220909301849055845484825282860190935260409020919091556105e3565b5060006105e3565b60008181526001830160205260408120548015613d0f576000613c4a600183614a9c565b8554909150600090613c5e90600190614a9c565b9050818114613cc3576000866000018281548110613c7e57613c7e614983565b9060005260206000200154905080876000018481548110613ca157613ca1614983565b6000918252602080832090910192909255918252600188019052604090208390555b8554869080613cd457613cd4614e83565b6001900381819060005260206000200160009055905585600101600086815260200190815260200160002060009055600193505050506105e3565b60009150506105e3565b6040518061020001604052806000815260200160006001600160a01b03168152602001600081526020016000815260200160008152602001600081526020016000815260200160008152602001600081526020016000815260200160008152602001600081526020016000815260200160008152602001600081526020016000151581525090565b828054828255906000526020600020908101928215613df6579160200282015b82811115613df657825182546001600160a01b0319166001600160a01b03909116178255602090920191600190910190613dc1565b50613e02929150613e06565b5090565b5b80821115613e025760008155600101613e07565b600060208284031215613e2d57600080fd5b81356001600160e01b0319811681146106f257600080fd5b600081518084526020808501945080840160005b83811015613e7e5781516001600160a01b031687529582019590820190600101613e59565b509495945050505050565b6020815260006106f26020830184613e45565b60005b83811015613eb7578181015183820152602001613e9f565b8381111561209c5750506000910152565b60008151808452613ee0816020860160208601613e9c565b601f01601f19169290920160200192915050565b6020815260006106f26020830184613ec8565b6001600160a01b0381168114610be957600080fd5b60008060408385031215613f2f57600080fd5b8235613f3a81613f07565b946020939093013593505050565b600060208284031215613f5a57600080fd5b81356106f281613f07565b600080600060608486031215613f7a57600080fd5b8335613f8581613f07565b92506020840135613f9581613f07565b929592945050506040919091013590565b600060208284031215613fb857600080fd5b5035919050565b60008060008060008060008060008060006101608c8e031215613fe157600080fd5b8b359a5060208c0135613ff381613f07565b9a9d9a9c505050506040890135986060810135986080820135985060a0820135975060c0820135965060e0820135955061010082013594506101208201359350610140909101359150565b6000806040838503121561405157600080fd5b82359150602083013561406381613f07565b809150509250929050565b634e487b7160e01b600052604160045260246000fd5b60405161014081016001600160401b03811182821017156140a7576140a761406e565b60405290565b604051601f8201601f191681016001600160401b03811182821017156140d5576140d561406e565b604052919050565b60006001600160401b038211156140f6576140f661406e565b5060051b60200190565b600082601f83011261411157600080fd5b81356020614126614121836140dd565b6140ad565b82815260059290921b8401810191818101908684111561414557600080fd5b8286015b8481101561416957803561415c81613f07565b8352918301918301614149565b509695505050505050565b60006020828403121561418657600080fd5b81356001600160401b0381111561419c57600080fd5b611ad584828501614100565b600081518084526020808501945080840160005b83811015613e7e578151875295820195908201906001016141bc565b6020815260006106f260208301846141a8565b600082601f8301126141fc57600080fd5b81356001600160401b038111156142155761421561406e565b614228601f8201601f19166020016140ad565b81815284602083860101111561423d57600080fd5b816020850160208301376000918101602001919091529392505050565b600080600080600060a0868803121561427257600080fd5b853561427d81613f07565b9450602086013561428d81613f07565b93506040860135925060608601356001600160401b03808211156142b057600080fd5b6142bc89838a016141eb565b935060808801359150808211156142d257600080fd5b506142df888289016141eb565b9150509295509295909350565b600082601f8301126142fd57600080fd5b8135602061430d614121836140dd565b82815260059290921b8401810191818101908684111561432c57600080fd5b8286015b848110156141695780358352918301918301614330565b600082601f83011261435857600080fd5b81356020614368614121836140dd565b82815260059290921b8401810191818101908684111561438757600080fd5b8286015b848110156141695780356001600160401b038111156143aa5760008081fd5b6143b88986838b01016141eb565b84525091830191830161438b565b8015158114610be957600080fd5b600082601f8301126143e557600080fd5b813560206143f5614121836140dd565b82815260059290921b8401810191818101908684111561441457600080fd5b8286015b8481101561416957803561442b816143c6565b8352918301918301614418565b600080600080600060a0868803121561445057600080fd5b85356001600160401b038082111561446757600080fd5b61447389838a01614100565b9650602088013591508082111561448957600080fd5b61449589838a016142ec565b955060408801359150808211156144ab57600080fd5b6144b789838a01614347565b945060608801359150808211156144cd57600080fd5b6144d989838a01614347565b935060808801359150808211156144ef57600080fd5b506142df888289016143d4565b6000806040838503121561450f57600080fd5b50508035926020909101359150565b6001600160a01b0391909116815260200190565b60008083601f84011261454457600080fd5b5081356001600160401b0381111561455b57600080fd5b6020830191508360208260051b850101111561457657600080fd5b9250929050565b6000806000806000806000806080898b03121561459957600080fd5b88356001600160401b03808211156145b057600080fd5b6145bc8c838d01614532565b909a50985060208b01359150808211156145d557600080fd5b6145e18c838d01614532565b909850965060408b01359150808211156145fa57600080fd5b6146068c838d01614532565b909650945060608b013591508082111561461f57600080fd5b5061462c8b828c01614532565b999c989b5096995094979396929594505050565b60008060006060848603121561465557600080fd5b833561466081613f07565b92506020840135915060408401356001600160401b0381111561468257600080fd5b61468e868287016141eb565b9150509250925092565b600080602083850312156146ab57600080fd5b82356001600160401b038111156146c157600080fd5b6146cd85828601614532565b90969095509350505050565b8051825260208101516146f760208401826001600160a01b03169052565b5060408181015190830152606080820151908301526080808201519083015260a0808201519083015260c0808201519083015260e08082015190830152610100808201519083015261012080820151908301526101408082015190830152610160808201519083015261018080820151908301526101a080820151908301526101c080820151908301526101e0808201518015158285015261209c565b6020808252825182820181905260009190848201906040850190845b818110156147d7576147c38385516146d9565b9284019261020092909201916001016147b0565b50909695505050505050565b61020081016105e382846146d9565b6000806040838503121561480557600080fd5b823561481081613f07565b9150602083013561406381613f07565b6000806000806080858703121561483657600080fd5b843561484181613f07565b93506020850135925060408501356001600160401b038082111561486457600080fd5b614870888389016141eb565b9350606087013591508082111561488657600080fd5b50614893878288016141eb565b91505092959194509250565b600080604083850312156148b257600080fd5b8235915060208301356001600160401b038111156148cf57600080fd5b6148db858286016141eb565b9150509250929050565b600181811c908216806148f957607f821691505b60208210810361491957634e487b7160e01b600052602260045260246000fd5b50919050565b634e487b7160e01b600052601160045260246000fd5b600082198211156149485761494861491f565b500190565b6001600160a01b03929092168252602082015260400190565b60006020828403121561497857600080fd5b81516106f2816143c6565b634e487b7160e01b600052603260045260246000fd5b6000600182016149ab576149ab61491f565b5060010190565b600081518084526020808501808196508360051b8101915082860160005b858110156149fa5782840389526149e8848351613ec8565b988501989350908401906001016149d0565b5091979650505050505050565b60a081526000614a1a60a0830188613e45565b602083820381850152614a2d82896141a8565b91508382036040850152614a4182886149b2565b91508382036060850152614a5582876149b2565b8481036080860152855180825282870193509082019060005b81811015614a8c578451151583529383019391830191600101614a6e565b50909a9950505050505050505050565b600082821015614aae57614aae61491f565b500390565b600060208284031215614ac557600080fd5b5051919050565b838152606060208201526000614ae56060830185613ec8565b82810360408401526138908185613ec8565b8051614b0281613f07565b919050565b60006101408284031215614b1a57600080fd5b614b22614084565b614b2b83614af7565b81526020830151602082015260408301516040820152606083015160608201526080830151608082015260a083015160a082015260c083015160c082015260e083015160e08201526101008084015181830152506101208084015181830152508091505092915050565b6020808252602b908201527f496e697469616c697a61626c653a20636f6e7472616374206973206e6f74206960408201526a6e697469616c697a696e6760a81b606082015260800190565b601f8211156109a557600081815260208120601f850160051c81016020861015614c075750805b601f850160051c820191505b81811015614c2657828155600101614c13565b505050505050565b81516001600160401b03811115614c4757614c4761406e565b614c5b81614c5584546148e5565b84614be0565b602080601f831160018114614c905760008415614c785750858301515b600019600386901b1c1916600185901b178555614c26565b600085815260208120601f198616915b82811015614cbf57888601518255948401946001909101908401614ca0565b5085821015614cdd5787850151600019600388901b60f8161c191681555b5050505050600190811b01905550565b6001600160a01b0393841681526020810192909252909116604082015260600190565b600060208284031215614d2257600080fd5b81516106f281613f07565b6001600160a01b0387811682528681166020830152851660408201526060810184905260c060808201819052600090614d6890830185613ec8565b82810360a0840152614d7a8185613ec8565b9998505050505050505050565b6020808252601b908201527a6c4e4f52493a20696e73756666696369656e742062616c616e636560281b604082015260600190565b76020b1b1b2b9b9a1b7b73a3937b61d1030b1b1b7bab73a1604d1b815260008351614dee816017850160208801613e9c565b7001034b99036b4b9b9b4b733903937b6329607d1b6017918401918201528351614e1f816028840160208801613e9c565b01602801949350505050565b6000816000190483118215151615614e4557614e4561491f565b500290565b600082614e6757634e487b7160e01b600052601260045260246000fd5b500490565b600081614e7b57614e7b61491f565b506000190190565b634e487b7160e01b600052603160045260246000fdfe4552433737375072657365745061757361626c655065726d697373696f6e6564b281fc8c12954d22544db45de3159a39272895b169a852b314f9cc762e44c53ba52f07bb8dc8df886598eb50edeaba2b8e45715237ed244354b60ea04d0390b865d7a28e3265b37a6474929f336521b332c1681b933f6cb9f3376673440d862addf252ad1be2c89b69c2b068fc378daa952ba7f163c4a11628f55a4df523b3efa26469706673582212205e73ab1dc0e01bd83d2042822b9284bec069473f699f764ae171e60141af38ce64736f6c634300080f0033",
  "linkReferences": {},
  "deployedLinkReferences": {}
}