{
  "_format": "hh-sol-artifact-1",
  "contractName": "LockedNORIV2",
  "sourceName": "contracts/LockedNORIV2.sol",
  "abi": [
    {
      "inputs": [],
      "stateMutability": "nonpayable",
      "type": "constructor"
    },
    {
      "anonymous": false,
      "inputs": [
        {
          "indexed": true,
          "internalType": "address",
          "name": "owner",
          "type": "address"
        },
        {
          "indexed": true,
          "internalType": "address",
          "name": "spender",
          "type": "address"
        },
        {
          "indexed": false,
          "internalType": "uint256",
          "name": "value",
          "type": "uint256"
        }
      ],
      "name": "Approval",
      "type": "event"
    },
    {
      "anonymous": false,
      "inputs": [
        {
          "indexed": true,
          "internalType": "address",
          "name": "operator",
          "type": "address"
        },
        {
          "indexed": true,
          "internalType": "address",
          "name": "tokenHolder",
          "type": "address"
        }
      ],
      "name": "AuthorizedOperator",
      "type": "event"
    },
    {
      "anonymous": false,
      "inputs": [
        {
          "indexed": true,
          "internalType": "address",
          "name": "operator",
          "type": "address"
        },
        {
          "indexed": true,
          "internalType": "address",
          "name": "from",
          "type": "address"
        },
        {
          "indexed": false,
          "internalType": "uint256",
          "name": "amount",
          "type": "uint256"
        },
        {
          "indexed": false,
          "internalType": "bytes",
          "name": "data",
          "type": "bytes"
        },
        {
          "indexed": false,
          "internalType": "bytes",
          "name": "operatorData",
          "type": "bytes"
        }
      ],
      "name": "Burned",
      "type": "event"
    },
    {
      "anonymous": false,
      "inputs": [
        {
          "indexed": false,
          "internalType": "uint8",
          "name": "version",
          "type": "uint8"
        }
      ],
      "name": "Initialized",
      "type": "event"
    },
    {
      "anonymous": false,
      "inputs": [
        {
          "indexed": true,
          "internalType": "address",
          "name": "operator",
          "type": "address"
        },
        {
          "indexed": true,
          "internalType": "address",
          "name": "to",
          "type": "address"
        },
        {
          "indexed": false,
          "internalType": "uint256",
          "name": "amount",
          "type": "uint256"
        },
        {
          "indexed": false,
          "internalType": "bytes",
          "name": "data",
          "type": "bytes"
        },
        {
          "indexed": false,
          "internalType": "bytes",
          "name": "operatorData",
          "type": "bytes"
        }
      ],
      "name": "Minted",
      "type": "event"
    },
    {
      "anonymous": false,
      "inputs": [
        {
          "indexed": false,
          "internalType": "address",
          "name": "account",
          "type": "address"
        }
      ],
      "name": "Paused",
      "type": "event"
    },
    {
      "anonymous": false,
      "inputs": [
        {
          "indexed": true,
          "internalType": "address",
          "name": "operator",
          "type": "address"
        },
        {
          "indexed": true,
          "internalType": "address",
          "name": "tokenHolder",
          "type": "address"
        }
      ],
      "name": "RevokedOperator",
      "type": "event"
    },
    {
      "anonymous": false,
      "inputs": [
        {
          "indexed": true,
          "internalType": "bytes32",
          "name": "role",
          "type": "bytes32"
        },
        {
          "indexed": true,
          "internalType": "bytes32",
          "name": "previousAdminRole",
          "type": "bytes32"
        },
        {
          "indexed": true,
          "internalType": "bytes32",
          "name": "newAdminRole",
          "type": "bytes32"
        }
      ],
      "name": "RoleAdminChanged",
      "type": "event"
    },
    {
      "anonymous": false,
      "inputs": [
        {
          "indexed": true,
          "internalType": "bytes32",
          "name": "role",
          "type": "bytes32"
        },
        {
          "indexed": true,
          "internalType": "address",
          "name": "account",
          "type": "address"
        },
        {
          "indexed": true,
          "internalType": "address",
          "name": "sender",
          "type": "address"
        }
      ],
      "name": "RoleGranted",
      "type": "event"
    },
    {
      "anonymous": false,
      "inputs": [
        {
          "indexed": true,
          "internalType": "bytes32",
          "name": "role",
          "type": "bytes32"
        },
        {
          "indexed": true,
          "internalType": "address",
          "name": "account",
          "type": "address"
        },
        {
          "indexed": true,
          "internalType": "address",
          "name": "sender",
          "type": "address"
        }
      ],
      "name": "RoleRevoked",
      "type": "event"
    },
    {
      "anonymous": false,
      "inputs": [
        {
          "indexed": true,
          "internalType": "address",
          "name": "operator",
          "type": "address"
        },
        {
          "indexed": true,
          "internalType": "address",
          "name": "from",
          "type": "address"
        },
        {
          "indexed": true,
          "internalType": "address",
          "name": "to",
          "type": "address"
        },
        {
          "indexed": false,
          "internalType": "uint256",
          "name": "amount",
          "type": "uint256"
        },
        {
          "indexed": false,
          "internalType": "bytes",
          "name": "data",
          "type": "bytes"
        },
        {
          "indexed": false,
          "internalType": "bytes",
          "name": "operatorData",
          "type": "bytes"
        }
      ],
      "name": "Sent",
      "type": "event"
    },
    {
      "anonymous": false,
      "inputs": [
        {
          "indexed": true,
          "internalType": "address",
          "name": "from",
          "type": "address"
        },
        {
          "indexed": false,
          "internalType": "address[]",
          "name": "recipients",
          "type": "address[]"
        },
        {
          "indexed": false,
          "internalType": "uint256[]",
          "name": "amounts",
          "type": "uint256[]"
        },
        {
          "indexed": false,
          "internalType": "bytes[]",
          "name": "userData",
          "type": "bytes[]"
        },
        {
          "indexed": false,
          "internalType": "bytes[]",
          "name": "operatorData",
          "type": "bytes[]"
        },
        {
          "indexed": false,
          "internalType": "bool[]",
          "name": "requireReceptionAck",
          "type": "bool[]"
        }
      ],
      "name": "SentBatch",
      "type": "event"
    },
    {
      "anonymous": false,
      "inputs": [
        {
          "indexed": true,
          "internalType": "address",
          "name": "recipient",
          "type": "address"
        },
        {
          "indexed": true,
          "internalType": "uint256",
          "name": "amount",
          "type": "uint256"
        },
        {
          "indexed": true,
          "internalType": "uint256",
          "name": "startTime",
          "type": "uint256"
        },
        {
          "indexed": false,
          "internalType": "uint256",
          "name": "vestEndTime",
          "type": "uint256"
        },
        {
          "indexed": false,
          "internalType": "uint256",
          "name": "unlockEndTime",
          "type": "uint256"
        }
      ],
      "name": "TokenGrantCreated",
      "type": "event"
    },
    {
      "anonymous": false,
      "inputs": [
        {
          "indexed": true,
          "internalType": "address",
          "name": "from",
          "type": "address"
        },
        {
          "indexed": true,
          "internalType": "address",
          "name": "to",
          "type": "address"
        },
        {
          "indexed": false,
          "internalType": "uint256",
          "name": "quantity",
          "type": "uint256"
        }
      ],
      "name": "TokensClaimed",
      "type": "event"
    },
    {
      "anonymous": false,
      "inputs": [
        {
          "indexed": true,
          "internalType": "address",
          "name": "from",
          "type": "address"
        },
        {
          "indexed": true,
          "internalType": "address",
          "name": "to",
          "type": "address"
        },
        {
          "indexed": false,
          "internalType": "uint256",
          "name": "value",
          "type": "uint256"
        }
      ],
      "name": "Transfer",
      "type": "event"
    },
    {
      "anonymous": false,
      "inputs": [
        {
          "indexed": false,
          "internalType": "address",
          "name": "from",
          "type": "address"
        },
        {
          "indexed": false,
          "internalType": "address",
          "name": "to",
          "type": "address"
        }
      ],
      "name": "UnderlyingTokenAddressUpdated",
      "type": "event"
    },
    {
      "anonymous": false,
      "inputs": [
        {
          "indexed": false,
          "internalType": "address",
          "name": "account",
          "type": "address"
        }
      ],
      "name": "Unpaused",
      "type": "event"
    },
    {
      "anonymous": false,
      "inputs": [
        {
          "indexed": true,
          "internalType": "uint256",
          "name": "atTime",
          "type": "uint256"
        },
        {
          "indexed": true,
          "internalType": "address",
          "name": "from",
          "type": "address"
        },
        {
          "indexed": true,
          "internalType": "uint256",
          "name": "quantity",
          "type": "uint256"
        }
      ],
      "name": "UnvestedTokensRevoked",
      "type": "event"
    },
    {
      "inputs": [],
      "name": "DEFAULT_ADMIN_ROLE",
      "outputs": [
        {
          "internalType": "bytes32",
          "name": "",
          "type": "bytes32"
        }
      ],
      "stateMutability": "view",
      "type": "function"
    },
    {
      "inputs": [],
      "name": "ERC777_TOKENS_RECIPIENT_HASH",
      "outputs": [
        {
          "internalType": "bytes32",
          "name": "",
          "type": "bytes32"
        }
      ],
      "stateMutability": "view",
      "type": "function"
    },
    {
      "inputs": [],
      "name": "PAUSER_ROLE",
      "outputs": [
        {
          "internalType": "bytes32",
          "name": "",
          "type": "bytes32"
        }
      ],
      "stateMutability": "view",
      "type": "function"
    },
    {
      "inputs": [],
      "name": "TOKEN_GRANTER_ROLE",
      "outputs": [
        {
          "internalType": "bytes32",
          "name": "",
          "type": "bytes32"
        }
      ],
      "stateMutability": "view",
      "type": "function"
    },
    {
      "inputs": [
        {
          "internalType": "address",
          "name": "holder",
          "type": "address"
        },
        {
          "internalType": "address",
          "name": "spender",
          "type": "address"
        }
      ],
      "name": "allowance",
      "outputs": [
        {
          "internalType": "uint256",
          "name": "",
          "type": "uint256"
        }
      ],
      "stateMutability": "view",
      "type": "function"
    },
    {
      "inputs": [
        {
          "internalType": "address",
          "name": "spender",
          "type": "address"
        },
        {
          "internalType": "uint256",
          "name": "value",
          "type": "uint256"
        }
      ],
      "name": "approve",
      "outputs": [
        {
          "internalType": "bool",
          "name": "",
          "type": "bool"
        }
      ],
      "stateMutability": "nonpayable",
      "type": "function"
    },
    {
      "inputs": [
        {
          "internalType": "address",
          "name": "operator",
          "type": "address"
        }
      ],
      "name": "authorizeOperator",
      "outputs": [],
      "stateMutability": "nonpayable",
      "type": "function"
    },
    {
      "inputs": [
        {
          "internalType": "address",
          "name": "tokenHolder",
          "type": "address"
        }
      ],
      "name": "balanceOf",
      "outputs": [
        {
          "internalType": "uint256",
          "name": "",
          "type": "uint256"
        }
      ],
      "stateMutability": "view",
      "type": "function"
    },
    {
      "inputs": [
        {
          "internalType": "address[]",
          "name": "accounts",
          "type": "address[]"
        }
      ],
      "name": "balanceOfBatch",
      "outputs": [
        {
          "internalType": "uint256[]",
          "name": "",
          "type": "uint256[]"
        }
      ],
      "stateMutability": "view",
      "type": "function"
    },
    {
      "inputs": [
        {
          "internalType": "address[]",
          "name": "accounts",
          "type": "address[]"
        }
      ],
      "name": "batchGetGrant",
      "outputs": [
        {
          "components": [
            {
              "internalType": "uint256",
              "name": "grantAmount",
              "type": "uint256"
            },
            {
              "internalType": "address",
              "name": "recipient",
              "type": "address"
            },
            {
              "internalType": "uint256",
              "name": "startTime",
              "type": "uint256"
            },
            {
              "internalType": "uint256",
              "name": "vestEndTime",
              "type": "uint256"
            },
            {
              "internalType": "uint256",
              "name": "unlockEndTime",
              "type": "uint256"
            },
            {
              "internalType": "uint256",
              "name": "cliff1Time",
              "type": "uint256"
            },
            {
              "internalType": "uint256",
              "name": "cliff2Time",
              "type": "uint256"
            },
            {
              "internalType": "uint256",
              "name": "vestCliff1Amount",
              "type": "uint256"
            },
            {
              "internalType": "uint256",
              "name": "vestCliff2Amount",
              "type": "uint256"
            },
            {
              "internalType": "uint256",
              "name": "unlockCliff1Amount",
              "type": "uint256"
            },
            {
              "internalType": "uint256",
              "name": "unlockCliff2Amount",
              "type": "uint256"
            },
            {
              "internalType": "uint256",
              "name": "claimedAmount",
              "type": "uint256"
            },
            {
              "internalType": "uint256",
              "name": "originalAmount",
              "type": "uint256"
            },
            {
              "internalType": "uint256",
              "name": "lastRevocationTime",
              "type": "uint256"
            },
            {
              "internalType": "uint256",
              "name": "lastQuantityRevoked",
              "type": "uint256"
            },
            {
              "internalType": "bool",
              "name": "exists",
              "type": "bool"
            }
          ],
          "internalType": "struct LockedNORIV2.TokenGrantDetail[]",
          "name": "",
          "type": "tuple[]"
        }
      ],
      "stateMutability": "view",
      "type": "function"
    },
    {
      "inputs": [
        {
          "internalType": "address[]",
          "name": "fromAccounts",
          "type": "address[]"
        },
        {
          "internalType": "address[]",
          "name": "toAccounts",
          "type": "address[]"
        },
        {
          "internalType": "uint256[]",
          "name": "atTimes",
          "type": "uint256[]"
        },
        {
          "internalType": "uint256[]",
          "name": "amounts",
          "type": "uint256[]"
        }
      ],
      "name": "batchRevokeUnvestedTokenAmounts",
      "outputs": [],
      "stateMutability": "nonpayable",
      "type": "function"
    },
    {
      "inputs": [
        {
          "internalType": "address[]",
          "name": "recipients",
          "type": "address[]"
        },
        {
          "internalType": "uint256[]",
          "name": "amounts",
          "type": "uint256[]"
        },
        {
          "internalType": "bytes[]",
          "name": "userData",
          "type": "bytes[]"
        },
        {
          "internalType": "bytes[]",
          "name": "operatorData",
          "type": "bytes[]"
        },
        {
          "internalType": "bool[]",
          "name": "requireReceptionAck",
          "type": "bool[]"
        }
      ],
      "name": "batchSend",
      "outputs": [],
      "stateMutability": "nonpayable",
      "type": "function"
    },
    {
      "inputs": [
        {
          "internalType": "uint256",
          "name": "",
          "type": "uint256"
        },
        {
          "internalType": "bytes",
          "name": "",
          "type": "bytes"
        }
      ],
      "name": "burn",
      "outputs": [],
      "stateMutability": "pure",
      "type": "function"
    },
    {
      "inputs": [
        {
          "internalType": "uint256",
          "name": "amount",
          "type": "uint256"
        },
        {
          "internalType": "address",
          "name": "recipient",
          "type": "address"
        },
        {
          "internalType": "uint256",
          "name": "startTime",
          "type": "uint256"
        },
        {
          "internalType": "uint256",
          "name": "vestEndTime",
          "type": "uint256"
        },
        {
          "internalType": "uint256",
          "name": "unlockEndTime",
          "type": "uint256"
        },
        {
          "internalType": "uint256",
          "name": "cliff1Time",
          "type": "uint256"
        },
        {
          "internalType": "uint256",
          "name": "cliff2Time",
          "type": "uint256"
        },
        {
          "internalType": "uint256",
          "name": "vestCliff1Amount",
          "type": "uint256"
        },
        {
          "internalType": "uint256",
          "name": "vestCliff2Amount",
          "type": "uint256"
        },
        {
          "internalType": "uint256",
          "name": "unlockCliff1Amount",
          "type": "uint256"
        },
        {
          "internalType": "uint256",
          "name": "unlockCliff2Amount",
          "type": "uint256"
        }
      ],
      "name": "createGrant",
      "outputs": [],
      "stateMutability": "nonpayable",
      "type": "function"
    },
    {
      "inputs": [],
      "name": "decimals",
      "outputs": [
        {
          "internalType": "uint8",
          "name": "",
          "type": "uint8"
        }
      ],
      "stateMutability": "pure",
      "type": "function"
    },
    {
      "inputs": [],
      "name": "defaultOperators",
      "outputs": [
        {
          "internalType": "address[]",
          "name": "",
          "type": "address[]"
        }
      ],
      "stateMutability": "view",
      "type": "function"
    },
    {
      "inputs": [
        {
          "internalType": "address",
          "name": "recipient",
          "type": "address"
        },
        {
          "internalType": "uint256",
          "name": "amount",
          "type": "uint256"
        }
      ],
      "name": "depositFor",
      "outputs": [
        {
          "internalType": "bool",
          "name": "",
          "type": "bool"
        }
      ],
      "stateMutability": "nonpayable",
      "type": "function"
    },
    {
      "inputs": [
        {
          "internalType": "address",
          "name": "account",
          "type": "address"
        }
      ],
      "name": "getGrant",
      "outputs": [
        {
          "components": [
            {
              "internalType": "uint256",
              "name": "grantAmount",
              "type": "uint256"
            },
            {
              "internalType": "address",
              "name": "recipient",
              "type": "address"
            },
            {
              "internalType": "uint256",
              "name": "startTime",
              "type": "uint256"
            },
            {
              "internalType": "uint256",
              "name": "vestEndTime",
              "type": "uint256"
            },
            {
              "internalType": "uint256",
              "name": "unlockEndTime",
              "type": "uint256"
            },
            {
              "internalType": "uint256",
              "name": "cliff1Time",
              "type": "uint256"
            },
            {
              "internalType": "uint256",
              "name": "cliff2Time",
              "type": "uint256"
            },
            {
              "internalType": "uint256",
              "name": "vestCliff1Amount",
              "type": "uint256"
            },
            {
              "internalType": "uint256",
              "name": "vestCliff2Amount",
              "type": "uint256"
            },
            {
              "internalType": "uint256",
              "name": "unlockCliff1Amount",
              "type": "uint256"
            },
            {
              "internalType": "uint256",
              "name": "unlockCliff2Amount",
              "type": "uint256"
            },
            {
              "internalType": "uint256",
              "name": "claimedAmount",
              "type": "uint256"
            },
            {
              "internalType": "uint256",
              "name": "originalAmount",
              "type": "uint256"
            },
            {
              "internalType": "uint256",
              "name": "lastRevocationTime",
              "type": "uint256"
            },
            {
              "internalType": "uint256",
              "name": "lastQuantityRevoked",
              "type": "uint256"
            },
            {
              "internalType": "bool",
              "name": "exists",
              "type": "bool"
            }
          ],
          "internalType": "struct LockedNORIV2.TokenGrantDetail",
          "name": "",
          "type": "tuple"
        }
      ],
      "stateMutability": "view",
      "type": "function"
    },
    {
      "inputs": [
        {
          "internalType": "bytes32",
          "name": "role",
          "type": "bytes32"
        }
      ],
      "name": "getRoleAdmin",
      "outputs": [
        {
          "internalType": "bytes32",
          "name": "",
          "type": "bytes32"
        }
      ],
      "stateMutability": "view",
      "type": "function"
    },
    {
      "inputs": [
        {
          "internalType": "bytes32",
          "name": "role",
          "type": "bytes32"
        },
        {
          "internalType": "uint256",
          "name": "index",
          "type": "uint256"
        }
      ],
      "name": "getRoleMember",
      "outputs": [
        {
          "internalType": "address",
          "name": "",
          "type": "address"
        }
      ],
      "stateMutability": "view",
      "type": "function"
    },
    {
      "inputs": [
        {
          "internalType": "bytes32",
          "name": "role",
          "type": "bytes32"
        }
      ],
      "name": "getRoleMemberCount",
      "outputs": [
        {
          "internalType": "uint256",
          "name": "",
          "type": "uint256"
        }
      ],
      "stateMutability": "view",
      "type": "function"
    },
    {
      "inputs": [
        {
          "internalType": "bytes32",
          "name": "role",
          "type": "bytes32"
        },
        {
          "internalType": "address",
          "name": "account",
          "type": "address"
        }
      ],
      "name": "grantRole",
      "outputs": [],
      "stateMutability": "nonpayable",
      "type": "function"
    },
    {
      "inputs": [],
      "name": "granularity",
      "outputs": [
        {
          "internalType": "uint256",
          "name": "",
          "type": "uint256"
        }
      ],
      "stateMutability": "view",
      "type": "function"
    },
    {
      "inputs": [
        {
          "internalType": "bytes32",
          "name": "role",
          "type": "bytes32"
        },
        {
          "internalType": "address",
          "name": "account",
          "type": "address"
        }
      ],
      "name": "hasRole",
      "outputs": [
        {
          "internalType": "bool",
          "name": "",
          "type": "bool"
        }
      ],
      "stateMutability": "view",
      "type": "function"
    },
    {
      "inputs": [
        {
          "internalType": "contract BridgedPolygonNORI",
          "name": "bridgedPolygonNoriAddress",
          "type": "address"
        }
      ],
      "name": "initialize",
      "outputs": [],
      "stateMutability": "nonpayable",
      "type": "function"
    },
    {
      "inputs": [
        {
          "internalType": "address",
          "name": "operator",
          "type": "address"
        },
        {
          "internalType": "address",
          "name": "tokenHolder",
          "type": "address"
        }
      ],
      "name": "isOperatorFor",
      "outputs": [
        {
          "internalType": "bool",
          "name": "",
          "type": "bool"
        }
      ],
      "stateMutability": "view",
      "type": "function"
    },
    {
      "inputs": [],
      "name": "name",
      "outputs": [
        {
          "internalType": "string",
          "name": "",
          "type": "string"
        }
      ],
      "stateMutability": "view",
      "type": "function"
    },
    {
      "inputs": [
        {
          "internalType": "address",
          "name": "",
          "type": "address"
        },
        {
          "internalType": "uint256",
          "name": "",
          "type": "uint256"
        },
        {
          "internalType": "bytes",
          "name": "",
          "type": "bytes"
        },
        {
          "internalType": "bytes",
          "name": "",
          "type": "bytes"
        }
      ],
      "name": "operatorBurn",
      "outputs": [],
      "stateMutability": "pure",
      "type": "function"
    },
    {
      "inputs": [
        {
          "internalType": "address",
          "name": "",
          "type": "address"
        },
        {
          "internalType": "address",
          "name": "",
          "type": "address"
        },
        {
          "internalType": "uint256",
          "name": "",
          "type": "uint256"
        },
        {
          "internalType": "bytes",
          "name": "",
          "type": "bytes"
        },
        {
          "internalType": "bytes",
          "name": "",
          "type": "bytes"
        }
      ],
      "name": "operatorSend",
      "outputs": [],
      "stateMutability": "pure",
      "type": "function"
    },
    {
      "inputs": [],
      "name": "pause",
      "outputs": [],
      "stateMutability": "nonpayable",
      "type": "function"
    },
    {
      "inputs": [],
      "name": "paused",
      "outputs": [
        {
          "internalType": "bool",
          "name": "",
          "type": "bool"
        }
      ],
      "stateMutability": "view",
      "type": "function"
    },
    {
      "inputs": [
        {
          "internalType": "address",
          "name": "account",
          "type": "address"
        }
      ],
      "name": "quantityRevokedFrom",
      "outputs": [
        {
          "internalType": "uint256",
          "name": "",
          "type": "uint256"
        }
      ],
      "stateMutability": "view",
      "type": "function"
    },
    {
      "inputs": [
        {
          "internalType": "bytes32",
          "name": "role",
          "type": "bytes32"
        },
        {
          "internalType": "address",
          "name": "account",
          "type": "address"
        }
      ],
      "name": "renounceRole",
      "outputs": [],
      "stateMutability": "nonpayable",
      "type": "function"
    },
    {
      "inputs": [
        {
          "internalType": "address",
          "name": "operator",
          "type": "address"
        }
      ],
      "name": "revokeOperator",
      "outputs": [],
      "stateMutability": "nonpayable",
      "type": "function"
    },
    {
      "inputs": [
        {
          "internalType": "bytes32",
          "name": "role",
          "type": "bytes32"
        },
        {
          "internalType": "address",
          "name": "account",
          "type": "address"
        }
      ],
      "name": "revokeRole",
      "outputs": [],
      "stateMutability": "nonpayable",
      "type": "function"
    },
    {
      "inputs": [
        {
          "internalType": "address",
          "name": "",
          "type": "address"
        },
        {
          "internalType": "uint256",
          "name": "",
          "type": "uint256"
        },
        {
          "internalType": "bytes",
          "name": "",
          "type": "bytes"
        }
      ],
      "name": "send",
      "outputs": [],
      "stateMutability": "pure",
      "type": "function"
    },
    {
      "inputs": [
        {
          "internalType": "bytes4",
          "name": "interfaceId",
          "type": "bytes4"
        }
      ],
      "name": "supportsInterface",
      "outputs": [
        {
          "internalType": "bool",
          "name": "",
          "type": "bool"
        }
      ],
      "stateMutability": "view",
      "type": "function"
    },
    {
      "inputs": [],
      "name": "symbol",
      "outputs": [
        {
          "internalType": "string",
          "name": "",
          "type": "string"
        }
      ],
      "stateMutability": "view",
      "type": "function"
    },
    {
      "inputs": [],
      "name": "totalSupply",
      "outputs": [
        {
          "internalType": "uint256",
          "name": "",
          "type": "uint256"
        }
      ],
      "stateMutability": "view",
      "type": "function"
    },
    {
      "inputs": [
        {
          "internalType": "address",
          "name": "",
          "type": "address"
        },
        {
          "internalType": "uint256",
          "name": "",
          "type": "uint256"
        }
      ],
      "name": "transfer",
      "outputs": [
        {
          "internalType": "bool",
          "name": "",
          "type": "bool"
        }
      ],
      "stateMutability": "pure",
      "type": "function"
    },
    {
      "inputs": [
        {
          "internalType": "address",
          "name": "",
          "type": "address"
        },
        {
          "internalType": "address",
          "name": "",
          "type": "address"
        },
        {
          "internalType": "uint256",
          "name": "",
          "type": "uint256"
        }
      ],
      "name": "transferFrom",
      "outputs": [
        {
          "internalType": "bool",
          "name": "",
          "type": "bool"
        }
      ],
      "stateMutability": "pure",
      "type": "function"
    },
    {
      "inputs": [
        {
          "internalType": "address",
          "name": "account",
          "type": "address"
        }
      ],
      "name": "unlockedBalanceOf",
      "outputs": [
        {
          "internalType": "uint256",
          "name": "",
          "type": "uint256"
        }
      ],
      "stateMutability": "view",
      "type": "function"
    },
    {
      "inputs": [],
      "name": "unpause",
      "outputs": [],
      "stateMutability": "nonpayable",
      "type": "function"
    },
    {
      "inputs": [
        {
          "internalType": "contract BridgedPolygonNORI",
          "name": "newUnderlying",
          "type": "address"
        }
      ],
      "name": "updateUnderlying",
      "outputs": [],
      "stateMutability": "nonpayable",
      "type": "function"
    },
    {
      "inputs": [
        {
          "internalType": "address",
          "name": "account",
          "type": "address"
        }
      ],
      "name": "vestedBalanceOf",
      "outputs": [
        {
          "internalType": "uint256",
          "name": "",
          "type": "uint256"
        }
      ],
      "stateMutability": "view",
      "type": "function"
    },
    {
      "inputs": [
        {
          "internalType": "address",
          "name": "recipient",
          "type": "address"
        },
        {
          "internalType": "uint256",
          "name": "amount",
          "type": "uint256"
        }
      ],
      "name": "withdrawTo",
      "outputs": [
        {
          "internalType": "bool",
          "name": "",
          "type": "bool"
        }
      ],
      "stateMutability": "nonpayable",
      "type": "function"
    }
  ],
  "bytecode": "0x60806040523480156200001157600080fd5b50620000467f3f9867765d64fddc8fd95dd6ff5795cb0b6e0d5c74db0ac3c0b8652f70bba05860001b620000c460201b60201c565b6200007a7fc7d07ad2a94031255a63e58d19672cc71a12ac261ecdf9629de5fd0c94a44cf160001b620000c460201b60201c565b620000ae7f8c483fc340a8091e2f883766397c6f7aa94d3134971802a2593c2ec2e17b56d860001b620000c460201b60201c565b620000be620000c760201b60201c565b62000206565b50565b600060019054906101000a900460ff16156200011a576040517f08c379a000000000000000000000000000000000000000000000000000000000815260040162000111906200018e565b60405180910390fd5b60ff801660008054906101000a900460ff1660ff1610156200018c5760ff6000806101000a81548160ff021916908360ff1602179055507f7f26b83ff96e1f2b6a682f133852f6798a09c465da95921460cefb384740249860ff604051620001839190620001f2565b60405180910390a15b565b60208152602760208201527f496e697469616c697a61626c653a20636f6e747261637420697320696e69746960408201527f616c697a696e670000000000000000000000000000000000000000000000000060608201526000608082019050919050565b600060208201905060ff8316825292915050565b61cf5f80620002166000396000f3fe608060405234801561001057600080fd5b506004361061028a5760003560e01c806370a082311161015c578063a217fddf116100ce578063d95b637111610087578063d95b637114610833578063dd62ed3e14610863578063e63ab1e914610893578063fad8b32a146108b1578063fc673c4f146108cd578063fe9d9303146108e95761028a565b8063a217fddf1461074d578063a9059cbb1461076b578063bf31dbf41461079b578063c4d66de8146107cb578063ca15c873146107e7578063d547741f146108175761028a565b8063959b8c3f11610120578063959b8c3f1461067b57806395d89b41146106975780639952d6e4146106b55780639bd9bbc6146106d15780639e3f3cac146106ed5780639f916c211461071d5761028a565b806370a08231146105b15780638456cb59146105e157806384955c88146105eb5780639010d07c1461061b57806391d148541461064b5761028a565b80632f4f21e211610200578063521189a9116101b9578063521189a914610501578063556f0dc71461051f5780635c975abb1461053d57806362ad1b831461055b578063633d9be01461057757806366cf8bce146105955761028a565b80632f4f21e214610441578063313ce5671461047157806336568abe1461048f5780633f4ba83a146104ab57806342f82260146104b5578063458c738e146104d15761028a565b806318160ddd1161025257806318160ddd1461035b578063205c28781461037957806323b872dd146103a9578063248a9ca3146103d9578063271c6e1a146104095780632f2ff15d146104255761028a565b806301ffc9a71461028f57806306e48538146102bf57806306fdde03146102dd578063095ea7b3146102fb5780630e2d1a2a1461032b575b600080fd5b6102a960048036038101906102a4919061a8a2565b610905565b6040516102b6919061a8de565b60405180910390f35b6102c761097f565b6040516102d4919061a94a565b60405180910390f35b6102e5610a0d565b6040516102f2919061a9c6565b60405180910390f35b6103156004803603810190610310919061a9f8565b610a9f565b604051610322919061a8de565b60405180910390f35b6103456004803603810190610340919061aa28565b610ba1565b604051610352919061aa4f565b60405180910390f35b610363610c38565b604051610370919061aa4f565b60405180910390f35b610393600480360381019061038e919061a9f8565b610c42565b6040516103a0919061a8de565b60405180910390f35b6103c360048036038101906103be919061aa60565b61112c565b6040516103d0919061a8de565b60405180910390f35b6103f360048036038101906103ee919061aaa4565b6111ed565b604051610400919061aac0565b60405180910390f35b610423600480360381019061041e919061aad1565b61120d565b005b61043f600480360381019061043a919061ab5b565b61136a565b005b61045b6004803603810190610456919061a9f8565b61138b565b604051610468919061a8de565b60405180910390f35b6104796117dc565b604051610486919061ab8b565b60405180910390f35b6104a960048036038101906104a4919061ab5b565b6117e5565b005b6104b3611868565b005b6104cf60048036038101906104ca919061ab9f565b611921565b005b6104eb60048036038101906104e6919061acec565b611c30565b6040516104f8919061ad6c565b60405180910390f35b610509611e75565b604051610516919061aac0565b60405180910390f35b610527611e99565b604051610534919061aa4f565b60405180910390f35b610545611ea2565b604051610552919061a8de565b60405180910390f35b6105756004803603810190610570919061adf9565b611eb9565b005b61057f611f78565b60405161058c919061aac0565b60405180910390f35b6105af60048036038101906105aa919061b02a565b611f9c565b005b6105cb60048036038101906105c6919061aa28565b6125bb565b6040516105d8919061aa4f565b60405180910390f35b6105e9612604565b005b6106056004803603810190610600919061aa28565b6126bd565b604051610612919061aa4f565b60405180910390f35b6106356004803603810190610630919061b0fc565b612754565b604051610642919061b121565b60405180910390f35b6106656004803603810190610660919061ab5b565b612783565b604051610672919061a8de565b60405180910390f35b6106956004803603810190610690919061aa28565b6127ee565b005b61069f6128e1565b6040516106ac919061a9c6565b60405180910390f35b6106cf60048036038101906106ca919061b187565b612973565b005b6106eb60048036038101906106e6919061b25a565b612e22565b005b6107076004803603810190610702919061aa28565b612ee1565b604051610714919061aa4f565b60405180910390f35b6107376004803603810190610732919061b2b5565b61301f565b604051610744919061b3bc565b60405180910390f35b610755613282565b604051610762919061aac0565b60405180910390f35b6107856004803603810190610780919061a9f8565b613289565b604051610792919061a8de565b60405180910390f35b6107b560048036038101906107b0919061aa28565b61334a565b6040516107c2919061b412565b60405180910390f35b6107e560048036038101906107e0919061ab9f565b6135db565b005b61080160048036038101906107fc919061aaa4565b613cc3565b60405161080e919061aa4f565b60405180910390f35b610831600480360381019061082c919061ab5b565b613ce7565b005b61084d6004803603810190610848919061b42b565b613d08565b60405161085a919061a8de565b60405180910390f35b61087d6004803603810190610878919061b42b565b613eb9565b60405161088a919061aa4f565b60405180910390f35b61089b613f40565b6040516108a8919061aac0565b60405180910390f35b6108cb60048036038101906108c6919061aa28565b613f64565b005b6108e760048036038101906108e2919061b466565b614057565b005b61090360048036038101906108fe919061b4e8565b614116565b005b60007f5a05180f000000000000000000000000000000000000000000000000000000007bffffffffffffffffffffffffffffffffffffffffffffffffffffffff1916827bffffffffffffffffffffffffffffffffffffffffffffffffffffffff191614806109785750610977826141d5565b5b9050919050565b60606037805480602002602001604051908101604052809291908181526020018280548015610a0357602002820191906000526020600020905b8160009054906101000a900473ffffffffffffffffffffffffffffffffffffffff1673ffffffffffffffffffffffffffffffffffffffff16815260200190600101908083116109b9575b5050505050905090565b606060358054610a1c9061b52f565b80601f0160208091040260200160405190810160405280929190818152602001828054610a489061b52f565b8015610a955780601f10610a6a57610100808354040283529160200191610a95565b820191906000526020600020905b815481529060010190602001808311610a7857829003601f168201915b5050505050905090565b6000610aa961424f565b610ad57f7d8cd8960ccc6c9ec8690b002bc799717620455cc8fd180afbefe81ec026681660001b614299565b610b017f25bc6b9eba8b70cfe1c51703fe8bc446bb1b05aae658c02bb6f9965c636b15ca60001b614299565b610b2d7f9f9eca8fd0accd93632d8efbf2f5e69c3da6f1830dd1d393ef68b4cd29f1f27460001b614299565b610b37838361429c565b610b637f32f150475478bd481d60c0d9d42815be5bface209b096169563f4c748473410d60001b614299565b610b8f7fd6f20286832ac547f9df4c6b931ae56140aaf69aaa20cc537abb044759f3c13460001b614299565b610b99838361435b565b905092915050565b6000610bcf7f32e930c8b3e8c5b2506792d297be7dac659225cf21c784a49cea0df82e935fc560001b61437e565b610bfb7fb6032106d19446b9af5c3378fb490c414cc9fd08a72c38ca18a779c63ac0d44060001b61437e565b610c277f2dcb43c2159c9f1af5b37ffa4179f382bf2121633492ee2e431a07cd65320e5560001b61437e565b610c318242614381565b9050919050565b6000603454905090565b6000610c4c61424f565b610c787f5242d0c9380c5997cd734d60a63a2af3875d01afc88b0192485f733bf3786b2160001b61437e565b610ca47f237ddcdf2120752331304199771ba023e3835f4dede9b927ffd8192a0b6a833f60001b61437e565b610cd07f45f6ec29ca2b2856a35c1471db41a50e7b1e6a5ce043fc96ecfee5d65b42845260001b61437e565b600061015f6000610cdf61480f565b73ffffffffffffffffffffffffffffffffffffffff1673ffffffffffffffffffffffffffffffffffffffff1681526020019081526020016000209050610d477ff9b85ae74f13929cedd80464f3dad02e775411f2adea8e4c0378d4be7a896f8c60001b61437e565b610d737f979403c9644545446d5c8d460bb57ba8e23714fafc1bbd9fe556545193f39fe360001b61437e565b610da4610d7e61480f565b846040518060200160405280600081525060405180602001604052806000815250614817565b610dd07f290ce261a90ce82258b2136e75ff2072a73ea915e4c0cbb53f8833512fe83a7360001b61437e565b610dfc7f0ee3a0aca3338a003df6f75bb2278604dc7f9eab8f35f23a7f0f73fff74c6b7e60001b61437e565b8281600d016000828254610e10919061b583565b92505081905550610e437fb54d330206262baed6959ff38327c7af28934cd56e16275a829650d2b7540b0260001b61437e565b610e6f7fcbc35a3eac62e6d98c4d9e6d538886acd3cb6a0a43ee02fe7e357363ef1f816a60001b61437e565b61016060009054906101000a900473ffffffffffffffffffffffffffffffffffffffff1673ffffffffffffffffffffffffffffffffffffffff1663a9059cbb85856040518363ffffffff1660e01b8152600401610ecd92919061b5a2565b6020604051808303816000875af1158015610eec573d6000803e3d6000fd5b505050506040513d601f19601f82011682018060405250810190610f10919061b5c2565b1561106757610f417fc08f2a7c2e3ac14d7e2c2773e4b7b79784923ac820716fa4cfae590d3c735ac560001b61437e565b610f6d7f457d57a1825f6f2acdab5eae4ac55453ae59a994c45311a289ae6dcb4d7f49c260001b61437e565b610f997f39eb8848fc1d7273a7489c03546d90d67a13e4f4a955ff169229b74c3de0601d60001b61437e565b8373ffffffffffffffffffffffffffffffffffffffff16610fb861480f565b73ffffffffffffffffffffffffffffffffffffffff167fa86305abc2db271df4609aa86a8d044bc11fb36939841bfdad6c1ab2b26e947185604051610ffd919061aa4f565b60405180910390a36110317fe608427901c6d54c6e2b40930f4e905551c47ca27368df12bf81a38e6d438f0f60001b61437e565b61105d7ff87575eb26861286a9ce61524f1b30fe1bde9781c848bf53d927aa0f59833ca760001b61437e565b6001915050611126565b6110937fb67f6d43beda46eafc5cb0fe97b54191594562fe40bf7227793b0d78b13a725560001b61437e565b6110bf7f1ed28b03c89dbcfc5198d07814d77e557aa31043fd7c2ec670f3c372ee5b0c8760001b61437e565b6110eb7f70afca35a8566a2a1112e61018c92d8c315b62a9f03f84b9b451d1432141012e60001b61437e565b6040517f08c379a000000000000000000000000000000000000000000000000000000000815260040161111d9061b5e9565b60405180910390fd5b92915050565b600061115a7faf81967202c97b96b86fd97f36f92b8c4ff2d4149e96c97e86e3b053ff66e95c60001b61437e565b6111867fa3b52433684bac1a42a6ae3b158e3df4113f799a6a020980ffcd7fad872a8b4660001b61437e565b6111b27fc6bd530a1eb3fe39c63aab3723c53da13457b898c42c21c86f4186a4e9395aed60001b61437e565b6040517f08c379a00000000000000000000000000000000000000000000000000000000081526004016111e49061b64d565b60405180910390fd5b600060c96000838152602001908152602001600020600101549050919050565b61121561424f565b7fa52f07bb8dc8df886598eb50edeaba2b8e45715237ed244354b60ea04d0390b861123f81614a6b565b61126b7fb86ce569e5ab8469116e89855557819a213d39dbf05e2bba9c6c0d880f978e2a60001b61437e565b6112977fa1201489b8e79b49d47ef1430206f53efea7c76abe282a2489dc95495dc06aa460001b61437e565b6112c37f6d14453f5581e6af1ac103f4253a0e9ea51f7765780a3623f579d458e52278cd60001b61437e565b60008b8b8b8b8b8b8b8b8b8b6040516020016112e89a9998979695949392919061b68b565b60405160208183030381529060405290506113257f881febb7d5139034525f429b5fb9d80d522c7ae994d32994afd403a4d0d77be260001b61437e565b6113517fbb9b8aa1c60639157a5ebfd4bb73dc13e12c5ca93cb008391436a0f50bdd500760001b61437e565b61135b8d82614a7f565b50505050505050505050505050565b611373826111ed565b61137c81614a6b565b6113868383615948565b505050565b600061139561424f565b6113c17fcbdb1bc324b7366d17b4cbdabda49311677f68c9785580524267b400138210f660001b61437e565b6113ed7f612083f40c8c01ecbde1c511f6cf8d7e012a4950771ec147e610b11bb7a3515d60001b61437e565b6114197f4505fd04534b26f8ae6a036d188412c3df27167be3fc9ad1adb46a2f2fc290b660001b61437e565b6114457f38c4dc1ac5f7bdacc59abf7e9a5fabf7f095e9b85d2bd2e8a2c313b463ea126760001b61437e565b61015f60008473ffffffffffffffffffffffffffffffffffffffff1673ffffffffffffffffffffffffffffffffffffffff168152602001908152602001600020600f0160009054906101000a900460ff166114d5576040517f08c379a00000000000000000000000000000000000000000000000000000000081526004016114cc9061b6e6565b60405180910390fd5b6115017ff1d01913974b61fb10a74ef716f733de460cf9a4759b1a573ffc2529d1bc641260001b61437e565b61152d7f188aef46c0663d96dc9e66f0efc6df1b3df11498576686ff013657ff358099c260001b61437e565b6115597ff2bc9b58c27a17aee3cbaa6e9e6aa1c433be6104a93a852b759b58e345cfb2f160001b61437e565b61016060009054906101000a900473ffffffffffffffffffffffffffffffffffffffff1673ffffffffffffffffffffffffffffffffffffffff166323b872dd6115a061480f565b30856040518463ffffffff1660e01b81526004016115c09392919061b74a565b6020604051808303816000875af11580156115df573d6000803e3d6000fd5b505050506040513d601f19601f82011682018060405250810190611603919061b5c2565b15611717576116347fa03db210bb50fca89a66da62495ddb708a70b563621f21abd1f70e34dddc0d8560001b61437e565b6116607fd0549d757086655a168e40cbc94d41100faa68a9a58e2d4afb338e8f80c26c0f60001b61437e565b61168c7fec6464cc620d728bdcad3fe8d20a22bc13c827f6f93aaadfe187fde9193dd2fe60001b61437e565b6116b683836040518060200160405280600081525060405180602001604052806000815250615a3c565b6116e27f1ebaa0f962ed7040898de4d54aeefcdf74662afecb3ffe41ce2fbb37b25bb51660001b61437e565b61170e7f932c7f0e7af188c7a2ed033cbe9daad2076aeaf0232cbb4480b61afebe0068e760001b61437e565b600190506117d6565b6117437fbd2966b7670e3e896d49b2e57ceb5033a392747f629905c60641c35a8dcbccdd60001b61437e565b61176f7f1c647338720ef5b97db91c7f418453e775ae729630dc9c329da435ae0202669860001b61437e565b61179b7faecdcd641d0c8c3485babda83f47b23af81abc26f58310c4b8996fc79a86057160001b61437e565b6040517f08c379a00000000000000000000000000000000000000000000000000000000081526004016117cd9061b775565b60405180910390fd5b92915050565b60006012905090565b6117ed61480f565b73ffffffffffffffffffffffffffffffffffffffff168173ffffffffffffffffffffffffffffffffffffffff161461185a576040517f08c379a00000000000000000000000000000000000000000000000000000000081526004016118519061b7d9565b60405180910390fd5b6118648282615a50565b5050565b7f65d7a28e3265b37a6474929f336521b332c1681b933f6cb9f3376673440d862a61189281614a6b565b6118be7f44262764d8ab3f1b603a58c3cc78eb908d69b3bb810089904e9941f3a1bdc1e560001b614299565b6118ea7f4a9a7aaf6887f7bbea01736ef1d737153f88ae541e279f1f939732a86e11a41e60001b614299565b6119167f7572c67ecf0557bc45bdfa7591e88350ef05ad695991e1499d9d0e5dc0baaaf160001b614299565b61191e615b44565b50565b61192961424f565b6000801b61193681614a6b565b6119627f2b9cedb732d073f443be2edc3e541bd9e892dba0162d30891b12c8cd85cf504b60001b61437e565b61198e7f56b2462ddf0660d9814c650675fca637abac56d5fc99e63f4fb45ec43c1f62e660001b61437e565b6119ba7fe36b20eea2355f79f6a335cff356ac531e0f40417d5b06331146c3743bb350b460001b61437e565b600061016060009054906101000a900473ffffffffffffffffffffffffffffffffffffffff169050611a0e7f2206a72b95e0ae6e94ae3fd61efe4973a6069c7fb76735de35177f5a9671dadb60001b61437e565b611a3a7f9f68f413f88c1143992d9aee55e69d5144ee741797b820c30f29e4acdb2c7afe60001b61437e565b611a667ff625481f887be0f318716ef4a5a3210e802c9abff213ad0dca1b3000d6611c7e60001b61437e565b8273ffffffffffffffffffffffffffffffffffffffff168173ffffffffffffffffffffffffffffffffffffffff1603611ad4576040517f08c379a0000000000000000000000000000000000000000000000000000000008152600401611acb9061b83d565b60405180910390fd5b611b007fb1064adaff8d0e07c9d65097b097662505f31d9c745323665f60010d7931cfd660001b61437e565b611b2c7f633dfdc64622119daee41fe9ffdf22e2a52ee0d6457f16f087a6e865223f665a60001b61437e565b611b587fe5b51d6bb36e9adbfcb6d61ede1b391b35bdb4c37edb47907b099233e2f3a9c860001b61437e565b8261016060006101000a81548173ffffffffffffffffffffffffffffffffffffffff021916908373ffffffffffffffffffffffffffffffffffffffff160217905550611bc67f5507a3ac6611c236cfe4047dc3f00580e77549d4c353e29556d8189bc3185a9960001b61437e565b611bf27fd89bdeb51b6cfa813348720c10f39fb699e62645d5db7c5c43d10eec1b36c4ab60001b61437e565b7f1fc9b2467a9c193cab5b6f03eefe74f1e3140becc7ff93728101335e77fef6798184604051611c2392919061b8a1565b60405180910390a1505050565b6060611c5e7f0f77950df0478016c6fb3d6e3ba96238b40cb0213a682f408f4bc90d9f46002260001b614299565b611c8a7fb391f227530eb714fde77d0c3705329463e2be61443ba4641c07cf277a07585760001b614299565b611cb67fc9bd3bae4e1e1d06a3d0918270a6e9e42c7e99d9c60a5590278ee697f6c25d6060001b614299565b6000825167ffffffffffffffff811115611cd357611cd261abc6565b5b604051908082528060200260200182016040528015611d015781602001602082028036833780820191505090505b509050611d307f5ea382f80deec8f934a19826ec1cb4cb44b9e854f5df18d3af0486f13b76792b60001b614299565b611d5c7f381004d665f02913b31eebaa430547db81f49505930ae386ddf7cc475f9448ae60001b614299565b60005b8351811015611e1357611d947f2a8b9ef78efdcd2d52b30ff321b9ce8b5423fb05bcffb6c269359a83857531cc60001b614299565b611dc07f8aa7114089d98f6777ceef8ed408b7bea28690d23d03ab17874ddc540b5f673860001b614299565b611de3848281518110611dd657611dd561b8c5565b5b60200260200101516125bb565b828281518110611df657611df561b8c5565b5b60200260200101818152505080611e0c9061b8db565b9050611d5f565b50611e407fcfd4b19343e9906b77aa350e3808f4395b652ac5018e1edcbc1ba872450222c260001b614299565b611e6c7f4468edbedffed03dc3dd8825899523fad657a9a4014d06891c3752ce4e4769d060001b614299565b80915050919050565b7fb281fc8c12954d22544db45de3159a39272895b169a852b314f9cc762e44c53b81565b60006001905090565b6000606560009054906101000a900460ff16905090565b611ee57f4f7c5fabd589d1923eb9d229c2d1f2ba48cfef159026961023205ad44c2ed0b660001b61437e565b611f117ff263aa1a5f0f3481b8a2813652fc417417110707221b72e3c1d7b358ed4cb85360001b61437e565b611f3d7f1c40b5b0add329ee8df2f2ea6a30b84402346f441e3a24eefdae57e468925dfa60001b61437e565b6040517f08c379a0000000000000000000000000000000000000000000000000000000008152600401611f6f9061b8f9565b60405180910390fd5b7fa52f07bb8dc8df886598eb50edeaba2b8e45715237ed244354b60ea04d0390b881565b611fc87f9703455f71c047ef738a798ce1a2cd41868dc31fba2f43747dce90a161d39a7960001b614299565b611ff47f7cef4579b7d5d0b9fb03b322ce4f51e0e6cb6e2cf0a6ac20ec7959c9f06fc95260001b614299565b6120207f1749bff97d1b9c8caef38dce73bd663ba9e90384328d103266035ba71f5dcdd760001b614299565b61204c7f2f09035b8321949295275ae4df85c110a00e3e6ed1362461ddbc898b5125c65260001b614299565b8351855114612090576040517f08c379a00000000000000000000000000000000000000000000000000000000081526004016120879061b937565b60405180910390fd5b6120bc7f047dc5e604e3ab0bd90a94daaffd2640df83cb99185ff3e06cb42e721f5e94fc60001b614299565b6120e87f3f52f68a8fcfca7144b33a078dac731e18fbe24ce02c8a0174159c536915e40260001b614299565b6121147f937b33d62ec85525723ce3465df5f286022b2f3d4fe6da82a1882fb6c46c3cc460001b614299565b6121407f033b46c7b794f41fe723a0e4bcf25529257e3a891e3e8f806460ed5ba2fdb6e760001b614299565b8251845114612184576040517f08c379a000000000000000000000000000000000000000000000000000000000815260040161217b9061b9c1565b60405180910390fd5b6121b07f6e206d9157238830a3555a5b35a32bfce42b2a5f4bb3194ed76a11fcba4c093a60001b614299565b6121dc7ff89714f82877d76a36414588c1eed155a44c780af72656b6ab42be1ddbbd304e60001b614299565b6122087f898e6290417b17ec37454f8cf008fd866cadd50fb9e8b99488298d08749e25af60001b614299565b6122347f3bdcbf36d6ba7deee54cebfcf3ae50de5d186cf44ddcb5921645d1c10488a51460001b614299565b8151835114612278576040517f08c379a000000000000000000000000000000000000000000000000000000000815260040161226f9061ba4b565b60405180910390fd5b6122a47f1c20cbc0ca1a08041f7606c892b54167699b35ce6212df328ffa9bd2474ceded60001b614299565b6122d07fb931c646af2504615eae781f3134bdc6e8d8dbe63773d69816f3a3d8208802bf60001b614299565b6122fc7f71d00d6d847a9afe37a6c452b6938f8fbb14385c7c1ef33a2c1a6002d686dced60001b614299565b6123287f86ce0f1d038ea96b559c2947e14dc6ba974744b17b9f295784f350009c3c657e60001b614299565b805182511461236c576040517f08c379a00000000000000000000000000000000000000000000000000000000081526004016123639061bad5565b60405180910390fd5b6123987f93873d33e6f12979a4ab5b88c8dde1c2c6716925a1d51c7d8ef1b7dbda3e09a760001b614299565b6123c47f8a21af67301c08de39a7183d87fa7abd6ea93d893c5b23981c8488a0b44017a160001b614299565b6123f07fe5b833580274f7a655acffd0292acb947d86d473cb6328ce9290706120a929df60001b614299565b60005b85518110156124fe576124287f95b8a75877c042fce14ce4dbad4e3d94831f7194fa4067eff016ed83e3096c7b60001b614299565b6124547fe7e72b8351588fef7065519eeef9d75652488491a1caafb510b37e5c3b84640560001b614299565b6124eb61245f61480f565b8783815181106124725761247161b8c5565b5b602002602001015187848151811061248d5761248c61b8c5565b5b60200260200101518785815181106124a8576124a761b8c5565b5b60200260200101518786815181106124c3576124c261b8c5565b5b60200260200101518787815181106124de576124dd61b8c5565b5b6020026020010151615ba7565b80806124f69061b8db565b9150506123f3565b5061252b7f8e0017d86e72fc5661955651d82d6f479426025e40b22d837ed842a1ca8ef2d660001b614299565b6125577feba8c77291f2fe65c5c4a6c73d917750a257bc1372005d8e343e22ec12c93a3160001b614299565b61255f61480f565b73ffffffffffffffffffffffffffffffffffffffff167fd5865ae34f92a2d6a803fa13140b8165046f54e61e68560b26950c62a668c6b686868686866040516125ac95949392919061bbbb565b60405180910390a25050505050565b6000603360008373ffffffffffffffffffffffffffffffffffffffff1673ffffffffffffffffffffffffffffffffffffffff168152602001908152602001600020549050919050565b7f65d7a28e3265b37a6474929f336521b332c1681b933f6cb9f3376673440d862a61262e81614a6b565b61265a7f2dbb98108b8a83b7950ff29a7ab9132993c5cd4eba64e6efeed71b85550dc3da60001b614299565b6126867f280ab5c8ac197398a31d703010a7a0c87ad13e9d6be598afa4f0b13638eecd1b60001b614299565b6126b27f2a2d71b2331d27ae9b353e086aad11732ce87d8ad51ddc45e13f04e7be734ed860001b614299565b6126ba615cc5565b50565b60006126eb7f5f59ac7bbc8135804ad062993a4fa35d8d92931cea8f67b5e295bfd7658f286c60001b61437e565b6127177faadb742a63bff8ded09d2f1e5f81b26b0539b3b271661d589ac9314f711e897360001b61437e565b6127437f6fbf92f27695f5200736b4185e0b307b96e68f5362bfb1f510d70a9c994beb1660001b61437e565b61274d8242615d28565b9050919050565b600061277b8260fb600086815260200190815260200160002061611890919063ffffffff16565b905092915050565b600060c9600084815260200190815260200160002060000160008373ffffffffffffffffffffffffffffffffffffffff1673ffffffffffffffffffffffffffffffffffffffff16815260200190815260200160002060009054906101000a900460ff16905092915050565b61281a7f268f75b3f486b206baf6b4e84e3378d81a948da9825e9806bc21a1bd4002324f60001b614299565b6128467f80a77ecde0665654ca482f35663fc152a5348c8f7eccfe818d452e9268a39f5560001b614299565b6128727faa42c486c0f0653e738e5ef220b44529d5432ab7a0bf339624fbc41355d5c40660001b614299565b61287d81600061429c565b6128a97f42114b69b75fabb33312bd63862edb877b79ec00397acadf409117586450e63a60001b614299565b6128d57f5310d3f56a9d9456e733bf8b30f7c449619274327a80d3af4098ec0c89f7105d60001b614299565b6128de81616132565b50565b6060603680546128f09061b52f565b80601f016020809104026020016040519081016040528092919081815260200182805461291c9061b52f565b80156129695780601f1061293e57610100808354040283529160200191612969565b820191906000526020600020905b81548152906001019060200180831161294c57829003601f168201915b5050505050905090565b61297b61424f565b7fa52f07bb8dc8df886598eb50edeaba2b8e45715237ed244354b60ea04d0390b86129a581614a6b565b6129d17f23e0d131a3778f690d1e8ef62a003f7107ace97c49755a692012061d0979e06460001b61437e565b6129fd7f0ee4cd29c01d6febd4863db81e6d6dad8ff524f0f7c1093de5899423eb5ae8ad60001b61437e565b612a297f1cbb7508b87f330714fd16af77a63252a0894218d15314483d8e844acc27ad9260001b61437e565b612a557f7cb515216df9d49e80083c23dc8bab41eaa7a39697fd9c0418b5d4489f215bd060001b61437e565b868690508989905014612a9d576040517f08c379a0000000000000000000000000000000000000000000000000000000008152600401612a949061bc5b565b60405180910390fd5b612ac97f7c0ad651d00c2bb0039dabb91e26e63c0a01944f245185f0185bcb2a7c32a47860001b61437e565b612af57f11df8355d90f1b04aed887173e440256cd593fe581bbdb612579e3e08960717960001b61437e565b612b217f27aa7f012116c98bb4d95669ef3c4272fe1f5bbd23cab00fd5d44b21657ef53960001b61437e565b612b4d7f377648083f02e2fdc3050c6ff2c7f87fb62cf00109b3999a3fc4c65d3898c02660001b61437e565b848490508787905014612b95576040517f08c379a0000000000000000000000000000000000000000000000000000000008152600401612b8c9061bcbf565b60405180910390fd5b612bc17f3f5a87747742b874d0c287d35ec952c896537912ff416fa84c15dfcdeca9aa6a60001b61437e565b612bed7fd9dac8f5183d9eb77dec0334059b0a47830c8e88f36e991776af5324e2ebf43a60001b61437e565b612c197f71744cdfe41485f37c4e61373eed548e6715cd7f5a4d8ba070b3ce378258276c60001b61437e565b612c457fce63193c5f55e25784e30d6348fa17b5d6a52f62b6a2cf0f76a3107a62a3eaa160001b61437e565b828290508585905014612c8d576040517f08c379a0000000000000000000000000000000000000000000000000000000008152600401612c849061bd23565b60405180910390fd5b612cb97f4adb6a48ef8d48d7ac23d532e2e87633037635609b98357643f4096d72bb1b7d60001b61437e565b612ce57f2fc4037a24ac0d27d2963c4e16b1ce311aca3b0fa260352e4697f4f841e45f3260001b61437e565b612d117f754cda54a4c0ab187638412dcafeddd73e4a40898c147dfb3f0cd921dbbea0bf60001b61437e565b60005b89899050811015612e1657612d4b7ff64aeff3a02ecfdd0d4420591e4509fee817b9694ae9837e66c4b931b925d06660001b61437e565b612d777f88ad77e105bb6887b56d8cfd5dc700141ee9aef1b811bf703e49021f66de802960001b61437e565b612e038a8a83818110612d8d57612d8c61b8c5565b5b9050602002016020810190612da2919061aa28565b898984818110612db557612db461b8c5565b5b9050602002016020810190612dca919061aa28565b888885818110612ddd57612ddc61b8c5565b5b90506020020135878786818110612df757612df661b8c5565b5b90506020020135616392565b8080612e0e9061b8db565b915050612d14565b50505050505050505050565b612e4e7fe0e687b520c544f786b62f60f323b3830456de57ed16c2f957c7435a9b97a51760001b61437e565b612e7a7f886654a21d4a9d02213d73b020c16fc3b7b2f3cfbdb36d427ff9c8f69317352e60001b61437e565b612ea67fc08f5603e7741493a965f83dd0efd7c9268c2d73f532484aa5bee6e838a3840560001b61437e565b6040517f08c379a0000000000000000000000000000000000000000000000000000000008152600401612ed89061bd87565b60405180910390fd5b6000612f0f7f2f7b78bbdee6468b37fd5a14da484e62bd7d735dd51a81a26c4a80f7abcbd39860001b61437e565b612f3b7fb8bcd13b3df15f2c655852eadde346a788331c17fb143a0620490996dbf044d960001b61437e565b612f677f1a81bd06e85d060d47117210308d4fd9916be8e5dc4770301366b41ea42aa21b60001b61437e565b600061015f60008473ffffffffffffffffffffffffffffffffffffffff1673ffffffffffffffffffffffffffffffffffffffff1681526020019081526020016000209050612fd77f228f1c6b4767809ed720a3ab49d712c7324ac4f1816b2280c79cd99c9700d96960001b61437e565b6130037f4dd05e2e9a4fa3cac73483c99042d4e2f53ac6cd3f8a903428b92fa7e569d80760001b61437e565b80600c015481600e0154613017919061bdc5565b915050919050565b606061304d7fe6b25297c9896c0f1fc7d2e940a3a12fa73bb38c40c510864da110c40a44fbe860001b61437e565b6130797f426a86ad8ef8dfe6ca78cd4dbcff1c6a4a6575f17e7b23c7ab02d0a99b3fc11160001b61437e565b6130a57f9b67f2a324f6fe42b4b790915686da2935e0f061fa22f4c56a68b353edb41ecb60001b61437e565b60008383905067ffffffffffffffff8111156130c4576130c361abc6565b5b6040519080825280602002602001820160405280156130fd57816020015b6130ea61a766565b8152602001906001900390816130e25790505b50905061312c7f4b4293e7abf2a439c9cab85bdbd6ad5aabdcdbbd3beaa5a3dabfc0f0e8213c3760001b61437e565b6131587f5122a16bf3afa4ab559c0e5c7fca7d3b7a3498a59ec3d80eb68ccfcf4c4a0a9060001b61437e565b60005b8484905081101561321f576131927ffe421b26e8a10dd01387dc95ff7ba46ed2820c46b00e34a83bb5506bf3d5f1df60001b61437e565b6131be7f144aa669127479ccefd7867f159aac068230315996fbabc955c463e9e5a7624e60001b61437e565b6131ee8585838181106131d4576131d361b8c5565b5b90506020020160208101906131e9919061aa28565b61334a565b8282815181106132015761320061b8c5565b5b602002602001018190525080806132179061b8db565b91505061315b565b5061324c7fe938d76842479634d22bfb3f78ed18434bf2d9e94c8aab375202d946e013a62a60001b61437e565b6132787f21e61ae786828cc3ca7dbee69fcb03b01336eaca0734b0e9a660fd8b78ee5f3b60001b61437e565b8091505092915050565b6000801b81565b60006132b77fd6f9f9115dc75f4e912027d08e439f35633c3f1f499548590a97349e3bb00e0c60001b61437e565b6132e37fdce60e8189dba15b04dc816703dac75dfb0f7f4417496f34d96673c3fda9daf360001b61437e565b61330f7f2aa96d5b52995b52ca33bc380b80f1d176b41b407c7f45c5869d482d177ae6b560001b61437e565b6040517f08c379a00000000000000000000000000000000000000000000000000000000081526004016133419061bde3565b60405180910390fd5b61335261a766565b61337e7f250726be9b668bb9a2eee8893efa728a32df4da28e720097ddde401c3990619860001b61437e565b6133aa7f9fdf1699e16bcd1837a2ff9f3df2a7b3e8d4dca2a00262f5a7a62af752a4849c60001b61437e565b6133d67f083cf6185f45ccb65f4c16da66bb04f19e135bee7028f2789047a47cad29e15260001b61437e565b600061015f60008473ffffffffffffffffffffffffffffffffffffffff1673ffffffffffffffffffffffffffffffffffffffff16815260200190815260200160002090506134467f66b3136b883e31523905bb3a2a235146b813475dd087b99e3d95f10346c558b660001b61437e565b6134727f3fa0bb8e8dc948913aaf91d86f2f7c44ffd3ee4f550ead94b8810396a14f4a2160001b61437e565b60405180610200016040528082600c015481526020018473ffffffffffffffffffffffffffffffffffffffff16815260200182600601600001548152602001826000016001015481526020018260060160010154815260200182600601600301600080815260200190815260200160002060000154815260200182600601600301600060018152602001908152602001600020600001548152602001826000016003016000808152602001908152602001600020600101548152602001826000016003016000600181526020019081526020016000206001015481526020018260060160030160008081526020019081526020016000206001015481526020018260060160030160006001815260200190815260200160002060010154815260200182600d0154815260200182600e01548152602001826010015481526020018260110154815260200182600f0160009054906101000a900460ff161515815250915050919050565b60008060019054906101000a900460ff1615905080801561360c5750600160008054906101000a900460ff1660ff16105b80613639575061361b306171ad565b1580156136385750600160008054906101000a900460ff1660ff16145b5b613678576040517f08c379a000000000000000000000000000000000000000000000000000000000815260040161366f9061be21565b60405180910390fd5b60016000806101000a81548160ff021916908360ff16021790555080156136b5576001600060016101000a81548160ff0219169083151502179055505b6136e17f21042a07a699640c7d19eb70aa2eeed11011b4aaf6c7c3a05f8757cc282f479c60001b61437e565b61370d7f14860c65eb031d2837bd41556ed0d415c952e09f1b333f576aaf28eb753afe1960001b61437e565b6137397f1682ce4462ef0f53a9a86981b76a7fdada08e6d662c67c6117c683063aaaf45160001b61437e565b6000600167ffffffffffffffff8111156137565761375561abc6565b5b6040519080825280602002602001820160405280156137845781602001602082028036833780820191505090505b5090506137b37fe53f26abe49a1ea448973e6f2e287a7b572a4edc6d7517195630eaa0d6f4230660001b61437e565b6137df7f8bdc0c02302d6f9a989cec7168011c8aeef49da97ef850bc83e8a71ef0b405b260001b61437e565b6137e761480f565b816000815181106137fb576137fa61b8c5565b5b602002602001019073ffffffffffffffffffffffffffffffffffffffff16908173ffffffffffffffffffffffffffffffffffffffff16815250506138617f3baef28f1d5d253cafcc857bff2f53127986d9a407c77985a19b87a4d556c10760001b61437e565b61388d7fd8922a94fa08e94064108e2ca746ea38341870f2c545ac366ad9f786714342d860001b61437e565b6138956171d0565b6138c17f6e16762af38f0e7e813bcf568df73bb803648bdf429afdb6270ac24e5a09caea60001b61437e565b6138ed7f3fac1cc5bffb54b6122115726e23efcfb2aa2944a1907b60c6acff9e8576f3f460001b61437e565b6138f5617221565b6139217fef88068573e03b748153ca548c8a570e2a5690addb9f603e626854c48ea347a060001b61437e565b61394d7f433e2774a3007bb7d0c8f0112cbe8753a3c230190d005623e4180ce62695aca660001b61437e565b613955617272565b6139817f06ae2a2eb60d387a38e7769a16d747b1fc56402eaa4addce9e0255ce0c95769660001b61437e565b6139ad7f1095a5ec27535fbc874f91ad6aa7a6c744e76e0fdfac1ff5455d9af60d90b4f360001b61437e565b6139b56172c3565b6139e17f90009c134f74404a3bb1bb916dc50c07592dc0c9ed840639e236c6664fed284360001b61437e565b613a0d7f7d2c70713c0df81e3cad1afa1a3f89968d968e0dd069052c47e8c38c00fdca8b60001b61437e565b613a15617314565b613a417f7c51e8be04cacb943ffb02b958946903e5e57daac272bc409edc442959528d6760001b61437e565b613a6d7f5b73aa116b4cbfecf6c80e4160ceed2e7ed386d55096635bbeb8da85e3f8de0260001b61437e565b613a75617380565b613aa17f74e6970fa34d6a9ed21a34cf85012977c624688d1a2ecbacc6f04176fb484c9c60001b61437e565b613acd7f52d45a14adedefcc88ae258dd8f24dc28287db1ce62771515e5d90dc124dd39260001b61437e565b613b426040518060400160405280600b81526020017f4c6f636b6564204e4f52490000000000000000000000000000000000000000008152506040518060400160405280600581526020017f6c4e4f5249000000000000000000000000000000000000000000000000000000815250836174f2565b613b6e7f741601270881b1d97cc770feed305851874d93a45a425bdba303d68d088593a560001b61437e565b613b9a7f232cf6dc5ffa4601f1f74f2d70ea7053e36f90d66234baf3ed0e8d0309cad40360001b61437e565b8261016060006101000a81548173ffffffffffffffffffffffffffffffffffffffff021916908373ffffffffffffffffffffffffffffffffffffffff160217905550613c087f4a9e81bd098852fa32e44815ab4593616fd896acc80e91621013f5d6d824957860001b61437e565b613c347fd9f7d7ddbf9d9d755ad1d50d9393c89911e0f169f40df812dd630703356e14a260001b61437e565b613c657fa52f07bb8dc8df886598eb50edeaba2b8e45715237ed244354b60ea04d0390b8613c6061480f565b615948565b508015613cbf5760008060016101000a81548160ff0219169083151502179055507f7f26b83ff96e1f2b6a682f133852f6798a09c465da95921460cefb38474024986001604051613cb6919061be85565b60405180910390a15b5050565b6000613ce060fb6000848152602001908152602001600020617755565b9050919050565b613cf0826111ed565b613cf981614a6b565b613d038383615a50565b505050565b60008173ffffffffffffffffffffffffffffffffffffffff168373ffffffffffffffffffffffffffffffffffffffff161480613e205750603860008473ffffffffffffffffffffffffffffffffffffffff1673ffffffffffffffffffffffffffffffffffffffff16815260200190815260200160002060009054906101000a900460ff168015613e1f5750603a60008373ffffffffffffffffffffffffffffffffffffffff1673ffffffffffffffffffffffffffffffffffffffff16815260200190815260200160002060008473ffffffffffffffffffffffffffffffffffffffff1673ffffffffffffffffffffffffffffffffffffffff16815260200190815260200160002060009054906101000a900460ff16155b5b80613eb15750603960008373ffffffffffffffffffffffffffffffffffffffff1673ffffffffffffffffffffffffffffffffffffffff16815260200190815260200160002060008473ffffffffffffffffffffffffffffffffffffffff1673ffffffffffffffffffffffffffffffffffffffff16815260200190815260200160002060009054906101000a900460ff165b905092915050565b6000603b60008473ffffffffffffffffffffffffffffffffffffffff1673ffffffffffffffffffffffffffffffffffffffff16815260200190815260200160002060008373ffffffffffffffffffffffffffffffffffffffff1673ffffffffffffffffffffffffffffffffffffffff16815260200190815260200160002054905092915050565b7f65d7a28e3265b37a6474929f336521b332c1681b933f6cb9f3376673440d862a81565b613f907fd248d4df303d3ef4df39d753f222a602bc2f78edb47c9ac7ca9a9fd438e4a62460001b614299565b613fbc7faa526d1c469fd543c8d32d69c18c886a00d4fcd19cc3915c586d92fa8cdc773b60001b614299565b613fe87f63e573bed4a8383fb367945237d21a7b5580ae54634703c4e26dd17079d8de0f60001b614299565b613ff381600061429c565b61401f7f0220752359935cb493d712672625b70023d2829fbf5169bdb5b1970a1986961960001b614299565b61404b7fbf85da80d0b000f9e71932794d4185ea118b30bec8ec6c2f10f915fe6aca38e860001b614299565b6140548161776a565b50565b6140837fc6aa3ebc67976c44518ea9f80c60748398022bc41d4ba424dfa435444cb3826560001b61437e565b6140af7fa06ffe7804a4dc43d996d4ed7d5c91e8b80cd36115e1e79b52a50264644bfae460001b61437e565b6140db7f6ffa43a19ffb1dfa33ec8f1fc6b3a018bbc2b5bec000fa9730fa160a027f321c60001b61437e565b6040517f08c379a000000000000000000000000000000000000000000000000000000000815260040161410d9061be99565b60405180910390fd5b6141427f85926e828cae6d3232743b5bd107d849fba1f1e1bea517ced760b7b77679d0c760001b61437e565b61416e7fe9d1fc9c68132a31db14bee22d424179bd16b5ced4d6b05e096707e94c359a7760001b61437e565b61419a7ffcc8e032dc25f2be0d81c2a71f20fb355a4ca89d5ec947d5017f85be88971b7160001b61437e565b6040517f08c379a00000000000000000000000000000000000000000000000000000000081526004016141cc9061be99565b60405180910390fd5b60007f7965db0b000000000000000000000000000000000000000000000000000000007bffffffffffffffffffffffffffffffffffffffffffffffffffffffff1916827bffffffffffffffffffffffffffffffffffffffffffffffffffffffff191614806142485750614247826179ca565b5b9050919050565b614257611ea2565b15614297576040517f08c379a000000000000000000000000000000000000000000000000000000000815260040161428e9061bed7565b60405180910390fd5b565b50565b6142c87ff557b5a3fbbfa11a0d3d8222578b68ca450337e3c5a6d723f6ea86c2b74908e360001b61437e565b6142f47f8317b33d9e7bc5054330a324a2da2f02dab7e24e163ee5b51806f7dcb5b2c16f60001b61437e565b6143207f0998cc6ac18e693642ebf7918b8fe30597d515016d2fe68c69c2684894d06f9f60001b61437e565b6040517f08c379a00000000000000000000000000000000000000000000000000000000081526004016143529061bf15565b60405180910390fd5b60008061436661480f565b9050614373818585617a34565b600191505092915050565b50565b60006143af7f20023dba56dca79fdee9d6e2041397c5ccd441971cda225a2d1e6b150cd765f460001b61437e565b6143db7f3edde3fa991dd732ee2b34976a7beec14c5fa0ccdb003c6287f65fcc4bc1817960001b61437e565b6144077fc610f8f6e3412c7f12eb7f82ea97c499f5755cdbc881baccda80cf390c1dc74b60001b61437e565b600061015f60008573ffffffffffffffffffffffffffffffffffffffff1673ffffffffffffffffffffffffffffffffffffffff16815260200190815260200160002090506144777f9b3e73235e5a9cd7fe8d778bc6494b38c4bee815023d3a6bf5cf00e59ba1aa4b60001b61437e565b6144a37fcfa117a46fe4d21b55c8927c24406287e8e203af73594e862aff7602b2216a3b60001b61437e565b60003073ffffffffffffffffffffffffffffffffffffffff166370a08231866040518263ffffffff1660e01b81526004016144de919061b121565b602060405180830381865afa1580156144fb573d6000803e3d6000fd5b505050506040513d601f19601f8201168201806040525081019061451f919061bf52565b905061454d7f9ad4cc31ad53b1da44b236c972a77238a109207a648f2a9b74a83c8a2bc4a73d60001b61437e565b6145797f56e9bb64ffeb95c0c61e4bd3c248c73e4d3695ed261f66de5829fe52a49bab0f60001b61437e565b81600f0160009054906101000a900460ff161561477f576145bc7f3e9f9a2ab4ddb95adbc61db8c38006b633e10414bf21202f844383564bf130ad60001b61437e565b6145e87f9e28886dc336841678d3cab82e02f65fc210d1d90f66a3baa32be6a29619389a60001b61437e565b6146147fe0695b2c2f5f7cb86b93df8214a7d21f7fea5e02c9fd18fda649a2f73e6762c560001b61437e565b61461d85617bfd565b156146df5761464e7fbfef1d7d0afd10b7d21bacd7267736f8f93b74ff4b41bc3fe6cb08233b31549f60001b61437e565b61467a7f19787e94e3229fcac29e196d2c932f07a742e0f6a2b58de0d67a5751910905e660001b61437e565b6146a67fde525923a9ad9e821f33a55cb43d9819728fce342b30194541f0485fdcdc95e660001b61437e565b81600d01546146ce6146c48685600001617d4c90919063ffffffff16565b84600c0154617df8565b6146d8919061bdc5565b905061477a565b61470b7f23944de8f1d574c109ddc90ef90ad83e46c5a47f14ce7efa0542f857cfc808cb60001b61437e565b6147377f9b709042ccf6ed59e766a8bc42bffd46e118d642e96283493606751a96cb46b060001b61437e565b6147637f14ba5a77241a12431f6bb55ebfcde345aaf52b7fbfff73f1ccb18dbb6ab6ae3660001b61437e565b81600d015482600c0154614777919061bdc5565b90505b6147ac565b6147ab7f0db5924c2679f7600ccdcfc84b6f7629696ae7a8ed6cd24b3574f6dfc4557cdf60001b61437e565b5b6147d87f0769f1c485a7fbcaa975f4900717d85deb5085a28a904c2da716597ccb71817e60001b61437e565b6148047fc15ec0a67674543416db62defa55936fa83df13ea9409eef277a1deb021dc7ab60001b61437e565b809250505092915050565b600033905090565b600073ffffffffffffffffffffffffffffffffffffffff168473ffffffffffffffffffffffffffffffffffffffff1603614886576040517f08c379a000000000000000000000000000000000000000000000000000000000815260040161487d9061bf6e565b60405180910390fd5b600061489061480f565b90506148a181866000878787617e11565b6148ae8186600087617f78565b6000603360008773ffffffffffffffffffffffffffffffffffffffff1673ffffffffffffffffffffffffffffffffffffffff16815260200190815260200160002054905084811015614935576040517f08c379a000000000000000000000000000000000000000000000000000000000815260040161492c9061bfd2565b60405180910390fd5b848103603360008873ffffffffffffffffffffffffffffffffffffffff1673ffffffffffffffffffffffffffffffffffffffff16815260200190815260200160002081905550846034600082825461498d919061bdc5565b925050819055508573ffffffffffffffffffffffffffffffffffffffff168273ffffffffffffffffffffffffffffffffffffffff167fa78a9be3a7b862d26933ad85fb11d80ef66b8f972d7cbba06621d583943a40988787876040516149f59392919061c036565b60405180910390a3600073ffffffffffffffffffffffffffffffffffffffff168673ffffffffffffffffffffffffffffffffffffffff167fddf252ad1be2c89b69c2b068fc378daa952ba7f163c4a11628f55a4df523b3ef87604051614a5b919061aa4f565b60405180910390a3505050505050565b614a7c81614a7761480f565b61865d565b50565b614aab7fea8fb46895e7e136d91b8f4a670995860ab2529d5f091a8ed3fa9efc5d1c947f60001b61437e565b614ad77f2c1436d92128598787e1605213918d1ee0c4c97434915cd6fc529ec41ee24fb460001b61437e565b614b037fab1705a1fa820d370dbab90b36096b7839565d7a9c71452c6b052282322d5fbc60001b61437e565b600081806020019051810190614b19919061c080565b9050614b477f799bc2353d98c2a7b879413e233b224e4e02b9d2a9a3cc1d202106a6bfd8e30960001b61437e565b614b737fdeac7af8ad6ba115e43ee702971357590dc114ad7f1c9497cf8d433ca7636a9460001b61437e565b614b9f7fb12872e4468503a81a3dbb4c9b448a6b2f080e9cc2e2c662b27f2b68e019396660001b61437e565b600073ffffffffffffffffffffffffffffffffffffffff16816000015173ffffffffffffffffffffffffffffffffffffffff1603614c12576040517f08c379a0000000000000000000000000000000000000000000000000000000008152600401614c099061c10e565b60405180910390fd5b614c3e7fed16af28f6f83231c107a4c7385b69cec5979d985dd41531770074c4d57616a760001b61437e565b614c6a7f9c947955ca35477e7cd75b7f2ab67b7d939e686c50ed0d003bfd4addc06d40f860001b61437e565b614c967fcc1b00b1e82409e8487be909419298656539381dc638943acaad92d339dbd17e60001b61437e565b614cc27f533af7204090182ed55c1b937eb98db73de8640185846d43ec6494fa962169a760001b61437e565b614cf07fa52f07bb8dc8df886598eb50edeaba2b8e45715237ed244354b60ea04d0390b88260000151612783565b15614d30576040517f08c379a0000000000000000000000000000000000000000000000000000000008152600401614d279061c172565b60405180910390fd5b614d5c7ff13d9dade4dda3e9bd88012f3535502211201ecd09afac477f98600e1edb775460001b61437e565b614d887f3d78fc7bde19ada0d7656f625abc2e0cb8d09e9a8f0fc2e23b6a2c00fc2c087960001b61437e565b614db47f6d888c86a0ec96347edbbe4aa9f0a73090c8e1a9277d9a7e8802c4ef4509fea660001b61437e565b614de07f3f56ae0a22688edf274d84a1fa9c1c458ae799b24701f3861929a90d77c811b560001b61437e565b8060600151816020015110614e2a576040517f08c379a0000000000000000000000000000000000000000000000000000000008152600401614e219061c1d6565b60405180910390fd5b614e567f821895fd6b5268a843113e88ebf77a291cd3d9bc193225c472e736ecf282be4f60001b61437e565b614e827f2ac831720c38fef57e48ba180307b42a9f9937eadad8063ac4f6b3df96e2ab1460001b61437e565b614eae7f9d5cdfcac314e2b5a0e18cfdc31c9d5791ac270436ca1746f6a57d13d3e2e9c860001b61437e565b614eda7f901702d5c4ad870cc47e454bea93e66152da693226c57ebaf8893b6c138f1e3860001b61437e565b80606001514210614f20576040517f08c379a0000000000000000000000000000000000000000000000000000000008152600401614f179061c23a565b60405180910390fd5b614f4c7f88b3c080c667fa3f83db2447e7762416058cc2e542087dbd6daedbaf4d9a297c60001b61437e565b614f787f67b36e1cb0f178b6f112dccbf03cfdde05a1891333045acd41a08ccff628deee60001b61437e565b614fa47f212b4a68ae1c8dc01a94f78963a4e3a015ab86156c66dc346476bb4f5f145c5460001b61437e565b614fd07fc067806ff135254a15b4c6d34d926c9fd10225eb2d80ea336638ed9f7e47e60d60001b61437e565b61015f6000826000015173ffffffffffffffffffffffffffffffffffffffff1673ffffffffffffffffffffffffffffffffffffffff168152602001908152602001600020600f0160009054906101000a900460ff1615615065576040517f08c379a000000000000000000000000000000000000000000000000000000000815260040161505c9061c29e565b60405180910390fd5b6150917f046797da1c9d2a45eb2f944b4b35cc8571c9e0f8b63ce68fa07faebba483062460001b61437e565b6150bd7ffa8adb10f85c9c033eb565b19704083f7bc193d4cf89a822cf8e83cbe2ead4b160001b61437e565b6150e97fbbe2a20c4703b4e3c726f7d9e6ee036f77cd3ec9837c3944ca22e0bf95f325e360001b61437e565b600061015f6000836000015173ffffffffffffffffffffffffffffffffffffffff1673ffffffffffffffffffffffffffffffffffffffff168152602001908152602001600020905061515d7f4c6ad70c89b1fa73b2a7dcfba67dc57a068224b7943980aec7a44502e9df396360001b61437e565b6151897f09ef73d57bb3c8f687663e2307ca1ab6d8410609608f9f4a55f19e0ca9bc28a260001b61437e565b8381600c01819055506151be7f20305fb570354e695b68f3238a0ff3d687dc86a7563ee120281f1db89cb7d19560001b61437e565b6151ea7f2fc8f2e0d99aa2506f6e593435bbd6d584bd993ba2edbe264eae21812d26128660001b61437e565b8381600e018190555061521f7f91b00fb2b91f666b0d2f6a844ecad263ad54dc0a33fa87c0fc95d619a365f06f60001b61437e565b61524b7fa3ea3f3f713664b89b45d43ebdf91ab58c7042407b422659c1d47d3f7106d6af60001b61437e565b600181600f0160006101000a81548160ff0219169083151502179055506152947f1a84ec8cec110806a427f29b754ae91ad8ed91629aa22fa4cd42d1637f3d22f160001b61437e565b6152c07fc41cb4a4618c811fb2d8c64153b076833868160cd51082016d038bdc262d860360001b61437e565b816020015182604001511115615635576152fc7f283a6683b888edbe3311f9971282aeae283d9b703f8b40e6fa087883c900c76e60001b61437e565b6153287f5affd744b1e578d2ea13af22fdfd90a8ad5ab1957ca0138151e63971bd05b0b060001b61437e565b6153547fe559d0817f2415edddd53859a7396ae9404b23ae0e292e2b6e99cd0e6663126b60001b61437e565b6153807f2d9a32c5e723e308d846e38ea21eabc456af144ad84cb9f56f434d34b4a9d43a60001b61437e565b8161010001518260c001511015806153a157508161012001518260e0015110155b6153e0576040517f08c379a00000000000000000000000000000000000000000000000000000000081526004016153d79061c2dc565b60405180910390fd5b61540c7f59603378a2af1f6a153c0d4015e23cf8e42ac7b6793c1dd9be2a471d37590f0c60001b61437e565b6154387fd72dc77d9c58d8305c99f6c0196b5f1468c3cc74af415e66092dc6b9ea9f0e5560001b61437e565b6154647f0ee5a5ac963e618c64ef7fe416e6ddfa576c76820197b4e5e4a93a2f123982ad60001b61437e565b83816000016002018190555061549c7f05bda6fc82d597966bbe95ac6e1ec5f3adf6fb2327154f09e3564d8bde309a4960001b61437e565b6154c87f2012066d017333a44cbe45c84afe42b778c4535bd8ef7f92cb5cc65cc55ad2e060001b61437e565b816020015181600001600001819055506155047f72faafad7b2d0ec6cee2f091d22070dee57d6f69054635a9082097cd5795de2960001b61437e565b6155307f403f1ee2e080d362a38fa6859c847326c5c353baadb361eca1adb3e3d0cd066a60001b61437e565b8160400151816000016001018190555061556c7fdb2f0150a1d6e911a272f54d539ed39a36900bc296af593a4f0a8b79c5d24b7360001b61437e565b6155987f1fae03e632f7b8f017646f45956d3a941c086570e32a503c9888b0dd167dcb7e60001b61437e565b6155b882608001518360c00151836000016186fa9092919063ffffffff16565b6155e47f29805c84622ed9b67bca016a9a1116d881cebc4030e88983946bf05725fb831160001b61437e565b6156107fb3409adb52d055a9e50d4dadf0df10f739d9e78fa372acf62083ea7877b6f77360001b61437e565b6156308260a001518360e00151836000016186fa9092919063ffffffff16565b615662565b6156617f1beada9dc4345af8ef0f565a357147276ffe9ec50aa900d517ea09f63ecd956660001b61437e565b5b61568e7f7db1659074bb57adab951173d5b9b0563c0de0e99f57f6b7e478c12f67bd7acf60001b61437e565b6156ba7f130dc67008d609fe09c11996810b5a42aa4eb9f981fbe5f89a7b52d84d8eb86560001b61437e565b8381600601600201819055506156f27fb6639c2ddb3636bd2f75bd8b2af859dc5bc7828d9f500a44a8b37f821fcd38bb60001b61437e565b61571e7f1f93c57160535ad97eb04ebf82a8e49ffaddcf68a31d6c7521944b303219d73e60001b61437e565b8160200151816006016000018190555061575a7fa42bf5290442ef7cc06fb5b75cf47d357f7ed8bbf1e2edd792aa0cc2c161755160001b61437e565b6157867f7db683e9ba8c3df9f45c53206f41760d3952d010de756526bdf9b4c43551be5f60001b61437e565b816060015181600601600101819055506157c27fd54b9f4b5f07f4e1187361cfe45d7e24f8266b1d50da858193c32a84a82492c560001b61437e565b6157ee7ffb2395443e5444a2f9aeabb03c49eca37d0c8f27d8dd606fee3add5e5ad2385360001b61437e565b61580f8260800151836101000151836006016186fa9092919063ffffffff16565b61583b7f53d002245079cf00f54ec2a2b31781d1bd5ab70de90d42c46c0bc24a7bdc0bdf60001b61437e565b6158677f6512c0b91d5541480b1f4513b594f40dbfb1c6ed5f118d7c3592498a8b021ddd60001b61437e565b6158888260a00151836101200151836006016186fa9092919063ffffffff16565b6158b47f44ad3a12498fd044edfa55a3a24a19cb913f90e38f1dc7395bb2f655e6ed1adc60001b61437e565b6158e07f3f96f4a2ec1646c304c3e80c9399857405810cb550a561bed8a252ff12b2bc7c60001b61437e565b816020015184836000015173ffffffffffffffffffffffffffffffffffffffff167f17161516b6ce34594617177a800b150a86ddee02c06993a73ef000a02367d1198560400151866060015160405161593a92919061c319565b60405180910390a450505050565b6159747fa387f7cc253c0328859e67eb2cce180f0de94026bb52d27bb07c11dd579f2dd560001b614299565b6159a07f9878208916697ad6effeab811140f7c13af902a1732c8d15010e5c67aaec1d1c60001b614299565b6159cc7f913922b296c906337be21a09f18eda1eea5aeb94db0ee795a0c42f693052e2b860001b614299565b6159d68282618e75565b615a027fc2dda0496312be5f8f013d9f51631a87c30272719865516b30507389f28493a460001b614299565b615a2e7f3f813c509e335cdbec1169e2f05d43059806b5e522ee4d801aa4e55670b46eac60001b614299565b615a388282619125565b5050565b615a4a848484846001619159565b50505050565b615a7c7f1de7165b3e5949620639f990ca2368c833de6523f069dd779a4ac99a43c66e5260001b614299565b615aa87f774c5e4f5610d0e4076fdc3abc02b58d0b782aa9cdd67dd811d1377a334c15e560001b614299565b615ad47fdb8aabd4cce77432d4c217089676c8fde9afa29dc6196b6d5305b31f3f53bae960001b614299565b615ade8282618e75565b615b0a7f67acd3e641a8bcc15be35e5bd2632568cc6732474e2062064447ac424cad654760001b614299565b615b367f89186e16eb0585fd74910de29fe8aaec0ed3ce68f3e8d0b246096a8d6b7ece3e60001b614299565b615b408282619337565b5050565b615b4c61936b565b6000606560006101000a81548160ff0219169083151502179055507f5db9ee0a495bf2e6ff9c91a7834c1ba4fdd244a5e8aa4e537bd38aeae4b073aa615b9061480f565b604051615b9d919061b121565b60405180910390a1565b600073ffffffffffffffffffffffffffffffffffffffff168673ffffffffffffffffffffffffffffffffffffffff1603615c16576040517f08c379a0000000000000000000000000000000000000000000000000000000008152600401615c0d9061c331565b60405180910390fd5b600073ffffffffffffffffffffffffffffffffffffffff168573ffffffffffffffffffffffffffffffffffffffff1603615c85576040517f08c379a0000000000000000000000000000000000000000000000000000000008152600401615c7c9061c395565b60405180910390fd5b6000615c8f61480f565b9050615c9f818888888888617e11565b615cad8188888888886193b4565b615cbc818888888888886195d1565b50505050505050565b615ccd61424f565b6001606560006101000a81548160ff0219169083151502179055507f62e78cea01bee320cd4e420270b5ea74000d11b0c9f74754ebdbfc544b05a258615d1161480f565b604051615d1e919061b121565b60405180910390a1565b6000615d567feabda8cc67e709cd1a31d4332f6df9036f2e541c3af24e30358f928ae9533db660001b61437e565b615d827f1830d67052ffd4ec02177b84abd1746c683ee22b1622fc6113c1a82a8bf7918960001b61437e565b615dae7f8aea4bb6fa0a131f43dacbbe065dba4f50754852e3fdf250052d014e4f41f99460001b61437e565b600061015f60008573ffffffffffffffffffffffffffffffffffffffff1673ffffffffffffffffffffffffffffffffffffffff1681526020019081526020016000209050615e1e7fdbe4b86477659e93d3f12bd9c8949a8b7c6191c70f6f8c6342a816e1a727874860001b61437e565b615e4a7fe73fd846549c4d8453f21b6b49c36c1fd1647a2401aeb34cc633ea2a0f51d2d860001b61437e565b60003073ffffffffffffffffffffffffffffffffffffffff166370a08231866040518263ffffffff1660e01b8152600401615e85919061b121565b602060405180830381865afa158015615ea2573d6000803e3d6000fd5b505050506040513d601f19601f82011682018060405250810190615ec6919061bf52565b9050615ef47f1e2361583a6a97a85860354e2825e1d862cc3847cce5f61760bf92a0cf6d511860001b61437e565b615f207f01f82b31a88fd5b9a68864f9cc5d0a98a785f5581503eaef3df63f6f2638d3c260001b61437e565b6000615f2b86617bfd565b615f395782600c0154615f50565b615f4f8584600001617d4c90919063ffffffff16565b5b9050615f7e7f9be0b46ebbc4d32dba4e061c1eb6e5738a0a01a9a10c4cf6f583f1b948605a0a60001b61437e565b615faa7f856fc0dedb153b0e22c3a0fd350bc826c1df8c3c7fe43fb20bcc3609190311ee60001b61437e565b82600f0160009054906101000a900460ff161561608757615fed7ffa62bc14176f233c2fa2c21faee4040a60a6cbbd807cf6fa280e64ac0886016460001b61437e565b6160197f8914814bec0a8184a1e82eda5a41433efcf2de8dab89735fc08a21c347e0e26b60001b61437e565b6160457f7ea9189111cb4dcdeff587fee0f5745c763ab4811f1ad2d133b6cdfd504c7e2660001b61437e565b82600d015461607661606c836160678988600601617d4c90919063ffffffff16565b617df8565b85600c0154617df8565b616080919061bdc5565b91506160b4565b6160b37f80dff57036bea8bc853a46c73b7db12c896ea90ea75be9b84af1327df898628c60001b61437e565b5b6160e07f23c7324933bef8af9917b70c25ba511f9598ce69f44f3ba1767b4f6647b888e460001b61437e565b61610c7f88d748b8a98860fb0f193cc5e5f38906032afe4d5c1c2c4fb9d67b1cea4cd89760001b61437e565b81935050505092915050565b600061612783600001836197a3565b60001c905092915050565b8073ffffffffffffffffffffffffffffffffffffffff1661615161480f565b73ffffffffffffffffffffffffffffffffffffffff16036161a7576040517f08c379a000000000000000000000000000000000000000000000000000000000815260040161619e9061c3f9565b60405180910390fd5b603860008273ffffffffffffffffffffffffffffffffffffffff1673ffffffffffffffffffffffffffffffffffffffff16815260200190815260200160002060009054906101000a900460ff161561629157603a600061620561480f565b73ffffffffffffffffffffffffffffffffffffffff1673ffffffffffffffffffffffffffffffffffffffff16815260200190815260200160002060008273ffffffffffffffffffffffffffffffffffffffff1673ffffffffffffffffffffffffffffffffffffffff16815260200190815260200160002060006101000a81549060ff021916905561632e565b60016039600061629f61480f565b73ffffffffffffffffffffffffffffffffffffffff1673ffffffffffffffffffffffffffffffffffffffff16815260200190815260200160002060008373ffffffffffffffffffffffffffffffffffffffff1673ffffffffffffffffffffffffffffffffffffffff16815260200190815260200160002060006101000a81548160ff0219169083151502179055505b61633661480f565b73ffffffffffffffffffffffffffffffffffffffff168173ffffffffffffffffffffffffffffffffffffffff167ff4caeb2d6ca8932a215a353d0703c326ec2d81fc68170f320eb2ab49e9df61f960405160405180910390a350565b6163be7f2f4feae11b0a634333a9b4e9b1ac8bf007599d529ac281cc073e9d3423e897aa60001b61437e565b6163ea7ffd0baa57a2c70a24af754b1e4fa4035d3a3479ed543caf3810e1a3bd928378e560001b61437e565b6164167f02bdf37fa1dc8e3356d154d34c4cc615aeecfdfd6cc78a1e3a6a2fa98a0c751960001b61437e565b6164427ff78da4b0a9d61550e4835a80a18295e8107ffd6b3882401d20af6d0ae7e932b260001b61437e565b6000821480156164525750600081115b8061646957506000821180156164685750600081145b5b6164a8576040517f08c379a000000000000000000000000000000000000000000000000000000000815260040161649f9061c45d565b60405180910390fd5b6164d47fccb9e747aaccf69f90ba8bd2143a4fb3e23185a21ec1a304ab00418997ad676e60001b61437e565b6165007fa90d8ecbce08698bfbf310f7d95b341ab29f382bf12b6ee4d364305fa803037160001b61437e565b61652c7fd89b82a8ba46f5359302771346e9ae51c625553a26ed95ff33cdcb71a31c61e160001b61437e565b600061015f60008673ffffffffffffffffffffffffffffffffffffffff1673ffffffffffffffffffffffffffffffffffffffff168152602001908152602001600020905061659c7f055c03f3f4bdfb7cd0978ea195f16ab1d8d334f2d19262f14ff4b7df06cdb9c760001b61437e565b6165c87f6eb12eb1a4a4cf02da98f67c52e2ad3152258a10dd7cbbf75b4c760fd1cbbb7060001b61437e565b6165f47f9141dfca597f96937732dee0281f0eb2d5ddabba8cfd8c64c649b28279d378f660001b61437e565b80600f0160009054906101000a900460ff16616645576040517f08c379a000000000000000000000000000000000000000000000000000000000815260040161663c9061c4c1565b60405180910390fd5b6166717f9df992e5dce109874d2f566326bbe73e1d483043244ea12fe3a93952e6da3e0f60001b61437e565b61669d7f3c794ae4a394d52bed869e5a61ef41adc7792764a07fa85cfb32570145c933ec60001b61437e565b6166c97f1a6e0d3893942341eca46c4695b2013f4576879b1a606aa850309fe35d52ec0260001b61437e565b6166f57fa5bda6fcfda3e6f04fd5d17dea3cc105d5988e730563dff76442b6d804db60d560001b61437e565b6166fe85617bfd565b61673d576040517f08c379a00000000000000000000000000000000000000000000000000000000081526004016167349061c4ff565b60405180910390fd5b6167697fc7aa333f76ab6f4733a24a016b23daf7061bcf0dec893c1670b58e4099cdf7a360001b61437e565b6167957f21520d34acaa8f6b5aba6dd944510e1f61b0feced9c5e7cd4a5721cfa8c0028f60001b61437e565b6167c17f4835d346a666eb1406068dc54e35ad229d3c63e45acc68b04aae3c37c18d36eb60001b61437e565b600080841480156167d25750600083115b6167dc57836167de565b425b905061680c7fc2f2e18f9ba0fb9665d4d3df13798052801e85eb3fcc1fd5e9abffefaca5fe8c60001b61437e565b6168387f4efbc53a7b9756017834ea2baf8b6d184985f65102a5d70079b3de221062938a60001b61437e565b6168647fad21e486ba344af3740ac7f231cff0ca706268e9d70dacc315118f0389590de060001b61437e565b428110156168a7576040517f08c379a000000000000000000000000000000000000000000000000000000000815260040161689e9061c563565b60405180910390fd5b6168d37f335b4c01f93935223f365ecd2e58f7b3aa4b6a9dda3ce6419d9b808ddb06253f60001b61437e565b6168ff7fb099f58e8d110ad57ff4ecb00cd754b53ad22349b4b5e7454bd280a9fb61cad660001b61437e565b61692b7f163aaaa80b13ecb7f1922a2daf5e30dfa9c8939d6416cfa64a7d6e2b8dabcf7460001b61437e565b60006169438284600001617d4c90919063ffffffff16565b90506169717f03d1616cd6f72baf8e8243f6dd8155fe83d75c034f2207780e885f4c474cade660001b61437e565b61699d7f05394ec87fb006e8005b7ac3b9ff5db1d9d183e957257eea11b2df9df3bbfdcb60001b61437e565b6169c97f7638ee0a4fa2e245eaf86c18598ba566edbed08ce6bc1d49b683c587607a8b8860001b61437e565b82600c01548110616a0f576040517f08c379a0000000000000000000000000000000000000000000000000000000008152600401616a069061c5c7565b60405180910390fd5b616a3b7feeb3b68e8ec2d25d3dce7fe127afab355f2c91c4bf6365ecfdb1dd105d98e4af60001b61437e565b616a677f694c76641f79854e594d9712ffbb05fb8aea9536355ea7225401601e9789756c60001b61437e565b616a937fafd16b37f1909bff038040f513dd0a7236ac6a04a6e7ad72f36669c146e47ee360001b61437e565b60008184600c0154616aa5919061bdc5565b9050616ad37f9985bb14f679abf6c9ccd0f00dd97598e575ec879c6567fe537102f4919a370c60001b61437e565b616aff7f2ca8ab7513cd9057ebd6cdeabeca963beef18ba902fd5ea1645927412f824d7460001b61437e565b6000616b2d7fad7928f577ca07224c01463ea709bc6148a3b4958aeee44e5e9d9ce1409361b960001b61437e565b616b597fa0ff8ad5864223d71071280afd40a4e4e579043d794c42918926ec504dae921260001b61437e565b6000861115616ce157616b8e7f01d9ea71f4ff9c5ff490ed805e20d0d2aad8aa734c472d9fef9bc77de4c00fb260001b61437e565b616bba7ff8a7ea916144dbd4b7bad5f01630d9be9e2895af42db60172e1570a60e2c01a360001b61437e565b616be67f27a64b1fcd620b96129013cf71d6cc14ec10b028d086dea381d7a2139614e94360001b61437e565b616c127f9bdd0f9a057780958f1819dc642314462b865870c924c0400c2784935a11ff8f60001b61437e565b81861115616c55576040517f08c379a0000000000000000000000000000000000000000000000000000000008152600401616c4c9061c605565b60405180910390fd5b616c817ffe431c907f07e513b3937c894b579a7145977dfc6ecf5167da95dada456ed24a60001b61437e565b616cad7f2a515dddf859141a7e24cf2969bad4a9cc31c1f6076f365202b88b579c6a6d6e60001b61437e565b616cd97f6615d3139c329cb6fd031a99d3c96302599b4bbc36fce9f1979c01983696b1a360001b61437e565b859050616d69565b616d0d7fbe01c5f2eb6b109abf52ef3c7d0172f654a62edcdb12e434c9fcd8464ddc0d7a60001b61437e565b616d397f411411b6cd5d19c67e79f0f52c2b00f021533960c693864e3c083bb4bc62705560001b61437e565b616d657fc2aa36151a7392736f8a85f811c7a17ccd09ec30470f51db656c08368c55a3ef60001b61437e565b8190505b616d957fd2c7f7d59b8ab7c1f876e23f37817023b5b047260ea8dc008d70c8651a3b84ec60001b61437e565b616dc17f878bec2fab68bf4212962ca2386061a75e873b4ba95f6e763a780ee0be963d0b60001b61437e565b8085600c0154616dd1919061bdc5565b85600c0181905550616e057f05d3f655e7c832c10f9a776adb5c331fdf62ed696be17c0146f896d542f88fe560001b61437e565b616e317f8d3dc5b0a78260885ed801d002e05cfb81523aa05de3ba69e697f0d8bd54332c60001b61437e565b838560100181905550616e667fe04c4fa304ae1864f0263a4860779795553801b6f57efac14c3a29a702320ecb60001b61437e565b616e927f415d7265c435d6267241c08ee7d71aea4d9e75f22bb2066f49edd3ca9fcfe21b60001b61437e565b808560110181905550616ec77faa1b7be6463a49b2e67fad83d6b20ef4867174d3c4591ac64bc7b9402d78b83160001b61437e565b616ef37f42b01f9fa4b006ccc3afb37d4772dce58eb96fd409537db93f5d5485172dfd2d60001b61437e565b616f1d89826040518060200160405280600081525060405180602001604052806000815250614817565b616f497f17b012f27c2005620c7d3d61c636577ce55920d16fb61729361085eeb80f5c2860001b61437e565b616f757fb4725b376b2ad480f6887f7f1637d21c86867770e09d7ff892af7cab4fab7d4760001b61437e565b61016060009054906101000a900473ffffffffffffffffffffffffffffffffffffffff1673ffffffffffffffffffffffffffffffffffffffff1663a9059cbb89836040518363ffffffff1660e01b8152600401616fd392919061b5a2565b6020604051808303816000875af1158015616ff2573d6000803e3d6000fd5b505050506040513d601f19601f82011682018060405250810190617016919061b5c2565b6170d9576170467f33fb992d91c3166340bef78f296da48b8a867c000d08c78698e40bad79e5b9d860001b61437e565b6170727fe78df1d3aa080ec334d22055d11603773cf295782c30d7322ff26f2ce48f6f6e60001b61437e565b61709e7f666517206b5646f61a230a92823470258705db4ea66ec6870db2053073585d7260001b61437e565b6040517f08c379a00000000000000000000000000000000000000000000000000000000081526004016170d09061c643565b60405180910390fd5b6171057ff65835c98ca3291ff5f7567802221825d464777cbf2cfccdc0875f4537f32c1b60001b61437e565b6171317f4a9c8389bfd21047f5b0b7aabd2f38b73d73abc9673b3be5951ffebf7dd1f3ff60001b61437e565b61715d7fe5611c663551a2d25f89a0d6387dc9b80e2ef3f056dd458e721104bd31bb552f60001b61437e565b808973ffffffffffffffffffffffffffffffffffffffff16857f0bbe3f9ae306d75ae6df08cd4a79ac5c6eae93ffae7d7e52f2859bf27592519d60405160405180910390a4505050505050505050565b6000808273ffffffffffffffffffffffffffffffffffffffff163b119050919050565b600060019054906101000a900460ff1661721f576040517f08c379a00000000000000000000000000000000000000000000000000000000081526004016172169061c6a7565b60405180910390fd5b565b600060019054906101000a900460ff16617270576040517f08c379a00000000000000000000000000000000000000000000000000000000081526004016172679061c6a7565b60405180910390fd5b565b600060019054906101000a900460ff166172c1576040517f08c379a00000000000000000000000000000000000000000000000000000000081526004016172b89061c6a7565b60405180910390fd5b565b600060019054906101000a900460ff16617312576040517f08c379a00000000000000000000000000000000000000000000000000000000081526004016173099061c6a7565b60405180910390fd5b565b600060019054906101000a900460ff16617363576040517f08c379a000000000000000000000000000000000000000000000000000000000815260040161735a9061c6a7565b60405180910390fd5b6000606560006101000a81548160ff021916908315150217905550565b600060019054906101000a900460ff166173cf576040517f08c379a00000000000000000000000000000000000000000000000000000000081526004016173c69061c6a7565b60405180910390fd5b6173fb7f17e457a36bdd5ceaae4ee8ec05fdade826d3e29b8868dcdd4d4ce0ac6bb1d54d60001b614299565b6174277f8d40c930e6f813464fad881af9b35a4f34bbe32ca809d48fa3daff9ba7ebc42460001b614299565b6174537f2fe36d7b4aa73e416c0262251b61efd04d5540a0fd038ff778df916149838c0c60001b614299565b6174676000801b61746261480f565b615948565b6174937f76d9f258bda5200c688a53f789360370dbc95186ec4319ab6afbfc4a6de2a3ef60001b614299565b6174bf7f160128a68bc6501455e8add8cf609e719b8f6b5494ba7e315c25b9c95ff15fd560001b614299565b6174f07f65d7a28e3265b37a6474929f336521b332c1681b933f6cb9f3376673440d862a6174eb61480f565b615948565b565b600060019054906101000a900460ff16617541576040517f08c379a00000000000000000000000000000000000000000000000000000000081526004016175389061c6a7565b60405180910390fd5b8260359081617550919061c789565b508160369081617560919061c789565b50806037908051906020019061757792919061a7fb565b5060005b81518110156176095760016038600084848151811061759d5761759c61b8c5565b5b602002602001015173ffffffffffffffffffffffffffffffffffffffff1673ffffffffffffffffffffffffffffffffffffffff16815260200190815260200160002060006101000a81548160ff02191690831515021790555080806176019061b8db565b91505061757b565b50731820a4b7618bde71dce8cdc73aab6c95905fad2473ffffffffffffffffffffffffffffffffffffffff166329965a1d307fac7fbab5f54a3ca8194167523c6753bfeb96a445279294b6125b68cce2177054306040518463ffffffff1660e01b815260040161767b9392919061c853565b600060405180830381600087803b15801561769557600080fd5b505af11580156176a9573d6000803e3d6000fd5b50505050731820a4b7618bde71dce8cdc73aab6c95905fad2473ffffffffffffffffffffffffffffffffffffffff166329965a1d307faea199e31a596269b42cdafd93407f14436db6e4cad65417994c2eb37381e05a306040518463ffffffff1660e01b815260040161771e9392919061c853565b600060405180830381600087803b15801561773857600080fd5b505af115801561774c573d6000803e3d6000fd5b50505050505050565b6000617763826000016197ce565b9050919050565b61777261480f565b73ffffffffffffffffffffffffffffffffffffffff168173ffffffffffffffffffffffffffffffffffffffff16036177df576040517f08c379a00000000000000000000000000000000000000000000000000000000081526004016177d69061c87e565b60405180910390fd5b603860008273ffffffffffffffffffffffffffffffffffffffff1673ffffffffffffffffffffffffffffffffffffffff16815260200190815260200160002060009054906101000a900460ff16156178d2576001603a600061783f61480f565b73ffffffffffffffffffffffffffffffffffffffff1673ffffffffffffffffffffffffffffffffffffffff16815260200190815260200160002060008373ffffffffffffffffffffffffffffffffffffffff1673ffffffffffffffffffffffffffffffffffffffff16815260200190815260200160002060006101000a81548160ff021916908315150217905550617966565b603960006178de61480f565b73ffffffffffffffffffffffffffffffffffffffff1673ffffffffffffffffffffffffffffffffffffffff16815260200190815260200160002060008273ffffffffffffffffffffffffffffffffffffffff1673ffffffffffffffffffffffffffffffffffffffff16815260200190815260200160002060006101000a81549060ff02191690555b61796e61480f565b73ffffffffffffffffffffffffffffffffffffffff168173ffffffffffffffffffffffffffffffffffffffff167f50546e66e5f44d728365dc3908c63bc5cfeeab470722c1677e3073a6ac294aa160405160405180910390a350565b60007f01ffc9a7000000000000000000000000000000000000000000000000000000007bffffffffffffffffffffffffffffffffffffffffffffffffffffffff1916827bffffffffffffffffffffffffffffffffffffffffffffffffffffffff1916149050919050565b600073ffffffffffffffffffffffffffffffffffffffff168373ffffffffffffffffffffffffffffffffffffffff1603617aa3576040517f08c379a0000000000000000000000000000000000000000000000000000000008152600401617a9a9061c8e2565b60405180910390fd5b600073ffffffffffffffffffffffffffffffffffffffff168273ffffffffffffffffffffffffffffffffffffffff1603617b12576040517f08c379a0000000000000000000000000000000000000000000000000000000008152600401617b099061c946565b60405180910390fd5b80603b60008573ffffffffffffffffffffffffffffffffffffffff1673ffffffffffffffffffffffffffffffffffffffff16815260200190815260200160002060008473ffffffffffffffffffffffffffffffffffffffff1673ffffffffffffffffffffffffffffffffffffffff168152602001908152602001600020819055508173ffffffffffffffffffffffffffffffffffffffff168373ffffffffffffffffffffffffffffffffffffffff167f8c5be1e5ebec7d5bd14f71427d1e84f3dd0314c0f7b2291e5b200ac8c7c3b92583604051617bf0919061aa4f565b60405180910390a3505050565b6000617c2b7fabd466999cfc18bdbe313e9a5120e8a51f5f3c9f2059ecef2e50c08519a078a760001b61437e565b617c577ffd0cc291cc40ac5f73be71ed2a57d10f1aa741577b1b9ccfaf33dd36f9f98c0860001b61437e565b617c837f2b578438d5cda836df2f12ceaaf4963a902cac5350864aa8821596cfe9816e4760001b61437e565b600061015f60008473ffffffffffffffffffffffffffffffffffffffff1673ffffffffffffffffffffffffffffffffffffffff1681526020019081526020016000209050617cf37f0e5e1decfc72e3209cb98bd94f3361d366205adccd64b865ccb64cc3166f4c7160001b61437e565b617d1f7f8c228cac31c2241267f0acfe3706452626611f0cb1e05826b1dbe29f2e7fda6560001b61437e565b80600f0160009054906101000a900460ff168015617d44575060008160000160000154115b915050919050565b6000617d7a7f7574c0ee2b385d48a46f45b95f3f4fc6ea638c7bf1a7815cb7ebba56db424f6b60001b6197df565b617da67f87b2080fd3e811c509330008e2084d2b92e5e5aa0db978272b580b3c0919d3e660001b6197df565b617dd27f76b99c6f71ac72618b451ae2278fc691224ef46826491a55794e01ffe1d82d2c60001b6197df565b617ddc83836197e2565b617de68484619d61565b617df0919061b583565b905092915050565b6000818310617e075781617e09565b825b905092915050565b6000731820a4b7618bde71dce8cdc73aab6c95905fad2473ffffffffffffffffffffffffffffffffffffffff1663aabbb8ca877f29ddb589b1fb5fc7cf394961c1adf5f8c6454761adf795e67fe149f658abe8956040518363ffffffff1660e01b8152600401617e8292919061c9aa565b602060405180830381865afa158015617e9f573d6000803e3d6000fd5b505050506040513d601f19601f82011682018060405250810190617ec3919061c9ca565b9050600073ffffffffffffffffffffffffffffffffffffffff168173ffffffffffffffffffffffffffffffffffffffff1614617f6f578073ffffffffffffffffffffffffffffffffffffffff166375ab97828888888888886040518763ffffffff1660e01b8152600401617f3c9695949392919061c9f1565b600060405180830381600087803b158015617f5657600080fd5b505af1158015617f6a573d6000803e3d6000fd5b505050505b50505050505050565b617fa47f089c3fb6950210fd440427bd985b5d25ef6d1a1780b8d6d2941573bb370aa0c860001b61437e565b617fd07f156209912c03ac4654689a29c03a54818ca207f02a93ee914145ebcfb34a144a60001b61437e565b617ffc7fc234af0c27d9ea57b72a1aeb2dab1d70df8da6f27aeb5b8209487ef850f2c83960001b61437e565b60008073ffffffffffffffffffffffffffffffffffffffff168473ffffffffffffffffffffffffffffffffffffffff1614905061805b7ff5297785b211148bec6eb0c47385b9a1f10ae7d76a6eea5d8379cb6337bf2cd760001b61437e565b6180877f3ac7fc227ebec6fea1e0395a4411d7a40fe97bf19d782f20a217b7ab904f91a960001b61437e565b60008073ffffffffffffffffffffffffffffffffffffffff168473ffffffffffffffffffffffffffffffffffffffff161490506180e67f2024f0a09e435288038e79cb8b42bebe7081e1280eb1ee62026321de2a55511d60001b61437e565b6181127f61de2fccb0bd979e445507aaedf5bb7ccc9b19fa55f93a950bdb01ea462f6c6f60001b61437e565b600061813e7fa52f07bb8dc8df886598eb50edeaba2b8e45715237ed244354b60ea04d0390b888612783565b905061816c7fb34c7df79d7023a96b20642cc6ae5ee3345a8f9cf497ff5d7d545495cd01137860001b61437e565b6181987fcc3e2605942f861de0afa3320cf2a9902aa58a17869baed4eab72e9b5b51e22660001b61437e565b60008673ffffffffffffffffffffffffffffffffffffffff168873ffffffffffffffffffffffffffffffffffffffff16141590506181f87f75766f2311d2015c332d3da3636c81e023a8ebce985e2661e626039b96dbff9d60001b61437e565b6182247f849bb69730da685b37d39d9920a5695e8f97d04aa25f004cad2e4c946066e2d260001b61437e565b600061822f886126bd565b86111590506182607f89457cb965b98b758fd474c599a01ad68919a323db46ee2e29dc50f8d460834760001b61437e565b61828c7f89bb600e6e58c4abad1f1ef9f9c6ac2bddb6964c6d78b3cb60e93ecacee1735760001b61437e565b6000618297896125bb565b87111590506182c87f53ec08a823f0dc0f53b35fb71d4d1d3979a14831b5df268a8a34f649f97b79c260001b61437e565b6182f47f5c41f8f4ebd4acd699d470887158553bd655564b62b441cbd4da5b28981ae5dd60001b61437e565b8480156182fe5750825b80156183075750835b15618438576183387f8ad1427f5f36e6a7eea7e539d7b3b5ab20f77caeea2ee203473c86d4fadab01b60001b61437e565b6183647fc5488357ca21107e070625251dff7ad8b67c2f50bd6eb1051879a19af12c0c2f60001b61437e565b6183907f07f11fd341a4faf5d10d3fd52179076bc7bb5e1dcfbd8d0665a5980fd50bb18260001b61437e565b6183bc7fa755a193f992aec0b7a83c7458e8bdbc3a54d2eb35213c357d7c9c5aa70c3b2460001b61437e565b866183c68a6125bb565b1015618407576040517f08c379a00000000000000000000000000000000000000000000000000000000081526004016183fe9061ca4a565b60405180910390fd5b6184337ff2d08454f5a33653ce41eef1f6ddbac9822d5033a23d7e0da1ccb3b48ca32c1e60001b61437e565b6185ed565b6184647fd630e8318f2da381c77652a2c7d7074a34d1fa93776231c9c73b461aa167748260001b61437e565b6184907f26dfcacbfdf338ede8d6dca5dd05c25d52f5d4b5902105e9c537b481f464827460001b61437e565b856185bf576184c17fbaea8be1ac42deb2ac16d5d8eb4481ceb9f791b6b6e8e23e928bd44a7c811c2060001b61437e565b6184ed7f66cccddd70a00a6e36068b091a554491254732ac0f333ea4b0b15ea1e5d02e3860001b61437e565b6185197f6f3e6634fb463d19af91a602c5704aa5eccd69d4368379dcd16d78b103c2c5d160001b61437e565b6185457fd1f96d57f9f9b699c5a6defa0e7acdd6d49124cc706c22b21c4e269f4d86894860001b61437e565b81801561854f5750805b61858e576040517f08c379a00000000000000000000000000000000000000000000000000000000081526004016185859061ca4a565b60405180910390fd5b6185ba7ff1b458defd4f43051ccf0df310e528c5ddabbe0feb0796bc8cc06fd4b9719ff160001b61437e565b6185ec565b6185eb7f4c5fca58a586d007470ffb5435052c9303cb399648feabc9ae4470dd18cd5afc60001b61437e565b5b5b6186197fc9164839fcca9dccf1e2f3ea59a030872a974612b256d1ca98969d0e6d6fd92d60001b61437e565b6186457fe52b02aeb19f7d526578e6b7e55d24a50e7bcdd9afc6175c34b00ec66ba9ed6860001b61437e565b6186518a8a8a8a61a084565b50505050505050505050565b6186678282612783565b6186f65761868c8173ffffffffffffffffffffffffffffffffffffffff16601461a122565b61869a8360001c602061a122565b6040516020016186ab92919061ca88565b6040516020818303038152906040526040517f08c379a00000000000000000000000000000000000000000000000000000000081526004016186ed919061a9c6565b60405180910390fd5b5050565b6187267ffa16eb4f44da0841d00c5a3f703fb57ebf8b1450bf2d232c91fb8c5295fd911a60001b6197df565b6187527fb403ec71b8226fde06455e96e93ff09f696bd02af5a6174c7291551767bca42d60001b6197df565b61877e7f1972a5359ead0b6393a5e08356c91d0e29e38169f20924cb0d70d1cd46bae59a60001b6197df565b6000836004015490506187b37fbbf7d1d70e887fed3fb633f0dd255812db490ae9206b3a358293bcf033e0846960001b6197df565b6187df7f8c540aeacdf88d7753dc8829421db2fe57d00317c9a248589a76ea9750902caf60001b6197df565b6000846004015403618913576188177f7bd7289b50f7551df625ceeea9fe273e8203a950f3da668be4420b389aadb9c260001b6197df565b6188437f2222cb194449f377e76ef1806b9f4690366ec504543f1d6e01dc86e96ef4f54160001b6197df565b61886f7fb3e7553b2c178353d01e80732626b2530ed78cb1360056100526053fd008aea760001b6197df565b61889b7f852423317aa6e69b82cbbc0e1a5291f9a1e0e5bbf65bc94a529009e195096afe60001b6197df565b83600001548310156188e2576040517f08c379a00000000000000000000000000000000000000000000000000000000081526004016188d99061cb0f565b60405180910390fd5b61890e7fd722f0e8f24003078e3b87cb9d98fa130d96aa214fbd9324fb8610b5f99f4f2260001b6197df565b618a57565b61893f7fdb2715093438946bea89a4ebe41bf0ae84557ead9263b006b10feba5d273f25b60001b6197df565b61896b7fe0128d8d0b38ab104c24de1f8af482f257492ff59b1bca58180505c8f9d2b68160001b6197df565b6189977f5f966a9def121ac4a6c749948370cf0f806c2ca97798f5288fdd9b091c628a8260001b6197df565b6189c37f320e9ca26010a3b0b349e9112c8e36b9c1c2ef4d2dfa1b2eecc6cf05fd73c5dd60001b6197df565b8360030160006001836189d6919061bdc5565b815260200190815260200160002060000154831015618a2a576040517f08c379a0000000000000000000000000000000000000000000000000000000008152600401618a219061cb73565b60405180910390fd5b618a567f31fa4f9cbab542d9ffe9f05e3de62c1ead69fdd2527b1ceb642f7723d534681260001b6197df565b5b618a837f98ab84ccda5a6f5a67b86a96c4a40649443a83a6ed328a3974af805a46e4d54260001b6197df565b618aaf7f84e20b82e67e7877a98e6a61aba02d0415b66b4a1e399da31216146defc2a7ea60001b6197df565b618adb7f46057b90eb97ad6fafc563b0ea0c10a15c6b4d2613d96aea0744936aa43f532e60001b6197df565b8360010154831115618b22576040517f08c379a0000000000000000000000000000000000000000000000000000000008152600401618b199061cbd7565b60405180910390fd5b618b4e7f6faba84397ff100ae0943e75b451ce83aecf0a1362b586e5c7beaf8126c0265260001b6197df565b618b7a7f5459bdab27d3793f0ebdebfed35e1326b703141eb8615983bd16ae08b8de78e360001b6197df565b618ba67f91b54b2481362844f2f750fb44196fac2b287ecd478e2312bf56912a7a826b9060001b6197df565b618bd27f23aefb3f353dc1fa3f46ca9a69cae60d458b03b7e149d92bfd68ad61913e1ead60001b6197df565b8360020154828560050154618be7919061b583565b1115618c28576040517f08c379a0000000000000000000000000000000000000000000000000000000008152600401618c1f9061cc3b565b60405180910390fd5b618c547fe95acefb910c3d142749180f16ba37630a10186b6844aff1868166fded3144e460001b6197df565b618c807f3115d2d3bdb6f5ce0397d0c1db9e4f4e67c210694b830423ab072f450afa5ae060001b6197df565b618cac7f937f161546e975475a1068830116656ed542e5ddeb07ad717a7ec98edbaf479060001b6197df565b60008460030160008381526020019081526020016000209050618cf17ff3a629ec67e59c64be082883ab28933961160b58f63737b4f7051ff56f0b650860001b6197df565b618d1d7f4676ef4fad2a69c372c1b6f0958f41c38d4e90c3ea02777f96ca870d711b258260001b6197df565b838160000181905550618d527fafb4efd0d40c3af0ba89397a2be19a4595b47c697b63f7c2c88c6560b2ae60d760001b6197df565b618d7e7fbc1855fe177e2c50ac1a521dde9b8e72816b71f90e7e015f00834374282ae38a60001b6197df565b828160010181905550618db37f3b1bcc5ac7e2223c3e501647267bbf5f390fc120dae555be81e0d1891c402a9960001b6197df565b618ddf7fd125de0337d66d525abd2ab3bf9aad6701a5b87ef7ed0d6e4b5c94d894538d4b60001b6197df565b6001856004016000828254618df4919061b583565b92505081905550618e277fe9d15c7c74d34185f3168faa26548be427b179d04ded1d3f3ea01bd935aef64460001b6197df565b618e537fc7264bf0a47eb1770a25f665d2e94e3a1845b7eec0b67324f07a9a13b517b13c60001b6197df565b82856005016000828254618e67919061b583565b925050819055505050505050565b618ea17f020fadf403ece434f2508bd7275692696d54bb118a602cffd9fd08fe058130ae60001b61437e565b618ecd7f0d034e1f9ff73896d74baec8be66d189753d72e757efb3127047a903373abce560001b61437e565b618ef97f624cb5200e2c6c3c488d20c2b8f50f9cf8f4ab321aa740b750dcb8e7d7d11a7f60001b61437e565b618f03828261a35e565b618f2f7fe0dd509e49396aa016dd5e8d6ff8800f28d0fdd04a9b42032ce7ce0e72003b4860001b61437e565b618f5b7f868f9718413ae1aefbe12243151365c9b35e4297f5417b03f8f87d796336891d60001b61437e565b7fa52f07bb8dc8df886598eb50edeaba2b8e45715237ed244354b60ea04d0390b882036190f457618fae7f84d8c2f0fe4b8ca21433ea34e9a9f2c7ddbdaf06e90ce8bc603f82d24888c90660001b61437e565b618fda7f05ade6e65ef66f35d3a0a69e714659e6a8f52b91e9992614d1468ffe61d64c4a60001b61437e565b6190067f1fc14a84f47578e56827a9cedeae1360151781620b0660a6c059f6464632d29a60001b61437e565b6190327f7598d00b5b1c6cd5f0412c7fe17461a05a023923471fbae2ac9c5bbef2ef3a3c60001b61437e565b61015f60008273ffffffffffffffffffffffffffffffffffffffff1673ffffffffffffffffffffffffffffffffffffffff168152602001908152602001600020600f0160009054906101000a900460ff16156190c3576040517f08c379a00000000000000000000000000000000000000000000000000000000081526004016190ba9061cc9f565b60405180910390fd5b6190ef7ff25275cc5bd217f0e442b266264c1c2ef8663d7f08bcf0e853cb7cf3d567d6fc60001b61437e565b619121565b6191207f87857a852be4cf6efc9dbd81b92ab81df441f3c889a6c1badcd403d8cb43f01e60001b61437e565b5b5050565b61912f828261a396565b6191548160fb600085815260200190815260200160002061a47790919063ffffffff16565b505050565b600073ffffffffffffffffffffffffffffffffffffffff168573ffffffffffffffffffffffffffffffffffffffff16036191c8576040517f08c379a00000000000000000000000000000000000000000000000000000000081526004016191bf9061cd03565b60405180910390fd5b60006191d261480f565b90506191e18160008888617f78565b84603460008282546191f3919061b583565b9250508190555084603360008873ffffffffffffffffffffffffffffffffffffffff1673ffffffffffffffffffffffffffffffffffffffff1681526020019081526020016000206000828254619249919061b583565b9250508190555061926081600088888888886195d1565b8573ffffffffffffffffffffffffffffffffffffffff168173ffffffffffffffffffffffffffffffffffffffff167f2fe5be0146f74c5bce36c0b80911af6c7d86ff27e89d5cfa61fc681327954e5d8787876040516192c19392919061c036565b60405180910390a38573ffffffffffffffffffffffffffffffffffffffff16600073ffffffffffffffffffffffffffffffffffffffff167fddf252ad1be2c89b69c2b068fc378daa952ba7f163c4a11628f55a4df523b3ef87604051619327919061aa4f565b60405180910390a3505050505050565b619341828261a4a7565b6193668160fb600085815260200190815260200160002061a58990919063ffffffff16565b505050565b619373611ea2565b6193b2576040517f08c379a00000000000000000000000000000000000000000000000000000000081526004016193a99061cd40565b60405180910390fd5b565b6193c086868686617f78565b6000603360008773ffffffffffffffffffffffffffffffffffffffff1673ffffffffffffffffffffffffffffffffffffffff16815260200190815260200160002054905083811015619447576040517f08c379a000000000000000000000000000000000000000000000000000000000815260040161943e9061cd7e565b60405180910390fd5b838103603360008873ffffffffffffffffffffffffffffffffffffffff1673ffffffffffffffffffffffffffffffffffffffff1681526020019081526020016000208190555083603360008773ffffffffffffffffffffffffffffffffffffffff1673ffffffffffffffffffffffffffffffffffffffff16815260200190815260200160002060008282546194dc919061b583565b925050819055508473ffffffffffffffffffffffffffffffffffffffff168673ffffffffffffffffffffffffffffffffffffffff168873ffffffffffffffffffffffffffffffffffffffff167f06b541ddaa720db2b10a4d0cdac39b8d360425fc073085fac19bc8261467798787878760405161955b9392919061c036565b60405180910390a48473ffffffffffffffffffffffffffffffffffffffff168673ffffffffffffffffffffffffffffffffffffffff167fddf252ad1be2c89b69c2b068fc378daa952ba7f163c4a11628f55a4df523b3ef866040516195c0919061aa4f565b60405180910390a350505050505050565b6000731820a4b7618bde71dce8cdc73aab6c95905fad2473ffffffffffffffffffffffffffffffffffffffff1663aabbb8ca877fb281fc8c12954d22544db45de3159a39272895b169a852b314f9cc762e44c53b6040518363ffffffff1660e01b815260040161964292919061c9aa565b602060405180830381865afa15801561965f573d6000803e3d6000fd5b505050506040513d601f19601f82011682018060405250810190619683919061c9ca565b9050600073ffffffffffffffffffffffffffffffffffffffff168173ffffffffffffffffffffffffffffffffffffffff1614619732578073ffffffffffffffffffffffffffffffffffffffff166223de298989898989896040518763ffffffff1660e01b81526004016196fb9695949392919061c9f1565b600060405180830381600087803b15801561971557600080fd5b505af1158015619729573d6000803e3d6000fd5b50505050619799565b8115619798576197578673ffffffffffffffffffffffffffffffffffffffff166171ad565b15619797576040517f08c379a000000000000000000000000000000000000000000000000000000000815260040161978e9061cde2565b60405180910390fd5b5b5b5050505050505050565b60008260000182815481106197bb576197ba61b8c5565b5b9060005260206000200154905092915050565b600081600001805490509050919050565b50565b60006198107faca56456c3012daac3d6e623a9847ec408efb19083c33a91186b3e069d61b0b060001b6197df565b61983c7f4c76b5caaecdba51448f4952ca1839e51c13a98fecbc75795eb09943d21310a760001b6197df565b6198687fba051b1dec5e62b71689b35c952a20bf260ec7e577f699a059ea130b7ea34d9e60001b6197df565b60006198967f38fda2e9541c3a92c4b809c49e4fc258383cdfd2ec0a41faaa4a2ecf1586a8bb60001b6197df565b6198c27fb3c9a21edc8c24609439ad508ce730a7a073d51506b20c8ab62bdf780ba6cba660001b6197df565b8360050154846002015410619970576198fd7f55908bed7c6effa9d4725182441b98c1997f7dddaffee0f8777ed3026d8379e260001b6197df565b6199297f1b0f9483476b626a648b9cbec9210bc030ba6abd416356fe8c66785bc20c05fa60001b6197df565b6199557f938de374bf09ddd4244bb6b09af5dfd162d169f216c9faabd48c6f319859bc2360001b6197df565b83600501548460020154619969919061bdc5565b905061999d565b61999c7f73c362eb00babf3a0ab895353fd04bb2f618e362afbc4ad5f08e6dce0137844660001b6197df565b5b6199c97fe23e48bce475e9d20ec7a1fbb17fce7e5c659f855aa379e672124d05b1fb663060001b6197df565b6199f57fc8ceb39902659d7fba47e4a19bae219deb7dc7a7b3d41d35900c9cad7298612160001b6197df565b83600101548310619a8d57619a2c7f963778fabfd2d6b7d5dc74db863d1fd7707b4b34104b9be3f586be02feb740e460001b6197df565b619a587fcfd0893038748a5041bd517b57bcad56a08292c8bc134a60bb2113e1fde4672560001b6197df565b619a847fc5de256b8b4181e2283c9c67db30dd1420f21bbb74efd57aafe660cc77a05ef360001b6197df565b80915050619d5b565b619ab97fb044f57e460d95b5c7cd375cb877e3f6b390d6ef04992657fcf4cd4a2e80c9e860001b6197df565b619ae57f480a74fa2ea16b08ddf4296276756f64dbdfaec379a6da144f6094064bc7b82560001b6197df565b619b117ff61bbecc4e1cb7fdaef2220faa83f8e99cfe3582e34ef7c3affa101b129801d860001b6197df565b600084600001549050619b467fd432eb8650cbb30450f3bb332b9fa4270c01d2f78b3d4a594e34bdf3155309b960001b6197df565b619b727ff9a370625f609754fba1a04efb4eb4304ebe0f9f4d7ec83b8925199ae0c160bc60001b6197df565b600085600401541115619c3357619bab7fc45f564510671082532c251ebff4c301f611327b3b31bc014c78e67020e8123b60001b6197df565b619bd77fbd4e0b1ee09560200d692d67d4c38770e6e15e3a7f81f2d3eb64fbe4358314d660001b6197df565b619c037f76fad55d0f6a294a186e71ca5991924fb763651d898e7f617c996b10abdedc2560001b6197df565b84600301600060018760040154619c1a919061bdc5565b8152602001908152602001600020600001549050619c60565b619c5f7ffed5406a7fcdd3840d25bc4468c99d749176a7d19e278772a5842779190c973960001b6197df565b5b619c8c7f1e3851d6398684f4d699558175ac6bff14c1f5e38731dfd9b9be4fc7b9e2f5b460001b6197df565b619cb87f110fa435a06e6a8a76a5a85485536c26463a39ab419a7b998e28a6e0adab1e5860001b6197df565b6000818660010154619cca919061bdc5565b9050619cf87ff4573a962dd81b6cbc4edc0ade6d2c98a0811f9008b7886c294e41e578c5e85060001b6197df565b619d247f667e1f0abb9d432dd331ab44ed962c67f477c9f8ca78524848971ce558de913160001b6197df565b818510619d5257808286619d38919061bdc5565b84619d43919061ce6c565b619d4d919061ce92565b619d55565b60005b93505050505b92915050565b6000619d8f7f7b010dcdd029206abeb0c22cefd1082accdfd19355d510ffc6b58196eab3bd3a60001b6197df565b619dbb7f81d462b160abd54c033c9fbb9c7d1665589b61a8649689a09b12a587a1437fcf60001b6197df565b619de77f4ab583e3af07fd12e54d4c5a70b85399727904c7db02c5b32419ac866f6f2d8560001b6197df565b6000619e157f2f417a985a568353280d571801afbd5aba4c464a67eb1ce585c3fd2327dcf17a60001b6197df565b619e417f938e1ca9a27801f98a4fc01b8bc4370f3108f0a9250089503a6271d075a0b43360001b6197df565b600084600401549050619e767f2aa98847ce6fc03f6df1b18e2391bee34d2bb93fdee736511208e4047af4f50860001b6197df565b619ea27fac262efa0d7e6b922526100fffccc93f0706ddc4c969a1f3f108b3ce1c2cd5a060001b6197df565b60005b8181101561a01357619ed97ff58e1fb8e3108788bf7ced05dc05f2c8abeede9e1cc94e7f07dd56dcf93942fe60001b6197df565b619f057fad406207f5c0c96b53fd2acd0dcc8946a320dd302ddebd916a37bee196676c9b60001b6197df565b856003016000828152602001908152602001600020600001548510619fd357619f507f5250d2c05a52b79dcc8fc432872d64be4a4ef0b2d8b0d24b5b0e5494d3917bd960001b6197df565b619f7c7f99b0f519a3041e8ff55367b651a6d2d300333389d1af58a28c81c8195116f13960001b6197df565b619fa87f929cf7e18bbbacca49ca4fc5e1b8b5d36aaa6782a5e294a3c080f7e6ef505afc60001b6197df565b8560030160008281526020019081526020016000206001015483619fcc919061b583565b925061a000565b619fff7f9e495c84a9025e619d1c76d3950e6502d1ae2b806018e5bbbc35d1c8f49b485960001b6197df565b5b808061a00b9061b8db565b915050619ea5565b5061a0407fa4fff5e612d6f396828fc93be91b9e3428c8d33013f038d72ac44c501155311b60001b6197df565b61a06c7f5392ff1a07efce50f2279b57195a0872ac3499b11ffc3e9a6862efb70793ce0360001b6197df565b61a07a856002015483617df8565b9250505092915050565b61a08c61424f565b61a0b87f6932310e8053471fade5528d5c5e30ca20bcaf3f477ce05c54376f70d4cf54ee60001b614299565b61a0e47f14706b7bf402e384ab344d3a3f5528ccf66fad15631c5f6600a3069bb2c6ef9760001b614299565b61a1107f05e124ff540c62a5877da4b0fb251678460f1ead24425a204998a1b5e5cbd50960001b614299565b61a11c8484848461a5b9565b50505050565b60606000600283600261a135919061ce6c565b61a13f919061b583565b67ffffffffffffffff81111561a1585761a15761abc6565b5b6040519080825280601f01601f19166020018201604052801561a18a5781602001600182028036833780820191505090505b5090507f30000000000000000000000000000000000000000000000000000000000000008160008151811061a1c25761a1c161b8c5565b5b60200101907effffffffffffffffffffffffffffffffffffffffffffffffffffffffffffff1916908160001a9053507f78000000000000000000000000000000000000000000000000000000000000008160018151811061a2265761a22561b8c5565b5b60200101907effffffffffffffffffffffffffffffffffffffffffffffffffffffffffffff1916908160001a9053506000600184600261a266919061ce6c565b61a270919061b583565b90505b600181111561a310577f3031323334353637383961626364656600000000000000000000000000000000600f86166010811061a2b25761a2b161b8c5565b5b1a60f81b82828151811061a2c95761a2c861b8c5565b5b60200101907effffffffffffffffffffffffffffffffffffffffffffffffffffffffffffff1916908160001a905350600485901c94508061a3099061ceba565b905061a273565b506000841461a354576040517f08c379a000000000000000000000000000000000000000000000000000000000815260040161a34b9061ced6565b60405180910390fd5b8091505092915050565b61a36661424f565b61a3927f2296ddf1c575eba3b0d761fbf3b49941215eab8309aa02c89f48646d55a2aa2760001b614299565b5050565b61a3a08282612783565b61a47357600160c9600084815260200190815260200160002060000160008373ffffffffffffffffffffffffffffffffffffffff1673ffffffffffffffffffffffffffffffffffffffff16815260200190815260200160002060006101000a81548160ff02191690831515021790555061a41861480f565b73ffffffffffffffffffffffffffffffffffffffff168173ffffffffffffffffffffffffffffffffffffffff16837f2f8788117e7eff1d82e926ec794901d17c78024a50270940304540a733656f0d60405160405180910390a45b5050565b600061a49f836000018373ffffffffffffffffffffffffffffffffffffffff1660001b61a5bf565b905092915050565b61a4b18282612783565b1561a58557600060c9600084815260200190815260200160002060000160008373ffffffffffffffffffffffffffffffffffffffff1673ffffffffffffffffffffffffffffffffffffffff16815260200190815260200160002060006101000a81548160ff02191690831515021790555061a52a61480f565b73ffffffffffffffffffffffffffffffffffffffff168173ffffffffffffffffffffffffffffffffffffffff16837ff6391f5c32d9c69d2a47ea670b442974b53935d1edc7fd64eb21e047a839171b60405160405180910390a45b5050565b600061a5b1836000018373ffffffffffffffffffffffffffffffffffffffff1660001b61a62f565b905092915050565b50505050565b600061a5cb838361a743565b61a62457826000018290806001815401808255809150506001900390600052602060002001600090919091909150558260000180549050836001016000848152602001908152602001600020819055506001905061a629565b600090505b92915050565b6000808360010160008481526020019081526020016000205490506000811461a73757600060018261a661919061bdc5565b905060006001866000018054905061a679919061bdc5565b905081811461a6e857600086600001828154811061a69a5761a69961b8c5565b5b906000526020600020015490508087600001848154811061a6be5761a6bd61b8c5565b5b90600052602060002001819055508387600101600083815260200190815260200160002081905550505b8560000180548061a6fc5761a6fb61cf13565b5b60019003818190600052602060002001600090559055856001016000868152602001908152602001600020600090556001935050505061a73d565b60009150505b92915050565b600080836001016000848152602001908152602001600020541415905092915050565b60405180610200016040528060008152602001600073ffffffffffffffffffffffffffffffffffffffff168152602001600081526020016000815260200160008152602001600081526020016000815260200160008152602001600081526020016000815260200160008152602001600081526020016000815260200160008152602001600081526020016000151581525090565b82805482825590600052602060002090810192821561a874579160200282015b8281111561a8735782518260006101000a81548173ffffffffffffffffffffffffffffffffffffffff021916908373ffffffffffffffffffffffffffffffffffffffff1602179055509160200191906001019061a81b565b5b50905061a881919061a885565b5090565b5b8082111561a89e57600081600090555060010161a886565b5090565b60006020828403121561a8b457600080fd5b813563ffffffff60e01b8116811461a8cb57600080fd5b8091505092915050565b80151582525050565b6000602082019050821515825292915050565b60018060a01b03811682525050565b600081518084526020808501945080840160005b8381101561a93d5760018060a01b0382511687528287019650828201915060018101905061a914565b5050505082905092915050565b60208152600061a95d602083018461a900565b905092915050565b60005b8381101561a98357808201518184015260208101905061a968565b8381111561a992576000848401525b50505050565b6000815180845261a9b081602086016020860161a965565b6020601f19601f83011685010191505092915050565b60208152600061a9d9602083018461a998565b905092915050565b60018060a01b038116811461a9f557600080fd5b50565b6000806040838503121561aa0b57600080fd5b823561aa168161a9e1565b80925050602083013590509250929050565b60006020828403121561aa3a57600080fd5b813561aa458161a9e1565b8091505092915050565b600060208201905082825292915050565b60008060006060848603121561aa7557600080fd5b833561aa808161a9e1565b80935050602084013561aa928161a9e1565b80925050604084013590509250925092565b60006020828403121561aab657600080fd5b8135905092915050565b600060208201905082825292915050565b60008060008060008060008060008060006101608c8e03121561aaf357600080fd5b8b359a5060208c013561ab058161a9e1565b809a505060408c0135985060608c0135975060808c0135965060a08c0135955060c08c0135945060e08c013593506101008c013592506101208c013591506101408c013590509295989b509295989b9093969950565b6000806040838503121561ab6e57600080fd5b82359150602083013561ab808161a9e1565b809150509250929050565b600060208201905060ff8316825292915050565b60006020828403121561abb157600080fd5b813561abbc8161a9e1565b8091505092915050565b634e487b7160e01b600052604160045260246000fd5b60006040519050610140810181811067ffffffffffffffff8211171561ac055761ac0461abc6565b5b806040525090565b60006040519050601f19601f830116810181811067ffffffffffffffff8211171561ac3b5761ac3a61abc6565b5b8060405250919050565b600067ffffffffffffffff82111561ac605761ac5f61abc6565b5b60208260051b019050919050565b600082601f83011261ac7f57600080fd5b8135602061ac9461ac8f8361ac45565b61ac0d565b808382528282019150828460051b87010193508684111561acb457600080fd5b8286015b8481101561acde57803561accb8161a9e1565b808452508383019250838101905061acb8565b508094505050505092915050565b60006020828403121561acfe57600080fd5b813567ffffffffffffffff81111561ad1557600080fd5b61ad218482850161ac6e565b91505092915050565b600081518084526020808501945080840160005b8381101561ad5f57815187528287019650828201915060018101905061ad3e565b5050505082905092915050565b60208152600061ad7f602083018461ad2a565b905092915050565b600082601f83011261ad9857600080fd5b813567ffffffffffffffff81111561adb35761adb261abc6565b5b61adc66020601f19601f8401160161ac0d565b81815284602083860101111561addb57600080fd5b81602085016020830137600060208383010152809250505092915050565b600080600080600060a0868803121561ae1157600080fd5b853561ae1c8161a9e1565b80955050602086013561ae2e8161a9e1565b8094505060408601359250606086013567ffffffffffffffff8082111561ae5457600080fd5b61ae6089838a0161ad87565b9350608088013591508082111561ae7657600080fd5b5061ae838882890161ad87565b9150509295509295909350565b600082601f83011261aea157600080fd5b8135602061aeb661aeb18361ac45565b61ac0d565b808382528282019150828460051b87010193508684111561aed657600080fd5b8286015b8481101561aef557803583528383019250838101905061aeda565b508094505050505092915050565b600082601f83011261af1457600080fd5b8135602061af2961af248361ac45565b61ac0d565b808382528282019150828460051b87010193508684111561af4957600080fd5b8286015b8481101561af8d57803567ffffffffffffffff81111561af6d5760008081fd5b61af7b8986838b010161ad87565b8452508383019250838101905061af4d565b508094505050505092915050565b801515811461afa957600080fd5b50565b600082601f83011261afbd57600080fd5b8135602061afd261afcd8361ac45565b61ac0d565b808382528282019150828460051b87010193508684111561aff257600080fd5b8286015b8481101561b01c57803561b0098161af9b565b808452508383019250838101905061aff6565b508094505050505092915050565b600080600080600060a0868803121561b04257600080fd5b853567ffffffffffffffff8082111561b05a57600080fd5b61b06689838a0161ac6e565b9650602088013591508082111561b07c57600080fd5b61b08889838a0161ae90565b9550604088013591508082111561b09e57600080fd5b61b0aa89838a0161af03565b9450606088013591508082111561b0c057600080fd5b61b0cc89838a0161af03565b9350608088013591508082111561b0e257600080fd5b5061b0ef8882890161afac565b9150509295509295909350565b6000806040838503121561b10f57600080fd5b82359150602083013590509250929050565b600060208201905060018060a01b038316825292915050565b60008083601f84011261b14c57600080fd5b8235905067ffffffffffffffff81111561b16557600080fd5b6020830191508360208260051b850101111561b18057600080fd5b9250929050565b6000806000806000806000806080898b03121561b1a357600080fd5b883567ffffffffffffffff8082111561b1bb57600080fd5b61b1c78c838d0161b13a565b9250809a505081985060208b013591508082111561b1e457600080fd5b61b1f08c838d0161b13a565b92508098505081965060408b013591508082111561b20d57600080fd5b61b2198c838d0161b13a565b92508096505081945060608b013591508082111561b23657600080fd5b5061b2438b828c0161b13a565b915080935050809150509295985092959890939650565b60008060006060848603121561b26f57600080fd5b833561b27a8161a9e1565b8093505060208401359150604084013567ffffffffffffffff81111561b29f57600080fd5b61b2ab8682870161ad87565b9150509250925092565b6000806020838503121561b2c857600080fd5b823567ffffffffffffffff81111561b2df57600080fd5b61b2eb8582860161b13a565b915080935050809150509250929050565b80518252602081015161b312602084018261a8f1565b5060408101516040830152606081015160608301526080810151608083015260a081015160a083015260c081015160c083015260e081015160e08301526101008082015181840152506101208082015181840152506101408082015181840152506101608082015181840152506101808082015181840152506101a08082015181840152506101c08082015181840152506101e08082015161b3b68285018261a8d5565b50505050565b60006020808301818452808551808352604086019150838701925060005b8181101561b4045761b3ed83855161b2fc565b61020083019250848401935060018101905061b3da565b505080935050505092915050565b60006102008201905061b425828461b2fc565b92915050565b6000806040838503121561b43e57600080fd5b823561b4498161a9e1565b80925050602083013561b45b8161a9e1565b809150509250929050565b6000806000806080858703121561b47c57600080fd5b843561b4878161a9e1565b8094505060208501359250604085013567ffffffffffffffff8082111561b4ad57600080fd5b61b4b98883890161ad87565b9350606087013591508082111561b4cf57600080fd5b5061b4dc8782880161ad87565b91505092959194509250565b6000806040838503121561b4fb57600080fd5b82359150602083013567ffffffffffffffff81111561b51957600080fd5b61b5258582860161ad87565b9150509250929050565b60008160011c9050600182168061b54757607f821691505b60208210810361b56757634e487b7160e01b600052602260045260246000fd5b50919050565b634e487b7160e01b600052601160045260246000fd5b6000821982111561b5975761b59661b56d565b5b828201905092915050565b600060408201905060018060a01b03841682528260208301529392505050565b60006020828403121561b5d457600080fd5b815161b5df8161af9b565b8091505092915050565b60208152602a60208201527f6c4e6f72693a205472616e7366657220746f20756e6465726c79696e6720617360408201527f736574206661696c65640000000000000000000000000000000000000000000060608201526000608082019050919050565b60208152601c60208201527f6c4e4f52493a207472616e7366657246726f6d2064697361626c65640000000060408201526000606082019050919050565b60006101408201905060018060a01b038c1682528a60208301528960408301528860608301528760808301528660a08301528560c08301528460e083015283610100830152826101208301529b9a5050505050505050505050565b60208152602560208201527f6c4e4f52493a2043616e6e6f74206465706f73697420776974686f757420612060408201527f6772616e7400000000000000000000000000000000000000000000000000000060608201526000608082019050919050565b600060608201905060018060a01b038086168352808516602084015250826040830152949350505050565b60208152602b60208201527f6c4e6f72693a207472616e7366657246726f6d20756e6465726c79696e67206160408201527f73736574206661696c656400000000000000000000000000000000000000000060608201526000608082019050919050565b60208152602f60208201527f416363657373436f6e74726f6c3a2063616e206f6e6c792072656e6f756e636560408201527f20726f6c657320666f722073656c66000000000000000000000000000000000060608201526000608082019050919050565b60208152603660208201527f6c4e6f72693a207570646174696e6720756e6465726c79696e6720616464726560408201527f737320746f206578697374696e6720616464726573730000000000000000000060608201526000608082019050919050565b600060408201905060018060a01b0380851683528084166020840152509392505050565b634e487b7160e01b600052603260045260246000fd5b60008019820361b8ee5761b8ed61b56d565b5b600182019050919050565b60208152601c60208201527f6c4e4f52493a206f70657261746f7253656e642064697361626c65640000000060408201526000606082019050919050565b60208152604660208201527f4552433737375072657365745061757361626c655065726d697373696f6e656460408201527f3a20726563697069656e7420616e6420616d6f756e74206c656e677468206d6960608201527f736d6174636800000000000000000000000000000000000000000000000000006080820152600060a082019050919050565b60208152604660208201527f4552433737375072657365745061757361626c655065726d697373696f6e656460408201527f3a20616d6f756e747320616e64207573657244617461206c656e677468206d6960608201527f736d6174636800000000000000000000000000000000000000000000000000006080820152600060a082019050919050565b60208152604b60208201527f4552433737375072657365745061757361626c655065726d697373696f6e656460408201527f3a20757365724461746120616e64206f70657261746f7244617461206c656e6760608201527f7468206d69736d617463680000000000000000000000000000000000000000006080820152600060a082019050919050565b60208152605660208201527f4552433737375072657365745061757361626c655065726d697373696f6e656460408201527f3a206f70657261746f724461746120616e64207265717569726552656365707460608201527f696f6e41636b206c656e677468206d69736d61746368000000000000000000006080820152600060a082019050919050565b600081518084526020808501808196508360051b8101915082860160005b8581101561bbac57828403895261bb9584835161a998565b93508482019150848901985060018101905061bb7d565b50505080935050505092915050565b60a08152600061bbce60a083018861a900565b60208382038185015261bbe1828961ad2a565b9150838203604085015261bbf5828861bb5f565b9150838203606085015261bc09828761bb5f565b915083820360808501528185518084528284019150828701935060005b8181101561bc49578451151583528383019250838501945060018101905061bc26565b50508093505050509695505050505050565b60208152603260208201527f6c4e4f52493a2066726f6d4163636f756e747320616e6420746f4163636f756e60408201527f7473206c656e677468206d69736d61746368000000000000000000000000000060608201526000608082019050919050565b60208152602d60208201527f6c4e4f52493a20746f4163636f756e747320616e6420617454696d6573206c6560408201527f6e677468206d69736d617463680000000000000000000000000000000000000060608201526000608082019050919050565b60208152602a60208201527f6c4e4f52493a20617454696d657320616e6420616d6f756e7473206c656e677460408201527f68206d69736d617463680000000000000000000000000000000000000000000060608201526000608082019050919050565b60208152601460208201527f6c4e4f52493a2073656e642064697361626c656400000000000000000000000060408201526000606082019050919050565b60008282101561bdd85761bdd761b56d565b5b828203905092915050565b60208152601860208201527f6c4e4f52493a207472616e736665722064697361626c6564000000000000000060408201526000606082019050919050565b60208152602e60208201527f496e697469616c697a61626c653a20636f6e747261637420697320616c72656160408201527f647920696e697469616c697a656400000000000000000000000000000000000060608201526000608082019050919050565b600060208201905060ff8316825292915050565b60208152601c60208201527f6c4e4f52493a206275726e696e67206e6f7420737570706f727465640000000060408201526000606082019050919050565b60208152601060208201527f5061757361626c653a207061757365640000000000000000000000000000000060408201526000606082019050919050565b602081526020808201527f6c4e4f52493a206f70657261746f7220616374696f6e732064697361626c656460408201526000606082019050919050565b60006020828403121561bf6457600080fd5b8151905092915050565b60208152602260208201527f4552433737373a206275726e2066726f6d20746865207a65726f20616464726560408201527f737300000000000000000000000000000000000000000000000000000000000060608201526000608082019050919050565b60208152602360208201527f4552433737373a206275726e20616d6f756e7420657863656564732062616c6160408201527f6e6365000000000000000000000000000000000000000000000000000000000060608201526000608082019050919050565b83815260606020820152600061c04f606083018561a998565b828103604084015261c061818561a998565b915050949350505050565b60008151905061c07b8161a9e1565b919050565b6000610140828403121561c09357600080fd5b61c09b61abdc565b61c0a48361c06c565b81526020830151602082015260408301516040820152606083015160608201526080830151608082015260a083015160a082015260c083015160c082015260e083015160e08201526101008084015181830152506101208084015181830152508091505092915050565b60208152602760208201527f6c4e4f52493a20526563697069656e742063616e6e6f74206265207a65726f2060408201527f616464726573730000000000000000000000000000000000000000000000000060608201526000608082019050919050565b60208152602660208201527f6c4e4f52493a20526563697069656e742063616e6e6f74206265206772616e7460408201527f2061646d696e000000000000000000000000000000000000000000000000000060608201526000608082019050919050565b60208152602f60208201527f6c4e4f52493a20756e6c6f636b456e6454696d652063616e6e6f74206265206260408201527f65666f726520737461727454696d65000000000000000000000000000000000060608201526000608082019050919050565b60208152602a60208201527f6c4e4f52493a20756e6c6f636b456e6454696d652063616e6e6f74206265206960408201527f6e2074686520706173740000000000000000000000000000000000000000000060608201526000608082019050919050565b60208152601b60208201527f6c4e4f52493a204772616e7420616c726561647920657869737473000000000060408201526000606082019050919050565b602081526020808201527f6c4e4f52493a20756e6c6f636b20636c696666203e207665737420636c69666660408201526000606082019050919050565b60006040820190508382528260208301529392505050565b60208152602660208201527f4552433737373a207472616e736665722066726f6d20746865207a65726f206160408201527f646472657373000000000000000000000000000000000000000000000000000060608201526000608082019050919050565b60208152602460208201527f4552433737373a207472616e7366657220746f20746865207a65726f2061646460408201527f726573730000000000000000000000000000000000000000000000000000000060608201526000608082019050919050565b60208152602460208201527f4552433737373a20617574686f72697a696e672073656c66206173206f70657260408201527f61746f720000000000000000000000000000000000000000000000000000000060608201526000608082019050919050565b60208152603b60208201527f6c4e4f52493a204d75737420737065636966792061207265766f636174696f6e60408201527f2074696d65206f7220616e20616d6f756e74206e6f7420626f7468000000000060608201526000608082019050919050565b60208152601660208201527f6c4e4f52493a206e6f206772616e74206578697374730000000000000000000060408201526000606082019050919050565b60208152602960208201527f6c4e4f52493a206e6f2076657374696e67207363686564756c6520666f72207460408201527f686973206772616e74000000000000000000000000000000000000000000000060608201526000608082019050919050565b60208152602760208201527f6c4e4f52493a205265766f636174696f6e2063616e6e6f7420626520696e207460408201527f686520706173740000000000000000000000000000000000000000000000000060608201526000608082019050919050565b60208152601c60208201527f6c4e4f52493a20746f6b656e7320616c7265616479207665737465640000000060408201526000606082019050919050565b60208152601e60208201527f6c4e4f52493a20746f6f2066657720756e76657374656420746f6b656e73000060408201526000606082019050919050565b60208152602b60208201527f6c4e6f72693a207472616e73666572206f6620756e6465726c79696e6720617360408201527f736574206661696c65642e00000000000000000000000000000000000000000060608201526000608082019050919050565b60208152602b60208201527f496e697469616c697a61626c653a20636f6e7472616374206973206e6f74206960408201527f6e697469616c697a696e6700000000000000000000000000000000000000000060608201526000608082019050919050565b806000525060006020600020905090565b601f82111561c76a57600081815260208120601f850160051c8101602086101561c744578190505b601f850160051c820191505b8181101561c7665782815560018101905061c750565b5050505b505050565b60008260011b6000198460031b1c19831617905092915050565b815167ffffffffffffffff81111561c7a45761c7a361abc6565b5b61c7b88161c7b2845461b52f565b8461c71c565b60006020809150601f83116001811461c7ec576000841561c7da578387015190505b61c7e4858261c76f565b86555061c84b565b601f19841661c7fa8661c70b565b60005b8281101561c820578589015182556001820191508486019550848101905061c7fd565b508582101561c83f578488015160001960f88860031b161c1981168255505b505060018460011b0185555b505050505050565b600060608201905060018060a01b038086168352846020840152808416604084015250949350505050565b60208152602160208201527f4552433737373a207265766f6b696e672073656c66206173206f70657261746f60408201527f720000000000000000000000000000000000000000000000000000000000000060608201526000608082019050919050565b60208152602560208201527f4552433737373a20617070726f76652066726f6d20746865207a65726f20616460408201527f647265737300000000000000000000000000000000000000000000000000000060608201526000608082019050919050565b60208152602360208201527f4552433737373a20617070726f766520746f20746865207a65726f206164647260408201527f657373000000000000000000000000000000000000000000000000000000000060608201526000608082019050919050565b600060408201905060018060a01b03841682528260208301529392505050565b60006020828403121561c9dc57600080fd5b815161c9e78161a9e1565b8091505092915050565b600060018060a01b038089168352808816602084015280871660408401525084606083015260c0608083015261ca2a60c083018561a998565b82810360a084015261ca3c818561a998565b915050979650505050505050565b60208152601b60208201527f6c4e4f52493a20696e73756666696369656e742062616c616e6365000000000060408201526000606082019050919050565b7f416363657373436f6e74726f6c3a206163636f756e742000000000000000000081526000835161cac081601785016020880161a965565b80830190507f206973206d697373696e6720726f6c65200000000000000000000000000000006017820152835161cafe81602884016020880161a965565b602881830101925050509392505050565b60208152602a60208201527f5363686564756c655574696c733a20436c696666206265666f7265207363686560408201527f64756c652073746172740000000000000000000000000000000000000000000060608201526000608082019050919050565b60208152602760208201527f5363686564756c655574696c733a20436c69666673206e6f74206368726f6e6f60408201527f6c6f676963616c0000000000000000000000000000000000000000000000000060608201526000608082019050919050565b60208152602f60208201527f5363686564756c655574696c733a20436c696666732063616e6e6f7420656e6460408201527f206166746572207363686564756c65000000000000000000000000000000000060608201526000608082019050919050565b60208152602960208201527f5363686564756c655574696c733a20436c69666620616d6f756e74732065786360408201527f65656420746f74616c000000000000000000000000000000000000000000000060608201526000608082019050919050565b60208152603360208201527f6c4e4f52493a2043616e6e6f742061737369676e20726f6c6520746f2061206760408201527f72616e7420686f6c64657220616464726573730000000000000000000000000060608201526000608082019050919050565b602081526020808201527f4552433737373a206d696e7420746f20746865207a65726f206164647265737360408201526000606082019050919050565b60208152601460208201527f5061757361626c653a206e6f742070617573656400000000000000000000000060408201526000606082019050919050565b60208152602760208201527f4552433737373a207472616e7366657220616d6f756e7420657863656564732060408201527f62616c616e63650000000000000000000000000000000000000000000000000060608201526000608082019050919050565b60208152604d60208201527f4552433737373a20746f6b656e20726563697069656e7420636f6e747261637460408201527f20686173206e6f20696d706c656d656e74657220666f7220455243373737546f60608201527f6b656e73526563697069656e74000000000000000000000000000000000000006080820152600060a082019050919050565b600081600019048311821515161561ce875761ce8661b56d565b5b828202905092915050565b60008261ceaf57634e487b7160e01b600052601260045260246000fd5b828204905092915050565b60008161ceca5761cec961b56d565b5b60001982019050919050565b602081526020808201527f537472696e67733a20686578206c656e67746820696e73756666696369656e7460408201526000606082019050919050565b634e487b7160e01b600052603160045260246000fdfea26469706673582212209a9a56501965917398958303e0fd5a4ce300ca09d762082767e564897ee0d9b464736f6c634300080f0033",
  "linkReferences": {},
  "deployedLinkReferences": {}
}