{
  "_format": "hh-sol-artifact-1",
  "contractName": "LockedNORIV2",
  "sourceName": "contracts/LockedNORIV2.sol",
  "abi": [
    {
      "inputs": [],
      "stateMutability": "nonpayable",
      "type": "constructor"
    },
    {
      "anonymous": false,
      "inputs": [
        {
          "indexed": true,
          "internalType": "address",
          "name": "owner",
          "type": "address"
        },
        {
          "indexed": true,
          "internalType": "address",
          "name": "spender",
          "type": "address"
        },
        {
          "indexed": false,
          "internalType": "uint256",
          "name": "value",
          "type": "uint256"
        }
      ],
      "name": "Approval",
      "type": "event"
    },
    {
      "anonymous": false,
      "inputs": [
        {
          "indexed": true,
          "internalType": "address",
          "name": "operator",
          "type": "address"
        },
        {
          "indexed": true,
          "internalType": "address",
          "name": "tokenHolder",
          "type": "address"
        }
      ],
      "name": "AuthorizedOperator",
      "type": "event"
    },
    {
      "anonymous": false,
      "inputs": [
        {
          "indexed": true,
          "internalType": "address",
          "name": "operator",
          "type": "address"
        },
        {
          "indexed": true,
          "internalType": "address",
          "name": "from",
          "type": "address"
        },
        {
          "indexed": false,
          "internalType": "uint256",
          "name": "amount",
          "type": "uint256"
        },
        {
          "indexed": false,
          "internalType": "bytes",
          "name": "data",
          "type": "bytes"
        },
        {
          "indexed": false,
          "internalType": "bytes",
          "name": "operatorData",
          "type": "bytes"
        }
      ],
      "name": "Burned",
      "type": "event"
    },
    {
      "anonymous": false,
      "inputs": [
        {
          "indexed": false,
          "internalType": "uint8",
          "name": "version",
          "type": "uint8"
        }
      ],
      "name": "Initialized",
      "type": "event"
    },
    {
      "anonymous": false,
      "inputs": [
        {
          "indexed": true,
          "internalType": "address",
          "name": "operator",
          "type": "address"
        },
        {
          "indexed": true,
          "internalType": "address",
          "name": "to",
          "type": "address"
        },
        {
          "indexed": false,
          "internalType": "uint256",
          "name": "amount",
          "type": "uint256"
        },
        {
          "indexed": false,
          "internalType": "bytes",
          "name": "data",
          "type": "bytes"
        },
        {
          "indexed": false,
          "internalType": "bytes",
          "name": "operatorData",
          "type": "bytes"
        }
      ],
      "name": "Minted",
      "type": "event"
    },
    {
      "anonymous": false,
      "inputs": [
        {
          "indexed": false,
          "internalType": "address",
          "name": "account",
          "type": "address"
        }
      ],
      "name": "Paused",
      "type": "event"
    },
    {
      "anonymous": false,
      "inputs": [
        {
          "indexed": true,
          "internalType": "address",
          "name": "operator",
          "type": "address"
        },
        {
          "indexed": true,
          "internalType": "address",
          "name": "tokenHolder",
          "type": "address"
        }
      ],
      "name": "RevokedOperator",
      "type": "event"
    },
    {
      "anonymous": false,
      "inputs": [
        {
          "indexed": true,
          "internalType": "bytes32",
          "name": "role",
          "type": "bytes32"
        },
        {
          "indexed": true,
          "internalType": "bytes32",
          "name": "previousAdminRole",
          "type": "bytes32"
        },
        {
          "indexed": true,
          "internalType": "bytes32",
          "name": "newAdminRole",
          "type": "bytes32"
        }
      ],
      "name": "RoleAdminChanged",
      "type": "event"
    },
    {
      "anonymous": false,
      "inputs": [
        {
          "indexed": true,
          "internalType": "bytes32",
          "name": "role",
          "type": "bytes32"
        },
        {
          "indexed": true,
          "internalType": "address",
          "name": "account",
          "type": "address"
        },
        {
          "indexed": true,
          "internalType": "address",
          "name": "sender",
          "type": "address"
        }
      ],
      "name": "RoleGranted",
      "type": "event"
    },
    {
      "anonymous": false,
      "inputs": [
        {
          "indexed": true,
          "internalType": "bytes32",
          "name": "role",
          "type": "bytes32"
        },
        {
          "indexed": true,
          "internalType": "address",
          "name": "account",
          "type": "address"
        },
        {
          "indexed": true,
          "internalType": "address",
          "name": "sender",
          "type": "address"
        }
      ],
      "name": "RoleRevoked",
      "type": "event"
    },
    {
      "anonymous": false,
      "inputs": [
        {
          "indexed": true,
          "internalType": "address",
          "name": "operator",
          "type": "address"
        },
        {
          "indexed": true,
          "internalType": "address",
          "name": "from",
          "type": "address"
        },
        {
          "indexed": true,
          "internalType": "address",
          "name": "to",
          "type": "address"
        },
        {
          "indexed": false,
          "internalType": "uint256",
          "name": "amount",
          "type": "uint256"
        },
        {
          "indexed": false,
          "internalType": "bytes",
          "name": "data",
          "type": "bytes"
        },
        {
          "indexed": false,
          "internalType": "bytes",
          "name": "operatorData",
          "type": "bytes"
        }
      ],
      "name": "Sent",
      "type": "event"
    },
    {
      "anonymous": false,
      "inputs": [
        {
          "indexed": true,
          "internalType": "address",
          "name": "from",
          "type": "address"
        },
        {
          "indexed": false,
          "internalType": "address[]",
          "name": "recipients",
          "type": "address[]"
        },
        {
          "indexed": false,
          "internalType": "uint256[]",
          "name": "amounts",
          "type": "uint256[]"
        },
        {
          "indexed": false,
          "internalType": "bytes[]",
          "name": "userData",
          "type": "bytes[]"
        },
        {
          "indexed": false,
          "internalType": "bytes[]",
          "name": "operatorData",
          "type": "bytes[]"
        },
        {
          "indexed": false,
          "internalType": "bool[]",
          "name": "requireReceptionAck",
          "type": "bool[]"
        }
      ],
      "name": "SentBatch",
      "type": "event"
    },
    {
      "anonymous": false,
      "inputs": [
        {
          "indexed": true,
          "internalType": "address",
          "name": "recipient",
          "type": "address"
        },
        {
          "indexed": true,
          "internalType": "uint256",
          "name": "amount",
          "type": "uint256"
        },
        {
          "indexed": true,
          "internalType": "uint256",
          "name": "startTime",
          "type": "uint256"
        },
        {
          "indexed": false,
          "internalType": "uint256",
          "name": "vestEndTime",
          "type": "uint256"
        },
        {
          "indexed": false,
          "internalType": "uint256",
          "name": "unlockEndTime",
          "type": "uint256"
        }
      ],
      "name": "TokenGrantCreated",
      "type": "event"
    },
    {
      "anonymous": false,
      "inputs": [
        {
          "indexed": false,
          "internalType": "uint256",
          "name": "totalAmount",
          "type": "uint256"
        }
      ],
      "name": "TokenGrantCreatedBatch",
      "type": "event"
    },
    {
      "anonymous": false,
      "inputs": [
        {
          "indexed": true,
          "internalType": "address",
          "name": "from",
          "type": "address"
        },
        {
          "indexed": true,
          "internalType": "address",
          "name": "to",
          "type": "address"
        },
        {
          "indexed": false,
          "internalType": "uint256",
          "name": "quantity",
          "type": "uint256"
        }
      ],
      "name": "TokensClaimed",
      "type": "event"
    },
    {
      "anonymous": false,
      "inputs": [
        {
          "indexed": true,
          "internalType": "address",
          "name": "from",
          "type": "address"
        },
        {
          "indexed": true,
          "internalType": "address",
          "name": "to",
          "type": "address"
        },
        {
          "indexed": false,
          "internalType": "uint256",
          "name": "value",
          "type": "uint256"
        }
      ],
      "name": "Transfer",
      "type": "event"
    },
    {
      "anonymous": false,
      "inputs": [
        {
          "indexed": false,
          "internalType": "address",
          "name": "from",
          "type": "address"
        },
        {
          "indexed": false,
          "internalType": "address",
          "name": "to",
          "type": "address"
        }
      ],
      "name": "UnderlyingTokenAddressUpdated",
      "type": "event"
    },
    {
      "anonymous": false,
      "inputs": [
        {
          "indexed": false,
          "internalType": "address",
          "name": "account",
          "type": "address"
        }
      ],
      "name": "Unpaused",
      "type": "event"
    },
    {
      "anonymous": false,
      "inputs": [
        {
          "indexed": true,
          "internalType": "uint256",
          "name": "atTime",
          "type": "uint256"
        },
        {
          "indexed": true,
          "internalType": "address",
          "name": "from",
          "type": "address"
        },
        {
          "indexed": true,
          "internalType": "uint256",
          "name": "quantity",
          "type": "uint256"
        }
      ],
      "name": "UnvestedTokensRevoked",
      "type": "event"
    },
    {
      "inputs": [],
      "name": "DEFAULT_ADMIN_ROLE",
      "outputs": [
        {
          "internalType": "bytes32",
          "name": "",
          "type": "bytes32"
        }
      ],
      "stateMutability": "view",
      "type": "function"
    },
    {
      "inputs": [],
      "name": "ERC777_TOKENS_RECIPIENT_HASH",
      "outputs": [
        {
          "internalType": "bytes32",
          "name": "",
          "type": "bytes32"
        }
      ],
      "stateMutability": "view",
      "type": "function"
    },
    {
      "inputs": [],
      "name": "PAUSER_ROLE",
      "outputs": [
        {
          "internalType": "bytes32",
          "name": "",
          "type": "bytes32"
        }
      ],
      "stateMutability": "view",
      "type": "function"
    },
    {
      "inputs": [],
      "name": "TOKEN_GRANTER_ROLE",
      "outputs": [
        {
          "internalType": "bytes32",
          "name": "",
          "type": "bytes32"
        }
      ],
      "stateMutability": "view",
      "type": "function"
    },
    {
      "inputs": [
        {
          "internalType": "address",
          "name": "holder",
          "type": "address"
        },
        {
          "internalType": "address",
          "name": "spender",
          "type": "address"
        }
      ],
      "name": "allowance",
      "outputs": [
        {
          "internalType": "uint256",
          "name": "",
          "type": "uint256"
        }
      ],
      "stateMutability": "view",
      "type": "function"
    },
    {
      "inputs": [
        {
          "internalType": "address",
          "name": "spender",
          "type": "address"
        },
        {
          "internalType": "uint256",
          "name": "value",
          "type": "uint256"
        }
      ],
      "name": "approve",
      "outputs": [
        {
          "internalType": "bool",
          "name": "",
          "type": "bool"
        }
      ],
      "stateMutability": "nonpayable",
      "type": "function"
    },
    {
      "inputs": [
        {
          "internalType": "address",
          "name": "operator",
          "type": "address"
        }
      ],
      "name": "authorizeOperator",
      "outputs": [],
      "stateMutability": "nonpayable",
      "type": "function"
    },
    {
      "inputs": [
        {
          "internalType": "address",
          "name": "tokenHolder",
          "type": "address"
        }
      ],
      "name": "balanceOf",
      "outputs": [
        {
          "internalType": "uint256",
          "name": "",
          "type": "uint256"
        }
      ],
      "stateMutability": "view",
      "type": "function"
    },
    {
      "inputs": [
        {
          "internalType": "address[]",
          "name": "accounts",
          "type": "address[]"
        }
      ],
      "name": "balanceOfBatch",
      "outputs": [
        {
          "internalType": "uint256[]",
          "name": "",
          "type": "uint256[]"
        }
      ],
      "stateMutability": "view",
      "type": "function"
    },
    {
      "inputs": [
        {
          "internalType": "uint256[]",
          "name": "amounts",
          "type": "uint256[]"
        },
        {
          "internalType": "bytes[]",
          "name": "grantParams",
          "type": "bytes[]"
        },
        {
          "internalType": "uint256",
          "name": "deadline",
          "type": "uint256"
        },
        {
          "internalType": "uint8",
          "name": "v",
          "type": "uint8"
        },
        {
          "internalType": "bytes32",
          "name": "r",
          "type": "bytes32"
        },
        {
          "internalType": "bytes32",
          "name": "s",
          "type": "bytes32"
        }
      ],
      "name": "batchCreateGrants",
      "outputs": [],
      "stateMutability": "nonpayable",
      "type": "function"
    },
    {
      "inputs": [
        {
          "internalType": "address[]",
          "name": "accounts",
          "type": "address[]"
        }
      ],
      "name": "batchGetGrant",
      "outputs": [
        {
          "components": [
            {
              "internalType": "uint256",
              "name": "grantAmount",
              "type": "uint256"
            },
            {
              "internalType": "address",
              "name": "recipient",
              "type": "address"
            },
            {
              "internalType": "uint256",
              "name": "startTime",
              "type": "uint256"
            },
            {
              "internalType": "uint256",
              "name": "vestEndTime",
              "type": "uint256"
            },
            {
              "internalType": "uint256",
              "name": "unlockEndTime",
              "type": "uint256"
            },
            {
              "internalType": "uint256",
              "name": "cliff1Time",
              "type": "uint256"
            },
            {
              "internalType": "uint256",
              "name": "cliff2Time",
              "type": "uint256"
            },
            {
              "internalType": "uint256",
              "name": "vestCliff1Amount",
              "type": "uint256"
            },
            {
              "internalType": "uint256",
              "name": "vestCliff2Amount",
              "type": "uint256"
            },
            {
              "internalType": "uint256",
              "name": "unlockCliff1Amount",
              "type": "uint256"
            },
            {
              "internalType": "uint256",
              "name": "unlockCliff2Amount",
              "type": "uint256"
            },
            {
              "internalType": "uint256",
              "name": "claimedAmount",
              "type": "uint256"
            },
            {
              "internalType": "uint256",
              "name": "originalAmount",
              "type": "uint256"
            },
            {
              "internalType": "uint256",
              "name": "lastRevocationTime",
              "type": "uint256"
            },
            {
              "internalType": "uint256",
              "name": "lastQuantityRevoked",
              "type": "uint256"
            },
            {
              "internalType": "bool",
              "name": "exists",
              "type": "bool"
            }
          ],
          "internalType": "struct LockedNORIV2.TokenGrantDetail[]",
          "name": "",
          "type": "tuple[]"
        }
      ],
      "stateMutability": "view",
      "type": "function"
    },
    {
      "inputs": [
        {
          "internalType": "address[]",
          "name": "fromAccounts",
          "type": "address[]"
        },
        {
          "internalType": "address[]",
          "name": "toAccounts",
          "type": "address[]"
        },
        {
          "internalType": "uint256[]",
          "name": "atTimes",
          "type": "uint256[]"
        },
        {
          "internalType": "uint256[]",
          "name": "amounts",
          "type": "uint256[]"
        }
      ],
      "name": "batchRevokeUnvestedTokenAmounts",
      "outputs": [],
      "stateMutability": "nonpayable",
      "type": "function"
    },
    {
      "inputs": [
        {
          "internalType": "address[]",
          "name": "recipients",
          "type": "address[]"
        },
        {
          "internalType": "uint256[]",
          "name": "amounts",
          "type": "uint256[]"
        },
        {
          "internalType": "bytes[]",
          "name": "userData",
          "type": "bytes[]"
        },
        {
          "internalType": "bytes[]",
          "name": "operatorData",
          "type": "bytes[]"
        },
        {
          "internalType": "bool[]",
          "name": "requireReceptionAck",
          "type": "bool[]"
        }
      ],
      "name": "batchSend",
      "outputs": [],
      "stateMutability": "nonpayable",
      "type": "function"
    },
    {
      "inputs": [
        {
          "internalType": "uint256",
          "name": "",
          "type": "uint256"
        },
        {
          "internalType": "bytes",
          "name": "",
          "type": "bytes"
        }
      ],
      "name": "burn",
      "outputs": [],
      "stateMutability": "pure",
      "type": "function"
    },
    {
      "inputs": [
        {
          "internalType": "uint256",
          "name": "amount",
          "type": "uint256"
        },
        {
          "internalType": "address",
          "name": "recipient",
          "type": "address"
        },
        {
          "internalType": "uint256",
          "name": "startTime",
          "type": "uint256"
        },
        {
          "internalType": "uint256",
          "name": "vestEndTime",
          "type": "uint256"
        },
        {
          "internalType": "uint256",
          "name": "unlockEndTime",
          "type": "uint256"
        },
        {
          "internalType": "uint256",
          "name": "cliff1Time",
          "type": "uint256"
        },
        {
          "internalType": "uint256",
          "name": "cliff2Time",
          "type": "uint256"
        },
        {
          "internalType": "uint256",
          "name": "vestCliff1Amount",
          "type": "uint256"
        },
        {
          "internalType": "uint256",
          "name": "vestCliff2Amount",
          "type": "uint256"
        },
        {
          "internalType": "uint256",
          "name": "unlockCliff1Amount",
          "type": "uint256"
        },
        {
          "internalType": "uint256",
          "name": "unlockCliff2Amount",
          "type": "uint256"
        }
      ],
      "name": "createGrant",
      "outputs": [],
      "stateMutability": "nonpayable",
      "type": "function"
    },
    {
      "inputs": [],
      "name": "decimals",
      "outputs": [
        {
          "internalType": "uint8",
          "name": "",
          "type": "uint8"
        }
      ],
      "stateMutability": "pure",
      "type": "function"
    },
    {
      "inputs": [],
      "name": "defaultOperators",
      "outputs": [
        {
          "internalType": "address[]",
          "name": "",
          "type": "address[]"
        }
      ],
      "stateMutability": "view",
      "type": "function"
    },
    {
      "inputs": [
        {
          "internalType": "address",
          "name": "recipient",
          "type": "address"
        },
        {
          "internalType": "uint256",
          "name": "amount",
          "type": "uint256"
        }
      ],
      "name": "depositFor",
      "outputs": [
        {
          "internalType": "bool",
          "name": "",
          "type": "bool"
        }
      ],
      "stateMutability": "nonpayable",
      "type": "function"
    },
    {
      "inputs": [
        {
          "internalType": "address",
          "name": "account",
          "type": "address"
        }
      ],
      "name": "getGrant",
      "outputs": [
        {
          "components": [
            {
              "internalType": "uint256",
              "name": "grantAmount",
              "type": "uint256"
            },
            {
              "internalType": "address",
              "name": "recipient",
              "type": "address"
            },
            {
              "internalType": "uint256",
              "name": "startTime",
              "type": "uint256"
            },
            {
              "internalType": "uint256",
              "name": "vestEndTime",
              "type": "uint256"
            },
            {
              "internalType": "uint256",
              "name": "unlockEndTime",
              "type": "uint256"
            },
            {
              "internalType": "uint256",
              "name": "cliff1Time",
              "type": "uint256"
            },
            {
              "internalType": "uint256",
              "name": "cliff2Time",
              "type": "uint256"
            },
            {
              "internalType": "uint256",
              "name": "vestCliff1Amount",
              "type": "uint256"
            },
            {
              "internalType": "uint256",
              "name": "vestCliff2Amount",
              "type": "uint256"
            },
            {
              "internalType": "uint256",
              "name": "unlockCliff1Amount",
              "type": "uint256"
            },
            {
              "internalType": "uint256",
              "name": "unlockCliff2Amount",
              "type": "uint256"
            },
            {
              "internalType": "uint256",
              "name": "claimedAmount",
              "type": "uint256"
            },
            {
              "internalType": "uint256",
              "name": "originalAmount",
              "type": "uint256"
            },
            {
              "internalType": "uint256",
              "name": "lastRevocationTime",
              "type": "uint256"
            },
            {
              "internalType": "uint256",
              "name": "lastQuantityRevoked",
              "type": "uint256"
            },
            {
              "internalType": "bool",
              "name": "exists",
              "type": "bool"
            }
          ],
          "internalType": "struct LockedNORIV2.TokenGrantDetail",
          "name": "",
          "type": "tuple"
        }
      ],
      "stateMutability": "view",
      "type": "function"
    },
    {
      "inputs": [
        {
          "internalType": "bytes32",
          "name": "role",
          "type": "bytes32"
        }
      ],
      "name": "getRoleAdmin",
      "outputs": [
        {
          "internalType": "bytes32",
          "name": "",
          "type": "bytes32"
        }
      ],
      "stateMutability": "view",
      "type": "function"
    },
    {
      "inputs": [
        {
          "internalType": "bytes32",
          "name": "role",
          "type": "bytes32"
        },
        {
          "internalType": "uint256",
          "name": "index",
          "type": "uint256"
        }
      ],
      "name": "getRoleMember",
      "outputs": [
        {
          "internalType": "address",
          "name": "",
          "type": "address"
        }
      ],
      "stateMutability": "view",
      "type": "function"
    },
    {
      "inputs": [
        {
          "internalType": "bytes32",
          "name": "role",
          "type": "bytes32"
        }
      ],
      "name": "getRoleMemberCount",
      "outputs": [
        {
          "internalType": "uint256",
          "name": "",
          "type": "uint256"
        }
      ],
      "stateMutability": "view",
      "type": "function"
    },
    {
      "inputs": [
        {
          "internalType": "bytes32",
          "name": "role",
          "type": "bytes32"
        },
        {
          "internalType": "address",
          "name": "account",
          "type": "address"
        }
      ],
      "name": "grantRole",
      "outputs": [],
      "stateMutability": "nonpayable",
      "type": "function"
    },
    {
      "inputs": [],
      "name": "granularity",
      "outputs": [
        {
          "internalType": "uint256",
          "name": "",
          "type": "uint256"
        }
      ],
      "stateMutability": "view",
      "type": "function"
    },
    {
      "inputs": [
        {
          "internalType": "bytes32",
          "name": "role",
          "type": "bytes32"
        },
        {
          "internalType": "address",
          "name": "account",
          "type": "address"
        }
      ],
      "name": "hasRole",
      "outputs": [
        {
          "internalType": "bool",
          "name": "",
          "type": "bool"
        }
      ],
      "stateMutability": "view",
      "type": "function"
    },
    {
      "inputs": [
        {
          "internalType": "contract BridgedPolygonNORI",
          "name": "bridgedPolygonNoriAddress",
          "type": "address"
        }
      ],
      "name": "initialize",
      "outputs": [],
      "stateMutability": "nonpayable",
      "type": "function"
    },
    {
      "inputs": [
        {
          "internalType": "address",
          "name": "operator",
          "type": "address"
        },
        {
          "internalType": "address",
          "name": "tokenHolder",
          "type": "address"
        }
      ],
      "name": "isOperatorFor",
      "outputs": [
        {
          "internalType": "bool",
          "name": "",
          "type": "bool"
        }
      ],
      "stateMutability": "view",
      "type": "function"
    },
    {
      "inputs": [],
      "name": "name",
      "outputs": [
        {
          "internalType": "string",
          "name": "",
          "type": "string"
        }
      ],
      "stateMutability": "view",
      "type": "function"
    },
    {
      "inputs": [
        {
          "internalType": "address",
          "name": "",
          "type": "address"
        },
        {
          "internalType": "uint256",
          "name": "",
          "type": "uint256"
        },
        {
          "internalType": "bytes",
          "name": "",
          "type": "bytes"
        },
        {
          "internalType": "bytes",
          "name": "",
          "type": "bytes"
        }
      ],
      "name": "operatorBurn",
      "outputs": [],
      "stateMutability": "pure",
      "type": "function"
    },
    {
      "inputs": [
        {
          "internalType": "address",
          "name": "",
          "type": "address"
        },
        {
          "internalType": "address",
          "name": "",
          "type": "address"
        },
        {
          "internalType": "uint256",
          "name": "",
          "type": "uint256"
        },
        {
          "internalType": "bytes",
          "name": "",
          "type": "bytes"
        },
        {
          "internalType": "bytes",
          "name": "",
          "type": "bytes"
        }
      ],
      "name": "operatorSend",
      "outputs": [],
      "stateMutability": "pure",
      "type": "function"
    },
    {
      "inputs": [],
      "name": "pause",
      "outputs": [],
      "stateMutability": "nonpayable",
      "type": "function"
    },
    {
      "inputs": [],
      "name": "paused",
      "outputs": [
        {
          "internalType": "bool",
          "name": "",
          "type": "bool"
        }
      ],
      "stateMutability": "view",
      "type": "function"
    },
    {
      "inputs": [
        {
          "internalType": "address",
          "name": "account",
          "type": "address"
        }
      ],
      "name": "quantityRevokedFrom",
      "outputs": [
        {
          "internalType": "uint256",
          "name": "",
          "type": "uint256"
        }
      ],
      "stateMutability": "view",
      "type": "function"
    },
    {
      "inputs": [
        {
          "internalType": "bytes32",
          "name": "role",
          "type": "bytes32"
        },
        {
          "internalType": "address",
          "name": "account",
          "type": "address"
        }
      ],
      "name": "renounceRole",
      "outputs": [],
      "stateMutability": "nonpayable",
      "type": "function"
    },
    {
      "inputs": [
        {
          "internalType": "address",
          "name": "operator",
          "type": "address"
        }
      ],
      "name": "revokeOperator",
      "outputs": [],
      "stateMutability": "nonpayable",
      "type": "function"
    },
    {
      "inputs": [
        {
          "internalType": "bytes32",
          "name": "role",
          "type": "bytes32"
        },
        {
          "internalType": "address",
          "name": "account",
          "type": "address"
        }
      ],
      "name": "revokeRole",
      "outputs": [],
      "stateMutability": "nonpayable",
      "type": "function"
    },
    {
      "inputs": [
        {
          "internalType": "address",
          "name": "",
          "type": "address"
        },
        {
          "internalType": "uint256",
          "name": "",
          "type": "uint256"
        },
        {
          "internalType": "bytes",
          "name": "",
          "type": "bytes"
        }
      ],
      "name": "send",
      "outputs": [],
      "stateMutability": "pure",
      "type": "function"
    },
    {
      "inputs": [
        {
          "internalType": "bytes4",
          "name": "interfaceId",
          "type": "bytes4"
        }
      ],
      "name": "supportsInterface",
      "outputs": [
        {
          "internalType": "bool",
          "name": "",
          "type": "bool"
        }
      ],
      "stateMutability": "view",
      "type": "function"
    },
    {
      "inputs": [],
      "name": "symbol",
      "outputs": [
        {
          "internalType": "string",
          "name": "",
          "type": "string"
        }
      ],
      "stateMutability": "view",
      "type": "function"
    },
    {
      "inputs": [],
      "name": "totalSupply",
      "outputs": [
        {
          "internalType": "uint256",
          "name": "",
          "type": "uint256"
        }
      ],
      "stateMutability": "view",
      "type": "function"
    },
    {
      "inputs": [
        {
          "internalType": "address",
          "name": "",
          "type": "address"
        },
        {
          "internalType": "uint256",
          "name": "",
          "type": "uint256"
        }
      ],
      "name": "transfer",
      "outputs": [
        {
          "internalType": "bool",
          "name": "",
          "type": "bool"
        }
      ],
      "stateMutability": "pure",
      "type": "function"
    },
    {
      "inputs": [
        {
          "internalType": "address",
          "name": "",
          "type": "address"
        },
        {
          "internalType": "address",
          "name": "",
          "type": "address"
        },
        {
          "internalType": "uint256",
          "name": "",
          "type": "uint256"
        }
      ],
      "name": "transferFrom",
      "outputs": [
        {
          "internalType": "bool",
          "name": "",
          "type": "bool"
        }
      ],
      "stateMutability": "pure",
      "type": "function"
    },
    {
      "inputs": [
        {
          "internalType": "address",
          "name": "account",
          "type": "address"
        }
      ],
      "name": "unlockedBalanceOf",
      "outputs": [
        {
          "internalType": "uint256",
          "name": "",
          "type": "uint256"
        }
      ],
      "stateMutability": "view",
      "type": "function"
    },
    {
      "inputs": [],
      "name": "unpause",
      "outputs": [],
      "stateMutability": "nonpayable",
      "type": "function"
    },
    {
      "inputs": [
        {
          "internalType": "contract BridgedPolygonNORI",
          "name": "newUnderlying",
          "type": "address"
        }
      ],
      "name": "updateUnderlying",
      "outputs": [],
      "stateMutability": "nonpayable",
      "type": "function"
    },
    {
      "inputs": [
        {
          "internalType": "address",
          "name": "account",
          "type": "address"
        }
      ],
      "name": "vestedBalanceOf",
      "outputs": [
        {
          "internalType": "uint256",
          "name": "",
          "type": "uint256"
        }
      ],
      "stateMutability": "view",
      "type": "function"
    },
    {
      "inputs": [
        {
          "internalType": "address",
          "name": "recipient",
          "type": "address"
        },
        {
          "internalType": "uint256",
          "name": "amount",
          "type": "uint256"
        }
      ],
      "name": "withdrawTo",
      "outputs": [
        {
          "internalType": "bool",
          "name": "",
          "type": "bool"
        }
      ],
      "stateMutability": "nonpayable",
      "type": "function"
    }
  ],
  "bytecode": "0x60806040523480156200001157600080fd5b506200001c62000022565b620000e4565b600054610100900460ff16156200008f5760405162461bcd60e51b815260206004820152602760248201527f496e697469616c697a61626c653a20636f6e747261637420697320696e697469604482015266616c697a696e6760c81b606482015260840160405180910390fd5b60005460ff9081161015620000e2576000805460ff191660ff9081179091556040519081527f7f26b83ff96e1f2b6a682f133852f6798a09c465da95921460cefb38474024989060200160405180910390a15b565b616c3080620000f46000396000f3fe608060405234801561001057600080fd5b50600436106103155760003560e01c806370a08231116101a7578063a9059cbb116100ee578063d95b637111610097578063fad8b32a11610071578063fad8b32a14610759578063fc673c4f1461076c578063fe9d93031461077f57600080fd5b8063d95b6371146106d9578063dd62ed3e146106ec578063e63ab1e91461073257600080fd5b8063c884aa58116100c8578063c884aa58146106a0578063ca15c873146106b3578063d547741f146106c657600080fd5b8063a9059cbb1461065a578063bf31dbf41461066d578063c4d66de81461068d57600080fd5b806395d89b41116101505780639e3f3cac1161012a5780639e3f3cac1461061f5780639f916c2114610632578063a217fddf1461065257600080fd5b806395d89b41146105f15780639952d6e4146105f95780639bd9bbc61461060c57600080fd5b80639010d07c116101815780639010d07c1461056057806391d1485414610598578063959b8c3f146105de57600080fd5b806370a082311461050f5780638456cb591461054557806384955c881461054d57600080fd5b80632f4f21e21161026b578063521189a91161021457806362ad1b83116101ee57806362ad1b83146104c2578063633d9be0146104d557806366cf8bce146104fc57600080fd5b8063521189a914610489578063556f0dc7146104b05780635c975abb146104b757600080fd5b80633f4ba83a116102455780633f4ba83a1461044e57806342f8226014610456578063458c738e1461046957600080fd5b80632f4f21e214610419578063313ce5671461042c57806336568abe1461043b57600080fd5b806318160ddd116102cd578063248a9ca3116102a7578063248a9ca3146103ce578063271c6e1a146103f15780632f2ff15d1461040657600080fd5b806318160ddd146103a0578063205c2878146103a857806323b872dd146103bb57600080fd5b806306fdde03116102fe57806306fdde0314610357578063095ea7b31461036c5780630e2d1a2a1461037f57600080fd5b806301ffc9a71461031a57806306e4853814610342575b600080fd5b61032d610328366004615913565b61078d565b60405190151581526020015b60405180910390f35b61034a6107e9565b60405161033991906159a6565b61035f610858565b6040516103399190615a2f565b61032d61037a366004615a64565b6108e1565b61039261038d366004615a90565b610906565b604051908152602001610339565b603454610392565b61032d6103b6366004615a64565b610912565b61032d6103c9366004615aad565b610af4565b6103926103dc366004615aee565b600090815260c9602052604090206001015490565b6104046103ff366004615b07565b610b59565b005b610404610414366004615b86565b610c1e565b61032d610427366004615a64565b610c48565b60405160128152602001610339565b610404610449366004615b86565b610e86565b610404610f39565b610404610464366004615a90565b610f6e565b61047c610477366004615cf6565b6110b4565b6040516103399190615d5b565b6103927fb281fc8c12954d22544db45de3159a39272895b169a852b314f9cc762e44c53b81565b6001610392565b60655460ff1661032d565b6104046104d0366004615dfc565b611183565b6103927fa52f07bb8dc8df886598eb50edeaba2b8e45715237ed244354b60ea04d0390b881565b61040461050a366004615fdc565b6111e5565b61039261051d366004615a90565b73ffffffffffffffffffffffffffffffffffffffff1660009081526033602052604090205490565b6104046115c8565b61039261055b366004615a90565b6115fa565b61057361056e3660046160a1565b611606565b60405173ffffffffffffffffffffffffffffffffffffffff9091168152602001610339565b61032d6105a6366004615b86565b600091825260c96020908152604080842073ffffffffffffffffffffffffffffffffffffffff93909316845291905290205460ff1690565b6104046105ec366004615a90565b61161e565b61035f611632565b61040461060736600461610f565b611641565b61040461061a3660046161d3565b6118d1565b61039261062d366004615a90565b611933565b61064561064036600461622c565b61196d565b6040516103399190616336565b610392600081565b61032d610668366004615a64565b611ac3565b61068061067b366004615a90565b611b28565b6040516103399190616385565b61040461069b366004615a90565b611cc1565b6104046106ae366004616394565b611fcc565b6103926106c1366004615aee565b612369565b6104046106d4366004615b86565b612380565b61032d6106e7366004616438565b6123a5565b6103926106fa366004616438565b73ffffffffffffffffffffffffffffffffffffffff9182166000908152603b6020908152604080832093909416825291909152205490565b6103927f65d7a28e3265b37a6474929f336521b332c1681b933f6cb9f3376673440d862a81565b610404610767366004615a90565b612487565b61040461077a366004616466565b61249b565b61040461077a3660046164e6565b60007fffffffff0000000000000000000000000000000000000000000000000000000082167f5a05180f0000000000000000000000000000000000000000000000000000000014806107e357506107e3826124fd565b92915050565b6060603780548060200260200160405190810160405280929190818152602001828054801561084e57602002820191906000526020600020905b815473ffffffffffffffffffffffffffffffffffffffff168152600190910190602001808311610823575b5050505050905090565b6060603580546108679061652d565b80601f01602080910402602001604051908101604052809291908181526020018280546108939061652d565b801561084e5780601f106108b55761010080835404028352916020019161084e565b820191906000526020600020905b8154815290600101906020018083116108c357509395945050505050565b60006108eb612594565b6108f58383612603565b6108ff8383612665565b9392505050565b60006107e3824261267d565b600061091c612594565b33600081815261015f60209081526040808320815180840183528481528251938401909252928252919261095492909186919061278b565b8281600d01600082825461096891906165af565b9091555050610160546040517fa9059cbb00000000000000000000000000000000000000000000000000000000815273ffffffffffffffffffffffffffffffffffffffff8681166004830152602482018690529091169063a9059cbb906044016020604051808303816000875af11580156109e7573d6000803e3d6000fd5b505050506040513d601f19601f82011682018060405250810190610a0b91906165c7565b15610a675760405183815273ffffffffffffffffffffffffffffffffffffffff85169033907fa86305abc2db271df4609aa86a8d044bc11fb36939841bfdad6c1ab2b26e94719060200160405180910390a360019150506107e3565b6040517f08c379a000000000000000000000000000000000000000000000000000000000815260206004820152602a60248201527f6c4e4f52493a205472616e7366657220746f20756e6465726c79696e6720617360448201527f736574206661696c65640000000000000000000000000000000000000000000060648201526084015b60405180910390fd5b6040517f08c379a000000000000000000000000000000000000000000000000000000000815260206004820152601c60248201527f6c4e4f52493a207472616e7366657246726f6d2064697361626c6564000000006044820152600090606401610aeb565b610b61612594565b7fa52f07bb8dc8df886598eb50edeaba2b8e45715237ed244354b60ea04d0390b8610b8b81612a04565b6040805173ffffffffffffffffffffffffffffffffffffffff8d1660208201529081018b9052606081018a90526080810189905260a0810188905260c0810187905260e08101869052610100810185905261012081018490526101408101839052600090610160016040516020818303038152906040529050610c0e8d82612a0e565b5050505050505050505050505050565b600082815260c96020526040902060010154610c3981612a04565b610c438383612f60565b505050565b6000610c52612594565b73ffffffffffffffffffffffffffffffffffffffff8316600090815261015f60205260409020600f015460ff16610d0b576040517f08c379a000000000000000000000000000000000000000000000000000000000815260206004820152602560248201527f6c4e4f52493a2043616e6e6f74206465706f73697420776974686f757420612060448201527f6772616e740000000000000000000000000000000000000000000000000000006064820152608401610aeb565b6101605473ffffffffffffffffffffffffffffffffffffffff166323b872dd336040517fffffffff0000000000000000000000000000000000000000000000000000000060e084901b16815273ffffffffffffffffffffffffffffffffffffffff9091166004820152306024820152604481018590526064016020604051808303816000875af1158015610da3573d6000803e3d6000fd5b505050506040513d601f19601f82011682018060405250810190610dc791906165c7565b15610dfe57610df683836040518060200160405280600081525060405180602001604052806000815250612f74565b5060016107e3565b6040517f08c379a000000000000000000000000000000000000000000000000000000000815260206004820152602b60248201527f6c4e4f52493a207472616e7366657246726f6d20756e6465726c79696e67206160448201527f73736574206661696c65640000000000000000000000000000000000000000006064820152608401610aeb565b73ffffffffffffffffffffffffffffffffffffffff81163314610f2b576040517f08c379a000000000000000000000000000000000000000000000000000000000815260206004820152602f60248201527f416363657373436f6e74726f6c3a2063616e206f6e6c792072656e6f756e636560448201527f20726f6c657320666f722073656c6600000000000000000000000000000000006064820152608401610aeb565b610f358282612f88565b5050565b7f65d7a28e3265b37a6474929f336521b332c1681b933f6cb9f3376673440d862a610f6381612a04565b610f6b612f9c565b50565b610f76612594565b6000610f8181612a04565b6101605473ffffffffffffffffffffffffffffffffffffffff908116908316810361102e576040517f08c379a000000000000000000000000000000000000000000000000000000000815260206004820152603660248201527f6c4e4f52493a207570646174696e6720756e6465726c79696e6720616464726560448201527f737320746f206578697374696e672061646472657373000000000000000000006064820152608401610aeb565b61016080547fffffffffffffffffffffffff00000000000000000000000000000000000000001673ffffffffffffffffffffffffffffffffffffffff85811691821790925560408051928416835260208301919091527f1fc9b2467a9c193cab5b6f03eefe74f1e3140becc7ff93728101335e77fef679910160405180910390a1505050565b60606000825167ffffffffffffffff8111156110d2576110d2615bb6565b6040519080825280602002602001820160405280156110fb578160200160208202803683370190505b50905060005b835181101561117c5761114f84828151811061111f5761111f6165e4565b602002602001015173ffffffffffffffffffffffffffffffffffffffff1660009081526033602052604090205490565b828281518110611161576111616165e4565b602090810291909101015261117581616613565b9050611101565b5092915050565b6040517f08c379a000000000000000000000000000000000000000000000000000000000815260206004820152601c60248201527f6c4e4f52493a206f70657261746f7253656e642064697361626c6564000000006044820152606401610aeb565b835185511461129c576040517f08c379a000000000000000000000000000000000000000000000000000000000815260206004820152604660248201527f4552433737375072657365745061757361626c655065726d697373696f6e656460448201527f3a20726563697069656e7420616e6420616d6f756e74206c656e677468206d6960648201527f736d617463680000000000000000000000000000000000000000000000000000608482015260a401610aeb565b8251845114611353576040517f08c379a000000000000000000000000000000000000000000000000000000000815260206004820152604660248201527f4552433737375072657365745061757361626c655065726d697373696f6e656460448201527f3a20616d6f756e747320616e64207573657244617461206c656e677468206d6960648201527f736d617463680000000000000000000000000000000000000000000000000000608482015260a401610aeb565b815183511461140a576040517f08c379a000000000000000000000000000000000000000000000000000000000815260206004820152604b60248201527f4552433737375072657365745061757361626c655065726d697373696f6e656460448201527f3a20757365724461746120616e64206f70657261746f7244617461206c656e6760648201527f7468206d69736d61746368000000000000000000000000000000000000000000608482015260a401610aeb565b80518251146114c1576040517f08c379a000000000000000000000000000000000000000000000000000000000815260206004820152605660248201527f4552433737375072657365745061757361626c655065726d697373696f6e656460448201527f3a206f70657261746f724461746120616e64207265717569726552656365707460648201527f696f6e41636b206c656e677468206d69736d6174636800000000000000000000608482015260a401610aeb565b60005b855181101561156a57611558338783815181106114e3576114e36165e4565b60200260200101518784815181106114fd576114fd6165e4565b6020026020010151878581518110611517576115176165e4565b6020026020010151878681518110611531576115316165e4565b602002602001015187878151811061154b5761154b6165e4565b6020026020010151613019565b8061156281616613565b9150506114c4565b503373ffffffffffffffffffffffffffffffffffffffff167fd5865ae34f92a2d6a803fa13140b8165046f54e61e68560b26950c62a668c6b686868686866040516115b99594939291906166a0565b60405180910390a25050505050565b7f65d7a28e3265b37a6474929f336521b332c1681b933f6cb9f3376673440d862a6115f281612a04565b610f6b613193565b60006107e382426131ee565b600082815260fb602052604081206108ff9083613305565b611629816000612603565b610f6b81613311565b6060603680546108679061652d565b611649612594565b7fa52f07bb8dc8df886598eb50edeaba2b8e45715237ed244354b60ea04d0390b861167381612a04565b878614611702576040517f08c379a000000000000000000000000000000000000000000000000000000000815260206004820152603260248201527f6c4e4f52493a2066726f6d4163636f756e747320616e6420746f4163636f756e60448201527f7473206c656e677468206d69736d6174636800000000000000000000000000006064820152608401610aeb565b858414611791576040517f08c379a000000000000000000000000000000000000000000000000000000000815260206004820152602d60248201527f6c4e4f52493a20746f4163636f756e747320616e6420617454696d6573206c6560448201527f6e677468206d69736d61746368000000000000000000000000000000000000006064820152608401610aeb565b838214611820576040517f08c379a000000000000000000000000000000000000000000000000000000000815260206004820152602a60248201527f6c4e4f52493a20617454696d657320616e6420616d6f756e7473206c656e677460448201527f68206d69736d61746368000000000000000000000000000000000000000000006064820152608401610aeb565b60005b888110156118c5576118b38a8a83818110611840576118406165e4565b90506020020160208101906118559190615a90565b898984818110611867576118676165e4565b905060200201602081019061187c9190615a90565b88888581811061188e5761188e6165e4565b905060200201358787868181106118a7576118a76165e4565b905060200201356134de565b806118bd81616613565b915050611823565b50505050505050505050565b6040517f08c379a000000000000000000000000000000000000000000000000000000000815260206004820152601460248201527f6c4e4f52493a2073656e642064697361626c65640000000000000000000000006044820152606401610aeb565b73ffffffffffffffffffffffffffffffffffffffff8116600090815261015f60205260408120600c810154600e8201546108ff9190616735565b606060008267ffffffffffffffff81111561198a5761198a615bb6565b604051908082528060200260200182016040528015611a5357816020015b611a4060405180610200016040528060008152602001600073ffffffffffffffffffffffffffffffffffffffff168152602001600081526020016000815260200160008152602001600081526020016000815260200160008152602001600081526020016000815260200160008152602001600081526020016000815260200160008152602001600081526020016000151581525090565b8152602001906001900390816119a85790505b50905060005b83811015611abb57611a8b858583818110611a7657611a766165e4565b905060200201602081019061067b9190615a90565b828281518110611a9d57611a9d6165e4565b60200260200101819052508080611ab390616613565b915050611a59565b509392505050565b6040517f08c379a000000000000000000000000000000000000000000000000000000000815260206004820152601860248201527f6c4e4f52493a207472616e736665722064697361626c656400000000000000006044820152600090606401610aeb565b611bc060405180610200016040528060008152602001600073ffffffffffffffffffffffffffffffffffffffff168152602001600081526020016000815260200160008152602001600081526020016000815260200160008152602001600081526020016000815260200160008152602001600081526020016000815260200160008152602001600081526020016000151581525090565b5073ffffffffffffffffffffffffffffffffffffffff16600081815261015f60209081526040808320815161020081018352600c82015481528084019590955260068101548583015260018082015460608701526007820154608087015284805260098201808552838620805460a0890152828752818652848720805460c08a01528780526003850180885286892085015460e08b01528489528752948720830154610100890152820154610120880152948190529390925290910154610140830152600d810154610160830152600e81015461018083015260108101546101a083015260118101546101c0830152600f015460ff1615156101e082015290565b600054610100900460ff1615808015611ce15750600054600160ff909116105b80611cfb5750303b158015611cfb575060005460ff166001145b611d87576040517f08c379a000000000000000000000000000000000000000000000000000000000815260206004820152602e60248201527f496e697469616c697a61626c653a20636f6e747261637420697320616c72656160448201527f647920696e697469616c697a65640000000000000000000000000000000000006064820152608401610aeb565b600080547fffffffffffffffffffffffffffffffffffffffffffffffffffffffffffffff001660011790558015611de557600080547fffffffffffffffffffffffffffffffffffffffffffffffffffffffffffff00ff166101001790555b604080516001808252818301909252600091602080830190803683370190505090503381600081518110611e1b57611e1b6165e4565b602002602001019073ffffffffffffffffffffffffffffffffffffffff16908173ffffffffffffffffffffffffffffffffffffffff1681525050611e5d613a33565b611e65613a33565b611e6d613a33565b611e75613a33565b611e7d613aca565b611e85613b8b565b611efa6040518060400160405280600b81526020017f4c6f636b6564204e4f52490000000000000000000000000000000000000000008152506040518060400160405280600581526020017f6c4e4f524900000000000000000000000000000000000000000000000000000081525083613c57565b61016080547fffffffffffffffffffffffff00000000000000000000000000000000000000001673ffffffffffffffffffffffffffffffffffffffff8516179055611f657fa52f07bb8dc8df886598eb50edeaba2b8e45715237ed244354b60ea04d0390b833612f60565b508015610f3557600080547fffffffffffffffffffffffffffffffffffffffffffffffffffffffffffff00ff169055604051600181527f7f26b83ff96e1f2b6a682f133852f6798a09c465da95921460cefb38474024989060200160405180910390a15050565b611fd4612594565b7fa52f07bb8dc8df886598eb50edeaba2b8e45715237ed244354b60ea04d0390b8611ffe81612a04565b87861461208d576040517f08c379a000000000000000000000000000000000000000000000000000000000815260206004820152602b60248201527f6c4e4f52493a205265717569726573206f6e6520616d6f756e7420706572206760448201527f72616e742064657461696c0000000000000000000000000000000000000000006064820152608401610aeb565b6000805b60ff81168a11156121a1578a8a8260ff168181106120b1576120b16165e4565b90506020020135826120c391906165af565b915060006121478c8c8460ff168181106120df576120df6165e4565b905060200201358b8b8560ff168181106120fb576120fb6165e4565b905060200281019061210d919061674c565b8080601f016020809104026020016040519081016040528093929190818152602001838380828437600092019190915250612a0e92505050565b905061218e818d8d8560ff16818110612162576121626165e4565b905060200201356040518060200160405280600081525060405180602001604052806000815250612f74565b5080612199816167b1565b915050612091565b506040518181527f1c033d59d233682f5cd21bc9a14d4934157a93bb4e87b1aa1f3ac4394af8a8149060200160405180910390a16101605473ffffffffffffffffffffffffffffffffffffffff1663d505accf336040517fffffffff0000000000000000000000000000000000000000000000000000000060e084901b16815273ffffffffffffffffffffffffffffffffffffffff9091166004820152306024820152604481018490526064810189905260ff8816608482015260a4810187905260c4810186905260e401600060405180830381600087803b15801561228657600080fd5b505af115801561229a573d6000803e3d6000fd5b50506101605473ffffffffffffffffffffffffffffffffffffffff1691506323b872dd9050336040517fffffffff0000000000000000000000000000000000000000000000000000000060e084901b16815273ffffffffffffffffffffffffffffffffffffffff9091166004820152306024820152604481018490526064016020604051808303816000875af1158015612338573d6000803e3d6000fd5b505050506040513d601f19601f8201168201806040525081019061235c91906165c7565b5050505050505050505050565b600081815260fb602052604081206107e390613f00565b600082815260c9602052604090206001015461239b81612a04565b610c438383612f88565b60008173ffffffffffffffffffffffffffffffffffffffff168373ffffffffffffffffffffffffffffffffffffffff161480612444575073ffffffffffffffffffffffffffffffffffffffff831660009081526038602052604090205460ff168015612444575073ffffffffffffffffffffffffffffffffffffffff8083166000908152603a602090815260408083209387168352929052205460ff16155b806108ff57505073ffffffffffffffffffffffffffffffffffffffff90811660009081526039602090815260408083209490931682529290925290205460ff1690565b612492816000612603565b610f6b81613f0a565b6040517f08c379a000000000000000000000000000000000000000000000000000000000815260206004820152601c60248201527f6c4e4f52493a206275726e696e67206e6f7420737570706f72746564000000006044820152606401610aeb565b60007fffffffff0000000000000000000000000000000000000000000000000000000082167f7965db0b0000000000000000000000000000000000000000000000000000000014806107e357507f01ffc9a7000000000000000000000000000000000000000000000000000000007fffffffff000000000000000000000000000000000000000000000000000000008316146107e3565b60655460ff1615612601576040517f08c379a000000000000000000000000000000000000000000000000000000000815260206004820152601060248201527f5061757361626c653a20706175736564000000000000000000000000000000006044820152606401610aeb565b565b6040517f08c379a000000000000000000000000000000000000000000000000000000000815260206004820181905260248201527f6c4e4f52493a206f70657261746f7220616374696f6e732064697361626c65646044820152606401610aeb565b6000336126738185856140d8565b5060019392505050565b73ffffffffffffffffffffffffffffffffffffffff8216600081815261015f602052604080822090517f70a0823100000000000000000000000000000000000000000000000000000000815260048101939093529091829030906370a0823190602401602060405180830381865afa1580156126fd573d6000803e3d6000fd5b505050506040513d601f19601f8201168201806040525081019061272191906167d0565b600f83015490915060ff16156127835761273a8561428c565b1561276c57600d82015461275b61275184876142ca565b84600c01546142ea565b6127659190616735565b9050612783565b81600d015482600c01546127809190616735565b90505b949350505050565b73ffffffffffffffffffffffffffffffffffffffff841661282e576040517f08c379a000000000000000000000000000000000000000000000000000000000815260206004820152602260248201527f4552433737373a206275726e2066726f6d20746865207a65726f20616464726560448201527f73730000000000000000000000000000000000000000000000000000000000006064820152608401610aeb565b3361283e81866000878787614300565b61284b8186600087614473565b73ffffffffffffffffffffffffffffffffffffffff851660009081526033602052604090205484811015612901576040517f08c379a000000000000000000000000000000000000000000000000000000000815260206004820152602360248201527f4552433737373a206275726e20616d6f756e7420657863656564732062616c6160448201527f6e636500000000000000000000000000000000000000000000000000000000006064820152608401610aeb565b73ffffffffffffffffffffffffffffffffffffffff8616600090815260336020526040812086830390556034805487929061293d908490616735565b925050819055508573ffffffffffffffffffffffffffffffffffffffff168273ffffffffffffffffffffffffffffffffffffffff167fa78a9be3a7b862d26933ad85fb11d80ef66b8f972d7cbba06621d583943a40988787876040516129a5939291906167e9565b60405180910390a360405185815260009073ffffffffffffffffffffffffffffffffffffffff8816907fddf252ad1be2c89b69c2b068fc378daa952ba7f163c4a11628f55a4df523b3ef906020015b60405180910390a3505050505050565b610f6b8133614641565b60008082806020019051810190612a259190616824565b805190915073ffffffffffffffffffffffffffffffffffffffff16612acc576040517f08c379a000000000000000000000000000000000000000000000000000000000815260206004820152602760248201527f6c4e4f52493a20526563697069656e742063616e6e6f74206265207a65726f2060448201527f61646472657373000000000000000000000000000000000000000000000000006064820152608401610aeb565b805173ffffffffffffffffffffffffffffffffffffffff1660009081527f38e71761b954262a9560bd5d5724383b6db3c254761096eb4ce389ed02050c60602052604090205460ff1615612ba2576040517f08c379a000000000000000000000000000000000000000000000000000000000815260206004820152602660248201527f6c4e4f52493a20526563697069656e742063616e6e6f74206265206772616e7460448201527f2061646d696e00000000000000000000000000000000000000000000000000006064820152608401610aeb565b8060600151816020015110612c39576040517f08c379a000000000000000000000000000000000000000000000000000000000815260206004820152602f60248201527f6c4e4f52493a20756e6c6f636b456e6454696d652063616e6e6f74206265206260448201527f65666f726520737461727454696d6500000000000000000000000000000000006064820152608401610aeb565b80606001514210612ccc576040517f08c379a000000000000000000000000000000000000000000000000000000000815260206004820152602a60248201527f6c4e4f52493a20756e6c6f636b456e6454696d652063616e6e6f74206265206960448201527f6e207468652070617374000000000000000000000000000000000000000000006064820152608401610aeb565b805173ffffffffffffffffffffffffffffffffffffffff16600090815261015f60205260409020600f015460ff1615612d61576040517f08c379a000000000000000000000000000000000000000000000000000000000815260206004820152601b60248201527f6c4e4f52493a204772616e7420616c72656164792065786973747300000000006044820152606401610aeb565b805173ffffffffffffffffffffffffffffffffffffffff16600090815261015f6020908152604091829020600c8101879055600e8101879055600f810180547fffffffffffffffffffffffffffffffffffffffffffffffffffffffffffffff00166001179055908301519183015190911015612ea0578161010001518260c00151101580612df857508161012001518260e0015110155b612e5e576040517f08c379a000000000000000000000000000000000000000000000000000000000815260206004820181905260248201527f6c4e4f52493a20756e6c6f636b20636c696666203e207665737420636c6966666044820152606401610aeb565b600281018590556020820151815560408201516001820155608082015160c0830151612e8b918391614713565b60a082015160e0830151612ea0918391614713565b60088101859055602082015160068201908155606083015160078301556080830151610100840151612ed3929190614713565b60a0820151610120830151612eec916006840191614713565b816020015185836000015173ffffffffffffffffffffffffffffffffffffffff167f17161516b6ce34594617177a800b150a86ddee02c06993a73ef000a02367d11985604001518660600151604051612f4f929190918252602082015260400190565b60405180910390a450519392505050565b612f6a82826149fa565b610f358282614ae5565b612f82848484846001614b07565b50505050565b612f9282826149fa565b610f358282614ca8565b612fa4614cca565b606580547fffffffffffffffffffffffffffffffffffffffffffffffffffffffffffffff001690557f5db9ee0a495bf2e6ff9c91a7834c1ba4fdd244a5e8aa4e537bd38aeae4b073aa335b60405173ffffffffffffffffffffffffffffffffffffffff909116815260200160405180910390a1565b73ffffffffffffffffffffffffffffffffffffffff86166130bc576040517f08c379a000000000000000000000000000000000000000000000000000000000815260206004820152602660248201527f4552433737373a207472616e736665722066726f6d20746865207a65726f206160448201527f64647265737300000000000000000000000000000000000000000000000000006064820152608401610aeb565b73ffffffffffffffffffffffffffffffffffffffff851661315e576040517f08c379a0000000000000000000000000000000000000000000000000000000008152602060048201526024808201527f4552433737373a207472616e7366657220746f20746865207a65726f2061646460448201527f72657373000000000000000000000000000000000000000000000000000000006064820152608401610aeb565b3361316d818888888888614300565b61317b818888888888614d36565b61318a81888888888888614f33565b50505050505050565b61319b612594565b606580547fffffffffffffffffffffffffffffffffffffffffffffffffffffffffffffff001660011790557f62e78cea01bee320cd4e420270b5ea74000d11b0c9f74754ebdbfc544b05a258612fef3390565b73ffffffffffffffffffffffffffffffffffffffff8216600081815261015f602052604080822090517f70a0823100000000000000000000000000000000000000000000000000000000815260048101939093529091829030906370a0823190602401602060405180830381865afa15801561326e573d6000803e3d6000fd5b505050506040513d601f19601f8201168201806040525081019061329291906167d0565b9050600061329f8661428c565b6132ad5782600c01546132b7565b6132b783866142ca565b600f84015490915060ff16156132fc57600d8301546132ef6132e5836132e0600688018a6142ca565b6142ea565b85600c01546142ea565b6132f99190616735565b91505b50949350505050565b60006108ff8383615188565b73ffffffffffffffffffffffffffffffffffffffff811633036133b5576040517f08c379a0000000000000000000000000000000000000000000000000000000008152602060048201526024808201527f4552433737373a20617574686f72697a696e672073656c66206173206f70657260448201527f61746f72000000000000000000000000000000000000000000000000000000006064820152608401610aeb565b73ffffffffffffffffffffffffffffffffffffffff811660009081526038602052604090205460ff161561343e57336000908152603a6020908152604080832073ffffffffffffffffffffffffffffffffffffffff85168452909152902080547fffffffffffffffffffffffffffffffffffffffffffffffffffffffffffffff00169055613498565b33600090815260396020908152604080832073ffffffffffffffffffffffffffffffffffffffff85168452909152902080547fffffffffffffffffffffffffffffffffffffffffffffffffffffffffffffff001660011790555b604051339073ffffffffffffffffffffffffffffffffffffffff8316907ff4caeb2d6ca8932a215a353d0703c326ec2d81fc68170f320eb2ab49e9df61f990600090a350565b811580156134ec5750600081115b806135005750600082118015613500575080155b61358c576040517f08c379a000000000000000000000000000000000000000000000000000000000815260206004820152603b60248201527f6c4e4f52493a204d75737420737065636966792061207265766f636174696f6e60448201527f2074696d65206f7220616e20616d6f756e74206e6f7420626f746800000000006064820152608401610aeb565b73ffffffffffffffffffffffffffffffffffffffff8416600090815261015f60205260409020600f81015460ff16613620576040517f08c379a000000000000000000000000000000000000000000000000000000000815260206004820152601660248201527f6c4e4f52493a206e6f206772616e7420657869737473000000000000000000006044820152606401610aeb565b6136298561428c565b6136b5576040517f08c379a000000000000000000000000000000000000000000000000000000000815260206004820152602960248201527f6c4e4f52493a206e6f2076657374696e67207363686564756c6520666f72207460448201527f686973206772616e7400000000000000000000000000000000000000000000006064820152608401610aeb565b6000831580156136c55750600083115b6136cf57836136d1565b425b905042811015613763576040517f08c379a000000000000000000000000000000000000000000000000000000000815260206004820152602760248201527f6c4e4f52493a205265766f636174696f6e2063616e6e6f7420626520696e207460448201527f68652070617374000000000000000000000000000000000000000000000000006064820152608401610aeb565b600061376f83836142ca565b905082600c015481106137de576040517f08c379a000000000000000000000000000000000000000000000000000000000815260206004820152601c60248201527f6c4e4f52493a20746f6b656e7320616c726561647920766573746564000000006044820152606401610aeb565b60008184600c01546137f09190616735565b90506000851561386b5781861115613864576040517f08c379a000000000000000000000000000000000000000000000000000000000815260206004820152601e60248201527f6c4e4f52493a20746f6f2066657720756e76657374656420746f6b656e7300006044820152606401610aeb565b508461386e565b50805b8085600c015461387e9190616735565b600c86015560108501849055601185018190556040805160208082018352600080835283519182019093529182526138b9918b91849161278b565b610160546040517fa9059cbb00000000000000000000000000000000000000000000000000000000815273ffffffffffffffffffffffffffffffffffffffff8a81166004830152602482018490529091169063a9059cbb906044016020604051808303816000875af1158015613933573d6000803e3d6000fd5b505050506040513d601f19601f8201168201806040525081019061395791906165c7565b6139e3576040517f08c379a000000000000000000000000000000000000000000000000000000000815260206004820152602b60248201527f6c4e4f52493a207472616e73666572206f6620756e6465726c79696e6720617360448201527f736574206661696c65642e0000000000000000000000000000000000000000006064820152608401610aeb565b808973ffffffffffffffffffffffffffffffffffffffff16857f0bbe3f9ae306d75ae6df08cd4a79ac5c6eae93ffae7d7e52f2859bf27592519d60405160405180910390a4505050505050505050565b600054610100900460ff16612601576040517f08c379a000000000000000000000000000000000000000000000000000000000815260206004820152602b60248201527f496e697469616c697a61626c653a20636f6e7472616374206973206e6f74206960448201527f6e697469616c697a696e670000000000000000000000000000000000000000006064820152608401610aeb565b600054610100900460ff16613b61576040517f08c379a000000000000000000000000000000000000000000000000000000000815260206004820152602b60248201527f496e697469616c697a61626c653a20636f6e7472616374206973206e6f74206960448201527f6e697469616c697a696e670000000000000000000000000000000000000000006064820152608401610aeb565b606580547fffffffffffffffffffffffffffffffffffffffffffffffffffffffffffffff00169055565b600054610100900460ff16613c22576040517f08c379a000000000000000000000000000000000000000000000000000000000815260206004820152602b60248201527f496e697469616c697a61626c653a20636f6e7472616374206973206e6f74206960448201527f6e697469616c697a696e670000000000000000000000000000000000000000006064820152608401610aeb565b613c2d600033612f60565b6126017f65d7a28e3265b37a6474929f336521b332c1681b933f6cb9f3376673440d862a33612f60565b600054610100900460ff16613cee576040517f08c379a000000000000000000000000000000000000000000000000000000000815260206004820152602b60248201527f496e697469616c697a61626c653a20636f6e7472616374206973206e6f74206960448201527f6e697469616c697a696e670000000000000000000000000000000000000000006064820152608401610aeb565b6035613cfa8482616900565b506036613d078382616900565b508051613d1b906037906020840190615874565b5060005b8151811015613daf57600160386000848481518110613d4057613d406165e4565b60209081029190910181015173ffffffffffffffffffffffffffffffffffffffff16825281019190915260400160002080547fffffffffffffffffffffffffffffffffffffffffffffffffffffffffffffff001691151591909117905580613da781616613565b915050613d1f565b506040517f29965a1d00000000000000000000000000000000000000000000000000000000815230600482018190527fac7fbab5f54a3ca8194167523c6753bfeb96a445279294b6125b68cce217705460248301526044820152731820a4b7618bde71dce8cdc73aab6c95905fad24906329965a1d90606401600060405180830381600087803b158015613e4257600080fd5b505af1158015613e56573d6000803e3d6000fd5b50506040517f29965a1d00000000000000000000000000000000000000000000000000000000815230600482018190527faea199e31a596269b42cdafd93407f14436db6e4cad65417994c2eb37381e05a60248301526044820152731820a4b7618bde71dce8cdc73aab6c95905fad2492506329965a1d9150606401600060405180830381600087803b158015613eec57600080fd5b505af115801561318a573d6000803e3d6000fd5b60006107e3825490565b3373ffffffffffffffffffffffffffffffffffffffff821603613faf576040517f08c379a000000000000000000000000000000000000000000000000000000000815260206004820152602160248201527f4552433737373a207265766f6b696e672073656c66206173206f70657261746f60448201527f72000000000000000000000000000000000000000000000000000000000000006064820152608401610aeb565b73ffffffffffffffffffffffffffffffffffffffff811660009081526038602052604090205460ff161561403b57336000908152603a6020908152604080832073ffffffffffffffffffffffffffffffffffffffff85168452909152902080547fffffffffffffffffffffffffffffffffffffffffffffffffffffffffffffff00166001179055614092565b33600090815260396020908152604080832073ffffffffffffffffffffffffffffffffffffffff85168452909152902080547fffffffffffffffffffffffffffffffffffffffffffffffffffffffffffffff001690555b604051339073ffffffffffffffffffffffffffffffffffffffff8316907f50546e66e5f44d728365dc3908c63bc5cfeeab470722c1677e3073a6ac294aa190600090a350565b73ffffffffffffffffffffffffffffffffffffffff831661417b576040517f08c379a000000000000000000000000000000000000000000000000000000000815260206004820152602560248201527f4552433737373a20617070726f76652066726f6d20746865207a65726f20616460448201527f64726573730000000000000000000000000000000000000000000000000000006064820152608401610aeb565b73ffffffffffffffffffffffffffffffffffffffff821661421e576040517f08c379a000000000000000000000000000000000000000000000000000000000815260206004820152602360248201527f4552433737373a20617070726f766520746f20746865207a65726f206164647260448201527f65737300000000000000000000000000000000000000000000000000000000006064820152608401610aeb565b73ffffffffffffffffffffffffffffffffffffffff8381166000818152603b602090815260408083209487168084529482529182902085905590518481527f8c5be1e5ebec7d5bd14f71427d1e84f3dd0314c0f7b2291e5b200ac8c7c3b925910160405180910390a3505050565b73ffffffffffffffffffffffffffffffffffffffff8116600090815261015f60205260408120600f81015460ff1680156108ff575054151592915050565b60006142d683836151b2565b6142e08484615271565b6108ff91906165af565b60008183106142f957816108ff565b5090919050565b6040517faabbb8ca00000000000000000000000000000000000000000000000000000000815273ffffffffffffffffffffffffffffffffffffffff861660048201527f29ddb589b1fb5fc7cf394961c1adf5f8c6454761adf795e67fe149f658abe8956024820152600090731820a4b7618bde71dce8cdc73aab6c95905fad249063aabbb8ca90604401602060405180830381865afa1580156143a7573d6000803e3d6000fd5b505050506040513d601f19601f820116820180604052508101906143cb9190616a1a565b905073ffffffffffffffffffffffffffffffffffffffff81161561318a576040517f75ab978200000000000000000000000000000000000000000000000000000000815273ffffffffffffffffffffffffffffffffffffffff8216906375ab978290614445908a908a908a908a908a908a90600401616a37565b600060405180830381600087803b15801561445f57600080fd5b505af115801561235c573d6000803e3d6000fd5b73ffffffffffffffffffffffffffffffffffffffff84811660008181527f38e71761b954262a9560bd5d5724383b6db3c254761096eb4ce389ed02050c6060205260408120548684168015948716159360ff90921692911415906144d6886115fa565b861115905060006145098973ffffffffffffffffffffffffffffffffffffffff1660009081526033602052604090205490565b87111590508480156145185750825b80156145215750835b156145c057866145538a73ffffffffffffffffffffffffffffffffffffffff1660009081526033602052604090205490565b10156145bb576040517f08c379a000000000000000000000000000000000000000000000000000000000815260206004820152601b60248201527f6c4e4f52493a20696e73756666696369656e742062616c616e636500000000006044820152606401610aeb565b614635565b85614635578180156145cf5750805b614635576040517f08c379a000000000000000000000000000000000000000000000000000000000815260206004820152601b60248201527f6c4e4f52493a20696e73756666696369656e742062616c616e636500000000006044820152606401610aeb565b6118c58a8a8a8a6152e7565b600082815260c96020908152604080832073ffffffffffffffffffffffffffffffffffffffff8516845290915290205460ff16610f35576146998173ffffffffffffffffffffffffffffffffffffffff1660146152f4565b6146a48360206152f4565b6040516020016146b5929190616a9d565b604080517fffffffffffffffffffffffffffffffffffffffffffffffffffffffffffffffe0818403018152908290527f08c379a0000000000000000000000000000000000000000000000000000000008252610aeb91600401615a2f565b600483015460008190036147b75783548310156147b2576040517f08c379a000000000000000000000000000000000000000000000000000000000815260206004820152602a60248201527f4c6f636b65644e4f52494c69623a20436c696666206265666f7265207363686560448201527f64756c65207374617274000000000000000000000000000000000000000000006064820152608401610aeb565b614869565b6003840160006147c8600184616735565b815260200190815260200160002060000154831015614869576040517f08c379a000000000000000000000000000000000000000000000000000000000815260206004820152602760248201527f4c6f636b65644e4f52494c69623a20436c69666673206e6f74206368726f6e6f60448201527f6c6f676963616c000000000000000000000000000000000000000000000000006064820152608401610aeb565b83600101548311156148fd576040517f08c379a000000000000000000000000000000000000000000000000000000000815260206004820152602f60248201527f4c6f636b65644e4f52494c69623a20436c696666732063616e6e6f7420656e6460448201527f206166746572207363686564756c6500000000000000000000000000000000006064820152608401610aeb565b836002015482856005015461491291906165af565b11156149a0576040517f08c379a000000000000000000000000000000000000000000000000000000000815260206004820152602960248201527f4c6f636b65644e4f52494c69623a20436c69666620616d6f756e74732065786360448201527f65656420746f74616c00000000000000000000000000000000000000000000006064820152608401610aeb565b600081815260038501602052604081208481556001808201859055600487018054929391929091906149d39084906165af565b92505081905550828560050160008282546149ee91906165af565b90915550505050505050565b614a048282615537565b7fa52f07bb8dc8df886598eb50edeaba2b8e45715237ed244354b60ea04d0390b88203610f355773ffffffffffffffffffffffffffffffffffffffff8116600090815261015f60205260409020600f015460ff1615610f35576040517f08c379a000000000000000000000000000000000000000000000000000000000815260206004820152603360248201527f6c4e4f52493a2043616e6e6f742061737369676e20726f6c6520746f2061206760448201527f72616e7420686f6c6465722061646472657373000000000000000000000000006064820152608401610aeb565b614aef828261553f565b600082815260fb60205260409020610c439082615633565b73ffffffffffffffffffffffffffffffffffffffff8516614b84576040517f08c379a000000000000000000000000000000000000000000000000000000000815260206004820181905260248201527f4552433737373a206d696e7420746f20746865207a65726f20616464726573736044820152606401610aeb565b33614b928160008888614473565b8460346000828254614ba491906165af565b909155505073ffffffffffffffffffffffffffffffffffffffff861660009081526033602052604081208054879290614bde9084906165af565b90915550614bf490508160008888888888614f33565b8573ffffffffffffffffffffffffffffffffffffffff168173ffffffffffffffffffffffffffffffffffffffff167f2fe5be0146f74c5bce36c0b80911af6c7d86ff27e89d5cfa61fc681327954e5d878787604051614c55939291906167e9565b60405180910390a360405185815273ffffffffffffffffffffffffffffffffffffffff8716906000907fddf252ad1be2c89b69c2b068fc378daa952ba7f163c4a11628f55a4df523b3ef906020016129f4565b614cb28282615655565b600082815260fb60205260409020610c439082615710565b60655460ff16612601576040517f08c379a000000000000000000000000000000000000000000000000000000000815260206004820152601460248201527f5061757361626c653a206e6f74207061757365640000000000000000000000006044820152606401610aeb565b614d4286868686614473565b73ffffffffffffffffffffffffffffffffffffffff851660009081526033602052604090205483811015614df8576040517f08c379a000000000000000000000000000000000000000000000000000000000815260206004820152602760248201527f4552433737373a207472616e7366657220616d6f756e7420657863656564732060448201527f62616c616e6365000000000000000000000000000000000000000000000000006064820152608401610aeb565b73ffffffffffffffffffffffffffffffffffffffff808716600090815260336020526040808220878503905591871681529081208054869290614e3c9084906165af565b925050819055508473ffffffffffffffffffffffffffffffffffffffff168673ffffffffffffffffffffffffffffffffffffffff168873ffffffffffffffffffffffffffffffffffffffff167f06b541ddaa720db2b10a4d0cdac39b8d360425fc073085fac19bc82614677987878787604051614ebb939291906167e9565b60405180910390a48473ffffffffffffffffffffffffffffffffffffffff168673ffffffffffffffffffffffffffffffffffffffff167fddf252ad1be2c89b69c2b068fc378daa952ba7f163c4a11628f55a4df523b3ef86604051614f2291815260200190565b60405180910390a350505050505050565b6040517faabbb8ca00000000000000000000000000000000000000000000000000000000815273ffffffffffffffffffffffffffffffffffffffff861660048201527fb281fc8c12954d22544db45de3159a39272895b169a852b314f9cc762e44c53b6024820152600090731820a4b7618bde71dce8cdc73aab6c95905fad249063aabbb8ca90604401602060405180830381865afa158015614fda573d6000803e3d6000fd5b505050506040513d601f19601f82011682018060405250810190614ffe9190616a1a565b905073ffffffffffffffffffffffffffffffffffffffff8116156150ad576040517e23de2900000000000000000000000000000000000000000000000000000000815273ffffffffffffffffffffffffffffffffffffffff8216906223de2990615076908b908b908b908b908b908b90600401616a37565b600060405180830381600087803b15801561509057600080fd5b505af11580156150a4573d6000803e3d6000fd5b5050505061517e565b811561517e5773ffffffffffffffffffffffffffffffffffffffff86163b1561517e576040517f08c379a000000000000000000000000000000000000000000000000000000000815260206004820152604d60248201527f4552433737373a20746f6b656e20726563697069656e7420636f6e747261637460448201527f20686173206e6f20696d706c656d656e74657220666f7220455243373737546f60648201527f6b656e73526563697069656e7400000000000000000000000000000000000000608482015260a401610aeb565b5050505050505050565b600082600001828154811061519f5761519f6165e4565b9060005260206000200154905092915050565b60008083600501548460020154106151db57836005015484600201546151d89190616735565b90505b836001015483106151ed5790506107e3565b835460048501541561522557846003016000600187600401546152109190616735565b81526020019081526020016000206000015490505b60008186600101546152379190616735565b9050818510615264578061524b8387616735565b6152559085616b1e565b61525f9190616b5b565b615267565b60005b9695505050505050565b60048201546000908190815b818110156152cf57600081815260038701602052604090205485106152bd5760008181526003870160205260409020600101546152ba90846165af565b92505b806152c781616613565b91505061527d565b506152de8560020154836142ea565b95945050505050565b6152ef612594565b612f82565b60606000615303836002616b1e565b61530e9060026165af565b67ffffffffffffffff81111561532657615326615bb6565b6040519080825280601f01601f191660200182016040528015615350576020820181803683370190505b5090507f300000000000000000000000000000000000000000000000000000000000000081600081518110615387576153876165e4565b60200101907effffffffffffffffffffffffffffffffffffffffffffffffffffffffffffff1916908160001a9053507f7800000000000000000000000000000000000000000000000000000000000000816001815181106153ea576153ea6165e4565b60200101907effffffffffffffffffffffffffffffffffffffffffffffffffffffffffffff1916908160001a9053506000615426846002616b1e565b6154319060016165af565b90505b60018111156154ce577f303132333435363738396162636465660000000000000000000000000000000085600f1660108110615472576154726165e4565b1a60f81b828281518110615488576154886165e4565b60200101907effffffffffffffffffffffffffffffffffffffffffffffffffffffffffffff1916908160001a90535060049490941c936154c781616b96565b9050615434565b5083156108ff576040517f08c379a000000000000000000000000000000000000000000000000000000000815260206004820181905260248201527f537472696e67733a20686578206c656e67746820696e73756666696369656e746044820152606401610aeb565b610f35612594565b600082815260c96020908152604080832073ffffffffffffffffffffffffffffffffffffffff8516845290915290205460ff16610f3557600082815260c96020908152604080832073ffffffffffffffffffffffffffffffffffffffff85168452909152902080547fffffffffffffffffffffffffffffffffffffffffffffffffffffffffffffff001660011790556155d53390565b73ffffffffffffffffffffffffffffffffffffffff168173ffffffffffffffffffffffffffffffffffffffff16837f2f8788117e7eff1d82e926ec794901d17c78024a50270940304540a733656f0d60405160405180910390a45050565b60006108ff8373ffffffffffffffffffffffffffffffffffffffff8416615732565b600082815260c96020908152604080832073ffffffffffffffffffffffffffffffffffffffff8516845290915290205460ff1615610f3557600082815260c96020908152604080832073ffffffffffffffffffffffffffffffffffffffff8516808552925280832080547fffffffffffffffffffffffffffffffffffffffffffffffffffffffffffffff0016905551339285917ff6391f5c32d9c69d2a47ea670b442974b53935d1edc7fd64eb21e047a839171b9190a45050565b60006108ff8373ffffffffffffffffffffffffffffffffffffffff8416615781565b6000818152600183016020526040812054615779575081546001818101845560008481526020808220909301849055845484825282860190935260409020919091556107e3565b5060006107e3565b6000818152600183016020526040812054801561586a5760006157a5600183616735565b85549091506000906157b990600190616735565b905081811461581e5760008660000182815481106157d9576157d96165e4565b90600052602060002001549050808760000184815481106157fc576157fc6165e4565b6000918252602080832090910192909255918252600188019052604090208390555b855486908061582f5761582f616bcb565b6001900381819060005260206000200160009055905585600101600086815260200190815260200160002060009055600193505050506107e3565b60009150506107e3565b8280548282559060005260206000209081019282156158ee579160200282015b828111156158ee57825182547fffffffffffffffffffffffff00000000000000000000000000000000000000001673ffffffffffffffffffffffffffffffffffffffff909116178255602090920191600190910190615894565b506158fa9291506158fe565b5090565b5b808211156158fa57600081556001016158ff565b60006020828403121561592557600080fd5b81357fffffffff00000000000000000000000000000000000000000000000000000000811681146108ff57600080fd5b600081518084526020808501945080840160005b8381101561599b57815173ffffffffffffffffffffffffffffffffffffffff1687529582019590820190600101615969565b509495945050505050565b6020815260006108ff6020830184615955565b60005b838110156159d45781810151838201526020016159bc565b83811115612f825750506000910152565b600081518084526159fd8160208601602086016159b9565b601f017fffffffffffffffffffffffffffffffffffffffffffffffffffffffffffffffe0169290920160200192915050565b6020815260006108ff60208301846159e5565b73ffffffffffffffffffffffffffffffffffffffff81168114610f6b57600080fd5b60008060408385031215615a7757600080fd5b8235615a8281615a42565b946020939093013593505050565b600060208284031215615aa257600080fd5b81356108ff81615a42565b600080600060608486031215615ac257600080fd5b8335615acd81615a42565b92506020840135615add81615a42565b929592945050506040919091013590565b600060208284031215615b0057600080fd5b5035919050565b60008060008060008060008060008060006101608c8e031215615b2957600080fd5b8b359a5060208c0135615b3b81615a42565b9a9d9a9c505050506040890135986060810135986080820135985060a0820135975060c0820135965060e0820135955061010082013594506101208201359350610140909101359150565b60008060408385031215615b9957600080fd5b823591506020830135615bab81615a42565b809150509250929050565b7f4e487b7100000000000000000000000000000000000000000000000000000000600052604160045260246000fd5b604051610140810167ffffffffffffffff81118282101715615c0957615c09615bb6565b60405290565b604051601f82017fffffffffffffffffffffffffffffffffffffffffffffffffffffffffffffffe016810167ffffffffffffffff81118282101715615c5657615c56615bb6565b604052919050565b600067ffffffffffffffff821115615c7857615c78615bb6565b5060051b60200190565b600082601f830112615c9357600080fd5b81356020615ca8615ca383615c5e565b615c0f565b82815260059290921b84018101918181019086841115615cc757600080fd5b8286015b84811015615ceb578035615cde81615a42565b8352918301918301615ccb565b509695505050505050565b600060208284031215615d0857600080fd5b813567ffffffffffffffff811115615d1f57600080fd5b61278384828501615c82565b600081518084526020808501945080840160005b8381101561599b57815187529582019590820190600101615d3f565b6020815260006108ff6020830184615d2b565b600082601f830112615d7f57600080fd5b813567ffffffffffffffff811115615d9957615d99615bb6565b615dca60207fffffffffffffffffffffffffffffffffffffffffffffffffffffffffffffffe0601f84011601615c0f565b818152846020838601011115615ddf57600080fd5b816020850160208301376000918101602001919091529392505050565b600080600080600060a08688031215615e1457600080fd5b8535615e1f81615a42565b94506020860135615e2f81615a42565b935060408601359250606086013567ffffffffffffffff80821115615e5357600080fd5b615e5f89838a01615d6e565b93506080880135915080821115615e7557600080fd5b50615e8288828901615d6e565b9150509295509295909350565b600082601f830112615ea057600080fd5b81356020615eb0615ca383615c5e565b82815260059290921b84018101918181019086841115615ecf57600080fd5b8286015b84811015615ceb5780358352918301918301615ed3565b600082601f830112615efb57600080fd5b81356020615f0b615ca383615c5e565b82815260059290921b84018101918181019086841115615f2a57600080fd5b8286015b84811015615ceb57803567ffffffffffffffff811115615f4e5760008081fd5b615f5c8986838b0101615d6e565b845250918301918301615f2e565b8015158114610f6b57600080fd5b600082601f830112615f8957600080fd5b81356020615f99615ca383615c5e565b82815260059290921b84018101918181019086841115615fb857600080fd5b8286015b84811015615ceb578035615fcf81615f6a565b8352918301918301615fbc565b600080600080600060a08688031215615ff457600080fd5b853567ffffffffffffffff8082111561600c57600080fd5b61601889838a01615c82565b9650602088013591508082111561602e57600080fd5b61603a89838a01615e8f565b9550604088013591508082111561605057600080fd5b61605c89838a01615eea565b9450606088013591508082111561607257600080fd5b61607e89838a01615eea565b9350608088013591508082111561609457600080fd5b50615e8288828901615f78565b600080604083850312156160b457600080fd5b50508035926020909101359150565b60008083601f8401126160d557600080fd5b50813567ffffffffffffffff8111156160ed57600080fd5b6020830191508360208260051b850101111561610857600080fd5b9250929050565b6000806000806000806000806080898b03121561612b57600080fd5b883567ffffffffffffffff8082111561614357600080fd5b61614f8c838d016160c3565b909a50985060208b013591508082111561616857600080fd5b6161748c838d016160c3565b909850965060408b013591508082111561618d57600080fd5b6161998c838d016160c3565b909650945060608b01359150808211156161b257600080fd5b506161bf8b828c016160c3565b999c989b5096995094979396929594505050565b6000806000606084860312156161e857600080fd5b83356161f381615a42565b925060208401359150604084013567ffffffffffffffff81111561621657600080fd5b61622286828701615d6e565b9150509250925092565b6000806020838503121561623f57600080fd5b823567ffffffffffffffff81111561625657600080fd5b616262858286016160c3565b90969095509350505050565b805182526020810151616299602084018273ffffffffffffffffffffffffffffffffffffffff169052565b5060408181015190830152606080820151908301526080808201519083015260a0808201519083015260c0808201519083015260e08082015190830152610100808201519083015261012080820151908301526101408082015190830152610160808201519083015261018080820151908301526101a080820151908301526101c080820151908301526101e08082015180151582850152612f82565b6020808252825182820181905260009190848201906040850190845b818110156163795761636583855161626e565b928401926102009290920191600101616352565b50909695505050505050565b61020081016107e3828461626e565b60008060008060008060008060c0898b0312156163b057600080fd5b883567ffffffffffffffff808211156163c857600080fd5b6163d48c838d016160c3565b909a50985060208b01359150808211156163ed57600080fd5b506163fa8b828c016160c3565b90975095505060408901359350606089013560ff8116811461641b57600080fd5b979a969950949793969295929450505060808201359160a0013590565b6000806040838503121561644b57600080fd5b823561645681615a42565b91506020830135615bab81615a42565b6000806000806080858703121561647c57600080fd5b843561648781615a42565b935060208501359250604085013567ffffffffffffffff808211156164ab57600080fd5b6164b788838901615d6e565b935060608701359150808211156164cd57600080fd5b506164da87828801615d6e565b91505092959194509250565b600080604083850312156164f957600080fd5b82359150602083013567ffffffffffffffff81111561651757600080fd5b61652385828601615d6e565b9150509250929050565b600181811c9082168061654157607f821691505b60208210810361657a577f4e487b7100000000000000000000000000000000000000000000000000000000600052602260045260246000fd5b50919050565b7f4e487b7100000000000000000000000000000000000000000000000000000000600052601160045260246000fd5b600082198211156165c2576165c2616580565b500190565b6000602082840312156165d957600080fd5b81516108ff81615f6a565b7f4e487b7100000000000000000000000000000000000000000000000000000000600052603260045260246000fd5b60007fffffffffffffffffffffffffffffffffffffffffffffffffffffffffffffffff820361664457616644616580565b5060010190565b600081518084526020808501808196508360051b8101915082860160005b858110156166935782840389526166818483516159e5565b98850198935090840190600101616669565b5091979650505050505050565b60a0815260006166b360a0830188615955565b6020838203818501526166c68289615d2b565b915083820360408501526166da828861664b565b915083820360608501526166ee828761664b565b8481036080860152855180825282870193509082019060005b81811015616725578451151583529383019391830191600101616707565b50909a9950505050505050505050565b60008282101561674757616747616580565b500390565b60008083357fffffffffffffffffffffffffffffffffffffffffffffffffffffffffffffffe184360301811261678157600080fd5b83018035915067ffffffffffffffff82111561679c57600080fd5b60200191503681900382131561610857600080fd5b600060ff821660ff81036167c7576167c7616580565b60010192915050565b6000602082840312156167e257600080fd5b5051919050565b83815260606020820152600061680260608301856159e5565b828103604084015261526781856159e5565b805161681f81615a42565b919050565b6000610140828403121561683757600080fd5b61683f615be5565b61684883616814565b81526020830151602082015260408301516040820152606083015160608201526080830151608082015260a083015160a082015260c083015160c082015260e083015160e08201526101008084015181830152506101208084015181830152508091505092915050565b601f821115610c4357600081815260208120601f850160051c810160208610156168d95750805b601f850160051c820191505b818110156168f8578281556001016168e5565b505050505050565b815167ffffffffffffffff81111561691a5761691a615bb6565b61692e81616928845461652d565b846168b2565b602080601f831160018114616981576000841561694b5750858301515b7fffffffffffffffffffffffffffffffffffffffffffffffffffffffffffffffff600386901b1c1916600185901b1785556168f8565b6000858152602081207fffffffffffffffffffffffffffffffffffffffffffffffffffffffffffffffe08616915b828110156169ce578886015182559484019460019091019084016169af565b5085821015616a0a57878501517fffffffffffffffffffffffffffffffffffffffffffffffffffffffffffffffff600388901b60f8161c191681555b5050505050600190811b01905550565b600060208284031215616a2c57600080fd5b81516108ff81615a42565b600073ffffffffffffffffffffffffffffffffffffffff8089168352808816602084015280871660408401525084606083015260c06080830152616a7e60c08301856159e5565b82810360a0840152616a9081856159e5565b9998505050505050505050565b7f416363657373436f6e74726f6c3a206163636f756e7420000000000000000000815260008351616ad58160178501602088016159b9565b7f206973206d697373696e6720726f6c65200000000000000000000000000000006017918401918201528351616b128160288401602088016159b9565b01602801949350505050565b6000817fffffffffffffffffffffffffffffffffffffffffffffffffffffffffffffffff0483118215151615616b5657616b56616580565b500290565b600082616b91577f4e487b7100000000000000000000000000000000000000000000000000000000600052601260045260246000fd5b500490565b600081616ba557616ba5616580565b507fffffffffffffffffffffffffffffffffffffffffffffffffffffffffffffffff0190565b7f4e487b7100000000000000000000000000000000000000000000000000000000600052603160045260246000fdfea26469706673582212206edf270042140f23512eec72813c7baf07190669f90057c8af09e38e13d7d55564736f6c634300080f0033",
  "linkReferences": {},
  "deployedLinkReferences": {}
}