{
  "_format": "hh-sol-artifact-1",
  "contractName": "LockedNORIV2",
  "sourceName": "contracts/LockedNORIV2.sol",
  "abi": [
    {
      "anonymous": false,
      "inputs": [
        {
          "indexed": true,
          "internalType": "address",
          "name": "owner",
          "type": "address"
        },
        {
          "indexed": true,
          "internalType": "address",
          "name": "spender",
          "type": "address"
        },
        {
          "indexed": false,
          "internalType": "uint256",
          "name": "value",
          "type": "uint256"
        }
      ],
      "name": "Approval",
      "type": "event"
    },
    {
      "anonymous": false,
      "inputs": [
        {
          "indexed": true,
          "internalType": "address",
          "name": "operator",
          "type": "address"
        },
        {
          "indexed": true,
          "internalType": "address",
          "name": "tokenHolder",
          "type": "address"
        }
      ],
      "name": "AuthorizedOperator",
      "type": "event"
    },
    {
      "anonymous": false,
      "inputs": [
        {
          "indexed": true,
          "internalType": "address",
          "name": "operator",
          "type": "address"
        },
        {
          "indexed": true,
          "internalType": "address",
          "name": "from",
          "type": "address"
        },
        {
          "indexed": false,
          "internalType": "uint256",
          "name": "amount",
          "type": "uint256"
        },
        {
          "indexed": false,
          "internalType": "bytes",
          "name": "data",
          "type": "bytes"
        },
        {
          "indexed": false,
          "internalType": "bytes",
          "name": "operatorData",
          "type": "bytes"
        }
      ],
      "name": "Burned",
      "type": "event"
    },
    {
      "anonymous": false,
      "inputs": [
        {
          "indexed": false,
          "internalType": "uint8",
          "name": "version",
          "type": "uint8"
        }
      ],
      "name": "Initialized",
      "type": "event"
    },
    {
      "anonymous": false,
      "inputs": [
        {
          "indexed": true,
          "internalType": "address",
          "name": "operator",
          "type": "address"
        },
        {
          "indexed": true,
          "internalType": "address",
          "name": "to",
          "type": "address"
        },
        {
          "indexed": false,
          "internalType": "uint256",
          "name": "amount",
          "type": "uint256"
        },
        {
          "indexed": false,
          "internalType": "bytes",
          "name": "data",
          "type": "bytes"
        },
        {
          "indexed": false,
          "internalType": "bytes",
          "name": "operatorData",
          "type": "bytes"
        }
      ],
      "name": "Minted",
      "type": "event"
    },
    {
      "anonymous": false,
      "inputs": [
        {
          "indexed": false,
          "internalType": "address",
          "name": "account",
          "type": "address"
        }
      ],
      "name": "Paused",
      "type": "event"
    },
    {
      "anonymous": false,
      "inputs": [
        {
          "indexed": true,
          "internalType": "address",
          "name": "operator",
          "type": "address"
        },
        {
          "indexed": true,
          "internalType": "address",
          "name": "tokenHolder",
          "type": "address"
        }
      ],
      "name": "RevokedOperator",
      "type": "event"
    },
    {
      "anonymous": false,
      "inputs": [
        {
          "indexed": true,
          "internalType": "bytes32",
          "name": "role",
          "type": "bytes32"
        },
        {
          "indexed": true,
          "internalType": "bytes32",
          "name": "previousAdminRole",
          "type": "bytes32"
        },
        {
          "indexed": true,
          "internalType": "bytes32",
          "name": "newAdminRole",
          "type": "bytes32"
        }
      ],
      "name": "RoleAdminChanged",
      "type": "event"
    },
    {
      "anonymous": false,
      "inputs": [
        {
          "indexed": true,
          "internalType": "bytes32",
          "name": "role",
          "type": "bytes32"
        },
        {
          "indexed": true,
          "internalType": "address",
          "name": "account",
          "type": "address"
        },
        {
          "indexed": true,
          "internalType": "address",
          "name": "sender",
          "type": "address"
        }
      ],
      "name": "RoleGranted",
      "type": "event"
    },
    {
      "anonymous": false,
      "inputs": [
        {
          "indexed": true,
          "internalType": "bytes32",
          "name": "role",
          "type": "bytes32"
        },
        {
          "indexed": true,
          "internalType": "address",
          "name": "account",
          "type": "address"
        },
        {
          "indexed": true,
          "internalType": "address",
          "name": "sender",
          "type": "address"
        }
      ],
      "name": "RoleRevoked",
      "type": "event"
    },
    {
      "anonymous": false,
      "inputs": [
        {
          "indexed": true,
          "internalType": "address",
          "name": "operator",
          "type": "address"
        },
        {
          "indexed": true,
          "internalType": "address",
          "name": "from",
          "type": "address"
        },
        {
          "indexed": true,
          "internalType": "address",
          "name": "to",
          "type": "address"
        },
        {
          "indexed": false,
          "internalType": "uint256",
          "name": "amount",
          "type": "uint256"
        },
        {
          "indexed": false,
          "internalType": "bytes",
          "name": "data",
          "type": "bytes"
        },
        {
          "indexed": false,
          "internalType": "bytes",
          "name": "operatorData",
          "type": "bytes"
        }
      ],
      "name": "Sent",
      "type": "event"
    },
    {
      "anonymous": false,
      "inputs": [
        {
          "indexed": true,
          "internalType": "address",
          "name": "from",
          "type": "address"
        },
        {
          "indexed": false,
          "internalType": "address[]",
          "name": "recipients",
          "type": "address[]"
        },
        {
          "indexed": false,
          "internalType": "uint256[]",
          "name": "amounts",
          "type": "uint256[]"
        },
        {
          "indexed": false,
          "internalType": "bytes[]",
          "name": "userData",
          "type": "bytes[]"
        },
        {
          "indexed": false,
          "internalType": "bytes[]",
          "name": "operatorData",
          "type": "bytes[]"
        },
        {
          "indexed": false,
          "internalType": "bool[]",
          "name": "requireReceptionAck",
          "type": "bool[]"
        }
      ],
      "name": "SentBatch",
      "type": "event"
    },
    {
      "anonymous": false,
      "inputs": [
        {
          "indexed": true,
          "internalType": "address",
          "name": "recipient",
          "type": "address"
        },
        {
          "indexed": true,
          "internalType": "uint256",
          "name": "amount",
          "type": "uint256"
        },
        {
          "indexed": true,
          "internalType": "uint256",
          "name": "startTime",
          "type": "uint256"
        },
        {
          "indexed": false,
          "internalType": "uint256",
          "name": "vestEndTime",
          "type": "uint256"
        },
        {
          "indexed": false,
          "internalType": "uint256",
          "name": "unlockEndTime",
          "type": "uint256"
        }
      ],
      "name": "TokenGrantCreated",
      "type": "event"
    },
    {
      "anonymous": false,
      "inputs": [
        {
          "indexed": true,
          "internalType": "address",
          "name": "from",
          "type": "address"
        },
        {
          "indexed": true,
          "internalType": "address",
          "name": "to",
          "type": "address"
        },
        {
          "indexed": false,
          "internalType": "uint256",
          "name": "quantity",
          "type": "uint256"
        }
      ],
      "name": "TokensClaimed",
      "type": "event"
    },
    {
      "anonymous": false,
      "inputs": [
        {
          "indexed": true,
          "internalType": "address",
          "name": "from",
          "type": "address"
        },
        {
          "indexed": true,
          "internalType": "address",
          "name": "to",
          "type": "address"
        },
        {
          "indexed": false,
          "internalType": "uint256",
          "name": "value",
          "type": "uint256"
        }
      ],
      "name": "Transfer",
      "type": "event"
    },
    {
      "anonymous": false,
      "inputs": [
        {
          "indexed": false,
          "internalType": "address",
          "name": "from",
          "type": "address"
        },
        {
          "indexed": false,
          "internalType": "address",
          "name": "to",
          "type": "address"
        }
      ],
      "name": "UnderlyingTokenAddressUpdated",
      "type": "event"
    },
    {
      "anonymous": false,
      "inputs": [
        {
          "indexed": false,
          "internalType": "address",
          "name": "account",
          "type": "address"
        }
      ],
      "name": "Unpaused",
      "type": "event"
    },
    {
      "anonymous": false,
      "inputs": [
        {
          "indexed": true,
          "internalType": "uint256",
          "name": "atTime",
          "type": "uint256"
        },
        {
          "indexed": true,
          "internalType": "address",
          "name": "from",
          "type": "address"
        },
        {
          "indexed": true,
          "internalType": "uint256",
          "name": "quantity",
          "type": "uint256"
        }
      ],
      "name": "UnvestedTokensRevoked",
      "type": "event"
    },
    {
      "inputs": [],
      "name": "DEFAULT_ADMIN_ROLE",
      "outputs": [
        {
          "internalType": "bytes32",
          "name": "",
          "type": "bytes32"
        }
      ],
      "stateMutability": "view",
      "type": "function"
    },
    {
      "inputs": [],
      "name": "ERC777_TOKENS_RECIPIENT_HASH",
      "outputs": [
        {
          "internalType": "bytes32",
          "name": "",
          "type": "bytes32"
        }
      ],
      "stateMutability": "view",
      "type": "function"
    },
    {
      "inputs": [],
      "name": "PAUSER_ROLE",
      "outputs": [
        {
          "internalType": "bytes32",
          "name": "",
          "type": "bytes32"
        }
      ],
      "stateMutability": "view",
      "type": "function"
    },
    {
      "inputs": [],
      "name": "TOKEN_GRANTER_ROLE",
      "outputs": [
        {
          "internalType": "bytes32",
          "name": "",
          "type": "bytes32"
        }
      ],
      "stateMutability": "view",
      "type": "function"
    },
    {
      "inputs": [
        {
          "internalType": "address",
          "name": "holder",
          "type": "address"
        },
        {
          "internalType": "address",
          "name": "spender",
          "type": "address"
        }
      ],
      "name": "allowance",
      "outputs": [
        {
          "internalType": "uint256",
          "name": "",
          "type": "uint256"
        }
      ],
      "stateMutability": "view",
      "type": "function"
    },
    {
      "inputs": [
        {
          "internalType": "address",
          "name": "spender",
          "type": "address"
        },
        {
          "internalType": "uint256",
          "name": "value",
          "type": "uint256"
        }
      ],
      "name": "approve",
      "outputs": [
        {
          "internalType": "bool",
          "name": "",
          "type": "bool"
        }
      ],
      "stateMutability": "nonpayable",
      "type": "function"
    },
    {
      "inputs": [
        {
          "internalType": "address",
          "name": "operator",
          "type": "address"
        }
      ],
      "name": "authorizeOperator",
      "outputs": [],
      "stateMutability": "nonpayable",
      "type": "function"
    },
    {
      "inputs": [
        {
          "internalType": "address",
          "name": "tokenHolder",
          "type": "address"
        }
      ],
      "name": "balanceOf",
      "outputs": [
        {
          "internalType": "uint256",
          "name": "",
          "type": "uint256"
        }
      ],
      "stateMutability": "view",
      "type": "function"
    },
    {
      "inputs": [
        {
          "internalType": "address[]",
          "name": "accounts",
          "type": "address[]"
        }
      ],
      "name": "balanceOfBatch",
      "outputs": [
        {
          "internalType": "uint256[]",
          "name": "",
          "type": "uint256[]"
        }
      ],
      "stateMutability": "view",
      "type": "function"
    },
    {
      "inputs": [
        {
          "internalType": "address[]",
          "name": "accounts",
          "type": "address[]"
        }
      ],
      "name": "batchGetGrant",
      "outputs": [
        {
          "components": [
            {
              "internalType": "uint256",
              "name": "grantAmount",
              "type": "uint256"
            },
            {
              "internalType": "address",
              "name": "recipient",
              "type": "address"
            },
            {
              "internalType": "uint256",
              "name": "startTime",
              "type": "uint256"
            },
            {
              "internalType": "uint256",
              "name": "vestEndTime",
              "type": "uint256"
            },
            {
              "internalType": "uint256",
              "name": "unlockEndTime",
              "type": "uint256"
            },
            {
              "internalType": "uint256",
              "name": "cliff1Time",
              "type": "uint256"
            },
            {
              "internalType": "uint256",
              "name": "cliff2Time",
              "type": "uint256"
            },
            {
              "internalType": "uint256",
              "name": "vestCliff1Amount",
              "type": "uint256"
            },
            {
              "internalType": "uint256",
              "name": "vestCliff2Amount",
              "type": "uint256"
            },
            {
              "internalType": "uint256",
              "name": "unlockCliff1Amount",
              "type": "uint256"
            },
            {
              "internalType": "uint256",
              "name": "unlockCliff2Amount",
              "type": "uint256"
            },
            {
              "internalType": "uint256",
              "name": "claimedAmount",
              "type": "uint256"
            },
            {
              "internalType": "uint256",
              "name": "originalAmount",
              "type": "uint256"
            },
            {
              "internalType": "uint256",
              "name": "lastRevocationTime",
              "type": "uint256"
            },
            {
              "internalType": "uint256",
              "name": "lastQuantityRevoked",
              "type": "uint256"
            },
            {
              "internalType": "bool",
              "name": "exists",
              "type": "bool"
            }
          ],
          "internalType": "struct LockedNORIV2.TokenGrantDetail[]",
          "name": "",
          "type": "tuple[]"
        }
      ],
      "stateMutability": "view",
      "type": "function"
    },
    {
      "inputs": [
        {
          "internalType": "address[]",
          "name": "fromAccounts",
          "type": "address[]"
        },
        {
          "internalType": "address[]",
          "name": "toAccounts",
          "type": "address[]"
        },
        {
          "internalType": "uint256[]",
          "name": "atTimes",
          "type": "uint256[]"
        },
        {
          "internalType": "uint256[]",
          "name": "amounts",
          "type": "uint256[]"
        }
      ],
      "name": "batchRevokeUnvestedTokenAmounts",
      "outputs": [],
      "stateMutability": "nonpayable",
      "type": "function"
    },
    {
      "inputs": [
        {
          "internalType": "address[]",
          "name": "recipients",
          "type": "address[]"
        },
        {
          "internalType": "uint256[]",
          "name": "amounts",
          "type": "uint256[]"
        },
        {
          "internalType": "bytes[]",
          "name": "userData",
          "type": "bytes[]"
        },
        {
          "internalType": "bytes[]",
          "name": "operatorData",
          "type": "bytes[]"
        },
        {
          "internalType": "bool[]",
          "name": "requireReceptionAck",
          "type": "bool[]"
        }
      ],
      "name": "batchSend",
      "outputs": [],
      "stateMutability": "nonpayable",
      "type": "function"
    },
    {
      "inputs": [
        {
          "internalType": "uint256",
          "name": "",
          "type": "uint256"
        },
        {
          "internalType": "bytes",
          "name": "",
          "type": "bytes"
        }
      ],
      "name": "burn",
      "outputs": [],
      "stateMutability": "pure",
      "type": "function"
    },
    {
      "inputs": [
        {
          "internalType": "uint256",
          "name": "amount",
          "type": "uint256"
        },
        {
          "internalType": "address",
          "name": "recipient",
          "type": "address"
        },
        {
          "internalType": "uint256",
          "name": "startTime",
          "type": "uint256"
        },
        {
          "internalType": "uint256",
          "name": "vestEndTime",
          "type": "uint256"
        },
        {
          "internalType": "uint256",
          "name": "unlockEndTime",
          "type": "uint256"
        },
        {
          "internalType": "uint256",
          "name": "cliff1Time",
          "type": "uint256"
        },
        {
          "internalType": "uint256",
          "name": "cliff2Time",
          "type": "uint256"
        },
        {
          "internalType": "uint256",
          "name": "vestCliff1Amount",
          "type": "uint256"
        },
        {
          "internalType": "uint256",
          "name": "vestCliff2Amount",
          "type": "uint256"
        },
        {
          "internalType": "uint256",
          "name": "unlockCliff1Amount",
          "type": "uint256"
        },
        {
          "internalType": "uint256",
          "name": "unlockCliff2Amount",
          "type": "uint256"
        }
      ],
      "name": "createGrant",
      "outputs": [],
      "stateMutability": "nonpayable",
      "type": "function"
    },
    {
      "inputs": [],
      "name": "decimals",
      "outputs": [
        {
          "internalType": "uint8",
          "name": "",
          "type": "uint8"
        }
      ],
      "stateMutability": "pure",
      "type": "function"
    },
    {
      "inputs": [],
      "name": "defaultOperators",
      "outputs": [
        {
          "internalType": "address[]",
          "name": "",
          "type": "address[]"
        }
      ],
      "stateMutability": "view",
      "type": "function"
    },
    {
      "inputs": [
        {
          "internalType": "address",
          "name": "recipient",
          "type": "address"
        },
        {
          "internalType": "uint256",
          "name": "amount",
          "type": "uint256"
        }
      ],
      "name": "depositFor",
      "outputs": [
        {
          "internalType": "bool",
          "name": "",
          "type": "bool"
        }
      ],
      "stateMutability": "nonpayable",
      "type": "function"
    },
    {
      "inputs": [
        {
          "internalType": "address",
          "name": "account",
          "type": "address"
        }
      ],
      "name": "getGrant",
      "outputs": [
        {
          "components": [
            {
              "internalType": "uint256",
              "name": "grantAmount",
              "type": "uint256"
            },
            {
              "internalType": "address",
              "name": "recipient",
              "type": "address"
            },
            {
              "internalType": "uint256",
              "name": "startTime",
              "type": "uint256"
            },
            {
              "internalType": "uint256",
              "name": "vestEndTime",
              "type": "uint256"
            },
            {
              "internalType": "uint256",
              "name": "unlockEndTime",
              "type": "uint256"
            },
            {
              "internalType": "uint256",
              "name": "cliff1Time",
              "type": "uint256"
            },
            {
              "internalType": "uint256",
              "name": "cliff2Time",
              "type": "uint256"
            },
            {
              "internalType": "uint256",
              "name": "vestCliff1Amount",
              "type": "uint256"
            },
            {
              "internalType": "uint256",
              "name": "vestCliff2Amount",
              "type": "uint256"
            },
            {
              "internalType": "uint256",
              "name": "unlockCliff1Amount",
              "type": "uint256"
            },
            {
              "internalType": "uint256",
              "name": "unlockCliff2Amount",
              "type": "uint256"
            },
            {
              "internalType": "uint256",
              "name": "claimedAmount",
              "type": "uint256"
            },
            {
              "internalType": "uint256",
              "name": "originalAmount",
              "type": "uint256"
            },
            {
              "internalType": "uint256",
              "name": "lastRevocationTime",
              "type": "uint256"
            },
            {
              "internalType": "uint256",
              "name": "lastQuantityRevoked",
              "type": "uint256"
            },
            {
              "internalType": "bool",
              "name": "exists",
              "type": "bool"
            }
          ],
          "internalType": "struct LockedNORIV2.TokenGrantDetail",
          "name": "",
          "type": "tuple"
        }
      ],
      "stateMutability": "view",
      "type": "function"
    },
    {
      "inputs": [
        {
          "internalType": "bytes32",
          "name": "role",
          "type": "bytes32"
        }
      ],
      "name": "getRoleAdmin",
      "outputs": [
        {
          "internalType": "bytes32",
          "name": "",
          "type": "bytes32"
        }
      ],
      "stateMutability": "view",
      "type": "function"
    },
    {
      "inputs": [
        {
          "internalType": "bytes32",
          "name": "role",
          "type": "bytes32"
        },
        {
          "internalType": "uint256",
          "name": "index",
          "type": "uint256"
        }
      ],
      "name": "getRoleMember",
      "outputs": [
        {
          "internalType": "address",
          "name": "",
          "type": "address"
        }
      ],
      "stateMutability": "view",
      "type": "function"
    },
    {
      "inputs": [
        {
          "internalType": "bytes32",
          "name": "role",
          "type": "bytes32"
        }
      ],
      "name": "getRoleMemberCount",
      "outputs": [
        {
          "internalType": "uint256",
          "name": "",
          "type": "uint256"
        }
      ],
      "stateMutability": "view",
      "type": "function"
    },
    {
      "inputs": [
        {
          "internalType": "bytes32",
          "name": "role",
          "type": "bytes32"
        },
        {
          "internalType": "address",
          "name": "account",
          "type": "address"
        }
      ],
      "name": "grantRole",
      "outputs": [],
      "stateMutability": "nonpayable",
      "type": "function"
    },
    {
      "inputs": [],
      "name": "granularity",
      "outputs": [
        {
          "internalType": "uint256",
          "name": "",
          "type": "uint256"
        }
      ],
      "stateMutability": "view",
      "type": "function"
    },
    {
      "inputs": [
        {
          "internalType": "bytes32",
          "name": "role",
          "type": "bytes32"
        },
        {
          "internalType": "address",
          "name": "account",
          "type": "address"
        }
      ],
      "name": "hasRole",
      "outputs": [
        {
          "internalType": "bool",
          "name": "",
          "type": "bool"
        }
      ],
      "stateMutability": "view",
      "type": "function"
    },
    {
      "inputs": [
        {
          "internalType": "contract IERC20Upgradeable",
          "name": "bridgedPolygonNoriAddress",
          "type": "address"
        }
      ],
      "name": "initialize",
      "outputs": [],
      "stateMutability": "nonpayable",
      "type": "function"
    },
    {
      "inputs": [
        {
          "internalType": "address",
          "name": "operator",
          "type": "address"
        },
        {
          "internalType": "address",
          "name": "tokenHolder",
          "type": "address"
        }
      ],
      "name": "isOperatorFor",
      "outputs": [
        {
          "internalType": "bool",
          "name": "",
          "type": "bool"
        }
      ],
      "stateMutability": "view",
      "type": "function"
    },
    {
      "inputs": [],
      "name": "name",
      "outputs": [
        {
          "internalType": "string",
          "name": "",
          "type": "string"
        }
      ],
      "stateMutability": "view",
      "type": "function"
    },
    {
      "inputs": [
        {
          "internalType": "address",
          "name": "",
          "type": "address"
        },
        {
          "internalType": "uint256",
          "name": "",
          "type": "uint256"
        },
        {
          "internalType": "bytes",
          "name": "",
          "type": "bytes"
        },
        {
          "internalType": "bytes",
          "name": "",
          "type": "bytes"
        }
      ],
      "name": "operatorBurn",
      "outputs": [],
      "stateMutability": "pure",
      "type": "function"
    },
    {
      "inputs": [
        {
          "internalType": "address",
          "name": "",
          "type": "address"
        },
        {
          "internalType": "address",
          "name": "",
          "type": "address"
        },
        {
          "internalType": "uint256",
          "name": "",
          "type": "uint256"
        },
        {
          "internalType": "bytes",
          "name": "",
          "type": "bytes"
        },
        {
          "internalType": "bytes",
          "name": "",
          "type": "bytes"
        }
      ],
      "name": "operatorSend",
      "outputs": [],
      "stateMutability": "pure",
      "type": "function"
    },
    {
      "inputs": [],
      "name": "pause",
      "outputs": [],
      "stateMutability": "nonpayable",
      "type": "function"
    },
    {
      "inputs": [],
      "name": "paused",
      "outputs": [
        {
          "internalType": "bool",
          "name": "",
          "type": "bool"
        }
      ],
      "stateMutability": "view",
      "type": "function"
    },
    {
      "inputs": [
        {
          "internalType": "address",
          "name": "account",
          "type": "address"
        }
      ],
      "name": "quantityRevokedFrom",
      "outputs": [
        {
          "internalType": "uint256",
          "name": "",
          "type": "uint256"
        }
      ],
      "stateMutability": "view",
      "type": "function"
    },
    {
      "inputs": [
        {
          "internalType": "bytes32",
          "name": "role",
          "type": "bytes32"
        },
        {
          "internalType": "address",
          "name": "account",
          "type": "address"
        }
      ],
      "name": "renounceRole",
      "outputs": [],
      "stateMutability": "nonpayable",
      "type": "function"
    },
    {
      "inputs": [
        {
          "internalType": "address",
          "name": "operator",
          "type": "address"
        }
      ],
      "name": "revokeOperator",
      "outputs": [],
      "stateMutability": "nonpayable",
      "type": "function"
    },
    {
      "inputs": [
        {
          "internalType": "bytes32",
          "name": "role",
          "type": "bytes32"
        },
        {
          "internalType": "address",
          "name": "account",
          "type": "address"
        }
      ],
      "name": "revokeRole",
      "outputs": [],
      "stateMutability": "nonpayable",
      "type": "function"
    },
    {
      "inputs": [
        {
          "internalType": "address",
          "name": "",
          "type": "address"
        },
        {
          "internalType": "uint256",
          "name": "",
          "type": "uint256"
        },
        {
          "internalType": "bytes",
          "name": "",
          "type": "bytes"
        }
      ],
      "name": "send",
      "outputs": [],
      "stateMutability": "pure",
      "type": "function"
    },
    {
      "inputs": [
        {
          "internalType": "bytes4",
          "name": "interfaceId",
          "type": "bytes4"
        }
      ],
      "name": "supportsInterface",
      "outputs": [
        {
          "internalType": "bool",
          "name": "",
          "type": "bool"
        }
      ],
      "stateMutability": "view",
      "type": "function"
    },
    {
      "inputs": [],
      "name": "symbol",
      "outputs": [
        {
          "internalType": "string",
          "name": "",
          "type": "string"
        }
      ],
      "stateMutability": "view",
      "type": "function"
    },
    {
      "inputs": [
        {
          "internalType": "address",
          "name": "sender",
          "type": "address"
        },
        {
          "internalType": "address",
          "name": "",
          "type": "address"
        },
        {
          "internalType": "address",
          "name": "",
          "type": "address"
        },
        {
          "internalType": "uint256",
          "name": "amount",
          "type": "uint256"
        },
        {
          "internalType": "bytes",
          "name": "userData",
          "type": "bytes"
        },
        {
          "internalType": "bytes",
          "name": "operatorData",
          "type": "bytes"
        }
      ],
      "name": "tokensReceived",
      "outputs": [],
      "stateMutability": "nonpayable",
      "type": "function"
    },
    {
      "inputs": [],
      "name": "totalSupply",
      "outputs": [
        {
          "internalType": "uint256",
          "name": "",
          "type": "uint256"
        }
      ],
      "stateMutability": "view",
      "type": "function"
    },
    {
      "inputs": [
        {
          "internalType": "address",
          "name": "",
          "type": "address"
        },
        {
          "internalType": "uint256",
          "name": "",
          "type": "uint256"
        }
      ],
      "name": "transfer",
      "outputs": [
        {
          "internalType": "bool",
          "name": "",
          "type": "bool"
        }
      ],
      "stateMutability": "pure",
      "type": "function"
    },
    {
      "inputs": [
        {
          "internalType": "address",
          "name": "",
          "type": "address"
        },
        {
          "internalType": "address",
          "name": "",
          "type": "address"
        },
        {
          "internalType": "uint256",
          "name": "",
          "type": "uint256"
        }
      ],
      "name": "transferFrom",
      "outputs": [
        {
          "internalType": "bool",
          "name": "",
          "type": "bool"
        }
      ],
      "stateMutability": "pure",
      "type": "function"
    },
    {
      "inputs": [
        {
          "internalType": "address",
          "name": "account",
          "type": "address"
        }
      ],
      "name": "unlockedBalanceOf",
      "outputs": [
        {
          "internalType": "uint256",
          "name": "",
          "type": "uint256"
        }
      ],
      "stateMutability": "view",
      "type": "function"
    },
    {
      "inputs": [],
      "name": "unpause",
      "outputs": [],
      "stateMutability": "nonpayable",
      "type": "function"
    },
    {
      "inputs": [
        {
          "internalType": "contract IERC20Upgradeable",
          "name": "bridgedPolygonNori",
          "type": "address"
        }
      ],
      "name": "updateUnderlying",
      "outputs": [],
      "stateMutability": "nonpayable",
      "type": "function"
    },
    {
      "inputs": [
        {
          "internalType": "address",
          "name": "account",
          "type": "address"
        }
      ],
      "name": "vestedBalanceOf",
      "outputs": [
        {
          "internalType": "uint256",
          "name": "",
          "type": "uint256"
        }
      ],
      "stateMutability": "view",
      "type": "function"
    },
    {
      "inputs": [
        {
          "internalType": "address",
          "name": "recipient",
          "type": "address"
        },
        {
          "internalType": "uint256",
          "name": "amount",
          "type": "uint256"
        }
      ],
      "name": "withdrawTo",
      "outputs": [
        {
          "internalType": "bool",
          "name": "",
          "type": "bool"
        }
      ],
      "stateMutability": "nonpayable",
      "type": "function"
    }
  ],
  "bytecode": "0x6080806040523461001757616c7a90816200001d8239f35b600080fdfe60c080604052600436101561001357600080fd5b600060805260003560e01c90816223de2914614ad95750806301ffc9a7146149e757806306e485381461492357806306fdde031461485c578063095ea7b3146147b75780630e2d1a2a1461467657806318160ddd14614638578063205c2878146144df57806323b872dd14614440578063248a9ca3146143f1578063271c6e1a14613d095780632f2ff15d14613bd65780632f4f21e2146135c2578063313ce5671461358657806336568abe146134a25780633f4ba83a146133a857806342f822601461309f578063458c738e14612f7c578063521189a914612f21578063556f0dc714612ee55780635c975abb14612ea257806362ad1b8314612dc8578063633d9be014612d6d57806366cf8bce146121f357806370a08231146121905780638456cb59146120ed57806384955c88146120aa5780639010d07c1461203757806391d1485414611fbb578063959b8c3f146102fa57806395d89b4114611e965780639952d6e4146117165780639bd9bbc61461165f5780639e3f3cac146115e55780639f916c21146113e0578063a217fddf146113a4578063a9059cbb1461130e578063bf31dbf414611207578063c4d66de814610582578063ca15c87314610536578063d547741f146104cf578063d95b6371146103e0578063dd62ed3e14610361578063e63ab1e914610303578063fad8b32a146102fa578063fc673c4f146102875763fe9d930314610229575b600080fd5b346102815760407ffffffffffffffffffffffffffffffffffffffffffffffffffffffffffffffffc3601126102815760243567ffffffffffffffff811161028157610278903690600401614eea565b50610224616163565b60805180fd5b50346102815760807ffffffffffffffffffffffffffffffffffffffffffffffffffffffffffffffffc360112610281576102bf614bf8565b5067ffffffffffffffff604435818111610281576102e1903690600401614eea565b5060643590811161028157610278903690600401614eea565b50610224614fe0565b3461028157608051807ffffffffffffffffffffffffffffffffffffffffffffffffffffffffffffffffc36011261035e5760206040517f65d7a28e3265b37a6474929f336521b332c1681b933f6cb9f3376673440d862a8152f35b80fd5b346102815760407ffffffffffffffffffffffffffffffffffffffffffffffffffffffffffffffffc36011261028157610398614bf8565b6103a0614c1b565b9073ffffffffffffffffffffffffffffffffffffffff80911660805152603b60205260406080512091166000526020526020604060002054604051908152f35b346102815760407ffffffffffffffffffffffffffffffffffffffffffffffffffffffffffffffffc36011261028157610417614bf8565b73ffffffffffffffffffffffffffffffffffffffff80610435614c1b565b16911690808214908115610481575b8115610458575b6020826040519015158152f35b905060805152603960205260406080512090600052602052602060ff604060002054168261044b565b9050816080515260386020526080518160ff60408320541691826104a8575b505090610444565b90915052603a6020526040608051208260005260205260ff604060002054161581846104a0565b346102815760407ffffffffffffffffffffffffffffffffffffffffffffffffffffffffffffffffc3601126102815761052e60043561050c614c1b565b90806080515260c9602052610529600160406080512001546154bc565b616a31565b608051604051f35b346102815760207ffffffffffffffffffffffffffffffffffffffffffffffffffffffffffffffffc360112610281576004356080515260fb602052602060406080512054604051908152f35b346102815760207ffffffffffffffffffffffffffffffffffffffffffffffffffffffffffffffffc3601126102815760043573ffffffffffffffffffffffffffffffffffffffff81168103610281576105d96160ee565b90816111d5575b604051906105ed82614daa565b60018252602036818401378151156111a45733602083015261066c60ff6080515460081c1661061b81615fd8565b61062481615fd8565b61062d81615fd8565b61063681615fd8565b61063f81615fd8565b7fffffffffffffffffffffffffffffffffffffffffffffffffffffffffffffff0060655416606555615fd8565b608051805260c9602052608051604081209033905260205260805160ff6040822054161561112f575b50608051805260fb6020526106af33604060805120616904565b506106bf60ff6065541615615864565b7f65d7a28e3265b37a6474929f336521b332c1681b933f6cb9f3376673440d862a6080515260c9602052608051604081209033905260205260805160ff60408220541615611079575b507f65d7a28e3265b37a6474929f336521b332c1681b933f6cb9f3376673440d862a6080515260fb60205261074233604060805120616904565b506040519261075084614daa565b600b84527f4c6f636b6564204e4f524900000000000000000000000000000000000000000060208501526040519361078785614daa565b600585527f6c4e4f524900000000000000000000000000000000000000000000000000000060208601526107c360ff6080515460081c16615fd8565b80519067ffffffffffffffff8211610dc25781906107e26035546155f8565b601f8111611029575b5060805190602091601f8411600114610f45575060805192610f3a575b50507fffffffffffffffffffffffffffffffffffffffffffffffffffffffffffffffff8260011b9260031b1c1916176035555b835167ffffffffffffffff8111610dc2576108576036546155f8565b601f8111610edf575b50608051602090601f8311600114610dfe5750819293949560805192610df3575b50507fffffffffffffffffffffffffffffffffffffffffffffffffffffffffffffffff8260011b9260031b1c1916176036555b8251680100000000000000008111610dc25760375481603755808210610d8c575b5060808051603790525190817f42a7b7dd785cd69714a189dffb3fd7d7174edc9ece837694ce50f7078f7c31ae602087015b838310610d3b57505050505b8351811015610983578073ffffffffffffffffffffffffffffffffffffffff61093f61097e9387615e68565b511660805152603860205260406080512060017fffffffffffffffffffffffffffffffffffffffffffffffffffffffffffffff00825416179055615d94565b610913565b5090731820a4b7618bde71dce8cdc73aab6c95905fad24803b1561028157604051917f29965a1d00000000000000000000000000000000000000000000000000000000928381523060048201527fac7fbab5f54a3ca8194167523c6753bfeb96a445279294b6125b68cce217705460248201523060448201526080518160648183875af18015610d0a57610d2c575b50813b15610281576040518381523060048201527faea199e31a596269b42cdafd93407f14436db6e4cad65417994c2eb37381e05a60248201523060448201526080518160648183875af18015610d0a57610d17575b5073ffffffffffffffffffffffffffffffffffffffff61016091167fffffffffffffffffffffffff0000000000000000000000000000000000000000825416179055803b15610281576040519182523060048301527fb281fc8c12954d22544db45de3159a39272895b169a852b314f9cc762e44c53b60248301523060448301528160648160805180945af18015610d0a57610cf5575b50610b0f60ff6065541615615864565b3360005261015f60205260ff600f6040600020015416610c71573360009081527f38e71761b954262a9560bd5d5724383b6db3c254761096eb4ce389ed02050c6060205260409020547fa52f07bb8dc8df886598eb50edeaba2b8e45715237ed244354b60ea04d0390b89060ff1615610bff575b60005260fb602052610b99336040600020616904565b50610ba657608051604051f35b6080517fffffffffffffffffffffffffffffffffffffffffffffffffffffffffffff00ff81541690557f7f26b83ff96e1f2b6a682f133852f6798a09c465da95921460cefb3847402498602060405160018152a161052e565b8060005260c9602052604060002033600052602052604060002060017fffffffffffffffffffffffffffffffffffffffffffffffffffffffffffffff008254161790553333827f2f8788117e7eff1d82e926ec794901d17c78024a50270940304540a733656f0d6000604051a4610b83565b60846040517f08c379a000000000000000000000000000000000000000000000000000000000815260206004820152603360248201527f6c4e4f52493a2043616e6e6f742061737369676e20726f6c6520746f2061206760448201527f72616e7420686f6c6465722061646472657373000000000000000000000000006064820152fd5b610cfe90614d2e565b6080518015610aff5780fd5b6040513d608051823e3d90fd5b610d2090614d2e565b6080518015610a685780fd5b610d3590614d2e565b84610a12565b600160208273ffffffffffffffffffffffffffffffffffffffff839451167fffffffffffffffffffffffff000000000000000000000000000000000000000086541617855501920192019190610907565b610dbc90827f42a7b7dd785cd69714a189dffb3fd7d7174edc9ece837694ce50f7078f7c31ae918201910161614c565b846108d5565b7f4e487b71000000000000000000000000000000000000000000000000000000006080515260416004526024608051fd5b015190508580610881565b603690527f4a11f94e20a93c79f6ec743a1954ec4fc2c08429ae2122118bf234b2185c81b8906080515b7fffffffffffffffffffffffffffffffffffffffffffffffffffffffffffffffe084168110610ec75750600193949596837fffffffffffffffffffffffffffffffffffffffffffffffffffffffffffffffe0811610610e90575b505050811b016036556108b4565b01517fffffffffffffffffffffffffffffffffffffffffffffffffffffffffffffffff60f88460031b161c19169055858080610e82565b9091602060018192858b015181550193019101610e28565b610f2a906036608051527f4a11f94e20a93c79f6ec743a1954ec4fc2c08429ae2122118bf234b2185c81b8601f840160051c81019160208510610f30575b601f0160051c019061614c565b85610860565b9091508190610f1d565b015190508680610808565b6035919450527fcfa4bec1d3298408bb5afcfcd9c430549c5b31f8aa5c5848151c0a55f473c34d90608051935b7fffffffffffffffffffffffffffffffffffffffffffffffffffffffffffffffe08416851061100e5760019450837fffffffffffffffffffffffffffffffffffffffffffffffffffffffffffffffe0811610610fd7575b505050811b0160355561083b565b01517fffffffffffffffffffffffffffffffffffffffffffffffffffffffffffffffff60f88460031b161c19169055868080610fc9565b81810151835560209485019460019093019290910190610f72565b611073906035608051527fcfa4bec1d3298408bb5afcfcd9c430549c5b31f8aa5c5848151c0a55f473c34d601f850160051c81019160208610610f3057601f0160051c019061614c565b876107eb565b7f65d7a28e3265b37a6474929f336521b332c1681b933f6cb9f3376673440d862a905260c960205260805160408120903390526020526080516040812060017fffffffffffffffffffffffffffffffffffffffffffffffffffffffffffffff0082541617905533907f65d7a28e3265b37a6474929f336521b332c1681b933f6cb9f3376673440d862a7f2f8788117e7eff1d82e926ec794901d17c78024a50270940304540a733656f0d3392604051a483610708565b805260c960205260805160408120903390526020526080516040812060017fffffffffffffffffffffffffffffffffffffffffffffffffffffffffffffff00825416179055339033907f2f8788117e7eff1d82e926ec794901d17c78024a50270940304540a733656f0d81604051a483610695565b7f4e487b71000000000000000000000000000000000000000000000000000000006080515260326004526024608051fd5b6080516101007fffffffffffffffffffffffffffffffffffffffffffffffffffffffffffff00ff8254161790556105e0565b346102815760207ffffffffffffffffffffffffffffffffffffffffffffffffffffffffffffffffc36011261028157610200611249611244614bf8565b615e7c565b61130c60405180928051825273ffffffffffffffffffffffffffffffffffffffff602082015116602083015260408101516040830152606081015160608301526080810151608083015260a081015160a083015260c081015160c083015260e081015160e0830152610100808201519083015261012080820151908301526101408082015190830152610160808201519083015261018080820151908301526101a080820151908301526101c080820151908301526101e0809101511515910152565bf35b346102815760407ffffffffffffffffffffffffffffffffffffffffffffffffffffffffffffffffc36011261028157611345614bf8565b5060646040517f08c379a000000000000000000000000000000000000000000000000000000000815260206004820152601860248201527f6c4e4f52493a207472616e736665722064697361626c656400000000000000006044820152fd5b3461028157608051807ffffffffffffffffffffffffffffffffffffffffffffffffffffffffffffffffc36011261035e57602090604051908152f35b34610281576020807ffffffffffffffffffffffffffffffffffffffffffffffffffffffffffffffffc3601126102815760043567ffffffffffffffff811161028157611430903690600401615077565b919061143b83614e23565b926114496040519485614de2565b8084527fffffffffffffffffffffffffffffffffffffffffffffffffffffffffffffffe061147682614e23565b01836080515b8281106115cf575050506080515b81811061159557838560405190828201838352815180915283604084019201936080515b8281106114bb5784840385f35b90919282610200826115866001948a518051825273ffffffffffffffffffffffffffffffffffffffff602082015116602083015260408101516040830152606081015160608301526080810151608083015260a081015160a083015260c081015160c083015260e081015160e0830152610100808201519083015261012080820151908301526101408082015190830152610160808201519083015261018080820151908301526101a080820151908301526101c080820151908301526101e0809101511515910152565b019601910194929190946114ae565b806115af6112446115aa6115ca948688615dc1565b615dd1565b6115b98288615e68565b526115c48187615e68565b50615d94565b61148a565b6115d7615df2565b82828901015201849061147c565b346102815760207ffffffffffffffffffffffffffffffffffffffffffffffffffffffffffffffffc3601126102815773ffffffffffffffffffffffffffffffffffffffff611631614bf8565b166080515261015f6020526020611657604060805120600c600e82015491015490615988565b604051908152f35b346102815760607ffffffffffffffffffffffffffffffffffffffffffffffffffffffffffffffffc36011261028157611696614bf8565b5060443567ffffffffffffffff8111610281576116b7903690600401614eea565b5060646040517f08c379a000000000000000000000000000000000000000000000000000000000815260206004820152601460248201527f6c4e4f52493a2073656e642064697361626c65640000000000000000000000006044820152fd5b346102815760807ffffffffffffffffffffffffffffffffffffffffffffffffffffffffffffffffc3601126102815767ffffffffffffffff60043581811161028157611766903690600401615077565b906024358381116102815761177f903690600401615077565b60443585811161028157611797903690600401615077565b919095606435908111610281576117b2903690600401615077565b90946117c360ff6065541615615864565b6117cb6150a8565b828703611e1257838303611d8e57818403611d0a576080515b8781106117f357608051604051f35b6118016115aa828a85615dc1565b906118106115aa82878a615dc1565b9161181c82888d615dc1565b359061182983878c615dc1565b3590821592838094611d01575b8015611cf0575b15611c6c5773ffffffffffffffffffffffffffffffffffffffff82166080515261015f6020526040608051209360ff600f8601541615611c0e5761188083616227565b15611b8a5780611b81575b15611b7b575042915b428310611af7576118a583856166d4565b90600c8501549182811015611a99576118be9083615988565b8115611a7f578111611a215761198f9660209260116118e293978894858094615988565b600c820155876010820155015561191c6040516118fe81614d8e565b60805181526040519061191082614d8e565b60805182528487615993565b73ffffffffffffffffffffffffffffffffffffffff6101605416906040518099819482937fa9059cbb000000000000000000000000000000000000000000000000000000008452600484016020909392919373ffffffffffffffffffffffffffffffffffffffff60408201951681520152565b0391608051905af1908115610d0a576119ed9573ffffffffffffffffffffffffffffffffffffffff926119f2575b5016907f0bbe3f9ae306d75ae6df08cd4a79ac5c6eae93ffae7d7e52f2859bf27592519d608051604051a4615d94565b6117e4565b611a139060203d602011611a1a575b611a0b8183614de2565b8101906158c9565b508e6119bd565b503d611a01565b60646040517f08c379a000000000000000000000000000000000000000000000000000000000815260206004820152601e60248201527f6c4e4f52493a20746f6f2066657720756e76657374656420746f6b656e7300006044820152fd5b6118e2915096602092601161198f99978894858094615988565b60646040517f08c379a000000000000000000000000000000000000000000000000000000000815260206004820152601c60248201527f6c4e4f52493a20746f6b656e7320616c726561647920766573746564000000006044820152fd5b60846040517f08c379a000000000000000000000000000000000000000000000000000000000815260206004820152602760248201527f6c4e4f52493a205265766f636174696f6e2063616e6e6f7420626520696e207460448201527f68652070617374000000000000000000000000000000000000000000000000006064820152fd5b91611894565b5082151561188b565b60846040517f08c379a000000000000000000000000000000000000000000000000000000000815260206004820152602960248201527f6c4e4f52493a206e6f2076657374696e67207363686564756c6520666f72207460448201527f686973206772616e7400000000000000000000000000000000000000000000006064820152fd5b60646040517f08c379a000000000000000000000000000000000000000000000000000000000815260206004820152601660248201527f6c4e4f52493a206e6f206772616e7420657869737473000000000000000000006044820152fd5b60846040517f08c379a000000000000000000000000000000000000000000000000000000000815260206004820152603b60248201527f6c4e4f52493a204d75737420737065636966792061207265766f636174696f6e60448201527f2074696d65206f7220616e20616d6f756e74206e6f7420626f746800000000006064820152fd5b508315801561183d5750821561183d565b50821515611836565b60846040517f08c379a000000000000000000000000000000000000000000000000000000000815260206004820152602a60248201527f6c4e4f52493a20617454696d657320616e6420616d6f756e7473206c656e677460448201527f68206d69736d61746368000000000000000000000000000000000000000000006064820152fd5b60846040517f08c379a000000000000000000000000000000000000000000000000000000000815260206004820152602d60248201527f6c4e4f52493a20746f4163636f756e747320616e6420617454696d6573206c6560448201527f6e677468206d69736d61746368000000000000000000000000000000000000006064820152fd5b60846040517f08c379a000000000000000000000000000000000000000000000000000000000815260206004820152603260248201527f6c4e4f52493a2066726f6d4163636f756e747320616e6420746f4163636f756e60448201527f7473206c656e677468206d69736d6174636800000000000000000000000000006064820152fd5b3461028157608051807ffffffffffffffffffffffffffffffffffffffffffffffffffffffffffffffffc36011261035e5760405190603654611ed7816155f8565b80845290600190818116908115611f765750600114611f19575b611f1584611f0181860382614de2565b604051918291602083526020830190614ceb565b0390f35b60808051603690525192507f4a11f94e20a93c79f6ec743a1954ec4fc2c08429ae2122118bf234b2185c81b85b828410611f5e575050508101602001611f0182611ef1565b80546020858701810191909152909301928101611f46565b7fffffffffffffffffffffffffffffffffffffffffffffffffffffffffffffff001660208087019190915292151560051b85019092019250611f019150839050611ef1565b346102815760407ffffffffffffffffffffffffffffffffffffffffffffffffffffffffffffffffc36011261028157611ff2614c1b565b6004356080515260c960205260805173ffffffffffffffffffffffffffffffffffffffff6040822092169052602052602060ff60406080512054166040519015158152f35b346102815760407ffffffffffffffffffffffffffffffffffffffffffffffffffffffffffffffffc360112610281576004356080515260fb602052602073ffffffffffffffffffffffffffffffffffffffff61209a60243560406080512061584c565b9190546040519260031b1c168152f35b346102815760207ffffffffffffffffffffffffffffffffffffffffffffffffffffffffffffffffc3601126102815760206116576120e6614bf8565b4290616265565b3461028157608051807ffffffffffffffffffffffffffffffffffffffffffffffffffffffffffffffffc36011261035e57612126615346565b60017fffffffffffffffffffffffffffffffffffffffffffffffffffffffffffffff0060655461215960ff821615615864565b16176065557f62e78cea01bee320cd4e420270b5ea74000d11b0c9f74754ebdbfc544b05a2586020604051338152a1608051604051f35b346102815760207ffffffffffffffffffffffffffffffffffffffffffffffffffffffffffffffffc3601126102815760206116576121cc614bf8565b73ffffffffffffffffffffffffffffffffffffffff16600052603360205260406000205490565b346102815760a07ffffffffffffffffffffffffffffffffffffffffffffffffffffffffffffffffc3601126102815767ffffffffffffffff60043581811161028157612243903690600401614e3b565b60243582811161028157366023820112156102815780600401359061226782614e23565b916122756040519384614de2565b8083526024602084019160051b8301019136831161028157602401905b828210612d5d57505050604435838111610281576122b4903690600401614f5f565b92606435818111610281576122cd903690600401614f5f565b6084359182116102815736602383011215610281578160040135936122f185614e23565b926122ff6040519485614de2565b85845260208401906024829760051b8201019036821161028157602401915b818310612d44575050508051845103612c9a578351865103612bf0578551825103612b46578151835103612a9c576080515b81518110156129eb5773ffffffffffffffffffffffffffffffffffffffff6123788284615e68565b5116906123858187615e68565b5191612391828a615e68565b5161239c8387615e68565b51906123a88489615e68565b5115159033156129675783156128e4576040517faabbb8ca0000000000000000000000000000000000000000000000000000000081523360048201527f29ddb589b1fb5fc7cf394961c1adf5f8c6454761adf795e67fe149f658abe8956024820152602081604481731820a4b7618bde71dce8cdc73aab6c95905fad245afa8015610d0a5760805190612897575b73ffffffffffffffffffffffffffffffffffffffff9150168061282e575b507fa52f07bb8dc8df886598eb50edeaba2b8e45715237ed244354b60ea04d0390b86080515260c960205260805160408120903390526020526124bd61249a4233616265565b871115336080515260336020526040608051205488111581612826575b506161c2565b6124cc60ff6065541615615864565b33608051526033602052604060805120548681106127a25784903360805152603360205287608051910360408220555260406080512061250d87825461564b565b905583604051877f06b541ddaa720db2b10a4d0cdac39b8d360425fc073085fac19bc8261467798733928061254589883396846158e1565b0390a4836040518781527fddf252ad1be2c89b69c2b068fc378daa952ba7f163c4a11628f55a4df523b3ef60203392a36040517faabbb8ca0000000000000000000000000000000000000000000000000000000081528460048201527fb281fc8c12954d22544db45de3159a39272895b169a852b314f9cc762e44c53b6024820152602081604481731820a4b7618bde71dce8cdc73aab6c95905fad245afa8015610d0a5760805190612755575b73ffffffffffffffffffffffffffffffffffffffff16929050821561268a5750813b156102815761265995604051968794859384937e23de2900000000000000000000000000000000000000000000000000000000855260805198333360048801615930565b0391608051905af1918215610d0a576126769261267b5750615d94565b612350565b61268490614d2e565b886115c4565b939495505050506126a0575b5061267690615d94565b3b6126ab5787612696565b60a46040517f08c379a000000000000000000000000000000000000000000000000000000000815260206004820152604d60248201527f4552433737373a20746f6b656e20726563697069656e7420636f6e747261637460448201527f20686173206e6f20696d706c656d656e74657220666f7220455243373737546f60648201527f6b656e73526563697069656e74000000000000000000000000000000000000006084820152fd5b506020813d60201161279a575b8161276f60209383614de2565b810103126102815761279573ffffffffffffffffffffffffffffffffffffffff9161590f565b6125f3565b3d9150612762565b60846040517f08c379a000000000000000000000000000000000000000000000000000000000815260206004820152602760248201527f4552433737373a207472616e7366657220616d6f756e7420657863656564732060448201527f62616c616e6365000000000000000000000000000000000000000000000000006064820152fd5b90508e6124b7565b803b15610281578660405180927f75ab978200000000000000000000000000000000000000000000000000000000825281806128758988608051978d333360048801615930565b0391608051905af18015610d0a57156124545761289190614d2e565b8c612454565b506020813d6020116128dc575b816128b160209383614de2565b81010312610281576128d773ffffffffffffffffffffffffffffffffffffffff9161590f565b612436565b3d91506128a4565b60846040517f08c379a0000000000000000000000000000000000000000000000000000000008152602060048201526024808201527f4552433737373a207472616e7366657220746f20746865207a65726f2061646460448201527f72657373000000000000000000000000000000000000000000000000000000006064820152fd5b60846040517f08c379a000000000000000000000000000000000000000000000000000000000815260206004820152602660248201527f4552433737373a207472616e736665722066726f6d20746865207a65726f206160448201527f64647265737300000000000000000000000000000000000000000000000000006064820152fd5b5092602091612a2b87612a1d612a3994612a106040519960a08b5260a08b0190614c6c565b90898203888b0152614eb6565b9087820360408901526168af565b9085820360608701526168af565b91838303608085015251918281520192906080515b818110612a8457337fd5865ae34f92a2d6a803fa13140b8165046f54e61e68560b26950c62a668c6b685870386a2608051604051f35b82511515855260209485019490920191600101612a4e565b60a46040517f08c379a000000000000000000000000000000000000000000000000000000000815260206004820152605660248201527f4552433737375072657365745061757361626c655065726d697373696f6e656460448201527f3a206f70657261746f724461746120616e64207265717569726552656365707460648201527f696f6e41636b206c656e677468206d69736d61746368000000000000000000006084820152fd5b60a46040517f08c379a000000000000000000000000000000000000000000000000000000000815260206004820152604b60248201527f4552433737375072657365745061757361626c655065726d697373696f6e656460448201527f3a20757365724461746120616e64206f70657261746f7244617461206c656e6760648201527f7468206d69736d617463680000000000000000000000000000000000000000006084820152fd5b60a46040517f08c379a000000000000000000000000000000000000000000000000000000000815260206004820152604660248201527f4552433737375072657365745061757361626c655065726d697373696f6e656460448201527f3a20616d6f756e747320616e64207573657244617461206c656e677468206d6960648201527f736d6174636800000000000000000000000000000000000000000000000000006084820152fd5b60a46040517f08c379a000000000000000000000000000000000000000000000000000000000815260206004820152604660248201527f4552433737375072657365745061757361626c655065726d697373696f6e656460448201527f3a20726563697069656e7420616e6420616d6f756e74206c656e677468206d6960648201527f736d6174636800000000000000000000000000000000000000000000000000006084820152fd5b823580151581036102815781526020928301920161231e565b8135815260209182019101612292565b3461028157608051807ffffffffffffffffffffffffffffffffffffffffffffffffffffffffffffffffc36011261035e5760206040517fa52f07bb8dc8df886598eb50edeaba2b8e45715237ed244354b60ea04d0390b88152f35b346102815760a07ffffffffffffffffffffffffffffffffffffffffffffffffffffffffffffffffc36011261028157612dff614bf8565b50612e08614c1b565b5067ffffffffffffffff60643581811161028157612e2a903690600401614eea565b5060843590811161028157612e43903690600401614eea565b5060646040517f08c379a000000000000000000000000000000000000000000000000000000000815260206004820152601c60248201527f6c4e4f52493a206f70657261746f7253656e642064697361626c6564000000006044820152fd5b3461028157608051807ffffffffffffffffffffffffffffffffffffffffffffffffffffffffffffffffc36011261035e57602060ff606554166040519015158152f35b3461028157608051807ffffffffffffffffffffffffffffffffffffffffffffffffffffffffffffffffc36011261035e57602060405160018152f35b3461028157608051807ffffffffffffffffffffffffffffffffffffffffffffffffffffffffffffffffc36011261035e5760206040517fb281fc8c12954d22544db45de3159a39272895b169a852b314f9cc762e44c53b8152f35b346102815760207ffffffffffffffffffffffffffffffffffffffffffffffffffffffffffffffffc3601126102815760043567ffffffffffffffff811161028157612fcb903690600401614e3b565b8051907fffffffffffffffffffffffffffffffffffffffffffffffffffffffffffffffe0613011612ffb84614e23565b936130096040519586614de2565b808552614e23565b013660208401376080515b8151811015613089578061307473ffffffffffffffffffffffffffffffffffffffff61304b6130849486615e68565b511673ffffffffffffffffffffffffffffffffffffffff16600052603360205260406000205490565b61307e8286615e68565b52615d94565b61301c565b60405160208082528190611f1590820186614eb6565b34610281576020807ffffffffffffffffffffffffffffffffffffffffffffffffffffffffffffffffc3601126102815760043573ffffffffffffffffffffffffffffffffffffffff918282168092036102815761310160ff6065541615615864565b608051805260c981526080516040812090339052815260ff60406080512054161561318a577fffffffffffffffffffffffff0000000000000000000000000000000000000000907f1fc9b2467a9c193cab5b6f03eefe74f1e3140becc7ff93728101335e77fef6796040610160958587549483519286168352820152a116179055608051604051f35b613193336156c6565b906080516040516131a381614dc6565b604281528281019160603684378151156111a4576030835381516001908110156111a457607860218401536041905b8082116133085750506132ab5761325d9361326c926048926040519687937f416363657373436f6e74726f6c3a206163636f756e742000000000000000000088860152613228815180928a603789019101614cb6565b8401917f206973206d697373696e6720726f6c6520000000000000000000000000000000603784015251809386840190614cb6565b01036028810185520183614de2565b6132a76040519283927f08c379a000000000000000000000000000000000000000000000000000000000845260048401526024830190614ceb565b0390fd5b606483604051907f08c379a000000000000000000000000000000000000000000000000000000000825280600483015260248201527f537472696e67733a20686578206c656e67746820696e73756666696369656e746044820152fd5b9091600f811660108110156111a4577f3031323334353637383961626364656600000000000000000000000000000000901a6133448486615686565b5360041c918015613377577fffffffffffffffffffffffffffffffffffffffffffffffffffffffffffffffff01906131d2565b7f4e487b71000000000000000000000000000000000000000000000000000000006080515260116004526024608051fd5b3461028157608051807ffffffffffffffffffffffffffffffffffffffffffffffffffffffffffffffffc36011261035e576133e1615346565b60655460ff811615613444577fffffffffffffffffffffffffffffffffffffffffffffffffffffffffffffff00166065557f5db9ee0a495bf2e6ff9c91a7834c1ba4fdd244a5e8aa4e537bd38aeae4b073aa6020604051338152a1608051604051f35b60646040517f08c379a000000000000000000000000000000000000000000000000000000000815260206004820152601460248201527f5061757361626c653a206e6f74207061757365640000000000000000000000006044820152fd5b346102815760407ffffffffffffffffffffffffffffffffffffffffffffffffffffffffffffffffc360112610281576134d9614c1b565b3373ffffffffffffffffffffffffffffffffffffffff8216036135025761052e90600435616a31565b60846040517f08c379a000000000000000000000000000000000000000000000000000000000815260206004820152602f60248201527f416363657373436f6e74726f6c3a2063616e206f6e6c792072656e6f756e636560448201527f20726f6c657320666f722073656c6600000000000000000000000000000000006064820152fd5b3461028157608051807ffffffffffffffffffffffffffffffffffffffffffffffffffffffffffffffffc36011261035e57602060405160128152f35b34610281577ffffffffffffffffffffffffffffffffffffffffffffffffffffffffffffffffc604081360112610281576135fa614bf8565b60249182359061360f60ff6065541615615864565b73ffffffffffffffffffffffffffffffffffffffff80841693846080515261015f9260209684885260ff600f60406080512001541615613b5357606488856101605416604051928380927f23b872dd00000000000000000000000000000000000000000000000000000000825233600483015230878301528b6044830152608051905af18015610d0a57613b36575b50604051936136ac85614d8e565b6080518552604051956136be87614d8e565b60805187528815613ada576080518052808a52604060805120906040517f70a0823100000000000000000000000000000000000000000000000000000000815260805160048201528b818681305afa908115610d0a578c91613ab1575b505060805180528a52608051604081209060ff600f830154169182613aa6575b505015613a9b5761374c42826166d4565b905b60ff600f82015416613a47575b505060805180526033895261377560ff6065541615615864565b6137818760345461564b565b60345587608051526033895260406080512061379e88825461564b565b90556040517faabbb8ca0000000000000000000000000000000000000000000000000000000081528860048201527fb281fc8c12954d22544db45de3159a39272895b169a852b314f9cc762e44c53b838201528981604481731820a4b7618bde71dce8cdc73aab6c95905fad245afa908115610d0a5760805191613a12575b50169283156139305750823b15610281576040519283917e23de290000000000000000000000000000000000000000000000000000000083523360048401526080519083015287604483015286606483015260c0608483015261388360c4830186614ceb565b928284030160a4830152818061389c6080519589614ceb565b0391608051905af18015610d0a5785937f2fe5be0146f74c5bce36c0b80911af6c7d86ff27e89d5cfa61fc681327954e5d926138e892613921575b505b604051918291339588846158e1565b0390a36040519081527fddf252ad1be2c89b69c2b068fc378daa952ba7f163c4a11628f55a4df523b3ef8360805192a360405160018152f35b61392a90614d2e565b886138d7565b915091509291923b6139695750907f2fe5be0146f74c5bce36c0b80911af6c7d86ff27e89d5cfa61fc681327954e5d6138e885936138d9565b85604d60a492604051927f08c379a000000000000000000000000000000000000000000000000000000000845260048401528201527f4552433737373a20746f6b656e20726563697069656e7420636f6e747261637460448201527f20686173206e6f20696d706c656d656e74657220666f7220455243373737546f60648201527f6b656e73526563697069656e74000000000000000000000000000000000000006084820152fd5b90508981813d8311613a40575b613a298183614de2565b8101031261028157613a3a9061590f565b8a61381d565b503d613a1f565b600d613a8392613a5a42600685016166d4565b608051919080821015613a935750905b50600c83015480821015613a8b5750915b015490615988565b50898061375b565b905091613a7b565b905090613a6a565b600c8101549061374e565b54151591508c61373b565b813d8311613ad3575b613ac48183614de2565b81010312610281578a8c61371b565b503d613aba565b6064838b604051917f08c379a00000000000000000000000000000000000000000000000000000000083528160048401528201527f4552433737373a206d696e7420746f20746865207a65726f20616464726573736044820152fd5b613b4c90893d8b11611a1a57611a0b8183614de2565b508861369e565b876025608492604051927f08c379a000000000000000000000000000000000000000000000000000000000845260048401528201527f6c4e4f52493a2043616e6e6f74206465706f73697420776974686f757420612060448201527f6772616e740000000000000000000000000000000000000000000000000000006064820152fd5b346102815760407ffffffffffffffffffffffffffffffffffffffffffffffffffffffffffffffffc36011261028157613c8f60043560fb613c15614c1b565b91806080515260209060c98252613c34600160406080512001546154bc565b613c3e84826169c7565b806080515260c982526080519373ffffffffffffffffffffffffffffffffffffffff60408620911680955282528060805160ff60408220541615613c98575b50506080515252604060805120616904565b50608051604051f35b5260c982526080518460408220915282526080516040812060017fffffffffffffffffffffffffffffffffffffffffffffffffffffffffffffff0082541617905584827f2f8788117e7eff1d82e926ec794901d17c78024a50270940304540a733656f0d3393604051a48086613c7d565b3461028157610160807ffffffffffffffffffffffffffffffffffffffffffffffffffffffffffffffffc36011261028157613d42614c1b565b90613d5260ff6065541615615864565b613d5a6150a8565b73ffffffffffffffffffffffffffffffffffffffff6040519216602083015260443560408301526064356060830152608435608083015260a43560a083015260c43560c083015260e43560e08301526101043561010083015261012435610120830152610144356101408301526101408252818181011067ffffffffffffffff8284011117610dc25780820160405261014082805181010312610281578082016102a083011067ffffffffffffffff6102a084011117610dc2576102a0820160405273ffffffffffffffffffffffffffffffffffffffff613e3d6020840161590f565b8083850152604084015161018085015260608401516101a085015260808401516101c085015260a08401516101e085015260c084015161020085015260e0840151610220850152610100840151610240850152610120840151610260850152610140840151610280850152161561436d5773ffffffffffffffffffffffffffffffffffffffff81830151167fa52f07bb8dc8df886598eb50edeaba2b8e45715237ed244354b60ea04d0390b86080515260c96020526080519060408220915260205260ff60406080512054166142e9576101808201516101c08301511115614265576101c08201514210156141e15773ffffffffffffffffffffffffffffffffffffffff81830151166080515261015f60205260ff600f6040608051200154166141835773ffffffffffffffffffffffffffffffffffffffff81830151166080515261015f60205260406080512090600435600c830155600435600e830155600f820160017fffffffffffffffffffffffffffffffffffffffffffffffffffffffffffffff008254161790556101a08301516101808401511061408f575b61403c82600673ffffffffffffffffffffffffffffffffffffffff9401906004356008820155610180860151825560076101c087015191015561402a6101e0860151610260870151908361638f565b6102008501516102808601519161638f565b8201511690610180810151916101c06101a083015192015160405192835260208301527f17161516b6ce34594617177a800b150a86ddee02c06993a73ef000a02367d119604060043593a4608051604051f35b6102208301516102608401511180159061416f575b156141115761403c73ffffffffffffffffffffffffffffffffffffffff92600435600282015561018085015181556101a085015160018201556140f36101e0860151610220870151908361638f565b614109610200860151610240870151908361638f565b925050613fdb565b60646040517f08c379a000000000000000000000000000000000000000000000000000000000815260206004820152602060248201527f6c4e4f52493a20756e6c6f636b20636c696666203e207665737420636c6966666044820152fd5b5061024083015161028084015111156140a4565b60646040517f08c379a000000000000000000000000000000000000000000000000000000000815260206004820152601b60248201527f6c4e4f52493a204772616e7420616c72656164792065786973747300000000006044820152fd5b60846040517f08c379a000000000000000000000000000000000000000000000000000000000815260206004820152602a60248201527f6c4e4f52493a20756e6c6f636b456e6454696d652063616e6e6f74206265206960448201527f6e207468652070617374000000000000000000000000000000000000000000006064820152fd5b60846040517f08c379a000000000000000000000000000000000000000000000000000000000815260206004820152602f60248201527f6c4e4f52493a20756e6c6f636b456e6454696d652063616e6e6f74206265206260448201527f65666f726520737461727454696d6500000000000000000000000000000000006064820152fd5b60846040517f08c379a000000000000000000000000000000000000000000000000000000000815260206004820152602660248201527f6c4e4f52493a20526563697069656e742063616e6e6f74206265206772616e7460448201527f2061646d696e00000000000000000000000000000000000000000000000000006064820152fd5b60846040517f08c379a000000000000000000000000000000000000000000000000000000000815260206004820152602760248201527f6c4e4f52493a20526563697069656e742063616e6e6f74206265207a65726f2060448201527f61646472657373000000000000000000000000000000000000000000000000006064820152fd5b346102815760207ffffffffffffffffffffffffffffffffffffffffffffffffffffffffffffffffc360112610281576004356080515260c9602052602060016040608051200154604051908152f35b346102815760607ffffffffffffffffffffffffffffffffffffffffffffffffffffffffffffffffc36011261028157614477614bf8565b50614480614c1b565b5060646040517f08c379a000000000000000000000000000000000000000000000000000000000815260206004820152601c60248201527f6c4e4f52493a207472616e7366657246726f6d2064697361626c6564000000006044820152fd5b346102815760407ffffffffffffffffffffffffffffffffffffffffffffffffffffffffffffffffc36011261028157614516614bf8565b60243561452860ff6065541615615864565b336080515260209161015f8352600d60406080512061456a60405161454c81614d8e565b60805181526040519061455e82614d8e565b60805182528633615993565b0161457683825461564b565b9055610160546040517fa9059cbb00000000000000000000000000000000000000000000000000000000815273ffffffffffffffffffffffffffffffffffffffff83811660048301526024820185905260805190939286918391604491839188165af18015610d0a5761461b575b5060405192835216907fa86305abc2db271df4609aa86a8d044bc11fb36939841bfdad6c1ab2b26e9471833392a360405160018152f35b61463190853d8711611a1a57611a0b8183614de2565b50846145e4565b3461028157608051807ffffffffffffffffffffffffffffffffffffffffffffffffffffffffffffffffc36011261035e576020603454604051908152f35b34610281576020807ffffffffffffffffffffffffffffffffffffffffffffffffffffffffffffffffc360112610281576146ae614bf8565b73ffffffffffffffffffffffffffffffffffffffff8116806080515261015f835260406080512090604051907f70a0823100000000000000000000000000000000000000000000000000000000825260048201528381602481305afa908115610d0a576080519161478a575b509160ff600f83015416614733575b5050604051908152f35b61473e919250616227565b156147715761476a90600d61475342836166d4565b600c83015480821015613a8b575091015490615988565b8280614729565b80600d600c61478593015491015490615988565b61476a565b90508381813d83116147b0575b6147a18183614de2565b8101031261028157518461471a565b503d614797565b346102815760407ffffffffffffffffffffffffffffffffffffffffffffffffffffffffffffffffc360112610281576147ee614bf8565b506147fe60ff6065541615615864565b60646040517f08c379a000000000000000000000000000000000000000000000000000000000815260206004820152602060248201527f6c4e4f52493a206f70657261746f7220616374696f6e732064697361626c65646044820152fd5b3461028157608051807ffffffffffffffffffffffffffffffffffffffffffffffffffffffffffffffffc36011261035e576040519060355461489d816155f8565b80845290600190818116908115611f7657506001146148c657611f1584611f0181860382614de2565b60808051603590525192507fcfa4bec1d3298408bb5afcfcd9c430549c5b31f8aa5c5848151c0a55f473c34d5b82841061490b575050508101602001611f0182611ef1565b805460208587018101919091529093019281016148f3565b3461028157608051807ffffffffffffffffffffffffffffffffffffffffffffffffffffffffffffffffc36011261035e57604051806037548082528260208093016037608051527f42a7b7dd785cd69714a189dffb3fd7d7174edc9ece837694ce50f7078f7c31ae926080515b858282106149bb575050506149a792500383614de2565b611f15604051928284938452830190614c6c565b855473ffffffffffffffffffffffffffffffffffffffff16845260019586019588955093019201614990565b346102815760207ffffffffffffffffffffffffffffffffffffffffffffffffffffffffffffffffc360112610281576004357fffffffff00000000000000000000000000000000000000000000000000000000811680910361028157807f5a05180f0000000000000000000000000000000000000000000000000000000060209214908115614a7c575b506040519015158152f35b7f7965db0b00000000000000000000000000000000000000000000000000000000811491508115614aaf575b5082614a71565b7f01ffc9a70000000000000000000000000000000000000000000000000000000091501482614aa8565b346102245760c07ffffffffffffffffffffffffffffffffffffffffffffffffffffffffffffffffc36011261022457614b10614bf8565b50614b19614c1b565b5060443573ffffffffffffffffffffffffffffffffffffffff8116036102245767ffffffffffffffff9060843582811161022457614b5b903690600401614c3e565b505060a43591821161022457614b776084923690600401614c3e565b50507f08c379a000000000000000000000000000000000000000000000000000000000815260206004820152603460248201527f46756e64696e672076696120746f6b656e7352656365697665642063616c6c6260448201527f61636b20696e206e6f7420737570706f727465640000000000000000000000006064820152fd5b6004359073ffffffffffffffffffffffffffffffffffffffff8216820361022457565b6024359073ffffffffffffffffffffffffffffffffffffffff8216820361022457565b9181601f840112156102245782359167ffffffffffffffff8311610224576020838186019501011161022457565b90815180825260208080930193019160005b828110614c8c575050505090565b835173ffffffffffffffffffffffffffffffffffffffff1685529381019392810192600101614c7e565b918091926000905b828210614cd6575011614ccf575050565b6000910152565b91508060209183015181860152018291614cbe565b907fffffffffffffffffffffffffffffffffffffffffffffffffffffffffffffffe0601f602093614d2781518092818752878088019101614cb6565b0116010190565b67ffffffffffffffff8111614d4257604052565b7f4e487b7100000000000000000000000000000000000000000000000000000000600052604160045260246000fd5b610200810190811067ffffffffffffffff821117614d4257604052565b6020810190811067ffffffffffffffff821117614d4257604052565b6040810190811067ffffffffffffffff821117614d4257604052565b6080810190811067ffffffffffffffff821117614d4257604052565b90601f7fffffffffffffffffffffffffffffffffffffffffffffffffffffffffffffffe0910116810190811067ffffffffffffffff821117614d4257604052565b67ffffffffffffffff8111614d425760051b60200190565b81601f8201121561022457803591614e5283614e23565b92614e606040519485614de2565b808452602092838086019260051b820101928311610224578301905b828210614e8a575050505090565b813573ffffffffffffffffffffffffffffffffffffffff81168103610224578152908301908301614e7c565b90815180825260208080930193019160005b828110614ed6575050505090565b835185529381019392810192600101614ec8565b81601f820112156102245780359067ffffffffffffffff8211614d425760405192614f3d60207fffffffffffffffffffffffffffffffffffffffffffffffffffffffffffffffe0601f8601160185614de2565b8284526020838301011161022457816000926020809301838601378301015290565b9080601f8301121561022457813590614f7782614e23565b92614f856040519485614de2565b828452602092838086019160051b8301019280841161022457848301915b848310614fb35750505050505090565b823567ffffffffffffffff8111610224578691614fd584848094890101614eea565b815201920191614fa3565b50346102245760207ffffffffffffffffffffffffffffffffffffffffffffffffffffffffffffffffc36011261022457615018614bf8565b5060646040517f08c379a000000000000000000000000000000000000000000000000000000000815260206004820152602060248201527f6c4e4f52493a206f70657261746f7220616374696f6e732064697361626c65646044820152fd5b9181601f840112156102245782359167ffffffffffffffff8311610224576020808501948460051b01011161022457565b3360009081527f38e71761b954262a9560bd5d5724383b6db3c254761096eb4ce389ed02050c60602090815260408083205490927fa52f07bb8dc8df886598eb50edeaba2b8e45715237ed244354b60ea04d0390b89160ff161561510c5750505050565b615115336156c6565b9184519061512282614dc6565b6042825284820192606036853782511561531957603084538251906001918210156153195790607860218501536041915b81831161524e575050506151f25760486132a79386936151bc936151ad98519889937f416363657373436f6e74726f6c3a206163636f756e74200000000000000000008a860152613228815180928c603789019101614cb6565b01036028810187520185614de2565b519283927f08c379a000000000000000000000000000000000000000000000000000000000845260048401526024830190614ceb565b6064848651907f08c379a000000000000000000000000000000000000000000000000000000000825280600483015260248201527f537472696e67733a20686578206c656e67746820696e73756666696369656e746044820152fd5b909192600f811660108110156152ec577f3031323334353637383961626364656600000000000000000000000000000000901a61528b8587615686565b5360041c9280156152bf577fffffffffffffffffffffffffffffffffffffffffffffffffffffffffffffffff019190615153565b6024827f4e487b710000000000000000000000000000000000000000000000000000000081526011600452fd5b6024837f4e487b710000000000000000000000000000000000000000000000000000000081526032600452fd5b807f4e487b7100000000000000000000000000000000000000000000000000000000602492526032600452fd5b3360009081527f69740cd0ab091be8193e004660c49ef128fdf47ef95c5cc8c747e37ac0379df8602090815260408083205490927f65d7a28e3265b37a6474929f336521b332c1681b933f6cb9f3376673440d862a9160ff16156153aa5750505050565b6153b3336156c6565b918451906153c082614dc6565b6042825284820192606036853782511561531957603084538251906001918210156153195790607860218501536041915b81831161544b575050506151f25760486132a79386936151bc936151ad98519889937f416363657373436f6e74726f6c3a206163636f756e74200000000000000000008a860152613228815180928c603789019101614cb6565b909192600f811660108110156152ec577f3031323334353637383961626364656600000000000000000000000000000000901a6154888587615686565b5360041c9280156152bf577fffffffffffffffffffffffffffffffffffffffffffffffffffffffffffffffff0191906153f1565b60009080825260209060c98252604092838120338252835260ff8482205416156154e65750505050565b6154ef336156c6565b918451906154fc82614dc6565b6042825284820192606036853782511561531957603084538251906001918210156153195790607860218501536041915b818311615587575050506151f25760486132a79386936151bc936151ad98519889937f416363657373436f6e74726f6c3a206163636f756e74200000000000000000008a860152613228815180928c603789019101614cb6565b909192600f811660108110156152ec577f3031323334353637383961626364656600000000000000000000000000000000901a6155c48587615686565b5360041c9280156152bf577fffffffffffffffffffffffffffffffffffffffffffffffffffffffffffffffff01919061552d565b90600182811c92168015615641575b602083101461561257565b7f4e487b7100000000000000000000000000000000000000000000000000000000600052602260045260246000fd5b91607f1691615607565b81198111615657570190565b7f4e487b7100000000000000000000000000000000000000000000000000000000600052601160045260246000fd5b908151811015615697570160200190565b7f4e487b7100000000000000000000000000000000000000000000000000000000600052603260045260246000fd5b604051906060820182811067ffffffffffffffff821117614d4257604052602a82526020820160403682378251156156975760309053815160019081101561569757607860218401536029905b8082116157815750506157235790565b60646040517f08c379a000000000000000000000000000000000000000000000000000000000815260206004820152602060248201527f537472696e67733a20686578206c656e67746820696e73756666696369656e746044820152fd5b9091600f8116601081101561581e577f3031323334353637383961626364656600000000000000000000000000000000901a6157bd8486615686565b5360041c9180156157f0577fffffffffffffffffffffffffffffffffffffffffffffffffffffffffffffffff0190615713565b602460007f4e487b710000000000000000000000000000000000000000000000000000000081526011600452fd5b602460007f4e487b710000000000000000000000000000000000000000000000000000000081526032600452fd5b80548210156156975760005260206000200190600090565b1561586b57565b60646040517f08c379a000000000000000000000000000000000000000000000000000000000815260206004820152601060248201527f5061757361626c653a20706175736564000000000000000000000000000000006044820152fd5b90816020910312610224575180151581036102245790565b916158fe9061590c94928452606060208501526060840190614ceb565b916040818403910152614ceb565b90565b519073ffffffffffffffffffffffffffffffffffffffff8216820361022457565b949161597a9361590c97959273ffffffffffffffffffffffffffffffffffffffff92838092168952166020880152166040860152606085015260c0608085015260c0840190614ceb565b9160a0818403910152614ceb565b818110615657570390565b9392919073ffffffffffffffffffffffffffffffffffffffff91828616938415615d10576040968751947faabbb8ca0000000000000000000000000000000000000000000000000000000086528660048701527f29ddb589b1fb5fc7cf394961c1adf5f8c6454761adf795e67fe149f658abe89560248701526020958681604481731820a4b7618bde71dce8cdc73aab6c95905fad245afa908115615d0557600091615cd0575b501680615c15575b507fa52f07bb8dc8df886598eb50edeaba2b8e45715237ed244354b60ea04d0390b860005260c985528760002033600052855260ff88600020541690615a8d87331415914290616265565b85111590876000526033875289600020548611159281615c0d575b5015615bf15750508460005260338452615ac883886000205410156161c2565b615ad760ff6065541615615864565b84600052603384528660002054838110615b6e5783927fa78a9be3a7b862d26933ad85fb11d80ef66b8f972d7cbba06621d583943a4098615b646000999a947fddf252ad1be2c89b69c2b068fc378daa952ba7f163c4a11628f55a4df523b3ef98978a95868d5260338a5203868c2055615b5387603454615988565b6034558551918291339589846158e1565b0390a351908152a3565b6084858951907f08c379a00000000000000000000000000000000000000000000000000000000082526004820152602360248201527f4552433737373a206275726e20616d6f756e7420657863656564732062616c6160448201527f6e636500000000000000000000000000000000000000000000000000000000006064820152fd5b615c009181615c0557506161c2565b615ac8565b9050386124b7565b905038615aa8565b803b15610224576000895180927f75ab978200000000000000000000000000000000000000000000000000000000825233600483015289602483015282604483015287606483015260c06084830152818381615ca7615c7760c483018c614ceb565b7ffffffffffffffffffffffffffffffffffffffffffffffffffffffffffffffffc8382030160a48401528a614ceb565b03925af18015615cc55715615a4257615cbf90614d2e565b38615a42565b89513d6000823e3d90fd5b908782813d8311615cfe575b615ce68183614de2565b8101031261035e5750615cf89061590f565b38615a3a565b503d615cdc565b8a513d6000823e3d90fd5b60846040517f08c379a000000000000000000000000000000000000000000000000000000000815260206004820152602260248201527f4552433737373a206275726e2066726f6d20746865207a65726f20616464726560448201527f73730000000000000000000000000000000000000000000000000000000000006064820152fd5b7fffffffffffffffffffffffffffffffffffffffffffffffffffffffffffffffff81146156575760010190565b91908110156156975760051b0190565b3573ffffffffffffffffffffffffffffffffffffffff811681036102245790565b60405190615dff82614d71565b816101e06000918281528260208201528260408201528260608201528260808201528260a08201528260c08201528260e08201528261010082015282610120820152826101408201528261016082015282610180820152826101a0820152826101c08201520152565b80518210156156975760209160051b010190565b615e84615df2565b5060009073ffffffffffffffffffffffffffffffffffffffff8116825261015f602052604082208091600c820154936006830154906001908185015491600786015490600987019183805282602052604084205482855260408520549185805260038a0160205283604087200154938087528060408820015495878052602052806040882001549681815260409020015496600d8b015498600e8c01549a60108d01549c601101549d600f015460ff169e6040518060a052615f4590614d71565b60a0515273ffffffffffffffffffffffffffffffffffffffff1660a0516020015260a0516040015260a0516060015260a0516080015260a05160a0015260a05160c0015260a05160e0015260a051610100015260a051610120015260a051610140015260a051610160015260a051610180015260a0516101a0015260a0516101c00152151560a0516101e0015260a05190565b15615fdf57565b60846040517f08c379a000000000000000000000000000000000000000000000000000000000815260206004820152602b60248201527f496e697469616c697a61626c653a20636f6e7472616374206973206e6f74206960448201527f6e697469616c697a696e670000000000000000000000000000000000000000006064820152fd5b1561606a57565b60846040517f08c379a000000000000000000000000000000000000000000000000000000000815260206004820152602e60248201527f496e697469616c697a61626c653a20636f6e747261637420697320616c72656160448201527f647920696e697469616c697a65640000000000000000000000000000000000006064820152fd5b60005460ff8160081c16600014616110575061610b303b15616063565b600090565b7fffffffffffffffffffffffffffffffffffffffffffffffffffffffffffffff0081616142600160ff81951610616063565b1617600055600190565b818110616157575050565b6000815560010161614c565b5060646040517f08c379a000000000000000000000000000000000000000000000000000000000815260206004820152601c60248201527f6c4e4f52493a206275726e696e67206e6f7420737570706f72746564000000006044820152fd5b156161c957565b60646040517f08c379a000000000000000000000000000000000000000000000000000000000815260206004820152601b60248201527f6c4e4f52493a20696e73756666696369656e742062616c616e636500000000006044820152fd5b73ffffffffffffffffffffffffffffffffffffffff1660005261015f602052604060002060ff600f82015416908161625d575090565b905054151590565b9073ffffffffffffffffffffffffffffffffffffffff82169060009082825261015f6020526040822092604051907f70a082310000000000000000000000000000000000000000000000000000000082526004820152602081602481305afa801561638457839061634d575b6162dc915094616227565b15616342576162eb81846166d4565b905b60ff600f85015416616301575b5050505090565b616339945090616317600d9392600686016166d4565b80821015613a9357509050600c83015480821015613a8b575091015490615988565b388080806162fa565b600c830154906162ed565b506020813d821161637c575b8161636660209383614de2565b81010312616378576162dc90516162d1565b8280fd5b3d9150616359565b6040513d85823e3d90fd5b6004808201805494939092856165e0578054821061655c575b600181015482116164d85760058101956163c386885461564b565b60028301541061645457916003600192879460005201602052604060002090815501558154907ffffffffffffffffffffffffffffffffffffffffffffffffffffffffffffffffe8211616426575060010190558154616422919061564b565b9055565b6011907f4e487b71000000000000000000000000000000000000000000000000000000006000525260246000fd5b6084846020604051917f08c379a0000000000000000000000000000000000000000000000000000000008352820152602960248201527f5363686564756c655574696c733a20436c69666620616d6f756e74732065786360448201527f65656420746f74616c00000000000000000000000000000000000000000000006064820152fd5b6084836020604051917f08c379a0000000000000000000000000000000000000000000000000000000008352820152602f60248201527f5363686564756c655574696c733a20436c696666732063616e6e6f7420656e6460448201527f206166746572207363686564756c6500000000000000000000000000000000006064820152fd5b6084836020604051917f08c379a0000000000000000000000000000000000000000000000000000000008352820152602a60248201527f5363686564756c655574696c733a20436c696666206265666f7265207363686560448201527f64756c65207374617274000000000000000000000000000000000000000000006064820152fd5b600186106166a6577fffffffffffffffffffffffffffffffffffffffffffffffffffffffffffffffff8601600052600381016020526040600020548210156163a8576084836020604051917f08c379a0000000000000000000000000000000000000000000000000000000008352820152602760248201527f5363686564756c655574696c733a20436c69666673206e6f74206368726f6e6f60448201527f6c6f676963616c000000000000000000000000000000000000000000000000006064820152fd5b6011837f4e487b71000000000000000000000000000000000000000000000000000000006000525260246000fd5b9060006004830154815b818110616715575050829161670791600261590c9501549080821060001461670d57509261675b565b9061564b565b90509261675b565b80600052600385016020526040806000205485101561673e575b5061673990615d94565b6166de565b616739919360016167549260002001549061564b565b929061672f565b600060028201546005830154908181101561689e575b5050600182015480841015616897578254926004810154908161684e575b50508261679b91615988565b92600092808210156167b1575050505050600090565b6167ba91615988565b91817fffffffffffffffffffffffffffffffffffffffffffffffffffffffffffffffff048311821515166168215783156167f45750020490565b807f4e487b7100000000000000000000000000000000000000000000000000000000602492526012600452fd5b807f4e487b7100000000000000000000000000000000000000000000000000000000602492526011600452fd5b9091935060018210615657577fffffffffffffffffffffffffffffffffffffffffffffffffffffffffffffffff600392016000520160205261679b60406000205492903861678f565b5091505090565b6168a89250615988565b3880616771565b90815180825260208092019182818360051b85019501936000915b8483106168da5750505050505090565b90919293949584806168f483856001950387528a51614ceb565b98019301930191949392906168ca565b919060018301600090828252806020526040822054156000146169c15784549468010000000000000000861015616994578361698461694d886001604098999a0185558461584c565b819391549060031b7fffffffffffffffffffffffffffffffffffffffffffffffffffffffffffffffff811b9283911b169119161790565b9055549382526020522055600190565b6024837f4e487b710000000000000000000000000000000000000000000000000000000081526041600452fd5b50925050565b7fa52f07bb8dc8df886598eb50edeaba2b8e45715237ed244354b60ea04d0390b8906169f860ff6065541615615864565b14616a005750565b73ffffffffffffffffffffffffffffffffffffffff1660005261015f60205260ff600f6040600020015416610c7157565b90616a8791616a4082826169c7565b600081815260c960205260409173ffffffffffffffffffffffffffffffffffffffff83832094169384835260205260ff8383205416616a8a575b815260fb60205220616af1565b50565b80825260c96020528282208483526020528282207fffffffffffffffffffffffffffffffffffffffffffffffffffffffffffffff0081541690553384827ff6391f5c32d9c69d2a47ea670b442974b53935d1edc7fd64eb21e047a839171b858751a4616a7a565b906001820190600092818452826020526040842054908115156000146162fa5760018210616c17577fffffffffffffffffffffffffffffffffffffffffffffffffffffffffffffffff91828101825460018110616bea57840190808203616bb5575b50505080548015616b8857820191616b6b838361584c565b909182549160031b1b191690555582526020526040812055600190565b6024867f4e487b710000000000000000000000000000000000000000000000000000000081526031600452fd5b616bd5616bc561694d938661584c565b90549060031b1c9283928661584c565b90558652846020526040862055388080616b53565b6024887f4e487b710000000000000000000000000000000000000000000000000000000081526011600452fd5b6024857f4e487b710000000000000000000000000000000000000000000000000000000081526011600452fdfea264697066735822122040e5bfb2a077856c5fbad81224990d7ea1940c5ef0496292a417b2a6c000d32564736f6c634300080f0033",
  "linkReferences": {},
  "deployedLinkReferences": {}
}