{
  "_format": "hh-sol-artifact-1",
  "contractName": "RemovalTestHarness",
  "sourceName": "contracts/RemovalUtilsTestHarness.sol",
  "abi": [
    {
      "inputs": [
        {
          "internalType": "bytes",
          "name": "removalData",
          "type": "bytes"
        }
      ],
      "name": "createRemovalId",
      "outputs": [
        {
          "internalType": "uint256",
          "name": "",
          "type": "uint256"
        }
      ],
      "stateMutability": "pure",
      "type": "function"
    },
    {
      "inputs": [
        {
          "internalType": "uint256",
          "name": "removalId",
          "type": "uint256"
        }
      ],
      "name": "unpackRemovalIdV0",
      "outputs": [
        {
          "components": [
            {
              "internalType": "uint8",
              "name": "idVersion",
              "type": "uint8"
            },
            {
              "internalType": "uint8",
              "name": "methodology",
              "type": "uint8"
            },
            {
              "internalType": "uint8",
              "name": "methodologyVersion",
              "type": "uint8"
            },
            {
              "internalType": "uint16",
              "name": "vintage",
              "type": "uint16"
            },
            {
              "internalType": "bytes2",
              "name": "country",
              "type": "bytes2"
            },
            {
              "internalType": "bytes2",
              "name": "subdivision",
              "type": "bytes2"
            },
            {
              "internalType": "address",
              "name": "supplierAddress",
              "type": "address"
            },
            {
              "internalType": "uint32",
              "name": "subIdentifier",
              "type": "uint32"
            }
          ],
          "internalType": "struct UnpackedRemovalIdV0",
          "name": "",
          "type": "tuple"
        }
      ],
      "stateMutability": "pure",
      "type": "function"
    }
  ],
  "bytecode": "0x608060405234801561001057600080fd5b506119f1806100206000396000f3fe608060405234801561001057600080fd5b50600436106100365760003560e01c806348ec4c3b1461003b578063d85a53e91461006b575b600080fd5b610055600480360381019061005091906113f5565b61009b565b6040516100629190611468565b60405180910390f35b61008560048036038101906100809190611479565b610133565b60405161009291906114bf565b60405180910390f35b60006100c97ff2b86bf786217f79d01cccc778d77230faf026d5fbbe70328495d174d0e5511e60001b6101cf565b6100f57f7cb69aa71e49f1e01e5ea94e0ec0c2812d53d1bc65f07de8d5d58081e61e707760001b6101cf565b6101217fbaacdeda7cf2eeab94ca8fd170eeec054253d4c5c2c81b9cf8deb8170a092a9260001b6101cf565b61012b83836101d2565b905092915050565b61013b611345565b6101677f82cfb0e82a0c9d1023c9f927697e095865e8da8cfa3a9ff00430b1aaf48061ba60001b6101cf565b6101937fae880fe8da7f32c2d743eff88c5390beac64daa2d0e4f94ba1c34b4a04af2ed360001b6101cf565b6101bf7fb4d961928a65385aa09c68754684dc59ac85ab83960f846a346bc2d19d07387b60001b6101cf565b6101c882610b54565b9050919050565b50565b60006102007fa93b3c4021efdf33a237171bd8b580c8819e0b0734328bf980f6d2120cfeef5560001b610ccc565b61022c7f1f19b3b2f36556f678c46b0ca4216add9518c241bbfa9022164da21b081679e360001b610ccc565b6102587fc7bb89189d66fd3b2778fe6549198e522089fed75c4c1dde1a1d6fbafcf8ab0660001b610ccc565b600083838101906102699190611561565b60ff16905061029a7ff60dfe198f1423f974f921a6f8cd74395f361c04bf975e9bc823dd4df3172c6c60001b610ccc565b6102c67fa0061ee53002338a47d71fdb0b467ca2ba83d6e610ee662e69f5878b1ec8189b60001b610ccc565b6102f27f2efaad94e2688d07cc6ebe162fbb3c5a0c8ec063aae361b53e6b0dbab91f0f8e60001b610ccc565b60008114610335576040517f08c379a000000000000000000000000000000000000000000000000000000000815260040161032c90611584565b60405180910390fd5b6103617fc92dd905fdc214819c13884a4734a42d610dd2ec7f9834b2c21bbbdc5c579e7360001b610ccc565b61038d7f4c210ab7d80c7cbdba4a72eaa7ba7a8fe45cc4a8e2243abdad8b624931b410c360001b610ccc565b6103b97f40d16bf9bd16522b74f4cb5ff266080175d07468753f51913be3dc212be9a6db60001b610ccc565b6103e57fedd653e120cd8270c22714287f806589a34c35792e8be8191471fc178a86db0060001b610ccc565b610100848490501461042c576040517f08c379a0000000000000000000000000000000000000000000000000000000008152600401610423906115e8565b60405180910390fd5b6104587f83a21c20d1cb4a2bbf66e0ca14117e4c73129b3c198d2d721faa96b71194b67760001b610ccc565b6104847fa573c6682835c40a6cdd77cb2cfc7fd3782c66f65ec93637ff5f28a602c5584560001b610ccc565b6104b07fcc0d4e3977ef12d6be5dc78f0999f8f61a132f04215eb852155403b3c8e8e94360001b610ccc565b600084848101906104c191906116c1565b90506104ef7f402ff13507a5fe7a03b1ead635748f0b651266a54366fa31ac077a0d755ee7f760001b610ccc565b61051b7f271cd8afcaac0eb27ca2f6ecae3caa4c2c3ccee9c3c97aa457255412faffc42360001b610ccc565b6105477f93eadc593c1a6d7f13ae5bd2d67f2231388a3d58246db8e5f277e9301c646e9f60001b610ccc565b600f816020015160ff161115610592576040517f08c379a000000000000000000000000000000000000000000000000000000000815260040161058990611798565b60405180910390fd5b6105be7fce137fde33466d4b62c235676260df24973ac3cb131b3401f950a5174bd8e65660001b610ccc565b6105ea7faf04a532078f6cf8652e706158d2b658a741351af6671cbb61ce77d6288cc24660001b610ccc565b6106167f5690cc214f93a787c465bd75a432d28a7d5bfc99013059038b63855bcf206c7360001b610ccc565b6106427f1da5f5e4744cbd74d6110b58b9e7180942be023ee52970d811e33c8bbd9070e660001b610ccc565b600f816040015160ff16111561068d576040517f08c379a0000000000000000000000000000000000000000000000000000000008152600401610684906117d6565b60405180910390fd5b6106b97f0aeed552a017e7aaa1d6076ce67cf9770a4218cdb53d1ad0ba7d1441f179884560001b610ccc565b6106e57f4de8e2e3a02a62f9715fba7d688c6f075613477b40e668bcac3aca870292830560001b610ccc565b6107117f2a49f558c091fbdde2c59caeafcc43bbfc10badc9903515c559954240fda674a60001b610ccc565b60006008826080015160f01c61ffff16901c90506107517f0d77ac63498853feb7723cb72a0d39b4c2f2a1295aee41711dcc11989d02dda060001b610ccc565b61077d7f2d399b6bc773913cd54728e3ef1b221b876e1df52c5f5d51d30534d178e73c0460001b610ccc565b600060ff836080015160f01c61ffff161690506107bc7f25452770c708cd775a213c4e12095feff90a31819fa58a56a71c30c388aa85b660001b610ccc565b6107e87f74f5b719bd5be0edbee880fa454803a5a23442067b8ad96049e36e77fbdb97f160001b610ccc565b600060088460a0015160f01c61ffff16901c90506108287fe6393ad3840286c7ab012adf2b11cd369b48d1fc9a300c5ace6acf53b7f03d8860001b610ccc565b6108547f99dd3b6246e15ce5cda2d0b068cb34388844c899d58280d75f0a609c0b9e6c8760001b610ccc565b600060ff8560a0015160f01c61ffff161690506108937fdcc5662c9e77cc664759897da05188f6e2a9005e57687ad062671c195781b17760001b610ccc565b6108bf7f2a23c006905c9ab1b71b63e9c42571aab7c09a2cc90c6bef9c15b159aa96c5e060001b610ccc565b6108eb7fa02371977e00c86c950c4c298bab59849be39a277bfb29ca8940b5093fd2b87f60001b610ccc565b604184101580156108fd5750605a8411155b801561090a575060418310155b80156109175750605a8311155b8015610924575060418210155b80156109315750605a8211155b801561093e575060418110155b801561094b5750605a8111155b61098a576040517f08c379a000000000000000000000000000000000000000000000000000000000815260040161098190611814565b60405180910390fd5b6109b67f331482cc70d36b9861d6afafd9a11e8dd07b9faa8d3618032522ae905682c10760001b610ccc565b6109e27f012c0f43144165ee1f4a21aa15317be554735d078781a5b811c71cc16189f6ef60001b610ccc565b610a0e7fb605c89377ab489f3f93f2bbc7b612cf85b7f0cf60132d28b79c17d5900c4fdf60001b610ccc565b600085604001516004876020015160ff16901b1760ff169050610a537f4d1ec261e2b5164001b4c14283dd09dc58c9f5ea74aa6f5aacaf1dbe081f11b760001b610ccc565b610a7f7fdb60ab853fca1ca6f0c258b9148d5969ccd2c7e97643cda87abec141ff97ec4360001b610ccc565b60086000610a8d9190611868565b8660e0015163ffffffff16901b60086004610aa89190611868565b8760c0015173ffffffffffffffffffffffffffffffffffffffff16901b60086018610ad39190611868565b8860a0015160f01c61ffff16901b6008601a610aef9190611868565b896080015160f01c61ffff16901b6008601c610b0b9190611868565b8a6060015161ffff16901b6008601e610b249190611868565b86901b6008601f610b359190611868565b8c6000015160ff16901b17171717171797505050505050505092915050565b610b5c611345565b610b887fff4abb54fcc1eba640876d2ccb6d940269aecae93459168e2a9f1148a7590b7260001b610ccc565b610bb47f83981f1a078094aebd86bc05fa09896fbcc2f83ac34d2a72a7ed0960a06e599f60001b610ccc565b610be07ff92bf7a78f931713f269864e471ac153846da8bfbcaacdca701ca244ffc3111060001b610ccc565b604051806101000160405280610bf584610ccf565b60ff168152602001610c0684610d69565b60ff168152602001610c1784610e07565b60ff168152602001610c2884610ea4565b61ffff168152602001610c3a84610f3e565b7dffffffffffffffffffffffffffffffffffffffffffffffffffffffffffff19168152602001610c6984610fdb565b7dffffffffffffffffffffffffffffffffffffffffffffffffffffffffffff19168152602001610c9884611078565b73ffffffffffffffffffffffffffffffffffffffff168152602001610cbc84611112565b63ffffffff168152509050919050565b50565b6000610cfd7faf7b0cf045268b9c27e7aff158ad85c9d47adf5ca2f671bf55348971c1cde5f560001b610ccc565b610d297ffe6598e5e88c7028b3c9960d5d8be115524564dd1502aa444620ff1305ba12ce60001b610ccc565b610d557f3dbabd8af04a6f18f18917dfefca42475acf3e88ce910b85cdde2d8d19665b8f60001b610ccc565b610d62826001601f6111ac565b9050919050565b6000610d977fa04bfe601d6be948b0acd4e92c654a0512b8013b9d715b771dc075624543edcb60001b610ccc565b610dc37f220c192753f1840c789af39801219cef61a9d4687cd5a5c8fe69d8feb6bacf6860001b610ccc565b610def7faa726f231ef9f42dd0265a4f38d058a8668884973d64dd6352f117f1a1413cb460001b610ccc565b6004610dfe836001601e6111ac565b901c9050919050565b6000610e357f7191b49e0c4802aec757a374d5505c16d2a5aff375ca66722e6f8a2e22e1947860001b610ccc565b610e617f1d4afb60aae73e695b92bdc6b690606d63f11bc25ffa6a0dc7ebcbe8b8f242b760001b610ccc565b610e8d7f911c1538c2c51919cd62c2f8985fb24b34cb26692e398986246d94ac07b960a560001b610ccc565b600f610e9c836001601e6111ac565b169050919050565b6000610ed27f6d9a6c80fc02bfe26028bccc8a9abdfc57c01fe463d2eb25b0b1e5328b6ab89a60001b610ccc565b610efe7f97a8404427d5780808aacdf7c183514c25467cacf4c22ce55ed072079b40409460001b610ccc565b610f2a7ff8ab0691981380b0bf49f02cc73cfb579df4c88f307cc9549a71e386a4f4e4b260001b610ccc565b610f37826002601c6111ac565b9050919050565b6000610f6c7f90554b06c1f7a2f7bdcc2be234c561d905cdbe4601d3dc0c54556774527b17fe60001b610ccc565b610f987f02a2d2ba1121af20eb9a447d5175571d204231c5fca1740a489daec54013818060001b610ccc565b610fc47ff2f1c3aca2566b952a4980a31a9aea914b1d145f5963d799cc2ffb19ea28ad7f60001b610ccc565b610fd1826002601a6111ac565b60f01b9050919050565b60006110097fe0c1b3743c0c78db023f8e79f607a54c53a981cf71b44f0e91af43bdac83473a60001b610ccc565b6110357fa9c7ac003d2cbb032d500d164f60bbe248639fc1105de154abeecd0d3448dd2e60001b610ccc565b6110617ffe34f45aa47e35f33bf0fc915a7723dfd3b891c0ac8bebeed7dc2bacb84e7f0960001b610ccc565b61106e82600260186111ac565b60f01b9050919050565b60006110a67f61a17554362ad1bf02dff2dbaf5be9db80c5bbe8f0edb8af796a4d090372dab560001b610ccc565b6110d27f504aea981cd31f40e9565175906d9ae40edd646c87d66ed64723d2dd27f79f6a60001b610ccc565b6110fe7fbe622c7573f14a7a27ad1847c12217ef18e061484855f1e61db7ccd74579bf3960001b610ccc565b61110b82601460046111ac565b9050919050565b60006111407f5e87c48c38c5faa98128965be60492f6ccc83b3646b99d07e73ed90396b6161460001b610ccc565b61116c7fedcf1a223940e0f384c85b4f9debeb647bd3c5f86eb624468722c45509544d7960001b610ccc565b6111987f1763bb9fdd4b0adc7bf9d3c04700a784a30b86fc8ae5398f7e7b0d07c0a3018460001b610ccc565b6111a582600460006111ac565b9050919050565b60006111da7f1205ee745d77ab19e20a8d07f3c0b1ce25c6eb5836e33a75783e1a462ec6982d60001b610ccc565b6112067f25f80eade46fdc299b3d0e0ed504061a2428dac29b83ca93610f149163bd0ef760001b610ccc565b6112327f99414408e51aec2ade2a3a7a3fe76024e2d9408e3be2a80d0e4b117aa6f0ff9960001b610ccc565b60006008836112419190611868565b60016008866112509190611868565b600261125c9190611989565b611266919061199d565b60001b901b90506112997f0cf086c7a61493e525a920e403d1c3f79550d36d139c851d6ee5bece1d3a207460001b610ccc565b6112c57f7491042c8f6934d943831b44325845c60c46710e9558a27d0dfbb80aa50a94d260001b610ccc565b6000818660001b1690506112fb7f1485c78e2b2e89142659327fa9e0b9d7d66f5f3851d0420ff3f2a2f1c31b4fb560001b610ccc565b6113277f387dccec0e9ca4376246f3cdb479f35b78df2b9fd9bd5c3ae7bc14469523e09b60001b610ccc565b6008846113349190611868565b81901c60001c925050509392505050565b604051806101000160405280600060ff168152602001600060ff168152602001600060ff168152602001600061ffff16815260200160007dffffffffffffffffffffffffffffffffffffffffffffffffffffffffffff1916815260200160007dffffffffffffffffffffffffffffffffffffffffffffffffffffffffffff19168152602001600073ffffffffffffffffffffffffffffffffffffffff168152602001600063ffffffff1681525090565b6000806020838503121561140857600080fd5b823567ffffffffffffffff8082111561142057600080fd5b818501915085601f83011261143457600080fd5b81358181111561144357600080fd5b86602082850101111561145557600080fd5b6020830194508093505050509250929050565b600060208201905082825292915050565b60006020828403121561148b57600080fd5b8135905092915050565b61ffff60f01b811682525050565b60018060a01b03811682525050565b63ffffffff811682525050565b60006101008201905060ff835116825260ff602084015116602083015260ff604084015116604083015261ffff606084015116606083015261ffff60f01b608084015116608083015260a083015161151a60a0840182611495565b5060c083015161152d60c08401826114a3565b5060e083015161154060e08401826114b2565b5092915050565b60008135905060ff8116811461155c57600080fd5b919050565b60006020828403121561157357600080fd5b61157c82611547565b905092915050565b60208152602460208201527f556e737570706f727465642072656d6f76616c20746f6b656e2069642076657260408201527f73696f6e0000000000000000000000000000000000000000000000000000000060608201526000608082019050919050565b60208152602a60208201527f72656d6f76616c4461746120636f6e7461696e732077726f6e67206e756d626560408201527f72206f662062797465730000000000000000000000000000000000000000000060608201526000608082019050919050565b60008135905061ffff8116811461166257600080fd5b919050565b60008135905061ffff60f01b8116811461168057600080fd5b919050565b60008135905060018060a01b038116811461169f57600080fd5b919050565b60008135905063ffffffff811681146116bc57600080fd5b919050565b60006101008083850312156116d557600080fd5b604051818101915080821067ffffffffffffffff8311171561170757634e487b7160e01b600052604160045260246000fd5b8160405261171484611547565b815261172260208501611547565b602082015261173360408501611547565b60408201526117446060850161164c565b606082015261175560808501611667565b608082015261176660a08501611667565b60a082015261177760c08501611685565b60c082015261178860e085016116a4565b60e0820152809250505092915050565b60208152601560208201527f4d6574686f6c6f646f677920746f6f206c61726765000000000000000000000060408201526000606082019050919050565b60208152601d60208201527f4d6574686f6c6f646f67792076657273696f6e20746f6f206c6172676500000060408201526000606082019050919050565b60208152600d60208201527f496e76616c69642041534349490000000000000000000000000000000000000060408201526000606082019050919050565b634e487b7160e01b600052601160045260246000fd5b600081600019048311821515161561188357611882611852565b5b828202905092915050565b60008060018092508391505b808511156118d45781600019048211156118b7576118b6611852565b5b808516156118c55781830292505b818202915084811c945061189a565b509250929050565b6000826118ec5760019050611983565b816118fa5760009050611983565b8160018114611910576002811461191a57611938565b6001915050611983565b60ff84111561192c5761192b611852565b5b6001841b915050611983565b5060208310610133831016604e8410600b841016171561195c5782820a9050611983565b611966838361188e565b806000190482111561197b5761197a611852565b5b808202925050505b92915050565b600061199583836118dc565b905092915050565b6000828210156119b0576119af611852565b5b82820390509291505056fea2646970667358221220f1af48e30186e0b47d65419585d7e3d1c2d67399ffb210179a9b2523cf94cd2164736f6c634300080f0033",
  "linkReferences": {},
  "deployedLinkReferences": {}
}