{
  "_format": "hh-sol-artifact-1",
  "contractName": "RemovalTestHarness",
  "sourceName": "contracts/RemovalUtilsTestHarness.sol",
  "abi": [
    {
      "inputs": [
        {
          "internalType": "bytes",
          "name": "removalData",
          "type": "bytes"
        }
      ],
      "name": "createRemovalId",
      "outputs": [
        {
          "internalType": "uint256",
          "name": "",
          "type": "uint256"
        }
      ],
      "stateMutability": "pure",
      "type": "function"
    },
    {
      "inputs": [
        {
          "internalType": "uint256",
          "name": "removalId",
          "type": "uint256"
        }
      ],
      "name": "unpackRemovalIdV0",
      "outputs": [
        {
          "components": [
            {
              "internalType": "uint8",
              "name": "idVersion",
              "type": "uint8"
            },
            {
              "internalType": "uint8",
              "name": "methodology",
              "type": "uint8"
            },
            {
              "internalType": "uint8",
              "name": "methodologyVersion",
              "type": "uint8"
            },
            {
              "internalType": "uint16",
              "name": "vintage",
              "type": "uint16"
            },
            {
              "internalType": "bytes2",
              "name": "country",
              "type": "bytes2"
            },
            {
              "internalType": "bytes2",
              "name": "subdivision",
              "type": "bytes2"
            },
            {
              "internalType": "address",
              "name": "supplierAddress",
              "type": "address"
            },
            {
              "internalType": "uint32",
              "name": "subIdentifier",
              "type": "uint32"
            }
          ],
          "internalType": "struct UnpackedRemovalIdV0",
          "name": "",
          "type": "tuple"
        }
      ],
      "stateMutability": "pure",
      "type": "function"
    }
  ],
  "bytecode": "0x608060405234801561001057600080fd5b506119f1806100206000396000f3fe608060405234801561001057600080fd5b50600436106100365760003560e01c806348ec4c3b1461003b578063d85a53e91461006b575b600080fd5b610055600480360381019061005091906113f5565b61009b565b6040516100629190611468565b60405180910390f35b61008560048036038101906100809190611479565b610133565b60405161009291906114bf565b60405180910390f35b60006100c97ffcd77c8c1ae4facb6217d1d79c2b7879df38a0c3375e874afab00da5702d8ded60001b6101cf565b6100f57fb0b374733f9f03def71e0f08b9d7d9346cadde065905668e03679e0005949b8a60001b6101cf565b6101217fa9b67f02e36eb8197bf26f4074e65b766d61cc792a6640986ebf0fb9de32d8c160001b6101cf565b61012b83836101d2565b905092915050565b61013b611345565b6101677febcf8a84b38a1d414f164dc5f5b082160fd61d441e248724e9c1f6dd0827003f60001b6101cf565b6101937f0e5aa5c7b4c17b56829198df141e86da6f80da36091569476176d7e49f45ff8860001b6101cf565b6101bf7f84643f370e4380ffd05ec3ff8a7149259005e454f2bfc2cc1931f81e833d7d0360001b6101cf565b6101c882610b54565b9050919050565b50565b60006102007f715f690e6549aea646a2716e49276326321e879787d62ebfc7fdbdfab1c3fb5a60001b610ccc565b61022c7fc16ef91b7cdb7cd097ea548b9aff443e0b5acf02a6429876b4b3dd9d6b6594fa60001b610ccc565b6102587f50a77a031b309718e7c6591ae3ed2d4bc6b4a63ed1d3c6736d83cfb012cbc2b360001b610ccc565b600083838101906102699190611561565b60ff16905061029a7fa7f06c4799cf47c55374353fabc80d590c77507c8c92b7cbd868fd839bc0e55960001b610ccc565b6102c67f019ed388ccb8d59d2246b44b526a3367dea947f5cd231062f67d5d178d16091a60001b610ccc565b6102f27fe6501a865d8041546837c0d693d0633dcd8e5c853d8c6eed0bb7eab7a491292860001b610ccc565b60008114610335576040517f08c379a000000000000000000000000000000000000000000000000000000000815260040161032c90611584565b60405180910390fd5b6103617f5298bb48ce0f4341eed584ea2c4d643aeb8e981cca0c9f893b26fbdcb4b1b9ec60001b610ccc565b61038d7fd16e6dca5fd14d99b0cfe20b1f0d25a2c757a033c86a104ff93f2b17c962c13860001b610ccc565b6103b97f06b9dd4a867741bb6568de8116c2ec92d1a06a82e196513b65bd2272270aa9c260001b610ccc565b6103e57fe0fb68124f27020c0d0cbb61f36418799192eb6a65d6d954ac96208428a1e67860001b610ccc565b610100848490501461042c576040517f08c379a0000000000000000000000000000000000000000000000000000000008152600401610423906115e8565b60405180910390fd5b6104587f51d0e4d08ece9310940fbc841e0c5b6f78905ba97a8596571d81cd8bc507efb460001b610ccc565b6104847f62b19bb27cfb5e6000771026f073362208d3b8b3831aefc927201228b2d8803960001b610ccc565b6104b07f6e67d71b1fecb38bc1c8a5b0e60ab9e28d097f1cfe69c142bf8279fcde742cd560001b610ccc565b600084848101906104c191906116c1565b90506104ef7fcb7b2e81a1208c72d5f0f3858f87e34a30de4ea4f3eb6c2f0277631b6e6209f960001b610ccc565b61051b7f81f82037116e32b6baa0d9a5541dd933c8254eac72e587c228264d07625acbd260001b610ccc565b6105477f957e4cff1b540a014dd8ab5c5424120565c1ae32fce7f7b8a18d1e48f59bd44760001b610ccc565b600f816020015160ff161115610592576040517f08c379a000000000000000000000000000000000000000000000000000000000815260040161058990611798565b60405180910390fd5b6105be7f8e11cfbe8cee47913aa1a9fa21223443509bcae55febe509cb0b188a8a24476960001b610ccc565b6105ea7f5d7b804978c7d92e4b1c1e8fb5b3f67a8c9db06c0b98a2c12585a1d1ca2a2ba760001b610ccc565b6106167f42a40fee12cec104709c5c28850985bca565dacd1921aef6eecf3cb84ee6dc1560001b610ccc565b6106427f54c43ff889aa845ffdb553b07161d13d45e7b10d9b17a9cb4718a98afe2c228060001b610ccc565b600f816040015160ff16111561068d576040517f08c379a0000000000000000000000000000000000000000000000000000000008152600401610684906117d6565b60405180910390fd5b6106b97f4ba5b6a17c2d838b5cc96e6cf77ad66d465cd452e13c3657dd4a8c7f0418491d60001b610ccc565b6106e57fb1f8598e136e34f1f6c2a00cbe89cf6155072368f958b8a18763dcde1a7c564560001b610ccc565b6107117facccd29c8c92ced49bd303d252d90a44d08aeefd3570378542e95c1d047da97d60001b610ccc565b60006008826080015160f01c61ffff16901c90506107517ff4483360296d24b06e6073992bbe04a44fd627cd81fde3f3b8a6edfbc6208f3e60001b610ccc565b61077d7fa4adc0b0ea538d08961eb16ad24846ed07444412cb4911683a22aeb7be6db31560001b610ccc565b600060ff836080015160f01c61ffff161690506107bc7f939bbb44e83fdb59f09d7aa2bfcb144bebc50e25a4e7ef02eef8e29bbf48bdaf60001b610ccc565b6107e87f7583bd29df808e60c80bc90761b54147b42c4088472521fc3548be3e357126f960001b610ccc565b600060088460a0015160f01c61ffff16901c90506108287fcc727e8b5a483b6189f29b79404c8a55d53137f02f4191b81d841ce5c72293d360001b610ccc565b6108547fa9ce6e2cd2e1b0ab986eb11feabd047868ec490c2bbf73a435a5a06cca2c308d60001b610ccc565b600060ff8560a0015160f01c61ffff161690506108937f206cd87dcf5cff3b5094e4ce61d5e5434351733a21f0fda4d7cffbbef2b17e1a60001b610ccc565b6108bf7f980f5028ea59ff01209d6a443c65d7b77745d6bfda7c6e107e6f52876fa8b25260001b610ccc565b6108eb7f3048b4319dc051b2d4f42c707192a9f5af745f05f103f0a9847c816560926dfb60001b610ccc565b604184101580156108fd5750605a8411155b801561090a575060418310155b80156109175750605a8311155b8015610924575060418210155b80156109315750605a8211155b801561093e575060418110155b801561094b5750605a8111155b61098a576040517f08c379a000000000000000000000000000000000000000000000000000000000815260040161098190611814565b60405180910390fd5b6109b67f3d585f837d3511cd4130fb15fc1d1db963accfdb355664852e5472b2e7e6645760001b610ccc565b6109e27fc929f45ba2ce166259621570861523a2a8ffd29c5d494ddb00953fc316e0fe1a60001b610ccc565b610a0e7f6104ac4fd5065d84ee1e411eea956e1d3aacc5e8fb8acc42058837b014c1c67960001b610ccc565b600085604001516004876020015160ff16901b1760ff169050610a537f2772b556a002c159b7428812c38236caf836f8dd0296405a957dbfd6ca5aa19260001b610ccc565b610a7f7fede993d91e1a94b121634c16d3d3d15cb718f8527de392c9e59984e22c88583660001b610ccc565b60086000610a8d9190611868565b8660e0015163ffffffff16901b60086004610aa89190611868565b8760c0015173ffffffffffffffffffffffffffffffffffffffff16901b60086018610ad39190611868565b8860a0015160f01c61ffff16901b6008601a610aef9190611868565b896080015160f01c61ffff16901b6008601c610b0b9190611868565b8a6060015161ffff16901b6008601e610b249190611868565b86901b6008601f610b359190611868565b8c6000015160ff16901b17171717171797505050505050505092915050565b610b5c611345565b610b887fbdbd54146a8aa313ea3afa6bd8eade33523cb0c38e0721b9e6a7542de7e8bc9860001b610ccc565b610bb47f7518988816a237eb49360706200bb94090f766c2c486a6fc59337ed2b6715c9760001b610ccc565b610be07fc16838d06f984c798f94aafbd0a8930ed1f51c6598338280205522510f4cbeb160001b610ccc565b604051806101000160405280610bf584610ccf565b60ff168152602001610c0684610d69565b60ff168152602001610c1784610e07565b60ff168152602001610c2884610ea4565b61ffff168152602001610c3a84610f3e565b7dffffffffffffffffffffffffffffffffffffffffffffffffffffffffffff19168152602001610c6984610fdb565b7dffffffffffffffffffffffffffffffffffffffffffffffffffffffffffff19168152602001610c9884611078565b73ffffffffffffffffffffffffffffffffffffffff168152602001610cbc84611112565b63ffffffff168152509050919050565b50565b6000610cfd7fa43d40037165ca5c8c25fc0064836ec850a0b7cb8149ae0dcdb624ca75c3cd8660001b610ccc565b610d297fd1b92d3b74a6c40ea7065e0de61782a2d83a9ba0295c8bdeab302663f64ae44f60001b610ccc565b610d557f20fb94335a417e7914b59bc9bfadb78349e6845103726f2e28b45150054ac6fc60001b610ccc565b610d62826001601f6111ac565b9050919050565b6000610d977ff33ca2d2b36dcc2e74d057cb7260ea96d635d5b65e40e82ae7885be7147385cc60001b610ccc565b610dc37f75a1687bcd76869a8e39b5274f128a24993cdcf934adf5e7b04a55d400c9f7df60001b610ccc565b610def7f85d892bfe36cc5efe43841b16dae817627cfa189831c62a95a0444f96d03725260001b610ccc565b6004610dfe836001601e6111ac565b901c9050919050565b6000610e357f6bcff8677322e278b43d76f75ee40f59dee38b58f7b94c7352b35dc9dcb5a20260001b610ccc565b610e617fe23d8f5dfd4747e7ad5b8c56fb64d6d000480adb67dd4f9ec6fd2b001fbf326b60001b610ccc565b610e8d7f044a793bc0cf00d329e38b0008d5b646c44cd938593a15adc8ef0c42440d9cc460001b610ccc565b600f610e9c836001601e6111ac565b169050919050565b6000610ed27f7529bea20782c3cb5721dc5fee820d690122db2447a24130601229fa0b8a7a6360001b610ccc565b610efe7fa58f57f4326cb1d5dc8ee2d3bfb5b79894c0679bf9bf47b59f7eb0c2f3c72cc060001b610ccc565b610f2a7f9887d47ee679f1556bb34e0a9b193eb5412ae22a3cc28a2f70acafc4aab6e2d760001b610ccc565b610f37826002601c6111ac565b9050919050565b6000610f6c7fa97722f34b6a52458f68c254ad6c778c3753ccf25e71ed335d992d30ba227ca760001b610ccc565b610f987f10517db53b8683c03d3d9210caf1b3e6dfdaff7352faa0352aaba8228ec0ae0d60001b610ccc565b610fc47f8b5e055eec2fa9b28274faea962920a5e26204c671119adce85591ec10aa8cbc60001b610ccc565b610fd1826002601a6111ac565b60f01b9050919050565b60006110097f3953c7f56ab5f21dee4b8901350aa6dbfc612b5125c1e67fefd1db53023e06c060001b610ccc565b6110357f2e16bd454a4fde4059056dec5f1d7bea9d7d5d2138a7a3173908a43e759551e860001b610ccc565b6110617fbccf382236166397fb2048ea63f5fe05e7df342d49653e2a625e777770afc5b660001b610ccc565b61106e82600260186111ac565b60f01b9050919050565b60006110a67fa822aaeebbcf0e85f42aa3de9f6eb3b325eac42e986704cef805e540e8343a9b60001b610ccc565b6110d27fd4a784c6848383c0635c031e014e9cd31b1aafe6dc104bfa1afaba84ae34772160001b610ccc565b6110fe7f8ab6b34d043a53bfacbec7d8c7498b28b373bdbef97c51f384c383d1e67d2a8b60001b610ccc565b61110b82601460046111ac565b9050919050565b60006111407fec470a8145bff8b54df859d76079146400709ef274da839f9becf0474f965e4060001b610ccc565b61116c7f3922a6e75c9a47a37e978c89efbb90da1f937de44b102eb7a8cec953b470970f60001b610ccc565b6111987f17ec29bcfb14c68a09477f05ae80d3bb59364e243d10b9466e8a75dae88c01d760001b610ccc565b6111a582600460006111ac565b9050919050565b60006111da7f97a949f7cf753de2ab67f66199ee495c35eeac7287a2e36ae4cc4dff0760d29b60001b610ccc565b6112067fd8db074e3d9231e557f61b2fbdc655395d0aad8ece3d1360d7a3d7be38e6090660001b610ccc565b6112327fe9e00c922cf43152c4da827f780b077489d6d4a2a0bb7ea4dd63c1ce49b3906560001b610ccc565b60006008836112419190611868565b60016008866112509190611868565b600261125c9190611989565b611266919061199d565b60001b901b90506112997f9e8e8773f2de27feb497ee8bf10260988387218c18185929fab030a1c976a7ce60001b610ccc565b6112c57fa7895881cfb3b0ce9006b8bbd4741f717601e372c84c941d8af787c312f3118860001b610ccc565b6000818660001b1690506112fb7fdba4163e34171110de5b9ee33846469f74f2a746d4153c8925c75c7b30ab794f60001b610ccc565b6113277f3419ff284efaf5e2681f81fcfd52f0e95e67d4e032ca48578d6f66ad5febb49f60001b610ccc565b6008846113349190611868565b81901c60001c925050509392505050565b604051806101000160405280600060ff168152602001600060ff168152602001600060ff168152602001600061ffff16815260200160007dffffffffffffffffffffffffffffffffffffffffffffffffffffffffffff1916815260200160007dffffffffffffffffffffffffffffffffffffffffffffffffffffffffffff19168152602001600073ffffffffffffffffffffffffffffffffffffffff168152602001600063ffffffff1681525090565b6000806020838503121561140857600080fd5b823567ffffffffffffffff8082111561142057600080fd5b818501915085601f83011261143457600080fd5b81358181111561144357600080fd5b86602082850101111561145557600080fd5b6020830194508093505050509250929050565b600060208201905082825292915050565b60006020828403121561148b57600080fd5b8135905092915050565b61ffff60f01b811682525050565b60018060a01b03811682525050565b63ffffffff811682525050565b60006101008201905060ff835116825260ff602084015116602083015260ff604084015116604083015261ffff606084015116606083015261ffff60f01b608084015116608083015260a083015161151a60a0840182611495565b5060c083015161152d60c08401826114a3565b5060e083015161154060e08401826114b2565b5092915050565b60008135905060ff8116811461155c57600080fd5b919050565b60006020828403121561157357600080fd5b61157c82611547565b905092915050565b60208152602460208201527f556e737570706f727465642072656d6f76616c20746f6b656e2069642076657260408201527f73696f6e0000000000000000000000000000000000000000000000000000000060608201526000608082019050919050565b60208152602a60208201527f72656d6f76616c4461746120636f6e7461696e732077726f6e67206e756d626560408201527f72206f662062797465730000000000000000000000000000000000000000000060608201526000608082019050919050565b60008135905061ffff8116811461166257600080fd5b919050565b60008135905061ffff60f01b8116811461168057600080fd5b919050565b60008135905060018060a01b038116811461169f57600080fd5b919050565b60008135905063ffffffff811681146116bc57600080fd5b919050565b60006101008083850312156116d557600080fd5b604051818101915080821067ffffffffffffffff8311171561170757634e487b7160e01b600052604160045260246000fd5b8160405261171484611547565b815261172260208501611547565b602082015261173360408501611547565b60408201526117446060850161164c565b606082015261175560808501611667565b608082015261176660a08501611667565b60a082015261177760c08501611685565b60c082015261178860e085016116a4565b60e0820152809250505092915050565b60208152601560208201527f4d6574686f6c6f646f677920746f6f206c61726765000000000000000000000060408201526000606082019050919050565b60208152601d60208201527f4d6574686f6c6f646f67792076657273696f6e20746f6f206c6172676500000060408201526000606082019050919050565b60208152600d60208201527f496e76616c69642041534349490000000000000000000000000000000000000060408201526000606082019050919050565b634e487b7160e01b600052601160045260246000fd5b600081600019048311821515161561188357611882611852565b5b828202905092915050565b60008060018092508391505b808511156118d45781600019048211156118b7576118b6611852565b5b808516156118c55781830292505b818202915084811c945061189a565b509250929050565b6000826118ec5760019050611983565b816118fa5760009050611983565b8160018114611910576002811461191a57611938565b6001915050611983565b60ff84111561192c5761192b611852565b5b6001841b915050611983565b5060208310610133831016604e8410600b841016171561195c5782820a9050611983565b611966838361188e565b806000190482111561197b5761197a611852565b5b808202925050505b92915050565b600061199583836118dc565b905092915050565b6000828210156119b0576119af611852565b5b82820390509291505056fea26469706673582212207509ae06df122017a9891a94a16d5d458b788e53ca8cdbb856fe8061f35e931e64736f6c634300080f0033",
  "linkReferences": {},
  "deployedLinkReferences": {}
}