{
  "_format": "hh-sol-artifact-1",
  "contractName": "RemovalTestHarness",
  "sourceName": "contracts/RemovalUtilsTestHarness.sol",
  "abi": [
    {
      "inputs": [
        {
          "internalType": "uint256",
          "name": "tokenId",
          "type": "uint256"
        }
      ],
      "name": "admin1CodeFromTokenId",
      "outputs": [
        {
          "internalType": "string",
          "name": "",
          "type": "string"
        }
      ],
      "stateMutability": "pure",
      "type": "function"
    },
    {
      "inputs": [
        {
          "internalType": "uint256",
          "name": "tokenId",
          "type": "uint256"
        }
      ],
      "name": "countryCodeFromTokenId",
      "outputs": [
        {
          "internalType": "string",
          "name": "",
          "type": "string"
        }
      ],
      "stateMutability": "pure",
      "type": "function"
    },
    {
      "inputs": [
        {
          "internalType": "uint256",
          "name": "tokenId",
          "type": "uint256"
        }
      ],
      "name": "methodologyFromTokenId",
      "outputs": [
        {
          "internalType": "uint256",
          "name": "",
          "type": "uint256"
        }
      ],
      "stateMutability": "pure",
      "type": "function"
    },
    {
      "inputs": [
        {
          "internalType": "uint256",
          "name": "tokenId",
          "type": "uint256"
        }
      ],
      "name": "methodologyVersionFromTokenId",
      "outputs": [
        {
          "internalType": "uint256",
          "name": "",
          "type": "uint256"
        }
      ],
      "stateMutability": "pure",
      "type": "function"
    },
    {
      "inputs": [
        {
          "internalType": "uint256",
          "name": "tokenId",
          "type": "uint256"
        }
      ],
      "name": "parcelIdFromTokenId",
      "outputs": [
        {
          "internalType": "uint256",
          "name": "",
          "type": "uint256"
        }
      ],
      "stateMutability": "pure",
      "type": "function"
    },
    {
      "inputs": [
        {
          "internalType": "uint256",
          "name": "tokenId",
          "type": "uint256"
        }
      ],
      "name": "supplierAddressFromTokenId",
      "outputs": [
        {
          "internalType": "address",
          "name": "",
          "type": "address"
        }
      ],
      "stateMutability": "pure",
      "type": "function"
    },
    {
      "inputs": [
        {
          "internalType": "uint256",
          "name": "tokenId",
          "type": "uint256"
        }
      ],
      "name": "versionFromTokenId",
      "outputs": [
        {
          "internalType": "uint256",
          "name": "",
          "type": "uint256"
        }
      ],
      "stateMutability": "pure",
      "type": "function"
    },
    {
      "inputs": [
        {
          "internalType": "uint256",
          "name": "tokenId",
          "type": "uint256"
        }
      ],
      "name": "vintageFromTokenId",
      "outputs": [
        {
          "internalType": "uint256",
          "name": "",
          "type": "uint256"
        }
      ],
      "stateMutability": "pure",
      "type": "function"
    }
  ],
  "bytecode": "0x608060405234801561001057600080fd5b5061051d806100206000396000f3fe608060405234801561001057600080fd5b50600436106100885760003560e01c8063b07fb9001161005b578063b07fb90014610111578063b2cfa72c14610124578063e63e5dba14610137578063efd57a491461014a57600080fd5b8063115b70991461008d5780634ba287da146100b35780636dcfe50f146100c65780638309d4e9146100f1575b600080fd5b6100a061009b366004610320565b61015d565b6040519081526020015b60405180910390f35b6100a06100c1366004610320565b61016e565b6100d96100d4366004610320565b610179565b6040516001600160a01b0390911681526020016100aa565b6101046100ff366004610320565b610184565b6040516100aa9190610339565b6100a061011f366004610320565b61018f565b6100a0610132366004610320565b61019a565b6100a0610145366004610320565b6101a5565b610104610158366004610320565b6101b0565b6000610168826101bb565b92915050565b6000610168826101ca565b6000610168826101d9565b6060610168826101e8565b600061016882610287565b6000610168826102a0565b6000610168826102af565b6060610168826102c7565b600061016882600460006102d4565b6000610168826001601f6102d4565b600061016882601460046102d4565b606060006101f983600260186102d4565b6040805160028082528183019092529192506000919060208201818036833701905050905081601e1a60f81b816000815181106102385761023861038e565b60200101906001600160f81b031916908160001a90535081601f1a60f81b816001815181106102695761026961038e565b60200101906001600160f81b031916908160001a9053509392505050565b60006004610298836001601e6102d4565b901c92915050565b6000610168826002601c6102d4565b60006102be826001601e6102d4565b60071692915050565b606060006101f9836002601a5b6000806102e26008846103ba565b60016102ef6008876103ba565b6102fa9060026104bd565b61030491906104d0565b901b90508481166103166008856103ba565b1c95945050505050565b60006020828403121561033257600080fd5b5035919050565b600060208083528351808285015260005b818110156103665785810183015185820160400152820161034a565b81811115610378576000604083870101525b50601f01601f1916929092016040019392505050565b634e487b7160e01b600052603260045260246000fd5b634e487b7160e01b600052601160045260246000fd5b60008160001904831182151516156103d4576103d46103a4565b500290565b600181815b808511156104145781600019048211156103fa576103fa6103a4565b8085161561040757918102915b93841c93908002906103de565b509250929050565b60008261042b57506001610168565b8161043857506000610168565b816001811461044e576002811461045857610474565b6001915050610168565b60ff841115610469576104696103a4565b50506001821b610168565b5060208310610133831016604e8410600b8410161715610497575081810a610168565b6104a183836103d9565b80600019048211156104b5576104b56103a4565b029392505050565b60006104c9838361041c565b9392505050565b6000828210156104e2576104e26103a4565b50039056fea2646970667358221220fb87ab4092c3957ae150b196122c7a22bb8cc91a23b6f29b76cb76e94efee98264736f6c634300080d0033",
  "linkReferences": {},
  "deployedLinkReferences": {}
}