{
  "_format": "hh-sol-artifact-1",
  "contractName": "RemovalTestHarness",
  "sourceName": "contracts/RemovalUtilsTestHarness.sol",
  "abi": [
    {
      "inputs": [
        {
          "internalType": "uint256",
          "name": "removalId",
          "type": "uint256"
        }
      ],
      "name": "admin1Code",
      "outputs": [
        {
          "internalType": "bytes2",
          "name": "",
          "type": "bytes2"
        }
      ],
      "stateMutability": "pure",
      "type": "function"
    },
    {
      "inputs": [
        {
          "internalType": "uint256",
          "name": "removalId",
          "type": "uint256"
        }
      ],
      "name": "countryCode",
      "outputs": [
        {
          "internalType": "bytes2",
          "name": "",
          "type": "bytes2"
        }
      ],
      "stateMutability": "pure",
      "type": "function"
    },
    {
      "inputs": [
        {
          "internalType": "bytes",
          "name": "removalData",
          "type": "bytes"
        }
      ],
      "name": "createRemovalId",
      "outputs": [
        {
          "internalType": "uint256",
          "name": "",
          "type": "uint256"
        }
      ],
      "stateMutability": "pure",
      "type": "function"
    },
    {
      "inputs": [
        {
          "internalType": "uint256",
          "name": "removalId",
          "type": "uint256"
        }
      ],
      "name": "methodology",
      "outputs": [
        {
          "internalType": "uint8",
          "name": "",
          "type": "uint8"
        }
      ],
      "stateMutability": "pure",
      "type": "function"
    },
    {
      "inputs": [
        {
          "internalType": "uint256",
          "name": "removalId",
          "type": "uint256"
        }
      ],
      "name": "methodologyVersion",
      "outputs": [
        {
          "internalType": "uint8",
          "name": "",
          "type": "uint8"
        }
      ],
      "stateMutability": "pure",
      "type": "function"
    },
    {
      "inputs": [
        {
          "internalType": "uint256",
          "name": "removalId",
          "type": "uint256"
        }
      ],
      "name": "subIdentifier",
      "outputs": [
        {
          "internalType": "uint32",
          "name": "",
          "type": "uint32"
        }
      ],
      "stateMutability": "pure",
      "type": "function"
    },
    {
      "inputs": [
        {
          "internalType": "uint256",
          "name": "removalId",
          "type": "uint256"
        }
      ],
      "name": "supplierAddress",
      "outputs": [
        {
          "internalType": "address",
          "name": "",
          "type": "address"
        }
      ],
      "stateMutability": "pure",
      "type": "function"
    },
    {
      "inputs": [
        {
          "internalType": "uint256",
          "name": "removalId",
          "type": "uint256"
        }
      ],
      "name": "unpackRemovalIdV0",
      "outputs": [
        {
          "components": [
            {
              "internalType": "uint8",
              "name": "idVersion",
              "type": "uint8"
            },
            {
              "internalType": "uint8",
              "name": "methodology",
              "type": "uint8"
            },
            {
              "internalType": "uint8",
              "name": "methodologyVersion",
              "type": "uint8"
            },
            {
              "internalType": "uint16",
              "name": "vintage",
              "type": "uint16"
            },
            {
              "internalType": "bytes2",
              "name": "country",
              "type": "bytes2"
            },
            {
              "internalType": "bytes2",
              "name": "admin1",
              "type": "bytes2"
            },
            {
              "internalType": "address",
              "name": "supplierAddress",
              "type": "address"
            },
            {
              "internalType": "uint32",
              "name": "subIdentifier",
              "type": "uint32"
            }
          ],
          "internalType": "struct UnpackedRemovalIdV0",
          "name": "",
          "type": "tuple"
        }
      ],
      "stateMutability": "pure",
      "type": "function"
    },
    {
      "inputs": [
        {
          "internalType": "uint256",
          "name": "removalId",
          "type": "uint256"
        }
      ],
      "name": "version",
      "outputs": [
        {
          "internalType": "uint8",
          "name": "",
          "type": "uint8"
        }
      ],
      "stateMutability": "pure",
      "type": "function"
    },
    {
      "inputs": [
        {
          "internalType": "uint256",
          "name": "removalId",
          "type": "uint256"
        }
      ],
      "name": "vintage",
      "outputs": [
        {
          "internalType": "uint16",
          "name": "",
          "type": "uint16"
        }
      ],
      "stateMutability": "pure",
      "type": "function"
    }
  ],
  "bytecode": "0x608060405234801561001057600080fd5b50610b58806100206000396000f3fe608060405234801561001057600080fd5b506004361061009e5760003560e01c8063af236fd511610066578063af236fd514610167578063c285f8081461017a578063d14cab3b146101a6578063d3cbde31146101b9578063d85a53e9146101cc57600080fd5b8063054c2679146100a35780632022fb1d146100d057806348ec4c3b146100fb578063737fa5891461011c5780639df2938f14610142575b600080fd5b6100b66100b1366004610764565b6101ec565b60405163ffffffff90911681526020015b60405180910390f35b6100e36100de366004610764565b6101fd565b6040516001600160a01b0390911681526020016100c7565b61010e61010936600461077d565b610208565b6040519081526020016100c7565b61012f61012a366004610764565b61021b565b60405161ffff90911681526020016100c7565b610155610150366004610764565b610226565b60405160ff90911681526020016100c7565b610155610175366004610764565b610231565b61018d610188366004610764565b61023c565b6040516001600160f01b031990911681526020016100c7565b61018d6101b4366004610764565b610247565b6101556101c7366004610764565b610252565b6101df6101da366004610764565b61025d565b6040516100c791906107ef565b60006101f78261026e565b92915050565b60006101f78261027d565b6000610214838361028c565b9392505050565b60006101f7826105a7565b60006101f7826105b6565b60006101f7826105ce565b60006101f7826105e7565b60006101f7826105ff565b60006101f78261060e565b610265610720565b6101f78261061d565b60006101f782600460006106d4565b60006101f782601460046106d4565b60008061029b838501856108a3565b60ff16905080156102ff5760405162461bcd60e51b8152602060048201526024808201527f556e737570706f727465642072656d6f76616c20746f6b656e2069642076657260448201526339b4b7b760e11b60648201526084015b60405180910390fd5b61010083146103635760405162461bcd60e51b815260206004820152602a60248201527f72656d6f76616c4461746120636f6e7461696e732077726f6e67206e756d626560448201526972206f6620627974657360b01b60648201526084016102f6565b600061037184860186610913565b9050600f816020015160ff1611156103c35760405162461bcd60e51b81526020600482015260156024820152744d6574686f6c6f646f677920746f6f206c6172676560581b60448201526064016102f6565b600f816040015160ff16111561041b5760405162461bcd60e51b815260206004820152601d60248201527f4d6574686f6c6f646f67792076657273696f6e20746f6f206c6172676500000060448201526064016102f6565b608081015160a082015160f882811c9260ff60f091821c8116939283901c9290911c16604184108015906104505750605a8411155b801561045d575060418310155b801561046a5750605a8311155b8015610477575060418210155b80156104845750605a8211155b8015610491575060418110155b801561049e5750605a8111155b6104da5760405162461bcd60e51b815260206004820152600d60248201526c496e76616c696420415343494960981b60448201526064016102f6565b600085604001516004876020015160ff16901b1760ff1690506008600061050191906109fc565b60e087015163ffffffff16901b61051a600860046109fc565b60c08801516001600160a01b0316901b610536600860186109fc565b60a089015160f01c901b61054c6008601a6109fc565b60808a015160f01c901b6105626008601c6109fc565b60608b015161ffff16901b6105796008601e6109fc565b86901b6105886008601f6109fc565b8c6000015160ff16901b17171717171797505050505050505092915050565b60006101f7826002601c6106d4565b60006105c5826001601e6106d4565b600f1692915050565b600060046105df836001601e6106d4565b901c92915050565b60006105f682600260186106d4565b60f01b92915050565b60006105f6826002601a6106d4565b60006101f7826001601f6106d4565b610625610720565b60405180610100016040528061063a8461060e565b60ff16815260200161064b846105ce565b60ff16815260200161065c846105b6565b60ff16815260200161066d846105a7565b61ffff16815260200161067f846105ff565b6001600160f01b0319168152602001610697846105e7565b6001600160f01b03191681526020016106af8461027d565b6001600160a01b031681526020016106c68461026e565b63ffffffff16905292915050565b6000806106e26008846109fc565b60016106ef6008876109fc565b6106fa906002610aff565b6107049190610b0b565b901b90508481166107166008856109fc565b1c95945050505050565b6040805161010081018252600080825260208201819052918101829052606081018290526080810182905260a0810182905260c0810182905260e081019190915290565b60006020828403121561077657600080fd5b5035919050565b6000806020838503121561079057600080fd5b823567ffffffffffffffff808211156107a857600080fd5b818501915085601f8301126107bc57600080fd5b8135818111156107cb57600080fd5b8660208285010111156107dd57600080fd5b60209290920196919550909350505050565b60006101008201905060ff835116825260ff602084015116602083015260ff604084015116604083015261ffff606084015116606083015261ffff60f01b608084015116608083015260a083015161085360a08401826001600160f01b0319169052565b5060c083015161086e60c08401826001600160a01b03169052565b5060e083015161088660e084018263ffffffff169052565b5092915050565b803560ff8116811461089e57600080fd5b919050565b6000602082840312156108b557600080fd5b6102148261088d565b803561ffff8116811461089e57600080fd5b80356001600160f01b03198116811461089e57600080fd5b80356001600160a01b038116811461089e57600080fd5b803563ffffffff8116811461089e57600080fd5b600061010080838503121561092757600080fd5b6040519081019067ffffffffffffffff8211818310171561095857634e487b7160e01b600052604160045260246000fd5b816040526109658461088d565b81526109736020850161088d565b60208201526109846040850161088d565b6040820152610995606085016108be565b60608201526109a6608085016108d0565b60808201526109b760a085016108d0565b60a08201526109c860c085016108e8565b60c08201526109d960e085016108ff565b60e0820152949350505050565b634e487b7160e01b600052601160045260246000fd5b6000816000190483118215151615610a1657610a166109e6565b500290565b600181815b80851115610a56578160001904821115610a3c57610a3c6109e6565b80851615610a4957918102915b93841c9390800290610a20565b509250929050565b600082610a6d575060016101f7565b81610a7a575060006101f7565b8160018114610a905760028114610a9a57610ab6565b60019150506101f7565b60ff841115610aab57610aab6109e6565b50506001821b6101f7565b5060208310610133831016604e8410600b8410161715610ad9575081810a6101f7565b610ae38383610a1b565b8060001904821115610af757610af76109e6565b029392505050565b60006102148383610a5e565b600082821015610b1d57610b1d6109e6565b50039056fea2646970667358221220bfc0a9eff2187f4bae59df43d46332f3ea9d2bf070ca3af6ef1e36e559ec25df64736f6c634300080d0033",
  "linkReferences": {},
  "deployedLinkReferences": {}
}