{
  "_format": "hh-sol-artifact-1",
  "contractName": "PausableAccessPreset",
  "sourceName": "contracts/PausableAccessPreset.sol",
  "abi": [
    {
      "anonymous": false,
      "inputs": [
        {
          "indexed": false,
          "internalType": "uint8",
          "name": "version",
          "type": "uint8"
        }
      ],
      "name": "Initialized",
      "type": "event"
    },
    {
      "anonymous": false,
      "inputs": [
        {
          "indexed": false,
          "internalType": "address",
          "name": "account",
          "type": "address"
        }
      ],
      "name": "Paused",
      "type": "event"
    },
    {
      "anonymous": false,
      "inputs": [
        {
          "indexed": true,
          "internalType": "bytes32",
          "name": "role",
          "type": "bytes32"
        },
        {
          "indexed": true,
          "internalType": "bytes32",
          "name": "previousAdminRole",
          "type": "bytes32"
        },
        {
          "indexed": true,
          "internalType": "bytes32",
          "name": "newAdminRole",
          "type": "bytes32"
        }
      ],
      "name": "RoleAdminChanged",
      "type": "event"
    },
    {
      "anonymous": false,
      "inputs": [
        {
          "indexed": true,
          "internalType": "bytes32",
          "name": "role",
          "type": "bytes32"
        },
        {
          "indexed": true,
          "internalType": "address",
          "name": "account",
          "type": "address"
        },
        {
          "indexed": true,
          "internalType": "address",
          "name": "sender",
          "type": "address"
        }
      ],
      "name": "RoleGranted",
      "type": "event"
    },
    {
      "anonymous": false,
      "inputs": [
        {
          "indexed": true,
          "internalType": "bytes32",
          "name": "role",
          "type": "bytes32"
        },
        {
          "indexed": true,
          "internalType": "address",
          "name": "account",
          "type": "address"
        },
        {
          "indexed": true,
          "internalType": "address",
          "name": "sender",
          "type": "address"
        }
      ],
      "name": "RoleRevoked",
      "type": "event"
    },
    {
      "anonymous": false,
      "inputs": [
        {
          "indexed": false,
          "internalType": "address",
          "name": "account",
          "type": "address"
        }
      ],
      "name": "Unpaused",
      "type": "event"
    },
    {
      "inputs": [],
      "name": "DEFAULT_ADMIN_ROLE",
      "outputs": [
        {
          "internalType": "bytes32",
          "name": "",
          "type": "bytes32"
        }
      ],
      "stateMutability": "view",
      "type": "function"
    },
    {
      "inputs": [],
      "name": "PAUSER_ROLE",
      "outputs": [
        {
          "internalType": "bytes32",
          "name": "",
          "type": "bytes32"
        }
      ],
      "stateMutability": "view",
      "type": "function"
    },
    {
      "inputs": [
        {
          "internalType": "bytes32",
          "name": "role",
          "type": "bytes32"
        }
      ],
      "name": "getRoleAdmin",
      "outputs": [
        {
          "internalType": "bytes32",
          "name": "",
          "type": "bytes32"
        }
      ],
      "stateMutability": "view",
      "type": "function"
    },
    {
      "inputs": [
        {
          "internalType": "bytes32",
          "name": "role",
          "type": "bytes32"
        },
        {
          "internalType": "uint256",
          "name": "index",
          "type": "uint256"
        }
      ],
      "name": "getRoleMember",
      "outputs": [
        {
          "internalType": "address",
          "name": "",
          "type": "address"
        }
      ],
      "stateMutability": "view",
      "type": "function"
    },
    {
      "inputs": [
        {
          "internalType": "bytes32",
          "name": "role",
          "type": "bytes32"
        }
      ],
      "name": "getRoleMemberCount",
      "outputs": [
        {
          "internalType": "uint256",
          "name": "",
          "type": "uint256"
        }
      ],
      "stateMutability": "view",
      "type": "function"
    },
    {
      "inputs": [
        {
          "internalType": "bytes32",
          "name": "role",
          "type": "bytes32"
        },
        {
          "internalType": "address",
          "name": "account",
          "type": "address"
        }
      ],
      "name": "grantRole",
      "outputs": [],
      "stateMutability": "nonpayable",
      "type": "function"
    },
    {
      "inputs": [
        {
          "internalType": "bytes32",
          "name": "role",
          "type": "bytes32"
        },
        {
          "internalType": "address",
          "name": "account",
          "type": "address"
        }
      ],
      "name": "hasRole",
      "outputs": [
        {
          "internalType": "bool",
          "name": "",
          "type": "bool"
        }
      ],
      "stateMutability": "view",
      "type": "function"
    },
    {
      "inputs": [],
      "name": "pause",
      "outputs": [],
      "stateMutability": "nonpayable",
      "type": "function"
    },
    {
      "inputs": [],
      "name": "paused",
      "outputs": [
        {
          "internalType": "bool",
          "name": "",
          "type": "bool"
        }
      ],
      "stateMutability": "view",
      "type": "function"
    },
    {
      "inputs": [
        {
          "internalType": "bytes32",
          "name": "role",
          "type": "bytes32"
        },
        {
          "internalType": "address",
          "name": "account",
          "type": "address"
        }
      ],
      "name": "renounceRole",
      "outputs": [],
      "stateMutability": "nonpayable",
      "type": "function"
    },
    {
      "inputs": [
        {
          "internalType": "bytes32",
          "name": "role",
          "type": "bytes32"
        },
        {
          "internalType": "address",
          "name": "account",
          "type": "address"
        }
      ],
      "name": "revokeRole",
      "outputs": [],
      "stateMutability": "nonpayable",
      "type": "function"
    },
    {
      "inputs": [
        {
          "internalType": "bytes4",
          "name": "interfaceId",
          "type": "bytes4"
        }
      ],
      "name": "supportsInterface",
      "outputs": [
        {
          "internalType": "bool",
          "name": "",
          "type": "bool"
        }
      ],
      "stateMutability": "view",
      "type": "function"
    },
    {
      "inputs": [],
      "name": "unpause",
      "outputs": [],
      "stateMutability": "nonpayable",
      "type": "function"
    }
  ],
  "bytecode": "0x60a06040527f65d7a28e3265b37a6474929f336521b332c1681b933f6cb9f3376673440d862a60805234801561003457600080fd5b506080516110d061005e600039600081816102310152818161039301526103c801526110d06000f3fe608060405234801561001057600080fd5b50600436106100df5760003560e01c80638456cb591161008c578063a217fddf11610066578063a217fddf146101fe578063ca15c87314610206578063d547741f14610219578063e63ab1e91461022c57600080fd5b80638456cb59146101785780639010d07c1461018057806391d14854146101b857600080fd5b806336568abe116100bd57806336568abe146101525780633f4ba83a146101655780635c975abb1461016d57600080fd5b806301ffc9a7146100e4578063248a9ca31461010c5780632f2ff15d1461013d575b600080fd5b6100f76100f2366004610d75565b610253565b60405190151581526020015b60405180910390f35b61012f61011a366004610db7565b60009081526097602052604090206001015490565b604051908152602001610103565b61015061014b366004610dd0565b6102af565b005b610150610160366004610dd0565b6102d9565b610150610391565b60335460ff166100f7565b6101506103c6565b61019361018e366004610e19565b6103f8565b60405173ffffffffffffffffffffffffffffffffffffffff9091168152602001610103565b6100f76101c6366004610dd0565b600091825260976020908152604080842073ffffffffffffffffffffffffffffffffffffffff93909316845291905290205460ff1690565b61012f600081565b61012f610214366004610db7565b610417565b610150610227366004610dd0565b61042e565b61012f7f000000000000000000000000000000000000000000000000000000000000000081565b60007fffffffff0000000000000000000000000000000000000000000000000000000082167f5a05180f0000000000000000000000000000000000000000000000000000000014806102a957506102a982610453565b92915050565b6000828152609760205260409020600101546102ca816104ea565b6102d483836104f4565b505050565b73ffffffffffffffffffffffffffffffffffffffff81163314610383576040517f08c379a000000000000000000000000000000000000000000000000000000000815260206004820152602f60248201527f416363657373436f6e74726f6c3a2063616e206f6e6c792072656e6f756e636560448201527f20726f6c657320666f722073656c66000000000000000000000000000000000060648201526084015b60405180910390fd5b61038d8282610516565b5050565b7f00000000000000000000000000000000000000000000000000000000000000006103bb816104ea565b6103c3610538565b50565b7f00000000000000000000000000000000000000000000000000000000000000006103f0816104ea565b6103c36105b5565b600082815260c9602052604081206104109083610610565b9392505050565b600081815260c9602052604081206102a99061061c565b600082815260976020526040902060010154610449816104ea565b6102d48383610516565b60007fffffffff0000000000000000000000000000000000000000000000000000000082167f7965db0b0000000000000000000000000000000000000000000000000000000014806102a957507f01ffc9a7000000000000000000000000000000000000000000000000000000007fffffffff000000000000000000000000000000000000000000000000000000008316146102a9565b6103c38133610626565b6104fe82826106f8565b600082815260c9602052604090206102d490826107ec565b610520828261080e565b600082815260c9602052604090206102d490826108c9565b6105406108eb565b603380547fffffffffffffffffffffffffffffffffffffffffffffffffffffffffffffff001690557f5db9ee0a495bf2e6ff9c91a7834c1ba4fdd244a5e8aa4e537bd38aeae4b073aa335b60405173ffffffffffffffffffffffffffffffffffffffff909116815260200160405180910390a1565b6105bd610959565b603380547fffffffffffffffffffffffffffffffffffffffffffffffffffffffffffffff001660011790557f62e78cea01bee320cd4e420270b5ea74000d11b0c9f74754ebdbfc544b05a25861058b3390565b600061041083836109c6565b60006102a9825490565b600082815260976020908152604080832073ffffffffffffffffffffffffffffffffffffffff8516845290915290205460ff1661038d5761067e8173ffffffffffffffffffffffffffffffffffffffff1660146109f0565b6106898360206109f0565b60405160200161069a929190610e6b565b604080517fffffffffffffffffffffffffffffffffffffffffffffffffffffffffffffffe0818403018152908290527f08c379a000000000000000000000000000000000000000000000000000000000825261037a91600401610eec565b600082815260976020908152604080832073ffffffffffffffffffffffffffffffffffffffff8516845290915290205460ff1661038d57600082815260976020908152604080832073ffffffffffffffffffffffffffffffffffffffff85168452909152902080547fffffffffffffffffffffffffffffffffffffffffffffffffffffffffffffff0016600117905561078e3390565b73ffffffffffffffffffffffffffffffffffffffff168173ffffffffffffffffffffffffffffffffffffffff16837f2f8788117e7eff1d82e926ec794901d17c78024a50270940304540a733656f0d60405160405180910390a45050565b60006104108373ffffffffffffffffffffffffffffffffffffffff8416610c33565b600082815260976020908152604080832073ffffffffffffffffffffffffffffffffffffffff8516845290915290205460ff161561038d57600082815260976020908152604080832073ffffffffffffffffffffffffffffffffffffffff8516808552925280832080547fffffffffffffffffffffffffffffffffffffffffffffffffffffffffffffff0016905551339285917ff6391f5c32d9c69d2a47ea670b442974b53935d1edc7fd64eb21e047a839171b9190a45050565b60006104108373ffffffffffffffffffffffffffffffffffffffff8416610c82565b60335460ff16610957576040517f08c379a000000000000000000000000000000000000000000000000000000000815260206004820152601460248201527f5061757361626c653a206e6f7420706175736564000000000000000000000000604482015260640161037a565b565b60335460ff1615610957576040517f08c379a000000000000000000000000000000000000000000000000000000000815260206004820152601060248201527f5061757361626c653a2070617573656400000000000000000000000000000000604482015260640161037a565b60008260000182815481106109dd576109dd610f3d565b9060005260206000200154905092915050565b606060006109ff836002610f9b565b610a0a906002610fd8565b67ffffffffffffffff811115610a2257610a22610ff0565b6040519080825280601f01601f191660200182016040528015610a4c576020820181803683370190505b5090507f300000000000000000000000000000000000000000000000000000000000000081600081518110610a8357610a83610f3d565b60200101907effffffffffffffffffffffffffffffffffffffffffffffffffffffffffffff1916908160001a9053507f780000000000000000000000000000000000000000000000000000000000000081600181518110610ae657610ae6610f3d565b60200101907effffffffffffffffffffffffffffffffffffffffffffffffffffffffffffff1916908160001a9053506000610b22846002610f9b565b610b2d906001610fd8565b90505b6001811115610bca577f303132333435363738396162636465660000000000000000000000000000000085600f1660108110610b6e57610b6e610f3d565b1a60f81b828281518110610b8457610b84610f3d565b60200101907effffffffffffffffffffffffffffffffffffffffffffffffffffffffffffff1916908160001a90535060049490941c93610bc38161101f565b9050610b30565b508315610410576040517f08c379a000000000000000000000000000000000000000000000000000000000815260206004820181905260248201527f537472696e67733a20686578206c656e67746820696e73756666696369656e74604482015260640161037a565b6000818152600183016020526040812054610c7a575081546001818101845560008481526020808220909301849055845484825282860190935260409020919091556102a9565b5060006102a9565b60008181526001830160205260408120548015610d6b576000610ca6600183611054565b8554909150600090610cba90600190611054565b9050818114610d1f576000866000018281548110610cda57610cda610f3d565b9060005260206000200154905080876000018481548110610cfd57610cfd610f3d565b6000918252602080832090910192909255918252600188019052604090208390555b8554869080610d3057610d3061106b565b6001900381819060005260206000200160009055905585600101600086815260200190815260200160002060009055600193505050506102a9565b60009150506102a9565b600060208284031215610d8757600080fd5b81357fffffffff000000000000000000000000000000000000000000000000000000008116811461041057600080fd5b600060208284031215610dc957600080fd5b5035919050565b60008060408385031215610de357600080fd5b82359150602083013573ffffffffffffffffffffffffffffffffffffffff81168114610e0e57600080fd5b809150509250929050565b60008060408385031215610e2c57600080fd5b50508035926020909101359150565b60005b83811015610e56578181015183820152602001610e3e565b83811115610e65576000848401525b50505050565b7f416363657373436f6e74726f6c3a206163636f756e7420000000000000000000815260008351610ea3816017850160208801610e3b565b7f206973206d697373696e6720726f6c65200000000000000000000000000000006017918401918201528351610ee0816028840160208801610e3b565b01602801949350505050565b6020815260008251806020840152610f0b816040850160208701610e3b565b601f017fffffffffffffffffffffffffffffffffffffffffffffffffffffffffffffffe0169190910160400192915050565b7f4e487b7100000000000000000000000000000000000000000000000000000000600052603260045260246000fd5b7f4e487b7100000000000000000000000000000000000000000000000000000000600052601160045260246000fd5b6000817fffffffffffffffffffffffffffffffffffffffffffffffffffffffffffffffff0483118215151615610fd357610fd3610f6c565b500290565b60008219821115610feb57610feb610f6c565b500190565b7f4e487b7100000000000000000000000000000000000000000000000000000000600052604160045260246000fd5b60008161102e5761102e610f6c565b507fffffffffffffffffffffffffffffffffffffffffffffffffffffffffffffffff0190565b60008282101561106657611066610f6c565b500390565b7f4e487b7100000000000000000000000000000000000000000000000000000000600052603160045260246000fdfea2646970667358221220a6ba07e9c714b2c275b354224cb5153b4c88f93a4d54d54aec96a6b3a47a54bf64736f6c634300080f0033",
  "linkReferences": {},
  "deployedLinkReferences": {}
}