{
  "_format": "hh-sol-artifact-1",
  "contractName": "PausableAccessPreset",
  "sourceName": "contracts/PausableAccessPreset.sol",
  "abi": [
    {
      "anonymous": false,
      "inputs": [
        {
          "indexed": false,
          "internalType": "uint8",
          "name": "version",
          "type": "uint8"
        }
      ],
      "name": "Initialized",
      "type": "event"
    },
    {
      "anonymous": false,
      "inputs": [
        {
          "indexed": false,
          "internalType": "address",
          "name": "account",
          "type": "address"
        }
      ],
      "name": "Paused",
      "type": "event"
    },
    {
      "anonymous": false,
      "inputs": [
        {
          "indexed": true,
          "internalType": "bytes32",
          "name": "role",
          "type": "bytes32"
        },
        {
          "indexed": true,
          "internalType": "bytes32",
          "name": "previousAdminRole",
          "type": "bytes32"
        },
        {
          "indexed": true,
          "internalType": "bytes32",
          "name": "newAdminRole",
          "type": "bytes32"
        }
      ],
      "name": "RoleAdminChanged",
      "type": "event"
    },
    {
      "anonymous": false,
      "inputs": [
        {
          "indexed": true,
          "internalType": "bytes32",
          "name": "role",
          "type": "bytes32"
        },
        {
          "indexed": true,
          "internalType": "address",
          "name": "account",
          "type": "address"
        },
        {
          "indexed": true,
          "internalType": "address",
          "name": "sender",
          "type": "address"
        }
      ],
      "name": "RoleGranted",
      "type": "event"
    },
    {
      "anonymous": false,
      "inputs": [
        {
          "indexed": true,
          "internalType": "bytes32",
          "name": "role",
          "type": "bytes32"
        },
        {
          "indexed": true,
          "internalType": "address",
          "name": "account",
          "type": "address"
        },
        {
          "indexed": true,
          "internalType": "address",
          "name": "sender",
          "type": "address"
        }
      ],
      "name": "RoleRevoked",
      "type": "event"
    },
    {
      "anonymous": false,
      "inputs": [
        {
          "indexed": false,
          "internalType": "address",
          "name": "account",
          "type": "address"
        }
      ],
      "name": "Unpaused",
      "type": "event"
    },
    {
      "inputs": [],
      "name": "DEFAULT_ADMIN_ROLE",
      "outputs": [
        {
          "internalType": "bytes32",
          "name": "",
          "type": "bytes32"
        }
      ],
      "stateMutability": "view",
      "type": "function"
    },
    {
      "inputs": [],
      "name": "PAUSER_ROLE",
      "outputs": [
        {
          "internalType": "bytes32",
          "name": "",
          "type": "bytes32"
        }
      ],
      "stateMutability": "view",
      "type": "function"
    },
    {
      "inputs": [
        {
          "internalType": "bytes32",
          "name": "role",
          "type": "bytes32"
        }
      ],
      "name": "getRoleAdmin",
      "outputs": [
        {
          "internalType": "bytes32",
          "name": "",
          "type": "bytes32"
        }
      ],
      "stateMutability": "view",
      "type": "function"
    },
    {
      "inputs": [
        {
          "internalType": "bytes32",
          "name": "role",
          "type": "bytes32"
        },
        {
          "internalType": "uint256",
          "name": "index",
          "type": "uint256"
        }
      ],
      "name": "getRoleMember",
      "outputs": [
        {
          "internalType": "address",
          "name": "",
          "type": "address"
        }
      ],
      "stateMutability": "view",
      "type": "function"
    },
    {
      "inputs": [
        {
          "internalType": "bytes32",
          "name": "role",
          "type": "bytes32"
        }
      ],
      "name": "getRoleMemberCount",
      "outputs": [
        {
          "internalType": "uint256",
          "name": "",
          "type": "uint256"
        }
      ],
      "stateMutability": "view",
      "type": "function"
    },
    {
      "inputs": [
        {
          "internalType": "bytes32",
          "name": "role",
          "type": "bytes32"
        },
        {
          "internalType": "address",
          "name": "account",
          "type": "address"
        }
      ],
      "name": "grantRole",
      "outputs": [],
      "stateMutability": "nonpayable",
      "type": "function"
    },
    {
      "inputs": [
        {
          "internalType": "bytes32",
          "name": "role",
          "type": "bytes32"
        },
        {
          "internalType": "address",
          "name": "account",
          "type": "address"
        }
      ],
      "name": "hasRole",
      "outputs": [
        {
          "internalType": "bool",
          "name": "",
          "type": "bool"
        }
      ],
      "stateMutability": "view",
      "type": "function"
    },
    {
      "inputs": [],
      "name": "pause",
      "outputs": [],
      "stateMutability": "nonpayable",
      "type": "function"
    },
    {
      "inputs": [],
      "name": "paused",
      "outputs": [
        {
          "internalType": "bool",
          "name": "",
          "type": "bool"
        }
      ],
      "stateMutability": "view",
      "type": "function"
    },
    {
      "inputs": [
        {
          "internalType": "bytes32",
          "name": "role",
          "type": "bytes32"
        },
        {
          "internalType": "address",
          "name": "account",
          "type": "address"
        }
      ],
      "name": "renounceRole",
      "outputs": [],
      "stateMutability": "nonpayable",
      "type": "function"
    },
    {
      "inputs": [
        {
          "internalType": "bytes32",
          "name": "role",
          "type": "bytes32"
        },
        {
          "internalType": "address",
          "name": "account",
          "type": "address"
        }
      ],
      "name": "revokeRole",
      "outputs": [],
      "stateMutability": "nonpayable",
      "type": "function"
    },
    {
      "inputs": [
        {
          "internalType": "bytes4",
          "name": "interfaceId",
          "type": "bytes4"
        }
      ],
      "name": "supportsInterface",
      "outputs": [
        {
          "internalType": "bool",
          "name": "",
          "type": "bool"
        }
      ],
      "stateMutability": "view",
      "type": "function"
    },
    {
      "inputs": [],
      "name": "unpause",
      "outputs": [],
      "stateMutability": "nonpayable",
      "type": "function"
    }
  ],
  "bytecode": "0x60808060405234610016576111e0908161001c8239f35b600080fdfe608060408181526004918236101561001657600080fd5b600092833560e01c91826301ffc9a71461068557508163248a9ca31461063c5781632f2ff15d1461056157816336568abe146104a55781633f4ba83a146103b15781635c975abb1461036f5781638456cb59146102785781639010d07c1461020b57816391d14854146101c4578163a217fddf1461018b578163ca15c8731461014157508063d547741f1461010f5763e63ab1e9146100b457600080fd5b3461010b57817ffffffffffffffffffffffffffffffffffffffffffffffffffffffffffffffffc36011261010b57602090517f65d7a28e3265b37a6474929f336521b332c1681b933f6cb9f3376673440d862a8152f35b5080fd5b503461010b5761013e61012136610774565b90808552609760205261013960018587200154610ad5565b610cf9565b51f35b9050346101875760207ffffffffffffffffffffffffffffffffffffffffffffffffffffffffffffffffc36011261018757602092829135815260c9845220549051908152f35b8280fd5b50503461010b57817ffffffffffffffffffffffffffffffffffffffffffffffffffffffffffffffffc36011261010b5751908152602090f35b50503461010b5760ff816020936101da36610774565b9082526097865273ffffffffffffffffffffffffffffffffffffffff83832091168252855220541690519015158152f35b90503461018757817ffffffffffffffffffffffffffffffffffffffffffffffffffffffffffffffffc3601126101875761026960209373ffffffffffffffffffffffffffffffffffffffff9235815260c98552836024359120610f75565b92905490519260031b1c168152f35b90503461018757827ffffffffffffffffffffffffffffffffffffffffffffffffffffffffffffffffc360112610187576102b06107ca565b6033549060ff821661031257507fffffffffffffffffffffffffffffffffffffffffffffffffffffffffffffff0060019116176033557f62e78cea01bee320cd4e420270b5ea74000d11b0c9f74754ebdbfc544b05a25860208251338152a151f35b60649060208451917f08c379a0000000000000000000000000000000000000000000000000000000008352820152601060248201527f5061757361626c653a20706175736564000000000000000000000000000000006044820152fd5b50503461010b57817ffffffffffffffffffffffffffffffffffffffffffffffffffffffffffffffffc36011261010b5760209060ff6033541690519015158152f35b90503461018757827ffffffffffffffffffffffffffffffffffffffffffffffffffffffffffffffffc360112610187576103e96107ca565b6033549060ff82161561044857507fffffffffffffffffffffffffffffffffffffffffffffffffffffffffffffff00166033557f5db9ee0a495bf2e6ff9c91a7834c1ba4fdd244a5e8aa4e537bd38aeae4b073aa60208251338152a151f35b60649060208451917f08c379a0000000000000000000000000000000000000000000000000000000008352820152601460248201527f5061757361626c653a206e6f74207061757365640000000000000000000000006044820152fd5b905034610187576104b536610774565b913373ffffffffffffffffffffffffffffffffffffffff8416036104de57509061013e91610cf9565b60849060208551917f08c379a0000000000000000000000000000000000000000000000000000000008352820152602f60248201527f416363657373436f6e74726f6c3a2063616e206f6e6c792072656e6f756e636560448201527f20726f6c657320666f722073656c6600000000000000000000000000000000006064820152fd5b50503461010b576105d060c961057636610774565b91908086526020906097825261059160018789200154610ad5565b8087526097825273ffffffffffffffffffffffffffffffffffffffff868820941693848852825260ff8688205416156105d4575b865252828420610f8d565b5051f35b80875260978252858720848852825285872060017fffffffffffffffffffffffffffffffffffffffffffffffffffffffffffffff008254161790553384827f2f8788117e7eff1d82e926ec794901d17c78024a50270940304540a733656f0d8a8a51a46105c5565b9050346101875760207ffffffffffffffffffffffffffffffffffffffffffffffffffffffffffffffffc3601126101875781602093600192358152609785522001549051908152f35b8491346101875760207ffffffffffffffffffffffffffffffffffffffffffffffffffffffffffffffffc36011261018757357fffffffff00000000000000000000000000000000000000000000000000000000811680910361018757602092507f5a05180f000000000000000000000000000000000000000000000000000000008114908115610717575b5015158152f35b7f7965db0b0000000000000000000000000000000000000000000000000000000081149150811561074a575b5083610710565b7f01ffc9a70000000000000000000000000000000000000000000000000000000091501483610743565b7ffffffffffffffffffffffffffffffffffffffffffffffffffffffffffffffffc60409101126107c5576004359060243573ffffffffffffffffffffffffffffffffffffffff811681036107c55790565b600080fd5b3360009081527f793844da0378ca0230b21a4013ef02cf55735b90b39c85241478ff94b5eceb2860209081526040808320547f65d7a28e3265b37a6474929f336521b332c1681b933f6cb9f3376673440d862a919060ff161561082d5750505050565b61083633610def565b9181519061084382610c6d565b60428252848201956060368837825115610aa85760308753825190600191821015610aa85790607860218501536041915b8183116109dd5750505061098157604493926109788361093a6048601f957fffffffffffffffffffffffffffffffffffffffffffffffffffffffffffffffe097519a8b9161092b8b8401987f416363657373436f6e74726f6c3a206163636f756e74200000000000000000008a526108f68d8251928391603789019101610c38565b8401917f206973206d697373696e6720726f6c6520000000000000000000000000000000603784015251809386840190610c38565b0103602881018b520189610cb8565b519687957f08c379a0000000000000000000000000000000000000000000000000000000008752600487015251809281602488015287870190610c38565b01168101030190fd5b6064848351907f08c379a000000000000000000000000000000000000000000000000000000000825280600483015260248201527f537472696e67733a20686578206c656e67746820696e73756666696369656e746044820152fd5b909192600f81166010811015610a7b577f3031323334353637383961626364656600000000000000000000000000000000901a610a1a8587610daf565b5360041c928015610a4e577fffffffffffffffffffffffffffffffffffffffffffffffffffffffffffffffff019190610874565b6024827f4e487b710000000000000000000000000000000000000000000000000000000081526011600452fd5b6024837f4e487b710000000000000000000000000000000000000000000000000000000081526032600452fd5b807f4e487b7100000000000000000000000000000000000000000000000000000000602492526032600452fd5b600090808252602090609782526040808420338552835260ff818520541615610afe5750505050565b610b0733610def565b91815190610b1482610c6d565b60428252848201956060368837825115610aa85760308753825190600191821015610aa85790607860218501536041915b818311610bc75750505061098157604493926109788361093a6048601f957fffffffffffffffffffffffffffffffffffffffffffffffffffffffffffffffe097519a8b9161092b8b8401987f416363657373436f6e74726f6c3a206163636f756e74200000000000000000008a526108f68d8251928391603789019101610c38565b909192600f81166010811015610a7b577f3031323334353637383961626364656600000000000000000000000000000000901a610c048587610daf565b5360041c928015610a4e577fffffffffffffffffffffffffffffffffffffffffffffffffffffffffffffffff019190610b45565b918091926000905b828210610c58575011610c51575050565b6000910152565b91508060209183015181860152018291610c40565b6080810190811067ffffffffffffffff821117610c8957604052565b7f4e487b7100000000000000000000000000000000000000000000000000000000600052604160045260246000fd5b90601f7fffffffffffffffffffffffffffffffffffffffffffffffffffffffffffffffe0910116810190811067ffffffffffffffff821117610c8957604052565b90610d45916000818152609760205260409173ffffffffffffffffffffffffffffffffffffffff83832094169384835260205260ff8383205416610d48575b815260c960205220611050565b50565b80825260976020528282208483526020528282207fffffffffffffffffffffffffffffffffffffffffffffffffffffffffffffff0081541690553384827ff6391f5c32d9c69d2a47ea670b442974b53935d1edc7fd64eb21e047a839171b858751a4610d38565b908151811015610dc0570160200190565b7f4e487b7100000000000000000000000000000000000000000000000000000000600052603260045260246000fd5b604051906060820182811067ffffffffffffffff821117610c8957604052602a8252602082016040368237825115610dc057603090538151600190811015610dc057607860218401536029905b808211610eaa575050610e4c5790565b60646040517f08c379a000000000000000000000000000000000000000000000000000000000815260206004820152602060248201527f537472696e67733a20686578206c656e67746820696e73756666696369656e746044820152fd5b9091600f81166010811015610f47577f3031323334353637383961626364656600000000000000000000000000000000901a610ee68486610daf565b5360041c918015610f19577fffffffffffffffffffffffffffffffffffffffffffffffffffffffffffffffff0190610e3c565b602460007f4e487b710000000000000000000000000000000000000000000000000000000081526011600452fd5b602460007f4e487b710000000000000000000000000000000000000000000000000000000081526032600452fd5b8054821015610dc05760005260206000200190600090565b9190600183016000908282528060205260408220541560001461104a578454946801000000000000000086101561101d578361100d610fd6886001604098999a01855584610f75565b819391549060031b7fffffffffffffffffffffffffffffffffffffffffffffffffffffffffffffffff811b9283911b169119161790565b9055549382526020522055600190565b6024837f4e487b710000000000000000000000000000000000000000000000000000000081526041600452fd5b50925050565b906001820190600092818452826020526040842054908115156000146111a35760018210611176577fffffffffffffffffffffffffffffffffffffffffffffffffffffffffffffffff9182810182546001811061114957840190808203611114575b505050805480156110e7578201916110ca8383610f75565b909182549160031b1b191690555582526020526040812055600190565b6024867f4e487b710000000000000000000000000000000000000000000000000000000081526031600452fd5b611134611124610fd69386610f75565b90549060031b1c92839286610f75565b905586528460205260408620553880806110b2565b6024887f4e487b710000000000000000000000000000000000000000000000000000000081526011600452fd5b6024857f4e487b710000000000000000000000000000000000000000000000000000000081526011600452fd5b505050509056fea264697066735822122042de11792e502eb23093ce529ab11d50542274c5bafe1ab14c9e67261ab07aea64736f6c634300080f0033",
  "linkReferences": {},
  "deployedLinkReferences": {}
}