{
  "_format": "hh-sol-artifact-1",
  "contractName": "ScheduleTestHarness",
  "sourceName": "contracts/test/ScheduleTestHarness.sol",
  "abi": [
    {
      "anonymous": false,
      "inputs": [
        {
          "indexed": false,
          "internalType": "uint256",
          "name": "id",
          "type": "uint256"
        },
        {
          "indexed": false,
          "internalType": "uint256",
          "name": "time",
          "type": "uint256"
        },
        {
          "indexed": false,
          "internalType": "uint256",
          "name": "amount",
          "type": "uint256"
        }
      ],
      "name": "CliffAdded",
      "type": "event"
    },
    {
      "anonymous": false,
      "inputs": [
        {
          "indexed": false,
          "internalType": "uint256",
          "name": "id",
          "type": "uint256"
        },
        {
          "indexed": false,
          "internalType": "uint256",
          "name": "startTime",
          "type": "uint256"
        },
        {
          "indexed": false,
          "internalType": "uint256",
          "name": "endTime",
          "type": "uint256"
        },
        {
          "indexed": false,
          "internalType": "uint256",
          "name": "totalAmount",
          "type": "uint256"
        }
      ],
      "name": "ScheduleCreated",
      "type": "event"
    },
    {
      "anonymous": false,
      "inputs": [
        {
          "indexed": false,
          "internalType": "uint256",
          "name": "id",
          "type": "uint256"
        },
        {
          "indexed": false,
          "internalType": "uint256",
          "name": "balance",
          "type": "uint256"
        }
      ],
      "name": "ScheduleTruncated",
      "type": "event"
    },
    {
      "inputs": [
        {
          "internalType": "uint256",
          "name": "scheduleId",
          "type": "uint256"
        },
        {
          "internalType": "uint256",
          "name": "time",
          "type": "uint256"
        },
        {
          "internalType": "uint256",
          "name": "amount",
          "type": "uint256"
        }
      ],
      "name": "addCliff",
      "outputs": [],
      "stateMutability": "nonpayable",
      "type": "function"
    },
    {
      "inputs": [
        {
          "internalType": "uint256",
          "name": "scheduleId",
          "type": "uint256"
        },
        {
          "internalType": "uint256",
          "name": "atTime",
          "type": "uint256"
        }
      ],
      "name": "availableAmount",
      "outputs": [
        {
          "internalType": "uint256",
          "name": "",
          "type": "uint256"
        }
      ],
      "stateMutability": "view",
      "type": "function"
    },
    {
      "inputs": [
        {
          "internalType": "uint256",
          "name": "startTime",
          "type": "uint256"
        },
        {
          "internalType": "uint256",
          "name": "endTime",
          "type": "uint256"
        },
        {
          "internalType": "uint256",
          "name": "totalAmount",
          "type": "uint256"
        }
      ],
      "name": "create",
      "outputs": [],
      "stateMutability": "nonpayable",
      "type": "function"
    },
    {
      "inputs": [
        {
          "internalType": "uint256",
          "name": "scheduleId",
          "type": "uint256"
        },
        {
          "internalType": "uint256",
          "name": "atTime",
          "type": "uint256"
        }
      ],
      "name": "truncateScheduleAmount",
      "outputs": [],
      "stateMutability": "nonpayable",
      "type": "function"
    }
  ],
  "bytecode": "0x6080806040523461001657610614908161001c8239f35b600080fdfe6040608081526004908136101561001557600080fd5b600091823560e01c80633f353fcf146103905780635174b5621461012c5780635899ea13146100fd5763c97fe94b1461004d57600080fd5b346100f95761005b3661040f565b916001938454808852876020528688209060011981116100e6578591876002920188558481558588820155015584549485106100d357508451600019909401845260208401528284015260608201527fbd7880573155705535dce3194981f4b25e22063a5619ea279e73b43b3483167090608090a151f35b634e487b7160e01b875260119052602486fd5b634e487b7160e01b895260118352602489fd5b8280fd5b5050346101285761012160209282610114366103f4565b9290815280865220610456565b9051908152f35b5080fd5b50346100f95761013b3661040f565b91808652602090868252858720858101805491821560001461031d57805486106102c7575b6001810154861161026c57600581019261017b888554610429565b600283015410610217578a526003018452878920858155600101869055805460011981116102045760010190556101b3858254610429565b9055865285815283858720015493600185106100d3575084516000199094018452830152818301527fe3b8293c4ee6cdc59f5c1690803c6c1440038f43705dc0b37d382be2ae3d2cdb90606090a151f35b634e487b7160e01b8a526011885260248afd5b895162461bcd60e51b8152808a01879052602960248201527f5363686564756c655574696c733a20436c69666620616d6f756e747320657863604482015268195959081d1bdd185b60ba1b6064820152608490fd5b885162461bcd60e51b8152808901869052602f60248201527f5363686564756c655574696c733a20436c696666732063616e6e6f7420656e6460448201526e206166746572207363686564756c6560881b6064820152608490fd5b885162461bcd60e51b8152808901869052602a60248201527f5363686564756c655574696c733a20436c696666206265666f72652073636865604482015269191d5b19481cdd185c9d60b21b6064820152608490fd5b600183106102045760001983018a52600381018552888a205486101561016057885162461bcd60e51b8152808901869052602760248201527f5363686564756c655574696c733a20436c69666673206e6f74206368726f6e6f6044820152661b1bd9da58d85b60ca1b6064820152608490fd5b505034610128577f6114e26f4333414f417da57f7a415474fd2df0730648f4748b8eb9a2d14495aa816103d76103c5366103f4565b81879392935286602052838720610456565b81865285602052806002848820015582519182526020820152a151f35b604090600319011261040a576004359060243590565b600080fd5b606090600319011261040a57600435906024359060443590565b81198111610435570190565b634e487b7160e01b600052601160045260246000fd5b818110610435570390565b90600060048084015490825b82811061049d57505050829161048c916002610492950154908082106000146104955750926104f8565b90610429565b90565b9050926104f8565b8060005260038601602052604080600020548610156104de575b5060001981146104c957600101610462565b601182634e487b7160e01b6000525260246000fd5b9360016104f19295600020015490610429565b92386104b7565b60006002820154600583015490818110156105cd575b50506001820154808410156105c6578254926004810154908161059b575b5050826105389161044b565b926000928082101561054e575050505050600090565b6105579161044b565b9181600019048311821515166105875783156105735750020490565b634e487b7160e01b81526012600452602490fd5b634e487b7160e01b81526011600452602490fd5b909193506001821061043557600391600019016000520160205261053860406000205492903861052c565b5091505090565b6105d7925061044b565b388061050e56fea26469706673582212202aef138f45492f01474080912b9401f480f1e04b63c5700866cb9320dd7ff15564736f6c634300080f0033",
  "linkReferences": {},
  "deployedLinkReferences": {}
}